{
  "_format": "hh-sol-artifact-1",
  "contractName": "VRFV2PlusClient",
  "sourceName": "@chainlink/contracts/src/v0.8/vrf/dev/libraries/VRFV2PlusClient.sol",
  "abi": [
    {
      "inputs": [],
      "name": "EXTRA_ARGS_V1_TAG",
      "outputs": [
        {
          "internalType": "bytes4",
          "name": "",
          "type": "bytes4"
        }
      ],
      "stateMutability": "view",
      "type": "function"
    }
  ],
  "bytecode": "0x60808060405234601857607b908161001e823930815050f35b600080fdfe6080806040526004361015601257600080fd5b60003560e01c63f7514ab414602657600080fd5b600036600319011260405763125fa26760e31b8152602090f35b600080fdfea2646970667358221220e34770967c627a5dec1ac1fc0660ca0c986267e853b9cfb35023a635882f587a64736f6c63430008140033",
  "linkReferences": {},
  "deployedLinkReferences": {}
}