{"contracts/vault/VaultManager.sol":{"VaultManager":{"abi":[{"inputs":[{"internalType":"address","name":"_config","type":"address"},{"internalType":"address","name":"_admin","type":"address"}],"stateMutability":"nonpayable","type":"constructor"},{"inputs":[],"name":"AccessControlBadConfirmation","type":"error"},{"inputs":[{"internalType":"address","name":"account","type":"address"},{"internalType":"bytes32","name":"neededRole","type":"bytes32"}],"name":"AccessControlUnauthorizedAccount","type":"error"},{"inputs":[],"name":"EnforcedPause","type":"error"},{"inputs":[],"name":"ExpectedPause","type":"error"},{"inputs":[],"name":"ReentrancyGuardReentrantCall","type":"error"},{"inputs":[{"internalType":"address","name":"token","type":"address"}],"name":"SafeERC20FailedOperation","type":"error"},{"anonymous":false,"inputs":[{"indexed":true,"internalType":"address","name":"token","type":"address"},{"indexed":false,"internalType":"uint256","name":"amount","type":"uint256"},{"indexed":false,"internalType":"string","name":"feeType","type":"string"},{"indexed":false,"internalType":"uint256","name":"timestamp","type":"uint256"}],"name":"FeeCollected","type":"event"},{"anonymous":false,"inputs":[{"indexed":true,"internalType":"address","name":"user","type":"address"},{"indexed":true,"internalType":"address","name":"token","type":"address"},{"indexed":false,"internalType":"uint256","name":"amount","type":"uint256"},{"indexed":false,"internalType":"uint256","name":"timestamp","type":"uint256"}],"name":"MarginDeposited","type":"event"},{"anonymous":false,"inputs":[{"indexed":true,"internalType":"address","name":"from","type":"address"},{"indexed":true,"internalType":"address","name":"to","type":"address"},{"indexed":true,"internalType":"address","name":"token","type":"address"},{"indexed":false,"internalType":"uint256","name":"amount","type":"uint256"},{"indexed":false,"internalType":"string","name":"reason","type":"string"},{"indexed":false,"internalType":"uint256","name":"timestamp","type":"uint256"}],"name":"MarginTransferred","type":"event"},{"anonymous":false,"inputs":[{"indexed":true,"internalType":"address","name":"user","type":"address"},{"indexed":true,"internalType":"address","name":"token","type":"address"},{"indexed":false,"internalType":"uint256","name":"amount","type":"uint256"},{"indexed":false,"internalType":"uint256","name":"timestamp","type":"uint256"}],"name":"MarginWithdrawn","type":"event"},{"anonymous":false,"inputs":[{"indexed":false,"internalType":"address","name":"account","type":"address"}],"name":"Paused","type":"event"},{"anonymous":false,"inputs":[{"indexed":true,"internalType":"address","name":"token","type":"address"},{"indexed":false,"internalType":"uint256","name":"amount","type":"uint256"},{"indexed":false,"internalType":"string","name":"poolType","type":"string"},{"indexed":false,"internalType":"uint256","name":"timestamp","type":"uint256"}],"name":"ProfitDistributed","type":"event"},{"anonymous":false,"inputs":[{"indexed":true,"internalType":"bytes32","name":"role","type":"bytes32"},{"indexed":true,"internalType":"bytes32","name":"previousAdminRole","type":"bytes32"},{"indexed":true,"internalType":"bytes32","name":"newAdminRole","type":"bytes32"}],"name":"RoleAdminChanged","type":"event"},{"anonymous":false,"inputs":[{"indexed":true,"internalType":"bytes32","name":"role","type":"bytes32"},{"indexed":true,"internalType":"address","name":"account","type":"address"},{"indexed":true,"internalType":"address","name":"sender","type":"address"}],"name":"RoleGranted","type":"event"},{"anonymous":false,"inputs":[{"indexed":true,"internalType":"bytes32","name":"role","type":"bytes32"},{"indexed":true,"internalType":"address","name":"account","type":"address"},{"indexed":true,"internalType":"address","name":"sender","type":"address"}],"name":"RoleRevoked","type":"event"},{"anonymous":false,"inputs":[{"indexed":false,"internalType":"address","name":"account","type":"address"}],"name":"Unpaused","type":"event"},{"inputs":[],"name":"DEFAULT_ADMIN_ROLE","outputs":[{"internalType":"bytes32","name":"","type":"bytes32"}],"stateMutability":"view","type":"function"},{"inputs":[],"name":"VAULT_OPERATOR_ROLE","outputs":[{"internalType":"bytes32","name":"","type":"bytes32"}],"stateMutability":"view","type":"function"},{"inputs":[{"internalType":"address","name":"_token","type":"address"},{"internalType":"uint256","name":"_lpAmount","type":"uint256"},{"internalType":"uint256","name":"_interactAmount","type":"uint256"},{"internalType":"uint256","name":"_donationAmount","type":"uint256"}],"name":"allocateProfitToSubPools","outputs":[],"stateMutability":"nonpayable","type":"function"},{"inputs":[{"internalType":"address","name":"_token","type":"address"},{"internalType":"address[]","name":"_recipients","type":"address[]"},{"internalType":"uint256[]","name":"_amounts","type":"uint256[]"}],"name":"batchDistributeNodeRewards","outputs":[],"stateMutability":"nonpayable","type":"function"},{"inputs":[{"internalType":"address","name":"_user","type":"address"},{"internalType":"address","name":"_token","type":"address"},{"internalType":"uint256","name":"_amount","type":"uint256"},{"internalType":"string","name":"_feeType","type":"string"}],"name":"collectFee","outputs":[],"stateMutability":"nonpayable","type":"function"},{"inputs":[],"name":"config","outputs":[{"internalType":"contract Config","name":"","type":"address"}],"stateMutability":"view","type":"function"},{"inputs":[{"internalType":"address","name":"_user","type":"address"},{"internalType":"address","name":"_token","type":"address"},{"internalType":"uint256","name":"_amount","type":"uint256"}],"name":"depositMargin","outputs":[],"stateMutability":"nonpayable","type":"function"},{"inputs":[{"internalType":"address","name":"_token","type":"address"},{"internalType":"uint256","name":"_amount","type":"uint256"}],"name":"depositToDonationPool","outputs":[],"stateMutability":"nonpayable","type":"function"},{"inputs":[{"internalType":"address","name":"_token","type":"address"},{"internalType":"uint256","name":"_amount","type":"uint256"}],"name":"depositToInteractPool","outputs":[],"stateMutability":"nonpayable","type":"function"},{"inputs":[{"internalType":"address","name":"_token","type":"address"},{"internalType":"uint256","name":"_amount","type":"uint256"}],"name":"depositToLPPool","outputs":[],"stateMutability":"nonpayable","type":"function"},{"inputs":[{"internalType":"address","name":"_token","type":"address"},{"internalType":"uint256","name":"_amount","type":"uint256"}],"name":"distributeProfits","outputs":[],"stateMutability":"nonpayable","type":"function"},{"inputs":[{"internalType":"address","name":"","type":"address"}],"name":"donationPoolBalance","outputs":[{"internalType":"uint256","name":"","type":"uint256"}],"stateMutability":"view","type":"function"},{"inputs":[{"internalType":"address","name":"_token","type":"address"}],"name":"getProfitPoolBalance","outputs":[{"internalType":"uint256","name":"","type":"uint256"}],"stateMutability":"view","type":"function"},{"inputs":[{"internalType":"bytes32","name":"role","type":"bytes32"}],"name":"getRoleAdmin","outputs":[{"internalType":"bytes32","name":"","type":"bytes32"}],"stateMutability":"view","type":"function"},{"inputs":[{"internalType":"address","name":"_token","type":"address"}],"name":"getTotalMarginPool","outputs":[{"internalType":"uint256","name":"","type":"uint256"}],"stateMutability":"view","type":"function"},{"inputs":[{"internalType":"address","name":"_user","type":"address"},{"internalType":"address","name":"_token","type":"address"}],"name":"getUserMarginBalance","outputs":[{"internalType":"uint256","name":"","type":"uint256"}],"stateMutability":"view","type":"function"},{"inputs":[{"internalType":"address","name":"_operator","type":"address"}],"name":"grantOperatorRole","outputs":[],"stateMutability":"nonpayable","type":"function"},{"inputs":[{"internalType":"bytes32","name":"role","type":"bytes32"},{"internalType":"address","name":"account","type":"address"}],"name":"grantRole","outputs":[],"stateMutability":"nonpayable","type":"function"},{"inputs":[{"internalType":"bytes32","name":"role","type":"bytes32"},{"internalType":"address","name":"account","type":"address"}],"name":"hasRole","outputs":[{"internalType":"bool","name":"","type":"bool"}],"stateMutability":"view","type":"function"},{"inputs":[{"internalType":"address","name":"","type":"address"}],"name":"interactPoolBalance","outputs":[{"internalType":"uint256","name":"","type":"uint256"}],"stateMutability":"view","type":"function"},{"inputs":[{"internalType":"address","name":"","type":"address"}],"name":"lpPoolBalance","outputs":[{"internalType":"uint256","name":"","type":"uint256"}],"stateMutability":"view","type":"function"},{"inputs":[{"internalType":"address","name":"","type":"address"}],"name":"marginPoolBalance","outputs":[{"internalType":"uint256","name":"","type":"uint256"}],"stateMutability":"view","type":"function"},{"inputs":[],"name":"pause","outputs":[],"stateMutability":"nonpayable","type":"function"},{"inputs":[],"name":"paused","outputs":[{"internalType":"bool","name":"","type":"bool"}],"stateMutability":"view","type":"function"},{"inputs":[{"internalType":"address","name":"","type":"address"}],"name":"profitPoolBalance","outputs":[{"internalType":"uint256","name":"","type":"uint256"}],"stateMutability":"view","type":"function"},{"inputs":[{"internalType":"bytes32","name":"role","type":"bytes32"},{"internalType":"address","name":"callerConfirmation","type":"address"}],"name":"renounceRole","outputs":[],"stateMutability":"nonpayable","type":"function"},{"inputs":[{"internalType":"bytes32","name":"role","type":"bytes32"},{"internalType":"address","name":"account","type":"address"}],"name":"revokeRole","outputs":[],"stateMutability":"nonpayable","type":"function"},{"inputs":[{"internalType":"address","name":"_config","type":"address"}],"name":"setConfig","outputs":[],"stateMutability":"nonpayable","type":"function"},{"inputs":[{"internalType":"bytes4","name":"interfaceId","type":"bytes4"}],"name":"supportsInterface","outputs":[{"internalType":"bool","name":"","type":"bool"}],"stateMutability":"view","type":"function"},{"inputs":[{"internalType":"address","name":"_from","type":"address"},{"internalType":"address","name":"_to","type":"address"},{"internalType":"address","name":"_token","type":"address"},{"internalType":"uint256","name":"_amount","type":"uint256"},{"internalType":"string","name":"_reason","type":"string"}],"name":"transferMargin","outputs":[],"stateMutability":"nonpayable","type":"function"},{"inputs":[{"internalType":"address","name":"_recipient","type":"address"},{"internalType":"uint256","name":"_amount","type":"uint256"}],"name":"transferReward","outputs":[],"stateMutability":"nonpayable","type":"function"},{"inputs":[{"internalType":"address","name":"_token","type":"address"},{"internalType":"uint256","name":"_amount","type":"uint256"},{"internalType":"address","name":"_feedProtocol","type":"address"}],"name":"transferToFeedProtocol","outputs":[],"stateMutability":"nonpayable","type":"function"},{"inputs":[],"name":"unpause","outputs":[],"stateMutability":"nonpayable","type":"function"},{"inputs":[{"internalType":"address","name":"","type":"address"},{"internalType":"address","name":"","type":"address"}],"name":"userMarginBalance","outputs":[{"internalType":"uint256","name":"","type":"uint256"}],"stateMutability":"view","type":"function"},{"inputs":[{"internalType":"address","name":"_token","type":"address"},{"internalType":"uint256","name":"_amount","type":"uint256"},{"internalType":"address","name":"_recipient","type":"address"}],"name":"withdrawFromDonationPool","outputs":[],"stateMutability":"nonpayable","type":"function"},{"inputs":[{"internalType":"address","name":"_token","type":"address"},{"internalType":"uint256","name":"_amount","type":"uint256"},{"internalType":"address","name":"_recipient","type":"address"}],"name":"withdrawFromInteractPool","outputs":[],"stateMutability":"nonpayable","type":"function"},{"inputs":[{"internalType":"address","name":"_token","type":"address"},{"internalType":"uint256","name":"_amount","type":"uint256"},{"internalType":"address","name":"_recipient","type":"address"}],"name":"withdrawFromLPPool","outputs":[],"stateMutability":"nonpayable","type":"function"},{"inputs":[{"internalType":"address","name":"_user","type":"address"},{"internalType":"address","name":"_token","type":"address"},{"internalType":"uint256","name":"_amount","type":"uint256"}],"name":"withdrawMargin","outputs":[],"stateMutability":"nonpayable","type":"function"}],"evm":{"bytecode":{"linkReferences":{},"object":"608034620000ac57601f6200227c38819003918201601f19168301916001600160401b03831184841017620000b1578084926040948552833981010312620000ac57806200005f6020620000576200009b94620000c7565b9201620000c7565b6001805560028054610100600160a81b03191660089390931b610100600160a81b0316929092179091556200009481620000dc565b506200015c565b5060405161205d9081620001ff8239f35b600080fd5b634e487b7160e01b600052604160045260246000fd5b51906001600160a01b0382168203620000ac57565b6001600160a01b031660008181527fad3228b676f7d3cd4284a5443f17f1962b36e491b30a40b2405849e597ba5fb5602052604081205490919060ff166200015857818052816020526040822081835260205260408220600160ff1982541617905533916000805160206200225c8339815191528180a4600190565b5090565b6001600160a01b031660008181527fad6010f11d85e6849ec87f5f41f95a2725aaf728916b399656c75ce30b0d2c5460205260408120549091907f696e87880cf63dca8f080e7a026952044d39afbd9cb8ab3582bd4b29e6071b299060ff16620001f957808352826020526040832082845260205260408320600160ff198254161790556000805160206200225c833981519152339380a4600190565b50509056fe6080604081815260048036101561001557600080fd5b600092833560e01c90816301ffc9a7146118325750806308b8bb4b146115d957806315490ebb1461139d5780631de8ae531461136557806320e3dbd414611318578063234c30d71461112f578063248a9ca31461110657806327ac0c58146110b65780632f2ff15d1461108d5780632ff1d45814610f5b57806331aa128d14610e3557806336568abe14610dee5780633e0e706e14610dc75780633f4ba83a14610d5e5780634a650a2c14610c88578063564a6c9814610ba55780635c975abb14610b815780636208edc914610aa5578063715d5896146107ce57806375818bd7146109cf57806377c5b5061461093757806379502c551461090a5780637af4c51b146108d25780638456cb591461087757806391d1485414610832578063a217fddf14610817578063a7a62975146107ce578063ad04570d1461054f578063bdf3e780146106f0578063bed62365146106c757838163c3c8f58c1461058757508063c69c75cd1461054f578063d249f54e14610451578063d44f97b814610419578063d547741f146103db578063e1ede08f146102fb578063ec185a07146101ff5763f6faa649146101c757600080fd5b346101fb5760203660031901126101fb5760209282916001600160a01b036101ed611886565b168252845220549051908152f35b8280fd5b50346101fb5760803660031901126101fb57610219611886565b91836102236118a1565b60443560643567ffffffffffffffff81116102f7577f66aecc579aa1ef463c0ed1547c2cb6163370e6311a60cba815252acbb398f213956102cb836102ed9561029e60ff6102758b97369088016118e8565b9b909a600080516020612008833981519152815280602052818120338252602052205416611b8b565b6102a6611d7f565b6102ae611d61565b6102b9821515611be3565b6001600160a01b03169930908b611c9e565b8789526020528088206102df838254611c43565b905551938493429285611e56565b0390a26001805580f35b8380fd5b5050346103d757806003193601126103d757600080516020611fe883398151915260a0610326611886565b6024359060008051602061200883398151915286528560205284862033875260205261035760ff8688205416611b8b565b61035f611d7f565b610367611d61565b610372821515611be3565b600180841b03169361038682303388611c9e565b848652600760205280862061039c838254611c43565b9055805191825260606020830152601060608301526f191bdb985d1a5bdb97d9195c1bdcda5d60821b60808301524290820152a26001805580f35b5080fd5b5090346101fb57806003193601126101fb57610415913561041060016103ff6118a1565b9383875286602052862001546119d7565b611b16565b5080f35b5050346103d75760203660031901126103d75760209181906001600160a01b03610441611886565b1681526007845220549051908152f35b5050346103d7577f63ca1bee673fe6befaa933c20ecf9ca16a04bd4273bffe1a05b0b9cc9b9be043906104833661194a565b60008051602061200883398151915286959394929552602086815282872033885281526104b560ff8489205416611b8b565b6104bd611d7f565b6104c5611d61565b6104d0821515611be3565b61053d8260018060a01b039687811697888b5260088552868b20991698898b52845261050182878c20541015611da2565b878a5260088452858a20898b528452858a2061051e838254611df9565b9055888a5260038452858a20610535838254611df9565b905588611e06565b82519182524290820152a36001805580f35b5050346103d75760203660031901126103d75760209181906001600160a01b03610577611886565b1681526003845220549051908152f35b808484346106c35760803660031901126106c35781600080516020611fe88339815191529260608560a0946105ba611886565b90602435604435916106336064359460008051602061200883398151915287526105f660ff8a602099808b528181203382528b52205416611b8b565b6105fe611d7f565b610606611d61565b610619866106148787611c43565b611c43565b998a916001808e1b03169d8e815284895220541015611e8a565b8a8c528452858b20610646888254611df9565b9055898b526005845261065d868c20918254611c43565b9055888a5260068352610674858b20918254611c43565b90558789526007825261068b848a20918254611c43565b905582519384528301526011606083015270383937b334ba2fb0b63637b1b0ba34b7b760791b60808301524290820152a26001805580f35b5050fd5b5050346103d757816003193601126103d757602090516000805160206120088339815191528152f35b5050346103d757600080516020611fe883398151915260a061079461071436611916565b959190809391600080516020612008833981519152895288602052838920338a5260205261074760ff858b205416611b8b565b61074f611d7f565b610757611d61565b600180871b031696878952600660205261077682858b20541015611ef8565b878952600660205283892061078c838254611df9565b905587611e06565b8051918252606060208301526011606083015270696e7465726163745f776974686472617760781b60808301524290820152a26001805580f35b5050346103d757806003193601126103d757806020926107ec611886565b6107f46118a1565b6001600160a01b0391821683526008865283832091168252845220549051908152f35b5050346103d757816003193601126103d75751908152602090f35b50346101fb57816003193601126101fb578160209360ff926108526118a1565b903582528186528282206001600160a01b039091168252855220549151911615158152f35b5050346103d757816003193601126103d75760207f62e78cea01bee320cd4e420270b5ea74000d11b0c9f74754ebdbfc544b05a258916108b561197f565b6108bd611d61565b600160ff19600254161760025551338152a180f35b5050346103d75760203660031901126103d75760209181906001600160a01b036108fa611886565b1681526005845220549051908152f35b5050346103d757816003193601126103d757600254905160089190911c6001600160a01b03168152602090f35b5050346103d7576109c89061094b36611916565b9160008051602061200883398151915286949294528560205281862033875260205261097c60ff8388205416611b8b565b610984611d7f565b61098c611d61565b60018060a01b03169081865260066020526109ac84828820541015611ef8565b818652600660205285206109c1848254611df9565b9055611e06565b6001805580f35b5050346103d757600080516020611fe883398151915260a0610a6b6109f336611916565b959190809391600080516020612008833981519152895288602052838920338a52602052610a2660ff858b205416611b8b565b610a2e611d7f565b610a36611d61565b600180871b0316968789526007602052610a5582858b20541015611f55565b878952600760205283892061078c838254611df9565b8051918252606060208301526011606083015270646f6e6174696f6e5f776974686472617760781b60808301524290820152a26001805580f35b5050346103d757806003193601126103d757600080516020611fe883398151915260a0610ad0611886565b60243590600080516020612008833981519152865285602052848620338752602052610b0160ff8688205416611b8b565b610b09611d7f565b610b11611d61565b610b1c821515611be3565b600180841b031693610b3082303388611c9e565b8486526006602052808620610b46838254611c43565b9055805191825260606020830152601060608301526f1a5b9d195c9858dd17d9195c1bdcda5d60821b60808301524290820152a26001805580f35b5050346103d757816003193601126103d75760209060ff6002541690519015158152f35b5050346103d7577f2bde942ed78f9e1081375810d2aa3bfe43ec08b083f750914542c4bf2fe936c790610bd73661194a565b60008051602061200883398151915286959395949294526020938685528287203388528552610c0b60ff8489205416611b8b565b610c13611d7f565b610c1b611d61565b610c26821515611be3565b6001600160a01b0390811695610c3e8330838a611c9e565b1693848752600881528287208688528152828720610c5d838254611c43565b905585875260038152828720610c74838254611c43565b905582519182524290820152a36001805580f35b5050346103d757806003193601126103d757600080516020611fe883398151915260a0610cb3611886565b60243590600080516020612008833981519152865285602052848620338752602052610ce460ff8688205416611b8b565b610cec611d7f565b610cf4611d61565b610cff821515611be3565b600180841b031693610d1382303388611c9e565b8486526005602052808620610d29838254611c43565b9055805191825260606020830152600a6060830152691b1c17d9195c1bdcda5d60b21b60808301524290820152a26001805580f35b50346101fb57826003193601126101fb57610d7761197f565b6002549060ff821615610db9575060ff1916600255513381527f5db9ee0a495bf2e6ff9c91a7834c1ba4fdd244a5e8aa4e537bd38aeae4b073aa90602090a180f35b8251638dfc202b60e01b8152fd5b50346101fb5760203660031901126101fb5760209282916001600160a01b036101ed611886565b509190346103d757806003193601126103d757610e096118a1565b90336001600160a01b03831603610e265750610415919235611b16565b5163334bd91960e11b81528390fd5b5090346101fb57610e4536611916565b6000805160206120088339815191528694939294526020918683528387203388528352610e7760ff8589205416611b8b565b610e7f611d7f565b610e87611d61565b6001600160a01b031680875260058352838720549095908511610f0d57509160608492610edd600080516020611fe88339815191529660a096898b5260058452858b20610ed5838254611df9565b905589611e06565b8251938452830152600b60608301526a6c705f776974686472617760a81b60808301524290820152a26001805580f35b835162461bcd60e51b8152908101839052602260248201527f5661756c744d616e616765723a20696e73756666696369656e74204c5020706f6044820152611bdb60f21b6064820152608490fd5b50346101fb5760a03660031901126101fb57610f75611886565b610f7d6118a1565b92846044359460018060a01b03948587168097036101fb576064356084359467ffffffffffffffff8611611089578789946110418484610fe461107f987f31eb66acea2a2e9363e745354476882560841a43c057f7f2e75e63470ca557af9c3691016118e8565b9a9099600080516020612008833981519152825260209e8f9e8f848152858520903386525261101860ff8686205416611b8b565b611020611d7f565b611028611d61565b169d8e8352600881528383209183525220541015611da2565b888c5260088a52828c208b8d528a52828c2061105e858254611df9565b90551697888b5260088152818b20908a8c5252808a206102df838254611c43565b0390a46001805580f35b8480fd5b5090346101fb57806003193601126101fb5761041591356110b160016103ff6118a1565b611a9d565b5050346103d75760203660031901126103d7576104159061110160016110da611886565b926110e361197f565b600080516020612008833981519152865285602052852001546119d7565b6119fd565b50346101fb5760203660031901126101fb57816020936001923581528085522001549051908152f35b5090346101fb5760603660031901126101fb5761114a611886565b906024359267ffffffffffffffff938481116113145761116d90369083016118b7565b946044359081116113105761118590369084016118b7565b6000805160206120088339815191528896929652602093888552858920338a5285526111b660ff878b205416611b8b565b6111be611d7f565b6111c6611d61565b8188036112cd57508795885b8281106112a8575060018060a01b0380931697888a52600786526111fb88888c20541015611f55565b888a5260078652868a20611210898254611df9565b9055895b81811061126a578a8a600080516020611fe883398151915260a08c8c60608d825193845283015260126060830152710dcdec8cabee4caeec2e4c8e6bec4c2e8c6d60731b60808301524290820152a26001805580f35b611275818388611fc1565b359085821682036112a45761129a61129f92611292838888611fc1565b35908d611e06565b611fb2565b611214565b8b80fd5b966112c26112c8916112bb8a8686611fc1565b3590611c43565b97611fb2565b6111d2565b855162461bcd60e51b8152908101859052601d60248201527f5661756c744d616e616765723a206c656e677468206d69736d617463680000006044820152606490fd5b8680fd5b8580fd5b833461136257602036600319011261136257611332611886565b61133a61197f565b60028054610100600160a81b03191660089290921b610100600160a81b031691909117905580f35b80fd5b5050346103d75760203660031901126103d75760209181906001600160a01b0361138d611886565b1681526006845220549051908152f35b5090346101fb57806003193601126101fb576113b7611886565b9060243591600080516020612008833981519152855260209085825282862033875282526113ea60ff8488205416611b8b565b6113f2611d7f565b6113fa611d61565b6001600160a01b038181161561159657611415851515611be3565b85838260025460081c168651928380926320f2e74760e11b82525afa90811561158c57908291899161154e575b50161561153457739f2140319726f9b851073a303415f13ec0cda2695b16948587528083528484882054106114d75784926114a0600080516020611fe88339815191529660a096946060948a8c528452858b20610ed5838254611df9565b82519384528301526012606083015271185c989a5d1c985d1a5bdb97dc995dd85c9960721b60808301524290820152a26001805580f35b835162461bcd60e51b8152908101839052603160248201527f5661756c744d616e616765723a20696e73756666696369656e742070726f66696044820152701d081c1bdbdb08199bdc881c995dd85c99607a1b6064820152608490fd5b7355d398326f99059ff775485246999027b319795561145f565b809250858092503d8311611585575b6115678183611c66565b810103126115815751818116810361158157819038611442565b8780fd5b503d61155d565b85513d8a823e3d90fd5b835162461bcd60e51b8152808701849052601f60248201527f5661756c744d616e616765723a20696e76616c696420726563697069656e74006044820152606490fd5b50346101fb57816003193601126101fb576115f2611886565b916024359060008051602061200883398151915285526020858152818620338752815261162460ff8388205416611b8b565b61162c611d7f565b611634611d61565b60018060a01b038095169485875284825261165484848920541015611e8a565b858752848252828720611668858254611df9565b905560025460081c16938251906362f5ad6360e01b825282828281895afa80156117b9578890611803575b6116a4925061271092839187611ee5565b04958451633c6ec58560e11b815284818481855afa9081156117f957908592918b916117c3575b506116d69088611ee5565b5085516301eb418960e71b815292839182905afa9081156117b9578891611772575b5091600080516020611fe88339815191529560609261171b87969560a098611ee5565b04888a5260058352611731858b20918254611c43565b905587895260078252611748848a20918254611c43565b905582519384528301526003606083015262185b1b60ea1b60808301524290820152a26001805580f35b9194939280915082813d83116117b2575b61178d8183611c66565b8101031261158157905192939192909190600080516020611fe88339815191526116f8565b503d611783565b84513d8a823e3d90fd5b83819492503d83116117f2575b6117da8183611c66565b810103126117ee576116d6859251906116cb565b8980fd5b503d6117d0565b86513d8c823e3d90fd5b508282813d831161182b575b6118198183611c66565b81010312611581576116a49151611693565b503d61180f565b925050346101fb5760203660031901126101fb573563ffffffff60e01b81168091036101fb5760209250637965db0b60e01b8114908115611875575b5015158152f35b6301ffc9a760e01b1490503861186e565b600435906001600160a01b038216820361189c57565b600080fd5b602435906001600160a01b038216820361189c57565b9181601f8401121561189c5782359167ffffffffffffffff831161189c576020808501948460051b01011161189c57565b9181601f8401121561189c5782359167ffffffffffffffff831161189c576020838186019501011161189c57565b606090600319011261189c576001600160a01b03600435818116810361189c579160243591604435908116810361189c5790565b606090600319011261189c576001600160a01b0390600435828116810361189c5791602435908116810361189c579060443590565b3360009081527fad3228b676f7d3cd4284a5443f17f1962b36e491b30a40b2405849e597ba5fb5602052604081205460ff16156119b95750565b6044906040519063e2517d3f60e01b82523360048301526024820152fd5b80600052600060205260406000203360005260205260ff60406000205416156119b95750565b6001600160a01b031660008181527fad6010f11d85e6849ec87f5f41f95a2725aaf728916b399656c75ce30b0d2c5460205260408120549091906000805160206120088339815191529060ff16611a9857808352826020526040832082845260205260408320600160ff198254161790557f2f8788117e7eff1d82e926ec794901d17c78024a50270940304540a733656f0d339380a4600190565b505090565b9060009180835282602052604083209160018060a01b03169182845260205260ff60408420541615600014611a9857808352826020526040832082845260205260408320600160ff198254161790557f2f8788117e7eff1d82e926ec794901d17c78024a50270940304540a733656f0d339380a4600190565b9060009180835282602052604083209160018060a01b03169182845260205260ff604084205416600014611a985780835282602052604083208284526020526040832060ff1981541690557ff6391f5c32d9c69d2a47ea670b442974b53935d1edc7fd64eb21e047a839171b339380a4600190565b15611b9257565b60405162461bcd60e51b8152602060048201526024808201527f5661756c744d616e616765723a2063616c6c6572206973206e6f74206f70657260448201526330ba37b960e11b6064820152608490fd5b15611bea57565b60405162461bcd60e51b815260206004820152602b60248201527f5661756c744d616e616765723a20616d6f756e74206d7573742062652067726560448201526a061746572207468616e20360ac1b6064820152608490fd5b91908201809211611c5057565b634e487b7160e01b600052601160045260246000fd5b90601f8019910116810190811067ffffffffffffffff821117611c8857604052565b634e487b7160e01b600052604160045260246000fd5b6040516323b872dd60e01b60208201526001600160a01b03928316602482015292909116604483015260648083019390935291815260a081019181831067ffffffffffffffff841117611c8857611cf792604052611cf9565b565b906000602091828151910182855af115611d55576000513d611d4c57506001600160a01b0381163b155b611d2a5750565b604051635274afe760e01b81526001600160a01b039091166004820152602490fd5b60011415611d23565b6040513d6000823e3d90fd5b60ff60025416611d6d57565b60405163d93c066560e01b8152600490fd5b600260015414611d90576002600155565b604051633ee5aeb560e01b8152600490fd5b15611da957565b60405162461bcd60e51b815260206004820152602260248201527f5661756c744d616e616765723a20696e73756666696369656e742062616c616e604482015261636560f01b6064820152608490fd5b91908203918211611c5057565b60405163a9059cbb60e01b60208201526001600160a01b039092166024830152604480830193909352918152608081019167ffffffffffffffff831182841017611c8857611cf792604052611cf9565b94939280604093608093885260606020890152816060890152838801376000828288010152601f8019910116850101930152565b15611e9157565b60405162461bcd60e51b815260206004820152602660248201527f5661756c744d616e616765723a20696e73756666696369656e742070726f66696044820152651d081c1bdbdb60d21b6064820152608490fd5b81810292918115918404141715611c5057565b15611eff57565b60405162461bcd60e51b815260206004820152602860248201527f5661756c744d616e616765723a20696e73756666696369656e7420696e7465726044820152671858dd081c1bdbdb60c21b6064820152608490fd5b15611f5c57565b60405162461bcd60e51b815260206004820152602860248201527f5661756c744d616e616765723a20696e73756666696369656e7420646f6e61746044820152671a5bdb881c1bdbdb60c21b6064820152608490fd5b6000198114611c505760010190565b9190811015611fd15760051b0190565b634e487b7160e01b600052603260045260246000fdfe1f5794a97a8fd0f5605d102f892a8a78d86771f26e26716d26e376f3f4a3d613696e87880cf63dca8f080e7a026952044d39afbd9cb8ab3582bd4b29e6071b29a264697066735822122003bbb0be779b1883792c25508b4faa0cf6e74a5dfa6d44d8aac5bcbafee0238764736f6c634300081400332f8788117e7eff1d82e926ec794901d17c78024a50270940304540a733656f0d","opcodes":"PUSH1 0x80 CALLVALUE PUSH3 0xAC JUMPI PUSH1 0x1F PUSH3 0x227C CODESIZE DUP2 SWAP1 SUB SWAP2 DUP3 ADD PUSH1 0x1F NOT AND DUP4 ADD SWAP2 PUSH1 0x1 PUSH1 0x1 PUSH1 0x40 SHL SUB DUP4 GT DUP5 DUP5 LT OR PUSH3 0xB1 JUMPI DUP1 DUP5 SWAP3 PUSH1 0x40 SWAP5 DUP6 MSTORE DUP4 CODECOPY DUP2 ADD SUB SLT PUSH3 0xAC JUMPI DUP1 PUSH3 0x5F PUSH1 0x20 PUSH3 0x57 PUSH3 0x9B SWAP5 PUSH3 0xC7 JUMP JUMPDEST SWAP3 ADD PUSH3 0xC7 JUMP JUMPDEST PUSH1 0x1 DUP1 SSTORE PUSH1 0x2 DUP1 SLOAD PUSH2 0x100 PUSH1 0x1 PUSH1 0xA8 SHL SUB NOT AND PUSH1 0x8 SWAP4 SWAP1 SWAP4 SHL PUSH2 0x100 PUSH1 0x1 PUSH1 0xA8 SHL SUB AND SWAP3 SWAP1 SWAP3 OR SWAP1 SWAP2 SSTORE PUSH3 0x94 DUP2 PUSH3 0xDC JUMP JUMPDEST POP PUSH3 0x15C JUMP JUMPDEST POP PUSH1 0x40 MLOAD PUSH2 0x205D SWAP1 DUP2 PUSH3 0x1FF DUP3 CODECOPY RETURN JUMPDEST PUSH1 0x0 DUP1 REVERT JUMPDEST PUSH4 0x4E487B71 PUSH1 0xE0 SHL PUSH1 0x0 MSTORE PUSH1 0x41 PUSH1 0x4 MSTORE PUSH1 0x24 PUSH1 0x0 REVERT JUMPDEST MLOAD SWAP1 PUSH1 0x1 PUSH1 0x1 PUSH1 0xA0 SHL SUB DUP3 AND DUP3 SUB PUSH3 0xAC JUMPI JUMP JUMPDEST PUSH1 0x1 PUSH1 0x1 PUSH1 0xA0 SHL SUB AND PUSH1 0x0 DUP2 DUP2 MSTORE PUSH32 0xAD3228B676F7D3CD4284A5443F17F1962B36E491B30A40B2405849E597BA5FB5 PUSH1 0x20 MSTORE PUSH1 0x40 DUP2 KECCAK256 SLOAD SWAP1 SWAP2 SWAP1 PUSH1 0xFF AND PUSH3 0x158 JUMPI DUP2 DUP1 MSTORE DUP2 PUSH1 0x20 MSTORE PUSH1 0x40 DUP3 KECCAK256 DUP2 DUP4 MSTORE PUSH1 0x20 MSTORE PUSH1 0x40 DUP3 KECCAK256 PUSH1 0x1 PUSH1 0xFF NOT DUP3 SLOAD AND OR SWAP1 SSTORE CALLER SWAP2 PUSH1 0x0 DUP1 MLOAD PUSH1 0x20 PUSH3 0x225C DUP4 CODECOPY DUP2 MLOAD SWAP2 MSTORE DUP2 DUP1 LOG4 PUSH1 0x1 SWAP1 JUMP JUMPDEST POP SWAP1 JUMP JUMPDEST PUSH1 0x1 PUSH1 0x1 PUSH1 0xA0 SHL SUB AND PUSH1 0x0 DUP2 DUP2 MSTORE PUSH32 0xAD6010F11D85E6849EC87F5F41F95A2725AAF728916B399656C75CE30B0D2C54 PUSH1 0x20 MSTORE PUSH1 0x40 DUP2 KECCAK256 SLOAD SWAP1 SWAP2 SWAP1 PUSH32 0x696E87880CF63DCA8F080E7A026952044D39AFBD9CB8AB3582BD4B29E6071B29 SWAP1 PUSH1 0xFF AND PUSH3 0x1F9 JUMPI DUP1 DUP4 MSTORE DUP3 PUSH1 0x20 MSTORE PUSH1 0x40 DUP4 KECCAK256 DUP3 DUP5 MSTORE PUSH1 0x20 MSTORE PUSH1 0x40 DUP4 KECCAK256 PUSH1 0x1 PUSH1 0xFF NOT DUP3 SLOAD AND OR SWAP1 SSTORE PUSH1 0x0 DUP1 MLOAD PUSH1 0x20 PUSH3 0x225C DUP4 CODECOPY DUP2 MLOAD SWAP2 MSTORE CALLER SWAP4 DUP1 LOG4 PUSH1 0x1 SWAP1 JUMP JUMPDEST POP POP SWAP1 JUMP INVALID PUSH1 0x80 PUSH1 0x40 DUP2 DUP2 MSTORE PUSH1 0x4 DUP1 CALLDATASIZE LT ISZERO PUSH2 0x15 JUMPI PUSH1 0x0 DUP1 REVERT JUMPDEST PUSH1 0x0 SWAP3 DUP4 CALLDATALOAD PUSH1 0xE0 SHR SWAP1 DUP2 PUSH4 0x1FFC9A7 EQ PUSH2 0x1832 JUMPI POP DUP1 PUSH4 0x8B8BB4B EQ PUSH2 0x15D9 JUMPI DUP1 PUSH4 0x15490EBB EQ PUSH2 0x139D JUMPI DUP1 PUSH4 0x1DE8AE53 EQ PUSH2 0x1365 JUMPI DUP1 PUSH4 0x20E3DBD4 EQ PUSH2 0x1318 JUMPI DUP1 PUSH4 0x234C30D7 EQ PUSH2 0x112F JUMPI DUP1 PUSH4 0x248A9CA3 EQ PUSH2 0x1106 JUMPI DUP1 PUSH4 0x27AC0C58 EQ PUSH2 0x10B6 JUMPI DUP1 PUSH4 0x2F2FF15D EQ PUSH2 0x108D JUMPI DUP1 PUSH4 0x2FF1D458 EQ PUSH2 0xF5B JUMPI DUP1 PUSH4 0x31AA128D EQ PUSH2 0xE35 JUMPI DUP1 PUSH4 0x36568ABE EQ PUSH2 0xDEE JUMPI DUP1 PUSH4 0x3E0E706E EQ PUSH2 0xDC7 JUMPI DUP1 PUSH4 0x3F4BA83A EQ PUSH2 0xD5E JUMPI DUP1 PUSH4 0x4A650A2C EQ PUSH2 0xC88 JUMPI DUP1 PUSH4 0x564A6C98 EQ PUSH2 0xBA5 JUMPI DUP1 PUSH4 0x5C975ABB EQ PUSH2 0xB81 JUMPI DUP1 PUSH4 0x6208EDC9 EQ PUSH2 0xAA5 JUMPI DUP1 PUSH4 0x715D5896 EQ PUSH2 0x7CE JUMPI DUP1 PUSH4 0x75818BD7 EQ PUSH2 0x9CF JUMPI DUP1 PUSH4 0x77C5B506 EQ PUSH2 0x937 JUMPI DUP1 PUSH4 0x79502C55 EQ PUSH2 0x90A JUMPI DUP1 PUSH4 0x7AF4C51B EQ PUSH2 0x8D2 JUMPI DUP1 PUSH4 0x8456CB59 EQ PUSH2 0x877 JUMPI DUP1 PUSH4 0x91D14854 EQ PUSH2 0x832 JUMPI DUP1 PUSH4 0xA217FDDF EQ PUSH2 0x817 JUMPI DUP1 PUSH4 0xA7A62975 EQ PUSH2 0x7CE JUMPI DUP1 PUSH4 0xAD04570D EQ PUSH2 0x54F JUMPI DUP1 PUSH4 0xBDF3E780 EQ PUSH2 0x6F0 JUMPI DUP1 PUSH4 0xBED62365 EQ PUSH2 0x6C7 JUMPI DUP4 DUP2 PUSH4 0xC3C8F58C EQ PUSH2 0x587 JUMPI POP DUP1 PUSH4 0xC69C75CD EQ PUSH2 0x54F JUMPI DUP1 PUSH4 0xD249F54E EQ PUSH2 0x451 JUMPI DUP1 PUSH4 0xD44F97B8 EQ PUSH2 0x419 JUMPI DUP1 PUSH4 0xD547741F EQ PUSH2 0x3DB JUMPI DUP1 PUSH4 0xE1EDE08F EQ PUSH2 0x2FB JUMPI DUP1 PUSH4 0xEC185A07 EQ PUSH2 0x1FF JUMPI PUSH4 0xF6FAA649 EQ PUSH2 0x1C7 JUMPI PUSH1 0x0 DUP1 REVERT JUMPDEST CALLVALUE PUSH2 0x1FB JUMPI PUSH1 0x20 CALLDATASIZE PUSH1 0x3 NOT ADD SLT PUSH2 0x1FB JUMPI PUSH1 0x20 SWAP3 DUP3 SWAP2 PUSH1 0x1 PUSH1 0x1 PUSH1 0xA0 SHL SUB PUSH2 0x1ED PUSH2 0x1886 JUMP JUMPDEST AND DUP3 MSTORE DUP5 MSTORE KECCAK256 SLOAD SWAP1 MLOAD SWAP1 DUP2 MSTORE RETURN JUMPDEST DUP3 DUP1 REVERT JUMPDEST POP CALLVALUE PUSH2 0x1FB JUMPI PUSH1 0x80 CALLDATASIZE PUSH1 0x3 NOT ADD SLT PUSH2 0x1FB JUMPI PUSH2 0x219 PUSH2 0x1886 JUMP JUMPDEST SWAP2 DUP4 PUSH2 0x223 PUSH2 0x18A1 JUMP JUMPDEST PUSH1 0x44 CALLDATALOAD PUSH1 0x64 CALLDATALOAD PUSH8 0xFFFFFFFFFFFFFFFF DUP2 GT PUSH2 0x2F7 JUMPI PUSH32 0x66AECC579AA1EF463C0ED1547C2CB6163370E6311A60CBA815252ACBB398F213 SWAP6 PUSH2 0x2CB DUP4 PUSH2 0x2ED SWAP6 PUSH2 0x29E PUSH1 0xFF PUSH2 0x275 DUP12 SWAP8 CALLDATASIZE SWAP1 DUP9 ADD PUSH2 0x18E8 JUMP JUMPDEST SWAP12 SWAP1 SWAP11 PUSH1 0x0 DUP1 MLOAD PUSH1 0x20 PUSH2 0x2008 DUP4 CODECOPY DUP2 MLOAD SWAP2 MSTORE DUP2 MSTORE DUP1 PUSH1 0x20 MSTORE DUP2 DUP2 KECCAK256 CALLER DUP3 MSTORE PUSH1 0x20 MSTORE KECCAK256 SLOAD AND PUSH2 0x1B8B JUMP JUMPDEST PUSH2 0x2A6 PUSH2 0x1D7F JUMP JUMPDEST PUSH2 0x2AE PUSH2 0x1D61 JUMP JUMPDEST PUSH2 0x2B9 DUP3 ISZERO ISZERO PUSH2 0x1BE3 JUMP JUMPDEST PUSH1 0x1 PUSH1 0x1 PUSH1 0xA0 SHL SUB AND SWAP10 ADDRESS SWAP1 DUP12 PUSH2 0x1C9E JUMP JUMPDEST DUP8 DUP10 MSTORE PUSH1 0x20 MSTORE DUP1 DUP9 KECCAK256 PUSH2 0x2DF DUP4 DUP3 SLOAD PUSH2 0x1C43 JUMP JUMPDEST SWAP1 SSTORE MLOAD SWAP4 DUP5 SWAP4 TIMESTAMP SWAP3 DUP6 PUSH2 0x1E56 JUMP JUMPDEST SUB SWAP1 LOG2 PUSH1 0x1 DUP1 SSTORE DUP1 RETURN JUMPDEST DUP4 DUP1 REVERT JUMPDEST POP POP CALLVALUE PUSH2 0x3D7 JUMPI DUP1 PUSH1 0x3 NOT CALLDATASIZE ADD SLT PUSH2 0x3D7 JUMPI PUSH1 0x0 DUP1 MLOAD PUSH1 0x20 PUSH2 0x1FE8 DUP4 CODECOPY DUP2 MLOAD SWAP2 MSTORE PUSH1 0xA0 PUSH2 0x326 PUSH2 0x1886 JUMP JUMPDEST PUSH1 0x24 CALLDATALOAD SWAP1 PUSH1 0x0 DUP1 MLOAD PUSH1 0x20 PUSH2 0x2008 DUP4 CODECOPY DUP2 MLOAD SWAP2 MSTORE DUP7 MSTORE DUP6 PUSH1 0x20 MSTORE DUP5 DUP7 KECCAK256 CALLER DUP8 MSTORE PUSH1 0x20 MSTORE PUSH2 0x357 PUSH1 0xFF DUP7 DUP9 KECCAK256 SLOAD AND PUSH2 0x1B8B JUMP JUMPDEST PUSH2 0x35F PUSH2 0x1D7F JUMP JUMPDEST PUSH2 0x367 PUSH2 0x1D61 JUMP JUMPDEST PUSH2 0x372 DUP3 ISZERO ISZERO PUSH2 0x1BE3 JUMP JUMPDEST PUSH1 0x1 DUP1 DUP5 SHL SUB AND SWAP4 PUSH2 0x386 DUP3 ADDRESS CALLER DUP9 PUSH2 0x1C9E JUMP JUMPDEST DUP5 DUP7 MSTORE PUSH1 0x7 PUSH1 0x20 MSTORE DUP1 DUP7 KECCAK256 PUSH2 0x39C DUP4 DUP3 SLOAD PUSH2 0x1C43 JUMP JUMPDEST SWAP1 SSTORE DUP1 MLOAD SWAP2 DUP3 MSTORE PUSH1 0x60 PUSH1 0x20 DUP4 ADD MSTORE PUSH1 0x10 PUSH1 0x60 DUP4 ADD MSTORE PUSH16 0x191BDB985D1A5BDB97D9195C1BDCDA5D PUSH1 0x82 SHL PUSH1 0x80 DUP4 ADD MSTORE TIMESTAMP SWAP1 DUP3 ADD MSTORE LOG2 PUSH1 0x1 DUP1 SSTORE DUP1 RETURN JUMPDEST POP DUP1 REVERT JUMPDEST POP SWAP1 CALLVALUE PUSH2 0x1FB JUMPI DUP1 PUSH1 0x3 NOT CALLDATASIZE ADD SLT PUSH2 0x1FB JUMPI PUSH2 0x415 SWAP2 CALLDATALOAD PUSH2 0x410 PUSH1 0x1 PUSH2 0x3FF PUSH2 0x18A1 JUMP JUMPDEST SWAP4 DUP4 DUP8 MSTORE DUP7 PUSH1 0x20 MSTORE DUP7 KECCAK256 ADD SLOAD PUSH2 0x19D7 JUMP JUMPDEST PUSH2 0x1B16 JUMP JUMPDEST POP DUP1 RETURN JUMPDEST POP POP CALLVALUE PUSH2 0x3D7 JUMPI PUSH1 0x20 CALLDATASIZE PUSH1 0x3 NOT ADD SLT PUSH2 0x3D7 JUMPI PUSH1 0x20 SWAP2 DUP2 SWAP1 PUSH1 0x1 PUSH1 0x1 PUSH1 0xA0 SHL SUB PUSH2 0x441 PUSH2 0x1886 JUMP JUMPDEST AND DUP2 MSTORE PUSH1 0x7 DUP5 MSTORE KECCAK256 SLOAD SWAP1 MLOAD SWAP1 DUP2 MSTORE RETURN JUMPDEST POP POP CALLVALUE PUSH2 0x3D7 JUMPI PUSH32 0x63CA1BEE673FE6BEFAA933C20ECF9CA16A04BD4273BFFE1A05B0B9CC9B9BE043 SWAP1 PUSH2 0x483 CALLDATASIZE PUSH2 0x194A JUMP JUMPDEST PUSH1 0x0 DUP1 MLOAD PUSH1 0x20 PUSH2 0x2008 DUP4 CODECOPY DUP2 MLOAD SWAP2 MSTORE DUP7 SWAP6 SWAP4 SWAP5 SWAP3 SWAP6 MSTORE PUSH1 0x20 DUP7 DUP2 MSTORE DUP3 DUP8 KECCAK256 CALLER DUP9 MSTORE DUP2 MSTORE PUSH2 0x4B5 PUSH1 0xFF DUP5 DUP10 KECCAK256 SLOAD AND PUSH2 0x1B8B JUMP JUMPDEST PUSH2 0x4BD PUSH2 0x1D7F JUMP JUMPDEST PUSH2 0x4C5 PUSH2 0x1D61 JUMP JUMPDEST PUSH2 0x4D0 DUP3 ISZERO ISZERO PUSH2 0x1BE3 JUMP JUMPDEST PUSH2 0x53D DUP3 PUSH1 0x1 DUP1 PUSH1 0xA0 SHL SUB SWAP7 DUP8 DUP2 AND SWAP8 DUP9 DUP12 MSTORE PUSH1 0x8 DUP6 MSTORE DUP7 DUP12 KECCAK256 SWAP10 AND SWAP9 DUP10 DUP12 MSTORE DUP5 MSTORE PUSH2 0x501 DUP3 DUP8 DUP13 KECCAK256 SLOAD LT ISZERO PUSH2 0x1DA2 JUMP JUMPDEST DUP8 DUP11 MSTORE PUSH1 0x8 DUP5 MSTORE DUP6 DUP11 KECCAK256 DUP10 DUP12 MSTORE DUP5 MSTORE DUP6 DUP11 KECCAK256 PUSH2 0x51E DUP4 DUP3 SLOAD PUSH2 0x1DF9 JUMP JUMPDEST SWAP1 SSTORE DUP9 DUP11 MSTORE PUSH1 0x3 DUP5 MSTORE DUP6 DUP11 KECCAK256 PUSH2 0x535 DUP4 DUP3 SLOAD PUSH2 0x1DF9 JUMP JUMPDEST SWAP1 SSTORE DUP9 PUSH2 0x1E06 JUMP JUMPDEST DUP3 MLOAD SWAP2 DUP3 MSTORE TIMESTAMP SWAP1 DUP3 ADD MSTORE LOG3 PUSH1 0x1 DUP1 SSTORE DUP1 RETURN JUMPDEST POP POP CALLVALUE PUSH2 0x3D7 JUMPI PUSH1 0x20 CALLDATASIZE PUSH1 0x3 NOT ADD SLT PUSH2 0x3D7 JUMPI PUSH1 0x20 SWAP2 DUP2 SWAP1 PUSH1 0x1 PUSH1 0x1 PUSH1 0xA0 SHL SUB PUSH2 0x577 PUSH2 0x1886 JUMP JUMPDEST AND DUP2 MSTORE PUSH1 0x3 DUP5 MSTORE KECCAK256 SLOAD SWAP1 MLOAD SWAP1 DUP2 MSTORE RETURN JUMPDEST DUP1 DUP5 DUP5 CALLVALUE PUSH2 0x6C3 JUMPI PUSH1 0x80 CALLDATASIZE PUSH1 0x3 NOT ADD SLT PUSH2 0x6C3 JUMPI DUP2 PUSH1 0x0 DUP1 MLOAD PUSH1 0x20 PUSH2 0x1FE8 DUP4 CODECOPY DUP2 MLOAD SWAP2 MSTORE SWAP3 PUSH1 0x60 DUP6 PUSH1 0xA0 SWAP5 PUSH2 0x5BA PUSH2 0x1886 JUMP JUMPDEST SWAP1 PUSH1 0x24 CALLDATALOAD PUSH1 0x44 CALLDATALOAD SWAP2 PUSH2 0x633 PUSH1 0x64 CALLDATALOAD SWAP5 PUSH1 0x0 DUP1 MLOAD PUSH1 0x20 PUSH2 0x2008 DUP4 CODECOPY DUP2 MLOAD SWAP2 MSTORE DUP8 MSTORE PUSH2 0x5F6 PUSH1 0xFF DUP11 PUSH1 0x20 SWAP10 DUP1 DUP12 MSTORE DUP2 DUP2 KECCAK256 CALLER DUP3 MSTORE DUP12 MSTORE KECCAK256 SLOAD AND PUSH2 0x1B8B JUMP JUMPDEST PUSH2 0x5FE PUSH2 0x1D7F JUMP JUMPDEST PUSH2 0x606 PUSH2 0x1D61 JUMP JUMPDEST PUSH2 0x619 DUP7 PUSH2 0x614 DUP8 DUP8 PUSH2 0x1C43 JUMP JUMPDEST PUSH2 0x1C43 JUMP JUMPDEST SWAP10 DUP11 SWAP2 PUSH1 0x1 DUP1 DUP15 SHL SUB AND SWAP14 DUP15 DUP2 MSTORE DUP5 DUP10 MSTORE KECCAK256 SLOAD LT ISZERO PUSH2 0x1E8A JUMP JUMPDEST DUP11 DUP13 MSTORE DUP5 MSTORE DUP6 DUP12 KECCAK256 PUSH2 0x646 DUP9 DUP3 SLOAD PUSH2 0x1DF9 JUMP JUMPDEST SWAP1 SSTORE DUP10 DUP12 MSTORE PUSH1 0x5 DUP5 MSTORE PUSH2 0x65D DUP7 DUP13 KECCAK256 SWAP2 DUP3 SLOAD PUSH2 0x1C43 JUMP JUMPDEST SWAP1 SSTORE DUP9 DUP11 MSTORE PUSH1 0x6 DUP4 MSTORE PUSH2 0x674 DUP6 DUP12 KECCAK256 SWAP2 DUP3 SLOAD PUSH2 0x1C43 JUMP JUMPDEST SWAP1 SSTORE DUP8 DUP10 MSTORE PUSH1 0x7 DUP3 MSTORE PUSH2 0x68B DUP5 DUP11 KECCAK256 SWAP2 DUP3 SLOAD PUSH2 0x1C43 JUMP JUMPDEST SWAP1 SSTORE DUP3 MLOAD SWAP4 DUP5 MSTORE DUP4 ADD MSTORE PUSH1 0x11 PUSH1 0x60 DUP4 ADD MSTORE PUSH17 0x383937B334BA2FB0B63637B1B0BA34B7B7 PUSH1 0x79 SHL PUSH1 0x80 DUP4 ADD MSTORE TIMESTAMP SWAP1 DUP3 ADD MSTORE LOG2 PUSH1 0x1 DUP1 SSTORE DUP1 RETURN JUMPDEST POP POP REVERT JUMPDEST POP POP CALLVALUE PUSH2 0x3D7 JUMPI DUP2 PUSH1 0x3 NOT CALLDATASIZE ADD SLT PUSH2 0x3D7 JUMPI PUSH1 0x20 SWAP1 MLOAD PUSH1 0x0 DUP1 MLOAD PUSH1 0x20 PUSH2 0x2008 DUP4 CODECOPY DUP2 MLOAD SWAP2 MSTORE DUP2 MSTORE RETURN JUMPDEST POP POP CALLVALUE PUSH2 0x3D7 JUMPI PUSH1 0x0 DUP1 MLOAD PUSH1 0x20 PUSH2 0x1FE8 DUP4 CODECOPY DUP2 MLOAD SWAP2 MSTORE PUSH1 0xA0 PUSH2 0x794 PUSH2 0x714 CALLDATASIZE PUSH2 0x1916 JUMP JUMPDEST SWAP6 SWAP2 SWAP1 DUP1 SWAP4 SWAP2 PUSH1 0x0 DUP1 MLOAD PUSH1 0x20 PUSH2 0x2008 DUP4 CODECOPY DUP2 MLOAD SWAP2 MSTORE DUP10 MSTORE DUP9 PUSH1 0x20 MSTORE DUP4 DUP10 KECCAK256 CALLER DUP11 MSTORE PUSH1 0x20 MSTORE PUSH2 0x747 PUSH1 0xFF DUP6 DUP12 KECCAK256 SLOAD AND PUSH2 0x1B8B JUMP JUMPDEST PUSH2 0x74F PUSH2 0x1D7F JUMP JUMPDEST PUSH2 0x757 PUSH2 0x1D61 JUMP JUMPDEST PUSH1 0x1 DUP1 DUP8 SHL SUB AND SWAP7 DUP8 DUP10 MSTORE PUSH1 0x6 PUSH1 0x20 MSTORE PUSH2 0x776 DUP3 DUP6 DUP12 KECCAK256 SLOAD LT ISZERO PUSH2 0x1EF8 JUMP JUMPDEST DUP8 DUP10 MSTORE PUSH1 0x6 PUSH1 0x20 MSTORE DUP4 DUP10 KECCAK256 PUSH2 0x78C DUP4 DUP3 SLOAD PUSH2 0x1DF9 JUMP JUMPDEST SWAP1 SSTORE DUP8 PUSH2 0x1E06 JUMP JUMPDEST DUP1 MLOAD SWAP2 DUP3 MSTORE PUSH1 0x60 PUSH1 0x20 DUP4 ADD MSTORE PUSH1 0x11 PUSH1 0x60 DUP4 ADD MSTORE PUSH17 0x696E7465726163745F7769746864726177 PUSH1 0x78 SHL PUSH1 0x80 DUP4 ADD MSTORE TIMESTAMP SWAP1 DUP3 ADD MSTORE LOG2 PUSH1 0x1 DUP1 SSTORE DUP1 RETURN JUMPDEST POP POP CALLVALUE PUSH2 0x3D7 JUMPI DUP1 PUSH1 0x3 NOT CALLDATASIZE ADD SLT PUSH2 0x3D7 JUMPI DUP1 PUSH1 0x20 SWAP3 PUSH2 0x7EC PUSH2 0x1886 JUMP JUMPDEST PUSH2 0x7F4 PUSH2 0x18A1 JUMP JUMPDEST PUSH1 0x1 PUSH1 0x1 PUSH1 0xA0 SHL SUB SWAP2 DUP3 AND DUP4 MSTORE PUSH1 0x8 DUP7 MSTORE DUP4 DUP4 KECCAK256 SWAP2 AND DUP3 MSTORE DUP5 MSTORE KECCAK256 SLOAD SWAP1 MLOAD SWAP1 DUP2 MSTORE RETURN JUMPDEST POP POP CALLVALUE PUSH2 0x3D7 JUMPI DUP2 PUSH1 0x3 NOT CALLDATASIZE ADD SLT PUSH2 0x3D7 JUMPI MLOAD SWAP1 DUP2 MSTORE PUSH1 0x20 SWAP1 RETURN JUMPDEST POP CALLVALUE PUSH2 0x1FB JUMPI DUP2 PUSH1 0x3 NOT CALLDATASIZE ADD SLT PUSH2 0x1FB JUMPI DUP2 PUSH1 0x20 SWAP4 PUSH1 0xFF SWAP3 PUSH2 0x852 PUSH2 0x18A1 JUMP JUMPDEST SWAP1 CALLDATALOAD DUP3 MSTORE DUP2 DUP7 MSTORE DUP3 DUP3 KECCAK256 PUSH1 0x1 PUSH1 0x1 PUSH1 0xA0 SHL SUB SWAP1 SWAP2 AND DUP3 MSTORE DUP6 MSTORE KECCAK256 SLOAD SWAP2 MLOAD SWAP2 AND ISZERO ISZERO DUP2 MSTORE RETURN JUMPDEST POP POP CALLVALUE PUSH2 0x3D7 JUMPI DUP2 PUSH1 0x3 NOT CALLDATASIZE ADD SLT PUSH2 0x3D7 JUMPI PUSH1 0x20 PUSH32 0x62E78CEA01BEE320CD4E420270B5EA74000D11B0C9F74754EBDBFC544B05A258 SWAP2 PUSH2 0x8B5 PUSH2 0x197F JUMP JUMPDEST PUSH2 0x8BD PUSH2 0x1D61 JUMP JUMPDEST PUSH1 0x1 PUSH1 0xFF NOT PUSH1 0x2 SLOAD AND OR PUSH1 0x2 SSTORE MLOAD CALLER DUP2 MSTORE LOG1 DUP1 RETURN JUMPDEST POP POP CALLVALUE PUSH2 0x3D7 JUMPI PUSH1 0x20 CALLDATASIZE PUSH1 0x3 NOT ADD SLT PUSH2 0x3D7 JUMPI PUSH1 0x20 SWAP2 DUP2 SWAP1 PUSH1 0x1 PUSH1 0x1 PUSH1 0xA0 SHL SUB PUSH2 0x8FA PUSH2 0x1886 JUMP JUMPDEST AND DUP2 MSTORE PUSH1 0x5 DUP5 MSTORE KECCAK256 SLOAD SWAP1 MLOAD SWAP1 DUP2 MSTORE RETURN JUMPDEST POP POP CALLVALUE PUSH2 0x3D7 JUMPI DUP2 PUSH1 0x3 NOT CALLDATASIZE ADD SLT PUSH2 0x3D7 JUMPI PUSH1 0x2 SLOAD SWAP1 MLOAD PUSH1 0x8 SWAP2 SWAP1 SWAP2 SHR PUSH1 0x1 PUSH1 0x1 PUSH1 0xA0 SHL SUB AND DUP2 MSTORE PUSH1 0x20 SWAP1 RETURN JUMPDEST POP POP CALLVALUE PUSH2 0x3D7 JUMPI PUSH2 0x9C8 SWAP1 PUSH2 0x94B CALLDATASIZE PUSH2 0x1916 JUMP JUMPDEST SWAP2 PUSH1 0x0 DUP1 MLOAD PUSH1 0x20 PUSH2 0x2008 DUP4 CODECOPY DUP2 MLOAD SWAP2 MSTORE DUP7 SWAP5 SWAP3 SWAP5 MSTORE DUP6 PUSH1 0x20 MSTORE DUP2 DUP7 KECCAK256 CALLER DUP8 MSTORE PUSH1 0x20 MSTORE PUSH2 0x97C PUSH1 0xFF DUP4 DUP9 KECCAK256 SLOAD AND PUSH2 0x1B8B JUMP JUMPDEST PUSH2 0x984 PUSH2 0x1D7F JUMP JUMPDEST PUSH2 0x98C PUSH2 0x1D61 JUMP JUMPDEST PUSH1 0x1 DUP1 PUSH1 0xA0 SHL SUB AND SWAP1 DUP2 DUP7 MSTORE PUSH1 0x6 PUSH1 0x20 MSTORE PUSH2 0x9AC DUP5 DUP3 DUP9 KECCAK256 SLOAD LT ISZERO PUSH2 0x1EF8 JUMP JUMPDEST DUP2 DUP7 MSTORE PUSH1 0x6 PUSH1 0x20 MSTORE DUP6 KECCAK256 PUSH2 0x9C1 DUP5 DUP3 SLOAD PUSH2 0x1DF9 JUMP JUMPDEST SWAP1 SSTORE PUSH2 0x1E06 JUMP JUMPDEST PUSH1 0x1 DUP1 SSTORE DUP1 RETURN JUMPDEST POP POP CALLVALUE PUSH2 0x3D7 JUMPI PUSH1 0x0 DUP1 MLOAD PUSH1 0x20 PUSH2 0x1FE8 DUP4 CODECOPY DUP2 MLOAD SWAP2 MSTORE PUSH1 0xA0 PUSH2 0xA6B PUSH2 0x9F3 CALLDATASIZE PUSH2 0x1916 JUMP JUMPDEST SWAP6 SWAP2 SWAP1 DUP1 SWAP4 SWAP2 PUSH1 0x0 DUP1 MLOAD PUSH1 0x20 PUSH2 0x2008 DUP4 CODECOPY DUP2 MLOAD SWAP2 MSTORE DUP10 MSTORE DUP9 PUSH1 0x20 MSTORE DUP4 DUP10 KECCAK256 CALLER DUP11 MSTORE PUSH1 0x20 MSTORE PUSH2 0xA26 PUSH1 0xFF DUP6 DUP12 KECCAK256 SLOAD AND PUSH2 0x1B8B JUMP JUMPDEST PUSH2 0xA2E PUSH2 0x1D7F JUMP JUMPDEST PUSH2 0xA36 PUSH2 0x1D61 JUMP JUMPDEST PUSH1 0x1 DUP1 DUP8 SHL SUB AND SWAP7 DUP8 DUP10 MSTORE PUSH1 0x7 PUSH1 0x20 MSTORE PUSH2 0xA55 DUP3 DUP6 DUP12 KECCAK256 SLOAD LT ISZERO PUSH2 0x1F55 JUMP JUMPDEST DUP8 DUP10 MSTORE PUSH1 0x7 PUSH1 0x20 MSTORE DUP4 DUP10 KECCAK256 PUSH2 0x78C DUP4 DUP3 SLOAD PUSH2 0x1DF9 JUMP JUMPDEST DUP1 MLOAD SWAP2 DUP3 MSTORE PUSH1 0x60 PUSH1 0x20 DUP4 ADD MSTORE PUSH1 0x11 PUSH1 0x60 DUP4 ADD MSTORE PUSH17 0x646F6E6174696F6E5F7769746864726177 PUSH1 0x78 SHL PUSH1 0x80 DUP4 ADD MSTORE TIMESTAMP SWAP1 DUP3 ADD MSTORE LOG2 PUSH1 0x1 DUP1 SSTORE DUP1 RETURN JUMPDEST POP POP CALLVALUE PUSH2 0x3D7 JUMPI DUP1 PUSH1 0x3 NOT CALLDATASIZE ADD SLT PUSH2 0x3D7 JUMPI PUSH1 0x0 DUP1 MLOAD PUSH1 0x20 PUSH2 0x1FE8 DUP4 CODECOPY DUP2 MLOAD SWAP2 MSTORE PUSH1 0xA0 PUSH2 0xAD0 PUSH2 0x1886 JUMP JUMPDEST PUSH1 0x24 CALLDATALOAD SWAP1 PUSH1 0x0 DUP1 MLOAD PUSH1 0x20 PUSH2 0x2008 DUP4 CODECOPY DUP2 MLOAD SWAP2 MSTORE DUP7 MSTORE DUP6 PUSH1 0x20 MSTORE DUP5 DUP7 KECCAK256 CALLER DUP8 MSTORE PUSH1 0x20 MSTORE PUSH2 0xB01 PUSH1 0xFF DUP7 DUP9 KECCAK256 SLOAD AND PUSH2 0x1B8B JUMP JUMPDEST PUSH2 0xB09 PUSH2 0x1D7F JUMP JUMPDEST PUSH2 0xB11 PUSH2 0x1D61 JUMP JUMPDEST PUSH2 0xB1C DUP3 ISZERO ISZERO PUSH2 0x1BE3 JUMP JUMPDEST PUSH1 0x1 DUP1 DUP5 SHL SUB AND SWAP4 PUSH2 0xB30 DUP3 ADDRESS CALLER DUP9 PUSH2 0x1C9E JUMP JUMPDEST DUP5 DUP7 MSTORE PUSH1 0x6 PUSH1 0x20 MSTORE DUP1 DUP7 KECCAK256 PUSH2 0xB46 DUP4 DUP3 SLOAD PUSH2 0x1C43 JUMP JUMPDEST SWAP1 SSTORE DUP1 MLOAD SWAP2 DUP3 MSTORE PUSH1 0x60 PUSH1 0x20 DUP4 ADD MSTORE PUSH1 0x10 PUSH1 0x60 DUP4 ADD MSTORE PUSH16 0x1A5B9D195C9858DD17D9195C1BDCDA5D PUSH1 0x82 SHL PUSH1 0x80 DUP4 ADD MSTORE TIMESTAMP SWAP1 DUP3 ADD MSTORE LOG2 PUSH1 0x1 DUP1 SSTORE DUP1 RETURN JUMPDEST POP POP CALLVALUE PUSH2 0x3D7 JUMPI DUP2 PUSH1 0x3 NOT CALLDATASIZE ADD SLT PUSH2 0x3D7 JUMPI PUSH1 0x20 SWAP1 PUSH1 0xFF PUSH1 0x2 SLOAD AND SWAP1 MLOAD SWAP1 ISZERO ISZERO DUP2 MSTORE RETURN JUMPDEST POP POP CALLVALUE PUSH2 0x3D7 JUMPI PUSH32 0x2BDE942ED78F9E1081375810D2AA3BFE43EC08B083F750914542C4BF2FE936C7 SWAP1 PUSH2 0xBD7 CALLDATASIZE PUSH2 0x194A JUMP JUMPDEST PUSH1 0x0 DUP1 MLOAD PUSH1 0x20 PUSH2 0x2008 DUP4 CODECOPY DUP2 MLOAD SWAP2 MSTORE DUP7 SWAP6 SWAP4 SWAP6 SWAP5 SWAP3 SWAP5 MSTORE PUSH1 0x20 SWAP4 DUP7 DUP6 MSTORE DUP3 DUP8 KECCAK256 CALLER DUP9 MSTORE DUP6 MSTORE PUSH2 0xC0B PUSH1 0xFF DUP5 DUP10 KECCAK256 SLOAD AND PUSH2 0x1B8B JUMP JUMPDEST PUSH2 0xC13 PUSH2 0x1D7F JUMP JUMPDEST PUSH2 0xC1B PUSH2 0x1D61 JUMP JUMPDEST PUSH2 0xC26 DUP3 ISZERO ISZERO PUSH2 0x1BE3 JUMP JUMPDEST PUSH1 0x1 PUSH1 0x1 PUSH1 0xA0 SHL SUB SWAP1 DUP2 AND SWAP6 PUSH2 0xC3E DUP4 ADDRESS DUP4 DUP11 PUSH2 0x1C9E JUMP JUMPDEST AND SWAP4 DUP5 DUP8 MSTORE PUSH1 0x8 DUP2 MSTORE DUP3 DUP8 KECCAK256 DUP7 DUP9 MSTORE DUP2 MSTORE DUP3 DUP8 KECCAK256 PUSH2 0xC5D DUP4 DUP3 SLOAD PUSH2 0x1C43 JUMP JUMPDEST SWAP1 SSTORE DUP6 DUP8 MSTORE PUSH1 0x3 DUP2 MSTORE DUP3 DUP8 KECCAK256 PUSH2 0xC74 DUP4 DUP3 SLOAD PUSH2 0x1C43 JUMP JUMPDEST SWAP1 SSTORE DUP3 MLOAD SWAP2 DUP3 MSTORE TIMESTAMP SWAP1 DUP3 ADD MSTORE LOG3 PUSH1 0x1 DUP1 SSTORE DUP1 RETURN JUMPDEST POP POP CALLVALUE PUSH2 0x3D7 JUMPI DUP1 PUSH1 0x3 NOT CALLDATASIZE ADD SLT PUSH2 0x3D7 JUMPI PUSH1 0x0 DUP1 MLOAD PUSH1 0x20 PUSH2 0x1FE8 DUP4 CODECOPY DUP2 MLOAD SWAP2 MSTORE PUSH1 0xA0 PUSH2 0xCB3 PUSH2 0x1886 JUMP JUMPDEST PUSH1 0x24 CALLDATALOAD SWAP1 PUSH1 0x0 DUP1 MLOAD PUSH1 0x20 PUSH2 0x2008 DUP4 CODECOPY DUP2 MLOAD SWAP2 MSTORE DUP7 MSTORE DUP6 PUSH1 0x20 MSTORE DUP5 DUP7 KECCAK256 CALLER DUP8 MSTORE PUSH1 0x20 MSTORE PUSH2 0xCE4 PUSH1 0xFF DUP7 DUP9 KECCAK256 SLOAD AND PUSH2 0x1B8B JUMP JUMPDEST PUSH2 0xCEC PUSH2 0x1D7F JUMP JUMPDEST PUSH2 0xCF4 PUSH2 0x1D61 JUMP JUMPDEST PUSH2 0xCFF DUP3 ISZERO ISZERO PUSH2 0x1BE3 JUMP JUMPDEST PUSH1 0x1 DUP1 DUP5 SHL SUB AND SWAP4 PUSH2 0xD13 DUP3 ADDRESS CALLER DUP9 PUSH2 0x1C9E JUMP JUMPDEST DUP5 DUP7 MSTORE PUSH1 0x5 PUSH1 0x20 MSTORE DUP1 DUP7 KECCAK256 PUSH2 0xD29 DUP4 DUP3 SLOAD PUSH2 0x1C43 JUMP JUMPDEST SWAP1 SSTORE DUP1 MLOAD SWAP2 DUP3 MSTORE PUSH1 0x60 PUSH1 0x20 DUP4 ADD MSTORE PUSH1 0xA PUSH1 0x60 DUP4 ADD MSTORE PUSH10 0x1B1C17D9195C1BDCDA5D PUSH1 0xB2 SHL PUSH1 0x80 DUP4 ADD MSTORE TIMESTAMP SWAP1 DUP3 ADD MSTORE LOG2 PUSH1 0x1 DUP1 SSTORE DUP1 RETURN JUMPDEST POP CALLVALUE PUSH2 0x1FB JUMPI DUP3 PUSH1 0x3 NOT CALLDATASIZE ADD SLT PUSH2 0x1FB JUMPI PUSH2 0xD77 PUSH2 0x197F JUMP JUMPDEST PUSH1 0x2 SLOAD SWAP1 PUSH1 0xFF DUP3 AND ISZERO PUSH2 0xDB9 JUMPI POP PUSH1 0xFF NOT AND PUSH1 0x2 SSTORE MLOAD CALLER DUP2 MSTORE PUSH32 0x5DB9EE0A495BF2E6FF9C91A7834C1BA4FDD244A5E8AA4E537BD38AEAE4B073AA SWAP1 PUSH1 0x20 SWAP1 LOG1 DUP1 RETURN JUMPDEST DUP3 MLOAD PUSH4 0x8DFC202B PUSH1 0xE0 SHL DUP2 MSTORE REVERT JUMPDEST POP CALLVALUE PUSH2 0x1FB JUMPI PUSH1 0x20 CALLDATASIZE PUSH1 0x3 NOT ADD SLT PUSH2 0x1FB JUMPI PUSH1 0x20 SWAP3 DUP3 SWAP2 PUSH1 0x1 PUSH1 0x1 PUSH1 0xA0 SHL SUB PUSH2 0x1ED PUSH2 0x1886 JUMP JUMPDEST POP SWAP2 SWAP1 CALLVALUE PUSH2 0x3D7 JUMPI DUP1 PUSH1 0x3 NOT CALLDATASIZE ADD SLT PUSH2 0x3D7 JUMPI PUSH2 0xE09 PUSH2 0x18A1 JUMP JUMPDEST SWAP1 CALLER PUSH1 0x1 PUSH1 0x1 PUSH1 0xA0 SHL SUB DUP4 AND SUB PUSH2 0xE26 JUMPI POP PUSH2 0x415 SWAP2 SWAP3 CALLDATALOAD PUSH2 0x1B16 JUMP JUMPDEST MLOAD PUSH4 0x334BD919 PUSH1 0xE1 SHL DUP2 MSTORE DUP4 SWAP1 REVERT JUMPDEST POP SWAP1 CALLVALUE PUSH2 0x1FB JUMPI PUSH2 0xE45 CALLDATASIZE PUSH2 0x1916 JUMP JUMPDEST PUSH1 0x0 DUP1 MLOAD PUSH1 0x20 PUSH2 0x2008 DUP4 CODECOPY DUP2 MLOAD SWAP2 MSTORE DUP7 SWAP5 SWAP4 SWAP3 SWAP5 MSTORE PUSH1 0x20 SWAP2 DUP7 DUP4 MSTORE DUP4 DUP8 KECCAK256 CALLER DUP9 MSTORE DUP4 MSTORE PUSH2 0xE77 PUSH1 0xFF DUP6 DUP10 KECCAK256 SLOAD AND PUSH2 0x1B8B JUMP JUMPDEST PUSH2 0xE7F PUSH2 0x1D7F JUMP JUMPDEST PUSH2 0xE87 PUSH2 0x1D61 JUMP JUMPDEST PUSH1 0x1 PUSH1 0x1 PUSH1 0xA0 SHL SUB AND DUP1 DUP8 MSTORE PUSH1 0x5 DUP4 MSTORE DUP4 DUP8 KECCAK256 SLOAD SWAP1 SWAP6 SWAP1 DUP6 GT PUSH2 0xF0D JUMPI POP SWAP2 PUSH1 0x60 DUP5 SWAP3 PUSH2 0xEDD PUSH1 0x0 DUP1 MLOAD PUSH1 0x20 PUSH2 0x1FE8 DUP4 CODECOPY DUP2 MLOAD SWAP2 MSTORE SWAP7 PUSH1 0xA0 SWAP7 DUP10 DUP12 MSTORE PUSH1 0x5 DUP5 MSTORE DUP6 DUP12 KECCAK256 PUSH2 0xED5 DUP4 DUP3 SLOAD PUSH2 0x1DF9 JUMP JUMPDEST SWAP1 SSTORE DUP10 PUSH2 0x1E06 JUMP JUMPDEST DUP3 MLOAD SWAP4 DUP5 MSTORE DUP4 ADD MSTORE PUSH1 0xB PUSH1 0x60 DUP4 ADD MSTORE PUSH11 0x6C705F7769746864726177 PUSH1 0xA8 SHL PUSH1 0x80 DUP4 ADD MSTORE TIMESTAMP SWAP1 DUP3 ADD MSTORE LOG2 PUSH1 0x1 DUP1 SSTORE DUP1 RETURN JUMPDEST DUP4 MLOAD PUSH3 0x461BCD PUSH1 0xE5 SHL DUP2 MSTORE SWAP1 DUP2 ADD DUP4 SWAP1 MSTORE PUSH1 0x22 PUSH1 0x24 DUP3 ADD MSTORE PUSH32 0x5661756C744D616E616765723A20696E73756666696369656E74204C5020706F PUSH1 0x44 DUP3 ADD MSTORE PUSH2 0x1BDB PUSH1 0xF2 SHL PUSH1 0x64 DUP3 ADD MSTORE PUSH1 0x84 SWAP1 REVERT JUMPDEST POP CALLVALUE PUSH2 0x1FB JUMPI PUSH1 0xA0 CALLDATASIZE PUSH1 0x3 NOT ADD SLT PUSH2 0x1FB JUMPI PUSH2 0xF75 PUSH2 0x1886 JUMP JUMPDEST PUSH2 0xF7D PUSH2 0x18A1 JUMP JUMPDEST SWAP3 DUP5 PUSH1 0x44 CALLDATALOAD SWAP5 PUSH1 0x1 DUP1 PUSH1 0xA0 SHL SUB SWAP5 DUP6 DUP8 AND DUP1 SWAP8 SUB PUSH2 0x1FB JUMPI PUSH1 0x64 CALLDATALOAD PUSH1 0x84 CALLDATALOAD SWAP5 PUSH8 0xFFFFFFFFFFFFFFFF DUP7 GT PUSH2 0x1089 JUMPI DUP8 DUP10 SWAP5 PUSH2 0x1041 DUP5 DUP5 PUSH2 0xFE4 PUSH2 0x107F SWAP9 PUSH32 0x31EB66ACEA2A2E9363E745354476882560841A43C057F7F2E75E63470CA557AF SWAP13 CALLDATASIZE SWAP2 ADD PUSH2 0x18E8 JUMP JUMPDEST SWAP11 SWAP1 SWAP10 PUSH1 0x0 DUP1 MLOAD PUSH1 0x20 PUSH2 0x2008 DUP4 CODECOPY DUP2 MLOAD SWAP2 MSTORE DUP3 MSTORE PUSH1 0x20 SWAP15 DUP16 SWAP15 DUP16 DUP5 DUP2 MSTORE DUP6 DUP6 KECCAK256 SWAP1 CALLER DUP7 MSTORE MSTORE PUSH2 0x1018 PUSH1 0xFF DUP7 DUP7 KECCAK256 SLOAD AND PUSH2 0x1B8B JUMP JUMPDEST PUSH2 0x1020 PUSH2 0x1D7F JUMP JUMPDEST PUSH2 0x1028 PUSH2 0x1D61 JUMP JUMPDEST AND SWAP14 DUP15 DUP4 MSTORE PUSH1 0x8 DUP2 MSTORE DUP4 DUP4 KECCAK256 SWAP2 DUP4 MSTORE MSTORE KECCAK256 SLOAD LT ISZERO PUSH2 0x1DA2 JUMP JUMPDEST DUP9 DUP13 MSTORE PUSH1 0x8 DUP11 MSTORE DUP3 DUP13 KECCAK256 DUP12 DUP14 MSTORE DUP11 MSTORE DUP3 DUP13 KECCAK256 PUSH2 0x105E DUP6 DUP3 SLOAD PUSH2 0x1DF9 JUMP JUMPDEST SWAP1 SSTORE AND SWAP8 DUP9 DUP12 MSTORE PUSH1 0x8 DUP2 MSTORE DUP2 DUP12 KECCAK256 SWAP1 DUP11 DUP13 MSTORE MSTORE DUP1 DUP11 KECCAK256 PUSH2 0x2DF DUP4 DUP3 SLOAD PUSH2 0x1C43 JUMP JUMPDEST SUB SWAP1 LOG4 PUSH1 0x1 DUP1 SSTORE DUP1 RETURN JUMPDEST DUP5 DUP1 REVERT JUMPDEST POP SWAP1 CALLVALUE PUSH2 0x1FB JUMPI DUP1 PUSH1 0x3 NOT CALLDATASIZE ADD SLT PUSH2 0x1FB JUMPI PUSH2 0x415 SWAP2 CALLDATALOAD PUSH2 0x10B1 PUSH1 0x1 PUSH2 0x3FF PUSH2 0x18A1 JUMP JUMPDEST PUSH2 0x1A9D JUMP JUMPDEST POP POP CALLVALUE PUSH2 0x3D7 JUMPI PUSH1 0x20 CALLDATASIZE PUSH1 0x3 NOT ADD SLT PUSH2 0x3D7 JUMPI PUSH2 0x415 SWAP1 PUSH2 0x1101 PUSH1 0x1 PUSH2 0x10DA PUSH2 0x1886 JUMP JUMPDEST SWAP3 PUSH2 0x10E3 PUSH2 0x197F JUMP JUMPDEST PUSH1 0x0 DUP1 MLOAD PUSH1 0x20 PUSH2 0x2008 DUP4 CODECOPY DUP2 MLOAD SWAP2 MSTORE DUP7 MSTORE DUP6 PUSH1 0x20 MSTORE DUP6 KECCAK256 ADD SLOAD PUSH2 0x19D7 JUMP JUMPDEST PUSH2 0x19FD JUMP JUMPDEST POP CALLVALUE PUSH2 0x1FB JUMPI PUSH1 0x20 CALLDATASIZE PUSH1 0x3 NOT ADD SLT PUSH2 0x1FB JUMPI DUP2 PUSH1 0x20 SWAP4 PUSH1 0x1 SWAP3 CALLDATALOAD DUP2 MSTORE DUP1 DUP6 MSTORE KECCAK256 ADD SLOAD SWAP1 MLOAD SWAP1 DUP2 MSTORE RETURN JUMPDEST POP SWAP1 CALLVALUE PUSH2 0x1FB JUMPI PUSH1 0x60 CALLDATASIZE PUSH1 0x3 NOT ADD SLT PUSH2 0x1FB JUMPI PUSH2 0x114A PUSH2 0x1886 JUMP JUMPDEST SWAP1 PUSH1 0x24 CALLDATALOAD SWAP3 PUSH8 0xFFFFFFFFFFFFFFFF SWAP4 DUP5 DUP2 GT PUSH2 0x1314 JUMPI PUSH2 0x116D SWAP1 CALLDATASIZE SWAP1 DUP4 ADD PUSH2 0x18B7 JUMP JUMPDEST SWAP5 PUSH1 0x44 CALLDATALOAD SWAP1 DUP2 GT PUSH2 0x1310 JUMPI PUSH2 0x1185 SWAP1 CALLDATASIZE SWAP1 DUP5 ADD PUSH2 0x18B7 JUMP JUMPDEST PUSH1 0x0 DUP1 MLOAD PUSH1 0x20 PUSH2 0x2008 DUP4 CODECOPY DUP2 MLOAD SWAP2 MSTORE DUP9 SWAP7 SWAP3 SWAP7 MSTORE PUSH1 0x20 SWAP4 DUP9 DUP6 MSTORE DUP6 DUP10 KECCAK256 CALLER DUP11 MSTORE DUP6 MSTORE PUSH2 0x11B6 PUSH1 0xFF DUP8 DUP12 KECCAK256 SLOAD AND PUSH2 0x1B8B JUMP JUMPDEST PUSH2 0x11BE PUSH2 0x1D7F JUMP JUMPDEST PUSH2 0x11C6 PUSH2 0x1D61 JUMP JUMPDEST DUP2 DUP9 SUB PUSH2 0x12CD JUMPI POP DUP8 SWAP6 DUP9 JUMPDEST DUP3 DUP2 LT PUSH2 0x12A8 JUMPI POP PUSH1 0x1 DUP1 PUSH1 0xA0 SHL SUB DUP1 SWAP4 AND SWAP8 DUP9 DUP11 MSTORE PUSH1 0x7 DUP7 MSTORE PUSH2 0x11FB DUP9 DUP9 DUP13 KECCAK256 SLOAD LT ISZERO PUSH2 0x1F55 JUMP JUMPDEST DUP9 DUP11 MSTORE PUSH1 0x7 DUP7 MSTORE DUP7 DUP11 KECCAK256 PUSH2 0x1210 DUP10 DUP3 SLOAD PUSH2 0x1DF9 JUMP JUMPDEST SWAP1 SSTORE DUP10 JUMPDEST DUP2 DUP2 LT PUSH2 0x126A JUMPI DUP11 DUP11 PUSH1 0x0 DUP1 MLOAD PUSH1 0x20 PUSH2 0x1FE8 DUP4 CODECOPY DUP2 MLOAD SWAP2 MSTORE PUSH1 0xA0 DUP13 DUP13 PUSH1 0x60 DUP14 DUP3 MLOAD SWAP4 DUP5 MSTORE DUP4 ADD MSTORE PUSH1 0x12 PUSH1 0x60 DUP4 ADD MSTORE PUSH18 0xDCDEC8CABEE4CAEEC2E4C8E6BEC4C2E8C6D PUSH1 0x73 SHL PUSH1 0x80 DUP4 ADD MSTORE TIMESTAMP SWAP1 DUP3 ADD MSTORE LOG2 PUSH1 0x1 DUP1 SSTORE DUP1 RETURN JUMPDEST PUSH2 0x1275 DUP2 DUP4 DUP9 PUSH2 0x1FC1 JUMP JUMPDEST CALLDATALOAD SWAP1 DUP6 DUP3 AND DUP3 SUB PUSH2 0x12A4 JUMPI PUSH2 0x129A PUSH2 0x129F SWAP3 PUSH2 0x1292 DUP4 DUP9 DUP9 PUSH2 0x1FC1 JUMP JUMPDEST CALLDATALOAD SWAP1 DUP14 PUSH2 0x1E06 JUMP JUMPDEST PUSH2 0x1FB2 JUMP JUMPDEST PUSH2 0x1214 JUMP JUMPDEST DUP12 DUP1 REVERT JUMPDEST SWAP7 PUSH2 0x12C2 PUSH2 0x12C8 SWAP2 PUSH2 0x12BB DUP11 DUP7 DUP7 PUSH2 0x1FC1 JUMP JUMPDEST CALLDATALOAD SWAP1 PUSH2 0x1C43 JUMP JUMPDEST SWAP8 PUSH2 0x1FB2 JUMP JUMPDEST PUSH2 0x11D2 JUMP JUMPDEST DUP6 MLOAD PUSH3 0x461BCD PUSH1 0xE5 SHL DUP2 MSTORE SWAP1 DUP2 ADD DUP6 SWAP1 MSTORE PUSH1 0x1D PUSH1 0x24 DUP3 ADD MSTORE PUSH32 0x5661756C744D616E616765723A206C656E677468206D69736D61746368000000 PUSH1 0x44 DUP3 ADD MSTORE PUSH1 0x64 SWAP1 REVERT JUMPDEST DUP7 DUP1 REVERT JUMPDEST DUP6 DUP1 REVERT JUMPDEST DUP4 CALLVALUE PUSH2 0x1362 JUMPI PUSH1 0x20 CALLDATASIZE PUSH1 0x3 NOT ADD SLT PUSH2 0x1362 JUMPI PUSH2 0x1332 PUSH2 0x1886 JUMP JUMPDEST PUSH2 0x133A PUSH2 0x197F JUMP JUMPDEST PUSH1 0x2 DUP1 SLOAD PUSH2 0x100 PUSH1 0x1 PUSH1 0xA8 SHL SUB NOT AND PUSH1 0x8 SWAP3 SWAP1 SWAP3 SHL PUSH2 0x100 PUSH1 0x1 PUSH1 0xA8 SHL SUB AND SWAP2 SWAP1 SWAP2 OR SWAP1 SSTORE DUP1 RETURN JUMPDEST DUP1 REVERT JUMPDEST POP POP CALLVALUE PUSH2 0x3D7 JUMPI PUSH1 0x20 CALLDATASIZE PUSH1 0x3 NOT ADD SLT PUSH2 0x3D7 JUMPI PUSH1 0x20 SWAP2 DUP2 SWAP1 PUSH1 0x1 PUSH1 0x1 PUSH1 0xA0 SHL SUB PUSH2 0x138D PUSH2 0x1886 JUMP JUMPDEST AND DUP2 MSTORE PUSH1 0x6 DUP5 MSTORE KECCAK256 SLOAD SWAP1 MLOAD SWAP1 DUP2 MSTORE RETURN JUMPDEST POP SWAP1 CALLVALUE PUSH2 0x1FB JUMPI DUP1 PUSH1 0x3 NOT CALLDATASIZE ADD SLT PUSH2 0x1FB JUMPI PUSH2 0x13B7 PUSH2 0x1886 JUMP JUMPDEST SWAP1 PUSH1 0x24 CALLDATALOAD SWAP2 PUSH1 0x0 DUP1 MLOAD PUSH1 0x20 PUSH2 0x2008 DUP4 CODECOPY DUP2 MLOAD SWAP2 MSTORE DUP6 MSTORE PUSH1 0x20 SWAP1 DUP6 DUP3 MSTORE DUP3 DUP7 KECCAK256 CALLER DUP8 MSTORE DUP3 MSTORE PUSH2 0x13EA PUSH1 0xFF DUP5 DUP9 KECCAK256 SLOAD AND PUSH2 0x1B8B JUMP JUMPDEST PUSH2 0x13F2 PUSH2 0x1D7F JUMP JUMPDEST PUSH2 0x13FA PUSH2 0x1D61 JUMP JUMPDEST PUSH1 0x1 PUSH1 0x1 PUSH1 0xA0 SHL SUB DUP2 DUP2 AND ISZERO PUSH2 0x1596 JUMPI PUSH2 0x1415 DUP6 ISZERO ISZERO PUSH2 0x1BE3 JUMP JUMPDEST DUP6 DUP4 DUP3 PUSH1 0x2 SLOAD PUSH1 0x8 SHR AND DUP7 MLOAD SWAP3 DUP4 DUP1 SWAP3 PUSH4 0x20F2E747 PUSH1 0xE1 SHL DUP3 MSTORE GAS STATICCALL SWAP1 DUP2 ISZERO PUSH2 0x158C JUMPI SWAP1 DUP3 SWAP2 DUP10 SWAP2 PUSH2 0x154E JUMPI JUMPDEST POP AND ISZERO PUSH2 0x1534 JUMPI PUSH20 0x9F2140319726F9B851073A303415F13EC0CDA269 JUMPDEST AND SWAP5 DUP6 DUP8 MSTORE DUP1 DUP4 MSTORE DUP5 DUP5 DUP9 KECCAK256 SLOAD LT PUSH2 0x14D7 JUMPI DUP5 SWAP3 PUSH2 0x14A0 PUSH1 0x0 DUP1 MLOAD PUSH1 0x20 PUSH2 0x1FE8 DUP4 CODECOPY DUP2 MLOAD SWAP2 MSTORE SWAP7 PUSH1 0xA0 SWAP7 SWAP5 PUSH1 0x60 SWAP5 DUP11 DUP13 MSTORE DUP5 MSTORE DUP6 DUP12 KECCAK256 PUSH2 0xED5 DUP4 DUP3 SLOAD PUSH2 0x1DF9 JUMP JUMPDEST DUP3 MLOAD SWAP4 DUP5 MSTORE DUP4 ADD MSTORE PUSH1 0x12 PUSH1 0x60 DUP4 ADD MSTORE PUSH18 0x185C989A5D1C985D1A5BDB97DC995DD85C99 PUSH1 0x72 SHL PUSH1 0x80 DUP4 ADD MSTORE TIMESTAMP SWAP1 DUP3 ADD MSTORE LOG2 PUSH1 0x1 DUP1 SSTORE DUP1 RETURN JUMPDEST DUP4 MLOAD PUSH3 0x461BCD PUSH1 0xE5 SHL DUP2 MSTORE SWAP1 DUP2 ADD DUP4 SWAP1 MSTORE PUSH1 0x31 PUSH1 0x24 DUP3 ADD MSTORE PUSH32 0x5661756C744D616E616765723A20696E73756666696369656E742070726F6669 PUSH1 0x44 DUP3 ADD MSTORE PUSH17 0x1D081C1BDBDB08199BDC881C995DD85C99 PUSH1 0x7A SHL PUSH1 0x64 DUP3 ADD MSTORE PUSH1 0x84 SWAP1 REVERT JUMPDEST PUSH20 0x55D398326F99059FF775485246999027B3197955 PUSH2 0x145F JUMP JUMPDEST DUP1 SWAP3 POP DUP6 DUP1 SWAP3 POP RETURNDATASIZE DUP4 GT PUSH2 0x1585 JUMPI JUMPDEST PUSH2 0x1567 DUP2 DUP4 PUSH2 0x1C66 JUMP JUMPDEST DUP2 ADD SUB SLT PUSH2 0x1581 JUMPI MLOAD DUP2 DUP2 AND DUP2 SUB PUSH2 0x1581 JUMPI DUP2 SWAP1 CODESIZE PUSH2 0x1442 JUMP JUMPDEST DUP8 DUP1 REVERT JUMPDEST POP RETURNDATASIZE PUSH2 0x155D JUMP JUMPDEST DUP6 MLOAD RETURNDATASIZE DUP11 DUP3 RETURNDATACOPY RETURNDATASIZE SWAP1 REVERT JUMPDEST DUP4 MLOAD PUSH3 0x461BCD PUSH1 0xE5 SHL DUP2 MSTORE DUP1 DUP8 ADD DUP5 SWAP1 MSTORE PUSH1 0x1F PUSH1 0x24 DUP3 ADD MSTORE PUSH32 0x5661756C744D616E616765723A20696E76616C696420726563697069656E7400 PUSH1 0x44 DUP3 ADD MSTORE PUSH1 0x64 SWAP1 REVERT JUMPDEST POP CALLVALUE PUSH2 0x1FB JUMPI DUP2 PUSH1 0x3 NOT CALLDATASIZE ADD SLT PUSH2 0x1FB JUMPI PUSH2 0x15F2 PUSH2 0x1886 JUMP JUMPDEST SWAP2 PUSH1 0x24 CALLDATALOAD SWAP1 PUSH1 0x0 DUP1 MLOAD PUSH1 0x20 PUSH2 0x2008 DUP4 CODECOPY DUP2 MLOAD SWAP2 MSTORE DUP6 MSTORE PUSH1 0x20 DUP6 DUP2 MSTORE DUP2 DUP7 KECCAK256 CALLER DUP8 MSTORE DUP2 MSTORE PUSH2 0x1624 PUSH1 0xFF DUP4 DUP9 KECCAK256 SLOAD AND PUSH2 0x1B8B JUMP JUMPDEST PUSH2 0x162C PUSH2 0x1D7F JUMP JUMPDEST PUSH2 0x1634 PUSH2 0x1D61 JUMP JUMPDEST PUSH1 0x1 DUP1 PUSH1 0xA0 SHL SUB DUP1 SWAP6 AND SWAP5 DUP6 DUP8 MSTORE DUP5 DUP3 MSTORE PUSH2 0x1654 DUP5 DUP5 DUP10 KECCAK256 SLOAD LT ISZERO PUSH2 0x1E8A JUMP JUMPDEST DUP6 DUP8 MSTORE DUP5 DUP3 MSTORE DUP3 DUP8 KECCAK256 PUSH2 0x1668 DUP6 DUP3 SLOAD PUSH2 0x1DF9 JUMP JUMPDEST SWAP1 SSTORE PUSH1 0x2 SLOAD PUSH1 0x8 SHR AND SWAP4 DUP3 MLOAD SWAP1 PUSH4 0x62F5AD63 PUSH1 0xE0 SHL DUP3 MSTORE DUP3 DUP3 DUP3 DUP2 DUP10 GAS STATICCALL DUP1 ISZERO PUSH2 0x17B9 JUMPI DUP9 SWAP1 PUSH2 0x1803 JUMPI JUMPDEST PUSH2 0x16A4 SWAP3 POP PUSH2 0x2710 SWAP3 DUP4 SWAP2 DUP8 PUSH2 0x1EE5 JUMP JUMPDEST DIV SWAP6 DUP5 MLOAD PUSH4 0x3C6EC585 PUSH1 0xE1 SHL DUP2 MSTORE DUP5 DUP2 DUP5 DUP2 DUP6 GAS STATICCALL SWAP1 DUP2 ISZERO PUSH2 0x17F9 JUMPI SWAP1 DUP6 SWAP3 SWAP2 DUP12 SWAP2 PUSH2 0x17C3 JUMPI JUMPDEST POP PUSH2 0x16D6 SWAP1 DUP9 PUSH2 0x1EE5 JUMP JUMPDEST POP DUP6 MLOAD PUSH4 0x1EB4189 PUSH1 0xE7 SHL DUP2 MSTORE SWAP3 DUP4 SWAP2 DUP3 SWAP1 GAS STATICCALL SWAP1 DUP2 ISZERO PUSH2 0x17B9 JUMPI DUP9 SWAP2 PUSH2 0x1772 JUMPI JUMPDEST POP SWAP2 PUSH1 0x0 DUP1 MLOAD PUSH1 0x20 PUSH2 0x1FE8 DUP4 CODECOPY DUP2 MLOAD SWAP2 MSTORE SWAP6 PUSH1 0x60 SWAP3 PUSH2 0x171B DUP8 SWAP7 SWAP6 PUSH1 0xA0 SWAP9 PUSH2 0x1EE5 JUMP JUMPDEST DIV DUP9 DUP11 MSTORE PUSH1 0x5 DUP4 MSTORE PUSH2 0x1731 DUP6 DUP12 KECCAK256 SWAP2 DUP3 SLOAD PUSH2 0x1C43 JUMP JUMPDEST SWAP1 SSTORE DUP8 DUP10 MSTORE PUSH1 0x7 DUP3 MSTORE PUSH2 0x1748 DUP5 DUP11 KECCAK256 SWAP2 DUP3 SLOAD PUSH2 0x1C43 JUMP JUMPDEST SWAP1 SSTORE DUP3 MLOAD SWAP4 DUP5 MSTORE DUP4 ADD MSTORE PUSH1 0x3 PUSH1 0x60 DUP4 ADD MSTORE PUSH3 0x185B1B PUSH1 0xEA SHL PUSH1 0x80 DUP4 ADD MSTORE TIMESTAMP SWAP1 DUP3 ADD MSTORE LOG2 PUSH1 0x1 DUP1 SSTORE DUP1 RETURN JUMPDEST SWAP2 SWAP5 SWAP4 SWAP3 DUP1 SWAP2 POP DUP3 DUP2 RETURNDATASIZE DUP4 GT PUSH2 0x17B2 JUMPI JUMPDEST PUSH2 0x178D DUP2 DUP4 PUSH2 0x1C66 JUMP JUMPDEST DUP2 ADD SUB SLT PUSH2 0x1581 JUMPI SWAP1 MLOAD SWAP3 SWAP4 SWAP2 SWAP3 SWAP1 SWAP2 SWAP1 PUSH1 0x0 DUP1 MLOAD PUSH1 0x20 PUSH2 0x1FE8 DUP4 CODECOPY DUP2 MLOAD SWAP2 MSTORE PUSH2 0x16F8 JUMP JUMPDEST POP RETURNDATASIZE PUSH2 0x1783 JUMP JUMPDEST DUP5 MLOAD RETURNDATASIZE DUP11 DUP3 RETURNDATACOPY RETURNDATASIZE SWAP1 REVERT JUMPDEST DUP4 DUP2 SWAP5 SWAP3 POP RETURNDATASIZE DUP4 GT PUSH2 0x17F2 JUMPI JUMPDEST PUSH2 0x17DA DUP2 DUP4 PUSH2 0x1C66 JUMP JUMPDEST DUP2 ADD SUB SLT PUSH2 0x17EE JUMPI PUSH2 0x16D6 DUP6 SWAP3 MLOAD SWAP1 PUSH2 0x16CB JUMP JUMPDEST DUP10 DUP1 REVERT JUMPDEST POP RETURNDATASIZE PUSH2 0x17D0 JUMP JUMPDEST DUP7 MLOAD RETURNDATASIZE DUP13 DUP3 RETURNDATACOPY RETURNDATASIZE SWAP1 REVERT JUMPDEST POP DUP3 DUP3 DUP2 RETURNDATASIZE DUP4 GT PUSH2 0x182B JUMPI JUMPDEST PUSH2 0x1819 DUP2 DUP4 PUSH2 0x1C66 JUMP JUMPDEST DUP2 ADD SUB SLT PUSH2 0x1581 JUMPI PUSH2 0x16A4 SWAP2 MLOAD PUSH2 0x1693 JUMP JUMPDEST POP RETURNDATASIZE PUSH2 0x180F JUMP JUMPDEST SWAP3 POP POP CALLVALUE PUSH2 0x1FB JUMPI PUSH1 0x20 CALLDATASIZE PUSH1 0x3 NOT ADD SLT PUSH2 0x1FB JUMPI CALLDATALOAD PUSH4 0xFFFFFFFF PUSH1 0xE0 SHL DUP2 AND DUP1 SWAP2 SUB PUSH2 0x1FB JUMPI PUSH1 0x20 SWAP3 POP PUSH4 0x7965DB0B PUSH1 0xE0 SHL DUP2 EQ SWAP1 DUP2 ISZERO PUSH2 0x1875 JUMPI JUMPDEST POP ISZERO ISZERO DUP2 MSTORE RETURN JUMPDEST PUSH4 0x1FFC9A7 PUSH1 0xE0 SHL EQ SWAP1 POP CODESIZE PUSH2 0x186E JUMP JUMPDEST PUSH1 0x4 CALLDATALOAD SWAP1 PUSH1 0x1 PUSH1 0x1 PUSH1 0xA0 SHL SUB DUP3 AND DUP3 SUB PUSH2 0x189C JUMPI JUMP JUMPDEST PUSH1 0x0 DUP1 REVERT JUMPDEST PUSH1 0x24 CALLDATALOAD SWAP1 PUSH1 0x1 PUSH1 0x1 PUSH1 0xA0 SHL SUB DUP3 AND DUP3 SUB PUSH2 0x189C JUMPI JUMP JUMPDEST SWAP2 DUP2 PUSH1 0x1F DUP5 ADD SLT ISZERO PUSH2 0x189C JUMPI DUP3 CALLDATALOAD SWAP2 PUSH8 0xFFFFFFFFFFFFFFFF DUP4 GT PUSH2 0x189C JUMPI PUSH1 0x20 DUP1 DUP6 ADD SWAP5 DUP5 PUSH1 0x5 SHL ADD ADD GT PUSH2 0x189C JUMPI JUMP JUMPDEST SWAP2 DUP2 PUSH1 0x1F DUP5 ADD SLT ISZERO PUSH2 0x189C JUMPI DUP3 CALLDATALOAD SWAP2 PUSH8 0xFFFFFFFFFFFFFFFF DUP4 GT PUSH2 0x189C JUMPI PUSH1 0x20 DUP4 DUP2 DUP7 ADD SWAP6 ADD ADD GT PUSH2 0x189C JUMPI JUMP JUMPDEST PUSH1 0x60 SWAP1 PUSH1 0x3 NOT ADD SLT PUSH2 0x189C JUMPI PUSH1 0x1 PUSH1 0x1 PUSH1 0xA0 SHL SUB PUSH1 0x4 CALLDATALOAD DUP2 DUP2 AND DUP2 SUB PUSH2 0x189C JUMPI SWAP2 PUSH1 0x24 CALLDATALOAD SWAP2 PUSH1 0x44 CALLDATALOAD SWAP1 DUP2 AND DUP2 SUB PUSH2 0x189C JUMPI SWAP1 JUMP JUMPDEST PUSH1 0x60 SWAP1 PUSH1 0x3 NOT ADD SLT PUSH2 0x189C JUMPI PUSH1 0x1 PUSH1 0x1 PUSH1 0xA0 SHL SUB SWAP1 PUSH1 0x4 CALLDATALOAD DUP3 DUP2 AND DUP2 SUB PUSH2 0x189C JUMPI SWAP2 PUSH1 0x24 CALLDATALOAD SWAP1 DUP2 AND DUP2 SUB PUSH2 0x189C JUMPI SWAP1 PUSH1 0x44 CALLDATALOAD SWAP1 JUMP JUMPDEST CALLER PUSH1 0x0 SWAP1 DUP2 MSTORE PUSH32 0xAD3228B676F7D3CD4284A5443F17F1962B36E491B30A40B2405849E597BA5FB5 PUSH1 0x20 MSTORE PUSH1 0x40 DUP2 KECCAK256 SLOAD PUSH1 0xFF AND ISZERO PUSH2 0x19B9 JUMPI POP JUMP JUMPDEST PUSH1 0x44 SWAP1 PUSH1 0x40 MLOAD SWAP1 PUSH4 0xE2517D3F PUSH1 0xE0 SHL DUP3 MSTORE CALLER PUSH1 0x4 DUP4 ADD MSTORE PUSH1 0x24 DUP3 ADD MSTORE REVERT JUMPDEST DUP1 PUSH1 0x0 MSTORE PUSH1 0x0 PUSH1 0x20 MSTORE PUSH1 0x40 PUSH1 0x0 KECCAK256 CALLER PUSH1 0x0 MSTORE PUSH1 0x20 MSTORE PUSH1 0xFF PUSH1 0x40 PUSH1 0x0 KECCAK256 SLOAD AND ISZERO PUSH2 0x19B9 JUMPI POP JUMP JUMPDEST PUSH1 0x1 PUSH1 0x1 PUSH1 0xA0 SHL SUB AND PUSH1 0x0 DUP2 DUP2 MSTORE PUSH32 0xAD6010F11D85E6849EC87F5F41F95A2725AAF728916B399656C75CE30B0D2C54 PUSH1 0x20 MSTORE PUSH1 0x40 DUP2 KECCAK256 SLOAD SWAP1 SWAP2 SWAP1 PUSH1 0x0 DUP1 MLOAD PUSH1 0x20 PUSH2 0x2008 DUP4 CODECOPY DUP2 MLOAD SWAP2 MSTORE SWAP1 PUSH1 0xFF AND PUSH2 0x1A98 JUMPI DUP1 DUP4 MSTORE DUP3 PUSH1 0x20 MSTORE PUSH1 0x40 DUP4 KECCAK256 DUP3 DUP5 MSTORE PUSH1 0x20 MSTORE PUSH1 0x40 DUP4 KECCAK256 PUSH1 0x1 PUSH1 0xFF NOT DUP3 SLOAD AND OR SWAP1 SSTORE PUSH32 0x2F8788117E7EFF1D82E926EC794901D17C78024A50270940304540A733656F0D CALLER SWAP4 DUP1 LOG4 PUSH1 0x1 SWAP1 JUMP JUMPDEST POP POP SWAP1 JUMP JUMPDEST SWAP1 PUSH1 0x0 SWAP2 DUP1 DUP4 MSTORE DUP3 PUSH1 0x20 MSTORE PUSH1 0x40 DUP4 KECCAK256 SWAP2 PUSH1 0x1 DUP1 PUSH1 0xA0 SHL SUB AND SWAP2 DUP3 DUP5 MSTORE PUSH1 0x20 MSTORE PUSH1 0xFF PUSH1 0x40 DUP5 KECCAK256 SLOAD AND ISZERO PUSH1 0x0 EQ PUSH2 0x1A98 JUMPI DUP1 DUP4 MSTORE DUP3 PUSH1 0x20 MSTORE PUSH1 0x40 DUP4 KECCAK256 DUP3 DUP5 MSTORE PUSH1 0x20 MSTORE PUSH1 0x40 DUP4 KECCAK256 PUSH1 0x1 PUSH1 0xFF NOT DUP3 SLOAD AND OR SWAP1 SSTORE PUSH32 0x2F8788117E7EFF1D82E926EC794901D17C78024A50270940304540A733656F0D CALLER SWAP4 DUP1 LOG4 PUSH1 0x1 SWAP1 JUMP JUMPDEST SWAP1 PUSH1 0x0 SWAP2 DUP1 DUP4 MSTORE DUP3 PUSH1 0x20 MSTORE PUSH1 0x40 DUP4 KECCAK256 SWAP2 PUSH1 0x1 DUP1 PUSH1 0xA0 SHL SUB AND SWAP2 DUP3 DUP5 MSTORE PUSH1 0x20 MSTORE PUSH1 0xFF PUSH1 0x40 DUP5 KECCAK256 SLOAD AND PUSH1 0x0 EQ PUSH2 0x1A98 JUMPI DUP1 DUP4 MSTORE DUP3 PUSH1 0x20 MSTORE PUSH1 0x40 DUP4 KECCAK256 DUP3 DUP5 MSTORE PUSH1 0x20 MSTORE PUSH1 0x40 DUP4 KECCAK256 PUSH1 0xFF NOT DUP2 SLOAD AND SWAP1 SSTORE PUSH32 0xF6391F5C32D9C69D2A47EA670B442974B53935D1EDC7FD64EB21E047A839171B CALLER SWAP4 DUP1 LOG4 PUSH1 0x1 SWAP1 JUMP JUMPDEST ISZERO PUSH2 0x1B92 JUMPI JUMP JUMPDEST PUSH1 0x40 MLOAD PUSH3 0x461BCD PUSH1 0xE5 SHL DUP2 MSTORE PUSH1 0x20 PUSH1 0x4 DUP3 ADD MSTORE PUSH1 0x24 DUP1 DUP3 ADD MSTORE PUSH32 0x5661756C744D616E616765723A2063616C6C6572206973206E6F74206F706572 PUSH1 0x44 DUP3 ADD MSTORE PUSH4 0x30BA37B9 PUSH1 0xE1 SHL PUSH1 0x64 DUP3 ADD MSTORE PUSH1 0x84 SWAP1 REVERT JUMPDEST ISZERO PUSH2 0x1BEA JUMPI JUMP JUMPDEST PUSH1 0x40 MLOAD PUSH3 0x461BCD PUSH1 0xE5 SHL DUP2 MSTORE PUSH1 0x20 PUSH1 0x4 DUP3 ADD MSTORE PUSH1 0x2B PUSH1 0x24 DUP3 ADD MSTORE PUSH32 0x5661756C744D616E616765723A20616D6F756E74206D75737420626520677265 PUSH1 0x44 DUP3 ADD MSTORE PUSH11 0x61746572207468616E203 PUSH1 0xAC SHL PUSH1 0x64 DUP3 ADD MSTORE PUSH1 0x84 SWAP1 REVERT JUMPDEST SWAP2 SWAP1 DUP3 ADD DUP1 SWAP3 GT PUSH2 0x1C50 JUMPI JUMP JUMPDEST PUSH4 0x4E487B71 PUSH1 0xE0 SHL PUSH1 0x0 MSTORE PUSH1 0x11 PUSH1 0x4 MSTORE PUSH1 0x24 PUSH1 0x0 REVERT JUMPDEST SWAP1 PUSH1 0x1F DUP1 NOT SWAP2 ADD AND DUP2 ADD SWAP1 DUP2 LT PUSH8 0xFFFFFFFFFFFFFFFF DUP3 GT OR PUSH2 0x1C88 JUMPI PUSH1 0x40 MSTORE JUMP JUMPDEST PUSH4 0x4E487B71 PUSH1 0xE0 SHL PUSH1 0x0 MSTORE PUSH1 0x41 PUSH1 0x4 MSTORE PUSH1 0x24 PUSH1 0x0 REVERT JUMPDEST PUSH1 0x40 MLOAD PUSH4 0x23B872DD PUSH1 0xE0 SHL PUSH1 0x20 DUP3 ADD MSTORE PUSH1 0x1 PUSH1 0x1 PUSH1 0xA0 SHL SUB SWAP3 DUP4 AND PUSH1 0x24 DUP3 ADD MSTORE SWAP3 SWAP1 SWAP2 AND PUSH1 0x44 DUP4 ADD MSTORE PUSH1 0x64 DUP1 DUP4 ADD SWAP4 SWAP1 SWAP4 MSTORE SWAP2 DUP2 MSTORE PUSH1 0xA0 DUP2 ADD SWAP2 DUP2 DUP4 LT PUSH8 0xFFFFFFFFFFFFFFFF DUP5 GT OR PUSH2 0x1C88 JUMPI PUSH2 0x1CF7 SWAP3 PUSH1 0x40 MSTORE PUSH2 0x1CF9 JUMP JUMPDEST JUMP JUMPDEST SWAP1 PUSH1 0x0 PUSH1 0x20 SWAP2 DUP3 DUP2 MLOAD SWAP2 ADD DUP3 DUP6 GAS CALL ISZERO PUSH2 0x1D55 JUMPI PUSH1 0x0 MLOAD RETURNDATASIZE PUSH2 0x1D4C JUMPI POP PUSH1 0x1 PUSH1 0x1 PUSH1 0xA0 SHL SUB DUP2 AND EXTCODESIZE ISZERO JUMPDEST PUSH2 0x1D2A JUMPI POP JUMP JUMPDEST PUSH1 0x40 MLOAD PUSH4 0x5274AFE7 PUSH1 0xE0 SHL DUP2 MSTORE PUSH1 0x1 PUSH1 0x1 PUSH1 0xA0 SHL SUB SWAP1 SWAP2 AND PUSH1 0x4 DUP3 ADD MSTORE PUSH1 0x24 SWAP1 REVERT JUMPDEST PUSH1 0x1 EQ ISZERO PUSH2 0x1D23 JUMP JUMPDEST PUSH1 0x40 MLOAD RETURNDATASIZE PUSH1 0x0 DUP3 RETURNDATACOPY RETURNDATASIZE SWAP1 REVERT JUMPDEST PUSH1 0xFF PUSH1 0x2 SLOAD AND PUSH2 0x1D6D JUMPI JUMP JUMPDEST PUSH1 0x40 MLOAD PUSH4 0xD93C0665 PUSH1 0xE0 SHL DUP2 MSTORE PUSH1 0x4 SWAP1 REVERT JUMPDEST PUSH1 0x2 PUSH1 0x1 SLOAD EQ PUSH2 0x1D90 JUMPI PUSH1 0x2 PUSH1 0x1 SSTORE JUMP JUMPDEST PUSH1 0x40 MLOAD PUSH4 0x3EE5AEB5 PUSH1 0xE0 SHL DUP2 MSTORE PUSH1 0x4 SWAP1 REVERT JUMPDEST ISZERO PUSH2 0x1DA9 JUMPI JUMP JUMPDEST PUSH1 0x40 MLOAD PUSH3 0x461BCD PUSH1 0xE5 SHL DUP2 MSTORE PUSH1 0x20 PUSH1 0x4 DUP3 ADD MSTORE PUSH1 0x22 PUSH1 0x24 DUP3 ADD MSTORE PUSH32 0x5661756C744D616E616765723A20696E73756666696369656E742062616C616E PUSH1 0x44 DUP3 ADD MSTORE PUSH2 0x6365 PUSH1 0xF0 SHL PUSH1 0x64 DUP3 ADD MSTORE PUSH1 0x84 SWAP1 REVERT JUMPDEST SWAP2 SWAP1 DUP3 SUB SWAP2 DUP3 GT PUSH2 0x1C50 JUMPI JUMP JUMPDEST PUSH1 0x40 MLOAD PUSH4 0xA9059CBB PUSH1 0xE0 SHL PUSH1 0x20 DUP3 ADD MSTORE PUSH1 0x1 PUSH1 0x1 PUSH1 0xA0 SHL SUB SWAP1 SWAP3 AND PUSH1 0x24 DUP4 ADD MSTORE PUSH1 0x44 DUP1 DUP4 ADD SWAP4 SWAP1 SWAP4 MSTORE SWAP2 DUP2 MSTORE PUSH1 0x80 DUP2 ADD SWAP2 PUSH8 0xFFFFFFFFFFFFFFFF DUP4 GT DUP3 DUP5 LT OR PUSH2 0x1C88 JUMPI PUSH2 0x1CF7 SWAP3 PUSH1 0x40 MSTORE PUSH2 0x1CF9 JUMP JUMPDEST SWAP5 SWAP4 SWAP3 DUP1 PUSH1 0x40 SWAP4 PUSH1 0x80 SWAP4 DUP9 MSTORE PUSH1 0x60 PUSH1 0x20 DUP10 ADD MSTORE DUP2 PUSH1 0x60 DUP10 ADD MSTORE DUP4 DUP9 ADD CALLDATACOPY PUSH1 0x0 DUP3 DUP3 DUP9 ADD ADD MSTORE PUSH1 0x1F DUP1 NOT SWAP2 ADD AND DUP6 ADD ADD SWAP4 ADD MSTORE JUMP JUMPDEST ISZERO PUSH2 0x1E91 JUMPI JUMP JUMPDEST PUSH1 0x40 MLOAD PUSH3 0x461BCD PUSH1 0xE5 SHL DUP2 MSTORE PUSH1 0x20 PUSH1 0x4 DUP3 ADD MSTORE PUSH1 0x26 PUSH1 0x24 DUP3 ADD MSTORE PUSH32 0x5661756C744D616E616765723A20696E73756666696369656E742070726F6669 PUSH1 0x44 DUP3 ADD MSTORE PUSH6 0x1D081C1BDBDB PUSH1 0xD2 SHL PUSH1 0x64 DUP3 ADD MSTORE PUSH1 0x84 SWAP1 REVERT JUMPDEST DUP2 DUP2 MUL SWAP3 SWAP2 DUP2 ISZERO SWAP2 DUP5 DIV EQ OR ISZERO PUSH2 0x1C50 JUMPI JUMP JUMPDEST ISZERO PUSH2 0x1EFF JUMPI JUMP JUMPDEST PUSH1 0x40 MLOAD PUSH3 0x461BCD PUSH1 0xE5 SHL DUP2 MSTORE PUSH1 0x20 PUSH1 0x4 DUP3 ADD MSTORE PUSH1 0x28 PUSH1 0x24 DUP3 ADD MSTORE PUSH32 0x5661756C744D616E616765723A20696E73756666696369656E7420696E746572 PUSH1 0x44 DUP3 ADD MSTORE PUSH8 0x1858DD081C1BDBDB PUSH1 0xC2 SHL PUSH1 0x64 DUP3 ADD MSTORE PUSH1 0x84 SWAP1 REVERT JUMPDEST ISZERO PUSH2 0x1F5C JUMPI JUMP JUMPDEST PUSH1 0x40 MLOAD PUSH3 0x461BCD PUSH1 0xE5 SHL DUP2 MSTORE PUSH1 0x20 PUSH1 0x4 DUP3 ADD MSTORE PUSH1 0x28 PUSH1 0x24 DUP3 ADD MSTORE PUSH32 0x5661756C744D616E616765723A20696E73756666696369656E7420646F6E6174 PUSH1 0x44 DUP3 ADD MSTORE PUSH8 0x1A5BDB881C1BDBDB PUSH1 0xC2 SHL PUSH1 0x64 DUP3 ADD MSTORE PUSH1 0x84 SWAP1 REVERT JUMPDEST PUSH1 0x0 NOT DUP2 EQ PUSH2 0x1C50 JUMPI PUSH1 0x1 ADD SWAP1 JUMP JUMPDEST SWAP2 SWAP1 DUP2 LT ISZERO PUSH2 0x1FD1 JUMPI PUSH1 0x5 SHL ADD SWAP1 JUMP JUMPDEST PUSH4 0x4E487B71 PUSH1 0xE0 SHL PUSH1 0x0 MSTORE PUSH1 0x32 PUSH1 0x4 MSTORE PUSH1 0x24 PUSH1 0x0 REVERT INVALID 0x1F JUMPI SWAP5 0xA9 PUSH27 0x8FD0F5605D102F892A8A78D86771F26E26716D26E376F3F4A3D613 PUSH10 0x6E87880CF63DCA8F080E PUSH27 0x26952044D39AFBD9CB8AB3582BD4B29E6071B29A2646970667358 0x22 SLT KECCAK256 SUB 0xBB 0xB0 0xBE PUSH24 0x9B1883792C25508B4FAA0CF6E74A5DFA6D44D8AAC5BCBAFE 0xE0 0x23 DUP8 PUSH5 0x736F6C6343 STOP ADDMOD EQ STOP CALLER 0x2F DUP8 DUP9 GT PUSH31 0x7EFF1D82E926EC794901D17C78024A50270940304540A733656F0D00000000 "},"methodIdentifiers":{"DEFAULT_ADMIN_ROLE()":"a217fddf","VAULT_OPERATOR_ROLE()":"bed62365","allocateProfitToSubPools(address,uint256,uint256,uint256)":"c3c8f58c","batchDistributeNodeRewards(address,address[],uint256[])":"234c30d7","collectFee(address,address,uint256,string)":"ec185a07","config()":"79502c55","depositMargin(address,address,uint256)":"564a6c98","depositToDonationPool(address,uint256)":"e1ede08f","depositToInteractPool(address,uint256)":"6208edc9","depositToLPPool(address,uint256)":"4a650a2c","distributeProfits(address,uint256)":"08b8bb4b","donationPoolBalance(address)":"d44f97b8","getProfitPoolBalance(address)":"f6faa649","getRoleAdmin(bytes32)":"248a9ca3","getTotalMarginPool(address)":"ad04570d","getUserMarginBalance(address,address)":"a7a62975","grantOperatorRole(address)":"27ac0c58","grantRole(bytes32,address)":"2f2ff15d","hasRole(bytes32,address)":"91d14854","interactPoolBalance(address)":"1de8ae53","lpPoolBalance(address)":"7af4c51b","marginPoolBalance(address)":"c69c75cd","pause()":"8456cb59","paused()":"5c975abb","profitPoolBalance(address)":"3e0e706e","renounceRole(bytes32,address)":"36568abe","revokeRole(bytes32,address)":"d547741f","setConfig(address)":"20e3dbd4","supportsInterface(bytes4)":"01ffc9a7","transferMargin(address,address,address,uint256,string)":"2ff1d458","transferReward(address,uint256)":"15490ebb","transferToFeedProtocol(address,uint256,address)":"77c5b506","unpause()":"3f4ba83a","userMarginBalance(address,address)":"715d5896","withdrawFromDonationPool(address,uint256,address)":"75818bd7","withdrawFromInteractPool(address,uint256,address)":"bdf3e780","withdrawFromLPPool(address,uint256,address)":"31aa128d","withdrawMargin(address,address,uint256)":"d249f54e"}}}}}