{"contracts/core/OptionsCore.sol":{"OptionsCore":{"abi":[{"inputs":[{"internalType":"address","name":"_config","type":"address"},{"internalType":"address","name":"_vaultManager","type":"address"},{"internalType":"address","name":"_usdt","type":"address"},{"internalType":"address","name":"_admin","type":"address"}],"stateMutability":"nonpayable","type":"constructor"},{"inputs":[],"name":"AccessControlBadConfirmation","type":"error"},{"inputs":[{"internalType":"address","name":"account","type":"address"},{"internalType":"bytes32","name":"neededRole","type":"bytes32"}],"name":"AccessControlUnauthorizedAccount","type":"error"},{"inputs":[],"name":"EnforcedPause","type":"error"},{"inputs":[],"name":"ExpectedPause","type":"error"},{"inputs":[],"name":"ReentrancyGuardReentrantCall","type":"error"},{"inputs":[{"internalType":"address","name":"token","type":"address"}],"name":"SafeERC20FailedOperation","type":"error"},{"anonymous":false,"inputs":[{"indexed":true,"internalType":"uint256","name":"orderId","type":"uint256"},{"indexed":true,"internalType":"uint256","name":"arbitrationId","type":"uint256"},{"indexed":false,"internalType":"address","name":"initiator","type":"address"},{"indexed":false,"internalType":"uint256","name":"originalPrice","type":"uint256"},{"indexed":false,"internalType":"uint256","name":"arbitrationPrice","type":"uint256"},{"indexed":false,"internalType":"bool","name":"resultChanged","type":"bool"},{"indexed":false,"internalType":"uint256","name":"initiatorReward","type":"uint256"},{"indexed":false,"internalType":"uint256","name":"timestamp","type":"uint256"}],"name":"ArbitrationResolved","type":"event"},{"anonymous":false,"inputs":[{"indexed":true,"internalType":"uint256","name":"orderId","type":"uint256"},{"indexed":true,"internalType":"address","name":"seller","type":"address"},{"indexed":false,"internalType":"uint256","name":"oldAmount","type":"uint256"},{"indexed":false,"internalType":"uint256","name":"newAmount","type":"uint256"},{"indexed":false,"internalType":"string","name":"changeType","type":"string"},{"indexed":false,"internalType":"uint256","name":"timestamp","type":"uint256"}],"name":"MarginChanged","type":"event"},{"anonymous":false,"inputs":[{"indexed":true,"internalType":"uint256","name":"orderId","type":"uint256"},{"indexed":false,"internalType":"string","name":"reason","type":"string"},{"indexed":false,"internalType":"uint256","name":"timestamp","type":"uint256"}],"name":"OrderCancelled","type":"event"},{"anonymous":false,"inputs":[{"indexed":true,"internalType":"uint256","name":"orderId","type":"uint256"},{"indexed":true,"internalType":"address","name":"creator","type":"address"},{"indexed":false,"internalType":"bool","name":"isBuyerOrder","type":"bool"},{"indexed":false,"internalType":"uint256","name":"timestamp","type":"uint256"}],"name":"OrderCreated","type":"event"},{"anonymous":false,"inputs":[{"indexed":true,"internalType":"uint256","name":"orderId","type":"uint256"},{"indexed":false,"internalType":"address","name":"beneficiary","type":"address"},{"indexed":false,"internalType":"uint256","name":"amount","type":"uint256"},{"indexed":false,"internalType":"uint256","name":"timestamp","type":"uint256"}],"name":"OrderLiquidated","type":"event"},{"anonymous":false,"inputs":[{"indexed":true,"internalType":"uint256","name":"orderId","type":"uint256"},{"indexed":true,"internalType":"address","name":"buyer","type":"address"},{"indexed":true,"internalType":"address","name":"seller","type":"address"},{"indexed":false,"internalType":"uint256","name":"timestamp","type":"uint256"}],"name":"OrderMatched","type":"event"},{"anonymous":false,"inputs":[{"indexed":true,"internalType":"uint256","name":"orderId","type":"uint256"},{"indexed":false,"internalType":"uint256","name":"buyerPayout","type":"uint256"},{"indexed":false,"internalType":"uint256","name":"sellerPayout","type":"uint256"},{"indexed":false,"internalType":"uint256","name":"timestamp","type":"uint256"}],"name":"OrderSettled","type":"event"},{"anonymous":false,"inputs":[{"indexed":true,"internalType":"uint256","name":"orderId","type":"uint256"},{"indexed":false,"internalType":"enum OrderStatus","name":"oldStatus","type":"uint8"},{"indexed":false,"internalType":"enum OrderStatus","name":"newStatus","type":"uint8"},{"indexed":false,"internalType":"string","name":"reason","type":"string"},{"indexed":false,"internalType":"uint256","name":"timestamp","type":"uint256"}],"name":"OrderStatusChanged","type":"event"},{"anonymous":false,"inputs":[{"indexed":false,"internalType":"address","name":"account","type":"address"}],"name":"Paused","type":"event"},{"anonymous":false,"inputs":[{"indexed":true,"internalType":"uint256","name":"orderId","type":"uint256"},{"indexed":true,"internalType":"uint256","name":"quoteId","type":"uint256"},{"indexed":true,"internalType":"address","name":"seller","type":"address"},{"indexed":false,"internalType":"uint256","name":"premiumRate","type":"uint256"},{"indexed":false,"internalType":"uint256","name":"timestamp","type":"uint256"}],"name":"QuoteSubmitted","type":"event"},{"anonymous":false,"inputs":[{"indexed":true,"internalType":"bytes32","name":"role","type":"bytes32"},{"indexed":true,"internalType":"bytes32","name":"previousAdminRole","type":"bytes32"},{"indexed":true,"internalType":"bytes32","name":"newAdminRole","type":"bytes32"}],"name":"RoleAdminChanged","type":"event"},{"anonymous":false,"inputs":[{"indexed":true,"internalType":"bytes32","name":"role","type":"bytes32"},{"indexed":true,"internalType":"address","name":"account","type":"address"},{"indexed":true,"internalType":"address","name":"sender","type":"address"}],"name":"RoleGranted","type":"event"},{"anonymous":false,"inputs":[{"indexed":true,"internalType":"bytes32","name":"role","type":"bytes32"},{"indexed":true,"internalType":"address","name":"account","type":"address"},{"indexed":true,"internalType":"address","name":"sender","type":"address"}],"name":"RoleRevoked","type":"event"},{"anonymous":false,"inputs":[{"indexed":false,"internalType":"address","name":"account","type":"address"}],"name":"Unpaused","type":"event"},{"inputs":[],"name":"DEFAULT_ADMIN_ROLE","outputs":[{"internalType":"bytes32","name":"","type":"bytes32"}],"stateMutability":"view","type":"function"},{"inputs":[{"internalType":"uint256","name":"quoteId","type":"uint256"}],"name":"acceptQuote","outputs":[],"stateMutability":"nonpayable","type":"function"},{"inputs":[{"internalType":"uint256","name":"orderId","type":"uint256"},{"internalType":"uint256","name":"amount","type":"uint256"}],"name":"addMargin","outputs":[],"stateMutability":"nonpayable","type":"function"},{"inputs":[{"internalType":"address","name":"","type":"address"},{"internalType":"uint256","name":"","type":"uint256"}],"name":"buyerOrders","outputs":[{"internalType":"uint256","name":"","type":"uint256"}],"stateMutability":"view","type":"function"},{"inputs":[{"internalType":"uint256","name":"orderId","type":"uint256"}],"name":"cancelRFQ","outputs":[],"stateMutability":"nonpayable","type":"function"},{"inputs":[],"name":"config","outputs":[{"internalType":"contract Config","name":"","type":"address"}],"stateMutability":"view","type":"function"},{"inputs":[{"internalType":"string","name":"underlyingName","type":"string"},{"internalType":"string","name":"underlyingCode","type":"string"},{"internalType":"string","name":"market","type":"string"},{"internalType":"string","name":"country","type":"string"},{"internalType":"string","name":"refPrice","type":"string"},{"internalType":"enum Direction","name":"direction","type":"uint8"},{"internalType":"uint256","name":"notionalUSDT","type":"uint256"},{"internalType":"uint256","name":"expiryTimestamp","type":"uint256"},{"internalType":"uint256","name":"maxPremiumRate","type":"uint256"},{"internalType":"uint256","name":"minMarginRate","type":"uint256"},{"internalType":"enum SellerType","name":"acceptedSellerType","type":"uint8"},{"internalType":"address","name":"designatedSeller","type":"address"},{"internalType":"uint256","name":"arbitrationWindow","type":"uint256"},{"internalType":"uint256","name":"marginCallDeadline","type":"uint256"},{"internalType":"bool","name":"dividendAdjustment","type":"bool"},{"internalType":"enum LiquidationRule","name":"liquidationRule","type":"uint8"},{"internalType":"uint8","name":"consecutiveDays","type":"uint8"},{"internalType":"uint8","name":"dailyLimitPercent","type":"uint8"},{"internalType":"enum FeedRule","name":"feedRule","type":"uint8"}],"name":"createBuyerRFQ","outputs":[{"internalType":"uint256","name":"orderId","type":"uint256"}],"stateMutability":"nonpayable","type":"function"},{"inputs":[{"internalType":"string","name":"underlyingName","type":"string"},{"internalType":"string","name":"underlyingCode","type":"string"},{"internalType":"string","name":"market","type":"string"},{"internalType":"string","name":"country","type":"string"},{"internalType":"string","name":"refPrice","type":"string"},{"internalType":"enum Direction","name":"direction","type":"uint8"},{"internalType":"uint256","name":"notionalUSDT","type":"uint256"},{"internalType":"uint256","name":"expiryTimestamp","type":"uint256"},{"internalType":"uint256","name":"premiumRate","type":"uint256"},{"internalType":"uint256","name":"marginAmount","type":"uint256"},{"internalType":"enum LiquidationRule","name":"liquidationRule","type":"uint8"},{"internalType":"uint8","name":"consecutiveDays","type":"uint8"},{"internalType":"uint8","name":"dailyLimitPercent","type":"uint8"},{"internalType":"uint256","name":"arbitrationWindow","type":"uint256"},{"internalType":"bool","name":"dividendAdjustment","type":"bool"},{"internalType":"uint8","name":"exerciseDelay","type":"uint8"},{"internalType":"enum FeedRule","name":"feedRule","type":"uint8"}],"name":"createSellerOrder","outputs":[{"internalType":"uint256","name":"orderId","type":"uint256"}],"stateMutability":"nonpayable","type":"function"},{"inputs":[{"internalType":"uint256","name":"orderId","type":"uint256"}],"name":"earlyExercise","outputs":[],"stateMutability":"nonpayable","type":"function"},{"inputs":[{"internalType":"uint256","name":"orderId","type":"uint256"}],"name":"forceLiquidate","outputs":[],"stateMutability":"nonpayable","type":"function"},{"inputs":[{"internalType":"address","name":"buyer","type":"address"}],"name":"getBuyerOrders","outputs":[{"internalType":"uint256[]","name":"","type":"uint256[]"}],"stateMutability":"view","type":"function"},{"inputs":[{"internalType":"uint256","name":"orderId","type":"uint256"}],"name":"getOrder","outputs":[{"components":[{"internalType":"uint256","name":"orderId","type":"uint256"},{"internalType":"address","name":"buyer","type":"address"},{"internalType":"address","name":"seller","type":"address"},{"internalType":"string","name":"underlyingName","type":"string"},{"internalType":"string","name":"underlyingCode","type":"string"},{"internalType":"string","name":"market","type":"string"},{"internalType":"string","name":"country","type":"string"},{"internalType":"string","name":"refPrice","type":"string"},{"internalType":"enum Direction","name":"direction","type":"uint8"},{"internalType":"uint256","name":"notionalUSDT","type":"uint256"},{"internalType":"uint256","name":"strikePrice","type":"uint256"},{"internalType":"uint256","name":"expiryTimestamp","type":"uint256"},{"internalType":"uint256","name":"premiumRate","type":"uint256"},{"internalType":"uint256","name":"premiumAmount","type":"uint256"},{"internalType":"uint256","name":"initialMargin","type":"uint256"},{"internalType":"uint256","name":"currentMargin","type":"uint256"},{"internalType":"uint256","name":"minMarginRate","type":"uint256"},{"internalType":"enum LiquidationRule","name":"liquidationRule","type":"uint8"},{"internalType":"uint8","name":"consecutiveDays","type":"uint8"},{"internalType":"uint8","name":"dailyLimitPercent","type":"uint8"},{"internalType":"uint8","name":"exerciseDelay","type":"uint8"},{"internalType":"enum SellerType","name":"sellerType","type":"uint8"},{"internalType":"address","name":"designatedSeller","type":"address"},{"internalType":"uint256","name":"arbitrationWindow","type":"uint256"},{"internalType":"uint256","name":"marginCallDeadline","type":"uint256"},{"internalType":"bool","name":"dividendAdjustment","type":"bool"},{"internalType":"enum FeedRule","name":"feedRule","type":"uint8"},{"internalType":"enum OrderStatus","name":"status","type":"uint8"},{"internalType":"uint256","name":"createdAt","type":"uint256"},{"internalType":"uint256","name":"matchedAt","type":"uint256"},{"internalType":"uint256","name":"settledAt","type":"uint256"},{"internalType":"uint256","name":"lastFeedPrice","type":"uint256"}],"internalType":"struct Order","name":"","type":"tuple"}],"stateMutability":"view","type":"function"},{"inputs":[{"internalType":"string","name":"country","type":"string"}],"name":"getOrdersByCountry","outputs":[{"internalType":"uint256[]","name":"","type":"uint256[]"}],"stateMutability":"view","type":"function"},{"inputs":[{"internalType":"string","name":"market","type":"string"}],"name":"getOrdersByMarket","outputs":[{"internalType":"uint256[]","name":"","type":"uint256[]"}],"stateMutability":"view","type":"function"},{"inputs":[{"internalType":"uint256","name":"orderId","type":"uint256"}],"name":"getQuotes","outputs":[{"components":[{"internalType":"uint256","name":"quoteId","type":"uint256"},{"internalType":"uint256","name":"orderId","type":"uint256"},{"internalType":"address","name":"seller","type":"address"},{"internalType":"enum SellerType","name":"sellerType","type":"uint8"},{"internalType":"uint256","name":"premiumRate","type":"uint256"},{"internalType":"uint256","name":"premiumAmount","type":"uint256"},{"internalType":"uint256","name":"marginRate","type":"uint256"},{"internalType":"uint256","name":"marginAmount","type":"uint256"},{"internalType":"enum LiquidationRule","name":"liquidationRule","type":"uint8"},{"internalType":"uint8","name":"consecutiveDays","type":"uint8"},{"internalType":"uint8","name":"dailyLimitPercent","type":"uint8"},{"internalType":"uint256","name":"createdAt","type":"uint256"},{"internalType":"uint256","name":"expiresAt","type":"uint256"},{"internalType":"enum QuoteStatus","name":"status","type":"uint8"}],"internalType":"struct Quote[]","name":"","type":"tuple[]"}],"stateMutability":"view","type":"function"},{"inputs":[{"internalType":"bytes32","name":"role","type":"bytes32"}],"name":"getRoleAdmin","outputs":[{"internalType":"bytes32","name":"","type":"bytes32"}],"stateMutability":"view","type":"function"},{"inputs":[{"internalType":"address","name":"seller","type":"address"}],"name":"getSellerOrders","outputs":[{"internalType":"uint256[]","name":"","type":"uint256[]"}],"stateMutability":"view","type":"function"},{"inputs":[{"internalType":"bytes32","name":"role","type":"bytes32"},{"internalType":"address","name":"account","type":"address"}],"name":"grantRole","outputs":[],"stateMutability":"nonpayable","type":"function"},{"inputs":[{"internalType":"bytes32","name":"role","type":"bytes32"},{"internalType":"address","name":"account","type":"address"}],"name":"hasRole","outputs":[{"internalType":"bool","name":"","type":"bool"}],"stateMutability":"view","type":"function"},{"inputs":[{"internalType":"uint256","name":"orderId","type":"uint256"}],"name":"initiateArbitration","outputs":[],"stateMutability":"payable","type":"function"},{"inputs":[],"name":"nextOrderId","outputs":[{"internalType":"uint256","name":"","type":"uint256"}],"stateMutability":"view","type":"function"},{"inputs":[],"name":"nextQuoteId","outputs":[{"internalType":"uint256","name":"","type":"uint256"}],"stateMutability":"view","type":"function"},{"inputs":[{"internalType":"uint256","name":"","type":"uint256"},{"internalType":"uint256","name":"","type":"uint256"}],"name":"orderQuotes","outputs":[{"internalType":"uint256","name":"quoteId","type":"uint256"},{"internalType":"uint256","name":"orderId","type":"uint256"},{"internalType":"address","name":"seller","type":"address"},{"internalType":"enum SellerType","name":"sellerType","type":"uint8"},{"internalType":"uint256","name":"premiumRate","type":"uint256"},{"internalType":"uint256","name":"premiumAmount","type":"uint256"},{"internalType":"uint256","name":"marginRate","type":"uint256"},{"internalType":"uint256","name":"marginAmount","type":"uint256"},{"internalType":"enum LiquidationRule","name":"liquidationRule","type":"uint8"},{"internalType":"uint8","name":"consecutiveDays","type":"uint8"},{"internalType":"uint8","name":"dailyLimitPercent","type":"uint8"},{"internalType":"uint256","name":"createdAt","type":"uint256"},{"internalType":"uint256","name":"expiresAt","type":"uint256"},{"internalType":"enum QuoteStatus","name":"status","type":"uint8"}],"stateMutability":"view","type":"function"},{"inputs":[{"internalType":"uint256","name":"","type":"uint256"}],"name":"orders","outputs":[{"internalType":"uint256","name":"orderId","type":"uint256"},{"internalType":"address","name":"buyer","type":"address"},{"internalType":"address","name":"seller","type":"address"},{"internalType":"string","name":"underlyingName","type":"string"},{"internalType":"string","name":"underlyingCode","type":"string"},{"internalType":"string","name":"market","type":"string"},{"internalType":"string","name":"country","type":"string"},{"internalType":"string","name":"refPrice","type":"string"},{"internalType":"enum Direction","name":"direction","type":"uint8"},{"internalType":"uint256","name":"notionalUSDT","type":"uint256"},{"internalType":"uint256","name":"strikePrice","type":"uint256"},{"internalType":"uint256","name":"expiryTimestamp","type":"uint256"},{"internalType":"uint256","name":"premiumRate","type":"uint256"},{"internalType":"uint256","name":"premiumAmount","type":"uint256"},{"internalType":"uint256","name":"initialMargin","type":"uint256"},{"internalType":"uint256","name":"currentMargin","type":"uint256"},{"internalType":"uint256","name":"minMarginRate","type":"uint256"},{"internalType":"enum LiquidationRule","name":"liquidationRule","type":"uint8"},{"internalType":"uint8","name":"consecutiveDays","type":"uint8"},{"internalType":"uint8","name":"dailyLimitPercent","type":"uint8"},{"internalType":"uint8","name":"exerciseDelay","type":"uint8"},{"internalType":"enum SellerType","name":"sellerType","type":"uint8"},{"internalType":"address","name":"designatedSeller","type":"address"},{"internalType":"uint256","name":"arbitrationWindow","type":"uint256"},{"internalType":"uint256","name":"marginCallDeadline","type":"uint256"},{"internalType":"bool","name":"dividendAdjustment","type":"bool"},{"internalType":"enum FeedRule","name":"feedRule","type":"uint8"},{"internalType":"enum OrderStatus","name":"status","type":"uint8"},{"internalType":"uint256","name":"createdAt","type":"uint256"},{"internalType":"uint256","name":"matchedAt","type":"uint256"},{"internalType":"uint256","name":"settledAt","type":"uint256"},{"internalType":"uint256","name":"lastFeedPrice","type":"uint256"}],"stateMutability":"view","type":"function"},{"inputs":[],"name":"pause","outputs":[],"stateMutability":"nonpayable","type":"function"},{"inputs":[],"name":"paused","outputs":[{"internalType":"bool","name":"","type":"bool"}],"stateMutability":"view","type":"function"},{"inputs":[{"internalType":"uint256","name":"","type":"uint256"}],"name":"quotes","outputs":[{"internalType":"uint256","name":"quoteId","type":"uint256"},{"internalType":"uint256","name":"orderId","type":"uint256"},{"internalType":"address","name":"seller","type":"address"},{"internalType":"enum SellerType","name":"sellerType","type":"uint8"},{"internalType":"uint256","name":"premiumRate","type":"uint256"},{"internalType":"uint256","name":"premiumAmount","type":"uint256"},{"internalType":"uint256","name":"marginRate","type":"uint256"},{"internalType":"uint256","name":"marginAmount","type":"uint256"},{"internalType":"enum LiquidationRule","name":"liquidationRule","type":"uint8"},{"internalType":"uint8","name":"consecutiveDays","type":"uint8"},{"internalType":"uint8","name":"dailyLimitPercent","type":"uint8"},{"internalType":"uint256","name":"createdAt","type":"uint256"},{"internalType":"uint256","name":"expiresAt","type":"uint256"},{"internalType":"enum QuoteStatus","name":"status","type":"uint8"}],"stateMutability":"view","type":"function"},{"inputs":[{"internalType":"bytes32","name":"role","type":"bytes32"},{"internalType":"address","name":"callerConfirmation","type":"address"}],"name":"renounceRole","outputs":[],"stateMutability":"nonpayable","type":"function"},{"inputs":[{"internalType":"uint256","name":"orderId","type":"uint256"},{"internalType":"enum FeedTier","name":"tier","type":"uint8"}],"name":"requestFeed","outputs":[],"stateMutability":"payable","type":"function"},{"inputs":[{"internalType":"uint256","name":"orderId","type":"uint256"},{"internalType":"uint256","name":"arbitrationPrice","type":"uint256"},{"internalType":"address[]","name":"arbitrators","type":"address[]"}],"name":"resolveArbitration","outputs":[],"stateMutability":"nonpayable","type":"function"},{"inputs":[{"internalType":"bytes32","name":"role","type":"bytes32"},{"internalType":"address","name":"account","type":"address"}],"name":"revokeRole","outputs":[],"stateMutability":"nonpayable","type":"function"},{"inputs":[{"internalType":"address","name":"","type":"address"},{"internalType":"uint256","name":"","type":"uint256"}],"name":"sellerOrders","outputs":[{"internalType":"uint256","name":"","type":"uint256"}],"stateMutability":"view","type":"function"},{"inputs":[{"internalType":"address","name":"_config","type":"address"}],"name":"setConfig","outputs":[],"stateMutability":"nonpayable","type":"function"},{"inputs":[{"internalType":"address","name":"_vaultManager","type":"address"}],"name":"setVaultManager","outputs":[],"stateMutability":"nonpayable","type":"function"},{"inputs":[{"internalType":"uint256","name":"orderId","type":"uint256"}],"name":"settle","outputs":[],"stateMutability":"nonpayable","type":"function"},{"inputs":[{"internalType":"uint256","name":"orderId","type":"uint256"},{"internalType":"uint256","name":"premiumRate","type":"uint256"},{"internalType":"uint256","name":"marginRate","type":"uint256"},{"internalType":"enum LiquidationRule","name":"liquidationRule","type":"uint8"},{"internalType":"uint8","name":"consecutiveDays","type":"uint8"},{"internalType":"uint8","name":"dailyLimitPercent","type":"uint8"}],"name":"submitQuote","outputs":[{"internalType":"uint256","name":"quoteId","type":"uint256"}],"stateMutability":"nonpayable","type":"function"},{"inputs":[{"internalType":"bytes4","name":"interfaceId","type":"bytes4"}],"name":"supportsInterface","outputs":[{"internalType":"bool","name":"","type":"bool"}],"stateMutability":"view","type":"function"},{"inputs":[],"name":"unpause","outputs":[],"stateMutability":"nonpayable","type":"function"},{"inputs":[],"name":"usdt","outputs":[{"internalType":"contract IERC20","name":"","type":"address"}],"stateMutability":"view","type":"function"},{"inputs":[],"name":"vaultManager","outputs":[{"internalType":"contract VaultManager","name":"","type":"address"}],"stateMutability":"view","type":"function"},{"inputs":[{"internalType":"uint256","name":"orderId","type":"uint256"},{"internalType":"uint256","name":"amount","type":"uint256"}],"name":"withdrawExcessMargin","outputs":[],"stateMutability":"nonpayable","type":"function"}],"evm":{"bytecode":{"linkReferences":{},"object":"608034620000f557601f620052b138819003918201601f19168301916001600160401b03831184841017620000fa57808492608094604052833981010312620000f5578062000052620000e49262000110565b90620000616020820162000110565b906200007e6060620000766040840162000110565b920162000110565b6001808055600581905560065560028054610100600160a81b03191660089590951b610100600160a81b031694909417909355600380546001600160a01b03199081166001600160a01b0394851617909155600480549091169190921617905562000125565b506040516150fa9081620001b78239f35b600080fd5b634e487b7160e01b600052604160045260246000fd5b51906001600160a01b0382168203620000f557565b6001600160a01b031660008181527fad3228b676f7d3cd4284a5443f17f1962b36e491b30a40b2405849e597ba5fb5602052604081205490919060ff16620001b257818052816020526040822081835260205260408220600160ff1982541617905533917f2f8788117e7eff1d82e926ec794901d17c78024a50270940304540a733656f0d8180a4600190565b509056fe610240604052600436101561001357600080fd5b6000803560e01c806301d0d5b814613d5157806301ffc9a714613cfa57806320e3dbd414613cb0578063248a9ca314613c845780632a58b33014613c665780632f2ff15d14613c295780632f48ab7d14613c005780633280890b146138ad57806336568abe146138655780633f4ba83a146137fa5780634500cb60146137b257806345cb45051461375c57806346f8226c146135815780634efef6aa146135635780635c975abb146135405780635d7ffe7b1461305f5780636af58cff14612dd15780636ca1438914612ca55780636dbe757914612bdd5780637203a5821461261357806379502c55146125e65780637d900421146125595780638456cb59146124fe5780638a4adf24146124d55780638df8280014611fbf57806391d1485414611f74578063979b4e6d1461154d578063a217fddf14611531578063a45f2ebc146114be578063a61cf0d41461142b578063a85c38ef146110d6578063b543503e14611091578063bc0ef26b14610ecd578063cf3fec4314610e40578063d049bfef14610bdb578063d09ef241146106be578063d1e745b1146104cf578063d41194b814610351578063d547741f14610310578063e4cbac401461028d5763f7ff6426146101e157600080fd5b3461028a576101ef366149c4565b90825260086020526040822080548210156102865761020e92506149da565b50805490610282600182015460028301549260038101549460048201549260058301549160068401549060078501549160088601549460ff600a600989015498015416976040519b8c9b8c60ff8860101c169860ff808a60081c1699169760ff8460a01c169360018060a01b031692614783565b0390f35b8280fd5b80fd5b503461028a5760208060031936011261030c576001600160a01b036102b06146d7565b168252600b815260408220916040518092808554928381520194835280832092905b8282106102f557610282856102e9818903826148a8565b60405191829182614731565b8354865294850194600193840193909101906102d2565b5080fd5b503461028a57604036600319011261028a5761034d6004356103306146ed565b90808452836020526103486001604086200154614a4e565b614af2565b5080f35b503461028a57610360366149c4565b90801515806104c4575b61037390614e94565b808352600760205260408320600201546001600160a01b03929061039a9084163314614fee565b6103a2614dec565b6103aa614dce565b80156104735781845260076020526040842060ff601482015460101c16600b81101561045f57610404916103e26004600f931461503a565b01916103fd8184549680600454169060035416903390614d27565b8254614e87565b809155604051928352602083015260806040830152600360808301526218591960ea1b60a08301524260608301527f2cf5022bdd8fefe86d09412967e028fa9a8cf1e1a3989d47dfd9fc64a22afa8660c03393a36001805580f35b634e487b7160e01b86526021600452602486fd5b60405162461bcd60e51b8152602060048201526024808201527f4f7074696f6e73436f72653a20616d6f756e74206d75737420626520706f73696044820152637469766560e01b6064820152608490fd5b50600554811061036a565b503461028a576104de366149c4565b90801515806106b3575b6104f190614e94565b808352600760205260408320600201546001600160a01b03906105179082163314614fee565b61051f614dec565b610527614dce565b8184526007602052604084209260ff601485015460101c16600b81101561045f576004610554911461503a565b600f840191610569600e845496015486615086565b8211610654578161057b879387615086565b84558160035416916004541690823b1561064557604051636924faa760e11b81523360048201526001600160a01b0392909216602483015260448201529082908290606490829084905af1801561064957610631575b5050546040519283526020830152608060408301526008608083015267776974686472617760c01b60a08301524260608301527f2cf5022bdd8fefe86d09412967e028fa9a8cf1e1a3989d47dfd9fc64a22afa8660c03393a36001805580f35b61063a90614847565b6106455783386105d1565b8380fd5b6040513d84823e3d90fd5b60405162461bcd60e51b815260206004820152603160248201527f4f7074696f6e73436f72653a2063616e6e6f742077697468647261772062656c60448201527037bb9034b734ba34b0b61036b0b933b4b760791b6064820152608490fd5b5060055481106104e8565b503461028a57602036600319011261028a57806103e06040516106e08161488c565b82815282602082015282604082015260608082015260606080820152606060a0820152606060c0820152606060e08201528261010082015282610120820152826101408201528261016082015282610180820152826101a0820152826101c0820152826101e08201528261020082015282610220820152826102408201528261026082015282610280820152826102a0820152826102c0820152826102e08201528261030082015282610320820152826103408201528261036082015282610380820152826103a0820152826103c082015201526004358152600760205260408120604051916107cf8361488c565b8154835260018201546001600160a01b03908116602085015260028301541660408401526107ff600383016148c9565b6060840152610810600483016148c9565b6080840152610821600583016148c9565b60a0840152610832600683016148c9565b60c0840152610843600783016148c9565b60e084015260ff600883015416610859816149ad565b6101008401526009820154610120840152600a820154610140840152600b820154610160840152600c820154610180840152600d8201546101a0840152600e8201546101c0840152600f8201546101e0840152601082015461020084015260118201546108c860ff821661476c565b60ff811661022085015260ff8160081c1661024085015260ff8160101c1661026085015260ff8160181c1661028085015261090860ff8260201c1661476c565b60ff8160201c166102a085015260018060a01b039060281c166102c084015260128201546102e0840152601382015461030084015260148201549060ff8216151561032085015261095e60ff8360081c166149ad565b60ff8260081c16610340850152600b60ff8360101c161015610bc757509060ff60189260101c16610360840152601581015461038084015260168101546103a084015260178101546103c084015201546103e08201526040518091602082528051602083015260018060a01b03602082015116604083015260018060a01b0360408201511660608301526103e0610a69610a096060840151610400608087015261042086019061496d565b610a53610a3f610a2b608087015193601f1994858a83030160a08b015261496d565b60a0870151848983030160c08a015261496d565b60c0860151838883030160e089015261496d565b9060e0850151908683030161010087015261496d565b91610100810151610a79816149ad565b6101208501526101208101516101408501526101408101516101608501526101608101516101808501526101808101516101a08501526101a08101516101c08501526101c08101516101e08501526101e0810151610200850152610200810151610220850152610220810151610aee8161476c565b61024085015260ff6102408201511661026085015260ff6102608201511661028085015260ff610280820151166102a08501526102a0810151610b308161476c565b6102c085015260018060a01b036102c0820151166102e08501526102e08101516103008501526103008101516103208501526103208101511515610340850152610340810151610b7f816149ad565b610360850152610b996103608201516103808601906149b7565b6103808101516103a08501526103a08101516103c08501526103c08101518285015201516104008301520390f35b634e487b7160e01b81526021600452602490fd5b503461028a576020908160031936011261028a576004358152600880835260408220928354916001600160401b038311610e2c5791849192604051916005610c278683831b01856148a8565b818452858401809588528688209188915b848310610d34575050505050506040519280840191818552518092526040840192945b828110610c685784840385f35b909192826101c0600192610d258951805183528481015185840152858060a01b03604082015116604084015260608082015190610ca48261476c565b8401526080808201519084015260a0808201519084015260c0808201519084015260e081015160e08401526101008082015190610ce08261476c565b84015260ff6101208181840151169085015261014090818301511690840152610160808201519084015261018080820151908401526101a08091015190830190614776565b01960191019492919094610c5b565b6040999896979951610d4581614870565b8454815260018501548882015260028501546001600160a01b038116604083015260ff9060a090811c8216610d798161476c565b6060840152600387015460808401526004870154908301528386015460c0830152600686015460e0830152806007870154818116610db68161476c565b61010085015281818b1c1661012085015260101c16610140830152878601546101608301526009860154610180830152600a860154166004811015610e1657600192828a926101a0600b9501528152019401920191929896959798610c38565b634e487b7160e01b600052602160045260246000fd5b634e487b7160e01b84526041600452602484fd5b503461028a5760208060031936011261030c576004356001600160401b03811161028657610e738291369060040161469a565b91908260405193849283378101600c815203019020916040518092808554928381520194835280832092905b828210610eb657610282856102e9818903826148a8565b835486529485019460019384019390910190610e9f565b503461028a5760208060031936011261030c576004359081151580611086575b610ef690614e94565b81835260078152610f1760018060a01b036001604086200154163314614e0f565b610f1f614dec565b610f27614dce565b81835260078152601460408420019081549160ff8360101c1692600b84101561045f578315801561107c575b156110285791600a91620a00006000805160206150a5833981519152959462ff00001916179055847fb848a62ef7171019d243ed8f5b8e1e6c32cafed0b7fc99da26cb2fc2e7d533ec6040516040815280610fce60408201604090600f81526e189d5e595c8818d85b98d95b1b1959608a1b60208201520190565b42868301520390a2610fe360405180946149b7565b820152608060408201528061101860808201604090600f81526e189d5e595c8818d85b98d95b1b1959608a1b60208201520190565b4260608301520390a26001805580f35b60405162461bcd60e51b815260048101849052602660248201527f4f7074696f6e73436f72653a2063616e6e6f742063616e63656c206166746572604482015265040dac2e8c6d60d31b6064820152608490fd5b5060018414610f53565b506005548210610eed565b503461028a57602036600319011261028a576110ab6146d7565b6110b36149f6565b60018060a01b03166bffffffffffffffffffffffff60a01b600354161760035580f35b503461028a57602036600319011261028a576004358152600760205260409020610200819052805460c052600181015460028201546001600160a01b03908116610160521690611128906003016148c9565b6101c0526102005160040161113c906148c9565b6102005160050161114c906148c9565b916102005160060161115d906148c9565b916102005160070161116e906148c9565b936102005193600885015460ff1660e052600985015495600a860154600b87015491600c88015493600d89015495600e8a015497600f8b01549960108c01549b60118101546101e052601281015461022052601381015460a052601481015461014052601581015461010052601681015460805260178101546101a0526018015461018052604051806101205260c0519052610120516020015261016051610120516040015261040080610120516060015261012051016101c051906112339161496d565b6101205180820390608001526112489161496d565b610120518082039060a0015261125d9161496d565b610120518082039060c001526112729161496d565b610120518082039060e001526112879161496d565b9760e051611294906149ad565b60e051610120516101000152610120516101200152610120516101400152610120516101600152610120516101800152610120516101a00152610120516101c00152610120516101e001526101205161020001526101e05160ff166112f89061476c565b6101e05160ff166101205161022001526101e05160081c60ff166101205161024001526101e05160101c60ff166101205161026001526101e05160181c60ff166101205161028001526101e05160201c60ff166113549061476c565b6101e05160201c60ff16610120516102a00152600160a01b600190036101e05160281c16610120516102c0015261022051610120516102e0015260a0516101205161030001526101405160ff1615156101205161032001526101405160081c60ff166113bf906149ad565b6101405160081c60ff1661012051610340015261012051610360016101405160101c60ff16906113ee916149b7565b61010051610120516103800152608051610120516103a001526101a051610120516103c0015261018051610120516103e001526101205180910390f35b503461028a57602036600319011261028a576040906004358152600960205220805490610282600182015460028301549260038101549460048201549260058301549160068401549060078501549160088601549460ff600a600989015498015416976040519b8c9b8c60ff8860101c169860ff808a60081c1699169760ff8460a01c169360018060a01b031692614783565b503461028a5760208060031936011261030c576001600160a01b036114e16146d7565b168252600a815260408220916040518092808554928381520194835280832092905b82821061151a57610282856102e9818903826148a8565b835486529485019460019384019390910190611503565b503461028a578060031936011261028a57602090604051908152f35b503461028a5761026036600319011261028a576004356001600160401b03811161030c5761157f90369060040161469a565b6024356001600160401b0381116106455761159e90369060040161469a565b906044356001600160401b038111611f70576115be90369060040161469a565b906064356001600160401b038111611f6c576115de90369060040161469a565b906084356001600160401b038111611f68576115fe90369060040161469a565b999098600260a435101561030c57600361014435101561030c57610164356001600160a01b0381169003611f0f576116346146c7565b60036101e43510156102865760ff61020435166102043503611f0f5760ff61022435166102243503611f0f57600261024435101561028657611674614dec565b61167c614dce565b61168960c4351515614b67565b6116964260e43511614bc2565b600254604051635d8eb68760e01b81529060081c6001600160a01b0316602082600481845afa918215611f5d578592611f27575b506116dc600492610124351015614c1c565b81546003546040516337382d3960e21b8152936001600160a01b03928316939290911691602091859182905afa918215611f1c578692611ee1575b61172393503390614d27565b600554996117308b614c67565b6005558a84526007602052604084208b81556001810180546001600160a01b03191633179055926001600160401b038211611ecd578190611774600386015461480d565b601f8111611e7c575b508590601f8311600114611e10578692611e05575b50508160011b916000199060031b1c19161760038301555b6001600160401b038911611bc1576117c5600483015461480d565b601f8111611dc0575b508883601f8211600114611d54578491611d49575b508960011b906000198b60031b1c19161760048301555b6001600160401b038711611bc157611815600583015461480d565b601f8111611d04575b508683601f8211600114611c9a578491611c8f575b508760011b906000198960031b1c19161760058301555b6001600160401b038511611bc157611865600683015461480d565b601f8111611c4a575b508483601f8211600114611be0578491611bd5575b508560011b906000198760031b1c19161760068301555b6001600160401b038c11611bc1576118b5600783015461480d565b9b601f8d11611b78575b60209c50839b601f8211600114611ae5579a611a3f968e829e97611a0f611a579f859f9e9c978a859f9b9a6040928a8a9f9b611a279c8a9f978d9892611ada575b50508160011b916000199060031b1c19161760078301555b61192760a43560088401614c8c565b60c435600983015560e435600b83015561010435600c8301556101243560108301556119e56011830161195d6101443582614ca4565b805465010000000000600160c81b0319166101643560281b65010000000000600160c81b03161781556101843560128501556101a435601385015560148401805493151560ff1660ff19949094169390931783556119be6101e43582614cc9565b805462ff00006102243560101b1662ffff001990911661ff006102043560081b1617179055565b6119f26102443582614cd3565b62ff0000198154169055601542910155338152600a865220614cf2565b8260405193849283378101600c815203019020614cf2565b8260405193849283378101600d815203019020614cf2565b8260405193849283378101600e815203019020614cf2565b604051600181524283820152817fc0c6ed2669febbe340d8737e8ec17254ffd9e038b54a4585ff70ac3ca18956aa60403393a3806000805160206150a583398151915260c06040516000815260008682015260806040820152600760808201526618dc99585d195960ca1b60a0820152426060820152a260018055604051908152f35b013590503880611900565b6007840185528d852090859d8e5b601f19851611611b60578f9a968e9f5097611a0f611a579f9e9d9b968f9a6040908f9a8d9893611a3f9f988b8b968f9a92600193611a279f601f19811610611b46575b505050811b016007830155611918565b0135600019600384901b60f8161c19169055388080611b36565b918f600181928585013581550193019e019d8e611af3565b60078301845260208420601f820160051c810160208310611bba575b601f8f5b0160051c82018110611bab5750506118bf565b60008155600101601f8f611b98565b5080611b94565b634e487b7160e01b83526041600452602483fd5b905084013538611883565b600684018552602085209150845b601f1988168110611c32575086601f19811610611c18575b5050600185811b01600683015561189a565b850135600019600388901b60f8161c191690553880611c06565b9091602060018192858a013581550193019101611bee565b60068301845260208420601f870160051c810160208810611c88575b601f830160051c82018110611c7c57505061186e565b60008155600101611c66565b5080611c66565b905086013538611833565b600584018552602085209150845b601f198a168110611cec575088601f19811610611cd2575b5050600187811b01600583015561184a565b87013560001960038a901b60f8161c191690553880611cc0565b9091602060018192858c013581550193019101611ca8565b60058301845260208420601f890160051c810160208a10611d42575b601f830160051c82018110611d3657505061181e565b60008155600101611d20565b5080611d20565b9050880135386117e3565b600484018552602085209150845b8a601f198d168210611da85750508a601f19811610611d8e575b5050600189811b0160048301556117fa565b89013560001960038c901b60f8161c191690553880611d7c565b60018394602093948493013581550193019101611d62565b60048301845260208420601f8b0160051c810160208c10611dfe575b601f830160051c82018110611df25750506117ce565b60008155600101611ddc565b5080611ddc565b013590503880611792565b60038601875260208720879450915b601f1984168510611e64576001945083601f19811610611e4a575b505050811b0160038301556117aa565b0135600019600384901b60f8161c19169055388080611e3a565b81810135835560209485019460019093019201611e1f565b90915060038501865260208620601f840160051c810160208510611ec6575b90849392915b601f830160051c82018110611eb757505061177d565b60008155859450600101611ea1565b5080611e9b565b634e487b7160e01b85526041600452602485fd5b91506020833d602011611f14575b81611efc602093836148a8565b81010312611f0f57611723925191611717565b600080fd5b3d9150611eef565b6040513d88823e3d90fd5b91506020823d602011611f55575b81611f42602093836148a8565b81010312611f0f579051906116dc6116ca565b3d9150611f35565b6040513d87823e3d90fd5b8980fd5b8780fd5b8580fd5b503461028a57604036600319011261028a576040611f906146ed565b91600435815280602052209060018060a01b0316600052602052602060ff604060002054166040519015158152f35b503461028a57602036600319011261028a576004351515806124c8575b611fe590614e94565b611fed614dec565b611ff5614dce565b600435815260076020526040812060ff601482015460101c16600b8110156124b457600603612463576018810154801561241e57612035600783016148c9565b908380928192825b8251811015612147576001600160f81b0319601760f91b8161205f8487615093565b51161461213957600360fc1b816120768487615093565b51161015908161211e575b50612095575b61209090614c67565b61203d565b909192939680600a810204600a148115171561210a57602f196120b88386615093565b5160f81c0160ff81116120f657889594939291600a60ff6120db93169102614e87565b971561208757946120ee61209091614c67565b959050612087565b634e487b7160e01b86526011600452602486fd5b634e487b7160e01b85526011600452602485fd5b603960f81b915061212f8386615093565b5116111538612081565b509350612090600194614c67565b8382888a89601281106123f7575b50839260ff600884015416612169816149ad565b6123cd578181116123a2575b50505b8282156123965750600f8101549182811161238f575b806121999193615086565b826122e2575b8061225a575b9060ff92612212926014830154926208000062ff000019851617601482015560174291015560405191825260208201524260408201527f6da40291eeb646b436d05c420b5b9f010d81df95bce846d2c3b3d45f56df19ec606060043592a260405192839160101c166149b7565b600860208201526080604082015260076080820152661cd95d1d1b195960ca1b60a08201524260608201526000805160206150a583398151915260c060043592a26001805580f35b600354600283015460045486926001600160a01b03908116929181169116823b1561064557604051636924faa760e11b81526001600160a01b03918216600482015291166024820152604481018490529082908290606490829084905af18015610649576122ca575b50506121a5565b6122d690939293614847565b610645579083856122c3565b6003546002830154600184015460045487936001600160a01b039182169382169282169116803b1561238b5784928360e49260405196879586946305fe3a8b60e31b86526004860152602485015260448401528a606484015260a06084840152601160a4840152701cd95d1d1b195b595b9d081c185e5bdd5d607a1b60c48401525af1801561064957612377575b505061219f565b61238090614847565b610645578385612370565b8480fd5b508161218e565b9150600f810154612199565b6123c59293506123b5826123c092615086565b600985015490614e54565b614e67565b908380612175565b8082116123dc575b5050612178565b6123ef9293506123b56123c09183615086565b9083806123d5565b6012036012811161210a57604d811161210a579061241891600a0a90614e54565b84612155565b60405162461bcd60e51b815260206004820152601a60248201527f4f7074696f6e73436f72653a206e6f20666565642070726963650000000000006044820152606490fd5b60405162461bcd60e51b815260206004820152602360248201527f4f7074696f6e73436f72653a206e6f742070656e64696e6720736574746c656d604482015262195b9d60ea1b6064820152608490fd5b634e487b7160e01b83526021600452602483fd5b5060055460043510611fdc565b503461028a578060031936011261028a576003546040516001600160a01b039091168152602090f35b503461028a578060031936011261028a576125176149f6565b61251f614dce565b600160ff1960025416176002557f62e78cea01bee320cd4e420270b5ea74000d11b0c9f74754ebdbfc544b05a2586020604051338152a180f35b503461028a5760208060031936011261030c576004356001600160401b0381116102865761258c8291369060040161469a565b91908260405193849283378101600d815203019020916040518092808554928381520194835280832092905b8282106125cf57610282856102e9818903826148a8565b8354865294850194600193840193909101906125b8565b503461028a578060031936011261028a5760025460405160089190911c6001600160a01b03168152602090f35b503461028a5760c036600319011261028a576003606435101561028a5760843560ff81168103611f0f5760a43560ff81168103611f0f57600435151580612bd0575b61265e90614e94565b612666614dec565b61266e614dce565b60043583526007602052604083209060ff601483015460101c16600b81101561294a578015908115612bc5575b5015612b705760018201546001600160a01b031615612b2b576015820154600254604051634f6bfad760e01b815260089190911c6001600160a01b031691602082600481865afa908115612b20578791612aea575b6126fa9250614e87565b421015612aa557600490813586526008602052602060408720549160405193848092630be0cbcd60e21b82525afa918215611f1c578692612a71575b501015612a2c576011820154600260ff8260201c166127548161476c565b146129c4575b5061271061276e6044356009850154614e54565b0461278160108401546044351015614c1c565b6004546003546127a19183916001600160a01b0390811691339116614d27565b600654936127ae85614c67565b6006556127106127c46024356009870154614e54565b04926004602060018060a01b0360025460081c16604051928380926306a15d6d60e11b82525afa9081156129b9578891612986575b5060ff92612808849242614e87565b946040519661281688614870565b89885260043560208901523360408901528a6060890152602435608089015260a088015260443560c088015260e087015261285260643561476c565b606435610100870152166101208501521661014083015242610160830152610180820152836101a082015282845260096020526128928160408620614ee0565b6004358452600860205260408420805490600160401b82101561297257906128bf916001820181556149da565b61295e57906128cd91614ee0565b601481015460ff8160101c16600b81101561294a576020945015612932575b5050604051602435815242838201528133917f878fe3f9bca373e42473c1f3ad3c9c35c4f1ecaf9a5f081a801a3fbd43049f55604060043592a460018055604051908152f35b6201000060149162ff000019161791015538806128ec565b634e487b7160e01b85526021600452602485fd5b634e487b7160e01b85526004859052602485fd5b634e487b7160e01b86526041600452602486fd5b90506020813d6020116129b1575b816129a1602093836148a8565b81010312611f0f575160ff6127f9565b3d9150612994565b6040513d8a823e3d90fd5b60281c6001600160a01b031633036129dc573861275a565b60405162461bcd60e51b815260206004820152602260248201527f4f7074696f6e73436f72653a206e6f742064657369676e617465642073656c6c60448201526132b960f11b6064820152608490fd5b60405162461bcd60e51b815260206004820152601f60248201527f4f7074696f6e73436f72653a206d61782071756f7465732072656163686564006044820152606490fd5b9091506020813d602011612a9d575b81612a8d602093836148a8565b81010312611f0f57519038612736565b3d9150612a80565b60405162461bcd60e51b815260206004820152601860248201527f4f7074696f6e73436f72653a20524651206578706972656400000000000000006044820152606490fd5b90506020823d602011612b18575b81612b05602093836148a8565b81010312611f0f576126fa9151906126f0565b3d9150612af8565b6040513d89823e3d90fd5b60405162461bcd60e51b815260206004820152601e60248201527f4f7074696f6e73436f72653a206e6f742061206275796572206f7264657200006044820152606490fd5b60405162461bcd60e51b815260206004820152602760248201527f4f7074696f6e73436f72653a206f72646572206e6f7420616363657074696e676044820152662071756f74657360c81b6064820152608490fd5b60019150143861269b565b5060055460043510612655565b50604036600319011261028a576004356003602435101561030c579081612c2e92151580612c9a575b612c0f90614e94565b8152600760205260409020600101546001600160a01b03163314614e0f565b612c36614dec565b612c3e614dce565b60405162461bcd60e51b815260206004820152602e60248201527f4f7074696f6e73436f72653a20666565642070726f746f636f6c206e6f74206960448201526d1b5c1b195b595b9d1959081e595d60921b6064820152608490fd5b506005548110612c06565b503461028a57602036600319011261028a5760043580151580612dc6575b612ccc90614e94565b612cd4614dec565b612cdc614dce565b808252600760205260408220601481019081549160ff8360101c1692600b84101561045f577fb009a900f426c0c9177acb33a8a806b35c53ac253d1ddf22d687986fc6b72ce4606060c0948694620900008995612d4a60046000805160206150a58339815191529b1461503a565b62ff00001916179055426017820155600f60018060a01b036001830154169101546040519182526020820152426040820152a2612d8a60405180926149b7565b6009602082015260806040820152601060808201526f199bdc98d9481b1a5c5d5a59185d195960821b60a0820152426060820152a26001805580f35b506005548110612cc3565b5060208060031936011261030c576004359081151580613054575b612df590614e94565b612dfd614dec565b612e05614dce565b8183526007815260408320601481019060ff825460101c16600b81101561045f57600603612ffe5760018101546001600160a01b039190821633148015612fef575b15612faa578060126017612e6093015491015490614e87565b4211612f5657806004918254168482600354169260025460081c166040519485809263039f4f7560e31b82525afa928315612b20578793612f21575b5093612ee460c094612ec460ff956007956000805160206150a5833981519152993390614d27565b805462ff0000198116620700001790915560405194859160101c166149b7565b820152608060408201526015608082015274185c989a5d1c985d1a5bdb881a5b9a5d1a585d1959605a1b60a0820152426060820152a26001805580f35b925090938083813d8311612f4f575b612f3a81836148a8565b81010312611f0f579151919390612ee4612e9c565b503d612f30565b60405162461bcd60e51b815260048101849052602660248201527f4f7074696f6e73436f72653a206172626974726174696f6e2077696e646f772060448201526518db1bdcd95960d21b6064820152608490fd5b60405162461bcd60e51b815260048101859052601f60248201527f4f7074696f6e73436f72653a206e6f7420706172747920746f206f72646572006044820152606490fd5b50816002820154163314612e47565b60405162461bcd60e51b815260048101849052602860248201527f4f7074696f6e73436f72653a2063616e6e6f7420696e6974696174652061726260448201526734ba3930ba34b7b760c11b6064820152608490fd5b506005548210612dec565b503461028a57602036600319011261028a57613079614dec565b613081614dce565b6004358152600960205260408120600a8101549160ff8316600481101561352c576134e757600982015442116134a25760018201548152600760205260408120926130d960018060a01b036001860154163314614e0f565b60ff601485015460101c16600b8110156124b4578015908115613497575b5015613452576003830154600c850154106133ff5760ff1916600117600a8301556002808301805491850180546001600160a01b0319166001600160a01b039390931692909217909155546131c890601185019061315b9060a01c60ff1682614ca4565b6003840154600c8601556004840154600d860155600684015480600e870155600f86015560ff600785016131928282541684614cc9565b8054835461ff001916600891821c841690911b61ff00161783555460101c1662ff000082549160101b169062ff00001916179055565b60148301805462ff000019811662020000179091554260168501556009840154600254604051631c03be3560e31b8152929492906020908290600490829060081c6001600160a01b03165afa9081156133f45784916133c0575b506127106132366132419261325b94614e54565b046004840154614e87565b6004546003546001600160a01b0390811691339116614d27565b600201546001600160a01b03168152600b60205260408120835461327e91614cf2565b8254815260086020526040812092815b8454811015613315576132a181866149da565b50546004351415806132df575b906132bc916132c157614c67565b61328e565b600a6132cd82886149da565b5001805460ff19166002179055614c67565b5060ff600a6132ee83886149da565b50015416600481101561330157156132ae565b634e487b7160e01b84526021600452602484fd5b506000805160206150a583398151915260c060ff6133868685549560018060a01b0360018201541690600260018060a01b039101541690877f3d7463b72b52fafc8e3f27dc0dbb9d1a94c0a4024834252b5cce68509acb49bc6020604051428152a460405192839160101c166149b7565b6002602082015260806040820152600e60808201526d1c5d5bdd19481858d8d95c1d195960921b60a0820152426060820152a26001805580f35b90506020813d6020116133ec575b816133db602093836148a8565b81010312611f0f5751612710613222565b3d91506133ce565b6040513d86823e3d90fd5b60405162461bcd60e51b815260206004820152602560248201527f4f7074696f6e73436f72653a207072656d69756d2072617465206578636565646044820152640e640dac2f60db1b6064820152608490fd5b60405162461bcd60e51b815260206004820152601b60248201527f4f7074696f6e73436f72653a20696e76616c69642073746174757300000000006044820152606490fd5b6001915014386130f7565b60405162461bcd60e51b815260206004820152601a60248201527f4f7074696f6e73436f72653a2071756f746520657870697265640000000000006044820152606490fd5b60405162461bcd60e51b815260206004820152601d60248201527f4f7074696f6e73436f72653a2071756f7465206e6f74206163746976650000006044820152606490fd5b634e487b7160e01b82526021600452602482fd5b503461028a578060031936011261028a57602060ff600254166040519015158152f35b503461028a578060031936011261028a576020600654604051908152f35b503461028a5760208060031936011261030c576004359081151580613751575b6135aa90614e94565b818352600781526135cb60018060a01b036001604086200154163314614e0f565b8183526007815260ff601460408520015460101c16600b81101561330157600403613703576135f8614dec565b613600614dce565b818352600781526040832060ff601182015460181c16620151809081810291818304149015171561210a57613639906016830154614e87565b42106136b25760ff60056000805160206150a58339815191529361367c601460c095018054906205000062ff000019831617905560405194859160101c166149b7565b82015260806040820152600e60808201526d6561726c7920657865726369736560901b60a0820152426060820152a26001805580f35b60405162461bcd60e51b815260048101839052602360248201527f4f7074696f6e73436f72653a2065786572636973652064656c6179206e6f74206044820152621b595d60ea1b6064820152608490fd5b6084906040519062461bcd60e51b82526004820152602160248201527f4f7074696f6e73436f72653a20696e76616c6964206f726465722073746174756044820152607360f81b6064820152fd5b5060055482106135a1565b503461028a57604036600319011261028a576137766146d7565b6001600160a01b03168152600b602052604081208054602435929083101561028a5760206137a48484614703565b90546040519160031b1c8152f35b503461028a57604036600319011261028a576137cc6146d7565b6001600160a01b03168152600a602052604081208054602435929083101561028a5760206137a48484614703565b503461028a578060031936011261028a576138136149f6565b60025460ff8116156138535760ff19166002557f5db9ee0a495bf2e6ff9c91a7834c1ba4fdd244a5e8aa4e537bd38aeae4b073aa6020604051338152a180f35b604051638dfc202b60e01b8152600490fd5b503461028a57604036600319011261028a5761387f6146ed565b336001600160a01b0382160361389b5761034d90600435614af2565b60405163334bd91960e11b8152600490fd5b503461028a57606036600319011261028a57600435602460443581356001600160401b03808311611f705736602384011215611f7057826004013592818411613bfc578436918560051b010111611f705784151580613bf1575b61391090614e94565b613918614dec565b613920614dce565b85805260209386855260408720338852855260ff60408820541615613bae57858752600785526040872092601484019460ff865460101c16600b811015613b9b57600703613b495715613b055760188401805460018601546001600160a01b03908116968b94838114159490939285613aa0575b508390558854986208000062ff0000198b1617905560174291015560405194898601908b825242604088015260408752606087019787891090891117613a8c575060c0876000805160206150a58339815191529b97613a5097839c978f969760ff9d987fb3560d930da64161657f7700f7109520a24b93d7ff2363739ee324a1e0d6bf879760089e60405285519020998652608085015260a08401528483015260e082015261010042910152a360405194859160101c166149b7565b820152608060408201526014608082015273185c989a5d1c985d1a5bdb881c995cdbdb1d995960621b60a0820152426060820152a26001805580f35b634e487b7160e01b60009081526041600452fd5b6003546798a7d9b8314c00009750168d813b1561028a578860448c838b9560405196879586946315490ebb60e01b865260048601528401525af18015613af85715613994579c613af185929e614847565b9c90613994565b8e604051903d90823e3d90fd5b60405162461bcd60e51b815260048101879052601b818401527f4f7074696f6e73436f72653a206e6f2061726269747261746f727300000000006044820152606490fd5b60405162461bcd60e51b8152600481018890526025818501527f4f7074696f6e73436f72653a206f72646572206e6f7420696e2061726269747260448201526430ba34b7b760d91b6064820152608490fd5b634e487b7160e01b8a526021600452838afd5b84601b6064926040519262461bcd60e51b845260048401528201527f4f7074696f6e73436f72653a206e6f7420617574686f72697a656400000000006044820152fd5b506005548510613907565b8680fd5b503461028a578060031936011261028a576004546040516001600160a01b039091168152602090f35b503461028a57604036600319011261028a5761034d600435613c496146ed565b9080845283602052613c616001604086200154614a4e565b614a74565b503461028a578060031936011261028a576020600554604051908152f35b503461028a57602036600319011261028a57600160406020926004358152808452200154604051908152f35b503461028a57602036600319011261028a57613cca6146d7565b613cd26149f6565b60028054610100600160a81b03191660089290921b610100600160a81b031691909117905580f35b503461028a57602036600319011261028a5760043563ffffffff60e01b811680910361030c57602090637965db0b60e01b8114908115613d40575b506040519015158152f35b6301ffc9a760e01b14905082613d35565b503461028a5761022036600319011261028a576004356001600160401b03811161030c57613d8390369060040161469a565b90916024356001600160401b03811161030c57613da490369060040161469a565b93906044356001600160401b03811161064557613dc590369060040161469a565b906064356001600160401b038111611f7057613de590369060040161469a565b90946084356001600160401b038111611f6c57613e0690369060040161469a565b600260a43510156146965760036101443510156146965760ff610164351661016435036146965760ff6101843516610184350361469657613e456146c7565b9160ff6101e435166101e43503611f68576002610204351015611f6857613e6a614dec565b613e72614dce565b613e7f60c4351515614b67565b613e8c4260e43511614bc2565b600480546003546002546040516337382d3960e21b81526001600160a01b0393841694909392831692602092859291839160081c165afa91821561468b578d92614651575b50613edd923390614d27565b61012435614629575b6005549a613ef38c614c67565b6005558b8b52600760205260408b208c81556002810180546001600160a01b03191633179055946001600160401b038211614615578190613f37600388015461480d565b601f81116145c3575b508c90601f8311600114614557578d9261454c575b50508160011b916000199060031b1c19161760038501555b6001600160401b038c1161430257613f88600485015461480d565b601f8111614506575b508b8a601f8211600114614497578b9161448c575b5060001960038e901b1c191660018d901b1760048501555b6001600160401b03871161430257613fd9600585015461480d565b601f8111614447575b50868a601f82116001146143dd578b916143d2575b508760011b906000198960031b1c19161760058501555b6001600160401b03851161430257614029600685015461480d565b601f811161438d575b50848a601f8211600114614321578b91614316575b508560011b906000198760031b1c19161760068501555b6001600160401b03821161430257614079600785015461480d565b601f81116142be575b509260209b9694928a928c9997958490601f831160011461421257958f6141c99d611a0f8e60408a859f9e9b9a611a3f9e9a8a859f9b869b8a9f9d611a279e92614207575b50508160011b916000199060031b1c19161760078301555b6140ee60a43560088401614c8c565b60c435600983015560e435600b8301556127106141166101043580600c86015560c435614e54565b04600d83015561012435600e83015561012435600f8301556011820161413f6101443582614cc9565b805462ff00006101843560101b1662ffff001990911661ff006101643560081b16171781556101a435601284015560148301805492151560ff1660ff1993909316929092178255805463ff00000019166101e43560181b63ff000000161790556141ac6102043582614cd3565b62ff0000198154169055601542910155338152600b865220614cf2565b6040519081524283820152817fc0c6ed2669febbe340d8737e8ec17254ffd9e038b54a4585ff70ac3ca18956aa60403393a360018055604051908152f35b0135905038806140c7565b9b94939291906007840185528f852090855b601f198416811061428c575060209a9996611a0f6141c99f8f9a948e99611a3f9d99611a279960018f9a6040958f9a978d9883601f19811610614272575b505050811b0160078301556140df565b0135600019600384901b60f8161c19169055388080614262565b9295509396989a9c929597999b508f600181928686013581550194019101928d94918f9c9a9896939d9b999794614224565b600785018b5260208b20601f840160051c8101602085106142fb575b601f830160051c820181106142f0575050614082565b8c81556001016142da565b50806142da565b634e487b7160e01b8a52604160045260248afd5b905089013538614047565b600686018c5260208c2091508b5b8b601f198916821061437557505086601f1981161061435b575b5050600185811b01600685015561405e565b8a0135600019600388901b60f8161c191690553880614349565b6001839460209394849301358155019301910161432f565b600685018b5260208b20601f870160051c8101602088106143cb575b8c601f840160051c830182106143c157505050614032565b81556001016143a9565b50806143a9565b905086013538613ff7565b600586018c5260208c2091508b5b601f198a16811061442f575088601f19811610614415575b5050600187811b01600585015561400e565b87013560001960038a901b60f8161c191690553880614403565b9091602060018192858c0135815501930191016143eb565b600585018b5260208b20601f890160051c810160208a10614485575b8c601f840160051c8301821061447b57505050613fe2565b8155600101614463565b5080614463565b905088013538613fa6565b600486018c5260208c2091508b8e5b8b601f19821683106144ec5750601f1981161090506144d2575b505060018c811b016004850155613fbe565b89013560001960038f901b60f8161c1916905538806144c0565b6001849560209394958493013581550194019201906144a6565b600485018b5260208b208d6020601f820160051c83019110614545575b8c601f840160051c8301821061453b57505050613f91565b8155600101614523565b5080614523565b013590503880613f55565b600388018e5260208e208e9450915b601f19841685106145ab576001945083601f19811610614591575b505050811b016003850155613f6d565b0135600019600384901b60f8161c19169055388080614581565b81810135835560209485019460019093019201614566565b909150600387018d5260208d20601f840160051c81016020851061460e575b84939291908f5b601f840160051c8301821061460057505050613f40565b81558594506001018f6145e9565b50806145e2565b634e487b7160e01b8c52604160045260248cfd5b60045460035461464c9161012435916001600160a01b0390811691339116614d27565b613ee6565b9091506020813d602011614683575b8161466d602093836148a8565b8101031261467f575190613edd613ed1565b8c80fd5b3d9150614660565b6040513d8f823e3d90fd5b8880fd5b9181601f84011215611f0f578235916001600160401b038311611f0f5760208381860195010111611f0f57565b6101c435908115158203611f0f57565b600435906001600160a01b0382168203611f0f57565b602435906001600160a01b0382168203611f0f57565b805482101561471b5760005260206000200190600090565b634e487b7160e01b600052603260045260246000fd5b6020908160408183019282815285518094520193019160005b828110614758575050505090565b83518552938101939281019260010161474a565b60031115610e1657565b906004821015610e165752565b9b99979593919e9d9c9a98969492909e6101c08d019f8d5260208d0152600160a01b600190031660408c01526147b88161476c565b60608b015260808a015260a089015260c088015260e08701526147da8161476c565b61010086015260ff1661012085015260ff166101408401526101608301526101808201526101a00161480b91614776565b565b90600182811c9216801561483d575b602083101461482757565b634e487b7160e01b600052602260045260246000fd5b91607f169161481c565b6001600160401b03811161485a57604052565b634e487b7160e01b600052604160045260246000fd5b6101c081019081106001600160401b0382111761485a57604052565b61040081019081106001600160401b0382111761485a57604052565b90601f801991011681019081106001600160401b0382111761485a57604052565b90604051918260008254926148dd8461480d565b90818452600194858116908160001461494a5750600114614907575b505061480b925003836148a8565b9093915060005260209081600020936000915b81831061493257505061480b935082010138806148f9565b8554888401850152948501948794509183019161491a565b91505061480b94506020925060ff191682840152151560051b82010138806148f9565b919082519283825260005b848110614999575050826000602080949584010152601f8019910116010190565b602081830181015184830182015201614978565b60021115610e1657565b90600b821015610e165752565b6040906003190112611f0f576004359060243590565b805482101561471b57600052600b602060002091020190600090565b3360009081527fad3228b676f7d3cd4284a5443f17f1962b36e491b30a40b2405849e597ba5fb5602052604081205460ff1615614a305750565b6044906040519063e2517d3f60e01b82523360048301526024820152fd5b80600052600060205260406000203360005260205260ff6040600020541615614a305750565b9060009180835282602052604083209160018060a01b03169182845260205260ff60408420541615600014614aed57808352826020526040832082845260205260408320600160ff198254161790557f2f8788117e7eff1d82e926ec794901d17c78024a50270940304540a733656f0d339380a4600190565b505090565b9060009180835282602052604083209160018060a01b03169182845260205260ff604084205416600014614aed5780835282602052604083208284526020526040832060ff1981541690557ff6391f5c32d9c69d2a47ea670b442974b53935d1edc7fd64eb21e047a839171b339380a4600190565b15614b6e57565b60405162461bcd60e51b815260206004820152602660248201527f4f7074696f6e73436f72653a206e6f74696f6e616c206d75737420626520706f60448201526573697469766560d01b6064820152608490fd5b15614bc957565b60405162461bcd60e51b815260206004820152602560248201527f4f7074696f6e73436f72653a20657870697279206d75737420626520696e2066604482015264757475726560d81b6064820152608490fd5b15614c2357565b606460405162461bcd60e51b815260206004820152602060248201527f4f7074696f6e73436f72653a206d617267696e207261746520746f6f206c6f776044820152fd5b6000198114614c765760010190565b634e487b7160e01b600052601160045260246000fd5b90614c96816149ad565b60ff80198354169116179055565b90614cae8161476c565b64ff0000000082549160201b169064ff000000001916179055565b90614c968161476c565b90614cdd816149ad565b61ff0082549160081b169061ff001916179055565b8054600160401b81101561485a57614d0f91600182018155614703565b819291549060031b91821b91600019901b1916179055565b6040516323b872dd60e01b60208083019182526001600160a01b0394851660248401529490931660448201526064808201959095529384529260009190614d6f6084826148a8565b519082855af115614dc2576000513d614db957506001600160a01b0381163b155b614d975750565b604051635274afe760e01b81526001600160a01b039091166004820152602490fd5b60011415614d90565b6040513d6000823e3d90fd5b60ff60025416614dda57565b60405163d93c066560e01b8152600490fd5b600260015414614dfd576002600155565b604051633ee5aeb560e01b8152600490fd5b15614e1657565b60405162461bcd60e51b815260206004820152601660248201527527b83a34b7b739a1b7b9329d103737ba10313abcb2b960511b6044820152606490fd5b81810292918115918404141715614c7657565b8115614e71570490565b634e487b7160e01b600052601260045260246000fd5b91908201809211614c7657565b15614e9b57565b60405162461bcd60e51b815260206004820152601d60248201527f4f7074696f6e73436f72653a20696e76616c6964206f726465722069640000006044820152606490fd5b600a6101a09183518155602084015160018201556002810160018060a01b036040860151168154906060870151614f168161476c565b614f1f8161476c565b60ff60a01b9060a01b16916affffffffffffffffffffff60a81b16171790556080840151600382015560a0840151600482015560c0840151600582015560e08401516006820155614fbd60078201614f85610100870151614f7f8161476c565b82614cc9565b610120860151815461ff00191660089190911b61ff0016178155610140860151815462ff0000191660109190911b62ff000016179055565b61016084015160088201556101808401516009820155019101516004811015610e165760ff80198354169116179055565b15614ff557565b60405162461bcd60e51b815260206004820152601760248201527f4f7074696f6e73436f72653a206e6f742073656c6c65720000000000000000006044820152606490fd5b1561504157565b60405162461bcd60e51b815260206004820152601b60248201527f4f7074696f6e73436f72653a206f72646572206e6f74206c69766500000000006044820152606490fd5b91908203918211614c7657565b90815181101561471b57016020019056fece3a31baf9956e086200ee7044a75c2befbd050912798b7bcd25d05831ab9592a26469706673582212200ef63c1bebf5fe213c4ce48969fabc742da1cbe5429298047830e4cee87acb5764736f6c63430008140033","opcodes":"PUSH1 0x80 CALLVALUE PUSH3 0xF5 JUMPI PUSH1 0x1F PUSH3 0x52B1 CODESIZE DUP2 SWAP1 SUB SWAP2 DUP3 ADD PUSH1 0x1F NOT AND DUP4 ADD SWAP2 PUSH1 0x1 PUSH1 0x1 PUSH1 0x40 SHL SUB DUP4 GT DUP5 DUP5 LT OR PUSH3 0xFA JUMPI DUP1 DUP5 SWAP3 PUSH1 0x80 SWAP5 PUSH1 0x40 MSTORE DUP4 CODECOPY DUP2 ADD SUB SLT PUSH3 0xF5 JUMPI DUP1 PUSH3 0x52 PUSH3 0xE4 SWAP3 PUSH3 0x110 JUMP JUMPDEST SWAP1 PUSH3 0x61 PUSH1 0x20 DUP3 ADD PUSH3 0x110 JUMP JUMPDEST SWAP1 PUSH3 0x7E PUSH1 0x60 PUSH3 0x76 PUSH1 0x40 DUP5 ADD PUSH3 0x110 JUMP JUMPDEST SWAP3 ADD PUSH3 0x110 JUMP JUMPDEST PUSH1 0x1 DUP1 DUP1 SSTORE PUSH1 0x5 DUP2 SWAP1 SSTORE PUSH1 0x6 SSTORE PUSH1 0x2 DUP1 SLOAD PUSH2 0x100 PUSH1 0x1 PUSH1 0xA8 SHL SUB NOT AND PUSH1 0x8 SWAP6 SWAP1 SWAP6 SHL PUSH2 0x100 PUSH1 0x1 PUSH1 0xA8 SHL SUB AND SWAP5 SWAP1 SWAP5 OR SWAP1 SWAP4 SSTORE PUSH1 0x3 DUP1 SLOAD PUSH1 0x1 PUSH1 0x1 PUSH1 0xA0 SHL SUB NOT SWAP1 DUP2 AND PUSH1 0x1 PUSH1 0x1 PUSH1 0xA0 SHL SUB SWAP5 DUP6 AND OR SWAP1 SWAP2 SSTORE PUSH1 0x4 DUP1 SLOAD SWAP1 SWAP2 AND SWAP2 SWAP1 SWAP3 AND OR SWAP1 SSTORE PUSH3 0x125 JUMP JUMPDEST POP PUSH1 0x40 MLOAD PUSH2 0x50FA SWAP1 DUP2 PUSH3 0x1B7 DUP3 CODECOPY RETURN JUMPDEST PUSH1 0x0 DUP1 REVERT JUMPDEST PUSH4 0x4E487B71 PUSH1 0xE0 SHL PUSH1 0x0 MSTORE PUSH1 0x41 PUSH1 0x4 MSTORE PUSH1 0x24 PUSH1 0x0 REVERT JUMPDEST MLOAD SWAP1 PUSH1 0x1 PUSH1 0x1 PUSH1 0xA0 SHL SUB DUP3 AND DUP3 SUB PUSH3 0xF5 JUMPI JUMP JUMPDEST PUSH1 0x1 PUSH1 0x1 PUSH1 0xA0 SHL SUB AND PUSH1 0x0 DUP2 DUP2 MSTORE PUSH32 0xAD3228B676F7D3CD4284A5443F17F1962B36E491B30A40B2405849E597BA5FB5 PUSH1 0x20 MSTORE PUSH1 0x40 DUP2 KECCAK256 SLOAD SWAP1 SWAP2 SWAP1 PUSH1 0xFF AND PUSH3 0x1B2 JUMPI DUP2 DUP1 MSTORE DUP2 PUSH1 0x20 MSTORE PUSH1 0x40 DUP3 KECCAK256 DUP2 DUP4 MSTORE PUSH1 0x20 MSTORE PUSH1 0x40 DUP3 KECCAK256 PUSH1 0x1 PUSH1 0xFF NOT DUP3 SLOAD AND OR SWAP1 SSTORE CALLER SWAP2 PUSH32 0x2F8788117E7EFF1D82E926EC794901D17C78024A50270940304540A733656F0D DUP2 DUP1 LOG4 PUSH1 0x1 SWAP1 JUMP JUMPDEST POP SWAP1 JUMP INVALID PUSH2 0x240 PUSH1 0x40 MSTORE PUSH1 0x4 CALLDATASIZE LT ISZERO PUSH2 0x13 JUMPI PUSH1 0x0 DUP1 REVERT JUMPDEST PUSH1 0x0 DUP1 CALLDATALOAD PUSH1 0xE0 SHR DUP1 PUSH4 0x1D0D5B8 EQ PUSH2 0x3D51 JUMPI DUP1 PUSH4 0x1FFC9A7 EQ PUSH2 0x3CFA JUMPI DUP1 PUSH4 0x20E3DBD4 EQ PUSH2 0x3CB0 JUMPI DUP1 PUSH4 0x248A9CA3 EQ PUSH2 0x3C84 JUMPI DUP1 PUSH4 0x2A58B330 EQ PUSH2 0x3C66 JUMPI DUP1 PUSH4 0x2F2FF15D EQ PUSH2 0x3C29 JUMPI DUP1 PUSH4 0x2F48AB7D EQ PUSH2 0x3C00 JUMPI DUP1 PUSH4 0x3280890B EQ PUSH2 0x38AD JUMPI DUP1 PUSH4 0x36568ABE EQ PUSH2 0x3865 JUMPI DUP1 PUSH4 0x3F4BA83A EQ PUSH2 0x37FA JUMPI DUP1 PUSH4 0x4500CB60 EQ PUSH2 0x37B2 JUMPI DUP1 PUSH4 0x45CB4505 EQ PUSH2 0x375C JUMPI DUP1 PUSH4 0x46F8226C EQ PUSH2 0x3581 JUMPI DUP1 PUSH4 0x4EFEF6AA EQ PUSH2 0x3563 JUMPI DUP1 PUSH4 0x5C975ABB EQ PUSH2 0x3540 JUMPI DUP1 PUSH4 0x5D7FFE7B EQ PUSH2 0x305F JUMPI DUP1 PUSH4 0x6AF58CFF EQ PUSH2 0x2DD1 JUMPI DUP1 PUSH4 0x6CA14389 EQ PUSH2 0x2CA5 JUMPI DUP1 PUSH4 0x6DBE7579 EQ PUSH2 0x2BDD JUMPI DUP1 PUSH4 0x7203A582 EQ PUSH2 0x2613 JUMPI DUP1 PUSH4 0x79502C55 EQ PUSH2 0x25E6 JUMPI DUP1 PUSH4 0x7D900421 EQ PUSH2 0x2559 JUMPI DUP1 PUSH4 0x8456CB59 EQ PUSH2 0x24FE JUMPI DUP1 PUSH4 0x8A4ADF24 EQ PUSH2 0x24D5 JUMPI DUP1 PUSH4 0x8DF82800 EQ PUSH2 0x1FBF JUMPI DUP1 PUSH4 0x91D14854 EQ PUSH2 0x1F74 JUMPI DUP1 PUSH4 0x979B4E6D EQ PUSH2 0x154D JUMPI DUP1 PUSH4 0xA217FDDF EQ PUSH2 0x1531 JUMPI DUP1 PUSH4 0xA45F2EBC EQ PUSH2 0x14BE JUMPI DUP1 PUSH4 0xA61CF0D4 EQ PUSH2 0x142B JUMPI DUP1 PUSH4 0xA85C38EF EQ PUSH2 0x10D6 JUMPI DUP1 PUSH4 0xB543503E EQ PUSH2 0x1091 JUMPI DUP1 PUSH4 0xBC0EF26B EQ PUSH2 0xECD JUMPI DUP1 PUSH4 0xCF3FEC43 EQ PUSH2 0xE40 JUMPI DUP1 PUSH4 0xD049BFEF EQ PUSH2 0xBDB JUMPI DUP1 PUSH4 0xD09EF241 EQ PUSH2 0x6BE JUMPI DUP1 PUSH4 0xD1E745B1 EQ PUSH2 0x4CF JUMPI DUP1 PUSH4 0xD41194B8 EQ PUSH2 0x351 JUMPI DUP1 PUSH4 0xD547741F EQ PUSH2 0x310 JUMPI DUP1 PUSH4 0xE4CBAC40 EQ PUSH2 0x28D JUMPI PUSH4 0xF7FF6426 EQ PUSH2 0x1E1 JUMPI PUSH1 0x0 DUP1 REVERT JUMPDEST CALLVALUE PUSH2 0x28A JUMPI PUSH2 0x1EF CALLDATASIZE PUSH2 0x49C4 JUMP JUMPDEST SWAP1 DUP3 MSTORE PUSH1 0x8 PUSH1 0x20 MSTORE PUSH1 0x40 DUP3 KECCAK256 DUP1 SLOAD DUP3 LT ISZERO PUSH2 0x286 JUMPI PUSH2 0x20E SWAP3 POP PUSH2 0x49DA JUMP JUMPDEST POP DUP1 SLOAD SWAP1 PUSH2 0x282 PUSH1 0x1 DUP3 ADD SLOAD PUSH1 0x2 DUP4 ADD SLOAD SWAP3 PUSH1 0x3 DUP2 ADD SLOAD SWAP5 PUSH1 0x4 DUP3 ADD SLOAD SWAP3 PUSH1 0x5 DUP4 ADD SLOAD SWAP2 PUSH1 0x6 DUP5 ADD SLOAD SWAP1 PUSH1 0x7 DUP6 ADD SLOAD SWAP2 PUSH1 0x8 DUP7 ADD SLOAD SWAP5 PUSH1 0xFF PUSH1 0xA PUSH1 0x9 DUP10 ADD SLOAD SWAP9 ADD SLOAD AND SWAP8 PUSH1 0x40 MLOAD SWAP12 DUP13 SWAP12 DUP13 PUSH1 0xFF DUP9 PUSH1 0x10 SHR AND SWAP9 PUSH1 0xFF DUP1 DUP11 PUSH1 0x8 SHR AND SWAP10 AND SWAP8 PUSH1 0xFF DUP5 PUSH1 0xA0 SHR AND SWAP4 PUSH1 0x1 DUP1 PUSH1 0xA0 SHL SUB AND SWAP3 PUSH2 0x4783 JUMP JUMPDEST SUB SWAP1 RETURN JUMPDEST DUP3 DUP1 REVERT JUMPDEST DUP1 REVERT JUMPDEST POP CALLVALUE PUSH2 0x28A JUMPI PUSH1 0x20 DUP1 PUSH1 0x3 NOT CALLDATASIZE ADD SLT PUSH2 0x30C JUMPI PUSH1 0x1 PUSH1 0x1 PUSH1 0xA0 SHL SUB PUSH2 0x2B0 PUSH2 0x46D7 JUMP JUMPDEST AND DUP3 MSTORE PUSH1 0xB DUP2 MSTORE PUSH1 0x40 DUP3 KECCAK256 SWAP2 PUSH1 0x40 MLOAD DUP1 SWAP3 DUP1 DUP6 SLOAD SWAP3 DUP4 DUP2 MSTORE ADD SWAP5 DUP4 MSTORE DUP1 DUP4 KECCAK256 SWAP3 SWAP1 JUMPDEST DUP3 DUP3 LT PUSH2 0x2F5 JUMPI PUSH2 0x282 DUP6 PUSH2 0x2E9 DUP2 DUP10 SUB DUP3 PUSH2 0x48A8 JUMP JUMPDEST PUSH1 0x40 MLOAD SWAP2 DUP3 SWAP2 DUP3 PUSH2 0x4731 JUMP JUMPDEST DUP4 SLOAD DUP7 MSTORE SWAP5 DUP6 ADD SWAP5 PUSH1 0x1 SWAP4 DUP5 ADD SWAP4 SWAP1 SWAP2 ADD SWAP1 PUSH2 0x2D2 JUMP JUMPDEST POP DUP1 REVERT JUMPDEST POP CALLVALUE PUSH2 0x28A JUMPI PUSH1 0x40 CALLDATASIZE PUSH1 0x3 NOT ADD SLT PUSH2 0x28A JUMPI PUSH2 0x34D PUSH1 0x4 CALLDATALOAD PUSH2 0x330 PUSH2 0x46ED JUMP JUMPDEST SWAP1 DUP1 DUP5 MSTORE DUP4 PUSH1 0x20 MSTORE PUSH2 0x348 PUSH1 0x1 PUSH1 0x40 DUP7 KECCAK256 ADD SLOAD PUSH2 0x4A4E JUMP JUMPDEST PUSH2 0x4AF2 JUMP JUMPDEST POP DUP1 RETURN JUMPDEST POP CALLVALUE PUSH2 0x28A JUMPI PUSH2 0x360 CALLDATASIZE PUSH2 0x49C4 JUMP JUMPDEST SWAP1 DUP1 ISZERO ISZERO DUP1 PUSH2 0x4C4 JUMPI JUMPDEST PUSH2 0x373 SWAP1 PUSH2 0x4E94 JUMP JUMPDEST DUP1 DUP4 MSTORE PUSH1 0x7 PUSH1 0x20 MSTORE PUSH1 0x40 DUP4 KECCAK256 PUSH1 0x2 ADD SLOAD PUSH1 0x1 PUSH1 0x1 PUSH1 0xA0 SHL SUB SWAP3 SWAP1 PUSH2 0x39A SWAP1 DUP5 AND CALLER EQ PUSH2 0x4FEE JUMP JUMPDEST PUSH2 0x3A2 PUSH2 0x4DEC JUMP JUMPDEST PUSH2 0x3AA PUSH2 0x4DCE JUMP JUMPDEST DUP1 ISZERO PUSH2 0x473 JUMPI DUP2 DUP5 MSTORE PUSH1 0x7 PUSH1 0x20 MSTORE PUSH1 0x40 DUP5 KECCAK256 PUSH1 0xFF PUSH1 0x14 DUP3 ADD SLOAD PUSH1 0x10 SHR AND PUSH1 0xB DUP2 LT ISZERO PUSH2 0x45F JUMPI PUSH2 0x404 SWAP2 PUSH2 0x3E2 PUSH1 0x4 PUSH1 0xF SWAP4 EQ PUSH2 0x503A JUMP JUMPDEST ADD SWAP2 PUSH2 0x3FD DUP2 DUP5 SLOAD SWAP7 DUP1 PUSH1 0x4 SLOAD AND SWAP1 PUSH1 0x3 SLOAD AND SWAP1 CALLER SWAP1 PUSH2 0x4D27 JUMP JUMPDEST DUP3 SLOAD PUSH2 0x4E87 JUMP JUMPDEST DUP1 SWAP2 SSTORE PUSH1 0x40 MLOAD SWAP3 DUP4 MSTORE PUSH1 0x20 DUP4 ADD MSTORE PUSH1 0x80 PUSH1 0x40 DUP4 ADD MSTORE PUSH1 0x3 PUSH1 0x80 DUP4 ADD MSTORE PUSH3 0x185919 PUSH1 0xEA SHL PUSH1 0xA0 DUP4 ADD MSTORE TIMESTAMP PUSH1 0x60 DUP4 ADD MSTORE PUSH32 0x2CF5022BDD8FEFE86D09412967E028FA9A8CF1E1A3989D47DFD9FC64A22AFA86 PUSH1 0xC0 CALLER SWAP4 LOG3 PUSH1 0x1 DUP1 SSTORE DUP1 RETURN JUMPDEST PUSH4 0x4E487B71 PUSH1 0xE0 SHL DUP7 MSTORE PUSH1 0x21 PUSH1 0x4 MSTORE PUSH1 0x24 DUP7 REVERT JUMPDEST PUSH1 0x40 MLOAD PUSH3 0x461BCD PUSH1 0xE5 SHL DUP2 MSTORE PUSH1 0x20 PUSH1 0x4 DUP3 ADD MSTORE PUSH1 0x24 DUP1 DUP3 ADD MSTORE PUSH32 0x4F7074696F6E73436F72653A20616D6F756E74206D75737420626520706F7369 PUSH1 0x44 DUP3 ADD MSTORE PUSH4 0x74697665 PUSH1 0xE0 SHL PUSH1 0x64 DUP3 ADD MSTORE PUSH1 0x84 SWAP1 REVERT JUMPDEST POP PUSH1 0x5 SLOAD DUP2 LT PUSH2 0x36A JUMP JUMPDEST POP CALLVALUE PUSH2 0x28A JUMPI PUSH2 0x4DE CALLDATASIZE PUSH2 0x49C4 JUMP JUMPDEST SWAP1 DUP1 ISZERO ISZERO DUP1 PUSH2 0x6B3 JUMPI JUMPDEST PUSH2 0x4F1 SWAP1 PUSH2 0x4E94 JUMP JUMPDEST DUP1 DUP4 MSTORE PUSH1 0x7 PUSH1 0x20 MSTORE PUSH1 0x40 DUP4 KECCAK256 PUSH1 0x2 ADD SLOAD PUSH1 0x1 PUSH1 0x1 PUSH1 0xA0 SHL SUB SWAP1 PUSH2 0x517 SWAP1 DUP3 AND CALLER EQ PUSH2 0x4FEE JUMP JUMPDEST PUSH2 0x51F PUSH2 0x4DEC JUMP JUMPDEST PUSH2 0x527 PUSH2 0x4DCE JUMP JUMPDEST DUP2 DUP5 MSTORE PUSH1 0x7 PUSH1 0x20 MSTORE PUSH1 0x40 DUP5 KECCAK256 SWAP3 PUSH1 0xFF PUSH1 0x14 DUP6 ADD SLOAD PUSH1 0x10 SHR AND PUSH1 0xB DUP2 LT ISZERO PUSH2 0x45F JUMPI PUSH1 0x4 PUSH2 0x554 SWAP2 EQ PUSH2 0x503A JUMP JUMPDEST PUSH1 0xF DUP5 ADD SWAP2 PUSH2 0x569 PUSH1 0xE DUP5 SLOAD SWAP7 ADD SLOAD DUP7 PUSH2 0x5086 JUMP JUMPDEST DUP3 GT PUSH2 0x654 JUMPI DUP2 PUSH2 0x57B DUP8 SWAP4 DUP8 PUSH2 0x5086 JUMP JUMPDEST DUP5 SSTORE DUP2 PUSH1 0x3 SLOAD AND SWAP2 PUSH1 0x4 SLOAD AND SWAP1 DUP3 EXTCODESIZE ISZERO PUSH2 0x645 JUMPI PUSH1 0x40 MLOAD PUSH4 0x6924FAA7 PUSH1 0xE1 SHL DUP2 MSTORE CALLER PUSH1 0x4 DUP3 ADD MSTORE PUSH1 0x1 PUSH1 0x1 PUSH1 0xA0 SHL SUB SWAP3 SWAP1 SWAP3 AND PUSH1 0x24 DUP4 ADD MSTORE PUSH1 0x44 DUP3 ADD MSTORE SWAP1 DUP3 SWAP1 DUP3 SWAP1 PUSH1 0x64 SWAP1 DUP3 SWAP1 DUP5 SWAP1 GAS CALL DUP1 ISZERO PUSH2 0x649 JUMPI PUSH2 0x631 JUMPI JUMPDEST POP POP SLOAD PUSH1 0x40 MLOAD SWAP3 DUP4 MSTORE PUSH1 0x20 DUP4 ADD MSTORE PUSH1 0x80 PUSH1 0x40 DUP4 ADD MSTORE PUSH1 0x8 PUSH1 0x80 DUP4 ADD MSTORE PUSH8 0x7769746864726177 PUSH1 0xC0 SHL PUSH1 0xA0 DUP4 ADD MSTORE TIMESTAMP PUSH1 0x60 DUP4 ADD MSTORE PUSH32 0x2CF5022BDD8FEFE86D09412967E028FA9A8CF1E1A3989D47DFD9FC64A22AFA86 PUSH1 0xC0 CALLER SWAP4 LOG3 PUSH1 0x1 DUP1 SSTORE DUP1 RETURN JUMPDEST PUSH2 0x63A SWAP1 PUSH2 0x4847 JUMP JUMPDEST PUSH2 0x645 JUMPI DUP4 CODESIZE PUSH2 0x5D1 JUMP JUMPDEST DUP4 DUP1 REVERT JUMPDEST PUSH1 0x40 MLOAD RETURNDATASIZE DUP5 DUP3 RETURNDATACOPY RETURNDATASIZE SWAP1 REVERT JUMPDEST PUSH1 0x40 MLOAD PUSH3 0x461BCD PUSH1 0xE5 SHL DUP2 MSTORE PUSH1 0x20 PUSH1 0x4 DUP3 ADD MSTORE PUSH1 0x31 PUSH1 0x24 DUP3 ADD MSTORE PUSH32 0x4F7074696F6E73436F72653A2063616E6E6F742077697468647261772062656C PUSH1 0x44 DUP3 ADD MSTORE PUSH17 0x37BB9034B734BA34B0B61036B0B933B4B7 PUSH1 0x79 SHL PUSH1 0x64 DUP3 ADD MSTORE PUSH1 0x84 SWAP1 REVERT JUMPDEST POP PUSH1 0x5 SLOAD DUP2 LT PUSH2 0x4E8 JUMP JUMPDEST POP CALLVALUE PUSH2 0x28A JUMPI PUSH1 0x20 CALLDATASIZE PUSH1 0x3 NOT ADD SLT PUSH2 0x28A JUMPI DUP1 PUSH2 0x3E0 PUSH1 0x40 MLOAD PUSH2 0x6E0 DUP2 PUSH2 0x488C JUMP JUMPDEST DUP3 DUP2 MSTORE DUP3 PUSH1 0x20 DUP3 ADD MSTORE DUP3 PUSH1 0x40 DUP3 ADD MSTORE PUSH1 0x60 DUP1 DUP3 ADD MSTORE PUSH1 0x60 PUSH1 0x80 DUP3 ADD MSTORE PUSH1 0x60 PUSH1 0xA0 DUP3 ADD MSTORE PUSH1 0x60 PUSH1 0xC0 DUP3 ADD MSTORE PUSH1 0x60 PUSH1 0xE0 DUP3 ADD MSTORE DUP3 PUSH2 0x100 DUP3 ADD MSTORE DUP3 PUSH2 0x120 DUP3 ADD MSTORE DUP3 PUSH2 0x140 DUP3 ADD MSTORE DUP3 PUSH2 0x160 DUP3 ADD MSTORE DUP3 PUSH2 0x180 DUP3 ADD MSTORE DUP3 PUSH2 0x1A0 DUP3 ADD MSTORE DUP3 PUSH2 0x1C0 DUP3 ADD MSTORE DUP3 PUSH2 0x1E0 DUP3 ADD MSTORE DUP3 PUSH2 0x200 DUP3 ADD MSTORE DUP3 PUSH2 0x220 DUP3 ADD MSTORE DUP3 PUSH2 0x240 DUP3 ADD MSTORE DUP3 PUSH2 0x260 DUP3 ADD MSTORE DUP3 PUSH2 0x280 DUP3 ADD MSTORE DUP3 PUSH2 0x2A0 DUP3 ADD MSTORE DUP3 PUSH2 0x2C0 DUP3 ADD MSTORE DUP3 PUSH2 0x2E0 DUP3 ADD MSTORE DUP3 PUSH2 0x300 DUP3 ADD MSTORE DUP3 PUSH2 0x320 DUP3 ADD MSTORE DUP3 PUSH2 0x340 DUP3 ADD MSTORE DUP3 PUSH2 0x360 DUP3 ADD MSTORE DUP3 PUSH2 0x380 DUP3 ADD MSTORE DUP3 PUSH2 0x3A0 DUP3 ADD MSTORE DUP3 PUSH2 0x3C0 DUP3 ADD MSTORE ADD MSTORE PUSH1 0x4 CALLDATALOAD DUP2 MSTORE PUSH1 0x7 PUSH1 0x20 MSTORE PUSH1 0x40 DUP2 KECCAK256 PUSH1 0x40 MLOAD SWAP2 PUSH2 0x7CF DUP4 PUSH2 0x488C JUMP JUMPDEST DUP2 SLOAD DUP4 MSTORE PUSH1 0x1 DUP3 ADD SLOAD PUSH1 0x1 PUSH1 0x1 PUSH1 0xA0 SHL SUB SWAP1 DUP2 AND PUSH1 0x20 DUP6 ADD MSTORE PUSH1 0x2 DUP4 ADD SLOAD AND PUSH1 0x40 DUP5 ADD MSTORE PUSH2 0x7FF PUSH1 0x3 DUP4 ADD PUSH2 0x48C9 JUMP JUMPDEST PUSH1 0x60 DUP5 ADD MSTORE PUSH2 0x810 PUSH1 0x4 DUP4 ADD PUSH2 0x48C9 JUMP JUMPDEST PUSH1 0x80 DUP5 ADD MSTORE PUSH2 0x821 PUSH1 0x5 DUP4 ADD PUSH2 0x48C9 JUMP JUMPDEST PUSH1 0xA0 DUP5 ADD MSTORE PUSH2 0x832 PUSH1 0x6 DUP4 ADD PUSH2 0x48C9 JUMP JUMPDEST PUSH1 0xC0 DUP5 ADD MSTORE PUSH2 0x843 PUSH1 0x7 DUP4 ADD PUSH2 0x48C9 JUMP JUMPDEST PUSH1 0xE0 DUP5 ADD MSTORE PUSH1 0xFF PUSH1 0x8 DUP4 ADD SLOAD AND PUSH2 0x859 DUP2 PUSH2 0x49AD JUMP JUMPDEST PUSH2 0x100 DUP5 ADD MSTORE PUSH1 0x9 DUP3 ADD SLOAD PUSH2 0x120 DUP5 ADD MSTORE PUSH1 0xA DUP3 ADD SLOAD PUSH2 0x140 DUP5 ADD MSTORE PUSH1 0xB DUP3 ADD SLOAD PUSH2 0x160 DUP5 ADD MSTORE PUSH1 0xC DUP3 ADD SLOAD PUSH2 0x180 DUP5 ADD MSTORE PUSH1 0xD DUP3 ADD SLOAD PUSH2 0x1A0 DUP5 ADD MSTORE PUSH1 0xE DUP3 ADD SLOAD PUSH2 0x1C0 DUP5 ADD MSTORE PUSH1 0xF DUP3 ADD SLOAD PUSH2 0x1E0 DUP5 ADD MSTORE PUSH1 0x10 DUP3 ADD SLOAD PUSH2 0x200 DUP5 ADD MSTORE PUSH1 0x11 DUP3 ADD SLOAD PUSH2 0x8C8 PUSH1 0xFF DUP3 AND PUSH2 0x476C JUMP JUMPDEST PUSH1 0xFF DUP2 AND PUSH2 0x220 DUP6 ADD MSTORE PUSH1 0xFF DUP2 PUSH1 0x8 SHR AND PUSH2 0x240 DUP6 ADD MSTORE PUSH1 0xFF DUP2 PUSH1 0x10 SHR AND PUSH2 0x260 DUP6 ADD MSTORE PUSH1 0xFF DUP2 PUSH1 0x18 SHR AND PUSH2 0x280 DUP6 ADD MSTORE PUSH2 0x908 PUSH1 0xFF DUP3 PUSH1 0x20 SHR AND PUSH2 0x476C JUMP JUMPDEST PUSH1 0xFF DUP2 PUSH1 0x20 SHR AND PUSH2 0x2A0 DUP6 ADD MSTORE PUSH1 0x1 DUP1 PUSH1 0xA0 SHL SUB SWAP1 PUSH1 0x28 SHR AND PUSH2 0x2C0 DUP5 ADD MSTORE PUSH1 0x12 DUP3 ADD SLOAD PUSH2 0x2E0 DUP5 ADD MSTORE PUSH1 0x13 DUP3 ADD SLOAD PUSH2 0x300 DUP5 ADD MSTORE PUSH1 0x14 DUP3 ADD SLOAD SWAP1 PUSH1 0xFF DUP3 AND ISZERO ISZERO PUSH2 0x320 DUP6 ADD MSTORE PUSH2 0x95E PUSH1 0xFF DUP4 PUSH1 0x8 SHR AND PUSH2 0x49AD JUMP JUMPDEST PUSH1 0xFF DUP3 PUSH1 0x8 SHR AND PUSH2 0x340 DUP6 ADD MSTORE PUSH1 0xB PUSH1 0xFF DUP4 PUSH1 0x10 SHR AND LT ISZERO PUSH2 0xBC7 JUMPI POP SWAP1 PUSH1 0xFF PUSH1 0x18 SWAP3 PUSH1 0x10 SHR AND PUSH2 0x360 DUP5 ADD MSTORE PUSH1 0x15 DUP2 ADD SLOAD PUSH2 0x380 DUP5 ADD MSTORE PUSH1 0x16 DUP2 ADD SLOAD PUSH2 0x3A0 DUP5 ADD MSTORE PUSH1 0x17 DUP2 ADD SLOAD PUSH2 0x3C0 DUP5 ADD MSTORE ADD SLOAD PUSH2 0x3E0 DUP3 ADD MSTORE PUSH1 0x40 MLOAD DUP1 SWAP2 PUSH1 0x20 DUP3 MSTORE DUP1 MLOAD PUSH1 0x20 DUP4 ADD MSTORE PUSH1 0x1 DUP1 PUSH1 0xA0 SHL SUB PUSH1 0x20 DUP3 ADD MLOAD AND PUSH1 0x40 DUP4 ADD MSTORE PUSH1 0x1 DUP1 PUSH1 0xA0 SHL SUB PUSH1 0x40 DUP3 ADD MLOAD AND PUSH1 0x60 DUP4 ADD MSTORE PUSH2 0x3E0 PUSH2 0xA69 PUSH2 0xA09 PUSH1 0x60 DUP5 ADD MLOAD PUSH2 0x400 PUSH1 0x80 DUP8 ADD MSTORE PUSH2 0x420 DUP7 ADD SWAP1 PUSH2 0x496D JUMP JUMPDEST PUSH2 0xA53 PUSH2 0xA3F PUSH2 0xA2B PUSH1 0x80 DUP8 ADD MLOAD SWAP4 PUSH1 0x1F NOT SWAP5 DUP6 DUP11 DUP4 SUB ADD PUSH1 0xA0 DUP12 ADD MSTORE PUSH2 0x496D JUMP JUMPDEST PUSH1 0xA0 DUP8 ADD MLOAD DUP5 DUP10 DUP4 SUB ADD PUSH1 0xC0 DUP11 ADD MSTORE PUSH2 0x496D JUMP JUMPDEST PUSH1 0xC0 DUP7 ADD MLOAD DUP4 DUP9 DUP4 SUB ADD PUSH1 0xE0 DUP10 ADD MSTORE PUSH2 0x496D JUMP JUMPDEST SWAP1 PUSH1 0xE0 DUP6 ADD MLOAD SWAP1 DUP7 DUP4 SUB ADD PUSH2 0x100 DUP8 ADD MSTORE PUSH2 0x496D JUMP JUMPDEST SWAP2 PUSH2 0x100 DUP2 ADD MLOAD PUSH2 0xA79 DUP2 PUSH2 0x49AD JUMP JUMPDEST PUSH2 0x120 DUP6 ADD MSTORE PUSH2 0x120 DUP2 ADD MLOAD PUSH2 0x140 DUP6 ADD MSTORE PUSH2 0x140 DUP2 ADD MLOAD PUSH2 0x160 DUP6 ADD MSTORE PUSH2 0x160 DUP2 ADD MLOAD PUSH2 0x180 DUP6 ADD MSTORE PUSH2 0x180 DUP2 ADD MLOAD PUSH2 0x1A0 DUP6 ADD MSTORE PUSH2 0x1A0 DUP2 ADD MLOAD PUSH2 0x1C0 DUP6 ADD MSTORE PUSH2 0x1C0 DUP2 ADD MLOAD PUSH2 0x1E0 DUP6 ADD MSTORE PUSH2 0x1E0 DUP2 ADD MLOAD PUSH2 0x200 DUP6 ADD MSTORE PUSH2 0x200 DUP2 ADD MLOAD PUSH2 0x220 DUP6 ADD MSTORE PUSH2 0x220 DUP2 ADD MLOAD PUSH2 0xAEE DUP2 PUSH2 0x476C JUMP JUMPDEST PUSH2 0x240 DUP6 ADD MSTORE PUSH1 0xFF PUSH2 0x240 DUP3 ADD MLOAD AND PUSH2 0x260 DUP6 ADD MSTORE PUSH1 0xFF PUSH2 0x260 DUP3 ADD MLOAD AND PUSH2 0x280 DUP6 ADD MSTORE PUSH1 0xFF PUSH2 0x280 DUP3 ADD MLOAD AND PUSH2 0x2A0 DUP6 ADD MSTORE PUSH2 0x2A0 DUP2 ADD MLOAD PUSH2 0xB30 DUP2 PUSH2 0x476C JUMP JUMPDEST PUSH2 0x2C0 DUP6 ADD MSTORE PUSH1 0x1 DUP1 PUSH1 0xA0 SHL SUB PUSH2 0x2C0 DUP3 ADD MLOAD AND PUSH2 0x2E0 DUP6 ADD MSTORE PUSH2 0x2E0 DUP2 ADD MLOAD PUSH2 0x300 DUP6 ADD MSTORE PUSH2 0x300 DUP2 ADD MLOAD PUSH2 0x320 DUP6 ADD MSTORE PUSH2 0x320 DUP2 ADD MLOAD ISZERO ISZERO PUSH2 0x340 DUP6 ADD MSTORE PUSH2 0x340 DUP2 ADD MLOAD PUSH2 0xB7F DUP2 PUSH2 0x49AD JUMP JUMPDEST PUSH2 0x360 DUP6 ADD MSTORE PUSH2 0xB99 PUSH2 0x360 DUP3 ADD MLOAD PUSH2 0x380 DUP7 ADD SWAP1 PUSH2 0x49B7 JUMP JUMPDEST PUSH2 0x380 DUP2 ADD MLOAD PUSH2 0x3A0 DUP6 ADD MSTORE PUSH2 0x3A0 DUP2 ADD MLOAD PUSH2 0x3C0 DUP6 ADD MSTORE PUSH2 0x3C0 DUP2 ADD MLOAD DUP3 DUP6 ADD MSTORE ADD MLOAD PUSH2 0x400 DUP4 ADD MSTORE SUB SWAP1 RETURN JUMPDEST PUSH4 0x4E487B71 PUSH1 0xE0 SHL DUP2 MSTORE PUSH1 0x21 PUSH1 0x4 MSTORE PUSH1 0x24 SWAP1 REVERT JUMPDEST POP CALLVALUE PUSH2 0x28A JUMPI PUSH1 0x20 SWAP1 DUP2 PUSH1 0x3 NOT CALLDATASIZE ADD SLT PUSH2 0x28A JUMPI PUSH1 0x4 CALLDATALOAD DUP2 MSTORE PUSH1 0x8 DUP1 DUP4 MSTORE PUSH1 0x40 DUP3 KECCAK256 SWAP3 DUP4 SLOAD SWAP2 PUSH1 0x1 PUSH1 0x1 PUSH1 0x40 SHL SUB DUP4 GT PUSH2 0xE2C JUMPI SWAP2 DUP5 SWAP2 SWAP3 PUSH1 0x40 MLOAD SWAP2 PUSH1 0x5 PUSH2 0xC27 DUP7 DUP4 DUP4 SHL ADD DUP6 PUSH2 0x48A8 JUMP JUMPDEST DUP2 DUP5 MSTORE DUP6 DUP5 ADD DUP1 SWAP6 DUP9 MSTORE DUP7 DUP9 KECCAK256 SWAP2 DUP9 SWAP2 JUMPDEST DUP5 DUP4 LT PUSH2 0xD34 JUMPI POP POP POP POP POP POP PUSH1 0x40 MLOAD SWAP3 DUP1 DUP5 ADD SWAP2 DUP2 DUP6 MSTORE MLOAD DUP1 SWAP3 MSTORE PUSH1 0x40 DUP5 ADD SWAP3 SWAP5 JUMPDEST DUP3 DUP2 LT PUSH2 0xC68 JUMPI DUP5 DUP5 SUB DUP6 RETURN JUMPDEST SWAP1 SWAP2 SWAP3 DUP3 PUSH2 0x1C0 PUSH1 0x1 SWAP3 PUSH2 0xD25 DUP10 MLOAD DUP1 MLOAD DUP4 MSTORE DUP5 DUP2 ADD MLOAD DUP6 DUP5 ADD MSTORE DUP6 DUP1 PUSH1 0xA0 SHL SUB PUSH1 0x40 DUP3 ADD MLOAD AND PUSH1 0x40 DUP5 ADD MSTORE PUSH1 0x60 DUP1 DUP3 ADD MLOAD SWAP1 PUSH2 0xCA4 DUP3 PUSH2 0x476C JUMP JUMPDEST DUP5 ADD MSTORE PUSH1 0x80 DUP1 DUP3 ADD MLOAD SWAP1 DUP5 ADD MSTORE PUSH1 0xA0 DUP1 DUP3 ADD MLOAD SWAP1 DUP5 ADD MSTORE PUSH1 0xC0 DUP1 DUP3 ADD MLOAD SWAP1 DUP5 ADD MSTORE PUSH1 0xE0 DUP2 ADD MLOAD PUSH1 0xE0 DUP5 ADD MSTORE PUSH2 0x100 DUP1 DUP3 ADD MLOAD SWAP1 PUSH2 0xCE0 DUP3 PUSH2 0x476C JUMP JUMPDEST DUP5 ADD MSTORE PUSH1 0xFF PUSH2 0x120 DUP2 DUP2 DUP5 ADD MLOAD AND SWAP1 DUP6 ADD MSTORE PUSH2 0x140 SWAP1 DUP2 DUP4 ADD MLOAD AND SWAP1 DUP5 ADD MSTORE PUSH2 0x160 DUP1 DUP3 ADD MLOAD SWAP1 DUP5 ADD MSTORE PUSH2 0x180 DUP1 DUP3 ADD MLOAD SWAP1 DUP5 ADD MSTORE PUSH2 0x1A0 DUP1 SWAP2 ADD MLOAD SWAP1 DUP4 ADD SWAP1 PUSH2 0x4776 JUMP JUMPDEST ADD SWAP7 ADD SWAP2 ADD SWAP5 SWAP3 SWAP2 SWAP1 SWAP5 PUSH2 0xC5B JUMP JUMPDEST PUSH1 0x40 SWAP10 SWAP9 SWAP7 SWAP8 SWAP10 MLOAD PUSH2 0xD45 DUP2 PUSH2 0x4870 JUMP JUMPDEST DUP5 SLOAD DUP2 MSTORE PUSH1 0x1 DUP6 ADD SLOAD DUP9 DUP3 ADD MSTORE PUSH1 0x2 DUP6 ADD SLOAD PUSH1 0x1 PUSH1 0x1 PUSH1 0xA0 SHL SUB DUP2 AND PUSH1 0x40 DUP4 ADD MSTORE PUSH1 0xFF SWAP1 PUSH1 0xA0 SWAP1 DUP2 SHR DUP3 AND PUSH2 0xD79 DUP2 PUSH2 0x476C JUMP JUMPDEST PUSH1 0x60 DUP5 ADD MSTORE PUSH1 0x3 DUP8 ADD SLOAD PUSH1 0x80 DUP5 ADD MSTORE PUSH1 0x4 DUP8 ADD SLOAD SWAP1 DUP4 ADD MSTORE DUP4 DUP7 ADD SLOAD PUSH1 0xC0 DUP4 ADD MSTORE PUSH1 0x6 DUP7 ADD SLOAD PUSH1 0xE0 DUP4 ADD MSTORE DUP1 PUSH1 0x7 DUP8 ADD SLOAD DUP2 DUP2 AND PUSH2 0xDB6 DUP2 PUSH2 0x476C JUMP JUMPDEST PUSH2 0x100 DUP6 ADD MSTORE DUP2 DUP2 DUP12 SHR AND PUSH2 0x120 DUP6 ADD MSTORE PUSH1 0x10 SHR AND PUSH2 0x140 DUP4 ADD MSTORE DUP8 DUP7 ADD SLOAD PUSH2 0x160 DUP4 ADD MSTORE PUSH1 0x9 DUP7 ADD SLOAD PUSH2 0x180 DUP4 ADD MSTORE PUSH1 0xA DUP7 ADD SLOAD AND PUSH1 0x4 DUP2 LT ISZERO PUSH2 0xE16 JUMPI PUSH1 0x1 SWAP3 DUP3 DUP11 SWAP3 PUSH2 0x1A0 PUSH1 0xB SWAP6 ADD MSTORE DUP2 MSTORE ADD SWAP5 ADD SWAP3 ADD SWAP2 SWAP3 SWAP9 SWAP7 SWAP6 SWAP8 SWAP9 PUSH2 0xC38 JUMP JUMPDEST PUSH4 0x4E487B71 PUSH1 0xE0 SHL PUSH1 0x0 MSTORE PUSH1 0x21 PUSH1 0x4 MSTORE PUSH1 0x24 PUSH1 0x0 REVERT JUMPDEST PUSH4 0x4E487B71 PUSH1 0xE0 SHL DUP5 MSTORE PUSH1 0x41 PUSH1 0x4 MSTORE PUSH1 0x24 DUP5 REVERT JUMPDEST POP CALLVALUE PUSH2 0x28A JUMPI PUSH1 0x20 DUP1 PUSH1 0x3 NOT CALLDATASIZE ADD SLT PUSH2 0x30C JUMPI PUSH1 0x4 CALLDATALOAD PUSH1 0x1 PUSH1 0x1 PUSH1 0x40 SHL SUB DUP2 GT PUSH2 0x286 JUMPI PUSH2 0xE73 DUP3 SWAP2 CALLDATASIZE SWAP1 PUSH1 0x4 ADD PUSH2 0x469A JUMP JUMPDEST SWAP2 SWAP1 DUP3 PUSH1 0x40 MLOAD SWAP4 DUP5 SWAP3 DUP4 CALLDATACOPY DUP2 ADD PUSH1 0xC DUP2 MSTORE SUB ADD SWAP1 KECCAK256 SWAP2 PUSH1 0x40 MLOAD DUP1 SWAP3 DUP1 DUP6 SLOAD SWAP3 DUP4 DUP2 MSTORE ADD SWAP5 DUP4 MSTORE DUP1 DUP4 KECCAK256 SWAP3 SWAP1 JUMPDEST DUP3 DUP3 LT PUSH2 0xEB6 JUMPI PUSH2 0x282 DUP6 PUSH2 0x2E9 DUP2 DUP10 SUB DUP3 PUSH2 0x48A8 JUMP JUMPDEST DUP4 SLOAD DUP7 MSTORE SWAP5 DUP6 ADD SWAP5 PUSH1 0x1 SWAP4 DUP5 ADD SWAP4 SWAP1 SWAP2 ADD SWAP1 PUSH2 0xE9F JUMP JUMPDEST POP CALLVALUE PUSH2 0x28A JUMPI PUSH1 0x20 DUP1 PUSH1 0x3 NOT CALLDATASIZE ADD SLT PUSH2 0x30C JUMPI PUSH1 0x4 CALLDATALOAD SWAP1 DUP2 ISZERO ISZERO DUP1 PUSH2 0x1086 JUMPI JUMPDEST PUSH2 0xEF6 SWAP1 PUSH2 0x4E94 JUMP JUMPDEST DUP2 DUP4 MSTORE PUSH1 0x7 DUP2 MSTORE PUSH2 0xF17 PUSH1 0x1 DUP1 PUSH1 0xA0 SHL SUB PUSH1 0x1 PUSH1 0x40 DUP7 KECCAK256 ADD SLOAD AND CALLER EQ PUSH2 0x4E0F JUMP JUMPDEST PUSH2 0xF1F PUSH2 0x4DEC JUMP JUMPDEST PUSH2 0xF27 PUSH2 0x4DCE JUMP JUMPDEST DUP2 DUP4 MSTORE PUSH1 0x7 DUP2 MSTORE PUSH1 0x14 PUSH1 0x40 DUP5 KECCAK256 ADD SWAP1 DUP2 SLOAD SWAP2 PUSH1 0xFF DUP4 PUSH1 0x10 SHR AND SWAP3 PUSH1 0xB DUP5 LT ISZERO PUSH2 0x45F JUMPI DUP4 ISZERO DUP1 ISZERO PUSH2 0x107C JUMPI JUMPDEST ISZERO PUSH2 0x1028 JUMPI SWAP2 PUSH1 0xA SWAP2 PUSH3 0xA0000 PUSH1 0x0 DUP1 MLOAD PUSH1 0x20 PUSH2 0x50A5 DUP4 CODECOPY DUP2 MLOAD SWAP2 MSTORE SWAP6 SWAP5 PUSH3 0xFF0000 NOT AND OR SWAP1 SSTORE DUP5 PUSH32 0xB848A62EF7171019D243ED8F5B8E1E6C32CAFED0B7FC99DA26CB2FC2E7D533EC PUSH1 0x40 MLOAD PUSH1 0x40 DUP2 MSTORE DUP1 PUSH2 0xFCE PUSH1 0x40 DUP3 ADD PUSH1 0x40 SWAP1 PUSH1 0xF DUP2 MSTORE PUSH15 0x189D5E595C8818D85B98D95B1B1959 PUSH1 0x8A SHL PUSH1 0x20 DUP3 ADD MSTORE ADD SWAP1 JUMP JUMPDEST TIMESTAMP DUP7 DUP4 ADD MSTORE SUB SWAP1 LOG2 PUSH2 0xFE3 PUSH1 0x40 MLOAD DUP1 SWAP5 PUSH2 0x49B7 JUMP JUMPDEST DUP3 ADD MSTORE PUSH1 0x80 PUSH1 0x40 DUP3 ADD MSTORE DUP1 PUSH2 0x1018 PUSH1 0x80 DUP3 ADD PUSH1 0x40 SWAP1 PUSH1 0xF DUP2 MSTORE PUSH15 0x189D5E595C8818D85B98D95B1B1959 PUSH1 0x8A SHL PUSH1 0x20 DUP3 ADD MSTORE ADD SWAP1 JUMP JUMPDEST TIMESTAMP PUSH1 0x60 DUP4 ADD MSTORE SUB SWAP1 LOG2 PUSH1 0x1 DUP1 SSTORE DUP1 RETURN JUMPDEST PUSH1 0x40 MLOAD PUSH3 0x461BCD PUSH1 0xE5 SHL DUP2 MSTORE PUSH1 0x4 DUP2 ADD DUP5 SWAP1 MSTORE PUSH1 0x26 PUSH1 0x24 DUP3 ADD MSTORE PUSH32 0x4F7074696F6E73436F72653A2063616E6E6F742063616E63656C206166746572 PUSH1 0x44 DUP3 ADD MSTORE PUSH6 0x40DAC2E8C6D PUSH1 0xD3 SHL PUSH1 0x64 DUP3 ADD MSTORE PUSH1 0x84 SWAP1 REVERT JUMPDEST POP PUSH1 0x1 DUP5 EQ PUSH2 0xF53 JUMP JUMPDEST POP PUSH1 0x5 SLOAD DUP3 LT PUSH2 0xEED JUMP JUMPDEST POP CALLVALUE PUSH2 0x28A JUMPI PUSH1 0x20 CALLDATASIZE PUSH1 0x3 NOT ADD SLT PUSH2 0x28A JUMPI PUSH2 0x10AB PUSH2 0x46D7 JUMP JUMPDEST PUSH2 0x10B3 PUSH2 0x49F6 JUMP JUMPDEST PUSH1 0x1 DUP1 PUSH1 0xA0 SHL SUB AND PUSH12 0xFFFFFFFFFFFFFFFFFFFFFFFF PUSH1 0xA0 SHL PUSH1 0x3 SLOAD AND OR PUSH1 0x3 SSTORE DUP1 RETURN JUMPDEST POP CALLVALUE PUSH2 0x28A JUMPI PUSH1 0x20 CALLDATASIZE PUSH1 0x3 NOT ADD SLT PUSH2 0x28A JUMPI PUSH1 0x4 CALLDATALOAD DUP2 MSTORE PUSH1 0x7 PUSH1 0x20 MSTORE PUSH1 0x40 SWAP1 KECCAK256 PUSH2 0x200 DUP2 SWAP1 MSTORE DUP1 SLOAD PUSH1 0xC0 MSTORE PUSH1 0x1 DUP2 ADD SLOAD PUSH1 0x2 DUP3 ADD SLOAD PUSH1 0x1 PUSH1 0x1 PUSH1 0xA0 SHL SUB SWAP1 DUP2 AND PUSH2 0x160 MSTORE AND SWAP1 PUSH2 0x1128 SWAP1 PUSH1 0x3 ADD PUSH2 0x48C9 JUMP JUMPDEST PUSH2 0x1C0 MSTORE PUSH2 0x200 MLOAD PUSH1 0x4 ADD PUSH2 0x113C SWAP1 PUSH2 0x48C9 JUMP JUMPDEST PUSH2 0x200 MLOAD PUSH1 0x5 ADD PUSH2 0x114C SWAP1 PUSH2 0x48C9 JUMP JUMPDEST SWAP2 PUSH2 0x200 MLOAD PUSH1 0x6 ADD PUSH2 0x115D SWAP1 PUSH2 0x48C9 JUMP JUMPDEST SWAP2 PUSH2 0x200 MLOAD PUSH1 0x7 ADD PUSH2 0x116E SWAP1 PUSH2 0x48C9 JUMP JUMPDEST SWAP4 PUSH2 0x200 MLOAD SWAP4 PUSH1 0x8 DUP6 ADD SLOAD PUSH1 0xFF AND PUSH1 0xE0 MSTORE PUSH1 0x9 DUP6 ADD SLOAD SWAP6 PUSH1 0xA DUP7 ADD SLOAD PUSH1 0xB DUP8 ADD SLOAD SWAP2 PUSH1 0xC DUP9 ADD SLOAD SWAP4 PUSH1 0xD DUP10 ADD SLOAD SWAP6 PUSH1 0xE DUP11 ADD SLOAD SWAP8 PUSH1 0xF DUP12 ADD SLOAD SWAP10 PUSH1 0x10 DUP13 ADD SLOAD SWAP12 PUSH1 0x11 DUP2 ADD SLOAD PUSH2 0x1E0 MSTORE PUSH1 0x12 DUP2 ADD SLOAD PUSH2 0x220 MSTORE PUSH1 0x13 DUP2 ADD SLOAD PUSH1 0xA0 MSTORE PUSH1 0x14 DUP2 ADD SLOAD PUSH2 0x140 MSTORE PUSH1 0x15 DUP2 ADD SLOAD PUSH2 0x100 MSTORE PUSH1 0x16 DUP2 ADD SLOAD PUSH1 0x80 MSTORE PUSH1 0x17 DUP2 ADD SLOAD PUSH2 0x1A0 MSTORE PUSH1 0x18 ADD SLOAD PUSH2 0x180 MSTORE PUSH1 0x40 MLOAD DUP1 PUSH2 0x120 MSTORE PUSH1 0xC0 MLOAD SWAP1 MSTORE PUSH2 0x120 MLOAD PUSH1 0x20 ADD MSTORE PUSH2 0x160 MLOAD PUSH2 0x120 MLOAD PUSH1 0x40 ADD MSTORE PUSH2 0x400 DUP1 PUSH2 0x120 MLOAD PUSH1 0x60 ADD MSTORE PUSH2 0x120 MLOAD ADD PUSH2 0x1C0 MLOAD SWAP1 PUSH2 0x1233 SWAP2 PUSH2 0x496D JUMP JUMPDEST PUSH2 0x120 MLOAD DUP1 DUP3 SUB SWAP1 PUSH1 0x80 ADD MSTORE PUSH2 0x1248 SWAP2 PUSH2 0x496D JUMP JUMPDEST PUSH2 0x120 MLOAD DUP1 DUP3 SUB SWAP1 PUSH1 0xA0 ADD MSTORE PUSH2 0x125D SWAP2 PUSH2 0x496D JUMP JUMPDEST PUSH2 0x120 MLOAD DUP1 DUP3 SUB SWAP1 PUSH1 0xC0 ADD MSTORE PUSH2 0x1272 SWAP2 PUSH2 0x496D JUMP JUMPDEST PUSH2 0x120 MLOAD DUP1 DUP3 SUB SWAP1 PUSH1 0xE0 ADD MSTORE PUSH2 0x1287 SWAP2 PUSH2 0x496D JUMP JUMPDEST SWAP8 PUSH1 0xE0 MLOAD PUSH2 0x1294 SWAP1 PUSH2 0x49AD JUMP JUMPDEST PUSH1 0xE0 MLOAD PUSH2 0x120 MLOAD PUSH2 0x100 ADD MSTORE PUSH2 0x120 MLOAD PUSH2 0x120 ADD MSTORE PUSH2 0x120 MLOAD PUSH2 0x140 ADD MSTORE PUSH2 0x120 MLOAD PUSH2 0x160 ADD MSTORE PUSH2 0x120 MLOAD PUSH2 0x180 ADD MSTORE PUSH2 0x120 MLOAD PUSH2 0x1A0 ADD MSTORE PUSH2 0x120 MLOAD PUSH2 0x1C0 ADD MSTORE PUSH2 0x120 MLOAD PUSH2 0x1E0 ADD MSTORE PUSH2 0x120 MLOAD PUSH2 0x200 ADD MSTORE PUSH2 0x1E0 MLOAD PUSH1 0xFF AND PUSH2 0x12F8 SWAP1 PUSH2 0x476C JUMP JUMPDEST PUSH2 0x1E0 MLOAD PUSH1 0xFF AND PUSH2 0x120 MLOAD PUSH2 0x220 ADD MSTORE PUSH2 0x1E0 MLOAD PUSH1 0x8 SHR PUSH1 0xFF AND PUSH2 0x120 MLOAD PUSH2 0x240 ADD MSTORE PUSH2 0x1E0 MLOAD PUSH1 0x10 SHR PUSH1 0xFF AND PUSH2 0x120 MLOAD PUSH2 0x260 ADD MSTORE PUSH2 0x1E0 MLOAD PUSH1 0x18 SHR PUSH1 0xFF AND PUSH2 0x120 MLOAD PUSH2 0x280 ADD MSTORE PUSH2 0x1E0 MLOAD PUSH1 0x20 SHR PUSH1 0xFF AND PUSH2 0x1354 SWAP1 PUSH2 0x476C JUMP JUMPDEST PUSH2 0x1E0 MLOAD PUSH1 0x20 SHR PUSH1 0xFF AND PUSH2 0x120 MLOAD PUSH2 0x2A0 ADD MSTORE PUSH1 0x1 PUSH1 0xA0 SHL PUSH1 0x1 SWAP1 SUB PUSH2 0x1E0 MLOAD PUSH1 0x28 SHR AND PUSH2 0x120 MLOAD PUSH2 0x2C0 ADD MSTORE PUSH2 0x220 MLOAD PUSH2 0x120 MLOAD PUSH2 0x2E0 ADD MSTORE PUSH1 0xA0 MLOAD PUSH2 0x120 MLOAD PUSH2 0x300 ADD MSTORE PUSH2 0x140 MLOAD PUSH1 0xFF AND ISZERO ISZERO PUSH2 0x120 MLOAD PUSH2 0x320 ADD MSTORE PUSH2 0x140 MLOAD PUSH1 0x8 SHR PUSH1 0xFF AND PUSH2 0x13BF SWAP1 PUSH2 0x49AD JUMP JUMPDEST PUSH2 0x140 MLOAD PUSH1 0x8 SHR PUSH1 0xFF AND PUSH2 0x120 MLOAD PUSH2 0x340 ADD MSTORE PUSH2 0x120 MLOAD PUSH2 0x360 ADD PUSH2 0x140 MLOAD PUSH1 0x10 SHR PUSH1 0xFF AND SWAP1 PUSH2 0x13EE SWAP2 PUSH2 0x49B7 JUMP JUMPDEST PUSH2 0x100 MLOAD PUSH2 0x120 MLOAD PUSH2 0x380 ADD MSTORE PUSH1 0x80 MLOAD PUSH2 0x120 MLOAD PUSH2 0x3A0 ADD MSTORE PUSH2 0x1A0 MLOAD PUSH2 0x120 MLOAD PUSH2 0x3C0 ADD MSTORE PUSH2 0x180 MLOAD PUSH2 0x120 MLOAD PUSH2 0x3E0 ADD MSTORE PUSH2 0x120 MLOAD DUP1 SWAP2 SUB SWAP1 RETURN JUMPDEST POP CALLVALUE PUSH2 0x28A JUMPI PUSH1 0x20 CALLDATASIZE PUSH1 0x3 NOT ADD SLT PUSH2 0x28A JUMPI PUSH1 0x40 SWAP1 PUSH1 0x4 CALLDATALOAD DUP2 MSTORE PUSH1 0x9 PUSH1 0x20 MSTORE KECCAK256 DUP1 SLOAD SWAP1 PUSH2 0x282 PUSH1 0x1 DUP3 ADD SLOAD PUSH1 0x2 DUP4 ADD SLOAD SWAP3 PUSH1 0x3 DUP2 ADD SLOAD SWAP5 PUSH1 0x4 DUP3 ADD SLOAD SWAP3 PUSH1 0x5 DUP4 ADD SLOAD SWAP2 PUSH1 0x6 DUP5 ADD SLOAD SWAP1 PUSH1 0x7 DUP6 ADD SLOAD SWAP2 PUSH1 0x8 DUP7 ADD SLOAD SWAP5 PUSH1 0xFF PUSH1 0xA PUSH1 0x9 DUP10 ADD SLOAD SWAP9 ADD SLOAD AND SWAP8 PUSH1 0x40 MLOAD SWAP12 DUP13 SWAP12 DUP13 PUSH1 0xFF DUP9 PUSH1 0x10 SHR AND SWAP9 PUSH1 0xFF DUP1 DUP11 PUSH1 0x8 SHR AND SWAP10 AND SWAP8 PUSH1 0xFF DUP5 PUSH1 0xA0 SHR AND SWAP4 PUSH1 0x1 DUP1 PUSH1 0xA0 SHL SUB AND SWAP3 PUSH2 0x4783 JUMP JUMPDEST POP CALLVALUE PUSH2 0x28A JUMPI PUSH1 0x20 DUP1 PUSH1 0x3 NOT CALLDATASIZE ADD SLT PUSH2 0x30C JUMPI PUSH1 0x1 PUSH1 0x1 PUSH1 0xA0 SHL SUB PUSH2 0x14E1 PUSH2 0x46D7 JUMP JUMPDEST AND DUP3 MSTORE PUSH1 0xA DUP2 MSTORE PUSH1 0x40 DUP3 KECCAK256 SWAP2 PUSH1 0x40 MLOAD DUP1 SWAP3 DUP1 DUP6 SLOAD SWAP3 DUP4 DUP2 MSTORE ADD SWAP5 DUP4 MSTORE DUP1 DUP4 KECCAK256 SWAP3 SWAP1 JUMPDEST DUP3 DUP3 LT PUSH2 0x151A JUMPI PUSH2 0x282 DUP6 PUSH2 0x2E9 DUP2 DUP10 SUB DUP3 PUSH2 0x48A8 JUMP JUMPDEST DUP4 SLOAD DUP7 MSTORE SWAP5 DUP6 ADD SWAP5 PUSH1 0x1 SWAP4 DUP5 ADD SWAP4 SWAP1 SWAP2 ADD SWAP1 PUSH2 0x1503 JUMP JUMPDEST POP CALLVALUE PUSH2 0x28A JUMPI DUP1 PUSH1 0x3 NOT CALLDATASIZE ADD SLT PUSH2 0x28A JUMPI PUSH1 0x20 SWAP1 PUSH1 0x40 MLOAD SWAP1 DUP2 MSTORE RETURN JUMPDEST POP CALLVALUE PUSH2 0x28A JUMPI PUSH2 0x260 CALLDATASIZE PUSH1 0x3 NOT ADD SLT PUSH2 0x28A JUMPI PUSH1 0x4 CALLDATALOAD PUSH1 0x1 PUSH1 0x1 PUSH1 0x40 SHL SUB DUP2 GT PUSH2 0x30C JUMPI PUSH2 0x157F SWAP1 CALLDATASIZE SWAP1 PUSH1 0x4 ADD PUSH2 0x469A JUMP JUMPDEST PUSH1 0x24 CALLDATALOAD PUSH1 0x1 PUSH1 0x1 PUSH1 0x40 SHL SUB DUP2 GT PUSH2 0x645 JUMPI PUSH2 0x159E SWAP1 CALLDATASIZE SWAP1 PUSH1 0x4 ADD PUSH2 0x469A JUMP JUMPDEST SWAP1 PUSH1 0x44 CALLDATALOAD PUSH1 0x1 PUSH1 0x1 PUSH1 0x40 SHL SUB DUP2 GT PUSH2 0x1F70 JUMPI PUSH2 0x15BE SWAP1 CALLDATASIZE SWAP1 PUSH1 0x4 ADD PUSH2 0x469A JUMP JUMPDEST SWAP1 PUSH1 0x64 CALLDATALOAD PUSH1 0x1 PUSH1 0x1 PUSH1 0x40 SHL SUB DUP2 GT PUSH2 0x1F6C JUMPI PUSH2 0x15DE SWAP1 CALLDATASIZE SWAP1 PUSH1 0x4 ADD PUSH2 0x469A JUMP JUMPDEST SWAP1 PUSH1 0x84 CALLDATALOAD PUSH1 0x1 PUSH1 0x1 PUSH1 0x40 SHL SUB DUP2 GT PUSH2 0x1F68 JUMPI PUSH2 0x15FE SWAP1 CALLDATASIZE SWAP1 PUSH1 0x4 ADD PUSH2 0x469A JUMP JUMPDEST SWAP10 SWAP1 SWAP9 PUSH1 0x2 PUSH1 0xA4 CALLDATALOAD LT ISZERO PUSH2 0x30C JUMPI PUSH1 0x3 PUSH2 0x144 CALLDATALOAD LT ISZERO PUSH2 0x30C JUMPI PUSH2 0x164 CALLDATALOAD PUSH1 0x1 PUSH1 0x1 PUSH1 0xA0 SHL SUB DUP2 AND SWAP1 SUB PUSH2 0x1F0F JUMPI PUSH2 0x1634 PUSH2 0x46C7 JUMP JUMPDEST PUSH1 0x3 PUSH2 0x1E4 CALLDATALOAD LT ISZERO PUSH2 0x286 JUMPI PUSH1 0xFF PUSH2 0x204 CALLDATALOAD AND PUSH2 0x204 CALLDATALOAD SUB PUSH2 0x1F0F JUMPI PUSH1 0xFF PUSH2 0x224 CALLDATALOAD AND PUSH2 0x224 CALLDATALOAD SUB PUSH2 0x1F0F JUMPI PUSH1 0x2 PUSH2 0x244 CALLDATALOAD LT ISZERO PUSH2 0x286 JUMPI PUSH2 0x1674 PUSH2 0x4DEC JUMP JUMPDEST PUSH2 0x167C PUSH2 0x4DCE JUMP JUMPDEST PUSH2 0x1689 PUSH1 0xC4 CALLDATALOAD ISZERO ISZERO PUSH2 0x4B67 JUMP JUMPDEST PUSH2 0x1696 TIMESTAMP PUSH1 0xE4 CALLDATALOAD GT PUSH2 0x4BC2 JUMP JUMPDEST PUSH1 0x2 SLOAD PUSH1 0x40 MLOAD PUSH4 0x5D8EB687 PUSH1 0xE0 SHL DUP2 MSTORE SWAP1 PUSH1 0x8 SHR PUSH1 0x1 PUSH1 0x1 PUSH1 0xA0 SHL SUB AND PUSH1 0x20 DUP3 PUSH1 0x4 DUP2 DUP5 GAS STATICCALL SWAP2 DUP3 ISZERO PUSH2 0x1F5D JUMPI DUP6 SWAP3 PUSH2 0x1F27 JUMPI JUMPDEST POP PUSH2 0x16DC PUSH1 0x4 SWAP3 PUSH2 0x124 CALLDATALOAD LT ISZERO PUSH2 0x4C1C JUMP JUMPDEST DUP2 SLOAD PUSH1 0x3 SLOAD PUSH1 0x40 MLOAD PUSH4 0x37382D39 PUSH1 0xE2 SHL DUP2 MSTORE SWAP4 PUSH1 0x1 PUSH1 0x1 PUSH1 0xA0 SHL SUB SWAP3 DUP4 AND SWAP4 SWAP3 SWAP1 SWAP2 AND SWAP2 PUSH1 0x20 SWAP2 DUP6 SWAP2 DUP3 SWAP1 GAS STATICCALL SWAP2 DUP3 ISZERO PUSH2 0x1F1C JUMPI DUP7 SWAP3 PUSH2 0x1EE1 JUMPI JUMPDEST PUSH2 0x1723 SWAP4 POP CALLER SWAP1 PUSH2 0x4D27 JUMP JUMPDEST PUSH1 0x5 SLOAD SWAP10 PUSH2 0x1730 DUP12 PUSH2 0x4C67 JUMP JUMPDEST PUSH1 0x5 SSTORE DUP11 DUP5 MSTORE PUSH1 0x7 PUSH1 0x20 MSTORE PUSH1 0x40 DUP5 KECCAK256 DUP12 DUP2 SSTORE PUSH1 0x1 DUP2 ADD DUP1 SLOAD PUSH1 0x1 PUSH1 0x1 PUSH1 0xA0 SHL SUB NOT AND CALLER OR SWAP1 SSTORE SWAP3 PUSH1 0x1 PUSH1 0x1 PUSH1 0x40 SHL SUB DUP3 GT PUSH2 0x1ECD JUMPI DUP2 SWAP1 PUSH2 0x1774 PUSH1 0x3 DUP7 ADD SLOAD PUSH2 0x480D JUMP JUMPDEST PUSH1 0x1F DUP2 GT PUSH2 0x1E7C JUMPI JUMPDEST POP DUP6 SWAP1 PUSH1 0x1F DUP4 GT PUSH1 0x1 EQ PUSH2 0x1E10 JUMPI DUP7 SWAP3 PUSH2 0x1E05 JUMPI JUMPDEST POP POP DUP2 PUSH1 0x1 SHL SWAP2 PUSH1 0x0 NOT SWAP1 PUSH1 0x3 SHL SHR NOT AND OR PUSH1 0x3 DUP4 ADD SSTORE JUMPDEST PUSH1 0x1 PUSH1 0x1 PUSH1 0x40 SHL SUB DUP10 GT PUSH2 0x1BC1 JUMPI PUSH2 0x17C5 PUSH1 0x4 DUP4 ADD SLOAD PUSH2 0x480D JUMP JUMPDEST PUSH1 0x1F DUP2 GT PUSH2 0x1DC0 JUMPI JUMPDEST POP DUP9 DUP4 PUSH1 0x1F DUP3 GT PUSH1 0x1 EQ PUSH2 0x1D54 JUMPI DUP5 SWAP2 PUSH2 0x1D49 JUMPI JUMPDEST POP DUP10 PUSH1 0x1 SHL SWAP1 PUSH1 0x0 NOT DUP12 PUSH1 0x3 SHL SHR NOT AND OR PUSH1 0x4 DUP4 ADD SSTORE JUMPDEST PUSH1 0x1 PUSH1 0x1 PUSH1 0x40 SHL SUB DUP8 GT PUSH2 0x1BC1 JUMPI PUSH2 0x1815 PUSH1 0x5 DUP4 ADD SLOAD PUSH2 0x480D JUMP JUMPDEST PUSH1 0x1F DUP2 GT PUSH2 0x1D04 JUMPI JUMPDEST POP DUP7 DUP4 PUSH1 0x1F DUP3 GT PUSH1 0x1 EQ PUSH2 0x1C9A JUMPI DUP5 SWAP2 PUSH2 0x1C8F JUMPI JUMPDEST POP DUP8 PUSH1 0x1 SHL SWAP1 PUSH1 0x0 NOT DUP10 PUSH1 0x3 SHL SHR NOT AND OR PUSH1 0x5 DUP4 ADD SSTORE JUMPDEST PUSH1 0x1 PUSH1 0x1 PUSH1 0x40 SHL SUB DUP6 GT PUSH2 0x1BC1 JUMPI PUSH2 0x1865 PUSH1 0x6 DUP4 ADD SLOAD PUSH2 0x480D JUMP JUMPDEST PUSH1 0x1F DUP2 GT PUSH2 0x1C4A JUMPI JUMPDEST POP DUP5 DUP4 PUSH1 0x1F DUP3 GT PUSH1 0x1 EQ PUSH2 0x1BE0 JUMPI DUP5 SWAP2 PUSH2 0x1BD5 JUMPI JUMPDEST POP DUP6 PUSH1 0x1 SHL SWAP1 PUSH1 0x0 NOT DUP8 PUSH1 0x3 SHL SHR NOT AND OR PUSH1 0x6 DUP4 ADD SSTORE JUMPDEST PUSH1 0x1 PUSH1 0x1 PUSH1 0x40 SHL SUB DUP13 GT PUSH2 0x1BC1 JUMPI PUSH2 0x18B5 PUSH1 0x7 DUP4 ADD SLOAD PUSH2 0x480D JUMP JUMPDEST SWAP12 PUSH1 0x1F DUP14 GT PUSH2 0x1B78 JUMPI JUMPDEST PUSH1 0x20 SWAP13 POP DUP4 SWAP12 PUSH1 0x1F DUP3 GT PUSH1 0x1 EQ PUSH2 0x1AE5 JUMPI SWAP11 PUSH2 0x1A3F SWAP7 DUP15 DUP3 SWAP15 SWAP8 PUSH2 0x1A0F PUSH2 0x1A57 SWAP16 DUP6 SWAP16 SWAP15 SWAP13 SWAP8 DUP11 DUP6 SWAP16 SWAP12 SWAP11 PUSH1 0x40 SWAP3 DUP11 DUP11 SWAP16 SWAP12 PUSH2 0x1A27 SWAP13 DUP11 SWAP16 SWAP8 DUP14 SWAP9 SWAP3 PUSH2 0x1ADA JUMPI JUMPDEST POP POP DUP2 PUSH1 0x1 SHL SWAP2 PUSH1 0x0 NOT SWAP1 PUSH1 0x3 SHL SHR NOT AND OR PUSH1 0x7 DUP4 ADD SSTORE JUMPDEST PUSH2 0x1927 PUSH1 0xA4 CALLDATALOAD PUSH1 0x8 DUP5 ADD PUSH2 0x4C8C JUMP JUMPDEST PUSH1 0xC4 CALLDATALOAD PUSH1 0x9 DUP4 ADD SSTORE PUSH1 0xE4 CALLDATALOAD PUSH1 0xB DUP4 ADD SSTORE PUSH2 0x104 CALLDATALOAD PUSH1 0xC DUP4 ADD SSTORE PUSH2 0x124 CALLDATALOAD PUSH1 0x10 DUP4 ADD SSTORE PUSH2 0x19E5 PUSH1 0x11 DUP4 ADD PUSH2 0x195D PUSH2 0x144 CALLDATALOAD DUP3 PUSH2 0x4CA4 JUMP JUMPDEST DUP1 SLOAD PUSH6 0x10000000000 PUSH1 0x1 PUSH1 0xC8 SHL SUB NOT AND PUSH2 0x164 CALLDATALOAD PUSH1 0x28 SHL PUSH6 0x10000000000 PUSH1 0x1 PUSH1 0xC8 SHL SUB AND OR DUP2 SSTORE PUSH2 0x184 CALLDATALOAD PUSH1 0x12 DUP6 ADD SSTORE PUSH2 0x1A4 CALLDATALOAD PUSH1 0x13 DUP6 ADD SSTORE PUSH1 0x14 DUP5 ADD DUP1 SLOAD SWAP4 ISZERO ISZERO PUSH1 0xFF AND PUSH1 0xFF NOT SWAP5 SWAP1 SWAP5 AND SWAP4 SWAP1 SWAP4 OR DUP4 SSTORE PUSH2 0x19BE PUSH2 0x1E4 CALLDATALOAD DUP3 PUSH2 0x4CC9 JUMP JUMPDEST DUP1 SLOAD PUSH3 0xFF0000 PUSH2 0x224 CALLDATALOAD PUSH1 0x10 SHL AND PUSH3 0xFFFF00 NOT SWAP1 SWAP2 AND PUSH2 0xFF00 PUSH2 0x204 CALLDATALOAD PUSH1 0x8 SHL AND OR OR SWAP1 SSTORE JUMP JUMPDEST PUSH2 0x19F2 PUSH2 0x244 CALLDATALOAD DUP3 PUSH2 0x4CD3 JUMP JUMPDEST PUSH3 0xFF0000 NOT DUP2 SLOAD AND SWAP1 SSTORE PUSH1 0x15 TIMESTAMP SWAP2 ADD SSTORE CALLER DUP2 MSTORE PUSH1 0xA DUP7 MSTORE KECCAK256 PUSH2 0x4CF2 JUMP JUMPDEST DUP3 PUSH1 0x40 MLOAD SWAP4 DUP5 SWAP3 DUP4 CALLDATACOPY DUP2 ADD PUSH1 0xC DUP2 MSTORE SUB ADD SWAP1 KECCAK256 PUSH2 0x4CF2 JUMP JUMPDEST DUP3 PUSH1 0x40 MLOAD SWAP4 DUP5 SWAP3 DUP4 CALLDATACOPY DUP2 ADD PUSH1 0xD DUP2 MSTORE SUB ADD SWAP1 KECCAK256 PUSH2 0x4CF2 JUMP JUMPDEST DUP3 PUSH1 0x40 MLOAD SWAP4 DUP5 SWAP3 DUP4 CALLDATACOPY DUP2 ADD PUSH1 0xE DUP2 MSTORE SUB ADD SWAP1 KECCAK256 PUSH2 0x4CF2 JUMP JUMPDEST PUSH1 0x40 MLOAD PUSH1 0x1 DUP2 MSTORE TIMESTAMP DUP4 DUP3 ADD MSTORE DUP2 PUSH32 0xC0C6ED2669FEBBE340D8737E8EC17254FFD9E038B54A4585FF70AC3CA18956AA PUSH1 0x40 CALLER SWAP4 LOG3 DUP1 PUSH1 0x0 DUP1 MLOAD PUSH1 0x20 PUSH2 0x50A5 DUP4 CODECOPY DUP2 MLOAD SWAP2 MSTORE PUSH1 0xC0 PUSH1 0x40 MLOAD PUSH1 0x0 DUP2 MSTORE PUSH1 0x0 DUP7 DUP3 ADD MSTORE PUSH1 0x80 PUSH1 0x40 DUP3 ADD MSTORE PUSH1 0x7 PUSH1 0x80 DUP3 ADD MSTORE PUSH7 0x18DC99585D1959 PUSH1 0xCA SHL PUSH1 0xA0 DUP3 ADD MSTORE TIMESTAMP PUSH1 0x60 DUP3 ADD MSTORE LOG2 PUSH1 0x1 DUP1 SSTORE PUSH1 0x40 MLOAD SWAP1 DUP2 MSTORE RETURN JUMPDEST ADD CALLDATALOAD SWAP1 POP CODESIZE DUP1 PUSH2 0x1900 JUMP JUMPDEST PUSH1 0x7 DUP5 ADD DUP6 MSTORE DUP14 DUP6 KECCAK256 SWAP1 DUP6 SWAP14 DUP15 JUMPDEST PUSH1 0x1F NOT DUP6 AND GT PUSH2 0x1B60 JUMPI DUP16 SWAP11 SWAP7 DUP15 SWAP16 POP SWAP8 PUSH2 0x1A0F PUSH2 0x1A57 SWAP16 SWAP15 SWAP14 SWAP12 SWAP7 DUP16 SWAP11 PUSH1 0x40 SWAP1 DUP16 SWAP11 DUP14 SWAP9 SWAP4 PUSH2 0x1A3F SWAP16 SWAP9 DUP12 DUP12 SWAP7 DUP16 SWAP11 SWAP3 PUSH1 0x1 SWAP4 PUSH2 0x1A27 SWAP16 PUSH1 0x1F NOT DUP2 AND LT PUSH2 0x1B46 JUMPI JUMPDEST POP POP POP DUP2 SHL ADD PUSH1 0x7 DUP4 ADD SSTORE PUSH2 0x1918 JUMP JUMPDEST ADD CALLDATALOAD PUSH1 0x0 NOT PUSH1 0x3 DUP5 SWAP1 SHL PUSH1 0xF8 AND SHR NOT AND SWAP1 SSTORE CODESIZE DUP1 DUP1 PUSH2 0x1B36 JUMP JUMPDEST SWAP2 DUP16 PUSH1 0x1 DUP2 SWAP3 DUP6 DUP6 ADD CALLDATALOAD DUP2 SSTORE ADD SWAP4 ADD SWAP15 ADD SWAP14 DUP15 PUSH2 0x1AF3 JUMP JUMPDEST PUSH1 0x7 DUP4 ADD DUP5 MSTORE PUSH1 0x20 DUP5 KECCAK256 PUSH1 0x1F DUP3 ADD PUSH1 0x5 SHR DUP2 ADD PUSH1 0x20 DUP4 LT PUSH2 0x1BBA JUMPI JUMPDEST PUSH1 0x1F DUP16 JUMPDEST ADD PUSH1 0x5 SHR DUP3 ADD DUP2 LT PUSH2 0x1BAB JUMPI POP POP PUSH2 0x18BF JUMP JUMPDEST PUSH1 0x0 DUP2 SSTORE PUSH1 0x1 ADD PUSH1 0x1F DUP16 PUSH2 0x1B98 JUMP JUMPDEST POP DUP1 PUSH2 0x1B94 JUMP JUMPDEST PUSH4 0x4E487B71 PUSH1 0xE0 SHL DUP4 MSTORE PUSH1 0x41 PUSH1 0x4 MSTORE PUSH1 0x24 DUP4 REVERT JUMPDEST SWAP1 POP DUP5 ADD CALLDATALOAD CODESIZE PUSH2 0x1883 JUMP JUMPDEST PUSH1 0x6 DUP5 ADD DUP6 MSTORE PUSH1 0x20 DUP6 KECCAK256 SWAP2 POP DUP5 JUMPDEST PUSH1 0x1F NOT DUP9 AND DUP2 LT PUSH2 0x1C32 JUMPI POP DUP7 PUSH1 0x1F NOT DUP2 AND LT PUSH2 0x1C18 JUMPI JUMPDEST POP POP PUSH1 0x1 DUP6 DUP2 SHL ADD PUSH1 0x6 DUP4 ADD SSTORE PUSH2 0x189A JUMP JUMPDEST DUP6 ADD CALLDATALOAD PUSH1 0x0 NOT PUSH1 0x3 DUP9 SWAP1 SHL PUSH1 0xF8 AND SHR NOT AND SWAP1 SSTORE CODESIZE DUP1 PUSH2 0x1C06 JUMP JUMPDEST SWAP1 SWAP2 PUSH1 0x20 PUSH1 0x1 DUP2 SWAP3 DUP6 DUP11 ADD CALLDATALOAD DUP2 SSTORE ADD SWAP4 ADD SWAP2 ADD PUSH2 0x1BEE JUMP JUMPDEST PUSH1 0x6 DUP4 ADD DUP5 MSTORE PUSH1 0x20 DUP5 KECCAK256 PUSH1 0x1F DUP8 ADD PUSH1 0x5 SHR DUP2 ADD PUSH1 0x20 DUP9 LT PUSH2 0x1C88 JUMPI JUMPDEST PUSH1 0x1F DUP4 ADD PUSH1 0x5 SHR DUP3 ADD DUP2 LT PUSH2 0x1C7C JUMPI POP POP PUSH2 0x186E JUMP JUMPDEST PUSH1 0x0 DUP2 SSTORE PUSH1 0x1 ADD PUSH2 0x1C66 JUMP JUMPDEST POP DUP1 PUSH2 0x1C66 JUMP JUMPDEST SWAP1 POP DUP7 ADD CALLDATALOAD CODESIZE PUSH2 0x1833 JUMP JUMPDEST PUSH1 0x5 DUP5 ADD DUP6 MSTORE PUSH1 0x20 DUP6 KECCAK256 SWAP2 POP DUP5 JUMPDEST PUSH1 0x1F NOT DUP11 AND DUP2 LT PUSH2 0x1CEC JUMPI POP DUP9 PUSH1 0x1F NOT DUP2 AND LT PUSH2 0x1CD2 JUMPI JUMPDEST POP POP PUSH1 0x1 DUP8 DUP2 SHL ADD PUSH1 0x5 DUP4 ADD SSTORE PUSH2 0x184A JUMP JUMPDEST DUP8 ADD CALLDATALOAD PUSH1 0x0 NOT PUSH1 0x3 DUP11 SWAP1 SHL PUSH1 0xF8 AND SHR NOT AND SWAP1 SSTORE CODESIZE DUP1 PUSH2 0x1CC0 JUMP JUMPDEST SWAP1 SWAP2 PUSH1 0x20 PUSH1 0x1 DUP2 SWAP3 DUP6 DUP13 ADD CALLDATALOAD DUP2 SSTORE ADD SWAP4 ADD SWAP2 ADD PUSH2 0x1CA8 JUMP JUMPDEST PUSH1 0x5 DUP4 ADD DUP5 MSTORE PUSH1 0x20 DUP5 KECCAK256 PUSH1 0x1F DUP10 ADD PUSH1 0x5 SHR DUP2 ADD PUSH1 0x20 DUP11 LT PUSH2 0x1D42 JUMPI JUMPDEST PUSH1 0x1F DUP4 ADD PUSH1 0x5 SHR DUP3 ADD DUP2 LT PUSH2 0x1D36 JUMPI POP POP PUSH2 0x181E JUMP JUMPDEST PUSH1 0x0 DUP2 SSTORE PUSH1 0x1 ADD PUSH2 0x1D20 JUMP JUMPDEST POP DUP1 PUSH2 0x1D20 JUMP JUMPDEST SWAP1 POP DUP9 ADD CALLDATALOAD CODESIZE PUSH2 0x17E3 JUMP JUMPDEST PUSH1 0x4 DUP5 ADD DUP6 MSTORE PUSH1 0x20 DUP6 KECCAK256 SWAP2 POP DUP5 JUMPDEST DUP11 PUSH1 0x1F NOT DUP14 AND DUP3 LT PUSH2 0x1DA8 JUMPI POP POP DUP11 PUSH1 0x1F NOT DUP2 AND LT PUSH2 0x1D8E JUMPI JUMPDEST POP POP PUSH1 0x1 DUP10 DUP2 SHL ADD PUSH1 0x4 DUP4 ADD SSTORE PUSH2 0x17FA JUMP JUMPDEST DUP10 ADD CALLDATALOAD PUSH1 0x0 NOT PUSH1 0x3 DUP13 SWAP1 SHL PUSH1 0xF8 AND SHR NOT AND SWAP1 SSTORE CODESIZE DUP1 PUSH2 0x1D7C JUMP JUMPDEST PUSH1 0x1 DUP4 SWAP5 PUSH1 0x20 SWAP4 SWAP5 DUP5 SWAP4 ADD CALLDATALOAD DUP2 SSTORE ADD SWAP4 ADD SWAP2 ADD PUSH2 0x1D62 JUMP JUMPDEST PUSH1 0x4 DUP4 ADD DUP5 MSTORE PUSH1 0x20 DUP5 KECCAK256 PUSH1 0x1F DUP12 ADD PUSH1 0x5 SHR DUP2 ADD PUSH1 0x20 DUP13 LT PUSH2 0x1DFE JUMPI JUMPDEST PUSH1 0x1F DUP4 ADD PUSH1 0x5 SHR DUP3 ADD DUP2 LT PUSH2 0x1DF2 JUMPI POP POP PUSH2 0x17CE JUMP JUMPDEST PUSH1 0x0 DUP2 SSTORE PUSH1 0x1 ADD PUSH2 0x1DDC JUMP JUMPDEST POP DUP1 PUSH2 0x1DDC JUMP JUMPDEST ADD CALLDATALOAD SWAP1 POP CODESIZE DUP1 PUSH2 0x1792 JUMP JUMPDEST PUSH1 0x3 DUP7 ADD DUP8 MSTORE PUSH1 0x20 DUP8 KECCAK256 DUP8 SWAP5 POP SWAP2 JUMPDEST PUSH1 0x1F NOT DUP5 AND DUP6 LT PUSH2 0x1E64 JUMPI PUSH1 0x1 SWAP5 POP DUP4 PUSH1 0x1F NOT DUP2 AND LT PUSH2 0x1E4A JUMPI JUMPDEST POP POP POP DUP2 SHL ADD PUSH1 0x3 DUP4 ADD SSTORE PUSH2 0x17AA JUMP JUMPDEST ADD CALLDATALOAD PUSH1 0x0 NOT PUSH1 0x3 DUP5 SWAP1 SHL PUSH1 0xF8 AND SHR NOT AND SWAP1 SSTORE CODESIZE DUP1 DUP1 PUSH2 0x1E3A JUMP JUMPDEST DUP2 DUP2 ADD CALLDATALOAD DUP4 SSTORE PUSH1 0x20 SWAP5 DUP6 ADD SWAP5 PUSH1 0x1 SWAP1 SWAP4 ADD SWAP3 ADD PUSH2 0x1E1F JUMP JUMPDEST SWAP1 SWAP2 POP PUSH1 0x3 DUP6 ADD DUP7 MSTORE PUSH1 0x20 DUP7 KECCAK256 PUSH1 0x1F DUP5 ADD PUSH1 0x5 SHR DUP2 ADD PUSH1 0x20 DUP6 LT PUSH2 0x1EC6 JUMPI JUMPDEST SWAP1 DUP5 SWAP4 SWAP3 SWAP2 JUMPDEST PUSH1 0x1F DUP4 ADD PUSH1 0x5 SHR DUP3 ADD DUP2 LT PUSH2 0x1EB7 JUMPI POP POP PUSH2 0x177D JUMP JUMPDEST PUSH1 0x0 DUP2 SSTORE DUP6 SWAP5 POP PUSH1 0x1 ADD PUSH2 0x1EA1 JUMP JUMPDEST POP DUP1 PUSH2 0x1E9B JUMP JUMPDEST PUSH4 0x4E487B71 PUSH1 0xE0 SHL DUP6 MSTORE PUSH1 0x41 PUSH1 0x4 MSTORE PUSH1 0x24 DUP6 REVERT JUMPDEST SWAP2 POP PUSH1 0x20 DUP4 RETURNDATASIZE PUSH1 0x20 GT PUSH2 0x1F14 JUMPI JUMPDEST DUP2 PUSH2 0x1EFC PUSH1 0x20 SWAP4 DUP4 PUSH2 0x48A8 JUMP JUMPDEST DUP2 ADD SUB SLT PUSH2 0x1F0F JUMPI PUSH2 0x1723 SWAP3 MLOAD SWAP2 PUSH2 0x1717 JUMP JUMPDEST PUSH1 0x0 DUP1 REVERT JUMPDEST RETURNDATASIZE SWAP2 POP PUSH2 0x1EEF JUMP JUMPDEST PUSH1 0x40 MLOAD RETURNDATASIZE DUP9 DUP3 RETURNDATACOPY RETURNDATASIZE SWAP1 REVERT JUMPDEST SWAP2 POP PUSH1 0x20 DUP3 RETURNDATASIZE PUSH1 0x20 GT PUSH2 0x1F55 JUMPI JUMPDEST DUP2 PUSH2 0x1F42 PUSH1 0x20 SWAP4 DUP4 PUSH2 0x48A8 JUMP JUMPDEST DUP2 ADD SUB SLT PUSH2 0x1F0F JUMPI SWAP1 MLOAD SWAP1 PUSH2 0x16DC PUSH2 0x16CA JUMP JUMPDEST RETURNDATASIZE SWAP2 POP PUSH2 0x1F35 JUMP JUMPDEST PUSH1 0x40 MLOAD RETURNDATASIZE DUP8 DUP3 RETURNDATACOPY RETURNDATASIZE SWAP1 REVERT JUMPDEST DUP10 DUP1 REVERT JUMPDEST DUP8 DUP1 REVERT JUMPDEST DUP6 DUP1 REVERT JUMPDEST POP CALLVALUE PUSH2 0x28A JUMPI PUSH1 0x40 CALLDATASIZE PUSH1 0x3 NOT ADD SLT PUSH2 0x28A JUMPI PUSH1 0x40 PUSH2 0x1F90 PUSH2 0x46ED JUMP JUMPDEST SWAP2 PUSH1 0x4 CALLDATALOAD DUP2 MSTORE DUP1 PUSH1 0x20 MSTORE KECCAK256 SWAP1 PUSH1 0x1 DUP1 PUSH1 0xA0 SHL SUB AND PUSH1 0x0 MSTORE PUSH1 0x20 MSTORE PUSH1 0x20 PUSH1 0xFF PUSH1 0x40 PUSH1 0x0 KECCAK256 SLOAD AND PUSH1 0x40 MLOAD SWAP1 ISZERO ISZERO DUP2 MSTORE RETURN JUMPDEST POP CALLVALUE PUSH2 0x28A JUMPI PUSH1 0x20 CALLDATASIZE PUSH1 0x3 NOT ADD SLT PUSH2 0x28A JUMPI PUSH1 0x4 CALLDATALOAD ISZERO ISZERO DUP1 PUSH2 0x24C8 JUMPI JUMPDEST PUSH2 0x1FE5 SWAP1 PUSH2 0x4E94 JUMP JUMPDEST PUSH2 0x1FED PUSH2 0x4DEC JUMP JUMPDEST PUSH2 0x1FF5 PUSH2 0x4DCE JUMP JUMPDEST PUSH1 0x4 CALLDATALOAD DUP2 MSTORE PUSH1 0x7 PUSH1 0x20 MSTORE PUSH1 0x40 DUP2 KECCAK256 PUSH1 0xFF PUSH1 0x14 DUP3 ADD SLOAD PUSH1 0x10 SHR AND PUSH1 0xB DUP2 LT ISZERO PUSH2 0x24B4 JUMPI PUSH1 0x6 SUB PUSH2 0x2463 JUMPI PUSH1 0x18 DUP2 ADD SLOAD DUP1 ISZERO PUSH2 0x241E JUMPI PUSH2 0x2035 PUSH1 0x7 DUP4 ADD PUSH2 0x48C9 JUMP JUMPDEST SWAP1 DUP4 DUP1 SWAP3 DUP2 SWAP3 DUP3 JUMPDEST DUP3 MLOAD DUP2 LT ISZERO PUSH2 0x2147 JUMPI PUSH1 0x1 PUSH1 0x1 PUSH1 0xF8 SHL SUB NOT PUSH1 0x17 PUSH1 0xF9 SHL DUP2 PUSH2 0x205F DUP5 DUP8 PUSH2 0x5093 JUMP JUMPDEST MLOAD AND EQ PUSH2 0x2139 JUMPI PUSH1 0x3 PUSH1 0xFC SHL DUP2 PUSH2 0x2076 DUP5 DUP8 PUSH2 0x5093 JUMP JUMPDEST MLOAD AND LT ISZERO SWAP1 DUP2 PUSH2 0x211E JUMPI JUMPDEST POP PUSH2 0x2095 JUMPI JUMPDEST PUSH2 0x2090 SWAP1 PUSH2 0x4C67 JUMP JUMPDEST PUSH2 0x203D JUMP JUMPDEST SWAP1 SWAP2 SWAP3 SWAP4 SWAP7 DUP1 PUSH1 0xA DUP2 MUL DIV PUSH1 0xA EQ DUP2 ISZERO OR ISZERO PUSH2 0x210A JUMPI PUSH1 0x2F NOT PUSH2 0x20B8 DUP4 DUP7 PUSH2 0x5093 JUMP JUMPDEST MLOAD PUSH1 0xF8 SHR ADD PUSH1 0xFF DUP2 GT PUSH2 0x20F6 JUMPI DUP9 SWAP6 SWAP5 SWAP4 SWAP3 SWAP2 PUSH1 0xA PUSH1 0xFF PUSH2 0x20DB SWAP4 AND SWAP2 MUL PUSH2 0x4E87 JUMP JUMPDEST SWAP8 ISZERO PUSH2 0x2087 JUMPI SWAP5 PUSH2 0x20EE PUSH2 0x2090 SWAP2 PUSH2 0x4C67 JUMP JUMPDEST SWAP6 SWAP1 POP PUSH2 0x2087 JUMP JUMPDEST PUSH4 0x4E487B71 PUSH1 0xE0 SHL DUP7 MSTORE PUSH1 0x11 PUSH1 0x4 MSTORE PUSH1 0x24 DUP7 REVERT JUMPDEST PUSH4 0x4E487B71 PUSH1 0xE0 SHL DUP6 MSTORE PUSH1 0x11 PUSH1 0x4 MSTORE PUSH1 0x24 DUP6 REVERT JUMPDEST PUSH1 0x39 PUSH1 0xF8 SHL SWAP2 POP PUSH2 0x212F DUP4 DUP7 PUSH2 0x5093 JUMP JUMPDEST MLOAD AND GT ISZERO CODESIZE PUSH2 0x2081 JUMP JUMPDEST POP SWAP4 POP PUSH2 0x2090 PUSH1 0x1 SWAP5 PUSH2 0x4C67 JUMP JUMPDEST DUP4 DUP3 DUP9 DUP11 DUP10 PUSH1 0x12 DUP2 LT PUSH2 0x23F7 JUMPI JUMPDEST POP DUP4 SWAP3 PUSH1 0xFF PUSH1 0x8 DUP5 ADD SLOAD AND PUSH2 0x2169 DUP2 PUSH2 0x49AD JUMP JUMPDEST PUSH2 0x23CD JUMPI DUP2 DUP2 GT PUSH2 0x23A2 JUMPI JUMPDEST POP POP JUMPDEST DUP3 DUP3 ISZERO PUSH2 0x2396 JUMPI POP PUSH1 0xF DUP2 ADD SLOAD SWAP2 DUP3 DUP2 GT PUSH2 0x238F JUMPI JUMPDEST DUP1 PUSH2 0x2199 SWAP2 SWAP4 PUSH2 0x5086 JUMP JUMPDEST DUP3 PUSH2 0x22E2 JUMPI JUMPDEST DUP1 PUSH2 0x225A JUMPI JUMPDEST SWAP1 PUSH1 0xFF SWAP3 PUSH2 0x2212 SWAP3 PUSH1 0x14 DUP4 ADD SLOAD SWAP3 PUSH3 0x80000 PUSH3 0xFF0000 NOT DUP6 AND OR PUSH1 0x14 DUP3 ADD SSTORE PUSH1 0x17 TIMESTAMP SWAP2 ADD SSTORE PUSH1 0x40 MLOAD SWAP2 DUP3 MSTORE PUSH1 0x20 DUP3 ADD MSTORE TIMESTAMP PUSH1 0x40 DUP3 ADD MSTORE PUSH32 0x6DA40291EEB646B436D05C420B5B9F010D81DF95BCE846D2C3B3D45F56DF19EC PUSH1 0x60 PUSH1 0x4 CALLDATALOAD SWAP3 LOG2 PUSH1 0x40 MLOAD SWAP3 DUP4 SWAP2 PUSH1 0x10 SHR AND PUSH2 0x49B7 JUMP JUMPDEST PUSH1 0x8 PUSH1 0x20 DUP3 ADD MSTORE PUSH1 0x80 PUSH1 0x40 DUP3 ADD MSTORE PUSH1 0x7 PUSH1 0x80 DUP3 ADD MSTORE PUSH7 0x1CD95D1D1B1959 PUSH1 0xCA SHL PUSH1 0xA0 DUP3 ADD MSTORE TIMESTAMP PUSH1 0x60 DUP3 ADD MSTORE PUSH1 0x0 DUP1 MLOAD PUSH1 0x20 PUSH2 0x50A5 DUP4 CODECOPY DUP2 MLOAD SWAP2 MSTORE PUSH1 0xC0 PUSH1 0x4 CALLDATALOAD SWAP3 LOG2 PUSH1 0x1 DUP1 SSTORE DUP1 RETURN JUMPDEST PUSH1 0x3 SLOAD PUSH1 0x2 DUP4 ADD SLOAD PUSH1 0x4 SLOAD DUP7 SWAP3 PUSH1 0x1 PUSH1 0x1 PUSH1 0xA0 SHL SUB SWAP1 DUP2 AND SWAP3 SWAP2 DUP2 AND SWAP2 AND DUP3 EXTCODESIZE ISZERO PUSH2 0x645 JUMPI PUSH1 0x40 MLOAD PUSH4 0x6924FAA7 PUSH1 0xE1 SHL DUP2 MSTORE PUSH1 0x1 PUSH1 0x1 PUSH1 0xA0 SHL SUB SWAP2 DUP3 AND PUSH1 0x4 DUP3 ADD MSTORE SWAP2 AND PUSH1 0x24 DUP3 ADD MSTORE PUSH1 0x44 DUP2 ADD DUP5 SWAP1 MSTORE SWAP1 DUP3 SWAP1 DUP3 SWAP1 PUSH1 0x64 SWAP1 DUP3 SWAP1 DUP5 SWAP1 GAS CALL DUP1 ISZERO PUSH2 0x649 JUMPI PUSH2 0x22CA JUMPI JUMPDEST POP POP PUSH2 0x21A5 JUMP JUMPDEST PUSH2 0x22D6 SWAP1 SWAP4 SWAP3 SWAP4 PUSH2 0x4847 JUMP JUMPDEST PUSH2 0x645 JUMPI SWAP1 DUP4 DUP6 PUSH2 0x22C3 JUMP JUMPDEST PUSH1 0x3 SLOAD PUSH1 0x2 DUP4 ADD SLOAD PUSH1 0x1 DUP5 ADD SLOAD PUSH1 0x4 SLOAD DUP8 SWAP4 PUSH1 0x1 PUSH1 0x1 PUSH1 0xA0 SHL SUB SWAP2 DUP3 AND SWAP4 DUP3 AND SWAP3 DUP3 AND SWAP2 AND DUP1 EXTCODESIZE ISZERO PUSH2 0x238B JUMPI DUP5 SWAP3 DUP4 PUSH1 0xE4 SWAP3 PUSH1 0x40 MLOAD SWAP7 DUP8 SWAP6 DUP7 SWAP5 PUSH4 0x5FE3A8B PUSH1 0xE3 SHL DUP7 MSTORE PUSH1 0x4 DUP7 ADD MSTORE PUSH1 0x24 DUP6 ADD MSTORE PUSH1 0x44 DUP5 ADD MSTORE DUP11 PUSH1 0x64 DUP5 ADD MSTORE PUSH1 0xA0 PUSH1 0x84 DUP5 ADD MSTORE PUSH1 0x11 PUSH1 0xA4 DUP5 ADD MSTORE PUSH17 0x1CD95D1D1B195B595B9D081C185E5BDD5D PUSH1 0x7A SHL PUSH1 0xC4 DUP5 ADD MSTORE GAS CALL DUP1 ISZERO PUSH2 0x649 JUMPI PUSH2 0x2377 JUMPI JUMPDEST POP POP PUSH2 0x219F JUMP JUMPDEST PUSH2 0x2380 SWAP1 PUSH2 0x4847 JUMP JUMPDEST PUSH2 0x645 JUMPI DUP4 DUP6 PUSH2 0x2370 JUMP JUMPDEST DUP5 DUP1 REVERT JUMPDEST POP DUP2 PUSH2 0x218E JUMP JUMPDEST SWAP2 POP PUSH1 0xF DUP2 ADD SLOAD PUSH2 0x2199 JUMP JUMPDEST PUSH2 0x23C5 SWAP3 SWAP4 POP PUSH2 0x23B5 DUP3 PUSH2 0x23C0 SWAP3 PUSH2 0x5086 JUMP JUMPDEST PUSH1 0x9 DUP6 ADD SLOAD SWAP1 PUSH2 0x4E54 JUMP JUMPDEST PUSH2 0x4E67 JUMP JUMPDEST SWAP1 DUP4 DUP1 PUSH2 0x2175 JUMP JUMPDEST DUP1 DUP3 GT PUSH2 0x23DC JUMPI JUMPDEST POP POP PUSH2 0x2178 JUMP JUMPDEST PUSH2 0x23EF SWAP3 SWAP4 POP PUSH2 0x23B5 PUSH2 0x23C0 SWAP2 DUP4 PUSH2 0x5086 JUMP JUMPDEST SWAP1 DUP4 DUP1 PUSH2 0x23D5 JUMP JUMPDEST PUSH1 0x12 SUB PUSH1 0x12 DUP2 GT PUSH2 0x210A JUMPI PUSH1 0x4D DUP2 GT PUSH2 0x210A JUMPI SWAP1 PUSH2 0x2418 SWAP2 PUSH1 0xA EXP SWAP1 PUSH2 0x4E54 JUMP JUMPDEST DUP5 PUSH2 0x2155 JUMP JUMPDEST PUSH1 0x40 MLOAD PUSH3 0x461BCD PUSH1 0xE5 SHL DUP2 MSTORE PUSH1 0x20 PUSH1 0x4 DUP3 ADD MSTORE PUSH1 0x1A PUSH1 0x24 DUP3 ADD MSTORE PUSH32 0x4F7074696F6E73436F72653A206E6F2066656564207072696365000000000000 PUSH1 0x44 DUP3 ADD MSTORE PUSH1 0x64 SWAP1 REVERT JUMPDEST PUSH1 0x40 MLOAD PUSH3 0x461BCD PUSH1 0xE5 SHL DUP2 MSTORE PUSH1 0x20 PUSH1 0x4 DUP3 ADD MSTORE PUSH1 0x23 PUSH1 0x24 DUP3 ADD MSTORE PUSH32 0x4F7074696F6E73436F72653A206E6F742070656E64696E6720736574746C656D PUSH1 0x44 DUP3 ADD MSTORE PUSH3 0x195B9D PUSH1 0xEA SHL PUSH1 0x64 DUP3 ADD MSTORE PUSH1 0x84 SWAP1 REVERT JUMPDEST PUSH4 0x4E487B71 PUSH1 0xE0 SHL DUP4 MSTORE PUSH1 0x21 PUSH1 0x4 MSTORE PUSH1 0x24 DUP4 REVERT JUMPDEST POP PUSH1 0x5 SLOAD PUSH1 0x4 CALLDATALOAD LT PUSH2 0x1FDC JUMP JUMPDEST POP CALLVALUE PUSH2 0x28A JUMPI DUP1 PUSH1 0x3 NOT CALLDATASIZE ADD SLT PUSH2 0x28A JUMPI PUSH1 0x3 SLOAD PUSH1 0x40 MLOAD PUSH1 0x1 PUSH1 0x1 PUSH1 0xA0 SHL SUB SWAP1 SWAP2 AND DUP2 MSTORE PUSH1 0x20 SWAP1 RETURN JUMPDEST POP CALLVALUE PUSH2 0x28A JUMPI DUP1 PUSH1 0x3 NOT CALLDATASIZE ADD SLT PUSH2 0x28A JUMPI PUSH2 0x2517 PUSH2 0x49F6 JUMP JUMPDEST PUSH2 0x251F PUSH2 0x4DCE JUMP JUMPDEST PUSH1 0x1 PUSH1 0xFF NOT PUSH1 0x2 SLOAD AND OR PUSH1 0x2 SSTORE PUSH32 0x62E78CEA01BEE320CD4E420270B5EA74000D11B0C9F74754EBDBFC544B05A258 PUSH1 0x20 PUSH1 0x40 MLOAD CALLER DUP2 MSTORE LOG1 DUP1 RETURN JUMPDEST POP CALLVALUE PUSH2 0x28A JUMPI PUSH1 0x20 DUP1 PUSH1 0x3 NOT CALLDATASIZE ADD SLT PUSH2 0x30C JUMPI PUSH1 0x4 CALLDATALOAD PUSH1 0x1 PUSH1 0x1 PUSH1 0x40 SHL SUB DUP2 GT PUSH2 0x286 JUMPI PUSH2 0x258C DUP3 SWAP2 CALLDATASIZE SWAP1 PUSH1 0x4 ADD PUSH2 0x469A JUMP JUMPDEST SWAP2 SWAP1 DUP3 PUSH1 0x40 MLOAD SWAP4 DUP5 SWAP3 DUP4 CALLDATACOPY DUP2 ADD PUSH1 0xD DUP2 MSTORE SUB ADD SWAP1 KECCAK256 SWAP2 PUSH1 0x40 MLOAD DUP1 SWAP3 DUP1 DUP6 SLOAD SWAP3 DUP4 DUP2 MSTORE ADD SWAP5 DUP4 MSTORE DUP1 DUP4 KECCAK256 SWAP3 SWAP1 JUMPDEST DUP3 DUP3 LT PUSH2 0x25CF JUMPI PUSH2 0x282 DUP6 PUSH2 0x2E9 DUP2 DUP10 SUB DUP3 PUSH2 0x48A8 JUMP JUMPDEST DUP4 SLOAD DUP7 MSTORE SWAP5 DUP6 ADD SWAP5 PUSH1 0x1 SWAP4 DUP5 ADD SWAP4 SWAP1 SWAP2 ADD SWAP1 PUSH2 0x25B8 JUMP JUMPDEST POP CALLVALUE PUSH2 0x28A JUMPI DUP1 PUSH1 0x3 NOT CALLDATASIZE ADD SLT PUSH2 0x28A JUMPI PUSH1 0x2 SLOAD PUSH1 0x40 MLOAD PUSH1 0x8 SWAP2 SWAP1 SWAP2 SHR PUSH1 0x1 PUSH1 0x1 PUSH1 0xA0 SHL SUB AND DUP2 MSTORE PUSH1 0x20 SWAP1 RETURN JUMPDEST POP CALLVALUE PUSH2 0x28A JUMPI PUSH1 0xC0 CALLDATASIZE PUSH1 0x3 NOT ADD SLT PUSH2 0x28A JUMPI PUSH1 0x3 PUSH1 0x64 CALLDATALOAD LT ISZERO PUSH2 0x28A JUMPI PUSH1 0x84 CALLDATALOAD PUSH1 0xFF DUP2 AND DUP2 SUB PUSH2 0x1F0F JUMPI PUSH1 0xA4 CALLDATALOAD PUSH1 0xFF DUP2 AND DUP2 SUB PUSH2 0x1F0F JUMPI PUSH1 0x4 CALLDATALOAD ISZERO ISZERO DUP1 PUSH2 0x2BD0 JUMPI JUMPDEST PUSH2 0x265E SWAP1 PUSH2 0x4E94 JUMP JUMPDEST PUSH2 0x2666 PUSH2 0x4DEC JUMP JUMPDEST PUSH2 0x266E PUSH2 0x4DCE JUMP JUMPDEST PUSH1 0x4 CALLDATALOAD DUP4 MSTORE PUSH1 0x7 PUSH1 0x20 MSTORE PUSH1 0x40 DUP4 KECCAK256 SWAP1 PUSH1 0xFF PUSH1 0x14 DUP4 ADD SLOAD PUSH1 0x10 SHR AND PUSH1 0xB DUP2 LT ISZERO PUSH2 0x294A JUMPI DUP1 ISZERO SWAP1 DUP2 ISZERO PUSH2 0x2BC5 JUMPI JUMPDEST POP ISZERO PUSH2 0x2B70 JUMPI PUSH1 0x1 DUP3 ADD SLOAD PUSH1 0x1 PUSH1 0x1 PUSH1 0xA0 SHL SUB AND ISZERO PUSH2 0x2B2B JUMPI PUSH1 0x15 DUP3 ADD SLOAD PUSH1 0x2 SLOAD PUSH1 0x40 MLOAD PUSH4 0x4F6BFAD7 PUSH1 0xE0 SHL DUP2 MSTORE PUSH1 0x8 SWAP2 SWAP1 SWAP2 SHR PUSH1 0x1 PUSH1 0x1 PUSH1 0xA0 SHL SUB AND SWAP2 PUSH1 0x20 DUP3 PUSH1 0x4 DUP2 DUP7 GAS STATICCALL SWAP1 DUP2 ISZERO PUSH2 0x2B20 JUMPI DUP8 SWAP2 PUSH2 0x2AEA JUMPI JUMPDEST PUSH2 0x26FA SWAP3 POP PUSH2 0x4E87 JUMP JUMPDEST TIMESTAMP LT ISZERO PUSH2 0x2AA5 JUMPI PUSH1 0x4 SWAP1 DUP2 CALLDATALOAD DUP7 MSTORE PUSH1 0x8 PUSH1 0x20 MSTORE PUSH1 0x20 PUSH1 0x40 DUP8 KECCAK256 SLOAD SWAP2 PUSH1 0x40 MLOAD SWAP4 DUP5 DUP1 SWAP3 PUSH4 0xBE0CBCD PUSH1 0xE2 SHL DUP3 MSTORE GAS STATICCALL SWAP2 DUP3 ISZERO PUSH2 0x1F1C JUMPI DUP7 SWAP3 PUSH2 0x2A71 JUMPI JUMPDEST POP LT ISZERO PUSH2 0x2A2C JUMPI PUSH1 0x11 DUP3 ADD SLOAD PUSH1 0x2 PUSH1 0xFF DUP3 PUSH1 0x20 SHR AND PUSH2 0x2754 DUP2 PUSH2 0x476C JUMP JUMPDEST EQ PUSH2 0x29C4 JUMPI JUMPDEST POP PUSH2 0x2710 PUSH2 0x276E PUSH1 0x44 CALLDATALOAD PUSH1 0x9 DUP6 ADD SLOAD PUSH2 0x4E54 JUMP JUMPDEST DIV PUSH2 0x2781 PUSH1 0x10 DUP5 ADD SLOAD PUSH1 0x44 CALLDATALOAD LT ISZERO PUSH2 0x4C1C JUMP JUMPDEST PUSH1 0x4 SLOAD PUSH1 0x3 SLOAD PUSH2 0x27A1 SWAP2 DUP4 SWAP2 PUSH1 0x1 PUSH1 0x1 PUSH1 0xA0 SHL SUB SWAP1 DUP2 AND SWAP2 CALLER SWAP2 AND PUSH2 0x4D27 JUMP JUMPDEST PUSH1 0x6 SLOAD SWAP4 PUSH2 0x27AE DUP6 PUSH2 0x4C67 JUMP JUMPDEST PUSH1 0x6 SSTORE PUSH2 0x2710 PUSH2 0x27C4 PUSH1 0x24 CALLDATALOAD PUSH1 0x9 DUP8 ADD SLOAD PUSH2 0x4E54 JUMP JUMPDEST DIV SWAP3 PUSH1 0x4 PUSH1 0x20 PUSH1 0x1 DUP1 PUSH1 0xA0 SHL SUB PUSH1 0x2 SLOAD PUSH1 0x8 SHR AND PUSH1 0x40 MLOAD SWAP3 DUP4 DUP1 SWAP3 PUSH4 0x6A15D6D PUSH1 0xE1 SHL DUP3 MSTORE GAS STATICCALL SWAP1 DUP2 ISZERO PUSH2 0x29B9 JUMPI DUP9 SWAP2 PUSH2 0x2986 JUMPI JUMPDEST POP PUSH1 0xFF SWAP3 PUSH2 0x2808 DUP5 SWAP3 TIMESTAMP PUSH2 0x4E87 JUMP JUMPDEST SWAP5 PUSH1 0x40 MLOAD SWAP7 PUSH2 0x2816 DUP9 PUSH2 0x4870 JUMP JUMPDEST DUP10 DUP9 MSTORE PUSH1 0x4 CALLDATALOAD PUSH1 0x20 DUP10 ADD MSTORE CALLER PUSH1 0x40 DUP10 ADD MSTORE DUP11 PUSH1 0x60 DUP10 ADD MSTORE PUSH1 0x24 CALLDATALOAD PUSH1 0x80 DUP10 ADD MSTORE PUSH1 0xA0 DUP9 ADD MSTORE PUSH1 0x44 CALLDATALOAD PUSH1 0xC0 DUP9 ADD MSTORE PUSH1 0xE0 DUP8 ADD MSTORE PUSH2 0x2852 PUSH1 0x64 CALLDATALOAD PUSH2 0x476C JUMP JUMPDEST PUSH1 0x64 CALLDATALOAD PUSH2 0x100 DUP8 ADD MSTORE AND PUSH2 0x120 DUP6 ADD MSTORE AND PUSH2 0x140 DUP4 ADD MSTORE TIMESTAMP PUSH2 0x160 DUP4 ADD MSTORE PUSH2 0x180 DUP3 ADD MSTORE DUP4 PUSH2 0x1A0 DUP3 ADD MSTORE DUP3 DUP5 MSTORE PUSH1 0x9 PUSH1 0x20 MSTORE PUSH2 0x2892 DUP2 PUSH1 0x40 DUP7 KECCAK256 PUSH2 0x4EE0 JUMP JUMPDEST PUSH1 0x4 CALLDATALOAD DUP5 MSTORE PUSH1 0x8 PUSH1 0x20 MSTORE PUSH1 0x40 DUP5 KECCAK256 DUP1 SLOAD SWAP1 PUSH1 0x1 PUSH1 0x40 SHL DUP3 LT ISZERO PUSH2 0x2972 JUMPI SWAP1 PUSH2 0x28BF SWAP2 PUSH1 0x1 DUP3 ADD DUP2 SSTORE PUSH2 0x49DA JUMP JUMPDEST PUSH2 0x295E JUMPI SWAP1 PUSH2 0x28CD SWAP2 PUSH2 0x4EE0 JUMP JUMPDEST PUSH1 0x14 DUP2 ADD SLOAD PUSH1 0xFF DUP2 PUSH1 0x10 SHR AND PUSH1 0xB DUP2 LT ISZERO PUSH2 0x294A JUMPI PUSH1 0x20 SWAP5 POP ISZERO PUSH2 0x2932 JUMPI JUMPDEST POP POP PUSH1 0x40 MLOAD PUSH1 0x24 CALLDATALOAD DUP2 MSTORE TIMESTAMP DUP4 DUP3 ADD MSTORE DUP2 CALLER SWAP2 PUSH32 0x878FE3F9BCA373E42473C1F3AD3C9C35C4F1ECAF9A5F081A801A3FBD43049F55 PUSH1 0x40 PUSH1 0x4 CALLDATALOAD SWAP3 LOG4 PUSH1 0x1 DUP1 SSTORE PUSH1 0x40 MLOAD SWAP1 DUP2 MSTORE RETURN JUMPDEST PUSH3 0x10000 PUSH1 0x14 SWAP2 PUSH3 0xFF0000 NOT AND OR SWAP2 ADD SSTORE CODESIZE DUP1 PUSH2 0x28EC JUMP JUMPDEST PUSH4 0x4E487B71 PUSH1 0xE0 SHL DUP6 MSTORE PUSH1 0x21 PUSH1 0x4 MSTORE PUSH1 0x24 DUP6 REVERT JUMPDEST PUSH4 0x4E487B71 PUSH1 0xE0 SHL DUP6 MSTORE PUSH1 0x4 DUP6 SWAP1 MSTORE PUSH1 0x24 DUP6 REVERT JUMPDEST PUSH4 0x4E487B71 PUSH1 0xE0 SHL DUP7 MSTORE PUSH1 0x41 PUSH1 0x4 MSTORE PUSH1 0x24 DUP7 REVERT JUMPDEST SWAP1 POP PUSH1 0x20 DUP2 RETURNDATASIZE PUSH1 0x20 GT PUSH2 0x29B1 JUMPI JUMPDEST DUP2 PUSH2 0x29A1 PUSH1 0x20 SWAP4 DUP4 PUSH2 0x48A8 JUMP JUMPDEST DUP2 ADD SUB SLT PUSH2 0x1F0F JUMPI MLOAD PUSH1 0xFF PUSH2 0x27F9 JUMP JUMPDEST RETURNDATASIZE SWAP2 POP PUSH2 0x2994 JUMP JUMPDEST PUSH1 0x40 MLOAD RETURNDATASIZE DUP11 DUP3 RETURNDATACOPY RETURNDATASIZE SWAP1 REVERT JUMPDEST PUSH1 0x28 SHR PUSH1 0x1 PUSH1 0x1 PUSH1 0xA0 SHL SUB AND CALLER SUB PUSH2 0x29DC JUMPI CODESIZE PUSH2 0x275A JUMP JUMPDEST PUSH1 0x40 MLOAD PUSH3 0x461BCD PUSH1 0xE5 SHL DUP2 MSTORE PUSH1 0x20 PUSH1 0x4 DUP3 ADD MSTORE PUSH1 0x22 PUSH1 0x24 DUP3 ADD MSTORE PUSH32 0x4F7074696F6E73436F72653A206E6F742064657369676E617465642073656C6C PUSH1 0x44 DUP3 ADD MSTORE PUSH2 0x32B9 PUSH1 0xF1 SHL PUSH1 0x64 DUP3 ADD MSTORE PUSH1 0x84 SWAP1 REVERT JUMPDEST PUSH1 0x40 MLOAD PUSH3 0x461BCD PUSH1 0xE5 SHL DUP2 MSTORE PUSH1 0x20 PUSH1 0x4 DUP3 ADD MSTORE PUSH1 0x1F PUSH1 0x24 DUP3 ADD MSTORE PUSH32 0x4F7074696F6E73436F72653A206D61782071756F746573207265616368656400 PUSH1 0x44 DUP3 ADD MSTORE PUSH1 0x64 SWAP1 REVERT JUMPDEST SWAP1 SWAP2 POP PUSH1 0x20 DUP2 RETURNDATASIZE PUSH1 0x20 GT PUSH2 0x2A9D JUMPI JUMPDEST DUP2 PUSH2 0x2A8D PUSH1 0x20 SWAP4 DUP4 PUSH2 0x48A8 JUMP JUMPDEST DUP2 ADD SUB SLT PUSH2 0x1F0F JUMPI MLOAD SWAP1 CODESIZE PUSH2 0x2736 JUMP JUMPDEST RETURNDATASIZE SWAP2 POP PUSH2 0x2A80 JUMP JUMPDEST PUSH1 0x40 MLOAD PUSH3 0x461BCD PUSH1 0xE5 SHL DUP2 MSTORE PUSH1 0x20 PUSH1 0x4 DUP3 ADD MSTORE PUSH1 0x18 PUSH1 0x24 DUP3 ADD MSTORE PUSH32 0x4F7074696F6E73436F72653A2052465120657870697265640000000000000000 PUSH1 0x44 DUP3 ADD MSTORE PUSH1 0x64 SWAP1 REVERT JUMPDEST SWAP1 POP PUSH1 0x20 DUP3 RETURNDATASIZE PUSH1 0x20 GT PUSH2 0x2B18 JUMPI JUMPDEST DUP2 PUSH2 0x2B05 PUSH1 0x20 SWAP4 DUP4 PUSH2 0x48A8 JUMP JUMPDEST DUP2 ADD SUB SLT PUSH2 0x1F0F JUMPI PUSH2 0x26FA SWAP2 MLOAD SWAP1 PUSH2 0x26F0 JUMP JUMPDEST RETURNDATASIZE SWAP2 POP PUSH2 0x2AF8 JUMP JUMPDEST PUSH1 0x40 MLOAD RETURNDATASIZE DUP10 DUP3 RETURNDATACOPY RETURNDATASIZE SWAP1 REVERT JUMPDEST PUSH1 0x40 MLOAD PUSH3 0x461BCD PUSH1 0xE5 SHL DUP2 MSTORE PUSH1 0x20 PUSH1 0x4 DUP3 ADD MSTORE PUSH1 0x1E PUSH1 0x24 DUP3 ADD MSTORE PUSH32 0x4F7074696F6E73436F72653A206E6F742061206275796572206F726465720000 PUSH1 0x44 DUP3 ADD MSTORE PUSH1 0x64 SWAP1 REVERT JUMPDEST PUSH1 0x40 MLOAD PUSH3 0x461BCD PUSH1 0xE5 SHL DUP2 MSTORE PUSH1 0x20 PUSH1 0x4 DUP3 ADD MSTORE PUSH1 0x27 PUSH1 0x24 DUP3 ADD MSTORE PUSH32 0x4F7074696F6E73436F72653A206F72646572206E6F7420616363657074696E67 PUSH1 0x44 DUP3 ADD MSTORE PUSH7 0x2071756F746573 PUSH1 0xC8 SHL PUSH1 0x64 DUP3 ADD MSTORE PUSH1 0x84 SWAP1 REVERT JUMPDEST PUSH1 0x1 SWAP2 POP EQ CODESIZE PUSH2 0x269B JUMP JUMPDEST POP PUSH1 0x5 SLOAD PUSH1 0x4 CALLDATALOAD LT PUSH2 0x2655 JUMP JUMPDEST POP PUSH1 0x40 CALLDATASIZE PUSH1 0x3 NOT ADD SLT PUSH2 0x28A JUMPI PUSH1 0x4 CALLDATALOAD PUSH1 0x3 PUSH1 0x24 CALLDATALOAD LT ISZERO PUSH2 0x30C JUMPI SWAP1 DUP2 PUSH2 0x2C2E SWAP3 ISZERO ISZERO DUP1 PUSH2 0x2C9A JUMPI JUMPDEST PUSH2 0x2C0F SWAP1 PUSH2 0x4E94 JUMP JUMPDEST DUP2 MSTORE PUSH1 0x7 PUSH1 0x20 MSTORE PUSH1 0x40 SWAP1 KECCAK256 PUSH1 0x1 ADD SLOAD PUSH1 0x1 PUSH1 0x1 PUSH1 0xA0 SHL SUB AND CALLER EQ PUSH2 0x4E0F JUMP JUMPDEST PUSH2 0x2C36 PUSH2 0x4DEC JUMP JUMPDEST PUSH2 0x2C3E PUSH2 0x4DCE JUMP JUMPDEST PUSH1 0x40 MLOAD PUSH3 0x461BCD PUSH1 0xE5 SHL DUP2 MSTORE PUSH1 0x20 PUSH1 0x4 DUP3 ADD MSTORE PUSH1 0x2E PUSH1 0x24 DUP3 ADD MSTORE PUSH32 0x4F7074696F6E73436F72653A20666565642070726F746F636F6C206E6F742069 PUSH1 0x44 DUP3 ADD MSTORE PUSH14 0x1B5C1B195B595B9D1959081E595D PUSH1 0x92 SHL PUSH1 0x64 DUP3 ADD MSTORE PUSH1 0x84 SWAP1 REVERT JUMPDEST POP PUSH1 0x5 SLOAD DUP2 LT PUSH2 0x2C06 JUMP JUMPDEST POP CALLVALUE PUSH2 0x28A JUMPI PUSH1 0x20 CALLDATASIZE PUSH1 0x3 NOT ADD SLT PUSH2 0x28A JUMPI PUSH1 0x4 CALLDATALOAD DUP1 ISZERO ISZERO DUP1 PUSH2 0x2DC6 JUMPI JUMPDEST PUSH2 0x2CCC SWAP1 PUSH2 0x4E94 JUMP JUMPDEST PUSH2 0x2CD4 PUSH2 0x4DEC JUMP JUMPDEST PUSH2 0x2CDC PUSH2 0x4DCE JUMP JUMPDEST DUP1 DUP3 MSTORE PUSH1 0x7 PUSH1 0x20 MSTORE PUSH1 0x40 DUP3 KECCAK256 PUSH1 0x14 DUP2 ADD SWAP1 DUP2 SLOAD SWAP2 PUSH1 0xFF DUP4 PUSH1 0x10 SHR AND SWAP3 PUSH1 0xB DUP5 LT ISZERO PUSH2 0x45F JUMPI PUSH32 0xB009A900F426C0C9177ACB33A8A806B35C53AC253D1DDF22D687986FC6B72CE4 PUSH1 0x60 PUSH1 0xC0 SWAP5 DUP7 SWAP5 PUSH3 0x90000 DUP10 SWAP6 PUSH2 0x2D4A PUSH1 0x4 PUSH1 0x0 DUP1 MLOAD PUSH1 0x20 PUSH2 0x50A5 DUP4 CODECOPY DUP2 MLOAD SWAP2 MSTORE SWAP12 EQ PUSH2 0x503A JUMP JUMPDEST PUSH3 0xFF0000 NOT AND OR SWAP1 SSTORE TIMESTAMP PUSH1 0x17 DUP3 ADD SSTORE PUSH1 0xF PUSH1 0x1 DUP1 PUSH1 0xA0 SHL SUB PUSH1 0x1 DUP4 ADD SLOAD AND SWAP2 ADD SLOAD PUSH1 0x40 MLOAD SWAP2 DUP3 MSTORE PUSH1 0x20 DUP3 ADD MSTORE TIMESTAMP PUSH1 0x40 DUP3 ADD MSTORE LOG2 PUSH2 0x2D8A PUSH1 0x40 MLOAD DUP1 SWAP3 PUSH2 0x49B7 JUMP JUMPDEST PUSH1 0x9 PUSH1 0x20 DUP3 ADD MSTORE PUSH1 0x80 PUSH1 0x40 DUP3 ADD MSTORE PUSH1 0x10 PUSH1 0x80 DUP3 ADD MSTORE PUSH16 0x199BDC98D9481B1A5C5D5A59185D1959 PUSH1 0x82 SHL PUSH1 0xA0 DUP3 ADD MSTORE TIMESTAMP PUSH1 0x60 DUP3 ADD MSTORE LOG2 PUSH1 0x1 DUP1 SSTORE DUP1 RETURN JUMPDEST POP PUSH1 0x5 SLOAD DUP2 LT PUSH2 0x2CC3 JUMP JUMPDEST POP PUSH1 0x20 DUP1 PUSH1 0x3 NOT CALLDATASIZE ADD SLT PUSH2 0x30C JUMPI PUSH1 0x4 CALLDATALOAD SWAP1 DUP2 ISZERO ISZERO DUP1 PUSH2 0x3054 JUMPI JUMPDEST PUSH2 0x2DF5 SWAP1 PUSH2 0x4E94 JUMP JUMPDEST PUSH2 0x2DFD PUSH2 0x4DEC JUMP JUMPDEST PUSH2 0x2E05 PUSH2 0x4DCE JUMP JUMPDEST DUP2 DUP4 MSTORE PUSH1 0x7 DUP2 MSTORE PUSH1 0x40 DUP4 KECCAK256 PUSH1 0x14 DUP2 ADD SWAP1 PUSH1 0xFF DUP3 SLOAD PUSH1 0x10 SHR AND PUSH1 0xB DUP2 LT ISZERO PUSH2 0x45F JUMPI PUSH1 0x6 SUB PUSH2 0x2FFE JUMPI PUSH1 0x1 DUP2 ADD SLOAD PUSH1 0x1 PUSH1 0x1 PUSH1 0xA0 SHL SUB SWAP2 SWAP1 DUP3 AND CALLER EQ DUP1 ISZERO PUSH2 0x2FEF JUMPI JUMPDEST ISZERO PUSH2 0x2FAA JUMPI DUP1 PUSH1 0x12 PUSH1 0x17 PUSH2 0x2E60 SWAP4 ADD SLOAD SWAP2 ADD SLOAD SWAP1 PUSH2 0x4E87 JUMP JUMPDEST TIMESTAMP GT PUSH2 0x2F56 JUMPI DUP1 PUSH1 0x4 SWAP2 DUP3 SLOAD AND DUP5 DUP3 PUSH1 0x3 SLOAD AND SWAP3 PUSH1 0x2 SLOAD PUSH1 0x8 SHR AND PUSH1 0x40 MLOAD SWAP5 DUP6 DUP1 SWAP3 PUSH4 0x39F4F75 PUSH1 0xE3 SHL DUP3 MSTORE GAS STATICCALL SWAP3 DUP4 ISZERO PUSH2 0x2B20 JUMPI DUP8 SWAP4 PUSH2 0x2F21 JUMPI JUMPDEST POP SWAP4 PUSH2 0x2EE4 PUSH1 0xC0 SWAP5 PUSH2 0x2EC4 PUSH1 0xFF SWAP6 PUSH1 0x7 SWAP6 PUSH1 0x0 DUP1 MLOAD PUSH1 0x20 PUSH2 0x50A5 DUP4 CODECOPY DUP2 MLOAD SWAP2 MSTORE SWAP10 CALLER SWAP1 PUSH2 0x4D27 JUMP JUMPDEST DUP1 SLOAD PUSH3 0xFF0000 NOT DUP2 AND PUSH3 0x70000 OR SWAP1 SWAP2 SSTORE PUSH1 0x40 MLOAD SWAP5 DUP6 SWAP2 PUSH1 0x10 SHR AND PUSH2 0x49B7 JUMP JUMPDEST DUP3 ADD MSTORE PUSH1 0x80 PUSH1 0x40 DUP3 ADD MSTORE PUSH1 0x15 PUSH1 0x80 DUP3 ADD MSTORE PUSH21 0x185C989A5D1C985D1A5BDB881A5B9A5D1A585D1959 PUSH1 0x5A SHL PUSH1 0xA0 DUP3 ADD MSTORE TIMESTAMP PUSH1 0x60 DUP3 ADD MSTORE LOG2 PUSH1 0x1 DUP1 SSTORE DUP1 RETURN JUMPDEST SWAP3 POP SWAP1 SWAP4 DUP1 DUP4 DUP2 RETURNDATASIZE DUP4 GT PUSH2 0x2F4F JUMPI JUMPDEST PUSH2 0x2F3A DUP2 DUP4 PUSH2 0x48A8 JUMP JUMPDEST DUP2 ADD SUB SLT PUSH2 0x1F0F JUMPI SWAP2 MLOAD SWAP2 SWAP4 SWAP1 PUSH2 0x2EE4 PUSH2 0x2E9C JUMP JUMPDEST POP RETURNDATASIZE PUSH2 0x2F30 JUMP JUMPDEST PUSH1 0x40 MLOAD PUSH3 0x461BCD PUSH1 0xE5 SHL DUP2 MSTORE PUSH1 0x4 DUP2 ADD DUP5 SWAP1 MSTORE PUSH1 0x26 PUSH1 0x24 DUP3 ADD MSTORE PUSH32 0x4F7074696F6E73436F72653A206172626974726174696F6E2077696E646F7720 PUSH1 0x44 DUP3 ADD MSTORE PUSH6 0x18DB1BDCD959 PUSH1 0xD2 SHL PUSH1 0x64 DUP3 ADD MSTORE PUSH1 0x84 SWAP1 REVERT JUMPDEST PUSH1 0x40 MLOAD PUSH3 0x461BCD PUSH1 0xE5 SHL DUP2 MSTORE PUSH1 0x4 DUP2 ADD DUP6 SWAP1 MSTORE PUSH1 0x1F PUSH1 0x24 DUP3 ADD MSTORE PUSH32 0x4F7074696F6E73436F72653A206E6F7420706172747920746F206F7264657200 PUSH1 0x44 DUP3 ADD MSTORE PUSH1 0x64 SWAP1 REVERT JUMPDEST POP DUP2 PUSH1 0x2 DUP3 ADD SLOAD AND CALLER EQ PUSH2 0x2E47 JUMP JUMPDEST PUSH1 0x40 MLOAD PUSH3 0x461BCD PUSH1 0xE5 SHL DUP2 MSTORE PUSH1 0x4 DUP2 ADD DUP5 SWAP1 MSTORE PUSH1 0x28 PUSH1 0x24 DUP3 ADD MSTORE PUSH32 0x4F7074696F6E73436F72653A2063616E6E6F7420696E69746961746520617262 PUSH1 0x44 DUP3 ADD MSTORE PUSH8 0x34BA3930BA34B7B7 PUSH1 0xC1 SHL PUSH1 0x64 DUP3 ADD MSTORE PUSH1 0x84 SWAP1 REVERT JUMPDEST POP PUSH1 0x5 SLOAD DUP3 LT PUSH2 0x2DEC JUMP JUMPDEST POP CALLVALUE PUSH2 0x28A JUMPI PUSH1 0x20 CALLDATASIZE PUSH1 0x3 NOT ADD SLT PUSH2 0x28A JUMPI PUSH2 0x3079 PUSH2 0x4DEC JUMP JUMPDEST PUSH2 0x3081 PUSH2 0x4DCE JUMP JUMPDEST PUSH1 0x4 CALLDATALOAD DUP2 MSTORE PUSH1 0x9 PUSH1 0x20 MSTORE PUSH1 0x40 DUP2 KECCAK256 PUSH1 0xA DUP2 ADD SLOAD SWAP2 PUSH1 0xFF DUP4 AND PUSH1 0x4 DUP2 LT ISZERO PUSH2 0x352C JUMPI PUSH2 0x34E7 JUMPI PUSH1 0x9 DUP3 ADD SLOAD TIMESTAMP GT PUSH2 0x34A2 JUMPI PUSH1 0x1 DUP3 ADD SLOAD DUP2 MSTORE PUSH1 0x7 PUSH1 0x20 MSTORE PUSH1 0x40 DUP2 KECCAK256 SWAP3 PUSH2 0x30D9 PUSH1 0x1 DUP1 PUSH1 0xA0 SHL SUB PUSH1 0x1 DUP7 ADD SLOAD AND CALLER EQ PUSH2 0x4E0F JUMP JUMPDEST PUSH1 0xFF PUSH1 0x14 DUP6 ADD SLOAD PUSH1 0x10 SHR AND PUSH1 0xB DUP2 LT ISZERO PUSH2 0x24B4 JUMPI DUP1 ISZERO SWAP1 DUP2 ISZERO PUSH2 0x3497 JUMPI JUMPDEST POP ISZERO PUSH2 0x3452 JUMPI PUSH1 0x3 DUP4 ADD SLOAD PUSH1 0xC DUP6 ADD SLOAD LT PUSH2 0x33FF JUMPI PUSH1 0xFF NOT AND PUSH1 0x1 OR PUSH1 0xA DUP4 ADD SSTORE PUSH1 0x2 DUP1 DUP4 ADD DUP1 SLOAD SWAP2 DUP6 ADD DUP1 SLOAD PUSH1 0x1 PUSH1 0x1 PUSH1 0xA0 SHL SUB NOT AND PUSH1 0x1 PUSH1 0x1 PUSH1 0xA0 SHL SUB SWAP4 SWAP1 SWAP4 AND SWAP3 SWAP1 SWAP3 OR SWAP1 SWAP2 SSTORE SLOAD PUSH2 0x31C8 SWAP1 PUSH1 0x11 DUP6 ADD SWAP1 PUSH2 0x315B SWAP1 PUSH1 0xA0 SHR PUSH1 0xFF AND DUP3 PUSH2 0x4CA4 JUMP JUMPDEST PUSH1 0x3 DUP5 ADD SLOAD PUSH1 0xC DUP7 ADD SSTORE PUSH1 0x4 DUP5 ADD SLOAD PUSH1 0xD DUP7 ADD SSTORE PUSH1 0x6 DUP5 ADD SLOAD DUP1 PUSH1 0xE DUP8 ADD SSTORE PUSH1 0xF DUP7 ADD SSTORE PUSH1 0xFF PUSH1 0x7 DUP6 ADD PUSH2 0x3192 DUP3 DUP3 SLOAD AND DUP5 PUSH2 0x4CC9 JUMP JUMPDEST DUP1 SLOAD DUP4 SLOAD PUSH2 0xFF00 NOT AND PUSH1 0x8 SWAP2 DUP3 SHR DUP5 AND SWAP1 SWAP2 SHL PUSH2 0xFF00 AND OR DUP4 SSTORE SLOAD PUSH1 0x10 SHR AND PUSH3 0xFF0000 DUP3 SLOAD SWAP2 PUSH1 0x10 SHL AND SWAP1 PUSH3 0xFF0000 NOT AND OR SWAP1 SSTORE JUMP JUMPDEST PUSH1 0x14 DUP4 ADD DUP1 SLOAD PUSH3 0xFF0000 NOT DUP2 AND PUSH3 0x20000 OR SWAP1 SWAP2 SSTORE TIMESTAMP PUSH1 0x16 DUP6 ADD SSTORE PUSH1 0x9 DUP5 ADD SLOAD PUSH1 0x2 SLOAD PUSH1 0x40 MLOAD PUSH4 0x1C03BE35 PUSH1 0xE3 SHL DUP2 MSTORE SWAP3 SWAP5 SWAP3 SWAP1 PUSH1 0x20 SWAP1 DUP3 SWAP1 PUSH1 0x4 SWAP1 DUP3 SWAP1 PUSH1 0x8 SHR PUSH1 0x1 PUSH1 0x1 PUSH1 0xA0 SHL SUB AND GAS STATICCALL SWAP1 DUP2 ISZERO PUSH2 0x33F4 JUMPI DUP5 SWAP2 PUSH2 0x33C0 JUMPI JUMPDEST POP PUSH2 0x2710 PUSH2 0x3236 PUSH2 0x3241 SWAP3 PUSH2 0x325B SWAP5 PUSH2 0x4E54 JUMP JUMPDEST DIV PUSH1 0x4 DUP5 ADD SLOAD PUSH2 0x4E87 JUMP JUMPDEST PUSH1 0x4 SLOAD PUSH1 0x3 SLOAD PUSH1 0x1 PUSH1 0x1 PUSH1 0xA0 SHL SUB SWAP1 DUP2 AND SWAP2 CALLER SWAP2 AND PUSH2 0x4D27 JUMP JUMPDEST PUSH1 0x2 ADD SLOAD PUSH1 0x1 PUSH1 0x1 PUSH1 0xA0 SHL SUB AND DUP2 MSTORE PUSH1 0xB PUSH1 0x20 MSTORE PUSH1 0x40 DUP2 KECCAK256 DUP4 SLOAD PUSH2 0x327E SWAP2 PUSH2 0x4CF2 JUMP JUMPDEST DUP3 SLOAD DUP2 MSTORE PUSH1 0x8 PUSH1 0x20 MSTORE PUSH1 0x40 DUP2 KECCAK256 SWAP3 DUP2 JUMPDEST DUP5 SLOAD DUP2 LT ISZERO PUSH2 0x3315 JUMPI PUSH2 0x32A1 DUP2 DUP7 PUSH2 0x49DA JUMP JUMPDEST POP SLOAD PUSH1 0x4 CALLDATALOAD EQ ISZERO DUP1 PUSH2 0x32DF JUMPI JUMPDEST SWAP1 PUSH2 0x32BC SWAP2 PUSH2 0x32C1 JUMPI PUSH2 0x4C67 JUMP JUMPDEST PUSH2 0x328E JUMP JUMPDEST PUSH1 0xA PUSH2 0x32CD DUP3 DUP9 PUSH2 0x49DA JUMP JUMPDEST POP ADD DUP1 SLOAD PUSH1 0xFF NOT AND PUSH1 0x2 OR SWAP1 SSTORE PUSH2 0x4C67 JUMP JUMPDEST POP PUSH1 0xFF PUSH1 0xA PUSH2 0x32EE DUP4 DUP9 PUSH2 0x49DA JUMP JUMPDEST POP ADD SLOAD AND PUSH1 0x4 DUP2 LT ISZERO PUSH2 0x3301 JUMPI ISZERO PUSH2 0x32AE JUMP JUMPDEST PUSH4 0x4E487B71 PUSH1 0xE0 SHL DUP5 MSTORE PUSH1 0x21 PUSH1 0x4 MSTORE PUSH1 0x24 DUP5 REVERT JUMPDEST POP PUSH1 0x0 DUP1 MLOAD PUSH1 0x20 PUSH2 0x50A5 DUP4 CODECOPY DUP2 MLOAD SWAP2 MSTORE PUSH1 0xC0 PUSH1 0xFF PUSH2 0x3386 DUP7 DUP6 SLOAD SWAP6 PUSH1 0x1 DUP1 PUSH1 0xA0 SHL SUB PUSH1 0x1 DUP3 ADD SLOAD AND SWAP1 PUSH1 0x2 PUSH1 0x1 DUP1 PUSH1 0xA0 SHL SUB SWAP2 ADD SLOAD AND SWAP1 DUP8 PUSH32 0x3D7463B72B52FAFC8E3F27DC0DBB9D1A94C0A4024834252B5CCE68509ACB49BC PUSH1 0x20 PUSH1 0x40 MLOAD TIMESTAMP DUP2 MSTORE LOG4 PUSH1 0x40 MLOAD SWAP3 DUP4 SWAP2 PUSH1 0x10 SHR AND PUSH2 0x49B7 JUMP JUMPDEST PUSH1 0x2 PUSH1 0x20 DUP3 ADD MSTORE PUSH1 0x80 PUSH1 0x40 DUP3 ADD MSTORE PUSH1 0xE PUSH1 0x80 DUP3 ADD MSTORE PUSH14 0x1C5D5BDD19481858D8D95C1D1959 PUSH1 0x92 SHL PUSH1 0xA0 DUP3 ADD MSTORE TIMESTAMP PUSH1 0x60 DUP3 ADD MSTORE LOG2 PUSH1 0x1 DUP1 SSTORE DUP1 RETURN JUMPDEST SWAP1 POP PUSH1 0x20 DUP2 RETURNDATASIZE PUSH1 0x20 GT PUSH2 0x33EC JUMPI JUMPDEST DUP2 PUSH2 0x33DB PUSH1 0x20 SWAP4 DUP4 PUSH2 0x48A8 JUMP JUMPDEST DUP2 ADD SUB SLT PUSH2 0x1F0F JUMPI MLOAD PUSH2 0x2710 PUSH2 0x3222 JUMP JUMPDEST RETURNDATASIZE SWAP2 POP PUSH2 0x33CE JUMP JUMPDEST PUSH1 0x40 MLOAD RETURNDATASIZE DUP7 DUP3 RETURNDATACOPY RETURNDATASIZE SWAP1 REVERT JUMPDEST PUSH1 0x40 MLOAD PUSH3 0x461BCD PUSH1 0xE5 SHL DUP2 MSTORE PUSH1 0x20 PUSH1 0x4 DUP3 ADD MSTORE PUSH1 0x25 PUSH1 0x24 DUP3 ADD MSTORE PUSH32 0x4F7074696F6E73436F72653A207072656D69756D207261746520657863656564 PUSH1 0x44 DUP3 ADD MSTORE PUSH5 0xE640DAC2F PUSH1 0xDB SHL PUSH1 0x64 DUP3 ADD MSTORE PUSH1 0x84 SWAP1 REVERT JUMPDEST PUSH1 0x40 MLOAD PUSH3 0x461BCD PUSH1 0xE5 SHL DUP2 MSTORE PUSH1 0x20 PUSH1 0x4 DUP3 ADD MSTORE PUSH1 0x1B PUSH1 0x24 DUP3 ADD MSTORE PUSH32 0x4F7074696F6E73436F72653A20696E76616C6964207374617475730000000000 PUSH1 0x44 DUP3 ADD MSTORE PUSH1 0x64 SWAP1 REVERT JUMPDEST PUSH1 0x1 SWAP2 POP EQ CODESIZE PUSH2 0x30F7 JUMP JUMPDEST PUSH1 0x40 MLOAD PUSH3 0x461BCD PUSH1 0xE5 SHL DUP2 MSTORE PUSH1 0x20 PUSH1 0x4 DUP3 ADD MSTORE PUSH1 0x1A PUSH1 0x24 DUP3 ADD MSTORE PUSH32 0x4F7074696F6E73436F72653A2071756F74652065787069726564000000000000 PUSH1 0x44 DUP3 ADD MSTORE PUSH1 0x64 SWAP1 REVERT JUMPDEST PUSH1 0x40 MLOAD PUSH3 0x461BCD PUSH1 0xE5 SHL DUP2 MSTORE PUSH1 0x20 PUSH1 0x4 DUP3 ADD MSTORE PUSH1 0x1D PUSH1 0x24 DUP3 ADD MSTORE PUSH32 0x4F7074696F6E73436F72653A2071756F7465206E6F7420616374697665000000 PUSH1 0x44 DUP3 ADD MSTORE PUSH1 0x64 SWAP1 REVERT JUMPDEST PUSH4 0x4E487B71 PUSH1 0xE0 SHL DUP3 MSTORE PUSH1 0x21 PUSH1 0x4 MSTORE PUSH1 0x24 DUP3 REVERT JUMPDEST POP CALLVALUE PUSH2 0x28A JUMPI DUP1 PUSH1 0x3 NOT CALLDATASIZE ADD SLT PUSH2 0x28A JUMPI PUSH1 0x20 PUSH1 0xFF PUSH1 0x2 SLOAD AND PUSH1 0x40 MLOAD SWAP1 ISZERO ISZERO DUP2 MSTORE RETURN JUMPDEST POP CALLVALUE PUSH2 0x28A JUMPI DUP1 PUSH1 0x3 NOT CALLDATASIZE ADD SLT PUSH2 0x28A JUMPI PUSH1 0x20 PUSH1 0x6 SLOAD PUSH1 0x40 MLOAD SWAP1 DUP2 MSTORE RETURN JUMPDEST POP CALLVALUE PUSH2 0x28A JUMPI PUSH1 0x20 DUP1 PUSH1 0x3 NOT CALLDATASIZE ADD SLT PUSH2 0x30C JUMPI PUSH1 0x4 CALLDATALOAD SWAP1 DUP2 ISZERO ISZERO DUP1 PUSH2 0x3751 JUMPI JUMPDEST PUSH2 0x35AA SWAP1 PUSH2 0x4E94 JUMP JUMPDEST DUP2 DUP4 MSTORE PUSH1 0x7 DUP2 MSTORE PUSH2 0x35CB PUSH1 0x1 DUP1 PUSH1 0xA0 SHL SUB PUSH1 0x1 PUSH1 0x40 DUP7 KECCAK256 ADD SLOAD AND CALLER EQ PUSH2 0x4E0F JUMP JUMPDEST DUP2 DUP4 MSTORE PUSH1 0x7 DUP2 MSTORE PUSH1 0xFF PUSH1 0x14 PUSH1 0x40 DUP6 KECCAK256 ADD SLOAD PUSH1 0x10 SHR AND PUSH1 0xB DUP2 LT ISZERO PUSH2 0x3301 JUMPI PUSH1 0x4 SUB PUSH2 0x3703 JUMPI PUSH2 0x35F8 PUSH2 0x4DEC JUMP JUMPDEST PUSH2 0x3600 PUSH2 0x4DCE JUMP JUMPDEST DUP2 DUP4 MSTORE PUSH1 0x7 DUP2 MSTORE PUSH1 0x40 DUP4 KECCAK256 PUSH1 0xFF PUSH1 0x11 DUP3 ADD SLOAD PUSH1 0x18 SHR AND PUSH3 0x15180 SWAP1 DUP2 DUP2 MUL SWAP2 DUP2 DUP4 DIV EQ SWAP1 ISZERO OR ISZERO PUSH2 0x210A JUMPI PUSH2 0x3639 SWAP1 PUSH1 0x16 DUP4 ADD SLOAD PUSH2 0x4E87 JUMP JUMPDEST TIMESTAMP LT PUSH2 0x36B2 JUMPI PUSH1 0xFF PUSH1 0x5 PUSH1 0x0 DUP1 MLOAD PUSH1 0x20 PUSH2 0x50A5 DUP4 CODECOPY DUP2 MLOAD SWAP2 MSTORE SWAP4 PUSH2 0x367C PUSH1 0x14 PUSH1 0xC0 SWAP6 ADD DUP1 SLOAD SWAP1 PUSH3 0x50000 PUSH3 0xFF0000 NOT DUP4 AND OR SWAP1 SSTORE PUSH1 0x40 MLOAD SWAP5 DUP6 SWAP2 PUSH1 0x10 SHR AND PUSH2 0x49B7 JUMP JUMPDEST DUP3 ADD MSTORE PUSH1 0x80 PUSH1 0x40 DUP3 ADD MSTORE PUSH1 0xE PUSH1 0x80 DUP3 ADD MSTORE PUSH14 0x6561726C79206578657263697365 PUSH1 0x90 SHL PUSH1 0xA0 DUP3 ADD MSTORE TIMESTAMP PUSH1 0x60 DUP3 ADD MSTORE LOG2 PUSH1 0x1 DUP1 SSTORE DUP1 RETURN JUMPDEST PUSH1 0x40 MLOAD PUSH3 0x461BCD PUSH1 0xE5 SHL DUP2 MSTORE PUSH1 0x4 DUP2 ADD DUP4 SWAP1 MSTORE PUSH1 0x23 PUSH1 0x24 DUP3 ADD MSTORE PUSH32 0x4F7074696F6E73436F72653A2065786572636973652064656C6179206E6F7420 PUSH1 0x44 DUP3 ADD MSTORE PUSH3 0x1B595D PUSH1 0xEA SHL PUSH1 0x64 DUP3 ADD MSTORE PUSH1 0x84 SWAP1 REVERT JUMPDEST PUSH1 0x84 SWAP1 PUSH1 0x40 MLOAD SWAP1 PUSH3 0x461BCD PUSH1 0xE5 SHL DUP3 MSTORE PUSH1 0x4 DUP3 ADD MSTORE PUSH1 0x21 PUSH1 0x24 DUP3 ADD MSTORE PUSH32 0x4F7074696F6E73436F72653A20696E76616C6964206F72646572207374617475 PUSH1 0x44 DUP3 ADD MSTORE PUSH1 0x73 PUSH1 0xF8 SHL PUSH1 0x64 DUP3 ADD MSTORE REVERT JUMPDEST POP PUSH1 0x5 SLOAD DUP3 LT PUSH2 0x35A1 JUMP JUMPDEST POP CALLVALUE PUSH2 0x28A JUMPI PUSH1 0x40 CALLDATASIZE PUSH1 0x3 NOT ADD SLT PUSH2 0x28A JUMPI PUSH2 0x3776 PUSH2 0x46D7 JUMP JUMPDEST PUSH1 0x1 PUSH1 0x1 PUSH1 0xA0 SHL SUB AND DUP2 MSTORE PUSH1 0xB PUSH1 0x20 MSTORE PUSH1 0x40 DUP2 KECCAK256 DUP1 SLOAD PUSH1 0x24 CALLDATALOAD SWAP3 SWAP1 DUP4 LT ISZERO PUSH2 0x28A JUMPI PUSH1 0x20 PUSH2 0x37A4 DUP5 DUP5 PUSH2 0x4703 JUMP JUMPDEST SWAP1 SLOAD PUSH1 0x40 MLOAD SWAP2 PUSH1 0x3 SHL SHR DUP2 MSTORE RETURN JUMPDEST POP CALLVALUE PUSH2 0x28A JUMPI PUSH1 0x40 CALLDATASIZE PUSH1 0x3 NOT ADD SLT PUSH2 0x28A JUMPI PUSH2 0x37CC PUSH2 0x46D7 JUMP JUMPDEST PUSH1 0x1 PUSH1 0x1 PUSH1 0xA0 SHL SUB AND DUP2 MSTORE PUSH1 0xA PUSH1 0x20 MSTORE PUSH1 0x40 DUP2 KECCAK256 DUP1 SLOAD PUSH1 0x24 CALLDATALOAD SWAP3 SWAP1 DUP4 LT ISZERO PUSH2 0x28A JUMPI PUSH1 0x20 PUSH2 0x37A4 DUP5 DUP5 PUSH2 0x4703 JUMP JUMPDEST POP CALLVALUE PUSH2 0x28A JUMPI DUP1 PUSH1 0x3 NOT CALLDATASIZE ADD SLT PUSH2 0x28A JUMPI PUSH2 0x3813 PUSH2 0x49F6 JUMP JUMPDEST PUSH1 0x2 SLOAD PUSH1 0xFF DUP2 AND ISZERO PUSH2 0x3853 JUMPI PUSH1 0xFF NOT AND PUSH1 0x2 SSTORE PUSH32 0x5DB9EE0A495BF2E6FF9C91A7834C1BA4FDD244A5E8AA4E537BD38AEAE4B073AA PUSH1 0x20 PUSH1 0x40 MLOAD CALLER DUP2 MSTORE LOG1 DUP1 RETURN JUMPDEST PUSH1 0x40 MLOAD PUSH4 0x8DFC202B PUSH1 0xE0 SHL DUP2 MSTORE PUSH1 0x4 SWAP1 REVERT JUMPDEST POP CALLVALUE PUSH2 0x28A JUMPI PUSH1 0x40 CALLDATASIZE PUSH1 0x3 NOT ADD SLT PUSH2 0x28A JUMPI PUSH2 0x387F PUSH2 0x46ED JUMP JUMPDEST CALLER PUSH1 0x1 PUSH1 0x1 PUSH1 0xA0 SHL SUB DUP3 AND SUB PUSH2 0x389B JUMPI PUSH2 0x34D SWAP1 PUSH1 0x4 CALLDATALOAD PUSH2 0x4AF2 JUMP JUMPDEST PUSH1 0x40 MLOAD PUSH4 0x334BD919 PUSH1 0xE1 SHL DUP2 MSTORE PUSH1 0x4 SWAP1 REVERT JUMPDEST POP CALLVALUE PUSH2 0x28A JUMPI PUSH1 0x60 CALLDATASIZE PUSH1 0x3 NOT ADD SLT PUSH2 0x28A JUMPI PUSH1 0x4 CALLDATALOAD PUSH1 0x24 PUSH1 0x44 CALLDATALOAD DUP2 CALLDATALOAD PUSH1 0x1 PUSH1 0x1 PUSH1 0x40 SHL SUB DUP1 DUP4 GT PUSH2 0x1F70 JUMPI CALLDATASIZE PUSH1 0x23 DUP5 ADD SLT ISZERO PUSH2 0x1F70 JUMPI DUP3 PUSH1 0x4 ADD CALLDATALOAD SWAP3 DUP2 DUP5 GT PUSH2 0x3BFC JUMPI DUP5 CALLDATASIZE SWAP2 DUP6 PUSH1 0x5 SHL ADD ADD GT PUSH2 0x1F70 JUMPI DUP5 ISZERO ISZERO DUP1 PUSH2 0x3BF1 JUMPI JUMPDEST PUSH2 0x3910 SWAP1 PUSH2 0x4E94 JUMP JUMPDEST PUSH2 0x3918 PUSH2 0x4DEC JUMP JUMPDEST PUSH2 0x3920 PUSH2 0x4DCE JUMP JUMPDEST DUP6 DUP1 MSTORE PUSH1 0x20 SWAP4 DUP7 DUP6 MSTORE PUSH1 0x40 DUP8 KECCAK256 CALLER DUP9 MSTORE DUP6 MSTORE PUSH1 0xFF PUSH1 0x40 DUP9 KECCAK256 SLOAD AND ISZERO PUSH2 0x3BAE JUMPI DUP6 DUP8 MSTORE PUSH1 0x7 DUP6 MSTORE PUSH1 0x40 DUP8 KECCAK256 SWAP3 PUSH1 0x14 DUP5 ADD SWAP5 PUSH1 0xFF DUP7 SLOAD PUSH1 0x10 SHR AND PUSH1 0xB DUP2 LT ISZERO PUSH2 0x3B9B JUMPI PUSH1 0x7 SUB PUSH2 0x3B49 JUMPI ISZERO PUSH2 0x3B05 JUMPI PUSH1 0x18 DUP5 ADD DUP1 SLOAD PUSH1 0x1 DUP7 ADD SLOAD PUSH1 0x1 PUSH1 0x1 PUSH1 0xA0 SHL SUB SWAP1 DUP2 AND SWAP7 DUP12 SWAP5 DUP4 DUP2 EQ ISZERO SWAP5 SWAP1 SWAP4 SWAP3 DUP6 PUSH2 0x3AA0 JUMPI JUMPDEST POP DUP4 SWAP1 SSTORE DUP9 SLOAD SWAP9 PUSH3 0x80000 PUSH3 0xFF0000 NOT DUP12 AND OR SWAP1 SSTORE PUSH1 0x17 TIMESTAMP SWAP2 ADD SSTORE PUSH1 0x40 MLOAD SWAP5 DUP10 DUP7 ADD SWAP1 DUP12 DUP3 MSTORE TIMESTAMP PUSH1 0x40 DUP9 ADD MSTORE PUSH1 0x40 DUP8 MSTORE PUSH1 0x60 DUP8 ADD SWAP8 DUP8 DUP10 LT SWAP1 DUP10 GT OR PUSH2 0x3A8C JUMPI POP PUSH1 0xC0 DUP8 PUSH1 0x0 DUP1 MLOAD PUSH1 0x20 PUSH2 0x50A5 DUP4 CODECOPY DUP2 MLOAD SWAP2 MSTORE SWAP12 SWAP8 PUSH2 0x3A50 SWAP8 DUP4 SWAP13 SWAP8 DUP16 SWAP7 SWAP8 PUSH1 0xFF SWAP14 SWAP9 PUSH32 0xB3560D930DA64161657F7700F7109520A24B93D7FF2363739EE324A1E0D6BF87 SWAP8 PUSH1 0x8 SWAP15 PUSH1 0x40 MSTORE DUP6 MLOAD SWAP1 KECCAK256 SWAP10 DUP7 MSTORE PUSH1 0x80 DUP6 ADD MSTORE PUSH1 0xA0 DUP5 ADD MSTORE DUP5 DUP4 ADD MSTORE PUSH1 0xE0 DUP3 ADD MSTORE PUSH2 0x100 TIMESTAMP SWAP2 ADD MSTORE LOG3 PUSH1 0x40 MLOAD SWAP5 DUP6 SWAP2 PUSH1 0x10 SHR AND PUSH2 0x49B7 JUMP JUMPDEST DUP3 ADD MSTORE PUSH1 0x80 PUSH1 0x40 DUP3 ADD MSTORE PUSH1 0x14 PUSH1 0x80 DUP3 ADD MSTORE PUSH20 0x185C989A5D1C985D1A5BDB881C995CDBDB1D9959 PUSH1 0x62 SHL PUSH1 0xA0 DUP3 ADD MSTORE TIMESTAMP PUSH1 0x60 DUP3 ADD MSTORE LOG2 PUSH1 0x1 DUP1 SSTORE DUP1 RETURN JUMPDEST PUSH4 0x4E487B71 PUSH1 0xE0 SHL PUSH1 0x0 SWAP1 DUP2 MSTORE PUSH1 0x41 PUSH1 0x4 MSTORE REVERT JUMPDEST PUSH1 0x3 SLOAD PUSH8 0x98A7D9B8314C0000 SWAP8 POP AND DUP14 DUP2 EXTCODESIZE ISZERO PUSH2 0x28A JUMPI DUP9 PUSH1 0x44 DUP13 DUP4 DUP12 SWAP6 PUSH1 0x40 MLOAD SWAP7 DUP8 SWAP6 DUP7 SWAP5 PUSH4 0x15490EBB PUSH1 0xE0 SHL DUP7 MSTORE PUSH1 0x4 DUP7 ADD MSTORE DUP5 ADD MSTORE GAS CALL DUP1 ISZERO PUSH2 0x3AF8 JUMPI ISZERO PUSH2 0x3994 JUMPI SWAP13 PUSH2 0x3AF1 DUP6 SWAP3 SWAP15 PUSH2 0x4847 JUMP JUMPDEST SWAP13 SWAP1 PUSH2 0x3994 JUMP JUMPDEST DUP15 PUSH1 0x40 MLOAD SWAP1 RETURNDATASIZE SWAP1 DUP3 RETURNDATACOPY RETURNDATASIZE SWAP1 REVERT JUMPDEST PUSH1 0x40 MLOAD PUSH3 0x461BCD PUSH1 0xE5 SHL DUP2 MSTORE PUSH1 0x4 DUP2 ADD DUP8 SWAP1 MSTORE PUSH1 0x1B DUP2 DUP5 ADD MSTORE PUSH32 0x4F7074696F6E73436F72653A206E6F2061726269747261746F72730000000000 PUSH1 0x44 DUP3 ADD MSTORE PUSH1 0x64 SWAP1 REVERT JUMPDEST PUSH1 0x40 MLOAD PUSH3 0x461BCD PUSH1 0xE5 SHL DUP2 MSTORE PUSH1 0x4 DUP2 ADD DUP9 SWAP1 MSTORE PUSH1 0x25 DUP2 DUP6 ADD MSTORE PUSH32 0x4F7074696F6E73436F72653A206F72646572206E6F7420696E20617262697472 PUSH1 0x44 DUP3 ADD MSTORE PUSH5 0x30BA34B7B7 PUSH1 0xD9 SHL PUSH1 0x64 DUP3 ADD MSTORE PUSH1 0x84 SWAP1 REVERT JUMPDEST PUSH4 0x4E487B71 PUSH1 0xE0 SHL DUP11 MSTORE PUSH1 0x21 PUSH1 0x4 MSTORE DUP4 DUP11 REVERT JUMPDEST DUP5 PUSH1 0x1B PUSH1 0x64 SWAP3 PUSH1 0x40 MLOAD SWAP3 PUSH3 0x461BCD PUSH1 0xE5 SHL DUP5 MSTORE PUSH1 0x4 DUP5 ADD MSTORE DUP3 ADD MSTORE PUSH32 0x4F7074696F6E73436F72653A206E6F7420617574686F72697A65640000000000 PUSH1 0x44 DUP3 ADD MSTORE REVERT JUMPDEST POP PUSH1 0x5 SLOAD DUP6 LT PUSH2 0x3907 JUMP JUMPDEST DUP7 DUP1 REVERT JUMPDEST POP CALLVALUE PUSH2 0x28A JUMPI DUP1 PUSH1 0x3 NOT CALLDATASIZE ADD SLT PUSH2 0x28A JUMPI PUSH1 0x4 SLOAD PUSH1 0x40 MLOAD PUSH1 0x1 PUSH1 0x1 PUSH1 0xA0 SHL SUB SWAP1 SWAP2 AND DUP2 MSTORE PUSH1 0x20 SWAP1 RETURN JUMPDEST POP CALLVALUE PUSH2 0x28A JUMPI PUSH1 0x40 CALLDATASIZE PUSH1 0x3 NOT ADD SLT PUSH2 0x28A JUMPI PUSH2 0x34D PUSH1 0x4 CALLDATALOAD PUSH2 0x3C49 PUSH2 0x46ED JUMP JUMPDEST SWAP1 DUP1 DUP5 MSTORE DUP4 PUSH1 0x20 MSTORE PUSH2 0x3C61 PUSH1 0x1 PUSH1 0x40 DUP7 KECCAK256 ADD SLOAD PUSH2 0x4A4E JUMP JUMPDEST PUSH2 0x4A74 JUMP JUMPDEST POP CALLVALUE PUSH2 0x28A JUMPI DUP1 PUSH1 0x3 NOT CALLDATASIZE ADD SLT PUSH2 0x28A JUMPI PUSH1 0x20 PUSH1 0x5 SLOAD PUSH1 0x40 MLOAD SWAP1 DUP2 MSTORE RETURN JUMPDEST POP CALLVALUE PUSH2 0x28A JUMPI PUSH1 0x20 CALLDATASIZE PUSH1 0x3 NOT ADD SLT PUSH2 0x28A JUMPI PUSH1 0x1 PUSH1 0x40 PUSH1 0x20 SWAP3 PUSH1 0x4 CALLDATALOAD DUP2 MSTORE DUP1 DUP5 MSTORE KECCAK256 ADD SLOAD PUSH1 0x40 MLOAD SWAP1 DUP2 MSTORE RETURN JUMPDEST POP CALLVALUE PUSH2 0x28A JUMPI PUSH1 0x20 CALLDATASIZE PUSH1 0x3 NOT ADD SLT PUSH2 0x28A JUMPI PUSH2 0x3CCA PUSH2 0x46D7 JUMP JUMPDEST PUSH2 0x3CD2 PUSH2 0x49F6 JUMP JUMPDEST PUSH1 0x2 DUP1 SLOAD PUSH2 0x100 PUSH1 0x1 PUSH1 0xA8 SHL SUB NOT AND PUSH1 0x8 SWAP3 SWAP1 SWAP3 SHL PUSH2 0x100 PUSH1 0x1 PUSH1 0xA8 SHL SUB AND SWAP2 SWAP1 SWAP2 OR SWAP1 SSTORE DUP1 RETURN JUMPDEST POP CALLVALUE PUSH2 0x28A JUMPI PUSH1 0x20 CALLDATASIZE PUSH1 0x3 NOT ADD SLT PUSH2 0x28A JUMPI PUSH1 0x4 CALLDATALOAD PUSH4 0xFFFFFFFF PUSH1 0xE0 SHL DUP2 AND DUP1 SWAP2 SUB PUSH2 0x30C JUMPI PUSH1 0x20 SWAP1 PUSH4 0x7965DB0B PUSH1 0xE0 SHL DUP2 EQ SWAP1 DUP2 ISZERO PUSH2 0x3D40 JUMPI JUMPDEST POP PUSH1 0x40 MLOAD SWAP1 ISZERO ISZERO DUP2 MSTORE RETURN JUMPDEST PUSH4 0x1FFC9A7 PUSH1 0xE0 SHL EQ SWAP1 POP DUP3 PUSH2 0x3D35 JUMP JUMPDEST POP CALLVALUE PUSH2 0x28A JUMPI PUSH2 0x220 CALLDATASIZE PUSH1 0x3 NOT ADD SLT PUSH2 0x28A JUMPI PUSH1 0x4 CALLDATALOAD PUSH1 0x1 PUSH1 0x1 PUSH1 0x40 SHL SUB DUP2 GT PUSH2 0x30C JUMPI PUSH2 0x3D83 SWAP1 CALLDATASIZE SWAP1 PUSH1 0x4 ADD PUSH2 0x469A JUMP JUMPDEST SWAP1 SWAP2 PUSH1 0x24 CALLDATALOAD PUSH1 0x1 PUSH1 0x1 PUSH1 0x40 SHL SUB DUP2 GT PUSH2 0x30C JUMPI PUSH2 0x3DA4 SWAP1 CALLDATASIZE SWAP1 PUSH1 0x4 ADD PUSH2 0x469A JUMP JUMPDEST SWAP4 SWAP1 PUSH1 0x44 CALLDATALOAD PUSH1 0x1 PUSH1 0x1 PUSH1 0x40 SHL SUB DUP2 GT PUSH2 0x645 JUMPI PUSH2 0x3DC5 SWAP1 CALLDATASIZE SWAP1 PUSH1 0x4 ADD PUSH2 0x469A JUMP JUMPDEST SWAP1 PUSH1 0x64 CALLDATALOAD PUSH1 0x1 PUSH1 0x1 PUSH1 0x40 SHL SUB DUP2 GT PUSH2 0x1F70 JUMPI PUSH2 0x3DE5 SWAP1 CALLDATASIZE SWAP1 PUSH1 0x4 ADD PUSH2 0x469A JUMP JUMPDEST SWAP1 SWAP5 PUSH1 0x84 CALLDATALOAD PUSH1 0x1 PUSH1 0x1 PUSH1 0x40 SHL SUB DUP2 GT PUSH2 0x1F6C JUMPI PUSH2 0x3E06 SWAP1 CALLDATASIZE SWAP1 PUSH1 0x4 ADD PUSH2 0x469A JUMP JUMPDEST PUSH1 0x2 PUSH1 0xA4 CALLDATALOAD LT ISZERO PUSH2 0x4696 JUMPI PUSH1 0x3 PUSH2 0x144 CALLDATALOAD LT ISZERO PUSH2 0x4696 JUMPI PUSH1 0xFF PUSH2 0x164 CALLDATALOAD AND PUSH2 0x164 CALLDATALOAD SUB PUSH2 0x4696 JUMPI PUSH1 0xFF PUSH2 0x184 CALLDATALOAD AND PUSH2 0x184 CALLDATALOAD SUB PUSH2 0x4696 JUMPI PUSH2 0x3E45 PUSH2 0x46C7 JUMP JUMPDEST SWAP2 PUSH1 0xFF PUSH2 0x1E4 CALLDATALOAD AND PUSH2 0x1E4 CALLDATALOAD SUB PUSH2 0x1F68 JUMPI PUSH1 0x2 PUSH2 0x204 CALLDATALOAD LT ISZERO PUSH2 0x1F68 JUMPI PUSH2 0x3E6A PUSH2 0x4DEC JUMP JUMPDEST PUSH2 0x3E72 PUSH2 0x4DCE JUMP JUMPDEST PUSH2 0x3E7F PUSH1 0xC4 CALLDATALOAD ISZERO ISZERO PUSH2 0x4B67 JUMP JUMPDEST PUSH2 0x3E8C TIMESTAMP PUSH1 0xE4 CALLDATALOAD GT PUSH2 0x4BC2 JUMP JUMPDEST PUSH1 0x4 DUP1 SLOAD PUSH1 0x3 SLOAD PUSH1 0x2 SLOAD PUSH1 0x40 MLOAD PUSH4 0x37382D39 PUSH1 0xE2 SHL DUP2 MSTORE PUSH1 0x1 PUSH1 0x1 PUSH1 0xA0 SHL SUB SWAP4 DUP5 AND SWAP5 SWAP1 SWAP4 SWAP3 DUP4 AND SWAP3 PUSH1 0x20 SWAP3 DUP6 SWAP3 SWAP2 DUP4 SWAP2 PUSH1 0x8 SHR AND GAS STATICCALL SWAP2 DUP3 ISZERO PUSH2 0x468B JUMPI DUP14 SWAP3 PUSH2 0x4651 JUMPI JUMPDEST POP PUSH2 0x3EDD SWAP3 CALLER SWAP1 PUSH2 0x4D27 JUMP JUMPDEST PUSH2 0x124 CALLDATALOAD PUSH2 0x4629 JUMPI JUMPDEST PUSH1 0x5 SLOAD SWAP11 PUSH2 0x3EF3 DUP13 PUSH2 0x4C67 JUMP JUMPDEST PUSH1 0x5 SSTORE DUP12 DUP12 MSTORE PUSH1 0x7 PUSH1 0x20 MSTORE PUSH1 0x40 DUP12 KECCAK256 DUP13 DUP2 SSTORE PUSH1 0x2 DUP2 ADD DUP1 SLOAD PUSH1 0x1 PUSH1 0x1 PUSH1 0xA0 SHL SUB NOT AND CALLER OR SWAP1 SSTORE SWAP5 PUSH1 0x1 PUSH1 0x1 PUSH1 0x40 SHL SUB DUP3 GT PUSH2 0x4615 JUMPI DUP2 SWAP1 PUSH2 0x3F37 PUSH1 0x3 DUP9 ADD SLOAD PUSH2 0x480D JUMP JUMPDEST PUSH1 0x1F DUP2 GT PUSH2 0x45C3 JUMPI JUMPDEST POP DUP13 SWAP1 PUSH1 0x1F DUP4 GT PUSH1 0x1 EQ PUSH2 0x4557 JUMPI DUP14 SWAP3 PUSH2 0x454C JUMPI JUMPDEST POP POP DUP2 PUSH1 0x1 SHL SWAP2 PUSH1 0x0 NOT SWAP1 PUSH1 0x3 SHL SHR NOT AND OR PUSH1 0x3 DUP6 ADD SSTORE JUMPDEST PUSH1 0x1 PUSH1 0x1 PUSH1 0x40 SHL SUB DUP13 GT PUSH2 0x4302 JUMPI PUSH2 0x3F88 PUSH1 0x4 DUP6 ADD SLOAD PUSH2 0x480D JUMP JUMPDEST PUSH1 0x1F DUP2 GT PUSH2 0x4506 JUMPI JUMPDEST POP DUP12 DUP11 PUSH1 0x1F DUP3 GT PUSH1 0x1 EQ PUSH2 0x4497 JUMPI DUP12 SWAP2 PUSH2 0x448C JUMPI JUMPDEST POP PUSH1 0x0 NOT PUSH1 0x3 DUP15 SWAP1 SHL SHR NOT AND PUSH1 0x1 DUP14 SWAP1 SHL OR PUSH1 0x4 DUP6 ADD SSTORE JUMPDEST PUSH1 0x1 PUSH1 0x1 PUSH1 0x40 SHL SUB DUP8 GT PUSH2 0x4302 JUMPI PUSH2 0x3FD9 PUSH1 0x5 DUP6 ADD SLOAD PUSH2 0x480D JUMP JUMPDEST PUSH1 0x1F DUP2 GT PUSH2 0x4447 JUMPI JUMPDEST POP DUP7 DUP11 PUSH1 0x1F DUP3 GT PUSH1 0x1 EQ PUSH2 0x43DD JUMPI DUP12 SWAP2 PUSH2 0x43D2 JUMPI JUMPDEST POP DUP8 PUSH1 0x1 SHL SWAP1 PUSH1 0x0 NOT DUP10 PUSH1 0x3 SHL SHR NOT AND OR PUSH1 0x5 DUP6 ADD SSTORE JUMPDEST PUSH1 0x1 PUSH1 0x1 PUSH1 0x40 SHL SUB DUP6 GT PUSH2 0x4302 JUMPI PUSH2 0x4029 PUSH1 0x6 DUP6 ADD SLOAD PUSH2 0x480D JUMP JUMPDEST PUSH1 0x1F DUP2 GT PUSH2 0x438D JUMPI JUMPDEST POP DUP5 DUP11 PUSH1 0x1F DUP3 GT PUSH1 0x1 EQ PUSH2 0x4321 JUMPI DUP12 SWAP2 PUSH2 0x4316 JUMPI JUMPDEST POP DUP6 PUSH1 0x1 SHL SWAP1 PUSH1 0x0 NOT DUP8 PUSH1 0x3 SHL SHR NOT AND OR PUSH1 0x6 DUP6 ADD SSTORE JUMPDEST PUSH1 0x1 PUSH1 0x1 PUSH1 0x40 SHL SUB DUP3 GT PUSH2 0x4302 JUMPI PUSH2 0x4079 PUSH1 0x7 DUP6 ADD SLOAD PUSH2 0x480D JUMP JUMPDEST PUSH1 0x1F DUP2 GT PUSH2 0x42BE JUMPI JUMPDEST POP SWAP3 PUSH1 0x20 SWAP12 SWAP7 SWAP5 SWAP3 DUP11 SWAP3 DUP13 SWAP10 SWAP8 SWAP6 DUP5 SWAP1 PUSH1 0x1F DUP4 GT PUSH1 0x1 EQ PUSH2 0x4212 JUMPI SWAP6 DUP16 PUSH2 0x41C9 SWAP14 PUSH2 0x1A0F DUP15 PUSH1 0x40 DUP11 DUP6 SWAP16 SWAP15 SWAP12 SWAP11 PUSH2 0x1A3F SWAP15 SWAP11 DUP11 DUP6 SWAP16 SWAP12 DUP7 SWAP12 DUP11 SWAP16 SWAP14 PUSH2 0x1A27 SWAP15 SWAP3 PUSH2 0x4207 JUMPI JUMPDEST POP POP DUP2 PUSH1 0x1 SHL SWAP2 PUSH1 0x0 NOT SWAP1 PUSH1 0x3 SHL SHR NOT AND OR PUSH1 0x7 DUP4 ADD SSTORE JUMPDEST PUSH2 0x40EE PUSH1 0xA4 CALLDATALOAD PUSH1 0x8 DUP5 ADD PUSH2 0x4C8C JUMP JUMPDEST PUSH1 0xC4 CALLDATALOAD PUSH1 0x9 DUP4 ADD SSTORE PUSH1 0xE4 CALLDATALOAD PUSH1 0xB DUP4 ADD SSTORE PUSH2 0x2710 PUSH2 0x4116 PUSH2 0x104 CALLDATALOAD DUP1 PUSH1 0xC DUP7 ADD SSTORE PUSH1 0xC4 CALLDATALOAD PUSH2 0x4E54 JUMP JUMPDEST DIV PUSH1 0xD DUP4 ADD SSTORE PUSH2 0x124 CALLDATALOAD PUSH1 0xE DUP4 ADD SSTORE PUSH2 0x124 CALLDATALOAD PUSH1 0xF DUP4 ADD SSTORE PUSH1 0x11 DUP3 ADD PUSH2 0x413F PUSH2 0x144 CALLDATALOAD DUP3 PUSH2 0x4CC9 JUMP JUMPDEST DUP1 SLOAD PUSH3 0xFF0000 PUSH2 0x184 CALLDATALOAD PUSH1 0x10 SHL AND PUSH3 0xFFFF00 NOT SWAP1 SWAP2 AND PUSH2 0xFF00 PUSH2 0x164 CALLDATALOAD PUSH1 0x8 SHL AND OR OR DUP2 SSTORE PUSH2 0x1A4 CALLDATALOAD PUSH1 0x12 DUP5 ADD SSTORE PUSH1 0x14 DUP4 ADD DUP1 SLOAD SWAP3 ISZERO ISZERO PUSH1 0xFF AND PUSH1 0xFF NOT SWAP4 SWAP1 SWAP4 AND SWAP3 SWAP1 SWAP3 OR DUP3 SSTORE DUP1 SLOAD PUSH4 0xFF000000 NOT AND PUSH2 0x1E4 CALLDATALOAD PUSH1 0x18 SHL PUSH4 0xFF000000 AND OR SWAP1 SSTORE PUSH2 0x41AC PUSH2 0x204 CALLDATALOAD DUP3 PUSH2 0x4CD3 JUMP JUMPDEST PUSH3 0xFF0000 NOT DUP2 SLOAD AND SWAP1 SSTORE PUSH1 0x15 TIMESTAMP SWAP2 ADD SSTORE CALLER DUP2 MSTORE PUSH1 0xB DUP7 MSTORE KECCAK256 PUSH2 0x4CF2 JUMP JUMPDEST PUSH1 0x40 MLOAD SWAP1 DUP2 MSTORE TIMESTAMP DUP4 DUP3 ADD MSTORE DUP2 PUSH32 0xC0C6ED2669FEBBE340D8737E8EC17254FFD9E038B54A4585FF70AC3CA18956AA PUSH1 0x40 CALLER SWAP4 LOG3 PUSH1 0x1 DUP1 SSTORE PUSH1 0x40 MLOAD SWAP1 DUP2 MSTORE RETURN JUMPDEST ADD CALLDATALOAD SWAP1 POP CODESIZE DUP1 PUSH2 0x40C7 JUMP JUMPDEST SWAP12 SWAP5 SWAP4 SWAP3 SWAP2 SWAP1 PUSH1 0x7 DUP5 ADD DUP6 MSTORE DUP16 DUP6 KECCAK256 SWAP1 DUP6 JUMPDEST PUSH1 0x1F NOT DUP5 AND DUP2 LT PUSH2 0x428C JUMPI POP PUSH1 0x20 SWAP11 SWAP10 SWAP7 PUSH2 0x1A0F PUSH2 0x41C9 SWAP16 DUP16 SWAP11 SWAP5 DUP15 SWAP10 PUSH2 0x1A3F SWAP14 SWAP10 PUSH2 0x1A27 SWAP10 PUSH1 0x1 DUP16 SWAP11 PUSH1 0x40 SWAP6 DUP16 SWAP11 SWAP8 DUP14 SWAP9 DUP4 PUSH1 0x1F NOT DUP2 AND LT PUSH2 0x4272 JUMPI JUMPDEST POP POP POP DUP2 SHL ADD PUSH1 0x7 DUP4 ADD SSTORE PUSH2 0x40DF JUMP JUMPDEST ADD CALLDATALOAD PUSH1 0x0 NOT PUSH1 0x3 DUP5 SWAP1 SHL PUSH1 0xF8 AND SHR NOT AND SWAP1 SSTORE CODESIZE DUP1 DUP1 PUSH2 0x4262 JUMP JUMPDEST SWAP3 SWAP6 POP SWAP4 SWAP7 SWAP9 SWAP11 SWAP13 SWAP3 SWAP6 SWAP8 SWAP10 SWAP12 POP DUP16 PUSH1 0x1 DUP2 SWAP3 DUP7 DUP7 ADD CALLDATALOAD DUP2 SSTORE ADD SWAP5 ADD SWAP2 ADD SWAP3 DUP14 SWAP5 SWAP2 DUP16 SWAP13 SWAP11 SWAP9 SWAP7 SWAP4 SWAP14 SWAP12 SWAP10 SWAP8 SWAP5 PUSH2 0x4224 JUMP JUMPDEST PUSH1 0x7 DUP6 ADD DUP12 MSTORE PUSH1 0x20 DUP12 KECCAK256 PUSH1 0x1F DUP5 ADD PUSH1 0x5 SHR DUP2 ADD PUSH1 0x20 DUP6 LT PUSH2 0x42FB JUMPI JUMPDEST PUSH1 0x1F DUP4 ADD PUSH1 0x5 SHR DUP3 ADD DUP2 LT PUSH2 0x42F0 JUMPI POP POP PUSH2 0x4082 JUMP JUMPDEST DUP13 DUP2 SSTORE PUSH1 0x1 ADD PUSH2 0x42DA JUMP JUMPDEST POP DUP1 PUSH2 0x42DA JUMP JUMPDEST PUSH4 0x4E487B71 PUSH1 0xE0 SHL DUP11 MSTORE PUSH1 0x41 PUSH1 0x4 MSTORE PUSH1 0x24 DUP11 REVERT JUMPDEST SWAP1 POP DUP10 ADD CALLDATALOAD CODESIZE PUSH2 0x4047 JUMP JUMPDEST PUSH1 0x6 DUP7 ADD DUP13 MSTORE PUSH1 0x20 DUP13 KECCAK256 SWAP2 POP DUP12 JUMPDEST DUP12 PUSH1 0x1F NOT DUP10 AND DUP3 LT PUSH2 0x4375 JUMPI POP POP DUP7 PUSH1 0x1F NOT DUP2 AND LT PUSH2 0x435B JUMPI JUMPDEST POP POP PUSH1 0x1 DUP6 DUP2 SHL ADD PUSH1 0x6 DUP6 ADD SSTORE PUSH2 0x405E JUMP JUMPDEST DUP11 ADD CALLDATALOAD PUSH1 0x0 NOT PUSH1 0x3 DUP9 SWAP1 SHL PUSH1 0xF8 AND SHR NOT AND SWAP1 SSTORE CODESIZE DUP1 PUSH2 0x4349 JUMP JUMPDEST PUSH1 0x1 DUP4 SWAP5 PUSH1 0x20 SWAP4 SWAP5 DUP5 SWAP4 ADD CALLDATALOAD DUP2 SSTORE ADD SWAP4 ADD SWAP2 ADD PUSH2 0x432F JUMP JUMPDEST PUSH1 0x6 DUP6 ADD DUP12 MSTORE PUSH1 0x20 DUP12 KECCAK256 PUSH1 0x1F DUP8 ADD PUSH1 0x5 SHR DUP2 ADD PUSH1 0x20 DUP9 LT PUSH2 0x43CB JUMPI JUMPDEST DUP13 PUSH1 0x1F DUP5 ADD PUSH1 0x5 SHR DUP4 ADD DUP3 LT PUSH2 0x43C1 JUMPI POP POP POP PUSH2 0x4032 JUMP JUMPDEST DUP2 SSTORE PUSH1 0x1 ADD PUSH2 0x43A9 JUMP JUMPDEST POP DUP1 PUSH2 0x43A9 JUMP JUMPDEST SWAP1 POP DUP7 ADD CALLDATALOAD CODESIZE PUSH2 0x3FF7 JUMP JUMPDEST PUSH1 0x5 DUP7 ADD DUP13 MSTORE PUSH1 0x20 DUP13 KECCAK256 SWAP2 POP DUP12 JUMPDEST PUSH1 0x1F NOT DUP11 AND DUP2 LT PUSH2 0x442F JUMPI POP DUP9 PUSH1 0x1F NOT DUP2 AND LT PUSH2 0x4415 JUMPI JUMPDEST POP POP PUSH1 0x1 DUP8 DUP2 SHL ADD PUSH1 0x5 DUP6 ADD SSTORE PUSH2 0x400E JUMP JUMPDEST DUP8 ADD CALLDATALOAD PUSH1 0x0 NOT PUSH1 0x3 DUP11 SWAP1 SHL PUSH1 0xF8 AND SHR NOT AND SWAP1 SSTORE CODESIZE DUP1 PUSH2 0x4403 JUMP JUMPDEST SWAP1 SWAP2 PUSH1 0x20 PUSH1 0x1 DUP2 SWAP3 DUP6 DUP13 ADD CALLDATALOAD DUP2 SSTORE ADD SWAP4 ADD SWAP2 ADD PUSH2 0x43EB JUMP JUMPDEST PUSH1 0x5 DUP6 ADD DUP12 MSTORE PUSH1 0x20 DUP12 KECCAK256 PUSH1 0x1F DUP10 ADD PUSH1 0x5 SHR DUP2 ADD PUSH1 0x20 DUP11 LT PUSH2 0x4485 JUMPI JUMPDEST DUP13 PUSH1 0x1F DUP5 ADD PUSH1 0x5 SHR DUP4 ADD DUP3 LT PUSH2 0x447B JUMPI POP POP POP PUSH2 0x3FE2 JUMP JUMPDEST DUP2 SSTORE PUSH1 0x1 ADD PUSH2 0x4463 JUMP JUMPDEST POP DUP1 PUSH2 0x4463 JUMP JUMPDEST SWAP1 POP DUP9 ADD CALLDATALOAD CODESIZE PUSH2 0x3FA6 JUMP JUMPDEST PUSH1 0x4 DUP7 ADD DUP13 MSTORE PUSH1 0x20 DUP13 KECCAK256 SWAP2 POP DUP12 DUP15 JUMPDEST DUP12 PUSH1 0x1F NOT DUP3 AND DUP4 LT PUSH2 0x44EC JUMPI POP PUSH1 0x1F NOT DUP2 AND LT SWAP1 POP PUSH2 0x44D2 JUMPI JUMPDEST POP POP PUSH1 0x1 DUP13 DUP2 SHL ADD PUSH1 0x4 DUP6 ADD SSTORE PUSH2 0x3FBE JUMP JUMPDEST DUP10 ADD CALLDATALOAD PUSH1 0x0 NOT PUSH1 0x3 DUP16 SWAP1 SHL PUSH1 0xF8 AND SHR NOT AND SWAP1 SSTORE CODESIZE DUP1 PUSH2 0x44C0 JUMP JUMPDEST PUSH1 0x1 DUP5 SWAP6 PUSH1 0x20 SWAP4 SWAP5 SWAP6 DUP5 SWAP4 ADD CALLDATALOAD DUP2 SSTORE ADD SWAP5 ADD SWAP3 ADD SWAP1 PUSH2 0x44A6 JUMP JUMPDEST PUSH1 0x4 DUP6 ADD DUP12 MSTORE PUSH1 0x20 DUP12 KECCAK256 DUP14 PUSH1 0x20 PUSH1 0x1F DUP3 ADD PUSH1 0x5 SHR DUP4 ADD SWAP2 LT PUSH2 0x4545 JUMPI JUMPDEST DUP13 PUSH1 0x1F DUP5 ADD PUSH1 0x5 SHR DUP4 ADD DUP3 LT PUSH2 0x453B JUMPI POP POP POP PUSH2 0x3F91 JUMP JUMPDEST DUP2 SSTORE PUSH1 0x1 ADD PUSH2 0x4523 JUMP JUMPDEST POP DUP1 PUSH2 0x4523 JUMP JUMPDEST ADD CALLDATALOAD SWAP1 POP CODESIZE DUP1 PUSH2 0x3F55 JUMP JUMPDEST PUSH1 0x3 DUP9 ADD DUP15 MSTORE PUSH1 0x20 DUP15 KECCAK256 DUP15 SWAP5 POP SWAP2 JUMPDEST PUSH1 0x1F NOT DUP5 AND DUP6 LT PUSH2 0x45AB JUMPI PUSH1 0x1 SWAP5 POP DUP4 PUSH1 0x1F NOT DUP2 AND LT PUSH2 0x4591 JUMPI JUMPDEST POP POP POP DUP2 SHL ADD PUSH1 0x3 DUP6 ADD SSTORE PUSH2 0x3F6D JUMP JUMPDEST ADD CALLDATALOAD PUSH1 0x0 NOT PUSH1 0x3 DUP5 SWAP1 SHL PUSH1 0xF8 AND SHR NOT AND SWAP1 SSTORE CODESIZE DUP1 DUP1 PUSH2 0x4581 JUMP JUMPDEST DUP2 DUP2 ADD CALLDATALOAD DUP4 SSTORE PUSH1 0x20 SWAP5 DUP6 ADD SWAP5 PUSH1 0x1 SWAP1 SWAP4 ADD SWAP3 ADD PUSH2 0x4566 JUMP JUMPDEST SWAP1 SWAP2 POP PUSH1 0x3 DUP8 ADD DUP14 MSTORE PUSH1 0x20 DUP14 KECCAK256 PUSH1 0x1F DUP5 ADD PUSH1 0x5 SHR DUP2 ADD PUSH1 0x20 DUP6 LT PUSH2 0x460E JUMPI JUMPDEST DUP5 SWAP4 SWAP3 SWAP2 SWAP1 DUP16 JUMPDEST PUSH1 0x1F DUP5 ADD PUSH1 0x5 SHR DUP4 ADD DUP3 LT PUSH2 0x4600 JUMPI POP POP POP PUSH2 0x3F40 JUMP JUMPDEST DUP2 SSTORE DUP6 SWAP5 POP PUSH1 0x1 ADD DUP16 PUSH2 0x45E9 JUMP JUMPDEST POP DUP1 PUSH2 0x45E2 JUMP JUMPDEST PUSH4 0x4E487B71 PUSH1 0xE0 SHL DUP13 MSTORE PUSH1 0x41 PUSH1 0x4 MSTORE PUSH1 0x24 DUP13 REVERT JUMPDEST PUSH1 0x4 SLOAD PUSH1 0x3 SLOAD PUSH2 0x464C SWAP2 PUSH2 0x124 CALLDATALOAD SWAP2 PUSH1 0x1 PUSH1 0x1 PUSH1 0xA0 SHL SUB SWAP1 DUP2 AND SWAP2 CALLER SWAP2 AND PUSH2 0x4D27 JUMP JUMPDEST PUSH2 0x3EE6 JUMP JUMPDEST SWAP1 SWAP2 POP PUSH1 0x20 DUP2 RETURNDATASIZE PUSH1 0x20 GT PUSH2 0x4683 JUMPI JUMPDEST DUP2 PUSH2 0x466D PUSH1 0x20 SWAP4 DUP4 PUSH2 0x48A8 JUMP JUMPDEST DUP2 ADD SUB SLT PUSH2 0x467F JUMPI MLOAD SWAP1 PUSH2 0x3EDD PUSH2 0x3ED1 JUMP JUMPDEST DUP13 DUP1 REVERT JUMPDEST RETURNDATASIZE SWAP2 POP PUSH2 0x4660 JUMP JUMPDEST PUSH1 0x40 MLOAD RETURNDATASIZE DUP16 DUP3 RETURNDATACOPY RETURNDATASIZE SWAP1 REVERT JUMPDEST DUP9 DUP1 REVERT JUMPDEST SWAP2 DUP2 PUSH1 0x1F DUP5 ADD SLT ISZERO PUSH2 0x1F0F JUMPI DUP3 CALLDATALOAD SWAP2 PUSH1 0x1 PUSH1 0x1 PUSH1 0x40 SHL SUB DUP4 GT PUSH2 0x1F0F JUMPI PUSH1 0x20 DUP4 DUP2 DUP7 ADD SWAP6 ADD ADD GT PUSH2 0x1F0F JUMPI JUMP JUMPDEST PUSH2 0x1C4 CALLDATALOAD SWAP1 DUP2 ISZERO ISZERO DUP3 SUB PUSH2 0x1F0F JUMPI JUMP JUMPDEST PUSH1 0x4 CALLDATALOAD SWAP1 PUSH1 0x1 PUSH1 0x1 PUSH1 0xA0 SHL SUB DUP3 AND DUP3 SUB PUSH2 0x1F0F JUMPI JUMP JUMPDEST PUSH1 0x24 CALLDATALOAD SWAP1 PUSH1 0x1 PUSH1 0x1 PUSH1 0xA0 SHL SUB DUP3 AND DUP3 SUB PUSH2 0x1F0F JUMPI JUMP JUMPDEST DUP1 SLOAD DUP3 LT ISZERO PUSH2 0x471B JUMPI PUSH1 0x0 MSTORE PUSH1 0x20 PUSH1 0x0 KECCAK256 ADD SWAP1 PUSH1 0x0 SWAP1 JUMP JUMPDEST PUSH4 0x4E487B71 PUSH1 0xE0 SHL PUSH1 0x0 MSTORE PUSH1 0x32 PUSH1 0x4 MSTORE PUSH1 0x24 PUSH1 0x0 REVERT JUMPDEST PUSH1 0x20 SWAP1 DUP2 PUSH1 0x40 DUP2 DUP4 ADD SWAP3 DUP3 DUP2 MSTORE DUP6 MLOAD DUP1 SWAP5 MSTORE ADD SWAP4 ADD SWAP2 PUSH1 0x0 JUMPDEST DUP3 DUP2 LT PUSH2 0x4758 JUMPI POP POP POP POP SWAP1 JUMP JUMPDEST DUP4 MLOAD DUP6 MSTORE SWAP4 DUP2 ADD SWAP4 SWAP3 DUP2 ADD SWAP3 PUSH1 0x1 ADD PUSH2 0x474A JUMP JUMPDEST PUSH1 0x3 GT ISZERO PUSH2 0xE16 JUMPI JUMP JUMPDEST SWAP1 PUSH1 0x4 DUP3 LT ISZERO PUSH2 0xE16 JUMPI MSTORE JUMP JUMPDEST SWAP12 SWAP10 SWAP8 SWAP6 SWAP4 SWAP2 SWAP15 SWAP14 SWAP13 SWAP11 SWAP9 SWAP7 SWAP5 SWAP3 SWAP1 SWAP15 PUSH2 0x1C0 DUP14 ADD SWAP16 DUP14 MSTORE PUSH1 0x20 DUP14 ADD MSTORE PUSH1 0x1 PUSH1 0xA0 SHL PUSH1 0x1 SWAP1 SUB AND PUSH1 0x40 DUP13 ADD MSTORE PUSH2 0x47B8 DUP2 PUSH2 0x476C JUMP JUMPDEST PUSH1 0x60 DUP12 ADD MSTORE PUSH1 0x80 DUP11 ADD MSTORE PUSH1 0xA0 DUP10 ADD MSTORE PUSH1 0xC0 DUP9 ADD MSTORE PUSH1 0xE0 DUP8 ADD MSTORE PUSH2 0x47DA DUP2 PUSH2 0x476C JUMP JUMPDEST PUSH2 0x100 DUP7 ADD MSTORE PUSH1 0xFF AND PUSH2 0x120 DUP6 ADD MSTORE PUSH1 0xFF AND PUSH2 0x140 DUP5 ADD MSTORE PUSH2 0x160 DUP4 ADD MSTORE PUSH2 0x180 DUP3 ADD MSTORE PUSH2 0x1A0 ADD PUSH2 0x480B SWAP2 PUSH2 0x4776 JUMP JUMPDEST JUMP JUMPDEST SWAP1 PUSH1 0x1 DUP3 DUP2 SHR SWAP3 AND DUP1 ISZERO PUSH2 0x483D JUMPI JUMPDEST PUSH1 0x20 DUP4 LT EQ PUSH2 0x4827 JUMPI JUMP JUMPDEST PUSH4 0x4E487B71 PUSH1 0xE0 SHL PUSH1 0x0 MSTORE PUSH1 0x22 PUSH1 0x4 MSTORE PUSH1 0x24 PUSH1 0x0 REVERT JUMPDEST SWAP2 PUSH1 0x7F AND SWAP2 PUSH2 0x481C JUMP JUMPDEST PUSH1 0x1 PUSH1 0x1 PUSH1 0x40 SHL SUB DUP2 GT PUSH2 0x485A JUMPI PUSH1 0x40 MSTORE JUMP JUMPDEST PUSH4 0x4E487B71 PUSH1 0xE0 SHL PUSH1 0x0 MSTORE PUSH1 0x41 PUSH1 0x4 MSTORE PUSH1 0x24 PUSH1 0x0 REVERT JUMPDEST PUSH2 0x1C0 DUP2 ADD SWAP1 DUP2 LT PUSH1 0x1 PUSH1 0x1 PUSH1 0x40 SHL SUB DUP3 GT OR PUSH2 0x485A JUMPI PUSH1 0x40 MSTORE JUMP JUMPDEST PUSH2 0x400 DUP2 ADD SWAP1 DUP2 LT PUSH1 0x1 PUSH1 0x1 PUSH1 0x40 SHL SUB DUP3 GT OR PUSH2 0x485A JUMPI PUSH1 0x40 MSTORE JUMP JUMPDEST SWAP1 PUSH1 0x1F DUP1 NOT SWAP2 ADD AND DUP2 ADD SWAP1 DUP2 LT PUSH1 0x1 PUSH1 0x1 PUSH1 0x40 SHL SUB DUP3 GT OR PUSH2 0x485A JUMPI PUSH1 0x40 MSTORE JUMP JUMPDEST SWAP1 PUSH1 0x40 MLOAD SWAP2 DUP3 PUSH1 0x0 DUP3 SLOAD SWAP3 PUSH2 0x48DD DUP5 PUSH2 0x480D JUMP JUMPDEST SWAP1 DUP2 DUP5 MSTORE PUSH1 0x1 SWAP5 DUP6 DUP2 AND SWAP1 DUP2 PUSH1 0x0 EQ PUSH2 0x494A JUMPI POP PUSH1 0x1 EQ PUSH2 0x4907 JUMPI JUMPDEST POP POP PUSH2 0x480B SWAP3 POP SUB DUP4 PUSH2 0x48A8 JUMP JUMPDEST SWAP1 SWAP4 SWAP2 POP PUSH1 0x0 MSTORE PUSH1 0x20 SWAP1 DUP2 PUSH1 0x0 KECCAK256 SWAP4 PUSH1 0x0 SWAP2 JUMPDEST DUP2 DUP4 LT PUSH2 0x4932 JUMPI POP POP PUSH2 0x480B SWAP4 POP DUP3 ADD ADD CODESIZE DUP1 PUSH2 0x48F9 JUMP JUMPDEST DUP6 SLOAD DUP9 DUP5 ADD DUP6 ADD MSTORE SWAP5 DUP6 ADD SWAP5 DUP8 SWAP5 POP SWAP2 DUP4 ADD SWAP2 PUSH2 0x491A JUMP JUMPDEST SWAP2 POP POP PUSH2 0x480B SWAP5 POP PUSH1 0x20 SWAP3 POP PUSH1 0xFF NOT AND DUP3 DUP5 ADD MSTORE ISZERO ISZERO PUSH1 0x5 SHL DUP3 ADD ADD CODESIZE DUP1 PUSH2 0x48F9 JUMP JUMPDEST SWAP2 SWAP1 DUP3 MLOAD SWAP3 DUP4 DUP3 MSTORE PUSH1 0x0 JUMPDEST DUP5 DUP2 LT PUSH2 0x4999 JUMPI POP POP DUP3 PUSH1 0x0 PUSH1 0x20 DUP1 SWAP5 SWAP6 DUP5 ADD ADD MSTORE PUSH1 0x1F DUP1 NOT SWAP2 ADD AND ADD ADD SWAP1 JUMP JUMPDEST PUSH1 0x20 DUP2 DUP4 ADD DUP2 ADD MLOAD DUP5 DUP4 ADD DUP3 ADD MSTORE ADD PUSH2 0x4978 JUMP JUMPDEST PUSH1 0x2 GT ISZERO PUSH2 0xE16 JUMPI JUMP JUMPDEST SWAP1 PUSH1 0xB DUP3 LT ISZERO PUSH2 0xE16 JUMPI MSTORE JUMP JUMPDEST PUSH1 0x40 SWAP1 PUSH1 0x3 NOT ADD SLT PUSH2 0x1F0F JUMPI PUSH1 0x4 CALLDATALOAD SWAP1 PUSH1 0x24 CALLDATALOAD SWAP1 JUMP JUMPDEST DUP1 SLOAD DUP3 LT ISZERO PUSH2 0x471B JUMPI PUSH1 0x0 MSTORE PUSH1 0xB PUSH1 0x20 PUSH1 0x0 KECCAK256 SWAP2 MUL ADD SWAP1 PUSH1 0x0 SWAP1 JUMP JUMPDEST CALLER PUSH1 0x0 SWAP1 DUP2 MSTORE PUSH32 0xAD3228B676F7D3CD4284A5443F17F1962B36E491B30A40B2405849E597BA5FB5 PUSH1 0x20 MSTORE PUSH1 0x40 DUP2 KECCAK256 SLOAD PUSH1 0xFF AND ISZERO PUSH2 0x4A30 JUMPI POP JUMP JUMPDEST PUSH1 0x44 SWAP1 PUSH1 0x40 MLOAD SWAP1 PUSH4 0xE2517D3F PUSH1 0xE0 SHL DUP3 MSTORE CALLER PUSH1 0x4 DUP4 ADD MSTORE PUSH1 0x24 DUP3 ADD MSTORE REVERT JUMPDEST DUP1 PUSH1 0x0 MSTORE PUSH1 0x0 PUSH1 0x20 MSTORE PUSH1 0x40 PUSH1 0x0 KECCAK256 CALLER PUSH1 0x0 MSTORE PUSH1 0x20 MSTORE PUSH1 0xFF PUSH1 0x40 PUSH1 0x0 KECCAK256 SLOAD AND ISZERO PUSH2 0x4A30 JUMPI POP JUMP JUMPDEST SWAP1 PUSH1 0x0 SWAP2 DUP1 DUP4 MSTORE DUP3 PUSH1 0x20 MSTORE PUSH1 0x40 DUP4 KECCAK256 SWAP2 PUSH1 0x1 DUP1 PUSH1 0xA0 SHL SUB AND SWAP2 DUP3 DUP5 MSTORE PUSH1 0x20 MSTORE PUSH1 0xFF PUSH1 0x40 DUP5 KECCAK256 SLOAD AND ISZERO PUSH1 0x0 EQ PUSH2 0x4AED JUMPI DUP1 DUP4 MSTORE DUP3 PUSH1 0x20 MSTORE PUSH1 0x40 DUP4 KECCAK256 DUP3 DUP5 MSTORE PUSH1 0x20 MSTORE PUSH1 0x40 DUP4 KECCAK256 PUSH1 0x1 PUSH1 0xFF NOT DUP3 SLOAD AND OR SWAP1 SSTORE PUSH32 0x2F8788117E7EFF1D82E926EC794901D17C78024A50270940304540A733656F0D CALLER SWAP4 DUP1 LOG4 PUSH1 0x1 SWAP1 JUMP JUMPDEST POP POP SWAP1 JUMP JUMPDEST SWAP1 PUSH1 0x0 SWAP2 DUP1 DUP4 MSTORE DUP3 PUSH1 0x20 MSTORE PUSH1 0x40 DUP4 KECCAK256 SWAP2 PUSH1 0x1 DUP1 PUSH1 0xA0 SHL SUB AND SWAP2 DUP3 DUP5 MSTORE PUSH1 0x20 MSTORE PUSH1 0xFF PUSH1 0x40 DUP5 KECCAK256 SLOAD AND PUSH1 0x0 EQ PUSH2 0x4AED JUMPI DUP1 DUP4 MSTORE DUP3 PUSH1 0x20 MSTORE PUSH1 0x40 DUP4 KECCAK256 DUP3 DUP5 MSTORE PUSH1 0x20 MSTORE PUSH1 0x40 DUP4 KECCAK256 PUSH1 0xFF NOT DUP2 SLOAD AND SWAP1 SSTORE PUSH32 0xF6391F5C32D9C69D2A47EA670B442974B53935D1EDC7FD64EB21E047A839171B CALLER SWAP4 DUP1 LOG4 PUSH1 0x1 SWAP1 JUMP JUMPDEST ISZERO PUSH2 0x4B6E JUMPI JUMP JUMPDEST PUSH1 0x40 MLOAD PUSH3 0x461BCD PUSH1 0xE5 SHL DUP2 MSTORE PUSH1 0x20 PUSH1 0x4 DUP3 ADD MSTORE PUSH1 0x26 PUSH1 0x24 DUP3 ADD MSTORE PUSH32 0x4F7074696F6E73436F72653A206E6F74696F6E616C206D75737420626520706F PUSH1 0x44 DUP3 ADD MSTORE PUSH6 0x736974697665 PUSH1 0xD0 SHL PUSH1 0x64 DUP3 ADD MSTORE PUSH1 0x84 SWAP1 REVERT JUMPDEST ISZERO PUSH2 0x4BC9 JUMPI JUMP JUMPDEST PUSH1 0x40 MLOAD PUSH3 0x461BCD PUSH1 0xE5 SHL DUP2 MSTORE PUSH1 0x20 PUSH1 0x4 DUP3 ADD MSTORE PUSH1 0x25 PUSH1 0x24 DUP3 ADD MSTORE PUSH32 0x4F7074696F6E73436F72653A20657870697279206D75737420626520696E2066 PUSH1 0x44 DUP3 ADD MSTORE PUSH5 0x7574757265 PUSH1 0xD8 SHL PUSH1 0x64 DUP3 ADD MSTORE PUSH1 0x84 SWAP1 REVERT JUMPDEST ISZERO PUSH2 0x4C23 JUMPI JUMP JUMPDEST PUSH1 0x64 PUSH1 0x40 MLOAD PUSH3 0x461BCD PUSH1 0xE5 SHL DUP2 MSTORE PUSH1 0x20 PUSH1 0x4 DUP3 ADD MSTORE PUSH1 0x20 PUSH1 0x24 DUP3 ADD MSTORE PUSH32 0x4F7074696F6E73436F72653A206D617267696E207261746520746F6F206C6F77 PUSH1 0x44 DUP3 ADD MSTORE REVERT JUMPDEST PUSH1 0x0 NOT DUP2 EQ PUSH2 0x4C76 JUMPI PUSH1 0x1 ADD SWAP1 JUMP JUMPDEST PUSH4 0x4E487B71 PUSH1 0xE0 SHL PUSH1 0x0 MSTORE PUSH1 0x11 PUSH1 0x4 MSTORE PUSH1 0x24 PUSH1 0x0 REVERT JUMPDEST SWAP1 PUSH2 0x4C96 DUP2 PUSH2 0x49AD JUMP JUMPDEST PUSH1 0xFF DUP1 NOT DUP4 SLOAD AND SWAP2 AND OR SWAP1 SSTORE JUMP JUMPDEST SWAP1 PUSH2 0x4CAE DUP2 PUSH2 0x476C JUMP JUMPDEST PUSH5 0xFF00000000 DUP3 SLOAD SWAP2 PUSH1 0x20 SHL AND SWAP1 PUSH5 0xFF00000000 NOT AND OR SWAP1 SSTORE JUMP JUMPDEST SWAP1 PUSH2 0x4C96 DUP2 PUSH2 0x476C JUMP JUMPDEST SWAP1 PUSH2 0x4CDD DUP2 PUSH2 0x49AD JUMP JUMPDEST PUSH2 0xFF00 DUP3 SLOAD SWAP2 PUSH1 0x8 SHL AND SWAP1 PUSH2 0xFF00 NOT AND OR SWAP1 SSTORE JUMP JUMPDEST DUP1 SLOAD PUSH1 0x1 PUSH1 0x40 SHL DUP2 LT ISZERO PUSH2 0x485A JUMPI PUSH2 0x4D0F SWAP2 PUSH1 0x1 DUP3 ADD DUP2 SSTORE PUSH2 0x4703 JUMP JUMPDEST DUP2 SWAP3 SWAP2 SLOAD SWAP1 PUSH1 0x3 SHL SWAP2 DUP3 SHL SWAP2 PUSH1 0x0 NOT SWAP1 SHL NOT AND OR SWAP1 SSTORE JUMP JUMPDEST PUSH1 0x40 MLOAD PUSH4 0x23B872DD PUSH1 0xE0 SHL PUSH1 0x20 DUP1 DUP4 ADD SWAP2 DUP3 MSTORE PUSH1 0x1 PUSH1 0x1 PUSH1 0xA0 SHL SUB SWAP5 DUP6 AND PUSH1 0x24 DUP5 ADD MSTORE SWAP5 SWAP1 SWAP4 AND PUSH1 0x44 DUP3 ADD MSTORE PUSH1 0x64 DUP1 DUP3 ADD SWAP6 SWAP1 SWAP6 MSTORE SWAP4 DUP5 MSTORE SWAP3 PUSH1 0x0 SWAP2 SWAP1 PUSH2 0x4D6F PUSH1 0x84 DUP3 PUSH2 0x48A8 JUMP JUMPDEST MLOAD SWAP1 DUP3 DUP6 GAS CALL ISZERO PUSH2 0x4DC2 JUMPI PUSH1 0x0 MLOAD RETURNDATASIZE PUSH2 0x4DB9 JUMPI POP PUSH1 0x1 PUSH1 0x1 PUSH1 0xA0 SHL SUB DUP2 AND EXTCODESIZE ISZERO JUMPDEST PUSH2 0x4D97 JUMPI POP JUMP JUMPDEST PUSH1 0x40 MLOAD PUSH4 0x5274AFE7 PUSH1 0xE0 SHL DUP2 MSTORE PUSH1 0x1 PUSH1 0x1 PUSH1 0xA0 SHL SUB SWAP1 SWAP2 AND PUSH1 0x4 DUP3 ADD MSTORE PUSH1 0x24 SWAP1 REVERT JUMPDEST PUSH1 0x1 EQ ISZERO PUSH2 0x4D90 JUMP JUMPDEST PUSH1 0x40 MLOAD RETURNDATASIZE PUSH1 0x0 DUP3 RETURNDATACOPY RETURNDATASIZE SWAP1 REVERT JUMPDEST PUSH1 0xFF PUSH1 0x2 SLOAD AND PUSH2 0x4DDA JUMPI JUMP JUMPDEST PUSH1 0x40 MLOAD PUSH4 0xD93C0665 PUSH1 0xE0 SHL DUP2 MSTORE PUSH1 0x4 SWAP1 REVERT JUMPDEST PUSH1 0x2 PUSH1 0x1 SLOAD EQ PUSH2 0x4DFD JUMPI PUSH1 0x2 PUSH1 0x1 SSTORE JUMP JUMPDEST PUSH1 0x40 MLOAD PUSH4 0x3EE5AEB5 PUSH1 0xE0 SHL DUP2 MSTORE PUSH1 0x4 SWAP1 REVERT JUMPDEST ISZERO PUSH2 0x4E16 JUMPI JUMP JUMPDEST PUSH1 0x40 MLOAD PUSH3 0x461BCD PUSH1 0xE5 SHL DUP2 MSTORE PUSH1 0x20 PUSH1 0x4 DUP3 ADD MSTORE PUSH1 0x16 PUSH1 0x24 DUP3 ADD MSTORE PUSH22 0x27B83A34B7B739A1B7B9329D103737BA10313ABCB2B9 PUSH1 0x51 SHL PUSH1 0x44 DUP3 ADD MSTORE PUSH1 0x64 SWAP1 REVERT JUMPDEST DUP2 DUP2 MUL SWAP3 SWAP2 DUP2 ISZERO SWAP2 DUP5 DIV EQ OR ISZERO PUSH2 0x4C76 JUMPI JUMP JUMPDEST DUP2 ISZERO PUSH2 0x4E71 JUMPI DIV SWAP1 JUMP JUMPDEST PUSH4 0x4E487B71 PUSH1 0xE0 SHL PUSH1 0x0 MSTORE PUSH1 0x12 PUSH1 0x4 MSTORE PUSH1 0x24 PUSH1 0x0 REVERT JUMPDEST SWAP2 SWAP1 DUP3 ADD DUP1 SWAP3 GT PUSH2 0x4C76 JUMPI JUMP JUMPDEST ISZERO PUSH2 0x4E9B JUMPI JUMP JUMPDEST PUSH1 0x40 MLOAD PUSH3 0x461BCD PUSH1 0xE5 SHL DUP2 MSTORE PUSH1 0x20 PUSH1 0x4 DUP3 ADD MSTORE PUSH1 0x1D PUSH1 0x24 DUP3 ADD MSTORE PUSH32 0x4F7074696F6E73436F72653A20696E76616C6964206F72646572206964000000 PUSH1 0x44 DUP3 ADD MSTORE PUSH1 0x64 SWAP1 REVERT JUMPDEST PUSH1 0xA PUSH2 0x1A0 SWAP2 DUP4 MLOAD DUP2 SSTORE PUSH1 0x20 DUP5 ADD MLOAD PUSH1 0x1 DUP3 ADD SSTORE PUSH1 0x2 DUP2 ADD PUSH1 0x1 DUP1 PUSH1 0xA0 SHL SUB PUSH1 0x40 DUP7 ADD MLOAD AND DUP2 SLOAD SWAP1 PUSH1 0x60 DUP8 ADD MLOAD PUSH2 0x4F16 DUP2 PUSH2 0x476C JUMP JUMPDEST PUSH2 0x4F1F DUP2 PUSH2 0x476C JUMP JUMPDEST PUSH1 0xFF PUSH1 0xA0 SHL SWAP1 PUSH1 0xA0 SHL AND SWAP2 PUSH11 0xFFFFFFFFFFFFFFFFFFFFFF PUSH1 0xA8 SHL AND OR OR SWAP1 SSTORE PUSH1 0x80 DUP5 ADD MLOAD PUSH1 0x3 DUP3 ADD SSTORE PUSH1 0xA0 DUP5 ADD MLOAD PUSH1 0x4 DUP3 ADD SSTORE PUSH1 0xC0 DUP5 ADD MLOAD PUSH1 0x5 DUP3 ADD SSTORE PUSH1 0xE0 DUP5 ADD MLOAD PUSH1 0x6 DUP3 ADD SSTORE PUSH2 0x4FBD PUSH1 0x7 DUP3 ADD PUSH2 0x4F85 PUSH2 0x100 DUP8 ADD MLOAD PUSH2 0x4F7F DUP2 PUSH2 0x476C JUMP JUMPDEST DUP3 PUSH2 0x4CC9 JUMP JUMPDEST PUSH2 0x120 DUP7 ADD MLOAD DUP2 SLOAD PUSH2 0xFF00 NOT AND PUSH1 0x8 SWAP2 SWAP1 SWAP2 SHL PUSH2 0xFF00 AND OR DUP2 SSTORE PUSH2 0x140 DUP7 ADD MLOAD DUP2 SLOAD PUSH3 0xFF0000 NOT AND PUSH1 0x10 SWAP2 SWAP1 SWAP2 SHL PUSH3 0xFF0000 AND OR SWAP1 SSTORE JUMP JUMPDEST PUSH2 0x160 DUP5 ADD MLOAD PUSH1 0x8 DUP3 ADD SSTORE PUSH2 0x180 DUP5 ADD MLOAD PUSH1 0x9 DUP3 ADD SSTORE ADD SWAP2 ADD MLOAD PUSH1 0x4 DUP2 LT ISZERO PUSH2 0xE16 JUMPI PUSH1 0xFF DUP1 NOT DUP4 SLOAD AND SWAP2 AND OR SWAP1 SSTORE JUMP JUMPDEST ISZERO PUSH2 0x4FF5 JUMPI JUMP JUMPDEST PUSH1 0x40 MLOAD PUSH3 0x461BCD PUSH1 0xE5 SHL DUP2 MSTORE PUSH1 0x20 PUSH1 0x4 DUP3 ADD MSTORE PUSH1 0x17 PUSH1 0x24 DUP3 ADD MSTORE PUSH32 0x4F7074696F6E73436F72653A206E6F742073656C6C6572000000000000000000 PUSH1 0x44 DUP3 ADD MSTORE PUSH1 0x64 SWAP1 REVERT JUMPDEST ISZERO PUSH2 0x5041 JUMPI JUMP JUMPDEST PUSH1 0x40 MLOAD PUSH3 0x461BCD PUSH1 0xE5 SHL DUP2 MSTORE PUSH1 0x20 PUSH1 0x4 DUP3 ADD MSTORE PUSH1 0x1B PUSH1 0x24 DUP3 ADD MSTORE PUSH32 0x4F7074696F6E73436F72653A206F72646572206E6F74206C6976650000000000 PUSH1 0x44 DUP3 ADD MSTORE PUSH1 0x64 SWAP1 REVERT JUMPDEST SWAP2 SWAP1 DUP3 SUB SWAP2 DUP3 GT PUSH2 0x4C76 JUMPI JUMP JUMPDEST SWAP1 DUP2 MLOAD DUP2 LT ISZERO PUSH2 0x471B JUMPI ADD PUSH1 0x20 ADD SWAP1 JUMP INVALID 0xCE GASPRICE BALANCE 0xBA 0xF9 SWAP6 PUSH15 0x86200EE7044A75C2BEFBD05091279 DUP12 PUSH28 0xCD25D05831AB9592A26469706673582212200EF63C1BEBF5FE213C4C 0xE4 DUP10 PUSH10 0xFABC742DA1CBE5429298 DIV PUSH25 0x30E4CEE87ACB5764736F6C6343000814003300000000000000 "},"methodIdentifiers":{"DEFAULT_ADMIN_ROLE()":"a217fddf","acceptQuote(uint256)":"5d7ffe7b","addMargin(uint256,uint256)":"d41194b8","buyerOrders(address,uint256)":"4500cb60","cancelRFQ(uint256)":"bc0ef26b","config()":"79502c55","createBuyerRFQ(string,string,string,string,string,uint8,uint256,uint256,uint256,uint256,uint8,address,uint256,uint256,bool,uint8,uint8,uint8,uint8)":"979b4e6d","createSellerOrder(string,string,string,string,string,uint8,uint256,uint256,uint256,uint256,uint8,uint8,uint8,uint256,bool,uint8,uint8)":"01d0d5b8","earlyExercise(uint256)":"46f8226c","forceLiquidate(uint256)":"6ca14389","getBuyerOrders(address)":"a45f2ebc","getOrder(uint256)":"d09ef241","getOrdersByCountry(string)":"cf3fec43","getOrdersByMarket(string)":"7d900421","getQuotes(uint256)":"d049bfef","getRoleAdmin(bytes32)":"248a9ca3","getSellerOrders(address)":"e4cbac40","grantRole(bytes32,address)":"2f2ff15d","hasRole(bytes32,address)":"91d14854","initiateArbitration(uint256)":"6af58cff","nextOrderId()":"2a58b330","nextQuoteId()":"4efef6aa","orderQuotes(uint256,uint256)":"f7ff6426","orders(uint256)":"a85c38ef","pause()":"8456cb59","paused()":"5c975abb","quotes(uint256)":"a61cf0d4","renounceRole(bytes32,address)":"36568abe","requestFeed(uint256,uint8)":"6dbe7579","resolveArbitration(uint256,uint256,address[])":"3280890b","revokeRole(bytes32,address)":"d547741f","sellerOrders(address,uint256)":"45cb4505","setConfig(address)":"20e3dbd4","setVaultManager(address)":"b543503e","settle(uint256)":"8df82800","submitQuote(uint256,uint256,uint256,uint8,uint8,uint8)":"7203a582","supportsInterface(bytes4)":"01ffc9a7","unpause()":"3f4ba83a","usdt()":"2f48ab7d","vaultManager()":"8a4adf24","withdrawExcessMargin(uint256,uint256)":"d1e745b1"}}}}}