{"contracts/core/OptionsCore.sol":{"OptionsCore":{"abi":[{"inputs":[{"internalType":"address","name":"_config","type":"address"},{"internalType":"address","name":"_vaultManager","type":"address"},{"internalType":"address","name":"_usdt","type":"address"},{"internalType":"address","name":"_admin","type":"address"}],"stateMutability":"nonpayable","type":"constructor"},{"inputs":[],"name":"AccessControlBadConfirmation","type":"error"},{"inputs":[{"internalType":"address","name":"account","type":"address"},{"internalType":"bytes32","name":"neededRole","type":"bytes32"}],"name":"AccessControlUnauthorizedAccount","type":"error"},{"inputs":[],"name":"EnforcedPause","type":"error"},{"inputs":[],"name":"ExpectedPause","type":"error"},{"inputs":[],"name":"ReentrancyGuardReentrantCall","type":"error"},{"anonymous":false,"inputs":[{"indexed":true,"internalType":"uint256","name":"orderId","type":"uint256"},{"indexed":false,"internalType":"string","name":"underlyingCode","type":"string"},{"indexed":false,"internalType":"string","name":"market","type":"string"},{"indexed":false,"internalType":"string","name":"country","type":"string"},{"indexed":false,"internalType":"enum FeedType","name":"feedType","type":"uint8"},{"indexed":false,"internalType":"enum FeedTier","name":"tier","type":"uint8"},{"indexed":true,"internalType":"address","name":"requester","type":"address"},{"indexed":false,"internalType":"uint256","name":"notionalAmount","type":"uint256"},{"indexed":false,"internalType":"uint256","name":"timestamp","type":"uint256"}],"name":"FeedRequestEmitted","type":"event"},{"anonymous":false,"inputs":[{"indexed":true,"internalType":"uint256","name":"orderId","type":"uint256"},{"indexed":false,"internalType":"string","name":"reason","type":"string"},{"indexed":false,"internalType":"uint256","name":"timestamp","type":"uint256"}],"name":"OrderCancelled","type":"event"},{"anonymous":false,"inputs":[{"indexed":true,"internalType":"uint256","name":"orderId","type":"uint256"},{"indexed":true,"internalType":"address","name":"creator","type":"address"},{"indexed":false,"internalType":"bool","name":"isBuyerOrder","type":"bool"},{"indexed":false,"internalType":"uint256","name":"timestamp","type":"uint256"}],"name":"OrderCreated","type":"event"},{"anonymous":false,"inputs":[{"indexed":true,"internalType":"uint256","name":"orderId","type":"uint256"},{"indexed":true,"internalType":"address","name":"buyer","type":"address"},{"indexed":true,"internalType":"address","name":"seller","type":"address"},{"indexed":false,"internalType":"uint256","name":"timestamp","type":"uint256"}],"name":"OrderMatched","type":"event"},{"anonymous":false,"inputs":[{"indexed":true,"internalType":"uint256","name":"orderId","type":"uint256"},{"indexed":false,"internalType":"enum OrderStatus","name":"oldStatus","type":"uint8"},{"indexed":false,"internalType":"enum OrderStatus","name":"newStatus","type":"uint8"},{"indexed":false,"internalType":"string","name":"reason","type":"string"},{"indexed":false,"internalType":"uint256","name":"timestamp","type":"uint256"}],"name":"OrderStatusChanged","type":"event"},{"anonymous":false,"inputs":[{"indexed":false,"internalType":"address","name":"account","type":"address"}],"name":"Paused","type":"event"},{"anonymous":false,"inputs":[{"indexed":true,"internalType":"uint256","name":"orderId","type":"uint256"},{"indexed":true,"internalType":"uint256","name":"quoteId","type":"uint256"},{"indexed":true,"internalType":"address","name":"seller","type":"address"},{"indexed":false,"internalType":"uint256","name":"premiumRate","type":"uint256"},{"indexed":false,"internalType":"uint256","name":"timestamp","type":"uint256"}],"name":"QuoteSubmitted","type":"event"},{"anonymous":false,"inputs":[{"indexed":true,"internalType":"bytes32","name":"role","type":"bytes32"},{"indexed":true,"internalType":"bytes32","name":"previousAdminRole","type":"bytes32"},{"indexed":true,"internalType":"bytes32","name":"newAdminRole","type":"bytes32"}],"name":"RoleAdminChanged","type":"event"},{"anonymous":false,"inputs":[{"indexed":true,"internalType":"bytes32","name":"role","type":"bytes32"},{"indexed":true,"internalType":"address","name":"account","type":"address"},{"indexed":true,"internalType":"address","name":"sender","type":"address"}],"name":"RoleGranted","type":"event"},{"anonymous":false,"inputs":[{"indexed":true,"internalType":"bytes32","name":"role","type":"bytes32"},{"indexed":true,"internalType":"address","name":"account","type":"address"},{"indexed":true,"internalType":"address","name":"sender","type":"address"}],"name":"RoleRevoked","type":"event"},{"anonymous":false,"inputs":[{"indexed":false,"internalType":"address","name":"account","type":"address"}],"name":"Unpaused","type":"event"},{"inputs":[],"name":"DEFAULT_ADMIN_ROLE","outputs":[{"internalType":"bytes32","name":"","type":"bytes32"}],"stateMutability":"view","type":"function"},{"inputs":[],"name":"FEED_PROTOCOL_ROLE","outputs":[{"internalType":"bytes32","name":"","type":"bytes32"}],"stateMutability":"view","type":"function"},{"inputs":[],"name":"SETTLEMENT_ROLE","outputs":[{"internalType":"bytes32","name":"","type":"bytes32"}],"stateMutability":"view","type":"function"},{"inputs":[{"internalType":"uint256","name":"quoteId","type":"uint256"}],"name":"acceptQuote","outputs":[],"stateMutability":"nonpayable","type":"function"},{"inputs":[{"internalType":"uint256","name":"orderId","type":"uint256"}],"name":"acceptSellerOrder","outputs":[],"stateMutability":"nonpayable","type":"function"},{"inputs":[{"internalType":"address","name":"","type":"address"},{"internalType":"uint256","name":"","type":"uint256"}],"name":"buyerOrders","outputs":[{"internalType":"uint256","name":"","type":"uint256"}],"stateMutability":"view","type":"function"},{"inputs":[{"internalType":"uint256","name":"orderId","type":"uint256"}],"name":"cancelRFQ","outputs":[],"stateMutability":"nonpayable","type":"function"},{"inputs":[{"internalType":"uint256","name":"orderId","type":"uint256"}],"name":"cancelRFQDueToTimeout","outputs":[],"stateMutability":"nonpayable","type":"function"},{"inputs":[],"name":"config","outputs":[{"internalType":"contract Config","name":"","type":"address"}],"stateMutability":"view","type":"function"},{"inputs":[{"internalType":"string","name":"underlyingName","type":"string"},{"internalType":"string","name":"underlyingCode","type":"string"},{"internalType":"string","name":"market","type":"string"},{"internalType":"string","name":"country","type":"string"},{"internalType":"string","name":"refPrice","type":"string"},{"internalType":"enum Direction","name":"direction","type":"uint8"},{"internalType":"uint256","name":"notionalUSDT","type":"uint256"},{"internalType":"uint256","name":"expiryTimestamp","type":"uint256"},{"internalType":"uint256","name":"maxPremiumRate","type":"uint256"},{"internalType":"uint256","name":"minMarginRate","type":"uint256"},{"internalType":"enum SellerType","name":"acceptedSellerType","type":"uint8"},{"internalType":"address","name":"designatedSeller","type":"address"},{"internalType":"uint256","name":"arbitrationWindow","type":"uint256"},{"internalType":"uint256","name":"marginCallDeadline","type":"uint256"},{"internalType":"bool","name":"dividendAdjustment","type":"bool"},{"internalType":"enum LiquidationRule","name":"liquidationRule","type":"uint8"},{"internalType":"uint8","name":"consecutiveDays","type":"uint8"},{"internalType":"uint8","name":"dailyLimitPercent","type":"uint8"},{"internalType":"enum FeedRule","name":"feedRule","type":"uint8"}],"name":"createBuyerRFQ","outputs":[{"internalType":"uint256","name":"orderId","type":"uint256"}],"stateMutability":"nonpayable","type":"function"},{"inputs":[{"internalType":"string","name":"underlyingName","type":"string"},{"internalType":"string","name":"underlyingCode","type":"string"},{"internalType":"string","name":"market","type":"string"},{"internalType":"string","name":"country","type":"string"},{"internalType":"string","name":"refPrice","type":"string"},{"internalType":"enum Direction","name":"direction","type":"uint8"},{"internalType":"uint256","name":"notionalUSDT","type":"uint256"},{"internalType":"uint256","name":"expiryTimestamp","type":"uint256"},{"internalType":"uint256","name":"premiumRate","type":"uint256"},{"internalType":"uint256","name":"marginAmount","type":"uint256"},{"internalType":"enum LiquidationRule","name":"liquidationRule","type":"uint8"},{"internalType":"uint8","name":"consecutiveDays","type":"uint8"},{"internalType":"uint8","name":"dailyLimitPercent","type":"uint8"},{"internalType":"uint256","name":"arbitrationWindow","type":"uint256"},{"internalType":"bool","name":"dividendAdjustment","type":"bool"},{"internalType":"uint8","name":"exerciseDelay","type":"uint8"},{"internalType":"enum FeedRule","name":"feedRule","type":"uint8"}],"name":"createSellerOrder","outputs":[{"internalType":"uint256","name":"orderId","type":"uint256"}],"stateMutability":"nonpayable","type":"function"},{"inputs":[{"internalType":"address","name":"buyer","type":"address"}],"name":"getBuyerOrders","outputs":[{"internalType":"uint256[]","name":"","type":"uint256[]"}],"stateMutability":"view","type":"function"},{"inputs":[{"internalType":"uint256","name":"orderId","type":"uint256"}],"name":"getOrder","outputs":[{"components":[{"internalType":"uint256","name":"orderId","type":"uint256"},{"internalType":"address","name":"buyer","type":"address"},{"internalType":"address","name":"seller","type":"address"},{"internalType":"string","name":"underlyingName","type":"string"},{"internalType":"string","name":"underlyingCode","type":"string"},{"internalType":"string","name":"market","type":"string"},{"internalType":"string","name":"country","type":"string"},{"internalType":"string","name":"refPrice","type":"string"},{"internalType":"enum Direction","name":"direction","type":"uint8"},{"internalType":"uint256","name":"notionalUSDT","type":"uint256"},{"internalType":"uint256","name":"strikePrice","type":"uint256"},{"internalType":"uint256","name":"expiryTimestamp","type":"uint256"},{"internalType":"uint256","name":"premiumRate","type":"uint256"},{"internalType":"uint256","name":"premiumAmount","type":"uint256"},{"internalType":"uint256","name":"initialMargin","type":"uint256"},{"internalType":"uint256","name":"currentMargin","type":"uint256"},{"internalType":"uint256","name":"minMarginRate","type":"uint256"},{"internalType":"uint256","name":"maxPremiumRate","type":"uint256"},{"internalType":"enum LiquidationRule","name":"liquidationRule","type":"uint8"},{"internalType":"uint8","name":"consecutiveDays","type":"uint8"},{"internalType":"uint8","name":"dailyLimitPercent","type":"uint8"},{"internalType":"uint8","name":"exerciseDelay","type":"uint8"},{"internalType":"enum SellerType","name":"sellerType","type":"uint8"},{"internalType":"address","name":"designatedSeller","type":"address"},{"internalType":"uint256","name":"arbitrationWindow","type":"uint256"},{"internalType":"uint256","name":"marginCallDeadline","type":"uint256"},{"internalType":"bool","name":"dividendAdjustment","type":"bool"},{"internalType":"enum FeedRule","name":"feedRule","type":"uint8"},{"internalType":"enum OrderStatus","name":"status","type":"uint8"},{"internalType":"uint256","name":"createdAt","type":"uint256"},{"internalType":"uint256","name":"matchedAt","type":"uint256"},{"internalType":"uint256","name":"settledAt","type":"uint256"},{"internalType":"uint256","name":"lastFeedPrice","type":"uint256"},{"internalType":"uint256","name":"dividendAmount","type":"uint256"}],"internalType":"struct Order","name":"","type":"tuple"}],"stateMutability":"view","type":"function"},{"inputs":[{"internalType":"string","name":"country","type":"string"}],"name":"getOrdersByCountry","outputs":[{"internalType":"uint256[]","name":"","type":"uint256[]"}],"stateMutability":"view","type":"function"},{"inputs":[{"internalType":"string","name":"market","type":"string"}],"name":"getOrdersByMarket","outputs":[{"internalType":"uint256[]","name":"","type":"uint256[]"}],"stateMutability":"view","type":"function"},{"inputs":[{"internalType":"uint256","name":"orderId","type":"uint256"}],"name":"getQuotes","outputs":[{"components":[{"internalType":"uint256","name":"quoteId","type":"uint256"},{"internalType":"uint256","name":"orderId","type":"uint256"},{"internalType":"address","name":"seller","type":"address"},{"internalType":"enum SellerType","name":"sellerType","type":"uint8"},{"internalType":"uint256","name":"premiumRate","type":"uint256"},{"internalType":"uint256","name":"premiumAmount","type":"uint256"},{"internalType":"uint256","name":"marginRate","type":"uint256"},{"internalType":"uint256","name":"marginAmount","type":"uint256"},{"internalType":"enum LiquidationRule","name":"liquidationRule","type":"uint8"},{"internalType":"uint8","name":"consecutiveDays","type":"uint8"},{"internalType":"uint8","name":"dailyLimitPercent","type":"uint8"},{"internalType":"uint256","name":"createdAt","type":"uint256"},{"internalType":"uint256","name":"expiresAt","type":"uint256"},{"internalType":"enum QuoteStatus","name":"status","type":"uint8"}],"internalType":"struct Quote[]","name":"","type":"tuple[]"}],"stateMutability":"view","type":"function"},{"inputs":[{"internalType":"bytes32","name":"role","type":"bytes32"}],"name":"getRoleAdmin","outputs":[{"internalType":"bytes32","name":"","type":"bytes32"}],"stateMutability":"view","type":"function"},{"inputs":[{"internalType":"address","name":"seller","type":"address"}],"name":"getSellerOrders","outputs":[{"internalType":"uint256[]","name":"","type":"uint256[]"}],"stateMutability":"view","type":"function"},{"inputs":[{"internalType":"bytes32","name":"role","type":"bytes32"},{"internalType":"address","name":"account","type":"address"}],"name":"grantRole","outputs":[],"stateMutability":"nonpayable","type":"function"},{"inputs":[{"internalType":"bytes32","name":"role","type":"bytes32"},{"internalType":"address","name":"account","type":"address"}],"name":"hasRole","outputs":[{"internalType":"bool","name":"","type":"bool"}],"stateMutability":"view","type":"function"},{"inputs":[],"name":"nextOrderId","outputs":[{"internalType":"uint256","name":"","type":"uint256"}],"stateMutability":"view","type":"function"},{"inputs":[],"name":"nextQuoteId","outputs":[{"internalType":"uint256","name":"","type":"uint256"}],"stateMutability":"view","type":"function"},{"inputs":[{"internalType":"uint256","name":"","type":"uint256"},{"internalType":"uint256","name":"","type":"uint256"}],"name":"orderQuotes","outputs":[{"internalType":"uint256","name":"quoteId","type":"uint256"},{"internalType":"uint256","name":"orderId","type":"uint256"},{"internalType":"address","name":"seller","type":"address"},{"internalType":"enum SellerType","name":"sellerType","type":"uint8"},{"internalType":"uint256","name":"premiumRate","type":"uint256"},{"internalType":"uint256","name":"premiumAmount","type":"uint256"},{"internalType":"uint256","name":"marginRate","type":"uint256"},{"internalType":"uint256","name":"marginAmount","type":"uint256"},{"internalType":"enum LiquidationRule","name":"liquidationRule","type":"uint8"},{"internalType":"uint8","name":"consecutiveDays","type":"uint8"},{"internalType":"uint8","name":"dailyLimitPercent","type":"uint8"},{"internalType":"uint256","name":"createdAt","type":"uint256"},{"internalType":"uint256","name":"expiresAt","type":"uint256"},{"internalType":"enum QuoteStatus","name":"status","type":"uint8"}],"stateMutability":"view","type":"function"},{"inputs":[{"internalType":"uint256","name":"","type":"uint256"}],"name":"orders","outputs":[{"internalType":"uint256","name":"orderId","type":"uint256"},{"internalType":"address","name":"buyer","type":"address"},{"internalType":"address","name":"seller","type":"address"},{"internalType":"string","name":"underlyingName","type":"string"},{"internalType":"string","name":"underlyingCode","type":"string"},{"internalType":"string","name":"market","type":"string"},{"internalType":"string","name":"country","type":"string"},{"internalType":"string","name":"refPrice","type":"string"},{"internalType":"enum Direction","name":"direction","type":"uint8"},{"internalType":"uint256","name":"notionalUSDT","type":"uint256"},{"internalType":"uint256","name":"strikePrice","type":"uint256"},{"internalType":"uint256","name":"expiryTimestamp","type":"uint256"},{"internalType":"uint256","name":"premiumRate","type":"uint256"},{"internalType":"uint256","name":"premiumAmount","type":"uint256"},{"internalType":"uint256","name":"initialMargin","type":"uint256"},{"internalType":"uint256","name":"currentMargin","type":"uint256"},{"internalType":"uint256","name":"minMarginRate","type":"uint256"},{"internalType":"uint256","name":"maxPremiumRate","type":"uint256"},{"internalType":"enum LiquidationRule","name":"liquidationRule","type":"uint8"},{"internalType":"uint8","name":"consecutiveDays","type":"uint8"},{"internalType":"uint8","name":"dailyLimitPercent","type":"uint8"},{"internalType":"uint8","name":"exerciseDelay","type":"uint8"},{"internalType":"enum SellerType","name":"sellerType","type":"uint8"},{"internalType":"address","name":"designatedSeller","type":"address"},{"internalType":"uint256","name":"arbitrationWindow","type":"uint256"},{"internalType":"uint256","name":"marginCallDeadline","type":"uint256"},{"internalType":"bool","name":"dividendAdjustment","type":"bool"},{"internalType":"enum FeedRule","name":"feedRule","type":"uint8"},{"internalType":"enum OrderStatus","name":"status","type":"uint8"},{"internalType":"uint256","name":"createdAt","type":"uint256"},{"internalType":"uint256","name":"matchedAt","type":"uint256"},{"internalType":"uint256","name":"settledAt","type":"uint256"},{"internalType":"uint256","name":"lastFeedPrice","type":"uint256"},{"internalType":"uint256","name":"dividendAmount","type":"uint256"}],"stateMutability":"view","type":"function"},{"inputs":[],"name":"pause","outputs":[],"stateMutability":"nonpayable","type":"function"},{"inputs":[],"name":"paused","outputs":[{"internalType":"bool","name":"","type":"bool"}],"stateMutability":"view","type":"function"},{"inputs":[{"internalType":"uint256","name":"orderId","type":"uint256"},{"internalType":"enum FeedType","name":"feedType","type":"uint8"},{"internalType":"uint256","name":"finalPrice","type":"uint256"}],"name":"processFeedCallback","outputs":[],"stateMutability":"nonpayable","type":"function"},{"inputs":[{"internalType":"uint256","name":"orderId","type":"uint256"},{"internalType":"uint256","name":"finalPrice","type":"uint256"}],"name":"processFinalFeedResult","outputs":[],"stateMutability":"nonpayable","type":"function"},{"inputs":[{"internalType":"uint256","name":"orderId","type":"uint256"},{"internalType":"uint256","name":"initialPrice","type":"uint256"}],"name":"processInitialFeedResult","outputs":[],"stateMutability":"nonpayable","type":"function"},{"inputs":[{"internalType":"uint256","name":"","type":"uint256"}],"name":"quotes","outputs":[{"internalType":"uint256","name":"quoteId","type":"uint256"},{"internalType":"uint256","name":"orderId","type":"uint256"},{"internalType":"address","name":"seller","type":"address"},{"internalType":"enum SellerType","name":"sellerType","type":"uint8"},{"internalType":"uint256","name":"premiumRate","type":"uint256"},{"internalType":"uint256","name":"premiumAmount","type":"uint256"},{"internalType":"uint256","name":"marginRate","type":"uint256"},{"internalType":"uint256","name":"marginAmount","type":"uint256"},{"internalType":"enum LiquidationRule","name":"liquidationRule","type":"uint8"},{"internalType":"uint8","name":"consecutiveDays","type":"uint8"},{"internalType":"uint8","name":"dailyLimitPercent","type":"uint8"},{"internalType":"uint256","name":"createdAt","type":"uint256"},{"internalType":"uint256","name":"expiresAt","type":"uint256"},{"internalType":"enum QuoteStatus","name":"status","type":"uint8"}],"stateMutability":"view","type":"function"},{"inputs":[{"internalType":"bytes32","name":"role","type":"bytes32"},{"internalType":"address","name":"callerConfirmation","type":"address"}],"name":"renounceRole","outputs":[],"stateMutability":"nonpayable","type":"function"},{"inputs":[{"internalType":"uint256","name":"orderId","type":"uint256"},{"internalType":"enum FeedTier","name":"tier","type":"uint8"}],"name":"requestFeed","outputs":[],"stateMutability":"payable","type":"function"},{"inputs":[{"internalType":"bytes32","name":"role","type":"bytes32"},{"internalType":"address","name":"account","type":"address"}],"name":"revokeRole","outputs":[],"stateMutability":"nonpayable","type":"function"},{"inputs":[{"internalType":"address","name":"","type":"address"},{"internalType":"uint256","name":"","type":"uint256"}],"name":"sellerOrders","outputs":[{"internalType":"uint256","name":"","type":"uint256"}],"stateMutability":"view","type":"function"},{"inputs":[{"internalType":"address","name":"_config","type":"address"}],"name":"setConfig","outputs":[],"stateMutability":"nonpayable","type":"function"},{"inputs":[{"internalType":"address","name":"_vaultManager","type":"address"}],"name":"setVaultManager","outputs":[],"stateMutability":"nonpayable","type":"function"},{"inputs":[{"internalType":"uint256","name":"orderId","type":"uint256"},{"internalType":"uint256","name":"premiumRate","type":"uint256"},{"internalType":"uint256","name":"marginRate","type":"uint256"},{"internalType":"enum LiquidationRule","name":"liquidationRule","type":"uint8"},{"internalType":"uint8","name":"consecutiveDays","type":"uint8"},{"internalType":"uint8","name":"dailyLimitPercent","type":"uint8"}],"name":"submitQuote","outputs":[{"internalType":"uint256","name":"quoteId","type":"uint256"}],"stateMutability":"nonpayable","type":"function"},{"inputs":[{"internalType":"bytes4","name":"interfaceId","type":"bytes4"}],"name":"supportsInterface","outputs":[{"internalType":"bool","name":"","type":"bool"}],"stateMutability":"view","type":"function"},{"inputs":[],"name":"unpause","outputs":[],"stateMutability":"nonpayable","type":"function"},{"inputs":[{"internalType":"uint256","name":"orderId","type":"uint256"},{"internalType":"uint256","name":"amount","type":"uint256"}],"name":"updateOrderDividend","outputs":[],"stateMutability":"nonpayable","type":"function"},{"inputs":[{"internalType":"uint256","name":"orderId","type":"uint256"},{"internalType":"uint256","name":"newMargin","type":"uint256"}],"name":"updateOrderMargin","outputs":[],"stateMutability":"nonpayable","type":"function"},{"inputs":[{"internalType":"uint256","name":"orderId","type":"uint256"},{"internalType":"uint256","name":"deadline","type":"uint256"}],"name":"updateOrderMarginCallDeadline","outputs":[],"stateMutability":"nonpayable","type":"function"},{"inputs":[{"internalType":"uint256","name":"orderId","type":"uint256"},{"internalType":"uint256","name":"newPrice","type":"uint256"}],"name":"updateOrderPrice","outputs":[],"stateMutability":"nonpayable","type":"function"},{"inputs":[{"internalType":"uint256","name":"orderId","type":"uint256"},{"internalType":"uint256","name":"timestamp","type":"uint256"}],"name":"updateOrderSettledAt","outputs":[],"stateMutability":"nonpayable","type":"function"},{"inputs":[{"internalType":"uint256","name":"orderId","type":"uint256"},{"internalType":"enum OrderStatus","name":"newStatus","type":"uint8"}],"name":"updateOrderStatus","outputs":[],"stateMutability":"nonpayable","type":"function"},{"inputs":[{"internalType":"uint256","name":"orderId","type":"uint256"},{"internalType":"uint256","name":"price","type":"uint256"}],"name":"updateOrderStrikePrice","outputs":[],"stateMutability":"nonpayable","type":"function"},{"inputs":[],"name":"usdt","outputs":[{"internalType":"contract IERC20","name":"","type":"address"}],"stateMutability":"view","type":"function"},{"inputs":[],"name":"vaultManager","outputs":[{"internalType":"contract VaultManager","name":"","type":"address"}],"stateMutability":"view","type":"function"}],"evm":{"bytecode":{"linkReferences":{},"object":"608034620000f557601f6200500538819003918201601f19168301916001600160401b03831184841017620000fa57808492608094604052833981010312620000f5578062000052620000e49262000110565b90620000616020820162000110565b906200007e6060620000766040840162000110565b920162000110565b6001808055600581905560065560028054610100600160a81b03191660089590951b610100600160a81b031694909417909355600380546001600160a01b03199081166001600160a01b0394851617909155600480549091169190921617905562000125565b50604051614e4e9081620001b78239f35b600080fd5b634e487b7160e01b600052604160045260246000fd5b51906001600160a01b0382168203620000f557565b6001600160a01b031660008181527fad3228b676f7d3cd4284a5443f17f1962b36e491b30a40b2405849e597ba5fb5602052604081205490919060ff16620001b257818052816020526040822081835260205260408220600160ff1982541617905533917f2f8788117e7eff1d82e926ec794901d17c78024a50270940304540a733656f0d8180a4600190565b509056fe610280604052600436101561001357600080fd5b6000803560e01c806301d0d5b81461392857806301ffc9a7146138d157806315d92e331461388a5780631c0dd7e81461384357806320e3dbd4146137f9578063248a9ca3146137cd5780632a58b330146137af5780632f2ff15d146137725780632f48ab7d146137495780633087a88c1461341357806336568abe146133cb5780633ab3784a146131c35780633f4ba83a1461315857806342dd6d3e1461303d57806344f1eaae14612ff65780634500cb6014612fae57806345cb450514612f585780634efef6aa14612f3a5780635c975abb14612f175780635d7ffe7b14612b275780635e9e78d014612ae057806367ac0bf0146127685780636dbe75791461253a5780637203a582146120ee57806379502c55146120c15780637d900421146120345780638456cb5914611fd95780638a4adf2414611fb057806391d1485414611f65578063979b4e6d14611577578063a217fddf1461155b578063a45f2ebc146114e8578063a61cf0d414611455578063a85c38ef1461107d578063aab3196d14611010578063b543503e14610fcb578063ba9cf01d14610fa2578063bc0ef26b14610de0578063cdc65ab614610db7578063cf3fec4314610d2a578063d049bfef14610add578063d09ef24114610553578063d37e527b1461050c578063d426aec1146104c5578063d547741f14610484578063e02e34f81461035d578063e4cbac40146102da5763f7ff64261461022e57600080fd5b346102d75761023c36614315565b90825260086020526040822080548210156102d35761025b9250614620565b508054906102cf600182015460028301549260038101549460048201549260058301549160068401549060078501549160088601549460ff600a600989015498015416976040519b8c9b8c60ff8860101c169860ff808a60081c1699169760ff8460a01c169360018060a01b0316926143ea565b0390f35b8280fd5b80fd5b50346102d757602080600319360112610359576001600160a01b036102fd61432b565b168252600b815260408220916040518092808554928381520194835280832092905b828210610342576102cf85610336818903826145a6565b60405191829182614385565b83548652948501946001938401939091019061031f565b5080fd5b50346102d75761036c36614315565b81151580610479575b61037e90614abb565b6103866146a4565b81835260076020526040832090601582019182549260ff8460101c1691600b831015610465576002830361042057600080516020614db9833981519152948460198360c097600a62040000960155015562ff000019161790556103ec6040518092614613565b6004602082015260806040820152600c60808201526b1a5b9a5d1a585b081999595960a21b60a0820152426060820152a280f35b60405162461bcd60e51b815260206004820152601e60248201527f4f7074696f6e73436f72653a206f72646572206e6f74206d61746368656400006044820152606490fd5b634e487b7160e01b87526021600452602487fd5b506005548210610375565b50346102d75760403660031901126102d7576104c16004356104a4614341565b90808452836020526104bc60016040862001546146de565b614782565b5080f35b50346102d7576104d436614315565b9080151580610501575b6104e790614abb565b6104ef61463c565b82526007602052600a60408320015580f35b5060055481106104de565b50346102d75761051b36614315565b9080151580610548575b61052e90614abb565b61053661463c565b82526007602052601460408320015580f35b506005548110610525565b50346102d75760203660031901126102d757806104206040516105758161458a565b82815282602082015282604082015260608082015260606080820152606060a0820152606060c0820152606060e08201528261010082015282610120820152826101408201528261016082015282610180820152826101a0820152826101c0820152826101e08201528261020082015282610220820152826102408201528261026082015282610280820152826102a0820152826102c0820152826102e08201528261030082015282610320820152826103408201528261036082015282610380820152826103a0820152826103c0820152826103e08201528261040082015201526004358152600760205260408120604051916106728361458a565b8154835260018201546001600160a01b039081166020850152600283015416604080850191909152516106b3816106ac81600387016144af565b03826145a6565b60608401526040516106cc816106ac81600487016144af565b60808401526040516106e5816106ac81600587016144af565b60a08401526040516106fe816106ac81600687016144af565b60c0840152604051610717816106ac81600787016144af565b60e084015260ff60088301541661072d81614609565b6101008401526009820154610120840152600a820154610140840152600b820154610160840152600c820154610180840152600d8201546101a0840152600e8201546101c0840152600f8201546101e08401526010820154610200840152601182015461022084015260128201546107a760ff82166143c0565b60ff811661024085015260ff8160081c1661026085015260ff8160101c1661028085015260ff8160181c166102a08501526107e760ff8260201c166143c0565b60ff8160201c166102c085015260018060a01b039060281c166102e08401526013820154610300840152601482015461032084015260158201549060ff8216151561034085015261083d60ff8360081c16614609565b60ff8260081c16610360850152600b60ff8360101c161015610ac957509060ff601a9260101c1661038084015260168101546103a084015260178101546103c084015260188101546103e0840152601981015461040084015201546104208201526040518091602082528051602083015260018060a01b03602082015116604083015260018060a01b0360408201511660608301526104206109536108f3606084015161044060808701526104608601906145c9565b61093d610929610915608087015193601f1994858a83030160a08b01526145c9565b60a0870151848983030160c08a01526145c9565b60c0860151838883030160e08901526145c9565b9060e085015190868303016101008701526145c9565b9161010081015161096381614609565b6101208501526101208101516101408501526101408101516101608501526101608101516101808501526101808101516101a08501526101a08101516101c08501526101c08101516101e08501526101e08101516102008501526102008101516102208501526102208101516102408501526102408101516109e4816143c0565b61026085015260ff6102608201511661028085015260ff610280820151166102a085015260ff6102a0820151166102c08501526102c0810151610a26816143c0565b6102e085015260018060a01b036102e0820151166103008501526103008101516103208501526103208101516103408501526103408101511515610360850152610360810151610a7581614609565b610380850152610a8f6103808201516103a0860190614613565b6103a08101516103c08501526103c08101516103e08501526103e08101516104008501526104008101518285015201516104408301520390f35b634e487b7160e01b81526021600452602490fd5b50346102d757602090816003193601126102d757600435815260088083526040822080549093906001600160401b038111610d165791849192604051916005610b2a8684831b01856145a6565b82845285840191829588528688209188935b858510610c39575050505050506040519280840191818552518092526040840192945b828110610b6c5784840385f35b909192826101c06001928851805182528381015184830152848060a01b03604082015116604083015260608082015190610ba5826143c0565b8301526080808201519083015260a0808201519083015260c0808201519083015260e081015160e08301526101008082015190610be1826143c0565b83015260ff6101208181840151169084015261014090818301511690830152610160808201519083015261018080820151908301526101a08091015190610c27826143e0565b82015201960191019492919094610b5f565b600b8960019260409c9b999a9c51610c508161456e565b8754815284880154838201526002880154858060a01b038116604083015260ff908160a091821c16610c81816143c0565b606084015260038a0154608084015260048a0154908301528689015460c0830152600689015460e08301528060078a0154818116610cbe816143c0565b61010085015281818b1c1661012085015260101c16610140830152878901546101608301526009890154610180830152600a89015416610cfd816143e0565b6101a08201528152019401940193929896959798610b3c565b634e487b7160e01b84526041600452602484fd5b50346102d757602080600319360112610359576004356001600160401b0381116102d357610d5d829136906004016142d8565b91908260405193849283378101600c815203019020916040518092808554928381520194835280832092905b828210610da0576102cf85610336818903826145a6565b835486529485019460019384019390910190610d89565b50346102d757806003193601126102d7576020604051600080516020614d998339815191528152f35b50346102d757602080600319360112610359576004359081151580610f97575b610e0990614abb565b81835260078152610e2a60018060a01b0360016040862001541633146149fc565b610e326149d9565b610e3a6149bb565b818352600781526015604084200160ff815460101c16600b81101580610f835781158015610f76575b15610f2257610f0e57600080516020614db983398151915292610ed960ff936001600a9414610f00575b805490620a000062ff000019831617905586600080516020614d798339815191526040516040815280610ec260408201614b07565b42888301520390a260405194859160101c16614613565b8201526080604082015280610ef060808201614b07565b4260608301520390a26001805580f35b610f0987614b54565b610e8d565b634e487b7160e01b85526021600452602485fd5b60405162461bcd60e51b815260048101859052602660248201527f4f7074696f6e73436f72653a2063616e6e6f742063616e63656c206166746572604482015265040dac2e8c6d60d31b6064820152608490fd5b5050600060018214610e63565b634e487b7160e01b86526021600452602486fd5b506005548210610e00565b50346102d757806003193601126102d7576020604051600080516020614d398339815191528152f35b50346102d75760203660031901126102d757610fe561432b565b610fed6146a4565b600380546001600160a01b0319166001600160a01b039290921691909117905580f35b50346102d75760403660031901126102d757602435600435600b8210156102d35780151580611072575b61104390614abb565b61104b61463c565b82526007602052601560408320019062ff000082549160101b169062ff0000191617905580f35b50600554811061103a565b50346102d75760203660031901126102d7576004358152600760205260409081902061020081905280546102605260018101546001600160a01b0390811660e05260028201549251610160819052921691906110dd9082906003016144af565b0361016051906110ec916145a6565b60405180806102005160040190611102916144af565b0361110d90826145a6565b6040519182806102005160050190611124916144af565b0361112f90846145a6565b6040519182806102005160060190611146916144af565b0361115190846145a6565b6040519384806102005160070190611168916144af565b0361117390866145a6565b6102005193600885015460ff1661018052600985015495600a860154600b87015491600c88015493600d89015495600e8a015497600f8b01549960108c01549b601181015461014052601281015460c05260138101546101205260148101546101a05260158101546101c05260168101546101e052601781015461010052601881015461022052601981015460a052601a0154608052604051806102405261026051905260e0516102405160200152610240516040015261044080610240516060015261024051016101605190611249916145c9565b61024051808203906080015261125e916145c9565b610240518082039060a00152611273916145c9565b610240518082039060c00152611288916145c9565b610240518082039060e0015261129d916145c9565b97610180516112ab90614609565b61018051610240516101000152610240516101200152610240516101400152610240516101600152610240516101800152610240516101a00152610240516101c00152610240516101e001526102405161020001526101405161024051610220015260c05160ff1661131c906143c0565b60c05160ff1661024051610240015260c05160081c60ff1661024051610260015260c05160101c60ff1661024051610280015260c05160181c60ff16610240516102a0015260c05160201c60ff16611373906143c0565b60c05160201c60ff16610240516102c00152600160a01b6001900360c05160281c16610240516102e00152610120516102405161030001526101a0516102405161032001526101c05160ff1615156102405161034001526101c05160081c60ff166113dd90614609565b6101c05160081c60ff1661024051610360015261024051610380016101c05160101c60ff169061140c91614613565b6101e051610240516103a0015261010051610240516103c0015261022051610240516103e0015260a0516102405161040001526080516102405161042001526102405180910390f35b50346102d75760203660031901126102d75760409060043581526009602052208054906102cf600182015460028301549260038101549460048201549260058301549160068401549060078501549160088601549460ff600a600989015498015416976040519b8c9b8c60ff8860101c169860ff808a60081c1699169760ff8460a01c169360018060a01b0316926143ea565b50346102d757602080600319360112610359576001600160a01b0361150b61432b565b168252600a815260408220916040518092808554928381520194835280832092905b828210611544576102cf85610336818903826145a6565b83548652948501946001938401939091019061152d565b50346102d757806003193601126102d757602090604051908152f35b50346102d7576102603660031901126102d7576004356001600160401b038111610359576115a99036906004016142d8565b6024356001600160401b038111611f61576115c89036906004016142d8565b906044356001600160401b038111611f11576115e89036906004016142d8565b906064356001600160401b038111611f5d576116089036906004016142d8565b906084356001600160401b038111611f59576116289036906004016142d8565b999098600260a435101561035957600361014435101561035957610164356001600160a01b0381169003611f415761165e614305565b60036101e43510156102d35760ff61020435166102043503611f415760ff61022435166102243503611f415760026102443510156102d35761169e6149d9565b6116a66149bb565b6116b360c43515156147f7565b6116c04260e43511614852565b600354600480546002546040516337382d3960e21b8152936001600160a01b0390811693928116926020928692839160081c165afa928315611f4e578693611f15575b50813b15611f1157918591611730938360405180968195829463ec185a0760e01b845233600485016148ac565b03925af18015611f0657908491611ef2575b5050600554996117518b6148f2565b6005558a84526007602052604084208b81556001810180546001600160a01b03191633179055926001600160401b038211611ede5781906117956003860154614475565b601f8111611e8d575b508590601f8311600114611e21578692611e16575b50508160011b916000199060031b1c19161760038301555b6001600160401b038911611bd2576117e66004830154614475565b601f8111611dd1575b508883601f8211600114611d65578491611d5a575b508960011b906000198b60031b1c19161760048301555b6001600160401b038711611bd2576118366005830154614475565b601f8111611d15575b508683601f8211600114611cab578491611ca0575b508760011b906000198960031b1c19161760058301555b6001600160401b038511611bd2576118866006830154614475565b601f8111611c5b575b508483601f8211600114611bf1578491611be6575b508560011b906000198760031b1c19161760068301555b6001600160401b038c11611bd2576118d66007830154614475565b9b601f8d11611b89575b60209c50839b601f8211600114611af6579a611a62968e829e97611a32611a7a9f859f9e9c978a859f9b9a6040928a8a9f9b611a4a9c8a9f978d9892611aeb575b50508160011b916000199060031b1c19161760078301555b61194860a43560088401614917565b60c435600983015560e435600b830155610104356011830155610124356010830155611a086012830161197d610144356143c0565b8054600160281b600160c81b036101643560281b1660ff6101443581168d1b60018e1b600160c81b0319909316929092171782556101843560138601556101a435601486015560158501805460ff1916941515909116939093178355805463ff000000191681556119f16101e4358261492f565b6119fe6102043582614939565b610224359061494f565b611a156102443582614967565b62ff0000198154169055601642910155338152600a865220614986565b8260405193849283378101600c815203019020614986565b8260405193849283378101600d815203019020614986565b8260405193849283378101600e815203019020614986565b60405160018152428382015281600080516020614dd983398151915260403393a380600080516020614db983398151915260c06040516000815260008682015260806040820152600760808201526618dc99585d195960ca1b60a0820152426060820152a260018055604051908152f35b013590503880611921565b6007840185528d852090859d8e5b601f19851611611b71578f9a968e9f5097611a32611a7a9f9e9d9b968f9a6040908f9a8d9893611a629f988b8b968f9a92600193611a4a9f601f19811610611b57575b505050811b016007830155611939565b0135600019600384901b60f8161c19169055388080611b47565b918f600181928585013581550193019e019d8e611b04565b60078301845260208420601f820160051c810160208310611bcb575b601f8f5b0160051c82018110611bbc5750506118e0565b60008155600101601f8f611ba9565b5080611ba5565b634e487b7160e01b83526041600452602483fd5b9050840135386118a4565b600684018552602085209150845b601f1988168110611c43575086601f19811610611c29575b5050600185811b0160068301556118bb565b850135600019600388901b60f8161c191690553880611c17565b9091602060018192858a013581550193019101611bff565b60068301845260208420601f870160051c810160208810611c99575b601f830160051c82018110611c8d57505061188f565b60008155600101611c77565b5080611c77565b905086013538611854565b600584018552602085209150845b601f198a168110611cfd575088601f19811610611ce3575b5050600187811b01600583015561186b565b87013560001960038a901b60f8161c191690553880611cd1565b9091602060018192858c013581550193019101611cb9565b60058301845260208420601f890160051c810160208a10611d53575b601f830160051c82018110611d4757505061183f565b60008155600101611d31565b5080611d31565b905088013538611804565b600484018552602085209150845b8a601f198d168210611db95750508a601f19811610611d9f575b5050600189811b01600483015561181b565b89013560001960038c901b60f8161c191690553880611d8d565b60018394602093948493013581550193019101611d73565b60048301845260208420601f8b0160051c810160208c10611e0f575b601f830160051c82018110611e035750506117ef565b60008155600101611ded565b5080611ded565b0135905038806117b3565b60038601875260208720879450915b601f1984168510611e75576001945083601f19811610611e5b575b505050811b0160038301556117cb565b0135600019600384901b60f8161c19169055388080611e4b565b81810135835560209485019460019093019201611e30565b90915060038501865260208620601f840160051c810160208510611ed7575b90849392915b601f830160051c82018110611ec857505061179e565b60008155859450600101611eb2565b5080611eac565b634e487b7160e01b85526041600452602485fd5b611efb90614545565b6102d3578238611742565b6040513d86823e3d90fd5b8580fd5b9092506020813d602011611f46575b81611f31602093836145a6565b81010312611f4157519138611703565b600080fd5b3d9150611f24565b6040513d88823e3d90fd5b8980fd5b8780fd5b8380fd5b50346102d75760403660031901126102d7576040611f81614341565b91600435815280602052209060018060a01b0316600052602052602060ff604060002054166040519015158152f35b50346102d757806003193601126102d7576003546040516001600160a01b039091168152602090f35b50346102d757806003193601126102d757611ff26146a4565b611ffa6149bb565b600160ff1960025416176002557f62e78cea01bee320cd4e420270b5ea74000d11b0c9f74754ebdbfc544b05a2586020604051338152a180f35b50346102d757602080600319360112610359576004356001600160401b0381116102d357612067829136906004016142d8565b91908260405193849283378101600d815203019020916040518092808554928381520194835280832092905b8282106120aa576102cf85610336818903826145a6565b835486529485019460019384019390910190612093565b50346102d757806003193601126102d75760025460405160089190911c6001600160a01b03168152602090f35b50346102d75760c03660031901126102d757600360643510156102d75760843560ff81168103611f415760a4359060ff82168203611f415760043515158061252d575b61213a90614abb565b6121426149d9565b61214a6149bb565b60043583526007602052604083209060ff601583015460101c16600b811015610f0e578015908115612522575b50156124cd576009820154906127106121a18161219660243586614a41565b049360443590614a41565b049060118401548061246f575b5060108401546044351061242b5760035460045487916001600160a01b039182169116803b156102d3578483916121fd9383604051809681958294630ac94d9360e31b84523360048501614a54565b03925af180156124205761240c575b50506006549461221b866148f2565b6006556002546040516306a15d6d60e11b8152906020908290600490829060081c6001600160a01b03165afa9081156124015788916123ce575b5060ff92612264849242614b29565b94604051966122728861456e565b89885260043560208901523360408901528a6060890152602435608089015260a088015260443560c088015260e08701526122ae6064356143c0565b606435610100870152166101208501521661014083015242610160830152610180820152836101a082015282845260096020526122ee8160408620614c48565b6004358452600860205260408420805490600160401b8210156123ba579061231b91600182018155614620565b6123a6579061232991614c48565b601581015460ff8160101c16600b811015610f0e57602094501561238e575b5050604051602435815242838201528133917f878fe3f9bca373e42473c1f3ad3c9c35c4f1ecaf9a5f081a801a3fbd43049f55604060043592a460018055604051908152f35b6201000060159162ff00001916179101553880612348565b634e487b7160e01b85526004859052602485fd5b634e487b7160e01b86526041600452602486fd5b90506020813d6020116123f9575b816123e9602093836145a6565b81010312611f41575160ff612255565b3d91506123dc565b6040513d8a823e3d90fd5b61241590614545565b611f1157853861220c565b6040513d84823e3d90fd5b606460405162461bcd60e51b815260206004820152602060248201527f4f7074696f6e73436f72653a206d617267696e207261746520746f6f206c6f776044820152fd5b6024351161247d57386121ae565b60405162461bcd60e51b815260206004820152602260248201527f4f7074696f6e73436f72653a207072656d69756d207261746520746f6f2068696044820152610ced60f31b6064820152608490fd5b60405162461bcd60e51b815260206004820152602760248201527f4f7074696f6e73436f72653a206f72646572206e6f7420616363657074696e676044820152662071756f74657360c81b6064820152608490fd5b600191501438612177565b5060055460043510612131565b5060403660031901126102d75760243560043560038210156102d3578015158061275d575b61256890614abb565b808352600760205261258a60018060a01b0360016040862001541633146149fc565b6125926149d9565b61259a6149bb565b808352600760205260408320601581019283549360ff8560101c1690600b82101561046557600282036126bf57600080516020614db983398151915260c0600080516020614d598339815191529594938793620300008b9a62ff000019161790556126086040518092614613565b600360208201526080604082015260166080820152751a5b9a5d1a585b0819995959081c995c5d595cdd195960521b60a0820152426060820152a25b60098201549061268a6040519360e08552600661267b61266a60e08801600485016144af565b8781036020890152600584016144af565b918683036040880152016144af565b95612694816143e0565b60608401526126a2816143c0565b608083015260a08201524260c08201528033940390a36001805580f35b50909350600581036126e45750600080516020614d5983398151915290600293612644565b60040361270357600080516020614d5983398151915290600193612644565b60405162461bcd60e51b815260206004820152602c60248201527f4f7074696f6e73436f72653a20696e76616c69642073746174757320666f722060448201526b19995959081c995c5d595cdd60a21b6064820152608490fd5b50600554811061255f565b50346102d757602080600319360112610359576004359081151580612ad5575b61279190614abb565b6127996149d9565b6127a16149bb565b8183526007815260408320601581019182549360ff8560101c1692600b8410156104655783612a92576002810180546001600160a01b03969193919087168015612a4d5733146129fc576001830180546001600160a01b0319163317815562ff000019909816620200001790554260178301556009820154600254604051631c03be3560e31b81528a92909187908390600490829060081c8d165afa9182156129b95783926129c8575b506127109161285991614a41565b0487600354168860045416600d860154823b156129c45761289492859283604051809681958294630ac94d9360e31b84523360048501614a54565b03925af19081156129b95783916129a5575b5050876003541690886004541690823b15611f61576128df9284928360405180968195829463ec185a0760e01b84523360048501614a76565b03925af1801561242057612987575b50509185600080516020614db98339815191529660c096959361291d600296338d52600a875260408d20614986565b549854169154169087600080516020614df983398151915284604051428152a461294a6040518094614613565b8201526080604082015260156080820152741cd95b1b195c881bdc99195c881858d8d95c1d1959605a1b60a0820152426060820152a26001805580f35b61299690969593949296614545565b611f5d579190929387386128ee565b6129ae90614545565b6103595781386128a6565b6040513d85823e3d90fd5b8480fd5b925090508582813d81116129f5575b6129e181836145a6565b81010312611f41579051899161285961284b565b503d6129d7565b60405162461bcd60e51b8152600481018690526024808201527f4f7074696f6e73436f72653a2063616e6e6f7420616363657074206f776e206f604482015263393232b960e11b6064820152608490fd5b60405162461bcd60e51b815260048101879052601f60248201527f4f7074696f6e73436f72653a206e6f7420612073656c6c6572206f72646572006044820152606490fd5b6064836040519062461bcd60e51b825280600483015260248201527f4f7074696f6e73436f72653a206f72646572206e6f7420617661696c61626c656044820152fd5b506005548210612788565b50346102d757612aef36614315565b9080151580612b1c575b612b0290614abb565b612b0a61463c565b82526007602052601960408320015580f35b506005548110612af9565b50346102d7576020806003193601126103595760043590612b466149d9565b612b4e6149bb565b818352600981526040832060ff90600a92828483015416612b6e816143e0565b612ed35760098201544211612e92576001948583015487526007825260408720948686019560018060a01b0390612ba98289541633146149fc565b60158101938454946202000062ff0000198716179055600296878101948c85875416968a86019760018060a01b0319895416178855612c2f600760048601958654600d8a0155600681015480600e8b0155600f8a0155018d8082541691612c1460128b01938461492f565b612c2482825460081c1684614939565b5460101c169061494f565b42601787015560048b8b8960098a0154925460081c1660405193848092631c03be3560e31b82525afa918215611f06578492612e5e575b5061271091612c7491614a41565b049387600354169088600454169054823b156129c457612cae92859283604051809681958294630ac94d9360e31b84523360048501614a54565b03925af19081156129b9578391612e4a575b5050866003541693876004541690853b15611f6157612cf99584928360405180998195829463ec185a0760e01b84523360048501614a76565b03925af1908115612420578e948892612e2f575b5054168152600b8952604090208454612d2591614986565b83548d526008885260408d208d835b612dbd575b505050505092600080516020614db983398151915296949282612d899360c09896549a54169154169089600080516020614df983398151915286604051428152a460405194859160101c16614613565b82015260806040820152600e60808201526d1c5d5bdd19481858d8d95c1d195960921b60a0820152426060820152a2805580f35b8154811015612e2a578085612dd5612de89385614620565b5054141580612e0a575b612dee576148f2565b83612d34565b83612df98285614620565b5001805460ff19168d1790556148f2565b508c84612e178386614620565b50015416612e24816143e0565b15612ddf565b612d39565b612e3d919550839250614545565b6102d757858d9338612d0d565b612e5390614545565b610359578138612cc0565b935090508a83813d8111612e8b575b612e7781836145a6565b81010312611f415791518f92612c74612c66565b503d612e6d565b6064906040519062461bcd60e51b82526004820152601a60248201527913dc1d1a5bdb9cd0dbdc994e881c5d5bdd1948195e1c1a5c995960321b6044820152fd5b6064906040519062461bcd60e51b82526004820152601d60248201527f4f7074696f6e73436f72653a2071756f7465206e6f74206163746976650000006044820152fd5b50346102d757806003193601126102d757602060ff600254166040519015158152f35b50346102d757806003193601126102d7576020600654604051908152f35b50346102d75760403660031901126102d757612f7261432b565b6001600160a01b03168152600b60205260408120805460243592908310156102d7576020612fa08484614357565b90546040519160031b1c8152f35b50346102d75760403660031901126102d757612fc861432b565b6001600160a01b03168152600a60205260408120805460243592908310156102d7576020612fa08484614357565b50346102d75761300536614315565b9080151580613032575b61301890614abb565b61302061463c565b82526007602052601a60408320015580f35b50600554811061300f565b50346102d75761304c36614315565b8115158061314d575b61305e90614abb565b6130666146a4565b81835260076020526040832090601582019182549260ff8460101c1691600b83101561046557600483148015613143575b1561310057600080516020614db98339815191529460c09460196206000093015562ff000019161790556130ce6040518092614613565b6006602082015260806040820152600a608082015269199a5b985b081999595960b21b60a0820152426060820152a280f35b60405162461bcd60e51b815260206004820152601b60248201527a4f7074696f6e73436f72653a20696e76616c69642073746174757360281b6044820152606490fd5b5060058314613097565b506005548210613055565b50346102d757806003193601126102d7576131716146a4565b60025460ff8116156131b15760ff19166002557f5db9ee0a495bf2e6ff9c91a7834c1ba4fdd244a5e8aa4e537bd38aeae4b073aa6020604051338152a180f35b604051638dfc202b60e01b8152600490fd5b50346102d7576020806003193601126103595760043590811515806133c0575b6131ec90614abb565b6131f46149d9565b6131fc6149bb565b8183526007815260408320601581019060ff825460101c1690600b821015908161046557821580156133b2575b1561336d5760160154600254604051634f6bfad760e01b8152919086908390600490829060081c6001600160a01b03165afa90811561240157889161333c575b6132739250614b29565b4211156132f957610f0e57600080516020614db9833981519152926132d460ff936001600a94146132eb575b805490620a000062ff000019831617905586600080516020614d798339815191526040516040815280610ec260408201614b36565b8201526080604082015280610ef060808201614b36565b6132f487614b54565b61329f565b6064846040519062461bcd60e51b825280600483015260248201527f4f7074696f6e73436f72653a20524651206e6f742065787069726564207965746044820152fd5b90508582813d8311613366575b61335381836145a6565b81010312611f4157613273915190613269565b503d613349565b60405162461bcd60e51b815260048101869052601d60248201527f4f7074696f6e73436f72653a206e6f7420696e205246512070686173650000006044820152606490fd5b506000915060018314613229565b5060055482106131e3565b50346102d75760403660031901126102d7576133e5614341565b336001600160a01b03821603613401576104c190600435614782565b60405163334bd91960e11b8152600490fd5b50346102d75760603660031901126102d757600435602480356004811015611f6157604435908315158061373e575b61344b90614abb565b3360009081527f3f8d9a030d334798d6aece9c5bcc7646b3f51f8740e76f47846d18cc4a1a8e4e6020908152604090912054909290600080516020614d998339815191529060ff1615613721575084865260078352604086209181156136e0576134b4816143e0565b806135c8575090601581019182549160ff8360101c1695600b8710156135b6576002871480156135ac575b1561355a5750600a81018290556019015562ff0000191662040000179055604051600080516020614db98339815191529260c092600491613521908490614613565b820152608060408201526015608082015274696e697469616c20666565642063616c6c6261636b60581b60a0820152426060820152a280f35b8560266084926040519262461bcd60e51b845260048401528201527f4f7074696f6e73436f72653a206e6f74206177616974696e6720696e697469616044820152651b081999595960d21b6064820152fd5b50600387146134df565b634e487b7160e01b8952602160045288fd5b806135d46002926143e0565b146135e2575b505050505080f35b601582019081549060ff8260101c1695600b8710156135b6576004871480156136d6575b156136875750601984015562ff000019166206000017905542601890910155604051600080516020614db98339815191529260c092600691613649908490614613565b82015260806040820152601360808201527266696e616c20666565642063616c6c6261636b60681b60a0820152426060820152a238808080806135da565b856084916040519162461bcd60e51b83526004830152808201527f4f7074696f6e73436f72653a206e6f74206177616974696e672066696e616c206044820152631999595960e21b6064820152fd5b5060058714613606565b60405162461bcd60e51b815260048101859052601a81870152794f7074696f6e73436f72653a20696e76616c696420707269636560301b6044820152606490fd5b846044916040519163e2517d3f60e01b8352336004840152820152fd5b506005548410613442565b50346102d757806003193601126102d7576004546040516001600160a01b039091168152602090f35b50346102d75760403660031901126102d7576104c1600435613792614341565b90808452836020526137aa60016040862001546146de565b614704565b50346102d757806003193601126102d7576020600554604051908152f35b50346102d75760203660031901126102d757600160406020926004358152808452200154604051908152f35b50346102d75760203660031901126102d75761381361432b565b61381b6146a4565b60028054610100600160a81b03191660089290921b610100600160a81b031691909117905580f35b50346102d75761385236614315565b908015158061387f575b61386590614abb565b61386d61463c565b82526007602052600f60408320015580f35b50600554811061385c565b50346102d75761389936614315565b90801515806138c6575b6138ac90614abb565b6138b461463c565b82526007602052601860408320015580f35b5060055481106138a3565b50346102d75760203660031901126102d75760043563ffffffff60e01b811680910361035957602090637965db0b60e01b8114908115613917575b506040519015158152f35b6301ffc9a760e01b1490508261390c565b50346102d7576102203660031901126102d7576004356001600160401b0381116103595761395a9036906004016142d8565b90916024356001600160401b0381116103595761397b9036906004016142d8565b93906044356001600160401b038111611f615761399c9036906004016142d8565b906064356001600160401b038111611f11576139bc9036906004016142d8565b90946084356001600160401b038111611f5d576139dd9036906004016142d8565b600260a43510156142d45760036101443510156142d45760ff610164351661016435036142d45760ff610184351661018435036142d457613a1c614305565b9160ff6101e435166101e43503611f59576002610204351015611f5957613a416149d9565b613a496149bb565b613a5660c43515156147f7565b613a634260e43511614852565b600354600480546002546040516337382d3960e21b8152936001600160a01b0390811693928116926020928692839160081c165afa9283156142c9578d93614295575b50813b1561429157918c91613ad3938360405180968195829463ec185a0760e01b845233600485016148ac565b03925af1801561426f5761427e575b506003546004546001600160a01b039182169116813b1561427a57613b268c928392604051948580948193630ac94d9360e31b835261012435903360048501614a54565b03925af1801561426f57908b9161425b575b50506005549a613b478c6148f2565b6005558b8b52600760205260408b208c81556002810180546001600160a01b03191633179055946001600160401b038211614247578190613b8b6003880154614475565b601f81116141f6575b508c90601f831160011461418a578d9261417f575b50508160011b916000199060031b1c19161760038501555b6001600160401b038c11613f3557613bdc6004850154614475565b601f8111614139575b508b8a601f82116001146140ca578b916140bf575b5060001960038e901b1c191660018d901b1760048501555b6001600160401b038711613f3557613c2d6005850154614475565b601f811161407a575b50868a601f8211600114614010578b91614005575b508760011b906000198960031b1c19161760058501555b6001600160401b038511613f3557613c7d6006850154614475565b601f8111613fc0575b50848a601f8211600114613f54578b91613f49575b508560011b906000198760031b1c19161760068501555b6001600160401b038211613f3557613ccd6007850154614475565b601f8111613ef0575b509260209b9694928a928c9997958490601f8311600114613e4457958f613e0d9d611a328e60408a859f9e9b9a611a629e9a8a859f9b869b8a9f9d611a4a9e92613e39575b50508160011b916000199060031b1c19161760078301555b613d4260a43560088401614917565b60c435600983015560e435600b830155612710613d646101043560c435614a41565b04600d83015561012435600e83015561012435600f83015560128201613d8d610144358261492f565b613d9a6101643582614939565b613da7610184358261494f565b6101a4356013840155613dca6015840192839060ff801983541691151516179055565b805463ff00000019166101e43560181b63ff00000016179055613df06102043582614967565b62ff0000198154169055601642910155338152600b865220614986565b604051908152428382015281600080516020614dd983398151915260403393a360018055604051908152f35b013590503880613d1b565b9b94939291906007840185528f852090855b601f1984168110613ebe575060209a9996611a32613e0d9f8f9a948e99611a629d99611a4a9960018f9a6040958f9a978d9883601f19811610613ea4575b505050811b016007830155613d33565b0135600019600384901b60f8161c19169055388080613e94565b9295509396989a9c929597999b508f600181928686013581550194019101928d94918f9c9a9896939d9b999794613e56565b600785018b5260208b20601f840160051c810160208510613f2e575b601f830160051c82018110613f22575050613cd6565b60008155600101613f0c565b5080613f0c565b634e487b7160e01b8a52604160045260248afd5b905089013538613c9b565b600686018c5260208c2091508b5b8b601f1989168210613fa857505086601f19811610613f8e575b5050600185811b016006850155613cb2565b8a0135600019600388901b60f8161c191690553880613f7c565b60018394602093948493013581550193019101613f62565b600685018b5260208b20601f870160051c810160208810613ffe575b601f830160051c82018110613ff2575050613c86565b60008155600101613fdc565b5080613fdc565b905086013538613c4b565b600586018c5260208c2091508b5b601f198a168110614062575088601f19811610614048575b5050600187811b016005850155613c62565b87013560001960038a901b60f8161c191690553880614036565b9091602060018192858c01358155019301910161401e565b600585018b5260208b20601f890160051c810160208a106140b8575b601f830160051c820181106140ac575050613c36565b60008155600101614096565b5080614096565b905088013538613bfa565b600486018c5260208c2091508b8e5b8b601f198216831061411f5750601f198116109050614105575b505060018c811b016004850155613c12565b89013560001960038f901b60f8161c1916905538806140f3565b6001849560209394958493013581550194019201906140d9565b600485018b5260208b208d6020601f820160051c83019110614178575b601f830160051c8201811061416c575050613be5565b60008155600101614156565b5080614156565b013590503880613ba9565b600388018e5260208e208e9450915b601f19841685106141de576001945083601f198116106141c4575b505050811b016003850155613bc1565b0135600019600384901b60f8161c191690553880806141b4565b81810135835560209485019460019093019201614199565b909150600387018d5260208d20601f840160051c810160208510614240575b90849392915b601f830160051c82018110614231575050613b94565b6000815585945060010161421b565b5080614215565b634e487b7160e01b8c52604160045260248cfd5b61426490614545565b611f59578938613b38565b6040513d8d823e3d90fd5b8b80fd5b61428a909a919a614545565b9838613ae2565b8c80fd5b9092506020813d6020116142c1575b816142b1602093836145a6565b8101031261429157519138613aa6565b3d91506142a4565b6040513d8f823e3d90fd5b8880fd5b9181601f84011215611f41578235916001600160401b038311611f415760208381860195010111611f4157565b6101c435908115158203611f4157565b6040906003190112611f41576004359060243590565b600435906001600160a01b0382168203611f4157565b602435906001600160a01b0382168203611f4157565b805482101561436f5760005260206000200190600090565b634e487b7160e01b600052603260045260246000fd5b6020908160408183019282815285518094520193019160005b8281106143ac575050505090565b83518552938101939281019260010161439e565b600311156143ca57565b634e487b7160e01b600052602160045260246000fd5b600411156143ca57565b9b99979593919e9d9c9a98969492909e6101c08d019f8d5260208d0152600160a01b600190031660408c015261441f816143c0565b60608b015260808a015260a089015260c088015260e0870152614441816143c0565b61010086015260ff1661012085015260ff1661014084015261016083015261018082015261446e826143e0565b6101a00152565b90600182811c921680156144a5575b602083101461448f57565b634e487b7160e01b600052602260045260246000fd5b91607f1691614484565b90600092918054916144c083614475565b91828252600193848116908160001461452257506001146144e2575b50505050565b90919394506000526020928360002092846000945b83861061450e5750505050010190388080806144dc565b8054858701830152940193859082016144f7565b9294505050602093945060ff191683830152151560051b010190388080806144dc565b6001600160401b03811161455857604052565b634e487b7160e01b600052604160045260246000fd5b6101c081019081106001600160401b0382111761455857604052565b61044081019081106001600160401b0382111761455857604052565b601f909101601f19168101906001600160401b0382119082101761455857604052565b919082519283825260005b8481106145f5575050826000602080949584010152601f8019910116010190565b6020818301810151848301820152016145d4565b600211156143ca57565b90600b8210156143ca5752565b805482101561436f57600052600b602060002091020190600090565b3360009081527fdd53df7e4642f4e3d9dededdac02355f2e876e2a9b7ef4e260af8d6fd7b332576020526040902054600080516020614d398339815191529060ff16156146865750565b6044906040519063e2517d3f60e01b82523360048301526024820152fd5b3360009081527fad3228b676f7d3cd4284a5443f17f1962b36e491b30a40b2405849e597ba5fb5602052604081205460ff16156146865750565b80600052600060205260406000203360005260205260ff60406000205416156146865750565b9060009180835282602052604083209160018060a01b03169182845260205260ff6040842054161560001461477d57808352826020526040832082845260205260408320600160ff198254161790557f2f8788117e7eff1d82e926ec794901d17c78024a50270940304540a733656f0d339380a4600190565b505090565b9060009180835282602052604083209160018060a01b03169182845260205260ff60408420541660001461477d5780835282602052604083208284526020526040832060ff1981541690557ff6391f5c32d9c69d2a47ea670b442974b53935d1edc7fd64eb21e047a839171b339380a4600190565b156147fe57565b60405162461bcd60e51b815260206004820152602660248201527f4f7074696f6e73436f72653a206e6f74696f6e616c206d75737420626520706f60448201526573697469766560d01b6064820152608490fd5b1561485957565b60405162461bcd60e51b815260206004820152602560248201527f4f7074696f6e73436f72653a20657870697279206d75737420626520696e2066604482015264757475726560d81b6064820152608490fd5b6001600160a01b039182168152911660208201526040810191909152608060608201819052600c908201526b6372656174696f6e5f66656560a01b60a082015260c00190565b60001981146149015760010190565b634e487b7160e01b600052601160045260246000fd5b9061492181614609565b60ff80198354169116179055565b90614921816143c0565b9061ff0082549160081b169061ff001916179055565b9062ff000082549160101b169062ff00001916179055565b9061497181614609565b61ff0082549160081b169061ff001916179055565b8054600160401b811015614558576149a391600182018155614357565b819291549060031b91821b91600019901b1916179055565b60ff600254166149c757565b60405163d93c066560e01b8152600490fd5b6002600154146149ea576002600155565b604051633ee5aeb560e01b8152600490fd5b15614a0357565b60405162461bcd60e51b815260206004820152601660248201527527b83a34b7b739a1b7b9329d103737ba10313abcb2b960511b6044820152606490fd5b8181029291811591840414171561490157565b6001600160a01b03918216815291166020820152604081019190915260600190565b6001600160a01b039182168152911660208201526040810191909152608060608201819052600b908201526a74726164696e675f66656560a81b60a082015260c00190565b15614ac257565b60405162461bcd60e51b815260206004820152601d60248201527f4f7074696f6e73436f72653a20696e76616c6964206f726465722069640000006044820152606490fd5b600f81526e189d5e595c8818d85b98d95b1b1959608a1b602082015260400190565b9190820180921161490157565b600b81526a1c999c481d1a5b595bdd5d60aa1b602082015260400190565b90600091825260086020526040808320835b8154811015614c4157614b798183614620565b5085600a82019182549260ff8416614b90816143e0565b1580614c34575b614bae575b50505050614ba9906148f2565b614b66565b6003809460ff191617905560018060a01b038093541683600283015416600660049586541693015494823b156129c4578490614bfd8a5197889687958694636924faa760e11b86528501614a54565b03925af18015614c2a5790614ba99291614c1b575b81928791614b9c565b614c2490614545565b38614c12565b84513d88823e3d90fd5b5060068201541515614b97565b5050509050565b600a6101a09183518155602084015160018201556002810160018060a01b036040860151168154906060870151614c7e816143c0565b614c87816143c0565b6001600160a81b03199092161760a091821b60ff60a01b161790915560808501516003830155840151600482015560c0840151600582015560e08401516006820155610100840151614d0c906007830190614ceb90614ce5816143c0565b8261492f565b614cfd60ff6101208801511682614939565b60ff610140870151169061494f565b6101608401516008820155610180840151600982015501910151614d2f816143e0565b614921816143e056fe300f9ae985dc711960f7a4d1dd013f9c19ecf40bff149522ab7523b2187a3846ce74058472262d5db42b1ca04d78e999d2dd523bdf8b33202e06cca947b31bbeb848a62ef7171019d243ed8f5b8e1e6c32cafed0b7fc99da26cb2fc2e7d533ec04967fd25e7aa667b18955d808f19fd0c86238999ff8be2ebc72cd2cd3a83db0ce3a31baf9956e086200ee7044a75c2befbd050912798b7bcd25d05831ab9592c0c6ed2669febbe340d8737e8ec17254ffd9e038b54a4585ff70ac3ca18956aa3d7463b72b52fafc8e3f27dc0dbb9d1a94c0a4024834252b5cce68509acb49bca2646970667358221220532a741457e81d607a7240084f211cc341b84248e5a12ef0f2eb927b0f84235864736f6c63430008140033","opcodes":"PUSH1 0x80 CALLVALUE PUSH3 0xF5 JUMPI PUSH1 0x1F PUSH3 0x5005 CODESIZE DUP2 SWAP1 SUB SWAP2 DUP3 ADD PUSH1 0x1F NOT AND DUP4 ADD SWAP2 PUSH1 0x1 PUSH1 0x1 PUSH1 0x40 SHL SUB DUP4 GT DUP5 DUP5 LT OR PUSH3 0xFA JUMPI DUP1 DUP5 SWAP3 PUSH1 0x80 SWAP5 PUSH1 0x40 MSTORE DUP4 CODECOPY DUP2 ADD SUB SLT PUSH3 0xF5 JUMPI DUP1 PUSH3 0x52 PUSH3 0xE4 SWAP3 PUSH3 0x110 JUMP JUMPDEST SWAP1 PUSH3 0x61 PUSH1 0x20 DUP3 ADD PUSH3 0x110 JUMP JUMPDEST SWAP1 PUSH3 0x7E PUSH1 0x60 PUSH3 0x76 PUSH1 0x40 DUP5 ADD PUSH3 0x110 JUMP JUMPDEST SWAP3 ADD PUSH3 0x110 JUMP JUMPDEST PUSH1 0x1 DUP1 DUP1 SSTORE PUSH1 0x5 DUP2 SWAP1 SSTORE PUSH1 0x6 SSTORE PUSH1 0x2 DUP1 SLOAD PUSH2 0x100 PUSH1 0x1 PUSH1 0xA8 SHL SUB NOT AND PUSH1 0x8 SWAP6 SWAP1 SWAP6 SHL PUSH2 0x100 PUSH1 0x1 PUSH1 0xA8 SHL SUB AND SWAP5 SWAP1 SWAP5 OR SWAP1 SWAP4 SSTORE PUSH1 0x3 DUP1 SLOAD PUSH1 0x1 PUSH1 0x1 PUSH1 0xA0 SHL SUB NOT SWAP1 DUP2 AND PUSH1 0x1 PUSH1 0x1 PUSH1 0xA0 SHL SUB SWAP5 DUP6 AND OR SWAP1 SWAP2 SSTORE PUSH1 0x4 DUP1 SLOAD SWAP1 SWAP2 AND SWAP2 SWAP1 SWAP3 AND OR SWAP1 SSTORE PUSH3 0x125 JUMP JUMPDEST POP PUSH1 0x40 MLOAD PUSH2 0x4E4E SWAP1 DUP2 PUSH3 0x1B7 DUP3 CODECOPY RETURN JUMPDEST PUSH1 0x0 DUP1 REVERT JUMPDEST PUSH4 0x4E487B71 PUSH1 0xE0 SHL PUSH1 0x0 MSTORE PUSH1 0x41 PUSH1 0x4 MSTORE PUSH1 0x24 PUSH1 0x0 REVERT JUMPDEST MLOAD SWAP1 PUSH1 0x1 PUSH1 0x1 PUSH1 0xA0 SHL SUB DUP3 AND DUP3 SUB PUSH3 0xF5 JUMPI JUMP JUMPDEST PUSH1 0x1 PUSH1 0x1 PUSH1 0xA0 SHL SUB AND PUSH1 0x0 DUP2 DUP2 MSTORE PUSH32 0xAD3228B676F7D3CD4284A5443F17F1962B36E491B30A40B2405849E597BA5FB5 PUSH1 0x20 MSTORE PUSH1 0x40 DUP2 KECCAK256 SLOAD SWAP1 SWAP2 SWAP1 PUSH1 0xFF AND PUSH3 0x1B2 JUMPI DUP2 DUP1 MSTORE DUP2 PUSH1 0x20 MSTORE PUSH1 0x40 DUP3 KECCAK256 DUP2 DUP4 MSTORE PUSH1 0x20 MSTORE PUSH1 0x40 DUP3 KECCAK256 PUSH1 0x1 PUSH1 0xFF NOT DUP3 SLOAD AND OR SWAP1 SSTORE CALLER SWAP2 PUSH32 0x2F8788117E7EFF1D82E926EC794901D17C78024A50270940304540A733656F0D DUP2 DUP1 LOG4 PUSH1 0x1 SWAP1 JUMP JUMPDEST POP SWAP1 JUMP INVALID PUSH2 0x280 PUSH1 0x40 MSTORE PUSH1 0x4 CALLDATASIZE LT ISZERO PUSH2 0x13 JUMPI PUSH1 0x0 DUP1 REVERT JUMPDEST PUSH1 0x0 DUP1 CALLDATALOAD PUSH1 0xE0 SHR DUP1 PUSH4 0x1D0D5B8 EQ PUSH2 0x3928 JUMPI DUP1 PUSH4 0x1FFC9A7 EQ PUSH2 0x38D1 JUMPI DUP1 PUSH4 0x15D92E33 EQ PUSH2 0x388A JUMPI DUP1 PUSH4 0x1C0DD7E8 EQ PUSH2 0x3843 JUMPI DUP1 PUSH4 0x20E3DBD4 EQ PUSH2 0x37F9 JUMPI DUP1 PUSH4 0x248A9CA3 EQ PUSH2 0x37CD JUMPI DUP1 PUSH4 0x2A58B330 EQ PUSH2 0x37AF JUMPI DUP1 PUSH4 0x2F2FF15D EQ PUSH2 0x3772 JUMPI DUP1 PUSH4 0x2F48AB7D EQ PUSH2 0x3749 JUMPI DUP1 PUSH4 0x3087A88C EQ PUSH2 0x3413 JUMPI DUP1 PUSH4 0x36568ABE EQ PUSH2 0x33CB JUMPI DUP1 PUSH4 0x3AB3784A EQ PUSH2 0x31C3 JUMPI DUP1 PUSH4 0x3F4BA83A EQ PUSH2 0x3158 JUMPI DUP1 PUSH4 0x42DD6D3E EQ PUSH2 0x303D JUMPI DUP1 PUSH4 0x44F1EAAE EQ PUSH2 0x2FF6 JUMPI DUP1 PUSH4 0x4500CB60 EQ PUSH2 0x2FAE JUMPI DUP1 PUSH4 0x45CB4505 EQ PUSH2 0x2F58 JUMPI DUP1 PUSH4 0x4EFEF6AA EQ PUSH2 0x2F3A JUMPI DUP1 PUSH4 0x5C975ABB EQ PUSH2 0x2F17 JUMPI DUP1 PUSH4 0x5D7FFE7B EQ PUSH2 0x2B27 JUMPI DUP1 PUSH4 0x5E9E78D0 EQ PUSH2 0x2AE0 JUMPI DUP1 PUSH4 0x67AC0BF0 EQ PUSH2 0x2768 JUMPI DUP1 PUSH4 0x6DBE7579 EQ PUSH2 0x253A JUMPI DUP1 PUSH4 0x7203A582 EQ PUSH2 0x20EE JUMPI DUP1 PUSH4 0x79502C55 EQ PUSH2 0x20C1 JUMPI DUP1 PUSH4 0x7D900421 EQ PUSH2 0x2034 JUMPI DUP1 PUSH4 0x8456CB59 EQ PUSH2 0x1FD9 JUMPI DUP1 PUSH4 0x8A4ADF24 EQ PUSH2 0x1FB0 JUMPI DUP1 PUSH4 0x91D14854 EQ PUSH2 0x1F65 JUMPI DUP1 PUSH4 0x979B4E6D EQ PUSH2 0x1577 JUMPI DUP1 PUSH4 0xA217FDDF EQ PUSH2 0x155B JUMPI DUP1 PUSH4 0xA45F2EBC EQ PUSH2 0x14E8 JUMPI DUP1 PUSH4 0xA61CF0D4 EQ PUSH2 0x1455 JUMPI DUP1 PUSH4 0xA85C38EF EQ PUSH2 0x107D JUMPI DUP1 PUSH4 0xAAB3196D EQ PUSH2 0x1010 JUMPI DUP1 PUSH4 0xB543503E EQ PUSH2 0xFCB JUMPI DUP1 PUSH4 0xBA9CF01D EQ PUSH2 0xFA2 JUMPI DUP1 PUSH4 0xBC0EF26B EQ PUSH2 0xDE0 JUMPI DUP1 PUSH4 0xCDC65AB6 EQ PUSH2 0xDB7 JUMPI DUP1 PUSH4 0xCF3FEC43 EQ PUSH2 0xD2A JUMPI DUP1 PUSH4 0xD049BFEF EQ PUSH2 0xADD JUMPI DUP1 PUSH4 0xD09EF241 EQ PUSH2 0x553 JUMPI DUP1 PUSH4 0xD37E527B EQ PUSH2 0x50C JUMPI DUP1 PUSH4 0xD426AEC1 EQ PUSH2 0x4C5 JUMPI DUP1 PUSH4 0xD547741F EQ PUSH2 0x484 JUMPI DUP1 PUSH4 0xE02E34F8 EQ PUSH2 0x35D JUMPI DUP1 PUSH4 0xE4CBAC40 EQ PUSH2 0x2DA JUMPI PUSH4 0xF7FF6426 EQ PUSH2 0x22E JUMPI PUSH1 0x0 DUP1 REVERT JUMPDEST CALLVALUE PUSH2 0x2D7 JUMPI PUSH2 0x23C CALLDATASIZE PUSH2 0x4315 JUMP JUMPDEST SWAP1 DUP3 MSTORE PUSH1 0x8 PUSH1 0x20 MSTORE PUSH1 0x40 DUP3 KECCAK256 DUP1 SLOAD DUP3 LT ISZERO PUSH2 0x2D3 JUMPI PUSH2 0x25B SWAP3 POP PUSH2 0x4620 JUMP JUMPDEST POP DUP1 SLOAD SWAP1 PUSH2 0x2CF PUSH1 0x1 DUP3 ADD SLOAD PUSH1 0x2 DUP4 ADD SLOAD SWAP3 PUSH1 0x3 DUP2 ADD SLOAD SWAP5 PUSH1 0x4 DUP3 ADD SLOAD SWAP3 PUSH1 0x5 DUP4 ADD SLOAD SWAP2 PUSH1 0x6 DUP5 ADD SLOAD SWAP1 PUSH1 0x7 DUP6 ADD SLOAD SWAP2 PUSH1 0x8 DUP7 ADD SLOAD SWAP5 PUSH1 0xFF PUSH1 0xA PUSH1 0x9 DUP10 ADD SLOAD SWAP9 ADD SLOAD AND SWAP8 PUSH1 0x40 MLOAD SWAP12 DUP13 SWAP12 DUP13 PUSH1 0xFF DUP9 PUSH1 0x10 SHR AND SWAP9 PUSH1 0xFF DUP1 DUP11 PUSH1 0x8 SHR AND SWAP10 AND SWAP8 PUSH1 0xFF DUP5 PUSH1 0xA0 SHR AND SWAP4 PUSH1 0x1 DUP1 PUSH1 0xA0 SHL SUB AND SWAP3 PUSH2 0x43EA JUMP JUMPDEST SUB SWAP1 RETURN JUMPDEST DUP3 DUP1 REVERT JUMPDEST DUP1 REVERT JUMPDEST POP CALLVALUE PUSH2 0x2D7 JUMPI PUSH1 0x20 DUP1 PUSH1 0x3 NOT CALLDATASIZE ADD SLT PUSH2 0x359 JUMPI PUSH1 0x1 PUSH1 0x1 PUSH1 0xA0 SHL SUB PUSH2 0x2FD PUSH2 0x432B JUMP JUMPDEST AND DUP3 MSTORE PUSH1 0xB DUP2 MSTORE PUSH1 0x40 DUP3 KECCAK256 SWAP2 PUSH1 0x40 MLOAD DUP1 SWAP3 DUP1 DUP6 SLOAD SWAP3 DUP4 DUP2 MSTORE ADD SWAP5 DUP4 MSTORE DUP1 DUP4 KECCAK256 SWAP3 SWAP1 JUMPDEST DUP3 DUP3 LT PUSH2 0x342 JUMPI PUSH2 0x2CF DUP6 PUSH2 0x336 DUP2 DUP10 SUB DUP3 PUSH2 0x45A6 JUMP JUMPDEST PUSH1 0x40 MLOAD SWAP2 DUP3 SWAP2 DUP3 PUSH2 0x4385 JUMP JUMPDEST DUP4 SLOAD DUP7 MSTORE SWAP5 DUP6 ADD SWAP5 PUSH1 0x1 SWAP4 DUP5 ADD SWAP4 SWAP1 SWAP2 ADD SWAP1 PUSH2 0x31F JUMP JUMPDEST POP DUP1 REVERT JUMPDEST POP CALLVALUE PUSH2 0x2D7 JUMPI PUSH2 0x36C CALLDATASIZE PUSH2 0x4315 JUMP JUMPDEST DUP2 ISZERO ISZERO DUP1 PUSH2 0x479 JUMPI JUMPDEST PUSH2 0x37E SWAP1 PUSH2 0x4ABB JUMP JUMPDEST PUSH2 0x386 PUSH2 0x46A4 JUMP JUMPDEST DUP2 DUP4 MSTORE PUSH1 0x7 PUSH1 0x20 MSTORE PUSH1 0x40 DUP4 KECCAK256 SWAP1 PUSH1 0x15 DUP3 ADD SWAP2 DUP3 SLOAD SWAP3 PUSH1 0xFF DUP5 PUSH1 0x10 SHR AND SWAP2 PUSH1 0xB DUP4 LT ISZERO PUSH2 0x465 JUMPI PUSH1 0x2 DUP4 SUB PUSH2 0x420 JUMPI PUSH1 0x0 DUP1 MLOAD PUSH1 0x20 PUSH2 0x4DB9 DUP4 CODECOPY DUP2 MLOAD SWAP2 MSTORE SWAP5 DUP5 PUSH1 0x19 DUP4 PUSH1 0xC0 SWAP8 PUSH1 0xA PUSH3 0x40000 SWAP7 ADD SSTORE ADD SSTORE PUSH3 0xFF0000 NOT AND OR SWAP1 SSTORE PUSH2 0x3EC PUSH1 0x40 MLOAD DUP1 SWAP3 PUSH2 0x4613 JUMP JUMPDEST PUSH1 0x4 PUSH1 0x20 DUP3 ADD MSTORE PUSH1 0x80 PUSH1 0x40 DUP3 ADD MSTORE PUSH1 0xC PUSH1 0x80 DUP3 ADD MSTORE PUSH12 0x1A5B9A5D1A585B0819995959 PUSH1 0xA2 SHL PUSH1 0xA0 DUP3 ADD MSTORE TIMESTAMP PUSH1 0x60 DUP3 ADD MSTORE LOG2 DUP1 RETURN JUMPDEST PUSH1 0x40 MLOAD PUSH3 0x461BCD PUSH1 0xE5 SHL DUP2 MSTORE PUSH1 0x20 PUSH1 0x4 DUP3 ADD MSTORE PUSH1 0x1E PUSH1 0x24 DUP3 ADD MSTORE PUSH32 0x4F7074696F6E73436F72653A206F72646572206E6F74206D6174636865640000 PUSH1 0x44 DUP3 ADD MSTORE PUSH1 0x64 SWAP1 REVERT JUMPDEST PUSH4 0x4E487B71 PUSH1 0xE0 SHL DUP8 MSTORE PUSH1 0x21 PUSH1 0x4 MSTORE PUSH1 0x24 DUP8 REVERT JUMPDEST POP PUSH1 0x5 SLOAD DUP3 LT PUSH2 0x375 JUMP JUMPDEST POP CALLVALUE PUSH2 0x2D7 JUMPI PUSH1 0x40 CALLDATASIZE PUSH1 0x3 NOT ADD SLT PUSH2 0x2D7 JUMPI PUSH2 0x4C1 PUSH1 0x4 CALLDATALOAD PUSH2 0x4A4 PUSH2 0x4341 JUMP JUMPDEST SWAP1 DUP1 DUP5 MSTORE DUP4 PUSH1 0x20 MSTORE PUSH2 0x4BC PUSH1 0x1 PUSH1 0x40 DUP7 KECCAK256 ADD SLOAD PUSH2 0x46DE JUMP JUMPDEST PUSH2 0x4782 JUMP JUMPDEST POP DUP1 RETURN JUMPDEST POP CALLVALUE PUSH2 0x2D7 JUMPI PUSH2 0x4D4 CALLDATASIZE PUSH2 0x4315 JUMP JUMPDEST SWAP1 DUP1 ISZERO ISZERO DUP1 PUSH2 0x501 JUMPI JUMPDEST PUSH2 0x4E7 SWAP1 PUSH2 0x4ABB JUMP JUMPDEST PUSH2 0x4EF PUSH2 0x463C JUMP JUMPDEST DUP3 MSTORE PUSH1 0x7 PUSH1 0x20 MSTORE PUSH1 0xA PUSH1 0x40 DUP4 KECCAK256 ADD SSTORE DUP1 RETURN JUMPDEST POP PUSH1 0x5 SLOAD DUP2 LT PUSH2 0x4DE JUMP JUMPDEST POP CALLVALUE PUSH2 0x2D7 JUMPI PUSH2 0x51B CALLDATASIZE PUSH2 0x4315 JUMP JUMPDEST SWAP1 DUP1 ISZERO ISZERO DUP1 PUSH2 0x548 JUMPI JUMPDEST PUSH2 0x52E SWAP1 PUSH2 0x4ABB JUMP JUMPDEST PUSH2 0x536 PUSH2 0x463C JUMP JUMPDEST DUP3 MSTORE PUSH1 0x7 PUSH1 0x20 MSTORE PUSH1 0x14 PUSH1 0x40 DUP4 KECCAK256 ADD SSTORE DUP1 RETURN JUMPDEST POP PUSH1 0x5 SLOAD DUP2 LT PUSH2 0x525 JUMP JUMPDEST POP CALLVALUE PUSH2 0x2D7 JUMPI PUSH1 0x20 CALLDATASIZE PUSH1 0x3 NOT ADD SLT PUSH2 0x2D7 JUMPI DUP1 PUSH2 0x420 PUSH1 0x40 MLOAD PUSH2 0x575 DUP2 PUSH2 0x458A JUMP JUMPDEST DUP3 DUP2 MSTORE DUP3 PUSH1 0x20 DUP3 ADD MSTORE DUP3 PUSH1 0x40 DUP3 ADD MSTORE PUSH1 0x60 DUP1 DUP3 ADD MSTORE PUSH1 0x60 PUSH1 0x80 DUP3 ADD MSTORE PUSH1 0x60 PUSH1 0xA0 DUP3 ADD MSTORE PUSH1 0x60 PUSH1 0xC0 DUP3 ADD MSTORE PUSH1 0x60 PUSH1 0xE0 DUP3 ADD MSTORE DUP3 PUSH2 0x100 DUP3 ADD MSTORE DUP3 PUSH2 0x120 DUP3 ADD MSTORE DUP3 PUSH2 0x140 DUP3 ADD MSTORE DUP3 PUSH2 0x160 DUP3 ADD MSTORE DUP3 PUSH2 0x180 DUP3 ADD MSTORE DUP3 PUSH2 0x1A0 DUP3 ADD MSTORE DUP3 PUSH2 0x1C0 DUP3 ADD MSTORE DUP3 PUSH2 0x1E0 DUP3 ADD MSTORE DUP3 PUSH2 0x200 DUP3 ADD MSTORE DUP3 PUSH2 0x220 DUP3 ADD MSTORE DUP3 PUSH2 0x240 DUP3 ADD MSTORE DUP3 PUSH2 0x260 DUP3 ADD MSTORE DUP3 PUSH2 0x280 DUP3 ADD MSTORE DUP3 PUSH2 0x2A0 DUP3 ADD MSTORE DUP3 PUSH2 0x2C0 DUP3 ADD MSTORE DUP3 PUSH2 0x2E0 DUP3 ADD MSTORE DUP3 PUSH2 0x300 DUP3 ADD MSTORE DUP3 PUSH2 0x320 DUP3 ADD MSTORE DUP3 PUSH2 0x340 DUP3 ADD MSTORE DUP3 PUSH2 0x360 DUP3 ADD MSTORE DUP3 PUSH2 0x380 DUP3 ADD MSTORE DUP3 PUSH2 0x3A0 DUP3 ADD MSTORE DUP3 PUSH2 0x3C0 DUP3 ADD MSTORE DUP3 PUSH2 0x3E0 DUP3 ADD MSTORE DUP3 PUSH2 0x400 DUP3 ADD MSTORE ADD MSTORE PUSH1 0x4 CALLDATALOAD DUP2 MSTORE PUSH1 0x7 PUSH1 0x20 MSTORE PUSH1 0x40 DUP2 KECCAK256 PUSH1 0x40 MLOAD SWAP2 PUSH2 0x672 DUP4 PUSH2 0x458A JUMP JUMPDEST DUP2 SLOAD DUP4 MSTORE PUSH1 0x1 DUP3 ADD SLOAD PUSH1 0x1 PUSH1 0x1 PUSH1 0xA0 SHL SUB SWAP1 DUP2 AND PUSH1 0x20 DUP6 ADD MSTORE PUSH1 0x2 DUP4 ADD SLOAD AND PUSH1 0x40 DUP1 DUP6 ADD SWAP2 SWAP1 SWAP2 MSTORE MLOAD PUSH2 0x6B3 DUP2 PUSH2 0x6AC DUP2 PUSH1 0x3 DUP8 ADD PUSH2 0x44AF JUMP JUMPDEST SUB DUP3 PUSH2 0x45A6 JUMP JUMPDEST PUSH1 0x60 DUP5 ADD MSTORE PUSH1 0x40 MLOAD PUSH2 0x6CC DUP2 PUSH2 0x6AC DUP2 PUSH1 0x4 DUP8 ADD PUSH2 0x44AF JUMP JUMPDEST PUSH1 0x80 DUP5 ADD MSTORE PUSH1 0x40 MLOAD PUSH2 0x6E5 DUP2 PUSH2 0x6AC DUP2 PUSH1 0x5 DUP8 ADD PUSH2 0x44AF JUMP JUMPDEST PUSH1 0xA0 DUP5 ADD MSTORE PUSH1 0x40 MLOAD PUSH2 0x6FE DUP2 PUSH2 0x6AC DUP2 PUSH1 0x6 DUP8 ADD PUSH2 0x44AF JUMP JUMPDEST PUSH1 0xC0 DUP5 ADD MSTORE PUSH1 0x40 MLOAD PUSH2 0x717 DUP2 PUSH2 0x6AC DUP2 PUSH1 0x7 DUP8 ADD PUSH2 0x44AF JUMP JUMPDEST PUSH1 0xE0 DUP5 ADD MSTORE PUSH1 0xFF PUSH1 0x8 DUP4 ADD SLOAD AND PUSH2 0x72D DUP2 PUSH2 0x4609 JUMP JUMPDEST PUSH2 0x100 DUP5 ADD MSTORE PUSH1 0x9 DUP3 ADD SLOAD PUSH2 0x120 DUP5 ADD MSTORE PUSH1 0xA DUP3 ADD SLOAD PUSH2 0x140 DUP5 ADD MSTORE PUSH1 0xB DUP3 ADD SLOAD PUSH2 0x160 DUP5 ADD MSTORE PUSH1 0xC DUP3 ADD SLOAD PUSH2 0x180 DUP5 ADD MSTORE PUSH1 0xD DUP3 ADD SLOAD PUSH2 0x1A0 DUP5 ADD MSTORE PUSH1 0xE DUP3 ADD SLOAD PUSH2 0x1C0 DUP5 ADD MSTORE PUSH1 0xF DUP3 ADD SLOAD PUSH2 0x1E0 DUP5 ADD MSTORE PUSH1 0x10 DUP3 ADD SLOAD PUSH2 0x200 DUP5 ADD MSTORE PUSH1 0x11 DUP3 ADD SLOAD PUSH2 0x220 DUP5 ADD MSTORE PUSH1 0x12 DUP3 ADD SLOAD PUSH2 0x7A7 PUSH1 0xFF DUP3 AND PUSH2 0x43C0 JUMP JUMPDEST PUSH1 0xFF DUP2 AND PUSH2 0x240 DUP6 ADD MSTORE PUSH1 0xFF DUP2 PUSH1 0x8 SHR AND PUSH2 0x260 DUP6 ADD MSTORE PUSH1 0xFF DUP2 PUSH1 0x10 SHR AND PUSH2 0x280 DUP6 ADD MSTORE PUSH1 0xFF DUP2 PUSH1 0x18 SHR AND PUSH2 0x2A0 DUP6 ADD MSTORE PUSH2 0x7E7 PUSH1 0xFF DUP3 PUSH1 0x20 SHR AND PUSH2 0x43C0 JUMP JUMPDEST PUSH1 0xFF DUP2 PUSH1 0x20 SHR AND PUSH2 0x2C0 DUP6 ADD MSTORE PUSH1 0x1 DUP1 PUSH1 0xA0 SHL SUB SWAP1 PUSH1 0x28 SHR AND PUSH2 0x2E0 DUP5 ADD MSTORE PUSH1 0x13 DUP3 ADD SLOAD PUSH2 0x300 DUP5 ADD MSTORE PUSH1 0x14 DUP3 ADD SLOAD PUSH2 0x320 DUP5 ADD MSTORE PUSH1 0x15 DUP3 ADD SLOAD SWAP1 PUSH1 0xFF DUP3 AND ISZERO ISZERO PUSH2 0x340 DUP6 ADD MSTORE PUSH2 0x83D PUSH1 0xFF DUP4 PUSH1 0x8 SHR AND PUSH2 0x4609 JUMP JUMPDEST PUSH1 0xFF DUP3 PUSH1 0x8 SHR AND PUSH2 0x360 DUP6 ADD MSTORE PUSH1 0xB PUSH1 0xFF DUP4 PUSH1 0x10 SHR AND LT ISZERO PUSH2 0xAC9 JUMPI POP SWAP1 PUSH1 0xFF PUSH1 0x1A SWAP3 PUSH1 0x10 SHR AND PUSH2 0x380 DUP5 ADD MSTORE PUSH1 0x16 DUP2 ADD SLOAD PUSH2 0x3A0 DUP5 ADD MSTORE PUSH1 0x17 DUP2 ADD SLOAD PUSH2 0x3C0 DUP5 ADD MSTORE PUSH1 0x18 DUP2 ADD SLOAD PUSH2 0x3E0 DUP5 ADD MSTORE PUSH1 0x19 DUP2 ADD SLOAD PUSH2 0x400 DUP5 ADD MSTORE ADD SLOAD PUSH2 0x420 DUP3 ADD MSTORE PUSH1 0x40 MLOAD DUP1 SWAP2 PUSH1 0x20 DUP3 MSTORE DUP1 MLOAD PUSH1 0x20 DUP4 ADD MSTORE PUSH1 0x1 DUP1 PUSH1 0xA0 SHL SUB PUSH1 0x20 DUP3 ADD MLOAD AND PUSH1 0x40 DUP4 ADD MSTORE PUSH1 0x1 DUP1 PUSH1 0xA0 SHL SUB PUSH1 0x40 DUP3 ADD MLOAD AND PUSH1 0x60 DUP4 ADD MSTORE PUSH2 0x420 PUSH2 0x953 PUSH2 0x8F3 PUSH1 0x60 DUP5 ADD MLOAD PUSH2 0x440 PUSH1 0x80 DUP8 ADD MSTORE PUSH2 0x460 DUP7 ADD SWAP1 PUSH2 0x45C9 JUMP JUMPDEST PUSH2 0x93D PUSH2 0x929 PUSH2 0x915 PUSH1 0x80 DUP8 ADD MLOAD SWAP4 PUSH1 0x1F NOT SWAP5 DUP6 DUP11 DUP4 SUB ADD PUSH1 0xA0 DUP12 ADD MSTORE PUSH2 0x45C9 JUMP JUMPDEST PUSH1 0xA0 DUP8 ADD MLOAD DUP5 DUP10 DUP4 SUB ADD PUSH1 0xC0 DUP11 ADD MSTORE PUSH2 0x45C9 JUMP JUMPDEST PUSH1 0xC0 DUP7 ADD MLOAD DUP4 DUP9 DUP4 SUB ADD PUSH1 0xE0 DUP10 ADD MSTORE PUSH2 0x45C9 JUMP JUMPDEST SWAP1 PUSH1 0xE0 DUP6 ADD MLOAD SWAP1 DUP7 DUP4 SUB ADD PUSH2 0x100 DUP8 ADD MSTORE PUSH2 0x45C9 JUMP JUMPDEST SWAP2 PUSH2 0x100 DUP2 ADD MLOAD PUSH2 0x963 DUP2 PUSH2 0x4609 JUMP JUMPDEST PUSH2 0x120 DUP6 ADD MSTORE PUSH2 0x120 DUP2 ADD MLOAD PUSH2 0x140 DUP6 ADD MSTORE PUSH2 0x140 DUP2 ADD MLOAD PUSH2 0x160 DUP6 ADD MSTORE PUSH2 0x160 DUP2 ADD MLOAD PUSH2 0x180 DUP6 ADD MSTORE PUSH2 0x180 DUP2 ADD MLOAD PUSH2 0x1A0 DUP6 ADD MSTORE PUSH2 0x1A0 DUP2 ADD MLOAD PUSH2 0x1C0 DUP6 ADD MSTORE PUSH2 0x1C0 DUP2 ADD MLOAD PUSH2 0x1E0 DUP6 ADD MSTORE PUSH2 0x1E0 DUP2 ADD MLOAD PUSH2 0x200 DUP6 ADD MSTORE PUSH2 0x200 DUP2 ADD MLOAD PUSH2 0x220 DUP6 ADD MSTORE PUSH2 0x220 DUP2 ADD MLOAD PUSH2 0x240 DUP6 ADD MSTORE PUSH2 0x240 DUP2 ADD MLOAD PUSH2 0x9E4 DUP2 PUSH2 0x43C0 JUMP JUMPDEST PUSH2 0x260 DUP6 ADD MSTORE PUSH1 0xFF PUSH2 0x260 DUP3 ADD MLOAD AND PUSH2 0x280 DUP6 ADD MSTORE PUSH1 0xFF PUSH2 0x280 DUP3 ADD MLOAD AND PUSH2 0x2A0 DUP6 ADD MSTORE PUSH1 0xFF PUSH2 0x2A0 DUP3 ADD MLOAD AND PUSH2 0x2C0 DUP6 ADD MSTORE PUSH2 0x2C0 DUP2 ADD MLOAD PUSH2 0xA26 DUP2 PUSH2 0x43C0 JUMP JUMPDEST PUSH2 0x2E0 DUP6 ADD MSTORE PUSH1 0x1 DUP1 PUSH1 0xA0 SHL SUB PUSH2 0x2E0 DUP3 ADD MLOAD AND PUSH2 0x300 DUP6 ADD MSTORE PUSH2 0x300 DUP2 ADD MLOAD PUSH2 0x320 DUP6 ADD MSTORE PUSH2 0x320 DUP2 ADD MLOAD PUSH2 0x340 DUP6 ADD MSTORE PUSH2 0x340 DUP2 ADD MLOAD ISZERO ISZERO PUSH2 0x360 DUP6 ADD MSTORE PUSH2 0x360 DUP2 ADD MLOAD PUSH2 0xA75 DUP2 PUSH2 0x4609 JUMP JUMPDEST PUSH2 0x380 DUP6 ADD MSTORE PUSH2 0xA8F PUSH2 0x380 DUP3 ADD MLOAD PUSH2 0x3A0 DUP7 ADD SWAP1 PUSH2 0x4613 JUMP JUMPDEST PUSH2 0x3A0 DUP2 ADD MLOAD PUSH2 0x3C0 DUP6 ADD MSTORE PUSH2 0x3C0 DUP2 ADD MLOAD PUSH2 0x3E0 DUP6 ADD MSTORE PUSH2 0x3E0 DUP2 ADD MLOAD PUSH2 0x400 DUP6 ADD MSTORE PUSH2 0x400 DUP2 ADD MLOAD DUP3 DUP6 ADD MSTORE ADD MLOAD PUSH2 0x440 DUP4 ADD MSTORE SUB SWAP1 RETURN JUMPDEST PUSH4 0x4E487B71 PUSH1 0xE0 SHL DUP2 MSTORE PUSH1 0x21 PUSH1 0x4 MSTORE PUSH1 0x24 SWAP1 REVERT JUMPDEST POP CALLVALUE PUSH2 0x2D7 JUMPI PUSH1 0x20 SWAP1 DUP2 PUSH1 0x3 NOT CALLDATASIZE ADD SLT PUSH2 0x2D7 JUMPI PUSH1 0x4 CALLDATALOAD DUP2 MSTORE PUSH1 0x8 DUP1 DUP4 MSTORE PUSH1 0x40 DUP3 KECCAK256 DUP1 SLOAD SWAP1 SWAP4 SWAP1 PUSH1 0x1 PUSH1 0x1 PUSH1 0x40 SHL SUB DUP2 GT PUSH2 0xD16 JUMPI SWAP2 DUP5 SWAP2 SWAP3 PUSH1 0x40 MLOAD SWAP2 PUSH1 0x5 PUSH2 0xB2A DUP7 DUP5 DUP4 SHL ADD DUP6 PUSH2 0x45A6 JUMP JUMPDEST DUP3 DUP5 MSTORE DUP6 DUP5 ADD SWAP2 DUP3 SWAP6 DUP9 MSTORE DUP7 DUP9 KECCAK256 SWAP2 DUP9 SWAP4 JUMPDEST DUP6 DUP6 LT PUSH2 0xC39 JUMPI POP POP POP POP POP POP PUSH1 0x40 MLOAD SWAP3 DUP1 DUP5 ADD SWAP2 DUP2 DUP6 MSTORE MLOAD DUP1 SWAP3 MSTORE PUSH1 0x40 DUP5 ADD SWAP3 SWAP5 JUMPDEST DUP3 DUP2 LT PUSH2 0xB6C JUMPI DUP5 DUP5 SUB DUP6 RETURN JUMPDEST SWAP1 SWAP2 SWAP3 DUP3 PUSH2 0x1C0 PUSH1 0x1 SWAP3 DUP9 MLOAD DUP1 MLOAD DUP3 MSTORE DUP4 DUP2 ADD MLOAD DUP5 DUP4 ADD MSTORE DUP5 DUP1 PUSH1 0xA0 SHL SUB PUSH1 0x40 DUP3 ADD MLOAD AND PUSH1 0x40 DUP4 ADD MSTORE PUSH1 0x60 DUP1 DUP3 ADD MLOAD SWAP1 PUSH2 0xBA5 DUP3 PUSH2 0x43C0 JUMP JUMPDEST DUP4 ADD MSTORE PUSH1 0x80 DUP1 DUP3 ADD MLOAD SWAP1 DUP4 ADD MSTORE PUSH1 0xA0 DUP1 DUP3 ADD MLOAD SWAP1 DUP4 ADD MSTORE PUSH1 0xC0 DUP1 DUP3 ADD MLOAD SWAP1 DUP4 ADD MSTORE PUSH1 0xE0 DUP2 ADD MLOAD PUSH1 0xE0 DUP4 ADD MSTORE PUSH2 0x100 DUP1 DUP3 ADD MLOAD SWAP1 PUSH2 0xBE1 DUP3 PUSH2 0x43C0 JUMP JUMPDEST DUP4 ADD MSTORE PUSH1 0xFF PUSH2 0x120 DUP2 DUP2 DUP5 ADD MLOAD AND SWAP1 DUP5 ADD MSTORE PUSH2 0x140 SWAP1 DUP2 DUP4 ADD MLOAD AND SWAP1 DUP4 ADD MSTORE PUSH2 0x160 DUP1 DUP3 ADD MLOAD SWAP1 DUP4 ADD MSTORE PUSH2 0x180 DUP1 DUP3 ADD MLOAD SWAP1 DUP4 ADD MSTORE PUSH2 0x1A0 DUP1 SWAP2 ADD MLOAD SWAP1 PUSH2 0xC27 DUP3 PUSH2 0x43E0 JUMP JUMPDEST DUP3 ADD MSTORE ADD SWAP7 ADD SWAP2 ADD SWAP5 SWAP3 SWAP2 SWAP1 SWAP5 PUSH2 0xB5F JUMP JUMPDEST PUSH1 0xB DUP10 PUSH1 0x1 SWAP3 PUSH1 0x40 SWAP13 SWAP12 SWAP10 SWAP11 SWAP13 MLOAD PUSH2 0xC50 DUP2 PUSH2 0x456E JUMP JUMPDEST DUP8 SLOAD DUP2 MSTORE DUP5 DUP9 ADD SLOAD DUP4 DUP3 ADD MSTORE PUSH1 0x2 DUP9 ADD SLOAD DUP6 DUP1 PUSH1 0xA0 SHL SUB DUP2 AND PUSH1 0x40 DUP4 ADD MSTORE PUSH1 0xFF SWAP1 DUP2 PUSH1 0xA0 SWAP2 DUP3 SHR AND PUSH2 0xC81 DUP2 PUSH2 0x43C0 JUMP JUMPDEST PUSH1 0x60 DUP5 ADD MSTORE PUSH1 0x3 DUP11 ADD SLOAD PUSH1 0x80 DUP5 ADD MSTORE PUSH1 0x4 DUP11 ADD SLOAD SWAP1 DUP4 ADD MSTORE DUP7 DUP10 ADD SLOAD PUSH1 0xC0 DUP4 ADD MSTORE PUSH1 0x6 DUP10 ADD SLOAD PUSH1 0xE0 DUP4 ADD MSTORE DUP1 PUSH1 0x7 DUP11 ADD SLOAD DUP2 DUP2 AND PUSH2 0xCBE DUP2 PUSH2 0x43C0 JUMP JUMPDEST PUSH2 0x100 DUP6 ADD MSTORE DUP2 DUP2 DUP12 SHR AND PUSH2 0x120 DUP6 ADD MSTORE PUSH1 0x10 SHR AND PUSH2 0x140 DUP4 ADD MSTORE DUP8 DUP10 ADD SLOAD PUSH2 0x160 DUP4 ADD MSTORE PUSH1 0x9 DUP10 ADD SLOAD PUSH2 0x180 DUP4 ADD MSTORE PUSH1 0xA DUP10 ADD SLOAD AND PUSH2 0xCFD DUP2 PUSH2 0x43E0 JUMP JUMPDEST PUSH2 0x1A0 DUP3 ADD MSTORE DUP2 MSTORE ADD SWAP5 ADD SWAP5 ADD SWAP4 SWAP3 SWAP9 SWAP7 SWAP6 SWAP8 SWAP9 PUSH2 0xB3C JUMP JUMPDEST PUSH4 0x4E487B71 PUSH1 0xE0 SHL DUP5 MSTORE PUSH1 0x41 PUSH1 0x4 MSTORE PUSH1 0x24 DUP5 REVERT JUMPDEST POP CALLVALUE PUSH2 0x2D7 JUMPI PUSH1 0x20 DUP1 PUSH1 0x3 NOT CALLDATASIZE ADD SLT PUSH2 0x359 JUMPI PUSH1 0x4 CALLDATALOAD PUSH1 0x1 PUSH1 0x1 PUSH1 0x40 SHL SUB DUP2 GT PUSH2 0x2D3 JUMPI PUSH2 0xD5D DUP3 SWAP2 CALLDATASIZE SWAP1 PUSH1 0x4 ADD PUSH2 0x42D8 JUMP JUMPDEST SWAP2 SWAP1 DUP3 PUSH1 0x40 MLOAD SWAP4 DUP5 SWAP3 DUP4 CALLDATACOPY DUP2 ADD PUSH1 0xC DUP2 MSTORE SUB ADD SWAP1 KECCAK256 SWAP2 PUSH1 0x40 MLOAD DUP1 SWAP3 DUP1 DUP6 SLOAD SWAP3 DUP4 DUP2 MSTORE ADD SWAP5 DUP4 MSTORE DUP1 DUP4 KECCAK256 SWAP3 SWAP1 JUMPDEST DUP3 DUP3 LT PUSH2 0xDA0 JUMPI PUSH2 0x2CF DUP6 PUSH2 0x336 DUP2 DUP10 SUB DUP3 PUSH2 0x45A6 JUMP JUMPDEST DUP4 SLOAD DUP7 MSTORE SWAP5 DUP6 ADD SWAP5 PUSH1 0x1 SWAP4 DUP5 ADD SWAP4 SWAP1 SWAP2 ADD SWAP1 PUSH2 0xD89 JUMP JUMPDEST POP CALLVALUE PUSH2 0x2D7 JUMPI DUP1 PUSH1 0x3 NOT CALLDATASIZE ADD SLT PUSH2 0x2D7 JUMPI PUSH1 0x20 PUSH1 0x40 MLOAD PUSH1 0x0 DUP1 MLOAD PUSH1 0x20 PUSH2 0x4D99 DUP4 CODECOPY DUP2 MLOAD SWAP2 MSTORE DUP2 MSTORE RETURN JUMPDEST POP CALLVALUE PUSH2 0x2D7 JUMPI PUSH1 0x20 DUP1 PUSH1 0x3 NOT CALLDATASIZE ADD SLT PUSH2 0x359 JUMPI PUSH1 0x4 CALLDATALOAD SWAP1 DUP2 ISZERO ISZERO DUP1 PUSH2 0xF97 JUMPI JUMPDEST PUSH2 0xE09 SWAP1 PUSH2 0x4ABB JUMP JUMPDEST DUP2 DUP4 MSTORE PUSH1 0x7 DUP2 MSTORE PUSH2 0xE2A PUSH1 0x1 DUP1 PUSH1 0xA0 SHL SUB PUSH1 0x1 PUSH1 0x40 DUP7 KECCAK256 ADD SLOAD AND CALLER EQ PUSH2 0x49FC JUMP JUMPDEST PUSH2 0xE32 PUSH2 0x49D9 JUMP JUMPDEST PUSH2 0xE3A PUSH2 0x49BB JUMP JUMPDEST DUP2 DUP4 MSTORE PUSH1 0x7 DUP2 MSTORE PUSH1 0x15 PUSH1 0x40 DUP5 KECCAK256 ADD PUSH1 0xFF DUP2 SLOAD PUSH1 0x10 SHR AND PUSH1 0xB DUP2 LT ISZERO DUP1 PUSH2 0xF83 JUMPI DUP2 ISZERO DUP1 ISZERO PUSH2 0xF76 JUMPI JUMPDEST ISZERO PUSH2 0xF22 JUMPI PUSH2 0xF0E JUMPI PUSH1 0x0 DUP1 MLOAD PUSH1 0x20 PUSH2 0x4DB9 DUP4 CODECOPY DUP2 MLOAD SWAP2 MSTORE SWAP3 PUSH2 0xED9 PUSH1 0xFF SWAP4 PUSH1 0x1 PUSH1 0xA SWAP5 EQ PUSH2 0xF00 JUMPI JUMPDEST DUP1 SLOAD SWAP1 PUSH3 0xA0000 PUSH3 0xFF0000 NOT DUP4 AND OR SWAP1 SSTORE DUP7 PUSH1 0x0 DUP1 MLOAD PUSH1 0x20 PUSH2 0x4D79 DUP4 CODECOPY DUP2 MLOAD SWAP2 MSTORE PUSH1 0x40 MLOAD PUSH1 0x40 DUP2 MSTORE DUP1 PUSH2 0xEC2 PUSH1 0x40 DUP3 ADD PUSH2 0x4B07 JUMP JUMPDEST TIMESTAMP DUP9 DUP4 ADD MSTORE SUB SWAP1 LOG2 PUSH1 0x40 MLOAD SWAP5 DUP6 SWAP2 PUSH1 0x10 SHR AND PUSH2 0x4613 JUMP JUMPDEST DUP3 ADD MSTORE PUSH1 0x80 PUSH1 0x40 DUP3 ADD MSTORE DUP1 PUSH2 0xEF0 PUSH1 0x80 DUP3 ADD PUSH2 0x4B07 JUMP JUMPDEST TIMESTAMP PUSH1 0x60 DUP4 ADD MSTORE SUB SWAP1 LOG2 PUSH1 0x1 DUP1 SSTORE DUP1 RETURN JUMPDEST PUSH2 0xF09 DUP8 PUSH2 0x4B54 JUMP JUMPDEST PUSH2 0xE8D JUMP JUMPDEST PUSH4 0x4E487B71 PUSH1 0xE0 SHL DUP6 MSTORE PUSH1 0x21 PUSH1 0x4 MSTORE PUSH1 0x24 DUP6 REVERT JUMPDEST PUSH1 0x40 MLOAD PUSH3 0x461BCD PUSH1 0xE5 SHL DUP2 MSTORE PUSH1 0x4 DUP2 ADD DUP6 SWAP1 MSTORE PUSH1 0x26 PUSH1 0x24 DUP3 ADD MSTORE PUSH32 0x4F7074696F6E73436F72653A2063616E6E6F742063616E63656C206166746572 PUSH1 0x44 DUP3 ADD MSTORE PUSH6 0x40DAC2E8C6D PUSH1 0xD3 SHL PUSH1 0x64 DUP3 ADD MSTORE PUSH1 0x84 SWAP1 REVERT JUMPDEST POP POP PUSH1 0x0 PUSH1 0x1 DUP3 EQ PUSH2 0xE63 JUMP JUMPDEST PUSH4 0x4E487B71 PUSH1 0xE0 SHL DUP7 MSTORE PUSH1 0x21 PUSH1 0x4 MSTORE PUSH1 0x24 DUP7 REVERT JUMPDEST POP PUSH1 0x5 SLOAD DUP3 LT PUSH2 0xE00 JUMP JUMPDEST POP CALLVALUE PUSH2 0x2D7 JUMPI DUP1 PUSH1 0x3 NOT CALLDATASIZE ADD SLT PUSH2 0x2D7 JUMPI PUSH1 0x20 PUSH1 0x40 MLOAD PUSH1 0x0 DUP1 MLOAD PUSH1 0x20 PUSH2 0x4D39 DUP4 CODECOPY DUP2 MLOAD SWAP2 MSTORE DUP2 MSTORE RETURN JUMPDEST POP CALLVALUE PUSH2 0x2D7 JUMPI PUSH1 0x20 CALLDATASIZE PUSH1 0x3 NOT ADD SLT PUSH2 0x2D7 JUMPI PUSH2 0xFE5 PUSH2 0x432B JUMP JUMPDEST PUSH2 0xFED PUSH2 0x46A4 JUMP JUMPDEST PUSH1 0x3 DUP1 SLOAD PUSH1 0x1 PUSH1 0x1 PUSH1 0xA0 SHL SUB NOT AND PUSH1 0x1 PUSH1 0x1 PUSH1 0xA0 SHL SUB SWAP3 SWAP1 SWAP3 AND SWAP2 SWAP1 SWAP2 OR SWAP1 SSTORE DUP1 RETURN JUMPDEST POP CALLVALUE PUSH2 0x2D7 JUMPI PUSH1 0x40 CALLDATASIZE PUSH1 0x3 NOT ADD SLT PUSH2 0x2D7 JUMPI PUSH1 0x24 CALLDATALOAD PUSH1 0x4 CALLDATALOAD PUSH1 0xB DUP3 LT ISZERO PUSH2 0x2D3 JUMPI DUP1 ISZERO ISZERO DUP1 PUSH2 0x1072 JUMPI JUMPDEST PUSH2 0x1043 SWAP1 PUSH2 0x4ABB JUMP JUMPDEST PUSH2 0x104B PUSH2 0x463C JUMP JUMPDEST DUP3 MSTORE PUSH1 0x7 PUSH1 0x20 MSTORE PUSH1 0x15 PUSH1 0x40 DUP4 KECCAK256 ADD SWAP1 PUSH3 0xFF0000 DUP3 SLOAD SWAP2 PUSH1 0x10 SHL AND SWAP1 PUSH3 0xFF0000 NOT AND OR SWAP1 SSTORE DUP1 RETURN JUMPDEST POP PUSH1 0x5 SLOAD DUP2 LT PUSH2 0x103A JUMP JUMPDEST POP CALLVALUE PUSH2 0x2D7 JUMPI PUSH1 0x20 CALLDATASIZE PUSH1 0x3 NOT ADD SLT PUSH2 0x2D7 JUMPI PUSH1 0x4 CALLDATALOAD DUP2 MSTORE PUSH1 0x7 PUSH1 0x20 MSTORE PUSH1 0x40 SWAP1 DUP2 SWAP1 KECCAK256 PUSH2 0x200 DUP2 SWAP1 MSTORE DUP1 SLOAD PUSH2 0x260 MSTORE PUSH1 0x1 DUP2 ADD SLOAD PUSH1 0x1 PUSH1 0x1 PUSH1 0xA0 SHL SUB SWAP1 DUP2 AND PUSH1 0xE0 MSTORE PUSH1 0x2 DUP3 ADD SLOAD SWAP3 MLOAD PUSH2 0x160 DUP2 SWAP1 MSTORE SWAP3 AND SWAP2 SWAP1 PUSH2 0x10DD SWAP1 DUP3 SWAP1 PUSH1 0x3 ADD PUSH2 0x44AF JUMP JUMPDEST SUB PUSH2 0x160 MLOAD SWAP1 PUSH2 0x10EC SWAP2 PUSH2 0x45A6 JUMP JUMPDEST PUSH1 0x40 MLOAD DUP1 DUP1 PUSH2 0x200 MLOAD PUSH1 0x4 ADD SWAP1 PUSH2 0x1102 SWAP2 PUSH2 0x44AF JUMP JUMPDEST SUB PUSH2 0x110D SWAP1 DUP3 PUSH2 0x45A6 JUMP JUMPDEST PUSH1 0x40 MLOAD SWAP2 DUP3 DUP1 PUSH2 0x200 MLOAD PUSH1 0x5 ADD SWAP1 PUSH2 0x1124 SWAP2 PUSH2 0x44AF JUMP JUMPDEST SUB PUSH2 0x112F SWAP1 DUP5 PUSH2 0x45A6 JUMP JUMPDEST PUSH1 0x40 MLOAD SWAP2 DUP3 DUP1 PUSH2 0x200 MLOAD PUSH1 0x6 ADD SWAP1 PUSH2 0x1146 SWAP2 PUSH2 0x44AF JUMP JUMPDEST SUB PUSH2 0x1151 SWAP1 DUP5 PUSH2 0x45A6 JUMP JUMPDEST PUSH1 0x40 MLOAD SWAP4 DUP5 DUP1 PUSH2 0x200 MLOAD PUSH1 0x7 ADD SWAP1 PUSH2 0x1168 SWAP2 PUSH2 0x44AF JUMP JUMPDEST SUB PUSH2 0x1173 SWAP1 DUP7 PUSH2 0x45A6 JUMP JUMPDEST PUSH2 0x200 MLOAD SWAP4 PUSH1 0x8 DUP6 ADD SLOAD PUSH1 0xFF AND PUSH2 0x180 MSTORE PUSH1 0x9 DUP6 ADD SLOAD SWAP6 PUSH1 0xA DUP7 ADD SLOAD PUSH1 0xB DUP8 ADD SLOAD SWAP2 PUSH1 0xC DUP9 ADD SLOAD SWAP4 PUSH1 0xD DUP10 ADD SLOAD SWAP6 PUSH1 0xE DUP11 ADD SLOAD SWAP8 PUSH1 0xF DUP12 ADD SLOAD SWAP10 PUSH1 0x10 DUP13 ADD SLOAD SWAP12 PUSH1 0x11 DUP2 ADD SLOAD PUSH2 0x140 MSTORE PUSH1 0x12 DUP2 ADD SLOAD PUSH1 0xC0 MSTORE PUSH1 0x13 DUP2 ADD SLOAD PUSH2 0x120 MSTORE PUSH1 0x14 DUP2 ADD SLOAD PUSH2 0x1A0 MSTORE PUSH1 0x15 DUP2 ADD SLOAD PUSH2 0x1C0 MSTORE PUSH1 0x16 DUP2 ADD SLOAD PUSH2 0x1E0 MSTORE PUSH1 0x17 DUP2 ADD SLOAD PUSH2 0x100 MSTORE PUSH1 0x18 DUP2 ADD SLOAD PUSH2 0x220 MSTORE PUSH1 0x19 DUP2 ADD SLOAD PUSH1 0xA0 MSTORE PUSH1 0x1A ADD SLOAD PUSH1 0x80 MSTORE PUSH1 0x40 MLOAD DUP1 PUSH2 0x240 MSTORE PUSH2 0x260 MLOAD SWAP1 MSTORE PUSH1 0xE0 MLOAD PUSH2 0x240 MLOAD PUSH1 0x20 ADD MSTORE PUSH2 0x240 MLOAD PUSH1 0x40 ADD MSTORE PUSH2 0x440 DUP1 PUSH2 0x240 MLOAD PUSH1 0x60 ADD MSTORE PUSH2 0x240 MLOAD ADD PUSH2 0x160 MLOAD SWAP1 PUSH2 0x1249 SWAP2 PUSH2 0x45C9 JUMP JUMPDEST PUSH2 0x240 MLOAD DUP1 DUP3 SUB SWAP1 PUSH1 0x80 ADD MSTORE PUSH2 0x125E SWAP2 PUSH2 0x45C9 JUMP JUMPDEST PUSH2 0x240 MLOAD DUP1 DUP3 SUB SWAP1 PUSH1 0xA0 ADD MSTORE PUSH2 0x1273 SWAP2 PUSH2 0x45C9 JUMP JUMPDEST PUSH2 0x240 MLOAD DUP1 DUP3 SUB SWAP1 PUSH1 0xC0 ADD MSTORE PUSH2 0x1288 SWAP2 PUSH2 0x45C9 JUMP JUMPDEST PUSH2 0x240 MLOAD DUP1 DUP3 SUB SWAP1 PUSH1 0xE0 ADD MSTORE PUSH2 0x129D SWAP2 PUSH2 0x45C9 JUMP JUMPDEST SWAP8 PUSH2 0x180 MLOAD PUSH2 0x12AB SWAP1 PUSH2 0x4609 JUMP JUMPDEST PUSH2 0x180 MLOAD PUSH2 0x240 MLOAD PUSH2 0x100 ADD MSTORE PUSH2 0x240 MLOAD PUSH2 0x120 ADD MSTORE PUSH2 0x240 MLOAD PUSH2 0x140 ADD MSTORE PUSH2 0x240 MLOAD PUSH2 0x160 ADD MSTORE PUSH2 0x240 MLOAD PUSH2 0x180 ADD MSTORE PUSH2 0x240 MLOAD PUSH2 0x1A0 ADD MSTORE PUSH2 0x240 MLOAD PUSH2 0x1C0 ADD MSTORE PUSH2 0x240 MLOAD PUSH2 0x1E0 ADD MSTORE PUSH2 0x240 MLOAD PUSH2 0x200 ADD MSTORE PUSH2 0x140 MLOAD PUSH2 0x240 MLOAD PUSH2 0x220 ADD MSTORE PUSH1 0xC0 MLOAD PUSH1 0xFF AND PUSH2 0x131C SWAP1 PUSH2 0x43C0 JUMP JUMPDEST PUSH1 0xC0 MLOAD PUSH1 0xFF AND PUSH2 0x240 MLOAD PUSH2 0x240 ADD MSTORE PUSH1 0xC0 MLOAD PUSH1 0x8 SHR PUSH1 0xFF AND PUSH2 0x240 MLOAD PUSH2 0x260 ADD MSTORE PUSH1 0xC0 MLOAD PUSH1 0x10 SHR PUSH1 0xFF AND PUSH2 0x240 MLOAD PUSH2 0x280 ADD MSTORE PUSH1 0xC0 MLOAD PUSH1 0x18 SHR PUSH1 0xFF AND PUSH2 0x240 MLOAD PUSH2 0x2A0 ADD MSTORE PUSH1 0xC0 MLOAD PUSH1 0x20 SHR PUSH1 0xFF AND PUSH2 0x1373 SWAP1 PUSH2 0x43C0 JUMP JUMPDEST PUSH1 0xC0 MLOAD PUSH1 0x20 SHR PUSH1 0xFF AND PUSH2 0x240 MLOAD PUSH2 0x2C0 ADD MSTORE PUSH1 0x1 PUSH1 0xA0 SHL PUSH1 0x1 SWAP1 SUB PUSH1 0xC0 MLOAD PUSH1 0x28 SHR AND PUSH2 0x240 MLOAD PUSH2 0x2E0 ADD MSTORE PUSH2 0x120 MLOAD PUSH2 0x240 MLOAD PUSH2 0x300 ADD MSTORE PUSH2 0x1A0 MLOAD PUSH2 0x240 MLOAD PUSH2 0x320 ADD MSTORE PUSH2 0x1C0 MLOAD PUSH1 0xFF AND ISZERO ISZERO PUSH2 0x240 MLOAD PUSH2 0x340 ADD MSTORE PUSH2 0x1C0 MLOAD PUSH1 0x8 SHR PUSH1 0xFF AND PUSH2 0x13DD SWAP1 PUSH2 0x4609 JUMP JUMPDEST PUSH2 0x1C0 MLOAD PUSH1 0x8 SHR PUSH1 0xFF AND PUSH2 0x240 MLOAD PUSH2 0x360 ADD MSTORE PUSH2 0x240 MLOAD PUSH2 0x380 ADD PUSH2 0x1C0 MLOAD PUSH1 0x10 SHR PUSH1 0xFF AND SWAP1 PUSH2 0x140C SWAP2 PUSH2 0x4613 JUMP JUMPDEST PUSH2 0x1E0 MLOAD PUSH2 0x240 MLOAD PUSH2 0x3A0 ADD MSTORE PUSH2 0x100 MLOAD PUSH2 0x240 MLOAD PUSH2 0x3C0 ADD MSTORE PUSH2 0x220 MLOAD PUSH2 0x240 MLOAD PUSH2 0x3E0 ADD MSTORE PUSH1 0xA0 MLOAD PUSH2 0x240 MLOAD PUSH2 0x400 ADD MSTORE PUSH1 0x80 MLOAD PUSH2 0x240 MLOAD PUSH2 0x420 ADD MSTORE PUSH2 0x240 MLOAD DUP1 SWAP2 SUB SWAP1 RETURN JUMPDEST POP CALLVALUE PUSH2 0x2D7 JUMPI PUSH1 0x20 CALLDATASIZE PUSH1 0x3 NOT ADD SLT PUSH2 0x2D7 JUMPI PUSH1 0x40 SWAP1 PUSH1 0x4 CALLDATALOAD DUP2 MSTORE PUSH1 0x9 PUSH1 0x20 MSTORE KECCAK256 DUP1 SLOAD SWAP1 PUSH2 0x2CF PUSH1 0x1 DUP3 ADD SLOAD PUSH1 0x2 DUP4 ADD SLOAD SWAP3 PUSH1 0x3 DUP2 ADD SLOAD SWAP5 PUSH1 0x4 DUP3 ADD SLOAD SWAP3 PUSH1 0x5 DUP4 ADD SLOAD SWAP2 PUSH1 0x6 DUP5 ADD SLOAD SWAP1 PUSH1 0x7 DUP6 ADD SLOAD SWAP2 PUSH1 0x8 DUP7 ADD SLOAD SWAP5 PUSH1 0xFF PUSH1 0xA PUSH1 0x9 DUP10 ADD SLOAD SWAP9 ADD SLOAD AND SWAP8 PUSH1 0x40 MLOAD SWAP12 DUP13 SWAP12 DUP13 PUSH1 0xFF DUP9 PUSH1 0x10 SHR AND SWAP9 PUSH1 0xFF DUP1 DUP11 PUSH1 0x8 SHR AND SWAP10 AND SWAP8 PUSH1 0xFF DUP5 PUSH1 0xA0 SHR AND SWAP4 PUSH1 0x1 DUP1 PUSH1 0xA0 SHL SUB AND SWAP3 PUSH2 0x43EA JUMP JUMPDEST POP CALLVALUE PUSH2 0x2D7 JUMPI PUSH1 0x20 DUP1 PUSH1 0x3 NOT CALLDATASIZE ADD SLT PUSH2 0x359 JUMPI PUSH1 0x1 PUSH1 0x1 PUSH1 0xA0 SHL SUB PUSH2 0x150B PUSH2 0x432B JUMP JUMPDEST AND DUP3 MSTORE PUSH1 0xA DUP2 MSTORE PUSH1 0x40 DUP3 KECCAK256 SWAP2 PUSH1 0x40 MLOAD DUP1 SWAP3 DUP1 DUP6 SLOAD SWAP3 DUP4 DUP2 MSTORE ADD SWAP5 DUP4 MSTORE DUP1 DUP4 KECCAK256 SWAP3 SWAP1 JUMPDEST DUP3 DUP3 LT PUSH2 0x1544 JUMPI PUSH2 0x2CF DUP6 PUSH2 0x336 DUP2 DUP10 SUB DUP3 PUSH2 0x45A6 JUMP JUMPDEST DUP4 SLOAD DUP7 MSTORE SWAP5 DUP6 ADD SWAP5 PUSH1 0x1 SWAP4 DUP5 ADD SWAP4 SWAP1 SWAP2 ADD SWAP1 PUSH2 0x152D JUMP JUMPDEST POP CALLVALUE PUSH2 0x2D7 JUMPI DUP1 PUSH1 0x3 NOT CALLDATASIZE ADD SLT PUSH2 0x2D7 JUMPI PUSH1 0x20 SWAP1 PUSH1 0x40 MLOAD SWAP1 DUP2 MSTORE RETURN JUMPDEST POP CALLVALUE PUSH2 0x2D7 JUMPI PUSH2 0x260 CALLDATASIZE PUSH1 0x3 NOT ADD SLT PUSH2 0x2D7 JUMPI PUSH1 0x4 CALLDATALOAD PUSH1 0x1 PUSH1 0x1 PUSH1 0x40 SHL SUB DUP2 GT PUSH2 0x359 JUMPI PUSH2 0x15A9 SWAP1 CALLDATASIZE SWAP1 PUSH1 0x4 ADD PUSH2 0x42D8 JUMP JUMPDEST PUSH1 0x24 CALLDATALOAD PUSH1 0x1 PUSH1 0x1 PUSH1 0x40 SHL SUB DUP2 GT PUSH2 0x1F61 JUMPI PUSH2 0x15C8 SWAP1 CALLDATASIZE SWAP1 PUSH1 0x4 ADD PUSH2 0x42D8 JUMP JUMPDEST SWAP1 PUSH1 0x44 CALLDATALOAD PUSH1 0x1 PUSH1 0x1 PUSH1 0x40 SHL SUB DUP2 GT PUSH2 0x1F11 JUMPI PUSH2 0x15E8 SWAP1 CALLDATASIZE SWAP1 PUSH1 0x4 ADD PUSH2 0x42D8 JUMP JUMPDEST SWAP1 PUSH1 0x64 CALLDATALOAD PUSH1 0x1 PUSH1 0x1 PUSH1 0x40 SHL SUB DUP2 GT PUSH2 0x1F5D JUMPI PUSH2 0x1608 SWAP1 CALLDATASIZE SWAP1 PUSH1 0x4 ADD PUSH2 0x42D8 JUMP JUMPDEST SWAP1 PUSH1 0x84 CALLDATALOAD PUSH1 0x1 PUSH1 0x1 PUSH1 0x40 SHL SUB DUP2 GT PUSH2 0x1F59 JUMPI PUSH2 0x1628 SWAP1 CALLDATASIZE SWAP1 PUSH1 0x4 ADD PUSH2 0x42D8 JUMP JUMPDEST SWAP10 SWAP1 SWAP9 PUSH1 0x2 PUSH1 0xA4 CALLDATALOAD LT ISZERO PUSH2 0x359 JUMPI PUSH1 0x3 PUSH2 0x144 CALLDATALOAD LT ISZERO PUSH2 0x359 JUMPI PUSH2 0x164 CALLDATALOAD PUSH1 0x1 PUSH1 0x1 PUSH1 0xA0 SHL SUB DUP2 AND SWAP1 SUB PUSH2 0x1F41 JUMPI PUSH2 0x165E PUSH2 0x4305 JUMP JUMPDEST PUSH1 0x3 PUSH2 0x1E4 CALLDATALOAD LT ISZERO PUSH2 0x2D3 JUMPI PUSH1 0xFF PUSH2 0x204 CALLDATALOAD AND PUSH2 0x204 CALLDATALOAD SUB PUSH2 0x1F41 JUMPI PUSH1 0xFF PUSH2 0x224 CALLDATALOAD AND PUSH2 0x224 CALLDATALOAD SUB PUSH2 0x1F41 JUMPI PUSH1 0x2 PUSH2 0x244 CALLDATALOAD LT ISZERO PUSH2 0x2D3 JUMPI PUSH2 0x169E PUSH2 0x49D9 JUMP JUMPDEST PUSH2 0x16A6 PUSH2 0x49BB JUMP JUMPDEST PUSH2 0x16B3 PUSH1 0xC4 CALLDATALOAD ISZERO ISZERO PUSH2 0x47F7 JUMP JUMPDEST PUSH2 0x16C0 TIMESTAMP PUSH1 0xE4 CALLDATALOAD GT PUSH2 0x4852 JUMP JUMPDEST PUSH1 0x3 SLOAD PUSH1 0x4 DUP1 SLOAD PUSH1 0x2 SLOAD PUSH1 0x40 MLOAD PUSH4 0x37382D39 PUSH1 0xE2 SHL DUP2 MSTORE SWAP4 PUSH1 0x1 PUSH1 0x1 PUSH1 0xA0 SHL SUB SWAP1 DUP2 AND SWAP4 SWAP3 DUP2 AND SWAP3 PUSH1 0x20 SWAP3 DUP7 SWAP3 DUP4 SWAP2 PUSH1 0x8 SHR AND GAS STATICCALL SWAP3 DUP4 ISZERO PUSH2 0x1F4E JUMPI DUP7 SWAP4 PUSH2 0x1F15 JUMPI JUMPDEST POP DUP2 EXTCODESIZE ISZERO PUSH2 0x1F11 JUMPI SWAP2 DUP6 SWAP2 PUSH2 0x1730 SWAP4 DUP4 PUSH1 0x40 MLOAD DUP1 SWAP7 DUP2 SWAP6 DUP3 SWAP5 PUSH4 0xEC185A07 PUSH1 0xE0 SHL DUP5 MSTORE CALLER PUSH1 0x4 DUP6 ADD PUSH2 0x48AC JUMP JUMPDEST SUB SWAP3 GAS CALL DUP1 ISZERO PUSH2 0x1F06 JUMPI SWAP1 DUP5 SWAP2 PUSH2 0x1EF2 JUMPI JUMPDEST POP POP PUSH1 0x5 SLOAD SWAP10 PUSH2 0x1751 DUP12 PUSH2 0x48F2 JUMP JUMPDEST PUSH1 0x5 SSTORE DUP11 DUP5 MSTORE PUSH1 0x7 PUSH1 0x20 MSTORE PUSH1 0x40 DUP5 KECCAK256 DUP12 DUP2 SSTORE PUSH1 0x1 DUP2 ADD DUP1 SLOAD PUSH1 0x1 PUSH1 0x1 PUSH1 0xA0 SHL SUB NOT AND CALLER OR SWAP1 SSTORE SWAP3 PUSH1 0x1 PUSH1 0x1 PUSH1 0x40 SHL SUB DUP3 GT PUSH2 0x1EDE JUMPI DUP2 SWAP1 PUSH2 0x1795 PUSH1 0x3 DUP7 ADD SLOAD PUSH2 0x4475 JUMP JUMPDEST PUSH1 0x1F DUP2 GT PUSH2 0x1E8D JUMPI JUMPDEST POP DUP6 SWAP1 PUSH1 0x1F DUP4 GT PUSH1 0x1 EQ PUSH2 0x1E21 JUMPI DUP7 SWAP3 PUSH2 0x1E16 JUMPI JUMPDEST POP POP DUP2 PUSH1 0x1 SHL SWAP2 PUSH1 0x0 NOT SWAP1 PUSH1 0x3 SHL SHR NOT AND OR PUSH1 0x3 DUP4 ADD SSTORE JUMPDEST PUSH1 0x1 PUSH1 0x1 PUSH1 0x40 SHL SUB DUP10 GT PUSH2 0x1BD2 JUMPI PUSH2 0x17E6 PUSH1 0x4 DUP4 ADD SLOAD PUSH2 0x4475 JUMP JUMPDEST PUSH1 0x1F DUP2 GT PUSH2 0x1DD1 JUMPI JUMPDEST POP DUP9 DUP4 PUSH1 0x1F DUP3 GT PUSH1 0x1 EQ PUSH2 0x1D65 JUMPI DUP5 SWAP2 PUSH2 0x1D5A JUMPI JUMPDEST POP DUP10 PUSH1 0x1 SHL SWAP1 PUSH1 0x0 NOT DUP12 PUSH1 0x3 SHL SHR NOT AND OR PUSH1 0x4 DUP4 ADD SSTORE JUMPDEST PUSH1 0x1 PUSH1 0x1 PUSH1 0x40 SHL SUB DUP8 GT PUSH2 0x1BD2 JUMPI PUSH2 0x1836 PUSH1 0x5 DUP4 ADD SLOAD PUSH2 0x4475 JUMP JUMPDEST PUSH1 0x1F DUP2 GT PUSH2 0x1D15 JUMPI JUMPDEST POP DUP7 DUP4 PUSH1 0x1F DUP3 GT PUSH1 0x1 EQ PUSH2 0x1CAB JUMPI DUP5 SWAP2 PUSH2 0x1CA0 JUMPI JUMPDEST POP DUP8 PUSH1 0x1 SHL SWAP1 PUSH1 0x0 NOT DUP10 PUSH1 0x3 SHL SHR NOT AND OR PUSH1 0x5 DUP4 ADD SSTORE JUMPDEST PUSH1 0x1 PUSH1 0x1 PUSH1 0x40 SHL SUB DUP6 GT PUSH2 0x1BD2 JUMPI PUSH2 0x1886 PUSH1 0x6 DUP4 ADD SLOAD PUSH2 0x4475 JUMP JUMPDEST PUSH1 0x1F DUP2 GT PUSH2 0x1C5B JUMPI JUMPDEST POP DUP5 DUP4 PUSH1 0x1F DUP3 GT PUSH1 0x1 EQ PUSH2 0x1BF1 JUMPI DUP5 SWAP2 PUSH2 0x1BE6 JUMPI JUMPDEST POP DUP6 PUSH1 0x1 SHL SWAP1 PUSH1 0x0 NOT DUP8 PUSH1 0x3 SHL SHR NOT AND OR PUSH1 0x6 DUP4 ADD SSTORE JUMPDEST PUSH1 0x1 PUSH1 0x1 PUSH1 0x40 SHL SUB DUP13 GT PUSH2 0x1BD2 JUMPI PUSH2 0x18D6 PUSH1 0x7 DUP4 ADD SLOAD PUSH2 0x4475 JUMP JUMPDEST SWAP12 PUSH1 0x1F DUP14 GT PUSH2 0x1B89 JUMPI JUMPDEST PUSH1 0x20 SWAP13 POP DUP4 SWAP12 PUSH1 0x1F DUP3 GT PUSH1 0x1 EQ PUSH2 0x1AF6 JUMPI SWAP11 PUSH2 0x1A62 SWAP7 DUP15 DUP3 SWAP15 SWAP8 PUSH2 0x1A32 PUSH2 0x1A7A SWAP16 DUP6 SWAP16 SWAP15 SWAP13 SWAP8 DUP11 DUP6 SWAP16 SWAP12 SWAP11 PUSH1 0x40 SWAP3 DUP11 DUP11 SWAP16 SWAP12 PUSH2 0x1A4A SWAP13 DUP11 SWAP16 SWAP8 DUP14 SWAP9 SWAP3 PUSH2 0x1AEB JUMPI JUMPDEST POP POP DUP2 PUSH1 0x1 SHL SWAP2 PUSH1 0x0 NOT SWAP1 PUSH1 0x3 SHL SHR NOT AND OR PUSH1 0x7 DUP4 ADD SSTORE JUMPDEST PUSH2 0x1948 PUSH1 0xA4 CALLDATALOAD PUSH1 0x8 DUP5 ADD PUSH2 0x4917 JUMP JUMPDEST PUSH1 0xC4 CALLDATALOAD PUSH1 0x9 DUP4 ADD SSTORE PUSH1 0xE4 CALLDATALOAD PUSH1 0xB DUP4 ADD SSTORE PUSH2 0x104 CALLDATALOAD PUSH1 0x11 DUP4 ADD SSTORE PUSH2 0x124 CALLDATALOAD PUSH1 0x10 DUP4 ADD SSTORE PUSH2 0x1A08 PUSH1 0x12 DUP4 ADD PUSH2 0x197D PUSH2 0x144 CALLDATALOAD PUSH2 0x43C0 JUMP JUMPDEST DUP1 SLOAD PUSH1 0x1 PUSH1 0x28 SHL PUSH1 0x1 PUSH1 0xC8 SHL SUB PUSH2 0x164 CALLDATALOAD PUSH1 0x28 SHL AND PUSH1 0xFF PUSH2 0x144 CALLDATALOAD DUP2 AND DUP14 SHL PUSH1 0x1 DUP15 SHL PUSH1 0x1 PUSH1 0xC8 SHL SUB NOT SWAP1 SWAP4 AND SWAP3 SWAP1 SWAP3 OR OR DUP3 SSTORE PUSH2 0x184 CALLDATALOAD PUSH1 0x13 DUP7 ADD SSTORE PUSH2 0x1A4 CALLDATALOAD PUSH1 0x14 DUP7 ADD SSTORE PUSH1 0x15 DUP6 ADD DUP1 SLOAD PUSH1 0xFF NOT AND SWAP5 ISZERO ISZERO SWAP1 SWAP2 AND SWAP4 SWAP1 SWAP4 OR DUP4 SSTORE DUP1 SLOAD PUSH4 0xFF000000 NOT AND DUP2 SSTORE PUSH2 0x19F1 PUSH2 0x1E4 CALLDATALOAD DUP3 PUSH2 0x492F JUMP JUMPDEST PUSH2 0x19FE PUSH2 0x204 CALLDATALOAD DUP3 PUSH2 0x4939 JUMP JUMPDEST PUSH2 0x224 CALLDATALOAD SWAP1 PUSH2 0x494F JUMP JUMPDEST PUSH2 0x1A15 PUSH2 0x244 CALLDATALOAD DUP3 PUSH2 0x4967 JUMP JUMPDEST PUSH3 0xFF0000 NOT DUP2 SLOAD AND SWAP1 SSTORE PUSH1 0x16 TIMESTAMP SWAP2 ADD SSTORE CALLER DUP2 MSTORE PUSH1 0xA DUP7 MSTORE KECCAK256 PUSH2 0x4986 JUMP JUMPDEST DUP3 PUSH1 0x40 MLOAD SWAP4 DUP5 SWAP3 DUP4 CALLDATACOPY DUP2 ADD PUSH1 0xC DUP2 MSTORE SUB ADD SWAP1 KECCAK256 PUSH2 0x4986 JUMP JUMPDEST DUP3 PUSH1 0x40 MLOAD SWAP4 DUP5 SWAP3 DUP4 CALLDATACOPY DUP2 ADD PUSH1 0xD DUP2 MSTORE SUB ADD SWAP1 KECCAK256 PUSH2 0x4986 JUMP JUMPDEST DUP3 PUSH1 0x40 MLOAD SWAP4 DUP5 SWAP3 DUP4 CALLDATACOPY DUP2 ADD PUSH1 0xE DUP2 MSTORE SUB ADD SWAP1 KECCAK256 PUSH2 0x4986 JUMP JUMPDEST PUSH1 0x40 MLOAD PUSH1 0x1 DUP2 MSTORE TIMESTAMP DUP4 DUP3 ADD MSTORE DUP2 PUSH1 0x0 DUP1 MLOAD PUSH1 0x20 PUSH2 0x4DD9 DUP4 CODECOPY DUP2 MLOAD SWAP2 MSTORE PUSH1 0x40 CALLER SWAP4 LOG3 DUP1 PUSH1 0x0 DUP1 MLOAD PUSH1 0x20 PUSH2 0x4DB9 DUP4 CODECOPY DUP2 MLOAD SWAP2 MSTORE PUSH1 0xC0 PUSH1 0x40 MLOAD PUSH1 0x0 DUP2 MSTORE PUSH1 0x0 DUP7 DUP3 ADD MSTORE PUSH1 0x80 PUSH1 0x40 DUP3 ADD MSTORE PUSH1 0x7 PUSH1 0x80 DUP3 ADD MSTORE PUSH7 0x18DC99585D1959 PUSH1 0xCA SHL PUSH1 0xA0 DUP3 ADD MSTORE TIMESTAMP PUSH1 0x60 DUP3 ADD MSTORE LOG2 PUSH1 0x1 DUP1 SSTORE PUSH1 0x40 MLOAD SWAP1 DUP2 MSTORE RETURN JUMPDEST ADD CALLDATALOAD SWAP1 POP CODESIZE DUP1 PUSH2 0x1921 JUMP JUMPDEST PUSH1 0x7 DUP5 ADD DUP6 MSTORE DUP14 DUP6 KECCAK256 SWAP1 DUP6 SWAP14 DUP15 JUMPDEST PUSH1 0x1F NOT DUP6 AND GT PUSH2 0x1B71 JUMPI DUP16 SWAP11 SWAP7 DUP15 SWAP16 POP SWAP8 PUSH2 0x1A32 PUSH2 0x1A7A SWAP16 SWAP15 SWAP14 SWAP12 SWAP7 DUP16 SWAP11 PUSH1 0x40 SWAP1 DUP16 SWAP11 DUP14 SWAP9 SWAP4 PUSH2 0x1A62 SWAP16 SWAP9 DUP12 DUP12 SWAP7 DUP16 SWAP11 SWAP3 PUSH1 0x1 SWAP4 PUSH2 0x1A4A SWAP16 PUSH1 0x1F NOT DUP2 AND LT PUSH2 0x1B57 JUMPI JUMPDEST POP POP POP DUP2 SHL ADD PUSH1 0x7 DUP4 ADD SSTORE PUSH2 0x1939 JUMP JUMPDEST ADD CALLDATALOAD PUSH1 0x0 NOT PUSH1 0x3 DUP5 SWAP1 SHL PUSH1 0xF8 AND SHR NOT AND SWAP1 SSTORE CODESIZE DUP1 DUP1 PUSH2 0x1B47 JUMP JUMPDEST SWAP2 DUP16 PUSH1 0x1 DUP2 SWAP3 DUP6 DUP6 ADD CALLDATALOAD DUP2 SSTORE ADD SWAP4 ADD SWAP15 ADD SWAP14 DUP15 PUSH2 0x1B04 JUMP JUMPDEST PUSH1 0x7 DUP4 ADD DUP5 MSTORE PUSH1 0x20 DUP5 KECCAK256 PUSH1 0x1F DUP3 ADD PUSH1 0x5 SHR DUP2 ADD PUSH1 0x20 DUP4 LT PUSH2 0x1BCB JUMPI JUMPDEST PUSH1 0x1F DUP16 JUMPDEST ADD PUSH1 0x5 SHR DUP3 ADD DUP2 LT PUSH2 0x1BBC JUMPI POP POP PUSH2 0x18E0 JUMP JUMPDEST PUSH1 0x0 DUP2 SSTORE PUSH1 0x1 ADD PUSH1 0x1F DUP16 PUSH2 0x1BA9 JUMP JUMPDEST POP DUP1 PUSH2 0x1BA5 JUMP JUMPDEST PUSH4 0x4E487B71 PUSH1 0xE0 SHL DUP4 MSTORE PUSH1 0x41 PUSH1 0x4 MSTORE PUSH1 0x24 DUP4 REVERT JUMPDEST SWAP1 POP DUP5 ADD CALLDATALOAD CODESIZE PUSH2 0x18A4 JUMP JUMPDEST PUSH1 0x6 DUP5 ADD DUP6 MSTORE PUSH1 0x20 DUP6 KECCAK256 SWAP2 POP DUP5 JUMPDEST PUSH1 0x1F NOT DUP9 AND DUP2 LT PUSH2 0x1C43 JUMPI POP DUP7 PUSH1 0x1F NOT DUP2 AND LT PUSH2 0x1C29 JUMPI JUMPDEST POP POP PUSH1 0x1 DUP6 DUP2 SHL ADD PUSH1 0x6 DUP4 ADD SSTORE PUSH2 0x18BB JUMP JUMPDEST DUP6 ADD CALLDATALOAD PUSH1 0x0 NOT PUSH1 0x3 DUP9 SWAP1 SHL PUSH1 0xF8 AND SHR NOT AND SWAP1 SSTORE CODESIZE DUP1 PUSH2 0x1C17 JUMP JUMPDEST SWAP1 SWAP2 PUSH1 0x20 PUSH1 0x1 DUP2 SWAP3 DUP6 DUP11 ADD CALLDATALOAD DUP2 SSTORE ADD SWAP4 ADD SWAP2 ADD PUSH2 0x1BFF JUMP JUMPDEST PUSH1 0x6 DUP4 ADD DUP5 MSTORE PUSH1 0x20 DUP5 KECCAK256 PUSH1 0x1F DUP8 ADD PUSH1 0x5 SHR DUP2 ADD PUSH1 0x20 DUP9 LT PUSH2 0x1C99 JUMPI JUMPDEST PUSH1 0x1F DUP4 ADD PUSH1 0x5 SHR DUP3 ADD DUP2 LT PUSH2 0x1C8D JUMPI POP POP PUSH2 0x188F JUMP JUMPDEST PUSH1 0x0 DUP2 SSTORE PUSH1 0x1 ADD PUSH2 0x1C77 JUMP JUMPDEST POP DUP1 PUSH2 0x1C77 JUMP JUMPDEST SWAP1 POP DUP7 ADD CALLDATALOAD CODESIZE PUSH2 0x1854 JUMP JUMPDEST PUSH1 0x5 DUP5 ADD DUP6 MSTORE PUSH1 0x20 DUP6 KECCAK256 SWAP2 POP DUP5 JUMPDEST PUSH1 0x1F NOT DUP11 AND DUP2 LT PUSH2 0x1CFD JUMPI POP DUP9 PUSH1 0x1F NOT DUP2 AND LT PUSH2 0x1CE3 JUMPI JUMPDEST POP POP PUSH1 0x1 DUP8 DUP2 SHL ADD PUSH1 0x5 DUP4 ADD SSTORE PUSH2 0x186B JUMP JUMPDEST DUP8 ADD CALLDATALOAD PUSH1 0x0 NOT PUSH1 0x3 DUP11 SWAP1 SHL PUSH1 0xF8 AND SHR NOT AND SWAP1 SSTORE CODESIZE DUP1 PUSH2 0x1CD1 JUMP JUMPDEST SWAP1 SWAP2 PUSH1 0x20 PUSH1 0x1 DUP2 SWAP3 DUP6 DUP13 ADD CALLDATALOAD DUP2 SSTORE ADD SWAP4 ADD SWAP2 ADD PUSH2 0x1CB9 JUMP JUMPDEST PUSH1 0x5 DUP4 ADD DUP5 MSTORE PUSH1 0x20 DUP5 KECCAK256 PUSH1 0x1F DUP10 ADD PUSH1 0x5 SHR DUP2 ADD PUSH1 0x20 DUP11 LT PUSH2 0x1D53 JUMPI JUMPDEST PUSH1 0x1F DUP4 ADD PUSH1 0x5 SHR DUP3 ADD DUP2 LT PUSH2 0x1D47 JUMPI POP POP PUSH2 0x183F JUMP JUMPDEST PUSH1 0x0 DUP2 SSTORE PUSH1 0x1 ADD PUSH2 0x1D31 JUMP JUMPDEST POP DUP1 PUSH2 0x1D31 JUMP JUMPDEST SWAP1 POP DUP9 ADD CALLDATALOAD CODESIZE PUSH2 0x1804 JUMP JUMPDEST PUSH1 0x4 DUP5 ADD DUP6 MSTORE PUSH1 0x20 DUP6 KECCAK256 SWAP2 POP DUP5 JUMPDEST DUP11 PUSH1 0x1F NOT DUP14 AND DUP3 LT PUSH2 0x1DB9 JUMPI POP POP DUP11 PUSH1 0x1F NOT DUP2 AND LT PUSH2 0x1D9F JUMPI JUMPDEST POP POP PUSH1 0x1 DUP10 DUP2 SHL ADD PUSH1 0x4 DUP4 ADD SSTORE PUSH2 0x181B JUMP JUMPDEST DUP10 ADD CALLDATALOAD PUSH1 0x0 NOT PUSH1 0x3 DUP13 SWAP1 SHL PUSH1 0xF8 AND SHR NOT AND SWAP1 SSTORE CODESIZE DUP1 PUSH2 0x1D8D JUMP JUMPDEST PUSH1 0x1 DUP4 SWAP5 PUSH1 0x20 SWAP4 SWAP5 DUP5 SWAP4 ADD CALLDATALOAD DUP2 SSTORE ADD SWAP4 ADD SWAP2 ADD PUSH2 0x1D73 JUMP JUMPDEST PUSH1 0x4 DUP4 ADD DUP5 MSTORE PUSH1 0x20 DUP5 KECCAK256 PUSH1 0x1F DUP12 ADD PUSH1 0x5 SHR DUP2 ADD PUSH1 0x20 DUP13 LT PUSH2 0x1E0F JUMPI JUMPDEST PUSH1 0x1F DUP4 ADD PUSH1 0x5 SHR DUP3 ADD DUP2 LT PUSH2 0x1E03 JUMPI POP POP PUSH2 0x17EF JUMP JUMPDEST PUSH1 0x0 DUP2 SSTORE PUSH1 0x1 ADD PUSH2 0x1DED JUMP JUMPDEST POP DUP1 PUSH2 0x1DED JUMP JUMPDEST ADD CALLDATALOAD SWAP1 POP CODESIZE DUP1 PUSH2 0x17B3 JUMP JUMPDEST PUSH1 0x3 DUP7 ADD DUP8 MSTORE PUSH1 0x20 DUP8 KECCAK256 DUP8 SWAP5 POP SWAP2 JUMPDEST PUSH1 0x1F NOT DUP5 AND DUP6 LT PUSH2 0x1E75 JUMPI PUSH1 0x1 SWAP5 POP DUP4 PUSH1 0x1F NOT DUP2 AND LT PUSH2 0x1E5B JUMPI JUMPDEST POP POP POP DUP2 SHL ADD PUSH1 0x3 DUP4 ADD SSTORE PUSH2 0x17CB JUMP JUMPDEST ADD CALLDATALOAD PUSH1 0x0 NOT PUSH1 0x3 DUP5 SWAP1 SHL PUSH1 0xF8 AND SHR NOT AND SWAP1 SSTORE CODESIZE DUP1 DUP1 PUSH2 0x1E4B JUMP JUMPDEST DUP2 DUP2 ADD CALLDATALOAD DUP4 SSTORE PUSH1 0x20 SWAP5 DUP6 ADD SWAP5 PUSH1 0x1 SWAP1 SWAP4 ADD SWAP3 ADD PUSH2 0x1E30 JUMP JUMPDEST SWAP1 SWAP2 POP PUSH1 0x3 DUP6 ADD DUP7 MSTORE PUSH1 0x20 DUP7 KECCAK256 PUSH1 0x1F DUP5 ADD PUSH1 0x5 SHR DUP2 ADD PUSH1 0x20 DUP6 LT PUSH2 0x1ED7 JUMPI JUMPDEST SWAP1 DUP5 SWAP4 SWAP3 SWAP2 JUMPDEST PUSH1 0x1F DUP4 ADD PUSH1 0x5 SHR DUP3 ADD DUP2 LT PUSH2 0x1EC8 JUMPI POP POP PUSH2 0x179E JUMP JUMPDEST PUSH1 0x0 DUP2 SSTORE DUP6 SWAP5 POP PUSH1 0x1 ADD PUSH2 0x1EB2 JUMP JUMPDEST POP DUP1 PUSH2 0x1EAC JUMP JUMPDEST PUSH4 0x4E487B71 PUSH1 0xE0 SHL DUP6 MSTORE PUSH1 0x41 PUSH1 0x4 MSTORE PUSH1 0x24 DUP6 REVERT JUMPDEST PUSH2 0x1EFB SWAP1 PUSH2 0x4545 JUMP JUMPDEST PUSH2 0x2D3 JUMPI DUP3 CODESIZE PUSH2 0x1742 JUMP JUMPDEST PUSH1 0x40 MLOAD RETURNDATASIZE DUP7 DUP3 RETURNDATACOPY RETURNDATASIZE SWAP1 REVERT JUMPDEST DUP6 DUP1 REVERT JUMPDEST SWAP1 SWAP3 POP PUSH1 0x20 DUP2 RETURNDATASIZE PUSH1 0x20 GT PUSH2 0x1F46 JUMPI JUMPDEST DUP2 PUSH2 0x1F31 PUSH1 0x20 SWAP4 DUP4 PUSH2 0x45A6 JUMP JUMPDEST DUP2 ADD SUB SLT PUSH2 0x1F41 JUMPI MLOAD SWAP2 CODESIZE PUSH2 0x1703 JUMP JUMPDEST PUSH1 0x0 DUP1 REVERT JUMPDEST RETURNDATASIZE SWAP2 POP PUSH2 0x1F24 JUMP JUMPDEST PUSH1 0x40 MLOAD RETURNDATASIZE DUP9 DUP3 RETURNDATACOPY RETURNDATASIZE SWAP1 REVERT JUMPDEST DUP10 DUP1 REVERT JUMPDEST DUP8 DUP1 REVERT JUMPDEST DUP4 DUP1 REVERT JUMPDEST POP CALLVALUE PUSH2 0x2D7 JUMPI PUSH1 0x40 CALLDATASIZE PUSH1 0x3 NOT ADD SLT PUSH2 0x2D7 JUMPI PUSH1 0x40 PUSH2 0x1F81 PUSH2 0x4341 JUMP JUMPDEST SWAP2 PUSH1 0x4 CALLDATALOAD DUP2 MSTORE DUP1 PUSH1 0x20 MSTORE KECCAK256 SWAP1 PUSH1 0x1 DUP1 PUSH1 0xA0 SHL SUB AND PUSH1 0x0 MSTORE PUSH1 0x20 MSTORE PUSH1 0x20 PUSH1 0xFF PUSH1 0x40 PUSH1 0x0 KECCAK256 SLOAD AND PUSH1 0x40 MLOAD SWAP1 ISZERO ISZERO DUP2 MSTORE RETURN JUMPDEST POP CALLVALUE PUSH2 0x2D7 JUMPI DUP1 PUSH1 0x3 NOT CALLDATASIZE ADD SLT PUSH2 0x2D7 JUMPI PUSH1 0x3 SLOAD PUSH1 0x40 MLOAD PUSH1 0x1 PUSH1 0x1 PUSH1 0xA0 SHL SUB SWAP1 SWAP2 AND DUP2 MSTORE PUSH1 0x20 SWAP1 RETURN JUMPDEST POP CALLVALUE PUSH2 0x2D7 JUMPI DUP1 PUSH1 0x3 NOT CALLDATASIZE ADD SLT PUSH2 0x2D7 JUMPI PUSH2 0x1FF2 PUSH2 0x46A4 JUMP JUMPDEST PUSH2 0x1FFA PUSH2 0x49BB JUMP JUMPDEST PUSH1 0x1 PUSH1 0xFF NOT PUSH1 0x2 SLOAD AND OR PUSH1 0x2 SSTORE PUSH32 0x62E78CEA01BEE320CD4E420270B5EA74000D11B0C9F74754EBDBFC544B05A258 PUSH1 0x20 PUSH1 0x40 MLOAD CALLER DUP2 MSTORE LOG1 DUP1 RETURN JUMPDEST POP CALLVALUE PUSH2 0x2D7 JUMPI PUSH1 0x20 DUP1 PUSH1 0x3 NOT CALLDATASIZE ADD SLT PUSH2 0x359 JUMPI PUSH1 0x4 CALLDATALOAD PUSH1 0x1 PUSH1 0x1 PUSH1 0x40 SHL SUB DUP2 GT PUSH2 0x2D3 JUMPI PUSH2 0x2067 DUP3 SWAP2 CALLDATASIZE SWAP1 PUSH1 0x4 ADD PUSH2 0x42D8 JUMP JUMPDEST SWAP2 SWAP1 DUP3 PUSH1 0x40 MLOAD SWAP4 DUP5 SWAP3 DUP4 CALLDATACOPY DUP2 ADD PUSH1 0xD DUP2 MSTORE SUB ADD SWAP1 KECCAK256 SWAP2 PUSH1 0x40 MLOAD DUP1 SWAP3 DUP1 DUP6 SLOAD SWAP3 DUP4 DUP2 MSTORE ADD SWAP5 DUP4 MSTORE DUP1 DUP4 KECCAK256 SWAP3 SWAP1 JUMPDEST DUP3 DUP3 LT PUSH2 0x20AA JUMPI PUSH2 0x2CF DUP6 PUSH2 0x336 DUP2 DUP10 SUB DUP3 PUSH2 0x45A6 JUMP JUMPDEST DUP4 SLOAD DUP7 MSTORE SWAP5 DUP6 ADD SWAP5 PUSH1 0x1 SWAP4 DUP5 ADD SWAP4 SWAP1 SWAP2 ADD SWAP1 PUSH2 0x2093 JUMP JUMPDEST POP CALLVALUE PUSH2 0x2D7 JUMPI DUP1 PUSH1 0x3 NOT CALLDATASIZE ADD SLT PUSH2 0x2D7 JUMPI PUSH1 0x2 SLOAD PUSH1 0x40 MLOAD PUSH1 0x8 SWAP2 SWAP1 SWAP2 SHR PUSH1 0x1 PUSH1 0x1 PUSH1 0xA0 SHL SUB AND DUP2 MSTORE PUSH1 0x20 SWAP1 RETURN JUMPDEST POP CALLVALUE PUSH2 0x2D7 JUMPI PUSH1 0xC0 CALLDATASIZE PUSH1 0x3 NOT ADD SLT PUSH2 0x2D7 JUMPI PUSH1 0x3 PUSH1 0x64 CALLDATALOAD LT ISZERO PUSH2 0x2D7 JUMPI PUSH1 0x84 CALLDATALOAD PUSH1 0xFF DUP2 AND DUP2 SUB PUSH2 0x1F41 JUMPI PUSH1 0xA4 CALLDATALOAD SWAP1 PUSH1 0xFF DUP3 AND DUP3 SUB PUSH2 0x1F41 JUMPI PUSH1 0x4 CALLDATALOAD ISZERO ISZERO DUP1 PUSH2 0x252D JUMPI JUMPDEST PUSH2 0x213A SWAP1 PUSH2 0x4ABB JUMP JUMPDEST PUSH2 0x2142 PUSH2 0x49D9 JUMP JUMPDEST PUSH2 0x214A PUSH2 0x49BB JUMP JUMPDEST PUSH1 0x4 CALLDATALOAD DUP4 MSTORE PUSH1 0x7 PUSH1 0x20 MSTORE PUSH1 0x40 DUP4 KECCAK256 SWAP1 PUSH1 0xFF PUSH1 0x15 DUP4 ADD SLOAD PUSH1 0x10 SHR AND PUSH1 0xB DUP2 LT ISZERO PUSH2 0xF0E JUMPI DUP1 ISZERO SWAP1 DUP2 ISZERO PUSH2 0x2522 JUMPI JUMPDEST POP ISZERO PUSH2 0x24CD JUMPI PUSH1 0x9 DUP3 ADD SLOAD SWAP1 PUSH2 0x2710 PUSH2 0x21A1 DUP2 PUSH2 0x2196 PUSH1 0x24 CALLDATALOAD DUP7 PUSH2 0x4A41 JUMP JUMPDEST DIV SWAP4 PUSH1 0x44 CALLDATALOAD SWAP1 PUSH2 0x4A41 JUMP JUMPDEST DIV SWAP1 PUSH1 0x11 DUP5 ADD SLOAD DUP1 PUSH2 0x246F JUMPI JUMPDEST POP PUSH1 0x10 DUP5 ADD SLOAD PUSH1 0x44 CALLDATALOAD LT PUSH2 0x242B JUMPI PUSH1 0x3 SLOAD PUSH1 0x4 SLOAD DUP8 SWAP2 PUSH1 0x1 PUSH1 0x1 PUSH1 0xA0 SHL SUB SWAP2 DUP3 AND SWAP2 AND DUP1 EXTCODESIZE ISZERO PUSH2 0x2D3 JUMPI DUP5 DUP4 SWAP2 PUSH2 0x21FD SWAP4 DUP4 PUSH1 0x40 MLOAD DUP1 SWAP7 DUP2 SWAP6 DUP3 SWAP5 PUSH4 0xAC94D93 PUSH1 0xE3 SHL DUP5 MSTORE CALLER PUSH1 0x4 DUP6 ADD PUSH2 0x4A54 JUMP JUMPDEST SUB SWAP3 GAS CALL DUP1 ISZERO PUSH2 0x2420 JUMPI PUSH2 0x240C JUMPI JUMPDEST POP POP PUSH1 0x6 SLOAD SWAP5 PUSH2 0x221B DUP7 PUSH2 0x48F2 JUMP JUMPDEST PUSH1 0x6 SSTORE PUSH1 0x2 SLOAD PUSH1 0x40 MLOAD PUSH4 0x6A15D6D PUSH1 0xE1 SHL DUP2 MSTORE SWAP1 PUSH1 0x20 SWAP1 DUP3 SWAP1 PUSH1 0x4 SWAP1 DUP3 SWAP1 PUSH1 0x8 SHR PUSH1 0x1 PUSH1 0x1 PUSH1 0xA0 SHL SUB AND GAS STATICCALL SWAP1 DUP2 ISZERO PUSH2 0x2401 JUMPI DUP9 SWAP2 PUSH2 0x23CE JUMPI JUMPDEST POP PUSH1 0xFF SWAP3 PUSH2 0x2264 DUP5 SWAP3 TIMESTAMP PUSH2 0x4B29 JUMP JUMPDEST SWAP5 PUSH1 0x40 MLOAD SWAP7 PUSH2 0x2272 DUP9 PUSH2 0x456E JUMP JUMPDEST DUP10 DUP9 MSTORE PUSH1 0x4 CALLDATALOAD PUSH1 0x20 DUP10 ADD MSTORE CALLER PUSH1 0x40 DUP10 ADD MSTORE DUP11 PUSH1 0x60 DUP10 ADD MSTORE PUSH1 0x24 CALLDATALOAD PUSH1 0x80 DUP10 ADD MSTORE PUSH1 0xA0 DUP9 ADD MSTORE PUSH1 0x44 CALLDATALOAD PUSH1 0xC0 DUP9 ADD MSTORE PUSH1 0xE0 DUP8 ADD MSTORE PUSH2 0x22AE PUSH1 0x64 CALLDATALOAD PUSH2 0x43C0 JUMP JUMPDEST PUSH1 0x64 CALLDATALOAD PUSH2 0x100 DUP8 ADD MSTORE AND PUSH2 0x120 DUP6 ADD MSTORE AND PUSH2 0x140 DUP4 ADD MSTORE TIMESTAMP PUSH2 0x160 DUP4 ADD MSTORE PUSH2 0x180 DUP3 ADD MSTORE DUP4 PUSH2 0x1A0 DUP3 ADD MSTORE DUP3 DUP5 MSTORE PUSH1 0x9 PUSH1 0x20 MSTORE PUSH2 0x22EE DUP2 PUSH1 0x40 DUP7 KECCAK256 PUSH2 0x4C48 JUMP JUMPDEST PUSH1 0x4 CALLDATALOAD DUP5 MSTORE PUSH1 0x8 PUSH1 0x20 MSTORE PUSH1 0x40 DUP5 KECCAK256 DUP1 SLOAD SWAP1 PUSH1 0x1 PUSH1 0x40 SHL DUP3 LT ISZERO PUSH2 0x23BA JUMPI SWAP1 PUSH2 0x231B SWAP2 PUSH1 0x1 DUP3 ADD DUP2 SSTORE PUSH2 0x4620 JUMP JUMPDEST PUSH2 0x23A6 JUMPI SWAP1 PUSH2 0x2329 SWAP2 PUSH2 0x4C48 JUMP JUMPDEST PUSH1 0x15 DUP2 ADD SLOAD PUSH1 0xFF DUP2 PUSH1 0x10 SHR AND PUSH1 0xB DUP2 LT ISZERO PUSH2 0xF0E JUMPI PUSH1 0x20 SWAP5 POP ISZERO PUSH2 0x238E JUMPI JUMPDEST POP POP PUSH1 0x40 MLOAD PUSH1 0x24 CALLDATALOAD DUP2 MSTORE TIMESTAMP DUP4 DUP3 ADD MSTORE DUP2 CALLER SWAP2 PUSH32 0x878FE3F9BCA373E42473C1F3AD3C9C35C4F1ECAF9A5F081A801A3FBD43049F55 PUSH1 0x40 PUSH1 0x4 CALLDATALOAD SWAP3 LOG4 PUSH1 0x1 DUP1 SSTORE PUSH1 0x40 MLOAD SWAP1 DUP2 MSTORE RETURN JUMPDEST PUSH3 0x10000 PUSH1 0x15 SWAP2 PUSH3 0xFF0000 NOT AND OR SWAP2 ADD SSTORE CODESIZE DUP1 PUSH2 0x2348 JUMP JUMPDEST PUSH4 0x4E487B71 PUSH1 0xE0 SHL DUP6 MSTORE PUSH1 0x4 DUP6 SWAP1 MSTORE PUSH1 0x24 DUP6 REVERT JUMPDEST PUSH4 0x4E487B71 PUSH1 0xE0 SHL DUP7 MSTORE PUSH1 0x41 PUSH1 0x4 MSTORE PUSH1 0x24 DUP7 REVERT JUMPDEST SWAP1 POP PUSH1 0x20 DUP2 RETURNDATASIZE PUSH1 0x20 GT PUSH2 0x23F9 JUMPI JUMPDEST DUP2 PUSH2 0x23E9 PUSH1 0x20 SWAP4 DUP4 PUSH2 0x45A6 JUMP JUMPDEST DUP2 ADD SUB SLT PUSH2 0x1F41 JUMPI MLOAD PUSH1 0xFF PUSH2 0x2255 JUMP JUMPDEST RETURNDATASIZE SWAP2 POP PUSH2 0x23DC JUMP JUMPDEST PUSH1 0x40 MLOAD RETURNDATASIZE DUP11 DUP3 RETURNDATACOPY RETURNDATASIZE SWAP1 REVERT JUMPDEST PUSH2 0x2415 SWAP1 PUSH2 0x4545 JUMP JUMPDEST PUSH2 0x1F11 JUMPI DUP6 CODESIZE PUSH2 0x220C JUMP JUMPDEST PUSH1 0x40 MLOAD RETURNDATASIZE DUP5 DUP3 RETURNDATACOPY RETURNDATASIZE SWAP1 REVERT JUMPDEST PUSH1 0x64 PUSH1 0x40 MLOAD PUSH3 0x461BCD PUSH1 0xE5 SHL DUP2 MSTORE PUSH1 0x20 PUSH1 0x4 DUP3 ADD MSTORE PUSH1 0x20 PUSH1 0x24 DUP3 ADD MSTORE PUSH32 0x4F7074696F6E73436F72653A206D617267696E207261746520746F6F206C6F77 PUSH1 0x44 DUP3 ADD MSTORE REVERT JUMPDEST PUSH1 0x24 CALLDATALOAD GT PUSH2 0x247D JUMPI CODESIZE PUSH2 0x21AE JUMP JUMPDEST PUSH1 0x40 MLOAD PUSH3 0x461BCD PUSH1 0xE5 SHL DUP2 MSTORE PUSH1 0x20 PUSH1 0x4 DUP3 ADD MSTORE PUSH1 0x22 PUSH1 0x24 DUP3 ADD MSTORE PUSH32 0x4F7074696F6E73436F72653A207072656D69756D207261746520746F6F206869 PUSH1 0x44 DUP3 ADD MSTORE PUSH2 0xCED PUSH1 0xF3 SHL PUSH1 0x64 DUP3 ADD MSTORE PUSH1 0x84 SWAP1 REVERT JUMPDEST PUSH1 0x40 MLOAD PUSH3 0x461BCD PUSH1 0xE5 SHL DUP2 MSTORE PUSH1 0x20 PUSH1 0x4 DUP3 ADD MSTORE PUSH1 0x27 PUSH1 0x24 DUP3 ADD MSTORE PUSH32 0x4F7074696F6E73436F72653A206F72646572206E6F7420616363657074696E67 PUSH1 0x44 DUP3 ADD MSTORE PUSH7 0x2071756F746573 PUSH1 0xC8 SHL PUSH1 0x64 DUP3 ADD MSTORE PUSH1 0x84 SWAP1 REVERT JUMPDEST PUSH1 0x1 SWAP2 POP EQ CODESIZE PUSH2 0x2177 JUMP JUMPDEST POP PUSH1 0x5 SLOAD PUSH1 0x4 CALLDATALOAD LT PUSH2 0x2131 JUMP JUMPDEST POP PUSH1 0x40 CALLDATASIZE PUSH1 0x3 NOT ADD SLT PUSH2 0x2D7 JUMPI PUSH1 0x24 CALLDATALOAD PUSH1 0x4 CALLDATALOAD PUSH1 0x3 DUP3 LT ISZERO PUSH2 0x2D3 JUMPI DUP1 ISZERO ISZERO DUP1 PUSH2 0x275D JUMPI JUMPDEST PUSH2 0x2568 SWAP1 PUSH2 0x4ABB JUMP JUMPDEST DUP1 DUP4 MSTORE PUSH1 0x7 PUSH1 0x20 MSTORE PUSH2 0x258A PUSH1 0x1 DUP1 PUSH1 0xA0 SHL SUB PUSH1 0x1 PUSH1 0x40 DUP7 KECCAK256 ADD SLOAD AND CALLER EQ PUSH2 0x49FC JUMP JUMPDEST PUSH2 0x2592 PUSH2 0x49D9 JUMP JUMPDEST PUSH2 0x259A PUSH2 0x49BB JUMP JUMPDEST DUP1 DUP4 MSTORE PUSH1 0x7 PUSH1 0x20 MSTORE PUSH1 0x40 DUP4 KECCAK256 PUSH1 0x15 DUP2 ADD SWAP3 DUP4 SLOAD SWAP4 PUSH1 0xFF DUP6 PUSH1 0x10 SHR AND SWAP1 PUSH1 0xB DUP3 LT ISZERO PUSH2 0x465 JUMPI PUSH1 0x2 DUP3 SUB PUSH2 0x26BF JUMPI PUSH1 0x0 DUP1 MLOAD PUSH1 0x20 PUSH2 0x4DB9 DUP4 CODECOPY DUP2 MLOAD SWAP2 MSTORE PUSH1 0xC0 PUSH1 0x0 DUP1 MLOAD PUSH1 0x20 PUSH2 0x4D59 DUP4 CODECOPY DUP2 MLOAD SWAP2 MSTORE SWAP6 SWAP5 SWAP4 DUP8 SWAP4 PUSH3 0x30000 DUP12 SWAP11 PUSH3 0xFF0000 NOT AND OR SWAP1 SSTORE PUSH2 0x2608 PUSH1 0x40 MLOAD DUP1 SWAP3 PUSH2 0x4613 JUMP JUMPDEST PUSH1 0x3 PUSH1 0x20 DUP3 ADD MSTORE PUSH1 0x80 PUSH1 0x40 DUP3 ADD MSTORE PUSH1 0x16 PUSH1 0x80 DUP3 ADD MSTORE PUSH22 0x1A5B9A5D1A585B0819995959081C995C5D595CDD1959 PUSH1 0x52 SHL PUSH1 0xA0 DUP3 ADD MSTORE TIMESTAMP PUSH1 0x60 DUP3 ADD MSTORE LOG2 JUMPDEST PUSH1 0x9 DUP3 ADD SLOAD SWAP1 PUSH2 0x268A PUSH1 0x40 MLOAD SWAP4 PUSH1 0xE0 DUP6 MSTORE PUSH1 0x6 PUSH2 0x267B PUSH2 0x266A PUSH1 0xE0 DUP9 ADD PUSH1 0x4 DUP6 ADD PUSH2 0x44AF JUMP JUMPDEST DUP8 DUP2 SUB PUSH1 0x20 DUP10 ADD MSTORE PUSH1 0x5 DUP5 ADD PUSH2 0x44AF JUMP JUMPDEST SWAP2 DUP7 DUP4 SUB PUSH1 0x40 DUP9 ADD MSTORE ADD PUSH2 0x44AF JUMP JUMPDEST SWAP6 PUSH2 0x2694 DUP2 PUSH2 0x43E0 JUMP JUMPDEST PUSH1 0x60 DUP5 ADD MSTORE PUSH2 0x26A2 DUP2 PUSH2 0x43C0 JUMP JUMPDEST PUSH1 0x80 DUP4 ADD MSTORE PUSH1 0xA0 DUP3 ADD MSTORE TIMESTAMP PUSH1 0xC0 DUP3 ADD MSTORE DUP1 CALLER SWAP5 SUB SWAP1 LOG3 PUSH1 0x1 DUP1 SSTORE DUP1 RETURN JUMPDEST POP SWAP1 SWAP4 POP PUSH1 0x5 DUP2 SUB PUSH2 0x26E4 JUMPI POP PUSH1 0x0 DUP1 MLOAD PUSH1 0x20 PUSH2 0x4D59 DUP4 CODECOPY DUP2 MLOAD SWAP2 MSTORE SWAP1 PUSH1 0x2 SWAP4 PUSH2 0x2644 JUMP JUMPDEST PUSH1 0x4 SUB PUSH2 0x2703 JUMPI PUSH1 0x0 DUP1 MLOAD PUSH1 0x20 PUSH2 0x4D59 DUP4 CODECOPY DUP2 MLOAD SWAP2 MSTORE SWAP1 PUSH1 0x1 SWAP4 PUSH2 0x2644 JUMP JUMPDEST PUSH1 0x40 MLOAD PUSH3 0x461BCD PUSH1 0xE5 SHL DUP2 MSTORE PUSH1 0x20 PUSH1 0x4 DUP3 ADD MSTORE PUSH1 0x2C PUSH1 0x24 DUP3 ADD MSTORE PUSH32 0x4F7074696F6E73436F72653A20696E76616C69642073746174757320666F7220 PUSH1 0x44 DUP3 ADD MSTORE PUSH12 0x19995959081C995C5D595CDD PUSH1 0xA2 SHL PUSH1 0x64 DUP3 ADD MSTORE PUSH1 0x84 SWAP1 REVERT JUMPDEST POP PUSH1 0x5 SLOAD DUP2 LT PUSH2 0x255F JUMP JUMPDEST POP CALLVALUE PUSH2 0x2D7 JUMPI PUSH1 0x20 DUP1 PUSH1 0x3 NOT CALLDATASIZE ADD SLT PUSH2 0x359 JUMPI PUSH1 0x4 CALLDATALOAD SWAP1 DUP2 ISZERO ISZERO DUP1 PUSH2 0x2AD5 JUMPI JUMPDEST PUSH2 0x2791 SWAP1 PUSH2 0x4ABB JUMP JUMPDEST PUSH2 0x2799 PUSH2 0x49D9 JUMP JUMPDEST PUSH2 0x27A1 PUSH2 0x49BB JUMP JUMPDEST DUP2 DUP4 MSTORE PUSH1 0x7 DUP2 MSTORE PUSH1 0x40 DUP4 KECCAK256 PUSH1 0x15 DUP2 ADD SWAP2 DUP3 SLOAD SWAP4 PUSH1 0xFF DUP6 PUSH1 0x10 SHR AND SWAP3 PUSH1 0xB DUP5 LT ISZERO PUSH2 0x465 JUMPI DUP4 PUSH2 0x2A92 JUMPI PUSH1 0x2 DUP2 ADD DUP1 SLOAD PUSH1 0x1 PUSH1 0x1 PUSH1 0xA0 SHL SUB SWAP7 SWAP2 SWAP4 SWAP2 SWAP1 DUP8 AND DUP1 ISZERO PUSH2 0x2A4D JUMPI CALLER EQ PUSH2 0x29FC JUMPI PUSH1 0x1 DUP4 ADD DUP1 SLOAD PUSH1 0x1 PUSH1 0x1 PUSH1 0xA0 SHL SUB NOT AND CALLER OR DUP2 SSTORE PUSH3 0xFF0000 NOT SWAP1 SWAP9 AND PUSH3 0x20000 OR SWAP1 SSTORE TIMESTAMP PUSH1 0x17 DUP4 ADD SSTORE PUSH1 0x9 DUP3 ADD SLOAD PUSH1 0x2 SLOAD PUSH1 0x40 MLOAD PUSH4 0x1C03BE35 PUSH1 0xE3 SHL DUP2 MSTORE DUP11 SWAP3 SWAP1 SWAP2 DUP8 SWAP1 DUP4 SWAP1 PUSH1 0x4 SWAP1 DUP3 SWAP1 PUSH1 0x8 SHR DUP14 AND GAS STATICCALL SWAP2 DUP3 ISZERO PUSH2 0x29B9 JUMPI DUP4 SWAP3 PUSH2 0x29C8 JUMPI JUMPDEST POP PUSH2 0x2710 SWAP2 PUSH2 0x2859 SWAP2 PUSH2 0x4A41 JUMP JUMPDEST DIV DUP8 PUSH1 0x3 SLOAD AND DUP9 PUSH1 0x4 SLOAD AND PUSH1 0xD DUP7 ADD SLOAD DUP3 EXTCODESIZE ISZERO PUSH2 0x29C4 JUMPI PUSH2 0x2894 SWAP3 DUP6 SWAP3 DUP4 PUSH1 0x40 MLOAD DUP1 SWAP7 DUP2 SWAP6 DUP3 SWAP5 PUSH4 0xAC94D93 PUSH1 0xE3 SHL DUP5 MSTORE CALLER PUSH1 0x4 DUP6 ADD PUSH2 0x4A54 JUMP JUMPDEST SUB SWAP3 GAS CALL SWAP1 DUP2 ISZERO PUSH2 0x29B9 JUMPI DUP4 SWAP2 PUSH2 0x29A5 JUMPI JUMPDEST POP POP DUP8 PUSH1 0x3 SLOAD AND SWAP1 DUP9 PUSH1 0x4 SLOAD AND SWAP1 DUP3 EXTCODESIZE ISZERO PUSH2 0x1F61 JUMPI PUSH2 0x28DF SWAP3 DUP5 SWAP3 DUP4 PUSH1 0x40 MLOAD DUP1 SWAP7 DUP2 SWAP6 DUP3 SWAP5 PUSH4 0xEC185A07 PUSH1 0xE0 SHL DUP5 MSTORE CALLER PUSH1 0x4 DUP6 ADD PUSH2 0x4A76 JUMP JUMPDEST SUB SWAP3 GAS CALL DUP1 ISZERO PUSH2 0x2420 JUMPI PUSH2 0x2987 JUMPI JUMPDEST POP POP SWAP2 DUP6 PUSH1 0x0 DUP1 MLOAD PUSH1 0x20 PUSH2 0x4DB9 DUP4 CODECOPY DUP2 MLOAD SWAP2 MSTORE SWAP7 PUSH1 0xC0 SWAP7 SWAP6 SWAP4 PUSH2 0x291D PUSH1 0x2 SWAP7 CALLER DUP14 MSTORE PUSH1 0xA DUP8 MSTORE PUSH1 0x40 DUP14 KECCAK256 PUSH2 0x4986 JUMP JUMPDEST SLOAD SWAP9 SLOAD AND SWAP2 SLOAD AND SWAP1 DUP8 PUSH1 0x0 DUP1 MLOAD PUSH1 0x20 PUSH2 0x4DF9 DUP4 CODECOPY DUP2 MLOAD SWAP2 MSTORE DUP5 PUSH1 0x40 MLOAD TIMESTAMP DUP2 MSTORE LOG4 PUSH2 0x294A PUSH1 0x40 MLOAD DUP1 SWAP5 PUSH2 0x4613 JUMP JUMPDEST DUP3 ADD MSTORE PUSH1 0x80 PUSH1 0x40 DUP3 ADD MSTORE PUSH1 0x15 PUSH1 0x80 DUP3 ADD MSTORE PUSH21 0x1CD95B1B195C881BDC99195C881858D8D95C1D1959 PUSH1 0x5A SHL PUSH1 0xA0 DUP3 ADD MSTORE TIMESTAMP PUSH1 0x60 DUP3 ADD MSTORE LOG2 PUSH1 0x1 DUP1 SSTORE DUP1 RETURN JUMPDEST PUSH2 0x2996 SWAP1 SWAP7 SWAP6 SWAP4 SWAP5 SWAP3 SWAP7 PUSH2 0x4545 JUMP JUMPDEST PUSH2 0x1F5D JUMPI SWAP2 SWAP1 SWAP3 SWAP4 DUP8 CODESIZE PUSH2 0x28EE JUMP JUMPDEST PUSH2 0x29AE SWAP1 PUSH2 0x4545 JUMP JUMPDEST PUSH2 0x359 JUMPI DUP2 CODESIZE PUSH2 0x28A6 JUMP JUMPDEST PUSH1 0x40 MLOAD RETURNDATASIZE DUP6 DUP3 RETURNDATACOPY RETURNDATASIZE SWAP1 REVERT JUMPDEST DUP5 DUP1 REVERT JUMPDEST SWAP3 POP SWAP1 POP DUP6 DUP3 DUP2 RETURNDATASIZE DUP2 GT PUSH2 0x29F5 JUMPI JUMPDEST PUSH2 0x29E1 DUP2 DUP4 PUSH2 0x45A6 JUMP JUMPDEST DUP2 ADD SUB SLT PUSH2 0x1F41 JUMPI SWAP1 MLOAD DUP10 SWAP2 PUSH2 0x2859 PUSH2 0x284B JUMP JUMPDEST POP RETURNDATASIZE PUSH2 0x29D7 JUMP JUMPDEST PUSH1 0x40 MLOAD PUSH3 0x461BCD PUSH1 0xE5 SHL DUP2 MSTORE PUSH1 0x4 DUP2 ADD DUP7 SWAP1 MSTORE PUSH1 0x24 DUP1 DUP3 ADD MSTORE PUSH32 0x4F7074696F6E73436F72653A2063616E6E6F7420616363657074206F776E206F PUSH1 0x44 DUP3 ADD MSTORE PUSH4 0x393232B9 PUSH1 0xE1 SHL PUSH1 0x64 DUP3 ADD MSTORE PUSH1 0x84 SWAP1 REVERT JUMPDEST PUSH1 0x40 MLOAD PUSH3 0x461BCD PUSH1 0xE5 SHL DUP2 MSTORE PUSH1 0x4 DUP2 ADD DUP8 SWAP1 MSTORE PUSH1 0x1F PUSH1 0x24 DUP3 ADD MSTORE PUSH32 0x4F7074696F6E73436F72653A206E6F7420612073656C6C6572206F7264657200 PUSH1 0x44 DUP3 ADD MSTORE PUSH1 0x64 SWAP1 REVERT JUMPDEST PUSH1 0x64 DUP4 PUSH1 0x40 MLOAD SWAP1 PUSH3 0x461BCD PUSH1 0xE5 SHL DUP3 MSTORE DUP1 PUSH1 0x4 DUP4 ADD MSTORE PUSH1 0x24 DUP3 ADD MSTORE PUSH32 0x4F7074696F6E73436F72653A206F72646572206E6F7420617661696C61626C65 PUSH1 0x44 DUP3 ADD MSTORE REVERT JUMPDEST POP PUSH1 0x5 SLOAD DUP3 LT PUSH2 0x2788 JUMP JUMPDEST POP CALLVALUE PUSH2 0x2D7 JUMPI PUSH2 0x2AEF CALLDATASIZE PUSH2 0x4315 JUMP JUMPDEST SWAP1 DUP1 ISZERO ISZERO DUP1 PUSH2 0x2B1C JUMPI JUMPDEST PUSH2 0x2B02 SWAP1 PUSH2 0x4ABB JUMP JUMPDEST PUSH2 0x2B0A PUSH2 0x463C JUMP JUMPDEST DUP3 MSTORE PUSH1 0x7 PUSH1 0x20 MSTORE PUSH1 0x19 PUSH1 0x40 DUP4 KECCAK256 ADD SSTORE DUP1 RETURN JUMPDEST POP PUSH1 0x5 SLOAD DUP2 LT PUSH2 0x2AF9 JUMP JUMPDEST POP CALLVALUE PUSH2 0x2D7 JUMPI PUSH1 0x20 DUP1 PUSH1 0x3 NOT CALLDATASIZE ADD SLT PUSH2 0x359 JUMPI PUSH1 0x4 CALLDATALOAD SWAP1 PUSH2 0x2B46 PUSH2 0x49D9 JUMP JUMPDEST PUSH2 0x2B4E PUSH2 0x49BB JUMP JUMPDEST DUP2 DUP4 MSTORE PUSH1 0x9 DUP2 MSTORE PUSH1 0x40 DUP4 KECCAK256 PUSH1 0xFF SWAP1 PUSH1 0xA SWAP3 DUP3 DUP5 DUP4 ADD SLOAD AND PUSH2 0x2B6E DUP2 PUSH2 0x43E0 JUMP JUMPDEST PUSH2 0x2ED3 JUMPI PUSH1 0x9 DUP3 ADD SLOAD TIMESTAMP GT PUSH2 0x2E92 JUMPI PUSH1 0x1 SWAP5 DUP6 DUP4 ADD SLOAD DUP8 MSTORE PUSH1 0x7 DUP3 MSTORE PUSH1 0x40 DUP8 KECCAK256 SWAP5 DUP7 DUP7 ADD SWAP6 PUSH1 0x1 DUP1 PUSH1 0xA0 SHL SUB SWAP1 PUSH2 0x2BA9 DUP3 DUP10 SLOAD AND CALLER EQ PUSH2 0x49FC JUMP JUMPDEST PUSH1 0x15 DUP2 ADD SWAP4 DUP5 SLOAD SWAP5 PUSH3 0x20000 PUSH3 0xFF0000 NOT DUP8 AND OR SWAP1 SSTORE PUSH1 0x2 SWAP7 DUP8 DUP2 ADD SWAP5 DUP13 DUP6 DUP8 SLOAD AND SWAP7 DUP11 DUP7 ADD SWAP8 PUSH1 0x1 DUP1 PUSH1 0xA0 SHL SUB NOT DUP10 SLOAD AND OR DUP9 SSTORE PUSH2 0x2C2F PUSH1 0x7 PUSH1 0x4 DUP7 ADD SWAP6 DUP7 SLOAD PUSH1 0xD DUP11 ADD SSTORE PUSH1 0x6 DUP2 ADD SLOAD DUP1 PUSH1 0xE DUP12 ADD SSTORE PUSH1 0xF DUP11 ADD SSTORE ADD DUP14 DUP1 DUP3 SLOAD AND SWAP2 PUSH2 0x2C14 PUSH1 0x12 DUP12 ADD SWAP4 DUP5 PUSH2 0x492F JUMP JUMPDEST PUSH2 0x2C24 DUP3 DUP3 SLOAD PUSH1 0x8 SHR AND DUP5 PUSH2 0x4939 JUMP JUMPDEST SLOAD PUSH1 0x10 SHR AND SWAP1 PUSH2 0x494F JUMP JUMPDEST TIMESTAMP PUSH1 0x17 DUP8 ADD SSTORE PUSH1 0x4 DUP12 DUP12 DUP10 PUSH1 0x9 DUP11 ADD SLOAD SWAP3 SLOAD PUSH1 0x8 SHR AND PUSH1 0x40 MLOAD SWAP4 DUP5 DUP1 SWAP3 PUSH4 0x1C03BE35 PUSH1 0xE3 SHL DUP3 MSTORE GAS STATICCALL SWAP2 DUP3 ISZERO PUSH2 0x1F06 JUMPI DUP5 SWAP3 PUSH2 0x2E5E JUMPI JUMPDEST POP PUSH2 0x2710 SWAP2 PUSH2 0x2C74 SWAP2 PUSH2 0x4A41 JUMP JUMPDEST DIV SWAP4 DUP8 PUSH1 0x3 SLOAD AND SWAP1 DUP9 PUSH1 0x4 SLOAD AND SWAP1 SLOAD DUP3 EXTCODESIZE ISZERO PUSH2 0x29C4 JUMPI PUSH2 0x2CAE SWAP3 DUP6 SWAP3 DUP4 PUSH1 0x40 MLOAD DUP1 SWAP7 DUP2 SWAP6 DUP3 SWAP5 PUSH4 0xAC94D93 PUSH1 0xE3 SHL DUP5 MSTORE CALLER PUSH1 0x4 DUP6 ADD PUSH2 0x4A54 JUMP JUMPDEST SUB SWAP3 GAS CALL SWAP1 DUP2 ISZERO PUSH2 0x29B9 JUMPI DUP4 SWAP2 PUSH2 0x2E4A JUMPI JUMPDEST POP POP DUP7 PUSH1 0x3 SLOAD AND SWAP4 DUP8 PUSH1 0x4 SLOAD AND SWAP1 DUP6 EXTCODESIZE ISZERO PUSH2 0x1F61 JUMPI PUSH2 0x2CF9 SWAP6 DUP5 SWAP3 DUP4 PUSH1 0x40 MLOAD DUP1 SWAP10 DUP2 SWAP6 DUP3 SWAP5 PUSH4 0xEC185A07 PUSH1 0xE0 SHL DUP5 MSTORE CALLER PUSH1 0x4 DUP6 ADD PUSH2 0x4A76 JUMP JUMPDEST SUB SWAP3 GAS CALL SWAP1 DUP2 ISZERO PUSH2 0x2420 JUMPI DUP15 SWAP5 DUP9 SWAP3 PUSH2 0x2E2F JUMPI JUMPDEST POP SLOAD AND DUP2 MSTORE PUSH1 0xB DUP10 MSTORE PUSH1 0x40 SWAP1 KECCAK256 DUP5 SLOAD PUSH2 0x2D25 SWAP2 PUSH2 0x4986 JUMP JUMPDEST DUP4 SLOAD DUP14 MSTORE PUSH1 0x8 DUP9 MSTORE PUSH1 0x40 DUP14 KECCAK256 DUP14 DUP4 JUMPDEST PUSH2 0x2DBD JUMPI JUMPDEST POP POP POP POP POP SWAP3 PUSH1 0x0 DUP1 MLOAD PUSH1 0x20 PUSH2 0x4DB9 DUP4 CODECOPY DUP2 MLOAD SWAP2 MSTORE SWAP7 SWAP5 SWAP3 DUP3 PUSH2 0x2D89 SWAP4 PUSH1 0xC0 SWAP9 SWAP7 SLOAD SWAP11 SLOAD AND SWAP2 SLOAD AND SWAP1 DUP10 PUSH1 0x0 DUP1 MLOAD PUSH1 0x20 PUSH2 0x4DF9 DUP4 CODECOPY DUP2 MLOAD SWAP2 MSTORE DUP7 PUSH1 0x40 MLOAD TIMESTAMP DUP2 MSTORE LOG4 PUSH1 0x40 MLOAD SWAP5 DUP6 SWAP2 PUSH1 0x10 SHR AND PUSH2 0x4613 JUMP JUMPDEST DUP3 ADD MSTORE PUSH1 0x80 PUSH1 0x40 DUP3 ADD MSTORE PUSH1 0xE PUSH1 0x80 DUP3 ADD MSTORE PUSH14 0x1C5D5BDD19481858D8D95C1D1959 PUSH1 0x92 SHL PUSH1 0xA0 DUP3 ADD MSTORE TIMESTAMP PUSH1 0x60 DUP3 ADD MSTORE LOG2 DUP1 SSTORE DUP1 RETURN JUMPDEST DUP2 SLOAD DUP2 LT ISZERO PUSH2 0x2E2A JUMPI DUP1 DUP6 PUSH2 0x2DD5 PUSH2 0x2DE8 SWAP4 DUP6 PUSH2 0x4620 JUMP JUMPDEST POP SLOAD EQ ISZERO DUP1 PUSH2 0x2E0A JUMPI JUMPDEST PUSH2 0x2DEE JUMPI PUSH2 0x48F2 JUMP JUMPDEST DUP4 PUSH2 0x2D34 JUMP JUMPDEST DUP4 PUSH2 0x2DF9 DUP3 DUP6 PUSH2 0x4620 JUMP JUMPDEST POP ADD DUP1 SLOAD PUSH1 0xFF NOT AND DUP14 OR SWAP1 SSTORE PUSH2 0x48F2 JUMP JUMPDEST POP DUP13 DUP5 PUSH2 0x2E17 DUP4 DUP7 PUSH2 0x4620 JUMP JUMPDEST POP ADD SLOAD AND PUSH2 0x2E24 DUP2 PUSH2 0x43E0 JUMP JUMPDEST ISZERO PUSH2 0x2DDF JUMP JUMPDEST PUSH2 0x2D39 JUMP JUMPDEST PUSH2 0x2E3D SWAP2 SWAP6 POP DUP4 SWAP3 POP PUSH2 0x4545 JUMP JUMPDEST PUSH2 0x2D7 JUMPI DUP6 DUP14 SWAP4 CODESIZE PUSH2 0x2D0D JUMP JUMPDEST PUSH2 0x2E53 SWAP1 PUSH2 0x4545 JUMP JUMPDEST PUSH2 0x359 JUMPI DUP2 CODESIZE PUSH2 0x2CC0 JUMP JUMPDEST SWAP4 POP SWAP1 POP DUP11 DUP4 DUP2 RETURNDATASIZE DUP2 GT PUSH2 0x2E8B JUMPI JUMPDEST PUSH2 0x2E77 DUP2 DUP4 PUSH2 0x45A6 JUMP JUMPDEST DUP2 ADD SUB SLT PUSH2 0x1F41 JUMPI SWAP2 MLOAD DUP16 SWAP3 PUSH2 0x2C74 PUSH2 0x2C66 JUMP JUMPDEST POP RETURNDATASIZE PUSH2 0x2E6D JUMP JUMPDEST PUSH1 0x64 SWAP1 PUSH1 0x40 MLOAD SWAP1 PUSH3 0x461BCD PUSH1 0xE5 SHL DUP3 MSTORE PUSH1 0x4 DUP3 ADD MSTORE PUSH1 0x1A PUSH1 0x24 DUP3 ADD MSTORE PUSH26 0x13DC1D1A5BDB9CD0DBDC994E881C5D5BDD1948195E1C1A5C9959 PUSH1 0x32 SHL PUSH1 0x44 DUP3 ADD MSTORE REVERT JUMPDEST PUSH1 0x64 SWAP1 PUSH1 0x40 MLOAD SWAP1 PUSH3 0x461BCD PUSH1 0xE5 SHL DUP3 MSTORE PUSH1 0x4 DUP3 ADD MSTORE PUSH1 0x1D PUSH1 0x24 DUP3 ADD MSTORE PUSH32 0x4F7074696F6E73436F72653A2071756F7465206E6F7420616374697665000000 PUSH1 0x44 DUP3 ADD MSTORE REVERT JUMPDEST POP CALLVALUE PUSH2 0x2D7 JUMPI DUP1 PUSH1 0x3 NOT CALLDATASIZE ADD SLT PUSH2 0x2D7 JUMPI PUSH1 0x20 PUSH1 0xFF PUSH1 0x2 SLOAD AND PUSH1 0x40 MLOAD SWAP1 ISZERO ISZERO DUP2 MSTORE RETURN JUMPDEST POP CALLVALUE PUSH2 0x2D7 JUMPI DUP1 PUSH1 0x3 NOT CALLDATASIZE ADD SLT PUSH2 0x2D7 JUMPI PUSH1 0x20 PUSH1 0x6 SLOAD PUSH1 0x40 MLOAD SWAP1 DUP2 MSTORE RETURN JUMPDEST POP CALLVALUE PUSH2 0x2D7 JUMPI PUSH1 0x40 CALLDATASIZE PUSH1 0x3 NOT ADD SLT PUSH2 0x2D7 JUMPI PUSH2 0x2F72 PUSH2 0x432B JUMP JUMPDEST PUSH1 0x1 PUSH1 0x1 PUSH1 0xA0 SHL SUB AND DUP2 MSTORE PUSH1 0xB PUSH1 0x20 MSTORE PUSH1 0x40 DUP2 KECCAK256 DUP1 SLOAD PUSH1 0x24 CALLDATALOAD SWAP3 SWAP1 DUP4 LT ISZERO PUSH2 0x2D7 JUMPI PUSH1 0x20 PUSH2 0x2FA0 DUP5 DUP5 PUSH2 0x4357 JUMP JUMPDEST SWAP1 SLOAD PUSH1 0x40 MLOAD SWAP2 PUSH1 0x3 SHL SHR DUP2 MSTORE RETURN JUMPDEST POP CALLVALUE PUSH2 0x2D7 JUMPI PUSH1 0x40 CALLDATASIZE PUSH1 0x3 NOT ADD SLT PUSH2 0x2D7 JUMPI PUSH2 0x2FC8 PUSH2 0x432B JUMP JUMPDEST PUSH1 0x1 PUSH1 0x1 PUSH1 0xA0 SHL SUB AND DUP2 MSTORE PUSH1 0xA PUSH1 0x20 MSTORE PUSH1 0x40 DUP2 KECCAK256 DUP1 SLOAD PUSH1 0x24 CALLDATALOAD SWAP3 SWAP1 DUP4 LT ISZERO PUSH2 0x2D7 JUMPI PUSH1 0x20 PUSH2 0x2FA0 DUP5 DUP5 PUSH2 0x4357 JUMP JUMPDEST POP CALLVALUE PUSH2 0x2D7 JUMPI PUSH2 0x3005 CALLDATASIZE PUSH2 0x4315 JUMP JUMPDEST SWAP1 DUP1 ISZERO ISZERO DUP1 PUSH2 0x3032 JUMPI JUMPDEST PUSH2 0x3018 SWAP1 PUSH2 0x4ABB JUMP JUMPDEST PUSH2 0x3020 PUSH2 0x463C JUMP JUMPDEST DUP3 MSTORE PUSH1 0x7 PUSH1 0x20 MSTORE PUSH1 0x1A PUSH1 0x40 DUP4 KECCAK256 ADD SSTORE DUP1 RETURN JUMPDEST POP PUSH1 0x5 SLOAD DUP2 LT PUSH2 0x300F JUMP JUMPDEST POP CALLVALUE PUSH2 0x2D7 JUMPI PUSH2 0x304C CALLDATASIZE PUSH2 0x4315 JUMP JUMPDEST DUP2 ISZERO ISZERO DUP1 PUSH2 0x314D JUMPI JUMPDEST PUSH2 0x305E SWAP1 PUSH2 0x4ABB JUMP JUMPDEST PUSH2 0x3066 PUSH2 0x46A4 JUMP JUMPDEST DUP2 DUP4 MSTORE PUSH1 0x7 PUSH1 0x20 MSTORE PUSH1 0x40 DUP4 KECCAK256 SWAP1 PUSH1 0x15 DUP3 ADD SWAP2 DUP3 SLOAD SWAP3 PUSH1 0xFF DUP5 PUSH1 0x10 SHR AND SWAP2 PUSH1 0xB DUP4 LT ISZERO PUSH2 0x465 JUMPI PUSH1 0x4 DUP4 EQ DUP1 ISZERO PUSH2 0x3143 JUMPI JUMPDEST ISZERO PUSH2 0x3100 JUMPI PUSH1 0x0 DUP1 MLOAD PUSH1 0x20 PUSH2 0x4DB9 DUP4 CODECOPY DUP2 MLOAD SWAP2 MSTORE SWAP5 PUSH1 0xC0 SWAP5 PUSH1 0x19 PUSH3 0x60000 SWAP4 ADD SSTORE PUSH3 0xFF0000 NOT AND OR SWAP1 SSTORE PUSH2 0x30CE PUSH1 0x40 MLOAD DUP1 SWAP3 PUSH2 0x4613 JUMP JUMPDEST PUSH1 0x6 PUSH1 0x20 DUP3 ADD MSTORE PUSH1 0x80 PUSH1 0x40 DUP3 ADD MSTORE PUSH1 0xA PUSH1 0x80 DUP3 ADD MSTORE PUSH10 0x199A5B985B0819995959 PUSH1 0xB2 SHL PUSH1 0xA0 DUP3 ADD MSTORE TIMESTAMP PUSH1 0x60 DUP3 ADD MSTORE LOG2 DUP1 RETURN JUMPDEST PUSH1 0x40 MLOAD PUSH3 0x461BCD PUSH1 0xE5 SHL DUP2 MSTORE PUSH1 0x20 PUSH1 0x4 DUP3 ADD MSTORE PUSH1 0x1B PUSH1 0x24 DUP3 ADD MSTORE PUSH27 0x4F7074696F6E73436F72653A20696E76616C696420737461747573 PUSH1 0x28 SHL PUSH1 0x44 DUP3 ADD MSTORE PUSH1 0x64 SWAP1 REVERT JUMPDEST POP PUSH1 0x5 DUP4 EQ PUSH2 0x3097 JUMP JUMPDEST POP PUSH1 0x5 SLOAD DUP3 LT PUSH2 0x3055 JUMP JUMPDEST POP CALLVALUE PUSH2 0x2D7 JUMPI DUP1 PUSH1 0x3 NOT CALLDATASIZE ADD SLT PUSH2 0x2D7 JUMPI PUSH2 0x3171 PUSH2 0x46A4 JUMP JUMPDEST PUSH1 0x2 SLOAD PUSH1 0xFF DUP2 AND ISZERO PUSH2 0x31B1 JUMPI PUSH1 0xFF NOT AND PUSH1 0x2 SSTORE PUSH32 0x5DB9EE0A495BF2E6FF9C91A7834C1BA4FDD244A5E8AA4E537BD38AEAE4B073AA PUSH1 0x20 PUSH1 0x40 MLOAD CALLER DUP2 MSTORE LOG1 DUP1 RETURN JUMPDEST PUSH1 0x40 MLOAD PUSH4 0x8DFC202B PUSH1 0xE0 SHL DUP2 MSTORE PUSH1 0x4 SWAP1 REVERT JUMPDEST POP CALLVALUE PUSH2 0x2D7 JUMPI PUSH1 0x20 DUP1 PUSH1 0x3 NOT CALLDATASIZE ADD SLT PUSH2 0x359 JUMPI PUSH1 0x4 CALLDATALOAD SWAP1 DUP2 ISZERO ISZERO DUP1 PUSH2 0x33C0 JUMPI JUMPDEST PUSH2 0x31EC SWAP1 PUSH2 0x4ABB JUMP JUMPDEST PUSH2 0x31F4 PUSH2 0x49D9 JUMP JUMPDEST PUSH2 0x31FC PUSH2 0x49BB JUMP JUMPDEST DUP2 DUP4 MSTORE PUSH1 0x7 DUP2 MSTORE PUSH1 0x40 DUP4 KECCAK256 PUSH1 0x15 DUP2 ADD SWAP1 PUSH1 0xFF DUP3 SLOAD PUSH1 0x10 SHR AND SWAP1 PUSH1 0xB DUP3 LT ISZERO SWAP1 DUP2 PUSH2 0x465 JUMPI DUP3 ISZERO DUP1 ISZERO PUSH2 0x33B2 JUMPI JUMPDEST ISZERO PUSH2 0x336D JUMPI PUSH1 0x16 ADD SLOAD PUSH1 0x2 SLOAD PUSH1 0x40 MLOAD PUSH4 0x4F6BFAD7 PUSH1 0xE0 SHL DUP2 MSTORE SWAP2 SWAP1 DUP7 SWAP1 DUP4 SWAP1 PUSH1 0x4 SWAP1 DUP3 SWAP1 PUSH1 0x8 SHR PUSH1 0x1 PUSH1 0x1 PUSH1 0xA0 SHL SUB AND GAS STATICCALL SWAP1 DUP2 ISZERO PUSH2 0x2401 JUMPI DUP9 SWAP2 PUSH2 0x333C JUMPI JUMPDEST PUSH2 0x3273 SWAP3 POP PUSH2 0x4B29 JUMP JUMPDEST TIMESTAMP GT ISZERO PUSH2 0x32F9 JUMPI PUSH2 0xF0E JUMPI PUSH1 0x0 DUP1 MLOAD PUSH1 0x20 PUSH2 0x4DB9 DUP4 CODECOPY DUP2 MLOAD SWAP2 MSTORE SWAP3 PUSH2 0x32D4 PUSH1 0xFF SWAP4 PUSH1 0x1 PUSH1 0xA SWAP5 EQ PUSH2 0x32EB JUMPI JUMPDEST DUP1 SLOAD SWAP1 PUSH3 0xA0000 PUSH3 0xFF0000 NOT DUP4 AND OR SWAP1 SSTORE DUP7 PUSH1 0x0 DUP1 MLOAD PUSH1 0x20 PUSH2 0x4D79 DUP4 CODECOPY DUP2 MLOAD SWAP2 MSTORE PUSH1 0x40 MLOAD PUSH1 0x40 DUP2 MSTORE DUP1 PUSH2 0xEC2 PUSH1 0x40 DUP3 ADD PUSH2 0x4B36 JUMP JUMPDEST DUP3 ADD MSTORE PUSH1 0x80 PUSH1 0x40 DUP3 ADD MSTORE DUP1 PUSH2 0xEF0 PUSH1 0x80 DUP3 ADD PUSH2 0x4B36 JUMP JUMPDEST PUSH2 0x32F4 DUP8 PUSH2 0x4B54 JUMP JUMPDEST PUSH2 0x329F JUMP JUMPDEST PUSH1 0x64 DUP5 PUSH1 0x40 MLOAD SWAP1 PUSH3 0x461BCD PUSH1 0xE5 SHL DUP3 MSTORE DUP1 PUSH1 0x4 DUP4 ADD MSTORE PUSH1 0x24 DUP3 ADD MSTORE PUSH32 0x4F7074696F6E73436F72653A20524651206E6F74206578706972656420796574 PUSH1 0x44 DUP3 ADD MSTORE REVERT JUMPDEST SWAP1 POP DUP6 DUP3 DUP2 RETURNDATASIZE DUP4 GT PUSH2 0x3366 JUMPI JUMPDEST PUSH2 0x3353 DUP2 DUP4 PUSH2 0x45A6 JUMP JUMPDEST DUP2 ADD SUB SLT PUSH2 0x1F41 JUMPI PUSH2 0x3273 SWAP2 MLOAD SWAP1 PUSH2 0x3269 JUMP JUMPDEST POP RETURNDATASIZE PUSH2 0x3349 JUMP JUMPDEST PUSH1 0x40 MLOAD PUSH3 0x461BCD PUSH1 0xE5 SHL DUP2 MSTORE PUSH1 0x4 DUP2 ADD DUP7 SWAP1 MSTORE PUSH1 0x1D PUSH1 0x24 DUP3 ADD MSTORE PUSH32 0x4F7074696F6E73436F72653A206E6F7420696E20524651207068617365000000 PUSH1 0x44 DUP3 ADD MSTORE PUSH1 0x64 SWAP1 REVERT JUMPDEST POP PUSH1 0x0 SWAP2 POP PUSH1 0x1 DUP4 EQ PUSH2 0x3229 JUMP JUMPDEST POP PUSH1 0x5 SLOAD DUP3 LT PUSH2 0x31E3 JUMP JUMPDEST POP CALLVALUE PUSH2 0x2D7 JUMPI PUSH1 0x40 CALLDATASIZE PUSH1 0x3 NOT ADD SLT PUSH2 0x2D7 JUMPI PUSH2 0x33E5 PUSH2 0x4341 JUMP JUMPDEST CALLER PUSH1 0x1 PUSH1 0x1 PUSH1 0xA0 SHL SUB DUP3 AND SUB PUSH2 0x3401 JUMPI PUSH2 0x4C1 SWAP1 PUSH1 0x4 CALLDATALOAD PUSH2 0x4782 JUMP JUMPDEST PUSH1 0x40 MLOAD PUSH4 0x334BD919 PUSH1 0xE1 SHL DUP2 MSTORE PUSH1 0x4 SWAP1 REVERT JUMPDEST POP CALLVALUE PUSH2 0x2D7 JUMPI PUSH1 0x60 CALLDATASIZE PUSH1 0x3 NOT ADD SLT PUSH2 0x2D7 JUMPI PUSH1 0x4 CALLDATALOAD PUSH1 0x24 DUP1 CALLDATALOAD PUSH1 0x4 DUP2 LT ISZERO PUSH2 0x1F61 JUMPI PUSH1 0x44 CALLDATALOAD SWAP1 DUP4 ISZERO ISZERO DUP1 PUSH2 0x373E JUMPI JUMPDEST PUSH2 0x344B SWAP1 PUSH2 0x4ABB JUMP JUMPDEST CALLER PUSH1 0x0 SWAP1 DUP2 MSTORE PUSH32 0x3F8D9A030D334798D6AECE9C5BCC7646B3F51F8740E76F47846D18CC4A1A8E4E PUSH1 0x20 SWAP1 DUP2 MSTORE PUSH1 0x40 SWAP1 SWAP2 KECCAK256 SLOAD SWAP1 SWAP3 SWAP1 PUSH1 0x0 DUP1 MLOAD PUSH1 0x20 PUSH2 0x4D99 DUP4 CODECOPY DUP2 MLOAD SWAP2 MSTORE SWAP1 PUSH1 0xFF AND ISZERO PUSH2 0x3721 JUMPI POP DUP5 DUP7 MSTORE PUSH1 0x7 DUP4 MSTORE PUSH1 0x40 DUP7 KECCAK256 SWAP2 DUP2 ISZERO PUSH2 0x36E0 JUMPI PUSH2 0x34B4 DUP2 PUSH2 0x43E0 JUMP JUMPDEST DUP1 PUSH2 0x35C8 JUMPI POP SWAP1 PUSH1 0x15 DUP2 ADD SWAP2 DUP3 SLOAD SWAP2 PUSH1 0xFF DUP4 PUSH1 0x10 SHR AND SWAP6 PUSH1 0xB DUP8 LT ISZERO PUSH2 0x35B6 JUMPI PUSH1 0x2 DUP8 EQ DUP1 ISZERO PUSH2 0x35AC JUMPI JUMPDEST ISZERO PUSH2 0x355A JUMPI POP PUSH1 0xA DUP2 ADD DUP3 SWAP1 SSTORE PUSH1 0x19 ADD SSTORE PUSH3 0xFF0000 NOT AND PUSH3 0x40000 OR SWAP1 SSTORE PUSH1 0x40 MLOAD PUSH1 0x0 DUP1 MLOAD PUSH1 0x20 PUSH2 0x4DB9 DUP4 CODECOPY DUP2 MLOAD SWAP2 MSTORE SWAP3 PUSH1 0xC0 SWAP3 PUSH1 0x4 SWAP2 PUSH2 0x3521 SWAP1 DUP5 SWAP1 PUSH2 0x4613 JUMP JUMPDEST DUP3 ADD MSTORE PUSH1 0x80 PUSH1 0x40 DUP3 ADD MSTORE PUSH1 0x15 PUSH1 0x80 DUP3 ADD MSTORE PUSH21 0x696E697469616C20666565642063616C6C6261636B PUSH1 0x58 SHL PUSH1 0xA0 DUP3 ADD MSTORE TIMESTAMP PUSH1 0x60 DUP3 ADD MSTORE LOG2 DUP1 RETURN JUMPDEST DUP6 PUSH1 0x26 PUSH1 0x84 SWAP3 PUSH1 0x40 MLOAD SWAP3 PUSH3 0x461BCD PUSH1 0xE5 SHL DUP5 MSTORE PUSH1 0x4 DUP5 ADD MSTORE DUP3 ADD MSTORE PUSH32 0x4F7074696F6E73436F72653A206E6F74206177616974696E6720696E69746961 PUSH1 0x44 DUP3 ADD MSTORE PUSH6 0x1B0819995959 PUSH1 0xD2 SHL PUSH1 0x64 DUP3 ADD MSTORE REVERT JUMPDEST POP PUSH1 0x3 DUP8 EQ PUSH2 0x34DF JUMP JUMPDEST PUSH4 0x4E487B71 PUSH1 0xE0 SHL DUP10 MSTORE PUSH1 0x21 PUSH1 0x4 MSTORE DUP9 REVERT JUMPDEST DUP1 PUSH2 0x35D4 PUSH1 0x2 SWAP3 PUSH2 0x43E0 JUMP JUMPDEST EQ PUSH2 0x35E2 JUMPI JUMPDEST POP POP POP POP POP DUP1 RETURN JUMPDEST PUSH1 0x15 DUP3 ADD SWAP1 DUP2 SLOAD SWAP1 PUSH1 0xFF DUP3 PUSH1 0x10 SHR AND SWAP6 PUSH1 0xB DUP8 LT ISZERO PUSH2 0x35B6 JUMPI PUSH1 0x4 DUP8 EQ DUP1 ISZERO PUSH2 0x36D6 JUMPI JUMPDEST ISZERO PUSH2 0x3687 JUMPI POP PUSH1 0x19 DUP5 ADD SSTORE PUSH3 0xFF0000 NOT AND PUSH3 0x60000 OR SWAP1 SSTORE TIMESTAMP PUSH1 0x18 SWAP1 SWAP2 ADD SSTORE PUSH1 0x40 MLOAD PUSH1 0x0 DUP1 MLOAD PUSH1 0x20 PUSH2 0x4DB9 DUP4 CODECOPY DUP2 MLOAD SWAP2 MSTORE SWAP3 PUSH1 0xC0 SWAP3 PUSH1 0x6 SWAP2 PUSH2 0x3649 SWAP1 DUP5 SWAP1 PUSH2 0x4613 JUMP JUMPDEST DUP3 ADD MSTORE PUSH1 0x80 PUSH1 0x40 DUP3 ADD MSTORE PUSH1 0x13 PUSH1 0x80 DUP3 ADD MSTORE PUSH19 0x66696E616C20666565642063616C6C6261636B PUSH1 0x68 SHL PUSH1 0xA0 DUP3 ADD MSTORE TIMESTAMP PUSH1 0x60 DUP3 ADD MSTORE LOG2 CODESIZE DUP1 DUP1 DUP1 DUP1 PUSH2 0x35DA JUMP JUMPDEST DUP6 PUSH1 0x84 SWAP2 PUSH1 0x40 MLOAD SWAP2 PUSH3 0x461BCD PUSH1 0xE5 SHL DUP4 MSTORE PUSH1 0x4 DUP4 ADD MSTORE DUP1 DUP3 ADD MSTORE PUSH32 0x4F7074696F6E73436F72653A206E6F74206177616974696E672066696E616C20 PUSH1 0x44 DUP3 ADD MSTORE PUSH4 0x19995959 PUSH1 0xE2 SHL PUSH1 0x64 DUP3 ADD MSTORE REVERT JUMPDEST POP PUSH1 0x5 DUP8 EQ PUSH2 0x3606 JUMP JUMPDEST PUSH1 0x40 MLOAD PUSH3 0x461BCD PUSH1 0xE5 SHL DUP2 MSTORE PUSH1 0x4 DUP2 ADD DUP6 SWAP1 MSTORE PUSH1 0x1A DUP2 DUP8 ADD MSTORE PUSH26 0x4F7074696F6E73436F72653A20696E76616C6964207072696365 PUSH1 0x30 SHL PUSH1 0x44 DUP3 ADD MSTORE PUSH1 0x64 SWAP1 REVERT JUMPDEST DUP5 PUSH1 0x44 SWAP2 PUSH1 0x40 MLOAD SWAP2 PUSH4 0xE2517D3F PUSH1 0xE0 SHL DUP4 MSTORE CALLER PUSH1 0x4 DUP5 ADD MSTORE DUP3 ADD MSTORE REVERT JUMPDEST POP PUSH1 0x5 SLOAD DUP5 LT PUSH2 0x3442 JUMP JUMPDEST POP CALLVALUE PUSH2 0x2D7 JUMPI DUP1 PUSH1 0x3 NOT CALLDATASIZE ADD SLT PUSH2 0x2D7 JUMPI PUSH1 0x4 SLOAD PUSH1 0x40 MLOAD PUSH1 0x1 PUSH1 0x1 PUSH1 0xA0 SHL SUB SWAP1 SWAP2 AND DUP2 MSTORE PUSH1 0x20 SWAP1 RETURN JUMPDEST POP CALLVALUE PUSH2 0x2D7 JUMPI PUSH1 0x40 CALLDATASIZE PUSH1 0x3 NOT ADD SLT PUSH2 0x2D7 JUMPI PUSH2 0x4C1 PUSH1 0x4 CALLDATALOAD PUSH2 0x3792 PUSH2 0x4341 JUMP JUMPDEST SWAP1 DUP1 DUP5 MSTORE DUP4 PUSH1 0x20 MSTORE PUSH2 0x37AA PUSH1 0x1 PUSH1 0x40 DUP7 KECCAK256 ADD SLOAD PUSH2 0x46DE JUMP JUMPDEST PUSH2 0x4704 JUMP JUMPDEST POP CALLVALUE PUSH2 0x2D7 JUMPI DUP1 PUSH1 0x3 NOT CALLDATASIZE ADD SLT PUSH2 0x2D7 JUMPI PUSH1 0x20 PUSH1 0x5 SLOAD PUSH1 0x40 MLOAD SWAP1 DUP2 MSTORE RETURN JUMPDEST POP CALLVALUE PUSH2 0x2D7 JUMPI PUSH1 0x20 CALLDATASIZE PUSH1 0x3 NOT ADD SLT PUSH2 0x2D7 JUMPI PUSH1 0x1 PUSH1 0x40 PUSH1 0x20 SWAP3 PUSH1 0x4 CALLDATALOAD DUP2 MSTORE DUP1 DUP5 MSTORE KECCAK256 ADD SLOAD PUSH1 0x40 MLOAD SWAP1 DUP2 MSTORE RETURN JUMPDEST POP CALLVALUE PUSH2 0x2D7 JUMPI PUSH1 0x20 CALLDATASIZE PUSH1 0x3 NOT ADD SLT PUSH2 0x2D7 JUMPI PUSH2 0x3813 PUSH2 0x432B JUMP JUMPDEST PUSH2 0x381B PUSH2 0x46A4 JUMP JUMPDEST PUSH1 0x2 DUP1 SLOAD PUSH2 0x100 PUSH1 0x1 PUSH1 0xA8 SHL SUB NOT AND PUSH1 0x8 SWAP3 SWAP1 SWAP3 SHL PUSH2 0x100 PUSH1 0x1 PUSH1 0xA8 SHL SUB AND SWAP2 SWAP1 SWAP2 OR SWAP1 SSTORE DUP1 RETURN JUMPDEST POP CALLVALUE PUSH2 0x2D7 JUMPI PUSH2 0x3852 CALLDATASIZE PUSH2 0x4315 JUMP JUMPDEST SWAP1 DUP1 ISZERO ISZERO DUP1 PUSH2 0x387F JUMPI JUMPDEST PUSH2 0x3865 SWAP1 PUSH2 0x4ABB JUMP JUMPDEST PUSH2 0x386D PUSH2 0x463C JUMP JUMPDEST DUP3 MSTORE PUSH1 0x7 PUSH1 0x20 MSTORE PUSH1 0xF PUSH1 0x40 DUP4 KECCAK256 ADD SSTORE DUP1 RETURN JUMPDEST POP PUSH1 0x5 SLOAD DUP2 LT PUSH2 0x385C JUMP JUMPDEST POP CALLVALUE PUSH2 0x2D7 JUMPI PUSH2 0x3899 CALLDATASIZE PUSH2 0x4315 JUMP JUMPDEST SWAP1 DUP1 ISZERO ISZERO DUP1 PUSH2 0x38C6 JUMPI JUMPDEST PUSH2 0x38AC SWAP1 PUSH2 0x4ABB JUMP JUMPDEST PUSH2 0x38B4 PUSH2 0x463C JUMP JUMPDEST DUP3 MSTORE PUSH1 0x7 PUSH1 0x20 MSTORE PUSH1 0x18 PUSH1 0x40 DUP4 KECCAK256 ADD SSTORE DUP1 RETURN JUMPDEST POP PUSH1 0x5 SLOAD DUP2 LT PUSH2 0x38A3 JUMP JUMPDEST POP CALLVALUE PUSH2 0x2D7 JUMPI PUSH1 0x20 CALLDATASIZE PUSH1 0x3 NOT ADD SLT PUSH2 0x2D7 JUMPI PUSH1 0x4 CALLDATALOAD PUSH4 0xFFFFFFFF PUSH1 0xE0 SHL DUP2 AND DUP1 SWAP2 SUB PUSH2 0x359 JUMPI PUSH1 0x20 SWAP1 PUSH4 0x7965DB0B PUSH1 0xE0 SHL DUP2 EQ SWAP1 DUP2 ISZERO PUSH2 0x3917 JUMPI JUMPDEST POP PUSH1 0x40 MLOAD SWAP1 ISZERO ISZERO DUP2 MSTORE RETURN JUMPDEST PUSH4 0x1FFC9A7 PUSH1 0xE0 SHL EQ SWAP1 POP DUP3 PUSH2 0x390C JUMP JUMPDEST POP CALLVALUE PUSH2 0x2D7 JUMPI PUSH2 0x220 CALLDATASIZE PUSH1 0x3 NOT ADD SLT PUSH2 0x2D7 JUMPI PUSH1 0x4 CALLDATALOAD PUSH1 0x1 PUSH1 0x1 PUSH1 0x40 SHL SUB DUP2 GT PUSH2 0x359 JUMPI PUSH2 0x395A SWAP1 CALLDATASIZE SWAP1 PUSH1 0x4 ADD PUSH2 0x42D8 JUMP JUMPDEST SWAP1 SWAP2 PUSH1 0x24 CALLDATALOAD PUSH1 0x1 PUSH1 0x1 PUSH1 0x40 SHL SUB DUP2 GT PUSH2 0x359 JUMPI PUSH2 0x397B SWAP1 CALLDATASIZE SWAP1 PUSH1 0x4 ADD PUSH2 0x42D8 JUMP JUMPDEST SWAP4 SWAP1 PUSH1 0x44 CALLDATALOAD PUSH1 0x1 PUSH1 0x1 PUSH1 0x40 SHL SUB DUP2 GT PUSH2 0x1F61 JUMPI PUSH2 0x399C SWAP1 CALLDATASIZE SWAP1 PUSH1 0x4 ADD PUSH2 0x42D8 JUMP JUMPDEST SWAP1 PUSH1 0x64 CALLDATALOAD PUSH1 0x1 PUSH1 0x1 PUSH1 0x40 SHL SUB DUP2 GT PUSH2 0x1F11 JUMPI PUSH2 0x39BC SWAP1 CALLDATASIZE SWAP1 PUSH1 0x4 ADD PUSH2 0x42D8 JUMP JUMPDEST SWAP1 SWAP5 PUSH1 0x84 CALLDATALOAD PUSH1 0x1 PUSH1 0x1 PUSH1 0x40 SHL SUB DUP2 GT PUSH2 0x1F5D JUMPI PUSH2 0x39DD SWAP1 CALLDATASIZE SWAP1 PUSH1 0x4 ADD PUSH2 0x42D8 JUMP JUMPDEST PUSH1 0x2 PUSH1 0xA4 CALLDATALOAD LT ISZERO PUSH2 0x42D4 JUMPI PUSH1 0x3 PUSH2 0x144 CALLDATALOAD LT ISZERO PUSH2 0x42D4 JUMPI PUSH1 0xFF PUSH2 0x164 CALLDATALOAD AND PUSH2 0x164 CALLDATALOAD SUB PUSH2 0x42D4 JUMPI PUSH1 0xFF PUSH2 0x184 CALLDATALOAD AND PUSH2 0x184 CALLDATALOAD SUB PUSH2 0x42D4 JUMPI PUSH2 0x3A1C PUSH2 0x4305 JUMP JUMPDEST SWAP2 PUSH1 0xFF PUSH2 0x1E4 CALLDATALOAD AND PUSH2 0x1E4 CALLDATALOAD SUB PUSH2 0x1F59 JUMPI PUSH1 0x2 PUSH2 0x204 CALLDATALOAD LT ISZERO PUSH2 0x1F59 JUMPI PUSH2 0x3A41 PUSH2 0x49D9 JUMP JUMPDEST PUSH2 0x3A49 PUSH2 0x49BB JUMP JUMPDEST PUSH2 0x3A56 PUSH1 0xC4 CALLDATALOAD ISZERO ISZERO PUSH2 0x47F7 JUMP JUMPDEST PUSH2 0x3A63 TIMESTAMP PUSH1 0xE4 CALLDATALOAD GT PUSH2 0x4852 JUMP JUMPDEST PUSH1 0x3 SLOAD PUSH1 0x4 DUP1 SLOAD PUSH1 0x2 SLOAD PUSH1 0x40 MLOAD PUSH4 0x37382D39 PUSH1 0xE2 SHL DUP2 MSTORE SWAP4 PUSH1 0x1 PUSH1 0x1 PUSH1 0xA0 SHL SUB SWAP1 DUP2 AND SWAP4 SWAP3 DUP2 AND SWAP3 PUSH1 0x20 SWAP3 DUP7 SWAP3 DUP4 SWAP2 PUSH1 0x8 SHR AND GAS STATICCALL SWAP3 DUP4 ISZERO PUSH2 0x42C9 JUMPI DUP14 SWAP4 PUSH2 0x4295 JUMPI JUMPDEST POP DUP2 EXTCODESIZE ISZERO PUSH2 0x4291 JUMPI SWAP2 DUP13 SWAP2 PUSH2 0x3AD3 SWAP4 DUP4 PUSH1 0x40 MLOAD DUP1 SWAP7 DUP2 SWAP6 DUP3 SWAP5 PUSH4 0xEC185A07 PUSH1 0xE0 SHL DUP5 MSTORE CALLER PUSH1 0x4 DUP6 ADD PUSH2 0x48AC JUMP JUMPDEST SUB SWAP3 GAS CALL DUP1 ISZERO PUSH2 0x426F JUMPI PUSH2 0x427E JUMPI JUMPDEST POP PUSH1 0x3 SLOAD PUSH1 0x4 SLOAD PUSH1 0x1 PUSH1 0x1 PUSH1 0xA0 SHL SUB SWAP2 DUP3 AND SWAP2 AND DUP2 EXTCODESIZE ISZERO PUSH2 0x427A JUMPI PUSH2 0x3B26 DUP13 SWAP3 DUP4 SWAP3 PUSH1 0x40 MLOAD SWAP5 DUP6 DUP1 SWAP5 DUP2 SWAP4 PUSH4 0xAC94D93 PUSH1 0xE3 SHL DUP4 MSTORE PUSH2 0x124 CALLDATALOAD SWAP1 CALLER PUSH1 0x4 DUP6 ADD PUSH2 0x4A54 JUMP JUMPDEST SUB SWAP3 GAS CALL DUP1 ISZERO PUSH2 0x426F JUMPI SWAP1 DUP12 SWAP2 PUSH2 0x425B JUMPI JUMPDEST POP POP PUSH1 0x5 SLOAD SWAP11 PUSH2 0x3B47 DUP13 PUSH2 0x48F2 JUMP JUMPDEST PUSH1 0x5 SSTORE DUP12 DUP12 MSTORE PUSH1 0x7 PUSH1 0x20 MSTORE PUSH1 0x40 DUP12 KECCAK256 DUP13 DUP2 SSTORE PUSH1 0x2 DUP2 ADD DUP1 SLOAD PUSH1 0x1 PUSH1 0x1 PUSH1 0xA0 SHL SUB NOT AND CALLER OR SWAP1 SSTORE SWAP5 PUSH1 0x1 PUSH1 0x1 PUSH1 0x40 SHL SUB DUP3 GT PUSH2 0x4247 JUMPI DUP2 SWAP1 PUSH2 0x3B8B PUSH1 0x3 DUP9 ADD SLOAD PUSH2 0x4475 JUMP JUMPDEST PUSH1 0x1F DUP2 GT PUSH2 0x41F6 JUMPI JUMPDEST POP DUP13 SWAP1 PUSH1 0x1F DUP4 GT PUSH1 0x1 EQ PUSH2 0x418A JUMPI DUP14 SWAP3 PUSH2 0x417F JUMPI JUMPDEST POP POP DUP2 PUSH1 0x1 SHL SWAP2 PUSH1 0x0 NOT SWAP1 PUSH1 0x3 SHL SHR NOT AND OR PUSH1 0x3 DUP6 ADD SSTORE JUMPDEST PUSH1 0x1 PUSH1 0x1 PUSH1 0x40 SHL SUB DUP13 GT PUSH2 0x3F35 JUMPI PUSH2 0x3BDC PUSH1 0x4 DUP6 ADD SLOAD PUSH2 0x4475 JUMP JUMPDEST PUSH1 0x1F DUP2 GT PUSH2 0x4139 JUMPI JUMPDEST POP DUP12 DUP11 PUSH1 0x1F DUP3 GT PUSH1 0x1 EQ PUSH2 0x40CA JUMPI DUP12 SWAP2 PUSH2 0x40BF JUMPI JUMPDEST POP PUSH1 0x0 NOT PUSH1 0x3 DUP15 SWAP1 SHL SHR NOT AND PUSH1 0x1 DUP14 SWAP1 SHL OR PUSH1 0x4 DUP6 ADD SSTORE JUMPDEST PUSH1 0x1 PUSH1 0x1 PUSH1 0x40 SHL SUB DUP8 GT PUSH2 0x3F35 JUMPI PUSH2 0x3C2D PUSH1 0x5 DUP6 ADD SLOAD PUSH2 0x4475 JUMP JUMPDEST PUSH1 0x1F DUP2 GT PUSH2 0x407A JUMPI JUMPDEST POP DUP7 DUP11 PUSH1 0x1F DUP3 GT PUSH1 0x1 EQ PUSH2 0x4010 JUMPI DUP12 SWAP2 PUSH2 0x4005 JUMPI JUMPDEST POP DUP8 PUSH1 0x1 SHL SWAP1 PUSH1 0x0 NOT DUP10 PUSH1 0x3 SHL SHR NOT AND OR PUSH1 0x5 DUP6 ADD SSTORE JUMPDEST PUSH1 0x1 PUSH1 0x1 PUSH1 0x40 SHL SUB DUP6 GT PUSH2 0x3F35 JUMPI PUSH2 0x3C7D PUSH1 0x6 DUP6 ADD SLOAD PUSH2 0x4475 JUMP JUMPDEST PUSH1 0x1F DUP2 GT PUSH2 0x3FC0 JUMPI JUMPDEST POP DUP5 DUP11 PUSH1 0x1F DUP3 GT PUSH1 0x1 EQ PUSH2 0x3F54 JUMPI DUP12 SWAP2 PUSH2 0x3F49 JUMPI JUMPDEST POP DUP6 PUSH1 0x1 SHL SWAP1 PUSH1 0x0 NOT DUP8 PUSH1 0x3 SHL SHR NOT AND OR PUSH1 0x6 DUP6 ADD SSTORE JUMPDEST PUSH1 0x1 PUSH1 0x1 PUSH1 0x40 SHL SUB DUP3 GT PUSH2 0x3F35 JUMPI PUSH2 0x3CCD PUSH1 0x7 DUP6 ADD SLOAD PUSH2 0x4475 JUMP JUMPDEST PUSH1 0x1F DUP2 GT PUSH2 0x3EF0 JUMPI JUMPDEST POP SWAP3 PUSH1 0x20 SWAP12 SWAP7 SWAP5 SWAP3 DUP11 SWAP3 DUP13 SWAP10 SWAP8 SWAP6 DUP5 SWAP1 PUSH1 0x1F DUP4 GT PUSH1 0x1 EQ PUSH2 0x3E44 JUMPI SWAP6 DUP16 PUSH2 0x3E0D SWAP14 PUSH2 0x1A32 DUP15 PUSH1 0x40 DUP11 DUP6 SWAP16 SWAP15 SWAP12 SWAP11 PUSH2 0x1A62 SWAP15 SWAP11 DUP11 DUP6 SWAP16 SWAP12 DUP7 SWAP12 DUP11 SWAP16 SWAP14 PUSH2 0x1A4A SWAP15 SWAP3 PUSH2 0x3E39 JUMPI JUMPDEST POP POP DUP2 PUSH1 0x1 SHL SWAP2 PUSH1 0x0 NOT SWAP1 PUSH1 0x3 SHL SHR NOT AND OR PUSH1 0x7 DUP4 ADD SSTORE JUMPDEST PUSH2 0x3D42 PUSH1 0xA4 CALLDATALOAD PUSH1 0x8 DUP5 ADD PUSH2 0x4917 JUMP JUMPDEST PUSH1 0xC4 CALLDATALOAD PUSH1 0x9 DUP4 ADD SSTORE PUSH1 0xE4 CALLDATALOAD PUSH1 0xB DUP4 ADD SSTORE PUSH2 0x2710 PUSH2 0x3D64 PUSH2 0x104 CALLDATALOAD PUSH1 0xC4 CALLDATALOAD PUSH2 0x4A41 JUMP JUMPDEST DIV PUSH1 0xD DUP4 ADD SSTORE PUSH2 0x124 CALLDATALOAD PUSH1 0xE DUP4 ADD SSTORE PUSH2 0x124 CALLDATALOAD PUSH1 0xF DUP4 ADD SSTORE PUSH1 0x12 DUP3 ADD PUSH2 0x3D8D PUSH2 0x144 CALLDATALOAD DUP3 PUSH2 0x492F JUMP JUMPDEST PUSH2 0x3D9A PUSH2 0x164 CALLDATALOAD DUP3 PUSH2 0x4939 JUMP JUMPDEST PUSH2 0x3DA7 PUSH2 0x184 CALLDATALOAD DUP3 PUSH2 0x494F JUMP JUMPDEST PUSH2 0x1A4 CALLDATALOAD PUSH1 0x13 DUP5 ADD SSTORE PUSH2 0x3DCA PUSH1 0x15 DUP5 ADD SWAP3 DUP4 SWAP1 PUSH1 0xFF DUP1 NOT DUP4 SLOAD AND SWAP2 ISZERO ISZERO AND OR SWAP1 SSTORE JUMP JUMPDEST DUP1 SLOAD PUSH4 0xFF000000 NOT AND PUSH2 0x1E4 CALLDATALOAD PUSH1 0x18 SHL PUSH4 0xFF000000 AND OR SWAP1 SSTORE PUSH2 0x3DF0 PUSH2 0x204 CALLDATALOAD DUP3 PUSH2 0x4967 JUMP JUMPDEST PUSH3 0xFF0000 NOT DUP2 SLOAD AND SWAP1 SSTORE PUSH1 0x16 TIMESTAMP SWAP2 ADD SSTORE CALLER DUP2 MSTORE PUSH1 0xB DUP7 MSTORE KECCAK256 PUSH2 0x4986 JUMP JUMPDEST PUSH1 0x40 MLOAD SWAP1 DUP2 MSTORE TIMESTAMP DUP4 DUP3 ADD MSTORE DUP2 PUSH1 0x0 DUP1 MLOAD PUSH1 0x20 PUSH2 0x4DD9 DUP4 CODECOPY DUP2 MLOAD SWAP2 MSTORE PUSH1 0x40 CALLER SWAP4 LOG3 PUSH1 0x1 DUP1 SSTORE PUSH1 0x40 MLOAD SWAP1 DUP2 MSTORE RETURN JUMPDEST ADD CALLDATALOAD SWAP1 POP CODESIZE DUP1 PUSH2 0x3D1B JUMP JUMPDEST SWAP12 SWAP5 SWAP4 SWAP3 SWAP2 SWAP1 PUSH1 0x7 DUP5 ADD DUP6 MSTORE DUP16 DUP6 KECCAK256 SWAP1 DUP6 JUMPDEST PUSH1 0x1F NOT DUP5 AND DUP2 LT PUSH2 0x3EBE JUMPI POP PUSH1 0x20 SWAP11 SWAP10 SWAP7 PUSH2 0x1A32 PUSH2 0x3E0D SWAP16 DUP16 SWAP11 SWAP5 DUP15 SWAP10 PUSH2 0x1A62 SWAP14 SWAP10 PUSH2 0x1A4A SWAP10 PUSH1 0x1 DUP16 SWAP11 PUSH1 0x40 SWAP6 DUP16 SWAP11 SWAP8 DUP14 SWAP9 DUP4 PUSH1 0x1F NOT DUP2 AND LT PUSH2 0x3EA4 JUMPI JUMPDEST POP POP POP DUP2 SHL ADD PUSH1 0x7 DUP4 ADD SSTORE PUSH2 0x3D33 JUMP JUMPDEST ADD CALLDATALOAD PUSH1 0x0 NOT PUSH1 0x3 DUP5 SWAP1 SHL PUSH1 0xF8 AND SHR NOT AND SWAP1 SSTORE CODESIZE DUP1 DUP1 PUSH2 0x3E94 JUMP JUMPDEST SWAP3 SWAP6 POP SWAP4 SWAP7 SWAP9 SWAP11 SWAP13 SWAP3 SWAP6 SWAP8 SWAP10 SWAP12 POP DUP16 PUSH1 0x1 DUP2 SWAP3 DUP7 DUP7 ADD CALLDATALOAD DUP2 SSTORE ADD SWAP5 ADD SWAP2 ADD SWAP3 DUP14 SWAP5 SWAP2 DUP16 SWAP13 SWAP11 SWAP9 SWAP7 SWAP4 SWAP14 SWAP12 SWAP10 SWAP8 SWAP5 PUSH2 0x3E56 JUMP JUMPDEST PUSH1 0x7 DUP6 ADD DUP12 MSTORE PUSH1 0x20 DUP12 KECCAK256 PUSH1 0x1F DUP5 ADD PUSH1 0x5 SHR DUP2 ADD PUSH1 0x20 DUP6 LT PUSH2 0x3F2E JUMPI JUMPDEST PUSH1 0x1F DUP4 ADD PUSH1 0x5 SHR DUP3 ADD DUP2 LT PUSH2 0x3F22 JUMPI POP POP PUSH2 0x3CD6 JUMP JUMPDEST PUSH1 0x0 DUP2 SSTORE PUSH1 0x1 ADD PUSH2 0x3F0C JUMP JUMPDEST POP DUP1 PUSH2 0x3F0C JUMP JUMPDEST PUSH4 0x4E487B71 PUSH1 0xE0 SHL DUP11 MSTORE PUSH1 0x41 PUSH1 0x4 MSTORE PUSH1 0x24 DUP11 REVERT JUMPDEST SWAP1 POP DUP10 ADD CALLDATALOAD CODESIZE PUSH2 0x3C9B JUMP JUMPDEST PUSH1 0x6 DUP7 ADD DUP13 MSTORE PUSH1 0x20 DUP13 KECCAK256 SWAP2 POP DUP12 JUMPDEST DUP12 PUSH1 0x1F NOT DUP10 AND DUP3 LT PUSH2 0x3FA8 JUMPI POP POP DUP7 PUSH1 0x1F NOT DUP2 AND LT PUSH2 0x3F8E JUMPI JUMPDEST POP POP PUSH1 0x1 DUP6 DUP2 SHL ADD PUSH1 0x6 DUP6 ADD SSTORE PUSH2 0x3CB2 JUMP JUMPDEST DUP11 ADD CALLDATALOAD PUSH1 0x0 NOT PUSH1 0x3 DUP9 SWAP1 SHL PUSH1 0xF8 AND SHR NOT AND SWAP1 SSTORE CODESIZE DUP1 PUSH2 0x3F7C JUMP JUMPDEST PUSH1 0x1 DUP4 SWAP5 PUSH1 0x20 SWAP4 SWAP5 DUP5 SWAP4 ADD CALLDATALOAD DUP2 SSTORE ADD SWAP4 ADD SWAP2 ADD PUSH2 0x3F62 JUMP JUMPDEST PUSH1 0x6 DUP6 ADD DUP12 MSTORE PUSH1 0x20 DUP12 KECCAK256 PUSH1 0x1F DUP8 ADD PUSH1 0x5 SHR DUP2 ADD PUSH1 0x20 DUP9 LT PUSH2 0x3FFE JUMPI JUMPDEST PUSH1 0x1F DUP4 ADD PUSH1 0x5 SHR DUP3 ADD DUP2 LT PUSH2 0x3FF2 JUMPI POP POP PUSH2 0x3C86 JUMP JUMPDEST PUSH1 0x0 DUP2 SSTORE PUSH1 0x1 ADD PUSH2 0x3FDC JUMP JUMPDEST POP DUP1 PUSH2 0x3FDC JUMP JUMPDEST SWAP1 POP DUP7 ADD CALLDATALOAD CODESIZE PUSH2 0x3C4B JUMP JUMPDEST PUSH1 0x5 DUP7 ADD DUP13 MSTORE PUSH1 0x20 DUP13 KECCAK256 SWAP2 POP DUP12 JUMPDEST PUSH1 0x1F NOT DUP11 AND DUP2 LT PUSH2 0x4062 JUMPI POP DUP9 PUSH1 0x1F NOT DUP2 AND LT PUSH2 0x4048 JUMPI JUMPDEST POP POP PUSH1 0x1 DUP8 DUP2 SHL ADD PUSH1 0x5 DUP6 ADD SSTORE PUSH2 0x3C62 JUMP JUMPDEST DUP8 ADD CALLDATALOAD PUSH1 0x0 NOT PUSH1 0x3 DUP11 SWAP1 SHL PUSH1 0xF8 AND SHR NOT AND SWAP1 SSTORE CODESIZE DUP1 PUSH2 0x4036 JUMP JUMPDEST SWAP1 SWAP2 PUSH1 0x20 PUSH1 0x1 DUP2 SWAP3 DUP6 DUP13 ADD CALLDATALOAD DUP2 SSTORE ADD SWAP4 ADD SWAP2 ADD PUSH2 0x401E JUMP JUMPDEST PUSH1 0x5 DUP6 ADD DUP12 MSTORE PUSH1 0x20 DUP12 KECCAK256 PUSH1 0x1F DUP10 ADD PUSH1 0x5 SHR DUP2 ADD PUSH1 0x20 DUP11 LT PUSH2 0x40B8 JUMPI JUMPDEST PUSH1 0x1F DUP4 ADD PUSH1 0x5 SHR DUP3 ADD DUP2 LT PUSH2 0x40AC JUMPI POP POP PUSH2 0x3C36 JUMP JUMPDEST PUSH1 0x0 DUP2 SSTORE PUSH1 0x1 ADD PUSH2 0x4096 JUMP JUMPDEST POP DUP1 PUSH2 0x4096 JUMP JUMPDEST SWAP1 POP DUP9 ADD CALLDATALOAD CODESIZE PUSH2 0x3BFA JUMP JUMPDEST PUSH1 0x4 DUP7 ADD DUP13 MSTORE PUSH1 0x20 DUP13 KECCAK256 SWAP2 POP DUP12 DUP15 JUMPDEST DUP12 PUSH1 0x1F NOT DUP3 AND DUP4 LT PUSH2 0x411F JUMPI POP PUSH1 0x1F NOT DUP2 AND LT SWAP1 POP PUSH2 0x4105 JUMPI JUMPDEST POP POP PUSH1 0x1 DUP13 DUP2 SHL ADD PUSH1 0x4 DUP6 ADD SSTORE PUSH2 0x3C12 JUMP JUMPDEST DUP10 ADD CALLDATALOAD PUSH1 0x0 NOT PUSH1 0x3 DUP16 SWAP1 SHL PUSH1 0xF8 AND SHR NOT AND SWAP1 SSTORE CODESIZE DUP1 PUSH2 0x40F3 JUMP JUMPDEST PUSH1 0x1 DUP5 SWAP6 PUSH1 0x20 SWAP4 SWAP5 SWAP6 DUP5 SWAP4 ADD CALLDATALOAD DUP2 SSTORE ADD SWAP5 ADD SWAP3 ADD SWAP1 PUSH2 0x40D9 JUMP JUMPDEST PUSH1 0x4 DUP6 ADD DUP12 MSTORE PUSH1 0x20 DUP12 KECCAK256 DUP14 PUSH1 0x20 PUSH1 0x1F DUP3 ADD PUSH1 0x5 SHR DUP4 ADD SWAP2 LT PUSH2 0x4178 JUMPI JUMPDEST PUSH1 0x1F DUP4 ADD PUSH1 0x5 SHR DUP3 ADD DUP2 LT PUSH2 0x416C JUMPI POP POP PUSH2 0x3BE5 JUMP JUMPDEST PUSH1 0x0 DUP2 SSTORE PUSH1 0x1 ADD PUSH2 0x4156 JUMP JUMPDEST POP DUP1 PUSH2 0x4156 JUMP JUMPDEST ADD CALLDATALOAD SWAP1 POP CODESIZE DUP1 PUSH2 0x3BA9 JUMP JUMPDEST PUSH1 0x3 DUP9 ADD DUP15 MSTORE PUSH1 0x20 DUP15 KECCAK256 DUP15 SWAP5 POP SWAP2 JUMPDEST PUSH1 0x1F NOT DUP5 AND DUP6 LT PUSH2 0x41DE JUMPI PUSH1 0x1 SWAP5 POP DUP4 PUSH1 0x1F NOT DUP2 AND LT PUSH2 0x41C4 JUMPI JUMPDEST POP POP POP DUP2 SHL ADD PUSH1 0x3 DUP6 ADD SSTORE PUSH2 0x3BC1 JUMP JUMPDEST ADD CALLDATALOAD PUSH1 0x0 NOT PUSH1 0x3 DUP5 SWAP1 SHL PUSH1 0xF8 AND SHR NOT AND SWAP1 SSTORE CODESIZE DUP1 DUP1 PUSH2 0x41B4 JUMP JUMPDEST DUP2 DUP2 ADD CALLDATALOAD DUP4 SSTORE PUSH1 0x20 SWAP5 DUP6 ADD SWAP5 PUSH1 0x1 SWAP1 SWAP4 ADD SWAP3 ADD PUSH2 0x4199 JUMP JUMPDEST SWAP1 SWAP2 POP PUSH1 0x3 DUP8 ADD DUP14 MSTORE PUSH1 0x20 DUP14 KECCAK256 PUSH1 0x1F DUP5 ADD PUSH1 0x5 SHR DUP2 ADD PUSH1 0x20 DUP6 LT PUSH2 0x4240 JUMPI JUMPDEST SWAP1 DUP5 SWAP4 SWAP3 SWAP2 JUMPDEST PUSH1 0x1F DUP4 ADD PUSH1 0x5 SHR DUP3 ADD DUP2 LT PUSH2 0x4231 JUMPI POP POP PUSH2 0x3B94 JUMP JUMPDEST PUSH1 0x0 DUP2 SSTORE DUP6 SWAP5 POP PUSH1 0x1 ADD PUSH2 0x421B JUMP JUMPDEST POP DUP1 PUSH2 0x4215 JUMP JUMPDEST PUSH4 0x4E487B71 PUSH1 0xE0 SHL DUP13 MSTORE PUSH1 0x41 PUSH1 0x4 MSTORE PUSH1 0x24 DUP13 REVERT JUMPDEST PUSH2 0x4264 SWAP1 PUSH2 0x4545 JUMP JUMPDEST PUSH2 0x1F59 JUMPI DUP10 CODESIZE PUSH2 0x3B38 JUMP JUMPDEST PUSH1 0x40 MLOAD RETURNDATASIZE DUP14 DUP3 RETURNDATACOPY RETURNDATASIZE SWAP1 REVERT JUMPDEST DUP12 DUP1 REVERT JUMPDEST PUSH2 0x428A SWAP1 SWAP11 SWAP2 SWAP11 PUSH2 0x4545 JUMP JUMPDEST SWAP9 CODESIZE PUSH2 0x3AE2 JUMP JUMPDEST DUP13 DUP1 REVERT JUMPDEST SWAP1 SWAP3 POP PUSH1 0x20 DUP2 RETURNDATASIZE PUSH1 0x20 GT PUSH2 0x42C1 JUMPI JUMPDEST DUP2 PUSH2 0x42B1 PUSH1 0x20 SWAP4 DUP4 PUSH2 0x45A6 JUMP JUMPDEST DUP2 ADD SUB SLT PUSH2 0x4291 JUMPI MLOAD SWAP2 CODESIZE PUSH2 0x3AA6 JUMP JUMPDEST RETURNDATASIZE SWAP2 POP PUSH2 0x42A4 JUMP JUMPDEST PUSH1 0x40 MLOAD RETURNDATASIZE DUP16 DUP3 RETURNDATACOPY RETURNDATASIZE SWAP1 REVERT JUMPDEST DUP9 DUP1 REVERT JUMPDEST SWAP2 DUP2 PUSH1 0x1F DUP5 ADD SLT ISZERO PUSH2 0x1F41 JUMPI DUP3 CALLDATALOAD SWAP2 PUSH1 0x1 PUSH1 0x1 PUSH1 0x40 SHL SUB DUP4 GT PUSH2 0x1F41 JUMPI PUSH1 0x20 DUP4 DUP2 DUP7 ADD SWAP6 ADD ADD GT PUSH2 0x1F41 JUMPI JUMP JUMPDEST PUSH2 0x1C4 CALLDATALOAD SWAP1 DUP2 ISZERO ISZERO DUP3 SUB PUSH2 0x1F41 JUMPI JUMP JUMPDEST PUSH1 0x40 SWAP1 PUSH1 0x3 NOT ADD SLT PUSH2 0x1F41 JUMPI PUSH1 0x4 CALLDATALOAD SWAP1 PUSH1 0x24 CALLDATALOAD SWAP1 JUMP JUMPDEST PUSH1 0x4 CALLDATALOAD SWAP1 PUSH1 0x1 PUSH1 0x1 PUSH1 0xA0 SHL SUB DUP3 AND DUP3 SUB PUSH2 0x1F41 JUMPI JUMP JUMPDEST PUSH1 0x24 CALLDATALOAD SWAP1 PUSH1 0x1 PUSH1 0x1 PUSH1 0xA0 SHL SUB DUP3 AND DUP3 SUB PUSH2 0x1F41 JUMPI JUMP JUMPDEST DUP1 SLOAD DUP3 LT ISZERO PUSH2 0x436F JUMPI PUSH1 0x0 MSTORE PUSH1 0x20 PUSH1 0x0 KECCAK256 ADD SWAP1 PUSH1 0x0 SWAP1 JUMP JUMPDEST PUSH4 0x4E487B71 PUSH1 0xE0 SHL PUSH1 0x0 MSTORE PUSH1 0x32 PUSH1 0x4 MSTORE PUSH1 0x24 PUSH1 0x0 REVERT JUMPDEST PUSH1 0x20 SWAP1 DUP2 PUSH1 0x40 DUP2 DUP4 ADD SWAP3 DUP3 DUP2 MSTORE DUP6 MLOAD DUP1 SWAP5 MSTORE ADD SWAP4 ADD SWAP2 PUSH1 0x0 JUMPDEST DUP3 DUP2 LT PUSH2 0x43AC JUMPI POP POP POP POP SWAP1 JUMP JUMPDEST DUP4 MLOAD DUP6 MSTORE SWAP4 DUP2 ADD SWAP4 SWAP3 DUP2 ADD SWAP3 PUSH1 0x1 ADD PUSH2 0x439E JUMP JUMPDEST PUSH1 0x3 GT ISZERO PUSH2 0x43CA JUMPI JUMP JUMPDEST PUSH4 0x4E487B71 PUSH1 0xE0 SHL PUSH1 0x0 MSTORE PUSH1 0x21 PUSH1 0x4 MSTORE PUSH1 0x24 PUSH1 0x0 REVERT JUMPDEST PUSH1 0x4 GT ISZERO PUSH2 0x43CA JUMPI JUMP JUMPDEST SWAP12 SWAP10 SWAP8 SWAP6 SWAP4 SWAP2 SWAP15 SWAP14 SWAP13 SWAP11 SWAP9 SWAP7 SWAP5 SWAP3 SWAP1 SWAP15 PUSH2 0x1C0 DUP14 ADD SWAP16 DUP14 MSTORE PUSH1 0x20 DUP14 ADD MSTORE PUSH1 0x1 PUSH1 0xA0 SHL PUSH1 0x1 SWAP1 SUB AND PUSH1 0x40 DUP13 ADD MSTORE PUSH2 0x441F DUP2 PUSH2 0x43C0 JUMP JUMPDEST PUSH1 0x60 DUP12 ADD MSTORE PUSH1 0x80 DUP11 ADD MSTORE PUSH1 0xA0 DUP10 ADD MSTORE PUSH1 0xC0 DUP9 ADD MSTORE PUSH1 0xE0 DUP8 ADD MSTORE PUSH2 0x4441 DUP2 PUSH2 0x43C0 JUMP JUMPDEST PUSH2 0x100 DUP7 ADD MSTORE PUSH1 0xFF AND PUSH2 0x120 DUP6 ADD MSTORE PUSH1 0xFF AND PUSH2 0x140 DUP5 ADD MSTORE PUSH2 0x160 DUP4 ADD MSTORE PUSH2 0x180 DUP3 ADD MSTORE PUSH2 0x446E DUP3 PUSH2 0x43E0 JUMP JUMPDEST PUSH2 0x1A0 ADD MSTORE JUMP JUMPDEST SWAP1 PUSH1 0x1 DUP3 DUP2 SHR SWAP3 AND DUP1 ISZERO PUSH2 0x44A5 JUMPI JUMPDEST PUSH1 0x20 DUP4 LT EQ PUSH2 0x448F JUMPI JUMP JUMPDEST PUSH4 0x4E487B71 PUSH1 0xE0 SHL PUSH1 0x0 MSTORE PUSH1 0x22 PUSH1 0x4 MSTORE PUSH1 0x24 PUSH1 0x0 REVERT JUMPDEST SWAP2 PUSH1 0x7F AND SWAP2 PUSH2 0x4484 JUMP JUMPDEST SWAP1 PUSH1 0x0 SWAP3 SWAP2 DUP1 SLOAD SWAP2 PUSH2 0x44C0 DUP4 PUSH2 0x4475 JUMP JUMPDEST SWAP2 DUP3 DUP3 MSTORE PUSH1 0x1 SWAP4 DUP5 DUP2 AND SWAP1 DUP2 PUSH1 0x0 EQ PUSH2 0x4522 JUMPI POP PUSH1 0x1 EQ PUSH2 0x44E2 JUMPI JUMPDEST POP POP POP POP JUMP JUMPDEST SWAP1 SWAP2 SWAP4 SWAP5 POP PUSH1 0x0 MSTORE PUSH1 0x20 SWAP3 DUP4 PUSH1 0x0 KECCAK256 SWAP3 DUP5 PUSH1 0x0 SWAP5 JUMPDEST DUP4 DUP7 LT PUSH2 0x450E JUMPI POP POP POP POP ADD ADD SWAP1 CODESIZE DUP1 DUP1 DUP1 PUSH2 0x44DC JUMP JUMPDEST DUP1 SLOAD DUP6 DUP8 ADD DUP4 ADD MSTORE SWAP5 ADD SWAP4 DUP6 SWAP1 DUP3 ADD PUSH2 0x44F7 JUMP JUMPDEST SWAP3 SWAP5 POP POP POP PUSH1 0x20 SWAP4 SWAP5 POP PUSH1 0xFF NOT AND DUP4 DUP4 ADD MSTORE ISZERO ISZERO PUSH1 0x5 SHL ADD ADD SWAP1 CODESIZE DUP1 DUP1 DUP1 PUSH2 0x44DC JUMP JUMPDEST PUSH1 0x1 PUSH1 0x1 PUSH1 0x40 SHL SUB DUP2 GT PUSH2 0x4558 JUMPI PUSH1 0x40 MSTORE JUMP JUMPDEST PUSH4 0x4E487B71 PUSH1 0xE0 SHL PUSH1 0x0 MSTORE PUSH1 0x41 PUSH1 0x4 MSTORE PUSH1 0x24 PUSH1 0x0 REVERT JUMPDEST PUSH2 0x1C0 DUP2 ADD SWAP1 DUP2 LT PUSH1 0x1 PUSH1 0x1 PUSH1 0x40 SHL SUB DUP3 GT OR PUSH2 0x4558 JUMPI PUSH1 0x40 MSTORE JUMP JUMPDEST PUSH2 0x440 DUP2 ADD SWAP1 DUP2 LT PUSH1 0x1 PUSH1 0x1 PUSH1 0x40 SHL SUB DUP3 GT OR PUSH2 0x4558 JUMPI PUSH1 0x40 MSTORE JUMP JUMPDEST PUSH1 0x1F SWAP1 SWAP2 ADD PUSH1 0x1F NOT AND DUP2 ADD SWAP1 PUSH1 0x1 PUSH1 0x1 PUSH1 0x40 SHL SUB DUP3 GT SWAP1 DUP3 LT OR PUSH2 0x4558 JUMPI PUSH1 0x40 MSTORE JUMP JUMPDEST SWAP2 SWAP1 DUP3 MLOAD SWAP3 DUP4 DUP3 MSTORE PUSH1 0x0 JUMPDEST DUP5 DUP2 LT PUSH2 0x45F5 JUMPI POP POP DUP3 PUSH1 0x0 PUSH1 0x20 DUP1 SWAP5 SWAP6 DUP5 ADD ADD MSTORE PUSH1 0x1F DUP1 NOT SWAP2 ADD AND ADD ADD SWAP1 JUMP JUMPDEST PUSH1 0x20 DUP2 DUP4 ADD DUP2 ADD MLOAD DUP5 DUP4 ADD DUP3 ADD MSTORE ADD PUSH2 0x45D4 JUMP JUMPDEST PUSH1 0x2 GT ISZERO PUSH2 0x43CA JUMPI JUMP JUMPDEST SWAP1 PUSH1 0xB DUP3 LT ISZERO PUSH2 0x43CA JUMPI MSTORE JUMP JUMPDEST DUP1 SLOAD DUP3 LT ISZERO PUSH2 0x436F JUMPI PUSH1 0x0 MSTORE PUSH1 0xB PUSH1 0x20 PUSH1 0x0 KECCAK256 SWAP2 MUL ADD SWAP1 PUSH1 0x0 SWAP1 JUMP JUMPDEST CALLER PUSH1 0x0 SWAP1 DUP2 MSTORE PUSH32 0xDD53DF7E4642F4E3D9DEDEDDAC02355F2E876E2A9B7EF4E260AF8D6FD7B33257 PUSH1 0x20 MSTORE PUSH1 0x40 SWAP1 KECCAK256 SLOAD PUSH1 0x0 DUP1 MLOAD PUSH1 0x20 PUSH2 0x4D39 DUP4 CODECOPY DUP2 MLOAD SWAP2 MSTORE SWAP1 PUSH1 0xFF AND ISZERO PUSH2 0x4686 JUMPI POP JUMP JUMPDEST PUSH1 0x44 SWAP1 PUSH1 0x40 MLOAD SWAP1 PUSH4 0xE2517D3F PUSH1 0xE0 SHL DUP3 MSTORE CALLER PUSH1 0x4 DUP4 ADD MSTORE PUSH1 0x24 DUP3 ADD MSTORE REVERT JUMPDEST CALLER PUSH1 0x0 SWAP1 DUP2 MSTORE PUSH32 0xAD3228B676F7D3CD4284A5443F17F1962B36E491B30A40B2405849E597BA5FB5 PUSH1 0x20 MSTORE PUSH1 0x40 DUP2 KECCAK256 SLOAD PUSH1 0xFF AND ISZERO PUSH2 0x4686 JUMPI POP JUMP JUMPDEST DUP1 PUSH1 0x0 MSTORE PUSH1 0x0 PUSH1 0x20 MSTORE PUSH1 0x40 PUSH1 0x0 KECCAK256 CALLER PUSH1 0x0 MSTORE PUSH1 0x20 MSTORE PUSH1 0xFF PUSH1 0x40 PUSH1 0x0 KECCAK256 SLOAD AND ISZERO PUSH2 0x4686 JUMPI POP JUMP JUMPDEST SWAP1 PUSH1 0x0 SWAP2 DUP1 DUP4 MSTORE DUP3 PUSH1 0x20 MSTORE PUSH1 0x40 DUP4 KECCAK256 SWAP2 PUSH1 0x1 DUP1 PUSH1 0xA0 SHL SUB AND SWAP2 DUP3 DUP5 MSTORE PUSH1 0x20 MSTORE PUSH1 0xFF PUSH1 0x40 DUP5 KECCAK256 SLOAD AND ISZERO PUSH1 0x0 EQ PUSH2 0x477D JUMPI DUP1 DUP4 MSTORE DUP3 PUSH1 0x20 MSTORE PUSH1 0x40 DUP4 KECCAK256 DUP3 DUP5 MSTORE PUSH1 0x20 MSTORE PUSH1 0x40 DUP4 KECCAK256 PUSH1 0x1 PUSH1 0xFF NOT DUP3 SLOAD AND OR SWAP1 SSTORE PUSH32 0x2F8788117E7EFF1D82E926EC794901D17C78024A50270940304540A733656F0D CALLER SWAP4 DUP1 LOG4 PUSH1 0x1 SWAP1 JUMP JUMPDEST POP POP SWAP1 JUMP JUMPDEST SWAP1 PUSH1 0x0 SWAP2 DUP1 DUP4 MSTORE DUP3 PUSH1 0x20 MSTORE PUSH1 0x40 DUP4 KECCAK256 SWAP2 PUSH1 0x1 DUP1 PUSH1 0xA0 SHL SUB AND SWAP2 DUP3 DUP5 MSTORE PUSH1 0x20 MSTORE PUSH1 0xFF PUSH1 0x40 DUP5 KECCAK256 SLOAD AND PUSH1 0x0 EQ PUSH2 0x477D JUMPI DUP1 DUP4 MSTORE DUP3 PUSH1 0x20 MSTORE PUSH1 0x40 DUP4 KECCAK256 DUP3 DUP5 MSTORE PUSH1 0x20 MSTORE PUSH1 0x40 DUP4 KECCAK256 PUSH1 0xFF NOT DUP2 SLOAD AND SWAP1 SSTORE PUSH32 0xF6391F5C32D9C69D2A47EA670B442974B53935D1EDC7FD64EB21E047A839171B CALLER SWAP4 DUP1 LOG4 PUSH1 0x1 SWAP1 JUMP JUMPDEST ISZERO PUSH2 0x47FE JUMPI JUMP JUMPDEST PUSH1 0x40 MLOAD PUSH3 0x461BCD PUSH1 0xE5 SHL DUP2 MSTORE PUSH1 0x20 PUSH1 0x4 DUP3 ADD MSTORE PUSH1 0x26 PUSH1 0x24 DUP3 ADD MSTORE PUSH32 0x4F7074696F6E73436F72653A206E6F74696F6E616C206D75737420626520706F PUSH1 0x44 DUP3 ADD MSTORE PUSH6 0x736974697665 PUSH1 0xD0 SHL PUSH1 0x64 DUP3 ADD MSTORE PUSH1 0x84 SWAP1 REVERT JUMPDEST ISZERO PUSH2 0x4859 JUMPI JUMP JUMPDEST PUSH1 0x40 MLOAD PUSH3 0x461BCD PUSH1 0xE5 SHL DUP2 MSTORE PUSH1 0x20 PUSH1 0x4 DUP3 ADD MSTORE PUSH1 0x25 PUSH1 0x24 DUP3 ADD MSTORE PUSH32 0x4F7074696F6E73436F72653A20657870697279206D75737420626520696E2066 PUSH1 0x44 DUP3 ADD MSTORE PUSH5 0x7574757265 PUSH1 0xD8 SHL PUSH1 0x64 DUP3 ADD MSTORE PUSH1 0x84 SWAP1 REVERT JUMPDEST PUSH1 0x1 PUSH1 0x1 PUSH1 0xA0 SHL SUB SWAP2 DUP3 AND DUP2 MSTORE SWAP2 AND PUSH1 0x20 DUP3 ADD MSTORE PUSH1 0x40 DUP2 ADD SWAP2 SWAP1 SWAP2 MSTORE PUSH1 0x80 PUSH1 0x60 DUP3 ADD DUP2 SWAP1 MSTORE PUSH1 0xC SWAP1 DUP3 ADD MSTORE PUSH12 0x6372656174696F6E5F666565 PUSH1 0xA0 SHL PUSH1 0xA0 DUP3 ADD MSTORE PUSH1 0xC0 ADD SWAP1 JUMP JUMPDEST PUSH1 0x0 NOT DUP2 EQ PUSH2 0x4901 JUMPI PUSH1 0x1 ADD SWAP1 JUMP JUMPDEST PUSH4 0x4E487B71 PUSH1 0xE0 SHL PUSH1 0x0 MSTORE PUSH1 0x11 PUSH1 0x4 MSTORE PUSH1 0x24 PUSH1 0x0 REVERT JUMPDEST SWAP1 PUSH2 0x4921 DUP2 PUSH2 0x4609 JUMP JUMPDEST PUSH1 0xFF DUP1 NOT DUP4 SLOAD AND SWAP2 AND OR SWAP1 SSTORE JUMP JUMPDEST SWAP1 PUSH2 0x4921 DUP2 PUSH2 0x43C0 JUMP JUMPDEST SWAP1 PUSH2 0xFF00 DUP3 SLOAD SWAP2 PUSH1 0x8 SHL AND SWAP1 PUSH2 0xFF00 NOT AND OR SWAP1 SSTORE JUMP JUMPDEST SWAP1 PUSH3 0xFF0000 DUP3 SLOAD SWAP2 PUSH1 0x10 SHL AND SWAP1 PUSH3 0xFF0000 NOT AND OR SWAP1 SSTORE JUMP JUMPDEST SWAP1 PUSH2 0x4971 DUP2 PUSH2 0x4609 JUMP JUMPDEST PUSH2 0xFF00 DUP3 SLOAD SWAP2 PUSH1 0x8 SHL AND SWAP1 PUSH2 0xFF00 NOT AND OR SWAP1 SSTORE JUMP JUMPDEST DUP1 SLOAD PUSH1 0x1 PUSH1 0x40 SHL DUP2 LT ISZERO PUSH2 0x4558 JUMPI PUSH2 0x49A3 SWAP2 PUSH1 0x1 DUP3 ADD DUP2 SSTORE PUSH2 0x4357 JUMP JUMPDEST DUP2 SWAP3 SWAP2 SLOAD SWAP1 PUSH1 0x3 SHL SWAP2 DUP3 SHL SWAP2 PUSH1 0x0 NOT SWAP1 SHL NOT AND OR SWAP1 SSTORE JUMP JUMPDEST PUSH1 0xFF PUSH1 0x2 SLOAD AND PUSH2 0x49C7 JUMPI JUMP JUMPDEST PUSH1 0x40 MLOAD PUSH4 0xD93C0665 PUSH1 0xE0 SHL DUP2 MSTORE PUSH1 0x4 SWAP1 REVERT JUMPDEST PUSH1 0x2 PUSH1 0x1 SLOAD EQ PUSH2 0x49EA JUMPI PUSH1 0x2 PUSH1 0x1 SSTORE JUMP JUMPDEST PUSH1 0x40 MLOAD PUSH4 0x3EE5AEB5 PUSH1 0xE0 SHL DUP2 MSTORE PUSH1 0x4 SWAP1 REVERT JUMPDEST ISZERO PUSH2 0x4A03 JUMPI JUMP JUMPDEST PUSH1 0x40 MLOAD PUSH3 0x461BCD PUSH1 0xE5 SHL DUP2 MSTORE PUSH1 0x20 PUSH1 0x4 DUP3 ADD MSTORE PUSH1 0x16 PUSH1 0x24 DUP3 ADD MSTORE PUSH22 0x27B83A34B7B739A1B7B9329D103737BA10313ABCB2B9 PUSH1 0x51 SHL PUSH1 0x44 DUP3 ADD MSTORE PUSH1 0x64 SWAP1 REVERT JUMPDEST DUP2 DUP2 MUL SWAP3 SWAP2 DUP2 ISZERO SWAP2 DUP5 DIV EQ OR ISZERO PUSH2 0x4901 JUMPI JUMP JUMPDEST PUSH1 0x1 PUSH1 0x1 PUSH1 0xA0 SHL SUB SWAP2 DUP3 AND DUP2 MSTORE SWAP2 AND PUSH1 0x20 DUP3 ADD MSTORE PUSH1 0x40 DUP2 ADD SWAP2 SWAP1 SWAP2 MSTORE PUSH1 0x60 ADD SWAP1 JUMP JUMPDEST PUSH1 0x1 PUSH1 0x1 PUSH1 0xA0 SHL SUB SWAP2 DUP3 AND DUP2 MSTORE SWAP2 AND PUSH1 0x20 DUP3 ADD MSTORE PUSH1 0x40 DUP2 ADD SWAP2 SWAP1 SWAP2 MSTORE PUSH1 0x80 PUSH1 0x60 DUP3 ADD DUP2 SWAP1 MSTORE PUSH1 0xB SWAP1 DUP3 ADD MSTORE PUSH11 0x74726164696E675F666565 PUSH1 0xA8 SHL PUSH1 0xA0 DUP3 ADD MSTORE PUSH1 0xC0 ADD SWAP1 JUMP JUMPDEST ISZERO PUSH2 0x4AC2 JUMPI JUMP JUMPDEST PUSH1 0x40 MLOAD PUSH3 0x461BCD PUSH1 0xE5 SHL DUP2 MSTORE PUSH1 0x20 PUSH1 0x4 DUP3 ADD MSTORE PUSH1 0x1D PUSH1 0x24 DUP3 ADD MSTORE PUSH32 0x4F7074696F6E73436F72653A20696E76616C6964206F72646572206964000000 PUSH1 0x44 DUP3 ADD MSTORE PUSH1 0x64 SWAP1 REVERT JUMPDEST PUSH1 0xF DUP2 MSTORE PUSH15 0x189D5E595C8818D85B98D95B1B1959 PUSH1 0x8A SHL PUSH1 0x20 DUP3 ADD MSTORE PUSH1 0x40 ADD SWAP1 JUMP JUMPDEST SWAP2 SWAP1 DUP3 ADD DUP1 SWAP3 GT PUSH2 0x4901 JUMPI JUMP JUMPDEST PUSH1 0xB DUP2 MSTORE PUSH11 0x1C999C481D1A5B595BDD5D PUSH1 0xAA SHL PUSH1 0x20 DUP3 ADD MSTORE PUSH1 0x40 ADD SWAP1 JUMP JUMPDEST SWAP1 PUSH1 0x0 SWAP2 DUP3 MSTORE PUSH1 0x8 PUSH1 0x20 MSTORE PUSH1 0x40 DUP1 DUP4 KECCAK256 DUP4 JUMPDEST DUP2 SLOAD DUP2 LT ISZERO PUSH2 0x4C41 JUMPI PUSH2 0x4B79 DUP2 DUP4 PUSH2 0x4620 JUMP JUMPDEST POP DUP6 PUSH1 0xA DUP3 ADD SWAP2 DUP3 SLOAD SWAP3 PUSH1 0xFF DUP5 AND PUSH2 0x4B90 DUP2 PUSH2 0x43E0 JUMP JUMPDEST ISZERO DUP1 PUSH2 0x4C34 JUMPI JUMPDEST PUSH2 0x4BAE JUMPI JUMPDEST POP POP POP POP PUSH2 0x4BA9 SWAP1 PUSH2 0x48F2 JUMP JUMPDEST PUSH2 0x4B66 JUMP JUMPDEST PUSH1 0x3 DUP1 SWAP5 PUSH1 0xFF NOT AND OR SWAP1 SSTORE PUSH1 0x1 DUP1 PUSH1 0xA0 SHL SUB DUP1 SWAP4 SLOAD AND DUP4 PUSH1 0x2 DUP4 ADD SLOAD AND PUSH1 0x6 PUSH1 0x4 SWAP6 DUP7 SLOAD AND SWAP4 ADD SLOAD SWAP5 DUP3 EXTCODESIZE ISZERO PUSH2 0x29C4 JUMPI DUP5 SWAP1 PUSH2 0x4BFD DUP11 MLOAD SWAP8 DUP9 SWAP7 DUP8 SWAP6 DUP7 SWAP5 PUSH4 0x6924FAA7 PUSH1 0xE1 SHL DUP7 MSTORE DUP6 ADD PUSH2 0x4A54 JUMP JUMPDEST SUB SWAP3 GAS CALL DUP1 ISZERO PUSH2 0x4C2A JUMPI SWAP1 PUSH2 0x4BA9 SWAP3 SWAP2 PUSH2 0x4C1B JUMPI JUMPDEST DUP2 SWAP3 DUP8 SWAP2 PUSH2 0x4B9C JUMP JUMPDEST PUSH2 0x4C24 SWAP1 PUSH2 0x4545 JUMP JUMPDEST CODESIZE PUSH2 0x4C12 JUMP JUMPDEST DUP5 MLOAD RETURNDATASIZE DUP9 DUP3 RETURNDATACOPY RETURNDATASIZE SWAP1 REVERT JUMPDEST POP PUSH1 0x6 DUP3 ADD SLOAD ISZERO ISZERO PUSH2 0x4B97 JUMP JUMPDEST POP POP POP SWAP1 POP JUMP JUMPDEST PUSH1 0xA PUSH2 0x1A0 SWAP2 DUP4 MLOAD DUP2 SSTORE PUSH1 0x20 DUP5 ADD MLOAD PUSH1 0x1 DUP3 ADD SSTORE PUSH1 0x2 DUP2 ADD PUSH1 0x1 DUP1 PUSH1 0xA0 SHL SUB PUSH1 0x40 DUP7 ADD MLOAD AND DUP2 SLOAD SWAP1 PUSH1 0x60 DUP8 ADD MLOAD PUSH2 0x4C7E DUP2 PUSH2 0x43C0 JUMP JUMPDEST PUSH2 0x4C87 DUP2 PUSH2 0x43C0 JUMP JUMPDEST PUSH1 0x1 PUSH1 0x1 PUSH1 0xA8 SHL SUB NOT SWAP1 SWAP3 AND OR PUSH1 0xA0 SWAP2 DUP3 SHL PUSH1 0xFF PUSH1 0xA0 SHL AND OR SWAP1 SWAP2 SSTORE PUSH1 0x80 DUP6 ADD MLOAD PUSH1 0x3 DUP4 ADD SSTORE DUP5 ADD MLOAD PUSH1 0x4 DUP3 ADD SSTORE PUSH1 0xC0 DUP5 ADD MLOAD PUSH1 0x5 DUP3 ADD SSTORE PUSH1 0xE0 DUP5 ADD MLOAD PUSH1 0x6 DUP3 ADD SSTORE PUSH2 0x100 DUP5 ADD MLOAD PUSH2 0x4D0C SWAP1 PUSH1 0x7 DUP4 ADD SWAP1 PUSH2 0x4CEB SWAP1 PUSH2 0x4CE5 DUP2 PUSH2 0x43C0 JUMP JUMPDEST DUP3 PUSH2 0x492F JUMP JUMPDEST PUSH2 0x4CFD PUSH1 0xFF PUSH2 0x120 DUP9 ADD MLOAD AND DUP3 PUSH2 0x4939 JUMP JUMPDEST PUSH1 0xFF PUSH2 0x140 DUP8 ADD MLOAD AND SWAP1 PUSH2 0x494F JUMP JUMPDEST PUSH2 0x160 DUP5 ADD MLOAD PUSH1 0x8 DUP3 ADD SSTORE PUSH2 0x180 DUP5 ADD MLOAD PUSH1 0x9 DUP3 ADD SSTORE ADD SWAP2 ADD MLOAD PUSH2 0x4D2F DUP2 PUSH2 0x43E0 JUMP JUMPDEST PUSH2 0x4921 DUP2 PUSH2 0x43E0 JUMP INVALID ADDRESS 0xF SWAP11 0xE9 DUP6 0xDC PUSH18 0x1960F7A4D1DD013F9C19ECF40BFF149522AB PUSH22 0x23B2187A3846CE74058472262D5DB42B1CA04D78E999 0xD2 0xDD MSTORE EXTCODESIZE 0xDF DUP12 CALLER KECCAK256 0x2E MOD 0xCC 0xA9 SELFBALANCE 0xB3 SHL 0xBE 0xB8 BASEFEE 0xA6 0x2E 0xF7 OR LT NOT 0xD2 NUMBER 0xED DUP16 JUMPDEST DUP15 0x1E PUSH13 0x32CAFED0B7FC99DA26CB2FC2E7 0xD5 CALLER 0xEC DIV SWAP7 PUSH32 0xD25E7AA667B18955D808F19FD0C86238999FF8BE2EBC72CD2CD3A83DB0CE3A31 0xBA 0xF9 SWAP6 PUSH15 0x86200EE7044A75C2BEFBD05091279 DUP12 PUSH28 0xCD25D05831AB9592C0C6ED2669FEBBE340D8737E8EC17254FFD9E038 0xB5 0x4A GASLIMIT DUP6 SELFDESTRUCT PUSH17 0xAC3CA18956AA3D7463B72B52FAFC8E3F27 0xDC 0xD 0xBB SWAP14 BYTE SWAP5 0xC0 LOG4 MUL BASEFEE CALLVALUE 0x25 0x2B 0x5C 0xCE PUSH9 0x509ACB49BCA2646970 PUSH7 0x7358221220532A PUSH21 0x1457E81D607A7240084F211CC341B84248E5A12EF0 CALLCODE 0xEB SWAP3 PUSH28 0xF84235864736F6C6343000814003300000000000000000000000000 "},"methodIdentifiers":{"DEFAULT_ADMIN_ROLE()":"a217fddf","FEED_PROTOCOL_ROLE()":"cdc65ab6","SETTLEMENT_ROLE()":"ba9cf01d","acceptQuote(uint256)":"5d7ffe7b","acceptSellerOrder(uint256)":"67ac0bf0","buyerOrders(address,uint256)":"4500cb60","cancelRFQ(uint256)":"bc0ef26b","cancelRFQDueToTimeout(uint256)":"3ab3784a","config()":"79502c55","createBuyerRFQ(string,string,string,string,string,uint8,uint256,uint256,uint256,uint256,uint8,address,uint256,uint256,bool,uint8,uint8,uint8,uint8)":"979b4e6d","createSellerOrder(string,string,string,string,string,uint8,uint256,uint256,uint256,uint256,uint8,uint8,uint8,uint256,bool,uint8,uint8)":"01d0d5b8","getBuyerOrders(address)":"a45f2ebc","getOrder(uint256)":"d09ef241","getOrdersByCountry(string)":"cf3fec43","getOrdersByMarket(string)":"7d900421","getQuotes(uint256)":"d049bfef","getRoleAdmin(bytes32)":"248a9ca3","getSellerOrders(address)":"e4cbac40","grantRole(bytes32,address)":"2f2ff15d","hasRole(bytes32,address)":"91d14854","nextOrderId()":"2a58b330","nextQuoteId()":"4efef6aa","orderQuotes(uint256,uint256)":"f7ff6426","orders(uint256)":"a85c38ef","pause()":"8456cb59","paused()":"5c975abb","processFeedCallback(uint256,uint8,uint256)":"3087a88c","processFinalFeedResult(uint256,uint256)":"42dd6d3e","processInitialFeedResult(uint256,uint256)":"e02e34f8","quotes(uint256)":"a61cf0d4","renounceRole(bytes32,address)":"36568abe","requestFeed(uint256,uint8)":"6dbe7579","revokeRole(bytes32,address)":"d547741f","sellerOrders(address,uint256)":"45cb4505","setConfig(address)":"20e3dbd4","setVaultManager(address)":"b543503e","submitQuote(uint256,uint256,uint256,uint8,uint8,uint8)":"7203a582","supportsInterface(bytes4)":"01ffc9a7","unpause()":"3f4ba83a","updateOrderDividend(uint256,uint256)":"44f1eaae","updateOrderMargin(uint256,uint256)":"1c0dd7e8","updateOrderMarginCallDeadline(uint256,uint256)":"d37e527b","updateOrderPrice(uint256,uint256)":"5e9e78d0","updateOrderSettledAt(uint256,uint256)":"15d92e33","updateOrderStatus(uint256,uint8)":"aab3196d","updateOrderStrikePrice(uint256,uint256)":"d426aec1","usdt()":"2f48ab7d","vaultManager()":"8a4adf24"}}}}}