{"contracts/vault/VaultManager.sol":{"VaultManager":{"abi":[{"inputs":[{"internalType":"address","name":"_config","type":"address"},{"internalType":"address","name":"_admin","type":"address"}],"stateMutability":"nonpayable","type":"constructor"},{"inputs":[],"name":"AccessControlBadConfirmation","type":"error"},{"inputs":[{"internalType":"address","name":"account","type":"address"},{"internalType":"bytes32","name":"neededRole","type":"bytes32"}],"name":"AccessControlUnauthorizedAccount","type":"error"},{"inputs":[],"name":"EnforcedPause","type":"error"},{"inputs":[],"name":"ExpectedPause","type":"error"},{"inputs":[],"name":"ReentrancyGuardReentrantCall","type":"error"},{"inputs":[{"internalType":"address","name":"token","type":"address"}],"name":"SafeERC20FailedOperation","type":"error"},{"anonymous":false,"inputs":[{"indexed":true,"internalType":"address","name":"token","type":"address"},{"indexed":false,"internalType":"uint256","name":"amount","type":"uint256"},{"indexed":false,"internalType":"string","name":"feeType","type":"string"},{"indexed":false,"internalType":"uint256","name":"timestamp","type":"uint256"}],"name":"FeeCollected","type":"event"},{"anonymous":false,"inputs":[{"indexed":true,"internalType":"address","name":"user","type":"address"},{"indexed":true,"internalType":"address","name":"token","type":"address"},{"indexed":false,"internalType":"uint256","name":"amount","type":"uint256"},{"indexed":false,"internalType":"uint256","name":"timestamp","type":"uint256"}],"name":"MarginDeposited","type":"event"},{"anonymous":false,"inputs":[{"indexed":true,"internalType":"address","name":"from","type":"address"},{"indexed":true,"internalType":"address","name":"to","type":"address"},{"indexed":true,"internalType":"address","name":"token","type":"address"},{"indexed":false,"internalType":"uint256","name":"amount","type":"uint256"},{"indexed":false,"internalType":"string","name":"reason","type":"string"},{"indexed":false,"internalType":"uint256","name":"timestamp","type":"uint256"}],"name":"MarginTransferred","type":"event"},{"anonymous":false,"inputs":[{"indexed":true,"internalType":"address","name":"user","type":"address"},{"indexed":true,"internalType":"address","name":"token","type":"address"},{"indexed":false,"internalType":"uint256","name":"amount","type":"uint256"},{"indexed":false,"internalType":"uint256","name":"timestamp","type":"uint256"}],"name":"MarginWithdrawn","type":"event"},{"anonymous":false,"inputs":[{"indexed":false,"internalType":"address","name":"account","type":"address"}],"name":"Paused","type":"event"},{"anonymous":false,"inputs":[{"indexed":true,"internalType":"address","name":"token","type":"address"},{"indexed":false,"internalType":"uint256","name":"amount","type":"uint256"},{"indexed":false,"internalType":"string","name":"poolType","type":"string"},{"indexed":false,"internalType":"uint256","name":"timestamp","type":"uint256"}],"name":"ProfitDistributed","type":"event"},{"anonymous":false,"inputs":[{"indexed":true,"internalType":"bytes32","name":"role","type":"bytes32"},{"indexed":true,"internalType":"bytes32","name":"previousAdminRole","type":"bytes32"},{"indexed":true,"internalType":"bytes32","name":"newAdminRole","type":"bytes32"}],"name":"RoleAdminChanged","type":"event"},{"anonymous":false,"inputs":[{"indexed":true,"internalType":"bytes32","name":"role","type":"bytes32"},{"indexed":true,"internalType":"address","name":"account","type":"address"},{"indexed":true,"internalType":"address","name":"sender","type":"address"}],"name":"RoleGranted","type":"event"},{"anonymous":false,"inputs":[{"indexed":true,"internalType":"bytes32","name":"role","type":"bytes32"},{"indexed":true,"internalType":"address","name":"account","type":"address"},{"indexed":true,"internalType":"address","name":"sender","type":"address"}],"name":"RoleRevoked","type":"event"},{"anonymous":false,"inputs":[{"indexed":false,"internalType":"address","name":"account","type":"address"}],"name":"Unpaused","type":"event"},{"inputs":[],"name":"DEFAULT_ADMIN_ROLE","outputs":[{"internalType":"bytes32","name":"","type":"bytes32"}],"stateMutability":"view","type":"function"},{"inputs":[],"name":"VAULT_OPERATOR_ROLE","outputs":[{"internalType":"bytes32","name":"","type":"bytes32"}],"stateMutability":"view","type":"function"},{"inputs":[{"internalType":"address","name":"_user","type":"address"},{"internalType":"address","name":"_token","type":"address"},{"internalType":"uint256","name":"_amount","type":"uint256"}],"name":"adminSetMarginBalance","outputs":[],"stateMutability":"nonpayable","type":"function"},{"inputs":[{"internalType":"address","name":"_token","type":"address"},{"internalType":"uint256","name":"_lpAmount","type":"uint256"},{"internalType":"uint256","name":"_interactAmount","type":"uint256"},{"internalType":"uint256","name":"_donationAmount","type":"uint256"}],"name":"allocateProfitToSubPools","outputs":[],"stateMutability":"nonpayable","type":"function"},{"inputs":[{"internalType":"address","name":"_token","type":"address"},{"internalType":"address[]","name":"_recipients","type":"address[]"},{"internalType":"uint256[]","name":"_amounts","type":"uint256[]"}],"name":"batchDistributeNodeRewards","outputs":[],"stateMutability":"nonpayable","type":"function"},{"inputs":[{"internalType":"address","name":"_user","type":"address"},{"internalType":"address","name":"_token","type":"address"},{"internalType":"uint256","name":"_amount","type":"uint256"},{"internalType":"string","name":"_feeType","type":"string"}],"name":"collectFee","outputs":[],"stateMutability":"nonpayable","type":"function"},{"inputs":[],"name":"config","outputs":[{"internalType":"contract Config","name":"","type":"address"}],"stateMutability":"view","type":"function"},{"inputs":[{"internalType":"address","name":"_user","type":"address"},{"internalType":"address","name":"_token","type":"address"},{"internalType":"uint256","name":"_amount","type":"uint256"}],"name":"depositMargin","outputs":[],"stateMutability":"nonpayable","type":"function"},{"inputs":[{"internalType":"address","name":"_token","type":"address"},{"internalType":"uint256","name":"_amount","type":"uint256"}],"name":"depositToDonationPool","outputs":[],"stateMutability":"nonpayable","type":"function"},{"inputs":[{"internalType":"address","name":"_token","type":"address"},{"internalType":"uint256","name":"_amount","type":"uint256"}],"name":"depositToInteractPool","outputs":[],"stateMutability":"nonpayable","type":"function"},{"inputs":[{"internalType":"address","name":"_token","type":"address"},{"internalType":"uint256","name":"_amount","type":"uint256"}],"name":"depositToLPPool","outputs":[],"stateMutability":"nonpayable","type":"function"},{"inputs":[{"internalType":"address","name":"_token","type":"address"},{"internalType":"uint256","name":"_amount","type":"uint256"}],"name":"distributeProfits","outputs":[],"stateMutability":"nonpayable","type":"function"},{"inputs":[{"internalType":"address","name":"","type":"address"}],"name":"donationPoolBalance","outputs":[{"internalType":"uint256","name":"","type":"uint256"}],"stateMutability":"view","type":"function"},{"inputs":[{"internalType":"address","name":"_token","type":"address"}],"name":"getProfitPoolBalance","outputs":[{"internalType":"uint256","name":"","type":"uint256"}],"stateMutability":"view","type":"function"},{"inputs":[{"internalType":"bytes32","name":"role","type":"bytes32"}],"name":"getRoleAdmin","outputs":[{"internalType":"bytes32","name":"","type":"bytes32"}],"stateMutability":"view","type":"function"},{"inputs":[{"internalType":"address","name":"_token","type":"address"}],"name":"getTotalMarginPool","outputs":[{"internalType":"uint256","name":"","type":"uint256"}],"stateMutability":"view","type":"function"},{"inputs":[{"internalType":"address","name":"_user","type":"address"},{"internalType":"address","name":"_token","type":"address"}],"name":"getUserMarginBalance","outputs":[{"internalType":"uint256","name":"","type":"uint256"}],"stateMutability":"view","type":"function"},{"inputs":[{"internalType":"address","name":"_operator","type":"address"}],"name":"grantOperatorRole","outputs":[],"stateMutability":"nonpayable","type":"function"},{"inputs":[{"internalType":"bytes32","name":"role","type":"bytes32"},{"internalType":"address","name":"account","type":"address"}],"name":"grantRole","outputs":[],"stateMutability":"nonpayable","type":"function"},{"inputs":[{"internalType":"bytes32","name":"role","type":"bytes32"},{"internalType":"address","name":"account","type":"address"}],"name":"hasRole","outputs":[{"internalType":"bool","name":"","type":"bool"}],"stateMutability":"view","type":"function"},{"inputs":[{"internalType":"address","name":"","type":"address"}],"name":"interactPoolBalance","outputs":[{"internalType":"uint256","name":"","type":"uint256"}],"stateMutability":"view","type":"function"},{"inputs":[{"internalType":"address","name":"","type":"address"}],"name":"lpPoolBalance","outputs":[{"internalType":"uint256","name":"","type":"uint256"}],"stateMutability":"view","type":"function"},{"inputs":[{"internalType":"address","name":"","type":"address"}],"name":"marginPoolBalance","outputs":[{"internalType":"uint256","name":"","type":"uint256"}],"stateMutability":"view","type":"function"},{"inputs":[],"name":"pause","outputs":[],"stateMutability":"nonpayable","type":"function"},{"inputs":[],"name":"paused","outputs":[{"internalType":"bool","name":"","type":"bool"}],"stateMutability":"view","type":"function"},{"inputs":[{"internalType":"address","name":"_user","type":"address"},{"internalType":"address","name":"_token","type":"address"},{"internalType":"uint256","name":"_amount","type":"uint256"}],"name":"penaltyToTreasury","outputs":[],"stateMutability":"nonpayable","type":"function"},{"inputs":[{"internalType":"address","name":"","type":"address"}],"name":"profitPoolBalance","outputs":[{"internalType":"uint256","name":"","type":"uint256"}],"stateMutability":"view","type":"function"},{"inputs":[{"internalType":"address","name":"_seller","type":"address"},{"internalType":"uint256","name":"_amount","type":"uint256"}],"name":"refundMargin","outputs":[],"stateMutability":"nonpayable","type":"function"},{"inputs":[{"internalType":"address","name":"_buyer","type":"address"},{"internalType":"uint256","name":"_amount","type":"uint256"}],"name":"refundPremium","outputs":[],"stateMutability":"nonpayable","type":"function"},{"inputs":[{"internalType":"bytes32","name":"role","type":"bytes32"},{"internalType":"address","name":"callerConfirmation","type":"address"}],"name":"renounceRole","outputs":[],"stateMutability":"nonpayable","type":"function"},{"inputs":[{"internalType":"bytes32","name":"role","type":"bytes32"},{"internalType":"address","name":"account","type":"address"}],"name":"revokeRole","outputs":[],"stateMutability":"nonpayable","type":"function"},{"inputs":[{"internalType":"address","name":"_config","type":"address"}],"name":"setConfig","outputs":[],"stateMutability":"nonpayable","type":"function"},{"inputs":[{"internalType":"bytes4","name":"interfaceId","type":"bytes4"}],"name":"supportsInterface","outputs":[{"internalType":"bool","name":"","type":"bool"}],"stateMutability":"view","type":"function"},{"inputs":[{"internalType":"address","name":"_from","type":"address"},{"internalType":"address","name":"_to","type":"address"},{"internalType":"address","name":"_token","type":"address"},{"internalType":"uint256","name":"_amount","type":"uint256"},{"internalType":"string","name":"_reason","type":"string"}],"name":"transferMargin","outputs":[],"stateMutability":"nonpayable","type":"function"},{"inputs":[{"internalType":"address","name":"_recipient","type":"address"},{"internalType":"uint256","name":"_amount","type":"uint256"}],"name":"transferReward","outputs":[],"stateMutability":"nonpayable","type":"function"},{"inputs":[{"internalType":"address","name":"_token","type":"address"},{"internalType":"uint256","name":"_amount","type":"uint256"},{"internalType":"address","name":"_feedProtocol","type":"address"}],"name":"transferToFeedProtocol","outputs":[],"stateMutability":"nonpayable","type":"function"},{"inputs":[{"internalType":"uint256","name":"_amount","type":"uint256"}],"name":"transferToTreasury","outputs":[],"stateMutability":"nonpayable","type":"function"},{"inputs":[],"name":"unpause","outputs":[],"stateMutability":"nonpayable","type":"function"},{"inputs":[{"internalType":"address","name":"","type":"address"},{"internalType":"address","name":"","type":"address"}],"name":"userMarginBalance","outputs":[{"internalType":"uint256","name":"","type":"uint256"}],"stateMutability":"view","type":"function"},{"inputs":[{"internalType":"address","name":"_token","type":"address"},{"internalType":"uint256","name":"_amount","type":"uint256"},{"internalType":"address","name":"_recipient","type":"address"}],"name":"withdrawFromDonationPool","outputs":[],"stateMutability":"nonpayable","type":"function"},{"inputs":[{"internalType":"address","name":"_token","type":"address"},{"internalType":"uint256","name":"_amount","type":"uint256"},{"internalType":"address","name":"_recipient","type":"address"}],"name":"withdrawFromInteractPool","outputs":[],"stateMutability":"nonpayable","type":"function"},{"inputs":[{"internalType":"address","name":"_token","type":"address"},{"internalType":"uint256","name":"_amount","type":"uint256"},{"internalType":"address","name":"_recipient","type":"address"}],"name":"withdrawFromLPPool","outputs":[],"stateMutability":"nonpayable","type":"function"},{"inputs":[{"internalType":"address","name":"_user","type":"address"},{"internalType":"address","name":"_token","type":"address"},{"internalType":"uint256","name":"_amount","type":"uint256"}],"name":"withdrawMargin","outputs":[],"stateMutability":"nonpayable","type":"function"}],"evm":{"bytecode":{"linkReferences":{},"object":"608034620000ac57601f62002a3638819003918201601f19168301916001600160401b03831184841017620000b1578084926040948552833981010312620000ac57806200005f6020620000576200009b94620000c7565b9201620000c7565b6001805560028054610100600160a81b03191660089390931b610100600160a81b0316929092179091556200009481620000dc565b506200015c565b506040516128179081620001ff8239f35b600080fd5b634e487b7160e01b600052604160045260246000fd5b51906001600160a01b0382168203620000ac57565b6001600160a01b031660008181527fad3228b676f7d3cd4284a5443f17f1962b36e491b30a40b2405849e597ba5fb5602052604081205490919060ff166200015857818052816020526040822081835260205260408220600160ff19825416179055339160008051602062002a168339815191528180a4600190565b5090565b6001600160a01b031660008181527fad6010f11d85e6849ec87f5f41f95a2725aaf728916b399656c75ce30b0d2c5460205260408120549091907f696e87880cf63dca8f080e7a026952044d39afbd9cb8ab3582bd4b29e6071b299060ff16620001f957808352826020526040832082845260205260408320600160ff1982541617905560008051602062002a16833981519152339380a4600190565b50509056fe6080604081815260048036101561001557600080fd5b600092833560e01c90816301ffc9a714611f0b5750806302817a6d14611d2c578063063d11de14611bdc57806308b8bb4b1461198957806309143b9f146117f557806315490ebb146115dc5780631de8ae53146115a457806320e3dbd414611557578063234c30d71461136e578063248a9ca31461134557806327ac0c58146112f55780632f2ff15d146112cc5780632ff1d458146111ac57806331aa128d1461108657806336568abe1461103f5780633e0e706e146110185780633f4ba83a14610faf5780634a650a2c14610ed9578063564a6c9814610e0857806358dbf21c14610d2f5780635c975abb14610d0b5780636208edc914610c2f578063715d58961461095857806375818bd714610b5957806377c5b50614610ac157806379502c5514610a945780637af4c51b14610a5c5780638456cb5914610a0157806391d14854146109bc578063a217fddf146109a1578063a7a6297514610958578063ad04570d14610573578063bdf3e7801461087a578063bed6236514610851578063c1c4e0c0146106eb57838163c3c8f58c146105ab57508063c69c75cd14610573578063d249f54e14610475578063d44f97b81461043d578063d547741f146103ff578063e1ede08f1461031f578063ec185a07146102365763f6faa649146101fe57600080fd5b346102325760203660031901126102325760209282916001600160a01b03610224611f5f565b168252845220549051908152f35b8280fd5b503461023257608036600319011261023257610250611f5f565b918361025a611f7a565b6044356064356001600160401b03811161031b57600080516020612722833981519152956102ef83610311956102c260ff6102998b9736908801611fc0565b9b909a6000805160206127c283398151915281528060205281812033825260205220541661223e565b6102ca612432565b6102d2612414565b6102dd821515612296565b6001600160a01b03169930908b612352565b8789526020528088206103038382546122f6565b905551938493429285612508565b0390a26001805580f35b8380fd5b5050346103fb57806003193601126103fb5760008051602061274283398151915260a061034a611f5f565b602435906000805160206127c283398151915286528560205284862033875260205261037b60ff868820541661223e565b610383612432565b61038b612414565b610396821515612296565b600180841b0316936103aa82303388612352565b84865260076020528086206103c08382546122f6565b9055805191825260606020830152601060608301526f191bdb985d1a5bdb97d9195c1bdcda5d60821b60808301524290820152a26001805580f35b5080fd5b50903461023257806003193601126102325761043991356104346001610423611f7a565b9383875286602052862001546120ae565b6121c9565b5080f35b5050346103fb5760203660031901126103fb5760209181906001600160a01b03610465611f5f565b1681526007845220549051908152f35b5050346103fb577f63ca1bee673fe6befaa933c20ecf9ca16a04bd4273bffe1a05b0b9cc9b9be043906104a736612021565b6000805160206127c283398151915286959394929552602086815282872033885281526104d960ff848920541661223e565b6104e1612432565b6104e9612414565b6104f4821515612296565b6105618260018060a01b039687811697888b5260088552868b20991698898b52845261052582878c20541015612455565b878a5260088452858a20898b528452858a206105428382546124ac565b9055888a5260038452858a206105598382546124ac565b9055886124b9565b82519182524290820152a36001805580f35b5050346103fb5760203660031901126103fb5760209181906001600160a01b0361059b611f5f565b1681526003845220549051908152f35b808484346106e75760803660031901126106e757816000805160206127428339815191529260608560a0946105de611f5f565b9060243560443591610657606435946000805160206127c2833981519152875261061a60ff8a602099808b528181203382528b5220541661223e565b610622612432565b61062a612414565b61063d8661063887876122f6565b6122f6565b998a916001808e1b03169d8e8152848952205410156125b6565b8a8c528452858b2061066a8882546124ac565b9055898b5260058452610681868c209182546122f6565b9055888a5260068352610698858b209182546122f6565b9055878952600782526106af848a209182546122f6565b905582519384528301526011606083015270383937b334ba2fb0b63637b1b0ba34b7b760791b60808301524290820152a26001805580f35b5050fd5b509034610232576106fb36612021565b929190936000805160206127c28339815191528652602091868352838720338852835261072d60ff858920541661223e565b610735612432565b61073d612414565b610748851515612296565b6001600160a01b0390811680885260088452848820969091168088529583528387205485116107ff57600080516020612722833981519152949260a09492606092895260088252838920888a5282528389206107a58682546124ac565b9055878952600382528389206107bc8682546124ac565b905587895281528288206107d18582546122f6565b90558251938452830152600760608301526670656e616c747960c81b60808301524290820152a26001805580f35b50915162461bcd60e51b815291820152602760248201527f5661756c744d616e616765723a20696e73756666696369656e7420757365722060448201526662616c616e636560c81b6064820152608490fd5b5050346103fb57816003193601126103fb57602090516000805160206127c28339815191528152f35b5050346103fb5760008051602061274283398151915260a061091e61089e36611fed565b9591908093916000805160206127c2833981519152895288602052838920338a526020526108d160ff858b20541661223e565b6108d9612432565b6108e1612414565b600180871b031696878952600660205261090082858b20541015612612565b87895260066020528389206109168382546124ac565b9055876124b9565b8051918252606060208301526011606083015270696e7465726163745f776974686472617760781b60808301524290820152a26001805580f35b5050346103fb57806003193601126103fb5780602092610976611f5f565b61097e611f7a565b6001600160a01b0391821683526008865283832091168252845220549051908152f35b5050346103fb57816003193601126103fb5751908152602090f35b50346102325781600319360112610232578160209360ff926109dc611f7a565b903582528186528282206001600160a01b039091168252855220549151911615158152f35b5050346103fb57816003193601126103fb5760207f62e78cea01bee320cd4e420270b5ea74000d11b0c9f74754ebdbfc544b05a25891610a3f612056565b610a47612414565b600160ff19600254161760025551338152a180f35b5050346103fb5760203660031901126103fb5760209181906001600160a01b03610a84611f5f565b1681526005845220549051908152f35b5050346103fb57816003193601126103fb57600254905160089190911c6001600160a01b03168152602090f35b5050346103fb57610b5290610ad536611fed565b916000805160206127c2833981519152869492945285602052818620338752602052610b0660ff838820541661223e565b610b0e612432565b610b16612414565b60018060a01b0316908186526006602052610b3684828820541015612612565b81865260066020528520610b4b8482546124ac565b90556124b9565b6001805580f35b5050346103fb5760008051602061274283398151915260a0610bf5610b7d36611fed565b9591908093916000805160206127c2833981519152895288602052838920338a52602052610bb060ff858b20541661223e565b610bb8612432565b610bc0612414565b600180871b0316968789526007602052610bdf82858b2054101561266f565b87895260076020528389206109168382546124ac565b8051918252606060208301526011606083015270646f6e6174696f6e5f776974686472617760781b60808301524290820152a26001805580f35b5050346103fb57806003193601126103fb5760008051602061274283398151915260a0610c5a611f5f565b602435906000805160206127c2833981519152865285602052848620338752602052610c8b60ff868820541661223e565b610c93612432565b610c9b612414565b610ca6821515612296565b600180841b031693610cba82303388612352565b8486526006602052808620610cd08382546122f6565b9055805191825260606020830152601060608301526f1a5b9d195c9858dd17d9195c1bdcda5d60821b60808301524290820152a26001805580f35b5050346103fb57816003193601126103fb5760209060ff6002541690519015158152f35b5050346103fb576000805160206127a283398151915290610d4f36612021565b610d5c9492939194612056565b6001600160a01b0393841680875260086020908152838820969095168088529585528287205490949080831115610dd157610d9790836124ac565b86885260038252610dac8489209182546122f6565b90555b848752600881528287208688528152818388205582519182524290820152a380f35b82818110610de1575b5050610daf565b610dea916124ac565b86885260038252610dff8489209182546124ac565b90553882610dda565b5050346103fb576000805160206127a283398151915290610e2836612021565b6000805160206127c283398151915286959395949294526020938685528287203388528552610e5c60ff848920541661223e565b610e64612432565b610e6c612414565b610e77821515612296565b6001600160a01b0390811695610e8f8330838a612352565b1693848752600881528287208688528152828720610eae8382546122f6565b905585875260038152828720610ec58382546122f6565b905582519182524290820152a36001805580f35b5050346103fb57806003193601126103fb5760008051602061274283398151915260a0610f04611f5f565b602435906000805160206127c2833981519152865285602052848620338752602052610f3560ff868820541661223e565b610f3d612432565b610f45612414565b610f50821515612296565b600180841b031693610f6482303388612352565b8486526005602052808620610f7a8382546122f6565b9055805191825260606020830152600a6060830152691b1c17d9195c1bdcda5d60b21b60808301524290820152a26001805580f35b5034610232578260031936011261023257610fc8612056565b6002549060ff82161561100a575060ff1916600255513381527f5db9ee0a495bf2e6ff9c91a7834c1ba4fdd244a5e8aa4e537bd38aeae4b073aa90602090a180f35b8251638dfc202b60e01b8152fd5b50346102325760203660031901126102325760209282916001600160a01b03610224611f5f565b509190346103fb57806003193601126103fb5761105a611f7a565b90336001600160a01b0383160361107757506104399192356121c9565b5163334bd91960e11b81528390fd5b5090346102325761109636611fed565b6000805160206127c283398151915286949392945260209186835283872033885283526110c860ff858920541661223e565b6110d0612432565b6110d8612414565b6001600160a01b03168087526005835283872054909590851161115e5750916060849261112e6000805160206127428339815191529660a096898b5260058452858b206111268382546124ac565b9055896124b9565b8251938452830152600b60608301526a6c705f776974686472617760a81b60808301524290820152a26001805580f35b835162461bcd60e51b8152908101839052602260248201527f5661756c744d616e616765723a20696e73756666696369656e74204c5020706f6044820152611bdb60f21b6064820152608490fd5b50346102325760a0366003190112610232576111c6611f5f565b6111ce611f7a565b92846044359460018060a01b03948587168097036102325760843593606435906001600160401b0386116112c85787899461128084846112236112be986000805160206127828339815191529c369101611fc0565b9a90996000805160206127c2833981519152825260209e8f9e8f848152858520903386525261125760ff868620541661223e565b61125f612432565b611267612414565b169d8e8352600881528383209183525220541015612455565b888c5260088a52828c208b8d528a52828c2061129d8582546124ac565b90551697888b5260088152818b20908a8c5252808a206103038382546122f6565b0390a46001805580f35b8480fd5b50903461023257806003193601126102325761043991356112f06001610423611f7a565b612162565b5050346103fb5760203660031901126103fb57610439906113406001611319611f5f565b92611322612056565b6000805160206127c2833981519152865285602052852001546120ae565b6120d4565b503461023257602036600319011261023257816020936001923581528085522001549051908152f35b50903461023257606036600319011261023257611389611f5f565b6001600160401b0392909190602435848111611553576113ac9036908301611f90565b9460443590811161154f576113c49036908401611f90565b6000805160206127c28339815191528896929652602093888552858920338a5285526113f560ff878b20541661223e565b6113fd612432565b611405612414565b81880361150c57508795885b8281106114e7575060018060a01b0380931697888a526007865261143a88888c2054101561266f565b888a5260078652868a2061144f8982546124ac565b9055895b8181106114a9578a8a60008051602061274283398151915260a08c8c60608d825193845283015260126060830152710dcdec8cabee4caeec2e4c8e6bec4c2e8c6d60731b60808301524290820152a26001805580f35b6114b48183886126db565b359085821682036114e3576114d96114de926114d18388886126db565b35908d6124b9565b6126cc565b611453565b8b80fd5b96611501611507916114fa8a86866126db565b35906122f6565b976126cc565b611411565b855162461bcd60e51b8152908101859052601d60248201527f5661756c744d616e616765723a206c656e677468206d69736d617463680000006044820152606490fd5b8680fd5b8580fd5b83346115a15760203660031901126115a157611571611f5f565b611579612056565b60028054610100600160a81b03191660089290921b610100600160a81b031691909117905580f35b80fd5b5050346103fb5760203660031901126103fb5760209181906001600160a01b036115cc611f5f565b1681526006845220549051908152f35b5090346102325780600319360112610232576115f6611f5f565b90602435916000805160206127c28339815191528552602090858252828620338752825261162960ff848820541661223e565b611631612432565b611639612414565b6001600160a01b03818116156117b257611654851515612296565b85838260025460081c168651928380926320f2e74760e11b82525afa9081156117a857908291899161177b575b50161561176157739f2140319726f9b851073a303415f13ec0cda2695b16948587528083528484882054106117165784926116df6000805160206127428339815191529660a096946060948a8c528452858b206111268382546124ac565b82519384528301526012606083015271185c989a5d1c985d1a5bdb97dc995dd85c9960721b60808301524290820152a26001805580f35b835162461bcd60e51b8152908101839052603160248201526000805160206127628339815191526044820152701d081c1bdbdb08199bdc881c995dd85c99607a1b6064820152608490fd5b7355d398326f99059ff775485246999027b319795561169e565b61179b9150853d87116117a1575b6117938183612319565b81019061253c565b38611681565b503d611789565b85513d8a823e3d90fd5b835162461bcd60e51b8152808701849052601f60248201527f5661756c744d616e616765723a20696e76616c696420726563697069656e74006044820152606490fd5b503461023257816003193601126102325761180e611f5f565b91602435906000805160206127c283398151915285526020858152818620338752815261184060ff838820541661223e565b611848612432565b611850612414565b6001600160a01b0385811694851561193a5761186d851515612296565b828260025460081c16855192838092639ab4a44560e01b82525afa90811561193057606093926118ce9287928b91611913575b501697888a52600384526118b982878c2054101561255b565b888a5260038452858a206105598382546124ac565b8251938452830152600d60608301526c1b585c99da5b97dc99599d5b99609a1b6080830152429082015260008051602061278283398151915260a03092a46001805580f35b61192a9150853d87116117a1576117938183612319565b386118a0565b84513d8a823e3d90fd5b835162461bcd60e51b81529081018390526024808201527f5661756c744d616e616765723a20696e76616c69642073656c6c6572206164646044820152637265737360e01b6064820152608490fd5b50346102325781600319360112610232576119a2611f5f565b91602435906000805160206127c28339815191528552602085815281862033875281526119d460ff838820541661223e565b6119dc612432565b6119e4612414565b60018060a01b0380951694858752848252611a04848489205410156125b6565b858752848252828720611a188582546124ac565b905560025460081c16938251906362f5ad6360e01b825282828281895afa8015611930578890611bad575b611a549250612710928391876125ff565b04958451633c6ec58560e11b815284818481855afa908115611ba357908592918b91611b6d575b50611a8690886125ff565b5085516301eb418960e71b815292839182905afa908115611930578891611b22575b509160008051602061274283398151915295606092611acb87969560a0986125ff565b04888a5260058352611ae1858b209182546122f6565b905587895260078252611af8848a209182546122f6565b905582519384528301526003606083015262185b1b60ea1b60808301524290820152a26001805580f35b9194939280915082813d8311611b66575b611b3d8183612319565b81010312611b6257905192939192909190600080516020612742833981519152611aa8565b8780fd5b503d611b33565b83819492503d8311611b9c575b611b848183612319565b81010312611b9857611a8685925190611a7b565b8980fd5b503d611b7a565b86513d8c823e3d90fd5b508282813d8311611bd5575b611bc38183612319565b81010312611b6257611a549151611a43565b503d611bb9565b509034610232576020908160031936011261031b578235916000805160206127c283398151915285528481528185203386528152611c1f60ff838720541661223e565b611c27612432565b611c2f612414565b611c3a831515612296565b6002548251639ab4a44560e01b81526001600160a01b0391839082908890829060081c86165afa908115611d22579260a0949260609260008051602061274283398151915297958a91611d05575b50169687895260038252611ca185858b2054101561255b565b87895260038252838920611cb68682546124ac565b90558789528152828820611ccb8582546122f6565b90558251938452830152601360608301527270656e616c74795f746f5f747265617375727960681b60808301524290820152a26001805580f35b611d1c9150833d85116117a1576117938183612319565b38611c88565b84513d89823e3d90fd5b509034610232578060031936011261023257611d46611f5f565b90602435906000805160206127c2833981519152855260208581528186203387528152611d7860ff838820541661223e565b611d80612432565b611d88612414565b6001600160a01b0384811694908515611ebc57611da6851515612296565b86838260025460081c16865192838092639ab4a44560e01b82525afa908115611eb2578991611e95575b5016958351906370a0823160e01b8252309082015282816024818a5afa9081156119305790859392918991611e60575b5092611e1a91611e14826060961015612455565b886124b9565b8251938452830152600e60608301526d1c1c995b5a5d5b57dc99599d5b9960921b6080830152429082015260008051602061278283398151915260a03092a46001805580f35b809450838092503d8311611e8e575b611e798183612319565b81010312611b62579151849290611e1a611e00565b503d611e6f565b611eac9150843d86116117a1576117938183612319565b38611dd0565b85513d8b823e3d90fd5b835162461bcd60e51b8152808801849052602360248201527f5661756c744d616e616765723a20696e76616c6964206275796572206164647260448201526265737360e81b6064820152608490fd5b92505034610232576020366003190112610232573563ffffffff60e01b81168091036102325760209250637965db0b60e01b8114908115611f4e575b5015158152f35b6301ffc9a760e01b14905038611f47565b600435906001600160a01b0382168203611f7557565b600080fd5b602435906001600160a01b0382168203611f7557565b9181601f84011215611f75578235916001600160401b038311611f75576020808501948460051b010111611f7557565b9181601f84011215611f75578235916001600160401b038311611f755760208381860195010111611f7557565b6060906003190112611f75576001600160a01b036004358181168103611f755791602435916044359081168103611f755790565b6060906003190112611f75576001600160a01b03906004358281168103611f7557916024359081168103611f75579060443590565b3360009081527fad3228b676f7d3cd4284a5443f17f1962b36e491b30a40b2405849e597ba5fb5602052604081205460ff16156120905750565b6044906040519063e2517d3f60e01b82523360048301526024820152fd5b80600052600060205260406000203360005260205260ff60406000205416156120905750565b6001600160a01b031660008181527fad6010f11d85e6849ec87f5f41f95a2725aaf728916b399656c75ce30b0d2c5460205260408120549091906000805160206127c28339815191529060ff1661215d57808352826020526040832082845260205260408320600160ff19825416179055600080516020612702833981519152339380a4600190565b505090565b9060009180835282602052604083209160018060a01b03169182845260205260ff6040842054161560001461215d57808352826020526040832082845260205260408320600160ff19825416179055600080516020612702833981519152339380a4600190565b9060009180835282602052604083209160018060a01b03169182845260205260ff60408420541660001461215d5780835282602052604083208284526020526040832060ff1981541690557ff6391f5c32d9c69d2a47ea670b442974b53935d1edc7fd64eb21e047a839171b339380a4600190565b1561224557565b60405162461bcd60e51b8152602060048201526024808201527f5661756c744d616e616765723a2063616c6c6572206973206e6f74206f70657260448201526330ba37b960e11b6064820152608490fd5b1561229d57565b60405162461bcd60e51b815260206004820152602b60248201527f5661756c744d616e616765723a20616d6f756e74206d7573742062652067726560448201526a061746572207468616e20360ac1b6064820152608490fd5b9190820180921161230357565b634e487b7160e01b600052601160045260246000fd5b601f909101601f19168101906001600160401b0382119082101761233c57604052565b634e487b7160e01b600052604160045260246000fd5b6040516323b872dd60e01b60208201526001600160a01b03928316602482015292909116604483015260648083019390935291815260a08101918183106001600160401b0384111761233c576123aa926040526123ac565b565b906000602091828151910182855af115612408576000513d6123ff57506001600160a01b0381163b155b6123dd5750565b604051635274afe760e01b81526001600160a01b039091166004820152602490fd5b600114156123d6565b6040513d6000823e3d90fd5b60ff6002541661242057565b60405163d93c066560e01b8152600490fd5b600260015414612443576002600155565b604051633ee5aeb560e01b8152600490fd5b1561245c57565b60405162461bcd60e51b815260206004820152602260248201527f5661756c744d616e616765723a20696e73756666696369656e742062616c616e604482015261636560f01b6064820152608490fd5b9190820391821161230357565b60405163a9059cbb60e01b60208201526001600160a01b03909216602483015260448083019390935291815260808101916001600160401b0383118284101761233c576123aa926040526123ac565b94939280604093608093885260606020890152816060890152838801376000828288010152601f8019910116850101930152565b90816020910312611f7557516001600160a01b0381168103611f755790565b1561256257565b60405162461bcd60e51b815260206004820152602660248201527f5661756c744d616e616765723a20696e73756666696369656e74206d617267696044820152651b881c1bdbdb60d21b6064820152608490fd5b156125bd57565b60405162461bcd60e51b815260206004820152602660248201526000805160206127628339815191526044820152651d081c1bdbdb60d21b6064820152608490fd5b8181029291811591840414171561230357565b1561261957565b60405162461bcd60e51b815260206004820152602860248201527f5661756c744d616e616765723a20696e73756666696369656e7420696e7465726044820152671858dd081c1bdbdb60c21b6064820152608490fd5b1561267657565b60405162461bcd60e51b815260206004820152602860248201527f5661756c744d616e616765723a20696e73756666696369656e7420646f6e61746044820152671a5bdb881c1bdbdb60c21b6064820152608490fd5b60001981146123035760010190565b91908110156126eb5760051b0190565b634e487b7160e01b600052603260045260246000fdfe2f8788117e7eff1d82e926ec794901d17c78024a50270940304540a733656f0d66aecc579aa1ef463c0ed1547c2cb6163370e6311a60cba815252acbb398f2131f5794a97a8fd0f5605d102f892a8a78d86771f26e26716d26e376f3f4a3d6135661756c744d616e616765723a20696e73756666696369656e742070726f666931eb66acea2a2e9363e745354476882560841a43c057f7f2e75e63470ca557af2bde942ed78f9e1081375810d2aa3bfe43ec08b083f750914542c4bf2fe936c7696e87880cf63dca8f080e7a026952044d39afbd9cb8ab3582bd4b29e6071b29a26469706673582212207ef7b33e03920febeec7ea428c6028cdc86bcd6edfa5860d7ccaac27e488715564736f6c634300081400332f8788117e7eff1d82e926ec794901d17c78024a50270940304540a733656f0d","opcodes":"PUSH1 0x80 CALLVALUE PUSH3 0xAC JUMPI PUSH1 0x1F PUSH3 0x2A36 CODESIZE DUP2 SWAP1 SUB SWAP2 DUP3 ADD PUSH1 0x1F NOT AND DUP4 ADD SWAP2 PUSH1 0x1 PUSH1 0x1 PUSH1 0x40 SHL SUB DUP4 GT DUP5 DUP5 LT OR PUSH3 0xB1 JUMPI DUP1 DUP5 SWAP3 PUSH1 0x40 SWAP5 DUP6 MSTORE DUP4 CODECOPY DUP2 ADD SUB SLT PUSH3 0xAC JUMPI DUP1 PUSH3 0x5F PUSH1 0x20 PUSH3 0x57 PUSH3 0x9B SWAP5 PUSH3 0xC7 JUMP JUMPDEST SWAP3 ADD PUSH3 0xC7 JUMP JUMPDEST PUSH1 0x1 DUP1 SSTORE PUSH1 0x2 DUP1 SLOAD PUSH2 0x100 PUSH1 0x1 PUSH1 0xA8 SHL SUB NOT AND PUSH1 0x8 SWAP4 SWAP1 SWAP4 SHL PUSH2 0x100 PUSH1 0x1 PUSH1 0xA8 SHL SUB AND SWAP3 SWAP1 SWAP3 OR SWAP1 SWAP2 SSTORE PUSH3 0x94 DUP2 PUSH3 0xDC JUMP JUMPDEST POP PUSH3 0x15C JUMP JUMPDEST POP PUSH1 0x40 MLOAD PUSH2 0x2817 SWAP1 DUP2 PUSH3 0x1FF DUP3 CODECOPY RETURN JUMPDEST PUSH1 0x0 DUP1 REVERT JUMPDEST PUSH4 0x4E487B71 PUSH1 0xE0 SHL PUSH1 0x0 MSTORE PUSH1 0x41 PUSH1 0x4 MSTORE PUSH1 0x24 PUSH1 0x0 REVERT JUMPDEST MLOAD SWAP1 PUSH1 0x1 PUSH1 0x1 PUSH1 0xA0 SHL SUB DUP3 AND DUP3 SUB PUSH3 0xAC JUMPI JUMP JUMPDEST PUSH1 0x1 PUSH1 0x1 PUSH1 0xA0 SHL SUB AND PUSH1 0x0 DUP2 DUP2 MSTORE PUSH32 0xAD3228B676F7D3CD4284A5443F17F1962B36E491B30A40B2405849E597BA5FB5 PUSH1 0x20 MSTORE PUSH1 0x40 DUP2 KECCAK256 SLOAD SWAP1 SWAP2 SWAP1 PUSH1 0xFF AND PUSH3 0x158 JUMPI DUP2 DUP1 MSTORE DUP2 PUSH1 0x20 MSTORE PUSH1 0x40 DUP3 KECCAK256 DUP2 DUP4 MSTORE PUSH1 0x20 MSTORE PUSH1 0x40 DUP3 KECCAK256 PUSH1 0x1 PUSH1 0xFF NOT DUP3 SLOAD AND OR SWAP1 SSTORE CALLER SWAP2 PUSH1 0x0 DUP1 MLOAD PUSH1 0x20 PUSH3 0x2A16 DUP4 CODECOPY DUP2 MLOAD SWAP2 MSTORE DUP2 DUP1 LOG4 PUSH1 0x1 SWAP1 JUMP JUMPDEST POP SWAP1 JUMP JUMPDEST PUSH1 0x1 PUSH1 0x1 PUSH1 0xA0 SHL SUB AND PUSH1 0x0 DUP2 DUP2 MSTORE PUSH32 0xAD6010F11D85E6849EC87F5F41F95A2725AAF728916B399656C75CE30B0D2C54 PUSH1 0x20 MSTORE PUSH1 0x40 DUP2 KECCAK256 SLOAD SWAP1 SWAP2 SWAP1 PUSH32 0x696E87880CF63DCA8F080E7A026952044D39AFBD9CB8AB3582BD4B29E6071B29 SWAP1 PUSH1 0xFF AND PUSH3 0x1F9 JUMPI DUP1 DUP4 MSTORE DUP3 PUSH1 0x20 MSTORE PUSH1 0x40 DUP4 KECCAK256 DUP3 DUP5 MSTORE PUSH1 0x20 MSTORE PUSH1 0x40 DUP4 KECCAK256 PUSH1 0x1 PUSH1 0xFF NOT DUP3 SLOAD AND OR SWAP1 SSTORE PUSH1 0x0 DUP1 MLOAD PUSH1 0x20 PUSH3 0x2A16 DUP4 CODECOPY DUP2 MLOAD SWAP2 MSTORE CALLER SWAP4 DUP1 LOG4 PUSH1 0x1 SWAP1 JUMP JUMPDEST POP POP SWAP1 JUMP INVALID PUSH1 0x80 PUSH1 0x40 DUP2 DUP2 MSTORE PUSH1 0x4 DUP1 CALLDATASIZE LT ISZERO PUSH2 0x15 JUMPI PUSH1 0x0 DUP1 REVERT JUMPDEST PUSH1 0x0 SWAP3 DUP4 CALLDATALOAD PUSH1 0xE0 SHR SWAP1 DUP2 PUSH4 0x1FFC9A7 EQ PUSH2 0x1F0B JUMPI POP DUP1 PUSH4 0x2817A6D EQ PUSH2 0x1D2C JUMPI DUP1 PUSH4 0x63D11DE EQ PUSH2 0x1BDC JUMPI DUP1 PUSH4 0x8B8BB4B EQ PUSH2 0x1989 JUMPI DUP1 PUSH4 0x9143B9F EQ PUSH2 0x17F5 JUMPI DUP1 PUSH4 0x15490EBB EQ PUSH2 0x15DC JUMPI DUP1 PUSH4 0x1DE8AE53 EQ PUSH2 0x15A4 JUMPI DUP1 PUSH4 0x20E3DBD4 EQ PUSH2 0x1557 JUMPI DUP1 PUSH4 0x234C30D7 EQ PUSH2 0x136E JUMPI DUP1 PUSH4 0x248A9CA3 EQ PUSH2 0x1345 JUMPI DUP1 PUSH4 0x27AC0C58 EQ PUSH2 0x12F5 JUMPI DUP1 PUSH4 0x2F2FF15D EQ PUSH2 0x12CC JUMPI DUP1 PUSH4 0x2FF1D458 EQ PUSH2 0x11AC JUMPI DUP1 PUSH4 0x31AA128D EQ PUSH2 0x1086 JUMPI DUP1 PUSH4 0x36568ABE EQ PUSH2 0x103F JUMPI DUP1 PUSH4 0x3E0E706E EQ PUSH2 0x1018 JUMPI DUP1 PUSH4 0x3F4BA83A EQ PUSH2 0xFAF JUMPI DUP1 PUSH4 0x4A650A2C EQ PUSH2 0xED9 JUMPI DUP1 PUSH4 0x564A6C98 EQ PUSH2 0xE08 JUMPI DUP1 PUSH4 0x58DBF21C EQ PUSH2 0xD2F JUMPI DUP1 PUSH4 0x5C975ABB EQ PUSH2 0xD0B JUMPI DUP1 PUSH4 0x6208EDC9 EQ PUSH2 0xC2F JUMPI DUP1 PUSH4 0x715D5896 EQ PUSH2 0x958 JUMPI DUP1 PUSH4 0x75818BD7 EQ PUSH2 0xB59 JUMPI DUP1 PUSH4 0x77C5B506 EQ PUSH2 0xAC1 JUMPI DUP1 PUSH4 0x79502C55 EQ PUSH2 0xA94 JUMPI DUP1 PUSH4 0x7AF4C51B EQ PUSH2 0xA5C JUMPI DUP1 PUSH4 0x8456CB59 EQ PUSH2 0xA01 JUMPI DUP1 PUSH4 0x91D14854 EQ PUSH2 0x9BC JUMPI DUP1 PUSH4 0xA217FDDF EQ PUSH2 0x9A1 JUMPI DUP1 PUSH4 0xA7A62975 EQ PUSH2 0x958 JUMPI DUP1 PUSH4 0xAD04570D EQ PUSH2 0x573 JUMPI DUP1 PUSH4 0xBDF3E780 EQ PUSH2 0x87A JUMPI DUP1 PUSH4 0xBED62365 EQ PUSH2 0x851 JUMPI DUP1 PUSH4 0xC1C4E0C0 EQ PUSH2 0x6EB JUMPI DUP4 DUP2 PUSH4 0xC3C8F58C EQ PUSH2 0x5AB JUMPI POP DUP1 PUSH4 0xC69C75CD EQ PUSH2 0x573 JUMPI DUP1 PUSH4 0xD249F54E EQ PUSH2 0x475 JUMPI DUP1 PUSH4 0xD44F97B8 EQ PUSH2 0x43D JUMPI DUP1 PUSH4 0xD547741F EQ PUSH2 0x3FF JUMPI DUP1 PUSH4 0xE1EDE08F EQ PUSH2 0x31F JUMPI DUP1 PUSH4 0xEC185A07 EQ PUSH2 0x236 JUMPI PUSH4 0xF6FAA649 EQ PUSH2 0x1FE JUMPI PUSH1 0x0 DUP1 REVERT JUMPDEST CALLVALUE PUSH2 0x232 JUMPI PUSH1 0x20 CALLDATASIZE PUSH1 0x3 NOT ADD SLT PUSH2 0x232 JUMPI PUSH1 0x20 SWAP3 DUP3 SWAP2 PUSH1 0x1 PUSH1 0x1 PUSH1 0xA0 SHL SUB PUSH2 0x224 PUSH2 0x1F5F JUMP JUMPDEST AND DUP3 MSTORE DUP5 MSTORE KECCAK256 SLOAD SWAP1 MLOAD SWAP1 DUP2 MSTORE RETURN JUMPDEST DUP3 DUP1 REVERT JUMPDEST POP CALLVALUE PUSH2 0x232 JUMPI PUSH1 0x80 CALLDATASIZE PUSH1 0x3 NOT ADD SLT PUSH2 0x232 JUMPI PUSH2 0x250 PUSH2 0x1F5F JUMP JUMPDEST SWAP2 DUP4 PUSH2 0x25A PUSH2 0x1F7A JUMP JUMPDEST PUSH1 0x44 CALLDATALOAD PUSH1 0x64 CALLDATALOAD PUSH1 0x1 PUSH1 0x1 PUSH1 0x40 SHL SUB DUP2 GT PUSH2 0x31B JUMPI PUSH1 0x0 DUP1 MLOAD PUSH1 0x20 PUSH2 0x2722 DUP4 CODECOPY DUP2 MLOAD SWAP2 MSTORE SWAP6 PUSH2 0x2EF DUP4 PUSH2 0x311 SWAP6 PUSH2 0x2C2 PUSH1 0xFF PUSH2 0x299 DUP12 SWAP8 CALLDATASIZE SWAP1 DUP9 ADD PUSH2 0x1FC0 JUMP JUMPDEST SWAP12 SWAP1 SWAP11 PUSH1 0x0 DUP1 MLOAD PUSH1 0x20 PUSH2 0x27C2 DUP4 CODECOPY DUP2 MLOAD SWAP2 MSTORE DUP2 MSTORE DUP1 PUSH1 0x20 MSTORE DUP2 DUP2 KECCAK256 CALLER DUP3 MSTORE PUSH1 0x20 MSTORE KECCAK256 SLOAD AND PUSH2 0x223E JUMP JUMPDEST PUSH2 0x2CA PUSH2 0x2432 JUMP JUMPDEST PUSH2 0x2D2 PUSH2 0x2414 JUMP JUMPDEST PUSH2 0x2DD DUP3 ISZERO ISZERO PUSH2 0x2296 JUMP JUMPDEST PUSH1 0x1 PUSH1 0x1 PUSH1 0xA0 SHL SUB AND SWAP10 ADDRESS SWAP1 DUP12 PUSH2 0x2352 JUMP JUMPDEST DUP8 DUP10 MSTORE PUSH1 0x20 MSTORE DUP1 DUP9 KECCAK256 PUSH2 0x303 DUP4 DUP3 SLOAD PUSH2 0x22F6 JUMP JUMPDEST SWAP1 SSTORE MLOAD SWAP4 DUP5 SWAP4 TIMESTAMP SWAP3 DUP6 PUSH2 0x2508 JUMP JUMPDEST SUB SWAP1 LOG2 PUSH1 0x1 DUP1 SSTORE DUP1 RETURN JUMPDEST DUP4 DUP1 REVERT JUMPDEST POP POP CALLVALUE PUSH2 0x3FB JUMPI DUP1 PUSH1 0x3 NOT CALLDATASIZE ADD SLT PUSH2 0x3FB JUMPI PUSH1 0x0 DUP1 MLOAD PUSH1 0x20 PUSH2 0x2742 DUP4 CODECOPY DUP2 MLOAD SWAP2 MSTORE PUSH1 0xA0 PUSH2 0x34A PUSH2 0x1F5F JUMP JUMPDEST PUSH1 0x24 CALLDATALOAD SWAP1 PUSH1 0x0 DUP1 MLOAD PUSH1 0x20 PUSH2 0x27C2 DUP4 CODECOPY DUP2 MLOAD SWAP2 MSTORE DUP7 MSTORE DUP6 PUSH1 0x20 MSTORE DUP5 DUP7 KECCAK256 CALLER DUP8 MSTORE PUSH1 0x20 MSTORE PUSH2 0x37B PUSH1 0xFF DUP7 DUP9 KECCAK256 SLOAD AND PUSH2 0x223E JUMP JUMPDEST PUSH2 0x383 PUSH2 0x2432 JUMP JUMPDEST PUSH2 0x38B PUSH2 0x2414 JUMP JUMPDEST PUSH2 0x396 DUP3 ISZERO ISZERO PUSH2 0x2296 JUMP JUMPDEST PUSH1 0x1 DUP1 DUP5 SHL SUB AND SWAP4 PUSH2 0x3AA DUP3 ADDRESS CALLER DUP9 PUSH2 0x2352 JUMP JUMPDEST DUP5 DUP7 MSTORE PUSH1 0x7 PUSH1 0x20 MSTORE DUP1 DUP7 KECCAK256 PUSH2 0x3C0 DUP4 DUP3 SLOAD PUSH2 0x22F6 JUMP JUMPDEST SWAP1 SSTORE DUP1 MLOAD SWAP2 DUP3 MSTORE PUSH1 0x60 PUSH1 0x20 DUP4 ADD MSTORE PUSH1 0x10 PUSH1 0x60 DUP4 ADD MSTORE PUSH16 0x191BDB985D1A5BDB97D9195C1BDCDA5D PUSH1 0x82 SHL PUSH1 0x80 DUP4 ADD MSTORE TIMESTAMP SWAP1 DUP3 ADD MSTORE LOG2 PUSH1 0x1 DUP1 SSTORE DUP1 RETURN JUMPDEST POP DUP1 REVERT JUMPDEST POP SWAP1 CALLVALUE PUSH2 0x232 JUMPI DUP1 PUSH1 0x3 NOT CALLDATASIZE ADD SLT PUSH2 0x232 JUMPI PUSH2 0x439 SWAP2 CALLDATALOAD PUSH2 0x434 PUSH1 0x1 PUSH2 0x423 PUSH2 0x1F7A JUMP JUMPDEST SWAP4 DUP4 DUP8 MSTORE DUP7 PUSH1 0x20 MSTORE DUP7 KECCAK256 ADD SLOAD PUSH2 0x20AE JUMP JUMPDEST PUSH2 0x21C9 JUMP JUMPDEST POP DUP1 RETURN JUMPDEST POP POP CALLVALUE PUSH2 0x3FB JUMPI PUSH1 0x20 CALLDATASIZE PUSH1 0x3 NOT ADD SLT PUSH2 0x3FB JUMPI PUSH1 0x20 SWAP2 DUP2 SWAP1 PUSH1 0x1 PUSH1 0x1 PUSH1 0xA0 SHL SUB PUSH2 0x465 PUSH2 0x1F5F JUMP JUMPDEST AND DUP2 MSTORE PUSH1 0x7 DUP5 MSTORE KECCAK256 SLOAD SWAP1 MLOAD SWAP1 DUP2 MSTORE RETURN JUMPDEST POP POP CALLVALUE PUSH2 0x3FB JUMPI PUSH32 0x63CA1BEE673FE6BEFAA933C20ECF9CA16A04BD4273BFFE1A05B0B9CC9B9BE043 SWAP1 PUSH2 0x4A7 CALLDATASIZE PUSH2 0x2021 JUMP JUMPDEST PUSH1 0x0 DUP1 MLOAD PUSH1 0x20 PUSH2 0x27C2 DUP4 CODECOPY DUP2 MLOAD SWAP2 MSTORE DUP7 SWAP6 SWAP4 SWAP5 SWAP3 SWAP6 MSTORE PUSH1 0x20 DUP7 DUP2 MSTORE DUP3 DUP8 KECCAK256 CALLER DUP9 MSTORE DUP2 MSTORE PUSH2 0x4D9 PUSH1 0xFF DUP5 DUP10 KECCAK256 SLOAD AND PUSH2 0x223E JUMP JUMPDEST PUSH2 0x4E1 PUSH2 0x2432 JUMP JUMPDEST PUSH2 0x4E9 PUSH2 0x2414 JUMP JUMPDEST PUSH2 0x4F4 DUP3 ISZERO ISZERO PUSH2 0x2296 JUMP JUMPDEST PUSH2 0x561 DUP3 PUSH1 0x1 DUP1 PUSH1 0xA0 SHL SUB SWAP7 DUP8 DUP2 AND SWAP8 DUP9 DUP12 MSTORE PUSH1 0x8 DUP6 MSTORE DUP7 DUP12 KECCAK256 SWAP10 AND SWAP9 DUP10 DUP12 MSTORE DUP5 MSTORE PUSH2 0x525 DUP3 DUP8 DUP13 KECCAK256 SLOAD LT ISZERO PUSH2 0x2455 JUMP JUMPDEST DUP8 DUP11 MSTORE PUSH1 0x8 DUP5 MSTORE DUP6 DUP11 KECCAK256 DUP10 DUP12 MSTORE DUP5 MSTORE DUP6 DUP11 KECCAK256 PUSH2 0x542 DUP4 DUP3 SLOAD PUSH2 0x24AC JUMP JUMPDEST SWAP1 SSTORE DUP9 DUP11 MSTORE PUSH1 0x3 DUP5 MSTORE DUP6 DUP11 KECCAK256 PUSH2 0x559 DUP4 DUP3 SLOAD PUSH2 0x24AC JUMP JUMPDEST SWAP1 SSTORE DUP9 PUSH2 0x24B9 JUMP JUMPDEST DUP3 MLOAD SWAP2 DUP3 MSTORE TIMESTAMP SWAP1 DUP3 ADD MSTORE LOG3 PUSH1 0x1 DUP1 SSTORE DUP1 RETURN JUMPDEST POP POP CALLVALUE PUSH2 0x3FB JUMPI PUSH1 0x20 CALLDATASIZE PUSH1 0x3 NOT ADD SLT PUSH2 0x3FB JUMPI PUSH1 0x20 SWAP2 DUP2 SWAP1 PUSH1 0x1 PUSH1 0x1 PUSH1 0xA0 SHL SUB PUSH2 0x59B PUSH2 0x1F5F JUMP JUMPDEST AND DUP2 MSTORE PUSH1 0x3 DUP5 MSTORE KECCAK256 SLOAD SWAP1 MLOAD SWAP1 DUP2 MSTORE RETURN JUMPDEST DUP1 DUP5 DUP5 CALLVALUE PUSH2 0x6E7 JUMPI PUSH1 0x80 CALLDATASIZE PUSH1 0x3 NOT ADD SLT PUSH2 0x6E7 JUMPI DUP2 PUSH1 0x0 DUP1 MLOAD PUSH1 0x20 PUSH2 0x2742 DUP4 CODECOPY DUP2 MLOAD SWAP2 MSTORE SWAP3 PUSH1 0x60 DUP6 PUSH1 0xA0 SWAP5 PUSH2 0x5DE PUSH2 0x1F5F JUMP JUMPDEST SWAP1 PUSH1 0x24 CALLDATALOAD PUSH1 0x44 CALLDATALOAD SWAP2 PUSH2 0x657 PUSH1 0x64 CALLDATALOAD SWAP5 PUSH1 0x0 DUP1 MLOAD PUSH1 0x20 PUSH2 0x27C2 DUP4 CODECOPY DUP2 MLOAD SWAP2 MSTORE DUP8 MSTORE PUSH2 0x61A PUSH1 0xFF DUP11 PUSH1 0x20 SWAP10 DUP1 DUP12 MSTORE DUP2 DUP2 KECCAK256 CALLER DUP3 MSTORE DUP12 MSTORE KECCAK256 SLOAD AND PUSH2 0x223E JUMP JUMPDEST PUSH2 0x622 PUSH2 0x2432 JUMP JUMPDEST PUSH2 0x62A PUSH2 0x2414 JUMP JUMPDEST PUSH2 0x63D DUP7 PUSH2 0x638 DUP8 DUP8 PUSH2 0x22F6 JUMP JUMPDEST PUSH2 0x22F6 JUMP JUMPDEST SWAP10 DUP11 SWAP2 PUSH1 0x1 DUP1 DUP15 SHL SUB AND SWAP14 DUP15 DUP2 MSTORE DUP5 DUP10 MSTORE KECCAK256 SLOAD LT ISZERO PUSH2 0x25B6 JUMP JUMPDEST DUP11 DUP13 MSTORE DUP5 MSTORE DUP6 DUP12 KECCAK256 PUSH2 0x66A DUP9 DUP3 SLOAD PUSH2 0x24AC JUMP JUMPDEST SWAP1 SSTORE DUP10 DUP12 MSTORE PUSH1 0x5 DUP5 MSTORE PUSH2 0x681 DUP7 DUP13 KECCAK256 SWAP2 DUP3 SLOAD PUSH2 0x22F6 JUMP JUMPDEST SWAP1 SSTORE DUP9 DUP11 MSTORE PUSH1 0x6 DUP4 MSTORE PUSH2 0x698 DUP6 DUP12 KECCAK256 SWAP2 DUP3 SLOAD PUSH2 0x22F6 JUMP JUMPDEST SWAP1 SSTORE DUP8 DUP10 MSTORE PUSH1 0x7 DUP3 MSTORE PUSH2 0x6AF DUP5 DUP11 KECCAK256 SWAP2 DUP3 SLOAD PUSH2 0x22F6 JUMP JUMPDEST SWAP1 SSTORE DUP3 MLOAD SWAP4 DUP5 MSTORE DUP4 ADD MSTORE PUSH1 0x11 PUSH1 0x60 DUP4 ADD MSTORE PUSH17 0x383937B334BA2FB0B63637B1B0BA34B7B7 PUSH1 0x79 SHL PUSH1 0x80 DUP4 ADD MSTORE TIMESTAMP SWAP1 DUP3 ADD MSTORE LOG2 PUSH1 0x1 DUP1 SSTORE DUP1 RETURN JUMPDEST POP POP REVERT JUMPDEST POP SWAP1 CALLVALUE PUSH2 0x232 JUMPI PUSH2 0x6FB CALLDATASIZE PUSH2 0x2021 JUMP JUMPDEST SWAP3 SWAP2 SWAP1 SWAP4 PUSH1 0x0 DUP1 MLOAD PUSH1 0x20 PUSH2 0x27C2 DUP4 CODECOPY DUP2 MLOAD SWAP2 MSTORE DUP7 MSTORE PUSH1 0x20 SWAP2 DUP7 DUP4 MSTORE DUP4 DUP8 KECCAK256 CALLER DUP9 MSTORE DUP4 MSTORE PUSH2 0x72D PUSH1 0xFF DUP6 DUP10 KECCAK256 SLOAD AND PUSH2 0x223E JUMP JUMPDEST PUSH2 0x735 PUSH2 0x2432 JUMP JUMPDEST PUSH2 0x73D PUSH2 0x2414 JUMP JUMPDEST PUSH2 0x748 DUP6 ISZERO ISZERO PUSH2 0x2296 JUMP JUMPDEST PUSH1 0x1 PUSH1 0x1 PUSH1 0xA0 SHL SUB SWAP1 DUP2 AND DUP1 DUP9 MSTORE PUSH1 0x8 DUP5 MSTORE DUP5 DUP9 KECCAK256 SWAP7 SWAP1 SWAP2 AND DUP1 DUP9 MSTORE SWAP6 DUP4 MSTORE DUP4 DUP8 KECCAK256 SLOAD DUP6 GT PUSH2 0x7FF JUMPI PUSH1 0x0 DUP1 MLOAD PUSH1 0x20 PUSH2 0x2722 DUP4 CODECOPY DUP2 MLOAD SWAP2 MSTORE SWAP5 SWAP3 PUSH1 0xA0 SWAP5 SWAP3 PUSH1 0x60 SWAP3 DUP10 MSTORE PUSH1 0x8 DUP3 MSTORE DUP4 DUP10 KECCAK256 DUP9 DUP11 MSTORE DUP3 MSTORE DUP4 DUP10 KECCAK256 PUSH2 0x7A5 DUP7 DUP3 SLOAD PUSH2 0x24AC JUMP JUMPDEST SWAP1 SSTORE DUP8 DUP10 MSTORE PUSH1 0x3 DUP3 MSTORE DUP4 DUP10 KECCAK256 PUSH2 0x7BC DUP7 DUP3 SLOAD PUSH2 0x24AC JUMP JUMPDEST SWAP1 SSTORE DUP8 DUP10 MSTORE DUP2 MSTORE DUP3 DUP9 KECCAK256 PUSH2 0x7D1 DUP6 DUP3 SLOAD PUSH2 0x22F6 JUMP JUMPDEST SWAP1 SSTORE DUP3 MLOAD SWAP4 DUP5 MSTORE DUP4 ADD MSTORE PUSH1 0x7 PUSH1 0x60 DUP4 ADD MSTORE PUSH7 0x70656E616C7479 PUSH1 0xC8 SHL PUSH1 0x80 DUP4 ADD MSTORE TIMESTAMP SWAP1 DUP3 ADD MSTORE LOG2 PUSH1 0x1 DUP1 SSTORE DUP1 RETURN JUMPDEST POP SWAP2 MLOAD PUSH3 0x461BCD PUSH1 0xE5 SHL DUP2 MSTORE SWAP2 DUP3 ADD MSTORE PUSH1 0x27 PUSH1 0x24 DUP3 ADD MSTORE PUSH32 0x5661756C744D616E616765723A20696E73756666696369656E74207573657220 PUSH1 0x44 DUP3 ADD MSTORE PUSH7 0x62616C616E6365 PUSH1 0xC8 SHL PUSH1 0x64 DUP3 ADD MSTORE PUSH1 0x84 SWAP1 REVERT JUMPDEST POP POP CALLVALUE PUSH2 0x3FB JUMPI DUP2 PUSH1 0x3 NOT CALLDATASIZE ADD SLT PUSH2 0x3FB JUMPI PUSH1 0x20 SWAP1 MLOAD PUSH1 0x0 DUP1 MLOAD PUSH1 0x20 PUSH2 0x27C2 DUP4 CODECOPY DUP2 MLOAD SWAP2 MSTORE DUP2 MSTORE RETURN JUMPDEST POP POP CALLVALUE PUSH2 0x3FB JUMPI PUSH1 0x0 DUP1 MLOAD PUSH1 0x20 PUSH2 0x2742 DUP4 CODECOPY DUP2 MLOAD SWAP2 MSTORE PUSH1 0xA0 PUSH2 0x91E PUSH2 0x89E CALLDATASIZE PUSH2 0x1FED JUMP JUMPDEST SWAP6 SWAP2 SWAP1 DUP1 SWAP4 SWAP2 PUSH1 0x0 DUP1 MLOAD PUSH1 0x20 PUSH2 0x27C2 DUP4 CODECOPY DUP2 MLOAD SWAP2 MSTORE DUP10 MSTORE DUP9 PUSH1 0x20 MSTORE DUP4 DUP10 KECCAK256 CALLER DUP11 MSTORE PUSH1 0x20 MSTORE PUSH2 0x8D1 PUSH1 0xFF DUP6 DUP12 KECCAK256 SLOAD AND PUSH2 0x223E JUMP JUMPDEST PUSH2 0x8D9 PUSH2 0x2432 JUMP JUMPDEST PUSH2 0x8E1 PUSH2 0x2414 JUMP JUMPDEST PUSH1 0x1 DUP1 DUP8 SHL SUB AND SWAP7 DUP8 DUP10 MSTORE PUSH1 0x6 PUSH1 0x20 MSTORE PUSH2 0x900 DUP3 DUP6 DUP12 KECCAK256 SLOAD LT ISZERO PUSH2 0x2612 JUMP JUMPDEST DUP8 DUP10 MSTORE PUSH1 0x6 PUSH1 0x20 MSTORE DUP4 DUP10 KECCAK256 PUSH2 0x916 DUP4 DUP3 SLOAD PUSH2 0x24AC JUMP JUMPDEST SWAP1 SSTORE DUP8 PUSH2 0x24B9 JUMP JUMPDEST DUP1 MLOAD SWAP2 DUP3 MSTORE PUSH1 0x60 PUSH1 0x20 DUP4 ADD MSTORE PUSH1 0x11 PUSH1 0x60 DUP4 ADD MSTORE PUSH17 0x696E7465726163745F7769746864726177 PUSH1 0x78 SHL PUSH1 0x80 DUP4 ADD MSTORE TIMESTAMP SWAP1 DUP3 ADD MSTORE LOG2 PUSH1 0x1 DUP1 SSTORE DUP1 RETURN JUMPDEST POP POP CALLVALUE PUSH2 0x3FB JUMPI DUP1 PUSH1 0x3 NOT CALLDATASIZE ADD SLT PUSH2 0x3FB JUMPI DUP1 PUSH1 0x20 SWAP3 PUSH2 0x976 PUSH2 0x1F5F JUMP JUMPDEST PUSH2 0x97E PUSH2 0x1F7A JUMP JUMPDEST PUSH1 0x1 PUSH1 0x1 PUSH1 0xA0 SHL SUB SWAP2 DUP3 AND DUP4 MSTORE PUSH1 0x8 DUP7 MSTORE DUP4 DUP4 KECCAK256 SWAP2 AND DUP3 MSTORE DUP5 MSTORE KECCAK256 SLOAD SWAP1 MLOAD SWAP1 DUP2 MSTORE RETURN JUMPDEST POP POP CALLVALUE PUSH2 0x3FB JUMPI DUP2 PUSH1 0x3 NOT CALLDATASIZE ADD SLT PUSH2 0x3FB JUMPI MLOAD SWAP1 DUP2 MSTORE PUSH1 0x20 SWAP1 RETURN JUMPDEST POP CALLVALUE PUSH2 0x232 JUMPI DUP2 PUSH1 0x3 NOT CALLDATASIZE ADD SLT PUSH2 0x232 JUMPI DUP2 PUSH1 0x20 SWAP4 PUSH1 0xFF SWAP3 PUSH2 0x9DC PUSH2 0x1F7A JUMP JUMPDEST SWAP1 CALLDATALOAD DUP3 MSTORE DUP2 DUP7 MSTORE DUP3 DUP3 KECCAK256 PUSH1 0x1 PUSH1 0x1 PUSH1 0xA0 SHL SUB SWAP1 SWAP2 AND DUP3 MSTORE DUP6 MSTORE KECCAK256 SLOAD SWAP2 MLOAD SWAP2 AND ISZERO ISZERO DUP2 MSTORE RETURN JUMPDEST POP POP CALLVALUE PUSH2 0x3FB JUMPI DUP2 PUSH1 0x3 NOT CALLDATASIZE ADD SLT PUSH2 0x3FB JUMPI PUSH1 0x20 PUSH32 0x62E78CEA01BEE320CD4E420270B5EA74000D11B0C9F74754EBDBFC544B05A258 SWAP2 PUSH2 0xA3F PUSH2 0x2056 JUMP JUMPDEST PUSH2 0xA47 PUSH2 0x2414 JUMP JUMPDEST PUSH1 0x1 PUSH1 0xFF NOT PUSH1 0x2 SLOAD AND OR PUSH1 0x2 SSTORE MLOAD CALLER DUP2 MSTORE LOG1 DUP1 RETURN JUMPDEST POP POP CALLVALUE PUSH2 0x3FB JUMPI PUSH1 0x20 CALLDATASIZE PUSH1 0x3 NOT ADD SLT PUSH2 0x3FB JUMPI PUSH1 0x20 SWAP2 DUP2 SWAP1 PUSH1 0x1 PUSH1 0x1 PUSH1 0xA0 SHL SUB PUSH2 0xA84 PUSH2 0x1F5F JUMP JUMPDEST AND DUP2 MSTORE PUSH1 0x5 DUP5 MSTORE KECCAK256 SLOAD SWAP1 MLOAD SWAP1 DUP2 MSTORE RETURN JUMPDEST POP POP CALLVALUE PUSH2 0x3FB JUMPI DUP2 PUSH1 0x3 NOT CALLDATASIZE ADD SLT PUSH2 0x3FB JUMPI PUSH1 0x2 SLOAD SWAP1 MLOAD PUSH1 0x8 SWAP2 SWAP1 SWAP2 SHR PUSH1 0x1 PUSH1 0x1 PUSH1 0xA0 SHL SUB AND DUP2 MSTORE PUSH1 0x20 SWAP1 RETURN JUMPDEST POP POP CALLVALUE PUSH2 0x3FB JUMPI PUSH2 0xB52 SWAP1 PUSH2 0xAD5 CALLDATASIZE PUSH2 0x1FED JUMP JUMPDEST SWAP2 PUSH1 0x0 DUP1 MLOAD PUSH1 0x20 PUSH2 0x27C2 DUP4 CODECOPY DUP2 MLOAD SWAP2 MSTORE DUP7 SWAP5 SWAP3 SWAP5 MSTORE DUP6 PUSH1 0x20 MSTORE DUP2 DUP7 KECCAK256 CALLER DUP8 MSTORE PUSH1 0x20 MSTORE PUSH2 0xB06 PUSH1 0xFF DUP4 DUP9 KECCAK256 SLOAD AND PUSH2 0x223E JUMP JUMPDEST PUSH2 0xB0E PUSH2 0x2432 JUMP JUMPDEST PUSH2 0xB16 PUSH2 0x2414 JUMP JUMPDEST PUSH1 0x1 DUP1 PUSH1 0xA0 SHL SUB AND SWAP1 DUP2 DUP7 MSTORE PUSH1 0x6 PUSH1 0x20 MSTORE PUSH2 0xB36 DUP5 DUP3 DUP9 KECCAK256 SLOAD LT ISZERO PUSH2 0x2612 JUMP JUMPDEST DUP2 DUP7 MSTORE PUSH1 0x6 PUSH1 0x20 MSTORE DUP6 KECCAK256 PUSH2 0xB4B DUP5 DUP3 SLOAD PUSH2 0x24AC JUMP JUMPDEST SWAP1 SSTORE PUSH2 0x24B9 JUMP JUMPDEST PUSH1 0x1 DUP1 SSTORE DUP1 RETURN JUMPDEST POP POP CALLVALUE PUSH2 0x3FB JUMPI PUSH1 0x0 DUP1 MLOAD PUSH1 0x20 PUSH2 0x2742 DUP4 CODECOPY DUP2 MLOAD SWAP2 MSTORE PUSH1 0xA0 PUSH2 0xBF5 PUSH2 0xB7D CALLDATASIZE PUSH2 0x1FED JUMP JUMPDEST SWAP6 SWAP2 SWAP1 DUP1 SWAP4 SWAP2 PUSH1 0x0 DUP1 MLOAD PUSH1 0x20 PUSH2 0x27C2 DUP4 CODECOPY DUP2 MLOAD SWAP2 MSTORE DUP10 MSTORE DUP9 PUSH1 0x20 MSTORE DUP4 DUP10 KECCAK256 CALLER DUP11 MSTORE PUSH1 0x20 MSTORE PUSH2 0xBB0 PUSH1 0xFF DUP6 DUP12 KECCAK256 SLOAD AND PUSH2 0x223E JUMP JUMPDEST PUSH2 0xBB8 PUSH2 0x2432 JUMP JUMPDEST PUSH2 0xBC0 PUSH2 0x2414 JUMP JUMPDEST PUSH1 0x1 DUP1 DUP8 SHL SUB AND SWAP7 DUP8 DUP10 MSTORE PUSH1 0x7 PUSH1 0x20 MSTORE PUSH2 0xBDF DUP3 DUP6 DUP12 KECCAK256 SLOAD LT ISZERO PUSH2 0x266F JUMP JUMPDEST DUP8 DUP10 MSTORE PUSH1 0x7 PUSH1 0x20 MSTORE DUP4 DUP10 KECCAK256 PUSH2 0x916 DUP4 DUP3 SLOAD PUSH2 0x24AC JUMP JUMPDEST DUP1 MLOAD SWAP2 DUP3 MSTORE PUSH1 0x60 PUSH1 0x20 DUP4 ADD MSTORE PUSH1 0x11 PUSH1 0x60 DUP4 ADD MSTORE PUSH17 0x646F6E6174696F6E5F7769746864726177 PUSH1 0x78 SHL PUSH1 0x80 DUP4 ADD MSTORE TIMESTAMP SWAP1 DUP3 ADD MSTORE LOG2 PUSH1 0x1 DUP1 SSTORE DUP1 RETURN JUMPDEST POP POP CALLVALUE PUSH2 0x3FB JUMPI DUP1 PUSH1 0x3 NOT CALLDATASIZE ADD SLT PUSH2 0x3FB JUMPI PUSH1 0x0 DUP1 MLOAD PUSH1 0x20 PUSH2 0x2742 DUP4 CODECOPY DUP2 MLOAD SWAP2 MSTORE PUSH1 0xA0 PUSH2 0xC5A PUSH2 0x1F5F JUMP JUMPDEST PUSH1 0x24 CALLDATALOAD SWAP1 PUSH1 0x0 DUP1 MLOAD PUSH1 0x20 PUSH2 0x27C2 DUP4 CODECOPY DUP2 MLOAD SWAP2 MSTORE DUP7 MSTORE DUP6 PUSH1 0x20 MSTORE DUP5 DUP7 KECCAK256 CALLER DUP8 MSTORE PUSH1 0x20 MSTORE PUSH2 0xC8B PUSH1 0xFF DUP7 DUP9 KECCAK256 SLOAD AND PUSH2 0x223E JUMP JUMPDEST PUSH2 0xC93 PUSH2 0x2432 JUMP JUMPDEST PUSH2 0xC9B PUSH2 0x2414 JUMP JUMPDEST PUSH2 0xCA6 DUP3 ISZERO ISZERO PUSH2 0x2296 JUMP JUMPDEST PUSH1 0x1 DUP1 DUP5 SHL SUB AND SWAP4 PUSH2 0xCBA DUP3 ADDRESS CALLER DUP9 PUSH2 0x2352 JUMP JUMPDEST DUP5 DUP7 MSTORE PUSH1 0x6 PUSH1 0x20 MSTORE DUP1 DUP7 KECCAK256 PUSH2 0xCD0 DUP4 DUP3 SLOAD PUSH2 0x22F6 JUMP JUMPDEST SWAP1 SSTORE DUP1 MLOAD SWAP2 DUP3 MSTORE PUSH1 0x60 PUSH1 0x20 DUP4 ADD MSTORE PUSH1 0x10 PUSH1 0x60 DUP4 ADD MSTORE PUSH16 0x1A5B9D195C9858DD17D9195C1BDCDA5D PUSH1 0x82 SHL PUSH1 0x80 DUP4 ADD MSTORE TIMESTAMP SWAP1 DUP3 ADD MSTORE LOG2 PUSH1 0x1 DUP1 SSTORE DUP1 RETURN JUMPDEST POP POP CALLVALUE PUSH2 0x3FB JUMPI DUP2 PUSH1 0x3 NOT CALLDATASIZE ADD SLT PUSH2 0x3FB JUMPI PUSH1 0x20 SWAP1 PUSH1 0xFF PUSH1 0x2 SLOAD AND SWAP1 MLOAD SWAP1 ISZERO ISZERO DUP2 MSTORE RETURN JUMPDEST POP POP CALLVALUE PUSH2 0x3FB JUMPI PUSH1 0x0 DUP1 MLOAD PUSH1 0x20 PUSH2 0x27A2 DUP4 CODECOPY DUP2 MLOAD SWAP2 MSTORE SWAP1 PUSH2 0xD4F CALLDATASIZE PUSH2 0x2021 JUMP JUMPDEST PUSH2 0xD5C SWAP5 SWAP3 SWAP4 SWAP2 SWAP5 PUSH2 0x2056 JUMP JUMPDEST PUSH1 0x1 PUSH1 0x1 PUSH1 0xA0 SHL SUB SWAP4 DUP5 AND DUP1 DUP8 MSTORE PUSH1 0x8 PUSH1 0x20 SWAP1 DUP2 MSTORE DUP4 DUP9 KECCAK256 SWAP7 SWAP1 SWAP6 AND DUP1 DUP9 MSTORE SWAP6 DUP6 MSTORE DUP3 DUP8 KECCAK256 SLOAD SWAP1 SWAP5 SWAP1 DUP1 DUP4 GT ISZERO PUSH2 0xDD1 JUMPI PUSH2 0xD97 SWAP1 DUP4 PUSH2 0x24AC JUMP JUMPDEST DUP7 DUP9 MSTORE PUSH1 0x3 DUP3 MSTORE PUSH2 0xDAC DUP5 DUP10 KECCAK256 SWAP2 DUP3 SLOAD PUSH2 0x22F6 JUMP JUMPDEST SWAP1 SSTORE JUMPDEST DUP5 DUP8 MSTORE PUSH1 0x8 DUP2 MSTORE DUP3 DUP8 KECCAK256 DUP7 DUP9 MSTORE DUP2 MSTORE DUP2 DUP4 DUP9 KECCAK256 SSTORE DUP3 MLOAD SWAP2 DUP3 MSTORE TIMESTAMP SWAP1 DUP3 ADD MSTORE LOG3 DUP1 RETURN JUMPDEST DUP3 DUP2 DUP2 LT PUSH2 0xDE1 JUMPI JUMPDEST POP POP PUSH2 0xDAF JUMP JUMPDEST PUSH2 0xDEA SWAP2 PUSH2 0x24AC JUMP JUMPDEST DUP7 DUP9 MSTORE PUSH1 0x3 DUP3 MSTORE PUSH2 0xDFF DUP5 DUP10 KECCAK256 SWAP2 DUP3 SLOAD PUSH2 0x24AC JUMP JUMPDEST SWAP1 SSTORE CODESIZE DUP3 PUSH2 0xDDA JUMP JUMPDEST POP POP CALLVALUE PUSH2 0x3FB JUMPI PUSH1 0x0 DUP1 MLOAD PUSH1 0x20 PUSH2 0x27A2 DUP4 CODECOPY DUP2 MLOAD SWAP2 MSTORE SWAP1 PUSH2 0xE28 CALLDATASIZE PUSH2 0x2021 JUMP JUMPDEST PUSH1 0x0 DUP1 MLOAD PUSH1 0x20 PUSH2 0x27C2 DUP4 CODECOPY DUP2 MLOAD SWAP2 MSTORE DUP7 SWAP6 SWAP4 SWAP6 SWAP5 SWAP3 SWAP5 MSTORE PUSH1 0x20 SWAP4 DUP7 DUP6 MSTORE DUP3 DUP8 KECCAK256 CALLER DUP9 MSTORE DUP6 MSTORE PUSH2 0xE5C PUSH1 0xFF DUP5 DUP10 KECCAK256 SLOAD AND PUSH2 0x223E JUMP JUMPDEST PUSH2 0xE64 PUSH2 0x2432 JUMP JUMPDEST PUSH2 0xE6C PUSH2 0x2414 JUMP JUMPDEST PUSH2 0xE77 DUP3 ISZERO ISZERO PUSH2 0x2296 JUMP JUMPDEST PUSH1 0x1 PUSH1 0x1 PUSH1 0xA0 SHL SUB SWAP1 DUP2 AND SWAP6 PUSH2 0xE8F DUP4 ADDRESS DUP4 DUP11 PUSH2 0x2352 JUMP JUMPDEST AND SWAP4 DUP5 DUP8 MSTORE PUSH1 0x8 DUP2 MSTORE DUP3 DUP8 KECCAK256 DUP7 DUP9 MSTORE DUP2 MSTORE DUP3 DUP8 KECCAK256 PUSH2 0xEAE DUP4 DUP3 SLOAD PUSH2 0x22F6 JUMP JUMPDEST SWAP1 SSTORE DUP6 DUP8 MSTORE PUSH1 0x3 DUP2 MSTORE DUP3 DUP8 KECCAK256 PUSH2 0xEC5 DUP4 DUP3 SLOAD PUSH2 0x22F6 JUMP JUMPDEST SWAP1 SSTORE DUP3 MLOAD SWAP2 DUP3 MSTORE TIMESTAMP SWAP1 DUP3 ADD MSTORE LOG3 PUSH1 0x1 DUP1 SSTORE DUP1 RETURN JUMPDEST POP POP CALLVALUE PUSH2 0x3FB JUMPI DUP1 PUSH1 0x3 NOT CALLDATASIZE ADD SLT PUSH2 0x3FB JUMPI PUSH1 0x0 DUP1 MLOAD PUSH1 0x20 PUSH2 0x2742 DUP4 CODECOPY DUP2 MLOAD SWAP2 MSTORE PUSH1 0xA0 PUSH2 0xF04 PUSH2 0x1F5F JUMP JUMPDEST PUSH1 0x24 CALLDATALOAD SWAP1 PUSH1 0x0 DUP1 MLOAD PUSH1 0x20 PUSH2 0x27C2 DUP4 CODECOPY DUP2 MLOAD SWAP2 MSTORE DUP7 MSTORE DUP6 PUSH1 0x20 MSTORE DUP5 DUP7 KECCAK256 CALLER DUP8 MSTORE PUSH1 0x20 MSTORE PUSH2 0xF35 PUSH1 0xFF DUP7 DUP9 KECCAK256 SLOAD AND PUSH2 0x223E JUMP JUMPDEST PUSH2 0xF3D PUSH2 0x2432 JUMP JUMPDEST PUSH2 0xF45 PUSH2 0x2414 JUMP JUMPDEST PUSH2 0xF50 DUP3 ISZERO ISZERO PUSH2 0x2296 JUMP JUMPDEST PUSH1 0x1 DUP1 DUP5 SHL SUB AND SWAP4 PUSH2 0xF64 DUP3 ADDRESS CALLER DUP9 PUSH2 0x2352 JUMP JUMPDEST DUP5 DUP7 MSTORE PUSH1 0x5 PUSH1 0x20 MSTORE DUP1 DUP7 KECCAK256 PUSH2 0xF7A DUP4 DUP3 SLOAD PUSH2 0x22F6 JUMP JUMPDEST SWAP1 SSTORE DUP1 MLOAD SWAP2 DUP3 MSTORE PUSH1 0x60 PUSH1 0x20 DUP4 ADD MSTORE PUSH1 0xA PUSH1 0x60 DUP4 ADD MSTORE PUSH10 0x1B1C17D9195C1BDCDA5D PUSH1 0xB2 SHL PUSH1 0x80 DUP4 ADD MSTORE TIMESTAMP SWAP1 DUP3 ADD MSTORE LOG2 PUSH1 0x1 DUP1 SSTORE DUP1 RETURN JUMPDEST POP CALLVALUE PUSH2 0x232 JUMPI DUP3 PUSH1 0x3 NOT CALLDATASIZE ADD SLT PUSH2 0x232 JUMPI PUSH2 0xFC8 PUSH2 0x2056 JUMP JUMPDEST PUSH1 0x2 SLOAD SWAP1 PUSH1 0xFF DUP3 AND ISZERO PUSH2 0x100A JUMPI POP PUSH1 0xFF NOT AND PUSH1 0x2 SSTORE MLOAD CALLER DUP2 MSTORE PUSH32 0x5DB9EE0A495BF2E6FF9C91A7834C1BA4FDD244A5E8AA4E537BD38AEAE4B073AA SWAP1 PUSH1 0x20 SWAP1 LOG1 DUP1 RETURN JUMPDEST DUP3 MLOAD PUSH4 0x8DFC202B PUSH1 0xE0 SHL DUP2 MSTORE REVERT JUMPDEST POP CALLVALUE PUSH2 0x232 JUMPI PUSH1 0x20 CALLDATASIZE PUSH1 0x3 NOT ADD SLT PUSH2 0x232 JUMPI PUSH1 0x20 SWAP3 DUP3 SWAP2 PUSH1 0x1 PUSH1 0x1 PUSH1 0xA0 SHL SUB PUSH2 0x224 PUSH2 0x1F5F JUMP JUMPDEST POP SWAP2 SWAP1 CALLVALUE PUSH2 0x3FB JUMPI DUP1 PUSH1 0x3 NOT CALLDATASIZE ADD SLT PUSH2 0x3FB JUMPI PUSH2 0x105A PUSH2 0x1F7A JUMP JUMPDEST SWAP1 CALLER PUSH1 0x1 PUSH1 0x1 PUSH1 0xA0 SHL SUB DUP4 AND SUB PUSH2 0x1077 JUMPI POP PUSH2 0x439 SWAP2 SWAP3 CALLDATALOAD PUSH2 0x21C9 JUMP JUMPDEST MLOAD PUSH4 0x334BD919 PUSH1 0xE1 SHL DUP2 MSTORE DUP4 SWAP1 REVERT JUMPDEST POP SWAP1 CALLVALUE PUSH2 0x232 JUMPI PUSH2 0x1096 CALLDATASIZE PUSH2 0x1FED JUMP JUMPDEST PUSH1 0x0 DUP1 MLOAD PUSH1 0x20 PUSH2 0x27C2 DUP4 CODECOPY DUP2 MLOAD SWAP2 MSTORE DUP7 SWAP5 SWAP4 SWAP3 SWAP5 MSTORE PUSH1 0x20 SWAP2 DUP7 DUP4 MSTORE DUP4 DUP8 KECCAK256 CALLER DUP9 MSTORE DUP4 MSTORE PUSH2 0x10C8 PUSH1 0xFF DUP6 DUP10 KECCAK256 SLOAD AND PUSH2 0x223E JUMP JUMPDEST PUSH2 0x10D0 PUSH2 0x2432 JUMP JUMPDEST PUSH2 0x10D8 PUSH2 0x2414 JUMP JUMPDEST PUSH1 0x1 PUSH1 0x1 PUSH1 0xA0 SHL SUB AND DUP1 DUP8 MSTORE PUSH1 0x5 DUP4 MSTORE DUP4 DUP8 KECCAK256 SLOAD SWAP1 SWAP6 SWAP1 DUP6 GT PUSH2 0x115E JUMPI POP SWAP2 PUSH1 0x60 DUP5 SWAP3 PUSH2 0x112E PUSH1 0x0 DUP1 MLOAD PUSH1 0x20 PUSH2 0x2742 DUP4 CODECOPY DUP2 MLOAD SWAP2 MSTORE SWAP7 PUSH1 0xA0 SWAP7 DUP10 DUP12 MSTORE PUSH1 0x5 DUP5 MSTORE DUP6 DUP12 KECCAK256 PUSH2 0x1126 DUP4 DUP3 SLOAD PUSH2 0x24AC JUMP JUMPDEST SWAP1 SSTORE DUP10 PUSH2 0x24B9 JUMP JUMPDEST DUP3 MLOAD SWAP4 DUP5 MSTORE DUP4 ADD MSTORE PUSH1 0xB PUSH1 0x60 DUP4 ADD MSTORE PUSH11 0x6C705F7769746864726177 PUSH1 0xA8 SHL PUSH1 0x80 DUP4 ADD MSTORE TIMESTAMP SWAP1 DUP3 ADD MSTORE LOG2 PUSH1 0x1 DUP1 SSTORE DUP1 RETURN JUMPDEST DUP4 MLOAD PUSH3 0x461BCD PUSH1 0xE5 SHL DUP2 MSTORE SWAP1 DUP2 ADD DUP4 SWAP1 MSTORE PUSH1 0x22 PUSH1 0x24 DUP3 ADD MSTORE PUSH32 0x5661756C744D616E616765723A20696E73756666696369656E74204C5020706F PUSH1 0x44 DUP3 ADD MSTORE PUSH2 0x1BDB PUSH1 0xF2 SHL PUSH1 0x64 DUP3 ADD MSTORE PUSH1 0x84 SWAP1 REVERT JUMPDEST POP CALLVALUE PUSH2 0x232 JUMPI PUSH1 0xA0 CALLDATASIZE PUSH1 0x3 NOT ADD SLT PUSH2 0x232 JUMPI PUSH2 0x11C6 PUSH2 0x1F5F JUMP JUMPDEST PUSH2 0x11CE PUSH2 0x1F7A JUMP JUMPDEST SWAP3 DUP5 PUSH1 0x44 CALLDATALOAD SWAP5 PUSH1 0x1 DUP1 PUSH1 0xA0 SHL SUB SWAP5 DUP6 DUP8 AND DUP1 SWAP8 SUB PUSH2 0x232 JUMPI PUSH1 0x84 CALLDATALOAD SWAP4 PUSH1 0x64 CALLDATALOAD SWAP1 PUSH1 0x1 PUSH1 0x1 PUSH1 0x40 SHL SUB DUP7 GT PUSH2 0x12C8 JUMPI DUP8 DUP10 SWAP5 PUSH2 0x1280 DUP5 DUP5 PUSH2 0x1223 PUSH2 0x12BE SWAP9 PUSH1 0x0 DUP1 MLOAD PUSH1 0x20 PUSH2 0x2782 DUP4 CODECOPY DUP2 MLOAD SWAP2 MSTORE SWAP13 CALLDATASIZE SWAP2 ADD PUSH2 0x1FC0 JUMP JUMPDEST SWAP11 SWAP1 SWAP10 PUSH1 0x0 DUP1 MLOAD PUSH1 0x20 PUSH2 0x27C2 DUP4 CODECOPY DUP2 MLOAD SWAP2 MSTORE DUP3 MSTORE PUSH1 0x20 SWAP15 DUP16 SWAP15 DUP16 DUP5 DUP2 MSTORE DUP6 DUP6 KECCAK256 SWAP1 CALLER DUP7 MSTORE MSTORE PUSH2 0x1257 PUSH1 0xFF DUP7 DUP7 KECCAK256 SLOAD AND PUSH2 0x223E JUMP JUMPDEST PUSH2 0x125F PUSH2 0x2432 JUMP JUMPDEST PUSH2 0x1267 PUSH2 0x2414 JUMP JUMPDEST AND SWAP14 DUP15 DUP4 MSTORE PUSH1 0x8 DUP2 MSTORE DUP4 DUP4 KECCAK256 SWAP2 DUP4 MSTORE MSTORE KECCAK256 SLOAD LT ISZERO PUSH2 0x2455 JUMP JUMPDEST DUP9 DUP13 MSTORE PUSH1 0x8 DUP11 MSTORE DUP3 DUP13 KECCAK256 DUP12 DUP14 MSTORE DUP11 MSTORE DUP3 DUP13 KECCAK256 PUSH2 0x129D DUP6 DUP3 SLOAD PUSH2 0x24AC JUMP JUMPDEST SWAP1 SSTORE AND SWAP8 DUP9 DUP12 MSTORE PUSH1 0x8 DUP2 MSTORE DUP2 DUP12 KECCAK256 SWAP1 DUP11 DUP13 MSTORE MSTORE DUP1 DUP11 KECCAK256 PUSH2 0x303 DUP4 DUP3 SLOAD PUSH2 0x22F6 JUMP JUMPDEST SUB SWAP1 LOG4 PUSH1 0x1 DUP1 SSTORE DUP1 RETURN JUMPDEST DUP5 DUP1 REVERT JUMPDEST POP SWAP1 CALLVALUE PUSH2 0x232 JUMPI DUP1 PUSH1 0x3 NOT CALLDATASIZE ADD SLT PUSH2 0x232 JUMPI PUSH2 0x439 SWAP2 CALLDATALOAD PUSH2 0x12F0 PUSH1 0x1 PUSH2 0x423 PUSH2 0x1F7A JUMP JUMPDEST PUSH2 0x2162 JUMP JUMPDEST POP POP CALLVALUE PUSH2 0x3FB JUMPI PUSH1 0x20 CALLDATASIZE PUSH1 0x3 NOT ADD SLT PUSH2 0x3FB JUMPI PUSH2 0x439 SWAP1 PUSH2 0x1340 PUSH1 0x1 PUSH2 0x1319 PUSH2 0x1F5F JUMP JUMPDEST SWAP3 PUSH2 0x1322 PUSH2 0x2056 JUMP JUMPDEST PUSH1 0x0 DUP1 MLOAD PUSH1 0x20 PUSH2 0x27C2 DUP4 CODECOPY DUP2 MLOAD SWAP2 MSTORE DUP7 MSTORE DUP6 PUSH1 0x20 MSTORE DUP6 KECCAK256 ADD SLOAD PUSH2 0x20AE JUMP JUMPDEST PUSH2 0x20D4 JUMP JUMPDEST POP CALLVALUE PUSH2 0x232 JUMPI PUSH1 0x20 CALLDATASIZE PUSH1 0x3 NOT ADD SLT PUSH2 0x232 JUMPI DUP2 PUSH1 0x20 SWAP4 PUSH1 0x1 SWAP3 CALLDATALOAD DUP2 MSTORE DUP1 DUP6 MSTORE KECCAK256 ADD SLOAD SWAP1 MLOAD SWAP1 DUP2 MSTORE RETURN JUMPDEST POP SWAP1 CALLVALUE PUSH2 0x232 JUMPI PUSH1 0x60 CALLDATASIZE PUSH1 0x3 NOT ADD SLT PUSH2 0x232 JUMPI PUSH2 0x1389 PUSH2 0x1F5F JUMP JUMPDEST PUSH1 0x1 PUSH1 0x1 PUSH1 0x40 SHL SUB SWAP3 SWAP1 SWAP2 SWAP1 PUSH1 0x24 CALLDATALOAD DUP5 DUP2 GT PUSH2 0x1553 JUMPI PUSH2 0x13AC SWAP1 CALLDATASIZE SWAP1 DUP4 ADD PUSH2 0x1F90 JUMP JUMPDEST SWAP5 PUSH1 0x44 CALLDATALOAD SWAP1 DUP2 GT PUSH2 0x154F JUMPI PUSH2 0x13C4 SWAP1 CALLDATASIZE SWAP1 DUP5 ADD PUSH2 0x1F90 JUMP JUMPDEST PUSH1 0x0 DUP1 MLOAD PUSH1 0x20 PUSH2 0x27C2 DUP4 CODECOPY DUP2 MLOAD SWAP2 MSTORE DUP9 SWAP7 SWAP3 SWAP7 MSTORE PUSH1 0x20 SWAP4 DUP9 DUP6 MSTORE DUP6 DUP10 KECCAK256 CALLER DUP11 MSTORE DUP6 MSTORE PUSH2 0x13F5 PUSH1 0xFF DUP8 DUP12 KECCAK256 SLOAD AND PUSH2 0x223E JUMP JUMPDEST PUSH2 0x13FD PUSH2 0x2432 JUMP JUMPDEST PUSH2 0x1405 PUSH2 0x2414 JUMP JUMPDEST DUP2 DUP9 SUB PUSH2 0x150C JUMPI POP DUP8 SWAP6 DUP9 JUMPDEST DUP3 DUP2 LT PUSH2 0x14E7 JUMPI POP PUSH1 0x1 DUP1 PUSH1 0xA0 SHL SUB DUP1 SWAP4 AND SWAP8 DUP9 DUP11 MSTORE PUSH1 0x7 DUP7 MSTORE PUSH2 0x143A DUP9 DUP9 DUP13 KECCAK256 SLOAD LT ISZERO PUSH2 0x266F JUMP JUMPDEST DUP9 DUP11 MSTORE PUSH1 0x7 DUP7 MSTORE DUP7 DUP11 KECCAK256 PUSH2 0x144F DUP10 DUP3 SLOAD PUSH2 0x24AC JUMP JUMPDEST SWAP1 SSTORE DUP10 JUMPDEST DUP2 DUP2 LT PUSH2 0x14A9 JUMPI DUP11 DUP11 PUSH1 0x0 DUP1 MLOAD PUSH1 0x20 PUSH2 0x2742 DUP4 CODECOPY DUP2 MLOAD SWAP2 MSTORE PUSH1 0xA0 DUP13 DUP13 PUSH1 0x60 DUP14 DUP3 MLOAD SWAP4 DUP5 MSTORE DUP4 ADD MSTORE PUSH1 0x12 PUSH1 0x60 DUP4 ADD MSTORE PUSH18 0xDCDEC8CABEE4CAEEC2E4C8E6BEC4C2E8C6D PUSH1 0x73 SHL PUSH1 0x80 DUP4 ADD MSTORE TIMESTAMP SWAP1 DUP3 ADD MSTORE LOG2 PUSH1 0x1 DUP1 SSTORE DUP1 RETURN JUMPDEST PUSH2 0x14B4 DUP2 DUP4 DUP9 PUSH2 0x26DB JUMP JUMPDEST CALLDATALOAD SWAP1 DUP6 DUP3 AND DUP3 SUB PUSH2 0x14E3 JUMPI PUSH2 0x14D9 PUSH2 0x14DE SWAP3 PUSH2 0x14D1 DUP4 DUP9 DUP9 PUSH2 0x26DB JUMP JUMPDEST CALLDATALOAD SWAP1 DUP14 PUSH2 0x24B9 JUMP JUMPDEST PUSH2 0x26CC JUMP JUMPDEST PUSH2 0x1453 JUMP JUMPDEST DUP12 DUP1 REVERT JUMPDEST SWAP7 PUSH2 0x1501 PUSH2 0x1507 SWAP2 PUSH2 0x14FA DUP11 DUP7 DUP7 PUSH2 0x26DB JUMP JUMPDEST CALLDATALOAD SWAP1 PUSH2 0x22F6 JUMP JUMPDEST SWAP8 PUSH2 0x26CC JUMP JUMPDEST PUSH2 0x1411 JUMP JUMPDEST DUP6 MLOAD PUSH3 0x461BCD PUSH1 0xE5 SHL DUP2 MSTORE SWAP1 DUP2 ADD DUP6 SWAP1 MSTORE PUSH1 0x1D PUSH1 0x24 DUP3 ADD MSTORE PUSH32 0x5661756C744D616E616765723A206C656E677468206D69736D61746368000000 PUSH1 0x44 DUP3 ADD MSTORE PUSH1 0x64 SWAP1 REVERT JUMPDEST DUP7 DUP1 REVERT JUMPDEST DUP6 DUP1 REVERT JUMPDEST DUP4 CALLVALUE PUSH2 0x15A1 JUMPI PUSH1 0x20 CALLDATASIZE PUSH1 0x3 NOT ADD SLT PUSH2 0x15A1 JUMPI PUSH2 0x1571 PUSH2 0x1F5F JUMP JUMPDEST PUSH2 0x1579 PUSH2 0x2056 JUMP JUMPDEST PUSH1 0x2 DUP1 SLOAD PUSH2 0x100 PUSH1 0x1 PUSH1 0xA8 SHL SUB NOT AND PUSH1 0x8 SWAP3 SWAP1 SWAP3 SHL PUSH2 0x100 PUSH1 0x1 PUSH1 0xA8 SHL SUB AND SWAP2 SWAP1 SWAP2 OR SWAP1 SSTORE DUP1 RETURN JUMPDEST DUP1 REVERT JUMPDEST POP POP CALLVALUE PUSH2 0x3FB JUMPI PUSH1 0x20 CALLDATASIZE PUSH1 0x3 NOT ADD SLT PUSH2 0x3FB JUMPI PUSH1 0x20 SWAP2 DUP2 SWAP1 PUSH1 0x1 PUSH1 0x1 PUSH1 0xA0 SHL SUB PUSH2 0x15CC PUSH2 0x1F5F JUMP JUMPDEST AND DUP2 MSTORE PUSH1 0x6 DUP5 MSTORE KECCAK256 SLOAD SWAP1 MLOAD SWAP1 DUP2 MSTORE RETURN JUMPDEST POP SWAP1 CALLVALUE PUSH2 0x232 JUMPI DUP1 PUSH1 0x3 NOT CALLDATASIZE ADD SLT PUSH2 0x232 JUMPI PUSH2 0x15F6 PUSH2 0x1F5F JUMP JUMPDEST SWAP1 PUSH1 0x24 CALLDATALOAD SWAP2 PUSH1 0x0 DUP1 MLOAD PUSH1 0x20 PUSH2 0x27C2 DUP4 CODECOPY DUP2 MLOAD SWAP2 MSTORE DUP6 MSTORE PUSH1 0x20 SWAP1 DUP6 DUP3 MSTORE DUP3 DUP7 KECCAK256 CALLER DUP8 MSTORE DUP3 MSTORE PUSH2 0x1629 PUSH1 0xFF DUP5 DUP9 KECCAK256 SLOAD AND PUSH2 0x223E JUMP JUMPDEST PUSH2 0x1631 PUSH2 0x2432 JUMP JUMPDEST PUSH2 0x1639 PUSH2 0x2414 JUMP JUMPDEST PUSH1 0x1 PUSH1 0x1 PUSH1 0xA0 SHL SUB DUP2 DUP2 AND ISZERO PUSH2 0x17B2 JUMPI PUSH2 0x1654 DUP6 ISZERO ISZERO PUSH2 0x2296 JUMP JUMPDEST DUP6 DUP4 DUP3 PUSH1 0x2 SLOAD PUSH1 0x8 SHR AND DUP7 MLOAD SWAP3 DUP4 DUP1 SWAP3 PUSH4 0x20F2E747 PUSH1 0xE1 SHL DUP3 MSTORE GAS STATICCALL SWAP1 DUP2 ISZERO PUSH2 0x17A8 JUMPI SWAP1 DUP3 SWAP2 DUP10 SWAP2 PUSH2 0x177B JUMPI JUMPDEST POP AND ISZERO PUSH2 0x1761 JUMPI PUSH20 0x9F2140319726F9B851073A303415F13EC0CDA269 JUMPDEST AND SWAP5 DUP6 DUP8 MSTORE DUP1 DUP4 MSTORE DUP5 DUP5 DUP9 KECCAK256 SLOAD LT PUSH2 0x1716 JUMPI DUP5 SWAP3 PUSH2 0x16DF PUSH1 0x0 DUP1 MLOAD PUSH1 0x20 PUSH2 0x2742 DUP4 CODECOPY DUP2 MLOAD SWAP2 MSTORE SWAP7 PUSH1 0xA0 SWAP7 SWAP5 PUSH1 0x60 SWAP5 DUP11 DUP13 MSTORE DUP5 MSTORE DUP6 DUP12 KECCAK256 PUSH2 0x1126 DUP4 DUP3 SLOAD PUSH2 0x24AC JUMP JUMPDEST DUP3 MLOAD SWAP4 DUP5 MSTORE DUP4 ADD MSTORE PUSH1 0x12 PUSH1 0x60 DUP4 ADD MSTORE PUSH18 0x185C989A5D1C985D1A5BDB97DC995DD85C99 PUSH1 0x72 SHL PUSH1 0x80 DUP4 ADD MSTORE TIMESTAMP SWAP1 DUP3 ADD MSTORE LOG2 PUSH1 0x1 DUP1 SSTORE DUP1 RETURN JUMPDEST DUP4 MLOAD PUSH3 0x461BCD PUSH1 0xE5 SHL DUP2 MSTORE SWAP1 DUP2 ADD DUP4 SWAP1 MSTORE PUSH1 0x31 PUSH1 0x24 DUP3 ADD MSTORE PUSH1 0x0 DUP1 MLOAD PUSH1 0x20 PUSH2 0x2762 DUP4 CODECOPY DUP2 MLOAD SWAP2 MSTORE PUSH1 0x44 DUP3 ADD MSTORE PUSH17 0x1D081C1BDBDB08199BDC881C995DD85C99 PUSH1 0x7A SHL PUSH1 0x64 DUP3 ADD MSTORE PUSH1 0x84 SWAP1 REVERT JUMPDEST PUSH20 0x55D398326F99059FF775485246999027B3197955 PUSH2 0x169E JUMP JUMPDEST PUSH2 0x179B SWAP2 POP DUP6 RETURNDATASIZE DUP8 GT PUSH2 0x17A1 JUMPI JUMPDEST PUSH2 0x1793 DUP2 DUP4 PUSH2 0x2319 JUMP JUMPDEST DUP2 ADD SWAP1 PUSH2 0x253C JUMP JUMPDEST CODESIZE PUSH2 0x1681 JUMP JUMPDEST POP RETURNDATASIZE PUSH2 0x1789 JUMP JUMPDEST DUP6 MLOAD RETURNDATASIZE DUP11 DUP3 RETURNDATACOPY RETURNDATASIZE SWAP1 REVERT JUMPDEST DUP4 MLOAD PUSH3 0x461BCD PUSH1 0xE5 SHL DUP2 MSTORE DUP1 DUP8 ADD DUP5 SWAP1 MSTORE PUSH1 0x1F PUSH1 0x24 DUP3 ADD MSTORE PUSH32 0x5661756C744D616E616765723A20696E76616C696420726563697069656E7400 PUSH1 0x44 DUP3 ADD MSTORE PUSH1 0x64 SWAP1 REVERT JUMPDEST POP CALLVALUE PUSH2 0x232 JUMPI DUP2 PUSH1 0x3 NOT CALLDATASIZE ADD SLT PUSH2 0x232 JUMPI PUSH2 0x180E PUSH2 0x1F5F JUMP JUMPDEST SWAP2 PUSH1 0x24 CALLDATALOAD SWAP1 PUSH1 0x0 DUP1 MLOAD PUSH1 0x20 PUSH2 0x27C2 DUP4 CODECOPY DUP2 MLOAD SWAP2 MSTORE DUP6 MSTORE PUSH1 0x20 DUP6 DUP2 MSTORE DUP2 DUP7 KECCAK256 CALLER DUP8 MSTORE DUP2 MSTORE PUSH2 0x1840 PUSH1 0xFF DUP4 DUP9 KECCAK256 SLOAD AND PUSH2 0x223E JUMP JUMPDEST PUSH2 0x1848 PUSH2 0x2432 JUMP JUMPDEST PUSH2 0x1850 PUSH2 0x2414 JUMP JUMPDEST PUSH1 0x1 PUSH1 0x1 PUSH1 0xA0 SHL SUB DUP6 DUP2 AND SWAP5 DUP6 ISZERO PUSH2 0x193A JUMPI PUSH2 0x186D DUP6 ISZERO ISZERO PUSH2 0x2296 JUMP JUMPDEST DUP3 DUP3 PUSH1 0x2 SLOAD PUSH1 0x8 SHR AND DUP6 MLOAD SWAP3 DUP4 DUP1 SWAP3 PUSH4 0x9AB4A445 PUSH1 0xE0 SHL DUP3 MSTORE GAS STATICCALL SWAP1 DUP2 ISZERO PUSH2 0x1930 JUMPI PUSH1 0x60 SWAP4 SWAP3 PUSH2 0x18CE SWAP3 DUP8 SWAP3 DUP12 SWAP2 PUSH2 0x1913 JUMPI JUMPDEST POP AND SWAP8 DUP9 DUP11 MSTORE PUSH1 0x3 DUP5 MSTORE PUSH2 0x18B9 DUP3 DUP8 DUP13 KECCAK256 SLOAD LT ISZERO PUSH2 0x255B JUMP JUMPDEST DUP9 DUP11 MSTORE PUSH1 0x3 DUP5 MSTORE DUP6 DUP11 KECCAK256 PUSH2 0x559 DUP4 DUP3 SLOAD PUSH2 0x24AC JUMP JUMPDEST DUP3 MLOAD SWAP4 DUP5 MSTORE DUP4 ADD MSTORE PUSH1 0xD PUSH1 0x60 DUP4 ADD MSTORE PUSH13 0x1B585C99DA5B97DC99599D5B99 PUSH1 0x9A SHL PUSH1 0x80 DUP4 ADD MSTORE TIMESTAMP SWAP1 DUP3 ADD MSTORE PUSH1 0x0 DUP1 MLOAD PUSH1 0x20 PUSH2 0x2782 DUP4 CODECOPY DUP2 MLOAD SWAP2 MSTORE PUSH1 0xA0 ADDRESS SWAP3 LOG4 PUSH1 0x1 DUP1 SSTORE DUP1 RETURN JUMPDEST PUSH2 0x192A SWAP2 POP DUP6 RETURNDATASIZE DUP8 GT PUSH2 0x17A1 JUMPI PUSH2 0x1793 DUP2 DUP4 PUSH2 0x2319 JUMP JUMPDEST CODESIZE PUSH2 0x18A0 JUMP JUMPDEST DUP5 MLOAD RETURNDATASIZE DUP11 DUP3 RETURNDATACOPY RETURNDATASIZE SWAP1 REVERT JUMPDEST DUP4 MLOAD PUSH3 0x461BCD PUSH1 0xE5 SHL DUP2 MSTORE SWAP1 DUP2 ADD DUP4 SWAP1 MSTORE PUSH1 0x24 DUP1 DUP3 ADD MSTORE PUSH32 0x5661756C744D616E616765723A20696E76616C69642073656C6C657220616464 PUSH1 0x44 DUP3 ADD MSTORE PUSH4 0x72657373 PUSH1 0xE0 SHL PUSH1 0x64 DUP3 ADD MSTORE PUSH1 0x84 SWAP1 REVERT JUMPDEST POP CALLVALUE PUSH2 0x232 JUMPI DUP2 PUSH1 0x3 NOT CALLDATASIZE ADD SLT PUSH2 0x232 JUMPI PUSH2 0x19A2 PUSH2 0x1F5F JUMP JUMPDEST SWAP2 PUSH1 0x24 CALLDATALOAD SWAP1 PUSH1 0x0 DUP1 MLOAD PUSH1 0x20 PUSH2 0x27C2 DUP4 CODECOPY DUP2 MLOAD SWAP2 MSTORE DUP6 MSTORE PUSH1 0x20 DUP6 DUP2 MSTORE DUP2 DUP7 KECCAK256 CALLER DUP8 MSTORE DUP2 MSTORE PUSH2 0x19D4 PUSH1 0xFF DUP4 DUP9 KECCAK256 SLOAD AND PUSH2 0x223E JUMP JUMPDEST PUSH2 0x19DC PUSH2 0x2432 JUMP JUMPDEST PUSH2 0x19E4 PUSH2 0x2414 JUMP JUMPDEST PUSH1 0x1 DUP1 PUSH1 0xA0 SHL SUB DUP1 SWAP6 AND SWAP5 DUP6 DUP8 MSTORE DUP5 DUP3 MSTORE PUSH2 0x1A04 DUP5 DUP5 DUP10 KECCAK256 SLOAD LT ISZERO PUSH2 0x25B6 JUMP JUMPDEST DUP6 DUP8 MSTORE DUP5 DUP3 MSTORE DUP3 DUP8 KECCAK256 PUSH2 0x1A18 DUP6 DUP3 SLOAD PUSH2 0x24AC JUMP JUMPDEST SWAP1 SSTORE PUSH1 0x2 SLOAD PUSH1 0x8 SHR AND SWAP4 DUP3 MLOAD SWAP1 PUSH4 0x62F5AD63 PUSH1 0xE0 SHL DUP3 MSTORE DUP3 DUP3 DUP3 DUP2 DUP10 GAS STATICCALL DUP1 ISZERO PUSH2 0x1930 JUMPI DUP9 SWAP1 PUSH2 0x1BAD JUMPI JUMPDEST PUSH2 0x1A54 SWAP3 POP PUSH2 0x2710 SWAP3 DUP4 SWAP2 DUP8 PUSH2 0x25FF JUMP JUMPDEST DIV SWAP6 DUP5 MLOAD PUSH4 0x3C6EC585 PUSH1 0xE1 SHL DUP2 MSTORE DUP5 DUP2 DUP5 DUP2 DUP6 GAS STATICCALL SWAP1 DUP2 ISZERO PUSH2 0x1BA3 JUMPI SWAP1 DUP6 SWAP3 SWAP2 DUP12 SWAP2 PUSH2 0x1B6D JUMPI JUMPDEST POP PUSH2 0x1A86 SWAP1 DUP9 PUSH2 0x25FF JUMP JUMPDEST POP DUP6 MLOAD PUSH4 0x1EB4189 PUSH1 0xE7 SHL DUP2 MSTORE SWAP3 DUP4 SWAP2 DUP3 SWAP1 GAS STATICCALL SWAP1 DUP2 ISZERO PUSH2 0x1930 JUMPI DUP9 SWAP2 PUSH2 0x1B22 JUMPI JUMPDEST POP SWAP2 PUSH1 0x0 DUP1 MLOAD PUSH1 0x20 PUSH2 0x2742 DUP4 CODECOPY DUP2 MLOAD SWAP2 MSTORE SWAP6 PUSH1 0x60 SWAP3 PUSH2 0x1ACB DUP8 SWAP7 SWAP6 PUSH1 0xA0 SWAP9 PUSH2 0x25FF JUMP JUMPDEST DIV DUP9 DUP11 MSTORE PUSH1 0x5 DUP4 MSTORE PUSH2 0x1AE1 DUP6 DUP12 KECCAK256 SWAP2 DUP3 SLOAD PUSH2 0x22F6 JUMP JUMPDEST SWAP1 SSTORE DUP8 DUP10 MSTORE PUSH1 0x7 DUP3 MSTORE PUSH2 0x1AF8 DUP5 DUP11 KECCAK256 SWAP2 DUP3 SLOAD PUSH2 0x22F6 JUMP JUMPDEST SWAP1 SSTORE DUP3 MLOAD SWAP4 DUP5 MSTORE DUP4 ADD MSTORE PUSH1 0x3 PUSH1 0x60 DUP4 ADD MSTORE PUSH3 0x185B1B PUSH1 0xEA SHL PUSH1 0x80 DUP4 ADD MSTORE TIMESTAMP SWAP1 DUP3 ADD MSTORE LOG2 PUSH1 0x1 DUP1 SSTORE DUP1 RETURN JUMPDEST SWAP2 SWAP5 SWAP4 SWAP3 DUP1 SWAP2 POP DUP3 DUP2 RETURNDATASIZE DUP4 GT PUSH2 0x1B66 JUMPI JUMPDEST PUSH2 0x1B3D DUP2 DUP4 PUSH2 0x2319 JUMP JUMPDEST DUP2 ADD SUB SLT PUSH2 0x1B62 JUMPI SWAP1 MLOAD SWAP3 SWAP4 SWAP2 SWAP3 SWAP1 SWAP2 SWAP1 PUSH1 0x0 DUP1 MLOAD PUSH1 0x20 PUSH2 0x2742 DUP4 CODECOPY DUP2 MLOAD SWAP2 MSTORE PUSH2 0x1AA8 JUMP JUMPDEST DUP8 DUP1 REVERT JUMPDEST POP RETURNDATASIZE PUSH2 0x1B33 JUMP JUMPDEST DUP4 DUP2 SWAP5 SWAP3 POP RETURNDATASIZE DUP4 GT PUSH2 0x1B9C JUMPI JUMPDEST PUSH2 0x1B84 DUP2 DUP4 PUSH2 0x2319 JUMP JUMPDEST DUP2 ADD SUB SLT PUSH2 0x1B98 JUMPI PUSH2 0x1A86 DUP6 SWAP3 MLOAD SWAP1 PUSH2 0x1A7B JUMP JUMPDEST DUP10 DUP1 REVERT JUMPDEST POP RETURNDATASIZE PUSH2 0x1B7A JUMP JUMPDEST DUP7 MLOAD RETURNDATASIZE DUP13 DUP3 RETURNDATACOPY RETURNDATASIZE SWAP1 REVERT JUMPDEST POP DUP3 DUP3 DUP2 RETURNDATASIZE DUP4 GT PUSH2 0x1BD5 JUMPI JUMPDEST PUSH2 0x1BC3 DUP2 DUP4 PUSH2 0x2319 JUMP JUMPDEST DUP2 ADD SUB SLT PUSH2 0x1B62 JUMPI PUSH2 0x1A54 SWAP2 MLOAD PUSH2 0x1A43 JUMP JUMPDEST POP RETURNDATASIZE PUSH2 0x1BB9 JUMP JUMPDEST POP SWAP1 CALLVALUE PUSH2 0x232 JUMPI PUSH1 0x20 SWAP1 DUP2 PUSH1 0x3 NOT CALLDATASIZE ADD SLT PUSH2 0x31B JUMPI DUP3 CALLDATALOAD SWAP2 PUSH1 0x0 DUP1 MLOAD PUSH1 0x20 PUSH2 0x27C2 DUP4 CODECOPY DUP2 MLOAD SWAP2 MSTORE DUP6 MSTORE DUP5 DUP2 MSTORE DUP2 DUP6 KECCAK256 CALLER DUP7 MSTORE DUP2 MSTORE PUSH2 0x1C1F PUSH1 0xFF DUP4 DUP8 KECCAK256 SLOAD AND PUSH2 0x223E JUMP JUMPDEST PUSH2 0x1C27 PUSH2 0x2432 JUMP JUMPDEST PUSH2 0x1C2F PUSH2 0x2414 JUMP JUMPDEST PUSH2 0x1C3A DUP4 ISZERO ISZERO PUSH2 0x2296 JUMP JUMPDEST PUSH1 0x2 SLOAD DUP3 MLOAD PUSH4 0x9AB4A445 PUSH1 0xE0 SHL DUP2 MSTORE PUSH1 0x1 PUSH1 0x1 PUSH1 0xA0 SHL SUB SWAP2 DUP4 SWAP1 DUP3 SWAP1 DUP9 SWAP1 DUP3 SWAP1 PUSH1 0x8 SHR DUP7 AND GAS STATICCALL SWAP1 DUP2 ISZERO PUSH2 0x1D22 JUMPI SWAP3 PUSH1 0xA0 SWAP5 SWAP3 PUSH1 0x60 SWAP3 PUSH1 0x0 DUP1 MLOAD PUSH1 0x20 PUSH2 0x2742 DUP4 CODECOPY DUP2 MLOAD SWAP2 MSTORE SWAP8 SWAP6 DUP11 SWAP2 PUSH2 0x1D05 JUMPI JUMPDEST POP AND SWAP7 DUP8 DUP10 MSTORE PUSH1 0x3 DUP3 MSTORE PUSH2 0x1CA1 DUP6 DUP6 DUP12 KECCAK256 SLOAD LT ISZERO PUSH2 0x255B JUMP JUMPDEST DUP8 DUP10 MSTORE PUSH1 0x3 DUP3 MSTORE DUP4 DUP10 KECCAK256 PUSH2 0x1CB6 DUP7 DUP3 SLOAD PUSH2 0x24AC JUMP JUMPDEST SWAP1 SSTORE DUP8 DUP10 MSTORE DUP2 MSTORE DUP3 DUP9 KECCAK256 PUSH2 0x1CCB DUP6 DUP3 SLOAD PUSH2 0x22F6 JUMP JUMPDEST SWAP1 SSTORE DUP3 MLOAD SWAP4 DUP5 MSTORE DUP4 ADD MSTORE PUSH1 0x13 PUSH1 0x60 DUP4 ADD MSTORE PUSH19 0x70656E616C74795F746F5F7472656173757279 PUSH1 0x68 SHL PUSH1 0x80 DUP4 ADD MSTORE TIMESTAMP SWAP1 DUP3 ADD MSTORE LOG2 PUSH1 0x1 DUP1 SSTORE DUP1 RETURN JUMPDEST PUSH2 0x1D1C SWAP2 POP DUP4 RETURNDATASIZE DUP6 GT PUSH2 0x17A1 JUMPI PUSH2 0x1793 DUP2 DUP4 PUSH2 0x2319 JUMP JUMPDEST CODESIZE PUSH2 0x1C88 JUMP JUMPDEST DUP5 MLOAD RETURNDATASIZE DUP10 DUP3 RETURNDATACOPY RETURNDATASIZE SWAP1 REVERT JUMPDEST POP SWAP1 CALLVALUE PUSH2 0x232 JUMPI DUP1 PUSH1 0x3 NOT CALLDATASIZE ADD SLT PUSH2 0x232 JUMPI PUSH2 0x1D46 PUSH2 0x1F5F JUMP JUMPDEST SWAP1 PUSH1 0x24 CALLDATALOAD SWAP1 PUSH1 0x0 DUP1 MLOAD PUSH1 0x20 PUSH2 0x27C2 DUP4 CODECOPY DUP2 MLOAD SWAP2 MSTORE DUP6 MSTORE PUSH1 0x20 DUP6 DUP2 MSTORE DUP2 DUP7 KECCAK256 CALLER DUP8 MSTORE DUP2 MSTORE PUSH2 0x1D78 PUSH1 0xFF DUP4 DUP9 KECCAK256 SLOAD AND PUSH2 0x223E JUMP JUMPDEST PUSH2 0x1D80 PUSH2 0x2432 JUMP JUMPDEST PUSH2 0x1D88 PUSH2 0x2414 JUMP JUMPDEST PUSH1 0x1 PUSH1 0x1 PUSH1 0xA0 SHL SUB DUP5 DUP2 AND SWAP5 SWAP1 DUP6 ISZERO PUSH2 0x1EBC JUMPI PUSH2 0x1DA6 DUP6 ISZERO ISZERO PUSH2 0x2296 JUMP JUMPDEST DUP7 DUP4 DUP3 PUSH1 0x2 SLOAD PUSH1 0x8 SHR AND DUP7 MLOAD SWAP3 DUP4 DUP1 SWAP3 PUSH4 0x9AB4A445 PUSH1 0xE0 SHL DUP3 MSTORE GAS STATICCALL SWAP1 DUP2 ISZERO PUSH2 0x1EB2 JUMPI DUP10 SWAP2 PUSH2 0x1E95 JUMPI JUMPDEST POP AND SWAP6 DUP4 MLOAD SWAP1 PUSH4 0x70A08231 PUSH1 0xE0 SHL DUP3 MSTORE ADDRESS SWAP1 DUP3 ADD MSTORE DUP3 DUP2 PUSH1 0x24 DUP2 DUP11 GAS STATICCALL SWAP1 DUP2 ISZERO PUSH2 0x1930 JUMPI SWAP1 DUP6 SWAP4 SWAP3 SWAP2 DUP10 SWAP2 PUSH2 0x1E60 JUMPI JUMPDEST POP SWAP3 PUSH2 0x1E1A SWAP2 PUSH2 0x1E14 DUP3 PUSH1 0x60 SWAP7 LT ISZERO PUSH2 0x2455 JUMP JUMPDEST DUP9 PUSH2 0x24B9 JUMP JUMPDEST DUP3 MLOAD SWAP4 DUP5 MSTORE DUP4 ADD MSTORE PUSH1 0xE PUSH1 0x60 DUP4 ADD MSTORE PUSH14 0x1C1C995B5A5D5B57DC99599D5B99 PUSH1 0x92 SHL PUSH1 0x80 DUP4 ADD MSTORE TIMESTAMP SWAP1 DUP3 ADD MSTORE PUSH1 0x0 DUP1 MLOAD PUSH1 0x20 PUSH2 0x2782 DUP4 CODECOPY DUP2 MLOAD SWAP2 MSTORE PUSH1 0xA0 ADDRESS SWAP3 LOG4 PUSH1 0x1 DUP1 SSTORE DUP1 RETURN JUMPDEST DUP1 SWAP5 POP DUP4 DUP1 SWAP3 POP RETURNDATASIZE DUP4 GT PUSH2 0x1E8E JUMPI JUMPDEST PUSH2 0x1E79 DUP2 DUP4 PUSH2 0x2319 JUMP JUMPDEST DUP2 ADD SUB SLT PUSH2 0x1B62 JUMPI SWAP2 MLOAD DUP5 SWAP3 SWAP1 PUSH2 0x1E1A PUSH2 0x1E00 JUMP JUMPDEST POP RETURNDATASIZE PUSH2 0x1E6F JUMP JUMPDEST PUSH2 0x1EAC SWAP2 POP DUP5 RETURNDATASIZE DUP7 GT PUSH2 0x17A1 JUMPI PUSH2 0x1793 DUP2 DUP4 PUSH2 0x2319 JUMP JUMPDEST CODESIZE PUSH2 0x1DD0 JUMP JUMPDEST DUP6 MLOAD RETURNDATASIZE DUP12 DUP3 RETURNDATACOPY RETURNDATASIZE SWAP1 REVERT JUMPDEST DUP4 MLOAD PUSH3 0x461BCD PUSH1 0xE5 SHL DUP2 MSTORE DUP1 DUP9 ADD DUP5 SWAP1 MSTORE PUSH1 0x23 PUSH1 0x24 DUP3 ADD MSTORE PUSH32 0x5661756C744D616E616765723A20696E76616C69642062757965722061646472 PUSH1 0x44 DUP3 ADD MSTORE PUSH3 0x657373 PUSH1 0xE8 SHL PUSH1 0x64 DUP3 ADD MSTORE PUSH1 0x84 SWAP1 REVERT JUMPDEST SWAP3 POP POP CALLVALUE PUSH2 0x232 JUMPI PUSH1 0x20 CALLDATASIZE PUSH1 0x3 NOT ADD SLT PUSH2 0x232 JUMPI CALLDATALOAD PUSH4 0xFFFFFFFF PUSH1 0xE0 SHL DUP2 AND DUP1 SWAP2 SUB PUSH2 0x232 JUMPI PUSH1 0x20 SWAP3 POP PUSH4 0x7965DB0B PUSH1 0xE0 SHL DUP2 EQ SWAP1 DUP2 ISZERO PUSH2 0x1F4E JUMPI JUMPDEST POP ISZERO ISZERO DUP2 MSTORE RETURN JUMPDEST PUSH4 0x1FFC9A7 PUSH1 0xE0 SHL EQ SWAP1 POP CODESIZE PUSH2 0x1F47 JUMP JUMPDEST PUSH1 0x4 CALLDATALOAD SWAP1 PUSH1 0x1 PUSH1 0x1 PUSH1 0xA0 SHL SUB DUP3 AND DUP3 SUB PUSH2 0x1F75 JUMPI JUMP JUMPDEST PUSH1 0x0 DUP1 REVERT JUMPDEST PUSH1 0x24 CALLDATALOAD SWAP1 PUSH1 0x1 PUSH1 0x1 PUSH1 0xA0 SHL SUB DUP3 AND DUP3 SUB PUSH2 0x1F75 JUMPI JUMP JUMPDEST SWAP2 DUP2 PUSH1 0x1F DUP5 ADD SLT ISZERO PUSH2 0x1F75 JUMPI DUP3 CALLDATALOAD SWAP2 PUSH1 0x1 PUSH1 0x1 PUSH1 0x40 SHL SUB DUP4 GT PUSH2 0x1F75 JUMPI PUSH1 0x20 DUP1 DUP6 ADD SWAP5 DUP5 PUSH1 0x5 SHL ADD ADD GT PUSH2 0x1F75 JUMPI JUMP JUMPDEST SWAP2 DUP2 PUSH1 0x1F DUP5 ADD SLT ISZERO PUSH2 0x1F75 JUMPI DUP3 CALLDATALOAD SWAP2 PUSH1 0x1 PUSH1 0x1 PUSH1 0x40 SHL SUB DUP4 GT PUSH2 0x1F75 JUMPI PUSH1 0x20 DUP4 DUP2 DUP7 ADD SWAP6 ADD ADD GT PUSH2 0x1F75 JUMPI JUMP JUMPDEST PUSH1 0x60 SWAP1 PUSH1 0x3 NOT ADD SLT PUSH2 0x1F75 JUMPI PUSH1 0x1 PUSH1 0x1 PUSH1 0xA0 SHL SUB PUSH1 0x4 CALLDATALOAD DUP2 DUP2 AND DUP2 SUB PUSH2 0x1F75 JUMPI SWAP2 PUSH1 0x24 CALLDATALOAD SWAP2 PUSH1 0x44 CALLDATALOAD SWAP1 DUP2 AND DUP2 SUB PUSH2 0x1F75 JUMPI SWAP1 JUMP JUMPDEST PUSH1 0x60 SWAP1 PUSH1 0x3 NOT ADD SLT PUSH2 0x1F75 JUMPI PUSH1 0x1 PUSH1 0x1 PUSH1 0xA0 SHL SUB SWAP1 PUSH1 0x4 CALLDATALOAD DUP3 DUP2 AND DUP2 SUB PUSH2 0x1F75 JUMPI SWAP2 PUSH1 0x24 CALLDATALOAD SWAP1 DUP2 AND DUP2 SUB PUSH2 0x1F75 JUMPI SWAP1 PUSH1 0x44 CALLDATALOAD SWAP1 JUMP JUMPDEST CALLER PUSH1 0x0 SWAP1 DUP2 MSTORE PUSH32 0xAD3228B676F7D3CD4284A5443F17F1962B36E491B30A40B2405849E597BA5FB5 PUSH1 0x20 MSTORE PUSH1 0x40 DUP2 KECCAK256 SLOAD PUSH1 0xFF AND ISZERO PUSH2 0x2090 JUMPI POP JUMP JUMPDEST PUSH1 0x44 SWAP1 PUSH1 0x40 MLOAD SWAP1 PUSH4 0xE2517D3F PUSH1 0xE0 SHL DUP3 MSTORE CALLER PUSH1 0x4 DUP4 ADD MSTORE PUSH1 0x24 DUP3 ADD MSTORE REVERT JUMPDEST DUP1 PUSH1 0x0 MSTORE PUSH1 0x0 PUSH1 0x20 MSTORE PUSH1 0x40 PUSH1 0x0 KECCAK256 CALLER PUSH1 0x0 MSTORE PUSH1 0x20 MSTORE PUSH1 0xFF PUSH1 0x40 PUSH1 0x0 KECCAK256 SLOAD AND ISZERO PUSH2 0x2090 JUMPI POP JUMP JUMPDEST PUSH1 0x1 PUSH1 0x1 PUSH1 0xA0 SHL SUB AND PUSH1 0x0 DUP2 DUP2 MSTORE PUSH32 0xAD6010F11D85E6849EC87F5F41F95A2725AAF728916B399656C75CE30B0D2C54 PUSH1 0x20 MSTORE PUSH1 0x40 DUP2 KECCAK256 SLOAD SWAP1 SWAP2 SWAP1 PUSH1 0x0 DUP1 MLOAD PUSH1 0x20 PUSH2 0x27C2 DUP4 CODECOPY DUP2 MLOAD SWAP2 MSTORE SWAP1 PUSH1 0xFF AND PUSH2 0x215D JUMPI DUP1 DUP4 MSTORE DUP3 PUSH1 0x20 MSTORE PUSH1 0x40 DUP4 KECCAK256 DUP3 DUP5 MSTORE PUSH1 0x20 MSTORE PUSH1 0x40 DUP4 KECCAK256 PUSH1 0x1 PUSH1 0xFF NOT DUP3 SLOAD AND OR SWAP1 SSTORE PUSH1 0x0 DUP1 MLOAD PUSH1 0x20 PUSH2 0x2702 DUP4 CODECOPY DUP2 MLOAD SWAP2 MSTORE CALLER SWAP4 DUP1 LOG4 PUSH1 0x1 SWAP1 JUMP JUMPDEST POP POP SWAP1 JUMP JUMPDEST SWAP1 PUSH1 0x0 SWAP2 DUP1 DUP4 MSTORE DUP3 PUSH1 0x20 MSTORE PUSH1 0x40 DUP4 KECCAK256 SWAP2 PUSH1 0x1 DUP1 PUSH1 0xA0 SHL SUB AND SWAP2 DUP3 DUP5 MSTORE PUSH1 0x20 MSTORE PUSH1 0xFF PUSH1 0x40 DUP5 KECCAK256 SLOAD AND ISZERO PUSH1 0x0 EQ PUSH2 0x215D JUMPI DUP1 DUP4 MSTORE DUP3 PUSH1 0x20 MSTORE PUSH1 0x40 DUP4 KECCAK256 DUP3 DUP5 MSTORE PUSH1 0x20 MSTORE PUSH1 0x40 DUP4 KECCAK256 PUSH1 0x1 PUSH1 0xFF NOT DUP3 SLOAD AND OR SWAP1 SSTORE PUSH1 0x0 DUP1 MLOAD PUSH1 0x20 PUSH2 0x2702 DUP4 CODECOPY DUP2 MLOAD SWAP2 MSTORE CALLER SWAP4 DUP1 LOG4 PUSH1 0x1 SWAP1 JUMP JUMPDEST SWAP1 PUSH1 0x0 SWAP2 DUP1 DUP4 MSTORE DUP3 PUSH1 0x20 MSTORE PUSH1 0x40 DUP4 KECCAK256 SWAP2 PUSH1 0x1 DUP1 PUSH1 0xA0 SHL SUB AND SWAP2 DUP3 DUP5 MSTORE PUSH1 0x20 MSTORE PUSH1 0xFF PUSH1 0x40 DUP5 KECCAK256 SLOAD AND PUSH1 0x0 EQ PUSH2 0x215D JUMPI DUP1 DUP4 MSTORE DUP3 PUSH1 0x20 MSTORE PUSH1 0x40 DUP4 KECCAK256 DUP3 DUP5 MSTORE PUSH1 0x20 MSTORE PUSH1 0x40 DUP4 KECCAK256 PUSH1 0xFF NOT DUP2 SLOAD AND SWAP1 SSTORE PUSH32 0xF6391F5C32D9C69D2A47EA670B442974B53935D1EDC7FD64EB21E047A839171B CALLER SWAP4 DUP1 LOG4 PUSH1 0x1 SWAP1 JUMP JUMPDEST ISZERO PUSH2 0x2245 JUMPI JUMP JUMPDEST PUSH1 0x40 MLOAD PUSH3 0x461BCD PUSH1 0xE5 SHL DUP2 MSTORE PUSH1 0x20 PUSH1 0x4 DUP3 ADD MSTORE PUSH1 0x24 DUP1 DUP3 ADD MSTORE PUSH32 0x5661756C744D616E616765723A2063616C6C6572206973206E6F74206F706572 PUSH1 0x44 DUP3 ADD MSTORE PUSH4 0x30BA37B9 PUSH1 0xE1 SHL PUSH1 0x64 DUP3 ADD MSTORE PUSH1 0x84 SWAP1 REVERT JUMPDEST ISZERO PUSH2 0x229D JUMPI JUMP JUMPDEST PUSH1 0x40 MLOAD PUSH3 0x461BCD PUSH1 0xE5 SHL DUP2 MSTORE PUSH1 0x20 PUSH1 0x4 DUP3 ADD MSTORE PUSH1 0x2B PUSH1 0x24 DUP3 ADD MSTORE PUSH32 0x5661756C744D616E616765723A20616D6F756E74206D75737420626520677265 PUSH1 0x44 DUP3 ADD MSTORE PUSH11 0x61746572207468616E203 PUSH1 0xAC SHL PUSH1 0x64 DUP3 ADD MSTORE PUSH1 0x84 SWAP1 REVERT JUMPDEST SWAP2 SWAP1 DUP3 ADD DUP1 SWAP3 GT PUSH2 0x2303 JUMPI JUMP JUMPDEST PUSH4 0x4E487B71 PUSH1 0xE0 SHL PUSH1 0x0 MSTORE PUSH1 0x11 PUSH1 0x4 MSTORE PUSH1 0x24 PUSH1 0x0 REVERT JUMPDEST PUSH1 0x1F SWAP1 SWAP2 ADD PUSH1 0x1F NOT AND DUP2 ADD SWAP1 PUSH1 0x1 PUSH1 0x1 PUSH1 0x40 SHL SUB DUP3 GT SWAP1 DUP3 LT OR PUSH2 0x233C JUMPI PUSH1 0x40 MSTORE JUMP JUMPDEST PUSH4 0x4E487B71 PUSH1 0xE0 SHL PUSH1 0x0 MSTORE PUSH1 0x41 PUSH1 0x4 MSTORE PUSH1 0x24 PUSH1 0x0 REVERT JUMPDEST PUSH1 0x40 MLOAD PUSH4 0x23B872DD PUSH1 0xE0 SHL PUSH1 0x20 DUP3 ADD MSTORE PUSH1 0x1 PUSH1 0x1 PUSH1 0xA0 SHL SUB SWAP3 DUP4 AND PUSH1 0x24 DUP3 ADD MSTORE SWAP3 SWAP1 SWAP2 AND PUSH1 0x44 DUP4 ADD MSTORE PUSH1 0x64 DUP1 DUP4 ADD SWAP4 SWAP1 SWAP4 MSTORE SWAP2 DUP2 MSTORE PUSH1 0xA0 DUP2 ADD SWAP2 DUP2 DUP4 LT PUSH1 0x1 PUSH1 0x1 PUSH1 0x40 SHL SUB DUP5 GT OR PUSH2 0x233C JUMPI PUSH2 0x23AA SWAP3 PUSH1 0x40 MSTORE PUSH2 0x23AC JUMP JUMPDEST JUMP JUMPDEST SWAP1 PUSH1 0x0 PUSH1 0x20 SWAP2 DUP3 DUP2 MLOAD SWAP2 ADD DUP3 DUP6 GAS CALL ISZERO PUSH2 0x2408 JUMPI PUSH1 0x0 MLOAD RETURNDATASIZE PUSH2 0x23FF JUMPI POP PUSH1 0x1 PUSH1 0x1 PUSH1 0xA0 SHL SUB DUP2 AND EXTCODESIZE ISZERO JUMPDEST PUSH2 0x23DD JUMPI POP JUMP JUMPDEST PUSH1 0x40 MLOAD PUSH4 0x5274AFE7 PUSH1 0xE0 SHL DUP2 MSTORE PUSH1 0x1 PUSH1 0x1 PUSH1 0xA0 SHL SUB SWAP1 SWAP2 AND PUSH1 0x4 DUP3 ADD MSTORE PUSH1 0x24 SWAP1 REVERT JUMPDEST PUSH1 0x1 EQ ISZERO PUSH2 0x23D6 JUMP JUMPDEST PUSH1 0x40 MLOAD RETURNDATASIZE PUSH1 0x0 DUP3 RETURNDATACOPY RETURNDATASIZE SWAP1 REVERT JUMPDEST PUSH1 0xFF PUSH1 0x2 SLOAD AND PUSH2 0x2420 JUMPI JUMP JUMPDEST PUSH1 0x40 MLOAD PUSH4 0xD93C0665 PUSH1 0xE0 SHL DUP2 MSTORE PUSH1 0x4 SWAP1 REVERT JUMPDEST PUSH1 0x2 PUSH1 0x1 SLOAD EQ PUSH2 0x2443 JUMPI PUSH1 0x2 PUSH1 0x1 SSTORE JUMP JUMPDEST PUSH1 0x40 MLOAD PUSH4 0x3EE5AEB5 PUSH1 0xE0 SHL DUP2 MSTORE PUSH1 0x4 SWAP1 REVERT JUMPDEST ISZERO PUSH2 0x245C JUMPI JUMP JUMPDEST PUSH1 0x40 MLOAD PUSH3 0x461BCD PUSH1 0xE5 SHL DUP2 MSTORE PUSH1 0x20 PUSH1 0x4 DUP3 ADD MSTORE PUSH1 0x22 PUSH1 0x24 DUP3 ADD MSTORE PUSH32 0x5661756C744D616E616765723A20696E73756666696369656E742062616C616E PUSH1 0x44 DUP3 ADD MSTORE PUSH2 0x6365 PUSH1 0xF0 SHL PUSH1 0x64 DUP3 ADD MSTORE PUSH1 0x84 SWAP1 REVERT JUMPDEST SWAP2 SWAP1 DUP3 SUB SWAP2 DUP3 GT PUSH2 0x2303 JUMPI JUMP JUMPDEST PUSH1 0x40 MLOAD PUSH4 0xA9059CBB PUSH1 0xE0 SHL PUSH1 0x20 DUP3 ADD MSTORE PUSH1 0x1 PUSH1 0x1 PUSH1 0xA0 SHL SUB SWAP1 SWAP3 AND PUSH1 0x24 DUP4 ADD MSTORE PUSH1 0x44 DUP1 DUP4 ADD SWAP4 SWAP1 SWAP4 MSTORE SWAP2 DUP2 MSTORE PUSH1 0x80 DUP2 ADD SWAP2 PUSH1 0x1 PUSH1 0x1 PUSH1 0x40 SHL SUB DUP4 GT DUP3 DUP5 LT OR PUSH2 0x233C JUMPI PUSH2 0x23AA SWAP3 PUSH1 0x40 MSTORE PUSH2 0x23AC JUMP JUMPDEST SWAP5 SWAP4 SWAP3 DUP1 PUSH1 0x40 SWAP4 PUSH1 0x80 SWAP4 DUP9 MSTORE PUSH1 0x60 PUSH1 0x20 DUP10 ADD MSTORE DUP2 PUSH1 0x60 DUP10 ADD MSTORE DUP4 DUP9 ADD CALLDATACOPY PUSH1 0x0 DUP3 DUP3 DUP9 ADD ADD MSTORE PUSH1 0x1F DUP1 NOT SWAP2 ADD AND DUP6 ADD ADD SWAP4 ADD MSTORE JUMP JUMPDEST SWAP1 DUP2 PUSH1 0x20 SWAP2 SUB SLT PUSH2 0x1F75 JUMPI MLOAD PUSH1 0x1 PUSH1 0x1 PUSH1 0xA0 SHL SUB DUP2 AND DUP2 SUB PUSH2 0x1F75 JUMPI SWAP1 JUMP JUMPDEST ISZERO PUSH2 0x2562 JUMPI JUMP JUMPDEST PUSH1 0x40 MLOAD PUSH3 0x461BCD PUSH1 0xE5 SHL DUP2 MSTORE PUSH1 0x20 PUSH1 0x4 DUP3 ADD MSTORE PUSH1 0x26 PUSH1 0x24 DUP3 ADD MSTORE PUSH32 0x5661756C744D616E616765723A20696E73756666696369656E74206D61726769 PUSH1 0x44 DUP3 ADD MSTORE PUSH6 0x1B881C1BDBDB PUSH1 0xD2 SHL PUSH1 0x64 DUP3 ADD MSTORE PUSH1 0x84 SWAP1 REVERT JUMPDEST ISZERO PUSH2 0x25BD JUMPI JUMP JUMPDEST PUSH1 0x40 MLOAD PUSH3 0x461BCD PUSH1 0xE5 SHL DUP2 MSTORE PUSH1 0x20 PUSH1 0x4 DUP3 ADD MSTORE PUSH1 0x26 PUSH1 0x24 DUP3 ADD MSTORE PUSH1 0x0 DUP1 MLOAD PUSH1 0x20 PUSH2 0x2762 DUP4 CODECOPY DUP2 MLOAD SWAP2 MSTORE PUSH1 0x44 DUP3 ADD MSTORE PUSH6 0x1D081C1BDBDB PUSH1 0xD2 SHL PUSH1 0x64 DUP3 ADD MSTORE PUSH1 0x84 SWAP1 REVERT JUMPDEST DUP2 DUP2 MUL SWAP3 SWAP2 DUP2 ISZERO SWAP2 DUP5 DIV EQ OR ISZERO PUSH2 0x2303 JUMPI JUMP JUMPDEST ISZERO PUSH2 0x2619 JUMPI JUMP JUMPDEST PUSH1 0x40 MLOAD PUSH3 0x461BCD PUSH1 0xE5 SHL DUP2 MSTORE PUSH1 0x20 PUSH1 0x4 DUP3 ADD MSTORE PUSH1 0x28 PUSH1 0x24 DUP3 ADD MSTORE PUSH32 0x5661756C744D616E616765723A20696E73756666696369656E7420696E746572 PUSH1 0x44 DUP3 ADD MSTORE PUSH8 0x1858DD081C1BDBDB PUSH1 0xC2 SHL PUSH1 0x64 DUP3 ADD MSTORE PUSH1 0x84 SWAP1 REVERT JUMPDEST ISZERO PUSH2 0x2676 JUMPI JUMP JUMPDEST PUSH1 0x40 MLOAD PUSH3 0x461BCD PUSH1 0xE5 SHL DUP2 MSTORE PUSH1 0x20 PUSH1 0x4 DUP3 ADD MSTORE PUSH1 0x28 PUSH1 0x24 DUP3 ADD MSTORE PUSH32 0x5661756C744D616E616765723A20696E73756666696369656E7420646F6E6174 PUSH1 0x44 DUP3 ADD MSTORE PUSH8 0x1A5BDB881C1BDBDB PUSH1 0xC2 SHL PUSH1 0x64 DUP3 ADD MSTORE PUSH1 0x84 SWAP1 REVERT JUMPDEST PUSH1 0x0 NOT DUP2 EQ PUSH2 0x2303 JUMPI PUSH1 0x1 ADD SWAP1 JUMP JUMPDEST SWAP2 SWAP1 DUP2 LT ISZERO PUSH2 0x26EB JUMPI PUSH1 0x5 SHL ADD SWAP1 JUMP JUMPDEST PUSH4 0x4E487B71 PUSH1 0xE0 SHL PUSH1 0x0 MSTORE PUSH1 0x32 PUSH1 0x4 MSTORE PUSH1 0x24 PUSH1 0x0 REVERT INVALID 0x2F DUP8 DUP9 GT PUSH31 0x7EFF1D82E926EC794901D17C78024A50270940304540A733656F0D66AECC57 SWAP11 LOG1 0xEF CHAINID EXTCODECOPY 0xE 0xD1 SLOAD PUSH29 0x2CB6163370E6311A60CBA815252ACBB398F2131F5794A97A8FD0F5605D LT 0x2F DUP10 0x2A DUP11 PUSH25 0xD86771F26E26716D26E376F3F4A3D6135661756C744D616E61 PUSH8 0x65723A20696E7375 PUSH7 0x66696369656E74 KECCAK256 PUSH17 0x726F666931EB66ACEA2A2E9363E7453544 PUSH23 0x882560841A43C057F7F2E75E63470CA557AF2BDE942ED7 DUP16 SWAP15 LT DUP2 CALLDATACOPY PC LT 0xD2 0xAA EXTCODESIZE INVALID NUMBER 0xEC ADDMOD 0xB0 DUP4 0xF7 POP SWAP2 GASLIMIT TIMESTAMP 0xC4 0xBF 0x2F 0xE9 CALLDATASIZE 0xC7 PUSH10 0x6E87880CF63DCA8F080E PUSH27 0x26952044D39AFBD9CB8AB3582BD4B29E6071B29A2646970667358 0x22 SLT KECCAK256 PUSH31 0xF7B33E03920FEBEEC7EA428C6028CDC86BCD6EDFA5860D7CCAAC27E4887155 PUSH5 0x736F6C6343 STOP ADDMOD EQ STOP CALLER 0x2F DUP8 DUP9 GT PUSH31 0x7EFF1D82E926EC794901D17C78024A50270940304540A733656F0D00000000 "},"methodIdentifiers":{"DEFAULT_ADMIN_ROLE()":"a217fddf","VAULT_OPERATOR_ROLE()":"bed62365","adminSetMarginBalance(address,address,uint256)":"58dbf21c","allocateProfitToSubPools(address,uint256,uint256,uint256)":"c3c8f58c","batchDistributeNodeRewards(address,address[],uint256[])":"234c30d7","collectFee(address,address,uint256,string)":"ec185a07","config()":"79502c55","depositMargin(address,address,uint256)":"564a6c98","depositToDonationPool(address,uint256)":"e1ede08f","depositToInteractPool(address,uint256)":"6208edc9","depositToLPPool(address,uint256)":"4a650a2c","distributeProfits(address,uint256)":"08b8bb4b","donationPoolBalance(address)":"d44f97b8","getProfitPoolBalance(address)":"f6faa649","getRoleAdmin(bytes32)":"248a9ca3","getTotalMarginPool(address)":"ad04570d","getUserMarginBalance(address,address)":"a7a62975","grantOperatorRole(address)":"27ac0c58","grantRole(bytes32,address)":"2f2ff15d","hasRole(bytes32,address)":"91d14854","interactPoolBalance(address)":"1de8ae53","lpPoolBalance(address)":"7af4c51b","marginPoolBalance(address)":"c69c75cd","pause()":"8456cb59","paused()":"5c975abb","penaltyToTreasury(address,address,uint256)":"c1c4e0c0","profitPoolBalance(address)":"3e0e706e","refundMargin(address,uint256)":"09143b9f","refundPremium(address,uint256)":"02817a6d","renounceRole(bytes32,address)":"36568abe","revokeRole(bytes32,address)":"d547741f","setConfig(address)":"20e3dbd4","supportsInterface(bytes4)":"01ffc9a7","transferMargin(address,address,address,uint256,string)":"2ff1d458","transferReward(address,uint256)":"15490ebb","transferToFeedProtocol(address,uint256,address)":"77c5b506","transferToTreasury(uint256)":"063d11de","unpause()":"3f4ba83a","userMarginBalance(address,address)":"715d5896","withdrawFromDonationPool(address,uint256,address)":"75818bd7","withdrawFromInteractPool(address,uint256,address)":"bdf3e780","withdrawFromLPPool(address,uint256,address)":"31aa128d","withdrawMargin(address,address,uint256)":"d249f54e"}}}}}