{"contracts/core/OptionsSettlement.sol":{"OptionsSettlement":{"abi":[{"inputs":[{"internalType":"address","name":"_optionsCore","type":"address"},{"internalType":"address","name":"_config","type":"address"},{"internalType":"address","name":"_vaultManager","type":"address"},{"internalType":"address","name":"_usdt","type":"address"},{"internalType":"address","name":"_admin","type":"address"}],"stateMutability":"nonpayable","type":"constructor"},{"inputs":[],"name":"AccessControlBadConfirmation","type":"error"},{"inputs":[{"internalType":"address","name":"account","type":"address"},{"internalType":"bytes32","name":"neededRole","type":"bytes32"}],"name":"AccessControlUnauthorizedAccount","type":"error"},{"inputs":[],"name":"EnforcedPause","type":"error"},{"inputs":[],"name":"ExpectedPause","type":"error"},{"inputs":[],"name":"ReentrancyGuardReentrantCall","type":"error"},{"inputs":[{"internalType":"address","name":"token","type":"address"}],"name":"SafeERC20FailedOperation","type":"error"},{"anonymous":false,"inputs":[{"indexed":true,"internalType":"uint256","name":"orderId","type":"uint256"},{"indexed":true,"internalType":"uint256","name":"arbitrationId","type":"uint256"},{"indexed":false,"internalType":"address","name":"initiator","type":"address"},{"indexed":false,"internalType":"uint256","name":"originalPrice","type":"uint256"},{"indexed":false,"internalType":"uint256","name":"arbitrationPrice","type":"uint256"},{"indexed":false,"internalType":"bool","name":"resultChanged","type":"bool"},{"indexed":false,"internalType":"uint256","name":"initiatorReward","type":"uint256"},{"indexed":false,"internalType":"uint256","name":"timestamp","type":"uint256"}],"name":"ArbitrationResolved","type":"event"},{"anonymous":false,"inputs":[{"indexed":true,"internalType":"uint256","name":"orderId","type":"uint256"},{"indexed":false,"internalType":"uint256","name":"dividendPerShare","type":"uint256"},{"indexed":false,"internalType":"uint256","name":"totalDividend","type":"uint256"},{"indexed":false,"internalType":"uint256","name":"timestamp","type":"uint256"}],"name":"DividendRecorded","type":"event"},{"anonymous":false,"inputs":[{"indexed":true,"internalType":"uint256","name":"orderId","type":"uint256"},{"indexed":true,"internalType":"address","name":"seller","type":"address"},{"indexed":false,"internalType":"uint256","name":"currentMargin","type":"uint256"},{"indexed":false,"internalType":"uint256","name":"requiredMargin","type":"uint256"},{"indexed":false,"internalType":"uint256","name":"deadline","type":"uint256"}],"name":"MarginCallTriggered","type":"event"},{"anonymous":false,"inputs":[{"indexed":true,"internalType":"uint256","name":"orderId","type":"uint256"},{"indexed":true,"internalType":"address","name":"seller","type":"address"},{"indexed":false,"internalType":"uint256","name":"oldAmount","type":"uint256"},{"indexed":false,"internalType":"uint256","name":"newAmount","type":"uint256"},{"indexed":false,"internalType":"string","name":"changeType","type":"string"},{"indexed":false,"internalType":"uint256","name":"timestamp","type":"uint256"}],"name":"MarginChanged","type":"event"},{"anonymous":false,"inputs":[{"indexed":true,"internalType":"uint256","name":"orderId","type":"uint256"},{"indexed":false,"internalType":"string","name":"reason","type":"string"},{"indexed":false,"internalType":"uint256","name":"timestamp","type":"uint256"}],"name":"OrderCancelled","type":"event"},{"anonymous":false,"inputs":[{"indexed":true,"internalType":"uint256","name":"orderId","type":"uint256"},{"indexed":false,"internalType":"address","name":"beneficiary","type":"address"},{"indexed":false,"internalType":"uint256","name":"amount","type":"uint256"},{"indexed":false,"internalType":"uint256","name":"timestamp","type":"uint256"}],"name":"OrderLiquidated","type":"event"},{"anonymous":false,"inputs":[{"indexed":true,"internalType":"uint256","name":"orderId","type":"uint256"},{"indexed":false,"internalType":"uint256","name":"buyerPayout","type":"uint256"},{"indexed":false,"internalType":"uint256","name":"sellerPayout","type":"uint256"},{"indexed":false,"internalType":"uint256","name":"timestamp","type":"uint256"}],"name":"OrderSettled","type":"event"},{"anonymous":false,"inputs":[{"indexed":true,"internalType":"uint256","name":"orderId","type":"uint256"},{"indexed":false,"internalType":"enum OrderStatus","name":"oldStatus","type":"uint8"},{"indexed":false,"internalType":"enum OrderStatus","name":"newStatus","type":"uint8"},{"indexed":false,"internalType":"string","name":"reason","type":"string"},{"indexed":false,"internalType":"uint256","name":"timestamp","type":"uint256"}],"name":"OrderStatusChanged","type":"event"},{"anonymous":false,"inputs":[{"indexed":false,"internalType":"address","name":"account","type":"address"}],"name":"Paused","type":"event"},{"anonymous":false,"inputs":[{"indexed":true,"internalType":"bytes32","name":"role","type":"bytes32"},{"indexed":true,"internalType":"bytes32","name":"previousAdminRole","type":"bytes32"},{"indexed":true,"internalType":"bytes32","name":"newAdminRole","type":"bytes32"}],"name":"RoleAdminChanged","type":"event"},{"anonymous":false,"inputs":[{"indexed":true,"internalType":"bytes32","name":"role","type":"bytes32"},{"indexed":true,"internalType":"address","name":"account","type":"address"},{"indexed":true,"internalType":"address","name":"sender","type":"address"}],"name":"RoleGranted","type":"event"},{"anonymous":false,"inputs":[{"indexed":true,"internalType":"bytes32","name":"role","type":"bytes32"},{"indexed":true,"internalType":"address","name":"account","type":"address"},{"indexed":true,"internalType":"address","name":"sender","type":"address"}],"name":"RoleRevoked","type":"event"},{"anonymous":false,"inputs":[{"indexed":false,"internalType":"address","name":"account","type":"address"}],"name":"Unpaused","type":"event"},{"inputs":[],"name":"DEFAULT_ADMIN_ROLE","outputs":[{"internalType":"bytes32","name":"","type":"bytes32"}],"stateMutability":"view","type":"function"},{"inputs":[{"internalType":"uint256","name":"orderId","type":"uint256"},{"internalType":"uint256","name":"amount","type":"uint256"}],"name":"addMargin","outputs":[],"stateMutability":"nonpayable","type":"function"},{"inputs":[{"internalType":"uint256","name":"orderId","type":"uint256"}],"name":"cancelOrderDueFinalFeedTimeout","outputs":[],"stateMutability":"nonpayable","type":"function"},{"inputs":[{"internalType":"uint256","name":"orderId","type":"uint256"}],"name":"cancelOrderDueToFeedTimeout","outputs":[],"stateMutability":"nonpayable","type":"function"},{"inputs":[],"name":"config","outputs":[{"internalType":"contract Config","name":"","type":"address"}],"stateMutability":"view","type":"function"},{"inputs":[{"internalType":"uint256","name":"orderId","type":"uint256"}],"name":"earlyExercise","outputs":[],"stateMutability":"nonpayable","type":"function"},{"inputs":[{"internalType":"uint256","name":"orderId","type":"uint256"}],"name":"forceLiquidate","outputs":[],"stateMutability":"nonpayable","type":"function"},{"inputs":[{"internalType":"uint256","name":"orderId","type":"uint256"}],"name":"forceLiquidateMarginCall","outputs":[],"stateMutability":"nonpayable","type":"function"},{"inputs":[{"internalType":"bytes32","name":"role","type":"bytes32"}],"name":"getRoleAdmin","outputs":[{"internalType":"bytes32","name":"","type":"bytes32"}],"stateMutability":"view","type":"function"},{"inputs":[{"internalType":"bytes32","name":"role","type":"bytes32"},{"internalType":"address","name":"account","type":"address"}],"name":"grantRole","outputs":[],"stateMutability":"nonpayable","type":"function"},{"inputs":[{"internalType":"bytes32","name":"role","type":"bytes32"},{"internalType":"address","name":"account","type":"address"}],"name":"hasRole","outputs":[{"internalType":"bool","name":"","type":"bool"}],"stateMutability":"view","type":"function"},{"inputs":[{"internalType":"uint256","name":"orderId","type":"uint256"}],"name":"initiateArbitration","outputs":[],"stateMutability":"payable","type":"function"},{"inputs":[],"name":"optionsCore","outputs":[{"internalType":"contract IOptionsCoreForSettlement","name":"","type":"address"}],"stateMutability":"view","type":"function"},{"inputs":[],"name":"pause","outputs":[],"stateMutability":"nonpayable","type":"function"},{"inputs":[],"name":"paused","outputs":[{"internalType":"bool","name":"","type":"bool"}],"stateMutability":"view","type":"function"},{"inputs":[{"internalType":"uint256","name":"orderId","type":"uint256"},{"internalType":"uint256","name":"dividendPerShare","type":"uint256"}],"name":"recordDividend","outputs":[],"stateMutability":"nonpayable","type":"function"},{"inputs":[{"internalType":"bytes32","name":"role","type":"bytes32"},{"internalType":"address","name":"callerConfirmation","type":"address"}],"name":"renounceRole","outputs":[],"stateMutability":"nonpayable","type":"function"},{"inputs":[{"internalType":"uint256","name":"orderId","type":"uint256"},{"internalType":"uint256","name":"arbitrationPrice","type":"uint256"},{"internalType":"address[]","name":"arbitrators","type":"address[]"}],"name":"resolveArbitration","outputs":[],"stateMutability":"nonpayable","type":"function"},{"inputs":[{"internalType":"bytes32","name":"role","type":"bytes32"},{"internalType":"address","name":"account","type":"address"}],"name":"revokeRole","outputs":[],"stateMutability":"nonpayable","type":"function"},{"inputs":[{"internalType":"address","name":"_config","type":"address"}],"name":"setConfig","outputs":[],"stateMutability":"nonpayable","type":"function"},{"inputs":[{"internalType":"address","name":"_optionsCore","type":"address"}],"name":"setOptionsCore","outputs":[],"stateMutability":"nonpayable","type":"function"},{"inputs":[{"internalType":"uint256","name":"orderId","type":"uint256"}],"name":"settle","outputs":[],"stateMutability":"nonpayable","type":"function"},{"inputs":[{"internalType":"bytes4","name":"interfaceId","type":"bytes4"}],"name":"supportsInterface","outputs":[{"internalType":"bool","name":"","type":"bool"}],"stateMutability":"view","type":"function"},{"inputs":[{"internalType":"uint256","name":"orderId","type":"uint256"},{"internalType":"bool","name":"isCrypto","type":"bool"}],"name":"triggerMarginCall","outputs":[],"stateMutability":"nonpayable","type":"function"},{"inputs":[],"name":"unpause","outputs":[],"stateMutability":"nonpayable","type":"function"},{"inputs":[],"name":"usdt","outputs":[{"internalType":"contract IERC20","name":"","type":"address"}],"stateMutability":"view","type":"function"},{"inputs":[],"name":"vaultManager","outputs":[{"internalType":"contract VaultManager","name":"","type":"address"}],"stateMutability":"view","type":"function"},{"inputs":[{"internalType":"uint256","name":"orderId","type":"uint256"},{"internalType":"uint256","name":"amount","type":"uint256"}],"name":"withdrawExcessMargin","outputs":[],"stateMutability":"nonpayable","type":"function"}],"evm":{"bytecode":{"linkReferences":{},"object":"608034620000fc57601f62003adb38819003918201601f19168301916001600160401b03831184841017620001015780849260a094604052833981010312620000fc578062000052620000eb9262000117565b90620000616020820162000117565b90620000706040820162000117565b906200008d6080620000856060840162000117565b920162000117565b936001805560025490610100600160a81b039060081b1690610100600160a81b0319161760025560018060a01b0380928160018060a01b0319951685600354161760035516836004541617600455169060055416176005556200012c565b5060405161391d9081620001be8239f35b600080fd5b634e487b7160e01b600052604160045260246000fd5b51906001600160a01b0382168203620000fc57565b6001600160a01b031660008181527fad3228b676f7d3cd4284a5443f17f1962b36e491b30a40b2405849e597ba5fb5602052604081205490919060ff16620001b957818052816020526040822081835260205260408220600160ff1982541617905533917f2f8788117e7eff1d82e926ec794901d17c78024a50270940304540a733656f0d8180a4600190565b509056fe608080604052600436101561001357600080fd5b600090813560e01c90816301ffc9a7146130ef5750806320e3dbd4146130aa578063248a9ca31461307e5780632ce5ed8c146130345780632f2ff15d14612ff75780632f48ab7d14612fce5780633280890b14612b9757806336568abe14612b4f5780633f4ba83a14612ae457806346f8226c1461284857806353b461c81461238c57806355d6ca7714611efa5780635c975abb14611ed757806366d6363314611eaa5780636af58cff14611b465780636ca14389146117cb57806377e9bad9146115b257806379502c55146115895780638456cb591461152e5780638a4adf24146115055780638df8280014610f6957806391d1485414610f1e578063a217fddf14610f02578063d1e745b114610cb0578063d41194b814610a87578063d547741f14610a46578063d70daf221461041d5763eefaa8331461015557600080fd5b3461041a57604036600319011261041a57600435602490813591821515809303610416576101816136e7565b6101896136c9565b60025460405163d09ef24160e01b8152600481018490526001600160a01b03929160081c83169086818481855afa90811561040b5787916103e9575b50610380810151600b8110156103d65760046101e19114613627565b610320810151610380576127106102036101c083015161020084015190613670565b04926101e0820196848851101561033c5790889160208760035416918360405180948193630deecde360e11b835260048301525afa9081156103315783916102f5575b506102519042613699565b93803b156102f1578491604489858094604051968795869463d37e527b60e01b865260048601528401525af180156102e6576102ce575b50507f87f6bf1a6c3f04d192803df26e64179e122fd70e7acbc21d5326ecb35a4919489360406102c49201511695519160405193849384613759565b0390a36001805580f35b6102d7906132f7565b6102e2578638610288565b8680fd5b6040513d84823e3d90fd5b8280fd5b9250506020823d8211610329575b816103106020938361330a565b810103126103245761025189925190610246565b600080fd5b3d9150610303565b6040513d85823e3d90fd5b60405162461bcd60e51b815260206004820152601d818401527f536574746c656d656e743a206d617267696e2073756666696369656e740000006044820152606490fd5b60405162461bcd60e51b8152602060048201526029818501527f536574746c656d656e743a206d617267696e2063616c6c20616c7265616479206044820152681d1c9a59d9d95c995960ba1b6064820152608490fd5b634e487b7160e01b885260216004528388fd5b61040591503d8089833e6103fd818361330a565b8101906133bf565b386101c5565b6040513d89823e3d90fd5b8380fd5b80fd5b503461041a5760208060031936011261074c5760043561043b6136e7565b6104436136c9565b60025460405163d09ef24160e01b81526004810183905260249360089290921c6001600160a01b03908116929186818781875afa90811561040b578791610a2c575b5061038081018051600b811015610a19576002148015610a05575b156109ad576103c0820180511561095f57600490518585600354166040519384809263c7d7c5fd60e01b82525afa908115610954578a91610923575b6104e69250613699565b4211156108c9575193600b8510156108b65790818893923b1561041657838860448983600a95604051968795869463aab3196d60e01b865260048601528401525af19081156107505784916108a2575b50508160025460081c16803b15610416578380916044604051809481936315d92e3360e01b83528c60048401528d42908401525af180156107505761088e575b50600496848360035416604051998a8092632bec66e560e01b82525afa97881561075057849861085b575b506127106105b56101e08401998a51613670565b046105c1818a5161370a565b908460045416908588860151169186600554166101a0870151823b1561083857610606928a9283604051809681958294636924faa760e11b9b8c855260048501613737565b03925af190811561085057889161083c575b5050806107c9575b508161075f575b50508260025460081c16803b1561075b5784916044898480946040519687958694630381bafd60e31b865260048601528401525af190811561075057879161072e575b5060c094939291816000805160206138c8833981519152600080516020613888833981519152986040946000805160206138a88339815191528651878152806106b489820161381b565b428d8301520390a26106c8855180926136a6565b600a88820152608085820152806106e16080820161381b565b4260608301520390a201511695519160405192835282015260806040820152601060808201526f1c195b985b1d1e57d919591d58dd195960821b60a0820152426060820152a36001805580f35b8493929594915061073e906132f7565b61074c57909192853861066a565b5080fd5b6040513d86823e3d90fd5b8480fd5b84600454168560408601511690866005541691813b156107c55788809461079460405197889687958694855260048501613737565b03925af19081156107ba57859115610627576107af906132f7565b610416578338610627565b6040513d87823e3d90fd5b8880fd5b8560045416908660408701511690876005541692803b1561083857610808938a809460405196879586948593630307138360e61b855260048501613737565b03925af190811561040b578791610820575b50610620565b610829906132f7565b61083457853861081a565b8580fd5b8980fd5b610845906132f7565b6102e2578638610618565b6040513d8a823e3d90fd5b85809299508195503d8311610887575b610875818361330a565b810103126103245787925196386105a1565b503d61086b565b61089884916132f7565b6102f15738610576565b6108ab906132f7565b6102f1578238610536565b634e487b7160e01b885260216004528688fd5b60405162461bcd60e51b815260048101859052602d818901527f536574746c656d656e743a20696e697469616c206665656420646561646c696e60448201526c19481b9bdd081c995858da1959609a1b6064820152608490fd5b90508582813d831161094d575b61093a818361330a565b81010312610324576104e69151906104dc565b503d610930565b6040513d8c823e3d90fd5b60405162461bcd60e51b8152600481018690526021818a01527f536574746c656d656e743a206f72646572206e6f74206d6174636865642079656044820152601d60fa1b6064820152608490fd5b60405162461bcd60e51b815260048101859052602b818901527f536574746c656d656e743a206f72646572206e6f74206177616974696e67206960448201526a1b9a5d1a585b081999595960aa1b6064820152608490fd5b508051600b811015610a19576003146104a0565b634e487b7160e01b895260216004528789fd5b610a4091503d8089833e6103fd818361330a565b38610485565b503461041a57604036600319011261041a57610a83600435610a6661315a565b9080845283602052610a7e60016040862001546131de565b613282565b5080f35b503461041a57610a9636613170565b90610a9f6136e7565b610aa76136c9565b8115610c5f5760025460405163d09ef24160e01b8152600481018390526001600160a01b03939185908290602490829060081c88165afa9081156107ba578591610c45575b50610afe84604083015116331461376f565b610380810151600b811015610c315790610b1d60046101e09314613627565b0190848251948060045416816005541690803b1561041657848491610b5a9383604051809681958294630ac94d9360e31b84523360048501613737565b03925af1908115610331578391610c1d575b505060025460081c16610b80838551613699565b813b156102f1578291604483926040519485938492630381bafd60e31b84528b600485015260248401525af180156102e657610c09575b5050610bc39151613699565b604051928352602083015260806040830152600360808301526218591960ea1b60a083015242606083015260008051602061388883398151915260c03393a36001805580f35b610c12906132f7565b61075b578438610bb7565b610c26906132f7565b61074c578138610b6c565b634e487b7160e01b86526021600452602486fd5b610c5991503d8087833e6103fd818361330a565b38610aec565b60405162461bcd60e51b815260206004820152602360248201527f536574746c656d656e743a20616d6f756e74206d75737420626520706f73697460448201526269766560e81b6064820152608490fd5b503461041a57610cbf36613170565b90610cc86136e7565b610cd06136c9565b60025460405163d09ef24160e01b81526004810183905260089190911c6001600160a01b0390811693908583602481885afa928315610ef7578693610edb575b50610d2281604085015116331461376f565b610380830151600b811015610ec7576004610d3d9114613627565b610d546101e08401936101c085519101519061370a565b8211610e69578590835195610d69848861370a565b813b15610416578391604483926040519485938492630381bafd60e31b84528c600485015260248401525af1908115610331578391610e55575b505060045460055482169116803b156102f157838391610ddb9383604051809681958294636924faa760e11b84523360048501613737565b03925af180156102e657610e41575b5050610df6915161370a565b6040519283526020830152608060408301526008608083015267776974686472617760c01b60a083015242606083015260008051602061388883398151915260c03393a36001805580f35b610e4a906132f7565b61075b578438610dea565b610e5e906132f7565b61074c578138610da3565b60405162461bcd60e51b815260206004820152603060248201527f536574746c656d656e743a2063616e6e6f742077697468647261772062656c6f60448201526f3b9034b734ba34b0b61036b0b933b4b760811b6064820152608490fd5b634e487b7160e01b87526021600452602487fd5b610ef09193503d8088833e6103fd818361330a565b9138610d10565b6040513d88823e3d90fd5b503461041a578060031936011261041a57602090604051908152f35b503461041a57604036600319011261041a576040610f3a61315a565b91600435815280602052209060018060a01b0316600052602052602060ff604060002054166040519015158152f35b503461041a5760208060031936011261074c5760043590610f886136e7565b610f906136c9565b60025460405163d09ef24160e01b81528360048201526024908581838160018060a01b03809760081c165afa908115610ef75786916114eb575b506103808101918251600b8110156111c45760060361149d5761040082019283511561145d5761014083018051156113f85751936103408401511515806113ea575b6113c1575b5193889461010085015160028110156113ae5761138457818111611358575b50505b8784156113495750876101e084015194858111611342575b80611056919661370a565b935b8561123d575b846111d7575b50505193600b8510156111c45790818894939260025460081c16803b156108345785809160448b604051948593849263aab3196d60e01b845260048401526008898401525af1908115610ef75786916111b0575b505060025460081c1690813b1561075b5784916044839260405197889384926315d92e3360e01b84528d600485015242908401525af19384156111a3578794611186575b5093600886857f6da40291eeb646b436d05c420b5b9f010d81df95bce846d2c3b3d45f56df19ec6000805160206138c88339815191529660c096611147604051928392429184613759565b0390a261115760405180946136a6565b8201526080604082015260076080820152661cd95d1d1b195960ca1b60a0820152426060820152a26001805580f35b6111949192939594506132f7565b610834579184919286386110fc565b50604051903d90823e3d90fd5b6111b9906132f7565b61075b5784386110b8565b50634e487b7160e01b8752602160045286fd5b866040816004541692015116876005541690823b156104165761121692849283899360405196879586948593636924faa760e11b855260048501613737565b03925af180156102e657156110645761122e906132f7565b611239578738611064565b8780fd5b8660045416876040830151169089830191898351168a6005541692803b156102e25786928360e49260405196879586946305fe3a8b60e31b865260048601528d85015260448401528d606484015260a06084840152601160a4840152701cd95d1d1b195b595b9d081c185e5bdd5d607a1b60c48401525af190811561075057849161132e575b5050878060045416915116886005541690823b1561075b57611301928592838b9360405196879586948593636924faa760e11b855260048501613737565b03925af190811561033157839161131a575b505061105e565b611323906132f7565b61074c578138611313565b611337906132f7565b6102f15782386112c3565b508461104b565b9350876101e084015193611058565b61137c92955061136b826113779261370a565b61012086015190613670565b613717565b923880611030565b808211611393575b5050611033565b6113a692955061136b611377918361370a565b92388061138c565b634e487b7160e01b8b526021600452848bfd5b936104208401518181106000146113e1576113db9161370a565b93611011565b50508793611011565b50610420840151151561100c565b60405162461bcd60e51b8152600481018890526038818501527f536574746c656d656e743a20737472696b65207072696365206e6f74207365746044820152772028696e697469616c20666565642072657175697265642960401b6064820152608490fd5b60405162461bcd60e51b81526004810187905260198184015278536574746c656d656e743a206e6f206665656420707269636560381b6044820152606490fd5b8460226084926040519262461bcd60e51b845260048401528201527f536574746c656d656e743a206e6f742070656e64696e6720736574746c656d656044820152611b9d60f21b6064820152fd5b6114ff91503d8088833e6103fd818361330a565b38610fca565b503461041a578060031936011261041a576004546040516001600160a01b039091168152602090f35b503461041a578060031936011261041a57611547613186565b61154f6136c9565b600160ff1960025416176002557f62e78cea01bee320cd4e420270b5ea74000d11b0c9f74754ebdbfc544b05a2586020604051338152a180f35b503461041a578060031936011261041a576003546040516001600160a01b039091168152602090f35b503461041a576115c136613170565b6115c96136e7565b6115d16136c9565b8280528260205260408320336000526020526115f460ff604060002054166137b4565b60025460405163d09ef24160e01b81526004810184905260089190911c6001600160a01b031691908481602481865afa9081156107ba5785916117b1575b50610380810151600b811015610c3157600461164e9114613627565b610340810151156117585781156117055761042085910192611671838551613699565b813b156102f1578291604483926040519485938492632278f55760e11b84528b600485015260248401525af180156102e6576116f1575b50506116d6817fdd46d8cd4968afb89542d91ba59208e869e45ff03dcda531aa39fd6888a174c39351613699565b6116e7604051928392429184613759565b0390a26001805580f35b6116fa906132f7565b6104165783386116a8565b60405162461bcd60e51b815260206004820152602560248201527f536574746c656d656e743a206469766964656e64206d75737420626520706f73604482015264697469766560d81b6064820152608490fd5b60405162461bcd60e51b815260206004820152602b60248201527f536574746c656d656e743a206469766964656e642061646a7573746d656e742060448201526a1b9bdd08195b98589b195960aa1b6064820152608490fd5b6117c591503d8087833e6103fd818361330a565b38611632565b503461041a57602036600319011261041a576004356117e86136e7565b6117f06136c9565b60025460405163d09ef24160e01b8152600481018390526001600160a01b0360089290921c82169160249185818481875afa908115610ef7578691611b2c575b5061038081018051600b811015611b1957600461184d9114613627565b5193600b851015611b06579081879493923b1561075b5784809160446040518094819363aab3196d60e01b83528c600484015260098a8401525af19081156107ba578591611af2575b50508160025460081c16803b1561075b578480916044604051809481936315d92e3360e01b83528c6004840152428a8401525af19081156107ba578591611ade575b50506101e08101928351806119d2575b508260025460081c16803b156108345785916044898480946040519a8b958694630381bafd60e31b865260048601528401525af19485156111a35787956119b5575b50506000805160206138c8833981519152949260c0949260206000805160206138688339815191529301511690516119696040519283924291846137fd565b0390a261197960405180926136a6565b6009602082015260806040820152601060808201526f199bdc98d9481b1a5c5d5a59185d195960821b60a0820152426060820152a26001805580f35b6119c39192969495506132f7565b6108345784929193863861192a565b836004541690846040850151169060208501928684511690876005541693813b15611ada578a60e492819560405197889687956305fe3a8b60e31b875260048701528b8601526044850152606484015260a06084840152601260a4840152711b1a5c5d5a59185d1a5bdb881c185e5bdd5d60721b60c48401525af190811561040b578791611ac6575b5050838060045416915116846005541691865190803b156107c557611a9a9389809460405196879586948593636924faa760e11b855260048501613737565b03925af1908115610ef7578691611ab2575b506118e8565b611abb906132f7565b61075b578438611aac565b611acf906132f7565b610834578538611a5b565b8a80fd5b611ae7906132f7565b6104165783386118d8565b611afb906132f7565b610416578338611896565b634e487b7160e01b875260216004528387fd5b634e487b7160e01b885260216004528488fd5b611b4091503d8088833e6103fd818361330a565b38611830565b5060208060031936011261074c5760043590611b606136e7565b611b686136c9565b6002549060405163d09ef24160e01b81528360048201526024908581838160018060a01b03809860081c165afa908115610ef7578691611e90575b506103808101908151600b8110156103d657600603611e3c5784848201511633148015611e2d575b15611de957806103006103e0611be693015191015190613699565b4211611d97578360055416600487868254168688600354166040519485809263039f4f7560e31b82525afa80156102e65787938391611d63575b50611c53611c4591604051928391878301956323b872dd60e01b8752338c8501613737565b03601f19810183528261330a565b519082855af115610ef75786513d611d5a5750803b155b611d4357505192600b841015611d305790859160025460081c1690813b156102f15760076044849283604051958694859363aab3196d60e01b85528c60048601528401525af180156102e657611d1c575b50506000805160206138c883398151915291600760c092611cdf60405180946136a6565b820152608060408201526015608082015274185c989a5d1c985d1a5bdb881a5b9a5d1a585d1959605a1b60a0820152426060820152a26001805580f35b611d25906132f7565b610416578338611cbb565b50634e487b7160e01b8552602160045284fd5b905060405190635274afe760e01b82526004820152fd5b60011415611c6a565b9250509181813d8311611d90575b611d7b818361330a565b81010312610324575185918991611c53611c20565b503d611d71565b60405162461bcd60e51b8152600481018490526025818401527f536574746c656d656e743a206172626974726174696f6e2077696e646f7720636044820152641b1bdcd95960da1b6064820152608490fd5b60405162461bcd60e51b815260048101859052601e818501527f536574746c656d656e743a206e6f7420706172747920746f206f7264657200006044820152606490fd5b50846040820151163314611bcb565b60405162461bcd60e51b8152600481018590526027818501527f536574746c656d656e743a2063616e6e6f7420696e69746961746520617262696044820152663a3930ba34b7b760c91b6064820152608490fd5b611ea491503d8088833e6103fd818361330a565b38611ba3565b503461041a578060031936011261041a5760025460405160089190911c6001600160a01b03168152602090f35b503461041a578060031936011261041a57602060ff600254166040519015158152f35b503461041a5760208060031936011261074c5760043590611f196136e7565b611f216136c9565b60025460405163d09ef24160e01b8152600481018490526001600160a01b0360089290921c82169160249186818481875afa90811561040b578791612372575b5061038081018051600b81101561235f57600414801561234b575b156122f55761016082018051156122b5576004905187856003541660405193848092636fd8129b60e11b82525afa908115610954578a91612284575b611fc29250613699565b42111561222c575193600b8510156103d6579081889493923b1561075b5784809160446040518094819363aab3196d60e01b83528d6004840152600a8a8401525af19081156107ba578591612218575b50508160025460081c16803b1561075b578480916044604051809481936315d92e3360e01b83528d6004840152428a8401525af19081156107ba578591612204575b50506101a08101518061219a575b506101e081015180612136575b505060025460081c1690813b156102f1578260448192826040519586948593630381bafd60e31b85528c60048601528401525af180156102e657612122575b5050600a6000805160206138c883398151915292846000805160206138a883398151915260405160408152806120e660408201613842565b42868301520390a26120fb60405180946136a6565b820152608060408201528061211260808201613842565b4260608301520390a26001805580f35b61212b906132f7565b6104165783386120ae565b82604081600454169301511690836005541692803b156102e2576121749387809460405196879586948593636924faa760e11b855260048501613737565b03925af19081156107505784911561206f5761218f906132f7565b6102f157823861206f565b82600454169083888401511690846005541692803b15611239576121d89388809460405196879586948593636924faa760e11b855260048501613737565b03925af19081156107ba5785916121f0575b50612062565b6121f9906132f7565b6104165783386121ea565b61220d906132f7565b610416578338612054565b612221906132f7565b610416578338612012565b60405162461bcd60e51b815260048101879052602b818601527f536574746c656d656e743a2066696e616c206665656420646561646c696e652060448201526a1b9bdd081c995858da195960aa1b6064820152608490fd5b90508782813d83116122ae575b61229b818361330a565b8101031261032457611fc2915190611fb8565b503d612291565b60405162461bcd60e51b8152600481018890526019818701527814d95d1d1b195b595b9d0e881b9bc8195e1c1a5c9e481cd95d603a1b6044820152606490fd5b60405162461bcd60e51b8152600481018790526029818601527f536574746c656d656e743a206f72646572206e6f74206177616974696e6720666044820152681a5b985b081999595960ba1b6064820152608490fd5b508051600b81101561235f57600514611f7c565b634e487b7160e01b895260216004528489fd5b61238691503d8089833e6103fd818361330a565b38611f61565b503461041a5760208060031936011261074c57600435906123ab6136e7565b6123b36136c9565b60025460405163d09ef24160e01b8152600481018490526001600160a01b0360089290921c8216929160249186818481885afa90811561040b57879161282e575b5061038081018051600b81101561235f5760046124119114613627565b61032082018051156127e0575142111561279e5761271061243d6101c084015161020085015190613670565b04906101e08301918251101561275a575195600b87101561235f57908189959493923b156108345785809160448b604051948593849263aab3196d60e01b8452600484015260098b8401525af1908115610ef7578691612746575b50508260025460081c16803b156108345785809160448b60405194859384926315d92e3360e01b84526004840152428b8401525af1908115610ef7578691612732575b5050519283612627575b8260025460081c16803b156108345785809160448b6040519485938492630381bafd60e31b8452600484015281888401525af1908115610ef7578691612613575b50508260025460081c16803b1561083457859160448a8480946040519a8b95869463d37e527b60e01b865260048601528401525af19485156111a35788956125f4575b505092600080516020613868833981519152600993869360c0976000805160206138c88339815191529997015116906125a96040519283924291846137fd565b0390a26125b960405180946136a6565b8201526080604082015260136080820152721b585c99da5b8818d85b1b081d1a5b595bdd5d606a1b60a0820152426060820152a26001805580f35b612603919296939795506132f7565b6102e25792938592948738612569565b61261c906132f7565b61075b578438612526565b826004541683604084015116908784019185835116866005541692803b156108385789928360e49260405196879586946305fe3a8b60e31b865260048601528a85015260448401528b606484015260a06084840152601760a48401527636b0b933b4b71031b0b636103634b8bab4b230ba34b7b760491b60c48401525af190811561040b57879161271e575b5050838060045416915116846005541690823b15611239576126f192889283899360405196879586948593636924faa760e11b855260048501613737565b03925af1908115610ef757869161270a575b50506124e5565b612713906132f7565b61075b578438612703565b612727906132f7565b6108345785386126b3565b61273b906132f7565b61075b5784386124db565b61274f906132f7565b61075b578438612498565b60405162461bcd60e51b815260048101879052601f818701527f536574746c656d656e743a206d617267696e2077617320726573746f726564006044820152606490fd5b606484866040519162461bcd60e51b83528160048401528201527f536574746c656d656e743a20646561646c696e65206e6f7420726561636865646044820152fd5b60405162461bcd60e51b8152600481018790526021818701527f536574746c656d656e743a206e6f206d617267696e2063616c6c2061637469766044820152606560f81b6064820152608490fd5b61284291503d8089833e6103fd818361330a565b386123f4565b503461041a5760208060031936011261074c57600435906128676136e7565b61286f6136c9565b60025460405163d09ef24160e01b8152600481018490526024929160081c6001600160a01b03908116919086828681865afa91821561040b578792612ac8575b50815115612a885783820151163303612a4c576103808101908151600b811015612a395760046128df9114613627565b60ff6102a082015116906201518091828102928184041490151715612a2657906103c061290d920151613699565b42106129d7575192600b8410156129c557908591813b156102f15760056044849283604051958694859363aab3196d60e01b85528c60048601528401525af180156102e6576129b1575b50506000805160206138c883398151915291600560c09261297b60405180946136a6565b82015260806040820152600e60808201526d6561726c7920657865726369736560901b60a0820152426060820152a26001805580f35b6129ba906132f7565b610416578338612957565b634e487b7160e01b8652602160045285fd5b60405162461bcd60e51b8152600481018490526022818601527f536574746c656d656e743a2065786572636973652064656c6179206e6f74206d604482015261195d60f21b6064820152608490fd5b634e487b7160e01b885260116004528588fd5b634e487b7160e01b885260216004528588fd5b60405162461bcd60e51b8152600481018490526015818601527429b2ba3a3632b6b2b73a1d103737ba10313abcb2b960591b6044820152606490fd5b60405162461bcd60e51b8152600481018590526019818701527829b2ba3a3632b6b2b73a1d1034b73b30b634b21037b93232b960391b6044820152606490fd5b612add9192503d8089833e6103fd818361330a565b90386128af565b503461041a578060031936011261041a57612afd613186565b60025460ff811615612b3d5760ff19166002557f5db9ee0a495bf2e6ff9c91a7834c1ba4fdd244a5e8aa4e537bd38aeae4b073aa6020604051338152a180f35b604051638dfc202b60e01b8152600490fd5b503461041a57604036600319011261041a57612b6961315a565b336001600160a01b03821603612b8557610a8390600435613282565b60405163334bd91960e11b8152600490fd5b503461041a57606036600319011261041a57604480356001600160401b0381116102f157366023820112156102f1576004810135906001600160401b03821161041657602436918360051b0101116102f157612bf16136e7565b612bf96136c9565b8280526020838152604084203385528152612c1a60ff6040862054166137b4565b60025460405163d09ef24160e01b815260048035908201529085908290602490829060081c6001600160a01b03165afa9081156107ba578591612fb4575b506103808101928351600b811015610ec757600703612f645715612f2357610400810151908260018060a01b03910151169085938160243503612ebd575b600254879060081c6001600160a01b0316803b1561074c5781809189604051809481936305e9e78d60e41b8352600435600484015260243560248401525af180156102e657612ea9575b50505194600b861015610ec75760025487919060081c6001600160a01b0316803b156102f157828091836040518094819363aab3196d60e01b83526004356004840152600860248401525af1908115610331578391612e95575b505060025460081c6001600160a01b031690813b156102f15782918291604051809481936315d92e3360e01b835260043560048401524260248401525af180156102e657612e81575b5050604080516004358582019081524282840152918152909460608201926001600160401b03841183851017612e6b57600896846040528351902094845280608084015260243560a0840152602435141560c083015260e0820152610100429101527fb3560d930da64161657f7700f7109520a24b93d7ff2363739ee324a1e0d6bf8760c060043592a3612e1a60405180946136a6565b820152608060408201526014608082015273185c989a5d1c985d1a5bdb881c995cdbdb1d995960621b60a08201524260608201526000805160206138c883398151915260c060043592a26001805580f35b634e487b7160e01b600052604160045260246000fd5b612e8a906132f7565b610834578538612d83565b612e9e906132f7565b61074c578138612d3a565b612eb2906132f7565b6102e2578638612ce0565b6004546798a7d9b8314c0000955087906001600160a01b0316803b1561074c57819088604051809481936315490ebb60e01b83528960048401528b60248401525af1801561085057612f10575b50612c96565b612f1c909791976132f7565b9538612f0a565b60405162461bcd60e51b815260048101839052601a602482015279536574746c656d656e743a206e6f2061726269747261746f727360301b81860152606490fd5b60405162461bcd60e51b8152600481018490526024808201527f536574746c656d656e743a206f72646572206e6f7420696e206172626974726181870152633a34b7b760e11b6064820152608490fd5b612fc891503d8087833e6103fd818361330a565b38612c58565b503461041a578060031936011261041a576005546040516001600160a01b039091168152602090f35b503461041a57604036600319011261041a57610a8360043561301761315a565b908084528360205261302f60016040862001546131de565b613204565b503461041a57602036600319011261041a5761304e613144565b613056613186565b60028054610100600160a81b03191660089290921b610100600160a81b031691909117905580f35b503461041a57602036600319011261041a57600160406020926004358152808452200154604051908152f35b503461041a57602036600319011261041a576130c4613144565b6130cc613186565b600380546001600160a01b0319166001600160a01b039290921691909117905580f35b90503461074c57602036600319011261074c5760043563ffffffff60e01b81168091036102f15760209250637965db0b60e01b8114908115613133575b5015158152f35b6301ffc9a760e01b1490503861312c565b600435906001600160a01b038216820361032457565b602435906001600160a01b038216820361032457565b6040906003190112610324576004359060243590565b3360009081527fad3228b676f7d3cd4284a5443f17f1962b36e491b30a40b2405849e597ba5fb5602052604081205460ff16156131c05750565b6044906040519063e2517d3f60e01b82523360048301526024820152fd5b80600052600060205260406000203360005260205260ff60406000205416156131c05750565b9060009180835282602052604083209160018060a01b03169182845260205260ff6040842054161560001461327d57808352826020526040832082845260205260408320600160ff198254161790557f2f8788117e7eff1d82e926ec794901d17c78024a50270940304540a733656f0d339380a4600190565b505090565b9060009180835282602052604083209160018060a01b03169182845260205260ff60408420541660001461327d5780835282602052604083208284526020526040832060ff1981541690557ff6391f5c32d9c69d2a47ea670b442974b53935d1edc7fd64eb21e047a839171b339380a4600190565b6001600160401b038111612e6b57604052565b601f909101601f19168101906001600160401b03821190821017612e6b57604052565b51906001600160a01b038216820361032457565b919080601f84011215610324578251906001600160401b038211612e6b5760405191602091613379601f8301601f191684018561330a565b8184528282870101116103245760005b81811061339e57508260009394955001015290565b8581018301518482018401528201613389565b519060ff8216820361032457565b6020818303126103245780516001600160401b03918282116103245701906104409283838203126103245760405193840184811083821117612e6b576040528251845261340e6020840161332d565b602085015261341f6040840161332d565b60408501526060830151828111610324578161343c918501613341565b606085015260808301518281116103245781613459918501613341565b608085015260a08301518281116103245781613476918501613341565b60a085015260c08301518281116103245781613493918501613341565b60c085015260e0830151918211610324576134af918301613341565b60e0830152610100808201519060028210156103245783015261012080820151908301526101408082015190830152610160808201519083015261018080820151908301526101a080820151908301526101c080820151908301526101e0808201519083015261020080820151908301526102208082015190830152610240808201519060038210156103245783015261026061354d8183016133b1565b9083015261028061355f8183016133b1565b908301526102a06135718183016133b1565b908301526102c080820151906003821015610324578301526102e061359781830161332d565b9083015261030080820151908301526103208082015190830152610340808201519081151582036103245783015261036080820151906002821015610324578301526103808082015190600b821015610324578301526103a080820151908301526103c080820151908301526103e080820151908301526104008082015190830152610420809101519082015290565b1561362e57565b60405162461bcd60e51b815260206004820152601a602482015279536574746c656d656e743a206f72646572206e6f74206c69766560301b6044820152606490fd5b8181029291811591840414171561368357565b634e487b7160e01b600052601160045260246000fd5b9190820180921161368357565b90600b8210156136b35752565b634e487b7160e01b600052602160045260246000fd5b60ff600254166136d557565b60405163d93c066560e01b8152600490fd5b6002600154146136f8576002600155565b604051633ee5aeb560e01b8152600490fd5b9190820391821161368357565b8115613721570490565b634e487b7160e01b600052601260045260246000fd5b6001600160a01b03918216815291166020820152604081019190915260600190565b6040919493926060820195825260208201520152565b1561377657565b60405162461bcd60e51b815260206004820152601660248201527529b2ba3a3632b6b2b73a1d103737ba1039b2b63632b960511b6044820152606490fd5b156137bb57565b60405162461bcd60e51b815260206004820152601a60248201527914d95d1d1b195b595b9d0e881b9bdd08185d5d1a1bdc9a5e995960321b6044820152606490fd5b604091949392606082019560018060a01b0316825260208201520152565b60148152731a5b9a5d1a585b0819995959081d1a5b595bdd5d60621b602082015260400190565b6012815271199a5b985b0819995959081d1a5b595bdd5d60721b60208201526040019056feb009a900f426c0c9177acb33a8a806b35c53ac253d1ddf22d687986fc6b72ce42cf5022bdd8fefe86d09412967e028fa9a8cf1e1a3989d47dfd9fc64a22afa86b848a62ef7171019d243ed8f5b8e1e6c32cafed0b7fc99da26cb2fc2e7d533ecce3a31baf9956e086200ee7044a75c2befbd050912798b7bcd25d05831ab9592a26469706673582212208075486d0e6a79830973061f826c6771200ee50dcaa2da433803c0f9a9cfabb864736f6c63430008140033","opcodes":"PUSH1 0x80 CALLVALUE PUSH3 0xFC JUMPI PUSH1 0x1F PUSH3 0x3ADB CODESIZE DUP2 SWAP1 SUB SWAP2 DUP3 ADD PUSH1 0x1F NOT AND DUP4 ADD SWAP2 PUSH1 0x1 PUSH1 0x1 PUSH1 0x40 SHL SUB DUP4 GT DUP5 DUP5 LT OR PUSH3 0x101 JUMPI DUP1 DUP5 SWAP3 PUSH1 0xA0 SWAP5 PUSH1 0x40 MSTORE DUP4 CODECOPY DUP2 ADD SUB SLT PUSH3 0xFC JUMPI DUP1 PUSH3 0x52 PUSH3 0xEB SWAP3 PUSH3 0x117 JUMP JUMPDEST SWAP1 PUSH3 0x61 PUSH1 0x20 DUP3 ADD PUSH3 0x117 JUMP JUMPDEST SWAP1 PUSH3 0x70 PUSH1 0x40 DUP3 ADD PUSH3 0x117 JUMP JUMPDEST SWAP1 PUSH3 0x8D PUSH1 0x80 PUSH3 0x85 PUSH1 0x60 DUP5 ADD PUSH3 0x117 JUMP JUMPDEST SWAP3 ADD PUSH3 0x117 JUMP JUMPDEST SWAP4 PUSH1 0x1 DUP1 SSTORE PUSH1 0x2 SLOAD SWAP1 PUSH2 0x100 PUSH1 0x1 PUSH1 0xA8 SHL SUB SWAP1 PUSH1 0x8 SHL AND SWAP1 PUSH2 0x100 PUSH1 0x1 PUSH1 0xA8 SHL SUB NOT AND OR PUSH1 0x2 SSTORE PUSH1 0x1 DUP1 PUSH1 0xA0 SHL SUB DUP1 SWAP3 DUP2 PUSH1 0x1 DUP1 PUSH1 0xA0 SHL SUB NOT SWAP6 AND DUP6 PUSH1 0x3 SLOAD AND OR PUSH1 0x3 SSTORE AND DUP4 PUSH1 0x4 SLOAD AND OR PUSH1 0x4 SSTORE AND SWAP1 PUSH1 0x5 SLOAD AND OR PUSH1 0x5 SSTORE PUSH3 0x12C JUMP JUMPDEST POP PUSH1 0x40 MLOAD PUSH2 0x391D SWAP1 DUP2 PUSH3 0x1BE DUP3 CODECOPY RETURN JUMPDEST PUSH1 0x0 DUP1 REVERT JUMPDEST PUSH4 0x4E487B71 PUSH1 0xE0 SHL PUSH1 0x0 MSTORE PUSH1 0x41 PUSH1 0x4 MSTORE PUSH1 0x24 PUSH1 0x0 REVERT JUMPDEST MLOAD SWAP1 PUSH1 0x1 PUSH1 0x1 PUSH1 0xA0 SHL SUB DUP3 AND DUP3 SUB PUSH3 0xFC JUMPI JUMP JUMPDEST PUSH1 0x1 PUSH1 0x1 PUSH1 0xA0 SHL SUB AND PUSH1 0x0 DUP2 DUP2 MSTORE PUSH32 0xAD3228B676F7D3CD4284A5443F17F1962B36E491B30A40B2405849E597BA5FB5 PUSH1 0x20 MSTORE PUSH1 0x40 DUP2 KECCAK256 SLOAD SWAP1 SWAP2 SWAP1 PUSH1 0xFF AND PUSH3 0x1B9 JUMPI DUP2 DUP1 MSTORE DUP2 PUSH1 0x20 MSTORE PUSH1 0x40 DUP3 KECCAK256 DUP2 DUP4 MSTORE PUSH1 0x20 MSTORE PUSH1 0x40 DUP3 KECCAK256 PUSH1 0x1 PUSH1 0xFF NOT DUP3 SLOAD AND OR SWAP1 SSTORE CALLER SWAP2 PUSH32 0x2F8788117E7EFF1D82E926EC794901D17C78024A50270940304540A733656F0D DUP2 DUP1 LOG4 PUSH1 0x1 SWAP1 JUMP JUMPDEST POP SWAP1 JUMP INVALID PUSH1 0x80 DUP1 PUSH1 0x40 MSTORE PUSH1 0x4 CALLDATASIZE LT ISZERO PUSH2 0x13 JUMPI PUSH1 0x0 DUP1 REVERT JUMPDEST PUSH1 0x0 SWAP1 DUP2 CALLDATALOAD PUSH1 0xE0 SHR SWAP1 DUP2 PUSH4 0x1FFC9A7 EQ PUSH2 0x30EF JUMPI POP DUP1 PUSH4 0x20E3DBD4 EQ PUSH2 0x30AA JUMPI DUP1 PUSH4 0x248A9CA3 EQ PUSH2 0x307E JUMPI DUP1 PUSH4 0x2CE5ED8C EQ PUSH2 0x3034 JUMPI DUP1 PUSH4 0x2F2FF15D EQ PUSH2 0x2FF7 JUMPI DUP1 PUSH4 0x2F48AB7D EQ PUSH2 0x2FCE JUMPI DUP1 PUSH4 0x3280890B EQ PUSH2 0x2B97 JUMPI DUP1 PUSH4 0x36568ABE EQ PUSH2 0x2B4F JUMPI DUP1 PUSH4 0x3F4BA83A EQ PUSH2 0x2AE4 JUMPI DUP1 PUSH4 0x46F8226C EQ PUSH2 0x2848 JUMPI DUP1 PUSH4 0x53B461C8 EQ PUSH2 0x238C JUMPI DUP1 PUSH4 0x55D6CA77 EQ PUSH2 0x1EFA JUMPI DUP1 PUSH4 0x5C975ABB EQ PUSH2 0x1ED7 JUMPI DUP1 PUSH4 0x66D63633 EQ PUSH2 0x1EAA JUMPI DUP1 PUSH4 0x6AF58CFF EQ PUSH2 0x1B46 JUMPI DUP1 PUSH4 0x6CA14389 EQ PUSH2 0x17CB JUMPI DUP1 PUSH4 0x77E9BAD9 EQ PUSH2 0x15B2 JUMPI DUP1 PUSH4 0x79502C55 EQ PUSH2 0x1589 JUMPI DUP1 PUSH4 0x8456CB59 EQ PUSH2 0x152E JUMPI DUP1 PUSH4 0x8A4ADF24 EQ PUSH2 0x1505 JUMPI DUP1 PUSH4 0x8DF82800 EQ PUSH2 0xF69 JUMPI DUP1 PUSH4 0x91D14854 EQ PUSH2 0xF1E JUMPI DUP1 PUSH4 0xA217FDDF EQ PUSH2 0xF02 JUMPI DUP1 PUSH4 0xD1E745B1 EQ PUSH2 0xCB0 JUMPI DUP1 PUSH4 0xD41194B8 EQ PUSH2 0xA87 JUMPI DUP1 PUSH4 0xD547741F EQ PUSH2 0xA46 JUMPI DUP1 PUSH4 0xD70DAF22 EQ PUSH2 0x41D JUMPI PUSH4 0xEEFAA833 EQ PUSH2 0x155 JUMPI PUSH1 0x0 DUP1 REVERT JUMPDEST CALLVALUE PUSH2 0x41A JUMPI PUSH1 0x40 CALLDATASIZE PUSH1 0x3 NOT ADD SLT PUSH2 0x41A JUMPI PUSH1 0x4 CALLDATALOAD PUSH1 0x24 SWAP1 DUP2 CALLDATALOAD SWAP2 DUP3 ISZERO ISZERO DUP1 SWAP4 SUB PUSH2 0x416 JUMPI PUSH2 0x181 PUSH2 0x36E7 JUMP JUMPDEST PUSH2 0x189 PUSH2 0x36C9 JUMP JUMPDEST PUSH1 0x2 SLOAD PUSH1 0x40 MLOAD PUSH4 0xD09EF241 PUSH1 0xE0 SHL DUP2 MSTORE PUSH1 0x4 DUP2 ADD DUP5 SWAP1 MSTORE PUSH1 0x1 PUSH1 0x1 PUSH1 0xA0 SHL SUB SWAP3 SWAP2 PUSH1 0x8 SHR DUP4 AND SWAP1 DUP7 DUP2 DUP5 DUP2 DUP6 GAS STATICCALL SWAP1 DUP2 ISZERO PUSH2 0x40B JUMPI DUP8 SWAP2 PUSH2 0x3E9 JUMPI JUMPDEST POP PUSH2 0x380 DUP2 ADD MLOAD PUSH1 0xB DUP2 LT ISZERO PUSH2 0x3D6 JUMPI PUSH1 0x4 PUSH2 0x1E1 SWAP2 EQ PUSH2 0x3627 JUMP JUMPDEST PUSH2 0x320 DUP2 ADD MLOAD PUSH2 0x380 JUMPI PUSH2 0x2710 PUSH2 0x203 PUSH2 0x1C0 DUP4 ADD MLOAD PUSH2 0x200 DUP5 ADD MLOAD SWAP1 PUSH2 0x3670 JUMP JUMPDEST DIV SWAP3 PUSH2 0x1E0 DUP3 ADD SWAP7 DUP5 DUP9 MLOAD LT ISZERO PUSH2 0x33C JUMPI SWAP1 DUP9 SWAP2 PUSH1 0x20 DUP8 PUSH1 0x3 SLOAD AND SWAP2 DUP4 PUSH1 0x40 MLOAD DUP1 SWAP5 DUP2 SWAP4 PUSH4 0xDEECDE3 PUSH1 0xE1 SHL DUP4 MSTORE PUSH1 0x4 DUP4 ADD MSTORE GAS STATICCALL SWAP1 DUP2 ISZERO PUSH2 0x331 JUMPI DUP4 SWAP2 PUSH2 0x2F5 JUMPI JUMPDEST POP PUSH2 0x251 SWAP1 TIMESTAMP PUSH2 0x3699 JUMP JUMPDEST SWAP4 DUP1 EXTCODESIZE ISZERO PUSH2 0x2F1 JUMPI DUP5 SWAP2 PUSH1 0x44 DUP10 DUP6 DUP1 SWAP5 PUSH1 0x40 MLOAD SWAP7 DUP8 SWAP6 DUP7 SWAP5 PUSH4 0xD37E527B PUSH1 0xE0 SHL DUP7 MSTORE PUSH1 0x4 DUP7 ADD MSTORE DUP5 ADD MSTORE GAS CALL DUP1 ISZERO PUSH2 0x2E6 JUMPI PUSH2 0x2CE JUMPI JUMPDEST POP POP PUSH32 0x87F6BF1A6C3F04D192803DF26E64179E122FD70E7ACBC21D5326ECB35A491948 SWAP4 PUSH1 0x40 PUSH2 0x2C4 SWAP3 ADD MLOAD AND SWAP6 MLOAD SWAP2 PUSH1 0x40 MLOAD SWAP4 DUP5 SWAP4 DUP5 PUSH2 0x3759 JUMP JUMPDEST SUB SWAP1 LOG3 PUSH1 0x1 DUP1 SSTORE DUP1 RETURN JUMPDEST PUSH2 0x2D7 SWAP1 PUSH2 0x32F7 JUMP JUMPDEST PUSH2 0x2E2 JUMPI DUP7 CODESIZE PUSH2 0x288 JUMP JUMPDEST DUP7 DUP1 REVERT JUMPDEST PUSH1 0x40 MLOAD RETURNDATASIZE DUP5 DUP3 RETURNDATACOPY RETURNDATASIZE SWAP1 REVERT JUMPDEST DUP3 DUP1 REVERT JUMPDEST SWAP3 POP POP PUSH1 0x20 DUP3 RETURNDATASIZE DUP3 GT PUSH2 0x329 JUMPI JUMPDEST DUP2 PUSH2 0x310 PUSH1 0x20 SWAP4 DUP4 PUSH2 0x330A JUMP JUMPDEST DUP2 ADD SUB SLT PUSH2 0x324 JUMPI PUSH2 0x251 DUP10 SWAP3 MLOAD SWAP1 PUSH2 0x246 JUMP JUMPDEST PUSH1 0x0 DUP1 REVERT JUMPDEST RETURNDATASIZE SWAP2 POP PUSH2 0x303 JUMP JUMPDEST PUSH1 0x40 MLOAD RETURNDATASIZE DUP6 DUP3 RETURNDATACOPY RETURNDATASIZE SWAP1 REVERT JUMPDEST PUSH1 0x40 MLOAD PUSH3 0x461BCD PUSH1 0xE5 SHL DUP2 MSTORE PUSH1 0x20 PUSH1 0x4 DUP3 ADD MSTORE PUSH1 0x1D DUP2 DUP5 ADD MSTORE PUSH32 0x536574746C656D656E743A206D617267696E2073756666696369656E74000000 PUSH1 0x44 DUP3 ADD MSTORE PUSH1 0x64 SWAP1 REVERT JUMPDEST PUSH1 0x40 MLOAD PUSH3 0x461BCD PUSH1 0xE5 SHL DUP2 MSTORE PUSH1 0x20 PUSH1 0x4 DUP3 ADD MSTORE PUSH1 0x29 DUP2 DUP6 ADD MSTORE PUSH32 0x536574746C656D656E743A206D617267696E2063616C6C20616C726561647920 PUSH1 0x44 DUP3 ADD MSTORE PUSH9 0x1D1C9A59D9D95C9959 PUSH1 0xBA SHL PUSH1 0x64 DUP3 ADD MSTORE PUSH1 0x84 SWAP1 REVERT JUMPDEST PUSH4 0x4E487B71 PUSH1 0xE0 SHL DUP9 MSTORE PUSH1 0x21 PUSH1 0x4 MSTORE DUP4 DUP9 REVERT JUMPDEST PUSH2 0x405 SWAP2 POP RETURNDATASIZE DUP1 DUP10 DUP4 RETURNDATACOPY PUSH2 0x3FD DUP2 DUP4 PUSH2 0x330A JUMP JUMPDEST DUP2 ADD SWAP1 PUSH2 0x33BF JUMP JUMPDEST CODESIZE PUSH2 0x1C5 JUMP JUMPDEST PUSH1 0x40 MLOAD RETURNDATASIZE DUP10 DUP3 RETURNDATACOPY RETURNDATASIZE SWAP1 REVERT JUMPDEST DUP4 DUP1 REVERT JUMPDEST DUP1 REVERT JUMPDEST POP CALLVALUE PUSH2 0x41A JUMPI PUSH1 0x20 DUP1 PUSH1 0x3 NOT CALLDATASIZE ADD SLT PUSH2 0x74C JUMPI PUSH1 0x4 CALLDATALOAD PUSH2 0x43B PUSH2 0x36E7 JUMP JUMPDEST PUSH2 0x443 PUSH2 0x36C9 JUMP JUMPDEST PUSH1 0x2 SLOAD PUSH1 0x40 MLOAD PUSH4 0xD09EF241 PUSH1 0xE0 SHL DUP2 MSTORE PUSH1 0x4 DUP2 ADD DUP4 SWAP1 MSTORE PUSH1 0x24 SWAP4 PUSH1 0x8 SWAP3 SWAP1 SWAP3 SHR PUSH1 0x1 PUSH1 0x1 PUSH1 0xA0 SHL SUB SWAP1 DUP2 AND SWAP3 SWAP2 DUP7 DUP2 DUP8 DUP2 DUP8 GAS STATICCALL SWAP1 DUP2 ISZERO PUSH2 0x40B JUMPI DUP8 SWAP2 PUSH2 0xA2C JUMPI JUMPDEST POP PUSH2 0x380 DUP2 ADD DUP1 MLOAD PUSH1 0xB DUP2 LT ISZERO PUSH2 0xA19 JUMPI PUSH1 0x2 EQ DUP1 ISZERO PUSH2 0xA05 JUMPI JUMPDEST ISZERO PUSH2 0x9AD JUMPI PUSH2 0x3C0 DUP3 ADD DUP1 MLOAD ISZERO PUSH2 0x95F JUMPI PUSH1 0x4 SWAP1 MLOAD DUP6 DUP6 PUSH1 0x3 SLOAD AND PUSH1 0x40 MLOAD SWAP4 DUP5 DUP1 SWAP3 PUSH4 0xC7D7C5FD PUSH1 0xE0 SHL DUP3 MSTORE GAS STATICCALL SWAP1 DUP2 ISZERO PUSH2 0x954 JUMPI DUP11 SWAP2 PUSH2 0x923 JUMPI JUMPDEST PUSH2 0x4E6 SWAP3 POP PUSH2 0x3699 JUMP JUMPDEST TIMESTAMP GT ISZERO PUSH2 0x8C9 JUMPI MLOAD SWAP4 PUSH1 0xB DUP6 LT ISZERO PUSH2 0x8B6 JUMPI SWAP1 DUP2 DUP9 SWAP4 SWAP3 EXTCODESIZE ISZERO PUSH2 0x416 JUMPI DUP4 DUP9 PUSH1 0x44 DUP10 DUP4 PUSH1 0xA SWAP6 PUSH1 0x40 MLOAD SWAP7 DUP8 SWAP6 DUP7 SWAP5 PUSH4 0xAAB3196D PUSH1 0xE0 SHL DUP7 MSTORE PUSH1 0x4 DUP7 ADD MSTORE DUP5 ADD MSTORE GAS CALL SWAP1 DUP2 ISZERO PUSH2 0x750 JUMPI DUP5 SWAP2 PUSH2 0x8A2 JUMPI JUMPDEST POP POP DUP2 PUSH1 0x2 SLOAD PUSH1 0x8 SHR AND DUP1 EXTCODESIZE ISZERO PUSH2 0x416 JUMPI DUP4 DUP1 SWAP2 PUSH1 0x44 PUSH1 0x40 MLOAD DUP1 SWAP5 DUP2 SWAP4 PUSH4 0x15D92E33 PUSH1 0xE0 SHL DUP4 MSTORE DUP13 PUSH1 0x4 DUP5 ADD MSTORE DUP14 TIMESTAMP SWAP1 DUP5 ADD MSTORE GAS CALL DUP1 ISZERO PUSH2 0x750 JUMPI PUSH2 0x88E JUMPI JUMPDEST POP PUSH1 0x4 SWAP7 DUP5 DUP4 PUSH1 0x3 SLOAD AND PUSH1 0x40 MLOAD SWAP10 DUP11 DUP1 SWAP3 PUSH4 0x2BEC66E5 PUSH1 0xE0 SHL DUP3 MSTORE GAS STATICCALL SWAP8 DUP9 ISZERO PUSH2 0x750 JUMPI DUP5 SWAP9 PUSH2 0x85B JUMPI JUMPDEST POP PUSH2 0x2710 PUSH2 0x5B5 PUSH2 0x1E0 DUP5 ADD SWAP10 DUP11 MLOAD PUSH2 0x3670 JUMP JUMPDEST DIV PUSH2 0x5C1 DUP2 DUP11 MLOAD PUSH2 0x370A JUMP JUMPDEST SWAP1 DUP5 PUSH1 0x4 SLOAD AND SWAP1 DUP6 DUP9 DUP7 ADD MLOAD AND SWAP2 DUP7 PUSH1 0x5 SLOAD AND PUSH2 0x1A0 DUP8 ADD MLOAD DUP3 EXTCODESIZE ISZERO PUSH2 0x838 JUMPI PUSH2 0x606 SWAP3 DUP11 SWAP3 DUP4 PUSH1 0x40 MLOAD DUP1 SWAP7 DUP2 SWAP6 DUP3 SWAP5 PUSH4 0x6924FAA7 PUSH1 0xE1 SHL SWAP12 DUP13 DUP6 MSTORE PUSH1 0x4 DUP6 ADD PUSH2 0x3737 JUMP JUMPDEST SUB SWAP3 GAS CALL SWAP1 DUP2 ISZERO PUSH2 0x850 JUMPI DUP9 SWAP2 PUSH2 0x83C JUMPI JUMPDEST POP POP DUP1 PUSH2 0x7C9 JUMPI JUMPDEST POP DUP2 PUSH2 0x75F JUMPI JUMPDEST POP POP DUP3 PUSH1 0x2 SLOAD PUSH1 0x8 SHR AND DUP1 EXTCODESIZE ISZERO PUSH2 0x75B JUMPI DUP5 SWAP2 PUSH1 0x44 DUP10 DUP5 DUP1 SWAP5 PUSH1 0x40 MLOAD SWAP7 DUP8 SWAP6 DUP7 SWAP5 PUSH4 0x381BAFD PUSH1 0xE3 SHL DUP7 MSTORE PUSH1 0x4 DUP7 ADD MSTORE DUP5 ADD MSTORE GAS CALL SWAP1 DUP2 ISZERO PUSH2 0x750 JUMPI DUP8 SWAP2 PUSH2 0x72E JUMPI JUMPDEST POP PUSH1 0xC0 SWAP5 SWAP4 SWAP3 SWAP2 DUP2 PUSH1 0x0 DUP1 MLOAD PUSH1 0x20 PUSH2 0x38C8 DUP4 CODECOPY DUP2 MLOAD SWAP2 MSTORE PUSH1 0x0 DUP1 MLOAD PUSH1 0x20 PUSH2 0x3888 DUP4 CODECOPY DUP2 MLOAD SWAP2 MSTORE SWAP9 PUSH1 0x40 SWAP5 PUSH1 0x0 DUP1 MLOAD PUSH1 0x20 PUSH2 0x38A8 DUP4 CODECOPY DUP2 MLOAD SWAP2 MSTORE DUP7 MLOAD DUP8 DUP2 MSTORE DUP1 PUSH2 0x6B4 DUP10 DUP3 ADD PUSH2 0x381B JUMP JUMPDEST TIMESTAMP DUP14 DUP4 ADD MSTORE SUB SWAP1 LOG2 PUSH2 0x6C8 DUP6 MLOAD DUP1 SWAP3 PUSH2 0x36A6 JUMP JUMPDEST PUSH1 0xA DUP9 DUP3 ADD MSTORE PUSH1 0x80 DUP6 DUP3 ADD MSTORE DUP1 PUSH2 0x6E1 PUSH1 0x80 DUP3 ADD PUSH2 0x381B JUMP JUMPDEST TIMESTAMP PUSH1 0x60 DUP4 ADD MSTORE SUB SWAP1 LOG2 ADD MLOAD AND SWAP6 MLOAD SWAP2 PUSH1 0x40 MLOAD SWAP3 DUP4 MSTORE DUP3 ADD MSTORE PUSH1 0x80 PUSH1 0x40 DUP3 ADD MSTORE PUSH1 0x10 PUSH1 0x80 DUP3 ADD MSTORE PUSH16 0x1C195B985B1D1E57D919591D58DD1959 PUSH1 0x82 SHL PUSH1 0xA0 DUP3 ADD MSTORE TIMESTAMP PUSH1 0x60 DUP3 ADD MSTORE LOG3 PUSH1 0x1 DUP1 SSTORE DUP1 RETURN JUMPDEST DUP5 SWAP4 SWAP3 SWAP6 SWAP5 SWAP2 POP PUSH2 0x73E SWAP1 PUSH2 0x32F7 JUMP JUMPDEST PUSH2 0x74C JUMPI SWAP1 SWAP2 SWAP3 DUP6 CODESIZE PUSH2 0x66A JUMP JUMPDEST POP DUP1 REVERT JUMPDEST PUSH1 0x40 MLOAD RETURNDATASIZE DUP7 DUP3 RETURNDATACOPY RETURNDATASIZE SWAP1 REVERT JUMPDEST DUP5 DUP1 REVERT JUMPDEST DUP5 PUSH1 0x4 SLOAD AND DUP6 PUSH1 0x40 DUP7 ADD MLOAD AND SWAP1 DUP7 PUSH1 0x5 SLOAD AND SWAP2 DUP2 EXTCODESIZE ISZERO PUSH2 0x7C5 JUMPI DUP9 DUP1 SWAP5 PUSH2 0x794 PUSH1 0x40 MLOAD SWAP8 DUP9 SWAP7 DUP8 SWAP6 DUP7 SWAP5 DUP6 MSTORE PUSH1 0x4 DUP6 ADD PUSH2 0x3737 JUMP JUMPDEST SUB SWAP3 GAS CALL SWAP1 DUP2 ISZERO PUSH2 0x7BA JUMPI DUP6 SWAP2 ISZERO PUSH2 0x627 JUMPI PUSH2 0x7AF SWAP1 PUSH2 0x32F7 JUMP JUMPDEST PUSH2 0x416 JUMPI DUP4 CODESIZE PUSH2 0x627 JUMP JUMPDEST PUSH1 0x40 MLOAD RETURNDATASIZE DUP8 DUP3 RETURNDATACOPY RETURNDATASIZE SWAP1 REVERT JUMPDEST DUP9 DUP1 REVERT JUMPDEST DUP6 PUSH1 0x4 SLOAD AND SWAP1 DUP7 PUSH1 0x40 DUP8 ADD MLOAD AND SWAP1 DUP8 PUSH1 0x5 SLOAD AND SWAP3 DUP1 EXTCODESIZE ISZERO PUSH2 0x838 JUMPI PUSH2 0x808 SWAP4 DUP11 DUP1 SWAP5 PUSH1 0x40 MLOAD SWAP7 DUP8 SWAP6 DUP7 SWAP5 DUP6 SWAP4 PUSH4 0x3071383 PUSH1 0xE6 SHL DUP6 MSTORE PUSH1 0x4 DUP6 ADD PUSH2 0x3737 JUMP JUMPDEST SUB SWAP3 GAS CALL SWAP1 DUP2 ISZERO PUSH2 0x40B JUMPI DUP8 SWAP2 PUSH2 0x820 JUMPI JUMPDEST POP PUSH2 0x620 JUMP JUMPDEST PUSH2 0x829 SWAP1 PUSH2 0x32F7 JUMP JUMPDEST PUSH2 0x834 JUMPI DUP6 CODESIZE PUSH2 0x81A JUMP JUMPDEST DUP6 DUP1 REVERT JUMPDEST DUP10 DUP1 REVERT JUMPDEST PUSH2 0x845 SWAP1 PUSH2 0x32F7 JUMP JUMPDEST PUSH2 0x2E2 JUMPI DUP7 CODESIZE PUSH2 0x618 JUMP JUMPDEST PUSH1 0x40 MLOAD RETURNDATASIZE DUP11 DUP3 RETURNDATACOPY RETURNDATASIZE SWAP1 REVERT JUMPDEST DUP6 DUP1 SWAP3 SWAP10 POP DUP2 SWAP6 POP RETURNDATASIZE DUP4 GT PUSH2 0x887 JUMPI JUMPDEST PUSH2 0x875 DUP2 DUP4 PUSH2 0x330A JUMP JUMPDEST DUP2 ADD SUB SLT PUSH2 0x324 JUMPI DUP8 SWAP3 MLOAD SWAP7 CODESIZE PUSH2 0x5A1 JUMP JUMPDEST POP RETURNDATASIZE PUSH2 0x86B JUMP JUMPDEST PUSH2 0x898 DUP5 SWAP2 PUSH2 0x32F7 JUMP JUMPDEST PUSH2 0x2F1 JUMPI CODESIZE PUSH2 0x576 JUMP JUMPDEST PUSH2 0x8AB SWAP1 PUSH2 0x32F7 JUMP JUMPDEST PUSH2 0x2F1 JUMPI DUP3 CODESIZE PUSH2 0x536 JUMP JUMPDEST PUSH4 0x4E487B71 PUSH1 0xE0 SHL DUP9 MSTORE PUSH1 0x21 PUSH1 0x4 MSTORE DUP7 DUP9 REVERT JUMPDEST PUSH1 0x40 MLOAD PUSH3 0x461BCD PUSH1 0xE5 SHL DUP2 MSTORE PUSH1 0x4 DUP2 ADD DUP6 SWAP1 MSTORE PUSH1 0x2D DUP2 DUP10 ADD MSTORE PUSH32 0x536574746C656D656E743A20696E697469616C206665656420646561646C696E PUSH1 0x44 DUP3 ADD MSTORE PUSH13 0x19481B9BDD081C995858DA1959 PUSH1 0x9A SHL PUSH1 0x64 DUP3 ADD MSTORE PUSH1 0x84 SWAP1 REVERT JUMPDEST SWAP1 POP DUP6 DUP3 DUP2 RETURNDATASIZE DUP4 GT PUSH2 0x94D JUMPI JUMPDEST PUSH2 0x93A DUP2 DUP4 PUSH2 0x330A JUMP JUMPDEST DUP2 ADD SUB SLT PUSH2 0x324 JUMPI PUSH2 0x4E6 SWAP2 MLOAD SWAP1 PUSH2 0x4DC JUMP JUMPDEST POP RETURNDATASIZE PUSH2 0x930 JUMP JUMPDEST PUSH1 0x40 MLOAD RETURNDATASIZE DUP13 DUP3 RETURNDATACOPY RETURNDATASIZE SWAP1 REVERT JUMPDEST PUSH1 0x40 MLOAD PUSH3 0x461BCD PUSH1 0xE5 SHL DUP2 MSTORE PUSH1 0x4 DUP2 ADD DUP7 SWAP1 MSTORE PUSH1 0x21 DUP2 DUP11 ADD MSTORE PUSH32 0x536574746C656D656E743A206F72646572206E6F74206D617463686564207965 PUSH1 0x44 DUP3 ADD MSTORE PUSH1 0x1D PUSH1 0xFA SHL PUSH1 0x64 DUP3 ADD MSTORE PUSH1 0x84 SWAP1 REVERT JUMPDEST PUSH1 0x40 MLOAD PUSH3 0x461BCD PUSH1 0xE5 SHL DUP2 MSTORE PUSH1 0x4 DUP2 ADD DUP6 SWAP1 MSTORE PUSH1 0x2B DUP2 DUP10 ADD MSTORE PUSH32 0x536574746C656D656E743A206F72646572206E6F74206177616974696E672069 PUSH1 0x44 DUP3 ADD MSTORE PUSH11 0x1B9A5D1A585B0819995959 PUSH1 0xAA SHL PUSH1 0x64 DUP3 ADD MSTORE PUSH1 0x84 SWAP1 REVERT JUMPDEST POP DUP1 MLOAD PUSH1 0xB DUP2 LT ISZERO PUSH2 0xA19 JUMPI PUSH1 0x3 EQ PUSH2 0x4A0 JUMP JUMPDEST PUSH4 0x4E487B71 PUSH1 0xE0 SHL DUP10 MSTORE PUSH1 0x21 PUSH1 0x4 MSTORE DUP8 DUP10 REVERT JUMPDEST PUSH2 0xA40 SWAP2 POP RETURNDATASIZE DUP1 DUP10 DUP4 RETURNDATACOPY PUSH2 0x3FD DUP2 DUP4 PUSH2 0x330A JUMP JUMPDEST CODESIZE PUSH2 0x485 JUMP JUMPDEST POP CALLVALUE PUSH2 0x41A JUMPI PUSH1 0x40 CALLDATASIZE PUSH1 0x3 NOT ADD SLT PUSH2 0x41A JUMPI PUSH2 0xA83 PUSH1 0x4 CALLDATALOAD PUSH2 0xA66 PUSH2 0x315A JUMP JUMPDEST SWAP1 DUP1 DUP5 MSTORE DUP4 PUSH1 0x20 MSTORE PUSH2 0xA7E PUSH1 0x1 PUSH1 0x40 DUP7 KECCAK256 ADD SLOAD PUSH2 0x31DE JUMP JUMPDEST PUSH2 0x3282 JUMP JUMPDEST POP DUP1 RETURN JUMPDEST POP CALLVALUE PUSH2 0x41A JUMPI PUSH2 0xA96 CALLDATASIZE PUSH2 0x3170 JUMP JUMPDEST SWAP1 PUSH2 0xA9F PUSH2 0x36E7 JUMP JUMPDEST PUSH2 0xAA7 PUSH2 0x36C9 JUMP JUMPDEST DUP2 ISZERO PUSH2 0xC5F JUMPI PUSH1 0x2 SLOAD PUSH1 0x40 MLOAD PUSH4 0xD09EF241 PUSH1 0xE0 SHL DUP2 MSTORE PUSH1 0x4 DUP2 ADD DUP4 SWAP1 MSTORE PUSH1 0x1 PUSH1 0x1 PUSH1 0xA0 SHL SUB SWAP4 SWAP2 DUP6 SWAP1 DUP3 SWAP1 PUSH1 0x24 SWAP1 DUP3 SWAP1 PUSH1 0x8 SHR DUP9 AND GAS STATICCALL SWAP1 DUP2 ISZERO PUSH2 0x7BA JUMPI DUP6 SWAP2 PUSH2 0xC45 JUMPI JUMPDEST POP PUSH2 0xAFE DUP5 PUSH1 0x40 DUP4 ADD MLOAD AND CALLER EQ PUSH2 0x376F JUMP JUMPDEST PUSH2 0x380 DUP2 ADD MLOAD PUSH1 0xB DUP2 LT ISZERO PUSH2 0xC31 JUMPI SWAP1 PUSH2 0xB1D PUSH1 0x4 PUSH2 0x1E0 SWAP4 EQ PUSH2 0x3627 JUMP JUMPDEST ADD SWAP1 DUP5 DUP3 MLOAD SWAP5 DUP1 PUSH1 0x4 SLOAD AND DUP2 PUSH1 0x5 SLOAD AND SWAP1 DUP1 EXTCODESIZE ISZERO PUSH2 0x416 JUMPI DUP5 DUP5 SWAP2 PUSH2 0xB5A SWAP4 DUP4 PUSH1 0x40 MLOAD DUP1 SWAP7 DUP2 SWAP6 DUP3 SWAP5 PUSH4 0xAC94D93 PUSH1 0xE3 SHL DUP5 MSTORE CALLER PUSH1 0x4 DUP6 ADD PUSH2 0x3737 JUMP JUMPDEST SUB SWAP3 GAS CALL SWAP1 DUP2 ISZERO PUSH2 0x331 JUMPI DUP4 SWAP2 PUSH2 0xC1D JUMPI JUMPDEST POP POP PUSH1 0x2 SLOAD PUSH1 0x8 SHR AND PUSH2 0xB80 DUP4 DUP6 MLOAD PUSH2 0x3699 JUMP JUMPDEST DUP2 EXTCODESIZE ISZERO PUSH2 0x2F1 JUMPI DUP3 SWAP2 PUSH1 0x44 DUP4 SWAP3 PUSH1 0x40 MLOAD SWAP5 DUP6 SWAP4 DUP5 SWAP3 PUSH4 0x381BAFD PUSH1 0xE3 SHL DUP5 MSTORE DUP12 PUSH1 0x4 DUP6 ADD MSTORE PUSH1 0x24 DUP5 ADD MSTORE GAS CALL DUP1 ISZERO PUSH2 0x2E6 JUMPI PUSH2 0xC09 JUMPI JUMPDEST POP POP PUSH2 0xBC3 SWAP2 MLOAD PUSH2 0x3699 JUMP JUMPDEST PUSH1 0x40 MLOAD SWAP3 DUP4 MSTORE PUSH1 0x20 DUP4 ADD MSTORE PUSH1 0x80 PUSH1 0x40 DUP4 ADD MSTORE PUSH1 0x3 PUSH1 0x80 DUP4 ADD MSTORE PUSH3 0x185919 PUSH1 0xEA SHL PUSH1 0xA0 DUP4 ADD MSTORE TIMESTAMP PUSH1 0x60 DUP4 ADD MSTORE PUSH1 0x0 DUP1 MLOAD PUSH1 0x20 PUSH2 0x3888 DUP4 CODECOPY DUP2 MLOAD SWAP2 MSTORE PUSH1 0xC0 CALLER SWAP4 LOG3 PUSH1 0x1 DUP1 SSTORE DUP1 RETURN JUMPDEST PUSH2 0xC12 SWAP1 PUSH2 0x32F7 JUMP JUMPDEST PUSH2 0x75B JUMPI DUP5 CODESIZE PUSH2 0xBB7 JUMP JUMPDEST PUSH2 0xC26 SWAP1 PUSH2 0x32F7 JUMP JUMPDEST PUSH2 0x74C JUMPI DUP2 CODESIZE PUSH2 0xB6C JUMP JUMPDEST PUSH4 0x4E487B71 PUSH1 0xE0 SHL DUP7 MSTORE PUSH1 0x21 PUSH1 0x4 MSTORE PUSH1 0x24 DUP7 REVERT JUMPDEST PUSH2 0xC59 SWAP2 POP RETURNDATASIZE DUP1 DUP8 DUP4 RETURNDATACOPY PUSH2 0x3FD DUP2 DUP4 PUSH2 0x330A JUMP JUMPDEST CODESIZE PUSH2 0xAEC JUMP JUMPDEST PUSH1 0x40 MLOAD PUSH3 0x461BCD PUSH1 0xE5 SHL DUP2 MSTORE PUSH1 0x20 PUSH1 0x4 DUP3 ADD MSTORE PUSH1 0x23 PUSH1 0x24 DUP3 ADD MSTORE PUSH32 0x536574746C656D656E743A20616D6F756E74206D75737420626520706F736974 PUSH1 0x44 DUP3 ADD MSTORE PUSH3 0x697665 PUSH1 0xE8 SHL PUSH1 0x64 DUP3 ADD MSTORE PUSH1 0x84 SWAP1 REVERT JUMPDEST POP CALLVALUE PUSH2 0x41A JUMPI PUSH2 0xCBF CALLDATASIZE PUSH2 0x3170 JUMP JUMPDEST SWAP1 PUSH2 0xCC8 PUSH2 0x36E7 JUMP JUMPDEST PUSH2 0xCD0 PUSH2 0x36C9 JUMP JUMPDEST PUSH1 0x2 SLOAD PUSH1 0x40 MLOAD PUSH4 0xD09EF241 PUSH1 0xE0 SHL DUP2 MSTORE PUSH1 0x4 DUP2 ADD DUP4 SWAP1 MSTORE PUSH1 0x8 SWAP2 SWAP1 SWAP2 SHR PUSH1 0x1 PUSH1 0x1 PUSH1 0xA0 SHL SUB SWAP1 DUP2 AND SWAP4 SWAP1 DUP6 DUP4 PUSH1 0x24 DUP2 DUP9 GAS STATICCALL SWAP3 DUP4 ISZERO PUSH2 0xEF7 JUMPI DUP7 SWAP4 PUSH2 0xEDB JUMPI JUMPDEST POP PUSH2 0xD22 DUP2 PUSH1 0x40 DUP6 ADD MLOAD AND CALLER EQ PUSH2 0x376F JUMP JUMPDEST PUSH2 0x380 DUP4 ADD MLOAD PUSH1 0xB DUP2 LT ISZERO PUSH2 0xEC7 JUMPI PUSH1 0x4 PUSH2 0xD3D SWAP2 EQ PUSH2 0x3627 JUMP JUMPDEST PUSH2 0xD54 PUSH2 0x1E0 DUP5 ADD SWAP4 PUSH2 0x1C0 DUP6 MLOAD SWAP2 ADD MLOAD SWAP1 PUSH2 0x370A JUMP JUMPDEST DUP3 GT PUSH2 0xE69 JUMPI DUP6 SWAP1 DUP4 MLOAD SWAP6 PUSH2 0xD69 DUP5 DUP9 PUSH2 0x370A JUMP JUMPDEST DUP2 EXTCODESIZE ISZERO PUSH2 0x416 JUMPI DUP4 SWAP2 PUSH1 0x44 DUP4 SWAP3 PUSH1 0x40 MLOAD SWAP5 DUP6 SWAP4 DUP5 SWAP3 PUSH4 0x381BAFD PUSH1 0xE3 SHL DUP5 MSTORE DUP13 PUSH1 0x4 DUP6 ADD MSTORE PUSH1 0x24 DUP5 ADD MSTORE GAS CALL SWAP1 DUP2 ISZERO PUSH2 0x331 JUMPI DUP4 SWAP2 PUSH2 0xE55 JUMPI JUMPDEST POP POP PUSH1 0x4 SLOAD PUSH1 0x5 SLOAD DUP3 AND SWAP2 AND DUP1 EXTCODESIZE ISZERO PUSH2 0x2F1 JUMPI DUP4 DUP4 SWAP2 PUSH2 0xDDB SWAP4 DUP4 PUSH1 0x40 MLOAD DUP1 SWAP7 DUP2 SWAP6 DUP3 SWAP5 PUSH4 0x6924FAA7 PUSH1 0xE1 SHL DUP5 MSTORE CALLER PUSH1 0x4 DUP6 ADD PUSH2 0x3737 JUMP JUMPDEST SUB SWAP3 GAS CALL DUP1 ISZERO PUSH2 0x2E6 JUMPI PUSH2 0xE41 JUMPI JUMPDEST POP POP PUSH2 0xDF6 SWAP2 MLOAD PUSH2 0x370A JUMP JUMPDEST PUSH1 0x40 MLOAD SWAP3 DUP4 MSTORE PUSH1 0x20 DUP4 ADD MSTORE PUSH1 0x80 PUSH1 0x40 DUP4 ADD MSTORE PUSH1 0x8 PUSH1 0x80 DUP4 ADD MSTORE PUSH8 0x7769746864726177 PUSH1 0xC0 SHL PUSH1 0xA0 DUP4 ADD MSTORE TIMESTAMP PUSH1 0x60 DUP4 ADD MSTORE PUSH1 0x0 DUP1 MLOAD PUSH1 0x20 PUSH2 0x3888 DUP4 CODECOPY DUP2 MLOAD SWAP2 MSTORE PUSH1 0xC0 CALLER SWAP4 LOG3 PUSH1 0x1 DUP1 SSTORE DUP1 RETURN JUMPDEST PUSH2 0xE4A SWAP1 PUSH2 0x32F7 JUMP JUMPDEST PUSH2 0x75B JUMPI DUP5 CODESIZE PUSH2 0xDEA JUMP JUMPDEST PUSH2 0xE5E SWAP1 PUSH2 0x32F7 JUMP JUMPDEST PUSH2 0x74C JUMPI DUP2 CODESIZE PUSH2 0xDA3 JUMP JUMPDEST PUSH1 0x40 MLOAD PUSH3 0x461BCD PUSH1 0xE5 SHL DUP2 MSTORE PUSH1 0x20 PUSH1 0x4 DUP3 ADD MSTORE PUSH1 0x30 PUSH1 0x24 DUP3 ADD MSTORE PUSH32 0x536574746C656D656E743A2063616E6E6F742077697468647261772062656C6F PUSH1 0x44 DUP3 ADD MSTORE PUSH16 0x3B9034B734BA34B0B61036B0B933B4B7 PUSH1 0x81 SHL PUSH1 0x64 DUP3 ADD MSTORE PUSH1 0x84 SWAP1 REVERT JUMPDEST PUSH4 0x4E487B71 PUSH1 0xE0 SHL DUP8 MSTORE PUSH1 0x21 PUSH1 0x4 MSTORE PUSH1 0x24 DUP8 REVERT JUMPDEST PUSH2 0xEF0 SWAP2 SWAP4 POP RETURNDATASIZE DUP1 DUP9 DUP4 RETURNDATACOPY PUSH2 0x3FD DUP2 DUP4 PUSH2 0x330A JUMP JUMPDEST SWAP2 CODESIZE PUSH2 0xD10 JUMP JUMPDEST PUSH1 0x40 MLOAD RETURNDATASIZE DUP9 DUP3 RETURNDATACOPY RETURNDATASIZE SWAP1 REVERT JUMPDEST POP CALLVALUE PUSH2 0x41A JUMPI DUP1 PUSH1 0x3 NOT CALLDATASIZE ADD SLT PUSH2 0x41A JUMPI PUSH1 0x20 SWAP1 PUSH1 0x40 MLOAD SWAP1 DUP2 MSTORE RETURN JUMPDEST POP CALLVALUE PUSH2 0x41A JUMPI PUSH1 0x40 CALLDATASIZE PUSH1 0x3 NOT ADD SLT PUSH2 0x41A JUMPI PUSH1 0x40 PUSH2 0xF3A PUSH2 0x315A JUMP JUMPDEST SWAP2 PUSH1 0x4 CALLDATALOAD DUP2 MSTORE DUP1 PUSH1 0x20 MSTORE KECCAK256 SWAP1 PUSH1 0x1 DUP1 PUSH1 0xA0 SHL SUB AND PUSH1 0x0 MSTORE PUSH1 0x20 MSTORE PUSH1 0x20 PUSH1 0xFF PUSH1 0x40 PUSH1 0x0 KECCAK256 SLOAD AND PUSH1 0x40 MLOAD SWAP1 ISZERO ISZERO DUP2 MSTORE RETURN JUMPDEST POP CALLVALUE PUSH2 0x41A JUMPI PUSH1 0x20 DUP1 PUSH1 0x3 NOT CALLDATASIZE ADD SLT PUSH2 0x74C JUMPI PUSH1 0x4 CALLDATALOAD SWAP1 PUSH2 0xF88 PUSH2 0x36E7 JUMP JUMPDEST PUSH2 0xF90 PUSH2 0x36C9 JUMP JUMPDEST PUSH1 0x2 SLOAD PUSH1 0x40 MLOAD PUSH4 0xD09EF241 PUSH1 0xE0 SHL DUP2 MSTORE DUP4 PUSH1 0x4 DUP3 ADD MSTORE PUSH1 0x24 SWAP1 DUP6 DUP2 DUP4 DUP2 PUSH1 0x1 DUP1 PUSH1 0xA0 SHL SUB DUP1 SWAP8 PUSH1 0x8 SHR AND GAS STATICCALL SWAP1 DUP2 ISZERO PUSH2 0xEF7 JUMPI DUP7 SWAP2 PUSH2 0x14EB JUMPI JUMPDEST POP PUSH2 0x380 DUP2 ADD SWAP2 DUP3 MLOAD PUSH1 0xB DUP2 LT ISZERO PUSH2 0x11C4 JUMPI PUSH1 0x6 SUB PUSH2 0x149D JUMPI PUSH2 0x400 DUP3 ADD SWAP3 DUP4 MLOAD ISZERO PUSH2 0x145D JUMPI PUSH2 0x140 DUP4 ADD DUP1 MLOAD ISZERO PUSH2 0x13F8 JUMPI MLOAD SWAP4 PUSH2 0x340 DUP5 ADD MLOAD ISZERO ISZERO DUP1 PUSH2 0x13EA JUMPI JUMPDEST PUSH2 0x13C1 JUMPI JUMPDEST MLOAD SWAP4 DUP9 SWAP5 PUSH2 0x100 DUP6 ADD MLOAD PUSH1 0x2 DUP2 LT ISZERO PUSH2 0x13AE JUMPI PUSH2 0x1384 JUMPI DUP2 DUP2 GT PUSH2 0x1358 JUMPI JUMPDEST POP POP JUMPDEST DUP8 DUP5 ISZERO PUSH2 0x1349 JUMPI POP DUP8 PUSH2 0x1E0 DUP5 ADD MLOAD SWAP5 DUP6 DUP2 GT PUSH2 0x1342 JUMPI JUMPDEST DUP1 PUSH2 0x1056 SWAP2 SWAP7 PUSH2 0x370A JUMP JUMPDEST SWAP4 JUMPDEST DUP6 PUSH2 0x123D JUMPI JUMPDEST DUP5 PUSH2 0x11D7 JUMPI JUMPDEST POP POP MLOAD SWAP4 PUSH1 0xB DUP6 LT ISZERO PUSH2 0x11C4 JUMPI SWAP1 DUP2 DUP9 SWAP5 SWAP4 SWAP3 PUSH1 0x2 SLOAD PUSH1 0x8 SHR AND DUP1 EXTCODESIZE ISZERO PUSH2 0x834 JUMPI DUP6 DUP1 SWAP2 PUSH1 0x44 DUP12 PUSH1 0x40 MLOAD SWAP5 DUP6 SWAP4 DUP5 SWAP3 PUSH4 0xAAB3196D PUSH1 0xE0 SHL DUP5 MSTORE PUSH1 0x4 DUP5 ADD MSTORE PUSH1 0x8 DUP10 DUP5 ADD MSTORE GAS CALL SWAP1 DUP2 ISZERO PUSH2 0xEF7 JUMPI DUP7 SWAP2 PUSH2 0x11B0 JUMPI JUMPDEST POP POP PUSH1 0x2 SLOAD PUSH1 0x8 SHR AND SWAP1 DUP2 EXTCODESIZE ISZERO PUSH2 0x75B JUMPI DUP5 SWAP2 PUSH1 0x44 DUP4 SWAP3 PUSH1 0x40 MLOAD SWAP8 DUP9 SWAP4 DUP5 SWAP3 PUSH4 0x15D92E33 PUSH1 0xE0 SHL DUP5 MSTORE DUP14 PUSH1 0x4 DUP6 ADD MSTORE TIMESTAMP SWAP1 DUP5 ADD MSTORE GAS CALL SWAP4 DUP5 ISZERO PUSH2 0x11A3 JUMPI DUP8 SWAP5 PUSH2 0x1186 JUMPI JUMPDEST POP SWAP4 PUSH1 0x8 DUP7 DUP6 PUSH32 0x6DA40291EEB646B436D05C420B5B9F010D81DF95BCE846D2C3B3D45F56DF19EC PUSH1 0x0 DUP1 MLOAD PUSH1 0x20 PUSH2 0x38C8 DUP4 CODECOPY DUP2 MLOAD SWAP2 MSTORE SWAP7 PUSH1 0xC0 SWAP7 PUSH2 0x1147 PUSH1 0x40 MLOAD SWAP3 DUP4 SWAP3 TIMESTAMP SWAP2 DUP5 PUSH2 0x3759 JUMP JUMPDEST SUB SWAP1 LOG2 PUSH2 0x1157 PUSH1 0x40 MLOAD DUP1 SWAP5 PUSH2 0x36A6 JUMP JUMPDEST DUP3 ADD MSTORE PUSH1 0x80 PUSH1 0x40 DUP3 ADD MSTORE PUSH1 0x7 PUSH1 0x80 DUP3 ADD MSTORE PUSH7 0x1CD95D1D1B1959 PUSH1 0xCA SHL PUSH1 0xA0 DUP3 ADD MSTORE TIMESTAMP PUSH1 0x60 DUP3 ADD MSTORE LOG2 PUSH1 0x1 DUP1 SSTORE DUP1 RETURN JUMPDEST PUSH2 0x1194 SWAP2 SWAP3 SWAP4 SWAP6 SWAP5 POP PUSH2 0x32F7 JUMP JUMPDEST PUSH2 0x834 JUMPI SWAP2 DUP5 SWAP2 SWAP3 DUP7 CODESIZE PUSH2 0x10FC JUMP JUMPDEST POP PUSH1 0x40 MLOAD SWAP1 RETURNDATASIZE SWAP1 DUP3 RETURNDATACOPY RETURNDATASIZE SWAP1 REVERT JUMPDEST PUSH2 0x11B9 SWAP1 PUSH2 0x32F7 JUMP JUMPDEST PUSH2 0x75B JUMPI DUP5 CODESIZE PUSH2 0x10B8 JUMP JUMPDEST POP PUSH4 0x4E487B71 PUSH1 0xE0 SHL DUP8 MSTORE PUSH1 0x21 PUSH1 0x4 MSTORE DUP7 REVERT JUMPDEST DUP7 PUSH1 0x40 DUP2 PUSH1 0x4 SLOAD AND SWAP3 ADD MLOAD AND DUP8 PUSH1 0x5 SLOAD AND SWAP1 DUP3 EXTCODESIZE ISZERO PUSH2 0x416 JUMPI PUSH2 0x1216 SWAP3 DUP5 SWAP3 DUP4 DUP10 SWAP4 PUSH1 0x40 MLOAD SWAP7 DUP8 SWAP6 DUP7 SWAP5 DUP6 SWAP4 PUSH4 0x6924FAA7 PUSH1 0xE1 SHL DUP6 MSTORE PUSH1 0x4 DUP6 ADD PUSH2 0x3737 JUMP JUMPDEST SUB SWAP3 GAS CALL DUP1 ISZERO PUSH2 0x2E6 JUMPI ISZERO PUSH2 0x1064 JUMPI PUSH2 0x122E SWAP1 PUSH2 0x32F7 JUMP JUMPDEST PUSH2 0x1239 JUMPI DUP8 CODESIZE PUSH2 0x1064 JUMP JUMPDEST DUP8 DUP1 REVERT JUMPDEST DUP7 PUSH1 0x4 SLOAD AND DUP8 PUSH1 0x40 DUP4 ADD MLOAD AND SWAP1 DUP10 DUP4 ADD SWAP2 DUP10 DUP4 MLOAD AND DUP11 PUSH1 0x5 SLOAD AND SWAP3 DUP1 EXTCODESIZE ISZERO PUSH2 0x2E2 JUMPI DUP7 SWAP3 DUP4 PUSH1 0xE4 SWAP3 PUSH1 0x40 MLOAD SWAP7 DUP8 SWAP6 DUP7 SWAP5 PUSH4 0x5FE3A8B PUSH1 0xE3 SHL DUP7 MSTORE PUSH1 0x4 DUP7 ADD MSTORE DUP14 DUP6 ADD MSTORE PUSH1 0x44 DUP5 ADD MSTORE DUP14 PUSH1 0x64 DUP5 ADD MSTORE PUSH1 0xA0 PUSH1 0x84 DUP5 ADD MSTORE PUSH1 0x11 PUSH1 0xA4 DUP5 ADD MSTORE PUSH17 0x1CD95D1D1B195B595B9D081C185E5BDD5D PUSH1 0x7A SHL PUSH1 0xC4 DUP5 ADD MSTORE GAS CALL SWAP1 DUP2 ISZERO PUSH2 0x750 JUMPI DUP5 SWAP2 PUSH2 0x132E JUMPI JUMPDEST POP POP DUP8 DUP1 PUSH1 0x4 SLOAD AND SWAP2 MLOAD AND DUP9 PUSH1 0x5 SLOAD AND SWAP1 DUP3 EXTCODESIZE ISZERO PUSH2 0x75B JUMPI PUSH2 0x1301 SWAP3 DUP6 SWAP3 DUP4 DUP12 SWAP4 PUSH1 0x40 MLOAD SWAP7 DUP8 SWAP6 DUP7 SWAP5 DUP6 SWAP4 PUSH4 0x6924FAA7 PUSH1 0xE1 SHL DUP6 MSTORE PUSH1 0x4 DUP6 ADD PUSH2 0x3737 JUMP JUMPDEST SUB SWAP3 GAS CALL SWAP1 DUP2 ISZERO PUSH2 0x331 JUMPI DUP4 SWAP2 PUSH2 0x131A JUMPI JUMPDEST POP POP PUSH2 0x105E JUMP JUMPDEST PUSH2 0x1323 SWAP1 PUSH2 0x32F7 JUMP JUMPDEST PUSH2 0x74C JUMPI DUP2 CODESIZE PUSH2 0x1313 JUMP JUMPDEST PUSH2 0x1337 SWAP1 PUSH2 0x32F7 JUMP JUMPDEST PUSH2 0x2F1 JUMPI DUP3 CODESIZE PUSH2 0x12C3 JUMP JUMPDEST POP DUP5 PUSH2 0x104B JUMP JUMPDEST SWAP4 POP DUP8 PUSH2 0x1E0 DUP5 ADD MLOAD SWAP4 PUSH2 0x1058 JUMP JUMPDEST PUSH2 0x137C SWAP3 SWAP6 POP PUSH2 0x136B DUP3 PUSH2 0x1377 SWAP3 PUSH2 0x370A JUMP JUMPDEST PUSH2 0x120 DUP7 ADD MLOAD SWAP1 PUSH2 0x3670 JUMP JUMPDEST PUSH2 0x3717 JUMP JUMPDEST SWAP3 CODESIZE DUP1 PUSH2 0x1030 JUMP JUMPDEST DUP1 DUP3 GT PUSH2 0x1393 JUMPI JUMPDEST POP POP PUSH2 0x1033 JUMP JUMPDEST PUSH2 0x13A6 SWAP3 SWAP6 POP PUSH2 0x136B PUSH2 0x1377 SWAP2 DUP4 PUSH2 0x370A JUMP JUMPDEST SWAP3 CODESIZE DUP1 PUSH2 0x138C JUMP JUMPDEST PUSH4 0x4E487B71 PUSH1 0xE0 SHL DUP12 MSTORE PUSH1 0x21 PUSH1 0x4 MSTORE DUP5 DUP12 REVERT JUMPDEST SWAP4 PUSH2 0x420 DUP5 ADD MLOAD DUP2 DUP2 LT PUSH1 0x0 EQ PUSH2 0x13E1 JUMPI PUSH2 0x13DB SWAP2 PUSH2 0x370A JUMP JUMPDEST SWAP4 PUSH2 0x1011 JUMP JUMPDEST POP POP DUP8 SWAP4 PUSH2 0x1011 JUMP JUMPDEST POP PUSH2 0x420 DUP5 ADD MLOAD ISZERO ISZERO PUSH2 0x100C JUMP JUMPDEST PUSH1 0x40 MLOAD PUSH3 0x461BCD PUSH1 0xE5 SHL DUP2 MSTORE PUSH1 0x4 DUP2 ADD DUP9 SWAP1 MSTORE PUSH1 0x38 DUP2 DUP6 ADD MSTORE PUSH32 0x536574746C656D656E743A20737472696B65207072696365206E6F7420736574 PUSH1 0x44 DUP3 ADD MSTORE PUSH24 0x2028696E697469616C206665656420726571756972656429 PUSH1 0x40 SHL PUSH1 0x64 DUP3 ADD MSTORE PUSH1 0x84 SWAP1 REVERT JUMPDEST PUSH1 0x40 MLOAD PUSH3 0x461BCD PUSH1 0xE5 SHL DUP2 MSTORE PUSH1 0x4 DUP2 ADD DUP8 SWAP1 MSTORE PUSH1 0x19 DUP2 DUP5 ADD MSTORE PUSH25 0x536574746C656D656E743A206E6F2066656564207072696365 PUSH1 0x38 SHL PUSH1 0x44 DUP3 ADD MSTORE PUSH1 0x64 SWAP1 REVERT JUMPDEST DUP5 PUSH1 0x22 PUSH1 0x84 SWAP3 PUSH1 0x40 MLOAD SWAP3 PUSH3 0x461BCD PUSH1 0xE5 SHL DUP5 MSTORE PUSH1 0x4 DUP5 ADD MSTORE DUP3 ADD MSTORE PUSH32 0x536574746C656D656E743A206E6F742070656E64696E6720736574746C656D65 PUSH1 0x44 DUP3 ADD MSTORE PUSH2 0x1B9D PUSH1 0xF2 SHL PUSH1 0x64 DUP3 ADD MSTORE REVERT JUMPDEST PUSH2 0x14FF SWAP2 POP RETURNDATASIZE DUP1 DUP9 DUP4 RETURNDATACOPY PUSH2 0x3FD DUP2 DUP4 PUSH2 0x330A JUMP JUMPDEST CODESIZE PUSH2 0xFCA JUMP JUMPDEST POP CALLVALUE PUSH2 0x41A JUMPI DUP1 PUSH1 0x3 NOT CALLDATASIZE ADD SLT PUSH2 0x41A JUMPI PUSH1 0x4 SLOAD PUSH1 0x40 MLOAD PUSH1 0x1 PUSH1 0x1 PUSH1 0xA0 SHL SUB SWAP1 SWAP2 AND DUP2 MSTORE PUSH1 0x20 SWAP1 RETURN JUMPDEST POP CALLVALUE PUSH2 0x41A JUMPI DUP1 PUSH1 0x3 NOT CALLDATASIZE ADD SLT PUSH2 0x41A JUMPI PUSH2 0x1547 PUSH2 0x3186 JUMP JUMPDEST PUSH2 0x154F PUSH2 0x36C9 JUMP JUMPDEST PUSH1 0x1 PUSH1 0xFF NOT PUSH1 0x2 SLOAD AND OR PUSH1 0x2 SSTORE PUSH32 0x62E78CEA01BEE320CD4E420270B5EA74000D11B0C9F74754EBDBFC544B05A258 PUSH1 0x20 PUSH1 0x40 MLOAD CALLER DUP2 MSTORE LOG1 DUP1 RETURN JUMPDEST POP CALLVALUE PUSH2 0x41A JUMPI DUP1 PUSH1 0x3 NOT CALLDATASIZE ADD SLT PUSH2 0x41A JUMPI PUSH1 0x3 SLOAD PUSH1 0x40 MLOAD PUSH1 0x1 PUSH1 0x1 PUSH1 0xA0 SHL SUB SWAP1 SWAP2 AND DUP2 MSTORE PUSH1 0x20 SWAP1 RETURN JUMPDEST POP CALLVALUE PUSH2 0x41A JUMPI PUSH2 0x15C1 CALLDATASIZE PUSH2 0x3170 JUMP JUMPDEST PUSH2 0x15C9 PUSH2 0x36E7 JUMP JUMPDEST PUSH2 0x15D1 PUSH2 0x36C9 JUMP JUMPDEST DUP3 DUP1 MSTORE DUP3 PUSH1 0x20 MSTORE PUSH1 0x40 DUP4 KECCAK256 CALLER PUSH1 0x0 MSTORE PUSH1 0x20 MSTORE PUSH2 0x15F4 PUSH1 0xFF PUSH1 0x40 PUSH1 0x0 KECCAK256 SLOAD AND PUSH2 0x37B4 JUMP JUMPDEST PUSH1 0x2 SLOAD PUSH1 0x40 MLOAD PUSH4 0xD09EF241 PUSH1 0xE0 SHL DUP2 MSTORE PUSH1 0x4 DUP2 ADD DUP5 SWAP1 MSTORE PUSH1 0x8 SWAP2 SWAP1 SWAP2 SHR PUSH1 0x1 PUSH1 0x1 PUSH1 0xA0 SHL SUB AND SWAP2 SWAP1 DUP5 DUP2 PUSH1 0x24 DUP2 DUP7 GAS STATICCALL SWAP1 DUP2 ISZERO PUSH2 0x7BA JUMPI DUP6 SWAP2 PUSH2 0x17B1 JUMPI JUMPDEST POP PUSH2 0x380 DUP2 ADD MLOAD PUSH1 0xB DUP2 LT ISZERO PUSH2 0xC31 JUMPI PUSH1 0x4 PUSH2 0x164E SWAP2 EQ PUSH2 0x3627 JUMP JUMPDEST PUSH2 0x340 DUP2 ADD MLOAD ISZERO PUSH2 0x1758 JUMPI DUP2 ISZERO PUSH2 0x1705 JUMPI PUSH2 0x420 DUP6 SWAP2 ADD SWAP3 PUSH2 0x1671 DUP4 DUP6 MLOAD PUSH2 0x3699 JUMP JUMPDEST DUP2 EXTCODESIZE ISZERO PUSH2 0x2F1 JUMPI DUP3 SWAP2 PUSH1 0x44 DUP4 SWAP3 PUSH1 0x40 MLOAD SWAP5 DUP6 SWAP4 DUP5 SWAP3 PUSH4 0x2278F557 PUSH1 0xE1 SHL DUP5 MSTORE DUP12 PUSH1 0x4 DUP6 ADD MSTORE PUSH1 0x24 DUP5 ADD MSTORE GAS CALL DUP1 ISZERO PUSH2 0x2E6 JUMPI PUSH2 0x16F1 JUMPI JUMPDEST POP POP PUSH2 0x16D6 DUP2 PUSH32 0xDD46D8CD4968AFB89542D91BA59208E869E45FF03DCDA531AA39FD6888A174C3 SWAP4 MLOAD PUSH2 0x3699 JUMP JUMPDEST PUSH2 0x16E7 PUSH1 0x40 MLOAD SWAP3 DUP4 SWAP3 TIMESTAMP SWAP2 DUP5 PUSH2 0x3759 JUMP JUMPDEST SUB SWAP1 LOG2 PUSH1 0x1 DUP1 SSTORE DUP1 RETURN JUMPDEST PUSH2 0x16FA SWAP1 PUSH2 0x32F7 JUMP JUMPDEST PUSH2 0x416 JUMPI DUP4 CODESIZE PUSH2 0x16A8 JUMP JUMPDEST PUSH1 0x40 MLOAD PUSH3 0x461BCD PUSH1 0xE5 SHL DUP2 MSTORE PUSH1 0x20 PUSH1 0x4 DUP3 ADD MSTORE PUSH1 0x25 PUSH1 0x24 DUP3 ADD MSTORE PUSH32 0x536574746C656D656E743A206469766964656E64206D75737420626520706F73 PUSH1 0x44 DUP3 ADD MSTORE PUSH5 0x6974697665 PUSH1 0xD8 SHL PUSH1 0x64 DUP3 ADD MSTORE PUSH1 0x84 SWAP1 REVERT JUMPDEST PUSH1 0x40 MLOAD PUSH3 0x461BCD PUSH1 0xE5 SHL DUP2 MSTORE PUSH1 0x20 PUSH1 0x4 DUP3 ADD MSTORE PUSH1 0x2B PUSH1 0x24 DUP3 ADD MSTORE PUSH32 0x536574746C656D656E743A206469766964656E642061646A7573746D656E7420 PUSH1 0x44 DUP3 ADD MSTORE PUSH11 0x1B9BDD08195B98589B1959 PUSH1 0xAA SHL PUSH1 0x64 DUP3 ADD MSTORE PUSH1 0x84 SWAP1 REVERT JUMPDEST PUSH2 0x17C5 SWAP2 POP RETURNDATASIZE DUP1 DUP8 DUP4 RETURNDATACOPY PUSH2 0x3FD DUP2 DUP4 PUSH2 0x330A JUMP JUMPDEST CODESIZE PUSH2 0x1632 JUMP JUMPDEST POP CALLVALUE PUSH2 0x41A JUMPI PUSH1 0x20 CALLDATASIZE PUSH1 0x3 NOT ADD SLT PUSH2 0x41A JUMPI PUSH1 0x4 CALLDATALOAD PUSH2 0x17E8 PUSH2 0x36E7 JUMP JUMPDEST PUSH2 0x17F0 PUSH2 0x36C9 JUMP JUMPDEST PUSH1 0x2 SLOAD PUSH1 0x40 MLOAD PUSH4 0xD09EF241 PUSH1 0xE0 SHL DUP2 MSTORE PUSH1 0x4 DUP2 ADD DUP4 SWAP1 MSTORE PUSH1 0x1 PUSH1 0x1 PUSH1 0xA0 SHL SUB PUSH1 0x8 SWAP3 SWAP1 SWAP3 SHR DUP3 AND SWAP2 PUSH1 0x24 SWAP2 DUP6 DUP2 DUP5 DUP2 DUP8 GAS STATICCALL SWAP1 DUP2 ISZERO PUSH2 0xEF7 JUMPI DUP7 SWAP2 PUSH2 0x1B2C JUMPI JUMPDEST POP PUSH2 0x380 DUP2 ADD DUP1 MLOAD PUSH1 0xB DUP2 LT ISZERO PUSH2 0x1B19 JUMPI PUSH1 0x4 PUSH2 0x184D SWAP2 EQ PUSH2 0x3627 JUMP JUMPDEST MLOAD SWAP4 PUSH1 0xB DUP6 LT ISZERO PUSH2 0x1B06 JUMPI SWAP1 DUP2 DUP8 SWAP5 SWAP4 SWAP3 EXTCODESIZE ISZERO PUSH2 0x75B JUMPI DUP5 DUP1 SWAP2 PUSH1 0x44 PUSH1 0x40 MLOAD DUP1 SWAP5 DUP2 SWAP4 PUSH4 0xAAB3196D PUSH1 0xE0 SHL DUP4 MSTORE DUP13 PUSH1 0x4 DUP5 ADD MSTORE PUSH1 0x9 DUP11 DUP5 ADD MSTORE GAS CALL SWAP1 DUP2 ISZERO PUSH2 0x7BA JUMPI DUP6 SWAP2 PUSH2 0x1AF2 JUMPI JUMPDEST POP POP DUP2 PUSH1 0x2 SLOAD PUSH1 0x8 SHR AND DUP1 EXTCODESIZE ISZERO PUSH2 0x75B JUMPI DUP5 DUP1 SWAP2 PUSH1 0x44 PUSH1 0x40 MLOAD DUP1 SWAP5 DUP2 SWAP4 PUSH4 0x15D92E33 PUSH1 0xE0 SHL DUP4 MSTORE DUP13 PUSH1 0x4 DUP5 ADD MSTORE TIMESTAMP DUP11 DUP5 ADD MSTORE GAS CALL SWAP1 DUP2 ISZERO PUSH2 0x7BA JUMPI DUP6 SWAP2 PUSH2 0x1ADE JUMPI JUMPDEST POP POP PUSH2 0x1E0 DUP2 ADD SWAP3 DUP4 MLOAD DUP1 PUSH2 0x19D2 JUMPI JUMPDEST POP DUP3 PUSH1 0x2 SLOAD PUSH1 0x8 SHR AND DUP1 EXTCODESIZE ISZERO PUSH2 0x834 JUMPI DUP6 SWAP2 PUSH1 0x44 DUP10 DUP5 DUP1 SWAP5 PUSH1 0x40 MLOAD SWAP11 DUP12 SWAP6 DUP7 SWAP5 PUSH4 0x381BAFD PUSH1 0xE3 SHL DUP7 MSTORE PUSH1 0x4 DUP7 ADD MSTORE DUP5 ADD MSTORE GAS CALL SWAP5 DUP6 ISZERO PUSH2 0x11A3 JUMPI DUP8 SWAP6 PUSH2 0x19B5 JUMPI JUMPDEST POP POP PUSH1 0x0 DUP1 MLOAD PUSH1 0x20 PUSH2 0x38C8 DUP4 CODECOPY DUP2 MLOAD SWAP2 MSTORE SWAP5 SWAP3 PUSH1 0xC0 SWAP5 SWAP3 PUSH1 0x20 PUSH1 0x0 DUP1 MLOAD PUSH1 0x20 PUSH2 0x3868 DUP4 CODECOPY DUP2 MLOAD SWAP2 MSTORE SWAP4 ADD MLOAD AND SWAP1 MLOAD PUSH2 0x1969 PUSH1 0x40 MLOAD SWAP3 DUP4 SWAP3 TIMESTAMP SWAP2 DUP5 PUSH2 0x37FD JUMP JUMPDEST SUB SWAP1 LOG2 PUSH2 0x1979 PUSH1 0x40 MLOAD DUP1 SWAP3 PUSH2 0x36A6 JUMP JUMPDEST PUSH1 0x9 PUSH1 0x20 DUP3 ADD MSTORE PUSH1 0x80 PUSH1 0x40 DUP3 ADD MSTORE PUSH1 0x10 PUSH1 0x80 DUP3 ADD MSTORE PUSH16 0x199BDC98D9481B1A5C5D5A59185D1959 PUSH1 0x82 SHL PUSH1 0xA0 DUP3 ADD MSTORE TIMESTAMP PUSH1 0x60 DUP3 ADD MSTORE LOG2 PUSH1 0x1 DUP1 SSTORE DUP1 RETURN JUMPDEST PUSH2 0x19C3 SWAP2 SWAP3 SWAP7 SWAP5 SWAP6 POP PUSH2 0x32F7 JUMP JUMPDEST PUSH2 0x834 JUMPI DUP5 SWAP3 SWAP2 SWAP4 DUP7 CODESIZE PUSH2 0x192A JUMP JUMPDEST DUP4 PUSH1 0x4 SLOAD AND SWAP1 DUP5 PUSH1 0x40 DUP6 ADD MLOAD AND SWAP1 PUSH1 0x20 DUP6 ADD SWAP3 DUP7 DUP5 MLOAD AND SWAP1 DUP8 PUSH1 0x5 SLOAD AND SWAP4 DUP2 EXTCODESIZE ISZERO PUSH2 0x1ADA JUMPI DUP11 PUSH1 0xE4 SWAP3 DUP2 SWAP6 PUSH1 0x40 MLOAD SWAP8 DUP9 SWAP7 DUP8 SWAP6 PUSH4 0x5FE3A8B PUSH1 0xE3 SHL DUP8 MSTORE PUSH1 0x4 DUP8 ADD MSTORE DUP12 DUP7 ADD MSTORE PUSH1 0x44 DUP6 ADD MSTORE PUSH1 0x64 DUP5 ADD MSTORE PUSH1 0xA0 PUSH1 0x84 DUP5 ADD MSTORE PUSH1 0x12 PUSH1 0xA4 DUP5 ADD MSTORE PUSH18 0x1B1A5C5D5A59185D1A5BDB881C185E5BDD5D PUSH1 0x72 SHL PUSH1 0xC4 DUP5 ADD MSTORE GAS CALL SWAP1 DUP2 ISZERO PUSH2 0x40B JUMPI DUP8 SWAP2 PUSH2 0x1AC6 JUMPI JUMPDEST POP POP DUP4 DUP1 PUSH1 0x4 SLOAD AND SWAP2 MLOAD AND DUP5 PUSH1 0x5 SLOAD AND SWAP2 DUP7 MLOAD SWAP1 DUP1 EXTCODESIZE ISZERO PUSH2 0x7C5 JUMPI PUSH2 0x1A9A SWAP4 DUP10 DUP1 SWAP5 PUSH1 0x40 MLOAD SWAP7 DUP8 SWAP6 DUP7 SWAP5 DUP6 SWAP4 PUSH4 0x6924FAA7 PUSH1 0xE1 SHL DUP6 MSTORE PUSH1 0x4 DUP6 ADD PUSH2 0x3737 JUMP JUMPDEST SUB SWAP3 GAS CALL SWAP1 DUP2 ISZERO PUSH2 0xEF7 JUMPI DUP7 SWAP2 PUSH2 0x1AB2 JUMPI JUMPDEST POP PUSH2 0x18E8 JUMP JUMPDEST PUSH2 0x1ABB SWAP1 PUSH2 0x32F7 JUMP JUMPDEST PUSH2 0x75B JUMPI DUP5 CODESIZE PUSH2 0x1AAC JUMP JUMPDEST PUSH2 0x1ACF SWAP1 PUSH2 0x32F7 JUMP JUMPDEST PUSH2 0x834 JUMPI DUP6 CODESIZE PUSH2 0x1A5B JUMP JUMPDEST DUP11 DUP1 REVERT JUMPDEST PUSH2 0x1AE7 SWAP1 PUSH2 0x32F7 JUMP JUMPDEST PUSH2 0x416 JUMPI DUP4 CODESIZE PUSH2 0x18D8 JUMP JUMPDEST PUSH2 0x1AFB SWAP1 PUSH2 0x32F7 JUMP JUMPDEST PUSH2 0x416 JUMPI DUP4 CODESIZE PUSH2 0x1896 JUMP JUMPDEST PUSH4 0x4E487B71 PUSH1 0xE0 SHL DUP8 MSTORE PUSH1 0x21 PUSH1 0x4 MSTORE DUP4 DUP8 REVERT JUMPDEST PUSH4 0x4E487B71 PUSH1 0xE0 SHL DUP9 MSTORE PUSH1 0x21 PUSH1 0x4 MSTORE DUP5 DUP9 REVERT JUMPDEST PUSH2 0x1B40 SWAP2 POP RETURNDATASIZE DUP1 DUP9 DUP4 RETURNDATACOPY PUSH2 0x3FD DUP2 DUP4 PUSH2 0x330A JUMP JUMPDEST CODESIZE PUSH2 0x1830 JUMP JUMPDEST POP PUSH1 0x20 DUP1 PUSH1 0x3 NOT CALLDATASIZE ADD SLT PUSH2 0x74C JUMPI PUSH1 0x4 CALLDATALOAD SWAP1 PUSH2 0x1B60 PUSH2 0x36E7 JUMP JUMPDEST PUSH2 0x1B68 PUSH2 0x36C9 JUMP JUMPDEST PUSH1 0x2 SLOAD SWAP1 PUSH1 0x40 MLOAD PUSH4 0xD09EF241 PUSH1 0xE0 SHL DUP2 MSTORE DUP4 PUSH1 0x4 DUP3 ADD MSTORE PUSH1 0x24 SWAP1 DUP6 DUP2 DUP4 DUP2 PUSH1 0x1 DUP1 PUSH1 0xA0 SHL SUB DUP1 SWAP9 PUSH1 0x8 SHR AND GAS STATICCALL SWAP1 DUP2 ISZERO PUSH2 0xEF7 JUMPI DUP7 SWAP2 PUSH2 0x1E90 JUMPI JUMPDEST POP PUSH2 0x380 DUP2 ADD SWAP1 DUP2 MLOAD PUSH1 0xB DUP2 LT ISZERO PUSH2 0x3D6 JUMPI PUSH1 0x6 SUB PUSH2 0x1E3C JUMPI DUP5 DUP5 DUP3 ADD MLOAD AND CALLER EQ DUP1 ISZERO PUSH2 0x1E2D JUMPI JUMPDEST ISZERO PUSH2 0x1DE9 JUMPI DUP1 PUSH2 0x300 PUSH2 0x3E0 PUSH2 0x1BE6 SWAP4 ADD MLOAD SWAP2 ADD MLOAD SWAP1 PUSH2 0x3699 JUMP JUMPDEST TIMESTAMP GT PUSH2 0x1D97 JUMPI DUP4 PUSH1 0x5 SLOAD AND PUSH1 0x4 DUP8 DUP7 DUP3 SLOAD AND DUP7 DUP9 PUSH1 0x3 SLOAD AND PUSH1 0x40 MLOAD SWAP5 DUP6 DUP1 SWAP3 PUSH4 0x39F4F75 PUSH1 0xE3 SHL DUP3 MSTORE GAS STATICCALL DUP1 ISZERO PUSH2 0x2E6 JUMPI DUP8 SWAP4 DUP4 SWAP2 PUSH2 0x1D63 JUMPI JUMPDEST POP PUSH2 0x1C53 PUSH2 0x1C45 SWAP2 PUSH1 0x40 MLOAD SWAP3 DUP4 SWAP2 DUP8 DUP4 ADD SWAP6 PUSH4 0x23B872DD PUSH1 0xE0 SHL DUP8 MSTORE CALLER DUP13 DUP6 ADD PUSH2 0x3737 JUMP JUMPDEST SUB PUSH1 0x1F NOT DUP2 ADD DUP4 MSTORE DUP3 PUSH2 0x330A JUMP JUMPDEST MLOAD SWAP1 DUP3 DUP6 GAS CALL ISZERO PUSH2 0xEF7 JUMPI DUP7 MLOAD RETURNDATASIZE PUSH2 0x1D5A JUMPI POP DUP1 EXTCODESIZE ISZERO JUMPDEST PUSH2 0x1D43 JUMPI POP MLOAD SWAP3 PUSH1 0xB DUP5 LT ISZERO PUSH2 0x1D30 JUMPI SWAP1 DUP6 SWAP2 PUSH1 0x2 SLOAD PUSH1 0x8 SHR AND SWAP1 DUP2 EXTCODESIZE ISZERO PUSH2 0x2F1 JUMPI PUSH1 0x7 PUSH1 0x44 DUP5 SWAP3 DUP4 PUSH1 0x40 MLOAD SWAP6 DUP7 SWAP5 DUP6 SWAP4 PUSH4 0xAAB3196D PUSH1 0xE0 SHL DUP6 MSTORE DUP13 PUSH1 0x4 DUP7 ADD MSTORE DUP5 ADD MSTORE GAS CALL DUP1 ISZERO PUSH2 0x2E6 JUMPI PUSH2 0x1D1C JUMPI JUMPDEST POP POP PUSH1 0x0 DUP1 MLOAD PUSH1 0x20 PUSH2 0x38C8 DUP4 CODECOPY DUP2 MLOAD SWAP2 MSTORE SWAP2 PUSH1 0x7 PUSH1 0xC0 SWAP3 PUSH2 0x1CDF PUSH1 0x40 MLOAD DUP1 SWAP5 PUSH2 0x36A6 JUMP JUMPDEST DUP3 ADD MSTORE PUSH1 0x80 PUSH1 0x40 DUP3 ADD MSTORE PUSH1 0x15 PUSH1 0x80 DUP3 ADD MSTORE PUSH21 0x185C989A5D1C985D1A5BDB881A5B9A5D1A585D1959 PUSH1 0x5A SHL PUSH1 0xA0 DUP3 ADD MSTORE TIMESTAMP PUSH1 0x60 DUP3 ADD MSTORE LOG2 PUSH1 0x1 DUP1 SSTORE DUP1 RETURN JUMPDEST PUSH2 0x1D25 SWAP1 PUSH2 0x32F7 JUMP JUMPDEST PUSH2 0x416 JUMPI DUP4 CODESIZE PUSH2 0x1CBB JUMP JUMPDEST POP PUSH4 0x4E487B71 PUSH1 0xE0 SHL DUP6 MSTORE PUSH1 0x21 PUSH1 0x4 MSTORE DUP5 REVERT JUMPDEST SWAP1 POP PUSH1 0x40 MLOAD SWAP1 PUSH4 0x5274AFE7 PUSH1 0xE0 SHL DUP3 MSTORE PUSH1 0x4 DUP3 ADD MSTORE REVERT JUMPDEST PUSH1 0x1 EQ ISZERO PUSH2 0x1C6A JUMP JUMPDEST SWAP3 POP POP SWAP2 DUP2 DUP2 RETURNDATASIZE DUP4 GT PUSH2 0x1D90 JUMPI JUMPDEST PUSH2 0x1D7B DUP2 DUP4 PUSH2 0x330A JUMP JUMPDEST DUP2 ADD SUB SLT PUSH2 0x324 JUMPI MLOAD DUP6 SWAP2 DUP10 SWAP2 PUSH2 0x1C53 PUSH2 0x1C20 JUMP JUMPDEST POP RETURNDATASIZE PUSH2 0x1D71 JUMP JUMPDEST PUSH1 0x40 MLOAD PUSH3 0x461BCD PUSH1 0xE5 SHL DUP2 MSTORE PUSH1 0x4 DUP2 ADD DUP5 SWAP1 MSTORE PUSH1 0x25 DUP2 DUP5 ADD MSTORE PUSH32 0x536574746C656D656E743A206172626974726174696F6E2077696E646F772063 PUSH1 0x44 DUP3 ADD MSTORE PUSH5 0x1B1BDCD959 PUSH1 0xDA SHL PUSH1 0x64 DUP3 ADD MSTORE PUSH1 0x84 SWAP1 REVERT JUMPDEST PUSH1 0x40 MLOAD PUSH3 0x461BCD PUSH1 0xE5 SHL DUP2 MSTORE PUSH1 0x4 DUP2 ADD DUP6 SWAP1 MSTORE PUSH1 0x1E DUP2 DUP6 ADD MSTORE PUSH32 0x536574746C656D656E743A206E6F7420706172747920746F206F726465720000 PUSH1 0x44 DUP3 ADD MSTORE PUSH1 0x64 SWAP1 REVERT JUMPDEST POP DUP5 PUSH1 0x40 DUP3 ADD MLOAD AND CALLER EQ PUSH2 0x1BCB JUMP JUMPDEST PUSH1 0x40 MLOAD PUSH3 0x461BCD PUSH1 0xE5 SHL DUP2 MSTORE PUSH1 0x4 DUP2 ADD DUP6 SWAP1 MSTORE PUSH1 0x27 DUP2 DUP6 ADD MSTORE PUSH32 0x536574746C656D656E743A2063616E6E6F7420696E6974696174652061726269 PUSH1 0x44 DUP3 ADD MSTORE PUSH7 0x3A3930BA34B7B7 PUSH1 0xC9 SHL PUSH1 0x64 DUP3 ADD MSTORE PUSH1 0x84 SWAP1 REVERT JUMPDEST PUSH2 0x1EA4 SWAP2 POP RETURNDATASIZE DUP1 DUP9 DUP4 RETURNDATACOPY PUSH2 0x3FD DUP2 DUP4 PUSH2 0x330A JUMP JUMPDEST CODESIZE PUSH2 0x1BA3 JUMP JUMPDEST POP CALLVALUE PUSH2 0x41A JUMPI DUP1 PUSH1 0x3 NOT CALLDATASIZE ADD SLT PUSH2 0x41A JUMPI PUSH1 0x2 SLOAD PUSH1 0x40 MLOAD PUSH1 0x8 SWAP2 SWAP1 SWAP2 SHR PUSH1 0x1 PUSH1 0x1 PUSH1 0xA0 SHL SUB AND DUP2 MSTORE PUSH1 0x20 SWAP1 RETURN JUMPDEST POP CALLVALUE PUSH2 0x41A JUMPI DUP1 PUSH1 0x3 NOT CALLDATASIZE ADD SLT PUSH2 0x41A JUMPI PUSH1 0x20 PUSH1 0xFF PUSH1 0x2 SLOAD AND PUSH1 0x40 MLOAD SWAP1 ISZERO ISZERO DUP2 MSTORE RETURN JUMPDEST POP CALLVALUE PUSH2 0x41A JUMPI PUSH1 0x20 DUP1 PUSH1 0x3 NOT CALLDATASIZE ADD SLT PUSH2 0x74C JUMPI PUSH1 0x4 CALLDATALOAD SWAP1 PUSH2 0x1F19 PUSH2 0x36E7 JUMP JUMPDEST PUSH2 0x1F21 PUSH2 0x36C9 JUMP JUMPDEST PUSH1 0x2 SLOAD PUSH1 0x40 MLOAD PUSH4 0xD09EF241 PUSH1 0xE0 SHL DUP2 MSTORE PUSH1 0x4 DUP2 ADD DUP5 SWAP1 MSTORE PUSH1 0x1 PUSH1 0x1 PUSH1 0xA0 SHL SUB PUSH1 0x8 SWAP3 SWAP1 SWAP3 SHR DUP3 AND SWAP2 PUSH1 0x24 SWAP2 DUP7 DUP2 DUP5 DUP2 DUP8 GAS STATICCALL SWAP1 DUP2 ISZERO PUSH2 0x40B JUMPI DUP8 SWAP2 PUSH2 0x2372 JUMPI JUMPDEST POP PUSH2 0x380 DUP2 ADD DUP1 MLOAD PUSH1 0xB DUP2 LT ISZERO PUSH2 0x235F JUMPI PUSH1 0x4 EQ DUP1 ISZERO PUSH2 0x234B JUMPI JUMPDEST ISZERO PUSH2 0x22F5 JUMPI PUSH2 0x160 DUP3 ADD DUP1 MLOAD ISZERO PUSH2 0x22B5 JUMPI PUSH1 0x4 SWAP1 MLOAD DUP8 DUP6 PUSH1 0x3 SLOAD AND PUSH1 0x40 MLOAD SWAP4 DUP5 DUP1 SWAP3 PUSH4 0x6FD8129B PUSH1 0xE1 SHL DUP3 MSTORE GAS STATICCALL SWAP1 DUP2 ISZERO PUSH2 0x954 JUMPI DUP11 SWAP2 PUSH2 0x2284 JUMPI JUMPDEST PUSH2 0x1FC2 SWAP3 POP PUSH2 0x3699 JUMP JUMPDEST TIMESTAMP GT ISZERO PUSH2 0x222C JUMPI MLOAD SWAP4 PUSH1 0xB DUP6 LT ISZERO PUSH2 0x3D6 JUMPI SWAP1 DUP2 DUP9 SWAP5 SWAP4 SWAP3 EXTCODESIZE ISZERO PUSH2 0x75B JUMPI DUP5 DUP1 SWAP2 PUSH1 0x44 PUSH1 0x40 MLOAD DUP1 SWAP5 DUP2 SWAP4 PUSH4 0xAAB3196D PUSH1 0xE0 SHL DUP4 MSTORE DUP14 PUSH1 0x4 DUP5 ADD MSTORE PUSH1 0xA DUP11 DUP5 ADD MSTORE GAS CALL SWAP1 DUP2 ISZERO PUSH2 0x7BA JUMPI DUP6 SWAP2 PUSH2 0x2218 JUMPI JUMPDEST POP POP DUP2 PUSH1 0x2 SLOAD PUSH1 0x8 SHR AND DUP1 EXTCODESIZE ISZERO PUSH2 0x75B JUMPI DUP5 DUP1 SWAP2 PUSH1 0x44 PUSH1 0x40 MLOAD DUP1 SWAP5 DUP2 SWAP4 PUSH4 0x15D92E33 PUSH1 0xE0 SHL DUP4 MSTORE DUP14 PUSH1 0x4 DUP5 ADD MSTORE TIMESTAMP DUP11 DUP5 ADD MSTORE GAS CALL SWAP1 DUP2 ISZERO PUSH2 0x7BA JUMPI DUP6 SWAP2 PUSH2 0x2204 JUMPI JUMPDEST POP POP PUSH2 0x1A0 DUP2 ADD MLOAD DUP1 PUSH2 0x219A JUMPI JUMPDEST POP PUSH2 0x1E0 DUP2 ADD MLOAD DUP1 PUSH2 0x2136 JUMPI JUMPDEST POP POP PUSH1 0x2 SLOAD PUSH1 0x8 SHR AND SWAP1 DUP2 EXTCODESIZE ISZERO PUSH2 0x2F1 JUMPI DUP3 PUSH1 0x44 DUP2 SWAP3 DUP3 PUSH1 0x40 MLOAD SWAP6 DUP7 SWAP5 DUP6 SWAP4 PUSH4 0x381BAFD PUSH1 0xE3 SHL DUP6 MSTORE DUP13 PUSH1 0x4 DUP7 ADD MSTORE DUP5 ADD MSTORE GAS CALL DUP1 ISZERO PUSH2 0x2E6 JUMPI PUSH2 0x2122 JUMPI JUMPDEST POP POP PUSH1 0xA PUSH1 0x0 DUP1 MLOAD PUSH1 0x20 PUSH2 0x38C8 DUP4 CODECOPY DUP2 MLOAD SWAP2 MSTORE SWAP3 DUP5 PUSH1 0x0 DUP1 MLOAD PUSH1 0x20 PUSH2 0x38A8 DUP4 CODECOPY DUP2 MLOAD SWAP2 MSTORE PUSH1 0x40 MLOAD PUSH1 0x40 DUP2 MSTORE DUP1 PUSH2 0x20E6 PUSH1 0x40 DUP3 ADD PUSH2 0x3842 JUMP JUMPDEST TIMESTAMP DUP7 DUP4 ADD MSTORE SUB SWAP1 LOG2 PUSH2 0x20FB PUSH1 0x40 MLOAD DUP1 SWAP5 PUSH2 0x36A6 JUMP JUMPDEST DUP3 ADD MSTORE PUSH1 0x80 PUSH1 0x40 DUP3 ADD MSTORE DUP1 PUSH2 0x2112 PUSH1 0x80 DUP3 ADD PUSH2 0x3842 JUMP JUMPDEST TIMESTAMP PUSH1 0x60 DUP4 ADD MSTORE SUB SWAP1 LOG2 PUSH1 0x1 DUP1 SSTORE DUP1 RETURN JUMPDEST PUSH2 0x212B SWAP1 PUSH2 0x32F7 JUMP JUMPDEST PUSH2 0x416 JUMPI DUP4 CODESIZE PUSH2 0x20AE JUMP JUMPDEST DUP3 PUSH1 0x40 DUP2 PUSH1 0x4 SLOAD AND SWAP4 ADD MLOAD AND SWAP1 DUP4 PUSH1 0x5 SLOAD AND SWAP3 DUP1 EXTCODESIZE ISZERO PUSH2 0x2E2 JUMPI PUSH2 0x2174 SWAP4 DUP8 DUP1 SWAP5 PUSH1 0x40 MLOAD SWAP7 DUP8 SWAP6 DUP7 SWAP5 DUP6 SWAP4 PUSH4 0x6924FAA7 PUSH1 0xE1 SHL DUP6 MSTORE PUSH1 0x4 DUP6 ADD PUSH2 0x3737 JUMP JUMPDEST SUB SWAP3 GAS CALL SWAP1 DUP2 ISZERO PUSH2 0x750 JUMPI DUP5 SWAP2 ISZERO PUSH2 0x206F JUMPI PUSH2 0x218F SWAP1 PUSH2 0x32F7 JUMP JUMPDEST PUSH2 0x2F1 JUMPI DUP3 CODESIZE PUSH2 0x206F JUMP JUMPDEST DUP3 PUSH1 0x4 SLOAD AND SWAP1 DUP4 DUP9 DUP5 ADD MLOAD AND SWAP1 DUP5 PUSH1 0x5 SLOAD AND SWAP3 DUP1 EXTCODESIZE ISZERO PUSH2 0x1239 JUMPI PUSH2 0x21D8 SWAP4 DUP9 DUP1 SWAP5 PUSH1 0x40 MLOAD SWAP7 DUP8 SWAP6 DUP7 SWAP5 DUP6 SWAP4 PUSH4 0x6924FAA7 PUSH1 0xE1 SHL DUP6 MSTORE PUSH1 0x4 DUP6 ADD PUSH2 0x3737 JUMP JUMPDEST SUB SWAP3 GAS CALL SWAP1 DUP2 ISZERO PUSH2 0x7BA JUMPI DUP6 SWAP2 PUSH2 0x21F0 JUMPI JUMPDEST POP PUSH2 0x2062 JUMP JUMPDEST PUSH2 0x21F9 SWAP1 PUSH2 0x32F7 JUMP JUMPDEST PUSH2 0x416 JUMPI DUP4 CODESIZE PUSH2 0x21EA JUMP JUMPDEST PUSH2 0x220D SWAP1 PUSH2 0x32F7 JUMP JUMPDEST PUSH2 0x416 JUMPI DUP4 CODESIZE PUSH2 0x2054 JUMP JUMPDEST PUSH2 0x2221 SWAP1 PUSH2 0x32F7 JUMP JUMPDEST PUSH2 0x416 JUMPI DUP4 CODESIZE PUSH2 0x2012 JUMP JUMPDEST PUSH1 0x40 MLOAD PUSH3 0x461BCD PUSH1 0xE5 SHL DUP2 MSTORE PUSH1 0x4 DUP2 ADD DUP8 SWAP1 MSTORE PUSH1 0x2B DUP2 DUP7 ADD MSTORE PUSH32 0x536574746C656D656E743A2066696E616C206665656420646561646C696E6520 PUSH1 0x44 DUP3 ADD MSTORE PUSH11 0x1B9BDD081C995858DA1959 PUSH1 0xAA SHL PUSH1 0x64 DUP3 ADD MSTORE PUSH1 0x84 SWAP1 REVERT JUMPDEST SWAP1 POP DUP8 DUP3 DUP2 RETURNDATASIZE DUP4 GT PUSH2 0x22AE JUMPI JUMPDEST PUSH2 0x229B DUP2 DUP4 PUSH2 0x330A JUMP JUMPDEST DUP2 ADD SUB SLT PUSH2 0x324 JUMPI PUSH2 0x1FC2 SWAP2 MLOAD SWAP1 PUSH2 0x1FB8 JUMP JUMPDEST POP RETURNDATASIZE PUSH2 0x2291 JUMP JUMPDEST PUSH1 0x40 MLOAD PUSH3 0x461BCD PUSH1 0xE5 SHL DUP2 MSTORE PUSH1 0x4 DUP2 ADD DUP9 SWAP1 MSTORE PUSH1 0x19 DUP2 DUP8 ADD MSTORE PUSH25 0x14D95D1D1B195B595B9D0E881B9BC8195E1C1A5C9E481CD95D PUSH1 0x3A SHL PUSH1 0x44 DUP3 ADD MSTORE PUSH1 0x64 SWAP1 REVERT JUMPDEST PUSH1 0x40 MLOAD PUSH3 0x461BCD PUSH1 0xE5 SHL DUP2 MSTORE PUSH1 0x4 DUP2 ADD DUP8 SWAP1 MSTORE PUSH1 0x29 DUP2 DUP7 ADD MSTORE PUSH32 0x536574746C656D656E743A206F72646572206E6F74206177616974696E672066 PUSH1 0x44 DUP3 ADD MSTORE PUSH9 0x1A5B985B0819995959 PUSH1 0xBA SHL PUSH1 0x64 DUP3 ADD MSTORE PUSH1 0x84 SWAP1 REVERT JUMPDEST POP DUP1 MLOAD PUSH1 0xB DUP2 LT ISZERO PUSH2 0x235F JUMPI PUSH1 0x5 EQ PUSH2 0x1F7C JUMP JUMPDEST PUSH4 0x4E487B71 PUSH1 0xE0 SHL DUP10 MSTORE PUSH1 0x21 PUSH1 0x4 MSTORE DUP5 DUP10 REVERT JUMPDEST PUSH2 0x2386 SWAP2 POP RETURNDATASIZE DUP1 DUP10 DUP4 RETURNDATACOPY PUSH2 0x3FD DUP2 DUP4 PUSH2 0x330A JUMP JUMPDEST CODESIZE PUSH2 0x1F61 JUMP JUMPDEST POP CALLVALUE PUSH2 0x41A JUMPI PUSH1 0x20 DUP1 PUSH1 0x3 NOT CALLDATASIZE ADD SLT PUSH2 0x74C JUMPI PUSH1 0x4 CALLDATALOAD SWAP1 PUSH2 0x23AB PUSH2 0x36E7 JUMP JUMPDEST PUSH2 0x23B3 PUSH2 0x36C9 JUMP JUMPDEST PUSH1 0x2 SLOAD PUSH1 0x40 MLOAD PUSH4 0xD09EF241 PUSH1 0xE0 SHL DUP2 MSTORE PUSH1 0x4 DUP2 ADD DUP5 SWAP1 MSTORE PUSH1 0x1 PUSH1 0x1 PUSH1 0xA0 SHL SUB PUSH1 0x8 SWAP3 SWAP1 SWAP3 SHR DUP3 AND SWAP3 SWAP2 PUSH1 0x24 SWAP2 DUP7 DUP2 DUP5 DUP2 DUP9 GAS STATICCALL SWAP1 DUP2 ISZERO PUSH2 0x40B JUMPI DUP8 SWAP2 PUSH2 0x282E JUMPI JUMPDEST POP PUSH2 0x380 DUP2 ADD DUP1 MLOAD PUSH1 0xB DUP2 LT ISZERO PUSH2 0x235F JUMPI PUSH1 0x4 PUSH2 0x2411 SWAP2 EQ PUSH2 0x3627 JUMP JUMPDEST PUSH2 0x320 DUP3 ADD DUP1 MLOAD ISZERO PUSH2 0x27E0 JUMPI MLOAD TIMESTAMP GT ISZERO PUSH2 0x279E JUMPI PUSH2 0x2710 PUSH2 0x243D PUSH2 0x1C0 DUP5 ADD MLOAD PUSH2 0x200 DUP6 ADD MLOAD SWAP1 PUSH2 0x3670 JUMP JUMPDEST DIV SWAP1 PUSH2 0x1E0 DUP4 ADD SWAP2 DUP3 MLOAD LT ISZERO PUSH2 0x275A JUMPI MLOAD SWAP6 PUSH1 0xB DUP8 LT ISZERO PUSH2 0x235F JUMPI SWAP1 DUP2 DUP10 SWAP6 SWAP5 SWAP4 SWAP3 EXTCODESIZE ISZERO PUSH2 0x834 JUMPI DUP6 DUP1 SWAP2 PUSH1 0x44 DUP12 PUSH1 0x40 MLOAD SWAP5 DUP6 SWAP4 DUP5 SWAP3 PUSH4 0xAAB3196D PUSH1 0xE0 SHL DUP5 MSTORE PUSH1 0x4 DUP5 ADD MSTORE PUSH1 0x9 DUP12 DUP5 ADD MSTORE GAS CALL SWAP1 DUP2 ISZERO PUSH2 0xEF7 JUMPI DUP7 SWAP2 PUSH2 0x2746 JUMPI JUMPDEST POP POP DUP3 PUSH1 0x2 SLOAD PUSH1 0x8 SHR AND DUP1 EXTCODESIZE ISZERO PUSH2 0x834 JUMPI DUP6 DUP1 SWAP2 PUSH1 0x44 DUP12 PUSH1 0x40 MLOAD SWAP5 DUP6 SWAP4 DUP5 SWAP3 PUSH4 0x15D92E33 PUSH1 0xE0 SHL DUP5 MSTORE PUSH1 0x4 DUP5 ADD MSTORE TIMESTAMP DUP12 DUP5 ADD MSTORE GAS CALL SWAP1 DUP2 ISZERO PUSH2 0xEF7 JUMPI DUP7 SWAP2 PUSH2 0x2732 JUMPI JUMPDEST POP POP MLOAD SWAP3 DUP4 PUSH2 0x2627 JUMPI JUMPDEST DUP3 PUSH1 0x2 SLOAD PUSH1 0x8 SHR AND DUP1 EXTCODESIZE ISZERO PUSH2 0x834 JUMPI DUP6 DUP1 SWAP2 PUSH1 0x44 DUP12 PUSH1 0x40 MLOAD SWAP5 DUP6 SWAP4 DUP5 SWAP3 PUSH4 0x381BAFD PUSH1 0xE3 SHL DUP5 MSTORE PUSH1 0x4 DUP5 ADD MSTORE DUP2 DUP9 DUP5 ADD MSTORE GAS CALL SWAP1 DUP2 ISZERO PUSH2 0xEF7 JUMPI DUP7 SWAP2 PUSH2 0x2613 JUMPI JUMPDEST POP POP DUP3 PUSH1 0x2 SLOAD PUSH1 0x8 SHR AND DUP1 EXTCODESIZE ISZERO PUSH2 0x834 JUMPI DUP6 SWAP2 PUSH1 0x44 DUP11 DUP5 DUP1 SWAP5 PUSH1 0x40 MLOAD SWAP11 DUP12 SWAP6 DUP7 SWAP5 PUSH4 0xD37E527B PUSH1 0xE0 SHL DUP7 MSTORE PUSH1 0x4 DUP7 ADD MSTORE DUP5 ADD MSTORE GAS CALL SWAP5 DUP6 ISZERO PUSH2 0x11A3 JUMPI DUP9 SWAP6 PUSH2 0x25F4 JUMPI JUMPDEST POP POP SWAP3 PUSH1 0x0 DUP1 MLOAD PUSH1 0x20 PUSH2 0x3868 DUP4 CODECOPY DUP2 MLOAD SWAP2 MSTORE PUSH1 0x9 SWAP4 DUP7 SWAP4 PUSH1 0xC0 SWAP8 PUSH1 0x0 DUP1 MLOAD PUSH1 0x20 PUSH2 0x38C8 DUP4 CODECOPY DUP2 MLOAD SWAP2 MSTORE SWAP10 SWAP8 ADD MLOAD AND SWAP1 PUSH2 0x25A9 PUSH1 0x40 MLOAD SWAP3 DUP4 SWAP3 TIMESTAMP SWAP2 DUP5 PUSH2 0x37FD JUMP JUMPDEST SUB SWAP1 LOG2 PUSH2 0x25B9 PUSH1 0x40 MLOAD DUP1 SWAP5 PUSH2 0x36A6 JUMP JUMPDEST DUP3 ADD MSTORE PUSH1 0x80 PUSH1 0x40 DUP3 ADD MSTORE PUSH1 0x13 PUSH1 0x80 DUP3 ADD MSTORE PUSH19 0x1B585C99DA5B8818D85B1B081D1A5B595BDD5D PUSH1 0x6A SHL PUSH1 0xA0 DUP3 ADD MSTORE TIMESTAMP PUSH1 0x60 DUP3 ADD MSTORE LOG2 PUSH1 0x1 DUP1 SSTORE DUP1 RETURN JUMPDEST PUSH2 0x2603 SWAP2 SWAP3 SWAP7 SWAP4 SWAP8 SWAP6 POP PUSH2 0x32F7 JUMP JUMPDEST PUSH2 0x2E2 JUMPI SWAP3 SWAP4 DUP6 SWAP3 SWAP5 DUP8 CODESIZE PUSH2 0x2569 JUMP JUMPDEST PUSH2 0x261C SWAP1 PUSH2 0x32F7 JUMP JUMPDEST PUSH2 0x75B JUMPI DUP5 CODESIZE PUSH2 0x2526 JUMP JUMPDEST DUP3 PUSH1 0x4 SLOAD AND DUP4 PUSH1 0x40 DUP5 ADD MLOAD AND SWAP1 DUP8 DUP5 ADD SWAP2 DUP6 DUP4 MLOAD AND DUP7 PUSH1 0x5 SLOAD AND SWAP3 DUP1 EXTCODESIZE ISZERO PUSH2 0x838 JUMPI DUP10 SWAP3 DUP4 PUSH1 0xE4 SWAP3 PUSH1 0x40 MLOAD SWAP7 DUP8 SWAP6 DUP7 SWAP5 PUSH4 0x5FE3A8B PUSH1 0xE3 SHL DUP7 MSTORE PUSH1 0x4 DUP7 ADD MSTORE DUP11 DUP6 ADD MSTORE PUSH1 0x44 DUP5 ADD MSTORE DUP12 PUSH1 0x64 DUP5 ADD MSTORE PUSH1 0xA0 PUSH1 0x84 DUP5 ADD MSTORE PUSH1 0x17 PUSH1 0xA4 DUP5 ADD MSTORE PUSH23 0x36B0B933B4B71031B0B636103634B8BAB4B230BA34B7B7 PUSH1 0x49 SHL PUSH1 0xC4 DUP5 ADD MSTORE GAS CALL SWAP1 DUP2 ISZERO PUSH2 0x40B JUMPI DUP8 SWAP2 PUSH2 0x271E JUMPI JUMPDEST POP POP DUP4 DUP1 PUSH1 0x4 SLOAD AND SWAP2 MLOAD AND DUP5 PUSH1 0x5 SLOAD AND SWAP1 DUP3 EXTCODESIZE ISZERO PUSH2 0x1239 JUMPI PUSH2 0x26F1 SWAP3 DUP9 SWAP3 DUP4 DUP10 SWAP4 PUSH1 0x40 MLOAD SWAP7 DUP8 SWAP6 DUP7 SWAP5 DUP6 SWAP4 PUSH4 0x6924FAA7 PUSH1 0xE1 SHL DUP6 MSTORE PUSH1 0x4 DUP6 ADD PUSH2 0x3737 JUMP JUMPDEST SUB SWAP3 GAS CALL SWAP1 DUP2 ISZERO PUSH2 0xEF7 JUMPI DUP7 SWAP2 PUSH2 0x270A JUMPI JUMPDEST POP POP PUSH2 0x24E5 JUMP JUMPDEST PUSH2 0x2713 SWAP1 PUSH2 0x32F7 JUMP JUMPDEST PUSH2 0x75B JUMPI DUP5 CODESIZE PUSH2 0x2703 JUMP JUMPDEST PUSH2 0x2727 SWAP1 PUSH2 0x32F7 JUMP JUMPDEST PUSH2 0x834 JUMPI DUP6 CODESIZE PUSH2 0x26B3 JUMP JUMPDEST PUSH2 0x273B SWAP1 PUSH2 0x32F7 JUMP JUMPDEST PUSH2 0x75B JUMPI DUP5 CODESIZE PUSH2 0x24DB JUMP JUMPDEST PUSH2 0x274F SWAP1 PUSH2 0x32F7 JUMP JUMPDEST PUSH2 0x75B JUMPI DUP5 CODESIZE PUSH2 0x2498 JUMP JUMPDEST PUSH1 0x40 MLOAD PUSH3 0x461BCD PUSH1 0xE5 SHL DUP2 MSTORE PUSH1 0x4 DUP2 ADD DUP8 SWAP1 MSTORE PUSH1 0x1F DUP2 DUP8 ADD MSTORE PUSH32 0x536574746C656D656E743A206D617267696E2077617320726573746F72656400 PUSH1 0x44 DUP3 ADD MSTORE PUSH1 0x64 SWAP1 REVERT JUMPDEST PUSH1 0x64 DUP5 DUP7 PUSH1 0x40 MLOAD SWAP2 PUSH3 0x461BCD PUSH1 0xE5 SHL DUP4 MSTORE DUP2 PUSH1 0x4 DUP5 ADD MSTORE DUP3 ADD MSTORE PUSH32 0x536574746C656D656E743A20646561646C696E65206E6F742072656163686564 PUSH1 0x44 DUP3 ADD MSTORE REVERT JUMPDEST PUSH1 0x40 MLOAD PUSH3 0x461BCD PUSH1 0xE5 SHL DUP2 MSTORE PUSH1 0x4 DUP2 ADD DUP8 SWAP1 MSTORE PUSH1 0x21 DUP2 DUP8 ADD MSTORE PUSH32 0x536574746C656D656E743A206E6F206D617267696E2063616C6C206163746976 PUSH1 0x44 DUP3 ADD MSTORE PUSH1 0x65 PUSH1 0xF8 SHL PUSH1 0x64 DUP3 ADD MSTORE PUSH1 0x84 SWAP1 REVERT JUMPDEST PUSH2 0x2842 SWAP2 POP RETURNDATASIZE DUP1 DUP10 DUP4 RETURNDATACOPY PUSH2 0x3FD DUP2 DUP4 PUSH2 0x330A JUMP JUMPDEST CODESIZE PUSH2 0x23F4 JUMP JUMPDEST POP CALLVALUE PUSH2 0x41A JUMPI PUSH1 0x20 DUP1 PUSH1 0x3 NOT CALLDATASIZE ADD SLT PUSH2 0x74C JUMPI PUSH1 0x4 CALLDATALOAD SWAP1 PUSH2 0x2867 PUSH2 0x36E7 JUMP JUMPDEST PUSH2 0x286F PUSH2 0x36C9 JUMP JUMPDEST PUSH1 0x2 SLOAD PUSH1 0x40 MLOAD PUSH4 0xD09EF241 PUSH1 0xE0 SHL DUP2 MSTORE PUSH1 0x4 DUP2 ADD DUP5 SWAP1 MSTORE PUSH1 0x24 SWAP3 SWAP2 PUSH1 0x8 SHR PUSH1 0x1 PUSH1 0x1 PUSH1 0xA0 SHL SUB SWAP1 DUP2 AND SWAP2 SWAP1 DUP7 DUP3 DUP7 DUP2 DUP7 GAS STATICCALL SWAP2 DUP3 ISZERO PUSH2 0x40B JUMPI DUP8 SWAP3 PUSH2 0x2AC8 JUMPI JUMPDEST POP DUP2 MLOAD ISZERO PUSH2 0x2A88 JUMPI DUP4 DUP3 ADD MLOAD AND CALLER SUB PUSH2 0x2A4C JUMPI PUSH2 0x380 DUP2 ADD SWAP1 DUP2 MLOAD PUSH1 0xB DUP2 LT ISZERO PUSH2 0x2A39 JUMPI PUSH1 0x4 PUSH2 0x28DF SWAP2 EQ PUSH2 0x3627 JUMP JUMPDEST PUSH1 0xFF PUSH2 0x2A0 DUP3 ADD MLOAD AND SWAP1 PUSH3 0x15180 SWAP2 DUP3 DUP2 MUL SWAP3 DUP2 DUP5 DIV EQ SWAP1 ISZERO OR ISZERO PUSH2 0x2A26 JUMPI SWAP1 PUSH2 0x3C0 PUSH2 0x290D SWAP3 ADD MLOAD PUSH2 0x3699 JUMP JUMPDEST TIMESTAMP LT PUSH2 0x29D7 JUMPI MLOAD SWAP3 PUSH1 0xB DUP5 LT ISZERO PUSH2 0x29C5 JUMPI SWAP1 DUP6 SWAP2 DUP2 EXTCODESIZE ISZERO PUSH2 0x2F1 JUMPI PUSH1 0x5 PUSH1 0x44 DUP5 SWAP3 DUP4 PUSH1 0x40 MLOAD SWAP6 DUP7 SWAP5 DUP6 SWAP4 PUSH4 0xAAB3196D PUSH1 0xE0 SHL DUP6 MSTORE DUP13 PUSH1 0x4 DUP7 ADD MSTORE DUP5 ADD MSTORE GAS CALL DUP1 ISZERO PUSH2 0x2E6 JUMPI PUSH2 0x29B1 JUMPI JUMPDEST POP POP PUSH1 0x0 DUP1 MLOAD PUSH1 0x20 PUSH2 0x38C8 DUP4 CODECOPY DUP2 MLOAD SWAP2 MSTORE SWAP2 PUSH1 0x5 PUSH1 0xC0 SWAP3 PUSH2 0x297B PUSH1 0x40 MLOAD DUP1 SWAP5 PUSH2 0x36A6 JUMP JUMPDEST DUP3 ADD MSTORE PUSH1 0x80 PUSH1 0x40 DUP3 ADD MSTORE PUSH1 0xE PUSH1 0x80 DUP3 ADD MSTORE PUSH14 0x6561726C79206578657263697365 PUSH1 0x90 SHL PUSH1 0xA0 DUP3 ADD MSTORE TIMESTAMP PUSH1 0x60 DUP3 ADD MSTORE LOG2 PUSH1 0x1 DUP1 SSTORE DUP1 RETURN JUMPDEST PUSH2 0x29BA SWAP1 PUSH2 0x32F7 JUMP JUMPDEST PUSH2 0x416 JUMPI DUP4 CODESIZE PUSH2 0x2957 JUMP JUMPDEST PUSH4 0x4E487B71 PUSH1 0xE0 SHL DUP7 MSTORE PUSH1 0x21 PUSH1 0x4 MSTORE DUP6 REVERT JUMPDEST PUSH1 0x40 MLOAD PUSH3 0x461BCD PUSH1 0xE5 SHL DUP2 MSTORE PUSH1 0x4 DUP2 ADD DUP5 SWAP1 MSTORE PUSH1 0x22 DUP2 DUP7 ADD MSTORE PUSH32 0x536574746C656D656E743A2065786572636973652064656C6179206E6F74206D PUSH1 0x44 DUP3 ADD MSTORE PUSH2 0x195D PUSH1 0xF2 SHL PUSH1 0x64 DUP3 ADD MSTORE PUSH1 0x84 SWAP1 REVERT JUMPDEST PUSH4 0x4E487B71 PUSH1 0xE0 SHL DUP9 MSTORE PUSH1 0x11 PUSH1 0x4 MSTORE DUP6 DUP9 REVERT JUMPDEST PUSH4 0x4E487B71 PUSH1 0xE0 SHL DUP9 MSTORE PUSH1 0x21 PUSH1 0x4 MSTORE DUP6 DUP9 REVERT JUMPDEST PUSH1 0x40 MLOAD PUSH3 0x461BCD PUSH1 0xE5 SHL DUP2 MSTORE PUSH1 0x4 DUP2 ADD DUP5 SWAP1 MSTORE PUSH1 0x15 DUP2 DUP7 ADD MSTORE PUSH21 0x29B2BA3A3632B6B2B73A1D103737BA10313ABCB2B9 PUSH1 0x59 SHL PUSH1 0x44 DUP3 ADD MSTORE PUSH1 0x64 SWAP1 REVERT JUMPDEST PUSH1 0x40 MLOAD PUSH3 0x461BCD PUSH1 0xE5 SHL DUP2 MSTORE PUSH1 0x4 DUP2 ADD DUP6 SWAP1 MSTORE PUSH1 0x19 DUP2 DUP8 ADD MSTORE PUSH25 0x29B2BA3A3632B6B2B73A1D1034B73B30B634B21037B93232B9 PUSH1 0x39 SHL PUSH1 0x44 DUP3 ADD MSTORE PUSH1 0x64 SWAP1 REVERT JUMPDEST PUSH2 0x2ADD SWAP2 SWAP3 POP RETURNDATASIZE DUP1 DUP10 DUP4 RETURNDATACOPY PUSH2 0x3FD DUP2 DUP4 PUSH2 0x330A JUMP JUMPDEST SWAP1 CODESIZE PUSH2 0x28AF JUMP JUMPDEST POP CALLVALUE PUSH2 0x41A JUMPI DUP1 PUSH1 0x3 NOT CALLDATASIZE ADD SLT PUSH2 0x41A JUMPI PUSH2 0x2AFD PUSH2 0x3186 JUMP JUMPDEST PUSH1 0x2 SLOAD PUSH1 0xFF DUP2 AND ISZERO PUSH2 0x2B3D JUMPI PUSH1 0xFF NOT AND PUSH1 0x2 SSTORE PUSH32 0x5DB9EE0A495BF2E6FF9C91A7834C1BA4FDD244A5E8AA4E537BD38AEAE4B073AA PUSH1 0x20 PUSH1 0x40 MLOAD CALLER DUP2 MSTORE LOG1 DUP1 RETURN JUMPDEST PUSH1 0x40 MLOAD PUSH4 0x8DFC202B PUSH1 0xE0 SHL DUP2 MSTORE PUSH1 0x4 SWAP1 REVERT JUMPDEST POP CALLVALUE PUSH2 0x41A JUMPI PUSH1 0x40 CALLDATASIZE PUSH1 0x3 NOT ADD SLT PUSH2 0x41A JUMPI PUSH2 0x2B69 PUSH2 0x315A JUMP JUMPDEST CALLER PUSH1 0x1 PUSH1 0x1 PUSH1 0xA0 SHL SUB DUP3 AND SUB PUSH2 0x2B85 JUMPI PUSH2 0xA83 SWAP1 PUSH1 0x4 CALLDATALOAD PUSH2 0x3282 JUMP JUMPDEST PUSH1 0x40 MLOAD PUSH4 0x334BD919 PUSH1 0xE1 SHL DUP2 MSTORE PUSH1 0x4 SWAP1 REVERT JUMPDEST POP CALLVALUE PUSH2 0x41A JUMPI PUSH1 0x60 CALLDATASIZE PUSH1 0x3 NOT ADD SLT PUSH2 0x41A JUMPI PUSH1 0x44 DUP1 CALLDATALOAD PUSH1 0x1 PUSH1 0x1 PUSH1 0x40 SHL SUB DUP2 GT PUSH2 0x2F1 JUMPI CALLDATASIZE PUSH1 0x23 DUP3 ADD SLT ISZERO PUSH2 0x2F1 JUMPI PUSH1 0x4 DUP2 ADD CALLDATALOAD SWAP1 PUSH1 0x1 PUSH1 0x1 PUSH1 0x40 SHL SUB DUP3 GT PUSH2 0x416 JUMPI PUSH1 0x24 CALLDATASIZE SWAP2 DUP4 PUSH1 0x5 SHL ADD ADD GT PUSH2 0x2F1 JUMPI PUSH2 0x2BF1 PUSH2 0x36E7 JUMP JUMPDEST PUSH2 0x2BF9 PUSH2 0x36C9 JUMP JUMPDEST DUP3 DUP1 MSTORE PUSH1 0x20 DUP4 DUP2 MSTORE PUSH1 0x40 DUP5 KECCAK256 CALLER DUP6 MSTORE DUP2 MSTORE PUSH2 0x2C1A PUSH1 0xFF PUSH1 0x40 DUP7 KECCAK256 SLOAD AND PUSH2 0x37B4 JUMP JUMPDEST PUSH1 0x2 SLOAD PUSH1 0x40 MLOAD PUSH4 0xD09EF241 PUSH1 0xE0 SHL DUP2 MSTORE PUSH1 0x4 DUP1 CALLDATALOAD SWAP1 DUP3 ADD MSTORE SWAP1 DUP6 SWAP1 DUP3 SWAP1 PUSH1 0x24 SWAP1 DUP3 SWAP1 PUSH1 0x8 SHR PUSH1 0x1 PUSH1 0x1 PUSH1 0xA0 SHL SUB AND GAS STATICCALL SWAP1 DUP2 ISZERO PUSH2 0x7BA JUMPI DUP6 SWAP2 PUSH2 0x2FB4 JUMPI JUMPDEST POP PUSH2 0x380 DUP2 ADD SWAP3 DUP4 MLOAD PUSH1 0xB DUP2 LT ISZERO PUSH2 0xEC7 JUMPI PUSH1 0x7 SUB PUSH2 0x2F64 JUMPI ISZERO PUSH2 0x2F23 JUMPI PUSH2 0x400 DUP2 ADD MLOAD SWAP1 DUP3 PUSH1 0x1 DUP1 PUSH1 0xA0 SHL SUB SWAP2 ADD MLOAD AND SWAP1 DUP6 SWAP4 DUP2 PUSH1 0x24 CALLDATALOAD SUB PUSH2 0x2EBD JUMPI JUMPDEST PUSH1 0x2 SLOAD DUP8 SWAP1 PUSH1 0x8 SHR PUSH1 0x1 PUSH1 0x1 PUSH1 0xA0 SHL SUB AND DUP1 EXTCODESIZE ISZERO PUSH2 0x74C JUMPI DUP2 DUP1 SWAP2 DUP10 PUSH1 0x40 MLOAD DUP1 SWAP5 DUP2 SWAP4 PUSH4 0x5E9E78D PUSH1 0xE4 SHL DUP4 MSTORE PUSH1 0x4 CALLDATALOAD PUSH1 0x4 DUP5 ADD MSTORE PUSH1 0x24 CALLDATALOAD PUSH1 0x24 DUP5 ADD MSTORE GAS CALL DUP1 ISZERO PUSH2 0x2E6 JUMPI PUSH2 0x2EA9 JUMPI JUMPDEST POP POP MLOAD SWAP5 PUSH1 0xB DUP7 LT ISZERO PUSH2 0xEC7 JUMPI PUSH1 0x2 SLOAD DUP8 SWAP2 SWAP1 PUSH1 0x8 SHR PUSH1 0x1 PUSH1 0x1 PUSH1 0xA0 SHL SUB AND DUP1 EXTCODESIZE ISZERO PUSH2 0x2F1 JUMPI DUP3 DUP1 SWAP2 DUP4 PUSH1 0x40 MLOAD DUP1 SWAP5 DUP2 SWAP4 PUSH4 0xAAB3196D PUSH1 0xE0 SHL DUP4 MSTORE PUSH1 0x4 CALLDATALOAD PUSH1 0x4 DUP5 ADD MSTORE PUSH1 0x8 PUSH1 0x24 DUP5 ADD MSTORE GAS CALL SWAP1 DUP2 ISZERO PUSH2 0x331 JUMPI DUP4 SWAP2 PUSH2 0x2E95 JUMPI JUMPDEST POP POP PUSH1 0x2 SLOAD PUSH1 0x8 SHR PUSH1 0x1 PUSH1 0x1 PUSH1 0xA0 SHL SUB AND SWAP1 DUP2 EXTCODESIZE ISZERO PUSH2 0x2F1 JUMPI DUP3 SWAP2 DUP3 SWAP2 PUSH1 0x40 MLOAD DUP1 SWAP5 DUP2 SWAP4 PUSH4 0x15D92E33 PUSH1 0xE0 SHL DUP4 MSTORE PUSH1 0x4 CALLDATALOAD PUSH1 0x4 DUP5 ADD MSTORE TIMESTAMP PUSH1 0x24 DUP5 ADD MSTORE GAS CALL DUP1 ISZERO PUSH2 0x2E6 JUMPI PUSH2 0x2E81 JUMPI JUMPDEST POP POP PUSH1 0x40 DUP1 MLOAD PUSH1 0x4 CALLDATALOAD DUP6 DUP3 ADD SWAP1 DUP2 MSTORE TIMESTAMP DUP3 DUP5 ADD MSTORE SWAP2 DUP2 MSTORE SWAP1 SWAP5 PUSH1 0x60 DUP3 ADD SWAP3 PUSH1 0x1 PUSH1 0x1 PUSH1 0x40 SHL SUB DUP5 GT DUP4 DUP6 LT OR PUSH2 0x2E6B JUMPI PUSH1 0x8 SWAP7 DUP5 PUSH1 0x40 MSTORE DUP4 MLOAD SWAP1 KECCAK256 SWAP5 DUP5 MSTORE DUP1 PUSH1 0x80 DUP5 ADD MSTORE PUSH1 0x24 CALLDATALOAD PUSH1 0xA0 DUP5 ADD MSTORE PUSH1 0x24 CALLDATALOAD EQ ISZERO PUSH1 0xC0 DUP4 ADD MSTORE PUSH1 0xE0 DUP3 ADD MSTORE PUSH2 0x100 TIMESTAMP SWAP2 ADD MSTORE PUSH32 0xB3560D930DA64161657F7700F7109520A24B93D7FF2363739EE324A1E0D6BF87 PUSH1 0xC0 PUSH1 0x4 CALLDATALOAD SWAP3 LOG3 PUSH2 0x2E1A PUSH1 0x40 MLOAD DUP1 SWAP5 PUSH2 0x36A6 JUMP JUMPDEST DUP3 ADD MSTORE PUSH1 0x80 PUSH1 0x40 DUP3 ADD MSTORE PUSH1 0x14 PUSH1 0x80 DUP3 ADD MSTORE PUSH20 0x185C989A5D1C985D1A5BDB881C995CDBDB1D9959 PUSH1 0x62 SHL PUSH1 0xA0 DUP3 ADD MSTORE TIMESTAMP PUSH1 0x60 DUP3 ADD MSTORE PUSH1 0x0 DUP1 MLOAD PUSH1 0x20 PUSH2 0x38C8 DUP4 CODECOPY DUP2 MLOAD SWAP2 MSTORE PUSH1 0xC0 PUSH1 0x4 CALLDATALOAD SWAP3 LOG2 PUSH1 0x1 DUP1 SSTORE DUP1 RETURN JUMPDEST PUSH4 0x4E487B71 PUSH1 0xE0 SHL PUSH1 0x0 MSTORE PUSH1 0x41 PUSH1 0x4 MSTORE PUSH1 0x24 PUSH1 0x0 REVERT JUMPDEST PUSH2 0x2E8A SWAP1 PUSH2 0x32F7 JUMP JUMPDEST PUSH2 0x834 JUMPI DUP6 CODESIZE PUSH2 0x2D83 JUMP JUMPDEST PUSH2 0x2E9E SWAP1 PUSH2 0x32F7 JUMP JUMPDEST PUSH2 0x74C JUMPI DUP2 CODESIZE PUSH2 0x2D3A JUMP JUMPDEST PUSH2 0x2EB2 SWAP1 PUSH2 0x32F7 JUMP JUMPDEST PUSH2 0x2E2 JUMPI DUP7 CODESIZE PUSH2 0x2CE0 JUMP JUMPDEST PUSH1 0x4 SLOAD PUSH8 0x98A7D9B8314C0000 SWAP6 POP DUP8 SWAP1 PUSH1 0x1 PUSH1 0x1 PUSH1 0xA0 SHL SUB AND DUP1 EXTCODESIZE ISZERO PUSH2 0x74C JUMPI DUP2 SWAP1 DUP9 PUSH1 0x40 MLOAD DUP1 SWAP5 DUP2 SWAP4 PUSH4 0x15490EBB PUSH1 0xE0 SHL DUP4 MSTORE DUP10 PUSH1 0x4 DUP5 ADD MSTORE DUP12 PUSH1 0x24 DUP5 ADD MSTORE GAS CALL DUP1 ISZERO PUSH2 0x850 JUMPI PUSH2 0x2F10 JUMPI JUMPDEST POP PUSH2 0x2C96 JUMP JUMPDEST PUSH2 0x2F1C SWAP1 SWAP8 SWAP2 SWAP8 PUSH2 0x32F7 JUMP JUMPDEST SWAP6 CODESIZE PUSH2 0x2F0A JUMP JUMPDEST PUSH1 0x40 MLOAD PUSH3 0x461BCD PUSH1 0xE5 SHL DUP2 MSTORE PUSH1 0x4 DUP2 ADD DUP4 SWAP1 MSTORE PUSH1 0x1A PUSH1 0x24 DUP3 ADD MSTORE PUSH26 0x536574746C656D656E743A206E6F2061726269747261746F7273 PUSH1 0x30 SHL DUP2 DUP7 ADD MSTORE PUSH1 0x64 SWAP1 REVERT JUMPDEST PUSH1 0x40 MLOAD PUSH3 0x461BCD PUSH1 0xE5 SHL DUP2 MSTORE PUSH1 0x4 DUP2 ADD DUP5 SWAP1 MSTORE PUSH1 0x24 DUP1 DUP3 ADD MSTORE PUSH32 0x536574746C656D656E743A206F72646572206E6F7420696E2061726269747261 DUP2 DUP8 ADD MSTORE PUSH4 0x3A34B7B7 PUSH1 0xE1 SHL PUSH1 0x64 DUP3 ADD MSTORE PUSH1 0x84 SWAP1 REVERT JUMPDEST PUSH2 0x2FC8 SWAP2 POP RETURNDATASIZE DUP1 DUP8 DUP4 RETURNDATACOPY PUSH2 0x3FD DUP2 DUP4 PUSH2 0x330A JUMP JUMPDEST CODESIZE PUSH2 0x2C58 JUMP JUMPDEST POP CALLVALUE PUSH2 0x41A JUMPI DUP1 PUSH1 0x3 NOT CALLDATASIZE ADD SLT PUSH2 0x41A JUMPI PUSH1 0x5 SLOAD PUSH1 0x40 MLOAD PUSH1 0x1 PUSH1 0x1 PUSH1 0xA0 SHL SUB SWAP1 SWAP2 AND DUP2 MSTORE PUSH1 0x20 SWAP1 RETURN JUMPDEST POP CALLVALUE PUSH2 0x41A JUMPI PUSH1 0x40 CALLDATASIZE PUSH1 0x3 NOT ADD SLT PUSH2 0x41A JUMPI PUSH2 0xA83 PUSH1 0x4 CALLDATALOAD PUSH2 0x3017 PUSH2 0x315A JUMP JUMPDEST SWAP1 DUP1 DUP5 MSTORE DUP4 PUSH1 0x20 MSTORE PUSH2 0x302F PUSH1 0x1 PUSH1 0x40 DUP7 KECCAK256 ADD SLOAD PUSH2 0x31DE JUMP JUMPDEST PUSH2 0x3204 JUMP JUMPDEST POP CALLVALUE PUSH2 0x41A JUMPI PUSH1 0x20 CALLDATASIZE PUSH1 0x3 NOT ADD SLT PUSH2 0x41A JUMPI PUSH2 0x304E PUSH2 0x3144 JUMP JUMPDEST PUSH2 0x3056 PUSH2 0x3186 JUMP JUMPDEST PUSH1 0x2 DUP1 SLOAD PUSH2 0x100 PUSH1 0x1 PUSH1 0xA8 SHL SUB NOT AND PUSH1 0x8 SWAP3 SWAP1 SWAP3 SHL PUSH2 0x100 PUSH1 0x1 PUSH1 0xA8 SHL SUB AND SWAP2 SWAP1 SWAP2 OR SWAP1 SSTORE DUP1 RETURN JUMPDEST POP CALLVALUE PUSH2 0x41A JUMPI PUSH1 0x20 CALLDATASIZE PUSH1 0x3 NOT ADD SLT PUSH2 0x41A JUMPI PUSH1 0x1 PUSH1 0x40 PUSH1 0x20 SWAP3 PUSH1 0x4 CALLDATALOAD DUP2 MSTORE DUP1 DUP5 MSTORE KECCAK256 ADD SLOAD PUSH1 0x40 MLOAD SWAP1 DUP2 MSTORE RETURN JUMPDEST POP CALLVALUE PUSH2 0x41A JUMPI PUSH1 0x20 CALLDATASIZE PUSH1 0x3 NOT ADD SLT PUSH2 0x41A JUMPI PUSH2 0x30C4 PUSH2 0x3144 JUMP JUMPDEST PUSH2 0x30CC PUSH2 0x3186 JUMP JUMPDEST PUSH1 0x3 DUP1 SLOAD PUSH1 0x1 PUSH1 0x1 PUSH1 0xA0 SHL SUB NOT AND PUSH1 0x1 PUSH1 0x1 PUSH1 0xA0 SHL SUB SWAP3 SWAP1 SWAP3 AND SWAP2 SWAP1 SWAP2 OR SWAP1 SSTORE DUP1 RETURN JUMPDEST SWAP1 POP CALLVALUE PUSH2 0x74C JUMPI PUSH1 0x20 CALLDATASIZE PUSH1 0x3 NOT ADD SLT PUSH2 0x74C JUMPI PUSH1 0x4 CALLDATALOAD PUSH4 0xFFFFFFFF PUSH1 0xE0 SHL DUP2 AND DUP1 SWAP2 SUB PUSH2 0x2F1 JUMPI PUSH1 0x20 SWAP3 POP PUSH4 0x7965DB0B PUSH1 0xE0 SHL DUP2 EQ SWAP1 DUP2 ISZERO PUSH2 0x3133 JUMPI JUMPDEST POP ISZERO ISZERO DUP2 MSTORE RETURN JUMPDEST PUSH4 0x1FFC9A7 PUSH1 0xE0 SHL EQ SWAP1 POP CODESIZE PUSH2 0x312C JUMP JUMPDEST PUSH1 0x4 CALLDATALOAD SWAP1 PUSH1 0x1 PUSH1 0x1 PUSH1 0xA0 SHL SUB DUP3 AND DUP3 SUB PUSH2 0x324 JUMPI JUMP JUMPDEST PUSH1 0x24 CALLDATALOAD SWAP1 PUSH1 0x1 PUSH1 0x1 PUSH1 0xA0 SHL SUB DUP3 AND DUP3 SUB PUSH2 0x324 JUMPI JUMP JUMPDEST PUSH1 0x40 SWAP1 PUSH1 0x3 NOT ADD SLT PUSH2 0x324 JUMPI PUSH1 0x4 CALLDATALOAD SWAP1 PUSH1 0x24 CALLDATALOAD SWAP1 JUMP JUMPDEST CALLER PUSH1 0x0 SWAP1 DUP2 MSTORE PUSH32 0xAD3228B676F7D3CD4284A5443F17F1962B36E491B30A40B2405849E597BA5FB5 PUSH1 0x20 MSTORE PUSH1 0x40 DUP2 KECCAK256 SLOAD PUSH1 0xFF AND ISZERO PUSH2 0x31C0 JUMPI POP JUMP JUMPDEST PUSH1 0x44 SWAP1 PUSH1 0x40 MLOAD SWAP1 PUSH4 0xE2517D3F PUSH1 0xE0 SHL DUP3 MSTORE CALLER PUSH1 0x4 DUP4 ADD MSTORE PUSH1 0x24 DUP3 ADD MSTORE REVERT JUMPDEST DUP1 PUSH1 0x0 MSTORE PUSH1 0x0 PUSH1 0x20 MSTORE PUSH1 0x40 PUSH1 0x0 KECCAK256 CALLER PUSH1 0x0 MSTORE PUSH1 0x20 MSTORE PUSH1 0xFF PUSH1 0x40 PUSH1 0x0 KECCAK256 SLOAD AND ISZERO PUSH2 0x31C0 JUMPI POP JUMP JUMPDEST SWAP1 PUSH1 0x0 SWAP2 DUP1 DUP4 MSTORE DUP3 PUSH1 0x20 MSTORE PUSH1 0x40 DUP4 KECCAK256 SWAP2 PUSH1 0x1 DUP1 PUSH1 0xA0 SHL SUB AND SWAP2 DUP3 DUP5 MSTORE PUSH1 0x20 MSTORE PUSH1 0xFF PUSH1 0x40 DUP5 KECCAK256 SLOAD AND ISZERO PUSH1 0x0 EQ PUSH2 0x327D JUMPI DUP1 DUP4 MSTORE DUP3 PUSH1 0x20 MSTORE PUSH1 0x40 DUP4 KECCAK256 DUP3 DUP5 MSTORE PUSH1 0x20 MSTORE PUSH1 0x40 DUP4 KECCAK256 PUSH1 0x1 PUSH1 0xFF NOT DUP3 SLOAD AND OR SWAP1 SSTORE PUSH32 0x2F8788117E7EFF1D82E926EC794901D17C78024A50270940304540A733656F0D CALLER SWAP4 DUP1 LOG4 PUSH1 0x1 SWAP1 JUMP JUMPDEST POP POP SWAP1 JUMP JUMPDEST SWAP1 PUSH1 0x0 SWAP2 DUP1 DUP4 MSTORE DUP3 PUSH1 0x20 MSTORE PUSH1 0x40 DUP4 KECCAK256 SWAP2 PUSH1 0x1 DUP1 PUSH1 0xA0 SHL SUB AND SWAP2 DUP3 DUP5 MSTORE PUSH1 0x20 MSTORE PUSH1 0xFF PUSH1 0x40 DUP5 KECCAK256 SLOAD AND PUSH1 0x0 EQ PUSH2 0x327D JUMPI DUP1 DUP4 MSTORE DUP3 PUSH1 0x20 MSTORE PUSH1 0x40 DUP4 KECCAK256 DUP3 DUP5 MSTORE PUSH1 0x20 MSTORE PUSH1 0x40 DUP4 KECCAK256 PUSH1 0xFF NOT DUP2 SLOAD AND SWAP1 SSTORE PUSH32 0xF6391F5C32D9C69D2A47EA670B442974B53935D1EDC7FD64EB21E047A839171B CALLER SWAP4 DUP1 LOG4 PUSH1 0x1 SWAP1 JUMP JUMPDEST PUSH1 0x1 PUSH1 0x1 PUSH1 0x40 SHL SUB DUP2 GT PUSH2 0x2E6B JUMPI PUSH1 0x40 MSTORE JUMP JUMPDEST PUSH1 0x1F SWAP1 SWAP2 ADD PUSH1 0x1F NOT AND DUP2 ADD SWAP1 PUSH1 0x1 PUSH1 0x1 PUSH1 0x40 SHL SUB DUP3 GT SWAP1 DUP3 LT OR PUSH2 0x2E6B JUMPI PUSH1 0x40 MSTORE JUMP JUMPDEST MLOAD SWAP1 PUSH1 0x1 PUSH1 0x1 PUSH1 0xA0 SHL SUB DUP3 AND DUP3 SUB PUSH2 0x324 JUMPI JUMP JUMPDEST SWAP2 SWAP1 DUP1 PUSH1 0x1F DUP5 ADD SLT ISZERO PUSH2 0x324 JUMPI DUP3 MLOAD SWAP1 PUSH1 0x1 PUSH1 0x1 PUSH1 0x40 SHL SUB DUP3 GT PUSH2 0x2E6B JUMPI PUSH1 0x40 MLOAD SWAP2 PUSH1 0x20 SWAP2 PUSH2 0x3379 PUSH1 0x1F DUP4 ADD PUSH1 0x1F NOT AND DUP5 ADD DUP6 PUSH2 0x330A JUMP JUMPDEST DUP2 DUP5 MSTORE DUP3 DUP3 DUP8 ADD ADD GT PUSH2 0x324 JUMPI PUSH1 0x0 JUMPDEST DUP2 DUP2 LT PUSH2 0x339E JUMPI POP DUP3 PUSH1 0x0 SWAP4 SWAP5 SWAP6 POP ADD ADD MSTORE SWAP1 JUMP JUMPDEST DUP6 DUP2 ADD DUP4 ADD MLOAD DUP5 DUP3 ADD DUP5 ADD MSTORE DUP3 ADD PUSH2 0x3389 JUMP JUMPDEST MLOAD SWAP1 PUSH1 0xFF DUP3 AND DUP3 SUB PUSH2 0x324 JUMPI JUMP JUMPDEST PUSH1 0x20 DUP2 DUP4 SUB SLT PUSH2 0x324 JUMPI DUP1 MLOAD PUSH1 0x1 PUSH1 0x1 PUSH1 0x40 SHL SUB SWAP2 DUP3 DUP3 GT PUSH2 0x324 JUMPI ADD SWAP1 PUSH2 0x440 SWAP3 DUP4 DUP4 DUP3 SUB SLT PUSH2 0x324 JUMPI PUSH1 0x40 MLOAD SWAP4 DUP5 ADD DUP5 DUP2 LT DUP4 DUP3 GT OR PUSH2 0x2E6B JUMPI PUSH1 0x40 MSTORE DUP3 MLOAD DUP5 MSTORE PUSH2 0x340E PUSH1 0x20 DUP5 ADD PUSH2 0x332D JUMP JUMPDEST PUSH1 0x20 DUP6 ADD MSTORE PUSH2 0x341F PUSH1 0x40 DUP5 ADD PUSH2 0x332D JUMP JUMPDEST PUSH1 0x40 DUP6 ADD MSTORE PUSH1 0x60 DUP4 ADD MLOAD DUP3 DUP2 GT PUSH2 0x324 JUMPI DUP2 PUSH2 0x343C SWAP2 DUP6 ADD PUSH2 0x3341 JUMP JUMPDEST PUSH1 0x60 DUP6 ADD MSTORE PUSH1 0x80 DUP4 ADD MLOAD DUP3 DUP2 GT PUSH2 0x324 JUMPI DUP2 PUSH2 0x3459 SWAP2 DUP6 ADD PUSH2 0x3341 JUMP JUMPDEST PUSH1 0x80 DUP6 ADD MSTORE PUSH1 0xA0 DUP4 ADD MLOAD DUP3 DUP2 GT PUSH2 0x324 JUMPI DUP2 PUSH2 0x3476 SWAP2 DUP6 ADD PUSH2 0x3341 JUMP JUMPDEST PUSH1 0xA0 DUP6 ADD MSTORE PUSH1 0xC0 DUP4 ADD MLOAD DUP3 DUP2 GT PUSH2 0x324 JUMPI DUP2 PUSH2 0x3493 SWAP2 DUP6 ADD PUSH2 0x3341 JUMP JUMPDEST PUSH1 0xC0 DUP6 ADD MSTORE PUSH1 0xE0 DUP4 ADD MLOAD SWAP2 DUP3 GT PUSH2 0x324 JUMPI PUSH2 0x34AF SWAP2 DUP4 ADD PUSH2 0x3341 JUMP JUMPDEST PUSH1 0xE0 DUP4 ADD MSTORE PUSH2 0x100 DUP1 DUP3 ADD MLOAD SWAP1 PUSH1 0x2 DUP3 LT ISZERO PUSH2 0x324 JUMPI DUP4 ADD MSTORE PUSH2 0x120 DUP1 DUP3 ADD MLOAD SWAP1 DUP4 ADD MSTORE PUSH2 0x140 DUP1 DUP3 ADD MLOAD SWAP1 DUP4 ADD MSTORE PUSH2 0x160 DUP1 DUP3 ADD MLOAD SWAP1 DUP4 ADD MSTORE PUSH2 0x180 DUP1 DUP3 ADD MLOAD SWAP1 DUP4 ADD MSTORE PUSH2 0x1A0 DUP1 DUP3 ADD MLOAD SWAP1 DUP4 ADD MSTORE PUSH2 0x1C0 DUP1 DUP3 ADD MLOAD SWAP1 DUP4 ADD MSTORE PUSH2 0x1E0 DUP1 DUP3 ADD MLOAD SWAP1 DUP4 ADD MSTORE PUSH2 0x200 DUP1 DUP3 ADD MLOAD SWAP1 DUP4 ADD MSTORE PUSH2 0x220 DUP1 DUP3 ADD MLOAD SWAP1 DUP4 ADD MSTORE PUSH2 0x240 DUP1 DUP3 ADD MLOAD SWAP1 PUSH1 0x3 DUP3 LT ISZERO PUSH2 0x324 JUMPI DUP4 ADD MSTORE PUSH2 0x260 PUSH2 0x354D DUP2 DUP4 ADD PUSH2 0x33B1 JUMP JUMPDEST SWAP1 DUP4 ADD MSTORE PUSH2 0x280 PUSH2 0x355F DUP2 DUP4 ADD PUSH2 0x33B1 JUMP JUMPDEST SWAP1 DUP4 ADD MSTORE PUSH2 0x2A0 PUSH2 0x3571 DUP2 DUP4 ADD PUSH2 0x33B1 JUMP JUMPDEST SWAP1 DUP4 ADD MSTORE PUSH2 0x2C0 DUP1 DUP3 ADD MLOAD SWAP1 PUSH1 0x3 DUP3 LT ISZERO PUSH2 0x324 JUMPI DUP4 ADD MSTORE PUSH2 0x2E0 PUSH2 0x3597 DUP2 DUP4 ADD PUSH2 0x332D JUMP JUMPDEST SWAP1 DUP4 ADD MSTORE PUSH2 0x300 DUP1 DUP3 ADD MLOAD SWAP1 DUP4 ADD MSTORE PUSH2 0x320 DUP1 DUP3 ADD MLOAD SWAP1 DUP4 ADD MSTORE PUSH2 0x340 DUP1 DUP3 ADD MLOAD SWAP1 DUP2 ISZERO ISZERO DUP3 SUB PUSH2 0x324 JUMPI DUP4 ADD MSTORE PUSH2 0x360 DUP1 DUP3 ADD MLOAD SWAP1 PUSH1 0x2 DUP3 LT ISZERO PUSH2 0x324 JUMPI DUP4 ADD MSTORE PUSH2 0x380 DUP1 DUP3 ADD MLOAD SWAP1 PUSH1 0xB DUP3 LT ISZERO PUSH2 0x324 JUMPI DUP4 ADD MSTORE PUSH2 0x3A0 DUP1 DUP3 ADD MLOAD SWAP1 DUP4 ADD MSTORE PUSH2 0x3C0 DUP1 DUP3 ADD MLOAD SWAP1 DUP4 ADD MSTORE PUSH2 0x3E0 DUP1 DUP3 ADD MLOAD SWAP1 DUP4 ADD MSTORE PUSH2 0x400 DUP1 DUP3 ADD MLOAD SWAP1 DUP4 ADD MSTORE PUSH2 0x420 DUP1 SWAP2 ADD MLOAD SWAP1 DUP3 ADD MSTORE SWAP1 JUMP JUMPDEST ISZERO PUSH2 0x362E JUMPI JUMP JUMPDEST PUSH1 0x40 MLOAD PUSH3 0x461BCD PUSH1 0xE5 SHL DUP2 MSTORE PUSH1 0x20 PUSH1 0x4 DUP3 ADD MSTORE PUSH1 0x1A PUSH1 0x24 DUP3 ADD MSTORE PUSH26 0x536574746C656D656E743A206F72646572206E6F74206C697665 PUSH1 0x30 SHL PUSH1 0x44 DUP3 ADD MSTORE PUSH1 0x64 SWAP1 REVERT JUMPDEST DUP2 DUP2 MUL SWAP3 SWAP2 DUP2 ISZERO SWAP2 DUP5 DIV EQ OR ISZERO PUSH2 0x3683 JUMPI JUMP JUMPDEST PUSH4 0x4E487B71 PUSH1 0xE0 SHL PUSH1 0x0 MSTORE PUSH1 0x11 PUSH1 0x4 MSTORE PUSH1 0x24 PUSH1 0x0 REVERT JUMPDEST SWAP2 SWAP1 DUP3 ADD DUP1 SWAP3 GT PUSH2 0x3683 JUMPI JUMP JUMPDEST SWAP1 PUSH1 0xB DUP3 LT ISZERO PUSH2 0x36B3 JUMPI MSTORE JUMP JUMPDEST PUSH4 0x4E487B71 PUSH1 0xE0 SHL PUSH1 0x0 MSTORE PUSH1 0x21 PUSH1 0x4 MSTORE PUSH1 0x24 PUSH1 0x0 REVERT JUMPDEST PUSH1 0xFF PUSH1 0x2 SLOAD AND PUSH2 0x36D5 JUMPI JUMP JUMPDEST PUSH1 0x40 MLOAD PUSH4 0xD93C0665 PUSH1 0xE0 SHL DUP2 MSTORE PUSH1 0x4 SWAP1 REVERT JUMPDEST PUSH1 0x2 PUSH1 0x1 SLOAD EQ PUSH2 0x36F8 JUMPI PUSH1 0x2 PUSH1 0x1 SSTORE JUMP JUMPDEST PUSH1 0x40 MLOAD PUSH4 0x3EE5AEB5 PUSH1 0xE0 SHL DUP2 MSTORE PUSH1 0x4 SWAP1 REVERT JUMPDEST SWAP2 SWAP1 DUP3 SUB SWAP2 DUP3 GT PUSH2 0x3683 JUMPI JUMP JUMPDEST DUP2 ISZERO PUSH2 0x3721 JUMPI DIV SWAP1 JUMP JUMPDEST PUSH4 0x4E487B71 PUSH1 0xE0 SHL PUSH1 0x0 MSTORE PUSH1 0x12 PUSH1 0x4 MSTORE PUSH1 0x24 PUSH1 0x0 REVERT JUMPDEST PUSH1 0x1 PUSH1 0x1 PUSH1 0xA0 SHL SUB SWAP2 DUP3 AND DUP2 MSTORE SWAP2 AND PUSH1 0x20 DUP3 ADD MSTORE PUSH1 0x40 DUP2 ADD SWAP2 SWAP1 SWAP2 MSTORE PUSH1 0x60 ADD SWAP1 JUMP JUMPDEST PUSH1 0x40 SWAP2 SWAP5 SWAP4 SWAP3 PUSH1 0x60 DUP3 ADD SWAP6 DUP3 MSTORE PUSH1 0x20 DUP3 ADD MSTORE ADD MSTORE JUMP JUMPDEST ISZERO PUSH2 0x3776 JUMPI JUMP JUMPDEST PUSH1 0x40 MLOAD PUSH3 0x461BCD PUSH1 0xE5 SHL DUP2 MSTORE PUSH1 0x20 PUSH1 0x4 DUP3 ADD MSTORE PUSH1 0x16 PUSH1 0x24 DUP3 ADD MSTORE PUSH22 0x29B2BA3A3632B6B2B73A1D103737BA1039B2B63632B9 PUSH1 0x51 SHL PUSH1 0x44 DUP3 ADD MSTORE PUSH1 0x64 SWAP1 REVERT JUMPDEST ISZERO PUSH2 0x37BB JUMPI JUMP JUMPDEST PUSH1 0x40 MLOAD PUSH3 0x461BCD PUSH1 0xE5 SHL DUP2 MSTORE PUSH1 0x20 PUSH1 0x4 DUP3 ADD MSTORE PUSH1 0x1A PUSH1 0x24 DUP3 ADD MSTORE PUSH26 0x14D95D1D1B195B595B9D0E881B9BDD08185D5D1A1BDC9A5E9959 PUSH1 0x32 SHL PUSH1 0x44 DUP3 ADD MSTORE PUSH1 0x64 SWAP1 REVERT JUMPDEST PUSH1 0x40 SWAP2 SWAP5 SWAP4 SWAP3 PUSH1 0x60 DUP3 ADD SWAP6 PUSH1 0x1 DUP1 PUSH1 0xA0 SHL SUB AND DUP3 MSTORE PUSH1 0x20 DUP3 ADD MSTORE ADD MSTORE JUMP JUMPDEST PUSH1 0x14 DUP2 MSTORE PUSH20 0x1A5B9A5D1A585B0819995959081D1A5B595BDD5D PUSH1 0x62 SHL PUSH1 0x20 DUP3 ADD MSTORE PUSH1 0x40 ADD SWAP1 JUMP JUMPDEST PUSH1 0x12 DUP2 MSTORE PUSH18 0x199A5B985B0819995959081D1A5B595BDD5D PUSH1 0x72 SHL PUSH1 0x20 DUP3 ADD MSTORE PUSH1 0x40 ADD SWAP1 JUMP INVALID 0xB0 MULMOD 0xA9 STOP DELEGATECALL 0x26 0xC0 0xC9 OR PUSH27 0xCB33A8A806B35C53AC253D1DDF22D687986FC6B72CE42CF5022BDD DUP16 0xEF 0xE8 PUSH14 0x9412967E028FA9A8CF1E1A3989D SELFBALANCE 0xDF 0xD9 0xFC PUSH5 0xA22AFA86B8 BASEFEE 0xA6 0x2E 0xF7 OR LT NOT 0xD2 NUMBER 0xED DUP16 JUMPDEST DUP15 0x1E PUSH13 0x32CAFED0B7FC99DA26CB2FC2E7 0xD5 CALLER 0xEC 0xCE GASPRICE BALANCE 0xBA 0xF9 SWAP6 PUSH15 0x86200EE7044A75C2BEFBD05091279 DUP12 PUSH28 0xCD25D05831AB9592A26469706673582212208075486D0E6A79830973 MOD 0x1F DUP3 PUSH13 0x6771200EE50DCAA2DA433803C0 0xF9 0xA9 0xCF 0xAB 0xB8 PUSH5 0x736F6C6343 STOP ADDMOD EQ STOP CALLER "},"methodIdentifiers":{"DEFAULT_ADMIN_ROLE()":"a217fddf","addMargin(uint256,uint256)":"d41194b8","cancelOrderDueFinalFeedTimeout(uint256)":"55d6ca77","cancelOrderDueToFeedTimeout(uint256)":"d70daf22","config()":"79502c55","earlyExercise(uint256)":"46f8226c","forceLiquidate(uint256)":"6ca14389","forceLiquidateMarginCall(uint256)":"53b461c8","getRoleAdmin(bytes32)":"248a9ca3","grantRole(bytes32,address)":"2f2ff15d","hasRole(bytes32,address)":"91d14854","initiateArbitration(uint256)":"6af58cff","optionsCore()":"66d63633","pause()":"8456cb59","paused()":"5c975abb","recordDividend(uint256,uint256)":"77e9bad9","renounceRole(bytes32,address)":"36568abe","resolveArbitration(uint256,uint256,address[])":"3280890b","revokeRole(bytes32,address)":"d547741f","setConfig(address)":"20e3dbd4","setOptionsCore(address)":"2ce5ed8c","settle(uint256)":"8df82800","supportsInterface(bytes4)":"01ffc9a7","triggerMarginCall(uint256,bool)":"eefaa833","unpause()":"3f4ba83a","usdt()":"2f48ab7d","vaultManager()":"8a4adf24","withdrawExcessMargin(uint256,uint256)":"d1e745b1"}}}}}