{"contracts/core/Config.sol":{"Config":{"abi":[{"inputs":[{"internalType":"address","name":"_admin","type":"address"}],"stateMutability":"nonpayable","type":"constructor"},{"inputs":[],"name":"AccessControlBadConfirmation","type":"error"},{"inputs":[{"internalType":"address","name":"account","type":"address"},{"internalType":"bytes32","name":"neededRole","type":"bytes32"}],"name":"AccessControlUnauthorizedAccount","type":"error"},{"inputs":[],"name":"EnforcedPause","type":"error"},{"inputs":[],"name":"ExpectedPause","type":"error"},{"anonymous":false,"inputs":[{"indexed":true,"internalType":"string","name":"paramName","type":"string"},{"indexed":false,"internalType":"address","name":"oldAddress","type":"address"},{"indexed":false,"internalType":"address","name":"newAddress","type":"address"},{"indexed":false,"internalType":"uint256","name":"timestamp","type":"uint256"}],"name":"AddressUpdated","type":"event"},{"anonymous":false,"inputs":[{"indexed":true,"internalType":"string","name":"paramName","type":"string"},{"indexed":false,"internalType":"uint256","name":"oldValue","type":"uint256"},{"indexed":false,"internalType":"uint256","name":"newValue","type":"uint256"},{"indexed":false,"internalType":"uint256","name":"timestamp","type":"uint256"}],"name":"ParameterUpdated","type":"event"},{"anonymous":false,"inputs":[{"indexed":false,"internalType":"address","name":"account","type":"address"}],"name":"Paused","type":"event"},{"anonymous":false,"inputs":[{"indexed":true,"internalType":"bytes32","name":"role","type":"bytes32"},{"indexed":true,"internalType":"bytes32","name":"previousAdminRole","type":"bytes32"},{"indexed":true,"internalType":"bytes32","name":"newAdminRole","type":"bytes32"}],"name":"RoleAdminChanged","type":"event"},{"anonymous":false,"inputs":[{"indexed":true,"internalType":"bytes32","name":"role","type":"bytes32"},{"indexed":true,"internalType":"address","name":"account","type":"address"},{"indexed":true,"internalType":"address","name":"sender","type":"address"}],"name":"RoleGranted","type":"event"},{"anonymous":false,"inputs":[{"indexed":true,"internalType":"bytes32","name":"role","type":"bytes32"},{"indexed":true,"internalType":"address","name":"account","type":"address"},{"indexed":true,"internalType":"address","name":"sender","type":"address"}],"name":"RoleRevoked","type":"event"},{"anonymous":false,"inputs":[{"indexed":false,"internalType":"address","name":"account","type":"address"}],"name":"Unpaused","type":"event"},{"inputs":[],"name":"DAO_ROLE","outputs":[{"internalType":"bytes32","name":"","type":"bytes32"}],"stateMutability":"view","type":"function"},{"inputs":[],"name":"DEFAULT_ADMIN_ROLE","outputs":[{"internalType":"bytes32","name":"","type":"bytes32"}],"stateMutability":"view","type":"function"},{"inputs":[],"name":"GUARDIAN_ROLE","outputs":[{"internalType":"bytes32","name":"","type":"bytes32"}],"stateMutability":"view","type":"function"},{"inputs":[],"name":"OPERATOR_ROLE","outputs":[{"internalType":"bytes32","name":"","type":"bytes32"}],"stateMutability":"view","type":"function"},{"inputs":[],"name":"arbitrationFee","outputs":[{"internalType":"uint256","name":"","type":"uint256"}],"stateMutability":"view","type":"function"},{"inputs":[],"name":"closingFeedDeadline","outputs":[{"internalType":"uint256","name":"","type":"uint256"}],"stateMutability":"view","type":"function"},{"inputs":[],"name":"closingFeedPenaltyRate","outputs":[{"internalType":"uint256","name":"","type":"uint256"}],"stateMutability":"view","type":"function"},{"inputs":[],"name":"creationFee","outputs":[{"internalType":"uint256","name":"","type":"uint256"}],"stateMutability":"view","type":"function"},{"inputs":[],"name":"cryptoMarginCallDeadline","outputs":[{"internalType":"uint256","name":"","type":"uint256"}],"stateMutability":"view","type":"function"},{"inputs":[],"name":"daoShare","outputs":[{"internalType":"uint256","name":"","type":"uint256"}],"stateMutability":"view","type":"function"},{"inputs":[],"name":"defaultArbitrationWindow","outputs":[{"internalType":"uint256","name":"","type":"uint256"}],"stateMutability":"view","type":"function"},{"inputs":[],"name":"defaultDailyLimitPercent","outputs":[{"internalType":"uint256","name":"","type":"uint256"}],"stateMutability":"view","type":"function"},{"inputs":[],"name":"defaultMarginCallDeadline","outputs":[{"internalType":"uint256","name":"","type":"uint256"}],"stateMutability":"view","type":"function"},{"inputs":[],"name":"feedFee_10_7","outputs":[{"internalType":"uint256","name":"","type":"uint256"}],"stateMutability":"view","type":"function"},{"inputs":[],"name":"feedFee_5_3","outputs":[{"internalType":"uint256","name":"","type":"uint256"}],"stateMutability":"view","type":"function"},{"inputs":[],"name":"feedFee_7_5","outputs":[{"internalType":"uint256","name":"","type":"uint256"}],"stateMutability":"view","type":"function"},{"inputs":[],"name":"feedFeederShare","outputs":[{"internalType":"uint256","name":"","type":"uint256"}],"stateMutability":"view","type":"function"},{"inputs":[],"name":"feedPlatformShare","outputs":[{"internalType":"uint256","name":"","type":"uint256"}],"stateMutability":"view","type":"function"},{"inputs":[],"name":"feedProtocolAddress","outputs":[{"internalType":"address","name":"","type":"address"}],"stateMutability":"view","type":"function"},{"inputs":[],"name":"foundationShare","outputs":[{"internalType":"uint256","name":"","type":"uint256"}],"stateMutability":"view","type":"function"},{"inputs":[{"internalType":"bool","name":"isSettlement","type":"bool"}],"name":"getArbitrationWindow","outputs":[{"internalType":"uint256","name":"","type":"uint256"}],"stateMutability":"view","type":"function"},{"inputs":[{"internalType":"uint256","name":"originalFee","type":"uint256"}],"name":"getDiscountedFee","outputs":[{"internalType":"uint256","name":"","type":"uint256"}],"stateMutability":"view","type":"function"},{"inputs":[{"internalType":"uint8","name":"tier","type":"uint8"}],"name":"getFeedFee","outputs":[{"internalType":"uint256","name":"","type":"uint256"}],"stateMutability":"view","type":"function"},{"inputs":[{"internalType":"bool","name":"isCrypto","type":"bool"}],"name":"getMarginCallDeadline","outputs":[{"internalType":"uint256","name":"","type":"uint256"}],"stateMutability":"view","type":"function"},{"inputs":[{"internalType":"bytes32","name":"role","type":"bytes32"}],"name":"getRoleAdmin","outputs":[{"internalType":"bytes32","name":"","type":"bytes32"}],"stateMutability":"view","type":"function"},{"inputs":[{"internalType":"bytes32","name":"role","type":"bytes32"},{"internalType":"address","name":"account","type":"address"}],"name":"grantRole","outputs":[],"stateMutability":"nonpayable","type":"function"},{"inputs":[],"name":"growthNodeShare","outputs":[{"internalType":"uint256","name":"","type":"uint256"}],"stateMutability":"view","type":"function"},{"inputs":[{"internalType":"bytes32","name":"role","type":"bytes32"},{"internalType":"address","name":"account","type":"address"}],"name":"hasRole","outputs":[{"internalType":"bool","name":"","type":"bool"}],"stateMutability":"view","type":"function"},{"inputs":[],"name":"initialFeedDeadline","outputs":[{"internalType":"uint256","name":"","type":"uint256"}],"stateMutability":"view","type":"function"},{"inputs":[],"name":"initialFeedPenaltyRate","outputs":[{"internalType":"uint256","name":"","type":"uint256"}],"stateMutability":"view","type":"function"},{"inputs":[],"name":"lpPoolShare","outputs":[{"internalType":"uint256","name":"","type":"uint256"}],"stateMutability":"view","type":"function"},{"inputs":[],"name":"maxArbitrationWindow","outputs":[{"internalType":"uint256","name":"","type":"uint256"}],"stateMutability":"view","type":"function"},{"inputs":[],"name":"maxConsecutiveDays","outputs":[{"internalType":"uint256","name":"","type":"uint256"}],"stateMutability":"view","type":"function"},{"inputs":[],"name":"maxExerciseDelay","outputs":[{"internalType":"uint256","name":"","type":"uint256"}],"stateMutability":"view","type":"function"},{"inputs":[],"name":"maxMarginCallDeadline","outputs":[{"internalType":"uint256","name":"","type":"uint256"}],"stateMutability":"view","type":"function"},{"inputs":[],"name":"maxQuotesPerBuyerOrder","outputs":[{"internalType":"uint256","name":"","type":"uint256"}],"stateMutability":"view","type":"function"},{"inputs":[],"name":"maxQuotesPerSellerOrder","outputs":[{"internalType":"uint256","name":"","type":"uint256"}],"stateMutability":"view","type":"function"},{"inputs":[],"name":"minArbitrationWindow","outputs":[{"internalType":"uint256","name":"","type":"uint256"}],"stateMutability":"view","type":"function"},{"inputs":[],"name":"minExerciseDelay","outputs":[{"internalType":"uint256","name":"","type":"uint256"}],"stateMutability":"view","type":"function"},{"inputs":[],"name":"minFeederStake","outputs":[{"internalType":"uint256","name":"","type":"uint256"}],"stateMutability":"view","type":"function"},{"inputs":[],"name":"minMarginCallDeadline","outputs":[{"internalType":"uint256","name":"","type":"uint256"}],"stateMutability":"view","type":"function"},{"inputs":[],"name":"minMarginRate","outputs":[{"internalType":"uint256","name":"","type":"uint256"}],"stateMutability":"view","type":"function"},{"inputs":[],"name":"nodeRewardShare","outputs":[{"internalType":"uint256","name":"","type":"uint256"}],"stateMutability":"view","type":"function"},{"inputs":[],"name":"nstDiscount","outputs":[{"internalType":"uint256","name":"","type":"uint256"}],"stateMutability":"view","type":"function"},{"inputs":[],"name":"nstDiscountEnabled","outputs":[{"internalType":"bool","name":"","type":"bool"}],"stateMutability":"view","type":"function"},{"inputs":[],"name":"nstDiscountRate","outputs":[{"internalType":"uint256","name":"","type":"uint256"}],"stateMutability":"view","type":"function"},{"inputs":[],"name":"nstTokenAddress","outputs":[{"internalType":"address","name":"","type":"address"}],"stateMutability":"view","type":"function"},{"inputs":[],"name":"optionsCoreAddress","outputs":[{"internalType":"address","name":"","type":"address"}],"stateMutability":"view","type":"function"},{"inputs":[],"name":"pause","outputs":[],"stateMutability":"nonpayable","type":"function"},{"inputs":[],"name":"paused","outputs":[{"internalType":"bool","name":"","type":"bool"}],"stateMutability":"view","type":"function"},{"inputs":[],"name":"pointsManagerAddress","outputs":[{"internalType":"address","name":"","type":"address"}],"stateMutability":"view","type":"function"},{"inputs":[],"name":"pointsMultiplier","outputs":[{"internalType":"uint256","name":"","type":"uint256"}],"stateMutability":"view","type":"function"},{"inputs":[],"name":"quoteValidityPeriod","outputs":[{"internalType":"uint256","name":"","type":"uint256"}],"stateMutability":"view","type":"function"},{"inputs":[{"internalType":"bytes32","name":"role","type":"bytes32"},{"internalType":"address","name":"callerConfirmation","type":"address"}],"name":"renounceRole","outputs":[],"stateMutability":"nonpayable","type":"function"},{"inputs":[{"internalType":"bytes32","name":"role","type":"bytes32"},{"internalType":"address","name":"account","type":"address"}],"name":"revokeRole","outputs":[],"stateMutability":"nonpayable","type":"function"},{"inputs":[],"name":"rfqValidityPeriod","outputs":[{"internalType":"uint256","name":"","type":"uint256"}],"stateMutability":"view","type":"function"},{"inputs":[],"name":"seatManagerAddress","outputs":[{"internalType":"address","name":"","type":"address"}],"stateMutability":"view","type":"function"},{"inputs":[],"name":"seatSellerInitialMargin","outputs":[{"internalType":"uint256","name":"","type":"uint256"}],"stateMutability":"view","type":"function"},{"inputs":[{"internalType":"uint256","name":"_value","type":"uint256"}],"name":"setArbitrationFee","outputs":[],"stateMutability":"nonpayable","type":"function"},{"inputs":[{"internalType":"uint256","name":"_value","type":"uint256"}],"name":"setCreationFee","outputs":[],"stateMutability":"nonpayable","type":"function"},{"inputs":[{"internalType":"address","name":"_address","type":"address"}],"name":"setFeedProtocolAddress","outputs":[],"stateMutability":"nonpayable","type":"function"},{"inputs":[{"internalType":"uint256","name":"_value","type":"uint256"}],"name":"setMinFeederStake","outputs":[],"stateMutability":"nonpayable","type":"function"},{"inputs":[{"internalType":"uint256","name":"_value","type":"uint256"}],"name":"setMinMarginRate","outputs":[],"stateMutability":"nonpayable","type":"function"},{"inputs":[{"internalType":"bool","name":"_enabled","type":"bool"}],"name":"setNstDiscountEnabled","outputs":[],"stateMutability":"nonpayable","type":"function"},{"inputs":[{"internalType":"uint256","name":"_rate","type":"uint256"}],"name":"setNstDiscountRate","outputs":[],"stateMutability":"nonpayable","type":"function"},{"inputs":[{"internalType":"address","name":"_address","type":"address"}],"name":"setOptionsCoreAddress","outputs":[],"stateMutability":"nonpayable","type":"function"},{"inputs":[{"internalType":"address","name":"_address","type":"address"}],"name":"setPointsManagerAddress","outputs":[],"stateMutability":"nonpayable","type":"function"},{"inputs":[{"internalType":"uint256","name":"_value","type":"uint256"}],"name":"setQuoteValidityPeriod","outputs":[],"stateMutability":"nonpayable","type":"function"},{"inputs":[{"internalType":"uint256","name":"_value","type":"uint256"}],"name":"setRfqValidityPeriod","outputs":[],"stateMutability":"nonpayable","type":"function"},{"inputs":[{"internalType":"address","name":"_address","type":"address"}],"name":"setSeatManagerAddress","outputs":[],"stateMutability":"nonpayable","type":"function"},{"inputs":[{"internalType":"uint256","name":"_value","type":"uint256"}],"name":"setTradingFeeRate","outputs":[],"stateMutability":"nonpayable","type":"function"},{"inputs":[{"internalType":"address","name":"_address","type":"address"}],"name":"setUsdtAddress","outputs":[],"stateMutability":"nonpayable","type":"function"},{"inputs":[{"internalType":"address","name":"_address","type":"address"}],"name":"setVaultManagerAddress","outputs":[],"stateMutability":"nonpayable","type":"function"},{"inputs":[],"name":"settlementArbitrationWindow","outputs":[{"internalType":"uint256","name":"","type":"uint256"}],"stateMutability":"view","type":"function"},{"inputs":[{"internalType":"bytes4","name":"interfaceId","type":"bytes4"}],"name":"supportsInterface","outputs":[{"internalType":"bool","name":"","type":"bool"}],"stateMutability":"view","type":"function"},{"inputs":[],"name":"teamFundShare","outputs":[{"internalType":"uint256","name":"","type":"uint256"}],"stateMutability":"view","type":"function"},{"inputs":[],"name":"tokenBuybackShare","outputs":[{"internalType":"uint256","name":"","type":"uint256"}],"stateMutability":"view","type":"function"},{"inputs":[],"name":"tradingFeeRate","outputs":[{"internalType":"uint256","name":"","type":"uint256"}],"stateMutability":"view","type":"function"},{"inputs":[],"name":"unpause","outputs":[],"stateMutability":"nonpayable","type":"function"},{"inputs":[],"name":"usdcAddress","outputs":[{"internalType":"address","name":"","type":"address"}],"stateMutability":"view","type":"function"},{"inputs":[],"name":"usdtAddress","outputs":[{"internalType":"address","name":"","type":"address"}],"stateMutability":"view","type":"function"},{"inputs":[],"name":"vaultManagerAddress","outputs":[{"internalType":"address","name":"","type":"address"}],"stateMutability":"view","type":"function"}],"evm":{"bytecode":{"linkReferences":{},"object":"608034620001a057601f62001f7a38819003918201601f19168301916001600160401b03831184841017620001a557808492602094604052833981010312620001a057516001600160a01b0381168103620001a0576200018f90611c20806002556107086003556102588060045560055561a8c09081600655600755620151809081600855600955670de0b6b3a7640000600a55600a600b556801a055690d9db80000600c556050600d556729a2241af62c0000600e55674563918244f40000600f55676f05b59d3b200000601055600a601155605a6012556103e89081601355600060145568056bc75e2d6310000060155560056016556001601755600a601855601e6019556001601a556005601b55610e1080601c556202a300601d55601e55601f5560646020556101f480602155806022556023558060245580602555610bb86026556109c460275580602855602955611f40602a55600160ff19602b541617602b556200017081620001bb565b506200017c816200023b565b506200018881620002dd565b506200037a565b50604051611b429081620004188239f35b600080fd5b634e487b7160e01b600052604160045260246000fd5b6001600160a01b031660008181527fad3228b676f7d3cd4284a5443f17f1962b36e491b30a40b2405849e597ba5fb5602052604081205490919060ff166200023757818052816020526040822081835260205260408220600160ff19825416179055339160008051602062001f5a8339815191528180a4600190565b5090565b6001600160a01b031660008181527fc39f11a9300b508470eaed31f5842ba08c93181bcbe6a7fe34039aa7f2b8074260205260408120549091907f3b5d4cc60d3ec3516ee8ae083bd60934f6eb2a6c54b1229985c41bfb092b26039060ff16620002d857808352826020526040832082845260205260408320600160ff1982541617905560008051602062001f5a833981519152339380a4600190565b505090565b6001600160a01b031660008181527fee57cd81e84075558e8fcc182a1f4393f91fc97f963a136e66b7f949a62f319f60205260408120549091907f97667070c54ef182b0f5858b034beac1b6f3089aa2d3188bb1e8929f4fa9b9299060ff16620002d857808352826020526040832082845260205260408320600160ff1982541617905560008051602062001f5a833981519152339380a4600190565b6001600160a01b031660008181527f8a40f0b47fdc2a0ce293b772acfc7508c8315a4d462786c1adc3a56f92ca2d0560205260408120549091907f55435dd261a4b9b3364963f7738a7a662ad9c84396d64be3365284bb7f0a50419060ff16620002d857808352826020526040832082845260205260408320600160ff1982541617905560008051602062001f5a833981519152339380a460019056fe608060408181526004918236101561001657600080fd5b600092833560e01c91826301ffc9a7146117a45750816302d454571461177b5781630cb46b75146116ac5781630d42bada1461168d5781630d8bb8ac146116645781631091f67c146115e2578163134f664614611561578163141b950b1461154257816316b263c5146115235781631a5632b9146115045781631b30900b146114e55781631bdd9bc6146114ac5781631cfa7ba81461148d578163222b9c431461146e57816323068ac6146113a8578163248a9ca31461137e57816324ea54f414611355578163294772e5146113365781632bec66e5146113175781632f2ff15d146112ed5781632f832f34146112ce57816336568abe1461128857816339c02ea4146111c15781633d8b8cb2146111985781633f4ba83a1461110957816341e5ce8e146110e057816342df038c146110b757816343b827ed1461103257816343b8cd8e1461101357816348e23ea814610ff45781634d2b3e1214610fd55781634e57e10214610f0f5781634f6bfad714610ef0578163520d682114610ec7578163570c2a1e14610e0257816359c9c8c914610de35781635c975abb14610dbf5781635d8eb68714610da05781635ea7b4fc14610d1e5781635f9aeb0614610cff57816362f5ad6314610ce05781636e56a57c14610c8357816370504cf414610ba057816378dd8b0a14610b815781637d790ae114610b5d5781638456cb5914610a8d57816386cdb33d14610a6f57816388d19f1b14610a505781638f973f8514610a3157816390ee6d0a1461096c57816391d14854146109265781639ab4a445146108f9578163a217fddf146108de578163a414e044146108bf578163a6bfbe23146108a0578163a98a92fa14610881578163ab1df29c14610847578163b028fb7614610828578163b661f73314610808578163b7d8622514610789578163c766d9861461076a578163c7d7c5fd1461074c578163cb10ed011461072d578163cb3c7b2d1461070e578163cd96255e146106ef578163d547741f146106b0578163d9fe395e14610691578163dce0b4e414610672578163dfb0253614610653578163e01df1a814610634578163e5695991146105ff578163e6481bd81461057d578163e855dd39146104ec57508063e883082f146104ce578063e9c26518146104a6578063eda9999414610488578063f1c511c414610460578063f1d814b914610442578063f2588aa914610424578063f5a0c48014610406578063f5b541a6146103cc5763f72084b2146103ab57600080fd5b346103c857816003193601126103c8576020906027549051908152f35b5080fd5b50346103c857816003193601126103c857602090517f97667070c54ef182b0f5858b034beac1b6f3089aa2d3188bb1e8929f4fa9b9298152f35b50346103c857816003193601126103c8576020906025549051908152f35b50346103c857816003193601126103c8576020906029549051908152f35b50346103c857816003193601126103c857602090601b549051908152f35b50346103c857816003193601126103c85760315490516001600160a01b039091168152602090f35b50346103c857816003193601126103c8576020906019549051908152f35b50346103c857816003193601126103c85760209051600080516020611a8d8339815191528152f35b50346103c857816003193601126103c857602090600e549051908152f35b90503461057957602036600319011261057957600080516020611aad8339815191529035600080516020611a8d83398151915284528360205282842033855260205261053d60ff848620541661195f565b600354908060035561057360138551721c5d5bdd1955985b1a591a5d1e54195c9a5bd9606a1b81522094519283924291846119a7565b0390a280f35b8280fd5b90503461057957602036600319011261057957600080516020611aad8339815191529035600080516020611a8d8339815191528452836020528284203385526020526105ce60ff848620541661195f565b6015549080601555610573600e85516d6d696e4665656465725374616b6560901b81522094519283924291846119a7565b90503461057957602036600319011261057957359160ff83168303610631575061062a6020926119df565b9051908152f35b80fd5b5050346103c857816003193601126103c857602090600b549051908152f35b5050346103c857816003193601126103c8576020906005549051908152f35b5050346103c857816003193601126103c857602090600a549051908152f35b5050346103c857816003193601126103c857602090601e549051908152f35b919050346105795780600319360112610579576106eb91356106e660016106d5611812565b938387528660205286200154611828565b6118ea565b5080f35b5050346103c857816003193601126103c8576020906012549051908152f35b5050346103c857816003193601126103c8576020906014549051908152f35b5050346103c857816003193601126103c857602090602a549051908152f35b90503461057957826003193601126105795760209250549051908152f35b5050346103c857816003193601126103c8576020906015549051908152f35b90503461057957602036600319011261057957600080516020611aad8339815191529035600080516020611a8d8339815191528452836020528284203385526020526107da60ff848620541661195f565b600a549080600a55610573600b85516a6372656174696f6e46656560a81b81522094519283924291846119a7565b828434610631576020366003190112610631575061062a60209235611a4c565b5050346103c857816003193601126103c8576020906006549051908152f35b9050346105795760203660031901126105795735801515810361057957602092501561087857600854905b51908152f35b60095490610872565b5050346103c857816003193601126103c8576020906009549051908152f35b5050346103c857816003193601126103c857602090601a549051908152f35b5050346103c857816003193601126103c8576020906018549051908152f35b5050346103c857816003193601126103c85751908152602090f35b5050346103c857816003193601126103c857602b54905160089190911c6001600160a01b03168152602090f35b9050346105795781600319360112610579578160209360ff92610947611812565b903582528186528282206001600160a01b039091168252855220549151911615158152f35b5050346103c85760203660031901126103c857600080516020611aed8339815191526109966117f7565b600080516020611a8d8339815191528452836020528284203385526020526109c360ff848620541661195f565b602f80546001600160a01b038381166001600160a01b03198316179092558451716f7074696f6e73436f72654164647265737360701b905293517f4a4e69de8ded7dceaef818da27e4654e0073cb97b5e6455c1813e441d801a40194909283926105739242929116846119bd565b5050346103c857816003193601126103c8576020906026549051908152f35b5050346103c857816003193601126103c8576020906028549051908152f35b5050346103c857816003193601126103c85760209081549051908152f35b905034610579578260031936011261057957600080516020611acd83398151915283528260205281832033845260205260ff828420541615610b1b576001549060ff8216610b0d57507f62e78cea01bee320cd4e420270b5ea74000d11b0c9f74754ebdbfc544b05a25891600160209260ff19161760015551338152a180f35b825163d93c066560e01b8152fd5b6020606492519162461bcd60e51b8352820152601e60248201527f436f6e6669673a2063616c6c6572206973206e6f7420477561726469616e00006044820152fd5b5050346103c857816003193601126103c85760209060ff602b541690519015158152f35b5050346103c857816003193601126103c8576020906024549051908152f35b90503461057957602036600319011261057957803590600080516020611a8d833981519152845283602052828420338552602052610be360ff848620541661195f565b81151580610c77575b15610c345750600080516020611aad83398151915290602a549080602a55610573600f85516e6e7374446973636f756e745261746560881b81522094519283924291846119a7565b606490602084519162461bcd60e51b8352820152601d60248201527f436f6e6669673a20696e76616c696420646973636f756e7420726174650000006044820152fd5b50612710821115610bec565b9050346105795760203660031901126105795735908115158092036105795760ff610ccf91600080516020611a8d8339815191528552846020528085203386526020528420541661195f565b60ff8019602b5416911617602b5580f35b5050346103c857816003193601126103c8576020906023549051908152f35b5050346103c857816003193601126103c857602090600f549051908152f35b90503461057957602036600319011261057957600080516020611aad8339815191529035600080516020611a8d833981519152845283602052828420338552602052610d6f60ff848620541661195f565b600c549080600c55610573600e85516d6172626974726174696f6e46656560901b81522094519283924291846119a7565b5050346103c857816003193601126103c8576020906013549051908152f35b5050346103c857816003193601126103c85760209060ff6001541690519015158152f35b5050346103c857816003193601126103c8576020906007549051908152f35b5050346103c85760203660031901126103c857600080516020611aed833981519152610e2c6117f7565b600080516020611a8d833981519152845283602052828420338552602052610e5960ff848620541661195f565b603180546001600160a01b038381166001600160a01b0319831617909255845171736561744d616e616765724164647265737360701b905293517f5e28eb369d7fdbb5dfbb05d4358500df3bf5f778c9f2c859b1d7277f5ae4ce3f94909283926105739242929116846119bd565b5050346103c857816003193601126103c85760305490516001600160a01b039091168152602090f35b5050346103c857816003193601126103c8576020906002549051908152f35b5050346103c85760203660031901126103c857600080516020611aed833981519152610f396117f7565b600080516020611a8d833981519152845283602052828420338552602052610f6660ff848620541661195f565b603080546001600160a01b038381166001600160a01b03198316179092558451726665656450726f746f636f6c4164647265737360681b905293517f2f73b590faaddb044f9851ed70b38c69e7cc0d4659bf1fe1082b600d997c18de94909283926105739242929116846119bd565b5050346103c857816003193601126103c857602090601f549051908152f35b5050346103c857816003193601126103c8576020906008549051908152f35b5050346103c857816003193601126103c857602090601c549051908152f35b90503461057957602036600319011261057957600080516020611aad8339815191529035600080516020611a8d83398151915284528360205282842033855260205261108360ff848620541661195f565b600254908060025561057360118551701c999c55985b1a591a5d1e54195c9a5bd9607a1b81522094519283924291846119a7565b5050346103c857816003193601126103c857602d5490516001600160a01b039091168152602090f35b5050346103c857816003193601126103c857602f5490516001600160a01b039091168152602090f35b905034610579578260031936011261057957600080516020611a8d83398151915283528260205281832033845260205261114860ff838520541661195f565b6001549060ff82161561118a575060ff1916600155513381527f5db9ee0a495bf2e6ff9c91a7834c1ba4fdd244a5e8aa4e537bd38aeae4b073aa90602090a180f35b8251638dfc202b60e01b8152fd5b5050346103c857816003193601126103c857602e5490516001600160a01b039091168152602090f35b5050346103c85760203660031901126103c857600080516020611aed8339815191526111eb6117f7565b600080516020611a8d83398151915284528360205282842033855260205261121860ff848620541661195f565b603280546001600160a01b038381166001600160a01b0319831617909255845173706f696e74734d616e616765724164647265737360601b905293517f2e9d3aa19d9dbd777c6be6342075ac61ef674d8b86d37b75ea0cb8d1a845c51b94909283926105739242929116846119bd565b8383346103c857806003193601126103c8576112a2611812565b90336001600160a01b038316036112bf57506106eb9192356118ea565b5163334bd91960e11b81528390fd5b5050346103c857816003193601126103c8576020906016549051908152f35b919050346105795780600319360112610579576106eb913561131260016106d5611812565b61186c565b5050346103c857816003193601126103c8576020906021549051908152f35b5050346103c857816003193601126103c857602090601d549051908152f35b5050346103c857816003193601126103c85760209051600080516020611acd8339815191528152f35b90503461057957602036600319011261057957816020936001923581528085522001549051908152f35b5050346103c85760203660031901126103c857600080516020611aed8339815191526113d26117f7565b600080516020611a8d8339815191528452836020528284203385526020526113ff60ff848620541661195f565b602e80546001600160a01b038381166001600160a01b03198316179092558451727661756c744d616e616765724164647265737360681b905293517f2fe00a4b9b1823087c1aaa9e681d82d7f691aa0160a8bec45c8e55052e14353494909283926105739242929116846119bd565b5050346103c857816003193601126103c8576020906017549051908152f35b5050346103c857816003193601126103c857602090600c549051908152f35b905034610579576020366003190112610579573580151581036105795760209250156114dc576007549051908152f35b60065490610872565b5050346103c857816003193601126103c8576020906010549051908152f35b5050346103c857816003193601126103c8576020906011549051908152f35b5050346103c857816003193601126103c857602090600d549051908152f35b5050346103c857816003193601126103c8576020906022549051908152f35b90503461057957602036600319011261057957600080516020611aad8339815191529035600080516020611a8d8339815191528452836020528284203385526020526115b260ff848620541661195f565b6013549080601355610573600d85516c6d696e4d617267696e5261746560981b81522094519283924291846119a7565b90503461057957602036600319011261057957600080516020611aad8339815191529035600080516020611a8d83398151915284528360205282842033855260205261163360ff848620541661195f565b600b549080600b55610573600e85516d74726164696e674665655261746560901b81522094519283924291846119a7565b5050346103c857816003193601126103c85760325490516001600160a01b039091168152602090f35b5050346103c857816003193601126103c8576020906003549051908152f35b5050346103c85760203660031901126103c857600080516020611aed8339815191526116d66117f7565b600080516020611a8d83398151915284528360205282842033855260205261170360ff848620541661195f565b602b8054610100600160a81b03198116600884811b610100600160a81b03169190911790925584516a757364744164647265737360a81b905293517fa63d2db62c0400ac404bb484526070e593b5b38753f8211077a0b30be6604b399490928392610573924292911c6001600160a01b0316846119bd565b5050346103c857816003193601126103c857602c5490516001600160a01b039091168152602090f35b849134610579576020366003190112610579573563ffffffff60e01b81168091036105795760209250637965db0b60e01b81149081156117e6575b5015158152f35b6301ffc9a760e01b149050836117df565b600435906001600160a01b038216820361180d57565b600080fd5b602435906001600160a01b038216820361180d57565b80600052600060205260406000203360005260205260ff604060002054161561184e5750565b6044906040519063e2517d3f60e01b82523360048301526024820152fd5b9060009180835282602052604083209160018060a01b03169182845260205260ff604084205416156000146118e557808352826020526040832082845260205260408320600160ff198254161790557f2f8788117e7eff1d82e926ec794901d17c78024a50270940304540a733656f0d339380a4600190565b505090565b9060009180835282602052604083209160018060a01b03169182845260205260ff6040842054166000146118e55780835282602052604083208284526020526040832060ff1981541690557ff6391f5c32d9c69d2a47ea670b442974b53935d1edc7fd64eb21e047a839171b339380a4600190565b1561196657565b60405162461bcd60e51b8152602060048201526019602482015278436f6e6669673a2063616c6c6572206973206e6f742044414f60381b6044820152606490fd5b6040919493926060820195825260208201520152565b6001600160a01b03918216815291166020820152604081019190915260600190565b60ff168015611a455760018114611a3e57600214611a385760405162461bcd60e51b815260206004820152601960248201527821b7b73334b39d1034b73b30b634b2103332b2b2103a34b2b960391b6044820152606490fd5b60105490565b50600f5490565b50600e5490565b60ff602b541615611a8957602a5490818102918183041490151715611a7357612710900490565b634e487b7160e01b600052601160045260246000fd5b9056fe3b5d4cc60d3ec3516ee8ae083bd60934f6eb2a6c54b1229985c41bfb092b260383ba59f61577249be5e1d5d48f41b4be728e3ddb0c1b04c988d7ce5205ebb8ec55435dd261a4b9b3364963f7738a7a662ad9c84396d64be3365284bb7f0a50410b61bf3cf34b0f6c79c91c69ed943edc5b0ddf8bbeb6b3c98ceb3ece18a6e189a2646970667358221220723c57d0d69cc780781dc9fa831d6282f7bc459d1df22faae1b4804123a636fa64736f6c634300081400332f8788117e7eff1d82e926ec794901d17c78024a50270940304540a733656f0d","opcodes":"PUSH1 0x80 CALLVALUE PUSH3 0x1A0 JUMPI PUSH1 0x1F PUSH3 0x1F7A CODESIZE DUP2 SWAP1 SUB SWAP2 DUP3 ADD PUSH1 0x1F NOT AND DUP4 ADD SWAP2 PUSH1 0x1 PUSH1 0x1 PUSH1 0x40 SHL SUB DUP4 GT DUP5 DUP5 LT OR PUSH3 0x1A5 JUMPI DUP1 DUP5 SWAP3 PUSH1 0x20 SWAP5 PUSH1 0x40 MSTORE DUP4 CODECOPY DUP2 ADD SUB SLT PUSH3 0x1A0 JUMPI MLOAD PUSH1 0x1 PUSH1 0x1 PUSH1 0xA0 SHL SUB DUP2 AND DUP2 SUB PUSH3 0x1A0 JUMPI PUSH3 0x18F SWAP1 PUSH2 0x1C20 DUP1 PUSH1 0x2 SSTORE PUSH2 0x708 PUSH1 0x3 SSTORE PUSH2 0x258 DUP1 PUSH1 0x4 SSTORE PUSH1 0x5 SSTORE PUSH2 0xA8C0 SWAP1 DUP2 PUSH1 0x6 SSTORE PUSH1 0x7 SSTORE PUSH3 0x15180 SWAP1 DUP2 PUSH1 0x8 SSTORE PUSH1 0x9 SSTORE PUSH8 0xDE0B6B3A7640000 PUSH1 0xA SSTORE PUSH1 0xA PUSH1 0xB SSTORE PUSH9 0x1A055690D9DB80000 PUSH1 0xC SSTORE PUSH1 0x50 PUSH1 0xD SSTORE PUSH8 0x29A2241AF62C0000 PUSH1 0xE SSTORE PUSH8 0x4563918244F40000 PUSH1 0xF SSTORE PUSH8 0x6F05B59D3B200000 PUSH1 0x10 SSTORE PUSH1 0xA PUSH1 0x11 SSTORE PUSH1 0x5A PUSH1 0x12 SSTORE PUSH2 0x3E8 SWAP1 DUP2 PUSH1 0x13 SSTORE PUSH1 0x0 PUSH1 0x14 SSTORE PUSH9 0x56BC75E2D63100000 PUSH1 0x15 SSTORE PUSH1 0x5 PUSH1 0x16 SSTORE PUSH1 0x1 PUSH1 0x17 SSTORE PUSH1 0xA PUSH1 0x18 SSTORE PUSH1 0x1E PUSH1 0x19 SSTORE PUSH1 0x1 PUSH1 0x1A SSTORE PUSH1 0x5 PUSH1 0x1B SSTORE PUSH2 0xE10 DUP1 PUSH1 0x1C SSTORE PUSH3 0x2A300 PUSH1 0x1D SSTORE PUSH1 0x1E SSTORE PUSH1 0x1F SSTORE PUSH1 0x64 PUSH1 0x20 SSTORE PUSH2 0x1F4 DUP1 PUSH1 0x21 SSTORE DUP1 PUSH1 0x22 SSTORE PUSH1 0x23 SSTORE DUP1 PUSH1 0x24 SSTORE DUP1 PUSH1 0x25 SSTORE PUSH2 0xBB8 PUSH1 0x26 SSTORE PUSH2 0x9C4 PUSH1 0x27 SSTORE DUP1 PUSH1 0x28 SSTORE PUSH1 0x29 SSTORE PUSH2 0x1F40 PUSH1 0x2A SSTORE PUSH1 0x1 PUSH1 0xFF NOT PUSH1 0x2B SLOAD AND OR PUSH1 0x2B SSTORE PUSH3 0x170 DUP2 PUSH3 0x1BB JUMP JUMPDEST POP PUSH3 0x17C DUP2 PUSH3 0x23B JUMP JUMPDEST POP PUSH3 0x188 DUP2 PUSH3 0x2DD JUMP JUMPDEST POP PUSH3 0x37A JUMP JUMPDEST POP PUSH1 0x40 MLOAD PUSH2 0x1B42 SWAP1 DUP2 PUSH3 0x418 DUP3 CODECOPY RETURN JUMPDEST PUSH1 0x0 DUP1 REVERT JUMPDEST PUSH4 0x4E487B71 PUSH1 0xE0 SHL PUSH1 0x0 MSTORE PUSH1 0x41 PUSH1 0x4 MSTORE PUSH1 0x24 PUSH1 0x0 REVERT JUMPDEST PUSH1 0x1 PUSH1 0x1 PUSH1 0xA0 SHL SUB AND PUSH1 0x0 DUP2 DUP2 MSTORE PUSH32 0xAD3228B676F7D3CD4284A5443F17F1962B36E491B30A40B2405849E597BA5FB5 PUSH1 0x20 MSTORE PUSH1 0x40 DUP2 KECCAK256 SLOAD SWAP1 SWAP2 SWAP1 PUSH1 0xFF AND PUSH3 0x237 JUMPI DUP2 DUP1 MSTORE DUP2 PUSH1 0x20 MSTORE PUSH1 0x40 DUP3 KECCAK256 DUP2 DUP4 MSTORE PUSH1 0x20 MSTORE PUSH1 0x40 DUP3 KECCAK256 PUSH1 0x1 PUSH1 0xFF NOT DUP3 SLOAD AND OR SWAP1 SSTORE CALLER SWAP2 PUSH1 0x0 DUP1 MLOAD PUSH1 0x20 PUSH3 0x1F5A DUP4 CODECOPY DUP2 MLOAD SWAP2 MSTORE DUP2 DUP1 LOG4 PUSH1 0x1 SWAP1 JUMP JUMPDEST POP SWAP1 JUMP JUMPDEST PUSH1 0x1 PUSH1 0x1 PUSH1 0xA0 SHL SUB AND PUSH1 0x0 DUP2 DUP2 MSTORE PUSH32 0xC39F11A9300B508470EAED31F5842BA08C93181BCBE6A7FE34039AA7F2B80742 PUSH1 0x20 MSTORE PUSH1 0x40 DUP2 KECCAK256 SLOAD SWAP1 SWAP2 SWAP1 PUSH32 0x3B5D4CC60D3EC3516EE8AE083BD60934F6EB2A6C54B1229985C41BFB092B2603 SWAP1 PUSH1 0xFF AND PUSH3 0x2D8 JUMPI DUP1 DUP4 MSTORE DUP3 PUSH1 0x20 MSTORE PUSH1 0x40 DUP4 KECCAK256 DUP3 DUP5 MSTORE PUSH1 0x20 MSTORE PUSH1 0x40 DUP4 KECCAK256 PUSH1 0x1 PUSH1 0xFF NOT DUP3 SLOAD AND OR SWAP1 SSTORE PUSH1 0x0 DUP1 MLOAD PUSH1 0x20 PUSH3 0x1F5A DUP4 CODECOPY DUP2 MLOAD SWAP2 MSTORE CALLER SWAP4 DUP1 LOG4 PUSH1 0x1 SWAP1 JUMP JUMPDEST POP POP SWAP1 JUMP JUMPDEST PUSH1 0x1 PUSH1 0x1 PUSH1 0xA0 SHL SUB AND PUSH1 0x0 DUP2 DUP2 MSTORE PUSH32 0xEE57CD81E84075558E8FCC182A1F4393F91FC97F963A136E66B7F949A62F319F PUSH1 0x20 MSTORE PUSH1 0x40 DUP2 KECCAK256 SLOAD SWAP1 SWAP2 SWAP1 PUSH32 0x97667070C54EF182B0F5858B034BEAC1B6F3089AA2D3188BB1E8929F4FA9B929 SWAP1 PUSH1 0xFF AND PUSH3 0x2D8 JUMPI DUP1 DUP4 MSTORE DUP3 PUSH1 0x20 MSTORE PUSH1 0x40 DUP4 KECCAK256 DUP3 DUP5 MSTORE PUSH1 0x20 MSTORE PUSH1 0x40 DUP4 KECCAK256 PUSH1 0x1 PUSH1 0xFF NOT DUP3 SLOAD AND OR SWAP1 SSTORE PUSH1 0x0 DUP1 MLOAD PUSH1 0x20 PUSH3 0x1F5A DUP4 CODECOPY DUP2 MLOAD SWAP2 MSTORE CALLER SWAP4 DUP1 LOG4 PUSH1 0x1 SWAP1 JUMP JUMPDEST PUSH1 0x1 PUSH1 0x1 PUSH1 0xA0 SHL SUB AND PUSH1 0x0 DUP2 DUP2 MSTORE PUSH32 0x8A40F0B47FDC2A0CE293B772ACFC7508C8315A4D462786C1ADC3A56F92CA2D05 PUSH1 0x20 MSTORE PUSH1 0x40 DUP2 KECCAK256 SLOAD SWAP1 SWAP2 SWAP1 PUSH32 0x55435DD261A4B9B3364963F7738A7A662AD9C84396D64BE3365284BB7F0A5041 SWAP1 PUSH1 0xFF AND PUSH3 0x2D8 JUMPI DUP1 DUP4 MSTORE DUP3 PUSH1 0x20 MSTORE PUSH1 0x40 DUP4 KECCAK256 DUP3 DUP5 MSTORE PUSH1 0x20 MSTORE PUSH1 0x40 DUP4 KECCAK256 PUSH1 0x1 PUSH1 0xFF NOT DUP3 SLOAD AND OR SWAP1 SSTORE PUSH1 0x0 DUP1 MLOAD PUSH1 0x20 PUSH3 0x1F5A DUP4 CODECOPY DUP2 MLOAD SWAP2 MSTORE CALLER SWAP4 DUP1 LOG4 PUSH1 0x1 SWAP1 JUMP INVALID PUSH1 0x80 PUSH1 0x40 DUP2 DUP2 MSTORE PUSH1 0x4 SWAP2 DUP3 CALLDATASIZE LT ISZERO PUSH2 0x16 JUMPI PUSH1 0x0 DUP1 REVERT JUMPDEST PUSH1 0x0 SWAP3 DUP4 CALLDATALOAD PUSH1 0xE0 SHR SWAP2 DUP3 PUSH4 0x1FFC9A7 EQ PUSH2 0x17A4 JUMPI POP DUP2 PUSH4 0x2D45457 EQ PUSH2 0x177B JUMPI DUP2 PUSH4 0xCB46B75 EQ PUSH2 0x16AC JUMPI DUP2 PUSH4 0xD42BADA EQ PUSH2 0x168D JUMPI DUP2 PUSH4 0xD8BB8AC EQ PUSH2 0x1664 JUMPI DUP2 PUSH4 0x1091F67C EQ PUSH2 0x15E2 JUMPI DUP2 PUSH4 0x134F6646 EQ PUSH2 0x1561 JUMPI DUP2 PUSH4 0x141B950B EQ PUSH2 0x1542 JUMPI DUP2 PUSH4 0x16B263C5 EQ PUSH2 0x1523 JUMPI DUP2 PUSH4 0x1A5632B9 EQ PUSH2 0x1504 JUMPI DUP2 PUSH4 0x1B30900B EQ PUSH2 0x14E5 JUMPI DUP2 PUSH4 0x1BDD9BC6 EQ PUSH2 0x14AC JUMPI DUP2 PUSH4 0x1CFA7BA8 EQ PUSH2 0x148D JUMPI DUP2 PUSH4 0x222B9C43 EQ PUSH2 0x146E JUMPI DUP2 PUSH4 0x23068AC6 EQ PUSH2 0x13A8 JUMPI DUP2 PUSH4 0x248A9CA3 EQ PUSH2 0x137E JUMPI DUP2 PUSH4 0x24EA54F4 EQ PUSH2 0x1355 JUMPI DUP2 PUSH4 0x294772E5 EQ PUSH2 0x1336 JUMPI DUP2 PUSH4 0x2BEC66E5 EQ PUSH2 0x1317 JUMPI DUP2 PUSH4 0x2F2FF15D EQ PUSH2 0x12ED JUMPI DUP2 PUSH4 0x2F832F34 EQ PUSH2 0x12CE JUMPI DUP2 PUSH4 0x36568ABE EQ PUSH2 0x1288 JUMPI DUP2 PUSH4 0x39C02EA4 EQ PUSH2 0x11C1 JUMPI DUP2 PUSH4 0x3D8B8CB2 EQ PUSH2 0x1198 JUMPI DUP2 PUSH4 0x3F4BA83A EQ PUSH2 0x1109 JUMPI DUP2 PUSH4 0x41E5CE8E EQ PUSH2 0x10E0 JUMPI DUP2 PUSH4 0x42DF038C EQ PUSH2 0x10B7 JUMPI DUP2 PUSH4 0x43B827ED EQ PUSH2 0x1032 JUMPI DUP2 PUSH4 0x43B8CD8E EQ PUSH2 0x1013 JUMPI DUP2 PUSH4 0x48E23EA8 EQ PUSH2 0xFF4 JUMPI DUP2 PUSH4 0x4D2B3E12 EQ PUSH2 0xFD5 JUMPI DUP2 PUSH4 0x4E57E102 EQ PUSH2 0xF0F JUMPI DUP2 PUSH4 0x4F6BFAD7 EQ PUSH2 0xEF0 JUMPI DUP2 PUSH4 0x520D6821 EQ PUSH2 0xEC7 JUMPI DUP2 PUSH4 0x570C2A1E EQ PUSH2 0xE02 JUMPI DUP2 PUSH4 0x59C9C8C9 EQ PUSH2 0xDE3 JUMPI DUP2 PUSH4 0x5C975ABB EQ PUSH2 0xDBF JUMPI DUP2 PUSH4 0x5D8EB687 EQ PUSH2 0xDA0 JUMPI DUP2 PUSH4 0x5EA7B4FC EQ PUSH2 0xD1E JUMPI DUP2 PUSH4 0x5F9AEB06 EQ PUSH2 0xCFF JUMPI DUP2 PUSH4 0x62F5AD63 EQ PUSH2 0xCE0 JUMPI DUP2 PUSH4 0x6E56A57C EQ PUSH2 0xC83 JUMPI DUP2 PUSH4 0x70504CF4 EQ PUSH2 0xBA0 JUMPI DUP2 PUSH4 0x78DD8B0A EQ PUSH2 0xB81 JUMPI DUP2 PUSH4 0x7D790AE1 EQ PUSH2 0xB5D JUMPI DUP2 PUSH4 0x8456CB59 EQ PUSH2 0xA8D JUMPI DUP2 PUSH4 0x86CDB33D EQ PUSH2 0xA6F JUMPI DUP2 PUSH4 0x88D19F1B EQ PUSH2 0xA50 JUMPI DUP2 PUSH4 0x8F973F85 EQ PUSH2 0xA31 JUMPI DUP2 PUSH4 0x90EE6D0A EQ PUSH2 0x96C JUMPI DUP2 PUSH4 0x91D14854 EQ PUSH2 0x926 JUMPI DUP2 PUSH4 0x9AB4A445 EQ PUSH2 0x8F9 JUMPI DUP2 PUSH4 0xA217FDDF EQ PUSH2 0x8DE JUMPI DUP2 PUSH4 0xA414E044 EQ PUSH2 0x8BF JUMPI DUP2 PUSH4 0xA6BFBE23 EQ PUSH2 0x8A0 JUMPI DUP2 PUSH4 0xA98A92FA EQ PUSH2 0x881 JUMPI DUP2 PUSH4 0xAB1DF29C EQ PUSH2 0x847 JUMPI DUP2 PUSH4 0xB028FB76 EQ PUSH2 0x828 JUMPI DUP2 PUSH4 0xB661F733 EQ PUSH2 0x808 JUMPI DUP2 PUSH4 0xB7D86225 EQ PUSH2 0x789 JUMPI DUP2 PUSH4 0xC766D986 EQ PUSH2 0x76A JUMPI DUP2 PUSH4 0xC7D7C5FD EQ PUSH2 0x74C JUMPI DUP2 PUSH4 0xCB10ED01 EQ PUSH2 0x72D JUMPI DUP2 PUSH4 0xCB3C7B2D EQ PUSH2 0x70E JUMPI DUP2 PUSH4 0xCD96255E EQ PUSH2 0x6EF JUMPI DUP2 PUSH4 0xD547741F EQ PUSH2 0x6B0 JUMPI DUP2 PUSH4 0xD9FE395E EQ PUSH2 0x691 JUMPI DUP2 PUSH4 0xDCE0B4E4 EQ PUSH2 0x672 JUMPI DUP2 PUSH4 0xDFB02536 EQ PUSH2 0x653 JUMPI DUP2 PUSH4 0xE01DF1A8 EQ PUSH2 0x634 JUMPI DUP2 PUSH4 0xE5695991 EQ PUSH2 0x5FF JUMPI DUP2 PUSH4 0xE6481BD8 EQ PUSH2 0x57D JUMPI DUP2 PUSH4 0xE855DD39 EQ PUSH2 0x4EC JUMPI POP DUP1 PUSH4 0xE883082F EQ PUSH2 0x4CE JUMPI DUP1 PUSH4 0xE9C26518 EQ PUSH2 0x4A6 JUMPI DUP1 PUSH4 0xEDA99994 EQ PUSH2 0x488 JUMPI DUP1 PUSH4 0xF1C511C4 EQ PUSH2 0x460 JUMPI DUP1 PUSH4 0xF1D814B9 EQ PUSH2 0x442 JUMPI DUP1 PUSH4 0xF2588AA9 EQ PUSH2 0x424 JUMPI DUP1 PUSH4 0xF5A0C480 EQ PUSH2 0x406 JUMPI DUP1 PUSH4 0xF5B541A6 EQ PUSH2 0x3CC JUMPI PUSH4 0xF72084B2 EQ PUSH2 0x3AB JUMPI PUSH1 0x0 DUP1 REVERT JUMPDEST CALLVALUE PUSH2 0x3C8 JUMPI DUP2 PUSH1 0x3 NOT CALLDATASIZE ADD SLT PUSH2 0x3C8 JUMPI PUSH1 0x20 SWAP1 PUSH1 0x27 SLOAD SWAP1 MLOAD SWAP1 DUP2 MSTORE RETURN JUMPDEST POP DUP1 REVERT JUMPDEST POP CALLVALUE PUSH2 0x3C8 JUMPI DUP2 PUSH1 0x3 NOT CALLDATASIZE ADD SLT PUSH2 0x3C8 JUMPI PUSH1 0x20 SWAP1 MLOAD PUSH32 0x97667070C54EF182B0F5858B034BEAC1B6F3089AA2D3188BB1E8929F4FA9B929 DUP2 MSTORE RETURN JUMPDEST POP CALLVALUE PUSH2 0x3C8 JUMPI DUP2 PUSH1 0x3 NOT CALLDATASIZE ADD SLT PUSH2 0x3C8 JUMPI PUSH1 0x20 SWAP1 PUSH1 0x25 SLOAD SWAP1 MLOAD SWAP1 DUP2 MSTORE RETURN JUMPDEST POP CALLVALUE PUSH2 0x3C8 JUMPI DUP2 PUSH1 0x3 NOT CALLDATASIZE ADD SLT PUSH2 0x3C8 JUMPI PUSH1 0x20 SWAP1 PUSH1 0x29 SLOAD SWAP1 MLOAD SWAP1 DUP2 MSTORE RETURN JUMPDEST POP CALLVALUE PUSH2 0x3C8 JUMPI DUP2 PUSH1 0x3 NOT CALLDATASIZE ADD SLT PUSH2 0x3C8 JUMPI PUSH1 0x20 SWAP1 PUSH1 0x1B SLOAD SWAP1 MLOAD SWAP1 DUP2 MSTORE RETURN JUMPDEST POP CALLVALUE PUSH2 0x3C8 JUMPI DUP2 PUSH1 0x3 NOT CALLDATASIZE ADD SLT PUSH2 0x3C8 JUMPI PUSH1 0x31 SLOAD SWAP1 MLOAD PUSH1 0x1 PUSH1 0x1 PUSH1 0xA0 SHL SUB SWAP1 SWAP2 AND DUP2 MSTORE PUSH1 0x20 SWAP1 RETURN JUMPDEST POP CALLVALUE PUSH2 0x3C8 JUMPI DUP2 PUSH1 0x3 NOT CALLDATASIZE ADD SLT PUSH2 0x3C8 JUMPI PUSH1 0x20 SWAP1 PUSH1 0x19 SLOAD SWAP1 MLOAD SWAP1 DUP2 MSTORE RETURN JUMPDEST POP CALLVALUE PUSH2 0x3C8 JUMPI DUP2 PUSH1 0x3 NOT CALLDATASIZE ADD SLT PUSH2 0x3C8 JUMPI PUSH1 0x20 SWAP1 MLOAD PUSH1 0x0 DUP1 MLOAD PUSH1 0x20 PUSH2 0x1A8D DUP4 CODECOPY DUP2 MLOAD SWAP2 MSTORE DUP2 MSTORE RETURN JUMPDEST POP CALLVALUE PUSH2 0x3C8 JUMPI DUP2 PUSH1 0x3 NOT CALLDATASIZE ADD SLT PUSH2 0x3C8 JUMPI PUSH1 0x20 SWAP1 PUSH1 0xE SLOAD SWAP1 MLOAD SWAP1 DUP2 MSTORE RETURN JUMPDEST SWAP1 POP CALLVALUE PUSH2 0x579 JUMPI PUSH1 0x20 CALLDATASIZE PUSH1 0x3 NOT ADD SLT PUSH2 0x579 JUMPI PUSH1 0x0 DUP1 MLOAD PUSH1 0x20 PUSH2 0x1AAD DUP4 CODECOPY DUP2 MLOAD SWAP2 MSTORE SWAP1 CALLDATALOAD PUSH1 0x0 DUP1 MLOAD PUSH1 0x20 PUSH2 0x1A8D DUP4 CODECOPY DUP2 MLOAD SWAP2 MSTORE DUP5 MSTORE DUP4 PUSH1 0x20 MSTORE DUP3 DUP5 KECCAK256 CALLER DUP6 MSTORE PUSH1 0x20 MSTORE PUSH2 0x53D PUSH1 0xFF DUP5 DUP7 KECCAK256 SLOAD AND PUSH2 0x195F JUMP JUMPDEST PUSH1 0x3 SLOAD SWAP1 DUP1 PUSH1 0x3 SSTORE PUSH2 0x573 PUSH1 0x13 DUP6 MLOAD PUSH19 0x1C5D5BDD1955985B1A591A5D1E54195C9A5BD9 PUSH1 0x6A SHL DUP2 MSTORE KECCAK256 SWAP5 MLOAD SWAP3 DUP4 SWAP3 TIMESTAMP SWAP2 DUP5 PUSH2 0x19A7 JUMP JUMPDEST SUB SWAP1 LOG2 DUP1 RETURN JUMPDEST DUP3 DUP1 REVERT JUMPDEST SWAP1 POP CALLVALUE PUSH2 0x579 JUMPI PUSH1 0x20 CALLDATASIZE PUSH1 0x3 NOT ADD SLT PUSH2 0x579 JUMPI PUSH1 0x0 DUP1 MLOAD PUSH1 0x20 PUSH2 0x1AAD DUP4 CODECOPY DUP2 MLOAD SWAP2 MSTORE SWAP1 CALLDATALOAD PUSH1 0x0 DUP1 MLOAD PUSH1 0x20 PUSH2 0x1A8D DUP4 CODECOPY DUP2 MLOAD SWAP2 MSTORE DUP5 MSTORE DUP4 PUSH1 0x20 MSTORE DUP3 DUP5 KECCAK256 CALLER DUP6 MSTORE PUSH1 0x20 MSTORE PUSH2 0x5CE PUSH1 0xFF DUP5 DUP7 KECCAK256 SLOAD AND PUSH2 0x195F JUMP JUMPDEST PUSH1 0x15 SLOAD SWAP1 DUP1 PUSH1 0x15 SSTORE PUSH2 0x573 PUSH1 0xE DUP6 MLOAD PUSH14 0x6D696E4665656465725374616B65 PUSH1 0x90 SHL DUP2 MSTORE KECCAK256 SWAP5 MLOAD SWAP3 DUP4 SWAP3 TIMESTAMP SWAP2 DUP5 PUSH2 0x19A7 JUMP JUMPDEST SWAP1 POP CALLVALUE PUSH2 0x579 JUMPI PUSH1 0x20 CALLDATASIZE PUSH1 0x3 NOT ADD SLT PUSH2 0x579 JUMPI CALLDATALOAD SWAP2 PUSH1 0xFF DUP4 AND DUP4 SUB PUSH2 0x631 JUMPI POP PUSH2 0x62A PUSH1 0x20 SWAP3 PUSH2 0x19DF JUMP JUMPDEST SWAP1 MLOAD SWAP1 DUP2 MSTORE RETURN JUMPDEST DUP1 REVERT JUMPDEST POP POP CALLVALUE PUSH2 0x3C8 JUMPI DUP2 PUSH1 0x3 NOT CALLDATASIZE ADD SLT PUSH2 0x3C8 JUMPI PUSH1 0x20 SWAP1 PUSH1 0xB SLOAD SWAP1 MLOAD SWAP1 DUP2 MSTORE RETURN JUMPDEST POP POP CALLVALUE PUSH2 0x3C8 JUMPI DUP2 PUSH1 0x3 NOT CALLDATASIZE ADD SLT PUSH2 0x3C8 JUMPI PUSH1 0x20 SWAP1 PUSH1 0x5 SLOAD SWAP1 MLOAD SWAP1 DUP2 MSTORE RETURN JUMPDEST POP POP CALLVALUE PUSH2 0x3C8 JUMPI DUP2 PUSH1 0x3 NOT CALLDATASIZE ADD SLT PUSH2 0x3C8 JUMPI PUSH1 0x20 SWAP1 PUSH1 0xA SLOAD SWAP1 MLOAD SWAP1 DUP2 MSTORE RETURN JUMPDEST POP POP CALLVALUE PUSH2 0x3C8 JUMPI DUP2 PUSH1 0x3 NOT CALLDATASIZE ADD SLT PUSH2 0x3C8 JUMPI PUSH1 0x20 SWAP1 PUSH1 0x1E SLOAD SWAP1 MLOAD SWAP1 DUP2 MSTORE RETURN JUMPDEST SWAP2 SWAP1 POP CALLVALUE PUSH2 0x579 JUMPI DUP1 PUSH1 0x3 NOT CALLDATASIZE ADD SLT PUSH2 0x579 JUMPI PUSH2 0x6EB SWAP2 CALLDATALOAD PUSH2 0x6E6 PUSH1 0x1 PUSH2 0x6D5 PUSH2 0x1812 JUMP JUMPDEST SWAP4 DUP4 DUP8 MSTORE DUP7 PUSH1 0x20 MSTORE DUP7 KECCAK256 ADD SLOAD PUSH2 0x1828 JUMP JUMPDEST PUSH2 0x18EA JUMP JUMPDEST POP DUP1 RETURN JUMPDEST POP POP CALLVALUE PUSH2 0x3C8 JUMPI DUP2 PUSH1 0x3 NOT CALLDATASIZE ADD SLT PUSH2 0x3C8 JUMPI PUSH1 0x20 SWAP1 PUSH1 0x12 SLOAD SWAP1 MLOAD SWAP1 DUP2 MSTORE RETURN JUMPDEST POP POP CALLVALUE PUSH2 0x3C8 JUMPI DUP2 PUSH1 0x3 NOT CALLDATASIZE ADD SLT PUSH2 0x3C8 JUMPI PUSH1 0x20 SWAP1 PUSH1 0x14 SLOAD SWAP1 MLOAD SWAP1 DUP2 MSTORE RETURN JUMPDEST POP POP CALLVALUE PUSH2 0x3C8 JUMPI DUP2 PUSH1 0x3 NOT CALLDATASIZE ADD SLT PUSH2 0x3C8 JUMPI PUSH1 0x20 SWAP1 PUSH1 0x2A SLOAD SWAP1 MLOAD SWAP1 DUP2 MSTORE RETURN JUMPDEST SWAP1 POP CALLVALUE PUSH2 0x579 JUMPI DUP3 PUSH1 0x3 NOT CALLDATASIZE ADD SLT PUSH2 0x579 JUMPI PUSH1 0x20 SWAP3 POP SLOAD SWAP1 MLOAD SWAP1 DUP2 MSTORE RETURN JUMPDEST POP POP CALLVALUE PUSH2 0x3C8 JUMPI DUP2 PUSH1 0x3 NOT CALLDATASIZE ADD SLT PUSH2 0x3C8 JUMPI PUSH1 0x20 SWAP1 PUSH1 0x15 SLOAD SWAP1 MLOAD SWAP1 DUP2 MSTORE RETURN JUMPDEST SWAP1 POP CALLVALUE PUSH2 0x579 JUMPI PUSH1 0x20 CALLDATASIZE PUSH1 0x3 NOT ADD SLT PUSH2 0x579 JUMPI PUSH1 0x0 DUP1 MLOAD PUSH1 0x20 PUSH2 0x1AAD DUP4 CODECOPY DUP2 MLOAD SWAP2 MSTORE SWAP1 CALLDATALOAD PUSH1 0x0 DUP1 MLOAD PUSH1 0x20 PUSH2 0x1A8D DUP4 CODECOPY DUP2 MLOAD SWAP2 MSTORE DUP5 MSTORE DUP4 PUSH1 0x20 MSTORE DUP3 DUP5 KECCAK256 CALLER DUP6 MSTORE PUSH1 0x20 MSTORE PUSH2 0x7DA PUSH1 0xFF DUP5 DUP7 KECCAK256 SLOAD AND PUSH2 0x195F JUMP JUMPDEST PUSH1 0xA SLOAD SWAP1 DUP1 PUSH1 0xA SSTORE PUSH2 0x573 PUSH1 0xB DUP6 MLOAD PUSH11 0x6372656174696F6E466565 PUSH1 0xA8 SHL DUP2 MSTORE KECCAK256 SWAP5 MLOAD SWAP3 DUP4 SWAP3 TIMESTAMP SWAP2 DUP5 PUSH2 0x19A7 JUMP JUMPDEST DUP3 DUP5 CALLVALUE PUSH2 0x631 JUMPI PUSH1 0x20 CALLDATASIZE PUSH1 0x3 NOT ADD SLT PUSH2 0x631 JUMPI POP PUSH2 0x62A PUSH1 0x20 SWAP3 CALLDATALOAD PUSH2 0x1A4C JUMP JUMPDEST POP POP CALLVALUE PUSH2 0x3C8 JUMPI DUP2 PUSH1 0x3 NOT CALLDATASIZE ADD SLT PUSH2 0x3C8 JUMPI PUSH1 0x20 SWAP1 PUSH1 0x6 SLOAD SWAP1 MLOAD SWAP1 DUP2 MSTORE RETURN JUMPDEST SWAP1 POP CALLVALUE PUSH2 0x579 JUMPI PUSH1 0x20 CALLDATASIZE PUSH1 0x3 NOT ADD SLT PUSH2 0x579 JUMPI CALLDATALOAD DUP1 ISZERO ISZERO DUP2 SUB PUSH2 0x579 JUMPI PUSH1 0x20 SWAP3 POP ISZERO PUSH2 0x878 JUMPI PUSH1 0x8 SLOAD SWAP1 JUMPDEST MLOAD SWAP1 DUP2 MSTORE RETURN JUMPDEST PUSH1 0x9 SLOAD SWAP1 PUSH2 0x872 JUMP JUMPDEST POP POP CALLVALUE PUSH2 0x3C8 JUMPI DUP2 PUSH1 0x3 NOT CALLDATASIZE ADD SLT PUSH2 0x3C8 JUMPI PUSH1 0x20 SWAP1 PUSH1 0x9 SLOAD SWAP1 MLOAD SWAP1 DUP2 MSTORE RETURN JUMPDEST POP POP CALLVALUE PUSH2 0x3C8 JUMPI DUP2 PUSH1 0x3 NOT CALLDATASIZE ADD SLT PUSH2 0x3C8 JUMPI PUSH1 0x20 SWAP1 PUSH1 0x1A SLOAD SWAP1 MLOAD SWAP1 DUP2 MSTORE RETURN JUMPDEST POP POP CALLVALUE PUSH2 0x3C8 JUMPI DUP2 PUSH1 0x3 NOT CALLDATASIZE ADD SLT PUSH2 0x3C8 JUMPI PUSH1 0x20 SWAP1 PUSH1 0x18 SLOAD SWAP1 MLOAD SWAP1 DUP2 MSTORE RETURN JUMPDEST POP POP CALLVALUE PUSH2 0x3C8 JUMPI DUP2 PUSH1 0x3 NOT CALLDATASIZE ADD SLT PUSH2 0x3C8 JUMPI MLOAD SWAP1 DUP2 MSTORE PUSH1 0x20 SWAP1 RETURN JUMPDEST POP POP CALLVALUE PUSH2 0x3C8 JUMPI DUP2 PUSH1 0x3 NOT CALLDATASIZE ADD SLT PUSH2 0x3C8 JUMPI PUSH1 0x2B SLOAD SWAP1 MLOAD PUSH1 0x8 SWAP2 SWAP1 SWAP2 SHR PUSH1 0x1 PUSH1 0x1 PUSH1 0xA0 SHL SUB AND DUP2 MSTORE PUSH1 0x20 SWAP1 RETURN JUMPDEST SWAP1 POP CALLVALUE PUSH2 0x579 JUMPI DUP2 PUSH1 0x3 NOT CALLDATASIZE ADD SLT PUSH2 0x579 JUMPI DUP2 PUSH1 0x20 SWAP4 PUSH1 0xFF SWAP3 PUSH2 0x947 PUSH2 0x1812 JUMP JUMPDEST SWAP1 CALLDATALOAD DUP3 MSTORE DUP2 DUP7 MSTORE DUP3 DUP3 KECCAK256 PUSH1 0x1 PUSH1 0x1 PUSH1 0xA0 SHL SUB SWAP1 SWAP2 AND DUP3 MSTORE DUP6 MSTORE KECCAK256 SLOAD SWAP2 MLOAD SWAP2 AND ISZERO ISZERO DUP2 MSTORE RETURN JUMPDEST POP POP CALLVALUE PUSH2 0x3C8 JUMPI PUSH1 0x20 CALLDATASIZE PUSH1 0x3 NOT ADD SLT PUSH2 0x3C8 JUMPI PUSH1 0x0 DUP1 MLOAD PUSH1 0x20 PUSH2 0x1AED DUP4 CODECOPY DUP2 MLOAD SWAP2 MSTORE PUSH2 0x996 PUSH2 0x17F7 JUMP JUMPDEST PUSH1 0x0 DUP1 MLOAD PUSH1 0x20 PUSH2 0x1A8D DUP4 CODECOPY DUP2 MLOAD SWAP2 MSTORE DUP5 MSTORE DUP4 PUSH1 0x20 MSTORE DUP3 DUP5 KECCAK256 CALLER DUP6 MSTORE PUSH1 0x20 MSTORE PUSH2 0x9C3 PUSH1 0xFF DUP5 DUP7 KECCAK256 SLOAD AND PUSH2 0x195F JUMP JUMPDEST PUSH1 0x2F DUP1 SLOAD PUSH1 0x1 PUSH1 0x1 PUSH1 0xA0 SHL SUB DUP4 DUP2 AND PUSH1 0x1 PUSH1 0x1 PUSH1 0xA0 SHL SUB NOT DUP4 AND OR SWAP1 SWAP3 SSTORE DUP5 MLOAD PUSH18 0x6F7074696F6E73436F726541646472657373 PUSH1 0x70 SHL SWAP1 MSTORE SWAP4 MLOAD PUSH32 0x4A4E69DE8DED7DCEAEF818DA27E4654E0073CB97B5E6455C1813E441D801A401 SWAP5 SWAP1 SWAP3 DUP4 SWAP3 PUSH2 0x573 SWAP3 TIMESTAMP SWAP3 SWAP2 AND DUP5 PUSH2 0x19BD JUMP JUMPDEST POP POP CALLVALUE PUSH2 0x3C8 JUMPI DUP2 PUSH1 0x3 NOT CALLDATASIZE ADD SLT PUSH2 0x3C8 JUMPI PUSH1 0x20 SWAP1 PUSH1 0x26 SLOAD SWAP1 MLOAD SWAP1 DUP2 MSTORE RETURN JUMPDEST POP POP CALLVALUE PUSH2 0x3C8 JUMPI DUP2 PUSH1 0x3 NOT CALLDATASIZE ADD SLT PUSH2 0x3C8 JUMPI PUSH1 0x20 SWAP1 PUSH1 0x28 SLOAD SWAP1 MLOAD SWAP1 DUP2 MSTORE RETURN JUMPDEST POP POP CALLVALUE PUSH2 0x3C8 JUMPI DUP2 PUSH1 0x3 NOT CALLDATASIZE ADD SLT PUSH2 0x3C8 JUMPI PUSH1 0x20 SWAP1 DUP2 SLOAD SWAP1 MLOAD SWAP1 DUP2 MSTORE RETURN JUMPDEST SWAP1 POP CALLVALUE PUSH2 0x579 JUMPI DUP3 PUSH1 0x3 NOT CALLDATASIZE ADD SLT PUSH2 0x579 JUMPI PUSH1 0x0 DUP1 MLOAD PUSH1 0x20 PUSH2 0x1ACD DUP4 CODECOPY DUP2 MLOAD SWAP2 MSTORE DUP4 MSTORE DUP3 PUSH1 0x20 MSTORE DUP2 DUP4 KECCAK256 CALLER DUP5 MSTORE PUSH1 0x20 MSTORE PUSH1 0xFF DUP3 DUP5 KECCAK256 SLOAD AND ISZERO PUSH2 0xB1B JUMPI PUSH1 0x1 SLOAD SWAP1 PUSH1 0xFF DUP3 AND PUSH2 0xB0D JUMPI POP PUSH32 0x62E78CEA01BEE320CD4E420270B5EA74000D11B0C9F74754EBDBFC544B05A258 SWAP2 PUSH1 0x1 PUSH1 0x20 SWAP3 PUSH1 0xFF NOT AND OR PUSH1 0x1 SSTORE MLOAD CALLER DUP2 MSTORE LOG1 DUP1 RETURN JUMPDEST DUP3 MLOAD PUSH4 0xD93C0665 PUSH1 0xE0 SHL DUP2 MSTORE REVERT JUMPDEST PUSH1 0x20 PUSH1 0x64 SWAP3 MLOAD SWAP2 PUSH3 0x461BCD PUSH1 0xE5 SHL DUP4 MSTORE DUP3 ADD MSTORE PUSH1 0x1E PUSH1 0x24 DUP3 ADD MSTORE PUSH32 0x436F6E6669673A2063616C6C6572206973206E6F7420477561726469616E0000 PUSH1 0x44 DUP3 ADD MSTORE REVERT JUMPDEST POP POP CALLVALUE PUSH2 0x3C8 JUMPI DUP2 PUSH1 0x3 NOT CALLDATASIZE ADD SLT PUSH2 0x3C8 JUMPI PUSH1 0x20 SWAP1 PUSH1 0xFF PUSH1 0x2B SLOAD AND SWAP1 MLOAD SWAP1 ISZERO ISZERO DUP2 MSTORE RETURN JUMPDEST POP POP CALLVALUE PUSH2 0x3C8 JUMPI DUP2 PUSH1 0x3 NOT CALLDATASIZE ADD SLT PUSH2 0x3C8 JUMPI PUSH1 0x20 SWAP1 PUSH1 0x24 SLOAD SWAP1 MLOAD SWAP1 DUP2 MSTORE RETURN JUMPDEST SWAP1 POP CALLVALUE PUSH2 0x579 JUMPI PUSH1 0x20 CALLDATASIZE PUSH1 0x3 NOT ADD SLT PUSH2 0x579 JUMPI DUP1 CALLDATALOAD SWAP1 PUSH1 0x0 DUP1 MLOAD PUSH1 0x20 PUSH2 0x1A8D DUP4 CODECOPY DUP2 MLOAD SWAP2 MSTORE DUP5 MSTORE DUP4 PUSH1 0x20 MSTORE DUP3 DUP5 KECCAK256 CALLER DUP6 MSTORE PUSH1 0x20 MSTORE PUSH2 0xBE3 PUSH1 0xFF DUP5 DUP7 KECCAK256 SLOAD AND PUSH2 0x195F JUMP JUMPDEST DUP2 ISZERO ISZERO DUP1 PUSH2 0xC77 JUMPI JUMPDEST ISZERO PUSH2 0xC34 JUMPI POP PUSH1 0x0 DUP1 MLOAD PUSH1 0x20 PUSH2 0x1AAD DUP4 CODECOPY DUP2 MLOAD SWAP2 MSTORE SWAP1 PUSH1 0x2A SLOAD SWAP1 DUP1 PUSH1 0x2A SSTORE PUSH2 0x573 PUSH1 0xF DUP6 MLOAD PUSH15 0x6E7374446973636F756E7452617465 PUSH1 0x88 SHL DUP2 MSTORE KECCAK256 SWAP5 MLOAD SWAP3 DUP4 SWAP3 TIMESTAMP SWAP2 DUP5 PUSH2 0x19A7 JUMP JUMPDEST PUSH1 0x64 SWAP1 PUSH1 0x20 DUP5 MLOAD SWAP2 PUSH3 0x461BCD PUSH1 0xE5 SHL DUP4 MSTORE DUP3 ADD MSTORE PUSH1 0x1D PUSH1 0x24 DUP3 ADD MSTORE PUSH32 0x436F6E6669673A20696E76616C696420646973636F756E742072617465000000 PUSH1 0x44 DUP3 ADD MSTORE REVERT JUMPDEST POP PUSH2 0x2710 DUP3 GT ISZERO PUSH2 0xBEC JUMP JUMPDEST SWAP1 POP CALLVALUE PUSH2 0x579 JUMPI PUSH1 0x20 CALLDATASIZE PUSH1 0x3 NOT ADD SLT PUSH2 0x579 JUMPI CALLDATALOAD SWAP1 DUP2 ISZERO ISZERO DUP1 SWAP3 SUB PUSH2 0x579 JUMPI PUSH1 0xFF PUSH2 0xCCF SWAP2 PUSH1 0x0 DUP1 MLOAD PUSH1 0x20 PUSH2 0x1A8D DUP4 CODECOPY DUP2 MLOAD SWAP2 MSTORE DUP6 MSTORE DUP5 PUSH1 0x20 MSTORE DUP1 DUP6 KECCAK256 CALLER DUP7 MSTORE PUSH1 0x20 MSTORE DUP5 KECCAK256 SLOAD AND PUSH2 0x195F JUMP JUMPDEST PUSH1 0xFF DUP1 NOT PUSH1 0x2B SLOAD AND SWAP2 AND OR PUSH1 0x2B SSTORE DUP1 RETURN JUMPDEST POP POP CALLVALUE PUSH2 0x3C8 JUMPI DUP2 PUSH1 0x3 NOT CALLDATASIZE ADD SLT PUSH2 0x3C8 JUMPI PUSH1 0x20 SWAP1 PUSH1 0x23 SLOAD SWAP1 MLOAD SWAP1 DUP2 MSTORE RETURN JUMPDEST POP POP CALLVALUE PUSH2 0x3C8 JUMPI DUP2 PUSH1 0x3 NOT CALLDATASIZE ADD SLT PUSH2 0x3C8 JUMPI PUSH1 0x20 SWAP1 PUSH1 0xF SLOAD SWAP1 MLOAD SWAP1 DUP2 MSTORE RETURN JUMPDEST SWAP1 POP CALLVALUE PUSH2 0x579 JUMPI PUSH1 0x20 CALLDATASIZE PUSH1 0x3 NOT ADD SLT PUSH2 0x579 JUMPI PUSH1 0x0 DUP1 MLOAD PUSH1 0x20 PUSH2 0x1AAD DUP4 CODECOPY DUP2 MLOAD SWAP2 MSTORE SWAP1 CALLDATALOAD PUSH1 0x0 DUP1 MLOAD PUSH1 0x20 PUSH2 0x1A8D DUP4 CODECOPY DUP2 MLOAD SWAP2 MSTORE DUP5 MSTORE DUP4 PUSH1 0x20 MSTORE DUP3 DUP5 KECCAK256 CALLER DUP6 MSTORE PUSH1 0x20 MSTORE PUSH2 0xD6F PUSH1 0xFF DUP5 DUP7 KECCAK256 SLOAD AND PUSH2 0x195F JUMP JUMPDEST PUSH1 0xC SLOAD SWAP1 DUP1 PUSH1 0xC SSTORE PUSH2 0x573 PUSH1 0xE DUP6 MLOAD PUSH14 0x6172626974726174696F6E466565 PUSH1 0x90 SHL DUP2 MSTORE KECCAK256 SWAP5 MLOAD SWAP3 DUP4 SWAP3 TIMESTAMP SWAP2 DUP5 PUSH2 0x19A7 JUMP JUMPDEST POP POP CALLVALUE PUSH2 0x3C8 JUMPI DUP2 PUSH1 0x3 NOT CALLDATASIZE ADD SLT PUSH2 0x3C8 JUMPI PUSH1 0x20 SWAP1 PUSH1 0x13 SLOAD SWAP1 MLOAD SWAP1 DUP2 MSTORE RETURN JUMPDEST POP POP CALLVALUE PUSH2 0x3C8 JUMPI DUP2 PUSH1 0x3 NOT CALLDATASIZE ADD SLT PUSH2 0x3C8 JUMPI PUSH1 0x20 SWAP1 PUSH1 0xFF PUSH1 0x1 SLOAD AND SWAP1 MLOAD SWAP1 ISZERO ISZERO DUP2 MSTORE RETURN JUMPDEST POP POP CALLVALUE PUSH2 0x3C8 JUMPI DUP2 PUSH1 0x3 NOT CALLDATASIZE ADD SLT PUSH2 0x3C8 JUMPI PUSH1 0x20 SWAP1 PUSH1 0x7 SLOAD SWAP1 MLOAD SWAP1 DUP2 MSTORE RETURN JUMPDEST POP POP CALLVALUE PUSH2 0x3C8 JUMPI PUSH1 0x20 CALLDATASIZE PUSH1 0x3 NOT ADD SLT PUSH2 0x3C8 JUMPI PUSH1 0x0 DUP1 MLOAD PUSH1 0x20 PUSH2 0x1AED DUP4 CODECOPY DUP2 MLOAD SWAP2 MSTORE PUSH2 0xE2C PUSH2 0x17F7 JUMP JUMPDEST PUSH1 0x0 DUP1 MLOAD PUSH1 0x20 PUSH2 0x1A8D DUP4 CODECOPY DUP2 MLOAD SWAP2 MSTORE DUP5 MSTORE DUP4 PUSH1 0x20 MSTORE DUP3 DUP5 KECCAK256 CALLER DUP6 MSTORE PUSH1 0x20 MSTORE PUSH2 0xE59 PUSH1 0xFF DUP5 DUP7 KECCAK256 SLOAD AND PUSH2 0x195F JUMP JUMPDEST PUSH1 0x31 DUP1 SLOAD PUSH1 0x1 PUSH1 0x1 PUSH1 0xA0 SHL SUB DUP4 DUP2 AND PUSH1 0x1 PUSH1 0x1 PUSH1 0xA0 SHL SUB NOT DUP4 AND OR SWAP1 SWAP3 SSTORE DUP5 MLOAD PUSH18 0x736561744D616E6167657241646472657373 PUSH1 0x70 SHL SWAP1 MSTORE SWAP4 MLOAD PUSH32 0x5E28EB369D7FDBB5DFBB05D4358500DF3BF5F778C9F2C859B1D7277F5AE4CE3F SWAP5 SWAP1 SWAP3 DUP4 SWAP3 PUSH2 0x573 SWAP3 TIMESTAMP SWAP3 SWAP2 AND DUP5 PUSH2 0x19BD JUMP JUMPDEST POP POP CALLVALUE PUSH2 0x3C8 JUMPI DUP2 PUSH1 0x3 NOT CALLDATASIZE ADD SLT PUSH2 0x3C8 JUMPI PUSH1 0x30 SLOAD SWAP1 MLOAD PUSH1 0x1 PUSH1 0x1 PUSH1 0xA0 SHL SUB SWAP1 SWAP2 AND DUP2 MSTORE PUSH1 0x20 SWAP1 RETURN JUMPDEST POP POP CALLVALUE PUSH2 0x3C8 JUMPI DUP2 PUSH1 0x3 NOT CALLDATASIZE ADD SLT PUSH2 0x3C8 JUMPI PUSH1 0x20 SWAP1 PUSH1 0x2 SLOAD SWAP1 MLOAD SWAP1 DUP2 MSTORE RETURN JUMPDEST POP POP CALLVALUE PUSH2 0x3C8 JUMPI PUSH1 0x20 CALLDATASIZE PUSH1 0x3 NOT ADD SLT PUSH2 0x3C8 JUMPI PUSH1 0x0 DUP1 MLOAD PUSH1 0x20 PUSH2 0x1AED DUP4 CODECOPY DUP2 MLOAD SWAP2 MSTORE PUSH2 0xF39 PUSH2 0x17F7 JUMP JUMPDEST PUSH1 0x0 DUP1 MLOAD PUSH1 0x20 PUSH2 0x1A8D DUP4 CODECOPY DUP2 MLOAD SWAP2 MSTORE DUP5 MSTORE DUP4 PUSH1 0x20 MSTORE DUP3 DUP5 KECCAK256 CALLER DUP6 MSTORE PUSH1 0x20 MSTORE PUSH2 0xF66 PUSH1 0xFF DUP5 DUP7 KECCAK256 SLOAD AND PUSH2 0x195F JUMP JUMPDEST PUSH1 0x30 DUP1 SLOAD PUSH1 0x1 PUSH1 0x1 PUSH1 0xA0 SHL SUB DUP4 DUP2 AND PUSH1 0x1 PUSH1 0x1 PUSH1 0xA0 SHL SUB NOT DUP4 AND OR SWAP1 SWAP3 SSTORE DUP5 MLOAD PUSH19 0x6665656450726F746F636F6C41646472657373 PUSH1 0x68 SHL SWAP1 MSTORE SWAP4 MLOAD PUSH32 0x2F73B590FAADDB044F9851ED70B38C69E7CC0D4659BF1FE1082B600D997C18DE SWAP5 SWAP1 SWAP3 DUP4 SWAP3 PUSH2 0x573 SWAP3 TIMESTAMP SWAP3 SWAP2 AND DUP5 PUSH2 0x19BD JUMP JUMPDEST POP POP CALLVALUE PUSH2 0x3C8 JUMPI DUP2 PUSH1 0x3 NOT CALLDATASIZE ADD SLT PUSH2 0x3C8 JUMPI PUSH1 0x20 SWAP1 PUSH1 0x1F SLOAD SWAP1 MLOAD SWAP1 DUP2 MSTORE RETURN JUMPDEST POP POP CALLVALUE PUSH2 0x3C8 JUMPI DUP2 PUSH1 0x3 NOT CALLDATASIZE ADD SLT PUSH2 0x3C8 JUMPI PUSH1 0x20 SWAP1 PUSH1 0x8 SLOAD SWAP1 MLOAD SWAP1 DUP2 MSTORE RETURN JUMPDEST POP POP CALLVALUE PUSH2 0x3C8 JUMPI DUP2 PUSH1 0x3 NOT CALLDATASIZE ADD SLT PUSH2 0x3C8 JUMPI PUSH1 0x20 SWAP1 PUSH1 0x1C SLOAD SWAP1 MLOAD SWAP1 DUP2 MSTORE RETURN JUMPDEST SWAP1 POP CALLVALUE PUSH2 0x579 JUMPI PUSH1 0x20 CALLDATASIZE PUSH1 0x3 NOT ADD SLT PUSH2 0x579 JUMPI PUSH1 0x0 DUP1 MLOAD PUSH1 0x20 PUSH2 0x1AAD DUP4 CODECOPY DUP2 MLOAD SWAP2 MSTORE SWAP1 CALLDATALOAD PUSH1 0x0 DUP1 MLOAD PUSH1 0x20 PUSH2 0x1A8D DUP4 CODECOPY DUP2 MLOAD SWAP2 MSTORE DUP5 MSTORE DUP4 PUSH1 0x20 MSTORE DUP3 DUP5 KECCAK256 CALLER DUP6 MSTORE PUSH1 0x20 MSTORE PUSH2 0x1083 PUSH1 0xFF DUP5 DUP7 KECCAK256 SLOAD AND PUSH2 0x195F JUMP JUMPDEST PUSH1 0x2 SLOAD SWAP1 DUP1 PUSH1 0x2 SSTORE PUSH2 0x573 PUSH1 0x11 DUP6 MLOAD PUSH17 0x1C999C55985B1A591A5D1E54195C9A5BD9 PUSH1 0x7A SHL DUP2 MSTORE KECCAK256 SWAP5 MLOAD SWAP3 DUP4 SWAP3 TIMESTAMP SWAP2 DUP5 PUSH2 0x19A7 JUMP JUMPDEST POP POP CALLVALUE PUSH2 0x3C8 JUMPI DUP2 PUSH1 0x3 NOT CALLDATASIZE ADD SLT PUSH2 0x3C8 JUMPI PUSH1 0x2D SLOAD SWAP1 MLOAD PUSH1 0x1 PUSH1 0x1 PUSH1 0xA0 SHL SUB SWAP1 SWAP2 AND DUP2 MSTORE PUSH1 0x20 SWAP1 RETURN JUMPDEST POP POP CALLVALUE PUSH2 0x3C8 JUMPI DUP2 PUSH1 0x3 NOT CALLDATASIZE ADD SLT PUSH2 0x3C8 JUMPI PUSH1 0x2F SLOAD SWAP1 MLOAD PUSH1 0x1 PUSH1 0x1 PUSH1 0xA0 SHL SUB SWAP1 SWAP2 AND DUP2 MSTORE PUSH1 0x20 SWAP1 RETURN JUMPDEST SWAP1 POP CALLVALUE PUSH2 0x579 JUMPI DUP3 PUSH1 0x3 NOT CALLDATASIZE ADD SLT PUSH2 0x579 JUMPI PUSH1 0x0 DUP1 MLOAD PUSH1 0x20 PUSH2 0x1A8D DUP4 CODECOPY DUP2 MLOAD SWAP2 MSTORE DUP4 MSTORE DUP3 PUSH1 0x20 MSTORE DUP2 DUP4 KECCAK256 CALLER DUP5 MSTORE PUSH1 0x20 MSTORE PUSH2 0x1148 PUSH1 0xFF DUP4 DUP6 KECCAK256 SLOAD AND PUSH2 0x195F JUMP JUMPDEST PUSH1 0x1 SLOAD SWAP1 PUSH1 0xFF DUP3 AND ISZERO PUSH2 0x118A JUMPI POP PUSH1 0xFF NOT AND PUSH1 0x1 SSTORE MLOAD CALLER DUP2 MSTORE PUSH32 0x5DB9EE0A495BF2E6FF9C91A7834C1BA4FDD244A5E8AA4E537BD38AEAE4B073AA SWAP1 PUSH1 0x20 SWAP1 LOG1 DUP1 RETURN JUMPDEST DUP3 MLOAD PUSH4 0x8DFC202B PUSH1 0xE0 SHL DUP2 MSTORE REVERT JUMPDEST POP POP CALLVALUE PUSH2 0x3C8 JUMPI DUP2 PUSH1 0x3 NOT CALLDATASIZE ADD SLT PUSH2 0x3C8 JUMPI PUSH1 0x2E SLOAD SWAP1 MLOAD PUSH1 0x1 PUSH1 0x1 PUSH1 0xA0 SHL SUB SWAP1 SWAP2 AND DUP2 MSTORE PUSH1 0x20 SWAP1 RETURN JUMPDEST POP POP CALLVALUE PUSH2 0x3C8 JUMPI PUSH1 0x20 CALLDATASIZE PUSH1 0x3 NOT ADD SLT PUSH2 0x3C8 JUMPI PUSH1 0x0 DUP1 MLOAD PUSH1 0x20 PUSH2 0x1AED DUP4 CODECOPY DUP2 MLOAD SWAP2 MSTORE PUSH2 0x11EB PUSH2 0x17F7 JUMP JUMPDEST PUSH1 0x0 DUP1 MLOAD PUSH1 0x20 PUSH2 0x1A8D DUP4 CODECOPY DUP2 MLOAD SWAP2 MSTORE DUP5 MSTORE DUP4 PUSH1 0x20 MSTORE DUP3 DUP5 KECCAK256 CALLER DUP6 MSTORE PUSH1 0x20 MSTORE PUSH2 0x1218 PUSH1 0xFF DUP5 DUP7 KECCAK256 SLOAD AND PUSH2 0x195F JUMP JUMPDEST PUSH1 0x32 DUP1 SLOAD PUSH1 0x1 PUSH1 0x1 PUSH1 0xA0 SHL SUB DUP4 DUP2 AND PUSH1 0x1 PUSH1 0x1 PUSH1 0xA0 SHL SUB NOT DUP4 AND OR SWAP1 SWAP3 SSTORE DUP5 MLOAD PUSH20 0x706F696E74734D616E6167657241646472657373 PUSH1 0x60 SHL SWAP1 MSTORE SWAP4 MLOAD PUSH32 0x2E9D3AA19D9DBD777C6BE6342075AC61EF674D8B86D37B75EA0CB8D1A845C51B SWAP5 SWAP1 SWAP3 DUP4 SWAP3 PUSH2 0x573 SWAP3 TIMESTAMP SWAP3 SWAP2 AND DUP5 PUSH2 0x19BD JUMP JUMPDEST DUP4 DUP4 CALLVALUE PUSH2 0x3C8 JUMPI DUP1 PUSH1 0x3 NOT CALLDATASIZE ADD SLT PUSH2 0x3C8 JUMPI PUSH2 0x12A2 PUSH2 0x1812 JUMP JUMPDEST SWAP1 CALLER PUSH1 0x1 PUSH1 0x1 PUSH1 0xA0 SHL SUB DUP4 AND SUB PUSH2 0x12BF JUMPI POP PUSH2 0x6EB SWAP2 SWAP3 CALLDATALOAD PUSH2 0x18EA JUMP JUMPDEST MLOAD PUSH4 0x334BD919 PUSH1 0xE1 SHL DUP2 MSTORE DUP4 SWAP1 REVERT JUMPDEST POP POP CALLVALUE PUSH2 0x3C8 JUMPI DUP2 PUSH1 0x3 NOT CALLDATASIZE ADD SLT PUSH2 0x3C8 JUMPI PUSH1 0x20 SWAP1 PUSH1 0x16 SLOAD SWAP1 MLOAD SWAP1 DUP2 MSTORE RETURN JUMPDEST SWAP2 SWAP1 POP CALLVALUE PUSH2 0x579 JUMPI DUP1 PUSH1 0x3 NOT CALLDATASIZE ADD SLT PUSH2 0x579 JUMPI PUSH2 0x6EB SWAP2 CALLDATALOAD PUSH2 0x1312 PUSH1 0x1 PUSH2 0x6D5 PUSH2 0x1812 JUMP JUMPDEST PUSH2 0x186C JUMP JUMPDEST POP POP CALLVALUE PUSH2 0x3C8 JUMPI DUP2 PUSH1 0x3 NOT CALLDATASIZE ADD SLT PUSH2 0x3C8 JUMPI PUSH1 0x20 SWAP1 PUSH1 0x21 SLOAD SWAP1 MLOAD SWAP1 DUP2 MSTORE RETURN JUMPDEST POP POP CALLVALUE PUSH2 0x3C8 JUMPI DUP2 PUSH1 0x3 NOT CALLDATASIZE ADD SLT PUSH2 0x3C8 JUMPI PUSH1 0x20 SWAP1 PUSH1 0x1D SLOAD SWAP1 MLOAD SWAP1 DUP2 MSTORE RETURN JUMPDEST POP POP CALLVALUE PUSH2 0x3C8 JUMPI DUP2 PUSH1 0x3 NOT CALLDATASIZE ADD SLT PUSH2 0x3C8 JUMPI PUSH1 0x20 SWAP1 MLOAD PUSH1 0x0 DUP1 MLOAD PUSH1 0x20 PUSH2 0x1ACD DUP4 CODECOPY DUP2 MLOAD SWAP2 MSTORE DUP2 MSTORE RETURN JUMPDEST SWAP1 POP CALLVALUE PUSH2 0x579 JUMPI PUSH1 0x20 CALLDATASIZE PUSH1 0x3 NOT ADD SLT PUSH2 0x579 JUMPI DUP2 PUSH1 0x20 SWAP4 PUSH1 0x1 SWAP3 CALLDATALOAD DUP2 MSTORE DUP1 DUP6 MSTORE KECCAK256 ADD SLOAD SWAP1 MLOAD SWAP1 DUP2 MSTORE RETURN JUMPDEST POP POP CALLVALUE PUSH2 0x3C8 JUMPI PUSH1 0x20 CALLDATASIZE PUSH1 0x3 NOT ADD SLT PUSH2 0x3C8 JUMPI PUSH1 0x0 DUP1 MLOAD PUSH1 0x20 PUSH2 0x1AED DUP4 CODECOPY DUP2 MLOAD SWAP2 MSTORE PUSH2 0x13D2 PUSH2 0x17F7 JUMP JUMPDEST PUSH1 0x0 DUP1 MLOAD PUSH1 0x20 PUSH2 0x1A8D DUP4 CODECOPY DUP2 MLOAD SWAP2 MSTORE DUP5 MSTORE DUP4 PUSH1 0x20 MSTORE DUP3 DUP5 KECCAK256 CALLER DUP6 MSTORE PUSH1 0x20 MSTORE PUSH2 0x13FF PUSH1 0xFF DUP5 DUP7 KECCAK256 SLOAD AND PUSH2 0x195F JUMP JUMPDEST PUSH1 0x2E DUP1 SLOAD PUSH1 0x1 PUSH1 0x1 PUSH1 0xA0 SHL SUB DUP4 DUP2 AND PUSH1 0x1 PUSH1 0x1 PUSH1 0xA0 SHL SUB NOT DUP4 AND OR SWAP1 SWAP3 SSTORE DUP5 MLOAD PUSH19 0x7661756C744D616E6167657241646472657373 PUSH1 0x68 SHL SWAP1 MSTORE SWAP4 MLOAD PUSH32 0x2FE00A4B9B1823087C1AAA9E681D82D7F691AA0160A8BEC45C8E55052E143534 SWAP5 SWAP1 SWAP3 DUP4 SWAP3 PUSH2 0x573 SWAP3 TIMESTAMP SWAP3 SWAP2 AND DUP5 PUSH2 0x19BD JUMP JUMPDEST POP POP CALLVALUE PUSH2 0x3C8 JUMPI DUP2 PUSH1 0x3 NOT CALLDATASIZE ADD SLT PUSH2 0x3C8 JUMPI PUSH1 0x20 SWAP1 PUSH1 0x17 SLOAD SWAP1 MLOAD SWAP1 DUP2 MSTORE RETURN JUMPDEST POP POP CALLVALUE PUSH2 0x3C8 JUMPI DUP2 PUSH1 0x3 NOT CALLDATASIZE ADD SLT PUSH2 0x3C8 JUMPI PUSH1 0x20 SWAP1 PUSH1 0xC SLOAD SWAP1 MLOAD SWAP1 DUP2 MSTORE RETURN JUMPDEST SWAP1 POP CALLVALUE PUSH2 0x579 JUMPI PUSH1 0x20 CALLDATASIZE PUSH1 0x3 NOT ADD SLT PUSH2 0x579 JUMPI CALLDATALOAD DUP1 ISZERO ISZERO DUP2 SUB PUSH2 0x579 JUMPI PUSH1 0x20 SWAP3 POP ISZERO PUSH2 0x14DC JUMPI PUSH1 0x7 SLOAD SWAP1 MLOAD SWAP1 DUP2 MSTORE RETURN JUMPDEST PUSH1 0x6 SLOAD SWAP1 PUSH2 0x872 JUMP JUMPDEST POP POP CALLVALUE PUSH2 0x3C8 JUMPI DUP2 PUSH1 0x3 NOT CALLDATASIZE ADD SLT PUSH2 0x3C8 JUMPI PUSH1 0x20 SWAP1 PUSH1 0x10 SLOAD SWAP1 MLOAD SWAP1 DUP2 MSTORE RETURN JUMPDEST POP POP CALLVALUE PUSH2 0x3C8 JUMPI DUP2 PUSH1 0x3 NOT CALLDATASIZE ADD SLT PUSH2 0x3C8 JUMPI PUSH1 0x20 SWAP1 PUSH1 0x11 SLOAD SWAP1 MLOAD SWAP1 DUP2 MSTORE RETURN JUMPDEST POP POP CALLVALUE PUSH2 0x3C8 JUMPI DUP2 PUSH1 0x3 NOT CALLDATASIZE ADD SLT PUSH2 0x3C8 JUMPI PUSH1 0x20 SWAP1 PUSH1 0xD SLOAD SWAP1 MLOAD SWAP1 DUP2 MSTORE RETURN JUMPDEST POP POP CALLVALUE PUSH2 0x3C8 JUMPI DUP2 PUSH1 0x3 NOT CALLDATASIZE ADD SLT PUSH2 0x3C8 JUMPI PUSH1 0x20 SWAP1 PUSH1 0x22 SLOAD SWAP1 MLOAD SWAP1 DUP2 MSTORE RETURN JUMPDEST SWAP1 POP CALLVALUE PUSH2 0x579 JUMPI PUSH1 0x20 CALLDATASIZE PUSH1 0x3 NOT ADD SLT PUSH2 0x579 JUMPI PUSH1 0x0 DUP1 MLOAD PUSH1 0x20 PUSH2 0x1AAD DUP4 CODECOPY DUP2 MLOAD SWAP2 MSTORE SWAP1 CALLDATALOAD PUSH1 0x0 DUP1 MLOAD PUSH1 0x20 PUSH2 0x1A8D DUP4 CODECOPY DUP2 MLOAD SWAP2 MSTORE DUP5 MSTORE DUP4 PUSH1 0x20 MSTORE DUP3 DUP5 KECCAK256 CALLER DUP6 MSTORE PUSH1 0x20 MSTORE PUSH2 0x15B2 PUSH1 0xFF DUP5 DUP7 KECCAK256 SLOAD AND PUSH2 0x195F JUMP JUMPDEST PUSH1 0x13 SLOAD SWAP1 DUP1 PUSH1 0x13 SSTORE PUSH2 0x573 PUSH1 0xD DUP6 MLOAD PUSH13 0x6D696E4D617267696E52617465 PUSH1 0x98 SHL DUP2 MSTORE KECCAK256 SWAP5 MLOAD SWAP3 DUP4 SWAP3 TIMESTAMP SWAP2 DUP5 PUSH2 0x19A7 JUMP JUMPDEST SWAP1 POP CALLVALUE PUSH2 0x579 JUMPI PUSH1 0x20 CALLDATASIZE PUSH1 0x3 NOT ADD SLT PUSH2 0x579 JUMPI PUSH1 0x0 DUP1 MLOAD PUSH1 0x20 PUSH2 0x1AAD DUP4 CODECOPY DUP2 MLOAD SWAP2 MSTORE SWAP1 CALLDATALOAD PUSH1 0x0 DUP1 MLOAD PUSH1 0x20 PUSH2 0x1A8D DUP4 CODECOPY DUP2 MLOAD SWAP2 MSTORE DUP5 MSTORE DUP4 PUSH1 0x20 MSTORE DUP3 DUP5 KECCAK256 CALLER DUP6 MSTORE PUSH1 0x20 MSTORE PUSH2 0x1633 PUSH1 0xFF DUP5 DUP7 KECCAK256 SLOAD AND PUSH2 0x195F JUMP JUMPDEST PUSH1 0xB SLOAD SWAP1 DUP1 PUSH1 0xB SSTORE PUSH2 0x573 PUSH1 0xE DUP6 MLOAD PUSH14 0x74726164696E6746656552617465 PUSH1 0x90 SHL DUP2 MSTORE KECCAK256 SWAP5 MLOAD SWAP3 DUP4 SWAP3 TIMESTAMP SWAP2 DUP5 PUSH2 0x19A7 JUMP JUMPDEST POP POP CALLVALUE PUSH2 0x3C8 JUMPI DUP2 PUSH1 0x3 NOT CALLDATASIZE ADD SLT PUSH2 0x3C8 JUMPI PUSH1 0x32 SLOAD SWAP1 MLOAD PUSH1 0x1 PUSH1 0x1 PUSH1 0xA0 SHL SUB SWAP1 SWAP2 AND DUP2 MSTORE PUSH1 0x20 SWAP1 RETURN JUMPDEST POP POP CALLVALUE PUSH2 0x3C8 JUMPI DUP2 PUSH1 0x3 NOT CALLDATASIZE ADD SLT PUSH2 0x3C8 JUMPI PUSH1 0x20 SWAP1 PUSH1 0x3 SLOAD SWAP1 MLOAD SWAP1 DUP2 MSTORE RETURN JUMPDEST POP POP CALLVALUE PUSH2 0x3C8 JUMPI PUSH1 0x20 CALLDATASIZE PUSH1 0x3 NOT ADD SLT PUSH2 0x3C8 JUMPI PUSH1 0x0 DUP1 MLOAD PUSH1 0x20 PUSH2 0x1AED DUP4 CODECOPY DUP2 MLOAD SWAP2 MSTORE PUSH2 0x16D6 PUSH2 0x17F7 JUMP JUMPDEST PUSH1 0x0 DUP1 MLOAD PUSH1 0x20 PUSH2 0x1A8D DUP4 CODECOPY DUP2 MLOAD SWAP2 MSTORE DUP5 MSTORE DUP4 PUSH1 0x20 MSTORE DUP3 DUP5 KECCAK256 CALLER DUP6 MSTORE PUSH1 0x20 MSTORE PUSH2 0x1703 PUSH1 0xFF DUP5 DUP7 KECCAK256 SLOAD AND PUSH2 0x195F JUMP JUMPDEST PUSH1 0x2B DUP1 SLOAD PUSH2 0x100 PUSH1 0x1 PUSH1 0xA8 SHL SUB NOT DUP2 AND PUSH1 0x8 DUP5 DUP2 SHL PUSH2 0x100 PUSH1 0x1 PUSH1 0xA8 SHL SUB AND SWAP2 SWAP1 SWAP2 OR SWAP1 SWAP3 SSTORE DUP5 MLOAD PUSH11 0x7573647441646472657373 PUSH1 0xA8 SHL SWAP1 MSTORE SWAP4 MLOAD PUSH32 0xA63D2DB62C0400AC404BB484526070E593B5B38753F8211077A0B30BE6604B39 SWAP5 SWAP1 SWAP3 DUP4 SWAP3 PUSH2 0x573 SWAP3 TIMESTAMP SWAP3 SWAP2 SHR PUSH1 0x1 PUSH1 0x1 PUSH1 0xA0 SHL SUB AND DUP5 PUSH2 0x19BD JUMP JUMPDEST POP POP CALLVALUE PUSH2 0x3C8 JUMPI DUP2 PUSH1 0x3 NOT CALLDATASIZE ADD SLT PUSH2 0x3C8 JUMPI PUSH1 0x2C SLOAD SWAP1 MLOAD PUSH1 0x1 PUSH1 0x1 PUSH1 0xA0 SHL SUB SWAP1 SWAP2 AND DUP2 MSTORE PUSH1 0x20 SWAP1 RETURN JUMPDEST DUP5 SWAP2 CALLVALUE PUSH2 0x579 JUMPI PUSH1 0x20 CALLDATASIZE PUSH1 0x3 NOT ADD SLT PUSH2 0x579 JUMPI CALLDATALOAD PUSH4 0xFFFFFFFF PUSH1 0xE0 SHL DUP2 AND DUP1 SWAP2 SUB PUSH2 0x579 JUMPI PUSH1 0x20 SWAP3 POP PUSH4 0x7965DB0B PUSH1 0xE0 SHL DUP2 EQ SWAP1 DUP2 ISZERO PUSH2 0x17E6 JUMPI JUMPDEST POP ISZERO ISZERO DUP2 MSTORE RETURN JUMPDEST PUSH4 0x1FFC9A7 PUSH1 0xE0 SHL EQ SWAP1 POP DUP4 PUSH2 0x17DF JUMP JUMPDEST PUSH1 0x4 CALLDATALOAD SWAP1 PUSH1 0x1 PUSH1 0x1 PUSH1 0xA0 SHL SUB DUP3 AND DUP3 SUB PUSH2 0x180D JUMPI JUMP JUMPDEST PUSH1 0x0 DUP1 REVERT JUMPDEST PUSH1 0x24 CALLDATALOAD SWAP1 PUSH1 0x1 PUSH1 0x1 PUSH1 0xA0 SHL SUB DUP3 AND DUP3 SUB PUSH2 0x180D JUMPI JUMP JUMPDEST DUP1 PUSH1 0x0 MSTORE PUSH1 0x0 PUSH1 0x20 MSTORE PUSH1 0x40 PUSH1 0x0 KECCAK256 CALLER PUSH1 0x0 MSTORE PUSH1 0x20 MSTORE PUSH1 0xFF PUSH1 0x40 PUSH1 0x0 KECCAK256 SLOAD AND ISZERO PUSH2 0x184E JUMPI POP JUMP JUMPDEST PUSH1 0x44 SWAP1 PUSH1 0x40 MLOAD SWAP1 PUSH4 0xE2517D3F PUSH1 0xE0 SHL DUP3 MSTORE CALLER PUSH1 0x4 DUP4 ADD MSTORE PUSH1 0x24 DUP3 ADD MSTORE REVERT JUMPDEST SWAP1 PUSH1 0x0 SWAP2 DUP1 DUP4 MSTORE DUP3 PUSH1 0x20 MSTORE PUSH1 0x40 DUP4 KECCAK256 SWAP2 PUSH1 0x1 DUP1 PUSH1 0xA0 SHL SUB AND SWAP2 DUP3 DUP5 MSTORE PUSH1 0x20 MSTORE PUSH1 0xFF PUSH1 0x40 DUP5 KECCAK256 SLOAD AND ISZERO PUSH1 0x0 EQ PUSH2 0x18E5 JUMPI DUP1 DUP4 MSTORE DUP3 PUSH1 0x20 MSTORE PUSH1 0x40 DUP4 KECCAK256 DUP3 DUP5 MSTORE PUSH1 0x20 MSTORE PUSH1 0x40 DUP4 KECCAK256 PUSH1 0x1 PUSH1 0xFF NOT DUP3 SLOAD AND OR SWAP1 SSTORE PUSH32 0x2F8788117E7EFF1D82E926EC794901D17C78024A50270940304540A733656F0D CALLER SWAP4 DUP1 LOG4 PUSH1 0x1 SWAP1 JUMP JUMPDEST POP POP SWAP1 JUMP JUMPDEST SWAP1 PUSH1 0x0 SWAP2 DUP1 DUP4 MSTORE DUP3 PUSH1 0x20 MSTORE PUSH1 0x40 DUP4 KECCAK256 SWAP2 PUSH1 0x1 DUP1 PUSH1 0xA0 SHL SUB AND SWAP2 DUP3 DUP5 MSTORE PUSH1 0x20 MSTORE PUSH1 0xFF PUSH1 0x40 DUP5 KECCAK256 SLOAD AND PUSH1 0x0 EQ PUSH2 0x18E5 JUMPI DUP1 DUP4 MSTORE DUP3 PUSH1 0x20 MSTORE PUSH1 0x40 DUP4 KECCAK256 DUP3 DUP5 MSTORE PUSH1 0x20 MSTORE PUSH1 0x40 DUP4 KECCAK256 PUSH1 0xFF NOT DUP2 SLOAD AND SWAP1 SSTORE PUSH32 0xF6391F5C32D9C69D2A47EA670B442974B53935D1EDC7FD64EB21E047A839171B CALLER SWAP4 DUP1 LOG4 PUSH1 0x1 SWAP1 JUMP JUMPDEST ISZERO PUSH2 0x1966 JUMPI JUMP JUMPDEST PUSH1 0x40 MLOAD PUSH3 0x461BCD PUSH1 0xE5 SHL DUP2 MSTORE PUSH1 0x20 PUSH1 0x4 DUP3 ADD MSTORE PUSH1 0x19 PUSH1 0x24 DUP3 ADD MSTORE PUSH25 0x436F6E6669673A2063616C6C6572206973206E6F742044414F PUSH1 0x38 SHL PUSH1 0x44 DUP3 ADD MSTORE PUSH1 0x64 SWAP1 REVERT JUMPDEST PUSH1 0x40 SWAP2 SWAP5 SWAP4 SWAP3 PUSH1 0x60 DUP3 ADD SWAP6 DUP3 MSTORE PUSH1 0x20 DUP3 ADD MSTORE ADD MSTORE JUMP JUMPDEST PUSH1 0x1 PUSH1 0x1 PUSH1 0xA0 SHL SUB SWAP2 DUP3 AND DUP2 MSTORE SWAP2 AND PUSH1 0x20 DUP3 ADD MSTORE PUSH1 0x40 DUP2 ADD SWAP2 SWAP1 SWAP2 MSTORE PUSH1 0x60 ADD SWAP1 JUMP JUMPDEST PUSH1 0xFF AND DUP1 ISZERO PUSH2 0x1A45 JUMPI PUSH1 0x1 DUP2 EQ PUSH2 0x1A3E JUMPI PUSH1 0x2 EQ PUSH2 0x1A38 JUMPI PUSH1 0x40 MLOAD PUSH3 0x461BCD PUSH1 0xE5 SHL DUP2 MSTORE PUSH1 0x20 PUSH1 0x4 DUP3 ADD MSTORE PUSH1 0x19 PUSH1 0x24 DUP3 ADD MSTORE PUSH25 0x21B7B73334B39D1034B73B30B634B2103332B2B2103A34B2B9 PUSH1 0x39 SHL PUSH1 0x44 DUP3 ADD MSTORE PUSH1 0x64 SWAP1 REVERT JUMPDEST PUSH1 0x10 SLOAD SWAP1 JUMP JUMPDEST POP PUSH1 0xF SLOAD SWAP1 JUMP JUMPDEST POP PUSH1 0xE SLOAD SWAP1 JUMP JUMPDEST PUSH1 0xFF PUSH1 0x2B SLOAD AND ISZERO PUSH2 0x1A89 JUMPI PUSH1 0x2A SLOAD SWAP1 DUP2 DUP2 MUL SWAP2 DUP2 DUP4 DIV EQ SWAP1 ISZERO OR ISZERO PUSH2 0x1A73 JUMPI PUSH2 0x2710 SWAP1 DIV SWAP1 JUMP JUMPDEST PUSH4 0x4E487B71 PUSH1 0xE0 SHL PUSH1 0x0 MSTORE PUSH1 0x11 PUSH1 0x4 MSTORE PUSH1 0x24 PUSH1 0x0 REVERT JUMPDEST SWAP1 JUMP INVALID EXTCODESIZE 0x5D 0x4C 0xC6 0xD RETURNDATACOPY 0xC3 MLOAD PUSH15 0xE8AE083BD60934F6EB2A6C54B12299 DUP6 0xC4 SHL 0xFB MULMOD 0x2B 0x26 SUB DUP4 0xBA MSIZE 0xF6 ISZERO PUSH24 0x249BE5E1D5D48F41B4BE728E3DDB0C1B04C988D7CE5205EB 0xB8 0xEC SSTORE NUMBER 0x5D 0xD2 PUSH2 0xA4B9 0xB3 CALLDATASIZE 0x49 PUSH4 0xF7738A7A PUSH7 0x2AD9C84396D64B 0xE3 CALLDATASIZE MSTORE DUP5 0xBB PUSH32 0xA50410B61BF3CF34B0F6C79C91C69ED943EDC5B0DDF8BBEB6B3C98CEB3ECE18 0xA6 0xE1 DUP10 LOG2 PUSH5 0x6970667358 0x22 SLT KECCAK256 PUSH19 0x3C57D0D69CC780781DC9FA831D6282F7BC459D SAR CALLCODE 0x2F 0xAA 0xE1 0xB4 DUP1 COINBASE 0x23 0xA6 CALLDATASIZE STATICCALL PUSH5 0x736F6C6343 STOP ADDMOD EQ STOP CALLER 0x2F DUP8 DUP9 GT PUSH31 0x7EFF1D82E926EC794901D17C78024A50270940304540A733656F0D00000000 "},"methodIdentifiers":{"DAO_ROLE()":"e9c26518","DEFAULT_ADMIN_ROLE()":"a217fddf","GUARDIAN_ROLE()":"24ea54f4","OPERATOR_ROLE()":"f5b541a6","arbitrationFee()":"1cfa7ba8","closingFeedDeadline()":"dfb02536","closingFeedPenaltyRate()":"141b950b","creationFee()":"dce0b4e4","cryptoMarginCallDeadline()":"59c9c8c9","daoShare()":"88d19f1b","defaultArbitrationWindow()":"a98a92fa","defaultDailyLimitPercent()":"eda99994","defaultMarginCallDeadline()":"b028fb76","feedFee_10_7()":"1b30900b","feedFee_5_3()":"e883082f","feedFee_7_5()":"5f9aeb06","feedFeederShare()":"cd96255e","feedPlatformShare()":"1a5632b9","feedProtocolAddress()":"520d6821","foundationShare()":"f72084b2","getArbitrationWindow(bool)":"ab1df29c","getDiscountedFee(uint256)":"b661f733","getFeedFee(uint8)":"e5695991","getMarginCallDeadline(bool)":"1bdd9bc6","getRoleAdmin(bytes32)":"248a9ca3","grantRole(bytes32,address)":"2f2ff15d","growthNodeShare()":"f2588aa9","hasRole(bytes32,address)":"91d14854","initialFeedDeadline()":"c7d7c5fd","initialFeedPenaltyRate()":"2bec66e5","lpPoolShare()":"f5a0c480","maxArbitrationWindow()":"294772e5","maxConsecutiveDays()":"a414e044","maxExerciseDelay()":"f1d814b9","maxMarginCallDeadline()":"4d2b3e12","maxQuotesPerBuyerOrder()":"2f832f34","maxQuotesPerSellerOrder()":"222b9c43","minArbitrationWindow()":"43b8cd8e","minExerciseDelay()":"a6bfbe23","minFeederStake()":"c766d986","minMarginCallDeadline()":"d9fe395e","minMarginRate()":"5d8eb687","nodeRewardShare()":"62f5ad63","nstDiscount()":"16b263c5","nstDiscountEnabled()":"7d790ae1","nstDiscountRate()":"cb10ed01","nstTokenAddress()":"42df038c","optionsCoreAddress()":"41e5ce8e","pause()":"8456cb59","paused()":"5c975abb","pointsManagerAddress()":"0d8bb8ac","pointsMultiplier()":"86cdb33d","quoteValidityPeriod()":"0d42bada","renounceRole(bytes32,address)":"36568abe","revokeRole(bytes32,address)":"d547741f","rfqValidityPeriod()":"4f6bfad7","seatManagerAddress()":"f1c511c4","seatSellerInitialMargin()":"cb3c7b2d","setArbitrationFee(uint256)":"5ea7b4fc","setCreationFee(uint256)":"b7d86225","setFeedProtocolAddress(address)":"4e57e102","setMinFeederStake(uint256)":"e6481bd8","setMinMarginRate(uint256)":"134f6646","setNstDiscountEnabled(bool)":"6e56a57c","setNstDiscountRate(uint256)":"70504cf4","setOptionsCoreAddress(address)":"90ee6d0a","setPointsManagerAddress(address)":"39c02ea4","setQuoteValidityPeriod(uint256)":"e855dd39","setRfqValidityPeriod(uint256)":"43b827ed","setSeatManagerAddress(address)":"570c2a1e","setTradingFeeRate(uint256)":"1091f67c","setUsdtAddress(address)":"0cb46b75","setVaultManagerAddress(address)":"23068ac6","settlementArbitrationWindow()":"48e23ea8","supportsInterface(bytes4)":"01ffc9a7","teamFundShare()":"8f973f85","tokenBuybackShare()":"78dd8b0a","tradingFeeRate()":"e01df1a8","unpause()":"3f4ba83a","usdcAddress()":"02d45457","usdtAddress()":"9ab4a445","vaultManagerAddress()":"3d8b8cb2"}}}}}