{"contracts/core/OptionsCore.sol":{"OptionsCore":{"abi":[{"inputs":[{"internalType":"address","name":"_config","type":"address"},{"internalType":"address","name":"_vaultManager","type":"address"},{"internalType":"address","name":"_usdt","type":"address"},{"internalType":"address","name":"_admin","type":"address"}],"stateMutability":"nonpayable","type":"constructor"},{"inputs":[],"name":"AccessControlBadConfirmation","type":"error"},{"inputs":[{"internalType":"address","name":"account","type":"address"},{"internalType":"bytes32","name":"neededRole","type":"bytes32"}],"name":"AccessControlUnauthorizedAccount","type":"error"},{"inputs":[],"name":"EnforcedPause","type":"error"},{"inputs":[],"name":"ExpectedPause","type":"error"},{"inputs":[],"name":"ReentrancyGuardReentrantCall","type":"error"},{"inputs":[{"internalType":"address","name":"token","type":"address"}],"name":"SafeERC20FailedOperation","type":"error"},{"anonymous":false,"inputs":[{"indexed":true,"internalType":"uint256","name":"orderId","type":"uint256"},{"indexed":true,"internalType":"address","name":"seller","type":"address"},{"indexed":false,"internalType":"uint256","name":"oldAmount","type":"uint256"},{"indexed":false,"internalType":"uint256","name":"newAmount","type":"uint256"},{"indexed":false,"internalType":"string","name":"changeType","type":"string"},{"indexed":false,"internalType":"uint256","name":"timestamp","type":"uint256"}],"name":"MarginChanged","type":"event"},{"anonymous":false,"inputs":[{"indexed":true,"internalType":"uint256","name":"orderId","type":"uint256"},{"indexed":false,"internalType":"string","name":"reason","type":"string"},{"indexed":false,"internalType":"uint256","name":"timestamp","type":"uint256"}],"name":"OrderCancelled","type":"event"},{"anonymous":false,"inputs":[{"indexed":true,"internalType":"uint256","name":"orderId","type":"uint256"},{"indexed":true,"internalType":"address","name":"creator","type":"address"},{"indexed":false,"internalType":"bool","name":"isBuyerOrder","type":"bool"},{"indexed":false,"internalType":"uint256","name":"timestamp","type":"uint256"}],"name":"OrderCreated","type":"event"},{"anonymous":false,"inputs":[{"indexed":true,"internalType":"uint256","name":"orderId","type":"uint256"},{"indexed":false,"internalType":"address","name":"beneficiary","type":"address"},{"indexed":false,"internalType":"uint256","name":"amount","type":"uint256"},{"indexed":false,"internalType":"uint256","name":"timestamp","type":"uint256"}],"name":"OrderLiquidated","type":"event"},{"anonymous":false,"inputs":[{"indexed":true,"internalType":"uint256","name":"orderId","type":"uint256"},{"indexed":true,"internalType":"address","name":"buyer","type":"address"},{"indexed":true,"internalType":"address","name":"seller","type":"address"},{"indexed":false,"internalType":"uint256","name":"timestamp","type":"uint256"}],"name":"OrderMatched","type":"event"},{"anonymous":false,"inputs":[{"indexed":true,"internalType":"uint256","name":"orderId","type":"uint256"},{"indexed":false,"internalType":"uint256","name":"buyerPayout","type":"uint256"},{"indexed":false,"internalType":"uint256","name":"sellerPayout","type":"uint256"},{"indexed":false,"internalType":"uint256","name":"timestamp","type":"uint256"}],"name":"OrderSettled","type":"event"},{"anonymous":false,"inputs":[{"indexed":true,"internalType":"uint256","name":"orderId","type":"uint256"},{"indexed":false,"internalType":"enum OrderStatus","name":"oldStatus","type":"uint8"},{"indexed":false,"internalType":"enum OrderStatus","name":"newStatus","type":"uint8"},{"indexed":false,"internalType":"string","name":"reason","type":"string"},{"indexed":false,"internalType":"uint256","name":"timestamp","type":"uint256"}],"name":"OrderStatusChanged","type":"event"},{"anonymous":false,"inputs":[{"indexed":false,"internalType":"address","name":"account","type":"address"}],"name":"Paused","type":"event"},{"anonymous":false,"inputs":[{"indexed":true,"internalType":"uint256","name":"orderId","type":"uint256"},{"indexed":true,"internalType":"uint256","name":"quoteId","type":"uint256"},{"indexed":true,"internalType":"address","name":"seller","type":"address"},{"indexed":false,"internalType":"uint256","name":"premiumRate","type":"uint256"},{"indexed":false,"internalType":"uint256","name":"timestamp","type":"uint256"}],"name":"QuoteSubmitted","type":"event"},{"anonymous":false,"inputs":[{"indexed":true,"internalType":"bytes32","name":"role","type":"bytes32"},{"indexed":true,"internalType":"bytes32","name":"previousAdminRole","type":"bytes32"},{"indexed":true,"internalType":"bytes32","name":"newAdminRole","type":"bytes32"}],"name":"RoleAdminChanged","type":"event"},{"anonymous":false,"inputs":[{"indexed":true,"internalType":"bytes32","name":"role","type":"bytes32"},{"indexed":true,"internalType":"address","name":"account","type":"address"},{"indexed":true,"internalType":"address","name":"sender","type":"address"}],"name":"RoleGranted","type":"event"},{"anonymous":false,"inputs":[{"indexed":true,"internalType":"bytes32","name":"role","type":"bytes32"},{"indexed":true,"internalType":"address","name":"account","type":"address"},{"indexed":true,"internalType":"address","name":"sender","type":"address"}],"name":"RoleRevoked","type":"event"},{"anonymous":false,"inputs":[{"indexed":false,"internalType":"address","name":"account","type":"address"}],"name":"Unpaused","type":"event"},{"inputs":[],"name":"DEFAULT_ADMIN_ROLE","outputs":[{"internalType":"bytes32","name":"","type":"bytes32"}],"stateMutability":"view","type":"function"},{"inputs":[{"internalType":"uint256","name":"quoteId","type":"uint256"}],"name":"acceptQuote","outputs":[],"stateMutability":"nonpayable","type":"function"},{"inputs":[{"internalType":"uint256","name":"orderId","type":"uint256"},{"internalType":"uint256","name":"amount","type":"uint256"}],"name":"addMargin","outputs":[],"stateMutability":"nonpayable","type":"function"},{"inputs":[{"internalType":"address","name":"","type":"address"},{"internalType":"uint256","name":"","type":"uint256"}],"name":"buyerOrders","outputs":[{"internalType":"uint256","name":"","type":"uint256"}],"stateMutability":"view","type":"function"},{"inputs":[{"internalType":"uint256","name":"orderId","type":"uint256"}],"name":"cancelRFQ","outputs":[],"stateMutability":"nonpayable","type":"function"},{"inputs":[],"name":"config","outputs":[{"internalType":"contract Config","name":"","type":"address"}],"stateMutability":"view","type":"function"},{"inputs":[{"internalType":"string","name":"underlyingName","type":"string"},{"internalType":"string","name":"underlyingCode","type":"string"},{"internalType":"string","name":"market","type":"string"},{"internalType":"string","name":"country","type":"string"},{"internalType":"string","name":"refPrice","type":"string"},{"internalType":"enum Direction","name":"direction","type":"uint8"},{"internalType":"uint256","name":"notionalUSDT","type":"uint256"},{"internalType":"uint256","name":"expiryTimestamp","type":"uint256"},{"internalType":"uint256","name":"maxPremiumRate","type":"uint256"},{"internalType":"uint256","name":"minMarginRate","type":"uint256"},{"internalType":"enum SellerType","name":"acceptedSellerType","type":"uint8"},{"internalType":"address","name":"designatedSeller","type":"address"},{"internalType":"uint256","name":"arbitrationWindow","type":"uint256"},{"internalType":"uint256","name":"marginCallDeadline","type":"uint256"},{"internalType":"bool","name":"dividendAdjustment","type":"bool"}],"name":"createBuyerRFQ","outputs":[{"internalType":"uint256","name":"orderId","type":"uint256"}],"stateMutability":"nonpayable","type":"function"},{"inputs":[{"internalType":"string","name":"underlyingName","type":"string"},{"internalType":"string","name":"underlyingCode","type":"string"},{"internalType":"string","name":"market","type":"string"},{"internalType":"string","name":"country","type":"string"},{"internalType":"string","name":"refPrice","type":"string"},{"internalType":"enum Direction","name":"direction","type":"uint8"},{"internalType":"uint256","name":"notionalUSDT","type":"uint256"},{"internalType":"uint256","name":"expiryTimestamp","type":"uint256"},{"internalType":"uint256","name":"premiumRate","type":"uint256"},{"internalType":"uint256","name":"marginAmount","type":"uint256"},{"internalType":"enum LiquidationRule","name":"liquidationRule","type":"uint8"},{"internalType":"uint8","name":"consecutiveDays","type":"uint8"},{"internalType":"uint8","name":"dailyLimitPercent","type":"uint8"},{"internalType":"uint256","name":"arbitrationWindow","type":"uint256"},{"internalType":"bool","name":"dividendAdjustment","type":"bool"}],"name":"createSellerOrder","outputs":[{"internalType":"uint256","name":"orderId","type":"uint256"}],"stateMutability":"nonpayable","type":"function"},{"inputs":[{"internalType":"uint256","name":"orderId","type":"uint256"}],"name":"earlyExercise","outputs":[],"stateMutability":"nonpayable","type":"function"},{"inputs":[{"internalType":"uint256","name":"orderId","type":"uint256"}],"name":"forceLiquidate","outputs":[],"stateMutability":"nonpayable","type":"function"},{"inputs":[{"internalType":"address","name":"buyer","type":"address"}],"name":"getBuyerOrders","outputs":[{"internalType":"uint256[]","name":"","type":"uint256[]"}],"stateMutability":"view","type":"function"},{"inputs":[{"internalType":"uint256","name":"orderId","type":"uint256"}],"name":"getOrder","outputs":[{"components":[{"internalType":"uint256","name":"orderId","type":"uint256"},{"internalType":"address","name":"buyer","type":"address"},{"internalType":"address","name":"seller","type":"address"},{"internalType":"string","name":"underlyingName","type":"string"},{"internalType":"string","name":"underlyingCode","type":"string"},{"internalType":"string","name":"market","type":"string"},{"internalType":"string","name":"country","type":"string"},{"internalType":"string","name":"refPrice","type":"string"},{"internalType":"enum Direction","name":"direction","type":"uint8"},{"internalType":"uint256","name":"notionalUSDT","type":"uint256"},{"internalType":"uint256","name":"strikePrice","type":"uint256"},{"internalType":"uint256","name":"expiryTimestamp","type":"uint256"},{"internalType":"uint256","name":"premiumRate","type":"uint256"},{"internalType":"uint256","name":"premiumAmount","type":"uint256"},{"internalType":"uint256","name":"initialMargin","type":"uint256"},{"internalType":"uint256","name":"currentMargin","type":"uint256"},{"internalType":"uint256","name":"minMarginRate","type":"uint256"},{"internalType":"enum LiquidationRule","name":"liquidationRule","type":"uint8"},{"internalType":"uint8","name":"consecutiveDays","type":"uint8"},{"internalType":"uint8","name":"dailyLimitPercent","type":"uint8"},{"internalType":"uint8","name":"exerciseDelay","type":"uint8"},{"internalType":"enum SellerType","name":"sellerType","type":"uint8"},{"internalType":"address","name":"designatedSeller","type":"address"},{"internalType":"uint256","name":"arbitrationWindow","type":"uint256"},{"internalType":"uint256","name":"marginCallDeadline","type":"uint256"},{"internalType":"bool","name":"dividendAdjustment","type":"bool"},{"internalType":"enum FeedRule","name":"feedRule","type":"uint8"},{"internalType":"enum OrderStatus","name":"status","type":"uint8"},{"internalType":"uint256","name":"createdAt","type":"uint256"},{"internalType":"uint256","name":"matchedAt","type":"uint256"},{"internalType":"uint256","name":"settledAt","type":"uint256"},{"internalType":"uint256","name":"lastFeedPrice","type":"uint256"}],"internalType":"struct Order","name":"","type":"tuple"}],"stateMutability":"view","type":"function"},{"inputs":[{"internalType":"string","name":"country","type":"string"}],"name":"getOrdersByCountry","outputs":[{"internalType":"uint256[]","name":"","type":"uint256[]"}],"stateMutability":"view","type":"function"},{"inputs":[{"internalType":"string","name":"market","type":"string"}],"name":"getOrdersByMarket","outputs":[{"internalType":"uint256[]","name":"","type":"uint256[]"}],"stateMutability":"view","type":"function"},{"inputs":[{"internalType":"uint256","name":"orderId","type":"uint256"}],"name":"getQuotes","outputs":[{"components":[{"internalType":"uint256","name":"quoteId","type":"uint256"},{"internalType":"uint256","name":"orderId","type":"uint256"},{"internalType":"address","name":"seller","type":"address"},{"internalType":"enum SellerType","name":"sellerType","type":"uint8"},{"internalType":"uint256","name":"premiumRate","type":"uint256"},{"internalType":"uint256","name":"premiumAmount","type":"uint256"},{"internalType":"uint256","name":"marginRate","type":"uint256"},{"internalType":"uint256","name":"marginAmount","type":"uint256"},{"internalType":"enum LiquidationRule","name":"liquidationRule","type":"uint8"},{"internalType":"uint8","name":"consecutiveDays","type":"uint8"},{"internalType":"uint8","name":"dailyLimitPercent","type":"uint8"},{"internalType":"uint256","name":"createdAt","type":"uint256"},{"internalType":"uint256","name":"expiresAt","type":"uint256"},{"internalType":"enum QuoteStatus","name":"status","type":"uint8"}],"internalType":"struct Quote[]","name":"","type":"tuple[]"}],"stateMutability":"view","type":"function"},{"inputs":[{"internalType":"bytes32","name":"role","type":"bytes32"}],"name":"getRoleAdmin","outputs":[{"internalType":"bytes32","name":"","type":"bytes32"}],"stateMutability":"view","type":"function"},{"inputs":[{"internalType":"address","name":"seller","type":"address"}],"name":"getSellerOrders","outputs":[{"internalType":"uint256[]","name":"","type":"uint256[]"}],"stateMutability":"view","type":"function"},{"inputs":[{"internalType":"bytes32","name":"role","type":"bytes32"},{"internalType":"address","name":"account","type":"address"}],"name":"grantRole","outputs":[],"stateMutability":"nonpayable","type":"function"},{"inputs":[{"internalType":"bytes32","name":"role","type":"bytes32"},{"internalType":"address","name":"account","type":"address"}],"name":"hasRole","outputs":[{"internalType":"bool","name":"","type":"bool"}],"stateMutability":"view","type":"function"},{"inputs":[{"internalType":"uint256","name":"orderId","type":"uint256"}],"name":"initiateArbitration","outputs":[],"stateMutability":"payable","type":"function"},{"inputs":[],"name":"nextOrderId","outputs":[{"internalType":"uint256","name":"","type":"uint256"}],"stateMutability":"view","type":"function"},{"inputs":[],"name":"nextQuoteId","outputs":[{"internalType":"uint256","name":"","type":"uint256"}],"stateMutability":"view","type":"function"},{"inputs":[{"internalType":"uint256","name":"","type":"uint256"},{"internalType":"uint256","name":"","type":"uint256"}],"name":"orderQuotes","outputs":[{"internalType":"uint256","name":"quoteId","type":"uint256"},{"internalType":"uint256","name":"orderId","type":"uint256"},{"internalType":"address","name":"seller","type":"address"},{"internalType":"enum SellerType","name":"sellerType","type":"uint8"},{"internalType":"uint256","name":"premiumRate","type":"uint256"},{"internalType":"uint256","name":"premiumAmount","type":"uint256"},{"internalType":"uint256","name":"marginRate","type":"uint256"},{"internalType":"uint256","name":"marginAmount","type":"uint256"},{"internalType":"enum LiquidationRule","name":"liquidationRule","type":"uint8"},{"internalType":"uint8","name":"consecutiveDays","type":"uint8"},{"internalType":"uint8","name":"dailyLimitPercent","type":"uint8"},{"internalType":"uint256","name":"createdAt","type":"uint256"},{"internalType":"uint256","name":"expiresAt","type":"uint256"},{"internalType":"enum QuoteStatus","name":"status","type":"uint8"}],"stateMutability":"view","type":"function"},{"inputs":[{"internalType":"uint256","name":"","type":"uint256"}],"name":"orders","outputs":[{"internalType":"uint256","name":"orderId","type":"uint256"},{"internalType":"address","name":"buyer","type":"address"},{"internalType":"address","name":"seller","type":"address"},{"internalType":"string","name":"underlyingName","type":"string"},{"internalType":"string","name":"underlyingCode","type":"string"},{"internalType":"string","name":"market","type":"string"},{"internalType":"string","name":"country","type":"string"},{"internalType":"string","name":"refPrice","type":"string"},{"internalType":"enum Direction","name":"direction","type":"uint8"},{"internalType":"uint256","name":"notionalUSDT","type":"uint256"},{"internalType":"uint256","name":"strikePrice","type":"uint256"},{"internalType":"uint256","name":"expiryTimestamp","type":"uint256"},{"internalType":"uint256","name":"premiumRate","type":"uint256"},{"internalType":"uint256","name":"premiumAmount","type":"uint256"},{"internalType":"uint256","name":"initialMargin","type":"uint256"},{"internalType":"uint256","name":"currentMargin","type":"uint256"},{"internalType":"uint256","name":"minMarginRate","type":"uint256"},{"internalType":"enum LiquidationRule","name":"liquidationRule","type":"uint8"},{"internalType":"uint8","name":"consecutiveDays","type":"uint8"},{"internalType":"uint8","name":"dailyLimitPercent","type":"uint8"},{"internalType":"uint8","name":"exerciseDelay","type":"uint8"},{"internalType":"enum SellerType","name":"sellerType","type":"uint8"},{"internalType":"address","name":"designatedSeller","type":"address"},{"internalType":"uint256","name":"arbitrationWindow","type":"uint256"},{"internalType":"uint256","name":"marginCallDeadline","type":"uint256"},{"internalType":"bool","name":"dividendAdjustment","type":"bool"},{"internalType":"enum FeedRule","name":"feedRule","type":"uint8"},{"internalType":"enum OrderStatus","name":"status","type":"uint8"},{"internalType":"uint256","name":"createdAt","type":"uint256"},{"internalType":"uint256","name":"matchedAt","type":"uint256"},{"internalType":"uint256","name":"settledAt","type":"uint256"},{"internalType":"uint256","name":"lastFeedPrice","type":"uint256"}],"stateMutability":"view","type":"function"},{"inputs":[],"name":"pause","outputs":[],"stateMutability":"nonpayable","type":"function"},{"inputs":[],"name":"paused","outputs":[{"internalType":"bool","name":"","type":"bool"}],"stateMutability":"view","type":"function"},{"inputs":[{"internalType":"uint256","name":"","type":"uint256"}],"name":"quotes","outputs":[{"internalType":"uint256","name":"quoteId","type":"uint256"},{"internalType":"uint256","name":"orderId","type":"uint256"},{"internalType":"address","name":"seller","type":"address"},{"internalType":"enum SellerType","name":"sellerType","type":"uint8"},{"internalType":"uint256","name":"premiumRate","type":"uint256"},{"internalType":"uint256","name":"premiumAmount","type":"uint256"},{"internalType":"uint256","name":"marginRate","type":"uint256"},{"internalType":"uint256","name":"marginAmount","type":"uint256"},{"internalType":"enum LiquidationRule","name":"liquidationRule","type":"uint8"},{"internalType":"uint8","name":"consecutiveDays","type":"uint8"},{"internalType":"uint8","name":"dailyLimitPercent","type":"uint8"},{"internalType":"uint256","name":"createdAt","type":"uint256"},{"internalType":"uint256","name":"expiresAt","type":"uint256"},{"internalType":"enum QuoteStatus","name":"status","type":"uint8"}],"stateMutability":"view","type":"function"},{"inputs":[{"internalType":"bytes32","name":"role","type":"bytes32"},{"internalType":"address","name":"callerConfirmation","type":"address"}],"name":"renounceRole","outputs":[],"stateMutability":"nonpayable","type":"function"},{"inputs":[{"internalType":"uint256","name":"orderId","type":"uint256"},{"internalType":"enum FeedTier","name":"tier","type":"uint8"}],"name":"requestFeed","outputs":[],"stateMutability":"payable","type":"function"},{"inputs":[{"internalType":"bytes32","name":"role","type":"bytes32"},{"internalType":"address","name":"account","type":"address"}],"name":"revokeRole","outputs":[],"stateMutability":"nonpayable","type":"function"},{"inputs":[{"internalType":"address","name":"","type":"address"},{"internalType":"uint256","name":"","type":"uint256"}],"name":"sellerOrders","outputs":[{"internalType":"uint256","name":"","type":"uint256"}],"stateMutability":"view","type":"function"},{"inputs":[{"internalType":"address","name":"_config","type":"address"}],"name":"setConfig","outputs":[],"stateMutability":"nonpayable","type":"function"},{"inputs":[{"internalType":"address","name":"_vaultManager","type":"address"}],"name":"setVaultManager","outputs":[],"stateMutability":"nonpayable","type":"function"},{"inputs":[{"internalType":"uint256","name":"orderId","type":"uint256"}],"name":"settle","outputs":[],"stateMutability":"nonpayable","type":"function"},{"inputs":[{"internalType":"uint256","name":"orderId","type":"uint256"},{"internalType":"uint256","name":"premiumRate","type":"uint256"},{"internalType":"uint256","name":"marginRate","type":"uint256"},{"internalType":"enum LiquidationRule","name":"liquidationRule","type":"uint8"},{"internalType":"uint8","name":"consecutiveDays","type":"uint8"},{"internalType":"uint8","name":"dailyLimitPercent","type":"uint8"}],"name":"submitQuote","outputs":[{"internalType":"uint256","name":"quoteId","type":"uint256"}],"stateMutability":"nonpayable","type":"function"},{"inputs":[{"internalType":"bytes4","name":"interfaceId","type":"bytes4"}],"name":"supportsInterface","outputs":[{"internalType":"bool","name":"","type":"bool"}],"stateMutability":"view","type":"function"},{"inputs":[],"name":"unpause","outputs":[],"stateMutability":"nonpayable","type":"function"},{"inputs":[],"name":"usdt","outputs":[{"internalType":"contract IERC20","name":"","type":"address"}],"stateMutability":"view","type":"function"},{"inputs":[],"name":"vaultManager","outputs":[{"internalType":"contract VaultManager","name":"","type":"address"}],"stateMutability":"view","type":"function"},{"inputs":[{"internalType":"uint256","name":"orderId","type":"uint256"},{"internalType":"uint256","name":"amount","type":"uint256"}],"name":"withdrawExcessMargin","outputs":[],"stateMutability":"nonpayable","type":"function"}],"evm":{"bytecode":{"linkReferences":{},"object":"608034620000f557601f62004e9038819003918201601f19168301916001600160401b03831184841017620000fa57808492608094604052833981010312620000f5578062000052620000e49262000110565b90620000616020820162000110565b906200007e6060620000766040840162000110565b920162000110565b6001808055600581905560065560028054610100600160a81b03191660089590951b610100600160a81b031694909417909355600380546001600160a01b03199081166001600160a01b0394851617909155600480549091169190921617905562000125565b50604051614cd99081620001b78239f35b600080fd5b634e487b7160e01b600052604160045260246000fd5b51906001600160a01b0382168203620000f557565b6001600160a01b031660008181527fad3228b676f7d3cd4284a5443f17f1962b36e491b30a40b2405849e597ba5fb5602052604081205490919060ff16620001b257818052816020526040822081835260205260408220600160ff1982541617905533917f2f8788117e7eff1d82e926ec794901d17c78024a50270940304540a733656f0d8180a4600190565b509056fe61024080604052600436101561001457600080fd5b600090813560e01c90816301ffc9a714614243575080631773a1c1146138e457806320e3dbd41461389a578063248a9ca31461386e5780632a58b330146138505780632f2ff15d146138135780632f48ab7d146137ea57806336568abe146137a25780633f4ba83a146137375780634500cb60146136ef57806345cb45051461369957806346f8226c146134be5780634efef6aa146134a05780635c975abb1461347d5780635d7ffe7b14612f9c5780636af58cff14612d0e5780636ca1438914612be25780636dbe757914612b1a5780637203a5821461254c57806379502c551461251f5780637d900421146124925780638456cb59146124375780638a4adf241461240e5780638df8280014611eef57806391d1485414611ea4578063a217fddf14611e88578063a45f2ebc14611e15578063a61cf0d414611d82578063a85c38ef14611a2c578063b543503e146119e7578063bc0ef26b14611823578063cf3fec4314611796578063d049bfef14611531578063d09ef24114611014578063d1e745b114610e29578063d41194b814610cab578063d547741f14610c6a578063e1fc634114610309578063e4cbac40146102865763f7ff6426146101da57600080fd5b34610283576101e8366145c2565b908252600860205260408220805482101561027f5761020792506145d8565b5080549061027b600182015460028301549260038101549460048201549260058301549160068401549060078501549160088601549460ff600a600989015498015416976040519b8c9b8c60ff8860101c169860ff808a60081c1699169760ff8460a01c169360018060a01b031692614381565b0390f35b8280fd5b80fd5b503461028357602080600319360112610305576001600160a01b036102a96142c5565b168252600b815260408220916040518092808554928381520194835280832092905b8282106102ee5761027b856102e2818903826144a6565b6040519182918261432f565b8354865294850194600193840193909101906102cb565b5080fd5b5034610283576101e0366003190112610283576004356001600160401b0381116103055761033b903690600401614298565b90916024356001600160401b0381116103055761035c903690600401614298565b93906044356001600160401b038111610c665761037d903690600401614298565b906064356001600160401b038111610c625761039d903690600401614298565b90946084356001600160401b038111610c5e576103be903690600401614298565b600260a4351015610c5a576003610144351015610c5a5760ff61016435166101643503610c425760ff61018435166101843503610c42576103fd6142f1565b916104066149c1565b61040e6149a3565b61041b60c4351515614765565b6104284260e435116147c0565b600480546003546002546040516337382d3960e21b8152936001600160a01b039384169392831692602092869291839160081c165afa918215610c4f578d92610c14575b610478935033906148fc565b61012435610bec575b6005549a61048e8c614865565b6005558b8b52600760205260408b208c81556002810180546001600160a01b03191633179055946001600160401b038211610bd85781906104d2600388015461440b565b601f8111610b87575b508c90601f8311600114610b1b578d92610b10575b50508160011b916000199060031b1c19161760038501555b6001600160401b038c116108c657610523600485015461440b565b601f8111610aca575b508b8a601f8211600114610a5b578b91610a50575b5060001960038e901b1c191660018d901b1760048501555b6001600160401b0387116108c657610574600585015461440b565b601f8111610a0b575b50868a601f82116001146109a1578b91610996575b508760011b906000198960031b1c19161760058501555b6001600160401b0385116108c6576105c4600685015461440b565b601f8111610951575b50848a601f82116001146108e5578b916108da575b508560011b906000198760031b1c19161760068501555b6001600160401b0382116108c657610614600785015461440b565b601f8111610881575b509260209b9694928a928c9997958490601f83116001146107d557958f61078c9d6107448e60408a859f9e9b9a6107749e9a8a859f9b869b8a9f9d61075c9e926107ca575b50508160011b916000199060031b1c19161760078301555b61068960a4356008840161488a565b60c435600983015560e435600b8301556127106106b16101043580600c86015560c435614a33565b04600d83015561012435600e83015561012435600f830155610704601183016106dd6101443582614a29565b805462ff00006101843560101b1662ffff001990911661ff006101643560081b1617179055565b6101a43560128301556107276014830191829060ff801983541691151516179055565b62ff0000198154169055601542910155338152600b8652206148c7565b8260405193849283378101600c8152030190206148c7565b8260405193849283378101600d8152030190206148c7565b8260405193849283378101600e8152030190206148c7565b6040519081524283820152817fc0c6ed2669febbe340d8737e8ec17254ffd9e038b54a4585ff70ac3ca18956aa60403393a360018055604051908152f35b013590503880610662565b9b94939291906007840185528f852090855b601f198416811061084f575060209a999661074461078c9f8f9a948e996107749d9961075c9960018f9a6040958f9a978d9883601f19811610610835575b505050811b01600783015561067a565b0135600019600384901b60f8161c19169055388080610825565b9295509396989a9c929597999b508f600181928686013581550194019101928d94918f9c9a9896939d9b9997946107e7565b600785018b5260208b20601f840160051c8101602085106108bf575b601f830160051c820181106108b357505061061d565b6000815560010161089d565b508061089d565b634e487b7160e01b8a52604160045260248afd5b9050890135386105e2565b600686018c5260208c2091508b5b8b601f198916821061093957505086601f1981161061091f575b5050600185811b0160068501556105f9565b8a0135600019600388901b60f8161c19169055388061090d565b600183946020939484930135815501930191016108f3565b600685018b5260208b20601f870160051c81016020881061098f575b601f830160051c820181106109835750506105cd565b6000815560010161096d565b508061096d565b905086013538610592565b600586018c5260208c2091508b5b601f198a1681106109f3575088601f198116106109d9575b5050600187811b0160058501556105a9565b87013560001960038a901b60f8161c1916905538806109c7565b9091602060018192858c0135815501930191016109af565b600585018b5260208b20601f890160051c810160208a10610a49575b601f830160051c82018110610a3d57505061057d565b60008155600101610a27565b5080610a27565b905088013538610541565b600486018c5260208c2091508b8e5b8b601f1982168310610ab05750601f198116109050610a96575b505060018c811b016004850155610559565b89013560001960038f901b60f8161c191690553880610a84565b600184956020939495849301358155019401920190610a6a565b600485018b5260208b208d6020601f820160051c83019110610b09575b601f830160051c82018110610afd57505061052c565b60008155600101610ae7565b5080610ae7565b0135905038806104f0565b600388018e5260208e208e9450915b601f1984168510610b6f576001945083601f19811610610b55575b505050811b016003850155610508565b0135600019600384901b60f8161c19169055388080610b45565b81810135835560209485019460019093019201610b2a565b909150600387018d5260208d20601f840160051c810160208510610bd1575b90849392915b601f830160051c82018110610bc25750506104db565b60008155859450600101610bac565b5080610ba6565b634e487b7160e01b8c52604160045260248cfd5b600454600354610c0f9161012435916001600160a01b03908116913391166148fc565b610481565b91506020833d602011610c47575b81610c2f602093836144a6565b81010312610c425761047892519161046c565b600080fd5b3d9150610c22565b6040513d8f823e3d90fd5b8880fd5b8780fd5b8580fd5b8380fd5b503461028357604036600319011261028357610ca7600435610c8a6142db565b9080845283602052610ca2600160408620015461464c565b6146f0565b5080f35b503461028357610cba366145c2565b9080151580610e1e575b610ccd90614a73565b808352600760205260408320600201546001600160a01b039290610cf49084163314614bcd565b610cfc6149c1565b610d046149a3565b8015610dcd5781845260076020526040842060ff601482015460101c16600b811015610db957610d5e91610d3c6004600f9314614c19565b0191610d5781845496806004541690600354169033906148fc565b8254614a66565b809155604051928352602083015260806040830152600360808301526218591960ea1b60a08301524260608301527f2cf5022bdd8fefe86d09412967e028fa9a8cf1e1a3989d47dfd9fc64a22afa8660c03393a36001805580f35b634e487b7160e01b86526021600452602486fd5b60405162461bcd60e51b8152602060048201526024808201527f4f7074696f6e73436f72653a20616d6f756e74206d75737420626520706f73696044820152637469766560e01b6064820152608490fd5b506005548110610cc4565b503461028357610e38366145c2565b9080151580611009575b610e4b90614a73565b808352600760205260408320600201546001600160a01b0390610e719082163314614bcd565b610e796149c1565b610e816149a3565b8184526007602052604084209260ff601485015460101c16600b811015610db9576004610eae9114614c19565b600f840191610ec3600e845496015486614c65565b8211610faa5781610ed5879387614c65565b84558160035416916004541690823b15610c6657604051636924faa760e11b81523360048201526001600160a01b0392909216602483015260448201529082908290606490829084905af18015610f9f57610f8b575b5050546040519283526020830152608060408301526008608083015267776974686472617760c01b60a08301524260608301527f2cf5022bdd8fefe86d09412967e028fa9a8cf1e1a3989d47dfd9fc64a22afa8660c03393a36001805580f35b610f9490614477565b610c66578338610f2b565b6040513d84823e3d90fd5b60405162461bcd60e51b815260206004820152603160248201527f4f7074696f6e73436f72653a2063616e6e6f742077697468647261772062656c60448201527037bb9034b734ba34b0b61036b0b933b4b760791b6064820152608490fd5b506005548110610e42565b503461028357602036600319011261028357806103e06040516110368161448a565b82815282602082015282604082015260608082015260606080820152606060a0820152606060c0820152606060e08201528261010082015282610120820152826101408201528261016082015282610180820152826101a0820152826101c0820152826101e08201528261020082015282610220820152826102408201528261026082015282610280820152826102a0820152826102c0820152826102e08201528261030082015282610320820152826103408201528261036082015282610380820152826103a0820152826103c082015201526004358152600760205260408120604051916111258361448a565b8154835260018201546001600160a01b0390811660208501526002830154166040840152611155600383016144c7565b6060840152611166600483016144c7565b6080840152611177600583016144c7565b60a0840152611188600683016144c7565b60c0840152611199600783016144c7565b60e084015260ff6008830154166111af816145ab565b6101008401526009820154610120840152600a820154610140840152600b820154610160840152600c820154610180840152600d8201546101a0840152600e8201546101c0840152600f8201546101e08401526010820154610200840152601182015461121e60ff821661436a565b60ff811661022085015260ff8160081c1661024085015260ff8160101c1661026085015260ff8160181c1661028085015261125e60ff8260201c1661436a565b60ff8160201c166102a085015260018060a01b039060281c166102c084015260128201546102e0840152601382015461030084015260148201549060ff821615156103208501526112b460ff8360081c166145ab565b60ff8260081c16610340850152600b60ff8360101c16101561151d57509060ff60189260101c16610360840152601581015461038084015260168101546103a084015260178101546103c084015201546103e08201526040518091602082528051602083015260018060a01b03602082015116604083015260018060a01b0360408201511660608301526103e06113bf61135f6060840151610400608087015261042086019061456b565b6113a9611395611381608087015193601f1994858a83030160a08b015261456b565b60a0870151848983030160c08a015261456b565b60c0860151838883030160e089015261456b565b9060e0850151908683030161010087015261456b565b916101008101516113cf816145ab565b6101208501526101208101516101408501526101408101516101608501526101608101516101808501526101808101516101a08501526101a08101516101c08501526101c08101516101e08501526101e08101516102008501526102008101516102208501526102208101516114448161436a565b61024085015260ff6102408201511661026085015260ff6102608201511661028085015260ff610280820151166102a08501526102a08101516114868161436a565b6102c085015260018060a01b036102c0820151166102e08501526102e081015161030085015261030081015161032085015261032081015115156103408501526103408101516114d5816145ab565b6103608501526114ef6103608201516103808601906145b5565b6103808101516103a08501526103a08101516103c08501526103c08101518285015201516104008301520390f35b634e487b7160e01b81526021600452602490fd5b50346102835760209081600319360112610283576004358152600880835260408220928354916001600160401b038311611782579184919260405191600561157d8683831b01856144a6565b818452858401809588528688209188915b84831061168a575050505050506040519280840191818552518092526040840192945b8281106115be5784840385f35b909192826101c060019261167b8951805183528481015185840152858060a01b036040820151166040840152606080820151906115fa8261436a565b8401526080808201519084015260a0808201519084015260c0808201519084015260e081015160e084015261010080820151906116368261436a565b84015260ff6101208181840151169085015261014090818301511690840152610160808201519084015261018080820151908401526101a08091015190830190614374565b019601910194929190946115b1565b604099989697995161169b81614445565b8454815260018501548882015260028501546001600160a01b038116604083015260ff9060a090811c82166116cf8161436a565b6060840152600387015460808401526004870154908301528386015460c0830152600686015460e083015280600787015481811661170c8161436a565b61010085015281818b1c1661012085015260101c16610140830152878601546101608301526009860154610180830152600a86015416600481101561176c57600192828a926101a0600b950152815201940192019192989695979861158e565b634e487b7160e01b600052602160045260246000fd5b634e487b7160e01b84526041600452602484fd5b503461028357602080600319360112610305576004356001600160401b03811161027f576117c982913690600401614298565b91908260405193849283378101600c815203019020916040518092808554928381520194835280832092905b82821061180c5761027b856102e2818903826144a6565b8354865294850194600193840193909101906117f5565b5034610283576020806003193601126103055760043590811515806119dc575b61184c90614a73565b8183526007815261186d60018060a01b0360016040862001541633146149e4565b6118756149c1565b61187d6149a3565b81835260078152601460408420019081549160ff8360101c1692600b841015610db957831580156119d2575b1561197e5791600a91620a0000600080516020614c84833981519152959462ff00001916179055847fb848a62ef7171019d243ed8f5b8e1e6c32cafed0b7fc99da26cb2fc2e7d533ec604051604081528061192460408201604090600f81526e189d5e595c8818d85b98d95b1b1959608a1b60208201520190565b42868301520390a261193960405180946145b5565b820152608060408201528061196e60808201604090600f81526e189d5e595c8818d85b98d95b1b1959608a1b60208201520190565b4260608301520390a26001805580f35b60405162461bcd60e51b815260048101849052602660248201527f4f7074696f6e73436f72653a2063616e6e6f742063616e63656c206166746572604482015265040dac2e8c6d60d31b6064820152608490fd5b50600184146118a9565b506005548210611843565b503461028357602036600319011261028357611a016142c5565b611a096145f4565b60018060a01b03166bffffffffffffffffffffffff60a01b600354161760035580f35b50346102835760203660031901126102835760043581526007602052604090206102208190528054608052600181015460028201546001600160a01b0390811660a0521690611a7d906003016144c7565b6101205261022051600401611a91906144c7565b61022051600501611aa1906144c7565b9161022051600601611ab2906144c7565b9161022051600701611ac3906144c7565b936102205193600885015460ff1661020052600985015495600a860154600b87015491600c88015493600d89015495600e8a015497600f8b01549960108c01549b60118101546101605260128101546101405260138101546101a052601481015461018052601581015460e05260168101546101005260178101546101c0526018015460c052604051806101e05260805190526101e0516020015260a0516101e05160400152610400806101e051606001526101e051016101205190611b889161456b565b6101e0518082039060800152611b9d9161456b565b6101e0518082039060a00152611bb29161456b565b6101e0518082039060c00152611bc79161456b565b6101e0518082039060e00152611bdc9161456b565b9761020051611bea906145ab565b610200516101e05161010001526101e05161012001526101e05161014001526101e05161016001526101e05161018001526101e0516101a001526101e0516101c001526101e0516101e001526101e05161020001526101605160ff16611c4f9061436a565b6101605160ff166101e05161022001526101605160081c60ff166101e05161024001526101605160101c60ff166101e05161026001526101605160181c60ff166101e05161028001526101605160201c60ff16611cab9061436a565b6101605160201c60ff166101e0516102a00152600160a01b600190036101605160281c166101e0516102c00152610140516101e0516102e001526101a0516101e05161030001526101805160ff1615156101e05161032001526101805160081c60ff16611d17906145ab565b6101805160081c60ff166101e05161034001526101e051610360016101805160101c60ff1690611d46916145b5565b60e0516101e0516103800152610100516101e0516103a001526101c0516101e0516103c0015260c0516101e0516103e001526101e05180910390f35b503461028357602036600319011261028357604090600435815260096020522080549061027b600182015460028301549260038101549460048201549260058301549160068401549060078501549160088601549460ff600a600989015498015416976040519b8c9b8c60ff8860101c169860ff808a60081c1699169760ff8460a01c169360018060a01b031692614381565b503461028357602080600319360112610305576001600160a01b03611e386142c5565b168252600a815260408220916040518092808554928381520194835280832092905b828210611e715761027b856102e2818903826144a6565b835486529485019460019384019390910190611e5a565b5034610283578060031936011261028357602090604051908152f35b5034610283576040366003190112610283576040611ec06142db565b91600435815280602052209060018060a01b0316600052602052602060ff604060002054166040519015158152f35b503461028357602036600319011261028357600435151580612401575b611f1590614a73565b611f1d6149c1565b611f256149a3565b6004358152600760205260408120601481019060ff825460101c16600b8110156123ed5760060361239c57601881015491821561235757611f68600783016144c7565b93809481938293835b835181101561207a576001600160f81b0319601760f91b81611f938488614c72565b51161461206c57600360fc1b81611faa8488614c72565b511610159081612051575b50611fc9575b611fc490614865565b611f71565b88600a81999897990204600a148915171561203d57602f19611feb8286614c72565b5160f81c0160ff8111612029578899600a60ff61200e939b999a9b169102614a66565b9815611fbb5795612021611fc491614865565b969050611fbb565b634e487b7160e01b86526011600452602486fd5b634e487b7160e01b85526011600452602485fd5b603960f81b91506120628387614c72565b5116111538611fb5565b509450611fc4600195614865565b8483838a8c8b60128110612330575b50849160ff60088601541661209d816145ab565b612308578181116122df575b50505b8381156122d25750600f830154908181116122cb575b806120cd9192614c65565b925b81612219575b8361218b575b9060ff9383926121439454936208000062ff000019861617905560174291015560405191825260208201524260408201527f6da40291eeb646b436d05c420b5b9f010d81df95bce846d2c3b3d45f56df19ec606060043592a260405192839160101c166145b5565b600860208201526080604082015260076080820152661cd95d1d1b195960ca1b60a0820152426060820152600080516020614c8483398151915260c060043592a26001805580f35b600354600282015460045487926001600160a01b03908116929181169116823b15610c6657604051636924faa760e11b81526001600160a01b03918216600482015291166024820152604481018790529082908290606490829084905af18015610f9f576121fb575b50506120db565b6122089094939294614477565b61221557909184866121f4565b8480fd5b600354600282015460018301546004546001600160a01b03908116938993928216929082169116813b15610c66578360e49260405196879586946305fe3a8b60e31b865260048601526024850152604484015288606484015260a06084840152601160a4840152701cd95d1d1b195b595b9d081c185e5bdd5d607a1b60c48401525af180156122c0576122ad575b506120d5565b6122b990959195614477565b93856122a7565b6040513d88823e3d90fd5b50806120c2565b9050600f830154926120cf565b61230192506122f1826122fc92614c65565b600986015490614a33565b614a46565b84806120a9565b808211612317575b50506120ac565b61232992506122f16122fc9183614c65565b8480612310565b6012036012811161202957604d8111612029579061235191600a0a90614a33565b85612089565b60405162461bcd60e51b815260206004820152601a60248201527f4f7074696f6e73436f72653a206e6f20666565642070726963650000000000006044820152606490fd5b60405162461bcd60e51b815260206004820152602360248201527f4f7074696f6e73436f72653a206e6f742070656e64696e6720736574746c656d604482015262195b9d60ea1b6064820152608490fd5b634e487b7160e01b84526021600452602484fd5b5060055460043510611f0c565b50346102835780600319360112610283576003546040516001600160a01b039091168152602090f35b50346102835780600319360112610283576124506145f4565b6124586149a3565b600160ff1960025416176002557f62e78cea01bee320cd4e420270b5ea74000d11b0c9f74754ebdbfc544b05a2586020604051338152a180f35b503461028357602080600319360112610305576004356001600160401b03811161027f576124c582913690600401614298565b91908260405193849283378101600d815203019020916040518092808554928381520194835280832092905b8282106125085761027b856102e2818903826144a6565b8354865294850194600193840193909101906124f1565b503461028357806003193601126102835760025460405160089190911c6001600160a01b03168152602090f35b50346102835760c036600319011261028357600360643510156102835760843560ff811681036103055760a43560ff8116810361027f57600435151580612b0d575b61259790614a73565b61259f6149c1565b6125a76149a3565b60043583526007602052604083209060ff601483015460101c16600b811015612883578015908115612b02575b5015612aad5760018201546001600160a01b031615612a68576015820154600254604051634f6bfad760e01b815260089190911c6001600160a01b031691602082600481865afa908115612a5d578791612a23575b6126339250614a66565b4210156129de57600490813586526008602052602060408720549160405193848092630be0cbcd60e21b82525afa9182156122c05786926129aa575b501015612965576011820154600260ff8260201c1661268d8161436a565b146128fd575b506127106126a76044356009850154614a33565b046126ba6010840154604435101561481a565b6004546003546126da9183916001600160a01b03908116913391166148fc565b600654936126e785614865565b6006556127106126fd6024356009870154614a33565b04926004602060018060a01b0360025460081c16604051928380926306a15d6d60e11b82525afa9081156128f25788916128bf575b5060ff92612741849242614a66565b946040519661274f88614445565b89885260043560208901523360408901528a6060890152602435608089015260a088015260443560c088015260e087015261278b60643561436a565b606435610100870152166101208501521661014083015242610160830152610180820152836101a082015282845260096020526127cb8160408620614abf565b6004358452600860205260408420805490600160401b8210156128ab57906127f8916001820181556145d8565b612897579061280691614abf565b601481015460ff8160101c16600b81101561288357602094501561286b575b5050604051602435815242838201528133917f878fe3f9bca373e42473c1f3ad3c9c35c4f1ecaf9a5f081a801a3fbd43049f55604060043592a460018055604051908152f35b6201000060149162ff00001916179101553880612825565b634e487b7160e01b85526021600452602485fd5b634e487b7160e01b85526004859052602485fd5b634e487b7160e01b86526041600452602486fd5b90506020813d6020116128ea575b816128da602093836144a6565b81010312610c5e575160ff612732565b3d91506128cd565b6040513d8a823e3d90fd5b60281c6001600160a01b031633036129155738612693565b60405162461bcd60e51b815260206004820152602260248201527f4f7074696f6e73436f72653a206e6f742064657369676e617465642073656c6c60448201526132b960f11b6064820152608490fd5b60405162461bcd60e51b815260206004820152601f60248201527f4f7074696f6e73436f72653a206d61782071756f7465732072656163686564006044820152606490fd5b9091506020813d6020116129d6575b816129c6602093836144a6565b81010312610c625751903861266f565b3d91506129b9565b60405162461bcd60e51b815260206004820152601860248201527f4f7074696f6e73436f72653a20524651206578706972656400000000000000006044820152606490fd5b90506020823d602011612a55575b81612a3e602093836144a6565b81010312612a5157612633915190612629565b8680fd5b3d9150612a31565b6040513d89823e3d90fd5b60405162461bcd60e51b815260206004820152601e60248201527f4f7074696f6e73436f72653a206e6f742061206275796572206f7264657200006044820152606490fd5b60405162461bcd60e51b815260206004820152602760248201527f4f7074696f6e73436f72653a206f72646572206e6f7420616363657074696e676044820152662071756f74657360c81b6064820152608490fd5b6001915014386125d4565b506005546004351061258e565b5060403660031901126102835760043560036024351015610305579081612b6b92151580612bd7575b612b4c90614a73565b8152600760205260409020600101546001600160a01b031633146149e4565b612b736149c1565b612b7b6149a3565b60405162461bcd60e51b815260206004820152602e60248201527f4f7074696f6e73436f72653a20666565642070726f746f636f6c206e6f74206960448201526d1b5c1b195b595b9d1959081e595d60921b6064820152608490fd5b506005548110612b43565b50346102835760203660031901126102835760043580151580612d03575b612c0990614a73565b612c116149c1565b612c196149a3565b808252600760205260408220601481019081549160ff8360101c1692600b841015610db9577fb009a900f426c0c9177acb33a8a806b35c53ac253d1ddf22d687986fc6b72ce4606060c0948694620900008995612c876004600080516020614c848339815191529b14614c19565b62ff00001916179055426017820155600f60018060a01b036001830154169101546040519182526020820152426040820152a2612cc760405180926145b5565b6009602082015260806040820152601060808201526f199bdc98d9481b1a5c5d5a59185d195960821b60a0820152426060820152a26001805580f35b506005548110612c00565b50602080600319360112610305576004359081151580612f91575b612d3290614a73565b612d3a6149c1565b612d426149a3565b8183526007815260408320601481019060ff825460101c16600b811015610db957600603612f3b5760018101546001600160a01b039190821633148015612f2c575b15612ee7578060126017612d9d93015491015490614a66565b4211612e9357806004918254168482600354169260025460081c166040519485809263039f4f7560e31b82525afa928315612a5d578793612e5e575b5093612e2160c094612e0160ff95600795600080516020614c848339815191529933906148fc565b805462ff0000198116620700001790915560405194859160101c166145b5565b820152608060408201526015608082015274185c989a5d1c985d1a5bdb881a5b9a5d1a585d1959605a1b60a0820152426060820152a26001805580f35b925090938083813d8311612e8c575b612e7781836144a6565b81010312612a51579151919390612e21612dd9565b503d612e6d565b60405162461bcd60e51b815260048101849052602660248201527f4f7074696f6e73436f72653a206172626974726174696f6e2077696e646f772060448201526518db1bdcd95960d21b6064820152608490fd5b60405162461bcd60e51b815260048101859052601f60248201527f4f7074696f6e73436f72653a206e6f7420706172747920746f206f72646572006044820152606490fd5b50816002820154163314612d84565b60405162461bcd60e51b815260048101849052602860248201527f4f7074696f6e73436f72653a2063616e6e6f7420696e6974696174652061726260448201526734ba3930ba34b7b760c11b6064820152608490fd5b506005548210612d29565b503461028357602036600319011261028357612fb66149c1565b612fbe6149a3565b6004358152600960205260408120600a8101549160ff831660048110156134695761342457600982015442116133df57600182015481526007602052604081209261301660018060a01b0360018601541633146149e4565b60ff601485015460101c16600b8110156133cb5780159081156133c0575b501561337b576003830154600c850154106133285760ff1916600117600a8301556002808301805491850180546001600160a01b0319166001600160a01b039390931692909217909155546131059060118501906130989060a01c60ff16826148a2565b6003840154600c8601556004840154600d860155600684015480600e870155600f86015560ff600785016130cf8282541684614a29565b8054835461ff001916600891821c841690911b61ff00161783555460101c1662ff000082549160101b169062ff00001916179055565b60148301805462ff000019811662020000179091554260168501556009840154600254604051631c03be3560e31b8152929492906020908290600490829060081c6001600160a01b03165afa90811561331d5784916132e9575b5061271061317361317e9261319894614a33565b046004840154614a66565b6004546003546001600160a01b03908116913391166148fc565b600201546001600160a01b03168152600b6020526040812083546131bb916148c7565b8254815260086020526040812092815b845481101561323e576131de81866145d8565b505460043514158061321c575b906131f9916131fe57614865565b6131cb565b600a61320a82886145d8565b5001805460ff19166002179055614865565b5060ff600a61322b83886145d8565b5001541660048110156123ed57156131eb565b50600080516020614c8483398151915260c060ff6132af8685549560018060a01b0360018201541690600260018060a01b039101541690877f3d7463b72b52fafc8e3f27dc0dbb9d1a94c0a4024834252b5cce68509acb49bc6020604051428152a460405192839160101c166145b5565b6002602082015260806040820152600e60808201526d1c5d5bdd19481858d8d95c1d195960921b60a0820152426060820152a26001805580f35b90506020813d602011613315575b81613304602093836144a6565b81010312610c66575161271061315f565b3d91506132f7565b6040513d86823e3d90fd5b60405162461bcd60e51b815260206004820152602560248201527f4f7074696f6e73436f72653a207072656d69756d2072617465206578636565646044820152640e640dac2f60db1b6064820152608490fd5b60405162461bcd60e51b815260206004820152601b60248201527f4f7074696f6e73436f72653a20696e76616c69642073746174757300000000006044820152606490fd5b600191501438613034565b634e487b7160e01b83526021600452602483fd5b60405162461bcd60e51b815260206004820152601a60248201527f4f7074696f6e73436f72653a2071756f746520657870697265640000000000006044820152606490fd5b60405162461bcd60e51b815260206004820152601d60248201527f4f7074696f6e73436f72653a2071756f7465206e6f74206163746976650000006044820152606490fd5b634e487b7160e01b82526021600452602482fd5b5034610283578060031936011261028357602060ff600254166040519015158152f35b50346102835780600319360112610283576020600654604051908152f35b50346102835760208060031936011261030557600435908115158061368e575b6134e790614a73565b8183526007815261350860018060a01b0360016040862001541633146149e4565b8183526007815260ff601460408520015460101c16600b8110156123ed57600403613640576135356149c1565b61353d6149a3565b818352600781526040832060ff601182015460181c16620151809081810291818304149015171561203d57613576906016830154614a66565b42106135ef5760ff6005600080516020614c84833981519152936135b9601460c095018054906205000062ff000019831617905560405194859160101c166145b5565b82015260806040820152600e60808201526d6561726c7920657865726369736560901b60a0820152426060820152a26001805580f35b60405162461bcd60e51b815260048101839052602360248201527f4f7074696f6e73436f72653a2065786572636973652064656c6179206e6f74206044820152621b595d60ea1b6064820152608490fd5b6084906040519062461bcd60e51b82526004820152602160248201527f4f7074696f6e73436f72653a20696e76616c6964206f726465722073746174756044820152607360f81b6064820152fd5b5060055482106134de565b5034610283576040366003190112610283576136b36142c5565b6001600160a01b03168152600b60205260408120805460243592908310156102835760206136e18484614301565b90546040519160031b1c8152f35b5034610283576040366003190112610283576137096142c5565b6001600160a01b03168152600a60205260408120805460243592908310156102835760206136e18484614301565b50346102835780600319360112610283576137506145f4565b60025460ff8116156137905760ff19166002557f5db9ee0a495bf2e6ff9c91a7834c1ba4fdd244a5e8aa4e537bd38aeae4b073aa6020604051338152a180f35b604051638dfc202b60e01b8152600490fd5b5034610283576040366003190112610283576137bc6142db565b336001600160a01b038216036137d857610ca7906004356146f0565b60405163334bd91960e11b8152600490fd5b50346102835780600319360112610283576004546040516001600160a01b039091168152602090f35b503461028357604036600319011261028357610ca76004356138336142db565b908084528360205261384b600160408620015461464c565b614672565b50346102835780600319360112610283576020600554604051908152f35b503461028357602036600319011261028357600160406020926004358152808452200154604051908152f35b5034610283576020366003190112610283576138b46142c5565b6138bc6145f4565b60028054610100600160a81b03191660089290921b610100600160a81b031691909117905580f35b5034610283576101e0366003190112610283576004356001600160401b03811161030557613916903690600401614298565b6024356001600160401b038111610c6657613935903690600401614298565b6044949194356001600160401b03811161027f57613957903690600401614298565b6064969196356001600160401b03811161221557613979903690600401614298565b6084989198356001600160401b038111612a515761399b903690600401614298565b999098600260a4351015610c5e576003610144351015610c5e57610164356001600160a01b0381169003610c5e576139d16142f1565b6139d96149c1565b6139e16149a3565b6139ee60c4351515614765565b6139fb4260e435116147c0565b600254604051635d8eb68760e01b815260089190911c6001600160a01b031690602081600481855afa8015614238578b90614200575b613a41915061012435101561481a565b600480546003546040516337382d3960e21b81526001600160a01b039283169490939190921691602091849182905afa9182156141f5578c926141bb575b50613a8b9233906148fc565b60055499613a988b614865565b6005558a8a52600760205260408a208b81556001810180546001600160a01b03191633179055926001600160401b0382116141a7578190613adc600386015461440b565b601f8111614155575b508b90601f83116001146140e9578c926140de575b50508160011b916000199060031b1c19161760038301555b6001600160401b038811613e9f57613b2d600483015461440b565b601f811161409a575b508789601f8211600114614030578a91614025575b508860011b906000198a60031b1c19161760048301555b6001600160401b038611613e9f57613b7d600583015461440b565b601f8111613fe1575b508589601f8211600114613f77578a91613f6c575b508660011b906000198860031b1c19161760058301555b6001600160401b038411613e9f57613bcd600683015461440b565b601f8111613f28575b508389601f8211600114613ebe578a91613eb3575b508460011b906000198660031b1c19161760068301555b6001600160401b038c11613e9f57613c1d600783015461440b565b601f8111613e5a575b5060209b899b601f8211600114613db557968d8c9d9761075c8e60c09d99600080516020614c848339815191529f9d98859a8f613d3b9f859f828a956107749e8e8a9f6040958c976107449992613daa575b50508160011b916000199060031b1c19161760078301555b613c9f60a4356008840161488a565b60c435600983015560e435600b83015561010435600c83015561012435601083015560118201613cd261014435826148a2565b805465010000000000600160c81b0319166101643560281b65010000000000600160c81b03161790556101843560128301556101a435601383015560148201805491151560ff1662ff00ff1990921691909117905542601590910155338152600a8652206148c7565b604051600181524287820152847fc0c6ed2669febbe340d8737e8ec17254ffd9e038b54a4585ff70ac3ca18956aa60403393a3604051908082528682015260806040820152600760808201526618dc99585d195960ca1b60a0820152426060820152a260018055604051908152f35b013590503880613c78565b600784018b528d8b20908b9d8e5b601f19851611613e42578f968e9f508e60c09d99600080516020614c848339815191529f9d9861075c938f613d3b9f98859f97610744928f9a956107749e60018a9f8b968f9a60409783601f19811610613e28575b505050811b016007830155613c90565b0135600019600384901b60f8161c19169055388080613e18565b918f600181928585013581550193019e019d8e613dc3565b600783018a5260208a208d6020601f820160051c83019110613e98575b601f830160051c82018110613e8d575050613c26565b8b8155600101613e77565b5080613e77565b634e487b7160e01b89526041600452602489fd5b905083013538613beb565b600684018b5260208b2091508a5b601f1987168110613f10575085601f19811610613ef6575b5050600184811b016006830155613c02565b840135600019600387901b60f8161c191690553880613ee4565b90916020600181928589013581550193019101613ecc565b600683018a5260208a20601f860160051c810160208710613f65575b601f830160051c82018110613f5a575050613bd6565b8b8155600101613f44565b5080613f44565b905085013538613b9b565b600584018b5260208b2091508a5b601f1989168110613fc9575087601f19811610613faf575b5050600186811b016005830155613bb2565b860135600019600389901b60f8161c191690553880613f9d565b9091602060018192858b013581550193019101613f85565b600583018a5260208a20601f880160051c81016020891061401e575b601f830160051c82018110614013575050613b86565b8b8155600101613ffd565b5080613ffd565b905087013538613b4b565b600484018b5260208b2091508a5b601f198b168110614082575089601f19811610614068575b5050600188811b016004830155613b62565b88013560001960038b901b60f8161c191690553880614056565b9091602060018192858d01358155019301910161403e565b600483018a5260208a20601f8a0160051c810160208b106140d7575b601f830160051c820181106140cc575050613b36565b8b81556001016140b6565b50806140b6565b013590503880613afa565b600386018d5260208d208d9450915b601f198416851061413d576001945083601f19811610614123575b505050811b016003830155613b12565b0135600019600384901b60f8161c19169055388080614113565b818101358355602094850194600190930192016140f8565b909150600385018c5260208c20601f840160051c8101602085106141a0575b84939291908e5b601f840160051c8301821061419257505050613ae5565b81558594506001018e61417b565b5080614174565b634e487b7160e01b8b52604160045260248bfd5b9091506020813d6020116141ed575b816141d7602093836144a6565b810103126141e9575190613a8b613a7f565b8b80fd5b3d91506141ca565b6040513d8e823e3d90fd5b506020813d602011614230575b8161421a602093836144a6565b8101031261422c57613a419051613a31565b8a80fd5b3d915061420d565b6040513d8d823e3d90fd5b9050346103055760203660031901126103055760043563ffffffff60e01b811680910361027f5760209250637965db0b60e01b8114908115614287575b5015158152f35b6301ffc9a760e01b14905038614280565b9181601f84011215610c42578235916001600160401b038311610c425760208381860195010111610c4257565b600435906001600160a01b0382168203610c4257565b602435906001600160a01b0382168203610c4257565b6101c435908115158203610c4257565b80548210156143195760005260206000200190600090565b634e487b7160e01b600052603260045260246000fd5b6020908160408183019282815285518094520193019160005b828110614356575050505090565b835185529381019392810192600101614348565b6003111561176c57565b90600482101561176c5752565b9b99979593919e9d9c9a98969492909e6101c08d019f8d5260208d0152600160a01b600190031660408c01526143b68161436a565b60608b015260808a015260a089015260c088015260e08701526143d88161436a565b61010086015260ff1661012085015260ff166101408401526101608301526101808201526101a00161440991614374565b565b90600182811c9216801561443b575b602083101461442557565b634e487b7160e01b600052602260045260246000fd5b91607f169161441a565b6101c081019081106001600160401b0382111761446157604052565b634e487b7160e01b600052604160045260246000fd5b6001600160401b03811161446157604052565b61040081019081106001600160401b0382111761446157604052565b90601f801991011681019081106001600160401b0382111761446157604052565b90604051918260008254926144db8461440b565b9081845260019485811690816000146145485750600114614505575b5050614409925003836144a6565b9093915060005260209081600020936000915b818310614530575050614409935082010138806144f7565b85548884018501529485019487945091830191614518565b91505061440994506020925060ff191682840152151560051b82010138806144f7565b919082519283825260005b848110614597575050826000602080949584010152601f8019910116010190565b602081830181015184830182015201614576565b6002111561176c57565b90600b82101561176c5752565b6040906003190112610c42576004359060243590565b805482101561431957600052600b602060002091020190600090565b3360009081527fad3228b676f7d3cd4284a5443f17f1962b36e491b30a40b2405849e597ba5fb5602052604081205460ff161561462e5750565b6044906040519063e2517d3f60e01b82523360048301526024820152fd5b80600052600060205260406000203360005260205260ff604060002054161561462e5750565b9060009180835282602052604083209160018060a01b03169182845260205260ff604084205416156000146146eb57808352826020526040832082845260205260408320600160ff198254161790557f2f8788117e7eff1d82e926ec794901d17c78024a50270940304540a733656f0d339380a4600190565b505090565b9060009180835282602052604083209160018060a01b03169182845260205260ff6040842054166000146146eb5780835282602052604083208284526020526040832060ff1981541690557ff6391f5c32d9c69d2a47ea670b442974b53935d1edc7fd64eb21e047a839171b339380a4600190565b1561476c57565b60405162461bcd60e51b815260206004820152602660248201527f4f7074696f6e73436f72653a206e6f74696f6e616c206d75737420626520706f60448201526573697469766560d01b6064820152608490fd5b156147c757565b60405162461bcd60e51b815260206004820152602560248201527f4f7074696f6e73436f72653a20657870697279206d75737420626520696e2066604482015264757475726560d81b6064820152608490fd5b1561482157565b606460405162461bcd60e51b815260206004820152602060248201527f4f7074696f6e73436f72653a206d617267696e207261746520746f6f206c6f776044820152fd5b60001981146148745760010190565b634e487b7160e01b600052601160045260246000fd5b90614894816145ab565b60ff80198354169116179055565b906148ac8161436a565b64ff0000000082549160201b169064ff000000001916179055565b8054600160401b811015614461576148e491600182018155614301565b819291549060031b91821b91600019901b1916179055565b6040516323b872dd60e01b60208083019182526001600160a01b03948516602484015294909316604482015260648082019590955293845292600091906149446084826144a6565b519082855af115614997576000513d61498e57506001600160a01b0381163b155b61496c5750565b604051635274afe760e01b81526001600160a01b039091166004820152602490fd5b60011415614965565b6040513d6000823e3d90fd5b60ff600254166149af57565b60405163d93c066560e01b8152600490fd5b6002600154146149d2576002600155565b604051633ee5aeb560e01b8152600490fd5b156149eb57565b60405162461bcd60e51b815260206004820152601660248201527527b83a34b7b739a1b7b9329d103737ba10313abcb2b960511b6044820152606490fd5b906148948161436a565b8181029291811591840414171561487457565b8115614a50570490565b634e487b7160e01b600052601260045260246000fd5b9190820180921161487457565b15614a7a57565b60405162461bcd60e51b815260206004820152601d60248201527f4f7074696f6e73436f72653a20696e76616c6964206f726465722069640000006044820152606490fd5b600a6101a09183518155602084015160018201556002810160018060a01b036040860151168154906060870151614af58161436a565b614afe8161436a565b60ff60a01b9060a01b16916affffffffffffffffffffff60a81b16171790556080840151600382015560a0840151600482015560c0840151600582015560e08401516006820155614b9c60078201614b64610100870151614b5e8161436a565b82614a29565b610120860151815461ff00191660089190911b61ff0016178155610140860151815462ff0000191660109190911b62ff000016179055565b6101608401516008820155610180840151600982015501910151600481101561176c5760ff80198354169116179055565b15614bd457565b60405162461bcd60e51b815260206004820152601760248201527f4f7074696f6e73436f72653a206e6f742073656c6c65720000000000000000006044820152606490fd5b15614c2057565b60405162461bcd60e51b815260206004820152601b60248201527f4f7074696f6e73436f72653a206f72646572206e6f74206c69766500000000006044820152606490fd5b9190820391821161487457565b90815181101561431957016020019056fece3a31baf9956e086200ee7044a75c2befbd050912798b7bcd25d05831ab9592a2646970667358221220751e4c9478ffed07d994ce76315ec9a547c48d4b13a6f745dd5e3d59d064830b64736f6c63430008140033","opcodes":"PUSH1 0x80 CALLVALUE PUSH3 0xF5 JUMPI PUSH1 0x1F PUSH3 0x4E90 CODESIZE DUP2 SWAP1 SUB SWAP2 DUP3 ADD PUSH1 0x1F NOT AND DUP4 ADD SWAP2 PUSH1 0x1 PUSH1 0x1 PUSH1 0x40 SHL SUB DUP4 GT DUP5 DUP5 LT OR PUSH3 0xFA JUMPI DUP1 DUP5 SWAP3 PUSH1 0x80 SWAP5 PUSH1 0x40 MSTORE DUP4 CODECOPY DUP2 ADD SUB SLT PUSH3 0xF5 JUMPI DUP1 PUSH3 0x52 PUSH3 0xE4 SWAP3 PUSH3 0x110 JUMP JUMPDEST SWAP1 PUSH3 0x61 PUSH1 0x20 DUP3 ADD PUSH3 0x110 JUMP JUMPDEST SWAP1 PUSH3 0x7E PUSH1 0x60 PUSH3 0x76 PUSH1 0x40 DUP5 ADD PUSH3 0x110 JUMP JUMPDEST SWAP3 ADD PUSH3 0x110 JUMP JUMPDEST PUSH1 0x1 DUP1 DUP1 SSTORE PUSH1 0x5 DUP2 SWAP1 SSTORE PUSH1 0x6 SSTORE PUSH1 0x2 DUP1 SLOAD PUSH2 0x100 PUSH1 0x1 PUSH1 0xA8 SHL SUB NOT AND PUSH1 0x8 SWAP6 SWAP1 SWAP6 SHL PUSH2 0x100 PUSH1 0x1 PUSH1 0xA8 SHL SUB AND SWAP5 SWAP1 SWAP5 OR SWAP1 SWAP4 SSTORE PUSH1 0x3 DUP1 SLOAD PUSH1 0x1 PUSH1 0x1 PUSH1 0xA0 SHL SUB NOT SWAP1 DUP2 AND PUSH1 0x1 PUSH1 0x1 PUSH1 0xA0 SHL SUB SWAP5 DUP6 AND OR SWAP1 SWAP2 SSTORE PUSH1 0x4 DUP1 SLOAD SWAP1 SWAP2 AND SWAP2 SWAP1 SWAP3 AND OR SWAP1 SSTORE PUSH3 0x125 JUMP JUMPDEST POP PUSH1 0x40 MLOAD PUSH2 0x4CD9 SWAP1 DUP2 PUSH3 0x1B7 DUP3 CODECOPY RETURN JUMPDEST PUSH1 0x0 DUP1 REVERT JUMPDEST PUSH4 0x4E487B71 PUSH1 0xE0 SHL PUSH1 0x0 MSTORE PUSH1 0x41 PUSH1 0x4 MSTORE PUSH1 0x24 PUSH1 0x0 REVERT JUMPDEST MLOAD SWAP1 PUSH1 0x1 PUSH1 0x1 PUSH1 0xA0 SHL SUB DUP3 AND DUP3 SUB PUSH3 0xF5 JUMPI JUMP JUMPDEST PUSH1 0x1 PUSH1 0x1 PUSH1 0xA0 SHL SUB AND PUSH1 0x0 DUP2 DUP2 MSTORE PUSH32 0xAD3228B676F7D3CD4284A5443F17F1962B36E491B30A40B2405849E597BA5FB5 PUSH1 0x20 MSTORE PUSH1 0x40 DUP2 KECCAK256 SLOAD SWAP1 SWAP2 SWAP1 PUSH1 0xFF AND PUSH3 0x1B2 JUMPI DUP2 DUP1 MSTORE DUP2 PUSH1 0x20 MSTORE PUSH1 0x40 DUP3 KECCAK256 DUP2 DUP4 MSTORE PUSH1 0x20 MSTORE PUSH1 0x40 DUP3 KECCAK256 PUSH1 0x1 PUSH1 0xFF NOT DUP3 SLOAD AND OR SWAP1 SSTORE CALLER SWAP2 PUSH32 0x2F8788117E7EFF1D82E926EC794901D17C78024A50270940304540A733656F0D DUP2 DUP1 LOG4 PUSH1 0x1 SWAP1 JUMP JUMPDEST POP SWAP1 JUMP INVALID PUSH2 0x240 DUP1 PUSH1 0x40 MSTORE PUSH1 0x4 CALLDATASIZE LT ISZERO PUSH2 0x14 JUMPI PUSH1 0x0 DUP1 REVERT JUMPDEST PUSH1 0x0 SWAP1 DUP2 CALLDATALOAD PUSH1 0xE0 SHR SWAP1 DUP2 PUSH4 0x1FFC9A7 EQ PUSH2 0x4243 JUMPI POP DUP1 PUSH4 0x1773A1C1 EQ PUSH2 0x38E4 JUMPI DUP1 PUSH4 0x20E3DBD4 EQ PUSH2 0x389A JUMPI DUP1 PUSH4 0x248A9CA3 EQ PUSH2 0x386E JUMPI DUP1 PUSH4 0x2A58B330 EQ PUSH2 0x3850 JUMPI DUP1 PUSH4 0x2F2FF15D EQ PUSH2 0x3813 JUMPI DUP1 PUSH4 0x2F48AB7D EQ PUSH2 0x37EA JUMPI DUP1 PUSH4 0x36568ABE EQ PUSH2 0x37A2 JUMPI DUP1 PUSH4 0x3F4BA83A EQ PUSH2 0x3737 JUMPI DUP1 PUSH4 0x4500CB60 EQ PUSH2 0x36EF JUMPI DUP1 PUSH4 0x45CB4505 EQ PUSH2 0x3699 JUMPI DUP1 PUSH4 0x46F8226C EQ PUSH2 0x34BE JUMPI DUP1 PUSH4 0x4EFEF6AA EQ PUSH2 0x34A0 JUMPI DUP1 PUSH4 0x5C975ABB EQ PUSH2 0x347D JUMPI DUP1 PUSH4 0x5D7FFE7B EQ PUSH2 0x2F9C JUMPI DUP1 PUSH4 0x6AF58CFF EQ PUSH2 0x2D0E JUMPI DUP1 PUSH4 0x6CA14389 EQ PUSH2 0x2BE2 JUMPI DUP1 PUSH4 0x6DBE7579 EQ PUSH2 0x2B1A JUMPI DUP1 PUSH4 0x7203A582 EQ PUSH2 0x254C JUMPI DUP1 PUSH4 0x79502C55 EQ PUSH2 0x251F JUMPI DUP1 PUSH4 0x7D900421 EQ PUSH2 0x2492 JUMPI DUP1 PUSH4 0x8456CB59 EQ PUSH2 0x2437 JUMPI DUP1 PUSH4 0x8A4ADF24 EQ PUSH2 0x240E JUMPI DUP1 PUSH4 0x8DF82800 EQ PUSH2 0x1EEF JUMPI DUP1 PUSH4 0x91D14854 EQ PUSH2 0x1EA4 JUMPI DUP1 PUSH4 0xA217FDDF EQ PUSH2 0x1E88 JUMPI DUP1 PUSH4 0xA45F2EBC EQ PUSH2 0x1E15 JUMPI DUP1 PUSH4 0xA61CF0D4 EQ PUSH2 0x1D82 JUMPI DUP1 PUSH4 0xA85C38EF EQ PUSH2 0x1A2C JUMPI DUP1 PUSH4 0xB543503E EQ PUSH2 0x19E7 JUMPI DUP1 PUSH4 0xBC0EF26B EQ PUSH2 0x1823 JUMPI DUP1 PUSH4 0xCF3FEC43 EQ PUSH2 0x1796 JUMPI DUP1 PUSH4 0xD049BFEF EQ PUSH2 0x1531 JUMPI DUP1 PUSH4 0xD09EF241 EQ PUSH2 0x1014 JUMPI DUP1 PUSH4 0xD1E745B1 EQ PUSH2 0xE29 JUMPI DUP1 PUSH4 0xD41194B8 EQ PUSH2 0xCAB JUMPI DUP1 PUSH4 0xD547741F EQ PUSH2 0xC6A JUMPI DUP1 PUSH4 0xE1FC6341 EQ PUSH2 0x309 JUMPI DUP1 PUSH4 0xE4CBAC40 EQ PUSH2 0x286 JUMPI PUSH4 0xF7FF6426 EQ PUSH2 0x1DA JUMPI PUSH1 0x0 DUP1 REVERT JUMPDEST CALLVALUE PUSH2 0x283 JUMPI PUSH2 0x1E8 CALLDATASIZE PUSH2 0x45C2 JUMP JUMPDEST SWAP1 DUP3 MSTORE PUSH1 0x8 PUSH1 0x20 MSTORE PUSH1 0x40 DUP3 KECCAK256 DUP1 SLOAD DUP3 LT ISZERO PUSH2 0x27F JUMPI PUSH2 0x207 SWAP3 POP PUSH2 0x45D8 JUMP JUMPDEST POP DUP1 SLOAD SWAP1 PUSH2 0x27B PUSH1 0x1 DUP3 ADD SLOAD PUSH1 0x2 DUP4 ADD SLOAD SWAP3 PUSH1 0x3 DUP2 ADD SLOAD SWAP5 PUSH1 0x4 DUP3 ADD SLOAD SWAP3 PUSH1 0x5 DUP4 ADD SLOAD SWAP2 PUSH1 0x6 DUP5 ADD SLOAD SWAP1 PUSH1 0x7 DUP6 ADD SLOAD SWAP2 PUSH1 0x8 DUP7 ADD SLOAD SWAP5 PUSH1 0xFF PUSH1 0xA PUSH1 0x9 DUP10 ADD SLOAD SWAP9 ADD SLOAD AND SWAP8 PUSH1 0x40 MLOAD SWAP12 DUP13 SWAP12 DUP13 PUSH1 0xFF DUP9 PUSH1 0x10 SHR AND SWAP9 PUSH1 0xFF DUP1 DUP11 PUSH1 0x8 SHR AND SWAP10 AND SWAP8 PUSH1 0xFF DUP5 PUSH1 0xA0 SHR AND SWAP4 PUSH1 0x1 DUP1 PUSH1 0xA0 SHL SUB AND SWAP3 PUSH2 0x4381 JUMP JUMPDEST SUB SWAP1 RETURN JUMPDEST DUP3 DUP1 REVERT JUMPDEST DUP1 REVERT JUMPDEST POP CALLVALUE PUSH2 0x283 JUMPI PUSH1 0x20 DUP1 PUSH1 0x3 NOT CALLDATASIZE ADD SLT PUSH2 0x305 JUMPI PUSH1 0x1 PUSH1 0x1 PUSH1 0xA0 SHL SUB PUSH2 0x2A9 PUSH2 0x42C5 JUMP JUMPDEST AND DUP3 MSTORE PUSH1 0xB DUP2 MSTORE PUSH1 0x40 DUP3 KECCAK256 SWAP2 PUSH1 0x40 MLOAD DUP1 SWAP3 DUP1 DUP6 SLOAD SWAP3 DUP4 DUP2 MSTORE ADD SWAP5 DUP4 MSTORE DUP1 DUP4 KECCAK256 SWAP3 SWAP1 JUMPDEST DUP3 DUP3 LT PUSH2 0x2EE JUMPI PUSH2 0x27B DUP6 PUSH2 0x2E2 DUP2 DUP10 SUB DUP3 PUSH2 0x44A6 JUMP JUMPDEST PUSH1 0x40 MLOAD SWAP2 DUP3 SWAP2 DUP3 PUSH2 0x432F JUMP JUMPDEST DUP4 SLOAD DUP7 MSTORE SWAP5 DUP6 ADD SWAP5 PUSH1 0x1 SWAP4 DUP5 ADD SWAP4 SWAP1 SWAP2 ADD SWAP1 PUSH2 0x2CB JUMP JUMPDEST POP DUP1 REVERT JUMPDEST POP CALLVALUE PUSH2 0x283 JUMPI PUSH2 0x1E0 CALLDATASIZE PUSH1 0x3 NOT ADD SLT PUSH2 0x283 JUMPI PUSH1 0x4 CALLDATALOAD PUSH1 0x1 PUSH1 0x1 PUSH1 0x40 SHL SUB DUP2 GT PUSH2 0x305 JUMPI PUSH2 0x33B SWAP1 CALLDATASIZE SWAP1 PUSH1 0x4 ADD PUSH2 0x4298 JUMP JUMPDEST SWAP1 SWAP2 PUSH1 0x24 CALLDATALOAD PUSH1 0x1 PUSH1 0x1 PUSH1 0x40 SHL SUB DUP2 GT PUSH2 0x305 JUMPI PUSH2 0x35C SWAP1 CALLDATASIZE SWAP1 PUSH1 0x4 ADD PUSH2 0x4298 JUMP JUMPDEST SWAP4 SWAP1 PUSH1 0x44 CALLDATALOAD PUSH1 0x1 PUSH1 0x1 PUSH1 0x40 SHL SUB DUP2 GT PUSH2 0xC66 JUMPI PUSH2 0x37D SWAP1 CALLDATASIZE SWAP1 PUSH1 0x4 ADD PUSH2 0x4298 JUMP JUMPDEST SWAP1 PUSH1 0x64 CALLDATALOAD PUSH1 0x1 PUSH1 0x1 PUSH1 0x40 SHL SUB DUP2 GT PUSH2 0xC62 JUMPI PUSH2 0x39D SWAP1 CALLDATASIZE SWAP1 PUSH1 0x4 ADD PUSH2 0x4298 JUMP JUMPDEST SWAP1 SWAP5 PUSH1 0x84 CALLDATALOAD PUSH1 0x1 PUSH1 0x1 PUSH1 0x40 SHL SUB DUP2 GT PUSH2 0xC5E JUMPI PUSH2 0x3BE SWAP1 CALLDATASIZE SWAP1 PUSH1 0x4 ADD PUSH2 0x4298 JUMP JUMPDEST PUSH1 0x2 PUSH1 0xA4 CALLDATALOAD LT ISZERO PUSH2 0xC5A JUMPI PUSH1 0x3 PUSH2 0x144 CALLDATALOAD LT ISZERO PUSH2 0xC5A JUMPI PUSH1 0xFF PUSH2 0x164 CALLDATALOAD AND PUSH2 0x164 CALLDATALOAD SUB PUSH2 0xC42 JUMPI PUSH1 0xFF PUSH2 0x184 CALLDATALOAD AND PUSH2 0x184 CALLDATALOAD SUB PUSH2 0xC42 JUMPI PUSH2 0x3FD PUSH2 0x42F1 JUMP JUMPDEST SWAP2 PUSH2 0x406 PUSH2 0x49C1 JUMP JUMPDEST PUSH2 0x40E PUSH2 0x49A3 JUMP JUMPDEST PUSH2 0x41B PUSH1 0xC4 CALLDATALOAD ISZERO ISZERO PUSH2 0x4765 JUMP JUMPDEST PUSH2 0x428 TIMESTAMP PUSH1 0xE4 CALLDATALOAD GT PUSH2 0x47C0 JUMP JUMPDEST PUSH1 0x4 DUP1 SLOAD PUSH1 0x3 SLOAD PUSH1 0x2 SLOAD PUSH1 0x40 MLOAD PUSH4 0x37382D39 PUSH1 0xE2 SHL DUP2 MSTORE SWAP4 PUSH1 0x1 PUSH1 0x1 PUSH1 0xA0 SHL SUB SWAP4 DUP5 AND SWAP4 SWAP3 DUP4 AND SWAP3 PUSH1 0x20 SWAP3 DUP7 SWAP3 SWAP2 DUP4 SWAP2 PUSH1 0x8 SHR AND GAS STATICCALL SWAP2 DUP3 ISZERO PUSH2 0xC4F JUMPI DUP14 SWAP3 PUSH2 0xC14 JUMPI JUMPDEST PUSH2 0x478 SWAP4 POP CALLER SWAP1 PUSH2 0x48FC JUMP JUMPDEST PUSH2 0x124 CALLDATALOAD PUSH2 0xBEC JUMPI JUMPDEST PUSH1 0x5 SLOAD SWAP11 PUSH2 0x48E DUP13 PUSH2 0x4865 JUMP JUMPDEST PUSH1 0x5 SSTORE DUP12 DUP12 MSTORE PUSH1 0x7 PUSH1 0x20 MSTORE PUSH1 0x40 DUP12 KECCAK256 DUP13 DUP2 SSTORE PUSH1 0x2 DUP2 ADD DUP1 SLOAD PUSH1 0x1 PUSH1 0x1 PUSH1 0xA0 SHL SUB NOT AND CALLER OR SWAP1 SSTORE SWAP5 PUSH1 0x1 PUSH1 0x1 PUSH1 0x40 SHL SUB DUP3 GT PUSH2 0xBD8 JUMPI DUP2 SWAP1 PUSH2 0x4D2 PUSH1 0x3 DUP9 ADD SLOAD PUSH2 0x440B JUMP JUMPDEST PUSH1 0x1F DUP2 GT PUSH2 0xB87 JUMPI JUMPDEST POP DUP13 SWAP1 PUSH1 0x1F DUP4 GT PUSH1 0x1 EQ PUSH2 0xB1B JUMPI DUP14 SWAP3 PUSH2 0xB10 JUMPI JUMPDEST POP POP DUP2 PUSH1 0x1 SHL SWAP2 PUSH1 0x0 NOT SWAP1 PUSH1 0x3 SHL SHR NOT AND OR PUSH1 0x3 DUP6 ADD SSTORE JUMPDEST PUSH1 0x1 PUSH1 0x1 PUSH1 0x40 SHL SUB DUP13 GT PUSH2 0x8C6 JUMPI PUSH2 0x523 PUSH1 0x4 DUP6 ADD SLOAD PUSH2 0x440B JUMP JUMPDEST PUSH1 0x1F DUP2 GT PUSH2 0xACA JUMPI JUMPDEST POP DUP12 DUP11 PUSH1 0x1F DUP3 GT PUSH1 0x1 EQ PUSH2 0xA5B JUMPI DUP12 SWAP2 PUSH2 0xA50 JUMPI JUMPDEST POP PUSH1 0x0 NOT PUSH1 0x3 DUP15 SWAP1 SHL SHR NOT AND PUSH1 0x1 DUP14 SWAP1 SHL OR PUSH1 0x4 DUP6 ADD SSTORE JUMPDEST PUSH1 0x1 PUSH1 0x1 PUSH1 0x40 SHL SUB DUP8 GT PUSH2 0x8C6 JUMPI PUSH2 0x574 PUSH1 0x5 DUP6 ADD SLOAD PUSH2 0x440B JUMP JUMPDEST PUSH1 0x1F DUP2 GT PUSH2 0xA0B JUMPI JUMPDEST POP DUP7 DUP11 PUSH1 0x1F DUP3 GT PUSH1 0x1 EQ PUSH2 0x9A1 JUMPI DUP12 SWAP2 PUSH2 0x996 JUMPI JUMPDEST POP DUP8 PUSH1 0x1 SHL SWAP1 PUSH1 0x0 NOT DUP10 PUSH1 0x3 SHL SHR NOT AND OR PUSH1 0x5 DUP6 ADD SSTORE JUMPDEST PUSH1 0x1 PUSH1 0x1 PUSH1 0x40 SHL SUB DUP6 GT PUSH2 0x8C6 JUMPI PUSH2 0x5C4 PUSH1 0x6 DUP6 ADD SLOAD PUSH2 0x440B JUMP JUMPDEST PUSH1 0x1F DUP2 GT PUSH2 0x951 JUMPI JUMPDEST POP DUP5 DUP11 PUSH1 0x1F DUP3 GT PUSH1 0x1 EQ PUSH2 0x8E5 JUMPI DUP12 SWAP2 PUSH2 0x8DA JUMPI JUMPDEST POP DUP6 PUSH1 0x1 SHL SWAP1 PUSH1 0x0 NOT DUP8 PUSH1 0x3 SHL SHR NOT AND OR PUSH1 0x6 DUP6 ADD SSTORE JUMPDEST PUSH1 0x1 PUSH1 0x1 PUSH1 0x40 SHL SUB DUP3 GT PUSH2 0x8C6 JUMPI PUSH2 0x614 PUSH1 0x7 DUP6 ADD SLOAD PUSH2 0x440B JUMP JUMPDEST PUSH1 0x1F DUP2 GT PUSH2 0x881 JUMPI JUMPDEST POP SWAP3 PUSH1 0x20 SWAP12 SWAP7 SWAP5 SWAP3 DUP11 SWAP3 DUP13 SWAP10 SWAP8 SWAP6 DUP5 SWAP1 PUSH1 0x1F DUP4 GT PUSH1 0x1 EQ PUSH2 0x7D5 JUMPI SWAP6 DUP16 PUSH2 0x78C SWAP14 PUSH2 0x744 DUP15 PUSH1 0x40 DUP11 DUP6 SWAP16 SWAP15 SWAP12 SWAP11 PUSH2 0x774 SWAP15 SWAP11 DUP11 DUP6 SWAP16 SWAP12 DUP7 SWAP12 DUP11 SWAP16 SWAP14 PUSH2 0x75C SWAP15 SWAP3 PUSH2 0x7CA JUMPI JUMPDEST POP POP DUP2 PUSH1 0x1 SHL SWAP2 PUSH1 0x0 NOT SWAP1 PUSH1 0x3 SHL SHR NOT AND OR PUSH1 0x7 DUP4 ADD SSTORE JUMPDEST PUSH2 0x689 PUSH1 0xA4 CALLDATALOAD PUSH1 0x8 DUP5 ADD PUSH2 0x488A JUMP JUMPDEST PUSH1 0xC4 CALLDATALOAD PUSH1 0x9 DUP4 ADD SSTORE PUSH1 0xE4 CALLDATALOAD PUSH1 0xB DUP4 ADD SSTORE PUSH2 0x2710 PUSH2 0x6B1 PUSH2 0x104 CALLDATALOAD DUP1 PUSH1 0xC DUP7 ADD SSTORE PUSH1 0xC4 CALLDATALOAD PUSH2 0x4A33 JUMP JUMPDEST DIV PUSH1 0xD DUP4 ADD SSTORE PUSH2 0x124 CALLDATALOAD PUSH1 0xE DUP4 ADD SSTORE PUSH2 0x124 CALLDATALOAD PUSH1 0xF DUP4 ADD SSTORE PUSH2 0x704 PUSH1 0x11 DUP4 ADD PUSH2 0x6DD PUSH2 0x144 CALLDATALOAD DUP3 PUSH2 0x4A29 JUMP JUMPDEST DUP1 SLOAD PUSH3 0xFF0000 PUSH2 0x184 CALLDATALOAD PUSH1 0x10 SHL AND PUSH3 0xFFFF00 NOT SWAP1 SWAP2 AND PUSH2 0xFF00 PUSH2 0x164 CALLDATALOAD PUSH1 0x8 SHL AND OR OR SWAP1 SSTORE JUMP JUMPDEST PUSH2 0x1A4 CALLDATALOAD PUSH1 0x12 DUP4 ADD SSTORE PUSH2 0x727 PUSH1 0x14 DUP4 ADD SWAP2 DUP3 SWAP1 PUSH1 0xFF DUP1 NOT DUP4 SLOAD AND SWAP2 ISZERO ISZERO AND OR SWAP1 SSTORE JUMP JUMPDEST PUSH3 0xFF0000 NOT DUP2 SLOAD AND SWAP1 SSTORE PUSH1 0x15 TIMESTAMP SWAP2 ADD SSTORE CALLER DUP2 MSTORE PUSH1 0xB DUP7 MSTORE KECCAK256 PUSH2 0x48C7 JUMP JUMPDEST DUP3 PUSH1 0x40 MLOAD SWAP4 DUP5 SWAP3 DUP4 CALLDATACOPY DUP2 ADD PUSH1 0xC DUP2 MSTORE SUB ADD SWAP1 KECCAK256 PUSH2 0x48C7 JUMP JUMPDEST DUP3 PUSH1 0x40 MLOAD SWAP4 DUP5 SWAP3 DUP4 CALLDATACOPY DUP2 ADD PUSH1 0xD DUP2 MSTORE SUB ADD SWAP1 KECCAK256 PUSH2 0x48C7 JUMP JUMPDEST DUP3 PUSH1 0x40 MLOAD SWAP4 DUP5 SWAP3 DUP4 CALLDATACOPY DUP2 ADD PUSH1 0xE DUP2 MSTORE SUB ADD SWAP1 KECCAK256 PUSH2 0x48C7 JUMP JUMPDEST PUSH1 0x40 MLOAD SWAP1 DUP2 MSTORE TIMESTAMP DUP4 DUP3 ADD MSTORE DUP2 PUSH32 0xC0C6ED2669FEBBE340D8737E8EC17254FFD9E038B54A4585FF70AC3CA18956AA PUSH1 0x40 CALLER SWAP4 LOG3 PUSH1 0x1 DUP1 SSTORE PUSH1 0x40 MLOAD SWAP1 DUP2 MSTORE RETURN JUMPDEST ADD CALLDATALOAD SWAP1 POP CODESIZE DUP1 PUSH2 0x662 JUMP JUMPDEST SWAP12 SWAP5 SWAP4 SWAP3 SWAP2 SWAP1 PUSH1 0x7 DUP5 ADD DUP6 MSTORE DUP16 DUP6 KECCAK256 SWAP1 DUP6 JUMPDEST PUSH1 0x1F NOT DUP5 AND DUP2 LT PUSH2 0x84F JUMPI POP PUSH1 0x20 SWAP11 SWAP10 SWAP7 PUSH2 0x744 PUSH2 0x78C SWAP16 DUP16 SWAP11 SWAP5 DUP15 SWAP10 PUSH2 0x774 SWAP14 SWAP10 PUSH2 0x75C SWAP10 PUSH1 0x1 DUP16 SWAP11 PUSH1 0x40 SWAP6 DUP16 SWAP11 SWAP8 DUP14 SWAP9 DUP4 PUSH1 0x1F NOT DUP2 AND LT PUSH2 0x835 JUMPI JUMPDEST POP POP POP DUP2 SHL ADD PUSH1 0x7 DUP4 ADD SSTORE PUSH2 0x67A JUMP JUMPDEST ADD CALLDATALOAD PUSH1 0x0 NOT PUSH1 0x3 DUP5 SWAP1 SHL PUSH1 0xF8 AND SHR NOT AND SWAP1 SSTORE CODESIZE DUP1 DUP1 PUSH2 0x825 JUMP JUMPDEST SWAP3 SWAP6 POP SWAP4 SWAP7 SWAP9 SWAP11 SWAP13 SWAP3 SWAP6 SWAP8 SWAP10 SWAP12 POP DUP16 PUSH1 0x1 DUP2 SWAP3 DUP7 DUP7 ADD CALLDATALOAD DUP2 SSTORE ADD SWAP5 ADD SWAP2 ADD SWAP3 DUP14 SWAP5 SWAP2 DUP16 SWAP13 SWAP11 SWAP9 SWAP7 SWAP4 SWAP14 SWAP12 SWAP10 SWAP8 SWAP5 PUSH2 0x7E7 JUMP JUMPDEST PUSH1 0x7 DUP6 ADD DUP12 MSTORE PUSH1 0x20 DUP12 KECCAK256 PUSH1 0x1F DUP5 ADD PUSH1 0x5 SHR DUP2 ADD PUSH1 0x20 DUP6 LT PUSH2 0x8BF JUMPI JUMPDEST PUSH1 0x1F DUP4 ADD PUSH1 0x5 SHR DUP3 ADD DUP2 LT PUSH2 0x8B3 JUMPI POP POP PUSH2 0x61D JUMP JUMPDEST PUSH1 0x0 DUP2 SSTORE PUSH1 0x1 ADD PUSH2 0x89D JUMP JUMPDEST POP DUP1 PUSH2 0x89D JUMP JUMPDEST PUSH4 0x4E487B71 PUSH1 0xE0 SHL DUP11 MSTORE PUSH1 0x41 PUSH1 0x4 MSTORE PUSH1 0x24 DUP11 REVERT JUMPDEST SWAP1 POP DUP10 ADD CALLDATALOAD CODESIZE PUSH2 0x5E2 JUMP JUMPDEST PUSH1 0x6 DUP7 ADD DUP13 MSTORE PUSH1 0x20 DUP13 KECCAK256 SWAP2 POP DUP12 JUMPDEST DUP12 PUSH1 0x1F NOT DUP10 AND DUP3 LT PUSH2 0x939 JUMPI POP POP DUP7 PUSH1 0x1F NOT DUP2 AND LT PUSH2 0x91F JUMPI JUMPDEST POP POP PUSH1 0x1 DUP6 DUP2 SHL ADD PUSH1 0x6 DUP6 ADD SSTORE PUSH2 0x5F9 JUMP JUMPDEST DUP11 ADD CALLDATALOAD PUSH1 0x0 NOT PUSH1 0x3 DUP9 SWAP1 SHL PUSH1 0xF8 AND SHR NOT AND SWAP1 SSTORE CODESIZE DUP1 PUSH2 0x90D JUMP JUMPDEST PUSH1 0x1 DUP4 SWAP5 PUSH1 0x20 SWAP4 SWAP5 DUP5 SWAP4 ADD CALLDATALOAD DUP2 SSTORE ADD SWAP4 ADD SWAP2 ADD PUSH2 0x8F3 JUMP JUMPDEST PUSH1 0x6 DUP6 ADD DUP12 MSTORE PUSH1 0x20 DUP12 KECCAK256 PUSH1 0x1F DUP8 ADD PUSH1 0x5 SHR DUP2 ADD PUSH1 0x20 DUP9 LT PUSH2 0x98F JUMPI JUMPDEST PUSH1 0x1F DUP4 ADD PUSH1 0x5 SHR DUP3 ADD DUP2 LT PUSH2 0x983 JUMPI POP POP PUSH2 0x5CD JUMP JUMPDEST PUSH1 0x0 DUP2 SSTORE PUSH1 0x1 ADD PUSH2 0x96D JUMP JUMPDEST POP DUP1 PUSH2 0x96D JUMP JUMPDEST SWAP1 POP DUP7 ADD CALLDATALOAD CODESIZE PUSH2 0x592 JUMP JUMPDEST PUSH1 0x5 DUP7 ADD DUP13 MSTORE PUSH1 0x20 DUP13 KECCAK256 SWAP2 POP DUP12 JUMPDEST PUSH1 0x1F NOT DUP11 AND DUP2 LT PUSH2 0x9F3 JUMPI POP DUP9 PUSH1 0x1F NOT DUP2 AND LT PUSH2 0x9D9 JUMPI JUMPDEST POP POP PUSH1 0x1 DUP8 DUP2 SHL ADD PUSH1 0x5 DUP6 ADD SSTORE PUSH2 0x5A9 JUMP JUMPDEST DUP8 ADD CALLDATALOAD PUSH1 0x0 NOT PUSH1 0x3 DUP11 SWAP1 SHL PUSH1 0xF8 AND SHR NOT AND SWAP1 SSTORE CODESIZE DUP1 PUSH2 0x9C7 JUMP JUMPDEST SWAP1 SWAP2 PUSH1 0x20 PUSH1 0x1 DUP2 SWAP3 DUP6 DUP13 ADD CALLDATALOAD DUP2 SSTORE ADD SWAP4 ADD SWAP2 ADD PUSH2 0x9AF JUMP JUMPDEST PUSH1 0x5 DUP6 ADD DUP12 MSTORE PUSH1 0x20 DUP12 KECCAK256 PUSH1 0x1F DUP10 ADD PUSH1 0x5 SHR DUP2 ADD PUSH1 0x20 DUP11 LT PUSH2 0xA49 JUMPI JUMPDEST PUSH1 0x1F DUP4 ADD PUSH1 0x5 SHR DUP3 ADD DUP2 LT PUSH2 0xA3D JUMPI POP POP PUSH2 0x57D JUMP JUMPDEST PUSH1 0x0 DUP2 SSTORE PUSH1 0x1 ADD PUSH2 0xA27 JUMP JUMPDEST POP DUP1 PUSH2 0xA27 JUMP JUMPDEST SWAP1 POP DUP9 ADD CALLDATALOAD CODESIZE PUSH2 0x541 JUMP JUMPDEST PUSH1 0x4 DUP7 ADD DUP13 MSTORE PUSH1 0x20 DUP13 KECCAK256 SWAP2 POP DUP12 DUP15 JUMPDEST DUP12 PUSH1 0x1F NOT DUP3 AND DUP4 LT PUSH2 0xAB0 JUMPI POP PUSH1 0x1F NOT DUP2 AND LT SWAP1 POP PUSH2 0xA96 JUMPI JUMPDEST POP POP PUSH1 0x1 DUP13 DUP2 SHL ADD PUSH1 0x4 DUP6 ADD SSTORE PUSH2 0x559 JUMP JUMPDEST DUP10 ADD CALLDATALOAD PUSH1 0x0 NOT PUSH1 0x3 DUP16 SWAP1 SHL PUSH1 0xF8 AND SHR NOT AND SWAP1 SSTORE CODESIZE DUP1 PUSH2 0xA84 JUMP JUMPDEST PUSH1 0x1 DUP5 SWAP6 PUSH1 0x20 SWAP4 SWAP5 SWAP6 DUP5 SWAP4 ADD CALLDATALOAD DUP2 SSTORE ADD SWAP5 ADD SWAP3 ADD SWAP1 PUSH2 0xA6A JUMP JUMPDEST PUSH1 0x4 DUP6 ADD DUP12 MSTORE PUSH1 0x20 DUP12 KECCAK256 DUP14 PUSH1 0x20 PUSH1 0x1F DUP3 ADD PUSH1 0x5 SHR DUP4 ADD SWAP2 LT PUSH2 0xB09 JUMPI JUMPDEST PUSH1 0x1F DUP4 ADD PUSH1 0x5 SHR DUP3 ADD DUP2 LT PUSH2 0xAFD JUMPI POP POP PUSH2 0x52C JUMP JUMPDEST PUSH1 0x0 DUP2 SSTORE PUSH1 0x1 ADD PUSH2 0xAE7 JUMP JUMPDEST POP DUP1 PUSH2 0xAE7 JUMP JUMPDEST ADD CALLDATALOAD SWAP1 POP CODESIZE DUP1 PUSH2 0x4F0 JUMP JUMPDEST PUSH1 0x3 DUP9 ADD DUP15 MSTORE PUSH1 0x20 DUP15 KECCAK256 DUP15 SWAP5 POP SWAP2 JUMPDEST PUSH1 0x1F NOT DUP5 AND DUP6 LT PUSH2 0xB6F JUMPI PUSH1 0x1 SWAP5 POP DUP4 PUSH1 0x1F NOT DUP2 AND LT PUSH2 0xB55 JUMPI JUMPDEST POP POP POP DUP2 SHL ADD PUSH1 0x3 DUP6 ADD SSTORE PUSH2 0x508 JUMP JUMPDEST ADD CALLDATALOAD PUSH1 0x0 NOT PUSH1 0x3 DUP5 SWAP1 SHL PUSH1 0xF8 AND SHR NOT AND SWAP1 SSTORE CODESIZE DUP1 DUP1 PUSH2 0xB45 JUMP JUMPDEST DUP2 DUP2 ADD CALLDATALOAD DUP4 SSTORE PUSH1 0x20 SWAP5 DUP6 ADD SWAP5 PUSH1 0x1 SWAP1 SWAP4 ADD SWAP3 ADD PUSH2 0xB2A JUMP JUMPDEST SWAP1 SWAP2 POP PUSH1 0x3 DUP8 ADD DUP14 MSTORE PUSH1 0x20 DUP14 KECCAK256 PUSH1 0x1F DUP5 ADD PUSH1 0x5 SHR DUP2 ADD PUSH1 0x20 DUP6 LT PUSH2 0xBD1 JUMPI JUMPDEST SWAP1 DUP5 SWAP4 SWAP3 SWAP2 JUMPDEST PUSH1 0x1F DUP4 ADD PUSH1 0x5 SHR DUP3 ADD DUP2 LT PUSH2 0xBC2 JUMPI POP POP PUSH2 0x4DB JUMP JUMPDEST PUSH1 0x0 DUP2 SSTORE DUP6 SWAP5 POP PUSH1 0x1 ADD PUSH2 0xBAC JUMP JUMPDEST POP DUP1 PUSH2 0xBA6 JUMP JUMPDEST PUSH4 0x4E487B71 PUSH1 0xE0 SHL DUP13 MSTORE PUSH1 0x41 PUSH1 0x4 MSTORE PUSH1 0x24 DUP13 REVERT JUMPDEST PUSH1 0x4 SLOAD PUSH1 0x3 SLOAD PUSH2 0xC0F SWAP2 PUSH2 0x124 CALLDATALOAD SWAP2 PUSH1 0x1 PUSH1 0x1 PUSH1 0xA0 SHL SUB SWAP1 DUP2 AND SWAP2 CALLER SWAP2 AND PUSH2 0x48FC JUMP JUMPDEST PUSH2 0x481 JUMP JUMPDEST SWAP2 POP PUSH1 0x20 DUP4 RETURNDATASIZE PUSH1 0x20 GT PUSH2 0xC47 JUMPI JUMPDEST DUP2 PUSH2 0xC2F PUSH1 0x20 SWAP4 DUP4 PUSH2 0x44A6 JUMP JUMPDEST DUP2 ADD SUB SLT PUSH2 0xC42 JUMPI PUSH2 0x478 SWAP3 MLOAD SWAP2 PUSH2 0x46C JUMP JUMPDEST PUSH1 0x0 DUP1 REVERT JUMPDEST RETURNDATASIZE SWAP2 POP PUSH2 0xC22 JUMP JUMPDEST PUSH1 0x40 MLOAD RETURNDATASIZE DUP16 DUP3 RETURNDATACOPY RETURNDATASIZE SWAP1 REVERT JUMPDEST DUP9 DUP1 REVERT JUMPDEST DUP8 DUP1 REVERT JUMPDEST DUP6 DUP1 REVERT JUMPDEST DUP4 DUP1 REVERT JUMPDEST POP CALLVALUE PUSH2 0x283 JUMPI PUSH1 0x40 CALLDATASIZE PUSH1 0x3 NOT ADD SLT PUSH2 0x283 JUMPI PUSH2 0xCA7 PUSH1 0x4 CALLDATALOAD PUSH2 0xC8A PUSH2 0x42DB JUMP JUMPDEST SWAP1 DUP1 DUP5 MSTORE DUP4 PUSH1 0x20 MSTORE PUSH2 0xCA2 PUSH1 0x1 PUSH1 0x40 DUP7 KECCAK256 ADD SLOAD PUSH2 0x464C JUMP JUMPDEST PUSH2 0x46F0 JUMP JUMPDEST POP DUP1 RETURN JUMPDEST POP CALLVALUE PUSH2 0x283 JUMPI PUSH2 0xCBA CALLDATASIZE PUSH2 0x45C2 JUMP JUMPDEST SWAP1 DUP1 ISZERO ISZERO DUP1 PUSH2 0xE1E JUMPI JUMPDEST PUSH2 0xCCD SWAP1 PUSH2 0x4A73 JUMP JUMPDEST DUP1 DUP4 MSTORE PUSH1 0x7 PUSH1 0x20 MSTORE PUSH1 0x40 DUP4 KECCAK256 PUSH1 0x2 ADD SLOAD PUSH1 0x1 PUSH1 0x1 PUSH1 0xA0 SHL SUB SWAP3 SWAP1 PUSH2 0xCF4 SWAP1 DUP5 AND CALLER EQ PUSH2 0x4BCD JUMP JUMPDEST PUSH2 0xCFC PUSH2 0x49C1 JUMP JUMPDEST PUSH2 0xD04 PUSH2 0x49A3 JUMP JUMPDEST DUP1 ISZERO PUSH2 0xDCD JUMPI DUP2 DUP5 MSTORE PUSH1 0x7 PUSH1 0x20 MSTORE PUSH1 0x40 DUP5 KECCAK256 PUSH1 0xFF PUSH1 0x14 DUP3 ADD SLOAD PUSH1 0x10 SHR AND PUSH1 0xB DUP2 LT ISZERO PUSH2 0xDB9 JUMPI PUSH2 0xD5E SWAP2 PUSH2 0xD3C PUSH1 0x4 PUSH1 0xF SWAP4 EQ PUSH2 0x4C19 JUMP JUMPDEST ADD SWAP2 PUSH2 0xD57 DUP2 DUP5 SLOAD SWAP7 DUP1 PUSH1 0x4 SLOAD AND SWAP1 PUSH1 0x3 SLOAD AND SWAP1 CALLER SWAP1 PUSH2 0x48FC JUMP JUMPDEST DUP3 SLOAD PUSH2 0x4A66 JUMP JUMPDEST DUP1 SWAP2 SSTORE PUSH1 0x40 MLOAD SWAP3 DUP4 MSTORE PUSH1 0x20 DUP4 ADD MSTORE PUSH1 0x80 PUSH1 0x40 DUP4 ADD MSTORE PUSH1 0x3 PUSH1 0x80 DUP4 ADD MSTORE PUSH3 0x185919 PUSH1 0xEA SHL PUSH1 0xA0 DUP4 ADD MSTORE TIMESTAMP PUSH1 0x60 DUP4 ADD MSTORE PUSH32 0x2CF5022BDD8FEFE86D09412967E028FA9A8CF1E1A3989D47DFD9FC64A22AFA86 PUSH1 0xC0 CALLER SWAP4 LOG3 PUSH1 0x1 DUP1 SSTORE DUP1 RETURN JUMPDEST PUSH4 0x4E487B71 PUSH1 0xE0 SHL DUP7 MSTORE PUSH1 0x21 PUSH1 0x4 MSTORE PUSH1 0x24 DUP7 REVERT JUMPDEST PUSH1 0x40 MLOAD PUSH3 0x461BCD PUSH1 0xE5 SHL DUP2 MSTORE PUSH1 0x20 PUSH1 0x4 DUP3 ADD MSTORE PUSH1 0x24 DUP1 DUP3 ADD MSTORE PUSH32 0x4F7074696F6E73436F72653A20616D6F756E74206D75737420626520706F7369 PUSH1 0x44 DUP3 ADD MSTORE PUSH4 0x74697665 PUSH1 0xE0 SHL PUSH1 0x64 DUP3 ADD MSTORE PUSH1 0x84 SWAP1 REVERT JUMPDEST POP PUSH1 0x5 SLOAD DUP2 LT PUSH2 0xCC4 JUMP JUMPDEST POP CALLVALUE PUSH2 0x283 JUMPI PUSH2 0xE38 CALLDATASIZE PUSH2 0x45C2 JUMP JUMPDEST SWAP1 DUP1 ISZERO ISZERO DUP1 PUSH2 0x1009 JUMPI JUMPDEST PUSH2 0xE4B SWAP1 PUSH2 0x4A73 JUMP JUMPDEST DUP1 DUP4 MSTORE PUSH1 0x7 PUSH1 0x20 MSTORE PUSH1 0x40 DUP4 KECCAK256 PUSH1 0x2 ADD SLOAD PUSH1 0x1 PUSH1 0x1 PUSH1 0xA0 SHL SUB SWAP1 PUSH2 0xE71 SWAP1 DUP3 AND CALLER EQ PUSH2 0x4BCD JUMP JUMPDEST PUSH2 0xE79 PUSH2 0x49C1 JUMP JUMPDEST PUSH2 0xE81 PUSH2 0x49A3 JUMP JUMPDEST DUP2 DUP5 MSTORE PUSH1 0x7 PUSH1 0x20 MSTORE PUSH1 0x40 DUP5 KECCAK256 SWAP3 PUSH1 0xFF PUSH1 0x14 DUP6 ADD SLOAD PUSH1 0x10 SHR AND PUSH1 0xB DUP2 LT ISZERO PUSH2 0xDB9 JUMPI PUSH1 0x4 PUSH2 0xEAE SWAP2 EQ PUSH2 0x4C19 JUMP JUMPDEST PUSH1 0xF DUP5 ADD SWAP2 PUSH2 0xEC3 PUSH1 0xE DUP5 SLOAD SWAP7 ADD SLOAD DUP7 PUSH2 0x4C65 JUMP JUMPDEST DUP3 GT PUSH2 0xFAA JUMPI DUP2 PUSH2 0xED5 DUP8 SWAP4 DUP8 PUSH2 0x4C65 JUMP JUMPDEST DUP5 SSTORE DUP2 PUSH1 0x3 SLOAD AND SWAP2 PUSH1 0x4 SLOAD AND SWAP1 DUP3 EXTCODESIZE ISZERO PUSH2 0xC66 JUMPI PUSH1 0x40 MLOAD PUSH4 0x6924FAA7 PUSH1 0xE1 SHL DUP2 MSTORE CALLER PUSH1 0x4 DUP3 ADD MSTORE PUSH1 0x1 PUSH1 0x1 PUSH1 0xA0 SHL SUB SWAP3 SWAP1 SWAP3 AND PUSH1 0x24 DUP4 ADD MSTORE PUSH1 0x44 DUP3 ADD MSTORE SWAP1 DUP3 SWAP1 DUP3 SWAP1 PUSH1 0x64 SWAP1 DUP3 SWAP1 DUP5 SWAP1 GAS CALL DUP1 ISZERO PUSH2 0xF9F JUMPI PUSH2 0xF8B JUMPI JUMPDEST POP POP SLOAD PUSH1 0x40 MLOAD SWAP3 DUP4 MSTORE PUSH1 0x20 DUP4 ADD MSTORE PUSH1 0x80 PUSH1 0x40 DUP4 ADD MSTORE PUSH1 0x8 PUSH1 0x80 DUP4 ADD MSTORE PUSH8 0x7769746864726177 PUSH1 0xC0 SHL PUSH1 0xA0 DUP4 ADD MSTORE TIMESTAMP PUSH1 0x60 DUP4 ADD MSTORE PUSH32 0x2CF5022BDD8FEFE86D09412967E028FA9A8CF1E1A3989D47DFD9FC64A22AFA86 PUSH1 0xC0 CALLER SWAP4 LOG3 PUSH1 0x1 DUP1 SSTORE DUP1 RETURN JUMPDEST PUSH2 0xF94 SWAP1 PUSH2 0x4477 JUMP JUMPDEST PUSH2 0xC66 JUMPI DUP4 CODESIZE PUSH2 0xF2B JUMP JUMPDEST PUSH1 0x40 MLOAD RETURNDATASIZE DUP5 DUP3 RETURNDATACOPY RETURNDATASIZE SWAP1 REVERT JUMPDEST PUSH1 0x40 MLOAD PUSH3 0x461BCD PUSH1 0xE5 SHL DUP2 MSTORE PUSH1 0x20 PUSH1 0x4 DUP3 ADD MSTORE PUSH1 0x31 PUSH1 0x24 DUP3 ADD MSTORE PUSH32 0x4F7074696F6E73436F72653A2063616E6E6F742077697468647261772062656C PUSH1 0x44 DUP3 ADD MSTORE PUSH17 0x37BB9034B734BA34B0B61036B0B933B4B7 PUSH1 0x79 SHL PUSH1 0x64 DUP3 ADD MSTORE PUSH1 0x84 SWAP1 REVERT JUMPDEST POP PUSH1 0x5 SLOAD DUP2 LT PUSH2 0xE42 JUMP JUMPDEST POP CALLVALUE PUSH2 0x283 JUMPI PUSH1 0x20 CALLDATASIZE PUSH1 0x3 NOT ADD SLT PUSH2 0x283 JUMPI DUP1 PUSH2 0x3E0 PUSH1 0x40 MLOAD PUSH2 0x1036 DUP2 PUSH2 0x448A JUMP JUMPDEST DUP3 DUP2 MSTORE DUP3 PUSH1 0x20 DUP3 ADD MSTORE DUP3 PUSH1 0x40 DUP3 ADD MSTORE PUSH1 0x60 DUP1 DUP3 ADD MSTORE PUSH1 0x60 PUSH1 0x80 DUP3 ADD MSTORE PUSH1 0x60 PUSH1 0xA0 DUP3 ADD MSTORE PUSH1 0x60 PUSH1 0xC0 DUP3 ADD MSTORE PUSH1 0x60 PUSH1 0xE0 DUP3 ADD MSTORE DUP3 PUSH2 0x100 DUP3 ADD MSTORE DUP3 PUSH2 0x120 DUP3 ADD MSTORE DUP3 PUSH2 0x140 DUP3 ADD MSTORE DUP3 PUSH2 0x160 DUP3 ADD MSTORE DUP3 PUSH2 0x180 DUP3 ADD MSTORE DUP3 PUSH2 0x1A0 DUP3 ADD MSTORE DUP3 PUSH2 0x1C0 DUP3 ADD MSTORE DUP3 PUSH2 0x1E0 DUP3 ADD MSTORE DUP3 PUSH2 0x200 DUP3 ADD MSTORE DUP3 PUSH2 0x220 DUP3 ADD MSTORE DUP3 PUSH2 0x240 DUP3 ADD MSTORE DUP3 PUSH2 0x260 DUP3 ADD MSTORE DUP3 PUSH2 0x280 DUP3 ADD MSTORE DUP3 PUSH2 0x2A0 DUP3 ADD MSTORE DUP3 PUSH2 0x2C0 DUP3 ADD MSTORE DUP3 PUSH2 0x2E0 DUP3 ADD MSTORE DUP3 PUSH2 0x300 DUP3 ADD MSTORE DUP3 PUSH2 0x320 DUP3 ADD MSTORE DUP3 PUSH2 0x340 DUP3 ADD MSTORE DUP3 PUSH2 0x360 DUP3 ADD MSTORE DUP3 PUSH2 0x380 DUP3 ADD MSTORE DUP3 PUSH2 0x3A0 DUP3 ADD MSTORE DUP3 PUSH2 0x3C0 DUP3 ADD MSTORE ADD MSTORE PUSH1 0x4 CALLDATALOAD DUP2 MSTORE PUSH1 0x7 PUSH1 0x20 MSTORE PUSH1 0x40 DUP2 KECCAK256 PUSH1 0x40 MLOAD SWAP2 PUSH2 0x1125 DUP4 PUSH2 0x448A JUMP JUMPDEST DUP2 SLOAD DUP4 MSTORE PUSH1 0x1 DUP3 ADD SLOAD PUSH1 0x1 PUSH1 0x1 PUSH1 0xA0 SHL SUB SWAP1 DUP2 AND PUSH1 0x20 DUP6 ADD MSTORE PUSH1 0x2 DUP4 ADD SLOAD AND PUSH1 0x40 DUP5 ADD MSTORE PUSH2 0x1155 PUSH1 0x3 DUP4 ADD PUSH2 0x44C7 JUMP JUMPDEST PUSH1 0x60 DUP5 ADD MSTORE PUSH2 0x1166 PUSH1 0x4 DUP4 ADD PUSH2 0x44C7 JUMP JUMPDEST PUSH1 0x80 DUP5 ADD MSTORE PUSH2 0x1177 PUSH1 0x5 DUP4 ADD PUSH2 0x44C7 JUMP JUMPDEST PUSH1 0xA0 DUP5 ADD MSTORE PUSH2 0x1188 PUSH1 0x6 DUP4 ADD PUSH2 0x44C7 JUMP JUMPDEST PUSH1 0xC0 DUP5 ADD MSTORE PUSH2 0x1199 PUSH1 0x7 DUP4 ADD PUSH2 0x44C7 JUMP JUMPDEST PUSH1 0xE0 DUP5 ADD MSTORE PUSH1 0xFF PUSH1 0x8 DUP4 ADD SLOAD AND PUSH2 0x11AF DUP2 PUSH2 0x45AB JUMP JUMPDEST PUSH2 0x100 DUP5 ADD MSTORE PUSH1 0x9 DUP3 ADD SLOAD PUSH2 0x120 DUP5 ADD MSTORE PUSH1 0xA DUP3 ADD SLOAD PUSH2 0x140 DUP5 ADD MSTORE PUSH1 0xB DUP3 ADD SLOAD PUSH2 0x160 DUP5 ADD MSTORE PUSH1 0xC DUP3 ADD SLOAD PUSH2 0x180 DUP5 ADD MSTORE PUSH1 0xD DUP3 ADD SLOAD PUSH2 0x1A0 DUP5 ADD MSTORE PUSH1 0xE DUP3 ADD SLOAD PUSH2 0x1C0 DUP5 ADD MSTORE PUSH1 0xF DUP3 ADD SLOAD PUSH2 0x1E0 DUP5 ADD MSTORE PUSH1 0x10 DUP3 ADD SLOAD PUSH2 0x200 DUP5 ADD MSTORE PUSH1 0x11 DUP3 ADD SLOAD PUSH2 0x121E PUSH1 0xFF DUP3 AND PUSH2 0x436A JUMP JUMPDEST PUSH1 0xFF DUP2 AND PUSH2 0x220 DUP6 ADD MSTORE PUSH1 0xFF DUP2 PUSH1 0x8 SHR AND PUSH2 0x240 DUP6 ADD MSTORE PUSH1 0xFF DUP2 PUSH1 0x10 SHR AND PUSH2 0x260 DUP6 ADD MSTORE PUSH1 0xFF DUP2 PUSH1 0x18 SHR AND PUSH2 0x280 DUP6 ADD MSTORE PUSH2 0x125E PUSH1 0xFF DUP3 PUSH1 0x20 SHR AND PUSH2 0x436A JUMP JUMPDEST PUSH1 0xFF DUP2 PUSH1 0x20 SHR AND PUSH2 0x2A0 DUP6 ADD MSTORE PUSH1 0x1 DUP1 PUSH1 0xA0 SHL SUB SWAP1 PUSH1 0x28 SHR AND PUSH2 0x2C0 DUP5 ADD MSTORE PUSH1 0x12 DUP3 ADD SLOAD PUSH2 0x2E0 DUP5 ADD MSTORE PUSH1 0x13 DUP3 ADD SLOAD PUSH2 0x300 DUP5 ADD MSTORE PUSH1 0x14 DUP3 ADD SLOAD SWAP1 PUSH1 0xFF DUP3 AND ISZERO ISZERO PUSH2 0x320 DUP6 ADD MSTORE PUSH2 0x12B4 PUSH1 0xFF DUP4 PUSH1 0x8 SHR AND PUSH2 0x45AB JUMP JUMPDEST PUSH1 0xFF DUP3 PUSH1 0x8 SHR AND PUSH2 0x340 DUP6 ADD MSTORE PUSH1 0xB PUSH1 0xFF DUP4 PUSH1 0x10 SHR AND LT ISZERO PUSH2 0x151D JUMPI POP SWAP1 PUSH1 0xFF PUSH1 0x18 SWAP3 PUSH1 0x10 SHR AND PUSH2 0x360 DUP5 ADD MSTORE PUSH1 0x15 DUP2 ADD SLOAD PUSH2 0x380 DUP5 ADD MSTORE PUSH1 0x16 DUP2 ADD SLOAD PUSH2 0x3A0 DUP5 ADD MSTORE PUSH1 0x17 DUP2 ADD SLOAD PUSH2 0x3C0 DUP5 ADD MSTORE ADD SLOAD PUSH2 0x3E0 DUP3 ADD MSTORE PUSH1 0x40 MLOAD DUP1 SWAP2 PUSH1 0x20 DUP3 MSTORE DUP1 MLOAD PUSH1 0x20 DUP4 ADD MSTORE PUSH1 0x1 DUP1 PUSH1 0xA0 SHL SUB PUSH1 0x20 DUP3 ADD MLOAD AND PUSH1 0x40 DUP4 ADD MSTORE PUSH1 0x1 DUP1 PUSH1 0xA0 SHL SUB PUSH1 0x40 DUP3 ADD MLOAD AND PUSH1 0x60 DUP4 ADD MSTORE PUSH2 0x3E0 PUSH2 0x13BF PUSH2 0x135F PUSH1 0x60 DUP5 ADD MLOAD PUSH2 0x400 PUSH1 0x80 DUP8 ADD MSTORE PUSH2 0x420 DUP7 ADD SWAP1 PUSH2 0x456B JUMP JUMPDEST PUSH2 0x13A9 PUSH2 0x1395 PUSH2 0x1381 PUSH1 0x80 DUP8 ADD MLOAD SWAP4 PUSH1 0x1F NOT SWAP5 DUP6 DUP11 DUP4 SUB ADD PUSH1 0xA0 DUP12 ADD MSTORE PUSH2 0x456B JUMP JUMPDEST PUSH1 0xA0 DUP8 ADD MLOAD DUP5 DUP10 DUP4 SUB ADD PUSH1 0xC0 DUP11 ADD MSTORE PUSH2 0x456B JUMP JUMPDEST PUSH1 0xC0 DUP7 ADD MLOAD DUP4 DUP9 DUP4 SUB ADD PUSH1 0xE0 DUP10 ADD MSTORE PUSH2 0x456B JUMP JUMPDEST SWAP1 PUSH1 0xE0 DUP6 ADD MLOAD SWAP1 DUP7 DUP4 SUB ADD PUSH2 0x100 DUP8 ADD MSTORE PUSH2 0x456B JUMP JUMPDEST SWAP2 PUSH2 0x100 DUP2 ADD MLOAD PUSH2 0x13CF DUP2 PUSH2 0x45AB JUMP JUMPDEST PUSH2 0x120 DUP6 ADD MSTORE PUSH2 0x120 DUP2 ADD MLOAD PUSH2 0x140 DUP6 ADD MSTORE PUSH2 0x140 DUP2 ADD MLOAD PUSH2 0x160 DUP6 ADD MSTORE PUSH2 0x160 DUP2 ADD MLOAD PUSH2 0x180 DUP6 ADD MSTORE PUSH2 0x180 DUP2 ADD MLOAD PUSH2 0x1A0 DUP6 ADD MSTORE PUSH2 0x1A0 DUP2 ADD MLOAD PUSH2 0x1C0 DUP6 ADD MSTORE PUSH2 0x1C0 DUP2 ADD MLOAD PUSH2 0x1E0 DUP6 ADD MSTORE PUSH2 0x1E0 DUP2 ADD MLOAD PUSH2 0x200 DUP6 ADD MSTORE PUSH2 0x200 DUP2 ADD MLOAD PUSH2 0x220 DUP6 ADD MSTORE PUSH2 0x220 DUP2 ADD MLOAD PUSH2 0x1444 DUP2 PUSH2 0x436A JUMP JUMPDEST PUSH2 0x240 DUP6 ADD MSTORE PUSH1 0xFF PUSH2 0x240 DUP3 ADD MLOAD AND PUSH2 0x260 DUP6 ADD MSTORE PUSH1 0xFF PUSH2 0x260 DUP3 ADD MLOAD AND PUSH2 0x280 DUP6 ADD MSTORE PUSH1 0xFF PUSH2 0x280 DUP3 ADD MLOAD AND PUSH2 0x2A0 DUP6 ADD MSTORE PUSH2 0x2A0 DUP2 ADD MLOAD PUSH2 0x1486 DUP2 PUSH2 0x436A JUMP JUMPDEST PUSH2 0x2C0 DUP6 ADD MSTORE PUSH1 0x1 DUP1 PUSH1 0xA0 SHL SUB PUSH2 0x2C0 DUP3 ADD MLOAD AND PUSH2 0x2E0 DUP6 ADD MSTORE PUSH2 0x2E0 DUP2 ADD MLOAD PUSH2 0x300 DUP6 ADD MSTORE PUSH2 0x300 DUP2 ADD MLOAD PUSH2 0x320 DUP6 ADD MSTORE PUSH2 0x320 DUP2 ADD MLOAD ISZERO ISZERO PUSH2 0x340 DUP6 ADD MSTORE PUSH2 0x340 DUP2 ADD MLOAD PUSH2 0x14D5 DUP2 PUSH2 0x45AB JUMP JUMPDEST PUSH2 0x360 DUP6 ADD MSTORE PUSH2 0x14EF PUSH2 0x360 DUP3 ADD MLOAD PUSH2 0x380 DUP7 ADD SWAP1 PUSH2 0x45B5 JUMP JUMPDEST PUSH2 0x380 DUP2 ADD MLOAD PUSH2 0x3A0 DUP6 ADD MSTORE PUSH2 0x3A0 DUP2 ADD MLOAD PUSH2 0x3C0 DUP6 ADD MSTORE PUSH2 0x3C0 DUP2 ADD MLOAD DUP3 DUP6 ADD MSTORE ADD MLOAD PUSH2 0x400 DUP4 ADD MSTORE SUB SWAP1 RETURN JUMPDEST PUSH4 0x4E487B71 PUSH1 0xE0 SHL DUP2 MSTORE PUSH1 0x21 PUSH1 0x4 MSTORE PUSH1 0x24 SWAP1 REVERT JUMPDEST POP CALLVALUE PUSH2 0x283 JUMPI PUSH1 0x20 SWAP1 DUP2 PUSH1 0x3 NOT CALLDATASIZE ADD SLT PUSH2 0x283 JUMPI PUSH1 0x4 CALLDATALOAD DUP2 MSTORE PUSH1 0x8 DUP1 DUP4 MSTORE PUSH1 0x40 DUP3 KECCAK256 SWAP3 DUP4 SLOAD SWAP2 PUSH1 0x1 PUSH1 0x1 PUSH1 0x40 SHL SUB DUP4 GT PUSH2 0x1782 JUMPI SWAP2 DUP5 SWAP2 SWAP3 PUSH1 0x40 MLOAD SWAP2 PUSH1 0x5 PUSH2 0x157D DUP7 DUP4 DUP4 SHL ADD DUP6 PUSH2 0x44A6 JUMP JUMPDEST DUP2 DUP5 MSTORE DUP6 DUP5 ADD DUP1 SWAP6 DUP9 MSTORE DUP7 DUP9 KECCAK256 SWAP2 DUP9 SWAP2 JUMPDEST DUP5 DUP4 LT PUSH2 0x168A JUMPI POP POP POP POP POP POP PUSH1 0x40 MLOAD SWAP3 DUP1 DUP5 ADD SWAP2 DUP2 DUP6 MSTORE MLOAD DUP1 SWAP3 MSTORE PUSH1 0x40 DUP5 ADD SWAP3 SWAP5 JUMPDEST DUP3 DUP2 LT PUSH2 0x15BE JUMPI DUP5 DUP5 SUB DUP6 RETURN JUMPDEST SWAP1 SWAP2 SWAP3 DUP3 PUSH2 0x1C0 PUSH1 0x1 SWAP3 PUSH2 0x167B DUP10 MLOAD DUP1 MLOAD DUP4 MSTORE DUP5 DUP2 ADD MLOAD DUP6 DUP5 ADD MSTORE DUP6 DUP1 PUSH1 0xA0 SHL SUB PUSH1 0x40 DUP3 ADD MLOAD AND PUSH1 0x40 DUP5 ADD MSTORE PUSH1 0x60 DUP1 DUP3 ADD MLOAD SWAP1 PUSH2 0x15FA DUP3 PUSH2 0x436A JUMP JUMPDEST DUP5 ADD MSTORE PUSH1 0x80 DUP1 DUP3 ADD MLOAD SWAP1 DUP5 ADD MSTORE PUSH1 0xA0 DUP1 DUP3 ADD MLOAD SWAP1 DUP5 ADD MSTORE PUSH1 0xC0 DUP1 DUP3 ADD MLOAD SWAP1 DUP5 ADD MSTORE PUSH1 0xE0 DUP2 ADD MLOAD PUSH1 0xE0 DUP5 ADD MSTORE PUSH2 0x100 DUP1 DUP3 ADD MLOAD SWAP1 PUSH2 0x1636 DUP3 PUSH2 0x436A JUMP JUMPDEST DUP5 ADD MSTORE PUSH1 0xFF PUSH2 0x120 DUP2 DUP2 DUP5 ADD MLOAD AND SWAP1 DUP6 ADD MSTORE PUSH2 0x140 SWAP1 DUP2 DUP4 ADD MLOAD AND SWAP1 DUP5 ADD MSTORE PUSH2 0x160 DUP1 DUP3 ADD MLOAD SWAP1 DUP5 ADD MSTORE PUSH2 0x180 DUP1 DUP3 ADD MLOAD SWAP1 DUP5 ADD MSTORE PUSH2 0x1A0 DUP1 SWAP2 ADD MLOAD SWAP1 DUP4 ADD SWAP1 PUSH2 0x4374 JUMP JUMPDEST ADD SWAP7 ADD SWAP2 ADD SWAP5 SWAP3 SWAP2 SWAP1 SWAP5 PUSH2 0x15B1 JUMP JUMPDEST PUSH1 0x40 SWAP10 SWAP9 SWAP7 SWAP8 SWAP10 MLOAD PUSH2 0x169B DUP2 PUSH2 0x4445 JUMP JUMPDEST DUP5 SLOAD DUP2 MSTORE PUSH1 0x1 DUP6 ADD SLOAD DUP9 DUP3 ADD MSTORE PUSH1 0x2 DUP6 ADD SLOAD PUSH1 0x1 PUSH1 0x1 PUSH1 0xA0 SHL SUB DUP2 AND PUSH1 0x40 DUP4 ADD MSTORE PUSH1 0xFF SWAP1 PUSH1 0xA0 SWAP1 DUP2 SHR DUP3 AND PUSH2 0x16CF DUP2 PUSH2 0x436A JUMP JUMPDEST PUSH1 0x60 DUP5 ADD MSTORE PUSH1 0x3 DUP8 ADD SLOAD PUSH1 0x80 DUP5 ADD MSTORE PUSH1 0x4 DUP8 ADD SLOAD SWAP1 DUP4 ADD MSTORE DUP4 DUP7 ADD SLOAD PUSH1 0xC0 DUP4 ADD MSTORE PUSH1 0x6 DUP7 ADD SLOAD PUSH1 0xE0 DUP4 ADD MSTORE DUP1 PUSH1 0x7 DUP8 ADD SLOAD DUP2 DUP2 AND PUSH2 0x170C DUP2 PUSH2 0x436A JUMP JUMPDEST PUSH2 0x100 DUP6 ADD MSTORE DUP2 DUP2 DUP12 SHR AND PUSH2 0x120 DUP6 ADD MSTORE PUSH1 0x10 SHR AND PUSH2 0x140 DUP4 ADD MSTORE DUP8 DUP7 ADD SLOAD PUSH2 0x160 DUP4 ADD MSTORE PUSH1 0x9 DUP7 ADD SLOAD PUSH2 0x180 DUP4 ADD MSTORE PUSH1 0xA DUP7 ADD SLOAD AND PUSH1 0x4 DUP2 LT ISZERO PUSH2 0x176C JUMPI PUSH1 0x1 SWAP3 DUP3 DUP11 SWAP3 PUSH2 0x1A0 PUSH1 0xB SWAP6 ADD MSTORE DUP2 MSTORE ADD SWAP5 ADD SWAP3 ADD SWAP2 SWAP3 SWAP9 SWAP7 SWAP6 SWAP8 SWAP9 PUSH2 0x158E JUMP JUMPDEST PUSH4 0x4E487B71 PUSH1 0xE0 SHL PUSH1 0x0 MSTORE PUSH1 0x21 PUSH1 0x4 MSTORE PUSH1 0x24 PUSH1 0x0 REVERT JUMPDEST PUSH4 0x4E487B71 PUSH1 0xE0 SHL DUP5 MSTORE PUSH1 0x41 PUSH1 0x4 MSTORE PUSH1 0x24 DUP5 REVERT JUMPDEST POP CALLVALUE PUSH2 0x283 JUMPI PUSH1 0x20 DUP1 PUSH1 0x3 NOT CALLDATASIZE ADD SLT PUSH2 0x305 JUMPI PUSH1 0x4 CALLDATALOAD PUSH1 0x1 PUSH1 0x1 PUSH1 0x40 SHL SUB DUP2 GT PUSH2 0x27F JUMPI PUSH2 0x17C9 DUP3 SWAP2 CALLDATASIZE SWAP1 PUSH1 0x4 ADD PUSH2 0x4298 JUMP JUMPDEST SWAP2 SWAP1 DUP3 PUSH1 0x40 MLOAD SWAP4 DUP5 SWAP3 DUP4 CALLDATACOPY DUP2 ADD PUSH1 0xC DUP2 MSTORE SUB ADD SWAP1 KECCAK256 SWAP2 PUSH1 0x40 MLOAD DUP1 SWAP3 DUP1 DUP6 SLOAD SWAP3 DUP4 DUP2 MSTORE ADD SWAP5 DUP4 MSTORE DUP1 DUP4 KECCAK256 SWAP3 SWAP1 JUMPDEST DUP3 DUP3 LT PUSH2 0x180C JUMPI PUSH2 0x27B DUP6 PUSH2 0x2E2 DUP2 DUP10 SUB DUP3 PUSH2 0x44A6 JUMP JUMPDEST DUP4 SLOAD DUP7 MSTORE SWAP5 DUP6 ADD SWAP5 PUSH1 0x1 SWAP4 DUP5 ADD SWAP4 SWAP1 SWAP2 ADD SWAP1 PUSH2 0x17F5 JUMP JUMPDEST POP CALLVALUE PUSH2 0x283 JUMPI PUSH1 0x20 DUP1 PUSH1 0x3 NOT CALLDATASIZE ADD SLT PUSH2 0x305 JUMPI PUSH1 0x4 CALLDATALOAD SWAP1 DUP2 ISZERO ISZERO DUP1 PUSH2 0x19DC JUMPI JUMPDEST PUSH2 0x184C SWAP1 PUSH2 0x4A73 JUMP JUMPDEST DUP2 DUP4 MSTORE PUSH1 0x7 DUP2 MSTORE PUSH2 0x186D PUSH1 0x1 DUP1 PUSH1 0xA0 SHL SUB PUSH1 0x1 PUSH1 0x40 DUP7 KECCAK256 ADD SLOAD AND CALLER EQ PUSH2 0x49E4 JUMP JUMPDEST PUSH2 0x1875 PUSH2 0x49C1 JUMP JUMPDEST PUSH2 0x187D PUSH2 0x49A3 JUMP JUMPDEST DUP2 DUP4 MSTORE PUSH1 0x7 DUP2 MSTORE PUSH1 0x14 PUSH1 0x40 DUP5 KECCAK256 ADD SWAP1 DUP2 SLOAD SWAP2 PUSH1 0xFF DUP4 PUSH1 0x10 SHR AND SWAP3 PUSH1 0xB DUP5 LT ISZERO PUSH2 0xDB9 JUMPI DUP4 ISZERO DUP1 ISZERO PUSH2 0x19D2 JUMPI JUMPDEST ISZERO PUSH2 0x197E JUMPI SWAP2 PUSH1 0xA SWAP2 PUSH3 0xA0000 PUSH1 0x0 DUP1 MLOAD PUSH1 0x20 PUSH2 0x4C84 DUP4 CODECOPY DUP2 MLOAD SWAP2 MSTORE SWAP6 SWAP5 PUSH3 0xFF0000 NOT AND OR SWAP1 SSTORE DUP5 PUSH32 0xB848A62EF7171019D243ED8F5B8E1E6C32CAFED0B7FC99DA26CB2FC2E7D533EC PUSH1 0x40 MLOAD PUSH1 0x40 DUP2 MSTORE DUP1 PUSH2 0x1924 PUSH1 0x40 DUP3 ADD PUSH1 0x40 SWAP1 PUSH1 0xF DUP2 MSTORE PUSH15 0x189D5E595C8818D85B98D95B1B1959 PUSH1 0x8A SHL PUSH1 0x20 DUP3 ADD MSTORE ADD SWAP1 JUMP JUMPDEST TIMESTAMP DUP7 DUP4 ADD MSTORE SUB SWAP1 LOG2 PUSH2 0x1939 PUSH1 0x40 MLOAD DUP1 SWAP5 PUSH2 0x45B5 JUMP JUMPDEST DUP3 ADD MSTORE PUSH1 0x80 PUSH1 0x40 DUP3 ADD MSTORE DUP1 PUSH2 0x196E PUSH1 0x80 DUP3 ADD PUSH1 0x40 SWAP1 PUSH1 0xF DUP2 MSTORE PUSH15 0x189D5E595C8818D85B98D95B1B1959 PUSH1 0x8A SHL PUSH1 0x20 DUP3 ADD MSTORE ADD SWAP1 JUMP JUMPDEST TIMESTAMP PUSH1 0x60 DUP4 ADD MSTORE SUB SWAP1 LOG2 PUSH1 0x1 DUP1 SSTORE DUP1 RETURN JUMPDEST PUSH1 0x40 MLOAD PUSH3 0x461BCD PUSH1 0xE5 SHL DUP2 MSTORE PUSH1 0x4 DUP2 ADD DUP5 SWAP1 MSTORE PUSH1 0x26 PUSH1 0x24 DUP3 ADD MSTORE PUSH32 0x4F7074696F6E73436F72653A2063616E6E6F742063616E63656C206166746572 PUSH1 0x44 DUP3 ADD MSTORE PUSH6 0x40DAC2E8C6D PUSH1 0xD3 SHL PUSH1 0x64 DUP3 ADD MSTORE PUSH1 0x84 SWAP1 REVERT JUMPDEST POP PUSH1 0x1 DUP5 EQ PUSH2 0x18A9 JUMP JUMPDEST POP PUSH1 0x5 SLOAD DUP3 LT PUSH2 0x1843 JUMP JUMPDEST POP CALLVALUE PUSH2 0x283 JUMPI PUSH1 0x20 CALLDATASIZE PUSH1 0x3 NOT ADD SLT PUSH2 0x283 JUMPI PUSH2 0x1A01 PUSH2 0x42C5 JUMP JUMPDEST PUSH2 0x1A09 PUSH2 0x45F4 JUMP JUMPDEST PUSH1 0x1 DUP1 PUSH1 0xA0 SHL SUB AND PUSH12 0xFFFFFFFFFFFFFFFFFFFFFFFF PUSH1 0xA0 SHL PUSH1 0x3 SLOAD AND OR PUSH1 0x3 SSTORE DUP1 RETURN JUMPDEST POP CALLVALUE PUSH2 0x283 JUMPI PUSH1 0x20 CALLDATASIZE PUSH1 0x3 NOT ADD SLT PUSH2 0x283 JUMPI PUSH1 0x4 CALLDATALOAD DUP2 MSTORE PUSH1 0x7 PUSH1 0x20 MSTORE PUSH1 0x40 SWAP1 KECCAK256 PUSH2 0x220 DUP2 SWAP1 MSTORE DUP1 SLOAD PUSH1 0x80 MSTORE PUSH1 0x1 DUP2 ADD SLOAD PUSH1 0x2 DUP3 ADD SLOAD PUSH1 0x1 PUSH1 0x1 PUSH1 0xA0 SHL SUB SWAP1 DUP2 AND PUSH1 0xA0 MSTORE AND SWAP1 PUSH2 0x1A7D SWAP1 PUSH1 0x3 ADD PUSH2 0x44C7 JUMP JUMPDEST PUSH2 0x120 MSTORE PUSH2 0x220 MLOAD PUSH1 0x4 ADD PUSH2 0x1A91 SWAP1 PUSH2 0x44C7 JUMP JUMPDEST PUSH2 0x220 MLOAD PUSH1 0x5 ADD PUSH2 0x1AA1 SWAP1 PUSH2 0x44C7 JUMP JUMPDEST SWAP2 PUSH2 0x220 MLOAD PUSH1 0x6 ADD PUSH2 0x1AB2 SWAP1 PUSH2 0x44C7 JUMP JUMPDEST SWAP2 PUSH2 0x220 MLOAD PUSH1 0x7 ADD PUSH2 0x1AC3 SWAP1 PUSH2 0x44C7 JUMP JUMPDEST SWAP4 PUSH2 0x220 MLOAD SWAP4 PUSH1 0x8 DUP6 ADD SLOAD PUSH1 0xFF AND PUSH2 0x200 MSTORE PUSH1 0x9 DUP6 ADD SLOAD SWAP6 PUSH1 0xA DUP7 ADD SLOAD PUSH1 0xB DUP8 ADD SLOAD SWAP2 PUSH1 0xC DUP9 ADD SLOAD SWAP4 PUSH1 0xD DUP10 ADD SLOAD SWAP6 PUSH1 0xE DUP11 ADD SLOAD SWAP8 PUSH1 0xF DUP12 ADD SLOAD SWAP10 PUSH1 0x10 DUP13 ADD SLOAD SWAP12 PUSH1 0x11 DUP2 ADD SLOAD PUSH2 0x160 MSTORE PUSH1 0x12 DUP2 ADD SLOAD PUSH2 0x140 MSTORE PUSH1 0x13 DUP2 ADD SLOAD PUSH2 0x1A0 MSTORE PUSH1 0x14 DUP2 ADD SLOAD PUSH2 0x180 MSTORE PUSH1 0x15 DUP2 ADD SLOAD PUSH1 0xE0 MSTORE PUSH1 0x16 DUP2 ADD SLOAD PUSH2 0x100 MSTORE PUSH1 0x17 DUP2 ADD SLOAD PUSH2 0x1C0 MSTORE PUSH1 0x18 ADD SLOAD PUSH1 0xC0 MSTORE PUSH1 0x40 MLOAD DUP1 PUSH2 0x1E0 MSTORE PUSH1 0x80 MLOAD SWAP1 MSTORE PUSH2 0x1E0 MLOAD PUSH1 0x20 ADD MSTORE PUSH1 0xA0 MLOAD PUSH2 0x1E0 MLOAD PUSH1 0x40 ADD MSTORE PUSH2 0x400 DUP1 PUSH2 0x1E0 MLOAD PUSH1 0x60 ADD MSTORE PUSH2 0x1E0 MLOAD ADD PUSH2 0x120 MLOAD SWAP1 PUSH2 0x1B88 SWAP2 PUSH2 0x456B JUMP JUMPDEST PUSH2 0x1E0 MLOAD DUP1 DUP3 SUB SWAP1 PUSH1 0x80 ADD MSTORE PUSH2 0x1B9D SWAP2 PUSH2 0x456B JUMP JUMPDEST PUSH2 0x1E0 MLOAD DUP1 DUP3 SUB SWAP1 PUSH1 0xA0 ADD MSTORE PUSH2 0x1BB2 SWAP2 PUSH2 0x456B JUMP JUMPDEST PUSH2 0x1E0 MLOAD DUP1 DUP3 SUB SWAP1 PUSH1 0xC0 ADD MSTORE PUSH2 0x1BC7 SWAP2 PUSH2 0x456B JUMP JUMPDEST PUSH2 0x1E0 MLOAD DUP1 DUP3 SUB SWAP1 PUSH1 0xE0 ADD MSTORE PUSH2 0x1BDC SWAP2 PUSH2 0x456B JUMP JUMPDEST SWAP8 PUSH2 0x200 MLOAD PUSH2 0x1BEA SWAP1 PUSH2 0x45AB JUMP JUMPDEST PUSH2 0x200 MLOAD PUSH2 0x1E0 MLOAD PUSH2 0x100 ADD MSTORE PUSH2 0x1E0 MLOAD PUSH2 0x120 ADD MSTORE PUSH2 0x1E0 MLOAD PUSH2 0x140 ADD MSTORE PUSH2 0x1E0 MLOAD PUSH2 0x160 ADD MSTORE PUSH2 0x1E0 MLOAD PUSH2 0x180 ADD MSTORE PUSH2 0x1E0 MLOAD PUSH2 0x1A0 ADD MSTORE PUSH2 0x1E0 MLOAD PUSH2 0x1C0 ADD MSTORE PUSH2 0x1E0 MLOAD PUSH2 0x1E0 ADD MSTORE PUSH2 0x1E0 MLOAD PUSH2 0x200 ADD MSTORE PUSH2 0x160 MLOAD PUSH1 0xFF AND PUSH2 0x1C4F SWAP1 PUSH2 0x436A JUMP JUMPDEST PUSH2 0x160 MLOAD PUSH1 0xFF AND PUSH2 0x1E0 MLOAD PUSH2 0x220 ADD MSTORE PUSH2 0x160 MLOAD PUSH1 0x8 SHR PUSH1 0xFF AND PUSH2 0x1E0 MLOAD PUSH2 0x240 ADD MSTORE PUSH2 0x160 MLOAD PUSH1 0x10 SHR PUSH1 0xFF AND PUSH2 0x1E0 MLOAD PUSH2 0x260 ADD MSTORE PUSH2 0x160 MLOAD PUSH1 0x18 SHR PUSH1 0xFF AND PUSH2 0x1E0 MLOAD PUSH2 0x280 ADD MSTORE PUSH2 0x160 MLOAD PUSH1 0x20 SHR PUSH1 0xFF AND PUSH2 0x1CAB SWAP1 PUSH2 0x436A JUMP JUMPDEST PUSH2 0x160 MLOAD PUSH1 0x20 SHR PUSH1 0xFF AND PUSH2 0x1E0 MLOAD PUSH2 0x2A0 ADD MSTORE PUSH1 0x1 PUSH1 0xA0 SHL PUSH1 0x1 SWAP1 SUB PUSH2 0x160 MLOAD PUSH1 0x28 SHR AND PUSH2 0x1E0 MLOAD PUSH2 0x2C0 ADD MSTORE PUSH2 0x140 MLOAD PUSH2 0x1E0 MLOAD PUSH2 0x2E0 ADD MSTORE PUSH2 0x1A0 MLOAD PUSH2 0x1E0 MLOAD PUSH2 0x300 ADD MSTORE PUSH2 0x180 MLOAD PUSH1 0xFF AND ISZERO ISZERO PUSH2 0x1E0 MLOAD PUSH2 0x320 ADD MSTORE PUSH2 0x180 MLOAD PUSH1 0x8 SHR PUSH1 0xFF AND PUSH2 0x1D17 SWAP1 PUSH2 0x45AB JUMP JUMPDEST PUSH2 0x180 MLOAD PUSH1 0x8 SHR PUSH1 0xFF AND PUSH2 0x1E0 MLOAD PUSH2 0x340 ADD MSTORE PUSH2 0x1E0 MLOAD PUSH2 0x360 ADD PUSH2 0x180 MLOAD PUSH1 0x10 SHR PUSH1 0xFF AND SWAP1 PUSH2 0x1D46 SWAP2 PUSH2 0x45B5 JUMP JUMPDEST PUSH1 0xE0 MLOAD PUSH2 0x1E0 MLOAD PUSH2 0x380 ADD MSTORE PUSH2 0x100 MLOAD PUSH2 0x1E0 MLOAD PUSH2 0x3A0 ADD MSTORE PUSH2 0x1C0 MLOAD PUSH2 0x1E0 MLOAD PUSH2 0x3C0 ADD MSTORE PUSH1 0xC0 MLOAD PUSH2 0x1E0 MLOAD PUSH2 0x3E0 ADD MSTORE PUSH2 0x1E0 MLOAD DUP1 SWAP2 SUB SWAP1 RETURN JUMPDEST POP CALLVALUE PUSH2 0x283 JUMPI PUSH1 0x20 CALLDATASIZE PUSH1 0x3 NOT ADD SLT PUSH2 0x283 JUMPI PUSH1 0x40 SWAP1 PUSH1 0x4 CALLDATALOAD DUP2 MSTORE PUSH1 0x9 PUSH1 0x20 MSTORE KECCAK256 DUP1 SLOAD SWAP1 PUSH2 0x27B PUSH1 0x1 DUP3 ADD SLOAD PUSH1 0x2 DUP4 ADD SLOAD SWAP3 PUSH1 0x3 DUP2 ADD SLOAD SWAP5 PUSH1 0x4 DUP3 ADD SLOAD SWAP3 PUSH1 0x5 DUP4 ADD SLOAD SWAP2 PUSH1 0x6 DUP5 ADD SLOAD SWAP1 PUSH1 0x7 DUP6 ADD SLOAD SWAP2 PUSH1 0x8 DUP7 ADD SLOAD SWAP5 PUSH1 0xFF PUSH1 0xA PUSH1 0x9 DUP10 ADD SLOAD SWAP9 ADD SLOAD AND SWAP8 PUSH1 0x40 MLOAD SWAP12 DUP13 SWAP12 DUP13 PUSH1 0xFF DUP9 PUSH1 0x10 SHR AND SWAP9 PUSH1 0xFF DUP1 DUP11 PUSH1 0x8 SHR AND SWAP10 AND SWAP8 PUSH1 0xFF DUP5 PUSH1 0xA0 SHR AND SWAP4 PUSH1 0x1 DUP1 PUSH1 0xA0 SHL SUB AND SWAP3 PUSH2 0x4381 JUMP JUMPDEST POP CALLVALUE PUSH2 0x283 JUMPI PUSH1 0x20 DUP1 PUSH1 0x3 NOT CALLDATASIZE ADD SLT PUSH2 0x305 JUMPI PUSH1 0x1 PUSH1 0x1 PUSH1 0xA0 SHL SUB PUSH2 0x1E38 PUSH2 0x42C5 JUMP JUMPDEST AND DUP3 MSTORE PUSH1 0xA DUP2 MSTORE PUSH1 0x40 DUP3 KECCAK256 SWAP2 PUSH1 0x40 MLOAD DUP1 SWAP3 DUP1 DUP6 SLOAD SWAP3 DUP4 DUP2 MSTORE ADD SWAP5 DUP4 MSTORE DUP1 DUP4 KECCAK256 SWAP3 SWAP1 JUMPDEST DUP3 DUP3 LT PUSH2 0x1E71 JUMPI PUSH2 0x27B DUP6 PUSH2 0x2E2 DUP2 DUP10 SUB DUP3 PUSH2 0x44A6 JUMP JUMPDEST DUP4 SLOAD DUP7 MSTORE SWAP5 DUP6 ADD SWAP5 PUSH1 0x1 SWAP4 DUP5 ADD SWAP4 SWAP1 SWAP2 ADD SWAP1 PUSH2 0x1E5A JUMP JUMPDEST POP CALLVALUE PUSH2 0x283 JUMPI DUP1 PUSH1 0x3 NOT CALLDATASIZE ADD SLT PUSH2 0x283 JUMPI PUSH1 0x20 SWAP1 PUSH1 0x40 MLOAD SWAP1 DUP2 MSTORE RETURN JUMPDEST POP CALLVALUE PUSH2 0x283 JUMPI PUSH1 0x40 CALLDATASIZE PUSH1 0x3 NOT ADD SLT PUSH2 0x283 JUMPI PUSH1 0x40 PUSH2 0x1EC0 PUSH2 0x42DB JUMP JUMPDEST SWAP2 PUSH1 0x4 CALLDATALOAD DUP2 MSTORE DUP1 PUSH1 0x20 MSTORE KECCAK256 SWAP1 PUSH1 0x1 DUP1 PUSH1 0xA0 SHL SUB AND PUSH1 0x0 MSTORE PUSH1 0x20 MSTORE PUSH1 0x20 PUSH1 0xFF PUSH1 0x40 PUSH1 0x0 KECCAK256 SLOAD AND PUSH1 0x40 MLOAD SWAP1 ISZERO ISZERO DUP2 MSTORE RETURN JUMPDEST POP CALLVALUE PUSH2 0x283 JUMPI PUSH1 0x20 CALLDATASIZE PUSH1 0x3 NOT ADD SLT PUSH2 0x283 JUMPI PUSH1 0x4 CALLDATALOAD ISZERO ISZERO DUP1 PUSH2 0x2401 JUMPI JUMPDEST PUSH2 0x1F15 SWAP1 PUSH2 0x4A73 JUMP JUMPDEST PUSH2 0x1F1D PUSH2 0x49C1 JUMP JUMPDEST PUSH2 0x1F25 PUSH2 0x49A3 JUMP JUMPDEST PUSH1 0x4 CALLDATALOAD DUP2 MSTORE PUSH1 0x7 PUSH1 0x20 MSTORE PUSH1 0x40 DUP2 KECCAK256 PUSH1 0x14 DUP2 ADD SWAP1 PUSH1 0xFF DUP3 SLOAD PUSH1 0x10 SHR AND PUSH1 0xB DUP2 LT ISZERO PUSH2 0x23ED JUMPI PUSH1 0x6 SUB PUSH2 0x239C JUMPI PUSH1 0x18 DUP2 ADD SLOAD SWAP2 DUP3 ISZERO PUSH2 0x2357 JUMPI PUSH2 0x1F68 PUSH1 0x7 DUP4 ADD PUSH2 0x44C7 JUMP JUMPDEST SWAP4 DUP1 SWAP5 DUP2 SWAP4 DUP3 SWAP4 DUP4 JUMPDEST DUP4 MLOAD DUP2 LT ISZERO PUSH2 0x207A JUMPI PUSH1 0x1 PUSH1 0x1 PUSH1 0xF8 SHL SUB NOT PUSH1 0x17 PUSH1 0xF9 SHL DUP2 PUSH2 0x1F93 DUP5 DUP9 PUSH2 0x4C72 JUMP JUMPDEST MLOAD AND EQ PUSH2 0x206C JUMPI PUSH1 0x3 PUSH1 0xFC SHL DUP2 PUSH2 0x1FAA DUP5 DUP9 PUSH2 0x4C72 JUMP JUMPDEST MLOAD AND LT ISZERO SWAP1 DUP2 PUSH2 0x2051 JUMPI JUMPDEST POP PUSH2 0x1FC9 JUMPI JUMPDEST PUSH2 0x1FC4 SWAP1 PUSH2 0x4865 JUMP JUMPDEST PUSH2 0x1F71 JUMP JUMPDEST DUP9 PUSH1 0xA DUP2 SWAP10 SWAP9 SWAP8 SWAP10 MUL DIV PUSH1 0xA EQ DUP10 ISZERO OR ISZERO PUSH2 0x203D JUMPI PUSH1 0x2F NOT PUSH2 0x1FEB DUP3 DUP7 PUSH2 0x4C72 JUMP JUMPDEST MLOAD PUSH1 0xF8 SHR ADD PUSH1 0xFF DUP2 GT PUSH2 0x2029 JUMPI DUP9 SWAP10 PUSH1 0xA PUSH1 0xFF PUSH2 0x200E SWAP4 SWAP12 SWAP10 SWAP11 SWAP12 AND SWAP2 MUL PUSH2 0x4A66 JUMP JUMPDEST SWAP9 ISZERO PUSH2 0x1FBB JUMPI SWAP6 PUSH2 0x2021 PUSH2 0x1FC4 SWAP2 PUSH2 0x4865 JUMP JUMPDEST SWAP7 SWAP1 POP PUSH2 0x1FBB JUMP JUMPDEST PUSH4 0x4E487B71 PUSH1 0xE0 SHL DUP7 MSTORE PUSH1 0x11 PUSH1 0x4 MSTORE PUSH1 0x24 DUP7 REVERT JUMPDEST PUSH4 0x4E487B71 PUSH1 0xE0 SHL DUP6 MSTORE PUSH1 0x11 PUSH1 0x4 MSTORE PUSH1 0x24 DUP6 REVERT JUMPDEST PUSH1 0x39 PUSH1 0xF8 SHL SWAP2 POP PUSH2 0x2062 DUP4 DUP8 PUSH2 0x4C72 JUMP JUMPDEST MLOAD AND GT ISZERO CODESIZE PUSH2 0x1FB5 JUMP JUMPDEST POP SWAP5 POP PUSH2 0x1FC4 PUSH1 0x1 SWAP6 PUSH2 0x4865 JUMP JUMPDEST DUP5 DUP4 DUP4 DUP11 DUP13 DUP12 PUSH1 0x12 DUP2 LT PUSH2 0x2330 JUMPI JUMPDEST POP DUP5 SWAP2 PUSH1 0xFF PUSH1 0x8 DUP7 ADD SLOAD AND PUSH2 0x209D DUP2 PUSH2 0x45AB JUMP JUMPDEST PUSH2 0x2308 JUMPI DUP2 DUP2 GT PUSH2 0x22DF JUMPI JUMPDEST POP POP JUMPDEST DUP4 DUP2 ISZERO PUSH2 0x22D2 JUMPI POP PUSH1 0xF DUP4 ADD SLOAD SWAP1 DUP2 DUP2 GT PUSH2 0x22CB JUMPI JUMPDEST DUP1 PUSH2 0x20CD SWAP2 SWAP3 PUSH2 0x4C65 JUMP JUMPDEST SWAP3 JUMPDEST DUP2 PUSH2 0x2219 JUMPI JUMPDEST DUP4 PUSH2 0x218B JUMPI JUMPDEST SWAP1 PUSH1 0xFF SWAP4 DUP4 SWAP3 PUSH2 0x2143 SWAP5 SLOAD SWAP4 PUSH3 0x80000 PUSH3 0xFF0000 NOT DUP7 AND OR SWAP1 SSTORE PUSH1 0x17 TIMESTAMP SWAP2 ADD SSTORE PUSH1 0x40 MLOAD SWAP2 DUP3 MSTORE PUSH1 0x20 DUP3 ADD MSTORE TIMESTAMP PUSH1 0x40 DUP3 ADD MSTORE PUSH32 0x6DA40291EEB646B436D05C420B5B9F010D81DF95BCE846D2C3B3D45F56DF19EC PUSH1 0x60 PUSH1 0x4 CALLDATALOAD SWAP3 LOG2 PUSH1 0x40 MLOAD SWAP3 DUP4 SWAP2 PUSH1 0x10 SHR AND PUSH2 0x45B5 JUMP JUMPDEST PUSH1 0x8 PUSH1 0x20 DUP3 ADD MSTORE PUSH1 0x80 PUSH1 0x40 DUP3 ADD MSTORE PUSH1 0x7 PUSH1 0x80 DUP3 ADD MSTORE PUSH7 0x1CD95D1D1B1959 PUSH1 0xCA SHL PUSH1 0xA0 DUP3 ADD MSTORE TIMESTAMP PUSH1 0x60 DUP3 ADD MSTORE PUSH1 0x0 DUP1 MLOAD PUSH1 0x20 PUSH2 0x4C84 DUP4 CODECOPY DUP2 MLOAD SWAP2 MSTORE PUSH1 0xC0 PUSH1 0x4 CALLDATALOAD SWAP3 LOG2 PUSH1 0x1 DUP1 SSTORE DUP1 RETURN JUMPDEST PUSH1 0x3 SLOAD PUSH1 0x2 DUP3 ADD SLOAD PUSH1 0x4 SLOAD DUP8 SWAP3 PUSH1 0x1 PUSH1 0x1 PUSH1 0xA0 SHL SUB SWAP1 DUP2 AND SWAP3 SWAP2 DUP2 AND SWAP2 AND DUP3 EXTCODESIZE ISZERO PUSH2 0xC66 JUMPI PUSH1 0x40 MLOAD PUSH4 0x6924FAA7 PUSH1 0xE1 SHL DUP2 MSTORE PUSH1 0x1 PUSH1 0x1 PUSH1 0xA0 SHL SUB SWAP2 DUP3 AND PUSH1 0x4 DUP3 ADD MSTORE SWAP2 AND PUSH1 0x24 DUP3 ADD MSTORE PUSH1 0x44 DUP2 ADD DUP8 SWAP1 MSTORE SWAP1 DUP3 SWAP1 DUP3 SWAP1 PUSH1 0x64 SWAP1 DUP3 SWAP1 DUP5 SWAP1 GAS CALL DUP1 ISZERO PUSH2 0xF9F JUMPI PUSH2 0x21FB JUMPI JUMPDEST POP POP PUSH2 0x20DB JUMP JUMPDEST PUSH2 0x2208 SWAP1 SWAP5 SWAP4 SWAP3 SWAP5 PUSH2 0x4477 JUMP JUMPDEST PUSH2 0x2215 JUMPI SWAP1 SWAP2 DUP5 DUP7 PUSH2 0x21F4 JUMP JUMPDEST DUP5 DUP1 REVERT JUMPDEST PUSH1 0x3 SLOAD PUSH1 0x2 DUP3 ADD SLOAD PUSH1 0x1 DUP4 ADD SLOAD PUSH1 0x4 SLOAD PUSH1 0x1 PUSH1 0x1 PUSH1 0xA0 SHL SUB SWAP1 DUP2 AND SWAP4 DUP10 SWAP4 SWAP3 DUP3 AND SWAP3 SWAP1 DUP3 AND SWAP2 AND DUP2 EXTCODESIZE ISZERO PUSH2 0xC66 JUMPI DUP4 PUSH1 0xE4 SWAP3 PUSH1 0x40 MLOAD SWAP7 DUP8 SWAP6 DUP7 SWAP5 PUSH4 0x5FE3A8B PUSH1 0xE3 SHL DUP7 MSTORE PUSH1 0x4 DUP7 ADD MSTORE PUSH1 0x24 DUP6 ADD MSTORE PUSH1 0x44 DUP5 ADD MSTORE DUP9 PUSH1 0x64 DUP5 ADD MSTORE PUSH1 0xA0 PUSH1 0x84 DUP5 ADD MSTORE PUSH1 0x11 PUSH1 0xA4 DUP5 ADD MSTORE PUSH17 0x1CD95D1D1B195B595B9D081C185E5BDD5D PUSH1 0x7A SHL PUSH1 0xC4 DUP5 ADD MSTORE GAS CALL DUP1 ISZERO PUSH2 0x22C0 JUMPI PUSH2 0x22AD JUMPI JUMPDEST POP PUSH2 0x20D5 JUMP JUMPDEST PUSH2 0x22B9 SWAP1 SWAP6 SWAP2 SWAP6 PUSH2 0x4477 JUMP JUMPDEST SWAP4 DUP6 PUSH2 0x22A7 JUMP JUMPDEST PUSH1 0x40 MLOAD RETURNDATASIZE DUP9 DUP3 RETURNDATACOPY RETURNDATASIZE SWAP1 REVERT JUMPDEST POP DUP1 PUSH2 0x20C2 JUMP JUMPDEST SWAP1 POP PUSH1 0xF DUP4 ADD SLOAD SWAP3 PUSH2 0x20CF JUMP JUMPDEST PUSH2 0x2301 SWAP3 POP PUSH2 0x22F1 DUP3 PUSH2 0x22FC SWAP3 PUSH2 0x4C65 JUMP JUMPDEST PUSH1 0x9 DUP7 ADD SLOAD SWAP1 PUSH2 0x4A33 JUMP JUMPDEST PUSH2 0x4A46 JUMP JUMPDEST DUP5 DUP1 PUSH2 0x20A9 JUMP JUMPDEST DUP1 DUP3 GT PUSH2 0x2317 JUMPI JUMPDEST POP POP PUSH2 0x20AC JUMP JUMPDEST PUSH2 0x2329 SWAP3 POP PUSH2 0x22F1 PUSH2 0x22FC SWAP2 DUP4 PUSH2 0x4C65 JUMP JUMPDEST DUP5 DUP1 PUSH2 0x2310 JUMP JUMPDEST PUSH1 0x12 SUB PUSH1 0x12 DUP2 GT PUSH2 0x2029 JUMPI PUSH1 0x4D DUP2 GT PUSH2 0x2029 JUMPI SWAP1 PUSH2 0x2351 SWAP2 PUSH1 0xA EXP SWAP1 PUSH2 0x4A33 JUMP JUMPDEST DUP6 PUSH2 0x2089 JUMP JUMPDEST PUSH1 0x40 MLOAD PUSH3 0x461BCD PUSH1 0xE5 SHL DUP2 MSTORE PUSH1 0x20 PUSH1 0x4 DUP3 ADD MSTORE PUSH1 0x1A PUSH1 0x24 DUP3 ADD MSTORE PUSH32 0x4F7074696F6E73436F72653A206E6F2066656564207072696365000000000000 PUSH1 0x44 DUP3 ADD MSTORE PUSH1 0x64 SWAP1 REVERT JUMPDEST PUSH1 0x40 MLOAD PUSH3 0x461BCD PUSH1 0xE5 SHL DUP2 MSTORE PUSH1 0x20 PUSH1 0x4 DUP3 ADD MSTORE PUSH1 0x23 PUSH1 0x24 DUP3 ADD MSTORE PUSH32 0x4F7074696F6E73436F72653A206E6F742070656E64696E6720736574746C656D PUSH1 0x44 DUP3 ADD MSTORE PUSH3 0x195B9D PUSH1 0xEA SHL PUSH1 0x64 DUP3 ADD MSTORE PUSH1 0x84 SWAP1 REVERT JUMPDEST PUSH4 0x4E487B71 PUSH1 0xE0 SHL DUP5 MSTORE PUSH1 0x21 PUSH1 0x4 MSTORE PUSH1 0x24 DUP5 REVERT JUMPDEST POP PUSH1 0x5 SLOAD PUSH1 0x4 CALLDATALOAD LT PUSH2 0x1F0C JUMP JUMPDEST POP CALLVALUE PUSH2 0x283 JUMPI DUP1 PUSH1 0x3 NOT CALLDATASIZE ADD SLT PUSH2 0x283 JUMPI PUSH1 0x3 SLOAD PUSH1 0x40 MLOAD PUSH1 0x1 PUSH1 0x1 PUSH1 0xA0 SHL SUB SWAP1 SWAP2 AND DUP2 MSTORE PUSH1 0x20 SWAP1 RETURN JUMPDEST POP CALLVALUE PUSH2 0x283 JUMPI DUP1 PUSH1 0x3 NOT CALLDATASIZE ADD SLT PUSH2 0x283 JUMPI PUSH2 0x2450 PUSH2 0x45F4 JUMP JUMPDEST PUSH2 0x2458 PUSH2 0x49A3 JUMP JUMPDEST PUSH1 0x1 PUSH1 0xFF NOT PUSH1 0x2 SLOAD AND OR PUSH1 0x2 SSTORE PUSH32 0x62E78CEA01BEE320CD4E420270B5EA74000D11B0C9F74754EBDBFC544B05A258 PUSH1 0x20 PUSH1 0x40 MLOAD CALLER DUP2 MSTORE LOG1 DUP1 RETURN JUMPDEST POP CALLVALUE PUSH2 0x283 JUMPI PUSH1 0x20 DUP1 PUSH1 0x3 NOT CALLDATASIZE ADD SLT PUSH2 0x305 JUMPI PUSH1 0x4 CALLDATALOAD PUSH1 0x1 PUSH1 0x1 PUSH1 0x40 SHL SUB DUP2 GT PUSH2 0x27F JUMPI PUSH2 0x24C5 DUP3 SWAP2 CALLDATASIZE SWAP1 PUSH1 0x4 ADD PUSH2 0x4298 JUMP JUMPDEST SWAP2 SWAP1 DUP3 PUSH1 0x40 MLOAD SWAP4 DUP5 SWAP3 DUP4 CALLDATACOPY DUP2 ADD PUSH1 0xD DUP2 MSTORE SUB ADD SWAP1 KECCAK256 SWAP2 PUSH1 0x40 MLOAD DUP1 SWAP3 DUP1 DUP6 SLOAD SWAP3 DUP4 DUP2 MSTORE ADD SWAP5 DUP4 MSTORE DUP1 DUP4 KECCAK256 SWAP3 SWAP1 JUMPDEST DUP3 DUP3 LT PUSH2 0x2508 JUMPI PUSH2 0x27B DUP6 PUSH2 0x2E2 DUP2 DUP10 SUB DUP3 PUSH2 0x44A6 JUMP JUMPDEST DUP4 SLOAD DUP7 MSTORE SWAP5 DUP6 ADD SWAP5 PUSH1 0x1 SWAP4 DUP5 ADD SWAP4 SWAP1 SWAP2 ADD SWAP1 PUSH2 0x24F1 JUMP JUMPDEST POP CALLVALUE PUSH2 0x283 JUMPI DUP1 PUSH1 0x3 NOT CALLDATASIZE ADD SLT PUSH2 0x283 JUMPI PUSH1 0x2 SLOAD PUSH1 0x40 MLOAD PUSH1 0x8 SWAP2 SWAP1 SWAP2 SHR PUSH1 0x1 PUSH1 0x1 PUSH1 0xA0 SHL SUB AND DUP2 MSTORE PUSH1 0x20 SWAP1 RETURN JUMPDEST POP CALLVALUE PUSH2 0x283 JUMPI PUSH1 0xC0 CALLDATASIZE PUSH1 0x3 NOT ADD SLT PUSH2 0x283 JUMPI PUSH1 0x3 PUSH1 0x64 CALLDATALOAD LT ISZERO PUSH2 0x283 JUMPI PUSH1 0x84 CALLDATALOAD PUSH1 0xFF DUP2 AND DUP2 SUB PUSH2 0x305 JUMPI PUSH1 0xA4 CALLDATALOAD PUSH1 0xFF DUP2 AND DUP2 SUB PUSH2 0x27F JUMPI PUSH1 0x4 CALLDATALOAD ISZERO ISZERO DUP1 PUSH2 0x2B0D JUMPI JUMPDEST PUSH2 0x2597 SWAP1 PUSH2 0x4A73 JUMP JUMPDEST PUSH2 0x259F PUSH2 0x49C1 JUMP JUMPDEST PUSH2 0x25A7 PUSH2 0x49A3 JUMP JUMPDEST PUSH1 0x4 CALLDATALOAD DUP4 MSTORE PUSH1 0x7 PUSH1 0x20 MSTORE PUSH1 0x40 DUP4 KECCAK256 SWAP1 PUSH1 0xFF PUSH1 0x14 DUP4 ADD SLOAD PUSH1 0x10 SHR AND PUSH1 0xB DUP2 LT ISZERO PUSH2 0x2883 JUMPI DUP1 ISZERO SWAP1 DUP2 ISZERO PUSH2 0x2B02 JUMPI JUMPDEST POP ISZERO PUSH2 0x2AAD JUMPI PUSH1 0x1 DUP3 ADD SLOAD PUSH1 0x1 PUSH1 0x1 PUSH1 0xA0 SHL SUB AND ISZERO PUSH2 0x2A68 JUMPI PUSH1 0x15 DUP3 ADD SLOAD PUSH1 0x2 SLOAD PUSH1 0x40 MLOAD PUSH4 0x4F6BFAD7 PUSH1 0xE0 SHL DUP2 MSTORE PUSH1 0x8 SWAP2 SWAP1 SWAP2 SHR PUSH1 0x1 PUSH1 0x1 PUSH1 0xA0 SHL SUB AND SWAP2 PUSH1 0x20 DUP3 PUSH1 0x4 DUP2 DUP7 GAS STATICCALL SWAP1 DUP2 ISZERO PUSH2 0x2A5D JUMPI DUP8 SWAP2 PUSH2 0x2A23 JUMPI JUMPDEST PUSH2 0x2633 SWAP3 POP PUSH2 0x4A66 JUMP JUMPDEST TIMESTAMP LT ISZERO PUSH2 0x29DE JUMPI PUSH1 0x4 SWAP1 DUP2 CALLDATALOAD DUP7 MSTORE PUSH1 0x8 PUSH1 0x20 MSTORE PUSH1 0x20 PUSH1 0x40 DUP8 KECCAK256 SLOAD SWAP2 PUSH1 0x40 MLOAD SWAP4 DUP5 DUP1 SWAP3 PUSH4 0xBE0CBCD PUSH1 0xE2 SHL DUP3 MSTORE GAS STATICCALL SWAP2 DUP3 ISZERO PUSH2 0x22C0 JUMPI DUP7 SWAP3 PUSH2 0x29AA JUMPI JUMPDEST POP LT ISZERO PUSH2 0x2965 JUMPI PUSH1 0x11 DUP3 ADD SLOAD PUSH1 0x2 PUSH1 0xFF DUP3 PUSH1 0x20 SHR AND PUSH2 0x268D DUP2 PUSH2 0x436A JUMP JUMPDEST EQ PUSH2 0x28FD JUMPI JUMPDEST POP PUSH2 0x2710 PUSH2 0x26A7 PUSH1 0x44 CALLDATALOAD PUSH1 0x9 DUP6 ADD SLOAD PUSH2 0x4A33 JUMP JUMPDEST DIV PUSH2 0x26BA PUSH1 0x10 DUP5 ADD SLOAD PUSH1 0x44 CALLDATALOAD LT ISZERO PUSH2 0x481A JUMP JUMPDEST PUSH1 0x4 SLOAD PUSH1 0x3 SLOAD PUSH2 0x26DA SWAP2 DUP4 SWAP2 PUSH1 0x1 PUSH1 0x1 PUSH1 0xA0 SHL SUB SWAP1 DUP2 AND SWAP2 CALLER SWAP2 AND PUSH2 0x48FC JUMP JUMPDEST PUSH1 0x6 SLOAD SWAP4 PUSH2 0x26E7 DUP6 PUSH2 0x4865 JUMP JUMPDEST PUSH1 0x6 SSTORE PUSH2 0x2710 PUSH2 0x26FD PUSH1 0x24 CALLDATALOAD PUSH1 0x9 DUP8 ADD SLOAD PUSH2 0x4A33 JUMP JUMPDEST DIV SWAP3 PUSH1 0x4 PUSH1 0x20 PUSH1 0x1 DUP1 PUSH1 0xA0 SHL SUB PUSH1 0x2 SLOAD PUSH1 0x8 SHR AND PUSH1 0x40 MLOAD SWAP3 DUP4 DUP1 SWAP3 PUSH4 0x6A15D6D PUSH1 0xE1 SHL DUP3 MSTORE GAS STATICCALL SWAP1 DUP2 ISZERO PUSH2 0x28F2 JUMPI DUP9 SWAP2 PUSH2 0x28BF JUMPI JUMPDEST POP PUSH1 0xFF SWAP3 PUSH2 0x2741 DUP5 SWAP3 TIMESTAMP PUSH2 0x4A66 JUMP JUMPDEST SWAP5 PUSH1 0x40 MLOAD SWAP7 PUSH2 0x274F DUP9 PUSH2 0x4445 JUMP JUMPDEST DUP10 DUP9 MSTORE PUSH1 0x4 CALLDATALOAD PUSH1 0x20 DUP10 ADD MSTORE CALLER PUSH1 0x40 DUP10 ADD MSTORE DUP11 PUSH1 0x60 DUP10 ADD MSTORE PUSH1 0x24 CALLDATALOAD PUSH1 0x80 DUP10 ADD MSTORE PUSH1 0xA0 DUP9 ADD MSTORE PUSH1 0x44 CALLDATALOAD PUSH1 0xC0 DUP9 ADD MSTORE PUSH1 0xE0 DUP8 ADD MSTORE PUSH2 0x278B PUSH1 0x64 CALLDATALOAD PUSH2 0x436A JUMP JUMPDEST PUSH1 0x64 CALLDATALOAD PUSH2 0x100 DUP8 ADD MSTORE AND PUSH2 0x120 DUP6 ADD MSTORE AND PUSH2 0x140 DUP4 ADD MSTORE TIMESTAMP PUSH2 0x160 DUP4 ADD MSTORE PUSH2 0x180 DUP3 ADD MSTORE DUP4 PUSH2 0x1A0 DUP3 ADD MSTORE DUP3 DUP5 MSTORE PUSH1 0x9 PUSH1 0x20 MSTORE PUSH2 0x27CB DUP2 PUSH1 0x40 DUP7 KECCAK256 PUSH2 0x4ABF JUMP JUMPDEST PUSH1 0x4 CALLDATALOAD DUP5 MSTORE PUSH1 0x8 PUSH1 0x20 MSTORE PUSH1 0x40 DUP5 KECCAK256 DUP1 SLOAD SWAP1 PUSH1 0x1 PUSH1 0x40 SHL DUP3 LT ISZERO PUSH2 0x28AB JUMPI SWAP1 PUSH2 0x27F8 SWAP2 PUSH1 0x1 DUP3 ADD DUP2 SSTORE PUSH2 0x45D8 JUMP JUMPDEST PUSH2 0x2897 JUMPI SWAP1 PUSH2 0x2806 SWAP2 PUSH2 0x4ABF JUMP JUMPDEST PUSH1 0x14 DUP2 ADD SLOAD PUSH1 0xFF DUP2 PUSH1 0x10 SHR AND PUSH1 0xB DUP2 LT ISZERO PUSH2 0x2883 JUMPI PUSH1 0x20 SWAP5 POP ISZERO PUSH2 0x286B JUMPI JUMPDEST POP POP PUSH1 0x40 MLOAD PUSH1 0x24 CALLDATALOAD DUP2 MSTORE TIMESTAMP DUP4 DUP3 ADD MSTORE DUP2 CALLER SWAP2 PUSH32 0x878FE3F9BCA373E42473C1F3AD3C9C35C4F1ECAF9A5F081A801A3FBD43049F55 PUSH1 0x40 PUSH1 0x4 CALLDATALOAD SWAP3 LOG4 PUSH1 0x1 DUP1 SSTORE PUSH1 0x40 MLOAD SWAP1 DUP2 MSTORE RETURN JUMPDEST PUSH3 0x10000 PUSH1 0x14 SWAP2 PUSH3 0xFF0000 NOT AND OR SWAP2 ADD SSTORE CODESIZE DUP1 PUSH2 0x2825 JUMP JUMPDEST PUSH4 0x4E487B71 PUSH1 0xE0 SHL DUP6 MSTORE PUSH1 0x21 PUSH1 0x4 MSTORE PUSH1 0x24 DUP6 REVERT JUMPDEST PUSH4 0x4E487B71 PUSH1 0xE0 SHL DUP6 MSTORE PUSH1 0x4 DUP6 SWAP1 MSTORE PUSH1 0x24 DUP6 REVERT JUMPDEST PUSH4 0x4E487B71 PUSH1 0xE0 SHL DUP7 MSTORE PUSH1 0x41 PUSH1 0x4 MSTORE PUSH1 0x24 DUP7 REVERT JUMPDEST SWAP1 POP PUSH1 0x20 DUP2 RETURNDATASIZE PUSH1 0x20 GT PUSH2 0x28EA JUMPI JUMPDEST DUP2 PUSH2 0x28DA PUSH1 0x20 SWAP4 DUP4 PUSH2 0x44A6 JUMP JUMPDEST DUP2 ADD SUB SLT PUSH2 0xC5E JUMPI MLOAD PUSH1 0xFF PUSH2 0x2732 JUMP JUMPDEST RETURNDATASIZE SWAP2 POP PUSH2 0x28CD JUMP JUMPDEST PUSH1 0x40 MLOAD RETURNDATASIZE DUP11 DUP3 RETURNDATACOPY RETURNDATASIZE SWAP1 REVERT JUMPDEST PUSH1 0x28 SHR PUSH1 0x1 PUSH1 0x1 PUSH1 0xA0 SHL SUB AND CALLER SUB PUSH2 0x2915 JUMPI CODESIZE PUSH2 0x2693 JUMP JUMPDEST PUSH1 0x40 MLOAD PUSH3 0x461BCD PUSH1 0xE5 SHL DUP2 MSTORE PUSH1 0x20 PUSH1 0x4 DUP3 ADD MSTORE PUSH1 0x22 PUSH1 0x24 DUP3 ADD MSTORE PUSH32 0x4F7074696F6E73436F72653A206E6F742064657369676E617465642073656C6C PUSH1 0x44 DUP3 ADD MSTORE PUSH2 0x32B9 PUSH1 0xF1 SHL PUSH1 0x64 DUP3 ADD MSTORE PUSH1 0x84 SWAP1 REVERT JUMPDEST PUSH1 0x40 MLOAD PUSH3 0x461BCD PUSH1 0xE5 SHL DUP2 MSTORE PUSH1 0x20 PUSH1 0x4 DUP3 ADD MSTORE PUSH1 0x1F PUSH1 0x24 DUP3 ADD MSTORE PUSH32 0x4F7074696F6E73436F72653A206D61782071756F746573207265616368656400 PUSH1 0x44 DUP3 ADD MSTORE PUSH1 0x64 SWAP1 REVERT JUMPDEST SWAP1 SWAP2 POP PUSH1 0x20 DUP2 RETURNDATASIZE PUSH1 0x20 GT PUSH2 0x29D6 JUMPI JUMPDEST DUP2 PUSH2 0x29C6 PUSH1 0x20 SWAP4 DUP4 PUSH2 0x44A6 JUMP JUMPDEST DUP2 ADD SUB SLT PUSH2 0xC62 JUMPI MLOAD SWAP1 CODESIZE PUSH2 0x266F JUMP JUMPDEST RETURNDATASIZE SWAP2 POP PUSH2 0x29B9 JUMP JUMPDEST PUSH1 0x40 MLOAD PUSH3 0x461BCD PUSH1 0xE5 SHL DUP2 MSTORE PUSH1 0x20 PUSH1 0x4 DUP3 ADD MSTORE PUSH1 0x18 PUSH1 0x24 DUP3 ADD MSTORE PUSH32 0x4F7074696F6E73436F72653A2052465120657870697265640000000000000000 PUSH1 0x44 DUP3 ADD MSTORE PUSH1 0x64 SWAP1 REVERT JUMPDEST SWAP1 POP PUSH1 0x20 DUP3 RETURNDATASIZE PUSH1 0x20 GT PUSH2 0x2A55 JUMPI JUMPDEST DUP2 PUSH2 0x2A3E PUSH1 0x20 SWAP4 DUP4 PUSH2 0x44A6 JUMP JUMPDEST DUP2 ADD SUB SLT PUSH2 0x2A51 JUMPI PUSH2 0x2633 SWAP2 MLOAD SWAP1 PUSH2 0x2629 JUMP JUMPDEST DUP7 DUP1 REVERT JUMPDEST RETURNDATASIZE SWAP2 POP PUSH2 0x2A31 JUMP JUMPDEST PUSH1 0x40 MLOAD RETURNDATASIZE DUP10 DUP3 RETURNDATACOPY RETURNDATASIZE SWAP1 REVERT JUMPDEST PUSH1 0x40 MLOAD PUSH3 0x461BCD PUSH1 0xE5 SHL DUP2 MSTORE PUSH1 0x20 PUSH1 0x4 DUP3 ADD MSTORE PUSH1 0x1E PUSH1 0x24 DUP3 ADD MSTORE PUSH32 0x4F7074696F6E73436F72653A206E6F742061206275796572206F726465720000 PUSH1 0x44 DUP3 ADD MSTORE PUSH1 0x64 SWAP1 REVERT JUMPDEST PUSH1 0x40 MLOAD PUSH3 0x461BCD PUSH1 0xE5 SHL DUP2 MSTORE PUSH1 0x20 PUSH1 0x4 DUP3 ADD MSTORE PUSH1 0x27 PUSH1 0x24 DUP3 ADD MSTORE PUSH32 0x4F7074696F6E73436F72653A206F72646572206E6F7420616363657074696E67 PUSH1 0x44 DUP3 ADD MSTORE PUSH7 0x2071756F746573 PUSH1 0xC8 SHL PUSH1 0x64 DUP3 ADD MSTORE PUSH1 0x84 SWAP1 REVERT JUMPDEST PUSH1 0x1 SWAP2 POP EQ CODESIZE PUSH2 0x25D4 JUMP JUMPDEST POP PUSH1 0x5 SLOAD PUSH1 0x4 CALLDATALOAD LT PUSH2 0x258E JUMP JUMPDEST POP PUSH1 0x40 CALLDATASIZE PUSH1 0x3 NOT ADD SLT PUSH2 0x283 JUMPI PUSH1 0x4 CALLDATALOAD PUSH1 0x3 PUSH1 0x24 CALLDATALOAD LT ISZERO PUSH2 0x305 JUMPI SWAP1 DUP2 PUSH2 0x2B6B SWAP3 ISZERO ISZERO DUP1 PUSH2 0x2BD7 JUMPI JUMPDEST PUSH2 0x2B4C SWAP1 PUSH2 0x4A73 JUMP JUMPDEST DUP2 MSTORE PUSH1 0x7 PUSH1 0x20 MSTORE PUSH1 0x40 SWAP1 KECCAK256 PUSH1 0x1 ADD SLOAD PUSH1 0x1 PUSH1 0x1 PUSH1 0xA0 SHL SUB AND CALLER EQ PUSH2 0x49E4 JUMP JUMPDEST PUSH2 0x2B73 PUSH2 0x49C1 JUMP JUMPDEST PUSH2 0x2B7B PUSH2 0x49A3 JUMP JUMPDEST PUSH1 0x40 MLOAD PUSH3 0x461BCD PUSH1 0xE5 SHL DUP2 MSTORE PUSH1 0x20 PUSH1 0x4 DUP3 ADD MSTORE PUSH1 0x2E PUSH1 0x24 DUP3 ADD MSTORE PUSH32 0x4F7074696F6E73436F72653A20666565642070726F746F636F6C206E6F742069 PUSH1 0x44 DUP3 ADD MSTORE PUSH14 0x1B5C1B195B595B9D1959081E595D PUSH1 0x92 SHL PUSH1 0x64 DUP3 ADD MSTORE PUSH1 0x84 SWAP1 REVERT JUMPDEST POP PUSH1 0x5 SLOAD DUP2 LT PUSH2 0x2B43 JUMP JUMPDEST POP CALLVALUE PUSH2 0x283 JUMPI PUSH1 0x20 CALLDATASIZE PUSH1 0x3 NOT ADD SLT PUSH2 0x283 JUMPI PUSH1 0x4 CALLDATALOAD DUP1 ISZERO ISZERO DUP1 PUSH2 0x2D03 JUMPI JUMPDEST PUSH2 0x2C09 SWAP1 PUSH2 0x4A73 JUMP JUMPDEST PUSH2 0x2C11 PUSH2 0x49C1 JUMP JUMPDEST PUSH2 0x2C19 PUSH2 0x49A3 JUMP JUMPDEST DUP1 DUP3 MSTORE PUSH1 0x7 PUSH1 0x20 MSTORE PUSH1 0x40 DUP3 KECCAK256 PUSH1 0x14 DUP2 ADD SWAP1 DUP2 SLOAD SWAP2 PUSH1 0xFF DUP4 PUSH1 0x10 SHR AND SWAP3 PUSH1 0xB DUP5 LT ISZERO PUSH2 0xDB9 JUMPI PUSH32 0xB009A900F426C0C9177ACB33A8A806B35C53AC253D1DDF22D687986FC6B72CE4 PUSH1 0x60 PUSH1 0xC0 SWAP5 DUP7 SWAP5 PUSH3 0x90000 DUP10 SWAP6 PUSH2 0x2C87 PUSH1 0x4 PUSH1 0x0 DUP1 MLOAD PUSH1 0x20 PUSH2 0x4C84 DUP4 CODECOPY DUP2 MLOAD SWAP2 MSTORE SWAP12 EQ PUSH2 0x4C19 JUMP JUMPDEST PUSH3 0xFF0000 NOT AND OR SWAP1 SSTORE TIMESTAMP PUSH1 0x17 DUP3 ADD SSTORE PUSH1 0xF PUSH1 0x1 DUP1 PUSH1 0xA0 SHL SUB PUSH1 0x1 DUP4 ADD SLOAD AND SWAP2 ADD SLOAD PUSH1 0x40 MLOAD SWAP2 DUP3 MSTORE PUSH1 0x20 DUP3 ADD MSTORE TIMESTAMP PUSH1 0x40 DUP3 ADD MSTORE LOG2 PUSH2 0x2CC7 PUSH1 0x40 MLOAD DUP1 SWAP3 PUSH2 0x45B5 JUMP JUMPDEST PUSH1 0x9 PUSH1 0x20 DUP3 ADD MSTORE PUSH1 0x80 PUSH1 0x40 DUP3 ADD MSTORE PUSH1 0x10 PUSH1 0x80 DUP3 ADD MSTORE PUSH16 0x199BDC98D9481B1A5C5D5A59185D1959 PUSH1 0x82 SHL PUSH1 0xA0 DUP3 ADD MSTORE TIMESTAMP PUSH1 0x60 DUP3 ADD MSTORE LOG2 PUSH1 0x1 DUP1 SSTORE DUP1 RETURN JUMPDEST POP PUSH1 0x5 SLOAD DUP2 LT PUSH2 0x2C00 JUMP JUMPDEST POP PUSH1 0x20 DUP1 PUSH1 0x3 NOT CALLDATASIZE ADD SLT PUSH2 0x305 JUMPI PUSH1 0x4 CALLDATALOAD SWAP1 DUP2 ISZERO ISZERO DUP1 PUSH2 0x2F91 JUMPI JUMPDEST PUSH2 0x2D32 SWAP1 PUSH2 0x4A73 JUMP JUMPDEST PUSH2 0x2D3A PUSH2 0x49C1 JUMP JUMPDEST PUSH2 0x2D42 PUSH2 0x49A3 JUMP JUMPDEST DUP2 DUP4 MSTORE PUSH1 0x7 DUP2 MSTORE PUSH1 0x40 DUP4 KECCAK256 PUSH1 0x14 DUP2 ADD SWAP1 PUSH1 0xFF DUP3 SLOAD PUSH1 0x10 SHR AND PUSH1 0xB DUP2 LT ISZERO PUSH2 0xDB9 JUMPI PUSH1 0x6 SUB PUSH2 0x2F3B JUMPI PUSH1 0x1 DUP2 ADD SLOAD PUSH1 0x1 PUSH1 0x1 PUSH1 0xA0 SHL SUB SWAP2 SWAP1 DUP3 AND CALLER EQ DUP1 ISZERO PUSH2 0x2F2C JUMPI JUMPDEST ISZERO PUSH2 0x2EE7 JUMPI DUP1 PUSH1 0x12 PUSH1 0x17 PUSH2 0x2D9D SWAP4 ADD SLOAD SWAP2 ADD SLOAD SWAP1 PUSH2 0x4A66 JUMP JUMPDEST TIMESTAMP GT PUSH2 0x2E93 JUMPI DUP1 PUSH1 0x4 SWAP2 DUP3 SLOAD AND DUP5 DUP3 PUSH1 0x3 SLOAD AND SWAP3 PUSH1 0x2 SLOAD PUSH1 0x8 SHR AND PUSH1 0x40 MLOAD SWAP5 DUP6 DUP1 SWAP3 PUSH4 0x39F4F75 PUSH1 0xE3 SHL DUP3 MSTORE GAS STATICCALL SWAP3 DUP4 ISZERO PUSH2 0x2A5D JUMPI DUP8 SWAP4 PUSH2 0x2E5E JUMPI JUMPDEST POP SWAP4 PUSH2 0x2E21 PUSH1 0xC0 SWAP5 PUSH2 0x2E01 PUSH1 0xFF SWAP6 PUSH1 0x7 SWAP6 PUSH1 0x0 DUP1 MLOAD PUSH1 0x20 PUSH2 0x4C84 DUP4 CODECOPY DUP2 MLOAD SWAP2 MSTORE SWAP10 CALLER SWAP1 PUSH2 0x48FC JUMP JUMPDEST DUP1 SLOAD PUSH3 0xFF0000 NOT DUP2 AND PUSH3 0x70000 OR SWAP1 SWAP2 SSTORE PUSH1 0x40 MLOAD SWAP5 DUP6 SWAP2 PUSH1 0x10 SHR AND PUSH2 0x45B5 JUMP JUMPDEST DUP3 ADD MSTORE PUSH1 0x80 PUSH1 0x40 DUP3 ADD MSTORE PUSH1 0x15 PUSH1 0x80 DUP3 ADD MSTORE PUSH21 0x185C989A5D1C985D1A5BDB881A5B9A5D1A585D1959 PUSH1 0x5A SHL PUSH1 0xA0 DUP3 ADD MSTORE TIMESTAMP PUSH1 0x60 DUP3 ADD MSTORE LOG2 PUSH1 0x1 DUP1 SSTORE DUP1 RETURN JUMPDEST SWAP3 POP SWAP1 SWAP4 DUP1 DUP4 DUP2 RETURNDATASIZE DUP4 GT PUSH2 0x2E8C JUMPI JUMPDEST PUSH2 0x2E77 DUP2 DUP4 PUSH2 0x44A6 JUMP JUMPDEST DUP2 ADD SUB SLT PUSH2 0x2A51 JUMPI SWAP2 MLOAD SWAP2 SWAP4 SWAP1 PUSH2 0x2E21 PUSH2 0x2DD9 JUMP JUMPDEST POP RETURNDATASIZE PUSH2 0x2E6D JUMP JUMPDEST PUSH1 0x40 MLOAD PUSH3 0x461BCD PUSH1 0xE5 SHL DUP2 MSTORE PUSH1 0x4 DUP2 ADD DUP5 SWAP1 MSTORE PUSH1 0x26 PUSH1 0x24 DUP3 ADD MSTORE PUSH32 0x4F7074696F6E73436F72653A206172626974726174696F6E2077696E646F7720 PUSH1 0x44 DUP3 ADD MSTORE PUSH6 0x18DB1BDCD959 PUSH1 0xD2 SHL PUSH1 0x64 DUP3 ADD MSTORE PUSH1 0x84 SWAP1 REVERT JUMPDEST PUSH1 0x40 MLOAD PUSH3 0x461BCD PUSH1 0xE5 SHL DUP2 MSTORE PUSH1 0x4 DUP2 ADD DUP6 SWAP1 MSTORE PUSH1 0x1F PUSH1 0x24 DUP3 ADD MSTORE PUSH32 0x4F7074696F6E73436F72653A206E6F7420706172747920746F206F7264657200 PUSH1 0x44 DUP3 ADD MSTORE PUSH1 0x64 SWAP1 REVERT JUMPDEST POP DUP2 PUSH1 0x2 DUP3 ADD SLOAD AND CALLER EQ PUSH2 0x2D84 JUMP JUMPDEST PUSH1 0x40 MLOAD PUSH3 0x461BCD PUSH1 0xE5 SHL DUP2 MSTORE PUSH1 0x4 DUP2 ADD DUP5 SWAP1 MSTORE PUSH1 0x28 PUSH1 0x24 DUP3 ADD MSTORE PUSH32 0x4F7074696F6E73436F72653A2063616E6E6F7420696E69746961746520617262 PUSH1 0x44 DUP3 ADD MSTORE PUSH8 0x34BA3930BA34B7B7 PUSH1 0xC1 SHL PUSH1 0x64 DUP3 ADD MSTORE PUSH1 0x84 SWAP1 REVERT JUMPDEST POP PUSH1 0x5 SLOAD DUP3 LT PUSH2 0x2D29 JUMP JUMPDEST POP CALLVALUE PUSH2 0x283 JUMPI PUSH1 0x20 CALLDATASIZE PUSH1 0x3 NOT ADD SLT PUSH2 0x283 JUMPI PUSH2 0x2FB6 PUSH2 0x49C1 JUMP JUMPDEST PUSH2 0x2FBE PUSH2 0x49A3 JUMP JUMPDEST PUSH1 0x4 CALLDATALOAD DUP2 MSTORE PUSH1 0x9 PUSH1 0x20 MSTORE PUSH1 0x40 DUP2 KECCAK256 PUSH1 0xA DUP2 ADD SLOAD SWAP2 PUSH1 0xFF DUP4 AND PUSH1 0x4 DUP2 LT ISZERO PUSH2 0x3469 JUMPI PUSH2 0x3424 JUMPI PUSH1 0x9 DUP3 ADD SLOAD TIMESTAMP GT PUSH2 0x33DF JUMPI PUSH1 0x1 DUP3 ADD SLOAD DUP2 MSTORE PUSH1 0x7 PUSH1 0x20 MSTORE PUSH1 0x40 DUP2 KECCAK256 SWAP3 PUSH2 0x3016 PUSH1 0x1 DUP1 PUSH1 0xA0 SHL SUB PUSH1 0x1 DUP7 ADD SLOAD AND CALLER EQ PUSH2 0x49E4 JUMP JUMPDEST PUSH1 0xFF PUSH1 0x14 DUP6 ADD SLOAD PUSH1 0x10 SHR AND PUSH1 0xB DUP2 LT ISZERO PUSH2 0x33CB JUMPI DUP1 ISZERO SWAP1 DUP2 ISZERO PUSH2 0x33C0 JUMPI JUMPDEST POP ISZERO PUSH2 0x337B JUMPI PUSH1 0x3 DUP4 ADD SLOAD PUSH1 0xC DUP6 ADD SLOAD LT PUSH2 0x3328 JUMPI PUSH1 0xFF NOT AND PUSH1 0x1 OR PUSH1 0xA DUP4 ADD SSTORE PUSH1 0x2 DUP1 DUP4 ADD DUP1 SLOAD SWAP2 DUP6 ADD DUP1 SLOAD PUSH1 0x1 PUSH1 0x1 PUSH1 0xA0 SHL SUB NOT AND PUSH1 0x1 PUSH1 0x1 PUSH1 0xA0 SHL SUB SWAP4 SWAP1 SWAP4 AND SWAP3 SWAP1 SWAP3 OR SWAP1 SWAP2 SSTORE SLOAD PUSH2 0x3105 SWAP1 PUSH1 0x11 DUP6 ADD SWAP1 PUSH2 0x3098 SWAP1 PUSH1 0xA0 SHR PUSH1 0xFF AND DUP3 PUSH2 0x48A2 JUMP JUMPDEST PUSH1 0x3 DUP5 ADD SLOAD PUSH1 0xC DUP7 ADD SSTORE PUSH1 0x4 DUP5 ADD SLOAD PUSH1 0xD DUP7 ADD SSTORE PUSH1 0x6 DUP5 ADD SLOAD DUP1 PUSH1 0xE DUP8 ADD SSTORE PUSH1 0xF DUP7 ADD SSTORE PUSH1 0xFF PUSH1 0x7 DUP6 ADD PUSH2 0x30CF DUP3 DUP3 SLOAD AND DUP5 PUSH2 0x4A29 JUMP JUMPDEST DUP1 SLOAD DUP4 SLOAD PUSH2 0xFF00 NOT AND PUSH1 0x8 SWAP2 DUP3 SHR DUP5 AND SWAP1 SWAP2 SHL PUSH2 0xFF00 AND OR DUP4 SSTORE SLOAD PUSH1 0x10 SHR AND PUSH3 0xFF0000 DUP3 SLOAD SWAP2 PUSH1 0x10 SHL AND SWAP1 PUSH3 0xFF0000 NOT AND OR SWAP1 SSTORE JUMP JUMPDEST PUSH1 0x14 DUP4 ADD DUP1 SLOAD PUSH3 0xFF0000 NOT DUP2 AND PUSH3 0x20000 OR SWAP1 SWAP2 SSTORE TIMESTAMP PUSH1 0x16 DUP6 ADD SSTORE PUSH1 0x9 DUP5 ADD SLOAD PUSH1 0x2 SLOAD PUSH1 0x40 MLOAD PUSH4 0x1C03BE35 PUSH1 0xE3 SHL DUP2 MSTORE SWAP3 SWAP5 SWAP3 SWAP1 PUSH1 0x20 SWAP1 DUP3 SWAP1 PUSH1 0x4 SWAP1 DUP3 SWAP1 PUSH1 0x8 SHR PUSH1 0x1 PUSH1 0x1 PUSH1 0xA0 SHL SUB AND GAS STATICCALL SWAP1 DUP2 ISZERO PUSH2 0x331D JUMPI DUP5 SWAP2 PUSH2 0x32E9 JUMPI JUMPDEST POP PUSH2 0x2710 PUSH2 0x3173 PUSH2 0x317E SWAP3 PUSH2 0x3198 SWAP5 PUSH2 0x4A33 JUMP JUMPDEST DIV PUSH1 0x4 DUP5 ADD SLOAD PUSH2 0x4A66 JUMP JUMPDEST PUSH1 0x4 SLOAD PUSH1 0x3 SLOAD PUSH1 0x1 PUSH1 0x1 PUSH1 0xA0 SHL SUB SWAP1 DUP2 AND SWAP2 CALLER SWAP2 AND PUSH2 0x48FC JUMP JUMPDEST PUSH1 0x2 ADD SLOAD PUSH1 0x1 PUSH1 0x1 PUSH1 0xA0 SHL SUB AND DUP2 MSTORE PUSH1 0xB PUSH1 0x20 MSTORE PUSH1 0x40 DUP2 KECCAK256 DUP4 SLOAD PUSH2 0x31BB SWAP2 PUSH2 0x48C7 JUMP JUMPDEST DUP3 SLOAD DUP2 MSTORE PUSH1 0x8 PUSH1 0x20 MSTORE PUSH1 0x40 DUP2 KECCAK256 SWAP3 DUP2 JUMPDEST DUP5 SLOAD DUP2 LT ISZERO PUSH2 0x323E JUMPI PUSH2 0x31DE DUP2 DUP7 PUSH2 0x45D8 JUMP JUMPDEST POP SLOAD PUSH1 0x4 CALLDATALOAD EQ ISZERO DUP1 PUSH2 0x321C JUMPI JUMPDEST SWAP1 PUSH2 0x31F9 SWAP2 PUSH2 0x31FE JUMPI PUSH2 0x4865 JUMP JUMPDEST PUSH2 0x31CB JUMP JUMPDEST PUSH1 0xA PUSH2 0x320A DUP3 DUP9 PUSH2 0x45D8 JUMP JUMPDEST POP ADD DUP1 SLOAD PUSH1 0xFF NOT AND PUSH1 0x2 OR SWAP1 SSTORE PUSH2 0x4865 JUMP JUMPDEST POP PUSH1 0xFF PUSH1 0xA PUSH2 0x322B DUP4 DUP9 PUSH2 0x45D8 JUMP JUMPDEST POP ADD SLOAD AND PUSH1 0x4 DUP2 LT ISZERO PUSH2 0x23ED JUMPI ISZERO PUSH2 0x31EB JUMP JUMPDEST POP PUSH1 0x0 DUP1 MLOAD PUSH1 0x20 PUSH2 0x4C84 DUP4 CODECOPY DUP2 MLOAD SWAP2 MSTORE PUSH1 0xC0 PUSH1 0xFF PUSH2 0x32AF DUP7 DUP6 SLOAD SWAP6 PUSH1 0x1 DUP1 PUSH1 0xA0 SHL SUB PUSH1 0x1 DUP3 ADD SLOAD AND SWAP1 PUSH1 0x2 PUSH1 0x1 DUP1 PUSH1 0xA0 SHL SUB SWAP2 ADD SLOAD AND SWAP1 DUP8 PUSH32 0x3D7463B72B52FAFC8E3F27DC0DBB9D1A94C0A4024834252B5CCE68509ACB49BC PUSH1 0x20 PUSH1 0x40 MLOAD TIMESTAMP DUP2 MSTORE LOG4 PUSH1 0x40 MLOAD SWAP3 DUP4 SWAP2 PUSH1 0x10 SHR AND PUSH2 0x45B5 JUMP JUMPDEST PUSH1 0x2 PUSH1 0x20 DUP3 ADD MSTORE PUSH1 0x80 PUSH1 0x40 DUP3 ADD MSTORE PUSH1 0xE PUSH1 0x80 DUP3 ADD MSTORE PUSH14 0x1C5D5BDD19481858D8D95C1D1959 PUSH1 0x92 SHL PUSH1 0xA0 DUP3 ADD MSTORE TIMESTAMP PUSH1 0x60 DUP3 ADD MSTORE LOG2 PUSH1 0x1 DUP1 SSTORE DUP1 RETURN JUMPDEST SWAP1 POP PUSH1 0x20 DUP2 RETURNDATASIZE PUSH1 0x20 GT PUSH2 0x3315 JUMPI JUMPDEST DUP2 PUSH2 0x3304 PUSH1 0x20 SWAP4 DUP4 PUSH2 0x44A6 JUMP JUMPDEST DUP2 ADD SUB SLT PUSH2 0xC66 JUMPI MLOAD PUSH2 0x2710 PUSH2 0x315F JUMP JUMPDEST RETURNDATASIZE SWAP2 POP PUSH2 0x32F7 JUMP JUMPDEST PUSH1 0x40 MLOAD RETURNDATASIZE DUP7 DUP3 RETURNDATACOPY RETURNDATASIZE SWAP1 REVERT JUMPDEST PUSH1 0x40 MLOAD PUSH3 0x461BCD PUSH1 0xE5 SHL DUP2 MSTORE PUSH1 0x20 PUSH1 0x4 DUP3 ADD MSTORE PUSH1 0x25 PUSH1 0x24 DUP3 ADD MSTORE PUSH32 0x4F7074696F6E73436F72653A207072656D69756D207261746520657863656564 PUSH1 0x44 DUP3 ADD MSTORE PUSH5 0xE640DAC2F PUSH1 0xDB SHL PUSH1 0x64 DUP3 ADD MSTORE PUSH1 0x84 SWAP1 REVERT JUMPDEST PUSH1 0x40 MLOAD PUSH3 0x461BCD PUSH1 0xE5 SHL DUP2 MSTORE PUSH1 0x20 PUSH1 0x4 DUP3 ADD MSTORE PUSH1 0x1B PUSH1 0x24 DUP3 ADD MSTORE PUSH32 0x4F7074696F6E73436F72653A20696E76616C6964207374617475730000000000 PUSH1 0x44 DUP3 ADD MSTORE PUSH1 0x64 SWAP1 REVERT JUMPDEST PUSH1 0x1 SWAP2 POP EQ CODESIZE PUSH2 0x3034 JUMP JUMPDEST PUSH4 0x4E487B71 PUSH1 0xE0 SHL DUP4 MSTORE PUSH1 0x21 PUSH1 0x4 MSTORE PUSH1 0x24 DUP4 REVERT JUMPDEST PUSH1 0x40 MLOAD PUSH3 0x461BCD PUSH1 0xE5 SHL DUP2 MSTORE PUSH1 0x20 PUSH1 0x4 DUP3 ADD MSTORE PUSH1 0x1A PUSH1 0x24 DUP3 ADD MSTORE PUSH32 0x4F7074696F6E73436F72653A2071756F74652065787069726564000000000000 PUSH1 0x44 DUP3 ADD MSTORE PUSH1 0x64 SWAP1 REVERT JUMPDEST PUSH1 0x40 MLOAD PUSH3 0x461BCD PUSH1 0xE5 SHL DUP2 MSTORE PUSH1 0x20 PUSH1 0x4 DUP3 ADD MSTORE PUSH1 0x1D PUSH1 0x24 DUP3 ADD MSTORE PUSH32 0x4F7074696F6E73436F72653A2071756F7465206E6F7420616374697665000000 PUSH1 0x44 DUP3 ADD MSTORE PUSH1 0x64 SWAP1 REVERT JUMPDEST PUSH4 0x4E487B71 PUSH1 0xE0 SHL DUP3 MSTORE PUSH1 0x21 PUSH1 0x4 MSTORE PUSH1 0x24 DUP3 REVERT JUMPDEST POP CALLVALUE PUSH2 0x283 JUMPI DUP1 PUSH1 0x3 NOT CALLDATASIZE ADD SLT PUSH2 0x283 JUMPI PUSH1 0x20 PUSH1 0xFF PUSH1 0x2 SLOAD AND PUSH1 0x40 MLOAD SWAP1 ISZERO ISZERO DUP2 MSTORE RETURN JUMPDEST POP CALLVALUE PUSH2 0x283 JUMPI DUP1 PUSH1 0x3 NOT CALLDATASIZE ADD SLT PUSH2 0x283 JUMPI PUSH1 0x20 PUSH1 0x6 SLOAD PUSH1 0x40 MLOAD SWAP1 DUP2 MSTORE RETURN JUMPDEST POP CALLVALUE PUSH2 0x283 JUMPI PUSH1 0x20 DUP1 PUSH1 0x3 NOT CALLDATASIZE ADD SLT PUSH2 0x305 JUMPI PUSH1 0x4 CALLDATALOAD SWAP1 DUP2 ISZERO ISZERO DUP1 PUSH2 0x368E JUMPI JUMPDEST PUSH2 0x34E7 SWAP1 PUSH2 0x4A73 JUMP JUMPDEST DUP2 DUP4 MSTORE PUSH1 0x7 DUP2 MSTORE PUSH2 0x3508 PUSH1 0x1 DUP1 PUSH1 0xA0 SHL SUB PUSH1 0x1 PUSH1 0x40 DUP7 KECCAK256 ADD SLOAD AND CALLER EQ PUSH2 0x49E4 JUMP JUMPDEST DUP2 DUP4 MSTORE PUSH1 0x7 DUP2 MSTORE PUSH1 0xFF PUSH1 0x14 PUSH1 0x40 DUP6 KECCAK256 ADD SLOAD PUSH1 0x10 SHR AND PUSH1 0xB DUP2 LT ISZERO PUSH2 0x23ED JUMPI PUSH1 0x4 SUB PUSH2 0x3640 JUMPI PUSH2 0x3535 PUSH2 0x49C1 JUMP JUMPDEST PUSH2 0x353D PUSH2 0x49A3 JUMP JUMPDEST DUP2 DUP4 MSTORE PUSH1 0x7 DUP2 MSTORE PUSH1 0x40 DUP4 KECCAK256 PUSH1 0xFF PUSH1 0x11 DUP3 ADD SLOAD PUSH1 0x18 SHR AND PUSH3 0x15180 SWAP1 DUP2 DUP2 MUL SWAP2 DUP2 DUP4 DIV EQ SWAP1 ISZERO OR ISZERO PUSH2 0x203D JUMPI PUSH2 0x3576 SWAP1 PUSH1 0x16 DUP4 ADD SLOAD PUSH2 0x4A66 JUMP JUMPDEST TIMESTAMP LT PUSH2 0x35EF JUMPI PUSH1 0xFF PUSH1 0x5 PUSH1 0x0 DUP1 MLOAD PUSH1 0x20 PUSH2 0x4C84 DUP4 CODECOPY DUP2 MLOAD SWAP2 MSTORE SWAP4 PUSH2 0x35B9 PUSH1 0x14 PUSH1 0xC0 SWAP6 ADD DUP1 SLOAD SWAP1 PUSH3 0x50000 PUSH3 0xFF0000 NOT DUP4 AND OR SWAP1 SSTORE PUSH1 0x40 MLOAD SWAP5 DUP6 SWAP2 PUSH1 0x10 SHR AND PUSH2 0x45B5 JUMP JUMPDEST DUP3 ADD MSTORE PUSH1 0x80 PUSH1 0x40 DUP3 ADD MSTORE PUSH1 0xE PUSH1 0x80 DUP3 ADD MSTORE PUSH14 0x6561726C79206578657263697365 PUSH1 0x90 SHL PUSH1 0xA0 DUP3 ADD MSTORE TIMESTAMP PUSH1 0x60 DUP3 ADD MSTORE LOG2 PUSH1 0x1 DUP1 SSTORE DUP1 RETURN JUMPDEST PUSH1 0x40 MLOAD PUSH3 0x461BCD PUSH1 0xE5 SHL DUP2 MSTORE PUSH1 0x4 DUP2 ADD DUP4 SWAP1 MSTORE PUSH1 0x23 PUSH1 0x24 DUP3 ADD MSTORE PUSH32 0x4F7074696F6E73436F72653A2065786572636973652064656C6179206E6F7420 PUSH1 0x44 DUP3 ADD MSTORE PUSH3 0x1B595D PUSH1 0xEA SHL PUSH1 0x64 DUP3 ADD MSTORE PUSH1 0x84 SWAP1 REVERT JUMPDEST PUSH1 0x84 SWAP1 PUSH1 0x40 MLOAD SWAP1 PUSH3 0x461BCD PUSH1 0xE5 SHL DUP3 MSTORE PUSH1 0x4 DUP3 ADD MSTORE PUSH1 0x21 PUSH1 0x24 DUP3 ADD MSTORE PUSH32 0x4F7074696F6E73436F72653A20696E76616C6964206F72646572207374617475 PUSH1 0x44 DUP3 ADD MSTORE PUSH1 0x73 PUSH1 0xF8 SHL PUSH1 0x64 DUP3 ADD MSTORE REVERT JUMPDEST POP PUSH1 0x5 SLOAD DUP3 LT PUSH2 0x34DE JUMP JUMPDEST POP CALLVALUE PUSH2 0x283 JUMPI PUSH1 0x40 CALLDATASIZE PUSH1 0x3 NOT ADD SLT PUSH2 0x283 JUMPI PUSH2 0x36B3 PUSH2 0x42C5 JUMP JUMPDEST PUSH1 0x1 PUSH1 0x1 PUSH1 0xA0 SHL SUB AND DUP2 MSTORE PUSH1 0xB PUSH1 0x20 MSTORE PUSH1 0x40 DUP2 KECCAK256 DUP1 SLOAD PUSH1 0x24 CALLDATALOAD SWAP3 SWAP1 DUP4 LT ISZERO PUSH2 0x283 JUMPI PUSH1 0x20 PUSH2 0x36E1 DUP5 DUP5 PUSH2 0x4301 JUMP JUMPDEST SWAP1 SLOAD PUSH1 0x40 MLOAD SWAP2 PUSH1 0x3 SHL SHR DUP2 MSTORE RETURN JUMPDEST POP CALLVALUE PUSH2 0x283 JUMPI PUSH1 0x40 CALLDATASIZE PUSH1 0x3 NOT ADD SLT PUSH2 0x283 JUMPI PUSH2 0x3709 PUSH2 0x42C5 JUMP JUMPDEST PUSH1 0x1 PUSH1 0x1 PUSH1 0xA0 SHL SUB AND DUP2 MSTORE PUSH1 0xA PUSH1 0x20 MSTORE PUSH1 0x40 DUP2 KECCAK256 DUP1 SLOAD PUSH1 0x24 CALLDATALOAD SWAP3 SWAP1 DUP4 LT ISZERO PUSH2 0x283 JUMPI PUSH1 0x20 PUSH2 0x36E1 DUP5 DUP5 PUSH2 0x4301 JUMP JUMPDEST POP CALLVALUE PUSH2 0x283 JUMPI DUP1 PUSH1 0x3 NOT CALLDATASIZE ADD SLT PUSH2 0x283 JUMPI PUSH2 0x3750 PUSH2 0x45F4 JUMP JUMPDEST PUSH1 0x2 SLOAD PUSH1 0xFF DUP2 AND ISZERO PUSH2 0x3790 JUMPI PUSH1 0xFF NOT AND PUSH1 0x2 SSTORE PUSH32 0x5DB9EE0A495BF2E6FF9C91A7834C1BA4FDD244A5E8AA4E537BD38AEAE4B073AA PUSH1 0x20 PUSH1 0x40 MLOAD CALLER DUP2 MSTORE LOG1 DUP1 RETURN JUMPDEST PUSH1 0x40 MLOAD PUSH4 0x8DFC202B PUSH1 0xE0 SHL DUP2 MSTORE PUSH1 0x4 SWAP1 REVERT JUMPDEST POP CALLVALUE PUSH2 0x283 JUMPI PUSH1 0x40 CALLDATASIZE PUSH1 0x3 NOT ADD SLT PUSH2 0x283 JUMPI PUSH2 0x37BC PUSH2 0x42DB JUMP JUMPDEST CALLER PUSH1 0x1 PUSH1 0x1 PUSH1 0xA0 SHL SUB DUP3 AND SUB PUSH2 0x37D8 JUMPI PUSH2 0xCA7 SWAP1 PUSH1 0x4 CALLDATALOAD PUSH2 0x46F0 JUMP JUMPDEST PUSH1 0x40 MLOAD PUSH4 0x334BD919 PUSH1 0xE1 SHL DUP2 MSTORE PUSH1 0x4 SWAP1 REVERT JUMPDEST POP CALLVALUE PUSH2 0x283 JUMPI DUP1 PUSH1 0x3 NOT CALLDATASIZE ADD SLT PUSH2 0x283 JUMPI PUSH1 0x4 SLOAD PUSH1 0x40 MLOAD PUSH1 0x1 PUSH1 0x1 PUSH1 0xA0 SHL SUB SWAP1 SWAP2 AND DUP2 MSTORE PUSH1 0x20 SWAP1 RETURN JUMPDEST POP CALLVALUE PUSH2 0x283 JUMPI PUSH1 0x40 CALLDATASIZE PUSH1 0x3 NOT ADD SLT PUSH2 0x283 JUMPI PUSH2 0xCA7 PUSH1 0x4 CALLDATALOAD PUSH2 0x3833 PUSH2 0x42DB JUMP JUMPDEST SWAP1 DUP1 DUP5 MSTORE DUP4 PUSH1 0x20 MSTORE PUSH2 0x384B PUSH1 0x1 PUSH1 0x40 DUP7 KECCAK256 ADD SLOAD PUSH2 0x464C JUMP JUMPDEST PUSH2 0x4672 JUMP JUMPDEST POP CALLVALUE PUSH2 0x283 JUMPI DUP1 PUSH1 0x3 NOT CALLDATASIZE ADD SLT PUSH2 0x283 JUMPI PUSH1 0x20 PUSH1 0x5 SLOAD PUSH1 0x40 MLOAD SWAP1 DUP2 MSTORE RETURN JUMPDEST POP CALLVALUE PUSH2 0x283 JUMPI PUSH1 0x20 CALLDATASIZE PUSH1 0x3 NOT ADD SLT PUSH2 0x283 JUMPI PUSH1 0x1 PUSH1 0x40 PUSH1 0x20 SWAP3 PUSH1 0x4 CALLDATALOAD DUP2 MSTORE DUP1 DUP5 MSTORE KECCAK256 ADD SLOAD PUSH1 0x40 MLOAD SWAP1 DUP2 MSTORE RETURN JUMPDEST POP CALLVALUE PUSH2 0x283 JUMPI PUSH1 0x20 CALLDATASIZE PUSH1 0x3 NOT ADD SLT PUSH2 0x283 JUMPI PUSH2 0x38B4 PUSH2 0x42C5 JUMP JUMPDEST PUSH2 0x38BC PUSH2 0x45F4 JUMP JUMPDEST PUSH1 0x2 DUP1 SLOAD PUSH2 0x100 PUSH1 0x1 PUSH1 0xA8 SHL SUB NOT AND PUSH1 0x8 SWAP3 SWAP1 SWAP3 SHL PUSH2 0x100 PUSH1 0x1 PUSH1 0xA8 SHL SUB AND SWAP2 SWAP1 SWAP2 OR SWAP1 SSTORE DUP1 RETURN JUMPDEST POP CALLVALUE PUSH2 0x283 JUMPI PUSH2 0x1E0 CALLDATASIZE PUSH1 0x3 NOT ADD SLT PUSH2 0x283 JUMPI PUSH1 0x4 CALLDATALOAD PUSH1 0x1 PUSH1 0x1 PUSH1 0x40 SHL SUB DUP2 GT PUSH2 0x305 JUMPI PUSH2 0x3916 SWAP1 CALLDATASIZE SWAP1 PUSH1 0x4 ADD PUSH2 0x4298 JUMP JUMPDEST PUSH1 0x24 CALLDATALOAD PUSH1 0x1 PUSH1 0x1 PUSH1 0x40 SHL SUB DUP2 GT PUSH2 0xC66 JUMPI PUSH2 0x3935 SWAP1 CALLDATASIZE SWAP1 PUSH1 0x4 ADD PUSH2 0x4298 JUMP JUMPDEST PUSH1 0x44 SWAP5 SWAP2 SWAP5 CALLDATALOAD PUSH1 0x1 PUSH1 0x1 PUSH1 0x40 SHL SUB DUP2 GT PUSH2 0x27F JUMPI PUSH2 0x3957 SWAP1 CALLDATASIZE SWAP1 PUSH1 0x4 ADD PUSH2 0x4298 JUMP JUMPDEST PUSH1 0x64 SWAP7 SWAP2 SWAP7 CALLDATALOAD PUSH1 0x1 PUSH1 0x1 PUSH1 0x40 SHL SUB DUP2 GT PUSH2 0x2215 JUMPI PUSH2 0x3979 SWAP1 CALLDATASIZE SWAP1 PUSH1 0x4 ADD PUSH2 0x4298 JUMP JUMPDEST PUSH1 0x84 SWAP9 SWAP2 SWAP9 CALLDATALOAD PUSH1 0x1 PUSH1 0x1 PUSH1 0x40 SHL SUB DUP2 GT PUSH2 0x2A51 JUMPI PUSH2 0x399B SWAP1 CALLDATASIZE SWAP1 PUSH1 0x4 ADD PUSH2 0x4298 JUMP JUMPDEST SWAP10 SWAP1 SWAP9 PUSH1 0x2 PUSH1 0xA4 CALLDATALOAD LT ISZERO PUSH2 0xC5E JUMPI PUSH1 0x3 PUSH2 0x144 CALLDATALOAD LT ISZERO PUSH2 0xC5E JUMPI PUSH2 0x164 CALLDATALOAD PUSH1 0x1 PUSH1 0x1 PUSH1 0xA0 SHL SUB DUP2 AND SWAP1 SUB PUSH2 0xC5E JUMPI PUSH2 0x39D1 PUSH2 0x42F1 JUMP JUMPDEST PUSH2 0x39D9 PUSH2 0x49C1 JUMP JUMPDEST PUSH2 0x39E1 PUSH2 0x49A3 JUMP JUMPDEST PUSH2 0x39EE PUSH1 0xC4 CALLDATALOAD ISZERO ISZERO PUSH2 0x4765 JUMP JUMPDEST PUSH2 0x39FB TIMESTAMP PUSH1 0xE4 CALLDATALOAD GT PUSH2 0x47C0 JUMP JUMPDEST PUSH1 0x2 SLOAD PUSH1 0x40 MLOAD PUSH4 0x5D8EB687 PUSH1 0xE0 SHL DUP2 MSTORE PUSH1 0x8 SWAP2 SWAP1 SWAP2 SHR PUSH1 0x1 PUSH1 0x1 PUSH1 0xA0 SHL SUB AND SWAP1 PUSH1 0x20 DUP2 PUSH1 0x4 DUP2 DUP6 GAS STATICCALL DUP1 ISZERO PUSH2 0x4238 JUMPI DUP12 SWAP1 PUSH2 0x4200 JUMPI JUMPDEST PUSH2 0x3A41 SWAP2 POP PUSH2 0x124 CALLDATALOAD LT ISZERO PUSH2 0x481A JUMP JUMPDEST PUSH1 0x4 DUP1 SLOAD PUSH1 0x3 SLOAD PUSH1 0x40 MLOAD PUSH4 0x37382D39 PUSH1 0xE2 SHL DUP2 MSTORE PUSH1 0x1 PUSH1 0x1 PUSH1 0xA0 SHL SUB SWAP3 DUP4 AND SWAP5 SWAP1 SWAP4 SWAP2 SWAP1 SWAP3 AND SWAP2 PUSH1 0x20 SWAP2 DUP5 SWAP2 DUP3 SWAP1 GAS STATICCALL SWAP2 DUP3 ISZERO PUSH2 0x41F5 JUMPI DUP13 SWAP3 PUSH2 0x41BB JUMPI JUMPDEST POP PUSH2 0x3A8B SWAP3 CALLER SWAP1 PUSH2 0x48FC JUMP JUMPDEST PUSH1 0x5 SLOAD SWAP10 PUSH2 0x3A98 DUP12 PUSH2 0x4865 JUMP JUMPDEST PUSH1 0x5 SSTORE DUP11 DUP11 MSTORE PUSH1 0x7 PUSH1 0x20 MSTORE PUSH1 0x40 DUP11 KECCAK256 DUP12 DUP2 SSTORE PUSH1 0x1 DUP2 ADD DUP1 SLOAD PUSH1 0x1 PUSH1 0x1 PUSH1 0xA0 SHL SUB NOT AND CALLER OR SWAP1 SSTORE SWAP3 PUSH1 0x1 PUSH1 0x1 PUSH1 0x40 SHL SUB DUP3 GT PUSH2 0x41A7 JUMPI DUP2 SWAP1 PUSH2 0x3ADC PUSH1 0x3 DUP7 ADD SLOAD PUSH2 0x440B JUMP JUMPDEST PUSH1 0x1F DUP2 GT PUSH2 0x4155 JUMPI JUMPDEST POP DUP12 SWAP1 PUSH1 0x1F DUP4 GT PUSH1 0x1 EQ PUSH2 0x40E9 JUMPI DUP13 SWAP3 PUSH2 0x40DE JUMPI JUMPDEST POP POP DUP2 PUSH1 0x1 SHL SWAP2 PUSH1 0x0 NOT SWAP1 PUSH1 0x3 SHL SHR NOT AND OR PUSH1 0x3 DUP4 ADD SSTORE JUMPDEST PUSH1 0x1 PUSH1 0x1 PUSH1 0x40 SHL SUB DUP9 GT PUSH2 0x3E9F JUMPI PUSH2 0x3B2D PUSH1 0x4 DUP4 ADD SLOAD PUSH2 0x440B JUMP JUMPDEST PUSH1 0x1F DUP2 GT PUSH2 0x409A JUMPI JUMPDEST POP DUP8 DUP10 PUSH1 0x1F DUP3 GT PUSH1 0x1 EQ PUSH2 0x4030 JUMPI DUP11 SWAP2 PUSH2 0x4025 JUMPI JUMPDEST POP DUP9 PUSH1 0x1 SHL SWAP1 PUSH1 0x0 NOT DUP11 PUSH1 0x3 SHL SHR NOT AND OR PUSH1 0x4 DUP4 ADD SSTORE JUMPDEST PUSH1 0x1 PUSH1 0x1 PUSH1 0x40 SHL SUB DUP7 GT PUSH2 0x3E9F JUMPI PUSH2 0x3B7D PUSH1 0x5 DUP4 ADD SLOAD PUSH2 0x440B JUMP JUMPDEST PUSH1 0x1F DUP2 GT PUSH2 0x3FE1 JUMPI JUMPDEST POP DUP6 DUP10 PUSH1 0x1F DUP3 GT PUSH1 0x1 EQ PUSH2 0x3F77 JUMPI DUP11 SWAP2 PUSH2 0x3F6C JUMPI JUMPDEST POP DUP7 PUSH1 0x1 SHL SWAP1 PUSH1 0x0 NOT DUP9 PUSH1 0x3 SHL SHR NOT AND OR PUSH1 0x5 DUP4 ADD SSTORE JUMPDEST PUSH1 0x1 PUSH1 0x1 PUSH1 0x40 SHL SUB DUP5 GT PUSH2 0x3E9F JUMPI PUSH2 0x3BCD PUSH1 0x6 DUP4 ADD SLOAD PUSH2 0x440B JUMP JUMPDEST PUSH1 0x1F DUP2 GT PUSH2 0x3F28 JUMPI JUMPDEST POP DUP4 DUP10 PUSH1 0x1F DUP3 GT PUSH1 0x1 EQ PUSH2 0x3EBE JUMPI DUP11 SWAP2 PUSH2 0x3EB3 JUMPI JUMPDEST POP DUP5 PUSH1 0x1 SHL SWAP1 PUSH1 0x0 NOT DUP7 PUSH1 0x3 SHL SHR NOT AND OR PUSH1 0x6 DUP4 ADD SSTORE JUMPDEST PUSH1 0x1 PUSH1 0x1 PUSH1 0x40 SHL SUB DUP13 GT PUSH2 0x3E9F JUMPI PUSH2 0x3C1D PUSH1 0x7 DUP4 ADD SLOAD PUSH2 0x440B JUMP JUMPDEST PUSH1 0x1F DUP2 GT PUSH2 0x3E5A JUMPI JUMPDEST POP PUSH1 0x20 SWAP12 DUP10 SWAP12 PUSH1 0x1F DUP3 GT PUSH1 0x1 EQ PUSH2 0x3DB5 JUMPI SWAP7 DUP14 DUP13 SWAP14 SWAP8 PUSH2 0x75C DUP15 PUSH1 0xC0 SWAP14 SWAP10 PUSH1 0x0 DUP1 MLOAD PUSH1 0x20 PUSH2 0x4C84 DUP4 CODECOPY DUP2 MLOAD SWAP2 MSTORE SWAP16 SWAP14 SWAP9 DUP6 SWAP11 DUP16 PUSH2 0x3D3B SWAP16 DUP6 SWAP16 DUP3 DUP11 SWAP6 PUSH2 0x774 SWAP15 DUP15 DUP11 SWAP16 PUSH1 0x40 SWAP6 DUP13 SWAP8 PUSH2 0x744 SWAP10 SWAP3 PUSH2 0x3DAA JUMPI JUMPDEST POP POP DUP2 PUSH1 0x1 SHL SWAP2 PUSH1 0x0 NOT SWAP1 PUSH1 0x3 SHL SHR NOT AND OR PUSH1 0x7 DUP4 ADD SSTORE JUMPDEST PUSH2 0x3C9F PUSH1 0xA4 CALLDATALOAD PUSH1 0x8 DUP5 ADD PUSH2 0x488A JUMP JUMPDEST PUSH1 0xC4 CALLDATALOAD PUSH1 0x9 DUP4 ADD SSTORE PUSH1 0xE4 CALLDATALOAD PUSH1 0xB DUP4 ADD SSTORE PUSH2 0x104 CALLDATALOAD PUSH1 0xC DUP4 ADD SSTORE PUSH2 0x124 CALLDATALOAD PUSH1 0x10 DUP4 ADD SSTORE PUSH1 0x11 DUP3 ADD PUSH2 0x3CD2 PUSH2 0x144 CALLDATALOAD DUP3 PUSH2 0x48A2 JUMP JUMPDEST DUP1 SLOAD PUSH6 0x10000000000 PUSH1 0x1 PUSH1 0xC8 SHL SUB NOT AND PUSH2 0x164 CALLDATALOAD PUSH1 0x28 SHL PUSH6 0x10000000000 PUSH1 0x1 PUSH1 0xC8 SHL SUB AND OR SWAP1 SSTORE PUSH2 0x184 CALLDATALOAD PUSH1 0x12 DUP4 ADD SSTORE PUSH2 0x1A4 CALLDATALOAD PUSH1 0x13 DUP4 ADD SSTORE PUSH1 0x14 DUP3 ADD DUP1 SLOAD SWAP2 ISZERO ISZERO PUSH1 0xFF AND PUSH3 0xFF00FF NOT SWAP1 SWAP3 AND SWAP2 SWAP1 SWAP2 OR SWAP1 SSTORE TIMESTAMP PUSH1 0x15 SWAP1 SWAP2 ADD SSTORE CALLER DUP2 MSTORE PUSH1 0xA DUP7 MSTORE KECCAK256 PUSH2 0x48C7 JUMP JUMPDEST PUSH1 0x40 MLOAD PUSH1 0x1 DUP2 MSTORE TIMESTAMP DUP8 DUP3 ADD MSTORE DUP5 PUSH32 0xC0C6ED2669FEBBE340D8737E8EC17254FFD9E038B54A4585FF70AC3CA18956AA PUSH1 0x40 CALLER SWAP4 LOG3 PUSH1 0x40 MLOAD SWAP1 DUP1 DUP3 MSTORE DUP7 DUP3 ADD MSTORE PUSH1 0x80 PUSH1 0x40 DUP3 ADD MSTORE PUSH1 0x7 PUSH1 0x80 DUP3 ADD MSTORE PUSH7 0x18DC99585D1959 PUSH1 0xCA SHL PUSH1 0xA0 DUP3 ADD MSTORE TIMESTAMP PUSH1 0x60 DUP3 ADD MSTORE LOG2 PUSH1 0x1 DUP1 SSTORE PUSH1 0x40 MLOAD SWAP1 DUP2 MSTORE RETURN JUMPDEST ADD CALLDATALOAD SWAP1 POP CODESIZE DUP1 PUSH2 0x3C78 JUMP JUMPDEST PUSH1 0x7 DUP5 ADD DUP12 MSTORE DUP14 DUP12 KECCAK256 SWAP1 DUP12 SWAP14 DUP15 JUMPDEST PUSH1 0x1F NOT DUP6 AND GT PUSH2 0x3E42 JUMPI DUP16 SWAP7 DUP15 SWAP16 POP DUP15 PUSH1 0xC0 SWAP14 SWAP10 PUSH1 0x0 DUP1 MLOAD PUSH1 0x20 PUSH2 0x4C84 DUP4 CODECOPY DUP2 MLOAD SWAP2 MSTORE SWAP16 SWAP14 SWAP9 PUSH2 0x75C SWAP4 DUP16 PUSH2 0x3D3B SWAP16 SWAP9 DUP6 SWAP16 SWAP8 PUSH2 0x744 SWAP3 DUP16 SWAP11 SWAP6 PUSH2 0x774 SWAP15 PUSH1 0x1 DUP11 SWAP16 DUP12 SWAP7 DUP16 SWAP11 PUSH1 0x40 SWAP8 DUP4 PUSH1 0x1F NOT DUP2 AND LT PUSH2 0x3E28 JUMPI JUMPDEST POP POP POP DUP2 SHL ADD PUSH1 0x7 DUP4 ADD SSTORE PUSH2 0x3C90 JUMP JUMPDEST ADD CALLDATALOAD PUSH1 0x0 NOT PUSH1 0x3 DUP5 SWAP1 SHL PUSH1 0xF8 AND SHR NOT AND SWAP1 SSTORE CODESIZE DUP1 DUP1 PUSH2 0x3E18 JUMP JUMPDEST SWAP2 DUP16 PUSH1 0x1 DUP2 SWAP3 DUP6 DUP6 ADD CALLDATALOAD DUP2 SSTORE ADD SWAP4 ADD SWAP15 ADD SWAP14 DUP15 PUSH2 0x3DC3 JUMP JUMPDEST PUSH1 0x7 DUP4 ADD DUP11 MSTORE PUSH1 0x20 DUP11 KECCAK256 DUP14 PUSH1 0x20 PUSH1 0x1F DUP3 ADD PUSH1 0x5 SHR DUP4 ADD SWAP2 LT PUSH2 0x3E98 JUMPI JUMPDEST PUSH1 0x1F DUP4 ADD PUSH1 0x5 SHR DUP3 ADD DUP2 LT PUSH2 0x3E8D JUMPI POP POP PUSH2 0x3C26 JUMP JUMPDEST DUP12 DUP2 SSTORE PUSH1 0x1 ADD PUSH2 0x3E77 JUMP JUMPDEST POP DUP1 PUSH2 0x3E77 JUMP JUMPDEST PUSH4 0x4E487B71 PUSH1 0xE0 SHL DUP10 MSTORE PUSH1 0x41 PUSH1 0x4 MSTORE PUSH1 0x24 DUP10 REVERT JUMPDEST SWAP1 POP DUP4 ADD CALLDATALOAD CODESIZE PUSH2 0x3BEB JUMP JUMPDEST PUSH1 0x6 DUP5 ADD DUP12 MSTORE PUSH1 0x20 DUP12 KECCAK256 SWAP2 POP DUP11 JUMPDEST PUSH1 0x1F NOT DUP8 AND DUP2 LT PUSH2 0x3F10 JUMPI POP DUP6 PUSH1 0x1F NOT DUP2 AND LT PUSH2 0x3EF6 JUMPI JUMPDEST POP POP PUSH1 0x1 DUP5 DUP2 SHL ADD PUSH1 0x6 DUP4 ADD SSTORE PUSH2 0x3C02 JUMP JUMPDEST DUP5 ADD CALLDATALOAD PUSH1 0x0 NOT PUSH1 0x3 DUP8 SWAP1 SHL PUSH1 0xF8 AND SHR NOT AND SWAP1 SSTORE CODESIZE DUP1 PUSH2 0x3EE4 JUMP JUMPDEST SWAP1 SWAP2 PUSH1 0x20 PUSH1 0x1 DUP2 SWAP3 DUP6 DUP10 ADD CALLDATALOAD DUP2 SSTORE ADD SWAP4 ADD SWAP2 ADD PUSH2 0x3ECC JUMP JUMPDEST PUSH1 0x6 DUP4 ADD DUP11 MSTORE PUSH1 0x20 DUP11 KECCAK256 PUSH1 0x1F DUP7 ADD PUSH1 0x5 SHR DUP2 ADD PUSH1 0x20 DUP8 LT PUSH2 0x3F65 JUMPI JUMPDEST PUSH1 0x1F DUP4 ADD PUSH1 0x5 SHR DUP3 ADD DUP2 LT PUSH2 0x3F5A JUMPI POP POP PUSH2 0x3BD6 JUMP JUMPDEST DUP12 DUP2 SSTORE PUSH1 0x1 ADD PUSH2 0x3F44 JUMP JUMPDEST POP DUP1 PUSH2 0x3F44 JUMP JUMPDEST SWAP1 POP DUP6 ADD CALLDATALOAD CODESIZE PUSH2 0x3B9B JUMP JUMPDEST PUSH1 0x5 DUP5 ADD DUP12 MSTORE PUSH1 0x20 DUP12 KECCAK256 SWAP2 POP DUP11 JUMPDEST PUSH1 0x1F NOT DUP10 AND DUP2 LT PUSH2 0x3FC9 JUMPI POP DUP8 PUSH1 0x1F NOT DUP2 AND LT PUSH2 0x3FAF JUMPI JUMPDEST POP POP PUSH1 0x1 DUP7 DUP2 SHL ADD PUSH1 0x5 DUP4 ADD SSTORE PUSH2 0x3BB2 JUMP JUMPDEST DUP7 ADD CALLDATALOAD PUSH1 0x0 NOT PUSH1 0x3 DUP10 SWAP1 SHL PUSH1 0xF8 AND SHR NOT AND SWAP1 SSTORE CODESIZE DUP1 PUSH2 0x3F9D JUMP JUMPDEST SWAP1 SWAP2 PUSH1 0x20 PUSH1 0x1 DUP2 SWAP3 DUP6 DUP12 ADD CALLDATALOAD DUP2 SSTORE ADD SWAP4 ADD SWAP2 ADD PUSH2 0x3F85 JUMP JUMPDEST PUSH1 0x5 DUP4 ADD DUP11 MSTORE PUSH1 0x20 DUP11 KECCAK256 PUSH1 0x1F DUP9 ADD PUSH1 0x5 SHR DUP2 ADD PUSH1 0x20 DUP10 LT PUSH2 0x401E JUMPI JUMPDEST PUSH1 0x1F DUP4 ADD PUSH1 0x5 SHR DUP3 ADD DUP2 LT PUSH2 0x4013 JUMPI POP POP PUSH2 0x3B86 JUMP JUMPDEST DUP12 DUP2 SSTORE PUSH1 0x1 ADD PUSH2 0x3FFD JUMP JUMPDEST POP DUP1 PUSH2 0x3FFD JUMP JUMPDEST SWAP1 POP DUP8 ADD CALLDATALOAD CODESIZE PUSH2 0x3B4B JUMP JUMPDEST PUSH1 0x4 DUP5 ADD DUP12 MSTORE PUSH1 0x20 DUP12 KECCAK256 SWAP2 POP DUP11 JUMPDEST PUSH1 0x1F NOT DUP12 AND DUP2 LT PUSH2 0x4082 JUMPI POP DUP10 PUSH1 0x1F NOT DUP2 AND LT PUSH2 0x4068 JUMPI JUMPDEST POP POP PUSH1 0x1 DUP9 DUP2 SHL ADD PUSH1 0x4 DUP4 ADD SSTORE PUSH2 0x3B62 JUMP JUMPDEST DUP9 ADD CALLDATALOAD PUSH1 0x0 NOT PUSH1 0x3 DUP12 SWAP1 SHL PUSH1 0xF8 AND SHR NOT AND SWAP1 SSTORE CODESIZE DUP1 PUSH2 0x4056 JUMP JUMPDEST SWAP1 SWAP2 PUSH1 0x20 PUSH1 0x1 DUP2 SWAP3 DUP6 DUP14 ADD CALLDATALOAD DUP2 SSTORE ADD SWAP4 ADD SWAP2 ADD PUSH2 0x403E JUMP JUMPDEST PUSH1 0x4 DUP4 ADD DUP11 MSTORE PUSH1 0x20 DUP11 KECCAK256 PUSH1 0x1F DUP11 ADD PUSH1 0x5 SHR DUP2 ADD PUSH1 0x20 DUP12 LT PUSH2 0x40D7 JUMPI JUMPDEST PUSH1 0x1F DUP4 ADD PUSH1 0x5 SHR DUP3 ADD DUP2 LT PUSH2 0x40CC JUMPI POP POP PUSH2 0x3B36 JUMP JUMPDEST DUP12 DUP2 SSTORE PUSH1 0x1 ADD PUSH2 0x40B6 JUMP JUMPDEST POP DUP1 PUSH2 0x40B6 JUMP JUMPDEST ADD CALLDATALOAD SWAP1 POP CODESIZE DUP1 PUSH2 0x3AFA JUMP JUMPDEST PUSH1 0x3 DUP7 ADD DUP14 MSTORE PUSH1 0x20 DUP14 KECCAK256 DUP14 SWAP5 POP SWAP2 JUMPDEST PUSH1 0x1F NOT DUP5 AND DUP6 LT PUSH2 0x413D JUMPI PUSH1 0x1 SWAP5 POP DUP4 PUSH1 0x1F NOT DUP2 AND LT PUSH2 0x4123 JUMPI JUMPDEST POP POP POP DUP2 SHL ADD PUSH1 0x3 DUP4 ADD SSTORE PUSH2 0x3B12 JUMP JUMPDEST ADD CALLDATALOAD PUSH1 0x0 NOT PUSH1 0x3 DUP5 SWAP1 SHL PUSH1 0xF8 AND SHR NOT AND SWAP1 SSTORE CODESIZE DUP1 DUP1 PUSH2 0x4113 JUMP JUMPDEST DUP2 DUP2 ADD CALLDATALOAD DUP4 SSTORE PUSH1 0x20 SWAP5 DUP6 ADD SWAP5 PUSH1 0x1 SWAP1 SWAP4 ADD SWAP3 ADD PUSH2 0x40F8 JUMP JUMPDEST SWAP1 SWAP2 POP PUSH1 0x3 DUP6 ADD DUP13 MSTORE PUSH1 0x20 DUP13 KECCAK256 PUSH1 0x1F DUP5 ADD PUSH1 0x5 SHR DUP2 ADD PUSH1 0x20 DUP6 LT PUSH2 0x41A0 JUMPI JUMPDEST DUP5 SWAP4 SWAP3 SWAP2 SWAP1 DUP15 JUMPDEST PUSH1 0x1F DUP5 ADD PUSH1 0x5 SHR DUP4 ADD DUP3 LT PUSH2 0x4192 JUMPI POP POP POP PUSH2 0x3AE5 JUMP JUMPDEST DUP2 SSTORE DUP6 SWAP5 POP PUSH1 0x1 ADD DUP15 PUSH2 0x417B JUMP JUMPDEST POP DUP1 PUSH2 0x4174 JUMP JUMPDEST PUSH4 0x4E487B71 PUSH1 0xE0 SHL DUP12 MSTORE PUSH1 0x41 PUSH1 0x4 MSTORE PUSH1 0x24 DUP12 REVERT JUMPDEST SWAP1 SWAP2 POP PUSH1 0x20 DUP2 RETURNDATASIZE PUSH1 0x20 GT PUSH2 0x41ED JUMPI JUMPDEST DUP2 PUSH2 0x41D7 PUSH1 0x20 SWAP4 DUP4 PUSH2 0x44A6 JUMP JUMPDEST DUP2 ADD SUB SLT PUSH2 0x41E9 JUMPI MLOAD SWAP1 PUSH2 0x3A8B PUSH2 0x3A7F JUMP JUMPDEST DUP12 DUP1 REVERT JUMPDEST RETURNDATASIZE SWAP2 POP PUSH2 0x41CA JUMP JUMPDEST PUSH1 0x40 MLOAD RETURNDATASIZE DUP15 DUP3 RETURNDATACOPY RETURNDATASIZE SWAP1 REVERT JUMPDEST POP PUSH1 0x20 DUP2 RETURNDATASIZE PUSH1 0x20 GT PUSH2 0x4230 JUMPI JUMPDEST DUP2 PUSH2 0x421A PUSH1 0x20 SWAP4 DUP4 PUSH2 0x44A6 JUMP JUMPDEST DUP2 ADD SUB SLT PUSH2 0x422C JUMPI PUSH2 0x3A41 SWAP1 MLOAD PUSH2 0x3A31 JUMP JUMPDEST DUP11 DUP1 REVERT JUMPDEST RETURNDATASIZE SWAP2 POP PUSH2 0x420D JUMP JUMPDEST PUSH1 0x40 MLOAD RETURNDATASIZE DUP14 DUP3 RETURNDATACOPY RETURNDATASIZE SWAP1 REVERT JUMPDEST SWAP1 POP CALLVALUE PUSH2 0x305 JUMPI PUSH1 0x20 CALLDATASIZE PUSH1 0x3 NOT ADD SLT PUSH2 0x305 JUMPI PUSH1 0x4 CALLDATALOAD PUSH4 0xFFFFFFFF PUSH1 0xE0 SHL DUP2 AND DUP1 SWAP2 SUB PUSH2 0x27F JUMPI PUSH1 0x20 SWAP3 POP PUSH4 0x7965DB0B PUSH1 0xE0 SHL DUP2 EQ SWAP1 DUP2 ISZERO PUSH2 0x4287 JUMPI JUMPDEST POP ISZERO ISZERO DUP2 MSTORE RETURN JUMPDEST PUSH4 0x1FFC9A7 PUSH1 0xE0 SHL EQ SWAP1 POP CODESIZE PUSH2 0x4280 JUMP JUMPDEST SWAP2 DUP2 PUSH1 0x1F DUP5 ADD SLT ISZERO PUSH2 0xC42 JUMPI DUP3 CALLDATALOAD SWAP2 PUSH1 0x1 PUSH1 0x1 PUSH1 0x40 SHL SUB DUP4 GT PUSH2 0xC42 JUMPI PUSH1 0x20 DUP4 DUP2 DUP7 ADD SWAP6 ADD ADD GT PUSH2 0xC42 JUMPI JUMP JUMPDEST PUSH1 0x4 CALLDATALOAD SWAP1 PUSH1 0x1 PUSH1 0x1 PUSH1 0xA0 SHL SUB DUP3 AND DUP3 SUB PUSH2 0xC42 JUMPI JUMP JUMPDEST PUSH1 0x24 CALLDATALOAD SWAP1 PUSH1 0x1 PUSH1 0x1 PUSH1 0xA0 SHL SUB DUP3 AND DUP3 SUB PUSH2 0xC42 JUMPI JUMP JUMPDEST PUSH2 0x1C4 CALLDATALOAD SWAP1 DUP2 ISZERO ISZERO DUP3 SUB PUSH2 0xC42 JUMPI JUMP JUMPDEST DUP1 SLOAD DUP3 LT ISZERO PUSH2 0x4319 JUMPI PUSH1 0x0 MSTORE PUSH1 0x20 PUSH1 0x0 KECCAK256 ADD SWAP1 PUSH1 0x0 SWAP1 JUMP JUMPDEST PUSH4 0x4E487B71 PUSH1 0xE0 SHL PUSH1 0x0 MSTORE PUSH1 0x32 PUSH1 0x4 MSTORE PUSH1 0x24 PUSH1 0x0 REVERT JUMPDEST PUSH1 0x20 SWAP1 DUP2 PUSH1 0x40 DUP2 DUP4 ADD SWAP3 DUP3 DUP2 MSTORE DUP6 MLOAD DUP1 SWAP5 MSTORE ADD SWAP4 ADD SWAP2 PUSH1 0x0 JUMPDEST DUP3 DUP2 LT PUSH2 0x4356 JUMPI POP POP POP POP SWAP1 JUMP JUMPDEST DUP4 MLOAD DUP6 MSTORE SWAP4 DUP2 ADD SWAP4 SWAP3 DUP2 ADD SWAP3 PUSH1 0x1 ADD PUSH2 0x4348 JUMP JUMPDEST PUSH1 0x3 GT ISZERO PUSH2 0x176C JUMPI JUMP JUMPDEST SWAP1 PUSH1 0x4 DUP3 LT ISZERO PUSH2 0x176C JUMPI MSTORE JUMP JUMPDEST SWAP12 SWAP10 SWAP8 SWAP6 SWAP4 SWAP2 SWAP15 SWAP14 SWAP13 SWAP11 SWAP9 SWAP7 SWAP5 SWAP3 SWAP1 SWAP15 PUSH2 0x1C0 DUP14 ADD SWAP16 DUP14 MSTORE PUSH1 0x20 DUP14 ADD MSTORE PUSH1 0x1 PUSH1 0xA0 SHL PUSH1 0x1 SWAP1 SUB AND PUSH1 0x40 DUP13 ADD MSTORE PUSH2 0x43B6 DUP2 PUSH2 0x436A JUMP JUMPDEST PUSH1 0x60 DUP12 ADD MSTORE PUSH1 0x80 DUP11 ADD MSTORE PUSH1 0xA0 DUP10 ADD MSTORE PUSH1 0xC0 DUP9 ADD MSTORE PUSH1 0xE0 DUP8 ADD MSTORE PUSH2 0x43D8 DUP2 PUSH2 0x436A JUMP JUMPDEST PUSH2 0x100 DUP7 ADD MSTORE PUSH1 0xFF AND PUSH2 0x120 DUP6 ADD MSTORE PUSH1 0xFF AND PUSH2 0x140 DUP5 ADD MSTORE PUSH2 0x160 DUP4 ADD MSTORE PUSH2 0x180 DUP3 ADD MSTORE PUSH2 0x1A0 ADD PUSH2 0x4409 SWAP2 PUSH2 0x4374 JUMP JUMPDEST JUMP JUMPDEST SWAP1 PUSH1 0x1 DUP3 DUP2 SHR SWAP3 AND DUP1 ISZERO PUSH2 0x443B JUMPI JUMPDEST PUSH1 0x20 DUP4 LT EQ PUSH2 0x4425 JUMPI JUMP JUMPDEST PUSH4 0x4E487B71 PUSH1 0xE0 SHL PUSH1 0x0 MSTORE PUSH1 0x22 PUSH1 0x4 MSTORE PUSH1 0x24 PUSH1 0x0 REVERT JUMPDEST SWAP2 PUSH1 0x7F AND SWAP2 PUSH2 0x441A JUMP JUMPDEST PUSH2 0x1C0 DUP2 ADD SWAP1 DUP2 LT PUSH1 0x1 PUSH1 0x1 PUSH1 0x40 SHL SUB DUP3 GT OR PUSH2 0x4461 JUMPI PUSH1 0x40 MSTORE JUMP JUMPDEST PUSH4 0x4E487B71 PUSH1 0xE0 SHL PUSH1 0x0 MSTORE PUSH1 0x41 PUSH1 0x4 MSTORE PUSH1 0x24 PUSH1 0x0 REVERT JUMPDEST PUSH1 0x1 PUSH1 0x1 PUSH1 0x40 SHL SUB DUP2 GT PUSH2 0x4461 JUMPI PUSH1 0x40 MSTORE JUMP JUMPDEST PUSH2 0x400 DUP2 ADD SWAP1 DUP2 LT PUSH1 0x1 PUSH1 0x1 PUSH1 0x40 SHL SUB DUP3 GT OR PUSH2 0x4461 JUMPI PUSH1 0x40 MSTORE JUMP JUMPDEST SWAP1 PUSH1 0x1F DUP1 NOT SWAP2 ADD AND DUP2 ADD SWAP1 DUP2 LT PUSH1 0x1 PUSH1 0x1 PUSH1 0x40 SHL SUB DUP3 GT OR PUSH2 0x4461 JUMPI PUSH1 0x40 MSTORE JUMP JUMPDEST SWAP1 PUSH1 0x40 MLOAD SWAP2 DUP3 PUSH1 0x0 DUP3 SLOAD SWAP3 PUSH2 0x44DB DUP5 PUSH2 0x440B JUMP JUMPDEST SWAP1 DUP2 DUP5 MSTORE PUSH1 0x1 SWAP5 DUP6 DUP2 AND SWAP1 DUP2 PUSH1 0x0 EQ PUSH2 0x4548 JUMPI POP PUSH1 0x1 EQ PUSH2 0x4505 JUMPI JUMPDEST POP POP PUSH2 0x4409 SWAP3 POP SUB DUP4 PUSH2 0x44A6 JUMP JUMPDEST SWAP1 SWAP4 SWAP2 POP PUSH1 0x0 MSTORE PUSH1 0x20 SWAP1 DUP2 PUSH1 0x0 KECCAK256 SWAP4 PUSH1 0x0 SWAP2 JUMPDEST DUP2 DUP4 LT PUSH2 0x4530 JUMPI POP POP PUSH2 0x4409 SWAP4 POP DUP3 ADD ADD CODESIZE DUP1 PUSH2 0x44F7 JUMP JUMPDEST DUP6 SLOAD DUP9 DUP5 ADD DUP6 ADD MSTORE SWAP5 DUP6 ADD SWAP5 DUP8 SWAP5 POP SWAP2 DUP4 ADD SWAP2 PUSH2 0x4518 JUMP JUMPDEST SWAP2 POP POP PUSH2 0x4409 SWAP5 POP PUSH1 0x20 SWAP3 POP PUSH1 0xFF NOT AND DUP3 DUP5 ADD MSTORE ISZERO ISZERO PUSH1 0x5 SHL DUP3 ADD ADD CODESIZE DUP1 PUSH2 0x44F7 JUMP JUMPDEST SWAP2 SWAP1 DUP3 MLOAD SWAP3 DUP4 DUP3 MSTORE PUSH1 0x0 JUMPDEST DUP5 DUP2 LT PUSH2 0x4597 JUMPI POP POP DUP3 PUSH1 0x0 PUSH1 0x20 DUP1 SWAP5 SWAP6 DUP5 ADD ADD MSTORE PUSH1 0x1F DUP1 NOT SWAP2 ADD AND ADD ADD SWAP1 JUMP JUMPDEST PUSH1 0x20 DUP2 DUP4 ADD DUP2 ADD MLOAD DUP5 DUP4 ADD DUP3 ADD MSTORE ADD PUSH2 0x4576 JUMP JUMPDEST PUSH1 0x2 GT ISZERO PUSH2 0x176C JUMPI JUMP JUMPDEST SWAP1 PUSH1 0xB DUP3 LT ISZERO PUSH2 0x176C JUMPI MSTORE JUMP JUMPDEST PUSH1 0x40 SWAP1 PUSH1 0x3 NOT ADD SLT PUSH2 0xC42 JUMPI PUSH1 0x4 CALLDATALOAD SWAP1 PUSH1 0x24 CALLDATALOAD SWAP1 JUMP JUMPDEST DUP1 SLOAD DUP3 LT ISZERO PUSH2 0x4319 JUMPI PUSH1 0x0 MSTORE PUSH1 0xB PUSH1 0x20 PUSH1 0x0 KECCAK256 SWAP2 MUL ADD SWAP1 PUSH1 0x0 SWAP1 JUMP JUMPDEST CALLER PUSH1 0x0 SWAP1 DUP2 MSTORE PUSH32 0xAD3228B676F7D3CD4284A5443F17F1962B36E491B30A40B2405849E597BA5FB5 PUSH1 0x20 MSTORE PUSH1 0x40 DUP2 KECCAK256 SLOAD PUSH1 0xFF AND ISZERO PUSH2 0x462E JUMPI POP JUMP JUMPDEST PUSH1 0x44 SWAP1 PUSH1 0x40 MLOAD SWAP1 PUSH4 0xE2517D3F PUSH1 0xE0 SHL DUP3 MSTORE CALLER PUSH1 0x4 DUP4 ADD MSTORE PUSH1 0x24 DUP3 ADD MSTORE REVERT JUMPDEST DUP1 PUSH1 0x0 MSTORE PUSH1 0x0 PUSH1 0x20 MSTORE PUSH1 0x40 PUSH1 0x0 KECCAK256 CALLER PUSH1 0x0 MSTORE PUSH1 0x20 MSTORE PUSH1 0xFF PUSH1 0x40 PUSH1 0x0 KECCAK256 SLOAD AND ISZERO PUSH2 0x462E JUMPI POP JUMP JUMPDEST SWAP1 PUSH1 0x0 SWAP2 DUP1 DUP4 MSTORE DUP3 PUSH1 0x20 MSTORE PUSH1 0x40 DUP4 KECCAK256 SWAP2 PUSH1 0x1 DUP1 PUSH1 0xA0 SHL SUB AND SWAP2 DUP3 DUP5 MSTORE PUSH1 0x20 MSTORE PUSH1 0xFF PUSH1 0x40 DUP5 KECCAK256 SLOAD AND ISZERO PUSH1 0x0 EQ PUSH2 0x46EB JUMPI DUP1 DUP4 MSTORE DUP3 PUSH1 0x20 MSTORE PUSH1 0x40 DUP4 KECCAK256 DUP3 DUP5 MSTORE PUSH1 0x20 MSTORE PUSH1 0x40 DUP4 KECCAK256 PUSH1 0x1 PUSH1 0xFF NOT DUP3 SLOAD AND OR SWAP1 SSTORE PUSH32 0x2F8788117E7EFF1D82E926EC794901D17C78024A50270940304540A733656F0D CALLER SWAP4 DUP1 LOG4 PUSH1 0x1 SWAP1 JUMP JUMPDEST POP POP SWAP1 JUMP JUMPDEST SWAP1 PUSH1 0x0 SWAP2 DUP1 DUP4 MSTORE DUP3 PUSH1 0x20 MSTORE PUSH1 0x40 DUP4 KECCAK256 SWAP2 PUSH1 0x1 DUP1 PUSH1 0xA0 SHL SUB AND SWAP2 DUP3 DUP5 MSTORE PUSH1 0x20 MSTORE PUSH1 0xFF PUSH1 0x40 DUP5 KECCAK256 SLOAD AND PUSH1 0x0 EQ PUSH2 0x46EB JUMPI DUP1 DUP4 MSTORE DUP3 PUSH1 0x20 MSTORE PUSH1 0x40 DUP4 KECCAK256 DUP3 DUP5 MSTORE PUSH1 0x20 MSTORE PUSH1 0x40 DUP4 KECCAK256 PUSH1 0xFF NOT DUP2 SLOAD AND SWAP1 SSTORE PUSH32 0xF6391F5C32D9C69D2A47EA670B442974B53935D1EDC7FD64EB21E047A839171B CALLER SWAP4 DUP1 LOG4 PUSH1 0x1 SWAP1 JUMP JUMPDEST ISZERO PUSH2 0x476C JUMPI JUMP JUMPDEST PUSH1 0x40 MLOAD PUSH3 0x461BCD PUSH1 0xE5 SHL DUP2 MSTORE PUSH1 0x20 PUSH1 0x4 DUP3 ADD MSTORE PUSH1 0x26 PUSH1 0x24 DUP3 ADD MSTORE PUSH32 0x4F7074696F6E73436F72653A206E6F74696F6E616C206D75737420626520706F PUSH1 0x44 DUP3 ADD MSTORE PUSH6 0x736974697665 PUSH1 0xD0 SHL PUSH1 0x64 DUP3 ADD MSTORE PUSH1 0x84 SWAP1 REVERT JUMPDEST ISZERO PUSH2 0x47C7 JUMPI JUMP JUMPDEST PUSH1 0x40 MLOAD PUSH3 0x461BCD PUSH1 0xE5 SHL DUP2 MSTORE PUSH1 0x20 PUSH1 0x4 DUP3 ADD MSTORE PUSH1 0x25 PUSH1 0x24 DUP3 ADD MSTORE PUSH32 0x4F7074696F6E73436F72653A20657870697279206D75737420626520696E2066 PUSH1 0x44 DUP3 ADD MSTORE PUSH5 0x7574757265 PUSH1 0xD8 SHL PUSH1 0x64 DUP3 ADD MSTORE PUSH1 0x84 SWAP1 REVERT JUMPDEST ISZERO PUSH2 0x4821 JUMPI JUMP JUMPDEST PUSH1 0x64 PUSH1 0x40 MLOAD PUSH3 0x461BCD PUSH1 0xE5 SHL DUP2 MSTORE PUSH1 0x20 PUSH1 0x4 DUP3 ADD MSTORE PUSH1 0x20 PUSH1 0x24 DUP3 ADD MSTORE PUSH32 0x4F7074696F6E73436F72653A206D617267696E207261746520746F6F206C6F77 PUSH1 0x44 DUP3 ADD MSTORE REVERT JUMPDEST PUSH1 0x0 NOT DUP2 EQ PUSH2 0x4874 JUMPI PUSH1 0x1 ADD SWAP1 JUMP JUMPDEST PUSH4 0x4E487B71 PUSH1 0xE0 SHL PUSH1 0x0 MSTORE PUSH1 0x11 PUSH1 0x4 MSTORE PUSH1 0x24 PUSH1 0x0 REVERT JUMPDEST SWAP1 PUSH2 0x4894 DUP2 PUSH2 0x45AB JUMP JUMPDEST PUSH1 0xFF DUP1 NOT DUP4 SLOAD AND SWAP2 AND OR SWAP1 SSTORE JUMP JUMPDEST SWAP1 PUSH2 0x48AC DUP2 PUSH2 0x436A JUMP JUMPDEST PUSH5 0xFF00000000 DUP3 SLOAD SWAP2 PUSH1 0x20 SHL AND SWAP1 PUSH5 0xFF00000000 NOT AND OR SWAP1 SSTORE JUMP JUMPDEST DUP1 SLOAD PUSH1 0x1 PUSH1 0x40 SHL DUP2 LT ISZERO PUSH2 0x4461 JUMPI PUSH2 0x48E4 SWAP2 PUSH1 0x1 DUP3 ADD DUP2 SSTORE PUSH2 0x4301 JUMP JUMPDEST DUP2 SWAP3 SWAP2 SLOAD SWAP1 PUSH1 0x3 SHL SWAP2 DUP3 SHL SWAP2 PUSH1 0x0 NOT SWAP1 SHL NOT AND OR SWAP1 SSTORE JUMP JUMPDEST PUSH1 0x40 MLOAD PUSH4 0x23B872DD PUSH1 0xE0 SHL PUSH1 0x20 DUP1 DUP4 ADD SWAP2 DUP3 MSTORE PUSH1 0x1 PUSH1 0x1 PUSH1 0xA0 SHL SUB SWAP5 DUP6 AND PUSH1 0x24 DUP5 ADD MSTORE SWAP5 SWAP1 SWAP4 AND PUSH1 0x44 DUP3 ADD MSTORE PUSH1 0x64 DUP1 DUP3 ADD SWAP6 SWAP1 SWAP6 MSTORE SWAP4 DUP5 MSTORE SWAP3 PUSH1 0x0 SWAP2 SWAP1 PUSH2 0x4944 PUSH1 0x84 DUP3 PUSH2 0x44A6 JUMP JUMPDEST MLOAD SWAP1 DUP3 DUP6 GAS CALL ISZERO PUSH2 0x4997 JUMPI PUSH1 0x0 MLOAD RETURNDATASIZE PUSH2 0x498E JUMPI POP PUSH1 0x1 PUSH1 0x1 PUSH1 0xA0 SHL SUB DUP2 AND EXTCODESIZE ISZERO JUMPDEST PUSH2 0x496C JUMPI POP JUMP JUMPDEST PUSH1 0x40 MLOAD PUSH4 0x5274AFE7 PUSH1 0xE0 SHL DUP2 MSTORE PUSH1 0x1 PUSH1 0x1 PUSH1 0xA0 SHL SUB SWAP1 SWAP2 AND PUSH1 0x4 DUP3 ADD MSTORE PUSH1 0x24 SWAP1 REVERT JUMPDEST PUSH1 0x1 EQ ISZERO PUSH2 0x4965 JUMP JUMPDEST PUSH1 0x40 MLOAD RETURNDATASIZE PUSH1 0x0 DUP3 RETURNDATACOPY RETURNDATASIZE SWAP1 REVERT JUMPDEST PUSH1 0xFF PUSH1 0x2 SLOAD AND PUSH2 0x49AF JUMPI JUMP JUMPDEST PUSH1 0x40 MLOAD PUSH4 0xD93C0665 PUSH1 0xE0 SHL DUP2 MSTORE PUSH1 0x4 SWAP1 REVERT JUMPDEST PUSH1 0x2 PUSH1 0x1 SLOAD EQ PUSH2 0x49D2 JUMPI PUSH1 0x2 PUSH1 0x1 SSTORE JUMP JUMPDEST PUSH1 0x40 MLOAD PUSH4 0x3EE5AEB5 PUSH1 0xE0 SHL DUP2 MSTORE PUSH1 0x4 SWAP1 REVERT JUMPDEST ISZERO PUSH2 0x49EB JUMPI JUMP JUMPDEST PUSH1 0x40 MLOAD PUSH3 0x461BCD PUSH1 0xE5 SHL DUP2 MSTORE PUSH1 0x20 PUSH1 0x4 DUP3 ADD MSTORE PUSH1 0x16 PUSH1 0x24 DUP3 ADD MSTORE PUSH22 0x27B83A34B7B739A1B7B9329D103737BA10313ABCB2B9 PUSH1 0x51 SHL PUSH1 0x44 DUP3 ADD MSTORE PUSH1 0x64 SWAP1 REVERT JUMPDEST SWAP1 PUSH2 0x4894 DUP2 PUSH2 0x436A JUMP JUMPDEST DUP2 DUP2 MUL SWAP3 SWAP2 DUP2 ISZERO SWAP2 DUP5 DIV EQ OR ISZERO PUSH2 0x4874 JUMPI JUMP JUMPDEST DUP2 ISZERO PUSH2 0x4A50 JUMPI DIV SWAP1 JUMP JUMPDEST PUSH4 0x4E487B71 PUSH1 0xE0 SHL PUSH1 0x0 MSTORE PUSH1 0x12 PUSH1 0x4 MSTORE PUSH1 0x24 PUSH1 0x0 REVERT JUMPDEST SWAP2 SWAP1 DUP3 ADD DUP1 SWAP3 GT PUSH2 0x4874 JUMPI JUMP JUMPDEST ISZERO PUSH2 0x4A7A JUMPI JUMP JUMPDEST PUSH1 0x40 MLOAD PUSH3 0x461BCD PUSH1 0xE5 SHL DUP2 MSTORE PUSH1 0x20 PUSH1 0x4 DUP3 ADD MSTORE PUSH1 0x1D PUSH1 0x24 DUP3 ADD MSTORE PUSH32 0x4F7074696F6E73436F72653A20696E76616C6964206F72646572206964000000 PUSH1 0x44 DUP3 ADD MSTORE PUSH1 0x64 SWAP1 REVERT JUMPDEST PUSH1 0xA PUSH2 0x1A0 SWAP2 DUP4 MLOAD DUP2 SSTORE PUSH1 0x20 DUP5 ADD MLOAD PUSH1 0x1 DUP3 ADD SSTORE PUSH1 0x2 DUP2 ADD PUSH1 0x1 DUP1 PUSH1 0xA0 SHL SUB PUSH1 0x40 DUP7 ADD MLOAD AND DUP2 SLOAD SWAP1 PUSH1 0x60 DUP8 ADD MLOAD PUSH2 0x4AF5 DUP2 PUSH2 0x436A JUMP JUMPDEST PUSH2 0x4AFE DUP2 PUSH2 0x436A JUMP JUMPDEST PUSH1 0xFF PUSH1 0xA0 SHL SWAP1 PUSH1 0xA0 SHL AND SWAP2 PUSH11 0xFFFFFFFFFFFFFFFFFFFFFF PUSH1 0xA8 SHL AND OR OR SWAP1 SSTORE PUSH1 0x80 DUP5 ADD MLOAD PUSH1 0x3 DUP3 ADD SSTORE PUSH1 0xA0 DUP5 ADD MLOAD PUSH1 0x4 DUP3 ADD SSTORE PUSH1 0xC0 DUP5 ADD MLOAD PUSH1 0x5 DUP3 ADD SSTORE PUSH1 0xE0 DUP5 ADD MLOAD PUSH1 0x6 DUP3 ADD SSTORE PUSH2 0x4B9C PUSH1 0x7 DUP3 ADD PUSH2 0x4B64 PUSH2 0x100 DUP8 ADD MLOAD PUSH2 0x4B5E DUP2 PUSH2 0x436A JUMP JUMPDEST DUP3 PUSH2 0x4A29 JUMP JUMPDEST PUSH2 0x120 DUP7 ADD MLOAD DUP2 SLOAD PUSH2 0xFF00 NOT AND PUSH1 0x8 SWAP2 SWAP1 SWAP2 SHL PUSH2 0xFF00 AND OR DUP2 SSTORE PUSH2 0x140 DUP7 ADD MLOAD DUP2 SLOAD PUSH3 0xFF0000 NOT AND PUSH1 0x10 SWAP2 SWAP1 SWAP2 SHL PUSH3 0xFF0000 AND OR SWAP1 SSTORE JUMP JUMPDEST PUSH2 0x160 DUP5 ADD MLOAD PUSH1 0x8 DUP3 ADD SSTORE PUSH2 0x180 DUP5 ADD MLOAD PUSH1 0x9 DUP3 ADD SSTORE ADD SWAP2 ADD MLOAD PUSH1 0x4 DUP2 LT ISZERO PUSH2 0x176C JUMPI PUSH1 0xFF DUP1 NOT DUP4 SLOAD AND SWAP2 AND OR SWAP1 SSTORE JUMP JUMPDEST ISZERO PUSH2 0x4BD4 JUMPI JUMP JUMPDEST PUSH1 0x40 MLOAD PUSH3 0x461BCD PUSH1 0xE5 SHL DUP2 MSTORE PUSH1 0x20 PUSH1 0x4 DUP3 ADD MSTORE PUSH1 0x17 PUSH1 0x24 DUP3 ADD MSTORE PUSH32 0x4F7074696F6E73436F72653A206E6F742073656C6C6572000000000000000000 PUSH1 0x44 DUP3 ADD MSTORE PUSH1 0x64 SWAP1 REVERT JUMPDEST ISZERO PUSH2 0x4C20 JUMPI JUMP JUMPDEST PUSH1 0x40 MLOAD PUSH3 0x461BCD PUSH1 0xE5 SHL DUP2 MSTORE PUSH1 0x20 PUSH1 0x4 DUP3 ADD MSTORE PUSH1 0x1B PUSH1 0x24 DUP3 ADD MSTORE PUSH32 0x4F7074696F6E73436F72653A206F72646572206E6F74206C6976650000000000 PUSH1 0x44 DUP3 ADD MSTORE PUSH1 0x64 SWAP1 REVERT JUMPDEST SWAP2 SWAP1 DUP3 SUB SWAP2 DUP3 GT PUSH2 0x4874 JUMPI JUMP JUMPDEST SWAP1 DUP2 MLOAD DUP2 LT ISZERO PUSH2 0x4319 JUMPI ADD PUSH1 0x20 ADD SWAP1 JUMP INVALID 0xCE GASPRICE BALANCE 0xBA 0xF9 SWAP6 PUSH15 0x86200EE7044A75C2BEFBD05091279 DUP12 PUSH28 0xCD25D05831AB9592A2646970667358221220751E4C9478FFED07D994 0xCE PUSH23 0x315EC9A547C48D4B13A6F745DD5E3D59D064830B64736F PUSH13 0x63430008140033000000000000 "},"methodIdentifiers":{"DEFAULT_ADMIN_ROLE()":"a217fddf","acceptQuote(uint256)":"5d7ffe7b","addMargin(uint256,uint256)":"d41194b8","buyerOrders(address,uint256)":"4500cb60","cancelRFQ(uint256)":"bc0ef26b","config()":"79502c55","createBuyerRFQ(string,string,string,string,string,uint8,uint256,uint256,uint256,uint256,uint8,address,uint256,uint256,bool)":"1773a1c1","createSellerOrder(string,string,string,string,string,uint8,uint256,uint256,uint256,uint256,uint8,uint8,uint8,uint256,bool)":"e1fc6341","earlyExercise(uint256)":"46f8226c","forceLiquidate(uint256)":"6ca14389","getBuyerOrders(address)":"a45f2ebc","getOrder(uint256)":"d09ef241","getOrdersByCountry(string)":"cf3fec43","getOrdersByMarket(string)":"7d900421","getQuotes(uint256)":"d049bfef","getRoleAdmin(bytes32)":"248a9ca3","getSellerOrders(address)":"e4cbac40","grantRole(bytes32,address)":"2f2ff15d","hasRole(bytes32,address)":"91d14854","initiateArbitration(uint256)":"6af58cff","nextOrderId()":"2a58b330","nextQuoteId()":"4efef6aa","orderQuotes(uint256,uint256)":"f7ff6426","orders(uint256)":"a85c38ef","pause()":"8456cb59","paused()":"5c975abb","quotes(uint256)":"a61cf0d4","renounceRole(bytes32,address)":"36568abe","requestFeed(uint256,uint8)":"6dbe7579","revokeRole(bytes32,address)":"d547741f","sellerOrders(address,uint256)":"45cb4505","setConfig(address)":"20e3dbd4","setVaultManager(address)":"b543503e","settle(uint256)":"8df82800","submitQuote(uint256,uint256,uint256,uint8,uint8,uint8)":"7203a582","supportsInterface(bytes4)":"01ffc9a7","unpause()":"3f4ba83a","usdt()":"2f48ab7d","vaultManager()":"8a4adf24","withdrawExcessMargin(uint256,uint256)":"d1e745b1"}}}}}