{"contracts/feed/FeedProtocol.sol":{"FeedProtocol":{"abi":[{"inputs":[{"internalType":"address","name":"_config","type":"address"},{"internalType":"address","name":"_usdt","type":"address"},{"internalType":"address","name":"_admin","type":"address"}],"stateMutability":"nonpayable","type":"constructor"},{"inputs":[],"name":"AccessControlBadConfirmation","type":"error"},{"inputs":[{"internalType":"address","name":"account","type":"address"},{"internalType":"bytes32","name":"neededRole","type":"bytes32"}],"name":"AccessControlUnauthorizedAccount","type":"error"},{"inputs":[],"name":"EnforcedPause","type":"error"},{"inputs":[],"name":"ExpectedPause","type":"error"},{"inputs":[],"name":"ReentrancyGuardReentrantCall","type":"error"},{"inputs":[{"internalType":"address","name":"token","type":"address"}],"name":"SafeERC20FailedOperation","type":"error"},{"anonymous":false,"inputs":[{"indexed":true,"internalType":"uint256","name":"requestId","type":"uint256"},{"indexed":false,"internalType":"uint256","name":"finalPrice","type":"uint256"},{"indexed":false,"internalType":"uint256","name":"timestamp","type":"uint256"}],"name":"FeedFinalized","type":"event"},{"anonymous":false,"inputs":[{"indexed":true,"internalType":"uint256","name":"requestId","type":"uint256"},{"indexed":true,"internalType":"address","name":"feeder","type":"address"},{"indexed":false,"internalType":"string","name":"reason","type":"string"},{"indexed":false,"internalType":"uint256","name":"timestamp","type":"uint256"}],"name":"FeedRejected","type":"event"},{"anonymous":false,"inputs":[{"indexed":true,"internalType":"uint256","name":"requestId","type":"uint256"},{"indexed":true,"internalType":"uint256","name":"orderId","type":"uint256"},{"indexed":false,"internalType":"string","name":"underlyingName","type":"string"},{"indexed":false,"internalType":"string","name":"underlyingCode","type":"string"},{"indexed":false,"internalType":"string","name":"market","type":"string"},{"indexed":false,"internalType":"string","name":"country","type":"string"},{"indexed":false,"internalType":"enum FeedType","name":"feedType","type":"uint8"},{"indexed":false,"internalType":"enum LiquidationRule","name":"liquidationRule","type":"uint8"},{"indexed":false,"internalType":"uint8","name":"consecutiveDays","type":"uint8"},{"indexed":false,"internalType":"uint8","name":"exerciseDelay","type":"uint8"},{"indexed":false,"internalType":"uint256","name":"timestamp","type":"uint256"}],"name":"FeedRequested","type":"event"},{"anonymous":false,"inputs":[{"indexed":true,"internalType":"uint256","name":"requestId","type":"uint256"},{"indexed":true,"internalType":"address","name":"feeder","type":"address"},{"indexed":false,"internalType":"uint256","name":"price","type":"uint256"},{"indexed":false,"internalType":"uint256","name":"timestamp","type":"uint256"}],"name":"FeedSubmitted","type":"event"},{"anonymous":false,"inputs":[{"indexed":true,"internalType":"address","name":"feeder","type":"address"},{"indexed":false,"internalType":"string","name":"reason","type":"string"},{"indexed":false,"internalType":"uint256","name":"timestamp","type":"uint256"}],"name":"FeederBlacklisted","type":"event"},{"anonymous":false,"inputs":[{"indexed":true,"internalType":"address","name":"feeder","type":"address"},{"indexed":false,"internalType":"string","name":"reason","type":"string"},{"indexed":false,"internalType":"uint256","name":"timestamp","type":"uint256"}],"name":"FeederDeactivated","type":"event"},{"anonymous":false,"inputs":[{"indexed":true,"internalType":"address","name":"feeder","type":"address"},{"indexed":false,"internalType":"uint256","name":"stakedAmount","type":"uint256"},{"indexed":false,"internalType":"uint256","name":"timestamp","type":"uint256"}],"name":"FeederRegistered","type":"event"},{"anonymous":false,"inputs":[{"indexed":false,"internalType":"address","name":"account","type":"address"}],"name":"Paused","type":"event"},{"anonymous":false,"inputs":[{"indexed":true,"internalType":"uint256","name":"requestId","type":"uint256"},{"indexed":true,"internalType":"address","name":"feeder","type":"address"},{"indexed":false,"internalType":"uint256","name":"amount","type":"uint256"},{"indexed":false,"internalType":"uint256","name":"timestamp","type":"uint256"}],"name":"RewardDistributed","type":"event"},{"anonymous":false,"inputs":[{"indexed":true,"internalType":"bytes32","name":"role","type":"bytes32"},{"indexed":true,"internalType":"bytes32","name":"previousAdminRole","type":"bytes32"},{"indexed":true,"internalType":"bytes32","name":"newAdminRole","type":"bytes32"}],"name":"RoleAdminChanged","type":"event"},{"anonymous":false,"inputs":[{"indexed":true,"internalType":"bytes32","name":"role","type":"bytes32"},{"indexed":true,"internalType":"address","name":"account","type":"address"},{"indexed":true,"internalType":"address","name":"sender","type":"address"}],"name":"RoleGranted","type":"event"},{"anonymous":false,"inputs":[{"indexed":true,"internalType":"bytes32","name":"role","type":"bytes32"},{"indexed":true,"internalType":"address","name":"account","type":"address"},{"indexed":true,"internalType":"address","name":"sender","type":"address"}],"name":"RoleRevoked","type":"event"},{"anonymous":false,"inputs":[{"indexed":false,"internalType":"address","name":"account","type":"address"}],"name":"Unpaused","type":"event"},{"inputs":[],"name":"DEFAULT_ADMIN_ROLE","outputs":[{"internalType":"bytes32","name":"","type":"bytes32"}],"stateMutability":"view","type":"function"},{"inputs":[],"name":"FEED_OPERATOR_ROLE","outputs":[{"internalType":"bytes32","name":"","type":"bytes32"}],"stateMutability":"view","type":"function"},{"inputs":[],"name":"PROTOCOL_ROLE","outputs":[{"internalType":"bytes32","name":"","type":"bytes32"}],"stateMutability":"view","type":"function"},{"inputs":[],"name":"SENIOR_FEEDER_ROLE","outputs":[{"internalType":"bytes32","name":"","type":"bytes32"}],"stateMutability":"view","type":"function"},{"inputs":[{"internalType":"uint256","name":"amount","type":"uint256"}],"name":"addStake","outputs":[],"stateMutability":"nonpayable","type":"function"},{"inputs":[{"internalType":"address","name":"feeder","type":"address"},{"internalType":"string","name":"reason","type":"string"}],"name":"blacklistFeeder","outputs":[],"stateMutability":"nonpayable","type":"function"},{"inputs":[],"name":"config","outputs":[{"internalType":"contract Config","name":"","type":"address"}],"stateMutability":"view","type":"function"},{"inputs":[{"internalType":"uint256","name":"orderId","type":"uint256"},{"internalType":"enum FeedType","name":"feedType","type":"uint8"},{"internalType":"enum FeedTier","name":"tier","type":"uint8"}],"name":"createFeedRequest","outputs":[{"internalType":"uint256","name":"requestId","type":"uint256"}],"stateMutability":"payable","type":"function"},{"inputs":[{"internalType":"uint256","name":"","type":"uint256"}],"name":"feedRequests","outputs":[{"internalType":"uint256","name":"requestId","type":"uint256"},{"internalType":"uint256","name":"orderId","type":"uint256"},{"internalType":"enum FeedType","name":"feedType","type":"uint8"},{"internalType":"enum FeedTier","name":"tier","type":"uint8"},{"internalType":"uint256","name":"deadline","type":"uint256"},{"internalType":"uint256","name":"createdAt","type":"uint256"},{"internalType":"uint256","name":"totalFeeders","type":"uint256"},{"internalType":"uint256","name":"submittedCount","type":"uint256"},{"internalType":"uint256","name":"finalPrice","type":"uint256"},{"internalType":"bool","name":"finalized","type":"bool"}],"stateMutability":"view","type":"function"},{"inputs":[{"internalType":"uint256","name":"","type":"uint256"}],"name":"feederList","outputs":[{"internalType":"address","name":"","type":"address"}],"stateMutability":"view","type":"function"},{"inputs":[],"name":"feederSelector","outputs":[{"internalType":"address","name":"","type":"address"}],"stateMutability":"view","type":"function"},{"inputs":[{"internalType":"address","name":"","type":"address"}],"name":"feeders","outputs":[{"internalType":"address","name":"feederAddress","type":"address"},{"internalType":"uint256","name":"stakedAmount","type":"uint256"},{"internalType":"uint256","name":"completedFeeds","type":"uint256"},{"internalType":"uint256","name":"rejectedFeeds","type":"uint256"},{"internalType":"uint256","name":"registeredAt","type":"uint256"},{"internalType":"bool","name":"isActive","type":"bool"},{"internalType":"bool","name":"isBlacklisted","type":"bool"}],"stateMutability":"view","type":"function"},{"inputs":[{"internalType":"uint256","name":"requestId","type":"uint256"}],"name":"finalizeFeed","outputs":[{"internalType":"uint256","name":"finalPrice","type":"uint256"}],"stateMutability":"nonpayable","type":"function"},{"inputs":[],"name":"getActiveFeeders","outputs":[{"internalType":"address[]","name":"","type":"address[]"}],"stateMutability":"view","type":"function"},{"inputs":[{"internalType":"enum FeedTier","name":"tier","type":"uint8"}],"name":"getFeedFee","outputs":[{"internalType":"uint256","name":"","type":"uint256"}],"stateMutability":"view","type":"function"},{"inputs":[{"internalType":"uint256","name":"requestId","type":"uint256"}],"name":"getFeedRequest","outputs":[{"components":[{"internalType":"uint256","name":"requestId","type":"uint256"},{"internalType":"uint256","name":"orderId","type":"uint256"},{"internalType":"enum FeedType","name":"feedType","type":"uint8"},{"internalType":"enum FeedTier","name":"tier","type":"uint8"},{"internalType":"uint256","name":"deadline","type":"uint256"},{"internalType":"uint256","name":"createdAt","type":"uint256"},{"internalType":"uint256","name":"totalFeeders","type":"uint256"},{"internalType":"uint256","name":"submittedCount","type":"uint256"},{"internalType":"uint256","name":"finalPrice","type":"uint256"},{"internalType":"bool","name":"finalized","type":"bool"}],"internalType":"struct FeedRequest","name":"","type":"tuple"}],"stateMutability":"view","type":"function"},{"inputs":[{"internalType":"address","name":"feeder","type":"address"}],"name":"getFeeder","outputs":[{"components":[{"internalType":"address","name":"feederAddress","type":"address"},{"internalType":"uint256","name":"stakedAmount","type":"uint256"},{"internalType":"uint256","name":"completedFeeds","type":"uint256"},{"internalType":"uint256","name":"rejectedFeeds","type":"uint256"},{"internalType":"uint256","name":"registeredAt","type":"uint256"},{"internalType":"bool","name":"isActive","type":"bool"},{"internalType":"bool","name":"isBlacklisted","type":"bool"}],"internalType":"struct FeedProtocol.Feeder","name":"","type":"tuple"}],"stateMutability":"view","type":"function"},{"inputs":[],"name":"getFeederCount","outputs":[{"internalType":"uint256","name":"","type":"uint256"}],"stateMutability":"view","type":"function"},{"inputs":[{"internalType":"uint256","name":"orderId","type":"uint256"}],"name":"getOrderFeedRequests","outputs":[{"internalType":"uint256[]","name":"","type":"uint256[]"}],"stateMutability":"view","type":"function"},{"inputs":[{"internalType":"bytes32","name":"role","type":"bytes32"}],"name":"getRoleAdmin","outputs":[{"internalType":"bytes32","name":"","type":"bytes32"}],"stateMutability":"view","type":"function"},{"inputs":[{"internalType":"uint256","name":"requestId","type":"uint256"}],"name":"getSubmissions","outputs":[{"components":[{"internalType":"address","name":"feeder","type":"address"},{"internalType":"uint256","name":"price","type":"uint256"},{"internalType":"uint256","name":"timestamp","type":"uint256"},{"internalType":"bool","name":"isValid","type":"bool"}],"internalType":"struct FeedProtocol.FeedSubmission[]","name":"","type":"tuple[]"}],"stateMutability":"view","type":"function"},{"inputs":[{"internalType":"address","name":"protocol","type":"address"}],"name":"grantProtocolRole","outputs":[],"stateMutability":"nonpayable","type":"function"},{"inputs":[{"internalType":"bytes32","name":"role","type":"bytes32"},{"internalType":"address","name":"account","type":"address"}],"name":"grantRole","outputs":[],"stateMutability":"nonpayable","type":"function"},{"inputs":[{"internalType":"address","name":"feeder","type":"address"}],"name":"grantSeniorFeederRole","outputs":[],"stateMutability":"nonpayable","type":"function"},{"inputs":[{"internalType":"bytes32","name":"role","type":"bytes32"},{"internalType":"address","name":"account","type":"address"}],"name":"hasRole","outputs":[{"internalType":"bool","name":"","type":"bool"}],"stateMutability":"view","type":"function"},{"inputs":[{"internalType":"uint256","name":"","type":"uint256"},{"internalType":"address","name":"","type":"address"}],"name":"hasSubmitted","outputs":[{"internalType":"bool","name":"","type":"bool"}],"stateMutability":"view","type":"function"},{"inputs":[],"name":"nextRequestId","outputs":[{"internalType":"uint256","name":"","type":"uint256"}],"stateMutability":"view","type":"function"},{"inputs":[{"internalType":"uint256","name":"","type":"uint256"},{"internalType":"uint256","name":"","type":"uint256"}],"name":"orderFeedRequests","outputs":[{"internalType":"uint256","name":"","type":"uint256"}],"stateMutability":"view","type":"function"},{"inputs":[],"name":"pause","outputs":[],"stateMutability":"nonpayable","type":"function"},{"inputs":[],"name":"paused","outputs":[{"internalType":"bool","name":"","type":"bool"}],"stateMutability":"view","type":"function"},{"inputs":[{"internalType":"uint256","name":"stakeAmount","type":"uint256"}],"name":"registerFeeder","outputs":[],"stateMutability":"nonpayable","type":"function"},{"inputs":[{"internalType":"uint256","name":"requestId","type":"uint256"},{"internalType":"string","name":"reason","type":"string"}],"name":"rejectFeed","outputs":[],"stateMutability":"nonpayable","type":"function"},{"inputs":[{"internalType":"bytes32","name":"role","type":"bytes32"},{"internalType":"address","name":"callerConfirmation","type":"address"}],"name":"renounceRole","outputs":[],"stateMutability":"nonpayable","type":"function"},{"inputs":[{"internalType":"uint256","name":"","type":"uint256"},{"internalType":"uint256","name":"","type":"uint256"}],"name":"requestSubmissions","outputs":[{"internalType":"address","name":"feeder","type":"address"},{"internalType":"uint256","name":"price","type":"uint256"},{"internalType":"uint256","name":"timestamp","type":"uint256"},{"internalType":"bool","name":"isValid","type":"bool"}],"stateMutability":"view","type":"function"},{"inputs":[{"internalType":"bytes32","name":"role","type":"bytes32"},{"internalType":"address","name":"account","type":"address"}],"name":"revokeRole","outputs":[],"stateMutability":"nonpayable","type":"function"},{"inputs":[{"internalType":"address","name":"_config","type":"address"}],"name":"setConfig","outputs":[],"stateMutability":"nonpayable","type":"function"},{"inputs":[{"internalType":"address","name":"_feederSelector","type":"address"}],"name":"setFeederSelector","outputs":[],"stateMutability":"nonpayable","type":"function"},{"inputs":[{"internalType":"uint256","name":"requestId","type":"uint256"},{"internalType":"uint256","name":"price","type":"uint256"}],"name":"submitFeed","outputs":[],"stateMutability":"nonpayable","type":"function"},{"inputs":[{"internalType":"bytes4","name":"interfaceId","type":"bytes4"}],"name":"supportsInterface","outputs":[{"internalType":"bool","name":"","type":"bool"}],"stateMutability":"view","type":"function"},{"inputs":[{"internalType":"enum FeedTier","name":"","type":"uint8"}],"name":"tierConfigs","outputs":[{"internalType":"uint8","name":"totalFeeders","type":"uint8"},{"internalType":"uint8","name":"effectiveFeeds","type":"uint8"},{"internalType":"uint256","name":"platformFee","type":"uint256"},{"internalType":"uint256","name":"feederReward","type":"uint256"},{"internalType":"uint256","name":"totalFee","type":"uint256"}],"stateMutability":"view","type":"function"},{"inputs":[],"name":"unpause","outputs":[],"stateMutability":"nonpayable","type":"function"},{"inputs":[],"name":"usdt","outputs":[{"internalType":"contract IERC20","name":"","type":"address"}],"stateMutability":"view","type":"function"},{"inputs":[{"internalType":"address","name":"to","type":"address"}],"name":"withdrawPlatformFees","outputs":[],"stateMutability":"nonpayable","type":"function"},{"inputs":[{"internalType":"uint256","name":"amount","type":"uint256"}],"name":"withdrawStake","outputs":[],"stateMutability":"nonpayable","type":"function"}],"evm":{"bytecode":{"linkReferences":{},"object":"6080346200024557601f6200313738819003918201601f191683019291906001600160401b038411838510176200024a5781606092849260409687528339810103126200024557620000518162000280565b9060206200006e846200006683850162000280565b930162000280565b6001808055600581905560028054610100600160a81b03191660089690961b610100600160a81b0316959095178555600380546001600160a01b0319166001600160a01b039095169490941784559390620000d590620000ce8162000295565b5062000315565b50620000e062000260565b93600585528285019084825286860195670429d069189e00008752606081019067257853b1dd8e0000825286608082016729a2241af62c00008152600093848052600b895260ff8c86209451169a84549b61ff0080995160081b169061ffff19809e161717855551868501555187840155519101556200015f62000260565b600781528689878301600581528184016706f05b59d3b2000081526060850191673e73362871420000835260ff6080870194674563918244f400008652898952600b8d5288209651168d8a8854935160081b169216171785555186850155518784015551910155620001d062000260565b968793600a8552868501916007835260ff8b80880195670b1a2bc2ec5000008752600b608060608b019a6763eb89da4ed000008c52019b676f05b59d3b2000008d528b835252209a5116918a54935160081b16921617178755519086015551908401555191015551612d5f9081620003b88239f35b600080fd5b634e487b7160e01b600052604160045260246000fd5b6040519060a082016001600160401b038111838210176200024a57604052565b51906001600160a01b03821682036200024557565b6001600160a01b031660008181527fad3228b676f7d3cd4284a5443f17f1962b36e491b30a40b2405849e597ba5fb5602052604081205490919060ff166200031157818052816020526040822081835260205260408220600160ff198254161790553391600080516020620031178339815191528180a4600190565b5090565b6001600160a01b031660008181527fa0cfc50be65892217a92eab74d4b8dca267a17d5b74f05a4a7cdee0906a51faf60205260408120549091907f70b284da8bfc3de812daa2261b4c3ffadd90c2c772295293d09c9629a737a0cd9060ff16620003b257808352826020526040832082845260205260408320600160ff1982541617905560008051602062003117833981519152339380a4600190565b50509056fe608080604052600436101561001357600080fd5b60003560e01c90816301ffc9a71461209d5750806302768de41461206257806304b86cb314611d195780630aa3166114611c93578063121c604b14611c5157806315450ace14611be757806316c53ced14611ae257806320e3dbd414611a9a578063248a9ca314611a6b57806325d5971f146118fc5780632f0165ca146118c15780632f0e6ca5146117a95780632f2ff15d1461176a5780632f48ab7d1461174157806336568abe146116fa5780633929fcd3146113e35780633bf5e3a9146113385780633f4ba83a146112ce5780633fe1ddd214610faf57806346b6270314610db057806346f53d1e14610d335780635c975abb14610d105780635cf72f5414610ce75780635efd950814610ca45780636a84a98514610c8657806375136ddc14610c4757806379502c5514610c1a57806382ae8f0114610bf45780638456cb5914610b9a5780638ec9f03814610b5f57806391d1485414610b125780639ba7646c14610a175780639da9db2a146109a9578063a217fddf1461098d578063a57d380614610940578063c7c7b02f146108c3578063d547741f14610884578063db18c18914610723578063e5695991146106e2578063eb4f16b514610623578063eb7bb5a7146103f3578063ec3889b5146102cc578063ec5bfc6c146102ae5763f608463a1461020357600080fd5b346102a9576020806003193601126102a957600435600052600c8152604060002060405190818382549182815201908192600052846000209060005b8682821061029557868661025582880383612534565b604051928392818401908285525180915260408401929160005b82811061027e57505050500390f35b83518552869550938101939281019260010161026f565b83548552909301926001928301920161023f565b600080fd5b346102a95760003660031901126102a9576020600a54604051908152f35b346102a9576020806003193601126102a9576102e66120f0565b6102ee6121f8565b600380546040516370a0823160e01b81523060048201526001600160a01b03918216949092908084602481895afa9384156103e7576000946103b8575b509190600092600092600a54925b83851061037657505050505080821160001461036c5761035891612694565b905b8161036157005b61036a926126a1565b005b505060009061035a565b90919293946103a96103af918461038c8961211c565b905490861b1c166000526009865260016040600020015490612687565b956126da565b93929190610339565b9080945081813d83116103e0575b6103d08183612534565b810103126102a95751928661032b565b503d6103c6565b6040513d6000823e3d90fd5b346102a9576020806003193601126102a95760043590610411612664565b610419612646565b3360009081526009825260409020546001600160a01b039081166105e05780826002546004604051809481936363b36cc360e11b835260081c165afa80156103e7576000906105b1575b6104709150841015612556565b610482838260035416309033906125a1565b60405161048e81612518565b33815282810184815261051d60056040840193600085526060810160008152608082019042825260a08301966001885260c0840196600088523360005260098b528960406000209551166bffffffffffffffffffffffff60a01b8654161785555160018501555160028401555160038301555160048201550192511515839060ff801983541691151516179055565b51815461ff00191690151560081b61ff0016179055600a54600160401b81101561059b578060016105519201600a5561211c565b819291549060031b9133831b921b191617905560405191825242908201527f53226fcf6c46a949f058f2002cb48f6897bf6c0bd2f030158d655ba38d44a16c60403392a260018055005b634e487b7160e01b600052604160045260246000fd5b508281813d83116105d9575b6105c78183612534565b810103126102a9576104709051610463565b503d6105bd565b6064826040519062461bcd60e51b825280600483015260248201527f4665656450726f746f636f6c3a20616c726561647920726567697374657265646044820152fd5b346102a95760203660031901126102a95760043561063f612664565b610647612646565b336000908152600960205260409020546001600160a01b039081161561069d57816106799160035416309033906125a1565b3360005260096020526106956001604060002001918254612687565b905560018055005b60405162461bcd60e51b815260206004820152601c60248201527f4665656450726f746f636f6c3a206e6f742072656769737465726564000000006044820152606490fd5b346102a95760203660031901126102a95760043560038110156102a957610708816121ee565b600052600b6020526020600360406000200154604051908152f35b346102a95760203660031901126102a957610140604051610743816124df565b6000815260006020820152600060408201526000606082015260006080820152600060a0820152600060c0820152600060e08201526101009060008282015260006101208092015260043560005260066020526040600020604051926107a8846124df565b815484528360018301549260208201938452600281015460ff60408401916107d2828216846126e9565b60081c1660608401906107e4816121ee565b815260038301546080850190815260048401549160a0860192835261084f60058601549460c0880195865260ff600860068901549860e08b01998a528b60078201549b019a8b52015416998b8d019a15158b526040519c518d525160208d01525160408c01906121e1565b51610859816121ee565b60608a01525160808901525160a08801525160c08701525160e0860152519084015251151590820152f35b346102a95760403660031901126102a95761036a6004356108a3612106565b908060005260006020526108be600160406000200154612250565b61244e565b346102a95760203660031901126102a95761036a6108df6120f0565b6108e76121f8565b7fba279271fb7bbf76a6f3df3cc57bf80647fcafdea60ec3383d90f459de74e7c060009081526020527fbb186cc6582165753931a58fdaac99b9482f9d63c76229808bd3afc382e982165461093b90612250565b612328565b346102a95760403660031901126102a957610959612106565b600435600052600860205260406000209060018060a01b0316600052602052602060ff604060002054166040519015158152f35b346102a95760003660031901126102a957602060405160008152f35b346102a95760203660031901126102a95760043560038110156102a9576109cf816121ee565b600052600b60205260a06040600020805490600181015490600360028201549101549160ff60405194818116865260081c166020850152604084015260608301526080820152f35b346102a95760203660031901126102a95760e0610a326120f0565b600060c0604051610a4281612518565b8281528260208201528260408201528260608201528260808201528260a0820152015260018060a01b038091166000526009602052604060002060405191610a8983612518565b81541691828152600182015491602082019283526002810154604083019081526003820154906060840191825260056004840154936080860194855201549460ff60c060a087019682891615158852019660081c161515865260405196875251602087015251604086015251606085015251608084015251151560a083015251151560c0820152f35b346102a95760403660031901126102a957610b2b612106565b600435600052600060205260406000209060018060a01b0316600052602052602060ff604060002054166040519015158152f35b346102a95760003660031901126102a95760206040517f92a9bfc44b11bdcb4ce1c7bb0f30145a060370f7684a9cf6c25518e5775772698152f35b346102a95760003660031901126102a957610bb36121f8565b610bbb612646565b600160ff1960025416176002557f62e78cea01bee320cd4e420270b5ea74000d11b0c9f74754ebdbfc544b05a2586020604051338152a1005b346102a95760203660031901126102a9576020610c126004356128cb565b604051908152f35b346102a95760003660031901126102a95760025460405160089190911c6001600160a01b03168152602090f35b346102a957610c5536612181565b90600052600c602052604060002080548210156102a957602091610c7891612169565b90546040519160031b1c8152f35b346102a95760003660031901126102a9576020600554604051908152f35b346102a95760203660031901126102a957610cbd6120f0565b610cc56121f8565b600480546001600160a01b0319166001600160a01b0392909216919091179055005b346102a95760003660031901126102a9576004546040516001600160a01b039091168152602090f35b346102a95760003660031901126102a957602060ff600254166040519015158152f35b346102a95760203660031901126102a95761036a610d4f6120f0565b610d576121f8565b7f92a9bfc44b11bdcb4ce1c7bb0f30145a060370f7684a9cf6c25518e57757726960009081526020527fb9aa941adaec809e6b0427677375ac0b3d84ba99295ec0ba010b381b51e9479254610dab90612250565b612276565b346102a95760403660031901126102a95760043560243567ffffffffffffffff81116102a957610de49036906004016121b3565b919081151580610fa4575b610df8906126f5565b3360005260209060098252610e1760ff60056040600020015416612741565b3360005260098252610e3760ff60056040600020015460081c161561278d565b336000526009825260046001604060002001548360018060a01b0360025460081c16604051938480926363b36cc360e11b82525afa9182156103e757600092610f53575b507f5d7b755f33872c8c5fe6e178f7b9e167e0aa5f0407495210e7e0c8835a21cadb93610eb0610f4a94936009931015612556565b610eb8612664565b610ec0612646565b8560005260068152610edd60ff60086040600020015416156127d8565b85600052600881526040600020336000528152610f0260ff6040600020541615612824565b856000526008815260406000203360005281526040600020600160ff19825416179055526003604060002001610f3881546126da565b90556040519182913396429184612870565b0390a360018055005b9291508383813d8311610f9d575b610f6b8183612534565b810103126102a957915190917f5d7b755f33872c8c5fe6e178f7b9e167e0aa5f0407495210e7e0c8835a21cadb610e7b565b503d610f61565b506005548210610def565b346102a957610fbd36612181565b90801515806112c3575b610fd0906126f5565b3360005260209160098352610fef60ff60056040600020015416612741565b336000526009835261100f60ff60056040600020015460081c161561278d565b3360005260098352600192836040600020015490600460018060a01b0392828460025460081c16604051938480926363b36cc360e11b82525afa9081156103e757600091611292575b61106492501015612556565b61106c612664565b611074612646565b836000526006815260406000209261109360ff600886015416156127d8565b6003840154421161124d57846000526008825260406000203360005282526110c360ff6040600020541615612824565b80156111fc578460005260088252604060002033600052825260406000208660ff1982541617905560068401916110fa83546126da565b8355856000526007815260406000209360405194611117866124fc565b33865282860195848752604081019142835260608201908b82528054600160401b81101561059b5761114d918d82018155612197565b9390936111e6576005986111979560039451166bffffffffffffffffffffffff60a01b865416178555518c85015551600284015551151591019060ff801983541691151516179055565b6040519182524290820152847fdc37948d08732ed33078677fc43276d929de5bc1d96edc08562d508c79adc01c60403393a35491015411156111d857508055005b6111e1906128cb565b508055005b634e487b7160e01b600052600060045260246000fd5b60405162461bcd60e51b8152600481018390526024808201527f4665656450726f746f636f6c3a207072696365206d75737420626520706f73696044820152637469766560e01b6064820152608490fd5b60405162461bcd60e51b815260048101839052601d60248201527f4665656450726f746f636f6c3a207265717565737420657870697265640000006044820152606490fd5b90508282813d83116112bc575b6112a98183612534565b810103126102a957611064915190611058565b503d61129f565b506005548110610fc7565b346102a95760003660031901126102a9576112e76121f8565b60025460ff8116156113265760ff19166002557f5db9ee0a495bf2e6ff9c91a7834c1ba4fdd244a5e8aa4e537bd38aeae4b073aa6020604051338152a1005b604051638dfc202b60e01b8152600490fd5b346102a95760203660031901126102a95760043560005260066020526101406040600020805490600181015490600281015460ff8160081c1660038301546004840154906005850154926113b160068701549560ff600860078a015499015416986040519a8b5260208b015260ff60408b0191166121e1565b6113ba816121ee565b6060880152608087015260a086015260c085015260e08401526101008301521515610120820152f35b346102a95760003660031901126102a957600a546000805b8281106115c9575061142561140f8261289f565b9161141d6040519384612534565b80835261289f565b6020928383019291601f19013684376000805b82811061148c5750505090604051928392818401908285525180915260408401929160005b82811061146c57505050500390f35b83516001600160a01b03168552869550938101939281019260010161145d565b6114958161211c565b60018060a01b03809254600392831b1c16600052600980895260ff9060059180836040600020015416928361159a575b505081611514575b506114e3575b50506114de906126da565b611438565b9261150c9183946114f66114de9561211c565b9054911b1c1661150682886128b7565b526126da565b9190876114d3565b9050826115208561211c565b905490841b1c1660005288526004600160406000200154898460025460081c16604051938480926363b36cc360e11b82525afa9182156103e75760009261156b575b501015896114cd565b9091508981813d8311611593575b6115838183612534565b810103126102a95751908a611562565b503d611579565b90919250846115a88761211c565b905490861b1c16600052828b526040600020015460081c1615908a806114c5565b6115d28161211c565b9054600391821b1c6001600160a01b03908116600090815260096020818152604090922060059081015460ff908116949291856116cb575b50508361163f575b505050905061162a575b611625906126da565b6113fb565b90611637611625916126da565b91905061161c565b919381935061164d8661211c565b9054911b1c1660005282526004826001604060002001549260025460081c16604051928380926363b36cc360e11b82525afa9283156103e75760009361169b575b5050101580858080611612565b9080929350813d83116116c4575b6116b38183612534565b810103126102a9575190858061168e565b503d6116a9565b90919450826116d98861211c565b905490881b1c166000528484526040600020015460081c161592888061160a565b346102a95760403660031901126102a957611713612106565b336001600160a01b0382160361172f5761036a9060043561244e565b60405163334bd91960e11b8152600490fd5b346102a95760003660031901126102a9576003546040516001600160a01b039091168152602090f35b346102a95760403660031901126102a95761036a600435611789612106565b908060005260006020526117a4600160406000200154612250565b6123d5565b346102a95760403660031901126102a9576117c26120f0565b60243567ffffffffffffffff81116102a9576117e29036906004016121b3565b3360009081527fa0cfc50be65892217a92eab74d4b8dca267a17d5b74f05a4a7cdee0906a51faf60205260409020549092919060ff161561187c577fa172cc290b2e00bc2a34c06a4d70cd942037859cca624f051cd830b4b268eac59160018060a01b031692836000526009602052600560406000200161010061ffff19825416179055611877604051928392429184612870565b0390a2005b60405162461bcd60e51b815260206004820152601a60248201527f4665656450726f746f636f6c3a206e6f74206f70657261746f720000000000006044820152606490fd5b346102a95760003660031901126102a95760206040517f70b284da8bfc3de812daa2261b4c3ffadd90c2c772295293d09c9629a737a0cd8152f35b346102a9576020806003193601126102a957600435611919612664565b611921612646565b3360005260098252604060002091600183019283549361194384861015612556565b61194d8486612694565b6002546040516363b36cc360e11b81526001600160a01b039592909183908390600490829060081c8a165afa9182156103e757600092611a3c575b5010801590611a33575b156119d157506119a5846119ba96612694565b809155156119c0575b503390600354166126a1565b60018055005b600501805460ff19169055836119ae565b6084906040519062461bcd60e51b82526004820152603560248201527f4665656450726f746f636f6c3a206d757374206d61696e7461696e206d696e206044820152741cdd185ad9481bdc881dda5d1a191c985dc8185b1b605a1b6064820152fd5b50858514611992565b9091508281813d8311611a64575b611a548183612534565b810103126102a957519088611988565b503d611a4a565b346102a95760203660031901126102a95760043560005260006020526020600160406000200154604051908152f35b346102a95760203660031901126102a957611ab36120f0565b611abb6121f8565b60028054610100600160a81b03191660089290921b610100600160a81b0316919091179055005b346102a9576020806003193601126102a957600435600052600781526040600020908154611b0f8161289f565b90611b1d6040519283612534565b8082528282018094600052836000206000915b838310611b9b5760408051878152865181890181905289928201908960005b828110611b5c5784840385f35b855180516001600160a01b0316855280830151858401526040808201519086015260609081015115159085015294810194608090930192600101611b4f565b600486600192604051611bad816124fc565b848060a01b03865416815284860154838201526002860154604082015260ff60038701541615156060820152815201920192019190611b30565b346102a957611bf536612181565b906000526007602052604060002080548210156102a957608091611c1891612197565b5060018060a01b038154169060018101549060ff6003600283015492015416916040519384526020840152604083015215156060820152f35b346102a95760203660031901126102a957600435600a548110156102a957611c7a60209161211c565b905460405160039290921b1c6001600160a01b03168152f35b346102a95760203660031901126102a95760e06001600160a01b0380611cb76120f0565b16600052600960205260ff60406000209182541691600181015490600281015460038201549060056004840154930154936040519687526020870152604086015260608501526080840152818116151560a084015260081c16151560c0820152f35b60603660031901126102a957600435600460243510156102a95760443560038110156102a9573360009081527fbb186cc6582165753931a58fdaac99b9482f9d63c76229808bd3afc382e98215602052604090205460ff161561200f57611d7e612664565b611d87816121ee565b80600052600b6020526040600020611de9600360405192611da7846124c3565b60ff8154818116865260081c1660208501526001810154604085015260028101546060850152015480608084015260018060a01b0360035416309033906125a1565b60055491611df6836126da565b600555610708420191824211611ff95751604051929060ff16611e18846124df565b84845260208401928684526040850194611e34602435876126e9565b6060810191611e42816121ee565b82526080810193845260a081019242845260c0820190815260e08201906000825260006101008401526101208301946000865289600052600660205260406000209784518955516001890155600288019851966004881015611fe357896008986101009760ff61ff00611f089e549251611ebb816121ee565b611ec4816121ee565b8d1b1692169061ffff1916171790555160038901555160048801555160058701555160068601550151600784015551151591019060ff801983541691151516179055565b81600052600c602052604060002091825492600160401b84101561059b5783611f38916001602096018155612169565b81549060031b9084821b91600019901b1916179055817f615e8f1333715c833aeea3803d6aa6f09d73c6db60f9ed7d1ded1cec09b48d9a6101a0604051610120815260006101208201526000610140808984015282015260006101608060408401528201526000610180806060840152820152611fba608082016024356121e1565b600060a0820152600060c0820152600060e082015242610100820152a360018055604051908152f35b634e487b7160e01b600052602160045260246000fd5b634e487b7160e01b600052601160045260246000fd5b60405162461bcd60e51b815260206004820152602560248201527f4665656450726f746f636f6c3a206e6f7420617574686f72697a65642070726f6044820152641d1bd8dbdb60da1b6064820152608490fd5b346102a95760003660031901126102a95760206040517fba279271fb7bbf76a6f3df3cc57bf80647fcafdea60ec3383d90f459de74e7c08152f35b346102a95760203660031901126102a9576004359063ffffffff60e01b82168092036102a957602091637965db0b60e01b81149081156120df575b5015158152f35b6301ffc9a760e01b149050836120d8565b600435906001600160a01b03821682036102a957565b602435906001600160a01b03821682036102a957565b600a5481101561215357600a6000527fc65a7bb8d6351c1cf70c95a316cc6a92839c986682d98bc35f958f4883f9d2a80190600090565b634e487b7160e01b600052603260045260246000fd5b80548210156121535760005260206000200190600090565b60409060031901126102a9576004359060243590565b80548210156121535760005260206000209060021b0190600090565b9181601f840112156102a95782359167ffffffffffffffff83116102a957602083818601950101116102a957565b906004821015611fe35752565b60031115611fe357565b3360009081527fad3228b676f7d3cd4284a5443f17f1962b36e491b30a40b2405849e597ba5fb5602052604081205460ff16156122325750565b6044906040519063e2517d3f60e01b82523360048301526024820152fd5b80600052600060205260406000203360005260205260ff60406000205416156122325750565b6001600160a01b031660008181527fb9aa941adaec809e6b0427677375ac0b3d84ba99295ec0ba010b381b51e9479160205260408120549091907f92a9bfc44b11bdcb4ce1c7bb0f30145a060370f7684a9cf6c25518e5775772699060ff1661232357808352826020526040832082845260205260408320600160ff198254161790557f2f8788117e7eff1d82e926ec794901d17c78024a50270940304540a733656f0d339380a4600190565b505090565b6001600160a01b031660008181527fbb186cc6582165753931a58fdaac99b9482f9d63c76229808bd3afc382e9821560205260408120549091907fba279271fb7bbf76a6f3df3cc57bf80647fcafdea60ec3383d90f459de74e7c09060ff1661232357808352826020526040832082845260205260408320600160ff198254161790557f2f8788117e7eff1d82e926ec794901d17c78024a50270940304540a733656f0d339380a4600190565b9060009180835282602052604083209160018060a01b03169182845260205260ff6040842054161560001461232357808352826020526040832082845260205260408320600160ff198254161790557f2f8788117e7eff1d82e926ec794901d17c78024a50270940304540a733656f0d339380a4600190565b9060009180835282602052604083209160018060a01b03169182845260205260ff6040842054166000146123235780835282602052604083208284526020526040832060ff1981541690557ff6391f5c32d9c69d2a47ea670b442974b53935d1edc7fd64eb21e047a839171b339380a4600190565b60a0810190811067ffffffffffffffff82111761059b57604052565b610140810190811067ffffffffffffffff82111761059b57604052565b6080810190811067ffffffffffffffff82111761059b57604052565b60e0810190811067ffffffffffffffff82111761059b57604052565b90601f8019910116810190811067ffffffffffffffff82111761059b57604052565b1561255d57565b606460405162461bcd60e51b815260206004820152602060248201527f4665656450726f746f636f6c3a20696e73756666696369656e74207374616b656044820152fd5b6040516323b872dd60e01b60208201526001600160a01b0392831660248201529290911660448301526064808301939093529181526125e8916125e3826124c3565b6125ea565b565b906000602091828151910182855af1156103e7576000513d61263d57506001600160a01b0381163b155b61261b5750565b604051635274afe760e01b81526001600160a01b039091166004820152602490fd5b60011415612614565b60ff6002541661265257565b60405163d93c066560e01b8152600490fd5b600260015414612675576002600155565b604051633ee5aeb560e01b8152600490fd5b91908201809211611ff957565b91908203918211611ff957565b60405163a9059cbb60e01b60208201526001600160a01b0390921660248301526044808301939093529181526125e8916125e3826124fc565b6000198114611ff95760010190565b6004821015611fe35752565b156126fc57565b60405162461bcd60e51b815260206004820152601d60248201527f4665656450726f746f636f6c3a20696e76616c696420726571756573740000006044820152606490fd5b1561274857565b60405162461bcd60e51b815260206004820152601f60248201527f4665656450726f746f636f6c3a206e6f742061637469766520666565646572006044820152606490fd5b1561279457565b606460405162461bcd60e51b815260206004820152602060248201527f4665656450726f746f636f6c3a2066656564657220626c61636b6c69737465646044820152fd5b156127df57565b60405162461bcd60e51b815260206004820152601f60248201527f4665656450726f746f636f6c3a20616c72656164792066696e616c697a6564006044820152606490fd5b1561282b57565b60405162461bcd60e51b815260206004820152601f60248201527f4665656450726f746f636f6c3a20616c7265616479207375626d6974746564006044820152606490fd5b9392918060609160209360408852816040890152838801376000828288010152601f8019910116850101930152565b67ffffffffffffffff811161059b5760051b60200190565b80518210156121535760209160051b010190565b9060009180835260066020526040832060088101549260ff936128f0858216156127d8565b838652600760205260408620938454958615612ce45761290f8761289f565b9561291d6040519788612534565b878752601f1961292c8961289f565b013660208901378897895b818110612c7a5750508715612c35579391889593915b6000198901898111612c2157871015612a3057895b61296c888b612694565b6000198101908111612a1c578110156129ff57612989818a6128b7565b5160018201908183116129eb57906129b392916129a6828d6128b7565b51106129b8575b506126da565b612962565b6129e46129c5838d6128b7565b51918c6129dd856129d684846128b7565b51926128b7565b528c6128b7565b52386129ad565b634e487b7160e01b8d52601160045260248dfd5b50919395612a1090959193956126da565b9593919492909461294d565b634e487b7160e01b8c52601160045260248cfd5b95509597919796939290966001948580821615600014612c0a571c6000198101818111612bf65782612a6c88936129d6612a73946008976128b7565b5190612687565b811c985b89600785015560ff1916179101558481526006602052600291848360408420015460081c16612aa5816121ee565b8252600b6020526040822092604051612abd816124c3565b868554818116835260081c166020820152858501546040820152818501549081606082015260806003809701549101528254908115612be257049083865b612b3a575b50505050505050507f4da0f440b42ee815c5b14cbf1a5cb712c4fcf1ee583ca8c97bdbbdf4a1e7ba1f60408051848152426020820152a290565b8354811015612bdd57808887612b53612b609488612197565b50015416612b66576126da565b86612afb565b612b708186612197565b505487546001600160a01b0391821691612b8e9187918491166126a1565b8087526009602052836040882001612ba681546126da565b90558a7f602ab809fa82d3a742a4f9a33cdd154988d8b0f578ee4dc91de3dc412bf026b960408051888152426020820152a36126da565b612b00565b634e487b7160e01b85526012600452602485fd5b634e487b7160e01b85526011600452602485fd5b90600892612c1a91831c906128b7565b5198612a77565b634e487b7160e01b8b52601160045260248bfd5b60405162461bcd60e51b815260206004820152601d60248201527f4665656450726f746f636f6c3a206e6f2076616c6964207072696365730000006044820152606490fd5b836003612c878386612197565b5001541680612ccd575b612ca4575b612c9f906126da565b612937565b98612cc5612c9f916001612cb88d87612197565b500154611506828d6128b7565b999050612c96565b506001612cda8285612197565b5001541515612c91565b60405162461bcd60e51b815260206004820152601c60248201527f4665656450726f746f636f6c3a206e6f207375626d697373696f6e73000000006044820152606490fdfea2646970667358221220128debbf5f47d1582878b99249cf640ca851933ebe33a122e7bfd32da050f3a364736f6c634300081400332f8788117e7eff1d82e926ec794901d17c78024a50270940304540a733656f0d","opcodes":"PUSH1 0x80 CALLVALUE PUSH3 0x245 JUMPI PUSH1 0x1F PUSH3 0x3137 CODESIZE DUP2 SWAP1 SUB SWAP2 DUP3 ADD PUSH1 0x1F NOT AND DUP4 ADD SWAP3 SWAP2 SWAP1 PUSH1 0x1 PUSH1 0x1 PUSH1 0x40 SHL SUB DUP5 GT DUP4 DUP6 LT OR PUSH3 0x24A JUMPI DUP2 PUSH1 0x60 SWAP3 DUP5 SWAP3 PUSH1 0x40 SWAP7 DUP8 MSTORE DUP4 CODECOPY DUP2 ADD SUB SLT PUSH3 0x245 JUMPI PUSH3 0x51 DUP2 PUSH3 0x280 JUMP JUMPDEST SWAP1 PUSH1 0x20 PUSH3 0x6E DUP5 PUSH3 0x66 DUP4 DUP6 ADD PUSH3 0x280 JUMP JUMPDEST SWAP4 ADD PUSH3 0x280 JUMP JUMPDEST PUSH1 0x1 DUP1 DUP1 SSTORE PUSH1 0x5 DUP2 SWAP1 SSTORE PUSH1 0x2 DUP1 SLOAD PUSH2 0x100 PUSH1 0x1 PUSH1 0xA8 SHL SUB NOT AND PUSH1 0x8 SWAP7 SWAP1 SWAP7 SHL PUSH2 0x100 PUSH1 0x1 PUSH1 0xA8 SHL SUB AND SWAP6 SWAP1 SWAP6 OR DUP6 SSTORE PUSH1 0x3 DUP1 SLOAD PUSH1 0x1 PUSH1 0x1 PUSH1 0xA0 SHL SUB NOT AND PUSH1 0x1 PUSH1 0x1 PUSH1 0xA0 SHL SUB SWAP1 SWAP6 AND SWAP5 SWAP1 SWAP5 OR DUP5 SSTORE SWAP4 SWAP1 PUSH3 0xD5 SWAP1 PUSH3 0xCE DUP2 PUSH3 0x295 JUMP JUMPDEST POP PUSH3 0x315 JUMP JUMPDEST POP PUSH3 0xE0 PUSH3 0x260 JUMP JUMPDEST SWAP4 PUSH1 0x5 DUP6 MSTORE DUP3 DUP6 ADD SWAP1 DUP5 DUP3 MSTORE DUP7 DUP7 ADD SWAP6 PUSH8 0x429D069189E0000 DUP8 MSTORE PUSH1 0x60 DUP2 ADD SWAP1 PUSH8 0x257853B1DD8E0000 DUP3 MSTORE DUP7 PUSH1 0x80 DUP3 ADD PUSH8 0x29A2241AF62C0000 DUP2 MSTORE PUSH1 0x0 SWAP4 DUP5 DUP1 MSTORE PUSH1 0xB DUP10 MSTORE PUSH1 0xFF DUP13 DUP7 KECCAK256 SWAP5 MLOAD AND SWAP11 DUP5 SLOAD SWAP12 PUSH2 0xFF00 DUP1 SWAP10 MLOAD PUSH1 0x8 SHL AND SWAP1 PUSH2 0xFFFF NOT DUP1 SWAP15 AND OR OR DUP6 SSTORE MLOAD DUP7 DUP6 ADD SSTORE MLOAD DUP8 DUP5 ADD SSTORE MLOAD SWAP2 ADD SSTORE PUSH3 0x15F PUSH3 0x260 JUMP JUMPDEST PUSH1 0x7 DUP2 MSTORE DUP7 DUP10 DUP8 DUP4 ADD PUSH1 0x5 DUP2 MSTORE DUP2 DUP5 ADD PUSH8 0x6F05B59D3B20000 DUP2 MSTORE PUSH1 0x60 DUP6 ADD SWAP2 PUSH8 0x3E73362871420000 DUP4 MSTORE PUSH1 0xFF PUSH1 0x80 DUP8 ADD SWAP5 PUSH8 0x4563918244F40000 DUP7 MSTORE DUP10 DUP10 MSTORE PUSH1 0xB DUP14 MSTORE DUP9 KECCAK256 SWAP7 MLOAD AND DUP14 DUP11 DUP9 SLOAD SWAP4 MLOAD PUSH1 0x8 SHL AND SWAP3 AND OR OR DUP6 SSTORE MLOAD DUP7 DUP6 ADD SSTORE MLOAD DUP8 DUP5 ADD SSTORE MLOAD SWAP2 ADD SSTORE PUSH3 0x1D0 PUSH3 0x260 JUMP JUMPDEST SWAP7 DUP8 SWAP4 PUSH1 0xA DUP6 MSTORE DUP7 DUP6 ADD SWAP2 PUSH1 0x7 DUP4 MSTORE PUSH1 0xFF DUP12 DUP1 DUP9 ADD SWAP6 PUSH8 0xB1A2BC2EC500000 DUP8 MSTORE PUSH1 0xB PUSH1 0x80 PUSH1 0x60 DUP12 ADD SWAP11 PUSH8 0x63EB89DA4ED00000 DUP13 MSTORE ADD SWAP12 PUSH8 0x6F05B59D3B200000 DUP14 MSTORE DUP12 DUP4 MSTORE MSTORE KECCAK256 SWAP11 MLOAD AND SWAP2 DUP11 SLOAD SWAP4 MLOAD PUSH1 0x8 SHL AND SWAP3 AND OR OR DUP8 SSTORE MLOAD SWAP1 DUP7 ADD SSTORE MLOAD SWAP1 DUP5 ADD SSTORE MLOAD SWAP2 ADD SSTORE MLOAD PUSH2 0x2D5F SWAP1 DUP2 PUSH3 0x3B8 DUP3 CODECOPY RETURN JUMPDEST PUSH1 0x0 DUP1 REVERT JUMPDEST PUSH4 0x4E487B71 PUSH1 0xE0 SHL PUSH1 0x0 MSTORE PUSH1 0x41 PUSH1 0x4 MSTORE PUSH1 0x24 PUSH1 0x0 REVERT JUMPDEST PUSH1 0x40 MLOAD SWAP1 PUSH1 0xA0 DUP3 ADD PUSH1 0x1 PUSH1 0x1 PUSH1 0x40 SHL SUB DUP2 GT DUP4 DUP3 LT OR PUSH3 0x24A JUMPI PUSH1 0x40 MSTORE JUMP JUMPDEST MLOAD SWAP1 PUSH1 0x1 PUSH1 0x1 PUSH1 0xA0 SHL SUB DUP3 AND DUP3 SUB PUSH3 0x245 JUMPI JUMP JUMPDEST PUSH1 0x1 PUSH1 0x1 PUSH1 0xA0 SHL SUB AND PUSH1 0x0 DUP2 DUP2 MSTORE PUSH32 0xAD3228B676F7D3CD4284A5443F17F1962B36E491B30A40B2405849E597BA5FB5 PUSH1 0x20 MSTORE PUSH1 0x40 DUP2 KECCAK256 SLOAD SWAP1 SWAP2 SWAP1 PUSH1 0xFF AND PUSH3 0x311 JUMPI DUP2 DUP1 MSTORE DUP2 PUSH1 0x20 MSTORE PUSH1 0x40 DUP3 KECCAK256 DUP2 DUP4 MSTORE PUSH1 0x20 MSTORE PUSH1 0x40 DUP3 KECCAK256 PUSH1 0x1 PUSH1 0xFF NOT DUP3 SLOAD AND OR SWAP1 SSTORE CALLER SWAP2 PUSH1 0x0 DUP1 MLOAD PUSH1 0x20 PUSH3 0x3117 DUP4 CODECOPY DUP2 MLOAD SWAP2 MSTORE DUP2 DUP1 LOG4 PUSH1 0x1 SWAP1 JUMP JUMPDEST POP SWAP1 JUMP JUMPDEST PUSH1 0x1 PUSH1 0x1 PUSH1 0xA0 SHL SUB AND PUSH1 0x0 DUP2 DUP2 MSTORE PUSH32 0xA0CFC50BE65892217A92EAB74D4B8DCA267A17D5B74F05A4A7CDEE0906A51FAF PUSH1 0x20 MSTORE PUSH1 0x40 DUP2 KECCAK256 SLOAD SWAP1 SWAP2 SWAP1 PUSH32 0x70B284DA8BFC3DE812DAA2261B4C3FFADD90C2C772295293D09C9629A737A0CD SWAP1 PUSH1 0xFF AND PUSH3 0x3B2 JUMPI DUP1 DUP4 MSTORE DUP3 PUSH1 0x20 MSTORE PUSH1 0x40 DUP4 KECCAK256 DUP3 DUP5 MSTORE PUSH1 0x20 MSTORE PUSH1 0x40 DUP4 KECCAK256 PUSH1 0x1 PUSH1 0xFF NOT DUP3 SLOAD AND OR SWAP1 SSTORE PUSH1 0x0 DUP1 MLOAD PUSH1 0x20 PUSH3 0x3117 DUP4 CODECOPY DUP2 MLOAD SWAP2 MSTORE CALLER SWAP4 DUP1 LOG4 PUSH1 0x1 SWAP1 JUMP JUMPDEST POP POP SWAP1 JUMP INVALID PUSH1 0x80 DUP1 PUSH1 0x40 MSTORE PUSH1 0x4 CALLDATASIZE LT ISZERO PUSH2 0x13 JUMPI PUSH1 0x0 DUP1 REVERT JUMPDEST PUSH1 0x0 CALLDATALOAD PUSH1 0xE0 SHR SWAP1 DUP2 PUSH4 0x1FFC9A7 EQ PUSH2 0x209D JUMPI POP DUP1 PUSH4 0x2768DE4 EQ PUSH2 0x2062 JUMPI DUP1 PUSH4 0x4B86CB3 EQ PUSH2 0x1D19 JUMPI DUP1 PUSH4 0xAA31661 EQ PUSH2 0x1C93 JUMPI DUP1 PUSH4 0x121C604B EQ PUSH2 0x1C51 JUMPI DUP1 PUSH4 0x15450ACE EQ PUSH2 0x1BE7 JUMPI DUP1 PUSH4 0x16C53CED EQ PUSH2 0x1AE2 JUMPI DUP1 PUSH4 0x20E3DBD4 EQ PUSH2 0x1A9A JUMPI DUP1 PUSH4 0x248A9CA3 EQ PUSH2 0x1A6B JUMPI DUP1 PUSH4 0x25D5971F EQ PUSH2 0x18FC JUMPI DUP1 PUSH4 0x2F0165CA EQ PUSH2 0x18C1 JUMPI DUP1 PUSH4 0x2F0E6CA5 EQ PUSH2 0x17A9 JUMPI DUP1 PUSH4 0x2F2FF15D EQ PUSH2 0x176A JUMPI DUP1 PUSH4 0x2F48AB7D EQ PUSH2 0x1741 JUMPI DUP1 PUSH4 0x36568ABE EQ PUSH2 0x16FA JUMPI DUP1 PUSH4 0x3929FCD3 EQ PUSH2 0x13E3 JUMPI DUP1 PUSH4 0x3BF5E3A9 EQ PUSH2 0x1338 JUMPI DUP1 PUSH4 0x3F4BA83A EQ PUSH2 0x12CE JUMPI DUP1 PUSH4 0x3FE1DDD2 EQ PUSH2 0xFAF JUMPI DUP1 PUSH4 0x46B62703 EQ PUSH2 0xDB0 JUMPI DUP1 PUSH4 0x46F53D1E EQ PUSH2 0xD33 JUMPI DUP1 PUSH4 0x5C975ABB EQ PUSH2 0xD10 JUMPI DUP1 PUSH4 0x5CF72F54 EQ PUSH2 0xCE7 JUMPI DUP1 PUSH4 0x5EFD9508 EQ PUSH2 0xCA4 JUMPI DUP1 PUSH4 0x6A84A985 EQ PUSH2 0xC86 JUMPI DUP1 PUSH4 0x75136DDC EQ PUSH2 0xC47 JUMPI DUP1 PUSH4 0x79502C55 EQ PUSH2 0xC1A JUMPI DUP1 PUSH4 0x82AE8F01 EQ PUSH2 0xBF4 JUMPI DUP1 PUSH4 0x8456CB59 EQ PUSH2 0xB9A JUMPI DUP1 PUSH4 0x8EC9F038 EQ PUSH2 0xB5F JUMPI DUP1 PUSH4 0x91D14854 EQ PUSH2 0xB12 JUMPI DUP1 PUSH4 0x9BA7646C EQ PUSH2 0xA17 JUMPI DUP1 PUSH4 0x9DA9DB2A EQ PUSH2 0x9A9 JUMPI DUP1 PUSH4 0xA217FDDF EQ PUSH2 0x98D JUMPI DUP1 PUSH4 0xA57D3806 EQ PUSH2 0x940 JUMPI DUP1 PUSH4 0xC7C7B02F EQ PUSH2 0x8C3 JUMPI DUP1 PUSH4 0xD547741F EQ PUSH2 0x884 JUMPI DUP1 PUSH4 0xDB18C189 EQ PUSH2 0x723 JUMPI DUP1 PUSH4 0xE5695991 EQ PUSH2 0x6E2 JUMPI DUP1 PUSH4 0xEB4F16B5 EQ PUSH2 0x623 JUMPI DUP1 PUSH4 0xEB7BB5A7 EQ PUSH2 0x3F3 JUMPI DUP1 PUSH4 0xEC3889B5 EQ PUSH2 0x2CC JUMPI DUP1 PUSH4 0xEC5BFC6C EQ PUSH2 0x2AE JUMPI PUSH4 0xF608463A EQ PUSH2 0x203 JUMPI PUSH1 0x0 DUP1 REVERT JUMPDEST CALLVALUE PUSH2 0x2A9 JUMPI PUSH1 0x20 DUP1 PUSH1 0x3 NOT CALLDATASIZE ADD SLT PUSH2 0x2A9 JUMPI PUSH1 0x4 CALLDATALOAD PUSH1 0x0 MSTORE PUSH1 0xC DUP2 MSTORE PUSH1 0x40 PUSH1 0x0 KECCAK256 PUSH1 0x40 MLOAD SWAP1 DUP2 DUP4 DUP3 SLOAD SWAP2 DUP3 DUP2 MSTORE ADD SWAP1 DUP2 SWAP3 PUSH1 0x0 MSTORE DUP5 PUSH1 0x0 KECCAK256 SWAP1 PUSH1 0x0 JUMPDEST DUP7 DUP3 DUP3 LT PUSH2 0x295 JUMPI DUP7 DUP7 PUSH2 0x255 DUP3 DUP9 SUB DUP4 PUSH2 0x2534 JUMP JUMPDEST PUSH1 0x40 MLOAD SWAP3 DUP4 SWAP3 DUP2 DUP5 ADD SWAP1 DUP3 DUP6 MSTORE MLOAD DUP1 SWAP2 MSTORE PUSH1 0x40 DUP5 ADD SWAP3 SWAP2 PUSH1 0x0 JUMPDEST DUP3 DUP2 LT PUSH2 0x27E JUMPI POP POP POP POP SUB SWAP1 RETURN JUMPDEST DUP4 MLOAD DUP6 MSTORE DUP7 SWAP6 POP SWAP4 DUP2 ADD SWAP4 SWAP3 DUP2 ADD SWAP3 PUSH1 0x1 ADD PUSH2 0x26F JUMP JUMPDEST DUP4 SLOAD DUP6 MSTORE SWAP1 SWAP4 ADD SWAP3 PUSH1 0x1 SWAP3 DUP4 ADD SWAP3 ADD PUSH2 0x23F JUMP JUMPDEST PUSH1 0x0 DUP1 REVERT JUMPDEST CALLVALUE PUSH2 0x2A9 JUMPI PUSH1 0x0 CALLDATASIZE PUSH1 0x3 NOT ADD SLT PUSH2 0x2A9 JUMPI PUSH1 0x20 PUSH1 0xA SLOAD PUSH1 0x40 MLOAD SWAP1 DUP2 MSTORE RETURN JUMPDEST CALLVALUE PUSH2 0x2A9 JUMPI PUSH1 0x20 DUP1 PUSH1 0x3 NOT CALLDATASIZE ADD SLT PUSH2 0x2A9 JUMPI PUSH2 0x2E6 PUSH2 0x20F0 JUMP JUMPDEST PUSH2 0x2EE PUSH2 0x21F8 JUMP JUMPDEST PUSH1 0x3 DUP1 SLOAD PUSH1 0x40 MLOAD PUSH4 0x70A08231 PUSH1 0xE0 SHL DUP2 MSTORE ADDRESS PUSH1 0x4 DUP3 ADD MSTORE PUSH1 0x1 PUSH1 0x1 PUSH1 0xA0 SHL SUB SWAP2 DUP3 AND SWAP5 SWAP1 SWAP3 SWAP1 DUP1 DUP5 PUSH1 0x24 DUP2 DUP10 GAS STATICCALL SWAP4 DUP5 ISZERO PUSH2 0x3E7 JUMPI PUSH1 0x0 SWAP5 PUSH2 0x3B8 JUMPI JUMPDEST POP SWAP2 SWAP1 PUSH1 0x0 SWAP3 PUSH1 0x0 SWAP3 PUSH1 0xA SLOAD SWAP3 JUMPDEST DUP4 DUP6 LT PUSH2 0x376 JUMPI POP POP POP POP POP DUP1 DUP3 GT PUSH1 0x0 EQ PUSH2 0x36C JUMPI PUSH2 0x358 SWAP2 PUSH2 0x2694 JUMP JUMPDEST SWAP1 JUMPDEST DUP2 PUSH2 0x361 JUMPI STOP JUMPDEST PUSH2 0x36A SWAP3 PUSH2 0x26A1 JUMP JUMPDEST STOP JUMPDEST POP POP PUSH1 0x0 SWAP1 PUSH2 0x35A JUMP JUMPDEST SWAP1 SWAP2 SWAP3 SWAP4 SWAP5 PUSH2 0x3A9 PUSH2 0x3AF SWAP2 DUP5 PUSH2 0x38C DUP10 PUSH2 0x211C JUMP JUMPDEST SWAP1 SLOAD SWAP1 DUP7 SHL SHR AND PUSH1 0x0 MSTORE PUSH1 0x9 DUP7 MSTORE PUSH1 0x1 PUSH1 0x40 PUSH1 0x0 KECCAK256 ADD SLOAD SWAP1 PUSH2 0x2687 JUMP JUMPDEST SWAP6 PUSH2 0x26DA JUMP JUMPDEST SWAP4 SWAP3 SWAP2 SWAP1 PUSH2 0x339 JUMP JUMPDEST SWAP1 DUP1 SWAP5 POP DUP2 DUP2 RETURNDATASIZE DUP4 GT PUSH2 0x3E0 JUMPI JUMPDEST PUSH2 0x3D0 DUP2 DUP4 PUSH2 0x2534 JUMP JUMPDEST DUP2 ADD SUB SLT PUSH2 0x2A9 JUMPI MLOAD SWAP3 DUP7 PUSH2 0x32B JUMP JUMPDEST POP RETURNDATASIZE PUSH2 0x3C6 JUMP JUMPDEST PUSH1 0x40 MLOAD RETURNDATASIZE PUSH1 0x0 DUP3 RETURNDATACOPY RETURNDATASIZE SWAP1 REVERT JUMPDEST CALLVALUE PUSH2 0x2A9 JUMPI PUSH1 0x20 DUP1 PUSH1 0x3 NOT CALLDATASIZE ADD SLT PUSH2 0x2A9 JUMPI PUSH1 0x4 CALLDATALOAD SWAP1 PUSH2 0x411 PUSH2 0x2664 JUMP JUMPDEST PUSH2 0x419 PUSH2 0x2646 JUMP JUMPDEST CALLER PUSH1 0x0 SWAP1 DUP2 MSTORE PUSH1 0x9 DUP3 MSTORE PUSH1 0x40 SWAP1 KECCAK256 SLOAD PUSH1 0x1 PUSH1 0x1 PUSH1 0xA0 SHL SUB SWAP1 DUP2 AND PUSH2 0x5E0 JUMPI DUP1 DUP3 PUSH1 0x2 SLOAD PUSH1 0x4 PUSH1 0x40 MLOAD DUP1 SWAP5 DUP2 SWAP4 PUSH4 0x63B36CC3 PUSH1 0xE1 SHL DUP4 MSTORE PUSH1 0x8 SHR AND GAS STATICCALL DUP1 ISZERO PUSH2 0x3E7 JUMPI PUSH1 0x0 SWAP1 PUSH2 0x5B1 JUMPI JUMPDEST PUSH2 0x470 SWAP2 POP DUP5 LT ISZERO PUSH2 0x2556 JUMP JUMPDEST PUSH2 0x482 DUP4 DUP3 PUSH1 0x3 SLOAD AND ADDRESS SWAP1 CALLER SWAP1 PUSH2 0x25A1 JUMP JUMPDEST PUSH1 0x40 MLOAD PUSH2 0x48E DUP2 PUSH2 0x2518 JUMP JUMPDEST CALLER DUP2 MSTORE DUP3 DUP2 ADD DUP5 DUP2 MSTORE PUSH2 0x51D PUSH1 0x5 PUSH1 0x40 DUP5 ADD SWAP4 PUSH1 0x0 DUP6 MSTORE PUSH1 0x60 DUP2 ADD PUSH1 0x0 DUP2 MSTORE PUSH1 0x80 DUP3 ADD SWAP1 TIMESTAMP DUP3 MSTORE PUSH1 0xA0 DUP4 ADD SWAP7 PUSH1 0x1 DUP9 MSTORE PUSH1 0xC0 DUP5 ADD SWAP7 PUSH1 0x0 DUP9 MSTORE CALLER PUSH1 0x0 MSTORE PUSH1 0x9 DUP12 MSTORE DUP10 PUSH1 0x40 PUSH1 0x0 KECCAK256 SWAP6 MLOAD AND PUSH12 0xFFFFFFFFFFFFFFFFFFFFFFFF PUSH1 0xA0 SHL DUP7 SLOAD AND OR DUP6 SSTORE MLOAD PUSH1 0x1 DUP6 ADD SSTORE MLOAD PUSH1 0x2 DUP5 ADD SSTORE MLOAD PUSH1 0x3 DUP4 ADD SSTORE MLOAD PUSH1 0x4 DUP3 ADD SSTORE ADD SWAP3 MLOAD ISZERO ISZERO DUP4 SWAP1 PUSH1 0xFF DUP1 NOT DUP4 SLOAD AND SWAP2 ISZERO ISZERO AND OR SWAP1 SSTORE JUMP JUMPDEST MLOAD DUP2 SLOAD PUSH2 0xFF00 NOT AND SWAP1 ISZERO ISZERO PUSH1 0x8 SHL PUSH2 0xFF00 AND OR SWAP1 SSTORE PUSH1 0xA SLOAD PUSH1 0x1 PUSH1 0x40 SHL DUP2 LT ISZERO PUSH2 0x59B JUMPI DUP1 PUSH1 0x1 PUSH2 0x551 SWAP3 ADD PUSH1 0xA SSTORE PUSH2 0x211C JUMP JUMPDEST DUP2 SWAP3 SWAP2 SLOAD SWAP1 PUSH1 0x3 SHL SWAP2 CALLER DUP4 SHL SWAP3 SHL NOT AND OR SWAP1 SSTORE PUSH1 0x40 MLOAD SWAP2 DUP3 MSTORE TIMESTAMP SWAP1 DUP3 ADD MSTORE PUSH32 0x53226FCF6C46A949F058F2002CB48F6897BF6C0BD2F030158D655BA38D44A16C PUSH1 0x40 CALLER SWAP3 LOG2 PUSH1 0x1 DUP1 SSTORE STOP JUMPDEST PUSH4 0x4E487B71 PUSH1 0xE0 SHL PUSH1 0x0 MSTORE PUSH1 0x41 PUSH1 0x4 MSTORE PUSH1 0x24 PUSH1 0x0 REVERT JUMPDEST POP DUP3 DUP2 DUP2 RETURNDATASIZE DUP4 GT PUSH2 0x5D9 JUMPI JUMPDEST PUSH2 0x5C7 DUP2 DUP4 PUSH2 0x2534 JUMP JUMPDEST DUP2 ADD SUB SLT PUSH2 0x2A9 JUMPI PUSH2 0x470 SWAP1 MLOAD PUSH2 0x463 JUMP JUMPDEST POP RETURNDATASIZE PUSH2 0x5BD JUMP JUMPDEST PUSH1 0x64 DUP3 PUSH1 0x40 MLOAD SWAP1 PUSH3 0x461BCD PUSH1 0xE5 SHL DUP3 MSTORE DUP1 PUSH1 0x4 DUP4 ADD MSTORE PUSH1 0x24 DUP3 ADD MSTORE PUSH32 0x4665656450726F746F636F6C3A20616C72656164792072656769737465726564 PUSH1 0x44 DUP3 ADD MSTORE REVERT JUMPDEST CALLVALUE PUSH2 0x2A9 JUMPI PUSH1 0x20 CALLDATASIZE PUSH1 0x3 NOT ADD SLT PUSH2 0x2A9 JUMPI PUSH1 0x4 CALLDATALOAD PUSH2 0x63F PUSH2 0x2664 JUMP JUMPDEST PUSH2 0x647 PUSH2 0x2646 JUMP JUMPDEST CALLER PUSH1 0x0 SWAP1 DUP2 MSTORE PUSH1 0x9 PUSH1 0x20 MSTORE PUSH1 0x40 SWAP1 KECCAK256 SLOAD PUSH1 0x1 PUSH1 0x1 PUSH1 0xA0 SHL SUB SWAP1 DUP2 AND ISZERO PUSH2 0x69D JUMPI DUP2 PUSH2 0x679 SWAP2 PUSH1 0x3 SLOAD AND ADDRESS SWAP1 CALLER SWAP1 PUSH2 0x25A1 JUMP JUMPDEST CALLER PUSH1 0x0 MSTORE PUSH1 0x9 PUSH1 0x20 MSTORE PUSH2 0x695 PUSH1 0x1 PUSH1 0x40 PUSH1 0x0 KECCAK256 ADD SWAP2 DUP3 SLOAD PUSH2 0x2687 JUMP JUMPDEST SWAP1 SSTORE PUSH1 0x1 DUP1 SSTORE STOP JUMPDEST PUSH1 0x40 MLOAD PUSH3 0x461BCD PUSH1 0xE5 SHL DUP2 MSTORE PUSH1 0x20 PUSH1 0x4 DUP3 ADD MSTORE PUSH1 0x1C PUSH1 0x24 DUP3 ADD MSTORE PUSH32 0x4665656450726F746F636F6C3A206E6F74207265676973746572656400000000 PUSH1 0x44 DUP3 ADD MSTORE PUSH1 0x64 SWAP1 REVERT JUMPDEST CALLVALUE PUSH2 0x2A9 JUMPI PUSH1 0x20 CALLDATASIZE PUSH1 0x3 NOT ADD SLT PUSH2 0x2A9 JUMPI PUSH1 0x4 CALLDATALOAD PUSH1 0x3 DUP2 LT ISZERO PUSH2 0x2A9 JUMPI PUSH2 0x708 DUP2 PUSH2 0x21EE JUMP JUMPDEST PUSH1 0x0 MSTORE PUSH1 0xB PUSH1 0x20 MSTORE PUSH1 0x20 PUSH1 0x3 PUSH1 0x40 PUSH1 0x0 KECCAK256 ADD SLOAD PUSH1 0x40 MLOAD SWAP1 DUP2 MSTORE RETURN JUMPDEST CALLVALUE PUSH2 0x2A9 JUMPI PUSH1 0x20 CALLDATASIZE PUSH1 0x3 NOT ADD SLT PUSH2 0x2A9 JUMPI PUSH2 0x140 PUSH1 0x40 MLOAD PUSH2 0x743 DUP2 PUSH2 0x24DF JUMP JUMPDEST PUSH1 0x0 DUP2 MSTORE PUSH1 0x0 PUSH1 0x20 DUP3 ADD MSTORE PUSH1 0x0 PUSH1 0x40 DUP3 ADD MSTORE PUSH1 0x0 PUSH1 0x60 DUP3 ADD MSTORE PUSH1 0x0 PUSH1 0x80 DUP3 ADD MSTORE PUSH1 0x0 PUSH1 0xA0 DUP3 ADD MSTORE PUSH1 0x0 PUSH1 0xC0 DUP3 ADD MSTORE PUSH1 0x0 PUSH1 0xE0 DUP3 ADD MSTORE PUSH2 0x100 SWAP1 PUSH1 0x0 DUP3 DUP3 ADD MSTORE PUSH1 0x0 PUSH2 0x120 DUP1 SWAP3 ADD MSTORE PUSH1 0x4 CALLDATALOAD PUSH1 0x0 MSTORE PUSH1 0x6 PUSH1 0x20 MSTORE PUSH1 0x40 PUSH1 0x0 KECCAK256 PUSH1 0x40 MLOAD SWAP3 PUSH2 0x7A8 DUP5 PUSH2 0x24DF JUMP JUMPDEST DUP2 SLOAD DUP5 MSTORE DUP4 PUSH1 0x1 DUP4 ADD SLOAD SWAP3 PUSH1 0x20 DUP3 ADD SWAP4 DUP5 MSTORE PUSH1 0x2 DUP2 ADD SLOAD PUSH1 0xFF PUSH1 0x40 DUP5 ADD SWAP2 PUSH2 0x7D2 DUP3 DUP3 AND DUP5 PUSH2 0x26E9 JUMP JUMPDEST PUSH1 0x8 SHR AND PUSH1 0x60 DUP5 ADD SWAP1 PUSH2 0x7E4 DUP2 PUSH2 0x21EE JUMP JUMPDEST DUP2 MSTORE PUSH1 0x3 DUP4 ADD SLOAD PUSH1 0x80 DUP6 ADD SWAP1 DUP2 MSTORE PUSH1 0x4 DUP5 ADD SLOAD SWAP2 PUSH1 0xA0 DUP7 ADD SWAP3 DUP4 MSTORE PUSH2 0x84F PUSH1 0x5 DUP7 ADD SLOAD SWAP5 PUSH1 0xC0 DUP9 ADD SWAP6 DUP7 MSTORE PUSH1 0xFF PUSH1 0x8 PUSH1 0x6 DUP10 ADD SLOAD SWAP9 PUSH1 0xE0 DUP12 ADD SWAP10 DUP11 MSTORE DUP12 PUSH1 0x7 DUP3 ADD SLOAD SWAP12 ADD SWAP11 DUP12 MSTORE ADD SLOAD AND SWAP10 DUP12 DUP14 ADD SWAP11 ISZERO ISZERO DUP12 MSTORE PUSH1 0x40 MLOAD SWAP13 MLOAD DUP14 MSTORE MLOAD PUSH1 0x20 DUP14 ADD MSTORE MLOAD PUSH1 0x40 DUP13 ADD SWAP1 PUSH2 0x21E1 JUMP JUMPDEST MLOAD PUSH2 0x859 DUP2 PUSH2 0x21EE JUMP JUMPDEST PUSH1 0x60 DUP11 ADD MSTORE MLOAD PUSH1 0x80 DUP10 ADD MSTORE MLOAD PUSH1 0xA0 DUP9 ADD MSTORE MLOAD PUSH1 0xC0 DUP8 ADD MSTORE MLOAD PUSH1 0xE0 DUP7 ADD MSTORE MLOAD SWAP1 DUP5 ADD MSTORE MLOAD ISZERO ISZERO SWAP1 DUP3 ADD MSTORE RETURN JUMPDEST CALLVALUE PUSH2 0x2A9 JUMPI PUSH1 0x40 CALLDATASIZE PUSH1 0x3 NOT ADD SLT PUSH2 0x2A9 JUMPI PUSH2 0x36A PUSH1 0x4 CALLDATALOAD PUSH2 0x8A3 PUSH2 0x2106 JUMP JUMPDEST SWAP1 DUP1 PUSH1 0x0 MSTORE PUSH1 0x0 PUSH1 0x20 MSTORE PUSH2 0x8BE PUSH1 0x1 PUSH1 0x40 PUSH1 0x0 KECCAK256 ADD SLOAD PUSH2 0x2250 JUMP JUMPDEST PUSH2 0x244E JUMP JUMPDEST CALLVALUE PUSH2 0x2A9 JUMPI PUSH1 0x20 CALLDATASIZE PUSH1 0x3 NOT ADD SLT PUSH2 0x2A9 JUMPI PUSH2 0x36A PUSH2 0x8DF PUSH2 0x20F0 JUMP JUMPDEST PUSH2 0x8E7 PUSH2 0x21F8 JUMP JUMPDEST PUSH32 0xBA279271FB7BBF76A6F3DF3CC57BF80647FCAFDEA60EC3383D90F459DE74E7C0 PUSH1 0x0 SWAP1 DUP2 MSTORE PUSH1 0x20 MSTORE PUSH32 0xBB186CC6582165753931A58FDAAC99B9482F9D63C76229808BD3AFC382E98216 SLOAD PUSH2 0x93B SWAP1 PUSH2 0x2250 JUMP JUMPDEST PUSH2 0x2328 JUMP JUMPDEST CALLVALUE PUSH2 0x2A9 JUMPI PUSH1 0x40 CALLDATASIZE PUSH1 0x3 NOT ADD SLT PUSH2 0x2A9 JUMPI PUSH2 0x959 PUSH2 0x2106 JUMP JUMPDEST PUSH1 0x4 CALLDATALOAD PUSH1 0x0 MSTORE PUSH1 0x8 PUSH1 0x20 MSTORE PUSH1 0x40 PUSH1 0x0 KECCAK256 SWAP1 PUSH1 0x1 DUP1 PUSH1 0xA0 SHL SUB AND PUSH1 0x0 MSTORE PUSH1 0x20 MSTORE PUSH1 0x20 PUSH1 0xFF PUSH1 0x40 PUSH1 0x0 KECCAK256 SLOAD AND PUSH1 0x40 MLOAD SWAP1 ISZERO ISZERO DUP2 MSTORE RETURN JUMPDEST CALLVALUE PUSH2 0x2A9 JUMPI PUSH1 0x0 CALLDATASIZE PUSH1 0x3 NOT ADD SLT PUSH2 0x2A9 JUMPI PUSH1 0x20 PUSH1 0x40 MLOAD PUSH1 0x0 DUP2 MSTORE RETURN JUMPDEST CALLVALUE PUSH2 0x2A9 JUMPI PUSH1 0x20 CALLDATASIZE PUSH1 0x3 NOT ADD SLT PUSH2 0x2A9 JUMPI PUSH1 0x4 CALLDATALOAD PUSH1 0x3 DUP2 LT ISZERO PUSH2 0x2A9 JUMPI PUSH2 0x9CF DUP2 PUSH2 0x21EE JUMP JUMPDEST PUSH1 0x0 MSTORE PUSH1 0xB PUSH1 0x20 MSTORE PUSH1 0xA0 PUSH1 0x40 PUSH1 0x0 KECCAK256 DUP1 SLOAD SWAP1 PUSH1 0x1 DUP2 ADD SLOAD SWAP1 PUSH1 0x3 PUSH1 0x2 DUP3 ADD SLOAD SWAP2 ADD SLOAD SWAP2 PUSH1 0xFF PUSH1 0x40 MLOAD SWAP5 DUP2 DUP2 AND DUP7 MSTORE PUSH1 0x8 SHR AND PUSH1 0x20 DUP6 ADD MSTORE PUSH1 0x40 DUP5 ADD MSTORE PUSH1 0x60 DUP4 ADD MSTORE PUSH1 0x80 DUP3 ADD MSTORE RETURN JUMPDEST CALLVALUE PUSH2 0x2A9 JUMPI PUSH1 0x20 CALLDATASIZE PUSH1 0x3 NOT ADD SLT PUSH2 0x2A9 JUMPI PUSH1 0xE0 PUSH2 0xA32 PUSH2 0x20F0 JUMP JUMPDEST PUSH1 0x0 PUSH1 0xC0 PUSH1 0x40 MLOAD PUSH2 0xA42 DUP2 PUSH2 0x2518 JUMP JUMPDEST DUP3 DUP2 MSTORE DUP3 PUSH1 0x20 DUP3 ADD MSTORE DUP3 PUSH1 0x40 DUP3 ADD MSTORE DUP3 PUSH1 0x60 DUP3 ADD MSTORE DUP3 PUSH1 0x80 DUP3 ADD MSTORE DUP3 PUSH1 0xA0 DUP3 ADD MSTORE ADD MSTORE PUSH1 0x1 DUP1 PUSH1 0xA0 SHL SUB DUP1 SWAP2 AND PUSH1 0x0 MSTORE PUSH1 0x9 PUSH1 0x20 MSTORE PUSH1 0x40 PUSH1 0x0 KECCAK256 PUSH1 0x40 MLOAD SWAP2 PUSH2 0xA89 DUP4 PUSH2 0x2518 JUMP JUMPDEST DUP2 SLOAD AND SWAP2 DUP3 DUP2 MSTORE PUSH1 0x1 DUP3 ADD SLOAD SWAP2 PUSH1 0x20 DUP3 ADD SWAP3 DUP4 MSTORE PUSH1 0x2 DUP2 ADD SLOAD PUSH1 0x40 DUP4 ADD SWAP1 DUP2 MSTORE PUSH1 0x3 DUP3 ADD SLOAD SWAP1 PUSH1 0x60 DUP5 ADD SWAP2 DUP3 MSTORE PUSH1 0x5 PUSH1 0x4 DUP5 ADD SLOAD SWAP4 PUSH1 0x80 DUP7 ADD SWAP5 DUP6 MSTORE ADD SLOAD SWAP5 PUSH1 0xFF PUSH1 0xC0 PUSH1 0xA0 DUP8 ADD SWAP7 DUP3 DUP10 AND ISZERO ISZERO DUP9 MSTORE ADD SWAP7 PUSH1 0x8 SHR AND ISZERO ISZERO DUP7 MSTORE PUSH1 0x40 MLOAD SWAP7 DUP8 MSTORE MLOAD PUSH1 0x20 DUP8 ADD MSTORE MLOAD PUSH1 0x40 DUP7 ADD MSTORE MLOAD PUSH1 0x60 DUP6 ADD MSTORE MLOAD PUSH1 0x80 DUP5 ADD MSTORE MLOAD ISZERO ISZERO PUSH1 0xA0 DUP4 ADD MSTORE MLOAD ISZERO ISZERO PUSH1 0xC0 DUP3 ADD MSTORE RETURN JUMPDEST CALLVALUE PUSH2 0x2A9 JUMPI PUSH1 0x40 CALLDATASIZE PUSH1 0x3 NOT ADD SLT PUSH2 0x2A9 JUMPI PUSH2 0xB2B PUSH2 0x2106 JUMP JUMPDEST PUSH1 0x4 CALLDATALOAD PUSH1 0x0 MSTORE PUSH1 0x0 PUSH1 0x20 MSTORE PUSH1 0x40 PUSH1 0x0 KECCAK256 SWAP1 PUSH1 0x1 DUP1 PUSH1 0xA0 SHL SUB AND PUSH1 0x0 MSTORE PUSH1 0x20 MSTORE PUSH1 0x20 PUSH1 0xFF PUSH1 0x40 PUSH1 0x0 KECCAK256 SLOAD AND PUSH1 0x40 MLOAD SWAP1 ISZERO ISZERO DUP2 MSTORE RETURN JUMPDEST CALLVALUE PUSH2 0x2A9 JUMPI PUSH1 0x0 CALLDATASIZE PUSH1 0x3 NOT ADD SLT PUSH2 0x2A9 JUMPI PUSH1 0x20 PUSH1 0x40 MLOAD PUSH32 0x92A9BFC44B11BDCB4CE1C7BB0F30145A060370F7684A9CF6C25518E577577269 DUP2 MSTORE RETURN JUMPDEST CALLVALUE PUSH2 0x2A9 JUMPI PUSH1 0x0 CALLDATASIZE PUSH1 0x3 NOT ADD SLT PUSH2 0x2A9 JUMPI PUSH2 0xBB3 PUSH2 0x21F8 JUMP JUMPDEST PUSH2 0xBBB PUSH2 0x2646 JUMP JUMPDEST PUSH1 0x1 PUSH1 0xFF NOT PUSH1 0x2 SLOAD AND OR PUSH1 0x2 SSTORE PUSH32 0x62E78CEA01BEE320CD4E420270B5EA74000D11B0C9F74754EBDBFC544B05A258 PUSH1 0x20 PUSH1 0x40 MLOAD CALLER DUP2 MSTORE LOG1 STOP JUMPDEST CALLVALUE PUSH2 0x2A9 JUMPI PUSH1 0x20 CALLDATASIZE PUSH1 0x3 NOT ADD SLT PUSH2 0x2A9 JUMPI PUSH1 0x20 PUSH2 0xC12 PUSH1 0x4 CALLDATALOAD PUSH2 0x28CB JUMP JUMPDEST PUSH1 0x40 MLOAD SWAP1 DUP2 MSTORE RETURN JUMPDEST CALLVALUE PUSH2 0x2A9 JUMPI PUSH1 0x0 CALLDATASIZE PUSH1 0x3 NOT ADD SLT PUSH2 0x2A9 JUMPI PUSH1 0x2 SLOAD PUSH1 0x40 MLOAD PUSH1 0x8 SWAP2 SWAP1 SWAP2 SHR PUSH1 0x1 PUSH1 0x1 PUSH1 0xA0 SHL SUB AND DUP2 MSTORE PUSH1 0x20 SWAP1 RETURN JUMPDEST CALLVALUE PUSH2 0x2A9 JUMPI PUSH2 0xC55 CALLDATASIZE PUSH2 0x2181 JUMP JUMPDEST SWAP1 PUSH1 0x0 MSTORE PUSH1 0xC PUSH1 0x20 MSTORE PUSH1 0x40 PUSH1 0x0 KECCAK256 DUP1 SLOAD DUP3 LT ISZERO PUSH2 0x2A9 JUMPI PUSH1 0x20 SWAP2 PUSH2 0xC78 SWAP2 PUSH2 0x2169 JUMP JUMPDEST SWAP1 SLOAD PUSH1 0x40 MLOAD SWAP2 PUSH1 0x3 SHL SHR DUP2 MSTORE RETURN JUMPDEST CALLVALUE PUSH2 0x2A9 JUMPI PUSH1 0x0 CALLDATASIZE PUSH1 0x3 NOT ADD SLT PUSH2 0x2A9 JUMPI PUSH1 0x20 PUSH1 0x5 SLOAD PUSH1 0x40 MLOAD SWAP1 DUP2 MSTORE RETURN JUMPDEST CALLVALUE PUSH2 0x2A9 JUMPI PUSH1 0x20 CALLDATASIZE PUSH1 0x3 NOT ADD SLT PUSH2 0x2A9 JUMPI PUSH2 0xCBD PUSH2 0x20F0 JUMP JUMPDEST PUSH2 0xCC5 PUSH2 0x21F8 JUMP JUMPDEST PUSH1 0x4 DUP1 SLOAD PUSH1 0x1 PUSH1 0x1 PUSH1 0xA0 SHL SUB NOT AND PUSH1 0x1 PUSH1 0x1 PUSH1 0xA0 SHL SUB SWAP3 SWAP1 SWAP3 AND SWAP2 SWAP1 SWAP2 OR SWAP1 SSTORE STOP JUMPDEST CALLVALUE PUSH2 0x2A9 JUMPI PUSH1 0x0 CALLDATASIZE PUSH1 0x3 NOT ADD SLT PUSH2 0x2A9 JUMPI PUSH1 0x4 SLOAD PUSH1 0x40 MLOAD PUSH1 0x1 PUSH1 0x1 PUSH1 0xA0 SHL SUB SWAP1 SWAP2 AND DUP2 MSTORE PUSH1 0x20 SWAP1 RETURN JUMPDEST CALLVALUE PUSH2 0x2A9 JUMPI PUSH1 0x0 CALLDATASIZE PUSH1 0x3 NOT ADD SLT PUSH2 0x2A9 JUMPI PUSH1 0x20 PUSH1 0xFF PUSH1 0x2 SLOAD AND PUSH1 0x40 MLOAD SWAP1 ISZERO ISZERO DUP2 MSTORE RETURN JUMPDEST CALLVALUE PUSH2 0x2A9 JUMPI PUSH1 0x20 CALLDATASIZE PUSH1 0x3 NOT ADD SLT PUSH2 0x2A9 JUMPI PUSH2 0x36A PUSH2 0xD4F PUSH2 0x20F0 JUMP JUMPDEST PUSH2 0xD57 PUSH2 0x21F8 JUMP JUMPDEST PUSH32 0x92A9BFC44B11BDCB4CE1C7BB0F30145A060370F7684A9CF6C25518E577577269 PUSH1 0x0 SWAP1 DUP2 MSTORE PUSH1 0x20 MSTORE PUSH32 0xB9AA941ADAEC809E6B0427677375AC0B3D84BA99295EC0BA010B381B51E94792 SLOAD PUSH2 0xDAB SWAP1 PUSH2 0x2250 JUMP JUMPDEST PUSH2 0x2276 JUMP JUMPDEST CALLVALUE PUSH2 0x2A9 JUMPI PUSH1 0x40 CALLDATASIZE PUSH1 0x3 NOT ADD SLT PUSH2 0x2A9 JUMPI PUSH1 0x4 CALLDATALOAD PUSH1 0x24 CALLDATALOAD PUSH8 0xFFFFFFFFFFFFFFFF DUP2 GT PUSH2 0x2A9 JUMPI PUSH2 0xDE4 SWAP1 CALLDATASIZE SWAP1 PUSH1 0x4 ADD PUSH2 0x21B3 JUMP JUMPDEST SWAP2 SWAP1 DUP2 ISZERO ISZERO DUP1 PUSH2 0xFA4 JUMPI JUMPDEST PUSH2 0xDF8 SWAP1 PUSH2 0x26F5 JUMP JUMPDEST CALLER PUSH1 0x0 MSTORE PUSH1 0x20 SWAP1 PUSH1 0x9 DUP3 MSTORE PUSH2 0xE17 PUSH1 0xFF PUSH1 0x5 PUSH1 0x40 PUSH1 0x0 KECCAK256 ADD SLOAD AND PUSH2 0x2741 JUMP JUMPDEST CALLER PUSH1 0x0 MSTORE PUSH1 0x9 DUP3 MSTORE PUSH2 0xE37 PUSH1 0xFF PUSH1 0x5 PUSH1 0x40 PUSH1 0x0 KECCAK256 ADD SLOAD PUSH1 0x8 SHR AND ISZERO PUSH2 0x278D JUMP JUMPDEST CALLER PUSH1 0x0 MSTORE PUSH1 0x9 DUP3 MSTORE PUSH1 0x4 PUSH1 0x1 PUSH1 0x40 PUSH1 0x0 KECCAK256 ADD SLOAD DUP4 PUSH1 0x1 DUP1 PUSH1 0xA0 SHL SUB PUSH1 0x2 SLOAD PUSH1 0x8 SHR AND PUSH1 0x40 MLOAD SWAP4 DUP5 DUP1 SWAP3 PUSH4 0x63B36CC3 PUSH1 0xE1 SHL DUP3 MSTORE GAS STATICCALL SWAP2 DUP3 ISZERO PUSH2 0x3E7 JUMPI PUSH1 0x0 SWAP3 PUSH2 0xF53 JUMPI JUMPDEST POP PUSH32 0x5D7B755F33872C8C5FE6E178F7B9E167E0AA5F0407495210E7E0C8835A21CADB SWAP4 PUSH2 0xEB0 PUSH2 0xF4A SWAP5 SWAP4 PUSH1 0x9 SWAP4 LT ISZERO PUSH2 0x2556 JUMP JUMPDEST PUSH2 0xEB8 PUSH2 0x2664 JUMP JUMPDEST PUSH2 0xEC0 PUSH2 0x2646 JUMP JUMPDEST DUP6 PUSH1 0x0 MSTORE PUSH1 0x6 DUP2 MSTORE PUSH2 0xEDD PUSH1 0xFF PUSH1 0x8 PUSH1 0x40 PUSH1 0x0 KECCAK256 ADD SLOAD AND ISZERO PUSH2 0x27D8 JUMP JUMPDEST DUP6 PUSH1 0x0 MSTORE PUSH1 0x8 DUP2 MSTORE PUSH1 0x40 PUSH1 0x0 KECCAK256 CALLER PUSH1 0x0 MSTORE DUP2 MSTORE PUSH2 0xF02 PUSH1 0xFF PUSH1 0x40 PUSH1 0x0 KECCAK256 SLOAD AND ISZERO PUSH2 0x2824 JUMP JUMPDEST DUP6 PUSH1 0x0 MSTORE PUSH1 0x8 DUP2 MSTORE PUSH1 0x40 PUSH1 0x0 KECCAK256 CALLER PUSH1 0x0 MSTORE DUP2 MSTORE PUSH1 0x40 PUSH1 0x0 KECCAK256 PUSH1 0x1 PUSH1 0xFF NOT DUP3 SLOAD AND OR SWAP1 SSTORE MSTORE PUSH1 0x3 PUSH1 0x40 PUSH1 0x0 KECCAK256 ADD PUSH2 0xF38 DUP2 SLOAD PUSH2 0x26DA JUMP JUMPDEST SWAP1 SSTORE PUSH1 0x40 MLOAD SWAP2 DUP3 SWAP2 CALLER SWAP7 TIMESTAMP SWAP2 DUP5 PUSH2 0x2870 JUMP JUMPDEST SUB SWAP1 LOG3 PUSH1 0x1 DUP1 SSTORE STOP JUMPDEST SWAP3 SWAP2 POP DUP4 DUP4 DUP2 RETURNDATASIZE DUP4 GT PUSH2 0xF9D JUMPI JUMPDEST PUSH2 0xF6B DUP2 DUP4 PUSH2 0x2534 JUMP JUMPDEST DUP2 ADD SUB SLT PUSH2 0x2A9 JUMPI SWAP2 MLOAD SWAP1 SWAP2 PUSH32 0x5D7B755F33872C8C5FE6E178F7B9E167E0AA5F0407495210E7E0C8835A21CADB PUSH2 0xE7B JUMP JUMPDEST POP RETURNDATASIZE PUSH2 0xF61 JUMP JUMPDEST POP PUSH1 0x5 SLOAD DUP3 LT PUSH2 0xDEF JUMP JUMPDEST CALLVALUE PUSH2 0x2A9 JUMPI PUSH2 0xFBD CALLDATASIZE PUSH2 0x2181 JUMP JUMPDEST SWAP1 DUP1 ISZERO ISZERO DUP1 PUSH2 0x12C3 JUMPI JUMPDEST PUSH2 0xFD0 SWAP1 PUSH2 0x26F5 JUMP JUMPDEST CALLER PUSH1 0x0 MSTORE PUSH1 0x20 SWAP2 PUSH1 0x9 DUP4 MSTORE PUSH2 0xFEF PUSH1 0xFF PUSH1 0x5 PUSH1 0x40 PUSH1 0x0 KECCAK256 ADD SLOAD AND PUSH2 0x2741 JUMP JUMPDEST CALLER PUSH1 0x0 MSTORE PUSH1 0x9 DUP4 MSTORE PUSH2 0x100F PUSH1 0xFF PUSH1 0x5 PUSH1 0x40 PUSH1 0x0 KECCAK256 ADD SLOAD PUSH1 0x8 SHR AND ISZERO PUSH2 0x278D JUMP JUMPDEST CALLER PUSH1 0x0 MSTORE PUSH1 0x9 DUP4 MSTORE PUSH1 0x1 SWAP3 DUP4 PUSH1 0x40 PUSH1 0x0 KECCAK256 ADD SLOAD SWAP1 PUSH1 0x4 PUSH1 0x1 DUP1 PUSH1 0xA0 SHL SUB SWAP3 DUP3 DUP5 PUSH1 0x2 SLOAD PUSH1 0x8 SHR AND PUSH1 0x40 MLOAD SWAP4 DUP5 DUP1 SWAP3 PUSH4 0x63B36CC3 PUSH1 0xE1 SHL DUP3 MSTORE GAS STATICCALL SWAP1 DUP2 ISZERO PUSH2 0x3E7 JUMPI PUSH1 0x0 SWAP2 PUSH2 0x1292 JUMPI JUMPDEST PUSH2 0x1064 SWAP3 POP LT ISZERO PUSH2 0x2556 JUMP JUMPDEST PUSH2 0x106C PUSH2 0x2664 JUMP JUMPDEST PUSH2 0x1074 PUSH2 0x2646 JUMP JUMPDEST DUP4 PUSH1 0x0 MSTORE PUSH1 0x6 DUP2 MSTORE PUSH1 0x40 PUSH1 0x0 KECCAK256 SWAP3 PUSH2 0x1093 PUSH1 0xFF PUSH1 0x8 DUP7 ADD SLOAD AND ISZERO PUSH2 0x27D8 JUMP JUMPDEST PUSH1 0x3 DUP5 ADD SLOAD TIMESTAMP GT PUSH2 0x124D JUMPI DUP5 PUSH1 0x0 MSTORE PUSH1 0x8 DUP3 MSTORE PUSH1 0x40 PUSH1 0x0 KECCAK256 CALLER PUSH1 0x0 MSTORE DUP3 MSTORE PUSH2 0x10C3 PUSH1 0xFF PUSH1 0x40 PUSH1 0x0 KECCAK256 SLOAD AND ISZERO PUSH2 0x2824 JUMP JUMPDEST DUP1 ISZERO PUSH2 0x11FC JUMPI DUP5 PUSH1 0x0 MSTORE PUSH1 0x8 DUP3 MSTORE PUSH1 0x40 PUSH1 0x0 KECCAK256 CALLER PUSH1 0x0 MSTORE DUP3 MSTORE PUSH1 0x40 PUSH1 0x0 KECCAK256 DUP7 PUSH1 0xFF NOT DUP3 SLOAD AND OR SWAP1 SSTORE PUSH1 0x6 DUP5 ADD SWAP2 PUSH2 0x10FA DUP4 SLOAD PUSH2 0x26DA JUMP JUMPDEST DUP4 SSTORE DUP6 PUSH1 0x0 MSTORE PUSH1 0x7 DUP2 MSTORE PUSH1 0x40 PUSH1 0x0 KECCAK256 SWAP4 PUSH1 0x40 MLOAD SWAP5 PUSH2 0x1117 DUP7 PUSH2 0x24FC JUMP JUMPDEST CALLER DUP7 MSTORE DUP3 DUP7 ADD SWAP6 DUP5 DUP8 MSTORE PUSH1 0x40 DUP2 ADD SWAP2 TIMESTAMP DUP4 MSTORE PUSH1 0x60 DUP3 ADD SWAP1 DUP12 DUP3 MSTORE DUP1 SLOAD PUSH1 0x1 PUSH1 0x40 SHL DUP2 LT ISZERO PUSH2 0x59B JUMPI PUSH2 0x114D SWAP2 DUP14 DUP3 ADD DUP2 SSTORE PUSH2 0x2197 JUMP JUMPDEST SWAP4 SWAP1 SWAP4 PUSH2 0x11E6 JUMPI PUSH1 0x5 SWAP9 PUSH2 0x1197 SWAP6 PUSH1 0x3 SWAP5 MLOAD AND PUSH12 0xFFFFFFFFFFFFFFFFFFFFFFFF PUSH1 0xA0 SHL DUP7 SLOAD AND OR DUP6 SSTORE MLOAD DUP13 DUP6 ADD SSTORE MLOAD PUSH1 0x2 DUP5 ADD SSTORE MLOAD ISZERO ISZERO SWAP2 ADD SWAP1 PUSH1 0xFF DUP1 NOT DUP4 SLOAD AND SWAP2 ISZERO ISZERO AND OR SWAP1 SSTORE JUMP JUMPDEST PUSH1 0x40 MLOAD SWAP2 DUP3 MSTORE TIMESTAMP SWAP1 DUP3 ADD MSTORE DUP5 PUSH32 0xDC37948D08732ED33078677FC43276D929DE5BC1D96EDC08562D508C79ADC01C PUSH1 0x40 CALLER SWAP4 LOG3 SLOAD SWAP2 ADD SLOAD GT ISZERO PUSH2 0x11D8 JUMPI POP DUP1 SSTORE STOP JUMPDEST PUSH2 0x11E1 SWAP1 PUSH2 0x28CB JUMP JUMPDEST POP DUP1 SSTORE STOP JUMPDEST PUSH4 0x4E487B71 PUSH1 0xE0 SHL PUSH1 0x0 MSTORE PUSH1 0x0 PUSH1 0x4 MSTORE PUSH1 0x24 PUSH1 0x0 REVERT JUMPDEST PUSH1 0x40 MLOAD PUSH3 0x461BCD PUSH1 0xE5 SHL DUP2 MSTORE PUSH1 0x4 DUP2 ADD DUP4 SWAP1 MSTORE PUSH1 0x24 DUP1 DUP3 ADD MSTORE PUSH32 0x4665656450726F746F636F6C3A207072696365206D75737420626520706F7369 PUSH1 0x44 DUP3 ADD MSTORE PUSH4 0x74697665 PUSH1 0xE0 SHL PUSH1 0x64 DUP3 ADD MSTORE PUSH1 0x84 SWAP1 REVERT JUMPDEST PUSH1 0x40 MLOAD PUSH3 0x461BCD PUSH1 0xE5 SHL DUP2 MSTORE PUSH1 0x4 DUP2 ADD DUP4 SWAP1 MSTORE PUSH1 0x1D PUSH1 0x24 DUP3 ADD MSTORE PUSH32 0x4665656450726F746F636F6C3A20726571756573742065787069726564000000 PUSH1 0x44 DUP3 ADD MSTORE PUSH1 0x64 SWAP1 REVERT JUMPDEST SWAP1 POP DUP3 DUP3 DUP2 RETURNDATASIZE DUP4 GT PUSH2 0x12BC JUMPI JUMPDEST PUSH2 0x12A9 DUP2 DUP4 PUSH2 0x2534 JUMP JUMPDEST DUP2 ADD SUB SLT PUSH2 0x2A9 JUMPI PUSH2 0x1064 SWAP2 MLOAD SWAP1 PUSH2 0x1058 JUMP JUMPDEST POP RETURNDATASIZE PUSH2 0x129F JUMP JUMPDEST POP PUSH1 0x5 SLOAD DUP2 LT PUSH2 0xFC7 JUMP JUMPDEST CALLVALUE PUSH2 0x2A9 JUMPI PUSH1 0x0 CALLDATASIZE PUSH1 0x3 NOT ADD SLT PUSH2 0x2A9 JUMPI PUSH2 0x12E7 PUSH2 0x21F8 JUMP JUMPDEST PUSH1 0x2 SLOAD PUSH1 0xFF DUP2 AND ISZERO PUSH2 0x1326 JUMPI PUSH1 0xFF NOT AND PUSH1 0x2 SSTORE PUSH32 0x5DB9EE0A495BF2E6FF9C91A7834C1BA4FDD244A5E8AA4E537BD38AEAE4B073AA PUSH1 0x20 PUSH1 0x40 MLOAD CALLER DUP2 MSTORE LOG1 STOP JUMPDEST PUSH1 0x40 MLOAD PUSH4 0x8DFC202B PUSH1 0xE0 SHL DUP2 MSTORE PUSH1 0x4 SWAP1 REVERT JUMPDEST CALLVALUE PUSH2 0x2A9 JUMPI PUSH1 0x20 CALLDATASIZE PUSH1 0x3 NOT ADD SLT PUSH2 0x2A9 JUMPI PUSH1 0x4 CALLDATALOAD PUSH1 0x0 MSTORE PUSH1 0x6 PUSH1 0x20 MSTORE PUSH2 0x140 PUSH1 0x40 PUSH1 0x0 KECCAK256 DUP1 SLOAD SWAP1 PUSH1 0x1 DUP2 ADD SLOAD SWAP1 PUSH1 0x2 DUP2 ADD SLOAD PUSH1 0xFF DUP2 PUSH1 0x8 SHR AND PUSH1 0x3 DUP4 ADD SLOAD PUSH1 0x4 DUP5 ADD SLOAD SWAP1 PUSH1 0x5 DUP6 ADD SLOAD SWAP3 PUSH2 0x13B1 PUSH1 0x6 DUP8 ADD SLOAD SWAP6 PUSH1 0xFF PUSH1 0x8 PUSH1 0x7 DUP11 ADD SLOAD SWAP10 ADD SLOAD AND SWAP9 PUSH1 0x40 MLOAD SWAP11 DUP12 MSTORE PUSH1 0x20 DUP12 ADD MSTORE PUSH1 0xFF PUSH1 0x40 DUP12 ADD SWAP2 AND PUSH2 0x21E1 JUMP JUMPDEST PUSH2 0x13BA DUP2 PUSH2 0x21EE JUMP JUMPDEST PUSH1 0x60 DUP9 ADD MSTORE PUSH1 0x80 DUP8 ADD MSTORE PUSH1 0xA0 DUP7 ADD MSTORE PUSH1 0xC0 DUP6 ADD MSTORE PUSH1 0xE0 DUP5 ADD MSTORE PUSH2 0x100 DUP4 ADD MSTORE ISZERO ISZERO PUSH2 0x120 DUP3 ADD MSTORE RETURN JUMPDEST CALLVALUE PUSH2 0x2A9 JUMPI PUSH1 0x0 CALLDATASIZE PUSH1 0x3 NOT ADD SLT PUSH2 0x2A9 JUMPI PUSH1 0xA SLOAD PUSH1 0x0 DUP1 JUMPDEST DUP3 DUP2 LT PUSH2 0x15C9 JUMPI POP PUSH2 0x1425 PUSH2 0x140F DUP3 PUSH2 0x289F JUMP JUMPDEST SWAP2 PUSH2 0x141D PUSH1 0x40 MLOAD SWAP4 DUP5 PUSH2 0x2534 JUMP JUMPDEST DUP1 DUP4 MSTORE PUSH2 0x289F JUMP JUMPDEST PUSH1 0x20 SWAP3 DUP4 DUP4 ADD SWAP3 SWAP2 PUSH1 0x1F NOT ADD CALLDATASIZE DUP5 CALLDATACOPY PUSH1 0x0 DUP1 JUMPDEST DUP3 DUP2 LT PUSH2 0x148C JUMPI POP POP POP SWAP1 PUSH1 0x40 MLOAD SWAP3 DUP4 SWAP3 DUP2 DUP5 ADD SWAP1 DUP3 DUP6 MSTORE MLOAD DUP1 SWAP2 MSTORE PUSH1 0x40 DUP5 ADD SWAP3 SWAP2 PUSH1 0x0 JUMPDEST DUP3 DUP2 LT PUSH2 0x146C JUMPI POP POP POP POP SUB SWAP1 RETURN JUMPDEST DUP4 MLOAD PUSH1 0x1 PUSH1 0x1 PUSH1 0xA0 SHL SUB AND DUP6 MSTORE DUP7 SWAP6 POP SWAP4 DUP2 ADD SWAP4 SWAP3 DUP2 ADD SWAP3 PUSH1 0x1 ADD PUSH2 0x145D JUMP JUMPDEST PUSH2 0x1495 DUP2 PUSH2 0x211C JUMP JUMPDEST PUSH1 0x1 DUP1 PUSH1 0xA0 SHL SUB DUP1 SWAP3 SLOAD PUSH1 0x3 SWAP3 DUP4 SHL SHR AND PUSH1 0x0 MSTORE PUSH1 0x9 DUP1 DUP10 MSTORE PUSH1 0xFF SWAP1 PUSH1 0x5 SWAP2 DUP1 DUP4 PUSH1 0x40 PUSH1 0x0 KECCAK256 ADD SLOAD AND SWAP3 DUP4 PUSH2 0x159A JUMPI JUMPDEST POP POP DUP2 PUSH2 0x1514 JUMPI JUMPDEST POP PUSH2 0x14E3 JUMPI JUMPDEST POP POP PUSH2 0x14DE SWAP1 PUSH2 0x26DA JUMP JUMPDEST PUSH2 0x1438 JUMP JUMPDEST SWAP3 PUSH2 0x150C SWAP2 DUP4 SWAP5 PUSH2 0x14F6 PUSH2 0x14DE SWAP6 PUSH2 0x211C JUMP JUMPDEST SWAP1 SLOAD SWAP2 SHL SHR AND PUSH2 0x1506 DUP3 DUP9 PUSH2 0x28B7 JUMP JUMPDEST MSTORE PUSH2 0x26DA JUMP JUMPDEST SWAP2 SWAP1 DUP8 PUSH2 0x14D3 JUMP JUMPDEST SWAP1 POP DUP3 PUSH2 0x1520 DUP6 PUSH2 0x211C JUMP JUMPDEST SWAP1 SLOAD SWAP1 DUP5 SHL SHR AND PUSH1 0x0 MSTORE DUP9 MSTORE PUSH1 0x4 PUSH1 0x1 PUSH1 0x40 PUSH1 0x0 KECCAK256 ADD SLOAD DUP10 DUP5 PUSH1 0x2 SLOAD PUSH1 0x8 SHR AND PUSH1 0x40 MLOAD SWAP4 DUP5 DUP1 SWAP3 PUSH4 0x63B36CC3 PUSH1 0xE1 SHL DUP3 MSTORE GAS STATICCALL SWAP2 DUP3 ISZERO PUSH2 0x3E7 JUMPI PUSH1 0x0 SWAP3 PUSH2 0x156B JUMPI JUMPDEST POP LT ISZERO DUP10 PUSH2 0x14CD JUMP JUMPDEST SWAP1 SWAP2 POP DUP10 DUP2 DUP2 RETURNDATASIZE DUP4 GT PUSH2 0x1593 JUMPI JUMPDEST PUSH2 0x1583 DUP2 DUP4 PUSH2 0x2534 JUMP JUMPDEST DUP2 ADD SUB SLT PUSH2 0x2A9 JUMPI MLOAD SWAP1 DUP11 PUSH2 0x1562 JUMP JUMPDEST POP RETURNDATASIZE PUSH2 0x1579 JUMP JUMPDEST SWAP1 SWAP2 SWAP3 POP DUP5 PUSH2 0x15A8 DUP8 PUSH2 0x211C JUMP JUMPDEST SWAP1 SLOAD SWAP1 DUP7 SHL SHR AND PUSH1 0x0 MSTORE DUP3 DUP12 MSTORE PUSH1 0x40 PUSH1 0x0 KECCAK256 ADD SLOAD PUSH1 0x8 SHR AND ISZERO SWAP1 DUP11 DUP1 PUSH2 0x14C5 JUMP JUMPDEST PUSH2 0x15D2 DUP2 PUSH2 0x211C JUMP JUMPDEST SWAP1 SLOAD PUSH1 0x3 SWAP2 DUP3 SHL SHR PUSH1 0x1 PUSH1 0x1 PUSH1 0xA0 SHL SUB SWAP1 DUP2 AND PUSH1 0x0 SWAP1 DUP2 MSTORE PUSH1 0x9 PUSH1 0x20 DUP2 DUP2 MSTORE PUSH1 0x40 SWAP1 SWAP3 KECCAK256 PUSH1 0x5 SWAP1 DUP2 ADD SLOAD PUSH1 0xFF SWAP1 DUP2 AND SWAP5 SWAP3 SWAP2 DUP6 PUSH2 0x16CB JUMPI JUMPDEST POP POP DUP4 PUSH2 0x163F JUMPI JUMPDEST POP POP POP SWAP1 POP PUSH2 0x162A JUMPI JUMPDEST PUSH2 0x1625 SWAP1 PUSH2 0x26DA JUMP JUMPDEST PUSH2 0x13FB JUMP JUMPDEST SWAP1 PUSH2 0x1637 PUSH2 0x1625 SWAP2 PUSH2 0x26DA JUMP JUMPDEST SWAP2 SWAP1 POP PUSH2 0x161C JUMP JUMPDEST SWAP2 SWAP4 DUP2 SWAP4 POP PUSH2 0x164D DUP7 PUSH2 0x211C JUMP JUMPDEST SWAP1 SLOAD SWAP2 SHL SHR AND PUSH1 0x0 MSTORE DUP3 MSTORE PUSH1 0x4 DUP3 PUSH1 0x1 PUSH1 0x40 PUSH1 0x0 KECCAK256 ADD SLOAD SWAP3 PUSH1 0x2 SLOAD PUSH1 0x8 SHR AND PUSH1 0x40 MLOAD SWAP3 DUP4 DUP1 SWAP3 PUSH4 0x63B36CC3 PUSH1 0xE1 SHL DUP3 MSTORE GAS STATICCALL SWAP3 DUP4 ISZERO PUSH2 0x3E7 JUMPI PUSH1 0x0 SWAP4 PUSH2 0x169B JUMPI JUMPDEST POP POP LT ISZERO DUP1 DUP6 DUP1 DUP1 PUSH2 0x1612 JUMP JUMPDEST SWAP1 DUP1 SWAP3 SWAP4 POP DUP2 RETURNDATASIZE DUP4 GT PUSH2 0x16C4 JUMPI JUMPDEST PUSH2 0x16B3 DUP2 DUP4 PUSH2 0x2534 JUMP JUMPDEST DUP2 ADD SUB SLT PUSH2 0x2A9 JUMPI MLOAD SWAP1 DUP6 DUP1 PUSH2 0x168E JUMP JUMPDEST POP RETURNDATASIZE PUSH2 0x16A9 JUMP JUMPDEST SWAP1 SWAP2 SWAP5 POP DUP3 PUSH2 0x16D9 DUP9 PUSH2 0x211C JUMP JUMPDEST SWAP1 SLOAD SWAP1 DUP9 SHL SHR AND PUSH1 0x0 MSTORE DUP5 DUP5 MSTORE PUSH1 0x40 PUSH1 0x0 KECCAK256 ADD SLOAD PUSH1 0x8 SHR AND ISZERO SWAP3 DUP9 DUP1 PUSH2 0x160A JUMP JUMPDEST CALLVALUE PUSH2 0x2A9 JUMPI PUSH1 0x40 CALLDATASIZE PUSH1 0x3 NOT ADD SLT PUSH2 0x2A9 JUMPI PUSH2 0x1713 PUSH2 0x2106 JUMP JUMPDEST CALLER PUSH1 0x1 PUSH1 0x1 PUSH1 0xA0 SHL SUB DUP3 AND SUB PUSH2 0x172F JUMPI PUSH2 0x36A SWAP1 PUSH1 0x4 CALLDATALOAD PUSH2 0x244E JUMP JUMPDEST PUSH1 0x40 MLOAD PUSH4 0x334BD919 PUSH1 0xE1 SHL DUP2 MSTORE PUSH1 0x4 SWAP1 REVERT JUMPDEST CALLVALUE PUSH2 0x2A9 JUMPI PUSH1 0x0 CALLDATASIZE PUSH1 0x3 NOT ADD SLT PUSH2 0x2A9 JUMPI PUSH1 0x3 SLOAD PUSH1 0x40 MLOAD PUSH1 0x1 PUSH1 0x1 PUSH1 0xA0 SHL SUB SWAP1 SWAP2 AND DUP2 MSTORE PUSH1 0x20 SWAP1 RETURN JUMPDEST CALLVALUE PUSH2 0x2A9 JUMPI PUSH1 0x40 CALLDATASIZE PUSH1 0x3 NOT ADD SLT PUSH2 0x2A9 JUMPI PUSH2 0x36A PUSH1 0x4 CALLDATALOAD PUSH2 0x1789 PUSH2 0x2106 JUMP JUMPDEST SWAP1 DUP1 PUSH1 0x0 MSTORE PUSH1 0x0 PUSH1 0x20 MSTORE PUSH2 0x17A4 PUSH1 0x1 PUSH1 0x40 PUSH1 0x0 KECCAK256 ADD SLOAD PUSH2 0x2250 JUMP JUMPDEST PUSH2 0x23D5 JUMP JUMPDEST CALLVALUE PUSH2 0x2A9 JUMPI PUSH1 0x40 CALLDATASIZE PUSH1 0x3 NOT ADD SLT PUSH2 0x2A9 JUMPI PUSH2 0x17C2 PUSH2 0x20F0 JUMP JUMPDEST PUSH1 0x24 CALLDATALOAD PUSH8 0xFFFFFFFFFFFFFFFF DUP2 GT PUSH2 0x2A9 JUMPI PUSH2 0x17E2 SWAP1 CALLDATASIZE SWAP1 PUSH1 0x4 ADD PUSH2 0x21B3 JUMP JUMPDEST CALLER PUSH1 0x0 SWAP1 DUP2 MSTORE PUSH32 0xA0CFC50BE65892217A92EAB74D4B8DCA267A17D5B74F05A4A7CDEE0906A51FAF PUSH1 0x20 MSTORE PUSH1 0x40 SWAP1 KECCAK256 SLOAD SWAP1 SWAP3 SWAP2 SWAP1 PUSH1 0xFF AND ISZERO PUSH2 0x187C JUMPI PUSH32 0xA172CC290B2E00BC2A34C06A4D70CD942037859CCA624F051CD830B4B268EAC5 SWAP2 PUSH1 0x1 DUP1 PUSH1 0xA0 SHL SUB AND SWAP3 DUP4 PUSH1 0x0 MSTORE PUSH1 0x9 PUSH1 0x20 MSTORE PUSH1 0x5 PUSH1 0x40 PUSH1 0x0 KECCAK256 ADD PUSH2 0x100 PUSH2 0xFFFF NOT DUP3 SLOAD AND OR SWAP1 SSTORE PUSH2 0x1877 PUSH1 0x40 MLOAD SWAP3 DUP4 SWAP3 TIMESTAMP SWAP2 DUP5 PUSH2 0x2870 JUMP JUMPDEST SUB SWAP1 LOG2 STOP JUMPDEST PUSH1 0x40 MLOAD PUSH3 0x461BCD PUSH1 0xE5 SHL DUP2 MSTORE PUSH1 0x20 PUSH1 0x4 DUP3 ADD MSTORE PUSH1 0x1A PUSH1 0x24 DUP3 ADD MSTORE PUSH32 0x4665656450726F746F636F6C3A206E6F74206F70657261746F72000000000000 PUSH1 0x44 DUP3 ADD MSTORE PUSH1 0x64 SWAP1 REVERT JUMPDEST CALLVALUE PUSH2 0x2A9 JUMPI PUSH1 0x0 CALLDATASIZE PUSH1 0x3 NOT ADD SLT PUSH2 0x2A9 JUMPI PUSH1 0x20 PUSH1 0x40 MLOAD PUSH32 0x70B284DA8BFC3DE812DAA2261B4C3FFADD90C2C772295293D09C9629A737A0CD DUP2 MSTORE RETURN JUMPDEST CALLVALUE PUSH2 0x2A9 JUMPI PUSH1 0x20 DUP1 PUSH1 0x3 NOT CALLDATASIZE ADD SLT PUSH2 0x2A9 JUMPI PUSH1 0x4 CALLDATALOAD PUSH2 0x1919 PUSH2 0x2664 JUMP JUMPDEST PUSH2 0x1921 PUSH2 0x2646 JUMP JUMPDEST CALLER PUSH1 0x0 MSTORE PUSH1 0x9 DUP3 MSTORE PUSH1 0x40 PUSH1 0x0 KECCAK256 SWAP2 PUSH1 0x1 DUP4 ADD SWAP3 DUP4 SLOAD SWAP4 PUSH2 0x1943 DUP5 DUP7 LT ISZERO PUSH2 0x2556 JUMP JUMPDEST PUSH2 0x194D DUP5 DUP7 PUSH2 0x2694 JUMP JUMPDEST PUSH1 0x2 SLOAD PUSH1 0x40 MLOAD PUSH4 0x63B36CC3 PUSH1 0xE1 SHL DUP2 MSTORE PUSH1 0x1 PUSH1 0x1 PUSH1 0xA0 SHL SUB SWAP6 SWAP3 SWAP1 SWAP2 DUP4 SWAP1 DUP4 SWAP1 PUSH1 0x4 SWAP1 DUP3 SWAP1 PUSH1 0x8 SHR DUP11 AND GAS STATICCALL SWAP2 DUP3 ISZERO PUSH2 0x3E7 JUMPI PUSH1 0x0 SWAP3 PUSH2 0x1A3C JUMPI JUMPDEST POP LT DUP1 ISZERO SWAP1 PUSH2 0x1A33 JUMPI JUMPDEST ISZERO PUSH2 0x19D1 JUMPI POP PUSH2 0x19A5 DUP5 PUSH2 0x19BA SWAP7 PUSH2 0x2694 JUMP JUMPDEST DUP1 SWAP2 SSTORE ISZERO PUSH2 0x19C0 JUMPI JUMPDEST POP CALLER SWAP1 PUSH1 0x3 SLOAD AND PUSH2 0x26A1 JUMP JUMPDEST PUSH1 0x1 DUP1 SSTORE STOP JUMPDEST PUSH1 0x5 ADD DUP1 SLOAD PUSH1 0xFF NOT AND SWAP1 SSTORE DUP4 PUSH2 0x19AE JUMP JUMPDEST PUSH1 0x84 SWAP1 PUSH1 0x40 MLOAD SWAP1 PUSH3 0x461BCD PUSH1 0xE5 SHL DUP3 MSTORE PUSH1 0x4 DUP3 ADD MSTORE PUSH1 0x35 PUSH1 0x24 DUP3 ADD MSTORE PUSH32 0x4665656450726F746F636F6C3A206D757374206D61696E7461696E206D696E20 PUSH1 0x44 DUP3 ADD MSTORE PUSH21 0x1CDD185AD9481BDC881DDA5D1A191C985DC8185B1B PUSH1 0x5A SHL PUSH1 0x64 DUP3 ADD MSTORE REVERT JUMPDEST POP DUP6 DUP6 EQ PUSH2 0x1992 JUMP JUMPDEST SWAP1 SWAP2 POP DUP3 DUP2 DUP2 RETURNDATASIZE DUP4 GT PUSH2 0x1A64 JUMPI JUMPDEST PUSH2 0x1A54 DUP2 DUP4 PUSH2 0x2534 JUMP JUMPDEST DUP2 ADD SUB SLT PUSH2 0x2A9 JUMPI MLOAD SWAP1 DUP9 PUSH2 0x1988 JUMP JUMPDEST POP RETURNDATASIZE PUSH2 0x1A4A JUMP JUMPDEST CALLVALUE PUSH2 0x2A9 JUMPI PUSH1 0x20 CALLDATASIZE PUSH1 0x3 NOT ADD SLT PUSH2 0x2A9 JUMPI PUSH1 0x4 CALLDATALOAD PUSH1 0x0 MSTORE PUSH1 0x0 PUSH1 0x20 MSTORE PUSH1 0x20 PUSH1 0x1 PUSH1 0x40 PUSH1 0x0 KECCAK256 ADD SLOAD PUSH1 0x40 MLOAD SWAP1 DUP2 MSTORE RETURN JUMPDEST CALLVALUE PUSH2 0x2A9 JUMPI PUSH1 0x20 CALLDATASIZE PUSH1 0x3 NOT ADD SLT PUSH2 0x2A9 JUMPI PUSH2 0x1AB3 PUSH2 0x20F0 JUMP JUMPDEST PUSH2 0x1ABB PUSH2 0x21F8 JUMP JUMPDEST PUSH1 0x2 DUP1 SLOAD PUSH2 0x100 PUSH1 0x1 PUSH1 0xA8 SHL SUB NOT AND PUSH1 0x8 SWAP3 SWAP1 SWAP3 SHL PUSH2 0x100 PUSH1 0x1 PUSH1 0xA8 SHL SUB AND SWAP2 SWAP1 SWAP2 OR SWAP1 SSTORE STOP JUMPDEST CALLVALUE PUSH2 0x2A9 JUMPI PUSH1 0x20 DUP1 PUSH1 0x3 NOT CALLDATASIZE ADD SLT PUSH2 0x2A9 JUMPI PUSH1 0x4 CALLDATALOAD PUSH1 0x0 MSTORE PUSH1 0x7 DUP2 MSTORE PUSH1 0x40 PUSH1 0x0 KECCAK256 SWAP1 DUP2 SLOAD PUSH2 0x1B0F DUP2 PUSH2 0x289F JUMP JUMPDEST SWAP1 PUSH2 0x1B1D PUSH1 0x40 MLOAD SWAP3 DUP4 PUSH2 0x2534 JUMP JUMPDEST DUP1 DUP3 MSTORE DUP3 DUP3 ADD DUP1 SWAP5 PUSH1 0x0 MSTORE DUP4 PUSH1 0x0 KECCAK256 PUSH1 0x0 SWAP2 JUMPDEST DUP4 DUP4 LT PUSH2 0x1B9B JUMPI PUSH1 0x40 DUP1 MLOAD DUP8 DUP2 MSTORE DUP7 MLOAD DUP2 DUP10 ADD DUP2 SWAP1 MSTORE DUP10 SWAP3 DUP3 ADD SWAP1 DUP10 PUSH1 0x0 JUMPDEST DUP3 DUP2 LT PUSH2 0x1B5C JUMPI DUP5 DUP5 SUB DUP6 RETURN JUMPDEST DUP6 MLOAD DUP1 MLOAD PUSH1 0x1 PUSH1 0x1 PUSH1 0xA0 SHL SUB AND DUP6 MSTORE DUP1 DUP4 ADD MLOAD DUP6 DUP5 ADD MSTORE PUSH1 0x40 DUP1 DUP3 ADD MLOAD SWAP1 DUP7 ADD MSTORE PUSH1 0x60 SWAP1 DUP2 ADD MLOAD ISZERO ISZERO SWAP1 DUP6 ADD MSTORE SWAP5 DUP2 ADD SWAP5 PUSH1 0x80 SWAP1 SWAP4 ADD SWAP3 PUSH1 0x1 ADD PUSH2 0x1B4F JUMP JUMPDEST PUSH1 0x4 DUP7 PUSH1 0x1 SWAP3 PUSH1 0x40 MLOAD PUSH2 0x1BAD DUP2 PUSH2 0x24FC JUMP JUMPDEST DUP5 DUP1 PUSH1 0xA0 SHL SUB DUP7 SLOAD AND DUP2 MSTORE DUP5 DUP7 ADD SLOAD DUP4 DUP3 ADD MSTORE PUSH1 0x2 DUP7 ADD SLOAD PUSH1 0x40 DUP3 ADD MSTORE PUSH1 0xFF PUSH1 0x3 DUP8 ADD SLOAD AND ISZERO ISZERO PUSH1 0x60 DUP3 ADD MSTORE DUP2 MSTORE ADD SWAP3 ADD SWAP3 ADD SWAP2 SWAP1 PUSH2 0x1B30 JUMP JUMPDEST CALLVALUE PUSH2 0x2A9 JUMPI PUSH2 0x1BF5 CALLDATASIZE PUSH2 0x2181 JUMP JUMPDEST SWAP1 PUSH1 0x0 MSTORE PUSH1 0x7 PUSH1 0x20 MSTORE PUSH1 0x40 PUSH1 0x0 KECCAK256 DUP1 SLOAD DUP3 LT ISZERO PUSH2 0x2A9 JUMPI PUSH1 0x80 SWAP2 PUSH2 0x1C18 SWAP2 PUSH2 0x2197 JUMP JUMPDEST POP PUSH1 0x1 DUP1 PUSH1 0xA0 SHL SUB DUP2 SLOAD AND SWAP1 PUSH1 0x1 DUP2 ADD SLOAD SWAP1 PUSH1 0xFF PUSH1 0x3 PUSH1 0x2 DUP4 ADD SLOAD SWAP3 ADD SLOAD AND SWAP2 PUSH1 0x40 MLOAD SWAP4 DUP5 MSTORE PUSH1 0x20 DUP5 ADD MSTORE PUSH1 0x40 DUP4 ADD MSTORE ISZERO ISZERO PUSH1 0x60 DUP3 ADD MSTORE RETURN JUMPDEST CALLVALUE PUSH2 0x2A9 JUMPI PUSH1 0x20 CALLDATASIZE PUSH1 0x3 NOT ADD SLT PUSH2 0x2A9 JUMPI PUSH1 0x4 CALLDATALOAD PUSH1 0xA SLOAD DUP2 LT ISZERO PUSH2 0x2A9 JUMPI PUSH2 0x1C7A PUSH1 0x20 SWAP2 PUSH2 0x211C JUMP JUMPDEST SWAP1 SLOAD PUSH1 0x40 MLOAD PUSH1 0x3 SWAP3 SWAP1 SWAP3 SHL SHR PUSH1 0x1 PUSH1 0x1 PUSH1 0xA0 SHL SUB AND DUP2 MSTORE RETURN JUMPDEST CALLVALUE PUSH2 0x2A9 JUMPI PUSH1 0x20 CALLDATASIZE PUSH1 0x3 NOT ADD SLT PUSH2 0x2A9 JUMPI PUSH1 0xE0 PUSH1 0x1 PUSH1 0x1 PUSH1 0xA0 SHL SUB DUP1 PUSH2 0x1CB7 PUSH2 0x20F0 JUMP JUMPDEST AND PUSH1 0x0 MSTORE PUSH1 0x9 PUSH1 0x20 MSTORE PUSH1 0xFF PUSH1 0x40 PUSH1 0x0 KECCAK256 SWAP2 DUP3 SLOAD AND SWAP2 PUSH1 0x1 DUP2 ADD SLOAD SWAP1 PUSH1 0x2 DUP2 ADD SLOAD PUSH1 0x3 DUP3 ADD SLOAD SWAP1 PUSH1 0x5 PUSH1 0x4 DUP5 ADD SLOAD SWAP4 ADD SLOAD SWAP4 PUSH1 0x40 MLOAD SWAP7 DUP8 MSTORE PUSH1 0x20 DUP8 ADD MSTORE PUSH1 0x40 DUP7 ADD MSTORE PUSH1 0x60 DUP6 ADD MSTORE PUSH1 0x80 DUP5 ADD MSTORE DUP2 DUP2 AND ISZERO ISZERO PUSH1 0xA0 DUP5 ADD MSTORE PUSH1 0x8 SHR AND ISZERO ISZERO PUSH1 0xC0 DUP3 ADD MSTORE RETURN JUMPDEST PUSH1 0x60 CALLDATASIZE PUSH1 0x3 NOT ADD SLT PUSH2 0x2A9 JUMPI PUSH1 0x4 CALLDATALOAD PUSH1 0x4 PUSH1 0x24 CALLDATALOAD LT ISZERO PUSH2 0x2A9 JUMPI PUSH1 0x44 CALLDATALOAD PUSH1 0x3 DUP2 LT ISZERO PUSH2 0x2A9 JUMPI CALLER PUSH1 0x0 SWAP1 DUP2 MSTORE PUSH32 0xBB186CC6582165753931A58FDAAC99B9482F9D63C76229808BD3AFC382E98215 PUSH1 0x20 MSTORE PUSH1 0x40 SWAP1 KECCAK256 SLOAD PUSH1 0xFF AND ISZERO PUSH2 0x200F JUMPI PUSH2 0x1D7E PUSH2 0x2664 JUMP JUMPDEST PUSH2 0x1D87 DUP2 PUSH2 0x21EE JUMP JUMPDEST DUP1 PUSH1 0x0 MSTORE PUSH1 0xB PUSH1 0x20 MSTORE PUSH1 0x40 PUSH1 0x0 KECCAK256 PUSH2 0x1DE9 PUSH1 0x3 PUSH1 0x40 MLOAD SWAP3 PUSH2 0x1DA7 DUP5 PUSH2 0x24C3 JUMP JUMPDEST PUSH1 0xFF DUP2 SLOAD DUP2 DUP2 AND DUP7 MSTORE PUSH1 0x8 SHR AND PUSH1 0x20 DUP6 ADD MSTORE PUSH1 0x1 DUP2 ADD SLOAD PUSH1 0x40 DUP6 ADD MSTORE PUSH1 0x2 DUP2 ADD SLOAD PUSH1 0x60 DUP6 ADD MSTORE ADD SLOAD DUP1 PUSH1 0x80 DUP5 ADD MSTORE PUSH1 0x1 DUP1 PUSH1 0xA0 SHL SUB PUSH1 0x3 SLOAD AND ADDRESS SWAP1 CALLER SWAP1 PUSH2 0x25A1 JUMP JUMPDEST PUSH1 0x5 SLOAD SWAP2 PUSH2 0x1DF6 DUP4 PUSH2 0x26DA JUMP JUMPDEST PUSH1 0x5 SSTORE PUSH2 0x708 TIMESTAMP ADD SWAP2 DUP3 TIMESTAMP GT PUSH2 0x1FF9 JUMPI MLOAD PUSH1 0x40 MLOAD SWAP3 SWAP1 PUSH1 0xFF AND PUSH2 0x1E18 DUP5 PUSH2 0x24DF JUMP JUMPDEST DUP5 DUP5 MSTORE PUSH1 0x20 DUP5 ADD SWAP3 DUP7 DUP5 MSTORE PUSH1 0x40 DUP6 ADD SWAP5 PUSH2 0x1E34 PUSH1 0x24 CALLDATALOAD DUP8 PUSH2 0x26E9 JUMP JUMPDEST PUSH1 0x60 DUP2 ADD SWAP2 PUSH2 0x1E42 DUP2 PUSH2 0x21EE JUMP JUMPDEST DUP3 MSTORE PUSH1 0x80 DUP2 ADD SWAP4 DUP5 MSTORE PUSH1 0xA0 DUP2 ADD SWAP3 TIMESTAMP DUP5 MSTORE PUSH1 0xC0 DUP3 ADD SWAP1 DUP2 MSTORE PUSH1 0xE0 DUP3 ADD SWAP1 PUSH1 0x0 DUP3 MSTORE PUSH1 0x0 PUSH2 0x100 DUP5 ADD MSTORE PUSH2 0x120 DUP4 ADD SWAP5 PUSH1 0x0 DUP7 MSTORE DUP10 PUSH1 0x0 MSTORE PUSH1 0x6 PUSH1 0x20 MSTORE PUSH1 0x40 PUSH1 0x0 KECCAK256 SWAP8 DUP5 MLOAD DUP10 SSTORE MLOAD PUSH1 0x1 DUP10 ADD SSTORE PUSH1 0x2 DUP9 ADD SWAP9 MLOAD SWAP7 PUSH1 0x4 DUP9 LT ISZERO PUSH2 0x1FE3 JUMPI DUP10 PUSH1 0x8 SWAP9 PUSH2 0x100 SWAP8 PUSH1 0xFF PUSH2 0xFF00 PUSH2 0x1F08 SWAP15 SLOAD SWAP3 MLOAD PUSH2 0x1EBB DUP2 PUSH2 0x21EE JUMP JUMPDEST PUSH2 0x1EC4 DUP2 PUSH2 0x21EE JUMP JUMPDEST DUP14 SHL AND SWAP3 AND SWAP1 PUSH2 0xFFFF NOT AND OR OR SWAP1 SSTORE MLOAD PUSH1 0x3 DUP10 ADD SSTORE MLOAD PUSH1 0x4 DUP9 ADD SSTORE MLOAD PUSH1 0x5 DUP8 ADD SSTORE MLOAD PUSH1 0x6 DUP7 ADD SSTORE ADD MLOAD PUSH1 0x7 DUP5 ADD SSTORE MLOAD ISZERO ISZERO SWAP2 ADD SWAP1 PUSH1 0xFF DUP1 NOT DUP4 SLOAD AND SWAP2 ISZERO ISZERO AND OR SWAP1 SSTORE JUMP JUMPDEST DUP2 PUSH1 0x0 MSTORE PUSH1 0xC PUSH1 0x20 MSTORE PUSH1 0x40 PUSH1 0x0 KECCAK256 SWAP2 DUP3 SLOAD SWAP3 PUSH1 0x1 PUSH1 0x40 SHL DUP5 LT ISZERO PUSH2 0x59B JUMPI DUP4 PUSH2 0x1F38 SWAP2 PUSH1 0x1 PUSH1 0x20 SWAP7 ADD DUP2 SSTORE PUSH2 0x2169 JUMP JUMPDEST DUP2 SLOAD SWAP1 PUSH1 0x3 SHL SWAP1 DUP5 DUP3 SHL SWAP2 PUSH1 0x0 NOT SWAP1 SHL NOT AND OR SWAP1 SSTORE DUP2 PUSH32 0x615E8F1333715C833AEEA3803D6AA6F09D73C6DB60F9ED7D1DED1CEC09B48D9A PUSH2 0x1A0 PUSH1 0x40 MLOAD PUSH2 0x120 DUP2 MSTORE PUSH1 0x0 PUSH2 0x120 DUP3 ADD MSTORE PUSH1 0x0 PUSH2 0x140 DUP1 DUP10 DUP5 ADD MSTORE DUP3 ADD MSTORE PUSH1 0x0 PUSH2 0x160 DUP1 PUSH1 0x40 DUP5 ADD MSTORE DUP3 ADD MSTORE PUSH1 0x0 PUSH2 0x180 DUP1 PUSH1 0x60 DUP5 ADD MSTORE DUP3 ADD MSTORE PUSH2 0x1FBA PUSH1 0x80 DUP3 ADD PUSH1 0x24 CALLDATALOAD PUSH2 0x21E1 JUMP JUMPDEST PUSH1 0x0 PUSH1 0xA0 DUP3 ADD MSTORE PUSH1 0x0 PUSH1 0xC0 DUP3 ADD MSTORE PUSH1 0x0 PUSH1 0xE0 DUP3 ADD MSTORE TIMESTAMP PUSH2 0x100 DUP3 ADD MSTORE LOG3 PUSH1 0x1 DUP1 SSTORE PUSH1 0x40 MLOAD SWAP1 DUP2 MSTORE RETURN JUMPDEST PUSH4 0x4E487B71 PUSH1 0xE0 SHL PUSH1 0x0 MSTORE PUSH1 0x21 PUSH1 0x4 MSTORE PUSH1 0x24 PUSH1 0x0 REVERT JUMPDEST PUSH4 0x4E487B71 PUSH1 0xE0 SHL PUSH1 0x0 MSTORE PUSH1 0x11 PUSH1 0x4 MSTORE PUSH1 0x24 PUSH1 0x0 REVERT JUMPDEST PUSH1 0x40 MLOAD PUSH3 0x461BCD PUSH1 0xE5 SHL DUP2 MSTORE PUSH1 0x20 PUSH1 0x4 DUP3 ADD MSTORE PUSH1 0x25 PUSH1 0x24 DUP3 ADD MSTORE PUSH32 0x4665656450726F746F636F6C3A206E6F7420617574686F72697A65642070726F PUSH1 0x44 DUP3 ADD MSTORE PUSH5 0x1D1BD8DBDB PUSH1 0xDA SHL PUSH1 0x64 DUP3 ADD MSTORE PUSH1 0x84 SWAP1 REVERT JUMPDEST CALLVALUE PUSH2 0x2A9 JUMPI PUSH1 0x0 CALLDATASIZE PUSH1 0x3 NOT ADD SLT PUSH2 0x2A9 JUMPI PUSH1 0x20 PUSH1 0x40 MLOAD PUSH32 0xBA279271FB7BBF76A6F3DF3CC57BF80647FCAFDEA60EC3383D90F459DE74E7C0 DUP2 MSTORE RETURN JUMPDEST CALLVALUE PUSH2 0x2A9 JUMPI PUSH1 0x20 CALLDATASIZE PUSH1 0x3 NOT ADD SLT PUSH2 0x2A9 JUMPI PUSH1 0x4 CALLDATALOAD SWAP1 PUSH4 0xFFFFFFFF PUSH1 0xE0 SHL DUP3 AND DUP1 SWAP3 SUB PUSH2 0x2A9 JUMPI PUSH1 0x20 SWAP2 PUSH4 0x7965DB0B PUSH1 0xE0 SHL DUP2 EQ SWAP1 DUP2 ISZERO PUSH2 0x20DF JUMPI JUMPDEST POP ISZERO ISZERO DUP2 MSTORE RETURN JUMPDEST PUSH4 0x1FFC9A7 PUSH1 0xE0 SHL EQ SWAP1 POP DUP4 PUSH2 0x20D8 JUMP JUMPDEST PUSH1 0x4 CALLDATALOAD SWAP1 PUSH1 0x1 PUSH1 0x1 PUSH1 0xA0 SHL SUB DUP3 AND DUP3 SUB PUSH2 0x2A9 JUMPI JUMP JUMPDEST PUSH1 0x24 CALLDATALOAD SWAP1 PUSH1 0x1 PUSH1 0x1 PUSH1 0xA0 SHL SUB DUP3 AND DUP3 SUB PUSH2 0x2A9 JUMPI JUMP JUMPDEST PUSH1 0xA SLOAD DUP2 LT ISZERO PUSH2 0x2153 JUMPI PUSH1 0xA PUSH1 0x0 MSTORE PUSH32 0xC65A7BB8D6351C1CF70C95A316CC6A92839C986682D98BC35F958F4883F9D2A8 ADD SWAP1 PUSH1 0x0 SWAP1 JUMP JUMPDEST PUSH4 0x4E487B71 PUSH1 0xE0 SHL PUSH1 0x0 MSTORE PUSH1 0x32 PUSH1 0x4 MSTORE PUSH1 0x24 PUSH1 0x0 REVERT JUMPDEST DUP1 SLOAD DUP3 LT ISZERO PUSH2 0x2153 JUMPI PUSH1 0x0 MSTORE PUSH1 0x20 PUSH1 0x0 KECCAK256 ADD SWAP1 PUSH1 0x0 SWAP1 JUMP JUMPDEST PUSH1 0x40 SWAP1 PUSH1 0x3 NOT ADD SLT PUSH2 0x2A9 JUMPI PUSH1 0x4 CALLDATALOAD SWAP1 PUSH1 0x24 CALLDATALOAD SWAP1 JUMP JUMPDEST DUP1 SLOAD DUP3 LT ISZERO PUSH2 0x2153 JUMPI PUSH1 0x0 MSTORE PUSH1 0x20 PUSH1 0x0 KECCAK256 SWAP1 PUSH1 0x2 SHL ADD SWAP1 PUSH1 0x0 SWAP1 JUMP JUMPDEST SWAP2 DUP2 PUSH1 0x1F DUP5 ADD SLT ISZERO PUSH2 0x2A9 JUMPI DUP3 CALLDATALOAD SWAP2 PUSH8 0xFFFFFFFFFFFFFFFF DUP4 GT PUSH2 0x2A9 JUMPI PUSH1 0x20 DUP4 DUP2 DUP7 ADD SWAP6 ADD ADD GT PUSH2 0x2A9 JUMPI JUMP JUMPDEST SWAP1 PUSH1 0x4 DUP3 LT ISZERO PUSH2 0x1FE3 JUMPI MSTORE JUMP JUMPDEST PUSH1 0x3 GT ISZERO PUSH2 0x1FE3 JUMPI JUMP JUMPDEST CALLER PUSH1 0x0 SWAP1 DUP2 MSTORE PUSH32 0xAD3228B676F7D3CD4284A5443F17F1962B36E491B30A40B2405849E597BA5FB5 PUSH1 0x20 MSTORE PUSH1 0x40 DUP2 KECCAK256 SLOAD PUSH1 0xFF AND ISZERO PUSH2 0x2232 JUMPI POP JUMP JUMPDEST PUSH1 0x44 SWAP1 PUSH1 0x40 MLOAD SWAP1 PUSH4 0xE2517D3F PUSH1 0xE0 SHL DUP3 MSTORE CALLER PUSH1 0x4 DUP4 ADD MSTORE PUSH1 0x24 DUP3 ADD MSTORE REVERT JUMPDEST DUP1 PUSH1 0x0 MSTORE PUSH1 0x0 PUSH1 0x20 MSTORE PUSH1 0x40 PUSH1 0x0 KECCAK256 CALLER PUSH1 0x0 MSTORE PUSH1 0x20 MSTORE PUSH1 0xFF PUSH1 0x40 PUSH1 0x0 KECCAK256 SLOAD AND ISZERO PUSH2 0x2232 JUMPI POP JUMP JUMPDEST PUSH1 0x1 PUSH1 0x1 PUSH1 0xA0 SHL SUB AND PUSH1 0x0 DUP2 DUP2 MSTORE PUSH32 0xB9AA941ADAEC809E6B0427677375AC0B3D84BA99295EC0BA010B381B51E94791 PUSH1 0x20 MSTORE PUSH1 0x40 DUP2 KECCAK256 SLOAD SWAP1 SWAP2 SWAP1 PUSH32 0x92A9BFC44B11BDCB4CE1C7BB0F30145A060370F7684A9CF6C25518E577577269 SWAP1 PUSH1 0xFF AND PUSH2 0x2323 JUMPI DUP1 DUP4 MSTORE DUP3 PUSH1 0x20 MSTORE PUSH1 0x40 DUP4 KECCAK256 DUP3 DUP5 MSTORE PUSH1 0x20 MSTORE PUSH1 0x40 DUP4 KECCAK256 PUSH1 0x1 PUSH1 0xFF NOT DUP3 SLOAD AND OR SWAP1 SSTORE PUSH32 0x2F8788117E7EFF1D82E926EC794901D17C78024A50270940304540A733656F0D CALLER SWAP4 DUP1 LOG4 PUSH1 0x1 SWAP1 JUMP JUMPDEST POP POP SWAP1 JUMP JUMPDEST PUSH1 0x1 PUSH1 0x1 PUSH1 0xA0 SHL SUB AND PUSH1 0x0 DUP2 DUP2 MSTORE PUSH32 0xBB186CC6582165753931A58FDAAC99B9482F9D63C76229808BD3AFC382E98215 PUSH1 0x20 MSTORE PUSH1 0x40 DUP2 KECCAK256 SLOAD SWAP1 SWAP2 SWAP1 PUSH32 0xBA279271FB7BBF76A6F3DF3CC57BF80647FCAFDEA60EC3383D90F459DE74E7C0 SWAP1 PUSH1 0xFF AND PUSH2 0x2323 JUMPI DUP1 DUP4 MSTORE DUP3 PUSH1 0x20 MSTORE PUSH1 0x40 DUP4 KECCAK256 DUP3 DUP5 MSTORE PUSH1 0x20 MSTORE PUSH1 0x40 DUP4 KECCAK256 PUSH1 0x1 PUSH1 0xFF NOT DUP3 SLOAD AND OR SWAP1 SSTORE PUSH32 0x2F8788117E7EFF1D82E926EC794901D17C78024A50270940304540A733656F0D CALLER SWAP4 DUP1 LOG4 PUSH1 0x1 SWAP1 JUMP JUMPDEST SWAP1 PUSH1 0x0 SWAP2 DUP1 DUP4 MSTORE DUP3 PUSH1 0x20 MSTORE PUSH1 0x40 DUP4 KECCAK256 SWAP2 PUSH1 0x1 DUP1 PUSH1 0xA0 SHL SUB AND SWAP2 DUP3 DUP5 MSTORE PUSH1 0x20 MSTORE PUSH1 0xFF PUSH1 0x40 DUP5 KECCAK256 SLOAD AND ISZERO PUSH1 0x0 EQ PUSH2 0x2323 JUMPI DUP1 DUP4 MSTORE DUP3 PUSH1 0x20 MSTORE PUSH1 0x40 DUP4 KECCAK256 DUP3 DUP5 MSTORE PUSH1 0x20 MSTORE PUSH1 0x40 DUP4 KECCAK256 PUSH1 0x1 PUSH1 0xFF NOT DUP3 SLOAD AND OR SWAP1 SSTORE PUSH32 0x2F8788117E7EFF1D82E926EC794901D17C78024A50270940304540A733656F0D CALLER SWAP4 DUP1 LOG4 PUSH1 0x1 SWAP1 JUMP JUMPDEST SWAP1 PUSH1 0x0 SWAP2 DUP1 DUP4 MSTORE DUP3 PUSH1 0x20 MSTORE PUSH1 0x40 DUP4 KECCAK256 SWAP2 PUSH1 0x1 DUP1 PUSH1 0xA0 SHL SUB AND SWAP2 DUP3 DUP5 MSTORE PUSH1 0x20 MSTORE PUSH1 0xFF PUSH1 0x40 DUP5 KECCAK256 SLOAD AND PUSH1 0x0 EQ PUSH2 0x2323 JUMPI DUP1 DUP4 MSTORE DUP3 PUSH1 0x20 MSTORE PUSH1 0x40 DUP4 KECCAK256 DUP3 DUP5 MSTORE PUSH1 0x20 MSTORE PUSH1 0x40 DUP4 KECCAK256 PUSH1 0xFF NOT DUP2 SLOAD AND SWAP1 SSTORE PUSH32 0xF6391F5C32D9C69D2A47EA670B442974B53935D1EDC7FD64EB21E047A839171B CALLER SWAP4 DUP1 LOG4 PUSH1 0x1 SWAP1 JUMP JUMPDEST PUSH1 0xA0 DUP2 ADD SWAP1 DUP2 LT PUSH8 0xFFFFFFFFFFFFFFFF DUP3 GT OR PUSH2 0x59B JUMPI PUSH1 0x40 MSTORE JUMP JUMPDEST PUSH2 0x140 DUP2 ADD SWAP1 DUP2 LT PUSH8 0xFFFFFFFFFFFFFFFF DUP3 GT OR PUSH2 0x59B JUMPI PUSH1 0x40 MSTORE JUMP JUMPDEST PUSH1 0x80 DUP2 ADD SWAP1 DUP2 LT PUSH8 0xFFFFFFFFFFFFFFFF DUP3 GT OR PUSH2 0x59B JUMPI PUSH1 0x40 MSTORE JUMP JUMPDEST PUSH1 0xE0 DUP2 ADD SWAP1 DUP2 LT PUSH8 0xFFFFFFFFFFFFFFFF DUP3 GT OR PUSH2 0x59B JUMPI PUSH1 0x40 MSTORE JUMP JUMPDEST SWAP1 PUSH1 0x1F DUP1 NOT SWAP2 ADD AND DUP2 ADD SWAP1 DUP2 LT PUSH8 0xFFFFFFFFFFFFFFFF DUP3 GT OR PUSH2 0x59B JUMPI PUSH1 0x40 MSTORE JUMP JUMPDEST ISZERO PUSH2 0x255D JUMPI JUMP JUMPDEST PUSH1 0x64 PUSH1 0x40 MLOAD PUSH3 0x461BCD PUSH1 0xE5 SHL DUP2 MSTORE PUSH1 0x20 PUSH1 0x4 DUP3 ADD MSTORE PUSH1 0x20 PUSH1 0x24 DUP3 ADD MSTORE PUSH32 0x4665656450726F746F636F6C3A20696E73756666696369656E74207374616B65 PUSH1 0x44 DUP3 ADD MSTORE REVERT JUMPDEST PUSH1 0x40 MLOAD PUSH4 0x23B872DD PUSH1 0xE0 SHL PUSH1 0x20 DUP3 ADD MSTORE PUSH1 0x1 PUSH1 0x1 PUSH1 0xA0 SHL SUB SWAP3 DUP4 AND PUSH1 0x24 DUP3 ADD MSTORE SWAP3 SWAP1 SWAP2 AND PUSH1 0x44 DUP4 ADD MSTORE PUSH1 0x64 DUP1 DUP4 ADD SWAP4 SWAP1 SWAP4 MSTORE SWAP2 DUP2 MSTORE PUSH2 0x25E8 SWAP2 PUSH2 0x25E3 DUP3 PUSH2 0x24C3 JUMP JUMPDEST PUSH2 0x25EA JUMP JUMPDEST JUMP JUMPDEST SWAP1 PUSH1 0x0 PUSH1 0x20 SWAP2 DUP3 DUP2 MLOAD SWAP2 ADD DUP3 DUP6 GAS CALL ISZERO PUSH2 0x3E7 JUMPI PUSH1 0x0 MLOAD RETURNDATASIZE PUSH2 0x263D JUMPI POP PUSH1 0x1 PUSH1 0x1 PUSH1 0xA0 SHL SUB DUP2 AND EXTCODESIZE ISZERO JUMPDEST PUSH2 0x261B JUMPI POP JUMP JUMPDEST PUSH1 0x40 MLOAD PUSH4 0x5274AFE7 PUSH1 0xE0 SHL DUP2 MSTORE PUSH1 0x1 PUSH1 0x1 PUSH1 0xA0 SHL SUB SWAP1 SWAP2 AND PUSH1 0x4 DUP3 ADD MSTORE PUSH1 0x24 SWAP1 REVERT JUMPDEST PUSH1 0x1 EQ ISZERO PUSH2 0x2614 JUMP JUMPDEST PUSH1 0xFF PUSH1 0x2 SLOAD AND PUSH2 0x2652 JUMPI JUMP JUMPDEST PUSH1 0x40 MLOAD PUSH4 0xD93C0665 PUSH1 0xE0 SHL DUP2 MSTORE PUSH1 0x4 SWAP1 REVERT JUMPDEST PUSH1 0x2 PUSH1 0x1 SLOAD EQ PUSH2 0x2675 JUMPI PUSH1 0x2 PUSH1 0x1 SSTORE JUMP JUMPDEST PUSH1 0x40 MLOAD PUSH4 0x3EE5AEB5 PUSH1 0xE0 SHL DUP2 MSTORE PUSH1 0x4 SWAP1 REVERT JUMPDEST SWAP2 SWAP1 DUP3 ADD DUP1 SWAP3 GT PUSH2 0x1FF9 JUMPI JUMP JUMPDEST SWAP2 SWAP1 DUP3 SUB SWAP2 DUP3 GT PUSH2 0x1FF9 JUMPI JUMP JUMPDEST PUSH1 0x40 MLOAD PUSH4 0xA9059CBB PUSH1 0xE0 SHL PUSH1 0x20 DUP3 ADD MSTORE PUSH1 0x1 PUSH1 0x1 PUSH1 0xA0 SHL SUB SWAP1 SWAP3 AND PUSH1 0x24 DUP4 ADD MSTORE PUSH1 0x44 DUP1 DUP4 ADD SWAP4 SWAP1 SWAP4 MSTORE SWAP2 DUP2 MSTORE PUSH2 0x25E8 SWAP2 PUSH2 0x25E3 DUP3 PUSH2 0x24FC JUMP JUMPDEST PUSH1 0x0 NOT DUP2 EQ PUSH2 0x1FF9 JUMPI PUSH1 0x1 ADD SWAP1 JUMP JUMPDEST PUSH1 0x4 DUP3 LT ISZERO PUSH2 0x1FE3 JUMPI MSTORE JUMP JUMPDEST ISZERO PUSH2 0x26FC JUMPI JUMP JUMPDEST PUSH1 0x40 MLOAD PUSH3 0x461BCD PUSH1 0xE5 SHL DUP2 MSTORE PUSH1 0x20 PUSH1 0x4 DUP3 ADD MSTORE PUSH1 0x1D PUSH1 0x24 DUP3 ADD MSTORE PUSH32 0x4665656450726F746F636F6C3A20696E76616C69642072657175657374000000 PUSH1 0x44 DUP3 ADD MSTORE PUSH1 0x64 SWAP1 REVERT JUMPDEST ISZERO PUSH2 0x2748 JUMPI JUMP JUMPDEST PUSH1 0x40 MLOAD PUSH3 0x461BCD PUSH1 0xE5 SHL DUP2 MSTORE PUSH1 0x20 PUSH1 0x4 DUP3 ADD MSTORE PUSH1 0x1F PUSH1 0x24 DUP3 ADD MSTORE PUSH32 0x4665656450726F746F636F6C3A206E6F74206163746976652066656564657200 PUSH1 0x44 DUP3 ADD MSTORE PUSH1 0x64 SWAP1 REVERT JUMPDEST ISZERO PUSH2 0x2794 JUMPI JUMP JUMPDEST PUSH1 0x64 PUSH1 0x40 MLOAD PUSH3 0x461BCD PUSH1 0xE5 SHL DUP2 MSTORE PUSH1 0x20 PUSH1 0x4 DUP3 ADD MSTORE PUSH1 0x20 PUSH1 0x24 DUP3 ADD MSTORE PUSH32 0x4665656450726F746F636F6C3A2066656564657220626C61636B6C6973746564 PUSH1 0x44 DUP3 ADD MSTORE REVERT JUMPDEST ISZERO PUSH2 0x27DF JUMPI JUMP JUMPDEST PUSH1 0x40 MLOAD PUSH3 0x461BCD PUSH1 0xE5 SHL DUP2 MSTORE PUSH1 0x20 PUSH1 0x4 DUP3 ADD MSTORE PUSH1 0x1F PUSH1 0x24 DUP3 ADD MSTORE PUSH32 0x4665656450726F746F636F6C3A20616C72656164792066696E616C697A656400 PUSH1 0x44 DUP3 ADD MSTORE PUSH1 0x64 SWAP1 REVERT JUMPDEST ISZERO PUSH2 0x282B JUMPI JUMP JUMPDEST PUSH1 0x40 MLOAD PUSH3 0x461BCD PUSH1 0xE5 SHL DUP2 MSTORE PUSH1 0x20 PUSH1 0x4 DUP3 ADD MSTORE PUSH1 0x1F PUSH1 0x24 DUP3 ADD MSTORE PUSH32 0x4665656450726F746F636F6C3A20616C7265616479207375626D697474656400 PUSH1 0x44 DUP3 ADD MSTORE PUSH1 0x64 SWAP1 REVERT JUMPDEST SWAP4 SWAP3 SWAP2 DUP1 PUSH1 0x60 SWAP2 PUSH1 0x20 SWAP4 PUSH1 0x40 DUP9 MSTORE DUP2 PUSH1 0x40 DUP10 ADD MSTORE DUP4 DUP9 ADD CALLDATACOPY PUSH1 0x0 DUP3 DUP3 DUP9 ADD ADD MSTORE PUSH1 0x1F DUP1 NOT SWAP2 ADD AND DUP6 ADD ADD SWAP4 ADD MSTORE JUMP JUMPDEST PUSH8 0xFFFFFFFFFFFFFFFF DUP2 GT PUSH2 0x59B JUMPI PUSH1 0x5 SHL PUSH1 0x20 ADD SWAP1 JUMP JUMPDEST DUP1 MLOAD DUP3 LT ISZERO PUSH2 0x2153 JUMPI PUSH1 0x20 SWAP2 PUSH1 0x5 SHL ADD ADD SWAP1 JUMP JUMPDEST SWAP1 PUSH1 0x0 SWAP2 DUP1 DUP4 MSTORE PUSH1 0x6 PUSH1 0x20 MSTORE PUSH1 0x40 DUP4 KECCAK256 PUSH1 0x8 DUP2 ADD SLOAD SWAP3 PUSH1 0xFF SWAP4 PUSH2 0x28F0 DUP6 DUP3 AND ISZERO PUSH2 0x27D8 JUMP JUMPDEST DUP4 DUP7 MSTORE PUSH1 0x7 PUSH1 0x20 MSTORE PUSH1 0x40 DUP7 KECCAK256 SWAP4 DUP5 SLOAD SWAP6 DUP7 ISZERO PUSH2 0x2CE4 JUMPI PUSH2 0x290F DUP8 PUSH2 0x289F JUMP JUMPDEST SWAP6 PUSH2 0x291D PUSH1 0x40 MLOAD SWAP8 DUP9 PUSH2 0x2534 JUMP JUMPDEST DUP8 DUP8 MSTORE PUSH1 0x1F NOT PUSH2 0x292C DUP10 PUSH2 0x289F JUMP JUMPDEST ADD CALLDATASIZE PUSH1 0x20 DUP10 ADD CALLDATACOPY DUP9 SWAP8 DUP10 JUMPDEST DUP2 DUP2 LT PUSH2 0x2C7A JUMPI POP POP DUP8 ISZERO PUSH2 0x2C35 JUMPI SWAP4 SWAP2 DUP9 SWAP6 SWAP4 SWAP2 JUMPDEST PUSH1 0x0 NOT DUP10 ADD DUP10 DUP2 GT PUSH2 0x2C21 JUMPI DUP8 LT ISZERO PUSH2 0x2A30 JUMPI DUP10 JUMPDEST PUSH2 0x296C DUP9 DUP12 PUSH2 0x2694 JUMP JUMPDEST PUSH1 0x0 NOT DUP2 ADD SWAP1 DUP2 GT PUSH2 0x2A1C JUMPI DUP2 LT ISZERO PUSH2 0x29FF JUMPI PUSH2 0x2989 DUP2 DUP11 PUSH2 0x28B7 JUMP JUMPDEST MLOAD PUSH1 0x1 DUP3 ADD SWAP1 DUP2 DUP4 GT PUSH2 0x29EB JUMPI SWAP1 PUSH2 0x29B3 SWAP3 SWAP2 PUSH2 0x29A6 DUP3 DUP14 PUSH2 0x28B7 JUMP JUMPDEST MLOAD LT PUSH2 0x29B8 JUMPI JUMPDEST POP PUSH2 0x26DA JUMP JUMPDEST PUSH2 0x2962 JUMP JUMPDEST PUSH2 0x29E4 PUSH2 0x29C5 DUP4 DUP14 PUSH2 0x28B7 JUMP JUMPDEST MLOAD SWAP2 DUP13 PUSH2 0x29DD DUP6 PUSH2 0x29D6 DUP5 DUP5 PUSH2 0x28B7 JUMP JUMPDEST MLOAD SWAP3 PUSH2 0x28B7 JUMP JUMPDEST MSTORE DUP13 PUSH2 0x28B7 JUMP JUMPDEST MSTORE CODESIZE PUSH2 0x29AD JUMP JUMPDEST PUSH4 0x4E487B71 PUSH1 0xE0 SHL DUP14 MSTORE PUSH1 0x11 PUSH1 0x4 MSTORE PUSH1 0x24 DUP14 REVERT JUMPDEST POP SWAP2 SWAP4 SWAP6 PUSH2 0x2A10 SWAP1 SWAP6 SWAP2 SWAP4 SWAP6 PUSH2 0x26DA JUMP JUMPDEST SWAP6 SWAP4 SWAP2 SWAP5 SWAP3 SWAP1 SWAP5 PUSH2 0x294D JUMP JUMPDEST PUSH4 0x4E487B71 PUSH1 0xE0 SHL DUP13 MSTORE PUSH1 0x11 PUSH1 0x4 MSTORE PUSH1 0x24 DUP13 REVERT JUMPDEST SWAP6 POP SWAP6 SWAP8 SWAP2 SWAP8 SWAP7 SWAP4 SWAP3 SWAP1 SWAP7 PUSH1 0x1 SWAP5 DUP6 DUP1 DUP3 AND ISZERO PUSH1 0x0 EQ PUSH2 0x2C0A JUMPI SHR PUSH1 0x0 NOT DUP2 ADD DUP2 DUP2 GT PUSH2 0x2BF6 JUMPI DUP3 PUSH2 0x2A6C DUP9 SWAP4 PUSH2 0x29D6 PUSH2 0x2A73 SWAP5 PUSH1 0x8 SWAP8 PUSH2 0x28B7 JUMP JUMPDEST MLOAD SWAP1 PUSH2 0x2687 JUMP JUMPDEST DUP2 SHR SWAP9 JUMPDEST DUP10 PUSH1 0x7 DUP6 ADD SSTORE PUSH1 0xFF NOT AND OR SWAP2 ADD SSTORE DUP5 DUP2 MSTORE PUSH1 0x6 PUSH1 0x20 MSTORE PUSH1 0x2 SWAP2 DUP5 DUP4 PUSH1 0x40 DUP5 KECCAK256 ADD SLOAD PUSH1 0x8 SHR AND PUSH2 0x2AA5 DUP2 PUSH2 0x21EE JUMP JUMPDEST DUP3 MSTORE PUSH1 0xB PUSH1 0x20 MSTORE PUSH1 0x40 DUP3 KECCAK256 SWAP3 PUSH1 0x40 MLOAD PUSH2 0x2ABD DUP2 PUSH2 0x24C3 JUMP JUMPDEST DUP7 DUP6 SLOAD DUP2 DUP2 AND DUP4 MSTORE PUSH1 0x8 SHR AND PUSH1 0x20 DUP3 ADD MSTORE DUP6 DUP6 ADD SLOAD PUSH1 0x40 DUP3 ADD MSTORE DUP2 DUP6 ADD SLOAD SWAP1 DUP2 PUSH1 0x60 DUP3 ADD MSTORE PUSH1 0x80 PUSH1 0x3 DUP1 SWAP8 ADD SLOAD SWAP2 ADD MSTORE DUP3 SLOAD SWAP1 DUP2 ISZERO PUSH2 0x2BE2 JUMPI DIV SWAP1 DUP4 DUP7 JUMPDEST PUSH2 0x2B3A JUMPI JUMPDEST POP POP POP POP POP POP POP POP PUSH32 0x4DA0F440B42EE815C5B14CBF1A5CB712C4FCF1EE583CA8C97BDBBDF4A1E7BA1F PUSH1 0x40 DUP1 MLOAD DUP5 DUP2 MSTORE TIMESTAMP PUSH1 0x20 DUP3 ADD MSTORE LOG2 SWAP1 JUMP JUMPDEST DUP4 SLOAD DUP2 LT ISZERO PUSH2 0x2BDD JUMPI DUP1 DUP9 DUP8 PUSH2 0x2B53 PUSH2 0x2B60 SWAP5 DUP9 PUSH2 0x2197 JUMP JUMPDEST POP ADD SLOAD AND PUSH2 0x2B66 JUMPI PUSH2 0x26DA JUMP JUMPDEST DUP7 PUSH2 0x2AFB JUMP JUMPDEST PUSH2 0x2B70 DUP2 DUP7 PUSH2 0x2197 JUMP JUMPDEST POP SLOAD DUP8 SLOAD PUSH1 0x1 PUSH1 0x1 PUSH1 0xA0 SHL SUB SWAP2 DUP3 AND SWAP2 PUSH2 0x2B8E SWAP2 DUP8 SWAP2 DUP5 SWAP2 AND PUSH2 0x26A1 JUMP JUMPDEST DUP1 DUP8 MSTORE PUSH1 0x9 PUSH1 0x20 MSTORE DUP4 PUSH1 0x40 DUP9 KECCAK256 ADD PUSH2 0x2BA6 DUP2 SLOAD PUSH2 0x26DA JUMP JUMPDEST SWAP1 SSTORE DUP11 PUSH32 0x602AB809FA82D3A742A4F9A33CDD154988D8B0F578EE4DC91DE3DC412BF026B9 PUSH1 0x40 DUP1 MLOAD DUP9 DUP2 MSTORE TIMESTAMP PUSH1 0x20 DUP3 ADD MSTORE LOG3 PUSH2 0x26DA JUMP JUMPDEST PUSH2 0x2B00 JUMP JUMPDEST PUSH4 0x4E487B71 PUSH1 0xE0 SHL DUP6 MSTORE PUSH1 0x12 PUSH1 0x4 MSTORE PUSH1 0x24 DUP6 REVERT JUMPDEST PUSH4 0x4E487B71 PUSH1 0xE0 SHL DUP6 MSTORE PUSH1 0x11 PUSH1 0x4 MSTORE PUSH1 0x24 DUP6 REVERT JUMPDEST SWAP1 PUSH1 0x8 SWAP3 PUSH2 0x2C1A SWAP2 DUP4 SHR SWAP1 PUSH2 0x28B7 JUMP JUMPDEST MLOAD SWAP9 PUSH2 0x2A77 JUMP JUMPDEST PUSH4 0x4E487B71 PUSH1 0xE0 SHL DUP12 MSTORE PUSH1 0x11 PUSH1 0x4 MSTORE PUSH1 0x24 DUP12 REVERT JUMPDEST PUSH1 0x40 MLOAD PUSH3 0x461BCD PUSH1 0xE5 SHL DUP2 MSTORE PUSH1 0x20 PUSH1 0x4 DUP3 ADD MSTORE PUSH1 0x1D PUSH1 0x24 DUP3 ADD MSTORE PUSH32 0x4665656450726F746F636F6C3A206E6F2076616C696420707269636573000000 PUSH1 0x44 DUP3 ADD MSTORE PUSH1 0x64 SWAP1 REVERT JUMPDEST DUP4 PUSH1 0x3 PUSH2 0x2C87 DUP4 DUP7 PUSH2 0x2197 JUMP JUMPDEST POP ADD SLOAD AND DUP1 PUSH2 0x2CCD JUMPI JUMPDEST PUSH2 0x2CA4 JUMPI JUMPDEST PUSH2 0x2C9F SWAP1 PUSH2 0x26DA JUMP JUMPDEST PUSH2 0x2937 JUMP JUMPDEST SWAP9 PUSH2 0x2CC5 PUSH2 0x2C9F SWAP2 PUSH1 0x1 PUSH2 0x2CB8 DUP14 DUP8 PUSH2 0x2197 JUMP JUMPDEST POP ADD SLOAD PUSH2 0x1506 DUP3 DUP14 PUSH2 0x28B7 JUMP JUMPDEST SWAP10 SWAP1 POP PUSH2 0x2C96 JUMP JUMPDEST POP PUSH1 0x1 PUSH2 0x2CDA DUP3 DUP6 PUSH2 0x2197 JUMP JUMPDEST POP ADD SLOAD ISZERO ISZERO PUSH2 0x2C91 JUMP JUMPDEST PUSH1 0x40 MLOAD PUSH3 0x461BCD PUSH1 0xE5 SHL DUP2 MSTORE PUSH1 0x20 PUSH1 0x4 DUP3 ADD MSTORE PUSH1 0x1C PUSH1 0x24 DUP3 ADD MSTORE PUSH32 0x4665656450726F746F636F6C3A206E6F207375626D697373696F6E7300000000 PUSH1 0x44 DUP3 ADD MSTORE PUSH1 0x64 SWAP1 REVERT INVALID LOG2 PUSH5 0x6970667358 0x22 SLT KECCAK256 SLT DUP14 0xEB 0xBF PUSH0 SELFBALANCE 0xD1 PC 0x28 PUSH25 0xB99249CF640CA851933EBE33A122E7BFD32DA050F3A364736F PUSH13 0x634300081400332F8788117E7E SELFDESTRUCT SAR DUP3 0xE9 0x26 0xEC PUSH26 0x4901D17C78024A50270940304540A733656F0D00000000000000 "},"methodIdentifiers":{"DEFAULT_ADMIN_ROLE()":"a217fddf","FEED_OPERATOR_ROLE()":"2f0165ca","PROTOCOL_ROLE()":"02768de4","SENIOR_FEEDER_ROLE()":"8ec9f038","addStake(uint256)":"eb4f16b5","blacklistFeeder(address,string)":"2f0e6ca5","config()":"79502c55","createFeedRequest(uint256,uint8,uint8)":"04b86cb3","feedRequests(uint256)":"3bf5e3a9","feederList(uint256)":"121c604b","feederSelector()":"5cf72f54","feeders(address)":"0aa31661","finalizeFeed(uint256)":"82ae8f01","getActiveFeeders()":"3929fcd3","getFeedFee(uint8)":"e5695991","getFeedRequest(uint256)":"db18c189","getFeeder(address)":"9ba7646c","getFeederCount()":"ec5bfc6c","getOrderFeedRequests(uint256)":"f608463a","getRoleAdmin(bytes32)":"248a9ca3","getSubmissions(uint256)":"16c53ced","grantProtocolRole(address)":"c7c7b02f","grantRole(bytes32,address)":"2f2ff15d","grantSeniorFeederRole(address)":"46f53d1e","hasRole(bytes32,address)":"91d14854","hasSubmitted(uint256,address)":"a57d3806","nextRequestId()":"6a84a985","orderFeedRequests(uint256,uint256)":"75136ddc","pause()":"8456cb59","paused()":"5c975abb","registerFeeder(uint256)":"eb7bb5a7","rejectFeed(uint256,string)":"46b62703","renounceRole(bytes32,address)":"36568abe","requestSubmissions(uint256,uint256)":"15450ace","revokeRole(bytes32,address)":"d547741f","setConfig(address)":"20e3dbd4","setFeederSelector(address)":"5efd9508","submitFeed(uint256,uint256)":"3fe1ddd2","supportsInterface(bytes4)":"01ffc9a7","tierConfigs(uint8)":"9da9db2a","unpause()":"3f4ba83a","usdt()":"2f48ab7d","withdrawPlatformFees(address)":"ec3889b5","withdrawStake(uint256)":"25d5971f"}}}}}