{"contracts/feed/FeedProtocol.sol":{"FeedProtocol":{"abi":[{"inputs":[{"internalType":"address","name":"_config","type":"address"},{"internalType":"address","name":"_usdt","type":"address"},{"internalType":"address","name":"_admin","type":"address"}],"stateMutability":"nonpayable","type":"constructor"},{"inputs":[],"name":"AccessControlBadConfirmation","type":"error"},{"inputs":[{"internalType":"address","name":"account","type":"address"},{"internalType":"bytes32","name":"neededRole","type":"bytes32"}],"name":"AccessControlUnauthorizedAccount","type":"error"},{"inputs":[],"name":"EnforcedPause","type":"error"},{"inputs":[],"name":"ExpectedPause","type":"error"},{"inputs":[],"name":"ReentrancyGuardReentrantCall","type":"error"},{"inputs":[{"internalType":"address","name":"token","type":"address"}],"name":"SafeERC20FailedOperation","type":"error"},{"anonymous":false,"inputs":[{"indexed":true,"internalType":"uint256","name":"requestId","type":"uint256"},{"indexed":false,"internalType":"uint256","name":"finalPrice","type":"uint256"},{"indexed":false,"internalType":"uint256","name":"timestamp","type":"uint256"}],"name":"FeedFinalized","type":"event"},{"anonymous":false,"inputs":[{"indexed":true,"internalType":"uint256","name":"requestId","type":"uint256"},{"indexed":true,"internalType":"address","name":"feeder","type":"address"},{"indexed":false,"internalType":"string","name":"reason","type":"string"},{"indexed":false,"internalType":"uint256","name":"timestamp","type":"uint256"}],"name":"FeedRejected","type":"event"},{"anonymous":false,"inputs":[{"indexed":true,"internalType":"uint256","name":"requestId","type":"uint256"},{"indexed":true,"internalType":"uint256","name":"orderId","type":"uint256"},{"indexed":false,"internalType":"string","name":"underlyingName","type":"string"},{"indexed":false,"internalType":"string","name":"underlyingCode","type":"string"},{"indexed":false,"internalType":"string","name":"market","type":"string"},{"indexed":false,"internalType":"string","name":"country","type":"string"},{"indexed":false,"internalType":"enum FeedType","name":"feedType","type":"uint8"},{"indexed":false,"internalType":"enum LiquidationRule","name":"liquidationRule","type":"uint8"},{"indexed":false,"internalType":"uint8","name":"consecutiveDays","type":"uint8"},{"indexed":false,"internalType":"uint8","name":"exerciseDelay","type":"uint8"},{"indexed":false,"internalType":"uint256","name":"timestamp","type":"uint256"}],"name":"FeedRequested","type":"event"},{"anonymous":false,"inputs":[{"indexed":true,"internalType":"uint256","name":"requestId","type":"uint256"},{"indexed":true,"internalType":"address","name":"feeder","type":"address"},{"indexed":false,"internalType":"uint256","name":"price","type":"uint256"},{"indexed":false,"internalType":"uint256","name":"timestamp","type":"uint256"}],"name":"FeedSubmitted","type":"event"},{"anonymous":false,"inputs":[{"indexed":true,"internalType":"address","name":"feeder","type":"address"},{"indexed":false,"internalType":"string","name":"reason","type":"string"},{"indexed":false,"internalType":"uint256","name":"timestamp","type":"uint256"}],"name":"FeederBlacklisted","type":"event"},{"anonymous":false,"inputs":[{"indexed":true,"internalType":"address","name":"feeder","type":"address"},{"indexed":false,"internalType":"string","name":"reason","type":"string"},{"indexed":false,"internalType":"uint256","name":"timestamp","type":"uint256"}],"name":"FeederDeactivated","type":"event"},{"anonymous":false,"inputs":[{"indexed":true,"internalType":"address","name":"feeder","type":"address"},{"indexed":false,"internalType":"uint256","name":"stakedAmount","type":"uint256"},{"indexed":false,"internalType":"uint256","name":"timestamp","type":"uint256"}],"name":"FeederRegistered","type":"event"},{"anonymous":false,"inputs":[{"indexed":false,"internalType":"address","name":"account","type":"address"}],"name":"Paused","type":"event"},{"anonymous":false,"inputs":[{"indexed":true,"internalType":"uint256","name":"requestId","type":"uint256"},{"indexed":true,"internalType":"address","name":"feeder","type":"address"},{"indexed":false,"internalType":"uint256","name":"amount","type":"uint256"},{"indexed":false,"internalType":"uint256","name":"timestamp","type":"uint256"}],"name":"RewardDistributed","type":"event"},{"anonymous":false,"inputs":[{"indexed":true,"internalType":"bytes32","name":"role","type":"bytes32"},{"indexed":true,"internalType":"bytes32","name":"previousAdminRole","type":"bytes32"},{"indexed":true,"internalType":"bytes32","name":"newAdminRole","type":"bytes32"}],"name":"RoleAdminChanged","type":"event"},{"anonymous":false,"inputs":[{"indexed":true,"internalType":"bytes32","name":"role","type":"bytes32"},{"indexed":true,"internalType":"address","name":"account","type":"address"},{"indexed":true,"internalType":"address","name":"sender","type":"address"}],"name":"RoleGranted","type":"event"},{"anonymous":false,"inputs":[{"indexed":true,"internalType":"bytes32","name":"role","type":"bytes32"},{"indexed":true,"internalType":"address","name":"account","type":"address"},{"indexed":true,"internalType":"address","name":"sender","type":"address"}],"name":"RoleRevoked","type":"event"},{"anonymous":false,"inputs":[{"indexed":false,"internalType":"address","name":"account","type":"address"}],"name":"Unpaused","type":"event"},{"inputs":[],"name":"DEFAULT_ADMIN_ROLE","outputs":[{"internalType":"bytes32","name":"","type":"bytes32"}],"stateMutability":"view","type":"function"},{"inputs":[],"name":"FEED_OPERATOR_ROLE","outputs":[{"internalType":"bytes32","name":"","type":"bytes32"}],"stateMutability":"view","type":"function"},{"inputs":[],"name":"PROTOCOL_ROLE","outputs":[{"internalType":"bytes32","name":"","type":"bytes32"}],"stateMutability":"view","type":"function"},{"inputs":[],"name":"SENIOR_FEEDER_ROLE","outputs":[{"internalType":"bytes32","name":"","type":"bytes32"}],"stateMutability":"view","type":"function"},{"inputs":[{"internalType":"uint256","name":"amount","type":"uint256"}],"name":"addStake","outputs":[],"stateMutability":"nonpayable","type":"function"},{"inputs":[{"internalType":"address","name":"feeder","type":"address"},{"internalType":"string","name":"reason","type":"string"}],"name":"blacklistFeeder","outputs":[],"stateMutability":"nonpayable","type":"function"},{"inputs":[],"name":"config","outputs":[{"internalType":"contract Config","name":"","type":"address"}],"stateMutability":"view","type":"function"},{"inputs":[{"internalType":"uint256","name":"orderId","type":"uint256"},{"internalType":"enum FeedType","name":"feedType","type":"uint8"},{"internalType":"enum FeedTier","name":"tier","type":"uint8"}],"name":"createFeedRequest","outputs":[{"internalType":"uint256","name":"requestId","type":"uint256"}],"stateMutability":"payable","type":"function"},{"inputs":[{"internalType":"uint256","name":"","type":"uint256"}],"name":"feedRequests","outputs":[{"internalType":"uint256","name":"requestId","type":"uint256"},{"internalType":"uint256","name":"orderId","type":"uint256"},{"internalType":"enum FeedType","name":"feedType","type":"uint8"},{"internalType":"enum FeedTier","name":"tier","type":"uint8"},{"internalType":"uint256","name":"deadline","type":"uint256"},{"internalType":"uint256","name":"createdAt","type":"uint256"},{"internalType":"uint256","name":"totalFeeders","type":"uint256"},{"internalType":"uint256","name":"submittedCount","type":"uint256"},{"internalType":"uint256","name":"finalPrice","type":"uint256"},{"internalType":"bool","name":"finalized","type":"bool"}],"stateMutability":"view","type":"function"},{"inputs":[{"internalType":"uint256","name":"","type":"uint256"}],"name":"feederList","outputs":[{"internalType":"address","name":"","type":"address"}],"stateMutability":"view","type":"function"},{"inputs":[],"name":"feederSelector","outputs":[{"internalType":"address","name":"","type":"address"}],"stateMutability":"view","type":"function"},{"inputs":[{"internalType":"address","name":"","type":"address"}],"name":"feeders","outputs":[{"internalType":"address","name":"feederAddress","type":"address"},{"internalType":"uint256","name":"stakedAmount","type":"uint256"},{"internalType":"uint256","name":"completedFeeds","type":"uint256"},{"internalType":"uint256","name":"rejectedFeeds","type":"uint256"},{"internalType":"uint256","name":"registeredAt","type":"uint256"},{"internalType":"bool","name":"isActive","type":"bool"},{"internalType":"bool","name":"isBlacklisted","type":"bool"}],"stateMutability":"view","type":"function"},{"inputs":[{"internalType":"uint256","name":"requestId","type":"uint256"}],"name":"finalizeFeed","outputs":[{"internalType":"uint256","name":"finalPrice","type":"uint256"}],"stateMutability":"nonpayable","type":"function"},{"inputs":[],"name":"getActiveFeeders","outputs":[{"internalType":"address[]","name":"","type":"address[]"}],"stateMutability":"view","type":"function"},{"inputs":[{"internalType":"uint256","name":"offset","type":"uint256"},{"internalType":"uint256","name":"limit","type":"uint256"}],"name":"getAllFeedRequests","outputs":[{"components":[{"internalType":"uint256","name":"requestId","type":"uint256"},{"internalType":"uint256","name":"orderId","type":"uint256"},{"internalType":"enum FeedType","name":"feedType","type":"uint8"},{"internalType":"enum FeedTier","name":"tier","type":"uint8"},{"internalType":"uint256","name":"deadline","type":"uint256"},{"internalType":"uint256","name":"createdAt","type":"uint256"},{"internalType":"uint256","name":"totalFeeders","type":"uint256"},{"internalType":"uint256","name":"submittedCount","type":"uint256"},{"internalType":"uint256","name":"finalPrice","type":"uint256"},{"internalType":"bool","name":"finalized","type":"bool"}],"internalType":"struct FeedRequest[]","name":"","type":"tuple[]"}],"stateMutability":"view","type":"function"},{"inputs":[{"internalType":"enum FeedTier","name":"tier","type":"uint8"}],"name":"getFeedFee","outputs":[{"internalType":"uint256","name":"","type":"uint256"}],"stateMutability":"view","type":"function"},{"inputs":[{"internalType":"uint256","name":"requestId","type":"uint256"}],"name":"getFeedRequest","outputs":[{"components":[{"internalType":"uint256","name":"requestId","type":"uint256"},{"internalType":"uint256","name":"orderId","type":"uint256"},{"internalType":"enum FeedType","name":"feedType","type":"uint8"},{"internalType":"enum FeedTier","name":"tier","type":"uint8"},{"internalType":"uint256","name":"deadline","type":"uint256"},{"internalType":"uint256","name":"createdAt","type":"uint256"},{"internalType":"uint256","name":"totalFeeders","type":"uint256"},{"internalType":"uint256","name":"submittedCount","type":"uint256"},{"internalType":"uint256","name":"finalPrice","type":"uint256"},{"internalType":"bool","name":"finalized","type":"bool"}],"internalType":"struct FeedRequest","name":"","type":"tuple"}],"stateMutability":"view","type":"function"},{"inputs":[{"internalType":"address","name":"feeder","type":"address"}],"name":"getFeeder","outputs":[{"components":[{"internalType":"address","name":"feederAddress","type":"address"},{"internalType":"uint256","name":"stakedAmount","type":"uint256"},{"internalType":"uint256","name":"completedFeeds","type":"uint256"},{"internalType":"uint256","name":"rejectedFeeds","type":"uint256"},{"internalType":"uint256","name":"registeredAt","type":"uint256"},{"internalType":"bool","name":"isActive","type":"bool"},{"internalType":"bool","name":"isBlacklisted","type":"bool"}],"internalType":"struct FeedProtocol.Feeder","name":"","type":"tuple"}],"stateMutability":"view","type":"function"},{"inputs":[],"name":"getFeederCount","outputs":[{"internalType":"uint256","name":"","type":"uint256"}],"stateMutability":"view","type":"function"},{"inputs":[{"internalType":"uint256","name":"orderId","type":"uint256"}],"name":"getOrderFeedRequests","outputs":[{"internalType":"uint256[]","name":"","type":"uint256[]"}],"stateMutability":"view","type":"function"},{"inputs":[],"name":"getPendingRequests","outputs":[{"components":[{"internalType":"uint256","name":"requestId","type":"uint256"},{"internalType":"uint256","name":"orderId","type":"uint256"},{"internalType":"enum FeedType","name":"feedType","type":"uint8"},{"internalType":"enum FeedTier","name":"tier","type":"uint8"},{"internalType":"uint256","name":"deadline","type":"uint256"},{"internalType":"uint256","name":"createdAt","type":"uint256"},{"internalType":"uint256","name":"totalFeeders","type":"uint256"},{"internalType":"uint256","name":"submittedCount","type":"uint256"},{"internalType":"uint256","name":"finalPrice","type":"uint256"},{"internalType":"bool","name":"finalized","type":"bool"}],"internalType":"struct FeedRequest[]","name":"","type":"tuple[]"}],"stateMutability":"view","type":"function"},{"inputs":[{"internalType":"bytes32","name":"role","type":"bytes32"}],"name":"getRoleAdmin","outputs":[{"internalType":"bytes32","name":"","type":"bytes32"}],"stateMutability":"view","type":"function"},{"inputs":[{"internalType":"uint256","name":"requestId","type":"uint256"}],"name":"getSubmissions","outputs":[{"components":[{"internalType":"address","name":"feeder","type":"address"},{"internalType":"uint256","name":"price","type":"uint256"},{"internalType":"uint256","name":"timestamp","type":"uint256"},{"internalType":"bool","name":"isValid","type":"bool"}],"internalType":"struct FeedProtocol.FeedSubmission[]","name":"","type":"tuple[]"}],"stateMutability":"view","type":"function"},{"inputs":[],"name":"getTotalRequestCount","outputs":[{"internalType":"uint256","name":"","type":"uint256"}],"stateMutability":"view","type":"function"},{"inputs":[{"internalType":"address","name":"protocol","type":"address"}],"name":"grantProtocolRole","outputs":[],"stateMutability":"nonpayable","type":"function"},{"inputs":[{"internalType":"bytes32","name":"role","type":"bytes32"},{"internalType":"address","name":"account","type":"address"}],"name":"grantRole","outputs":[],"stateMutability":"nonpayable","type":"function"},{"inputs":[{"internalType":"address","name":"feeder","type":"address"}],"name":"grantSeniorFeederRole","outputs":[],"stateMutability":"nonpayable","type":"function"},{"inputs":[{"internalType":"bytes32","name":"role","type":"bytes32"},{"internalType":"address","name":"account","type":"address"}],"name":"hasRole","outputs":[{"internalType":"bool","name":"","type":"bool"}],"stateMutability":"view","type":"function"},{"inputs":[{"internalType":"uint256","name":"","type":"uint256"},{"internalType":"address","name":"","type":"address"}],"name":"hasSubmitted","outputs":[{"internalType":"bool","name":"","type":"bool"}],"stateMutability":"view","type":"function"},{"inputs":[],"name":"nextRequestId","outputs":[{"internalType":"uint256","name":"","type":"uint256"}],"stateMutability":"view","type":"function"},{"inputs":[{"internalType":"uint256","name":"","type":"uint256"},{"internalType":"uint256","name":"","type":"uint256"}],"name":"orderFeedRequests","outputs":[{"internalType":"uint256","name":"","type":"uint256"}],"stateMutability":"view","type":"function"},{"inputs":[],"name":"pause","outputs":[],"stateMutability":"nonpayable","type":"function"},{"inputs":[],"name":"paused","outputs":[{"internalType":"bool","name":"","type":"bool"}],"stateMutability":"view","type":"function"},{"inputs":[{"internalType":"uint256","name":"stakeAmount","type":"uint256"}],"name":"registerFeeder","outputs":[],"stateMutability":"nonpayable","type":"function"},{"inputs":[{"internalType":"uint256","name":"requestId","type":"uint256"},{"internalType":"string","name":"reason","type":"string"}],"name":"rejectFeed","outputs":[],"stateMutability":"nonpayable","type":"function"},{"inputs":[{"internalType":"bytes32","name":"role","type":"bytes32"},{"internalType":"address","name":"callerConfirmation","type":"address"}],"name":"renounceRole","outputs":[],"stateMutability":"nonpayable","type":"function"},{"inputs":[{"internalType":"uint256","name":"orderId","type":"uint256"},{"internalType":"enum FeedType","name":"feedType","type":"uint8"},{"internalType":"enum FeedTier","name":"tier","type":"uint8"}],"name":"requestFeedPublic","outputs":[{"internalType":"uint256","name":"requestId","type":"uint256"}],"stateMutability":"nonpayable","type":"function"},{"inputs":[{"internalType":"uint256","name":"","type":"uint256"},{"internalType":"uint256","name":"","type":"uint256"}],"name":"requestSubmissions","outputs":[{"internalType":"address","name":"feeder","type":"address"},{"internalType":"uint256","name":"price","type":"uint256"},{"internalType":"uint256","name":"timestamp","type":"uint256"},{"internalType":"bool","name":"isValid","type":"bool"}],"stateMutability":"view","type":"function"},{"inputs":[{"internalType":"bytes32","name":"role","type":"bytes32"},{"internalType":"address","name":"account","type":"address"}],"name":"revokeRole","outputs":[],"stateMutability":"nonpayable","type":"function"},{"inputs":[{"internalType":"address","name":"_config","type":"address"}],"name":"setConfig","outputs":[],"stateMutability":"nonpayable","type":"function"},{"inputs":[{"internalType":"address","name":"_feederSelector","type":"address"}],"name":"setFeederSelector","outputs":[],"stateMutability":"nonpayable","type":"function"},{"inputs":[{"internalType":"enum FeedTier","name":"tier","type":"uint8"},{"internalType":"uint8","name":"totalFeeders","type":"uint8"},{"internalType":"uint8","name":"effectiveFeeds","type":"uint8"},{"internalType":"uint256","name":"platformFee","type":"uint256"},{"internalType":"uint256","name":"feederReward","type":"uint256"},{"internalType":"uint256","name":"totalFee","type":"uint256"}],"name":"setTierConfig","outputs":[],"stateMutability":"nonpayable","type":"function"},{"inputs":[{"internalType":"uint256","name":"requestId","type":"uint256"},{"internalType":"uint256","name":"price","type":"uint256"}],"name":"submitFeed","outputs":[],"stateMutability":"nonpayable","type":"function"},{"inputs":[{"internalType":"bytes4","name":"interfaceId","type":"bytes4"}],"name":"supportsInterface","outputs":[{"internalType":"bool","name":"","type":"bool"}],"stateMutability":"view","type":"function"},{"inputs":[{"internalType":"enum FeedTier","name":"","type":"uint8"}],"name":"tierConfigs","outputs":[{"internalType":"uint8","name":"totalFeeders","type":"uint8"},{"internalType":"uint8","name":"effectiveFeeds","type":"uint8"},{"internalType":"uint256","name":"platformFee","type":"uint256"},{"internalType":"uint256","name":"feederReward","type":"uint256"},{"internalType":"uint256","name":"totalFee","type":"uint256"}],"stateMutability":"view","type":"function"},{"inputs":[],"name":"unpause","outputs":[],"stateMutability":"nonpayable","type":"function"},{"inputs":[],"name":"usdt","outputs":[{"internalType":"contract IERC20","name":"","type":"address"}],"stateMutability":"view","type":"function"},{"inputs":[{"internalType":"address","name":"to","type":"address"}],"name":"withdrawPlatformFees","outputs":[],"stateMutability":"nonpayable","type":"function"},{"inputs":[{"internalType":"uint256","name":"amount","type":"uint256"}],"name":"withdrawStake","outputs":[],"stateMutability":"nonpayable","type":"function"}],"evm":{"bytecode":{"linkReferences":{},"object":"6080346200021857601f6200360a38819003918201601f191683019291906001600160401b038411838510176200021d5781606092849260409687528339810103126200021857620000518162000253565b9060206200006e846200006683850162000253565b930162000253565b6001808055600581905560028054610100600160a81b03191660089690961b610100600160a81b0316959095178555600380546001600160a01b0319166001600160a01b039095169490941784559390620000d590620000ce8162000268565b50620002e8565b50620000e062000233565b93600585528285019084825286860195620493e087526060810190622932e082528660808201622dc6c08152600093848052600b895260ff8c86209451169a84549b61ff0080995160081b169061ffff19809e161717855551868501555187840155519101556200015062000233565b600781528689878301600581528184016207a120815260608501916244aa20835260ff6080870194624c4b408652898952600b8d5288209651168d8a8854935160081b169216171785555186850155518784015551910155620001b262000233565b968793600a8552868501916007835260ff8b80880195620c35008752600b608060608b019a626ddd008c52019b627a12008d528b835252209a5116918a54935160081b1692161717875551908601555190840155519101555161325f90816200038b8239f35b600080fd5b634e487b7160e01b600052604160045260246000fd5b6040519060a082016001600160401b038111838210176200021d57604052565b51906001600160a01b03821682036200021857565b6001600160a01b031660008181527fad3228b676f7d3cd4284a5443f17f1962b36e491b30a40b2405849e597ba5fb5602052604081205490919060ff16620002e457818052816020526040822081835260205260408220600160ff198254161790553391600080516020620035ea8339815191528180a4600190565b5090565b6001600160a01b031660008181527fa0cfc50be65892217a92eab74d4b8dca267a17d5b74f05a4a7cdee0906a51faf60205260408120549091907f70b284da8bfc3de812daa2261b4c3ffadd90c2c772295293d09c9629a737a0cd9060ff166200038557808352826020526040832082845260205260408320600160ff19825416179055600080516020620035ea833981519152339380a4600190565b50509056fe60806040908082526004908136101561001757600080fd5b60009060e08235811c91826301ffc9a71461200b5750816302768de414611fe25784826304b86cb314611f47575081630aa3166114611ec4578163121c604b14611e8257816315450ace14611e1857816315f8b1e014611d5f57816316c53ced14611c5757816320e3dbd414611c0d578163248a9ca314611be257816325d5971f14611a6a5781632f0165ca14611a2f5781632f0e6ca5146119155781632f2ff15d146118eb5781632f48ab7d146118c257816336568abe1461187b5781633929fcd31461154f5781633bf5e3a9146114a75781633f4ba83a1461143c5781633fe1ddd21461111757816346b6270314610f2057816346f53d1e14610ebe5781635c975abb14610e9a5781635cf72f5414610e715781635efd950814610e3057816360421a3014610df95781636a84a98514610dda57816375136ddc14610d9957816379502c5514610d6c5781637ced45d114610d2c57816380a1f71214610ba057816382ae8f0114610b785781638456cb5914610b1d5781638ec9f03814610ae257816391d1485414610a9b5781639ba7646c146109ab5781639da9db2a14610941578163a217fddf14610926578163a57d3806146108de578163aabe4ac4146108b2578163c7c7b02f14610862578163d547741f14610823578163db18c1891461076857508063e56959911461072a578063eb4f16b51461066f578063eb7bb5a714610443578063ec3889b514610306578063ec5bfc6c146102e75763f608463a1461024457600080fd5b346102e457602091826003193601126102e057929192358152600c8352818120908251808584549182815201908194845286842090845b8181106102cc57505050816102919103826125ab565b83519485948186019282875251809352850193925b8281106102b557505050500390f35b8351855286955093810193928101926001016102a6565b82548452928801926001928301920161027b565b5080fd5b80fd5b5082346102e057816003193601126102e057602090600a549051908152f35b50913461043f576020918260031936011261043b57610323612090565b9161032c61226b565b6003805482516370a0823160e01b815230948101949094526001600160a01b039081169590929080856024818a5afa9485156104315788956103fe575b5092919087938893600a54935b8a8587106103bd5795505050505050508082116000146103b4576103999161272d565b905b816103a4578380f35b6103ad9261273a565b3880808380f35b5050829061039b565b86976001866103ee93866103d86103f49798999a9b9c6120bc565b905490891b1c168152600989522001549061270a565b96612773565b9493929190610376565b9080955081813d831161042a575b61041681836125ab565b8101031261042657519338610369565b8780fd5b503d61040c565b82513d8a823e3d90fd5b8380fd5b8280fd5b5082346102e0576020908160031936011261043f578335916104636126e7565b61046b6126c9565b33845260098152818420546001600160a01b0390811661062e578082600254888651809481936363b36cc360e11b835260081c165afa80156106245786906105f1575b6104bb91508510156125cd565b6104cd84826003541630903390612618565b848261055f600586516104df8161258f565b33815283810189815288820186815260608301908782526080840192428452898c60a087019a60018c52600960c089019b828d5233835252209551166bffffffffffffffffffffffff60a01b865416178555516001850155516002840155516003830155518b8201550192511515839060ff801983541691151516179055565b51815461ff00191690151560081b61ff0016179055600a54600160401b8110156105de57906105b78260017f53226fcf6c46a949f058f2002cb48f6897bf6c0bd2f030158d655ba38d44a16c96959401600a556120bc565b819291549060031b9133831b921b1916179055815193845242908401523392a26001805580f35b634e487b7160e01b865260418752602486fd5b508281813d831161061d575b61060781836125ab565b81010312610619576104bb90516104ae565b8580fd5b503d6105fd565b84513d88823e3d90fd5b606486838086519262461bcd60e51b845283015260248201527f4665656450726f746f636f6c3a20616c726561647920726567697374657265646044820152fd5b50913461043f57602036600319011261043f5781359161068d6126e7565b6106956126c9565b3384526009602052818420546001600160a01b0391908216156106e757506106de916106cb846001936003541630903390612618565b338552600960205284200191825461270a565b90556001805580f35b606490602084519162461bcd60e51b8352820152601c60248201527f4665656450726f746f636f6c3a206e6f742072656769737465726564000000006044820152fd5b5091903461043f57602036600319011261043f5735600381101561043f5781602093826107586003946121a4565b8152600b85522001549051908152f35b838584923461043b57602036600319011261043b579060ff6008610821938361014097610793613022565b5087358152600660205220908451966107ab88612572565b82548852600183015460208901528460028401546107cd828216898c01612782565b851c166107d9816121a4565b60608901526003830154608089015282015460a0880152600582015460c0880152600682015490870152600781015461010087015201541615156101208401525180926121ae565bf35b5050913461043f578060031936011261043f5761085e913561085960016108486120a6565b9383875286602052862001546122c3565b6124af565b5080f35b8285346102e05760203660031901126102e05761085e906108ad6001610886612090565b9261088f61226b565b60008051602061320a833981519152865285602052852001546122c3565b61239b565b8285346102e0576108da906108cf6108c936612121565b906130be565b905191829182612222565b0390f35b8285853461043f578160031936011261043f578160209360ff926109006120a6565b90358252600886528282206001600160a01b039091168252855220549151911615158152f35b8285346102e057816003193601126102e05751908152602090f35b8285853461043f57602036600319011261043f5735600381101561043f5760a0928161096d84936121a4565b8152600b60205220908154916001810154600360028301549201549260ff815195818116875260081c16602086015284015260608301526080820152f35b838584346102e45760203660031901126102e457816109c8612090565b918060c083516109d78161258f565b82815282602082015282858201528260608201528260808201528260a0820152015260018060a01b038093168152600960205220825191610a178361258f565b81541693848352600182015493602084019485526002830154818501908152600560038501549360608701948552850154946080870195865201549560ff60c060a0880197828a1615158952019760081c16151587528251978852516020880152519086015251606085015251608084015251151560a083015251151560c0820152f35b8285853461043f578160031936011261043f578160209360ff92610abd6120a6565b903582528186528282206001600160a01b039091168252855220549151911615158152f35b8285346102e057816003193601126102e057602090517f92a9bfc44b11bdcb4ce1c7bb0f30145a060370f7684a9cf6c25518e5775772698152f35b8285346102e057816003193601126102e05760207f62e78cea01bee320cd4e420270b5ea74000d11b0c9f74754ebdbfc544b05a25891610b5b61226b565b610b636126c9565b600160ff19600254161760025551338152a180f35b838584346102e45760203660031901126102e45750610b9960209235612bc5565b9051908152f35b9050346102e057816003193601126102e057600580549290600182815b868110610cd95750610bce9061306e565b9583825b878110610be6578951806108da8b82612222565b80825260066020908082528b84209060ff8d60088281860154161595868097610ccb575b610c24575b50505050505050610c1f90612773565b610bd2565b93610cbe969383610c1f999e97938d976007965198610c428a612572565b86548a5286015490890152610c61600286015492848416908a01612782565b1c16610c6c816121a4565b6060860152600382015460808601528982015460a08601528b82015460c08601528101548d850152015461010083015215610120820152610cad828d612bb1565b52610cb8818c612bb1565b50612773565b95903880808d8180610c0f565b506003860154421115610c0a565b808552600660205288852060ff600882015416159081610d1d575b50610d08575b610d0390612773565b610bbd565b90610d15610d0391612773565b919050610cfa565b60039150015442111538610cf4565b505082346102e057816003193601126102e057600554600019810192908311610d59576020838351908152f35b634e487b7160e01b815260118452602490fd5b8285346102e057816003193601126102e057600254905160089190911c6001600160a01b03168152602090f35b8285346102e057610da936612121565b92908152600c6020528181209081548410156102e45750602092610dcc91612109565b91905490519160031b1c8152f35b8285346102e057816003193601126102e0576020906005549051908152f35b8285346102e057602090610e25610e0f3661205f565b91610e186126e7565b610e206126c9565b61278e565b906001805551908152f35b8284346102e05760203660031901126102e057610e4b612090565b610e5361226b565b81546001600160a01b0319166001600160a01b039190911617905580f35b8285853461043f578260031936011261043f575490516001600160a01b03909116815260209150f35b8285346102e057816003193601126102e05760209060ff6002541690519015158152f35b8285346102e05760203660031901126102e05761085e90610f1b6001610ee2612090565b92610eeb61226b565b7f92a9bfc44b11bdcb4ce1c7bb0f30145a060370f7684a9cf6c25518e577577269865285602052852001546122c3565b6122e9565b8285853461043f578160031936011261043f5780359060243567ffffffffffffffff811161111357610f559036908301612153565b9383151580611108575b610f68906129ef565b33865260209260098452610f8460ff6005848a20015416612a3b565b33875260098452610fa160ff6005848a20015460081c1615612a87565b338752600984528187206001015460025483516363b36cc360e11b8152928691849190829060081c6001600160a01b03165afa9182156110fe5788926110a9575b507f5d7b755f33872c8c5fe6e178f7b9e167e0aa5f0407495210e7e0c8835a21cadb9461101861109f95949360099310156125cd565b6110206126e7565b6110286126c9565b8689526006815261104260ff6008858c2001541615612ad2565b86895260088152828920338a52815261106160ff848b20541615612b1e565b86895260088152828920338a528152828920600160ff198254161790555260038188200161108f8154612773565b9055519182913396429184612b6a565b0390a36001805580f35b939291508484813d83116110f7575b6110c281836125ab565b8101031261042657925191929091907f5d7b755f33872c8c5fe6e178f7b9e167e0aa5f0407495210e7e0c8835a21cadb610fe2565b503d6110b8565b83513d8a823e3d90fd5b506005548410610f5f565b8480fd5b8285853461043f5761112836612121565b819291151580611431575b61113c906129ef565b3385526020906009825261115860ff6005878920015416612a3b565b3386526009825261117560ff6005878920015460081c1615612a87565b33865260098252600194858188200154928460018060a01b0394828660025460081c168551938480926363b36cc360e11b82525afa908115611427578a916113f2575b6111c4925010156125cd565b6111cc6126e7565b6111d46126c9565b85885260068152818820946111f060ff60088801541615612ad2565b600386015442116113b15786895260088252828920338a52825261121a60ff848b20541615612b1e565b83156113645786895260088252828920338a5282528289208860ff19825416179055600686019461124b8654612773565b8655878a5260078352838a209084519061126482612556565b338252848201908782528683019242845260608101948d8652805490600160401b821015611350579061129b918f82018155612137565b96909661133e57506005999897948c97948e611310957fdc37948d08732ed33078677fc43276d929de5bc1d96edc08562d508c79adc01c999560039551166bffffffffffffffffffffffff60a01b875416178655519085015551600284015551151591019060ff801983541691151516179055565b815194855242908501523393a354910154111561132e575b50805580f35b61133790612bc5565b5082611328565b634e487b7160e01b8f528e905260248efd5b50634e487b7160e01b8f526041875260248ffd5b915162461bcd60e51b8152918201526024808201527f4665656450726f746f636f6c3a207072696365206d75737420626520706f73696044820152637469766560e01b6064820152608490fd5b915162461bcd60e51b815291820152601d60248201527f4665656450726f746f636f6c3a207265717565737420657870697265640000006044820152606490fd5b90508282813d8311611420575b61140981836125ab565b8101031261141c576111c49151906111b8565b8980fd5b503d6113ff565b84513d8c823e3d90fd5b506005548310611133565b8285853461043f578260031936011261043f5761145761226b565b6002549060ff821615611499575060ff1916600255513381527f5db9ee0a495bf2e6ff9c91a7834c1ba4fdd244a5e8aa4e537bd38aeae4b073aa90602090a180f35b8251638dfc202b60e01b8152fd5b905082843461043b57602036600319011261043b578061014094833581526006602052209081549360018301549360028401549060ff8260081c16906003860154908601549161151f60058801549460ff60068a01549881600860078d01549c0154169b602082519e8f90815201528c019116612181565b611528816121a4565b6060890152608088015260a087015260c08601528401526101008301521515610120820152f35b505090346102e057816003193601126102e057600a5490929180805b838110611741575061159461157f82612b99565b9161158c865193846125ab565b808352612b99565b6020958287019491601f19013686378390845b8381106115f6575050505083519485948186019282875251809352850193925b8281106115d657505050500390f35b83516001600160a01b0316855286955093810193928101926001016115c7565b611605819996959798996120bc565b60018060a01b03809254600392831b1c1687528a6009808a5260ff80600580948c200154169283611715575b505081611686575b50611655575b505061164a90612773565b9796959394976115a7565b9361167e91839561166861164a956120bc565b9054911b1c16611678828b612bb1565b52612773565b92903861163f565b905082611692856120bc565b905490841b1c16885288528360018c89200154898d8560025460081c169051938480926363b36cc360e11b82525afa91821561170b5789926116d8575b50101538611639565b9091508981813d8311611704575b6116f081836125ab565b81010312611700575190386116cf565b8880fd5b503d6116e6565b8d513d8b823e3d90fd5b9091925084611723876120bc565b905490861b1c168a52828b528d8a20015460081c1615903880611631565b611750819693929495966120bc565b9054600391821b1c6001600160a01b0390811684526009602081815289862060059081015460ff908116949293918561184f575b5050836117bf575b50505090506117aa575b61179f90612773565b94939290919461156b565b926117b761179f91612773565b939050611796565b91938193506117cd866120bc565b9054911b1c1685528252848260018a872001549260025460081c168a51928380926363b36cc360e11b82525afa928315611845578593611815575b505010158038808061178c565b9080929350813d831161183e575b61182d81836125ab565b8101031261043b5751903880611808565b503d611823565b89513d87823e3d90fd5b909194508261185d886120bc565b905490881b1c1688528484528b8820015460081c1615923880611784565b505082346102e057806003193601126102e0576118966120a6565b90336001600160a01b038316036118b3575061085e9192356124af565b5163334bd91960e11b81528390fd5b8285346102e057816003193601126102e05760035490516001600160a01b039091168152602090f35b5050913461043f578060031936011261043f5761085e913561191060016108486120a6565b612436565b505082346102e057806003193601126102e057611930612090565b9260243567ffffffffffffffff811161043b576119509036908301612153565b90917f70b284da8bfc3de812daa2261b4c3ffadd90c2c772295293d09c9629a737a0cd85528460205283852033865260205260ff8486205416156119ec57506119e67fa172cc290b2e00bc2a34c06a4d70cd942037859cca624f051cd830b4b268eac593949560018060a01b031694858752600960205260058188200161010061ffff1982541617905551928392429184612b6a565b0390a280f35b606490602085519162461bcd60e51b8352820152601a60248201527f4665656450726f746f636f6c3a206e6f74206f70657261746f720000000000006044820152fd5b8285346102e057816003193601126102e057602090517f70b284da8bfc3de812daa2261b4c3ffadd90c2c772295293d09c9629a737a0cd8152f35b505090346102e0576020928360031936011261043f57813591611a8b6126e7565b611a936126c9565b33845260098552818420906001820190815496611ab2868910156125cd565b611abc868961272d565b60025486516363b36cc360e11b81526001600160a01b0397929091849083908790829060081c8c165afa918215611bd8578a92611ba9575b5010801590611ba0575b15611b4157505050611b1484611b29969761272d565b80915515611b30575b5033906003541661273a565b6001805580f35b600501805460ff1916905538611b1d565b5162461bcd60e51b815291820152603560248201527f4665656450726f746f636f6c3a206d757374206d61696e7461696e206d696e206044820152741cdd185ad9481bdc881dda5d1a191c985dc8185b1b605a1b606482015260849150fd5b50888714611afe565b9091508381813d8311611bd1575b611bc181836125ab565b8101031261141c57519038611af4565b503d611bb7565b83513d8c823e3d90fd5b8285853461043f57602036600319011261043f57816020936001923581528085522001549051908152f35b82346102e45760203660031901126102e457611c27612090565b611c2f61226b565b60028054610100600160a81b03191660089290921b610100600160a81b031691909117905580f35b505090346102e0576020908160031936011261043f5790918135815260078352838120918254611c8681612b99565b91611c93875193846125ab565b8183528583018095855286852085915b848310611d0d575050505050845193808501918186525180925285850193925b828110611cd05785850386f35b835180516001600160a01b031686528083015186840152878101518887015260609081015115159086015260809094019392810192600101611cc3565b83896001928c9b98999b51611d2181612556565b848060a01b03865416815284860154838201528d60028701549082015260ff6003870154161515606082015281520192019201919097959497611ca3565b8285853461043f5760c036600319011261043f573590600382101561043f576024359160ff831680930361043b576044359160ff831680930361111357600392611da761226b565b815194611db386612524565b85526020850190815281850190606435825260ff60608701936084358552608088019560a4358752611de4816121a4565b8952600b602052882096511661ff008754925160081b169161ffff1916171785555160018501555160028401555191015580f35b8285346102e057611e2836612121565b9290815260076020528181209081548410156102e45750608092611e4b91612137565b509060018060a01b038254169160018101549160ff6003600284015493015416928151948552602085015283015215156060820152f35b8285853461043f57602036600319011261043f573591600a548310156102e45750611eae6020926120bc565b905491519160018060a01b039160031b1c168152f35b838584346102e45760203660031901126102e45760ff91906001600160a01b0390829082611ef0612090565b16815260096020522090815416936001820154926002830154906005600385015493850154940154948151978852602088015286015260608501526080840152818116151560a084015260081c16151560c0820152f35b60ff848287611f553661205f565b959193909460008051602061320a83398151915281528060205281812033825260205220541615611f9157602085610e25868686610e206126e7565b608490602086519162461bcd60e51b8352820152602560248201527f4665656450726f746f636f6c3a206e6f7420617574686f72697a65642070726f6044820152641d1bd8dbdb60da1b6064820152fd5b8285346102e057816003193601126102e0576020905160008051602061320a8339815191528152f35b8390853461043f57602036600319011261043f573563ffffffff60e01b811680910361043f5760209250637965db0b60e01b811490811561204e575b5015158152f35b6301ffc9a760e01b14905083612047565b606090600319011261208b5760043590602435600481101561208b5790604435600381101561208b5790565b600080fd5b600435906001600160a01b038216820361208b57565b602435906001600160a01b038216820361208b57565b600a548110156120f357600a6000527fc65a7bb8d6351c1cf70c95a316cc6a92839c986682d98bc35f958f4883f9d2a80190600090565b634e487b7160e01b600052603260045260246000fd5b80548210156120f35760005260206000200190600090565b604090600319011261208b576004359060243590565b80548210156120f35760005260206000209060021b0190600090565b9181601f8401121561208b5782359167ffffffffffffffff831161208b576020838186019501011161208b57565b90600482101561218e5752565b634e487b7160e01b600052602160045260246000fd5b6003111561218e57565b80518252602081015160208301526121ce60408201516040840190612181565b60608101516121dc816121a4565b60608301526080810151608083015260a081015160a083015260c081015160c083015260e081015160e08301526101008082015190830152610120809101511515910152565b6020908160408183019282815285518094520193019160005b828110612249575050505090565b90919293826101408261225f60019489516121ae565b0195019392910161223b565b3360009081527fad3228b676f7d3cd4284a5443f17f1962b36e491b30a40b2405849e597ba5fb5602052604081205460ff16156122a55750565b6044906040519063e2517d3f60e01b82523360048301526024820152fd5b80600052600060205260406000203360005260205260ff60406000205416156122a55750565b6001600160a01b031660008181527fb9aa941adaec809e6b0427677375ac0b3d84ba99295ec0ba010b381b51e9479160205260408120549091907f92a9bfc44b11bdcb4ce1c7bb0f30145a060370f7684a9cf6c25518e5775772699060ff1661239657808352826020526040832082845260205260408320600160ff198254161790557f2f8788117e7eff1d82e926ec794901d17c78024a50270940304540a733656f0d339380a4600190565b505090565b6001600160a01b031660008181527fbb186cc6582165753931a58fdaac99b9482f9d63c76229808bd3afc382e98215602052604081205490919060008051602061320a8339815191529060ff1661239657808352826020526040832082845260205260408320600160ff198254161790557f2f8788117e7eff1d82e926ec794901d17c78024a50270940304540a733656f0d339380a4600190565b9060009180835282602052604083209160018060a01b03169182845260205260ff6040842054161560001461239657808352826020526040832082845260205260408320600160ff198254161790557f2f8788117e7eff1d82e926ec794901d17c78024a50270940304540a733656f0d339380a4600190565b9060009180835282602052604083209160018060a01b03169182845260205260ff6040842054166000146123965780835282602052604083208284526020526040832060ff1981541690557ff6391f5c32d9c69d2a47ea670b442974b53935d1edc7fd64eb21e047a839171b339380a4600190565b60a0810190811067ffffffffffffffff82111761254057604052565b634e487b7160e01b600052604160045260246000fd5b6080810190811067ffffffffffffffff82111761254057604052565b610140810190811067ffffffffffffffff82111761254057604052565b60e0810190811067ffffffffffffffff82111761254057604052565b90601f8019910116810190811067ffffffffffffffff82111761254057604052565b156125d457565b606460405162461bcd60e51b815260206004820152602060248201527f4665656450726f746f636f6c3a20696e73756666696369656e74207374616b656044820152fd5b6040516323b872dd60e01b60208201526001600160a01b03928316602482015292909116604483015260648083019390935291815261265f9161265a82612524565b612661565b565b906000602091828151910182855af1156126bd576000513d6126b457506001600160a01b0381163b155b6126925750565b604051635274afe760e01b81526001600160a01b039091166004820152602490fd5b6001141561268b565b6040513d6000823e3d90fd5b60ff600254166126d557565b60405163d93c066560e01b8152600490fd5b6002600154146126f8576002600155565b604051633ee5aeb560e01b8152600490fd5b9190820180921161271757565b634e487b7160e01b600052601160045260246000fd5b9190820391821161271757565b60405163a9059cbb60e01b60208201526001600160a01b03909216602483015260448083019390935291815261265f9161265a82612556565b60001981146127175760010190565b600482101561218e5752565b90612798836121a4565b82600052602090600b82526040600020936127fc6003604051966127bb88612524565b60ff81548181168a5260081c16868901526001810154604089015260028101546060890152015480608088015260018060a01b036003541630903390612618565b6005549461280986612773565b6005556107084201908142116127175760ff905116906040519261282c84612572565b87845286868501526128418560408601612782565b61284a816121a4565b606084015260808301524260a083015260c0820152600060e0820152600061010082015261012081016000815285600052600684526040600020908251825584830151600183015560028201906040840151600481101561218e576129229483610100926008955460ff61ff0060608601516128c5816121a4565b6128ce816121a4565b891b1692169061ffff1916171790556080810151600386015560a0810151600486015560c0810151600586015560e081015160068601550151600784015551151591019060ff801983541691151516179055565b82600052600c82526040600020805492600160401b841015612540576129cf7f615e8f1333715c833aeea3803d6aa6f09d73c6db60f9ed7d1ded1cec09b48d9a93612977866101a09560018b99018155612109565b81549060031b9088821b91600019901b19161790556000604051936101208552816101208601526101408091860152840152600061016080604086015284015260006101808060608601528401526080830190612181565b600060a0820152600060c0820152600060e082015242610100820152a390565b156129f657565b60405162461bcd60e51b815260206004820152601d60248201527f4665656450726f746f636f6c3a20696e76616c696420726571756573740000006044820152606490fd5b15612a4257565b60405162461bcd60e51b815260206004820152601f60248201527f4665656450726f746f636f6c3a206e6f742061637469766520666565646572006044820152606490fd5b15612a8e57565b606460405162461bcd60e51b815260206004820152602060248201527f4665656450726f746f636f6c3a2066656564657220626c61636b6c69737465646044820152fd5b15612ad957565b60405162461bcd60e51b815260206004820152601f60248201527f4665656450726f746f636f6c3a20616c72656164792066696e616c697a6564006044820152606490fd5b15612b2557565b60405162461bcd60e51b815260206004820152601f60248201527f4665656450726f746f636f6c3a20616c7265616479207375626d6974746564006044820152606490fd5b9392918060609160209360408852816040890152838801376000828288010152601f8019910116850101930152565b67ffffffffffffffff81116125405760051b60200190565b80518210156120f35760209160051b010190565b9060009180835260066020526040832060088101549260ff93612bea85821615612ad2565b838652600760205260408620938454958615612fdd57612c0987612b99565b95612c1760405197886125ab565b878752601f19612c2689612b99565b013660208901378897895b818110612f735750508715612f2e579391889593915b6000198901898111612f1a57871015612d2957895b612c66888b61272d565b6000198101908111612d1557811015612cf857612c83818a612bb1565b516001820190818311612ce45790612cac9291612ca0828d612bb1565b5110612cb15750612773565b612c5c565b612cdd612cbe838d612bb1565b51918c612cd685612ccf8484612bb1565b5192612bb1565b528c612bb1565b5238610cb8565b634e487b7160e01b8d52601160045260248dfd5b50919395612d099095919395612773565b95939194929094612c47565b634e487b7160e01b8c52601160045260248cfd5b95509597919796939290966001948580821615600014612f03571c6000198101818111612eef5782612d658893612ccf612d6c94600897612bb1565b519061270a565b811c985b89600785015560ff1916179101558481526006602052600291848360408420015460081c16612d9e816121a4565b8252600b6020526040822092604051612db681612524565b868554818116835260081c166020820152858501546040820152818501549081606082015260806003809701549101528254908115612edb57049083865b612e33575b50505050505050507f4da0f440b42ee815c5b14cbf1a5cb712c4fcf1ee583ca8c97bdbbdf4a1e7ba1f60408051848152426020820152a290565b8354811015612ed657808887612e4c612e599488612137565b50015416612e5f57612773565b86612df4565b612e698186612137565b505487546001600160a01b0391821691612e8791879184911661273a565b8087526009602052836040882001612e9f8154612773565b90558a7f602ab809fa82d3a742a4f9a33cdd154988d8b0f578ee4dc91de3dc412bf026b960408051888152426020820152a3612773565b612df9565b634e487b7160e01b85526012600452602485fd5b634e487b7160e01b85526011600452602485fd5b90600892612f1391831c90612bb1565b5198612d70565b634e487b7160e01b8b52601160045260248bfd5b60405162461bcd60e51b815260206004820152601d60248201527f4665656450726f746f636f6c3a206e6f2076616c6964207072696365730000006044820152606490fd5b836003612f808386612137565b5001541680612fc6575b612f9d575b612f9890612773565b612c31565b98612fbe612f98916001612fb18d87612137565b500154611678828d612bb1565b999050612f8f565b506001612fd38285612137565b5001541515612f8a565b60405162461bcd60e51b815260206004820152601c60248201527f4665656450726f746f636f6c3a206e6f207375626d697373696f6e73000000006044820152606490fd5b6040519061302f82612572565b816101206000918281528260208201528260408201528260608201528260808201528260a08201528260c08201528260e0820152826101008201520152565b9061307882612b99565b61308560405191826125ab565b8281528092613096601f1991612b99565b019060005b8281106130a757505050565b6020906130b2613022565b8282850101520161309b565b90600590815490600019820191821161271757818410156131e1576130f7916130e885928361270a565b908082116131d9575b5061272d565b906131018261306e565b9260005b838110613113575050505090565b61311d818361270a565b906001808301809311612717576131d4926000526006602090808252604091826000209083519461314d86612572565b825486528201549085015260028101549161316f60ff94858516908701612782565b83600893841c1661317f816121a4565b606086015260038201546080860152600482015460a08601528882015460c086015281015460e0850152600781015461010085015201541615156101208201526131c98288612bb1565b52610cb88187612bb1565b613105565b9050386130f1565b505050506040516020810181811067ffffffffffffffff82111761254057604052600081529056feba279271fb7bbf76a6f3df3cc57bf80647fcafdea60ec3383d90f459de74e7c0a26469706673582212204a897ac880e041aa8b9608d61c0c92079c2e98acf64ce8136e6d48fee0f40d8064736f6c634300081400332f8788117e7eff1d82e926ec794901d17c78024a50270940304540a733656f0d","opcodes":"PUSH1 0x80 CALLVALUE PUSH3 0x218 JUMPI PUSH1 0x1F PUSH3 0x360A CODESIZE DUP2 SWAP1 SUB SWAP2 DUP3 ADD PUSH1 0x1F NOT AND DUP4 ADD SWAP3 SWAP2 SWAP1 PUSH1 0x1 PUSH1 0x1 PUSH1 0x40 SHL SUB DUP5 GT DUP4 DUP6 LT OR PUSH3 0x21D JUMPI DUP2 PUSH1 0x60 SWAP3 DUP5 SWAP3 PUSH1 0x40 SWAP7 DUP8 MSTORE DUP4 CODECOPY DUP2 ADD SUB SLT PUSH3 0x218 JUMPI PUSH3 0x51 DUP2 PUSH3 0x253 JUMP JUMPDEST SWAP1 PUSH1 0x20 PUSH3 0x6E DUP5 PUSH3 0x66 DUP4 DUP6 ADD PUSH3 0x253 JUMP JUMPDEST SWAP4 ADD PUSH3 0x253 JUMP JUMPDEST PUSH1 0x1 DUP1 DUP1 SSTORE PUSH1 0x5 DUP2 SWAP1 SSTORE PUSH1 0x2 DUP1 SLOAD PUSH2 0x100 PUSH1 0x1 PUSH1 0xA8 SHL SUB NOT AND PUSH1 0x8 SWAP7 SWAP1 SWAP7 SHL PUSH2 0x100 PUSH1 0x1 PUSH1 0xA8 SHL SUB AND SWAP6 SWAP1 SWAP6 OR DUP6 SSTORE PUSH1 0x3 DUP1 SLOAD PUSH1 0x1 PUSH1 0x1 PUSH1 0xA0 SHL SUB NOT AND PUSH1 0x1 PUSH1 0x1 PUSH1 0xA0 SHL SUB SWAP1 SWAP6 AND SWAP5 SWAP1 SWAP5 OR DUP5 SSTORE SWAP4 SWAP1 PUSH3 0xD5 SWAP1 PUSH3 0xCE DUP2 PUSH3 0x268 JUMP JUMPDEST POP PUSH3 0x2E8 JUMP JUMPDEST POP PUSH3 0xE0 PUSH3 0x233 JUMP JUMPDEST SWAP4 PUSH1 0x5 DUP6 MSTORE DUP3 DUP6 ADD SWAP1 DUP5 DUP3 MSTORE DUP7 DUP7 ADD SWAP6 PUSH3 0x493E0 DUP8 MSTORE PUSH1 0x60 DUP2 ADD SWAP1 PUSH3 0x2932E0 DUP3 MSTORE DUP7 PUSH1 0x80 DUP3 ADD PUSH3 0x2DC6C0 DUP2 MSTORE PUSH1 0x0 SWAP4 DUP5 DUP1 MSTORE PUSH1 0xB DUP10 MSTORE PUSH1 0xFF DUP13 DUP7 KECCAK256 SWAP5 MLOAD AND SWAP11 DUP5 SLOAD SWAP12 PUSH2 0xFF00 DUP1 SWAP10 MLOAD PUSH1 0x8 SHL AND SWAP1 PUSH2 0xFFFF NOT DUP1 SWAP15 AND OR OR DUP6 SSTORE MLOAD DUP7 DUP6 ADD SSTORE MLOAD DUP8 DUP5 ADD SSTORE MLOAD SWAP2 ADD SSTORE PUSH3 0x150 PUSH3 0x233 JUMP JUMPDEST PUSH1 0x7 DUP2 MSTORE DUP7 DUP10 DUP8 DUP4 ADD PUSH1 0x5 DUP2 MSTORE DUP2 DUP5 ADD PUSH3 0x7A120 DUP2 MSTORE PUSH1 0x60 DUP6 ADD SWAP2 PUSH3 0x44AA20 DUP4 MSTORE PUSH1 0xFF PUSH1 0x80 DUP8 ADD SWAP5 PUSH3 0x4C4B40 DUP7 MSTORE DUP10 DUP10 MSTORE PUSH1 0xB DUP14 MSTORE DUP9 KECCAK256 SWAP7 MLOAD AND DUP14 DUP11 DUP9 SLOAD SWAP4 MLOAD PUSH1 0x8 SHL AND SWAP3 AND OR OR DUP6 SSTORE MLOAD DUP7 DUP6 ADD SSTORE MLOAD DUP8 DUP5 ADD SSTORE MLOAD SWAP2 ADD SSTORE PUSH3 0x1B2 PUSH3 0x233 JUMP JUMPDEST SWAP7 DUP8 SWAP4 PUSH1 0xA DUP6 MSTORE DUP7 DUP6 ADD SWAP2 PUSH1 0x7 DUP4 MSTORE PUSH1 0xFF DUP12 DUP1 DUP9 ADD SWAP6 PUSH3 0xC3500 DUP8 MSTORE PUSH1 0xB PUSH1 0x80 PUSH1 0x60 DUP12 ADD SWAP11 PUSH3 0x6DDD00 DUP13 MSTORE ADD SWAP12 PUSH3 0x7A1200 DUP14 MSTORE DUP12 DUP4 MSTORE MSTORE KECCAK256 SWAP11 MLOAD AND SWAP2 DUP11 SLOAD SWAP4 MLOAD PUSH1 0x8 SHL AND SWAP3 AND OR OR DUP8 SSTORE MLOAD SWAP1 DUP7 ADD SSTORE MLOAD SWAP1 DUP5 ADD SSTORE MLOAD SWAP2 ADD SSTORE MLOAD PUSH2 0x325F SWAP1 DUP2 PUSH3 0x38B DUP3 CODECOPY RETURN JUMPDEST PUSH1 0x0 DUP1 REVERT JUMPDEST PUSH4 0x4E487B71 PUSH1 0xE0 SHL PUSH1 0x0 MSTORE PUSH1 0x41 PUSH1 0x4 MSTORE PUSH1 0x24 PUSH1 0x0 REVERT JUMPDEST PUSH1 0x40 MLOAD SWAP1 PUSH1 0xA0 DUP3 ADD PUSH1 0x1 PUSH1 0x1 PUSH1 0x40 SHL SUB DUP2 GT DUP4 DUP3 LT OR PUSH3 0x21D JUMPI PUSH1 0x40 MSTORE JUMP JUMPDEST MLOAD SWAP1 PUSH1 0x1 PUSH1 0x1 PUSH1 0xA0 SHL SUB DUP3 AND DUP3 SUB PUSH3 0x218 JUMPI JUMP JUMPDEST PUSH1 0x1 PUSH1 0x1 PUSH1 0xA0 SHL SUB AND PUSH1 0x0 DUP2 DUP2 MSTORE PUSH32 0xAD3228B676F7D3CD4284A5443F17F1962B36E491B30A40B2405849E597BA5FB5 PUSH1 0x20 MSTORE PUSH1 0x40 DUP2 KECCAK256 SLOAD SWAP1 SWAP2 SWAP1 PUSH1 0xFF AND PUSH3 0x2E4 JUMPI DUP2 DUP1 MSTORE DUP2 PUSH1 0x20 MSTORE PUSH1 0x40 DUP3 KECCAK256 DUP2 DUP4 MSTORE PUSH1 0x20 MSTORE PUSH1 0x40 DUP3 KECCAK256 PUSH1 0x1 PUSH1 0xFF NOT DUP3 SLOAD AND OR SWAP1 SSTORE CALLER SWAP2 PUSH1 0x0 DUP1 MLOAD PUSH1 0x20 PUSH3 0x35EA DUP4 CODECOPY DUP2 MLOAD SWAP2 MSTORE DUP2 DUP1 LOG4 PUSH1 0x1 SWAP1 JUMP JUMPDEST POP SWAP1 JUMP JUMPDEST PUSH1 0x1 PUSH1 0x1 PUSH1 0xA0 SHL SUB AND PUSH1 0x0 DUP2 DUP2 MSTORE PUSH32 0xA0CFC50BE65892217A92EAB74D4B8DCA267A17D5B74F05A4A7CDEE0906A51FAF PUSH1 0x20 MSTORE PUSH1 0x40 DUP2 KECCAK256 SLOAD SWAP1 SWAP2 SWAP1 PUSH32 0x70B284DA8BFC3DE812DAA2261B4C3FFADD90C2C772295293D09C9629A737A0CD SWAP1 PUSH1 0xFF AND PUSH3 0x385 JUMPI DUP1 DUP4 MSTORE DUP3 PUSH1 0x20 MSTORE PUSH1 0x40 DUP4 KECCAK256 DUP3 DUP5 MSTORE PUSH1 0x20 MSTORE PUSH1 0x40 DUP4 KECCAK256 PUSH1 0x1 PUSH1 0xFF NOT DUP3 SLOAD AND OR SWAP1 SSTORE PUSH1 0x0 DUP1 MLOAD PUSH1 0x20 PUSH3 0x35EA DUP4 CODECOPY DUP2 MLOAD SWAP2 MSTORE CALLER SWAP4 DUP1 LOG4 PUSH1 0x1 SWAP1 JUMP JUMPDEST POP POP SWAP1 JUMP INVALID PUSH1 0x80 PUSH1 0x40 SWAP1 DUP1 DUP3 MSTORE PUSH1 0x4 SWAP1 DUP2 CALLDATASIZE LT ISZERO PUSH2 0x17 JUMPI PUSH1 0x0 DUP1 REVERT JUMPDEST PUSH1 0x0 SWAP1 PUSH1 0xE0 DUP3 CALLDATALOAD DUP2 SHR SWAP2 DUP3 PUSH4 0x1FFC9A7 EQ PUSH2 0x200B JUMPI POP DUP2 PUSH4 0x2768DE4 EQ PUSH2 0x1FE2 JUMPI DUP5 DUP3 PUSH4 0x4B86CB3 EQ PUSH2 0x1F47 JUMPI POP DUP2 PUSH4 0xAA31661 EQ PUSH2 0x1EC4 JUMPI DUP2 PUSH4 0x121C604B EQ PUSH2 0x1E82 JUMPI DUP2 PUSH4 0x15450ACE EQ PUSH2 0x1E18 JUMPI DUP2 PUSH4 0x15F8B1E0 EQ PUSH2 0x1D5F JUMPI DUP2 PUSH4 0x16C53CED EQ PUSH2 0x1C57 JUMPI DUP2 PUSH4 0x20E3DBD4 EQ PUSH2 0x1C0D JUMPI DUP2 PUSH4 0x248A9CA3 EQ PUSH2 0x1BE2 JUMPI DUP2 PUSH4 0x25D5971F EQ PUSH2 0x1A6A JUMPI DUP2 PUSH4 0x2F0165CA EQ PUSH2 0x1A2F JUMPI DUP2 PUSH4 0x2F0E6CA5 EQ PUSH2 0x1915 JUMPI DUP2 PUSH4 0x2F2FF15D EQ PUSH2 0x18EB JUMPI DUP2 PUSH4 0x2F48AB7D EQ PUSH2 0x18C2 JUMPI DUP2 PUSH4 0x36568ABE EQ PUSH2 0x187B JUMPI DUP2 PUSH4 0x3929FCD3 EQ PUSH2 0x154F JUMPI DUP2 PUSH4 0x3BF5E3A9 EQ PUSH2 0x14A7 JUMPI DUP2 PUSH4 0x3F4BA83A EQ PUSH2 0x143C JUMPI DUP2 PUSH4 0x3FE1DDD2 EQ PUSH2 0x1117 JUMPI DUP2 PUSH4 0x46B62703 EQ PUSH2 0xF20 JUMPI DUP2 PUSH4 0x46F53D1E EQ PUSH2 0xEBE JUMPI DUP2 PUSH4 0x5C975ABB EQ PUSH2 0xE9A JUMPI DUP2 PUSH4 0x5CF72F54 EQ PUSH2 0xE71 JUMPI DUP2 PUSH4 0x5EFD9508 EQ PUSH2 0xE30 JUMPI DUP2 PUSH4 0x60421A30 EQ PUSH2 0xDF9 JUMPI DUP2 PUSH4 0x6A84A985 EQ PUSH2 0xDDA JUMPI DUP2 PUSH4 0x75136DDC EQ PUSH2 0xD99 JUMPI DUP2 PUSH4 0x79502C55 EQ PUSH2 0xD6C JUMPI DUP2 PUSH4 0x7CED45D1 EQ PUSH2 0xD2C JUMPI DUP2 PUSH4 0x80A1F712 EQ PUSH2 0xBA0 JUMPI DUP2 PUSH4 0x82AE8F01 EQ PUSH2 0xB78 JUMPI DUP2 PUSH4 0x8456CB59 EQ PUSH2 0xB1D JUMPI DUP2 PUSH4 0x8EC9F038 EQ PUSH2 0xAE2 JUMPI DUP2 PUSH4 0x91D14854 EQ PUSH2 0xA9B JUMPI DUP2 PUSH4 0x9BA7646C EQ PUSH2 0x9AB JUMPI DUP2 PUSH4 0x9DA9DB2A EQ PUSH2 0x941 JUMPI DUP2 PUSH4 0xA217FDDF EQ PUSH2 0x926 JUMPI DUP2 PUSH4 0xA57D3806 EQ PUSH2 0x8DE JUMPI DUP2 PUSH4 0xAABE4AC4 EQ PUSH2 0x8B2 JUMPI DUP2 PUSH4 0xC7C7B02F EQ PUSH2 0x862 JUMPI DUP2 PUSH4 0xD547741F EQ PUSH2 0x823 JUMPI DUP2 PUSH4 0xDB18C189 EQ PUSH2 0x768 JUMPI POP DUP1 PUSH4 0xE5695991 EQ PUSH2 0x72A JUMPI DUP1 PUSH4 0xEB4F16B5 EQ PUSH2 0x66F JUMPI DUP1 PUSH4 0xEB7BB5A7 EQ PUSH2 0x443 JUMPI DUP1 PUSH4 0xEC3889B5 EQ PUSH2 0x306 JUMPI DUP1 PUSH4 0xEC5BFC6C EQ PUSH2 0x2E7 JUMPI PUSH4 0xF608463A EQ PUSH2 0x244 JUMPI PUSH1 0x0 DUP1 REVERT JUMPDEST CALLVALUE PUSH2 0x2E4 JUMPI PUSH1 0x20 SWAP2 DUP3 PUSH1 0x3 NOT CALLDATASIZE ADD SLT PUSH2 0x2E0 JUMPI SWAP3 SWAP2 SWAP3 CALLDATALOAD DUP2 MSTORE PUSH1 0xC DUP4 MSTORE DUP2 DUP2 KECCAK256 SWAP1 DUP3 MLOAD DUP1 DUP6 DUP5 SLOAD SWAP2 DUP3 DUP2 MSTORE ADD SWAP1 DUP2 SWAP5 DUP5 MSTORE DUP7 DUP5 KECCAK256 SWAP1 DUP5 JUMPDEST DUP2 DUP2 LT PUSH2 0x2CC JUMPI POP POP POP DUP2 PUSH2 0x291 SWAP2 SUB DUP3 PUSH2 0x25AB JUMP JUMPDEST DUP4 MLOAD SWAP5 DUP6 SWAP5 DUP2 DUP7 ADD SWAP3 DUP3 DUP8 MSTORE MLOAD DUP1 SWAP4 MSTORE DUP6 ADD SWAP4 SWAP3 JUMPDEST DUP3 DUP2 LT PUSH2 0x2B5 JUMPI POP POP POP POP SUB SWAP1 RETURN JUMPDEST DUP4 MLOAD DUP6 MSTORE DUP7 SWAP6 POP SWAP4 DUP2 ADD SWAP4 SWAP3 DUP2 ADD SWAP3 PUSH1 0x1 ADD PUSH2 0x2A6 JUMP JUMPDEST DUP3 SLOAD DUP5 MSTORE SWAP3 DUP9 ADD SWAP3 PUSH1 0x1 SWAP3 DUP4 ADD SWAP3 ADD PUSH2 0x27B JUMP JUMPDEST POP DUP1 REVERT JUMPDEST DUP1 REVERT JUMPDEST POP DUP3 CALLVALUE PUSH2 0x2E0 JUMPI DUP2 PUSH1 0x3 NOT CALLDATASIZE ADD SLT PUSH2 0x2E0 JUMPI PUSH1 0x20 SWAP1 PUSH1 0xA SLOAD SWAP1 MLOAD SWAP1 DUP2 MSTORE RETURN JUMPDEST POP SWAP2 CALLVALUE PUSH2 0x43F JUMPI PUSH1 0x20 SWAP2 DUP3 PUSH1 0x3 NOT CALLDATASIZE ADD SLT PUSH2 0x43B JUMPI PUSH2 0x323 PUSH2 0x2090 JUMP JUMPDEST SWAP2 PUSH2 0x32C PUSH2 0x226B JUMP JUMPDEST PUSH1 0x3 DUP1 SLOAD DUP3 MLOAD PUSH4 0x70A08231 PUSH1 0xE0 SHL DUP2 MSTORE ADDRESS SWAP5 DUP2 ADD SWAP5 SWAP1 SWAP5 MSTORE PUSH1 0x1 PUSH1 0x1 PUSH1 0xA0 SHL SUB SWAP1 DUP2 AND SWAP6 SWAP1 SWAP3 SWAP1 DUP1 DUP6 PUSH1 0x24 DUP2 DUP11 GAS STATICCALL SWAP5 DUP6 ISZERO PUSH2 0x431 JUMPI DUP9 SWAP6 PUSH2 0x3FE JUMPI JUMPDEST POP SWAP3 SWAP2 SWAP1 DUP8 SWAP4 DUP9 SWAP4 PUSH1 0xA SLOAD SWAP4 JUMPDEST DUP11 DUP6 DUP8 LT PUSH2 0x3BD JUMPI SWAP6 POP POP POP POP POP POP POP DUP1 DUP3 GT PUSH1 0x0 EQ PUSH2 0x3B4 JUMPI PUSH2 0x399 SWAP2 PUSH2 0x272D JUMP JUMPDEST SWAP1 JUMPDEST DUP2 PUSH2 0x3A4 JUMPI DUP4 DUP1 RETURN JUMPDEST PUSH2 0x3AD SWAP3 PUSH2 0x273A JUMP JUMPDEST CODESIZE DUP1 DUP1 DUP4 DUP1 RETURN JUMPDEST POP POP DUP3 SWAP1 PUSH2 0x39B JUMP JUMPDEST DUP7 SWAP8 PUSH1 0x1 DUP7 PUSH2 0x3EE SWAP4 DUP7 PUSH2 0x3D8 PUSH2 0x3F4 SWAP8 SWAP9 SWAP10 SWAP11 SWAP12 SWAP13 PUSH2 0x20BC JUMP JUMPDEST SWAP1 SLOAD SWAP1 DUP10 SHL SHR AND DUP2 MSTORE PUSH1 0x9 DUP10 MSTORE KECCAK256 ADD SLOAD SWAP1 PUSH2 0x270A JUMP JUMPDEST SWAP7 PUSH2 0x2773 JUMP JUMPDEST SWAP5 SWAP4 SWAP3 SWAP2 SWAP1 PUSH2 0x376 JUMP JUMPDEST SWAP1 DUP1 SWAP6 POP DUP2 DUP2 RETURNDATASIZE DUP4 GT PUSH2 0x42A JUMPI JUMPDEST PUSH2 0x416 DUP2 DUP4 PUSH2 0x25AB JUMP JUMPDEST DUP2 ADD SUB SLT PUSH2 0x426 JUMPI MLOAD SWAP4 CODESIZE PUSH2 0x369 JUMP JUMPDEST DUP8 DUP1 REVERT JUMPDEST POP RETURNDATASIZE PUSH2 0x40C JUMP JUMPDEST DUP3 MLOAD RETURNDATASIZE DUP11 DUP3 RETURNDATACOPY RETURNDATASIZE SWAP1 REVERT JUMPDEST DUP4 DUP1 REVERT JUMPDEST DUP3 DUP1 REVERT JUMPDEST POP DUP3 CALLVALUE PUSH2 0x2E0 JUMPI PUSH1 0x20 SWAP1 DUP2 PUSH1 0x3 NOT CALLDATASIZE ADD SLT PUSH2 0x43F JUMPI DUP4 CALLDATALOAD SWAP2 PUSH2 0x463 PUSH2 0x26E7 JUMP JUMPDEST PUSH2 0x46B PUSH2 0x26C9 JUMP JUMPDEST CALLER DUP5 MSTORE PUSH1 0x9 DUP2 MSTORE DUP2 DUP5 KECCAK256 SLOAD PUSH1 0x1 PUSH1 0x1 PUSH1 0xA0 SHL SUB SWAP1 DUP2 AND PUSH2 0x62E JUMPI DUP1 DUP3 PUSH1 0x2 SLOAD DUP9 DUP7 MLOAD DUP1 SWAP5 DUP2 SWAP4 PUSH4 0x63B36CC3 PUSH1 0xE1 SHL DUP4 MSTORE PUSH1 0x8 SHR AND GAS STATICCALL DUP1 ISZERO PUSH2 0x624 JUMPI DUP7 SWAP1 PUSH2 0x5F1 JUMPI JUMPDEST PUSH2 0x4BB SWAP2 POP DUP6 LT ISZERO PUSH2 0x25CD JUMP JUMPDEST PUSH2 0x4CD DUP5 DUP3 PUSH1 0x3 SLOAD AND ADDRESS SWAP1 CALLER SWAP1 PUSH2 0x2618 JUMP JUMPDEST DUP5 DUP3 PUSH2 0x55F PUSH1 0x5 DUP7 MLOAD PUSH2 0x4DF DUP2 PUSH2 0x258F JUMP JUMPDEST CALLER DUP2 MSTORE DUP4 DUP2 ADD DUP10 DUP2 MSTORE DUP9 DUP3 ADD DUP7 DUP2 MSTORE PUSH1 0x60 DUP4 ADD SWAP1 DUP8 DUP3 MSTORE PUSH1 0x80 DUP5 ADD SWAP3 TIMESTAMP DUP5 MSTORE DUP10 DUP13 PUSH1 0xA0 DUP8 ADD SWAP11 PUSH1 0x1 DUP13 MSTORE PUSH1 0x9 PUSH1 0xC0 DUP10 ADD SWAP12 DUP3 DUP14 MSTORE CALLER DUP4 MSTORE MSTORE KECCAK256 SWAP6 MLOAD AND PUSH12 0xFFFFFFFFFFFFFFFFFFFFFFFF PUSH1 0xA0 SHL DUP7 SLOAD AND OR DUP6 SSTORE MLOAD PUSH1 0x1 DUP6 ADD SSTORE MLOAD PUSH1 0x2 DUP5 ADD SSTORE MLOAD PUSH1 0x3 DUP4 ADD SSTORE MLOAD DUP12 DUP3 ADD SSTORE ADD SWAP3 MLOAD ISZERO ISZERO DUP4 SWAP1 PUSH1 0xFF DUP1 NOT DUP4 SLOAD AND SWAP2 ISZERO ISZERO AND OR SWAP1 SSTORE JUMP JUMPDEST MLOAD DUP2 SLOAD PUSH2 0xFF00 NOT AND SWAP1 ISZERO ISZERO PUSH1 0x8 SHL PUSH2 0xFF00 AND OR SWAP1 SSTORE PUSH1 0xA SLOAD PUSH1 0x1 PUSH1 0x40 SHL DUP2 LT ISZERO PUSH2 0x5DE JUMPI SWAP1 PUSH2 0x5B7 DUP3 PUSH1 0x1 PUSH32 0x53226FCF6C46A949F058F2002CB48F6897BF6C0BD2F030158D655BA38D44A16C SWAP7 SWAP6 SWAP5 ADD PUSH1 0xA SSTORE PUSH2 0x20BC JUMP JUMPDEST DUP2 SWAP3 SWAP2 SLOAD SWAP1 PUSH1 0x3 SHL SWAP2 CALLER DUP4 SHL SWAP3 SHL NOT AND OR SWAP1 SSTORE DUP2 MLOAD SWAP4 DUP5 MSTORE TIMESTAMP SWAP1 DUP5 ADD MSTORE CALLER SWAP3 LOG2 PUSH1 0x1 DUP1 SSTORE DUP1 RETURN JUMPDEST PUSH4 0x4E487B71 PUSH1 0xE0 SHL DUP7 MSTORE PUSH1 0x41 DUP8 MSTORE PUSH1 0x24 DUP7 REVERT JUMPDEST POP DUP3 DUP2 DUP2 RETURNDATASIZE DUP4 GT PUSH2 0x61D JUMPI JUMPDEST PUSH2 0x607 DUP2 DUP4 PUSH2 0x25AB JUMP JUMPDEST DUP2 ADD SUB SLT PUSH2 0x619 JUMPI PUSH2 0x4BB SWAP1 MLOAD PUSH2 0x4AE JUMP JUMPDEST DUP6 DUP1 REVERT JUMPDEST POP RETURNDATASIZE PUSH2 0x5FD JUMP JUMPDEST DUP5 MLOAD RETURNDATASIZE DUP9 DUP3 RETURNDATACOPY RETURNDATASIZE SWAP1 REVERT JUMPDEST PUSH1 0x64 DUP7 DUP4 DUP1 DUP7 MLOAD SWAP3 PUSH3 0x461BCD PUSH1 0xE5 SHL DUP5 MSTORE DUP4 ADD MSTORE PUSH1 0x24 DUP3 ADD MSTORE PUSH32 0x4665656450726F746F636F6C3A20616C72656164792072656769737465726564 PUSH1 0x44 DUP3 ADD MSTORE REVERT JUMPDEST POP SWAP2 CALLVALUE PUSH2 0x43F JUMPI PUSH1 0x20 CALLDATASIZE PUSH1 0x3 NOT ADD SLT PUSH2 0x43F JUMPI DUP2 CALLDATALOAD SWAP2 PUSH2 0x68D PUSH2 0x26E7 JUMP JUMPDEST PUSH2 0x695 PUSH2 0x26C9 JUMP JUMPDEST CALLER DUP5 MSTORE PUSH1 0x9 PUSH1 0x20 MSTORE DUP2 DUP5 KECCAK256 SLOAD PUSH1 0x1 PUSH1 0x1 PUSH1 0xA0 SHL SUB SWAP2 SWAP1 DUP3 AND ISZERO PUSH2 0x6E7 JUMPI POP PUSH2 0x6DE SWAP2 PUSH2 0x6CB DUP5 PUSH1 0x1 SWAP4 PUSH1 0x3 SLOAD AND ADDRESS SWAP1 CALLER SWAP1 PUSH2 0x2618 JUMP JUMPDEST CALLER DUP6 MSTORE PUSH1 0x9 PUSH1 0x20 MSTORE DUP5 KECCAK256 ADD SWAP2 DUP3 SLOAD PUSH2 0x270A JUMP JUMPDEST SWAP1 SSTORE PUSH1 0x1 DUP1 SSTORE DUP1 RETURN JUMPDEST PUSH1 0x64 SWAP1 PUSH1 0x20 DUP5 MLOAD SWAP2 PUSH3 0x461BCD PUSH1 0xE5 SHL DUP4 MSTORE DUP3 ADD MSTORE PUSH1 0x1C PUSH1 0x24 DUP3 ADD MSTORE PUSH32 0x4665656450726F746F636F6C3A206E6F74207265676973746572656400000000 PUSH1 0x44 DUP3 ADD MSTORE REVERT JUMPDEST POP SWAP2 SWAP1 CALLVALUE PUSH2 0x43F JUMPI PUSH1 0x20 CALLDATASIZE PUSH1 0x3 NOT ADD SLT PUSH2 0x43F JUMPI CALLDATALOAD PUSH1 0x3 DUP2 LT ISZERO PUSH2 0x43F JUMPI DUP2 PUSH1 0x20 SWAP4 DUP3 PUSH2 0x758 PUSH1 0x3 SWAP5 PUSH2 0x21A4 JUMP JUMPDEST DUP2 MSTORE PUSH1 0xB DUP6 MSTORE KECCAK256 ADD SLOAD SWAP1 MLOAD SWAP1 DUP2 MSTORE RETURN JUMPDEST DUP4 DUP6 DUP5 SWAP3 CALLVALUE PUSH2 0x43B JUMPI PUSH1 0x20 CALLDATASIZE PUSH1 0x3 NOT ADD SLT PUSH2 0x43B JUMPI SWAP1 PUSH1 0xFF PUSH1 0x8 PUSH2 0x821 SWAP4 DUP4 PUSH2 0x140 SWAP8 PUSH2 0x793 PUSH2 0x3022 JUMP JUMPDEST POP DUP8 CALLDATALOAD DUP2 MSTORE PUSH1 0x6 PUSH1 0x20 MSTORE KECCAK256 SWAP1 DUP5 MLOAD SWAP7 PUSH2 0x7AB DUP9 PUSH2 0x2572 JUMP JUMPDEST DUP3 SLOAD DUP9 MSTORE PUSH1 0x1 DUP4 ADD SLOAD PUSH1 0x20 DUP10 ADD MSTORE DUP5 PUSH1 0x2 DUP5 ADD SLOAD PUSH2 0x7CD DUP3 DUP3 AND DUP10 DUP13 ADD PUSH2 0x2782 JUMP JUMPDEST DUP6 SHR AND PUSH2 0x7D9 DUP2 PUSH2 0x21A4 JUMP JUMPDEST PUSH1 0x60 DUP10 ADD MSTORE PUSH1 0x3 DUP4 ADD SLOAD PUSH1 0x80 DUP10 ADD MSTORE DUP3 ADD SLOAD PUSH1 0xA0 DUP9 ADD MSTORE PUSH1 0x5 DUP3 ADD SLOAD PUSH1 0xC0 DUP9 ADD MSTORE PUSH1 0x6 DUP3 ADD SLOAD SWAP1 DUP8 ADD MSTORE PUSH1 0x7 DUP2 ADD SLOAD PUSH2 0x100 DUP8 ADD MSTORE ADD SLOAD AND ISZERO ISZERO PUSH2 0x120 DUP5 ADD MSTORE MLOAD DUP1 SWAP3 PUSH2 0x21AE JUMP JUMPDEST RETURN JUMPDEST POP POP SWAP2 CALLVALUE PUSH2 0x43F JUMPI DUP1 PUSH1 0x3 NOT CALLDATASIZE ADD SLT PUSH2 0x43F JUMPI PUSH2 0x85E SWAP2 CALLDATALOAD PUSH2 0x859 PUSH1 0x1 PUSH2 0x848 PUSH2 0x20A6 JUMP JUMPDEST SWAP4 DUP4 DUP8 MSTORE DUP7 PUSH1 0x20 MSTORE DUP7 KECCAK256 ADD SLOAD PUSH2 0x22C3 JUMP JUMPDEST PUSH2 0x24AF JUMP JUMPDEST POP DUP1 RETURN JUMPDEST DUP3 DUP6 CALLVALUE PUSH2 0x2E0 JUMPI PUSH1 0x20 CALLDATASIZE PUSH1 0x3 NOT ADD SLT PUSH2 0x2E0 JUMPI PUSH2 0x85E SWAP1 PUSH2 0x8AD PUSH1 0x1 PUSH2 0x886 PUSH2 0x2090 JUMP JUMPDEST SWAP3 PUSH2 0x88F PUSH2 0x226B JUMP JUMPDEST PUSH1 0x0 DUP1 MLOAD PUSH1 0x20 PUSH2 0x320A DUP4 CODECOPY DUP2 MLOAD SWAP2 MSTORE DUP7 MSTORE DUP6 PUSH1 0x20 MSTORE DUP6 KECCAK256 ADD SLOAD PUSH2 0x22C3 JUMP JUMPDEST PUSH2 0x239B JUMP JUMPDEST DUP3 DUP6 CALLVALUE PUSH2 0x2E0 JUMPI PUSH2 0x8DA SWAP1 PUSH2 0x8CF PUSH2 0x8C9 CALLDATASIZE PUSH2 0x2121 JUMP JUMPDEST SWAP1 PUSH2 0x30BE JUMP JUMPDEST SWAP1 MLOAD SWAP2 DUP3 SWAP2 DUP3 PUSH2 0x2222 JUMP JUMPDEST SUB SWAP1 RETURN JUMPDEST DUP3 DUP6 DUP6 CALLVALUE PUSH2 0x43F JUMPI DUP2 PUSH1 0x3 NOT CALLDATASIZE ADD SLT PUSH2 0x43F JUMPI DUP2 PUSH1 0x20 SWAP4 PUSH1 0xFF SWAP3 PUSH2 0x900 PUSH2 0x20A6 JUMP JUMPDEST SWAP1 CALLDATALOAD DUP3 MSTORE PUSH1 0x8 DUP7 MSTORE DUP3 DUP3 KECCAK256 PUSH1 0x1 PUSH1 0x1 PUSH1 0xA0 SHL SUB SWAP1 SWAP2 AND DUP3 MSTORE DUP6 MSTORE KECCAK256 SLOAD SWAP2 MLOAD SWAP2 AND ISZERO ISZERO DUP2 MSTORE RETURN JUMPDEST DUP3 DUP6 CALLVALUE PUSH2 0x2E0 JUMPI DUP2 PUSH1 0x3 NOT CALLDATASIZE ADD SLT PUSH2 0x2E0 JUMPI MLOAD SWAP1 DUP2 MSTORE PUSH1 0x20 SWAP1 RETURN JUMPDEST DUP3 DUP6 DUP6 CALLVALUE PUSH2 0x43F JUMPI PUSH1 0x20 CALLDATASIZE PUSH1 0x3 NOT ADD SLT PUSH2 0x43F JUMPI CALLDATALOAD PUSH1 0x3 DUP2 LT ISZERO PUSH2 0x43F JUMPI PUSH1 0xA0 SWAP3 DUP2 PUSH2 0x96D DUP5 SWAP4 PUSH2 0x21A4 JUMP JUMPDEST DUP2 MSTORE PUSH1 0xB PUSH1 0x20 MSTORE KECCAK256 SWAP1 DUP2 SLOAD SWAP2 PUSH1 0x1 DUP2 ADD SLOAD PUSH1 0x3 PUSH1 0x2 DUP4 ADD SLOAD SWAP3 ADD SLOAD SWAP3 PUSH1 0xFF DUP2 MLOAD SWAP6 DUP2 DUP2 AND DUP8 MSTORE PUSH1 0x8 SHR AND PUSH1 0x20 DUP7 ADD MSTORE DUP5 ADD MSTORE PUSH1 0x60 DUP4 ADD MSTORE PUSH1 0x80 DUP3 ADD MSTORE RETURN JUMPDEST DUP4 DUP6 DUP5 CALLVALUE PUSH2 0x2E4 JUMPI PUSH1 0x20 CALLDATASIZE PUSH1 0x3 NOT ADD SLT PUSH2 0x2E4 JUMPI DUP2 PUSH2 0x9C8 PUSH2 0x2090 JUMP JUMPDEST SWAP2 DUP1 PUSH1 0xC0 DUP4 MLOAD PUSH2 0x9D7 DUP2 PUSH2 0x258F JUMP JUMPDEST DUP3 DUP2 MSTORE DUP3 PUSH1 0x20 DUP3 ADD MSTORE DUP3 DUP6 DUP3 ADD MSTORE DUP3 PUSH1 0x60 DUP3 ADD MSTORE DUP3 PUSH1 0x80 DUP3 ADD MSTORE DUP3 PUSH1 0xA0 DUP3 ADD MSTORE ADD MSTORE PUSH1 0x1 DUP1 PUSH1 0xA0 SHL SUB DUP1 SWAP4 AND DUP2 MSTORE PUSH1 0x9 PUSH1 0x20 MSTORE KECCAK256 DUP3 MLOAD SWAP2 PUSH2 0xA17 DUP4 PUSH2 0x258F JUMP JUMPDEST DUP2 SLOAD AND SWAP4 DUP5 DUP4 MSTORE PUSH1 0x1 DUP3 ADD SLOAD SWAP4 PUSH1 0x20 DUP5 ADD SWAP5 DUP6 MSTORE PUSH1 0x2 DUP4 ADD SLOAD DUP2 DUP6 ADD SWAP1 DUP2 MSTORE PUSH1 0x5 PUSH1 0x3 DUP6 ADD SLOAD SWAP4 PUSH1 0x60 DUP8 ADD SWAP5 DUP6 MSTORE DUP6 ADD SLOAD SWAP5 PUSH1 0x80 DUP8 ADD SWAP6 DUP7 MSTORE ADD SLOAD SWAP6 PUSH1 0xFF PUSH1 0xC0 PUSH1 0xA0 DUP9 ADD SWAP8 DUP3 DUP11 AND ISZERO ISZERO DUP10 MSTORE ADD SWAP8 PUSH1 0x8 SHR AND ISZERO ISZERO DUP8 MSTORE DUP3 MLOAD SWAP8 DUP9 MSTORE MLOAD PUSH1 0x20 DUP9 ADD MSTORE MLOAD SWAP1 DUP7 ADD MSTORE MLOAD PUSH1 0x60 DUP6 ADD MSTORE MLOAD PUSH1 0x80 DUP5 ADD MSTORE MLOAD ISZERO ISZERO PUSH1 0xA0 DUP4 ADD MSTORE MLOAD ISZERO ISZERO PUSH1 0xC0 DUP3 ADD MSTORE RETURN JUMPDEST DUP3 DUP6 DUP6 CALLVALUE PUSH2 0x43F JUMPI DUP2 PUSH1 0x3 NOT CALLDATASIZE ADD SLT PUSH2 0x43F JUMPI DUP2 PUSH1 0x20 SWAP4 PUSH1 0xFF SWAP3 PUSH2 0xABD PUSH2 0x20A6 JUMP JUMPDEST SWAP1 CALLDATALOAD DUP3 MSTORE DUP2 DUP7 MSTORE DUP3 DUP3 KECCAK256 PUSH1 0x1 PUSH1 0x1 PUSH1 0xA0 SHL SUB SWAP1 SWAP2 AND DUP3 MSTORE DUP6 MSTORE KECCAK256 SLOAD SWAP2 MLOAD SWAP2 AND ISZERO ISZERO DUP2 MSTORE RETURN JUMPDEST DUP3 DUP6 CALLVALUE PUSH2 0x2E0 JUMPI DUP2 PUSH1 0x3 NOT CALLDATASIZE ADD SLT PUSH2 0x2E0 JUMPI PUSH1 0x20 SWAP1 MLOAD PUSH32 0x92A9BFC44B11BDCB4CE1C7BB0F30145A060370F7684A9CF6C25518E577577269 DUP2 MSTORE RETURN JUMPDEST DUP3 DUP6 CALLVALUE PUSH2 0x2E0 JUMPI DUP2 PUSH1 0x3 NOT CALLDATASIZE ADD SLT PUSH2 0x2E0 JUMPI PUSH1 0x20 PUSH32 0x62E78CEA01BEE320CD4E420270B5EA74000D11B0C9F74754EBDBFC544B05A258 SWAP2 PUSH2 0xB5B PUSH2 0x226B JUMP JUMPDEST PUSH2 0xB63 PUSH2 0x26C9 JUMP JUMPDEST PUSH1 0x1 PUSH1 0xFF NOT PUSH1 0x2 SLOAD AND OR PUSH1 0x2 SSTORE MLOAD CALLER DUP2 MSTORE LOG1 DUP1 RETURN JUMPDEST DUP4 DUP6 DUP5 CALLVALUE PUSH2 0x2E4 JUMPI PUSH1 0x20 CALLDATASIZE PUSH1 0x3 NOT ADD SLT PUSH2 0x2E4 JUMPI POP PUSH2 0xB99 PUSH1 0x20 SWAP3 CALLDATALOAD PUSH2 0x2BC5 JUMP JUMPDEST SWAP1 MLOAD SWAP1 DUP2 MSTORE RETURN JUMPDEST SWAP1 POP CALLVALUE PUSH2 0x2E0 JUMPI DUP2 PUSH1 0x3 NOT CALLDATASIZE ADD SLT PUSH2 0x2E0 JUMPI PUSH1 0x5 DUP1 SLOAD SWAP3 SWAP1 PUSH1 0x1 DUP3 DUP2 JUMPDEST DUP7 DUP2 LT PUSH2 0xCD9 JUMPI POP PUSH2 0xBCE SWAP1 PUSH2 0x306E JUMP JUMPDEST SWAP6 DUP4 DUP3 JUMPDEST DUP8 DUP2 LT PUSH2 0xBE6 JUMPI DUP10 MLOAD DUP1 PUSH2 0x8DA DUP12 DUP3 PUSH2 0x2222 JUMP JUMPDEST DUP1 DUP3 MSTORE PUSH1 0x6 PUSH1 0x20 SWAP1 DUP1 DUP3 MSTORE DUP12 DUP5 KECCAK256 SWAP1 PUSH1 0xFF DUP14 PUSH1 0x8 DUP3 DUP2 DUP7 ADD SLOAD AND ISZERO SWAP6 DUP7 DUP1 SWAP8 PUSH2 0xCCB JUMPI JUMPDEST PUSH2 0xC24 JUMPI JUMPDEST POP POP POP POP POP POP POP PUSH2 0xC1F SWAP1 PUSH2 0x2773 JUMP JUMPDEST PUSH2 0xBD2 JUMP JUMPDEST SWAP4 PUSH2 0xCBE SWAP7 SWAP4 DUP4 PUSH2 0xC1F SWAP10 SWAP15 SWAP8 SWAP4 DUP14 SWAP8 PUSH1 0x7 SWAP7 MLOAD SWAP9 PUSH2 0xC42 DUP11 PUSH2 0x2572 JUMP JUMPDEST DUP7 SLOAD DUP11 MSTORE DUP7 ADD SLOAD SWAP1 DUP10 ADD MSTORE PUSH2 0xC61 PUSH1 0x2 DUP7 ADD SLOAD SWAP3 DUP5 DUP5 AND SWAP1 DUP11 ADD PUSH2 0x2782 JUMP JUMPDEST SHR AND PUSH2 0xC6C DUP2 PUSH2 0x21A4 JUMP JUMPDEST PUSH1 0x60 DUP7 ADD MSTORE PUSH1 0x3 DUP3 ADD SLOAD PUSH1 0x80 DUP7 ADD MSTORE DUP10 DUP3 ADD SLOAD PUSH1 0xA0 DUP7 ADD MSTORE DUP12 DUP3 ADD SLOAD PUSH1 0xC0 DUP7 ADD MSTORE DUP2 ADD SLOAD DUP14 DUP6 ADD MSTORE ADD SLOAD PUSH2 0x100 DUP4 ADD MSTORE ISZERO PUSH2 0x120 DUP3 ADD MSTORE PUSH2 0xCAD DUP3 DUP14 PUSH2 0x2BB1 JUMP JUMPDEST MSTORE PUSH2 0xCB8 DUP2 DUP13 PUSH2 0x2BB1 JUMP JUMPDEST POP PUSH2 0x2773 JUMP JUMPDEST SWAP6 SWAP1 CODESIZE DUP1 DUP1 DUP14 DUP2 DUP1 PUSH2 0xC0F JUMP JUMPDEST POP PUSH1 0x3 DUP7 ADD SLOAD TIMESTAMP GT ISZERO PUSH2 0xC0A JUMP JUMPDEST DUP1 DUP6 MSTORE PUSH1 0x6 PUSH1 0x20 MSTORE DUP9 DUP6 KECCAK256 PUSH1 0xFF PUSH1 0x8 DUP3 ADD SLOAD AND ISZERO SWAP1 DUP2 PUSH2 0xD1D JUMPI JUMPDEST POP PUSH2 0xD08 JUMPI JUMPDEST PUSH2 0xD03 SWAP1 PUSH2 0x2773 JUMP JUMPDEST PUSH2 0xBBD JUMP JUMPDEST SWAP1 PUSH2 0xD15 PUSH2 0xD03 SWAP2 PUSH2 0x2773 JUMP JUMPDEST SWAP2 SWAP1 POP PUSH2 0xCFA JUMP JUMPDEST PUSH1 0x3 SWAP2 POP ADD SLOAD TIMESTAMP GT ISZERO CODESIZE PUSH2 0xCF4 JUMP JUMPDEST POP POP DUP3 CALLVALUE PUSH2 0x2E0 JUMPI DUP2 PUSH1 0x3 NOT CALLDATASIZE ADD SLT PUSH2 0x2E0 JUMPI PUSH1 0x5 SLOAD PUSH1 0x0 NOT DUP2 ADD SWAP3 SWAP1 DUP4 GT PUSH2 0xD59 JUMPI PUSH1 0x20 DUP4 DUP4 MLOAD SWAP1 DUP2 MSTORE RETURN JUMPDEST PUSH4 0x4E487B71 PUSH1 0xE0 SHL DUP2 MSTORE PUSH1 0x11 DUP5 MSTORE PUSH1 0x24 SWAP1 REVERT JUMPDEST DUP3 DUP6 CALLVALUE PUSH2 0x2E0 JUMPI DUP2 PUSH1 0x3 NOT CALLDATASIZE ADD SLT PUSH2 0x2E0 JUMPI PUSH1 0x2 SLOAD SWAP1 MLOAD PUSH1 0x8 SWAP2 SWAP1 SWAP2 SHR PUSH1 0x1 PUSH1 0x1 PUSH1 0xA0 SHL SUB AND DUP2 MSTORE PUSH1 0x20 SWAP1 RETURN JUMPDEST DUP3 DUP6 CALLVALUE PUSH2 0x2E0 JUMPI PUSH2 0xDA9 CALLDATASIZE PUSH2 0x2121 JUMP JUMPDEST SWAP3 SWAP1 DUP2 MSTORE PUSH1 0xC PUSH1 0x20 MSTORE DUP2 DUP2 KECCAK256 SWAP1 DUP2 SLOAD DUP5 LT ISZERO PUSH2 0x2E4 JUMPI POP PUSH1 0x20 SWAP3 PUSH2 0xDCC SWAP2 PUSH2 0x2109 JUMP JUMPDEST SWAP2 SWAP1 SLOAD SWAP1 MLOAD SWAP2 PUSH1 0x3 SHL SHR DUP2 MSTORE RETURN JUMPDEST DUP3 DUP6 CALLVALUE PUSH2 0x2E0 JUMPI DUP2 PUSH1 0x3 NOT CALLDATASIZE ADD SLT PUSH2 0x2E0 JUMPI PUSH1 0x20 SWAP1 PUSH1 0x5 SLOAD SWAP1 MLOAD SWAP1 DUP2 MSTORE RETURN JUMPDEST DUP3 DUP6 CALLVALUE PUSH2 0x2E0 JUMPI PUSH1 0x20 SWAP1 PUSH2 0xE25 PUSH2 0xE0F CALLDATASIZE PUSH2 0x205F JUMP JUMPDEST SWAP2 PUSH2 0xE18 PUSH2 0x26E7 JUMP JUMPDEST PUSH2 0xE20 PUSH2 0x26C9 JUMP JUMPDEST PUSH2 0x278E JUMP JUMPDEST SWAP1 PUSH1 0x1 DUP1 SSTORE MLOAD SWAP1 DUP2 MSTORE RETURN JUMPDEST DUP3 DUP5 CALLVALUE PUSH2 0x2E0 JUMPI PUSH1 0x20 CALLDATASIZE PUSH1 0x3 NOT ADD SLT PUSH2 0x2E0 JUMPI PUSH2 0xE4B PUSH2 0x2090 JUMP JUMPDEST PUSH2 0xE53 PUSH2 0x226B JUMP JUMPDEST DUP2 SLOAD PUSH1 0x1 PUSH1 0x1 PUSH1 0xA0 SHL SUB NOT AND PUSH1 0x1 PUSH1 0x1 PUSH1 0xA0 SHL SUB SWAP2 SWAP1 SWAP2 AND OR SWAP1 SSTORE DUP1 RETURN JUMPDEST DUP3 DUP6 DUP6 CALLVALUE PUSH2 0x43F JUMPI DUP3 PUSH1 0x3 NOT CALLDATASIZE ADD SLT PUSH2 0x43F JUMPI SLOAD SWAP1 MLOAD PUSH1 0x1 PUSH1 0x1 PUSH1 0xA0 SHL SUB SWAP1 SWAP2 AND DUP2 MSTORE PUSH1 0x20 SWAP2 POP RETURN JUMPDEST DUP3 DUP6 CALLVALUE PUSH2 0x2E0 JUMPI DUP2 PUSH1 0x3 NOT CALLDATASIZE ADD SLT PUSH2 0x2E0 JUMPI PUSH1 0x20 SWAP1 PUSH1 0xFF PUSH1 0x2 SLOAD AND SWAP1 MLOAD SWAP1 ISZERO ISZERO DUP2 MSTORE RETURN JUMPDEST DUP3 DUP6 CALLVALUE PUSH2 0x2E0 JUMPI PUSH1 0x20 CALLDATASIZE PUSH1 0x3 NOT ADD SLT PUSH2 0x2E0 JUMPI PUSH2 0x85E SWAP1 PUSH2 0xF1B PUSH1 0x1 PUSH2 0xEE2 PUSH2 0x2090 JUMP JUMPDEST SWAP3 PUSH2 0xEEB PUSH2 0x226B JUMP JUMPDEST PUSH32 0x92A9BFC44B11BDCB4CE1C7BB0F30145A060370F7684A9CF6C25518E577577269 DUP7 MSTORE DUP6 PUSH1 0x20 MSTORE DUP6 KECCAK256 ADD SLOAD PUSH2 0x22C3 JUMP JUMPDEST PUSH2 0x22E9 JUMP JUMPDEST DUP3 DUP6 DUP6 CALLVALUE PUSH2 0x43F JUMPI DUP2 PUSH1 0x3 NOT CALLDATASIZE ADD SLT PUSH2 0x43F JUMPI DUP1 CALLDATALOAD SWAP1 PUSH1 0x24 CALLDATALOAD PUSH8 0xFFFFFFFFFFFFFFFF DUP2 GT PUSH2 0x1113 JUMPI PUSH2 0xF55 SWAP1 CALLDATASIZE SWAP1 DUP4 ADD PUSH2 0x2153 JUMP JUMPDEST SWAP4 DUP4 ISZERO ISZERO DUP1 PUSH2 0x1108 JUMPI JUMPDEST PUSH2 0xF68 SWAP1 PUSH2 0x29EF JUMP JUMPDEST CALLER DUP7 MSTORE PUSH1 0x20 SWAP3 PUSH1 0x9 DUP5 MSTORE PUSH2 0xF84 PUSH1 0xFF PUSH1 0x5 DUP5 DUP11 KECCAK256 ADD SLOAD AND PUSH2 0x2A3B JUMP JUMPDEST CALLER DUP8 MSTORE PUSH1 0x9 DUP5 MSTORE PUSH2 0xFA1 PUSH1 0xFF PUSH1 0x5 DUP5 DUP11 KECCAK256 ADD SLOAD PUSH1 0x8 SHR AND ISZERO PUSH2 0x2A87 JUMP JUMPDEST CALLER DUP8 MSTORE PUSH1 0x9 DUP5 MSTORE DUP2 DUP8 KECCAK256 PUSH1 0x1 ADD SLOAD PUSH1 0x2 SLOAD DUP4 MLOAD PUSH4 0x63B36CC3 PUSH1 0xE1 SHL DUP2 MSTORE SWAP3 DUP7 SWAP2 DUP5 SWAP2 SWAP1 DUP3 SWAP1 PUSH1 0x8 SHR PUSH1 0x1 PUSH1 0x1 PUSH1 0xA0 SHL SUB AND GAS STATICCALL SWAP2 DUP3 ISZERO PUSH2 0x10FE JUMPI DUP9 SWAP3 PUSH2 0x10A9 JUMPI JUMPDEST POP PUSH32 0x5D7B755F33872C8C5FE6E178F7B9E167E0AA5F0407495210E7E0C8835A21CADB SWAP5 PUSH2 0x1018 PUSH2 0x109F SWAP6 SWAP5 SWAP4 PUSH1 0x9 SWAP4 LT ISZERO PUSH2 0x25CD JUMP JUMPDEST PUSH2 0x1020 PUSH2 0x26E7 JUMP JUMPDEST PUSH2 0x1028 PUSH2 0x26C9 JUMP JUMPDEST DUP7 DUP10 MSTORE PUSH1 0x6 DUP2 MSTORE PUSH2 0x1042 PUSH1 0xFF PUSH1 0x8 DUP6 DUP13 KECCAK256 ADD SLOAD AND ISZERO PUSH2 0x2AD2 JUMP JUMPDEST DUP7 DUP10 MSTORE PUSH1 0x8 DUP2 MSTORE DUP3 DUP10 KECCAK256 CALLER DUP11 MSTORE DUP2 MSTORE PUSH2 0x1061 PUSH1 0xFF DUP5 DUP12 KECCAK256 SLOAD AND ISZERO PUSH2 0x2B1E JUMP JUMPDEST DUP7 DUP10 MSTORE PUSH1 0x8 DUP2 MSTORE DUP3 DUP10 KECCAK256 CALLER DUP11 MSTORE DUP2 MSTORE DUP3 DUP10 KECCAK256 PUSH1 0x1 PUSH1 0xFF NOT DUP3 SLOAD AND OR SWAP1 SSTORE MSTORE PUSH1 0x3 DUP2 DUP9 KECCAK256 ADD PUSH2 0x108F DUP2 SLOAD PUSH2 0x2773 JUMP JUMPDEST SWAP1 SSTORE MLOAD SWAP2 DUP3 SWAP2 CALLER SWAP7 TIMESTAMP SWAP2 DUP5 PUSH2 0x2B6A JUMP JUMPDEST SUB SWAP1 LOG3 PUSH1 0x1 DUP1 SSTORE DUP1 RETURN JUMPDEST SWAP4 SWAP3 SWAP2 POP DUP5 DUP5 DUP2 RETURNDATASIZE DUP4 GT PUSH2 0x10F7 JUMPI JUMPDEST PUSH2 0x10C2 DUP2 DUP4 PUSH2 0x25AB JUMP JUMPDEST DUP2 ADD SUB SLT PUSH2 0x426 JUMPI SWAP3 MLOAD SWAP2 SWAP3 SWAP1 SWAP2 SWAP1 PUSH32 0x5D7B755F33872C8C5FE6E178F7B9E167E0AA5F0407495210E7E0C8835A21CADB PUSH2 0xFE2 JUMP JUMPDEST POP RETURNDATASIZE PUSH2 0x10B8 JUMP JUMPDEST DUP4 MLOAD RETURNDATASIZE DUP11 DUP3 RETURNDATACOPY RETURNDATASIZE SWAP1 REVERT JUMPDEST POP PUSH1 0x5 SLOAD DUP5 LT PUSH2 0xF5F JUMP JUMPDEST DUP5 DUP1 REVERT JUMPDEST DUP3 DUP6 DUP6 CALLVALUE PUSH2 0x43F JUMPI PUSH2 0x1128 CALLDATASIZE PUSH2 0x2121 JUMP JUMPDEST DUP2 SWAP3 SWAP2 ISZERO ISZERO DUP1 PUSH2 0x1431 JUMPI JUMPDEST PUSH2 0x113C SWAP1 PUSH2 0x29EF JUMP JUMPDEST CALLER DUP6 MSTORE PUSH1 0x20 SWAP1 PUSH1 0x9 DUP3 MSTORE PUSH2 0x1158 PUSH1 0xFF PUSH1 0x5 DUP8 DUP10 KECCAK256 ADD SLOAD AND PUSH2 0x2A3B JUMP JUMPDEST CALLER DUP7 MSTORE PUSH1 0x9 DUP3 MSTORE PUSH2 0x1175 PUSH1 0xFF PUSH1 0x5 DUP8 DUP10 KECCAK256 ADD SLOAD PUSH1 0x8 SHR AND ISZERO PUSH2 0x2A87 JUMP JUMPDEST CALLER DUP7 MSTORE PUSH1 0x9 DUP3 MSTORE PUSH1 0x1 SWAP5 DUP6 DUP2 DUP9 KECCAK256 ADD SLOAD SWAP3 DUP5 PUSH1 0x1 DUP1 PUSH1 0xA0 SHL SUB SWAP5 DUP3 DUP7 PUSH1 0x2 SLOAD PUSH1 0x8 SHR AND DUP6 MLOAD SWAP4 DUP5 DUP1 SWAP3 PUSH4 0x63B36CC3 PUSH1 0xE1 SHL DUP3 MSTORE GAS STATICCALL SWAP1 DUP2 ISZERO PUSH2 0x1427 JUMPI DUP11 SWAP2 PUSH2 0x13F2 JUMPI JUMPDEST PUSH2 0x11C4 SWAP3 POP LT ISZERO PUSH2 0x25CD JUMP JUMPDEST PUSH2 0x11CC PUSH2 0x26E7 JUMP JUMPDEST PUSH2 0x11D4 PUSH2 0x26C9 JUMP JUMPDEST DUP6 DUP9 MSTORE PUSH1 0x6 DUP2 MSTORE DUP2 DUP9 KECCAK256 SWAP5 PUSH2 0x11F0 PUSH1 0xFF PUSH1 0x8 DUP9 ADD SLOAD AND ISZERO PUSH2 0x2AD2 JUMP JUMPDEST PUSH1 0x3 DUP7 ADD SLOAD TIMESTAMP GT PUSH2 0x13B1 JUMPI DUP7 DUP10 MSTORE PUSH1 0x8 DUP3 MSTORE DUP3 DUP10 KECCAK256 CALLER DUP11 MSTORE DUP3 MSTORE PUSH2 0x121A PUSH1 0xFF DUP5 DUP12 KECCAK256 SLOAD AND ISZERO PUSH2 0x2B1E JUMP JUMPDEST DUP4 ISZERO PUSH2 0x1364 JUMPI DUP7 DUP10 MSTORE PUSH1 0x8 DUP3 MSTORE DUP3 DUP10 KECCAK256 CALLER DUP11 MSTORE DUP3 MSTORE DUP3 DUP10 KECCAK256 DUP9 PUSH1 0xFF NOT DUP3 SLOAD AND OR SWAP1 SSTORE PUSH1 0x6 DUP7 ADD SWAP5 PUSH2 0x124B DUP7 SLOAD PUSH2 0x2773 JUMP JUMPDEST DUP7 SSTORE DUP8 DUP11 MSTORE PUSH1 0x7 DUP4 MSTORE DUP4 DUP11 KECCAK256 SWAP1 DUP5 MLOAD SWAP1 PUSH2 0x1264 DUP3 PUSH2 0x2556 JUMP JUMPDEST CALLER DUP3 MSTORE DUP5 DUP3 ADD SWAP1 DUP8 DUP3 MSTORE DUP7 DUP4 ADD SWAP3 TIMESTAMP DUP5 MSTORE PUSH1 0x60 DUP2 ADD SWAP5 DUP14 DUP7 MSTORE DUP1 SLOAD SWAP1 PUSH1 0x1 PUSH1 0x40 SHL DUP3 LT ISZERO PUSH2 0x1350 JUMPI SWAP1 PUSH2 0x129B SWAP2 DUP16 DUP3 ADD DUP2 SSTORE PUSH2 0x2137 JUMP JUMPDEST SWAP7 SWAP1 SWAP7 PUSH2 0x133E JUMPI POP PUSH1 0x5 SWAP10 SWAP9 SWAP8 SWAP5 DUP13 SWAP8 SWAP5 DUP15 PUSH2 0x1310 SWAP6 PUSH32 0xDC37948D08732ED33078677FC43276D929DE5BC1D96EDC08562D508C79ADC01C SWAP10 SWAP6 PUSH1 0x3 SWAP6 MLOAD AND PUSH12 0xFFFFFFFFFFFFFFFFFFFFFFFF PUSH1 0xA0 SHL DUP8 SLOAD AND OR DUP7 SSTORE MLOAD SWAP1 DUP6 ADD SSTORE MLOAD PUSH1 0x2 DUP5 ADD SSTORE MLOAD ISZERO ISZERO SWAP2 ADD SWAP1 PUSH1 0xFF DUP1 NOT DUP4 SLOAD AND SWAP2 ISZERO ISZERO AND OR SWAP1 SSTORE JUMP JUMPDEST DUP2 MLOAD SWAP5 DUP6 MSTORE TIMESTAMP SWAP1 DUP6 ADD MSTORE CALLER SWAP4 LOG3 SLOAD SWAP2 ADD SLOAD GT ISZERO PUSH2 0x132E JUMPI JUMPDEST POP DUP1 SSTORE DUP1 RETURN JUMPDEST PUSH2 0x1337 SWAP1 PUSH2 0x2BC5 JUMP JUMPDEST POP DUP3 PUSH2 0x1328 JUMP JUMPDEST PUSH4 0x4E487B71 PUSH1 0xE0 SHL DUP16 MSTORE DUP15 SWAP1 MSTORE PUSH1 0x24 DUP15 REVERT JUMPDEST POP PUSH4 0x4E487B71 PUSH1 0xE0 SHL DUP16 MSTORE PUSH1 0x41 DUP8 MSTORE PUSH1 0x24 DUP16 REVERT JUMPDEST SWAP2 MLOAD PUSH3 0x461BCD PUSH1 0xE5 SHL DUP2 MSTORE SWAP2 DUP3 ADD MSTORE PUSH1 0x24 DUP1 DUP3 ADD MSTORE PUSH32 0x4665656450726F746F636F6C3A207072696365206D75737420626520706F7369 PUSH1 0x44 DUP3 ADD MSTORE PUSH4 0x74697665 PUSH1 0xE0 SHL PUSH1 0x64 DUP3 ADD MSTORE PUSH1 0x84 SWAP1 REVERT JUMPDEST SWAP2 MLOAD PUSH3 0x461BCD PUSH1 0xE5 SHL DUP2 MSTORE SWAP2 DUP3 ADD MSTORE PUSH1 0x1D PUSH1 0x24 DUP3 ADD MSTORE PUSH32 0x4665656450726F746F636F6C3A20726571756573742065787069726564000000 PUSH1 0x44 DUP3 ADD MSTORE PUSH1 0x64 SWAP1 REVERT JUMPDEST SWAP1 POP DUP3 DUP3 DUP2 RETURNDATASIZE DUP4 GT PUSH2 0x1420 JUMPI JUMPDEST PUSH2 0x1409 DUP2 DUP4 PUSH2 0x25AB JUMP JUMPDEST DUP2 ADD SUB SLT PUSH2 0x141C JUMPI PUSH2 0x11C4 SWAP2 MLOAD SWAP1 PUSH2 0x11B8 JUMP JUMPDEST DUP10 DUP1 REVERT JUMPDEST POP RETURNDATASIZE PUSH2 0x13FF JUMP JUMPDEST DUP5 MLOAD RETURNDATASIZE DUP13 DUP3 RETURNDATACOPY RETURNDATASIZE SWAP1 REVERT JUMPDEST POP PUSH1 0x5 SLOAD DUP4 LT PUSH2 0x1133 JUMP JUMPDEST DUP3 DUP6 DUP6 CALLVALUE PUSH2 0x43F JUMPI DUP3 PUSH1 0x3 NOT CALLDATASIZE ADD SLT PUSH2 0x43F JUMPI PUSH2 0x1457 PUSH2 0x226B JUMP JUMPDEST PUSH1 0x2 SLOAD SWAP1 PUSH1 0xFF DUP3 AND ISZERO PUSH2 0x1499 JUMPI POP PUSH1 0xFF NOT AND PUSH1 0x2 SSTORE MLOAD CALLER DUP2 MSTORE PUSH32 0x5DB9EE0A495BF2E6FF9C91A7834C1BA4FDD244A5E8AA4E537BD38AEAE4B073AA SWAP1 PUSH1 0x20 SWAP1 LOG1 DUP1 RETURN JUMPDEST DUP3 MLOAD PUSH4 0x8DFC202B PUSH1 0xE0 SHL DUP2 MSTORE REVERT JUMPDEST SWAP1 POP DUP3 DUP5 CALLVALUE PUSH2 0x43B JUMPI PUSH1 0x20 CALLDATASIZE PUSH1 0x3 NOT ADD SLT PUSH2 0x43B JUMPI DUP1 PUSH2 0x140 SWAP5 DUP4 CALLDATALOAD DUP2 MSTORE PUSH1 0x6 PUSH1 0x20 MSTORE KECCAK256 SWAP1 DUP2 SLOAD SWAP4 PUSH1 0x1 DUP4 ADD SLOAD SWAP4 PUSH1 0x2 DUP5 ADD SLOAD SWAP1 PUSH1 0xFF DUP3 PUSH1 0x8 SHR AND SWAP1 PUSH1 0x3 DUP7 ADD SLOAD SWAP1 DUP7 ADD SLOAD SWAP2 PUSH2 0x151F PUSH1 0x5 DUP9 ADD SLOAD SWAP5 PUSH1 0xFF PUSH1 0x6 DUP11 ADD SLOAD SWAP9 DUP2 PUSH1 0x8 PUSH1 0x7 DUP14 ADD SLOAD SWAP13 ADD SLOAD AND SWAP12 PUSH1 0x20 DUP3 MLOAD SWAP15 DUP16 SWAP1 DUP2 MSTORE ADD MSTORE DUP13 ADD SWAP2 AND PUSH2 0x2181 JUMP JUMPDEST PUSH2 0x1528 DUP2 PUSH2 0x21A4 JUMP JUMPDEST PUSH1 0x60 DUP10 ADD MSTORE PUSH1 0x80 DUP9 ADD MSTORE PUSH1 0xA0 DUP8 ADD MSTORE PUSH1 0xC0 DUP7 ADD MSTORE DUP5 ADD MSTORE PUSH2 0x100 DUP4 ADD MSTORE ISZERO ISZERO PUSH2 0x120 DUP3 ADD MSTORE RETURN JUMPDEST POP POP SWAP1 CALLVALUE PUSH2 0x2E0 JUMPI DUP2 PUSH1 0x3 NOT CALLDATASIZE ADD SLT PUSH2 0x2E0 JUMPI PUSH1 0xA SLOAD SWAP1 SWAP3 SWAP2 DUP1 DUP1 JUMPDEST DUP4 DUP2 LT PUSH2 0x1741 JUMPI POP PUSH2 0x1594 PUSH2 0x157F DUP3 PUSH2 0x2B99 JUMP JUMPDEST SWAP2 PUSH2 0x158C DUP7 MLOAD SWAP4 DUP5 PUSH2 0x25AB JUMP JUMPDEST DUP1 DUP4 MSTORE PUSH2 0x2B99 JUMP JUMPDEST PUSH1 0x20 SWAP6 DUP3 DUP8 ADD SWAP5 SWAP2 PUSH1 0x1F NOT ADD CALLDATASIZE DUP7 CALLDATACOPY DUP4 SWAP1 DUP5 JUMPDEST DUP4 DUP2 LT PUSH2 0x15F6 JUMPI POP POP POP POP DUP4 MLOAD SWAP5 DUP6 SWAP5 DUP2 DUP7 ADD SWAP3 DUP3 DUP8 MSTORE MLOAD DUP1 SWAP4 MSTORE DUP6 ADD SWAP4 SWAP3 JUMPDEST DUP3 DUP2 LT PUSH2 0x15D6 JUMPI POP POP POP POP SUB SWAP1 RETURN JUMPDEST DUP4 MLOAD PUSH1 0x1 PUSH1 0x1 PUSH1 0xA0 SHL SUB AND DUP6 MSTORE DUP7 SWAP6 POP SWAP4 DUP2 ADD SWAP4 SWAP3 DUP2 ADD SWAP3 PUSH1 0x1 ADD PUSH2 0x15C7 JUMP JUMPDEST PUSH2 0x1605 DUP2 SWAP10 SWAP7 SWAP6 SWAP8 SWAP9 SWAP10 PUSH2 0x20BC JUMP JUMPDEST PUSH1 0x1 DUP1 PUSH1 0xA0 SHL SUB DUP1 SWAP3 SLOAD PUSH1 0x3 SWAP3 DUP4 SHL SHR AND DUP8 MSTORE DUP11 PUSH1 0x9 DUP1 DUP11 MSTORE PUSH1 0xFF DUP1 PUSH1 0x5 DUP1 SWAP5 DUP13 KECCAK256 ADD SLOAD AND SWAP3 DUP4 PUSH2 0x1715 JUMPI JUMPDEST POP POP DUP2 PUSH2 0x1686 JUMPI JUMPDEST POP PUSH2 0x1655 JUMPI JUMPDEST POP POP PUSH2 0x164A SWAP1 PUSH2 0x2773 JUMP JUMPDEST SWAP8 SWAP7 SWAP6 SWAP4 SWAP5 SWAP8 PUSH2 0x15A7 JUMP JUMPDEST SWAP4 PUSH2 0x167E SWAP2 DUP4 SWAP6 PUSH2 0x1668 PUSH2 0x164A SWAP6 PUSH2 0x20BC JUMP JUMPDEST SWAP1 SLOAD SWAP2 SHL SHR AND PUSH2 0x1678 DUP3 DUP12 PUSH2 0x2BB1 JUMP JUMPDEST MSTORE PUSH2 0x2773 JUMP JUMPDEST SWAP3 SWAP1 CODESIZE PUSH2 0x163F JUMP JUMPDEST SWAP1 POP DUP3 PUSH2 0x1692 DUP6 PUSH2 0x20BC JUMP JUMPDEST SWAP1 SLOAD SWAP1 DUP5 SHL SHR AND DUP9 MSTORE DUP9 MSTORE DUP4 PUSH1 0x1 DUP13 DUP10 KECCAK256 ADD SLOAD DUP10 DUP14 DUP6 PUSH1 0x2 SLOAD PUSH1 0x8 SHR AND SWAP1 MLOAD SWAP4 DUP5 DUP1 SWAP3 PUSH4 0x63B36CC3 PUSH1 0xE1 SHL DUP3 MSTORE GAS STATICCALL SWAP2 DUP3 ISZERO PUSH2 0x170B JUMPI DUP10 SWAP3 PUSH2 0x16D8 JUMPI JUMPDEST POP LT ISZERO CODESIZE PUSH2 0x1639 JUMP JUMPDEST SWAP1 SWAP2 POP DUP10 DUP2 DUP2 RETURNDATASIZE DUP4 GT PUSH2 0x1704 JUMPI JUMPDEST PUSH2 0x16F0 DUP2 DUP4 PUSH2 0x25AB JUMP JUMPDEST DUP2 ADD SUB SLT PUSH2 0x1700 JUMPI MLOAD SWAP1 CODESIZE PUSH2 0x16CF JUMP JUMPDEST DUP9 DUP1 REVERT JUMPDEST POP RETURNDATASIZE PUSH2 0x16E6 JUMP JUMPDEST DUP14 MLOAD RETURNDATASIZE DUP12 DUP3 RETURNDATACOPY RETURNDATASIZE SWAP1 REVERT JUMPDEST SWAP1 SWAP2 SWAP3 POP DUP5 PUSH2 0x1723 DUP8 PUSH2 0x20BC JUMP JUMPDEST SWAP1 SLOAD SWAP1 DUP7 SHL SHR AND DUP11 MSTORE DUP3 DUP12 MSTORE DUP14 DUP11 KECCAK256 ADD SLOAD PUSH1 0x8 SHR AND ISZERO SWAP1 CODESIZE DUP1 PUSH2 0x1631 JUMP JUMPDEST PUSH2 0x1750 DUP2 SWAP7 SWAP4 SWAP3 SWAP5 SWAP6 SWAP7 PUSH2 0x20BC JUMP JUMPDEST SWAP1 SLOAD PUSH1 0x3 SWAP2 DUP3 SHL SHR PUSH1 0x1 PUSH1 0x1 PUSH1 0xA0 SHL SUB SWAP1 DUP2 AND DUP5 MSTORE PUSH1 0x9 PUSH1 0x20 DUP2 DUP2 MSTORE DUP10 DUP7 KECCAK256 PUSH1 0x5 SWAP1 DUP2 ADD SLOAD PUSH1 0xFF SWAP1 DUP2 AND SWAP5 SWAP3 SWAP4 SWAP2 DUP6 PUSH2 0x184F JUMPI JUMPDEST POP POP DUP4 PUSH2 0x17BF JUMPI JUMPDEST POP POP POP SWAP1 POP PUSH2 0x17AA JUMPI JUMPDEST PUSH2 0x179F SWAP1 PUSH2 0x2773 JUMP JUMPDEST SWAP5 SWAP4 SWAP3 SWAP1 SWAP2 SWAP5 PUSH2 0x156B JUMP JUMPDEST SWAP3 PUSH2 0x17B7 PUSH2 0x179F SWAP2 PUSH2 0x2773 JUMP JUMPDEST SWAP4 SWAP1 POP PUSH2 0x1796 JUMP JUMPDEST SWAP2 SWAP4 DUP2 SWAP4 POP PUSH2 0x17CD DUP7 PUSH2 0x20BC JUMP JUMPDEST SWAP1 SLOAD SWAP2 SHL SHR AND DUP6 MSTORE DUP3 MSTORE DUP5 DUP3 PUSH1 0x1 DUP11 DUP8 KECCAK256 ADD SLOAD SWAP3 PUSH1 0x2 SLOAD PUSH1 0x8 SHR AND DUP11 MLOAD SWAP3 DUP4 DUP1 SWAP3 PUSH4 0x63B36CC3 PUSH1 0xE1 SHL DUP3 MSTORE GAS STATICCALL SWAP3 DUP4 ISZERO PUSH2 0x1845 JUMPI DUP6 SWAP4 PUSH2 0x1815 JUMPI JUMPDEST POP POP LT ISZERO DUP1 CODESIZE DUP1 DUP1 PUSH2 0x178C JUMP JUMPDEST SWAP1 DUP1 SWAP3 SWAP4 POP DUP2 RETURNDATASIZE DUP4 GT PUSH2 0x183E JUMPI JUMPDEST PUSH2 0x182D DUP2 DUP4 PUSH2 0x25AB JUMP JUMPDEST DUP2 ADD SUB SLT PUSH2 0x43B JUMPI MLOAD SWAP1 CODESIZE DUP1 PUSH2 0x1808 JUMP JUMPDEST POP RETURNDATASIZE PUSH2 0x1823 JUMP JUMPDEST DUP10 MLOAD RETURNDATASIZE DUP8 DUP3 RETURNDATACOPY RETURNDATASIZE SWAP1 REVERT JUMPDEST SWAP1 SWAP2 SWAP5 POP DUP3 PUSH2 0x185D DUP9 PUSH2 0x20BC JUMP JUMPDEST SWAP1 SLOAD SWAP1 DUP9 SHL SHR AND DUP9 MSTORE DUP5 DUP5 MSTORE DUP12 DUP9 KECCAK256 ADD SLOAD PUSH1 0x8 SHR AND ISZERO SWAP3 CODESIZE DUP1 PUSH2 0x1784 JUMP JUMPDEST POP POP DUP3 CALLVALUE PUSH2 0x2E0 JUMPI DUP1 PUSH1 0x3 NOT CALLDATASIZE ADD SLT PUSH2 0x2E0 JUMPI PUSH2 0x1896 PUSH2 0x20A6 JUMP JUMPDEST SWAP1 CALLER PUSH1 0x1 PUSH1 0x1 PUSH1 0xA0 SHL SUB DUP4 AND SUB PUSH2 0x18B3 JUMPI POP PUSH2 0x85E SWAP2 SWAP3 CALLDATALOAD PUSH2 0x24AF JUMP JUMPDEST MLOAD PUSH4 0x334BD919 PUSH1 0xE1 SHL DUP2 MSTORE DUP4 SWAP1 REVERT JUMPDEST DUP3 DUP6 CALLVALUE PUSH2 0x2E0 JUMPI DUP2 PUSH1 0x3 NOT CALLDATASIZE ADD SLT PUSH2 0x2E0 JUMPI PUSH1 0x3 SLOAD SWAP1 MLOAD PUSH1 0x1 PUSH1 0x1 PUSH1 0xA0 SHL SUB SWAP1 SWAP2 AND DUP2 MSTORE PUSH1 0x20 SWAP1 RETURN JUMPDEST POP POP SWAP2 CALLVALUE PUSH2 0x43F JUMPI DUP1 PUSH1 0x3 NOT CALLDATASIZE ADD SLT PUSH2 0x43F JUMPI PUSH2 0x85E SWAP2 CALLDATALOAD PUSH2 0x1910 PUSH1 0x1 PUSH2 0x848 PUSH2 0x20A6 JUMP JUMPDEST PUSH2 0x2436 JUMP JUMPDEST POP POP DUP3 CALLVALUE PUSH2 0x2E0 JUMPI DUP1 PUSH1 0x3 NOT CALLDATASIZE ADD SLT PUSH2 0x2E0 JUMPI PUSH2 0x1930 PUSH2 0x2090 JUMP JUMPDEST SWAP3 PUSH1 0x24 CALLDATALOAD PUSH8 0xFFFFFFFFFFFFFFFF DUP2 GT PUSH2 0x43B JUMPI PUSH2 0x1950 SWAP1 CALLDATASIZE SWAP1 DUP4 ADD PUSH2 0x2153 JUMP JUMPDEST SWAP1 SWAP2 PUSH32 0x70B284DA8BFC3DE812DAA2261B4C3FFADD90C2C772295293D09C9629A737A0CD DUP6 MSTORE DUP5 PUSH1 0x20 MSTORE DUP4 DUP6 KECCAK256 CALLER DUP7 MSTORE PUSH1 0x20 MSTORE PUSH1 0xFF DUP5 DUP7 KECCAK256 SLOAD AND ISZERO PUSH2 0x19EC JUMPI POP PUSH2 0x19E6 PUSH32 0xA172CC290B2E00BC2A34C06A4D70CD942037859CCA624F051CD830B4B268EAC5 SWAP4 SWAP5 SWAP6 PUSH1 0x1 DUP1 PUSH1 0xA0 SHL SUB AND SWAP5 DUP6 DUP8 MSTORE PUSH1 0x9 PUSH1 0x20 MSTORE PUSH1 0x5 DUP2 DUP9 KECCAK256 ADD PUSH2 0x100 PUSH2 0xFFFF NOT DUP3 SLOAD AND OR SWAP1 SSTORE MLOAD SWAP3 DUP4 SWAP3 TIMESTAMP SWAP2 DUP5 PUSH2 0x2B6A JUMP JUMPDEST SUB SWAP1 LOG2 DUP1 RETURN JUMPDEST PUSH1 0x64 SWAP1 PUSH1 0x20 DUP6 MLOAD SWAP2 PUSH3 0x461BCD PUSH1 0xE5 SHL DUP4 MSTORE DUP3 ADD MSTORE PUSH1 0x1A PUSH1 0x24 DUP3 ADD MSTORE PUSH32 0x4665656450726F746F636F6C3A206E6F74206F70657261746F72000000000000 PUSH1 0x44 DUP3 ADD MSTORE REVERT JUMPDEST DUP3 DUP6 CALLVALUE PUSH2 0x2E0 JUMPI DUP2 PUSH1 0x3 NOT CALLDATASIZE ADD SLT PUSH2 0x2E0 JUMPI PUSH1 0x20 SWAP1 MLOAD PUSH32 0x70B284DA8BFC3DE812DAA2261B4C3FFADD90C2C772295293D09C9629A737A0CD DUP2 MSTORE RETURN JUMPDEST POP POP SWAP1 CALLVALUE PUSH2 0x2E0 JUMPI PUSH1 0x20 SWAP3 DUP4 PUSH1 0x3 NOT CALLDATASIZE ADD SLT PUSH2 0x43F JUMPI DUP2 CALLDATALOAD SWAP2 PUSH2 0x1A8B PUSH2 0x26E7 JUMP JUMPDEST PUSH2 0x1A93 PUSH2 0x26C9 JUMP JUMPDEST CALLER DUP5 MSTORE PUSH1 0x9 DUP6 MSTORE DUP2 DUP5 KECCAK256 SWAP1 PUSH1 0x1 DUP3 ADD SWAP1 DUP2 SLOAD SWAP7 PUSH2 0x1AB2 DUP7 DUP10 LT ISZERO PUSH2 0x25CD JUMP JUMPDEST PUSH2 0x1ABC DUP7 DUP10 PUSH2 0x272D JUMP JUMPDEST PUSH1 0x2 SLOAD DUP7 MLOAD PUSH4 0x63B36CC3 PUSH1 0xE1 SHL DUP2 MSTORE PUSH1 0x1 PUSH1 0x1 PUSH1 0xA0 SHL SUB SWAP8 SWAP3 SWAP1 SWAP2 DUP5 SWAP1 DUP4 SWAP1 DUP8 SWAP1 DUP3 SWAP1 PUSH1 0x8 SHR DUP13 AND GAS STATICCALL SWAP2 DUP3 ISZERO PUSH2 0x1BD8 JUMPI DUP11 SWAP3 PUSH2 0x1BA9 JUMPI JUMPDEST POP LT DUP1 ISZERO SWAP1 PUSH2 0x1BA0 JUMPI JUMPDEST ISZERO PUSH2 0x1B41 JUMPI POP POP POP PUSH2 0x1B14 DUP5 PUSH2 0x1B29 SWAP7 SWAP8 PUSH2 0x272D JUMP JUMPDEST DUP1 SWAP2 SSTORE ISZERO PUSH2 0x1B30 JUMPI JUMPDEST POP CALLER SWAP1 PUSH1 0x3 SLOAD AND PUSH2 0x273A JUMP JUMPDEST PUSH1 0x1 DUP1 SSTORE DUP1 RETURN JUMPDEST PUSH1 0x5 ADD DUP1 SLOAD PUSH1 0xFF NOT AND SWAP1 SSTORE CODESIZE PUSH2 0x1B1D JUMP JUMPDEST MLOAD PUSH3 0x461BCD PUSH1 0xE5 SHL DUP2 MSTORE SWAP2 DUP3 ADD MSTORE PUSH1 0x35 PUSH1 0x24 DUP3 ADD MSTORE PUSH32 0x4665656450726F746F636F6C3A206D757374206D61696E7461696E206D696E20 PUSH1 0x44 DUP3 ADD MSTORE PUSH21 0x1CDD185AD9481BDC881DDA5D1A191C985DC8185B1B PUSH1 0x5A SHL PUSH1 0x64 DUP3 ADD MSTORE PUSH1 0x84 SWAP2 POP REVERT JUMPDEST POP DUP9 DUP8 EQ PUSH2 0x1AFE JUMP JUMPDEST SWAP1 SWAP2 POP DUP4 DUP2 DUP2 RETURNDATASIZE DUP4 GT PUSH2 0x1BD1 JUMPI JUMPDEST PUSH2 0x1BC1 DUP2 DUP4 PUSH2 0x25AB JUMP JUMPDEST DUP2 ADD SUB SLT PUSH2 0x141C JUMPI MLOAD SWAP1 CODESIZE PUSH2 0x1AF4 JUMP JUMPDEST POP RETURNDATASIZE PUSH2 0x1BB7 JUMP JUMPDEST DUP4 MLOAD RETURNDATASIZE DUP13 DUP3 RETURNDATACOPY RETURNDATASIZE SWAP1 REVERT JUMPDEST DUP3 DUP6 DUP6 CALLVALUE PUSH2 0x43F JUMPI PUSH1 0x20 CALLDATASIZE PUSH1 0x3 NOT ADD SLT PUSH2 0x43F JUMPI DUP2 PUSH1 0x20 SWAP4 PUSH1 0x1 SWAP3 CALLDATALOAD DUP2 MSTORE DUP1 DUP6 MSTORE KECCAK256 ADD SLOAD SWAP1 MLOAD SWAP1 DUP2 MSTORE RETURN JUMPDEST DUP3 CALLVALUE PUSH2 0x2E4 JUMPI PUSH1 0x20 CALLDATASIZE PUSH1 0x3 NOT ADD SLT PUSH2 0x2E4 JUMPI PUSH2 0x1C27 PUSH2 0x2090 JUMP JUMPDEST PUSH2 0x1C2F PUSH2 0x226B JUMP JUMPDEST PUSH1 0x2 DUP1 SLOAD PUSH2 0x100 PUSH1 0x1 PUSH1 0xA8 SHL SUB NOT AND PUSH1 0x8 SWAP3 SWAP1 SWAP3 SHL PUSH2 0x100 PUSH1 0x1 PUSH1 0xA8 SHL SUB AND SWAP2 SWAP1 SWAP2 OR SWAP1 SSTORE DUP1 RETURN JUMPDEST POP POP SWAP1 CALLVALUE PUSH2 0x2E0 JUMPI PUSH1 0x20 SWAP1 DUP2 PUSH1 0x3 NOT CALLDATASIZE ADD SLT PUSH2 0x43F JUMPI SWAP1 SWAP2 DUP2 CALLDATALOAD DUP2 MSTORE PUSH1 0x7 DUP4 MSTORE DUP4 DUP2 KECCAK256 SWAP2 DUP3 SLOAD PUSH2 0x1C86 DUP2 PUSH2 0x2B99 JUMP JUMPDEST SWAP2 PUSH2 0x1C93 DUP8 MLOAD SWAP4 DUP5 PUSH2 0x25AB JUMP JUMPDEST DUP2 DUP4 MSTORE DUP6 DUP4 ADD DUP1 SWAP6 DUP6 MSTORE DUP7 DUP6 KECCAK256 DUP6 SWAP2 JUMPDEST DUP5 DUP4 LT PUSH2 0x1D0D JUMPI POP POP POP POP POP DUP5 MLOAD SWAP4 DUP1 DUP6 ADD SWAP2 DUP2 DUP7 MSTORE MLOAD DUP1 SWAP3 MSTORE DUP6 DUP6 ADD SWAP4 SWAP3 JUMPDEST DUP3 DUP2 LT PUSH2 0x1CD0 JUMPI DUP6 DUP6 SUB DUP7 RETURN JUMPDEST DUP4 MLOAD DUP1 MLOAD PUSH1 0x1 PUSH1 0x1 PUSH1 0xA0 SHL SUB AND DUP7 MSTORE DUP1 DUP4 ADD MLOAD DUP7 DUP5 ADD MSTORE DUP8 DUP2 ADD MLOAD DUP9 DUP8 ADD MSTORE PUSH1 0x60 SWAP1 DUP2 ADD MLOAD ISZERO ISZERO SWAP1 DUP7 ADD MSTORE PUSH1 0x80 SWAP1 SWAP5 ADD SWAP4 SWAP3 DUP2 ADD SWAP3 PUSH1 0x1 ADD PUSH2 0x1CC3 JUMP JUMPDEST DUP4 DUP10 PUSH1 0x1 SWAP3 DUP13 SWAP12 SWAP9 SWAP10 SWAP12 MLOAD PUSH2 0x1D21 DUP2 PUSH2 0x2556 JUMP JUMPDEST DUP5 DUP1 PUSH1 0xA0 SHL SUB DUP7 SLOAD AND DUP2 MSTORE DUP5 DUP7 ADD SLOAD DUP4 DUP3 ADD MSTORE DUP14 PUSH1 0x2 DUP8 ADD SLOAD SWAP1 DUP3 ADD MSTORE PUSH1 0xFF PUSH1 0x3 DUP8 ADD SLOAD AND ISZERO ISZERO PUSH1 0x60 DUP3 ADD MSTORE DUP2 MSTORE ADD SWAP3 ADD SWAP3 ADD SWAP2 SWAP1 SWAP8 SWAP6 SWAP5 SWAP8 PUSH2 0x1CA3 JUMP JUMPDEST DUP3 DUP6 DUP6 CALLVALUE PUSH2 0x43F JUMPI PUSH1 0xC0 CALLDATASIZE PUSH1 0x3 NOT ADD SLT PUSH2 0x43F JUMPI CALLDATALOAD SWAP1 PUSH1 0x3 DUP3 LT ISZERO PUSH2 0x43F JUMPI PUSH1 0x24 CALLDATALOAD SWAP2 PUSH1 0xFF DUP4 AND DUP1 SWAP4 SUB PUSH2 0x43B JUMPI PUSH1 0x44 CALLDATALOAD SWAP2 PUSH1 0xFF DUP4 AND DUP1 SWAP4 SUB PUSH2 0x1113 JUMPI PUSH1 0x3 SWAP3 PUSH2 0x1DA7 PUSH2 0x226B JUMP JUMPDEST DUP2 MLOAD SWAP5 PUSH2 0x1DB3 DUP7 PUSH2 0x2524 JUMP JUMPDEST DUP6 MSTORE PUSH1 0x20 DUP6 ADD SWAP1 DUP2 MSTORE DUP2 DUP6 ADD SWAP1 PUSH1 0x64 CALLDATALOAD DUP3 MSTORE PUSH1 0xFF PUSH1 0x60 DUP8 ADD SWAP4 PUSH1 0x84 CALLDATALOAD DUP6 MSTORE PUSH1 0x80 DUP9 ADD SWAP6 PUSH1 0xA4 CALLDATALOAD DUP8 MSTORE PUSH2 0x1DE4 DUP2 PUSH2 0x21A4 JUMP JUMPDEST DUP10 MSTORE PUSH1 0xB PUSH1 0x20 MSTORE DUP9 KECCAK256 SWAP7 MLOAD AND PUSH2 0xFF00 DUP8 SLOAD SWAP3 MLOAD PUSH1 0x8 SHL AND SWAP2 PUSH2 0xFFFF NOT AND OR OR DUP6 SSTORE MLOAD PUSH1 0x1 DUP6 ADD SSTORE MLOAD PUSH1 0x2 DUP5 ADD SSTORE MLOAD SWAP2 ADD SSTORE DUP1 RETURN JUMPDEST DUP3 DUP6 CALLVALUE PUSH2 0x2E0 JUMPI PUSH2 0x1E28 CALLDATASIZE PUSH2 0x2121 JUMP JUMPDEST SWAP3 SWAP1 DUP2 MSTORE PUSH1 0x7 PUSH1 0x20 MSTORE DUP2 DUP2 KECCAK256 SWAP1 DUP2 SLOAD DUP5 LT ISZERO PUSH2 0x2E4 JUMPI POP PUSH1 0x80 SWAP3 PUSH2 0x1E4B SWAP2 PUSH2 0x2137 JUMP JUMPDEST POP SWAP1 PUSH1 0x1 DUP1 PUSH1 0xA0 SHL SUB DUP3 SLOAD AND SWAP2 PUSH1 0x1 DUP2 ADD SLOAD SWAP2 PUSH1 0xFF PUSH1 0x3 PUSH1 0x2 DUP5 ADD SLOAD SWAP4 ADD SLOAD AND SWAP3 DUP2 MLOAD SWAP5 DUP6 MSTORE PUSH1 0x20 DUP6 ADD MSTORE DUP4 ADD MSTORE ISZERO ISZERO PUSH1 0x60 DUP3 ADD MSTORE RETURN JUMPDEST DUP3 DUP6 DUP6 CALLVALUE PUSH2 0x43F JUMPI PUSH1 0x20 CALLDATASIZE PUSH1 0x3 NOT ADD SLT PUSH2 0x43F JUMPI CALLDATALOAD SWAP2 PUSH1 0xA SLOAD DUP4 LT ISZERO PUSH2 0x2E4 JUMPI POP PUSH2 0x1EAE PUSH1 0x20 SWAP3 PUSH2 0x20BC JUMP JUMPDEST SWAP1 SLOAD SWAP2 MLOAD SWAP2 PUSH1 0x1 DUP1 PUSH1 0xA0 SHL SUB SWAP2 PUSH1 0x3 SHL SHR AND DUP2 MSTORE RETURN JUMPDEST DUP4 DUP6 DUP5 CALLVALUE PUSH2 0x2E4 JUMPI PUSH1 0x20 CALLDATASIZE PUSH1 0x3 NOT ADD SLT PUSH2 0x2E4 JUMPI PUSH1 0xFF SWAP2 SWAP1 PUSH1 0x1 PUSH1 0x1 PUSH1 0xA0 SHL SUB SWAP1 DUP3 SWAP1 DUP3 PUSH2 0x1EF0 PUSH2 0x2090 JUMP JUMPDEST AND DUP2 MSTORE PUSH1 0x9 PUSH1 0x20 MSTORE KECCAK256 SWAP1 DUP2 SLOAD AND SWAP4 PUSH1 0x1 DUP3 ADD SLOAD SWAP3 PUSH1 0x2 DUP4 ADD SLOAD SWAP1 PUSH1 0x5 PUSH1 0x3 DUP6 ADD SLOAD SWAP4 DUP6 ADD SLOAD SWAP5 ADD SLOAD SWAP5 DUP2 MLOAD SWAP8 DUP9 MSTORE PUSH1 0x20 DUP9 ADD MSTORE DUP7 ADD MSTORE PUSH1 0x60 DUP6 ADD MSTORE PUSH1 0x80 DUP5 ADD MSTORE DUP2 DUP2 AND ISZERO ISZERO PUSH1 0xA0 DUP5 ADD MSTORE PUSH1 0x8 SHR AND ISZERO ISZERO PUSH1 0xC0 DUP3 ADD MSTORE RETURN JUMPDEST PUSH1 0xFF DUP5 DUP3 DUP8 PUSH2 0x1F55 CALLDATASIZE PUSH2 0x205F JUMP JUMPDEST SWAP6 SWAP2 SWAP4 SWAP1 SWAP5 PUSH1 0x0 DUP1 MLOAD PUSH1 0x20 PUSH2 0x320A DUP4 CODECOPY DUP2 MLOAD SWAP2 MSTORE DUP2 MSTORE DUP1 PUSH1 0x20 MSTORE DUP2 DUP2 KECCAK256 CALLER DUP3 MSTORE PUSH1 0x20 MSTORE KECCAK256 SLOAD AND ISZERO PUSH2 0x1F91 JUMPI PUSH1 0x20 DUP6 PUSH2 0xE25 DUP7 DUP7 DUP7 PUSH2 0xE20 PUSH2 0x26E7 JUMP JUMPDEST PUSH1 0x84 SWAP1 PUSH1 0x20 DUP7 MLOAD SWAP2 PUSH3 0x461BCD PUSH1 0xE5 SHL DUP4 MSTORE DUP3 ADD MSTORE PUSH1 0x25 PUSH1 0x24 DUP3 ADD MSTORE PUSH32 0x4665656450726F746F636F6C3A206E6F7420617574686F72697A65642070726F PUSH1 0x44 DUP3 ADD MSTORE PUSH5 0x1D1BD8DBDB PUSH1 0xDA SHL PUSH1 0x64 DUP3 ADD MSTORE REVERT JUMPDEST DUP3 DUP6 CALLVALUE PUSH2 0x2E0 JUMPI DUP2 PUSH1 0x3 NOT CALLDATASIZE ADD SLT PUSH2 0x2E0 JUMPI PUSH1 0x20 SWAP1 MLOAD PUSH1 0x0 DUP1 MLOAD PUSH1 0x20 PUSH2 0x320A DUP4 CODECOPY DUP2 MLOAD SWAP2 MSTORE DUP2 MSTORE RETURN JUMPDEST DUP4 SWAP1 DUP6 CALLVALUE PUSH2 0x43F JUMPI PUSH1 0x20 CALLDATASIZE PUSH1 0x3 NOT ADD SLT PUSH2 0x43F JUMPI CALLDATALOAD PUSH4 0xFFFFFFFF PUSH1 0xE0 SHL DUP2 AND DUP1 SWAP2 SUB PUSH2 0x43F JUMPI PUSH1 0x20 SWAP3 POP PUSH4 0x7965DB0B PUSH1 0xE0 SHL DUP2 EQ SWAP1 DUP2 ISZERO PUSH2 0x204E JUMPI JUMPDEST POP ISZERO ISZERO DUP2 MSTORE RETURN JUMPDEST PUSH4 0x1FFC9A7 PUSH1 0xE0 SHL EQ SWAP1 POP DUP4 PUSH2 0x2047 JUMP JUMPDEST PUSH1 0x60 SWAP1 PUSH1 0x3 NOT ADD SLT PUSH2 0x208B JUMPI PUSH1 0x4 CALLDATALOAD SWAP1 PUSH1 0x24 CALLDATALOAD PUSH1 0x4 DUP2 LT ISZERO PUSH2 0x208B JUMPI SWAP1 PUSH1 0x44 CALLDATALOAD PUSH1 0x3 DUP2 LT ISZERO PUSH2 0x208B JUMPI SWAP1 JUMP JUMPDEST PUSH1 0x0 DUP1 REVERT JUMPDEST PUSH1 0x4 CALLDATALOAD SWAP1 PUSH1 0x1 PUSH1 0x1 PUSH1 0xA0 SHL SUB DUP3 AND DUP3 SUB PUSH2 0x208B JUMPI JUMP JUMPDEST PUSH1 0x24 CALLDATALOAD SWAP1 PUSH1 0x1 PUSH1 0x1 PUSH1 0xA0 SHL SUB DUP3 AND DUP3 SUB PUSH2 0x208B JUMPI JUMP JUMPDEST PUSH1 0xA SLOAD DUP2 LT ISZERO PUSH2 0x20F3 JUMPI PUSH1 0xA PUSH1 0x0 MSTORE PUSH32 0xC65A7BB8D6351C1CF70C95A316CC6A92839C986682D98BC35F958F4883F9D2A8 ADD SWAP1 PUSH1 0x0 SWAP1 JUMP JUMPDEST PUSH4 0x4E487B71 PUSH1 0xE0 SHL PUSH1 0x0 MSTORE PUSH1 0x32 PUSH1 0x4 MSTORE PUSH1 0x24 PUSH1 0x0 REVERT JUMPDEST DUP1 SLOAD DUP3 LT ISZERO PUSH2 0x20F3 JUMPI PUSH1 0x0 MSTORE PUSH1 0x20 PUSH1 0x0 KECCAK256 ADD SWAP1 PUSH1 0x0 SWAP1 JUMP JUMPDEST PUSH1 0x40 SWAP1 PUSH1 0x3 NOT ADD SLT PUSH2 0x208B JUMPI PUSH1 0x4 CALLDATALOAD SWAP1 PUSH1 0x24 CALLDATALOAD SWAP1 JUMP JUMPDEST DUP1 SLOAD DUP3 LT ISZERO PUSH2 0x20F3 JUMPI PUSH1 0x0 MSTORE PUSH1 0x20 PUSH1 0x0 KECCAK256 SWAP1 PUSH1 0x2 SHL ADD SWAP1 PUSH1 0x0 SWAP1 JUMP JUMPDEST SWAP2 DUP2 PUSH1 0x1F DUP5 ADD SLT ISZERO PUSH2 0x208B JUMPI DUP3 CALLDATALOAD SWAP2 PUSH8 0xFFFFFFFFFFFFFFFF DUP4 GT PUSH2 0x208B JUMPI PUSH1 0x20 DUP4 DUP2 DUP7 ADD SWAP6 ADD ADD GT PUSH2 0x208B JUMPI JUMP JUMPDEST SWAP1 PUSH1 0x4 DUP3 LT ISZERO PUSH2 0x218E JUMPI MSTORE JUMP JUMPDEST PUSH4 0x4E487B71 PUSH1 0xE0 SHL PUSH1 0x0 MSTORE PUSH1 0x21 PUSH1 0x4 MSTORE PUSH1 0x24 PUSH1 0x0 REVERT JUMPDEST PUSH1 0x3 GT ISZERO PUSH2 0x218E JUMPI JUMP JUMPDEST DUP1 MLOAD DUP3 MSTORE PUSH1 0x20 DUP2 ADD MLOAD PUSH1 0x20 DUP4 ADD MSTORE PUSH2 0x21CE PUSH1 0x40 DUP3 ADD MLOAD PUSH1 0x40 DUP5 ADD SWAP1 PUSH2 0x2181 JUMP JUMPDEST PUSH1 0x60 DUP2 ADD MLOAD PUSH2 0x21DC DUP2 PUSH2 0x21A4 JUMP JUMPDEST PUSH1 0x60 DUP4 ADD MSTORE PUSH1 0x80 DUP2 ADD MLOAD PUSH1 0x80 DUP4 ADD MSTORE PUSH1 0xA0 DUP2 ADD MLOAD PUSH1 0xA0 DUP4 ADD MSTORE PUSH1 0xC0 DUP2 ADD MLOAD PUSH1 0xC0 DUP4 ADD MSTORE PUSH1 0xE0 DUP2 ADD MLOAD PUSH1 0xE0 DUP4 ADD MSTORE PUSH2 0x100 DUP1 DUP3 ADD MLOAD SWAP1 DUP4 ADD MSTORE PUSH2 0x120 DUP1 SWAP2 ADD MLOAD ISZERO ISZERO SWAP2 ADD MSTORE JUMP JUMPDEST PUSH1 0x20 SWAP1 DUP2 PUSH1 0x40 DUP2 DUP4 ADD SWAP3 DUP3 DUP2 MSTORE DUP6 MLOAD DUP1 SWAP5 MSTORE ADD SWAP4 ADD SWAP2 PUSH1 0x0 JUMPDEST DUP3 DUP2 LT PUSH2 0x2249 JUMPI POP POP POP POP SWAP1 JUMP JUMPDEST SWAP1 SWAP2 SWAP3 SWAP4 DUP3 PUSH2 0x140 DUP3 PUSH2 0x225F PUSH1 0x1 SWAP5 DUP10 MLOAD PUSH2 0x21AE JUMP JUMPDEST ADD SWAP6 ADD SWAP4 SWAP3 SWAP2 ADD PUSH2 0x223B JUMP JUMPDEST CALLER PUSH1 0x0 SWAP1 DUP2 MSTORE PUSH32 0xAD3228B676F7D3CD4284A5443F17F1962B36E491B30A40B2405849E597BA5FB5 PUSH1 0x20 MSTORE PUSH1 0x40 DUP2 KECCAK256 SLOAD PUSH1 0xFF AND ISZERO PUSH2 0x22A5 JUMPI POP JUMP JUMPDEST PUSH1 0x44 SWAP1 PUSH1 0x40 MLOAD SWAP1 PUSH4 0xE2517D3F PUSH1 0xE0 SHL DUP3 MSTORE CALLER PUSH1 0x4 DUP4 ADD MSTORE PUSH1 0x24 DUP3 ADD MSTORE REVERT JUMPDEST DUP1 PUSH1 0x0 MSTORE PUSH1 0x0 PUSH1 0x20 MSTORE PUSH1 0x40 PUSH1 0x0 KECCAK256 CALLER PUSH1 0x0 MSTORE PUSH1 0x20 MSTORE PUSH1 0xFF PUSH1 0x40 PUSH1 0x0 KECCAK256 SLOAD AND ISZERO PUSH2 0x22A5 JUMPI POP JUMP JUMPDEST PUSH1 0x1 PUSH1 0x1 PUSH1 0xA0 SHL SUB AND PUSH1 0x0 DUP2 DUP2 MSTORE PUSH32 0xB9AA941ADAEC809E6B0427677375AC0B3D84BA99295EC0BA010B381B51E94791 PUSH1 0x20 MSTORE PUSH1 0x40 DUP2 KECCAK256 SLOAD SWAP1 SWAP2 SWAP1 PUSH32 0x92A9BFC44B11BDCB4CE1C7BB0F30145A060370F7684A9CF6C25518E577577269 SWAP1 PUSH1 0xFF AND PUSH2 0x2396 JUMPI DUP1 DUP4 MSTORE DUP3 PUSH1 0x20 MSTORE PUSH1 0x40 DUP4 KECCAK256 DUP3 DUP5 MSTORE PUSH1 0x20 MSTORE PUSH1 0x40 DUP4 KECCAK256 PUSH1 0x1 PUSH1 0xFF NOT DUP3 SLOAD AND OR SWAP1 SSTORE PUSH32 0x2F8788117E7EFF1D82E926EC794901D17C78024A50270940304540A733656F0D CALLER SWAP4 DUP1 LOG4 PUSH1 0x1 SWAP1 JUMP JUMPDEST POP POP SWAP1 JUMP JUMPDEST PUSH1 0x1 PUSH1 0x1 PUSH1 0xA0 SHL SUB AND PUSH1 0x0 DUP2 DUP2 MSTORE PUSH32 0xBB186CC6582165753931A58FDAAC99B9482F9D63C76229808BD3AFC382E98215 PUSH1 0x20 MSTORE PUSH1 0x40 DUP2 KECCAK256 SLOAD SWAP1 SWAP2 SWAP1 PUSH1 0x0 DUP1 MLOAD PUSH1 0x20 PUSH2 0x320A DUP4 CODECOPY DUP2 MLOAD SWAP2 MSTORE SWAP1 PUSH1 0xFF AND PUSH2 0x2396 JUMPI DUP1 DUP4 MSTORE DUP3 PUSH1 0x20 MSTORE PUSH1 0x40 DUP4 KECCAK256 DUP3 DUP5 MSTORE PUSH1 0x20 MSTORE PUSH1 0x40 DUP4 KECCAK256 PUSH1 0x1 PUSH1 0xFF NOT DUP3 SLOAD AND OR SWAP1 SSTORE PUSH32 0x2F8788117E7EFF1D82E926EC794901D17C78024A50270940304540A733656F0D CALLER SWAP4 DUP1 LOG4 PUSH1 0x1 SWAP1 JUMP JUMPDEST SWAP1 PUSH1 0x0 SWAP2 DUP1 DUP4 MSTORE DUP3 PUSH1 0x20 MSTORE PUSH1 0x40 DUP4 KECCAK256 SWAP2 PUSH1 0x1 DUP1 PUSH1 0xA0 SHL SUB AND SWAP2 DUP3 DUP5 MSTORE PUSH1 0x20 MSTORE PUSH1 0xFF PUSH1 0x40 DUP5 KECCAK256 SLOAD AND ISZERO PUSH1 0x0 EQ PUSH2 0x2396 JUMPI DUP1 DUP4 MSTORE DUP3 PUSH1 0x20 MSTORE PUSH1 0x40 DUP4 KECCAK256 DUP3 DUP5 MSTORE PUSH1 0x20 MSTORE PUSH1 0x40 DUP4 KECCAK256 PUSH1 0x1 PUSH1 0xFF NOT DUP3 SLOAD AND OR SWAP1 SSTORE PUSH32 0x2F8788117E7EFF1D82E926EC794901D17C78024A50270940304540A733656F0D CALLER SWAP4 DUP1 LOG4 PUSH1 0x1 SWAP1 JUMP JUMPDEST SWAP1 PUSH1 0x0 SWAP2 DUP1 DUP4 MSTORE DUP3 PUSH1 0x20 MSTORE PUSH1 0x40 DUP4 KECCAK256 SWAP2 PUSH1 0x1 DUP1 PUSH1 0xA0 SHL SUB AND SWAP2 DUP3 DUP5 MSTORE PUSH1 0x20 MSTORE PUSH1 0xFF PUSH1 0x40 DUP5 KECCAK256 SLOAD AND PUSH1 0x0 EQ PUSH2 0x2396 JUMPI DUP1 DUP4 MSTORE DUP3 PUSH1 0x20 MSTORE PUSH1 0x40 DUP4 KECCAK256 DUP3 DUP5 MSTORE PUSH1 0x20 MSTORE PUSH1 0x40 DUP4 KECCAK256 PUSH1 0xFF NOT DUP2 SLOAD AND SWAP1 SSTORE PUSH32 0xF6391F5C32D9C69D2A47EA670B442974B53935D1EDC7FD64EB21E047A839171B CALLER SWAP4 DUP1 LOG4 PUSH1 0x1 SWAP1 JUMP JUMPDEST PUSH1 0xA0 DUP2 ADD SWAP1 DUP2 LT PUSH8 0xFFFFFFFFFFFFFFFF DUP3 GT OR PUSH2 0x2540 JUMPI PUSH1 0x40 MSTORE JUMP JUMPDEST PUSH4 0x4E487B71 PUSH1 0xE0 SHL PUSH1 0x0 MSTORE PUSH1 0x41 PUSH1 0x4 MSTORE PUSH1 0x24 PUSH1 0x0 REVERT JUMPDEST PUSH1 0x80 DUP2 ADD SWAP1 DUP2 LT PUSH8 0xFFFFFFFFFFFFFFFF DUP3 GT OR PUSH2 0x2540 JUMPI PUSH1 0x40 MSTORE JUMP JUMPDEST PUSH2 0x140 DUP2 ADD SWAP1 DUP2 LT PUSH8 0xFFFFFFFFFFFFFFFF DUP3 GT OR PUSH2 0x2540 JUMPI PUSH1 0x40 MSTORE JUMP JUMPDEST PUSH1 0xE0 DUP2 ADD SWAP1 DUP2 LT PUSH8 0xFFFFFFFFFFFFFFFF DUP3 GT OR PUSH2 0x2540 JUMPI PUSH1 0x40 MSTORE JUMP JUMPDEST SWAP1 PUSH1 0x1F DUP1 NOT SWAP2 ADD AND DUP2 ADD SWAP1 DUP2 LT PUSH8 0xFFFFFFFFFFFFFFFF DUP3 GT OR PUSH2 0x2540 JUMPI PUSH1 0x40 MSTORE JUMP JUMPDEST ISZERO PUSH2 0x25D4 JUMPI JUMP JUMPDEST PUSH1 0x64 PUSH1 0x40 MLOAD PUSH3 0x461BCD PUSH1 0xE5 SHL DUP2 MSTORE PUSH1 0x20 PUSH1 0x4 DUP3 ADD MSTORE PUSH1 0x20 PUSH1 0x24 DUP3 ADD MSTORE PUSH32 0x4665656450726F746F636F6C3A20696E73756666696369656E74207374616B65 PUSH1 0x44 DUP3 ADD MSTORE REVERT JUMPDEST PUSH1 0x40 MLOAD PUSH4 0x23B872DD PUSH1 0xE0 SHL PUSH1 0x20 DUP3 ADD MSTORE PUSH1 0x1 PUSH1 0x1 PUSH1 0xA0 SHL SUB SWAP3 DUP4 AND PUSH1 0x24 DUP3 ADD MSTORE SWAP3 SWAP1 SWAP2 AND PUSH1 0x44 DUP4 ADD MSTORE PUSH1 0x64 DUP1 DUP4 ADD SWAP4 SWAP1 SWAP4 MSTORE SWAP2 DUP2 MSTORE PUSH2 0x265F SWAP2 PUSH2 0x265A DUP3 PUSH2 0x2524 JUMP JUMPDEST PUSH2 0x2661 JUMP JUMPDEST JUMP JUMPDEST SWAP1 PUSH1 0x0 PUSH1 0x20 SWAP2 DUP3 DUP2 MLOAD SWAP2 ADD DUP3 DUP6 GAS CALL ISZERO PUSH2 0x26BD JUMPI PUSH1 0x0 MLOAD RETURNDATASIZE PUSH2 0x26B4 JUMPI POP PUSH1 0x1 PUSH1 0x1 PUSH1 0xA0 SHL SUB DUP2 AND EXTCODESIZE ISZERO JUMPDEST PUSH2 0x2692 JUMPI POP JUMP JUMPDEST PUSH1 0x40 MLOAD PUSH4 0x5274AFE7 PUSH1 0xE0 SHL DUP2 MSTORE PUSH1 0x1 PUSH1 0x1 PUSH1 0xA0 SHL SUB SWAP1 SWAP2 AND PUSH1 0x4 DUP3 ADD MSTORE PUSH1 0x24 SWAP1 REVERT JUMPDEST PUSH1 0x1 EQ ISZERO PUSH2 0x268B JUMP JUMPDEST PUSH1 0x40 MLOAD RETURNDATASIZE PUSH1 0x0 DUP3 RETURNDATACOPY RETURNDATASIZE SWAP1 REVERT JUMPDEST PUSH1 0xFF PUSH1 0x2 SLOAD AND PUSH2 0x26D5 JUMPI JUMP JUMPDEST PUSH1 0x40 MLOAD PUSH4 0xD93C0665 PUSH1 0xE0 SHL DUP2 MSTORE PUSH1 0x4 SWAP1 REVERT JUMPDEST PUSH1 0x2 PUSH1 0x1 SLOAD EQ PUSH2 0x26F8 JUMPI PUSH1 0x2 PUSH1 0x1 SSTORE JUMP JUMPDEST PUSH1 0x40 MLOAD PUSH4 0x3EE5AEB5 PUSH1 0xE0 SHL DUP2 MSTORE PUSH1 0x4 SWAP1 REVERT JUMPDEST SWAP2 SWAP1 DUP3 ADD DUP1 SWAP3 GT PUSH2 0x2717 JUMPI JUMP JUMPDEST PUSH4 0x4E487B71 PUSH1 0xE0 SHL PUSH1 0x0 MSTORE PUSH1 0x11 PUSH1 0x4 MSTORE PUSH1 0x24 PUSH1 0x0 REVERT JUMPDEST SWAP2 SWAP1 DUP3 SUB SWAP2 DUP3 GT PUSH2 0x2717 JUMPI JUMP JUMPDEST PUSH1 0x40 MLOAD PUSH4 0xA9059CBB PUSH1 0xE0 SHL PUSH1 0x20 DUP3 ADD MSTORE PUSH1 0x1 PUSH1 0x1 PUSH1 0xA0 SHL SUB SWAP1 SWAP3 AND PUSH1 0x24 DUP4 ADD MSTORE PUSH1 0x44 DUP1 DUP4 ADD SWAP4 SWAP1 SWAP4 MSTORE SWAP2 DUP2 MSTORE PUSH2 0x265F SWAP2 PUSH2 0x265A DUP3 PUSH2 0x2556 JUMP JUMPDEST PUSH1 0x0 NOT DUP2 EQ PUSH2 0x2717 JUMPI PUSH1 0x1 ADD SWAP1 JUMP JUMPDEST PUSH1 0x4 DUP3 LT ISZERO PUSH2 0x218E JUMPI MSTORE JUMP JUMPDEST SWAP1 PUSH2 0x2798 DUP4 PUSH2 0x21A4 JUMP JUMPDEST DUP3 PUSH1 0x0 MSTORE PUSH1 0x20 SWAP1 PUSH1 0xB DUP3 MSTORE PUSH1 0x40 PUSH1 0x0 KECCAK256 SWAP4 PUSH2 0x27FC PUSH1 0x3 PUSH1 0x40 MLOAD SWAP7 PUSH2 0x27BB DUP9 PUSH2 0x2524 JUMP JUMPDEST PUSH1 0xFF DUP2 SLOAD DUP2 DUP2 AND DUP11 MSTORE PUSH1 0x8 SHR AND DUP7 DUP10 ADD MSTORE PUSH1 0x1 DUP2 ADD SLOAD PUSH1 0x40 DUP10 ADD MSTORE PUSH1 0x2 DUP2 ADD SLOAD PUSH1 0x60 DUP10 ADD MSTORE ADD SLOAD DUP1 PUSH1 0x80 DUP9 ADD MSTORE PUSH1 0x1 DUP1 PUSH1 0xA0 SHL SUB PUSH1 0x3 SLOAD AND ADDRESS SWAP1 CALLER SWAP1 PUSH2 0x2618 JUMP JUMPDEST PUSH1 0x5 SLOAD SWAP5 PUSH2 0x2809 DUP7 PUSH2 0x2773 JUMP JUMPDEST PUSH1 0x5 SSTORE PUSH2 0x708 TIMESTAMP ADD SWAP1 DUP2 TIMESTAMP GT PUSH2 0x2717 JUMPI PUSH1 0xFF SWAP1 MLOAD AND SWAP1 PUSH1 0x40 MLOAD SWAP3 PUSH2 0x282C DUP5 PUSH2 0x2572 JUMP JUMPDEST DUP8 DUP5 MSTORE DUP7 DUP7 DUP6 ADD MSTORE PUSH2 0x2841 DUP6 PUSH1 0x40 DUP7 ADD PUSH2 0x2782 JUMP JUMPDEST PUSH2 0x284A DUP2 PUSH2 0x21A4 JUMP JUMPDEST PUSH1 0x60 DUP5 ADD MSTORE PUSH1 0x80 DUP4 ADD MSTORE TIMESTAMP PUSH1 0xA0 DUP4 ADD MSTORE PUSH1 0xC0 DUP3 ADD MSTORE PUSH1 0x0 PUSH1 0xE0 DUP3 ADD MSTORE PUSH1 0x0 PUSH2 0x100 DUP3 ADD MSTORE PUSH2 0x120 DUP2 ADD PUSH1 0x0 DUP2 MSTORE DUP6 PUSH1 0x0 MSTORE PUSH1 0x6 DUP5 MSTORE PUSH1 0x40 PUSH1 0x0 KECCAK256 SWAP1 DUP3 MLOAD DUP3 SSTORE DUP5 DUP4 ADD MLOAD PUSH1 0x1 DUP4 ADD SSTORE PUSH1 0x2 DUP3 ADD SWAP1 PUSH1 0x40 DUP5 ADD MLOAD PUSH1 0x4 DUP2 LT ISZERO PUSH2 0x218E JUMPI PUSH2 0x2922 SWAP5 DUP4 PUSH2 0x100 SWAP3 PUSH1 0x8 SWAP6 SLOAD PUSH1 0xFF PUSH2 0xFF00 PUSH1 0x60 DUP7 ADD MLOAD PUSH2 0x28C5 DUP2 PUSH2 0x21A4 JUMP JUMPDEST PUSH2 0x28CE DUP2 PUSH2 0x21A4 JUMP JUMPDEST DUP10 SHL AND SWAP3 AND SWAP1 PUSH2 0xFFFF NOT AND OR OR SWAP1 SSTORE PUSH1 0x80 DUP2 ADD MLOAD PUSH1 0x3 DUP7 ADD SSTORE PUSH1 0xA0 DUP2 ADD MLOAD PUSH1 0x4 DUP7 ADD SSTORE PUSH1 0xC0 DUP2 ADD MLOAD PUSH1 0x5 DUP7 ADD SSTORE PUSH1 0xE0 DUP2 ADD MLOAD PUSH1 0x6 DUP7 ADD SSTORE ADD MLOAD PUSH1 0x7 DUP5 ADD SSTORE MLOAD ISZERO ISZERO SWAP2 ADD SWAP1 PUSH1 0xFF DUP1 NOT DUP4 SLOAD AND SWAP2 ISZERO ISZERO AND OR SWAP1 SSTORE JUMP JUMPDEST DUP3 PUSH1 0x0 MSTORE PUSH1 0xC DUP3 MSTORE PUSH1 0x40 PUSH1 0x0 KECCAK256 DUP1 SLOAD SWAP3 PUSH1 0x1 PUSH1 0x40 SHL DUP5 LT ISZERO PUSH2 0x2540 JUMPI PUSH2 0x29CF PUSH32 0x615E8F1333715C833AEEA3803D6AA6F09D73C6DB60F9ED7D1DED1CEC09B48D9A SWAP4 PUSH2 0x2977 DUP7 PUSH2 0x1A0 SWAP6 PUSH1 0x1 DUP12 SWAP10 ADD DUP2 SSTORE PUSH2 0x2109 JUMP JUMPDEST DUP2 SLOAD SWAP1 PUSH1 0x3 SHL SWAP1 DUP9 DUP3 SHL SWAP2 PUSH1 0x0 NOT SWAP1 SHL NOT AND OR SWAP1 SSTORE PUSH1 0x0 PUSH1 0x40 MLOAD SWAP4 PUSH2 0x120 DUP6 MSTORE DUP2 PUSH2 0x120 DUP7 ADD MSTORE PUSH2 0x140 DUP1 SWAP2 DUP7 ADD MSTORE DUP5 ADD MSTORE PUSH1 0x0 PUSH2 0x160 DUP1 PUSH1 0x40 DUP7 ADD MSTORE DUP5 ADD MSTORE PUSH1 0x0 PUSH2 0x180 DUP1 PUSH1 0x60 DUP7 ADD MSTORE DUP5 ADD MSTORE PUSH1 0x80 DUP4 ADD SWAP1 PUSH2 0x2181 JUMP JUMPDEST PUSH1 0x0 PUSH1 0xA0 DUP3 ADD MSTORE PUSH1 0x0 PUSH1 0xC0 DUP3 ADD MSTORE PUSH1 0x0 PUSH1 0xE0 DUP3 ADD MSTORE TIMESTAMP PUSH2 0x100 DUP3 ADD MSTORE LOG3 SWAP1 JUMP JUMPDEST ISZERO PUSH2 0x29F6 JUMPI JUMP JUMPDEST PUSH1 0x40 MLOAD PUSH3 0x461BCD PUSH1 0xE5 SHL DUP2 MSTORE PUSH1 0x20 PUSH1 0x4 DUP3 ADD MSTORE PUSH1 0x1D PUSH1 0x24 DUP3 ADD MSTORE PUSH32 0x4665656450726F746F636F6C3A20696E76616C69642072657175657374000000 PUSH1 0x44 DUP3 ADD MSTORE PUSH1 0x64 SWAP1 REVERT JUMPDEST ISZERO PUSH2 0x2A42 JUMPI JUMP JUMPDEST PUSH1 0x40 MLOAD PUSH3 0x461BCD PUSH1 0xE5 SHL DUP2 MSTORE PUSH1 0x20 PUSH1 0x4 DUP3 ADD MSTORE PUSH1 0x1F PUSH1 0x24 DUP3 ADD MSTORE PUSH32 0x4665656450726F746F636F6C3A206E6F74206163746976652066656564657200 PUSH1 0x44 DUP3 ADD MSTORE PUSH1 0x64 SWAP1 REVERT JUMPDEST ISZERO PUSH2 0x2A8E JUMPI JUMP JUMPDEST PUSH1 0x64 PUSH1 0x40 MLOAD PUSH3 0x461BCD PUSH1 0xE5 SHL DUP2 MSTORE PUSH1 0x20 PUSH1 0x4 DUP3 ADD MSTORE PUSH1 0x20 PUSH1 0x24 DUP3 ADD MSTORE PUSH32 0x4665656450726F746F636F6C3A2066656564657220626C61636B6C6973746564 PUSH1 0x44 DUP3 ADD MSTORE REVERT JUMPDEST ISZERO PUSH2 0x2AD9 JUMPI JUMP JUMPDEST PUSH1 0x40 MLOAD PUSH3 0x461BCD PUSH1 0xE5 SHL DUP2 MSTORE PUSH1 0x20 PUSH1 0x4 DUP3 ADD MSTORE PUSH1 0x1F PUSH1 0x24 DUP3 ADD MSTORE PUSH32 0x4665656450726F746F636F6C3A20616C72656164792066696E616C697A656400 PUSH1 0x44 DUP3 ADD MSTORE PUSH1 0x64 SWAP1 REVERT JUMPDEST ISZERO PUSH2 0x2B25 JUMPI JUMP JUMPDEST PUSH1 0x40 MLOAD PUSH3 0x461BCD PUSH1 0xE5 SHL DUP2 MSTORE PUSH1 0x20 PUSH1 0x4 DUP3 ADD MSTORE PUSH1 0x1F PUSH1 0x24 DUP3 ADD MSTORE PUSH32 0x4665656450726F746F636F6C3A20616C7265616479207375626D697474656400 PUSH1 0x44 DUP3 ADD MSTORE PUSH1 0x64 SWAP1 REVERT JUMPDEST SWAP4 SWAP3 SWAP2 DUP1 PUSH1 0x60 SWAP2 PUSH1 0x20 SWAP4 PUSH1 0x40 DUP9 MSTORE DUP2 PUSH1 0x40 DUP10 ADD MSTORE DUP4 DUP9 ADD CALLDATACOPY PUSH1 0x0 DUP3 DUP3 DUP9 ADD ADD MSTORE PUSH1 0x1F DUP1 NOT SWAP2 ADD AND DUP6 ADD ADD SWAP4 ADD MSTORE JUMP JUMPDEST PUSH8 0xFFFFFFFFFFFFFFFF DUP2 GT PUSH2 0x2540 JUMPI PUSH1 0x5 SHL PUSH1 0x20 ADD SWAP1 JUMP JUMPDEST DUP1 MLOAD DUP3 LT ISZERO PUSH2 0x20F3 JUMPI PUSH1 0x20 SWAP2 PUSH1 0x5 SHL ADD ADD SWAP1 JUMP JUMPDEST SWAP1 PUSH1 0x0 SWAP2 DUP1 DUP4 MSTORE PUSH1 0x6 PUSH1 0x20 MSTORE PUSH1 0x40 DUP4 KECCAK256 PUSH1 0x8 DUP2 ADD SLOAD SWAP3 PUSH1 0xFF SWAP4 PUSH2 0x2BEA DUP6 DUP3 AND ISZERO PUSH2 0x2AD2 JUMP JUMPDEST DUP4 DUP7 MSTORE PUSH1 0x7 PUSH1 0x20 MSTORE PUSH1 0x40 DUP7 KECCAK256 SWAP4 DUP5 SLOAD SWAP6 DUP7 ISZERO PUSH2 0x2FDD JUMPI PUSH2 0x2C09 DUP8 PUSH2 0x2B99 JUMP JUMPDEST SWAP6 PUSH2 0x2C17 PUSH1 0x40 MLOAD SWAP8 DUP9 PUSH2 0x25AB JUMP JUMPDEST DUP8 DUP8 MSTORE PUSH1 0x1F NOT PUSH2 0x2C26 DUP10 PUSH2 0x2B99 JUMP JUMPDEST ADD CALLDATASIZE PUSH1 0x20 DUP10 ADD CALLDATACOPY DUP9 SWAP8 DUP10 JUMPDEST DUP2 DUP2 LT PUSH2 0x2F73 JUMPI POP POP DUP8 ISZERO PUSH2 0x2F2E JUMPI SWAP4 SWAP2 DUP9 SWAP6 SWAP4 SWAP2 JUMPDEST PUSH1 0x0 NOT DUP10 ADD DUP10 DUP2 GT PUSH2 0x2F1A JUMPI DUP8 LT ISZERO PUSH2 0x2D29 JUMPI DUP10 JUMPDEST PUSH2 0x2C66 DUP9 DUP12 PUSH2 0x272D JUMP JUMPDEST PUSH1 0x0 NOT DUP2 ADD SWAP1 DUP2 GT PUSH2 0x2D15 JUMPI DUP2 LT ISZERO PUSH2 0x2CF8 JUMPI PUSH2 0x2C83 DUP2 DUP11 PUSH2 0x2BB1 JUMP JUMPDEST MLOAD PUSH1 0x1 DUP3 ADD SWAP1 DUP2 DUP4 GT PUSH2 0x2CE4 JUMPI SWAP1 PUSH2 0x2CAC SWAP3 SWAP2 PUSH2 0x2CA0 DUP3 DUP14 PUSH2 0x2BB1 JUMP JUMPDEST MLOAD LT PUSH2 0x2CB1 JUMPI POP PUSH2 0x2773 JUMP JUMPDEST PUSH2 0x2C5C JUMP JUMPDEST PUSH2 0x2CDD PUSH2 0x2CBE DUP4 DUP14 PUSH2 0x2BB1 JUMP JUMPDEST MLOAD SWAP2 DUP13 PUSH2 0x2CD6 DUP6 PUSH2 0x2CCF DUP5 DUP5 PUSH2 0x2BB1 JUMP JUMPDEST MLOAD SWAP3 PUSH2 0x2BB1 JUMP JUMPDEST MSTORE DUP13 PUSH2 0x2BB1 JUMP JUMPDEST MSTORE CODESIZE PUSH2 0xCB8 JUMP JUMPDEST PUSH4 0x4E487B71 PUSH1 0xE0 SHL DUP14 MSTORE PUSH1 0x11 PUSH1 0x4 MSTORE PUSH1 0x24 DUP14 REVERT JUMPDEST POP SWAP2 SWAP4 SWAP6 PUSH2 0x2D09 SWAP1 SWAP6 SWAP2 SWAP4 SWAP6 PUSH2 0x2773 JUMP JUMPDEST SWAP6 SWAP4 SWAP2 SWAP5 SWAP3 SWAP1 SWAP5 PUSH2 0x2C47 JUMP JUMPDEST PUSH4 0x4E487B71 PUSH1 0xE0 SHL DUP13 MSTORE PUSH1 0x11 PUSH1 0x4 MSTORE PUSH1 0x24 DUP13 REVERT JUMPDEST SWAP6 POP SWAP6 SWAP8 SWAP2 SWAP8 SWAP7 SWAP4 SWAP3 SWAP1 SWAP7 PUSH1 0x1 SWAP5 DUP6 DUP1 DUP3 AND ISZERO PUSH1 0x0 EQ PUSH2 0x2F03 JUMPI SHR PUSH1 0x0 NOT DUP2 ADD DUP2 DUP2 GT PUSH2 0x2EEF JUMPI DUP3 PUSH2 0x2D65 DUP9 SWAP4 PUSH2 0x2CCF PUSH2 0x2D6C SWAP5 PUSH1 0x8 SWAP8 PUSH2 0x2BB1 JUMP JUMPDEST MLOAD SWAP1 PUSH2 0x270A JUMP JUMPDEST DUP2 SHR SWAP9 JUMPDEST DUP10 PUSH1 0x7 DUP6 ADD SSTORE PUSH1 0xFF NOT AND OR SWAP2 ADD SSTORE DUP5 DUP2 MSTORE PUSH1 0x6 PUSH1 0x20 MSTORE PUSH1 0x2 SWAP2 DUP5 DUP4 PUSH1 0x40 DUP5 KECCAK256 ADD SLOAD PUSH1 0x8 SHR AND PUSH2 0x2D9E DUP2 PUSH2 0x21A4 JUMP JUMPDEST DUP3 MSTORE PUSH1 0xB PUSH1 0x20 MSTORE PUSH1 0x40 DUP3 KECCAK256 SWAP3 PUSH1 0x40 MLOAD PUSH2 0x2DB6 DUP2 PUSH2 0x2524 JUMP JUMPDEST DUP7 DUP6 SLOAD DUP2 DUP2 AND DUP4 MSTORE PUSH1 0x8 SHR AND PUSH1 0x20 DUP3 ADD MSTORE DUP6 DUP6 ADD SLOAD PUSH1 0x40 DUP3 ADD MSTORE DUP2 DUP6 ADD SLOAD SWAP1 DUP2 PUSH1 0x60 DUP3 ADD MSTORE PUSH1 0x80 PUSH1 0x3 DUP1 SWAP8 ADD SLOAD SWAP2 ADD MSTORE DUP3 SLOAD SWAP1 DUP2 ISZERO PUSH2 0x2EDB JUMPI DIV SWAP1 DUP4 DUP7 JUMPDEST PUSH2 0x2E33 JUMPI JUMPDEST POP POP POP POP POP POP POP POP PUSH32 0x4DA0F440B42EE815C5B14CBF1A5CB712C4FCF1EE583CA8C97BDBBDF4A1E7BA1F PUSH1 0x40 DUP1 MLOAD DUP5 DUP2 MSTORE TIMESTAMP PUSH1 0x20 DUP3 ADD MSTORE LOG2 SWAP1 JUMP JUMPDEST DUP4 SLOAD DUP2 LT ISZERO PUSH2 0x2ED6 JUMPI DUP1 DUP9 DUP8 PUSH2 0x2E4C PUSH2 0x2E59 SWAP5 DUP9 PUSH2 0x2137 JUMP JUMPDEST POP ADD SLOAD AND PUSH2 0x2E5F JUMPI PUSH2 0x2773 JUMP JUMPDEST DUP7 PUSH2 0x2DF4 JUMP JUMPDEST PUSH2 0x2E69 DUP2 DUP7 PUSH2 0x2137 JUMP JUMPDEST POP SLOAD DUP8 SLOAD PUSH1 0x1 PUSH1 0x1 PUSH1 0xA0 SHL SUB SWAP2 DUP3 AND SWAP2 PUSH2 0x2E87 SWAP2 DUP8 SWAP2 DUP5 SWAP2 AND PUSH2 0x273A JUMP JUMPDEST DUP1 DUP8 MSTORE PUSH1 0x9 PUSH1 0x20 MSTORE DUP4 PUSH1 0x40 DUP9 KECCAK256 ADD PUSH2 0x2E9F DUP2 SLOAD PUSH2 0x2773 JUMP JUMPDEST SWAP1 SSTORE DUP11 PUSH32 0x602AB809FA82D3A742A4F9A33CDD154988D8B0F578EE4DC91DE3DC412BF026B9 PUSH1 0x40 DUP1 MLOAD DUP9 DUP2 MSTORE TIMESTAMP PUSH1 0x20 DUP3 ADD MSTORE LOG3 PUSH2 0x2773 JUMP JUMPDEST PUSH2 0x2DF9 JUMP JUMPDEST PUSH4 0x4E487B71 PUSH1 0xE0 SHL DUP6 MSTORE PUSH1 0x12 PUSH1 0x4 MSTORE PUSH1 0x24 DUP6 REVERT JUMPDEST PUSH4 0x4E487B71 PUSH1 0xE0 SHL DUP6 MSTORE PUSH1 0x11 PUSH1 0x4 MSTORE PUSH1 0x24 DUP6 REVERT JUMPDEST SWAP1 PUSH1 0x8 SWAP3 PUSH2 0x2F13 SWAP2 DUP4 SHR SWAP1 PUSH2 0x2BB1 JUMP JUMPDEST MLOAD SWAP9 PUSH2 0x2D70 JUMP JUMPDEST PUSH4 0x4E487B71 PUSH1 0xE0 SHL DUP12 MSTORE PUSH1 0x11 PUSH1 0x4 MSTORE PUSH1 0x24 DUP12 REVERT JUMPDEST PUSH1 0x40 MLOAD PUSH3 0x461BCD PUSH1 0xE5 SHL DUP2 MSTORE PUSH1 0x20 PUSH1 0x4 DUP3 ADD MSTORE PUSH1 0x1D PUSH1 0x24 DUP3 ADD MSTORE PUSH32 0x4665656450726F746F636F6C3A206E6F2076616C696420707269636573000000 PUSH1 0x44 DUP3 ADD MSTORE PUSH1 0x64 SWAP1 REVERT JUMPDEST DUP4 PUSH1 0x3 PUSH2 0x2F80 DUP4 DUP7 PUSH2 0x2137 JUMP JUMPDEST POP ADD SLOAD AND DUP1 PUSH2 0x2FC6 JUMPI JUMPDEST PUSH2 0x2F9D JUMPI JUMPDEST PUSH2 0x2F98 SWAP1 PUSH2 0x2773 JUMP JUMPDEST PUSH2 0x2C31 JUMP JUMPDEST SWAP9 PUSH2 0x2FBE PUSH2 0x2F98 SWAP2 PUSH1 0x1 PUSH2 0x2FB1 DUP14 DUP8 PUSH2 0x2137 JUMP JUMPDEST POP ADD SLOAD PUSH2 0x1678 DUP3 DUP14 PUSH2 0x2BB1 JUMP JUMPDEST SWAP10 SWAP1 POP PUSH2 0x2F8F JUMP JUMPDEST POP PUSH1 0x1 PUSH2 0x2FD3 DUP3 DUP6 PUSH2 0x2137 JUMP JUMPDEST POP ADD SLOAD ISZERO ISZERO PUSH2 0x2F8A JUMP JUMPDEST PUSH1 0x40 MLOAD PUSH3 0x461BCD PUSH1 0xE5 SHL DUP2 MSTORE PUSH1 0x20 PUSH1 0x4 DUP3 ADD MSTORE PUSH1 0x1C PUSH1 0x24 DUP3 ADD MSTORE PUSH32 0x4665656450726F746F636F6C3A206E6F207375626D697373696F6E7300000000 PUSH1 0x44 DUP3 ADD MSTORE PUSH1 0x64 SWAP1 REVERT JUMPDEST PUSH1 0x40 MLOAD SWAP1 PUSH2 0x302F DUP3 PUSH2 0x2572 JUMP JUMPDEST DUP2 PUSH2 0x120 PUSH1 0x0 SWAP2 DUP3 DUP2 MSTORE DUP3 PUSH1 0x20 DUP3 ADD MSTORE DUP3 PUSH1 0x40 DUP3 ADD MSTORE DUP3 PUSH1 0x60 DUP3 ADD MSTORE DUP3 PUSH1 0x80 DUP3 ADD MSTORE DUP3 PUSH1 0xA0 DUP3 ADD MSTORE DUP3 PUSH1 0xC0 DUP3 ADD MSTORE DUP3 PUSH1 0xE0 DUP3 ADD MSTORE DUP3 PUSH2 0x100 DUP3 ADD MSTORE ADD MSTORE JUMP JUMPDEST SWAP1 PUSH2 0x3078 DUP3 PUSH2 0x2B99 JUMP JUMPDEST PUSH2 0x3085 PUSH1 0x40 MLOAD SWAP2 DUP3 PUSH2 0x25AB JUMP JUMPDEST DUP3 DUP2 MSTORE DUP1 SWAP3 PUSH2 0x3096 PUSH1 0x1F NOT SWAP2 PUSH2 0x2B99 JUMP JUMPDEST ADD SWAP1 PUSH1 0x0 JUMPDEST DUP3 DUP2 LT PUSH2 0x30A7 JUMPI POP POP POP JUMP JUMPDEST PUSH1 0x20 SWAP1 PUSH2 0x30B2 PUSH2 0x3022 JUMP JUMPDEST DUP3 DUP3 DUP6 ADD ADD MSTORE ADD PUSH2 0x309B JUMP JUMPDEST SWAP1 PUSH1 0x5 SWAP1 DUP2 SLOAD SWAP1 PUSH1 0x0 NOT DUP3 ADD SWAP2 DUP3 GT PUSH2 0x2717 JUMPI DUP2 DUP5 LT ISZERO PUSH2 0x31E1 JUMPI PUSH2 0x30F7 SWAP2 PUSH2 0x30E8 DUP6 SWAP3 DUP4 PUSH2 0x270A JUMP JUMPDEST SWAP1 DUP1 DUP3 GT PUSH2 0x31D9 JUMPI JUMPDEST POP PUSH2 0x272D JUMP JUMPDEST SWAP1 PUSH2 0x3101 DUP3 PUSH2 0x306E JUMP JUMPDEST SWAP3 PUSH1 0x0 JUMPDEST DUP4 DUP2 LT PUSH2 0x3113 JUMPI POP POP POP POP SWAP1 JUMP JUMPDEST PUSH2 0x311D DUP2 DUP4 PUSH2 0x270A JUMP JUMPDEST SWAP1 PUSH1 0x1 DUP1 DUP4 ADD DUP1 SWAP4 GT PUSH2 0x2717 JUMPI PUSH2 0x31D4 SWAP3 PUSH1 0x0 MSTORE PUSH1 0x6 PUSH1 0x20 SWAP1 DUP1 DUP3 MSTORE PUSH1 0x40 SWAP2 DUP3 PUSH1 0x0 KECCAK256 SWAP1 DUP4 MLOAD SWAP5 PUSH2 0x314D DUP7 PUSH2 0x2572 JUMP JUMPDEST DUP3 SLOAD DUP7 MSTORE DUP3 ADD SLOAD SWAP1 DUP6 ADD MSTORE PUSH1 0x2 DUP2 ADD SLOAD SWAP2 PUSH2 0x316F PUSH1 0xFF SWAP5 DUP6 DUP6 AND SWAP1 DUP8 ADD PUSH2 0x2782 JUMP JUMPDEST DUP4 PUSH1 0x8 SWAP4 DUP5 SHR AND PUSH2 0x317F DUP2 PUSH2 0x21A4 JUMP JUMPDEST PUSH1 0x60 DUP7 ADD MSTORE PUSH1 0x3 DUP3 ADD SLOAD PUSH1 0x80 DUP7 ADD MSTORE PUSH1 0x4 DUP3 ADD SLOAD PUSH1 0xA0 DUP7 ADD MSTORE DUP9 DUP3 ADD SLOAD PUSH1 0xC0 DUP7 ADD MSTORE DUP2 ADD SLOAD PUSH1 0xE0 DUP6 ADD MSTORE PUSH1 0x7 DUP2 ADD SLOAD PUSH2 0x100 DUP6 ADD MSTORE ADD SLOAD AND ISZERO ISZERO PUSH2 0x120 DUP3 ADD MSTORE PUSH2 0x31C9 DUP3 DUP9 PUSH2 0x2BB1 JUMP JUMPDEST MSTORE PUSH2 0xCB8 DUP2 DUP8 PUSH2 0x2BB1 JUMP JUMPDEST PUSH2 0x3105 JUMP JUMPDEST SWAP1 POP CODESIZE PUSH2 0x30F1 JUMP JUMPDEST POP POP POP POP PUSH1 0x40 MLOAD PUSH1 0x20 DUP2 ADD DUP2 DUP2 LT PUSH8 0xFFFFFFFFFFFFFFFF DUP3 GT OR PUSH2 0x2540 JUMPI PUSH1 0x40 MSTORE PUSH1 0x0 DUP2 MSTORE SWAP1 JUMP INVALID 0xBA 0x27 SWAP3 PUSH18 0xFB7BBF76A6F3DF3CC57BF80647FCAFDEA60E 0xC3 CODESIZE RETURNDATASIZE SWAP1 DELEGATECALL MSIZE 0xDE PUSH21 0xE7C0A26469706673582212204A897AC880E041AA8B SWAP7 ADDMOD 0xD6 SHR 0xC SWAP3 SMOD SWAP13 0x2E SWAP9 0xAC 0xF6 0x4C 0xE8 SGT PUSH15 0x6D48FEE0F40D8064736F6C63430008 EQ STOP CALLER 0x2F DUP8 DUP9 GT PUSH31 0x7EFF1D82E926EC794901D17C78024A50270940304540A733656F0D00000000 "},"methodIdentifiers":{"DEFAULT_ADMIN_ROLE()":"a217fddf","FEED_OPERATOR_ROLE()":"2f0165ca","PROTOCOL_ROLE()":"02768de4","SENIOR_FEEDER_ROLE()":"8ec9f038","addStake(uint256)":"eb4f16b5","blacklistFeeder(address,string)":"2f0e6ca5","config()":"79502c55","createFeedRequest(uint256,uint8,uint8)":"04b86cb3","feedRequests(uint256)":"3bf5e3a9","feederList(uint256)":"121c604b","feederSelector()":"5cf72f54","feeders(address)":"0aa31661","finalizeFeed(uint256)":"82ae8f01","getActiveFeeders()":"3929fcd3","getAllFeedRequests(uint256,uint256)":"aabe4ac4","getFeedFee(uint8)":"e5695991","getFeedRequest(uint256)":"db18c189","getFeeder(address)":"9ba7646c","getFeederCount()":"ec5bfc6c","getOrderFeedRequests(uint256)":"f608463a","getPendingRequests()":"80a1f712","getRoleAdmin(bytes32)":"248a9ca3","getSubmissions(uint256)":"16c53ced","getTotalRequestCount()":"7ced45d1","grantProtocolRole(address)":"c7c7b02f","grantRole(bytes32,address)":"2f2ff15d","grantSeniorFeederRole(address)":"46f53d1e","hasRole(bytes32,address)":"91d14854","hasSubmitted(uint256,address)":"a57d3806","nextRequestId()":"6a84a985","orderFeedRequests(uint256,uint256)":"75136ddc","pause()":"8456cb59","paused()":"5c975abb","registerFeeder(uint256)":"eb7bb5a7","rejectFeed(uint256,string)":"46b62703","renounceRole(bytes32,address)":"36568abe","requestFeedPublic(uint256,uint8,uint8)":"60421a30","requestSubmissions(uint256,uint256)":"15450ace","revokeRole(bytes32,address)":"d547741f","setConfig(address)":"20e3dbd4","setFeederSelector(address)":"5efd9508","setTierConfig(uint8,uint8,uint8,uint256,uint256,uint256)":"15f8b1e0","submitFeed(uint256,uint256)":"3fe1ddd2","supportsInterface(bytes4)":"01ffc9a7","tierConfigs(uint8)":"9da9db2a","unpause()":"3f4ba83a","usdt()":"2f48ab7d","withdrawPlatformFees(address)":"ec3889b5","withdrawStake(uint256)":"25d5971f"}}}}}