{"contracts/core/OptionsCore.sol":{"OptionsCore":{"abi":[{"inputs":[{"internalType":"address","name":"_config","type":"address"},{"internalType":"address","name":"_vaultManager","type":"address"},{"internalType":"address","name":"_usdt","type":"address"},{"internalType":"address","name":"_admin","type":"address"}],"stateMutability":"nonpayable","type":"constructor"},{"inputs":[],"name":"AccessControlBadConfirmation","type":"error"},{"inputs":[{"internalType":"address","name":"account","type":"address"},{"internalType":"bytes32","name":"neededRole","type":"bytes32"}],"name":"AccessControlUnauthorizedAccount","type":"error"},{"inputs":[],"name":"EnforcedPause","type":"error"},{"inputs":[],"name":"ExpectedPause","type":"error"},{"inputs":[],"name":"ReentrancyGuardReentrantCall","type":"error"},{"anonymous":false,"inputs":[{"indexed":true,"internalType":"uint256","name":"orderId","type":"uint256"},{"indexed":false,"internalType":"string","name":"underlyingCode","type":"string"},{"indexed":false,"internalType":"string","name":"market","type":"string"},{"indexed":false,"internalType":"string","name":"country","type":"string"},{"indexed":false,"internalType":"enum FeedType","name":"feedType","type":"uint8"},{"indexed":false,"internalType":"enum FeedTier","name":"tier","type":"uint8"},{"indexed":true,"internalType":"address","name":"requester","type":"address"},{"indexed":false,"internalType":"uint256","name":"notionalAmount","type":"uint256"},{"indexed":false,"internalType":"uint256","name":"timestamp","type":"uint256"}],"name":"FeedRequestEmitted","type":"event"},{"anonymous":false,"inputs":[{"indexed":true,"internalType":"uint256","name":"orderId","type":"uint256"},{"indexed":false,"internalType":"string","name":"reason","type":"string"},{"indexed":false,"internalType":"uint256","name":"timestamp","type":"uint256"}],"name":"OrderCancelled","type":"event"},{"anonymous":false,"inputs":[{"indexed":true,"internalType":"uint256","name":"orderId","type":"uint256"},{"indexed":true,"internalType":"address","name":"creator","type":"address"},{"indexed":false,"internalType":"bool","name":"isBuyerOrder","type":"bool"},{"indexed":false,"internalType":"uint256","name":"timestamp","type":"uint256"}],"name":"OrderCreated","type":"event"},{"anonymous":false,"inputs":[{"indexed":true,"internalType":"uint256","name":"orderId","type":"uint256"},{"indexed":true,"internalType":"address","name":"buyer","type":"address"},{"indexed":true,"internalType":"address","name":"seller","type":"address"},{"indexed":false,"internalType":"uint256","name":"timestamp","type":"uint256"}],"name":"OrderMatched","type":"event"},{"anonymous":false,"inputs":[{"indexed":true,"internalType":"uint256","name":"orderId","type":"uint256"},{"indexed":false,"internalType":"enum OrderStatus","name":"oldStatus","type":"uint8"},{"indexed":false,"internalType":"enum OrderStatus","name":"newStatus","type":"uint8"},{"indexed":false,"internalType":"string","name":"reason","type":"string"},{"indexed":false,"internalType":"uint256","name":"timestamp","type":"uint256"}],"name":"OrderStatusChanged","type":"event"},{"anonymous":false,"inputs":[{"indexed":false,"internalType":"address","name":"account","type":"address"}],"name":"Paused","type":"event"},{"anonymous":false,"inputs":[{"indexed":true,"internalType":"uint256","name":"orderId","type":"uint256"},{"indexed":true,"internalType":"uint256","name":"quoteId","type":"uint256"},{"indexed":true,"internalType":"address","name":"seller","type":"address"},{"indexed":false,"internalType":"uint256","name":"premiumRate","type":"uint256"},{"indexed":false,"internalType":"uint256","name":"timestamp","type":"uint256"}],"name":"QuoteSubmitted","type":"event"},{"anonymous":false,"inputs":[{"indexed":true,"internalType":"bytes32","name":"role","type":"bytes32"},{"indexed":true,"internalType":"bytes32","name":"previousAdminRole","type":"bytes32"},{"indexed":true,"internalType":"bytes32","name":"newAdminRole","type":"bytes32"}],"name":"RoleAdminChanged","type":"event"},{"anonymous":false,"inputs":[{"indexed":true,"internalType":"bytes32","name":"role","type":"bytes32"},{"indexed":true,"internalType":"address","name":"account","type":"address"},{"indexed":true,"internalType":"address","name":"sender","type":"address"}],"name":"RoleGranted","type":"event"},{"anonymous":false,"inputs":[{"indexed":true,"internalType":"bytes32","name":"role","type":"bytes32"},{"indexed":true,"internalType":"address","name":"account","type":"address"},{"indexed":true,"internalType":"address","name":"sender","type":"address"}],"name":"RoleRevoked","type":"event"},{"anonymous":false,"inputs":[{"indexed":false,"internalType":"address","name":"account","type":"address"}],"name":"Unpaused","type":"event"},{"inputs":[],"name":"DEFAULT_ADMIN_ROLE","outputs":[{"internalType":"bytes32","name":"","type":"bytes32"}],"stateMutability":"view","type":"function"},{"inputs":[],"name":"FEED_PROTOCOL_ROLE","outputs":[{"internalType":"bytes32","name":"","type":"bytes32"}],"stateMutability":"view","type":"function"},{"inputs":[],"name":"SETTLEMENT_ROLE","outputs":[{"internalType":"bytes32","name":"","type":"bytes32"}],"stateMutability":"view","type":"function"},{"inputs":[{"internalType":"uint256","name":"quoteId","type":"uint256"}],"name":"acceptQuote","outputs":[],"stateMutability":"nonpayable","type":"function"},{"inputs":[{"internalType":"uint256","name":"orderId","type":"uint256"}],"name":"acceptSellerOrder","outputs":[],"stateMutability":"nonpayable","type":"function"},{"inputs":[{"internalType":"address","name":"","type":"address"},{"internalType":"uint256","name":"","type":"uint256"}],"name":"buyerOrders","outputs":[{"internalType":"uint256","name":"","type":"uint256"}],"stateMutability":"view","type":"function"},{"inputs":[{"internalType":"uint256","name":"orderId","type":"uint256"}],"name":"cancelRFQ","outputs":[],"stateMutability":"nonpayable","type":"function"},{"inputs":[],"name":"config","outputs":[{"internalType":"contract Config","name":"","type":"address"}],"stateMutability":"view","type":"function"},{"inputs":[{"internalType":"string","name":"underlyingName","type":"string"},{"internalType":"string","name":"underlyingCode","type":"string"},{"internalType":"string","name":"market","type":"string"},{"internalType":"string","name":"country","type":"string"},{"internalType":"string","name":"refPrice","type":"string"},{"internalType":"enum Direction","name":"direction","type":"uint8"},{"internalType":"uint256","name":"notionalUSDT","type":"uint256"},{"internalType":"uint256","name":"expiryTimestamp","type":"uint256"},{"internalType":"uint256","name":"maxPremiumRate","type":"uint256"},{"internalType":"uint256","name":"minMarginRate","type":"uint256"},{"internalType":"enum SellerType","name":"acceptedSellerType","type":"uint8"},{"internalType":"address","name":"designatedSeller","type":"address"},{"internalType":"uint256","name":"arbitrationWindow","type":"uint256"},{"internalType":"uint256","name":"marginCallDeadline","type":"uint256"},{"internalType":"bool","name":"dividendAdjustment","type":"bool"},{"internalType":"enum LiquidationRule","name":"liquidationRule","type":"uint8"},{"internalType":"uint8","name":"consecutiveDays","type":"uint8"},{"internalType":"uint8","name":"dailyLimitPercent","type":"uint8"},{"internalType":"enum FeedRule","name":"feedRule","type":"uint8"}],"name":"createBuyerRFQ","outputs":[{"internalType":"uint256","name":"orderId","type":"uint256"}],"stateMutability":"nonpayable","type":"function"},{"inputs":[{"internalType":"string","name":"underlyingName","type":"string"},{"internalType":"string","name":"underlyingCode","type":"string"},{"internalType":"string","name":"market","type":"string"},{"internalType":"string","name":"country","type":"string"},{"internalType":"string","name":"refPrice","type":"string"},{"internalType":"enum Direction","name":"direction","type":"uint8"},{"internalType":"uint256","name":"notionalUSDT","type":"uint256"},{"internalType":"uint256","name":"expiryTimestamp","type":"uint256"},{"internalType":"uint256","name":"premiumRate","type":"uint256"},{"internalType":"uint256","name":"marginAmount","type":"uint256"},{"internalType":"enum LiquidationRule","name":"liquidationRule","type":"uint8"},{"internalType":"uint8","name":"consecutiveDays","type":"uint8"},{"internalType":"uint8","name":"dailyLimitPercent","type":"uint8"},{"internalType":"uint256","name":"arbitrationWindow","type":"uint256"},{"internalType":"bool","name":"dividendAdjustment","type":"bool"},{"internalType":"uint8","name":"exerciseDelay","type":"uint8"},{"internalType":"enum FeedRule","name":"feedRule","type":"uint8"}],"name":"createSellerOrder","outputs":[{"internalType":"uint256","name":"orderId","type":"uint256"}],"stateMutability":"nonpayable","type":"function"},{"inputs":[{"internalType":"address","name":"buyer","type":"address"}],"name":"getBuyerOrders","outputs":[{"internalType":"uint256[]","name":"","type":"uint256[]"}],"stateMutability":"view","type":"function"},{"inputs":[{"internalType":"uint256","name":"orderId","type":"uint256"}],"name":"getOrder","outputs":[{"components":[{"internalType":"uint256","name":"orderId","type":"uint256"},{"internalType":"address","name":"buyer","type":"address"},{"internalType":"address","name":"seller","type":"address"},{"internalType":"string","name":"underlyingName","type":"string"},{"internalType":"string","name":"underlyingCode","type":"string"},{"internalType":"string","name":"market","type":"string"},{"internalType":"string","name":"country","type":"string"},{"internalType":"string","name":"refPrice","type":"string"},{"internalType":"enum Direction","name":"direction","type":"uint8"},{"internalType":"uint256","name":"notionalUSDT","type":"uint256"},{"internalType":"uint256","name":"strikePrice","type":"uint256"},{"internalType":"uint256","name":"expiryTimestamp","type":"uint256"},{"internalType":"uint256","name":"premiumRate","type":"uint256"},{"internalType":"uint256","name":"premiumAmount","type":"uint256"},{"internalType":"uint256","name":"initialMargin","type":"uint256"},{"internalType":"uint256","name":"currentMargin","type":"uint256"},{"internalType":"uint256","name":"minMarginRate","type":"uint256"},{"internalType":"uint256","name":"maxPremiumRate","type":"uint256"},{"internalType":"enum LiquidationRule","name":"liquidationRule","type":"uint8"},{"internalType":"uint8","name":"consecutiveDays","type":"uint8"},{"internalType":"uint8","name":"dailyLimitPercent","type":"uint8"},{"internalType":"uint8","name":"exerciseDelay","type":"uint8"},{"internalType":"enum SellerType","name":"sellerType","type":"uint8"},{"internalType":"address","name":"designatedSeller","type":"address"},{"internalType":"uint256","name":"arbitrationWindow","type":"uint256"},{"internalType":"uint256","name":"marginCallDeadline","type":"uint256"},{"internalType":"bool","name":"dividendAdjustment","type":"bool"},{"internalType":"enum FeedRule","name":"feedRule","type":"uint8"},{"internalType":"enum OrderStatus","name":"status","type":"uint8"},{"internalType":"uint256","name":"createdAt","type":"uint256"},{"internalType":"uint256","name":"matchedAt","type":"uint256"},{"internalType":"uint256","name":"settledAt","type":"uint256"},{"internalType":"uint256","name":"lastFeedPrice","type":"uint256"},{"internalType":"uint256","name":"dividendAmount","type":"uint256"}],"internalType":"struct Order","name":"","type":"tuple"}],"stateMutability":"view","type":"function"},{"inputs":[{"internalType":"string","name":"country","type":"string"}],"name":"getOrdersByCountry","outputs":[{"internalType":"uint256[]","name":"","type":"uint256[]"}],"stateMutability":"view","type":"function"},{"inputs":[{"internalType":"string","name":"market","type":"string"}],"name":"getOrdersByMarket","outputs":[{"internalType":"uint256[]","name":"","type":"uint256[]"}],"stateMutability":"view","type":"function"},{"inputs":[{"internalType":"uint256","name":"orderId","type":"uint256"}],"name":"getQuotes","outputs":[{"components":[{"internalType":"uint256","name":"quoteId","type":"uint256"},{"internalType":"uint256","name":"orderId","type":"uint256"},{"internalType":"address","name":"seller","type":"address"},{"internalType":"enum SellerType","name":"sellerType","type":"uint8"},{"internalType":"uint256","name":"premiumRate","type":"uint256"},{"internalType":"uint256","name":"premiumAmount","type":"uint256"},{"internalType":"uint256","name":"marginRate","type":"uint256"},{"internalType":"uint256","name":"marginAmount","type":"uint256"},{"internalType":"enum LiquidationRule","name":"liquidationRule","type":"uint8"},{"internalType":"uint8","name":"consecutiveDays","type":"uint8"},{"internalType":"uint8","name":"dailyLimitPercent","type":"uint8"},{"internalType":"uint256","name":"createdAt","type":"uint256"},{"internalType":"uint256","name":"expiresAt","type":"uint256"},{"internalType":"enum QuoteStatus","name":"status","type":"uint8"}],"internalType":"struct Quote[]","name":"","type":"tuple[]"}],"stateMutability":"view","type":"function"},{"inputs":[{"internalType":"bytes32","name":"role","type":"bytes32"}],"name":"getRoleAdmin","outputs":[{"internalType":"bytes32","name":"","type":"bytes32"}],"stateMutability":"view","type":"function"},{"inputs":[{"internalType":"address","name":"seller","type":"address"}],"name":"getSellerOrders","outputs":[{"internalType":"uint256[]","name":"","type":"uint256[]"}],"stateMutability":"view","type":"function"},{"inputs":[{"internalType":"bytes32","name":"role","type":"bytes32"},{"internalType":"address","name":"account","type":"address"}],"name":"grantRole","outputs":[],"stateMutability":"nonpayable","type":"function"},{"inputs":[{"internalType":"bytes32","name":"role","type":"bytes32"},{"internalType":"address","name":"account","type":"address"}],"name":"hasRole","outputs":[{"internalType":"bool","name":"","type":"bool"}],"stateMutability":"view","type":"function"},{"inputs":[],"name":"nextOrderId","outputs":[{"internalType":"uint256","name":"","type":"uint256"}],"stateMutability":"view","type":"function"},{"inputs":[],"name":"nextQuoteId","outputs":[{"internalType":"uint256","name":"","type":"uint256"}],"stateMutability":"view","type":"function"},{"inputs":[{"internalType":"uint256","name":"","type":"uint256"},{"internalType":"uint256","name":"","type":"uint256"}],"name":"orderQuotes","outputs":[{"internalType":"uint256","name":"quoteId","type":"uint256"},{"internalType":"uint256","name":"orderId","type":"uint256"},{"internalType":"address","name":"seller","type":"address"},{"internalType":"enum SellerType","name":"sellerType","type":"uint8"},{"internalType":"uint256","name":"premiumRate","type":"uint256"},{"internalType":"uint256","name":"premiumAmount","type":"uint256"},{"internalType":"uint256","name":"marginRate","type":"uint256"},{"internalType":"uint256","name":"marginAmount","type":"uint256"},{"internalType":"enum LiquidationRule","name":"liquidationRule","type":"uint8"},{"internalType":"uint8","name":"consecutiveDays","type":"uint8"},{"internalType":"uint8","name":"dailyLimitPercent","type":"uint8"},{"internalType":"uint256","name":"createdAt","type":"uint256"},{"internalType":"uint256","name":"expiresAt","type":"uint256"},{"internalType":"enum QuoteStatus","name":"status","type":"uint8"}],"stateMutability":"view","type":"function"},{"inputs":[{"internalType":"uint256","name":"","type":"uint256"}],"name":"orders","outputs":[{"internalType":"uint256","name":"orderId","type":"uint256"},{"internalType":"address","name":"buyer","type":"address"},{"internalType":"address","name":"seller","type":"address"},{"internalType":"string","name":"underlyingName","type":"string"},{"internalType":"string","name":"underlyingCode","type":"string"},{"internalType":"string","name":"market","type":"string"},{"internalType":"string","name":"country","type":"string"},{"internalType":"string","name":"refPrice","type":"string"},{"internalType":"enum Direction","name":"direction","type":"uint8"},{"internalType":"uint256","name":"notionalUSDT","type":"uint256"},{"internalType":"uint256","name":"strikePrice","type":"uint256"},{"internalType":"uint256","name":"expiryTimestamp","type":"uint256"},{"internalType":"uint256","name":"premiumRate","type":"uint256"},{"internalType":"uint256","name":"premiumAmount","type":"uint256"},{"internalType":"uint256","name":"initialMargin","type":"uint256"},{"internalType":"uint256","name":"currentMargin","type":"uint256"},{"internalType":"uint256","name":"minMarginRate","type":"uint256"},{"internalType":"uint256","name":"maxPremiumRate","type":"uint256"},{"internalType":"enum LiquidationRule","name":"liquidationRule","type":"uint8"},{"internalType":"uint8","name":"consecutiveDays","type":"uint8"},{"internalType":"uint8","name":"dailyLimitPercent","type":"uint8"},{"internalType":"uint8","name":"exerciseDelay","type":"uint8"},{"internalType":"enum SellerType","name":"sellerType","type":"uint8"},{"internalType":"address","name":"designatedSeller","type":"address"},{"internalType":"uint256","name":"arbitrationWindow","type":"uint256"},{"internalType":"uint256","name":"marginCallDeadline","type":"uint256"},{"internalType":"bool","name":"dividendAdjustment","type":"bool"},{"internalType":"enum FeedRule","name":"feedRule","type":"uint8"},{"internalType":"enum OrderStatus","name":"status","type":"uint8"},{"internalType":"uint256","name":"createdAt","type":"uint256"},{"internalType":"uint256","name":"matchedAt","type":"uint256"},{"internalType":"uint256","name":"settledAt","type":"uint256"},{"internalType":"uint256","name":"lastFeedPrice","type":"uint256"},{"internalType":"uint256","name":"dividendAmount","type":"uint256"}],"stateMutability":"view","type":"function"},{"inputs":[],"name":"pause","outputs":[],"stateMutability":"nonpayable","type":"function"},{"inputs":[],"name":"paused","outputs":[{"internalType":"bool","name":"","type":"bool"}],"stateMutability":"view","type":"function"},{"inputs":[{"internalType":"uint256","name":"orderId","type":"uint256"},{"internalType":"enum FeedType","name":"feedType","type":"uint8"},{"internalType":"uint256","name":"finalPrice","type":"uint256"}],"name":"processFeedCallback","outputs":[],"stateMutability":"nonpayable","type":"function"},{"inputs":[{"internalType":"uint256","name":"orderId","type":"uint256"},{"internalType":"uint256","name":"finalPrice","type":"uint256"}],"name":"processFinalFeedResult","outputs":[],"stateMutability":"nonpayable","type":"function"},{"inputs":[{"internalType":"uint256","name":"orderId","type":"uint256"},{"internalType":"uint256","name":"initialPrice","type":"uint256"}],"name":"processInitialFeedResult","outputs":[],"stateMutability":"nonpayable","type":"function"},{"inputs":[{"internalType":"uint256","name":"","type":"uint256"}],"name":"quotes","outputs":[{"internalType":"uint256","name":"quoteId","type":"uint256"},{"internalType":"uint256","name":"orderId","type":"uint256"},{"internalType":"address","name":"seller","type":"address"},{"internalType":"enum SellerType","name":"sellerType","type":"uint8"},{"internalType":"uint256","name":"premiumRate","type":"uint256"},{"internalType":"uint256","name":"premiumAmount","type":"uint256"},{"internalType":"uint256","name":"marginRate","type":"uint256"},{"internalType":"uint256","name":"marginAmount","type":"uint256"},{"internalType":"enum LiquidationRule","name":"liquidationRule","type":"uint8"},{"internalType":"uint8","name":"consecutiveDays","type":"uint8"},{"internalType":"uint8","name":"dailyLimitPercent","type":"uint8"},{"internalType":"uint256","name":"createdAt","type":"uint256"},{"internalType":"uint256","name":"expiresAt","type":"uint256"},{"internalType":"enum QuoteStatus","name":"status","type":"uint8"}],"stateMutability":"view","type":"function"},{"inputs":[{"internalType":"bytes32","name":"role","type":"bytes32"},{"internalType":"address","name":"callerConfirmation","type":"address"}],"name":"renounceRole","outputs":[],"stateMutability":"nonpayable","type":"function"},{"inputs":[{"internalType":"uint256","name":"orderId","type":"uint256"},{"internalType":"enum FeedTier","name":"tier","type":"uint8"}],"name":"requestFeed","outputs":[],"stateMutability":"payable","type":"function"},{"inputs":[{"internalType":"bytes32","name":"role","type":"bytes32"},{"internalType":"address","name":"account","type":"address"}],"name":"revokeRole","outputs":[],"stateMutability":"nonpayable","type":"function"},{"inputs":[{"internalType":"address","name":"","type":"address"},{"internalType":"uint256","name":"","type":"uint256"}],"name":"sellerOrders","outputs":[{"internalType":"uint256","name":"","type":"uint256"}],"stateMutability":"view","type":"function"},{"inputs":[{"internalType":"address","name":"_config","type":"address"}],"name":"setConfig","outputs":[],"stateMutability":"nonpayable","type":"function"},{"inputs":[{"internalType":"address","name":"_vaultManager","type":"address"}],"name":"setVaultManager","outputs":[],"stateMutability":"nonpayable","type":"function"},{"inputs":[{"internalType":"uint256","name":"orderId","type":"uint256"},{"internalType":"uint256","name":"premiumRate","type":"uint256"},{"internalType":"uint256","name":"marginRate","type":"uint256"},{"internalType":"enum LiquidationRule","name":"liquidationRule","type":"uint8"},{"internalType":"uint8","name":"consecutiveDays","type":"uint8"},{"internalType":"uint8","name":"dailyLimitPercent","type":"uint8"}],"name":"submitQuote","outputs":[{"internalType":"uint256","name":"quoteId","type":"uint256"}],"stateMutability":"nonpayable","type":"function"},{"inputs":[{"internalType":"bytes4","name":"interfaceId","type":"bytes4"}],"name":"supportsInterface","outputs":[{"internalType":"bool","name":"","type":"bool"}],"stateMutability":"view","type":"function"},{"inputs":[],"name":"unpause","outputs":[],"stateMutability":"nonpayable","type":"function"},{"inputs":[{"internalType":"uint256","name":"orderId","type":"uint256"},{"internalType":"uint256","name":"amount","type":"uint256"}],"name":"updateOrderDividend","outputs":[],"stateMutability":"nonpayable","type":"function"},{"inputs":[{"internalType":"uint256","name":"orderId","type":"uint256"},{"internalType":"uint256","name":"newMargin","type":"uint256"}],"name":"updateOrderMargin","outputs":[],"stateMutability":"nonpayable","type":"function"},{"inputs":[{"internalType":"uint256","name":"orderId","type":"uint256"},{"internalType":"uint256","name":"deadline","type":"uint256"}],"name":"updateOrderMarginCallDeadline","outputs":[],"stateMutability":"nonpayable","type":"function"},{"inputs":[{"internalType":"uint256","name":"orderId","type":"uint256"},{"internalType":"uint256","name":"newPrice","type":"uint256"}],"name":"updateOrderPrice","outputs":[],"stateMutability":"nonpayable","type":"function"},{"inputs":[{"internalType":"uint256","name":"orderId","type":"uint256"},{"internalType":"uint256","name":"timestamp","type":"uint256"}],"name":"updateOrderSettledAt","outputs":[],"stateMutability":"nonpayable","type":"function"},{"inputs":[{"internalType":"uint256","name":"orderId","type":"uint256"},{"internalType":"enum OrderStatus","name":"newStatus","type":"uint8"}],"name":"updateOrderStatus","outputs":[],"stateMutability":"nonpayable","type":"function"},{"inputs":[],"name":"usdt","outputs":[{"internalType":"contract IERC20","name":"","type":"address"}],"stateMutability":"view","type":"function"},{"inputs":[],"name":"vaultManager","outputs":[{"internalType":"contract VaultManager","name":"","type":"address"}],"stateMutability":"view","type":"function"}],"evm":{"bytecode":{"linkReferences":{},"object":"608034620000f557601f62004bea38819003918201601f19168301916001600160401b03831184841017620000fa57808492608094604052833981010312620000f5578062000052620000e49262000110565b90620000616020820162000110565b906200007e6060620000766040840162000110565b920162000110565b6001808055600581905560065560028054610100600160a81b03191660089590951b610100600160a81b031694909417909355600380546001600160a01b03199081166001600160a01b0394851617909155600480549091169190921617905562000125565b50604051614a339081620001b78239f35b600080fd5b634e487b7160e01b600052604160045260246000fd5b51906001600160a01b0382168203620000f557565b6001600160a01b031660008181527fad3228b676f7d3cd4284a5443f17f1962b36e491b30a40b2405849e597ba5fb5602052604081205490919060ff16620001b257818052816020526040822081835260205260408220600160ff1982541617905533917f2f8788117e7eff1d82e926ec794901d17c78024a50270940304540a733656f0d8180a4600190565b509056fe610280604052600436101561001357600080fd5b6000803560e01c806301d0d5b81461364c57806301ffc9a7146135f557806315d92e33146135ae5780631c0dd7e81461356757806320e3dbd41461351d578063248a9ca3146134f15780632a58b330146134d35780632f2ff15d146134965780632f48ab7d1461346d5780633087a88c1461313e57806336568abe146130f65780633f4ba83a1461308b57806342dd6d3e14612f7057806344f1eaae14612f295780634500cb6014612ee157806345cb450514612e8b5780634efef6aa14612e6d5780635c975abb14612e4a5780635d7ffe7b14612a5a5780635e9e78d014612a1357806367ac0bf01461269b5780636dbe75791461246d5780637203a5821461206757806379502c551461203a5780637d90042114611fad5780638456cb5914611f525780638a4adf2414611f2957806391d1485414611ede578063979b4e6d146114f0578063a217fddf146114d4578063a45f2ebc14611461578063a61cf0d4146113ce578063a85c38ef14610ff4578063aab3196d14610f87578063b543503e14610f42578063ba9cf01d14610f19578063bc0ef26b14610d7d578063cdc65ab614610d54578063cf3fec4314610cc7578063d049bfef14610a7a578063d09ef241146104f0578063d37e527b146104a9578063d547741f14610468578063e02e34f814610347578063e4cbac40146102c45763f7ff64261461021857600080fd5b346102c15761022636614039565b90825260086020526040822080548210156102bd576102459250614344565b508054906102b9600182015460028301549260038101549460048201549260058301549160068401549060078501549160088601549460ff600a600989015498015416976040519b8c9b8c60ff8860101c169860ff808a60081c1699169760ff8460a01c169360018060a01b03169261410e565b0390f35b8280fd5b80fd5b50346102c157602080600319360112610343576001600160a01b036102e761404f565b168252600b815260408220916040518092808554928381520194835280832092905b82821061032c576102b985610320818903826142ca565b604051918291826140a9565b835486529485019460019384019390910190610309565b5080fd5b50346102c15761035636614039565b8115158061045d575b610368906147df565b6103706143c8565b81835260076020526040832090601582019182549260ff8460101c1691600b83101561044957600283036104045760008051602061499e8339815191529460c09460196204000093015562ff000019161790556103d06040518092614337565b6004602082015260806040820152600c60808201526b1a5b9a5d1a585b081999595960a21b60a0820152426060820152a280f35b60405162461bcd60e51b815260206004820152601e60248201527f4f7074696f6e73436f72653a206f72646572206e6f74206d61746368656400006044820152606490fd5b634e487b7160e01b87526021600452602487fd5b50600554821061035f565b50346102c15760403660031901126102c1576104a5600435610488614065565b90808452836020526104a06001604086200154614402565b6144a6565b5080f35b50346102c1576104b836614039565b90801515806104e5575b6104cb906147df565b6104d3614360565b82526007602052601460408320015580f35b5060055481106104c2565b50346102c15760203660031901126102c15780610420604051610512816142ae565b82815282602082015282604082015260608082015260606080820152606060a0820152606060c0820152606060e08201528261010082015282610120820152826101408201528261016082015282610180820152826101a0820152826101c0820152826101e08201528261020082015282610220820152826102408201528261026082015282610280820152826102a0820152826102c0820152826102e08201528261030082015282610320820152826103408201528261036082015282610380820152826103a0820152826103c0820152826103e082015282610400820152015260043581526007602052604081206040519161060f836142ae565b8154835260018201546001600160a01b039081166020850152600283015416604080850191909152516106508161064981600387016141d3565b03826142ca565b60608401526040516106698161064981600487016141d3565b60808401526040516106828161064981600587016141d3565b60a084015260405161069b8161064981600687016141d3565b60c08401526040516106b48161064981600787016141d3565b60e084015260ff6008830154166106ca8161432d565b6101008401526009820154610120840152600a820154610140840152600b820154610160840152600c820154610180840152600d8201546101a0840152600e8201546101c0840152600f8201546101e084015260108201546102008401526011820154610220840152601282015461074460ff82166140e4565b60ff811661024085015260ff8160081c1661026085015260ff8160101c1661028085015260ff8160181c166102a085015261078460ff8260201c166140e4565b60ff8160201c166102c085015260018060a01b039060281c166102e08401526013820154610300840152601482015461032084015260158201549060ff821615156103408501526107da60ff8360081c1661432d565b60ff8260081c16610360850152600b60ff8360101c161015610a6657509060ff601a9260101c1661038084015260168101546103a084015260178101546103c084015260188101546103e0840152601981015461040084015201546104208201526040518091602082528051602083015260018060a01b03602082015116604083015260018060a01b0360408201511660608301526104206108f0610890606084015161044060808701526104608601906142ed565b6108da6108c66108b2608087015193601f1994858a83030160a08b01526142ed565b60a0870151848983030160c08a01526142ed565b60c0860151838883030160e08901526142ed565b9060e085015190868303016101008701526142ed565b916101008101516109008161432d565b6101208501526101208101516101408501526101408101516101608501526101608101516101808501526101808101516101a08501526101a08101516101c08501526101c08101516101e08501526101e0810151610200850152610200810151610220850152610220810151610240850152610240810151610981816140e4565b61026085015260ff6102608201511661028085015260ff610280820151166102a085015260ff6102a0820151166102c08501526102c08101516109c3816140e4565b6102e085015260018060a01b036102e0820151166103008501526103008101516103208501526103208101516103408501526103408101511515610360850152610360810151610a128161432d565b610380850152610a2c6103808201516103a0860190614337565b6103a08101516103c08501526103c08101516103e08501526103e08101516104008501526104008101518285015201516104408301520390f35b634e487b7160e01b81526021600452602490fd5b50346102c157602090816003193601126102c157600435815260088083526040822080549093906001600160401b038111610cb35791849192604051916005610ac78684831b01856142ca565b82845285840191829588528688209188935b858510610bd6575050505050506040519280840191818552518092526040840192945b828110610b095784840385f35b909192826101c06001928851805182528381015184830152848060a01b03604082015116604083015260608082015190610b42826140e4565b8301526080808201519083015260a0808201519083015260c0808201519083015260e081015160e08301526101008082015190610b7e826140e4565b83015260ff6101208181840151169084015261014090818301511690830152610160808201519083015261018080820151908301526101a08091015190610bc482614104565b82015201960191019492919094610afc565b600b8960019260409c9b999a9c51610bed81614292565b8754815284880154838201526002880154858060a01b038116604083015260ff908160a091821c16610c1e816140e4565b606084015260038a0154608084015260048a0154908301528689015460c0830152600689015460e08301528060078a0154818116610c5b816140e4565b61010085015281818b1c1661012085015260101c16610140830152878901546101608301526009890154610180830152600a89015416610c9a81614104565b6101a08201528152019401940193929896959798610ad9565b634e487b7160e01b84526041600452602484fd5b50346102c157602080600319360112610343576004356001600160401b0381116102bd57610cfa82913690600401613ffc565b91908260405193849283378101600c815203019020916040518092808554928381520194835280832092905b828210610d3d576102b985610320818903826142ca565b835486529485019460019384019390910190610d26565b50346102c157806003193601126102c157602060405160008051602061497e8339815191528152f35b50346102c157602080600319360112610343576004359081151580610f0e575b610da6906147df565b81835260078152610dc760018060a01b036001604086200154163314614720565b610dcf6146fd565b610dd76146df565b81835260078152601560408420019081549160ff8360101c1692600b841015610efa5783158015610ef0575b15610e9c5791600a91620a000060008051602061499e833981519152959462ff00001916179055847fb848a62ef7171019d243ed8f5b8e1e6c32cafed0b7fc99da26cb2fc2e7d533ec6040516040815280610e606040820161482b565b42868301520390a2610e756040518094614337565b8201526080604082015280610e8c6080820161482b565b4260608301520390a26001805580f35b60405162461bcd60e51b815260048101849052602660248201527f4f7074696f6e73436f72653a2063616e6e6f742063616e63656c206166746572604482015265040dac2e8c6d60d31b6064820152608490fd5b5060018414610e03565b634e487b7160e01b86526021600452602486fd5b506005548210610d9d565b50346102c157806003193601126102c157602060405160008051602061493e8339815191528152f35b50346102c15760203660031901126102c157610f5c61404f565b610f646143c8565b600380546001600160a01b0319166001600160a01b039290921691909117905580f35b50346102c15760403660031901126102c157602435600435600b8210156102bd5780151580610fe9575b610fba906147df565b610fc2614360565b82526007602052601560408320019062ff000082549160101b169062ff0000191617905580f35b506005548110610fb1565b50346102c15760203660031901126102c1576004358152600760205260409081902060a081905280546101c05260018101546001600160a01b039081166101e0526002820154925160c0819052921691906110539082906003016141d3565b0360c05190611061916142ca565b604051808060a05160040190611076916141d3565b0361108190826142ca565b60405191828060a05160050190611097916141d3565b036110a290846142ca565b60405191828060a051600601906110b8916141d3565b036110c390846142ca565b60405193848060a051600701906110d9916141d3565b036110e490866142ca565b60a05193600885015460ff1661010052600985015495600a860154600b87015491600c88015493600d89015495600e8a015497600f8b01549960108c01549b601181015460805260128101546101a052601381015461024052601481015461018052601581015461022052601681015461012052601781015461020052601881015460e052601981015461026052601a01546101405260405180610160526101c05190526101e05161016051602001526101605160400152610440806101605160600152610160510160c051906111ba916142ed565b6101605180820390608001526111cf916142ed565b610160518082039060a001526111e4916142ed565b610160518082039060c001526111f9916142ed565b610160518082039060e0015261120e916142ed565b976101005161121c9061432d565b61010051610160516101000152610160516101200152610160516101400152610160516101600152610160516101800152610160516101a00152610160516101c00152610160516101e001526101605161020001526080516101605161022001526101a05160ff1661128d906140e4565b6101a05160ff166101605161024001526101a05160081c60ff166101605161026001526101a05160101c60ff166101605161028001526101a05160181c60ff16610160516102a001526101a05160201c60ff166112e9906140e4565b6101a05160201c60ff16610160516102c00152600160a01b600190036101a05160281c16610160516102e0015261024051610160516103000152610180516101605161032001526102205160ff1615156101605161034001526102205160081c60ff166113559061432d565b6102205160081c60ff1661016051610360015261016051610380016102205160101c60ff169061138491614337565b61012051610160516103a0015261020051610160516103c0015260e051610160516103e0015261026051610160516104000152610140516101605161042001526101605180910390f35b50346102c15760203660031901126102c15760409060043581526009602052208054906102b9600182015460028301549260038101549460048201549260058301549160068401549060078501549160088601549460ff600a600989015498015416976040519b8c9b8c60ff8860101c169860ff808a60081c1699169760ff8460a01c169360018060a01b03169261410e565b50346102c157602080600319360112610343576001600160a01b0361148461404f565b168252600a815260408220916040518092808554928381520194835280832092905b8282106114bd576102b985610320818903826142ca565b8354865294850194600193840193909101906114a6565b50346102c157806003193601126102c157602090604051908152f35b50346102c1576102603660031901126102c1576004356001600160401b03811161034357611522903690600401613ffc565b6024356001600160401b038111611eda57611541903690600401613ffc565b906044356001600160401b038111611e8a57611561903690600401613ffc565b906064356001600160401b038111611ed657611581903690600401613ffc565b906084356001600160401b038111611ed2576115a1903690600401613ffc565b999098600260a435101561034357600361014435101561034357610164356001600160a01b0381169003611eba576115d7614029565b60036101e43510156102bd5760ff61020435166102043503611eba5760ff61022435166102243503611eba5760026102443510156102bd576116176146fd565b61161f6146df565b61162c60c435151561451b565b6116394260e43511614576565b600354600480546002546040516337382d3960e21b8152936001600160a01b0390811693928116926020928692839160081c165afa928315611ec7578693611e8e575b50813b15611e8a579185916116a9938360405180968195829463ec185a0760e01b845233600485016145d0565b03925af18015611e7f57908491611e6b575b5050600554996116ca8b614616565b6005558a84526007602052604084208b81556001810180546001600160a01b03191633179055926001600160401b038211611e5757819061170e6003860154614199565b601f8111611e06575b508590601f8311600114611d9a578692611d8f575b50508160011b916000199060031b1c19161760038301555b6001600160401b038911611b4b5761175f6004830154614199565b601f8111611d4a575b508883601f8211600114611cde578491611cd3575b508960011b906000198b60031b1c19161760048301555b6001600160401b038711611b4b576117af6005830154614199565b601f8111611c8e575b508683601f8211600114611c24578491611c19575b508760011b906000198960031b1c19161760058301555b6001600160401b038511611b4b576117ff6006830154614199565b601f8111611bd4575b508483601f8211600114611b6a578491611b5f575b508560011b906000198760031b1c19161760068301555b6001600160401b038c11611b4b5761184f6007830154614199565b9b601f8d11611b02575b60209c50839b601f8211600114611a6f579a6119db968e829e976119ab6119f39f859f9e9c978a859f9b9a6040928a8a9f9b6119c39c8a9f978d9892611a64575b50508160011b916000199060031b1c19161760078301555b6118c160a4356008840161463b565b60c435600983015560e435600b830155610104356011830155610124356010830155611981601283016118f6610144356140e4565b8054600160281b600160c81b036101643560281b1660ff6101443581168d1b60018e1b600160c81b0319909316929092171782556101843560138601556101a435601486015560158501805460ff1916941515909116939093178355805463ff0000001916815561196a6101e43582614653565b611977610204358261465d565b6102243590614673565b61198e610244358261468b565b62ff0000198154169055601642910155338152600a8652206146aa565b8260405193849283378101600c8152030190206146aa565b8260405193849283378101600d8152030190206146aa565b8260405193849283378101600e8152030190206146aa565b604051600181524283820152816000805160206149be83398151915260403393a38060008051602061499e83398151915260c06040516000815260008682015260806040820152600760808201526618dc99585d195960ca1b60a0820152426060820152a260018055604051908152f35b01359050388061189a565b6007840185528d852090859d8e5b601f19851611611aea578f9a968e9f50976119ab6119f39f9e9d9b968f9a6040908f9a8d98936119db9f988b8b968f9a926001936119c39f601f19811610611ad0575b505050811b0160078301556118b2565b0135600019600384901b60f8161c19169055388080611ac0565b918f600181928585013581550193019e019d8e611a7d565b60078301845260208420601f820160051c810160208310611b44575b601f8f5b0160051c82018110611b35575050611859565b60008155600101601f8f611b22565b5080611b1e565b634e487b7160e01b83526041600452602483fd5b90508401353861181d565b600684018552602085209150845b601f1988168110611bbc575086601f19811610611ba2575b5050600185811b016006830155611834565b850135600019600388901b60f8161c191690553880611b90565b9091602060018192858a013581550193019101611b78565b60068301845260208420601f870160051c810160208810611c12575b601f830160051c82018110611c06575050611808565b60008155600101611bf0565b5080611bf0565b9050860135386117cd565b600584018552602085209150845b601f198a168110611c76575088601f19811610611c5c575b5050600187811b0160058301556117e4565b87013560001960038a901b60f8161c191690553880611c4a565b9091602060018192858c013581550193019101611c32565b60058301845260208420601f890160051c810160208a10611ccc575b601f830160051c82018110611cc05750506117b8565b60008155600101611caa565b5080611caa565b90508801353861177d565b600484018552602085209150845b8a601f198d168210611d325750508a601f19811610611d18575b5050600189811b016004830155611794565b89013560001960038c901b60f8161c191690553880611d06565b60018394602093948493013581550193019101611cec565b60048301845260208420601f8b0160051c810160208c10611d88575b601f830160051c82018110611d7c575050611768565b60008155600101611d66565b5080611d66565b01359050388061172c565b60038601875260208720879450915b601f1984168510611dee576001945083601f19811610611dd4575b505050811b016003830155611744565b0135600019600384901b60f8161c19169055388080611dc4565b81810135835560209485019460019093019201611da9565b90915060038501865260208620601f840160051c810160208510611e50575b90849392915b601f830160051c82018110611e41575050611717565b60008155859450600101611e2b565b5080611e25565b634e487b7160e01b85526041600452602485fd5b611e7490614269565b6102bd5782386116bb565b6040513d86823e3d90fd5b8580fd5b9092506020813d602011611ebf575b81611eaa602093836142ca565b81010312611eba5751913861167c565b600080fd5b3d9150611e9d565b6040513d88823e3d90fd5b8980fd5b8780fd5b8380fd5b50346102c15760403660031901126102c1576040611efa614065565b91600435815280602052209060018060a01b0316600052602052602060ff604060002054166040519015158152f35b50346102c157806003193601126102c1576003546040516001600160a01b039091168152602090f35b50346102c157806003193601126102c157611f6b6143c8565b611f736146df565b600160ff1960025416176002557f62e78cea01bee320cd4e420270b5ea74000d11b0c9f74754ebdbfc544b05a2586020604051338152a180f35b50346102c157602080600319360112610343576004356001600160401b0381116102bd57611fe082913690600401613ffc565b91908260405193849283378101600d815203019020916040518092808554928381520194835280832092905b828210612023576102b985610320818903826142ca565b83548652948501946001938401939091019061200c565b50346102c157806003193601126102c15760025460405160089190911c6001600160a01b03168152602090f35b50346102c15760c03660031901126102c157600360643510156102c15760843560ff81168103611eba5760a43560ff81168103611eba57600435151580612460575b6120b2906147df565b6120ba6146fd565b6120c26146df565b60043583526007602052604083209060ff601583015460101c16600b8110156122ef578015908115612455575b5015612400576009820154906127106121198161210e60243586614765565b049360443590614765565b04936011840154806123a2575b5060108401546044351061235e5760035460045487916001600160a01b039182169116803b156102bd578783916121759383604051809681958294630ac94d9360e31b84523360048501614778565b03925af180156123535761233f575b50506006549461219386614616565b600655620151804201421161232b5760ff92918391604051956121b587614292565b8887526004356020880152336040880152896060880152602435608088015260a087015260443560c087015260e08601526121f16064356140e4565b606435610100860152166101208401521661014082015242610160820152620151804201610180820152836101a08201528284526009602052612237816040862061484d565b6004358452600860205260408420805490600160401b821015612317579061226491600182018155614344565b61230357906122729161484d565b601581015460ff8160101c16600b8110156122ef5760209450156122d7575b5050604051602435815242838201528133917f878fe3f9bca373e42473c1f3ad3c9c35c4f1ecaf9a5f081a801a3fbd43049f55604060043592a460018055604051908152f35b6201000060159162ff00001916179101553880612291565b634e487b7160e01b85526021600452602485fd5b634e487b7160e01b85526004859052602485fd5b634e487b7160e01b86526041600452602486fd5b634e487b7160e01b87526011600452602487fd5b61234890614269565b611e8a578538612184565b6040513d84823e3d90fd5b606460405162461bcd60e51b815260206004820152602060248201527f4f7074696f6e73436f72653a206d617267696e207261746520746f6f206c6f776044820152fd5b602435116123b05738612126565b60405162461bcd60e51b815260206004820152602260248201527f4f7074696f6e73436f72653a207072656d69756d207261746520746f6f2068696044820152610ced60f31b6064820152608490fd5b60405162461bcd60e51b815260206004820152602760248201527f4f7074696f6e73436f72653a206f72646572206e6f7420616363657074696e676044820152662071756f74657360c81b6064820152608490fd5b6001915014386120ef565b50600554600435106120a9565b5060403660031901126102c15760243560043560038210156102bd5780151580612690575b61249b906147df565b80835260076020526124bd60018060a01b036001604086200154163314614720565b6124c56146fd565b6124cd6146df565b808352600760205260408320601581019283549360ff8560101c1690600b82101561044957600282036125f25760008051602061499e83398151915260c060008051602061495e8339815191529594938793620300008b9a62ff0000191617905561253b6040518092614337565b600360208201526080604082015260166080820152751a5b9a5d1a585b0819995959081c995c5d595cdd195960521b60a0820152426060820152a25b6009820154906125bd6040519360e0855260066125ae61259d60e08801600485016141d3565b8781036020890152600584016141d3565b918683036040880152016141d3565b956125c781614104565b60608401526125d5816140e4565b608083015260a08201524260c08201528033940390a36001805580f35b5090935060058103612617575060008051602061495e83398151915290600293612577565b6004036126365760008051602061495e83398151915290600193612577565b60405162461bcd60e51b815260206004820152602c60248201527f4f7074696f6e73436f72653a20696e76616c69642073746174757320666f722060448201526b19995959081c995c5d595cdd60a21b6064820152608490fd5b506005548110612492565b50346102c157602080600319360112610343576004359081151580612a08575b6126c4906147df565b6126cc6146fd565b6126d46146df565b8183526007815260408320601581019182549360ff8560101c1692600b84101561044957836129c5576002810180546001600160a01b0396919391908716801561298057331461292f576001830180546001600160a01b0319163317815562ff000019909816620200001790554260178301556009820154600254604051631c03be3560e31b81528a92909187908390600490829060081c8d165afa9182156128ec5783926128fb575b506127109161278c91614765565b0487600354168860045416600d860154823b156128f7576127c792859283604051809681958294630ac94d9360e31b84523360048501614778565b03925af19081156128ec5783916128d8575b5050876003541690886004541690823b15611eda576128129284928360405180968195829463ec185a0760e01b8452336004850161479a565b03925af18015612353576128ba575b5050918560008051602061499e8339815191529660c0969593612850600296338d52600a875260408d206146aa565b5498541691541690876000805160206149de83398151915284604051428152a461287d6040518094614337565b8201526080604082015260156080820152741cd95b1b195c881bdc99195c881858d8d95c1d1959605a1b60a0820152426060820152a26001805580f35b6128c990969593949296614269565b611ed657919092938738612821565b6128e190614269565b6103435781386127d9565b6040513d85823e3d90fd5b8480fd5b925090508582813d8111612928575b61291481836142ca565b81010312611eba579051899161278c61277e565b503d61290a565b60405162461bcd60e51b8152600481018690526024808201527f4f7074696f6e73436f72653a2063616e6e6f7420616363657074206f776e206f604482015263393232b960e11b6064820152608490fd5b60405162461bcd60e51b815260048101879052601f60248201527f4f7074696f6e73436f72653a206e6f7420612073656c6c6572206f72646572006044820152606490fd5b6064836040519062461bcd60e51b825280600483015260248201527f4f7074696f6e73436f72653a206f72646572206e6f7420617661696c61626c656044820152fd5b5060055482106126bb565b50346102c157612a2236614039565b9080151580612a4f575b612a35906147df565b612a3d614360565b82526007602052601960408320015580f35b506005548110612a2c565b50346102c1576020806003193601126103435760043590612a796146fd565b612a816146df565b818352600981526040832060ff90600a92828483015416612aa181614104565b612e065760098201544211612dc5576001948583015487526007825260408720948686019560018060a01b0390612adc828954163314614720565b60158101938454946202000062ff0000198716179055600296878101948c85875416968a86019760018060a01b0319895416178855612b62600760048601958654600d8a0155600681015480600e8b0155600f8a0155018d8082541691612b4760128b019384614653565b612b5782825460081c168461465d565b5460101c1690614673565b42601787015560048b8b8960098a0154925460081c1660405193848092631c03be3560e31b82525afa918215611e7f578492612d91575b5061271091612ba791614765565b049387600354169088600454169054823b156128f757612be192859283604051809681958294630ac94d9360e31b84523360048501614778565b03925af19081156128ec578391612d7d575b5050866003541693876004541690853b15611eda57612c2c9584928360405180998195829463ec185a0760e01b8452336004850161479a565b03925af1908115612353578e948892612d62575b5054168152600b8952604090208454612c58916146aa565b83548d526008885260408d208d835b612cf0575b50505050509260008051602061499e83398151915296949282612cbc9360c09896549a541691541690896000805160206149de83398151915286604051428152a460405194859160101c16614337565b82015260806040820152600e60808201526d1c5d5bdd19481858d8d95c1d195960921b60a0820152426060820152a2805580f35b8154811015612d5d578085612d08612d1b9385614344565b5054141580612d3d575b612d2157614616565b83612c67565b83612d2c8285614344565b5001805460ff19168d179055614616565b508c84612d4a8386614344565b50015416612d5781614104565b15612d12565b612c6c565b612d70919550839250614269565b6102c157858d9338612c40565b612d8690614269565b610343578138612bf3565b935090508a83813d8111612dbe575b612daa81836142ca565b81010312611eba5791518f92612ba7612b99565b503d612da0565b6064906040519062461bcd60e51b82526004820152601a60248201527913dc1d1a5bdb9cd0dbdc994e881c5d5bdd1948195e1c1a5c995960321b6044820152fd5b6064906040519062461bcd60e51b82526004820152601d60248201527f4f7074696f6e73436f72653a2071756f7465206e6f74206163746976650000006044820152fd5b50346102c157806003193601126102c157602060ff600254166040519015158152f35b50346102c157806003193601126102c1576020600654604051908152f35b50346102c15760403660031901126102c157612ea561404f565b6001600160a01b03168152600b60205260408120805460243592908310156102c1576020612ed3848461407b565b90546040519160031b1c8152f35b50346102c15760403660031901126102c157612efb61404f565b6001600160a01b03168152600a60205260408120805460243592908310156102c1576020612ed3848461407b565b50346102c157612f3836614039565b9080151580612f65575b612f4b906147df565b612f53614360565b82526007602052601a60408320015580f35b506005548110612f42565b50346102c157612f7f36614039565b81151580613080575b612f91906147df565b612f996143c8565b81835260076020526040832090601582019182549260ff8460101c1691600b83101561044957600483148015613076575b156130335760008051602061499e8339815191529460c09460196206000093015562ff000019161790556130016040518092614337565b6006602082015260806040820152600a608082015269199a5b985b081999595960b21b60a0820152426060820152a280f35b60405162461bcd60e51b815260206004820152601b60248201527a4f7074696f6e73436f72653a20696e76616c69642073746174757360281b6044820152606490fd5b5060058314612fca565b506005548210612f88565b50346102c157806003193601126102c1576130a46143c8565b60025460ff8116156130e45760ff19166002557f5db9ee0a495bf2e6ff9c91a7834c1ba4fdd244a5e8aa4e537bd38aeae4b073aa6020604051338152a180f35b604051638dfc202b60e01b8152600490fd5b50346102c15760403660031901126102c157613110614065565b336001600160a01b0382160361312c576104a5906004356144a6565b60405163334bd91960e11b8152600490fd5b50346102c15760603660031901126102c157600435602480356004811015611eda576044359083151580613462575b613176906147df565b3360009081527f3f8d9a030d334798d6aece9c5bcc7646b3f51f8740e76f47846d18cc4a1a8e4e602090815260409091205490929060008051602061497e8339815191529060ff161561344557508486526007835260408620918115613404576131df81614104565b806132ec575090601581019182549160ff8360101c1695600b8710156132da576002871480156132d0575b1561327e57506019015562ff000019166204000017905560405160008051602061499e8339815191529260c092600491613245908490614337565b820152608060408201526015608082015274696e697469616c20666565642063616c6c6261636b60581b60a0820152426060820152a280f35b8560266084926040519262461bcd60e51b845260048401528201527f4f7074696f6e73436f72653a206e6f74206177616974696e6720696e697469616044820152651b081999595960d21b6064820152fd5b506003871461320a565b634e487b7160e01b8952602160045288fd5b806132f8600292614104565b14613306575b505050505080f35b601582019081549060ff8260101c1695600b8710156132da576004871480156133fa575b156133ab5750601984015562ff00001916620600001790554260189091015560405160008051602061499e8339815191529260c09260069161336d908490614337565b82015260806040820152601360808201527266696e616c20666565642063616c6c6261636b60681b60a0820152426060820152a238808080806132fe565b856084916040519162461bcd60e51b83526004830152808201527f4f7074696f6e73436f72653a206e6f74206177616974696e672066696e616c206044820152631999595960e21b6064820152fd5b506005871461332a565b60405162461bcd60e51b815260048101859052601a81870152794f7074696f6e73436f72653a20696e76616c696420707269636560301b6044820152606490fd5b846044916040519163e2517d3f60e01b8352336004840152820152fd5b50600554841061316d565b50346102c157806003193601126102c1576004546040516001600160a01b039091168152602090f35b50346102c15760403660031901126102c1576104a56004356134b6614065565b90808452836020526134ce6001604086200154614402565b614428565b50346102c157806003193601126102c1576020600554604051908152f35b50346102c15760203660031901126102c157600160406020926004358152808452200154604051908152f35b50346102c15760203660031901126102c15761353761404f565b61353f6143c8565b60028054610100600160a81b03191660089290921b610100600160a81b031691909117905580f35b50346102c15761357636614039565b90801515806135a3575b613589906147df565b613591614360565b82526007602052600f60408320015580f35b506005548110613580565b50346102c1576135bd36614039565b90801515806135ea575b6135d0906147df565b6135d8614360565b82526007602052601860408320015580f35b5060055481106135c7565b50346102c15760203660031901126102c15760043563ffffffff60e01b811680910361034357602090637965db0b60e01b811490811561363b575b506040519015158152f35b6301ffc9a760e01b14905082613630565b50346102c1576102203660031901126102c1576004356001600160401b0381116103435761367e903690600401613ffc565b90916024356001600160401b0381116103435761369f903690600401613ffc565b93906044356001600160401b038111611eda576136c0903690600401613ffc565b906064356001600160401b038111611e8a576136e0903690600401613ffc565b90946084356001600160401b038111611ed657613701903690600401613ffc565b600260a4351015613ff8576003610144351015613ff85760ff61016435166101643503613ff85760ff61018435166101843503613ff857613740614029565b9160ff6101e435166101e43503611ed2576002610204351015611ed2576137656146fd565b61376d6146df565b61377a60c435151561451b565b6137874260e43511614576565b600354600480546002546040516337382d3960e21b8152936001600160a01b0390811693928116926020928692839160081c165afa928315613fed578d93613fb9575b50813b15613fb557918c916137f7938360405180968195829463ec185a0760e01b845233600485016145d0565b03925af18015613f9357613fa2575b506003546004546001600160a01b039182169116813b15613f9e5761384a8c928392604051948580948193630ac94d9360e31b835261012435903360048501614778565b03925af18015613f9357908b91613f7f575b50506005549a61386b8c614616565b6005558b8b52600760205260408b208c81556002810180546001600160a01b03191633179055946001600160401b038211613f6b5781906138af6003880154614199565b601f8111613f1a575b508c90601f8311600114613eae578d92613ea3575b50508160011b916000199060031b1c19161760038501555b6001600160401b038c11613c59576139006004850154614199565b601f8111613e5d575b508b8a601f8211600114613dee578b91613de3575b5060001960038e901b1c191660018d901b1760048501555b6001600160401b038711613c59576139516005850154614199565b601f8111613d9e575b50868a601f8211600114613d34578b91613d29575b508760011b906000198960031b1c19161760058501555b6001600160401b038511613c59576139a16006850154614199565b601f8111613ce4575b50848a601f8211600114613c78578b91613c6d575b508560011b906000198760031b1c19161760068501555b6001600160401b038211613c59576139f16007850154614199565b601f8111613c14575b509260209b9694928a928c9997958490601f8311600114613b6857958f613b319d6119ab8e60408a859f9e9b9a6119db9e9a8a859f9b869b8a9f9d6119c39e92613b5d575b50508160011b916000199060031b1c19161760078301555b613a6660a4356008840161463b565b60c435600983015560e435600b830155612710613a886101043560c435614765565b04600d83015561012435600e83015561012435600f83015560128201613ab16101443582614653565b613abe610164358261465d565b613acb6101843582614673565b6101a4356013840155613aee6015840192839060ff801983541691151516179055565b805463ff00000019166101e43560181b63ff00000016179055613b14610204358261468b565b62ff0000198154169055601642910155338152600b8652206146aa565b6040519081524283820152816000805160206149be83398151915260403393a360018055604051908152f35b013590503880613a3f565b9b94939291906007840185528f852090855b601f1984168110613be2575060209a99966119ab613b319f8f9a948e996119db9d996119c39960018f9a6040958f9a978d9883601f19811610613bc8575b505050811b016007830155613a57565b0135600019600384901b60f8161c19169055388080613bb8565b9295509396989a9c929597999b508f600181928686013581550194019101928d94918f9c9a9896939d9b999794613b7a565b600785018b5260208b20601f840160051c810160208510613c52575b601f830160051c82018110613c465750506139fa565b60008155600101613c30565b5080613c30565b634e487b7160e01b8a52604160045260248afd5b9050890135386139bf565b600686018c5260208c2091508b5b8b601f1989168210613ccc57505086601f19811610613cb2575b5050600185811b0160068501556139d6565b8a0135600019600388901b60f8161c191690553880613ca0565b60018394602093948493013581550193019101613c86565b600685018b5260208b20601f870160051c810160208810613d22575b601f830160051c82018110613d165750506139aa565b60008155600101613d00565b5080613d00565b90508601353861396f565b600586018c5260208c2091508b5b601f198a168110613d86575088601f19811610613d6c575b5050600187811b016005850155613986565b87013560001960038a901b60f8161c191690553880613d5a565b9091602060018192858c013581550193019101613d42565b600585018b5260208b20601f890160051c810160208a10613ddc575b601f830160051c82018110613dd057505061395a565b60008155600101613dba565b5080613dba565b90508801353861391e565b600486018c5260208c2091508b8e5b8b601f1982168310613e435750601f198116109050613e29575b505060018c811b016004850155613936565b89013560001960038f901b60f8161c191690553880613e17565b600184956020939495849301358155019401920190613dfd565b600485018b5260208b208d6020601f820160051c83019110613e9c575b601f830160051c82018110613e90575050613909565b60008155600101613e7a565b5080613e7a565b0135905038806138cd565b600388018e5260208e208e9450915b601f1984168510613f02576001945083601f19811610613ee8575b505050811b0160038501556138e5565b0135600019600384901b60f8161c19169055388080613ed8565b81810135835560209485019460019093019201613ebd565b909150600387018d5260208d20601f840160051c810160208510613f64575b90849392915b601f830160051c82018110613f555750506138b8565b60008155859450600101613f3f565b5080613f39565b634e487b7160e01b8c52604160045260248cfd5b613f8890614269565b611ed257893861385c565b6040513d8d823e3d90fd5b8b80fd5b613fae909a919a614269565b9838613806565b8c80fd5b9092506020813d602011613fe5575b81613fd5602093836142ca565b81010312613fb5575191386137ca565b3d9150613fc8565b6040513d8f823e3d90fd5b8880fd5b9181601f84011215611eba578235916001600160401b038311611eba5760208381860195010111611eba57565b6101c435908115158203611eba57565b6040906003190112611eba576004359060243590565b600435906001600160a01b0382168203611eba57565b602435906001600160a01b0382168203611eba57565b80548210156140935760005260206000200190600090565b634e487b7160e01b600052603260045260246000fd5b6020908160408183019282815285518094520193019160005b8281106140d0575050505090565b8351855293810193928101926001016140c2565b600311156140ee57565b634e487b7160e01b600052602160045260246000fd5b600411156140ee57565b9b99979593919e9d9c9a98969492909e6101c08d019f8d5260208d0152600160a01b600190031660408c0152614143816140e4565b60608b015260808a015260a089015260c088015260e0870152614165816140e4565b61010086015260ff1661012085015260ff1661014084015261016083015261018082015261419282614104565b6101a00152565b90600182811c921680156141c9575b60208310146141b357565b634e487b7160e01b600052602260045260246000fd5b91607f16916141a8565b90600092918054916141e483614199565b9182825260019384811690816000146142465750600114614206575b50505050565b90919394506000526020928360002092846000945b838610614232575050505001019038808080614200565b80548587018301529401938590820161421b565b9294505050602093945060ff191683830152151560051b01019038808080614200565b6001600160401b03811161427c57604052565b634e487b7160e01b600052604160045260246000fd5b6101c081019081106001600160401b0382111761427c57604052565b61044081019081106001600160401b0382111761427c57604052565b601f909101601f19168101906001600160401b0382119082101761427c57604052565b919082519283825260005b848110614319575050826000602080949584010152601f8019910116010190565b6020818301810151848301820152016142f8565b600211156140ee57565b90600b8210156140ee5752565b805482101561409357600052600b602060002091020190600090565b3360009081527fdd53df7e4642f4e3d9dededdac02355f2e876e2a9b7ef4e260af8d6fd7b33257602052604090205460008051602061493e8339815191529060ff16156143aa5750565b6044906040519063e2517d3f60e01b82523360048301526024820152fd5b3360009081527fad3228b676f7d3cd4284a5443f17f1962b36e491b30a40b2405849e597ba5fb5602052604081205460ff16156143aa5750565b80600052600060205260406000203360005260205260ff60406000205416156143aa5750565b9060009180835282602052604083209160018060a01b03169182845260205260ff604084205416156000146144a157808352826020526040832082845260205260408320600160ff198254161790557f2f8788117e7eff1d82e926ec794901d17c78024a50270940304540a733656f0d339380a4600190565b505090565b9060009180835282602052604083209160018060a01b03169182845260205260ff6040842054166000146144a15780835282602052604083208284526020526040832060ff1981541690557ff6391f5c32d9c69d2a47ea670b442974b53935d1edc7fd64eb21e047a839171b339380a4600190565b1561452257565b60405162461bcd60e51b815260206004820152602660248201527f4f7074696f6e73436f72653a206e6f74696f6e616c206d75737420626520706f60448201526573697469766560d01b6064820152608490fd5b1561457d57565b60405162461bcd60e51b815260206004820152602560248201527f4f7074696f6e73436f72653a20657870697279206d75737420626520696e2066604482015264757475726560d81b6064820152608490fd5b6001600160a01b039182168152911660208201526040810191909152608060608201819052600c908201526b6372656174696f6e5f66656560a01b60a082015260c00190565b60001981146146255760010190565b634e487b7160e01b600052601160045260246000fd5b906146458161432d565b60ff80198354169116179055565b90614645816140e4565b9061ff0082549160081b169061ff001916179055565b9062ff000082549160101b169062ff00001916179055565b906146958161432d565b61ff0082549160081b169061ff001916179055565b8054600160401b81101561427c576146c79160018201815561407b565b819291549060031b91821b91600019901b1916179055565b60ff600254166146eb57565b60405163d93c066560e01b8152600490fd5b60026001541461470e576002600155565b604051633ee5aeb560e01b8152600490fd5b1561472757565b60405162461bcd60e51b815260206004820152601660248201527527b83a34b7b739a1b7b9329d103737ba10313abcb2b960511b6044820152606490fd5b8181029291811591840414171561462557565b6001600160a01b03918216815291166020820152604081019190915260600190565b6001600160a01b039182168152911660208201526040810191909152608060608201819052600b908201526a74726164696e675f66656560a81b60a082015260c00190565b156147e657565b60405162461bcd60e51b815260206004820152601d60248201527f4f7074696f6e73436f72653a20696e76616c6964206f726465722069640000006044820152606490fd5b600f81526e189d5e595c8818d85b98d95b1b1959608a1b602082015260400190565b600a6101a09183518155602084015160018201556002810160018060a01b036040860151168154906060870151614883816140e4565b61488c816140e4565b6001600160a81b03199092161760a091821b60ff60a01b161790915560808501516003830155840151600482015560c0840151600582015560e084015160068201556101008401516149119060078301906148f0906148ea816140e4565b82614653565b61490260ff610120880151168261465d565b60ff6101408701511690614673565b610160840151600882015561018084015160098201550191015161493481614104565b6146458161410456fe300f9ae985dc711960f7a4d1dd013f9c19ecf40bff149522ab7523b2187a3846ce74058472262d5db42b1ca04d78e999d2dd523bdf8b33202e06cca947b31bbe04967fd25e7aa667b18955d808f19fd0c86238999ff8be2ebc72cd2cd3a83db0ce3a31baf9956e086200ee7044a75c2befbd050912798b7bcd25d05831ab9592c0c6ed2669febbe340d8737e8ec17254ffd9e038b54a4585ff70ac3ca18956aa3d7463b72b52fafc8e3f27dc0dbb9d1a94c0a4024834252b5cce68509acb49bca26469706673582212203641aceae38ef428ca5608d78d41875e97b2ec4776b01f0bdd4c09c9bb8da91e64736f6c63430008140033","opcodes":"PUSH1 0x80 CALLVALUE PUSH3 0xF5 JUMPI PUSH1 0x1F PUSH3 0x4BEA CODESIZE DUP2 SWAP1 SUB SWAP2 DUP3 ADD PUSH1 0x1F NOT AND DUP4 ADD SWAP2 PUSH1 0x1 PUSH1 0x1 PUSH1 0x40 SHL SUB DUP4 GT DUP5 DUP5 LT OR PUSH3 0xFA JUMPI DUP1 DUP5 SWAP3 PUSH1 0x80 SWAP5 PUSH1 0x40 MSTORE DUP4 CODECOPY DUP2 ADD SUB SLT PUSH3 0xF5 JUMPI DUP1 PUSH3 0x52 PUSH3 0xE4 SWAP3 PUSH3 0x110 JUMP JUMPDEST SWAP1 PUSH3 0x61 PUSH1 0x20 DUP3 ADD PUSH3 0x110 JUMP JUMPDEST SWAP1 PUSH3 0x7E PUSH1 0x60 PUSH3 0x76 PUSH1 0x40 DUP5 ADD PUSH3 0x110 JUMP JUMPDEST SWAP3 ADD PUSH3 0x110 JUMP JUMPDEST PUSH1 0x1 DUP1 DUP1 SSTORE PUSH1 0x5 DUP2 SWAP1 SSTORE PUSH1 0x6 SSTORE PUSH1 0x2 DUP1 SLOAD PUSH2 0x100 PUSH1 0x1 PUSH1 0xA8 SHL SUB NOT AND PUSH1 0x8 SWAP6 SWAP1 SWAP6 SHL PUSH2 0x100 PUSH1 0x1 PUSH1 0xA8 SHL SUB AND SWAP5 SWAP1 SWAP5 OR SWAP1 SWAP4 SSTORE PUSH1 0x3 DUP1 SLOAD PUSH1 0x1 PUSH1 0x1 PUSH1 0xA0 SHL SUB NOT SWAP1 DUP2 AND PUSH1 0x1 PUSH1 0x1 PUSH1 0xA0 SHL SUB SWAP5 DUP6 AND OR SWAP1 SWAP2 SSTORE PUSH1 0x4 DUP1 SLOAD SWAP1 SWAP2 AND SWAP2 SWAP1 SWAP3 AND OR SWAP1 SSTORE PUSH3 0x125 JUMP JUMPDEST POP PUSH1 0x40 MLOAD PUSH2 0x4A33 SWAP1 DUP2 PUSH3 0x1B7 DUP3 CODECOPY RETURN JUMPDEST PUSH1 0x0 DUP1 REVERT JUMPDEST PUSH4 0x4E487B71 PUSH1 0xE0 SHL PUSH1 0x0 MSTORE PUSH1 0x41 PUSH1 0x4 MSTORE PUSH1 0x24 PUSH1 0x0 REVERT JUMPDEST MLOAD SWAP1 PUSH1 0x1 PUSH1 0x1 PUSH1 0xA0 SHL SUB DUP3 AND DUP3 SUB PUSH3 0xF5 JUMPI JUMP JUMPDEST PUSH1 0x1 PUSH1 0x1 PUSH1 0xA0 SHL SUB AND PUSH1 0x0 DUP2 DUP2 MSTORE PUSH32 0xAD3228B676F7D3CD4284A5443F17F1962B36E491B30A40B2405849E597BA5FB5 PUSH1 0x20 MSTORE PUSH1 0x40 DUP2 KECCAK256 SLOAD SWAP1 SWAP2 SWAP1 PUSH1 0xFF AND PUSH3 0x1B2 JUMPI DUP2 DUP1 MSTORE DUP2 PUSH1 0x20 MSTORE PUSH1 0x40 DUP3 KECCAK256 DUP2 DUP4 MSTORE PUSH1 0x20 MSTORE PUSH1 0x40 DUP3 KECCAK256 PUSH1 0x1 PUSH1 0xFF NOT DUP3 SLOAD AND OR SWAP1 SSTORE CALLER SWAP2 PUSH32 0x2F8788117E7EFF1D82E926EC794901D17C78024A50270940304540A733656F0D DUP2 DUP1 LOG4 PUSH1 0x1 SWAP1 JUMP JUMPDEST POP SWAP1 JUMP INVALID PUSH2 0x280 PUSH1 0x40 MSTORE PUSH1 0x4 CALLDATASIZE LT ISZERO PUSH2 0x13 JUMPI PUSH1 0x0 DUP1 REVERT JUMPDEST PUSH1 0x0 DUP1 CALLDATALOAD PUSH1 0xE0 SHR DUP1 PUSH4 0x1D0D5B8 EQ PUSH2 0x364C JUMPI DUP1 PUSH4 0x1FFC9A7 EQ PUSH2 0x35F5 JUMPI DUP1 PUSH4 0x15D92E33 EQ PUSH2 0x35AE JUMPI DUP1 PUSH4 0x1C0DD7E8 EQ PUSH2 0x3567 JUMPI DUP1 PUSH4 0x20E3DBD4 EQ PUSH2 0x351D JUMPI DUP1 PUSH4 0x248A9CA3 EQ PUSH2 0x34F1 JUMPI DUP1 PUSH4 0x2A58B330 EQ PUSH2 0x34D3 JUMPI DUP1 PUSH4 0x2F2FF15D EQ PUSH2 0x3496 JUMPI DUP1 PUSH4 0x2F48AB7D EQ PUSH2 0x346D JUMPI DUP1 PUSH4 0x3087A88C EQ PUSH2 0x313E JUMPI DUP1 PUSH4 0x36568ABE EQ PUSH2 0x30F6 JUMPI DUP1 PUSH4 0x3F4BA83A EQ PUSH2 0x308B JUMPI DUP1 PUSH4 0x42DD6D3E EQ PUSH2 0x2F70 JUMPI DUP1 PUSH4 0x44F1EAAE EQ PUSH2 0x2F29 JUMPI DUP1 PUSH4 0x4500CB60 EQ PUSH2 0x2EE1 JUMPI DUP1 PUSH4 0x45CB4505 EQ PUSH2 0x2E8B JUMPI DUP1 PUSH4 0x4EFEF6AA EQ PUSH2 0x2E6D JUMPI DUP1 PUSH4 0x5C975ABB EQ PUSH2 0x2E4A JUMPI DUP1 PUSH4 0x5D7FFE7B EQ PUSH2 0x2A5A JUMPI DUP1 PUSH4 0x5E9E78D0 EQ PUSH2 0x2A13 JUMPI DUP1 PUSH4 0x67AC0BF0 EQ PUSH2 0x269B JUMPI DUP1 PUSH4 0x6DBE7579 EQ PUSH2 0x246D JUMPI DUP1 PUSH4 0x7203A582 EQ PUSH2 0x2067 JUMPI DUP1 PUSH4 0x79502C55 EQ PUSH2 0x203A JUMPI DUP1 PUSH4 0x7D900421 EQ PUSH2 0x1FAD JUMPI DUP1 PUSH4 0x8456CB59 EQ PUSH2 0x1F52 JUMPI DUP1 PUSH4 0x8A4ADF24 EQ PUSH2 0x1F29 JUMPI DUP1 PUSH4 0x91D14854 EQ PUSH2 0x1EDE JUMPI DUP1 PUSH4 0x979B4E6D EQ PUSH2 0x14F0 JUMPI DUP1 PUSH4 0xA217FDDF EQ PUSH2 0x14D4 JUMPI DUP1 PUSH4 0xA45F2EBC EQ PUSH2 0x1461 JUMPI DUP1 PUSH4 0xA61CF0D4 EQ PUSH2 0x13CE JUMPI DUP1 PUSH4 0xA85C38EF EQ PUSH2 0xFF4 JUMPI DUP1 PUSH4 0xAAB3196D EQ PUSH2 0xF87 JUMPI DUP1 PUSH4 0xB543503E EQ PUSH2 0xF42 JUMPI DUP1 PUSH4 0xBA9CF01D EQ PUSH2 0xF19 JUMPI DUP1 PUSH4 0xBC0EF26B EQ PUSH2 0xD7D JUMPI DUP1 PUSH4 0xCDC65AB6 EQ PUSH2 0xD54 JUMPI DUP1 PUSH4 0xCF3FEC43 EQ PUSH2 0xCC7 JUMPI DUP1 PUSH4 0xD049BFEF EQ PUSH2 0xA7A JUMPI DUP1 PUSH4 0xD09EF241 EQ PUSH2 0x4F0 JUMPI DUP1 PUSH4 0xD37E527B EQ PUSH2 0x4A9 JUMPI DUP1 PUSH4 0xD547741F EQ PUSH2 0x468 JUMPI DUP1 PUSH4 0xE02E34F8 EQ PUSH2 0x347 JUMPI DUP1 PUSH4 0xE4CBAC40 EQ PUSH2 0x2C4 JUMPI PUSH4 0xF7FF6426 EQ PUSH2 0x218 JUMPI PUSH1 0x0 DUP1 REVERT JUMPDEST CALLVALUE PUSH2 0x2C1 JUMPI PUSH2 0x226 CALLDATASIZE PUSH2 0x4039 JUMP JUMPDEST SWAP1 DUP3 MSTORE PUSH1 0x8 PUSH1 0x20 MSTORE PUSH1 0x40 DUP3 KECCAK256 DUP1 SLOAD DUP3 LT ISZERO PUSH2 0x2BD JUMPI PUSH2 0x245 SWAP3 POP PUSH2 0x4344 JUMP JUMPDEST POP DUP1 SLOAD SWAP1 PUSH2 0x2B9 PUSH1 0x1 DUP3 ADD SLOAD PUSH1 0x2 DUP4 ADD SLOAD SWAP3 PUSH1 0x3 DUP2 ADD SLOAD SWAP5 PUSH1 0x4 DUP3 ADD SLOAD SWAP3 PUSH1 0x5 DUP4 ADD SLOAD SWAP2 PUSH1 0x6 DUP5 ADD SLOAD SWAP1 PUSH1 0x7 DUP6 ADD SLOAD SWAP2 PUSH1 0x8 DUP7 ADD SLOAD SWAP5 PUSH1 0xFF PUSH1 0xA PUSH1 0x9 DUP10 ADD SLOAD SWAP9 ADD SLOAD AND SWAP8 PUSH1 0x40 MLOAD SWAP12 DUP13 SWAP12 DUP13 PUSH1 0xFF DUP9 PUSH1 0x10 SHR AND SWAP9 PUSH1 0xFF DUP1 DUP11 PUSH1 0x8 SHR AND SWAP10 AND SWAP8 PUSH1 0xFF DUP5 PUSH1 0xA0 SHR AND SWAP4 PUSH1 0x1 DUP1 PUSH1 0xA0 SHL SUB AND SWAP3 PUSH2 0x410E JUMP JUMPDEST SUB SWAP1 RETURN JUMPDEST DUP3 DUP1 REVERT JUMPDEST DUP1 REVERT JUMPDEST POP CALLVALUE PUSH2 0x2C1 JUMPI PUSH1 0x20 DUP1 PUSH1 0x3 NOT CALLDATASIZE ADD SLT PUSH2 0x343 JUMPI PUSH1 0x1 PUSH1 0x1 PUSH1 0xA0 SHL SUB PUSH2 0x2E7 PUSH2 0x404F JUMP JUMPDEST AND DUP3 MSTORE PUSH1 0xB DUP2 MSTORE PUSH1 0x40 DUP3 KECCAK256 SWAP2 PUSH1 0x40 MLOAD DUP1 SWAP3 DUP1 DUP6 SLOAD SWAP3 DUP4 DUP2 MSTORE ADD SWAP5 DUP4 MSTORE DUP1 DUP4 KECCAK256 SWAP3 SWAP1 JUMPDEST DUP3 DUP3 LT PUSH2 0x32C JUMPI PUSH2 0x2B9 DUP6 PUSH2 0x320 DUP2 DUP10 SUB DUP3 PUSH2 0x42CA JUMP JUMPDEST PUSH1 0x40 MLOAD SWAP2 DUP3 SWAP2 DUP3 PUSH2 0x40A9 JUMP JUMPDEST DUP4 SLOAD DUP7 MSTORE SWAP5 DUP6 ADD SWAP5 PUSH1 0x1 SWAP4 DUP5 ADD SWAP4 SWAP1 SWAP2 ADD SWAP1 PUSH2 0x309 JUMP JUMPDEST POP DUP1 REVERT JUMPDEST POP CALLVALUE PUSH2 0x2C1 JUMPI PUSH2 0x356 CALLDATASIZE PUSH2 0x4039 JUMP JUMPDEST DUP2 ISZERO ISZERO DUP1 PUSH2 0x45D JUMPI JUMPDEST PUSH2 0x368 SWAP1 PUSH2 0x47DF JUMP JUMPDEST PUSH2 0x370 PUSH2 0x43C8 JUMP JUMPDEST DUP2 DUP4 MSTORE PUSH1 0x7 PUSH1 0x20 MSTORE PUSH1 0x40 DUP4 KECCAK256 SWAP1 PUSH1 0x15 DUP3 ADD SWAP2 DUP3 SLOAD SWAP3 PUSH1 0xFF DUP5 PUSH1 0x10 SHR AND SWAP2 PUSH1 0xB DUP4 LT ISZERO PUSH2 0x449 JUMPI PUSH1 0x2 DUP4 SUB PUSH2 0x404 JUMPI PUSH1 0x0 DUP1 MLOAD PUSH1 0x20 PUSH2 0x499E DUP4 CODECOPY DUP2 MLOAD SWAP2 MSTORE SWAP5 PUSH1 0xC0 SWAP5 PUSH1 0x19 PUSH3 0x40000 SWAP4 ADD SSTORE PUSH3 0xFF0000 NOT AND OR SWAP1 SSTORE PUSH2 0x3D0 PUSH1 0x40 MLOAD DUP1 SWAP3 PUSH2 0x4337 JUMP JUMPDEST PUSH1 0x4 PUSH1 0x20 DUP3 ADD MSTORE PUSH1 0x80 PUSH1 0x40 DUP3 ADD MSTORE PUSH1 0xC PUSH1 0x80 DUP3 ADD MSTORE PUSH12 0x1A5B9A5D1A585B0819995959 PUSH1 0xA2 SHL PUSH1 0xA0 DUP3 ADD MSTORE TIMESTAMP PUSH1 0x60 DUP3 ADD MSTORE LOG2 DUP1 RETURN JUMPDEST PUSH1 0x40 MLOAD PUSH3 0x461BCD PUSH1 0xE5 SHL DUP2 MSTORE PUSH1 0x20 PUSH1 0x4 DUP3 ADD MSTORE PUSH1 0x1E PUSH1 0x24 DUP3 ADD MSTORE PUSH32 0x4F7074696F6E73436F72653A206F72646572206E6F74206D6174636865640000 PUSH1 0x44 DUP3 ADD MSTORE PUSH1 0x64 SWAP1 REVERT JUMPDEST PUSH4 0x4E487B71 PUSH1 0xE0 SHL DUP8 MSTORE PUSH1 0x21 PUSH1 0x4 MSTORE PUSH1 0x24 DUP8 REVERT JUMPDEST POP PUSH1 0x5 SLOAD DUP3 LT PUSH2 0x35F JUMP JUMPDEST POP CALLVALUE PUSH2 0x2C1 JUMPI PUSH1 0x40 CALLDATASIZE PUSH1 0x3 NOT ADD SLT PUSH2 0x2C1 JUMPI PUSH2 0x4A5 PUSH1 0x4 CALLDATALOAD PUSH2 0x488 PUSH2 0x4065 JUMP JUMPDEST SWAP1 DUP1 DUP5 MSTORE DUP4 PUSH1 0x20 MSTORE PUSH2 0x4A0 PUSH1 0x1 PUSH1 0x40 DUP7 KECCAK256 ADD SLOAD PUSH2 0x4402 JUMP JUMPDEST PUSH2 0x44A6 JUMP JUMPDEST POP DUP1 RETURN JUMPDEST POP CALLVALUE PUSH2 0x2C1 JUMPI PUSH2 0x4B8 CALLDATASIZE PUSH2 0x4039 JUMP JUMPDEST SWAP1 DUP1 ISZERO ISZERO DUP1 PUSH2 0x4E5 JUMPI JUMPDEST PUSH2 0x4CB SWAP1 PUSH2 0x47DF JUMP JUMPDEST PUSH2 0x4D3 PUSH2 0x4360 JUMP JUMPDEST DUP3 MSTORE PUSH1 0x7 PUSH1 0x20 MSTORE PUSH1 0x14 PUSH1 0x40 DUP4 KECCAK256 ADD SSTORE DUP1 RETURN JUMPDEST POP PUSH1 0x5 SLOAD DUP2 LT PUSH2 0x4C2 JUMP JUMPDEST POP CALLVALUE PUSH2 0x2C1 JUMPI PUSH1 0x20 CALLDATASIZE PUSH1 0x3 NOT ADD SLT PUSH2 0x2C1 JUMPI DUP1 PUSH2 0x420 PUSH1 0x40 MLOAD PUSH2 0x512 DUP2 PUSH2 0x42AE JUMP JUMPDEST DUP3 DUP2 MSTORE DUP3 PUSH1 0x20 DUP3 ADD MSTORE DUP3 PUSH1 0x40 DUP3 ADD MSTORE PUSH1 0x60 DUP1 DUP3 ADD MSTORE PUSH1 0x60 PUSH1 0x80 DUP3 ADD MSTORE PUSH1 0x60 PUSH1 0xA0 DUP3 ADD MSTORE PUSH1 0x60 PUSH1 0xC0 DUP3 ADD MSTORE PUSH1 0x60 PUSH1 0xE0 DUP3 ADD MSTORE DUP3 PUSH2 0x100 DUP3 ADD MSTORE DUP3 PUSH2 0x120 DUP3 ADD MSTORE DUP3 PUSH2 0x140 DUP3 ADD MSTORE DUP3 PUSH2 0x160 DUP3 ADD MSTORE DUP3 PUSH2 0x180 DUP3 ADD MSTORE DUP3 PUSH2 0x1A0 DUP3 ADD MSTORE DUP3 PUSH2 0x1C0 DUP3 ADD MSTORE DUP3 PUSH2 0x1E0 DUP3 ADD MSTORE DUP3 PUSH2 0x200 DUP3 ADD MSTORE DUP3 PUSH2 0x220 DUP3 ADD MSTORE DUP3 PUSH2 0x240 DUP3 ADD MSTORE DUP3 PUSH2 0x260 DUP3 ADD MSTORE DUP3 PUSH2 0x280 DUP3 ADD MSTORE DUP3 PUSH2 0x2A0 DUP3 ADD MSTORE DUP3 PUSH2 0x2C0 DUP3 ADD MSTORE DUP3 PUSH2 0x2E0 DUP3 ADD MSTORE DUP3 PUSH2 0x300 DUP3 ADD MSTORE DUP3 PUSH2 0x320 DUP3 ADD MSTORE DUP3 PUSH2 0x340 DUP3 ADD MSTORE DUP3 PUSH2 0x360 DUP3 ADD MSTORE DUP3 PUSH2 0x380 DUP3 ADD MSTORE DUP3 PUSH2 0x3A0 DUP3 ADD MSTORE DUP3 PUSH2 0x3C0 DUP3 ADD MSTORE DUP3 PUSH2 0x3E0 DUP3 ADD MSTORE DUP3 PUSH2 0x400 DUP3 ADD MSTORE ADD MSTORE PUSH1 0x4 CALLDATALOAD DUP2 MSTORE PUSH1 0x7 PUSH1 0x20 MSTORE PUSH1 0x40 DUP2 KECCAK256 PUSH1 0x40 MLOAD SWAP2 PUSH2 0x60F DUP4 PUSH2 0x42AE JUMP JUMPDEST DUP2 SLOAD DUP4 MSTORE PUSH1 0x1 DUP3 ADD SLOAD PUSH1 0x1 PUSH1 0x1 PUSH1 0xA0 SHL SUB SWAP1 DUP2 AND PUSH1 0x20 DUP6 ADD MSTORE PUSH1 0x2 DUP4 ADD SLOAD AND PUSH1 0x40 DUP1 DUP6 ADD SWAP2 SWAP1 SWAP2 MSTORE MLOAD PUSH2 0x650 DUP2 PUSH2 0x649 DUP2 PUSH1 0x3 DUP8 ADD PUSH2 0x41D3 JUMP JUMPDEST SUB DUP3 PUSH2 0x42CA JUMP JUMPDEST PUSH1 0x60 DUP5 ADD MSTORE PUSH1 0x40 MLOAD PUSH2 0x669 DUP2 PUSH2 0x649 DUP2 PUSH1 0x4 DUP8 ADD PUSH2 0x41D3 JUMP JUMPDEST PUSH1 0x80 DUP5 ADD MSTORE PUSH1 0x40 MLOAD PUSH2 0x682 DUP2 PUSH2 0x649 DUP2 PUSH1 0x5 DUP8 ADD PUSH2 0x41D3 JUMP JUMPDEST PUSH1 0xA0 DUP5 ADD MSTORE PUSH1 0x40 MLOAD PUSH2 0x69B DUP2 PUSH2 0x649 DUP2 PUSH1 0x6 DUP8 ADD PUSH2 0x41D3 JUMP JUMPDEST PUSH1 0xC0 DUP5 ADD MSTORE PUSH1 0x40 MLOAD PUSH2 0x6B4 DUP2 PUSH2 0x649 DUP2 PUSH1 0x7 DUP8 ADD PUSH2 0x41D3 JUMP JUMPDEST PUSH1 0xE0 DUP5 ADD MSTORE PUSH1 0xFF PUSH1 0x8 DUP4 ADD SLOAD AND PUSH2 0x6CA DUP2 PUSH2 0x432D JUMP JUMPDEST PUSH2 0x100 DUP5 ADD MSTORE PUSH1 0x9 DUP3 ADD SLOAD PUSH2 0x120 DUP5 ADD MSTORE PUSH1 0xA DUP3 ADD SLOAD PUSH2 0x140 DUP5 ADD MSTORE PUSH1 0xB DUP3 ADD SLOAD PUSH2 0x160 DUP5 ADD MSTORE PUSH1 0xC DUP3 ADD SLOAD PUSH2 0x180 DUP5 ADD MSTORE PUSH1 0xD DUP3 ADD SLOAD PUSH2 0x1A0 DUP5 ADD MSTORE PUSH1 0xE DUP3 ADD SLOAD PUSH2 0x1C0 DUP5 ADD MSTORE PUSH1 0xF DUP3 ADD SLOAD PUSH2 0x1E0 DUP5 ADD MSTORE PUSH1 0x10 DUP3 ADD SLOAD PUSH2 0x200 DUP5 ADD MSTORE PUSH1 0x11 DUP3 ADD SLOAD PUSH2 0x220 DUP5 ADD MSTORE PUSH1 0x12 DUP3 ADD SLOAD PUSH2 0x744 PUSH1 0xFF DUP3 AND PUSH2 0x40E4 JUMP JUMPDEST PUSH1 0xFF DUP2 AND PUSH2 0x240 DUP6 ADD MSTORE PUSH1 0xFF DUP2 PUSH1 0x8 SHR AND PUSH2 0x260 DUP6 ADD MSTORE PUSH1 0xFF DUP2 PUSH1 0x10 SHR AND PUSH2 0x280 DUP6 ADD MSTORE PUSH1 0xFF DUP2 PUSH1 0x18 SHR AND PUSH2 0x2A0 DUP6 ADD MSTORE PUSH2 0x784 PUSH1 0xFF DUP3 PUSH1 0x20 SHR AND PUSH2 0x40E4 JUMP JUMPDEST PUSH1 0xFF DUP2 PUSH1 0x20 SHR AND PUSH2 0x2C0 DUP6 ADD MSTORE PUSH1 0x1 DUP1 PUSH1 0xA0 SHL SUB SWAP1 PUSH1 0x28 SHR AND PUSH2 0x2E0 DUP5 ADD MSTORE PUSH1 0x13 DUP3 ADD SLOAD PUSH2 0x300 DUP5 ADD MSTORE PUSH1 0x14 DUP3 ADD SLOAD PUSH2 0x320 DUP5 ADD MSTORE PUSH1 0x15 DUP3 ADD SLOAD SWAP1 PUSH1 0xFF DUP3 AND ISZERO ISZERO PUSH2 0x340 DUP6 ADD MSTORE PUSH2 0x7DA PUSH1 0xFF DUP4 PUSH1 0x8 SHR AND PUSH2 0x432D JUMP JUMPDEST PUSH1 0xFF DUP3 PUSH1 0x8 SHR AND PUSH2 0x360 DUP6 ADD MSTORE PUSH1 0xB PUSH1 0xFF DUP4 PUSH1 0x10 SHR AND LT ISZERO PUSH2 0xA66 JUMPI POP SWAP1 PUSH1 0xFF PUSH1 0x1A SWAP3 PUSH1 0x10 SHR AND PUSH2 0x380 DUP5 ADD MSTORE PUSH1 0x16 DUP2 ADD SLOAD PUSH2 0x3A0 DUP5 ADD MSTORE PUSH1 0x17 DUP2 ADD SLOAD PUSH2 0x3C0 DUP5 ADD MSTORE PUSH1 0x18 DUP2 ADD SLOAD PUSH2 0x3E0 DUP5 ADD MSTORE PUSH1 0x19 DUP2 ADD SLOAD PUSH2 0x400 DUP5 ADD MSTORE ADD SLOAD PUSH2 0x420 DUP3 ADD MSTORE PUSH1 0x40 MLOAD DUP1 SWAP2 PUSH1 0x20 DUP3 MSTORE DUP1 MLOAD PUSH1 0x20 DUP4 ADD MSTORE PUSH1 0x1 DUP1 PUSH1 0xA0 SHL SUB PUSH1 0x20 DUP3 ADD MLOAD AND PUSH1 0x40 DUP4 ADD MSTORE PUSH1 0x1 DUP1 PUSH1 0xA0 SHL SUB PUSH1 0x40 DUP3 ADD MLOAD AND PUSH1 0x60 DUP4 ADD MSTORE PUSH2 0x420 PUSH2 0x8F0 PUSH2 0x890 PUSH1 0x60 DUP5 ADD MLOAD PUSH2 0x440 PUSH1 0x80 DUP8 ADD MSTORE PUSH2 0x460 DUP7 ADD SWAP1 PUSH2 0x42ED JUMP JUMPDEST PUSH2 0x8DA PUSH2 0x8C6 PUSH2 0x8B2 PUSH1 0x80 DUP8 ADD MLOAD SWAP4 PUSH1 0x1F NOT SWAP5 DUP6 DUP11 DUP4 SUB ADD PUSH1 0xA0 DUP12 ADD MSTORE PUSH2 0x42ED JUMP JUMPDEST PUSH1 0xA0 DUP8 ADD MLOAD DUP5 DUP10 DUP4 SUB ADD PUSH1 0xC0 DUP11 ADD MSTORE PUSH2 0x42ED JUMP JUMPDEST PUSH1 0xC0 DUP7 ADD MLOAD DUP4 DUP9 DUP4 SUB ADD PUSH1 0xE0 DUP10 ADD MSTORE PUSH2 0x42ED JUMP JUMPDEST SWAP1 PUSH1 0xE0 DUP6 ADD MLOAD SWAP1 DUP7 DUP4 SUB ADD PUSH2 0x100 DUP8 ADD MSTORE PUSH2 0x42ED JUMP JUMPDEST SWAP2 PUSH2 0x100 DUP2 ADD MLOAD PUSH2 0x900 DUP2 PUSH2 0x432D JUMP JUMPDEST PUSH2 0x120 DUP6 ADD MSTORE PUSH2 0x120 DUP2 ADD MLOAD PUSH2 0x140 DUP6 ADD MSTORE PUSH2 0x140 DUP2 ADD MLOAD PUSH2 0x160 DUP6 ADD MSTORE PUSH2 0x160 DUP2 ADD MLOAD PUSH2 0x180 DUP6 ADD MSTORE PUSH2 0x180 DUP2 ADD MLOAD PUSH2 0x1A0 DUP6 ADD MSTORE PUSH2 0x1A0 DUP2 ADD MLOAD PUSH2 0x1C0 DUP6 ADD MSTORE PUSH2 0x1C0 DUP2 ADD MLOAD PUSH2 0x1E0 DUP6 ADD MSTORE PUSH2 0x1E0 DUP2 ADD MLOAD PUSH2 0x200 DUP6 ADD MSTORE PUSH2 0x200 DUP2 ADD MLOAD PUSH2 0x220 DUP6 ADD MSTORE PUSH2 0x220 DUP2 ADD MLOAD PUSH2 0x240 DUP6 ADD MSTORE PUSH2 0x240 DUP2 ADD MLOAD PUSH2 0x981 DUP2 PUSH2 0x40E4 JUMP JUMPDEST PUSH2 0x260 DUP6 ADD MSTORE PUSH1 0xFF PUSH2 0x260 DUP3 ADD MLOAD AND PUSH2 0x280 DUP6 ADD MSTORE PUSH1 0xFF PUSH2 0x280 DUP3 ADD MLOAD AND PUSH2 0x2A0 DUP6 ADD MSTORE PUSH1 0xFF PUSH2 0x2A0 DUP3 ADD MLOAD AND PUSH2 0x2C0 DUP6 ADD MSTORE PUSH2 0x2C0 DUP2 ADD MLOAD PUSH2 0x9C3 DUP2 PUSH2 0x40E4 JUMP JUMPDEST PUSH2 0x2E0 DUP6 ADD MSTORE PUSH1 0x1 DUP1 PUSH1 0xA0 SHL SUB PUSH2 0x2E0 DUP3 ADD MLOAD AND PUSH2 0x300 DUP6 ADD MSTORE PUSH2 0x300 DUP2 ADD MLOAD PUSH2 0x320 DUP6 ADD MSTORE PUSH2 0x320 DUP2 ADD MLOAD PUSH2 0x340 DUP6 ADD MSTORE PUSH2 0x340 DUP2 ADD MLOAD ISZERO ISZERO PUSH2 0x360 DUP6 ADD MSTORE PUSH2 0x360 DUP2 ADD MLOAD PUSH2 0xA12 DUP2 PUSH2 0x432D JUMP JUMPDEST PUSH2 0x380 DUP6 ADD MSTORE PUSH2 0xA2C PUSH2 0x380 DUP3 ADD MLOAD PUSH2 0x3A0 DUP7 ADD SWAP1 PUSH2 0x4337 JUMP JUMPDEST PUSH2 0x3A0 DUP2 ADD MLOAD PUSH2 0x3C0 DUP6 ADD MSTORE PUSH2 0x3C0 DUP2 ADD MLOAD PUSH2 0x3E0 DUP6 ADD MSTORE PUSH2 0x3E0 DUP2 ADD MLOAD PUSH2 0x400 DUP6 ADD MSTORE PUSH2 0x400 DUP2 ADD MLOAD DUP3 DUP6 ADD MSTORE ADD MLOAD PUSH2 0x440 DUP4 ADD MSTORE SUB SWAP1 RETURN JUMPDEST PUSH4 0x4E487B71 PUSH1 0xE0 SHL DUP2 MSTORE PUSH1 0x21 PUSH1 0x4 MSTORE PUSH1 0x24 SWAP1 REVERT JUMPDEST POP CALLVALUE PUSH2 0x2C1 JUMPI PUSH1 0x20 SWAP1 DUP2 PUSH1 0x3 NOT CALLDATASIZE ADD SLT PUSH2 0x2C1 JUMPI PUSH1 0x4 CALLDATALOAD DUP2 MSTORE PUSH1 0x8 DUP1 DUP4 MSTORE PUSH1 0x40 DUP3 KECCAK256 DUP1 SLOAD SWAP1 SWAP4 SWAP1 PUSH1 0x1 PUSH1 0x1 PUSH1 0x40 SHL SUB DUP2 GT PUSH2 0xCB3 JUMPI SWAP2 DUP5 SWAP2 SWAP3 PUSH1 0x40 MLOAD SWAP2 PUSH1 0x5 PUSH2 0xAC7 DUP7 DUP5 DUP4 SHL ADD DUP6 PUSH2 0x42CA JUMP JUMPDEST DUP3 DUP5 MSTORE DUP6 DUP5 ADD SWAP2 DUP3 SWAP6 DUP9 MSTORE DUP7 DUP9 KECCAK256 SWAP2 DUP9 SWAP4 JUMPDEST DUP6 DUP6 LT PUSH2 0xBD6 JUMPI POP POP POP POP POP POP PUSH1 0x40 MLOAD SWAP3 DUP1 DUP5 ADD SWAP2 DUP2 DUP6 MSTORE MLOAD DUP1 SWAP3 MSTORE PUSH1 0x40 DUP5 ADD SWAP3 SWAP5 JUMPDEST DUP3 DUP2 LT PUSH2 0xB09 JUMPI DUP5 DUP5 SUB DUP6 RETURN JUMPDEST SWAP1 SWAP2 SWAP3 DUP3 PUSH2 0x1C0 PUSH1 0x1 SWAP3 DUP9 MLOAD DUP1 MLOAD DUP3 MSTORE DUP4 DUP2 ADD MLOAD DUP5 DUP4 ADD MSTORE DUP5 DUP1 PUSH1 0xA0 SHL SUB PUSH1 0x40 DUP3 ADD MLOAD AND PUSH1 0x40 DUP4 ADD MSTORE PUSH1 0x60 DUP1 DUP3 ADD MLOAD SWAP1 PUSH2 0xB42 DUP3 PUSH2 0x40E4 JUMP JUMPDEST DUP4 ADD MSTORE PUSH1 0x80 DUP1 DUP3 ADD MLOAD SWAP1 DUP4 ADD MSTORE PUSH1 0xA0 DUP1 DUP3 ADD MLOAD SWAP1 DUP4 ADD MSTORE PUSH1 0xC0 DUP1 DUP3 ADD MLOAD SWAP1 DUP4 ADD MSTORE PUSH1 0xE0 DUP2 ADD MLOAD PUSH1 0xE0 DUP4 ADD MSTORE PUSH2 0x100 DUP1 DUP3 ADD MLOAD SWAP1 PUSH2 0xB7E DUP3 PUSH2 0x40E4 JUMP JUMPDEST DUP4 ADD MSTORE PUSH1 0xFF PUSH2 0x120 DUP2 DUP2 DUP5 ADD MLOAD AND SWAP1 DUP5 ADD MSTORE PUSH2 0x140 SWAP1 DUP2 DUP4 ADD MLOAD AND SWAP1 DUP4 ADD MSTORE PUSH2 0x160 DUP1 DUP3 ADD MLOAD SWAP1 DUP4 ADD MSTORE PUSH2 0x180 DUP1 DUP3 ADD MLOAD SWAP1 DUP4 ADD MSTORE PUSH2 0x1A0 DUP1 SWAP2 ADD MLOAD SWAP1 PUSH2 0xBC4 DUP3 PUSH2 0x4104 JUMP JUMPDEST DUP3 ADD MSTORE ADD SWAP7 ADD SWAP2 ADD SWAP5 SWAP3 SWAP2 SWAP1 SWAP5 PUSH2 0xAFC JUMP JUMPDEST PUSH1 0xB DUP10 PUSH1 0x1 SWAP3 PUSH1 0x40 SWAP13 SWAP12 SWAP10 SWAP11 SWAP13 MLOAD PUSH2 0xBED DUP2 PUSH2 0x4292 JUMP JUMPDEST DUP8 SLOAD DUP2 MSTORE DUP5 DUP9 ADD SLOAD DUP4 DUP3 ADD MSTORE PUSH1 0x2 DUP9 ADD SLOAD DUP6 DUP1 PUSH1 0xA0 SHL SUB DUP2 AND PUSH1 0x40 DUP4 ADD MSTORE PUSH1 0xFF SWAP1 DUP2 PUSH1 0xA0 SWAP2 DUP3 SHR AND PUSH2 0xC1E DUP2 PUSH2 0x40E4 JUMP JUMPDEST PUSH1 0x60 DUP5 ADD MSTORE PUSH1 0x3 DUP11 ADD SLOAD PUSH1 0x80 DUP5 ADD MSTORE PUSH1 0x4 DUP11 ADD SLOAD SWAP1 DUP4 ADD MSTORE DUP7 DUP10 ADD SLOAD PUSH1 0xC0 DUP4 ADD MSTORE PUSH1 0x6 DUP10 ADD SLOAD PUSH1 0xE0 DUP4 ADD MSTORE DUP1 PUSH1 0x7 DUP11 ADD SLOAD DUP2 DUP2 AND PUSH2 0xC5B DUP2 PUSH2 0x40E4 JUMP JUMPDEST PUSH2 0x100 DUP6 ADD MSTORE DUP2 DUP2 DUP12 SHR AND PUSH2 0x120 DUP6 ADD MSTORE PUSH1 0x10 SHR AND PUSH2 0x140 DUP4 ADD MSTORE DUP8 DUP10 ADD SLOAD PUSH2 0x160 DUP4 ADD MSTORE PUSH1 0x9 DUP10 ADD SLOAD PUSH2 0x180 DUP4 ADD MSTORE PUSH1 0xA DUP10 ADD SLOAD AND PUSH2 0xC9A DUP2 PUSH2 0x4104 JUMP JUMPDEST PUSH2 0x1A0 DUP3 ADD MSTORE DUP2 MSTORE ADD SWAP5 ADD SWAP5 ADD SWAP4 SWAP3 SWAP9 SWAP7 SWAP6 SWAP8 SWAP9 PUSH2 0xAD9 JUMP JUMPDEST PUSH4 0x4E487B71 PUSH1 0xE0 SHL DUP5 MSTORE PUSH1 0x41 PUSH1 0x4 MSTORE PUSH1 0x24 DUP5 REVERT JUMPDEST POP CALLVALUE PUSH2 0x2C1 JUMPI PUSH1 0x20 DUP1 PUSH1 0x3 NOT CALLDATASIZE ADD SLT PUSH2 0x343 JUMPI PUSH1 0x4 CALLDATALOAD PUSH1 0x1 PUSH1 0x1 PUSH1 0x40 SHL SUB DUP2 GT PUSH2 0x2BD JUMPI PUSH2 0xCFA DUP3 SWAP2 CALLDATASIZE SWAP1 PUSH1 0x4 ADD PUSH2 0x3FFC JUMP JUMPDEST SWAP2 SWAP1 DUP3 PUSH1 0x40 MLOAD SWAP4 DUP5 SWAP3 DUP4 CALLDATACOPY DUP2 ADD PUSH1 0xC DUP2 MSTORE SUB ADD SWAP1 KECCAK256 SWAP2 PUSH1 0x40 MLOAD DUP1 SWAP3 DUP1 DUP6 SLOAD SWAP3 DUP4 DUP2 MSTORE ADD SWAP5 DUP4 MSTORE DUP1 DUP4 KECCAK256 SWAP3 SWAP1 JUMPDEST DUP3 DUP3 LT PUSH2 0xD3D JUMPI PUSH2 0x2B9 DUP6 PUSH2 0x320 DUP2 DUP10 SUB DUP3 PUSH2 0x42CA JUMP JUMPDEST DUP4 SLOAD DUP7 MSTORE SWAP5 DUP6 ADD SWAP5 PUSH1 0x1 SWAP4 DUP5 ADD SWAP4 SWAP1 SWAP2 ADD SWAP1 PUSH2 0xD26 JUMP JUMPDEST POP CALLVALUE PUSH2 0x2C1 JUMPI DUP1 PUSH1 0x3 NOT CALLDATASIZE ADD SLT PUSH2 0x2C1 JUMPI PUSH1 0x20 PUSH1 0x40 MLOAD PUSH1 0x0 DUP1 MLOAD PUSH1 0x20 PUSH2 0x497E DUP4 CODECOPY DUP2 MLOAD SWAP2 MSTORE DUP2 MSTORE RETURN JUMPDEST POP CALLVALUE PUSH2 0x2C1 JUMPI PUSH1 0x20 DUP1 PUSH1 0x3 NOT CALLDATASIZE ADD SLT PUSH2 0x343 JUMPI PUSH1 0x4 CALLDATALOAD SWAP1 DUP2 ISZERO ISZERO DUP1 PUSH2 0xF0E JUMPI JUMPDEST PUSH2 0xDA6 SWAP1 PUSH2 0x47DF JUMP JUMPDEST DUP2 DUP4 MSTORE PUSH1 0x7 DUP2 MSTORE PUSH2 0xDC7 PUSH1 0x1 DUP1 PUSH1 0xA0 SHL SUB PUSH1 0x1 PUSH1 0x40 DUP7 KECCAK256 ADD SLOAD AND CALLER EQ PUSH2 0x4720 JUMP JUMPDEST PUSH2 0xDCF PUSH2 0x46FD JUMP JUMPDEST PUSH2 0xDD7 PUSH2 0x46DF JUMP JUMPDEST DUP2 DUP4 MSTORE PUSH1 0x7 DUP2 MSTORE PUSH1 0x15 PUSH1 0x40 DUP5 KECCAK256 ADD SWAP1 DUP2 SLOAD SWAP2 PUSH1 0xFF DUP4 PUSH1 0x10 SHR AND SWAP3 PUSH1 0xB DUP5 LT ISZERO PUSH2 0xEFA JUMPI DUP4 ISZERO DUP1 ISZERO PUSH2 0xEF0 JUMPI JUMPDEST ISZERO PUSH2 0xE9C JUMPI SWAP2 PUSH1 0xA SWAP2 PUSH3 0xA0000 PUSH1 0x0 DUP1 MLOAD PUSH1 0x20 PUSH2 0x499E DUP4 CODECOPY DUP2 MLOAD SWAP2 MSTORE SWAP6 SWAP5 PUSH3 0xFF0000 NOT AND OR SWAP1 SSTORE DUP5 PUSH32 0xB848A62EF7171019D243ED8F5B8E1E6C32CAFED0B7FC99DA26CB2FC2E7D533EC PUSH1 0x40 MLOAD PUSH1 0x40 DUP2 MSTORE DUP1 PUSH2 0xE60 PUSH1 0x40 DUP3 ADD PUSH2 0x482B JUMP JUMPDEST TIMESTAMP DUP7 DUP4 ADD MSTORE SUB SWAP1 LOG2 PUSH2 0xE75 PUSH1 0x40 MLOAD DUP1 SWAP5 PUSH2 0x4337 JUMP JUMPDEST DUP3 ADD MSTORE PUSH1 0x80 PUSH1 0x40 DUP3 ADD MSTORE DUP1 PUSH2 0xE8C PUSH1 0x80 DUP3 ADD PUSH2 0x482B JUMP JUMPDEST TIMESTAMP PUSH1 0x60 DUP4 ADD MSTORE SUB SWAP1 LOG2 PUSH1 0x1 DUP1 SSTORE DUP1 RETURN JUMPDEST PUSH1 0x40 MLOAD PUSH3 0x461BCD PUSH1 0xE5 SHL DUP2 MSTORE PUSH1 0x4 DUP2 ADD DUP5 SWAP1 MSTORE PUSH1 0x26 PUSH1 0x24 DUP3 ADD MSTORE PUSH32 0x4F7074696F6E73436F72653A2063616E6E6F742063616E63656C206166746572 PUSH1 0x44 DUP3 ADD MSTORE PUSH6 0x40DAC2E8C6D PUSH1 0xD3 SHL PUSH1 0x64 DUP3 ADD MSTORE PUSH1 0x84 SWAP1 REVERT JUMPDEST POP PUSH1 0x1 DUP5 EQ PUSH2 0xE03 JUMP JUMPDEST PUSH4 0x4E487B71 PUSH1 0xE0 SHL DUP7 MSTORE PUSH1 0x21 PUSH1 0x4 MSTORE PUSH1 0x24 DUP7 REVERT JUMPDEST POP PUSH1 0x5 SLOAD DUP3 LT PUSH2 0xD9D JUMP JUMPDEST POP CALLVALUE PUSH2 0x2C1 JUMPI DUP1 PUSH1 0x3 NOT CALLDATASIZE ADD SLT PUSH2 0x2C1 JUMPI PUSH1 0x20 PUSH1 0x40 MLOAD PUSH1 0x0 DUP1 MLOAD PUSH1 0x20 PUSH2 0x493E DUP4 CODECOPY DUP2 MLOAD SWAP2 MSTORE DUP2 MSTORE RETURN JUMPDEST POP CALLVALUE PUSH2 0x2C1 JUMPI PUSH1 0x20 CALLDATASIZE PUSH1 0x3 NOT ADD SLT PUSH2 0x2C1 JUMPI PUSH2 0xF5C PUSH2 0x404F JUMP JUMPDEST PUSH2 0xF64 PUSH2 0x43C8 JUMP JUMPDEST PUSH1 0x3 DUP1 SLOAD PUSH1 0x1 PUSH1 0x1 PUSH1 0xA0 SHL SUB NOT AND PUSH1 0x1 PUSH1 0x1 PUSH1 0xA0 SHL SUB SWAP3 SWAP1 SWAP3 AND SWAP2 SWAP1 SWAP2 OR SWAP1 SSTORE DUP1 RETURN JUMPDEST POP CALLVALUE PUSH2 0x2C1 JUMPI PUSH1 0x40 CALLDATASIZE PUSH1 0x3 NOT ADD SLT PUSH2 0x2C1 JUMPI PUSH1 0x24 CALLDATALOAD PUSH1 0x4 CALLDATALOAD PUSH1 0xB DUP3 LT ISZERO PUSH2 0x2BD JUMPI DUP1 ISZERO ISZERO DUP1 PUSH2 0xFE9 JUMPI JUMPDEST PUSH2 0xFBA SWAP1 PUSH2 0x47DF JUMP JUMPDEST PUSH2 0xFC2 PUSH2 0x4360 JUMP JUMPDEST DUP3 MSTORE PUSH1 0x7 PUSH1 0x20 MSTORE PUSH1 0x15 PUSH1 0x40 DUP4 KECCAK256 ADD SWAP1 PUSH3 0xFF0000 DUP3 SLOAD SWAP2 PUSH1 0x10 SHL AND SWAP1 PUSH3 0xFF0000 NOT AND OR SWAP1 SSTORE DUP1 RETURN JUMPDEST POP PUSH1 0x5 SLOAD DUP2 LT PUSH2 0xFB1 JUMP JUMPDEST POP CALLVALUE PUSH2 0x2C1 JUMPI PUSH1 0x20 CALLDATASIZE PUSH1 0x3 NOT ADD SLT PUSH2 0x2C1 JUMPI PUSH1 0x4 CALLDATALOAD DUP2 MSTORE PUSH1 0x7 PUSH1 0x20 MSTORE PUSH1 0x40 SWAP1 DUP2 SWAP1 KECCAK256 PUSH1 0xA0 DUP2 SWAP1 MSTORE DUP1 SLOAD PUSH2 0x1C0 MSTORE PUSH1 0x1 DUP2 ADD SLOAD PUSH1 0x1 PUSH1 0x1 PUSH1 0xA0 SHL SUB SWAP1 DUP2 AND PUSH2 0x1E0 MSTORE PUSH1 0x2 DUP3 ADD SLOAD SWAP3 MLOAD PUSH1 0xC0 DUP2 SWAP1 MSTORE SWAP3 AND SWAP2 SWAP1 PUSH2 0x1053 SWAP1 DUP3 SWAP1 PUSH1 0x3 ADD PUSH2 0x41D3 JUMP JUMPDEST SUB PUSH1 0xC0 MLOAD SWAP1 PUSH2 0x1061 SWAP2 PUSH2 0x42CA JUMP JUMPDEST PUSH1 0x40 MLOAD DUP1 DUP1 PUSH1 0xA0 MLOAD PUSH1 0x4 ADD SWAP1 PUSH2 0x1076 SWAP2 PUSH2 0x41D3 JUMP JUMPDEST SUB PUSH2 0x1081 SWAP1 DUP3 PUSH2 0x42CA JUMP JUMPDEST PUSH1 0x40 MLOAD SWAP2 DUP3 DUP1 PUSH1 0xA0 MLOAD PUSH1 0x5 ADD SWAP1 PUSH2 0x1097 SWAP2 PUSH2 0x41D3 JUMP JUMPDEST SUB PUSH2 0x10A2 SWAP1 DUP5 PUSH2 0x42CA JUMP JUMPDEST PUSH1 0x40 MLOAD SWAP2 DUP3 DUP1 PUSH1 0xA0 MLOAD PUSH1 0x6 ADD SWAP1 PUSH2 0x10B8 SWAP2 PUSH2 0x41D3 JUMP JUMPDEST SUB PUSH2 0x10C3 SWAP1 DUP5 PUSH2 0x42CA JUMP JUMPDEST PUSH1 0x40 MLOAD SWAP4 DUP5 DUP1 PUSH1 0xA0 MLOAD PUSH1 0x7 ADD SWAP1 PUSH2 0x10D9 SWAP2 PUSH2 0x41D3 JUMP JUMPDEST SUB PUSH2 0x10E4 SWAP1 DUP7 PUSH2 0x42CA JUMP JUMPDEST PUSH1 0xA0 MLOAD SWAP4 PUSH1 0x8 DUP6 ADD SLOAD PUSH1 0xFF AND PUSH2 0x100 MSTORE PUSH1 0x9 DUP6 ADD SLOAD SWAP6 PUSH1 0xA DUP7 ADD SLOAD PUSH1 0xB DUP8 ADD SLOAD SWAP2 PUSH1 0xC DUP9 ADD SLOAD SWAP4 PUSH1 0xD DUP10 ADD SLOAD SWAP6 PUSH1 0xE DUP11 ADD SLOAD SWAP8 PUSH1 0xF DUP12 ADD SLOAD SWAP10 PUSH1 0x10 DUP13 ADD SLOAD SWAP12 PUSH1 0x11 DUP2 ADD SLOAD PUSH1 0x80 MSTORE PUSH1 0x12 DUP2 ADD SLOAD PUSH2 0x1A0 MSTORE PUSH1 0x13 DUP2 ADD SLOAD PUSH2 0x240 MSTORE PUSH1 0x14 DUP2 ADD SLOAD PUSH2 0x180 MSTORE PUSH1 0x15 DUP2 ADD SLOAD PUSH2 0x220 MSTORE PUSH1 0x16 DUP2 ADD SLOAD PUSH2 0x120 MSTORE PUSH1 0x17 DUP2 ADD SLOAD PUSH2 0x200 MSTORE PUSH1 0x18 DUP2 ADD SLOAD PUSH1 0xE0 MSTORE PUSH1 0x19 DUP2 ADD SLOAD PUSH2 0x260 MSTORE PUSH1 0x1A ADD SLOAD PUSH2 0x140 MSTORE PUSH1 0x40 MLOAD DUP1 PUSH2 0x160 MSTORE PUSH2 0x1C0 MLOAD SWAP1 MSTORE PUSH2 0x1E0 MLOAD PUSH2 0x160 MLOAD PUSH1 0x20 ADD MSTORE PUSH2 0x160 MLOAD PUSH1 0x40 ADD MSTORE PUSH2 0x440 DUP1 PUSH2 0x160 MLOAD PUSH1 0x60 ADD MSTORE PUSH2 0x160 MLOAD ADD PUSH1 0xC0 MLOAD SWAP1 PUSH2 0x11BA SWAP2 PUSH2 0x42ED JUMP JUMPDEST PUSH2 0x160 MLOAD DUP1 DUP3 SUB SWAP1 PUSH1 0x80 ADD MSTORE PUSH2 0x11CF SWAP2 PUSH2 0x42ED JUMP JUMPDEST PUSH2 0x160 MLOAD DUP1 DUP3 SUB SWAP1 PUSH1 0xA0 ADD MSTORE PUSH2 0x11E4 SWAP2 PUSH2 0x42ED JUMP JUMPDEST PUSH2 0x160 MLOAD DUP1 DUP3 SUB SWAP1 PUSH1 0xC0 ADD MSTORE PUSH2 0x11F9 SWAP2 PUSH2 0x42ED JUMP JUMPDEST PUSH2 0x160 MLOAD DUP1 DUP3 SUB SWAP1 PUSH1 0xE0 ADD MSTORE PUSH2 0x120E SWAP2 PUSH2 0x42ED JUMP JUMPDEST SWAP8 PUSH2 0x100 MLOAD PUSH2 0x121C SWAP1 PUSH2 0x432D JUMP JUMPDEST PUSH2 0x100 MLOAD PUSH2 0x160 MLOAD PUSH2 0x100 ADD MSTORE PUSH2 0x160 MLOAD PUSH2 0x120 ADD MSTORE PUSH2 0x160 MLOAD PUSH2 0x140 ADD MSTORE PUSH2 0x160 MLOAD PUSH2 0x160 ADD MSTORE PUSH2 0x160 MLOAD PUSH2 0x180 ADD MSTORE PUSH2 0x160 MLOAD PUSH2 0x1A0 ADD MSTORE PUSH2 0x160 MLOAD PUSH2 0x1C0 ADD MSTORE PUSH2 0x160 MLOAD PUSH2 0x1E0 ADD MSTORE PUSH2 0x160 MLOAD PUSH2 0x200 ADD MSTORE PUSH1 0x80 MLOAD PUSH2 0x160 MLOAD PUSH2 0x220 ADD MSTORE PUSH2 0x1A0 MLOAD PUSH1 0xFF AND PUSH2 0x128D SWAP1 PUSH2 0x40E4 JUMP JUMPDEST PUSH2 0x1A0 MLOAD PUSH1 0xFF AND PUSH2 0x160 MLOAD PUSH2 0x240 ADD MSTORE PUSH2 0x1A0 MLOAD PUSH1 0x8 SHR PUSH1 0xFF AND PUSH2 0x160 MLOAD PUSH2 0x260 ADD MSTORE PUSH2 0x1A0 MLOAD PUSH1 0x10 SHR PUSH1 0xFF AND PUSH2 0x160 MLOAD PUSH2 0x280 ADD MSTORE PUSH2 0x1A0 MLOAD PUSH1 0x18 SHR PUSH1 0xFF AND PUSH2 0x160 MLOAD PUSH2 0x2A0 ADD MSTORE PUSH2 0x1A0 MLOAD PUSH1 0x20 SHR PUSH1 0xFF AND PUSH2 0x12E9 SWAP1 PUSH2 0x40E4 JUMP JUMPDEST PUSH2 0x1A0 MLOAD PUSH1 0x20 SHR PUSH1 0xFF AND PUSH2 0x160 MLOAD PUSH2 0x2C0 ADD MSTORE PUSH1 0x1 PUSH1 0xA0 SHL PUSH1 0x1 SWAP1 SUB PUSH2 0x1A0 MLOAD PUSH1 0x28 SHR AND PUSH2 0x160 MLOAD PUSH2 0x2E0 ADD MSTORE PUSH2 0x240 MLOAD PUSH2 0x160 MLOAD PUSH2 0x300 ADD MSTORE PUSH2 0x180 MLOAD PUSH2 0x160 MLOAD PUSH2 0x320 ADD MSTORE PUSH2 0x220 MLOAD PUSH1 0xFF AND ISZERO ISZERO PUSH2 0x160 MLOAD PUSH2 0x340 ADD MSTORE PUSH2 0x220 MLOAD PUSH1 0x8 SHR PUSH1 0xFF AND PUSH2 0x1355 SWAP1 PUSH2 0x432D JUMP JUMPDEST PUSH2 0x220 MLOAD PUSH1 0x8 SHR PUSH1 0xFF AND PUSH2 0x160 MLOAD PUSH2 0x360 ADD MSTORE PUSH2 0x160 MLOAD PUSH2 0x380 ADD PUSH2 0x220 MLOAD PUSH1 0x10 SHR PUSH1 0xFF AND SWAP1 PUSH2 0x1384 SWAP2 PUSH2 0x4337 JUMP JUMPDEST PUSH2 0x120 MLOAD PUSH2 0x160 MLOAD PUSH2 0x3A0 ADD MSTORE PUSH2 0x200 MLOAD PUSH2 0x160 MLOAD PUSH2 0x3C0 ADD MSTORE PUSH1 0xE0 MLOAD PUSH2 0x160 MLOAD PUSH2 0x3E0 ADD MSTORE PUSH2 0x260 MLOAD PUSH2 0x160 MLOAD PUSH2 0x400 ADD MSTORE PUSH2 0x140 MLOAD PUSH2 0x160 MLOAD PUSH2 0x420 ADD MSTORE PUSH2 0x160 MLOAD DUP1 SWAP2 SUB SWAP1 RETURN JUMPDEST POP CALLVALUE PUSH2 0x2C1 JUMPI PUSH1 0x20 CALLDATASIZE PUSH1 0x3 NOT ADD SLT PUSH2 0x2C1 JUMPI PUSH1 0x40 SWAP1 PUSH1 0x4 CALLDATALOAD DUP2 MSTORE PUSH1 0x9 PUSH1 0x20 MSTORE KECCAK256 DUP1 SLOAD SWAP1 PUSH2 0x2B9 PUSH1 0x1 DUP3 ADD SLOAD PUSH1 0x2 DUP4 ADD SLOAD SWAP3 PUSH1 0x3 DUP2 ADD SLOAD SWAP5 PUSH1 0x4 DUP3 ADD SLOAD SWAP3 PUSH1 0x5 DUP4 ADD SLOAD SWAP2 PUSH1 0x6 DUP5 ADD SLOAD SWAP1 PUSH1 0x7 DUP6 ADD SLOAD SWAP2 PUSH1 0x8 DUP7 ADD SLOAD SWAP5 PUSH1 0xFF PUSH1 0xA PUSH1 0x9 DUP10 ADD SLOAD SWAP9 ADD SLOAD AND SWAP8 PUSH1 0x40 MLOAD SWAP12 DUP13 SWAP12 DUP13 PUSH1 0xFF DUP9 PUSH1 0x10 SHR AND SWAP9 PUSH1 0xFF DUP1 DUP11 PUSH1 0x8 SHR AND SWAP10 AND SWAP8 PUSH1 0xFF DUP5 PUSH1 0xA0 SHR AND SWAP4 PUSH1 0x1 DUP1 PUSH1 0xA0 SHL SUB AND SWAP3 PUSH2 0x410E JUMP JUMPDEST POP CALLVALUE PUSH2 0x2C1 JUMPI PUSH1 0x20 DUP1 PUSH1 0x3 NOT CALLDATASIZE ADD SLT PUSH2 0x343 JUMPI PUSH1 0x1 PUSH1 0x1 PUSH1 0xA0 SHL SUB PUSH2 0x1484 PUSH2 0x404F JUMP JUMPDEST AND DUP3 MSTORE PUSH1 0xA DUP2 MSTORE PUSH1 0x40 DUP3 KECCAK256 SWAP2 PUSH1 0x40 MLOAD DUP1 SWAP3 DUP1 DUP6 SLOAD SWAP3 DUP4 DUP2 MSTORE ADD SWAP5 DUP4 MSTORE DUP1 DUP4 KECCAK256 SWAP3 SWAP1 JUMPDEST DUP3 DUP3 LT PUSH2 0x14BD JUMPI PUSH2 0x2B9 DUP6 PUSH2 0x320 DUP2 DUP10 SUB DUP3 PUSH2 0x42CA JUMP JUMPDEST DUP4 SLOAD DUP7 MSTORE SWAP5 DUP6 ADD SWAP5 PUSH1 0x1 SWAP4 DUP5 ADD SWAP4 SWAP1 SWAP2 ADD SWAP1 PUSH2 0x14A6 JUMP JUMPDEST POP CALLVALUE PUSH2 0x2C1 JUMPI DUP1 PUSH1 0x3 NOT CALLDATASIZE ADD SLT PUSH2 0x2C1 JUMPI PUSH1 0x20 SWAP1 PUSH1 0x40 MLOAD SWAP1 DUP2 MSTORE RETURN JUMPDEST POP CALLVALUE PUSH2 0x2C1 JUMPI PUSH2 0x260 CALLDATASIZE PUSH1 0x3 NOT ADD SLT PUSH2 0x2C1 JUMPI PUSH1 0x4 CALLDATALOAD PUSH1 0x1 PUSH1 0x1 PUSH1 0x40 SHL SUB DUP2 GT PUSH2 0x343 JUMPI PUSH2 0x1522 SWAP1 CALLDATASIZE SWAP1 PUSH1 0x4 ADD PUSH2 0x3FFC JUMP JUMPDEST PUSH1 0x24 CALLDATALOAD PUSH1 0x1 PUSH1 0x1 PUSH1 0x40 SHL SUB DUP2 GT PUSH2 0x1EDA JUMPI PUSH2 0x1541 SWAP1 CALLDATASIZE SWAP1 PUSH1 0x4 ADD PUSH2 0x3FFC JUMP JUMPDEST SWAP1 PUSH1 0x44 CALLDATALOAD PUSH1 0x1 PUSH1 0x1 PUSH1 0x40 SHL SUB DUP2 GT PUSH2 0x1E8A JUMPI PUSH2 0x1561 SWAP1 CALLDATASIZE SWAP1 PUSH1 0x4 ADD PUSH2 0x3FFC JUMP JUMPDEST SWAP1 PUSH1 0x64 CALLDATALOAD PUSH1 0x1 PUSH1 0x1 PUSH1 0x40 SHL SUB DUP2 GT PUSH2 0x1ED6 JUMPI PUSH2 0x1581 SWAP1 CALLDATASIZE SWAP1 PUSH1 0x4 ADD PUSH2 0x3FFC JUMP JUMPDEST SWAP1 PUSH1 0x84 CALLDATALOAD PUSH1 0x1 PUSH1 0x1 PUSH1 0x40 SHL SUB DUP2 GT PUSH2 0x1ED2 JUMPI PUSH2 0x15A1 SWAP1 CALLDATASIZE SWAP1 PUSH1 0x4 ADD PUSH2 0x3FFC JUMP JUMPDEST SWAP10 SWAP1 SWAP9 PUSH1 0x2 PUSH1 0xA4 CALLDATALOAD LT ISZERO PUSH2 0x343 JUMPI PUSH1 0x3 PUSH2 0x144 CALLDATALOAD LT ISZERO PUSH2 0x343 JUMPI PUSH2 0x164 CALLDATALOAD PUSH1 0x1 PUSH1 0x1 PUSH1 0xA0 SHL SUB DUP2 AND SWAP1 SUB PUSH2 0x1EBA JUMPI PUSH2 0x15D7 PUSH2 0x4029 JUMP JUMPDEST PUSH1 0x3 PUSH2 0x1E4 CALLDATALOAD LT ISZERO PUSH2 0x2BD JUMPI PUSH1 0xFF PUSH2 0x204 CALLDATALOAD AND PUSH2 0x204 CALLDATALOAD SUB PUSH2 0x1EBA JUMPI PUSH1 0xFF PUSH2 0x224 CALLDATALOAD AND PUSH2 0x224 CALLDATALOAD SUB PUSH2 0x1EBA JUMPI PUSH1 0x2 PUSH2 0x244 CALLDATALOAD LT ISZERO PUSH2 0x2BD JUMPI PUSH2 0x1617 PUSH2 0x46FD JUMP JUMPDEST PUSH2 0x161F PUSH2 0x46DF JUMP JUMPDEST PUSH2 0x162C PUSH1 0xC4 CALLDATALOAD ISZERO ISZERO PUSH2 0x451B JUMP JUMPDEST PUSH2 0x1639 TIMESTAMP PUSH1 0xE4 CALLDATALOAD GT PUSH2 0x4576 JUMP JUMPDEST PUSH1 0x3 SLOAD PUSH1 0x4 DUP1 SLOAD PUSH1 0x2 SLOAD PUSH1 0x40 MLOAD PUSH4 0x37382D39 PUSH1 0xE2 SHL DUP2 MSTORE SWAP4 PUSH1 0x1 PUSH1 0x1 PUSH1 0xA0 SHL SUB SWAP1 DUP2 AND SWAP4 SWAP3 DUP2 AND SWAP3 PUSH1 0x20 SWAP3 DUP7 SWAP3 DUP4 SWAP2 PUSH1 0x8 SHR AND GAS STATICCALL SWAP3 DUP4 ISZERO PUSH2 0x1EC7 JUMPI DUP7 SWAP4 PUSH2 0x1E8E JUMPI JUMPDEST POP DUP2 EXTCODESIZE ISZERO PUSH2 0x1E8A JUMPI SWAP2 DUP6 SWAP2 PUSH2 0x16A9 SWAP4 DUP4 PUSH1 0x40 MLOAD DUP1 SWAP7 DUP2 SWAP6 DUP3 SWAP5 PUSH4 0xEC185A07 PUSH1 0xE0 SHL DUP5 MSTORE CALLER PUSH1 0x4 DUP6 ADD PUSH2 0x45D0 JUMP JUMPDEST SUB SWAP3 GAS CALL DUP1 ISZERO PUSH2 0x1E7F JUMPI SWAP1 DUP5 SWAP2 PUSH2 0x1E6B JUMPI JUMPDEST POP POP PUSH1 0x5 SLOAD SWAP10 PUSH2 0x16CA DUP12 PUSH2 0x4616 JUMP JUMPDEST PUSH1 0x5 SSTORE DUP11 DUP5 MSTORE PUSH1 0x7 PUSH1 0x20 MSTORE PUSH1 0x40 DUP5 KECCAK256 DUP12 DUP2 SSTORE PUSH1 0x1 DUP2 ADD DUP1 SLOAD PUSH1 0x1 PUSH1 0x1 PUSH1 0xA0 SHL SUB NOT AND CALLER OR SWAP1 SSTORE SWAP3 PUSH1 0x1 PUSH1 0x1 PUSH1 0x40 SHL SUB DUP3 GT PUSH2 0x1E57 JUMPI DUP2 SWAP1 PUSH2 0x170E PUSH1 0x3 DUP7 ADD SLOAD PUSH2 0x4199 JUMP JUMPDEST PUSH1 0x1F DUP2 GT PUSH2 0x1E06 JUMPI JUMPDEST POP DUP6 SWAP1 PUSH1 0x1F DUP4 GT PUSH1 0x1 EQ PUSH2 0x1D9A JUMPI DUP7 SWAP3 PUSH2 0x1D8F JUMPI JUMPDEST POP POP DUP2 PUSH1 0x1 SHL SWAP2 PUSH1 0x0 NOT SWAP1 PUSH1 0x3 SHL SHR NOT AND OR PUSH1 0x3 DUP4 ADD SSTORE JUMPDEST PUSH1 0x1 PUSH1 0x1 PUSH1 0x40 SHL SUB DUP10 GT PUSH2 0x1B4B JUMPI PUSH2 0x175F PUSH1 0x4 DUP4 ADD SLOAD PUSH2 0x4199 JUMP JUMPDEST PUSH1 0x1F DUP2 GT PUSH2 0x1D4A JUMPI JUMPDEST POP DUP9 DUP4 PUSH1 0x1F DUP3 GT PUSH1 0x1 EQ PUSH2 0x1CDE JUMPI DUP5 SWAP2 PUSH2 0x1CD3 JUMPI JUMPDEST POP DUP10 PUSH1 0x1 SHL SWAP1 PUSH1 0x0 NOT DUP12 PUSH1 0x3 SHL SHR NOT AND OR PUSH1 0x4 DUP4 ADD SSTORE JUMPDEST PUSH1 0x1 PUSH1 0x1 PUSH1 0x40 SHL SUB DUP8 GT PUSH2 0x1B4B JUMPI PUSH2 0x17AF PUSH1 0x5 DUP4 ADD SLOAD PUSH2 0x4199 JUMP JUMPDEST PUSH1 0x1F DUP2 GT PUSH2 0x1C8E JUMPI JUMPDEST POP DUP7 DUP4 PUSH1 0x1F DUP3 GT PUSH1 0x1 EQ PUSH2 0x1C24 JUMPI DUP5 SWAP2 PUSH2 0x1C19 JUMPI JUMPDEST POP DUP8 PUSH1 0x1 SHL SWAP1 PUSH1 0x0 NOT DUP10 PUSH1 0x3 SHL SHR NOT AND OR PUSH1 0x5 DUP4 ADD SSTORE JUMPDEST PUSH1 0x1 PUSH1 0x1 PUSH1 0x40 SHL SUB DUP6 GT PUSH2 0x1B4B JUMPI PUSH2 0x17FF PUSH1 0x6 DUP4 ADD SLOAD PUSH2 0x4199 JUMP JUMPDEST PUSH1 0x1F DUP2 GT PUSH2 0x1BD4 JUMPI JUMPDEST POP DUP5 DUP4 PUSH1 0x1F DUP3 GT PUSH1 0x1 EQ PUSH2 0x1B6A JUMPI DUP5 SWAP2 PUSH2 0x1B5F JUMPI JUMPDEST POP DUP6 PUSH1 0x1 SHL SWAP1 PUSH1 0x0 NOT DUP8 PUSH1 0x3 SHL SHR NOT AND OR PUSH1 0x6 DUP4 ADD SSTORE JUMPDEST PUSH1 0x1 PUSH1 0x1 PUSH1 0x40 SHL SUB DUP13 GT PUSH2 0x1B4B JUMPI PUSH2 0x184F PUSH1 0x7 DUP4 ADD SLOAD PUSH2 0x4199 JUMP JUMPDEST SWAP12 PUSH1 0x1F DUP14 GT PUSH2 0x1B02 JUMPI JUMPDEST PUSH1 0x20 SWAP13 POP DUP4 SWAP12 PUSH1 0x1F DUP3 GT PUSH1 0x1 EQ PUSH2 0x1A6F JUMPI SWAP11 PUSH2 0x19DB SWAP7 DUP15 DUP3 SWAP15 SWAP8 PUSH2 0x19AB PUSH2 0x19F3 SWAP16 DUP6 SWAP16 SWAP15 SWAP13 SWAP8 DUP11 DUP6 SWAP16 SWAP12 SWAP11 PUSH1 0x40 SWAP3 DUP11 DUP11 SWAP16 SWAP12 PUSH2 0x19C3 SWAP13 DUP11 SWAP16 SWAP8 DUP14 SWAP9 SWAP3 PUSH2 0x1A64 JUMPI JUMPDEST POP POP DUP2 PUSH1 0x1 SHL SWAP2 PUSH1 0x0 NOT SWAP1 PUSH1 0x3 SHL SHR NOT AND OR PUSH1 0x7 DUP4 ADD SSTORE JUMPDEST PUSH2 0x18C1 PUSH1 0xA4 CALLDATALOAD PUSH1 0x8 DUP5 ADD PUSH2 0x463B JUMP JUMPDEST PUSH1 0xC4 CALLDATALOAD PUSH1 0x9 DUP4 ADD SSTORE PUSH1 0xE4 CALLDATALOAD PUSH1 0xB DUP4 ADD SSTORE PUSH2 0x104 CALLDATALOAD PUSH1 0x11 DUP4 ADD SSTORE PUSH2 0x124 CALLDATALOAD PUSH1 0x10 DUP4 ADD SSTORE PUSH2 0x1981 PUSH1 0x12 DUP4 ADD PUSH2 0x18F6 PUSH2 0x144 CALLDATALOAD PUSH2 0x40E4 JUMP JUMPDEST DUP1 SLOAD PUSH1 0x1 PUSH1 0x28 SHL PUSH1 0x1 PUSH1 0xC8 SHL SUB PUSH2 0x164 CALLDATALOAD PUSH1 0x28 SHL AND PUSH1 0xFF PUSH2 0x144 CALLDATALOAD DUP2 AND DUP14 SHL PUSH1 0x1 DUP15 SHL PUSH1 0x1 PUSH1 0xC8 SHL SUB NOT SWAP1 SWAP4 AND SWAP3 SWAP1 SWAP3 OR OR DUP3 SSTORE PUSH2 0x184 CALLDATALOAD PUSH1 0x13 DUP7 ADD SSTORE PUSH2 0x1A4 CALLDATALOAD PUSH1 0x14 DUP7 ADD SSTORE PUSH1 0x15 DUP6 ADD DUP1 SLOAD PUSH1 0xFF NOT AND SWAP5 ISZERO ISZERO SWAP1 SWAP2 AND SWAP4 SWAP1 SWAP4 OR DUP4 SSTORE DUP1 SLOAD PUSH4 0xFF000000 NOT AND DUP2 SSTORE PUSH2 0x196A PUSH2 0x1E4 CALLDATALOAD DUP3 PUSH2 0x4653 JUMP JUMPDEST PUSH2 0x1977 PUSH2 0x204 CALLDATALOAD DUP3 PUSH2 0x465D JUMP JUMPDEST PUSH2 0x224 CALLDATALOAD SWAP1 PUSH2 0x4673 JUMP JUMPDEST PUSH2 0x198E PUSH2 0x244 CALLDATALOAD DUP3 PUSH2 0x468B JUMP JUMPDEST PUSH3 0xFF0000 NOT DUP2 SLOAD AND SWAP1 SSTORE PUSH1 0x16 TIMESTAMP SWAP2 ADD SSTORE CALLER DUP2 MSTORE PUSH1 0xA DUP7 MSTORE KECCAK256 PUSH2 0x46AA JUMP JUMPDEST DUP3 PUSH1 0x40 MLOAD SWAP4 DUP5 SWAP3 DUP4 CALLDATACOPY DUP2 ADD PUSH1 0xC DUP2 MSTORE SUB ADD SWAP1 KECCAK256 PUSH2 0x46AA JUMP JUMPDEST DUP3 PUSH1 0x40 MLOAD SWAP4 DUP5 SWAP3 DUP4 CALLDATACOPY DUP2 ADD PUSH1 0xD DUP2 MSTORE SUB ADD SWAP1 KECCAK256 PUSH2 0x46AA JUMP JUMPDEST DUP3 PUSH1 0x40 MLOAD SWAP4 DUP5 SWAP3 DUP4 CALLDATACOPY DUP2 ADD PUSH1 0xE DUP2 MSTORE SUB ADD SWAP1 KECCAK256 PUSH2 0x46AA JUMP JUMPDEST PUSH1 0x40 MLOAD PUSH1 0x1 DUP2 MSTORE TIMESTAMP DUP4 DUP3 ADD MSTORE DUP2 PUSH1 0x0 DUP1 MLOAD PUSH1 0x20 PUSH2 0x49BE DUP4 CODECOPY DUP2 MLOAD SWAP2 MSTORE PUSH1 0x40 CALLER SWAP4 LOG3 DUP1 PUSH1 0x0 DUP1 MLOAD PUSH1 0x20 PUSH2 0x499E DUP4 CODECOPY DUP2 MLOAD SWAP2 MSTORE PUSH1 0xC0 PUSH1 0x40 MLOAD PUSH1 0x0 DUP2 MSTORE PUSH1 0x0 DUP7 DUP3 ADD MSTORE PUSH1 0x80 PUSH1 0x40 DUP3 ADD MSTORE PUSH1 0x7 PUSH1 0x80 DUP3 ADD MSTORE PUSH7 0x18DC99585D1959 PUSH1 0xCA SHL PUSH1 0xA0 DUP3 ADD MSTORE TIMESTAMP PUSH1 0x60 DUP3 ADD MSTORE LOG2 PUSH1 0x1 DUP1 SSTORE PUSH1 0x40 MLOAD SWAP1 DUP2 MSTORE RETURN JUMPDEST ADD CALLDATALOAD SWAP1 POP CODESIZE DUP1 PUSH2 0x189A JUMP JUMPDEST PUSH1 0x7 DUP5 ADD DUP6 MSTORE DUP14 DUP6 KECCAK256 SWAP1 DUP6 SWAP14 DUP15 JUMPDEST PUSH1 0x1F NOT DUP6 AND GT PUSH2 0x1AEA JUMPI DUP16 SWAP11 SWAP7 DUP15 SWAP16 POP SWAP8 PUSH2 0x19AB PUSH2 0x19F3 SWAP16 SWAP15 SWAP14 SWAP12 SWAP7 DUP16 SWAP11 PUSH1 0x40 SWAP1 DUP16 SWAP11 DUP14 SWAP9 SWAP4 PUSH2 0x19DB SWAP16 SWAP9 DUP12 DUP12 SWAP7 DUP16 SWAP11 SWAP3 PUSH1 0x1 SWAP4 PUSH2 0x19C3 SWAP16 PUSH1 0x1F NOT DUP2 AND LT PUSH2 0x1AD0 JUMPI JUMPDEST POP POP POP DUP2 SHL ADD PUSH1 0x7 DUP4 ADD SSTORE PUSH2 0x18B2 JUMP JUMPDEST ADD CALLDATALOAD PUSH1 0x0 NOT PUSH1 0x3 DUP5 SWAP1 SHL PUSH1 0xF8 AND SHR NOT AND SWAP1 SSTORE CODESIZE DUP1 DUP1 PUSH2 0x1AC0 JUMP JUMPDEST SWAP2 DUP16 PUSH1 0x1 DUP2 SWAP3 DUP6 DUP6 ADD CALLDATALOAD DUP2 SSTORE ADD SWAP4 ADD SWAP15 ADD SWAP14 DUP15 PUSH2 0x1A7D JUMP JUMPDEST PUSH1 0x7 DUP4 ADD DUP5 MSTORE PUSH1 0x20 DUP5 KECCAK256 PUSH1 0x1F DUP3 ADD PUSH1 0x5 SHR DUP2 ADD PUSH1 0x20 DUP4 LT PUSH2 0x1B44 JUMPI JUMPDEST PUSH1 0x1F DUP16 JUMPDEST ADD PUSH1 0x5 SHR DUP3 ADD DUP2 LT PUSH2 0x1B35 JUMPI POP POP PUSH2 0x1859 JUMP JUMPDEST PUSH1 0x0 DUP2 SSTORE PUSH1 0x1 ADD PUSH1 0x1F DUP16 PUSH2 0x1B22 JUMP JUMPDEST POP DUP1 PUSH2 0x1B1E JUMP JUMPDEST PUSH4 0x4E487B71 PUSH1 0xE0 SHL DUP4 MSTORE PUSH1 0x41 PUSH1 0x4 MSTORE PUSH1 0x24 DUP4 REVERT JUMPDEST SWAP1 POP DUP5 ADD CALLDATALOAD CODESIZE PUSH2 0x181D JUMP JUMPDEST PUSH1 0x6 DUP5 ADD DUP6 MSTORE PUSH1 0x20 DUP6 KECCAK256 SWAP2 POP DUP5 JUMPDEST PUSH1 0x1F NOT DUP9 AND DUP2 LT PUSH2 0x1BBC JUMPI POP DUP7 PUSH1 0x1F NOT DUP2 AND LT PUSH2 0x1BA2 JUMPI JUMPDEST POP POP PUSH1 0x1 DUP6 DUP2 SHL ADD PUSH1 0x6 DUP4 ADD SSTORE PUSH2 0x1834 JUMP JUMPDEST DUP6 ADD CALLDATALOAD PUSH1 0x0 NOT PUSH1 0x3 DUP9 SWAP1 SHL PUSH1 0xF8 AND SHR NOT AND SWAP1 SSTORE CODESIZE DUP1 PUSH2 0x1B90 JUMP JUMPDEST SWAP1 SWAP2 PUSH1 0x20 PUSH1 0x1 DUP2 SWAP3 DUP6 DUP11 ADD CALLDATALOAD DUP2 SSTORE ADD SWAP4 ADD SWAP2 ADD PUSH2 0x1B78 JUMP JUMPDEST PUSH1 0x6 DUP4 ADD DUP5 MSTORE PUSH1 0x20 DUP5 KECCAK256 PUSH1 0x1F DUP8 ADD PUSH1 0x5 SHR DUP2 ADD PUSH1 0x20 DUP9 LT PUSH2 0x1C12 JUMPI JUMPDEST PUSH1 0x1F DUP4 ADD PUSH1 0x5 SHR DUP3 ADD DUP2 LT PUSH2 0x1C06 JUMPI POP POP PUSH2 0x1808 JUMP JUMPDEST PUSH1 0x0 DUP2 SSTORE PUSH1 0x1 ADD PUSH2 0x1BF0 JUMP JUMPDEST POP DUP1 PUSH2 0x1BF0 JUMP JUMPDEST SWAP1 POP DUP7 ADD CALLDATALOAD CODESIZE PUSH2 0x17CD JUMP JUMPDEST PUSH1 0x5 DUP5 ADD DUP6 MSTORE PUSH1 0x20 DUP6 KECCAK256 SWAP2 POP DUP5 JUMPDEST PUSH1 0x1F NOT DUP11 AND DUP2 LT PUSH2 0x1C76 JUMPI POP DUP9 PUSH1 0x1F NOT DUP2 AND LT PUSH2 0x1C5C JUMPI JUMPDEST POP POP PUSH1 0x1 DUP8 DUP2 SHL ADD PUSH1 0x5 DUP4 ADD SSTORE PUSH2 0x17E4 JUMP JUMPDEST DUP8 ADD CALLDATALOAD PUSH1 0x0 NOT PUSH1 0x3 DUP11 SWAP1 SHL PUSH1 0xF8 AND SHR NOT AND SWAP1 SSTORE CODESIZE DUP1 PUSH2 0x1C4A JUMP JUMPDEST SWAP1 SWAP2 PUSH1 0x20 PUSH1 0x1 DUP2 SWAP3 DUP6 DUP13 ADD CALLDATALOAD DUP2 SSTORE ADD SWAP4 ADD SWAP2 ADD PUSH2 0x1C32 JUMP JUMPDEST PUSH1 0x5 DUP4 ADD DUP5 MSTORE PUSH1 0x20 DUP5 KECCAK256 PUSH1 0x1F DUP10 ADD PUSH1 0x5 SHR DUP2 ADD PUSH1 0x20 DUP11 LT PUSH2 0x1CCC JUMPI JUMPDEST PUSH1 0x1F DUP4 ADD PUSH1 0x5 SHR DUP3 ADD DUP2 LT PUSH2 0x1CC0 JUMPI POP POP PUSH2 0x17B8 JUMP JUMPDEST PUSH1 0x0 DUP2 SSTORE PUSH1 0x1 ADD PUSH2 0x1CAA JUMP JUMPDEST POP DUP1 PUSH2 0x1CAA JUMP JUMPDEST SWAP1 POP DUP9 ADD CALLDATALOAD CODESIZE PUSH2 0x177D JUMP JUMPDEST PUSH1 0x4 DUP5 ADD DUP6 MSTORE PUSH1 0x20 DUP6 KECCAK256 SWAP2 POP DUP5 JUMPDEST DUP11 PUSH1 0x1F NOT DUP14 AND DUP3 LT PUSH2 0x1D32 JUMPI POP POP DUP11 PUSH1 0x1F NOT DUP2 AND LT PUSH2 0x1D18 JUMPI JUMPDEST POP POP PUSH1 0x1 DUP10 DUP2 SHL ADD PUSH1 0x4 DUP4 ADD SSTORE PUSH2 0x1794 JUMP JUMPDEST DUP10 ADD CALLDATALOAD PUSH1 0x0 NOT PUSH1 0x3 DUP13 SWAP1 SHL PUSH1 0xF8 AND SHR NOT AND SWAP1 SSTORE CODESIZE DUP1 PUSH2 0x1D06 JUMP JUMPDEST PUSH1 0x1 DUP4 SWAP5 PUSH1 0x20 SWAP4 SWAP5 DUP5 SWAP4 ADD CALLDATALOAD DUP2 SSTORE ADD SWAP4 ADD SWAP2 ADD PUSH2 0x1CEC JUMP JUMPDEST PUSH1 0x4 DUP4 ADD DUP5 MSTORE PUSH1 0x20 DUP5 KECCAK256 PUSH1 0x1F DUP12 ADD PUSH1 0x5 SHR DUP2 ADD PUSH1 0x20 DUP13 LT PUSH2 0x1D88 JUMPI JUMPDEST PUSH1 0x1F DUP4 ADD PUSH1 0x5 SHR DUP3 ADD DUP2 LT PUSH2 0x1D7C JUMPI POP POP PUSH2 0x1768 JUMP JUMPDEST PUSH1 0x0 DUP2 SSTORE PUSH1 0x1 ADD PUSH2 0x1D66 JUMP JUMPDEST POP DUP1 PUSH2 0x1D66 JUMP JUMPDEST ADD CALLDATALOAD SWAP1 POP CODESIZE DUP1 PUSH2 0x172C JUMP JUMPDEST PUSH1 0x3 DUP7 ADD DUP8 MSTORE PUSH1 0x20 DUP8 KECCAK256 DUP8 SWAP5 POP SWAP2 JUMPDEST PUSH1 0x1F NOT DUP5 AND DUP6 LT PUSH2 0x1DEE JUMPI PUSH1 0x1 SWAP5 POP DUP4 PUSH1 0x1F NOT DUP2 AND LT PUSH2 0x1DD4 JUMPI JUMPDEST POP POP POP DUP2 SHL ADD PUSH1 0x3 DUP4 ADD SSTORE PUSH2 0x1744 JUMP JUMPDEST ADD CALLDATALOAD PUSH1 0x0 NOT PUSH1 0x3 DUP5 SWAP1 SHL PUSH1 0xF8 AND SHR NOT AND SWAP1 SSTORE CODESIZE DUP1 DUP1 PUSH2 0x1DC4 JUMP JUMPDEST DUP2 DUP2 ADD CALLDATALOAD DUP4 SSTORE PUSH1 0x20 SWAP5 DUP6 ADD SWAP5 PUSH1 0x1 SWAP1 SWAP4 ADD SWAP3 ADD PUSH2 0x1DA9 JUMP JUMPDEST SWAP1 SWAP2 POP PUSH1 0x3 DUP6 ADD DUP7 MSTORE PUSH1 0x20 DUP7 KECCAK256 PUSH1 0x1F DUP5 ADD PUSH1 0x5 SHR DUP2 ADD PUSH1 0x20 DUP6 LT PUSH2 0x1E50 JUMPI JUMPDEST SWAP1 DUP5 SWAP4 SWAP3 SWAP2 JUMPDEST PUSH1 0x1F DUP4 ADD PUSH1 0x5 SHR DUP3 ADD DUP2 LT PUSH2 0x1E41 JUMPI POP POP PUSH2 0x1717 JUMP JUMPDEST PUSH1 0x0 DUP2 SSTORE DUP6 SWAP5 POP PUSH1 0x1 ADD PUSH2 0x1E2B JUMP JUMPDEST POP DUP1 PUSH2 0x1E25 JUMP JUMPDEST PUSH4 0x4E487B71 PUSH1 0xE0 SHL DUP6 MSTORE PUSH1 0x41 PUSH1 0x4 MSTORE PUSH1 0x24 DUP6 REVERT JUMPDEST PUSH2 0x1E74 SWAP1 PUSH2 0x4269 JUMP JUMPDEST PUSH2 0x2BD JUMPI DUP3 CODESIZE PUSH2 0x16BB JUMP JUMPDEST PUSH1 0x40 MLOAD RETURNDATASIZE DUP7 DUP3 RETURNDATACOPY RETURNDATASIZE SWAP1 REVERT JUMPDEST DUP6 DUP1 REVERT JUMPDEST SWAP1 SWAP3 POP PUSH1 0x20 DUP2 RETURNDATASIZE PUSH1 0x20 GT PUSH2 0x1EBF JUMPI JUMPDEST DUP2 PUSH2 0x1EAA PUSH1 0x20 SWAP4 DUP4 PUSH2 0x42CA JUMP JUMPDEST DUP2 ADD SUB SLT PUSH2 0x1EBA JUMPI MLOAD SWAP2 CODESIZE PUSH2 0x167C JUMP JUMPDEST PUSH1 0x0 DUP1 REVERT JUMPDEST RETURNDATASIZE SWAP2 POP PUSH2 0x1E9D JUMP JUMPDEST PUSH1 0x40 MLOAD RETURNDATASIZE DUP9 DUP3 RETURNDATACOPY RETURNDATASIZE SWAP1 REVERT JUMPDEST DUP10 DUP1 REVERT JUMPDEST DUP8 DUP1 REVERT JUMPDEST DUP4 DUP1 REVERT JUMPDEST POP CALLVALUE PUSH2 0x2C1 JUMPI PUSH1 0x40 CALLDATASIZE PUSH1 0x3 NOT ADD SLT PUSH2 0x2C1 JUMPI PUSH1 0x40 PUSH2 0x1EFA PUSH2 0x4065 JUMP JUMPDEST SWAP2 PUSH1 0x4 CALLDATALOAD DUP2 MSTORE DUP1 PUSH1 0x20 MSTORE KECCAK256 SWAP1 PUSH1 0x1 DUP1 PUSH1 0xA0 SHL SUB AND PUSH1 0x0 MSTORE PUSH1 0x20 MSTORE PUSH1 0x20 PUSH1 0xFF PUSH1 0x40 PUSH1 0x0 KECCAK256 SLOAD AND PUSH1 0x40 MLOAD SWAP1 ISZERO ISZERO DUP2 MSTORE RETURN JUMPDEST POP CALLVALUE PUSH2 0x2C1 JUMPI DUP1 PUSH1 0x3 NOT CALLDATASIZE ADD SLT PUSH2 0x2C1 JUMPI PUSH1 0x3 SLOAD PUSH1 0x40 MLOAD PUSH1 0x1 PUSH1 0x1 PUSH1 0xA0 SHL SUB SWAP1 SWAP2 AND DUP2 MSTORE PUSH1 0x20 SWAP1 RETURN JUMPDEST POP CALLVALUE PUSH2 0x2C1 JUMPI DUP1 PUSH1 0x3 NOT CALLDATASIZE ADD SLT PUSH2 0x2C1 JUMPI PUSH2 0x1F6B PUSH2 0x43C8 JUMP JUMPDEST PUSH2 0x1F73 PUSH2 0x46DF JUMP JUMPDEST PUSH1 0x1 PUSH1 0xFF NOT PUSH1 0x2 SLOAD AND OR PUSH1 0x2 SSTORE PUSH32 0x62E78CEA01BEE320CD4E420270B5EA74000D11B0C9F74754EBDBFC544B05A258 PUSH1 0x20 PUSH1 0x40 MLOAD CALLER DUP2 MSTORE LOG1 DUP1 RETURN JUMPDEST POP CALLVALUE PUSH2 0x2C1 JUMPI PUSH1 0x20 DUP1 PUSH1 0x3 NOT CALLDATASIZE ADD SLT PUSH2 0x343 JUMPI PUSH1 0x4 CALLDATALOAD PUSH1 0x1 PUSH1 0x1 PUSH1 0x40 SHL SUB DUP2 GT PUSH2 0x2BD JUMPI PUSH2 0x1FE0 DUP3 SWAP2 CALLDATASIZE SWAP1 PUSH1 0x4 ADD PUSH2 0x3FFC JUMP JUMPDEST SWAP2 SWAP1 DUP3 PUSH1 0x40 MLOAD SWAP4 DUP5 SWAP3 DUP4 CALLDATACOPY DUP2 ADD PUSH1 0xD DUP2 MSTORE SUB ADD SWAP1 KECCAK256 SWAP2 PUSH1 0x40 MLOAD DUP1 SWAP3 DUP1 DUP6 SLOAD SWAP3 DUP4 DUP2 MSTORE ADD SWAP5 DUP4 MSTORE DUP1 DUP4 KECCAK256 SWAP3 SWAP1 JUMPDEST DUP3 DUP3 LT PUSH2 0x2023 JUMPI PUSH2 0x2B9 DUP6 PUSH2 0x320 DUP2 DUP10 SUB DUP3 PUSH2 0x42CA JUMP JUMPDEST DUP4 SLOAD DUP7 MSTORE SWAP5 DUP6 ADD SWAP5 PUSH1 0x1 SWAP4 DUP5 ADD SWAP4 SWAP1 SWAP2 ADD SWAP1 PUSH2 0x200C JUMP JUMPDEST POP CALLVALUE PUSH2 0x2C1 JUMPI DUP1 PUSH1 0x3 NOT CALLDATASIZE ADD SLT PUSH2 0x2C1 JUMPI PUSH1 0x2 SLOAD PUSH1 0x40 MLOAD PUSH1 0x8 SWAP2 SWAP1 SWAP2 SHR PUSH1 0x1 PUSH1 0x1 PUSH1 0xA0 SHL SUB AND DUP2 MSTORE PUSH1 0x20 SWAP1 RETURN JUMPDEST POP CALLVALUE PUSH2 0x2C1 JUMPI PUSH1 0xC0 CALLDATASIZE PUSH1 0x3 NOT ADD SLT PUSH2 0x2C1 JUMPI PUSH1 0x3 PUSH1 0x64 CALLDATALOAD LT ISZERO PUSH2 0x2C1 JUMPI PUSH1 0x84 CALLDATALOAD PUSH1 0xFF DUP2 AND DUP2 SUB PUSH2 0x1EBA JUMPI PUSH1 0xA4 CALLDATALOAD PUSH1 0xFF DUP2 AND DUP2 SUB PUSH2 0x1EBA JUMPI PUSH1 0x4 CALLDATALOAD ISZERO ISZERO DUP1 PUSH2 0x2460 JUMPI JUMPDEST PUSH2 0x20B2 SWAP1 PUSH2 0x47DF JUMP JUMPDEST PUSH2 0x20BA PUSH2 0x46FD JUMP JUMPDEST PUSH2 0x20C2 PUSH2 0x46DF JUMP JUMPDEST PUSH1 0x4 CALLDATALOAD DUP4 MSTORE PUSH1 0x7 PUSH1 0x20 MSTORE PUSH1 0x40 DUP4 KECCAK256 SWAP1 PUSH1 0xFF PUSH1 0x15 DUP4 ADD SLOAD PUSH1 0x10 SHR AND PUSH1 0xB DUP2 LT ISZERO PUSH2 0x22EF JUMPI DUP1 ISZERO SWAP1 DUP2 ISZERO PUSH2 0x2455 JUMPI JUMPDEST POP ISZERO PUSH2 0x2400 JUMPI PUSH1 0x9 DUP3 ADD SLOAD SWAP1 PUSH2 0x2710 PUSH2 0x2119 DUP2 PUSH2 0x210E PUSH1 0x24 CALLDATALOAD DUP7 PUSH2 0x4765 JUMP JUMPDEST DIV SWAP4 PUSH1 0x44 CALLDATALOAD SWAP1 PUSH2 0x4765 JUMP JUMPDEST DIV SWAP4 PUSH1 0x11 DUP5 ADD SLOAD DUP1 PUSH2 0x23A2 JUMPI JUMPDEST POP PUSH1 0x10 DUP5 ADD SLOAD PUSH1 0x44 CALLDATALOAD LT PUSH2 0x235E JUMPI PUSH1 0x3 SLOAD PUSH1 0x4 SLOAD DUP8 SWAP2 PUSH1 0x1 PUSH1 0x1 PUSH1 0xA0 SHL SUB SWAP2 DUP3 AND SWAP2 AND DUP1 EXTCODESIZE ISZERO PUSH2 0x2BD JUMPI DUP8 DUP4 SWAP2 PUSH2 0x2175 SWAP4 DUP4 PUSH1 0x40 MLOAD DUP1 SWAP7 DUP2 SWAP6 DUP3 SWAP5 PUSH4 0xAC94D93 PUSH1 0xE3 SHL DUP5 MSTORE CALLER PUSH1 0x4 DUP6 ADD PUSH2 0x4778 JUMP JUMPDEST SUB SWAP3 GAS CALL DUP1 ISZERO PUSH2 0x2353 JUMPI PUSH2 0x233F JUMPI JUMPDEST POP POP PUSH1 0x6 SLOAD SWAP5 PUSH2 0x2193 DUP7 PUSH2 0x4616 JUMP JUMPDEST PUSH1 0x6 SSTORE PUSH3 0x15180 TIMESTAMP ADD TIMESTAMP GT PUSH2 0x232B JUMPI PUSH1 0xFF SWAP3 SWAP2 DUP4 SWAP2 PUSH1 0x40 MLOAD SWAP6 PUSH2 0x21B5 DUP8 PUSH2 0x4292 JUMP JUMPDEST DUP9 DUP8 MSTORE PUSH1 0x4 CALLDATALOAD PUSH1 0x20 DUP9 ADD MSTORE CALLER PUSH1 0x40 DUP9 ADD MSTORE DUP10 PUSH1 0x60 DUP9 ADD MSTORE PUSH1 0x24 CALLDATALOAD PUSH1 0x80 DUP9 ADD MSTORE PUSH1 0xA0 DUP8 ADD MSTORE PUSH1 0x44 CALLDATALOAD PUSH1 0xC0 DUP8 ADD MSTORE PUSH1 0xE0 DUP7 ADD MSTORE PUSH2 0x21F1 PUSH1 0x64 CALLDATALOAD PUSH2 0x40E4 JUMP JUMPDEST PUSH1 0x64 CALLDATALOAD PUSH2 0x100 DUP7 ADD MSTORE AND PUSH2 0x120 DUP5 ADD MSTORE AND PUSH2 0x140 DUP3 ADD MSTORE TIMESTAMP PUSH2 0x160 DUP3 ADD MSTORE PUSH3 0x15180 TIMESTAMP ADD PUSH2 0x180 DUP3 ADD MSTORE DUP4 PUSH2 0x1A0 DUP3 ADD MSTORE DUP3 DUP5 MSTORE PUSH1 0x9 PUSH1 0x20 MSTORE PUSH2 0x2237 DUP2 PUSH1 0x40 DUP7 KECCAK256 PUSH2 0x484D JUMP JUMPDEST PUSH1 0x4 CALLDATALOAD DUP5 MSTORE PUSH1 0x8 PUSH1 0x20 MSTORE PUSH1 0x40 DUP5 KECCAK256 DUP1 SLOAD SWAP1 PUSH1 0x1 PUSH1 0x40 SHL DUP3 LT ISZERO PUSH2 0x2317 JUMPI SWAP1 PUSH2 0x2264 SWAP2 PUSH1 0x1 DUP3 ADD DUP2 SSTORE PUSH2 0x4344 JUMP JUMPDEST PUSH2 0x2303 JUMPI SWAP1 PUSH2 0x2272 SWAP2 PUSH2 0x484D JUMP JUMPDEST PUSH1 0x15 DUP2 ADD SLOAD PUSH1 0xFF DUP2 PUSH1 0x10 SHR AND PUSH1 0xB DUP2 LT ISZERO PUSH2 0x22EF JUMPI PUSH1 0x20 SWAP5 POP ISZERO PUSH2 0x22D7 JUMPI JUMPDEST POP POP PUSH1 0x40 MLOAD PUSH1 0x24 CALLDATALOAD DUP2 MSTORE TIMESTAMP DUP4 DUP3 ADD MSTORE DUP2 CALLER SWAP2 PUSH32 0x878FE3F9BCA373E42473C1F3AD3C9C35C4F1ECAF9A5F081A801A3FBD43049F55 PUSH1 0x40 PUSH1 0x4 CALLDATALOAD SWAP3 LOG4 PUSH1 0x1 DUP1 SSTORE PUSH1 0x40 MLOAD SWAP1 DUP2 MSTORE RETURN JUMPDEST PUSH3 0x10000 PUSH1 0x15 SWAP2 PUSH3 0xFF0000 NOT AND OR SWAP2 ADD SSTORE CODESIZE DUP1 PUSH2 0x2291 JUMP JUMPDEST PUSH4 0x4E487B71 PUSH1 0xE0 SHL DUP6 MSTORE PUSH1 0x21 PUSH1 0x4 MSTORE PUSH1 0x24 DUP6 REVERT JUMPDEST PUSH4 0x4E487B71 PUSH1 0xE0 SHL DUP6 MSTORE PUSH1 0x4 DUP6 SWAP1 MSTORE PUSH1 0x24 DUP6 REVERT JUMPDEST PUSH4 0x4E487B71 PUSH1 0xE0 SHL DUP7 MSTORE PUSH1 0x41 PUSH1 0x4 MSTORE PUSH1 0x24 DUP7 REVERT JUMPDEST PUSH4 0x4E487B71 PUSH1 0xE0 SHL DUP8 MSTORE PUSH1 0x11 PUSH1 0x4 MSTORE PUSH1 0x24 DUP8 REVERT JUMPDEST PUSH2 0x2348 SWAP1 PUSH2 0x4269 JUMP JUMPDEST PUSH2 0x1E8A JUMPI DUP6 CODESIZE PUSH2 0x2184 JUMP JUMPDEST PUSH1 0x40 MLOAD RETURNDATASIZE DUP5 DUP3 RETURNDATACOPY RETURNDATASIZE SWAP1 REVERT JUMPDEST PUSH1 0x64 PUSH1 0x40 MLOAD PUSH3 0x461BCD PUSH1 0xE5 SHL DUP2 MSTORE PUSH1 0x20 PUSH1 0x4 DUP3 ADD MSTORE PUSH1 0x20 PUSH1 0x24 DUP3 ADD MSTORE PUSH32 0x4F7074696F6E73436F72653A206D617267696E207261746520746F6F206C6F77 PUSH1 0x44 DUP3 ADD MSTORE REVERT JUMPDEST PUSH1 0x24 CALLDATALOAD GT PUSH2 0x23B0 JUMPI CODESIZE PUSH2 0x2126 JUMP JUMPDEST PUSH1 0x40 MLOAD PUSH3 0x461BCD PUSH1 0xE5 SHL DUP2 MSTORE PUSH1 0x20 PUSH1 0x4 DUP3 ADD MSTORE PUSH1 0x22 PUSH1 0x24 DUP3 ADD MSTORE PUSH32 0x4F7074696F6E73436F72653A207072656D69756D207261746520746F6F206869 PUSH1 0x44 DUP3 ADD MSTORE PUSH2 0xCED PUSH1 0xF3 SHL PUSH1 0x64 DUP3 ADD MSTORE PUSH1 0x84 SWAP1 REVERT JUMPDEST PUSH1 0x40 MLOAD PUSH3 0x461BCD PUSH1 0xE5 SHL DUP2 MSTORE PUSH1 0x20 PUSH1 0x4 DUP3 ADD MSTORE PUSH1 0x27 PUSH1 0x24 DUP3 ADD MSTORE PUSH32 0x4F7074696F6E73436F72653A206F72646572206E6F7420616363657074696E67 PUSH1 0x44 DUP3 ADD MSTORE PUSH7 0x2071756F746573 PUSH1 0xC8 SHL PUSH1 0x64 DUP3 ADD MSTORE PUSH1 0x84 SWAP1 REVERT JUMPDEST PUSH1 0x1 SWAP2 POP EQ CODESIZE PUSH2 0x20EF JUMP JUMPDEST POP PUSH1 0x5 SLOAD PUSH1 0x4 CALLDATALOAD LT PUSH2 0x20A9 JUMP JUMPDEST POP PUSH1 0x40 CALLDATASIZE PUSH1 0x3 NOT ADD SLT PUSH2 0x2C1 JUMPI PUSH1 0x24 CALLDATALOAD PUSH1 0x4 CALLDATALOAD PUSH1 0x3 DUP3 LT ISZERO PUSH2 0x2BD JUMPI DUP1 ISZERO ISZERO DUP1 PUSH2 0x2690 JUMPI JUMPDEST PUSH2 0x249B SWAP1 PUSH2 0x47DF JUMP JUMPDEST DUP1 DUP4 MSTORE PUSH1 0x7 PUSH1 0x20 MSTORE PUSH2 0x24BD PUSH1 0x1 DUP1 PUSH1 0xA0 SHL SUB PUSH1 0x1 PUSH1 0x40 DUP7 KECCAK256 ADD SLOAD AND CALLER EQ PUSH2 0x4720 JUMP JUMPDEST PUSH2 0x24C5 PUSH2 0x46FD JUMP JUMPDEST PUSH2 0x24CD PUSH2 0x46DF JUMP JUMPDEST DUP1 DUP4 MSTORE PUSH1 0x7 PUSH1 0x20 MSTORE PUSH1 0x40 DUP4 KECCAK256 PUSH1 0x15 DUP2 ADD SWAP3 DUP4 SLOAD SWAP4 PUSH1 0xFF DUP6 PUSH1 0x10 SHR AND SWAP1 PUSH1 0xB DUP3 LT ISZERO PUSH2 0x449 JUMPI PUSH1 0x2 DUP3 SUB PUSH2 0x25F2 JUMPI PUSH1 0x0 DUP1 MLOAD PUSH1 0x20 PUSH2 0x499E DUP4 CODECOPY DUP2 MLOAD SWAP2 MSTORE PUSH1 0xC0 PUSH1 0x0 DUP1 MLOAD PUSH1 0x20 PUSH2 0x495E DUP4 CODECOPY DUP2 MLOAD SWAP2 MSTORE SWAP6 SWAP5 SWAP4 DUP8 SWAP4 PUSH3 0x30000 DUP12 SWAP11 PUSH3 0xFF0000 NOT AND OR SWAP1 SSTORE PUSH2 0x253B PUSH1 0x40 MLOAD DUP1 SWAP3 PUSH2 0x4337 JUMP JUMPDEST PUSH1 0x3 PUSH1 0x20 DUP3 ADD MSTORE PUSH1 0x80 PUSH1 0x40 DUP3 ADD MSTORE PUSH1 0x16 PUSH1 0x80 DUP3 ADD MSTORE PUSH22 0x1A5B9A5D1A585B0819995959081C995C5D595CDD1959 PUSH1 0x52 SHL PUSH1 0xA0 DUP3 ADD MSTORE TIMESTAMP PUSH1 0x60 DUP3 ADD MSTORE LOG2 JUMPDEST PUSH1 0x9 DUP3 ADD SLOAD SWAP1 PUSH2 0x25BD PUSH1 0x40 MLOAD SWAP4 PUSH1 0xE0 DUP6 MSTORE PUSH1 0x6 PUSH2 0x25AE PUSH2 0x259D PUSH1 0xE0 DUP9 ADD PUSH1 0x4 DUP6 ADD PUSH2 0x41D3 JUMP JUMPDEST DUP8 DUP2 SUB PUSH1 0x20 DUP10 ADD MSTORE PUSH1 0x5 DUP5 ADD PUSH2 0x41D3 JUMP JUMPDEST SWAP2 DUP7 DUP4 SUB PUSH1 0x40 DUP9 ADD MSTORE ADD PUSH2 0x41D3 JUMP JUMPDEST SWAP6 PUSH2 0x25C7 DUP2 PUSH2 0x4104 JUMP JUMPDEST PUSH1 0x60 DUP5 ADD MSTORE PUSH2 0x25D5 DUP2 PUSH2 0x40E4 JUMP JUMPDEST PUSH1 0x80 DUP4 ADD MSTORE PUSH1 0xA0 DUP3 ADD MSTORE TIMESTAMP PUSH1 0xC0 DUP3 ADD MSTORE DUP1 CALLER SWAP5 SUB SWAP1 LOG3 PUSH1 0x1 DUP1 SSTORE DUP1 RETURN JUMPDEST POP SWAP1 SWAP4 POP PUSH1 0x5 DUP2 SUB PUSH2 0x2617 JUMPI POP PUSH1 0x0 DUP1 MLOAD PUSH1 0x20 PUSH2 0x495E DUP4 CODECOPY DUP2 MLOAD SWAP2 MSTORE SWAP1 PUSH1 0x2 SWAP4 PUSH2 0x2577 JUMP JUMPDEST PUSH1 0x4 SUB PUSH2 0x2636 JUMPI PUSH1 0x0 DUP1 MLOAD PUSH1 0x20 PUSH2 0x495E DUP4 CODECOPY DUP2 MLOAD SWAP2 MSTORE SWAP1 PUSH1 0x1 SWAP4 PUSH2 0x2577 JUMP JUMPDEST PUSH1 0x40 MLOAD PUSH3 0x461BCD PUSH1 0xE5 SHL DUP2 MSTORE PUSH1 0x20 PUSH1 0x4 DUP3 ADD MSTORE PUSH1 0x2C PUSH1 0x24 DUP3 ADD MSTORE PUSH32 0x4F7074696F6E73436F72653A20696E76616C69642073746174757320666F7220 PUSH1 0x44 DUP3 ADD MSTORE PUSH12 0x19995959081C995C5D595CDD PUSH1 0xA2 SHL PUSH1 0x64 DUP3 ADD MSTORE PUSH1 0x84 SWAP1 REVERT JUMPDEST POP PUSH1 0x5 SLOAD DUP2 LT PUSH2 0x2492 JUMP JUMPDEST POP CALLVALUE PUSH2 0x2C1 JUMPI PUSH1 0x20 DUP1 PUSH1 0x3 NOT CALLDATASIZE ADD SLT PUSH2 0x343 JUMPI PUSH1 0x4 CALLDATALOAD SWAP1 DUP2 ISZERO ISZERO DUP1 PUSH2 0x2A08 JUMPI JUMPDEST PUSH2 0x26C4 SWAP1 PUSH2 0x47DF JUMP JUMPDEST PUSH2 0x26CC PUSH2 0x46FD JUMP JUMPDEST PUSH2 0x26D4 PUSH2 0x46DF JUMP JUMPDEST DUP2 DUP4 MSTORE PUSH1 0x7 DUP2 MSTORE PUSH1 0x40 DUP4 KECCAK256 PUSH1 0x15 DUP2 ADD SWAP2 DUP3 SLOAD SWAP4 PUSH1 0xFF DUP6 PUSH1 0x10 SHR AND SWAP3 PUSH1 0xB DUP5 LT ISZERO PUSH2 0x449 JUMPI DUP4 PUSH2 0x29C5 JUMPI PUSH1 0x2 DUP2 ADD DUP1 SLOAD PUSH1 0x1 PUSH1 0x1 PUSH1 0xA0 SHL SUB SWAP7 SWAP2 SWAP4 SWAP2 SWAP1 DUP8 AND DUP1 ISZERO PUSH2 0x2980 JUMPI CALLER EQ PUSH2 0x292F JUMPI PUSH1 0x1 DUP4 ADD DUP1 SLOAD PUSH1 0x1 PUSH1 0x1 PUSH1 0xA0 SHL SUB NOT AND CALLER OR DUP2 SSTORE PUSH3 0xFF0000 NOT SWAP1 SWAP9 AND PUSH3 0x20000 OR SWAP1 SSTORE TIMESTAMP PUSH1 0x17 DUP4 ADD SSTORE PUSH1 0x9 DUP3 ADD SLOAD PUSH1 0x2 SLOAD PUSH1 0x40 MLOAD PUSH4 0x1C03BE35 PUSH1 0xE3 SHL DUP2 MSTORE DUP11 SWAP3 SWAP1 SWAP2 DUP8 SWAP1 DUP4 SWAP1 PUSH1 0x4 SWAP1 DUP3 SWAP1 PUSH1 0x8 SHR DUP14 AND GAS STATICCALL SWAP2 DUP3 ISZERO PUSH2 0x28EC JUMPI DUP4 SWAP3 PUSH2 0x28FB JUMPI JUMPDEST POP PUSH2 0x2710 SWAP2 PUSH2 0x278C SWAP2 PUSH2 0x4765 JUMP JUMPDEST DIV DUP8 PUSH1 0x3 SLOAD AND DUP9 PUSH1 0x4 SLOAD AND PUSH1 0xD DUP7 ADD SLOAD DUP3 EXTCODESIZE ISZERO PUSH2 0x28F7 JUMPI PUSH2 0x27C7 SWAP3 DUP6 SWAP3 DUP4 PUSH1 0x40 MLOAD DUP1 SWAP7 DUP2 SWAP6 DUP3 SWAP5 PUSH4 0xAC94D93 PUSH1 0xE3 SHL DUP5 MSTORE CALLER PUSH1 0x4 DUP6 ADD PUSH2 0x4778 JUMP JUMPDEST SUB SWAP3 GAS CALL SWAP1 DUP2 ISZERO PUSH2 0x28EC JUMPI DUP4 SWAP2 PUSH2 0x28D8 JUMPI JUMPDEST POP POP DUP8 PUSH1 0x3 SLOAD AND SWAP1 DUP9 PUSH1 0x4 SLOAD AND SWAP1 DUP3 EXTCODESIZE ISZERO PUSH2 0x1EDA JUMPI PUSH2 0x2812 SWAP3 DUP5 SWAP3 DUP4 PUSH1 0x40 MLOAD DUP1 SWAP7 DUP2 SWAP6 DUP3 SWAP5 PUSH4 0xEC185A07 PUSH1 0xE0 SHL DUP5 MSTORE CALLER PUSH1 0x4 DUP6 ADD PUSH2 0x479A JUMP JUMPDEST SUB SWAP3 GAS CALL DUP1 ISZERO PUSH2 0x2353 JUMPI PUSH2 0x28BA JUMPI JUMPDEST POP POP SWAP2 DUP6 PUSH1 0x0 DUP1 MLOAD PUSH1 0x20 PUSH2 0x499E DUP4 CODECOPY DUP2 MLOAD SWAP2 MSTORE SWAP7 PUSH1 0xC0 SWAP7 SWAP6 SWAP4 PUSH2 0x2850 PUSH1 0x2 SWAP7 CALLER DUP14 MSTORE PUSH1 0xA DUP8 MSTORE PUSH1 0x40 DUP14 KECCAK256 PUSH2 0x46AA JUMP JUMPDEST SLOAD SWAP9 SLOAD AND SWAP2 SLOAD AND SWAP1 DUP8 PUSH1 0x0 DUP1 MLOAD PUSH1 0x20 PUSH2 0x49DE DUP4 CODECOPY DUP2 MLOAD SWAP2 MSTORE DUP5 PUSH1 0x40 MLOAD TIMESTAMP DUP2 MSTORE LOG4 PUSH2 0x287D PUSH1 0x40 MLOAD DUP1 SWAP5 PUSH2 0x4337 JUMP JUMPDEST DUP3 ADD MSTORE PUSH1 0x80 PUSH1 0x40 DUP3 ADD MSTORE PUSH1 0x15 PUSH1 0x80 DUP3 ADD MSTORE PUSH21 0x1CD95B1B195C881BDC99195C881858D8D95C1D1959 PUSH1 0x5A SHL PUSH1 0xA0 DUP3 ADD MSTORE TIMESTAMP PUSH1 0x60 DUP3 ADD MSTORE LOG2 PUSH1 0x1 DUP1 SSTORE DUP1 RETURN JUMPDEST PUSH2 0x28C9 SWAP1 SWAP7 SWAP6 SWAP4 SWAP5 SWAP3 SWAP7 PUSH2 0x4269 JUMP JUMPDEST PUSH2 0x1ED6 JUMPI SWAP2 SWAP1 SWAP3 SWAP4 DUP8 CODESIZE PUSH2 0x2821 JUMP JUMPDEST PUSH2 0x28E1 SWAP1 PUSH2 0x4269 JUMP JUMPDEST PUSH2 0x343 JUMPI DUP2 CODESIZE PUSH2 0x27D9 JUMP JUMPDEST PUSH1 0x40 MLOAD RETURNDATASIZE DUP6 DUP3 RETURNDATACOPY RETURNDATASIZE SWAP1 REVERT JUMPDEST DUP5 DUP1 REVERT JUMPDEST SWAP3 POP SWAP1 POP DUP6 DUP3 DUP2 RETURNDATASIZE DUP2 GT PUSH2 0x2928 JUMPI JUMPDEST PUSH2 0x2914 DUP2 DUP4 PUSH2 0x42CA JUMP JUMPDEST DUP2 ADD SUB SLT PUSH2 0x1EBA JUMPI SWAP1 MLOAD DUP10 SWAP2 PUSH2 0x278C PUSH2 0x277E JUMP JUMPDEST POP RETURNDATASIZE PUSH2 0x290A JUMP JUMPDEST PUSH1 0x40 MLOAD PUSH3 0x461BCD PUSH1 0xE5 SHL DUP2 MSTORE PUSH1 0x4 DUP2 ADD DUP7 SWAP1 MSTORE PUSH1 0x24 DUP1 DUP3 ADD MSTORE PUSH32 0x4F7074696F6E73436F72653A2063616E6E6F7420616363657074206F776E206F PUSH1 0x44 DUP3 ADD MSTORE PUSH4 0x393232B9 PUSH1 0xE1 SHL PUSH1 0x64 DUP3 ADD MSTORE PUSH1 0x84 SWAP1 REVERT JUMPDEST PUSH1 0x40 MLOAD PUSH3 0x461BCD PUSH1 0xE5 SHL DUP2 MSTORE PUSH1 0x4 DUP2 ADD DUP8 SWAP1 MSTORE PUSH1 0x1F PUSH1 0x24 DUP3 ADD MSTORE PUSH32 0x4F7074696F6E73436F72653A206E6F7420612073656C6C6572206F7264657200 PUSH1 0x44 DUP3 ADD MSTORE PUSH1 0x64 SWAP1 REVERT JUMPDEST PUSH1 0x64 DUP4 PUSH1 0x40 MLOAD SWAP1 PUSH3 0x461BCD PUSH1 0xE5 SHL DUP3 MSTORE DUP1 PUSH1 0x4 DUP4 ADD MSTORE PUSH1 0x24 DUP3 ADD MSTORE PUSH32 0x4F7074696F6E73436F72653A206F72646572206E6F7420617661696C61626C65 PUSH1 0x44 DUP3 ADD MSTORE REVERT JUMPDEST POP PUSH1 0x5 SLOAD DUP3 LT PUSH2 0x26BB JUMP JUMPDEST POP CALLVALUE PUSH2 0x2C1 JUMPI PUSH2 0x2A22 CALLDATASIZE PUSH2 0x4039 JUMP JUMPDEST SWAP1 DUP1 ISZERO ISZERO DUP1 PUSH2 0x2A4F JUMPI JUMPDEST PUSH2 0x2A35 SWAP1 PUSH2 0x47DF JUMP JUMPDEST PUSH2 0x2A3D PUSH2 0x4360 JUMP JUMPDEST DUP3 MSTORE PUSH1 0x7 PUSH1 0x20 MSTORE PUSH1 0x19 PUSH1 0x40 DUP4 KECCAK256 ADD SSTORE DUP1 RETURN JUMPDEST POP PUSH1 0x5 SLOAD DUP2 LT PUSH2 0x2A2C JUMP JUMPDEST POP CALLVALUE PUSH2 0x2C1 JUMPI PUSH1 0x20 DUP1 PUSH1 0x3 NOT CALLDATASIZE ADD SLT PUSH2 0x343 JUMPI PUSH1 0x4 CALLDATALOAD SWAP1 PUSH2 0x2A79 PUSH2 0x46FD JUMP JUMPDEST PUSH2 0x2A81 PUSH2 0x46DF JUMP JUMPDEST DUP2 DUP4 MSTORE PUSH1 0x9 DUP2 MSTORE PUSH1 0x40 DUP4 KECCAK256 PUSH1 0xFF SWAP1 PUSH1 0xA SWAP3 DUP3 DUP5 DUP4 ADD SLOAD AND PUSH2 0x2AA1 DUP2 PUSH2 0x4104 JUMP JUMPDEST PUSH2 0x2E06 JUMPI PUSH1 0x9 DUP3 ADD SLOAD TIMESTAMP GT PUSH2 0x2DC5 JUMPI PUSH1 0x1 SWAP5 DUP6 DUP4 ADD SLOAD DUP8 MSTORE PUSH1 0x7 DUP3 MSTORE PUSH1 0x40 DUP8 KECCAK256 SWAP5 DUP7 DUP7 ADD SWAP6 PUSH1 0x1 DUP1 PUSH1 0xA0 SHL SUB SWAP1 PUSH2 0x2ADC DUP3 DUP10 SLOAD AND CALLER EQ PUSH2 0x4720 JUMP JUMPDEST PUSH1 0x15 DUP2 ADD SWAP4 DUP5 SLOAD SWAP5 PUSH3 0x20000 PUSH3 0xFF0000 NOT DUP8 AND OR SWAP1 SSTORE PUSH1 0x2 SWAP7 DUP8 DUP2 ADD SWAP5 DUP13 DUP6 DUP8 SLOAD AND SWAP7 DUP11 DUP7 ADD SWAP8 PUSH1 0x1 DUP1 PUSH1 0xA0 SHL SUB NOT DUP10 SLOAD AND OR DUP9 SSTORE PUSH2 0x2B62 PUSH1 0x7 PUSH1 0x4 DUP7 ADD SWAP6 DUP7 SLOAD PUSH1 0xD DUP11 ADD SSTORE PUSH1 0x6 DUP2 ADD SLOAD DUP1 PUSH1 0xE DUP12 ADD SSTORE PUSH1 0xF DUP11 ADD SSTORE ADD DUP14 DUP1 DUP3 SLOAD AND SWAP2 PUSH2 0x2B47 PUSH1 0x12 DUP12 ADD SWAP4 DUP5 PUSH2 0x4653 JUMP JUMPDEST PUSH2 0x2B57 DUP3 DUP3 SLOAD PUSH1 0x8 SHR AND DUP5 PUSH2 0x465D JUMP JUMPDEST SLOAD PUSH1 0x10 SHR AND SWAP1 PUSH2 0x4673 JUMP JUMPDEST TIMESTAMP PUSH1 0x17 DUP8 ADD SSTORE PUSH1 0x4 DUP12 DUP12 DUP10 PUSH1 0x9 DUP11 ADD SLOAD SWAP3 SLOAD PUSH1 0x8 SHR AND PUSH1 0x40 MLOAD SWAP4 DUP5 DUP1 SWAP3 PUSH4 0x1C03BE35 PUSH1 0xE3 SHL DUP3 MSTORE GAS STATICCALL SWAP2 DUP3 ISZERO PUSH2 0x1E7F JUMPI DUP5 SWAP3 PUSH2 0x2D91 JUMPI JUMPDEST POP PUSH2 0x2710 SWAP2 PUSH2 0x2BA7 SWAP2 PUSH2 0x4765 JUMP JUMPDEST DIV SWAP4 DUP8 PUSH1 0x3 SLOAD AND SWAP1 DUP9 PUSH1 0x4 SLOAD AND SWAP1 SLOAD DUP3 EXTCODESIZE ISZERO PUSH2 0x28F7 JUMPI PUSH2 0x2BE1 SWAP3 DUP6 SWAP3 DUP4 PUSH1 0x40 MLOAD DUP1 SWAP7 DUP2 SWAP6 DUP3 SWAP5 PUSH4 0xAC94D93 PUSH1 0xE3 SHL DUP5 MSTORE CALLER PUSH1 0x4 DUP6 ADD PUSH2 0x4778 JUMP JUMPDEST SUB SWAP3 GAS CALL SWAP1 DUP2 ISZERO PUSH2 0x28EC JUMPI DUP4 SWAP2 PUSH2 0x2D7D JUMPI JUMPDEST POP POP DUP7 PUSH1 0x3 SLOAD AND SWAP4 DUP8 PUSH1 0x4 SLOAD AND SWAP1 DUP6 EXTCODESIZE ISZERO PUSH2 0x1EDA JUMPI PUSH2 0x2C2C SWAP6 DUP5 SWAP3 DUP4 PUSH1 0x40 MLOAD DUP1 SWAP10 DUP2 SWAP6 DUP3 SWAP5 PUSH4 0xEC185A07 PUSH1 0xE0 SHL DUP5 MSTORE CALLER PUSH1 0x4 DUP6 ADD PUSH2 0x479A JUMP JUMPDEST SUB SWAP3 GAS CALL SWAP1 DUP2 ISZERO PUSH2 0x2353 JUMPI DUP15 SWAP5 DUP9 SWAP3 PUSH2 0x2D62 JUMPI JUMPDEST POP SLOAD AND DUP2 MSTORE PUSH1 0xB DUP10 MSTORE PUSH1 0x40 SWAP1 KECCAK256 DUP5 SLOAD PUSH2 0x2C58 SWAP2 PUSH2 0x46AA JUMP JUMPDEST DUP4 SLOAD DUP14 MSTORE PUSH1 0x8 DUP9 MSTORE PUSH1 0x40 DUP14 KECCAK256 DUP14 DUP4 JUMPDEST PUSH2 0x2CF0 JUMPI JUMPDEST POP POP POP POP POP SWAP3 PUSH1 0x0 DUP1 MLOAD PUSH1 0x20 PUSH2 0x499E DUP4 CODECOPY DUP2 MLOAD SWAP2 MSTORE SWAP7 SWAP5 SWAP3 DUP3 PUSH2 0x2CBC SWAP4 PUSH1 0xC0 SWAP9 SWAP7 SLOAD SWAP11 SLOAD AND SWAP2 SLOAD AND SWAP1 DUP10 PUSH1 0x0 DUP1 MLOAD PUSH1 0x20 PUSH2 0x49DE DUP4 CODECOPY DUP2 MLOAD SWAP2 MSTORE DUP7 PUSH1 0x40 MLOAD TIMESTAMP DUP2 MSTORE LOG4 PUSH1 0x40 MLOAD SWAP5 DUP6 SWAP2 PUSH1 0x10 SHR AND PUSH2 0x4337 JUMP JUMPDEST DUP3 ADD MSTORE PUSH1 0x80 PUSH1 0x40 DUP3 ADD MSTORE PUSH1 0xE PUSH1 0x80 DUP3 ADD MSTORE PUSH14 0x1C5D5BDD19481858D8D95C1D1959 PUSH1 0x92 SHL PUSH1 0xA0 DUP3 ADD MSTORE TIMESTAMP PUSH1 0x60 DUP3 ADD MSTORE LOG2 DUP1 SSTORE DUP1 RETURN JUMPDEST DUP2 SLOAD DUP2 LT ISZERO PUSH2 0x2D5D JUMPI DUP1 DUP6 PUSH2 0x2D08 PUSH2 0x2D1B SWAP4 DUP6 PUSH2 0x4344 JUMP JUMPDEST POP SLOAD EQ ISZERO DUP1 PUSH2 0x2D3D JUMPI JUMPDEST PUSH2 0x2D21 JUMPI PUSH2 0x4616 JUMP JUMPDEST DUP4 PUSH2 0x2C67 JUMP JUMPDEST DUP4 PUSH2 0x2D2C DUP3 DUP6 PUSH2 0x4344 JUMP JUMPDEST POP ADD DUP1 SLOAD PUSH1 0xFF NOT AND DUP14 OR SWAP1 SSTORE PUSH2 0x4616 JUMP JUMPDEST POP DUP13 DUP5 PUSH2 0x2D4A DUP4 DUP7 PUSH2 0x4344 JUMP JUMPDEST POP ADD SLOAD AND PUSH2 0x2D57 DUP2 PUSH2 0x4104 JUMP JUMPDEST ISZERO PUSH2 0x2D12 JUMP JUMPDEST PUSH2 0x2C6C JUMP JUMPDEST PUSH2 0x2D70 SWAP2 SWAP6 POP DUP4 SWAP3 POP PUSH2 0x4269 JUMP JUMPDEST PUSH2 0x2C1 JUMPI DUP6 DUP14 SWAP4 CODESIZE PUSH2 0x2C40 JUMP JUMPDEST PUSH2 0x2D86 SWAP1 PUSH2 0x4269 JUMP JUMPDEST PUSH2 0x343 JUMPI DUP2 CODESIZE PUSH2 0x2BF3 JUMP JUMPDEST SWAP4 POP SWAP1 POP DUP11 DUP4 DUP2 RETURNDATASIZE DUP2 GT PUSH2 0x2DBE JUMPI JUMPDEST PUSH2 0x2DAA DUP2 DUP4 PUSH2 0x42CA JUMP JUMPDEST DUP2 ADD SUB SLT PUSH2 0x1EBA JUMPI SWAP2 MLOAD DUP16 SWAP3 PUSH2 0x2BA7 PUSH2 0x2B99 JUMP JUMPDEST POP RETURNDATASIZE PUSH2 0x2DA0 JUMP JUMPDEST PUSH1 0x64 SWAP1 PUSH1 0x40 MLOAD SWAP1 PUSH3 0x461BCD PUSH1 0xE5 SHL DUP3 MSTORE PUSH1 0x4 DUP3 ADD MSTORE PUSH1 0x1A PUSH1 0x24 DUP3 ADD MSTORE PUSH26 0x13DC1D1A5BDB9CD0DBDC994E881C5D5BDD1948195E1C1A5C9959 PUSH1 0x32 SHL PUSH1 0x44 DUP3 ADD MSTORE REVERT JUMPDEST PUSH1 0x64 SWAP1 PUSH1 0x40 MLOAD SWAP1 PUSH3 0x461BCD PUSH1 0xE5 SHL DUP3 MSTORE PUSH1 0x4 DUP3 ADD MSTORE PUSH1 0x1D PUSH1 0x24 DUP3 ADD MSTORE PUSH32 0x4F7074696F6E73436F72653A2071756F7465206E6F7420616374697665000000 PUSH1 0x44 DUP3 ADD MSTORE REVERT JUMPDEST POP CALLVALUE PUSH2 0x2C1 JUMPI DUP1 PUSH1 0x3 NOT CALLDATASIZE ADD SLT PUSH2 0x2C1 JUMPI PUSH1 0x20 PUSH1 0xFF PUSH1 0x2 SLOAD AND PUSH1 0x40 MLOAD SWAP1 ISZERO ISZERO DUP2 MSTORE RETURN JUMPDEST POP CALLVALUE PUSH2 0x2C1 JUMPI DUP1 PUSH1 0x3 NOT CALLDATASIZE ADD SLT PUSH2 0x2C1 JUMPI PUSH1 0x20 PUSH1 0x6 SLOAD PUSH1 0x40 MLOAD SWAP1 DUP2 MSTORE RETURN JUMPDEST POP CALLVALUE PUSH2 0x2C1 JUMPI PUSH1 0x40 CALLDATASIZE PUSH1 0x3 NOT ADD SLT PUSH2 0x2C1 JUMPI PUSH2 0x2EA5 PUSH2 0x404F JUMP JUMPDEST PUSH1 0x1 PUSH1 0x1 PUSH1 0xA0 SHL SUB AND DUP2 MSTORE PUSH1 0xB PUSH1 0x20 MSTORE PUSH1 0x40 DUP2 KECCAK256 DUP1 SLOAD PUSH1 0x24 CALLDATALOAD SWAP3 SWAP1 DUP4 LT ISZERO PUSH2 0x2C1 JUMPI PUSH1 0x20 PUSH2 0x2ED3 DUP5 DUP5 PUSH2 0x407B JUMP JUMPDEST SWAP1 SLOAD PUSH1 0x40 MLOAD SWAP2 PUSH1 0x3 SHL SHR DUP2 MSTORE RETURN JUMPDEST POP CALLVALUE PUSH2 0x2C1 JUMPI PUSH1 0x40 CALLDATASIZE PUSH1 0x3 NOT ADD SLT PUSH2 0x2C1 JUMPI PUSH2 0x2EFB PUSH2 0x404F JUMP JUMPDEST PUSH1 0x1 PUSH1 0x1 PUSH1 0xA0 SHL SUB AND DUP2 MSTORE PUSH1 0xA PUSH1 0x20 MSTORE PUSH1 0x40 DUP2 KECCAK256 DUP1 SLOAD PUSH1 0x24 CALLDATALOAD SWAP3 SWAP1 DUP4 LT ISZERO PUSH2 0x2C1 JUMPI PUSH1 0x20 PUSH2 0x2ED3 DUP5 DUP5 PUSH2 0x407B JUMP JUMPDEST POP CALLVALUE PUSH2 0x2C1 JUMPI PUSH2 0x2F38 CALLDATASIZE PUSH2 0x4039 JUMP JUMPDEST SWAP1 DUP1 ISZERO ISZERO DUP1 PUSH2 0x2F65 JUMPI JUMPDEST PUSH2 0x2F4B SWAP1 PUSH2 0x47DF JUMP JUMPDEST PUSH2 0x2F53 PUSH2 0x4360 JUMP JUMPDEST DUP3 MSTORE PUSH1 0x7 PUSH1 0x20 MSTORE PUSH1 0x1A PUSH1 0x40 DUP4 KECCAK256 ADD SSTORE DUP1 RETURN JUMPDEST POP PUSH1 0x5 SLOAD DUP2 LT PUSH2 0x2F42 JUMP JUMPDEST POP CALLVALUE PUSH2 0x2C1 JUMPI PUSH2 0x2F7F CALLDATASIZE PUSH2 0x4039 JUMP JUMPDEST DUP2 ISZERO ISZERO DUP1 PUSH2 0x3080 JUMPI JUMPDEST PUSH2 0x2F91 SWAP1 PUSH2 0x47DF JUMP JUMPDEST PUSH2 0x2F99 PUSH2 0x43C8 JUMP JUMPDEST DUP2 DUP4 MSTORE PUSH1 0x7 PUSH1 0x20 MSTORE PUSH1 0x40 DUP4 KECCAK256 SWAP1 PUSH1 0x15 DUP3 ADD SWAP2 DUP3 SLOAD SWAP3 PUSH1 0xFF DUP5 PUSH1 0x10 SHR AND SWAP2 PUSH1 0xB DUP4 LT ISZERO PUSH2 0x449 JUMPI PUSH1 0x4 DUP4 EQ DUP1 ISZERO PUSH2 0x3076 JUMPI JUMPDEST ISZERO PUSH2 0x3033 JUMPI PUSH1 0x0 DUP1 MLOAD PUSH1 0x20 PUSH2 0x499E DUP4 CODECOPY DUP2 MLOAD SWAP2 MSTORE SWAP5 PUSH1 0xC0 SWAP5 PUSH1 0x19 PUSH3 0x60000 SWAP4 ADD SSTORE PUSH3 0xFF0000 NOT AND OR SWAP1 SSTORE PUSH2 0x3001 PUSH1 0x40 MLOAD DUP1 SWAP3 PUSH2 0x4337 JUMP JUMPDEST PUSH1 0x6 PUSH1 0x20 DUP3 ADD MSTORE PUSH1 0x80 PUSH1 0x40 DUP3 ADD MSTORE PUSH1 0xA PUSH1 0x80 DUP3 ADD MSTORE PUSH10 0x199A5B985B0819995959 PUSH1 0xB2 SHL PUSH1 0xA0 DUP3 ADD MSTORE TIMESTAMP PUSH1 0x60 DUP3 ADD MSTORE LOG2 DUP1 RETURN JUMPDEST PUSH1 0x40 MLOAD PUSH3 0x461BCD PUSH1 0xE5 SHL DUP2 MSTORE PUSH1 0x20 PUSH1 0x4 DUP3 ADD MSTORE PUSH1 0x1B PUSH1 0x24 DUP3 ADD MSTORE PUSH27 0x4F7074696F6E73436F72653A20696E76616C696420737461747573 PUSH1 0x28 SHL PUSH1 0x44 DUP3 ADD MSTORE PUSH1 0x64 SWAP1 REVERT JUMPDEST POP PUSH1 0x5 DUP4 EQ PUSH2 0x2FCA JUMP JUMPDEST POP PUSH1 0x5 SLOAD DUP3 LT PUSH2 0x2F88 JUMP JUMPDEST POP CALLVALUE PUSH2 0x2C1 JUMPI DUP1 PUSH1 0x3 NOT CALLDATASIZE ADD SLT PUSH2 0x2C1 JUMPI PUSH2 0x30A4 PUSH2 0x43C8 JUMP JUMPDEST PUSH1 0x2 SLOAD PUSH1 0xFF DUP2 AND ISZERO PUSH2 0x30E4 JUMPI PUSH1 0xFF NOT AND PUSH1 0x2 SSTORE PUSH32 0x5DB9EE0A495BF2E6FF9C91A7834C1BA4FDD244A5E8AA4E537BD38AEAE4B073AA PUSH1 0x20 PUSH1 0x40 MLOAD CALLER DUP2 MSTORE LOG1 DUP1 RETURN JUMPDEST PUSH1 0x40 MLOAD PUSH4 0x8DFC202B PUSH1 0xE0 SHL DUP2 MSTORE PUSH1 0x4 SWAP1 REVERT JUMPDEST POP CALLVALUE PUSH2 0x2C1 JUMPI PUSH1 0x40 CALLDATASIZE PUSH1 0x3 NOT ADD SLT PUSH2 0x2C1 JUMPI PUSH2 0x3110 PUSH2 0x4065 JUMP JUMPDEST CALLER PUSH1 0x1 PUSH1 0x1 PUSH1 0xA0 SHL SUB DUP3 AND SUB PUSH2 0x312C JUMPI PUSH2 0x4A5 SWAP1 PUSH1 0x4 CALLDATALOAD PUSH2 0x44A6 JUMP JUMPDEST PUSH1 0x40 MLOAD PUSH4 0x334BD919 PUSH1 0xE1 SHL DUP2 MSTORE PUSH1 0x4 SWAP1 REVERT JUMPDEST POP CALLVALUE PUSH2 0x2C1 JUMPI PUSH1 0x60 CALLDATASIZE PUSH1 0x3 NOT ADD SLT PUSH2 0x2C1 JUMPI PUSH1 0x4 CALLDATALOAD PUSH1 0x24 DUP1 CALLDATALOAD PUSH1 0x4 DUP2 LT ISZERO PUSH2 0x1EDA JUMPI PUSH1 0x44 CALLDATALOAD SWAP1 DUP4 ISZERO ISZERO DUP1 PUSH2 0x3462 JUMPI JUMPDEST PUSH2 0x3176 SWAP1 PUSH2 0x47DF JUMP JUMPDEST CALLER PUSH1 0x0 SWAP1 DUP2 MSTORE PUSH32 0x3F8D9A030D334798D6AECE9C5BCC7646B3F51F8740E76F47846D18CC4A1A8E4E PUSH1 0x20 SWAP1 DUP2 MSTORE PUSH1 0x40 SWAP1 SWAP2 KECCAK256 SLOAD SWAP1 SWAP3 SWAP1 PUSH1 0x0 DUP1 MLOAD PUSH1 0x20 PUSH2 0x497E DUP4 CODECOPY DUP2 MLOAD SWAP2 MSTORE SWAP1 PUSH1 0xFF AND ISZERO PUSH2 0x3445 JUMPI POP DUP5 DUP7 MSTORE PUSH1 0x7 DUP4 MSTORE PUSH1 0x40 DUP7 KECCAK256 SWAP2 DUP2 ISZERO PUSH2 0x3404 JUMPI PUSH2 0x31DF DUP2 PUSH2 0x4104 JUMP JUMPDEST DUP1 PUSH2 0x32EC JUMPI POP SWAP1 PUSH1 0x15 DUP2 ADD SWAP2 DUP3 SLOAD SWAP2 PUSH1 0xFF DUP4 PUSH1 0x10 SHR AND SWAP6 PUSH1 0xB DUP8 LT ISZERO PUSH2 0x32DA JUMPI PUSH1 0x2 DUP8 EQ DUP1 ISZERO PUSH2 0x32D0 JUMPI JUMPDEST ISZERO PUSH2 0x327E JUMPI POP PUSH1 0x19 ADD SSTORE PUSH3 0xFF0000 NOT AND PUSH3 0x40000 OR SWAP1 SSTORE PUSH1 0x40 MLOAD PUSH1 0x0 DUP1 MLOAD PUSH1 0x20 PUSH2 0x499E DUP4 CODECOPY DUP2 MLOAD SWAP2 MSTORE SWAP3 PUSH1 0xC0 SWAP3 PUSH1 0x4 SWAP2 PUSH2 0x3245 SWAP1 DUP5 SWAP1 PUSH2 0x4337 JUMP JUMPDEST DUP3 ADD MSTORE PUSH1 0x80 PUSH1 0x40 DUP3 ADD MSTORE PUSH1 0x15 PUSH1 0x80 DUP3 ADD MSTORE PUSH21 0x696E697469616C20666565642063616C6C6261636B PUSH1 0x58 SHL PUSH1 0xA0 DUP3 ADD MSTORE TIMESTAMP PUSH1 0x60 DUP3 ADD MSTORE LOG2 DUP1 RETURN JUMPDEST DUP6 PUSH1 0x26 PUSH1 0x84 SWAP3 PUSH1 0x40 MLOAD SWAP3 PUSH3 0x461BCD PUSH1 0xE5 SHL DUP5 MSTORE PUSH1 0x4 DUP5 ADD MSTORE DUP3 ADD MSTORE PUSH32 0x4F7074696F6E73436F72653A206E6F74206177616974696E6720696E69746961 PUSH1 0x44 DUP3 ADD MSTORE PUSH6 0x1B0819995959 PUSH1 0xD2 SHL PUSH1 0x64 DUP3 ADD MSTORE REVERT JUMPDEST POP PUSH1 0x3 DUP8 EQ PUSH2 0x320A JUMP JUMPDEST PUSH4 0x4E487B71 PUSH1 0xE0 SHL DUP10 MSTORE PUSH1 0x21 PUSH1 0x4 MSTORE DUP9 REVERT JUMPDEST DUP1 PUSH2 0x32F8 PUSH1 0x2 SWAP3 PUSH2 0x4104 JUMP JUMPDEST EQ PUSH2 0x3306 JUMPI JUMPDEST POP POP POP POP POP DUP1 RETURN JUMPDEST PUSH1 0x15 DUP3 ADD SWAP1 DUP2 SLOAD SWAP1 PUSH1 0xFF DUP3 PUSH1 0x10 SHR AND SWAP6 PUSH1 0xB DUP8 LT ISZERO PUSH2 0x32DA JUMPI PUSH1 0x4 DUP8 EQ DUP1 ISZERO PUSH2 0x33FA JUMPI JUMPDEST ISZERO PUSH2 0x33AB JUMPI POP PUSH1 0x19 DUP5 ADD SSTORE PUSH3 0xFF0000 NOT AND PUSH3 0x60000 OR SWAP1 SSTORE TIMESTAMP PUSH1 0x18 SWAP1 SWAP2 ADD SSTORE PUSH1 0x40 MLOAD PUSH1 0x0 DUP1 MLOAD PUSH1 0x20 PUSH2 0x499E DUP4 CODECOPY DUP2 MLOAD SWAP2 MSTORE SWAP3 PUSH1 0xC0 SWAP3 PUSH1 0x6 SWAP2 PUSH2 0x336D SWAP1 DUP5 SWAP1 PUSH2 0x4337 JUMP JUMPDEST DUP3 ADD MSTORE PUSH1 0x80 PUSH1 0x40 DUP3 ADD MSTORE PUSH1 0x13 PUSH1 0x80 DUP3 ADD MSTORE PUSH19 0x66696E616C20666565642063616C6C6261636B PUSH1 0x68 SHL PUSH1 0xA0 DUP3 ADD MSTORE TIMESTAMP PUSH1 0x60 DUP3 ADD MSTORE LOG2 CODESIZE DUP1 DUP1 DUP1 DUP1 PUSH2 0x32FE JUMP JUMPDEST DUP6 PUSH1 0x84 SWAP2 PUSH1 0x40 MLOAD SWAP2 PUSH3 0x461BCD PUSH1 0xE5 SHL DUP4 MSTORE PUSH1 0x4 DUP4 ADD MSTORE DUP1 DUP3 ADD MSTORE PUSH32 0x4F7074696F6E73436F72653A206E6F74206177616974696E672066696E616C20 PUSH1 0x44 DUP3 ADD MSTORE PUSH4 0x19995959 PUSH1 0xE2 SHL PUSH1 0x64 DUP3 ADD MSTORE REVERT JUMPDEST POP PUSH1 0x5 DUP8 EQ PUSH2 0x332A JUMP JUMPDEST PUSH1 0x40 MLOAD PUSH3 0x461BCD PUSH1 0xE5 SHL DUP2 MSTORE PUSH1 0x4 DUP2 ADD DUP6 SWAP1 MSTORE PUSH1 0x1A DUP2 DUP8 ADD MSTORE PUSH26 0x4F7074696F6E73436F72653A20696E76616C6964207072696365 PUSH1 0x30 SHL PUSH1 0x44 DUP3 ADD MSTORE PUSH1 0x64 SWAP1 REVERT JUMPDEST DUP5 PUSH1 0x44 SWAP2 PUSH1 0x40 MLOAD SWAP2 PUSH4 0xE2517D3F PUSH1 0xE0 SHL DUP4 MSTORE CALLER PUSH1 0x4 DUP5 ADD MSTORE DUP3 ADD MSTORE REVERT JUMPDEST POP PUSH1 0x5 SLOAD DUP5 LT PUSH2 0x316D JUMP JUMPDEST POP CALLVALUE PUSH2 0x2C1 JUMPI DUP1 PUSH1 0x3 NOT CALLDATASIZE ADD SLT PUSH2 0x2C1 JUMPI PUSH1 0x4 SLOAD PUSH1 0x40 MLOAD PUSH1 0x1 PUSH1 0x1 PUSH1 0xA0 SHL SUB SWAP1 SWAP2 AND DUP2 MSTORE PUSH1 0x20 SWAP1 RETURN JUMPDEST POP CALLVALUE PUSH2 0x2C1 JUMPI PUSH1 0x40 CALLDATASIZE PUSH1 0x3 NOT ADD SLT PUSH2 0x2C1 JUMPI PUSH2 0x4A5 PUSH1 0x4 CALLDATALOAD PUSH2 0x34B6 PUSH2 0x4065 JUMP JUMPDEST SWAP1 DUP1 DUP5 MSTORE DUP4 PUSH1 0x20 MSTORE PUSH2 0x34CE PUSH1 0x1 PUSH1 0x40 DUP7 KECCAK256 ADD SLOAD PUSH2 0x4402 JUMP JUMPDEST PUSH2 0x4428 JUMP JUMPDEST POP CALLVALUE PUSH2 0x2C1 JUMPI DUP1 PUSH1 0x3 NOT CALLDATASIZE ADD SLT PUSH2 0x2C1 JUMPI PUSH1 0x20 PUSH1 0x5 SLOAD PUSH1 0x40 MLOAD SWAP1 DUP2 MSTORE RETURN JUMPDEST POP CALLVALUE PUSH2 0x2C1 JUMPI PUSH1 0x20 CALLDATASIZE PUSH1 0x3 NOT ADD SLT PUSH2 0x2C1 JUMPI PUSH1 0x1 PUSH1 0x40 PUSH1 0x20 SWAP3 PUSH1 0x4 CALLDATALOAD DUP2 MSTORE DUP1 DUP5 MSTORE KECCAK256 ADD SLOAD PUSH1 0x40 MLOAD SWAP1 DUP2 MSTORE RETURN JUMPDEST POP CALLVALUE PUSH2 0x2C1 JUMPI PUSH1 0x20 CALLDATASIZE PUSH1 0x3 NOT ADD SLT PUSH2 0x2C1 JUMPI PUSH2 0x3537 PUSH2 0x404F JUMP JUMPDEST PUSH2 0x353F PUSH2 0x43C8 JUMP JUMPDEST PUSH1 0x2 DUP1 SLOAD PUSH2 0x100 PUSH1 0x1 PUSH1 0xA8 SHL SUB NOT AND PUSH1 0x8 SWAP3 SWAP1 SWAP3 SHL PUSH2 0x100 PUSH1 0x1 PUSH1 0xA8 SHL SUB AND SWAP2 SWAP1 SWAP2 OR SWAP1 SSTORE DUP1 RETURN JUMPDEST POP CALLVALUE PUSH2 0x2C1 JUMPI PUSH2 0x3576 CALLDATASIZE PUSH2 0x4039 JUMP JUMPDEST SWAP1 DUP1 ISZERO ISZERO DUP1 PUSH2 0x35A3 JUMPI JUMPDEST PUSH2 0x3589 SWAP1 PUSH2 0x47DF JUMP JUMPDEST PUSH2 0x3591 PUSH2 0x4360 JUMP JUMPDEST DUP3 MSTORE PUSH1 0x7 PUSH1 0x20 MSTORE PUSH1 0xF PUSH1 0x40 DUP4 KECCAK256 ADD SSTORE DUP1 RETURN JUMPDEST POP PUSH1 0x5 SLOAD DUP2 LT PUSH2 0x3580 JUMP JUMPDEST POP CALLVALUE PUSH2 0x2C1 JUMPI PUSH2 0x35BD CALLDATASIZE PUSH2 0x4039 JUMP JUMPDEST SWAP1 DUP1 ISZERO ISZERO DUP1 PUSH2 0x35EA JUMPI JUMPDEST PUSH2 0x35D0 SWAP1 PUSH2 0x47DF JUMP JUMPDEST PUSH2 0x35D8 PUSH2 0x4360 JUMP JUMPDEST DUP3 MSTORE PUSH1 0x7 PUSH1 0x20 MSTORE PUSH1 0x18 PUSH1 0x40 DUP4 KECCAK256 ADD SSTORE DUP1 RETURN JUMPDEST POP PUSH1 0x5 SLOAD DUP2 LT PUSH2 0x35C7 JUMP JUMPDEST POP CALLVALUE PUSH2 0x2C1 JUMPI PUSH1 0x20 CALLDATASIZE PUSH1 0x3 NOT ADD SLT PUSH2 0x2C1 JUMPI PUSH1 0x4 CALLDATALOAD PUSH4 0xFFFFFFFF PUSH1 0xE0 SHL DUP2 AND DUP1 SWAP2 SUB PUSH2 0x343 JUMPI PUSH1 0x20 SWAP1 PUSH4 0x7965DB0B PUSH1 0xE0 SHL DUP2 EQ SWAP1 DUP2 ISZERO PUSH2 0x363B JUMPI JUMPDEST POP PUSH1 0x40 MLOAD SWAP1 ISZERO ISZERO DUP2 MSTORE RETURN JUMPDEST PUSH4 0x1FFC9A7 PUSH1 0xE0 SHL EQ SWAP1 POP DUP3 PUSH2 0x3630 JUMP JUMPDEST POP CALLVALUE PUSH2 0x2C1 JUMPI PUSH2 0x220 CALLDATASIZE PUSH1 0x3 NOT ADD SLT PUSH2 0x2C1 JUMPI PUSH1 0x4 CALLDATALOAD PUSH1 0x1 PUSH1 0x1 PUSH1 0x40 SHL SUB DUP2 GT PUSH2 0x343 JUMPI PUSH2 0x367E SWAP1 CALLDATASIZE SWAP1 PUSH1 0x4 ADD PUSH2 0x3FFC JUMP JUMPDEST SWAP1 SWAP2 PUSH1 0x24 CALLDATALOAD PUSH1 0x1 PUSH1 0x1 PUSH1 0x40 SHL SUB DUP2 GT PUSH2 0x343 JUMPI PUSH2 0x369F SWAP1 CALLDATASIZE SWAP1 PUSH1 0x4 ADD PUSH2 0x3FFC JUMP JUMPDEST SWAP4 SWAP1 PUSH1 0x44 CALLDATALOAD PUSH1 0x1 PUSH1 0x1 PUSH1 0x40 SHL SUB DUP2 GT PUSH2 0x1EDA JUMPI PUSH2 0x36C0 SWAP1 CALLDATASIZE SWAP1 PUSH1 0x4 ADD PUSH2 0x3FFC JUMP JUMPDEST SWAP1 PUSH1 0x64 CALLDATALOAD PUSH1 0x1 PUSH1 0x1 PUSH1 0x40 SHL SUB DUP2 GT PUSH2 0x1E8A JUMPI PUSH2 0x36E0 SWAP1 CALLDATASIZE SWAP1 PUSH1 0x4 ADD PUSH2 0x3FFC JUMP JUMPDEST SWAP1 SWAP5 PUSH1 0x84 CALLDATALOAD PUSH1 0x1 PUSH1 0x1 PUSH1 0x40 SHL SUB DUP2 GT PUSH2 0x1ED6 JUMPI PUSH2 0x3701 SWAP1 CALLDATASIZE SWAP1 PUSH1 0x4 ADD PUSH2 0x3FFC JUMP JUMPDEST PUSH1 0x2 PUSH1 0xA4 CALLDATALOAD LT ISZERO PUSH2 0x3FF8 JUMPI PUSH1 0x3 PUSH2 0x144 CALLDATALOAD LT ISZERO PUSH2 0x3FF8 JUMPI PUSH1 0xFF PUSH2 0x164 CALLDATALOAD AND PUSH2 0x164 CALLDATALOAD SUB PUSH2 0x3FF8 JUMPI PUSH1 0xFF PUSH2 0x184 CALLDATALOAD AND PUSH2 0x184 CALLDATALOAD SUB PUSH2 0x3FF8 JUMPI PUSH2 0x3740 PUSH2 0x4029 JUMP JUMPDEST SWAP2 PUSH1 0xFF PUSH2 0x1E4 CALLDATALOAD AND PUSH2 0x1E4 CALLDATALOAD SUB PUSH2 0x1ED2 JUMPI PUSH1 0x2 PUSH2 0x204 CALLDATALOAD LT ISZERO PUSH2 0x1ED2 JUMPI PUSH2 0x3765 PUSH2 0x46FD JUMP JUMPDEST PUSH2 0x376D PUSH2 0x46DF JUMP JUMPDEST PUSH2 0x377A PUSH1 0xC4 CALLDATALOAD ISZERO ISZERO PUSH2 0x451B JUMP JUMPDEST PUSH2 0x3787 TIMESTAMP PUSH1 0xE4 CALLDATALOAD GT PUSH2 0x4576 JUMP JUMPDEST PUSH1 0x3 SLOAD PUSH1 0x4 DUP1 SLOAD PUSH1 0x2 SLOAD PUSH1 0x40 MLOAD PUSH4 0x37382D39 PUSH1 0xE2 SHL DUP2 MSTORE SWAP4 PUSH1 0x1 PUSH1 0x1 PUSH1 0xA0 SHL SUB SWAP1 DUP2 AND SWAP4 SWAP3 DUP2 AND SWAP3 PUSH1 0x20 SWAP3 DUP7 SWAP3 DUP4 SWAP2 PUSH1 0x8 SHR AND GAS STATICCALL SWAP3 DUP4 ISZERO PUSH2 0x3FED JUMPI DUP14 SWAP4 PUSH2 0x3FB9 JUMPI JUMPDEST POP DUP2 EXTCODESIZE ISZERO PUSH2 0x3FB5 JUMPI SWAP2 DUP13 SWAP2 PUSH2 0x37F7 SWAP4 DUP4 PUSH1 0x40 MLOAD DUP1 SWAP7 DUP2 SWAP6 DUP3 SWAP5 PUSH4 0xEC185A07 PUSH1 0xE0 SHL DUP5 MSTORE CALLER PUSH1 0x4 DUP6 ADD PUSH2 0x45D0 JUMP JUMPDEST SUB SWAP3 GAS CALL DUP1 ISZERO PUSH2 0x3F93 JUMPI PUSH2 0x3FA2 JUMPI JUMPDEST POP PUSH1 0x3 SLOAD PUSH1 0x4 SLOAD PUSH1 0x1 PUSH1 0x1 PUSH1 0xA0 SHL SUB SWAP2 DUP3 AND SWAP2 AND DUP2 EXTCODESIZE ISZERO PUSH2 0x3F9E JUMPI PUSH2 0x384A DUP13 SWAP3 DUP4 SWAP3 PUSH1 0x40 MLOAD SWAP5 DUP6 DUP1 SWAP5 DUP2 SWAP4 PUSH4 0xAC94D93 PUSH1 0xE3 SHL DUP4 MSTORE PUSH2 0x124 CALLDATALOAD SWAP1 CALLER PUSH1 0x4 DUP6 ADD PUSH2 0x4778 JUMP JUMPDEST SUB SWAP3 GAS CALL DUP1 ISZERO PUSH2 0x3F93 JUMPI SWAP1 DUP12 SWAP2 PUSH2 0x3F7F JUMPI JUMPDEST POP POP PUSH1 0x5 SLOAD SWAP11 PUSH2 0x386B DUP13 PUSH2 0x4616 JUMP JUMPDEST PUSH1 0x5 SSTORE DUP12 DUP12 MSTORE PUSH1 0x7 PUSH1 0x20 MSTORE PUSH1 0x40 DUP12 KECCAK256 DUP13 DUP2 SSTORE PUSH1 0x2 DUP2 ADD DUP1 SLOAD PUSH1 0x1 PUSH1 0x1 PUSH1 0xA0 SHL SUB NOT AND CALLER OR SWAP1 SSTORE SWAP5 PUSH1 0x1 PUSH1 0x1 PUSH1 0x40 SHL SUB DUP3 GT PUSH2 0x3F6B JUMPI DUP2 SWAP1 PUSH2 0x38AF PUSH1 0x3 DUP9 ADD SLOAD PUSH2 0x4199 JUMP JUMPDEST PUSH1 0x1F DUP2 GT PUSH2 0x3F1A JUMPI JUMPDEST POP DUP13 SWAP1 PUSH1 0x1F DUP4 GT PUSH1 0x1 EQ PUSH2 0x3EAE JUMPI DUP14 SWAP3 PUSH2 0x3EA3 JUMPI JUMPDEST POP POP DUP2 PUSH1 0x1 SHL SWAP2 PUSH1 0x0 NOT SWAP1 PUSH1 0x3 SHL SHR NOT AND OR PUSH1 0x3 DUP6 ADD SSTORE JUMPDEST PUSH1 0x1 PUSH1 0x1 PUSH1 0x40 SHL SUB DUP13 GT PUSH2 0x3C59 JUMPI PUSH2 0x3900 PUSH1 0x4 DUP6 ADD SLOAD PUSH2 0x4199 JUMP JUMPDEST PUSH1 0x1F DUP2 GT PUSH2 0x3E5D JUMPI JUMPDEST POP DUP12 DUP11 PUSH1 0x1F DUP3 GT PUSH1 0x1 EQ PUSH2 0x3DEE JUMPI DUP12 SWAP2 PUSH2 0x3DE3 JUMPI JUMPDEST POP PUSH1 0x0 NOT PUSH1 0x3 DUP15 SWAP1 SHL SHR NOT AND PUSH1 0x1 DUP14 SWAP1 SHL OR PUSH1 0x4 DUP6 ADD SSTORE JUMPDEST PUSH1 0x1 PUSH1 0x1 PUSH1 0x40 SHL SUB DUP8 GT PUSH2 0x3C59 JUMPI PUSH2 0x3951 PUSH1 0x5 DUP6 ADD SLOAD PUSH2 0x4199 JUMP JUMPDEST PUSH1 0x1F DUP2 GT PUSH2 0x3D9E JUMPI JUMPDEST POP DUP7 DUP11 PUSH1 0x1F DUP3 GT PUSH1 0x1 EQ PUSH2 0x3D34 JUMPI DUP12 SWAP2 PUSH2 0x3D29 JUMPI JUMPDEST POP DUP8 PUSH1 0x1 SHL SWAP1 PUSH1 0x0 NOT DUP10 PUSH1 0x3 SHL SHR NOT AND OR PUSH1 0x5 DUP6 ADD SSTORE JUMPDEST PUSH1 0x1 PUSH1 0x1 PUSH1 0x40 SHL SUB DUP6 GT PUSH2 0x3C59 JUMPI PUSH2 0x39A1 PUSH1 0x6 DUP6 ADD SLOAD PUSH2 0x4199 JUMP JUMPDEST PUSH1 0x1F DUP2 GT PUSH2 0x3CE4 JUMPI JUMPDEST POP DUP5 DUP11 PUSH1 0x1F DUP3 GT PUSH1 0x1 EQ PUSH2 0x3C78 JUMPI DUP12 SWAP2 PUSH2 0x3C6D JUMPI JUMPDEST POP DUP6 PUSH1 0x1 SHL SWAP1 PUSH1 0x0 NOT DUP8 PUSH1 0x3 SHL SHR NOT AND OR PUSH1 0x6 DUP6 ADD SSTORE JUMPDEST PUSH1 0x1 PUSH1 0x1 PUSH1 0x40 SHL SUB DUP3 GT PUSH2 0x3C59 JUMPI PUSH2 0x39F1 PUSH1 0x7 DUP6 ADD SLOAD PUSH2 0x4199 JUMP JUMPDEST PUSH1 0x1F DUP2 GT PUSH2 0x3C14 JUMPI JUMPDEST POP SWAP3 PUSH1 0x20 SWAP12 SWAP7 SWAP5 SWAP3 DUP11 SWAP3 DUP13 SWAP10 SWAP8 SWAP6 DUP5 SWAP1 PUSH1 0x1F DUP4 GT PUSH1 0x1 EQ PUSH2 0x3B68 JUMPI SWAP6 DUP16 PUSH2 0x3B31 SWAP14 PUSH2 0x19AB DUP15 PUSH1 0x40 DUP11 DUP6 SWAP16 SWAP15 SWAP12 SWAP11 PUSH2 0x19DB SWAP15 SWAP11 DUP11 DUP6 SWAP16 SWAP12 DUP7 SWAP12 DUP11 SWAP16 SWAP14 PUSH2 0x19C3 SWAP15 SWAP3 PUSH2 0x3B5D JUMPI JUMPDEST POP POP DUP2 PUSH1 0x1 SHL SWAP2 PUSH1 0x0 NOT SWAP1 PUSH1 0x3 SHL SHR NOT AND OR PUSH1 0x7 DUP4 ADD SSTORE JUMPDEST PUSH2 0x3A66 PUSH1 0xA4 CALLDATALOAD PUSH1 0x8 DUP5 ADD PUSH2 0x463B JUMP JUMPDEST PUSH1 0xC4 CALLDATALOAD PUSH1 0x9 DUP4 ADD SSTORE PUSH1 0xE4 CALLDATALOAD PUSH1 0xB DUP4 ADD SSTORE PUSH2 0x2710 PUSH2 0x3A88 PUSH2 0x104 CALLDATALOAD PUSH1 0xC4 CALLDATALOAD PUSH2 0x4765 JUMP JUMPDEST DIV PUSH1 0xD DUP4 ADD SSTORE PUSH2 0x124 CALLDATALOAD PUSH1 0xE DUP4 ADD SSTORE PUSH2 0x124 CALLDATALOAD PUSH1 0xF DUP4 ADD SSTORE PUSH1 0x12 DUP3 ADD PUSH2 0x3AB1 PUSH2 0x144 CALLDATALOAD DUP3 PUSH2 0x4653 JUMP JUMPDEST PUSH2 0x3ABE PUSH2 0x164 CALLDATALOAD DUP3 PUSH2 0x465D JUMP JUMPDEST PUSH2 0x3ACB PUSH2 0x184 CALLDATALOAD DUP3 PUSH2 0x4673 JUMP JUMPDEST PUSH2 0x1A4 CALLDATALOAD PUSH1 0x13 DUP5 ADD SSTORE PUSH2 0x3AEE PUSH1 0x15 DUP5 ADD SWAP3 DUP4 SWAP1 PUSH1 0xFF DUP1 NOT DUP4 SLOAD AND SWAP2 ISZERO ISZERO AND OR SWAP1 SSTORE JUMP JUMPDEST DUP1 SLOAD PUSH4 0xFF000000 NOT AND PUSH2 0x1E4 CALLDATALOAD PUSH1 0x18 SHL PUSH4 0xFF000000 AND OR SWAP1 SSTORE PUSH2 0x3B14 PUSH2 0x204 CALLDATALOAD DUP3 PUSH2 0x468B JUMP JUMPDEST PUSH3 0xFF0000 NOT DUP2 SLOAD AND SWAP1 SSTORE PUSH1 0x16 TIMESTAMP SWAP2 ADD SSTORE CALLER DUP2 MSTORE PUSH1 0xB DUP7 MSTORE KECCAK256 PUSH2 0x46AA JUMP JUMPDEST PUSH1 0x40 MLOAD SWAP1 DUP2 MSTORE TIMESTAMP DUP4 DUP3 ADD MSTORE DUP2 PUSH1 0x0 DUP1 MLOAD PUSH1 0x20 PUSH2 0x49BE DUP4 CODECOPY DUP2 MLOAD SWAP2 MSTORE PUSH1 0x40 CALLER SWAP4 LOG3 PUSH1 0x1 DUP1 SSTORE PUSH1 0x40 MLOAD SWAP1 DUP2 MSTORE RETURN JUMPDEST ADD CALLDATALOAD SWAP1 POP CODESIZE DUP1 PUSH2 0x3A3F JUMP JUMPDEST SWAP12 SWAP5 SWAP4 SWAP3 SWAP2 SWAP1 PUSH1 0x7 DUP5 ADD DUP6 MSTORE DUP16 DUP6 KECCAK256 SWAP1 DUP6 JUMPDEST PUSH1 0x1F NOT DUP5 AND DUP2 LT PUSH2 0x3BE2 JUMPI POP PUSH1 0x20 SWAP11 SWAP10 SWAP7 PUSH2 0x19AB PUSH2 0x3B31 SWAP16 DUP16 SWAP11 SWAP5 DUP15 SWAP10 PUSH2 0x19DB SWAP14 SWAP10 PUSH2 0x19C3 SWAP10 PUSH1 0x1 DUP16 SWAP11 PUSH1 0x40 SWAP6 DUP16 SWAP11 SWAP8 DUP14 SWAP9 DUP4 PUSH1 0x1F NOT DUP2 AND LT PUSH2 0x3BC8 JUMPI JUMPDEST POP POP POP DUP2 SHL ADD PUSH1 0x7 DUP4 ADD SSTORE PUSH2 0x3A57 JUMP JUMPDEST ADD CALLDATALOAD PUSH1 0x0 NOT PUSH1 0x3 DUP5 SWAP1 SHL PUSH1 0xF8 AND SHR NOT AND SWAP1 SSTORE CODESIZE DUP1 DUP1 PUSH2 0x3BB8 JUMP JUMPDEST SWAP3 SWAP6 POP SWAP4 SWAP7 SWAP9 SWAP11 SWAP13 SWAP3 SWAP6 SWAP8 SWAP10 SWAP12 POP DUP16 PUSH1 0x1 DUP2 SWAP3 DUP7 DUP7 ADD CALLDATALOAD DUP2 SSTORE ADD SWAP5 ADD SWAP2 ADD SWAP3 DUP14 SWAP5 SWAP2 DUP16 SWAP13 SWAP11 SWAP9 SWAP7 SWAP4 SWAP14 SWAP12 SWAP10 SWAP8 SWAP5 PUSH2 0x3B7A JUMP JUMPDEST PUSH1 0x7 DUP6 ADD DUP12 MSTORE PUSH1 0x20 DUP12 KECCAK256 PUSH1 0x1F DUP5 ADD PUSH1 0x5 SHR DUP2 ADD PUSH1 0x20 DUP6 LT PUSH2 0x3C52 JUMPI JUMPDEST PUSH1 0x1F DUP4 ADD PUSH1 0x5 SHR DUP3 ADD DUP2 LT PUSH2 0x3C46 JUMPI POP POP PUSH2 0x39FA JUMP JUMPDEST PUSH1 0x0 DUP2 SSTORE PUSH1 0x1 ADD PUSH2 0x3C30 JUMP JUMPDEST POP DUP1 PUSH2 0x3C30 JUMP JUMPDEST PUSH4 0x4E487B71 PUSH1 0xE0 SHL DUP11 MSTORE PUSH1 0x41 PUSH1 0x4 MSTORE PUSH1 0x24 DUP11 REVERT JUMPDEST SWAP1 POP DUP10 ADD CALLDATALOAD CODESIZE PUSH2 0x39BF JUMP JUMPDEST PUSH1 0x6 DUP7 ADD DUP13 MSTORE PUSH1 0x20 DUP13 KECCAK256 SWAP2 POP DUP12 JUMPDEST DUP12 PUSH1 0x1F NOT DUP10 AND DUP3 LT PUSH2 0x3CCC JUMPI POP POP DUP7 PUSH1 0x1F NOT DUP2 AND LT PUSH2 0x3CB2 JUMPI JUMPDEST POP POP PUSH1 0x1 DUP6 DUP2 SHL ADD PUSH1 0x6 DUP6 ADD SSTORE PUSH2 0x39D6 JUMP JUMPDEST DUP11 ADD CALLDATALOAD PUSH1 0x0 NOT PUSH1 0x3 DUP9 SWAP1 SHL PUSH1 0xF8 AND SHR NOT AND SWAP1 SSTORE CODESIZE DUP1 PUSH2 0x3CA0 JUMP JUMPDEST PUSH1 0x1 DUP4 SWAP5 PUSH1 0x20 SWAP4 SWAP5 DUP5 SWAP4 ADD CALLDATALOAD DUP2 SSTORE ADD SWAP4 ADD SWAP2 ADD PUSH2 0x3C86 JUMP JUMPDEST PUSH1 0x6 DUP6 ADD DUP12 MSTORE PUSH1 0x20 DUP12 KECCAK256 PUSH1 0x1F DUP8 ADD PUSH1 0x5 SHR DUP2 ADD PUSH1 0x20 DUP9 LT PUSH2 0x3D22 JUMPI JUMPDEST PUSH1 0x1F DUP4 ADD PUSH1 0x5 SHR DUP3 ADD DUP2 LT PUSH2 0x3D16 JUMPI POP POP PUSH2 0x39AA JUMP JUMPDEST PUSH1 0x0 DUP2 SSTORE PUSH1 0x1 ADD PUSH2 0x3D00 JUMP JUMPDEST POP DUP1 PUSH2 0x3D00 JUMP JUMPDEST SWAP1 POP DUP7 ADD CALLDATALOAD CODESIZE PUSH2 0x396F JUMP JUMPDEST PUSH1 0x5 DUP7 ADD DUP13 MSTORE PUSH1 0x20 DUP13 KECCAK256 SWAP2 POP DUP12 JUMPDEST PUSH1 0x1F NOT DUP11 AND DUP2 LT PUSH2 0x3D86 JUMPI POP DUP9 PUSH1 0x1F NOT DUP2 AND LT PUSH2 0x3D6C JUMPI JUMPDEST POP POP PUSH1 0x1 DUP8 DUP2 SHL ADD PUSH1 0x5 DUP6 ADD SSTORE PUSH2 0x3986 JUMP JUMPDEST DUP8 ADD CALLDATALOAD PUSH1 0x0 NOT PUSH1 0x3 DUP11 SWAP1 SHL PUSH1 0xF8 AND SHR NOT AND SWAP1 SSTORE CODESIZE DUP1 PUSH2 0x3D5A JUMP JUMPDEST SWAP1 SWAP2 PUSH1 0x20 PUSH1 0x1 DUP2 SWAP3 DUP6 DUP13 ADD CALLDATALOAD DUP2 SSTORE ADD SWAP4 ADD SWAP2 ADD PUSH2 0x3D42 JUMP JUMPDEST PUSH1 0x5 DUP6 ADD DUP12 MSTORE PUSH1 0x20 DUP12 KECCAK256 PUSH1 0x1F DUP10 ADD PUSH1 0x5 SHR DUP2 ADD PUSH1 0x20 DUP11 LT PUSH2 0x3DDC JUMPI JUMPDEST PUSH1 0x1F DUP4 ADD PUSH1 0x5 SHR DUP3 ADD DUP2 LT PUSH2 0x3DD0 JUMPI POP POP PUSH2 0x395A JUMP JUMPDEST PUSH1 0x0 DUP2 SSTORE PUSH1 0x1 ADD PUSH2 0x3DBA JUMP JUMPDEST POP DUP1 PUSH2 0x3DBA JUMP JUMPDEST SWAP1 POP DUP9 ADD CALLDATALOAD CODESIZE PUSH2 0x391E JUMP JUMPDEST PUSH1 0x4 DUP7 ADD DUP13 MSTORE PUSH1 0x20 DUP13 KECCAK256 SWAP2 POP DUP12 DUP15 JUMPDEST DUP12 PUSH1 0x1F NOT DUP3 AND DUP4 LT PUSH2 0x3E43 JUMPI POP PUSH1 0x1F NOT DUP2 AND LT SWAP1 POP PUSH2 0x3E29 JUMPI JUMPDEST POP POP PUSH1 0x1 DUP13 DUP2 SHL ADD PUSH1 0x4 DUP6 ADD SSTORE PUSH2 0x3936 JUMP JUMPDEST DUP10 ADD CALLDATALOAD PUSH1 0x0 NOT PUSH1 0x3 DUP16 SWAP1 SHL PUSH1 0xF8 AND SHR NOT AND SWAP1 SSTORE CODESIZE DUP1 PUSH2 0x3E17 JUMP JUMPDEST PUSH1 0x1 DUP5 SWAP6 PUSH1 0x20 SWAP4 SWAP5 SWAP6 DUP5 SWAP4 ADD CALLDATALOAD DUP2 SSTORE ADD SWAP5 ADD SWAP3 ADD SWAP1 PUSH2 0x3DFD JUMP JUMPDEST PUSH1 0x4 DUP6 ADD DUP12 MSTORE PUSH1 0x20 DUP12 KECCAK256 DUP14 PUSH1 0x20 PUSH1 0x1F DUP3 ADD PUSH1 0x5 SHR DUP4 ADD SWAP2 LT PUSH2 0x3E9C JUMPI JUMPDEST PUSH1 0x1F DUP4 ADD PUSH1 0x5 SHR DUP3 ADD DUP2 LT PUSH2 0x3E90 JUMPI POP POP PUSH2 0x3909 JUMP JUMPDEST PUSH1 0x0 DUP2 SSTORE PUSH1 0x1 ADD PUSH2 0x3E7A JUMP JUMPDEST POP DUP1 PUSH2 0x3E7A JUMP JUMPDEST ADD CALLDATALOAD SWAP1 POP CODESIZE DUP1 PUSH2 0x38CD JUMP JUMPDEST PUSH1 0x3 DUP9 ADD DUP15 MSTORE PUSH1 0x20 DUP15 KECCAK256 DUP15 SWAP5 POP SWAP2 JUMPDEST PUSH1 0x1F NOT DUP5 AND DUP6 LT PUSH2 0x3F02 JUMPI PUSH1 0x1 SWAP5 POP DUP4 PUSH1 0x1F NOT DUP2 AND LT PUSH2 0x3EE8 JUMPI JUMPDEST POP POP POP DUP2 SHL ADD PUSH1 0x3 DUP6 ADD SSTORE PUSH2 0x38E5 JUMP JUMPDEST ADD CALLDATALOAD PUSH1 0x0 NOT PUSH1 0x3 DUP5 SWAP1 SHL PUSH1 0xF8 AND SHR NOT AND SWAP1 SSTORE CODESIZE DUP1 DUP1 PUSH2 0x3ED8 JUMP JUMPDEST DUP2 DUP2 ADD CALLDATALOAD DUP4 SSTORE PUSH1 0x20 SWAP5 DUP6 ADD SWAP5 PUSH1 0x1 SWAP1 SWAP4 ADD SWAP3 ADD PUSH2 0x3EBD JUMP JUMPDEST SWAP1 SWAP2 POP PUSH1 0x3 DUP8 ADD DUP14 MSTORE PUSH1 0x20 DUP14 KECCAK256 PUSH1 0x1F DUP5 ADD PUSH1 0x5 SHR DUP2 ADD PUSH1 0x20 DUP6 LT PUSH2 0x3F64 JUMPI JUMPDEST SWAP1 DUP5 SWAP4 SWAP3 SWAP2 JUMPDEST PUSH1 0x1F DUP4 ADD PUSH1 0x5 SHR DUP3 ADD DUP2 LT PUSH2 0x3F55 JUMPI POP POP PUSH2 0x38B8 JUMP JUMPDEST PUSH1 0x0 DUP2 SSTORE DUP6 SWAP5 POP PUSH1 0x1 ADD PUSH2 0x3F3F JUMP JUMPDEST POP DUP1 PUSH2 0x3F39 JUMP JUMPDEST PUSH4 0x4E487B71 PUSH1 0xE0 SHL DUP13 MSTORE PUSH1 0x41 PUSH1 0x4 MSTORE PUSH1 0x24 DUP13 REVERT JUMPDEST PUSH2 0x3F88 SWAP1 PUSH2 0x4269 JUMP JUMPDEST PUSH2 0x1ED2 JUMPI DUP10 CODESIZE PUSH2 0x385C JUMP JUMPDEST PUSH1 0x40 MLOAD RETURNDATASIZE DUP14 DUP3 RETURNDATACOPY RETURNDATASIZE SWAP1 REVERT JUMPDEST DUP12 DUP1 REVERT JUMPDEST PUSH2 0x3FAE SWAP1 SWAP11 SWAP2 SWAP11 PUSH2 0x4269 JUMP JUMPDEST SWAP9 CODESIZE PUSH2 0x3806 JUMP JUMPDEST DUP13 DUP1 REVERT JUMPDEST SWAP1 SWAP3 POP PUSH1 0x20 DUP2 RETURNDATASIZE PUSH1 0x20 GT PUSH2 0x3FE5 JUMPI JUMPDEST DUP2 PUSH2 0x3FD5 PUSH1 0x20 SWAP4 DUP4 PUSH2 0x42CA JUMP JUMPDEST DUP2 ADD SUB SLT PUSH2 0x3FB5 JUMPI MLOAD SWAP2 CODESIZE PUSH2 0x37CA JUMP JUMPDEST RETURNDATASIZE SWAP2 POP PUSH2 0x3FC8 JUMP JUMPDEST PUSH1 0x40 MLOAD RETURNDATASIZE DUP16 DUP3 RETURNDATACOPY RETURNDATASIZE SWAP1 REVERT JUMPDEST DUP9 DUP1 REVERT JUMPDEST SWAP2 DUP2 PUSH1 0x1F DUP5 ADD SLT ISZERO PUSH2 0x1EBA JUMPI DUP3 CALLDATALOAD SWAP2 PUSH1 0x1 PUSH1 0x1 PUSH1 0x40 SHL SUB DUP4 GT PUSH2 0x1EBA JUMPI PUSH1 0x20 DUP4 DUP2 DUP7 ADD SWAP6 ADD ADD GT PUSH2 0x1EBA JUMPI JUMP JUMPDEST PUSH2 0x1C4 CALLDATALOAD SWAP1 DUP2 ISZERO ISZERO DUP3 SUB PUSH2 0x1EBA JUMPI JUMP JUMPDEST PUSH1 0x40 SWAP1 PUSH1 0x3 NOT ADD SLT PUSH2 0x1EBA JUMPI PUSH1 0x4 CALLDATALOAD SWAP1 PUSH1 0x24 CALLDATALOAD SWAP1 JUMP JUMPDEST PUSH1 0x4 CALLDATALOAD SWAP1 PUSH1 0x1 PUSH1 0x1 PUSH1 0xA0 SHL SUB DUP3 AND DUP3 SUB PUSH2 0x1EBA JUMPI JUMP JUMPDEST PUSH1 0x24 CALLDATALOAD SWAP1 PUSH1 0x1 PUSH1 0x1 PUSH1 0xA0 SHL SUB DUP3 AND DUP3 SUB PUSH2 0x1EBA JUMPI JUMP JUMPDEST DUP1 SLOAD DUP3 LT ISZERO PUSH2 0x4093 JUMPI PUSH1 0x0 MSTORE PUSH1 0x20 PUSH1 0x0 KECCAK256 ADD SWAP1 PUSH1 0x0 SWAP1 JUMP JUMPDEST PUSH4 0x4E487B71 PUSH1 0xE0 SHL PUSH1 0x0 MSTORE PUSH1 0x32 PUSH1 0x4 MSTORE PUSH1 0x24 PUSH1 0x0 REVERT JUMPDEST PUSH1 0x20 SWAP1 DUP2 PUSH1 0x40 DUP2 DUP4 ADD SWAP3 DUP3 DUP2 MSTORE DUP6 MLOAD DUP1 SWAP5 MSTORE ADD SWAP4 ADD SWAP2 PUSH1 0x0 JUMPDEST DUP3 DUP2 LT PUSH2 0x40D0 JUMPI POP POP POP POP SWAP1 JUMP JUMPDEST DUP4 MLOAD DUP6 MSTORE SWAP4 DUP2 ADD SWAP4 SWAP3 DUP2 ADD SWAP3 PUSH1 0x1 ADD PUSH2 0x40C2 JUMP JUMPDEST PUSH1 0x3 GT ISZERO PUSH2 0x40EE JUMPI JUMP JUMPDEST PUSH4 0x4E487B71 PUSH1 0xE0 SHL PUSH1 0x0 MSTORE PUSH1 0x21 PUSH1 0x4 MSTORE PUSH1 0x24 PUSH1 0x0 REVERT JUMPDEST PUSH1 0x4 GT ISZERO PUSH2 0x40EE JUMPI JUMP JUMPDEST SWAP12 SWAP10 SWAP8 SWAP6 SWAP4 SWAP2 SWAP15 SWAP14 SWAP13 SWAP11 SWAP9 SWAP7 SWAP5 SWAP3 SWAP1 SWAP15 PUSH2 0x1C0 DUP14 ADD SWAP16 DUP14 MSTORE PUSH1 0x20 DUP14 ADD MSTORE PUSH1 0x1 PUSH1 0xA0 SHL PUSH1 0x1 SWAP1 SUB AND PUSH1 0x40 DUP13 ADD MSTORE PUSH2 0x4143 DUP2 PUSH2 0x40E4 JUMP JUMPDEST PUSH1 0x60 DUP12 ADD MSTORE PUSH1 0x80 DUP11 ADD MSTORE PUSH1 0xA0 DUP10 ADD MSTORE PUSH1 0xC0 DUP9 ADD MSTORE PUSH1 0xE0 DUP8 ADD MSTORE PUSH2 0x4165 DUP2 PUSH2 0x40E4 JUMP JUMPDEST PUSH2 0x100 DUP7 ADD MSTORE PUSH1 0xFF AND PUSH2 0x120 DUP6 ADD MSTORE PUSH1 0xFF AND PUSH2 0x140 DUP5 ADD MSTORE PUSH2 0x160 DUP4 ADD MSTORE PUSH2 0x180 DUP3 ADD MSTORE PUSH2 0x4192 DUP3 PUSH2 0x4104 JUMP JUMPDEST PUSH2 0x1A0 ADD MSTORE JUMP JUMPDEST SWAP1 PUSH1 0x1 DUP3 DUP2 SHR SWAP3 AND DUP1 ISZERO PUSH2 0x41C9 JUMPI JUMPDEST PUSH1 0x20 DUP4 LT EQ PUSH2 0x41B3 JUMPI JUMP JUMPDEST PUSH4 0x4E487B71 PUSH1 0xE0 SHL PUSH1 0x0 MSTORE PUSH1 0x22 PUSH1 0x4 MSTORE PUSH1 0x24 PUSH1 0x0 REVERT JUMPDEST SWAP2 PUSH1 0x7F AND SWAP2 PUSH2 0x41A8 JUMP JUMPDEST SWAP1 PUSH1 0x0 SWAP3 SWAP2 DUP1 SLOAD SWAP2 PUSH2 0x41E4 DUP4 PUSH2 0x4199 JUMP JUMPDEST SWAP2 DUP3 DUP3 MSTORE PUSH1 0x1 SWAP4 DUP5 DUP2 AND SWAP1 DUP2 PUSH1 0x0 EQ PUSH2 0x4246 JUMPI POP PUSH1 0x1 EQ PUSH2 0x4206 JUMPI JUMPDEST POP POP POP POP JUMP JUMPDEST SWAP1 SWAP2 SWAP4 SWAP5 POP PUSH1 0x0 MSTORE PUSH1 0x20 SWAP3 DUP4 PUSH1 0x0 KECCAK256 SWAP3 DUP5 PUSH1 0x0 SWAP5 JUMPDEST DUP4 DUP7 LT PUSH2 0x4232 JUMPI POP POP POP POP ADD ADD SWAP1 CODESIZE DUP1 DUP1 DUP1 PUSH2 0x4200 JUMP JUMPDEST DUP1 SLOAD DUP6 DUP8 ADD DUP4 ADD MSTORE SWAP5 ADD SWAP4 DUP6 SWAP1 DUP3 ADD PUSH2 0x421B JUMP JUMPDEST SWAP3 SWAP5 POP POP POP PUSH1 0x20 SWAP4 SWAP5 POP PUSH1 0xFF NOT AND DUP4 DUP4 ADD MSTORE ISZERO ISZERO PUSH1 0x5 SHL ADD ADD SWAP1 CODESIZE DUP1 DUP1 DUP1 PUSH2 0x4200 JUMP JUMPDEST PUSH1 0x1 PUSH1 0x1 PUSH1 0x40 SHL SUB DUP2 GT PUSH2 0x427C JUMPI PUSH1 0x40 MSTORE JUMP JUMPDEST PUSH4 0x4E487B71 PUSH1 0xE0 SHL PUSH1 0x0 MSTORE PUSH1 0x41 PUSH1 0x4 MSTORE PUSH1 0x24 PUSH1 0x0 REVERT JUMPDEST PUSH2 0x1C0 DUP2 ADD SWAP1 DUP2 LT PUSH1 0x1 PUSH1 0x1 PUSH1 0x40 SHL SUB DUP3 GT OR PUSH2 0x427C JUMPI PUSH1 0x40 MSTORE JUMP JUMPDEST PUSH2 0x440 DUP2 ADD SWAP1 DUP2 LT PUSH1 0x1 PUSH1 0x1 PUSH1 0x40 SHL SUB DUP3 GT OR PUSH2 0x427C JUMPI PUSH1 0x40 MSTORE JUMP JUMPDEST PUSH1 0x1F SWAP1 SWAP2 ADD PUSH1 0x1F NOT AND DUP2 ADD SWAP1 PUSH1 0x1 PUSH1 0x1 PUSH1 0x40 SHL SUB DUP3 GT SWAP1 DUP3 LT OR PUSH2 0x427C JUMPI PUSH1 0x40 MSTORE JUMP JUMPDEST SWAP2 SWAP1 DUP3 MLOAD SWAP3 DUP4 DUP3 MSTORE PUSH1 0x0 JUMPDEST DUP5 DUP2 LT PUSH2 0x4319 JUMPI POP POP DUP3 PUSH1 0x0 PUSH1 0x20 DUP1 SWAP5 SWAP6 DUP5 ADD ADD MSTORE PUSH1 0x1F DUP1 NOT SWAP2 ADD AND ADD ADD SWAP1 JUMP JUMPDEST PUSH1 0x20 DUP2 DUP4 ADD DUP2 ADD MLOAD DUP5 DUP4 ADD DUP3 ADD MSTORE ADD PUSH2 0x42F8 JUMP JUMPDEST PUSH1 0x2 GT ISZERO PUSH2 0x40EE JUMPI JUMP JUMPDEST SWAP1 PUSH1 0xB DUP3 LT ISZERO PUSH2 0x40EE JUMPI MSTORE JUMP JUMPDEST DUP1 SLOAD DUP3 LT ISZERO PUSH2 0x4093 JUMPI PUSH1 0x0 MSTORE PUSH1 0xB PUSH1 0x20 PUSH1 0x0 KECCAK256 SWAP2 MUL ADD SWAP1 PUSH1 0x0 SWAP1 JUMP JUMPDEST CALLER PUSH1 0x0 SWAP1 DUP2 MSTORE PUSH32 0xDD53DF7E4642F4E3D9DEDEDDAC02355F2E876E2A9B7EF4E260AF8D6FD7B33257 PUSH1 0x20 MSTORE PUSH1 0x40 SWAP1 KECCAK256 SLOAD PUSH1 0x0 DUP1 MLOAD PUSH1 0x20 PUSH2 0x493E DUP4 CODECOPY DUP2 MLOAD SWAP2 MSTORE SWAP1 PUSH1 0xFF AND ISZERO PUSH2 0x43AA JUMPI POP JUMP JUMPDEST PUSH1 0x44 SWAP1 PUSH1 0x40 MLOAD SWAP1 PUSH4 0xE2517D3F PUSH1 0xE0 SHL DUP3 MSTORE CALLER PUSH1 0x4 DUP4 ADD MSTORE PUSH1 0x24 DUP3 ADD MSTORE REVERT JUMPDEST CALLER PUSH1 0x0 SWAP1 DUP2 MSTORE PUSH32 0xAD3228B676F7D3CD4284A5443F17F1962B36E491B30A40B2405849E597BA5FB5 PUSH1 0x20 MSTORE PUSH1 0x40 DUP2 KECCAK256 SLOAD PUSH1 0xFF AND ISZERO PUSH2 0x43AA JUMPI POP JUMP JUMPDEST DUP1 PUSH1 0x0 MSTORE PUSH1 0x0 PUSH1 0x20 MSTORE PUSH1 0x40 PUSH1 0x0 KECCAK256 CALLER PUSH1 0x0 MSTORE PUSH1 0x20 MSTORE PUSH1 0xFF PUSH1 0x40 PUSH1 0x0 KECCAK256 SLOAD AND ISZERO PUSH2 0x43AA JUMPI POP JUMP JUMPDEST SWAP1 PUSH1 0x0 SWAP2 DUP1 DUP4 MSTORE DUP3 PUSH1 0x20 MSTORE PUSH1 0x40 DUP4 KECCAK256 SWAP2 PUSH1 0x1 DUP1 PUSH1 0xA0 SHL SUB AND SWAP2 DUP3 DUP5 MSTORE PUSH1 0x20 MSTORE PUSH1 0xFF PUSH1 0x40 DUP5 KECCAK256 SLOAD AND ISZERO PUSH1 0x0 EQ PUSH2 0x44A1 JUMPI DUP1 DUP4 MSTORE DUP3 PUSH1 0x20 MSTORE PUSH1 0x40 DUP4 KECCAK256 DUP3 DUP5 MSTORE PUSH1 0x20 MSTORE PUSH1 0x40 DUP4 KECCAK256 PUSH1 0x1 PUSH1 0xFF NOT DUP3 SLOAD AND OR SWAP1 SSTORE PUSH32 0x2F8788117E7EFF1D82E926EC794901D17C78024A50270940304540A733656F0D CALLER SWAP4 DUP1 LOG4 PUSH1 0x1 SWAP1 JUMP JUMPDEST POP POP SWAP1 JUMP JUMPDEST SWAP1 PUSH1 0x0 SWAP2 DUP1 DUP4 MSTORE DUP3 PUSH1 0x20 MSTORE PUSH1 0x40 DUP4 KECCAK256 SWAP2 PUSH1 0x1 DUP1 PUSH1 0xA0 SHL SUB AND SWAP2 DUP3 DUP5 MSTORE PUSH1 0x20 MSTORE PUSH1 0xFF PUSH1 0x40 DUP5 KECCAK256 SLOAD AND PUSH1 0x0 EQ PUSH2 0x44A1 JUMPI DUP1 DUP4 MSTORE DUP3 PUSH1 0x20 MSTORE PUSH1 0x40 DUP4 KECCAK256 DUP3 DUP5 MSTORE PUSH1 0x20 MSTORE PUSH1 0x40 DUP4 KECCAK256 PUSH1 0xFF NOT DUP2 SLOAD AND SWAP1 SSTORE PUSH32 0xF6391F5C32D9C69D2A47EA670B442974B53935D1EDC7FD64EB21E047A839171B CALLER SWAP4 DUP1 LOG4 PUSH1 0x1 SWAP1 JUMP JUMPDEST ISZERO PUSH2 0x4522 JUMPI JUMP JUMPDEST PUSH1 0x40 MLOAD PUSH3 0x461BCD PUSH1 0xE5 SHL DUP2 MSTORE PUSH1 0x20 PUSH1 0x4 DUP3 ADD MSTORE PUSH1 0x26 PUSH1 0x24 DUP3 ADD MSTORE PUSH32 0x4F7074696F6E73436F72653A206E6F74696F6E616C206D75737420626520706F PUSH1 0x44 DUP3 ADD MSTORE PUSH6 0x736974697665 PUSH1 0xD0 SHL PUSH1 0x64 DUP3 ADD MSTORE PUSH1 0x84 SWAP1 REVERT JUMPDEST ISZERO PUSH2 0x457D JUMPI JUMP JUMPDEST PUSH1 0x40 MLOAD PUSH3 0x461BCD PUSH1 0xE5 SHL DUP2 MSTORE PUSH1 0x20 PUSH1 0x4 DUP3 ADD MSTORE PUSH1 0x25 PUSH1 0x24 DUP3 ADD MSTORE PUSH32 0x4F7074696F6E73436F72653A20657870697279206D75737420626520696E2066 PUSH1 0x44 DUP3 ADD MSTORE PUSH5 0x7574757265 PUSH1 0xD8 SHL PUSH1 0x64 DUP3 ADD MSTORE PUSH1 0x84 SWAP1 REVERT JUMPDEST PUSH1 0x1 PUSH1 0x1 PUSH1 0xA0 SHL SUB SWAP2 DUP3 AND DUP2 MSTORE SWAP2 AND PUSH1 0x20 DUP3 ADD MSTORE PUSH1 0x40 DUP2 ADD SWAP2 SWAP1 SWAP2 MSTORE PUSH1 0x80 PUSH1 0x60 DUP3 ADD DUP2 SWAP1 MSTORE PUSH1 0xC SWAP1 DUP3 ADD MSTORE PUSH12 0x6372656174696F6E5F666565 PUSH1 0xA0 SHL PUSH1 0xA0 DUP3 ADD MSTORE PUSH1 0xC0 ADD SWAP1 JUMP JUMPDEST PUSH1 0x0 NOT DUP2 EQ PUSH2 0x4625 JUMPI PUSH1 0x1 ADD SWAP1 JUMP JUMPDEST PUSH4 0x4E487B71 PUSH1 0xE0 SHL PUSH1 0x0 MSTORE PUSH1 0x11 PUSH1 0x4 MSTORE PUSH1 0x24 PUSH1 0x0 REVERT JUMPDEST SWAP1 PUSH2 0x4645 DUP2 PUSH2 0x432D JUMP JUMPDEST PUSH1 0xFF DUP1 NOT DUP4 SLOAD AND SWAP2 AND OR SWAP1 SSTORE JUMP JUMPDEST SWAP1 PUSH2 0x4645 DUP2 PUSH2 0x40E4 JUMP JUMPDEST SWAP1 PUSH2 0xFF00 DUP3 SLOAD SWAP2 PUSH1 0x8 SHL AND SWAP1 PUSH2 0xFF00 NOT AND OR SWAP1 SSTORE JUMP JUMPDEST SWAP1 PUSH3 0xFF0000 DUP3 SLOAD SWAP2 PUSH1 0x10 SHL AND SWAP1 PUSH3 0xFF0000 NOT AND OR SWAP1 SSTORE JUMP JUMPDEST SWAP1 PUSH2 0x4695 DUP2 PUSH2 0x432D JUMP JUMPDEST PUSH2 0xFF00 DUP3 SLOAD SWAP2 PUSH1 0x8 SHL AND SWAP1 PUSH2 0xFF00 NOT AND OR SWAP1 SSTORE JUMP JUMPDEST DUP1 SLOAD PUSH1 0x1 PUSH1 0x40 SHL DUP2 LT ISZERO PUSH2 0x427C JUMPI PUSH2 0x46C7 SWAP2 PUSH1 0x1 DUP3 ADD DUP2 SSTORE PUSH2 0x407B JUMP JUMPDEST DUP2 SWAP3 SWAP2 SLOAD SWAP1 PUSH1 0x3 SHL SWAP2 DUP3 SHL SWAP2 PUSH1 0x0 NOT SWAP1 SHL NOT AND OR SWAP1 SSTORE JUMP JUMPDEST PUSH1 0xFF PUSH1 0x2 SLOAD AND PUSH2 0x46EB JUMPI JUMP JUMPDEST PUSH1 0x40 MLOAD PUSH4 0xD93C0665 PUSH1 0xE0 SHL DUP2 MSTORE PUSH1 0x4 SWAP1 REVERT JUMPDEST PUSH1 0x2 PUSH1 0x1 SLOAD EQ PUSH2 0x470E JUMPI PUSH1 0x2 PUSH1 0x1 SSTORE JUMP JUMPDEST PUSH1 0x40 MLOAD PUSH4 0x3EE5AEB5 PUSH1 0xE0 SHL DUP2 MSTORE PUSH1 0x4 SWAP1 REVERT JUMPDEST ISZERO PUSH2 0x4727 JUMPI JUMP JUMPDEST PUSH1 0x40 MLOAD PUSH3 0x461BCD PUSH1 0xE5 SHL DUP2 MSTORE PUSH1 0x20 PUSH1 0x4 DUP3 ADD MSTORE PUSH1 0x16 PUSH1 0x24 DUP3 ADD MSTORE PUSH22 0x27B83A34B7B739A1B7B9329D103737BA10313ABCB2B9 PUSH1 0x51 SHL PUSH1 0x44 DUP3 ADD MSTORE PUSH1 0x64 SWAP1 REVERT JUMPDEST DUP2 DUP2 MUL SWAP3 SWAP2 DUP2 ISZERO SWAP2 DUP5 DIV EQ OR ISZERO PUSH2 0x4625 JUMPI JUMP JUMPDEST PUSH1 0x1 PUSH1 0x1 PUSH1 0xA0 SHL SUB SWAP2 DUP3 AND DUP2 MSTORE SWAP2 AND PUSH1 0x20 DUP3 ADD MSTORE PUSH1 0x40 DUP2 ADD SWAP2 SWAP1 SWAP2 MSTORE PUSH1 0x60 ADD SWAP1 JUMP JUMPDEST PUSH1 0x1 PUSH1 0x1 PUSH1 0xA0 SHL SUB SWAP2 DUP3 AND DUP2 MSTORE SWAP2 AND PUSH1 0x20 DUP3 ADD MSTORE PUSH1 0x40 DUP2 ADD SWAP2 SWAP1 SWAP2 MSTORE PUSH1 0x80 PUSH1 0x60 DUP3 ADD DUP2 SWAP1 MSTORE PUSH1 0xB SWAP1 DUP3 ADD MSTORE PUSH11 0x74726164696E675F666565 PUSH1 0xA8 SHL PUSH1 0xA0 DUP3 ADD MSTORE PUSH1 0xC0 ADD SWAP1 JUMP JUMPDEST ISZERO PUSH2 0x47E6 JUMPI JUMP JUMPDEST PUSH1 0x40 MLOAD PUSH3 0x461BCD PUSH1 0xE5 SHL DUP2 MSTORE PUSH1 0x20 PUSH1 0x4 DUP3 ADD MSTORE PUSH1 0x1D PUSH1 0x24 DUP3 ADD MSTORE PUSH32 0x4F7074696F6E73436F72653A20696E76616C6964206F72646572206964000000 PUSH1 0x44 DUP3 ADD MSTORE PUSH1 0x64 SWAP1 REVERT JUMPDEST PUSH1 0xF DUP2 MSTORE PUSH15 0x189D5E595C8818D85B98D95B1B1959 PUSH1 0x8A SHL PUSH1 0x20 DUP3 ADD MSTORE PUSH1 0x40 ADD SWAP1 JUMP JUMPDEST PUSH1 0xA PUSH2 0x1A0 SWAP2 DUP4 MLOAD DUP2 SSTORE PUSH1 0x20 DUP5 ADD MLOAD PUSH1 0x1 DUP3 ADD SSTORE PUSH1 0x2 DUP2 ADD PUSH1 0x1 DUP1 PUSH1 0xA0 SHL SUB PUSH1 0x40 DUP7 ADD MLOAD AND DUP2 SLOAD SWAP1 PUSH1 0x60 DUP8 ADD MLOAD PUSH2 0x4883 DUP2 PUSH2 0x40E4 JUMP JUMPDEST PUSH2 0x488C DUP2 PUSH2 0x40E4 JUMP JUMPDEST PUSH1 0x1 PUSH1 0x1 PUSH1 0xA8 SHL SUB NOT SWAP1 SWAP3 AND OR PUSH1 0xA0 SWAP2 DUP3 SHL PUSH1 0xFF PUSH1 0xA0 SHL AND OR SWAP1 SWAP2 SSTORE PUSH1 0x80 DUP6 ADD MLOAD PUSH1 0x3 DUP4 ADD SSTORE DUP5 ADD MLOAD PUSH1 0x4 DUP3 ADD SSTORE PUSH1 0xC0 DUP5 ADD MLOAD PUSH1 0x5 DUP3 ADD SSTORE PUSH1 0xE0 DUP5 ADD MLOAD PUSH1 0x6 DUP3 ADD SSTORE PUSH2 0x100 DUP5 ADD MLOAD PUSH2 0x4911 SWAP1 PUSH1 0x7 DUP4 ADD SWAP1 PUSH2 0x48F0 SWAP1 PUSH2 0x48EA DUP2 PUSH2 0x40E4 JUMP JUMPDEST DUP3 PUSH2 0x4653 JUMP JUMPDEST PUSH2 0x4902 PUSH1 0xFF PUSH2 0x120 DUP9 ADD MLOAD AND DUP3 PUSH2 0x465D JUMP JUMPDEST PUSH1 0xFF PUSH2 0x140 DUP8 ADD MLOAD AND SWAP1 PUSH2 0x4673 JUMP JUMPDEST PUSH2 0x160 DUP5 ADD MLOAD PUSH1 0x8 DUP3 ADD SSTORE PUSH2 0x180 DUP5 ADD MLOAD PUSH1 0x9 DUP3 ADD SSTORE ADD SWAP2 ADD MLOAD PUSH2 0x4934 DUP2 PUSH2 0x4104 JUMP JUMPDEST PUSH2 0x4645 DUP2 PUSH2 0x4104 JUMP INVALID ADDRESS 0xF SWAP11 0xE9 DUP6 0xDC PUSH18 0x1960F7A4D1DD013F9C19ECF40BFF149522AB PUSH22 0x23B2187A3846CE74058472262D5DB42B1CA04D78E999 0xD2 0xDD MSTORE EXTCODESIZE 0xDF DUP12 CALLER KECCAK256 0x2E MOD 0xCC 0xA9 SELFBALANCE 0xB3 SHL 0xBE DIV SWAP7 PUSH32 0xD25E7AA667B18955D808F19FD0C86238999FF8BE2EBC72CD2CD3A83DB0CE3A31 0xBA 0xF9 SWAP6 PUSH15 0x86200EE7044A75C2BEFBD05091279 DUP12 PUSH28 0xCD25D05831AB9592C0C6ED2669FEBBE340D8737E8EC17254FFD9E038 0xB5 0x4A GASLIMIT DUP6 SELFDESTRUCT PUSH17 0xAC3CA18956AA3D7463B72B52FAFC8E3F27 0xDC 0xD 0xBB SWAP14 BYTE SWAP5 0xC0 LOG4 MUL BASEFEE CALLVALUE 0x25 0x2B 0x5C 0xCE PUSH9 0x509ACB49BCA2646970 PUSH7 0x73582212203641 0xAC 0xEA 0xE3 DUP15 DELEGATECALL 0x28 0xCA JUMP ADDMOD 0xD7 DUP14 COINBASE DUP8 0x5E SWAP8 0xB2 0xEC SELFBALANCE PUSH23 0xB01F0BDD4C09C9BB8DA91E64736F6C6343000814003300 "},"methodIdentifiers":{"DEFAULT_ADMIN_ROLE()":"a217fddf","FEED_PROTOCOL_ROLE()":"cdc65ab6","SETTLEMENT_ROLE()":"ba9cf01d","acceptQuote(uint256)":"5d7ffe7b","acceptSellerOrder(uint256)":"67ac0bf0","buyerOrders(address,uint256)":"4500cb60","cancelRFQ(uint256)":"bc0ef26b","config()":"79502c55","createBuyerRFQ(string,string,string,string,string,uint8,uint256,uint256,uint256,uint256,uint8,address,uint256,uint256,bool,uint8,uint8,uint8,uint8)":"979b4e6d","createSellerOrder(string,string,string,string,string,uint8,uint256,uint256,uint256,uint256,uint8,uint8,uint8,uint256,bool,uint8,uint8)":"01d0d5b8","getBuyerOrders(address)":"a45f2ebc","getOrder(uint256)":"d09ef241","getOrdersByCountry(string)":"cf3fec43","getOrdersByMarket(string)":"7d900421","getQuotes(uint256)":"d049bfef","getRoleAdmin(bytes32)":"248a9ca3","getSellerOrders(address)":"e4cbac40","grantRole(bytes32,address)":"2f2ff15d","hasRole(bytes32,address)":"91d14854","nextOrderId()":"2a58b330","nextQuoteId()":"4efef6aa","orderQuotes(uint256,uint256)":"f7ff6426","orders(uint256)":"a85c38ef","pause()":"8456cb59","paused()":"5c975abb","processFeedCallback(uint256,uint8,uint256)":"3087a88c","processFinalFeedResult(uint256,uint256)":"42dd6d3e","processInitialFeedResult(uint256,uint256)":"e02e34f8","quotes(uint256)":"a61cf0d4","renounceRole(bytes32,address)":"36568abe","requestFeed(uint256,uint8)":"6dbe7579","revokeRole(bytes32,address)":"d547741f","sellerOrders(address,uint256)":"45cb4505","setConfig(address)":"20e3dbd4","setVaultManager(address)":"b543503e","submitQuote(uint256,uint256,uint256,uint8,uint8,uint8)":"7203a582","supportsInterface(bytes4)":"01ffc9a7","unpause()":"3f4ba83a","updateOrderDividend(uint256,uint256)":"44f1eaae","updateOrderMargin(uint256,uint256)":"1c0dd7e8","updateOrderMarginCallDeadline(uint256,uint256)":"d37e527b","updateOrderPrice(uint256,uint256)":"5e9e78d0","updateOrderSettledAt(uint256,uint256)":"15d92e33","updateOrderStatus(uint256,uint8)":"aab3196d","usdt()":"2f48ab7d","vaultManager()":"8a4adf24"}}}}}