{"contracts/core/OptionsSettlement.sol":{"OptionsSettlement":{"abi":[{"inputs":[{"internalType":"address","name":"_optionsCore","type":"address"},{"internalType":"address","name":"_config","type":"address"},{"internalType":"address","name":"_vaultManager","type":"address"},{"internalType":"address","name":"_usdt","type":"address"},{"internalType":"address","name":"_admin","type":"address"}],"stateMutability":"nonpayable","type":"constructor"},{"inputs":[],"name":"AccessControlBadConfirmation","type":"error"},{"inputs":[{"internalType":"address","name":"account","type":"address"},{"internalType":"bytes32","name":"neededRole","type":"bytes32"}],"name":"AccessControlUnauthorizedAccount","type":"error"},{"inputs":[],"name":"EnforcedPause","type":"error"},{"inputs":[],"name":"ExpectedPause","type":"error"},{"inputs":[],"name":"ReentrancyGuardReentrantCall","type":"error"},{"inputs":[{"internalType":"address","name":"token","type":"address"}],"name":"SafeERC20FailedOperation","type":"error"},{"anonymous":false,"inputs":[{"indexed":true,"internalType":"uint256","name":"orderId","type":"uint256"},{"indexed":true,"internalType":"uint256","name":"arbitrationId","type":"uint256"},{"indexed":false,"internalType":"address","name":"initiator","type":"address"},{"indexed":false,"internalType":"uint256","name":"originalPrice","type":"uint256"},{"indexed":false,"internalType":"uint256","name":"arbitrationPrice","type":"uint256"},{"indexed":false,"internalType":"bool","name":"resultChanged","type":"bool"},{"indexed":false,"internalType":"uint256","name":"initiatorReward","type":"uint256"},{"indexed":false,"internalType":"uint256","name":"timestamp","type":"uint256"}],"name":"ArbitrationResolved","type":"event"},{"anonymous":false,"inputs":[{"indexed":true,"internalType":"uint256","name":"orderId","type":"uint256"},{"indexed":false,"internalType":"uint256","name":"dividendPerShare","type":"uint256"},{"indexed":false,"internalType":"uint256","name":"totalDividend","type":"uint256"},{"indexed":false,"internalType":"uint256","name":"timestamp","type":"uint256"}],"name":"DividendRecorded","type":"event"},{"anonymous":false,"inputs":[{"indexed":true,"internalType":"uint256","name":"orderId","type":"uint256"},{"indexed":true,"internalType":"address","name":"seller","type":"address"},{"indexed":false,"internalType":"uint256","name":"currentMargin","type":"uint256"},{"indexed":false,"internalType":"uint256","name":"requiredMargin","type":"uint256"},{"indexed":false,"internalType":"uint256","name":"deadline","type":"uint256"}],"name":"MarginCallTriggered","type":"event"},{"anonymous":false,"inputs":[{"indexed":true,"internalType":"uint256","name":"orderId","type":"uint256"},{"indexed":true,"internalType":"address","name":"seller","type":"address"},{"indexed":false,"internalType":"uint256","name":"oldAmount","type":"uint256"},{"indexed":false,"internalType":"uint256","name":"newAmount","type":"uint256"},{"indexed":false,"internalType":"string","name":"changeType","type":"string"},{"indexed":false,"internalType":"uint256","name":"timestamp","type":"uint256"}],"name":"MarginChanged","type":"event"},{"anonymous":false,"inputs":[{"indexed":true,"internalType":"uint256","name":"orderId","type":"uint256"},{"indexed":false,"internalType":"string","name":"reason","type":"string"},{"indexed":false,"internalType":"uint256","name":"timestamp","type":"uint256"}],"name":"OrderCancelled","type":"event"},{"anonymous":false,"inputs":[{"indexed":true,"internalType":"uint256","name":"orderId","type":"uint256"},{"indexed":false,"internalType":"address","name":"beneficiary","type":"address"},{"indexed":false,"internalType":"uint256","name":"amount","type":"uint256"},{"indexed":false,"internalType":"uint256","name":"timestamp","type":"uint256"}],"name":"OrderLiquidated","type":"event"},{"anonymous":false,"inputs":[{"indexed":true,"internalType":"uint256","name":"orderId","type":"uint256"},{"indexed":false,"internalType":"uint256","name":"buyerPayout","type":"uint256"},{"indexed":false,"internalType":"uint256","name":"sellerPayout","type":"uint256"},{"indexed":false,"internalType":"uint256","name":"timestamp","type":"uint256"}],"name":"OrderSettled","type":"event"},{"anonymous":false,"inputs":[{"indexed":true,"internalType":"uint256","name":"orderId","type":"uint256"},{"indexed":false,"internalType":"enum OrderStatus","name":"oldStatus","type":"uint8"},{"indexed":false,"internalType":"enum OrderStatus","name":"newStatus","type":"uint8"},{"indexed":false,"internalType":"string","name":"reason","type":"string"},{"indexed":false,"internalType":"uint256","name":"timestamp","type":"uint256"}],"name":"OrderStatusChanged","type":"event"},{"anonymous":false,"inputs":[{"indexed":false,"internalType":"address","name":"account","type":"address"}],"name":"Paused","type":"event"},{"anonymous":false,"inputs":[{"indexed":true,"internalType":"bytes32","name":"role","type":"bytes32"},{"indexed":true,"internalType":"bytes32","name":"previousAdminRole","type":"bytes32"},{"indexed":true,"internalType":"bytes32","name":"newAdminRole","type":"bytes32"}],"name":"RoleAdminChanged","type":"event"},{"anonymous":false,"inputs":[{"indexed":true,"internalType":"bytes32","name":"role","type":"bytes32"},{"indexed":true,"internalType":"address","name":"account","type":"address"},{"indexed":true,"internalType":"address","name":"sender","type":"address"}],"name":"RoleGranted","type":"event"},{"anonymous":false,"inputs":[{"indexed":true,"internalType":"bytes32","name":"role","type":"bytes32"},{"indexed":true,"internalType":"address","name":"account","type":"address"},{"indexed":true,"internalType":"address","name":"sender","type":"address"}],"name":"RoleRevoked","type":"event"},{"anonymous":false,"inputs":[{"indexed":false,"internalType":"address","name":"account","type":"address"}],"name":"Unpaused","type":"event"},{"inputs":[],"name":"DEFAULT_ADMIN_ROLE","outputs":[{"internalType":"bytes32","name":"","type":"bytes32"}],"stateMutability":"view","type":"function"},{"inputs":[{"internalType":"uint256","name":"orderId","type":"uint256"},{"internalType":"uint256","name":"amount","type":"uint256"}],"name":"addMargin","outputs":[],"stateMutability":"nonpayable","type":"function"},{"inputs":[{"internalType":"uint256","name":"orderId","type":"uint256"}],"name":"cancelOrderDueToFeedTimeout","outputs":[],"stateMutability":"nonpayable","type":"function"},{"inputs":[],"name":"config","outputs":[{"internalType":"contract Config","name":"","type":"address"}],"stateMutability":"view","type":"function"},{"inputs":[{"internalType":"uint256","name":"orderId","type":"uint256"}],"name":"earlyExercise","outputs":[],"stateMutability":"nonpayable","type":"function"},{"inputs":[{"internalType":"uint256","name":"orderId","type":"uint256"}],"name":"forceLiquidate","outputs":[],"stateMutability":"nonpayable","type":"function"},{"inputs":[{"internalType":"uint256","name":"orderId","type":"uint256"}],"name":"forceLiquidateMarginCall","outputs":[],"stateMutability":"nonpayable","type":"function"},{"inputs":[{"internalType":"bytes32","name":"role","type":"bytes32"}],"name":"getRoleAdmin","outputs":[{"internalType":"bytes32","name":"","type":"bytes32"}],"stateMutability":"view","type":"function"},{"inputs":[{"internalType":"bytes32","name":"role","type":"bytes32"},{"internalType":"address","name":"account","type":"address"}],"name":"grantRole","outputs":[],"stateMutability":"nonpayable","type":"function"},{"inputs":[{"internalType":"bytes32","name":"role","type":"bytes32"},{"internalType":"address","name":"account","type":"address"}],"name":"hasRole","outputs":[{"internalType":"bool","name":"","type":"bool"}],"stateMutability":"view","type":"function"},{"inputs":[{"internalType":"uint256","name":"orderId","type":"uint256"}],"name":"initiateArbitration","outputs":[],"stateMutability":"payable","type":"function"},{"inputs":[],"name":"optionsCore","outputs":[{"internalType":"contract IOptionsCoreForSettlement","name":"","type":"address"}],"stateMutability":"view","type":"function"},{"inputs":[],"name":"pause","outputs":[],"stateMutability":"nonpayable","type":"function"},{"inputs":[],"name":"paused","outputs":[{"internalType":"bool","name":"","type":"bool"}],"stateMutability":"view","type":"function"},{"inputs":[{"internalType":"uint256","name":"orderId","type":"uint256"},{"internalType":"uint256","name":"dividendPerShare","type":"uint256"}],"name":"recordDividend","outputs":[],"stateMutability":"nonpayable","type":"function"},{"inputs":[{"internalType":"bytes32","name":"role","type":"bytes32"},{"internalType":"address","name":"callerConfirmation","type":"address"}],"name":"renounceRole","outputs":[],"stateMutability":"nonpayable","type":"function"},{"inputs":[{"internalType":"uint256","name":"orderId","type":"uint256"},{"internalType":"uint256","name":"arbitrationPrice","type":"uint256"},{"internalType":"address[]","name":"arbitrators","type":"address[]"}],"name":"resolveArbitration","outputs":[],"stateMutability":"nonpayable","type":"function"},{"inputs":[{"internalType":"bytes32","name":"role","type":"bytes32"},{"internalType":"address","name":"account","type":"address"}],"name":"revokeRole","outputs":[],"stateMutability":"nonpayable","type":"function"},{"inputs":[{"internalType":"address","name":"_config","type":"address"}],"name":"setConfig","outputs":[],"stateMutability":"nonpayable","type":"function"},{"inputs":[{"internalType":"address","name":"_optionsCore","type":"address"}],"name":"setOptionsCore","outputs":[],"stateMutability":"nonpayable","type":"function"},{"inputs":[{"internalType":"uint256","name":"orderId","type":"uint256"}],"name":"settle","outputs":[],"stateMutability":"nonpayable","type":"function"},{"inputs":[{"internalType":"bytes4","name":"interfaceId","type":"bytes4"}],"name":"supportsInterface","outputs":[{"internalType":"bool","name":"","type":"bool"}],"stateMutability":"view","type":"function"},{"inputs":[{"internalType":"uint256","name":"orderId","type":"uint256"},{"internalType":"bool","name":"isCrypto","type":"bool"}],"name":"triggerMarginCall","outputs":[],"stateMutability":"nonpayable","type":"function"},{"inputs":[],"name":"unpause","outputs":[],"stateMutability":"nonpayable","type":"function"},{"inputs":[],"name":"usdt","outputs":[{"internalType":"contract IERC20","name":"","type":"address"}],"stateMutability":"view","type":"function"},{"inputs":[],"name":"vaultManager","outputs":[{"internalType":"contract VaultManager","name":"","type":"address"}],"stateMutability":"view","type":"function"},{"inputs":[{"internalType":"uint256","name":"orderId","type":"uint256"},{"internalType":"uint256","name":"amount","type":"uint256"}],"name":"withdrawExcessMargin","outputs":[],"stateMutability":"nonpayable","type":"function"}],"evm":{"bytecode":{"linkReferences":{},"object":"608034620000fc57601f6200375b38819003918201601f19168301916001600160401b03831184841017620001015780849260a094604052833981010312620000fc578062000052620000eb9262000117565b90620000616020820162000117565b90620000706040820162000117565b906200008d6080620000856060840162000117565b920162000117565b936001805560025490610100600160a81b039060081b1690610100600160a81b0319161760025560018060a01b0380928160018060a01b0319951685600354161760035516836004541617600455169060055416176005556200012c565b5060405161359d9081620001be8239f35b600080fd5b634e487b7160e01b600052604160045260246000fd5b51906001600160a01b0382168203620000fc57565b6001600160a01b031660008181527fad3228b676f7d3cd4284a5443f17f1962b36e491b30a40b2405849e597ba5fb5602052604081205490919060ff16620001b957818052816020526040822081835260205260408220600160ff1982541617905533917f2f8788117e7eff1d82e926ec794901d17c78024a50270940304540a733656f0d8180a4600190565b509056fe608080604052600436101561001357600080fd5b600090813560e01c90816301ffc9a714612d7e5750806320e3dbd414612d39578063248a9ca314612d0d5780632ce5ed8c14612cc35780632f2ff15d14612c865780632f48ab7d14612c5d5780633280890b1461282657806336568abe146127de5780633f4ba83a1461277357806346f8226c146124de57806353b461c81461200b5780635c975abb14611fe857806366d6363314611fbb5780636af58cff14611c575780636ca14389146118cf57806377e9bad9146116b657806379502c551461168d5780638456cb59146116325780638a4adf24146116095780638df8280014610f7057806391d1485414610f25578063a217fddf14610f09578063d1e745b114610cb7578063d41194b814610a8e578063d547741f14610a4d578063d70daf22146104125763eefaa8331461014a57600080fd5b3461040f57604036600319011261040f5760043560249081359182151580930361040b57610176613376565b61017e613358565b60025460405163d09ef24160e01b8152600481018490526001600160a01b03929160081c83169086818481855afa9081156104005787916103de575b50610380810151600b8110156103cb5760046101d691146132b6565b610320810151610375576127106101f86101c0830151610200840151906132ff565b04926101e082019684885110156103315790889160208760035416918360405180948193630deecde360e11b835260048301525afa9081156103265783916102ea575b506102469042613328565b93803b156102e6578491604489858094604051968795869463d37e527b60e01b865260048601528401525af180156102db576102c3575b50507f87f6bf1a6c3f04d192803df26e64179e122fd70e7acbc21d5326ecb35a4919489360406102b992015116955191604051938493846133e8565b0390a36001805580f35b6102cc90612f86565b6102d757863861027d565b8680fd5b6040513d84823e3d90fd5b8280fd5b9250506020823d821161031e575b8161030560209383612f99565b81010312610319576102468992519061023b565b600080fd5b3d91506102f8565b6040513d85823e3d90fd5b60405162461bcd60e51b815260206004820152601d818401527f536574746c656d656e743a206d617267696e2073756666696369656e740000006044820152606490fd5b60405162461bcd60e51b8152602060048201526029818501527f536574746c656d656e743a206d617267696e2063616c6c20616c7265616479206044820152681d1c9a59d9d95c995960ba1b6064820152608490fd5b634e487b7160e01b885260216004528388fd5b6103fa91503d8089833e6103f28183612f99565b81019061304e565b386101ba565b6040513d89823e3d90fd5b8380fd5b80fd5b503461040f5760208060031936011261075357600435610430613376565b610438613358565b60025460405163d09ef24160e01b81526004810183905260249360089290921c6001600160a01b03908116929186818781875afa908115610400578791610a33575b5061038081018051600b811015610a20576002148015610a0c575b156109b4576103c0820180511561096657600490518585600354166040519384809263c7d7c5fd60e01b82525afa90811561095b578a9161092a575b6104db9250613328565b4211156108d0575193600b8510156108bd5790818893923b1561040b57838860448983600a95604051968795869463aab3196d60e01b865260048601528401525af19081156107575784916108a9575b50508160025460081c16803b1561040b578380916044604051809481936315d92e3360e01b83528c60048401528d42908401525af1801561075757610895575b50600496848360035416604051998a8092632bec66e560e01b82525afa978815610757578498610862575b506127106105aa6101e08401998a516132ff565b046105b6818a51613399565b908460045416908588860151169186600554166101a0870151823b1561083f576105fb928a9283604051809681958294636924faa760e11b9b8c8552600485016133c6565b03925af1908115610857578891610843575b5050806107d0575b5081610766575b50508260025460081c16803b156107625784916044898480946040519687958694630381bafd60e31b865260048601528401525af1908115610757578791610735575b5060c09493929181600080516020613548833981519152600080516020613528833981519152986040947fb848a62ef7171019d243ed8f5b8e1e6c32cafed0b7fc99da26cb2fc2e7d533ec8651878152806106bb8982016134e0565b428d8301520390a26106cf85518092613335565b600a88820152608085820152806106e8608082016134e0565b4260608301520390a201511695519160405192835282015260806040820152601060808201526f1c195b985b1d1e57d919591d58dd195960821b60a0820152426060820152a36001805580f35b8493929594915061074590612f86565b61075357909192853861065f565b5080fd5b6040513d86823e3d90fd5b8480fd5b84600454168560408601511690866005541691813b156107cc5788809461079b604051978896879586948552600485016133c6565b03925af19081156107c15785911561061c576107b690612f86565b61040b57833861061c565b6040513d87823e3d90fd5b8880fd5b8560045416908660408701511690876005541692803b1561083f5761080f938a809460405196879586948593630307138360e61b8552600485016133c6565b03925af1908115610400578791610827575b50610615565b61083090612f86565b61083b578538610821565b8580fd5b8980fd5b61084c90612f86565b6102d757863861060d565b6040513d8a823e3d90fd5b85809299508195503d831161088e575b61087c8183612f99565b81010312610319578792519638610596565b503d610872565b61089f8491612f86565b6102e6573861056b565b6108b290612f86565b6102e657823861052b565b634e487b7160e01b885260216004528688fd5b60405162461bcd60e51b815260048101859052602d818901527f536574746c656d656e743a20696e697469616c206665656420646561646c696e60448201526c19481b9bdd081c995858da1959609a1b6064820152608490fd5b90508582813d8311610954575b6109418183612f99565b81010312610319576104db9151906104d1565b503d610937565b6040513d8c823e3d90fd5b60405162461bcd60e51b8152600481018690526021818a01527f536574746c656d656e743a206f72646572206e6f74206d6174636865642079656044820152601d60fa1b6064820152608490fd5b60405162461bcd60e51b815260048101859052602b818901527f536574746c656d656e743a206f72646572206e6f74206177616974696e67206960448201526a1b9a5d1a585b081999595960aa1b6064820152608490fd5b508051600b811015610a2057600314610495565b634e487b7160e01b895260216004528789fd5b610a4791503d8089833e6103f28183612f99565b3861047a565b503461040f57604036600319011261040f57610a8a600435610a6d612de9565b9080845283602052610a856001604086200154612e6d565b612f11565b5080f35b503461040f57610a9d36612dff565b90610aa6613376565b610aae613358565b8115610c665760025460405163d09ef24160e01b8152600481018390526001600160a01b03939185908290602490829060081c88165afa9081156107c1578591610c4c575b50610b05846040830151163314613434565b610380810151600b811015610c385790610b2460046101e093146132b6565b0190848251948060045416816005541690803b1561040b57848491610b619383604051809681958294630ac94d9360e31b845233600485016133c6565b03925af1908115610326578391610c24575b505060025460081c16610b87838551613328565b813b156102e6578291604483926040519485938492630381bafd60e31b84528b600485015260248401525af180156102db57610c10575b5050610bca9151613328565b604051928352602083015260806040830152600360808301526218591960ea1b60a083015242606083015260008051602061352883398151915260c03393a36001805580f35b610c1990612f86565b610762578438610bbe565b610c2d90612f86565b610753578138610b73565b634e487b7160e01b86526021600452602486fd5b610c6091503d8087833e6103f28183612f99565b38610af3565b60405162461bcd60e51b815260206004820152602360248201527f536574746c656d656e743a20616d6f756e74206d75737420626520706f73697460448201526269766560e81b6064820152608490fd5b503461040f57610cc636612dff565b90610ccf613376565b610cd7613358565b60025460405163d09ef24160e01b81526004810183905260089190911c6001600160a01b0390811693908583602481885afa928315610efe578693610ee2575b50610d29816040850151163314613434565b610380830151600b811015610ece576004610d4491146132b6565b610d5b6101e08401936101c0855191015190613399565b8211610e70578590835195610d708488613399565b813b1561040b578391604483926040519485938492630381bafd60e31b84528c600485015260248401525af1908115610326578391610e5c575b505060045460055482169116803b156102e657838391610de29383604051809681958294636924faa760e11b845233600485016133c6565b03925af180156102db57610e48575b5050610dfd9151613399565b6040519283526020830152608060408301526008608083015267776974686472617760c01b60a083015242606083015260008051602061352883398151915260c03393a36001805580f35b610e5190612f86565b610762578438610df1565b610e6590612f86565b610753578138610daa565b60405162461bcd60e51b815260206004820152603060248201527f536574746c656d656e743a2063616e6e6f742077697468647261772062656c6f60448201526f3b9034b734ba34b0b61036b0b933b4b760811b6064820152608490fd5b634e487b7160e01b87526021600452602487fd5b610ef79193503d8088833e6103f28183612f99565b9138610d17565b6040513d88823e3d90fd5b503461040f578060031936011261040f57602090604051908152f35b503461040f57604036600319011261040f576040610f41612de9565b91600435815280602052209060018060a01b0316600052602052602060ff604060002054166040519015158152f35b503461040f57602036600319011261040f57610f8a613376565b610f92613358565b60025460405163d09ef24160e01b815260048035908201529082908290602490829060081c6001600160a01b03165afa9081156102db5782916115ef575b50610380810151600b8110156115db5760060361158b576104008101511561154a5760e0810151918092818091815b8151811015611108576001600160f81b0319601760f91b81611021848661340d565b5116146110fa57600360fc1b81611038848661340d565b5116101590816110df575b50611057575b611052906133fe565b610fff565b9091929580600a810204600a14811517156110cb57602f19611079838561340d565b5160f81c0160ff908181116110b75791600a61109c928a97969594169102613328565b961561104957936110af611052916133fe565b949050611049565b634e487b7160e01b86526011600452602486fd5b634e487b7160e01b84526011600452602484fd5b603960f81b91506110f0838561340d565b5116111538611043565b5092506110526001936133fe565b8286888760128110611523575b5080610340830151151580611515575b6114ec575b50906104008101519183926101008301516002811015610c38576114c257818111611496575b50505b82821561148857506101e081015191828111611481575b806111759193613399565b905b82611366575b816112f1575b610380015191600b8310156112dd57600254849060081c6001600160a01b0316803b156107535781809160446040518094819363aab3196d60e01b83526004356004840152600860248401525af180156102db576112c9575b5060025460081c6001600160a01b0316803b15610753578180916044604051809481936315d92e3360e01b835260043560048401524260248401525af180156102db576112b5575b505061125d7f6da40291eeb646b436d05c420b5b9f010d81df95bce846d2c3b3d45f56df19ec91604051918291600435954291846133e8565b0390a261126d6040518092613335565b600860208201526080604082015260076080820152661cd95d1d1b195960ca1b60a082015242606082015260008051602061354883398151915260c060043592a26001805580f35b6112be90612f86565b61040b578385611224565b6112d290612f86565b61040b5783856111dc565b634e487b7160e01b84526021600452602484fd5b600454604082015160055486926001600160a01b03908116929181169116823b1561040b5761133c92849283889360405196879586948593636924faa760e11b8552600485016133c6565b03925af180156102db57611352575b5050611183565b61135b90612f86565b61040b57838561134b565b6004546040820151602083018051600554889492936001600160a01b03918216939082169282169116803b1561083b5785928360e49260405196879586946305fe3a8b60e31b86526004860152602485015260448401528b606484015260a06084840152601160a4840152701cd95d1d1b195b595b9d081c185e5bdd5d607a1b60c48401525af190811561032657839161146d575b505060045490516005546001600160a01b03928316929081169116823b1561040b5761144392849283899360405196879586948593636924faa760e11b8552600485016133c6565b03925af180156102db57611459575b505061117d565b61146290612f86565b61040b578385611452565b61147690612f86565b6107535781876113fb565b508161116a565b91506101e081015190611177565b6114ba9293506114a9826114b592613399565b610120850151906132ff565b6133a6565b908380611150565b8082116114d1575b5050611153565b6114e49293506114a96114b59183613399565b9083806114ca565b6104208301519081101561150c5761150391613399565b905b908361112a565b50508190611505565b506104208301511515611125565b601203601281116110cb57604d81116110cb579061154491600a0a906132ff565b83611115565b60405162461bcd60e51b8152602060048201526019602482015278536574746c656d656e743a206e6f206665656420707269636560381b6044820152606490fd5b60405162461bcd60e51b815260206004820152602260248201527f536574746c656d656e743a206e6f742070656e64696e6720736574746c656d656044820152611b9d60f21b6064820152608490fd5b634e487b7160e01b83526021600452602483fd5b61160391503d8084833e6103f28183612f99565b38610fd0565b503461040f578060031936011261040f576004546040516001600160a01b039091168152602090f35b503461040f578060031936011261040f5761164b612e15565b611653613358565b600160ff1960025416176002557f62e78cea01bee320cd4e420270b5ea74000d11b0c9f74754ebdbfc544b05a2586020604051338152a180f35b503461040f578060031936011261040f576003546040516001600160a01b039091168152602090f35b503461040f576116c536612dff565b6116cd613376565b6116d5613358565b8280528260205260408320336000526020526116f860ff60406000205416613479565b60025460405163d09ef24160e01b81526004810184905260089190911c6001600160a01b031691908481602481865afa9081156107c15785916118b5575b50610380810151600b811015610c3857600461175291146132b6565b6103408101511561185c5781156118095761042085910192611775838551613328565b813b156102e6578291604483926040519485938492632278f55760e11b84528b600485015260248401525af180156102db576117f5575b50506117da817fdd46d8cd4968afb89542d91ba59208e869e45ff03dcda531aa39fd6888a174c39351613328565b6117eb6040519283924291846133e8565b0390a26001805580f35b6117fe90612f86565b61040b5783386117ac565b60405162461bcd60e51b815260206004820152602560248201527f536574746c656d656e743a206469766964656e64206d75737420626520706f73604482015264697469766560d81b6064820152608490fd5b60405162461bcd60e51b815260206004820152602b60248201527f536574746c656d656e743a206469766964656e642061646a7573746d656e742060448201526a1b9bdd08195b98589b195960aa1b6064820152608490fd5b6118c991503d8087833e6103f28183612f99565b38611736565b503461040f57602036600319011261040f576004356118ec613376565b6118f4613358565b60025460405163d09ef24160e01b8152600481018390526001600160a01b0360089290921c82169160249185818481875afa908115610efe578691611c3d575b5061038081018051600b811015611c2a57600461195191146132b6565b5193600b851015611c17579081879493923b156107625784809160446040518094819363aab3196d60e01b83528c600484015260098a8401525af19081156107c1578591611c03575b50508160025460081c16803b15610762578480916044604051809481936315d92e3360e01b83528c6004840152428a8401525af19081156107c1578591611bef575b50506101e0810192835180611ae3575b508260025460081c16803b1561083b5785916044898480946040519a8b958694630381bafd60e31b865260048601528401525af1948515611ad6578795611ab9575b5050600080516020613548833981519152949260c094926020600080516020613508833981519152930151169051611a6d6040519283924291846134c2565b0390a2611a7d6040518092613335565b6009602082015260806040820152601060808201526f199bdc98d9481b1a5c5d5a59185d195960821b60a0820152426060820152a26001805580f35b611ac7919296949550612f86565b61083b57849291938638611a2e565b50604051903d90823e3d90fd5b836004541690846040850151169060208501928684511690876005541693813b15611beb578a60e492819560405197889687956305fe3a8b60e31b875260048701528b8601526044850152606484015260a06084840152601260a4840152711b1a5c5d5a59185d1a5bdb881c185e5bdd5d60721b60c48401525af1908115610400578791611bd7575b5050838060045416915116846005541691865190803b156107cc57611bab9389809460405196879586948593636924faa760e11b8552600485016133c6565b03925af1908115610efe578691611bc3575b506119ec565b611bcc90612f86565b610762578438611bbd565b611be090612f86565b61083b578538611b6c565b8a80fd5b611bf890612f86565b61040b5783386119dc565b611c0c90612f86565b61040b57833861199a565b634e487b7160e01b875260216004528387fd5b634e487b7160e01b885260216004528488fd5b611c5191503d8088833e6103f28183612f99565b38611934565b506020806003193601126107535760043590611c71613376565b611c79613358565b6002549060405163d09ef24160e01b81528360048201526024908581838160018060a01b03809860081c165afa908115610efe578691611fa1575b506103808101908151600b8110156103cb57600603611f4d5784848201511633148015611f3e575b15611efa57806103006103e0611cf793015191015190613328565b4211611ea8578360055416600487868254168688600354166040519485809263039f4f7560e31b82525afa80156102db5787938391611e74575b50611d64611d5691604051928391878301956323b872dd60e01b8752338c85016133c6565b03601f198101835282612f99565b519082855af115610efe5786513d611e6b5750803b155b611e5457505192600b841015611e415790859160025460081c1690813b156102e65760076044849283604051958694859363aab3196d60e01b85528c60048601528401525af180156102db57611e2d575b505060008051602061354883398151915291600760c092611df06040518094613335565b820152608060408201526015608082015274185c989a5d1c985d1a5bdb881a5b9a5d1a585d1959605a1b60a0820152426060820152a26001805580f35b611e3690612f86565b61040b578338611dcc565b50634e487b7160e01b8552602160045284fd5b905060405190635274afe760e01b82526004820152fd5b60011415611d7b565b9250509181813d8311611ea1575b611e8c8183612f99565b81010312610319575185918991611d64611d31565b503d611e82565b60405162461bcd60e51b8152600481018490526025818401527f536574746c656d656e743a206172626974726174696f6e2077696e646f7720636044820152641b1bdcd95960da1b6064820152608490fd5b60405162461bcd60e51b815260048101859052601e818501527f536574746c656d656e743a206e6f7420706172747920746f206f7264657200006044820152606490fd5b50846040820151163314611cdc565b60405162461bcd60e51b8152600481018590526027818501527f536574746c656d656e743a2063616e6e6f7420696e69746961746520617262696044820152663a3930ba34b7b760c91b6064820152608490fd5b611fb591503d8088833e6103f28183612f99565b38611cb4565b503461040f578060031936011261040f5760025460405160089190911c6001600160a01b03168152602090f35b503461040f578060031936011261040f57602060ff600254166040519015158152f35b503461040f57602080600319360112610753576004359061202a613376565b612032613358565b60025460405163d09ef24160e01b8152600481018490526001600160a01b0360089290921c8216929160249186818481885afa9081156104005787916124c4575b5061038081018051600b8110156123dd57600461209091146132b6565b61032082018051156124765751421115612434576127106120bc6101c0840151610200850151906132ff565b04906101e0830191825110156123f0575195600b8710156123dd57908189959493923b1561083b5785809160448b604051948593849263aab3196d60e01b8452600484015260098b8401525af1908115610efe5786916123c9575b50508260025460081c16803b1561083b5785809160448b60405194859384926315d92e3360e01b84526004840152428b8401525af1908115610efe5786916123b5575b50505192836122a6575b8260025460081c16803b1561083b5785809160448b6040519485938492630381bafd60e31b8452600484015281888401525af1908115610efe578691612292575b50508260025460081c16803b1561083b57859160448a8480946040519a8b95869463d37e527b60e01b865260048601528401525af1948515611ad6578895612273575b505092600080516020613508833981519152600993869360c0976000805160206135488339815191529997015116906122286040519283924291846134c2565b0390a26122386040518094613335565b8201526080604082015260136080820152721b585c99da5b8818d85b1b081d1a5b595bdd5d606a1b60a0820152426060820152a26001805580f35b61228291929693979550612f86565b6102d757929385929487386121e8565b61229b90612f86565b6107625784386121a5565b826004541683604084015116908784019185835116866005541692803b1561083f5789928360e49260405196879586946305fe3a8b60e31b865260048601528a85015260448401528b606484015260a06084840152601760a48401527636b0b933b4b71031b0b636103634b8bab4b230ba34b7b760491b60c48401525af19081156104005787916123a1575b5050838060045416915116846005541690823b1561239d5761237092889283899360405196879586948593636924faa760e11b8552600485016133c6565b03925af1908115610efe578691612389575b5050612164565b61239290612f86565b610762578438612382565b8780fd5b6123aa90612f86565b61083b578538612332565b6123be90612f86565b61076257843861215a565b6123d290612f86565b610762578438612117565b634e487b7160e01b895260216004528489fd5b60405162461bcd60e51b815260048101879052601f818701527f536574746c656d656e743a206d617267696e2077617320726573746f726564006044820152606490fd5b606484866040519162461bcd60e51b83528160048401528201527f536574746c656d656e743a20646561646c696e65206e6f7420726561636865646044820152fd5b60405162461bcd60e51b8152600481018790526021818701527f536574746c656d656e743a206e6f206d617267696e2063616c6c2061637469766044820152606560f81b6064820152608490fd5b6124d891503d8089833e6103f28183612f99565b38612073565b503461040f5760208060031936011261075357600435906124fd613376565b612505613358565b60025460405163d09ef24160e01b8152600481018490526024929160081c6001600160a01b03908116919086828681865afa918215610400578792612757575b5081511561271757838201511633036126db576103808101908151600b8110156126c857600461257591146132b6565b60ff6102a08201511690818004600114821517156126b557906103c061259c920151613328565b4210612666575192600b84101561265457908591813b156102e65760056044849283604051958694859363aab3196d60e01b85528c60048601528401525af180156102db57612640575b505060008051602061354883398151915291600560c09261260a6040518094613335565b82015260806040820152600e60808201526d6561726c7920657865726369736560901b60a0820152426060820152a26001805580f35b61264990612f86565b61040b5783386125e6565b634e487b7160e01b8652602160045285fd5b60405162461bcd60e51b8152600481018490526022818601527f536574746c656d656e743a2065786572636973652064656c6179206e6f74206d604482015261195d60f21b6064820152608490fd5b634e487b7160e01b885260116004528588fd5b634e487b7160e01b885260216004528588fd5b60405162461bcd60e51b8152600481018490526015818601527429b2ba3a3632b6b2b73a1d103737ba10313abcb2b960591b6044820152606490fd5b60405162461bcd60e51b8152600481018590526019818701527829b2ba3a3632b6b2b73a1d1034b73b30b634b21037b93232b960391b6044820152606490fd5b61276c9192503d8089833e6103f28183612f99565b9038612545565b503461040f578060031936011261040f5761278c612e15565b60025460ff8116156127cc5760ff19166002557f5db9ee0a495bf2e6ff9c91a7834c1ba4fdd244a5e8aa4e537bd38aeae4b073aa6020604051338152a180f35b604051638dfc202b60e01b8152600490fd5b503461040f57604036600319011261040f576127f8612de9565b336001600160a01b0382160361281457610a8a90600435612f11565b60405163334bd91960e11b8152600490fd5b503461040f57606036600319011261040f57604480356001600160401b0381116102e657366023820112156102e6576004810135906001600160401b03821161040b57602436918360051b0101116102e657612880613376565b612888613358565b82805260208381526040842033855281526128a960ff604086205416613479565b60025460405163d09ef24160e01b815260048035908201529085908290602490829060081c6001600160a01b03165afa9081156107c1578591612c43575b506103808101928351600b811015610ece57600703612bf35715612bb257610400810151908260018060a01b03910151169085938160243503612b4c575b600254879060081c6001600160a01b0316803b156107535781809189604051809481936305e9e78d60e41b8352600435600484015260243560248401525af180156102db57612b38575b50505194600b861015610ece5760025487919060081c6001600160a01b0316803b156102e657828091836040518094819363aab3196d60e01b83526004356004840152600860248401525af1908115610326578391612b24575b505060025460081c6001600160a01b031690813b156102e65782918291604051809481936315d92e3360e01b835260043560048401524260248401525af180156102db57612b10575b5050604080516004358582019081524282840152918152909460608201926001600160401b03841183851017612afa57600896846040528351902094845280608084015260243560a0840152602435141560c083015260e0820152610100429101527fb3560d930da64161657f7700f7109520a24b93d7ff2363739ee324a1e0d6bf8760c060043592a3612aa96040518094613335565b820152608060408201526014608082015273185c989a5d1c985d1a5bdb881c995cdbdb1d995960621b60a082015242606082015260008051602061354883398151915260c060043592a26001805580f35b634e487b7160e01b600052604160045260246000fd5b612b1990612f86565b61083b578538612a12565b612b2d90612f86565b6107535781386129c9565b612b4190612f86565b6102d757863861296f565b6004546798a7d9b8314c0000955087906001600160a01b0316803b1561075357819088604051809481936315490ebb60e01b83528960048401528b60248401525af1801561085757612b9f575b50612925565b612bab90979197612f86565b9538612b99565b60405162461bcd60e51b815260048101839052601a602482015279536574746c656d656e743a206e6f2061726269747261746f727360301b81860152606490fd5b60405162461bcd60e51b8152600481018490526024808201527f536574746c656d656e743a206f72646572206e6f7420696e206172626974726181870152633a34b7b760e11b6064820152608490fd5b612c5791503d8087833e6103f28183612f99565b386128e7565b503461040f578060031936011261040f576005546040516001600160a01b039091168152602090f35b503461040f57604036600319011261040f57610a8a600435612ca6612de9565b9080845283602052612cbe6001604086200154612e6d565b612e93565b503461040f57602036600319011261040f57612cdd612dd3565b612ce5612e15565b60028054610100600160a81b03191660089290921b610100600160a81b031691909117905580f35b503461040f57602036600319011261040f57600160406020926004358152808452200154604051908152f35b503461040f57602036600319011261040f57612d53612dd3565b612d5b612e15565b600380546001600160a01b0319166001600160a01b039290921691909117905580f35b9050346107535760203660031901126107535760043563ffffffff60e01b81168091036102e65760209250637965db0b60e01b8114908115612dc2575b5015158152f35b6301ffc9a760e01b14905038612dbb565b600435906001600160a01b038216820361031957565b602435906001600160a01b038216820361031957565b6040906003190112610319576004359060243590565b3360009081527fad3228b676f7d3cd4284a5443f17f1962b36e491b30a40b2405849e597ba5fb5602052604081205460ff1615612e4f5750565b6044906040519063e2517d3f60e01b82523360048301526024820152fd5b80600052600060205260406000203360005260205260ff6040600020541615612e4f5750565b9060009180835282602052604083209160018060a01b03169182845260205260ff60408420541615600014612f0c57808352826020526040832082845260205260408320600160ff198254161790557f2f8788117e7eff1d82e926ec794901d17c78024a50270940304540a733656f0d339380a4600190565b505090565b9060009180835282602052604083209160018060a01b03169182845260205260ff604084205416600014612f0c5780835282602052604083208284526020526040832060ff1981541690557ff6391f5c32d9c69d2a47ea670b442974b53935d1edc7fd64eb21e047a839171b339380a4600190565b6001600160401b038111612afa57604052565b601f909101601f19168101906001600160401b03821190821017612afa57604052565b51906001600160a01b038216820361031957565b919080601f84011215610319578251906001600160401b038211612afa5760405191602091613008601f8301601f1916840185612f99565b8184528282870101116103195760005b81811061302d57508260009394955001015290565b8581018301518482018401528201613018565b519060ff8216820361031957565b6020818303126103195780516001600160401b03918282116103195701906104409283838203126103195760405193840184811083821117612afa576040528251845261309d60208401612fbc565b60208501526130ae60408401612fbc565b6040850152606083015182811161031957816130cb918501612fd0565b6060850152608083015182811161031957816130e8918501612fd0565b608085015260a08301518281116103195781613105918501612fd0565b60a085015260c08301518281116103195781613122918501612fd0565b60c085015260e08301519182116103195761313e918301612fd0565b60e0830152610100808201519060028210156103195783015261012080820151908301526101408082015190830152610160808201519083015261018080820151908301526101a080820151908301526101c080820151908301526101e080820151908301526102008082015190830152610220808201519083015261024080820151906003821015610319578301526102606131dc818301613040565b908301526102806131ee818301613040565b908301526102a0613200818301613040565b908301526102c080820151906003821015610319578301526102e0613226818301612fbc565b9083015261030080820151908301526103208082015190830152610340808201519081151582036103195783015261036080820151906002821015610319578301526103808082015190600b821015610319578301526103a080820151908301526103c080820151908301526103e080820151908301526104008082015190830152610420809101519082015290565b156132bd57565b60405162461bcd60e51b815260206004820152601a602482015279536574746c656d656e743a206f72646572206e6f74206c69766560301b6044820152606490fd5b8181029291811591840414171561331257565b634e487b7160e01b600052601160045260246000fd5b9190820180921161331257565b90600b8210156133425752565b634e487b7160e01b600052602160045260246000fd5b60ff6002541661336457565b60405163d93c066560e01b8152600490fd5b600260015414613387576002600155565b604051633ee5aeb560e01b8152600490fd5b9190820391821161331257565b81156133b0570490565b634e487b7160e01b600052601260045260246000fd5b6001600160a01b03918216815291166020820152604081019190915260600190565b6040919493926060820195825260208201520152565b60001981146133125760010190565b90815181101561341e570160200190565b634e487b7160e01b600052603260045260246000fd5b1561343b57565b60405162461bcd60e51b815260206004820152601660248201527529b2ba3a3632b6b2b73a1d103737ba1039b2b63632b960511b6044820152606490fd5b1561348057565b60405162461bcd60e51b815260206004820152601a60248201527914d95d1d1b195b595b9d0e881b9bdd08185d5d1a1bdc9a5e995960321b6044820152606490fd5b604091949392606082019560018060a01b0316825260208201520152565b60148152731a5b9a5d1a585b0819995959081d1a5b595bdd5d60621b60208201526040019056feb009a900f426c0c9177acb33a8a806b35c53ac253d1ddf22d687986fc6b72ce42cf5022bdd8fefe86d09412967e028fa9a8cf1e1a3989d47dfd9fc64a22afa86ce3a31baf9956e086200ee7044a75c2befbd050912798b7bcd25d05831ab9592a26469706673582212205fd76c84cfeefadc9dc91fb7ecf110bbd608a11f405e3ec623eebb538348649e64736f6c63430008140033","opcodes":"PUSH1 0x80 CALLVALUE PUSH3 0xFC JUMPI PUSH1 0x1F PUSH3 0x375B CODESIZE DUP2 SWAP1 SUB SWAP2 DUP3 ADD PUSH1 0x1F NOT AND DUP4 ADD SWAP2 PUSH1 0x1 PUSH1 0x1 PUSH1 0x40 SHL SUB DUP4 GT DUP5 DUP5 LT OR PUSH3 0x101 JUMPI DUP1 DUP5 SWAP3 PUSH1 0xA0 SWAP5 PUSH1 0x40 MSTORE DUP4 CODECOPY DUP2 ADD SUB SLT PUSH3 0xFC JUMPI DUP1 PUSH3 0x52 PUSH3 0xEB SWAP3 PUSH3 0x117 JUMP JUMPDEST SWAP1 PUSH3 0x61 PUSH1 0x20 DUP3 ADD PUSH3 0x117 JUMP JUMPDEST SWAP1 PUSH3 0x70 PUSH1 0x40 DUP3 ADD PUSH3 0x117 JUMP JUMPDEST SWAP1 PUSH3 0x8D PUSH1 0x80 PUSH3 0x85 PUSH1 0x60 DUP5 ADD PUSH3 0x117 JUMP JUMPDEST SWAP3 ADD PUSH3 0x117 JUMP JUMPDEST SWAP4 PUSH1 0x1 DUP1 SSTORE PUSH1 0x2 SLOAD SWAP1 PUSH2 0x100 PUSH1 0x1 PUSH1 0xA8 SHL SUB SWAP1 PUSH1 0x8 SHL AND SWAP1 PUSH2 0x100 PUSH1 0x1 PUSH1 0xA8 SHL SUB NOT AND OR PUSH1 0x2 SSTORE PUSH1 0x1 DUP1 PUSH1 0xA0 SHL SUB DUP1 SWAP3 DUP2 PUSH1 0x1 DUP1 PUSH1 0xA0 SHL SUB NOT SWAP6 AND DUP6 PUSH1 0x3 SLOAD AND OR PUSH1 0x3 SSTORE AND DUP4 PUSH1 0x4 SLOAD AND OR PUSH1 0x4 SSTORE AND SWAP1 PUSH1 0x5 SLOAD AND OR PUSH1 0x5 SSTORE PUSH3 0x12C JUMP JUMPDEST POP PUSH1 0x40 MLOAD PUSH2 0x359D SWAP1 DUP2 PUSH3 0x1BE DUP3 CODECOPY RETURN JUMPDEST PUSH1 0x0 DUP1 REVERT JUMPDEST PUSH4 0x4E487B71 PUSH1 0xE0 SHL PUSH1 0x0 MSTORE PUSH1 0x41 PUSH1 0x4 MSTORE PUSH1 0x24 PUSH1 0x0 REVERT JUMPDEST MLOAD SWAP1 PUSH1 0x1 PUSH1 0x1 PUSH1 0xA0 SHL SUB DUP3 AND DUP3 SUB PUSH3 0xFC JUMPI JUMP JUMPDEST PUSH1 0x1 PUSH1 0x1 PUSH1 0xA0 SHL SUB AND PUSH1 0x0 DUP2 DUP2 MSTORE PUSH32 0xAD3228B676F7D3CD4284A5443F17F1962B36E491B30A40B2405849E597BA5FB5 PUSH1 0x20 MSTORE PUSH1 0x40 DUP2 KECCAK256 SLOAD SWAP1 SWAP2 SWAP1 PUSH1 0xFF AND PUSH3 0x1B9 JUMPI DUP2 DUP1 MSTORE DUP2 PUSH1 0x20 MSTORE PUSH1 0x40 DUP3 KECCAK256 DUP2 DUP4 MSTORE PUSH1 0x20 MSTORE PUSH1 0x40 DUP3 KECCAK256 PUSH1 0x1 PUSH1 0xFF NOT DUP3 SLOAD AND OR SWAP1 SSTORE CALLER SWAP2 PUSH32 0x2F8788117E7EFF1D82E926EC794901D17C78024A50270940304540A733656F0D DUP2 DUP1 LOG4 PUSH1 0x1 SWAP1 JUMP JUMPDEST POP SWAP1 JUMP INVALID PUSH1 0x80 DUP1 PUSH1 0x40 MSTORE PUSH1 0x4 CALLDATASIZE LT ISZERO PUSH2 0x13 JUMPI PUSH1 0x0 DUP1 REVERT JUMPDEST PUSH1 0x0 SWAP1 DUP2 CALLDATALOAD PUSH1 0xE0 SHR SWAP1 DUP2 PUSH4 0x1FFC9A7 EQ PUSH2 0x2D7E JUMPI POP DUP1 PUSH4 0x20E3DBD4 EQ PUSH2 0x2D39 JUMPI DUP1 PUSH4 0x248A9CA3 EQ PUSH2 0x2D0D JUMPI DUP1 PUSH4 0x2CE5ED8C EQ PUSH2 0x2CC3 JUMPI DUP1 PUSH4 0x2F2FF15D EQ PUSH2 0x2C86 JUMPI DUP1 PUSH4 0x2F48AB7D EQ PUSH2 0x2C5D JUMPI DUP1 PUSH4 0x3280890B EQ PUSH2 0x2826 JUMPI DUP1 PUSH4 0x36568ABE EQ PUSH2 0x27DE JUMPI DUP1 PUSH4 0x3F4BA83A EQ PUSH2 0x2773 JUMPI DUP1 PUSH4 0x46F8226C EQ PUSH2 0x24DE JUMPI DUP1 PUSH4 0x53B461C8 EQ PUSH2 0x200B JUMPI DUP1 PUSH4 0x5C975ABB EQ PUSH2 0x1FE8 JUMPI DUP1 PUSH4 0x66D63633 EQ PUSH2 0x1FBB JUMPI DUP1 PUSH4 0x6AF58CFF EQ PUSH2 0x1C57 JUMPI DUP1 PUSH4 0x6CA14389 EQ PUSH2 0x18CF JUMPI DUP1 PUSH4 0x77E9BAD9 EQ PUSH2 0x16B6 JUMPI DUP1 PUSH4 0x79502C55 EQ PUSH2 0x168D JUMPI DUP1 PUSH4 0x8456CB59 EQ PUSH2 0x1632 JUMPI DUP1 PUSH4 0x8A4ADF24 EQ PUSH2 0x1609 JUMPI DUP1 PUSH4 0x8DF82800 EQ PUSH2 0xF70 JUMPI DUP1 PUSH4 0x91D14854 EQ PUSH2 0xF25 JUMPI DUP1 PUSH4 0xA217FDDF EQ PUSH2 0xF09 JUMPI DUP1 PUSH4 0xD1E745B1 EQ PUSH2 0xCB7 JUMPI DUP1 PUSH4 0xD41194B8 EQ PUSH2 0xA8E JUMPI DUP1 PUSH4 0xD547741F EQ PUSH2 0xA4D JUMPI DUP1 PUSH4 0xD70DAF22 EQ PUSH2 0x412 JUMPI PUSH4 0xEEFAA833 EQ PUSH2 0x14A JUMPI PUSH1 0x0 DUP1 REVERT JUMPDEST CALLVALUE PUSH2 0x40F JUMPI PUSH1 0x40 CALLDATASIZE PUSH1 0x3 NOT ADD SLT PUSH2 0x40F JUMPI PUSH1 0x4 CALLDATALOAD PUSH1 0x24 SWAP1 DUP2 CALLDATALOAD SWAP2 DUP3 ISZERO ISZERO DUP1 SWAP4 SUB PUSH2 0x40B JUMPI PUSH2 0x176 PUSH2 0x3376 JUMP JUMPDEST PUSH2 0x17E PUSH2 0x3358 JUMP JUMPDEST PUSH1 0x2 SLOAD PUSH1 0x40 MLOAD PUSH4 0xD09EF241 PUSH1 0xE0 SHL DUP2 MSTORE PUSH1 0x4 DUP2 ADD DUP5 SWAP1 MSTORE PUSH1 0x1 PUSH1 0x1 PUSH1 0xA0 SHL SUB SWAP3 SWAP2 PUSH1 0x8 SHR DUP4 AND SWAP1 DUP7 DUP2 DUP5 DUP2 DUP6 GAS STATICCALL SWAP1 DUP2 ISZERO PUSH2 0x400 JUMPI DUP8 SWAP2 PUSH2 0x3DE JUMPI JUMPDEST POP PUSH2 0x380 DUP2 ADD MLOAD PUSH1 0xB DUP2 LT ISZERO PUSH2 0x3CB JUMPI PUSH1 0x4 PUSH2 0x1D6 SWAP2 EQ PUSH2 0x32B6 JUMP JUMPDEST PUSH2 0x320 DUP2 ADD MLOAD PUSH2 0x375 JUMPI PUSH2 0x2710 PUSH2 0x1F8 PUSH2 0x1C0 DUP4 ADD MLOAD PUSH2 0x200 DUP5 ADD MLOAD SWAP1 PUSH2 0x32FF JUMP JUMPDEST DIV SWAP3 PUSH2 0x1E0 DUP3 ADD SWAP7 DUP5 DUP9 MLOAD LT ISZERO PUSH2 0x331 JUMPI SWAP1 DUP9 SWAP2 PUSH1 0x20 DUP8 PUSH1 0x3 SLOAD AND SWAP2 DUP4 PUSH1 0x40 MLOAD DUP1 SWAP5 DUP2 SWAP4 PUSH4 0xDEECDE3 PUSH1 0xE1 SHL DUP4 MSTORE PUSH1 0x4 DUP4 ADD MSTORE GAS STATICCALL SWAP1 DUP2 ISZERO PUSH2 0x326 JUMPI DUP4 SWAP2 PUSH2 0x2EA JUMPI JUMPDEST POP PUSH2 0x246 SWAP1 TIMESTAMP PUSH2 0x3328 JUMP JUMPDEST SWAP4 DUP1 EXTCODESIZE ISZERO PUSH2 0x2E6 JUMPI DUP5 SWAP2 PUSH1 0x44 DUP10 DUP6 DUP1 SWAP5 PUSH1 0x40 MLOAD SWAP7 DUP8 SWAP6 DUP7 SWAP5 PUSH4 0xD37E527B PUSH1 0xE0 SHL DUP7 MSTORE PUSH1 0x4 DUP7 ADD MSTORE DUP5 ADD MSTORE GAS CALL DUP1 ISZERO PUSH2 0x2DB JUMPI PUSH2 0x2C3 JUMPI JUMPDEST POP POP PUSH32 0x87F6BF1A6C3F04D192803DF26E64179E122FD70E7ACBC21D5326ECB35A491948 SWAP4 PUSH1 0x40 PUSH2 0x2B9 SWAP3 ADD MLOAD AND SWAP6 MLOAD SWAP2 PUSH1 0x40 MLOAD SWAP4 DUP5 SWAP4 DUP5 PUSH2 0x33E8 JUMP JUMPDEST SUB SWAP1 LOG3 PUSH1 0x1 DUP1 SSTORE DUP1 RETURN JUMPDEST PUSH2 0x2CC SWAP1 PUSH2 0x2F86 JUMP JUMPDEST PUSH2 0x2D7 JUMPI DUP7 CODESIZE PUSH2 0x27D JUMP JUMPDEST DUP7 DUP1 REVERT JUMPDEST PUSH1 0x40 MLOAD RETURNDATASIZE DUP5 DUP3 RETURNDATACOPY RETURNDATASIZE SWAP1 REVERT JUMPDEST DUP3 DUP1 REVERT JUMPDEST SWAP3 POP POP PUSH1 0x20 DUP3 RETURNDATASIZE DUP3 GT PUSH2 0x31E JUMPI JUMPDEST DUP2 PUSH2 0x305 PUSH1 0x20 SWAP4 DUP4 PUSH2 0x2F99 JUMP JUMPDEST DUP2 ADD SUB SLT PUSH2 0x319 JUMPI PUSH2 0x246 DUP10 SWAP3 MLOAD SWAP1 PUSH2 0x23B JUMP JUMPDEST PUSH1 0x0 DUP1 REVERT JUMPDEST RETURNDATASIZE SWAP2 POP PUSH2 0x2F8 JUMP JUMPDEST PUSH1 0x40 MLOAD RETURNDATASIZE DUP6 DUP3 RETURNDATACOPY RETURNDATASIZE SWAP1 REVERT JUMPDEST PUSH1 0x40 MLOAD PUSH3 0x461BCD PUSH1 0xE5 SHL DUP2 MSTORE PUSH1 0x20 PUSH1 0x4 DUP3 ADD MSTORE PUSH1 0x1D DUP2 DUP5 ADD MSTORE PUSH32 0x536574746C656D656E743A206D617267696E2073756666696369656E74000000 PUSH1 0x44 DUP3 ADD MSTORE PUSH1 0x64 SWAP1 REVERT JUMPDEST PUSH1 0x40 MLOAD PUSH3 0x461BCD PUSH1 0xE5 SHL DUP2 MSTORE PUSH1 0x20 PUSH1 0x4 DUP3 ADD MSTORE PUSH1 0x29 DUP2 DUP6 ADD MSTORE PUSH32 0x536574746C656D656E743A206D617267696E2063616C6C20616C726561647920 PUSH1 0x44 DUP3 ADD MSTORE PUSH9 0x1D1C9A59D9D95C9959 PUSH1 0xBA SHL PUSH1 0x64 DUP3 ADD MSTORE PUSH1 0x84 SWAP1 REVERT JUMPDEST PUSH4 0x4E487B71 PUSH1 0xE0 SHL DUP9 MSTORE PUSH1 0x21 PUSH1 0x4 MSTORE DUP4 DUP9 REVERT JUMPDEST PUSH2 0x3FA SWAP2 POP RETURNDATASIZE DUP1 DUP10 DUP4 RETURNDATACOPY PUSH2 0x3F2 DUP2 DUP4 PUSH2 0x2F99 JUMP JUMPDEST DUP2 ADD SWAP1 PUSH2 0x304E JUMP JUMPDEST CODESIZE PUSH2 0x1BA JUMP JUMPDEST PUSH1 0x40 MLOAD RETURNDATASIZE DUP10 DUP3 RETURNDATACOPY RETURNDATASIZE SWAP1 REVERT JUMPDEST DUP4 DUP1 REVERT JUMPDEST DUP1 REVERT JUMPDEST POP CALLVALUE PUSH2 0x40F JUMPI PUSH1 0x20 DUP1 PUSH1 0x3 NOT CALLDATASIZE ADD SLT PUSH2 0x753 JUMPI PUSH1 0x4 CALLDATALOAD PUSH2 0x430 PUSH2 0x3376 JUMP JUMPDEST PUSH2 0x438 PUSH2 0x3358 JUMP JUMPDEST PUSH1 0x2 SLOAD PUSH1 0x40 MLOAD PUSH4 0xD09EF241 PUSH1 0xE0 SHL DUP2 MSTORE PUSH1 0x4 DUP2 ADD DUP4 SWAP1 MSTORE PUSH1 0x24 SWAP4 PUSH1 0x8 SWAP3 SWAP1 SWAP3 SHR PUSH1 0x1 PUSH1 0x1 PUSH1 0xA0 SHL SUB SWAP1 DUP2 AND SWAP3 SWAP2 DUP7 DUP2 DUP8 DUP2 DUP8 GAS STATICCALL SWAP1 DUP2 ISZERO PUSH2 0x400 JUMPI DUP8 SWAP2 PUSH2 0xA33 JUMPI JUMPDEST POP PUSH2 0x380 DUP2 ADD DUP1 MLOAD PUSH1 0xB DUP2 LT ISZERO PUSH2 0xA20 JUMPI PUSH1 0x2 EQ DUP1 ISZERO PUSH2 0xA0C JUMPI JUMPDEST ISZERO PUSH2 0x9B4 JUMPI PUSH2 0x3C0 DUP3 ADD DUP1 MLOAD ISZERO PUSH2 0x966 JUMPI PUSH1 0x4 SWAP1 MLOAD DUP6 DUP6 PUSH1 0x3 SLOAD AND PUSH1 0x40 MLOAD SWAP4 DUP5 DUP1 SWAP3 PUSH4 0xC7D7C5FD PUSH1 0xE0 SHL DUP3 MSTORE GAS STATICCALL SWAP1 DUP2 ISZERO PUSH2 0x95B JUMPI DUP11 SWAP2 PUSH2 0x92A JUMPI JUMPDEST PUSH2 0x4DB SWAP3 POP PUSH2 0x3328 JUMP JUMPDEST TIMESTAMP GT ISZERO PUSH2 0x8D0 JUMPI MLOAD SWAP4 PUSH1 0xB DUP6 LT ISZERO PUSH2 0x8BD JUMPI SWAP1 DUP2 DUP9 SWAP4 SWAP3 EXTCODESIZE ISZERO PUSH2 0x40B JUMPI DUP4 DUP9 PUSH1 0x44 DUP10 DUP4 PUSH1 0xA SWAP6 PUSH1 0x40 MLOAD SWAP7 DUP8 SWAP6 DUP7 SWAP5 PUSH4 0xAAB3196D PUSH1 0xE0 SHL DUP7 MSTORE PUSH1 0x4 DUP7 ADD MSTORE DUP5 ADD MSTORE GAS CALL SWAP1 DUP2 ISZERO PUSH2 0x757 JUMPI DUP5 SWAP2 PUSH2 0x8A9 JUMPI JUMPDEST POP POP DUP2 PUSH1 0x2 SLOAD PUSH1 0x8 SHR AND DUP1 EXTCODESIZE ISZERO PUSH2 0x40B JUMPI DUP4 DUP1 SWAP2 PUSH1 0x44 PUSH1 0x40 MLOAD DUP1 SWAP5 DUP2 SWAP4 PUSH4 0x15D92E33 PUSH1 0xE0 SHL DUP4 MSTORE DUP13 PUSH1 0x4 DUP5 ADD MSTORE DUP14 TIMESTAMP SWAP1 DUP5 ADD MSTORE GAS CALL DUP1 ISZERO PUSH2 0x757 JUMPI PUSH2 0x895 JUMPI JUMPDEST POP PUSH1 0x4 SWAP7 DUP5 DUP4 PUSH1 0x3 SLOAD AND PUSH1 0x40 MLOAD SWAP10 DUP11 DUP1 SWAP3 PUSH4 0x2BEC66E5 PUSH1 0xE0 SHL DUP3 MSTORE GAS STATICCALL SWAP8 DUP9 ISZERO PUSH2 0x757 JUMPI DUP5 SWAP9 PUSH2 0x862 JUMPI JUMPDEST POP PUSH2 0x2710 PUSH2 0x5AA PUSH2 0x1E0 DUP5 ADD SWAP10 DUP11 MLOAD PUSH2 0x32FF JUMP JUMPDEST DIV PUSH2 0x5B6 DUP2 DUP11 MLOAD PUSH2 0x3399 JUMP JUMPDEST SWAP1 DUP5 PUSH1 0x4 SLOAD AND SWAP1 DUP6 DUP9 DUP7 ADD MLOAD AND SWAP2 DUP7 PUSH1 0x5 SLOAD AND PUSH2 0x1A0 DUP8 ADD MLOAD DUP3 EXTCODESIZE ISZERO PUSH2 0x83F JUMPI PUSH2 0x5FB SWAP3 DUP11 SWAP3 DUP4 PUSH1 0x40 MLOAD DUP1 SWAP7 DUP2 SWAP6 DUP3 SWAP5 PUSH4 0x6924FAA7 PUSH1 0xE1 SHL SWAP12 DUP13 DUP6 MSTORE PUSH1 0x4 DUP6 ADD PUSH2 0x33C6 JUMP JUMPDEST SUB SWAP3 GAS CALL SWAP1 DUP2 ISZERO PUSH2 0x857 JUMPI DUP9 SWAP2 PUSH2 0x843 JUMPI JUMPDEST POP POP DUP1 PUSH2 0x7D0 JUMPI JUMPDEST POP DUP2 PUSH2 0x766 JUMPI JUMPDEST POP POP DUP3 PUSH1 0x2 SLOAD PUSH1 0x8 SHR AND DUP1 EXTCODESIZE ISZERO PUSH2 0x762 JUMPI DUP5 SWAP2 PUSH1 0x44 DUP10 DUP5 DUP1 SWAP5 PUSH1 0x40 MLOAD SWAP7 DUP8 SWAP6 DUP7 SWAP5 PUSH4 0x381BAFD PUSH1 0xE3 SHL DUP7 MSTORE PUSH1 0x4 DUP7 ADD MSTORE DUP5 ADD MSTORE GAS CALL SWAP1 DUP2 ISZERO PUSH2 0x757 JUMPI DUP8 SWAP2 PUSH2 0x735 JUMPI JUMPDEST POP PUSH1 0xC0 SWAP5 SWAP4 SWAP3 SWAP2 DUP2 PUSH1 0x0 DUP1 MLOAD PUSH1 0x20 PUSH2 0x3548 DUP4 CODECOPY DUP2 MLOAD SWAP2 MSTORE PUSH1 0x0 DUP1 MLOAD PUSH1 0x20 PUSH2 0x3528 DUP4 CODECOPY DUP2 MLOAD SWAP2 MSTORE SWAP9 PUSH1 0x40 SWAP5 PUSH32 0xB848A62EF7171019D243ED8F5B8E1E6C32CAFED0B7FC99DA26CB2FC2E7D533EC DUP7 MLOAD DUP8 DUP2 MSTORE DUP1 PUSH2 0x6BB DUP10 DUP3 ADD PUSH2 0x34E0 JUMP JUMPDEST TIMESTAMP DUP14 DUP4 ADD MSTORE SUB SWAP1 LOG2 PUSH2 0x6CF DUP6 MLOAD DUP1 SWAP3 PUSH2 0x3335 JUMP JUMPDEST PUSH1 0xA DUP9 DUP3 ADD MSTORE PUSH1 0x80 DUP6 DUP3 ADD MSTORE DUP1 PUSH2 0x6E8 PUSH1 0x80 DUP3 ADD PUSH2 0x34E0 JUMP JUMPDEST TIMESTAMP PUSH1 0x60 DUP4 ADD MSTORE SUB SWAP1 LOG2 ADD MLOAD AND SWAP6 MLOAD SWAP2 PUSH1 0x40 MLOAD SWAP3 DUP4 MSTORE DUP3 ADD MSTORE PUSH1 0x80 PUSH1 0x40 DUP3 ADD MSTORE PUSH1 0x10 PUSH1 0x80 DUP3 ADD MSTORE PUSH16 0x1C195B985B1D1E57D919591D58DD1959 PUSH1 0x82 SHL PUSH1 0xA0 DUP3 ADD MSTORE TIMESTAMP PUSH1 0x60 DUP3 ADD MSTORE LOG3 PUSH1 0x1 DUP1 SSTORE DUP1 RETURN JUMPDEST DUP5 SWAP4 SWAP3 SWAP6 SWAP5 SWAP2 POP PUSH2 0x745 SWAP1 PUSH2 0x2F86 JUMP JUMPDEST PUSH2 0x753 JUMPI SWAP1 SWAP2 SWAP3 DUP6 CODESIZE PUSH2 0x65F JUMP JUMPDEST POP DUP1 REVERT JUMPDEST PUSH1 0x40 MLOAD RETURNDATASIZE DUP7 DUP3 RETURNDATACOPY RETURNDATASIZE SWAP1 REVERT JUMPDEST DUP5 DUP1 REVERT JUMPDEST DUP5 PUSH1 0x4 SLOAD AND DUP6 PUSH1 0x40 DUP7 ADD MLOAD AND SWAP1 DUP7 PUSH1 0x5 SLOAD AND SWAP2 DUP2 EXTCODESIZE ISZERO PUSH2 0x7CC JUMPI DUP9 DUP1 SWAP5 PUSH2 0x79B PUSH1 0x40 MLOAD SWAP8 DUP9 SWAP7 DUP8 SWAP6 DUP7 SWAP5 DUP6 MSTORE PUSH1 0x4 DUP6 ADD PUSH2 0x33C6 JUMP JUMPDEST SUB SWAP3 GAS CALL SWAP1 DUP2 ISZERO PUSH2 0x7C1 JUMPI DUP6 SWAP2 ISZERO PUSH2 0x61C JUMPI PUSH2 0x7B6 SWAP1 PUSH2 0x2F86 JUMP JUMPDEST PUSH2 0x40B JUMPI DUP4 CODESIZE PUSH2 0x61C JUMP JUMPDEST PUSH1 0x40 MLOAD RETURNDATASIZE DUP8 DUP3 RETURNDATACOPY RETURNDATASIZE SWAP1 REVERT JUMPDEST DUP9 DUP1 REVERT JUMPDEST DUP6 PUSH1 0x4 SLOAD AND SWAP1 DUP7 PUSH1 0x40 DUP8 ADD MLOAD AND SWAP1 DUP8 PUSH1 0x5 SLOAD AND SWAP3 DUP1 EXTCODESIZE ISZERO PUSH2 0x83F JUMPI PUSH2 0x80F SWAP4 DUP11 DUP1 SWAP5 PUSH1 0x40 MLOAD SWAP7 DUP8 SWAP6 DUP7 SWAP5 DUP6 SWAP4 PUSH4 0x3071383 PUSH1 0xE6 SHL DUP6 MSTORE PUSH1 0x4 DUP6 ADD PUSH2 0x33C6 JUMP JUMPDEST SUB SWAP3 GAS CALL SWAP1 DUP2 ISZERO PUSH2 0x400 JUMPI DUP8 SWAP2 PUSH2 0x827 JUMPI JUMPDEST POP PUSH2 0x615 JUMP JUMPDEST PUSH2 0x830 SWAP1 PUSH2 0x2F86 JUMP JUMPDEST PUSH2 0x83B JUMPI DUP6 CODESIZE PUSH2 0x821 JUMP JUMPDEST DUP6 DUP1 REVERT JUMPDEST DUP10 DUP1 REVERT JUMPDEST PUSH2 0x84C SWAP1 PUSH2 0x2F86 JUMP JUMPDEST PUSH2 0x2D7 JUMPI DUP7 CODESIZE PUSH2 0x60D JUMP JUMPDEST PUSH1 0x40 MLOAD RETURNDATASIZE DUP11 DUP3 RETURNDATACOPY RETURNDATASIZE SWAP1 REVERT JUMPDEST DUP6 DUP1 SWAP3 SWAP10 POP DUP2 SWAP6 POP RETURNDATASIZE DUP4 GT PUSH2 0x88E JUMPI JUMPDEST PUSH2 0x87C DUP2 DUP4 PUSH2 0x2F99 JUMP JUMPDEST DUP2 ADD SUB SLT PUSH2 0x319 JUMPI DUP8 SWAP3 MLOAD SWAP7 CODESIZE PUSH2 0x596 JUMP JUMPDEST POP RETURNDATASIZE PUSH2 0x872 JUMP JUMPDEST PUSH2 0x89F DUP5 SWAP2 PUSH2 0x2F86 JUMP JUMPDEST PUSH2 0x2E6 JUMPI CODESIZE PUSH2 0x56B JUMP JUMPDEST PUSH2 0x8B2 SWAP1 PUSH2 0x2F86 JUMP JUMPDEST PUSH2 0x2E6 JUMPI DUP3 CODESIZE PUSH2 0x52B JUMP JUMPDEST PUSH4 0x4E487B71 PUSH1 0xE0 SHL DUP9 MSTORE PUSH1 0x21 PUSH1 0x4 MSTORE DUP7 DUP9 REVERT JUMPDEST PUSH1 0x40 MLOAD PUSH3 0x461BCD PUSH1 0xE5 SHL DUP2 MSTORE PUSH1 0x4 DUP2 ADD DUP6 SWAP1 MSTORE PUSH1 0x2D DUP2 DUP10 ADD MSTORE PUSH32 0x536574746C656D656E743A20696E697469616C206665656420646561646C696E PUSH1 0x44 DUP3 ADD MSTORE PUSH13 0x19481B9BDD081C995858DA1959 PUSH1 0x9A SHL PUSH1 0x64 DUP3 ADD MSTORE PUSH1 0x84 SWAP1 REVERT JUMPDEST SWAP1 POP DUP6 DUP3 DUP2 RETURNDATASIZE DUP4 GT PUSH2 0x954 JUMPI JUMPDEST PUSH2 0x941 DUP2 DUP4 PUSH2 0x2F99 JUMP JUMPDEST DUP2 ADD SUB SLT PUSH2 0x319 JUMPI PUSH2 0x4DB SWAP2 MLOAD SWAP1 PUSH2 0x4D1 JUMP JUMPDEST POP RETURNDATASIZE PUSH2 0x937 JUMP JUMPDEST PUSH1 0x40 MLOAD RETURNDATASIZE DUP13 DUP3 RETURNDATACOPY RETURNDATASIZE SWAP1 REVERT JUMPDEST PUSH1 0x40 MLOAD PUSH3 0x461BCD PUSH1 0xE5 SHL DUP2 MSTORE PUSH1 0x4 DUP2 ADD DUP7 SWAP1 MSTORE PUSH1 0x21 DUP2 DUP11 ADD MSTORE PUSH32 0x536574746C656D656E743A206F72646572206E6F74206D617463686564207965 PUSH1 0x44 DUP3 ADD MSTORE PUSH1 0x1D PUSH1 0xFA SHL PUSH1 0x64 DUP3 ADD MSTORE PUSH1 0x84 SWAP1 REVERT JUMPDEST PUSH1 0x40 MLOAD PUSH3 0x461BCD PUSH1 0xE5 SHL DUP2 MSTORE PUSH1 0x4 DUP2 ADD DUP6 SWAP1 MSTORE PUSH1 0x2B DUP2 DUP10 ADD MSTORE PUSH32 0x536574746C656D656E743A206F72646572206E6F74206177616974696E672069 PUSH1 0x44 DUP3 ADD MSTORE PUSH11 0x1B9A5D1A585B0819995959 PUSH1 0xAA SHL PUSH1 0x64 DUP3 ADD MSTORE PUSH1 0x84 SWAP1 REVERT JUMPDEST POP DUP1 MLOAD PUSH1 0xB DUP2 LT ISZERO PUSH2 0xA20 JUMPI PUSH1 0x3 EQ PUSH2 0x495 JUMP JUMPDEST PUSH4 0x4E487B71 PUSH1 0xE0 SHL DUP10 MSTORE PUSH1 0x21 PUSH1 0x4 MSTORE DUP8 DUP10 REVERT JUMPDEST PUSH2 0xA47 SWAP2 POP RETURNDATASIZE DUP1 DUP10 DUP4 RETURNDATACOPY PUSH2 0x3F2 DUP2 DUP4 PUSH2 0x2F99 JUMP JUMPDEST CODESIZE PUSH2 0x47A JUMP JUMPDEST POP CALLVALUE PUSH2 0x40F JUMPI PUSH1 0x40 CALLDATASIZE PUSH1 0x3 NOT ADD SLT PUSH2 0x40F JUMPI PUSH2 0xA8A PUSH1 0x4 CALLDATALOAD PUSH2 0xA6D PUSH2 0x2DE9 JUMP JUMPDEST SWAP1 DUP1 DUP5 MSTORE DUP4 PUSH1 0x20 MSTORE PUSH2 0xA85 PUSH1 0x1 PUSH1 0x40 DUP7 KECCAK256 ADD SLOAD PUSH2 0x2E6D JUMP JUMPDEST PUSH2 0x2F11 JUMP JUMPDEST POP DUP1 RETURN JUMPDEST POP CALLVALUE PUSH2 0x40F JUMPI PUSH2 0xA9D CALLDATASIZE PUSH2 0x2DFF JUMP JUMPDEST SWAP1 PUSH2 0xAA6 PUSH2 0x3376 JUMP JUMPDEST PUSH2 0xAAE PUSH2 0x3358 JUMP JUMPDEST DUP2 ISZERO PUSH2 0xC66 JUMPI PUSH1 0x2 SLOAD PUSH1 0x40 MLOAD PUSH4 0xD09EF241 PUSH1 0xE0 SHL DUP2 MSTORE PUSH1 0x4 DUP2 ADD DUP4 SWAP1 MSTORE PUSH1 0x1 PUSH1 0x1 PUSH1 0xA0 SHL SUB SWAP4 SWAP2 DUP6 SWAP1 DUP3 SWAP1 PUSH1 0x24 SWAP1 DUP3 SWAP1 PUSH1 0x8 SHR DUP9 AND GAS STATICCALL SWAP1 DUP2 ISZERO PUSH2 0x7C1 JUMPI DUP6 SWAP2 PUSH2 0xC4C JUMPI JUMPDEST POP PUSH2 0xB05 DUP5 PUSH1 0x40 DUP4 ADD MLOAD AND CALLER EQ PUSH2 0x3434 JUMP JUMPDEST PUSH2 0x380 DUP2 ADD MLOAD PUSH1 0xB DUP2 LT ISZERO PUSH2 0xC38 JUMPI SWAP1 PUSH2 0xB24 PUSH1 0x4 PUSH2 0x1E0 SWAP4 EQ PUSH2 0x32B6 JUMP JUMPDEST ADD SWAP1 DUP5 DUP3 MLOAD SWAP5 DUP1 PUSH1 0x4 SLOAD AND DUP2 PUSH1 0x5 SLOAD AND SWAP1 DUP1 EXTCODESIZE ISZERO PUSH2 0x40B JUMPI DUP5 DUP5 SWAP2 PUSH2 0xB61 SWAP4 DUP4 PUSH1 0x40 MLOAD DUP1 SWAP7 DUP2 SWAP6 DUP3 SWAP5 PUSH4 0xAC94D93 PUSH1 0xE3 SHL DUP5 MSTORE CALLER PUSH1 0x4 DUP6 ADD PUSH2 0x33C6 JUMP JUMPDEST SUB SWAP3 GAS CALL SWAP1 DUP2 ISZERO PUSH2 0x326 JUMPI DUP4 SWAP2 PUSH2 0xC24 JUMPI JUMPDEST POP POP PUSH1 0x2 SLOAD PUSH1 0x8 SHR AND PUSH2 0xB87 DUP4 DUP6 MLOAD PUSH2 0x3328 JUMP JUMPDEST DUP2 EXTCODESIZE ISZERO PUSH2 0x2E6 JUMPI DUP3 SWAP2 PUSH1 0x44 DUP4 SWAP3 PUSH1 0x40 MLOAD SWAP5 DUP6 SWAP4 DUP5 SWAP3 PUSH4 0x381BAFD PUSH1 0xE3 SHL DUP5 MSTORE DUP12 PUSH1 0x4 DUP6 ADD MSTORE PUSH1 0x24 DUP5 ADD MSTORE GAS CALL DUP1 ISZERO PUSH2 0x2DB JUMPI PUSH2 0xC10 JUMPI JUMPDEST POP POP PUSH2 0xBCA SWAP2 MLOAD PUSH2 0x3328 JUMP JUMPDEST PUSH1 0x40 MLOAD SWAP3 DUP4 MSTORE PUSH1 0x20 DUP4 ADD MSTORE PUSH1 0x80 PUSH1 0x40 DUP4 ADD MSTORE PUSH1 0x3 PUSH1 0x80 DUP4 ADD MSTORE PUSH3 0x185919 PUSH1 0xEA SHL PUSH1 0xA0 DUP4 ADD MSTORE TIMESTAMP PUSH1 0x60 DUP4 ADD MSTORE PUSH1 0x0 DUP1 MLOAD PUSH1 0x20 PUSH2 0x3528 DUP4 CODECOPY DUP2 MLOAD SWAP2 MSTORE PUSH1 0xC0 CALLER SWAP4 LOG3 PUSH1 0x1 DUP1 SSTORE DUP1 RETURN JUMPDEST PUSH2 0xC19 SWAP1 PUSH2 0x2F86 JUMP JUMPDEST PUSH2 0x762 JUMPI DUP5 CODESIZE PUSH2 0xBBE JUMP JUMPDEST PUSH2 0xC2D SWAP1 PUSH2 0x2F86 JUMP JUMPDEST PUSH2 0x753 JUMPI DUP2 CODESIZE PUSH2 0xB73 JUMP JUMPDEST PUSH4 0x4E487B71 PUSH1 0xE0 SHL DUP7 MSTORE PUSH1 0x21 PUSH1 0x4 MSTORE PUSH1 0x24 DUP7 REVERT JUMPDEST PUSH2 0xC60 SWAP2 POP RETURNDATASIZE DUP1 DUP8 DUP4 RETURNDATACOPY PUSH2 0x3F2 DUP2 DUP4 PUSH2 0x2F99 JUMP JUMPDEST CODESIZE PUSH2 0xAF3 JUMP JUMPDEST PUSH1 0x40 MLOAD PUSH3 0x461BCD PUSH1 0xE5 SHL DUP2 MSTORE PUSH1 0x20 PUSH1 0x4 DUP3 ADD MSTORE PUSH1 0x23 PUSH1 0x24 DUP3 ADD MSTORE PUSH32 0x536574746C656D656E743A20616D6F756E74206D75737420626520706F736974 PUSH1 0x44 DUP3 ADD MSTORE PUSH3 0x697665 PUSH1 0xE8 SHL PUSH1 0x64 DUP3 ADD MSTORE PUSH1 0x84 SWAP1 REVERT JUMPDEST POP CALLVALUE PUSH2 0x40F JUMPI PUSH2 0xCC6 CALLDATASIZE PUSH2 0x2DFF JUMP JUMPDEST SWAP1 PUSH2 0xCCF PUSH2 0x3376 JUMP JUMPDEST PUSH2 0xCD7 PUSH2 0x3358 JUMP JUMPDEST PUSH1 0x2 SLOAD PUSH1 0x40 MLOAD PUSH4 0xD09EF241 PUSH1 0xE0 SHL DUP2 MSTORE PUSH1 0x4 DUP2 ADD DUP4 SWAP1 MSTORE PUSH1 0x8 SWAP2 SWAP1 SWAP2 SHR PUSH1 0x1 PUSH1 0x1 PUSH1 0xA0 SHL SUB SWAP1 DUP2 AND SWAP4 SWAP1 DUP6 DUP4 PUSH1 0x24 DUP2 DUP9 GAS STATICCALL SWAP3 DUP4 ISZERO PUSH2 0xEFE JUMPI DUP7 SWAP4 PUSH2 0xEE2 JUMPI JUMPDEST POP PUSH2 0xD29 DUP2 PUSH1 0x40 DUP6 ADD MLOAD AND CALLER EQ PUSH2 0x3434 JUMP JUMPDEST PUSH2 0x380 DUP4 ADD MLOAD PUSH1 0xB DUP2 LT ISZERO PUSH2 0xECE JUMPI PUSH1 0x4 PUSH2 0xD44 SWAP2 EQ PUSH2 0x32B6 JUMP JUMPDEST PUSH2 0xD5B PUSH2 0x1E0 DUP5 ADD SWAP4 PUSH2 0x1C0 DUP6 MLOAD SWAP2 ADD MLOAD SWAP1 PUSH2 0x3399 JUMP JUMPDEST DUP3 GT PUSH2 0xE70 JUMPI DUP6 SWAP1 DUP4 MLOAD SWAP6 PUSH2 0xD70 DUP5 DUP9 PUSH2 0x3399 JUMP JUMPDEST DUP2 EXTCODESIZE ISZERO PUSH2 0x40B JUMPI DUP4 SWAP2 PUSH1 0x44 DUP4 SWAP3 PUSH1 0x40 MLOAD SWAP5 DUP6 SWAP4 DUP5 SWAP3 PUSH4 0x381BAFD PUSH1 0xE3 SHL DUP5 MSTORE DUP13 PUSH1 0x4 DUP6 ADD MSTORE PUSH1 0x24 DUP5 ADD MSTORE GAS CALL SWAP1 DUP2 ISZERO PUSH2 0x326 JUMPI DUP4 SWAP2 PUSH2 0xE5C JUMPI JUMPDEST POP POP PUSH1 0x4 SLOAD PUSH1 0x5 SLOAD DUP3 AND SWAP2 AND DUP1 EXTCODESIZE ISZERO PUSH2 0x2E6 JUMPI DUP4 DUP4 SWAP2 PUSH2 0xDE2 SWAP4 DUP4 PUSH1 0x40 MLOAD DUP1 SWAP7 DUP2 SWAP6 DUP3 SWAP5 PUSH4 0x6924FAA7 PUSH1 0xE1 SHL DUP5 MSTORE CALLER PUSH1 0x4 DUP6 ADD PUSH2 0x33C6 JUMP JUMPDEST SUB SWAP3 GAS CALL DUP1 ISZERO PUSH2 0x2DB JUMPI PUSH2 0xE48 JUMPI JUMPDEST POP POP PUSH2 0xDFD SWAP2 MLOAD PUSH2 0x3399 JUMP JUMPDEST PUSH1 0x40 MLOAD SWAP3 DUP4 MSTORE PUSH1 0x20 DUP4 ADD MSTORE PUSH1 0x80 PUSH1 0x40 DUP4 ADD MSTORE PUSH1 0x8 PUSH1 0x80 DUP4 ADD MSTORE PUSH8 0x7769746864726177 PUSH1 0xC0 SHL PUSH1 0xA0 DUP4 ADD MSTORE TIMESTAMP PUSH1 0x60 DUP4 ADD MSTORE PUSH1 0x0 DUP1 MLOAD PUSH1 0x20 PUSH2 0x3528 DUP4 CODECOPY DUP2 MLOAD SWAP2 MSTORE PUSH1 0xC0 CALLER SWAP4 LOG3 PUSH1 0x1 DUP1 SSTORE DUP1 RETURN JUMPDEST PUSH2 0xE51 SWAP1 PUSH2 0x2F86 JUMP JUMPDEST PUSH2 0x762 JUMPI DUP5 CODESIZE PUSH2 0xDF1 JUMP JUMPDEST PUSH2 0xE65 SWAP1 PUSH2 0x2F86 JUMP JUMPDEST PUSH2 0x753 JUMPI DUP2 CODESIZE PUSH2 0xDAA JUMP JUMPDEST PUSH1 0x40 MLOAD PUSH3 0x461BCD PUSH1 0xE5 SHL DUP2 MSTORE PUSH1 0x20 PUSH1 0x4 DUP3 ADD MSTORE PUSH1 0x30 PUSH1 0x24 DUP3 ADD MSTORE PUSH32 0x536574746C656D656E743A2063616E6E6F742077697468647261772062656C6F PUSH1 0x44 DUP3 ADD MSTORE PUSH16 0x3B9034B734BA34B0B61036B0B933B4B7 PUSH1 0x81 SHL PUSH1 0x64 DUP3 ADD MSTORE PUSH1 0x84 SWAP1 REVERT JUMPDEST PUSH4 0x4E487B71 PUSH1 0xE0 SHL DUP8 MSTORE PUSH1 0x21 PUSH1 0x4 MSTORE PUSH1 0x24 DUP8 REVERT JUMPDEST PUSH2 0xEF7 SWAP2 SWAP4 POP RETURNDATASIZE DUP1 DUP9 DUP4 RETURNDATACOPY PUSH2 0x3F2 DUP2 DUP4 PUSH2 0x2F99 JUMP JUMPDEST SWAP2 CODESIZE PUSH2 0xD17 JUMP JUMPDEST PUSH1 0x40 MLOAD RETURNDATASIZE DUP9 DUP3 RETURNDATACOPY RETURNDATASIZE SWAP1 REVERT JUMPDEST POP CALLVALUE PUSH2 0x40F JUMPI DUP1 PUSH1 0x3 NOT CALLDATASIZE ADD SLT PUSH2 0x40F JUMPI PUSH1 0x20 SWAP1 PUSH1 0x40 MLOAD SWAP1 DUP2 MSTORE RETURN JUMPDEST POP CALLVALUE PUSH2 0x40F JUMPI PUSH1 0x40 CALLDATASIZE PUSH1 0x3 NOT ADD SLT PUSH2 0x40F JUMPI PUSH1 0x40 PUSH2 0xF41 PUSH2 0x2DE9 JUMP JUMPDEST SWAP2 PUSH1 0x4 CALLDATALOAD DUP2 MSTORE DUP1 PUSH1 0x20 MSTORE KECCAK256 SWAP1 PUSH1 0x1 DUP1 PUSH1 0xA0 SHL SUB AND PUSH1 0x0 MSTORE PUSH1 0x20 MSTORE PUSH1 0x20 PUSH1 0xFF PUSH1 0x40 PUSH1 0x0 KECCAK256 SLOAD AND PUSH1 0x40 MLOAD SWAP1 ISZERO ISZERO DUP2 MSTORE RETURN JUMPDEST POP CALLVALUE PUSH2 0x40F JUMPI PUSH1 0x20 CALLDATASIZE PUSH1 0x3 NOT ADD SLT PUSH2 0x40F JUMPI PUSH2 0xF8A PUSH2 0x3376 JUMP JUMPDEST PUSH2 0xF92 PUSH2 0x3358 JUMP JUMPDEST PUSH1 0x2 SLOAD PUSH1 0x40 MLOAD PUSH4 0xD09EF241 PUSH1 0xE0 SHL DUP2 MSTORE PUSH1 0x4 DUP1 CALLDATALOAD SWAP1 DUP3 ADD MSTORE SWAP1 DUP3 SWAP1 DUP3 SWAP1 PUSH1 0x24 SWAP1 DUP3 SWAP1 PUSH1 0x8 SHR PUSH1 0x1 PUSH1 0x1 PUSH1 0xA0 SHL SUB AND GAS STATICCALL SWAP1 DUP2 ISZERO PUSH2 0x2DB JUMPI DUP3 SWAP2 PUSH2 0x15EF JUMPI JUMPDEST POP PUSH2 0x380 DUP2 ADD MLOAD PUSH1 0xB DUP2 LT ISZERO PUSH2 0x15DB JUMPI PUSH1 0x6 SUB PUSH2 0x158B JUMPI PUSH2 0x400 DUP2 ADD MLOAD ISZERO PUSH2 0x154A JUMPI PUSH1 0xE0 DUP2 ADD MLOAD SWAP2 DUP1 SWAP3 DUP2 DUP1 SWAP2 DUP2 JUMPDEST DUP2 MLOAD DUP2 LT ISZERO PUSH2 0x1108 JUMPI PUSH1 0x1 PUSH1 0x1 PUSH1 0xF8 SHL SUB NOT PUSH1 0x17 PUSH1 0xF9 SHL DUP2 PUSH2 0x1021 DUP5 DUP7 PUSH2 0x340D JUMP JUMPDEST MLOAD AND EQ PUSH2 0x10FA JUMPI PUSH1 0x3 PUSH1 0xFC SHL DUP2 PUSH2 0x1038 DUP5 DUP7 PUSH2 0x340D JUMP JUMPDEST MLOAD AND LT ISZERO SWAP1 DUP2 PUSH2 0x10DF JUMPI JUMPDEST POP PUSH2 0x1057 JUMPI JUMPDEST PUSH2 0x1052 SWAP1 PUSH2 0x33FE JUMP JUMPDEST PUSH2 0xFFF JUMP JUMPDEST SWAP1 SWAP2 SWAP3 SWAP6 DUP1 PUSH1 0xA DUP2 MUL DIV PUSH1 0xA EQ DUP2 ISZERO OR ISZERO PUSH2 0x10CB JUMPI PUSH1 0x2F NOT PUSH2 0x1079 DUP4 DUP6 PUSH2 0x340D JUMP JUMPDEST MLOAD PUSH1 0xF8 SHR ADD PUSH1 0xFF SWAP1 DUP2 DUP2 GT PUSH2 0x10B7 JUMPI SWAP2 PUSH1 0xA PUSH2 0x109C SWAP3 DUP11 SWAP8 SWAP7 SWAP6 SWAP5 AND SWAP2 MUL PUSH2 0x3328 JUMP JUMPDEST SWAP7 ISZERO PUSH2 0x1049 JUMPI SWAP4 PUSH2 0x10AF PUSH2 0x1052 SWAP2 PUSH2 0x33FE JUMP JUMPDEST SWAP5 SWAP1 POP PUSH2 0x1049 JUMP JUMPDEST PUSH4 0x4E487B71 PUSH1 0xE0 SHL DUP7 MSTORE PUSH1 0x11 PUSH1 0x4 MSTORE PUSH1 0x24 DUP7 REVERT JUMPDEST PUSH4 0x4E487B71 PUSH1 0xE0 SHL DUP5 MSTORE PUSH1 0x11 PUSH1 0x4 MSTORE PUSH1 0x24 DUP5 REVERT JUMPDEST PUSH1 0x39 PUSH1 0xF8 SHL SWAP2 POP PUSH2 0x10F0 DUP4 DUP6 PUSH2 0x340D JUMP JUMPDEST MLOAD AND GT ISZERO CODESIZE PUSH2 0x1043 JUMP JUMPDEST POP SWAP3 POP PUSH2 0x1052 PUSH1 0x1 SWAP4 PUSH2 0x33FE JUMP JUMPDEST DUP3 DUP7 DUP9 DUP8 PUSH1 0x12 DUP2 LT PUSH2 0x1523 JUMPI JUMPDEST POP DUP1 PUSH2 0x340 DUP4 ADD MLOAD ISZERO ISZERO DUP1 PUSH2 0x1515 JUMPI JUMPDEST PUSH2 0x14EC JUMPI JUMPDEST POP SWAP1 PUSH2 0x400 DUP2 ADD MLOAD SWAP2 DUP4 SWAP3 PUSH2 0x100 DUP4 ADD MLOAD PUSH1 0x2 DUP2 LT ISZERO PUSH2 0xC38 JUMPI PUSH2 0x14C2 JUMPI DUP2 DUP2 GT PUSH2 0x1496 JUMPI JUMPDEST POP POP JUMPDEST DUP3 DUP3 ISZERO PUSH2 0x1488 JUMPI POP PUSH2 0x1E0 DUP2 ADD MLOAD SWAP2 DUP3 DUP2 GT PUSH2 0x1481 JUMPI JUMPDEST DUP1 PUSH2 0x1175 SWAP2 SWAP4 PUSH2 0x3399 JUMP JUMPDEST SWAP1 JUMPDEST DUP3 PUSH2 0x1366 JUMPI JUMPDEST DUP2 PUSH2 0x12F1 JUMPI JUMPDEST PUSH2 0x380 ADD MLOAD SWAP2 PUSH1 0xB DUP4 LT ISZERO PUSH2 0x12DD JUMPI PUSH1 0x2 SLOAD DUP5 SWAP1 PUSH1 0x8 SHR PUSH1 0x1 PUSH1 0x1 PUSH1 0xA0 SHL SUB AND DUP1 EXTCODESIZE ISZERO PUSH2 0x753 JUMPI DUP2 DUP1 SWAP2 PUSH1 0x44 PUSH1 0x40 MLOAD DUP1 SWAP5 DUP2 SWAP4 PUSH4 0xAAB3196D PUSH1 0xE0 SHL DUP4 MSTORE PUSH1 0x4 CALLDATALOAD PUSH1 0x4 DUP5 ADD MSTORE PUSH1 0x8 PUSH1 0x24 DUP5 ADD MSTORE GAS CALL DUP1 ISZERO PUSH2 0x2DB JUMPI PUSH2 0x12C9 JUMPI JUMPDEST POP PUSH1 0x2 SLOAD PUSH1 0x8 SHR PUSH1 0x1 PUSH1 0x1 PUSH1 0xA0 SHL SUB AND DUP1 EXTCODESIZE ISZERO PUSH2 0x753 JUMPI DUP2 DUP1 SWAP2 PUSH1 0x44 PUSH1 0x40 MLOAD DUP1 SWAP5 DUP2 SWAP4 PUSH4 0x15D92E33 PUSH1 0xE0 SHL DUP4 MSTORE PUSH1 0x4 CALLDATALOAD PUSH1 0x4 DUP5 ADD MSTORE TIMESTAMP PUSH1 0x24 DUP5 ADD MSTORE GAS CALL DUP1 ISZERO PUSH2 0x2DB JUMPI PUSH2 0x12B5 JUMPI JUMPDEST POP POP PUSH2 0x125D PUSH32 0x6DA40291EEB646B436D05C420B5B9F010D81DF95BCE846D2C3B3D45F56DF19EC SWAP2 PUSH1 0x40 MLOAD SWAP2 DUP3 SWAP2 PUSH1 0x4 CALLDATALOAD SWAP6 TIMESTAMP SWAP2 DUP5 PUSH2 0x33E8 JUMP JUMPDEST SUB SWAP1 LOG2 PUSH2 0x126D PUSH1 0x40 MLOAD DUP1 SWAP3 PUSH2 0x3335 JUMP JUMPDEST PUSH1 0x8 PUSH1 0x20 DUP3 ADD MSTORE PUSH1 0x80 PUSH1 0x40 DUP3 ADD MSTORE PUSH1 0x7 PUSH1 0x80 DUP3 ADD MSTORE PUSH7 0x1CD95D1D1B1959 PUSH1 0xCA SHL PUSH1 0xA0 DUP3 ADD MSTORE TIMESTAMP PUSH1 0x60 DUP3 ADD MSTORE PUSH1 0x0 DUP1 MLOAD PUSH1 0x20 PUSH2 0x3548 DUP4 CODECOPY DUP2 MLOAD SWAP2 MSTORE PUSH1 0xC0 PUSH1 0x4 CALLDATALOAD SWAP3 LOG2 PUSH1 0x1 DUP1 SSTORE DUP1 RETURN JUMPDEST PUSH2 0x12BE SWAP1 PUSH2 0x2F86 JUMP JUMPDEST PUSH2 0x40B JUMPI DUP4 DUP6 PUSH2 0x1224 JUMP JUMPDEST PUSH2 0x12D2 SWAP1 PUSH2 0x2F86 JUMP JUMPDEST PUSH2 0x40B JUMPI DUP4 DUP6 PUSH2 0x11DC JUMP JUMPDEST PUSH4 0x4E487B71 PUSH1 0xE0 SHL DUP5 MSTORE PUSH1 0x21 PUSH1 0x4 MSTORE PUSH1 0x24 DUP5 REVERT JUMPDEST PUSH1 0x4 SLOAD PUSH1 0x40 DUP3 ADD MLOAD PUSH1 0x5 SLOAD DUP7 SWAP3 PUSH1 0x1 PUSH1 0x1 PUSH1 0xA0 SHL SUB SWAP1 DUP2 AND SWAP3 SWAP2 DUP2 AND SWAP2 AND DUP3 EXTCODESIZE ISZERO PUSH2 0x40B JUMPI PUSH2 0x133C SWAP3 DUP5 SWAP3 DUP4 DUP9 SWAP4 PUSH1 0x40 MLOAD SWAP7 DUP8 SWAP6 DUP7 SWAP5 DUP6 SWAP4 PUSH4 0x6924FAA7 PUSH1 0xE1 SHL DUP6 MSTORE PUSH1 0x4 DUP6 ADD PUSH2 0x33C6 JUMP JUMPDEST SUB SWAP3 GAS CALL DUP1 ISZERO PUSH2 0x2DB JUMPI PUSH2 0x1352 JUMPI JUMPDEST POP POP PUSH2 0x1183 JUMP JUMPDEST PUSH2 0x135B SWAP1 PUSH2 0x2F86 JUMP JUMPDEST PUSH2 0x40B JUMPI DUP4 DUP6 PUSH2 0x134B JUMP JUMPDEST PUSH1 0x4 SLOAD PUSH1 0x40 DUP3 ADD MLOAD PUSH1 0x20 DUP4 ADD DUP1 MLOAD PUSH1 0x5 SLOAD DUP9 SWAP5 SWAP3 SWAP4 PUSH1 0x1 PUSH1 0x1 PUSH1 0xA0 SHL SUB SWAP2 DUP3 AND SWAP4 SWAP1 DUP3 AND SWAP3 DUP3 AND SWAP2 AND DUP1 EXTCODESIZE ISZERO PUSH2 0x83B JUMPI DUP6 SWAP3 DUP4 PUSH1 0xE4 SWAP3 PUSH1 0x40 MLOAD SWAP7 DUP8 SWAP6 DUP7 SWAP5 PUSH4 0x5FE3A8B PUSH1 0xE3 SHL DUP7 MSTORE PUSH1 0x4 DUP7 ADD MSTORE PUSH1 0x24 DUP6 ADD MSTORE PUSH1 0x44 DUP5 ADD MSTORE DUP12 PUSH1 0x64 DUP5 ADD MSTORE PUSH1 0xA0 PUSH1 0x84 DUP5 ADD MSTORE PUSH1 0x11 PUSH1 0xA4 DUP5 ADD MSTORE PUSH17 0x1CD95D1D1B195B595B9D081C185E5BDD5D PUSH1 0x7A SHL PUSH1 0xC4 DUP5 ADD MSTORE GAS CALL SWAP1 DUP2 ISZERO PUSH2 0x326 JUMPI DUP4 SWAP2 PUSH2 0x146D JUMPI JUMPDEST POP POP PUSH1 0x4 SLOAD SWAP1 MLOAD PUSH1 0x5 SLOAD PUSH1 0x1 PUSH1 0x1 PUSH1 0xA0 SHL SUB SWAP3 DUP4 AND SWAP3 SWAP1 DUP2 AND SWAP2 AND DUP3 EXTCODESIZE ISZERO PUSH2 0x40B JUMPI PUSH2 0x1443 SWAP3 DUP5 SWAP3 DUP4 DUP10 SWAP4 PUSH1 0x40 MLOAD SWAP7 DUP8 SWAP6 DUP7 SWAP5 DUP6 SWAP4 PUSH4 0x6924FAA7 PUSH1 0xE1 SHL DUP6 MSTORE PUSH1 0x4 DUP6 ADD PUSH2 0x33C6 JUMP JUMPDEST SUB SWAP3 GAS CALL DUP1 ISZERO PUSH2 0x2DB JUMPI PUSH2 0x1459 JUMPI JUMPDEST POP POP PUSH2 0x117D JUMP JUMPDEST PUSH2 0x1462 SWAP1 PUSH2 0x2F86 JUMP JUMPDEST PUSH2 0x40B JUMPI DUP4 DUP6 PUSH2 0x1452 JUMP JUMPDEST PUSH2 0x1476 SWAP1 PUSH2 0x2F86 JUMP JUMPDEST PUSH2 0x753 JUMPI DUP2 DUP8 PUSH2 0x13FB JUMP JUMPDEST POP DUP2 PUSH2 0x116A JUMP JUMPDEST SWAP2 POP PUSH2 0x1E0 DUP2 ADD MLOAD SWAP1 PUSH2 0x1177 JUMP JUMPDEST PUSH2 0x14BA SWAP3 SWAP4 POP PUSH2 0x14A9 DUP3 PUSH2 0x14B5 SWAP3 PUSH2 0x3399 JUMP JUMPDEST PUSH2 0x120 DUP6 ADD MLOAD SWAP1 PUSH2 0x32FF JUMP JUMPDEST PUSH2 0x33A6 JUMP JUMPDEST SWAP1 DUP4 DUP1 PUSH2 0x1150 JUMP JUMPDEST DUP1 DUP3 GT PUSH2 0x14D1 JUMPI JUMPDEST POP POP PUSH2 0x1153 JUMP JUMPDEST PUSH2 0x14E4 SWAP3 SWAP4 POP PUSH2 0x14A9 PUSH2 0x14B5 SWAP2 DUP4 PUSH2 0x3399 JUMP JUMPDEST SWAP1 DUP4 DUP1 PUSH2 0x14CA JUMP JUMPDEST PUSH2 0x420 DUP4 ADD MLOAD SWAP1 DUP2 LT ISZERO PUSH2 0x150C JUMPI PUSH2 0x1503 SWAP2 PUSH2 0x3399 JUMP JUMPDEST SWAP1 JUMPDEST SWAP1 DUP4 PUSH2 0x112A JUMP JUMPDEST POP POP DUP2 SWAP1 PUSH2 0x1505 JUMP JUMPDEST POP PUSH2 0x420 DUP4 ADD MLOAD ISZERO ISZERO PUSH2 0x1125 JUMP JUMPDEST PUSH1 0x12 SUB PUSH1 0x12 DUP2 GT PUSH2 0x10CB JUMPI PUSH1 0x4D DUP2 GT PUSH2 0x10CB JUMPI SWAP1 PUSH2 0x1544 SWAP2 PUSH1 0xA EXP SWAP1 PUSH2 0x32FF JUMP JUMPDEST DUP4 PUSH2 0x1115 JUMP JUMPDEST PUSH1 0x40 MLOAD PUSH3 0x461BCD PUSH1 0xE5 SHL DUP2 MSTORE PUSH1 0x20 PUSH1 0x4 DUP3 ADD MSTORE PUSH1 0x19 PUSH1 0x24 DUP3 ADD MSTORE PUSH25 0x536574746C656D656E743A206E6F2066656564207072696365 PUSH1 0x38 SHL PUSH1 0x44 DUP3 ADD MSTORE PUSH1 0x64 SWAP1 REVERT JUMPDEST PUSH1 0x40 MLOAD PUSH3 0x461BCD PUSH1 0xE5 SHL DUP2 MSTORE PUSH1 0x20 PUSH1 0x4 DUP3 ADD MSTORE PUSH1 0x22 PUSH1 0x24 DUP3 ADD MSTORE PUSH32 0x536574746C656D656E743A206E6F742070656E64696E6720736574746C656D65 PUSH1 0x44 DUP3 ADD MSTORE PUSH2 0x1B9D PUSH1 0xF2 SHL PUSH1 0x64 DUP3 ADD MSTORE PUSH1 0x84 SWAP1 REVERT JUMPDEST PUSH4 0x4E487B71 PUSH1 0xE0 SHL DUP4 MSTORE PUSH1 0x21 PUSH1 0x4 MSTORE PUSH1 0x24 DUP4 REVERT JUMPDEST PUSH2 0x1603 SWAP2 POP RETURNDATASIZE DUP1 DUP5 DUP4 RETURNDATACOPY PUSH2 0x3F2 DUP2 DUP4 PUSH2 0x2F99 JUMP JUMPDEST CODESIZE PUSH2 0xFD0 JUMP JUMPDEST POP CALLVALUE PUSH2 0x40F JUMPI DUP1 PUSH1 0x3 NOT CALLDATASIZE ADD SLT PUSH2 0x40F JUMPI PUSH1 0x4 SLOAD PUSH1 0x40 MLOAD PUSH1 0x1 PUSH1 0x1 PUSH1 0xA0 SHL SUB SWAP1 SWAP2 AND DUP2 MSTORE PUSH1 0x20 SWAP1 RETURN JUMPDEST POP CALLVALUE PUSH2 0x40F JUMPI DUP1 PUSH1 0x3 NOT CALLDATASIZE ADD SLT PUSH2 0x40F JUMPI PUSH2 0x164B PUSH2 0x2E15 JUMP JUMPDEST PUSH2 0x1653 PUSH2 0x3358 JUMP JUMPDEST PUSH1 0x1 PUSH1 0xFF NOT PUSH1 0x2 SLOAD AND OR PUSH1 0x2 SSTORE PUSH32 0x62E78CEA01BEE320CD4E420270B5EA74000D11B0C9F74754EBDBFC544B05A258 PUSH1 0x20 PUSH1 0x40 MLOAD CALLER DUP2 MSTORE LOG1 DUP1 RETURN JUMPDEST POP CALLVALUE PUSH2 0x40F JUMPI DUP1 PUSH1 0x3 NOT CALLDATASIZE ADD SLT PUSH2 0x40F JUMPI PUSH1 0x3 SLOAD PUSH1 0x40 MLOAD PUSH1 0x1 PUSH1 0x1 PUSH1 0xA0 SHL SUB SWAP1 SWAP2 AND DUP2 MSTORE PUSH1 0x20 SWAP1 RETURN JUMPDEST POP CALLVALUE PUSH2 0x40F JUMPI PUSH2 0x16C5 CALLDATASIZE PUSH2 0x2DFF JUMP JUMPDEST PUSH2 0x16CD PUSH2 0x3376 JUMP JUMPDEST PUSH2 0x16D5 PUSH2 0x3358 JUMP JUMPDEST DUP3 DUP1 MSTORE DUP3 PUSH1 0x20 MSTORE PUSH1 0x40 DUP4 KECCAK256 CALLER PUSH1 0x0 MSTORE PUSH1 0x20 MSTORE PUSH2 0x16F8 PUSH1 0xFF PUSH1 0x40 PUSH1 0x0 KECCAK256 SLOAD AND PUSH2 0x3479 JUMP JUMPDEST PUSH1 0x2 SLOAD PUSH1 0x40 MLOAD PUSH4 0xD09EF241 PUSH1 0xE0 SHL DUP2 MSTORE PUSH1 0x4 DUP2 ADD DUP5 SWAP1 MSTORE PUSH1 0x8 SWAP2 SWAP1 SWAP2 SHR PUSH1 0x1 PUSH1 0x1 PUSH1 0xA0 SHL SUB AND SWAP2 SWAP1 DUP5 DUP2 PUSH1 0x24 DUP2 DUP7 GAS STATICCALL SWAP1 DUP2 ISZERO PUSH2 0x7C1 JUMPI DUP6 SWAP2 PUSH2 0x18B5 JUMPI JUMPDEST POP PUSH2 0x380 DUP2 ADD MLOAD PUSH1 0xB DUP2 LT ISZERO PUSH2 0xC38 JUMPI PUSH1 0x4 PUSH2 0x1752 SWAP2 EQ PUSH2 0x32B6 JUMP JUMPDEST PUSH2 0x340 DUP2 ADD MLOAD ISZERO PUSH2 0x185C JUMPI DUP2 ISZERO PUSH2 0x1809 JUMPI PUSH2 0x420 DUP6 SWAP2 ADD SWAP3 PUSH2 0x1775 DUP4 DUP6 MLOAD PUSH2 0x3328 JUMP JUMPDEST DUP2 EXTCODESIZE ISZERO PUSH2 0x2E6 JUMPI DUP3 SWAP2 PUSH1 0x44 DUP4 SWAP3 PUSH1 0x40 MLOAD SWAP5 DUP6 SWAP4 DUP5 SWAP3 PUSH4 0x2278F557 PUSH1 0xE1 SHL DUP5 MSTORE DUP12 PUSH1 0x4 DUP6 ADD MSTORE PUSH1 0x24 DUP5 ADD MSTORE GAS CALL DUP1 ISZERO PUSH2 0x2DB JUMPI PUSH2 0x17F5 JUMPI JUMPDEST POP POP PUSH2 0x17DA DUP2 PUSH32 0xDD46D8CD4968AFB89542D91BA59208E869E45FF03DCDA531AA39FD6888A174C3 SWAP4 MLOAD PUSH2 0x3328 JUMP JUMPDEST PUSH2 0x17EB PUSH1 0x40 MLOAD SWAP3 DUP4 SWAP3 TIMESTAMP SWAP2 DUP5 PUSH2 0x33E8 JUMP JUMPDEST SUB SWAP1 LOG2 PUSH1 0x1 DUP1 SSTORE DUP1 RETURN JUMPDEST PUSH2 0x17FE SWAP1 PUSH2 0x2F86 JUMP JUMPDEST PUSH2 0x40B JUMPI DUP4 CODESIZE PUSH2 0x17AC JUMP JUMPDEST PUSH1 0x40 MLOAD PUSH3 0x461BCD PUSH1 0xE5 SHL DUP2 MSTORE PUSH1 0x20 PUSH1 0x4 DUP3 ADD MSTORE PUSH1 0x25 PUSH1 0x24 DUP3 ADD MSTORE PUSH32 0x536574746C656D656E743A206469766964656E64206D75737420626520706F73 PUSH1 0x44 DUP3 ADD MSTORE PUSH5 0x6974697665 PUSH1 0xD8 SHL PUSH1 0x64 DUP3 ADD MSTORE PUSH1 0x84 SWAP1 REVERT JUMPDEST PUSH1 0x40 MLOAD PUSH3 0x461BCD PUSH1 0xE5 SHL DUP2 MSTORE PUSH1 0x20 PUSH1 0x4 DUP3 ADD MSTORE PUSH1 0x2B PUSH1 0x24 DUP3 ADD MSTORE PUSH32 0x536574746C656D656E743A206469766964656E642061646A7573746D656E7420 PUSH1 0x44 DUP3 ADD MSTORE PUSH11 0x1B9BDD08195B98589B1959 PUSH1 0xAA SHL PUSH1 0x64 DUP3 ADD MSTORE PUSH1 0x84 SWAP1 REVERT JUMPDEST PUSH2 0x18C9 SWAP2 POP RETURNDATASIZE DUP1 DUP8 DUP4 RETURNDATACOPY PUSH2 0x3F2 DUP2 DUP4 PUSH2 0x2F99 JUMP JUMPDEST CODESIZE PUSH2 0x1736 JUMP JUMPDEST POP CALLVALUE PUSH2 0x40F JUMPI PUSH1 0x20 CALLDATASIZE PUSH1 0x3 NOT ADD SLT PUSH2 0x40F JUMPI PUSH1 0x4 CALLDATALOAD PUSH2 0x18EC PUSH2 0x3376 JUMP JUMPDEST PUSH2 0x18F4 PUSH2 0x3358 JUMP JUMPDEST PUSH1 0x2 SLOAD PUSH1 0x40 MLOAD PUSH4 0xD09EF241 PUSH1 0xE0 SHL DUP2 MSTORE PUSH1 0x4 DUP2 ADD DUP4 SWAP1 MSTORE PUSH1 0x1 PUSH1 0x1 PUSH1 0xA0 SHL SUB PUSH1 0x8 SWAP3 SWAP1 SWAP3 SHR DUP3 AND SWAP2 PUSH1 0x24 SWAP2 DUP6 DUP2 DUP5 DUP2 DUP8 GAS STATICCALL SWAP1 DUP2 ISZERO PUSH2 0xEFE JUMPI DUP7 SWAP2 PUSH2 0x1C3D JUMPI JUMPDEST POP PUSH2 0x380 DUP2 ADD DUP1 MLOAD PUSH1 0xB DUP2 LT ISZERO PUSH2 0x1C2A JUMPI PUSH1 0x4 PUSH2 0x1951 SWAP2 EQ PUSH2 0x32B6 JUMP JUMPDEST MLOAD SWAP4 PUSH1 0xB DUP6 LT ISZERO PUSH2 0x1C17 JUMPI SWAP1 DUP2 DUP8 SWAP5 SWAP4 SWAP3 EXTCODESIZE ISZERO PUSH2 0x762 JUMPI DUP5 DUP1 SWAP2 PUSH1 0x44 PUSH1 0x40 MLOAD DUP1 SWAP5 DUP2 SWAP4 PUSH4 0xAAB3196D PUSH1 0xE0 SHL DUP4 MSTORE DUP13 PUSH1 0x4 DUP5 ADD MSTORE PUSH1 0x9 DUP11 DUP5 ADD MSTORE GAS CALL SWAP1 DUP2 ISZERO PUSH2 0x7C1 JUMPI DUP6 SWAP2 PUSH2 0x1C03 JUMPI JUMPDEST POP POP DUP2 PUSH1 0x2 SLOAD PUSH1 0x8 SHR AND DUP1 EXTCODESIZE ISZERO PUSH2 0x762 JUMPI DUP5 DUP1 SWAP2 PUSH1 0x44 PUSH1 0x40 MLOAD DUP1 SWAP5 DUP2 SWAP4 PUSH4 0x15D92E33 PUSH1 0xE0 SHL DUP4 MSTORE DUP13 PUSH1 0x4 DUP5 ADD MSTORE TIMESTAMP DUP11 DUP5 ADD MSTORE GAS CALL SWAP1 DUP2 ISZERO PUSH2 0x7C1 JUMPI DUP6 SWAP2 PUSH2 0x1BEF JUMPI JUMPDEST POP POP PUSH2 0x1E0 DUP2 ADD SWAP3 DUP4 MLOAD DUP1 PUSH2 0x1AE3 JUMPI JUMPDEST POP DUP3 PUSH1 0x2 SLOAD PUSH1 0x8 SHR AND DUP1 EXTCODESIZE ISZERO PUSH2 0x83B JUMPI DUP6 SWAP2 PUSH1 0x44 DUP10 DUP5 DUP1 SWAP5 PUSH1 0x40 MLOAD SWAP11 DUP12 SWAP6 DUP7 SWAP5 PUSH4 0x381BAFD PUSH1 0xE3 SHL DUP7 MSTORE PUSH1 0x4 DUP7 ADD MSTORE DUP5 ADD MSTORE GAS CALL SWAP5 DUP6 ISZERO PUSH2 0x1AD6 JUMPI DUP8 SWAP6 PUSH2 0x1AB9 JUMPI JUMPDEST POP POP PUSH1 0x0 DUP1 MLOAD PUSH1 0x20 PUSH2 0x3548 DUP4 CODECOPY DUP2 MLOAD SWAP2 MSTORE SWAP5 SWAP3 PUSH1 0xC0 SWAP5 SWAP3 PUSH1 0x20 PUSH1 0x0 DUP1 MLOAD PUSH1 0x20 PUSH2 0x3508 DUP4 CODECOPY DUP2 MLOAD SWAP2 MSTORE SWAP4 ADD MLOAD AND SWAP1 MLOAD PUSH2 0x1A6D PUSH1 0x40 MLOAD SWAP3 DUP4 SWAP3 TIMESTAMP SWAP2 DUP5 PUSH2 0x34C2 JUMP JUMPDEST SUB SWAP1 LOG2 PUSH2 0x1A7D PUSH1 0x40 MLOAD DUP1 SWAP3 PUSH2 0x3335 JUMP JUMPDEST PUSH1 0x9 PUSH1 0x20 DUP3 ADD MSTORE PUSH1 0x80 PUSH1 0x40 DUP3 ADD MSTORE PUSH1 0x10 PUSH1 0x80 DUP3 ADD MSTORE PUSH16 0x199BDC98D9481B1A5C5D5A59185D1959 PUSH1 0x82 SHL PUSH1 0xA0 DUP3 ADD MSTORE TIMESTAMP PUSH1 0x60 DUP3 ADD MSTORE LOG2 PUSH1 0x1 DUP1 SSTORE DUP1 RETURN JUMPDEST PUSH2 0x1AC7 SWAP2 SWAP3 SWAP7 SWAP5 SWAP6 POP PUSH2 0x2F86 JUMP JUMPDEST PUSH2 0x83B JUMPI DUP5 SWAP3 SWAP2 SWAP4 DUP7 CODESIZE PUSH2 0x1A2E JUMP JUMPDEST POP PUSH1 0x40 MLOAD SWAP1 RETURNDATASIZE SWAP1 DUP3 RETURNDATACOPY RETURNDATASIZE SWAP1 REVERT JUMPDEST DUP4 PUSH1 0x4 SLOAD AND SWAP1 DUP5 PUSH1 0x40 DUP6 ADD MLOAD AND SWAP1 PUSH1 0x20 DUP6 ADD SWAP3 DUP7 DUP5 MLOAD AND SWAP1 DUP8 PUSH1 0x5 SLOAD AND SWAP4 DUP2 EXTCODESIZE ISZERO PUSH2 0x1BEB JUMPI DUP11 PUSH1 0xE4 SWAP3 DUP2 SWAP6 PUSH1 0x40 MLOAD SWAP8 DUP9 SWAP7 DUP8 SWAP6 PUSH4 0x5FE3A8B PUSH1 0xE3 SHL DUP8 MSTORE PUSH1 0x4 DUP8 ADD MSTORE DUP12 DUP7 ADD MSTORE PUSH1 0x44 DUP6 ADD MSTORE PUSH1 0x64 DUP5 ADD MSTORE PUSH1 0xA0 PUSH1 0x84 DUP5 ADD MSTORE PUSH1 0x12 PUSH1 0xA4 DUP5 ADD MSTORE PUSH18 0x1B1A5C5D5A59185D1A5BDB881C185E5BDD5D PUSH1 0x72 SHL PUSH1 0xC4 DUP5 ADD MSTORE GAS CALL SWAP1 DUP2 ISZERO PUSH2 0x400 JUMPI DUP8 SWAP2 PUSH2 0x1BD7 JUMPI JUMPDEST POP POP DUP4 DUP1 PUSH1 0x4 SLOAD AND SWAP2 MLOAD AND DUP5 PUSH1 0x5 SLOAD AND SWAP2 DUP7 MLOAD SWAP1 DUP1 EXTCODESIZE ISZERO PUSH2 0x7CC JUMPI PUSH2 0x1BAB SWAP4 DUP10 DUP1 SWAP5 PUSH1 0x40 MLOAD SWAP7 DUP8 SWAP6 DUP7 SWAP5 DUP6 SWAP4 PUSH4 0x6924FAA7 PUSH1 0xE1 SHL DUP6 MSTORE PUSH1 0x4 DUP6 ADD PUSH2 0x33C6 JUMP JUMPDEST SUB SWAP3 GAS CALL SWAP1 DUP2 ISZERO PUSH2 0xEFE JUMPI DUP7 SWAP2 PUSH2 0x1BC3 JUMPI JUMPDEST POP PUSH2 0x19EC JUMP JUMPDEST PUSH2 0x1BCC SWAP1 PUSH2 0x2F86 JUMP JUMPDEST PUSH2 0x762 JUMPI DUP5 CODESIZE PUSH2 0x1BBD JUMP JUMPDEST PUSH2 0x1BE0 SWAP1 PUSH2 0x2F86 JUMP JUMPDEST PUSH2 0x83B JUMPI DUP6 CODESIZE PUSH2 0x1B6C JUMP JUMPDEST DUP11 DUP1 REVERT JUMPDEST PUSH2 0x1BF8 SWAP1 PUSH2 0x2F86 JUMP JUMPDEST PUSH2 0x40B JUMPI DUP4 CODESIZE PUSH2 0x19DC JUMP JUMPDEST PUSH2 0x1C0C SWAP1 PUSH2 0x2F86 JUMP JUMPDEST PUSH2 0x40B JUMPI DUP4 CODESIZE PUSH2 0x199A JUMP JUMPDEST PUSH4 0x4E487B71 PUSH1 0xE0 SHL DUP8 MSTORE PUSH1 0x21 PUSH1 0x4 MSTORE DUP4 DUP8 REVERT JUMPDEST PUSH4 0x4E487B71 PUSH1 0xE0 SHL DUP9 MSTORE PUSH1 0x21 PUSH1 0x4 MSTORE DUP5 DUP9 REVERT JUMPDEST PUSH2 0x1C51 SWAP2 POP RETURNDATASIZE DUP1 DUP9 DUP4 RETURNDATACOPY PUSH2 0x3F2 DUP2 DUP4 PUSH2 0x2F99 JUMP JUMPDEST CODESIZE PUSH2 0x1934 JUMP JUMPDEST POP PUSH1 0x20 DUP1 PUSH1 0x3 NOT CALLDATASIZE ADD SLT PUSH2 0x753 JUMPI PUSH1 0x4 CALLDATALOAD SWAP1 PUSH2 0x1C71 PUSH2 0x3376 JUMP JUMPDEST PUSH2 0x1C79 PUSH2 0x3358 JUMP JUMPDEST PUSH1 0x2 SLOAD SWAP1 PUSH1 0x40 MLOAD PUSH4 0xD09EF241 PUSH1 0xE0 SHL DUP2 MSTORE DUP4 PUSH1 0x4 DUP3 ADD MSTORE PUSH1 0x24 SWAP1 DUP6 DUP2 DUP4 DUP2 PUSH1 0x1 DUP1 PUSH1 0xA0 SHL SUB DUP1 SWAP9 PUSH1 0x8 SHR AND GAS STATICCALL SWAP1 DUP2 ISZERO PUSH2 0xEFE JUMPI DUP7 SWAP2 PUSH2 0x1FA1 JUMPI JUMPDEST POP PUSH2 0x380 DUP2 ADD SWAP1 DUP2 MLOAD PUSH1 0xB DUP2 LT ISZERO PUSH2 0x3CB JUMPI PUSH1 0x6 SUB PUSH2 0x1F4D JUMPI DUP5 DUP5 DUP3 ADD MLOAD AND CALLER EQ DUP1 ISZERO PUSH2 0x1F3E JUMPI JUMPDEST ISZERO PUSH2 0x1EFA JUMPI DUP1 PUSH2 0x300 PUSH2 0x3E0 PUSH2 0x1CF7 SWAP4 ADD MLOAD SWAP2 ADD MLOAD SWAP1 PUSH2 0x3328 JUMP JUMPDEST TIMESTAMP GT PUSH2 0x1EA8 JUMPI DUP4 PUSH1 0x5 SLOAD AND PUSH1 0x4 DUP8 DUP7 DUP3 SLOAD AND DUP7 DUP9 PUSH1 0x3 SLOAD AND PUSH1 0x40 MLOAD SWAP5 DUP6 DUP1 SWAP3 PUSH4 0x39F4F75 PUSH1 0xE3 SHL DUP3 MSTORE GAS STATICCALL DUP1 ISZERO PUSH2 0x2DB JUMPI DUP8 SWAP4 DUP4 SWAP2 PUSH2 0x1E74 JUMPI JUMPDEST POP PUSH2 0x1D64 PUSH2 0x1D56 SWAP2 PUSH1 0x40 MLOAD SWAP3 DUP4 SWAP2 DUP8 DUP4 ADD SWAP6 PUSH4 0x23B872DD PUSH1 0xE0 SHL DUP8 MSTORE CALLER DUP13 DUP6 ADD PUSH2 0x33C6 JUMP JUMPDEST SUB PUSH1 0x1F NOT DUP2 ADD DUP4 MSTORE DUP3 PUSH2 0x2F99 JUMP JUMPDEST MLOAD SWAP1 DUP3 DUP6 GAS CALL ISZERO PUSH2 0xEFE JUMPI DUP7 MLOAD RETURNDATASIZE PUSH2 0x1E6B JUMPI POP DUP1 EXTCODESIZE ISZERO JUMPDEST PUSH2 0x1E54 JUMPI POP MLOAD SWAP3 PUSH1 0xB DUP5 LT ISZERO PUSH2 0x1E41 JUMPI SWAP1 DUP6 SWAP2 PUSH1 0x2 SLOAD PUSH1 0x8 SHR AND SWAP1 DUP2 EXTCODESIZE ISZERO PUSH2 0x2E6 JUMPI PUSH1 0x7 PUSH1 0x44 DUP5 SWAP3 DUP4 PUSH1 0x40 MLOAD SWAP6 DUP7 SWAP5 DUP6 SWAP4 PUSH4 0xAAB3196D PUSH1 0xE0 SHL DUP6 MSTORE DUP13 PUSH1 0x4 DUP7 ADD MSTORE DUP5 ADD MSTORE GAS CALL DUP1 ISZERO PUSH2 0x2DB JUMPI PUSH2 0x1E2D JUMPI JUMPDEST POP POP PUSH1 0x0 DUP1 MLOAD PUSH1 0x20 PUSH2 0x3548 DUP4 CODECOPY DUP2 MLOAD SWAP2 MSTORE SWAP2 PUSH1 0x7 PUSH1 0xC0 SWAP3 PUSH2 0x1DF0 PUSH1 0x40 MLOAD DUP1 SWAP5 PUSH2 0x3335 JUMP JUMPDEST DUP3 ADD MSTORE PUSH1 0x80 PUSH1 0x40 DUP3 ADD MSTORE PUSH1 0x15 PUSH1 0x80 DUP3 ADD MSTORE PUSH21 0x185C989A5D1C985D1A5BDB881A5B9A5D1A585D1959 PUSH1 0x5A SHL PUSH1 0xA0 DUP3 ADD MSTORE TIMESTAMP PUSH1 0x60 DUP3 ADD MSTORE LOG2 PUSH1 0x1 DUP1 SSTORE DUP1 RETURN JUMPDEST PUSH2 0x1E36 SWAP1 PUSH2 0x2F86 JUMP JUMPDEST PUSH2 0x40B JUMPI DUP4 CODESIZE PUSH2 0x1DCC JUMP JUMPDEST POP PUSH4 0x4E487B71 PUSH1 0xE0 SHL DUP6 MSTORE PUSH1 0x21 PUSH1 0x4 MSTORE DUP5 REVERT JUMPDEST SWAP1 POP PUSH1 0x40 MLOAD SWAP1 PUSH4 0x5274AFE7 PUSH1 0xE0 SHL DUP3 MSTORE PUSH1 0x4 DUP3 ADD MSTORE REVERT JUMPDEST PUSH1 0x1 EQ ISZERO PUSH2 0x1D7B JUMP JUMPDEST SWAP3 POP POP SWAP2 DUP2 DUP2 RETURNDATASIZE DUP4 GT PUSH2 0x1EA1 JUMPI JUMPDEST PUSH2 0x1E8C DUP2 DUP4 PUSH2 0x2F99 JUMP JUMPDEST DUP2 ADD SUB SLT PUSH2 0x319 JUMPI MLOAD DUP6 SWAP2 DUP10 SWAP2 PUSH2 0x1D64 PUSH2 0x1D31 JUMP JUMPDEST POP RETURNDATASIZE PUSH2 0x1E82 JUMP JUMPDEST PUSH1 0x40 MLOAD PUSH3 0x461BCD PUSH1 0xE5 SHL DUP2 MSTORE PUSH1 0x4 DUP2 ADD DUP5 SWAP1 MSTORE PUSH1 0x25 DUP2 DUP5 ADD MSTORE PUSH32 0x536574746C656D656E743A206172626974726174696F6E2077696E646F772063 PUSH1 0x44 DUP3 ADD MSTORE PUSH5 0x1B1BDCD959 PUSH1 0xDA SHL PUSH1 0x64 DUP3 ADD MSTORE PUSH1 0x84 SWAP1 REVERT JUMPDEST PUSH1 0x40 MLOAD PUSH3 0x461BCD PUSH1 0xE5 SHL DUP2 MSTORE PUSH1 0x4 DUP2 ADD DUP6 SWAP1 MSTORE PUSH1 0x1E DUP2 DUP6 ADD MSTORE PUSH32 0x536574746C656D656E743A206E6F7420706172747920746F206F726465720000 PUSH1 0x44 DUP3 ADD MSTORE PUSH1 0x64 SWAP1 REVERT JUMPDEST POP DUP5 PUSH1 0x40 DUP3 ADD MLOAD AND CALLER EQ PUSH2 0x1CDC JUMP JUMPDEST PUSH1 0x40 MLOAD PUSH3 0x461BCD PUSH1 0xE5 SHL DUP2 MSTORE PUSH1 0x4 DUP2 ADD DUP6 SWAP1 MSTORE PUSH1 0x27 DUP2 DUP6 ADD MSTORE PUSH32 0x536574746C656D656E743A2063616E6E6F7420696E6974696174652061726269 PUSH1 0x44 DUP3 ADD MSTORE PUSH7 0x3A3930BA34B7B7 PUSH1 0xC9 SHL PUSH1 0x64 DUP3 ADD MSTORE PUSH1 0x84 SWAP1 REVERT JUMPDEST PUSH2 0x1FB5 SWAP2 POP RETURNDATASIZE DUP1 DUP9 DUP4 RETURNDATACOPY PUSH2 0x3F2 DUP2 DUP4 PUSH2 0x2F99 JUMP JUMPDEST CODESIZE PUSH2 0x1CB4 JUMP JUMPDEST POP CALLVALUE PUSH2 0x40F JUMPI DUP1 PUSH1 0x3 NOT CALLDATASIZE ADD SLT PUSH2 0x40F JUMPI PUSH1 0x2 SLOAD PUSH1 0x40 MLOAD PUSH1 0x8 SWAP2 SWAP1 SWAP2 SHR PUSH1 0x1 PUSH1 0x1 PUSH1 0xA0 SHL SUB AND DUP2 MSTORE PUSH1 0x20 SWAP1 RETURN JUMPDEST POP CALLVALUE PUSH2 0x40F JUMPI DUP1 PUSH1 0x3 NOT CALLDATASIZE ADD SLT PUSH2 0x40F JUMPI PUSH1 0x20 PUSH1 0xFF PUSH1 0x2 SLOAD AND PUSH1 0x40 MLOAD SWAP1 ISZERO ISZERO DUP2 MSTORE RETURN JUMPDEST POP CALLVALUE PUSH2 0x40F JUMPI PUSH1 0x20 DUP1 PUSH1 0x3 NOT CALLDATASIZE ADD SLT PUSH2 0x753 JUMPI PUSH1 0x4 CALLDATALOAD SWAP1 PUSH2 0x202A PUSH2 0x3376 JUMP JUMPDEST PUSH2 0x2032 PUSH2 0x3358 JUMP JUMPDEST PUSH1 0x2 SLOAD PUSH1 0x40 MLOAD PUSH4 0xD09EF241 PUSH1 0xE0 SHL DUP2 MSTORE PUSH1 0x4 DUP2 ADD DUP5 SWAP1 MSTORE PUSH1 0x1 PUSH1 0x1 PUSH1 0xA0 SHL SUB PUSH1 0x8 SWAP3 SWAP1 SWAP3 SHR DUP3 AND SWAP3 SWAP2 PUSH1 0x24 SWAP2 DUP7 DUP2 DUP5 DUP2 DUP9 GAS STATICCALL SWAP1 DUP2 ISZERO PUSH2 0x400 JUMPI DUP8 SWAP2 PUSH2 0x24C4 JUMPI JUMPDEST POP PUSH2 0x380 DUP2 ADD DUP1 MLOAD PUSH1 0xB DUP2 LT ISZERO PUSH2 0x23DD JUMPI PUSH1 0x4 PUSH2 0x2090 SWAP2 EQ PUSH2 0x32B6 JUMP JUMPDEST PUSH2 0x320 DUP3 ADD DUP1 MLOAD ISZERO PUSH2 0x2476 JUMPI MLOAD TIMESTAMP GT ISZERO PUSH2 0x2434 JUMPI PUSH2 0x2710 PUSH2 0x20BC PUSH2 0x1C0 DUP5 ADD MLOAD PUSH2 0x200 DUP6 ADD MLOAD SWAP1 PUSH2 0x32FF JUMP JUMPDEST DIV SWAP1 PUSH2 0x1E0 DUP4 ADD SWAP2 DUP3 MLOAD LT ISZERO PUSH2 0x23F0 JUMPI MLOAD SWAP6 PUSH1 0xB DUP8 LT ISZERO PUSH2 0x23DD JUMPI SWAP1 DUP2 DUP10 SWAP6 SWAP5 SWAP4 SWAP3 EXTCODESIZE ISZERO PUSH2 0x83B JUMPI DUP6 DUP1 SWAP2 PUSH1 0x44 DUP12 PUSH1 0x40 MLOAD SWAP5 DUP6 SWAP4 DUP5 SWAP3 PUSH4 0xAAB3196D PUSH1 0xE0 SHL DUP5 MSTORE PUSH1 0x4 DUP5 ADD MSTORE PUSH1 0x9 DUP12 DUP5 ADD MSTORE GAS CALL SWAP1 DUP2 ISZERO PUSH2 0xEFE JUMPI DUP7 SWAP2 PUSH2 0x23C9 JUMPI JUMPDEST POP POP DUP3 PUSH1 0x2 SLOAD PUSH1 0x8 SHR AND DUP1 EXTCODESIZE ISZERO PUSH2 0x83B JUMPI DUP6 DUP1 SWAP2 PUSH1 0x44 DUP12 PUSH1 0x40 MLOAD SWAP5 DUP6 SWAP4 DUP5 SWAP3 PUSH4 0x15D92E33 PUSH1 0xE0 SHL DUP5 MSTORE PUSH1 0x4 DUP5 ADD MSTORE TIMESTAMP DUP12 DUP5 ADD MSTORE GAS CALL SWAP1 DUP2 ISZERO PUSH2 0xEFE JUMPI DUP7 SWAP2 PUSH2 0x23B5 JUMPI JUMPDEST POP POP MLOAD SWAP3 DUP4 PUSH2 0x22A6 JUMPI JUMPDEST DUP3 PUSH1 0x2 SLOAD PUSH1 0x8 SHR AND DUP1 EXTCODESIZE ISZERO PUSH2 0x83B JUMPI DUP6 DUP1 SWAP2 PUSH1 0x44 DUP12 PUSH1 0x40 MLOAD SWAP5 DUP6 SWAP4 DUP5 SWAP3 PUSH4 0x381BAFD PUSH1 0xE3 SHL DUP5 MSTORE PUSH1 0x4 DUP5 ADD MSTORE DUP2 DUP9 DUP5 ADD MSTORE GAS CALL SWAP1 DUP2 ISZERO PUSH2 0xEFE JUMPI DUP7 SWAP2 PUSH2 0x2292 JUMPI JUMPDEST POP POP DUP3 PUSH1 0x2 SLOAD PUSH1 0x8 SHR AND DUP1 EXTCODESIZE ISZERO PUSH2 0x83B JUMPI DUP6 SWAP2 PUSH1 0x44 DUP11 DUP5 DUP1 SWAP5 PUSH1 0x40 MLOAD SWAP11 DUP12 SWAP6 DUP7 SWAP5 PUSH4 0xD37E527B PUSH1 0xE0 SHL DUP7 MSTORE PUSH1 0x4 DUP7 ADD MSTORE DUP5 ADD MSTORE GAS CALL SWAP5 DUP6 ISZERO PUSH2 0x1AD6 JUMPI DUP9 SWAP6 PUSH2 0x2273 JUMPI JUMPDEST POP POP SWAP3 PUSH1 0x0 DUP1 MLOAD PUSH1 0x20 PUSH2 0x3508 DUP4 CODECOPY DUP2 MLOAD SWAP2 MSTORE PUSH1 0x9 SWAP4 DUP7 SWAP4 PUSH1 0xC0 SWAP8 PUSH1 0x0 DUP1 MLOAD PUSH1 0x20 PUSH2 0x3548 DUP4 CODECOPY DUP2 MLOAD SWAP2 MSTORE SWAP10 SWAP8 ADD MLOAD AND SWAP1 PUSH2 0x2228 PUSH1 0x40 MLOAD SWAP3 DUP4 SWAP3 TIMESTAMP SWAP2 DUP5 PUSH2 0x34C2 JUMP JUMPDEST SUB SWAP1 LOG2 PUSH2 0x2238 PUSH1 0x40 MLOAD DUP1 SWAP5 PUSH2 0x3335 JUMP JUMPDEST DUP3 ADD MSTORE PUSH1 0x80 PUSH1 0x40 DUP3 ADD MSTORE PUSH1 0x13 PUSH1 0x80 DUP3 ADD MSTORE PUSH19 0x1B585C99DA5B8818D85B1B081D1A5B595BDD5D PUSH1 0x6A SHL PUSH1 0xA0 DUP3 ADD MSTORE TIMESTAMP PUSH1 0x60 DUP3 ADD MSTORE LOG2 PUSH1 0x1 DUP1 SSTORE DUP1 RETURN JUMPDEST PUSH2 0x2282 SWAP2 SWAP3 SWAP7 SWAP4 SWAP8 SWAP6 POP PUSH2 0x2F86 JUMP JUMPDEST PUSH2 0x2D7 JUMPI SWAP3 SWAP4 DUP6 SWAP3 SWAP5 DUP8 CODESIZE PUSH2 0x21E8 JUMP JUMPDEST PUSH2 0x229B SWAP1 PUSH2 0x2F86 JUMP JUMPDEST PUSH2 0x762 JUMPI DUP5 CODESIZE PUSH2 0x21A5 JUMP JUMPDEST DUP3 PUSH1 0x4 SLOAD AND DUP4 PUSH1 0x40 DUP5 ADD MLOAD AND SWAP1 DUP8 DUP5 ADD SWAP2 DUP6 DUP4 MLOAD AND DUP7 PUSH1 0x5 SLOAD AND SWAP3 DUP1 EXTCODESIZE ISZERO PUSH2 0x83F JUMPI DUP10 SWAP3 DUP4 PUSH1 0xE4 SWAP3 PUSH1 0x40 MLOAD SWAP7 DUP8 SWAP6 DUP7 SWAP5 PUSH4 0x5FE3A8B PUSH1 0xE3 SHL DUP7 MSTORE PUSH1 0x4 DUP7 ADD MSTORE DUP11 DUP6 ADD MSTORE PUSH1 0x44 DUP5 ADD MSTORE DUP12 PUSH1 0x64 DUP5 ADD MSTORE PUSH1 0xA0 PUSH1 0x84 DUP5 ADD MSTORE PUSH1 0x17 PUSH1 0xA4 DUP5 ADD MSTORE PUSH23 0x36B0B933B4B71031B0B636103634B8BAB4B230BA34B7B7 PUSH1 0x49 SHL PUSH1 0xC4 DUP5 ADD MSTORE GAS CALL SWAP1 DUP2 ISZERO PUSH2 0x400 JUMPI DUP8 SWAP2 PUSH2 0x23A1 JUMPI JUMPDEST POP POP DUP4 DUP1 PUSH1 0x4 SLOAD AND SWAP2 MLOAD AND DUP5 PUSH1 0x5 SLOAD AND SWAP1 DUP3 EXTCODESIZE ISZERO PUSH2 0x239D JUMPI PUSH2 0x2370 SWAP3 DUP9 SWAP3 DUP4 DUP10 SWAP4 PUSH1 0x40 MLOAD SWAP7 DUP8 SWAP6 DUP7 SWAP5 DUP6 SWAP4 PUSH4 0x6924FAA7 PUSH1 0xE1 SHL DUP6 MSTORE PUSH1 0x4 DUP6 ADD PUSH2 0x33C6 JUMP JUMPDEST SUB SWAP3 GAS CALL SWAP1 DUP2 ISZERO PUSH2 0xEFE JUMPI DUP7 SWAP2 PUSH2 0x2389 JUMPI JUMPDEST POP POP PUSH2 0x2164 JUMP JUMPDEST PUSH2 0x2392 SWAP1 PUSH2 0x2F86 JUMP JUMPDEST PUSH2 0x762 JUMPI DUP5 CODESIZE PUSH2 0x2382 JUMP JUMPDEST DUP8 DUP1 REVERT JUMPDEST PUSH2 0x23AA SWAP1 PUSH2 0x2F86 JUMP JUMPDEST PUSH2 0x83B JUMPI DUP6 CODESIZE PUSH2 0x2332 JUMP JUMPDEST PUSH2 0x23BE SWAP1 PUSH2 0x2F86 JUMP JUMPDEST PUSH2 0x762 JUMPI DUP5 CODESIZE PUSH2 0x215A JUMP JUMPDEST PUSH2 0x23D2 SWAP1 PUSH2 0x2F86 JUMP JUMPDEST PUSH2 0x762 JUMPI DUP5 CODESIZE PUSH2 0x2117 JUMP JUMPDEST PUSH4 0x4E487B71 PUSH1 0xE0 SHL DUP10 MSTORE PUSH1 0x21 PUSH1 0x4 MSTORE DUP5 DUP10 REVERT JUMPDEST PUSH1 0x40 MLOAD PUSH3 0x461BCD PUSH1 0xE5 SHL DUP2 MSTORE PUSH1 0x4 DUP2 ADD DUP8 SWAP1 MSTORE PUSH1 0x1F DUP2 DUP8 ADD MSTORE PUSH32 0x536574746C656D656E743A206D617267696E2077617320726573746F72656400 PUSH1 0x44 DUP3 ADD MSTORE PUSH1 0x64 SWAP1 REVERT JUMPDEST PUSH1 0x64 DUP5 DUP7 PUSH1 0x40 MLOAD SWAP2 PUSH3 0x461BCD PUSH1 0xE5 SHL DUP4 MSTORE DUP2 PUSH1 0x4 DUP5 ADD MSTORE DUP3 ADD MSTORE PUSH32 0x536574746C656D656E743A20646561646C696E65206E6F742072656163686564 PUSH1 0x44 DUP3 ADD MSTORE REVERT JUMPDEST PUSH1 0x40 MLOAD PUSH3 0x461BCD PUSH1 0xE5 SHL DUP2 MSTORE PUSH1 0x4 DUP2 ADD DUP8 SWAP1 MSTORE PUSH1 0x21 DUP2 DUP8 ADD MSTORE PUSH32 0x536574746C656D656E743A206E6F206D617267696E2063616C6C206163746976 PUSH1 0x44 DUP3 ADD MSTORE PUSH1 0x65 PUSH1 0xF8 SHL PUSH1 0x64 DUP3 ADD MSTORE PUSH1 0x84 SWAP1 REVERT JUMPDEST PUSH2 0x24D8 SWAP2 POP RETURNDATASIZE DUP1 DUP10 DUP4 RETURNDATACOPY PUSH2 0x3F2 DUP2 DUP4 PUSH2 0x2F99 JUMP JUMPDEST CODESIZE PUSH2 0x2073 JUMP JUMPDEST POP CALLVALUE PUSH2 0x40F JUMPI PUSH1 0x20 DUP1 PUSH1 0x3 NOT CALLDATASIZE ADD SLT PUSH2 0x753 JUMPI PUSH1 0x4 CALLDATALOAD SWAP1 PUSH2 0x24FD PUSH2 0x3376 JUMP JUMPDEST PUSH2 0x2505 PUSH2 0x3358 JUMP JUMPDEST PUSH1 0x2 SLOAD PUSH1 0x40 MLOAD PUSH4 0xD09EF241 PUSH1 0xE0 SHL DUP2 MSTORE PUSH1 0x4 DUP2 ADD DUP5 SWAP1 MSTORE PUSH1 0x24 SWAP3 SWAP2 PUSH1 0x8 SHR PUSH1 0x1 PUSH1 0x1 PUSH1 0xA0 SHL SUB SWAP1 DUP2 AND SWAP2 SWAP1 DUP7 DUP3 DUP7 DUP2 DUP7 GAS STATICCALL SWAP2 DUP3 ISZERO PUSH2 0x400 JUMPI DUP8 SWAP3 PUSH2 0x2757 JUMPI JUMPDEST POP DUP2 MLOAD ISZERO PUSH2 0x2717 JUMPI DUP4 DUP3 ADD MLOAD AND CALLER SUB PUSH2 0x26DB JUMPI PUSH2 0x380 DUP2 ADD SWAP1 DUP2 MLOAD PUSH1 0xB DUP2 LT ISZERO PUSH2 0x26C8 JUMPI PUSH1 0x4 PUSH2 0x2575 SWAP2 EQ PUSH2 0x32B6 JUMP JUMPDEST PUSH1 0xFF PUSH2 0x2A0 DUP3 ADD MLOAD AND SWAP1 DUP2 DUP1 DIV PUSH1 0x1 EQ DUP3 ISZERO OR ISZERO PUSH2 0x26B5 JUMPI SWAP1 PUSH2 0x3C0 PUSH2 0x259C SWAP3 ADD MLOAD PUSH2 0x3328 JUMP JUMPDEST TIMESTAMP LT PUSH2 0x2666 JUMPI MLOAD SWAP3 PUSH1 0xB DUP5 LT ISZERO PUSH2 0x2654 JUMPI SWAP1 DUP6 SWAP2 DUP2 EXTCODESIZE ISZERO PUSH2 0x2E6 JUMPI PUSH1 0x5 PUSH1 0x44 DUP5 SWAP3 DUP4 PUSH1 0x40 MLOAD SWAP6 DUP7 SWAP5 DUP6 SWAP4 PUSH4 0xAAB3196D PUSH1 0xE0 SHL DUP6 MSTORE DUP13 PUSH1 0x4 DUP7 ADD MSTORE DUP5 ADD MSTORE GAS CALL DUP1 ISZERO PUSH2 0x2DB JUMPI PUSH2 0x2640 JUMPI JUMPDEST POP POP PUSH1 0x0 DUP1 MLOAD PUSH1 0x20 PUSH2 0x3548 DUP4 CODECOPY DUP2 MLOAD SWAP2 MSTORE SWAP2 PUSH1 0x5 PUSH1 0xC0 SWAP3 PUSH2 0x260A PUSH1 0x40 MLOAD DUP1 SWAP5 PUSH2 0x3335 JUMP JUMPDEST DUP3 ADD MSTORE PUSH1 0x80 PUSH1 0x40 DUP3 ADD MSTORE PUSH1 0xE PUSH1 0x80 DUP3 ADD MSTORE PUSH14 0x6561726C79206578657263697365 PUSH1 0x90 SHL PUSH1 0xA0 DUP3 ADD MSTORE TIMESTAMP PUSH1 0x60 DUP3 ADD MSTORE LOG2 PUSH1 0x1 DUP1 SSTORE DUP1 RETURN JUMPDEST PUSH2 0x2649 SWAP1 PUSH2 0x2F86 JUMP JUMPDEST PUSH2 0x40B JUMPI DUP4 CODESIZE PUSH2 0x25E6 JUMP JUMPDEST PUSH4 0x4E487B71 PUSH1 0xE0 SHL DUP7 MSTORE PUSH1 0x21 PUSH1 0x4 MSTORE DUP6 REVERT JUMPDEST PUSH1 0x40 MLOAD PUSH3 0x461BCD PUSH1 0xE5 SHL DUP2 MSTORE PUSH1 0x4 DUP2 ADD DUP5 SWAP1 MSTORE PUSH1 0x22 DUP2 DUP7 ADD MSTORE PUSH32 0x536574746C656D656E743A2065786572636973652064656C6179206E6F74206D PUSH1 0x44 DUP3 ADD MSTORE PUSH2 0x195D PUSH1 0xF2 SHL PUSH1 0x64 DUP3 ADD MSTORE PUSH1 0x84 SWAP1 REVERT JUMPDEST PUSH4 0x4E487B71 PUSH1 0xE0 SHL DUP9 MSTORE PUSH1 0x11 PUSH1 0x4 MSTORE DUP6 DUP9 REVERT JUMPDEST PUSH4 0x4E487B71 PUSH1 0xE0 SHL DUP9 MSTORE PUSH1 0x21 PUSH1 0x4 MSTORE DUP6 DUP9 REVERT JUMPDEST PUSH1 0x40 MLOAD PUSH3 0x461BCD PUSH1 0xE5 SHL DUP2 MSTORE PUSH1 0x4 DUP2 ADD DUP5 SWAP1 MSTORE PUSH1 0x15 DUP2 DUP7 ADD MSTORE PUSH21 0x29B2BA3A3632B6B2B73A1D103737BA10313ABCB2B9 PUSH1 0x59 SHL PUSH1 0x44 DUP3 ADD MSTORE PUSH1 0x64 SWAP1 REVERT JUMPDEST PUSH1 0x40 MLOAD PUSH3 0x461BCD PUSH1 0xE5 SHL DUP2 MSTORE PUSH1 0x4 DUP2 ADD DUP6 SWAP1 MSTORE PUSH1 0x19 DUP2 DUP8 ADD MSTORE PUSH25 0x29B2BA3A3632B6B2B73A1D1034B73B30B634B21037B93232B9 PUSH1 0x39 SHL PUSH1 0x44 DUP3 ADD MSTORE PUSH1 0x64 SWAP1 REVERT JUMPDEST PUSH2 0x276C SWAP2 SWAP3 POP RETURNDATASIZE DUP1 DUP10 DUP4 RETURNDATACOPY PUSH2 0x3F2 DUP2 DUP4 PUSH2 0x2F99 JUMP JUMPDEST SWAP1 CODESIZE PUSH2 0x2545 JUMP JUMPDEST POP CALLVALUE PUSH2 0x40F JUMPI DUP1 PUSH1 0x3 NOT CALLDATASIZE ADD SLT PUSH2 0x40F JUMPI PUSH2 0x278C PUSH2 0x2E15 JUMP JUMPDEST PUSH1 0x2 SLOAD PUSH1 0xFF DUP2 AND ISZERO PUSH2 0x27CC JUMPI PUSH1 0xFF NOT AND PUSH1 0x2 SSTORE PUSH32 0x5DB9EE0A495BF2E6FF9C91A7834C1BA4FDD244A5E8AA4E537BD38AEAE4B073AA PUSH1 0x20 PUSH1 0x40 MLOAD CALLER DUP2 MSTORE LOG1 DUP1 RETURN JUMPDEST PUSH1 0x40 MLOAD PUSH4 0x8DFC202B PUSH1 0xE0 SHL DUP2 MSTORE PUSH1 0x4 SWAP1 REVERT JUMPDEST POP CALLVALUE PUSH2 0x40F JUMPI PUSH1 0x40 CALLDATASIZE PUSH1 0x3 NOT ADD SLT PUSH2 0x40F JUMPI PUSH2 0x27F8 PUSH2 0x2DE9 JUMP JUMPDEST CALLER PUSH1 0x1 PUSH1 0x1 PUSH1 0xA0 SHL SUB DUP3 AND SUB PUSH2 0x2814 JUMPI PUSH2 0xA8A SWAP1 PUSH1 0x4 CALLDATALOAD PUSH2 0x2F11 JUMP JUMPDEST PUSH1 0x40 MLOAD PUSH4 0x334BD919 PUSH1 0xE1 SHL DUP2 MSTORE PUSH1 0x4 SWAP1 REVERT JUMPDEST POP CALLVALUE PUSH2 0x40F JUMPI PUSH1 0x60 CALLDATASIZE PUSH1 0x3 NOT ADD SLT PUSH2 0x40F JUMPI PUSH1 0x44 DUP1 CALLDATALOAD PUSH1 0x1 PUSH1 0x1 PUSH1 0x40 SHL SUB DUP2 GT PUSH2 0x2E6 JUMPI CALLDATASIZE PUSH1 0x23 DUP3 ADD SLT ISZERO PUSH2 0x2E6 JUMPI PUSH1 0x4 DUP2 ADD CALLDATALOAD SWAP1 PUSH1 0x1 PUSH1 0x1 PUSH1 0x40 SHL SUB DUP3 GT PUSH2 0x40B JUMPI PUSH1 0x24 CALLDATASIZE SWAP2 DUP4 PUSH1 0x5 SHL ADD ADD GT PUSH2 0x2E6 JUMPI PUSH2 0x2880 PUSH2 0x3376 JUMP JUMPDEST PUSH2 0x2888 PUSH2 0x3358 JUMP JUMPDEST DUP3 DUP1 MSTORE PUSH1 0x20 DUP4 DUP2 MSTORE PUSH1 0x40 DUP5 KECCAK256 CALLER DUP6 MSTORE DUP2 MSTORE PUSH2 0x28A9 PUSH1 0xFF PUSH1 0x40 DUP7 KECCAK256 SLOAD AND PUSH2 0x3479 JUMP JUMPDEST PUSH1 0x2 SLOAD PUSH1 0x40 MLOAD PUSH4 0xD09EF241 PUSH1 0xE0 SHL DUP2 MSTORE PUSH1 0x4 DUP1 CALLDATALOAD SWAP1 DUP3 ADD MSTORE SWAP1 DUP6 SWAP1 DUP3 SWAP1 PUSH1 0x24 SWAP1 DUP3 SWAP1 PUSH1 0x8 SHR PUSH1 0x1 PUSH1 0x1 PUSH1 0xA0 SHL SUB AND GAS STATICCALL SWAP1 DUP2 ISZERO PUSH2 0x7C1 JUMPI DUP6 SWAP2 PUSH2 0x2C43 JUMPI JUMPDEST POP PUSH2 0x380 DUP2 ADD SWAP3 DUP4 MLOAD PUSH1 0xB DUP2 LT ISZERO PUSH2 0xECE JUMPI PUSH1 0x7 SUB PUSH2 0x2BF3 JUMPI ISZERO PUSH2 0x2BB2 JUMPI PUSH2 0x400 DUP2 ADD MLOAD SWAP1 DUP3 PUSH1 0x1 DUP1 PUSH1 0xA0 SHL SUB SWAP2 ADD MLOAD AND SWAP1 DUP6 SWAP4 DUP2 PUSH1 0x24 CALLDATALOAD SUB PUSH2 0x2B4C JUMPI JUMPDEST PUSH1 0x2 SLOAD DUP8 SWAP1 PUSH1 0x8 SHR PUSH1 0x1 PUSH1 0x1 PUSH1 0xA0 SHL SUB AND DUP1 EXTCODESIZE ISZERO PUSH2 0x753 JUMPI DUP2 DUP1 SWAP2 DUP10 PUSH1 0x40 MLOAD DUP1 SWAP5 DUP2 SWAP4 PUSH4 0x5E9E78D PUSH1 0xE4 SHL DUP4 MSTORE PUSH1 0x4 CALLDATALOAD PUSH1 0x4 DUP5 ADD MSTORE PUSH1 0x24 CALLDATALOAD PUSH1 0x24 DUP5 ADD MSTORE GAS CALL DUP1 ISZERO PUSH2 0x2DB JUMPI PUSH2 0x2B38 JUMPI JUMPDEST POP POP MLOAD SWAP5 PUSH1 0xB DUP7 LT ISZERO PUSH2 0xECE JUMPI PUSH1 0x2 SLOAD DUP8 SWAP2 SWAP1 PUSH1 0x8 SHR PUSH1 0x1 PUSH1 0x1 PUSH1 0xA0 SHL SUB AND DUP1 EXTCODESIZE ISZERO PUSH2 0x2E6 JUMPI DUP3 DUP1 SWAP2 DUP4 PUSH1 0x40 MLOAD DUP1 SWAP5 DUP2 SWAP4 PUSH4 0xAAB3196D PUSH1 0xE0 SHL DUP4 MSTORE PUSH1 0x4 CALLDATALOAD PUSH1 0x4 DUP5 ADD MSTORE PUSH1 0x8 PUSH1 0x24 DUP5 ADD MSTORE GAS CALL SWAP1 DUP2 ISZERO PUSH2 0x326 JUMPI DUP4 SWAP2 PUSH2 0x2B24 JUMPI JUMPDEST POP POP PUSH1 0x2 SLOAD PUSH1 0x8 SHR PUSH1 0x1 PUSH1 0x1 PUSH1 0xA0 SHL SUB AND SWAP1 DUP2 EXTCODESIZE ISZERO PUSH2 0x2E6 JUMPI DUP3 SWAP2 DUP3 SWAP2 PUSH1 0x40 MLOAD DUP1 SWAP5 DUP2 SWAP4 PUSH4 0x15D92E33 PUSH1 0xE0 SHL DUP4 MSTORE PUSH1 0x4 CALLDATALOAD PUSH1 0x4 DUP5 ADD MSTORE TIMESTAMP PUSH1 0x24 DUP5 ADD MSTORE GAS CALL DUP1 ISZERO PUSH2 0x2DB JUMPI PUSH2 0x2B10 JUMPI JUMPDEST POP POP PUSH1 0x40 DUP1 MLOAD PUSH1 0x4 CALLDATALOAD DUP6 DUP3 ADD SWAP1 DUP2 MSTORE TIMESTAMP DUP3 DUP5 ADD MSTORE SWAP2 DUP2 MSTORE SWAP1 SWAP5 PUSH1 0x60 DUP3 ADD SWAP3 PUSH1 0x1 PUSH1 0x1 PUSH1 0x40 SHL SUB DUP5 GT DUP4 DUP6 LT OR PUSH2 0x2AFA JUMPI PUSH1 0x8 SWAP7 DUP5 PUSH1 0x40 MSTORE DUP4 MLOAD SWAP1 KECCAK256 SWAP5 DUP5 MSTORE DUP1 PUSH1 0x80 DUP5 ADD MSTORE PUSH1 0x24 CALLDATALOAD PUSH1 0xA0 DUP5 ADD MSTORE PUSH1 0x24 CALLDATALOAD EQ ISZERO PUSH1 0xC0 DUP4 ADD MSTORE PUSH1 0xE0 DUP3 ADD MSTORE PUSH2 0x100 TIMESTAMP SWAP2 ADD MSTORE PUSH32 0xB3560D930DA64161657F7700F7109520A24B93D7FF2363739EE324A1E0D6BF87 PUSH1 0xC0 PUSH1 0x4 CALLDATALOAD SWAP3 LOG3 PUSH2 0x2AA9 PUSH1 0x40 MLOAD DUP1 SWAP5 PUSH2 0x3335 JUMP JUMPDEST DUP3 ADD MSTORE PUSH1 0x80 PUSH1 0x40 DUP3 ADD MSTORE PUSH1 0x14 PUSH1 0x80 DUP3 ADD MSTORE PUSH20 0x185C989A5D1C985D1A5BDB881C995CDBDB1D9959 PUSH1 0x62 SHL PUSH1 0xA0 DUP3 ADD MSTORE TIMESTAMP PUSH1 0x60 DUP3 ADD MSTORE PUSH1 0x0 DUP1 MLOAD PUSH1 0x20 PUSH2 0x3548 DUP4 CODECOPY DUP2 MLOAD SWAP2 MSTORE PUSH1 0xC0 PUSH1 0x4 CALLDATALOAD SWAP3 LOG2 PUSH1 0x1 DUP1 SSTORE DUP1 RETURN JUMPDEST PUSH4 0x4E487B71 PUSH1 0xE0 SHL PUSH1 0x0 MSTORE PUSH1 0x41 PUSH1 0x4 MSTORE PUSH1 0x24 PUSH1 0x0 REVERT JUMPDEST PUSH2 0x2B19 SWAP1 PUSH2 0x2F86 JUMP JUMPDEST PUSH2 0x83B JUMPI DUP6 CODESIZE PUSH2 0x2A12 JUMP JUMPDEST PUSH2 0x2B2D SWAP1 PUSH2 0x2F86 JUMP JUMPDEST PUSH2 0x753 JUMPI DUP2 CODESIZE PUSH2 0x29C9 JUMP JUMPDEST PUSH2 0x2B41 SWAP1 PUSH2 0x2F86 JUMP JUMPDEST PUSH2 0x2D7 JUMPI DUP7 CODESIZE PUSH2 0x296F JUMP JUMPDEST PUSH1 0x4 SLOAD PUSH8 0x98A7D9B8314C0000 SWAP6 POP DUP8 SWAP1 PUSH1 0x1 PUSH1 0x1 PUSH1 0xA0 SHL SUB AND DUP1 EXTCODESIZE ISZERO PUSH2 0x753 JUMPI DUP2 SWAP1 DUP9 PUSH1 0x40 MLOAD DUP1 SWAP5 DUP2 SWAP4 PUSH4 0x15490EBB PUSH1 0xE0 SHL DUP4 MSTORE DUP10 PUSH1 0x4 DUP5 ADD MSTORE DUP12 PUSH1 0x24 DUP5 ADD MSTORE GAS CALL DUP1 ISZERO PUSH2 0x857 JUMPI PUSH2 0x2B9F JUMPI JUMPDEST POP PUSH2 0x2925 JUMP JUMPDEST PUSH2 0x2BAB SWAP1 SWAP8 SWAP2 SWAP8 PUSH2 0x2F86 JUMP JUMPDEST SWAP6 CODESIZE PUSH2 0x2B99 JUMP JUMPDEST PUSH1 0x40 MLOAD PUSH3 0x461BCD PUSH1 0xE5 SHL DUP2 MSTORE PUSH1 0x4 DUP2 ADD DUP4 SWAP1 MSTORE PUSH1 0x1A PUSH1 0x24 DUP3 ADD MSTORE PUSH26 0x536574746C656D656E743A206E6F2061726269747261746F7273 PUSH1 0x30 SHL DUP2 DUP7 ADD MSTORE PUSH1 0x64 SWAP1 REVERT JUMPDEST PUSH1 0x40 MLOAD PUSH3 0x461BCD PUSH1 0xE5 SHL DUP2 MSTORE PUSH1 0x4 DUP2 ADD DUP5 SWAP1 MSTORE PUSH1 0x24 DUP1 DUP3 ADD MSTORE PUSH32 0x536574746C656D656E743A206F72646572206E6F7420696E2061726269747261 DUP2 DUP8 ADD MSTORE PUSH4 0x3A34B7B7 PUSH1 0xE1 SHL PUSH1 0x64 DUP3 ADD MSTORE PUSH1 0x84 SWAP1 REVERT JUMPDEST PUSH2 0x2C57 SWAP2 POP RETURNDATASIZE DUP1 DUP8 DUP4 RETURNDATACOPY PUSH2 0x3F2 DUP2 DUP4 PUSH2 0x2F99 JUMP JUMPDEST CODESIZE PUSH2 0x28E7 JUMP JUMPDEST POP CALLVALUE PUSH2 0x40F JUMPI DUP1 PUSH1 0x3 NOT CALLDATASIZE ADD SLT PUSH2 0x40F JUMPI PUSH1 0x5 SLOAD PUSH1 0x40 MLOAD PUSH1 0x1 PUSH1 0x1 PUSH1 0xA0 SHL SUB SWAP1 SWAP2 AND DUP2 MSTORE PUSH1 0x20 SWAP1 RETURN JUMPDEST POP CALLVALUE PUSH2 0x40F JUMPI PUSH1 0x40 CALLDATASIZE PUSH1 0x3 NOT ADD SLT PUSH2 0x40F JUMPI PUSH2 0xA8A PUSH1 0x4 CALLDATALOAD PUSH2 0x2CA6 PUSH2 0x2DE9 JUMP JUMPDEST SWAP1 DUP1 DUP5 MSTORE DUP4 PUSH1 0x20 MSTORE PUSH2 0x2CBE PUSH1 0x1 PUSH1 0x40 DUP7 KECCAK256 ADD SLOAD PUSH2 0x2E6D JUMP JUMPDEST PUSH2 0x2E93 JUMP JUMPDEST POP CALLVALUE PUSH2 0x40F JUMPI PUSH1 0x20 CALLDATASIZE PUSH1 0x3 NOT ADD SLT PUSH2 0x40F JUMPI PUSH2 0x2CDD PUSH2 0x2DD3 JUMP JUMPDEST PUSH2 0x2CE5 PUSH2 0x2E15 JUMP JUMPDEST PUSH1 0x2 DUP1 SLOAD PUSH2 0x100 PUSH1 0x1 PUSH1 0xA8 SHL SUB NOT AND PUSH1 0x8 SWAP3 SWAP1 SWAP3 SHL PUSH2 0x100 PUSH1 0x1 PUSH1 0xA8 SHL SUB AND SWAP2 SWAP1 SWAP2 OR SWAP1 SSTORE DUP1 RETURN JUMPDEST POP CALLVALUE PUSH2 0x40F JUMPI PUSH1 0x20 CALLDATASIZE PUSH1 0x3 NOT ADD SLT PUSH2 0x40F JUMPI PUSH1 0x1 PUSH1 0x40 PUSH1 0x20 SWAP3 PUSH1 0x4 CALLDATALOAD DUP2 MSTORE DUP1 DUP5 MSTORE KECCAK256 ADD SLOAD PUSH1 0x40 MLOAD SWAP1 DUP2 MSTORE RETURN JUMPDEST POP CALLVALUE PUSH2 0x40F JUMPI PUSH1 0x20 CALLDATASIZE PUSH1 0x3 NOT ADD SLT PUSH2 0x40F JUMPI PUSH2 0x2D53 PUSH2 0x2DD3 JUMP JUMPDEST PUSH2 0x2D5B PUSH2 0x2E15 JUMP JUMPDEST PUSH1 0x3 DUP1 SLOAD PUSH1 0x1 PUSH1 0x1 PUSH1 0xA0 SHL SUB NOT AND PUSH1 0x1 PUSH1 0x1 PUSH1 0xA0 SHL SUB SWAP3 SWAP1 SWAP3 AND SWAP2 SWAP1 SWAP2 OR SWAP1 SSTORE DUP1 RETURN JUMPDEST SWAP1 POP CALLVALUE PUSH2 0x753 JUMPI PUSH1 0x20 CALLDATASIZE PUSH1 0x3 NOT ADD SLT PUSH2 0x753 JUMPI PUSH1 0x4 CALLDATALOAD PUSH4 0xFFFFFFFF PUSH1 0xE0 SHL DUP2 AND DUP1 SWAP2 SUB PUSH2 0x2E6 JUMPI PUSH1 0x20 SWAP3 POP PUSH4 0x7965DB0B PUSH1 0xE0 SHL DUP2 EQ SWAP1 DUP2 ISZERO PUSH2 0x2DC2 JUMPI JUMPDEST POP ISZERO ISZERO DUP2 MSTORE RETURN JUMPDEST PUSH4 0x1FFC9A7 PUSH1 0xE0 SHL EQ SWAP1 POP CODESIZE PUSH2 0x2DBB JUMP JUMPDEST PUSH1 0x4 CALLDATALOAD SWAP1 PUSH1 0x1 PUSH1 0x1 PUSH1 0xA0 SHL SUB DUP3 AND DUP3 SUB PUSH2 0x319 JUMPI JUMP JUMPDEST PUSH1 0x24 CALLDATALOAD SWAP1 PUSH1 0x1 PUSH1 0x1 PUSH1 0xA0 SHL SUB DUP3 AND DUP3 SUB PUSH2 0x319 JUMPI JUMP JUMPDEST PUSH1 0x40 SWAP1 PUSH1 0x3 NOT ADD SLT PUSH2 0x319 JUMPI PUSH1 0x4 CALLDATALOAD SWAP1 PUSH1 0x24 CALLDATALOAD SWAP1 JUMP JUMPDEST CALLER PUSH1 0x0 SWAP1 DUP2 MSTORE PUSH32 0xAD3228B676F7D3CD4284A5443F17F1962B36E491B30A40B2405849E597BA5FB5 PUSH1 0x20 MSTORE PUSH1 0x40 DUP2 KECCAK256 SLOAD PUSH1 0xFF AND ISZERO PUSH2 0x2E4F JUMPI POP JUMP JUMPDEST PUSH1 0x44 SWAP1 PUSH1 0x40 MLOAD SWAP1 PUSH4 0xE2517D3F PUSH1 0xE0 SHL DUP3 MSTORE CALLER PUSH1 0x4 DUP4 ADD MSTORE PUSH1 0x24 DUP3 ADD MSTORE REVERT JUMPDEST DUP1 PUSH1 0x0 MSTORE PUSH1 0x0 PUSH1 0x20 MSTORE PUSH1 0x40 PUSH1 0x0 KECCAK256 CALLER PUSH1 0x0 MSTORE PUSH1 0x20 MSTORE PUSH1 0xFF PUSH1 0x40 PUSH1 0x0 KECCAK256 SLOAD AND ISZERO PUSH2 0x2E4F JUMPI POP JUMP JUMPDEST SWAP1 PUSH1 0x0 SWAP2 DUP1 DUP4 MSTORE DUP3 PUSH1 0x20 MSTORE PUSH1 0x40 DUP4 KECCAK256 SWAP2 PUSH1 0x1 DUP1 PUSH1 0xA0 SHL SUB AND SWAP2 DUP3 DUP5 MSTORE PUSH1 0x20 MSTORE PUSH1 0xFF PUSH1 0x40 DUP5 KECCAK256 SLOAD AND ISZERO PUSH1 0x0 EQ PUSH2 0x2F0C JUMPI DUP1 DUP4 MSTORE DUP3 PUSH1 0x20 MSTORE PUSH1 0x40 DUP4 KECCAK256 DUP3 DUP5 MSTORE PUSH1 0x20 MSTORE PUSH1 0x40 DUP4 KECCAK256 PUSH1 0x1 PUSH1 0xFF NOT DUP3 SLOAD AND OR SWAP1 SSTORE PUSH32 0x2F8788117E7EFF1D82E926EC794901D17C78024A50270940304540A733656F0D CALLER SWAP4 DUP1 LOG4 PUSH1 0x1 SWAP1 JUMP JUMPDEST POP POP SWAP1 JUMP JUMPDEST SWAP1 PUSH1 0x0 SWAP2 DUP1 DUP4 MSTORE DUP3 PUSH1 0x20 MSTORE PUSH1 0x40 DUP4 KECCAK256 SWAP2 PUSH1 0x1 DUP1 PUSH1 0xA0 SHL SUB AND SWAP2 DUP3 DUP5 MSTORE PUSH1 0x20 MSTORE PUSH1 0xFF PUSH1 0x40 DUP5 KECCAK256 SLOAD AND PUSH1 0x0 EQ PUSH2 0x2F0C JUMPI DUP1 DUP4 MSTORE DUP3 PUSH1 0x20 MSTORE PUSH1 0x40 DUP4 KECCAK256 DUP3 DUP5 MSTORE PUSH1 0x20 MSTORE PUSH1 0x40 DUP4 KECCAK256 PUSH1 0xFF NOT DUP2 SLOAD AND SWAP1 SSTORE PUSH32 0xF6391F5C32D9C69D2A47EA670B442974B53935D1EDC7FD64EB21E047A839171B CALLER SWAP4 DUP1 LOG4 PUSH1 0x1 SWAP1 JUMP JUMPDEST PUSH1 0x1 PUSH1 0x1 PUSH1 0x40 SHL SUB DUP2 GT PUSH2 0x2AFA JUMPI PUSH1 0x40 MSTORE JUMP JUMPDEST PUSH1 0x1F SWAP1 SWAP2 ADD PUSH1 0x1F NOT AND DUP2 ADD SWAP1 PUSH1 0x1 PUSH1 0x1 PUSH1 0x40 SHL SUB DUP3 GT SWAP1 DUP3 LT OR PUSH2 0x2AFA JUMPI PUSH1 0x40 MSTORE JUMP JUMPDEST MLOAD SWAP1 PUSH1 0x1 PUSH1 0x1 PUSH1 0xA0 SHL SUB DUP3 AND DUP3 SUB PUSH2 0x319 JUMPI JUMP JUMPDEST SWAP2 SWAP1 DUP1 PUSH1 0x1F DUP5 ADD SLT ISZERO PUSH2 0x319 JUMPI DUP3 MLOAD SWAP1 PUSH1 0x1 PUSH1 0x1 PUSH1 0x40 SHL SUB DUP3 GT PUSH2 0x2AFA JUMPI PUSH1 0x40 MLOAD SWAP2 PUSH1 0x20 SWAP2 PUSH2 0x3008 PUSH1 0x1F DUP4 ADD PUSH1 0x1F NOT AND DUP5 ADD DUP6 PUSH2 0x2F99 JUMP JUMPDEST DUP2 DUP5 MSTORE DUP3 DUP3 DUP8 ADD ADD GT PUSH2 0x319 JUMPI PUSH1 0x0 JUMPDEST DUP2 DUP2 LT PUSH2 0x302D JUMPI POP DUP3 PUSH1 0x0 SWAP4 SWAP5 SWAP6 POP ADD ADD MSTORE SWAP1 JUMP JUMPDEST DUP6 DUP2 ADD DUP4 ADD MLOAD DUP5 DUP3 ADD DUP5 ADD MSTORE DUP3 ADD PUSH2 0x3018 JUMP JUMPDEST MLOAD SWAP1 PUSH1 0xFF DUP3 AND DUP3 SUB PUSH2 0x319 JUMPI JUMP JUMPDEST PUSH1 0x20 DUP2 DUP4 SUB SLT PUSH2 0x319 JUMPI DUP1 MLOAD PUSH1 0x1 PUSH1 0x1 PUSH1 0x40 SHL SUB SWAP2 DUP3 DUP3 GT PUSH2 0x319 JUMPI ADD SWAP1 PUSH2 0x440 SWAP3 DUP4 DUP4 DUP3 SUB SLT PUSH2 0x319 JUMPI PUSH1 0x40 MLOAD SWAP4 DUP5 ADD DUP5 DUP2 LT DUP4 DUP3 GT OR PUSH2 0x2AFA JUMPI PUSH1 0x40 MSTORE DUP3 MLOAD DUP5 MSTORE PUSH2 0x309D PUSH1 0x20 DUP5 ADD PUSH2 0x2FBC JUMP JUMPDEST PUSH1 0x20 DUP6 ADD MSTORE PUSH2 0x30AE PUSH1 0x40 DUP5 ADD PUSH2 0x2FBC JUMP JUMPDEST PUSH1 0x40 DUP6 ADD MSTORE PUSH1 0x60 DUP4 ADD MLOAD DUP3 DUP2 GT PUSH2 0x319 JUMPI DUP2 PUSH2 0x30CB SWAP2 DUP6 ADD PUSH2 0x2FD0 JUMP JUMPDEST PUSH1 0x60 DUP6 ADD MSTORE PUSH1 0x80 DUP4 ADD MLOAD DUP3 DUP2 GT PUSH2 0x319 JUMPI DUP2 PUSH2 0x30E8 SWAP2 DUP6 ADD PUSH2 0x2FD0 JUMP JUMPDEST PUSH1 0x80 DUP6 ADD MSTORE PUSH1 0xA0 DUP4 ADD MLOAD DUP3 DUP2 GT PUSH2 0x319 JUMPI DUP2 PUSH2 0x3105 SWAP2 DUP6 ADD PUSH2 0x2FD0 JUMP JUMPDEST PUSH1 0xA0 DUP6 ADD MSTORE PUSH1 0xC0 DUP4 ADD MLOAD DUP3 DUP2 GT PUSH2 0x319 JUMPI DUP2 PUSH2 0x3122 SWAP2 DUP6 ADD PUSH2 0x2FD0 JUMP JUMPDEST PUSH1 0xC0 DUP6 ADD MSTORE PUSH1 0xE0 DUP4 ADD MLOAD SWAP2 DUP3 GT PUSH2 0x319 JUMPI PUSH2 0x313E SWAP2 DUP4 ADD PUSH2 0x2FD0 JUMP JUMPDEST PUSH1 0xE0 DUP4 ADD MSTORE PUSH2 0x100 DUP1 DUP3 ADD MLOAD SWAP1 PUSH1 0x2 DUP3 LT ISZERO PUSH2 0x319 JUMPI DUP4 ADD MSTORE PUSH2 0x120 DUP1 DUP3 ADD MLOAD SWAP1 DUP4 ADD MSTORE PUSH2 0x140 DUP1 DUP3 ADD MLOAD SWAP1 DUP4 ADD MSTORE PUSH2 0x160 DUP1 DUP3 ADD MLOAD SWAP1 DUP4 ADD MSTORE PUSH2 0x180 DUP1 DUP3 ADD MLOAD SWAP1 DUP4 ADD MSTORE PUSH2 0x1A0 DUP1 DUP3 ADD MLOAD SWAP1 DUP4 ADD MSTORE PUSH2 0x1C0 DUP1 DUP3 ADD MLOAD SWAP1 DUP4 ADD MSTORE PUSH2 0x1E0 DUP1 DUP3 ADD MLOAD SWAP1 DUP4 ADD MSTORE PUSH2 0x200 DUP1 DUP3 ADD MLOAD SWAP1 DUP4 ADD MSTORE PUSH2 0x220 DUP1 DUP3 ADD MLOAD SWAP1 DUP4 ADD MSTORE PUSH2 0x240 DUP1 DUP3 ADD MLOAD SWAP1 PUSH1 0x3 DUP3 LT ISZERO PUSH2 0x319 JUMPI DUP4 ADD MSTORE PUSH2 0x260 PUSH2 0x31DC DUP2 DUP4 ADD PUSH2 0x3040 JUMP JUMPDEST SWAP1 DUP4 ADD MSTORE PUSH2 0x280 PUSH2 0x31EE DUP2 DUP4 ADD PUSH2 0x3040 JUMP JUMPDEST SWAP1 DUP4 ADD MSTORE PUSH2 0x2A0 PUSH2 0x3200 DUP2 DUP4 ADD PUSH2 0x3040 JUMP JUMPDEST SWAP1 DUP4 ADD MSTORE PUSH2 0x2C0 DUP1 DUP3 ADD MLOAD SWAP1 PUSH1 0x3 DUP3 LT ISZERO PUSH2 0x319 JUMPI DUP4 ADD MSTORE PUSH2 0x2E0 PUSH2 0x3226 DUP2 DUP4 ADD PUSH2 0x2FBC JUMP JUMPDEST SWAP1 DUP4 ADD MSTORE PUSH2 0x300 DUP1 DUP3 ADD MLOAD SWAP1 DUP4 ADD MSTORE PUSH2 0x320 DUP1 DUP3 ADD MLOAD SWAP1 DUP4 ADD MSTORE PUSH2 0x340 DUP1 DUP3 ADD MLOAD SWAP1 DUP2 ISZERO ISZERO DUP3 SUB PUSH2 0x319 JUMPI DUP4 ADD MSTORE PUSH2 0x360 DUP1 DUP3 ADD MLOAD SWAP1 PUSH1 0x2 DUP3 LT ISZERO PUSH2 0x319 JUMPI DUP4 ADD MSTORE PUSH2 0x380 DUP1 DUP3 ADD MLOAD SWAP1 PUSH1 0xB DUP3 LT ISZERO PUSH2 0x319 JUMPI DUP4 ADD MSTORE PUSH2 0x3A0 DUP1 DUP3 ADD MLOAD SWAP1 DUP4 ADD MSTORE PUSH2 0x3C0 DUP1 DUP3 ADD MLOAD SWAP1 DUP4 ADD MSTORE PUSH2 0x3E0 DUP1 DUP3 ADD MLOAD SWAP1 DUP4 ADD MSTORE PUSH2 0x400 DUP1 DUP3 ADD MLOAD SWAP1 DUP4 ADD MSTORE PUSH2 0x420 DUP1 SWAP2 ADD MLOAD SWAP1 DUP3 ADD MSTORE SWAP1 JUMP JUMPDEST ISZERO PUSH2 0x32BD JUMPI JUMP JUMPDEST PUSH1 0x40 MLOAD PUSH3 0x461BCD PUSH1 0xE5 SHL DUP2 MSTORE PUSH1 0x20 PUSH1 0x4 DUP3 ADD MSTORE PUSH1 0x1A PUSH1 0x24 DUP3 ADD MSTORE PUSH26 0x536574746C656D656E743A206F72646572206E6F74206C697665 PUSH1 0x30 SHL PUSH1 0x44 DUP3 ADD MSTORE PUSH1 0x64 SWAP1 REVERT JUMPDEST DUP2 DUP2 MUL SWAP3 SWAP2 DUP2 ISZERO SWAP2 DUP5 DIV EQ OR ISZERO PUSH2 0x3312 JUMPI JUMP JUMPDEST PUSH4 0x4E487B71 PUSH1 0xE0 SHL PUSH1 0x0 MSTORE PUSH1 0x11 PUSH1 0x4 MSTORE PUSH1 0x24 PUSH1 0x0 REVERT JUMPDEST SWAP2 SWAP1 DUP3 ADD DUP1 SWAP3 GT PUSH2 0x3312 JUMPI JUMP JUMPDEST SWAP1 PUSH1 0xB DUP3 LT ISZERO PUSH2 0x3342 JUMPI MSTORE JUMP JUMPDEST PUSH4 0x4E487B71 PUSH1 0xE0 SHL PUSH1 0x0 MSTORE PUSH1 0x21 PUSH1 0x4 MSTORE PUSH1 0x24 PUSH1 0x0 REVERT JUMPDEST PUSH1 0xFF PUSH1 0x2 SLOAD AND PUSH2 0x3364 JUMPI JUMP JUMPDEST PUSH1 0x40 MLOAD PUSH4 0xD93C0665 PUSH1 0xE0 SHL DUP2 MSTORE PUSH1 0x4 SWAP1 REVERT JUMPDEST PUSH1 0x2 PUSH1 0x1 SLOAD EQ PUSH2 0x3387 JUMPI PUSH1 0x2 PUSH1 0x1 SSTORE JUMP JUMPDEST PUSH1 0x40 MLOAD PUSH4 0x3EE5AEB5 PUSH1 0xE0 SHL DUP2 MSTORE PUSH1 0x4 SWAP1 REVERT JUMPDEST SWAP2 SWAP1 DUP3 SUB SWAP2 DUP3 GT PUSH2 0x3312 JUMPI JUMP JUMPDEST DUP2 ISZERO PUSH2 0x33B0 JUMPI DIV SWAP1 JUMP JUMPDEST PUSH4 0x4E487B71 PUSH1 0xE0 SHL PUSH1 0x0 MSTORE PUSH1 0x12 PUSH1 0x4 MSTORE PUSH1 0x24 PUSH1 0x0 REVERT JUMPDEST PUSH1 0x1 PUSH1 0x1 PUSH1 0xA0 SHL SUB SWAP2 DUP3 AND DUP2 MSTORE SWAP2 AND PUSH1 0x20 DUP3 ADD MSTORE PUSH1 0x40 DUP2 ADD SWAP2 SWAP1 SWAP2 MSTORE PUSH1 0x60 ADD SWAP1 JUMP JUMPDEST PUSH1 0x40 SWAP2 SWAP5 SWAP4 SWAP3 PUSH1 0x60 DUP3 ADD SWAP6 DUP3 MSTORE PUSH1 0x20 DUP3 ADD MSTORE ADD MSTORE JUMP JUMPDEST PUSH1 0x0 NOT DUP2 EQ PUSH2 0x3312 JUMPI PUSH1 0x1 ADD SWAP1 JUMP JUMPDEST SWAP1 DUP2 MLOAD DUP2 LT ISZERO PUSH2 0x341E JUMPI ADD PUSH1 0x20 ADD SWAP1 JUMP JUMPDEST PUSH4 0x4E487B71 PUSH1 0xE0 SHL PUSH1 0x0 MSTORE PUSH1 0x32 PUSH1 0x4 MSTORE PUSH1 0x24 PUSH1 0x0 REVERT JUMPDEST ISZERO PUSH2 0x343B JUMPI JUMP JUMPDEST PUSH1 0x40 MLOAD PUSH3 0x461BCD PUSH1 0xE5 SHL DUP2 MSTORE PUSH1 0x20 PUSH1 0x4 DUP3 ADD MSTORE PUSH1 0x16 PUSH1 0x24 DUP3 ADD MSTORE PUSH22 0x29B2BA3A3632B6B2B73A1D103737BA1039B2B63632B9 PUSH1 0x51 SHL PUSH1 0x44 DUP3 ADD MSTORE PUSH1 0x64 SWAP1 REVERT JUMPDEST ISZERO PUSH2 0x3480 JUMPI JUMP JUMPDEST PUSH1 0x40 MLOAD PUSH3 0x461BCD PUSH1 0xE5 SHL DUP2 MSTORE PUSH1 0x20 PUSH1 0x4 DUP3 ADD MSTORE PUSH1 0x1A PUSH1 0x24 DUP3 ADD MSTORE PUSH26 0x14D95D1D1B195B595B9D0E881B9BDD08185D5D1A1BDC9A5E9959 PUSH1 0x32 SHL PUSH1 0x44 DUP3 ADD MSTORE PUSH1 0x64 SWAP1 REVERT JUMPDEST PUSH1 0x40 SWAP2 SWAP5 SWAP4 SWAP3 PUSH1 0x60 DUP3 ADD SWAP6 PUSH1 0x1 DUP1 PUSH1 0xA0 SHL SUB AND DUP3 MSTORE PUSH1 0x20 DUP3 ADD MSTORE ADD MSTORE JUMP JUMPDEST PUSH1 0x14 DUP2 MSTORE PUSH20 0x1A5B9A5D1A585B0819995959081D1A5B595BDD5D PUSH1 0x62 SHL PUSH1 0x20 DUP3 ADD MSTORE PUSH1 0x40 ADD SWAP1 JUMP INVALID 0xB0 MULMOD 0xA9 STOP DELEGATECALL 0x26 0xC0 0xC9 OR PUSH27 0xCB33A8A806B35C53AC253D1DDF22D687986FC6B72CE42CF5022BDD DUP16 0xEF 0xE8 PUSH14 0x9412967E028FA9A8CF1E1A3989D SELFBALANCE 0xDF 0xD9 0xFC PUSH5 0xA22AFA86CE GASPRICE BALANCE 0xBA 0xF9 SWAP6 PUSH15 0x86200EE7044A75C2BEFBD05091279 DUP12 PUSH28 0xCD25D05831AB9592A26469706673582212205FD76C84CFEEFADC9DC9 0x1F 0xB7 0xEC CALL LT 0xBB 0xD6 ADDMOD LOG1 0x1F BLOCKHASH 0x5E RETURNDATACOPY 0xC6 0x23 0xEE 0xBB MSTORE8 DUP4 BASEFEE PUSH5 0x9E64736F6C PUSH4 0x43000814 STOP CALLER "},"methodIdentifiers":{"DEFAULT_ADMIN_ROLE()":"a217fddf","addMargin(uint256,uint256)":"d41194b8","cancelOrderDueToFeedTimeout(uint256)":"d70daf22","config()":"79502c55","earlyExercise(uint256)":"46f8226c","forceLiquidate(uint256)":"6ca14389","forceLiquidateMarginCall(uint256)":"53b461c8","getRoleAdmin(bytes32)":"248a9ca3","grantRole(bytes32,address)":"2f2ff15d","hasRole(bytes32,address)":"91d14854","initiateArbitration(uint256)":"6af58cff","optionsCore()":"66d63633","pause()":"8456cb59","paused()":"5c975abb","recordDividend(uint256,uint256)":"77e9bad9","renounceRole(bytes32,address)":"36568abe","resolveArbitration(uint256,uint256,address[])":"3280890b","revokeRole(bytes32,address)":"d547741f","setConfig(address)":"20e3dbd4","setOptionsCore(address)":"2ce5ed8c","settle(uint256)":"8df82800","supportsInterface(bytes4)":"01ffc9a7","triggerMarginCall(uint256,bool)":"eefaa833","unpause()":"3f4ba83a","usdt()":"2f48ab7d","vaultManager()":"8a4adf24","withdrawExcessMargin(uint256,uint256)":"d1e745b1"}}}}}