{"contracts/core/OptionsCore.sol":{"OptionsCore":{"abi":[{"inputs":[{"internalType":"address","name":"_config","type":"address"},{"internalType":"address","name":"_vaultManager","type":"address"},{"internalType":"address","name":"_usdt","type":"address"},{"internalType":"address","name":"_admin","type":"address"}],"stateMutability":"nonpayable","type":"constructor"},{"inputs":[],"name":"AccessControlBadConfirmation","type":"error"},{"inputs":[{"internalType":"address","name":"account","type":"address"},{"internalType":"bytes32","name":"neededRole","type":"bytes32"}],"name":"AccessControlUnauthorizedAccount","type":"error"},{"inputs":[],"name":"EnforcedPause","type":"error"},{"inputs":[],"name":"ExpectedPause","type":"error"},{"inputs":[],"name":"ReentrancyGuardReentrantCall","type":"error"},{"inputs":[{"internalType":"address","name":"token","type":"address"}],"name":"SafeERC20FailedOperation","type":"error"},{"anonymous":false,"inputs":[{"indexed":true,"internalType":"uint256","name":"orderId","type":"uint256"},{"indexed":true,"internalType":"uint256","name":"arbitrationId","type":"uint256"},{"indexed":false,"internalType":"address","name":"initiator","type":"address"},{"indexed":false,"internalType":"uint256","name":"originalPrice","type":"uint256"},{"indexed":false,"internalType":"uint256","name":"arbitrationPrice","type":"uint256"},{"indexed":false,"internalType":"bool","name":"resultChanged","type":"bool"},{"indexed":false,"internalType":"uint256","name":"initiatorReward","type":"uint256"},{"indexed":false,"internalType":"uint256","name":"timestamp","type":"uint256"}],"name":"ArbitrationResolved","type":"event"},{"anonymous":false,"inputs":[{"indexed":true,"internalType":"uint256","name":"orderId","type":"uint256"},{"indexed":false,"internalType":"uint256","name":"dividendPerShare","type":"uint256"},{"indexed":false,"internalType":"uint256","name":"totalDividend","type":"uint256"},{"indexed":false,"internalType":"uint256","name":"timestamp","type":"uint256"}],"name":"DividendRecorded","type":"event"},{"anonymous":false,"inputs":[{"indexed":true,"internalType":"uint256","name":"orderId","type":"uint256"},{"indexed":true,"internalType":"address","name":"seller","type":"address"},{"indexed":false,"internalType":"uint256","name":"oldAmount","type":"uint256"},{"indexed":false,"internalType":"uint256","name":"newAmount","type":"uint256"},{"indexed":false,"internalType":"string","name":"changeType","type":"string"},{"indexed":false,"internalType":"uint256","name":"timestamp","type":"uint256"}],"name":"MarginChanged","type":"event"},{"anonymous":false,"inputs":[{"indexed":true,"internalType":"uint256","name":"orderId","type":"uint256"},{"indexed":false,"internalType":"string","name":"reason","type":"string"},{"indexed":false,"internalType":"uint256","name":"timestamp","type":"uint256"}],"name":"OrderCancelled","type":"event"},{"anonymous":false,"inputs":[{"indexed":true,"internalType":"uint256","name":"orderId","type":"uint256"},{"indexed":true,"internalType":"address","name":"creator","type":"address"},{"indexed":false,"internalType":"bool","name":"isBuyerOrder","type":"bool"},{"indexed":false,"internalType":"uint256","name":"timestamp","type":"uint256"}],"name":"OrderCreated","type":"event"},{"anonymous":false,"inputs":[{"indexed":true,"internalType":"uint256","name":"orderId","type":"uint256"},{"indexed":false,"internalType":"address","name":"beneficiary","type":"address"},{"indexed":false,"internalType":"uint256","name":"amount","type":"uint256"},{"indexed":false,"internalType":"uint256","name":"timestamp","type":"uint256"}],"name":"OrderLiquidated","type":"event"},{"anonymous":false,"inputs":[{"indexed":true,"internalType":"uint256","name":"orderId","type":"uint256"},{"indexed":true,"internalType":"address","name":"buyer","type":"address"},{"indexed":true,"internalType":"address","name":"seller","type":"address"},{"indexed":false,"internalType":"uint256","name":"timestamp","type":"uint256"}],"name":"OrderMatched","type":"event"},{"anonymous":false,"inputs":[{"indexed":true,"internalType":"uint256","name":"orderId","type":"uint256"},{"indexed":false,"internalType":"uint256","name":"buyerPayout","type":"uint256"},{"indexed":false,"internalType":"uint256","name":"sellerPayout","type":"uint256"},{"indexed":false,"internalType":"uint256","name":"timestamp","type":"uint256"}],"name":"OrderSettled","type":"event"},{"anonymous":false,"inputs":[{"indexed":true,"internalType":"uint256","name":"orderId","type":"uint256"},{"indexed":false,"internalType":"enum OrderStatus","name":"oldStatus","type":"uint8"},{"indexed":false,"internalType":"enum OrderStatus","name":"newStatus","type":"uint8"},{"indexed":false,"internalType":"string","name":"reason","type":"string"},{"indexed":false,"internalType":"uint256","name":"timestamp","type":"uint256"}],"name":"OrderStatusChanged","type":"event"},{"anonymous":false,"inputs":[{"indexed":false,"internalType":"address","name":"account","type":"address"}],"name":"Paused","type":"event"},{"anonymous":false,"inputs":[{"indexed":true,"internalType":"uint256","name":"orderId","type":"uint256"},{"indexed":true,"internalType":"uint256","name":"quoteId","type":"uint256"},{"indexed":true,"internalType":"address","name":"seller","type":"address"},{"indexed":false,"internalType":"uint256","name":"premiumRate","type":"uint256"},{"indexed":false,"internalType":"uint256","name":"timestamp","type":"uint256"}],"name":"QuoteSubmitted","type":"event"},{"anonymous":false,"inputs":[{"indexed":true,"internalType":"bytes32","name":"role","type":"bytes32"},{"indexed":true,"internalType":"bytes32","name":"previousAdminRole","type":"bytes32"},{"indexed":true,"internalType":"bytes32","name":"newAdminRole","type":"bytes32"}],"name":"RoleAdminChanged","type":"event"},{"anonymous":false,"inputs":[{"indexed":true,"internalType":"bytes32","name":"role","type":"bytes32"},{"indexed":true,"internalType":"address","name":"account","type":"address"},{"indexed":true,"internalType":"address","name":"sender","type":"address"}],"name":"RoleGranted","type":"event"},{"anonymous":false,"inputs":[{"indexed":true,"internalType":"bytes32","name":"role","type":"bytes32"},{"indexed":true,"internalType":"address","name":"account","type":"address"},{"indexed":true,"internalType":"address","name":"sender","type":"address"}],"name":"RoleRevoked","type":"event"},{"anonymous":false,"inputs":[{"indexed":false,"internalType":"address","name":"account","type":"address"}],"name":"Unpaused","type":"event"},{"inputs":[],"name":"DEFAULT_ADMIN_ROLE","outputs":[{"internalType":"bytes32","name":"","type":"bytes32"}],"stateMutability":"view","type":"function"},{"inputs":[{"internalType":"uint256","name":"quoteId","type":"uint256"}],"name":"acceptQuote","outputs":[],"stateMutability":"nonpayable","type":"function"},{"inputs":[{"internalType":"uint256","name":"orderId","type":"uint256"}],"name":"acceptSellerOrder","outputs":[],"stateMutability":"nonpayable","type":"function"},{"inputs":[{"internalType":"uint256","name":"orderId","type":"uint256"},{"internalType":"uint256","name":"amount","type":"uint256"}],"name":"addMargin","outputs":[],"stateMutability":"nonpayable","type":"function"},{"inputs":[{"internalType":"address","name":"","type":"address"},{"internalType":"uint256","name":"","type":"uint256"}],"name":"buyerOrders","outputs":[{"internalType":"uint256","name":"","type":"uint256"}],"stateMutability":"view","type":"function"},{"inputs":[{"internalType":"uint256","name":"orderId","type":"uint256"}],"name":"cancelRFQ","outputs":[],"stateMutability":"nonpayable","type":"function"},{"inputs":[],"name":"config","outputs":[{"internalType":"contract Config","name":"","type":"address"}],"stateMutability":"view","type":"function"},{"inputs":[{"internalType":"string","name":"underlyingName","type":"string"},{"internalType":"string","name":"underlyingCode","type":"string"},{"internalType":"string","name":"market","type":"string"},{"internalType":"string","name":"country","type":"string"},{"internalType":"string","name":"refPrice","type":"string"},{"internalType":"enum Direction","name":"direction","type":"uint8"},{"internalType":"uint256","name":"notionalUSDT","type":"uint256"},{"internalType":"uint256","name":"expiryTimestamp","type":"uint256"},{"internalType":"uint256","name":"maxPremiumRate","type":"uint256"},{"internalType":"uint256","name":"minMarginRate","type":"uint256"},{"internalType":"enum SellerType","name":"acceptedSellerType","type":"uint8"},{"internalType":"address","name":"designatedSeller","type":"address"},{"internalType":"uint256","name":"arbitrationWindow","type":"uint256"},{"internalType":"uint256","name":"marginCallDeadline","type":"uint256"},{"internalType":"bool","name":"dividendAdjustment","type":"bool"},{"internalType":"enum LiquidationRule","name":"liquidationRule","type":"uint8"},{"internalType":"uint8","name":"consecutiveDays","type":"uint8"},{"internalType":"uint8","name":"dailyLimitPercent","type":"uint8"},{"internalType":"enum FeedRule","name":"feedRule","type":"uint8"}],"name":"createBuyerRFQ","outputs":[{"internalType":"uint256","name":"orderId","type":"uint256"}],"stateMutability":"nonpayable","type":"function"},{"inputs":[{"internalType":"string","name":"underlyingName","type":"string"},{"internalType":"string","name":"underlyingCode","type":"string"},{"internalType":"string","name":"market","type":"string"},{"internalType":"string","name":"country","type":"string"},{"internalType":"string","name":"refPrice","type":"string"},{"internalType":"enum Direction","name":"direction","type":"uint8"},{"internalType":"uint256","name":"notionalUSDT","type":"uint256"},{"internalType":"uint256","name":"expiryTimestamp","type":"uint256"},{"internalType":"uint256","name":"premiumRate","type":"uint256"},{"internalType":"uint256","name":"marginAmount","type":"uint256"},{"internalType":"enum LiquidationRule","name":"liquidationRule","type":"uint8"},{"internalType":"uint8","name":"consecutiveDays","type":"uint8"},{"internalType":"uint8","name":"dailyLimitPercent","type":"uint8"},{"internalType":"uint256","name":"arbitrationWindow","type":"uint256"},{"internalType":"bool","name":"dividendAdjustment","type":"bool"},{"internalType":"uint8","name":"exerciseDelay","type":"uint8"},{"internalType":"enum FeedRule","name":"feedRule","type":"uint8"}],"name":"createSellerOrder","outputs":[{"internalType":"uint256","name":"orderId","type":"uint256"}],"stateMutability":"nonpayable","type":"function"},{"inputs":[{"internalType":"uint256","name":"orderId","type":"uint256"}],"name":"earlyExercise","outputs":[],"stateMutability":"nonpayable","type":"function"},{"inputs":[{"internalType":"uint256","name":"orderId","type":"uint256"}],"name":"forceLiquidate","outputs":[],"stateMutability":"nonpayable","type":"function"},{"inputs":[{"internalType":"address","name":"buyer","type":"address"}],"name":"getBuyerOrders","outputs":[{"internalType":"uint256[]","name":"","type":"uint256[]"}],"stateMutability":"view","type":"function"},{"inputs":[{"internalType":"uint256","name":"orderId","type":"uint256"}],"name":"getOrder","outputs":[{"components":[{"internalType":"uint256","name":"orderId","type":"uint256"},{"internalType":"address","name":"buyer","type":"address"},{"internalType":"address","name":"seller","type":"address"},{"internalType":"string","name":"underlyingName","type":"string"},{"internalType":"string","name":"underlyingCode","type":"string"},{"internalType":"string","name":"market","type":"string"},{"internalType":"string","name":"country","type":"string"},{"internalType":"string","name":"refPrice","type":"string"},{"internalType":"enum Direction","name":"direction","type":"uint8"},{"internalType":"uint256","name":"notionalUSDT","type":"uint256"},{"internalType":"uint256","name":"strikePrice","type":"uint256"},{"internalType":"uint256","name":"expiryTimestamp","type":"uint256"},{"internalType":"uint256","name":"premiumRate","type":"uint256"},{"internalType":"uint256","name":"premiumAmount","type":"uint256"},{"internalType":"uint256","name":"initialMargin","type":"uint256"},{"internalType":"uint256","name":"currentMargin","type":"uint256"},{"internalType":"uint256","name":"minMarginRate","type":"uint256"},{"internalType":"enum LiquidationRule","name":"liquidationRule","type":"uint8"},{"internalType":"uint8","name":"consecutiveDays","type":"uint8"},{"internalType":"uint8","name":"dailyLimitPercent","type":"uint8"},{"internalType":"uint8","name":"exerciseDelay","type":"uint8"},{"internalType":"enum SellerType","name":"sellerType","type":"uint8"},{"internalType":"address","name":"designatedSeller","type":"address"},{"internalType":"uint256","name":"arbitrationWindow","type":"uint256"},{"internalType":"uint256","name":"marginCallDeadline","type":"uint256"},{"internalType":"bool","name":"dividendAdjustment","type":"bool"},{"internalType":"enum FeedRule","name":"feedRule","type":"uint8"},{"internalType":"enum OrderStatus","name":"status","type":"uint8"},{"internalType":"uint256","name":"createdAt","type":"uint256"},{"internalType":"uint256","name":"matchedAt","type":"uint256"},{"internalType":"uint256","name":"settledAt","type":"uint256"},{"internalType":"uint256","name":"lastFeedPrice","type":"uint256"},{"internalType":"uint256","name":"dividendAmount","type":"uint256"}],"internalType":"struct Order","name":"","type":"tuple"}],"stateMutability":"view","type":"function"},{"inputs":[{"internalType":"string","name":"country","type":"string"}],"name":"getOrdersByCountry","outputs":[{"internalType":"uint256[]","name":"","type":"uint256[]"}],"stateMutability":"view","type":"function"},{"inputs":[{"internalType":"string","name":"market","type":"string"}],"name":"getOrdersByMarket","outputs":[{"internalType":"uint256[]","name":"","type":"uint256[]"}],"stateMutability":"view","type":"function"},{"inputs":[{"internalType":"uint256","name":"orderId","type":"uint256"}],"name":"getQuotes","outputs":[{"components":[{"internalType":"uint256","name":"quoteId","type":"uint256"},{"internalType":"uint256","name":"orderId","type":"uint256"},{"internalType":"address","name":"seller","type":"address"},{"internalType":"enum SellerType","name":"sellerType","type":"uint8"},{"internalType":"uint256","name":"premiumRate","type":"uint256"},{"internalType":"uint256","name":"premiumAmount","type":"uint256"},{"internalType":"uint256","name":"marginRate","type":"uint256"},{"internalType":"uint256","name":"marginAmount","type":"uint256"},{"internalType":"enum LiquidationRule","name":"liquidationRule","type":"uint8"},{"internalType":"uint8","name":"consecutiveDays","type":"uint8"},{"internalType":"uint8","name":"dailyLimitPercent","type":"uint8"},{"internalType":"uint256","name":"createdAt","type":"uint256"},{"internalType":"uint256","name":"expiresAt","type":"uint256"},{"internalType":"enum QuoteStatus","name":"status","type":"uint8"}],"internalType":"struct Quote[]","name":"","type":"tuple[]"}],"stateMutability":"view","type":"function"},{"inputs":[{"internalType":"bytes32","name":"role","type":"bytes32"}],"name":"getRoleAdmin","outputs":[{"internalType":"bytes32","name":"","type":"bytes32"}],"stateMutability":"view","type":"function"},{"inputs":[{"internalType":"address","name":"seller","type":"address"}],"name":"getSellerOrders","outputs":[{"internalType":"uint256[]","name":"","type":"uint256[]"}],"stateMutability":"view","type":"function"},{"inputs":[{"internalType":"bytes32","name":"role","type":"bytes32"},{"internalType":"address","name":"account","type":"address"}],"name":"grantRole","outputs":[],"stateMutability":"nonpayable","type":"function"},{"inputs":[{"internalType":"bytes32","name":"role","type":"bytes32"},{"internalType":"address","name":"account","type":"address"}],"name":"hasRole","outputs":[{"internalType":"bool","name":"","type":"bool"}],"stateMutability":"view","type":"function"},{"inputs":[{"internalType":"uint256","name":"orderId","type":"uint256"}],"name":"initiateArbitration","outputs":[],"stateMutability":"payable","type":"function"},{"inputs":[],"name":"nextOrderId","outputs":[{"internalType":"uint256","name":"","type":"uint256"}],"stateMutability":"view","type":"function"},{"inputs":[],"name":"nextQuoteId","outputs":[{"internalType":"uint256","name":"","type":"uint256"}],"stateMutability":"view","type":"function"},{"inputs":[{"internalType":"uint256","name":"","type":"uint256"},{"internalType":"uint256","name":"","type":"uint256"}],"name":"orderQuotes","outputs":[{"internalType":"uint256","name":"quoteId","type":"uint256"},{"internalType":"uint256","name":"orderId","type":"uint256"},{"internalType":"address","name":"seller","type":"address"},{"internalType":"enum SellerType","name":"sellerType","type":"uint8"},{"internalType":"uint256","name":"premiumRate","type":"uint256"},{"internalType":"uint256","name":"premiumAmount","type":"uint256"},{"internalType":"uint256","name":"marginRate","type":"uint256"},{"internalType":"uint256","name":"marginAmount","type":"uint256"},{"internalType":"enum LiquidationRule","name":"liquidationRule","type":"uint8"},{"internalType":"uint8","name":"consecutiveDays","type":"uint8"},{"internalType":"uint8","name":"dailyLimitPercent","type":"uint8"},{"internalType":"uint256","name":"createdAt","type":"uint256"},{"internalType":"uint256","name":"expiresAt","type":"uint256"},{"internalType":"enum QuoteStatus","name":"status","type":"uint8"}],"stateMutability":"view","type":"function"},{"inputs":[{"internalType":"uint256","name":"","type":"uint256"}],"name":"orders","outputs":[{"internalType":"uint256","name":"orderId","type":"uint256"},{"internalType":"address","name":"buyer","type":"address"},{"internalType":"address","name":"seller","type":"address"},{"internalType":"string","name":"underlyingName","type":"string"},{"internalType":"string","name":"underlyingCode","type":"string"},{"internalType":"string","name":"market","type":"string"},{"internalType":"string","name":"country","type":"string"},{"internalType":"string","name":"refPrice","type":"string"},{"internalType":"enum Direction","name":"direction","type":"uint8"},{"internalType":"uint256","name":"notionalUSDT","type":"uint256"},{"internalType":"uint256","name":"strikePrice","type":"uint256"},{"internalType":"uint256","name":"expiryTimestamp","type":"uint256"},{"internalType":"uint256","name":"premiumRate","type":"uint256"},{"internalType":"uint256","name":"premiumAmount","type":"uint256"},{"internalType":"uint256","name":"initialMargin","type":"uint256"},{"internalType":"uint256","name":"currentMargin","type":"uint256"},{"internalType":"uint256","name":"minMarginRate","type":"uint256"},{"internalType":"enum LiquidationRule","name":"liquidationRule","type":"uint8"},{"internalType":"uint8","name":"consecutiveDays","type":"uint8"},{"internalType":"uint8","name":"dailyLimitPercent","type":"uint8"},{"internalType":"uint8","name":"exerciseDelay","type":"uint8"},{"internalType":"enum SellerType","name":"sellerType","type":"uint8"},{"internalType":"address","name":"designatedSeller","type":"address"},{"internalType":"uint256","name":"arbitrationWindow","type":"uint256"},{"internalType":"uint256","name":"marginCallDeadline","type":"uint256"},{"internalType":"bool","name":"dividendAdjustment","type":"bool"},{"internalType":"enum FeedRule","name":"feedRule","type":"uint8"},{"internalType":"enum OrderStatus","name":"status","type":"uint8"},{"internalType":"uint256","name":"createdAt","type":"uint256"},{"internalType":"uint256","name":"matchedAt","type":"uint256"},{"internalType":"uint256","name":"settledAt","type":"uint256"},{"internalType":"uint256","name":"lastFeedPrice","type":"uint256"},{"internalType":"uint256","name":"dividendAmount","type":"uint256"}],"stateMutability":"view","type":"function"},{"inputs":[],"name":"pause","outputs":[],"stateMutability":"nonpayable","type":"function"},{"inputs":[],"name":"paused","outputs":[{"internalType":"bool","name":"","type":"bool"}],"stateMutability":"view","type":"function"},{"inputs":[{"internalType":"uint256","name":"orderId","type":"uint256"},{"internalType":"uint256","name":"finalPrice","type":"uint256"}],"name":"processFinalFeedResult","outputs":[],"stateMutability":"nonpayable","type":"function"},{"inputs":[{"internalType":"uint256","name":"orderId","type":"uint256"},{"internalType":"uint256","name":"initialPrice","type":"uint256"}],"name":"processInitialFeedResult","outputs":[],"stateMutability":"nonpayable","type":"function"},{"inputs":[{"internalType":"uint256","name":"","type":"uint256"}],"name":"quotes","outputs":[{"internalType":"uint256","name":"quoteId","type":"uint256"},{"internalType":"uint256","name":"orderId","type":"uint256"},{"internalType":"address","name":"seller","type":"address"},{"internalType":"enum SellerType","name":"sellerType","type":"uint8"},{"internalType":"uint256","name":"premiumRate","type":"uint256"},{"internalType":"uint256","name":"premiumAmount","type":"uint256"},{"internalType":"uint256","name":"marginRate","type":"uint256"},{"internalType":"uint256","name":"marginAmount","type":"uint256"},{"internalType":"enum LiquidationRule","name":"liquidationRule","type":"uint8"},{"internalType":"uint8","name":"consecutiveDays","type":"uint8"},{"internalType":"uint8","name":"dailyLimitPercent","type":"uint8"},{"internalType":"uint256","name":"createdAt","type":"uint256"},{"internalType":"uint256","name":"expiresAt","type":"uint256"},{"internalType":"enum QuoteStatus","name":"status","type":"uint8"}],"stateMutability":"view","type":"function"},{"inputs":[{"internalType":"uint256","name":"orderId","type":"uint256"},{"internalType":"uint256","name":"dividendPerShare","type":"uint256"}],"name":"recordDividend","outputs":[],"stateMutability":"nonpayable","type":"function"},{"inputs":[{"internalType":"bytes32","name":"role","type":"bytes32"},{"internalType":"address","name":"callerConfirmation","type":"address"}],"name":"renounceRole","outputs":[],"stateMutability":"nonpayable","type":"function"},{"inputs":[{"internalType":"uint256","name":"orderId","type":"uint256"},{"internalType":"enum FeedTier","name":"tier","type":"uint8"}],"name":"requestFeed","outputs":[],"stateMutability":"payable","type":"function"},{"inputs":[{"internalType":"uint256","name":"orderId","type":"uint256"},{"internalType":"uint256","name":"arbitrationPrice","type":"uint256"},{"internalType":"address[]","name":"arbitrators","type":"address[]"}],"name":"resolveArbitration","outputs":[],"stateMutability":"nonpayable","type":"function"},{"inputs":[{"internalType":"bytes32","name":"role","type":"bytes32"},{"internalType":"address","name":"account","type":"address"}],"name":"revokeRole","outputs":[],"stateMutability":"nonpayable","type":"function"},{"inputs":[{"internalType":"address","name":"","type":"address"},{"internalType":"uint256","name":"","type":"uint256"}],"name":"sellerOrders","outputs":[{"internalType":"uint256","name":"","type":"uint256"}],"stateMutability":"view","type":"function"},{"inputs":[{"internalType":"address","name":"_config","type":"address"}],"name":"setConfig","outputs":[],"stateMutability":"nonpayable","type":"function"},{"inputs":[{"internalType":"address","name":"_vaultManager","type":"address"}],"name":"setVaultManager","outputs":[],"stateMutability":"nonpayable","type":"function"},{"inputs":[{"internalType":"uint256","name":"orderId","type":"uint256"}],"name":"settle","outputs":[],"stateMutability":"nonpayable","type":"function"},{"inputs":[{"internalType":"uint256","name":"orderId","type":"uint256"},{"internalType":"uint256","name":"premiumRate","type":"uint256"},{"internalType":"uint256","name":"marginRate","type":"uint256"},{"internalType":"enum LiquidationRule","name":"liquidationRule","type":"uint8"},{"internalType":"uint8","name":"consecutiveDays","type":"uint8"},{"internalType":"uint8","name":"dailyLimitPercent","type":"uint8"}],"name":"submitQuote","outputs":[{"internalType":"uint256","name":"quoteId","type":"uint256"}],"stateMutability":"nonpayable","type":"function"},{"inputs":[{"internalType":"bytes4","name":"interfaceId","type":"bytes4"}],"name":"supportsInterface","outputs":[{"internalType":"bool","name":"","type":"bool"}],"stateMutability":"view","type":"function"},{"inputs":[],"name":"unpause","outputs":[],"stateMutability":"nonpayable","type":"function"},{"inputs":[],"name":"usdt","outputs":[{"internalType":"contract IERC20","name":"","type":"address"}],"stateMutability":"view","type":"function"},{"inputs":[],"name":"vaultManager","outputs":[{"internalType":"contract VaultManager","name":"","type":"address"}],"stateMutability":"view","type":"function"},{"inputs":[{"internalType":"uint256","name":"orderId","type":"uint256"},{"internalType":"uint256","name":"amount","type":"uint256"}],"name":"withdrawExcessMargin","outputs":[],"stateMutability":"nonpayable","type":"function"}],"evm":{"bytecode":{"linkReferences":{},"object":"608034620000f557601f62005abd38819003918201601f19168301916001600160401b03831184841017620000fa57808492608094604052833981010312620000f5578062000052620000e49262000110565b90620000616020820162000110565b906200007e6060620000766040840162000110565b920162000110565b6001808055600581905560065560028054610100600160a81b03191660089590951b610100600160a81b031694909417909355600380546001600160a01b03199081166001600160a01b0394851617909155600480549091169190921617905562000125565b506040516159069081620001b78239f35b600080fd5b634e487b7160e01b600052604160045260246000fd5b51906001600160a01b0382168203620000f557565b6001600160a01b031660008181527fad3228b676f7d3cd4284a5443f17f1962b36e491b30a40b2405849e597ba5fb5602052604081205490919060ff16620001b257818052816020526040822081835260205260408220600160ff1982541617905533917f2f8788117e7eff1d82e926ec794901d17c78024a50270940304540a733656f0d8180a4600190565b509056fe610260604052600436101561001357600080fd5b6000803560e01c806301d0d5b8146144dd57806301ffc9a71461448657806320e3dbd41461443c578063248a9ca3146144105780632a58b330146143f25780632f2ff15d146143b55780632f48ab7d1461438c5780633280890b1461407957806336568abe146140315780633f4ba83a14613fc657806342dd6d3e14613e725780634500cb6014613e2a57806345cb450514613dd457806346f8226c14613c005780634efef6aa14613be25780635c975abb14613bbf5780635d7ffe7b146136de57806367ac0bf0146133985780636af58cff1461310a5780636ca1438914612fde5780636dbe757914612f165780637203a5821461294c57806377e9bad9146127af57806379502c55146127825780637d900421146126f55780638456cb591461269a5780638a4adf24146126715780638df828001461210257806391d14854146120b7578063979b4e6d146117eb578063a217fddf146117cf578063a45f2ebc1461175c578063a61cf0d4146116c9578063a85c38ef1461135e578063b543503e14611319578063bc0ef26b14611155578063cf3fec43146110c8578063d049bfef14610e63578063d09ef24114610928578063d1e745b114610739578063d41194b8146105bb578063d547741f1461057a578063e02e34f81461033c578063e4cbac40146102b95763f7ff64261461020d57600080fd5b346102b65761021b36614d38565b90825260086020526040822080548210156102b25761023a925061500f565b508054906102ae600182015460028301549260038101549460048201549260058301549160068401549060078501549160088601549460ff600a600989015498015416976040519b8c9b8c60ff8860101c169860ff808a60081c1699169760ff8460a01c169360018060a01b031692614dce565b0390f35b8280fd5b80fd5b50346102b657602080600319360112610338576001600160a01b036102dc614d0c565b168252600b815260408220916040518092808554928381520194835280832092905b828210610321576102ae8561031581890382614ef3565b60405191829182614d7c565b8354865294850194600193840193909101906102fe565b5080fd5b50346102b65761034b36614d38565b8115158061056f575b61035d9061551d565b61036561502b565b8183526020600781526040842091601483019283549360ff8560101c1694600b86101561055b57600286036105165762040000906103a4851515615779565b62ff000019161790556103c0670de0b6b3a764000083046157e0565b805160078301916001600160401b038211610502576103e9826103e38554614e58565b856152c1565b859089601f84116001146104855793836000805160206158b18339815191529997946018946004989460c09b989261047a575b50508160011b916000199060031b1c19161790555b01556104406040518094615002565b8201526080604082015260166080820152751a5b9a5d1a585b08199959590818dbdb5c1b195d195960521b60a0820152426060820152a280f35b01519050388061041c565b50838a52868a209190601f1984168b5b8181106104eb5750846018946004989460c09b98946000805160206158b18339815191529d9b98600195106104d2575b505050811b019055610431565b015160001960f88460031b161c191690553880806104c5565b929389600181928786015181550195019301610495565b634e487b7160e01b89526041600452602489fd5b60405162461bcd60e51b815260048101869052601e60248201527f4f7074696f6e73436f72653a206f72646572206e6f74206d61746368656400006044820152606490fd5b634e487b7160e01b88526021600452602488fd5b506005548210610354565b50346102b65760403660031901126102b6576105b760043561059a614d22565b90808452836020526105b26001604086200154615083565b615127565b5080f35b50346102b6576105ca36614d38565b908015158061072e575b6105dd9061551d565b808352600760205260408320600201546001600160a01b0392906106049084163314615677565b61060c615475565b610614615457565b80156106dd5781845260076020526040842060ff601482015460101c16600b8110156106c95761066e9161064c6004600f93146156c3565b019161066781845496806004541690600354169033906153b0565b8254615510565b809155604051928352602083015260806040830152600360808301526218591960ea1b60a08301524260608301527f2cf5022bdd8fefe86d09412967e028fa9a8cf1e1a3989d47dfd9fc64a22afa8660c03393a36001805580f35b634e487b7160e01b86526021600452602486fd5b60405162461bcd60e51b8152602060048201526024808201527f4f7074696f6e73436f72653a20616d6f756e74206d75737420626520706f73696044820152637469766560e01b6064820152608490fd5b5060055481106105d4565b50346102b65761074836614d38565b908015158061091d575b61075b9061551d565b808352600760205260408320600201546001600160a01b03906107819082163314615677565b610789615475565b610791615457565b8184526007602052604084209260ff601485015460101c16600b8110156106c95760046107be91146156c3565b600f8401916107d3600e84549601548661570f565b82116108be57816107e587938761570f565b84558160035416916004541690823b156108af57604051636924faa760e11b81523360048201526001600160a01b0392909216602483015260448201529082908290606490829084905af180156108b35761089b575b5050546040519283526020830152608060408301526008608083015267776974686472617760c01b60a08301524260608301527f2cf5022bdd8fefe86d09412967e028fa9a8cf1e1a3989d47dfd9fc64a22afa8660c03393a36001805580f35b6108a490614e92565b6108af57833861083b565b8380fd5b6040513d84823e3d90fd5b60405162461bcd60e51b815260206004820152603160248201527f4f7074696f6e73436f72653a2063616e6e6f742077697468647261772062656c60448201527037bb9034b734ba34b0b61036b0b933b4b760791b6064820152608490fd5b506005548110610752565b50346102b65760203660031901126102b6578061040060405161094a81614ed7565b82815282602082015282604082015260608082015260606080820152606060a0820152606060c0820152606060e08201528261010082015282610120820152826101408201528261016082015282610180820152826101a0820152826101c0820152826101e08201528261020082015282610220820152826102408201528261026082015282610280820152826102a0820152826102c0820152826102e08201528261030082015282610320820152826103408201528261036082015282610380820152826103a0820152826103c0820152826103e08201520152600435815260076020526040812060405191610a4083614ed7565b8154835260018201546001600160a01b0390811660208501526002830154166040840152610a7060038301614f14565b6060840152610a8160048301614f14565b6080840152610a9260058301614f14565b60a0840152610aa360068301614f14565b60c0840152610ab460078301614f14565b60e084015260ff600883015416610aca81614ff8565b6101008401526009820154610120840152600a820154610140840152600b820154610160840152600c820154610180840152600d8201546101a0840152600e8201546101c0840152600f8201546101e084015260108201546102008401526011820154610b3960ff8216614db7565b60ff811661022085015260ff8160081c1661024085015260ff8160101c1661026085015260ff8160181c16610280850152610b7960ff8260201c16614db7565b60ff8160201c166102a085015260018060a01b039060281c166102c084015260128201546102e0840152601382015461030084015260148201549060ff82161515610320850152610bcf60ff8360081c16614ff8565b60ff8260081c16610340850152600b60ff8360101c161015610e4f57509060ff60199260101c16610360840152601581015461038084015260168101546103a084015260178101546103c084015260188101546103e084015201546104008201526040518091602082528051602083015260018060a01b03602082015116604083015260018060a01b036040820151166060830152610400610ce5610c8560608401516104206080870152610440860190614fb8565b610ccf610cbb610ca7608087015193601f1994858a83030160a08b0152614fb8565b60a0870151848983030160c08a0152614fb8565b60c0860151838883030160e0890152614fb8565b9060e08501519086830301610100870152614fb8565b91610100810151610cf581614ff8565b6101208501526101208101516101408501526101408101516101608501526101608101516101808501526101808101516101a08501526101a08101516101c08501526101c08101516101e08501526101e0810151610200850152610200810151610220850152610220810151610d6a81614db7565b61024085015260ff6102408201511661026085015260ff6102608201511661028085015260ff610280820151166102a08501526102a0810151610dac81614db7565b6102c085015260018060a01b036102c0820151166102e08501526102e08101516103008501526103008101516103208501526103208101511515610340850152610340810151610dfb81614ff8565b610360850152610e15610360820151610380860190615002565b6103808101516103a08501526103a08101516103c08501526103c08101516103e08501526103e08101518285015201516104208301520390f35b634e487b7160e01b81526021600452602490fd5b50346102b657602090816003193601126102b6576004358152600880835260408220928354916001600160401b0383116110b45791849192604051916005610eaf8683831b0185614ef3565b818452858401809588528688209188915b848310610fbc575050505050506040519280840191818552518092526040840192945b828110610ef05784840385f35b909192826101c0600192610fad8951805183528481015185840152858060a01b03604082015116604084015260608082015190610f2c82614db7565b8401526080808201519084015260a0808201519084015260c0808201519084015260e081015160e08401526101008082015190610f6882614db7565b84015260ff6101208181840151169085015261014090818301511690840152610160808201519084015261018080820151908401526101a08091015190830190614dc1565b01960191019492919094610ee3565b6040999896979951610fcd81614ebb565b8454815260018501548882015260028501546001600160a01b038116604083015260ff9060a090811c821661100181614db7565b6060840152600387015460808401526004870154908301528386015460c0830152600686015460e083015280600787015481811661103e81614db7565b61010085015281818b1c1661012085015260101c16610140830152878601546101608301526009860154610180830152600a86015416600481101561109e57600192828a926101a0600b9501528152019401920191929896959798610ec0565b634e487b7160e01b600052602160045260246000fd5b634e487b7160e01b84526041600452602484fd5b50346102b657602080600319360112610338576004356001600160401b0381116102b2576110fb82913690600401614ccf565b91908260405193849283378101600c815203019020916040518092808554928381520194835280832092905b82821061113e576102ae8561031581890382614ef3565b835486529485019460019384019390910190611127565b50346102b65760208060031936011261033857600435908115158061130e575b61117e9061551d565b8183526007815261119f60018060a01b036001604086200154163314615498565b6111a7615475565b6111af615457565b81835260078152601460408420019081549160ff8360101c1692600b8410156106c95783158015611304575b156112b05791600a91620a00006000805160206158b1833981519152959462ff00001916179055847fb848a62ef7171019d243ed8f5b8e1e6c32cafed0b7fc99da26cb2fc2e7d533ec604051604081528061125660408201604090600f81526e189d5e595c8818d85b98d95b1b1959608a1b60208201520190565b42868301520390a261126b6040518094615002565b82015260806040820152806112a060808201604090600f81526e189d5e595c8818d85b98d95b1b1959608a1b60208201520190565b4260608301520390a26001805580f35b60405162461bcd60e51b815260048101849052602660248201527f4f7074696f6e73436f72653a2063616e6e6f742063616e63656c206166746572604482015265040dac2e8c6d60d31b6064820152608490fd5b50600184146111db565b506005548210611175565b50346102b65760203660031901126102b657611333614d0c565b61133b61502b565b60018060a01b03166bffffffffffffffffffffffff60a01b600354161760035580f35b50346102b65760203660031901126102b657600435815260076020526040902061016081905280546101c052600181015460028201546001600160a01b039081166102205216906113b190600301614f14565b61012052610160516004016113c590614f14565b610160516005016113d590614f14565b91610160516006016113e690614f14565b91610160516007016113f790614f14565b936101605193600885015460ff1660e052600985015495600a860154600b87015491600c88015493600d89015495600e8a015497600f8b01549960108c01549b601181015461024052601281015460c05260138101546102005260148101546101e0526015810154608052601681015461014052601781015460a05260188101546101a052601901546101805260405180610100526101c05190526101005160200152610220516101005160400152610420806101005160600152610100510161012051906114c591614fb8565b6101005180820390608001526114da91614fb8565b610100518082039060a001526114ef91614fb8565b610100518082039060c0015261150491614fb8565b610100518082039060e0015261151991614fb8565b9760e05161152690614ff8565b60e051610100516101000152610100516101200152610100516101400152610100516101600152610100516101800152610100516101a00152610100516101c00152610100516101e001526101005161020001526102405160ff1661158a90614db7565b6102405160ff166101005161022001526102405160081c60ff166101005161024001526102405160101c60ff166101005161026001526102405160181c60ff166101005161028001526102405160201c60ff166115e690614db7565b6102405160201c60ff16610100516102a00152600160a01b600190036102405160281c16610100516102c0015260c051610100516102e00152610200516101005161030001526101e05160ff1615156101005161032001526101e05160081c60ff1661165190614ff8565b6101e05160081c60ff1661010051610340015261010051610360016101e05160101c60ff169061168091615002565b60805161010051610380015261014051610100516103a0015260a051610100516103c001526101a051610100516103e00152610180516101005161040001526101005180910390f35b50346102b65760203660031901126102b65760409060043581526009602052208054906102ae600182015460028301549260038101549460048201549260058301549160068401549060078501549160088601549460ff600a600989015498015416976040519b8c9b8c60ff8860101c169860ff808a60081c1699169760ff8460a01c169360018060a01b031692614dce565b50346102b657602080600319360112610338576001600160a01b0361177f614d0c565b168252600a815260408220916040518092808554928381520194835280832092905b8282106117b8576102ae8561031581890382614ef3565b8354865294850194600193840193909101906117a1565b50346102b657806003193601126102b657602090604051908152f35b50346102b6576102603660031901126102b6576004356001600160401b0381116103385761181d903690600401614ccf565b6024356001600160401b0381116108af5761183c903690600401614ccf565b906044356001600160401b0381116120b35761185c903690600401614ccf565b906064356001600160401b0381116120af5761187c903690600401614ccf565b906084356001600160401b0381116120ab5761189c903690600401614ccf565b999098600260a435101561033857600361014435101561033857610164356001600160a01b0381169003612052576118d2614cfc565b60036101e43510156102b25760ff610204351661020435036120525760ff610224351661022435036120525760026102443510156102b257611912615475565b61191a615457565b61192760c435151561519c565b6119344260e435116151f7565b600254604051635d8eb68760e01b81529060081c6001600160a01b0316602082600481845afa9182156120a057859261206a575b5061197a600492610124351015615251565b81546003546040516337382d3960e21b8152936001600160a01b03928316939290911691602091859182905afa91821561205f578692612024575b6119c1935033906153b0565b600554996119ce8b61529c565b6005558a84526007602052604084208b81556001810180546001600160a01b03191633179055926001600160401b038211612010578190611a1f82611a166003880154614e58565b600388016152c1565b8590601f8311600114611fa4578692611f99575b50508160011b916000199060031b1c19161760038301555b6001600160401b038911611e2457611a7389611a6a6004850154614e58565b600485016152c1565b8883601f8211600114611f2d578491611f22575b508960011b906000198b60031b1c19161760048301555b6001600160401b038711611e2457611ac687611abd6005850154614e58565b600585016152c1565b8683601f8211600114611eb8578491611ead575b508760011b906000198960031b1c19161760058301555b6001600160401b038511611e2457611b1985611b106006850154614e58565b600685016152c1565b8483601f8211600114611e43578491611e38575b508560011b906000198760031b1c19161760068301555b6001600160401b038c11611e24578b611b6f60209d611b666007860154614e58565b600786016152c1565b839b601f8211600114611d91579a611ceb968e829e97611cbb611d039f859f9e9c978a859f9b9a6040928a8a9f9b611cd39c8a9f978d9892611d86575b50508160011b916000199060031b1c19161760078301555b611bd360a43560088401615315565b60c435600983015560e435600b83015561010435600c830155610124356010830155611c9160118301611c09610144358261532d565b805465010000000000600160c81b0319166101643560281b65010000000000600160c81b03161781556101843560128501556101a435601385015560148401805493151560ff1660ff1994909416939093178355611c6a6101e43582615352565b805462ff00006102243560101b1662ffff001990911661ff006102043560081b1617179055565b611c9e610244358261535c565b62ff0000198154169055601542910155338152600a86522061537b565b8260405193849283378101600c81520301902061537b565b8260405193849283378101600d81520301902061537b565b8260405193849283378101600e81520301902061537b565b604051600181524283820152817fc0c6ed2669febbe340d8737e8ec17254ffd9e038b54a4585ff70ac3ca18956aa60403393a3806000805160206158b183398151915260c06040516000815260008682015260806040820152600760808201526618dc99585d195960ca1b60a0820152426060820152a260018055604051908152f35b013590503880611bac565b6007840185528d852090859d8e5b601f19851611611e0c578f9a968e9f5097611cbb611d039f9e9d9b968f9a6040908f9a8d9893611ceb9f988b8b968f9a92600193611cd39f601f19811610611df2575b505050811b016007830155611bc4565b0135600019600384901b60f8161c19169055388080611de2565b918f600181928585013581550193019e019d8e611d9f565b634e487b7160e01b83526041600452602483fd5b905084013538611b2d565b600684018552602085209150845b601f1988168110611e95575086601f19811610611e7b575b5050600185811b016006830155611b44565b850135600019600388901b60f8161c191690553880611e69565b9091602060018192858a013581550193019101611e51565b905086013538611ada565b600584018552602085209150845b601f198a168110611f0a575088601f19811610611ef0575b5050600187811b016005830155611af1565b87013560001960038a901b60f8161c191690553880611ede565b9091602060018192858c013581550193019101611ec6565b905088013538611a87565b600484018552602085209150845b8a601f198d168210611f815750508a601f19811610611f67575b5050600189811b016004830155611a9e565b89013560001960038c901b60f8161c191690553880611f55565b60018394602093948493013581550193019101611f3b565b013590503880611a33565b60038601875260208720879450915b601f1984168510611ff8576001945083601f19811610611fde575b505050811b016003830155611a4b565b0135600019600384901b60f8161c19169055388080611fce565b81810135835560209485019460019093019201611fb3565b634e487b7160e01b85526041600452602485fd5b91506020833d602011612057575b8161203f60209383614ef3565b81010312612052576119c19251916119b5565b600080fd5b3d9150612032565b6040513d88823e3d90fd5b91506020823d602011612098575b8161208560209383614ef3565b810103126120525790519061197a611968565b3d9150612078565b6040513d87823e3d90fd5b8980fd5b8780fd5b8580fd5b50346102b65760403660031901126102b65760406120d3614d22565b91600435815280602052209060018060a01b0316600052602052602060ff604060002054166040519015158152f35b50346102b65760203660031901126102b657600435151580612664575b6121289061551d565b612130615475565b612138615457565b600435815260076020526040812060148101549060ff8260101c16600b811015612650576006036125ff5760188101549081156125ba5761217b60078201614f14565b93809481938293835b835181101561228d576001600160f81b0319601760f91b816121a68488615768565b51161461227f57600360fc1b816121bd8488615768565b511610159081612264575b506121dc575b6121d79061529c565b612184565b88600a81999897990204600a148915171561225057602f196121fe8286615768565b5160f81c0160ff811161223c578899600a60ff612221939b999a9b169102615510565b98156121ce57956122346121d79161529c565b9690506121ce565b634e487b7160e01b86526011600452602486fd5b634e487b7160e01b85526011600452602485fd5b603960f81b91506122758387615768565b51161115386121c8565b5094506121d760019561529c565b8483838a8c8b60128110612593575b5060ff81921680612586575b612562575b50839260ff6008840154166122c181614ff8565b6125385781811161250d575b50505b8282156125015750600f810154918281116124fa575b806122f1919361570f565b915b8061244d575b826123c5575b9060ff927f6da40291eeb646b436d05c420b5b9f010d81df95bce846d2c3b3d45f56df19ec61236b61237d946014850154946208000062ff0000198716176014820155601742910155604051918291600435954291846040919493926060820195825260208201520152565b0390a260405192839160101c16615002565b600860208201526080604082015260076080820152661cd95d1d1b195960ca1b60a08201524260608201526000805160206158b183398151915260c060043592a26001805580f35b600354600283015460045486926001600160a01b03908116929181169116823b156108af57604051636924faa760e11b81526001600160a01b03918216600482015291166024820152604481018690529082908290606490829084905af180156108b357612435575b50506122ff565b61244190939293614e92565b6108af5790838561242e565b6003546002830154600184015460045487936001600160a01b039182169382169282169116803b156124f65784928360e49260405196879586946305fe3a8b60e31b865260048601526024850152604484015288606484015260a06084840152601160a4840152701cd95d1d1b195b595b9d081c185e5bdd5d607a1b60c48401525af180156108b3576124e2575b50506122f9565b6124eb90614e92565b6108af5783856124db565b8480fd5b50816122e6565b600f82015492506122f3565b6125309293506125208261252b9261570f565b6009850154906154dd565b6154f0565b9083806122cd565b808211612547575b50506122d0565b61255a92935061252061252b918361570f565b908380612540565b60198301549081101561257e576125789161570f565b846122ad565b505082612578565b50601983015415156122a8565b6012036012811161223c57604d811161223c57906125b491600a0a906154dd565b8561229c565b60405162461bcd60e51b815260206004820152601a60248201527f4f7074696f6e73436f72653a206e6f20666565642070726963650000000000006044820152606490fd5b60405162461bcd60e51b815260206004820152602360248201527f4f7074696f6e73436f72653a206e6f742070656e64696e6720736574746c656d604482015262195b9d60ea1b6064820152608490fd5b634e487b7160e01b84526021600452602484fd5b506005546004351061211f565b50346102b657806003193601126102b6576003546040516001600160a01b039091168152602090f35b50346102b657806003193601126102b6576126b361502b565b6126bb615457565b600160ff1960025416176002557f62e78cea01bee320cd4e420270b5ea74000d11b0c9f74754ebdbfc544b05a2586020604051338152a180f35b50346102b657602080600319360112610338576004356001600160401b0381116102b25761272882913690600401614ccf565b91908260405193849283378101600d815203019020916040518092808554928381520194835280832092905b82821061276b576102ae8561031581890382614ef3565b835486529485019460019384019390910190612754565b50346102b657806003193601126102b65760025460405160089190911c6001600160a01b03168152602090f35b50346102b6576127be36614d38565b81151580612941575b6127d09061551d565b6127d8615475565b6127e0615457565b82805282602052604083203360005260205261280360ff6040600020541661571c565b81835260076020526040832090601482015460ff8160101c16600b8110156106c95790612834600460ff93146156c3565b16156128e75780156128935760197fdd46d8cd4968afb89542d91ba59208e869e45ff03dcda531aa39fd6888a174c39201612870828254615510565b908190556040805192835260208301919091524290820152606090a26001805580f35b60405162461bcd60e51b815260206004820152602660248201527f4f7074696f6e73436f72653a206469766964656e64206d75737420626520706f60448201526573697469766560d01b6064820152608490fd5b60405162461bcd60e51b815260206004820152602c60248201527f4f7074696f6e73436f72653a206469766964656e642061646a7573746d656e7460448201526b081b9bdd08195b98589b195960a21b6064820152608490fd5b5060055482106127c7565b50346102b65760c03660031901126102b657600360643510156102b65760843560ff811681036120525760a43560ff8116810361205257600435151580612f09575b6129979061551d565b61299f615475565b6129a7615457565b60043583526007602052604083209060ff601483015460101c16600b811015612c83578015908115612efe575b5015612ea95760018201546001600160a01b031615612e64576015820154600254604051634f6bfad760e01b815260089190911c6001600160a01b031691602082600481865afa908115612e59578791612e23575b612a339250615510565b421015612dde57600490813586526008602052602060408720549160405193848092630be0cbcd60e21b82525afa91821561205f578692612daa575b501015612d65576011820154600260ff8260201c16612a8d81614db7565b14612cfd575b50612710612aa760443560098501546154dd565b04612aba60108401546044351015615251565b600454600354612ada9183916001600160a01b03908116913391166153b0565b60065493612ae78561529c565b600655612710612afd60243560098701546154dd565b04926004602060018060a01b0360025460081c16604051928380926306a15d6d60e11b82525afa908115612cf2578891612cbf575b5060ff92612b41849242615510565b9460405196612b4f88614ebb565b89885260043560208901523360408901528a6060890152602435608089015260a088015260443560c088015260e0870152612b8b606435614db7565b606435610100870152166101208501521661014083015242610160830152610180820152836101a08201528284526009602052612bcb8160408620615569565b6004358452600860205260408420805490600160401b821015612cab5790612bf89160018201815561500f565b612c975790612c0691615569565b601481015460ff8160101c16600b811015612c83576020945015612c6b575b5050604051602435815242838201528133917f878fe3f9bca373e42473c1f3ad3c9c35c4f1ecaf9a5f081a801a3fbd43049f55604060043592a460018055604051908152f35b6201000060149162ff00001916179101553880612c25565b634e487b7160e01b85526021600452602485fd5b634e487b7160e01b85526004859052602485fd5b634e487b7160e01b86526041600452602486fd5b90506020813d602011612cea575b81612cda60209383614ef3565b81010312612052575160ff612b32565b3d9150612ccd565b6040513d8a823e3d90fd5b60281c6001600160a01b03163303612d155738612a93565b60405162461bcd60e51b815260206004820152602260248201527f4f7074696f6e73436f72653a206e6f742064657369676e617465642073656c6c60448201526132b960f11b6064820152608490fd5b60405162461bcd60e51b815260206004820152601f60248201527f4f7074696f6e73436f72653a206d61782071756f7465732072656163686564006044820152606490fd5b9091506020813d602011612dd6575b81612dc660209383614ef3565b8101031261205257519038612a6f565b3d9150612db9565b60405162461bcd60e51b815260206004820152601860248201527f4f7074696f6e73436f72653a20524651206578706972656400000000000000006044820152606490fd5b90506020823d602011612e51575b81612e3e60209383614ef3565b8101031261205257612a33915190612a29565b3d9150612e31565b6040513d89823e3d90fd5b60405162461bcd60e51b815260206004820152601e60248201527f4f7074696f6e73436f72653a206e6f742061206275796572206f7264657200006044820152606490fd5b60405162461bcd60e51b815260206004820152602760248201527f4f7074696f6e73436f72653a206f72646572206e6f7420616363657074696e676044820152662071756f74657360c81b6064820152608490fd5b6001915014386129d4565b506005546004351061298e565b5060403660031901126102b65760043560036024351015610338579081612f6792151580612fd3575b612f489061551d565b8152600760205260409020600101546001600160a01b03163314615498565b612f6f615475565b612f77615457565b60405162461bcd60e51b815260206004820152602e60248201527f4f7074696f6e73436f72653a20666565642070726f746f636f6c206e6f74206960448201526d1b5c1b195b595b9d1959081e595d60921b6064820152608490fd5b506005548110612f3f565b50346102b65760203660031901126102b657600435801515806130ff575b6130059061551d565b61300d615475565b613015615457565b808252600760205260408220601481019081549160ff8360101c1692600b8410156106c9577fb009a900f426c0c9177acb33a8a806b35c53ac253d1ddf22d687986fc6b72ce4606060c094869462090000899561308360046000805160206158b18339815191529b146156c3565b62ff00001916179055426017820155600f60018060a01b036001830154169101546040519182526020820152426040820152a26130c36040518092615002565b6009602082015260806040820152601060808201526f199bdc98d9481b1a5c5d5a59185d195960821b60a0820152426060820152a26001805580f35b506005548110612ffc565b5060208060031936011261033857600435908115158061338d575b61312e9061551d565b613136615475565b61313e615457565b8183526007815260408320601481019060ff825460101c16600b8110156106c9576006036133375760018101546001600160a01b039190821633148015613328575b156132e357806012601761319993015491015490615510565b421161328f57806004918254168482600354169260025460081c166040519485809263039f4f7560e31b82525afa928315612e5957879361325a575b509361321d60c0946131fd60ff956007956000805160206158b18339815191529933906153b0565b805462ff0000198116620700001790915560405194859160101c16615002565b820152608060408201526015608082015274185c989a5d1c985d1a5bdb881a5b9a5d1a585d1959605a1b60a0820152426060820152a26001805580f35b925090938083813d8311613288575b6132738183614ef3565b8101031261205257915191939061321d6131d5565b503d613269565b60405162461bcd60e51b815260048101849052602660248201527f4f7074696f6e73436f72653a206172626974726174696f6e2077696e646f772060448201526518db1bdcd95960d21b6064820152608490fd5b60405162461bcd60e51b815260048101859052601f60248201527f4f7074696f6e73436f72653a206e6f7420706172747920746f206f72646572006044820152606490fd5b50816002820154163314613180565b60405162461bcd60e51b815260048101849052602860248201527f4f7074696f6e73436f72653a2063616e6e6f7420696e6974696174652061726260448201526734ba3930ba34b7b760c11b6064820152608490fd5b506005548210613125565b50346102b6576020806003193601126103385760043590811515806136d3575b6133c19061551d565b6133c9615475565b6133d1615457565b818352600781526040832090601482019283549360ff8560101c1693600b8510156136bf578461367c57600281019260018060a01b0392838554169788156136375760018401988954908682166135f25733146135a1576001600160a01b0319163317895562ff00001916620200001790554260168301556009820154600254604051631c03be3560e31b8152919087908390600490829060081c89165afa918215613596578a92613558575b509360c096936134dc6000805160206158b18339815191529997946134cc6134ba6127106134af879860029c6154dd565b04600d860154615510565b856004541686600354169033906153b0565b338d52600a875260408d2061537b565b5498541691541690877f3d7463b72b52fafc8e3f27dc0dbb9d1a94c0a4024834252b5cce68509acb49bc84604051428152a461351b6040518094615002565b8201526080604082015260156080820152741cd95b1b195c881bdc99195c881858d8d95c1d1959605a1b60a0820152426060820152a26001805580f35b96809498969395925087813d831161358f575b6135758183614ef3565b8101031261205257955194969295919490939160c061347e565b503d61356b565b6040513d8c823e3d90fd5b60405162461bcd60e51b8152600481018990526024808201527f4f7074696f6e73436f72653a2063616e6e6f7420616363657074206f776e206f604482015263393232b960e11b6064820152608490fd5b60405162461bcd60e51b8152600481018a9052601e60248201527f4f7074696f6e73436f72653a20616c72656164792068617320627579657200006044820152606490fd5b60405162461bcd60e51b815260048101889052601f60248201527f4f7074696f6e73436f72653a206e6f7420612073656c6c6572206f72646572006044820152606490fd5b6064846040519062461bcd60e51b825280600483015260248201527f4f7074696f6e73436f72653a206f72646572206e6f7420617661696c61626c656044820152fd5b634e487b7160e01b87526021600452602487fd5b5060055482106133b8565b50346102b65760203660031901126102b6576136f8615475565b613700615457565b6004358152600960205260408120600a8101549160ff83166004811015613bab57613b665760098201544211613b2157600182015481526007602052604081209261375860018060a01b036001860154163314615498565b60ff601485015460101c16600b811015613b0d578015908115613b02575b5015613abd576003830154600c85015410613a6a5760ff1916600117600a8301556002808301805491850180546001600160a01b0319166001600160a01b039390931692909217909155546138479060118501906137da9060a01c60ff168261532d565b6003840154600c8601556004840154600d860155600684015480600e870155600f86015560ff600785016138118282541684615352565b8054835461ff001916600891821c841690911b61ff00161783555460101c1662ff000082549160101b169062ff00001916179055565b60148301805462ff000019811662020000179091554260168501556009840154600254604051631c03be3560e31b8152929492906020908290600490829060081c6001600160a01b03165afa908115613a5f578491613a2b575b506127106138b56138c0926138da946154dd565b046004840154615510565b6004546003546001600160a01b03908116913391166153b0565b600201546001600160a01b03168152600b6020526040812083546138fd9161537b565b8254815260086020526040812092815b845481101561398057613920818661500f565b505460043514158061395e575b9061393b916139405761529c565b61390d565b600a61394c828861500f565b5001805460ff1916600217905561529c565b5060ff600a61396d838861500f565b500154166004811015612650571561392d565b506000805160206158b183398151915260c060ff6139f18685549560018060a01b0360018201541690600260018060a01b039101541690877f3d7463b72b52fafc8e3f27dc0dbb9d1a94c0a4024834252b5cce68509acb49bc6020604051428152a460405192839160101c16615002565b6002602082015260806040820152600e60808201526d1c5d5bdd19481858d8d95c1d195960921b60a0820152426060820152a26001805580f35b90506020813d602011613a57575b81613a4660209383614ef3565b8101031261205257516127106138a1565b3d9150613a39565b6040513d86823e3d90fd5b60405162461bcd60e51b815260206004820152602560248201527f4f7074696f6e73436f72653a207072656d69756d2072617465206578636565646044820152640e640dac2f60db1b6064820152608490fd5b60405162461bcd60e51b815260206004820152601b60248201527f4f7074696f6e73436f72653a20696e76616c69642073746174757300000000006044820152606490fd5b600191501438613776565b634e487b7160e01b83526021600452602483fd5b60405162461bcd60e51b815260206004820152601a60248201527f4f7074696f6e73436f72653a2071756f746520657870697265640000000000006044820152606490fd5b60405162461bcd60e51b815260206004820152601d60248201527f4f7074696f6e73436f72653a2071756f7465206e6f74206163746976650000006044820152606490fd5b634e487b7160e01b82526021600452602482fd5b50346102b657806003193601126102b657602060ff600254166040519015158152f35b50346102b657806003193601126102b6576020600654604051908152f35b50346102b657602080600319360112610338576004359081151580613dc9575b613c299061551d565b81835260078152613c4a60018060a01b036001604086200154163314615498565b8183526007815260ff601460408520015460101c16600b81101561265057600403613d7b57613c77615475565b613c7f615457565b818352600781526040832060ff601182015460181c168080046001148115171561225057613cb1906016830154615510565b4210613d2a5760ff60056000805160206158b183398151915293613cf4601460c095018054906205000062ff000019831617905560405194859160101c16615002565b82015260806040820152600e60808201526d6561726c7920657865726369736560901b60a0820152426060820152a26001805580f35b60405162461bcd60e51b815260048101839052602360248201527f4f7074696f6e73436f72653a2065786572636973652064656c6179206e6f74206044820152621b595d60ea1b6064820152608490fd5b6084906040519062461bcd60e51b82526004820152602160248201527f4f7074696f6e73436f72653a20696e76616c6964206f726465722073746174756044820152607360f81b6064820152fd5b506005548210613c20565b50346102b65760403660031901126102b657613dee614d0c565b6001600160a01b03168152600b60205260408120805460243592908310156102b6576020613e1c8484614d4e565b90546040519160031b1c8152f35b50346102b65760403660031901126102b657613e44614d0c565b6001600160a01b03168152600a60205260408120805460243592908310156102b6576020613e1c8484614d4e565b50346102b657613e8136614d38565b81151580613fbb575b613e939061551d565b613e9b61502b565b818352600760205260408320601481019182549160ff8360101c1691600b8310156136bf57600483148015613fb1575b15613f4f576000805160206158b1833981519152946206000060c095613ef2841515615779565b62ff000019161790556018820155601742910155613f136040518092615002565b60066020820152608060408201526014608082015273199a5b985b08199959590818dbdb5c1b195d195960621b60a0820152426060820152a280f35b60405162461bcd60e51b815260206004820152603460248201527f4f7074696f6e73436f72653a206f72646572206e6f7420696e2076616c6964206044820152731cdd185d1948199bdc88199a5b985b081999595960621b6064820152608490fd5b5060058314613ecb565b506005548210613e8a565b50346102b657806003193601126102b657613fdf61502b565b60025460ff81161561401f5760ff19166002557f5db9ee0a495bf2e6ff9c91a7834c1ba4fdd244a5e8aa4e537bd38aeae4b073aa6020604051338152a180f35b604051638dfc202b60e01b8152600490fd5b50346102b65760403660031901126102b65761404b614d22565b336001600160a01b03821603614067576105b790600435615127565b60405163334bd91960e11b8152600490fd5b50346102b65760603660031901126102b657600435602460443581356001600160401b038083116120b357366023840112156120b357826004013592818411614388578436918560051b0101116120b3578415158061437d575b6140dc9061551d565b6140e4615475565b6140ec615457565b85805260209386855260408720338852855261410e60ff60408920541661571c565b858752600785526040872092601484019460ff865460101c16600b81101561436a5760070361431857156142d45760188401805460018601546001600160a01b03908116968b9483811415949093928561426f575b508390558854986208000062ff0000198b1617905560174291015560405194898601908b82524260408801526040875260608701978789109089111761425b575060c0876000805160206158b18339815191529b9761421f97839c978f969760ff9d987fb3560d930da64161657f7700f7109520a24b93d7ff2363739ee324a1e0d6bf879760089e60405285519020998652608085015260a08401528483015260e082015261010042910152a360405194859160101c16615002565b820152608060408201526014608082015273185c989a5d1c985d1a5bdb881c995cdbdb1d995960621b60a0820152426060820152a26001805580f35b634e487b7160e01b60009081526041600452fd5b6003546798a7d9b8314c00009750168d813b156102b6578860448c838b9560405196879586946315490ebb60e01b865260048601528401525af180156142c75715614163579c6142c085929e614e92565b9c90614163565b8e604051903d90823e3d90fd5b60405162461bcd60e51b815260048101879052601b818401527f4f7074696f6e73436f72653a206e6f2061726269747261746f727300000000006044820152606490fd5b60405162461bcd60e51b8152600481018890526025818501527f4f7074696f6e73436f72653a206f72646572206e6f7420696e2061726269747260448201526430ba34b7b760d91b6064820152608490fd5b634e487b7160e01b8a526021600452838afd5b5060055485106140d3565b8680fd5b50346102b657806003193601126102b6576004546040516001600160a01b039091168152602090f35b50346102b65760403660031901126102b6576105b76004356143d5614d22565b90808452836020526143ed6001604086200154615083565b6150a9565b50346102b657806003193601126102b6576020600554604051908152f35b50346102b65760203660031901126102b657600160406020926004358152808452200154604051908152f35b50346102b65760203660031901126102b657614456614d0c565b61445e61502b565b60028054610100600160a81b03191660089290921b610100600160a81b031691909117905580f35b50346102b65760203660031901126102b65760043563ffffffff60e01b811680910361033857602090637965db0b60e01b81149081156144cc575b506040519015158152f35b6301ffc9a760e01b149050826144c1565b50346102b6576102203660031901126102b6576004356001600160401b0381116103385761450f903690600401614ccf565b90916024356001600160401b03811161033857614530903690600401614ccf565b93906044356001600160401b0381116108af57614551903690600401614ccf565b906064356001600160401b0381116120b357614571903690600401614ccf565b90946084356001600160401b0381116120af57614592903690600401614ccf565b600260a4351015614ccb576003610144351015614ccb5760ff61016435166101643503614ccb5760ff61018435166101843503614ccb576145d1614cfc565b9160ff6101e435166101e435036120ab5760026102043510156120ab576145f6615475565b6145fe615457565b61460b60c435151561519c565b6146184260e435116151f7565b600480546003546002546040516337382d3960e21b81526001600160a01b0393841694909392831692602092859291839160081c165afa918215614cc0578d92614c86575b506146699233906153b0565b61012435614c5e575b6005549a61467f8c61529c565b6005558b8b52600760205260408b208c81556002810180546001600160a01b03191633179055946001600160401b038211614c4a5781906146d0826146c760038a0154614e58565b60038a016152c1565b8c90601f8311600114614bde578d92614bd3575b50508160011b916000199060031b1c19161760038501555b6001600160401b038c11614a59576147248c61471b6004870154614e58565b600487016152c1565b8b8a601f8211600114614b64578b91614b59575b5060001960038e901b1c191660018d901b1760048501555b6001600160401b038711614a59576147788761476f6005870154614e58565b600587016152c1565b868a601f8211600114614aef578b91614ae4575b508760011b906000198960031b1c19161760058501555b6001600160401b038511614a59576147cb856147c26006870154614e58565b600687016152c1565b848a601f8211600114614a78578b91614a6d575b508560011b906000198760031b1c19161760068501555b6001600160401b038211614a59579260209b969492828c99979561482b8d956148226007870154614e58565b600787016152c1565b8490601f83116001146149ad57958f6149649d611cbb8e60408a859f9e9b9a611ceb9e9a8a859f9b869b8a9f9d611cd39e926149a2575b50508160011b916000199060031b1c19161760078301555b61488960a43560088401615315565b60c435600983015560e435600b8301556127106148b16101043580600c86015560c4356154dd565b04600d83015561012435600e83015561012435600f830155601182016148da6101443582615352565b805462ff00006101843560101b1662ffff001990911661ff006101643560081b16171781556101a435601284015560148301805492151560ff1660ff1993909316929092178255805463ff00000019166101e43560181b63ff00000016179055614947610204358261535c565b62ff0000198154169055601542910155338152600b86522061537b565b6040519081524283820152817fc0c6ed2669febbe340d8737e8ec17254ffd9e038b54a4585ff70ac3ca18956aa60403393a360018055604051908152f35b013590503880614862565b9b94939291906007840185528f852090855b601f1984168110614a27575060209a9996611cbb6149649f8f9a948e99611ceb9d99611cd39960018f9a6040958f9a978d9883601f19811610614a0d575b505050811b01600783015561487a565b0135600019600384901b60f8161c191690553880806149fd565b9295509396989a9c929597999b508f600181928686013581550194019101928d94918f9c9a9896939d9b9997946149bf565b634e487b7160e01b8a52604160045260248afd5b9050890135386147df565b600686018c5260208c2091508b5b8b601f1989168210614acc57505086601f19811610614ab2575b5050600185811b0160068501556147f6565b8a0135600019600388901b60f8161c191690553880614aa0565b60018394602093948493013581550193019101614a86565b90508601353861478c565b600586018c5260208c2091508b5b601f198a168110614b41575088601f19811610614b27575b5050600187811b0160058501556147a3565b87013560001960038a901b60f8161c191690553880614b15565b9091602060018192858c013581550193019101614afd565b905088013538614738565b600486018c5260208c2091508b8e5b8b601f1982168310614bb95750601f198116109050614b9f575b505060018c811b016004850155614750565b89013560001960038f901b60f8161c191690553880614b8d565b600184956020939495849301358155019401920190614b73565b0135905038806146e4565b600388018e5260208e208e9450915b601f1984168510614c32576001945083601f19811610614c18575b505050811b0160038501556146fc565b0135600019600384901b60f8161c19169055388080614c08565b81810135835560209485019460019093019201614bed565b634e487b7160e01b8c52604160045260248cfd5b600454600354614c819161012435916001600160a01b03908116913391166153b0565b614672565b9091506020813d602011614cb8575b81614ca260209383614ef3565b81010312614cb457519061466961465d565b8c80fd5b3d9150614c95565b6040513d8f823e3d90fd5b8880fd5b9181601f84011215612052578235916001600160401b038311612052576020838186019501011161205257565b6101c43590811515820361205257565b600435906001600160a01b038216820361205257565b602435906001600160a01b038216820361205257565b6040906003190112612052576004359060243590565b8054821015614d665760005260206000200190600090565b634e487b7160e01b600052603260045260246000fd5b6020908160408183019282815285518094520193019160005b828110614da3575050505090565b835185529381019392810192600101614d95565b6003111561109e57565b90600482101561109e5752565b9b99979593919e9d9c9a98969492909e6101c08d019f8d5260208d0152600160a01b600190031660408c0152614e0381614db7565b60608b015260808a015260a089015260c088015260e0870152614e2581614db7565b61010086015260ff1661012085015260ff166101408401526101608301526101808201526101a001614e5691614dc1565b565b90600182811c92168015614e88575b6020831014614e7257565b634e487b7160e01b600052602260045260246000fd5b91607f1691614e67565b6001600160401b038111614ea557604052565b634e487b7160e01b600052604160045260246000fd5b6101c081019081106001600160401b03821117614ea557604052565b61042081019081106001600160401b03821117614ea557604052565b90601f801991011681019081106001600160401b03821117614ea557604052565b9060405191826000825492614f2884614e58565b908184526001948581169081600014614f955750600114614f52575b5050614e5692500383614ef3565b9093915060005260209081600020936000915b818310614f7d575050614e5693508201013880614f44565b85548884018501529485019487945091830191614f65565b915050614e5694506020925060ff191682840152151560051b8201013880614f44565b919082519283825260005b848110614fe4575050826000602080949584010152601f8019910116010190565b602081830181015184830182015201614fc3565b6002111561109e57565b90600b82101561109e5752565b8054821015614d6657600052600b602060002091020190600090565b3360009081527fad3228b676f7d3cd4284a5443f17f1962b36e491b30a40b2405849e597ba5fb5602052604081205460ff16156150655750565b6044906040519063e2517d3f60e01b82523360048301526024820152fd5b80600052600060205260406000203360005260205260ff60406000205416156150655750565b9060009180835282602052604083209160018060a01b03169182845260205260ff6040842054161560001461512257808352826020526040832082845260205260408320600160ff198254161790557f2f8788117e7eff1d82e926ec794901d17c78024a50270940304540a733656f0d339380a4600190565b505090565b9060009180835282602052604083209160018060a01b03169182845260205260ff6040842054166000146151225780835282602052604083208284526020526040832060ff1981541690557ff6391f5c32d9c69d2a47ea670b442974b53935d1edc7fd64eb21e047a839171b339380a4600190565b156151a357565b60405162461bcd60e51b815260206004820152602660248201527f4f7074696f6e73436f72653a206e6f74696f6e616c206d75737420626520706f60448201526573697469766560d01b6064820152608490fd5b156151fe57565b60405162461bcd60e51b815260206004820152602560248201527f4f7074696f6e73436f72653a20657870697279206d75737420626520696e2066604482015264757475726560d81b6064820152608490fd5b1561525857565b606460405162461bcd60e51b815260206004820152602060248201527f4f7074696f6e73436f72653a206d617267696e207261746520746f6f206c6f776044820152fd5b60001981146152ab5760010190565b634e487b7160e01b600052601160045260246000fd5b90601f81116152cf57505050565b600091825260208220906020601f850160051c8301941061530b575b601f0160051c01915b82811061530057505050565b8181556001016152f4565b90925082906152eb565b9061531f81614ff8565b60ff80198354169116179055565b9061533781614db7565b64ff0000000082549160201b169064ff000000001916179055565b9061531f81614db7565b9061536681614ff8565b61ff0082549160081b169061ff001916179055565b8054600160401b811015614ea55761539891600182018155614d4e565b819291549060031b91821b91600019901b1916179055565b6040516323b872dd60e01b60208083019182526001600160a01b03948516602484015294909316604482015260648082019590955293845292600091906153f8608482614ef3565b519082855af11561544b576000513d61544257506001600160a01b0381163b155b6154205750565b604051635274afe760e01b81526001600160a01b039091166004820152602490fd5b60011415615419565b6040513d6000823e3d90fd5b60ff6002541661546357565b60405163d93c066560e01b8152600490fd5b600260015414615486576002600155565b604051633ee5aeb560e01b8152600490fd5b1561549f57565b60405162461bcd60e51b815260206004820152601660248201527527b83a34b7b739a1b7b9329d103737ba10313abcb2b960511b6044820152606490fd5b818102929181159184041417156152ab57565b81156154fa570490565b634e487b7160e01b600052601260045260246000fd5b919082018092116152ab57565b1561552457565b60405162461bcd60e51b815260206004820152601d60248201527f4f7074696f6e73436f72653a20696e76616c6964206f726465722069640000006044820152606490fd5b600a6101a09183518155602084015160018201556002810160018060a01b03604086015116815490606087015161559f81614db7565b6155a881614db7565b60ff60a01b9060a01b16916affffffffffffffffffffff60a81b16171790556080840151600382015560a0840151600482015560c0840151600582015560e084015160068201556156466007820161560e61010087015161560881614db7565b82615352565b610120860151815461ff00191660089190911b61ff0016178155610140860151815462ff0000191660109190911b62ff000016179055565b6101608401516008820155610180840151600982015501910151600481101561109e5760ff80198354169116179055565b1561567e57565b60405162461bcd60e51b815260206004820152601760248201527f4f7074696f6e73436f72653a206e6f742073656c6c65720000000000000000006044820152606490fd5b156156ca57565b60405162461bcd60e51b815260206004820152601b60248201527f4f7074696f6e73436f72653a206f72646572206e6f74206c69766500000000006044820152606490fd5b919082039182116152ab57565b1561572357565b60405162461bcd60e51b815260206004820152601b60248201527f4f7074696f6e73436f72653a206e6f7420617574686f72697a656400000000006044820152606490fd5b908151811015614d66570160200190565b1561578057565b60405162461bcd60e51b815260206004820152601a60248201527f4f7074696f6e73436f72653a20696e76616c69642070726963650000000000006044820152606490fd5b6001600160401b038111614ea557601f01601f191660200190565b80156158825780816000925b61586c57506157fa826157c5565b916158086040519384614ef3565b80835281601f19615818836157c5565b013660208601375b61582957505090565b60001981019081116152ab578091600a91603083830681018091116152ab5760f81b6001600160f81b03191660001a906158639086615768565b53049081615820565b9091615879600a9161529c565b929104806157ec565b50604051604081018181106001600160401b03821117614ea55760405260018152600360fc1b60208201529056fece3a31baf9956e086200ee7044a75c2befbd050912798b7bcd25d05831ab9592a26469706673582212206a2619ccc6047359aa2eae2b7209c34e0c2ee49fee698dac2275cffcce1972e064736f6c63430008140033","opcodes":"PUSH1 0x80 CALLVALUE PUSH3 0xF5 JUMPI PUSH1 0x1F PUSH3 0x5ABD CODESIZE DUP2 SWAP1 SUB SWAP2 DUP3 ADD PUSH1 0x1F NOT AND DUP4 ADD SWAP2 PUSH1 0x1 PUSH1 0x1 PUSH1 0x40 SHL SUB DUP4 GT DUP5 DUP5 LT OR PUSH3 0xFA JUMPI DUP1 DUP5 SWAP3 PUSH1 0x80 SWAP5 PUSH1 0x40 MSTORE DUP4 CODECOPY DUP2 ADD SUB SLT PUSH3 0xF5 JUMPI DUP1 PUSH3 0x52 PUSH3 0xE4 SWAP3 PUSH3 0x110 JUMP JUMPDEST SWAP1 PUSH3 0x61 PUSH1 0x20 DUP3 ADD PUSH3 0x110 JUMP JUMPDEST SWAP1 PUSH3 0x7E PUSH1 0x60 PUSH3 0x76 PUSH1 0x40 DUP5 ADD PUSH3 0x110 JUMP JUMPDEST SWAP3 ADD PUSH3 0x110 JUMP JUMPDEST PUSH1 0x1 DUP1 DUP1 SSTORE PUSH1 0x5 DUP2 SWAP1 SSTORE PUSH1 0x6 SSTORE PUSH1 0x2 DUP1 SLOAD PUSH2 0x100 PUSH1 0x1 PUSH1 0xA8 SHL SUB NOT AND PUSH1 0x8 SWAP6 SWAP1 SWAP6 SHL PUSH2 0x100 PUSH1 0x1 PUSH1 0xA8 SHL SUB AND SWAP5 SWAP1 SWAP5 OR SWAP1 SWAP4 SSTORE PUSH1 0x3 DUP1 SLOAD PUSH1 0x1 PUSH1 0x1 PUSH1 0xA0 SHL SUB NOT SWAP1 DUP2 AND PUSH1 0x1 PUSH1 0x1 PUSH1 0xA0 SHL SUB SWAP5 DUP6 AND OR SWAP1 SWAP2 SSTORE PUSH1 0x4 DUP1 SLOAD SWAP1 SWAP2 AND SWAP2 SWAP1 SWAP3 AND OR SWAP1 SSTORE PUSH3 0x125 JUMP JUMPDEST POP PUSH1 0x40 MLOAD PUSH2 0x5906 SWAP1 DUP2 PUSH3 0x1B7 DUP3 CODECOPY RETURN JUMPDEST PUSH1 0x0 DUP1 REVERT JUMPDEST PUSH4 0x4E487B71 PUSH1 0xE0 SHL PUSH1 0x0 MSTORE PUSH1 0x41 PUSH1 0x4 MSTORE PUSH1 0x24 PUSH1 0x0 REVERT JUMPDEST MLOAD SWAP1 PUSH1 0x1 PUSH1 0x1 PUSH1 0xA0 SHL SUB DUP3 AND DUP3 SUB PUSH3 0xF5 JUMPI JUMP JUMPDEST PUSH1 0x1 PUSH1 0x1 PUSH1 0xA0 SHL SUB AND PUSH1 0x0 DUP2 DUP2 MSTORE PUSH32 0xAD3228B676F7D3CD4284A5443F17F1962B36E491B30A40B2405849E597BA5FB5 PUSH1 0x20 MSTORE PUSH1 0x40 DUP2 KECCAK256 SLOAD SWAP1 SWAP2 SWAP1 PUSH1 0xFF AND PUSH3 0x1B2 JUMPI DUP2 DUP1 MSTORE DUP2 PUSH1 0x20 MSTORE PUSH1 0x40 DUP3 KECCAK256 DUP2 DUP4 MSTORE PUSH1 0x20 MSTORE PUSH1 0x40 DUP3 KECCAK256 PUSH1 0x1 PUSH1 0xFF NOT DUP3 SLOAD AND OR SWAP1 SSTORE CALLER SWAP2 PUSH32 0x2F8788117E7EFF1D82E926EC794901D17C78024A50270940304540A733656F0D DUP2 DUP1 LOG4 PUSH1 0x1 SWAP1 JUMP JUMPDEST POP SWAP1 JUMP INVALID PUSH2 0x260 PUSH1 0x40 MSTORE PUSH1 0x4 CALLDATASIZE LT ISZERO PUSH2 0x13 JUMPI PUSH1 0x0 DUP1 REVERT JUMPDEST PUSH1 0x0 DUP1 CALLDATALOAD PUSH1 0xE0 SHR DUP1 PUSH4 0x1D0D5B8 EQ PUSH2 0x44DD JUMPI DUP1 PUSH4 0x1FFC9A7 EQ PUSH2 0x4486 JUMPI DUP1 PUSH4 0x20E3DBD4 EQ PUSH2 0x443C JUMPI DUP1 PUSH4 0x248A9CA3 EQ PUSH2 0x4410 JUMPI DUP1 PUSH4 0x2A58B330 EQ PUSH2 0x43F2 JUMPI DUP1 PUSH4 0x2F2FF15D EQ PUSH2 0x43B5 JUMPI DUP1 PUSH4 0x2F48AB7D EQ PUSH2 0x438C JUMPI DUP1 PUSH4 0x3280890B EQ PUSH2 0x4079 JUMPI DUP1 PUSH4 0x36568ABE EQ PUSH2 0x4031 JUMPI DUP1 PUSH4 0x3F4BA83A EQ PUSH2 0x3FC6 JUMPI DUP1 PUSH4 0x42DD6D3E EQ PUSH2 0x3E72 JUMPI DUP1 PUSH4 0x4500CB60 EQ PUSH2 0x3E2A JUMPI DUP1 PUSH4 0x45CB4505 EQ PUSH2 0x3DD4 JUMPI DUP1 PUSH4 0x46F8226C EQ PUSH2 0x3C00 JUMPI DUP1 PUSH4 0x4EFEF6AA EQ PUSH2 0x3BE2 JUMPI DUP1 PUSH4 0x5C975ABB EQ PUSH2 0x3BBF JUMPI DUP1 PUSH4 0x5D7FFE7B EQ PUSH2 0x36DE JUMPI DUP1 PUSH4 0x67AC0BF0 EQ PUSH2 0x3398 JUMPI DUP1 PUSH4 0x6AF58CFF EQ PUSH2 0x310A JUMPI DUP1 PUSH4 0x6CA14389 EQ PUSH2 0x2FDE JUMPI DUP1 PUSH4 0x6DBE7579 EQ PUSH2 0x2F16 JUMPI DUP1 PUSH4 0x7203A582 EQ PUSH2 0x294C JUMPI DUP1 PUSH4 0x77E9BAD9 EQ PUSH2 0x27AF JUMPI DUP1 PUSH4 0x79502C55 EQ PUSH2 0x2782 JUMPI DUP1 PUSH4 0x7D900421 EQ PUSH2 0x26F5 JUMPI DUP1 PUSH4 0x8456CB59 EQ PUSH2 0x269A JUMPI DUP1 PUSH4 0x8A4ADF24 EQ PUSH2 0x2671 JUMPI DUP1 PUSH4 0x8DF82800 EQ PUSH2 0x2102 JUMPI DUP1 PUSH4 0x91D14854 EQ PUSH2 0x20B7 JUMPI DUP1 PUSH4 0x979B4E6D EQ PUSH2 0x17EB JUMPI DUP1 PUSH4 0xA217FDDF EQ PUSH2 0x17CF JUMPI DUP1 PUSH4 0xA45F2EBC EQ PUSH2 0x175C JUMPI DUP1 PUSH4 0xA61CF0D4 EQ PUSH2 0x16C9 JUMPI DUP1 PUSH4 0xA85C38EF EQ PUSH2 0x135E JUMPI DUP1 PUSH4 0xB543503E EQ PUSH2 0x1319 JUMPI DUP1 PUSH4 0xBC0EF26B EQ PUSH2 0x1155 JUMPI DUP1 PUSH4 0xCF3FEC43 EQ PUSH2 0x10C8 JUMPI DUP1 PUSH4 0xD049BFEF EQ PUSH2 0xE63 JUMPI DUP1 PUSH4 0xD09EF241 EQ PUSH2 0x928 JUMPI DUP1 PUSH4 0xD1E745B1 EQ PUSH2 0x739 JUMPI DUP1 PUSH4 0xD41194B8 EQ PUSH2 0x5BB JUMPI DUP1 PUSH4 0xD547741F EQ PUSH2 0x57A JUMPI DUP1 PUSH4 0xE02E34F8 EQ PUSH2 0x33C JUMPI DUP1 PUSH4 0xE4CBAC40 EQ PUSH2 0x2B9 JUMPI PUSH4 0xF7FF6426 EQ PUSH2 0x20D JUMPI PUSH1 0x0 DUP1 REVERT JUMPDEST CALLVALUE PUSH2 0x2B6 JUMPI PUSH2 0x21B CALLDATASIZE PUSH2 0x4D38 JUMP JUMPDEST SWAP1 DUP3 MSTORE PUSH1 0x8 PUSH1 0x20 MSTORE PUSH1 0x40 DUP3 KECCAK256 DUP1 SLOAD DUP3 LT ISZERO PUSH2 0x2B2 JUMPI PUSH2 0x23A SWAP3 POP PUSH2 0x500F JUMP JUMPDEST POP DUP1 SLOAD SWAP1 PUSH2 0x2AE PUSH1 0x1 DUP3 ADD SLOAD PUSH1 0x2 DUP4 ADD SLOAD SWAP3 PUSH1 0x3 DUP2 ADD SLOAD SWAP5 PUSH1 0x4 DUP3 ADD SLOAD SWAP3 PUSH1 0x5 DUP4 ADD SLOAD SWAP2 PUSH1 0x6 DUP5 ADD SLOAD SWAP1 PUSH1 0x7 DUP6 ADD SLOAD SWAP2 PUSH1 0x8 DUP7 ADD SLOAD SWAP5 PUSH1 0xFF PUSH1 0xA PUSH1 0x9 DUP10 ADD SLOAD SWAP9 ADD SLOAD AND SWAP8 PUSH1 0x40 MLOAD SWAP12 DUP13 SWAP12 DUP13 PUSH1 0xFF DUP9 PUSH1 0x10 SHR AND SWAP9 PUSH1 0xFF DUP1 DUP11 PUSH1 0x8 SHR AND SWAP10 AND SWAP8 PUSH1 0xFF DUP5 PUSH1 0xA0 SHR AND SWAP4 PUSH1 0x1 DUP1 PUSH1 0xA0 SHL SUB AND SWAP3 PUSH2 0x4DCE JUMP JUMPDEST SUB SWAP1 RETURN JUMPDEST DUP3 DUP1 REVERT JUMPDEST DUP1 REVERT JUMPDEST POP CALLVALUE PUSH2 0x2B6 JUMPI PUSH1 0x20 DUP1 PUSH1 0x3 NOT CALLDATASIZE ADD SLT PUSH2 0x338 JUMPI PUSH1 0x1 PUSH1 0x1 PUSH1 0xA0 SHL SUB PUSH2 0x2DC PUSH2 0x4D0C JUMP JUMPDEST AND DUP3 MSTORE PUSH1 0xB DUP2 MSTORE PUSH1 0x40 DUP3 KECCAK256 SWAP2 PUSH1 0x40 MLOAD DUP1 SWAP3 DUP1 DUP6 SLOAD SWAP3 DUP4 DUP2 MSTORE ADD SWAP5 DUP4 MSTORE DUP1 DUP4 KECCAK256 SWAP3 SWAP1 JUMPDEST DUP3 DUP3 LT PUSH2 0x321 JUMPI PUSH2 0x2AE DUP6 PUSH2 0x315 DUP2 DUP10 SUB DUP3 PUSH2 0x4EF3 JUMP JUMPDEST PUSH1 0x40 MLOAD SWAP2 DUP3 SWAP2 DUP3 PUSH2 0x4D7C JUMP JUMPDEST DUP4 SLOAD DUP7 MSTORE SWAP5 DUP6 ADD SWAP5 PUSH1 0x1 SWAP4 DUP5 ADD SWAP4 SWAP1 SWAP2 ADD SWAP1 PUSH2 0x2FE JUMP JUMPDEST POP DUP1 REVERT JUMPDEST POP CALLVALUE PUSH2 0x2B6 JUMPI PUSH2 0x34B CALLDATASIZE PUSH2 0x4D38 JUMP JUMPDEST DUP2 ISZERO ISZERO DUP1 PUSH2 0x56F JUMPI JUMPDEST PUSH2 0x35D SWAP1 PUSH2 0x551D JUMP JUMPDEST PUSH2 0x365 PUSH2 0x502B JUMP JUMPDEST DUP2 DUP4 MSTORE PUSH1 0x20 PUSH1 0x7 DUP2 MSTORE PUSH1 0x40 DUP5 KECCAK256 SWAP2 PUSH1 0x14 DUP4 ADD SWAP3 DUP4 SLOAD SWAP4 PUSH1 0xFF DUP6 PUSH1 0x10 SHR AND SWAP5 PUSH1 0xB DUP7 LT ISZERO PUSH2 0x55B JUMPI PUSH1 0x2 DUP7 SUB PUSH2 0x516 JUMPI PUSH3 0x40000 SWAP1 PUSH2 0x3A4 DUP6 ISZERO ISZERO PUSH2 0x5779 JUMP JUMPDEST PUSH3 0xFF0000 NOT AND OR SWAP1 SSTORE PUSH2 0x3C0 PUSH8 0xDE0B6B3A7640000 DUP4 DIV PUSH2 0x57E0 JUMP JUMPDEST DUP1 MLOAD PUSH1 0x7 DUP4 ADD SWAP2 PUSH1 0x1 PUSH1 0x1 PUSH1 0x40 SHL SUB DUP3 GT PUSH2 0x502 JUMPI PUSH2 0x3E9 DUP3 PUSH2 0x3E3 DUP6 SLOAD PUSH2 0x4E58 JUMP JUMPDEST DUP6 PUSH2 0x52C1 JUMP JUMPDEST DUP6 SWAP1 DUP10 PUSH1 0x1F DUP5 GT PUSH1 0x1 EQ PUSH2 0x485 JUMPI SWAP4 DUP4 PUSH1 0x0 DUP1 MLOAD PUSH1 0x20 PUSH2 0x58B1 DUP4 CODECOPY DUP2 MLOAD SWAP2 MSTORE SWAP10 SWAP8 SWAP5 PUSH1 0x18 SWAP5 PUSH1 0x4 SWAP9 SWAP5 PUSH1 0xC0 SWAP12 SWAP9 SWAP3 PUSH2 0x47A JUMPI JUMPDEST POP POP DUP2 PUSH1 0x1 SHL SWAP2 PUSH1 0x0 NOT SWAP1 PUSH1 0x3 SHL SHR NOT AND OR SWAP1 SSTORE JUMPDEST ADD SSTORE PUSH2 0x440 PUSH1 0x40 MLOAD DUP1 SWAP5 PUSH2 0x5002 JUMP JUMPDEST DUP3 ADD MSTORE PUSH1 0x80 PUSH1 0x40 DUP3 ADD MSTORE PUSH1 0x16 PUSH1 0x80 DUP3 ADD MSTORE PUSH22 0x1A5B9A5D1A585B08199959590818DBDB5C1B195D1959 PUSH1 0x52 SHL PUSH1 0xA0 DUP3 ADD MSTORE TIMESTAMP PUSH1 0x60 DUP3 ADD MSTORE LOG2 DUP1 RETURN JUMPDEST ADD MLOAD SWAP1 POP CODESIZE DUP1 PUSH2 0x41C JUMP JUMPDEST POP DUP4 DUP11 MSTORE DUP7 DUP11 KECCAK256 SWAP2 SWAP1 PUSH1 0x1F NOT DUP5 AND DUP12 JUMPDEST DUP2 DUP2 LT PUSH2 0x4EB JUMPI POP DUP5 PUSH1 0x18 SWAP5 PUSH1 0x4 SWAP9 SWAP5 PUSH1 0xC0 SWAP12 SWAP9 SWAP5 PUSH1 0x0 DUP1 MLOAD PUSH1 0x20 PUSH2 0x58B1 DUP4 CODECOPY DUP2 MLOAD SWAP2 MSTORE SWAP14 SWAP12 SWAP9 PUSH1 0x1 SWAP6 LT PUSH2 0x4D2 JUMPI JUMPDEST POP POP POP DUP2 SHL ADD SWAP1 SSTORE PUSH2 0x431 JUMP JUMPDEST ADD MLOAD PUSH1 0x0 NOT PUSH1 0xF8 DUP5 PUSH1 0x3 SHL AND SHR NOT AND SWAP1 SSTORE CODESIZE DUP1 DUP1 PUSH2 0x4C5 JUMP JUMPDEST SWAP3 SWAP4 DUP10 PUSH1 0x1 DUP2 SWAP3 DUP8 DUP7 ADD MLOAD DUP2 SSTORE ADD SWAP6 ADD SWAP4 ADD PUSH2 0x495 JUMP JUMPDEST PUSH4 0x4E487B71 PUSH1 0xE0 SHL DUP10 MSTORE PUSH1 0x41 PUSH1 0x4 MSTORE PUSH1 0x24 DUP10 REVERT JUMPDEST PUSH1 0x40 MLOAD PUSH3 0x461BCD PUSH1 0xE5 SHL DUP2 MSTORE PUSH1 0x4 DUP2 ADD DUP7 SWAP1 MSTORE PUSH1 0x1E PUSH1 0x24 DUP3 ADD MSTORE PUSH32 0x4F7074696F6E73436F72653A206F72646572206E6F74206D6174636865640000 PUSH1 0x44 DUP3 ADD MSTORE PUSH1 0x64 SWAP1 REVERT JUMPDEST PUSH4 0x4E487B71 PUSH1 0xE0 SHL DUP9 MSTORE PUSH1 0x21 PUSH1 0x4 MSTORE PUSH1 0x24 DUP9 REVERT JUMPDEST POP PUSH1 0x5 SLOAD DUP3 LT PUSH2 0x354 JUMP JUMPDEST POP CALLVALUE PUSH2 0x2B6 JUMPI PUSH1 0x40 CALLDATASIZE PUSH1 0x3 NOT ADD SLT PUSH2 0x2B6 JUMPI PUSH2 0x5B7 PUSH1 0x4 CALLDATALOAD PUSH2 0x59A PUSH2 0x4D22 JUMP JUMPDEST SWAP1 DUP1 DUP5 MSTORE DUP4 PUSH1 0x20 MSTORE PUSH2 0x5B2 PUSH1 0x1 PUSH1 0x40 DUP7 KECCAK256 ADD SLOAD PUSH2 0x5083 JUMP JUMPDEST PUSH2 0x5127 JUMP JUMPDEST POP DUP1 RETURN JUMPDEST POP CALLVALUE PUSH2 0x2B6 JUMPI PUSH2 0x5CA CALLDATASIZE PUSH2 0x4D38 JUMP JUMPDEST SWAP1 DUP1 ISZERO ISZERO DUP1 PUSH2 0x72E JUMPI JUMPDEST PUSH2 0x5DD SWAP1 PUSH2 0x551D JUMP JUMPDEST DUP1 DUP4 MSTORE PUSH1 0x7 PUSH1 0x20 MSTORE PUSH1 0x40 DUP4 KECCAK256 PUSH1 0x2 ADD SLOAD PUSH1 0x1 PUSH1 0x1 PUSH1 0xA0 SHL SUB SWAP3 SWAP1 PUSH2 0x604 SWAP1 DUP5 AND CALLER EQ PUSH2 0x5677 JUMP JUMPDEST PUSH2 0x60C PUSH2 0x5475 JUMP JUMPDEST PUSH2 0x614 PUSH2 0x5457 JUMP JUMPDEST DUP1 ISZERO PUSH2 0x6DD JUMPI DUP2 DUP5 MSTORE PUSH1 0x7 PUSH1 0x20 MSTORE PUSH1 0x40 DUP5 KECCAK256 PUSH1 0xFF PUSH1 0x14 DUP3 ADD SLOAD PUSH1 0x10 SHR AND PUSH1 0xB DUP2 LT ISZERO PUSH2 0x6C9 JUMPI PUSH2 0x66E SWAP2 PUSH2 0x64C PUSH1 0x4 PUSH1 0xF SWAP4 EQ PUSH2 0x56C3 JUMP JUMPDEST ADD SWAP2 PUSH2 0x667 DUP2 DUP5 SLOAD SWAP7 DUP1 PUSH1 0x4 SLOAD AND SWAP1 PUSH1 0x3 SLOAD AND SWAP1 CALLER SWAP1 PUSH2 0x53B0 JUMP JUMPDEST DUP3 SLOAD PUSH2 0x5510 JUMP JUMPDEST DUP1 SWAP2 SSTORE PUSH1 0x40 MLOAD SWAP3 DUP4 MSTORE PUSH1 0x20 DUP4 ADD MSTORE PUSH1 0x80 PUSH1 0x40 DUP4 ADD MSTORE PUSH1 0x3 PUSH1 0x80 DUP4 ADD MSTORE PUSH3 0x185919 PUSH1 0xEA SHL PUSH1 0xA0 DUP4 ADD MSTORE TIMESTAMP PUSH1 0x60 DUP4 ADD MSTORE PUSH32 0x2CF5022BDD8FEFE86D09412967E028FA9A8CF1E1A3989D47DFD9FC64A22AFA86 PUSH1 0xC0 CALLER SWAP4 LOG3 PUSH1 0x1 DUP1 SSTORE DUP1 RETURN JUMPDEST PUSH4 0x4E487B71 PUSH1 0xE0 SHL DUP7 MSTORE PUSH1 0x21 PUSH1 0x4 MSTORE PUSH1 0x24 DUP7 REVERT JUMPDEST PUSH1 0x40 MLOAD PUSH3 0x461BCD PUSH1 0xE5 SHL DUP2 MSTORE PUSH1 0x20 PUSH1 0x4 DUP3 ADD MSTORE PUSH1 0x24 DUP1 DUP3 ADD MSTORE PUSH32 0x4F7074696F6E73436F72653A20616D6F756E74206D75737420626520706F7369 PUSH1 0x44 DUP3 ADD MSTORE PUSH4 0x74697665 PUSH1 0xE0 SHL PUSH1 0x64 DUP3 ADD MSTORE PUSH1 0x84 SWAP1 REVERT JUMPDEST POP PUSH1 0x5 SLOAD DUP2 LT PUSH2 0x5D4 JUMP JUMPDEST POP CALLVALUE PUSH2 0x2B6 JUMPI PUSH2 0x748 CALLDATASIZE PUSH2 0x4D38 JUMP JUMPDEST SWAP1 DUP1 ISZERO ISZERO DUP1 PUSH2 0x91D JUMPI JUMPDEST PUSH2 0x75B SWAP1 PUSH2 0x551D JUMP JUMPDEST DUP1 DUP4 MSTORE PUSH1 0x7 PUSH1 0x20 MSTORE PUSH1 0x40 DUP4 KECCAK256 PUSH1 0x2 ADD SLOAD PUSH1 0x1 PUSH1 0x1 PUSH1 0xA0 SHL SUB SWAP1 PUSH2 0x781 SWAP1 DUP3 AND CALLER EQ PUSH2 0x5677 JUMP JUMPDEST PUSH2 0x789 PUSH2 0x5475 JUMP JUMPDEST PUSH2 0x791 PUSH2 0x5457 JUMP JUMPDEST DUP2 DUP5 MSTORE PUSH1 0x7 PUSH1 0x20 MSTORE PUSH1 0x40 DUP5 KECCAK256 SWAP3 PUSH1 0xFF PUSH1 0x14 DUP6 ADD SLOAD PUSH1 0x10 SHR AND PUSH1 0xB DUP2 LT ISZERO PUSH2 0x6C9 JUMPI PUSH1 0x4 PUSH2 0x7BE SWAP2 EQ PUSH2 0x56C3 JUMP JUMPDEST PUSH1 0xF DUP5 ADD SWAP2 PUSH2 0x7D3 PUSH1 0xE DUP5 SLOAD SWAP7 ADD SLOAD DUP7 PUSH2 0x570F JUMP JUMPDEST DUP3 GT PUSH2 0x8BE JUMPI DUP2 PUSH2 0x7E5 DUP8 SWAP4 DUP8 PUSH2 0x570F JUMP JUMPDEST DUP5 SSTORE DUP2 PUSH1 0x3 SLOAD AND SWAP2 PUSH1 0x4 SLOAD AND SWAP1 DUP3 EXTCODESIZE ISZERO PUSH2 0x8AF JUMPI PUSH1 0x40 MLOAD PUSH4 0x6924FAA7 PUSH1 0xE1 SHL DUP2 MSTORE CALLER PUSH1 0x4 DUP3 ADD MSTORE PUSH1 0x1 PUSH1 0x1 PUSH1 0xA0 SHL SUB SWAP3 SWAP1 SWAP3 AND PUSH1 0x24 DUP4 ADD MSTORE PUSH1 0x44 DUP3 ADD MSTORE SWAP1 DUP3 SWAP1 DUP3 SWAP1 PUSH1 0x64 SWAP1 DUP3 SWAP1 DUP5 SWAP1 GAS CALL DUP1 ISZERO PUSH2 0x8B3 JUMPI PUSH2 0x89B JUMPI JUMPDEST POP POP SLOAD PUSH1 0x40 MLOAD SWAP3 DUP4 MSTORE PUSH1 0x20 DUP4 ADD MSTORE PUSH1 0x80 PUSH1 0x40 DUP4 ADD MSTORE PUSH1 0x8 PUSH1 0x80 DUP4 ADD MSTORE PUSH8 0x7769746864726177 PUSH1 0xC0 SHL PUSH1 0xA0 DUP4 ADD MSTORE TIMESTAMP PUSH1 0x60 DUP4 ADD MSTORE PUSH32 0x2CF5022BDD8FEFE86D09412967E028FA9A8CF1E1A3989D47DFD9FC64A22AFA86 PUSH1 0xC0 CALLER SWAP4 LOG3 PUSH1 0x1 DUP1 SSTORE DUP1 RETURN JUMPDEST PUSH2 0x8A4 SWAP1 PUSH2 0x4E92 JUMP JUMPDEST PUSH2 0x8AF JUMPI DUP4 CODESIZE PUSH2 0x83B JUMP JUMPDEST DUP4 DUP1 REVERT JUMPDEST PUSH1 0x40 MLOAD RETURNDATASIZE DUP5 DUP3 RETURNDATACOPY RETURNDATASIZE SWAP1 REVERT JUMPDEST PUSH1 0x40 MLOAD PUSH3 0x461BCD PUSH1 0xE5 SHL DUP2 MSTORE PUSH1 0x20 PUSH1 0x4 DUP3 ADD MSTORE PUSH1 0x31 PUSH1 0x24 DUP3 ADD MSTORE PUSH32 0x4F7074696F6E73436F72653A2063616E6E6F742077697468647261772062656C PUSH1 0x44 DUP3 ADD MSTORE PUSH17 0x37BB9034B734BA34B0B61036B0B933B4B7 PUSH1 0x79 SHL PUSH1 0x64 DUP3 ADD MSTORE PUSH1 0x84 SWAP1 REVERT JUMPDEST POP PUSH1 0x5 SLOAD DUP2 LT PUSH2 0x752 JUMP JUMPDEST POP CALLVALUE PUSH2 0x2B6 JUMPI PUSH1 0x20 CALLDATASIZE PUSH1 0x3 NOT ADD SLT PUSH2 0x2B6 JUMPI DUP1 PUSH2 0x400 PUSH1 0x40 MLOAD PUSH2 0x94A DUP2 PUSH2 0x4ED7 JUMP JUMPDEST DUP3 DUP2 MSTORE DUP3 PUSH1 0x20 DUP3 ADD MSTORE DUP3 PUSH1 0x40 DUP3 ADD MSTORE PUSH1 0x60 DUP1 DUP3 ADD MSTORE PUSH1 0x60 PUSH1 0x80 DUP3 ADD MSTORE PUSH1 0x60 PUSH1 0xA0 DUP3 ADD MSTORE PUSH1 0x60 PUSH1 0xC0 DUP3 ADD MSTORE PUSH1 0x60 PUSH1 0xE0 DUP3 ADD MSTORE DUP3 PUSH2 0x100 DUP3 ADD MSTORE DUP3 PUSH2 0x120 DUP3 ADD MSTORE DUP3 PUSH2 0x140 DUP3 ADD MSTORE DUP3 PUSH2 0x160 DUP3 ADD MSTORE DUP3 PUSH2 0x180 DUP3 ADD MSTORE DUP3 PUSH2 0x1A0 DUP3 ADD MSTORE DUP3 PUSH2 0x1C0 DUP3 ADD MSTORE DUP3 PUSH2 0x1E0 DUP3 ADD MSTORE DUP3 PUSH2 0x200 DUP3 ADD MSTORE DUP3 PUSH2 0x220 DUP3 ADD MSTORE DUP3 PUSH2 0x240 DUP3 ADD MSTORE DUP3 PUSH2 0x260 DUP3 ADD MSTORE DUP3 PUSH2 0x280 DUP3 ADD MSTORE DUP3 PUSH2 0x2A0 DUP3 ADD MSTORE DUP3 PUSH2 0x2C0 DUP3 ADD MSTORE DUP3 PUSH2 0x2E0 DUP3 ADD MSTORE DUP3 PUSH2 0x300 DUP3 ADD MSTORE DUP3 PUSH2 0x320 DUP3 ADD MSTORE DUP3 PUSH2 0x340 DUP3 ADD MSTORE DUP3 PUSH2 0x360 DUP3 ADD MSTORE DUP3 PUSH2 0x380 DUP3 ADD MSTORE DUP3 PUSH2 0x3A0 DUP3 ADD MSTORE DUP3 PUSH2 0x3C0 DUP3 ADD MSTORE DUP3 PUSH2 0x3E0 DUP3 ADD MSTORE ADD MSTORE PUSH1 0x4 CALLDATALOAD DUP2 MSTORE PUSH1 0x7 PUSH1 0x20 MSTORE PUSH1 0x40 DUP2 KECCAK256 PUSH1 0x40 MLOAD SWAP2 PUSH2 0xA40 DUP4 PUSH2 0x4ED7 JUMP JUMPDEST DUP2 SLOAD DUP4 MSTORE PUSH1 0x1 DUP3 ADD SLOAD PUSH1 0x1 PUSH1 0x1 PUSH1 0xA0 SHL SUB SWAP1 DUP2 AND PUSH1 0x20 DUP6 ADD MSTORE PUSH1 0x2 DUP4 ADD SLOAD AND PUSH1 0x40 DUP5 ADD MSTORE PUSH2 0xA70 PUSH1 0x3 DUP4 ADD PUSH2 0x4F14 JUMP JUMPDEST PUSH1 0x60 DUP5 ADD MSTORE PUSH2 0xA81 PUSH1 0x4 DUP4 ADD PUSH2 0x4F14 JUMP JUMPDEST PUSH1 0x80 DUP5 ADD MSTORE PUSH2 0xA92 PUSH1 0x5 DUP4 ADD PUSH2 0x4F14 JUMP JUMPDEST PUSH1 0xA0 DUP5 ADD MSTORE PUSH2 0xAA3 PUSH1 0x6 DUP4 ADD PUSH2 0x4F14 JUMP JUMPDEST PUSH1 0xC0 DUP5 ADD MSTORE PUSH2 0xAB4 PUSH1 0x7 DUP4 ADD PUSH2 0x4F14 JUMP JUMPDEST PUSH1 0xE0 DUP5 ADD MSTORE PUSH1 0xFF PUSH1 0x8 DUP4 ADD SLOAD AND PUSH2 0xACA DUP2 PUSH2 0x4FF8 JUMP JUMPDEST PUSH2 0x100 DUP5 ADD MSTORE PUSH1 0x9 DUP3 ADD SLOAD PUSH2 0x120 DUP5 ADD MSTORE PUSH1 0xA DUP3 ADD SLOAD PUSH2 0x140 DUP5 ADD MSTORE PUSH1 0xB DUP3 ADD SLOAD PUSH2 0x160 DUP5 ADD MSTORE PUSH1 0xC DUP3 ADD SLOAD PUSH2 0x180 DUP5 ADD MSTORE PUSH1 0xD DUP3 ADD SLOAD PUSH2 0x1A0 DUP5 ADD MSTORE PUSH1 0xE DUP3 ADD SLOAD PUSH2 0x1C0 DUP5 ADD MSTORE PUSH1 0xF DUP3 ADD SLOAD PUSH2 0x1E0 DUP5 ADD MSTORE PUSH1 0x10 DUP3 ADD SLOAD PUSH2 0x200 DUP5 ADD MSTORE PUSH1 0x11 DUP3 ADD SLOAD PUSH2 0xB39 PUSH1 0xFF DUP3 AND PUSH2 0x4DB7 JUMP JUMPDEST PUSH1 0xFF DUP2 AND PUSH2 0x220 DUP6 ADD MSTORE PUSH1 0xFF DUP2 PUSH1 0x8 SHR AND PUSH2 0x240 DUP6 ADD MSTORE PUSH1 0xFF DUP2 PUSH1 0x10 SHR AND PUSH2 0x260 DUP6 ADD MSTORE PUSH1 0xFF DUP2 PUSH1 0x18 SHR AND PUSH2 0x280 DUP6 ADD MSTORE PUSH2 0xB79 PUSH1 0xFF DUP3 PUSH1 0x20 SHR AND PUSH2 0x4DB7 JUMP JUMPDEST PUSH1 0xFF DUP2 PUSH1 0x20 SHR AND PUSH2 0x2A0 DUP6 ADD MSTORE PUSH1 0x1 DUP1 PUSH1 0xA0 SHL SUB SWAP1 PUSH1 0x28 SHR AND PUSH2 0x2C0 DUP5 ADD MSTORE PUSH1 0x12 DUP3 ADD SLOAD PUSH2 0x2E0 DUP5 ADD MSTORE PUSH1 0x13 DUP3 ADD SLOAD PUSH2 0x300 DUP5 ADD MSTORE PUSH1 0x14 DUP3 ADD SLOAD SWAP1 PUSH1 0xFF DUP3 AND ISZERO ISZERO PUSH2 0x320 DUP6 ADD MSTORE PUSH2 0xBCF PUSH1 0xFF DUP4 PUSH1 0x8 SHR AND PUSH2 0x4FF8 JUMP JUMPDEST PUSH1 0xFF DUP3 PUSH1 0x8 SHR AND PUSH2 0x340 DUP6 ADD MSTORE PUSH1 0xB PUSH1 0xFF DUP4 PUSH1 0x10 SHR AND LT ISZERO PUSH2 0xE4F JUMPI POP SWAP1 PUSH1 0xFF PUSH1 0x19 SWAP3 PUSH1 0x10 SHR AND PUSH2 0x360 DUP5 ADD MSTORE PUSH1 0x15 DUP2 ADD SLOAD PUSH2 0x380 DUP5 ADD MSTORE PUSH1 0x16 DUP2 ADD SLOAD PUSH2 0x3A0 DUP5 ADD MSTORE PUSH1 0x17 DUP2 ADD SLOAD PUSH2 0x3C0 DUP5 ADD MSTORE PUSH1 0x18 DUP2 ADD SLOAD PUSH2 0x3E0 DUP5 ADD MSTORE ADD SLOAD PUSH2 0x400 DUP3 ADD MSTORE PUSH1 0x40 MLOAD DUP1 SWAP2 PUSH1 0x20 DUP3 MSTORE DUP1 MLOAD PUSH1 0x20 DUP4 ADD MSTORE PUSH1 0x1 DUP1 PUSH1 0xA0 SHL SUB PUSH1 0x20 DUP3 ADD MLOAD AND PUSH1 0x40 DUP4 ADD MSTORE PUSH1 0x1 DUP1 PUSH1 0xA0 SHL SUB PUSH1 0x40 DUP3 ADD MLOAD AND PUSH1 0x60 DUP4 ADD MSTORE PUSH2 0x400 PUSH2 0xCE5 PUSH2 0xC85 PUSH1 0x60 DUP5 ADD MLOAD PUSH2 0x420 PUSH1 0x80 DUP8 ADD MSTORE PUSH2 0x440 DUP7 ADD SWAP1 PUSH2 0x4FB8 JUMP JUMPDEST PUSH2 0xCCF PUSH2 0xCBB PUSH2 0xCA7 PUSH1 0x80 DUP8 ADD MLOAD SWAP4 PUSH1 0x1F NOT SWAP5 DUP6 DUP11 DUP4 SUB ADD PUSH1 0xA0 DUP12 ADD MSTORE PUSH2 0x4FB8 JUMP JUMPDEST PUSH1 0xA0 DUP8 ADD MLOAD DUP5 DUP10 DUP4 SUB ADD PUSH1 0xC0 DUP11 ADD MSTORE PUSH2 0x4FB8 JUMP JUMPDEST PUSH1 0xC0 DUP7 ADD MLOAD DUP4 DUP9 DUP4 SUB ADD PUSH1 0xE0 DUP10 ADD MSTORE PUSH2 0x4FB8 JUMP JUMPDEST SWAP1 PUSH1 0xE0 DUP6 ADD MLOAD SWAP1 DUP7 DUP4 SUB ADD PUSH2 0x100 DUP8 ADD MSTORE PUSH2 0x4FB8 JUMP JUMPDEST SWAP2 PUSH2 0x100 DUP2 ADD MLOAD PUSH2 0xCF5 DUP2 PUSH2 0x4FF8 JUMP JUMPDEST PUSH2 0x120 DUP6 ADD MSTORE PUSH2 0x120 DUP2 ADD MLOAD PUSH2 0x140 DUP6 ADD MSTORE PUSH2 0x140 DUP2 ADD MLOAD PUSH2 0x160 DUP6 ADD MSTORE PUSH2 0x160 DUP2 ADD MLOAD PUSH2 0x180 DUP6 ADD MSTORE PUSH2 0x180 DUP2 ADD MLOAD PUSH2 0x1A0 DUP6 ADD MSTORE PUSH2 0x1A0 DUP2 ADD MLOAD PUSH2 0x1C0 DUP6 ADD MSTORE PUSH2 0x1C0 DUP2 ADD MLOAD PUSH2 0x1E0 DUP6 ADD MSTORE PUSH2 0x1E0 DUP2 ADD MLOAD PUSH2 0x200 DUP6 ADD MSTORE PUSH2 0x200 DUP2 ADD MLOAD PUSH2 0x220 DUP6 ADD MSTORE PUSH2 0x220 DUP2 ADD MLOAD PUSH2 0xD6A DUP2 PUSH2 0x4DB7 JUMP JUMPDEST PUSH2 0x240 DUP6 ADD MSTORE PUSH1 0xFF PUSH2 0x240 DUP3 ADD MLOAD AND PUSH2 0x260 DUP6 ADD MSTORE PUSH1 0xFF PUSH2 0x260 DUP3 ADD MLOAD AND PUSH2 0x280 DUP6 ADD MSTORE PUSH1 0xFF PUSH2 0x280 DUP3 ADD MLOAD AND PUSH2 0x2A0 DUP6 ADD MSTORE PUSH2 0x2A0 DUP2 ADD MLOAD PUSH2 0xDAC DUP2 PUSH2 0x4DB7 JUMP JUMPDEST PUSH2 0x2C0 DUP6 ADD MSTORE PUSH1 0x1 DUP1 PUSH1 0xA0 SHL SUB PUSH2 0x2C0 DUP3 ADD MLOAD AND PUSH2 0x2E0 DUP6 ADD MSTORE PUSH2 0x2E0 DUP2 ADD MLOAD PUSH2 0x300 DUP6 ADD MSTORE PUSH2 0x300 DUP2 ADD MLOAD PUSH2 0x320 DUP6 ADD MSTORE PUSH2 0x320 DUP2 ADD MLOAD ISZERO ISZERO PUSH2 0x340 DUP6 ADD MSTORE PUSH2 0x340 DUP2 ADD MLOAD PUSH2 0xDFB DUP2 PUSH2 0x4FF8 JUMP JUMPDEST PUSH2 0x360 DUP6 ADD MSTORE PUSH2 0xE15 PUSH2 0x360 DUP3 ADD MLOAD PUSH2 0x380 DUP7 ADD SWAP1 PUSH2 0x5002 JUMP JUMPDEST PUSH2 0x380 DUP2 ADD MLOAD PUSH2 0x3A0 DUP6 ADD MSTORE PUSH2 0x3A0 DUP2 ADD MLOAD PUSH2 0x3C0 DUP6 ADD MSTORE PUSH2 0x3C0 DUP2 ADD MLOAD PUSH2 0x3E0 DUP6 ADD MSTORE PUSH2 0x3E0 DUP2 ADD MLOAD DUP3 DUP6 ADD MSTORE ADD MLOAD PUSH2 0x420 DUP4 ADD MSTORE SUB SWAP1 RETURN JUMPDEST PUSH4 0x4E487B71 PUSH1 0xE0 SHL DUP2 MSTORE PUSH1 0x21 PUSH1 0x4 MSTORE PUSH1 0x24 SWAP1 REVERT JUMPDEST POP CALLVALUE PUSH2 0x2B6 JUMPI PUSH1 0x20 SWAP1 DUP2 PUSH1 0x3 NOT CALLDATASIZE ADD SLT PUSH2 0x2B6 JUMPI PUSH1 0x4 CALLDATALOAD DUP2 MSTORE PUSH1 0x8 DUP1 DUP4 MSTORE PUSH1 0x40 DUP3 KECCAK256 SWAP3 DUP4 SLOAD SWAP2 PUSH1 0x1 PUSH1 0x1 PUSH1 0x40 SHL SUB DUP4 GT PUSH2 0x10B4 JUMPI SWAP2 DUP5 SWAP2 SWAP3 PUSH1 0x40 MLOAD SWAP2 PUSH1 0x5 PUSH2 0xEAF DUP7 DUP4 DUP4 SHL ADD DUP6 PUSH2 0x4EF3 JUMP JUMPDEST DUP2 DUP5 MSTORE DUP6 DUP5 ADD DUP1 SWAP6 DUP9 MSTORE DUP7 DUP9 KECCAK256 SWAP2 DUP9 SWAP2 JUMPDEST DUP5 DUP4 LT PUSH2 0xFBC JUMPI POP POP POP POP POP POP PUSH1 0x40 MLOAD SWAP3 DUP1 DUP5 ADD SWAP2 DUP2 DUP6 MSTORE MLOAD DUP1 SWAP3 MSTORE PUSH1 0x40 DUP5 ADD SWAP3 SWAP5 JUMPDEST DUP3 DUP2 LT PUSH2 0xEF0 JUMPI DUP5 DUP5 SUB DUP6 RETURN JUMPDEST SWAP1 SWAP2 SWAP3 DUP3 PUSH2 0x1C0 PUSH1 0x1 SWAP3 PUSH2 0xFAD DUP10 MLOAD DUP1 MLOAD DUP4 MSTORE DUP5 DUP2 ADD MLOAD DUP6 DUP5 ADD MSTORE DUP6 DUP1 PUSH1 0xA0 SHL SUB PUSH1 0x40 DUP3 ADD MLOAD AND PUSH1 0x40 DUP5 ADD MSTORE PUSH1 0x60 DUP1 DUP3 ADD MLOAD SWAP1 PUSH2 0xF2C DUP3 PUSH2 0x4DB7 JUMP JUMPDEST DUP5 ADD MSTORE PUSH1 0x80 DUP1 DUP3 ADD MLOAD SWAP1 DUP5 ADD MSTORE PUSH1 0xA0 DUP1 DUP3 ADD MLOAD SWAP1 DUP5 ADD MSTORE PUSH1 0xC0 DUP1 DUP3 ADD MLOAD SWAP1 DUP5 ADD MSTORE PUSH1 0xE0 DUP2 ADD MLOAD PUSH1 0xE0 DUP5 ADD MSTORE PUSH2 0x100 DUP1 DUP3 ADD MLOAD SWAP1 PUSH2 0xF68 DUP3 PUSH2 0x4DB7 JUMP JUMPDEST DUP5 ADD MSTORE PUSH1 0xFF PUSH2 0x120 DUP2 DUP2 DUP5 ADD MLOAD AND SWAP1 DUP6 ADD MSTORE PUSH2 0x140 SWAP1 DUP2 DUP4 ADD MLOAD AND SWAP1 DUP5 ADD MSTORE PUSH2 0x160 DUP1 DUP3 ADD MLOAD SWAP1 DUP5 ADD MSTORE PUSH2 0x180 DUP1 DUP3 ADD MLOAD SWAP1 DUP5 ADD MSTORE PUSH2 0x1A0 DUP1 SWAP2 ADD MLOAD SWAP1 DUP4 ADD SWAP1 PUSH2 0x4DC1 JUMP JUMPDEST ADD SWAP7 ADD SWAP2 ADD SWAP5 SWAP3 SWAP2 SWAP1 SWAP5 PUSH2 0xEE3 JUMP JUMPDEST PUSH1 0x40 SWAP10 SWAP9 SWAP7 SWAP8 SWAP10 MLOAD PUSH2 0xFCD DUP2 PUSH2 0x4EBB JUMP JUMPDEST DUP5 SLOAD DUP2 MSTORE PUSH1 0x1 DUP6 ADD SLOAD DUP9 DUP3 ADD MSTORE PUSH1 0x2 DUP6 ADD SLOAD PUSH1 0x1 PUSH1 0x1 PUSH1 0xA0 SHL SUB DUP2 AND PUSH1 0x40 DUP4 ADD MSTORE PUSH1 0xFF SWAP1 PUSH1 0xA0 SWAP1 DUP2 SHR DUP3 AND PUSH2 0x1001 DUP2 PUSH2 0x4DB7 JUMP JUMPDEST PUSH1 0x60 DUP5 ADD MSTORE PUSH1 0x3 DUP8 ADD SLOAD PUSH1 0x80 DUP5 ADD MSTORE PUSH1 0x4 DUP8 ADD SLOAD SWAP1 DUP4 ADD MSTORE DUP4 DUP7 ADD SLOAD PUSH1 0xC0 DUP4 ADD MSTORE PUSH1 0x6 DUP7 ADD SLOAD PUSH1 0xE0 DUP4 ADD MSTORE DUP1 PUSH1 0x7 DUP8 ADD SLOAD DUP2 DUP2 AND PUSH2 0x103E DUP2 PUSH2 0x4DB7 JUMP JUMPDEST PUSH2 0x100 DUP6 ADD MSTORE DUP2 DUP2 DUP12 SHR AND PUSH2 0x120 DUP6 ADD MSTORE PUSH1 0x10 SHR AND PUSH2 0x140 DUP4 ADD MSTORE DUP8 DUP7 ADD SLOAD PUSH2 0x160 DUP4 ADD MSTORE PUSH1 0x9 DUP7 ADD SLOAD PUSH2 0x180 DUP4 ADD MSTORE PUSH1 0xA DUP7 ADD SLOAD AND PUSH1 0x4 DUP2 LT ISZERO PUSH2 0x109E JUMPI PUSH1 0x1 SWAP3 DUP3 DUP11 SWAP3 PUSH2 0x1A0 PUSH1 0xB SWAP6 ADD MSTORE DUP2 MSTORE ADD SWAP5 ADD SWAP3 ADD SWAP2 SWAP3 SWAP9 SWAP7 SWAP6 SWAP8 SWAP9 PUSH2 0xEC0 JUMP JUMPDEST PUSH4 0x4E487B71 PUSH1 0xE0 SHL PUSH1 0x0 MSTORE PUSH1 0x21 PUSH1 0x4 MSTORE PUSH1 0x24 PUSH1 0x0 REVERT JUMPDEST PUSH4 0x4E487B71 PUSH1 0xE0 SHL DUP5 MSTORE PUSH1 0x41 PUSH1 0x4 MSTORE PUSH1 0x24 DUP5 REVERT JUMPDEST POP CALLVALUE PUSH2 0x2B6 JUMPI PUSH1 0x20 DUP1 PUSH1 0x3 NOT CALLDATASIZE ADD SLT PUSH2 0x338 JUMPI PUSH1 0x4 CALLDATALOAD PUSH1 0x1 PUSH1 0x1 PUSH1 0x40 SHL SUB DUP2 GT PUSH2 0x2B2 JUMPI PUSH2 0x10FB DUP3 SWAP2 CALLDATASIZE SWAP1 PUSH1 0x4 ADD PUSH2 0x4CCF JUMP JUMPDEST SWAP2 SWAP1 DUP3 PUSH1 0x40 MLOAD SWAP4 DUP5 SWAP3 DUP4 CALLDATACOPY DUP2 ADD PUSH1 0xC DUP2 MSTORE SUB ADD SWAP1 KECCAK256 SWAP2 PUSH1 0x40 MLOAD DUP1 SWAP3 DUP1 DUP6 SLOAD SWAP3 DUP4 DUP2 MSTORE ADD SWAP5 DUP4 MSTORE DUP1 DUP4 KECCAK256 SWAP3 SWAP1 JUMPDEST DUP3 DUP3 LT PUSH2 0x113E JUMPI PUSH2 0x2AE DUP6 PUSH2 0x315 DUP2 DUP10 SUB DUP3 PUSH2 0x4EF3 JUMP JUMPDEST DUP4 SLOAD DUP7 MSTORE SWAP5 DUP6 ADD SWAP5 PUSH1 0x1 SWAP4 DUP5 ADD SWAP4 SWAP1 SWAP2 ADD SWAP1 PUSH2 0x1127 JUMP JUMPDEST POP CALLVALUE PUSH2 0x2B6 JUMPI PUSH1 0x20 DUP1 PUSH1 0x3 NOT CALLDATASIZE ADD SLT PUSH2 0x338 JUMPI PUSH1 0x4 CALLDATALOAD SWAP1 DUP2 ISZERO ISZERO DUP1 PUSH2 0x130E JUMPI JUMPDEST PUSH2 0x117E SWAP1 PUSH2 0x551D JUMP JUMPDEST DUP2 DUP4 MSTORE PUSH1 0x7 DUP2 MSTORE PUSH2 0x119F PUSH1 0x1 DUP1 PUSH1 0xA0 SHL SUB PUSH1 0x1 PUSH1 0x40 DUP7 KECCAK256 ADD SLOAD AND CALLER EQ PUSH2 0x5498 JUMP JUMPDEST PUSH2 0x11A7 PUSH2 0x5475 JUMP JUMPDEST PUSH2 0x11AF PUSH2 0x5457 JUMP JUMPDEST DUP2 DUP4 MSTORE PUSH1 0x7 DUP2 MSTORE PUSH1 0x14 PUSH1 0x40 DUP5 KECCAK256 ADD SWAP1 DUP2 SLOAD SWAP2 PUSH1 0xFF DUP4 PUSH1 0x10 SHR AND SWAP3 PUSH1 0xB DUP5 LT ISZERO PUSH2 0x6C9 JUMPI DUP4 ISZERO DUP1 ISZERO PUSH2 0x1304 JUMPI JUMPDEST ISZERO PUSH2 0x12B0 JUMPI SWAP2 PUSH1 0xA SWAP2 PUSH3 0xA0000 PUSH1 0x0 DUP1 MLOAD PUSH1 0x20 PUSH2 0x58B1 DUP4 CODECOPY DUP2 MLOAD SWAP2 MSTORE SWAP6 SWAP5 PUSH3 0xFF0000 NOT AND OR SWAP1 SSTORE DUP5 PUSH32 0xB848A62EF7171019D243ED8F5B8E1E6C32CAFED0B7FC99DA26CB2FC2E7D533EC PUSH1 0x40 MLOAD PUSH1 0x40 DUP2 MSTORE DUP1 PUSH2 0x1256 PUSH1 0x40 DUP3 ADD PUSH1 0x40 SWAP1 PUSH1 0xF DUP2 MSTORE PUSH15 0x189D5E595C8818D85B98D95B1B1959 PUSH1 0x8A SHL PUSH1 0x20 DUP3 ADD MSTORE ADD SWAP1 JUMP JUMPDEST TIMESTAMP DUP7 DUP4 ADD MSTORE SUB SWAP1 LOG2 PUSH2 0x126B PUSH1 0x40 MLOAD DUP1 SWAP5 PUSH2 0x5002 JUMP JUMPDEST DUP3 ADD MSTORE PUSH1 0x80 PUSH1 0x40 DUP3 ADD MSTORE DUP1 PUSH2 0x12A0 PUSH1 0x80 DUP3 ADD PUSH1 0x40 SWAP1 PUSH1 0xF DUP2 MSTORE PUSH15 0x189D5E595C8818D85B98D95B1B1959 PUSH1 0x8A SHL PUSH1 0x20 DUP3 ADD MSTORE ADD SWAP1 JUMP JUMPDEST TIMESTAMP PUSH1 0x60 DUP4 ADD MSTORE SUB SWAP1 LOG2 PUSH1 0x1 DUP1 SSTORE DUP1 RETURN JUMPDEST PUSH1 0x40 MLOAD PUSH3 0x461BCD PUSH1 0xE5 SHL DUP2 MSTORE PUSH1 0x4 DUP2 ADD DUP5 SWAP1 MSTORE PUSH1 0x26 PUSH1 0x24 DUP3 ADD MSTORE PUSH32 0x4F7074696F6E73436F72653A2063616E6E6F742063616E63656C206166746572 PUSH1 0x44 DUP3 ADD MSTORE PUSH6 0x40DAC2E8C6D PUSH1 0xD3 SHL PUSH1 0x64 DUP3 ADD MSTORE PUSH1 0x84 SWAP1 REVERT JUMPDEST POP PUSH1 0x1 DUP5 EQ PUSH2 0x11DB JUMP JUMPDEST POP PUSH1 0x5 SLOAD DUP3 LT PUSH2 0x1175 JUMP JUMPDEST POP CALLVALUE PUSH2 0x2B6 JUMPI PUSH1 0x20 CALLDATASIZE PUSH1 0x3 NOT ADD SLT PUSH2 0x2B6 JUMPI PUSH2 0x1333 PUSH2 0x4D0C JUMP JUMPDEST PUSH2 0x133B PUSH2 0x502B JUMP JUMPDEST PUSH1 0x1 DUP1 PUSH1 0xA0 SHL SUB AND PUSH12 0xFFFFFFFFFFFFFFFFFFFFFFFF PUSH1 0xA0 SHL PUSH1 0x3 SLOAD AND OR PUSH1 0x3 SSTORE DUP1 RETURN JUMPDEST POP CALLVALUE PUSH2 0x2B6 JUMPI PUSH1 0x20 CALLDATASIZE PUSH1 0x3 NOT ADD SLT PUSH2 0x2B6 JUMPI PUSH1 0x4 CALLDATALOAD DUP2 MSTORE PUSH1 0x7 PUSH1 0x20 MSTORE PUSH1 0x40 SWAP1 KECCAK256 PUSH2 0x160 DUP2 SWAP1 MSTORE DUP1 SLOAD PUSH2 0x1C0 MSTORE PUSH1 0x1 DUP2 ADD SLOAD PUSH1 0x2 DUP3 ADD SLOAD PUSH1 0x1 PUSH1 0x1 PUSH1 0xA0 SHL SUB SWAP1 DUP2 AND PUSH2 0x220 MSTORE AND SWAP1 PUSH2 0x13B1 SWAP1 PUSH1 0x3 ADD PUSH2 0x4F14 JUMP JUMPDEST PUSH2 0x120 MSTORE PUSH2 0x160 MLOAD PUSH1 0x4 ADD PUSH2 0x13C5 SWAP1 PUSH2 0x4F14 JUMP JUMPDEST PUSH2 0x160 MLOAD PUSH1 0x5 ADD PUSH2 0x13D5 SWAP1 PUSH2 0x4F14 JUMP JUMPDEST SWAP2 PUSH2 0x160 MLOAD PUSH1 0x6 ADD PUSH2 0x13E6 SWAP1 PUSH2 0x4F14 JUMP JUMPDEST SWAP2 PUSH2 0x160 MLOAD PUSH1 0x7 ADD PUSH2 0x13F7 SWAP1 PUSH2 0x4F14 JUMP JUMPDEST SWAP4 PUSH2 0x160 MLOAD SWAP4 PUSH1 0x8 DUP6 ADD SLOAD PUSH1 0xFF AND PUSH1 0xE0 MSTORE PUSH1 0x9 DUP6 ADD SLOAD SWAP6 PUSH1 0xA DUP7 ADD SLOAD PUSH1 0xB DUP8 ADD SLOAD SWAP2 PUSH1 0xC DUP9 ADD SLOAD SWAP4 PUSH1 0xD DUP10 ADD SLOAD SWAP6 PUSH1 0xE DUP11 ADD SLOAD SWAP8 PUSH1 0xF DUP12 ADD SLOAD SWAP10 PUSH1 0x10 DUP13 ADD SLOAD SWAP12 PUSH1 0x11 DUP2 ADD SLOAD PUSH2 0x240 MSTORE PUSH1 0x12 DUP2 ADD SLOAD PUSH1 0xC0 MSTORE PUSH1 0x13 DUP2 ADD SLOAD PUSH2 0x200 MSTORE PUSH1 0x14 DUP2 ADD SLOAD PUSH2 0x1E0 MSTORE PUSH1 0x15 DUP2 ADD SLOAD PUSH1 0x80 MSTORE PUSH1 0x16 DUP2 ADD SLOAD PUSH2 0x140 MSTORE PUSH1 0x17 DUP2 ADD SLOAD PUSH1 0xA0 MSTORE PUSH1 0x18 DUP2 ADD SLOAD PUSH2 0x1A0 MSTORE PUSH1 0x19 ADD SLOAD PUSH2 0x180 MSTORE PUSH1 0x40 MLOAD DUP1 PUSH2 0x100 MSTORE PUSH2 0x1C0 MLOAD SWAP1 MSTORE PUSH2 0x100 MLOAD PUSH1 0x20 ADD MSTORE PUSH2 0x220 MLOAD PUSH2 0x100 MLOAD PUSH1 0x40 ADD MSTORE PUSH2 0x420 DUP1 PUSH2 0x100 MLOAD PUSH1 0x60 ADD MSTORE PUSH2 0x100 MLOAD ADD PUSH2 0x120 MLOAD SWAP1 PUSH2 0x14C5 SWAP2 PUSH2 0x4FB8 JUMP JUMPDEST PUSH2 0x100 MLOAD DUP1 DUP3 SUB SWAP1 PUSH1 0x80 ADD MSTORE PUSH2 0x14DA SWAP2 PUSH2 0x4FB8 JUMP JUMPDEST PUSH2 0x100 MLOAD DUP1 DUP3 SUB SWAP1 PUSH1 0xA0 ADD MSTORE PUSH2 0x14EF SWAP2 PUSH2 0x4FB8 JUMP JUMPDEST PUSH2 0x100 MLOAD DUP1 DUP3 SUB SWAP1 PUSH1 0xC0 ADD MSTORE PUSH2 0x1504 SWAP2 PUSH2 0x4FB8 JUMP JUMPDEST PUSH2 0x100 MLOAD DUP1 DUP3 SUB SWAP1 PUSH1 0xE0 ADD MSTORE PUSH2 0x1519 SWAP2 PUSH2 0x4FB8 JUMP JUMPDEST SWAP8 PUSH1 0xE0 MLOAD PUSH2 0x1526 SWAP1 PUSH2 0x4FF8 JUMP JUMPDEST PUSH1 0xE0 MLOAD PUSH2 0x100 MLOAD PUSH2 0x100 ADD MSTORE PUSH2 0x100 MLOAD PUSH2 0x120 ADD MSTORE PUSH2 0x100 MLOAD PUSH2 0x140 ADD MSTORE PUSH2 0x100 MLOAD PUSH2 0x160 ADD MSTORE PUSH2 0x100 MLOAD PUSH2 0x180 ADD MSTORE PUSH2 0x100 MLOAD PUSH2 0x1A0 ADD MSTORE PUSH2 0x100 MLOAD PUSH2 0x1C0 ADD MSTORE PUSH2 0x100 MLOAD PUSH2 0x1E0 ADD MSTORE PUSH2 0x100 MLOAD PUSH2 0x200 ADD MSTORE PUSH2 0x240 MLOAD PUSH1 0xFF AND PUSH2 0x158A SWAP1 PUSH2 0x4DB7 JUMP JUMPDEST PUSH2 0x240 MLOAD PUSH1 0xFF AND PUSH2 0x100 MLOAD PUSH2 0x220 ADD MSTORE PUSH2 0x240 MLOAD PUSH1 0x8 SHR PUSH1 0xFF AND PUSH2 0x100 MLOAD PUSH2 0x240 ADD MSTORE PUSH2 0x240 MLOAD PUSH1 0x10 SHR PUSH1 0xFF AND PUSH2 0x100 MLOAD PUSH2 0x260 ADD MSTORE PUSH2 0x240 MLOAD PUSH1 0x18 SHR PUSH1 0xFF AND PUSH2 0x100 MLOAD PUSH2 0x280 ADD MSTORE PUSH2 0x240 MLOAD PUSH1 0x20 SHR PUSH1 0xFF AND PUSH2 0x15E6 SWAP1 PUSH2 0x4DB7 JUMP JUMPDEST PUSH2 0x240 MLOAD PUSH1 0x20 SHR PUSH1 0xFF AND PUSH2 0x100 MLOAD PUSH2 0x2A0 ADD MSTORE PUSH1 0x1 PUSH1 0xA0 SHL PUSH1 0x1 SWAP1 SUB PUSH2 0x240 MLOAD PUSH1 0x28 SHR AND PUSH2 0x100 MLOAD PUSH2 0x2C0 ADD MSTORE PUSH1 0xC0 MLOAD PUSH2 0x100 MLOAD PUSH2 0x2E0 ADD MSTORE PUSH2 0x200 MLOAD PUSH2 0x100 MLOAD PUSH2 0x300 ADD MSTORE PUSH2 0x1E0 MLOAD PUSH1 0xFF AND ISZERO ISZERO PUSH2 0x100 MLOAD PUSH2 0x320 ADD MSTORE PUSH2 0x1E0 MLOAD PUSH1 0x8 SHR PUSH1 0xFF AND PUSH2 0x1651 SWAP1 PUSH2 0x4FF8 JUMP JUMPDEST PUSH2 0x1E0 MLOAD PUSH1 0x8 SHR PUSH1 0xFF AND PUSH2 0x100 MLOAD PUSH2 0x340 ADD MSTORE PUSH2 0x100 MLOAD PUSH2 0x360 ADD PUSH2 0x1E0 MLOAD PUSH1 0x10 SHR PUSH1 0xFF AND SWAP1 PUSH2 0x1680 SWAP2 PUSH2 0x5002 JUMP JUMPDEST PUSH1 0x80 MLOAD PUSH2 0x100 MLOAD PUSH2 0x380 ADD MSTORE PUSH2 0x140 MLOAD PUSH2 0x100 MLOAD PUSH2 0x3A0 ADD MSTORE PUSH1 0xA0 MLOAD PUSH2 0x100 MLOAD PUSH2 0x3C0 ADD MSTORE PUSH2 0x1A0 MLOAD PUSH2 0x100 MLOAD PUSH2 0x3E0 ADD MSTORE PUSH2 0x180 MLOAD PUSH2 0x100 MLOAD PUSH2 0x400 ADD MSTORE PUSH2 0x100 MLOAD DUP1 SWAP2 SUB SWAP1 RETURN JUMPDEST POP CALLVALUE PUSH2 0x2B6 JUMPI PUSH1 0x20 CALLDATASIZE PUSH1 0x3 NOT ADD SLT PUSH2 0x2B6 JUMPI PUSH1 0x40 SWAP1 PUSH1 0x4 CALLDATALOAD DUP2 MSTORE PUSH1 0x9 PUSH1 0x20 MSTORE KECCAK256 DUP1 SLOAD SWAP1 PUSH2 0x2AE PUSH1 0x1 DUP3 ADD SLOAD PUSH1 0x2 DUP4 ADD SLOAD SWAP3 PUSH1 0x3 DUP2 ADD SLOAD SWAP5 PUSH1 0x4 DUP3 ADD SLOAD SWAP3 PUSH1 0x5 DUP4 ADD SLOAD SWAP2 PUSH1 0x6 DUP5 ADD SLOAD SWAP1 PUSH1 0x7 DUP6 ADD SLOAD SWAP2 PUSH1 0x8 DUP7 ADD SLOAD SWAP5 PUSH1 0xFF PUSH1 0xA PUSH1 0x9 DUP10 ADD SLOAD SWAP9 ADD SLOAD AND SWAP8 PUSH1 0x40 MLOAD SWAP12 DUP13 SWAP12 DUP13 PUSH1 0xFF DUP9 PUSH1 0x10 SHR AND SWAP9 PUSH1 0xFF DUP1 DUP11 PUSH1 0x8 SHR AND SWAP10 AND SWAP8 PUSH1 0xFF DUP5 PUSH1 0xA0 SHR AND SWAP4 PUSH1 0x1 DUP1 PUSH1 0xA0 SHL SUB AND SWAP3 PUSH2 0x4DCE JUMP JUMPDEST POP CALLVALUE PUSH2 0x2B6 JUMPI PUSH1 0x20 DUP1 PUSH1 0x3 NOT CALLDATASIZE ADD SLT PUSH2 0x338 JUMPI PUSH1 0x1 PUSH1 0x1 PUSH1 0xA0 SHL SUB PUSH2 0x177F PUSH2 0x4D0C JUMP JUMPDEST AND DUP3 MSTORE PUSH1 0xA DUP2 MSTORE PUSH1 0x40 DUP3 KECCAK256 SWAP2 PUSH1 0x40 MLOAD DUP1 SWAP3 DUP1 DUP6 SLOAD SWAP3 DUP4 DUP2 MSTORE ADD SWAP5 DUP4 MSTORE DUP1 DUP4 KECCAK256 SWAP3 SWAP1 JUMPDEST DUP3 DUP3 LT PUSH2 0x17B8 JUMPI PUSH2 0x2AE DUP6 PUSH2 0x315 DUP2 DUP10 SUB DUP3 PUSH2 0x4EF3 JUMP JUMPDEST DUP4 SLOAD DUP7 MSTORE SWAP5 DUP6 ADD SWAP5 PUSH1 0x1 SWAP4 DUP5 ADD SWAP4 SWAP1 SWAP2 ADD SWAP1 PUSH2 0x17A1 JUMP JUMPDEST POP CALLVALUE PUSH2 0x2B6 JUMPI DUP1 PUSH1 0x3 NOT CALLDATASIZE ADD SLT PUSH2 0x2B6 JUMPI PUSH1 0x20 SWAP1 PUSH1 0x40 MLOAD SWAP1 DUP2 MSTORE RETURN JUMPDEST POP CALLVALUE PUSH2 0x2B6 JUMPI PUSH2 0x260 CALLDATASIZE PUSH1 0x3 NOT ADD SLT PUSH2 0x2B6 JUMPI PUSH1 0x4 CALLDATALOAD PUSH1 0x1 PUSH1 0x1 PUSH1 0x40 SHL SUB DUP2 GT PUSH2 0x338 JUMPI PUSH2 0x181D SWAP1 CALLDATASIZE SWAP1 PUSH1 0x4 ADD PUSH2 0x4CCF JUMP JUMPDEST PUSH1 0x24 CALLDATALOAD PUSH1 0x1 PUSH1 0x1 PUSH1 0x40 SHL SUB DUP2 GT PUSH2 0x8AF JUMPI PUSH2 0x183C SWAP1 CALLDATASIZE SWAP1 PUSH1 0x4 ADD PUSH2 0x4CCF JUMP JUMPDEST SWAP1 PUSH1 0x44 CALLDATALOAD PUSH1 0x1 PUSH1 0x1 PUSH1 0x40 SHL SUB DUP2 GT PUSH2 0x20B3 JUMPI PUSH2 0x185C SWAP1 CALLDATASIZE SWAP1 PUSH1 0x4 ADD PUSH2 0x4CCF JUMP JUMPDEST SWAP1 PUSH1 0x64 CALLDATALOAD PUSH1 0x1 PUSH1 0x1 PUSH1 0x40 SHL SUB DUP2 GT PUSH2 0x20AF JUMPI PUSH2 0x187C SWAP1 CALLDATASIZE SWAP1 PUSH1 0x4 ADD PUSH2 0x4CCF JUMP JUMPDEST SWAP1 PUSH1 0x84 CALLDATALOAD PUSH1 0x1 PUSH1 0x1 PUSH1 0x40 SHL SUB DUP2 GT PUSH2 0x20AB JUMPI PUSH2 0x189C SWAP1 CALLDATASIZE SWAP1 PUSH1 0x4 ADD PUSH2 0x4CCF JUMP JUMPDEST SWAP10 SWAP1 SWAP9 PUSH1 0x2 PUSH1 0xA4 CALLDATALOAD LT ISZERO PUSH2 0x338 JUMPI PUSH1 0x3 PUSH2 0x144 CALLDATALOAD LT ISZERO PUSH2 0x338 JUMPI PUSH2 0x164 CALLDATALOAD PUSH1 0x1 PUSH1 0x1 PUSH1 0xA0 SHL SUB DUP2 AND SWAP1 SUB PUSH2 0x2052 JUMPI PUSH2 0x18D2 PUSH2 0x4CFC JUMP JUMPDEST PUSH1 0x3 PUSH2 0x1E4 CALLDATALOAD LT ISZERO PUSH2 0x2B2 JUMPI PUSH1 0xFF PUSH2 0x204 CALLDATALOAD AND PUSH2 0x204 CALLDATALOAD SUB PUSH2 0x2052 JUMPI PUSH1 0xFF PUSH2 0x224 CALLDATALOAD AND PUSH2 0x224 CALLDATALOAD SUB PUSH2 0x2052 JUMPI PUSH1 0x2 PUSH2 0x244 CALLDATALOAD LT ISZERO PUSH2 0x2B2 JUMPI PUSH2 0x1912 PUSH2 0x5475 JUMP JUMPDEST PUSH2 0x191A PUSH2 0x5457 JUMP JUMPDEST PUSH2 0x1927 PUSH1 0xC4 CALLDATALOAD ISZERO ISZERO PUSH2 0x519C JUMP JUMPDEST PUSH2 0x1934 TIMESTAMP PUSH1 0xE4 CALLDATALOAD GT PUSH2 0x51F7 JUMP JUMPDEST PUSH1 0x2 SLOAD PUSH1 0x40 MLOAD PUSH4 0x5D8EB687 PUSH1 0xE0 SHL DUP2 MSTORE SWAP1 PUSH1 0x8 SHR PUSH1 0x1 PUSH1 0x1 PUSH1 0xA0 SHL SUB AND PUSH1 0x20 DUP3 PUSH1 0x4 DUP2 DUP5 GAS STATICCALL SWAP2 DUP3 ISZERO PUSH2 0x20A0 JUMPI DUP6 SWAP3 PUSH2 0x206A JUMPI JUMPDEST POP PUSH2 0x197A PUSH1 0x4 SWAP3 PUSH2 0x124 CALLDATALOAD LT ISZERO PUSH2 0x5251 JUMP JUMPDEST DUP2 SLOAD PUSH1 0x3 SLOAD PUSH1 0x40 MLOAD PUSH4 0x37382D39 PUSH1 0xE2 SHL DUP2 MSTORE SWAP4 PUSH1 0x1 PUSH1 0x1 PUSH1 0xA0 SHL SUB SWAP3 DUP4 AND SWAP4 SWAP3 SWAP1 SWAP2 AND SWAP2 PUSH1 0x20 SWAP2 DUP6 SWAP2 DUP3 SWAP1 GAS STATICCALL SWAP2 DUP3 ISZERO PUSH2 0x205F JUMPI DUP7 SWAP3 PUSH2 0x2024 JUMPI JUMPDEST PUSH2 0x19C1 SWAP4 POP CALLER SWAP1 PUSH2 0x53B0 JUMP JUMPDEST PUSH1 0x5 SLOAD SWAP10 PUSH2 0x19CE DUP12 PUSH2 0x529C JUMP JUMPDEST PUSH1 0x5 SSTORE DUP11 DUP5 MSTORE PUSH1 0x7 PUSH1 0x20 MSTORE PUSH1 0x40 DUP5 KECCAK256 DUP12 DUP2 SSTORE PUSH1 0x1 DUP2 ADD DUP1 SLOAD PUSH1 0x1 PUSH1 0x1 PUSH1 0xA0 SHL SUB NOT AND CALLER OR SWAP1 SSTORE SWAP3 PUSH1 0x1 PUSH1 0x1 PUSH1 0x40 SHL SUB DUP3 GT PUSH2 0x2010 JUMPI DUP2 SWAP1 PUSH2 0x1A1F DUP3 PUSH2 0x1A16 PUSH1 0x3 DUP9 ADD SLOAD PUSH2 0x4E58 JUMP JUMPDEST PUSH1 0x3 DUP9 ADD PUSH2 0x52C1 JUMP JUMPDEST DUP6 SWAP1 PUSH1 0x1F DUP4 GT PUSH1 0x1 EQ PUSH2 0x1FA4 JUMPI DUP7 SWAP3 PUSH2 0x1F99 JUMPI JUMPDEST POP POP DUP2 PUSH1 0x1 SHL SWAP2 PUSH1 0x0 NOT SWAP1 PUSH1 0x3 SHL SHR NOT AND OR PUSH1 0x3 DUP4 ADD SSTORE JUMPDEST PUSH1 0x1 PUSH1 0x1 PUSH1 0x40 SHL SUB DUP10 GT PUSH2 0x1E24 JUMPI PUSH2 0x1A73 DUP10 PUSH2 0x1A6A PUSH1 0x4 DUP6 ADD SLOAD PUSH2 0x4E58 JUMP JUMPDEST PUSH1 0x4 DUP6 ADD PUSH2 0x52C1 JUMP JUMPDEST DUP9 DUP4 PUSH1 0x1F DUP3 GT PUSH1 0x1 EQ PUSH2 0x1F2D JUMPI DUP5 SWAP2 PUSH2 0x1F22 JUMPI JUMPDEST POP DUP10 PUSH1 0x1 SHL SWAP1 PUSH1 0x0 NOT DUP12 PUSH1 0x3 SHL SHR NOT AND OR PUSH1 0x4 DUP4 ADD SSTORE JUMPDEST PUSH1 0x1 PUSH1 0x1 PUSH1 0x40 SHL SUB DUP8 GT PUSH2 0x1E24 JUMPI PUSH2 0x1AC6 DUP8 PUSH2 0x1ABD PUSH1 0x5 DUP6 ADD SLOAD PUSH2 0x4E58 JUMP JUMPDEST PUSH1 0x5 DUP6 ADD PUSH2 0x52C1 JUMP JUMPDEST DUP7 DUP4 PUSH1 0x1F DUP3 GT PUSH1 0x1 EQ PUSH2 0x1EB8 JUMPI DUP5 SWAP2 PUSH2 0x1EAD JUMPI JUMPDEST POP DUP8 PUSH1 0x1 SHL SWAP1 PUSH1 0x0 NOT DUP10 PUSH1 0x3 SHL SHR NOT AND OR PUSH1 0x5 DUP4 ADD SSTORE JUMPDEST PUSH1 0x1 PUSH1 0x1 PUSH1 0x40 SHL SUB DUP6 GT PUSH2 0x1E24 JUMPI PUSH2 0x1B19 DUP6 PUSH2 0x1B10 PUSH1 0x6 DUP6 ADD SLOAD PUSH2 0x4E58 JUMP JUMPDEST PUSH1 0x6 DUP6 ADD PUSH2 0x52C1 JUMP JUMPDEST DUP5 DUP4 PUSH1 0x1F DUP3 GT PUSH1 0x1 EQ PUSH2 0x1E43 JUMPI DUP5 SWAP2 PUSH2 0x1E38 JUMPI JUMPDEST POP DUP6 PUSH1 0x1 SHL SWAP1 PUSH1 0x0 NOT DUP8 PUSH1 0x3 SHL SHR NOT AND OR PUSH1 0x6 DUP4 ADD SSTORE JUMPDEST PUSH1 0x1 PUSH1 0x1 PUSH1 0x40 SHL SUB DUP13 GT PUSH2 0x1E24 JUMPI DUP12 PUSH2 0x1B6F PUSH1 0x20 SWAP14 PUSH2 0x1B66 PUSH1 0x7 DUP7 ADD SLOAD PUSH2 0x4E58 JUMP JUMPDEST PUSH1 0x7 DUP7 ADD PUSH2 0x52C1 JUMP JUMPDEST DUP4 SWAP12 PUSH1 0x1F DUP3 GT PUSH1 0x1 EQ PUSH2 0x1D91 JUMPI SWAP11 PUSH2 0x1CEB SWAP7 DUP15 DUP3 SWAP15 SWAP8 PUSH2 0x1CBB PUSH2 0x1D03 SWAP16 DUP6 SWAP16 SWAP15 SWAP13 SWAP8 DUP11 DUP6 SWAP16 SWAP12 SWAP11 PUSH1 0x40 SWAP3 DUP11 DUP11 SWAP16 SWAP12 PUSH2 0x1CD3 SWAP13 DUP11 SWAP16 SWAP8 DUP14 SWAP9 SWAP3 PUSH2 0x1D86 JUMPI JUMPDEST POP POP DUP2 PUSH1 0x1 SHL SWAP2 PUSH1 0x0 NOT SWAP1 PUSH1 0x3 SHL SHR NOT AND OR PUSH1 0x7 DUP4 ADD SSTORE JUMPDEST PUSH2 0x1BD3 PUSH1 0xA4 CALLDATALOAD PUSH1 0x8 DUP5 ADD PUSH2 0x5315 JUMP JUMPDEST PUSH1 0xC4 CALLDATALOAD PUSH1 0x9 DUP4 ADD SSTORE PUSH1 0xE4 CALLDATALOAD PUSH1 0xB DUP4 ADD SSTORE PUSH2 0x104 CALLDATALOAD PUSH1 0xC DUP4 ADD SSTORE PUSH2 0x124 CALLDATALOAD PUSH1 0x10 DUP4 ADD SSTORE PUSH2 0x1C91 PUSH1 0x11 DUP4 ADD PUSH2 0x1C09 PUSH2 0x144 CALLDATALOAD DUP3 PUSH2 0x532D JUMP JUMPDEST DUP1 SLOAD PUSH6 0x10000000000 PUSH1 0x1 PUSH1 0xC8 SHL SUB NOT AND PUSH2 0x164 CALLDATALOAD PUSH1 0x28 SHL PUSH6 0x10000000000 PUSH1 0x1 PUSH1 0xC8 SHL SUB AND OR DUP2 SSTORE PUSH2 0x184 CALLDATALOAD PUSH1 0x12 DUP6 ADD SSTORE PUSH2 0x1A4 CALLDATALOAD PUSH1 0x13 DUP6 ADD SSTORE PUSH1 0x14 DUP5 ADD DUP1 SLOAD SWAP4 ISZERO ISZERO PUSH1 0xFF AND PUSH1 0xFF NOT SWAP5 SWAP1 SWAP5 AND SWAP4 SWAP1 SWAP4 OR DUP4 SSTORE PUSH2 0x1C6A PUSH2 0x1E4 CALLDATALOAD DUP3 PUSH2 0x5352 JUMP JUMPDEST DUP1 SLOAD PUSH3 0xFF0000 PUSH2 0x224 CALLDATALOAD PUSH1 0x10 SHL AND PUSH3 0xFFFF00 NOT SWAP1 SWAP2 AND PUSH2 0xFF00 PUSH2 0x204 CALLDATALOAD PUSH1 0x8 SHL AND OR OR SWAP1 SSTORE JUMP JUMPDEST PUSH2 0x1C9E PUSH2 0x244 CALLDATALOAD DUP3 PUSH2 0x535C JUMP JUMPDEST PUSH3 0xFF0000 NOT DUP2 SLOAD AND SWAP1 SSTORE PUSH1 0x15 TIMESTAMP SWAP2 ADD SSTORE CALLER DUP2 MSTORE PUSH1 0xA DUP7 MSTORE KECCAK256 PUSH2 0x537B JUMP JUMPDEST DUP3 PUSH1 0x40 MLOAD SWAP4 DUP5 SWAP3 DUP4 CALLDATACOPY DUP2 ADD PUSH1 0xC DUP2 MSTORE SUB ADD SWAP1 KECCAK256 PUSH2 0x537B JUMP JUMPDEST DUP3 PUSH1 0x40 MLOAD SWAP4 DUP5 SWAP3 DUP4 CALLDATACOPY DUP2 ADD PUSH1 0xD DUP2 MSTORE SUB ADD SWAP1 KECCAK256 PUSH2 0x537B JUMP JUMPDEST DUP3 PUSH1 0x40 MLOAD SWAP4 DUP5 SWAP3 DUP4 CALLDATACOPY DUP2 ADD PUSH1 0xE DUP2 MSTORE SUB ADD SWAP1 KECCAK256 PUSH2 0x537B JUMP JUMPDEST PUSH1 0x40 MLOAD PUSH1 0x1 DUP2 MSTORE TIMESTAMP DUP4 DUP3 ADD MSTORE DUP2 PUSH32 0xC0C6ED2669FEBBE340D8737E8EC17254FFD9E038B54A4585FF70AC3CA18956AA PUSH1 0x40 CALLER SWAP4 LOG3 DUP1 PUSH1 0x0 DUP1 MLOAD PUSH1 0x20 PUSH2 0x58B1 DUP4 CODECOPY DUP2 MLOAD SWAP2 MSTORE PUSH1 0xC0 PUSH1 0x40 MLOAD PUSH1 0x0 DUP2 MSTORE PUSH1 0x0 DUP7 DUP3 ADD MSTORE PUSH1 0x80 PUSH1 0x40 DUP3 ADD MSTORE PUSH1 0x7 PUSH1 0x80 DUP3 ADD MSTORE PUSH7 0x18DC99585D1959 PUSH1 0xCA SHL PUSH1 0xA0 DUP3 ADD MSTORE TIMESTAMP PUSH1 0x60 DUP3 ADD MSTORE LOG2 PUSH1 0x1 DUP1 SSTORE PUSH1 0x40 MLOAD SWAP1 DUP2 MSTORE RETURN JUMPDEST ADD CALLDATALOAD SWAP1 POP CODESIZE DUP1 PUSH2 0x1BAC JUMP JUMPDEST PUSH1 0x7 DUP5 ADD DUP6 MSTORE DUP14 DUP6 KECCAK256 SWAP1 DUP6 SWAP14 DUP15 JUMPDEST PUSH1 0x1F NOT DUP6 AND GT PUSH2 0x1E0C JUMPI DUP16 SWAP11 SWAP7 DUP15 SWAP16 POP SWAP8 PUSH2 0x1CBB PUSH2 0x1D03 SWAP16 SWAP15 SWAP14 SWAP12 SWAP7 DUP16 SWAP11 PUSH1 0x40 SWAP1 DUP16 SWAP11 DUP14 SWAP9 SWAP4 PUSH2 0x1CEB SWAP16 SWAP9 DUP12 DUP12 SWAP7 DUP16 SWAP11 SWAP3 PUSH1 0x1 SWAP4 PUSH2 0x1CD3 SWAP16 PUSH1 0x1F NOT DUP2 AND LT PUSH2 0x1DF2 JUMPI JUMPDEST POP POP POP DUP2 SHL ADD PUSH1 0x7 DUP4 ADD SSTORE PUSH2 0x1BC4 JUMP JUMPDEST ADD CALLDATALOAD PUSH1 0x0 NOT PUSH1 0x3 DUP5 SWAP1 SHL PUSH1 0xF8 AND SHR NOT AND SWAP1 SSTORE CODESIZE DUP1 DUP1 PUSH2 0x1DE2 JUMP JUMPDEST SWAP2 DUP16 PUSH1 0x1 DUP2 SWAP3 DUP6 DUP6 ADD CALLDATALOAD DUP2 SSTORE ADD SWAP4 ADD SWAP15 ADD SWAP14 DUP15 PUSH2 0x1D9F JUMP JUMPDEST PUSH4 0x4E487B71 PUSH1 0xE0 SHL DUP4 MSTORE PUSH1 0x41 PUSH1 0x4 MSTORE PUSH1 0x24 DUP4 REVERT JUMPDEST SWAP1 POP DUP5 ADD CALLDATALOAD CODESIZE PUSH2 0x1B2D JUMP JUMPDEST PUSH1 0x6 DUP5 ADD DUP6 MSTORE PUSH1 0x20 DUP6 KECCAK256 SWAP2 POP DUP5 JUMPDEST PUSH1 0x1F NOT DUP9 AND DUP2 LT PUSH2 0x1E95 JUMPI POP DUP7 PUSH1 0x1F NOT DUP2 AND LT PUSH2 0x1E7B JUMPI JUMPDEST POP POP PUSH1 0x1 DUP6 DUP2 SHL ADD PUSH1 0x6 DUP4 ADD SSTORE PUSH2 0x1B44 JUMP JUMPDEST DUP6 ADD CALLDATALOAD PUSH1 0x0 NOT PUSH1 0x3 DUP9 SWAP1 SHL PUSH1 0xF8 AND SHR NOT AND SWAP1 SSTORE CODESIZE DUP1 PUSH2 0x1E69 JUMP JUMPDEST SWAP1 SWAP2 PUSH1 0x20 PUSH1 0x1 DUP2 SWAP3 DUP6 DUP11 ADD CALLDATALOAD DUP2 SSTORE ADD SWAP4 ADD SWAP2 ADD PUSH2 0x1E51 JUMP JUMPDEST SWAP1 POP DUP7 ADD CALLDATALOAD CODESIZE PUSH2 0x1ADA JUMP JUMPDEST PUSH1 0x5 DUP5 ADD DUP6 MSTORE PUSH1 0x20 DUP6 KECCAK256 SWAP2 POP DUP5 JUMPDEST PUSH1 0x1F NOT DUP11 AND DUP2 LT PUSH2 0x1F0A JUMPI POP DUP9 PUSH1 0x1F NOT DUP2 AND LT PUSH2 0x1EF0 JUMPI JUMPDEST POP POP PUSH1 0x1 DUP8 DUP2 SHL ADD PUSH1 0x5 DUP4 ADD SSTORE PUSH2 0x1AF1 JUMP JUMPDEST DUP8 ADD CALLDATALOAD PUSH1 0x0 NOT PUSH1 0x3 DUP11 SWAP1 SHL PUSH1 0xF8 AND SHR NOT AND SWAP1 SSTORE CODESIZE DUP1 PUSH2 0x1EDE JUMP JUMPDEST SWAP1 SWAP2 PUSH1 0x20 PUSH1 0x1 DUP2 SWAP3 DUP6 DUP13 ADD CALLDATALOAD DUP2 SSTORE ADD SWAP4 ADD SWAP2 ADD PUSH2 0x1EC6 JUMP JUMPDEST SWAP1 POP DUP9 ADD CALLDATALOAD CODESIZE PUSH2 0x1A87 JUMP JUMPDEST PUSH1 0x4 DUP5 ADD DUP6 MSTORE PUSH1 0x20 DUP6 KECCAK256 SWAP2 POP DUP5 JUMPDEST DUP11 PUSH1 0x1F NOT DUP14 AND DUP3 LT PUSH2 0x1F81 JUMPI POP POP DUP11 PUSH1 0x1F NOT DUP2 AND LT PUSH2 0x1F67 JUMPI JUMPDEST POP POP PUSH1 0x1 DUP10 DUP2 SHL ADD PUSH1 0x4 DUP4 ADD SSTORE PUSH2 0x1A9E JUMP JUMPDEST DUP10 ADD CALLDATALOAD PUSH1 0x0 NOT PUSH1 0x3 DUP13 SWAP1 SHL PUSH1 0xF8 AND SHR NOT AND SWAP1 SSTORE CODESIZE DUP1 PUSH2 0x1F55 JUMP JUMPDEST PUSH1 0x1 DUP4 SWAP5 PUSH1 0x20 SWAP4 SWAP5 DUP5 SWAP4 ADD CALLDATALOAD DUP2 SSTORE ADD SWAP4 ADD SWAP2 ADD PUSH2 0x1F3B JUMP JUMPDEST ADD CALLDATALOAD SWAP1 POP CODESIZE DUP1 PUSH2 0x1A33 JUMP JUMPDEST PUSH1 0x3 DUP7 ADD DUP8 MSTORE PUSH1 0x20 DUP8 KECCAK256 DUP8 SWAP5 POP SWAP2 JUMPDEST PUSH1 0x1F NOT DUP5 AND DUP6 LT PUSH2 0x1FF8 JUMPI PUSH1 0x1 SWAP5 POP DUP4 PUSH1 0x1F NOT DUP2 AND LT PUSH2 0x1FDE JUMPI JUMPDEST POP POP POP DUP2 SHL ADD PUSH1 0x3 DUP4 ADD SSTORE PUSH2 0x1A4B JUMP JUMPDEST ADD CALLDATALOAD PUSH1 0x0 NOT PUSH1 0x3 DUP5 SWAP1 SHL PUSH1 0xF8 AND SHR NOT AND SWAP1 SSTORE CODESIZE DUP1 DUP1 PUSH2 0x1FCE JUMP JUMPDEST DUP2 DUP2 ADD CALLDATALOAD DUP4 SSTORE PUSH1 0x20 SWAP5 DUP6 ADD SWAP5 PUSH1 0x1 SWAP1 SWAP4 ADD SWAP3 ADD PUSH2 0x1FB3 JUMP JUMPDEST PUSH4 0x4E487B71 PUSH1 0xE0 SHL DUP6 MSTORE PUSH1 0x41 PUSH1 0x4 MSTORE PUSH1 0x24 DUP6 REVERT JUMPDEST SWAP2 POP PUSH1 0x20 DUP4 RETURNDATASIZE PUSH1 0x20 GT PUSH2 0x2057 JUMPI JUMPDEST DUP2 PUSH2 0x203F PUSH1 0x20 SWAP4 DUP4 PUSH2 0x4EF3 JUMP JUMPDEST DUP2 ADD SUB SLT PUSH2 0x2052 JUMPI PUSH2 0x19C1 SWAP3 MLOAD SWAP2 PUSH2 0x19B5 JUMP JUMPDEST PUSH1 0x0 DUP1 REVERT JUMPDEST RETURNDATASIZE SWAP2 POP PUSH2 0x2032 JUMP JUMPDEST PUSH1 0x40 MLOAD RETURNDATASIZE DUP9 DUP3 RETURNDATACOPY RETURNDATASIZE SWAP1 REVERT JUMPDEST SWAP2 POP PUSH1 0x20 DUP3 RETURNDATASIZE PUSH1 0x20 GT PUSH2 0x2098 JUMPI JUMPDEST DUP2 PUSH2 0x2085 PUSH1 0x20 SWAP4 DUP4 PUSH2 0x4EF3 JUMP JUMPDEST DUP2 ADD SUB SLT PUSH2 0x2052 JUMPI SWAP1 MLOAD SWAP1 PUSH2 0x197A PUSH2 0x1968 JUMP JUMPDEST RETURNDATASIZE SWAP2 POP PUSH2 0x2078 JUMP JUMPDEST PUSH1 0x40 MLOAD RETURNDATASIZE DUP8 DUP3 RETURNDATACOPY RETURNDATASIZE SWAP1 REVERT JUMPDEST DUP10 DUP1 REVERT JUMPDEST DUP8 DUP1 REVERT JUMPDEST DUP6 DUP1 REVERT JUMPDEST POP CALLVALUE PUSH2 0x2B6 JUMPI PUSH1 0x40 CALLDATASIZE PUSH1 0x3 NOT ADD SLT PUSH2 0x2B6 JUMPI PUSH1 0x40 PUSH2 0x20D3 PUSH2 0x4D22 JUMP JUMPDEST SWAP2 PUSH1 0x4 CALLDATALOAD DUP2 MSTORE DUP1 PUSH1 0x20 MSTORE KECCAK256 SWAP1 PUSH1 0x1 DUP1 PUSH1 0xA0 SHL SUB AND PUSH1 0x0 MSTORE PUSH1 0x20 MSTORE PUSH1 0x20 PUSH1 0xFF PUSH1 0x40 PUSH1 0x0 KECCAK256 SLOAD AND PUSH1 0x40 MLOAD SWAP1 ISZERO ISZERO DUP2 MSTORE RETURN JUMPDEST POP CALLVALUE PUSH2 0x2B6 JUMPI PUSH1 0x20 CALLDATASIZE PUSH1 0x3 NOT ADD SLT PUSH2 0x2B6 JUMPI PUSH1 0x4 CALLDATALOAD ISZERO ISZERO DUP1 PUSH2 0x2664 JUMPI JUMPDEST PUSH2 0x2128 SWAP1 PUSH2 0x551D JUMP JUMPDEST PUSH2 0x2130 PUSH2 0x5475 JUMP JUMPDEST PUSH2 0x2138 PUSH2 0x5457 JUMP JUMPDEST PUSH1 0x4 CALLDATALOAD DUP2 MSTORE PUSH1 0x7 PUSH1 0x20 MSTORE PUSH1 0x40 DUP2 KECCAK256 PUSH1 0x14 DUP2 ADD SLOAD SWAP1 PUSH1 0xFF DUP3 PUSH1 0x10 SHR AND PUSH1 0xB DUP2 LT ISZERO PUSH2 0x2650 JUMPI PUSH1 0x6 SUB PUSH2 0x25FF JUMPI PUSH1 0x18 DUP2 ADD SLOAD SWAP1 DUP2 ISZERO PUSH2 0x25BA JUMPI PUSH2 0x217B PUSH1 0x7 DUP3 ADD PUSH2 0x4F14 JUMP JUMPDEST SWAP4 DUP1 SWAP5 DUP2 SWAP4 DUP3 SWAP4 DUP4 JUMPDEST DUP4 MLOAD DUP2 LT ISZERO PUSH2 0x228D JUMPI PUSH1 0x1 PUSH1 0x1 PUSH1 0xF8 SHL SUB NOT PUSH1 0x17 PUSH1 0xF9 SHL DUP2 PUSH2 0x21A6 DUP5 DUP9 PUSH2 0x5768 JUMP JUMPDEST MLOAD AND EQ PUSH2 0x227F JUMPI PUSH1 0x3 PUSH1 0xFC SHL DUP2 PUSH2 0x21BD DUP5 DUP9 PUSH2 0x5768 JUMP JUMPDEST MLOAD AND LT ISZERO SWAP1 DUP2 PUSH2 0x2264 JUMPI JUMPDEST POP PUSH2 0x21DC JUMPI JUMPDEST PUSH2 0x21D7 SWAP1 PUSH2 0x529C JUMP JUMPDEST PUSH2 0x2184 JUMP JUMPDEST DUP9 PUSH1 0xA DUP2 SWAP10 SWAP9 SWAP8 SWAP10 MUL DIV PUSH1 0xA EQ DUP10 ISZERO OR ISZERO PUSH2 0x2250 JUMPI PUSH1 0x2F NOT PUSH2 0x21FE DUP3 DUP7 PUSH2 0x5768 JUMP JUMPDEST MLOAD PUSH1 0xF8 SHR ADD PUSH1 0xFF DUP2 GT PUSH2 0x223C JUMPI DUP9 SWAP10 PUSH1 0xA PUSH1 0xFF PUSH2 0x2221 SWAP4 SWAP12 SWAP10 SWAP11 SWAP12 AND SWAP2 MUL PUSH2 0x5510 JUMP JUMPDEST SWAP9 ISZERO PUSH2 0x21CE JUMPI SWAP6 PUSH2 0x2234 PUSH2 0x21D7 SWAP2 PUSH2 0x529C JUMP JUMPDEST SWAP7 SWAP1 POP PUSH2 0x21CE JUMP JUMPDEST PUSH4 0x4E487B71 PUSH1 0xE0 SHL DUP7 MSTORE PUSH1 0x11 PUSH1 0x4 MSTORE PUSH1 0x24 DUP7 REVERT JUMPDEST PUSH4 0x4E487B71 PUSH1 0xE0 SHL DUP6 MSTORE PUSH1 0x11 PUSH1 0x4 MSTORE PUSH1 0x24 DUP6 REVERT JUMPDEST PUSH1 0x39 PUSH1 0xF8 SHL SWAP2 POP PUSH2 0x2275 DUP4 DUP8 PUSH2 0x5768 JUMP JUMPDEST MLOAD AND GT ISZERO CODESIZE PUSH2 0x21C8 JUMP JUMPDEST POP SWAP5 POP PUSH2 0x21D7 PUSH1 0x1 SWAP6 PUSH2 0x529C JUMP JUMPDEST DUP5 DUP4 DUP4 DUP11 DUP13 DUP12 PUSH1 0x12 DUP2 LT PUSH2 0x2593 JUMPI JUMPDEST POP PUSH1 0xFF DUP2 SWAP3 AND DUP1 PUSH2 0x2586 JUMPI JUMPDEST PUSH2 0x2562 JUMPI JUMPDEST POP DUP4 SWAP3 PUSH1 0xFF PUSH1 0x8 DUP5 ADD SLOAD AND PUSH2 0x22C1 DUP2 PUSH2 0x4FF8 JUMP JUMPDEST PUSH2 0x2538 JUMPI DUP2 DUP2 GT PUSH2 0x250D JUMPI JUMPDEST POP POP JUMPDEST DUP3 DUP3 ISZERO PUSH2 0x2501 JUMPI POP PUSH1 0xF DUP2 ADD SLOAD SWAP2 DUP3 DUP2 GT PUSH2 0x24FA JUMPI JUMPDEST DUP1 PUSH2 0x22F1 SWAP2 SWAP4 PUSH2 0x570F JUMP JUMPDEST SWAP2 JUMPDEST DUP1 PUSH2 0x244D JUMPI JUMPDEST DUP3 PUSH2 0x23C5 JUMPI JUMPDEST SWAP1 PUSH1 0xFF SWAP3 PUSH32 0x6DA40291EEB646B436D05C420B5B9F010D81DF95BCE846D2C3B3D45F56DF19EC PUSH2 0x236B PUSH2 0x237D SWAP5 PUSH1 0x14 DUP6 ADD SLOAD SWAP5 PUSH3 0x80000 PUSH3 0xFF0000 NOT DUP8 AND OR PUSH1 0x14 DUP3 ADD SSTORE PUSH1 0x17 TIMESTAMP SWAP2 ADD SSTORE PUSH1 0x40 MLOAD SWAP2 DUP3 SWAP2 PUSH1 0x4 CALLDATALOAD SWAP6 TIMESTAMP SWAP2 DUP5 PUSH1 0x40 SWAP2 SWAP5 SWAP4 SWAP3 PUSH1 0x60 DUP3 ADD SWAP6 DUP3 MSTORE PUSH1 0x20 DUP3 ADD MSTORE ADD MSTORE JUMP JUMPDEST SUB SWAP1 LOG2 PUSH1 0x40 MLOAD SWAP3 DUP4 SWAP2 PUSH1 0x10 SHR AND PUSH2 0x5002 JUMP JUMPDEST PUSH1 0x8 PUSH1 0x20 DUP3 ADD MSTORE PUSH1 0x80 PUSH1 0x40 DUP3 ADD MSTORE PUSH1 0x7 PUSH1 0x80 DUP3 ADD MSTORE PUSH7 0x1CD95D1D1B1959 PUSH1 0xCA SHL PUSH1 0xA0 DUP3 ADD MSTORE TIMESTAMP PUSH1 0x60 DUP3 ADD MSTORE PUSH1 0x0 DUP1 MLOAD PUSH1 0x20 PUSH2 0x58B1 DUP4 CODECOPY DUP2 MLOAD SWAP2 MSTORE PUSH1 0xC0 PUSH1 0x4 CALLDATALOAD SWAP3 LOG2 PUSH1 0x1 DUP1 SSTORE DUP1 RETURN JUMPDEST PUSH1 0x3 SLOAD PUSH1 0x2 DUP4 ADD SLOAD PUSH1 0x4 SLOAD DUP7 SWAP3 PUSH1 0x1 PUSH1 0x1 PUSH1 0xA0 SHL SUB SWAP1 DUP2 AND SWAP3 SWAP2 DUP2 AND SWAP2 AND DUP3 EXTCODESIZE ISZERO PUSH2 0x8AF JUMPI PUSH1 0x40 MLOAD PUSH4 0x6924FAA7 PUSH1 0xE1 SHL DUP2 MSTORE PUSH1 0x1 PUSH1 0x1 PUSH1 0xA0 SHL SUB SWAP2 DUP3 AND PUSH1 0x4 DUP3 ADD MSTORE SWAP2 AND PUSH1 0x24 DUP3 ADD MSTORE PUSH1 0x44 DUP2 ADD DUP7 SWAP1 MSTORE SWAP1 DUP3 SWAP1 DUP3 SWAP1 PUSH1 0x64 SWAP1 DUP3 SWAP1 DUP5 SWAP1 GAS CALL DUP1 ISZERO PUSH2 0x8B3 JUMPI PUSH2 0x2435 JUMPI JUMPDEST POP POP PUSH2 0x22FF JUMP JUMPDEST PUSH2 0x2441 SWAP1 SWAP4 SWAP3 SWAP4 PUSH2 0x4E92 JUMP JUMPDEST PUSH2 0x8AF JUMPI SWAP1 DUP4 DUP6 PUSH2 0x242E JUMP JUMPDEST PUSH1 0x3 SLOAD PUSH1 0x2 DUP4 ADD SLOAD PUSH1 0x1 DUP5 ADD SLOAD PUSH1 0x4 SLOAD DUP8 SWAP4 PUSH1 0x1 PUSH1 0x1 PUSH1 0xA0 SHL SUB SWAP2 DUP3 AND SWAP4 DUP3 AND SWAP3 DUP3 AND SWAP2 AND DUP1 EXTCODESIZE ISZERO PUSH2 0x24F6 JUMPI DUP5 SWAP3 DUP4 PUSH1 0xE4 SWAP3 PUSH1 0x40 MLOAD SWAP7 DUP8 SWAP6 DUP7 SWAP5 PUSH4 0x5FE3A8B PUSH1 0xE3 SHL DUP7 MSTORE PUSH1 0x4 DUP7 ADD MSTORE PUSH1 0x24 DUP6 ADD MSTORE PUSH1 0x44 DUP5 ADD MSTORE DUP9 PUSH1 0x64 DUP5 ADD MSTORE PUSH1 0xA0 PUSH1 0x84 DUP5 ADD MSTORE PUSH1 0x11 PUSH1 0xA4 DUP5 ADD MSTORE PUSH17 0x1CD95D1D1B195B595B9D081C185E5BDD5D PUSH1 0x7A SHL PUSH1 0xC4 DUP5 ADD MSTORE GAS CALL DUP1 ISZERO PUSH2 0x8B3 JUMPI PUSH2 0x24E2 JUMPI JUMPDEST POP POP PUSH2 0x22F9 JUMP JUMPDEST PUSH2 0x24EB SWAP1 PUSH2 0x4E92 JUMP JUMPDEST PUSH2 0x8AF JUMPI DUP4 DUP6 PUSH2 0x24DB JUMP JUMPDEST DUP5 DUP1 REVERT JUMPDEST POP DUP2 PUSH2 0x22E6 JUMP JUMPDEST PUSH1 0xF DUP3 ADD SLOAD SWAP3 POP PUSH2 0x22F3 JUMP JUMPDEST PUSH2 0x2530 SWAP3 SWAP4 POP PUSH2 0x2520 DUP3 PUSH2 0x252B SWAP3 PUSH2 0x570F JUMP JUMPDEST PUSH1 0x9 DUP6 ADD SLOAD SWAP1 PUSH2 0x54DD JUMP JUMPDEST PUSH2 0x54F0 JUMP JUMPDEST SWAP1 DUP4 DUP1 PUSH2 0x22CD JUMP JUMPDEST DUP1 DUP3 GT PUSH2 0x2547 JUMPI JUMPDEST POP POP PUSH2 0x22D0 JUMP JUMPDEST PUSH2 0x255A SWAP3 SWAP4 POP PUSH2 0x2520 PUSH2 0x252B SWAP2 DUP4 PUSH2 0x570F JUMP JUMPDEST SWAP1 DUP4 DUP1 PUSH2 0x2540 JUMP JUMPDEST PUSH1 0x19 DUP4 ADD SLOAD SWAP1 DUP2 LT ISZERO PUSH2 0x257E JUMPI PUSH2 0x2578 SWAP2 PUSH2 0x570F JUMP JUMPDEST DUP5 PUSH2 0x22AD JUMP JUMPDEST POP POP DUP3 PUSH2 0x2578 JUMP JUMPDEST POP PUSH1 0x19 DUP4 ADD SLOAD ISZERO ISZERO PUSH2 0x22A8 JUMP JUMPDEST PUSH1 0x12 SUB PUSH1 0x12 DUP2 GT PUSH2 0x223C JUMPI PUSH1 0x4D DUP2 GT PUSH2 0x223C JUMPI SWAP1 PUSH2 0x25B4 SWAP2 PUSH1 0xA EXP SWAP1 PUSH2 0x54DD JUMP JUMPDEST DUP6 PUSH2 0x229C JUMP JUMPDEST PUSH1 0x40 MLOAD PUSH3 0x461BCD PUSH1 0xE5 SHL DUP2 MSTORE PUSH1 0x20 PUSH1 0x4 DUP3 ADD MSTORE PUSH1 0x1A PUSH1 0x24 DUP3 ADD MSTORE PUSH32 0x4F7074696F6E73436F72653A206E6F2066656564207072696365000000000000 PUSH1 0x44 DUP3 ADD MSTORE PUSH1 0x64 SWAP1 REVERT JUMPDEST PUSH1 0x40 MLOAD PUSH3 0x461BCD PUSH1 0xE5 SHL DUP2 MSTORE PUSH1 0x20 PUSH1 0x4 DUP3 ADD MSTORE PUSH1 0x23 PUSH1 0x24 DUP3 ADD MSTORE PUSH32 0x4F7074696F6E73436F72653A206E6F742070656E64696E6720736574746C656D PUSH1 0x44 DUP3 ADD MSTORE PUSH3 0x195B9D PUSH1 0xEA SHL PUSH1 0x64 DUP3 ADD MSTORE PUSH1 0x84 SWAP1 REVERT JUMPDEST PUSH4 0x4E487B71 PUSH1 0xE0 SHL DUP5 MSTORE PUSH1 0x21 PUSH1 0x4 MSTORE PUSH1 0x24 DUP5 REVERT JUMPDEST POP PUSH1 0x5 SLOAD PUSH1 0x4 CALLDATALOAD LT PUSH2 0x211F JUMP JUMPDEST POP CALLVALUE PUSH2 0x2B6 JUMPI DUP1 PUSH1 0x3 NOT CALLDATASIZE ADD SLT PUSH2 0x2B6 JUMPI PUSH1 0x3 SLOAD PUSH1 0x40 MLOAD PUSH1 0x1 PUSH1 0x1 PUSH1 0xA0 SHL SUB SWAP1 SWAP2 AND DUP2 MSTORE PUSH1 0x20 SWAP1 RETURN JUMPDEST POP CALLVALUE PUSH2 0x2B6 JUMPI DUP1 PUSH1 0x3 NOT CALLDATASIZE ADD SLT PUSH2 0x2B6 JUMPI PUSH2 0x26B3 PUSH2 0x502B JUMP JUMPDEST PUSH2 0x26BB PUSH2 0x5457 JUMP JUMPDEST PUSH1 0x1 PUSH1 0xFF NOT PUSH1 0x2 SLOAD AND OR PUSH1 0x2 SSTORE PUSH32 0x62E78CEA01BEE320CD4E420270B5EA74000D11B0C9F74754EBDBFC544B05A258 PUSH1 0x20 PUSH1 0x40 MLOAD CALLER DUP2 MSTORE LOG1 DUP1 RETURN JUMPDEST POP CALLVALUE PUSH2 0x2B6 JUMPI PUSH1 0x20 DUP1 PUSH1 0x3 NOT CALLDATASIZE ADD SLT PUSH2 0x338 JUMPI PUSH1 0x4 CALLDATALOAD PUSH1 0x1 PUSH1 0x1 PUSH1 0x40 SHL SUB DUP2 GT PUSH2 0x2B2 JUMPI PUSH2 0x2728 DUP3 SWAP2 CALLDATASIZE SWAP1 PUSH1 0x4 ADD PUSH2 0x4CCF JUMP JUMPDEST SWAP2 SWAP1 DUP3 PUSH1 0x40 MLOAD SWAP4 DUP5 SWAP3 DUP4 CALLDATACOPY DUP2 ADD PUSH1 0xD DUP2 MSTORE SUB ADD SWAP1 KECCAK256 SWAP2 PUSH1 0x40 MLOAD DUP1 SWAP3 DUP1 DUP6 SLOAD SWAP3 DUP4 DUP2 MSTORE ADD SWAP5 DUP4 MSTORE DUP1 DUP4 KECCAK256 SWAP3 SWAP1 JUMPDEST DUP3 DUP3 LT PUSH2 0x276B JUMPI PUSH2 0x2AE DUP6 PUSH2 0x315 DUP2 DUP10 SUB DUP3 PUSH2 0x4EF3 JUMP JUMPDEST DUP4 SLOAD DUP7 MSTORE SWAP5 DUP6 ADD SWAP5 PUSH1 0x1 SWAP4 DUP5 ADD SWAP4 SWAP1 SWAP2 ADD SWAP1 PUSH2 0x2754 JUMP JUMPDEST POP CALLVALUE PUSH2 0x2B6 JUMPI DUP1 PUSH1 0x3 NOT CALLDATASIZE ADD SLT PUSH2 0x2B6 JUMPI PUSH1 0x2 SLOAD PUSH1 0x40 MLOAD PUSH1 0x8 SWAP2 SWAP1 SWAP2 SHR PUSH1 0x1 PUSH1 0x1 PUSH1 0xA0 SHL SUB AND DUP2 MSTORE PUSH1 0x20 SWAP1 RETURN JUMPDEST POP CALLVALUE PUSH2 0x2B6 JUMPI PUSH2 0x27BE CALLDATASIZE PUSH2 0x4D38 JUMP JUMPDEST DUP2 ISZERO ISZERO DUP1 PUSH2 0x2941 JUMPI JUMPDEST PUSH2 0x27D0 SWAP1 PUSH2 0x551D JUMP JUMPDEST PUSH2 0x27D8 PUSH2 0x5475 JUMP JUMPDEST PUSH2 0x27E0 PUSH2 0x5457 JUMP JUMPDEST DUP3 DUP1 MSTORE DUP3 PUSH1 0x20 MSTORE PUSH1 0x40 DUP4 KECCAK256 CALLER PUSH1 0x0 MSTORE PUSH1 0x20 MSTORE PUSH2 0x2803 PUSH1 0xFF PUSH1 0x40 PUSH1 0x0 KECCAK256 SLOAD AND PUSH2 0x571C JUMP JUMPDEST DUP2 DUP4 MSTORE PUSH1 0x7 PUSH1 0x20 MSTORE PUSH1 0x40 DUP4 KECCAK256 SWAP1 PUSH1 0x14 DUP3 ADD SLOAD PUSH1 0xFF DUP2 PUSH1 0x10 SHR AND PUSH1 0xB DUP2 LT ISZERO PUSH2 0x6C9 JUMPI SWAP1 PUSH2 0x2834 PUSH1 0x4 PUSH1 0xFF SWAP4 EQ PUSH2 0x56C3 JUMP JUMPDEST AND ISZERO PUSH2 0x28E7 JUMPI DUP1 ISZERO PUSH2 0x2893 JUMPI PUSH1 0x19 PUSH32 0xDD46D8CD4968AFB89542D91BA59208E869E45FF03DCDA531AA39FD6888A174C3 SWAP3 ADD PUSH2 0x2870 DUP3 DUP3 SLOAD PUSH2 0x5510 JUMP JUMPDEST SWAP1 DUP2 SWAP1 SSTORE PUSH1 0x40 DUP1 MLOAD SWAP3 DUP4 MSTORE PUSH1 0x20 DUP4 ADD SWAP2 SWAP1 SWAP2 MSTORE TIMESTAMP SWAP1 DUP3 ADD MSTORE PUSH1 0x60 SWAP1 LOG2 PUSH1 0x1 DUP1 SSTORE DUP1 RETURN JUMPDEST PUSH1 0x40 MLOAD PUSH3 0x461BCD PUSH1 0xE5 SHL DUP2 MSTORE PUSH1 0x20 PUSH1 0x4 DUP3 ADD MSTORE PUSH1 0x26 PUSH1 0x24 DUP3 ADD MSTORE PUSH32 0x4F7074696F6E73436F72653A206469766964656E64206D75737420626520706F PUSH1 0x44 DUP3 ADD MSTORE PUSH6 0x736974697665 PUSH1 0xD0 SHL PUSH1 0x64 DUP3 ADD MSTORE PUSH1 0x84 SWAP1 REVERT JUMPDEST PUSH1 0x40 MLOAD PUSH3 0x461BCD PUSH1 0xE5 SHL DUP2 MSTORE PUSH1 0x20 PUSH1 0x4 DUP3 ADD MSTORE PUSH1 0x2C PUSH1 0x24 DUP3 ADD MSTORE PUSH32 0x4F7074696F6E73436F72653A206469766964656E642061646A7573746D656E74 PUSH1 0x44 DUP3 ADD MSTORE PUSH12 0x81B9BDD08195B98589B1959 PUSH1 0xA2 SHL PUSH1 0x64 DUP3 ADD MSTORE PUSH1 0x84 SWAP1 REVERT JUMPDEST POP PUSH1 0x5 SLOAD DUP3 LT PUSH2 0x27C7 JUMP JUMPDEST POP CALLVALUE PUSH2 0x2B6 JUMPI PUSH1 0xC0 CALLDATASIZE PUSH1 0x3 NOT ADD SLT PUSH2 0x2B6 JUMPI PUSH1 0x3 PUSH1 0x64 CALLDATALOAD LT ISZERO PUSH2 0x2B6 JUMPI PUSH1 0x84 CALLDATALOAD PUSH1 0xFF DUP2 AND DUP2 SUB PUSH2 0x2052 JUMPI PUSH1 0xA4 CALLDATALOAD PUSH1 0xFF DUP2 AND DUP2 SUB PUSH2 0x2052 JUMPI PUSH1 0x4 CALLDATALOAD ISZERO ISZERO DUP1 PUSH2 0x2F09 JUMPI JUMPDEST PUSH2 0x2997 SWAP1 PUSH2 0x551D JUMP JUMPDEST PUSH2 0x299F PUSH2 0x5475 JUMP JUMPDEST PUSH2 0x29A7 PUSH2 0x5457 JUMP JUMPDEST PUSH1 0x4 CALLDATALOAD DUP4 MSTORE PUSH1 0x7 PUSH1 0x20 MSTORE PUSH1 0x40 DUP4 KECCAK256 SWAP1 PUSH1 0xFF PUSH1 0x14 DUP4 ADD SLOAD PUSH1 0x10 SHR AND PUSH1 0xB DUP2 LT ISZERO PUSH2 0x2C83 JUMPI DUP1 ISZERO SWAP1 DUP2 ISZERO PUSH2 0x2EFE JUMPI JUMPDEST POP ISZERO PUSH2 0x2EA9 JUMPI PUSH1 0x1 DUP3 ADD SLOAD PUSH1 0x1 PUSH1 0x1 PUSH1 0xA0 SHL SUB AND ISZERO PUSH2 0x2E64 JUMPI PUSH1 0x15 DUP3 ADD SLOAD PUSH1 0x2 SLOAD PUSH1 0x40 MLOAD PUSH4 0x4F6BFAD7 PUSH1 0xE0 SHL DUP2 MSTORE PUSH1 0x8 SWAP2 SWAP1 SWAP2 SHR PUSH1 0x1 PUSH1 0x1 PUSH1 0xA0 SHL SUB AND SWAP2 PUSH1 0x20 DUP3 PUSH1 0x4 DUP2 DUP7 GAS STATICCALL SWAP1 DUP2 ISZERO PUSH2 0x2E59 JUMPI DUP8 SWAP2 PUSH2 0x2E23 JUMPI JUMPDEST PUSH2 0x2A33 SWAP3 POP PUSH2 0x5510 JUMP JUMPDEST TIMESTAMP LT ISZERO PUSH2 0x2DDE JUMPI PUSH1 0x4 SWAP1 DUP2 CALLDATALOAD DUP7 MSTORE PUSH1 0x8 PUSH1 0x20 MSTORE PUSH1 0x20 PUSH1 0x40 DUP8 KECCAK256 SLOAD SWAP2 PUSH1 0x40 MLOAD SWAP4 DUP5 DUP1 SWAP3 PUSH4 0xBE0CBCD PUSH1 0xE2 SHL DUP3 MSTORE GAS STATICCALL SWAP2 DUP3 ISZERO PUSH2 0x205F JUMPI DUP7 SWAP3 PUSH2 0x2DAA JUMPI JUMPDEST POP LT ISZERO PUSH2 0x2D65 JUMPI PUSH1 0x11 DUP3 ADD SLOAD PUSH1 0x2 PUSH1 0xFF DUP3 PUSH1 0x20 SHR AND PUSH2 0x2A8D DUP2 PUSH2 0x4DB7 JUMP JUMPDEST EQ PUSH2 0x2CFD JUMPI JUMPDEST POP PUSH2 0x2710 PUSH2 0x2AA7 PUSH1 0x44 CALLDATALOAD PUSH1 0x9 DUP6 ADD SLOAD PUSH2 0x54DD JUMP JUMPDEST DIV PUSH2 0x2ABA PUSH1 0x10 DUP5 ADD SLOAD PUSH1 0x44 CALLDATALOAD LT ISZERO PUSH2 0x5251 JUMP JUMPDEST PUSH1 0x4 SLOAD PUSH1 0x3 SLOAD PUSH2 0x2ADA SWAP2 DUP4 SWAP2 PUSH1 0x1 PUSH1 0x1 PUSH1 0xA0 SHL SUB SWAP1 DUP2 AND SWAP2 CALLER SWAP2 AND PUSH2 0x53B0 JUMP JUMPDEST PUSH1 0x6 SLOAD SWAP4 PUSH2 0x2AE7 DUP6 PUSH2 0x529C JUMP JUMPDEST PUSH1 0x6 SSTORE PUSH2 0x2710 PUSH2 0x2AFD PUSH1 0x24 CALLDATALOAD PUSH1 0x9 DUP8 ADD SLOAD PUSH2 0x54DD JUMP JUMPDEST DIV SWAP3 PUSH1 0x4 PUSH1 0x20 PUSH1 0x1 DUP1 PUSH1 0xA0 SHL SUB PUSH1 0x2 SLOAD PUSH1 0x8 SHR AND PUSH1 0x40 MLOAD SWAP3 DUP4 DUP1 SWAP3 PUSH4 0x6A15D6D PUSH1 0xE1 SHL DUP3 MSTORE GAS STATICCALL SWAP1 DUP2 ISZERO PUSH2 0x2CF2 JUMPI DUP9 SWAP2 PUSH2 0x2CBF JUMPI JUMPDEST POP PUSH1 0xFF SWAP3 PUSH2 0x2B41 DUP5 SWAP3 TIMESTAMP PUSH2 0x5510 JUMP JUMPDEST SWAP5 PUSH1 0x40 MLOAD SWAP7 PUSH2 0x2B4F DUP9 PUSH2 0x4EBB JUMP JUMPDEST DUP10 DUP9 MSTORE PUSH1 0x4 CALLDATALOAD PUSH1 0x20 DUP10 ADD MSTORE CALLER PUSH1 0x40 DUP10 ADD MSTORE DUP11 PUSH1 0x60 DUP10 ADD MSTORE PUSH1 0x24 CALLDATALOAD PUSH1 0x80 DUP10 ADD MSTORE PUSH1 0xA0 DUP9 ADD MSTORE PUSH1 0x44 CALLDATALOAD PUSH1 0xC0 DUP9 ADD MSTORE PUSH1 0xE0 DUP8 ADD MSTORE PUSH2 0x2B8B PUSH1 0x64 CALLDATALOAD PUSH2 0x4DB7 JUMP JUMPDEST PUSH1 0x64 CALLDATALOAD PUSH2 0x100 DUP8 ADD MSTORE AND PUSH2 0x120 DUP6 ADD MSTORE AND PUSH2 0x140 DUP4 ADD MSTORE TIMESTAMP PUSH2 0x160 DUP4 ADD MSTORE PUSH2 0x180 DUP3 ADD MSTORE DUP4 PUSH2 0x1A0 DUP3 ADD MSTORE DUP3 DUP5 MSTORE PUSH1 0x9 PUSH1 0x20 MSTORE PUSH2 0x2BCB DUP2 PUSH1 0x40 DUP7 KECCAK256 PUSH2 0x5569 JUMP JUMPDEST PUSH1 0x4 CALLDATALOAD DUP5 MSTORE PUSH1 0x8 PUSH1 0x20 MSTORE PUSH1 0x40 DUP5 KECCAK256 DUP1 SLOAD SWAP1 PUSH1 0x1 PUSH1 0x40 SHL DUP3 LT ISZERO PUSH2 0x2CAB JUMPI SWAP1 PUSH2 0x2BF8 SWAP2 PUSH1 0x1 DUP3 ADD DUP2 SSTORE PUSH2 0x500F JUMP JUMPDEST PUSH2 0x2C97 JUMPI SWAP1 PUSH2 0x2C06 SWAP2 PUSH2 0x5569 JUMP JUMPDEST PUSH1 0x14 DUP2 ADD SLOAD PUSH1 0xFF DUP2 PUSH1 0x10 SHR AND PUSH1 0xB DUP2 LT ISZERO PUSH2 0x2C83 JUMPI PUSH1 0x20 SWAP5 POP ISZERO PUSH2 0x2C6B JUMPI JUMPDEST POP POP PUSH1 0x40 MLOAD PUSH1 0x24 CALLDATALOAD DUP2 MSTORE TIMESTAMP DUP4 DUP3 ADD MSTORE DUP2 CALLER SWAP2 PUSH32 0x878FE3F9BCA373E42473C1F3AD3C9C35C4F1ECAF9A5F081A801A3FBD43049F55 PUSH1 0x40 PUSH1 0x4 CALLDATALOAD SWAP3 LOG4 PUSH1 0x1 DUP1 SSTORE PUSH1 0x40 MLOAD SWAP1 DUP2 MSTORE RETURN JUMPDEST PUSH3 0x10000 PUSH1 0x14 SWAP2 PUSH3 0xFF0000 NOT AND OR SWAP2 ADD SSTORE CODESIZE DUP1 PUSH2 0x2C25 JUMP JUMPDEST PUSH4 0x4E487B71 PUSH1 0xE0 SHL DUP6 MSTORE PUSH1 0x21 PUSH1 0x4 MSTORE PUSH1 0x24 DUP6 REVERT JUMPDEST PUSH4 0x4E487B71 PUSH1 0xE0 SHL DUP6 MSTORE PUSH1 0x4 DUP6 SWAP1 MSTORE PUSH1 0x24 DUP6 REVERT JUMPDEST PUSH4 0x4E487B71 PUSH1 0xE0 SHL DUP7 MSTORE PUSH1 0x41 PUSH1 0x4 MSTORE PUSH1 0x24 DUP7 REVERT JUMPDEST SWAP1 POP PUSH1 0x20 DUP2 RETURNDATASIZE PUSH1 0x20 GT PUSH2 0x2CEA JUMPI JUMPDEST DUP2 PUSH2 0x2CDA PUSH1 0x20 SWAP4 DUP4 PUSH2 0x4EF3 JUMP JUMPDEST DUP2 ADD SUB SLT PUSH2 0x2052 JUMPI MLOAD PUSH1 0xFF PUSH2 0x2B32 JUMP JUMPDEST RETURNDATASIZE SWAP2 POP PUSH2 0x2CCD JUMP JUMPDEST PUSH1 0x40 MLOAD RETURNDATASIZE DUP11 DUP3 RETURNDATACOPY RETURNDATASIZE SWAP1 REVERT JUMPDEST PUSH1 0x28 SHR PUSH1 0x1 PUSH1 0x1 PUSH1 0xA0 SHL SUB AND CALLER SUB PUSH2 0x2D15 JUMPI CODESIZE PUSH2 0x2A93 JUMP JUMPDEST PUSH1 0x40 MLOAD PUSH3 0x461BCD PUSH1 0xE5 SHL DUP2 MSTORE PUSH1 0x20 PUSH1 0x4 DUP3 ADD MSTORE PUSH1 0x22 PUSH1 0x24 DUP3 ADD MSTORE PUSH32 0x4F7074696F6E73436F72653A206E6F742064657369676E617465642073656C6C PUSH1 0x44 DUP3 ADD MSTORE PUSH2 0x32B9 PUSH1 0xF1 SHL PUSH1 0x64 DUP3 ADD MSTORE PUSH1 0x84 SWAP1 REVERT JUMPDEST PUSH1 0x40 MLOAD PUSH3 0x461BCD PUSH1 0xE5 SHL DUP2 MSTORE PUSH1 0x20 PUSH1 0x4 DUP3 ADD MSTORE PUSH1 0x1F PUSH1 0x24 DUP3 ADD MSTORE PUSH32 0x4F7074696F6E73436F72653A206D61782071756F746573207265616368656400 PUSH1 0x44 DUP3 ADD MSTORE PUSH1 0x64 SWAP1 REVERT JUMPDEST SWAP1 SWAP2 POP PUSH1 0x20 DUP2 RETURNDATASIZE PUSH1 0x20 GT PUSH2 0x2DD6 JUMPI JUMPDEST DUP2 PUSH2 0x2DC6 PUSH1 0x20 SWAP4 DUP4 PUSH2 0x4EF3 JUMP JUMPDEST DUP2 ADD SUB SLT PUSH2 0x2052 JUMPI MLOAD SWAP1 CODESIZE PUSH2 0x2A6F JUMP JUMPDEST RETURNDATASIZE SWAP2 POP PUSH2 0x2DB9 JUMP JUMPDEST PUSH1 0x40 MLOAD PUSH3 0x461BCD PUSH1 0xE5 SHL DUP2 MSTORE PUSH1 0x20 PUSH1 0x4 DUP3 ADD MSTORE PUSH1 0x18 PUSH1 0x24 DUP3 ADD MSTORE PUSH32 0x4F7074696F6E73436F72653A2052465120657870697265640000000000000000 PUSH1 0x44 DUP3 ADD MSTORE PUSH1 0x64 SWAP1 REVERT JUMPDEST SWAP1 POP PUSH1 0x20 DUP3 RETURNDATASIZE PUSH1 0x20 GT PUSH2 0x2E51 JUMPI JUMPDEST DUP2 PUSH2 0x2E3E PUSH1 0x20 SWAP4 DUP4 PUSH2 0x4EF3 JUMP JUMPDEST DUP2 ADD SUB SLT PUSH2 0x2052 JUMPI PUSH2 0x2A33 SWAP2 MLOAD SWAP1 PUSH2 0x2A29 JUMP JUMPDEST RETURNDATASIZE SWAP2 POP PUSH2 0x2E31 JUMP JUMPDEST PUSH1 0x40 MLOAD RETURNDATASIZE DUP10 DUP3 RETURNDATACOPY RETURNDATASIZE SWAP1 REVERT JUMPDEST PUSH1 0x40 MLOAD PUSH3 0x461BCD PUSH1 0xE5 SHL DUP2 MSTORE PUSH1 0x20 PUSH1 0x4 DUP3 ADD MSTORE PUSH1 0x1E PUSH1 0x24 DUP3 ADD MSTORE PUSH32 0x4F7074696F6E73436F72653A206E6F742061206275796572206F726465720000 PUSH1 0x44 DUP3 ADD MSTORE PUSH1 0x64 SWAP1 REVERT JUMPDEST PUSH1 0x40 MLOAD PUSH3 0x461BCD PUSH1 0xE5 SHL DUP2 MSTORE PUSH1 0x20 PUSH1 0x4 DUP3 ADD MSTORE PUSH1 0x27 PUSH1 0x24 DUP3 ADD MSTORE PUSH32 0x4F7074696F6E73436F72653A206F72646572206E6F7420616363657074696E67 PUSH1 0x44 DUP3 ADD MSTORE PUSH7 0x2071756F746573 PUSH1 0xC8 SHL PUSH1 0x64 DUP3 ADD MSTORE PUSH1 0x84 SWAP1 REVERT JUMPDEST PUSH1 0x1 SWAP2 POP EQ CODESIZE PUSH2 0x29D4 JUMP JUMPDEST POP PUSH1 0x5 SLOAD PUSH1 0x4 CALLDATALOAD LT PUSH2 0x298E JUMP JUMPDEST POP PUSH1 0x40 CALLDATASIZE PUSH1 0x3 NOT ADD SLT PUSH2 0x2B6 JUMPI PUSH1 0x4 CALLDATALOAD PUSH1 0x3 PUSH1 0x24 CALLDATALOAD LT ISZERO PUSH2 0x338 JUMPI SWAP1 DUP2 PUSH2 0x2F67 SWAP3 ISZERO ISZERO DUP1 PUSH2 0x2FD3 JUMPI JUMPDEST PUSH2 0x2F48 SWAP1 PUSH2 0x551D JUMP JUMPDEST DUP2 MSTORE PUSH1 0x7 PUSH1 0x20 MSTORE PUSH1 0x40 SWAP1 KECCAK256 PUSH1 0x1 ADD SLOAD PUSH1 0x1 PUSH1 0x1 PUSH1 0xA0 SHL SUB AND CALLER EQ PUSH2 0x5498 JUMP JUMPDEST PUSH2 0x2F6F PUSH2 0x5475 JUMP JUMPDEST PUSH2 0x2F77 PUSH2 0x5457 JUMP JUMPDEST PUSH1 0x40 MLOAD PUSH3 0x461BCD PUSH1 0xE5 SHL DUP2 MSTORE PUSH1 0x20 PUSH1 0x4 DUP3 ADD MSTORE PUSH1 0x2E PUSH1 0x24 DUP3 ADD MSTORE PUSH32 0x4F7074696F6E73436F72653A20666565642070726F746F636F6C206E6F742069 PUSH1 0x44 DUP3 ADD MSTORE PUSH14 0x1B5C1B195B595B9D1959081E595D PUSH1 0x92 SHL PUSH1 0x64 DUP3 ADD MSTORE PUSH1 0x84 SWAP1 REVERT JUMPDEST POP PUSH1 0x5 SLOAD DUP2 LT PUSH2 0x2F3F JUMP JUMPDEST POP CALLVALUE PUSH2 0x2B6 JUMPI PUSH1 0x20 CALLDATASIZE PUSH1 0x3 NOT ADD SLT PUSH2 0x2B6 JUMPI PUSH1 0x4 CALLDATALOAD DUP1 ISZERO ISZERO DUP1 PUSH2 0x30FF JUMPI JUMPDEST PUSH2 0x3005 SWAP1 PUSH2 0x551D JUMP JUMPDEST PUSH2 0x300D PUSH2 0x5475 JUMP JUMPDEST PUSH2 0x3015 PUSH2 0x5457 JUMP JUMPDEST DUP1 DUP3 MSTORE PUSH1 0x7 PUSH1 0x20 MSTORE PUSH1 0x40 DUP3 KECCAK256 PUSH1 0x14 DUP2 ADD SWAP1 DUP2 SLOAD SWAP2 PUSH1 0xFF DUP4 PUSH1 0x10 SHR AND SWAP3 PUSH1 0xB DUP5 LT ISZERO PUSH2 0x6C9 JUMPI PUSH32 0xB009A900F426C0C9177ACB33A8A806B35C53AC253D1DDF22D687986FC6B72CE4 PUSH1 0x60 PUSH1 0xC0 SWAP5 DUP7 SWAP5 PUSH3 0x90000 DUP10 SWAP6 PUSH2 0x3083 PUSH1 0x4 PUSH1 0x0 DUP1 MLOAD PUSH1 0x20 PUSH2 0x58B1 DUP4 CODECOPY DUP2 MLOAD SWAP2 MSTORE SWAP12 EQ PUSH2 0x56C3 JUMP JUMPDEST PUSH3 0xFF0000 NOT AND OR SWAP1 SSTORE TIMESTAMP PUSH1 0x17 DUP3 ADD SSTORE PUSH1 0xF PUSH1 0x1 DUP1 PUSH1 0xA0 SHL SUB PUSH1 0x1 DUP4 ADD SLOAD AND SWAP2 ADD SLOAD PUSH1 0x40 MLOAD SWAP2 DUP3 MSTORE PUSH1 0x20 DUP3 ADD MSTORE TIMESTAMP PUSH1 0x40 DUP3 ADD MSTORE LOG2 PUSH2 0x30C3 PUSH1 0x40 MLOAD DUP1 SWAP3 PUSH2 0x5002 JUMP JUMPDEST PUSH1 0x9 PUSH1 0x20 DUP3 ADD MSTORE PUSH1 0x80 PUSH1 0x40 DUP3 ADD MSTORE PUSH1 0x10 PUSH1 0x80 DUP3 ADD MSTORE PUSH16 0x199BDC98D9481B1A5C5D5A59185D1959 PUSH1 0x82 SHL PUSH1 0xA0 DUP3 ADD MSTORE TIMESTAMP PUSH1 0x60 DUP3 ADD MSTORE LOG2 PUSH1 0x1 DUP1 SSTORE DUP1 RETURN JUMPDEST POP PUSH1 0x5 SLOAD DUP2 LT PUSH2 0x2FFC JUMP JUMPDEST POP PUSH1 0x20 DUP1 PUSH1 0x3 NOT CALLDATASIZE ADD SLT PUSH2 0x338 JUMPI PUSH1 0x4 CALLDATALOAD SWAP1 DUP2 ISZERO ISZERO DUP1 PUSH2 0x338D JUMPI JUMPDEST PUSH2 0x312E SWAP1 PUSH2 0x551D JUMP JUMPDEST PUSH2 0x3136 PUSH2 0x5475 JUMP JUMPDEST PUSH2 0x313E PUSH2 0x5457 JUMP JUMPDEST DUP2 DUP4 MSTORE PUSH1 0x7 DUP2 MSTORE PUSH1 0x40 DUP4 KECCAK256 PUSH1 0x14 DUP2 ADD SWAP1 PUSH1 0xFF DUP3 SLOAD PUSH1 0x10 SHR AND PUSH1 0xB DUP2 LT ISZERO PUSH2 0x6C9 JUMPI PUSH1 0x6 SUB PUSH2 0x3337 JUMPI PUSH1 0x1 DUP2 ADD SLOAD PUSH1 0x1 PUSH1 0x1 PUSH1 0xA0 SHL SUB SWAP2 SWAP1 DUP3 AND CALLER EQ DUP1 ISZERO PUSH2 0x3328 JUMPI JUMPDEST ISZERO PUSH2 0x32E3 JUMPI DUP1 PUSH1 0x12 PUSH1 0x17 PUSH2 0x3199 SWAP4 ADD SLOAD SWAP2 ADD SLOAD SWAP1 PUSH2 0x5510 JUMP JUMPDEST TIMESTAMP GT PUSH2 0x328F JUMPI DUP1 PUSH1 0x4 SWAP2 DUP3 SLOAD AND DUP5 DUP3 PUSH1 0x3 SLOAD AND SWAP3 PUSH1 0x2 SLOAD PUSH1 0x8 SHR AND PUSH1 0x40 MLOAD SWAP5 DUP6 DUP1 SWAP3 PUSH4 0x39F4F75 PUSH1 0xE3 SHL DUP3 MSTORE GAS STATICCALL SWAP3 DUP4 ISZERO PUSH2 0x2E59 JUMPI DUP8 SWAP4 PUSH2 0x325A JUMPI JUMPDEST POP SWAP4 PUSH2 0x321D PUSH1 0xC0 SWAP5 PUSH2 0x31FD PUSH1 0xFF SWAP6 PUSH1 0x7 SWAP6 PUSH1 0x0 DUP1 MLOAD PUSH1 0x20 PUSH2 0x58B1 DUP4 CODECOPY DUP2 MLOAD SWAP2 MSTORE SWAP10 CALLER SWAP1 PUSH2 0x53B0 JUMP JUMPDEST DUP1 SLOAD PUSH3 0xFF0000 NOT DUP2 AND PUSH3 0x70000 OR SWAP1 SWAP2 SSTORE PUSH1 0x40 MLOAD SWAP5 DUP6 SWAP2 PUSH1 0x10 SHR AND PUSH2 0x5002 JUMP JUMPDEST DUP3 ADD MSTORE PUSH1 0x80 PUSH1 0x40 DUP3 ADD MSTORE PUSH1 0x15 PUSH1 0x80 DUP3 ADD MSTORE PUSH21 0x185C989A5D1C985D1A5BDB881A5B9A5D1A585D1959 PUSH1 0x5A SHL PUSH1 0xA0 DUP3 ADD MSTORE TIMESTAMP PUSH1 0x60 DUP3 ADD MSTORE LOG2 PUSH1 0x1 DUP1 SSTORE DUP1 RETURN JUMPDEST SWAP3 POP SWAP1 SWAP4 DUP1 DUP4 DUP2 RETURNDATASIZE DUP4 GT PUSH2 0x3288 JUMPI JUMPDEST PUSH2 0x3273 DUP2 DUP4 PUSH2 0x4EF3 JUMP JUMPDEST DUP2 ADD SUB SLT PUSH2 0x2052 JUMPI SWAP2 MLOAD SWAP2 SWAP4 SWAP1 PUSH2 0x321D PUSH2 0x31D5 JUMP JUMPDEST POP RETURNDATASIZE PUSH2 0x3269 JUMP JUMPDEST PUSH1 0x40 MLOAD PUSH3 0x461BCD PUSH1 0xE5 SHL DUP2 MSTORE PUSH1 0x4 DUP2 ADD DUP5 SWAP1 MSTORE PUSH1 0x26 PUSH1 0x24 DUP3 ADD MSTORE PUSH32 0x4F7074696F6E73436F72653A206172626974726174696F6E2077696E646F7720 PUSH1 0x44 DUP3 ADD MSTORE PUSH6 0x18DB1BDCD959 PUSH1 0xD2 SHL PUSH1 0x64 DUP3 ADD MSTORE PUSH1 0x84 SWAP1 REVERT JUMPDEST PUSH1 0x40 MLOAD PUSH3 0x461BCD PUSH1 0xE5 SHL DUP2 MSTORE PUSH1 0x4 DUP2 ADD DUP6 SWAP1 MSTORE PUSH1 0x1F PUSH1 0x24 DUP3 ADD MSTORE PUSH32 0x4F7074696F6E73436F72653A206E6F7420706172747920746F206F7264657200 PUSH1 0x44 DUP3 ADD MSTORE PUSH1 0x64 SWAP1 REVERT JUMPDEST POP DUP2 PUSH1 0x2 DUP3 ADD SLOAD AND CALLER EQ PUSH2 0x3180 JUMP JUMPDEST PUSH1 0x40 MLOAD PUSH3 0x461BCD PUSH1 0xE5 SHL DUP2 MSTORE PUSH1 0x4 DUP2 ADD DUP5 SWAP1 MSTORE PUSH1 0x28 PUSH1 0x24 DUP3 ADD MSTORE PUSH32 0x4F7074696F6E73436F72653A2063616E6E6F7420696E69746961746520617262 PUSH1 0x44 DUP3 ADD MSTORE PUSH8 0x34BA3930BA34B7B7 PUSH1 0xC1 SHL PUSH1 0x64 DUP3 ADD MSTORE PUSH1 0x84 SWAP1 REVERT JUMPDEST POP PUSH1 0x5 SLOAD DUP3 LT PUSH2 0x3125 JUMP JUMPDEST POP CALLVALUE PUSH2 0x2B6 JUMPI PUSH1 0x20 DUP1 PUSH1 0x3 NOT CALLDATASIZE ADD SLT PUSH2 0x338 JUMPI PUSH1 0x4 CALLDATALOAD SWAP1 DUP2 ISZERO ISZERO DUP1 PUSH2 0x36D3 JUMPI JUMPDEST PUSH2 0x33C1 SWAP1 PUSH2 0x551D JUMP JUMPDEST PUSH2 0x33C9 PUSH2 0x5475 JUMP JUMPDEST PUSH2 0x33D1 PUSH2 0x5457 JUMP JUMPDEST DUP2 DUP4 MSTORE PUSH1 0x7 DUP2 MSTORE PUSH1 0x40 DUP4 KECCAK256 SWAP1 PUSH1 0x14 DUP3 ADD SWAP3 DUP4 SLOAD SWAP4 PUSH1 0xFF DUP6 PUSH1 0x10 SHR AND SWAP4 PUSH1 0xB DUP6 LT ISZERO PUSH2 0x36BF JUMPI DUP5 PUSH2 0x367C JUMPI PUSH1 0x2 DUP2 ADD SWAP3 PUSH1 0x1 DUP1 PUSH1 0xA0 SHL SUB SWAP3 DUP4 DUP6 SLOAD AND SWAP8 DUP9 ISZERO PUSH2 0x3637 JUMPI PUSH1 0x1 DUP5 ADD SWAP9 DUP10 SLOAD SWAP1 DUP7 DUP3 AND PUSH2 0x35F2 JUMPI CALLER EQ PUSH2 0x35A1 JUMPI PUSH1 0x1 PUSH1 0x1 PUSH1 0xA0 SHL SUB NOT AND CALLER OR DUP10 SSTORE PUSH3 0xFF0000 NOT AND PUSH3 0x20000 OR SWAP1 SSTORE TIMESTAMP PUSH1 0x16 DUP4 ADD SSTORE PUSH1 0x9 DUP3 ADD SLOAD PUSH1 0x2 SLOAD PUSH1 0x40 MLOAD PUSH4 0x1C03BE35 PUSH1 0xE3 SHL DUP2 MSTORE SWAP2 SWAP1 DUP8 SWAP1 DUP4 SWAP1 PUSH1 0x4 SWAP1 DUP3 SWAP1 PUSH1 0x8 SHR DUP10 AND GAS STATICCALL SWAP2 DUP3 ISZERO PUSH2 0x3596 JUMPI DUP11 SWAP3 PUSH2 0x3558 JUMPI JUMPDEST POP SWAP4 PUSH1 0xC0 SWAP7 SWAP4 PUSH2 0x34DC PUSH1 0x0 DUP1 MLOAD PUSH1 0x20 PUSH2 0x58B1 DUP4 CODECOPY DUP2 MLOAD SWAP2 MSTORE SWAP10 SWAP8 SWAP5 PUSH2 0x34CC PUSH2 0x34BA PUSH2 0x2710 PUSH2 0x34AF DUP8 SWAP9 PUSH1 0x2 SWAP13 PUSH2 0x54DD JUMP JUMPDEST DIV PUSH1 0xD DUP7 ADD SLOAD PUSH2 0x5510 JUMP JUMPDEST DUP6 PUSH1 0x4 SLOAD AND DUP7 PUSH1 0x3 SLOAD AND SWAP1 CALLER SWAP1 PUSH2 0x53B0 JUMP JUMPDEST CALLER DUP14 MSTORE PUSH1 0xA DUP8 MSTORE PUSH1 0x40 DUP14 KECCAK256 PUSH2 0x537B JUMP JUMPDEST SLOAD SWAP9 SLOAD AND SWAP2 SLOAD AND SWAP1 DUP8 PUSH32 0x3D7463B72B52FAFC8E3F27DC0DBB9D1A94C0A4024834252B5CCE68509ACB49BC DUP5 PUSH1 0x40 MLOAD TIMESTAMP DUP2 MSTORE LOG4 PUSH2 0x351B PUSH1 0x40 MLOAD DUP1 SWAP5 PUSH2 0x5002 JUMP JUMPDEST DUP3 ADD MSTORE PUSH1 0x80 PUSH1 0x40 DUP3 ADD MSTORE PUSH1 0x15 PUSH1 0x80 DUP3 ADD MSTORE PUSH21 0x1CD95B1B195C881BDC99195C881858D8D95C1D1959 PUSH1 0x5A SHL PUSH1 0xA0 DUP3 ADD MSTORE TIMESTAMP PUSH1 0x60 DUP3 ADD MSTORE LOG2 PUSH1 0x1 DUP1 SSTORE DUP1 RETURN JUMPDEST SWAP7 DUP1 SWAP5 SWAP9 SWAP7 SWAP4 SWAP6 SWAP3 POP DUP8 DUP2 RETURNDATASIZE DUP4 GT PUSH2 0x358F JUMPI JUMPDEST PUSH2 0x3575 DUP2 DUP4 PUSH2 0x4EF3 JUMP JUMPDEST DUP2 ADD SUB SLT PUSH2 0x2052 JUMPI SWAP6 MLOAD SWAP5 SWAP7 SWAP3 SWAP6 SWAP2 SWAP5 SWAP1 SWAP4 SWAP2 PUSH1 0xC0 PUSH2 0x347E JUMP JUMPDEST POP RETURNDATASIZE PUSH2 0x356B JUMP JUMPDEST PUSH1 0x40 MLOAD RETURNDATASIZE DUP13 DUP3 RETURNDATACOPY RETURNDATASIZE SWAP1 REVERT JUMPDEST PUSH1 0x40 MLOAD PUSH3 0x461BCD PUSH1 0xE5 SHL DUP2 MSTORE PUSH1 0x4 DUP2 ADD DUP10 SWAP1 MSTORE PUSH1 0x24 DUP1 DUP3 ADD MSTORE PUSH32 0x4F7074696F6E73436F72653A2063616E6E6F7420616363657074206F776E206F PUSH1 0x44 DUP3 ADD MSTORE PUSH4 0x393232B9 PUSH1 0xE1 SHL PUSH1 0x64 DUP3 ADD MSTORE PUSH1 0x84 SWAP1 REVERT JUMPDEST PUSH1 0x40 MLOAD PUSH3 0x461BCD PUSH1 0xE5 SHL DUP2 MSTORE PUSH1 0x4 DUP2 ADD DUP11 SWAP1 MSTORE PUSH1 0x1E PUSH1 0x24 DUP3 ADD MSTORE PUSH32 0x4F7074696F6E73436F72653A20616C7265616479206861732062757965720000 PUSH1 0x44 DUP3 ADD MSTORE PUSH1 0x64 SWAP1 REVERT JUMPDEST PUSH1 0x40 MLOAD PUSH3 0x461BCD PUSH1 0xE5 SHL DUP2 MSTORE PUSH1 0x4 DUP2 ADD DUP9 SWAP1 MSTORE PUSH1 0x1F PUSH1 0x24 DUP3 ADD MSTORE PUSH32 0x4F7074696F6E73436F72653A206E6F7420612073656C6C6572206F7264657200 PUSH1 0x44 DUP3 ADD MSTORE PUSH1 0x64 SWAP1 REVERT JUMPDEST PUSH1 0x64 DUP5 PUSH1 0x40 MLOAD SWAP1 PUSH3 0x461BCD PUSH1 0xE5 SHL DUP3 MSTORE DUP1 PUSH1 0x4 DUP4 ADD MSTORE PUSH1 0x24 DUP3 ADD MSTORE PUSH32 0x4F7074696F6E73436F72653A206F72646572206E6F7420617661696C61626C65 PUSH1 0x44 DUP3 ADD MSTORE REVERT JUMPDEST PUSH4 0x4E487B71 PUSH1 0xE0 SHL DUP8 MSTORE PUSH1 0x21 PUSH1 0x4 MSTORE PUSH1 0x24 DUP8 REVERT JUMPDEST POP PUSH1 0x5 SLOAD DUP3 LT PUSH2 0x33B8 JUMP JUMPDEST POP CALLVALUE PUSH2 0x2B6 JUMPI PUSH1 0x20 CALLDATASIZE PUSH1 0x3 NOT ADD SLT PUSH2 0x2B6 JUMPI PUSH2 0x36F8 PUSH2 0x5475 JUMP JUMPDEST PUSH2 0x3700 PUSH2 0x5457 JUMP JUMPDEST PUSH1 0x4 CALLDATALOAD DUP2 MSTORE PUSH1 0x9 PUSH1 0x20 MSTORE PUSH1 0x40 DUP2 KECCAK256 PUSH1 0xA DUP2 ADD SLOAD SWAP2 PUSH1 0xFF DUP4 AND PUSH1 0x4 DUP2 LT ISZERO PUSH2 0x3BAB JUMPI PUSH2 0x3B66 JUMPI PUSH1 0x9 DUP3 ADD SLOAD TIMESTAMP GT PUSH2 0x3B21 JUMPI PUSH1 0x1 DUP3 ADD SLOAD DUP2 MSTORE PUSH1 0x7 PUSH1 0x20 MSTORE PUSH1 0x40 DUP2 KECCAK256 SWAP3 PUSH2 0x3758 PUSH1 0x1 DUP1 PUSH1 0xA0 SHL SUB PUSH1 0x1 DUP7 ADD SLOAD AND CALLER EQ PUSH2 0x5498 JUMP JUMPDEST PUSH1 0xFF PUSH1 0x14 DUP6 ADD SLOAD PUSH1 0x10 SHR AND PUSH1 0xB DUP2 LT ISZERO PUSH2 0x3B0D JUMPI DUP1 ISZERO SWAP1 DUP2 ISZERO PUSH2 0x3B02 JUMPI JUMPDEST POP ISZERO PUSH2 0x3ABD JUMPI PUSH1 0x3 DUP4 ADD SLOAD PUSH1 0xC DUP6 ADD SLOAD LT PUSH2 0x3A6A JUMPI PUSH1 0xFF NOT AND PUSH1 0x1 OR PUSH1 0xA DUP4 ADD SSTORE PUSH1 0x2 DUP1 DUP4 ADD DUP1 SLOAD SWAP2 DUP6 ADD DUP1 SLOAD PUSH1 0x1 PUSH1 0x1 PUSH1 0xA0 SHL SUB NOT AND PUSH1 0x1 PUSH1 0x1 PUSH1 0xA0 SHL SUB SWAP4 SWAP1 SWAP4 AND SWAP3 SWAP1 SWAP3 OR SWAP1 SWAP2 SSTORE SLOAD PUSH2 0x3847 SWAP1 PUSH1 0x11 DUP6 ADD SWAP1 PUSH2 0x37DA SWAP1 PUSH1 0xA0 SHR PUSH1 0xFF AND DUP3 PUSH2 0x532D JUMP JUMPDEST PUSH1 0x3 DUP5 ADD SLOAD PUSH1 0xC DUP7 ADD SSTORE PUSH1 0x4 DUP5 ADD SLOAD PUSH1 0xD DUP7 ADD SSTORE PUSH1 0x6 DUP5 ADD SLOAD DUP1 PUSH1 0xE DUP8 ADD SSTORE PUSH1 0xF DUP7 ADD SSTORE PUSH1 0xFF PUSH1 0x7 DUP6 ADD PUSH2 0x3811 DUP3 DUP3 SLOAD AND DUP5 PUSH2 0x5352 JUMP JUMPDEST DUP1 SLOAD DUP4 SLOAD PUSH2 0xFF00 NOT AND PUSH1 0x8 SWAP2 DUP3 SHR DUP5 AND SWAP1 SWAP2 SHL PUSH2 0xFF00 AND OR DUP4 SSTORE SLOAD PUSH1 0x10 SHR AND PUSH3 0xFF0000 DUP3 SLOAD SWAP2 PUSH1 0x10 SHL AND SWAP1 PUSH3 0xFF0000 NOT AND OR SWAP1 SSTORE JUMP JUMPDEST PUSH1 0x14 DUP4 ADD DUP1 SLOAD PUSH3 0xFF0000 NOT DUP2 AND PUSH3 0x20000 OR SWAP1 SWAP2 SSTORE TIMESTAMP PUSH1 0x16 DUP6 ADD SSTORE PUSH1 0x9 DUP5 ADD SLOAD PUSH1 0x2 SLOAD PUSH1 0x40 MLOAD PUSH4 0x1C03BE35 PUSH1 0xE3 SHL DUP2 MSTORE SWAP3 SWAP5 SWAP3 SWAP1 PUSH1 0x20 SWAP1 DUP3 SWAP1 PUSH1 0x4 SWAP1 DUP3 SWAP1 PUSH1 0x8 SHR PUSH1 0x1 PUSH1 0x1 PUSH1 0xA0 SHL SUB AND GAS STATICCALL SWAP1 DUP2 ISZERO PUSH2 0x3A5F JUMPI DUP5 SWAP2 PUSH2 0x3A2B JUMPI JUMPDEST POP PUSH2 0x2710 PUSH2 0x38B5 PUSH2 0x38C0 SWAP3 PUSH2 0x38DA SWAP5 PUSH2 0x54DD JUMP JUMPDEST DIV PUSH1 0x4 DUP5 ADD SLOAD PUSH2 0x5510 JUMP JUMPDEST PUSH1 0x4 SLOAD PUSH1 0x3 SLOAD PUSH1 0x1 PUSH1 0x1 PUSH1 0xA0 SHL SUB SWAP1 DUP2 AND SWAP2 CALLER SWAP2 AND PUSH2 0x53B0 JUMP JUMPDEST PUSH1 0x2 ADD SLOAD PUSH1 0x1 PUSH1 0x1 PUSH1 0xA0 SHL SUB AND DUP2 MSTORE PUSH1 0xB PUSH1 0x20 MSTORE PUSH1 0x40 DUP2 KECCAK256 DUP4 SLOAD PUSH2 0x38FD SWAP2 PUSH2 0x537B JUMP JUMPDEST DUP3 SLOAD DUP2 MSTORE PUSH1 0x8 PUSH1 0x20 MSTORE PUSH1 0x40 DUP2 KECCAK256 SWAP3 DUP2 JUMPDEST DUP5 SLOAD DUP2 LT ISZERO PUSH2 0x3980 JUMPI PUSH2 0x3920 DUP2 DUP7 PUSH2 0x500F JUMP JUMPDEST POP SLOAD PUSH1 0x4 CALLDATALOAD EQ ISZERO DUP1 PUSH2 0x395E JUMPI JUMPDEST SWAP1 PUSH2 0x393B SWAP2 PUSH2 0x3940 JUMPI PUSH2 0x529C JUMP JUMPDEST PUSH2 0x390D JUMP JUMPDEST PUSH1 0xA PUSH2 0x394C DUP3 DUP9 PUSH2 0x500F JUMP JUMPDEST POP ADD DUP1 SLOAD PUSH1 0xFF NOT AND PUSH1 0x2 OR SWAP1 SSTORE PUSH2 0x529C JUMP JUMPDEST POP PUSH1 0xFF PUSH1 0xA PUSH2 0x396D DUP4 DUP9 PUSH2 0x500F JUMP JUMPDEST POP ADD SLOAD AND PUSH1 0x4 DUP2 LT ISZERO PUSH2 0x2650 JUMPI ISZERO PUSH2 0x392D JUMP JUMPDEST POP PUSH1 0x0 DUP1 MLOAD PUSH1 0x20 PUSH2 0x58B1 DUP4 CODECOPY DUP2 MLOAD SWAP2 MSTORE PUSH1 0xC0 PUSH1 0xFF PUSH2 0x39F1 DUP7 DUP6 SLOAD SWAP6 PUSH1 0x1 DUP1 PUSH1 0xA0 SHL SUB PUSH1 0x1 DUP3 ADD SLOAD AND SWAP1 PUSH1 0x2 PUSH1 0x1 DUP1 PUSH1 0xA0 SHL SUB SWAP2 ADD SLOAD AND SWAP1 DUP8 PUSH32 0x3D7463B72B52FAFC8E3F27DC0DBB9D1A94C0A4024834252B5CCE68509ACB49BC PUSH1 0x20 PUSH1 0x40 MLOAD TIMESTAMP DUP2 MSTORE LOG4 PUSH1 0x40 MLOAD SWAP3 DUP4 SWAP2 PUSH1 0x10 SHR AND PUSH2 0x5002 JUMP JUMPDEST PUSH1 0x2 PUSH1 0x20 DUP3 ADD MSTORE PUSH1 0x80 PUSH1 0x40 DUP3 ADD MSTORE PUSH1 0xE PUSH1 0x80 DUP3 ADD MSTORE PUSH14 0x1C5D5BDD19481858D8D95C1D1959 PUSH1 0x92 SHL PUSH1 0xA0 DUP3 ADD MSTORE TIMESTAMP PUSH1 0x60 DUP3 ADD MSTORE LOG2 PUSH1 0x1 DUP1 SSTORE DUP1 RETURN JUMPDEST SWAP1 POP PUSH1 0x20 DUP2 RETURNDATASIZE PUSH1 0x20 GT PUSH2 0x3A57 JUMPI JUMPDEST DUP2 PUSH2 0x3A46 PUSH1 0x20 SWAP4 DUP4 PUSH2 0x4EF3 JUMP JUMPDEST DUP2 ADD SUB SLT PUSH2 0x2052 JUMPI MLOAD PUSH2 0x2710 PUSH2 0x38A1 JUMP JUMPDEST RETURNDATASIZE SWAP2 POP PUSH2 0x3A39 JUMP JUMPDEST PUSH1 0x40 MLOAD RETURNDATASIZE DUP7 DUP3 RETURNDATACOPY RETURNDATASIZE SWAP1 REVERT JUMPDEST PUSH1 0x40 MLOAD PUSH3 0x461BCD PUSH1 0xE5 SHL DUP2 MSTORE PUSH1 0x20 PUSH1 0x4 DUP3 ADD MSTORE PUSH1 0x25 PUSH1 0x24 DUP3 ADD MSTORE PUSH32 0x4F7074696F6E73436F72653A207072656D69756D207261746520657863656564 PUSH1 0x44 DUP3 ADD MSTORE PUSH5 0xE640DAC2F PUSH1 0xDB SHL PUSH1 0x64 DUP3 ADD MSTORE PUSH1 0x84 SWAP1 REVERT JUMPDEST PUSH1 0x40 MLOAD PUSH3 0x461BCD PUSH1 0xE5 SHL DUP2 MSTORE PUSH1 0x20 PUSH1 0x4 DUP3 ADD MSTORE PUSH1 0x1B PUSH1 0x24 DUP3 ADD MSTORE PUSH32 0x4F7074696F6E73436F72653A20696E76616C6964207374617475730000000000 PUSH1 0x44 DUP3 ADD MSTORE PUSH1 0x64 SWAP1 REVERT JUMPDEST PUSH1 0x1 SWAP2 POP EQ CODESIZE PUSH2 0x3776 JUMP JUMPDEST PUSH4 0x4E487B71 PUSH1 0xE0 SHL DUP4 MSTORE PUSH1 0x21 PUSH1 0x4 MSTORE PUSH1 0x24 DUP4 REVERT JUMPDEST PUSH1 0x40 MLOAD PUSH3 0x461BCD PUSH1 0xE5 SHL DUP2 MSTORE PUSH1 0x20 PUSH1 0x4 DUP3 ADD MSTORE PUSH1 0x1A PUSH1 0x24 DUP3 ADD MSTORE PUSH32 0x4F7074696F6E73436F72653A2071756F74652065787069726564000000000000 PUSH1 0x44 DUP3 ADD MSTORE PUSH1 0x64 SWAP1 REVERT JUMPDEST PUSH1 0x40 MLOAD PUSH3 0x461BCD PUSH1 0xE5 SHL DUP2 MSTORE PUSH1 0x20 PUSH1 0x4 DUP3 ADD MSTORE PUSH1 0x1D PUSH1 0x24 DUP3 ADD MSTORE PUSH32 0x4F7074696F6E73436F72653A2071756F7465206E6F7420616374697665000000 PUSH1 0x44 DUP3 ADD MSTORE PUSH1 0x64 SWAP1 REVERT JUMPDEST PUSH4 0x4E487B71 PUSH1 0xE0 SHL DUP3 MSTORE PUSH1 0x21 PUSH1 0x4 MSTORE PUSH1 0x24 DUP3 REVERT JUMPDEST POP CALLVALUE PUSH2 0x2B6 JUMPI DUP1 PUSH1 0x3 NOT CALLDATASIZE ADD SLT PUSH2 0x2B6 JUMPI PUSH1 0x20 PUSH1 0xFF PUSH1 0x2 SLOAD AND PUSH1 0x40 MLOAD SWAP1 ISZERO ISZERO DUP2 MSTORE RETURN JUMPDEST POP CALLVALUE PUSH2 0x2B6 JUMPI DUP1 PUSH1 0x3 NOT CALLDATASIZE ADD SLT PUSH2 0x2B6 JUMPI PUSH1 0x20 PUSH1 0x6 SLOAD PUSH1 0x40 MLOAD SWAP1 DUP2 MSTORE RETURN JUMPDEST POP CALLVALUE PUSH2 0x2B6 JUMPI PUSH1 0x20 DUP1 PUSH1 0x3 NOT CALLDATASIZE ADD SLT PUSH2 0x338 JUMPI PUSH1 0x4 CALLDATALOAD SWAP1 DUP2 ISZERO ISZERO DUP1 PUSH2 0x3DC9 JUMPI JUMPDEST PUSH2 0x3C29 SWAP1 PUSH2 0x551D JUMP JUMPDEST DUP2 DUP4 MSTORE PUSH1 0x7 DUP2 MSTORE PUSH2 0x3C4A PUSH1 0x1 DUP1 PUSH1 0xA0 SHL SUB PUSH1 0x1 PUSH1 0x40 DUP7 KECCAK256 ADD SLOAD AND CALLER EQ PUSH2 0x5498 JUMP JUMPDEST DUP2 DUP4 MSTORE PUSH1 0x7 DUP2 MSTORE PUSH1 0xFF PUSH1 0x14 PUSH1 0x40 DUP6 KECCAK256 ADD SLOAD PUSH1 0x10 SHR AND PUSH1 0xB DUP2 LT ISZERO PUSH2 0x2650 JUMPI PUSH1 0x4 SUB PUSH2 0x3D7B JUMPI PUSH2 0x3C77 PUSH2 0x5475 JUMP JUMPDEST PUSH2 0x3C7F PUSH2 0x5457 JUMP JUMPDEST DUP2 DUP4 MSTORE PUSH1 0x7 DUP2 MSTORE PUSH1 0x40 DUP4 KECCAK256 PUSH1 0xFF PUSH1 0x11 DUP3 ADD SLOAD PUSH1 0x18 SHR AND DUP1 DUP1 DIV PUSH1 0x1 EQ DUP2 ISZERO OR ISZERO PUSH2 0x2250 JUMPI PUSH2 0x3CB1 SWAP1 PUSH1 0x16 DUP4 ADD SLOAD PUSH2 0x5510 JUMP JUMPDEST TIMESTAMP LT PUSH2 0x3D2A JUMPI PUSH1 0xFF PUSH1 0x5 PUSH1 0x0 DUP1 MLOAD PUSH1 0x20 PUSH2 0x58B1 DUP4 CODECOPY DUP2 MLOAD SWAP2 MSTORE SWAP4 PUSH2 0x3CF4 PUSH1 0x14 PUSH1 0xC0 SWAP6 ADD DUP1 SLOAD SWAP1 PUSH3 0x50000 PUSH3 0xFF0000 NOT DUP4 AND OR SWAP1 SSTORE PUSH1 0x40 MLOAD SWAP5 DUP6 SWAP2 PUSH1 0x10 SHR AND PUSH2 0x5002 JUMP JUMPDEST DUP3 ADD MSTORE PUSH1 0x80 PUSH1 0x40 DUP3 ADD MSTORE PUSH1 0xE PUSH1 0x80 DUP3 ADD MSTORE PUSH14 0x6561726C79206578657263697365 PUSH1 0x90 SHL PUSH1 0xA0 DUP3 ADD MSTORE TIMESTAMP PUSH1 0x60 DUP3 ADD MSTORE LOG2 PUSH1 0x1 DUP1 SSTORE DUP1 RETURN JUMPDEST PUSH1 0x40 MLOAD PUSH3 0x461BCD PUSH1 0xE5 SHL DUP2 MSTORE PUSH1 0x4 DUP2 ADD DUP4 SWAP1 MSTORE PUSH1 0x23 PUSH1 0x24 DUP3 ADD MSTORE PUSH32 0x4F7074696F6E73436F72653A2065786572636973652064656C6179206E6F7420 PUSH1 0x44 DUP3 ADD MSTORE PUSH3 0x1B595D PUSH1 0xEA SHL PUSH1 0x64 DUP3 ADD MSTORE PUSH1 0x84 SWAP1 REVERT JUMPDEST PUSH1 0x84 SWAP1 PUSH1 0x40 MLOAD SWAP1 PUSH3 0x461BCD PUSH1 0xE5 SHL DUP3 MSTORE PUSH1 0x4 DUP3 ADD MSTORE PUSH1 0x21 PUSH1 0x24 DUP3 ADD MSTORE PUSH32 0x4F7074696F6E73436F72653A20696E76616C6964206F72646572207374617475 PUSH1 0x44 DUP3 ADD MSTORE PUSH1 0x73 PUSH1 0xF8 SHL PUSH1 0x64 DUP3 ADD MSTORE REVERT JUMPDEST POP PUSH1 0x5 SLOAD DUP3 LT PUSH2 0x3C20 JUMP JUMPDEST POP CALLVALUE PUSH2 0x2B6 JUMPI PUSH1 0x40 CALLDATASIZE PUSH1 0x3 NOT ADD SLT PUSH2 0x2B6 JUMPI PUSH2 0x3DEE PUSH2 0x4D0C JUMP JUMPDEST PUSH1 0x1 PUSH1 0x1 PUSH1 0xA0 SHL SUB AND DUP2 MSTORE PUSH1 0xB PUSH1 0x20 MSTORE PUSH1 0x40 DUP2 KECCAK256 DUP1 SLOAD PUSH1 0x24 CALLDATALOAD SWAP3 SWAP1 DUP4 LT ISZERO PUSH2 0x2B6 JUMPI PUSH1 0x20 PUSH2 0x3E1C DUP5 DUP5 PUSH2 0x4D4E JUMP JUMPDEST SWAP1 SLOAD PUSH1 0x40 MLOAD SWAP2 PUSH1 0x3 SHL SHR DUP2 MSTORE RETURN JUMPDEST POP CALLVALUE PUSH2 0x2B6 JUMPI PUSH1 0x40 CALLDATASIZE PUSH1 0x3 NOT ADD SLT PUSH2 0x2B6 JUMPI PUSH2 0x3E44 PUSH2 0x4D0C JUMP JUMPDEST PUSH1 0x1 PUSH1 0x1 PUSH1 0xA0 SHL SUB AND DUP2 MSTORE PUSH1 0xA PUSH1 0x20 MSTORE PUSH1 0x40 DUP2 KECCAK256 DUP1 SLOAD PUSH1 0x24 CALLDATALOAD SWAP3 SWAP1 DUP4 LT ISZERO PUSH2 0x2B6 JUMPI PUSH1 0x20 PUSH2 0x3E1C DUP5 DUP5 PUSH2 0x4D4E JUMP JUMPDEST POP CALLVALUE PUSH2 0x2B6 JUMPI PUSH2 0x3E81 CALLDATASIZE PUSH2 0x4D38 JUMP JUMPDEST DUP2 ISZERO ISZERO DUP1 PUSH2 0x3FBB JUMPI JUMPDEST PUSH2 0x3E93 SWAP1 PUSH2 0x551D JUMP JUMPDEST PUSH2 0x3E9B PUSH2 0x502B JUMP JUMPDEST DUP2 DUP4 MSTORE PUSH1 0x7 PUSH1 0x20 MSTORE PUSH1 0x40 DUP4 KECCAK256 PUSH1 0x14 DUP2 ADD SWAP2 DUP3 SLOAD SWAP2 PUSH1 0xFF DUP4 PUSH1 0x10 SHR AND SWAP2 PUSH1 0xB DUP4 LT ISZERO PUSH2 0x36BF JUMPI PUSH1 0x4 DUP4 EQ DUP1 ISZERO PUSH2 0x3FB1 JUMPI JUMPDEST ISZERO PUSH2 0x3F4F JUMPI PUSH1 0x0 DUP1 MLOAD PUSH1 0x20 PUSH2 0x58B1 DUP4 CODECOPY DUP2 MLOAD SWAP2 MSTORE SWAP5 PUSH3 0x60000 PUSH1 0xC0 SWAP6 PUSH2 0x3EF2 DUP5 ISZERO ISZERO PUSH2 0x5779 JUMP JUMPDEST PUSH3 0xFF0000 NOT AND OR SWAP1 SSTORE PUSH1 0x18 DUP3 ADD SSTORE PUSH1 0x17 TIMESTAMP SWAP2 ADD SSTORE PUSH2 0x3F13 PUSH1 0x40 MLOAD DUP1 SWAP3 PUSH2 0x5002 JUMP JUMPDEST PUSH1 0x6 PUSH1 0x20 DUP3 ADD MSTORE PUSH1 0x80 PUSH1 0x40 DUP3 ADD MSTORE PUSH1 0x14 PUSH1 0x80 DUP3 ADD MSTORE PUSH20 0x199A5B985B08199959590818DBDB5C1B195D1959 PUSH1 0x62 SHL PUSH1 0xA0 DUP3 ADD MSTORE TIMESTAMP PUSH1 0x60 DUP3 ADD MSTORE LOG2 DUP1 RETURN JUMPDEST PUSH1 0x40 MLOAD PUSH3 0x461BCD PUSH1 0xE5 SHL DUP2 MSTORE PUSH1 0x20 PUSH1 0x4 DUP3 ADD MSTORE PUSH1 0x34 PUSH1 0x24 DUP3 ADD MSTORE PUSH32 0x4F7074696F6E73436F72653A206F72646572206E6F7420696E2076616C696420 PUSH1 0x44 DUP3 ADD MSTORE PUSH20 0x1CDD185D1948199BDC88199A5B985B0819995959 PUSH1 0x62 SHL PUSH1 0x64 DUP3 ADD MSTORE PUSH1 0x84 SWAP1 REVERT JUMPDEST POP PUSH1 0x5 DUP4 EQ PUSH2 0x3ECB JUMP JUMPDEST POP PUSH1 0x5 SLOAD DUP3 LT PUSH2 0x3E8A JUMP JUMPDEST POP CALLVALUE PUSH2 0x2B6 JUMPI DUP1 PUSH1 0x3 NOT CALLDATASIZE ADD SLT PUSH2 0x2B6 JUMPI PUSH2 0x3FDF PUSH2 0x502B JUMP JUMPDEST PUSH1 0x2 SLOAD PUSH1 0xFF DUP2 AND ISZERO PUSH2 0x401F JUMPI PUSH1 0xFF NOT AND PUSH1 0x2 SSTORE PUSH32 0x5DB9EE0A495BF2E6FF9C91A7834C1BA4FDD244A5E8AA4E537BD38AEAE4B073AA PUSH1 0x20 PUSH1 0x40 MLOAD CALLER DUP2 MSTORE LOG1 DUP1 RETURN JUMPDEST PUSH1 0x40 MLOAD PUSH4 0x8DFC202B PUSH1 0xE0 SHL DUP2 MSTORE PUSH1 0x4 SWAP1 REVERT JUMPDEST POP CALLVALUE PUSH2 0x2B6 JUMPI PUSH1 0x40 CALLDATASIZE PUSH1 0x3 NOT ADD SLT PUSH2 0x2B6 JUMPI PUSH2 0x404B PUSH2 0x4D22 JUMP JUMPDEST CALLER PUSH1 0x1 PUSH1 0x1 PUSH1 0xA0 SHL SUB DUP3 AND SUB PUSH2 0x4067 JUMPI PUSH2 0x5B7 SWAP1 PUSH1 0x4 CALLDATALOAD PUSH2 0x5127 JUMP JUMPDEST PUSH1 0x40 MLOAD PUSH4 0x334BD919 PUSH1 0xE1 SHL DUP2 MSTORE PUSH1 0x4 SWAP1 REVERT JUMPDEST POP CALLVALUE PUSH2 0x2B6 JUMPI PUSH1 0x60 CALLDATASIZE PUSH1 0x3 NOT ADD SLT PUSH2 0x2B6 JUMPI PUSH1 0x4 CALLDATALOAD PUSH1 0x24 PUSH1 0x44 CALLDATALOAD DUP2 CALLDATALOAD PUSH1 0x1 PUSH1 0x1 PUSH1 0x40 SHL SUB DUP1 DUP4 GT PUSH2 0x20B3 JUMPI CALLDATASIZE PUSH1 0x23 DUP5 ADD SLT ISZERO PUSH2 0x20B3 JUMPI DUP3 PUSH1 0x4 ADD CALLDATALOAD SWAP3 DUP2 DUP5 GT PUSH2 0x4388 JUMPI DUP5 CALLDATASIZE SWAP2 DUP6 PUSH1 0x5 SHL ADD ADD GT PUSH2 0x20B3 JUMPI DUP5 ISZERO ISZERO DUP1 PUSH2 0x437D JUMPI JUMPDEST PUSH2 0x40DC SWAP1 PUSH2 0x551D JUMP JUMPDEST PUSH2 0x40E4 PUSH2 0x5475 JUMP JUMPDEST PUSH2 0x40EC PUSH2 0x5457 JUMP JUMPDEST DUP6 DUP1 MSTORE PUSH1 0x20 SWAP4 DUP7 DUP6 MSTORE PUSH1 0x40 DUP8 KECCAK256 CALLER DUP9 MSTORE DUP6 MSTORE PUSH2 0x410E PUSH1 0xFF PUSH1 0x40 DUP10 KECCAK256 SLOAD AND PUSH2 0x571C JUMP JUMPDEST DUP6 DUP8 MSTORE PUSH1 0x7 DUP6 MSTORE PUSH1 0x40 DUP8 KECCAK256 SWAP3 PUSH1 0x14 DUP5 ADD SWAP5 PUSH1 0xFF DUP7 SLOAD PUSH1 0x10 SHR AND PUSH1 0xB DUP2 LT ISZERO PUSH2 0x436A JUMPI PUSH1 0x7 SUB PUSH2 0x4318 JUMPI ISZERO PUSH2 0x42D4 JUMPI PUSH1 0x18 DUP5 ADD DUP1 SLOAD PUSH1 0x1 DUP7 ADD SLOAD PUSH1 0x1 PUSH1 0x1 PUSH1 0xA0 SHL SUB SWAP1 DUP2 AND SWAP7 DUP12 SWAP5 DUP4 DUP2 EQ ISZERO SWAP5 SWAP1 SWAP4 SWAP3 DUP6 PUSH2 0x426F JUMPI JUMPDEST POP DUP4 SWAP1 SSTORE DUP9 SLOAD SWAP9 PUSH3 0x80000 PUSH3 0xFF0000 NOT DUP12 AND OR SWAP1 SSTORE PUSH1 0x17 TIMESTAMP SWAP2 ADD SSTORE PUSH1 0x40 MLOAD SWAP5 DUP10 DUP7 ADD SWAP1 DUP12 DUP3 MSTORE TIMESTAMP PUSH1 0x40 DUP9 ADD MSTORE PUSH1 0x40 DUP8 MSTORE PUSH1 0x60 DUP8 ADD SWAP8 DUP8 DUP10 LT SWAP1 DUP10 GT OR PUSH2 0x425B JUMPI POP PUSH1 0xC0 DUP8 PUSH1 0x0 DUP1 MLOAD PUSH1 0x20 PUSH2 0x58B1 DUP4 CODECOPY DUP2 MLOAD SWAP2 MSTORE SWAP12 SWAP8 PUSH2 0x421F SWAP8 DUP4 SWAP13 SWAP8 DUP16 SWAP7 SWAP8 PUSH1 0xFF SWAP14 SWAP9 PUSH32 0xB3560D930DA64161657F7700F7109520A24B93D7FF2363739EE324A1E0D6BF87 SWAP8 PUSH1 0x8 SWAP15 PUSH1 0x40 MSTORE DUP6 MLOAD SWAP1 KECCAK256 SWAP10 DUP7 MSTORE PUSH1 0x80 DUP6 ADD MSTORE PUSH1 0xA0 DUP5 ADD MSTORE DUP5 DUP4 ADD MSTORE PUSH1 0xE0 DUP3 ADD MSTORE PUSH2 0x100 TIMESTAMP SWAP2 ADD MSTORE LOG3 PUSH1 0x40 MLOAD SWAP5 DUP6 SWAP2 PUSH1 0x10 SHR AND PUSH2 0x5002 JUMP JUMPDEST DUP3 ADD MSTORE PUSH1 0x80 PUSH1 0x40 DUP3 ADD MSTORE PUSH1 0x14 PUSH1 0x80 DUP3 ADD MSTORE PUSH20 0x185C989A5D1C985D1A5BDB881C995CDBDB1D9959 PUSH1 0x62 SHL PUSH1 0xA0 DUP3 ADD MSTORE TIMESTAMP PUSH1 0x60 DUP3 ADD MSTORE LOG2 PUSH1 0x1 DUP1 SSTORE DUP1 RETURN JUMPDEST PUSH4 0x4E487B71 PUSH1 0xE0 SHL PUSH1 0x0 SWAP1 DUP2 MSTORE PUSH1 0x41 PUSH1 0x4 MSTORE REVERT JUMPDEST PUSH1 0x3 SLOAD PUSH8 0x98A7D9B8314C0000 SWAP8 POP AND DUP14 DUP2 EXTCODESIZE ISZERO PUSH2 0x2B6 JUMPI DUP9 PUSH1 0x44 DUP13 DUP4 DUP12 SWAP6 PUSH1 0x40 MLOAD SWAP7 DUP8 SWAP6 DUP7 SWAP5 PUSH4 0x15490EBB PUSH1 0xE0 SHL DUP7 MSTORE PUSH1 0x4 DUP7 ADD MSTORE DUP5 ADD MSTORE GAS CALL DUP1 ISZERO PUSH2 0x42C7 JUMPI ISZERO PUSH2 0x4163 JUMPI SWAP13 PUSH2 0x42C0 DUP6 SWAP3 SWAP15 PUSH2 0x4E92 JUMP JUMPDEST SWAP13 SWAP1 PUSH2 0x4163 JUMP JUMPDEST DUP15 PUSH1 0x40 MLOAD SWAP1 RETURNDATASIZE SWAP1 DUP3 RETURNDATACOPY RETURNDATASIZE SWAP1 REVERT JUMPDEST PUSH1 0x40 MLOAD PUSH3 0x461BCD PUSH1 0xE5 SHL DUP2 MSTORE PUSH1 0x4 DUP2 ADD DUP8 SWAP1 MSTORE PUSH1 0x1B DUP2 DUP5 ADD MSTORE PUSH32 0x4F7074696F6E73436F72653A206E6F2061726269747261746F72730000000000 PUSH1 0x44 DUP3 ADD MSTORE PUSH1 0x64 SWAP1 REVERT JUMPDEST PUSH1 0x40 MLOAD PUSH3 0x461BCD PUSH1 0xE5 SHL DUP2 MSTORE PUSH1 0x4 DUP2 ADD DUP9 SWAP1 MSTORE PUSH1 0x25 DUP2 DUP6 ADD MSTORE PUSH32 0x4F7074696F6E73436F72653A206F72646572206E6F7420696E20617262697472 PUSH1 0x44 DUP3 ADD MSTORE PUSH5 0x30BA34B7B7 PUSH1 0xD9 SHL PUSH1 0x64 DUP3 ADD MSTORE PUSH1 0x84 SWAP1 REVERT JUMPDEST PUSH4 0x4E487B71 PUSH1 0xE0 SHL DUP11 MSTORE PUSH1 0x21 PUSH1 0x4 MSTORE DUP4 DUP11 REVERT JUMPDEST POP PUSH1 0x5 SLOAD DUP6 LT PUSH2 0x40D3 JUMP JUMPDEST DUP7 DUP1 REVERT JUMPDEST POP CALLVALUE PUSH2 0x2B6 JUMPI DUP1 PUSH1 0x3 NOT CALLDATASIZE ADD SLT PUSH2 0x2B6 JUMPI PUSH1 0x4 SLOAD PUSH1 0x40 MLOAD PUSH1 0x1 PUSH1 0x1 PUSH1 0xA0 SHL SUB SWAP1 SWAP2 AND DUP2 MSTORE PUSH1 0x20 SWAP1 RETURN JUMPDEST POP CALLVALUE PUSH2 0x2B6 JUMPI PUSH1 0x40 CALLDATASIZE PUSH1 0x3 NOT ADD SLT PUSH2 0x2B6 JUMPI PUSH2 0x5B7 PUSH1 0x4 CALLDATALOAD PUSH2 0x43D5 PUSH2 0x4D22 JUMP JUMPDEST SWAP1 DUP1 DUP5 MSTORE DUP4 PUSH1 0x20 MSTORE PUSH2 0x43ED PUSH1 0x1 PUSH1 0x40 DUP7 KECCAK256 ADD SLOAD PUSH2 0x5083 JUMP JUMPDEST PUSH2 0x50A9 JUMP JUMPDEST POP CALLVALUE PUSH2 0x2B6 JUMPI DUP1 PUSH1 0x3 NOT CALLDATASIZE ADD SLT PUSH2 0x2B6 JUMPI PUSH1 0x20 PUSH1 0x5 SLOAD PUSH1 0x40 MLOAD SWAP1 DUP2 MSTORE RETURN JUMPDEST POP CALLVALUE PUSH2 0x2B6 JUMPI PUSH1 0x20 CALLDATASIZE PUSH1 0x3 NOT ADD SLT PUSH2 0x2B6 JUMPI PUSH1 0x1 PUSH1 0x40 PUSH1 0x20 SWAP3 PUSH1 0x4 CALLDATALOAD DUP2 MSTORE DUP1 DUP5 MSTORE KECCAK256 ADD SLOAD PUSH1 0x40 MLOAD SWAP1 DUP2 MSTORE RETURN JUMPDEST POP CALLVALUE PUSH2 0x2B6 JUMPI PUSH1 0x20 CALLDATASIZE PUSH1 0x3 NOT ADD SLT PUSH2 0x2B6 JUMPI PUSH2 0x4456 PUSH2 0x4D0C JUMP JUMPDEST PUSH2 0x445E PUSH2 0x502B JUMP JUMPDEST PUSH1 0x2 DUP1 SLOAD PUSH2 0x100 PUSH1 0x1 PUSH1 0xA8 SHL SUB NOT AND PUSH1 0x8 SWAP3 SWAP1 SWAP3 SHL PUSH2 0x100 PUSH1 0x1 PUSH1 0xA8 SHL SUB AND SWAP2 SWAP1 SWAP2 OR SWAP1 SSTORE DUP1 RETURN JUMPDEST POP CALLVALUE PUSH2 0x2B6 JUMPI PUSH1 0x20 CALLDATASIZE PUSH1 0x3 NOT ADD SLT PUSH2 0x2B6 JUMPI PUSH1 0x4 CALLDATALOAD PUSH4 0xFFFFFFFF PUSH1 0xE0 SHL DUP2 AND DUP1 SWAP2 SUB PUSH2 0x338 JUMPI PUSH1 0x20 SWAP1 PUSH4 0x7965DB0B PUSH1 0xE0 SHL DUP2 EQ SWAP1 DUP2 ISZERO PUSH2 0x44CC JUMPI JUMPDEST POP PUSH1 0x40 MLOAD SWAP1 ISZERO ISZERO DUP2 MSTORE RETURN JUMPDEST PUSH4 0x1FFC9A7 PUSH1 0xE0 SHL EQ SWAP1 POP DUP3 PUSH2 0x44C1 JUMP JUMPDEST POP CALLVALUE PUSH2 0x2B6 JUMPI PUSH2 0x220 CALLDATASIZE PUSH1 0x3 NOT ADD SLT PUSH2 0x2B6 JUMPI PUSH1 0x4 CALLDATALOAD PUSH1 0x1 PUSH1 0x1 PUSH1 0x40 SHL SUB DUP2 GT PUSH2 0x338 JUMPI PUSH2 0x450F SWAP1 CALLDATASIZE SWAP1 PUSH1 0x4 ADD PUSH2 0x4CCF JUMP JUMPDEST SWAP1 SWAP2 PUSH1 0x24 CALLDATALOAD PUSH1 0x1 PUSH1 0x1 PUSH1 0x40 SHL SUB DUP2 GT PUSH2 0x338 JUMPI PUSH2 0x4530 SWAP1 CALLDATASIZE SWAP1 PUSH1 0x4 ADD PUSH2 0x4CCF JUMP JUMPDEST SWAP4 SWAP1 PUSH1 0x44 CALLDATALOAD PUSH1 0x1 PUSH1 0x1 PUSH1 0x40 SHL SUB DUP2 GT PUSH2 0x8AF JUMPI PUSH2 0x4551 SWAP1 CALLDATASIZE SWAP1 PUSH1 0x4 ADD PUSH2 0x4CCF JUMP JUMPDEST SWAP1 PUSH1 0x64 CALLDATALOAD PUSH1 0x1 PUSH1 0x1 PUSH1 0x40 SHL SUB DUP2 GT PUSH2 0x20B3 JUMPI PUSH2 0x4571 SWAP1 CALLDATASIZE SWAP1 PUSH1 0x4 ADD PUSH2 0x4CCF JUMP JUMPDEST SWAP1 SWAP5 PUSH1 0x84 CALLDATALOAD PUSH1 0x1 PUSH1 0x1 PUSH1 0x40 SHL SUB DUP2 GT PUSH2 0x20AF JUMPI PUSH2 0x4592 SWAP1 CALLDATASIZE SWAP1 PUSH1 0x4 ADD PUSH2 0x4CCF JUMP JUMPDEST PUSH1 0x2 PUSH1 0xA4 CALLDATALOAD LT ISZERO PUSH2 0x4CCB JUMPI PUSH1 0x3 PUSH2 0x144 CALLDATALOAD LT ISZERO PUSH2 0x4CCB JUMPI PUSH1 0xFF PUSH2 0x164 CALLDATALOAD AND PUSH2 0x164 CALLDATALOAD SUB PUSH2 0x4CCB JUMPI PUSH1 0xFF PUSH2 0x184 CALLDATALOAD AND PUSH2 0x184 CALLDATALOAD SUB PUSH2 0x4CCB JUMPI PUSH2 0x45D1 PUSH2 0x4CFC JUMP JUMPDEST SWAP2 PUSH1 0xFF PUSH2 0x1E4 CALLDATALOAD AND PUSH2 0x1E4 CALLDATALOAD SUB PUSH2 0x20AB JUMPI PUSH1 0x2 PUSH2 0x204 CALLDATALOAD LT ISZERO PUSH2 0x20AB JUMPI PUSH2 0x45F6 PUSH2 0x5475 JUMP JUMPDEST PUSH2 0x45FE PUSH2 0x5457 JUMP JUMPDEST PUSH2 0x460B PUSH1 0xC4 CALLDATALOAD ISZERO ISZERO PUSH2 0x519C JUMP JUMPDEST PUSH2 0x4618 TIMESTAMP PUSH1 0xE4 CALLDATALOAD GT PUSH2 0x51F7 JUMP JUMPDEST PUSH1 0x4 DUP1 SLOAD PUSH1 0x3 SLOAD PUSH1 0x2 SLOAD PUSH1 0x40 MLOAD PUSH4 0x37382D39 PUSH1 0xE2 SHL DUP2 MSTORE PUSH1 0x1 PUSH1 0x1 PUSH1 0xA0 SHL SUB SWAP4 DUP5 AND SWAP5 SWAP1 SWAP4 SWAP3 DUP4 AND SWAP3 PUSH1 0x20 SWAP3 DUP6 SWAP3 SWAP2 DUP4 SWAP2 PUSH1 0x8 SHR AND GAS STATICCALL SWAP2 DUP3 ISZERO PUSH2 0x4CC0 JUMPI DUP14 SWAP3 PUSH2 0x4C86 JUMPI JUMPDEST POP PUSH2 0x4669 SWAP3 CALLER SWAP1 PUSH2 0x53B0 JUMP JUMPDEST PUSH2 0x124 CALLDATALOAD PUSH2 0x4C5E JUMPI JUMPDEST PUSH1 0x5 SLOAD SWAP11 PUSH2 0x467F DUP13 PUSH2 0x529C JUMP JUMPDEST PUSH1 0x5 SSTORE DUP12 DUP12 MSTORE PUSH1 0x7 PUSH1 0x20 MSTORE PUSH1 0x40 DUP12 KECCAK256 DUP13 DUP2 SSTORE PUSH1 0x2 DUP2 ADD DUP1 SLOAD PUSH1 0x1 PUSH1 0x1 PUSH1 0xA0 SHL SUB NOT AND CALLER OR SWAP1 SSTORE SWAP5 PUSH1 0x1 PUSH1 0x1 PUSH1 0x40 SHL SUB DUP3 GT PUSH2 0x4C4A JUMPI DUP2 SWAP1 PUSH2 0x46D0 DUP3 PUSH2 0x46C7 PUSH1 0x3 DUP11 ADD SLOAD PUSH2 0x4E58 JUMP JUMPDEST PUSH1 0x3 DUP11 ADD PUSH2 0x52C1 JUMP JUMPDEST DUP13 SWAP1 PUSH1 0x1F DUP4 GT PUSH1 0x1 EQ PUSH2 0x4BDE JUMPI DUP14 SWAP3 PUSH2 0x4BD3 JUMPI JUMPDEST POP POP DUP2 PUSH1 0x1 SHL SWAP2 PUSH1 0x0 NOT SWAP1 PUSH1 0x3 SHL SHR NOT AND OR PUSH1 0x3 DUP6 ADD SSTORE JUMPDEST PUSH1 0x1 PUSH1 0x1 PUSH1 0x40 SHL SUB DUP13 GT PUSH2 0x4A59 JUMPI PUSH2 0x4724 DUP13 PUSH2 0x471B PUSH1 0x4 DUP8 ADD SLOAD PUSH2 0x4E58 JUMP JUMPDEST PUSH1 0x4 DUP8 ADD PUSH2 0x52C1 JUMP JUMPDEST DUP12 DUP11 PUSH1 0x1F DUP3 GT PUSH1 0x1 EQ PUSH2 0x4B64 JUMPI DUP12 SWAP2 PUSH2 0x4B59 JUMPI JUMPDEST POP PUSH1 0x0 NOT PUSH1 0x3 DUP15 SWAP1 SHL SHR NOT AND PUSH1 0x1 DUP14 SWAP1 SHL OR PUSH1 0x4 DUP6 ADD SSTORE JUMPDEST PUSH1 0x1 PUSH1 0x1 PUSH1 0x40 SHL SUB DUP8 GT PUSH2 0x4A59 JUMPI PUSH2 0x4778 DUP8 PUSH2 0x476F PUSH1 0x5 DUP8 ADD SLOAD PUSH2 0x4E58 JUMP JUMPDEST PUSH1 0x5 DUP8 ADD PUSH2 0x52C1 JUMP JUMPDEST DUP7 DUP11 PUSH1 0x1F DUP3 GT PUSH1 0x1 EQ PUSH2 0x4AEF JUMPI DUP12 SWAP2 PUSH2 0x4AE4 JUMPI JUMPDEST POP DUP8 PUSH1 0x1 SHL SWAP1 PUSH1 0x0 NOT DUP10 PUSH1 0x3 SHL SHR NOT AND OR PUSH1 0x5 DUP6 ADD SSTORE JUMPDEST PUSH1 0x1 PUSH1 0x1 PUSH1 0x40 SHL SUB DUP6 GT PUSH2 0x4A59 JUMPI PUSH2 0x47CB DUP6 PUSH2 0x47C2 PUSH1 0x6 DUP8 ADD SLOAD PUSH2 0x4E58 JUMP JUMPDEST PUSH1 0x6 DUP8 ADD PUSH2 0x52C1 JUMP JUMPDEST DUP5 DUP11 PUSH1 0x1F DUP3 GT PUSH1 0x1 EQ PUSH2 0x4A78 JUMPI DUP12 SWAP2 PUSH2 0x4A6D JUMPI JUMPDEST POP DUP6 PUSH1 0x1 SHL SWAP1 PUSH1 0x0 NOT DUP8 PUSH1 0x3 SHL SHR NOT AND OR PUSH1 0x6 DUP6 ADD SSTORE JUMPDEST PUSH1 0x1 PUSH1 0x1 PUSH1 0x40 SHL SUB DUP3 GT PUSH2 0x4A59 JUMPI SWAP3 PUSH1 0x20 SWAP12 SWAP7 SWAP5 SWAP3 DUP3 DUP13 SWAP10 SWAP8 SWAP6 PUSH2 0x482B DUP14 SWAP6 PUSH2 0x4822 PUSH1 0x7 DUP8 ADD SLOAD PUSH2 0x4E58 JUMP JUMPDEST PUSH1 0x7 DUP8 ADD PUSH2 0x52C1 JUMP JUMPDEST DUP5 SWAP1 PUSH1 0x1F DUP4 GT PUSH1 0x1 EQ PUSH2 0x49AD JUMPI SWAP6 DUP16 PUSH2 0x4964 SWAP14 PUSH2 0x1CBB DUP15 PUSH1 0x40 DUP11 DUP6 SWAP16 SWAP15 SWAP12 SWAP11 PUSH2 0x1CEB SWAP15 SWAP11 DUP11 DUP6 SWAP16 SWAP12 DUP7 SWAP12 DUP11 SWAP16 SWAP14 PUSH2 0x1CD3 SWAP15 SWAP3 PUSH2 0x49A2 JUMPI JUMPDEST POP POP DUP2 PUSH1 0x1 SHL SWAP2 PUSH1 0x0 NOT SWAP1 PUSH1 0x3 SHL SHR NOT AND OR PUSH1 0x7 DUP4 ADD SSTORE JUMPDEST PUSH2 0x4889 PUSH1 0xA4 CALLDATALOAD PUSH1 0x8 DUP5 ADD PUSH2 0x5315 JUMP JUMPDEST PUSH1 0xC4 CALLDATALOAD PUSH1 0x9 DUP4 ADD SSTORE PUSH1 0xE4 CALLDATALOAD PUSH1 0xB DUP4 ADD SSTORE PUSH2 0x2710 PUSH2 0x48B1 PUSH2 0x104 CALLDATALOAD DUP1 PUSH1 0xC DUP7 ADD SSTORE PUSH1 0xC4 CALLDATALOAD PUSH2 0x54DD JUMP JUMPDEST DIV PUSH1 0xD DUP4 ADD SSTORE PUSH2 0x124 CALLDATALOAD PUSH1 0xE DUP4 ADD SSTORE PUSH2 0x124 CALLDATALOAD PUSH1 0xF DUP4 ADD SSTORE PUSH1 0x11 DUP3 ADD PUSH2 0x48DA PUSH2 0x144 CALLDATALOAD DUP3 PUSH2 0x5352 JUMP JUMPDEST DUP1 SLOAD PUSH3 0xFF0000 PUSH2 0x184 CALLDATALOAD PUSH1 0x10 SHL AND PUSH3 0xFFFF00 NOT SWAP1 SWAP2 AND PUSH2 0xFF00 PUSH2 0x164 CALLDATALOAD PUSH1 0x8 SHL AND OR OR DUP2 SSTORE PUSH2 0x1A4 CALLDATALOAD PUSH1 0x12 DUP5 ADD SSTORE PUSH1 0x14 DUP4 ADD DUP1 SLOAD SWAP3 ISZERO ISZERO PUSH1 0xFF AND PUSH1 0xFF NOT SWAP4 SWAP1 SWAP4 AND SWAP3 SWAP1 SWAP3 OR DUP3 SSTORE DUP1 SLOAD PUSH4 0xFF000000 NOT AND PUSH2 0x1E4 CALLDATALOAD PUSH1 0x18 SHL PUSH4 0xFF000000 AND OR SWAP1 SSTORE PUSH2 0x4947 PUSH2 0x204 CALLDATALOAD DUP3 PUSH2 0x535C JUMP JUMPDEST PUSH3 0xFF0000 NOT DUP2 SLOAD AND SWAP1 SSTORE PUSH1 0x15 TIMESTAMP SWAP2 ADD SSTORE CALLER DUP2 MSTORE PUSH1 0xB DUP7 MSTORE KECCAK256 PUSH2 0x537B JUMP JUMPDEST PUSH1 0x40 MLOAD SWAP1 DUP2 MSTORE TIMESTAMP DUP4 DUP3 ADD MSTORE DUP2 PUSH32 0xC0C6ED2669FEBBE340D8737E8EC17254FFD9E038B54A4585FF70AC3CA18956AA PUSH1 0x40 CALLER SWAP4 LOG3 PUSH1 0x1 DUP1 SSTORE PUSH1 0x40 MLOAD SWAP1 DUP2 MSTORE RETURN JUMPDEST ADD CALLDATALOAD SWAP1 POP CODESIZE DUP1 PUSH2 0x4862 JUMP JUMPDEST SWAP12 SWAP5 SWAP4 SWAP3 SWAP2 SWAP1 PUSH1 0x7 DUP5 ADD DUP6 MSTORE DUP16 DUP6 KECCAK256 SWAP1 DUP6 JUMPDEST PUSH1 0x1F NOT DUP5 AND DUP2 LT PUSH2 0x4A27 JUMPI POP PUSH1 0x20 SWAP11 SWAP10 SWAP7 PUSH2 0x1CBB PUSH2 0x4964 SWAP16 DUP16 SWAP11 SWAP5 DUP15 SWAP10 PUSH2 0x1CEB SWAP14 SWAP10 PUSH2 0x1CD3 SWAP10 PUSH1 0x1 DUP16 SWAP11 PUSH1 0x40 SWAP6 DUP16 SWAP11 SWAP8 DUP14 SWAP9 DUP4 PUSH1 0x1F NOT DUP2 AND LT PUSH2 0x4A0D JUMPI JUMPDEST POP POP POP DUP2 SHL ADD PUSH1 0x7 DUP4 ADD SSTORE PUSH2 0x487A JUMP JUMPDEST ADD CALLDATALOAD PUSH1 0x0 NOT PUSH1 0x3 DUP5 SWAP1 SHL PUSH1 0xF8 AND SHR NOT AND SWAP1 SSTORE CODESIZE DUP1 DUP1 PUSH2 0x49FD JUMP JUMPDEST SWAP3 SWAP6 POP SWAP4 SWAP7 SWAP9 SWAP11 SWAP13 SWAP3 SWAP6 SWAP8 SWAP10 SWAP12 POP DUP16 PUSH1 0x1 DUP2 SWAP3 DUP7 DUP7 ADD CALLDATALOAD DUP2 SSTORE ADD SWAP5 ADD SWAP2 ADD SWAP3 DUP14 SWAP5 SWAP2 DUP16 SWAP13 SWAP11 SWAP9 SWAP7 SWAP4 SWAP14 SWAP12 SWAP10 SWAP8 SWAP5 PUSH2 0x49BF JUMP JUMPDEST PUSH4 0x4E487B71 PUSH1 0xE0 SHL DUP11 MSTORE PUSH1 0x41 PUSH1 0x4 MSTORE PUSH1 0x24 DUP11 REVERT JUMPDEST SWAP1 POP DUP10 ADD CALLDATALOAD CODESIZE PUSH2 0x47DF JUMP JUMPDEST PUSH1 0x6 DUP7 ADD DUP13 MSTORE PUSH1 0x20 DUP13 KECCAK256 SWAP2 POP DUP12 JUMPDEST DUP12 PUSH1 0x1F NOT DUP10 AND DUP3 LT PUSH2 0x4ACC JUMPI POP POP DUP7 PUSH1 0x1F NOT DUP2 AND LT PUSH2 0x4AB2 JUMPI JUMPDEST POP POP PUSH1 0x1 DUP6 DUP2 SHL ADD PUSH1 0x6 DUP6 ADD SSTORE PUSH2 0x47F6 JUMP JUMPDEST DUP11 ADD CALLDATALOAD PUSH1 0x0 NOT PUSH1 0x3 DUP9 SWAP1 SHL PUSH1 0xF8 AND SHR NOT AND SWAP1 SSTORE CODESIZE DUP1 PUSH2 0x4AA0 JUMP JUMPDEST PUSH1 0x1 DUP4 SWAP5 PUSH1 0x20 SWAP4 SWAP5 DUP5 SWAP4 ADD CALLDATALOAD DUP2 SSTORE ADD SWAP4 ADD SWAP2 ADD PUSH2 0x4A86 JUMP JUMPDEST SWAP1 POP DUP7 ADD CALLDATALOAD CODESIZE PUSH2 0x478C JUMP JUMPDEST PUSH1 0x5 DUP7 ADD DUP13 MSTORE PUSH1 0x20 DUP13 KECCAK256 SWAP2 POP DUP12 JUMPDEST PUSH1 0x1F NOT DUP11 AND DUP2 LT PUSH2 0x4B41 JUMPI POP DUP9 PUSH1 0x1F NOT DUP2 AND LT PUSH2 0x4B27 JUMPI JUMPDEST POP POP PUSH1 0x1 DUP8 DUP2 SHL ADD PUSH1 0x5 DUP6 ADD SSTORE PUSH2 0x47A3 JUMP JUMPDEST DUP8 ADD CALLDATALOAD PUSH1 0x0 NOT PUSH1 0x3 DUP11 SWAP1 SHL PUSH1 0xF8 AND SHR NOT AND SWAP1 SSTORE CODESIZE DUP1 PUSH2 0x4B15 JUMP JUMPDEST SWAP1 SWAP2 PUSH1 0x20 PUSH1 0x1 DUP2 SWAP3 DUP6 DUP13 ADD CALLDATALOAD DUP2 SSTORE ADD SWAP4 ADD SWAP2 ADD PUSH2 0x4AFD JUMP JUMPDEST SWAP1 POP DUP9 ADD CALLDATALOAD CODESIZE PUSH2 0x4738 JUMP JUMPDEST PUSH1 0x4 DUP7 ADD DUP13 MSTORE PUSH1 0x20 DUP13 KECCAK256 SWAP2 POP DUP12 DUP15 JUMPDEST DUP12 PUSH1 0x1F NOT DUP3 AND DUP4 LT PUSH2 0x4BB9 JUMPI POP PUSH1 0x1F NOT DUP2 AND LT SWAP1 POP PUSH2 0x4B9F JUMPI JUMPDEST POP POP PUSH1 0x1 DUP13 DUP2 SHL ADD PUSH1 0x4 DUP6 ADD SSTORE PUSH2 0x4750 JUMP JUMPDEST DUP10 ADD CALLDATALOAD PUSH1 0x0 NOT PUSH1 0x3 DUP16 SWAP1 SHL PUSH1 0xF8 AND SHR NOT AND SWAP1 SSTORE CODESIZE DUP1 PUSH2 0x4B8D JUMP JUMPDEST PUSH1 0x1 DUP5 SWAP6 PUSH1 0x20 SWAP4 SWAP5 SWAP6 DUP5 SWAP4 ADD CALLDATALOAD DUP2 SSTORE ADD SWAP5 ADD SWAP3 ADD SWAP1 PUSH2 0x4B73 JUMP JUMPDEST ADD CALLDATALOAD SWAP1 POP CODESIZE DUP1 PUSH2 0x46E4 JUMP JUMPDEST PUSH1 0x3 DUP9 ADD DUP15 MSTORE PUSH1 0x20 DUP15 KECCAK256 DUP15 SWAP5 POP SWAP2 JUMPDEST PUSH1 0x1F NOT DUP5 AND DUP6 LT PUSH2 0x4C32 JUMPI PUSH1 0x1 SWAP5 POP DUP4 PUSH1 0x1F NOT DUP2 AND LT PUSH2 0x4C18 JUMPI JUMPDEST POP POP POP DUP2 SHL ADD PUSH1 0x3 DUP6 ADD SSTORE PUSH2 0x46FC JUMP JUMPDEST ADD CALLDATALOAD PUSH1 0x0 NOT PUSH1 0x3 DUP5 SWAP1 SHL PUSH1 0xF8 AND SHR NOT AND SWAP1 SSTORE CODESIZE DUP1 DUP1 PUSH2 0x4C08 JUMP JUMPDEST DUP2 DUP2 ADD CALLDATALOAD DUP4 SSTORE PUSH1 0x20 SWAP5 DUP6 ADD SWAP5 PUSH1 0x1 SWAP1 SWAP4 ADD SWAP3 ADD PUSH2 0x4BED JUMP JUMPDEST PUSH4 0x4E487B71 PUSH1 0xE0 SHL DUP13 MSTORE PUSH1 0x41 PUSH1 0x4 MSTORE PUSH1 0x24 DUP13 REVERT JUMPDEST PUSH1 0x4 SLOAD PUSH1 0x3 SLOAD PUSH2 0x4C81 SWAP2 PUSH2 0x124 CALLDATALOAD SWAP2 PUSH1 0x1 PUSH1 0x1 PUSH1 0xA0 SHL SUB SWAP1 DUP2 AND SWAP2 CALLER SWAP2 AND PUSH2 0x53B0 JUMP JUMPDEST PUSH2 0x4672 JUMP JUMPDEST SWAP1 SWAP2 POP PUSH1 0x20 DUP2 RETURNDATASIZE PUSH1 0x20 GT PUSH2 0x4CB8 JUMPI JUMPDEST DUP2 PUSH2 0x4CA2 PUSH1 0x20 SWAP4 DUP4 PUSH2 0x4EF3 JUMP JUMPDEST DUP2 ADD SUB SLT PUSH2 0x4CB4 JUMPI MLOAD SWAP1 PUSH2 0x4669 PUSH2 0x465D JUMP JUMPDEST DUP13 DUP1 REVERT JUMPDEST RETURNDATASIZE SWAP2 POP PUSH2 0x4C95 JUMP JUMPDEST PUSH1 0x40 MLOAD RETURNDATASIZE DUP16 DUP3 RETURNDATACOPY RETURNDATASIZE SWAP1 REVERT JUMPDEST DUP9 DUP1 REVERT JUMPDEST SWAP2 DUP2 PUSH1 0x1F DUP5 ADD SLT ISZERO PUSH2 0x2052 JUMPI DUP3 CALLDATALOAD SWAP2 PUSH1 0x1 PUSH1 0x1 PUSH1 0x40 SHL SUB DUP4 GT PUSH2 0x2052 JUMPI PUSH1 0x20 DUP4 DUP2 DUP7 ADD SWAP6 ADD ADD GT PUSH2 0x2052 JUMPI JUMP JUMPDEST PUSH2 0x1C4 CALLDATALOAD SWAP1 DUP2 ISZERO ISZERO DUP3 SUB PUSH2 0x2052 JUMPI JUMP JUMPDEST PUSH1 0x4 CALLDATALOAD SWAP1 PUSH1 0x1 PUSH1 0x1 PUSH1 0xA0 SHL SUB DUP3 AND DUP3 SUB PUSH2 0x2052 JUMPI JUMP JUMPDEST PUSH1 0x24 CALLDATALOAD SWAP1 PUSH1 0x1 PUSH1 0x1 PUSH1 0xA0 SHL SUB DUP3 AND DUP3 SUB PUSH2 0x2052 JUMPI JUMP JUMPDEST PUSH1 0x40 SWAP1 PUSH1 0x3 NOT ADD SLT PUSH2 0x2052 JUMPI PUSH1 0x4 CALLDATALOAD SWAP1 PUSH1 0x24 CALLDATALOAD SWAP1 JUMP JUMPDEST DUP1 SLOAD DUP3 LT ISZERO PUSH2 0x4D66 JUMPI PUSH1 0x0 MSTORE PUSH1 0x20 PUSH1 0x0 KECCAK256 ADD SWAP1 PUSH1 0x0 SWAP1 JUMP JUMPDEST PUSH4 0x4E487B71 PUSH1 0xE0 SHL PUSH1 0x0 MSTORE PUSH1 0x32 PUSH1 0x4 MSTORE PUSH1 0x24 PUSH1 0x0 REVERT JUMPDEST PUSH1 0x20 SWAP1 DUP2 PUSH1 0x40 DUP2 DUP4 ADD SWAP3 DUP3 DUP2 MSTORE DUP6 MLOAD DUP1 SWAP5 MSTORE ADD SWAP4 ADD SWAP2 PUSH1 0x0 JUMPDEST DUP3 DUP2 LT PUSH2 0x4DA3 JUMPI POP POP POP POP SWAP1 JUMP JUMPDEST DUP4 MLOAD DUP6 MSTORE SWAP4 DUP2 ADD SWAP4 SWAP3 DUP2 ADD SWAP3 PUSH1 0x1 ADD PUSH2 0x4D95 JUMP JUMPDEST PUSH1 0x3 GT ISZERO PUSH2 0x109E JUMPI JUMP JUMPDEST SWAP1 PUSH1 0x4 DUP3 LT ISZERO PUSH2 0x109E JUMPI MSTORE JUMP JUMPDEST SWAP12 SWAP10 SWAP8 SWAP6 SWAP4 SWAP2 SWAP15 SWAP14 SWAP13 SWAP11 SWAP9 SWAP7 SWAP5 SWAP3 SWAP1 SWAP15 PUSH2 0x1C0 DUP14 ADD SWAP16 DUP14 MSTORE PUSH1 0x20 DUP14 ADD MSTORE PUSH1 0x1 PUSH1 0xA0 SHL PUSH1 0x1 SWAP1 SUB AND PUSH1 0x40 DUP13 ADD MSTORE PUSH2 0x4E03 DUP2 PUSH2 0x4DB7 JUMP JUMPDEST PUSH1 0x60 DUP12 ADD MSTORE PUSH1 0x80 DUP11 ADD MSTORE PUSH1 0xA0 DUP10 ADD MSTORE PUSH1 0xC0 DUP9 ADD MSTORE PUSH1 0xE0 DUP8 ADD MSTORE PUSH2 0x4E25 DUP2 PUSH2 0x4DB7 JUMP JUMPDEST PUSH2 0x100 DUP7 ADD MSTORE PUSH1 0xFF AND PUSH2 0x120 DUP6 ADD MSTORE PUSH1 0xFF AND PUSH2 0x140 DUP5 ADD MSTORE PUSH2 0x160 DUP4 ADD MSTORE PUSH2 0x180 DUP3 ADD MSTORE PUSH2 0x1A0 ADD PUSH2 0x4E56 SWAP2 PUSH2 0x4DC1 JUMP JUMPDEST JUMP JUMPDEST SWAP1 PUSH1 0x1 DUP3 DUP2 SHR SWAP3 AND DUP1 ISZERO PUSH2 0x4E88 JUMPI JUMPDEST PUSH1 0x20 DUP4 LT EQ PUSH2 0x4E72 JUMPI JUMP JUMPDEST PUSH4 0x4E487B71 PUSH1 0xE0 SHL PUSH1 0x0 MSTORE PUSH1 0x22 PUSH1 0x4 MSTORE PUSH1 0x24 PUSH1 0x0 REVERT JUMPDEST SWAP2 PUSH1 0x7F AND SWAP2 PUSH2 0x4E67 JUMP JUMPDEST PUSH1 0x1 PUSH1 0x1 PUSH1 0x40 SHL SUB DUP2 GT PUSH2 0x4EA5 JUMPI PUSH1 0x40 MSTORE JUMP JUMPDEST PUSH4 0x4E487B71 PUSH1 0xE0 SHL PUSH1 0x0 MSTORE PUSH1 0x41 PUSH1 0x4 MSTORE PUSH1 0x24 PUSH1 0x0 REVERT JUMPDEST PUSH2 0x1C0 DUP2 ADD SWAP1 DUP2 LT PUSH1 0x1 PUSH1 0x1 PUSH1 0x40 SHL SUB DUP3 GT OR PUSH2 0x4EA5 JUMPI PUSH1 0x40 MSTORE JUMP JUMPDEST PUSH2 0x420 DUP2 ADD SWAP1 DUP2 LT PUSH1 0x1 PUSH1 0x1 PUSH1 0x40 SHL SUB DUP3 GT OR PUSH2 0x4EA5 JUMPI PUSH1 0x40 MSTORE JUMP JUMPDEST SWAP1 PUSH1 0x1F DUP1 NOT SWAP2 ADD AND DUP2 ADD SWAP1 DUP2 LT PUSH1 0x1 PUSH1 0x1 PUSH1 0x40 SHL SUB DUP3 GT OR PUSH2 0x4EA5 JUMPI PUSH1 0x40 MSTORE JUMP JUMPDEST SWAP1 PUSH1 0x40 MLOAD SWAP2 DUP3 PUSH1 0x0 DUP3 SLOAD SWAP3 PUSH2 0x4F28 DUP5 PUSH2 0x4E58 JUMP JUMPDEST SWAP1 DUP2 DUP5 MSTORE PUSH1 0x1 SWAP5 DUP6 DUP2 AND SWAP1 DUP2 PUSH1 0x0 EQ PUSH2 0x4F95 JUMPI POP PUSH1 0x1 EQ PUSH2 0x4F52 JUMPI JUMPDEST POP POP PUSH2 0x4E56 SWAP3 POP SUB DUP4 PUSH2 0x4EF3 JUMP JUMPDEST SWAP1 SWAP4 SWAP2 POP PUSH1 0x0 MSTORE PUSH1 0x20 SWAP1 DUP2 PUSH1 0x0 KECCAK256 SWAP4 PUSH1 0x0 SWAP2 JUMPDEST DUP2 DUP4 LT PUSH2 0x4F7D JUMPI POP POP PUSH2 0x4E56 SWAP4 POP DUP3 ADD ADD CODESIZE DUP1 PUSH2 0x4F44 JUMP JUMPDEST DUP6 SLOAD DUP9 DUP5 ADD DUP6 ADD MSTORE SWAP5 DUP6 ADD SWAP5 DUP8 SWAP5 POP SWAP2 DUP4 ADD SWAP2 PUSH2 0x4F65 JUMP JUMPDEST SWAP2 POP POP PUSH2 0x4E56 SWAP5 POP PUSH1 0x20 SWAP3 POP PUSH1 0xFF NOT AND DUP3 DUP5 ADD MSTORE ISZERO ISZERO PUSH1 0x5 SHL DUP3 ADD ADD CODESIZE DUP1 PUSH2 0x4F44 JUMP JUMPDEST SWAP2 SWAP1 DUP3 MLOAD SWAP3 DUP4 DUP3 MSTORE PUSH1 0x0 JUMPDEST DUP5 DUP2 LT PUSH2 0x4FE4 JUMPI POP POP DUP3 PUSH1 0x0 PUSH1 0x20 DUP1 SWAP5 SWAP6 DUP5 ADD ADD MSTORE PUSH1 0x1F DUP1 NOT SWAP2 ADD AND ADD ADD SWAP1 JUMP JUMPDEST PUSH1 0x20 DUP2 DUP4 ADD DUP2 ADD MLOAD DUP5 DUP4 ADD DUP3 ADD MSTORE ADD PUSH2 0x4FC3 JUMP JUMPDEST PUSH1 0x2 GT ISZERO PUSH2 0x109E JUMPI JUMP JUMPDEST SWAP1 PUSH1 0xB DUP3 LT ISZERO PUSH2 0x109E JUMPI MSTORE JUMP JUMPDEST DUP1 SLOAD DUP3 LT ISZERO PUSH2 0x4D66 JUMPI PUSH1 0x0 MSTORE PUSH1 0xB PUSH1 0x20 PUSH1 0x0 KECCAK256 SWAP2 MUL ADD SWAP1 PUSH1 0x0 SWAP1 JUMP JUMPDEST CALLER PUSH1 0x0 SWAP1 DUP2 MSTORE PUSH32 0xAD3228B676F7D3CD4284A5443F17F1962B36E491B30A40B2405849E597BA5FB5 PUSH1 0x20 MSTORE PUSH1 0x40 DUP2 KECCAK256 SLOAD PUSH1 0xFF AND ISZERO PUSH2 0x5065 JUMPI POP JUMP JUMPDEST PUSH1 0x44 SWAP1 PUSH1 0x40 MLOAD SWAP1 PUSH4 0xE2517D3F PUSH1 0xE0 SHL DUP3 MSTORE CALLER PUSH1 0x4 DUP4 ADD MSTORE PUSH1 0x24 DUP3 ADD MSTORE REVERT JUMPDEST DUP1 PUSH1 0x0 MSTORE PUSH1 0x0 PUSH1 0x20 MSTORE PUSH1 0x40 PUSH1 0x0 KECCAK256 CALLER PUSH1 0x0 MSTORE PUSH1 0x20 MSTORE PUSH1 0xFF PUSH1 0x40 PUSH1 0x0 KECCAK256 SLOAD AND ISZERO PUSH2 0x5065 JUMPI POP JUMP JUMPDEST SWAP1 PUSH1 0x0 SWAP2 DUP1 DUP4 MSTORE DUP3 PUSH1 0x20 MSTORE PUSH1 0x40 DUP4 KECCAK256 SWAP2 PUSH1 0x1 DUP1 PUSH1 0xA0 SHL SUB AND SWAP2 DUP3 DUP5 MSTORE PUSH1 0x20 MSTORE PUSH1 0xFF PUSH1 0x40 DUP5 KECCAK256 SLOAD AND ISZERO PUSH1 0x0 EQ PUSH2 0x5122 JUMPI DUP1 DUP4 MSTORE DUP3 PUSH1 0x20 MSTORE PUSH1 0x40 DUP4 KECCAK256 DUP3 DUP5 MSTORE PUSH1 0x20 MSTORE PUSH1 0x40 DUP4 KECCAK256 PUSH1 0x1 PUSH1 0xFF NOT DUP3 SLOAD AND OR SWAP1 SSTORE PUSH32 0x2F8788117E7EFF1D82E926EC794901D17C78024A50270940304540A733656F0D CALLER SWAP4 DUP1 LOG4 PUSH1 0x1 SWAP1 JUMP JUMPDEST POP POP SWAP1 JUMP JUMPDEST SWAP1 PUSH1 0x0 SWAP2 DUP1 DUP4 MSTORE DUP3 PUSH1 0x20 MSTORE PUSH1 0x40 DUP4 KECCAK256 SWAP2 PUSH1 0x1 DUP1 PUSH1 0xA0 SHL SUB AND SWAP2 DUP3 DUP5 MSTORE PUSH1 0x20 MSTORE PUSH1 0xFF PUSH1 0x40 DUP5 KECCAK256 SLOAD AND PUSH1 0x0 EQ PUSH2 0x5122 JUMPI DUP1 DUP4 MSTORE DUP3 PUSH1 0x20 MSTORE PUSH1 0x40 DUP4 KECCAK256 DUP3 DUP5 MSTORE PUSH1 0x20 MSTORE PUSH1 0x40 DUP4 KECCAK256 PUSH1 0xFF NOT DUP2 SLOAD AND SWAP1 SSTORE PUSH32 0xF6391F5C32D9C69D2A47EA670B442974B53935D1EDC7FD64EB21E047A839171B CALLER SWAP4 DUP1 LOG4 PUSH1 0x1 SWAP1 JUMP JUMPDEST ISZERO PUSH2 0x51A3 JUMPI JUMP JUMPDEST PUSH1 0x40 MLOAD PUSH3 0x461BCD PUSH1 0xE5 SHL DUP2 MSTORE PUSH1 0x20 PUSH1 0x4 DUP3 ADD MSTORE PUSH1 0x26 PUSH1 0x24 DUP3 ADD MSTORE PUSH32 0x4F7074696F6E73436F72653A206E6F74696F6E616C206D75737420626520706F PUSH1 0x44 DUP3 ADD MSTORE PUSH6 0x736974697665 PUSH1 0xD0 SHL PUSH1 0x64 DUP3 ADD MSTORE PUSH1 0x84 SWAP1 REVERT JUMPDEST ISZERO PUSH2 0x51FE JUMPI JUMP JUMPDEST PUSH1 0x40 MLOAD PUSH3 0x461BCD PUSH1 0xE5 SHL DUP2 MSTORE PUSH1 0x20 PUSH1 0x4 DUP3 ADD MSTORE PUSH1 0x25 PUSH1 0x24 DUP3 ADD MSTORE PUSH32 0x4F7074696F6E73436F72653A20657870697279206D75737420626520696E2066 PUSH1 0x44 DUP3 ADD MSTORE PUSH5 0x7574757265 PUSH1 0xD8 SHL PUSH1 0x64 DUP3 ADD MSTORE PUSH1 0x84 SWAP1 REVERT JUMPDEST ISZERO PUSH2 0x5258 JUMPI JUMP JUMPDEST PUSH1 0x64 PUSH1 0x40 MLOAD PUSH3 0x461BCD PUSH1 0xE5 SHL DUP2 MSTORE PUSH1 0x20 PUSH1 0x4 DUP3 ADD MSTORE PUSH1 0x20 PUSH1 0x24 DUP3 ADD MSTORE PUSH32 0x4F7074696F6E73436F72653A206D617267696E207261746520746F6F206C6F77 PUSH1 0x44 DUP3 ADD MSTORE REVERT JUMPDEST PUSH1 0x0 NOT DUP2 EQ PUSH2 0x52AB JUMPI PUSH1 0x1 ADD SWAP1 JUMP JUMPDEST PUSH4 0x4E487B71 PUSH1 0xE0 SHL PUSH1 0x0 MSTORE PUSH1 0x11 PUSH1 0x4 MSTORE PUSH1 0x24 PUSH1 0x0 REVERT JUMPDEST SWAP1 PUSH1 0x1F DUP2 GT PUSH2 0x52CF JUMPI POP POP POP JUMP JUMPDEST PUSH1 0x0 SWAP2 DUP3 MSTORE PUSH1 0x20 DUP3 KECCAK256 SWAP1 PUSH1 0x20 PUSH1 0x1F DUP6 ADD PUSH1 0x5 SHR DUP4 ADD SWAP5 LT PUSH2 0x530B JUMPI JUMPDEST PUSH1 0x1F ADD PUSH1 0x5 SHR ADD SWAP2 JUMPDEST DUP3 DUP2 LT PUSH2 0x5300 JUMPI POP POP POP JUMP JUMPDEST DUP2 DUP2 SSTORE PUSH1 0x1 ADD PUSH2 0x52F4 JUMP JUMPDEST SWAP1 SWAP3 POP DUP3 SWAP1 PUSH2 0x52EB JUMP JUMPDEST SWAP1 PUSH2 0x531F DUP2 PUSH2 0x4FF8 JUMP JUMPDEST PUSH1 0xFF DUP1 NOT DUP4 SLOAD AND SWAP2 AND OR SWAP1 SSTORE JUMP JUMPDEST SWAP1 PUSH2 0x5337 DUP2 PUSH2 0x4DB7 JUMP JUMPDEST PUSH5 0xFF00000000 DUP3 SLOAD SWAP2 PUSH1 0x20 SHL AND SWAP1 PUSH5 0xFF00000000 NOT AND OR SWAP1 SSTORE JUMP JUMPDEST SWAP1 PUSH2 0x531F DUP2 PUSH2 0x4DB7 JUMP JUMPDEST SWAP1 PUSH2 0x5366 DUP2 PUSH2 0x4FF8 JUMP JUMPDEST PUSH2 0xFF00 DUP3 SLOAD SWAP2 PUSH1 0x8 SHL AND SWAP1 PUSH2 0xFF00 NOT AND OR SWAP1 SSTORE JUMP JUMPDEST DUP1 SLOAD PUSH1 0x1 PUSH1 0x40 SHL DUP2 LT ISZERO PUSH2 0x4EA5 JUMPI PUSH2 0x5398 SWAP2 PUSH1 0x1 DUP3 ADD DUP2 SSTORE PUSH2 0x4D4E JUMP JUMPDEST DUP2 SWAP3 SWAP2 SLOAD SWAP1 PUSH1 0x3 SHL SWAP2 DUP3 SHL SWAP2 PUSH1 0x0 NOT SWAP1 SHL NOT AND OR SWAP1 SSTORE JUMP JUMPDEST PUSH1 0x40 MLOAD PUSH4 0x23B872DD PUSH1 0xE0 SHL PUSH1 0x20 DUP1 DUP4 ADD SWAP2 DUP3 MSTORE PUSH1 0x1 PUSH1 0x1 PUSH1 0xA0 SHL SUB SWAP5 DUP6 AND PUSH1 0x24 DUP5 ADD MSTORE SWAP5 SWAP1 SWAP4 AND PUSH1 0x44 DUP3 ADD MSTORE PUSH1 0x64 DUP1 DUP3 ADD SWAP6 SWAP1 SWAP6 MSTORE SWAP4 DUP5 MSTORE SWAP3 PUSH1 0x0 SWAP2 SWAP1 PUSH2 0x53F8 PUSH1 0x84 DUP3 PUSH2 0x4EF3 JUMP JUMPDEST MLOAD SWAP1 DUP3 DUP6 GAS CALL ISZERO PUSH2 0x544B JUMPI PUSH1 0x0 MLOAD RETURNDATASIZE PUSH2 0x5442 JUMPI POP PUSH1 0x1 PUSH1 0x1 PUSH1 0xA0 SHL SUB DUP2 AND EXTCODESIZE ISZERO JUMPDEST PUSH2 0x5420 JUMPI POP JUMP JUMPDEST PUSH1 0x40 MLOAD PUSH4 0x5274AFE7 PUSH1 0xE0 SHL DUP2 MSTORE PUSH1 0x1 PUSH1 0x1 PUSH1 0xA0 SHL SUB SWAP1 SWAP2 AND PUSH1 0x4 DUP3 ADD MSTORE PUSH1 0x24 SWAP1 REVERT JUMPDEST PUSH1 0x1 EQ ISZERO PUSH2 0x5419 JUMP JUMPDEST PUSH1 0x40 MLOAD RETURNDATASIZE PUSH1 0x0 DUP3 RETURNDATACOPY RETURNDATASIZE SWAP1 REVERT JUMPDEST PUSH1 0xFF PUSH1 0x2 SLOAD AND PUSH2 0x5463 JUMPI JUMP JUMPDEST PUSH1 0x40 MLOAD PUSH4 0xD93C0665 PUSH1 0xE0 SHL DUP2 MSTORE PUSH1 0x4 SWAP1 REVERT JUMPDEST PUSH1 0x2 PUSH1 0x1 SLOAD EQ PUSH2 0x5486 JUMPI PUSH1 0x2 PUSH1 0x1 SSTORE JUMP JUMPDEST PUSH1 0x40 MLOAD PUSH4 0x3EE5AEB5 PUSH1 0xE0 SHL DUP2 MSTORE PUSH1 0x4 SWAP1 REVERT JUMPDEST ISZERO PUSH2 0x549F JUMPI JUMP JUMPDEST PUSH1 0x40 MLOAD PUSH3 0x461BCD PUSH1 0xE5 SHL DUP2 MSTORE PUSH1 0x20 PUSH1 0x4 DUP3 ADD MSTORE PUSH1 0x16 PUSH1 0x24 DUP3 ADD MSTORE PUSH22 0x27B83A34B7B739A1B7B9329D103737BA10313ABCB2B9 PUSH1 0x51 SHL PUSH1 0x44 DUP3 ADD MSTORE PUSH1 0x64 SWAP1 REVERT JUMPDEST DUP2 DUP2 MUL SWAP3 SWAP2 DUP2 ISZERO SWAP2 DUP5 DIV EQ OR ISZERO PUSH2 0x52AB JUMPI JUMP JUMPDEST DUP2 ISZERO PUSH2 0x54FA JUMPI DIV SWAP1 JUMP JUMPDEST PUSH4 0x4E487B71 PUSH1 0xE0 SHL PUSH1 0x0 MSTORE PUSH1 0x12 PUSH1 0x4 MSTORE PUSH1 0x24 PUSH1 0x0 REVERT JUMPDEST SWAP2 SWAP1 DUP3 ADD DUP1 SWAP3 GT PUSH2 0x52AB JUMPI JUMP JUMPDEST ISZERO PUSH2 0x5524 JUMPI JUMP JUMPDEST PUSH1 0x40 MLOAD PUSH3 0x461BCD PUSH1 0xE5 SHL DUP2 MSTORE PUSH1 0x20 PUSH1 0x4 DUP3 ADD MSTORE PUSH1 0x1D PUSH1 0x24 DUP3 ADD MSTORE PUSH32 0x4F7074696F6E73436F72653A20696E76616C6964206F72646572206964000000 PUSH1 0x44 DUP3 ADD MSTORE PUSH1 0x64 SWAP1 REVERT JUMPDEST PUSH1 0xA PUSH2 0x1A0 SWAP2 DUP4 MLOAD DUP2 SSTORE PUSH1 0x20 DUP5 ADD MLOAD PUSH1 0x1 DUP3 ADD SSTORE PUSH1 0x2 DUP2 ADD PUSH1 0x1 DUP1 PUSH1 0xA0 SHL SUB PUSH1 0x40 DUP7 ADD MLOAD AND DUP2 SLOAD SWAP1 PUSH1 0x60 DUP8 ADD MLOAD PUSH2 0x559F DUP2 PUSH2 0x4DB7 JUMP JUMPDEST PUSH2 0x55A8 DUP2 PUSH2 0x4DB7 JUMP JUMPDEST PUSH1 0xFF PUSH1 0xA0 SHL SWAP1 PUSH1 0xA0 SHL AND SWAP2 PUSH11 0xFFFFFFFFFFFFFFFFFFFFFF PUSH1 0xA8 SHL AND OR OR SWAP1 SSTORE PUSH1 0x80 DUP5 ADD MLOAD PUSH1 0x3 DUP3 ADD SSTORE PUSH1 0xA0 DUP5 ADD MLOAD PUSH1 0x4 DUP3 ADD SSTORE PUSH1 0xC0 DUP5 ADD MLOAD PUSH1 0x5 DUP3 ADD SSTORE PUSH1 0xE0 DUP5 ADD MLOAD PUSH1 0x6 DUP3 ADD SSTORE PUSH2 0x5646 PUSH1 0x7 DUP3 ADD PUSH2 0x560E PUSH2 0x100 DUP8 ADD MLOAD PUSH2 0x5608 DUP2 PUSH2 0x4DB7 JUMP JUMPDEST DUP3 PUSH2 0x5352 JUMP JUMPDEST PUSH2 0x120 DUP7 ADD MLOAD DUP2 SLOAD PUSH2 0xFF00 NOT AND PUSH1 0x8 SWAP2 SWAP1 SWAP2 SHL PUSH2 0xFF00 AND OR DUP2 SSTORE PUSH2 0x140 DUP7 ADD MLOAD DUP2 SLOAD PUSH3 0xFF0000 NOT AND PUSH1 0x10 SWAP2 SWAP1 SWAP2 SHL PUSH3 0xFF0000 AND OR SWAP1 SSTORE JUMP JUMPDEST PUSH2 0x160 DUP5 ADD MLOAD PUSH1 0x8 DUP3 ADD SSTORE PUSH2 0x180 DUP5 ADD MLOAD PUSH1 0x9 DUP3 ADD SSTORE ADD SWAP2 ADD MLOAD PUSH1 0x4 DUP2 LT ISZERO PUSH2 0x109E JUMPI PUSH1 0xFF DUP1 NOT DUP4 SLOAD AND SWAP2 AND OR SWAP1 SSTORE JUMP JUMPDEST ISZERO PUSH2 0x567E JUMPI JUMP JUMPDEST PUSH1 0x40 MLOAD PUSH3 0x461BCD PUSH1 0xE5 SHL DUP2 MSTORE PUSH1 0x20 PUSH1 0x4 DUP3 ADD MSTORE PUSH1 0x17 PUSH1 0x24 DUP3 ADD MSTORE PUSH32 0x4F7074696F6E73436F72653A206E6F742073656C6C6572000000000000000000 PUSH1 0x44 DUP3 ADD MSTORE PUSH1 0x64 SWAP1 REVERT JUMPDEST ISZERO PUSH2 0x56CA JUMPI JUMP JUMPDEST PUSH1 0x40 MLOAD PUSH3 0x461BCD PUSH1 0xE5 SHL DUP2 MSTORE PUSH1 0x20 PUSH1 0x4 DUP3 ADD MSTORE PUSH1 0x1B PUSH1 0x24 DUP3 ADD MSTORE PUSH32 0x4F7074696F6E73436F72653A206F72646572206E6F74206C6976650000000000 PUSH1 0x44 DUP3 ADD MSTORE PUSH1 0x64 SWAP1 REVERT JUMPDEST SWAP2 SWAP1 DUP3 SUB SWAP2 DUP3 GT PUSH2 0x52AB JUMPI JUMP JUMPDEST ISZERO PUSH2 0x5723 JUMPI JUMP JUMPDEST PUSH1 0x40 MLOAD PUSH3 0x461BCD PUSH1 0xE5 SHL DUP2 MSTORE PUSH1 0x20 PUSH1 0x4 DUP3 ADD MSTORE PUSH1 0x1B PUSH1 0x24 DUP3 ADD MSTORE PUSH32 0x4F7074696F6E73436F72653A206E6F7420617574686F72697A65640000000000 PUSH1 0x44 DUP3 ADD MSTORE PUSH1 0x64 SWAP1 REVERT JUMPDEST SWAP1 DUP2 MLOAD DUP2 LT ISZERO PUSH2 0x4D66 JUMPI ADD PUSH1 0x20 ADD SWAP1 JUMP JUMPDEST ISZERO PUSH2 0x5780 JUMPI JUMP JUMPDEST PUSH1 0x40 MLOAD PUSH3 0x461BCD PUSH1 0xE5 SHL DUP2 MSTORE PUSH1 0x20 PUSH1 0x4 DUP3 ADD MSTORE PUSH1 0x1A PUSH1 0x24 DUP3 ADD MSTORE PUSH32 0x4F7074696F6E73436F72653A20696E76616C6964207072696365000000000000 PUSH1 0x44 DUP3 ADD MSTORE PUSH1 0x64 SWAP1 REVERT JUMPDEST PUSH1 0x1 PUSH1 0x1 PUSH1 0x40 SHL SUB DUP2 GT PUSH2 0x4EA5 JUMPI PUSH1 0x1F ADD PUSH1 0x1F NOT AND PUSH1 0x20 ADD SWAP1 JUMP JUMPDEST DUP1 ISZERO PUSH2 0x5882 JUMPI DUP1 DUP2 PUSH1 0x0 SWAP3 JUMPDEST PUSH2 0x586C JUMPI POP PUSH2 0x57FA DUP3 PUSH2 0x57C5 JUMP JUMPDEST SWAP2 PUSH2 0x5808 PUSH1 0x40 MLOAD SWAP4 DUP5 PUSH2 0x4EF3 JUMP JUMPDEST DUP1 DUP4 MSTORE DUP2 PUSH1 0x1F NOT PUSH2 0x5818 DUP4 PUSH2 0x57C5 JUMP JUMPDEST ADD CALLDATASIZE PUSH1 0x20 DUP7 ADD CALLDATACOPY JUMPDEST PUSH2 0x5829 JUMPI POP POP SWAP1 JUMP JUMPDEST PUSH1 0x0 NOT DUP2 ADD SWAP1 DUP2 GT PUSH2 0x52AB JUMPI DUP1 SWAP2 PUSH1 0xA SWAP2 PUSH1 0x30 DUP4 DUP4 MOD DUP2 ADD DUP1 SWAP2 GT PUSH2 0x52AB JUMPI PUSH1 0xF8 SHL PUSH1 0x1 PUSH1 0x1 PUSH1 0xF8 SHL SUB NOT AND PUSH1 0x0 BYTE SWAP1 PUSH2 0x5863 SWAP1 DUP7 PUSH2 0x5768 JUMP JUMPDEST MSTORE8 DIV SWAP1 DUP2 PUSH2 0x5820 JUMP JUMPDEST SWAP1 SWAP2 PUSH2 0x5879 PUSH1 0xA SWAP2 PUSH2 0x529C JUMP JUMPDEST SWAP3 SWAP2 DIV DUP1 PUSH2 0x57EC JUMP JUMPDEST POP PUSH1 0x40 MLOAD PUSH1 0x40 DUP2 ADD DUP2 DUP2 LT PUSH1 0x1 PUSH1 0x1 PUSH1 0x40 SHL SUB DUP3 GT OR PUSH2 0x4EA5 JUMPI PUSH1 0x40 MSTORE PUSH1 0x1 DUP2 MSTORE PUSH1 0x3 PUSH1 0xFC SHL PUSH1 0x20 DUP3 ADD MSTORE SWAP1 JUMP INVALID 0xCE GASPRICE BALANCE 0xBA 0xF9 SWAP6 PUSH15 0x86200EE7044A75C2BEFBD05091279 DUP12 PUSH28 0xCD25D05831AB9592A26469706673582212206A2619CCC6047359AA2E 0xAE 0x2B PUSH19 0x9C34E0C2EE49FEE698DAC2275CFFCCE1972E0 PUSH5 0x736F6C6343 STOP ADDMOD EQ STOP CALLER "},"methodIdentifiers":{"DEFAULT_ADMIN_ROLE()":"a217fddf","acceptQuote(uint256)":"5d7ffe7b","acceptSellerOrder(uint256)":"67ac0bf0","addMargin(uint256,uint256)":"d41194b8","buyerOrders(address,uint256)":"4500cb60","cancelRFQ(uint256)":"bc0ef26b","config()":"79502c55","createBuyerRFQ(string,string,string,string,string,uint8,uint256,uint256,uint256,uint256,uint8,address,uint256,uint256,bool,uint8,uint8,uint8,uint8)":"979b4e6d","createSellerOrder(string,string,string,string,string,uint8,uint256,uint256,uint256,uint256,uint8,uint8,uint8,uint256,bool,uint8,uint8)":"01d0d5b8","earlyExercise(uint256)":"46f8226c","forceLiquidate(uint256)":"6ca14389","getBuyerOrders(address)":"a45f2ebc","getOrder(uint256)":"d09ef241","getOrdersByCountry(string)":"cf3fec43","getOrdersByMarket(string)":"7d900421","getQuotes(uint256)":"d049bfef","getRoleAdmin(bytes32)":"248a9ca3","getSellerOrders(address)":"e4cbac40","grantRole(bytes32,address)":"2f2ff15d","hasRole(bytes32,address)":"91d14854","initiateArbitration(uint256)":"6af58cff","nextOrderId()":"2a58b330","nextQuoteId()":"4efef6aa","orderQuotes(uint256,uint256)":"f7ff6426","orders(uint256)":"a85c38ef","pause()":"8456cb59","paused()":"5c975abb","processFinalFeedResult(uint256,uint256)":"42dd6d3e","processInitialFeedResult(uint256,uint256)":"e02e34f8","quotes(uint256)":"a61cf0d4","recordDividend(uint256,uint256)":"77e9bad9","renounceRole(bytes32,address)":"36568abe","requestFeed(uint256,uint8)":"6dbe7579","resolveArbitration(uint256,uint256,address[])":"3280890b","revokeRole(bytes32,address)":"d547741f","sellerOrders(address,uint256)":"45cb4505","setConfig(address)":"20e3dbd4","setVaultManager(address)":"b543503e","settle(uint256)":"8df82800","submitQuote(uint256,uint256,uint256,uint8,uint8,uint8)":"7203a582","supportsInterface(bytes4)":"01ffc9a7","unpause()":"3f4ba83a","usdt()":"2f48ab7d","vaultManager()":"8a4adf24","withdrawExcessMargin(uint256,uint256)":"d1e745b1"}}}}}