{"contracts/feed/FeederSelector.sol":{"FeederSelector":{"abi":[{"inputs":[{"internalType":"address","name":"_vrfCoordinator","type":"address"},{"internalType":"uint256","name":"_subscriptionId","type":"uint256"},{"internalType":"bytes32","name":"_keyHash","type":"bytes32"},{"internalType":"address","name":"_config","type":"address"},{"internalType":"address","name":"_admin","type":"address"}],"stateMutability":"nonpayable","type":"constructor"},{"inputs":[],"name":"AccessControlBadConfirmation","type":"error"},{"inputs":[{"internalType":"address","name":"account","type":"address"},{"internalType":"bytes32","name":"neededRole","type":"bytes32"}],"name":"AccessControlUnauthorizedAccount","type":"error"},{"inputs":[{"internalType":"address","name":"have","type":"address"},{"internalType":"address","name":"want","type":"address"}],"name":"OnlyCoordinatorCanFulfill","type":"error"},{"inputs":[{"internalType":"address","name":"have","type":"address"},{"internalType":"address","name":"owner","type":"address"},{"internalType":"address","name":"coordinator","type":"address"}],"name":"OnlyOwnerOrCoordinator","type":"error"},{"inputs":[],"name":"ZeroAddress","type":"error"},{"anonymous":false,"inputs":[{"indexed":false,"internalType":"address","name":"vrfCoordinator","type":"address"}],"name":"CoordinatorSet","type":"event"},{"anonymous":false,"inputs":[{"indexed":true,"internalType":"address","name":"from","type":"address"},{"indexed":true,"internalType":"address","name":"to","type":"address"}],"name":"OwnershipTransferRequested","type":"event"},{"anonymous":false,"inputs":[{"indexed":true,"internalType":"address","name":"from","type":"address"},{"indexed":true,"internalType":"address","name":"to","type":"address"}],"name":"OwnershipTransferred","type":"event"},{"anonymous":false,"inputs":[{"indexed":true,"internalType":"bytes32","name":"role","type":"bytes32"},{"indexed":true,"internalType":"bytes32","name":"previousAdminRole","type":"bytes32"},{"indexed":true,"internalType":"bytes32","name":"newAdminRole","type":"bytes32"}],"name":"RoleAdminChanged","type":"event"},{"anonymous":false,"inputs":[{"indexed":true,"internalType":"bytes32","name":"role","type":"bytes32"},{"indexed":true,"internalType":"address","name":"account","type":"address"},{"indexed":true,"internalType":"address","name":"sender","type":"address"}],"name":"RoleGranted","type":"event"},{"anonymous":false,"inputs":[{"indexed":true,"internalType":"bytes32","name":"role","type":"bytes32"},{"indexed":true,"internalType":"address","name":"account","type":"address"},{"indexed":true,"internalType":"address","name":"sender","type":"address"}],"name":"RoleRevoked","type":"event"},{"anonymous":false,"inputs":[{"indexed":true,"internalType":"uint256","name":"selectionId","type":"uint256"},{"indexed":true,"internalType":"uint256","name":"feedRequestId","type":"uint256"},{"indexed":false,"internalType":"address[]","name":"selectedFeeders","type":"address[]"},{"indexed":false,"internalType":"uint256","name":"timestamp","type":"uint256"}],"name":"SelectionFulfilled","type":"event"},{"anonymous":false,"inputs":[{"indexed":true,"internalType":"uint256","name":"selectionId","type":"uint256"},{"indexed":true,"internalType":"uint256","name":"feedRequestId","type":"uint256"},{"indexed":false,"internalType":"uint256","name":"vrfRequestId","type":"uint256"},{"indexed":false,"internalType":"uint8","name":"numToSelect","type":"uint8"},{"indexed":false,"internalType":"uint256","name":"candidateCount","type":"uint256"},{"indexed":false,"internalType":"uint256","name":"timestamp","type":"uint256"}],"name":"SelectionRequested","type":"event"},{"anonymous":false,"inputs":[{"indexed":false,"internalType":"uint256","name":"subscriptionId","type":"uint256"},{"indexed":false,"internalType":"bytes32","name":"keyHash","type":"bytes32"},{"indexed":false,"internalType":"uint32","name":"callbackGasLimit","type":"uint32"},{"indexed":false,"internalType":"uint256","name":"timestamp","type":"uint256"}],"name":"VRFConfigUpdated","type":"event"},{"inputs":[],"name":"DEFAULT_ADMIN_ROLE","outputs":[{"internalType":"bytes32","name":"","type":"bytes32"}],"stateMutability":"view","type":"function"},{"inputs":[],"name":"FEED_PROTOCOL_ROLE","outputs":[{"internalType":"bytes32","name":"","type":"bytes32"}],"stateMutability":"view","type":"function"},{"inputs":[],"name":"SELECTOR_OPERATOR_ROLE","outputs":[{"internalType":"bytes32","name":"","type":"bytes32"}],"stateMutability":"view","type":"function"},{"inputs":[],"name":"acceptOwnership","outputs":[],"stateMutability":"nonpayable","type":"function"},{"inputs":[],"name":"config","outputs":[{"internalType":"contract Config","name":"","type":"address"}],"stateMutability":"view","type":"function"},{"inputs":[{"internalType":"uint256","name":"","type":"uint256"},{"internalType":"uint256","name":"","type":"uint256"}],"name":"feedRequestSelectedFeeders","outputs":[{"internalType":"address","name":"","type":"address"}],"stateMutability":"view","type":"function"},{"inputs":[{"internalType":"bytes32","name":"role","type":"bytes32"}],"name":"getRoleAdmin","outputs":[{"internalType":"bytes32","name":"","type":"bytes32"}],"stateMutability":"view","type":"function"},{"inputs":[{"internalType":"uint256","name":"feedRequestId","type":"uint256"}],"name":"getSelectedFeeders","outputs":[{"internalType":"address[]","name":"","type":"address[]"}],"stateMutability":"view","type":"function"},{"inputs":[{"internalType":"uint256","name":"selectionId","type":"uint256"}],"name":"getSelectionRequest","outputs":[{"internalType":"uint256","name":"requestId","type":"uint256"},{"internalType":"uint256","name":"feedRequestId","type":"uint256"},{"internalType":"uint8","name":"numToSelect","type":"uint8"},{"internalType":"address[]","name":"selectedFeeders","type":"address[]"},{"internalType":"bool","name":"fulfilled","type":"bool"},{"internalType":"uint256","name":"createdAt","type":"uint256"}],"stateMutability":"view","type":"function"},{"inputs":[{"internalType":"address","name":"feedProtocol","type":"address"}],"name":"grantFeedProtocolRole","outputs":[],"stateMutability":"nonpayable","type":"function"},{"inputs":[{"internalType":"bytes32","name":"role","type":"bytes32"},{"internalType":"address","name":"account","type":"address"}],"name":"grantRole","outputs":[],"stateMutability":"nonpayable","type":"function"},{"inputs":[{"internalType":"bytes32","name":"role","type":"bytes32"},{"internalType":"address","name":"account","type":"address"}],"name":"hasRole","outputs":[{"internalType":"bool","name":"","type":"bool"}],"stateMutability":"view","type":"function"},{"inputs":[{"internalType":"uint256","name":"selectionId","type":"uint256"}],"name":"isSelectionFulfilled","outputs":[{"internalType":"bool","name":"","type":"bool"}],"stateMutability":"view","type":"function"},{"inputs":[],"name":"nextSelectionId","outputs":[{"internalType":"uint256","name":"","type":"uint256"}],"stateMutability":"view","type":"function"},{"inputs":[],"name":"owner","outputs":[{"internalType":"address","name":"","type":"address"}],"stateMutability":"view","type":"function"},{"inputs":[{"internalType":"uint256","name":"requestId","type":"uint256"},{"internalType":"uint256[]","name":"randomWords","type":"uint256[]"}],"name":"rawFulfillRandomWords","outputs":[],"stateMutability":"nonpayable","type":"function"},{"inputs":[{"internalType":"bytes32","name":"role","type":"bytes32"},{"internalType":"address","name":"callerConfirmation","type":"address"}],"name":"renounceRole","outputs":[],"stateMutability":"nonpayable","type":"function"},{"inputs":[{"internalType":"uint256","name":"feedRequestId","type":"uint256"},{"internalType":"address[]","name":"candidates","type":"address[]"},{"internalType":"uint8","name":"numToSelect","type":"uint8"}],"name":"requestRandomSelection","outputs":[{"internalType":"uint256","name":"selectionId","type":"uint256"}],"stateMutability":"nonpayable","type":"function"},{"inputs":[{"internalType":"bytes32","name":"role","type":"bytes32"},{"internalType":"address","name":"account","type":"address"}],"name":"revokeRole","outputs":[],"stateMutability":"nonpayable","type":"function"},{"inputs":[],"name":"s_callbackGasLimit","outputs":[{"internalType":"uint32","name":"","type":"uint32"}],"stateMutability":"view","type":"function"},{"inputs":[],"name":"s_keyHash","outputs":[{"internalType":"bytes32","name":"","type":"bytes32"}],"stateMutability":"view","type":"function"},{"inputs":[],"name":"s_requestConfirmations","outputs":[{"internalType":"uint16","name":"","type":"uint16"}],"stateMutability":"view","type":"function"},{"inputs":[],"name":"s_subscriptionId","outputs":[{"internalType":"uint256","name":"","type":"uint256"}],"stateMutability":"view","type":"function"},{"inputs":[],"name":"s_vrfCoordinator","outputs":[{"internalType":"contract IVRFCoordinatorV2Plus","name":"","type":"address"}],"stateMutability":"view","type":"function"},{"inputs":[{"internalType":"uint256","name":"","type":"uint256"}],"name":"selectionRequests","outputs":[{"internalType":"uint256","name":"requestId","type":"uint256"},{"internalType":"uint256","name":"feedRequestId","type":"uint256"},{"internalType":"uint8","name":"numToSelect","type":"uint8"},{"internalType":"bool","name":"fulfilled","type":"bool"},{"internalType":"uint256","name":"createdAt","type":"uint256"}],"stateMutability":"view","type":"function"},{"inputs":[{"internalType":"uint32","name":"gasLimit","type":"uint32"}],"name":"setCallbackGasLimit","outputs":[],"stateMutability":"nonpayable","type":"function"},{"inputs":[{"internalType":"address","name":"_config","type":"address"}],"name":"setConfig","outputs":[],"stateMutability":"nonpayable","type":"function"},{"inputs":[{"internalType":"address","name":"_vrfCoordinator","type":"address"}],"name":"setCoordinator","outputs":[],"stateMutability":"nonpayable","type":"function"},{"inputs":[{"internalType":"bytes32","name":"keyHash","type":"bytes32"}],"name":"setKeyHash","outputs":[],"stateMutability":"nonpayable","type":"function"},{"inputs":[{"internalType":"uint16","name":"confirmations","type":"uint16"}],"name":"setRequestConfirmations","outputs":[],"stateMutability":"nonpayable","type":"function"},{"inputs":[{"internalType":"uint256","name":"subscriptionId","type":"uint256"}],"name":"setSubscriptionId","outputs":[],"stateMutability":"nonpayable","type":"function"},{"inputs":[{"internalType":"bytes4","name":"interfaceId","type":"bytes4"}],"name":"supportsInterface","outputs":[{"internalType":"bool","name":"","type":"bool"}],"stateMutability":"view","type":"function"},{"inputs":[{"internalType":"address","name":"to","type":"address"}],"name":"transferOwnership","outputs":[],"stateMutability":"nonpayable","type":"function"},{"inputs":[{"internalType":"uint256","name":"","type":"uint256"}],"name":"vrfRequestToSelection","outputs":[{"internalType":"uint256","name":"","type":"uint256"}],"stateMutability":"view","type":"function"}],"evm":{"bytecode":{"linkReferences":{},"object":"6080346200016657601f62001fec38819003918201601f19168301916001600160401b038311848410176200016b5780849260a09460405283398101031262000166576200004d8162000181565b906020810151916040820151926200007660806200006e6060860162000181565b940162000181565b9233156200012157600080546001600160a01b031990811633179091556001600160a01b03939093169485156200010f57620000fe9564030007a1209460025416176002556006549260016009556004556005556601000000000000600160d01b039060301b169060018060d01b0319161717600655620000f78162000196565b5062000217565b50604051611d119081620002bb8239f35b60405163d92e233d60e01b8152600490fd5b60405162461bcd60e51b815260206004820152601860248201527f43616e6e6f7420736574206f776e657220746f207a65726f00000000000000006044820152606490fd5b600080fd5b634e487b7160e01b600052604160045260246000fd5b51906001600160a01b03821682036200016657565b6001600160a01b031660008181527f3617319a054d772f909f7c479a2cebe5066e836a939412e32403c99029b92eff602052604081205490919060ff16620002135781805260036020526040822081835260205260408220600160ff19825416179055339160008051602062001fcc8339815191528180a4600190565b5090565b6001600160a01b031660008181527fd9c4f60e436ec4c09f29b38c4be2eeedf2e7ee0586644753178a54cf9969c4bd60205260408120549091907f3075bddb9682497d047160e502d3b6d1b6b9bb9956c58894f7340019daec2bfa9060ff16620002b55780835260036020526040832082845260205260408320600160ff1982541617905560008051602062001fcc833981519152339380a4600190565b50509056fe608080604052600436101561001357600080fd5b60003560e01c90816301ffc9a71461105a575080630398a79914610fdd5780630d1cabb314610fa95780631fe543e314610b8d57806320e3dbd414610b3b578063248a9ca314610b0c5780632f2ff15d14610acd57806336568abe14610a8657806345bb327b14610a6857806348ff933c14610a085780634cfa4820146109c45780635adda6011461099857806372f61e9b146108bd57806379502c551461089057806379acc2a01461087257806379ba5097146107c4578063853ee7a4146107405780638824f5a7146106f75780638ac00021146106d95780638da5cb5b146106b05780638ea98117146105e457806391d148541461059757806398544710146105235780639de4fd8a146104e85780639eccacf6146104bf578063a217fddf146104a3578063a4eb718c14610412578063c1e0d236146103a0578063c5b4e9371461037c578063cdc65ab614610341578063d1ee947e146102f4578063d547741f146102b3578063f2fde38b146101be5763f88ea2c91461019557600080fd5b346101b95760003660031901126101b957602060065461ffff60405191831c168152f35b600080fd5b346101b95760203660031901126101b9576101d76110ad565b6000546001600160a01b03908116913383900361027557169033821461023057600180546001600160a01b031916831790557fed8889f560326eb138920d842192f0eb3dd22b4f139c87a2c57538e05bae1278600080a3005b60405162461bcd60e51b815260206004820152601760248201527f43616e6e6f74207472616e7366657220746f2073656c660000000000000000006044820152606490fd5b60405162461bcd60e51b815260206004820152601660248201527527b7363c9031b0b63630b1363290313c9037bbb732b960511b6044820152606490fd5b346101b95760403660031901126101b9576102f26004356102d26110c3565b908060005260036020526102ed60016040600020015461119e565b6112f2565b005b346101b95760403660031901126101b957602435600435600052600a60205260406000209081548110156101b957600091825260209182902001546040516001600160a01b039091168152f35b346101b95760003660031901126101b95760206040517f04967fd25e7aa667b18955d808f19fd0c86238999ff8be2ebc72cd2cd3a83db08152f35b346101b95760003660031901126101b957602063ffffffff60065416604051908152f35b346101b95760203660031901126101b9577f07eff6d85425a11446beaaccfb703887be121e97c9c758fa7b752d0dab73a8436004356103dd611146565b600481905560055460065460408051938452602084019290925263ffffffff169082015242606082015280608081015b0390a1005b346101b95760203660031901126101b95760043563ffffffff8116908181036101b9577f07eff6d85425a11446beaaccfb703887be121e97c9c758fa7b752d0dab73a8439161045f611146565b63ffffffff19600654161760065560045461040d600554916040519384934292859094939263ffffffff906060936080840197845260208401521660408201520152565b346101b95760003660031901126101b957602060405160008152f35b346101b95760003660031901126101b9576002546040516001600160a01b039091168152602090f35b346101b95760003660031901126101b95760206040517f3075bddb9682497d047160e502d3b6d1b6b9bb9956c58894f7340019daec2bfa8152f35b346101b95760203660031901126101b9577f07eff6d85425a11446beaaccfb703887be121e97c9c758fa7b752d0dab73a843600435610560611146565b600581905560045460065460408051928352602083019390935263ffffffff1691810191909152426060820152806080810161040d565b346101b95760403660031901126101b9576105b06110c3565b600435600052600360205260406000209060018060a01b0316600052602052602060ff604060002054166040519015158152f35b346101b95760203660031901126101b9576105fd6110ad565b6000546001600160a01b039190821633811415806106a2575b61067a5750168015610668576020817fd1a6a14209a385a964d036e404cb5cfb71f4000cdb03c9366292430787261be6926bffffffffffffffffffffffff60a01b6002541617600255604051908152a1005b60405163d92e233d60e01b8152600490fd5b60649083600254166040519163061db9c160e01b835233600484015260248301526044820152fd5b508260025416331415610616565b346101b95760003660031901126101b9576000546040516001600160a01b039091168152602090f35b346101b95760003660031901126101b9576020600454604051908152f35b346101b95760203660031901126101b95760043561ffff811681036101b95761071e611146565b65ffff000000006006549160201b169065ffff00000000191617600655600080f35b346101b95760203660031901126101b95760043560005260076020526040600020805460018201549160ff600382015416906107b360ff6005830154169261078f600460068501549401611c81565b9060405196879687526020870152604086015260c0606086015260c0850190611109565b911515608084015260a08301520390f35b346101b95760003660031901126101b9576001546001600160a01b03808216330361083457600054916bffffffffffffffffffffffff60a01b903382851617600055166001553391167f8be0079c531659141344cd1fd0a4f28419497f9722a3daafe3b4186f6b6457e0600080a3005b60405162461bcd60e51b815260206004820152601660248201527526bab9ba10313290383937b837b9b2b21037bbb732b960511b6044820152606490fd5b346101b95760003660031901126101b9576020600954604051908152f35b346101b95760003660031901126101b95760065460405160309190911c6001600160a01b03168152602090f35b346101b95760603660031901126101b9576024356001600160401b0381116101b9576108ed9036906004016110d9565b9060443560ff811681036101b9573360009081527f0af4d9b85a2f48d6df802c0972a0ae944825f2b0f368cc8557a41a758ac8321f602052604090205460ff16156109495760209261094192600435611450565b604051908152f35b60405162461bcd60e51b815260206004820152602160248201527f46656564657253656c6563746f723a206e6f7420666565642070726f746f636f6044820152601b60fa1b6064820152608490fd5b346101b95760203660031901126101b95760043560005260086020526020604060002054604051908152f35b346101b95760203660031901126101b957600435600052600a602052610a046109f06040600020611c81565b604051918291602083526020830190611109565b0390f35b346101b95760203660031901126101b957600435600052600760205260a0604060002080549060018101549060ff600382015416600660ff6005840154169201549260405194855260208501526040840152151560608301526080820152f35b346101b95760003660031901126101b9576020600554604051908152f35b346101b95760403660031901126101b957610a9f6110c3565b336001600160a01b03821603610abb576102f2906004356112f2565b60405163334bd91960e11b8152600490fd5b346101b95760403660031901126101b9576102f2600435610aec6110c3565b90806000526003602052610b0760016040600020015461119e565b611277565b346101b95760203660031901126101b95760043560005260036020526020600160406000200154604051908152f35b346101b95760203660031901126101b957610b546110ad565b610b5c611146565b600680546601000000000000600160d01b03191660309290921b6601000000000000600160d01b0316919091179055005b346101b95760403660031901126101b9576024356001600160401b0381116101b957610bbd9036906004016110d9565b6002546001600160a01b031633819003610f8b57506004356000526008602052604060002054908115610f465781600052600760205260406000209060ff600583015416610ef75715610ee15760ff600382015416610c1e60028301611c81565b90610c28816113e6565b94825190610c35826113e6565b9360005b838110610eba57505060005b838110610de457878787600481019083516001600160401b038111610d8857600160401b90818111610d88578354818555808210610dbb575b50602086018094600052602060002060005b838110610d9e5750505050600180928160ff1960058301541617600582015501928354600052600a6020526040600020908651926001600160401b038411610d88578311610d88578154838355808410610d5d575b5090600052602060002060005b838110610d415787877f226e40a00b208dfd029269ddc608f61c655164f99bd9dcc736dc6618af029ee2610d36895493604051918291604083526040830190611109565b4260208301520390a3005b82516001600160a01b0316818301556020909201918401610cf2565b826000528484602060002092830192015b828110610d7c575050610ce5565b60008155018590610d6e565b634e487b7160e01b600052604160045260246000fd5b82516001600160a01b031681830155602090920191600101610c90565b8460005281602060002091820191015b818110610dd85750610c7e565b60008155600101610dcb565b60405160208101908335825282604082015260408152610e0381611393565b51902081840390848211610e8e57828514610ea45706810190818111610e8e57610e8991610e646001600160a01b03610e3c848a61143c565b5116916001600160a01b03610e51828b61143c565b5116610e5d858b61143c565b528861143c565b526001600160a01b03610e77828861143c565b5116610e83828b61143c565b52611369565b610c45565b634e487b7160e01b600052601160045260246000fd5b634e487b7160e01b600052601260045260246000fd5b610edc906001600160a01b03610ed0828561143c565b5116610e83828961143c565b610c39565b634e487b7160e01b600052603260045260246000fd5b60405162461bcd60e51b815260206004820152602160248201527f46656564657253656c6563746f723a20616c72656164792066756c66696c6c656044820152601960fa1b6064820152608490fd5b60405162461bcd60e51b815260206004820152601f60248201527f46656564657253656c6563746f723a20756e6b6e6f776e2072657175657374006044820152606490fd5b6044906040519063073e64fd60e21b82523360048301526024820152fd5b346101b95760203660031901126101b9576004356000526007602052602060ff600560406000200154166040519015158152f35b346101b95760203660031901126101b9576102f2610ff96110ad565b611001611146565b7f04967fd25e7aa667b18955d808f19fd0c86238999ff8be2ebc72cd2cd3a83db060005260036020527f0af4d9b85a2f48d6df802c0972a0ae944825f2b0f368cc8557a41a758ac83220546110559061119e565b6111c4565b346101b95760203660031901126101b9576004359063ffffffff60e01b82168092036101b957602091637965db0b60e01b811490811561109c575b5015158152f35b6301ffc9a760e01b14905083611095565b600435906001600160a01b03821682036101b957565b602435906001600160a01b03821682036101b957565b9181601f840112156101b9578235916001600160401b0383116101b9576020808501948460051b0101116101b957565b90815180825260208080930193019160005b828110611129575050505090565b83516001600160a01b03168552938101939281019260010161111b565b3360009081527f3617319a054d772f909f7c479a2cebe5066e836a939412e32403c99029b92eff602052604081205460ff16156111805750565b6044906040519063e2517d3f60e01b82523360048301526024820152fd5b80600052600360205260406000203360005260205260ff60406000205416156111805750565b6001600160a01b031660008181527f0af4d9b85a2f48d6df802c0972a0ae944825f2b0f368cc8557a41a758ac8321f60205260408120549091907f04967fd25e7aa667b18955d808f19fd0c86238999ff8be2ebc72cd2cd3a83db09060ff166112725780835260036020526040832082845260205260408320600160ff198254161790557f2f8788117e7eff1d82e926ec794901d17c78024a50270940304540a733656f0d339380a4600190565b505090565b906000918083526003602052604083209160018060a01b03169182845260205260ff604084205416156000146112725780835260036020526040832082845260205260408320600160ff198254161790557f2f8788117e7eff1d82e926ec794901d17c78024a50270940304540a733656f0d339380a4600190565b906000918083526003602052604083209160018060a01b03169182845260205260ff604084205416600014611272578083526003602052604083208284526020526040832060ff1981541690557ff6391f5c32d9c69d2a47ea670b442974b53935d1edc7fd64eb21e047a839171b339380a4600190565b6000198114610e8e5760010190565b60e081019081106001600160401b03821117610d8857604052565b606081019081106001600160401b03821117610d8857604052565b90601f801991011681019081106001600160401b03821117610d8857604052565b6001600160401b038111610d885760051b60200190565b906113f0826113cf565b6113fd60405191826113ae565b828152809261140e601f19916113cf565b0190602036910137565b9190811015610ee15760051b0190565b356001600160a01b03811681036101b95790565b8051821015610ee15760209160051b010190565b9160ff84168110611c2e5760ff841615611bd8576009549361147185611369565b6009558460ff821683146118c057506002546005546004546006546040519196936001600160a01b03169290602083016001600160401b03811184821017610d8857604052600083526040519263125fa26760e31b60208501525115156024840152602483526114e083611393565b6040519760c08901928984106001600160401b03851117610d88579063ffffffff929160a09a95946040528552602085015261ffff8160201c1660408501521660608301526001608083015286820152604051958691634d8e1c2f60e11b835260206004840152805160248401526020810151604484015261ffff604082015116606484015263ffffffff606082015116608484015263ffffffff60808201511660a4840152015160c060c48301528051908160e484015260005b8281106118a757505091816000602094826101049183838284010152601f801991011681010301925af193841561189b57600094611867575b506115de836113e6565b9060005b84811061182f57505060405190602082018281106001600160401b03821117610d8857604052600082526040519061161982611378565b85825260208201928784526040830191825260ff851660608401526080830152600060a08301524260c083015287600052600760205260406000209282518455516001840155518051906001600160401b038211610d8857600160401b8211610d88576002840154826002860155808310611802575b5060200160028401600052602060002060005b8381106117e557505050506003820160ff60608301511660ff1982541617905560808101518051906001600160401b038211610d8857600160401b8211610d885760048401548260048601558083106117b9575b50906020899796959493920160048401600052602060002060005b83811061179957505050507ff23b01468ddeeea013f475f6bdd1bae66fd850ff4c858bda26a04f96f2ce9cd1949260809492600660c08461176960a060ff9701511515600586019060ff801983541691151516179055565b0151910155836000526008602052866040600020556040519384521660208301526040820152426060820152a390565b82516001600160a01b0316818301558b9950602090920191600101611711565b6004850160005282602060002091820191015b8181106117d957506116f6565b600081556001016117cc565b82516001600160a01b0316818301556020909201916001016116a2565b600285016000526020600020908382015b818301811061182357505061168f565b60008155600101611813565b80611846611841611862938886611418565b611428565b611850828661143c565b6001600160a01b039091169052611369565b6115e2565b9093506020813d602011611893575b81611883602093836113ae565b810103126101b9575192386115d4565b3d9150611876565b6040513d6000823e3d90fd5b60208282018101516101048b840101528994500161159b565b94506118ce60ff82166113e6565b9260005b60ff83168110611bb757506040928351926118ec84611378565b6000845260209384810193888552611903846113cf565b93611910885195866113ae565b8085528685019060051b8201913683116101b957905b828210611b985750505085810192835260ff6060820192168252608081019387855260a0820160019586825260c08401924284528c60005260078952896000209451855551878501556002840195519485516001600160401b0397888211610d8857600160401b97888311610d88578b908254848455808510611b6b575b5001906000528a6000208a60005b848110611b5057505050505060ff6003860191511660ff1982541617905560048401905190815191878311610d8857868311610d885789908254848455808510611b23575b500190600052886000208860005b848110611b0857505050505090611a30600692511515600585019060ff801983541691151516179055565b5191015586600052600a845284600020908651928311610d88578211610d88578054828255808310611ade575b5090839186948996949701906000528260002060005b838110611ac157505050507f226e40a00b208dfd029269ddc608f61c655164f99bd9dcc736dc6618af029ee2939450611ab58251938385948552840190611109565b9042908301520390a390565b82516001600160a01b0316818301558a9750918401918801611a73565b8160005283838660002092830192015b828110611afc575050611a5d565b60008155018490611aee565b83516001600160a01b031683820155928b01928a9101611a05565b836000528a858460002092830192015b828110611b415750506119f7565b600081558d94508c9101611b33565b83516001600160a01b031683820155928d01928c91016119b2565b836000528c858460002092830192015b828110611b895750506119a4565b600081558f94508e9101611b7b565b81356001600160a01b03811681036101b9578152908701908701611926565b80611bc9611841611bd3938786611418565b611850828861143c565b6118d2565b60405162461bcd60e51b815260206004820152602860248201527f46656564657253656c6563746f723a206d7573742073656c656374206174206c60448201526765617374206f6e6560c01b6064820152608490fd5b60405162461bcd60e51b815260206004820152602560248201527f46656564657253656c6563746f723a206e6f7420656e6f7567682063616e6469604482015264646174657360d81b6064820152608490fd5b9060405191828154918282526020928383019160005283600020936000905b828210611cb857505050611cb6925003836113ae565b565b85546001600160a01b031684526001958601958895509381019390910190611ca056fea2646970667358221220646db41fee5f86e847388848282cc71703c6339002c295566d00be1a9ef6e33464736f6c634300081400332f8788117e7eff1d82e926ec794901d17c78024a50270940304540a733656f0d","opcodes":"PUSH1 0x80 CALLVALUE PUSH3 0x166 JUMPI PUSH1 0x1F PUSH3 0x1FEC CODESIZE DUP2 SWAP1 SUB SWAP2 DUP3 ADD PUSH1 0x1F NOT AND DUP4 ADD SWAP2 PUSH1 0x1 PUSH1 0x1 PUSH1 0x40 SHL SUB DUP4 GT DUP5 DUP5 LT OR PUSH3 0x16B JUMPI DUP1 DUP5 SWAP3 PUSH1 0xA0 SWAP5 PUSH1 0x40 MSTORE DUP4 CODECOPY DUP2 ADD SUB SLT PUSH3 0x166 JUMPI PUSH3 0x4D DUP2 PUSH3 0x181 JUMP JUMPDEST SWAP1 PUSH1 0x20 DUP2 ADD MLOAD SWAP2 PUSH1 0x40 DUP3 ADD MLOAD SWAP3 PUSH3 0x76 PUSH1 0x80 PUSH3 0x6E PUSH1 0x60 DUP7 ADD PUSH3 0x181 JUMP JUMPDEST SWAP5 ADD PUSH3 0x181 JUMP JUMPDEST SWAP3 CALLER ISZERO PUSH3 0x121 JUMPI PUSH1 0x0 DUP1 SLOAD PUSH1 0x1 PUSH1 0x1 PUSH1 0xA0 SHL SUB NOT SWAP1 DUP2 AND CALLER OR SWAP1 SWAP2 SSTORE PUSH1 0x1 PUSH1 0x1 PUSH1 0xA0 SHL SUB SWAP4 SWAP1 SWAP4 AND SWAP5 DUP6 ISZERO PUSH3 0x10F JUMPI PUSH3 0xFE SWAP6 PUSH5 0x30007A120 SWAP5 PUSH1 0x2 SLOAD AND OR PUSH1 0x2 SSTORE PUSH1 0x6 SLOAD SWAP3 PUSH1 0x1 PUSH1 0x9 SSTORE PUSH1 0x4 SSTORE PUSH1 0x5 SSTORE PUSH7 0x1000000000000 PUSH1 0x1 PUSH1 0xD0 SHL SUB SWAP1 PUSH1 0x30 SHL AND SWAP1 PUSH1 0x1 DUP1 PUSH1 0xD0 SHL SUB NOT AND OR OR PUSH1 0x6 SSTORE PUSH3 0xF7 DUP2 PUSH3 0x196 JUMP JUMPDEST POP PUSH3 0x217 JUMP JUMPDEST POP PUSH1 0x40 MLOAD PUSH2 0x1D11 SWAP1 DUP2 PUSH3 0x2BB DUP3 CODECOPY RETURN JUMPDEST PUSH1 0x40 MLOAD PUSH4 0xD92E233D PUSH1 0xE0 SHL DUP2 MSTORE PUSH1 0x4 SWAP1 REVERT JUMPDEST PUSH1 0x40 MLOAD PUSH3 0x461BCD PUSH1 0xE5 SHL DUP2 MSTORE PUSH1 0x20 PUSH1 0x4 DUP3 ADD MSTORE PUSH1 0x18 PUSH1 0x24 DUP3 ADD MSTORE PUSH32 0x43616E6E6F7420736574206F776E657220746F207A65726F0000000000000000 PUSH1 0x44 DUP3 ADD MSTORE PUSH1 0x64 SWAP1 REVERT JUMPDEST PUSH1 0x0 DUP1 REVERT JUMPDEST PUSH4 0x4E487B71 PUSH1 0xE0 SHL PUSH1 0x0 MSTORE PUSH1 0x41 PUSH1 0x4 MSTORE PUSH1 0x24 PUSH1 0x0 REVERT JUMPDEST MLOAD SWAP1 PUSH1 0x1 PUSH1 0x1 PUSH1 0xA0 SHL SUB DUP3 AND DUP3 SUB PUSH3 0x166 JUMPI JUMP JUMPDEST PUSH1 0x1 PUSH1 0x1 PUSH1 0xA0 SHL SUB AND PUSH1 0x0 DUP2 DUP2 MSTORE PUSH32 0x3617319A054D772F909F7C479A2CEBE5066E836A939412E32403C99029B92EFF PUSH1 0x20 MSTORE PUSH1 0x40 DUP2 KECCAK256 SLOAD SWAP1 SWAP2 SWAP1 PUSH1 0xFF AND PUSH3 0x213 JUMPI DUP2 DUP1 MSTORE PUSH1 0x3 PUSH1 0x20 MSTORE PUSH1 0x40 DUP3 KECCAK256 DUP2 DUP4 MSTORE PUSH1 0x20 MSTORE PUSH1 0x40 DUP3 KECCAK256 PUSH1 0x1 PUSH1 0xFF NOT DUP3 SLOAD AND OR SWAP1 SSTORE CALLER SWAP2 PUSH1 0x0 DUP1 MLOAD PUSH1 0x20 PUSH3 0x1FCC DUP4 CODECOPY DUP2 MLOAD SWAP2 MSTORE DUP2 DUP1 LOG4 PUSH1 0x1 SWAP1 JUMP JUMPDEST POP SWAP1 JUMP JUMPDEST PUSH1 0x1 PUSH1 0x1 PUSH1 0xA0 SHL SUB AND PUSH1 0x0 DUP2 DUP2 MSTORE PUSH32 0xD9C4F60E436EC4C09F29B38C4BE2EEEDF2E7EE0586644753178A54CF9969C4BD PUSH1 0x20 MSTORE PUSH1 0x40 DUP2 KECCAK256 SLOAD SWAP1 SWAP2 SWAP1 PUSH32 0x3075BDDB9682497D047160E502D3B6D1B6B9BB9956C58894F7340019DAEC2BFA SWAP1 PUSH1 0xFF AND PUSH3 0x2B5 JUMPI DUP1 DUP4 MSTORE PUSH1 0x3 PUSH1 0x20 MSTORE PUSH1 0x40 DUP4 KECCAK256 DUP3 DUP5 MSTORE PUSH1 0x20 MSTORE PUSH1 0x40 DUP4 KECCAK256 PUSH1 0x1 PUSH1 0xFF NOT DUP3 SLOAD AND OR SWAP1 SSTORE PUSH1 0x0 DUP1 MLOAD PUSH1 0x20 PUSH3 0x1FCC DUP4 CODECOPY DUP2 MLOAD SWAP2 MSTORE CALLER SWAP4 DUP1 LOG4 PUSH1 0x1 SWAP1 JUMP JUMPDEST POP POP SWAP1 JUMP INVALID PUSH1 0x80 DUP1 PUSH1 0x40 MSTORE PUSH1 0x4 CALLDATASIZE LT ISZERO PUSH2 0x13 JUMPI PUSH1 0x0 DUP1 REVERT JUMPDEST PUSH1 0x0 CALLDATALOAD PUSH1 0xE0 SHR SWAP1 DUP2 PUSH4 0x1FFC9A7 EQ PUSH2 0x105A JUMPI POP DUP1 PUSH4 0x398A799 EQ PUSH2 0xFDD JUMPI DUP1 PUSH4 0xD1CABB3 EQ PUSH2 0xFA9 JUMPI DUP1 PUSH4 0x1FE543E3 EQ PUSH2 0xB8D JUMPI DUP1 PUSH4 0x20E3DBD4 EQ PUSH2 0xB3B JUMPI DUP1 PUSH4 0x248A9CA3 EQ PUSH2 0xB0C JUMPI DUP1 PUSH4 0x2F2FF15D EQ PUSH2 0xACD JUMPI DUP1 PUSH4 0x36568ABE EQ PUSH2 0xA86 JUMPI DUP1 PUSH4 0x45BB327B EQ PUSH2 0xA68 JUMPI DUP1 PUSH4 0x48FF933C EQ PUSH2 0xA08 JUMPI DUP1 PUSH4 0x4CFA4820 EQ PUSH2 0x9C4 JUMPI DUP1 PUSH4 0x5ADDA601 EQ PUSH2 0x998 JUMPI DUP1 PUSH4 0x72F61E9B EQ PUSH2 0x8BD JUMPI DUP1 PUSH4 0x79502C55 EQ PUSH2 0x890 JUMPI DUP1 PUSH4 0x79ACC2A0 EQ PUSH2 0x872 JUMPI DUP1 PUSH4 0x79BA5097 EQ PUSH2 0x7C4 JUMPI DUP1 PUSH4 0x853EE7A4 EQ PUSH2 0x740 JUMPI DUP1 PUSH4 0x8824F5A7 EQ PUSH2 0x6F7 JUMPI DUP1 PUSH4 0x8AC00021 EQ PUSH2 0x6D9 JUMPI DUP1 PUSH4 0x8DA5CB5B EQ PUSH2 0x6B0 JUMPI DUP1 PUSH4 0x8EA98117 EQ PUSH2 0x5E4 JUMPI DUP1 PUSH4 0x91D14854 EQ PUSH2 0x597 JUMPI DUP1 PUSH4 0x98544710 EQ PUSH2 0x523 JUMPI DUP1 PUSH4 0x9DE4FD8A EQ PUSH2 0x4E8 JUMPI DUP1 PUSH4 0x9ECCACF6 EQ PUSH2 0x4BF JUMPI DUP1 PUSH4 0xA217FDDF EQ PUSH2 0x4A3 JUMPI DUP1 PUSH4 0xA4EB718C EQ PUSH2 0x412 JUMPI DUP1 PUSH4 0xC1E0D236 EQ PUSH2 0x3A0 JUMPI DUP1 PUSH4 0xC5B4E937 EQ PUSH2 0x37C JUMPI DUP1 PUSH4 0xCDC65AB6 EQ PUSH2 0x341 JUMPI DUP1 PUSH4 0xD1EE947E EQ PUSH2 0x2F4 JUMPI DUP1 PUSH4 0xD547741F EQ PUSH2 0x2B3 JUMPI DUP1 PUSH4 0xF2FDE38B EQ PUSH2 0x1BE JUMPI PUSH4 0xF88EA2C9 EQ PUSH2 0x195 JUMPI PUSH1 0x0 DUP1 REVERT JUMPDEST CALLVALUE PUSH2 0x1B9 JUMPI PUSH1 0x0 CALLDATASIZE PUSH1 0x3 NOT ADD SLT PUSH2 0x1B9 JUMPI PUSH1 0x20 PUSH1 0x6 SLOAD PUSH2 0xFFFF PUSH1 0x40 MLOAD SWAP2 DUP4 SHR AND DUP2 MSTORE RETURN JUMPDEST PUSH1 0x0 DUP1 REVERT JUMPDEST CALLVALUE PUSH2 0x1B9 JUMPI PUSH1 0x20 CALLDATASIZE PUSH1 0x3 NOT ADD SLT PUSH2 0x1B9 JUMPI PUSH2 0x1D7 PUSH2 0x10AD JUMP JUMPDEST PUSH1 0x0 SLOAD PUSH1 0x1 PUSH1 0x1 PUSH1 0xA0 SHL SUB SWAP1 DUP2 AND SWAP2 CALLER DUP4 SWAP1 SUB PUSH2 0x275 JUMPI AND SWAP1 CALLER DUP3 EQ PUSH2 0x230 JUMPI PUSH1 0x1 DUP1 SLOAD PUSH1 0x1 PUSH1 0x1 PUSH1 0xA0 SHL SUB NOT AND DUP4 OR SWAP1 SSTORE PUSH32 0xED8889F560326EB138920D842192F0EB3DD22B4F139C87A2C57538E05BAE1278 PUSH1 0x0 DUP1 LOG3 STOP JUMPDEST PUSH1 0x40 MLOAD PUSH3 0x461BCD PUSH1 0xE5 SHL DUP2 MSTORE PUSH1 0x20 PUSH1 0x4 DUP3 ADD MSTORE PUSH1 0x17 PUSH1 0x24 DUP3 ADD MSTORE PUSH32 0x43616E6E6F74207472616E7366657220746F2073656C66000000000000000000 PUSH1 0x44 DUP3 ADD MSTORE PUSH1 0x64 SWAP1 REVERT JUMPDEST PUSH1 0x40 MLOAD PUSH3 0x461BCD PUSH1 0xE5 SHL DUP2 MSTORE PUSH1 0x20 PUSH1 0x4 DUP3 ADD MSTORE PUSH1 0x16 PUSH1 0x24 DUP3 ADD MSTORE PUSH22 0x27B7363C9031B0B63630B1363290313C9037BBB732B9 PUSH1 0x51 SHL PUSH1 0x44 DUP3 ADD MSTORE PUSH1 0x64 SWAP1 REVERT JUMPDEST CALLVALUE PUSH2 0x1B9 JUMPI PUSH1 0x40 CALLDATASIZE PUSH1 0x3 NOT ADD SLT PUSH2 0x1B9 JUMPI PUSH2 0x2F2 PUSH1 0x4 CALLDATALOAD PUSH2 0x2D2 PUSH2 0x10C3 JUMP JUMPDEST SWAP1 DUP1 PUSH1 0x0 MSTORE PUSH1 0x3 PUSH1 0x20 MSTORE PUSH2 0x2ED PUSH1 0x1 PUSH1 0x40 PUSH1 0x0 KECCAK256 ADD SLOAD PUSH2 0x119E JUMP JUMPDEST PUSH2 0x12F2 JUMP JUMPDEST STOP JUMPDEST CALLVALUE PUSH2 0x1B9 JUMPI PUSH1 0x40 CALLDATASIZE PUSH1 0x3 NOT ADD SLT PUSH2 0x1B9 JUMPI PUSH1 0x24 CALLDATALOAD PUSH1 0x4 CALLDATALOAD PUSH1 0x0 MSTORE PUSH1 0xA PUSH1 0x20 MSTORE PUSH1 0x40 PUSH1 0x0 KECCAK256 SWAP1 DUP2 SLOAD DUP2 LT ISZERO PUSH2 0x1B9 JUMPI PUSH1 0x0 SWAP2 DUP3 MSTORE PUSH1 0x20 SWAP2 DUP3 SWAP1 KECCAK256 ADD SLOAD PUSH1 0x40 MLOAD PUSH1 0x1 PUSH1 0x1 PUSH1 0xA0 SHL SUB SWAP1 SWAP2 AND DUP2 MSTORE RETURN JUMPDEST CALLVALUE PUSH2 0x1B9 JUMPI PUSH1 0x0 CALLDATASIZE PUSH1 0x3 NOT ADD SLT PUSH2 0x1B9 JUMPI PUSH1 0x20 PUSH1 0x40 MLOAD PUSH32 0x4967FD25E7AA667B18955D808F19FD0C86238999FF8BE2EBC72CD2CD3A83DB0 DUP2 MSTORE RETURN JUMPDEST CALLVALUE PUSH2 0x1B9 JUMPI PUSH1 0x0 CALLDATASIZE PUSH1 0x3 NOT ADD SLT PUSH2 0x1B9 JUMPI PUSH1 0x20 PUSH4 0xFFFFFFFF PUSH1 0x6 SLOAD AND PUSH1 0x40 MLOAD SWAP1 DUP2 MSTORE RETURN JUMPDEST CALLVALUE PUSH2 0x1B9 JUMPI PUSH1 0x20 CALLDATASIZE PUSH1 0x3 NOT ADD SLT PUSH2 0x1B9 JUMPI PUSH32 0x7EFF6D85425A11446BEAACCFB703887BE121E97C9C758FA7B752D0DAB73A843 PUSH1 0x4 CALLDATALOAD PUSH2 0x3DD PUSH2 0x1146 JUMP JUMPDEST PUSH1 0x4 DUP2 SWAP1 SSTORE PUSH1 0x5 SLOAD PUSH1 0x6 SLOAD PUSH1 0x40 DUP1 MLOAD SWAP4 DUP5 MSTORE PUSH1 0x20 DUP5 ADD SWAP3 SWAP1 SWAP3 MSTORE PUSH4 0xFFFFFFFF AND SWAP1 DUP3 ADD MSTORE TIMESTAMP PUSH1 0x60 DUP3 ADD MSTORE DUP1 PUSH1 0x80 DUP2 ADD JUMPDEST SUB SWAP1 LOG1 STOP JUMPDEST CALLVALUE PUSH2 0x1B9 JUMPI PUSH1 0x20 CALLDATASIZE PUSH1 0x3 NOT ADD SLT PUSH2 0x1B9 JUMPI PUSH1 0x4 CALLDATALOAD PUSH4 0xFFFFFFFF DUP2 AND SWAP1 DUP2 DUP2 SUB PUSH2 0x1B9 JUMPI PUSH32 0x7EFF6D85425A11446BEAACCFB703887BE121E97C9C758FA7B752D0DAB73A843 SWAP2 PUSH2 0x45F PUSH2 0x1146 JUMP JUMPDEST PUSH4 0xFFFFFFFF NOT PUSH1 0x6 SLOAD AND OR PUSH1 0x6 SSTORE PUSH1 0x4 SLOAD PUSH2 0x40D PUSH1 0x5 SLOAD SWAP2 PUSH1 0x40 MLOAD SWAP4 DUP5 SWAP4 TIMESTAMP SWAP3 DUP6 SWAP1 SWAP5 SWAP4 SWAP3 PUSH4 0xFFFFFFFF SWAP1 PUSH1 0x60 SWAP4 PUSH1 0x80 DUP5 ADD SWAP8 DUP5 MSTORE PUSH1 0x20 DUP5 ADD MSTORE AND PUSH1 0x40 DUP3 ADD MSTORE ADD MSTORE JUMP JUMPDEST CALLVALUE PUSH2 0x1B9 JUMPI PUSH1 0x0 CALLDATASIZE PUSH1 0x3 NOT ADD SLT PUSH2 0x1B9 JUMPI PUSH1 0x20 PUSH1 0x40 MLOAD PUSH1 0x0 DUP2 MSTORE RETURN JUMPDEST CALLVALUE PUSH2 0x1B9 JUMPI PUSH1 0x0 CALLDATASIZE PUSH1 0x3 NOT ADD SLT PUSH2 0x1B9 JUMPI PUSH1 0x2 SLOAD PUSH1 0x40 MLOAD PUSH1 0x1 PUSH1 0x1 PUSH1 0xA0 SHL SUB SWAP1 SWAP2 AND DUP2 MSTORE PUSH1 0x20 SWAP1 RETURN JUMPDEST CALLVALUE PUSH2 0x1B9 JUMPI PUSH1 0x0 CALLDATASIZE PUSH1 0x3 NOT ADD SLT PUSH2 0x1B9 JUMPI PUSH1 0x20 PUSH1 0x40 MLOAD PUSH32 0x3075BDDB9682497D047160E502D3B6D1B6B9BB9956C58894F7340019DAEC2BFA DUP2 MSTORE RETURN JUMPDEST CALLVALUE PUSH2 0x1B9 JUMPI PUSH1 0x20 CALLDATASIZE PUSH1 0x3 NOT ADD SLT PUSH2 0x1B9 JUMPI PUSH32 0x7EFF6D85425A11446BEAACCFB703887BE121E97C9C758FA7B752D0DAB73A843 PUSH1 0x4 CALLDATALOAD PUSH2 0x560 PUSH2 0x1146 JUMP JUMPDEST PUSH1 0x5 DUP2 SWAP1 SSTORE PUSH1 0x4 SLOAD PUSH1 0x6 SLOAD PUSH1 0x40 DUP1 MLOAD SWAP3 DUP4 MSTORE PUSH1 0x20 DUP4 ADD SWAP4 SWAP1 SWAP4 MSTORE PUSH4 0xFFFFFFFF AND SWAP2 DUP2 ADD SWAP2 SWAP1 SWAP2 MSTORE TIMESTAMP PUSH1 0x60 DUP3 ADD MSTORE DUP1 PUSH1 0x80 DUP2 ADD PUSH2 0x40D JUMP JUMPDEST CALLVALUE PUSH2 0x1B9 JUMPI PUSH1 0x40 CALLDATASIZE PUSH1 0x3 NOT ADD SLT PUSH2 0x1B9 JUMPI PUSH2 0x5B0 PUSH2 0x10C3 JUMP JUMPDEST PUSH1 0x4 CALLDATALOAD PUSH1 0x0 MSTORE PUSH1 0x3 PUSH1 0x20 MSTORE PUSH1 0x40 PUSH1 0x0 KECCAK256 SWAP1 PUSH1 0x1 DUP1 PUSH1 0xA0 SHL SUB AND PUSH1 0x0 MSTORE PUSH1 0x20 MSTORE PUSH1 0x20 PUSH1 0xFF PUSH1 0x40 PUSH1 0x0 KECCAK256 SLOAD AND PUSH1 0x40 MLOAD SWAP1 ISZERO ISZERO DUP2 MSTORE RETURN JUMPDEST CALLVALUE PUSH2 0x1B9 JUMPI PUSH1 0x20 CALLDATASIZE PUSH1 0x3 NOT ADD SLT PUSH2 0x1B9 JUMPI PUSH2 0x5FD PUSH2 0x10AD JUMP JUMPDEST PUSH1 0x0 SLOAD PUSH1 0x1 PUSH1 0x1 PUSH1 0xA0 SHL SUB SWAP2 SWAP1 DUP3 AND CALLER DUP2 EQ ISZERO DUP1 PUSH2 0x6A2 JUMPI JUMPDEST PUSH2 0x67A JUMPI POP AND DUP1 ISZERO PUSH2 0x668 JUMPI PUSH1 0x20 DUP2 PUSH32 0xD1A6A14209A385A964D036E404CB5CFB71F4000CDB03C9366292430787261BE6 SWAP3 PUSH12 0xFFFFFFFFFFFFFFFFFFFFFFFF PUSH1 0xA0 SHL PUSH1 0x2 SLOAD AND OR PUSH1 0x2 SSTORE PUSH1 0x40 MLOAD SWAP1 DUP2 MSTORE LOG1 STOP JUMPDEST PUSH1 0x40 MLOAD PUSH4 0xD92E233D PUSH1 0xE0 SHL DUP2 MSTORE PUSH1 0x4 SWAP1 REVERT JUMPDEST PUSH1 0x64 SWAP1 DUP4 PUSH1 0x2 SLOAD AND PUSH1 0x40 MLOAD SWAP2 PUSH4 0x61DB9C1 PUSH1 0xE0 SHL DUP4 MSTORE CALLER PUSH1 0x4 DUP5 ADD MSTORE PUSH1 0x24 DUP4 ADD MSTORE PUSH1 0x44 DUP3 ADD MSTORE REVERT JUMPDEST POP DUP3 PUSH1 0x2 SLOAD AND CALLER EQ ISZERO PUSH2 0x616 JUMP JUMPDEST CALLVALUE PUSH2 0x1B9 JUMPI PUSH1 0x0 CALLDATASIZE PUSH1 0x3 NOT ADD SLT PUSH2 0x1B9 JUMPI PUSH1 0x0 SLOAD PUSH1 0x40 MLOAD PUSH1 0x1 PUSH1 0x1 PUSH1 0xA0 SHL SUB SWAP1 SWAP2 AND DUP2 MSTORE PUSH1 0x20 SWAP1 RETURN JUMPDEST CALLVALUE PUSH2 0x1B9 JUMPI PUSH1 0x0 CALLDATASIZE PUSH1 0x3 NOT ADD SLT PUSH2 0x1B9 JUMPI PUSH1 0x20 PUSH1 0x4 SLOAD PUSH1 0x40 MLOAD SWAP1 DUP2 MSTORE RETURN JUMPDEST CALLVALUE PUSH2 0x1B9 JUMPI PUSH1 0x20 CALLDATASIZE PUSH1 0x3 NOT ADD SLT PUSH2 0x1B9 JUMPI PUSH1 0x4 CALLDATALOAD PUSH2 0xFFFF DUP2 AND DUP2 SUB PUSH2 0x1B9 JUMPI PUSH2 0x71E PUSH2 0x1146 JUMP JUMPDEST PUSH6 0xFFFF00000000 PUSH1 0x6 SLOAD SWAP2 PUSH1 0x20 SHL AND SWAP1 PUSH6 0xFFFF00000000 NOT AND OR PUSH1 0x6 SSTORE PUSH1 0x0 DUP1 RETURN JUMPDEST CALLVALUE PUSH2 0x1B9 JUMPI PUSH1 0x20 CALLDATASIZE PUSH1 0x3 NOT ADD SLT PUSH2 0x1B9 JUMPI PUSH1 0x4 CALLDATALOAD PUSH1 0x0 MSTORE PUSH1 0x7 PUSH1 0x20 MSTORE PUSH1 0x40 PUSH1 0x0 KECCAK256 DUP1 SLOAD PUSH1 0x1 DUP3 ADD SLOAD SWAP2 PUSH1 0xFF PUSH1 0x3 DUP3 ADD SLOAD AND SWAP1 PUSH2 0x7B3 PUSH1 0xFF PUSH1 0x5 DUP4 ADD SLOAD AND SWAP3 PUSH2 0x78F PUSH1 0x4 PUSH1 0x6 DUP6 ADD SLOAD SWAP5 ADD PUSH2 0x1C81 JUMP JUMPDEST SWAP1 PUSH1 0x40 MLOAD SWAP7 DUP8 SWAP7 DUP8 MSTORE PUSH1 0x20 DUP8 ADD MSTORE PUSH1 0x40 DUP7 ADD MSTORE PUSH1 0xC0 PUSH1 0x60 DUP7 ADD MSTORE PUSH1 0xC0 DUP6 ADD SWAP1 PUSH2 0x1109 JUMP JUMPDEST SWAP2 ISZERO ISZERO PUSH1 0x80 DUP5 ADD MSTORE PUSH1 0xA0 DUP4 ADD MSTORE SUB SWAP1 RETURN JUMPDEST CALLVALUE PUSH2 0x1B9 JUMPI PUSH1 0x0 CALLDATASIZE PUSH1 0x3 NOT ADD SLT PUSH2 0x1B9 JUMPI PUSH1 0x1 SLOAD PUSH1 0x1 PUSH1 0x1 PUSH1 0xA0 SHL SUB DUP1 DUP3 AND CALLER SUB PUSH2 0x834 JUMPI PUSH1 0x0 SLOAD SWAP2 PUSH12 0xFFFFFFFFFFFFFFFFFFFFFFFF PUSH1 0xA0 SHL SWAP1 CALLER DUP3 DUP6 AND OR PUSH1 0x0 SSTORE AND PUSH1 0x1 SSTORE CALLER SWAP2 AND PUSH32 0x8BE0079C531659141344CD1FD0A4F28419497F9722A3DAAFE3B4186F6B6457E0 PUSH1 0x0 DUP1 LOG3 STOP JUMPDEST PUSH1 0x40 MLOAD PUSH3 0x461BCD PUSH1 0xE5 SHL DUP2 MSTORE PUSH1 0x20 PUSH1 0x4 DUP3 ADD MSTORE PUSH1 0x16 PUSH1 0x24 DUP3 ADD MSTORE PUSH22 0x26BAB9BA10313290383937B837B9B2B21037BBB732B9 PUSH1 0x51 SHL PUSH1 0x44 DUP3 ADD MSTORE PUSH1 0x64 SWAP1 REVERT JUMPDEST CALLVALUE PUSH2 0x1B9 JUMPI PUSH1 0x0 CALLDATASIZE PUSH1 0x3 NOT ADD SLT PUSH2 0x1B9 JUMPI PUSH1 0x20 PUSH1 0x9 SLOAD PUSH1 0x40 MLOAD SWAP1 DUP2 MSTORE RETURN JUMPDEST CALLVALUE PUSH2 0x1B9 JUMPI PUSH1 0x0 CALLDATASIZE PUSH1 0x3 NOT ADD SLT PUSH2 0x1B9 JUMPI PUSH1 0x6 SLOAD PUSH1 0x40 MLOAD PUSH1 0x30 SWAP2 SWAP1 SWAP2 SHR PUSH1 0x1 PUSH1 0x1 PUSH1 0xA0 SHL SUB AND DUP2 MSTORE PUSH1 0x20 SWAP1 RETURN JUMPDEST CALLVALUE PUSH2 0x1B9 JUMPI PUSH1 0x60 CALLDATASIZE PUSH1 0x3 NOT ADD SLT PUSH2 0x1B9 JUMPI PUSH1 0x24 CALLDATALOAD PUSH1 0x1 PUSH1 0x1 PUSH1 0x40 SHL SUB DUP2 GT PUSH2 0x1B9 JUMPI PUSH2 0x8ED SWAP1 CALLDATASIZE SWAP1 PUSH1 0x4 ADD PUSH2 0x10D9 JUMP JUMPDEST SWAP1 PUSH1 0x44 CALLDATALOAD PUSH1 0xFF DUP2 AND DUP2 SUB PUSH2 0x1B9 JUMPI CALLER PUSH1 0x0 SWAP1 DUP2 MSTORE PUSH32 0xAF4D9B85A2F48D6DF802C0972A0AE944825F2B0F368CC8557A41A758AC8321F PUSH1 0x20 MSTORE PUSH1 0x40 SWAP1 KECCAK256 SLOAD PUSH1 0xFF AND ISZERO PUSH2 0x949 JUMPI PUSH1 0x20 SWAP3 PUSH2 0x941 SWAP3 PUSH1 0x4 CALLDATALOAD PUSH2 0x1450 JUMP JUMPDEST PUSH1 0x40 MLOAD SWAP1 DUP2 MSTORE RETURN JUMPDEST PUSH1 0x40 MLOAD PUSH3 0x461BCD PUSH1 0xE5 SHL DUP2 MSTORE PUSH1 0x20 PUSH1 0x4 DUP3 ADD MSTORE PUSH1 0x21 PUSH1 0x24 DUP3 ADD MSTORE PUSH32 0x46656564657253656C6563746F723A206E6F7420666565642070726F746F636F PUSH1 0x44 DUP3 ADD MSTORE PUSH1 0x1B PUSH1 0xFA SHL PUSH1 0x64 DUP3 ADD MSTORE PUSH1 0x84 SWAP1 REVERT JUMPDEST CALLVALUE PUSH2 0x1B9 JUMPI PUSH1 0x20 CALLDATASIZE PUSH1 0x3 NOT ADD SLT PUSH2 0x1B9 JUMPI PUSH1 0x4 CALLDATALOAD PUSH1 0x0 MSTORE PUSH1 0x8 PUSH1 0x20 MSTORE PUSH1 0x20 PUSH1 0x40 PUSH1 0x0 KECCAK256 SLOAD PUSH1 0x40 MLOAD SWAP1 DUP2 MSTORE RETURN JUMPDEST CALLVALUE PUSH2 0x1B9 JUMPI PUSH1 0x20 CALLDATASIZE PUSH1 0x3 NOT ADD SLT PUSH2 0x1B9 JUMPI PUSH1 0x4 CALLDATALOAD PUSH1 0x0 MSTORE PUSH1 0xA PUSH1 0x20 MSTORE PUSH2 0xA04 PUSH2 0x9F0 PUSH1 0x40 PUSH1 0x0 KECCAK256 PUSH2 0x1C81 JUMP JUMPDEST PUSH1 0x40 MLOAD SWAP2 DUP3 SWAP2 PUSH1 0x20 DUP4 MSTORE PUSH1 0x20 DUP4 ADD SWAP1 PUSH2 0x1109 JUMP JUMPDEST SUB SWAP1 RETURN JUMPDEST CALLVALUE PUSH2 0x1B9 JUMPI PUSH1 0x20 CALLDATASIZE PUSH1 0x3 NOT ADD SLT PUSH2 0x1B9 JUMPI PUSH1 0x4 CALLDATALOAD PUSH1 0x0 MSTORE PUSH1 0x7 PUSH1 0x20 MSTORE PUSH1 0xA0 PUSH1 0x40 PUSH1 0x0 KECCAK256 DUP1 SLOAD SWAP1 PUSH1 0x1 DUP2 ADD SLOAD SWAP1 PUSH1 0xFF PUSH1 0x3 DUP3 ADD SLOAD AND PUSH1 0x6 PUSH1 0xFF PUSH1 0x5 DUP5 ADD SLOAD AND SWAP3 ADD SLOAD SWAP3 PUSH1 0x40 MLOAD SWAP5 DUP6 MSTORE PUSH1 0x20 DUP6 ADD MSTORE PUSH1 0x40 DUP5 ADD MSTORE ISZERO ISZERO PUSH1 0x60 DUP4 ADD MSTORE PUSH1 0x80 DUP3 ADD MSTORE RETURN JUMPDEST CALLVALUE PUSH2 0x1B9 JUMPI PUSH1 0x0 CALLDATASIZE PUSH1 0x3 NOT ADD SLT PUSH2 0x1B9 JUMPI PUSH1 0x20 PUSH1 0x5 SLOAD PUSH1 0x40 MLOAD SWAP1 DUP2 MSTORE RETURN JUMPDEST CALLVALUE PUSH2 0x1B9 JUMPI PUSH1 0x40 CALLDATASIZE PUSH1 0x3 NOT ADD SLT PUSH2 0x1B9 JUMPI PUSH2 0xA9F PUSH2 0x10C3 JUMP JUMPDEST CALLER PUSH1 0x1 PUSH1 0x1 PUSH1 0xA0 SHL SUB DUP3 AND SUB PUSH2 0xABB JUMPI PUSH2 0x2F2 SWAP1 PUSH1 0x4 CALLDATALOAD PUSH2 0x12F2 JUMP JUMPDEST PUSH1 0x40 MLOAD PUSH4 0x334BD919 PUSH1 0xE1 SHL DUP2 MSTORE PUSH1 0x4 SWAP1 REVERT JUMPDEST CALLVALUE PUSH2 0x1B9 JUMPI PUSH1 0x40 CALLDATASIZE PUSH1 0x3 NOT ADD SLT PUSH2 0x1B9 JUMPI PUSH2 0x2F2 PUSH1 0x4 CALLDATALOAD PUSH2 0xAEC PUSH2 0x10C3 JUMP JUMPDEST SWAP1 DUP1 PUSH1 0x0 MSTORE PUSH1 0x3 PUSH1 0x20 MSTORE PUSH2 0xB07 PUSH1 0x1 PUSH1 0x40 PUSH1 0x0 KECCAK256 ADD SLOAD PUSH2 0x119E JUMP JUMPDEST PUSH2 0x1277 JUMP JUMPDEST CALLVALUE PUSH2 0x1B9 JUMPI PUSH1 0x20 CALLDATASIZE PUSH1 0x3 NOT ADD SLT PUSH2 0x1B9 JUMPI PUSH1 0x4 CALLDATALOAD PUSH1 0x0 MSTORE PUSH1 0x3 PUSH1 0x20 MSTORE PUSH1 0x20 PUSH1 0x1 PUSH1 0x40 PUSH1 0x0 KECCAK256 ADD SLOAD PUSH1 0x40 MLOAD SWAP1 DUP2 MSTORE RETURN JUMPDEST CALLVALUE PUSH2 0x1B9 JUMPI PUSH1 0x20 CALLDATASIZE PUSH1 0x3 NOT ADD SLT PUSH2 0x1B9 JUMPI PUSH2 0xB54 PUSH2 0x10AD JUMP JUMPDEST PUSH2 0xB5C PUSH2 0x1146 JUMP JUMPDEST PUSH1 0x6 DUP1 SLOAD PUSH7 0x1000000000000 PUSH1 0x1 PUSH1 0xD0 SHL SUB NOT AND PUSH1 0x30 SWAP3 SWAP1 SWAP3 SHL PUSH7 0x1000000000000 PUSH1 0x1 PUSH1 0xD0 SHL SUB AND SWAP2 SWAP1 SWAP2 OR SWAP1 SSTORE STOP JUMPDEST CALLVALUE PUSH2 0x1B9 JUMPI PUSH1 0x40 CALLDATASIZE PUSH1 0x3 NOT ADD SLT PUSH2 0x1B9 JUMPI PUSH1 0x24 CALLDATALOAD PUSH1 0x1 PUSH1 0x1 PUSH1 0x40 SHL SUB DUP2 GT PUSH2 0x1B9 JUMPI PUSH2 0xBBD SWAP1 CALLDATASIZE SWAP1 PUSH1 0x4 ADD PUSH2 0x10D9 JUMP JUMPDEST PUSH1 0x2 SLOAD PUSH1 0x1 PUSH1 0x1 PUSH1 0xA0 SHL SUB AND CALLER DUP2 SWAP1 SUB PUSH2 0xF8B JUMPI POP PUSH1 0x4 CALLDATALOAD PUSH1 0x0 MSTORE PUSH1 0x8 PUSH1 0x20 MSTORE PUSH1 0x40 PUSH1 0x0 KECCAK256 SLOAD SWAP1 DUP2 ISZERO PUSH2 0xF46 JUMPI DUP2 PUSH1 0x0 MSTORE PUSH1 0x7 PUSH1 0x20 MSTORE PUSH1 0x40 PUSH1 0x0 KECCAK256 SWAP1 PUSH1 0xFF PUSH1 0x5 DUP4 ADD SLOAD AND PUSH2 0xEF7 JUMPI ISZERO PUSH2 0xEE1 JUMPI PUSH1 0xFF PUSH1 0x3 DUP3 ADD SLOAD AND PUSH2 0xC1E PUSH1 0x2 DUP4 ADD PUSH2 0x1C81 JUMP JUMPDEST SWAP1 PUSH2 0xC28 DUP2 PUSH2 0x13E6 JUMP JUMPDEST SWAP5 DUP3 MLOAD SWAP1 PUSH2 0xC35 DUP3 PUSH2 0x13E6 JUMP JUMPDEST SWAP4 PUSH1 0x0 JUMPDEST DUP4 DUP2 LT PUSH2 0xEBA JUMPI POP POP PUSH1 0x0 JUMPDEST DUP4 DUP2 LT PUSH2 0xDE4 JUMPI DUP8 DUP8 DUP8 PUSH1 0x4 DUP2 ADD SWAP1 DUP4 MLOAD PUSH1 0x1 PUSH1 0x1 PUSH1 0x40 SHL SUB DUP2 GT PUSH2 0xD88 JUMPI PUSH1 0x1 PUSH1 0x40 SHL SWAP1 DUP2 DUP2 GT PUSH2 0xD88 JUMPI DUP4 SLOAD DUP2 DUP6 SSTORE DUP1 DUP3 LT PUSH2 0xDBB JUMPI JUMPDEST POP PUSH1 0x20 DUP7 ADD DUP1 SWAP5 PUSH1 0x0 MSTORE PUSH1 0x20 PUSH1 0x0 KECCAK256 PUSH1 0x0 JUMPDEST DUP4 DUP2 LT PUSH2 0xD9E JUMPI POP POP POP POP PUSH1 0x1 DUP1 SWAP3 DUP2 PUSH1 0xFF NOT PUSH1 0x5 DUP4 ADD SLOAD AND OR PUSH1 0x5 DUP3 ADD SSTORE ADD SWAP3 DUP4 SLOAD PUSH1 0x0 MSTORE PUSH1 0xA PUSH1 0x20 MSTORE PUSH1 0x40 PUSH1 0x0 KECCAK256 SWAP1 DUP7 MLOAD SWAP3 PUSH1 0x1 PUSH1 0x1 PUSH1 0x40 SHL SUB DUP5 GT PUSH2 0xD88 JUMPI DUP4 GT PUSH2 0xD88 JUMPI DUP2 SLOAD DUP4 DUP4 SSTORE DUP1 DUP5 LT PUSH2 0xD5D JUMPI JUMPDEST POP SWAP1 PUSH1 0x0 MSTORE PUSH1 0x20 PUSH1 0x0 KECCAK256 PUSH1 0x0 JUMPDEST DUP4 DUP2 LT PUSH2 0xD41 JUMPI DUP8 DUP8 PUSH32 0x226E40A00B208DFD029269DDC608F61C655164F99BD9DCC736DC6618AF029EE2 PUSH2 0xD36 DUP10 SLOAD SWAP4 PUSH1 0x40 MLOAD SWAP2 DUP3 SWAP2 PUSH1 0x40 DUP4 MSTORE PUSH1 0x40 DUP4 ADD SWAP1 PUSH2 0x1109 JUMP JUMPDEST TIMESTAMP PUSH1 0x20 DUP4 ADD MSTORE SUB SWAP1 LOG3 STOP JUMPDEST DUP3 MLOAD PUSH1 0x1 PUSH1 0x1 PUSH1 0xA0 SHL SUB AND DUP2 DUP4 ADD SSTORE PUSH1 0x20 SWAP1 SWAP3 ADD SWAP2 DUP5 ADD PUSH2 0xCF2 JUMP JUMPDEST DUP3 PUSH1 0x0 MSTORE DUP5 DUP5 PUSH1 0x20 PUSH1 0x0 KECCAK256 SWAP3 DUP4 ADD SWAP3 ADD JUMPDEST DUP3 DUP2 LT PUSH2 0xD7C JUMPI POP POP PUSH2 0xCE5 JUMP JUMPDEST PUSH1 0x0 DUP2 SSTORE ADD DUP6 SWAP1 PUSH2 0xD6E JUMP JUMPDEST PUSH4 0x4E487B71 PUSH1 0xE0 SHL PUSH1 0x0 MSTORE PUSH1 0x41 PUSH1 0x4 MSTORE PUSH1 0x24 PUSH1 0x0 REVERT JUMPDEST DUP3 MLOAD PUSH1 0x1 PUSH1 0x1 PUSH1 0xA0 SHL SUB AND DUP2 DUP4 ADD SSTORE PUSH1 0x20 SWAP1 SWAP3 ADD SWAP2 PUSH1 0x1 ADD PUSH2 0xC90 JUMP JUMPDEST DUP5 PUSH1 0x0 MSTORE DUP2 PUSH1 0x20 PUSH1 0x0 KECCAK256 SWAP2 DUP3 ADD SWAP2 ADD JUMPDEST DUP2 DUP2 LT PUSH2 0xDD8 JUMPI POP PUSH2 0xC7E JUMP JUMPDEST PUSH1 0x0 DUP2 SSTORE PUSH1 0x1 ADD PUSH2 0xDCB JUMP JUMPDEST PUSH1 0x40 MLOAD PUSH1 0x20 DUP2 ADD SWAP1 DUP4 CALLDATALOAD DUP3 MSTORE DUP3 PUSH1 0x40 DUP3 ADD MSTORE PUSH1 0x40 DUP2 MSTORE PUSH2 0xE03 DUP2 PUSH2 0x1393 JUMP JUMPDEST MLOAD SWAP1 KECCAK256 DUP2 DUP5 SUB SWAP1 DUP5 DUP3 GT PUSH2 0xE8E JUMPI DUP3 DUP6 EQ PUSH2 0xEA4 JUMPI MOD DUP2 ADD SWAP1 DUP2 DUP2 GT PUSH2 0xE8E JUMPI PUSH2 0xE89 SWAP2 PUSH2 0xE64 PUSH1 0x1 PUSH1 0x1 PUSH1 0xA0 SHL SUB PUSH2 0xE3C DUP5 DUP11 PUSH2 0x143C JUMP JUMPDEST MLOAD AND SWAP2 PUSH1 0x1 PUSH1 0x1 PUSH1 0xA0 SHL SUB PUSH2 0xE51 DUP3 DUP12 PUSH2 0x143C JUMP JUMPDEST MLOAD AND PUSH2 0xE5D DUP6 DUP12 PUSH2 0x143C JUMP JUMPDEST MSTORE DUP9 PUSH2 0x143C JUMP JUMPDEST MSTORE PUSH1 0x1 PUSH1 0x1 PUSH1 0xA0 SHL SUB PUSH2 0xE77 DUP3 DUP9 PUSH2 0x143C JUMP JUMPDEST MLOAD AND PUSH2 0xE83 DUP3 DUP12 PUSH2 0x143C JUMP JUMPDEST MSTORE PUSH2 0x1369 JUMP JUMPDEST PUSH2 0xC45 JUMP JUMPDEST PUSH4 0x4E487B71 PUSH1 0xE0 SHL PUSH1 0x0 MSTORE PUSH1 0x11 PUSH1 0x4 MSTORE PUSH1 0x24 PUSH1 0x0 REVERT JUMPDEST PUSH4 0x4E487B71 PUSH1 0xE0 SHL PUSH1 0x0 MSTORE PUSH1 0x12 PUSH1 0x4 MSTORE PUSH1 0x24 PUSH1 0x0 REVERT JUMPDEST PUSH2 0xEDC SWAP1 PUSH1 0x1 PUSH1 0x1 PUSH1 0xA0 SHL SUB PUSH2 0xED0 DUP3 DUP6 PUSH2 0x143C JUMP JUMPDEST MLOAD AND PUSH2 0xE83 DUP3 DUP10 PUSH2 0x143C JUMP JUMPDEST PUSH2 0xC39 JUMP JUMPDEST PUSH4 0x4E487B71 PUSH1 0xE0 SHL PUSH1 0x0 MSTORE PUSH1 0x32 PUSH1 0x4 MSTORE PUSH1 0x24 PUSH1 0x0 REVERT JUMPDEST PUSH1 0x40 MLOAD PUSH3 0x461BCD PUSH1 0xE5 SHL DUP2 MSTORE PUSH1 0x20 PUSH1 0x4 DUP3 ADD MSTORE PUSH1 0x21 PUSH1 0x24 DUP3 ADD MSTORE PUSH32 0x46656564657253656C6563746F723A20616C72656164792066756C66696C6C65 PUSH1 0x44 DUP3 ADD MSTORE PUSH1 0x19 PUSH1 0xFA SHL PUSH1 0x64 DUP3 ADD MSTORE PUSH1 0x84 SWAP1 REVERT JUMPDEST PUSH1 0x40 MLOAD PUSH3 0x461BCD PUSH1 0xE5 SHL DUP2 MSTORE PUSH1 0x20 PUSH1 0x4 DUP3 ADD MSTORE PUSH1 0x1F PUSH1 0x24 DUP3 ADD MSTORE PUSH32 0x46656564657253656C6563746F723A20756E6B6E6F776E207265717565737400 PUSH1 0x44 DUP3 ADD MSTORE PUSH1 0x64 SWAP1 REVERT JUMPDEST PUSH1 0x44 SWAP1 PUSH1 0x40 MLOAD SWAP1 PUSH4 0x73E64FD PUSH1 0xE2 SHL DUP3 MSTORE CALLER PUSH1 0x4 DUP4 ADD MSTORE PUSH1 0x24 DUP3 ADD MSTORE REVERT JUMPDEST CALLVALUE PUSH2 0x1B9 JUMPI PUSH1 0x20 CALLDATASIZE PUSH1 0x3 NOT ADD SLT PUSH2 0x1B9 JUMPI PUSH1 0x4 CALLDATALOAD PUSH1 0x0 MSTORE PUSH1 0x7 PUSH1 0x20 MSTORE PUSH1 0x20 PUSH1 0xFF PUSH1 0x5 PUSH1 0x40 PUSH1 0x0 KECCAK256 ADD SLOAD AND PUSH1 0x40 MLOAD SWAP1 ISZERO ISZERO DUP2 MSTORE RETURN JUMPDEST CALLVALUE PUSH2 0x1B9 JUMPI PUSH1 0x20 CALLDATASIZE PUSH1 0x3 NOT ADD SLT PUSH2 0x1B9 JUMPI PUSH2 0x2F2 PUSH2 0xFF9 PUSH2 0x10AD JUMP JUMPDEST PUSH2 0x1001 PUSH2 0x1146 JUMP JUMPDEST PUSH32 0x4967FD25E7AA667B18955D808F19FD0C86238999FF8BE2EBC72CD2CD3A83DB0 PUSH1 0x0 MSTORE PUSH1 0x3 PUSH1 0x20 MSTORE PUSH32 0xAF4D9B85A2F48D6DF802C0972A0AE944825F2B0F368CC8557A41A758AC83220 SLOAD PUSH2 0x1055 SWAP1 PUSH2 0x119E JUMP JUMPDEST PUSH2 0x11C4 JUMP JUMPDEST CALLVALUE PUSH2 0x1B9 JUMPI PUSH1 0x20 CALLDATASIZE PUSH1 0x3 NOT ADD SLT PUSH2 0x1B9 JUMPI PUSH1 0x4 CALLDATALOAD SWAP1 PUSH4 0xFFFFFFFF PUSH1 0xE0 SHL DUP3 AND DUP1 SWAP3 SUB PUSH2 0x1B9 JUMPI PUSH1 0x20 SWAP2 PUSH4 0x7965DB0B PUSH1 0xE0 SHL DUP2 EQ SWAP1 DUP2 ISZERO PUSH2 0x109C JUMPI JUMPDEST POP ISZERO ISZERO DUP2 MSTORE RETURN JUMPDEST PUSH4 0x1FFC9A7 PUSH1 0xE0 SHL EQ SWAP1 POP DUP4 PUSH2 0x1095 JUMP JUMPDEST PUSH1 0x4 CALLDATALOAD SWAP1 PUSH1 0x1 PUSH1 0x1 PUSH1 0xA0 SHL SUB DUP3 AND DUP3 SUB PUSH2 0x1B9 JUMPI JUMP JUMPDEST PUSH1 0x24 CALLDATALOAD SWAP1 PUSH1 0x1 PUSH1 0x1 PUSH1 0xA0 SHL SUB DUP3 AND DUP3 SUB PUSH2 0x1B9 JUMPI JUMP JUMPDEST SWAP2 DUP2 PUSH1 0x1F DUP5 ADD SLT ISZERO PUSH2 0x1B9 JUMPI DUP3 CALLDATALOAD SWAP2 PUSH1 0x1 PUSH1 0x1 PUSH1 0x40 SHL SUB DUP4 GT PUSH2 0x1B9 JUMPI PUSH1 0x20 DUP1 DUP6 ADD SWAP5 DUP5 PUSH1 0x5 SHL ADD ADD GT PUSH2 0x1B9 JUMPI JUMP JUMPDEST SWAP1 DUP2 MLOAD DUP1 DUP3 MSTORE PUSH1 0x20 DUP1 DUP1 SWAP4 ADD SWAP4 ADD SWAP2 PUSH1 0x0 JUMPDEST DUP3 DUP2 LT PUSH2 0x1129 JUMPI POP POP POP POP SWAP1 JUMP JUMPDEST DUP4 MLOAD PUSH1 0x1 PUSH1 0x1 PUSH1 0xA0 SHL SUB AND DUP6 MSTORE SWAP4 DUP2 ADD SWAP4 SWAP3 DUP2 ADD SWAP3 PUSH1 0x1 ADD PUSH2 0x111B JUMP JUMPDEST CALLER PUSH1 0x0 SWAP1 DUP2 MSTORE PUSH32 0x3617319A054D772F909F7C479A2CEBE5066E836A939412E32403C99029B92EFF PUSH1 0x20 MSTORE PUSH1 0x40 DUP2 KECCAK256 SLOAD PUSH1 0xFF AND ISZERO PUSH2 0x1180 JUMPI POP JUMP JUMPDEST PUSH1 0x44 SWAP1 PUSH1 0x40 MLOAD SWAP1 PUSH4 0xE2517D3F PUSH1 0xE0 SHL DUP3 MSTORE CALLER PUSH1 0x4 DUP4 ADD MSTORE PUSH1 0x24 DUP3 ADD MSTORE REVERT JUMPDEST DUP1 PUSH1 0x0 MSTORE PUSH1 0x3 PUSH1 0x20 MSTORE PUSH1 0x40 PUSH1 0x0 KECCAK256 CALLER PUSH1 0x0 MSTORE PUSH1 0x20 MSTORE PUSH1 0xFF PUSH1 0x40 PUSH1 0x0 KECCAK256 SLOAD AND ISZERO PUSH2 0x1180 JUMPI POP JUMP JUMPDEST PUSH1 0x1 PUSH1 0x1 PUSH1 0xA0 SHL SUB AND PUSH1 0x0 DUP2 DUP2 MSTORE PUSH32 0xAF4D9B85A2F48D6DF802C0972A0AE944825F2B0F368CC8557A41A758AC8321F PUSH1 0x20 MSTORE PUSH1 0x40 DUP2 KECCAK256 SLOAD SWAP1 SWAP2 SWAP1 PUSH32 0x4967FD25E7AA667B18955D808F19FD0C86238999FF8BE2EBC72CD2CD3A83DB0 SWAP1 PUSH1 0xFF AND PUSH2 0x1272 JUMPI DUP1 DUP4 MSTORE PUSH1 0x3 PUSH1 0x20 MSTORE PUSH1 0x40 DUP4 KECCAK256 DUP3 DUP5 MSTORE PUSH1 0x20 MSTORE PUSH1 0x40 DUP4 KECCAK256 PUSH1 0x1 PUSH1 0xFF NOT DUP3 SLOAD AND OR SWAP1 SSTORE PUSH32 0x2F8788117E7EFF1D82E926EC794901D17C78024A50270940304540A733656F0D CALLER SWAP4 DUP1 LOG4 PUSH1 0x1 SWAP1 JUMP JUMPDEST POP POP SWAP1 JUMP JUMPDEST SWAP1 PUSH1 0x0 SWAP2 DUP1 DUP4 MSTORE PUSH1 0x3 PUSH1 0x20 MSTORE PUSH1 0x40 DUP4 KECCAK256 SWAP2 PUSH1 0x1 DUP1 PUSH1 0xA0 SHL SUB AND SWAP2 DUP3 DUP5 MSTORE PUSH1 0x20 MSTORE PUSH1 0xFF PUSH1 0x40 DUP5 KECCAK256 SLOAD AND ISZERO PUSH1 0x0 EQ PUSH2 0x1272 JUMPI DUP1 DUP4 MSTORE PUSH1 0x3 PUSH1 0x20 MSTORE PUSH1 0x40 DUP4 KECCAK256 DUP3 DUP5 MSTORE PUSH1 0x20 MSTORE PUSH1 0x40 DUP4 KECCAK256 PUSH1 0x1 PUSH1 0xFF NOT DUP3 SLOAD AND OR SWAP1 SSTORE PUSH32 0x2F8788117E7EFF1D82E926EC794901D17C78024A50270940304540A733656F0D CALLER SWAP4 DUP1 LOG4 PUSH1 0x1 SWAP1 JUMP JUMPDEST SWAP1 PUSH1 0x0 SWAP2 DUP1 DUP4 MSTORE PUSH1 0x3 PUSH1 0x20 MSTORE PUSH1 0x40 DUP4 KECCAK256 SWAP2 PUSH1 0x1 DUP1 PUSH1 0xA0 SHL SUB AND SWAP2 DUP3 DUP5 MSTORE PUSH1 0x20 MSTORE PUSH1 0xFF PUSH1 0x40 DUP5 KECCAK256 SLOAD AND PUSH1 0x0 EQ PUSH2 0x1272 JUMPI DUP1 DUP4 MSTORE PUSH1 0x3 PUSH1 0x20 MSTORE PUSH1 0x40 DUP4 KECCAK256 DUP3 DUP5 MSTORE PUSH1 0x20 MSTORE PUSH1 0x40 DUP4 KECCAK256 PUSH1 0xFF NOT DUP2 SLOAD AND SWAP1 SSTORE PUSH32 0xF6391F5C32D9C69D2A47EA670B442974B53935D1EDC7FD64EB21E047A839171B CALLER SWAP4 DUP1 LOG4 PUSH1 0x1 SWAP1 JUMP JUMPDEST PUSH1 0x0 NOT DUP2 EQ PUSH2 0xE8E JUMPI PUSH1 0x1 ADD SWAP1 JUMP JUMPDEST PUSH1 0xE0 DUP2 ADD SWAP1 DUP2 LT PUSH1 0x1 PUSH1 0x1 PUSH1 0x40 SHL SUB DUP3 GT OR PUSH2 0xD88 JUMPI PUSH1 0x40 MSTORE JUMP JUMPDEST PUSH1 0x60 DUP2 ADD SWAP1 DUP2 LT PUSH1 0x1 PUSH1 0x1 PUSH1 0x40 SHL SUB DUP3 GT OR PUSH2 0xD88 JUMPI PUSH1 0x40 MSTORE JUMP JUMPDEST SWAP1 PUSH1 0x1F DUP1 NOT SWAP2 ADD AND DUP2 ADD SWAP1 DUP2 LT PUSH1 0x1 PUSH1 0x1 PUSH1 0x40 SHL SUB DUP3 GT OR PUSH2 0xD88 JUMPI PUSH1 0x40 MSTORE JUMP JUMPDEST PUSH1 0x1 PUSH1 0x1 PUSH1 0x40 SHL SUB DUP2 GT PUSH2 0xD88 JUMPI PUSH1 0x5 SHL PUSH1 0x20 ADD SWAP1 JUMP JUMPDEST SWAP1 PUSH2 0x13F0 DUP3 PUSH2 0x13CF JUMP JUMPDEST PUSH2 0x13FD PUSH1 0x40 MLOAD SWAP2 DUP3 PUSH2 0x13AE JUMP JUMPDEST DUP3 DUP2 MSTORE DUP1 SWAP3 PUSH2 0x140E PUSH1 0x1F NOT SWAP2 PUSH2 0x13CF JUMP JUMPDEST ADD SWAP1 PUSH1 0x20 CALLDATASIZE SWAP2 ADD CALLDATACOPY JUMP JUMPDEST SWAP2 SWAP1 DUP2 LT ISZERO PUSH2 0xEE1 JUMPI PUSH1 0x5 SHL ADD SWAP1 JUMP JUMPDEST CALLDATALOAD PUSH1 0x1 PUSH1 0x1 PUSH1 0xA0 SHL SUB DUP2 AND DUP2 SUB PUSH2 0x1B9 JUMPI SWAP1 JUMP JUMPDEST DUP1 MLOAD DUP3 LT ISZERO PUSH2 0xEE1 JUMPI PUSH1 0x20 SWAP2 PUSH1 0x5 SHL ADD ADD SWAP1 JUMP JUMPDEST SWAP2 PUSH1 0xFF DUP5 AND DUP2 LT PUSH2 0x1C2E JUMPI PUSH1 0xFF DUP5 AND ISZERO PUSH2 0x1BD8 JUMPI PUSH1 0x9 SLOAD SWAP4 PUSH2 0x1471 DUP6 PUSH2 0x1369 JUMP JUMPDEST PUSH1 0x9 SSTORE DUP5 PUSH1 0xFF DUP3 AND DUP4 EQ PUSH2 0x18C0 JUMPI POP PUSH1 0x2 SLOAD PUSH1 0x5 SLOAD PUSH1 0x4 SLOAD PUSH1 0x6 SLOAD PUSH1 0x40 MLOAD SWAP2 SWAP7 SWAP4 PUSH1 0x1 PUSH1 0x1 PUSH1 0xA0 SHL SUB AND SWAP3 SWAP1 PUSH1 0x20 DUP4 ADD PUSH1 0x1 PUSH1 0x1 PUSH1 0x40 SHL SUB DUP2 GT DUP5 DUP3 LT OR PUSH2 0xD88 JUMPI PUSH1 0x40 MSTORE PUSH1 0x0 DUP4 MSTORE PUSH1 0x40 MLOAD SWAP3 PUSH4 0x125FA267 PUSH1 0xE3 SHL PUSH1 0x20 DUP6 ADD MSTORE MLOAD ISZERO ISZERO PUSH1 0x24 DUP5 ADD MSTORE PUSH1 0x24 DUP4 MSTORE PUSH2 0x14E0 DUP4 PUSH2 0x1393 JUMP JUMPDEST PUSH1 0x40 MLOAD SWAP8 PUSH1 0xC0 DUP10 ADD SWAP3 DUP10 DUP5 LT PUSH1 0x1 PUSH1 0x1 PUSH1 0x40 SHL SUB DUP6 GT OR PUSH2 0xD88 JUMPI SWAP1 PUSH4 0xFFFFFFFF SWAP3 SWAP2 PUSH1 0xA0 SWAP11 SWAP6 SWAP5 PUSH1 0x40 MSTORE DUP6 MSTORE PUSH1 0x20 DUP6 ADD MSTORE PUSH2 0xFFFF DUP2 PUSH1 0x20 SHR AND PUSH1 0x40 DUP6 ADD MSTORE AND PUSH1 0x60 DUP4 ADD MSTORE PUSH1 0x1 PUSH1 0x80 DUP4 ADD MSTORE DUP7 DUP3 ADD MSTORE PUSH1 0x40 MLOAD SWAP6 DUP7 SWAP2 PUSH4 0x4D8E1C2F PUSH1 0xE1 SHL DUP4 MSTORE PUSH1 0x20 PUSH1 0x4 DUP5 ADD MSTORE DUP1 MLOAD PUSH1 0x24 DUP5 ADD MSTORE PUSH1 0x20 DUP2 ADD MLOAD PUSH1 0x44 DUP5 ADD MSTORE PUSH2 0xFFFF PUSH1 0x40 DUP3 ADD MLOAD AND PUSH1 0x64 DUP5 ADD MSTORE PUSH4 0xFFFFFFFF PUSH1 0x60 DUP3 ADD MLOAD AND PUSH1 0x84 DUP5 ADD MSTORE PUSH4 0xFFFFFFFF PUSH1 0x80 DUP3 ADD MLOAD AND PUSH1 0xA4 DUP5 ADD MSTORE ADD MLOAD PUSH1 0xC0 PUSH1 0xC4 DUP4 ADD MSTORE DUP1 MLOAD SWAP1 DUP2 PUSH1 0xE4 DUP5 ADD MSTORE PUSH1 0x0 JUMPDEST DUP3 DUP2 LT PUSH2 0x18A7 JUMPI POP POP SWAP2 DUP2 PUSH1 0x0 PUSH1 0x20 SWAP5 DUP3 PUSH2 0x104 SWAP2 DUP4 DUP4 DUP3 DUP5 ADD ADD MSTORE PUSH1 0x1F DUP1 NOT SWAP2 ADD AND DUP2 ADD SUB ADD SWAP3 GAS CALL SWAP4 DUP5 ISZERO PUSH2 0x189B JUMPI PUSH1 0x0 SWAP5 PUSH2 0x1867 JUMPI JUMPDEST POP PUSH2 0x15DE DUP4 PUSH2 0x13E6 JUMP JUMPDEST SWAP1 PUSH1 0x0 JUMPDEST DUP5 DUP2 LT PUSH2 0x182F JUMPI POP POP PUSH1 0x40 MLOAD SWAP1 PUSH1 0x20 DUP3 ADD DUP3 DUP2 LT PUSH1 0x1 PUSH1 0x1 PUSH1 0x40 SHL SUB DUP3 GT OR PUSH2 0xD88 JUMPI PUSH1 0x40 MSTORE PUSH1 0x0 DUP3 MSTORE PUSH1 0x40 MLOAD SWAP1 PUSH2 0x1619 DUP3 PUSH2 0x1378 JUMP JUMPDEST DUP6 DUP3 MSTORE PUSH1 0x20 DUP3 ADD SWAP3 DUP8 DUP5 MSTORE PUSH1 0x40 DUP4 ADD SWAP2 DUP3 MSTORE PUSH1 0xFF DUP6 AND PUSH1 0x60 DUP5 ADD MSTORE PUSH1 0x80 DUP4 ADD MSTORE PUSH1 0x0 PUSH1 0xA0 DUP4 ADD MSTORE TIMESTAMP PUSH1 0xC0 DUP4 ADD MSTORE DUP8 PUSH1 0x0 MSTORE PUSH1 0x7 PUSH1 0x20 MSTORE PUSH1 0x40 PUSH1 0x0 KECCAK256 SWAP3 DUP3 MLOAD DUP5 SSTORE MLOAD PUSH1 0x1 DUP5 ADD SSTORE MLOAD DUP1 MLOAD SWAP1 PUSH1 0x1 PUSH1 0x1 PUSH1 0x40 SHL SUB DUP3 GT PUSH2 0xD88 JUMPI PUSH1 0x1 PUSH1 0x40 SHL DUP3 GT PUSH2 0xD88 JUMPI PUSH1 0x2 DUP5 ADD SLOAD DUP3 PUSH1 0x2 DUP7 ADD SSTORE DUP1 DUP4 LT PUSH2 0x1802 JUMPI JUMPDEST POP PUSH1 0x20 ADD PUSH1 0x2 DUP5 ADD PUSH1 0x0 MSTORE PUSH1 0x20 PUSH1 0x0 KECCAK256 PUSH1 0x0 JUMPDEST DUP4 DUP2 LT PUSH2 0x17E5 JUMPI POP POP POP POP PUSH1 0x3 DUP3 ADD PUSH1 0xFF PUSH1 0x60 DUP4 ADD MLOAD AND PUSH1 0xFF NOT DUP3 SLOAD AND OR SWAP1 SSTORE PUSH1 0x80 DUP2 ADD MLOAD DUP1 MLOAD SWAP1 PUSH1 0x1 PUSH1 0x1 PUSH1 0x40 SHL SUB DUP3 GT PUSH2 0xD88 JUMPI PUSH1 0x1 PUSH1 0x40 SHL DUP3 GT PUSH2 0xD88 JUMPI PUSH1 0x4 DUP5 ADD SLOAD DUP3 PUSH1 0x4 DUP7 ADD SSTORE DUP1 DUP4 LT PUSH2 0x17B9 JUMPI JUMPDEST POP SWAP1 PUSH1 0x20 DUP10 SWAP8 SWAP7 SWAP6 SWAP5 SWAP4 SWAP3 ADD PUSH1 0x4 DUP5 ADD PUSH1 0x0 MSTORE PUSH1 0x20 PUSH1 0x0 KECCAK256 PUSH1 0x0 JUMPDEST DUP4 DUP2 LT PUSH2 0x1799 JUMPI POP POP POP POP PUSH32 0xF23B01468DDEEEA013F475F6BDD1BAE66FD850FF4C858BDA26A04F96F2CE9CD1 SWAP5 SWAP3 PUSH1 0x80 SWAP5 SWAP3 PUSH1 0x6 PUSH1 0xC0 DUP5 PUSH2 0x1769 PUSH1 0xA0 PUSH1 0xFF SWAP8 ADD MLOAD ISZERO ISZERO PUSH1 0x5 DUP7 ADD SWAP1 PUSH1 0xFF DUP1 NOT DUP4 SLOAD AND SWAP2 ISZERO ISZERO AND OR SWAP1 SSTORE JUMP JUMPDEST ADD MLOAD SWAP2 ADD SSTORE DUP4 PUSH1 0x0 MSTORE PUSH1 0x8 PUSH1 0x20 MSTORE DUP7 PUSH1 0x40 PUSH1 0x0 KECCAK256 SSTORE PUSH1 0x40 MLOAD SWAP4 DUP5 MSTORE AND PUSH1 0x20 DUP4 ADD MSTORE PUSH1 0x40 DUP3 ADD MSTORE TIMESTAMP PUSH1 0x60 DUP3 ADD MSTORE LOG3 SWAP1 JUMP JUMPDEST DUP3 MLOAD PUSH1 0x1 PUSH1 0x1 PUSH1 0xA0 SHL SUB AND DUP2 DUP4 ADD SSTORE DUP12 SWAP10 POP PUSH1 0x20 SWAP1 SWAP3 ADD SWAP2 PUSH1 0x1 ADD PUSH2 0x1711 JUMP JUMPDEST PUSH1 0x4 DUP6 ADD PUSH1 0x0 MSTORE DUP3 PUSH1 0x20 PUSH1 0x0 KECCAK256 SWAP2 DUP3 ADD SWAP2 ADD JUMPDEST DUP2 DUP2 LT PUSH2 0x17D9 JUMPI POP PUSH2 0x16F6 JUMP JUMPDEST PUSH1 0x0 DUP2 SSTORE PUSH1 0x1 ADD PUSH2 0x17CC JUMP JUMPDEST DUP3 MLOAD PUSH1 0x1 PUSH1 0x1 PUSH1 0xA0 SHL SUB AND DUP2 DUP4 ADD SSTORE PUSH1 0x20 SWAP1 SWAP3 ADD SWAP2 PUSH1 0x1 ADD PUSH2 0x16A2 JUMP JUMPDEST PUSH1 0x2 DUP6 ADD PUSH1 0x0 MSTORE PUSH1 0x20 PUSH1 0x0 KECCAK256 SWAP1 DUP4 DUP3 ADD JUMPDEST DUP2 DUP4 ADD DUP2 LT PUSH2 0x1823 JUMPI POP POP PUSH2 0x168F JUMP JUMPDEST PUSH1 0x0 DUP2 SSTORE PUSH1 0x1 ADD PUSH2 0x1813 JUMP JUMPDEST DUP1 PUSH2 0x1846 PUSH2 0x1841 PUSH2 0x1862 SWAP4 DUP9 DUP7 PUSH2 0x1418 JUMP JUMPDEST PUSH2 0x1428 JUMP JUMPDEST PUSH2 0x1850 DUP3 DUP7 PUSH2 0x143C JUMP JUMPDEST PUSH1 0x1 PUSH1 0x1 PUSH1 0xA0 SHL SUB SWAP1 SWAP2 AND SWAP1 MSTORE PUSH2 0x1369 JUMP JUMPDEST PUSH2 0x15E2 JUMP JUMPDEST SWAP1 SWAP4 POP PUSH1 0x20 DUP2 RETURNDATASIZE PUSH1 0x20 GT PUSH2 0x1893 JUMPI JUMPDEST DUP2 PUSH2 0x1883 PUSH1 0x20 SWAP4 DUP4 PUSH2 0x13AE JUMP JUMPDEST DUP2 ADD SUB SLT PUSH2 0x1B9 JUMPI MLOAD SWAP3 CODESIZE PUSH2 0x15D4 JUMP JUMPDEST RETURNDATASIZE SWAP2 POP PUSH2 0x1876 JUMP JUMPDEST PUSH1 0x40 MLOAD RETURNDATASIZE PUSH1 0x0 DUP3 RETURNDATACOPY RETURNDATASIZE SWAP1 REVERT JUMPDEST PUSH1 0x20 DUP3 DUP3 ADD DUP2 ADD MLOAD PUSH2 0x104 DUP12 DUP5 ADD ADD MSTORE DUP10 SWAP5 POP ADD PUSH2 0x159B JUMP JUMPDEST SWAP5 POP PUSH2 0x18CE PUSH1 0xFF DUP3 AND PUSH2 0x13E6 JUMP JUMPDEST SWAP3 PUSH1 0x0 JUMPDEST PUSH1 0xFF DUP4 AND DUP2 LT PUSH2 0x1BB7 JUMPI POP PUSH1 0x40 SWAP3 DUP4 MLOAD SWAP3 PUSH2 0x18EC DUP5 PUSH2 0x1378 JUMP JUMPDEST PUSH1 0x0 DUP5 MSTORE PUSH1 0x20 SWAP4 DUP5 DUP2 ADD SWAP4 DUP9 DUP6 MSTORE PUSH2 0x1903 DUP5 PUSH2 0x13CF JUMP JUMPDEST SWAP4 PUSH2 0x1910 DUP9 MLOAD SWAP6 DUP7 PUSH2 0x13AE JUMP JUMPDEST DUP1 DUP6 MSTORE DUP7 DUP6 ADD SWAP1 PUSH1 0x5 SHL DUP3 ADD SWAP2 CALLDATASIZE DUP4 GT PUSH2 0x1B9 JUMPI SWAP1 JUMPDEST DUP3 DUP3 LT PUSH2 0x1B98 JUMPI POP POP POP DUP6 DUP2 ADD SWAP3 DUP4 MSTORE PUSH1 0xFF PUSH1 0x60 DUP3 ADD SWAP3 AND DUP3 MSTORE PUSH1 0x80 DUP2 ADD SWAP4 DUP8 DUP6 MSTORE PUSH1 0xA0 DUP3 ADD PUSH1 0x1 SWAP6 DUP7 DUP3 MSTORE PUSH1 0xC0 DUP5 ADD SWAP3 TIMESTAMP DUP5 MSTORE DUP13 PUSH1 0x0 MSTORE PUSH1 0x7 DUP10 MSTORE DUP10 PUSH1 0x0 KECCAK256 SWAP5 MLOAD DUP6 SSTORE MLOAD DUP8 DUP6 ADD SSTORE PUSH1 0x2 DUP5 ADD SWAP6 MLOAD SWAP5 DUP6 MLOAD PUSH1 0x1 PUSH1 0x1 PUSH1 0x40 SHL SUB SWAP8 DUP9 DUP3 GT PUSH2 0xD88 JUMPI PUSH1 0x1 PUSH1 0x40 SHL SWAP8 DUP9 DUP4 GT PUSH2 0xD88 JUMPI DUP12 SWAP1 DUP3 SLOAD DUP5 DUP5 SSTORE DUP1 DUP6 LT PUSH2 0x1B6B JUMPI JUMPDEST POP ADD SWAP1 PUSH1 0x0 MSTORE DUP11 PUSH1 0x0 KECCAK256 DUP11 PUSH1 0x0 JUMPDEST DUP5 DUP2 LT PUSH2 0x1B50 JUMPI POP POP POP POP POP PUSH1 0xFF PUSH1 0x3 DUP7 ADD SWAP2 MLOAD AND PUSH1 0xFF NOT DUP3 SLOAD AND OR SWAP1 SSTORE PUSH1 0x4 DUP5 ADD SWAP1 MLOAD SWAP1 DUP2 MLOAD SWAP2 DUP8 DUP4 GT PUSH2 0xD88 JUMPI DUP7 DUP4 GT PUSH2 0xD88 JUMPI DUP10 SWAP1 DUP3 SLOAD DUP5 DUP5 SSTORE DUP1 DUP6 LT PUSH2 0x1B23 JUMPI JUMPDEST POP ADD SWAP1 PUSH1 0x0 MSTORE DUP9 PUSH1 0x0 KECCAK256 DUP9 PUSH1 0x0 JUMPDEST DUP5 DUP2 LT PUSH2 0x1B08 JUMPI POP POP POP POP POP SWAP1 PUSH2 0x1A30 PUSH1 0x6 SWAP3 MLOAD ISZERO ISZERO PUSH1 0x5 DUP6 ADD SWAP1 PUSH1 0xFF DUP1 NOT DUP4 SLOAD AND SWAP2 ISZERO ISZERO AND OR SWAP1 SSTORE JUMP JUMPDEST MLOAD SWAP2 ADD SSTORE DUP7 PUSH1 0x0 MSTORE PUSH1 0xA DUP5 MSTORE DUP5 PUSH1 0x0 KECCAK256 SWAP1 DUP7 MLOAD SWAP3 DUP4 GT PUSH2 0xD88 JUMPI DUP3 GT PUSH2 0xD88 JUMPI DUP1 SLOAD DUP3 DUP3 SSTORE DUP1 DUP4 LT PUSH2 0x1ADE JUMPI JUMPDEST POP SWAP1 DUP4 SWAP2 DUP7 SWAP5 DUP10 SWAP7 SWAP5 SWAP8 ADD SWAP1 PUSH1 0x0 MSTORE DUP3 PUSH1 0x0 KECCAK256 PUSH1 0x0 JUMPDEST DUP4 DUP2 LT PUSH2 0x1AC1 JUMPI POP POP POP POP PUSH32 0x226E40A00B208DFD029269DDC608F61C655164F99BD9DCC736DC6618AF029EE2 SWAP4 SWAP5 POP PUSH2 0x1AB5 DUP3 MLOAD SWAP4 DUP4 DUP6 SWAP5 DUP6 MSTORE DUP5 ADD SWAP1 PUSH2 0x1109 JUMP JUMPDEST SWAP1 TIMESTAMP SWAP1 DUP4 ADD MSTORE SUB SWAP1 LOG3 SWAP1 JUMP JUMPDEST DUP3 MLOAD PUSH1 0x1 PUSH1 0x1 PUSH1 0xA0 SHL SUB AND DUP2 DUP4 ADD SSTORE DUP11 SWAP8 POP SWAP2 DUP5 ADD SWAP2 DUP9 ADD PUSH2 0x1A73 JUMP JUMPDEST DUP2 PUSH1 0x0 MSTORE DUP4 DUP4 DUP7 PUSH1 0x0 KECCAK256 SWAP3 DUP4 ADD SWAP3 ADD JUMPDEST DUP3 DUP2 LT PUSH2 0x1AFC JUMPI POP POP PUSH2 0x1A5D JUMP JUMPDEST PUSH1 0x0 DUP2 SSTORE ADD DUP5 SWAP1 PUSH2 0x1AEE JUMP JUMPDEST DUP4 MLOAD PUSH1 0x1 PUSH1 0x1 PUSH1 0xA0 SHL SUB AND DUP4 DUP3 ADD SSTORE SWAP3 DUP12 ADD SWAP3 DUP11 SWAP2 ADD PUSH2 0x1A05 JUMP JUMPDEST DUP4 PUSH1 0x0 MSTORE DUP11 DUP6 DUP5 PUSH1 0x0 KECCAK256 SWAP3 DUP4 ADD SWAP3 ADD JUMPDEST DUP3 DUP2 LT PUSH2 0x1B41 JUMPI POP POP PUSH2 0x19F7 JUMP JUMPDEST PUSH1 0x0 DUP2 SSTORE DUP14 SWAP5 POP DUP13 SWAP2 ADD PUSH2 0x1B33 JUMP JUMPDEST DUP4 MLOAD PUSH1 0x1 PUSH1 0x1 PUSH1 0xA0 SHL SUB AND DUP4 DUP3 ADD SSTORE SWAP3 DUP14 ADD SWAP3 DUP13 SWAP2 ADD PUSH2 0x19B2 JUMP JUMPDEST DUP4 PUSH1 0x0 MSTORE DUP13 DUP6 DUP5 PUSH1 0x0 KECCAK256 SWAP3 DUP4 ADD SWAP3 ADD JUMPDEST DUP3 DUP2 LT PUSH2 0x1B89 JUMPI POP POP PUSH2 0x19A4 JUMP JUMPDEST PUSH1 0x0 DUP2 SSTORE DUP16 SWAP5 POP DUP15 SWAP2 ADD PUSH2 0x1B7B JUMP JUMPDEST DUP2 CALLDATALOAD PUSH1 0x1 PUSH1 0x1 PUSH1 0xA0 SHL SUB DUP2 AND DUP2 SUB PUSH2 0x1B9 JUMPI DUP2 MSTORE SWAP1 DUP8 ADD SWAP1 DUP8 ADD PUSH2 0x1926 JUMP JUMPDEST DUP1 PUSH2 0x1BC9 PUSH2 0x1841 PUSH2 0x1BD3 SWAP4 DUP8 DUP7 PUSH2 0x1418 JUMP JUMPDEST PUSH2 0x1850 DUP3 DUP9 PUSH2 0x143C JUMP JUMPDEST PUSH2 0x18D2 JUMP JUMPDEST PUSH1 0x40 MLOAD PUSH3 0x461BCD PUSH1 0xE5 SHL DUP2 MSTORE PUSH1 0x20 PUSH1 0x4 DUP3 ADD MSTORE PUSH1 0x28 PUSH1 0x24 DUP3 ADD MSTORE PUSH32 0x46656564657253656C6563746F723A206D7573742073656C656374206174206C PUSH1 0x44 DUP3 ADD MSTORE PUSH8 0x65617374206F6E65 PUSH1 0xC0 SHL PUSH1 0x64 DUP3 ADD MSTORE PUSH1 0x84 SWAP1 REVERT JUMPDEST PUSH1 0x40 MLOAD PUSH3 0x461BCD PUSH1 0xE5 SHL DUP2 MSTORE PUSH1 0x20 PUSH1 0x4 DUP3 ADD MSTORE PUSH1 0x25 PUSH1 0x24 DUP3 ADD MSTORE PUSH32 0x46656564657253656C6563746F723A206E6F7420656E6F7567682063616E6469 PUSH1 0x44 DUP3 ADD MSTORE PUSH5 0x6461746573 PUSH1 0xD8 SHL PUSH1 0x64 DUP3 ADD MSTORE PUSH1 0x84 SWAP1 REVERT JUMPDEST SWAP1 PUSH1 0x40 MLOAD SWAP2 DUP3 DUP2 SLOAD SWAP2 DUP3 DUP3 MSTORE PUSH1 0x20 SWAP3 DUP4 DUP4 ADD SWAP2 PUSH1 0x0 MSTORE DUP4 PUSH1 0x0 KECCAK256 SWAP4 PUSH1 0x0 SWAP1 JUMPDEST DUP3 DUP3 LT PUSH2 0x1CB8 JUMPI POP POP POP PUSH2 0x1CB6 SWAP3 POP SUB DUP4 PUSH2 0x13AE JUMP JUMPDEST JUMP JUMPDEST DUP6 SLOAD PUSH1 0x1 PUSH1 0x1 PUSH1 0xA0 SHL SUB AND DUP5 MSTORE PUSH1 0x1 SWAP6 DUP7 ADD SWAP6 DUP9 SWAP6 POP SWAP4 DUP2 ADD SWAP4 SWAP1 SWAP2 ADD SWAP1 PUSH2 0x1CA0 JUMP INVALID LOG2 PUSH5 0x6970667358 0x22 SLT KECCAK256 PUSH5 0x6DB41FEE5F DUP7 0xE8 SELFBALANCE CODESIZE DUP9 BASEFEE 0x28 0x2C 0xC7 OR SUB 0xC6 CALLER SWAP1 MUL 0xC2 SWAP6 JUMP PUSH14 0xBE1A9EF6E33464736F6C634300 ADDMOD EQ STOP CALLER 0x2F DUP8 DUP9 GT PUSH31 0x7EFF1D82E926EC794901D17C78024A50270940304540A733656F0D00000000 "},"methodIdentifiers":{"DEFAULT_ADMIN_ROLE()":"a217fddf","FEED_PROTOCOL_ROLE()":"cdc65ab6","SELECTOR_OPERATOR_ROLE()":"9de4fd8a","acceptOwnership()":"79ba5097","config()":"79502c55","feedRequestSelectedFeeders(uint256,uint256)":"d1ee947e","getRoleAdmin(bytes32)":"248a9ca3","getSelectedFeeders(uint256)":"4cfa4820","getSelectionRequest(uint256)":"853ee7a4","grantFeedProtocolRole(address)":"0398a799","grantRole(bytes32,address)":"2f2ff15d","hasRole(bytes32,address)":"91d14854","isSelectionFulfilled(uint256)":"0d1cabb3","nextSelectionId()":"79acc2a0","owner()":"8da5cb5b","rawFulfillRandomWords(uint256,uint256[])":"1fe543e3","renounceRole(bytes32,address)":"36568abe","requestRandomSelection(uint256,address[],uint8)":"72f61e9b","revokeRole(bytes32,address)":"d547741f","s_callbackGasLimit()":"c5b4e937","s_keyHash()":"45bb327b","s_requestConfirmations()":"f88ea2c9","s_subscriptionId()":"8ac00021","s_vrfCoordinator()":"9eccacf6","selectionRequests(uint256)":"48ff933c","setCallbackGasLimit(uint32)":"a4eb718c","setConfig(address)":"20e3dbd4","setCoordinator(address)":"8ea98117","setKeyHash(bytes32)":"98544710","setRequestConfirmations(uint16)":"8824f5a7","setSubscriptionId(uint256)":"c1e0d236","supportsInterface(bytes4)":"01ffc9a7","transferOwnership(address)":"f2fde38b","vrfRequestToSelection(uint256)":"5adda601"}}}}}