{"contracts/vault/VaultManager.sol":{"VaultManager":{"abi":[{"inputs":[{"internalType":"address","name":"_config","type":"address"},{"internalType":"address","name":"_admin","type":"address"}],"stateMutability":"nonpayable","type":"constructor"},{"inputs":[],"name":"AccessControlBadConfirmation","type":"error"},{"inputs":[{"internalType":"address","name":"account","type":"address"},{"internalType":"bytes32","name":"neededRole","type":"bytes32"}],"name":"AccessControlUnauthorizedAccount","type":"error"},{"inputs":[],"name":"EnforcedPause","type":"error"},{"inputs":[],"name":"ExpectedPause","type":"error"},{"inputs":[],"name":"ReentrancyGuardReentrantCall","type":"error"},{"inputs":[{"internalType":"address","name":"token","type":"address"}],"name":"SafeERC20FailedOperation","type":"error"},{"anonymous":false,"inputs":[{"indexed":true,"internalType":"address","name":"token","type":"address"},{"indexed":false,"internalType":"uint256","name":"amount","type":"uint256"},{"indexed":false,"internalType":"string","name":"feeType","type":"string"},{"indexed":false,"internalType":"uint256","name":"timestamp","type":"uint256"}],"name":"FeeCollected","type":"event"},{"anonymous":false,"inputs":[{"indexed":true,"internalType":"address","name":"user","type":"address"},{"indexed":true,"internalType":"address","name":"token","type":"address"},{"indexed":false,"internalType":"uint256","name":"amount","type":"uint256"},{"indexed":false,"internalType":"uint256","name":"timestamp","type":"uint256"}],"name":"MarginDeposited","type":"event"},{"anonymous":false,"inputs":[{"indexed":true,"internalType":"address","name":"from","type":"address"},{"indexed":true,"internalType":"address","name":"to","type":"address"},{"indexed":true,"internalType":"address","name":"token","type":"address"},{"indexed":false,"internalType":"uint256","name":"amount","type":"uint256"},{"indexed":false,"internalType":"string","name":"reason","type":"string"},{"indexed":false,"internalType":"uint256","name":"timestamp","type":"uint256"}],"name":"MarginTransferred","type":"event"},{"anonymous":false,"inputs":[{"indexed":true,"internalType":"address","name":"user","type":"address"},{"indexed":true,"internalType":"address","name":"token","type":"address"},{"indexed":false,"internalType":"uint256","name":"amount","type":"uint256"},{"indexed":false,"internalType":"uint256","name":"timestamp","type":"uint256"}],"name":"MarginWithdrawn","type":"event"},{"anonymous":false,"inputs":[{"indexed":false,"internalType":"address","name":"account","type":"address"}],"name":"Paused","type":"event"},{"anonymous":false,"inputs":[{"indexed":true,"internalType":"address","name":"token","type":"address"},{"indexed":false,"internalType":"uint256","name":"amount","type":"uint256"},{"indexed":false,"internalType":"string","name":"poolType","type":"string"},{"indexed":false,"internalType":"uint256","name":"timestamp","type":"uint256"}],"name":"ProfitDistributed","type":"event"},{"anonymous":false,"inputs":[{"indexed":true,"internalType":"bytes32","name":"role","type":"bytes32"},{"indexed":true,"internalType":"bytes32","name":"previousAdminRole","type":"bytes32"},{"indexed":true,"internalType":"bytes32","name":"newAdminRole","type":"bytes32"}],"name":"RoleAdminChanged","type":"event"},{"anonymous":false,"inputs":[{"indexed":true,"internalType":"bytes32","name":"role","type":"bytes32"},{"indexed":true,"internalType":"address","name":"account","type":"address"},{"indexed":true,"internalType":"address","name":"sender","type":"address"}],"name":"RoleGranted","type":"event"},{"anonymous":false,"inputs":[{"indexed":true,"internalType":"bytes32","name":"role","type":"bytes32"},{"indexed":true,"internalType":"address","name":"account","type":"address"},{"indexed":true,"internalType":"address","name":"sender","type":"address"}],"name":"RoleRevoked","type":"event"},{"anonymous":false,"inputs":[{"indexed":false,"internalType":"address","name":"account","type":"address"}],"name":"Unpaused","type":"event"},{"inputs":[],"name":"DEFAULT_ADMIN_ROLE","outputs":[{"internalType":"bytes32","name":"","type":"bytes32"}],"stateMutability":"view","type":"function"},{"inputs":[],"name":"VAULT_OPERATOR_ROLE","outputs":[{"internalType":"bytes32","name":"","type":"bytes32"}],"stateMutability":"view","type":"function"},{"inputs":[{"internalType":"address","name":"_user","type":"address"},{"internalType":"address","name":"_token","type":"address"},{"internalType":"uint256","name":"_amount","type":"uint256"}],"name":"adminSetMarginBalance","outputs":[],"stateMutability":"nonpayable","type":"function"},{"inputs":[{"internalType":"address","name":"_token","type":"address"},{"internalType":"uint256","name":"_lpAmount","type":"uint256"},{"internalType":"uint256","name":"_interactAmount","type":"uint256"},{"internalType":"uint256","name":"_donationAmount","type":"uint256"}],"name":"allocateProfitToSubPools","outputs":[],"stateMutability":"nonpayable","type":"function"},{"inputs":[{"internalType":"address","name":"_token","type":"address"},{"internalType":"address[]","name":"_recipients","type":"address[]"},{"internalType":"uint256[]","name":"_amounts","type":"uint256[]"}],"name":"batchDistributeNodeRewards","outputs":[],"stateMutability":"nonpayable","type":"function"},{"inputs":[{"internalType":"address","name":"_user","type":"address"},{"internalType":"address","name":"_token","type":"address"},{"internalType":"uint256","name":"_amount","type":"uint256"},{"internalType":"string","name":"_feeType","type":"string"}],"name":"collectFee","outputs":[],"stateMutability":"nonpayable","type":"function"},{"inputs":[],"name":"config","outputs":[{"internalType":"contract Config","name":"","type":"address"}],"stateMutability":"view","type":"function"},{"inputs":[{"internalType":"address","name":"_user","type":"address"},{"internalType":"address","name":"_token","type":"address"},{"internalType":"uint256","name":"_amount","type":"uint256"}],"name":"depositMargin","outputs":[],"stateMutability":"nonpayable","type":"function"},{"inputs":[{"internalType":"address","name":"_token","type":"address"},{"internalType":"uint256","name":"_amount","type":"uint256"}],"name":"depositToDonationPool","outputs":[],"stateMutability":"nonpayable","type":"function"},{"inputs":[{"internalType":"address","name":"_token","type":"address"},{"internalType":"uint256","name":"_amount","type":"uint256"}],"name":"depositToInteractPool","outputs":[],"stateMutability":"nonpayable","type":"function"},{"inputs":[{"internalType":"address","name":"_token","type":"address"},{"internalType":"uint256","name":"_amount","type":"uint256"}],"name":"depositToLPPool","outputs":[],"stateMutability":"nonpayable","type":"function"},{"inputs":[{"internalType":"address","name":"_token","type":"address"},{"internalType":"uint256","name":"_amount","type":"uint256"}],"name":"distributeProfits","outputs":[],"stateMutability":"nonpayable","type":"function"},{"inputs":[{"internalType":"address","name":"","type":"address"}],"name":"donationPoolBalance","outputs":[{"internalType":"uint256","name":"","type":"uint256"}],"stateMutability":"view","type":"function"},{"inputs":[{"internalType":"address","name":"_token","type":"address"}],"name":"getProfitPoolBalance","outputs":[{"internalType":"uint256","name":"","type":"uint256"}],"stateMutability":"view","type":"function"},{"inputs":[{"internalType":"bytes32","name":"role","type":"bytes32"}],"name":"getRoleAdmin","outputs":[{"internalType":"bytes32","name":"","type":"bytes32"}],"stateMutability":"view","type":"function"},{"inputs":[{"internalType":"address","name":"_token","type":"address"}],"name":"getTotalMarginPool","outputs":[{"internalType":"uint256","name":"","type":"uint256"}],"stateMutability":"view","type":"function"},{"inputs":[{"internalType":"address","name":"_user","type":"address"},{"internalType":"address","name":"_token","type":"address"}],"name":"getUserMarginBalance","outputs":[{"internalType":"uint256","name":"","type":"uint256"}],"stateMutability":"view","type":"function"},{"inputs":[{"internalType":"address","name":"_operator","type":"address"}],"name":"grantOperatorRole","outputs":[],"stateMutability":"nonpayable","type":"function"},{"inputs":[{"internalType":"bytes32","name":"role","type":"bytes32"},{"internalType":"address","name":"account","type":"address"}],"name":"grantRole","outputs":[],"stateMutability":"nonpayable","type":"function"},{"inputs":[{"internalType":"bytes32","name":"role","type":"bytes32"},{"internalType":"address","name":"account","type":"address"}],"name":"hasRole","outputs":[{"internalType":"bool","name":"","type":"bool"}],"stateMutability":"view","type":"function"},{"inputs":[{"internalType":"address","name":"","type":"address"}],"name":"interactPoolBalance","outputs":[{"internalType":"uint256","name":"","type":"uint256"}],"stateMutability":"view","type":"function"},{"inputs":[{"internalType":"address","name":"","type":"address"}],"name":"lpPoolBalance","outputs":[{"internalType":"uint256","name":"","type":"uint256"}],"stateMutability":"view","type":"function"},{"inputs":[{"internalType":"address","name":"","type":"address"}],"name":"marginPoolBalance","outputs":[{"internalType":"uint256","name":"","type":"uint256"}],"stateMutability":"view","type":"function"},{"inputs":[],"name":"pause","outputs":[],"stateMutability":"nonpayable","type":"function"},{"inputs":[],"name":"paused","outputs":[{"internalType":"bool","name":"","type":"bool"}],"stateMutability":"view","type":"function"},{"inputs":[{"internalType":"address","name":"","type":"address"}],"name":"profitPoolBalance","outputs":[{"internalType":"uint256","name":"","type":"uint256"}],"stateMutability":"view","type":"function"},{"inputs":[{"internalType":"bytes32","name":"role","type":"bytes32"},{"internalType":"address","name":"callerConfirmation","type":"address"}],"name":"renounceRole","outputs":[],"stateMutability":"nonpayable","type":"function"},{"inputs":[{"internalType":"bytes32","name":"role","type":"bytes32"},{"internalType":"address","name":"account","type":"address"}],"name":"revokeRole","outputs":[],"stateMutability":"nonpayable","type":"function"},{"inputs":[{"internalType":"address","name":"_config","type":"address"}],"name":"setConfig","outputs":[],"stateMutability":"nonpayable","type":"function"},{"inputs":[{"internalType":"bytes4","name":"interfaceId","type":"bytes4"}],"name":"supportsInterface","outputs":[{"internalType":"bool","name":"","type":"bool"}],"stateMutability":"view","type":"function"},{"inputs":[{"internalType":"address","name":"_from","type":"address"},{"internalType":"address","name":"_to","type":"address"},{"internalType":"address","name":"_token","type":"address"},{"internalType":"uint256","name":"_amount","type":"uint256"},{"internalType":"string","name":"_reason","type":"string"}],"name":"transferMargin","outputs":[],"stateMutability":"nonpayable","type":"function"},{"inputs":[{"internalType":"address","name":"_recipient","type":"address"},{"internalType":"uint256","name":"_amount","type":"uint256"}],"name":"transferReward","outputs":[],"stateMutability":"nonpayable","type":"function"},{"inputs":[{"internalType":"address","name":"_token","type":"address"},{"internalType":"uint256","name":"_amount","type":"uint256"},{"internalType":"address","name":"_feedProtocol","type":"address"}],"name":"transferToFeedProtocol","outputs":[],"stateMutability":"nonpayable","type":"function"},{"inputs":[],"name":"unpause","outputs":[],"stateMutability":"nonpayable","type":"function"},{"inputs":[{"internalType":"address","name":"","type":"address"},{"internalType":"address","name":"","type":"address"}],"name":"userMarginBalance","outputs":[{"internalType":"uint256","name":"","type":"uint256"}],"stateMutability":"view","type":"function"},{"inputs":[{"internalType":"address","name":"_token","type":"address"},{"internalType":"uint256","name":"_amount","type":"uint256"},{"internalType":"address","name":"_recipient","type":"address"}],"name":"withdrawFromDonationPool","outputs":[],"stateMutability":"nonpayable","type":"function"},{"inputs":[{"internalType":"address","name":"_token","type":"address"},{"internalType":"uint256","name":"_amount","type":"uint256"},{"internalType":"address","name":"_recipient","type":"address"}],"name":"withdrawFromInteractPool","outputs":[],"stateMutability":"nonpayable","type":"function"},{"inputs":[{"internalType":"address","name":"_token","type":"address"},{"internalType":"uint256","name":"_amount","type":"uint256"},{"internalType":"address","name":"_recipient","type":"address"}],"name":"withdrawFromLPPool","outputs":[],"stateMutability":"nonpayable","type":"function"},{"inputs":[{"internalType":"address","name":"_user","type":"address"},{"internalType":"address","name":"_token","type":"address"},{"internalType":"uint256","name":"_amount","type":"uint256"}],"name":"withdrawMargin","outputs":[],"stateMutability":"nonpayable","type":"function"}],"evm":{"bytecode":{"linkReferences":{},"object":"608034620000ac57601f6200237238819003918201601f19168301916001600160401b03831184841017620000b1578084926040948552833981010312620000ac57806200005f6020620000576200009b94620000c7565b9201620000c7565b6001805560028054610100600160a81b03191660089390931b610100600160a81b0316929092179091556200009481620000dc565b506200015c565b506040516121539081620001ff8239f35b600080fd5b634e487b7160e01b600052604160045260246000fd5b51906001600160a01b0382168203620000ac57565b6001600160a01b031660008181527fad3228b676f7d3cd4284a5443f17f1962b36e491b30a40b2405849e597ba5fb5602052604081205490919060ff166200015857818052816020526040822081835260205260408220600160ff198254161790553391600080516020620023528339815191528180a4600190565b5090565b6001600160a01b031660008181527fad6010f11d85e6849ec87f5f41f95a2725aaf728916b399656c75ce30b0d2c5460205260408120549091907f696e87880cf63dca8f080e7a026952044d39afbd9cb8ab3582bd4b29e6071b299060ff16620001f957808352826020526040832082845260205260408320600160ff1982541617905560008051602062002352833981519152339380a4600190565b50509056fe6080604081815260048036101561001557600080fd5b600092833560e01c90816301ffc9a7146119285750806308b8bb4b146116cf57806315490ebb146114935780631de8ae531461145b57806320e3dbd41461140e578063234c30d714611225578063248a9ca3146111fc57806327ac0c58146111ac5780632f2ff15d146111835780632ff1d4581461105157806331aa128d14610f2b57806336568abe14610ee45780633e0e706e14610ebd5780633f4ba83a14610e545780634a650a2c14610d7e578063564a6c9814610c9b57806358dbf21c14610bb05780635c975abb14610b8c5780636208edc914610ab0578063715d5896146107d957806375818bd7146109da57806377c5b5061461094257806379502c55146109155780637af4c51b146108dd5780638456cb591461088257806391d148541461083d578063a217fddf14610822578063a7a62975146107d9578063ad04570d1461055a578063bdf3e780146106fb578063bed62365146106d257838163c3c8f58c1461059257508063c69c75cd1461055a578063d249f54e1461045c578063d44f97b814610424578063d547741f146103e6578063e1ede08f14610306578063ec185a071461020a5763f6faa649146101d257600080fd5b346102065760203660031901126102065760209282916001600160a01b036101f861197c565b168252845220549051908152f35b8280fd5b50346102065760803660031901126102065761022461197c565b918361022e611997565b60443560643567ffffffffffffffff8111610302577f66aecc579aa1ef463c0ed1547c2cb6163370e6311a60cba815252acbb398f213956102d6836102f8956102a960ff6102808b97369088016119de565b9b909a6000805160206120fe833981519152815280602052818120338252602052205416611c81565b6102b1611e75565b6102b9611e57565b6102c4821515611cd9565b6001600160a01b03169930908b611d94565b8789526020528088206102ea838254611d39565b905551938493429285611f4c565b0390a26001805580f35b8380fd5b5050346103e257806003193601126103e2576000805160206120de83398151915260a061033161197c565b602435906000805160206120fe83398151915286528560205284862033875260205261036260ff8688205416611c81565b61036a611e75565b610372611e57565b61037d821515611cd9565b600180841b03169361039182303388611d94565b84865260076020528086206103a7838254611d39565b9055805191825260606020830152601060608301526f191bdb985d1a5bdb97d9195c1bdcda5d60821b60808301524290820152a26001805580f35b5080fd5b509034610206578060031936011261020657610420913561041b600161040a611997565b938387528660205286200154611acd565b611c0c565b5080f35b5050346103e25760203660031901126103e25760209181906001600160a01b0361044c61197c565b1681526007845220549051908152f35b5050346103e2577f63ca1bee673fe6befaa933c20ecf9ca16a04bd4273bffe1a05b0b9cc9b9be0439061048e36611a40565b6000805160206120fe83398151915286959394929552602086815282872033885281526104c060ff8489205416611c81565b6104c8611e75565b6104d0611e57565b6104db821515611cd9565b6105488260018060a01b039687811697888b5260088552868b20991698898b52845261050c82878c20541015611e98565b878a5260088452858a20898b528452858a20610529838254611eef565b9055888a5260038452858a20610540838254611eef565b905588611efc565b82519182524290820152a36001805580f35b5050346103e25760203660031901126103e25760209181906001600160a01b0361058261197c565b1681526003845220549051908152f35b808484346106ce5760803660031901126106ce57816000805160206120de8339815191529260608560a0946105c561197c565b906024356044359161063e606435946000805160206120fe833981519152875261060160ff8a602099808b528181203382528b52205416611c81565b610609611e75565b610611611e57565b6106248661061f8787611d39565b611d39565b998a916001808e1b03169d8e815284895220541015611f80565b8a8c528452858b20610651888254611eef565b9055898b5260058452610668868c20918254611d39565b9055888a526006835261067f858b20918254611d39565b905587895260078252610696848a20918254611d39565b905582519384528301526011606083015270383937b334ba2fb0b63637b1b0ba34b7b760791b60808301524290820152a26001805580f35b5050fd5b5050346103e257816003193601126103e257602090516000805160206120fe8339815191528152f35b5050346103e2576000805160206120de83398151915260a061079f61071f36611a0c565b9591908093916000805160206120fe833981519152895288602052838920338a5260205261075260ff858b205416611c81565b61075a611e75565b610762611e57565b600180871b031696878952600660205261078182858b20541015611fee565b8789526006602052838920610797838254611eef565b905587611efc565b8051918252606060208301526011606083015270696e7465726163745f776974686472617760781b60808301524290820152a26001805580f35b5050346103e257806003193601126103e257806020926107f761197c565b6107ff611997565b6001600160a01b0391821683526008865283832091168252845220549051908152f35b5050346103e257816003193601126103e25751908152602090f35b50346102065781600319360112610206578160209360ff9261085d611997565b903582528186528282206001600160a01b039091168252855220549151911615158152f35b5050346103e257816003193601126103e25760207f62e78cea01bee320cd4e420270b5ea74000d11b0c9f74754ebdbfc544b05a258916108c0611a75565b6108c8611e57565b600160ff19600254161760025551338152a180f35b5050346103e25760203660031901126103e25760209181906001600160a01b0361090561197c565b1681526005845220549051908152f35b5050346103e257816003193601126103e257600254905160089190911c6001600160a01b03168152602090f35b5050346103e2576109d39061095636611a0c565b916000805160206120fe83398151915286949294528560205281862033875260205261098760ff8388205416611c81565b61098f611e75565b610997611e57565b60018060a01b03169081865260066020526109b784828820541015611fee565b818652600660205285206109cc848254611eef565b9055611efc565b6001805580f35b5050346103e2576000805160206120de83398151915260a0610a766109fe36611a0c565b9591908093916000805160206120fe833981519152895288602052838920338a52602052610a3160ff858b205416611c81565b610a39611e75565b610a41611e57565b600180871b0316968789526007602052610a6082858b2054101561204b565b8789526007602052838920610797838254611eef565b8051918252606060208301526011606083015270646f6e6174696f6e5f776974686472617760781b60808301524290820152a26001805580f35b5050346103e257806003193601126103e2576000805160206120de83398151915260a0610adb61197c565b602435906000805160206120fe833981519152865285602052848620338752602052610b0c60ff8688205416611c81565b610b14611e75565b610b1c611e57565b610b27821515611cd9565b600180841b031693610b3b82303388611d94565b8486526006602052808620610b51838254611d39565b9055805191825260606020830152601060608301526f1a5b9d195c9858dd17d9195c1bdcda5d60821b60808301524290820152a26001805580f35b5050346103e257816003193601126103e25760209060ff6002541690519015158152f35b5050346103e2577f2bde942ed78f9e1081375810d2aa3bfe43ec08b083f750914542c4bf2fe936c790610be236611a40565b610bef9492939194611a75565b6001600160a01b0393841680875260086020908152838820969095168088529585528287205490949080831115610c6457610c2a9083611eef565b86885260038252610c3f848920918254611d39565b90555b848752600881528287208688528152818388205582519182524290820152a380f35b82818110610c74575b5050610c42565b610c7d91611eef565b86885260038252610c92848920918254611eef565b90553882610c6d565b5050346103e2577f2bde942ed78f9e1081375810d2aa3bfe43ec08b083f750914542c4bf2fe936c790610ccd36611a40565b6000805160206120fe83398151915286959395949294526020938685528287203388528552610d0160ff8489205416611c81565b610d09611e75565b610d11611e57565b610d1c821515611cd9565b6001600160a01b0390811695610d348330838a611d94565b1693848752600881528287208688528152828720610d53838254611d39565b905585875260038152828720610d6a838254611d39565b905582519182524290820152a36001805580f35b5050346103e257806003193601126103e2576000805160206120de83398151915260a0610da961197c565b602435906000805160206120fe833981519152865285602052848620338752602052610dda60ff8688205416611c81565b610de2611e75565b610dea611e57565b610df5821515611cd9565b600180841b031693610e0982303388611d94565b8486526005602052808620610e1f838254611d39565b9055805191825260606020830152600a6060830152691b1c17d9195c1bdcda5d60b21b60808301524290820152a26001805580f35b5034610206578260031936011261020657610e6d611a75565b6002549060ff821615610eaf575060ff1916600255513381527f5db9ee0a495bf2e6ff9c91a7834c1ba4fdd244a5e8aa4e537bd38aeae4b073aa90602090a180f35b8251638dfc202b60e01b8152fd5b50346102065760203660031901126102065760209282916001600160a01b036101f861197c565b509190346103e257806003193601126103e257610eff611997565b90336001600160a01b03831603610f1c5750610420919235611c0c565b5163334bd91960e11b81528390fd5b50903461020657610f3b36611a0c565b6000805160206120fe8339815191528694939294526020918683528387203388528352610f6d60ff8589205416611c81565b610f75611e75565b610f7d611e57565b6001600160a01b03168087526005835283872054909590851161100357509160608492610fd36000805160206120de8339815191529660a096898b5260058452858b20610fcb838254611eef565b905589611efc565b8251938452830152600b60608301526a6c705f776974686472617760a81b60808301524290820152a26001805580f35b835162461bcd60e51b8152908101839052602260248201527f5661756c744d616e616765723a20696e73756666696369656e74204c5020706f6044820152611bdb60f21b6064820152608490fd5b50346102065760a03660031901126102065761106b61197c565b611073611997565b92846044359460018060a01b0394858716809703610206576064356084359467ffffffffffffffff861161117f5787899461113784846110da611175987f31eb66acea2a2e9363e745354476882560841a43c057f7f2e75e63470ca557af9c3691016119de565b9a90996000805160206120fe833981519152825260209e8f9e8f848152858520903386525261110e60ff8686205416611c81565b611116611e75565b61111e611e57565b169d8e8352600881528383209183525220541015611e98565b888c5260088a52828c208b8d528a52828c20611154858254611eef565b90551697888b5260088152818b20908a8c5252808a206102ea838254611d39565b0390a46001805580f35b8480fd5b50903461020657806003193601126102065761042091356111a7600161040a611997565b611b93565b5050346103e25760203660031901126103e257610420906111f760016111d061197c565b926111d9611a75565b6000805160206120fe83398151915286528560205285200154611acd565b611af3565b503461020657602036600319011261020657816020936001923581528085522001549051908152f35b5090346102065760603660031901126102065761124061197c565b906024359267ffffffffffffffff9384811161140a5761126390369083016119ad565b946044359081116114065761127b90369084016119ad565b6000805160206120fe8339815191528896929652602093888552858920338a5285526112ac60ff878b205416611c81565b6112b4611e75565b6112bc611e57565b8188036113c357508795885b82811061139e575060018060a01b0380931697888a52600786526112f188888c2054101561204b565b888a5260078652868a20611306898254611eef565b9055895b818110611360578a8a6000805160206120de83398151915260a08c8c60608d825193845283015260126060830152710dcdec8cabee4caeec2e4c8e6bec4c2e8c6d60731b60808301524290820152a26001805580f35b61136b8183886120b7565b3590858216820361139a57611390611395926113888388886120b7565b35908d611efc565b6120a8565b61130a565b8b80fd5b966113b86113be916113b18a86866120b7565b3590611d39565b976120a8565b6112c8565b855162461bcd60e51b8152908101859052601d60248201527f5661756c744d616e616765723a206c656e677468206d69736d617463680000006044820152606490fd5b8680fd5b8580fd5b83346114585760203660031901126114585761142861197c565b611430611a75565b60028054610100600160a81b03191660089290921b610100600160a81b031691909117905580f35b80fd5b5050346103e25760203660031901126103e25760209181906001600160a01b0361148361197c565b1681526006845220549051908152f35b5090346102065780600319360112610206576114ad61197c565b90602435916000805160206120fe833981519152855260209085825282862033875282526114e060ff8488205416611c81565b6114e8611e75565b6114f0611e57565b6001600160a01b038181161561168c5761150b851515611cd9565b85838260025460081c168651928380926320f2e74760e11b82525afa908115611682579082918991611644575b50161561162a57739f2140319726f9b851073a303415f13ec0cda2695b16948587528083528484882054106115cd5784926115966000805160206120de8339815191529660a096946060948a8c528452858b20610fcb838254611eef565b82519384528301526012606083015271185c989a5d1c985d1a5bdb97dc995dd85c9960721b60808301524290820152a26001805580f35b835162461bcd60e51b8152908101839052603160248201527f5661756c744d616e616765723a20696e73756666696369656e742070726f66696044820152701d081c1bdbdb08199bdc881c995dd85c99607a1b6064820152608490fd5b7355d398326f99059ff775485246999027b3197955611555565b809250858092503d831161167b575b61165d8183611d5c565b810103126116775751818116810361167757819038611538565b8780fd5b503d611653565b85513d8a823e3d90fd5b835162461bcd60e51b8152808701849052601f60248201527f5661756c744d616e616765723a20696e76616c696420726563697069656e74006044820152606490fd5b50346102065781600319360112610206576116e861197c565b91602435906000805160206120fe83398151915285526020858152818620338752815261171a60ff8388205416611c81565b611722611e75565b61172a611e57565b60018060a01b038095169485875284825261174a84848920541015611f80565b85875284825282872061175e858254611eef565b905560025460081c16938251906362f5ad6360e01b825282828281895afa80156118af5788906118f9575b61179a925061271092839187611fdb565b04958451633c6ec58560e11b815284818481855afa9081156118ef57908592918b916118b9575b506117cc9088611fdb565b5085516301eb418960e71b815292839182905afa9081156118af578891611868575b50916000805160206120de8339815191529560609261181187969560a098611fdb565b04888a5260058352611827858b20918254611d39565b90558789526007825261183e848a20918254611d39565b905582519384528301526003606083015262185b1b60ea1b60808301524290820152a26001805580f35b9194939280915082813d83116118a8575b6118838183611d5c565b81010312611677579051929391929091906000805160206120de8339815191526117ee565b503d611879565b84513d8a823e3d90fd5b83819492503d83116118e8575b6118d08183611d5c565b810103126118e4576117cc859251906117c1565b8980fd5b503d6118c6565b86513d8c823e3d90fd5b508282813d8311611921575b61190f8183611d5c565b810103126116775761179a9151611789565b503d611905565b92505034610206576020366003190112610206573563ffffffff60e01b81168091036102065760209250637965db0b60e01b811490811561196b575b5015158152f35b6301ffc9a760e01b14905038611964565b600435906001600160a01b038216820361199257565b600080fd5b602435906001600160a01b038216820361199257565b9181601f840112156119925782359167ffffffffffffffff8311611992576020808501948460051b01011161199257565b9181601f840112156119925782359167ffffffffffffffff8311611992576020838186019501011161199257565b6060906003190112611992576001600160a01b03600435818116810361199257916024359160443590811681036119925790565b6060906003190112611992576001600160a01b0390600435828116810361199257916024359081168103611992579060443590565b3360009081527fad3228b676f7d3cd4284a5443f17f1962b36e491b30a40b2405849e597ba5fb5602052604081205460ff1615611aaf5750565b6044906040519063e2517d3f60e01b82523360048301526024820152fd5b80600052600060205260406000203360005260205260ff6040600020541615611aaf5750565b6001600160a01b031660008181527fad6010f11d85e6849ec87f5f41f95a2725aaf728916b399656c75ce30b0d2c5460205260408120549091906000805160206120fe8339815191529060ff16611b8e57808352826020526040832082845260205260408320600160ff198254161790557f2f8788117e7eff1d82e926ec794901d17c78024a50270940304540a733656f0d339380a4600190565b505090565b9060009180835282602052604083209160018060a01b03169182845260205260ff60408420541615600014611b8e57808352826020526040832082845260205260408320600160ff198254161790557f2f8788117e7eff1d82e926ec794901d17c78024a50270940304540a733656f0d339380a4600190565b9060009180835282602052604083209160018060a01b03169182845260205260ff604084205416600014611b8e5780835282602052604083208284526020526040832060ff1981541690557ff6391f5c32d9c69d2a47ea670b442974b53935d1edc7fd64eb21e047a839171b339380a4600190565b15611c8857565b60405162461bcd60e51b8152602060048201526024808201527f5661756c744d616e616765723a2063616c6c6572206973206e6f74206f70657260448201526330ba37b960e11b6064820152608490fd5b15611ce057565b60405162461bcd60e51b815260206004820152602b60248201527f5661756c744d616e616765723a20616d6f756e74206d7573742062652067726560448201526a061746572207468616e20360ac1b6064820152608490fd5b91908201809211611d4657565b634e487b7160e01b600052601160045260246000fd5b90601f8019910116810190811067ffffffffffffffff821117611d7e57604052565b634e487b7160e01b600052604160045260246000fd5b6040516323b872dd60e01b60208201526001600160a01b03928316602482015292909116604483015260648083019390935291815260a081019181831067ffffffffffffffff841117611d7e57611ded92604052611def565b565b906000602091828151910182855af115611e4b576000513d611e4257506001600160a01b0381163b155b611e205750565b604051635274afe760e01b81526001600160a01b039091166004820152602490fd5b60011415611e19565b6040513d6000823e3d90fd5b60ff60025416611e6357565b60405163d93c066560e01b8152600490fd5b600260015414611e86576002600155565b604051633ee5aeb560e01b8152600490fd5b15611e9f57565b60405162461bcd60e51b815260206004820152602260248201527f5661756c744d616e616765723a20696e73756666696369656e742062616c616e604482015261636560f01b6064820152608490fd5b91908203918211611d4657565b60405163a9059cbb60e01b60208201526001600160a01b039092166024830152604480830193909352918152608081019167ffffffffffffffff831182841017611d7e57611ded92604052611def565b94939280604093608093885260606020890152816060890152838801376000828288010152601f8019910116850101930152565b15611f8757565b60405162461bcd60e51b815260206004820152602660248201527f5661756c744d616e616765723a20696e73756666696369656e742070726f66696044820152651d081c1bdbdb60d21b6064820152608490fd5b81810292918115918404141715611d4657565b15611ff557565b60405162461bcd60e51b815260206004820152602860248201527f5661756c744d616e616765723a20696e73756666696369656e7420696e7465726044820152671858dd081c1bdbdb60c21b6064820152608490fd5b1561205257565b60405162461bcd60e51b815260206004820152602860248201527f5661756c744d616e616765723a20696e73756666696369656e7420646f6e61746044820152671a5bdb881c1bdbdb60c21b6064820152608490fd5b6000198114611d465760010190565b91908110156120c75760051b0190565b634e487b7160e01b600052603260045260246000fdfe1f5794a97a8fd0f5605d102f892a8a78d86771f26e26716d26e376f3f4a3d613696e87880cf63dca8f080e7a026952044d39afbd9cb8ab3582bd4b29e6071b29a2646970667358221220c1a7d88199ba604da17c69740c35416673a8e07d25822bc87c883ed868da690a64736f6c634300081400332f8788117e7eff1d82e926ec794901d17c78024a50270940304540a733656f0d","opcodes":"PUSH1 0x80 CALLVALUE PUSH3 0xAC JUMPI PUSH1 0x1F PUSH3 0x2372 CODESIZE DUP2 SWAP1 SUB SWAP2 DUP3 ADD PUSH1 0x1F NOT AND DUP4 ADD SWAP2 PUSH1 0x1 PUSH1 0x1 PUSH1 0x40 SHL SUB DUP4 GT DUP5 DUP5 LT OR PUSH3 0xB1 JUMPI DUP1 DUP5 SWAP3 PUSH1 0x40 SWAP5 DUP6 MSTORE DUP4 CODECOPY DUP2 ADD SUB SLT PUSH3 0xAC JUMPI DUP1 PUSH3 0x5F PUSH1 0x20 PUSH3 0x57 PUSH3 0x9B SWAP5 PUSH3 0xC7 JUMP JUMPDEST SWAP3 ADD PUSH3 0xC7 JUMP JUMPDEST PUSH1 0x1 DUP1 SSTORE PUSH1 0x2 DUP1 SLOAD PUSH2 0x100 PUSH1 0x1 PUSH1 0xA8 SHL SUB NOT AND PUSH1 0x8 SWAP4 SWAP1 SWAP4 SHL PUSH2 0x100 PUSH1 0x1 PUSH1 0xA8 SHL SUB AND SWAP3 SWAP1 SWAP3 OR SWAP1 SWAP2 SSTORE PUSH3 0x94 DUP2 PUSH3 0xDC JUMP JUMPDEST POP PUSH3 0x15C JUMP JUMPDEST POP PUSH1 0x40 MLOAD PUSH2 0x2153 SWAP1 DUP2 PUSH3 0x1FF DUP3 CODECOPY RETURN JUMPDEST PUSH1 0x0 DUP1 REVERT JUMPDEST PUSH4 0x4E487B71 PUSH1 0xE0 SHL PUSH1 0x0 MSTORE PUSH1 0x41 PUSH1 0x4 MSTORE PUSH1 0x24 PUSH1 0x0 REVERT JUMPDEST MLOAD SWAP1 PUSH1 0x1 PUSH1 0x1 PUSH1 0xA0 SHL SUB DUP3 AND DUP3 SUB PUSH3 0xAC JUMPI JUMP JUMPDEST PUSH1 0x1 PUSH1 0x1 PUSH1 0xA0 SHL SUB AND PUSH1 0x0 DUP2 DUP2 MSTORE PUSH32 0xAD3228B676F7D3CD4284A5443F17F1962B36E491B30A40B2405849E597BA5FB5 PUSH1 0x20 MSTORE PUSH1 0x40 DUP2 KECCAK256 SLOAD SWAP1 SWAP2 SWAP1 PUSH1 0xFF AND PUSH3 0x158 JUMPI DUP2 DUP1 MSTORE DUP2 PUSH1 0x20 MSTORE PUSH1 0x40 DUP3 KECCAK256 DUP2 DUP4 MSTORE PUSH1 0x20 MSTORE PUSH1 0x40 DUP3 KECCAK256 PUSH1 0x1 PUSH1 0xFF NOT DUP3 SLOAD AND OR SWAP1 SSTORE CALLER SWAP2 PUSH1 0x0 DUP1 MLOAD PUSH1 0x20 PUSH3 0x2352 DUP4 CODECOPY DUP2 MLOAD SWAP2 MSTORE DUP2 DUP1 LOG4 PUSH1 0x1 SWAP1 JUMP JUMPDEST POP SWAP1 JUMP JUMPDEST PUSH1 0x1 PUSH1 0x1 PUSH1 0xA0 SHL SUB AND PUSH1 0x0 DUP2 DUP2 MSTORE PUSH32 0xAD6010F11D85E6849EC87F5F41F95A2725AAF728916B399656C75CE30B0D2C54 PUSH1 0x20 MSTORE PUSH1 0x40 DUP2 KECCAK256 SLOAD SWAP1 SWAP2 SWAP1 PUSH32 0x696E87880CF63DCA8F080E7A026952044D39AFBD9CB8AB3582BD4B29E6071B29 SWAP1 PUSH1 0xFF AND PUSH3 0x1F9 JUMPI DUP1 DUP4 MSTORE DUP3 PUSH1 0x20 MSTORE PUSH1 0x40 DUP4 KECCAK256 DUP3 DUP5 MSTORE PUSH1 0x20 MSTORE PUSH1 0x40 DUP4 KECCAK256 PUSH1 0x1 PUSH1 0xFF NOT DUP3 SLOAD AND OR SWAP1 SSTORE PUSH1 0x0 DUP1 MLOAD PUSH1 0x20 PUSH3 0x2352 DUP4 CODECOPY DUP2 MLOAD SWAP2 MSTORE CALLER SWAP4 DUP1 LOG4 PUSH1 0x1 SWAP1 JUMP JUMPDEST POP POP SWAP1 JUMP INVALID PUSH1 0x80 PUSH1 0x40 DUP2 DUP2 MSTORE PUSH1 0x4 DUP1 CALLDATASIZE LT ISZERO PUSH2 0x15 JUMPI PUSH1 0x0 DUP1 REVERT JUMPDEST PUSH1 0x0 SWAP3 DUP4 CALLDATALOAD PUSH1 0xE0 SHR SWAP1 DUP2 PUSH4 0x1FFC9A7 EQ PUSH2 0x1928 JUMPI POP DUP1 PUSH4 0x8B8BB4B EQ PUSH2 0x16CF JUMPI DUP1 PUSH4 0x15490EBB EQ PUSH2 0x1493 JUMPI DUP1 PUSH4 0x1DE8AE53 EQ PUSH2 0x145B JUMPI DUP1 PUSH4 0x20E3DBD4 EQ PUSH2 0x140E JUMPI DUP1 PUSH4 0x234C30D7 EQ PUSH2 0x1225 JUMPI DUP1 PUSH4 0x248A9CA3 EQ PUSH2 0x11FC JUMPI DUP1 PUSH4 0x27AC0C58 EQ PUSH2 0x11AC JUMPI DUP1 PUSH4 0x2F2FF15D EQ PUSH2 0x1183 JUMPI DUP1 PUSH4 0x2FF1D458 EQ PUSH2 0x1051 JUMPI DUP1 PUSH4 0x31AA128D EQ PUSH2 0xF2B JUMPI DUP1 PUSH4 0x36568ABE EQ PUSH2 0xEE4 JUMPI DUP1 PUSH4 0x3E0E706E EQ PUSH2 0xEBD JUMPI DUP1 PUSH4 0x3F4BA83A EQ PUSH2 0xE54 JUMPI DUP1 PUSH4 0x4A650A2C EQ PUSH2 0xD7E JUMPI DUP1 PUSH4 0x564A6C98 EQ PUSH2 0xC9B JUMPI DUP1 PUSH4 0x58DBF21C EQ PUSH2 0xBB0 JUMPI DUP1 PUSH4 0x5C975ABB EQ PUSH2 0xB8C JUMPI DUP1 PUSH4 0x6208EDC9 EQ PUSH2 0xAB0 JUMPI DUP1 PUSH4 0x715D5896 EQ PUSH2 0x7D9 JUMPI DUP1 PUSH4 0x75818BD7 EQ PUSH2 0x9DA JUMPI DUP1 PUSH4 0x77C5B506 EQ PUSH2 0x942 JUMPI DUP1 PUSH4 0x79502C55 EQ PUSH2 0x915 JUMPI DUP1 PUSH4 0x7AF4C51B EQ PUSH2 0x8DD JUMPI DUP1 PUSH4 0x8456CB59 EQ PUSH2 0x882 JUMPI DUP1 PUSH4 0x91D14854 EQ PUSH2 0x83D JUMPI DUP1 PUSH4 0xA217FDDF EQ PUSH2 0x822 JUMPI DUP1 PUSH4 0xA7A62975 EQ PUSH2 0x7D9 JUMPI DUP1 PUSH4 0xAD04570D EQ PUSH2 0x55A JUMPI DUP1 PUSH4 0xBDF3E780 EQ PUSH2 0x6FB JUMPI DUP1 PUSH4 0xBED62365 EQ PUSH2 0x6D2 JUMPI DUP4 DUP2 PUSH4 0xC3C8F58C EQ PUSH2 0x592 JUMPI POP DUP1 PUSH4 0xC69C75CD EQ PUSH2 0x55A JUMPI DUP1 PUSH4 0xD249F54E EQ PUSH2 0x45C JUMPI DUP1 PUSH4 0xD44F97B8 EQ PUSH2 0x424 JUMPI DUP1 PUSH4 0xD547741F EQ PUSH2 0x3E6 JUMPI DUP1 PUSH4 0xE1EDE08F EQ PUSH2 0x306 JUMPI DUP1 PUSH4 0xEC185A07 EQ PUSH2 0x20A JUMPI PUSH4 0xF6FAA649 EQ PUSH2 0x1D2 JUMPI PUSH1 0x0 DUP1 REVERT JUMPDEST CALLVALUE PUSH2 0x206 JUMPI PUSH1 0x20 CALLDATASIZE PUSH1 0x3 NOT ADD SLT PUSH2 0x206 JUMPI PUSH1 0x20 SWAP3 DUP3 SWAP2 PUSH1 0x1 PUSH1 0x1 PUSH1 0xA0 SHL SUB PUSH2 0x1F8 PUSH2 0x197C JUMP JUMPDEST AND DUP3 MSTORE DUP5 MSTORE KECCAK256 SLOAD SWAP1 MLOAD SWAP1 DUP2 MSTORE RETURN JUMPDEST DUP3 DUP1 REVERT JUMPDEST POP CALLVALUE PUSH2 0x206 JUMPI PUSH1 0x80 CALLDATASIZE PUSH1 0x3 NOT ADD SLT PUSH2 0x206 JUMPI PUSH2 0x224 PUSH2 0x197C JUMP JUMPDEST SWAP2 DUP4 PUSH2 0x22E PUSH2 0x1997 JUMP JUMPDEST PUSH1 0x44 CALLDATALOAD PUSH1 0x64 CALLDATALOAD PUSH8 0xFFFFFFFFFFFFFFFF DUP2 GT PUSH2 0x302 JUMPI PUSH32 0x66AECC579AA1EF463C0ED1547C2CB6163370E6311A60CBA815252ACBB398F213 SWAP6 PUSH2 0x2D6 DUP4 PUSH2 0x2F8 SWAP6 PUSH2 0x2A9 PUSH1 0xFF PUSH2 0x280 DUP12 SWAP8 CALLDATASIZE SWAP1 DUP9 ADD PUSH2 0x19DE JUMP JUMPDEST SWAP12 SWAP1 SWAP11 PUSH1 0x0 DUP1 MLOAD PUSH1 0x20 PUSH2 0x20FE DUP4 CODECOPY DUP2 MLOAD SWAP2 MSTORE DUP2 MSTORE DUP1 PUSH1 0x20 MSTORE DUP2 DUP2 KECCAK256 CALLER DUP3 MSTORE PUSH1 0x20 MSTORE KECCAK256 SLOAD AND PUSH2 0x1C81 JUMP JUMPDEST PUSH2 0x2B1 PUSH2 0x1E75 JUMP JUMPDEST PUSH2 0x2B9 PUSH2 0x1E57 JUMP JUMPDEST PUSH2 0x2C4 DUP3 ISZERO ISZERO PUSH2 0x1CD9 JUMP JUMPDEST PUSH1 0x1 PUSH1 0x1 PUSH1 0xA0 SHL SUB AND SWAP10 ADDRESS SWAP1 DUP12 PUSH2 0x1D94 JUMP JUMPDEST DUP8 DUP10 MSTORE PUSH1 0x20 MSTORE DUP1 DUP9 KECCAK256 PUSH2 0x2EA DUP4 DUP3 SLOAD PUSH2 0x1D39 JUMP JUMPDEST SWAP1 SSTORE MLOAD SWAP4 DUP5 SWAP4 TIMESTAMP SWAP3 DUP6 PUSH2 0x1F4C JUMP JUMPDEST SUB SWAP1 LOG2 PUSH1 0x1 DUP1 SSTORE DUP1 RETURN JUMPDEST DUP4 DUP1 REVERT JUMPDEST POP POP CALLVALUE PUSH2 0x3E2 JUMPI DUP1 PUSH1 0x3 NOT CALLDATASIZE ADD SLT PUSH2 0x3E2 JUMPI PUSH1 0x0 DUP1 MLOAD PUSH1 0x20 PUSH2 0x20DE DUP4 CODECOPY DUP2 MLOAD SWAP2 MSTORE PUSH1 0xA0 PUSH2 0x331 PUSH2 0x197C JUMP JUMPDEST PUSH1 0x24 CALLDATALOAD SWAP1 PUSH1 0x0 DUP1 MLOAD PUSH1 0x20 PUSH2 0x20FE DUP4 CODECOPY DUP2 MLOAD SWAP2 MSTORE DUP7 MSTORE DUP6 PUSH1 0x20 MSTORE DUP5 DUP7 KECCAK256 CALLER DUP8 MSTORE PUSH1 0x20 MSTORE PUSH2 0x362 PUSH1 0xFF DUP7 DUP9 KECCAK256 SLOAD AND PUSH2 0x1C81 JUMP JUMPDEST PUSH2 0x36A PUSH2 0x1E75 JUMP JUMPDEST PUSH2 0x372 PUSH2 0x1E57 JUMP JUMPDEST PUSH2 0x37D DUP3 ISZERO ISZERO PUSH2 0x1CD9 JUMP JUMPDEST PUSH1 0x1 DUP1 DUP5 SHL SUB AND SWAP4 PUSH2 0x391 DUP3 ADDRESS CALLER DUP9 PUSH2 0x1D94 JUMP JUMPDEST DUP5 DUP7 MSTORE PUSH1 0x7 PUSH1 0x20 MSTORE DUP1 DUP7 KECCAK256 PUSH2 0x3A7 DUP4 DUP3 SLOAD PUSH2 0x1D39 JUMP JUMPDEST SWAP1 SSTORE DUP1 MLOAD SWAP2 DUP3 MSTORE PUSH1 0x60 PUSH1 0x20 DUP4 ADD MSTORE PUSH1 0x10 PUSH1 0x60 DUP4 ADD MSTORE PUSH16 0x191BDB985D1A5BDB97D9195C1BDCDA5D PUSH1 0x82 SHL PUSH1 0x80 DUP4 ADD MSTORE TIMESTAMP SWAP1 DUP3 ADD MSTORE LOG2 PUSH1 0x1 DUP1 SSTORE DUP1 RETURN JUMPDEST POP DUP1 REVERT JUMPDEST POP SWAP1 CALLVALUE PUSH2 0x206 JUMPI DUP1 PUSH1 0x3 NOT CALLDATASIZE ADD SLT PUSH2 0x206 JUMPI PUSH2 0x420 SWAP2 CALLDATALOAD PUSH2 0x41B PUSH1 0x1 PUSH2 0x40A PUSH2 0x1997 JUMP JUMPDEST SWAP4 DUP4 DUP8 MSTORE DUP7 PUSH1 0x20 MSTORE DUP7 KECCAK256 ADD SLOAD PUSH2 0x1ACD JUMP JUMPDEST PUSH2 0x1C0C JUMP JUMPDEST POP DUP1 RETURN JUMPDEST POP POP CALLVALUE PUSH2 0x3E2 JUMPI PUSH1 0x20 CALLDATASIZE PUSH1 0x3 NOT ADD SLT PUSH2 0x3E2 JUMPI PUSH1 0x20 SWAP2 DUP2 SWAP1 PUSH1 0x1 PUSH1 0x1 PUSH1 0xA0 SHL SUB PUSH2 0x44C PUSH2 0x197C JUMP JUMPDEST AND DUP2 MSTORE PUSH1 0x7 DUP5 MSTORE KECCAK256 SLOAD SWAP1 MLOAD SWAP1 DUP2 MSTORE RETURN JUMPDEST POP POP CALLVALUE PUSH2 0x3E2 JUMPI PUSH32 0x63CA1BEE673FE6BEFAA933C20ECF9CA16A04BD4273BFFE1A05B0B9CC9B9BE043 SWAP1 PUSH2 0x48E CALLDATASIZE PUSH2 0x1A40 JUMP JUMPDEST PUSH1 0x0 DUP1 MLOAD PUSH1 0x20 PUSH2 0x20FE DUP4 CODECOPY DUP2 MLOAD SWAP2 MSTORE DUP7 SWAP6 SWAP4 SWAP5 SWAP3 SWAP6 MSTORE PUSH1 0x20 DUP7 DUP2 MSTORE DUP3 DUP8 KECCAK256 CALLER DUP9 MSTORE DUP2 MSTORE PUSH2 0x4C0 PUSH1 0xFF DUP5 DUP10 KECCAK256 SLOAD AND PUSH2 0x1C81 JUMP JUMPDEST PUSH2 0x4C8 PUSH2 0x1E75 JUMP JUMPDEST PUSH2 0x4D0 PUSH2 0x1E57 JUMP JUMPDEST PUSH2 0x4DB DUP3 ISZERO ISZERO PUSH2 0x1CD9 JUMP JUMPDEST PUSH2 0x548 DUP3 PUSH1 0x1 DUP1 PUSH1 0xA0 SHL SUB SWAP7 DUP8 DUP2 AND SWAP8 DUP9 DUP12 MSTORE PUSH1 0x8 DUP6 MSTORE DUP7 DUP12 KECCAK256 SWAP10 AND SWAP9 DUP10 DUP12 MSTORE DUP5 MSTORE PUSH2 0x50C DUP3 DUP8 DUP13 KECCAK256 SLOAD LT ISZERO PUSH2 0x1E98 JUMP JUMPDEST DUP8 DUP11 MSTORE PUSH1 0x8 DUP5 MSTORE DUP6 DUP11 KECCAK256 DUP10 DUP12 MSTORE DUP5 MSTORE DUP6 DUP11 KECCAK256 PUSH2 0x529 DUP4 DUP3 SLOAD PUSH2 0x1EEF JUMP JUMPDEST SWAP1 SSTORE DUP9 DUP11 MSTORE PUSH1 0x3 DUP5 MSTORE DUP6 DUP11 KECCAK256 PUSH2 0x540 DUP4 DUP3 SLOAD PUSH2 0x1EEF JUMP JUMPDEST SWAP1 SSTORE DUP9 PUSH2 0x1EFC JUMP JUMPDEST DUP3 MLOAD SWAP2 DUP3 MSTORE TIMESTAMP SWAP1 DUP3 ADD MSTORE LOG3 PUSH1 0x1 DUP1 SSTORE DUP1 RETURN JUMPDEST POP POP CALLVALUE PUSH2 0x3E2 JUMPI PUSH1 0x20 CALLDATASIZE PUSH1 0x3 NOT ADD SLT PUSH2 0x3E2 JUMPI PUSH1 0x20 SWAP2 DUP2 SWAP1 PUSH1 0x1 PUSH1 0x1 PUSH1 0xA0 SHL SUB PUSH2 0x582 PUSH2 0x197C JUMP JUMPDEST AND DUP2 MSTORE PUSH1 0x3 DUP5 MSTORE KECCAK256 SLOAD SWAP1 MLOAD SWAP1 DUP2 MSTORE RETURN JUMPDEST DUP1 DUP5 DUP5 CALLVALUE PUSH2 0x6CE JUMPI PUSH1 0x80 CALLDATASIZE PUSH1 0x3 NOT ADD SLT PUSH2 0x6CE JUMPI DUP2 PUSH1 0x0 DUP1 MLOAD PUSH1 0x20 PUSH2 0x20DE DUP4 CODECOPY DUP2 MLOAD SWAP2 MSTORE SWAP3 PUSH1 0x60 DUP6 PUSH1 0xA0 SWAP5 PUSH2 0x5C5 PUSH2 0x197C JUMP JUMPDEST SWAP1 PUSH1 0x24 CALLDATALOAD PUSH1 0x44 CALLDATALOAD SWAP2 PUSH2 0x63E PUSH1 0x64 CALLDATALOAD SWAP5 PUSH1 0x0 DUP1 MLOAD PUSH1 0x20 PUSH2 0x20FE DUP4 CODECOPY DUP2 MLOAD SWAP2 MSTORE DUP8 MSTORE PUSH2 0x601 PUSH1 0xFF DUP11 PUSH1 0x20 SWAP10 DUP1 DUP12 MSTORE DUP2 DUP2 KECCAK256 CALLER DUP3 MSTORE DUP12 MSTORE KECCAK256 SLOAD AND PUSH2 0x1C81 JUMP JUMPDEST PUSH2 0x609 PUSH2 0x1E75 JUMP JUMPDEST PUSH2 0x611 PUSH2 0x1E57 JUMP JUMPDEST PUSH2 0x624 DUP7 PUSH2 0x61F DUP8 DUP8 PUSH2 0x1D39 JUMP JUMPDEST PUSH2 0x1D39 JUMP JUMPDEST SWAP10 DUP11 SWAP2 PUSH1 0x1 DUP1 DUP15 SHL SUB AND SWAP14 DUP15 DUP2 MSTORE DUP5 DUP10 MSTORE KECCAK256 SLOAD LT ISZERO PUSH2 0x1F80 JUMP JUMPDEST DUP11 DUP13 MSTORE DUP5 MSTORE DUP6 DUP12 KECCAK256 PUSH2 0x651 DUP9 DUP3 SLOAD PUSH2 0x1EEF JUMP JUMPDEST SWAP1 SSTORE DUP10 DUP12 MSTORE PUSH1 0x5 DUP5 MSTORE PUSH2 0x668 DUP7 DUP13 KECCAK256 SWAP2 DUP3 SLOAD PUSH2 0x1D39 JUMP JUMPDEST SWAP1 SSTORE DUP9 DUP11 MSTORE PUSH1 0x6 DUP4 MSTORE PUSH2 0x67F DUP6 DUP12 KECCAK256 SWAP2 DUP3 SLOAD PUSH2 0x1D39 JUMP JUMPDEST SWAP1 SSTORE DUP8 DUP10 MSTORE PUSH1 0x7 DUP3 MSTORE PUSH2 0x696 DUP5 DUP11 KECCAK256 SWAP2 DUP3 SLOAD PUSH2 0x1D39 JUMP JUMPDEST SWAP1 SSTORE DUP3 MLOAD SWAP4 DUP5 MSTORE DUP4 ADD MSTORE PUSH1 0x11 PUSH1 0x60 DUP4 ADD MSTORE PUSH17 0x383937B334BA2FB0B63637B1B0BA34B7B7 PUSH1 0x79 SHL PUSH1 0x80 DUP4 ADD MSTORE TIMESTAMP SWAP1 DUP3 ADD MSTORE LOG2 PUSH1 0x1 DUP1 SSTORE DUP1 RETURN JUMPDEST POP POP REVERT JUMPDEST POP POP CALLVALUE PUSH2 0x3E2 JUMPI DUP2 PUSH1 0x3 NOT CALLDATASIZE ADD SLT PUSH2 0x3E2 JUMPI PUSH1 0x20 SWAP1 MLOAD PUSH1 0x0 DUP1 MLOAD PUSH1 0x20 PUSH2 0x20FE DUP4 CODECOPY DUP2 MLOAD SWAP2 MSTORE DUP2 MSTORE RETURN JUMPDEST POP POP CALLVALUE PUSH2 0x3E2 JUMPI PUSH1 0x0 DUP1 MLOAD PUSH1 0x20 PUSH2 0x20DE DUP4 CODECOPY DUP2 MLOAD SWAP2 MSTORE PUSH1 0xA0 PUSH2 0x79F PUSH2 0x71F CALLDATASIZE PUSH2 0x1A0C JUMP JUMPDEST SWAP6 SWAP2 SWAP1 DUP1 SWAP4 SWAP2 PUSH1 0x0 DUP1 MLOAD PUSH1 0x20 PUSH2 0x20FE DUP4 CODECOPY DUP2 MLOAD SWAP2 MSTORE DUP10 MSTORE DUP9 PUSH1 0x20 MSTORE DUP4 DUP10 KECCAK256 CALLER DUP11 MSTORE PUSH1 0x20 MSTORE PUSH2 0x752 PUSH1 0xFF DUP6 DUP12 KECCAK256 SLOAD AND PUSH2 0x1C81 JUMP JUMPDEST PUSH2 0x75A PUSH2 0x1E75 JUMP JUMPDEST PUSH2 0x762 PUSH2 0x1E57 JUMP JUMPDEST PUSH1 0x1 DUP1 DUP8 SHL SUB AND SWAP7 DUP8 DUP10 MSTORE PUSH1 0x6 PUSH1 0x20 MSTORE PUSH2 0x781 DUP3 DUP6 DUP12 KECCAK256 SLOAD LT ISZERO PUSH2 0x1FEE JUMP JUMPDEST DUP8 DUP10 MSTORE PUSH1 0x6 PUSH1 0x20 MSTORE DUP4 DUP10 KECCAK256 PUSH2 0x797 DUP4 DUP3 SLOAD PUSH2 0x1EEF JUMP JUMPDEST SWAP1 SSTORE DUP8 PUSH2 0x1EFC JUMP JUMPDEST DUP1 MLOAD SWAP2 DUP3 MSTORE PUSH1 0x60 PUSH1 0x20 DUP4 ADD MSTORE PUSH1 0x11 PUSH1 0x60 DUP4 ADD MSTORE PUSH17 0x696E7465726163745F7769746864726177 PUSH1 0x78 SHL PUSH1 0x80 DUP4 ADD MSTORE TIMESTAMP SWAP1 DUP3 ADD MSTORE LOG2 PUSH1 0x1 DUP1 SSTORE DUP1 RETURN JUMPDEST POP POP CALLVALUE PUSH2 0x3E2 JUMPI DUP1 PUSH1 0x3 NOT CALLDATASIZE ADD SLT PUSH2 0x3E2 JUMPI DUP1 PUSH1 0x20 SWAP3 PUSH2 0x7F7 PUSH2 0x197C JUMP JUMPDEST PUSH2 0x7FF PUSH2 0x1997 JUMP JUMPDEST PUSH1 0x1 PUSH1 0x1 PUSH1 0xA0 SHL SUB SWAP2 DUP3 AND DUP4 MSTORE PUSH1 0x8 DUP7 MSTORE DUP4 DUP4 KECCAK256 SWAP2 AND DUP3 MSTORE DUP5 MSTORE KECCAK256 SLOAD SWAP1 MLOAD SWAP1 DUP2 MSTORE RETURN JUMPDEST POP POP CALLVALUE PUSH2 0x3E2 JUMPI DUP2 PUSH1 0x3 NOT CALLDATASIZE ADD SLT PUSH2 0x3E2 JUMPI MLOAD SWAP1 DUP2 MSTORE PUSH1 0x20 SWAP1 RETURN JUMPDEST POP CALLVALUE PUSH2 0x206 JUMPI DUP2 PUSH1 0x3 NOT CALLDATASIZE ADD SLT PUSH2 0x206 JUMPI DUP2 PUSH1 0x20 SWAP4 PUSH1 0xFF SWAP3 PUSH2 0x85D PUSH2 0x1997 JUMP JUMPDEST SWAP1 CALLDATALOAD DUP3 MSTORE DUP2 DUP7 MSTORE DUP3 DUP3 KECCAK256 PUSH1 0x1 PUSH1 0x1 PUSH1 0xA0 SHL SUB SWAP1 SWAP2 AND DUP3 MSTORE DUP6 MSTORE KECCAK256 SLOAD SWAP2 MLOAD SWAP2 AND ISZERO ISZERO DUP2 MSTORE RETURN JUMPDEST POP POP CALLVALUE PUSH2 0x3E2 JUMPI DUP2 PUSH1 0x3 NOT CALLDATASIZE ADD SLT PUSH2 0x3E2 JUMPI PUSH1 0x20 PUSH32 0x62E78CEA01BEE320CD4E420270B5EA74000D11B0C9F74754EBDBFC544B05A258 SWAP2 PUSH2 0x8C0 PUSH2 0x1A75 JUMP JUMPDEST PUSH2 0x8C8 PUSH2 0x1E57 JUMP JUMPDEST PUSH1 0x1 PUSH1 0xFF NOT PUSH1 0x2 SLOAD AND OR PUSH1 0x2 SSTORE MLOAD CALLER DUP2 MSTORE LOG1 DUP1 RETURN JUMPDEST POP POP CALLVALUE PUSH2 0x3E2 JUMPI PUSH1 0x20 CALLDATASIZE PUSH1 0x3 NOT ADD SLT PUSH2 0x3E2 JUMPI PUSH1 0x20 SWAP2 DUP2 SWAP1 PUSH1 0x1 PUSH1 0x1 PUSH1 0xA0 SHL SUB PUSH2 0x905 PUSH2 0x197C JUMP JUMPDEST AND DUP2 MSTORE PUSH1 0x5 DUP5 MSTORE KECCAK256 SLOAD SWAP1 MLOAD SWAP1 DUP2 MSTORE RETURN JUMPDEST POP POP CALLVALUE PUSH2 0x3E2 JUMPI DUP2 PUSH1 0x3 NOT CALLDATASIZE ADD SLT PUSH2 0x3E2 JUMPI PUSH1 0x2 SLOAD SWAP1 MLOAD PUSH1 0x8 SWAP2 SWAP1 SWAP2 SHR PUSH1 0x1 PUSH1 0x1 PUSH1 0xA0 SHL SUB AND DUP2 MSTORE PUSH1 0x20 SWAP1 RETURN JUMPDEST POP POP CALLVALUE PUSH2 0x3E2 JUMPI PUSH2 0x9D3 SWAP1 PUSH2 0x956 CALLDATASIZE PUSH2 0x1A0C JUMP JUMPDEST SWAP2 PUSH1 0x0 DUP1 MLOAD PUSH1 0x20 PUSH2 0x20FE DUP4 CODECOPY DUP2 MLOAD SWAP2 MSTORE DUP7 SWAP5 SWAP3 SWAP5 MSTORE DUP6 PUSH1 0x20 MSTORE DUP2 DUP7 KECCAK256 CALLER DUP8 MSTORE PUSH1 0x20 MSTORE PUSH2 0x987 PUSH1 0xFF DUP4 DUP9 KECCAK256 SLOAD AND PUSH2 0x1C81 JUMP JUMPDEST PUSH2 0x98F PUSH2 0x1E75 JUMP JUMPDEST PUSH2 0x997 PUSH2 0x1E57 JUMP JUMPDEST PUSH1 0x1 DUP1 PUSH1 0xA0 SHL SUB AND SWAP1 DUP2 DUP7 MSTORE PUSH1 0x6 PUSH1 0x20 MSTORE PUSH2 0x9B7 DUP5 DUP3 DUP9 KECCAK256 SLOAD LT ISZERO PUSH2 0x1FEE JUMP JUMPDEST DUP2 DUP7 MSTORE PUSH1 0x6 PUSH1 0x20 MSTORE DUP6 KECCAK256 PUSH2 0x9CC DUP5 DUP3 SLOAD PUSH2 0x1EEF JUMP JUMPDEST SWAP1 SSTORE PUSH2 0x1EFC JUMP JUMPDEST PUSH1 0x1 DUP1 SSTORE DUP1 RETURN JUMPDEST POP POP CALLVALUE PUSH2 0x3E2 JUMPI PUSH1 0x0 DUP1 MLOAD PUSH1 0x20 PUSH2 0x20DE DUP4 CODECOPY DUP2 MLOAD SWAP2 MSTORE PUSH1 0xA0 PUSH2 0xA76 PUSH2 0x9FE CALLDATASIZE PUSH2 0x1A0C JUMP JUMPDEST SWAP6 SWAP2 SWAP1 DUP1 SWAP4 SWAP2 PUSH1 0x0 DUP1 MLOAD PUSH1 0x20 PUSH2 0x20FE DUP4 CODECOPY DUP2 MLOAD SWAP2 MSTORE DUP10 MSTORE DUP9 PUSH1 0x20 MSTORE DUP4 DUP10 KECCAK256 CALLER DUP11 MSTORE PUSH1 0x20 MSTORE PUSH2 0xA31 PUSH1 0xFF DUP6 DUP12 KECCAK256 SLOAD AND PUSH2 0x1C81 JUMP JUMPDEST PUSH2 0xA39 PUSH2 0x1E75 JUMP JUMPDEST PUSH2 0xA41 PUSH2 0x1E57 JUMP JUMPDEST PUSH1 0x1 DUP1 DUP8 SHL SUB AND SWAP7 DUP8 DUP10 MSTORE PUSH1 0x7 PUSH1 0x20 MSTORE PUSH2 0xA60 DUP3 DUP6 DUP12 KECCAK256 SLOAD LT ISZERO PUSH2 0x204B JUMP JUMPDEST DUP8 DUP10 MSTORE PUSH1 0x7 PUSH1 0x20 MSTORE DUP4 DUP10 KECCAK256 PUSH2 0x797 DUP4 DUP3 SLOAD PUSH2 0x1EEF JUMP JUMPDEST DUP1 MLOAD SWAP2 DUP3 MSTORE PUSH1 0x60 PUSH1 0x20 DUP4 ADD MSTORE PUSH1 0x11 PUSH1 0x60 DUP4 ADD MSTORE PUSH17 0x646F6E6174696F6E5F7769746864726177 PUSH1 0x78 SHL PUSH1 0x80 DUP4 ADD MSTORE TIMESTAMP SWAP1 DUP3 ADD MSTORE LOG2 PUSH1 0x1 DUP1 SSTORE DUP1 RETURN JUMPDEST POP POP CALLVALUE PUSH2 0x3E2 JUMPI DUP1 PUSH1 0x3 NOT CALLDATASIZE ADD SLT PUSH2 0x3E2 JUMPI PUSH1 0x0 DUP1 MLOAD PUSH1 0x20 PUSH2 0x20DE DUP4 CODECOPY DUP2 MLOAD SWAP2 MSTORE PUSH1 0xA0 PUSH2 0xADB PUSH2 0x197C JUMP JUMPDEST PUSH1 0x24 CALLDATALOAD SWAP1 PUSH1 0x0 DUP1 MLOAD PUSH1 0x20 PUSH2 0x20FE DUP4 CODECOPY DUP2 MLOAD SWAP2 MSTORE DUP7 MSTORE DUP6 PUSH1 0x20 MSTORE DUP5 DUP7 KECCAK256 CALLER DUP8 MSTORE PUSH1 0x20 MSTORE PUSH2 0xB0C PUSH1 0xFF DUP7 DUP9 KECCAK256 SLOAD AND PUSH2 0x1C81 JUMP JUMPDEST PUSH2 0xB14 PUSH2 0x1E75 JUMP JUMPDEST PUSH2 0xB1C PUSH2 0x1E57 JUMP JUMPDEST PUSH2 0xB27 DUP3 ISZERO ISZERO PUSH2 0x1CD9 JUMP JUMPDEST PUSH1 0x1 DUP1 DUP5 SHL SUB AND SWAP4 PUSH2 0xB3B DUP3 ADDRESS CALLER DUP9 PUSH2 0x1D94 JUMP JUMPDEST DUP5 DUP7 MSTORE PUSH1 0x6 PUSH1 0x20 MSTORE DUP1 DUP7 KECCAK256 PUSH2 0xB51 DUP4 DUP3 SLOAD PUSH2 0x1D39 JUMP JUMPDEST SWAP1 SSTORE DUP1 MLOAD SWAP2 DUP3 MSTORE PUSH1 0x60 PUSH1 0x20 DUP4 ADD MSTORE PUSH1 0x10 PUSH1 0x60 DUP4 ADD MSTORE PUSH16 0x1A5B9D195C9858DD17D9195C1BDCDA5D PUSH1 0x82 SHL PUSH1 0x80 DUP4 ADD MSTORE TIMESTAMP SWAP1 DUP3 ADD MSTORE LOG2 PUSH1 0x1 DUP1 SSTORE DUP1 RETURN JUMPDEST POP POP CALLVALUE PUSH2 0x3E2 JUMPI DUP2 PUSH1 0x3 NOT CALLDATASIZE ADD SLT PUSH2 0x3E2 JUMPI PUSH1 0x20 SWAP1 PUSH1 0xFF PUSH1 0x2 SLOAD AND SWAP1 MLOAD SWAP1 ISZERO ISZERO DUP2 MSTORE RETURN JUMPDEST POP POP CALLVALUE PUSH2 0x3E2 JUMPI PUSH32 0x2BDE942ED78F9E1081375810D2AA3BFE43EC08B083F750914542C4BF2FE936C7 SWAP1 PUSH2 0xBE2 CALLDATASIZE PUSH2 0x1A40 JUMP JUMPDEST PUSH2 0xBEF SWAP5 SWAP3 SWAP4 SWAP2 SWAP5 PUSH2 0x1A75 JUMP JUMPDEST PUSH1 0x1 PUSH1 0x1 PUSH1 0xA0 SHL SUB SWAP4 DUP5 AND DUP1 DUP8 MSTORE PUSH1 0x8 PUSH1 0x20 SWAP1 DUP2 MSTORE DUP4 DUP9 KECCAK256 SWAP7 SWAP1 SWAP6 AND DUP1 DUP9 MSTORE SWAP6 DUP6 MSTORE DUP3 DUP8 KECCAK256 SLOAD SWAP1 SWAP5 SWAP1 DUP1 DUP4 GT ISZERO PUSH2 0xC64 JUMPI PUSH2 0xC2A SWAP1 DUP4 PUSH2 0x1EEF JUMP JUMPDEST DUP7 DUP9 MSTORE PUSH1 0x3 DUP3 MSTORE PUSH2 0xC3F DUP5 DUP10 KECCAK256 SWAP2 DUP3 SLOAD PUSH2 0x1D39 JUMP JUMPDEST SWAP1 SSTORE JUMPDEST DUP5 DUP8 MSTORE PUSH1 0x8 DUP2 MSTORE DUP3 DUP8 KECCAK256 DUP7 DUP9 MSTORE DUP2 MSTORE DUP2 DUP4 DUP9 KECCAK256 SSTORE DUP3 MLOAD SWAP2 DUP3 MSTORE TIMESTAMP SWAP1 DUP3 ADD MSTORE LOG3 DUP1 RETURN JUMPDEST DUP3 DUP2 DUP2 LT PUSH2 0xC74 JUMPI JUMPDEST POP POP PUSH2 0xC42 JUMP JUMPDEST PUSH2 0xC7D SWAP2 PUSH2 0x1EEF JUMP JUMPDEST DUP7 DUP9 MSTORE PUSH1 0x3 DUP3 MSTORE PUSH2 0xC92 DUP5 DUP10 KECCAK256 SWAP2 DUP3 SLOAD PUSH2 0x1EEF JUMP JUMPDEST SWAP1 SSTORE CODESIZE DUP3 PUSH2 0xC6D JUMP JUMPDEST POP POP CALLVALUE PUSH2 0x3E2 JUMPI PUSH32 0x2BDE942ED78F9E1081375810D2AA3BFE43EC08B083F750914542C4BF2FE936C7 SWAP1 PUSH2 0xCCD CALLDATASIZE PUSH2 0x1A40 JUMP JUMPDEST PUSH1 0x0 DUP1 MLOAD PUSH1 0x20 PUSH2 0x20FE DUP4 CODECOPY DUP2 MLOAD SWAP2 MSTORE DUP7 SWAP6 SWAP4 SWAP6 SWAP5 SWAP3 SWAP5 MSTORE PUSH1 0x20 SWAP4 DUP7 DUP6 MSTORE DUP3 DUP8 KECCAK256 CALLER DUP9 MSTORE DUP6 MSTORE PUSH2 0xD01 PUSH1 0xFF DUP5 DUP10 KECCAK256 SLOAD AND PUSH2 0x1C81 JUMP JUMPDEST PUSH2 0xD09 PUSH2 0x1E75 JUMP JUMPDEST PUSH2 0xD11 PUSH2 0x1E57 JUMP JUMPDEST PUSH2 0xD1C DUP3 ISZERO ISZERO PUSH2 0x1CD9 JUMP JUMPDEST PUSH1 0x1 PUSH1 0x1 PUSH1 0xA0 SHL SUB SWAP1 DUP2 AND SWAP6 PUSH2 0xD34 DUP4 ADDRESS DUP4 DUP11 PUSH2 0x1D94 JUMP JUMPDEST AND SWAP4 DUP5 DUP8 MSTORE PUSH1 0x8 DUP2 MSTORE DUP3 DUP8 KECCAK256 DUP7 DUP9 MSTORE DUP2 MSTORE DUP3 DUP8 KECCAK256 PUSH2 0xD53 DUP4 DUP3 SLOAD PUSH2 0x1D39 JUMP JUMPDEST SWAP1 SSTORE DUP6 DUP8 MSTORE PUSH1 0x3 DUP2 MSTORE DUP3 DUP8 KECCAK256 PUSH2 0xD6A DUP4 DUP3 SLOAD PUSH2 0x1D39 JUMP JUMPDEST SWAP1 SSTORE DUP3 MLOAD SWAP2 DUP3 MSTORE TIMESTAMP SWAP1 DUP3 ADD MSTORE LOG3 PUSH1 0x1 DUP1 SSTORE DUP1 RETURN JUMPDEST POP POP CALLVALUE PUSH2 0x3E2 JUMPI DUP1 PUSH1 0x3 NOT CALLDATASIZE ADD SLT PUSH2 0x3E2 JUMPI PUSH1 0x0 DUP1 MLOAD PUSH1 0x20 PUSH2 0x20DE DUP4 CODECOPY DUP2 MLOAD SWAP2 MSTORE PUSH1 0xA0 PUSH2 0xDA9 PUSH2 0x197C JUMP JUMPDEST PUSH1 0x24 CALLDATALOAD SWAP1 PUSH1 0x0 DUP1 MLOAD PUSH1 0x20 PUSH2 0x20FE DUP4 CODECOPY DUP2 MLOAD SWAP2 MSTORE DUP7 MSTORE DUP6 PUSH1 0x20 MSTORE DUP5 DUP7 KECCAK256 CALLER DUP8 MSTORE PUSH1 0x20 MSTORE PUSH2 0xDDA PUSH1 0xFF DUP7 DUP9 KECCAK256 SLOAD AND PUSH2 0x1C81 JUMP JUMPDEST PUSH2 0xDE2 PUSH2 0x1E75 JUMP JUMPDEST PUSH2 0xDEA PUSH2 0x1E57 JUMP JUMPDEST PUSH2 0xDF5 DUP3 ISZERO ISZERO PUSH2 0x1CD9 JUMP JUMPDEST PUSH1 0x1 DUP1 DUP5 SHL SUB AND SWAP4 PUSH2 0xE09 DUP3 ADDRESS CALLER DUP9 PUSH2 0x1D94 JUMP JUMPDEST DUP5 DUP7 MSTORE PUSH1 0x5 PUSH1 0x20 MSTORE DUP1 DUP7 KECCAK256 PUSH2 0xE1F DUP4 DUP3 SLOAD PUSH2 0x1D39 JUMP JUMPDEST SWAP1 SSTORE DUP1 MLOAD SWAP2 DUP3 MSTORE PUSH1 0x60 PUSH1 0x20 DUP4 ADD MSTORE PUSH1 0xA PUSH1 0x60 DUP4 ADD MSTORE PUSH10 0x1B1C17D9195C1BDCDA5D PUSH1 0xB2 SHL PUSH1 0x80 DUP4 ADD MSTORE TIMESTAMP SWAP1 DUP3 ADD MSTORE LOG2 PUSH1 0x1 DUP1 SSTORE DUP1 RETURN JUMPDEST POP CALLVALUE PUSH2 0x206 JUMPI DUP3 PUSH1 0x3 NOT CALLDATASIZE ADD SLT PUSH2 0x206 JUMPI PUSH2 0xE6D PUSH2 0x1A75 JUMP JUMPDEST PUSH1 0x2 SLOAD SWAP1 PUSH1 0xFF DUP3 AND ISZERO PUSH2 0xEAF JUMPI POP PUSH1 0xFF NOT AND PUSH1 0x2 SSTORE MLOAD CALLER DUP2 MSTORE PUSH32 0x5DB9EE0A495BF2E6FF9C91A7834C1BA4FDD244A5E8AA4E537BD38AEAE4B073AA SWAP1 PUSH1 0x20 SWAP1 LOG1 DUP1 RETURN JUMPDEST DUP3 MLOAD PUSH4 0x8DFC202B PUSH1 0xE0 SHL DUP2 MSTORE REVERT JUMPDEST POP CALLVALUE PUSH2 0x206 JUMPI PUSH1 0x20 CALLDATASIZE PUSH1 0x3 NOT ADD SLT PUSH2 0x206 JUMPI PUSH1 0x20 SWAP3 DUP3 SWAP2 PUSH1 0x1 PUSH1 0x1 PUSH1 0xA0 SHL SUB PUSH2 0x1F8 PUSH2 0x197C JUMP JUMPDEST POP SWAP2 SWAP1 CALLVALUE PUSH2 0x3E2 JUMPI DUP1 PUSH1 0x3 NOT CALLDATASIZE ADD SLT PUSH2 0x3E2 JUMPI PUSH2 0xEFF PUSH2 0x1997 JUMP JUMPDEST SWAP1 CALLER PUSH1 0x1 PUSH1 0x1 PUSH1 0xA0 SHL SUB DUP4 AND SUB PUSH2 0xF1C JUMPI POP PUSH2 0x420 SWAP2 SWAP3 CALLDATALOAD PUSH2 0x1C0C JUMP JUMPDEST MLOAD PUSH4 0x334BD919 PUSH1 0xE1 SHL DUP2 MSTORE DUP4 SWAP1 REVERT JUMPDEST POP SWAP1 CALLVALUE PUSH2 0x206 JUMPI PUSH2 0xF3B CALLDATASIZE PUSH2 0x1A0C JUMP JUMPDEST PUSH1 0x0 DUP1 MLOAD PUSH1 0x20 PUSH2 0x20FE DUP4 CODECOPY DUP2 MLOAD SWAP2 MSTORE DUP7 SWAP5 SWAP4 SWAP3 SWAP5 MSTORE PUSH1 0x20 SWAP2 DUP7 DUP4 MSTORE DUP4 DUP8 KECCAK256 CALLER DUP9 MSTORE DUP4 MSTORE PUSH2 0xF6D PUSH1 0xFF DUP6 DUP10 KECCAK256 SLOAD AND PUSH2 0x1C81 JUMP JUMPDEST PUSH2 0xF75 PUSH2 0x1E75 JUMP JUMPDEST PUSH2 0xF7D PUSH2 0x1E57 JUMP JUMPDEST PUSH1 0x1 PUSH1 0x1 PUSH1 0xA0 SHL SUB AND DUP1 DUP8 MSTORE PUSH1 0x5 DUP4 MSTORE DUP4 DUP8 KECCAK256 SLOAD SWAP1 SWAP6 SWAP1 DUP6 GT PUSH2 0x1003 JUMPI POP SWAP2 PUSH1 0x60 DUP5 SWAP3 PUSH2 0xFD3 PUSH1 0x0 DUP1 MLOAD PUSH1 0x20 PUSH2 0x20DE DUP4 CODECOPY DUP2 MLOAD SWAP2 MSTORE SWAP7 PUSH1 0xA0 SWAP7 DUP10 DUP12 MSTORE PUSH1 0x5 DUP5 MSTORE DUP6 DUP12 KECCAK256 PUSH2 0xFCB DUP4 DUP3 SLOAD PUSH2 0x1EEF JUMP JUMPDEST SWAP1 SSTORE DUP10 PUSH2 0x1EFC JUMP JUMPDEST DUP3 MLOAD SWAP4 DUP5 MSTORE DUP4 ADD MSTORE PUSH1 0xB PUSH1 0x60 DUP4 ADD MSTORE PUSH11 0x6C705F7769746864726177 PUSH1 0xA8 SHL PUSH1 0x80 DUP4 ADD MSTORE TIMESTAMP SWAP1 DUP3 ADD MSTORE LOG2 PUSH1 0x1 DUP1 SSTORE DUP1 RETURN JUMPDEST DUP4 MLOAD PUSH3 0x461BCD PUSH1 0xE5 SHL DUP2 MSTORE SWAP1 DUP2 ADD DUP4 SWAP1 MSTORE PUSH1 0x22 PUSH1 0x24 DUP3 ADD MSTORE PUSH32 0x5661756C744D616E616765723A20696E73756666696369656E74204C5020706F PUSH1 0x44 DUP3 ADD MSTORE PUSH2 0x1BDB PUSH1 0xF2 SHL PUSH1 0x64 DUP3 ADD MSTORE PUSH1 0x84 SWAP1 REVERT JUMPDEST POP CALLVALUE PUSH2 0x206 JUMPI PUSH1 0xA0 CALLDATASIZE PUSH1 0x3 NOT ADD SLT PUSH2 0x206 JUMPI PUSH2 0x106B PUSH2 0x197C JUMP JUMPDEST PUSH2 0x1073 PUSH2 0x1997 JUMP JUMPDEST SWAP3 DUP5 PUSH1 0x44 CALLDATALOAD SWAP5 PUSH1 0x1 DUP1 PUSH1 0xA0 SHL SUB SWAP5 DUP6 DUP8 AND DUP1 SWAP8 SUB PUSH2 0x206 JUMPI PUSH1 0x64 CALLDATALOAD PUSH1 0x84 CALLDATALOAD SWAP5 PUSH8 0xFFFFFFFFFFFFFFFF DUP7 GT PUSH2 0x117F JUMPI DUP8 DUP10 SWAP5 PUSH2 0x1137 DUP5 DUP5 PUSH2 0x10DA PUSH2 0x1175 SWAP9 PUSH32 0x31EB66ACEA2A2E9363E745354476882560841A43C057F7F2E75E63470CA557AF SWAP13 CALLDATASIZE SWAP2 ADD PUSH2 0x19DE JUMP JUMPDEST SWAP11 SWAP1 SWAP10 PUSH1 0x0 DUP1 MLOAD PUSH1 0x20 PUSH2 0x20FE DUP4 CODECOPY DUP2 MLOAD SWAP2 MSTORE DUP3 MSTORE PUSH1 0x20 SWAP15 DUP16 SWAP15 DUP16 DUP5 DUP2 MSTORE DUP6 DUP6 KECCAK256 SWAP1 CALLER DUP7 MSTORE MSTORE PUSH2 0x110E PUSH1 0xFF DUP7 DUP7 KECCAK256 SLOAD AND PUSH2 0x1C81 JUMP JUMPDEST PUSH2 0x1116 PUSH2 0x1E75 JUMP JUMPDEST PUSH2 0x111E PUSH2 0x1E57 JUMP JUMPDEST AND SWAP14 DUP15 DUP4 MSTORE PUSH1 0x8 DUP2 MSTORE DUP4 DUP4 KECCAK256 SWAP2 DUP4 MSTORE MSTORE KECCAK256 SLOAD LT ISZERO PUSH2 0x1E98 JUMP JUMPDEST DUP9 DUP13 MSTORE PUSH1 0x8 DUP11 MSTORE DUP3 DUP13 KECCAK256 DUP12 DUP14 MSTORE DUP11 MSTORE DUP3 DUP13 KECCAK256 PUSH2 0x1154 DUP6 DUP3 SLOAD PUSH2 0x1EEF JUMP JUMPDEST SWAP1 SSTORE AND SWAP8 DUP9 DUP12 MSTORE PUSH1 0x8 DUP2 MSTORE DUP2 DUP12 KECCAK256 SWAP1 DUP11 DUP13 MSTORE MSTORE DUP1 DUP11 KECCAK256 PUSH2 0x2EA DUP4 DUP3 SLOAD PUSH2 0x1D39 JUMP JUMPDEST SUB SWAP1 LOG4 PUSH1 0x1 DUP1 SSTORE DUP1 RETURN JUMPDEST DUP5 DUP1 REVERT JUMPDEST POP SWAP1 CALLVALUE PUSH2 0x206 JUMPI DUP1 PUSH1 0x3 NOT CALLDATASIZE ADD SLT PUSH2 0x206 JUMPI PUSH2 0x420 SWAP2 CALLDATALOAD PUSH2 0x11A7 PUSH1 0x1 PUSH2 0x40A PUSH2 0x1997 JUMP JUMPDEST PUSH2 0x1B93 JUMP JUMPDEST POP POP CALLVALUE PUSH2 0x3E2 JUMPI PUSH1 0x20 CALLDATASIZE PUSH1 0x3 NOT ADD SLT PUSH2 0x3E2 JUMPI PUSH2 0x420 SWAP1 PUSH2 0x11F7 PUSH1 0x1 PUSH2 0x11D0 PUSH2 0x197C JUMP JUMPDEST SWAP3 PUSH2 0x11D9 PUSH2 0x1A75 JUMP JUMPDEST PUSH1 0x0 DUP1 MLOAD PUSH1 0x20 PUSH2 0x20FE DUP4 CODECOPY DUP2 MLOAD SWAP2 MSTORE DUP7 MSTORE DUP6 PUSH1 0x20 MSTORE DUP6 KECCAK256 ADD SLOAD PUSH2 0x1ACD JUMP JUMPDEST PUSH2 0x1AF3 JUMP JUMPDEST POP CALLVALUE PUSH2 0x206 JUMPI PUSH1 0x20 CALLDATASIZE PUSH1 0x3 NOT ADD SLT PUSH2 0x206 JUMPI DUP2 PUSH1 0x20 SWAP4 PUSH1 0x1 SWAP3 CALLDATALOAD DUP2 MSTORE DUP1 DUP6 MSTORE KECCAK256 ADD SLOAD SWAP1 MLOAD SWAP1 DUP2 MSTORE RETURN JUMPDEST POP SWAP1 CALLVALUE PUSH2 0x206 JUMPI PUSH1 0x60 CALLDATASIZE PUSH1 0x3 NOT ADD SLT PUSH2 0x206 JUMPI PUSH2 0x1240 PUSH2 0x197C JUMP JUMPDEST SWAP1 PUSH1 0x24 CALLDATALOAD SWAP3 PUSH8 0xFFFFFFFFFFFFFFFF SWAP4 DUP5 DUP2 GT PUSH2 0x140A JUMPI PUSH2 0x1263 SWAP1 CALLDATASIZE SWAP1 DUP4 ADD PUSH2 0x19AD JUMP JUMPDEST SWAP5 PUSH1 0x44 CALLDATALOAD SWAP1 DUP2 GT PUSH2 0x1406 JUMPI PUSH2 0x127B SWAP1 CALLDATASIZE SWAP1 DUP5 ADD PUSH2 0x19AD JUMP JUMPDEST PUSH1 0x0 DUP1 MLOAD PUSH1 0x20 PUSH2 0x20FE DUP4 CODECOPY DUP2 MLOAD SWAP2 MSTORE DUP9 SWAP7 SWAP3 SWAP7 MSTORE PUSH1 0x20 SWAP4 DUP9 DUP6 MSTORE DUP6 DUP10 KECCAK256 CALLER DUP11 MSTORE DUP6 MSTORE PUSH2 0x12AC PUSH1 0xFF DUP8 DUP12 KECCAK256 SLOAD AND PUSH2 0x1C81 JUMP JUMPDEST PUSH2 0x12B4 PUSH2 0x1E75 JUMP JUMPDEST PUSH2 0x12BC PUSH2 0x1E57 JUMP JUMPDEST DUP2 DUP9 SUB PUSH2 0x13C3 JUMPI POP DUP8 SWAP6 DUP9 JUMPDEST DUP3 DUP2 LT PUSH2 0x139E JUMPI POP PUSH1 0x1 DUP1 PUSH1 0xA0 SHL SUB DUP1 SWAP4 AND SWAP8 DUP9 DUP11 MSTORE PUSH1 0x7 DUP7 MSTORE PUSH2 0x12F1 DUP9 DUP9 DUP13 KECCAK256 SLOAD LT ISZERO PUSH2 0x204B JUMP JUMPDEST DUP9 DUP11 MSTORE PUSH1 0x7 DUP7 MSTORE DUP7 DUP11 KECCAK256 PUSH2 0x1306 DUP10 DUP3 SLOAD PUSH2 0x1EEF JUMP JUMPDEST SWAP1 SSTORE DUP10 JUMPDEST DUP2 DUP2 LT PUSH2 0x1360 JUMPI DUP11 DUP11 PUSH1 0x0 DUP1 MLOAD PUSH1 0x20 PUSH2 0x20DE DUP4 CODECOPY DUP2 MLOAD SWAP2 MSTORE PUSH1 0xA0 DUP13 DUP13 PUSH1 0x60 DUP14 DUP3 MLOAD SWAP4 DUP5 MSTORE DUP4 ADD MSTORE PUSH1 0x12 PUSH1 0x60 DUP4 ADD MSTORE PUSH18 0xDCDEC8CABEE4CAEEC2E4C8E6BEC4C2E8C6D PUSH1 0x73 SHL PUSH1 0x80 DUP4 ADD MSTORE TIMESTAMP SWAP1 DUP3 ADD MSTORE LOG2 PUSH1 0x1 DUP1 SSTORE DUP1 RETURN JUMPDEST PUSH2 0x136B DUP2 DUP4 DUP9 PUSH2 0x20B7 JUMP JUMPDEST CALLDATALOAD SWAP1 DUP6 DUP3 AND DUP3 SUB PUSH2 0x139A JUMPI PUSH2 0x1390 PUSH2 0x1395 SWAP3 PUSH2 0x1388 DUP4 DUP9 DUP9 PUSH2 0x20B7 JUMP JUMPDEST CALLDATALOAD SWAP1 DUP14 PUSH2 0x1EFC JUMP JUMPDEST PUSH2 0x20A8 JUMP JUMPDEST PUSH2 0x130A JUMP JUMPDEST DUP12 DUP1 REVERT JUMPDEST SWAP7 PUSH2 0x13B8 PUSH2 0x13BE SWAP2 PUSH2 0x13B1 DUP11 DUP7 DUP7 PUSH2 0x20B7 JUMP JUMPDEST CALLDATALOAD SWAP1 PUSH2 0x1D39 JUMP JUMPDEST SWAP8 PUSH2 0x20A8 JUMP JUMPDEST PUSH2 0x12C8 JUMP JUMPDEST DUP6 MLOAD PUSH3 0x461BCD PUSH1 0xE5 SHL DUP2 MSTORE SWAP1 DUP2 ADD DUP6 SWAP1 MSTORE PUSH1 0x1D PUSH1 0x24 DUP3 ADD MSTORE PUSH32 0x5661756C744D616E616765723A206C656E677468206D69736D61746368000000 PUSH1 0x44 DUP3 ADD MSTORE PUSH1 0x64 SWAP1 REVERT JUMPDEST DUP7 DUP1 REVERT JUMPDEST DUP6 DUP1 REVERT JUMPDEST DUP4 CALLVALUE PUSH2 0x1458 JUMPI PUSH1 0x20 CALLDATASIZE PUSH1 0x3 NOT ADD SLT PUSH2 0x1458 JUMPI PUSH2 0x1428 PUSH2 0x197C JUMP JUMPDEST PUSH2 0x1430 PUSH2 0x1A75 JUMP JUMPDEST PUSH1 0x2 DUP1 SLOAD PUSH2 0x100 PUSH1 0x1 PUSH1 0xA8 SHL SUB NOT AND PUSH1 0x8 SWAP3 SWAP1 SWAP3 SHL PUSH2 0x100 PUSH1 0x1 PUSH1 0xA8 SHL SUB AND SWAP2 SWAP1 SWAP2 OR SWAP1 SSTORE DUP1 RETURN JUMPDEST DUP1 REVERT JUMPDEST POP POP CALLVALUE PUSH2 0x3E2 JUMPI PUSH1 0x20 CALLDATASIZE PUSH1 0x3 NOT ADD SLT PUSH2 0x3E2 JUMPI PUSH1 0x20 SWAP2 DUP2 SWAP1 PUSH1 0x1 PUSH1 0x1 PUSH1 0xA0 SHL SUB PUSH2 0x1483 PUSH2 0x197C JUMP JUMPDEST AND DUP2 MSTORE PUSH1 0x6 DUP5 MSTORE KECCAK256 SLOAD SWAP1 MLOAD SWAP1 DUP2 MSTORE RETURN JUMPDEST POP SWAP1 CALLVALUE PUSH2 0x206 JUMPI DUP1 PUSH1 0x3 NOT CALLDATASIZE ADD SLT PUSH2 0x206 JUMPI PUSH2 0x14AD PUSH2 0x197C JUMP JUMPDEST SWAP1 PUSH1 0x24 CALLDATALOAD SWAP2 PUSH1 0x0 DUP1 MLOAD PUSH1 0x20 PUSH2 0x20FE DUP4 CODECOPY DUP2 MLOAD SWAP2 MSTORE DUP6 MSTORE PUSH1 0x20 SWAP1 DUP6 DUP3 MSTORE DUP3 DUP7 KECCAK256 CALLER DUP8 MSTORE DUP3 MSTORE PUSH2 0x14E0 PUSH1 0xFF DUP5 DUP9 KECCAK256 SLOAD AND PUSH2 0x1C81 JUMP JUMPDEST PUSH2 0x14E8 PUSH2 0x1E75 JUMP JUMPDEST PUSH2 0x14F0 PUSH2 0x1E57 JUMP JUMPDEST PUSH1 0x1 PUSH1 0x1 PUSH1 0xA0 SHL SUB DUP2 DUP2 AND ISZERO PUSH2 0x168C JUMPI PUSH2 0x150B DUP6 ISZERO ISZERO PUSH2 0x1CD9 JUMP JUMPDEST DUP6 DUP4 DUP3 PUSH1 0x2 SLOAD PUSH1 0x8 SHR AND DUP7 MLOAD SWAP3 DUP4 DUP1 SWAP3 PUSH4 0x20F2E747 PUSH1 0xE1 SHL DUP3 MSTORE GAS STATICCALL SWAP1 DUP2 ISZERO PUSH2 0x1682 JUMPI SWAP1 DUP3 SWAP2 DUP10 SWAP2 PUSH2 0x1644 JUMPI JUMPDEST POP AND ISZERO PUSH2 0x162A JUMPI PUSH20 0x9F2140319726F9B851073A303415F13EC0CDA269 JUMPDEST AND SWAP5 DUP6 DUP8 MSTORE DUP1 DUP4 MSTORE DUP5 DUP5 DUP9 KECCAK256 SLOAD LT PUSH2 0x15CD JUMPI DUP5 SWAP3 PUSH2 0x1596 PUSH1 0x0 DUP1 MLOAD PUSH1 0x20 PUSH2 0x20DE DUP4 CODECOPY DUP2 MLOAD SWAP2 MSTORE SWAP7 PUSH1 0xA0 SWAP7 SWAP5 PUSH1 0x60 SWAP5 DUP11 DUP13 MSTORE DUP5 MSTORE DUP6 DUP12 KECCAK256 PUSH2 0xFCB DUP4 DUP3 SLOAD PUSH2 0x1EEF JUMP JUMPDEST DUP3 MLOAD SWAP4 DUP5 MSTORE DUP4 ADD MSTORE PUSH1 0x12 PUSH1 0x60 DUP4 ADD MSTORE PUSH18 0x185C989A5D1C985D1A5BDB97DC995DD85C99 PUSH1 0x72 SHL PUSH1 0x80 DUP4 ADD MSTORE TIMESTAMP SWAP1 DUP3 ADD MSTORE LOG2 PUSH1 0x1 DUP1 SSTORE DUP1 RETURN JUMPDEST DUP4 MLOAD PUSH3 0x461BCD PUSH1 0xE5 SHL DUP2 MSTORE SWAP1 DUP2 ADD DUP4 SWAP1 MSTORE PUSH1 0x31 PUSH1 0x24 DUP3 ADD MSTORE PUSH32 0x5661756C744D616E616765723A20696E73756666696369656E742070726F6669 PUSH1 0x44 DUP3 ADD MSTORE PUSH17 0x1D081C1BDBDB08199BDC881C995DD85C99 PUSH1 0x7A SHL PUSH1 0x64 DUP3 ADD MSTORE PUSH1 0x84 SWAP1 REVERT JUMPDEST PUSH20 0x55D398326F99059FF775485246999027B3197955 PUSH2 0x1555 JUMP JUMPDEST DUP1 SWAP3 POP DUP6 DUP1 SWAP3 POP RETURNDATASIZE DUP4 GT PUSH2 0x167B JUMPI JUMPDEST PUSH2 0x165D DUP2 DUP4 PUSH2 0x1D5C JUMP JUMPDEST DUP2 ADD SUB SLT PUSH2 0x1677 JUMPI MLOAD DUP2 DUP2 AND DUP2 SUB PUSH2 0x1677 JUMPI DUP2 SWAP1 CODESIZE PUSH2 0x1538 JUMP JUMPDEST DUP8 DUP1 REVERT JUMPDEST POP RETURNDATASIZE PUSH2 0x1653 JUMP JUMPDEST DUP6 MLOAD RETURNDATASIZE DUP11 DUP3 RETURNDATACOPY RETURNDATASIZE SWAP1 REVERT JUMPDEST DUP4 MLOAD PUSH3 0x461BCD PUSH1 0xE5 SHL DUP2 MSTORE DUP1 DUP8 ADD DUP5 SWAP1 MSTORE PUSH1 0x1F PUSH1 0x24 DUP3 ADD MSTORE PUSH32 0x5661756C744D616E616765723A20696E76616C696420726563697069656E7400 PUSH1 0x44 DUP3 ADD MSTORE PUSH1 0x64 SWAP1 REVERT JUMPDEST POP CALLVALUE PUSH2 0x206 JUMPI DUP2 PUSH1 0x3 NOT CALLDATASIZE ADD SLT PUSH2 0x206 JUMPI PUSH2 0x16E8 PUSH2 0x197C JUMP JUMPDEST SWAP2 PUSH1 0x24 CALLDATALOAD SWAP1 PUSH1 0x0 DUP1 MLOAD PUSH1 0x20 PUSH2 0x20FE DUP4 CODECOPY DUP2 MLOAD SWAP2 MSTORE DUP6 MSTORE PUSH1 0x20 DUP6 DUP2 MSTORE DUP2 DUP7 KECCAK256 CALLER DUP8 MSTORE DUP2 MSTORE PUSH2 0x171A PUSH1 0xFF DUP4 DUP9 KECCAK256 SLOAD AND PUSH2 0x1C81 JUMP JUMPDEST PUSH2 0x1722 PUSH2 0x1E75 JUMP JUMPDEST PUSH2 0x172A PUSH2 0x1E57 JUMP JUMPDEST PUSH1 0x1 DUP1 PUSH1 0xA0 SHL SUB DUP1 SWAP6 AND SWAP5 DUP6 DUP8 MSTORE DUP5 DUP3 MSTORE PUSH2 0x174A DUP5 DUP5 DUP10 KECCAK256 SLOAD LT ISZERO PUSH2 0x1F80 JUMP JUMPDEST DUP6 DUP8 MSTORE DUP5 DUP3 MSTORE DUP3 DUP8 KECCAK256 PUSH2 0x175E DUP6 DUP3 SLOAD PUSH2 0x1EEF JUMP JUMPDEST SWAP1 SSTORE PUSH1 0x2 SLOAD PUSH1 0x8 SHR AND SWAP4 DUP3 MLOAD SWAP1 PUSH4 0x62F5AD63 PUSH1 0xE0 SHL DUP3 MSTORE DUP3 DUP3 DUP3 DUP2 DUP10 GAS STATICCALL DUP1 ISZERO PUSH2 0x18AF JUMPI DUP9 SWAP1 PUSH2 0x18F9 JUMPI JUMPDEST PUSH2 0x179A SWAP3 POP PUSH2 0x2710 SWAP3 DUP4 SWAP2 DUP8 PUSH2 0x1FDB JUMP JUMPDEST DIV SWAP6 DUP5 MLOAD PUSH4 0x3C6EC585 PUSH1 0xE1 SHL DUP2 MSTORE DUP5 DUP2 DUP5 DUP2 DUP6 GAS STATICCALL SWAP1 DUP2 ISZERO PUSH2 0x18EF JUMPI SWAP1 DUP6 SWAP3 SWAP2 DUP12 SWAP2 PUSH2 0x18B9 JUMPI JUMPDEST POP PUSH2 0x17CC SWAP1 DUP9 PUSH2 0x1FDB JUMP JUMPDEST POP DUP6 MLOAD PUSH4 0x1EB4189 PUSH1 0xE7 SHL DUP2 MSTORE SWAP3 DUP4 SWAP2 DUP3 SWAP1 GAS STATICCALL SWAP1 DUP2 ISZERO PUSH2 0x18AF JUMPI DUP9 SWAP2 PUSH2 0x1868 JUMPI JUMPDEST POP SWAP2 PUSH1 0x0 DUP1 MLOAD PUSH1 0x20 PUSH2 0x20DE DUP4 CODECOPY DUP2 MLOAD SWAP2 MSTORE SWAP6 PUSH1 0x60 SWAP3 PUSH2 0x1811 DUP8 SWAP7 SWAP6 PUSH1 0xA0 SWAP9 PUSH2 0x1FDB JUMP JUMPDEST DIV DUP9 DUP11 MSTORE PUSH1 0x5 DUP4 MSTORE PUSH2 0x1827 DUP6 DUP12 KECCAK256 SWAP2 DUP3 SLOAD PUSH2 0x1D39 JUMP JUMPDEST SWAP1 SSTORE DUP8 DUP10 MSTORE PUSH1 0x7 DUP3 MSTORE PUSH2 0x183E DUP5 DUP11 KECCAK256 SWAP2 DUP3 SLOAD PUSH2 0x1D39 JUMP JUMPDEST SWAP1 SSTORE DUP3 MLOAD SWAP4 DUP5 MSTORE DUP4 ADD MSTORE PUSH1 0x3 PUSH1 0x60 DUP4 ADD MSTORE PUSH3 0x185B1B PUSH1 0xEA SHL PUSH1 0x80 DUP4 ADD MSTORE TIMESTAMP SWAP1 DUP3 ADD MSTORE LOG2 PUSH1 0x1 DUP1 SSTORE DUP1 RETURN JUMPDEST SWAP2 SWAP5 SWAP4 SWAP3 DUP1 SWAP2 POP DUP3 DUP2 RETURNDATASIZE DUP4 GT PUSH2 0x18A8 JUMPI JUMPDEST PUSH2 0x1883 DUP2 DUP4 PUSH2 0x1D5C JUMP JUMPDEST DUP2 ADD SUB SLT PUSH2 0x1677 JUMPI SWAP1 MLOAD SWAP3 SWAP4 SWAP2 SWAP3 SWAP1 SWAP2 SWAP1 PUSH1 0x0 DUP1 MLOAD PUSH1 0x20 PUSH2 0x20DE DUP4 CODECOPY DUP2 MLOAD SWAP2 MSTORE PUSH2 0x17EE JUMP JUMPDEST POP RETURNDATASIZE PUSH2 0x1879 JUMP JUMPDEST DUP5 MLOAD RETURNDATASIZE DUP11 DUP3 RETURNDATACOPY RETURNDATASIZE SWAP1 REVERT JUMPDEST DUP4 DUP2 SWAP5 SWAP3 POP RETURNDATASIZE DUP4 GT PUSH2 0x18E8 JUMPI JUMPDEST PUSH2 0x18D0 DUP2 DUP4 PUSH2 0x1D5C JUMP JUMPDEST DUP2 ADD SUB SLT PUSH2 0x18E4 JUMPI PUSH2 0x17CC DUP6 SWAP3 MLOAD SWAP1 PUSH2 0x17C1 JUMP JUMPDEST DUP10 DUP1 REVERT JUMPDEST POP RETURNDATASIZE PUSH2 0x18C6 JUMP JUMPDEST DUP7 MLOAD RETURNDATASIZE DUP13 DUP3 RETURNDATACOPY RETURNDATASIZE SWAP1 REVERT JUMPDEST POP DUP3 DUP3 DUP2 RETURNDATASIZE DUP4 GT PUSH2 0x1921 JUMPI JUMPDEST PUSH2 0x190F DUP2 DUP4 PUSH2 0x1D5C JUMP JUMPDEST DUP2 ADD SUB SLT PUSH2 0x1677 JUMPI PUSH2 0x179A SWAP2 MLOAD PUSH2 0x1789 JUMP JUMPDEST POP RETURNDATASIZE PUSH2 0x1905 JUMP JUMPDEST SWAP3 POP POP CALLVALUE PUSH2 0x206 JUMPI PUSH1 0x20 CALLDATASIZE PUSH1 0x3 NOT ADD SLT PUSH2 0x206 JUMPI CALLDATALOAD PUSH4 0xFFFFFFFF PUSH1 0xE0 SHL DUP2 AND DUP1 SWAP2 SUB PUSH2 0x206 JUMPI PUSH1 0x20 SWAP3 POP PUSH4 0x7965DB0B PUSH1 0xE0 SHL DUP2 EQ SWAP1 DUP2 ISZERO PUSH2 0x196B JUMPI JUMPDEST POP ISZERO ISZERO DUP2 MSTORE RETURN JUMPDEST PUSH4 0x1FFC9A7 PUSH1 0xE0 SHL EQ SWAP1 POP CODESIZE PUSH2 0x1964 JUMP JUMPDEST PUSH1 0x4 CALLDATALOAD SWAP1 PUSH1 0x1 PUSH1 0x1 PUSH1 0xA0 SHL SUB DUP3 AND DUP3 SUB PUSH2 0x1992 JUMPI JUMP JUMPDEST PUSH1 0x0 DUP1 REVERT JUMPDEST PUSH1 0x24 CALLDATALOAD SWAP1 PUSH1 0x1 PUSH1 0x1 PUSH1 0xA0 SHL SUB DUP3 AND DUP3 SUB PUSH2 0x1992 JUMPI JUMP JUMPDEST SWAP2 DUP2 PUSH1 0x1F DUP5 ADD SLT ISZERO PUSH2 0x1992 JUMPI DUP3 CALLDATALOAD SWAP2 PUSH8 0xFFFFFFFFFFFFFFFF DUP4 GT PUSH2 0x1992 JUMPI PUSH1 0x20 DUP1 DUP6 ADD SWAP5 DUP5 PUSH1 0x5 SHL ADD ADD GT PUSH2 0x1992 JUMPI JUMP JUMPDEST SWAP2 DUP2 PUSH1 0x1F DUP5 ADD SLT ISZERO PUSH2 0x1992 JUMPI DUP3 CALLDATALOAD SWAP2 PUSH8 0xFFFFFFFFFFFFFFFF DUP4 GT PUSH2 0x1992 JUMPI PUSH1 0x20 DUP4 DUP2 DUP7 ADD SWAP6 ADD ADD GT PUSH2 0x1992 JUMPI JUMP JUMPDEST PUSH1 0x60 SWAP1 PUSH1 0x3 NOT ADD SLT PUSH2 0x1992 JUMPI PUSH1 0x1 PUSH1 0x1 PUSH1 0xA0 SHL SUB PUSH1 0x4 CALLDATALOAD DUP2 DUP2 AND DUP2 SUB PUSH2 0x1992 JUMPI SWAP2 PUSH1 0x24 CALLDATALOAD SWAP2 PUSH1 0x44 CALLDATALOAD SWAP1 DUP2 AND DUP2 SUB PUSH2 0x1992 JUMPI SWAP1 JUMP JUMPDEST PUSH1 0x60 SWAP1 PUSH1 0x3 NOT ADD SLT PUSH2 0x1992 JUMPI PUSH1 0x1 PUSH1 0x1 PUSH1 0xA0 SHL SUB SWAP1 PUSH1 0x4 CALLDATALOAD DUP3 DUP2 AND DUP2 SUB PUSH2 0x1992 JUMPI SWAP2 PUSH1 0x24 CALLDATALOAD SWAP1 DUP2 AND DUP2 SUB PUSH2 0x1992 JUMPI SWAP1 PUSH1 0x44 CALLDATALOAD SWAP1 JUMP JUMPDEST CALLER PUSH1 0x0 SWAP1 DUP2 MSTORE PUSH32 0xAD3228B676F7D3CD4284A5443F17F1962B36E491B30A40B2405849E597BA5FB5 PUSH1 0x20 MSTORE PUSH1 0x40 DUP2 KECCAK256 SLOAD PUSH1 0xFF AND ISZERO PUSH2 0x1AAF JUMPI POP JUMP JUMPDEST PUSH1 0x44 SWAP1 PUSH1 0x40 MLOAD SWAP1 PUSH4 0xE2517D3F PUSH1 0xE0 SHL DUP3 MSTORE CALLER PUSH1 0x4 DUP4 ADD MSTORE PUSH1 0x24 DUP3 ADD MSTORE REVERT JUMPDEST DUP1 PUSH1 0x0 MSTORE PUSH1 0x0 PUSH1 0x20 MSTORE PUSH1 0x40 PUSH1 0x0 KECCAK256 CALLER PUSH1 0x0 MSTORE PUSH1 0x20 MSTORE PUSH1 0xFF PUSH1 0x40 PUSH1 0x0 KECCAK256 SLOAD AND ISZERO PUSH2 0x1AAF JUMPI POP JUMP JUMPDEST PUSH1 0x1 PUSH1 0x1 PUSH1 0xA0 SHL SUB AND PUSH1 0x0 DUP2 DUP2 MSTORE PUSH32 0xAD6010F11D85E6849EC87F5F41F95A2725AAF728916B399656C75CE30B0D2C54 PUSH1 0x20 MSTORE PUSH1 0x40 DUP2 KECCAK256 SLOAD SWAP1 SWAP2 SWAP1 PUSH1 0x0 DUP1 MLOAD PUSH1 0x20 PUSH2 0x20FE DUP4 CODECOPY DUP2 MLOAD SWAP2 MSTORE SWAP1 PUSH1 0xFF AND PUSH2 0x1B8E JUMPI DUP1 DUP4 MSTORE DUP3 PUSH1 0x20 MSTORE PUSH1 0x40 DUP4 KECCAK256 DUP3 DUP5 MSTORE PUSH1 0x20 MSTORE PUSH1 0x40 DUP4 KECCAK256 PUSH1 0x1 PUSH1 0xFF NOT DUP3 SLOAD AND OR SWAP1 SSTORE PUSH32 0x2F8788117E7EFF1D82E926EC794901D17C78024A50270940304540A733656F0D CALLER SWAP4 DUP1 LOG4 PUSH1 0x1 SWAP1 JUMP JUMPDEST POP POP SWAP1 JUMP JUMPDEST SWAP1 PUSH1 0x0 SWAP2 DUP1 DUP4 MSTORE DUP3 PUSH1 0x20 MSTORE PUSH1 0x40 DUP4 KECCAK256 SWAP2 PUSH1 0x1 DUP1 PUSH1 0xA0 SHL SUB AND SWAP2 DUP3 DUP5 MSTORE PUSH1 0x20 MSTORE PUSH1 0xFF PUSH1 0x40 DUP5 KECCAK256 SLOAD AND ISZERO PUSH1 0x0 EQ PUSH2 0x1B8E JUMPI DUP1 DUP4 MSTORE DUP3 PUSH1 0x20 MSTORE PUSH1 0x40 DUP4 KECCAK256 DUP3 DUP5 MSTORE PUSH1 0x20 MSTORE PUSH1 0x40 DUP4 KECCAK256 PUSH1 0x1 PUSH1 0xFF NOT DUP3 SLOAD AND OR SWAP1 SSTORE PUSH32 0x2F8788117E7EFF1D82E926EC794901D17C78024A50270940304540A733656F0D CALLER SWAP4 DUP1 LOG4 PUSH1 0x1 SWAP1 JUMP JUMPDEST SWAP1 PUSH1 0x0 SWAP2 DUP1 DUP4 MSTORE DUP3 PUSH1 0x20 MSTORE PUSH1 0x40 DUP4 KECCAK256 SWAP2 PUSH1 0x1 DUP1 PUSH1 0xA0 SHL SUB AND SWAP2 DUP3 DUP5 MSTORE PUSH1 0x20 MSTORE PUSH1 0xFF PUSH1 0x40 DUP5 KECCAK256 SLOAD AND PUSH1 0x0 EQ PUSH2 0x1B8E JUMPI DUP1 DUP4 MSTORE DUP3 PUSH1 0x20 MSTORE PUSH1 0x40 DUP4 KECCAK256 DUP3 DUP5 MSTORE PUSH1 0x20 MSTORE PUSH1 0x40 DUP4 KECCAK256 PUSH1 0xFF NOT DUP2 SLOAD AND SWAP1 SSTORE PUSH32 0xF6391F5C32D9C69D2A47EA670B442974B53935D1EDC7FD64EB21E047A839171B CALLER SWAP4 DUP1 LOG4 PUSH1 0x1 SWAP1 JUMP JUMPDEST ISZERO PUSH2 0x1C88 JUMPI JUMP JUMPDEST PUSH1 0x40 MLOAD PUSH3 0x461BCD PUSH1 0xE5 SHL DUP2 MSTORE PUSH1 0x20 PUSH1 0x4 DUP3 ADD MSTORE PUSH1 0x24 DUP1 DUP3 ADD MSTORE PUSH32 0x5661756C744D616E616765723A2063616C6C6572206973206E6F74206F706572 PUSH1 0x44 DUP3 ADD MSTORE PUSH4 0x30BA37B9 PUSH1 0xE1 SHL PUSH1 0x64 DUP3 ADD MSTORE PUSH1 0x84 SWAP1 REVERT JUMPDEST ISZERO PUSH2 0x1CE0 JUMPI JUMP JUMPDEST PUSH1 0x40 MLOAD PUSH3 0x461BCD PUSH1 0xE5 SHL DUP2 MSTORE PUSH1 0x20 PUSH1 0x4 DUP3 ADD MSTORE PUSH1 0x2B PUSH1 0x24 DUP3 ADD MSTORE PUSH32 0x5661756C744D616E616765723A20616D6F756E74206D75737420626520677265 PUSH1 0x44 DUP3 ADD MSTORE PUSH11 0x61746572207468616E203 PUSH1 0xAC SHL PUSH1 0x64 DUP3 ADD MSTORE PUSH1 0x84 SWAP1 REVERT JUMPDEST SWAP2 SWAP1 DUP3 ADD DUP1 SWAP3 GT PUSH2 0x1D46 JUMPI JUMP JUMPDEST PUSH4 0x4E487B71 PUSH1 0xE0 SHL PUSH1 0x0 MSTORE PUSH1 0x11 PUSH1 0x4 MSTORE PUSH1 0x24 PUSH1 0x0 REVERT JUMPDEST SWAP1 PUSH1 0x1F DUP1 NOT SWAP2 ADD AND DUP2 ADD SWAP1 DUP2 LT PUSH8 0xFFFFFFFFFFFFFFFF DUP3 GT OR PUSH2 0x1D7E JUMPI PUSH1 0x40 MSTORE JUMP JUMPDEST PUSH4 0x4E487B71 PUSH1 0xE0 SHL PUSH1 0x0 MSTORE PUSH1 0x41 PUSH1 0x4 MSTORE PUSH1 0x24 PUSH1 0x0 REVERT JUMPDEST PUSH1 0x40 MLOAD PUSH4 0x23B872DD PUSH1 0xE0 SHL PUSH1 0x20 DUP3 ADD MSTORE PUSH1 0x1 PUSH1 0x1 PUSH1 0xA0 SHL SUB SWAP3 DUP4 AND PUSH1 0x24 DUP3 ADD MSTORE SWAP3 SWAP1 SWAP2 AND PUSH1 0x44 DUP4 ADD MSTORE PUSH1 0x64 DUP1 DUP4 ADD SWAP4 SWAP1 SWAP4 MSTORE SWAP2 DUP2 MSTORE PUSH1 0xA0 DUP2 ADD SWAP2 DUP2 DUP4 LT PUSH8 0xFFFFFFFFFFFFFFFF DUP5 GT OR PUSH2 0x1D7E JUMPI PUSH2 0x1DED SWAP3 PUSH1 0x40 MSTORE PUSH2 0x1DEF JUMP JUMPDEST JUMP JUMPDEST SWAP1 PUSH1 0x0 PUSH1 0x20 SWAP2 DUP3 DUP2 MLOAD SWAP2 ADD DUP3 DUP6 GAS CALL ISZERO PUSH2 0x1E4B JUMPI PUSH1 0x0 MLOAD RETURNDATASIZE PUSH2 0x1E42 JUMPI POP PUSH1 0x1 PUSH1 0x1 PUSH1 0xA0 SHL SUB DUP2 AND EXTCODESIZE ISZERO JUMPDEST PUSH2 0x1E20 JUMPI POP JUMP JUMPDEST PUSH1 0x40 MLOAD PUSH4 0x5274AFE7 PUSH1 0xE0 SHL DUP2 MSTORE PUSH1 0x1 PUSH1 0x1 PUSH1 0xA0 SHL SUB SWAP1 SWAP2 AND PUSH1 0x4 DUP3 ADD MSTORE PUSH1 0x24 SWAP1 REVERT JUMPDEST PUSH1 0x1 EQ ISZERO PUSH2 0x1E19 JUMP JUMPDEST PUSH1 0x40 MLOAD RETURNDATASIZE PUSH1 0x0 DUP3 RETURNDATACOPY RETURNDATASIZE SWAP1 REVERT JUMPDEST PUSH1 0xFF PUSH1 0x2 SLOAD AND PUSH2 0x1E63 JUMPI JUMP JUMPDEST PUSH1 0x40 MLOAD PUSH4 0xD93C0665 PUSH1 0xE0 SHL DUP2 MSTORE PUSH1 0x4 SWAP1 REVERT JUMPDEST PUSH1 0x2 PUSH1 0x1 SLOAD EQ PUSH2 0x1E86 JUMPI PUSH1 0x2 PUSH1 0x1 SSTORE JUMP JUMPDEST PUSH1 0x40 MLOAD PUSH4 0x3EE5AEB5 PUSH1 0xE0 SHL DUP2 MSTORE PUSH1 0x4 SWAP1 REVERT JUMPDEST ISZERO PUSH2 0x1E9F JUMPI JUMP JUMPDEST PUSH1 0x40 MLOAD PUSH3 0x461BCD PUSH1 0xE5 SHL DUP2 MSTORE PUSH1 0x20 PUSH1 0x4 DUP3 ADD MSTORE PUSH1 0x22 PUSH1 0x24 DUP3 ADD MSTORE PUSH32 0x5661756C744D616E616765723A20696E73756666696369656E742062616C616E PUSH1 0x44 DUP3 ADD MSTORE PUSH2 0x6365 PUSH1 0xF0 SHL PUSH1 0x64 DUP3 ADD MSTORE PUSH1 0x84 SWAP1 REVERT JUMPDEST SWAP2 SWAP1 DUP3 SUB SWAP2 DUP3 GT PUSH2 0x1D46 JUMPI JUMP JUMPDEST PUSH1 0x40 MLOAD PUSH4 0xA9059CBB PUSH1 0xE0 SHL PUSH1 0x20 DUP3 ADD MSTORE PUSH1 0x1 PUSH1 0x1 PUSH1 0xA0 SHL SUB SWAP1 SWAP3 AND PUSH1 0x24 DUP4 ADD MSTORE PUSH1 0x44 DUP1 DUP4 ADD SWAP4 SWAP1 SWAP4 MSTORE SWAP2 DUP2 MSTORE PUSH1 0x80 DUP2 ADD SWAP2 PUSH8 0xFFFFFFFFFFFFFFFF DUP4 GT DUP3 DUP5 LT OR PUSH2 0x1D7E JUMPI PUSH2 0x1DED SWAP3 PUSH1 0x40 MSTORE PUSH2 0x1DEF JUMP JUMPDEST SWAP5 SWAP4 SWAP3 DUP1 PUSH1 0x40 SWAP4 PUSH1 0x80 SWAP4 DUP9 MSTORE PUSH1 0x60 PUSH1 0x20 DUP10 ADD MSTORE DUP2 PUSH1 0x60 DUP10 ADD MSTORE DUP4 DUP9 ADD CALLDATACOPY PUSH1 0x0 DUP3 DUP3 DUP9 ADD ADD MSTORE PUSH1 0x1F DUP1 NOT SWAP2 ADD AND DUP6 ADD ADD SWAP4 ADD MSTORE JUMP JUMPDEST ISZERO PUSH2 0x1F87 JUMPI JUMP JUMPDEST PUSH1 0x40 MLOAD PUSH3 0x461BCD PUSH1 0xE5 SHL DUP2 MSTORE PUSH1 0x20 PUSH1 0x4 DUP3 ADD MSTORE PUSH1 0x26 PUSH1 0x24 DUP3 ADD MSTORE PUSH32 0x5661756C744D616E616765723A20696E73756666696369656E742070726F6669 PUSH1 0x44 DUP3 ADD MSTORE PUSH6 0x1D081C1BDBDB PUSH1 0xD2 SHL PUSH1 0x64 DUP3 ADD MSTORE PUSH1 0x84 SWAP1 REVERT JUMPDEST DUP2 DUP2 MUL SWAP3 SWAP2 DUP2 ISZERO SWAP2 DUP5 DIV EQ OR ISZERO PUSH2 0x1D46 JUMPI JUMP JUMPDEST ISZERO PUSH2 0x1FF5 JUMPI JUMP JUMPDEST PUSH1 0x40 MLOAD PUSH3 0x461BCD PUSH1 0xE5 SHL DUP2 MSTORE PUSH1 0x20 PUSH1 0x4 DUP3 ADD MSTORE PUSH1 0x28 PUSH1 0x24 DUP3 ADD MSTORE PUSH32 0x5661756C744D616E616765723A20696E73756666696369656E7420696E746572 PUSH1 0x44 DUP3 ADD MSTORE PUSH8 0x1858DD081C1BDBDB PUSH1 0xC2 SHL PUSH1 0x64 DUP3 ADD MSTORE PUSH1 0x84 SWAP1 REVERT JUMPDEST ISZERO PUSH2 0x2052 JUMPI JUMP JUMPDEST PUSH1 0x40 MLOAD PUSH3 0x461BCD PUSH1 0xE5 SHL DUP2 MSTORE PUSH1 0x20 PUSH1 0x4 DUP3 ADD MSTORE PUSH1 0x28 PUSH1 0x24 DUP3 ADD MSTORE PUSH32 0x5661756C744D616E616765723A20696E73756666696369656E7420646F6E6174 PUSH1 0x44 DUP3 ADD MSTORE PUSH8 0x1A5BDB881C1BDBDB PUSH1 0xC2 SHL PUSH1 0x64 DUP3 ADD MSTORE PUSH1 0x84 SWAP1 REVERT JUMPDEST PUSH1 0x0 NOT DUP2 EQ PUSH2 0x1D46 JUMPI PUSH1 0x1 ADD SWAP1 JUMP JUMPDEST SWAP2 SWAP1 DUP2 LT ISZERO PUSH2 0x20C7 JUMPI PUSH1 0x5 SHL ADD SWAP1 JUMP JUMPDEST PUSH4 0x4E487B71 PUSH1 0xE0 SHL PUSH1 0x0 MSTORE PUSH1 0x32 PUSH1 0x4 MSTORE PUSH1 0x24 PUSH1 0x0 REVERT INVALID 0x1F JUMPI SWAP5 0xA9 PUSH27 0x8FD0F5605D102F892A8A78D86771F26E26716D26E376F3F4A3D613 PUSH10 0x6E87880CF63DCA8F080E PUSH27 0x26952044D39AFBD9CB8AB3582BD4B29E6071B29A2646970667358 0x22 SLT KECCAK256 0xC1 0xA7 0xD8 DUP2 SWAP10 0xBA PUSH1 0x4D LOG1 PUSH29 0x69740C35416673A8E07D25822BC87C883ED868DA690A64736F6C634300 ADDMOD EQ STOP CALLER 0x2F DUP8 DUP9 GT PUSH31 0x7EFF1D82E926EC794901D17C78024A50270940304540A733656F0D00000000 "},"methodIdentifiers":{"DEFAULT_ADMIN_ROLE()":"a217fddf","VAULT_OPERATOR_ROLE()":"bed62365","adminSetMarginBalance(address,address,uint256)":"58dbf21c","allocateProfitToSubPools(address,uint256,uint256,uint256)":"c3c8f58c","batchDistributeNodeRewards(address,address[],uint256[])":"234c30d7","collectFee(address,address,uint256,string)":"ec185a07","config()":"79502c55","depositMargin(address,address,uint256)":"564a6c98","depositToDonationPool(address,uint256)":"e1ede08f","depositToInteractPool(address,uint256)":"6208edc9","depositToLPPool(address,uint256)":"4a650a2c","distributeProfits(address,uint256)":"08b8bb4b","donationPoolBalance(address)":"d44f97b8","getProfitPoolBalance(address)":"f6faa649","getRoleAdmin(bytes32)":"248a9ca3","getTotalMarginPool(address)":"ad04570d","getUserMarginBalance(address,address)":"a7a62975","grantOperatorRole(address)":"27ac0c58","grantRole(bytes32,address)":"2f2ff15d","hasRole(bytes32,address)":"91d14854","interactPoolBalance(address)":"1de8ae53","lpPoolBalance(address)":"7af4c51b","marginPoolBalance(address)":"c69c75cd","pause()":"8456cb59","paused()":"5c975abb","profitPoolBalance(address)":"3e0e706e","renounceRole(bytes32,address)":"36568abe","revokeRole(bytes32,address)":"d547741f","setConfig(address)":"20e3dbd4","supportsInterface(bytes4)":"01ffc9a7","transferMargin(address,address,address,uint256,string)":"2ff1d458","transferReward(address,uint256)":"15490ebb","transferToFeedProtocol(address,uint256,address)":"77c5b506","unpause()":"3f4ba83a","userMarginBalance(address,address)":"715d5896","withdrawFromDonationPool(address,uint256,address)":"75818bd7","withdrawFromInteractPool(address,uint256,address)":"bdf3e780","withdrawFromLPPool(address,uint256,address)":"31aa128d","withdrawMargin(address,address,uint256)":"d249f54e"}}}}}