{"contracts/core/OptionsCore.sol":{"OptionsCore":{"abi":[{"inputs":[{"internalType":"address","name":"_config","type":"address"},{"internalType":"address","name":"_vaultManager","type":"address"},{"internalType":"address","name":"_usdt","type":"address"},{"internalType":"address","name":"_admin","type":"address"}],"stateMutability":"nonpayable","type":"constructor"},{"inputs":[],"name":"AccessControlBadConfirmation","type":"error"},{"inputs":[{"internalType":"address","name":"account","type":"address"},{"internalType":"bytes32","name":"neededRole","type":"bytes32"}],"name":"AccessControlUnauthorizedAccount","type":"error"},{"inputs":[],"name":"EnforcedPause","type":"error"},{"inputs":[],"name":"ExpectedPause","type":"error"},{"inputs":[],"name":"ReentrancyGuardReentrantCall","type":"error"},{"inputs":[{"internalType":"address","name":"token","type":"address"}],"name":"SafeERC20FailedOperation","type":"error"},{"anonymous":false,"inputs":[{"indexed":true,"internalType":"uint256","name":"orderId","type":"uint256"},{"indexed":true,"internalType":"uint256","name":"arbitrationId","type":"uint256"},{"indexed":false,"internalType":"address","name":"initiator","type":"address"},{"indexed":false,"internalType":"uint256","name":"originalPrice","type":"uint256"},{"indexed":false,"internalType":"uint256","name":"arbitrationPrice","type":"uint256"},{"indexed":false,"internalType":"bool","name":"resultChanged","type":"bool"},{"indexed":false,"internalType":"uint256","name":"initiatorReward","type":"uint256"},{"indexed":false,"internalType":"uint256","name":"timestamp","type":"uint256"}],"name":"ArbitrationResolved","type":"event"},{"anonymous":false,"inputs":[{"indexed":true,"internalType":"uint256","name":"orderId","type":"uint256"},{"indexed":false,"internalType":"uint256","name":"dividendPerShare","type":"uint256"},{"indexed":false,"internalType":"uint256","name":"totalDividend","type":"uint256"},{"indexed":false,"internalType":"uint256","name":"timestamp","type":"uint256"}],"name":"DividendRecorded","type":"event"},{"anonymous":false,"inputs":[{"indexed":true,"internalType":"uint256","name":"orderId","type":"uint256"},{"indexed":true,"internalType":"address","name":"seller","type":"address"},{"indexed":false,"internalType":"uint256","name":"oldAmount","type":"uint256"},{"indexed":false,"internalType":"uint256","name":"newAmount","type":"uint256"},{"indexed":false,"internalType":"string","name":"changeType","type":"string"},{"indexed":false,"internalType":"uint256","name":"timestamp","type":"uint256"}],"name":"MarginChanged","type":"event"},{"anonymous":false,"inputs":[{"indexed":true,"internalType":"uint256","name":"orderId","type":"uint256"},{"indexed":false,"internalType":"string","name":"reason","type":"string"},{"indexed":false,"internalType":"uint256","name":"timestamp","type":"uint256"}],"name":"OrderCancelled","type":"event"},{"anonymous":false,"inputs":[{"indexed":true,"internalType":"uint256","name":"orderId","type":"uint256"},{"indexed":true,"internalType":"address","name":"creator","type":"address"},{"indexed":false,"internalType":"bool","name":"isBuyerOrder","type":"bool"},{"indexed":false,"internalType":"uint256","name":"timestamp","type":"uint256"}],"name":"OrderCreated","type":"event"},{"anonymous":false,"inputs":[{"indexed":true,"internalType":"uint256","name":"orderId","type":"uint256"},{"indexed":false,"internalType":"address","name":"beneficiary","type":"address"},{"indexed":false,"internalType":"uint256","name":"amount","type":"uint256"},{"indexed":false,"internalType":"uint256","name":"timestamp","type":"uint256"}],"name":"OrderLiquidated","type":"event"},{"anonymous":false,"inputs":[{"indexed":true,"internalType":"uint256","name":"orderId","type":"uint256"},{"indexed":true,"internalType":"address","name":"buyer","type":"address"},{"indexed":true,"internalType":"address","name":"seller","type":"address"},{"indexed":false,"internalType":"uint256","name":"timestamp","type":"uint256"}],"name":"OrderMatched","type":"event"},{"anonymous":false,"inputs":[{"indexed":true,"internalType":"uint256","name":"orderId","type":"uint256"},{"indexed":false,"internalType":"uint256","name":"buyerPayout","type":"uint256"},{"indexed":false,"internalType":"uint256","name":"sellerPayout","type":"uint256"},{"indexed":false,"internalType":"uint256","name":"timestamp","type":"uint256"}],"name":"OrderSettled","type":"event"},{"anonymous":false,"inputs":[{"indexed":true,"internalType":"uint256","name":"orderId","type":"uint256"},{"indexed":false,"internalType":"enum OrderStatus","name":"oldStatus","type":"uint8"},{"indexed":false,"internalType":"enum OrderStatus","name":"newStatus","type":"uint8"},{"indexed":false,"internalType":"string","name":"reason","type":"string"},{"indexed":false,"internalType":"uint256","name":"timestamp","type":"uint256"}],"name":"OrderStatusChanged","type":"event"},{"anonymous":false,"inputs":[{"indexed":false,"internalType":"address","name":"account","type":"address"}],"name":"Paused","type":"event"},{"anonymous":false,"inputs":[{"indexed":true,"internalType":"uint256","name":"orderId","type":"uint256"},{"indexed":true,"internalType":"uint256","name":"quoteId","type":"uint256"},{"indexed":true,"internalType":"address","name":"seller","type":"address"},{"indexed":false,"internalType":"uint256","name":"premiumRate","type":"uint256"},{"indexed":false,"internalType":"uint256","name":"timestamp","type":"uint256"}],"name":"QuoteSubmitted","type":"event"},{"anonymous":false,"inputs":[{"indexed":true,"internalType":"bytes32","name":"role","type":"bytes32"},{"indexed":true,"internalType":"bytes32","name":"previousAdminRole","type":"bytes32"},{"indexed":true,"internalType":"bytes32","name":"newAdminRole","type":"bytes32"}],"name":"RoleAdminChanged","type":"event"},{"anonymous":false,"inputs":[{"indexed":true,"internalType":"bytes32","name":"role","type":"bytes32"},{"indexed":true,"internalType":"address","name":"account","type":"address"},{"indexed":true,"internalType":"address","name":"sender","type":"address"}],"name":"RoleGranted","type":"event"},{"anonymous":false,"inputs":[{"indexed":true,"internalType":"bytes32","name":"role","type":"bytes32"},{"indexed":true,"internalType":"address","name":"account","type":"address"},{"indexed":true,"internalType":"address","name":"sender","type":"address"}],"name":"RoleRevoked","type":"event"},{"anonymous":false,"inputs":[{"indexed":false,"internalType":"address","name":"account","type":"address"}],"name":"Unpaused","type":"event"},{"inputs":[],"name":"DEFAULT_ADMIN_ROLE","outputs":[{"internalType":"bytes32","name":"","type":"bytes32"}],"stateMutability":"view","type":"function"},{"inputs":[],"name":"FEED_PROTOCOL_ROLE","outputs":[{"internalType":"bytes32","name":"","type":"bytes32"}],"stateMutability":"view","type":"function"},{"inputs":[{"internalType":"uint256","name":"quoteId","type":"uint256"}],"name":"acceptQuote","outputs":[],"stateMutability":"nonpayable","type":"function"},{"inputs":[{"internalType":"uint256","name":"orderId","type":"uint256"}],"name":"acceptSellerOrder","outputs":[],"stateMutability":"nonpayable","type":"function"},{"inputs":[{"internalType":"uint256","name":"orderId","type":"uint256"},{"internalType":"uint256","name":"amount","type":"uint256"}],"name":"addMargin","outputs":[],"stateMutability":"nonpayable","type":"function"},{"inputs":[{"internalType":"address","name":"","type":"address"},{"internalType":"uint256","name":"","type":"uint256"}],"name":"buyerOrders","outputs":[{"internalType":"uint256","name":"","type":"uint256"}],"stateMutability":"view","type":"function"},{"inputs":[{"internalType":"uint256","name":"orderId","type":"uint256"}],"name":"cancelRFQ","outputs":[],"stateMutability":"nonpayable","type":"function"},{"inputs":[],"name":"config","outputs":[{"internalType":"contract Config","name":"","type":"address"}],"stateMutability":"view","type":"function"},{"inputs":[{"internalType":"string","name":"underlyingName","type":"string"},{"internalType":"string","name":"underlyingCode","type":"string"},{"internalType":"string","name":"market","type":"string"},{"internalType":"string","name":"country","type":"string"},{"internalType":"string","name":"refPrice","type":"string"},{"internalType":"enum Direction","name":"direction","type":"uint8"},{"internalType":"uint256","name":"notionalUSDT","type":"uint256"},{"internalType":"uint256","name":"expiryTimestamp","type":"uint256"},{"internalType":"uint256","name":"maxPremiumRate","type":"uint256"},{"internalType":"uint256","name":"minMarginRate","type":"uint256"},{"internalType":"enum SellerType","name":"acceptedSellerType","type":"uint8"},{"internalType":"address","name":"designatedSeller","type":"address"},{"internalType":"uint256","name":"arbitrationWindow","type":"uint256"},{"internalType":"uint256","name":"marginCallDeadline","type":"uint256"},{"internalType":"bool","name":"dividendAdjustment","type":"bool"},{"internalType":"enum LiquidationRule","name":"liquidationRule","type":"uint8"},{"internalType":"uint8","name":"consecutiveDays","type":"uint8"},{"internalType":"uint8","name":"dailyLimitPercent","type":"uint8"},{"internalType":"enum FeedRule","name":"feedRule","type":"uint8"}],"name":"createBuyerRFQ","outputs":[{"internalType":"uint256","name":"orderId","type":"uint256"}],"stateMutability":"nonpayable","type":"function"},{"inputs":[{"internalType":"string","name":"underlyingName","type":"string"},{"internalType":"string","name":"underlyingCode","type":"string"},{"internalType":"string","name":"market","type":"string"},{"internalType":"string","name":"country","type":"string"},{"internalType":"string","name":"refPrice","type":"string"},{"internalType":"enum Direction","name":"direction","type":"uint8"},{"internalType":"uint256","name":"notionalUSDT","type":"uint256"},{"internalType":"uint256","name":"expiryTimestamp","type":"uint256"},{"internalType":"uint256","name":"premiumRate","type":"uint256"},{"internalType":"uint256","name":"marginAmount","type":"uint256"},{"internalType":"enum LiquidationRule","name":"liquidationRule","type":"uint8"},{"internalType":"uint8","name":"consecutiveDays","type":"uint8"},{"internalType":"uint8","name":"dailyLimitPercent","type":"uint8"},{"internalType":"uint256","name":"arbitrationWindow","type":"uint256"},{"internalType":"bool","name":"dividendAdjustment","type":"bool"},{"internalType":"uint8","name":"exerciseDelay","type":"uint8"},{"internalType":"enum FeedRule","name":"feedRule","type":"uint8"}],"name":"createSellerOrder","outputs":[{"internalType":"uint256","name":"orderId","type":"uint256"}],"stateMutability":"nonpayable","type":"function"},{"inputs":[{"internalType":"uint256","name":"orderId","type":"uint256"}],"name":"earlyExercise","outputs":[],"stateMutability":"nonpayable","type":"function"},{"inputs":[{"internalType":"uint256","name":"orderId","type":"uint256"}],"name":"forceLiquidate","outputs":[],"stateMutability":"nonpayable","type":"function"},{"inputs":[{"internalType":"address","name":"buyer","type":"address"}],"name":"getBuyerOrders","outputs":[{"internalType":"uint256[]","name":"","type":"uint256[]"}],"stateMutability":"view","type":"function"},{"inputs":[{"internalType":"uint256","name":"orderId","type":"uint256"}],"name":"getOrder","outputs":[{"components":[{"internalType":"uint256","name":"orderId","type":"uint256"},{"internalType":"address","name":"buyer","type":"address"},{"internalType":"address","name":"seller","type":"address"},{"internalType":"string","name":"underlyingName","type":"string"},{"internalType":"string","name":"underlyingCode","type":"string"},{"internalType":"string","name":"market","type":"string"},{"internalType":"string","name":"country","type":"string"},{"internalType":"string","name":"refPrice","type":"string"},{"internalType":"enum Direction","name":"direction","type":"uint8"},{"internalType":"uint256","name":"notionalUSDT","type":"uint256"},{"internalType":"uint256","name":"strikePrice","type":"uint256"},{"internalType":"uint256","name":"expiryTimestamp","type":"uint256"},{"internalType":"uint256","name":"premiumRate","type":"uint256"},{"internalType":"uint256","name":"premiumAmount","type":"uint256"},{"internalType":"uint256","name":"initialMargin","type":"uint256"},{"internalType":"uint256","name":"currentMargin","type":"uint256"},{"internalType":"uint256","name":"minMarginRate","type":"uint256"},{"internalType":"enum LiquidationRule","name":"liquidationRule","type":"uint8"},{"internalType":"uint8","name":"consecutiveDays","type":"uint8"},{"internalType":"uint8","name":"dailyLimitPercent","type":"uint8"},{"internalType":"uint8","name":"exerciseDelay","type":"uint8"},{"internalType":"enum SellerType","name":"sellerType","type":"uint8"},{"internalType":"address","name":"designatedSeller","type":"address"},{"internalType":"uint256","name":"arbitrationWindow","type":"uint256"},{"internalType":"uint256","name":"marginCallDeadline","type":"uint256"},{"internalType":"bool","name":"dividendAdjustment","type":"bool"},{"internalType":"enum FeedRule","name":"feedRule","type":"uint8"},{"internalType":"enum OrderStatus","name":"status","type":"uint8"},{"internalType":"uint256","name":"createdAt","type":"uint256"},{"internalType":"uint256","name":"matchedAt","type":"uint256"},{"internalType":"uint256","name":"settledAt","type":"uint256"},{"internalType":"uint256","name":"lastFeedPrice","type":"uint256"},{"internalType":"uint256","name":"dividendAmount","type":"uint256"}],"internalType":"struct Order","name":"","type":"tuple"}],"stateMutability":"view","type":"function"},{"inputs":[{"internalType":"string","name":"country","type":"string"}],"name":"getOrdersByCountry","outputs":[{"internalType":"uint256[]","name":"","type":"uint256[]"}],"stateMutability":"view","type":"function"},{"inputs":[{"internalType":"string","name":"market","type":"string"}],"name":"getOrdersByMarket","outputs":[{"internalType":"uint256[]","name":"","type":"uint256[]"}],"stateMutability":"view","type":"function"},{"inputs":[{"internalType":"uint256","name":"orderId","type":"uint256"}],"name":"getQuotes","outputs":[{"components":[{"internalType":"uint256","name":"quoteId","type":"uint256"},{"internalType":"uint256","name":"orderId","type":"uint256"},{"internalType":"address","name":"seller","type":"address"},{"internalType":"enum SellerType","name":"sellerType","type":"uint8"},{"internalType":"uint256","name":"premiumRate","type":"uint256"},{"internalType":"uint256","name":"premiumAmount","type":"uint256"},{"internalType":"uint256","name":"marginRate","type":"uint256"},{"internalType":"uint256","name":"marginAmount","type":"uint256"},{"internalType":"enum LiquidationRule","name":"liquidationRule","type":"uint8"},{"internalType":"uint8","name":"consecutiveDays","type":"uint8"},{"internalType":"uint8","name":"dailyLimitPercent","type":"uint8"},{"internalType":"uint256","name":"createdAt","type":"uint256"},{"internalType":"uint256","name":"expiresAt","type":"uint256"},{"internalType":"enum QuoteStatus","name":"status","type":"uint8"}],"internalType":"struct Quote[]","name":"","type":"tuple[]"}],"stateMutability":"view","type":"function"},{"inputs":[{"internalType":"bytes32","name":"role","type":"bytes32"}],"name":"getRoleAdmin","outputs":[{"internalType":"bytes32","name":"","type":"bytes32"}],"stateMutability":"view","type":"function"},{"inputs":[{"internalType":"address","name":"seller","type":"address"}],"name":"getSellerOrders","outputs":[{"internalType":"uint256[]","name":"","type":"uint256[]"}],"stateMutability":"view","type":"function"},{"inputs":[{"internalType":"bytes32","name":"role","type":"bytes32"},{"internalType":"address","name":"account","type":"address"}],"name":"grantRole","outputs":[],"stateMutability":"nonpayable","type":"function"},{"inputs":[{"internalType":"bytes32","name":"role","type":"bytes32"},{"internalType":"address","name":"account","type":"address"}],"name":"hasRole","outputs":[{"internalType":"bool","name":"","type":"bool"}],"stateMutability":"view","type":"function"},{"inputs":[{"internalType":"uint256","name":"orderId","type":"uint256"}],"name":"initiateArbitration","outputs":[],"stateMutability":"payable","type":"function"},{"inputs":[],"name":"nextOrderId","outputs":[{"internalType":"uint256","name":"","type":"uint256"}],"stateMutability":"view","type":"function"},{"inputs":[],"name":"nextQuoteId","outputs":[{"internalType":"uint256","name":"","type":"uint256"}],"stateMutability":"view","type":"function"},{"inputs":[{"internalType":"uint256","name":"","type":"uint256"},{"internalType":"uint256","name":"","type":"uint256"}],"name":"orderQuotes","outputs":[{"internalType":"uint256","name":"quoteId","type":"uint256"},{"internalType":"uint256","name":"orderId","type":"uint256"},{"internalType":"address","name":"seller","type":"address"},{"internalType":"enum SellerType","name":"sellerType","type":"uint8"},{"internalType":"uint256","name":"premiumRate","type":"uint256"},{"internalType":"uint256","name":"premiumAmount","type":"uint256"},{"internalType":"uint256","name":"marginRate","type":"uint256"},{"internalType":"uint256","name":"marginAmount","type":"uint256"},{"internalType":"enum LiquidationRule","name":"liquidationRule","type":"uint8"},{"internalType":"uint8","name":"consecutiveDays","type":"uint8"},{"internalType":"uint8","name":"dailyLimitPercent","type":"uint8"},{"internalType":"uint256","name":"createdAt","type":"uint256"},{"internalType":"uint256","name":"expiresAt","type":"uint256"},{"internalType":"enum QuoteStatus","name":"status","type":"uint8"}],"stateMutability":"view","type":"function"},{"inputs":[{"internalType":"uint256","name":"","type":"uint256"}],"name":"orders","outputs":[{"internalType":"uint256","name":"orderId","type":"uint256"},{"internalType":"address","name":"buyer","type":"address"},{"internalType":"address","name":"seller","type":"address"},{"internalType":"string","name":"underlyingName","type":"string"},{"internalType":"string","name":"underlyingCode","type":"string"},{"internalType":"string","name":"market","type":"string"},{"internalType":"string","name":"country","type":"string"},{"internalType":"string","name":"refPrice","type":"string"},{"internalType":"enum Direction","name":"direction","type":"uint8"},{"internalType":"uint256","name":"notionalUSDT","type":"uint256"},{"internalType":"uint256","name":"strikePrice","type":"uint256"},{"internalType":"uint256","name":"expiryTimestamp","type":"uint256"},{"internalType":"uint256","name":"premiumRate","type":"uint256"},{"internalType":"uint256","name":"premiumAmount","type":"uint256"},{"internalType":"uint256","name":"initialMargin","type":"uint256"},{"internalType":"uint256","name":"currentMargin","type":"uint256"},{"internalType":"uint256","name":"minMarginRate","type":"uint256"},{"internalType":"enum LiquidationRule","name":"liquidationRule","type":"uint8"},{"internalType":"uint8","name":"consecutiveDays","type":"uint8"},{"internalType":"uint8","name":"dailyLimitPercent","type":"uint8"},{"internalType":"uint8","name":"exerciseDelay","type":"uint8"},{"internalType":"enum SellerType","name":"sellerType","type":"uint8"},{"internalType":"address","name":"designatedSeller","type":"address"},{"internalType":"uint256","name":"arbitrationWindow","type":"uint256"},{"internalType":"uint256","name":"marginCallDeadline","type":"uint256"},{"internalType":"bool","name":"dividendAdjustment","type":"bool"},{"internalType":"enum FeedRule","name":"feedRule","type":"uint8"},{"internalType":"enum OrderStatus","name":"status","type":"uint8"},{"internalType":"uint256","name":"createdAt","type":"uint256"},{"internalType":"uint256","name":"matchedAt","type":"uint256"},{"internalType":"uint256","name":"settledAt","type":"uint256"},{"internalType":"uint256","name":"lastFeedPrice","type":"uint256"},{"internalType":"uint256","name":"dividendAmount","type":"uint256"}],"stateMutability":"view","type":"function"},{"inputs":[],"name":"pause","outputs":[],"stateMutability":"nonpayable","type":"function"},{"inputs":[],"name":"paused","outputs":[{"internalType":"bool","name":"","type":"bool"}],"stateMutability":"view","type":"function"},{"inputs":[{"internalType":"uint256","name":"orderId","type":"uint256"},{"internalType":"enum FeedType","name":"feedType","type":"uint8"},{"internalType":"uint256","name":"finalPrice","type":"uint256"}],"name":"processFeedCallback","outputs":[],"stateMutability":"nonpayable","type":"function"},{"inputs":[{"internalType":"uint256","name":"orderId","type":"uint256"},{"internalType":"uint256","name":"finalPrice","type":"uint256"}],"name":"processFinalFeedResult","outputs":[],"stateMutability":"nonpayable","type":"function"},{"inputs":[{"internalType":"uint256","name":"orderId","type":"uint256"},{"internalType":"uint256","name":"initialPrice","type":"uint256"}],"name":"processInitialFeedResult","outputs":[],"stateMutability":"nonpayable","type":"function"},{"inputs":[{"internalType":"uint256","name":"","type":"uint256"}],"name":"quotes","outputs":[{"internalType":"uint256","name":"quoteId","type":"uint256"},{"internalType":"uint256","name":"orderId","type":"uint256"},{"internalType":"address","name":"seller","type":"address"},{"internalType":"enum SellerType","name":"sellerType","type":"uint8"},{"internalType":"uint256","name":"premiumRate","type":"uint256"},{"internalType":"uint256","name":"premiumAmount","type":"uint256"},{"internalType":"uint256","name":"marginRate","type":"uint256"},{"internalType":"uint256","name":"marginAmount","type":"uint256"},{"internalType":"enum LiquidationRule","name":"liquidationRule","type":"uint8"},{"internalType":"uint8","name":"consecutiveDays","type":"uint8"},{"internalType":"uint8","name":"dailyLimitPercent","type":"uint8"},{"internalType":"uint256","name":"createdAt","type":"uint256"},{"internalType":"uint256","name":"expiresAt","type":"uint256"},{"internalType":"enum QuoteStatus","name":"status","type":"uint8"}],"stateMutability":"view","type":"function"},{"inputs":[{"internalType":"uint256","name":"orderId","type":"uint256"},{"internalType":"uint256","name":"dividendPerShare","type":"uint256"}],"name":"recordDividend","outputs":[],"stateMutability":"nonpayable","type":"function"},{"inputs":[{"internalType":"bytes32","name":"role","type":"bytes32"},{"internalType":"address","name":"callerConfirmation","type":"address"}],"name":"renounceRole","outputs":[],"stateMutability":"nonpayable","type":"function"},{"inputs":[{"internalType":"uint256","name":"orderId","type":"uint256"},{"internalType":"enum FeedTier","name":"tier","type":"uint8"}],"name":"requestFeed","outputs":[],"stateMutability":"payable","type":"function"},{"inputs":[{"internalType":"uint256","name":"orderId","type":"uint256"},{"internalType":"uint256","name":"arbitrationPrice","type":"uint256"},{"internalType":"address[]","name":"arbitrators","type":"address[]"}],"name":"resolveArbitration","outputs":[],"stateMutability":"nonpayable","type":"function"},{"inputs":[{"internalType":"bytes32","name":"role","type":"bytes32"},{"internalType":"address","name":"account","type":"address"}],"name":"revokeRole","outputs":[],"stateMutability":"nonpayable","type":"function"},{"inputs":[{"internalType":"address","name":"","type":"address"},{"internalType":"uint256","name":"","type":"uint256"}],"name":"sellerOrders","outputs":[{"internalType":"uint256","name":"","type":"uint256"}],"stateMutability":"view","type":"function"},{"inputs":[{"internalType":"address","name":"_config","type":"address"}],"name":"setConfig","outputs":[],"stateMutability":"nonpayable","type":"function"},{"inputs":[{"internalType":"address","name":"_vaultManager","type":"address"}],"name":"setVaultManager","outputs":[],"stateMutability":"nonpayable","type":"function"},{"inputs":[{"internalType":"uint256","name":"orderId","type":"uint256"}],"name":"settle","outputs":[],"stateMutability":"nonpayable","type":"function"},{"inputs":[{"internalType":"uint256","name":"orderId","type":"uint256"},{"internalType":"uint256","name":"premiumRate","type":"uint256"},{"internalType":"uint256","name":"marginRate","type":"uint256"},{"internalType":"enum LiquidationRule","name":"liquidationRule","type":"uint8"},{"internalType":"uint8","name":"consecutiveDays","type":"uint8"},{"internalType":"uint8","name":"dailyLimitPercent","type":"uint8"}],"name":"submitQuote","outputs":[{"internalType":"uint256","name":"quoteId","type":"uint256"}],"stateMutability":"nonpayable","type":"function"},{"inputs":[{"internalType":"bytes4","name":"interfaceId","type":"bytes4"}],"name":"supportsInterface","outputs":[{"internalType":"bool","name":"","type":"bool"}],"stateMutability":"view","type":"function"},{"inputs":[],"name":"unpause","outputs":[],"stateMutability":"nonpayable","type":"function"},{"inputs":[],"name":"usdt","outputs":[{"internalType":"contract IERC20","name":"","type":"address"}],"stateMutability":"view","type":"function"},{"inputs":[],"name":"vaultManager","outputs":[{"internalType":"contract VaultManager","name":"","type":"address"}],"stateMutability":"view","type":"function"},{"inputs":[{"internalType":"uint256","name":"orderId","type":"uint256"},{"internalType":"uint256","name":"amount","type":"uint256"}],"name":"withdrawExcessMargin","outputs":[],"stateMutability":"nonpayable","type":"function"}],"evm":{"bytecode":{"linkReferences":{},"object":"608034620000f557601f62005e9538819003918201601f19168301916001600160401b03831184841017620000fa57808492608094604052833981010312620000f5578062000052620000e49262000110565b90620000616020820162000110565b906200007e6060620000766040840162000110565b920162000110565b6001808055600581905560065560028054610100600160a81b03191660089590951b610100600160a81b031694909417909355600380546001600160a01b03199081166001600160a01b0394851617909155600480549091169190921617905562000125565b50604051615cde9081620001b78239f35b600080fd5b634e487b7160e01b600052604160045260246000fd5b51906001600160a01b0382168203620000f557565b6001600160a01b031660008181527fad3228b676f7d3cd4284a5443f17f1962b36e491b30a40b2405849e597ba5fb5602052604081205490919060ff16620001b257818052816020526040822081835260205260408220600160ff1982541617905533917f2f8788117e7eff1d82e926ec794901d17c78024a50270940304540a733656f0d8180a4600190565b509056fe610260604052600436101561001357600080fd5b6000803560e01c806301d0d5b81461485857806301ffc9a71461480157806320e3dbd4146147b7578063248a9ca31461478b5780632a58b3301461476d5780632f2ff15d146147305780632f48ab7d146147075780633087a88c1461436b5780633280890b1461405857806336568abe146140105780633f4ba83a14613fa557806342dd6d3e14613e515780634500cb6014613e0957806345cb450514613db357806346f8226c14613bdf5780634efef6aa14613bc15780635c975abb14613b9e5780635d7ffe7b146136d257806367ac0bf01461338c5780636af58cff146130fe5780636ca1438914612fd25780636dbe757914612f0a5780637203a5821461294057806377e9bad9146127a357806379502c55146127765780637d900421146126e95780638456cb591461268e5780638a4adf24146126655780638df82800146120f657806391d14854146120ab578063979b4e6d146117df578063a217fddf146117c3578063a45f2ebc14611750578063a61cf0d4146116bd578063a85c38ef14611354578063b543503e1461130f578063bc0ef26b1461114b578063cdc65ab614611110578063cf3fec4314611083578063d049bfef14610e38578063d09ef241146108fd578063d1e745b11461070e578063d41194b814610590578063d547741f1461054f578063e02e34f814610352578063e4cbac40146102cf5763f7ff64261461022357600080fd5b346102cc57610231366150b3565b90825260086020526040822080548210156102c85761025092506153a0565b508054906102c4600182015460028301549260038101549460048201549260058301549160068401549060078501549160088601549460ff600a600989015498015416976040519b8c9b8c60ff8860101c169860ff808a60081c1699169760ff8460a01c169360018060a01b03169261515c565b0390f35b8280fd5b80fd5b50346102cc5760208060031936011261034e576001600160a01b036102f2615087565b168252600b815260408220916040518092808554928381520194835280832092905b828210610337576102c48561032b81890382615282565b604051918291826150f7565b835486529485019460019384019390910190610314565b5080fd5b50346102cc57610361366150b3565b81151580610544575b610373906158ae565b61037b6153bc565b8183526020600781526040842091601483019283549360ff8560101c1694600b8610156105305762040000906103b360028814615b05565b6103be851515615b51565b62ff000019161790556103da670de0b6b3a76400008304615bb8565b805160078301916001600160401b03821161051c57610403826103fd85546151e7565b85615652565b859089601f841160011461049f579383600080516020615c898339815191529997946018946004989460c09b9892610494575b50508160011b916000199060031b1c19161790555b015561045a6040518094615393565b8201526080604082015260166080820152751a5b9a5d1a585b08199959590818dbdb5c1b195d195960521b60a0820152426060820152a280f35b015190503880610436565b50838a52868a209190601f1984168b5b8181106105055750846018946004989460c09b9894600080516020615c898339815191529d9b98600195106104ec575b505050811b01905561044b565b015160001960f88460031b161c191690553880806104df565b9293896001819287860151815501950193016104af565b634e487b7160e01b89526041600452602489fd5b634e487b7160e01b88526021600452602488fd5b50600554821061036a565b50346102cc5760403660031901126102cc5761058c60043561056f61509d565b90808452836020526105876001604086200154615414565b6154b8565b5080f35b50346102cc5761059f366150b3565b9080151580610703575b6105b2906158ae565b808352600760205260408320600201546001600160a01b0392906105d99084163314615a03565b6105e1615806565b6105e96157e8565b80156106b25781845260076020526040842060ff601482015460101c16600b81101561069e57610643916106216004600f9314615a4f565b019161063c8184549680600454169060035416903390615741565b82546158a1565b809155604051928352602083015260806040830152600360808301526218591960ea1b60a08301524260608301527f2cf5022bdd8fefe86d09412967e028fa9a8cf1e1a3989d47dfd9fc64a22afa8660c03393a36001805580f35b634e487b7160e01b86526021600452602486fd5b60405162461bcd60e51b8152602060048201526024808201527f4f7074696f6e73436f72653a20616d6f756e74206d75737420626520706f73696044820152637469766560e01b6064820152608490fd5b5060055481106105a9565b50346102cc5761071d366150b3565b90801515806108f2575b610730906158ae565b808352600760205260408320600201546001600160a01b03906107569082163314615a03565b61075e615806565b6107666157e8565b8184526007602052604084209260ff601485015460101c16600b81101561069e5760046107939114615a4f565b600f8401916107a8600e845496015486615a9b565b821161089357816107ba879387615a9b565b84558160035416916004541690823b1561088457604051636924faa760e11b81523360048201526001600160a01b0392909216602483015260448201529082908290606490829084905af1801561088857610870575b5050546040519283526020830152608060408301526008608083015267776974686472617760c01b60a08301524260608301527f2cf5022bdd8fefe86d09412967e028fa9a8cf1e1a3989d47dfd9fc64a22afa8660c03393a36001805580f35b61087990615221565b610884578338610810565b8380fd5b6040513d84823e3d90fd5b60405162461bcd60e51b815260206004820152603160248201527f4f7074696f6e73436f72653a2063616e6e6f742077697468647261772062656c60448201527037bb9034b734ba34b0b61036b0b933b4b760791b6064820152608490fd5b506005548110610727565b50346102cc5760203660031901126102cc578061040060405161091f81615266565b82815282602082015282604082015260608082015260606080820152606060a0820152606060c0820152606060e08201528261010082015282610120820152826101408201528261016082015282610180820152826101a0820152826101c0820152826101e08201528261020082015282610220820152826102408201528261026082015282610280820152826102a0820152826102c0820152826102e08201528261030082015282610320820152826103408201528261036082015282610380820152826103a0820152826103c0820152826103e08201520152600435815260076020526040812060405191610a1583615266565b8154835260018201546001600160a01b0390811660208501526002830154166040840152610a45600383016152a3565b6060840152610a56600483016152a3565b6080840152610a67600583016152a3565b60a0840152610a78600683016152a3565b60c0840152610a89600783016152a3565b60e084015260ff600883015416610a9f81615389565b6101008401526009820154610120840152600a820154610140840152600b820154610160840152600c820154610180840152600d8201546101a0840152600e8201546101c0840152600f8201546101e084015260108201546102008401526011820154610b0e60ff8216615132565b60ff811661022085015260ff8160081c1661024085015260ff8160101c1661026085015260ff8160181c16610280850152610b4e60ff8260201c16615132565b60ff8160201c166102a085015260018060a01b039060281c166102c084015260128201546102e0840152601382015461030084015260148201549060ff82161515610320850152610ba460ff8360081c16615389565b60ff8260081c16610340850152600b60ff8360101c161015610e2457509060ff60199260101c16610360840152601581015461038084015260168101546103a084015260178101546103c084015260188101546103e084015201546104008201526040518091602082528051602083015260018060a01b03602082015116604083015260018060a01b036040820151166060830152610400610cba610c5a60608401516104206080870152610440860190615349565b610ca4610c90610c7c608087015193601f1994858a83030160a08b0152615349565b60a0870151848983030160c08a0152615349565b60c0860151838883030160e0890152615349565b9060e08501519086830301610100870152615349565b91610100810151610cca81615389565b6101208501526101208101516101408501526101408101516101608501526101608101516101808501526101808101516101a08501526101a08101516101c08501526101c08101516101e08501526101e0810151610200850152610200810151610220850152610220810151610d3f81615132565b61024085015260ff6102408201511661026085015260ff6102608201511661028085015260ff610280820151166102a08501526102a0810151610d8181615132565b6102c085015260018060a01b036102c0820151166102e08501526102e08101516103008501526103008101516103208501526103208101511515610340850152610340810151610dd081615389565b610360850152610dea610360820151610380860190615393565b6103808101516103a08501526103a08101516103c08501526103c08101516103e08501526103e08101518285015201516104208301520390f35b634e487b7160e01b81526021600452602490fd5b50346102cc57602090816003193601126102cc5760043581526008808352604082209283546001600160401b03811161106f5791849192604051916005610e838684831b0185615282565b82845285840191829588528688209188935b858510610f92575050505050506040519280840191818552518092526040840192945b828110610ec55784840385f35b909192826101c06001928851805182528381015184830152848060a01b03604082015116604083015260608082015190610efe82615132565b8301526080808201519083015260a0808201519083015260c0808201519083015260e081015160e08301526101008082015190610f3a82615132565b83015260ff6101208181840151169084015261014090818301511690830152610160808201519083015261018080820151908301526101a08091015190610f8082615152565b82015201960191019492919094610eb8565b600b8960019260409c9b999a9c51610fa98161524a565b8754815284880154838201526002880154858060a01b038116604083015260ff908160a091821c16610fda81615132565b606084015260038a0154608084015260048a0154908301528689015460c0830152600689015460e08301528060078a015481811661101781615132565b61010085015281818b1c1661012085015260101c16610140830152878901546101608301526009890154610180830152600a8901541661105681615152565b6101a08201528152019401940193929896959798610e95565b634e487b7160e01b84526041600452602484fd5b50346102cc5760208060031936011261034e576004356001600160401b0381116102c8576110b68291369060040161504a565b91908260405193849283378101600c815203019020916040518092808554928381520194835280832092905b8282106110f9576102c48561032b81890382615282565b8354865294850194600193840193909101906110e2565b50346102cc57806003193601126102cc5760206040517f04967fd25e7aa667b18955d808f19fd0c86238999ff8be2ebc72cd2cd3a83db08152f35b50346102cc5760208060031936011261034e576004359081151580611304575b611174906158ae565b8183526007815261119560018060a01b036001604086200154163314615829565b61119d615806565b6111a56157e8565b81835260078152601460408420019081549160ff8360101c1692600b84101561069e57831580156112fa575b156112a65791600a91620a0000600080516020615c89833981519152959462ff00001916179055847fb848a62ef7171019d243ed8f5b8e1e6c32cafed0b7fc99da26cb2fc2e7d533ec604051604081528061124c60408201604090600f81526e189d5e595c8818d85b98d95b1b1959608a1b60208201520190565b42868301520390a26112616040518094615393565b820152608060408201528061129660808201604090600f81526e189d5e595c8818d85b98d95b1b1959608a1b60208201520190565b4260608301520390a26001805580f35b60405162461bcd60e51b815260048101849052602660248201527f4f7074696f6e73436f72653a2063616e6e6f742063616e63656c206166746572604482015265040dac2e8c6d60d31b6064820152608490fd5b50600184146111d1565b50600554821061116b565b50346102cc5760203660031901126102cc57611329615087565b6113316153bc565b60018060a01b03166bffffffffffffffffffffffff60a01b600354161760035580f35b50346102cc5760203660031901126102cc576004358152600760205260409020610100819052805460e052600181015460028201546001600160a01b039081166101e05216906113a6906003016152a3565b61016052610100516004016113ba906152a3565b610100516005016113ca906152a3565b91610100516006016113db906152a3565b91610100516007016113ec906152a3565b936101005193600885015460ff166101a052600985015495600a860154600b87015491600c88015493600d89015495600e8a015497600f8b01549960108c01549b601181015461022052601281015461018052601381015461014052601481015460c0526015810154610240526016810154608052601781015460a052601881015461020052601901546101c052604051806101205260e051905261012051602001526101e0516101205160400152610420806101205160600152610120510161016051906114ba91615349565b6101205180820390608001526114cf91615349565b610120518082039060a001526114e491615349565b610120518082039060c001526114f991615349565b610120518082039060e0015261150e91615349565b976101a05161151c90615389565b6101a051610120516101000152610120516101200152610120516101400152610120516101600152610120516101800152610120516101a00152610120516101c00152610120516101e001526101205161020001526102205160ff1661158190615132565b6102205160ff166101205161022001526102205160081c60ff166101205161024001526102205160101c60ff166101205161026001526102205160181c60ff166101205161028001526102205160201c60ff166115dd90615132565b6102205160201c60ff16610120516102a00152600160a01b600190036102205160281c16610120516102c0015261018051610120516102e001526101405161012051610300015260c05160ff16151561012051610320015260c05160081c60ff1661164790615389565b60c05160081c60ff16610120516103400152610120516103600160c05160101c60ff169061167491615393565b61024051610120516103800152608051610120516103a0015260a051610120516103c0015261020051610120516103e001526101c0516101205161040001526101205180910390f35b50346102cc5760203660031901126102cc5760409060043581526009602052208054906102c4600182015460028301549260038101549460048201549260058301549160068401549060078501549160088601549460ff600a600989015498015416976040519b8c9b8c60ff8860101c169860ff808a60081c1699169760ff8460a01c169360018060a01b03169261515c565b50346102cc5760208060031936011261034e576001600160a01b03611773615087565b168252600a815260408220916040518092808554928381520194835280832092905b8282106117ac576102c48561032b81890382615282565b835486529485019460019384019390910190611795565b50346102cc57806003193601126102cc57602090604051908152f35b50346102cc576102603660031901126102cc576004356001600160401b03811161034e5761181190369060040161504a565b6024356001600160401b0381116108845761183090369060040161504a565b906044356001600160401b0381116120a75761185090369060040161504a565b906064356001600160401b0381116120a35761187090369060040161504a565b906084356001600160401b03811161209f5761189090369060040161504a565b999098600260a435101561034e57600361014435101561034e57610164356001600160a01b0381169003612046576118c6615077565b60036101e43510156102c85760ff610204351661020435036120465760ff610224351661022435036120465760026102443510156102c857611906615806565b61190e6157e8565b61191b60c435151561552d565b6119284260e43511615588565b600254604051635d8eb68760e01b81529060081c6001600160a01b0316602082600481845afa91821561209457859261205e575b5061196e6004926101243510156155e2565b81546003546040516337382d3960e21b8152936001600160a01b03928316939290911691602091859182905afa918215612053578692612018575b6119b593503390615741565b600554996119c28b61562d565b6005558a84526007602052604084208b81556001810180546001600160a01b03191633179055926001600160401b038211612004578190611a1382611a0a60038801546151e7565b60038801615652565b8590601f8311600114611f98578692611f8d575b50508160011b916000199060031b1c19161760038301555b6001600160401b038911611e1857611a6789611a5e60048501546151e7565b60048501615652565b8883601f8211600114611f21578491611f16575b508960011b906000198b60031b1c19161760048301555b6001600160401b038711611e1857611aba87611ab160058501546151e7565b60058501615652565b8683601f8211600114611eac578491611ea1575b508760011b906000198960031b1c19161760058301555b6001600160401b038511611e1857611b0d85611b0460068501546151e7565b60068501615652565b8483601f8211600114611e37578491611e2c575b508560011b906000198760031b1c19161760068301555b6001600160401b038c11611e18578b611b6360209d611b5a60078601546151e7565b60078601615652565b839b601f8211600114611d85579a611cdf968e829e97611caf611cf79f859f9e9c978a859f9b9a6040928a8a9f9b611cc79c8a9f978d9892611d7a575b50508160011b916000199060031b1c19161760078301555b611bc760a435600884016156a6565b60c435600983015560e435600b83015561010435600c830155610124356010830155611c8560118301611bfd61014435826156be565b805465010000000000600160c81b0319166101643560281b65010000000000600160c81b03161781556101843560128501556101a435601385015560148401805493151560ff1660ff1994909416939093178355611c5e6101e435826156e3565b805462ff00006102243560101b1662ffff001990911661ff006102043560081b1617179055565b611c9261024435826156ed565b62ff0000198154169055601542910155338152600a86522061570c565b8260405193849283378101600c81520301902061570c565b8260405193849283378101600d81520301902061570c565b8260405193849283378101600e81520301902061570c565b604051600181524283820152817fc0c6ed2669febbe340d8737e8ec17254ffd9e038b54a4585ff70ac3ca18956aa60403393a380600080516020615c8983398151915260c06040516000815260008682015260806040820152600760808201526618dc99585d195960ca1b60a0820152426060820152a260018055604051908152f35b013590503880611ba0565b6007840185528d852090859d8e5b601f19851611611e00578f9a968e9f5097611caf611cf79f9e9d9b968f9a6040908f9a8d9893611cdf9f988b8b968f9a92600193611cc79f601f19811610611de6575b505050811b016007830155611bb8565b0135600019600384901b60f8161c19169055388080611dd6565b918f600181928585013581550193019e019d8e611d93565b634e487b7160e01b83526041600452602483fd5b905084013538611b21565b600684018552602085209150845b601f1988168110611e89575086601f19811610611e6f575b5050600185811b016006830155611b38565b850135600019600388901b60f8161c191690553880611e5d565b9091602060018192858a013581550193019101611e45565b905086013538611ace565b600584018552602085209150845b601f198a168110611efe575088601f19811610611ee4575b5050600187811b016005830155611ae5565b87013560001960038a901b60f8161c191690553880611ed2565b9091602060018192858c013581550193019101611eba565b905088013538611a7b565b600484018552602085209150845b8a601f198d168210611f755750508a601f19811610611f5b575b5050600189811b016004830155611a92565b89013560001960038c901b60f8161c191690553880611f49565b60018394602093948493013581550193019101611f2f565b013590503880611a27565b60038601875260208720879450915b601f1984168510611fec576001945083601f19811610611fd2575b505050811b016003830155611a3f565b0135600019600384901b60f8161c19169055388080611fc2565b81810135835560209485019460019093019201611fa7565b634e487b7160e01b85526041600452602485fd5b91506020833d60201161204b575b8161203360209383615282565b81010312612046576119b59251916119a9565b600080fd5b3d9150612026565b6040513d88823e3d90fd5b91506020823d60201161208c575b8161207960209383615282565b810103126120465790519061196e61195c565b3d915061206c565b6040513d87823e3d90fd5b8980fd5b8780fd5b8580fd5b50346102cc5760403660031901126102cc5760406120c761509d565b91600435815280602052209060018060a01b0316600052602052602060ff604060002054166040519015158152f35b50346102cc5760203660031901126102cc57600435151580612658575b61211c906158ae565b612124615806565b61212c6157e8565b600435815260076020526040812060148101549060ff8260101c16600b811015612644576006036125f35760188101549081156125ae5761216f600782016152a3565b93809481938293835b8351811015612281576001600160f81b0319601760f91b8161219a8488615af4565b51161461227357600360fc1b816121b18488615af4565b511610159081612258575b506121d0575b6121cb9061562d565b612178565b88600a81999897990204600a148915171561224457602f196121f28286615af4565b5160f81c0160ff8111612230578899600a60ff612215939b999a9b1691026158a1565b98156121c257956122286121cb9161562d565b9690506121c2565b634e487b7160e01b86526011600452602486fd5b634e487b7160e01b85526011600452602485fd5b603960f81b91506122698387615af4565b51161115386121bc565b5094506121cb60019561562d565b8483838a8c8b60128110612587575b5060ff8192168061257a575b612556575b50839260ff6008840154166122b581615389565b61252c57818111612501575b50505b8282156124f55750600f810154918281116124ee575b806122e59193615a9b565b915b80612441575b826123b9575b9060ff927f6da40291eeb646b436d05c420b5b9f010d81df95bce846d2c3b3d45f56df19ec61235f612371946014850154946208000062ff0000198716176014820155601742910155604051918291600435954291846040919493926060820195825260208201520152565b0390a260405192839160101c16615393565b600860208201526080604082015260076080820152661cd95d1d1b195960ca1b60a0820152426060820152600080516020615c8983398151915260c060043592a26001805580f35b600354600283015460045486926001600160a01b03908116929181169116823b1561088457604051636924faa760e11b81526001600160a01b03918216600482015291166024820152604481018690529082908290606490829084905af1801561088857612429575b50506122f3565b61243590939293615221565b61088457908385612422565b6003546002830154600184015460045487936001600160a01b039182169382169282169116803b156124ea5784928360e49260405196879586946305fe3a8b60e31b865260048601526024850152604484015288606484015260a06084840152601160a4840152701cd95d1d1b195b595b9d081c185e5bdd5d607a1b60c48401525af18015610888576124d6575b50506122ed565b6124df90615221565b6108845783856124cf565b8480fd5b50816122da565b600f82015492506122e7565b6125249293506125148261251f92615a9b565b60098501549061586e565b615881565b9083806122c1565b80821161253b575b50506122c4565b61254e92935061251461251f9183615a9b565b908380612534565b6019830154908110156125725761256c91615a9b565b846122a1565b50508261256c565b506019830154151561229c565b6012036012811161223057604d811161223057906125a891600a0a9061586e565b85612290565b60405162461bcd60e51b815260206004820152601a60248201527f4f7074696f6e73436f72653a206e6f20666565642070726963650000000000006044820152606490fd5b60405162461bcd60e51b815260206004820152602360248201527f4f7074696f6e73436f72653a206e6f742070656e64696e6720736574746c656d604482015262195b9d60ea1b6064820152608490fd5b634e487b7160e01b84526021600452602484fd5b5060055460043510612113565b50346102cc57806003193601126102cc576003546040516001600160a01b039091168152602090f35b50346102cc57806003193601126102cc576126a76153bc565b6126af6157e8565b600160ff1960025416176002557f62e78cea01bee320cd4e420270b5ea74000d11b0c9f74754ebdbfc544b05a2586020604051338152a180f35b50346102cc5760208060031936011261034e576004356001600160401b0381116102c85761271c8291369060040161504a565b91908260405193849283378101600d815203019020916040518092808554928381520194835280832092905b82821061275f576102c48561032b81890382615282565b835486529485019460019384019390910190612748565b50346102cc57806003193601126102cc5760025460405160089190911c6001600160a01b03168152602090f35b50346102cc576127b2366150b3565b81151580612935575b6127c4906158ae565b6127cc615806565b6127d46157e8565b8280528260205260408320336000526020526127f760ff60406000205416615aa8565b81835260076020526040832090601482015460ff8160101c16600b81101561069e5790612828600460ff9314615a4f565b16156128db5780156128875760197fdd46d8cd4968afb89542d91ba59208e869e45ff03dcda531aa39fd6888a174c392016128648282546158a1565b908190556040805192835260208301919091524290820152606090a26001805580f35b60405162461bcd60e51b815260206004820152602660248201527f4f7074696f6e73436f72653a206469766964656e64206d75737420626520706f60448201526573697469766560d01b6064820152608490fd5b60405162461bcd60e51b815260206004820152602c60248201527f4f7074696f6e73436f72653a206469766964656e642061646a7573746d656e7460448201526b081b9bdd08195b98589b195960a21b6064820152608490fd5b5060055482106127bb565b50346102cc5760c03660031901126102cc57600360643510156102cc5760843560ff811681036120465760a43560ff8116810361204657600435151580612efd575b61298b906158ae565b612993615806565b61299b6157e8565b60043583526007602052604083209060ff601483015460101c16600b811015612c77578015908115612ef2575b5015612e9d5760018201546001600160a01b031615612e58576015820154600254604051634f6bfad760e01b815260089190911c6001600160a01b031691602082600481865afa908115612e4d578791612e17575b612a2792506158a1565b421015612dd257600490813586526008602052602060408720549160405193848092630be0cbcd60e21b82525afa918215612053578692612d9e575b501015612d59576011820154600260ff8260201c16612a8181615132565b14612cf1575b50612710612a9b604435600985015461586e565b04612aae601084015460443510156155e2565b600454600354612ace9183916001600160a01b0390811691339116615741565b60065493612adb8561562d565b600655612710612af1602435600987015461586e565b04926004602060018060a01b0360025460081c16604051928380926306a15d6d60e11b82525afa908115612ce6578891612cb3575b5060ff92612b358492426158a1565b9460405196612b438861524a565b89885260043560208901523360408901528a6060890152602435608089015260a088015260443560c088015260e0870152612b7f606435615132565b606435610100870152166101208501521661014083015242610160830152610180820152836101a08201528284526009602052612bbf81604086206158fa565b6004358452600860205260408420805490600160401b821015612c9f5790612bec916001820181556153a0565b612c8b5790612bfa916158fa565b601481015460ff8160101c16600b811015612c77576020945015612c5f575b5050604051602435815242838201528133917f878fe3f9bca373e42473c1f3ad3c9c35c4f1ecaf9a5f081a801a3fbd43049f55604060043592a460018055604051908152f35b6201000060149162ff00001916179101553880612c19565b634e487b7160e01b85526021600452602485fd5b634e487b7160e01b85526004859052602485fd5b634e487b7160e01b86526041600452602486fd5b90506020813d602011612cde575b81612cce60209383615282565b81010312612046575160ff612b26565b3d9150612cc1565b6040513d8a823e3d90fd5b60281c6001600160a01b03163303612d095738612a87565b60405162461bcd60e51b815260206004820152602260248201527f4f7074696f6e73436f72653a206e6f742064657369676e617465642073656c6c60448201526132b960f11b6064820152608490fd5b60405162461bcd60e51b815260206004820152601f60248201527f4f7074696f6e73436f72653a206d61782071756f7465732072656163686564006044820152606490fd5b9091506020813d602011612dca575b81612dba60209383615282565b8101031261204657519038612a63565b3d9150612dad565b60405162461bcd60e51b815260206004820152601860248201527f4f7074696f6e73436f72653a20524651206578706972656400000000000000006044820152606490fd5b90506020823d602011612e45575b81612e3260209383615282565b8101031261204657612a27915190612a1d565b3d9150612e25565b6040513d89823e3d90fd5b60405162461bcd60e51b815260206004820152601e60248201527f4f7074696f6e73436f72653a206e6f742061206275796572206f7264657200006044820152606490fd5b60405162461bcd60e51b815260206004820152602760248201527f4f7074696f6e73436f72653a206f72646572206e6f7420616363657074696e676044820152662071756f74657360c81b6064820152608490fd5b6001915014386129c8565b5060055460043510612982565b5060403660031901126102cc576004356003602435101561034e579081612f5b92151580612fc7575b612f3c906158ae565b8152600760205260409020600101546001600160a01b03163314615829565b612f63615806565b612f6b6157e8565b60405162461bcd60e51b815260206004820152602e60248201527f4f7074696f6e73436f72653a20666565642070726f746f636f6c206e6f74206960448201526d1b5c1b195b595b9d1959081e595d60921b6064820152608490fd5b506005548110612f33565b50346102cc5760203660031901126102cc57600435801515806130f3575b612ff9906158ae565b613001615806565b6130096157e8565b808252600760205260408220601481019081549160ff8360101c1692600b84101561069e577fb009a900f426c0c9177acb33a8a806b35c53ac253d1ddf22d687986fc6b72ce4606060c09486946209000089956130776004600080516020615c898339815191529b14615a4f565b62ff00001916179055426017820155600f60018060a01b036001830154169101546040519182526020820152426040820152a26130b76040518092615393565b6009602082015260806040820152601060808201526f199bdc98d9481b1a5c5d5a59185d195960821b60a0820152426060820152a26001805580f35b506005548110612ff0565b5060208060031936011261034e576004359081151580613381575b613122906158ae565b61312a615806565b6131326157e8565b8183526007815260408320601481019060ff825460101c16600b81101561069e5760060361332b5760018101546001600160a01b03919082163314801561331c575b156132d757806012601761318d930154910154906158a1565b421161328357806004918254168482600354169260025460081c166040519485809263039f4f7560e31b82525afa928315612e4d57879361324e575b509361321160c0946131f160ff95600795600080516020615c89833981519152993390615741565b805462ff0000198116620700001790915560405194859160101c16615393565b820152608060408201526015608082015274185c989a5d1c985d1a5bdb881a5b9a5d1a585d1959605a1b60a0820152426060820152a26001805580f35b925090938083813d831161327c575b6132678183615282565b810103126120465791519193906132116131c9565b503d61325d565b60405162461bcd60e51b815260048101849052602660248201527f4f7074696f6e73436f72653a206172626974726174696f6e2077696e646f772060448201526518db1bdcd95960d21b6064820152608490fd5b60405162461bcd60e51b815260048101859052601f60248201527f4f7074696f6e73436f72653a206e6f7420706172747920746f206f72646572006044820152606490fd5b50816002820154163314613174565b60405162461bcd60e51b815260048101849052602860248201527f4f7074696f6e73436f72653a2063616e6e6f7420696e6974696174652061726260448201526734ba3930ba34b7b760c11b6064820152608490fd5b506005548210613119565b50346102cc5760208060031936011261034e5760043590811515806136c7575b6133b5906158ae565b6133bd615806565b6133c56157e8565b818352600781526040832090601482019283549360ff8560101c1693600b8510156136b3578461367057600281019260018060a01b03928385541697881561362b5760018401988954908682166135e6573314613595576001600160a01b0319163317895562ff00001916620200001790554260168301556009820154600254604051631c03be3560e31b8152919087908390600490829060081c89165afa91821561358a578a9261354c575b509360c096936134d0600080516020615c898339815191529997946134c06134ae6127106134a3879860029c61586e565b04600d8601546158a1565b85600454168660035416903390615741565b338d52600a875260408d2061570c565b5498541691541690877f3d7463b72b52fafc8e3f27dc0dbb9d1a94c0a4024834252b5cce68509acb49bc84604051428152a461350f6040518094615393565b8201526080604082015260156080820152741cd95b1b195c881bdc99195c881858d8d95c1d1959605a1b60a0820152426060820152a26001805580f35b96809498969395925087813d8311613583575b6135698183615282565b8101031261204657955194969295919490939160c0613472565b503d61355f565b6040513d8c823e3d90fd5b60405162461bcd60e51b8152600481018990526024808201527f4f7074696f6e73436f72653a2063616e6e6f7420616363657074206f776e206f604482015263393232b960e11b6064820152608490fd5b60405162461bcd60e51b8152600481018a9052601e60248201527f4f7074696f6e73436f72653a20616c72656164792068617320627579657200006044820152606490fd5b60405162461bcd60e51b815260048101889052601f60248201527f4f7074696f6e73436f72653a206e6f7420612073656c6c6572206f72646572006044820152606490fd5b6064846040519062461bcd60e51b825280600483015260248201527f4f7074696f6e73436f72653a206f72646572206e6f7420617661696c61626c656044820152fd5b634e487b7160e01b87526021600452602487fd5b5060055482106133ac565b50346102cc5760203660031901126102cc576136ec615806565b6136f46157e8565b6004358152600960205260408120600a8101549160ff831661371581615152565b613b595760098201544211613b1457600182015481526007602052604081209261374c60018060a01b036001860154163314615829565b60ff601485015460101c16600b811015613b00578015908115613af5575b5015613ab0576003830154600c85015410613a5d5760ff1916600117600a8301556002808301805491850180546001600160a01b0319166001600160a01b0393909316929092179091555461383b9060118501906137ce9060a01c60ff16826156be565b6003840154600c8601556004840154600d860155600684015480600e870155600f86015560ff6007850161380582825416846156e3565b8054835461ff001916600891821c841690911b61ff00161783555460101c1662ff000082549160101b169062ff00001916179055565b60148301805462ff000019811662020000179091554260168501556009840154600254604051631c03be3560e31b8152929492906020908290600490829060081c6001600160a01b03165afa908115613a52578491613a1e575b506127106138a96138b4926138ce9461586e565b0460048401546158a1565b6004546003546001600160a01b0390811691339116615741565b600201546001600160a01b03168152600b6020526040812083546138f19161570c565b8254815260086020526040812092815b8454811015613973578061391861392e92876153a0565b5054600435141580613951575b6139335761562d565b613901565b600a61393f82886153a0565b5001805460ff1916600217905561562d565b5060ff600a61396083896153a0565b5001541661396d81615152565b15613925565b50600080516020615c8983398151915260c060ff6139e48685549560018060a01b0360018201541690600260018060a01b039101541690877f3d7463b72b52fafc8e3f27dc0dbb9d1a94c0a4024834252b5cce68509acb49bc6020604051428152a460405192839160101c16615393565b6002602082015260806040820152600e60808201526d1c5d5bdd19481858d8d95c1d195960921b60a0820152426060820152a26001805580f35b90506020813d602011613a4a575b81613a3960209383615282565b810103126120465751612710613895565b3d9150613a2c565b6040513d86823e3d90fd5b60405162461bcd60e51b815260206004820152602560248201527f4f7074696f6e73436f72653a207072656d69756d2072617465206578636565646044820152640e640dac2f60db1b6064820152608490fd5b60405162461bcd60e51b815260206004820152601b60248201527f4f7074696f6e73436f72653a20696e76616c69642073746174757300000000006044820152606490fd5b60019150143861376a565b634e487b7160e01b83526021600452602483fd5b60405162461bcd60e51b815260206004820152601a60248201527f4f7074696f6e73436f72653a2071756f746520657870697265640000000000006044820152606490fd5b60405162461bcd60e51b815260206004820152601d60248201527f4f7074696f6e73436f72653a2071756f7465206e6f74206163746976650000006044820152606490fd5b50346102cc57806003193601126102cc57602060ff600254166040519015158152f35b50346102cc57806003193601126102cc576020600654604051908152f35b50346102cc5760208060031936011261034e576004359081151580613da8575b613c08906158ae565b81835260078152613c2960018060a01b036001604086200154163314615829565b8183526007815260ff601460408520015460101c16600b81101561264457600403613d5a57613c56615806565b613c5e6157e8565b818352600781526040832060ff601182015460181c168080046001148115171561224457613c909060168301546158a1565b4210613d095760ff6005600080516020615c8983398151915293613cd3601460c095018054906205000062ff000019831617905560405194859160101c16615393565b82015260806040820152600e60808201526d6561726c7920657865726369736560901b60a0820152426060820152a26001805580f35b60405162461bcd60e51b815260048101839052602360248201527f4f7074696f6e73436f72653a2065786572636973652064656c6179206e6f74206044820152621b595d60ea1b6064820152608490fd5b6084906040519062461bcd60e51b82526004820152602160248201527f4f7074696f6e73436f72653a20696e76616c6964206f726465722073746174756044820152607360f81b6064820152fd5b506005548210613bff565b50346102cc5760403660031901126102cc57613dcd615087565b6001600160a01b03168152600b60205260408120805460243592908310156102cc576020613dfb84846150c9565b90546040519160031b1c8152f35b50346102cc5760403660031901126102cc57613e23615087565b6001600160a01b03168152600a60205260408120805460243592908310156102cc576020613dfb84846150c9565b50346102cc57613e60366150b3565b81151580613f9a575b613e72906158ae565b613e7a6153bc565b818352600760205260408320601481019182549160ff8360101c1691600b8310156136b357600483148015613f90575b15613f2e57600080516020615c89833981519152946206000060c095613ed1841515615b51565b62ff000019161790556018820155601742910155613ef26040518092615393565b60066020820152608060408201526014608082015273199a5b985b08199959590818dbdb5c1b195d195960621b60a0820152426060820152a280f35b60405162461bcd60e51b815260206004820152603460248201527f4f7074696f6e73436f72653a206f72646572206e6f7420696e2076616c6964206044820152731cdd185d1948199bdc88199a5b985b081999595960621b6064820152608490fd5b5060058314613eaa565b506005548210613e69565b50346102cc57806003193601126102cc57613fbe6153bc565b60025460ff811615613ffe5760ff19166002557f5db9ee0a495bf2e6ff9c91a7834c1ba4fdd244a5e8aa4e537bd38aeae4b073aa6020604051338152a180f35b604051638dfc202b60e01b8152600490fd5b50346102cc5760403660031901126102cc5761402a61509d565b336001600160a01b038216036140465761058c906004356154b8565b60405163334bd91960e11b8152600490fd5b50346102cc5760603660031901126102cc57600435602460443581356001600160401b038083116120a757366023840112156120a757826004013592818411614367578436918560051b0101116120a7578415158061435c575b6140bb906158ae565b6140c3615806565b6140cb6157e8565b8580526020938685526040872033885285526140ed60ff604089205416615aa8565b858752600785526040872092601484019460ff865460101c16600b811015614349576007036142f757156142b35760188401805460018601546001600160a01b03908116968b9483811415949093928561424e575b508390558854986208000062ff0000198b1617905560174291015560405194898601908b82524260408801526040875260608701978789109089111761423a575060c087600080516020615c898339815191529b976141fe97839c978f969760ff9d987fb3560d930da64161657f7700f7109520a24b93d7ff2363739ee324a1e0d6bf879760089e60405285519020998652608085015260a08401528483015260e082015261010042910152a360405194859160101c16615393565b820152608060408201526014608082015273185c989a5d1c985d1a5bdb881c995cdbdb1d995960621b60a0820152426060820152a26001805580f35b634e487b7160e01b60009081526041600452fd5b6003546798a7d9b8314c00009750168d813b156102cc578860448c838b9560405196879586946315490ebb60e01b865260048601528401525af180156142a65715614142579c61429f85929e615221565b9c90614142565b8e604051903d90823e3d90fd5b60405162461bcd60e51b815260048101879052601b818401527f4f7074696f6e73436f72653a206e6f2061726269747261746f727300000000006044820152606490fd5b60405162461bcd60e51b8152600481018890526025818501527f4f7074696f6e73436f72653a206f72646572206e6f7420696e2061726269747260448201526430ba34b7b760d91b6064820152608490fd5b634e487b7160e01b8a526021600452838afd5b5060055485106140b2565b8680fd5b50346102cc5760603660031901126102cc576004356024803560048110156108845760443590831515806146fc575b6143a3906158ae565b7f04967fd25e7aa667b18955d808f19fd0c86238999ff8be2ebc72cd2cd3a83db09182865260209286845260408720338852845260ff604088205416156146df57508486526007835260408620916143fc821515615b51565b61440581615152565b806145b5575090601481019384549460ff8660101c1695600b8710156145a257620400009061443660028914615b05565b62ff00001916179055614452670de0b6b3a76400008404615bb8565b9060078301918051916001600160401b0383116145905750614478826103fd85546151e7565b859089601f8411600114614513579383600080516020615c898339815191529997946018946004989460c09b9892614508575b50508160011b916000199060031b1c19161790555b01556144cf6040518094615393565b820152608060408201526015608082015274696e697469616c20666565642063616c6c6261636b60581b60a0820152426060820152a280f35b0151905038806144ab565b50838a52868a209190601f1984168b5b8181106145795750846018946004989460c09b9894600080516020615c898339815191529d9b9860019510614560575b505050811b0190556144c0565b015160001960f88460031b161c19169055388080614553565b929389600181928786015181550195019301614523565b634e487b7160e01b8a52604160045289fd5b634e487b7160e01b895260216004528289fd5b806145c1600292615152565b146145cf575b505050505080f35b60148201805460ff8160101c1695600b8710156146cd576004871480156146c3575b15614672575062ff0000191662060000179055601882015542601790910155604051600080516020615c898339815191529260c092600691614634908490615393565b82015260806040820152601360808201527266696e616c20666565642063616c6c6261636b60681b60a0820152426060820152a238808080806145c7565b8560256084926040519262461bcd60e51b845260048401528201527f4f7074696f6e73436f72653a206f72646572206e6f7420696e2076616c696420604482015264737461746560d81b6064820152fd5b50600587146145f1565b634e487b7160e01b8952602160045288fd5b846044916040519163e2517d3f60e01b8352336004840152820152fd5b50600554841061439a565b50346102cc57806003193601126102cc576004546040516001600160a01b039091168152602090f35b50346102cc5760403660031901126102cc5761058c60043561475061509d565b90808452836020526147686001604086200154615414565b61543a565b50346102cc57806003193601126102cc576020600554604051908152f35b50346102cc5760203660031901126102cc57600160406020926004358152808452200154604051908152f35b50346102cc5760203660031901126102cc576147d1615087565b6147d96153bc565b60028054610100600160a81b03191660089290921b610100600160a81b031691909117905580f35b50346102cc5760203660031901126102cc5760043563ffffffff60e01b811680910361034e57602090637965db0b60e01b8114908115614847575b506040519015158152f35b6301ffc9a760e01b1490508261483c565b50346102cc576102203660031901126102cc576004356001600160401b03811161034e5761488a90369060040161504a565b90916024356001600160401b03811161034e576148ab90369060040161504a565b93906044356001600160401b038111610884576148cc90369060040161504a565b906064356001600160401b0381116120a7576148ec90369060040161504a565b90946084356001600160401b0381116120a35761490d90369060040161504a565b600260a43510156150465760036101443510156150465760ff610164351661016435036150465760ff610184351661018435036150465761494c615077565b9160ff6101e435166101e4350361209f57600261020435101561209f57614971615806565b6149796157e8565b61498660c435151561552d565b6149934260e43511615588565b600480546003546002546040516337382d3960e21b81526001600160a01b0393841694909392831692602092859291839160081c165afa91821561503b578d92615001575b506149e4923390615741565b61012435614fd9575b6005549a6149fa8c61562d565b6005558b8b52600760205260408b208c81556002810180546001600160a01b03191633179055946001600160401b038211614fc5578190614a4b82614a4260038a01546151e7565b60038a01615652565b8c90601f8311600114614f59578d92614f4e575b50508160011b916000199060031b1c19161760038501555b6001600160401b038c11614dd457614a9f8c614a9660048701546151e7565b60048701615652565b8b8a601f8211600114614edf578b91614ed4575b5060001960038e901b1c191660018d901b1760048501555b6001600160401b038711614dd457614af387614aea60058701546151e7565b60058701615652565b868a601f8211600114614e6a578b91614e5f575b508760011b906000198960031b1c19161760058501555b6001600160401b038511614dd457614b4685614b3d60068701546151e7565b60068701615652565b848a601f8211600114614df3578b91614de8575b508560011b906000198760031b1c19161760068501555b6001600160401b038211614dd4579260209b969492828c999795614ba68d95614b9d60078701546151e7565b60078701615652565b8490601f8311600114614d2857958f614cdf9d611caf8e60408a859f9e9b9a611cdf9e9a8a859f9b869b8a9f9d611cc79e92614d1d575b50508160011b916000199060031b1c19161760078301555b614c0460a435600884016156a6565b60c435600983015560e435600b830155612710614c2c6101043580600c86015560c43561586e565b04600d83015561012435600e83015561012435600f83015560118201614c5561014435826156e3565b805462ff00006101843560101b1662ffff001990911661ff006101643560081b16171781556101a435601284015560148301805492151560ff1660ff1993909316929092178255805463ff00000019166101e43560181b63ff00000016179055614cc261020435826156ed565b62ff0000198154169055601542910155338152600b86522061570c565b6040519081524283820152817fc0c6ed2669febbe340d8737e8ec17254ffd9e038b54a4585ff70ac3ca18956aa60403393a360018055604051908152f35b013590503880614bdd565b9b94939291906007840185528f852090855b601f1984168110614da2575060209a9996611caf614cdf9f8f9a948e99611cdf9d99611cc79960018f9a6040958f9a978d9883601f19811610614d88575b505050811b016007830155614bf5565b0135600019600384901b60f8161c19169055388080614d78565b9295509396989a9c929597999b508f600181928686013581550194019101928d94918f9c9a9896939d9b999794614d3a565b634e487b7160e01b8a52604160045260248afd5b905089013538614b5a565b600686018c5260208c2091508b5b8b601f1989168210614e4757505086601f19811610614e2d575b5050600185811b016006850155614b71565b8a0135600019600388901b60f8161c191690553880614e1b565b60018394602093948493013581550193019101614e01565b905086013538614b07565b600586018c5260208c2091508b5b601f198a168110614ebc575088601f19811610614ea2575b5050600187811b016005850155614b1e565b87013560001960038a901b60f8161c191690553880614e90565b9091602060018192858c013581550193019101614e78565b905088013538614ab3565b600486018c5260208c2091508b8e5b8b601f1982168310614f345750601f198116109050614f1a575b505060018c811b016004850155614acb565b89013560001960038f901b60f8161c191690553880614f08565b600184956020939495849301358155019401920190614eee565b013590503880614a5f565b600388018e5260208e208e9450915b601f1984168510614fad576001945083601f19811610614f93575b505050811b016003850155614a77565b0135600019600384901b60f8161c19169055388080614f83565b81810135835560209485019460019093019201614f68565b634e487b7160e01b8c52604160045260248cfd5b600454600354614ffc9161012435916001600160a01b0390811691339116615741565b6149ed565b9091506020813d602011615033575b8161501d60209383615282565b8101031261502f5751906149e46149d8565b8c80fd5b3d9150615010565b6040513d8f823e3d90fd5b8880fd5b9181601f84011215612046578235916001600160401b038311612046576020838186019501011161204657565b6101c43590811515820361204657565b600435906001600160a01b038216820361204657565b602435906001600160a01b038216820361204657565b6040906003190112612046576004359060243590565b80548210156150e15760005260206000200190600090565b634e487b7160e01b600052603260045260246000fd5b6020908160408183019282815285518094520193019160005b82811061511e575050505090565b835185529381019392810192600101615110565b6003111561513c57565b634e487b7160e01b600052602160045260246000fd5b6004111561513c57565b9b99979593919e9d9c9a98969492909e6101c08d019f8d5260208d0152600160a01b600190031660408c015261519181615132565b60608b015260808a015260a089015260c088015260e08701526151b381615132565b61010086015260ff1661012085015260ff166101408401526101608301526101808201526151e082615152565b6101a00152565b90600182811c92168015615217575b602083101461520157565b634e487b7160e01b600052602260045260246000fd5b91607f16916151f6565b6001600160401b03811161523457604052565b634e487b7160e01b600052604160045260246000fd5b6101c081019081106001600160401b0382111761523457604052565b61042081019081106001600160401b0382111761523457604052565b90601f801991011681019081106001600160401b0382111761523457604052565b90604051918260008254926152b7846151e7565b90818452600194858116908160001461532657506001146152e3575b50506152e192500383615282565b565b9093915060005260209081600020936000915b81831061530e5750506152e1935082010138806152d3565b855488840185015294850194879450918301916152f6565b9150506152e194506020925060ff191682840152151560051b82010138806152d3565b919082519283825260005b848110615375575050826000602080949584010152601f8019910116010190565b602081830181015184830182015201615354565b6002111561513c57565b90600b82101561513c5752565b80548210156150e157600052600b602060002091020190600090565b3360009081527fad3228b676f7d3cd4284a5443f17f1962b36e491b30a40b2405849e597ba5fb5602052604081205460ff16156153f65750565b6044906040519063e2517d3f60e01b82523360048301526024820152fd5b80600052600060205260406000203360005260205260ff60406000205416156153f65750565b9060009180835282602052604083209160018060a01b03169182845260205260ff604084205416156000146154b357808352826020526040832082845260205260408320600160ff198254161790557f2f8788117e7eff1d82e926ec794901d17c78024a50270940304540a733656f0d339380a4600190565b505090565b9060009180835282602052604083209160018060a01b03169182845260205260ff6040842054166000146154b35780835282602052604083208284526020526040832060ff1981541690557ff6391f5c32d9c69d2a47ea670b442974b53935d1edc7fd64eb21e047a839171b339380a4600190565b1561553457565b60405162461bcd60e51b815260206004820152602660248201527f4f7074696f6e73436f72653a206e6f74696f6e616c206d75737420626520706f60448201526573697469766560d01b6064820152608490fd5b1561558f57565b60405162461bcd60e51b815260206004820152602560248201527f4f7074696f6e73436f72653a20657870697279206d75737420626520696e2066604482015264757475726560d81b6064820152608490fd5b156155e957565b606460405162461bcd60e51b815260206004820152602060248201527f4f7074696f6e73436f72653a206d617267696e207261746520746f6f206c6f776044820152fd5b600019811461563c5760010190565b634e487b7160e01b600052601160045260246000fd5b90601f811161566057505050565b600091825260208220906020601f850160051c8301941061569c575b601f0160051c01915b82811061569157505050565b818155600101615685565b909250829061567c565b906156b081615389565b60ff80198354169116179055565b906156c881615132565b64ff0000000082549160201b169064ff000000001916179055565b906156b081615132565b906156f781615389565b61ff0082549160081b169061ff001916179055565b8054600160401b81101561523457615729916001820181556150c9565b819291549060031b91821b91600019901b1916179055565b6040516323b872dd60e01b60208083019182526001600160a01b0394851660248401529490931660448201526064808201959095529384529260009190615789608482615282565b519082855af1156157dc576000513d6157d357506001600160a01b0381163b155b6157b15750565b604051635274afe760e01b81526001600160a01b039091166004820152602490fd5b600114156157aa565b6040513d6000823e3d90fd5b60ff600254166157f457565b60405163d93c066560e01b8152600490fd5b600260015414615817576002600155565b604051633ee5aeb560e01b8152600490fd5b1561583057565b60405162461bcd60e51b815260206004820152601660248201527527b83a34b7b739a1b7b9329d103737ba10313abcb2b960511b6044820152606490fd5b8181029291811591840414171561563c57565b811561588b570490565b634e487b7160e01b600052601260045260246000fd5b9190820180921161563c57565b156158b557565b60405162461bcd60e51b815260206004820152601d60248201527f4f7074696f6e73436f72653a20696e76616c6964206f726465722069640000006044820152606490fd5b600a6101a09183518155602084015160018201556002810160018060a01b03604086015116815490606087015161593081615132565b61593981615132565b60ff60a01b9060a01b16916affffffffffffffffffffff60a81b16171790556080840151600382015560a0840151600482015560c0840151600582015560e084015160068201556159d76007820161599f61010087015161599981615132565b826156e3565b610120860151815461ff00191660089190911b61ff0016178155610140860151815462ff0000191660109190911b62ff000016179055565b61016084015160088201556101808401516009820155019101516159fa81615152565b6156b081615152565b15615a0a57565b60405162461bcd60e51b815260206004820152601760248201527f4f7074696f6e73436f72653a206e6f742073656c6c65720000000000000000006044820152606490fd5b15615a5657565b60405162461bcd60e51b815260206004820152601b60248201527f4f7074696f6e73436f72653a206f72646572206e6f74206c69766500000000006044820152606490fd5b9190820391821161563c57565b15615aaf57565b60405162461bcd60e51b815260206004820152601b60248201527f4f7074696f6e73436f72653a206e6f7420617574686f72697a656400000000006044820152606490fd5b9081518110156150e1570160200190565b15615b0c57565b60405162461bcd60e51b815260206004820152601e60248201527f4f7074696f6e73436f72653a206f72646572206e6f74206d61746368656400006044820152606490fd5b15615b5857565b60405162461bcd60e51b815260206004820152601a60248201527f4f7074696f6e73436f72653a20696e76616c69642070726963650000000000006044820152606490fd5b6001600160401b03811161523457601f01601f191660200190565b8015615c5a5780816000925b615c445750615bd282615b9d565b91615be06040519384615282565b80835281601f19615bf083615b9d565b013660208601375b615c0157505090565b600019810190811161563c578091600a916030838306810180911161563c5760f81b6001600160f81b03191660001a90615c3b9086615af4565b53049081615bf8565b9091615c51600a9161562d565b92910480615bc4565b50604051604081018181106001600160401b038211176152345760405260018152600360fc1b60208201529056fece3a31baf9956e086200ee7044a75c2befbd050912798b7bcd25d05831ab9592a2646970667358221220616507ddf18eabfe04d1d9a5debd1a316086290a320c2a590cd008e23586bf5364736f6c63430008140033","opcodes":"PUSH1 0x80 CALLVALUE PUSH3 0xF5 JUMPI PUSH1 0x1F PUSH3 0x5E95 CODESIZE DUP2 SWAP1 SUB SWAP2 DUP3 ADD PUSH1 0x1F NOT AND DUP4 ADD SWAP2 PUSH1 0x1 PUSH1 0x1 PUSH1 0x40 SHL SUB DUP4 GT DUP5 DUP5 LT OR PUSH3 0xFA JUMPI DUP1 DUP5 SWAP3 PUSH1 0x80 SWAP5 PUSH1 0x40 MSTORE DUP4 CODECOPY DUP2 ADD SUB SLT PUSH3 0xF5 JUMPI DUP1 PUSH3 0x52 PUSH3 0xE4 SWAP3 PUSH3 0x110 JUMP JUMPDEST SWAP1 PUSH3 0x61 PUSH1 0x20 DUP3 ADD PUSH3 0x110 JUMP JUMPDEST SWAP1 PUSH3 0x7E PUSH1 0x60 PUSH3 0x76 PUSH1 0x40 DUP5 ADD PUSH3 0x110 JUMP JUMPDEST SWAP3 ADD PUSH3 0x110 JUMP JUMPDEST PUSH1 0x1 DUP1 DUP1 SSTORE PUSH1 0x5 DUP2 SWAP1 SSTORE PUSH1 0x6 SSTORE PUSH1 0x2 DUP1 SLOAD PUSH2 0x100 PUSH1 0x1 PUSH1 0xA8 SHL SUB NOT AND PUSH1 0x8 SWAP6 SWAP1 SWAP6 SHL PUSH2 0x100 PUSH1 0x1 PUSH1 0xA8 SHL SUB AND SWAP5 SWAP1 SWAP5 OR SWAP1 SWAP4 SSTORE PUSH1 0x3 DUP1 SLOAD PUSH1 0x1 PUSH1 0x1 PUSH1 0xA0 SHL SUB NOT SWAP1 DUP2 AND PUSH1 0x1 PUSH1 0x1 PUSH1 0xA0 SHL SUB SWAP5 DUP6 AND OR SWAP1 SWAP2 SSTORE PUSH1 0x4 DUP1 SLOAD SWAP1 SWAP2 AND SWAP2 SWAP1 SWAP3 AND OR SWAP1 SSTORE PUSH3 0x125 JUMP JUMPDEST POP PUSH1 0x40 MLOAD PUSH2 0x5CDE SWAP1 DUP2 PUSH3 0x1B7 DUP3 CODECOPY RETURN JUMPDEST PUSH1 0x0 DUP1 REVERT JUMPDEST PUSH4 0x4E487B71 PUSH1 0xE0 SHL PUSH1 0x0 MSTORE PUSH1 0x41 PUSH1 0x4 MSTORE PUSH1 0x24 PUSH1 0x0 REVERT JUMPDEST MLOAD SWAP1 PUSH1 0x1 PUSH1 0x1 PUSH1 0xA0 SHL SUB DUP3 AND DUP3 SUB PUSH3 0xF5 JUMPI JUMP JUMPDEST PUSH1 0x1 PUSH1 0x1 PUSH1 0xA0 SHL SUB AND PUSH1 0x0 DUP2 DUP2 MSTORE PUSH32 0xAD3228B676F7D3CD4284A5443F17F1962B36E491B30A40B2405849E597BA5FB5 PUSH1 0x20 MSTORE PUSH1 0x40 DUP2 KECCAK256 SLOAD SWAP1 SWAP2 SWAP1 PUSH1 0xFF AND PUSH3 0x1B2 JUMPI DUP2 DUP1 MSTORE DUP2 PUSH1 0x20 MSTORE PUSH1 0x40 DUP3 KECCAK256 DUP2 DUP4 MSTORE PUSH1 0x20 MSTORE PUSH1 0x40 DUP3 KECCAK256 PUSH1 0x1 PUSH1 0xFF NOT DUP3 SLOAD AND OR SWAP1 SSTORE CALLER SWAP2 PUSH32 0x2F8788117E7EFF1D82E926EC794901D17C78024A50270940304540A733656F0D DUP2 DUP1 LOG4 PUSH1 0x1 SWAP1 JUMP JUMPDEST POP SWAP1 JUMP INVALID PUSH2 0x260 PUSH1 0x40 MSTORE PUSH1 0x4 CALLDATASIZE LT ISZERO PUSH2 0x13 JUMPI PUSH1 0x0 DUP1 REVERT JUMPDEST PUSH1 0x0 DUP1 CALLDATALOAD PUSH1 0xE0 SHR DUP1 PUSH4 0x1D0D5B8 EQ PUSH2 0x4858 JUMPI DUP1 PUSH4 0x1FFC9A7 EQ PUSH2 0x4801 JUMPI DUP1 PUSH4 0x20E3DBD4 EQ PUSH2 0x47B7 JUMPI DUP1 PUSH4 0x248A9CA3 EQ PUSH2 0x478B JUMPI DUP1 PUSH4 0x2A58B330 EQ PUSH2 0x476D JUMPI DUP1 PUSH4 0x2F2FF15D EQ PUSH2 0x4730 JUMPI DUP1 PUSH4 0x2F48AB7D EQ PUSH2 0x4707 JUMPI DUP1 PUSH4 0x3087A88C EQ PUSH2 0x436B JUMPI DUP1 PUSH4 0x3280890B EQ PUSH2 0x4058 JUMPI DUP1 PUSH4 0x36568ABE EQ PUSH2 0x4010 JUMPI DUP1 PUSH4 0x3F4BA83A EQ PUSH2 0x3FA5 JUMPI DUP1 PUSH4 0x42DD6D3E EQ PUSH2 0x3E51 JUMPI DUP1 PUSH4 0x4500CB60 EQ PUSH2 0x3E09 JUMPI DUP1 PUSH4 0x45CB4505 EQ PUSH2 0x3DB3 JUMPI DUP1 PUSH4 0x46F8226C EQ PUSH2 0x3BDF JUMPI DUP1 PUSH4 0x4EFEF6AA EQ PUSH2 0x3BC1 JUMPI DUP1 PUSH4 0x5C975ABB EQ PUSH2 0x3B9E JUMPI DUP1 PUSH4 0x5D7FFE7B EQ PUSH2 0x36D2 JUMPI DUP1 PUSH4 0x67AC0BF0 EQ PUSH2 0x338C JUMPI DUP1 PUSH4 0x6AF58CFF EQ PUSH2 0x30FE JUMPI DUP1 PUSH4 0x6CA14389 EQ PUSH2 0x2FD2 JUMPI DUP1 PUSH4 0x6DBE7579 EQ PUSH2 0x2F0A JUMPI DUP1 PUSH4 0x7203A582 EQ PUSH2 0x2940 JUMPI DUP1 PUSH4 0x77E9BAD9 EQ PUSH2 0x27A3 JUMPI DUP1 PUSH4 0x79502C55 EQ PUSH2 0x2776 JUMPI DUP1 PUSH4 0x7D900421 EQ PUSH2 0x26E9 JUMPI DUP1 PUSH4 0x8456CB59 EQ PUSH2 0x268E JUMPI DUP1 PUSH4 0x8A4ADF24 EQ PUSH2 0x2665 JUMPI DUP1 PUSH4 0x8DF82800 EQ PUSH2 0x20F6 JUMPI DUP1 PUSH4 0x91D14854 EQ PUSH2 0x20AB JUMPI DUP1 PUSH4 0x979B4E6D EQ PUSH2 0x17DF JUMPI DUP1 PUSH4 0xA217FDDF EQ PUSH2 0x17C3 JUMPI DUP1 PUSH4 0xA45F2EBC EQ PUSH2 0x1750 JUMPI DUP1 PUSH4 0xA61CF0D4 EQ PUSH2 0x16BD JUMPI DUP1 PUSH4 0xA85C38EF EQ PUSH2 0x1354 JUMPI DUP1 PUSH4 0xB543503E EQ PUSH2 0x130F JUMPI DUP1 PUSH4 0xBC0EF26B EQ PUSH2 0x114B JUMPI DUP1 PUSH4 0xCDC65AB6 EQ PUSH2 0x1110 JUMPI DUP1 PUSH4 0xCF3FEC43 EQ PUSH2 0x1083 JUMPI DUP1 PUSH4 0xD049BFEF EQ PUSH2 0xE38 JUMPI DUP1 PUSH4 0xD09EF241 EQ PUSH2 0x8FD JUMPI DUP1 PUSH4 0xD1E745B1 EQ PUSH2 0x70E JUMPI DUP1 PUSH4 0xD41194B8 EQ PUSH2 0x590 JUMPI DUP1 PUSH4 0xD547741F EQ PUSH2 0x54F JUMPI DUP1 PUSH4 0xE02E34F8 EQ PUSH2 0x352 JUMPI DUP1 PUSH4 0xE4CBAC40 EQ PUSH2 0x2CF JUMPI PUSH4 0xF7FF6426 EQ PUSH2 0x223 JUMPI PUSH1 0x0 DUP1 REVERT JUMPDEST CALLVALUE PUSH2 0x2CC JUMPI PUSH2 0x231 CALLDATASIZE PUSH2 0x50B3 JUMP JUMPDEST SWAP1 DUP3 MSTORE PUSH1 0x8 PUSH1 0x20 MSTORE PUSH1 0x40 DUP3 KECCAK256 DUP1 SLOAD DUP3 LT ISZERO PUSH2 0x2C8 JUMPI PUSH2 0x250 SWAP3 POP PUSH2 0x53A0 JUMP JUMPDEST POP DUP1 SLOAD SWAP1 PUSH2 0x2C4 PUSH1 0x1 DUP3 ADD SLOAD PUSH1 0x2 DUP4 ADD SLOAD SWAP3 PUSH1 0x3 DUP2 ADD SLOAD SWAP5 PUSH1 0x4 DUP3 ADD SLOAD SWAP3 PUSH1 0x5 DUP4 ADD SLOAD SWAP2 PUSH1 0x6 DUP5 ADD SLOAD SWAP1 PUSH1 0x7 DUP6 ADD SLOAD SWAP2 PUSH1 0x8 DUP7 ADD SLOAD SWAP5 PUSH1 0xFF PUSH1 0xA PUSH1 0x9 DUP10 ADD SLOAD SWAP9 ADD SLOAD AND SWAP8 PUSH1 0x40 MLOAD SWAP12 DUP13 SWAP12 DUP13 PUSH1 0xFF DUP9 PUSH1 0x10 SHR AND SWAP9 PUSH1 0xFF DUP1 DUP11 PUSH1 0x8 SHR AND SWAP10 AND SWAP8 PUSH1 0xFF DUP5 PUSH1 0xA0 SHR AND SWAP4 PUSH1 0x1 DUP1 PUSH1 0xA0 SHL SUB AND SWAP3 PUSH2 0x515C JUMP JUMPDEST SUB SWAP1 RETURN JUMPDEST DUP3 DUP1 REVERT JUMPDEST DUP1 REVERT JUMPDEST POP CALLVALUE PUSH2 0x2CC JUMPI PUSH1 0x20 DUP1 PUSH1 0x3 NOT CALLDATASIZE ADD SLT PUSH2 0x34E JUMPI PUSH1 0x1 PUSH1 0x1 PUSH1 0xA0 SHL SUB PUSH2 0x2F2 PUSH2 0x5087 JUMP JUMPDEST AND DUP3 MSTORE PUSH1 0xB DUP2 MSTORE PUSH1 0x40 DUP3 KECCAK256 SWAP2 PUSH1 0x40 MLOAD DUP1 SWAP3 DUP1 DUP6 SLOAD SWAP3 DUP4 DUP2 MSTORE ADD SWAP5 DUP4 MSTORE DUP1 DUP4 KECCAK256 SWAP3 SWAP1 JUMPDEST DUP3 DUP3 LT PUSH2 0x337 JUMPI PUSH2 0x2C4 DUP6 PUSH2 0x32B DUP2 DUP10 SUB DUP3 PUSH2 0x5282 JUMP JUMPDEST PUSH1 0x40 MLOAD SWAP2 DUP3 SWAP2 DUP3 PUSH2 0x50F7 JUMP JUMPDEST DUP4 SLOAD DUP7 MSTORE SWAP5 DUP6 ADD SWAP5 PUSH1 0x1 SWAP4 DUP5 ADD SWAP4 SWAP1 SWAP2 ADD SWAP1 PUSH2 0x314 JUMP JUMPDEST POP DUP1 REVERT JUMPDEST POP CALLVALUE PUSH2 0x2CC JUMPI PUSH2 0x361 CALLDATASIZE PUSH2 0x50B3 JUMP JUMPDEST DUP2 ISZERO ISZERO DUP1 PUSH2 0x544 JUMPI JUMPDEST PUSH2 0x373 SWAP1 PUSH2 0x58AE JUMP JUMPDEST PUSH2 0x37B PUSH2 0x53BC JUMP JUMPDEST DUP2 DUP4 MSTORE PUSH1 0x20 PUSH1 0x7 DUP2 MSTORE PUSH1 0x40 DUP5 KECCAK256 SWAP2 PUSH1 0x14 DUP4 ADD SWAP3 DUP4 SLOAD SWAP4 PUSH1 0xFF DUP6 PUSH1 0x10 SHR AND SWAP5 PUSH1 0xB DUP7 LT ISZERO PUSH2 0x530 JUMPI PUSH3 0x40000 SWAP1 PUSH2 0x3B3 PUSH1 0x2 DUP9 EQ PUSH2 0x5B05 JUMP JUMPDEST PUSH2 0x3BE DUP6 ISZERO ISZERO PUSH2 0x5B51 JUMP JUMPDEST PUSH3 0xFF0000 NOT AND OR SWAP1 SSTORE PUSH2 0x3DA PUSH8 0xDE0B6B3A7640000 DUP4 DIV PUSH2 0x5BB8 JUMP JUMPDEST DUP1 MLOAD PUSH1 0x7 DUP4 ADD SWAP2 PUSH1 0x1 PUSH1 0x1 PUSH1 0x40 SHL SUB DUP3 GT PUSH2 0x51C JUMPI PUSH2 0x403 DUP3 PUSH2 0x3FD DUP6 SLOAD PUSH2 0x51E7 JUMP JUMPDEST DUP6 PUSH2 0x5652 JUMP JUMPDEST DUP6 SWAP1 DUP10 PUSH1 0x1F DUP5 GT PUSH1 0x1 EQ PUSH2 0x49F JUMPI SWAP4 DUP4 PUSH1 0x0 DUP1 MLOAD PUSH1 0x20 PUSH2 0x5C89 DUP4 CODECOPY DUP2 MLOAD SWAP2 MSTORE SWAP10 SWAP8 SWAP5 PUSH1 0x18 SWAP5 PUSH1 0x4 SWAP9 SWAP5 PUSH1 0xC0 SWAP12 SWAP9 SWAP3 PUSH2 0x494 JUMPI JUMPDEST POP POP DUP2 PUSH1 0x1 SHL SWAP2 PUSH1 0x0 NOT SWAP1 PUSH1 0x3 SHL SHR NOT AND OR SWAP1 SSTORE JUMPDEST ADD SSTORE PUSH2 0x45A PUSH1 0x40 MLOAD DUP1 SWAP5 PUSH2 0x5393 JUMP JUMPDEST DUP3 ADD MSTORE PUSH1 0x80 PUSH1 0x40 DUP3 ADD MSTORE PUSH1 0x16 PUSH1 0x80 DUP3 ADD MSTORE PUSH22 0x1A5B9A5D1A585B08199959590818DBDB5C1B195D1959 PUSH1 0x52 SHL PUSH1 0xA0 DUP3 ADD MSTORE TIMESTAMP PUSH1 0x60 DUP3 ADD MSTORE LOG2 DUP1 RETURN JUMPDEST ADD MLOAD SWAP1 POP CODESIZE DUP1 PUSH2 0x436 JUMP JUMPDEST POP DUP4 DUP11 MSTORE DUP7 DUP11 KECCAK256 SWAP2 SWAP1 PUSH1 0x1F NOT DUP5 AND DUP12 JUMPDEST DUP2 DUP2 LT PUSH2 0x505 JUMPI POP DUP5 PUSH1 0x18 SWAP5 PUSH1 0x4 SWAP9 SWAP5 PUSH1 0xC0 SWAP12 SWAP9 SWAP5 PUSH1 0x0 DUP1 MLOAD PUSH1 0x20 PUSH2 0x5C89 DUP4 CODECOPY DUP2 MLOAD SWAP2 MSTORE SWAP14 SWAP12 SWAP9 PUSH1 0x1 SWAP6 LT PUSH2 0x4EC JUMPI JUMPDEST POP POP POP DUP2 SHL ADD SWAP1 SSTORE PUSH2 0x44B JUMP JUMPDEST ADD MLOAD PUSH1 0x0 NOT PUSH1 0xF8 DUP5 PUSH1 0x3 SHL AND SHR NOT AND SWAP1 SSTORE CODESIZE DUP1 DUP1 PUSH2 0x4DF JUMP JUMPDEST SWAP3 SWAP4 DUP10 PUSH1 0x1 DUP2 SWAP3 DUP8 DUP7 ADD MLOAD DUP2 SSTORE ADD SWAP6 ADD SWAP4 ADD PUSH2 0x4AF JUMP JUMPDEST PUSH4 0x4E487B71 PUSH1 0xE0 SHL DUP10 MSTORE PUSH1 0x41 PUSH1 0x4 MSTORE PUSH1 0x24 DUP10 REVERT JUMPDEST PUSH4 0x4E487B71 PUSH1 0xE0 SHL DUP9 MSTORE PUSH1 0x21 PUSH1 0x4 MSTORE PUSH1 0x24 DUP9 REVERT JUMPDEST POP PUSH1 0x5 SLOAD DUP3 LT PUSH2 0x36A JUMP JUMPDEST POP CALLVALUE PUSH2 0x2CC JUMPI PUSH1 0x40 CALLDATASIZE PUSH1 0x3 NOT ADD SLT PUSH2 0x2CC JUMPI PUSH2 0x58C PUSH1 0x4 CALLDATALOAD PUSH2 0x56F PUSH2 0x509D JUMP JUMPDEST SWAP1 DUP1 DUP5 MSTORE DUP4 PUSH1 0x20 MSTORE PUSH2 0x587 PUSH1 0x1 PUSH1 0x40 DUP7 KECCAK256 ADD SLOAD PUSH2 0x5414 JUMP JUMPDEST PUSH2 0x54B8 JUMP JUMPDEST POP DUP1 RETURN JUMPDEST POP CALLVALUE PUSH2 0x2CC JUMPI PUSH2 0x59F CALLDATASIZE PUSH2 0x50B3 JUMP JUMPDEST SWAP1 DUP1 ISZERO ISZERO DUP1 PUSH2 0x703 JUMPI JUMPDEST PUSH2 0x5B2 SWAP1 PUSH2 0x58AE JUMP JUMPDEST DUP1 DUP4 MSTORE PUSH1 0x7 PUSH1 0x20 MSTORE PUSH1 0x40 DUP4 KECCAK256 PUSH1 0x2 ADD SLOAD PUSH1 0x1 PUSH1 0x1 PUSH1 0xA0 SHL SUB SWAP3 SWAP1 PUSH2 0x5D9 SWAP1 DUP5 AND CALLER EQ PUSH2 0x5A03 JUMP JUMPDEST PUSH2 0x5E1 PUSH2 0x5806 JUMP JUMPDEST PUSH2 0x5E9 PUSH2 0x57E8 JUMP JUMPDEST DUP1 ISZERO PUSH2 0x6B2 JUMPI DUP2 DUP5 MSTORE PUSH1 0x7 PUSH1 0x20 MSTORE PUSH1 0x40 DUP5 KECCAK256 PUSH1 0xFF PUSH1 0x14 DUP3 ADD SLOAD PUSH1 0x10 SHR AND PUSH1 0xB DUP2 LT ISZERO PUSH2 0x69E JUMPI PUSH2 0x643 SWAP2 PUSH2 0x621 PUSH1 0x4 PUSH1 0xF SWAP4 EQ PUSH2 0x5A4F JUMP JUMPDEST ADD SWAP2 PUSH2 0x63C DUP2 DUP5 SLOAD SWAP7 DUP1 PUSH1 0x4 SLOAD AND SWAP1 PUSH1 0x3 SLOAD AND SWAP1 CALLER SWAP1 PUSH2 0x5741 JUMP JUMPDEST DUP3 SLOAD PUSH2 0x58A1 JUMP JUMPDEST DUP1 SWAP2 SSTORE PUSH1 0x40 MLOAD SWAP3 DUP4 MSTORE PUSH1 0x20 DUP4 ADD MSTORE PUSH1 0x80 PUSH1 0x40 DUP4 ADD MSTORE PUSH1 0x3 PUSH1 0x80 DUP4 ADD MSTORE PUSH3 0x185919 PUSH1 0xEA SHL PUSH1 0xA0 DUP4 ADD MSTORE TIMESTAMP PUSH1 0x60 DUP4 ADD MSTORE PUSH32 0x2CF5022BDD8FEFE86D09412967E028FA9A8CF1E1A3989D47DFD9FC64A22AFA86 PUSH1 0xC0 CALLER SWAP4 LOG3 PUSH1 0x1 DUP1 SSTORE DUP1 RETURN JUMPDEST PUSH4 0x4E487B71 PUSH1 0xE0 SHL DUP7 MSTORE PUSH1 0x21 PUSH1 0x4 MSTORE PUSH1 0x24 DUP7 REVERT JUMPDEST PUSH1 0x40 MLOAD PUSH3 0x461BCD PUSH1 0xE5 SHL DUP2 MSTORE PUSH1 0x20 PUSH1 0x4 DUP3 ADD MSTORE PUSH1 0x24 DUP1 DUP3 ADD MSTORE PUSH32 0x4F7074696F6E73436F72653A20616D6F756E74206D75737420626520706F7369 PUSH1 0x44 DUP3 ADD MSTORE PUSH4 0x74697665 PUSH1 0xE0 SHL PUSH1 0x64 DUP3 ADD MSTORE PUSH1 0x84 SWAP1 REVERT JUMPDEST POP PUSH1 0x5 SLOAD DUP2 LT PUSH2 0x5A9 JUMP JUMPDEST POP CALLVALUE PUSH2 0x2CC JUMPI PUSH2 0x71D CALLDATASIZE PUSH2 0x50B3 JUMP JUMPDEST SWAP1 DUP1 ISZERO ISZERO DUP1 PUSH2 0x8F2 JUMPI JUMPDEST PUSH2 0x730 SWAP1 PUSH2 0x58AE JUMP JUMPDEST DUP1 DUP4 MSTORE PUSH1 0x7 PUSH1 0x20 MSTORE PUSH1 0x40 DUP4 KECCAK256 PUSH1 0x2 ADD SLOAD PUSH1 0x1 PUSH1 0x1 PUSH1 0xA0 SHL SUB SWAP1 PUSH2 0x756 SWAP1 DUP3 AND CALLER EQ PUSH2 0x5A03 JUMP JUMPDEST PUSH2 0x75E PUSH2 0x5806 JUMP JUMPDEST PUSH2 0x766 PUSH2 0x57E8 JUMP JUMPDEST DUP2 DUP5 MSTORE PUSH1 0x7 PUSH1 0x20 MSTORE PUSH1 0x40 DUP5 KECCAK256 SWAP3 PUSH1 0xFF PUSH1 0x14 DUP6 ADD SLOAD PUSH1 0x10 SHR AND PUSH1 0xB DUP2 LT ISZERO PUSH2 0x69E JUMPI PUSH1 0x4 PUSH2 0x793 SWAP2 EQ PUSH2 0x5A4F JUMP JUMPDEST PUSH1 0xF DUP5 ADD SWAP2 PUSH2 0x7A8 PUSH1 0xE DUP5 SLOAD SWAP7 ADD SLOAD DUP7 PUSH2 0x5A9B JUMP JUMPDEST DUP3 GT PUSH2 0x893 JUMPI DUP2 PUSH2 0x7BA DUP8 SWAP4 DUP8 PUSH2 0x5A9B JUMP JUMPDEST DUP5 SSTORE DUP2 PUSH1 0x3 SLOAD AND SWAP2 PUSH1 0x4 SLOAD AND SWAP1 DUP3 EXTCODESIZE ISZERO PUSH2 0x884 JUMPI PUSH1 0x40 MLOAD PUSH4 0x6924FAA7 PUSH1 0xE1 SHL DUP2 MSTORE CALLER PUSH1 0x4 DUP3 ADD MSTORE PUSH1 0x1 PUSH1 0x1 PUSH1 0xA0 SHL SUB SWAP3 SWAP1 SWAP3 AND PUSH1 0x24 DUP4 ADD MSTORE PUSH1 0x44 DUP3 ADD MSTORE SWAP1 DUP3 SWAP1 DUP3 SWAP1 PUSH1 0x64 SWAP1 DUP3 SWAP1 DUP5 SWAP1 GAS CALL DUP1 ISZERO PUSH2 0x888 JUMPI PUSH2 0x870 JUMPI JUMPDEST POP POP SLOAD PUSH1 0x40 MLOAD SWAP3 DUP4 MSTORE PUSH1 0x20 DUP4 ADD MSTORE PUSH1 0x80 PUSH1 0x40 DUP4 ADD MSTORE PUSH1 0x8 PUSH1 0x80 DUP4 ADD MSTORE PUSH8 0x7769746864726177 PUSH1 0xC0 SHL PUSH1 0xA0 DUP4 ADD MSTORE TIMESTAMP PUSH1 0x60 DUP4 ADD MSTORE PUSH32 0x2CF5022BDD8FEFE86D09412967E028FA9A8CF1E1A3989D47DFD9FC64A22AFA86 PUSH1 0xC0 CALLER SWAP4 LOG3 PUSH1 0x1 DUP1 SSTORE DUP1 RETURN JUMPDEST PUSH2 0x879 SWAP1 PUSH2 0x5221 JUMP JUMPDEST PUSH2 0x884 JUMPI DUP4 CODESIZE PUSH2 0x810 JUMP JUMPDEST DUP4 DUP1 REVERT JUMPDEST PUSH1 0x40 MLOAD RETURNDATASIZE DUP5 DUP3 RETURNDATACOPY RETURNDATASIZE SWAP1 REVERT JUMPDEST PUSH1 0x40 MLOAD PUSH3 0x461BCD PUSH1 0xE5 SHL DUP2 MSTORE PUSH1 0x20 PUSH1 0x4 DUP3 ADD MSTORE PUSH1 0x31 PUSH1 0x24 DUP3 ADD MSTORE PUSH32 0x4F7074696F6E73436F72653A2063616E6E6F742077697468647261772062656C PUSH1 0x44 DUP3 ADD MSTORE PUSH17 0x37BB9034B734BA34B0B61036B0B933B4B7 PUSH1 0x79 SHL PUSH1 0x64 DUP3 ADD MSTORE PUSH1 0x84 SWAP1 REVERT JUMPDEST POP PUSH1 0x5 SLOAD DUP2 LT PUSH2 0x727 JUMP JUMPDEST POP CALLVALUE PUSH2 0x2CC JUMPI PUSH1 0x20 CALLDATASIZE PUSH1 0x3 NOT ADD SLT PUSH2 0x2CC JUMPI DUP1 PUSH2 0x400 PUSH1 0x40 MLOAD PUSH2 0x91F DUP2 PUSH2 0x5266 JUMP JUMPDEST DUP3 DUP2 MSTORE DUP3 PUSH1 0x20 DUP3 ADD MSTORE DUP3 PUSH1 0x40 DUP3 ADD MSTORE PUSH1 0x60 DUP1 DUP3 ADD MSTORE PUSH1 0x60 PUSH1 0x80 DUP3 ADD MSTORE PUSH1 0x60 PUSH1 0xA0 DUP3 ADD MSTORE PUSH1 0x60 PUSH1 0xC0 DUP3 ADD MSTORE PUSH1 0x60 PUSH1 0xE0 DUP3 ADD MSTORE DUP3 PUSH2 0x100 DUP3 ADD MSTORE DUP3 PUSH2 0x120 DUP3 ADD MSTORE DUP3 PUSH2 0x140 DUP3 ADD MSTORE DUP3 PUSH2 0x160 DUP3 ADD MSTORE DUP3 PUSH2 0x180 DUP3 ADD MSTORE DUP3 PUSH2 0x1A0 DUP3 ADD MSTORE DUP3 PUSH2 0x1C0 DUP3 ADD MSTORE DUP3 PUSH2 0x1E0 DUP3 ADD MSTORE DUP3 PUSH2 0x200 DUP3 ADD MSTORE DUP3 PUSH2 0x220 DUP3 ADD MSTORE DUP3 PUSH2 0x240 DUP3 ADD MSTORE DUP3 PUSH2 0x260 DUP3 ADD MSTORE DUP3 PUSH2 0x280 DUP3 ADD MSTORE DUP3 PUSH2 0x2A0 DUP3 ADD MSTORE DUP3 PUSH2 0x2C0 DUP3 ADD MSTORE DUP3 PUSH2 0x2E0 DUP3 ADD MSTORE DUP3 PUSH2 0x300 DUP3 ADD MSTORE DUP3 PUSH2 0x320 DUP3 ADD MSTORE DUP3 PUSH2 0x340 DUP3 ADD MSTORE DUP3 PUSH2 0x360 DUP3 ADD MSTORE DUP3 PUSH2 0x380 DUP3 ADD MSTORE DUP3 PUSH2 0x3A0 DUP3 ADD MSTORE DUP3 PUSH2 0x3C0 DUP3 ADD MSTORE DUP3 PUSH2 0x3E0 DUP3 ADD MSTORE ADD MSTORE PUSH1 0x4 CALLDATALOAD DUP2 MSTORE PUSH1 0x7 PUSH1 0x20 MSTORE PUSH1 0x40 DUP2 KECCAK256 PUSH1 0x40 MLOAD SWAP2 PUSH2 0xA15 DUP4 PUSH2 0x5266 JUMP JUMPDEST DUP2 SLOAD DUP4 MSTORE PUSH1 0x1 DUP3 ADD SLOAD PUSH1 0x1 PUSH1 0x1 PUSH1 0xA0 SHL SUB SWAP1 DUP2 AND PUSH1 0x20 DUP6 ADD MSTORE PUSH1 0x2 DUP4 ADD SLOAD AND PUSH1 0x40 DUP5 ADD MSTORE PUSH2 0xA45 PUSH1 0x3 DUP4 ADD PUSH2 0x52A3 JUMP JUMPDEST PUSH1 0x60 DUP5 ADD MSTORE PUSH2 0xA56 PUSH1 0x4 DUP4 ADD PUSH2 0x52A3 JUMP JUMPDEST PUSH1 0x80 DUP5 ADD MSTORE PUSH2 0xA67 PUSH1 0x5 DUP4 ADD PUSH2 0x52A3 JUMP JUMPDEST PUSH1 0xA0 DUP5 ADD MSTORE PUSH2 0xA78 PUSH1 0x6 DUP4 ADD PUSH2 0x52A3 JUMP JUMPDEST PUSH1 0xC0 DUP5 ADD MSTORE PUSH2 0xA89 PUSH1 0x7 DUP4 ADD PUSH2 0x52A3 JUMP JUMPDEST PUSH1 0xE0 DUP5 ADD MSTORE PUSH1 0xFF PUSH1 0x8 DUP4 ADD SLOAD AND PUSH2 0xA9F DUP2 PUSH2 0x5389 JUMP JUMPDEST PUSH2 0x100 DUP5 ADD MSTORE PUSH1 0x9 DUP3 ADD SLOAD PUSH2 0x120 DUP5 ADD MSTORE PUSH1 0xA DUP3 ADD SLOAD PUSH2 0x140 DUP5 ADD MSTORE PUSH1 0xB DUP3 ADD SLOAD PUSH2 0x160 DUP5 ADD MSTORE PUSH1 0xC DUP3 ADD SLOAD PUSH2 0x180 DUP5 ADD MSTORE PUSH1 0xD DUP3 ADD SLOAD PUSH2 0x1A0 DUP5 ADD MSTORE PUSH1 0xE DUP3 ADD SLOAD PUSH2 0x1C0 DUP5 ADD MSTORE PUSH1 0xF DUP3 ADD SLOAD PUSH2 0x1E0 DUP5 ADD MSTORE PUSH1 0x10 DUP3 ADD SLOAD PUSH2 0x200 DUP5 ADD MSTORE PUSH1 0x11 DUP3 ADD SLOAD PUSH2 0xB0E PUSH1 0xFF DUP3 AND PUSH2 0x5132 JUMP JUMPDEST PUSH1 0xFF DUP2 AND PUSH2 0x220 DUP6 ADD MSTORE PUSH1 0xFF DUP2 PUSH1 0x8 SHR AND PUSH2 0x240 DUP6 ADD MSTORE PUSH1 0xFF DUP2 PUSH1 0x10 SHR AND PUSH2 0x260 DUP6 ADD MSTORE PUSH1 0xFF DUP2 PUSH1 0x18 SHR AND PUSH2 0x280 DUP6 ADD MSTORE PUSH2 0xB4E PUSH1 0xFF DUP3 PUSH1 0x20 SHR AND PUSH2 0x5132 JUMP JUMPDEST PUSH1 0xFF DUP2 PUSH1 0x20 SHR AND PUSH2 0x2A0 DUP6 ADD MSTORE PUSH1 0x1 DUP1 PUSH1 0xA0 SHL SUB SWAP1 PUSH1 0x28 SHR AND PUSH2 0x2C0 DUP5 ADD MSTORE PUSH1 0x12 DUP3 ADD SLOAD PUSH2 0x2E0 DUP5 ADD MSTORE PUSH1 0x13 DUP3 ADD SLOAD PUSH2 0x300 DUP5 ADD MSTORE PUSH1 0x14 DUP3 ADD SLOAD SWAP1 PUSH1 0xFF DUP3 AND ISZERO ISZERO PUSH2 0x320 DUP6 ADD MSTORE PUSH2 0xBA4 PUSH1 0xFF DUP4 PUSH1 0x8 SHR AND PUSH2 0x5389 JUMP JUMPDEST PUSH1 0xFF DUP3 PUSH1 0x8 SHR AND PUSH2 0x340 DUP6 ADD MSTORE PUSH1 0xB PUSH1 0xFF DUP4 PUSH1 0x10 SHR AND LT ISZERO PUSH2 0xE24 JUMPI POP SWAP1 PUSH1 0xFF PUSH1 0x19 SWAP3 PUSH1 0x10 SHR AND PUSH2 0x360 DUP5 ADD MSTORE PUSH1 0x15 DUP2 ADD SLOAD PUSH2 0x380 DUP5 ADD MSTORE PUSH1 0x16 DUP2 ADD SLOAD PUSH2 0x3A0 DUP5 ADD MSTORE PUSH1 0x17 DUP2 ADD SLOAD PUSH2 0x3C0 DUP5 ADD MSTORE PUSH1 0x18 DUP2 ADD SLOAD PUSH2 0x3E0 DUP5 ADD MSTORE ADD SLOAD PUSH2 0x400 DUP3 ADD MSTORE PUSH1 0x40 MLOAD DUP1 SWAP2 PUSH1 0x20 DUP3 MSTORE DUP1 MLOAD PUSH1 0x20 DUP4 ADD MSTORE PUSH1 0x1 DUP1 PUSH1 0xA0 SHL SUB PUSH1 0x20 DUP3 ADD MLOAD AND PUSH1 0x40 DUP4 ADD MSTORE PUSH1 0x1 DUP1 PUSH1 0xA0 SHL SUB PUSH1 0x40 DUP3 ADD MLOAD AND PUSH1 0x60 DUP4 ADD MSTORE PUSH2 0x400 PUSH2 0xCBA PUSH2 0xC5A PUSH1 0x60 DUP5 ADD MLOAD PUSH2 0x420 PUSH1 0x80 DUP8 ADD MSTORE PUSH2 0x440 DUP7 ADD SWAP1 PUSH2 0x5349 JUMP JUMPDEST PUSH2 0xCA4 PUSH2 0xC90 PUSH2 0xC7C PUSH1 0x80 DUP8 ADD MLOAD SWAP4 PUSH1 0x1F NOT SWAP5 DUP6 DUP11 DUP4 SUB ADD PUSH1 0xA0 DUP12 ADD MSTORE PUSH2 0x5349 JUMP JUMPDEST PUSH1 0xA0 DUP8 ADD MLOAD DUP5 DUP10 DUP4 SUB ADD PUSH1 0xC0 DUP11 ADD MSTORE PUSH2 0x5349 JUMP JUMPDEST PUSH1 0xC0 DUP7 ADD MLOAD DUP4 DUP9 DUP4 SUB ADD PUSH1 0xE0 DUP10 ADD MSTORE PUSH2 0x5349 JUMP JUMPDEST SWAP1 PUSH1 0xE0 DUP6 ADD MLOAD SWAP1 DUP7 DUP4 SUB ADD PUSH2 0x100 DUP8 ADD MSTORE PUSH2 0x5349 JUMP JUMPDEST SWAP2 PUSH2 0x100 DUP2 ADD MLOAD PUSH2 0xCCA DUP2 PUSH2 0x5389 JUMP JUMPDEST PUSH2 0x120 DUP6 ADD MSTORE PUSH2 0x120 DUP2 ADD MLOAD PUSH2 0x140 DUP6 ADD MSTORE PUSH2 0x140 DUP2 ADD MLOAD PUSH2 0x160 DUP6 ADD MSTORE PUSH2 0x160 DUP2 ADD MLOAD PUSH2 0x180 DUP6 ADD MSTORE PUSH2 0x180 DUP2 ADD MLOAD PUSH2 0x1A0 DUP6 ADD MSTORE PUSH2 0x1A0 DUP2 ADD MLOAD PUSH2 0x1C0 DUP6 ADD MSTORE PUSH2 0x1C0 DUP2 ADD MLOAD PUSH2 0x1E0 DUP6 ADD MSTORE PUSH2 0x1E0 DUP2 ADD MLOAD PUSH2 0x200 DUP6 ADD MSTORE PUSH2 0x200 DUP2 ADD MLOAD PUSH2 0x220 DUP6 ADD MSTORE PUSH2 0x220 DUP2 ADD MLOAD PUSH2 0xD3F DUP2 PUSH2 0x5132 JUMP JUMPDEST PUSH2 0x240 DUP6 ADD MSTORE PUSH1 0xFF PUSH2 0x240 DUP3 ADD MLOAD AND PUSH2 0x260 DUP6 ADD MSTORE PUSH1 0xFF PUSH2 0x260 DUP3 ADD MLOAD AND PUSH2 0x280 DUP6 ADD MSTORE PUSH1 0xFF PUSH2 0x280 DUP3 ADD MLOAD AND PUSH2 0x2A0 DUP6 ADD MSTORE PUSH2 0x2A0 DUP2 ADD MLOAD PUSH2 0xD81 DUP2 PUSH2 0x5132 JUMP JUMPDEST PUSH2 0x2C0 DUP6 ADD MSTORE PUSH1 0x1 DUP1 PUSH1 0xA0 SHL SUB PUSH2 0x2C0 DUP3 ADD MLOAD AND PUSH2 0x2E0 DUP6 ADD MSTORE PUSH2 0x2E0 DUP2 ADD MLOAD PUSH2 0x300 DUP6 ADD MSTORE PUSH2 0x300 DUP2 ADD MLOAD PUSH2 0x320 DUP6 ADD MSTORE PUSH2 0x320 DUP2 ADD MLOAD ISZERO ISZERO PUSH2 0x340 DUP6 ADD MSTORE PUSH2 0x340 DUP2 ADD MLOAD PUSH2 0xDD0 DUP2 PUSH2 0x5389 JUMP JUMPDEST PUSH2 0x360 DUP6 ADD MSTORE PUSH2 0xDEA PUSH2 0x360 DUP3 ADD MLOAD PUSH2 0x380 DUP7 ADD SWAP1 PUSH2 0x5393 JUMP JUMPDEST PUSH2 0x380 DUP2 ADD MLOAD PUSH2 0x3A0 DUP6 ADD MSTORE PUSH2 0x3A0 DUP2 ADD MLOAD PUSH2 0x3C0 DUP6 ADD MSTORE PUSH2 0x3C0 DUP2 ADD MLOAD PUSH2 0x3E0 DUP6 ADD MSTORE PUSH2 0x3E0 DUP2 ADD MLOAD DUP3 DUP6 ADD MSTORE ADD MLOAD PUSH2 0x420 DUP4 ADD MSTORE SUB SWAP1 RETURN JUMPDEST PUSH4 0x4E487B71 PUSH1 0xE0 SHL DUP2 MSTORE PUSH1 0x21 PUSH1 0x4 MSTORE PUSH1 0x24 SWAP1 REVERT JUMPDEST POP CALLVALUE PUSH2 0x2CC JUMPI PUSH1 0x20 SWAP1 DUP2 PUSH1 0x3 NOT CALLDATASIZE ADD SLT PUSH2 0x2CC JUMPI PUSH1 0x4 CALLDATALOAD DUP2 MSTORE PUSH1 0x8 DUP1 DUP4 MSTORE PUSH1 0x40 DUP3 KECCAK256 SWAP3 DUP4 SLOAD PUSH1 0x1 PUSH1 0x1 PUSH1 0x40 SHL SUB DUP2 GT PUSH2 0x106F JUMPI SWAP2 DUP5 SWAP2 SWAP3 PUSH1 0x40 MLOAD SWAP2 PUSH1 0x5 PUSH2 0xE83 DUP7 DUP5 DUP4 SHL ADD DUP6 PUSH2 0x5282 JUMP JUMPDEST DUP3 DUP5 MSTORE DUP6 DUP5 ADD SWAP2 DUP3 SWAP6 DUP9 MSTORE DUP7 DUP9 KECCAK256 SWAP2 DUP9 SWAP4 JUMPDEST DUP6 DUP6 LT PUSH2 0xF92 JUMPI POP POP POP POP POP POP PUSH1 0x40 MLOAD SWAP3 DUP1 DUP5 ADD SWAP2 DUP2 DUP6 MSTORE MLOAD DUP1 SWAP3 MSTORE PUSH1 0x40 DUP5 ADD SWAP3 SWAP5 JUMPDEST DUP3 DUP2 LT PUSH2 0xEC5 JUMPI DUP5 DUP5 SUB DUP6 RETURN JUMPDEST SWAP1 SWAP2 SWAP3 DUP3 PUSH2 0x1C0 PUSH1 0x1 SWAP3 DUP9 MLOAD DUP1 MLOAD DUP3 MSTORE DUP4 DUP2 ADD MLOAD DUP5 DUP4 ADD MSTORE DUP5 DUP1 PUSH1 0xA0 SHL SUB PUSH1 0x40 DUP3 ADD MLOAD AND PUSH1 0x40 DUP4 ADD MSTORE PUSH1 0x60 DUP1 DUP3 ADD MLOAD SWAP1 PUSH2 0xEFE DUP3 PUSH2 0x5132 JUMP JUMPDEST DUP4 ADD MSTORE PUSH1 0x80 DUP1 DUP3 ADD MLOAD SWAP1 DUP4 ADD MSTORE PUSH1 0xA0 DUP1 DUP3 ADD MLOAD SWAP1 DUP4 ADD MSTORE PUSH1 0xC0 DUP1 DUP3 ADD MLOAD SWAP1 DUP4 ADD MSTORE PUSH1 0xE0 DUP2 ADD MLOAD PUSH1 0xE0 DUP4 ADD MSTORE PUSH2 0x100 DUP1 DUP3 ADD MLOAD SWAP1 PUSH2 0xF3A DUP3 PUSH2 0x5132 JUMP JUMPDEST DUP4 ADD MSTORE PUSH1 0xFF PUSH2 0x120 DUP2 DUP2 DUP5 ADD MLOAD AND SWAP1 DUP5 ADD MSTORE PUSH2 0x140 SWAP1 DUP2 DUP4 ADD MLOAD AND SWAP1 DUP4 ADD MSTORE PUSH2 0x160 DUP1 DUP3 ADD MLOAD SWAP1 DUP4 ADD MSTORE PUSH2 0x180 DUP1 DUP3 ADD MLOAD SWAP1 DUP4 ADD MSTORE PUSH2 0x1A0 DUP1 SWAP2 ADD MLOAD SWAP1 PUSH2 0xF80 DUP3 PUSH2 0x5152 JUMP JUMPDEST DUP3 ADD MSTORE ADD SWAP7 ADD SWAP2 ADD SWAP5 SWAP3 SWAP2 SWAP1 SWAP5 PUSH2 0xEB8 JUMP JUMPDEST PUSH1 0xB DUP10 PUSH1 0x1 SWAP3 PUSH1 0x40 SWAP13 SWAP12 SWAP10 SWAP11 SWAP13 MLOAD PUSH2 0xFA9 DUP2 PUSH2 0x524A JUMP JUMPDEST DUP8 SLOAD DUP2 MSTORE DUP5 DUP9 ADD SLOAD DUP4 DUP3 ADD MSTORE PUSH1 0x2 DUP9 ADD SLOAD DUP6 DUP1 PUSH1 0xA0 SHL SUB DUP2 AND PUSH1 0x40 DUP4 ADD MSTORE PUSH1 0xFF SWAP1 DUP2 PUSH1 0xA0 SWAP2 DUP3 SHR AND PUSH2 0xFDA DUP2 PUSH2 0x5132 JUMP JUMPDEST PUSH1 0x60 DUP5 ADD MSTORE PUSH1 0x3 DUP11 ADD SLOAD PUSH1 0x80 DUP5 ADD MSTORE PUSH1 0x4 DUP11 ADD SLOAD SWAP1 DUP4 ADD MSTORE DUP7 DUP10 ADD SLOAD PUSH1 0xC0 DUP4 ADD MSTORE PUSH1 0x6 DUP10 ADD SLOAD PUSH1 0xE0 DUP4 ADD MSTORE DUP1 PUSH1 0x7 DUP11 ADD SLOAD DUP2 DUP2 AND PUSH2 0x1017 DUP2 PUSH2 0x5132 JUMP JUMPDEST PUSH2 0x100 DUP6 ADD MSTORE DUP2 DUP2 DUP12 SHR AND PUSH2 0x120 DUP6 ADD MSTORE PUSH1 0x10 SHR AND PUSH2 0x140 DUP4 ADD MSTORE DUP8 DUP10 ADD SLOAD PUSH2 0x160 DUP4 ADD MSTORE PUSH1 0x9 DUP10 ADD SLOAD PUSH2 0x180 DUP4 ADD MSTORE PUSH1 0xA DUP10 ADD SLOAD AND PUSH2 0x1056 DUP2 PUSH2 0x5152 JUMP JUMPDEST PUSH2 0x1A0 DUP3 ADD MSTORE DUP2 MSTORE ADD SWAP5 ADD SWAP5 ADD SWAP4 SWAP3 SWAP9 SWAP7 SWAP6 SWAP8 SWAP9 PUSH2 0xE95 JUMP JUMPDEST PUSH4 0x4E487B71 PUSH1 0xE0 SHL DUP5 MSTORE PUSH1 0x41 PUSH1 0x4 MSTORE PUSH1 0x24 DUP5 REVERT JUMPDEST POP CALLVALUE PUSH2 0x2CC JUMPI PUSH1 0x20 DUP1 PUSH1 0x3 NOT CALLDATASIZE ADD SLT PUSH2 0x34E JUMPI PUSH1 0x4 CALLDATALOAD PUSH1 0x1 PUSH1 0x1 PUSH1 0x40 SHL SUB DUP2 GT PUSH2 0x2C8 JUMPI PUSH2 0x10B6 DUP3 SWAP2 CALLDATASIZE SWAP1 PUSH1 0x4 ADD PUSH2 0x504A JUMP JUMPDEST SWAP2 SWAP1 DUP3 PUSH1 0x40 MLOAD SWAP4 DUP5 SWAP3 DUP4 CALLDATACOPY DUP2 ADD PUSH1 0xC DUP2 MSTORE SUB ADD SWAP1 KECCAK256 SWAP2 PUSH1 0x40 MLOAD DUP1 SWAP3 DUP1 DUP6 SLOAD SWAP3 DUP4 DUP2 MSTORE ADD SWAP5 DUP4 MSTORE DUP1 DUP4 KECCAK256 SWAP3 SWAP1 JUMPDEST DUP3 DUP3 LT PUSH2 0x10F9 JUMPI PUSH2 0x2C4 DUP6 PUSH2 0x32B DUP2 DUP10 SUB DUP3 PUSH2 0x5282 JUMP JUMPDEST DUP4 SLOAD DUP7 MSTORE SWAP5 DUP6 ADD SWAP5 PUSH1 0x1 SWAP4 DUP5 ADD SWAP4 SWAP1 SWAP2 ADD SWAP1 PUSH2 0x10E2 JUMP JUMPDEST POP CALLVALUE PUSH2 0x2CC JUMPI DUP1 PUSH1 0x3 NOT CALLDATASIZE ADD SLT PUSH2 0x2CC JUMPI PUSH1 0x20 PUSH1 0x40 MLOAD PUSH32 0x4967FD25E7AA667B18955D808F19FD0C86238999FF8BE2EBC72CD2CD3A83DB0 DUP2 MSTORE RETURN JUMPDEST POP CALLVALUE PUSH2 0x2CC JUMPI PUSH1 0x20 DUP1 PUSH1 0x3 NOT CALLDATASIZE ADD SLT PUSH2 0x34E JUMPI PUSH1 0x4 CALLDATALOAD SWAP1 DUP2 ISZERO ISZERO DUP1 PUSH2 0x1304 JUMPI JUMPDEST PUSH2 0x1174 SWAP1 PUSH2 0x58AE JUMP JUMPDEST DUP2 DUP4 MSTORE PUSH1 0x7 DUP2 MSTORE PUSH2 0x1195 PUSH1 0x1 DUP1 PUSH1 0xA0 SHL SUB PUSH1 0x1 PUSH1 0x40 DUP7 KECCAK256 ADD SLOAD AND CALLER EQ PUSH2 0x5829 JUMP JUMPDEST PUSH2 0x119D PUSH2 0x5806 JUMP JUMPDEST PUSH2 0x11A5 PUSH2 0x57E8 JUMP JUMPDEST DUP2 DUP4 MSTORE PUSH1 0x7 DUP2 MSTORE PUSH1 0x14 PUSH1 0x40 DUP5 KECCAK256 ADD SWAP1 DUP2 SLOAD SWAP2 PUSH1 0xFF DUP4 PUSH1 0x10 SHR AND SWAP3 PUSH1 0xB DUP5 LT ISZERO PUSH2 0x69E JUMPI DUP4 ISZERO DUP1 ISZERO PUSH2 0x12FA JUMPI JUMPDEST ISZERO PUSH2 0x12A6 JUMPI SWAP2 PUSH1 0xA SWAP2 PUSH3 0xA0000 PUSH1 0x0 DUP1 MLOAD PUSH1 0x20 PUSH2 0x5C89 DUP4 CODECOPY DUP2 MLOAD SWAP2 MSTORE SWAP6 SWAP5 PUSH3 0xFF0000 NOT AND OR SWAP1 SSTORE DUP5 PUSH32 0xB848A62EF7171019D243ED8F5B8E1E6C32CAFED0B7FC99DA26CB2FC2E7D533EC PUSH1 0x40 MLOAD PUSH1 0x40 DUP2 MSTORE DUP1 PUSH2 0x124C PUSH1 0x40 DUP3 ADD PUSH1 0x40 SWAP1 PUSH1 0xF DUP2 MSTORE PUSH15 0x189D5E595C8818D85B98D95B1B1959 PUSH1 0x8A SHL PUSH1 0x20 DUP3 ADD MSTORE ADD SWAP1 JUMP JUMPDEST TIMESTAMP DUP7 DUP4 ADD MSTORE SUB SWAP1 LOG2 PUSH2 0x1261 PUSH1 0x40 MLOAD DUP1 SWAP5 PUSH2 0x5393 JUMP JUMPDEST DUP3 ADD MSTORE PUSH1 0x80 PUSH1 0x40 DUP3 ADD MSTORE DUP1 PUSH2 0x1296 PUSH1 0x80 DUP3 ADD PUSH1 0x40 SWAP1 PUSH1 0xF DUP2 MSTORE PUSH15 0x189D5E595C8818D85B98D95B1B1959 PUSH1 0x8A SHL PUSH1 0x20 DUP3 ADD MSTORE ADD SWAP1 JUMP JUMPDEST TIMESTAMP PUSH1 0x60 DUP4 ADD MSTORE SUB SWAP1 LOG2 PUSH1 0x1 DUP1 SSTORE DUP1 RETURN JUMPDEST PUSH1 0x40 MLOAD PUSH3 0x461BCD PUSH1 0xE5 SHL DUP2 MSTORE PUSH1 0x4 DUP2 ADD DUP5 SWAP1 MSTORE PUSH1 0x26 PUSH1 0x24 DUP3 ADD MSTORE PUSH32 0x4F7074696F6E73436F72653A2063616E6E6F742063616E63656C206166746572 PUSH1 0x44 DUP3 ADD MSTORE PUSH6 0x40DAC2E8C6D PUSH1 0xD3 SHL PUSH1 0x64 DUP3 ADD MSTORE PUSH1 0x84 SWAP1 REVERT JUMPDEST POP PUSH1 0x1 DUP5 EQ PUSH2 0x11D1 JUMP JUMPDEST POP PUSH1 0x5 SLOAD DUP3 LT PUSH2 0x116B JUMP JUMPDEST POP CALLVALUE PUSH2 0x2CC JUMPI PUSH1 0x20 CALLDATASIZE PUSH1 0x3 NOT ADD SLT PUSH2 0x2CC JUMPI PUSH2 0x1329 PUSH2 0x5087 JUMP JUMPDEST PUSH2 0x1331 PUSH2 0x53BC JUMP JUMPDEST PUSH1 0x1 DUP1 PUSH1 0xA0 SHL SUB AND PUSH12 0xFFFFFFFFFFFFFFFFFFFFFFFF PUSH1 0xA0 SHL PUSH1 0x3 SLOAD AND OR PUSH1 0x3 SSTORE DUP1 RETURN JUMPDEST POP CALLVALUE PUSH2 0x2CC JUMPI PUSH1 0x20 CALLDATASIZE PUSH1 0x3 NOT ADD SLT PUSH2 0x2CC JUMPI PUSH1 0x4 CALLDATALOAD DUP2 MSTORE PUSH1 0x7 PUSH1 0x20 MSTORE PUSH1 0x40 SWAP1 KECCAK256 PUSH2 0x100 DUP2 SWAP1 MSTORE DUP1 SLOAD PUSH1 0xE0 MSTORE PUSH1 0x1 DUP2 ADD SLOAD PUSH1 0x2 DUP3 ADD SLOAD PUSH1 0x1 PUSH1 0x1 PUSH1 0xA0 SHL SUB SWAP1 DUP2 AND PUSH2 0x1E0 MSTORE AND SWAP1 PUSH2 0x13A6 SWAP1 PUSH1 0x3 ADD PUSH2 0x52A3 JUMP JUMPDEST PUSH2 0x160 MSTORE PUSH2 0x100 MLOAD PUSH1 0x4 ADD PUSH2 0x13BA SWAP1 PUSH2 0x52A3 JUMP JUMPDEST PUSH2 0x100 MLOAD PUSH1 0x5 ADD PUSH2 0x13CA SWAP1 PUSH2 0x52A3 JUMP JUMPDEST SWAP2 PUSH2 0x100 MLOAD PUSH1 0x6 ADD PUSH2 0x13DB SWAP1 PUSH2 0x52A3 JUMP JUMPDEST SWAP2 PUSH2 0x100 MLOAD PUSH1 0x7 ADD PUSH2 0x13EC SWAP1 PUSH2 0x52A3 JUMP JUMPDEST SWAP4 PUSH2 0x100 MLOAD SWAP4 PUSH1 0x8 DUP6 ADD SLOAD PUSH1 0xFF AND PUSH2 0x1A0 MSTORE PUSH1 0x9 DUP6 ADD SLOAD SWAP6 PUSH1 0xA DUP7 ADD SLOAD PUSH1 0xB DUP8 ADD SLOAD SWAP2 PUSH1 0xC DUP9 ADD SLOAD SWAP4 PUSH1 0xD DUP10 ADD SLOAD SWAP6 PUSH1 0xE DUP11 ADD SLOAD SWAP8 PUSH1 0xF DUP12 ADD SLOAD SWAP10 PUSH1 0x10 DUP13 ADD SLOAD SWAP12 PUSH1 0x11 DUP2 ADD SLOAD PUSH2 0x220 MSTORE PUSH1 0x12 DUP2 ADD SLOAD PUSH2 0x180 MSTORE PUSH1 0x13 DUP2 ADD SLOAD PUSH2 0x140 MSTORE PUSH1 0x14 DUP2 ADD SLOAD PUSH1 0xC0 MSTORE PUSH1 0x15 DUP2 ADD SLOAD PUSH2 0x240 MSTORE PUSH1 0x16 DUP2 ADD SLOAD PUSH1 0x80 MSTORE PUSH1 0x17 DUP2 ADD SLOAD PUSH1 0xA0 MSTORE PUSH1 0x18 DUP2 ADD SLOAD PUSH2 0x200 MSTORE PUSH1 0x19 ADD SLOAD PUSH2 0x1C0 MSTORE PUSH1 0x40 MLOAD DUP1 PUSH2 0x120 MSTORE PUSH1 0xE0 MLOAD SWAP1 MSTORE PUSH2 0x120 MLOAD PUSH1 0x20 ADD MSTORE PUSH2 0x1E0 MLOAD PUSH2 0x120 MLOAD PUSH1 0x40 ADD MSTORE PUSH2 0x420 DUP1 PUSH2 0x120 MLOAD PUSH1 0x60 ADD MSTORE PUSH2 0x120 MLOAD ADD PUSH2 0x160 MLOAD SWAP1 PUSH2 0x14BA SWAP2 PUSH2 0x5349 JUMP JUMPDEST PUSH2 0x120 MLOAD DUP1 DUP3 SUB SWAP1 PUSH1 0x80 ADD MSTORE PUSH2 0x14CF SWAP2 PUSH2 0x5349 JUMP JUMPDEST PUSH2 0x120 MLOAD DUP1 DUP3 SUB SWAP1 PUSH1 0xA0 ADD MSTORE PUSH2 0x14E4 SWAP2 PUSH2 0x5349 JUMP JUMPDEST PUSH2 0x120 MLOAD DUP1 DUP3 SUB SWAP1 PUSH1 0xC0 ADD MSTORE PUSH2 0x14F9 SWAP2 PUSH2 0x5349 JUMP JUMPDEST PUSH2 0x120 MLOAD DUP1 DUP3 SUB SWAP1 PUSH1 0xE0 ADD MSTORE PUSH2 0x150E SWAP2 PUSH2 0x5349 JUMP JUMPDEST SWAP8 PUSH2 0x1A0 MLOAD PUSH2 0x151C SWAP1 PUSH2 0x5389 JUMP JUMPDEST PUSH2 0x1A0 MLOAD PUSH2 0x120 MLOAD PUSH2 0x100 ADD MSTORE PUSH2 0x120 MLOAD PUSH2 0x120 ADD MSTORE PUSH2 0x120 MLOAD PUSH2 0x140 ADD MSTORE PUSH2 0x120 MLOAD PUSH2 0x160 ADD MSTORE PUSH2 0x120 MLOAD PUSH2 0x180 ADD MSTORE PUSH2 0x120 MLOAD PUSH2 0x1A0 ADD MSTORE PUSH2 0x120 MLOAD PUSH2 0x1C0 ADD MSTORE PUSH2 0x120 MLOAD PUSH2 0x1E0 ADD MSTORE PUSH2 0x120 MLOAD PUSH2 0x200 ADD MSTORE PUSH2 0x220 MLOAD PUSH1 0xFF AND PUSH2 0x1581 SWAP1 PUSH2 0x5132 JUMP JUMPDEST PUSH2 0x220 MLOAD PUSH1 0xFF AND PUSH2 0x120 MLOAD PUSH2 0x220 ADD MSTORE PUSH2 0x220 MLOAD PUSH1 0x8 SHR PUSH1 0xFF AND PUSH2 0x120 MLOAD PUSH2 0x240 ADD MSTORE PUSH2 0x220 MLOAD PUSH1 0x10 SHR PUSH1 0xFF AND PUSH2 0x120 MLOAD PUSH2 0x260 ADD MSTORE PUSH2 0x220 MLOAD PUSH1 0x18 SHR PUSH1 0xFF AND PUSH2 0x120 MLOAD PUSH2 0x280 ADD MSTORE PUSH2 0x220 MLOAD PUSH1 0x20 SHR PUSH1 0xFF AND PUSH2 0x15DD SWAP1 PUSH2 0x5132 JUMP JUMPDEST PUSH2 0x220 MLOAD PUSH1 0x20 SHR PUSH1 0xFF AND PUSH2 0x120 MLOAD PUSH2 0x2A0 ADD MSTORE PUSH1 0x1 PUSH1 0xA0 SHL PUSH1 0x1 SWAP1 SUB PUSH2 0x220 MLOAD PUSH1 0x28 SHR AND PUSH2 0x120 MLOAD PUSH2 0x2C0 ADD MSTORE PUSH2 0x180 MLOAD PUSH2 0x120 MLOAD PUSH2 0x2E0 ADD MSTORE PUSH2 0x140 MLOAD PUSH2 0x120 MLOAD PUSH2 0x300 ADD MSTORE PUSH1 0xC0 MLOAD PUSH1 0xFF AND ISZERO ISZERO PUSH2 0x120 MLOAD PUSH2 0x320 ADD MSTORE PUSH1 0xC0 MLOAD PUSH1 0x8 SHR PUSH1 0xFF AND PUSH2 0x1647 SWAP1 PUSH2 0x5389 JUMP JUMPDEST PUSH1 0xC0 MLOAD PUSH1 0x8 SHR PUSH1 0xFF AND PUSH2 0x120 MLOAD PUSH2 0x340 ADD MSTORE PUSH2 0x120 MLOAD PUSH2 0x360 ADD PUSH1 0xC0 MLOAD PUSH1 0x10 SHR PUSH1 0xFF AND SWAP1 PUSH2 0x1674 SWAP2 PUSH2 0x5393 JUMP JUMPDEST PUSH2 0x240 MLOAD PUSH2 0x120 MLOAD PUSH2 0x380 ADD MSTORE PUSH1 0x80 MLOAD PUSH2 0x120 MLOAD PUSH2 0x3A0 ADD MSTORE PUSH1 0xA0 MLOAD PUSH2 0x120 MLOAD PUSH2 0x3C0 ADD MSTORE PUSH2 0x200 MLOAD PUSH2 0x120 MLOAD PUSH2 0x3E0 ADD MSTORE PUSH2 0x1C0 MLOAD PUSH2 0x120 MLOAD PUSH2 0x400 ADD MSTORE PUSH2 0x120 MLOAD DUP1 SWAP2 SUB SWAP1 RETURN JUMPDEST POP CALLVALUE PUSH2 0x2CC JUMPI PUSH1 0x20 CALLDATASIZE PUSH1 0x3 NOT ADD SLT PUSH2 0x2CC JUMPI PUSH1 0x40 SWAP1 PUSH1 0x4 CALLDATALOAD DUP2 MSTORE PUSH1 0x9 PUSH1 0x20 MSTORE KECCAK256 DUP1 SLOAD SWAP1 PUSH2 0x2C4 PUSH1 0x1 DUP3 ADD SLOAD PUSH1 0x2 DUP4 ADD SLOAD SWAP3 PUSH1 0x3 DUP2 ADD SLOAD SWAP5 PUSH1 0x4 DUP3 ADD SLOAD SWAP3 PUSH1 0x5 DUP4 ADD SLOAD SWAP2 PUSH1 0x6 DUP5 ADD SLOAD SWAP1 PUSH1 0x7 DUP6 ADD SLOAD SWAP2 PUSH1 0x8 DUP7 ADD SLOAD SWAP5 PUSH1 0xFF PUSH1 0xA PUSH1 0x9 DUP10 ADD SLOAD SWAP9 ADD SLOAD AND SWAP8 PUSH1 0x40 MLOAD SWAP12 DUP13 SWAP12 DUP13 PUSH1 0xFF DUP9 PUSH1 0x10 SHR AND SWAP9 PUSH1 0xFF DUP1 DUP11 PUSH1 0x8 SHR AND SWAP10 AND SWAP8 PUSH1 0xFF DUP5 PUSH1 0xA0 SHR AND SWAP4 PUSH1 0x1 DUP1 PUSH1 0xA0 SHL SUB AND SWAP3 PUSH2 0x515C JUMP JUMPDEST POP CALLVALUE PUSH2 0x2CC JUMPI PUSH1 0x20 DUP1 PUSH1 0x3 NOT CALLDATASIZE ADD SLT PUSH2 0x34E JUMPI PUSH1 0x1 PUSH1 0x1 PUSH1 0xA0 SHL SUB PUSH2 0x1773 PUSH2 0x5087 JUMP JUMPDEST AND DUP3 MSTORE PUSH1 0xA DUP2 MSTORE PUSH1 0x40 DUP3 KECCAK256 SWAP2 PUSH1 0x40 MLOAD DUP1 SWAP3 DUP1 DUP6 SLOAD SWAP3 DUP4 DUP2 MSTORE ADD SWAP5 DUP4 MSTORE DUP1 DUP4 KECCAK256 SWAP3 SWAP1 JUMPDEST DUP3 DUP3 LT PUSH2 0x17AC JUMPI PUSH2 0x2C4 DUP6 PUSH2 0x32B DUP2 DUP10 SUB DUP3 PUSH2 0x5282 JUMP JUMPDEST DUP4 SLOAD DUP7 MSTORE SWAP5 DUP6 ADD SWAP5 PUSH1 0x1 SWAP4 DUP5 ADD SWAP4 SWAP1 SWAP2 ADD SWAP1 PUSH2 0x1795 JUMP JUMPDEST POP CALLVALUE PUSH2 0x2CC JUMPI DUP1 PUSH1 0x3 NOT CALLDATASIZE ADD SLT PUSH2 0x2CC JUMPI PUSH1 0x20 SWAP1 PUSH1 0x40 MLOAD SWAP1 DUP2 MSTORE RETURN JUMPDEST POP CALLVALUE PUSH2 0x2CC JUMPI PUSH2 0x260 CALLDATASIZE PUSH1 0x3 NOT ADD SLT PUSH2 0x2CC JUMPI PUSH1 0x4 CALLDATALOAD PUSH1 0x1 PUSH1 0x1 PUSH1 0x40 SHL SUB DUP2 GT PUSH2 0x34E JUMPI PUSH2 0x1811 SWAP1 CALLDATASIZE SWAP1 PUSH1 0x4 ADD PUSH2 0x504A JUMP JUMPDEST PUSH1 0x24 CALLDATALOAD PUSH1 0x1 PUSH1 0x1 PUSH1 0x40 SHL SUB DUP2 GT PUSH2 0x884 JUMPI PUSH2 0x1830 SWAP1 CALLDATASIZE SWAP1 PUSH1 0x4 ADD PUSH2 0x504A JUMP JUMPDEST SWAP1 PUSH1 0x44 CALLDATALOAD PUSH1 0x1 PUSH1 0x1 PUSH1 0x40 SHL SUB DUP2 GT PUSH2 0x20A7 JUMPI PUSH2 0x1850 SWAP1 CALLDATASIZE SWAP1 PUSH1 0x4 ADD PUSH2 0x504A JUMP JUMPDEST SWAP1 PUSH1 0x64 CALLDATALOAD PUSH1 0x1 PUSH1 0x1 PUSH1 0x40 SHL SUB DUP2 GT PUSH2 0x20A3 JUMPI PUSH2 0x1870 SWAP1 CALLDATASIZE SWAP1 PUSH1 0x4 ADD PUSH2 0x504A JUMP JUMPDEST SWAP1 PUSH1 0x84 CALLDATALOAD PUSH1 0x1 PUSH1 0x1 PUSH1 0x40 SHL SUB DUP2 GT PUSH2 0x209F JUMPI PUSH2 0x1890 SWAP1 CALLDATASIZE SWAP1 PUSH1 0x4 ADD PUSH2 0x504A JUMP JUMPDEST SWAP10 SWAP1 SWAP9 PUSH1 0x2 PUSH1 0xA4 CALLDATALOAD LT ISZERO PUSH2 0x34E JUMPI PUSH1 0x3 PUSH2 0x144 CALLDATALOAD LT ISZERO PUSH2 0x34E JUMPI PUSH2 0x164 CALLDATALOAD PUSH1 0x1 PUSH1 0x1 PUSH1 0xA0 SHL SUB DUP2 AND SWAP1 SUB PUSH2 0x2046 JUMPI PUSH2 0x18C6 PUSH2 0x5077 JUMP JUMPDEST PUSH1 0x3 PUSH2 0x1E4 CALLDATALOAD LT ISZERO PUSH2 0x2C8 JUMPI PUSH1 0xFF PUSH2 0x204 CALLDATALOAD AND PUSH2 0x204 CALLDATALOAD SUB PUSH2 0x2046 JUMPI PUSH1 0xFF PUSH2 0x224 CALLDATALOAD AND PUSH2 0x224 CALLDATALOAD SUB PUSH2 0x2046 JUMPI PUSH1 0x2 PUSH2 0x244 CALLDATALOAD LT ISZERO PUSH2 0x2C8 JUMPI PUSH2 0x1906 PUSH2 0x5806 JUMP JUMPDEST PUSH2 0x190E PUSH2 0x57E8 JUMP JUMPDEST PUSH2 0x191B PUSH1 0xC4 CALLDATALOAD ISZERO ISZERO PUSH2 0x552D JUMP JUMPDEST PUSH2 0x1928 TIMESTAMP PUSH1 0xE4 CALLDATALOAD GT PUSH2 0x5588 JUMP JUMPDEST PUSH1 0x2 SLOAD PUSH1 0x40 MLOAD PUSH4 0x5D8EB687 PUSH1 0xE0 SHL DUP2 MSTORE SWAP1 PUSH1 0x8 SHR PUSH1 0x1 PUSH1 0x1 PUSH1 0xA0 SHL SUB AND PUSH1 0x20 DUP3 PUSH1 0x4 DUP2 DUP5 GAS STATICCALL SWAP2 DUP3 ISZERO PUSH2 0x2094 JUMPI DUP6 SWAP3 PUSH2 0x205E JUMPI JUMPDEST POP PUSH2 0x196E PUSH1 0x4 SWAP3 PUSH2 0x124 CALLDATALOAD LT ISZERO PUSH2 0x55E2 JUMP JUMPDEST DUP2 SLOAD PUSH1 0x3 SLOAD PUSH1 0x40 MLOAD PUSH4 0x37382D39 PUSH1 0xE2 SHL DUP2 MSTORE SWAP4 PUSH1 0x1 PUSH1 0x1 PUSH1 0xA0 SHL SUB SWAP3 DUP4 AND SWAP4 SWAP3 SWAP1 SWAP2 AND SWAP2 PUSH1 0x20 SWAP2 DUP6 SWAP2 DUP3 SWAP1 GAS STATICCALL SWAP2 DUP3 ISZERO PUSH2 0x2053 JUMPI DUP7 SWAP3 PUSH2 0x2018 JUMPI JUMPDEST PUSH2 0x19B5 SWAP4 POP CALLER SWAP1 PUSH2 0x5741 JUMP JUMPDEST PUSH1 0x5 SLOAD SWAP10 PUSH2 0x19C2 DUP12 PUSH2 0x562D JUMP JUMPDEST PUSH1 0x5 SSTORE DUP11 DUP5 MSTORE PUSH1 0x7 PUSH1 0x20 MSTORE PUSH1 0x40 DUP5 KECCAK256 DUP12 DUP2 SSTORE PUSH1 0x1 DUP2 ADD DUP1 SLOAD PUSH1 0x1 PUSH1 0x1 PUSH1 0xA0 SHL SUB NOT AND CALLER OR SWAP1 SSTORE SWAP3 PUSH1 0x1 PUSH1 0x1 PUSH1 0x40 SHL SUB DUP3 GT PUSH2 0x2004 JUMPI DUP2 SWAP1 PUSH2 0x1A13 DUP3 PUSH2 0x1A0A PUSH1 0x3 DUP9 ADD SLOAD PUSH2 0x51E7 JUMP JUMPDEST PUSH1 0x3 DUP9 ADD PUSH2 0x5652 JUMP JUMPDEST DUP6 SWAP1 PUSH1 0x1F DUP4 GT PUSH1 0x1 EQ PUSH2 0x1F98 JUMPI DUP7 SWAP3 PUSH2 0x1F8D JUMPI JUMPDEST POP POP DUP2 PUSH1 0x1 SHL SWAP2 PUSH1 0x0 NOT SWAP1 PUSH1 0x3 SHL SHR NOT AND OR PUSH1 0x3 DUP4 ADD SSTORE JUMPDEST PUSH1 0x1 PUSH1 0x1 PUSH1 0x40 SHL SUB DUP10 GT PUSH2 0x1E18 JUMPI PUSH2 0x1A67 DUP10 PUSH2 0x1A5E PUSH1 0x4 DUP6 ADD SLOAD PUSH2 0x51E7 JUMP JUMPDEST PUSH1 0x4 DUP6 ADD PUSH2 0x5652 JUMP JUMPDEST DUP9 DUP4 PUSH1 0x1F DUP3 GT PUSH1 0x1 EQ PUSH2 0x1F21 JUMPI DUP5 SWAP2 PUSH2 0x1F16 JUMPI JUMPDEST POP DUP10 PUSH1 0x1 SHL SWAP1 PUSH1 0x0 NOT DUP12 PUSH1 0x3 SHL SHR NOT AND OR PUSH1 0x4 DUP4 ADD SSTORE JUMPDEST PUSH1 0x1 PUSH1 0x1 PUSH1 0x40 SHL SUB DUP8 GT PUSH2 0x1E18 JUMPI PUSH2 0x1ABA DUP8 PUSH2 0x1AB1 PUSH1 0x5 DUP6 ADD SLOAD PUSH2 0x51E7 JUMP JUMPDEST PUSH1 0x5 DUP6 ADD PUSH2 0x5652 JUMP JUMPDEST DUP7 DUP4 PUSH1 0x1F DUP3 GT PUSH1 0x1 EQ PUSH2 0x1EAC JUMPI DUP5 SWAP2 PUSH2 0x1EA1 JUMPI JUMPDEST POP DUP8 PUSH1 0x1 SHL SWAP1 PUSH1 0x0 NOT DUP10 PUSH1 0x3 SHL SHR NOT AND OR PUSH1 0x5 DUP4 ADD SSTORE JUMPDEST PUSH1 0x1 PUSH1 0x1 PUSH1 0x40 SHL SUB DUP6 GT PUSH2 0x1E18 JUMPI PUSH2 0x1B0D DUP6 PUSH2 0x1B04 PUSH1 0x6 DUP6 ADD SLOAD PUSH2 0x51E7 JUMP JUMPDEST PUSH1 0x6 DUP6 ADD PUSH2 0x5652 JUMP JUMPDEST DUP5 DUP4 PUSH1 0x1F DUP3 GT PUSH1 0x1 EQ PUSH2 0x1E37 JUMPI DUP5 SWAP2 PUSH2 0x1E2C JUMPI JUMPDEST POP DUP6 PUSH1 0x1 SHL SWAP1 PUSH1 0x0 NOT DUP8 PUSH1 0x3 SHL SHR NOT AND OR PUSH1 0x6 DUP4 ADD SSTORE JUMPDEST PUSH1 0x1 PUSH1 0x1 PUSH1 0x40 SHL SUB DUP13 GT PUSH2 0x1E18 JUMPI DUP12 PUSH2 0x1B63 PUSH1 0x20 SWAP14 PUSH2 0x1B5A PUSH1 0x7 DUP7 ADD SLOAD PUSH2 0x51E7 JUMP JUMPDEST PUSH1 0x7 DUP7 ADD PUSH2 0x5652 JUMP JUMPDEST DUP4 SWAP12 PUSH1 0x1F DUP3 GT PUSH1 0x1 EQ PUSH2 0x1D85 JUMPI SWAP11 PUSH2 0x1CDF SWAP7 DUP15 DUP3 SWAP15 SWAP8 PUSH2 0x1CAF PUSH2 0x1CF7 SWAP16 DUP6 SWAP16 SWAP15 SWAP13 SWAP8 DUP11 DUP6 SWAP16 SWAP12 SWAP11 PUSH1 0x40 SWAP3 DUP11 DUP11 SWAP16 SWAP12 PUSH2 0x1CC7 SWAP13 DUP11 SWAP16 SWAP8 DUP14 SWAP9 SWAP3 PUSH2 0x1D7A JUMPI JUMPDEST POP POP DUP2 PUSH1 0x1 SHL SWAP2 PUSH1 0x0 NOT SWAP1 PUSH1 0x3 SHL SHR NOT AND OR PUSH1 0x7 DUP4 ADD SSTORE JUMPDEST PUSH2 0x1BC7 PUSH1 0xA4 CALLDATALOAD PUSH1 0x8 DUP5 ADD PUSH2 0x56A6 JUMP JUMPDEST PUSH1 0xC4 CALLDATALOAD PUSH1 0x9 DUP4 ADD SSTORE PUSH1 0xE4 CALLDATALOAD PUSH1 0xB DUP4 ADD SSTORE PUSH2 0x104 CALLDATALOAD PUSH1 0xC DUP4 ADD SSTORE PUSH2 0x124 CALLDATALOAD PUSH1 0x10 DUP4 ADD SSTORE PUSH2 0x1C85 PUSH1 0x11 DUP4 ADD PUSH2 0x1BFD PUSH2 0x144 CALLDATALOAD DUP3 PUSH2 0x56BE JUMP JUMPDEST DUP1 SLOAD PUSH6 0x10000000000 PUSH1 0x1 PUSH1 0xC8 SHL SUB NOT AND PUSH2 0x164 CALLDATALOAD PUSH1 0x28 SHL PUSH6 0x10000000000 PUSH1 0x1 PUSH1 0xC8 SHL SUB AND OR DUP2 SSTORE PUSH2 0x184 CALLDATALOAD PUSH1 0x12 DUP6 ADD SSTORE PUSH2 0x1A4 CALLDATALOAD PUSH1 0x13 DUP6 ADD SSTORE PUSH1 0x14 DUP5 ADD DUP1 SLOAD SWAP4 ISZERO ISZERO PUSH1 0xFF AND PUSH1 0xFF NOT SWAP5 SWAP1 SWAP5 AND SWAP4 SWAP1 SWAP4 OR DUP4 SSTORE PUSH2 0x1C5E PUSH2 0x1E4 CALLDATALOAD DUP3 PUSH2 0x56E3 JUMP JUMPDEST DUP1 SLOAD PUSH3 0xFF0000 PUSH2 0x224 CALLDATALOAD PUSH1 0x10 SHL AND PUSH3 0xFFFF00 NOT SWAP1 SWAP2 AND PUSH2 0xFF00 PUSH2 0x204 CALLDATALOAD PUSH1 0x8 SHL AND OR OR SWAP1 SSTORE JUMP JUMPDEST PUSH2 0x1C92 PUSH2 0x244 CALLDATALOAD DUP3 PUSH2 0x56ED JUMP JUMPDEST PUSH3 0xFF0000 NOT DUP2 SLOAD AND SWAP1 SSTORE PUSH1 0x15 TIMESTAMP SWAP2 ADD SSTORE CALLER DUP2 MSTORE PUSH1 0xA DUP7 MSTORE KECCAK256 PUSH2 0x570C JUMP JUMPDEST DUP3 PUSH1 0x40 MLOAD SWAP4 DUP5 SWAP3 DUP4 CALLDATACOPY DUP2 ADD PUSH1 0xC DUP2 MSTORE SUB ADD SWAP1 KECCAK256 PUSH2 0x570C JUMP JUMPDEST DUP3 PUSH1 0x40 MLOAD SWAP4 DUP5 SWAP3 DUP4 CALLDATACOPY DUP2 ADD PUSH1 0xD DUP2 MSTORE SUB ADD SWAP1 KECCAK256 PUSH2 0x570C JUMP JUMPDEST DUP3 PUSH1 0x40 MLOAD SWAP4 DUP5 SWAP3 DUP4 CALLDATACOPY DUP2 ADD PUSH1 0xE DUP2 MSTORE SUB ADD SWAP1 KECCAK256 PUSH2 0x570C JUMP JUMPDEST PUSH1 0x40 MLOAD PUSH1 0x1 DUP2 MSTORE TIMESTAMP DUP4 DUP3 ADD MSTORE DUP2 PUSH32 0xC0C6ED2669FEBBE340D8737E8EC17254FFD9E038B54A4585FF70AC3CA18956AA PUSH1 0x40 CALLER SWAP4 LOG3 DUP1 PUSH1 0x0 DUP1 MLOAD PUSH1 0x20 PUSH2 0x5C89 DUP4 CODECOPY DUP2 MLOAD SWAP2 MSTORE PUSH1 0xC0 PUSH1 0x40 MLOAD PUSH1 0x0 DUP2 MSTORE PUSH1 0x0 DUP7 DUP3 ADD MSTORE PUSH1 0x80 PUSH1 0x40 DUP3 ADD MSTORE PUSH1 0x7 PUSH1 0x80 DUP3 ADD MSTORE PUSH7 0x18DC99585D1959 PUSH1 0xCA SHL PUSH1 0xA0 DUP3 ADD MSTORE TIMESTAMP PUSH1 0x60 DUP3 ADD MSTORE LOG2 PUSH1 0x1 DUP1 SSTORE PUSH1 0x40 MLOAD SWAP1 DUP2 MSTORE RETURN JUMPDEST ADD CALLDATALOAD SWAP1 POP CODESIZE DUP1 PUSH2 0x1BA0 JUMP JUMPDEST PUSH1 0x7 DUP5 ADD DUP6 MSTORE DUP14 DUP6 KECCAK256 SWAP1 DUP6 SWAP14 DUP15 JUMPDEST PUSH1 0x1F NOT DUP6 AND GT PUSH2 0x1E00 JUMPI DUP16 SWAP11 SWAP7 DUP15 SWAP16 POP SWAP8 PUSH2 0x1CAF PUSH2 0x1CF7 SWAP16 SWAP15 SWAP14 SWAP12 SWAP7 DUP16 SWAP11 PUSH1 0x40 SWAP1 DUP16 SWAP11 DUP14 SWAP9 SWAP4 PUSH2 0x1CDF SWAP16 SWAP9 DUP12 DUP12 SWAP7 DUP16 SWAP11 SWAP3 PUSH1 0x1 SWAP4 PUSH2 0x1CC7 SWAP16 PUSH1 0x1F NOT DUP2 AND LT PUSH2 0x1DE6 JUMPI JUMPDEST POP POP POP DUP2 SHL ADD PUSH1 0x7 DUP4 ADD SSTORE PUSH2 0x1BB8 JUMP JUMPDEST ADD CALLDATALOAD PUSH1 0x0 NOT PUSH1 0x3 DUP5 SWAP1 SHL PUSH1 0xF8 AND SHR NOT AND SWAP1 SSTORE CODESIZE DUP1 DUP1 PUSH2 0x1DD6 JUMP JUMPDEST SWAP2 DUP16 PUSH1 0x1 DUP2 SWAP3 DUP6 DUP6 ADD CALLDATALOAD DUP2 SSTORE ADD SWAP4 ADD SWAP15 ADD SWAP14 DUP15 PUSH2 0x1D93 JUMP JUMPDEST PUSH4 0x4E487B71 PUSH1 0xE0 SHL DUP4 MSTORE PUSH1 0x41 PUSH1 0x4 MSTORE PUSH1 0x24 DUP4 REVERT JUMPDEST SWAP1 POP DUP5 ADD CALLDATALOAD CODESIZE PUSH2 0x1B21 JUMP JUMPDEST PUSH1 0x6 DUP5 ADD DUP6 MSTORE PUSH1 0x20 DUP6 KECCAK256 SWAP2 POP DUP5 JUMPDEST PUSH1 0x1F NOT DUP9 AND DUP2 LT PUSH2 0x1E89 JUMPI POP DUP7 PUSH1 0x1F NOT DUP2 AND LT PUSH2 0x1E6F JUMPI JUMPDEST POP POP PUSH1 0x1 DUP6 DUP2 SHL ADD PUSH1 0x6 DUP4 ADD SSTORE PUSH2 0x1B38 JUMP JUMPDEST DUP6 ADD CALLDATALOAD PUSH1 0x0 NOT PUSH1 0x3 DUP9 SWAP1 SHL PUSH1 0xF8 AND SHR NOT AND SWAP1 SSTORE CODESIZE DUP1 PUSH2 0x1E5D JUMP JUMPDEST SWAP1 SWAP2 PUSH1 0x20 PUSH1 0x1 DUP2 SWAP3 DUP6 DUP11 ADD CALLDATALOAD DUP2 SSTORE ADD SWAP4 ADD SWAP2 ADD PUSH2 0x1E45 JUMP JUMPDEST SWAP1 POP DUP7 ADD CALLDATALOAD CODESIZE PUSH2 0x1ACE JUMP JUMPDEST PUSH1 0x5 DUP5 ADD DUP6 MSTORE PUSH1 0x20 DUP6 KECCAK256 SWAP2 POP DUP5 JUMPDEST PUSH1 0x1F NOT DUP11 AND DUP2 LT PUSH2 0x1EFE JUMPI POP DUP9 PUSH1 0x1F NOT DUP2 AND LT PUSH2 0x1EE4 JUMPI JUMPDEST POP POP PUSH1 0x1 DUP8 DUP2 SHL ADD PUSH1 0x5 DUP4 ADD SSTORE PUSH2 0x1AE5 JUMP JUMPDEST DUP8 ADD CALLDATALOAD PUSH1 0x0 NOT PUSH1 0x3 DUP11 SWAP1 SHL PUSH1 0xF8 AND SHR NOT AND SWAP1 SSTORE CODESIZE DUP1 PUSH2 0x1ED2 JUMP JUMPDEST SWAP1 SWAP2 PUSH1 0x20 PUSH1 0x1 DUP2 SWAP3 DUP6 DUP13 ADD CALLDATALOAD DUP2 SSTORE ADD SWAP4 ADD SWAP2 ADD PUSH2 0x1EBA JUMP JUMPDEST SWAP1 POP DUP9 ADD CALLDATALOAD CODESIZE PUSH2 0x1A7B JUMP JUMPDEST PUSH1 0x4 DUP5 ADD DUP6 MSTORE PUSH1 0x20 DUP6 KECCAK256 SWAP2 POP DUP5 JUMPDEST DUP11 PUSH1 0x1F NOT DUP14 AND DUP3 LT PUSH2 0x1F75 JUMPI POP POP DUP11 PUSH1 0x1F NOT DUP2 AND LT PUSH2 0x1F5B JUMPI JUMPDEST POP POP PUSH1 0x1 DUP10 DUP2 SHL ADD PUSH1 0x4 DUP4 ADD SSTORE PUSH2 0x1A92 JUMP JUMPDEST DUP10 ADD CALLDATALOAD PUSH1 0x0 NOT PUSH1 0x3 DUP13 SWAP1 SHL PUSH1 0xF8 AND SHR NOT AND SWAP1 SSTORE CODESIZE DUP1 PUSH2 0x1F49 JUMP JUMPDEST PUSH1 0x1 DUP4 SWAP5 PUSH1 0x20 SWAP4 SWAP5 DUP5 SWAP4 ADD CALLDATALOAD DUP2 SSTORE ADD SWAP4 ADD SWAP2 ADD PUSH2 0x1F2F JUMP JUMPDEST ADD CALLDATALOAD SWAP1 POP CODESIZE DUP1 PUSH2 0x1A27 JUMP JUMPDEST PUSH1 0x3 DUP7 ADD DUP8 MSTORE PUSH1 0x20 DUP8 KECCAK256 DUP8 SWAP5 POP SWAP2 JUMPDEST PUSH1 0x1F NOT DUP5 AND DUP6 LT PUSH2 0x1FEC JUMPI PUSH1 0x1 SWAP5 POP DUP4 PUSH1 0x1F NOT DUP2 AND LT PUSH2 0x1FD2 JUMPI JUMPDEST POP POP POP DUP2 SHL ADD PUSH1 0x3 DUP4 ADD SSTORE PUSH2 0x1A3F JUMP JUMPDEST ADD CALLDATALOAD PUSH1 0x0 NOT PUSH1 0x3 DUP5 SWAP1 SHL PUSH1 0xF8 AND SHR NOT AND SWAP1 SSTORE CODESIZE DUP1 DUP1 PUSH2 0x1FC2 JUMP JUMPDEST DUP2 DUP2 ADD CALLDATALOAD DUP4 SSTORE PUSH1 0x20 SWAP5 DUP6 ADD SWAP5 PUSH1 0x1 SWAP1 SWAP4 ADD SWAP3 ADD PUSH2 0x1FA7 JUMP JUMPDEST PUSH4 0x4E487B71 PUSH1 0xE0 SHL DUP6 MSTORE PUSH1 0x41 PUSH1 0x4 MSTORE PUSH1 0x24 DUP6 REVERT JUMPDEST SWAP2 POP PUSH1 0x20 DUP4 RETURNDATASIZE PUSH1 0x20 GT PUSH2 0x204B JUMPI JUMPDEST DUP2 PUSH2 0x2033 PUSH1 0x20 SWAP4 DUP4 PUSH2 0x5282 JUMP JUMPDEST DUP2 ADD SUB SLT PUSH2 0x2046 JUMPI PUSH2 0x19B5 SWAP3 MLOAD SWAP2 PUSH2 0x19A9 JUMP JUMPDEST PUSH1 0x0 DUP1 REVERT JUMPDEST RETURNDATASIZE SWAP2 POP PUSH2 0x2026 JUMP JUMPDEST PUSH1 0x40 MLOAD RETURNDATASIZE DUP9 DUP3 RETURNDATACOPY RETURNDATASIZE SWAP1 REVERT JUMPDEST SWAP2 POP PUSH1 0x20 DUP3 RETURNDATASIZE PUSH1 0x20 GT PUSH2 0x208C JUMPI JUMPDEST DUP2 PUSH2 0x2079 PUSH1 0x20 SWAP4 DUP4 PUSH2 0x5282 JUMP JUMPDEST DUP2 ADD SUB SLT PUSH2 0x2046 JUMPI SWAP1 MLOAD SWAP1 PUSH2 0x196E PUSH2 0x195C JUMP JUMPDEST RETURNDATASIZE SWAP2 POP PUSH2 0x206C JUMP JUMPDEST PUSH1 0x40 MLOAD RETURNDATASIZE DUP8 DUP3 RETURNDATACOPY RETURNDATASIZE SWAP1 REVERT JUMPDEST DUP10 DUP1 REVERT JUMPDEST DUP8 DUP1 REVERT JUMPDEST DUP6 DUP1 REVERT JUMPDEST POP CALLVALUE PUSH2 0x2CC JUMPI PUSH1 0x40 CALLDATASIZE PUSH1 0x3 NOT ADD SLT PUSH2 0x2CC JUMPI PUSH1 0x40 PUSH2 0x20C7 PUSH2 0x509D JUMP JUMPDEST SWAP2 PUSH1 0x4 CALLDATALOAD DUP2 MSTORE DUP1 PUSH1 0x20 MSTORE KECCAK256 SWAP1 PUSH1 0x1 DUP1 PUSH1 0xA0 SHL SUB AND PUSH1 0x0 MSTORE PUSH1 0x20 MSTORE PUSH1 0x20 PUSH1 0xFF PUSH1 0x40 PUSH1 0x0 KECCAK256 SLOAD AND PUSH1 0x40 MLOAD SWAP1 ISZERO ISZERO DUP2 MSTORE RETURN JUMPDEST POP CALLVALUE PUSH2 0x2CC JUMPI PUSH1 0x20 CALLDATASIZE PUSH1 0x3 NOT ADD SLT PUSH2 0x2CC JUMPI PUSH1 0x4 CALLDATALOAD ISZERO ISZERO DUP1 PUSH2 0x2658 JUMPI JUMPDEST PUSH2 0x211C SWAP1 PUSH2 0x58AE JUMP JUMPDEST PUSH2 0x2124 PUSH2 0x5806 JUMP JUMPDEST PUSH2 0x212C PUSH2 0x57E8 JUMP JUMPDEST PUSH1 0x4 CALLDATALOAD DUP2 MSTORE PUSH1 0x7 PUSH1 0x20 MSTORE PUSH1 0x40 DUP2 KECCAK256 PUSH1 0x14 DUP2 ADD SLOAD SWAP1 PUSH1 0xFF DUP3 PUSH1 0x10 SHR AND PUSH1 0xB DUP2 LT ISZERO PUSH2 0x2644 JUMPI PUSH1 0x6 SUB PUSH2 0x25F3 JUMPI PUSH1 0x18 DUP2 ADD SLOAD SWAP1 DUP2 ISZERO PUSH2 0x25AE JUMPI PUSH2 0x216F PUSH1 0x7 DUP3 ADD PUSH2 0x52A3 JUMP JUMPDEST SWAP4 DUP1 SWAP5 DUP2 SWAP4 DUP3 SWAP4 DUP4 JUMPDEST DUP4 MLOAD DUP2 LT ISZERO PUSH2 0x2281 JUMPI PUSH1 0x1 PUSH1 0x1 PUSH1 0xF8 SHL SUB NOT PUSH1 0x17 PUSH1 0xF9 SHL DUP2 PUSH2 0x219A DUP5 DUP9 PUSH2 0x5AF4 JUMP JUMPDEST MLOAD AND EQ PUSH2 0x2273 JUMPI PUSH1 0x3 PUSH1 0xFC SHL DUP2 PUSH2 0x21B1 DUP5 DUP9 PUSH2 0x5AF4 JUMP JUMPDEST MLOAD AND LT ISZERO SWAP1 DUP2 PUSH2 0x2258 JUMPI JUMPDEST POP PUSH2 0x21D0 JUMPI JUMPDEST PUSH2 0x21CB SWAP1 PUSH2 0x562D JUMP JUMPDEST PUSH2 0x2178 JUMP JUMPDEST DUP9 PUSH1 0xA DUP2 SWAP10 SWAP9 SWAP8 SWAP10 MUL DIV PUSH1 0xA EQ DUP10 ISZERO OR ISZERO PUSH2 0x2244 JUMPI PUSH1 0x2F NOT PUSH2 0x21F2 DUP3 DUP7 PUSH2 0x5AF4 JUMP JUMPDEST MLOAD PUSH1 0xF8 SHR ADD PUSH1 0xFF DUP2 GT PUSH2 0x2230 JUMPI DUP9 SWAP10 PUSH1 0xA PUSH1 0xFF PUSH2 0x2215 SWAP4 SWAP12 SWAP10 SWAP11 SWAP12 AND SWAP2 MUL PUSH2 0x58A1 JUMP JUMPDEST SWAP9 ISZERO PUSH2 0x21C2 JUMPI SWAP6 PUSH2 0x2228 PUSH2 0x21CB SWAP2 PUSH2 0x562D JUMP JUMPDEST SWAP7 SWAP1 POP PUSH2 0x21C2 JUMP JUMPDEST PUSH4 0x4E487B71 PUSH1 0xE0 SHL DUP7 MSTORE PUSH1 0x11 PUSH1 0x4 MSTORE PUSH1 0x24 DUP7 REVERT JUMPDEST PUSH4 0x4E487B71 PUSH1 0xE0 SHL DUP6 MSTORE PUSH1 0x11 PUSH1 0x4 MSTORE PUSH1 0x24 DUP6 REVERT JUMPDEST PUSH1 0x39 PUSH1 0xF8 SHL SWAP2 POP PUSH2 0x2269 DUP4 DUP8 PUSH2 0x5AF4 JUMP JUMPDEST MLOAD AND GT ISZERO CODESIZE PUSH2 0x21BC JUMP JUMPDEST POP SWAP5 POP PUSH2 0x21CB PUSH1 0x1 SWAP6 PUSH2 0x562D JUMP JUMPDEST DUP5 DUP4 DUP4 DUP11 DUP13 DUP12 PUSH1 0x12 DUP2 LT PUSH2 0x2587 JUMPI JUMPDEST POP PUSH1 0xFF DUP2 SWAP3 AND DUP1 PUSH2 0x257A JUMPI JUMPDEST PUSH2 0x2556 JUMPI JUMPDEST POP DUP4 SWAP3 PUSH1 0xFF PUSH1 0x8 DUP5 ADD SLOAD AND PUSH2 0x22B5 DUP2 PUSH2 0x5389 JUMP JUMPDEST PUSH2 0x252C JUMPI DUP2 DUP2 GT PUSH2 0x2501 JUMPI JUMPDEST POP POP JUMPDEST DUP3 DUP3 ISZERO PUSH2 0x24F5 JUMPI POP PUSH1 0xF DUP2 ADD SLOAD SWAP2 DUP3 DUP2 GT PUSH2 0x24EE JUMPI JUMPDEST DUP1 PUSH2 0x22E5 SWAP2 SWAP4 PUSH2 0x5A9B JUMP JUMPDEST SWAP2 JUMPDEST DUP1 PUSH2 0x2441 JUMPI JUMPDEST DUP3 PUSH2 0x23B9 JUMPI JUMPDEST SWAP1 PUSH1 0xFF SWAP3 PUSH32 0x6DA40291EEB646B436D05C420B5B9F010D81DF95BCE846D2C3B3D45F56DF19EC PUSH2 0x235F PUSH2 0x2371 SWAP5 PUSH1 0x14 DUP6 ADD SLOAD SWAP5 PUSH3 0x80000 PUSH3 0xFF0000 NOT DUP8 AND OR PUSH1 0x14 DUP3 ADD SSTORE PUSH1 0x17 TIMESTAMP SWAP2 ADD SSTORE PUSH1 0x40 MLOAD SWAP2 DUP3 SWAP2 PUSH1 0x4 CALLDATALOAD SWAP6 TIMESTAMP SWAP2 DUP5 PUSH1 0x40 SWAP2 SWAP5 SWAP4 SWAP3 PUSH1 0x60 DUP3 ADD SWAP6 DUP3 MSTORE PUSH1 0x20 DUP3 ADD MSTORE ADD MSTORE JUMP JUMPDEST SUB SWAP1 LOG2 PUSH1 0x40 MLOAD SWAP3 DUP4 SWAP2 PUSH1 0x10 SHR AND PUSH2 0x5393 JUMP JUMPDEST PUSH1 0x8 PUSH1 0x20 DUP3 ADD MSTORE PUSH1 0x80 PUSH1 0x40 DUP3 ADD MSTORE PUSH1 0x7 PUSH1 0x80 DUP3 ADD MSTORE PUSH7 0x1CD95D1D1B1959 PUSH1 0xCA SHL PUSH1 0xA0 DUP3 ADD MSTORE TIMESTAMP PUSH1 0x60 DUP3 ADD MSTORE PUSH1 0x0 DUP1 MLOAD PUSH1 0x20 PUSH2 0x5C89 DUP4 CODECOPY DUP2 MLOAD SWAP2 MSTORE PUSH1 0xC0 PUSH1 0x4 CALLDATALOAD SWAP3 LOG2 PUSH1 0x1 DUP1 SSTORE DUP1 RETURN JUMPDEST PUSH1 0x3 SLOAD PUSH1 0x2 DUP4 ADD SLOAD PUSH1 0x4 SLOAD DUP7 SWAP3 PUSH1 0x1 PUSH1 0x1 PUSH1 0xA0 SHL SUB SWAP1 DUP2 AND SWAP3 SWAP2 DUP2 AND SWAP2 AND DUP3 EXTCODESIZE ISZERO PUSH2 0x884 JUMPI PUSH1 0x40 MLOAD PUSH4 0x6924FAA7 PUSH1 0xE1 SHL DUP2 MSTORE PUSH1 0x1 PUSH1 0x1 PUSH1 0xA0 SHL SUB SWAP2 DUP3 AND PUSH1 0x4 DUP3 ADD MSTORE SWAP2 AND PUSH1 0x24 DUP3 ADD MSTORE PUSH1 0x44 DUP2 ADD DUP7 SWAP1 MSTORE SWAP1 DUP3 SWAP1 DUP3 SWAP1 PUSH1 0x64 SWAP1 DUP3 SWAP1 DUP5 SWAP1 GAS CALL DUP1 ISZERO PUSH2 0x888 JUMPI PUSH2 0x2429 JUMPI JUMPDEST POP POP PUSH2 0x22F3 JUMP JUMPDEST PUSH2 0x2435 SWAP1 SWAP4 SWAP3 SWAP4 PUSH2 0x5221 JUMP JUMPDEST PUSH2 0x884 JUMPI SWAP1 DUP4 DUP6 PUSH2 0x2422 JUMP JUMPDEST PUSH1 0x3 SLOAD PUSH1 0x2 DUP4 ADD SLOAD PUSH1 0x1 DUP5 ADD SLOAD PUSH1 0x4 SLOAD DUP8 SWAP4 PUSH1 0x1 PUSH1 0x1 PUSH1 0xA0 SHL SUB SWAP2 DUP3 AND SWAP4 DUP3 AND SWAP3 DUP3 AND SWAP2 AND DUP1 EXTCODESIZE ISZERO PUSH2 0x24EA JUMPI DUP5 SWAP3 DUP4 PUSH1 0xE4 SWAP3 PUSH1 0x40 MLOAD SWAP7 DUP8 SWAP6 DUP7 SWAP5 PUSH4 0x5FE3A8B PUSH1 0xE3 SHL DUP7 MSTORE PUSH1 0x4 DUP7 ADD MSTORE PUSH1 0x24 DUP6 ADD MSTORE PUSH1 0x44 DUP5 ADD MSTORE DUP9 PUSH1 0x64 DUP5 ADD MSTORE PUSH1 0xA0 PUSH1 0x84 DUP5 ADD MSTORE PUSH1 0x11 PUSH1 0xA4 DUP5 ADD MSTORE PUSH17 0x1CD95D1D1B195B595B9D081C185E5BDD5D PUSH1 0x7A SHL PUSH1 0xC4 DUP5 ADD MSTORE GAS CALL DUP1 ISZERO PUSH2 0x888 JUMPI PUSH2 0x24D6 JUMPI JUMPDEST POP POP PUSH2 0x22ED JUMP JUMPDEST PUSH2 0x24DF SWAP1 PUSH2 0x5221 JUMP JUMPDEST PUSH2 0x884 JUMPI DUP4 DUP6 PUSH2 0x24CF JUMP JUMPDEST DUP5 DUP1 REVERT JUMPDEST POP DUP2 PUSH2 0x22DA JUMP JUMPDEST PUSH1 0xF DUP3 ADD SLOAD SWAP3 POP PUSH2 0x22E7 JUMP JUMPDEST PUSH2 0x2524 SWAP3 SWAP4 POP PUSH2 0x2514 DUP3 PUSH2 0x251F SWAP3 PUSH2 0x5A9B JUMP JUMPDEST PUSH1 0x9 DUP6 ADD SLOAD SWAP1 PUSH2 0x586E JUMP JUMPDEST PUSH2 0x5881 JUMP JUMPDEST SWAP1 DUP4 DUP1 PUSH2 0x22C1 JUMP JUMPDEST DUP1 DUP3 GT PUSH2 0x253B JUMPI JUMPDEST POP POP PUSH2 0x22C4 JUMP JUMPDEST PUSH2 0x254E SWAP3 SWAP4 POP PUSH2 0x2514 PUSH2 0x251F SWAP2 DUP4 PUSH2 0x5A9B JUMP JUMPDEST SWAP1 DUP4 DUP1 PUSH2 0x2534 JUMP JUMPDEST PUSH1 0x19 DUP4 ADD SLOAD SWAP1 DUP2 LT ISZERO PUSH2 0x2572 JUMPI PUSH2 0x256C SWAP2 PUSH2 0x5A9B JUMP JUMPDEST DUP5 PUSH2 0x22A1 JUMP JUMPDEST POP POP DUP3 PUSH2 0x256C JUMP JUMPDEST POP PUSH1 0x19 DUP4 ADD SLOAD ISZERO ISZERO PUSH2 0x229C JUMP JUMPDEST PUSH1 0x12 SUB PUSH1 0x12 DUP2 GT PUSH2 0x2230 JUMPI PUSH1 0x4D DUP2 GT PUSH2 0x2230 JUMPI SWAP1 PUSH2 0x25A8 SWAP2 PUSH1 0xA EXP SWAP1 PUSH2 0x586E JUMP JUMPDEST DUP6 PUSH2 0x2290 JUMP JUMPDEST PUSH1 0x40 MLOAD PUSH3 0x461BCD PUSH1 0xE5 SHL DUP2 MSTORE PUSH1 0x20 PUSH1 0x4 DUP3 ADD MSTORE PUSH1 0x1A PUSH1 0x24 DUP3 ADD MSTORE PUSH32 0x4F7074696F6E73436F72653A206E6F2066656564207072696365000000000000 PUSH1 0x44 DUP3 ADD MSTORE PUSH1 0x64 SWAP1 REVERT JUMPDEST PUSH1 0x40 MLOAD PUSH3 0x461BCD PUSH1 0xE5 SHL DUP2 MSTORE PUSH1 0x20 PUSH1 0x4 DUP3 ADD MSTORE PUSH1 0x23 PUSH1 0x24 DUP3 ADD MSTORE PUSH32 0x4F7074696F6E73436F72653A206E6F742070656E64696E6720736574746C656D PUSH1 0x44 DUP3 ADD MSTORE PUSH3 0x195B9D PUSH1 0xEA SHL PUSH1 0x64 DUP3 ADD MSTORE PUSH1 0x84 SWAP1 REVERT JUMPDEST PUSH4 0x4E487B71 PUSH1 0xE0 SHL DUP5 MSTORE PUSH1 0x21 PUSH1 0x4 MSTORE PUSH1 0x24 DUP5 REVERT JUMPDEST POP PUSH1 0x5 SLOAD PUSH1 0x4 CALLDATALOAD LT PUSH2 0x2113 JUMP JUMPDEST POP CALLVALUE PUSH2 0x2CC JUMPI DUP1 PUSH1 0x3 NOT CALLDATASIZE ADD SLT PUSH2 0x2CC JUMPI PUSH1 0x3 SLOAD PUSH1 0x40 MLOAD PUSH1 0x1 PUSH1 0x1 PUSH1 0xA0 SHL SUB SWAP1 SWAP2 AND DUP2 MSTORE PUSH1 0x20 SWAP1 RETURN JUMPDEST POP CALLVALUE PUSH2 0x2CC JUMPI DUP1 PUSH1 0x3 NOT CALLDATASIZE ADD SLT PUSH2 0x2CC JUMPI PUSH2 0x26A7 PUSH2 0x53BC JUMP JUMPDEST PUSH2 0x26AF PUSH2 0x57E8 JUMP JUMPDEST PUSH1 0x1 PUSH1 0xFF NOT PUSH1 0x2 SLOAD AND OR PUSH1 0x2 SSTORE PUSH32 0x62E78CEA01BEE320CD4E420270B5EA74000D11B0C9F74754EBDBFC544B05A258 PUSH1 0x20 PUSH1 0x40 MLOAD CALLER DUP2 MSTORE LOG1 DUP1 RETURN JUMPDEST POP CALLVALUE PUSH2 0x2CC JUMPI PUSH1 0x20 DUP1 PUSH1 0x3 NOT CALLDATASIZE ADD SLT PUSH2 0x34E JUMPI PUSH1 0x4 CALLDATALOAD PUSH1 0x1 PUSH1 0x1 PUSH1 0x40 SHL SUB DUP2 GT PUSH2 0x2C8 JUMPI PUSH2 0x271C DUP3 SWAP2 CALLDATASIZE SWAP1 PUSH1 0x4 ADD PUSH2 0x504A JUMP JUMPDEST SWAP2 SWAP1 DUP3 PUSH1 0x40 MLOAD SWAP4 DUP5 SWAP3 DUP4 CALLDATACOPY DUP2 ADD PUSH1 0xD DUP2 MSTORE SUB ADD SWAP1 KECCAK256 SWAP2 PUSH1 0x40 MLOAD DUP1 SWAP3 DUP1 DUP6 SLOAD SWAP3 DUP4 DUP2 MSTORE ADD SWAP5 DUP4 MSTORE DUP1 DUP4 KECCAK256 SWAP3 SWAP1 JUMPDEST DUP3 DUP3 LT PUSH2 0x275F JUMPI PUSH2 0x2C4 DUP6 PUSH2 0x32B DUP2 DUP10 SUB DUP3 PUSH2 0x5282 JUMP JUMPDEST DUP4 SLOAD DUP7 MSTORE SWAP5 DUP6 ADD SWAP5 PUSH1 0x1 SWAP4 DUP5 ADD SWAP4 SWAP1 SWAP2 ADD SWAP1 PUSH2 0x2748 JUMP JUMPDEST POP CALLVALUE PUSH2 0x2CC JUMPI DUP1 PUSH1 0x3 NOT CALLDATASIZE ADD SLT PUSH2 0x2CC JUMPI PUSH1 0x2 SLOAD PUSH1 0x40 MLOAD PUSH1 0x8 SWAP2 SWAP1 SWAP2 SHR PUSH1 0x1 PUSH1 0x1 PUSH1 0xA0 SHL SUB AND DUP2 MSTORE PUSH1 0x20 SWAP1 RETURN JUMPDEST POP CALLVALUE PUSH2 0x2CC JUMPI PUSH2 0x27B2 CALLDATASIZE PUSH2 0x50B3 JUMP JUMPDEST DUP2 ISZERO ISZERO DUP1 PUSH2 0x2935 JUMPI JUMPDEST PUSH2 0x27C4 SWAP1 PUSH2 0x58AE JUMP JUMPDEST PUSH2 0x27CC PUSH2 0x5806 JUMP JUMPDEST PUSH2 0x27D4 PUSH2 0x57E8 JUMP JUMPDEST DUP3 DUP1 MSTORE DUP3 PUSH1 0x20 MSTORE PUSH1 0x40 DUP4 KECCAK256 CALLER PUSH1 0x0 MSTORE PUSH1 0x20 MSTORE PUSH2 0x27F7 PUSH1 0xFF PUSH1 0x40 PUSH1 0x0 KECCAK256 SLOAD AND PUSH2 0x5AA8 JUMP JUMPDEST DUP2 DUP4 MSTORE PUSH1 0x7 PUSH1 0x20 MSTORE PUSH1 0x40 DUP4 KECCAK256 SWAP1 PUSH1 0x14 DUP3 ADD SLOAD PUSH1 0xFF DUP2 PUSH1 0x10 SHR AND PUSH1 0xB DUP2 LT ISZERO PUSH2 0x69E JUMPI SWAP1 PUSH2 0x2828 PUSH1 0x4 PUSH1 0xFF SWAP4 EQ PUSH2 0x5A4F JUMP JUMPDEST AND ISZERO PUSH2 0x28DB JUMPI DUP1 ISZERO PUSH2 0x2887 JUMPI PUSH1 0x19 PUSH32 0xDD46D8CD4968AFB89542D91BA59208E869E45FF03DCDA531AA39FD6888A174C3 SWAP3 ADD PUSH2 0x2864 DUP3 DUP3 SLOAD PUSH2 0x58A1 JUMP JUMPDEST SWAP1 DUP2 SWAP1 SSTORE PUSH1 0x40 DUP1 MLOAD SWAP3 DUP4 MSTORE PUSH1 0x20 DUP4 ADD SWAP2 SWAP1 SWAP2 MSTORE TIMESTAMP SWAP1 DUP3 ADD MSTORE PUSH1 0x60 SWAP1 LOG2 PUSH1 0x1 DUP1 SSTORE DUP1 RETURN JUMPDEST PUSH1 0x40 MLOAD PUSH3 0x461BCD PUSH1 0xE5 SHL DUP2 MSTORE PUSH1 0x20 PUSH1 0x4 DUP3 ADD MSTORE PUSH1 0x26 PUSH1 0x24 DUP3 ADD MSTORE PUSH32 0x4F7074696F6E73436F72653A206469766964656E64206D75737420626520706F PUSH1 0x44 DUP3 ADD MSTORE PUSH6 0x736974697665 PUSH1 0xD0 SHL PUSH1 0x64 DUP3 ADD MSTORE PUSH1 0x84 SWAP1 REVERT JUMPDEST PUSH1 0x40 MLOAD PUSH3 0x461BCD PUSH1 0xE5 SHL DUP2 MSTORE PUSH1 0x20 PUSH1 0x4 DUP3 ADD MSTORE PUSH1 0x2C PUSH1 0x24 DUP3 ADD MSTORE PUSH32 0x4F7074696F6E73436F72653A206469766964656E642061646A7573746D656E74 PUSH1 0x44 DUP3 ADD MSTORE PUSH12 0x81B9BDD08195B98589B1959 PUSH1 0xA2 SHL PUSH1 0x64 DUP3 ADD MSTORE PUSH1 0x84 SWAP1 REVERT JUMPDEST POP PUSH1 0x5 SLOAD DUP3 LT PUSH2 0x27BB JUMP JUMPDEST POP CALLVALUE PUSH2 0x2CC JUMPI PUSH1 0xC0 CALLDATASIZE PUSH1 0x3 NOT ADD SLT PUSH2 0x2CC JUMPI PUSH1 0x3 PUSH1 0x64 CALLDATALOAD LT ISZERO PUSH2 0x2CC JUMPI PUSH1 0x84 CALLDATALOAD PUSH1 0xFF DUP2 AND DUP2 SUB PUSH2 0x2046 JUMPI PUSH1 0xA4 CALLDATALOAD PUSH1 0xFF DUP2 AND DUP2 SUB PUSH2 0x2046 JUMPI PUSH1 0x4 CALLDATALOAD ISZERO ISZERO DUP1 PUSH2 0x2EFD JUMPI JUMPDEST PUSH2 0x298B SWAP1 PUSH2 0x58AE JUMP JUMPDEST PUSH2 0x2993 PUSH2 0x5806 JUMP JUMPDEST PUSH2 0x299B PUSH2 0x57E8 JUMP JUMPDEST PUSH1 0x4 CALLDATALOAD DUP4 MSTORE PUSH1 0x7 PUSH1 0x20 MSTORE PUSH1 0x40 DUP4 KECCAK256 SWAP1 PUSH1 0xFF PUSH1 0x14 DUP4 ADD SLOAD PUSH1 0x10 SHR AND PUSH1 0xB DUP2 LT ISZERO PUSH2 0x2C77 JUMPI DUP1 ISZERO SWAP1 DUP2 ISZERO PUSH2 0x2EF2 JUMPI JUMPDEST POP ISZERO PUSH2 0x2E9D JUMPI PUSH1 0x1 DUP3 ADD SLOAD PUSH1 0x1 PUSH1 0x1 PUSH1 0xA0 SHL SUB AND ISZERO PUSH2 0x2E58 JUMPI PUSH1 0x15 DUP3 ADD SLOAD PUSH1 0x2 SLOAD PUSH1 0x40 MLOAD PUSH4 0x4F6BFAD7 PUSH1 0xE0 SHL DUP2 MSTORE PUSH1 0x8 SWAP2 SWAP1 SWAP2 SHR PUSH1 0x1 PUSH1 0x1 PUSH1 0xA0 SHL SUB AND SWAP2 PUSH1 0x20 DUP3 PUSH1 0x4 DUP2 DUP7 GAS STATICCALL SWAP1 DUP2 ISZERO PUSH2 0x2E4D JUMPI DUP8 SWAP2 PUSH2 0x2E17 JUMPI JUMPDEST PUSH2 0x2A27 SWAP3 POP PUSH2 0x58A1 JUMP JUMPDEST TIMESTAMP LT ISZERO PUSH2 0x2DD2 JUMPI PUSH1 0x4 SWAP1 DUP2 CALLDATALOAD DUP7 MSTORE PUSH1 0x8 PUSH1 0x20 MSTORE PUSH1 0x20 PUSH1 0x40 DUP8 KECCAK256 SLOAD SWAP2 PUSH1 0x40 MLOAD SWAP4 DUP5 DUP1 SWAP3 PUSH4 0xBE0CBCD PUSH1 0xE2 SHL DUP3 MSTORE GAS STATICCALL SWAP2 DUP3 ISZERO PUSH2 0x2053 JUMPI DUP7 SWAP3 PUSH2 0x2D9E JUMPI JUMPDEST POP LT ISZERO PUSH2 0x2D59 JUMPI PUSH1 0x11 DUP3 ADD SLOAD PUSH1 0x2 PUSH1 0xFF DUP3 PUSH1 0x20 SHR AND PUSH2 0x2A81 DUP2 PUSH2 0x5132 JUMP JUMPDEST EQ PUSH2 0x2CF1 JUMPI JUMPDEST POP PUSH2 0x2710 PUSH2 0x2A9B PUSH1 0x44 CALLDATALOAD PUSH1 0x9 DUP6 ADD SLOAD PUSH2 0x586E JUMP JUMPDEST DIV PUSH2 0x2AAE PUSH1 0x10 DUP5 ADD SLOAD PUSH1 0x44 CALLDATALOAD LT ISZERO PUSH2 0x55E2 JUMP JUMPDEST PUSH1 0x4 SLOAD PUSH1 0x3 SLOAD PUSH2 0x2ACE SWAP2 DUP4 SWAP2 PUSH1 0x1 PUSH1 0x1 PUSH1 0xA0 SHL SUB SWAP1 DUP2 AND SWAP2 CALLER SWAP2 AND PUSH2 0x5741 JUMP JUMPDEST PUSH1 0x6 SLOAD SWAP4 PUSH2 0x2ADB DUP6 PUSH2 0x562D JUMP JUMPDEST PUSH1 0x6 SSTORE PUSH2 0x2710 PUSH2 0x2AF1 PUSH1 0x24 CALLDATALOAD PUSH1 0x9 DUP8 ADD SLOAD PUSH2 0x586E JUMP JUMPDEST DIV SWAP3 PUSH1 0x4 PUSH1 0x20 PUSH1 0x1 DUP1 PUSH1 0xA0 SHL SUB PUSH1 0x2 SLOAD PUSH1 0x8 SHR AND PUSH1 0x40 MLOAD SWAP3 DUP4 DUP1 SWAP3 PUSH4 0x6A15D6D PUSH1 0xE1 SHL DUP3 MSTORE GAS STATICCALL SWAP1 DUP2 ISZERO PUSH2 0x2CE6 JUMPI DUP9 SWAP2 PUSH2 0x2CB3 JUMPI JUMPDEST POP PUSH1 0xFF SWAP3 PUSH2 0x2B35 DUP5 SWAP3 TIMESTAMP PUSH2 0x58A1 JUMP JUMPDEST SWAP5 PUSH1 0x40 MLOAD SWAP7 PUSH2 0x2B43 DUP9 PUSH2 0x524A JUMP JUMPDEST DUP10 DUP9 MSTORE PUSH1 0x4 CALLDATALOAD PUSH1 0x20 DUP10 ADD MSTORE CALLER PUSH1 0x40 DUP10 ADD MSTORE DUP11 PUSH1 0x60 DUP10 ADD MSTORE PUSH1 0x24 CALLDATALOAD PUSH1 0x80 DUP10 ADD MSTORE PUSH1 0xA0 DUP9 ADD MSTORE PUSH1 0x44 CALLDATALOAD PUSH1 0xC0 DUP9 ADD MSTORE PUSH1 0xE0 DUP8 ADD MSTORE PUSH2 0x2B7F PUSH1 0x64 CALLDATALOAD PUSH2 0x5132 JUMP JUMPDEST PUSH1 0x64 CALLDATALOAD PUSH2 0x100 DUP8 ADD MSTORE AND PUSH2 0x120 DUP6 ADD MSTORE AND PUSH2 0x140 DUP4 ADD MSTORE TIMESTAMP PUSH2 0x160 DUP4 ADD MSTORE PUSH2 0x180 DUP3 ADD MSTORE DUP4 PUSH2 0x1A0 DUP3 ADD MSTORE DUP3 DUP5 MSTORE PUSH1 0x9 PUSH1 0x20 MSTORE PUSH2 0x2BBF DUP2 PUSH1 0x40 DUP7 KECCAK256 PUSH2 0x58FA JUMP JUMPDEST PUSH1 0x4 CALLDATALOAD DUP5 MSTORE PUSH1 0x8 PUSH1 0x20 MSTORE PUSH1 0x40 DUP5 KECCAK256 DUP1 SLOAD SWAP1 PUSH1 0x1 PUSH1 0x40 SHL DUP3 LT ISZERO PUSH2 0x2C9F JUMPI SWAP1 PUSH2 0x2BEC SWAP2 PUSH1 0x1 DUP3 ADD DUP2 SSTORE PUSH2 0x53A0 JUMP JUMPDEST PUSH2 0x2C8B JUMPI SWAP1 PUSH2 0x2BFA SWAP2 PUSH2 0x58FA JUMP JUMPDEST PUSH1 0x14 DUP2 ADD SLOAD PUSH1 0xFF DUP2 PUSH1 0x10 SHR AND PUSH1 0xB DUP2 LT ISZERO PUSH2 0x2C77 JUMPI PUSH1 0x20 SWAP5 POP ISZERO PUSH2 0x2C5F JUMPI JUMPDEST POP POP PUSH1 0x40 MLOAD PUSH1 0x24 CALLDATALOAD DUP2 MSTORE TIMESTAMP DUP4 DUP3 ADD MSTORE DUP2 CALLER SWAP2 PUSH32 0x878FE3F9BCA373E42473C1F3AD3C9C35C4F1ECAF9A5F081A801A3FBD43049F55 PUSH1 0x40 PUSH1 0x4 CALLDATALOAD SWAP3 LOG4 PUSH1 0x1 DUP1 SSTORE PUSH1 0x40 MLOAD SWAP1 DUP2 MSTORE RETURN JUMPDEST PUSH3 0x10000 PUSH1 0x14 SWAP2 PUSH3 0xFF0000 NOT AND OR SWAP2 ADD SSTORE CODESIZE DUP1 PUSH2 0x2C19 JUMP JUMPDEST PUSH4 0x4E487B71 PUSH1 0xE0 SHL DUP6 MSTORE PUSH1 0x21 PUSH1 0x4 MSTORE PUSH1 0x24 DUP6 REVERT JUMPDEST PUSH4 0x4E487B71 PUSH1 0xE0 SHL DUP6 MSTORE PUSH1 0x4 DUP6 SWAP1 MSTORE PUSH1 0x24 DUP6 REVERT JUMPDEST PUSH4 0x4E487B71 PUSH1 0xE0 SHL DUP7 MSTORE PUSH1 0x41 PUSH1 0x4 MSTORE PUSH1 0x24 DUP7 REVERT JUMPDEST SWAP1 POP PUSH1 0x20 DUP2 RETURNDATASIZE PUSH1 0x20 GT PUSH2 0x2CDE JUMPI JUMPDEST DUP2 PUSH2 0x2CCE PUSH1 0x20 SWAP4 DUP4 PUSH2 0x5282 JUMP JUMPDEST DUP2 ADD SUB SLT PUSH2 0x2046 JUMPI MLOAD PUSH1 0xFF PUSH2 0x2B26 JUMP JUMPDEST RETURNDATASIZE SWAP2 POP PUSH2 0x2CC1 JUMP JUMPDEST PUSH1 0x40 MLOAD RETURNDATASIZE DUP11 DUP3 RETURNDATACOPY RETURNDATASIZE SWAP1 REVERT JUMPDEST PUSH1 0x28 SHR PUSH1 0x1 PUSH1 0x1 PUSH1 0xA0 SHL SUB AND CALLER SUB PUSH2 0x2D09 JUMPI CODESIZE PUSH2 0x2A87 JUMP JUMPDEST PUSH1 0x40 MLOAD PUSH3 0x461BCD PUSH1 0xE5 SHL DUP2 MSTORE PUSH1 0x20 PUSH1 0x4 DUP3 ADD MSTORE PUSH1 0x22 PUSH1 0x24 DUP3 ADD MSTORE PUSH32 0x4F7074696F6E73436F72653A206E6F742064657369676E617465642073656C6C PUSH1 0x44 DUP3 ADD MSTORE PUSH2 0x32B9 PUSH1 0xF1 SHL PUSH1 0x64 DUP3 ADD MSTORE PUSH1 0x84 SWAP1 REVERT JUMPDEST PUSH1 0x40 MLOAD PUSH3 0x461BCD PUSH1 0xE5 SHL DUP2 MSTORE PUSH1 0x20 PUSH1 0x4 DUP3 ADD MSTORE PUSH1 0x1F PUSH1 0x24 DUP3 ADD MSTORE PUSH32 0x4F7074696F6E73436F72653A206D61782071756F746573207265616368656400 PUSH1 0x44 DUP3 ADD MSTORE PUSH1 0x64 SWAP1 REVERT JUMPDEST SWAP1 SWAP2 POP PUSH1 0x20 DUP2 RETURNDATASIZE PUSH1 0x20 GT PUSH2 0x2DCA JUMPI JUMPDEST DUP2 PUSH2 0x2DBA PUSH1 0x20 SWAP4 DUP4 PUSH2 0x5282 JUMP JUMPDEST DUP2 ADD SUB SLT PUSH2 0x2046 JUMPI MLOAD SWAP1 CODESIZE PUSH2 0x2A63 JUMP JUMPDEST RETURNDATASIZE SWAP2 POP PUSH2 0x2DAD JUMP JUMPDEST PUSH1 0x40 MLOAD PUSH3 0x461BCD PUSH1 0xE5 SHL DUP2 MSTORE PUSH1 0x20 PUSH1 0x4 DUP3 ADD MSTORE PUSH1 0x18 PUSH1 0x24 DUP3 ADD MSTORE PUSH32 0x4F7074696F6E73436F72653A2052465120657870697265640000000000000000 PUSH1 0x44 DUP3 ADD MSTORE PUSH1 0x64 SWAP1 REVERT JUMPDEST SWAP1 POP PUSH1 0x20 DUP3 RETURNDATASIZE PUSH1 0x20 GT PUSH2 0x2E45 JUMPI JUMPDEST DUP2 PUSH2 0x2E32 PUSH1 0x20 SWAP4 DUP4 PUSH2 0x5282 JUMP JUMPDEST DUP2 ADD SUB SLT PUSH2 0x2046 JUMPI PUSH2 0x2A27 SWAP2 MLOAD SWAP1 PUSH2 0x2A1D JUMP JUMPDEST RETURNDATASIZE SWAP2 POP PUSH2 0x2E25 JUMP JUMPDEST PUSH1 0x40 MLOAD RETURNDATASIZE DUP10 DUP3 RETURNDATACOPY RETURNDATASIZE SWAP1 REVERT JUMPDEST PUSH1 0x40 MLOAD PUSH3 0x461BCD PUSH1 0xE5 SHL DUP2 MSTORE PUSH1 0x20 PUSH1 0x4 DUP3 ADD MSTORE PUSH1 0x1E PUSH1 0x24 DUP3 ADD MSTORE PUSH32 0x4F7074696F6E73436F72653A206E6F742061206275796572206F726465720000 PUSH1 0x44 DUP3 ADD MSTORE PUSH1 0x64 SWAP1 REVERT JUMPDEST PUSH1 0x40 MLOAD PUSH3 0x461BCD PUSH1 0xE5 SHL DUP2 MSTORE PUSH1 0x20 PUSH1 0x4 DUP3 ADD MSTORE PUSH1 0x27 PUSH1 0x24 DUP3 ADD MSTORE PUSH32 0x4F7074696F6E73436F72653A206F72646572206E6F7420616363657074696E67 PUSH1 0x44 DUP3 ADD MSTORE PUSH7 0x2071756F746573 PUSH1 0xC8 SHL PUSH1 0x64 DUP3 ADD MSTORE PUSH1 0x84 SWAP1 REVERT JUMPDEST PUSH1 0x1 SWAP2 POP EQ CODESIZE PUSH2 0x29C8 JUMP JUMPDEST POP PUSH1 0x5 SLOAD PUSH1 0x4 CALLDATALOAD LT PUSH2 0x2982 JUMP JUMPDEST POP PUSH1 0x40 CALLDATASIZE PUSH1 0x3 NOT ADD SLT PUSH2 0x2CC JUMPI PUSH1 0x4 CALLDATALOAD PUSH1 0x3 PUSH1 0x24 CALLDATALOAD LT ISZERO PUSH2 0x34E JUMPI SWAP1 DUP2 PUSH2 0x2F5B SWAP3 ISZERO ISZERO DUP1 PUSH2 0x2FC7 JUMPI JUMPDEST PUSH2 0x2F3C SWAP1 PUSH2 0x58AE JUMP JUMPDEST DUP2 MSTORE PUSH1 0x7 PUSH1 0x20 MSTORE PUSH1 0x40 SWAP1 KECCAK256 PUSH1 0x1 ADD SLOAD PUSH1 0x1 PUSH1 0x1 PUSH1 0xA0 SHL SUB AND CALLER EQ PUSH2 0x5829 JUMP JUMPDEST PUSH2 0x2F63 PUSH2 0x5806 JUMP JUMPDEST PUSH2 0x2F6B PUSH2 0x57E8 JUMP JUMPDEST PUSH1 0x40 MLOAD PUSH3 0x461BCD PUSH1 0xE5 SHL DUP2 MSTORE PUSH1 0x20 PUSH1 0x4 DUP3 ADD MSTORE PUSH1 0x2E PUSH1 0x24 DUP3 ADD MSTORE PUSH32 0x4F7074696F6E73436F72653A20666565642070726F746F636F6C206E6F742069 PUSH1 0x44 DUP3 ADD MSTORE PUSH14 0x1B5C1B195B595B9D1959081E595D PUSH1 0x92 SHL PUSH1 0x64 DUP3 ADD MSTORE PUSH1 0x84 SWAP1 REVERT JUMPDEST POP PUSH1 0x5 SLOAD DUP2 LT PUSH2 0x2F33 JUMP JUMPDEST POP CALLVALUE PUSH2 0x2CC JUMPI PUSH1 0x20 CALLDATASIZE PUSH1 0x3 NOT ADD SLT PUSH2 0x2CC JUMPI PUSH1 0x4 CALLDATALOAD DUP1 ISZERO ISZERO DUP1 PUSH2 0x30F3 JUMPI JUMPDEST PUSH2 0x2FF9 SWAP1 PUSH2 0x58AE JUMP JUMPDEST PUSH2 0x3001 PUSH2 0x5806 JUMP JUMPDEST PUSH2 0x3009 PUSH2 0x57E8 JUMP JUMPDEST DUP1 DUP3 MSTORE PUSH1 0x7 PUSH1 0x20 MSTORE PUSH1 0x40 DUP3 KECCAK256 PUSH1 0x14 DUP2 ADD SWAP1 DUP2 SLOAD SWAP2 PUSH1 0xFF DUP4 PUSH1 0x10 SHR AND SWAP3 PUSH1 0xB DUP5 LT ISZERO PUSH2 0x69E JUMPI PUSH32 0xB009A900F426C0C9177ACB33A8A806B35C53AC253D1DDF22D687986FC6B72CE4 PUSH1 0x60 PUSH1 0xC0 SWAP5 DUP7 SWAP5 PUSH3 0x90000 DUP10 SWAP6 PUSH2 0x3077 PUSH1 0x4 PUSH1 0x0 DUP1 MLOAD PUSH1 0x20 PUSH2 0x5C89 DUP4 CODECOPY DUP2 MLOAD SWAP2 MSTORE SWAP12 EQ PUSH2 0x5A4F JUMP JUMPDEST PUSH3 0xFF0000 NOT AND OR SWAP1 SSTORE TIMESTAMP PUSH1 0x17 DUP3 ADD SSTORE PUSH1 0xF PUSH1 0x1 DUP1 PUSH1 0xA0 SHL SUB PUSH1 0x1 DUP4 ADD SLOAD AND SWAP2 ADD SLOAD PUSH1 0x40 MLOAD SWAP2 DUP3 MSTORE PUSH1 0x20 DUP3 ADD MSTORE TIMESTAMP PUSH1 0x40 DUP3 ADD MSTORE LOG2 PUSH2 0x30B7 PUSH1 0x40 MLOAD DUP1 SWAP3 PUSH2 0x5393 JUMP JUMPDEST PUSH1 0x9 PUSH1 0x20 DUP3 ADD MSTORE PUSH1 0x80 PUSH1 0x40 DUP3 ADD MSTORE PUSH1 0x10 PUSH1 0x80 DUP3 ADD MSTORE PUSH16 0x199BDC98D9481B1A5C5D5A59185D1959 PUSH1 0x82 SHL PUSH1 0xA0 DUP3 ADD MSTORE TIMESTAMP PUSH1 0x60 DUP3 ADD MSTORE LOG2 PUSH1 0x1 DUP1 SSTORE DUP1 RETURN JUMPDEST POP PUSH1 0x5 SLOAD DUP2 LT PUSH2 0x2FF0 JUMP JUMPDEST POP PUSH1 0x20 DUP1 PUSH1 0x3 NOT CALLDATASIZE ADD SLT PUSH2 0x34E JUMPI PUSH1 0x4 CALLDATALOAD SWAP1 DUP2 ISZERO ISZERO DUP1 PUSH2 0x3381 JUMPI JUMPDEST PUSH2 0x3122 SWAP1 PUSH2 0x58AE JUMP JUMPDEST PUSH2 0x312A PUSH2 0x5806 JUMP JUMPDEST PUSH2 0x3132 PUSH2 0x57E8 JUMP JUMPDEST DUP2 DUP4 MSTORE PUSH1 0x7 DUP2 MSTORE PUSH1 0x40 DUP4 KECCAK256 PUSH1 0x14 DUP2 ADD SWAP1 PUSH1 0xFF DUP3 SLOAD PUSH1 0x10 SHR AND PUSH1 0xB DUP2 LT ISZERO PUSH2 0x69E JUMPI PUSH1 0x6 SUB PUSH2 0x332B JUMPI PUSH1 0x1 DUP2 ADD SLOAD PUSH1 0x1 PUSH1 0x1 PUSH1 0xA0 SHL SUB SWAP2 SWAP1 DUP3 AND CALLER EQ DUP1 ISZERO PUSH2 0x331C JUMPI JUMPDEST ISZERO PUSH2 0x32D7 JUMPI DUP1 PUSH1 0x12 PUSH1 0x17 PUSH2 0x318D SWAP4 ADD SLOAD SWAP2 ADD SLOAD SWAP1 PUSH2 0x58A1 JUMP JUMPDEST TIMESTAMP GT PUSH2 0x3283 JUMPI DUP1 PUSH1 0x4 SWAP2 DUP3 SLOAD AND DUP5 DUP3 PUSH1 0x3 SLOAD AND SWAP3 PUSH1 0x2 SLOAD PUSH1 0x8 SHR AND PUSH1 0x40 MLOAD SWAP5 DUP6 DUP1 SWAP3 PUSH4 0x39F4F75 PUSH1 0xE3 SHL DUP3 MSTORE GAS STATICCALL SWAP3 DUP4 ISZERO PUSH2 0x2E4D JUMPI DUP8 SWAP4 PUSH2 0x324E JUMPI JUMPDEST POP SWAP4 PUSH2 0x3211 PUSH1 0xC0 SWAP5 PUSH2 0x31F1 PUSH1 0xFF SWAP6 PUSH1 0x7 SWAP6 PUSH1 0x0 DUP1 MLOAD PUSH1 0x20 PUSH2 0x5C89 DUP4 CODECOPY DUP2 MLOAD SWAP2 MSTORE SWAP10 CALLER SWAP1 PUSH2 0x5741 JUMP JUMPDEST DUP1 SLOAD PUSH3 0xFF0000 NOT DUP2 AND PUSH3 0x70000 OR SWAP1 SWAP2 SSTORE PUSH1 0x40 MLOAD SWAP5 DUP6 SWAP2 PUSH1 0x10 SHR AND PUSH2 0x5393 JUMP JUMPDEST DUP3 ADD MSTORE PUSH1 0x80 PUSH1 0x40 DUP3 ADD MSTORE PUSH1 0x15 PUSH1 0x80 DUP3 ADD MSTORE PUSH21 0x185C989A5D1C985D1A5BDB881A5B9A5D1A585D1959 PUSH1 0x5A SHL PUSH1 0xA0 DUP3 ADD MSTORE TIMESTAMP PUSH1 0x60 DUP3 ADD MSTORE LOG2 PUSH1 0x1 DUP1 SSTORE DUP1 RETURN JUMPDEST SWAP3 POP SWAP1 SWAP4 DUP1 DUP4 DUP2 RETURNDATASIZE DUP4 GT PUSH2 0x327C JUMPI JUMPDEST PUSH2 0x3267 DUP2 DUP4 PUSH2 0x5282 JUMP JUMPDEST DUP2 ADD SUB SLT PUSH2 0x2046 JUMPI SWAP2 MLOAD SWAP2 SWAP4 SWAP1 PUSH2 0x3211 PUSH2 0x31C9 JUMP JUMPDEST POP RETURNDATASIZE PUSH2 0x325D JUMP JUMPDEST PUSH1 0x40 MLOAD PUSH3 0x461BCD PUSH1 0xE5 SHL DUP2 MSTORE PUSH1 0x4 DUP2 ADD DUP5 SWAP1 MSTORE PUSH1 0x26 PUSH1 0x24 DUP3 ADD MSTORE PUSH32 0x4F7074696F6E73436F72653A206172626974726174696F6E2077696E646F7720 PUSH1 0x44 DUP3 ADD MSTORE PUSH6 0x18DB1BDCD959 PUSH1 0xD2 SHL PUSH1 0x64 DUP3 ADD MSTORE PUSH1 0x84 SWAP1 REVERT JUMPDEST PUSH1 0x40 MLOAD PUSH3 0x461BCD PUSH1 0xE5 SHL DUP2 MSTORE PUSH1 0x4 DUP2 ADD DUP6 SWAP1 MSTORE PUSH1 0x1F PUSH1 0x24 DUP3 ADD MSTORE PUSH32 0x4F7074696F6E73436F72653A206E6F7420706172747920746F206F7264657200 PUSH1 0x44 DUP3 ADD MSTORE PUSH1 0x64 SWAP1 REVERT JUMPDEST POP DUP2 PUSH1 0x2 DUP3 ADD SLOAD AND CALLER EQ PUSH2 0x3174 JUMP JUMPDEST PUSH1 0x40 MLOAD PUSH3 0x461BCD PUSH1 0xE5 SHL DUP2 MSTORE PUSH1 0x4 DUP2 ADD DUP5 SWAP1 MSTORE PUSH1 0x28 PUSH1 0x24 DUP3 ADD MSTORE PUSH32 0x4F7074696F6E73436F72653A2063616E6E6F7420696E69746961746520617262 PUSH1 0x44 DUP3 ADD MSTORE PUSH8 0x34BA3930BA34B7B7 PUSH1 0xC1 SHL PUSH1 0x64 DUP3 ADD MSTORE PUSH1 0x84 SWAP1 REVERT JUMPDEST POP PUSH1 0x5 SLOAD DUP3 LT PUSH2 0x3119 JUMP JUMPDEST POP CALLVALUE PUSH2 0x2CC JUMPI PUSH1 0x20 DUP1 PUSH1 0x3 NOT CALLDATASIZE ADD SLT PUSH2 0x34E JUMPI PUSH1 0x4 CALLDATALOAD SWAP1 DUP2 ISZERO ISZERO DUP1 PUSH2 0x36C7 JUMPI JUMPDEST PUSH2 0x33B5 SWAP1 PUSH2 0x58AE JUMP JUMPDEST PUSH2 0x33BD PUSH2 0x5806 JUMP JUMPDEST PUSH2 0x33C5 PUSH2 0x57E8 JUMP JUMPDEST DUP2 DUP4 MSTORE PUSH1 0x7 DUP2 MSTORE PUSH1 0x40 DUP4 KECCAK256 SWAP1 PUSH1 0x14 DUP3 ADD SWAP3 DUP4 SLOAD SWAP4 PUSH1 0xFF DUP6 PUSH1 0x10 SHR AND SWAP4 PUSH1 0xB DUP6 LT ISZERO PUSH2 0x36B3 JUMPI DUP5 PUSH2 0x3670 JUMPI PUSH1 0x2 DUP2 ADD SWAP3 PUSH1 0x1 DUP1 PUSH1 0xA0 SHL SUB SWAP3 DUP4 DUP6 SLOAD AND SWAP8 DUP9 ISZERO PUSH2 0x362B JUMPI PUSH1 0x1 DUP5 ADD SWAP9 DUP10 SLOAD SWAP1 DUP7 DUP3 AND PUSH2 0x35E6 JUMPI CALLER EQ PUSH2 0x3595 JUMPI PUSH1 0x1 PUSH1 0x1 PUSH1 0xA0 SHL SUB NOT AND CALLER OR DUP10 SSTORE PUSH3 0xFF0000 NOT AND PUSH3 0x20000 OR SWAP1 SSTORE TIMESTAMP PUSH1 0x16 DUP4 ADD SSTORE PUSH1 0x9 DUP3 ADD SLOAD PUSH1 0x2 SLOAD PUSH1 0x40 MLOAD PUSH4 0x1C03BE35 PUSH1 0xE3 SHL DUP2 MSTORE SWAP2 SWAP1 DUP8 SWAP1 DUP4 SWAP1 PUSH1 0x4 SWAP1 DUP3 SWAP1 PUSH1 0x8 SHR DUP10 AND GAS STATICCALL SWAP2 DUP3 ISZERO PUSH2 0x358A JUMPI DUP11 SWAP3 PUSH2 0x354C JUMPI JUMPDEST POP SWAP4 PUSH1 0xC0 SWAP7 SWAP4 PUSH2 0x34D0 PUSH1 0x0 DUP1 MLOAD PUSH1 0x20 PUSH2 0x5C89 DUP4 CODECOPY DUP2 MLOAD SWAP2 MSTORE SWAP10 SWAP8 SWAP5 PUSH2 0x34C0 PUSH2 0x34AE PUSH2 0x2710 PUSH2 0x34A3 DUP8 SWAP9 PUSH1 0x2 SWAP13 PUSH2 0x586E JUMP JUMPDEST DIV PUSH1 0xD DUP7 ADD SLOAD PUSH2 0x58A1 JUMP JUMPDEST DUP6 PUSH1 0x4 SLOAD AND DUP7 PUSH1 0x3 SLOAD AND SWAP1 CALLER SWAP1 PUSH2 0x5741 JUMP JUMPDEST CALLER DUP14 MSTORE PUSH1 0xA DUP8 MSTORE PUSH1 0x40 DUP14 KECCAK256 PUSH2 0x570C JUMP JUMPDEST SLOAD SWAP9 SLOAD AND SWAP2 SLOAD AND SWAP1 DUP8 PUSH32 0x3D7463B72B52FAFC8E3F27DC0DBB9D1A94C0A4024834252B5CCE68509ACB49BC DUP5 PUSH1 0x40 MLOAD TIMESTAMP DUP2 MSTORE LOG4 PUSH2 0x350F PUSH1 0x40 MLOAD DUP1 SWAP5 PUSH2 0x5393 JUMP JUMPDEST DUP3 ADD MSTORE PUSH1 0x80 PUSH1 0x40 DUP3 ADD MSTORE PUSH1 0x15 PUSH1 0x80 DUP3 ADD MSTORE PUSH21 0x1CD95B1B195C881BDC99195C881858D8D95C1D1959 PUSH1 0x5A SHL PUSH1 0xA0 DUP3 ADD MSTORE TIMESTAMP PUSH1 0x60 DUP3 ADD MSTORE LOG2 PUSH1 0x1 DUP1 SSTORE DUP1 RETURN JUMPDEST SWAP7 DUP1 SWAP5 SWAP9 SWAP7 SWAP4 SWAP6 SWAP3 POP DUP8 DUP2 RETURNDATASIZE DUP4 GT PUSH2 0x3583 JUMPI JUMPDEST PUSH2 0x3569 DUP2 DUP4 PUSH2 0x5282 JUMP JUMPDEST DUP2 ADD SUB SLT PUSH2 0x2046 JUMPI SWAP6 MLOAD SWAP5 SWAP7 SWAP3 SWAP6 SWAP2 SWAP5 SWAP1 SWAP4 SWAP2 PUSH1 0xC0 PUSH2 0x3472 JUMP JUMPDEST POP RETURNDATASIZE PUSH2 0x355F JUMP JUMPDEST PUSH1 0x40 MLOAD RETURNDATASIZE DUP13 DUP3 RETURNDATACOPY RETURNDATASIZE SWAP1 REVERT JUMPDEST PUSH1 0x40 MLOAD PUSH3 0x461BCD PUSH1 0xE5 SHL DUP2 MSTORE PUSH1 0x4 DUP2 ADD DUP10 SWAP1 MSTORE PUSH1 0x24 DUP1 DUP3 ADD MSTORE PUSH32 0x4F7074696F6E73436F72653A2063616E6E6F7420616363657074206F776E206F PUSH1 0x44 DUP3 ADD MSTORE PUSH4 0x393232B9 PUSH1 0xE1 SHL PUSH1 0x64 DUP3 ADD MSTORE PUSH1 0x84 SWAP1 REVERT JUMPDEST PUSH1 0x40 MLOAD PUSH3 0x461BCD PUSH1 0xE5 SHL DUP2 MSTORE PUSH1 0x4 DUP2 ADD DUP11 SWAP1 MSTORE PUSH1 0x1E PUSH1 0x24 DUP3 ADD MSTORE PUSH32 0x4F7074696F6E73436F72653A20616C7265616479206861732062757965720000 PUSH1 0x44 DUP3 ADD MSTORE PUSH1 0x64 SWAP1 REVERT JUMPDEST PUSH1 0x40 MLOAD PUSH3 0x461BCD PUSH1 0xE5 SHL DUP2 MSTORE PUSH1 0x4 DUP2 ADD DUP9 SWAP1 MSTORE PUSH1 0x1F PUSH1 0x24 DUP3 ADD MSTORE PUSH32 0x4F7074696F6E73436F72653A206E6F7420612073656C6C6572206F7264657200 PUSH1 0x44 DUP3 ADD MSTORE PUSH1 0x64 SWAP1 REVERT JUMPDEST PUSH1 0x64 DUP5 PUSH1 0x40 MLOAD SWAP1 PUSH3 0x461BCD PUSH1 0xE5 SHL DUP3 MSTORE DUP1 PUSH1 0x4 DUP4 ADD MSTORE PUSH1 0x24 DUP3 ADD MSTORE PUSH32 0x4F7074696F6E73436F72653A206F72646572206E6F7420617661696C61626C65 PUSH1 0x44 DUP3 ADD MSTORE REVERT JUMPDEST PUSH4 0x4E487B71 PUSH1 0xE0 SHL DUP8 MSTORE PUSH1 0x21 PUSH1 0x4 MSTORE PUSH1 0x24 DUP8 REVERT JUMPDEST POP PUSH1 0x5 SLOAD DUP3 LT PUSH2 0x33AC JUMP JUMPDEST POP CALLVALUE PUSH2 0x2CC JUMPI PUSH1 0x20 CALLDATASIZE PUSH1 0x3 NOT ADD SLT PUSH2 0x2CC JUMPI PUSH2 0x36EC PUSH2 0x5806 JUMP JUMPDEST PUSH2 0x36F4 PUSH2 0x57E8 JUMP JUMPDEST PUSH1 0x4 CALLDATALOAD DUP2 MSTORE PUSH1 0x9 PUSH1 0x20 MSTORE PUSH1 0x40 DUP2 KECCAK256 PUSH1 0xA DUP2 ADD SLOAD SWAP2 PUSH1 0xFF DUP4 AND PUSH2 0x3715 DUP2 PUSH2 0x5152 JUMP JUMPDEST PUSH2 0x3B59 JUMPI PUSH1 0x9 DUP3 ADD SLOAD TIMESTAMP GT PUSH2 0x3B14 JUMPI PUSH1 0x1 DUP3 ADD SLOAD DUP2 MSTORE PUSH1 0x7 PUSH1 0x20 MSTORE PUSH1 0x40 DUP2 KECCAK256 SWAP3 PUSH2 0x374C PUSH1 0x1 DUP1 PUSH1 0xA0 SHL SUB PUSH1 0x1 DUP7 ADD SLOAD AND CALLER EQ PUSH2 0x5829 JUMP JUMPDEST PUSH1 0xFF PUSH1 0x14 DUP6 ADD SLOAD PUSH1 0x10 SHR AND PUSH1 0xB DUP2 LT ISZERO PUSH2 0x3B00 JUMPI DUP1 ISZERO SWAP1 DUP2 ISZERO PUSH2 0x3AF5 JUMPI JUMPDEST POP ISZERO PUSH2 0x3AB0 JUMPI PUSH1 0x3 DUP4 ADD SLOAD PUSH1 0xC DUP6 ADD SLOAD LT PUSH2 0x3A5D JUMPI PUSH1 0xFF NOT AND PUSH1 0x1 OR PUSH1 0xA DUP4 ADD SSTORE PUSH1 0x2 DUP1 DUP4 ADD DUP1 SLOAD SWAP2 DUP6 ADD DUP1 SLOAD PUSH1 0x1 PUSH1 0x1 PUSH1 0xA0 SHL SUB NOT AND PUSH1 0x1 PUSH1 0x1 PUSH1 0xA0 SHL SUB SWAP4 SWAP1 SWAP4 AND SWAP3 SWAP1 SWAP3 OR SWAP1 SWAP2 SSTORE SLOAD PUSH2 0x383B SWAP1 PUSH1 0x11 DUP6 ADD SWAP1 PUSH2 0x37CE SWAP1 PUSH1 0xA0 SHR PUSH1 0xFF AND DUP3 PUSH2 0x56BE JUMP JUMPDEST PUSH1 0x3 DUP5 ADD SLOAD PUSH1 0xC DUP7 ADD SSTORE PUSH1 0x4 DUP5 ADD SLOAD PUSH1 0xD DUP7 ADD SSTORE PUSH1 0x6 DUP5 ADD SLOAD DUP1 PUSH1 0xE DUP8 ADD SSTORE PUSH1 0xF DUP7 ADD SSTORE PUSH1 0xFF PUSH1 0x7 DUP6 ADD PUSH2 0x3805 DUP3 DUP3 SLOAD AND DUP5 PUSH2 0x56E3 JUMP JUMPDEST DUP1 SLOAD DUP4 SLOAD PUSH2 0xFF00 NOT AND PUSH1 0x8 SWAP2 DUP3 SHR DUP5 AND SWAP1 SWAP2 SHL PUSH2 0xFF00 AND OR DUP4 SSTORE SLOAD PUSH1 0x10 SHR AND PUSH3 0xFF0000 DUP3 SLOAD SWAP2 PUSH1 0x10 SHL AND SWAP1 PUSH3 0xFF0000 NOT AND OR SWAP1 SSTORE JUMP JUMPDEST PUSH1 0x14 DUP4 ADD DUP1 SLOAD PUSH3 0xFF0000 NOT DUP2 AND PUSH3 0x20000 OR SWAP1 SWAP2 SSTORE TIMESTAMP PUSH1 0x16 DUP6 ADD SSTORE PUSH1 0x9 DUP5 ADD SLOAD PUSH1 0x2 SLOAD PUSH1 0x40 MLOAD PUSH4 0x1C03BE35 PUSH1 0xE3 SHL DUP2 MSTORE SWAP3 SWAP5 SWAP3 SWAP1 PUSH1 0x20 SWAP1 DUP3 SWAP1 PUSH1 0x4 SWAP1 DUP3 SWAP1 PUSH1 0x8 SHR PUSH1 0x1 PUSH1 0x1 PUSH1 0xA0 SHL SUB AND GAS STATICCALL SWAP1 DUP2 ISZERO PUSH2 0x3A52 JUMPI DUP5 SWAP2 PUSH2 0x3A1E JUMPI JUMPDEST POP PUSH2 0x2710 PUSH2 0x38A9 PUSH2 0x38B4 SWAP3 PUSH2 0x38CE SWAP5 PUSH2 0x586E JUMP JUMPDEST DIV PUSH1 0x4 DUP5 ADD SLOAD PUSH2 0x58A1 JUMP JUMPDEST PUSH1 0x4 SLOAD PUSH1 0x3 SLOAD PUSH1 0x1 PUSH1 0x1 PUSH1 0xA0 SHL SUB SWAP1 DUP2 AND SWAP2 CALLER SWAP2 AND PUSH2 0x5741 JUMP JUMPDEST PUSH1 0x2 ADD SLOAD PUSH1 0x1 PUSH1 0x1 PUSH1 0xA0 SHL SUB AND DUP2 MSTORE PUSH1 0xB PUSH1 0x20 MSTORE PUSH1 0x40 DUP2 KECCAK256 DUP4 SLOAD PUSH2 0x38F1 SWAP2 PUSH2 0x570C JUMP JUMPDEST DUP3 SLOAD DUP2 MSTORE PUSH1 0x8 PUSH1 0x20 MSTORE PUSH1 0x40 DUP2 KECCAK256 SWAP3 DUP2 JUMPDEST DUP5 SLOAD DUP2 LT ISZERO PUSH2 0x3973 JUMPI DUP1 PUSH2 0x3918 PUSH2 0x392E SWAP3 DUP8 PUSH2 0x53A0 JUMP JUMPDEST POP SLOAD PUSH1 0x4 CALLDATALOAD EQ ISZERO DUP1 PUSH2 0x3951 JUMPI JUMPDEST PUSH2 0x3933 JUMPI PUSH2 0x562D JUMP JUMPDEST PUSH2 0x3901 JUMP JUMPDEST PUSH1 0xA PUSH2 0x393F DUP3 DUP9 PUSH2 0x53A0 JUMP JUMPDEST POP ADD DUP1 SLOAD PUSH1 0xFF NOT AND PUSH1 0x2 OR SWAP1 SSTORE PUSH2 0x562D JUMP JUMPDEST POP PUSH1 0xFF PUSH1 0xA PUSH2 0x3960 DUP4 DUP10 PUSH2 0x53A0 JUMP JUMPDEST POP ADD SLOAD AND PUSH2 0x396D DUP2 PUSH2 0x5152 JUMP JUMPDEST ISZERO PUSH2 0x3925 JUMP JUMPDEST POP PUSH1 0x0 DUP1 MLOAD PUSH1 0x20 PUSH2 0x5C89 DUP4 CODECOPY DUP2 MLOAD SWAP2 MSTORE PUSH1 0xC0 PUSH1 0xFF PUSH2 0x39E4 DUP7 DUP6 SLOAD SWAP6 PUSH1 0x1 DUP1 PUSH1 0xA0 SHL SUB PUSH1 0x1 DUP3 ADD SLOAD AND SWAP1 PUSH1 0x2 PUSH1 0x1 DUP1 PUSH1 0xA0 SHL SUB SWAP2 ADD SLOAD AND SWAP1 DUP8 PUSH32 0x3D7463B72B52FAFC8E3F27DC0DBB9D1A94C0A4024834252B5CCE68509ACB49BC PUSH1 0x20 PUSH1 0x40 MLOAD TIMESTAMP DUP2 MSTORE LOG4 PUSH1 0x40 MLOAD SWAP3 DUP4 SWAP2 PUSH1 0x10 SHR AND PUSH2 0x5393 JUMP JUMPDEST PUSH1 0x2 PUSH1 0x20 DUP3 ADD MSTORE PUSH1 0x80 PUSH1 0x40 DUP3 ADD MSTORE PUSH1 0xE PUSH1 0x80 DUP3 ADD MSTORE PUSH14 0x1C5D5BDD19481858D8D95C1D1959 PUSH1 0x92 SHL PUSH1 0xA0 DUP3 ADD MSTORE TIMESTAMP PUSH1 0x60 DUP3 ADD MSTORE LOG2 PUSH1 0x1 DUP1 SSTORE DUP1 RETURN JUMPDEST SWAP1 POP PUSH1 0x20 DUP2 RETURNDATASIZE PUSH1 0x20 GT PUSH2 0x3A4A JUMPI JUMPDEST DUP2 PUSH2 0x3A39 PUSH1 0x20 SWAP4 DUP4 PUSH2 0x5282 JUMP JUMPDEST DUP2 ADD SUB SLT PUSH2 0x2046 JUMPI MLOAD PUSH2 0x2710 PUSH2 0x3895 JUMP JUMPDEST RETURNDATASIZE SWAP2 POP PUSH2 0x3A2C JUMP JUMPDEST PUSH1 0x40 MLOAD RETURNDATASIZE DUP7 DUP3 RETURNDATACOPY RETURNDATASIZE SWAP1 REVERT JUMPDEST PUSH1 0x40 MLOAD PUSH3 0x461BCD PUSH1 0xE5 SHL DUP2 MSTORE PUSH1 0x20 PUSH1 0x4 DUP3 ADD MSTORE PUSH1 0x25 PUSH1 0x24 DUP3 ADD MSTORE PUSH32 0x4F7074696F6E73436F72653A207072656D69756D207261746520657863656564 PUSH1 0x44 DUP3 ADD MSTORE PUSH5 0xE640DAC2F PUSH1 0xDB SHL PUSH1 0x64 DUP3 ADD MSTORE PUSH1 0x84 SWAP1 REVERT JUMPDEST PUSH1 0x40 MLOAD PUSH3 0x461BCD PUSH1 0xE5 SHL DUP2 MSTORE PUSH1 0x20 PUSH1 0x4 DUP3 ADD MSTORE PUSH1 0x1B PUSH1 0x24 DUP3 ADD MSTORE PUSH32 0x4F7074696F6E73436F72653A20696E76616C6964207374617475730000000000 PUSH1 0x44 DUP3 ADD MSTORE PUSH1 0x64 SWAP1 REVERT JUMPDEST PUSH1 0x1 SWAP2 POP EQ CODESIZE PUSH2 0x376A JUMP JUMPDEST PUSH4 0x4E487B71 PUSH1 0xE0 SHL DUP4 MSTORE PUSH1 0x21 PUSH1 0x4 MSTORE PUSH1 0x24 DUP4 REVERT JUMPDEST PUSH1 0x40 MLOAD PUSH3 0x461BCD PUSH1 0xE5 SHL DUP2 MSTORE PUSH1 0x20 PUSH1 0x4 DUP3 ADD MSTORE PUSH1 0x1A PUSH1 0x24 DUP3 ADD MSTORE PUSH32 0x4F7074696F6E73436F72653A2071756F74652065787069726564000000000000 PUSH1 0x44 DUP3 ADD MSTORE PUSH1 0x64 SWAP1 REVERT JUMPDEST PUSH1 0x40 MLOAD PUSH3 0x461BCD PUSH1 0xE5 SHL DUP2 MSTORE PUSH1 0x20 PUSH1 0x4 DUP3 ADD MSTORE PUSH1 0x1D PUSH1 0x24 DUP3 ADD MSTORE PUSH32 0x4F7074696F6E73436F72653A2071756F7465206E6F7420616374697665000000 PUSH1 0x44 DUP3 ADD MSTORE PUSH1 0x64 SWAP1 REVERT JUMPDEST POP CALLVALUE PUSH2 0x2CC JUMPI DUP1 PUSH1 0x3 NOT CALLDATASIZE ADD SLT PUSH2 0x2CC JUMPI PUSH1 0x20 PUSH1 0xFF PUSH1 0x2 SLOAD AND PUSH1 0x40 MLOAD SWAP1 ISZERO ISZERO DUP2 MSTORE RETURN JUMPDEST POP CALLVALUE PUSH2 0x2CC JUMPI DUP1 PUSH1 0x3 NOT CALLDATASIZE ADD SLT PUSH2 0x2CC JUMPI PUSH1 0x20 PUSH1 0x6 SLOAD PUSH1 0x40 MLOAD SWAP1 DUP2 MSTORE RETURN JUMPDEST POP CALLVALUE PUSH2 0x2CC JUMPI PUSH1 0x20 DUP1 PUSH1 0x3 NOT CALLDATASIZE ADD SLT PUSH2 0x34E JUMPI PUSH1 0x4 CALLDATALOAD SWAP1 DUP2 ISZERO ISZERO DUP1 PUSH2 0x3DA8 JUMPI JUMPDEST PUSH2 0x3C08 SWAP1 PUSH2 0x58AE JUMP JUMPDEST DUP2 DUP4 MSTORE PUSH1 0x7 DUP2 MSTORE PUSH2 0x3C29 PUSH1 0x1 DUP1 PUSH1 0xA0 SHL SUB PUSH1 0x1 PUSH1 0x40 DUP7 KECCAK256 ADD SLOAD AND CALLER EQ PUSH2 0x5829 JUMP JUMPDEST DUP2 DUP4 MSTORE PUSH1 0x7 DUP2 MSTORE PUSH1 0xFF PUSH1 0x14 PUSH1 0x40 DUP6 KECCAK256 ADD SLOAD PUSH1 0x10 SHR AND PUSH1 0xB DUP2 LT ISZERO PUSH2 0x2644 JUMPI PUSH1 0x4 SUB PUSH2 0x3D5A JUMPI PUSH2 0x3C56 PUSH2 0x5806 JUMP JUMPDEST PUSH2 0x3C5E PUSH2 0x57E8 JUMP JUMPDEST DUP2 DUP4 MSTORE PUSH1 0x7 DUP2 MSTORE PUSH1 0x40 DUP4 KECCAK256 PUSH1 0xFF PUSH1 0x11 DUP3 ADD SLOAD PUSH1 0x18 SHR AND DUP1 DUP1 DIV PUSH1 0x1 EQ DUP2 ISZERO OR ISZERO PUSH2 0x2244 JUMPI PUSH2 0x3C90 SWAP1 PUSH1 0x16 DUP4 ADD SLOAD PUSH2 0x58A1 JUMP JUMPDEST TIMESTAMP LT PUSH2 0x3D09 JUMPI PUSH1 0xFF PUSH1 0x5 PUSH1 0x0 DUP1 MLOAD PUSH1 0x20 PUSH2 0x5C89 DUP4 CODECOPY DUP2 MLOAD SWAP2 MSTORE SWAP4 PUSH2 0x3CD3 PUSH1 0x14 PUSH1 0xC0 SWAP6 ADD DUP1 SLOAD SWAP1 PUSH3 0x50000 PUSH3 0xFF0000 NOT DUP4 AND OR SWAP1 SSTORE PUSH1 0x40 MLOAD SWAP5 DUP6 SWAP2 PUSH1 0x10 SHR AND PUSH2 0x5393 JUMP JUMPDEST DUP3 ADD MSTORE PUSH1 0x80 PUSH1 0x40 DUP3 ADD MSTORE PUSH1 0xE PUSH1 0x80 DUP3 ADD MSTORE PUSH14 0x6561726C79206578657263697365 PUSH1 0x90 SHL PUSH1 0xA0 DUP3 ADD MSTORE TIMESTAMP PUSH1 0x60 DUP3 ADD MSTORE LOG2 PUSH1 0x1 DUP1 SSTORE DUP1 RETURN JUMPDEST PUSH1 0x40 MLOAD PUSH3 0x461BCD PUSH1 0xE5 SHL DUP2 MSTORE PUSH1 0x4 DUP2 ADD DUP4 SWAP1 MSTORE PUSH1 0x23 PUSH1 0x24 DUP3 ADD MSTORE PUSH32 0x4F7074696F6E73436F72653A2065786572636973652064656C6179206E6F7420 PUSH1 0x44 DUP3 ADD MSTORE PUSH3 0x1B595D PUSH1 0xEA SHL PUSH1 0x64 DUP3 ADD MSTORE PUSH1 0x84 SWAP1 REVERT JUMPDEST PUSH1 0x84 SWAP1 PUSH1 0x40 MLOAD SWAP1 PUSH3 0x461BCD PUSH1 0xE5 SHL DUP3 MSTORE PUSH1 0x4 DUP3 ADD MSTORE PUSH1 0x21 PUSH1 0x24 DUP3 ADD MSTORE PUSH32 0x4F7074696F6E73436F72653A20696E76616C6964206F72646572207374617475 PUSH1 0x44 DUP3 ADD MSTORE PUSH1 0x73 PUSH1 0xF8 SHL PUSH1 0x64 DUP3 ADD MSTORE REVERT JUMPDEST POP PUSH1 0x5 SLOAD DUP3 LT PUSH2 0x3BFF JUMP JUMPDEST POP CALLVALUE PUSH2 0x2CC JUMPI PUSH1 0x40 CALLDATASIZE PUSH1 0x3 NOT ADD SLT PUSH2 0x2CC JUMPI PUSH2 0x3DCD PUSH2 0x5087 JUMP JUMPDEST PUSH1 0x1 PUSH1 0x1 PUSH1 0xA0 SHL SUB AND DUP2 MSTORE PUSH1 0xB PUSH1 0x20 MSTORE PUSH1 0x40 DUP2 KECCAK256 DUP1 SLOAD PUSH1 0x24 CALLDATALOAD SWAP3 SWAP1 DUP4 LT ISZERO PUSH2 0x2CC JUMPI PUSH1 0x20 PUSH2 0x3DFB DUP5 DUP5 PUSH2 0x50C9 JUMP JUMPDEST SWAP1 SLOAD PUSH1 0x40 MLOAD SWAP2 PUSH1 0x3 SHL SHR DUP2 MSTORE RETURN JUMPDEST POP CALLVALUE PUSH2 0x2CC JUMPI PUSH1 0x40 CALLDATASIZE PUSH1 0x3 NOT ADD SLT PUSH2 0x2CC JUMPI PUSH2 0x3E23 PUSH2 0x5087 JUMP JUMPDEST PUSH1 0x1 PUSH1 0x1 PUSH1 0xA0 SHL SUB AND DUP2 MSTORE PUSH1 0xA PUSH1 0x20 MSTORE PUSH1 0x40 DUP2 KECCAK256 DUP1 SLOAD PUSH1 0x24 CALLDATALOAD SWAP3 SWAP1 DUP4 LT ISZERO PUSH2 0x2CC JUMPI PUSH1 0x20 PUSH2 0x3DFB DUP5 DUP5 PUSH2 0x50C9 JUMP JUMPDEST POP CALLVALUE PUSH2 0x2CC JUMPI PUSH2 0x3E60 CALLDATASIZE PUSH2 0x50B3 JUMP JUMPDEST DUP2 ISZERO ISZERO DUP1 PUSH2 0x3F9A JUMPI JUMPDEST PUSH2 0x3E72 SWAP1 PUSH2 0x58AE JUMP JUMPDEST PUSH2 0x3E7A PUSH2 0x53BC JUMP JUMPDEST DUP2 DUP4 MSTORE PUSH1 0x7 PUSH1 0x20 MSTORE PUSH1 0x40 DUP4 KECCAK256 PUSH1 0x14 DUP2 ADD SWAP2 DUP3 SLOAD SWAP2 PUSH1 0xFF DUP4 PUSH1 0x10 SHR AND SWAP2 PUSH1 0xB DUP4 LT ISZERO PUSH2 0x36B3 JUMPI PUSH1 0x4 DUP4 EQ DUP1 ISZERO PUSH2 0x3F90 JUMPI JUMPDEST ISZERO PUSH2 0x3F2E JUMPI PUSH1 0x0 DUP1 MLOAD PUSH1 0x20 PUSH2 0x5C89 DUP4 CODECOPY DUP2 MLOAD SWAP2 MSTORE SWAP5 PUSH3 0x60000 PUSH1 0xC0 SWAP6 PUSH2 0x3ED1 DUP5 ISZERO ISZERO PUSH2 0x5B51 JUMP JUMPDEST PUSH3 0xFF0000 NOT AND OR SWAP1 SSTORE PUSH1 0x18 DUP3 ADD SSTORE PUSH1 0x17 TIMESTAMP SWAP2 ADD SSTORE PUSH2 0x3EF2 PUSH1 0x40 MLOAD DUP1 SWAP3 PUSH2 0x5393 JUMP JUMPDEST PUSH1 0x6 PUSH1 0x20 DUP3 ADD MSTORE PUSH1 0x80 PUSH1 0x40 DUP3 ADD MSTORE PUSH1 0x14 PUSH1 0x80 DUP3 ADD MSTORE PUSH20 0x199A5B985B08199959590818DBDB5C1B195D1959 PUSH1 0x62 SHL PUSH1 0xA0 DUP3 ADD MSTORE TIMESTAMP PUSH1 0x60 DUP3 ADD MSTORE LOG2 DUP1 RETURN JUMPDEST PUSH1 0x40 MLOAD PUSH3 0x461BCD PUSH1 0xE5 SHL DUP2 MSTORE PUSH1 0x20 PUSH1 0x4 DUP3 ADD MSTORE PUSH1 0x34 PUSH1 0x24 DUP3 ADD MSTORE PUSH32 0x4F7074696F6E73436F72653A206F72646572206E6F7420696E2076616C696420 PUSH1 0x44 DUP3 ADD MSTORE PUSH20 0x1CDD185D1948199BDC88199A5B985B0819995959 PUSH1 0x62 SHL PUSH1 0x64 DUP3 ADD MSTORE PUSH1 0x84 SWAP1 REVERT JUMPDEST POP PUSH1 0x5 DUP4 EQ PUSH2 0x3EAA JUMP JUMPDEST POP PUSH1 0x5 SLOAD DUP3 LT PUSH2 0x3E69 JUMP JUMPDEST POP CALLVALUE PUSH2 0x2CC JUMPI DUP1 PUSH1 0x3 NOT CALLDATASIZE ADD SLT PUSH2 0x2CC JUMPI PUSH2 0x3FBE PUSH2 0x53BC JUMP JUMPDEST PUSH1 0x2 SLOAD PUSH1 0xFF DUP2 AND ISZERO PUSH2 0x3FFE JUMPI PUSH1 0xFF NOT AND PUSH1 0x2 SSTORE PUSH32 0x5DB9EE0A495BF2E6FF9C91A7834C1BA4FDD244A5E8AA4E537BD38AEAE4B073AA PUSH1 0x20 PUSH1 0x40 MLOAD CALLER DUP2 MSTORE LOG1 DUP1 RETURN JUMPDEST PUSH1 0x40 MLOAD PUSH4 0x8DFC202B PUSH1 0xE0 SHL DUP2 MSTORE PUSH1 0x4 SWAP1 REVERT JUMPDEST POP CALLVALUE PUSH2 0x2CC JUMPI PUSH1 0x40 CALLDATASIZE PUSH1 0x3 NOT ADD SLT PUSH2 0x2CC JUMPI PUSH2 0x402A PUSH2 0x509D JUMP JUMPDEST CALLER PUSH1 0x1 PUSH1 0x1 PUSH1 0xA0 SHL SUB DUP3 AND SUB PUSH2 0x4046 JUMPI PUSH2 0x58C SWAP1 PUSH1 0x4 CALLDATALOAD PUSH2 0x54B8 JUMP JUMPDEST PUSH1 0x40 MLOAD PUSH4 0x334BD919 PUSH1 0xE1 SHL DUP2 MSTORE PUSH1 0x4 SWAP1 REVERT JUMPDEST POP CALLVALUE PUSH2 0x2CC JUMPI PUSH1 0x60 CALLDATASIZE PUSH1 0x3 NOT ADD SLT PUSH2 0x2CC JUMPI PUSH1 0x4 CALLDATALOAD PUSH1 0x24 PUSH1 0x44 CALLDATALOAD DUP2 CALLDATALOAD PUSH1 0x1 PUSH1 0x1 PUSH1 0x40 SHL SUB DUP1 DUP4 GT PUSH2 0x20A7 JUMPI CALLDATASIZE PUSH1 0x23 DUP5 ADD SLT ISZERO PUSH2 0x20A7 JUMPI DUP3 PUSH1 0x4 ADD CALLDATALOAD SWAP3 DUP2 DUP5 GT PUSH2 0x4367 JUMPI DUP5 CALLDATASIZE SWAP2 DUP6 PUSH1 0x5 SHL ADD ADD GT PUSH2 0x20A7 JUMPI DUP5 ISZERO ISZERO DUP1 PUSH2 0x435C JUMPI JUMPDEST PUSH2 0x40BB SWAP1 PUSH2 0x58AE JUMP JUMPDEST PUSH2 0x40C3 PUSH2 0x5806 JUMP JUMPDEST PUSH2 0x40CB PUSH2 0x57E8 JUMP JUMPDEST DUP6 DUP1 MSTORE PUSH1 0x20 SWAP4 DUP7 DUP6 MSTORE PUSH1 0x40 DUP8 KECCAK256 CALLER DUP9 MSTORE DUP6 MSTORE PUSH2 0x40ED PUSH1 0xFF PUSH1 0x40 DUP10 KECCAK256 SLOAD AND PUSH2 0x5AA8 JUMP JUMPDEST DUP6 DUP8 MSTORE PUSH1 0x7 DUP6 MSTORE PUSH1 0x40 DUP8 KECCAK256 SWAP3 PUSH1 0x14 DUP5 ADD SWAP5 PUSH1 0xFF DUP7 SLOAD PUSH1 0x10 SHR AND PUSH1 0xB DUP2 LT ISZERO PUSH2 0x4349 JUMPI PUSH1 0x7 SUB PUSH2 0x42F7 JUMPI ISZERO PUSH2 0x42B3 JUMPI PUSH1 0x18 DUP5 ADD DUP1 SLOAD PUSH1 0x1 DUP7 ADD SLOAD PUSH1 0x1 PUSH1 0x1 PUSH1 0xA0 SHL SUB SWAP1 DUP2 AND SWAP7 DUP12 SWAP5 DUP4 DUP2 EQ ISZERO SWAP5 SWAP1 SWAP4 SWAP3 DUP6 PUSH2 0x424E JUMPI JUMPDEST POP DUP4 SWAP1 SSTORE DUP9 SLOAD SWAP9 PUSH3 0x80000 PUSH3 0xFF0000 NOT DUP12 AND OR SWAP1 SSTORE PUSH1 0x17 TIMESTAMP SWAP2 ADD SSTORE PUSH1 0x40 MLOAD SWAP5 DUP10 DUP7 ADD SWAP1 DUP12 DUP3 MSTORE TIMESTAMP PUSH1 0x40 DUP9 ADD MSTORE PUSH1 0x40 DUP8 MSTORE PUSH1 0x60 DUP8 ADD SWAP8 DUP8 DUP10 LT SWAP1 DUP10 GT OR PUSH2 0x423A JUMPI POP PUSH1 0xC0 DUP8 PUSH1 0x0 DUP1 MLOAD PUSH1 0x20 PUSH2 0x5C89 DUP4 CODECOPY DUP2 MLOAD SWAP2 MSTORE SWAP12 SWAP8 PUSH2 0x41FE SWAP8 DUP4 SWAP13 SWAP8 DUP16 SWAP7 SWAP8 PUSH1 0xFF SWAP14 SWAP9 PUSH32 0xB3560D930DA64161657F7700F7109520A24B93D7FF2363739EE324A1E0D6BF87 SWAP8 PUSH1 0x8 SWAP15 PUSH1 0x40 MSTORE DUP6 MLOAD SWAP1 KECCAK256 SWAP10 DUP7 MSTORE PUSH1 0x80 DUP6 ADD MSTORE PUSH1 0xA0 DUP5 ADD MSTORE DUP5 DUP4 ADD MSTORE PUSH1 0xE0 DUP3 ADD MSTORE PUSH2 0x100 TIMESTAMP SWAP2 ADD MSTORE LOG3 PUSH1 0x40 MLOAD SWAP5 DUP6 SWAP2 PUSH1 0x10 SHR AND PUSH2 0x5393 JUMP JUMPDEST DUP3 ADD MSTORE PUSH1 0x80 PUSH1 0x40 DUP3 ADD MSTORE PUSH1 0x14 PUSH1 0x80 DUP3 ADD MSTORE PUSH20 0x185C989A5D1C985D1A5BDB881C995CDBDB1D9959 PUSH1 0x62 SHL PUSH1 0xA0 DUP3 ADD MSTORE TIMESTAMP PUSH1 0x60 DUP3 ADD MSTORE LOG2 PUSH1 0x1 DUP1 SSTORE DUP1 RETURN JUMPDEST PUSH4 0x4E487B71 PUSH1 0xE0 SHL PUSH1 0x0 SWAP1 DUP2 MSTORE PUSH1 0x41 PUSH1 0x4 MSTORE REVERT JUMPDEST PUSH1 0x3 SLOAD PUSH8 0x98A7D9B8314C0000 SWAP8 POP AND DUP14 DUP2 EXTCODESIZE ISZERO PUSH2 0x2CC JUMPI DUP9 PUSH1 0x44 DUP13 DUP4 DUP12 SWAP6 PUSH1 0x40 MLOAD SWAP7 DUP8 SWAP6 DUP7 SWAP5 PUSH4 0x15490EBB PUSH1 0xE0 SHL DUP7 MSTORE PUSH1 0x4 DUP7 ADD MSTORE DUP5 ADD MSTORE GAS CALL DUP1 ISZERO PUSH2 0x42A6 JUMPI ISZERO PUSH2 0x4142 JUMPI SWAP13 PUSH2 0x429F DUP6 SWAP3 SWAP15 PUSH2 0x5221 JUMP JUMPDEST SWAP13 SWAP1 PUSH2 0x4142 JUMP JUMPDEST DUP15 PUSH1 0x40 MLOAD SWAP1 RETURNDATASIZE SWAP1 DUP3 RETURNDATACOPY RETURNDATASIZE SWAP1 REVERT JUMPDEST PUSH1 0x40 MLOAD PUSH3 0x461BCD PUSH1 0xE5 SHL DUP2 MSTORE PUSH1 0x4 DUP2 ADD DUP8 SWAP1 MSTORE PUSH1 0x1B DUP2 DUP5 ADD MSTORE PUSH32 0x4F7074696F6E73436F72653A206E6F2061726269747261746F72730000000000 PUSH1 0x44 DUP3 ADD MSTORE PUSH1 0x64 SWAP1 REVERT JUMPDEST PUSH1 0x40 MLOAD PUSH3 0x461BCD PUSH1 0xE5 SHL DUP2 MSTORE PUSH1 0x4 DUP2 ADD DUP9 SWAP1 MSTORE PUSH1 0x25 DUP2 DUP6 ADD MSTORE PUSH32 0x4F7074696F6E73436F72653A206F72646572206E6F7420696E20617262697472 PUSH1 0x44 DUP3 ADD MSTORE PUSH5 0x30BA34B7B7 PUSH1 0xD9 SHL PUSH1 0x64 DUP3 ADD MSTORE PUSH1 0x84 SWAP1 REVERT JUMPDEST PUSH4 0x4E487B71 PUSH1 0xE0 SHL DUP11 MSTORE PUSH1 0x21 PUSH1 0x4 MSTORE DUP4 DUP11 REVERT JUMPDEST POP PUSH1 0x5 SLOAD DUP6 LT PUSH2 0x40B2 JUMP JUMPDEST DUP7 DUP1 REVERT JUMPDEST POP CALLVALUE PUSH2 0x2CC JUMPI PUSH1 0x60 CALLDATASIZE PUSH1 0x3 NOT ADD SLT PUSH2 0x2CC JUMPI PUSH1 0x4 CALLDATALOAD PUSH1 0x24 DUP1 CALLDATALOAD PUSH1 0x4 DUP2 LT ISZERO PUSH2 0x884 JUMPI PUSH1 0x44 CALLDATALOAD SWAP1 DUP4 ISZERO ISZERO DUP1 PUSH2 0x46FC JUMPI JUMPDEST PUSH2 0x43A3 SWAP1 PUSH2 0x58AE JUMP JUMPDEST PUSH32 0x4967FD25E7AA667B18955D808F19FD0C86238999FF8BE2EBC72CD2CD3A83DB0 SWAP2 DUP3 DUP7 MSTORE PUSH1 0x20 SWAP3 DUP7 DUP5 MSTORE PUSH1 0x40 DUP8 KECCAK256 CALLER DUP9 MSTORE DUP5 MSTORE PUSH1 0xFF PUSH1 0x40 DUP9 KECCAK256 SLOAD AND ISZERO PUSH2 0x46DF JUMPI POP DUP5 DUP7 MSTORE PUSH1 0x7 DUP4 MSTORE PUSH1 0x40 DUP7 KECCAK256 SWAP2 PUSH2 0x43FC DUP3 ISZERO ISZERO PUSH2 0x5B51 JUMP JUMPDEST PUSH2 0x4405 DUP2 PUSH2 0x5152 JUMP JUMPDEST DUP1 PUSH2 0x45B5 JUMPI POP SWAP1 PUSH1 0x14 DUP2 ADD SWAP4 DUP5 SLOAD SWAP5 PUSH1 0xFF DUP7 PUSH1 0x10 SHR AND SWAP6 PUSH1 0xB DUP8 LT ISZERO PUSH2 0x45A2 JUMPI PUSH3 0x40000 SWAP1 PUSH2 0x4436 PUSH1 0x2 DUP10 EQ PUSH2 0x5B05 JUMP JUMPDEST PUSH3 0xFF0000 NOT AND OR SWAP1 SSTORE PUSH2 0x4452 PUSH8 0xDE0B6B3A7640000 DUP5 DIV PUSH2 0x5BB8 JUMP JUMPDEST SWAP1 PUSH1 0x7 DUP4 ADD SWAP2 DUP1 MLOAD SWAP2 PUSH1 0x1 PUSH1 0x1 PUSH1 0x40 SHL SUB DUP4 GT PUSH2 0x4590 JUMPI POP PUSH2 0x4478 DUP3 PUSH2 0x3FD DUP6 SLOAD PUSH2 0x51E7 JUMP JUMPDEST DUP6 SWAP1 DUP10 PUSH1 0x1F DUP5 GT PUSH1 0x1 EQ PUSH2 0x4513 JUMPI SWAP4 DUP4 PUSH1 0x0 DUP1 MLOAD PUSH1 0x20 PUSH2 0x5C89 DUP4 CODECOPY DUP2 MLOAD SWAP2 MSTORE SWAP10 SWAP8 SWAP5 PUSH1 0x18 SWAP5 PUSH1 0x4 SWAP9 SWAP5 PUSH1 0xC0 SWAP12 SWAP9 SWAP3 PUSH2 0x4508 JUMPI JUMPDEST POP POP DUP2 PUSH1 0x1 SHL SWAP2 PUSH1 0x0 NOT SWAP1 PUSH1 0x3 SHL SHR NOT AND OR SWAP1 SSTORE JUMPDEST ADD SSTORE PUSH2 0x44CF PUSH1 0x40 MLOAD DUP1 SWAP5 PUSH2 0x5393 JUMP JUMPDEST DUP3 ADD MSTORE PUSH1 0x80 PUSH1 0x40 DUP3 ADD MSTORE PUSH1 0x15 PUSH1 0x80 DUP3 ADD MSTORE PUSH21 0x696E697469616C20666565642063616C6C6261636B PUSH1 0x58 SHL PUSH1 0xA0 DUP3 ADD MSTORE TIMESTAMP PUSH1 0x60 DUP3 ADD MSTORE LOG2 DUP1 RETURN JUMPDEST ADD MLOAD SWAP1 POP CODESIZE DUP1 PUSH2 0x44AB JUMP JUMPDEST POP DUP4 DUP11 MSTORE DUP7 DUP11 KECCAK256 SWAP2 SWAP1 PUSH1 0x1F NOT DUP5 AND DUP12 JUMPDEST DUP2 DUP2 LT PUSH2 0x4579 JUMPI POP DUP5 PUSH1 0x18 SWAP5 PUSH1 0x4 SWAP9 SWAP5 PUSH1 0xC0 SWAP12 SWAP9 SWAP5 PUSH1 0x0 DUP1 MLOAD PUSH1 0x20 PUSH2 0x5C89 DUP4 CODECOPY DUP2 MLOAD SWAP2 MSTORE SWAP14 SWAP12 SWAP9 PUSH1 0x1 SWAP6 LT PUSH2 0x4560 JUMPI JUMPDEST POP POP POP DUP2 SHL ADD SWAP1 SSTORE PUSH2 0x44C0 JUMP JUMPDEST ADD MLOAD PUSH1 0x0 NOT PUSH1 0xF8 DUP5 PUSH1 0x3 SHL AND SHR NOT AND SWAP1 SSTORE CODESIZE DUP1 DUP1 PUSH2 0x4553 JUMP JUMPDEST SWAP3 SWAP4 DUP10 PUSH1 0x1 DUP2 SWAP3 DUP8 DUP7 ADD MLOAD DUP2 SSTORE ADD SWAP6 ADD SWAP4 ADD PUSH2 0x4523 JUMP JUMPDEST PUSH4 0x4E487B71 PUSH1 0xE0 SHL DUP11 MSTORE PUSH1 0x41 PUSH1 0x4 MSTORE DUP10 REVERT JUMPDEST PUSH4 0x4E487B71 PUSH1 0xE0 SHL DUP10 MSTORE PUSH1 0x21 PUSH1 0x4 MSTORE DUP3 DUP10 REVERT JUMPDEST DUP1 PUSH2 0x45C1 PUSH1 0x2 SWAP3 PUSH2 0x5152 JUMP JUMPDEST EQ PUSH2 0x45CF JUMPI JUMPDEST POP POP POP POP POP DUP1 RETURN JUMPDEST PUSH1 0x14 DUP3 ADD DUP1 SLOAD PUSH1 0xFF DUP2 PUSH1 0x10 SHR AND SWAP6 PUSH1 0xB DUP8 LT ISZERO PUSH2 0x46CD JUMPI PUSH1 0x4 DUP8 EQ DUP1 ISZERO PUSH2 0x46C3 JUMPI JUMPDEST ISZERO PUSH2 0x4672 JUMPI POP PUSH3 0xFF0000 NOT AND PUSH3 0x60000 OR SWAP1 SSTORE PUSH1 0x18 DUP3 ADD SSTORE TIMESTAMP PUSH1 0x17 SWAP1 SWAP2 ADD SSTORE PUSH1 0x40 MLOAD PUSH1 0x0 DUP1 MLOAD PUSH1 0x20 PUSH2 0x5C89 DUP4 CODECOPY DUP2 MLOAD SWAP2 MSTORE SWAP3 PUSH1 0xC0 SWAP3 PUSH1 0x6 SWAP2 PUSH2 0x4634 SWAP1 DUP5 SWAP1 PUSH2 0x5393 JUMP JUMPDEST DUP3 ADD MSTORE PUSH1 0x80 PUSH1 0x40 DUP3 ADD MSTORE PUSH1 0x13 PUSH1 0x80 DUP3 ADD MSTORE PUSH19 0x66696E616C20666565642063616C6C6261636B PUSH1 0x68 SHL PUSH1 0xA0 DUP3 ADD MSTORE TIMESTAMP PUSH1 0x60 DUP3 ADD MSTORE LOG2 CODESIZE DUP1 DUP1 DUP1 DUP1 PUSH2 0x45C7 JUMP JUMPDEST DUP6 PUSH1 0x25 PUSH1 0x84 SWAP3 PUSH1 0x40 MLOAD SWAP3 PUSH3 0x461BCD PUSH1 0xE5 SHL DUP5 MSTORE PUSH1 0x4 DUP5 ADD MSTORE DUP3 ADD MSTORE PUSH32 0x4F7074696F6E73436F72653A206F72646572206E6F7420696E2076616C696420 PUSH1 0x44 DUP3 ADD MSTORE PUSH5 0x7374617465 PUSH1 0xD8 SHL PUSH1 0x64 DUP3 ADD MSTORE REVERT JUMPDEST POP PUSH1 0x5 DUP8 EQ PUSH2 0x45F1 JUMP JUMPDEST PUSH4 0x4E487B71 PUSH1 0xE0 SHL DUP10 MSTORE PUSH1 0x21 PUSH1 0x4 MSTORE DUP9 REVERT JUMPDEST DUP5 PUSH1 0x44 SWAP2 PUSH1 0x40 MLOAD SWAP2 PUSH4 0xE2517D3F PUSH1 0xE0 SHL DUP4 MSTORE CALLER PUSH1 0x4 DUP5 ADD MSTORE DUP3 ADD MSTORE REVERT JUMPDEST POP PUSH1 0x5 SLOAD DUP5 LT PUSH2 0x439A JUMP JUMPDEST POP CALLVALUE PUSH2 0x2CC JUMPI DUP1 PUSH1 0x3 NOT CALLDATASIZE ADD SLT PUSH2 0x2CC JUMPI PUSH1 0x4 SLOAD PUSH1 0x40 MLOAD PUSH1 0x1 PUSH1 0x1 PUSH1 0xA0 SHL SUB SWAP1 SWAP2 AND DUP2 MSTORE PUSH1 0x20 SWAP1 RETURN JUMPDEST POP CALLVALUE PUSH2 0x2CC JUMPI PUSH1 0x40 CALLDATASIZE PUSH1 0x3 NOT ADD SLT PUSH2 0x2CC JUMPI PUSH2 0x58C PUSH1 0x4 CALLDATALOAD PUSH2 0x4750 PUSH2 0x509D JUMP JUMPDEST SWAP1 DUP1 DUP5 MSTORE DUP4 PUSH1 0x20 MSTORE PUSH2 0x4768 PUSH1 0x1 PUSH1 0x40 DUP7 KECCAK256 ADD SLOAD PUSH2 0x5414 JUMP JUMPDEST PUSH2 0x543A JUMP JUMPDEST POP CALLVALUE PUSH2 0x2CC JUMPI DUP1 PUSH1 0x3 NOT CALLDATASIZE ADD SLT PUSH2 0x2CC JUMPI PUSH1 0x20 PUSH1 0x5 SLOAD PUSH1 0x40 MLOAD SWAP1 DUP2 MSTORE RETURN JUMPDEST POP CALLVALUE PUSH2 0x2CC JUMPI PUSH1 0x20 CALLDATASIZE PUSH1 0x3 NOT ADD SLT PUSH2 0x2CC JUMPI PUSH1 0x1 PUSH1 0x40 PUSH1 0x20 SWAP3 PUSH1 0x4 CALLDATALOAD DUP2 MSTORE DUP1 DUP5 MSTORE KECCAK256 ADD SLOAD PUSH1 0x40 MLOAD SWAP1 DUP2 MSTORE RETURN JUMPDEST POP CALLVALUE PUSH2 0x2CC JUMPI PUSH1 0x20 CALLDATASIZE PUSH1 0x3 NOT ADD SLT PUSH2 0x2CC JUMPI PUSH2 0x47D1 PUSH2 0x5087 JUMP JUMPDEST PUSH2 0x47D9 PUSH2 0x53BC JUMP JUMPDEST PUSH1 0x2 DUP1 SLOAD PUSH2 0x100 PUSH1 0x1 PUSH1 0xA8 SHL SUB NOT AND PUSH1 0x8 SWAP3 SWAP1 SWAP3 SHL PUSH2 0x100 PUSH1 0x1 PUSH1 0xA8 SHL SUB AND SWAP2 SWAP1 SWAP2 OR SWAP1 SSTORE DUP1 RETURN JUMPDEST POP CALLVALUE PUSH2 0x2CC JUMPI PUSH1 0x20 CALLDATASIZE PUSH1 0x3 NOT ADD SLT PUSH2 0x2CC JUMPI PUSH1 0x4 CALLDATALOAD PUSH4 0xFFFFFFFF PUSH1 0xE0 SHL DUP2 AND DUP1 SWAP2 SUB PUSH2 0x34E JUMPI PUSH1 0x20 SWAP1 PUSH4 0x7965DB0B PUSH1 0xE0 SHL DUP2 EQ SWAP1 DUP2 ISZERO PUSH2 0x4847 JUMPI JUMPDEST POP PUSH1 0x40 MLOAD SWAP1 ISZERO ISZERO DUP2 MSTORE RETURN JUMPDEST PUSH4 0x1FFC9A7 PUSH1 0xE0 SHL EQ SWAP1 POP DUP3 PUSH2 0x483C JUMP JUMPDEST POP CALLVALUE PUSH2 0x2CC JUMPI PUSH2 0x220 CALLDATASIZE PUSH1 0x3 NOT ADD SLT PUSH2 0x2CC JUMPI PUSH1 0x4 CALLDATALOAD PUSH1 0x1 PUSH1 0x1 PUSH1 0x40 SHL SUB DUP2 GT PUSH2 0x34E JUMPI PUSH2 0x488A SWAP1 CALLDATASIZE SWAP1 PUSH1 0x4 ADD PUSH2 0x504A JUMP JUMPDEST SWAP1 SWAP2 PUSH1 0x24 CALLDATALOAD PUSH1 0x1 PUSH1 0x1 PUSH1 0x40 SHL SUB DUP2 GT PUSH2 0x34E JUMPI PUSH2 0x48AB SWAP1 CALLDATASIZE SWAP1 PUSH1 0x4 ADD PUSH2 0x504A JUMP JUMPDEST SWAP4 SWAP1 PUSH1 0x44 CALLDATALOAD PUSH1 0x1 PUSH1 0x1 PUSH1 0x40 SHL SUB DUP2 GT PUSH2 0x884 JUMPI PUSH2 0x48CC SWAP1 CALLDATASIZE SWAP1 PUSH1 0x4 ADD PUSH2 0x504A JUMP JUMPDEST SWAP1 PUSH1 0x64 CALLDATALOAD PUSH1 0x1 PUSH1 0x1 PUSH1 0x40 SHL SUB DUP2 GT PUSH2 0x20A7 JUMPI PUSH2 0x48EC SWAP1 CALLDATASIZE SWAP1 PUSH1 0x4 ADD PUSH2 0x504A JUMP JUMPDEST SWAP1 SWAP5 PUSH1 0x84 CALLDATALOAD PUSH1 0x1 PUSH1 0x1 PUSH1 0x40 SHL SUB DUP2 GT PUSH2 0x20A3 JUMPI PUSH2 0x490D SWAP1 CALLDATASIZE SWAP1 PUSH1 0x4 ADD PUSH2 0x504A JUMP JUMPDEST PUSH1 0x2 PUSH1 0xA4 CALLDATALOAD LT ISZERO PUSH2 0x5046 JUMPI PUSH1 0x3 PUSH2 0x144 CALLDATALOAD LT ISZERO PUSH2 0x5046 JUMPI PUSH1 0xFF PUSH2 0x164 CALLDATALOAD AND PUSH2 0x164 CALLDATALOAD SUB PUSH2 0x5046 JUMPI PUSH1 0xFF PUSH2 0x184 CALLDATALOAD AND PUSH2 0x184 CALLDATALOAD SUB PUSH2 0x5046 JUMPI PUSH2 0x494C PUSH2 0x5077 JUMP JUMPDEST SWAP2 PUSH1 0xFF PUSH2 0x1E4 CALLDATALOAD AND PUSH2 0x1E4 CALLDATALOAD SUB PUSH2 0x209F JUMPI PUSH1 0x2 PUSH2 0x204 CALLDATALOAD LT ISZERO PUSH2 0x209F JUMPI PUSH2 0x4971 PUSH2 0x5806 JUMP JUMPDEST PUSH2 0x4979 PUSH2 0x57E8 JUMP JUMPDEST PUSH2 0x4986 PUSH1 0xC4 CALLDATALOAD ISZERO ISZERO PUSH2 0x552D JUMP JUMPDEST PUSH2 0x4993 TIMESTAMP PUSH1 0xE4 CALLDATALOAD GT PUSH2 0x5588 JUMP JUMPDEST PUSH1 0x4 DUP1 SLOAD PUSH1 0x3 SLOAD PUSH1 0x2 SLOAD PUSH1 0x40 MLOAD PUSH4 0x37382D39 PUSH1 0xE2 SHL DUP2 MSTORE PUSH1 0x1 PUSH1 0x1 PUSH1 0xA0 SHL SUB SWAP4 DUP5 AND SWAP5 SWAP1 SWAP4 SWAP3 DUP4 AND SWAP3 PUSH1 0x20 SWAP3 DUP6 SWAP3 SWAP2 DUP4 SWAP2 PUSH1 0x8 SHR AND GAS STATICCALL SWAP2 DUP3 ISZERO PUSH2 0x503B JUMPI DUP14 SWAP3 PUSH2 0x5001 JUMPI JUMPDEST POP PUSH2 0x49E4 SWAP3 CALLER SWAP1 PUSH2 0x5741 JUMP JUMPDEST PUSH2 0x124 CALLDATALOAD PUSH2 0x4FD9 JUMPI JUMPDEST PUSH1 0x5 SLOAD SWAP11 PUSH2 0x49FA DUP13 PUSH2 0x562D JUMP JUMPDEST PUSH1 0x5 SSTORE DUP12 DUP12 MSTORE PUSH1 0x7 PUSH1 0x20 MSTORE PUSH1 0x40 DUP12 KECCAK256 DUP13 DUP2 SSTORE PUSH1 0x2 DUP2 ADD DUP1 SLOAD PUSH1 0x1 PUSH1 0x1 PUSH1 0xA0 SHL SUB NOT AND CALLER OR SWAP1 SSTORE SWAP5 PUSH1 0x1 PUSH1 0x1 PUSH1 0x40 SHL SUB DUP3 GT PUSH2 0x4FC5 JUMPI DUP2 SWAP1 PUSH2 0x4A4B DUP3 PUSH2 0x4A42 PUSH1 0x3 DUP11 ADD SLOAD PUSH2 0x51E7 JUMP JUMPDEST PUSH1 0x3 DUP11 ADD PUSH2 0x5652 JUMP JUMPDEST DUP13 SWAP1 PUSH1 0x1F DUP4 GT PUSH1 0x1 EQ PUSH2 0x4F59 JUMPI DUP14 SWAP3 PUSH2 0x4F4E JUMPI JUMPDEST POP POP DUP2 PUSH1 0x1 SHL SWAP2 PUSH1 0x0 NOT SWAP1 PUSH1 0x3 SHL SHR NOT AND OR PUSH1 0x3 DUP6 ADD SSTORE JUMPDEST PUSH1 0x1 PUSH1 0x1 PUSH1 0x40 SHL SUB DUP13 GT PUSH2 0x4DD4 JUMPI PUSH2 0x4A9F DUP13 PUSH2 0x4A96 PUSH1 0x4 DUP8 ADD SLOAD PUSH2 0x51E7 JUMP JUMPDEST PUSH1 0x4 DUP8 ADD PUSH2 0x5652 JUMP JUMPDEST DUP12 DUP11 PUSH1 0x1F DUP3 GT PUSH1 0x1 EQ PUSH2 0x4EDF JUMPI DUP12 SWAP2 PUSH2 0x4ED4 JUMPI JUMPDEST POP PUSH1 0x0 NOT PUSH1 0x3 DUP15 SWAP1 SHL SHR NOT AND PUSH1 0x1 DUP14 SWAP1 SHL OR PUSH1 0x4 DUP6 ADD SSTORE JUMPDEST PUSH1 0x1 PUSH1 0x1 PUSH1 0x40 SHL SUB DUP8 GT PUSH2 0x4DD4 JUMPI PUSH2 0x4AF3 DUP8 PUSH2 0x4AEA PUSH1 0x5 DUP8 ADD SLOAD PUSH2 0x51E7 JUMP JUMPDEST PUSH1 0x5 DUP8 ADD PUSH2 0x5652 JUMP JUMPDEST DUP7 DUP11 PUSH1 0x1F DUP3 GT PUSH1 0x1 EQ PUSH2 0x4E6A JUMPI DUP12 SWAP2 PUSH2 0x4E5F JUMPI JUMPDEST POP DUP8 PUSH1 0x1 SHL SWAP1 PUSH1 0x0 NOT DUP10 PUSH1 0x3 SHL SHR NOT AND OR PUSH1 0x5 DUP6 ADD SSTORE JUMPDEST PUSH1 0x1 PUSH1 0x1 PUSH1 0x40 SHL SUB DUP6 GT PUSH2 0x4DD4 JUMPI PUSH2 0x4B46 DUP6 PUSH2 0x4B3D PUSH1 0x6 DUP8 ADD SLOAD PUSH2 0x51E7 JUMP JUMPDEST PUSH1 0x6 DUP8 ADD PUSH2 0x5652 JUMP JUMPDEST DUP5 DUP11 PUSH1 0x1F DUP3 GT PUSH1 0x1 EQ PUSH2 0x4DF3 JUMPI DUP12 SWAP2 PUSH2 0x4DE8 JUMPI JUMPDEST POP DUP6 PUSH1 0x1 SHL SWAP1 PUSH1 0x0 NOT DUP8 PUSH1 0x3 SHL SHR NOT AND OR PUSH1 0x6 DUP6 ADD SSTORE JUMPDEST PUSH1 0x1 PUSH1 0x1 PUSH1 0x40 SHL SUB DUP3 GT PUSH2 0x4DD4 JUMPI SWAP3 PUSH1 0x20 SWAP12 SWAP7 SWAP5 SWAP3 DUP3 DUP13 SWAP10 SWAP8 SWAP6 PUSH2 0x4BA6 DUP14 SWAP6 PUSH2 0x4B9D PUSH1 0x7 DUP8 ADD SLOAD PUSH2 0x51E7 JUMP JUMPDEST PUSH1 0x7 DUP8 ADD PUSH2 0x5652 JUMP JUMPDEST DUP5 SWAP1 PUSH1 0x1F DUP4 GT PUSH1 0x1 EQ PUSH2 0x4D28 JUMPI SWAP6 DUP16 PUSH2 0x4CDF SWAP14 PUSH2 0x1CAF DUP15 PUSH1 0x40 DUP11 DUP6 SWAP16 SWAP15 SWAP12 SWAP11 PUSH2 0x1CDF SWAP15 SWAP11 DUP11 DUP6 SWAP16 SWAP12 DUP7 SWAP12 DUP11 SWAP16 SWAP14 PUSH2 0x1CC7 SWAP15 SWAP3 PUSH2 0x4D1D JUMPI JUMPDEST POP POP DUP2 PUSH1 0x1 SHL SWAP2 PUSH1 0x0 NOT SWAP1 PUSH1 0x3 SHL SHR NOT AND OR PUSH1 0x7 DUP4 ADD SSTORE JUMPDEST PUSH2 0x4C04 PUSH1 0xA4 CALLDATALOAD PUSH1 0x8 DUP5 ADD PUSH2 0x56A6 JUMP JUMPDEST PUSH1 0xC4 CALLDATALOAD PUSH1 0x9 DUP4 ADD SSTORE PUSH1 0xE4 CALLDATALOAD PUSH1 0xB DUP4 ADD SSTORE PUSH2 0x2710 PUSH2 0x4C2C PUSH2 0x104 CALLDATALOAD DUP1 PUSH1 0xC DUP7 ADD SSTORE PUSH1 0xC4 CALLDATALOAD PUSH2 0x586E JUMP JUMPDEST DIV PUSH1 0xD DUP4 ADD SSTORE PUSH2 0x124 CALLDATALOAD PUSH1 0xE DUP4 ADD SSTORE PUSH2 0x124 CALLDATALOAD PUSH1 0xF DUP4 ADD SSTORE PUSH1 0x11 DUP3 ADD PUSH2 0x4C55 PUSH2 0x144 CALLDATALOAD DUP3 PUSH2 0x56E3 JUMP JUMPDEST DUP1 SLOAD PUSH3 0xFF0000 PUSH2 0x184 CALLDATALOAD PUSH1 0x10 SHL AND PUSH3 0xFFFF00 NOT SWAP1 SWAP2 AND PUSH2 0xFF00 PUSH2 0x164 CALLDATALOAD PUSH1 0x8 SHL AND OR OR DUP2 SSTORE PUSH2 0x1A4 CALLDATALOAD PUSH1 0x12 DUP5 ADD SSTORE PUSH1 0x14 DUP4 ADD DUP1 SLOAD SWAP3 ISZERO ISZERO PUSH1 0xFF AND PUSH1 0xFF NOT SWAP4 SWAP1 SWAP4 AND SWAP3 SWAP1 SWAP3 OR DUP3 SSTORE DUP1 SLOAD PUSH4 0xFF000000 NOT AND PUSH2 0x1E4 CALLDATALOAD PUSH1 0x18 SHL PUSH4 0xFF000000 AND OR SWAP1 SSTORE PUSH2 0x4CC2 PUSH2 0x204 CALLDATALOAD DUP3 PUSH2 0x56ED JUMP JUMPDEST PUSH3 0xFF0000 NOT DUP2 SLOAD AND SWAP1 SSTORE PUSH1 0x15 TIMESTAMP SWAP2 ADD SSTORE CALLER DUP2 MSTORE PUSH1 0xB DUP7 MSTORE KECCAK256 PUSH2 0x570C JUMP JUMPDEST PUSH1 0x40 MLOAD SWAP1 DUP2 MSTORE TIMESTAMP DUP4 DUP3 ADD MSTORE DUP2 PUSH32 0xC0C6ED2669FEBBE340D8737E8EC17254FFD9E038B54A4585FF70AC3CA18956AA PUSH1 0x40 CALLER SWAP4 LOG3 PUSH1 0x1 DUP1 SSTORE PUSH1 0x40 MLOAD SWAP1 DUP2 MSTORE RETURN JUMPDEST ADD CALLDATALOAD SWAP1 POP CODESIZE DUP1 PUSH2 0x4BDD JUMP JUMPDEST SWAP12 SWAP5 SWAP4 SWAP3 SWAP2 SWAP1 PUSH1 0x7 DUP5 ADD DUP6 MSTORE DUP16 DUP6 KECCAK256 SWAP1 DUP6 JUMPDEST PUSH1 0x1F NOT DUP5 AND DUP2 LT PUSH2 0x4DA2 JUMPI POP PUSH1 0x20 SWAP11 SWAP10 SWAP7 PUSH2 0x1CAF PUSH2 0x4CDF SWAP16 DUP16 SWAP11 SWAP5 DUP15 SWAP10 PUSH2 0x1CDF SWAP14 SWAP10 PUSH2 0x1CC7 SWAP10 PUSH1 0x1 DUP16 SWAP11 PUSH1 0x40 SWAP6 DUP16 SWAP11 SWAP8 DUP14 SWAP9 DUP4 PUSH1 0x1F NOT DUP2 AND LT PUSH2 0x4D88 JUMPI JUMPDEST POP POP POP DUP2 SHL ADD PUSH1 0x7 DUP4 ADD SSTORE PUSH2 0x4BF5 JUMP JUMPDEST ADD CALLDATALOAD PUSH1 0x0 NOT PUSH1 0x3 DUP5 SWAP1 SHL PUSH1 0xF8 AND SHR NOT AND SWAP1 SSTORE CODESIZE DUP1 DUP1 PUSH2 0x4D78 JUMP JUMPDEST SWAP3 SWAP6 POP SWAP4 SWAP7 SWAP9 SWAP11 SWAP13 SWAP3 SWAP6 SWAP8 SWAP10 SWAP12 POP DUP16 PUSH1 0x1 DUP2 SWAP3 DUP7 DUP7 ADD CALLDATALOAD DUP2 SSTORE ADD SWAP5 ADD SWAP2 ADD SWAP3 DUP14 SWAP5 SWAP2 DUP16 SWAP13 SWAP11 SWAP9 SWAP7 SWAP4 SWAP14 SWAP12 SWAP10 SWAP8 SWAP5 PUSH2 0x4D3A JUMP JUMPDEST PUSH4 0x4E487B71 PUSH1 0xE0 SHL DUP11 MSTORE PUSH1 0x41 PUSH1 0x4 MSTORE PUSH1 0x24 DUP11 REVERT JUMPDEST SWAP1 POP DUP10 ADD CALLDATALOAD CODESIZE PUSH2 0x4B5A JUMP JUMPDEST PUSH1 0x6 DUP7 ADD DUP13 MSTORE PUSH1 0x20 DUP13 KECCAK256 SWAP2 POP DUP12 JUMPDEST DUP12 PUSH1 0x1F NOT DUP10 AND DUP3 LT PUSH2 0x4E47 JUMPI POP POP DUP7 PUSH1 0x1F NOT DUP2 AND LT PUSH2 0x4E2D JUMPI JUMPDEST POP POP PUSH1 0x1 DUP6 DUP2 SHL ADD PUSH1 0x6 DUP6 ADD SSTORE PUSH2 0x4B71 JUMP JUMPDEST DUP11 ADD CALLDATALOAD PUSH1 0x0 NOT PUSH1 0x3 DUP9 SWAP1 SHL PUSH1 0xF8 AND SHR NOT AND SWAP1 SSTORE CODESIZE DUP1 PUSH2 0x4E1B JUMP JUMPDEST PUSH1 0x1 DUP4 SWAP5 PUSH1 0x20 SWAP4 SWAP5 DUP5 SWAP4 ADD CALLDATALOAD DUP2 SSTORE ADD SWAP4 ADD SWAP2 ADD PUSH2 0x4E01 JUMP JUMPDEST SWAP1 POP DUP7 ADD CALLDATALOAD CODESIZE PUSH2 0x4B07 JUMP JUMPDEST PUSH1 0x5 DUP7 ADD DUP13 MSTORE PUSH1 0x20 DUP13 KECCAK256 SWAP2 POP DUP12 JUMPDEST PUSH1 0x1F NOT DUP11 AND DUP2 LT PUSH2 0x4EBC JUMPI POP DUP9 PUSH1 0x1F NOT DUP2 AND LT PUSH2 0x4EA2 JUMPI JUMPDEST POP POP PUSH1 0x1 DUP8 DUP2 SHL ADD PUSH1 0x5 DUP6 ADD SSTORE PUSH2 0x4B1E JUMP JUMPDEST DUP8 ADD CALLDATALOAD PUSH1 0x0 NOT PUSH1 0x3 DUP11 SWAP1 SHL PUSH1 0xF8 AND SHR NOT AND SWAP1 SSTORE CODESIZE DUP1 PUSH2 0x4E90 JUMP JUMPDEST SWAP1 SWAP2 PUSH1 0x20 PUSH1 0x1 DUP2 SWAP3 DUP6 DUP13 ADD CALLDATALOAD DUP2 SSTORE ADD SWAP4 ADD SWAP2 ADD PUSH2 0x4E78 JUMP JUMPDEST SWAP1 POP DUP9 ADD CALLDATALOAD CODESIZE PUSH2 0x4AB3 JUMP JUMPDEST PUSH1 0x4 DUP7 ADD DUP13 MSTORE PUSH1 0x20 DUP13 KECCAK256 SWAP2 POP DUP12 DUP15 JUMPDEST DUP12 PUSH1 0x1F NOT DUP3 AND DUP4 LT PUSH2 0x4F34 JUMPI POP PUSH1 0x1F NOT DUP2 AND LT SWAP1 POP PUSH2 0x4F1A JUMPI JUMPDEST POP POP PUSH1 0x1 DUP13 DUP2 SHL ADD PUSH1 0x4 DUP6 ADD SSTORE PUSH2 0x4ACB JUMP JUMPDEST DUP10 ADD CALLDATALOAD PUSH1 0x0 NOT PUSH1 0x3 DUP16 SWAP1 SHL PUSH1 0xF8 AND SHR NOT AND SWAP1 SSTORE CODESIZE DUP1 PUSH2 0x4F08 JUMP JUMPDEST PUSH1 0x1 DUP5 SWAP6 PUSH1 0x20 SWAP4 SWAP5 SWAP6 DUP5 SWAP4 ADD CALLDATALOAD DUP2 SSTORE ADD SWAP5 ADD SWAP3 ADD SWAP1 PUSH2 0x4EEE JUMP JUMPDEST ADD CALLDATALOAD SWAP1 POP CODESIZE DUP1 PUSH2 0x4A5F JUMP JUMPDEST PUSH1 0x3 DUP9 ADD DUP15 MSTORE PUSH1 0x20 DUP15 KECCAK256 DUP15 SWAP5 POP SWAP2 JUMPDEST PUSH1 0x1F NOT DUP5 AND DUP6 LT PUSH2 0x4FAD JUMPI PUSH1 0x1 SWAP5 POP DUP4 PUSH1 0x1F NOT DUP2 AND LT PUSH2 0x4F93 JUMPI JUMPDEST POP POP POP DUP2 SHL ADD PUSH1 0x3 DUP6 ADD SSTORE PUSH2 0x4A77 JUMP JUMPDEST ADD CALLDATALOAD PUSH1 0x0 NOT PUSH1 0x3 DUP5 SWAP1 SHL PUSH1 0xF8 AND SHR NOT AND SWAP1 SSTORE CODESIZE DUP1 DUP1 PUSH2 0x4F83 JUMP JUMPDEST DUP2 DUP2 ADD CALLDATALOAD DUP4 SSTORE PUSH1 0x20 SWAP5 DUP6 ADD SWAP5 PUSH1 0x1 SWAP1 SWAP4 ADD SWAP3 ADD PUSH2 0x4F68 JUMP JUMPDEST PUSH4 0x4E487B71 PUSH1 0xE0 SHL DUP13 MSTORE PUSH1 0x41 PUSH1 0x4 MSTORE PUSH1 0x24 DUP13 REVERT JUMPDEST PUSH1 0x4 SLOAD PUSH1 0x3 SLOAD PUSH2 0x4FFC SWAP2 PUSH2 0x124 CALLDATALOAD SWAP2 PUSH1 0x1 PUSH1 0x1 PUSH1 0xA0 SHL SUB SWAP1 DUP2 AND SWAP2 CALLER SWAP2 AND PUSH2 0x5741 JUMP JUMPDEST PUSH2 0x49ED JUMP JUMPDEST SWAP1 SWAP2 POP PUSH1 0x20 DUP2 RETURNDATASIZE PUSH1 0x20 GT PUSH2 0x5033 JUMPI JUMPDEST DUP2 PUSH2 0x501D PUSH1 0x20 SWAP4 DUP4 PUSH2 0x5282 JUMP JUMPDEST DUP2 ADD SUB SLT PUSH2 0x502F JUMPI MLOAD SWAP1 PUSH2 0x49E4 PUSH2 0x49D8 JUMP JUMPDEST DUP13 DUP1 REVERT JUMPDEST RETURNDATASIZE SWAP2 POP PUSH2 0x5010 JUMP JUMPDEST PUSH1 0x40 MLOAD RETURNDATASIZE DUP16 DUP3 RETURNDATACOPY RETURNDATASIZE SWAP1 REVERT JUMPDEST DUP9 DUP1 REVERT JUMPDEST SWAP2 DUP2 PUSH1 0x1F DUP5 ADD SLT ISZERO PUSH2 0x2046 JUMPI DUP3 CALLDATALOAD SWAP2 PUSH1 0x1 PUSH1 0x1 PUSH1 0x40 SHL SUB DUP4 GT PUSH2 0x2046 JUMPI PUSH1 0x20 DUP4 DUP2 DUP7 ADD SWAP6 ADD ADD GT PUSH2 0x2046 JUMPI JUMP JUMPDEST PUSH2 0x1C4 CALLDATALOAD SWAP1 DUP2 ISZERO ISZERO DUP3 SUB PUSH2 0x2046 JUMPI JUMP JUMPDEST PUSH1 0x4 CALLDATALOAD SWAP1 PUSH1 0x1 PUSH1 0x1 PUSH1 0xA0 SHL SUB DUP3 AND DUP3 SUB PUSH2 0x2046 JUMPI JUMP JUMPDEST PUSH1 0x24 CALLDATALOAD SWAP1 PUSH1 0x1 PUSH1 0x1 PUSH1 0xA0 SHL SUB DUP3 AND DUP3 SUB PUSH2 0x2046 JUMPI JUMP JUMPDEST PUSH1 0x40 SWAP1 PUSH1 0x3 NOT ADD SLT PUSH2 0x2046 JUMPI PUSH1 0x4 CALLDATALOAD SWAP1 PUSH1 0x24 CALLDATALOAD SWAP1 JUMP JUMPDEST DUP1 SLOAD DUP3 LT ISZERO PUSH2 0x50E1 JUMPI PUSH1 0x0 MSTORE PUSH1 0x20 PUSH1 0x0 KECCAK256 ADD SWAP1 PUSH1 0x0 SWAP1 JUMP JUMPDEST PUSH4 0x4E487B71 PUSH1 0xE0 SHL PUSH1 0x0 MSTORE PUSH1 0x32 PUSH1 0x4 MSTORE PUSH1 0x24 PUSH1 0x0 REVERT JUMPDEST PUSH1 0x20 SWAP1 DUP2 PUSH1 0x40 DUP2 DUP4 ADD SWAP3 DUP3 DUP2 MSTORE DUP6 MLOAD DUP1 SWAP5 MSTORE ADD SWAP4 ADD SWAP2 PUSH1 0x0 JUMPDEST DUP3 DUP2 LT PUSH2 0x511E JUMPI POP POP POP POP SWAP1 JUMP JUMPDEST DUP4 MLOAD DUP6 MSTORE SWAP4 DUP2 ADD SWAP4 SWAP3 DUP2 ADD SWAP3 PUSH1 0x1 ADD PUSH2 0x5110 JUMP JUMPDEST PUSH1 0x3 GT ISZERO PUSH2 0x513C JUMPI JUMP JUMPDEST PUSH4 0x4E487B71 PUSH1 0xE0 SHL PUSH1 0x0 MSTORE PUSH1 0x21 PUSH1 0x4 MSTORE PUSH1 0x24 PUSH1 0x0 REVERT JUMPDEST PUSH1 0x4 GT ISZERO PUSH2 0x513C JUMPI JUMP JUMPDEST SWAP12 SWAP10 SWAP8 SWAP6 SWAP4 SWAP2 SWAP15 SWAP14 SWAP13 SWAP11 SWAP9 SWAP7 SWAP5 SWAP3 SWAP1 SWAP15 PUSH2 0x1C0 DUP14 ADD SWAP16 DUP14 MSTORE PUSH1 0x20 DUP14 ADD MSTORE PUSH1 0x1 PUSH1 0xA0 SHL PUSH1 0x1 SWAP1 SUB AND PUSH1 0x40 DUP13 ADD MSTORE PUSH2 0x5191 DUP2 PUSH2 0x5132 JUMP JUMPDEST PUSH1 0x60 DUP12 ADD MSTORE PUSH1 0x80 DUP11 ADD MSTORE PUSH1 0xA0 DUP10 ADD MSTORE PUSH1 0xC0 DUP9 ADD MSTORE PUSH1 0xE0 DUP8 ADD MSTORE PUSH2 0x51B3 DUP2 PUSH2 0x5132 JUMP JUMPDEST PUSH2 0x100 DUP7 ADD MSTORE PUSH1 0xFF AND PUSH2 0x120 DUP6 ADD MSTORE PUSH1 0xFF AND PUSH2 0x140 DUP5 ADD MSTORE PUSH2 0x160 DUP4 ADD MSTORE PUSH2 0x180 DUP3 ADD MSTORE PUSH2 0x51E0 DUP3 PUSH2 0x5152 JUMP JUMPDEST PUSH2 0x1A0 ADD MSTORE JUMP JUMPDEST SWAP1 PUSH1 0x1 DUP3 DUP2 SHR SWAP3 AND DUP1 ISZERO PUSH2 0x5217 JUMPI JUMPDEST PUSH1 0x20 DUP4 LT EQ PUSH2 0x5201 JUMPI JUMP JUMPDEST PUSH4 0x4E487B71 PUSH1 0xE0 SHL PUSH1 0x0 MSTORE PUSH1 0x22 PUSH1 0x4 MSTORE PUSH1 0x24 PUSH1 0x0 REVERT JUMPDEST SWAP2 PUSH1 0x7F AND SWAP2 PUSH2 0x51F6 JUMP JUMPDEST PUSH1 0x1 PUSH1 0x1 PUSH1 0x40 SHL SUB DUP2 GT PUSH2 0x5234 JUMPI PUSH1 0x40 MSTORE JUMP JUMPDEST PUSH4 0x4E487B71 PUSH1 0xE0 SHL PUSH1 0x0 MSTORE PUSH1 0x41 PUSH1 0x4 MSTORE PUSH1 0x24 PUSH1 0x0 REVERT JUMPDEST PUSH2 0x1C0 DUP2 ADD SWAP1 DUP2 LT PUSH1 0x1 PUSH1 0x1 PUSH1 0x40 SHL SUB DUP3 GT OR PUSH2 0x5234 JUMPI PUSH1 0x40 MSTORE JUMP JUMPDEST PUSH2 0x420 DUP2 ADD SWAP1 DUP2 LT PUSH1 0x1 PUSH1 0x1 PUSH1 0x40 SHL SUB DUP3 GT OR PUSH2 0x5234 JUMPI PUSH1 0x40 MSTORE JUMP JUMPDEST SWAP1 PUSH1 0x1F DUP1 NOT SWAP2 ADD AND DUP2 ADD SWAP1 DUP2 LT PUSH1 0x1 PUSH1 0x1 PUSH1 0x40 SHL SUB DUP3 GT OR PUSH2 0x5234 JUMPI PUSH1 0x40 MSTORE JUMP JUMPDEST SWAP1 PUSH1 0x40 MLOAD SWAP2 DUP3 PUSH1 0x0 DUP3 SLOAD SWAP3 PUSH2 0x52B7 DUP5 PUSH2 0x51E7 JUMP JUMPDEST SWAP1 DUP2 DUP5 MSTORE PUSH1 0x1 SWAP5 DUP6 DUP2 AND SWAP1 DUP2 PUSH1 0x0 EQ PUSH2 0x5326 JUMPI POP PUSH1 0x1 EQ PUSH2 0x52E3 JUMPI JUMPDEST POP POP PUSH2 0x52E1 SWAP3 POP SUB DUP4 PUSH2 0x5282 JUMP JUMPDEST JUMP JUMPDEST SWAP1 SWAP4 SWAP2 POP PUSH1 0x0 MSTORE PUSH1 0x20 SWAP1 DUP2 PUSH1 0x0 KECCAK256 SWAP4 PUSH1 0x0 SWAP2 JUMPDEST DUP2 DUP4 LT PUSH2 0x530E JUMPI POP POP PUSH2 0x52E1 SWAP4 POP DUP3 ADD ADD CODESIZE DUP1 PUSH2 0x52D3 JUMP JUMPDEST DUP6 SLOAD DUP9 DUP5 ADD DUP6 ADD MSTORE SWAP5 DUP6 ADD SWAP5 DUP8 SWAP5 POP SWAP2 DUP4 ADD SWAP2 PUSH2 0x52F6 JUMP JUMPDEST SWAP2 POP POP PUSH2 0x52E1 SWAP5 POP PUSH1 0x20 SWAP3 POP PUSH1 0xFF NOT AND DUP3 DUP5 ADD MSTORE ISZERO ISZERO PUSH1 0x5 SHL DUP3 ADD ADD CODESIZE DUP1 PUSH2 0x52D3 JUMP JUMPDEST SWAP2 SWAP1 DUP3 MLOAD SWAP3 DUP4 DUP3 MSTORE PUSH1 0x0 JUMPDEST DUP5 DUP2 LT PUSH2 0x5375 JUMPI POP POP DUP3 PUSH1 0x0 PUSH1 0x20 DUP1 SWAP5 SWAP6 DUP5 ADD ADD MSTORE PUSH1 0x1F DUP1 NOT SWAP2 ADD AND ADD ADD SWAP1 JUMP JUMPDEST PUSH1 0x20 DUP2 DUP4 ADD DUP2 ADD MLOAD DUP5 DUP4 ADD DUP3 ADD MSTORE ADD PUSH2 0x5354 JUMP JUMPDEST PUSH1 0x2 GT ISZERO PUSH2 0x513C JUMPI JUMP JUMPDEST SWAP1 PUSH1 0xB DUP3 LT ISZERO PUSH2 0x513C JUMPI MSTORE JUMP JUMPDEST DUP1 SLOAD DUP3 LT ISZERO PUSH2 0x50E1 JUMPI PUSH1 0x0 MSTORE PUSH1 0xB PUSH1 0x20 PUSH1 0x0 KECCAK256 SWAP2 MUL ADD SWAP1 PUSH1 0x0 SWAP1 JUMP JUMPDEST CALLER PUSH1 0x0 SWAP1 DUP2 MSTORE PUSH32 0xAD3228B676F7D3CD4284A5443F17F1962B36E491B30A40B2405849E597BA5FB5 PUSH1 0x20 MSTORE PUSH1 0x40 DUP2 KECCAK256 SLOAD PUSH1 0xFF AND ISZERO PUSH2 0x53F6 JUMPI POP JUMP JUMPDEST PUSH1 0x44 SWAP1 PUSH1 0x40 MLOAD SWAP1 PUSH4 0xE2517D3F PUSH1 0xE0 SHL DUP3 MSTORE CALLER PUSH1 0x4 DUP4 ADD MSTORE PUSH1 0x24 DUP3 ADD MSTORE REVERT JUMPDEST DUP1 PUSH1 0x0 MSTORE PUSH1 0x0 PUSH1 0x20 MSTORE PUSH1 0x40 PUSH1 0x0 KECCAK256 CALLER PUSH1 0x0 MSTORE PUSH1 0x20 MSTORE PUSH1 0xFF PUSH1 0x40 PUSH1 0x0 KECCAK256 SLOAD AND ISZERO PUSH2 0x53F6 JUMPI POP JUMP JUMPDEST SWAP1 PUSH1 0x0 SWAP2 DUP1 DUP4 MSTORE DUP3 PUSH1 0x20 MSTORE PUSH1 0x40 DUP4 KECCAK256 SWAP2 PUSH1 0x1 DUP1 PUSH1 0xA0 SHL SUB AND SWAP2 DUP3 DUP5 MSTORE PUSH1 0x20 MSTORE PUSH1 0xFF PUSH1 0x40 DUP5 KECCAK256 SLOAD AND ISZERO PUSH1 0x0 EQ PUSH2 0x54B3 JUMPI DUP1 DUP4 MSTORE DUP3 PUSH1 0x20 MSTORE PUSH1 0x40 DUP4 KECCAK256 DUP3 DUP5 MSTORE PUSH1 0x20 MSTORE PUSH1 0x40 DUP4 KECCAK256 PUSH1 0x1 PUSH1 0xFF NOT DUP3 SLOAD AND OR SWAP1 SSTORE PUSH32 0x2F8788117E7EFF1D82E926EC794901D17C78024A50270940304540A733656F0D CALLER SWAP4 DUP1 LOG4 PUSH1 0x1 SWAP1 JUMP JUMPDEST POP POP SWAP1 JUMP JUMPDEST SWAP1 PUSH1 0x0 SWAP2 DUP1 DUP4 MSTORE DUP3 PUSH1 0x20 MSTORE PUSH1 0x40 DUP4 KECCAK256 SWAP2 PUSH1 0x1 DUP1 PUSH1 0xA0 SHL SUB AND SWAP2 DUP3 DUP5 MSTORE PUSH1 0x20 MSTORE PUSH1 0xFF PUSH1 0x40 DUP5 KECCAK256 SLOAD AND PUSH1 0x0 EQ PUSH2 0x54B3 JUMPI DUP1 DUP4 MSTORE DUP3 PUSH1 0x20 MSTORE PUSH1 0x40 DUP4 KECCAK256 DUP3 DUP5 MSTORE PUSH1 0x20 MSTORE PUSH1 0x40 DUP4 KECCAK256 PUSH1 0xFF NOT DUP2 SLOAD AND SWAP1 SSTORE PUSH32 0xF6391F5C32D9C69D2A47EA670B442974B53935D1EDC7FD64EB21E047A839171B CALLER SWAP4 DUP1 LOG4 PUSH1 0x1 SWAP1 JUMP JUMPDEST ISZERO PUSH2 0x5534 JUMPI JUMP JUMPDEST PUSH1 0x40 MLOAD PUSH3 0x461BCD PUSH1 0xE5 SHL DUP2 MSTORE PUSH1 0x20 PUSH1 0x4 DUP3 ADD MSTORE PUSH1 0x26 PUSH1 0x24 DUP3 ADD MSTORE PUSH32 0x4F7074696F6E73436F72653A206E6F74696F6E616C206D75737420626520706F PUSH1 0x44 DUP3 ADD MSTORE PUSH6 0x736974697665 PUSH1 0xD0 SHL PUSH1 0x64 DUP3 ADD MSTORE PUSH1 0x84 SWAP1 REVERT JUMPDEST ISZERO PUSH2 0x558F JUMPI JUMP JUMPDEST PUSH1 0x40 MLOAD PUSH3 0x461BCD PUSH1 0xE5 SHL DUP2 MSTORE PUSH1 0x20 PUSH1 0x4 DUP3 ADD MSTORE PUSH1 0x25 PUSH1 0x24 DUP3 ADD MSTORE PUSH32 0x4F7074696F6E73436F72653A20657870697279206D75737420626520696E2066 PUSH1 0x44 DUP3 ADD MSTORE PUSH5 0x7574757265 PUSH1 0xD8 SHL PUSH1 0x64 DUP3 ADD MSTORE PUSH1 0x84 SWAP1 REVERT JUMPDEST ISZERO PUSH2 0x55E9 JUMPI JUMP JUMPDEST PUSH1 0x64 PUSH1 0x40 MLOAD PUSH3 0x461BCD PUSH1 0xE5 SHL DUP2 MSTORE PUSH1 0x20 PUSH1 0x4 DUP3 ADD MSTORE PUSH1 0x20 PUSH1 0x24 DUP3 ADD MSTORE PUSH32 0x4F7074696F6E73436F72653A206D617267696E207261746520746F6F206C6F77 PUSH1 0x44 DUP3 ADD MSTORE REVERT JUMPDEST PUSH1 0x0 NOT DUP2 EQ PUSH2 0x563C JUMPI PUSH1 0x1 ADD SWAP1 JUMP JUMPDEST PUSH4 0x4E487B71 PUSH1 0xE0 SHL PUSH1 0x0 MSTORE PUSH1 0x11 PUSH1 0x4 MSTORE PUSH1 0x24 PUSH1 0x0 REVERT JUMPDEST SWAP1 PUSH1 0x1F DUP2 GT PUSH2 0x5660 JUMPI POP POP POP JUMP JUMPDEST PUSH1 0x0 SWAP2 DUP3 MSTORE PUSH1 0x20 DUP3 KECCAK256 SWAP1 PUSH1 0x20 PUSH1 0x1F DUP6 ADD PUSH1 0x5 SHR DUP4 ADD SWAP5 LT PUSH2 0x569C JUMPI JUMPDEST PUSH1 0x1F ADD PUSH1 0x5 SHR ADD SWAP2 JUMPDEST DUP3 DUP2 LT PUSH2 0x5691 JUMPI POP POP POP JUMP JUMPDEST DUP2 DUP2 SSTORE PUSH1 0x1 ADD PUSH2 0x5685 JUMP JUMPDEST SWAP1 SWAP3 POP DUP3 SWAP1 PUSH2 0x567C JUMP JUMPDEST SWAP1 PUSH2 0x56B0 DUP2 PUSH2 0x5389 JUMP JUMPDEST PUSH1 0xFF DUP1 NOT DUP4 SLOAD AND SWAP2 AND OR SWAP1 SSTORE JUMP JUMPDEST SWAP1 PUSH2 0x56C8 DUP2 PUSH2 0x5132 JUMP JUMPDEST PUSH5 0xFF00000000 DUP3 SLOAD SWAP2 PUSH1 0x20 SHL AND SWAP1 PUSH5 0xFF00000000 NOT AND OR SWAP1 SSTORE JUMP JUMPDEST SWAP1 PUSH2 0x56B0 DUP2 PUSH2 0x5132 JUMP JUMPDEST SWAP1 PUSH2 0x56F7 DUP2 PUSH2 0x5389 JUMP JUMPDEST PUSH2 0xFF00 DUP3 SLOAD SWAP2 PUSH1 0x8 SHL AND SWAP1 PUSH2 0xFF00 NOT AND OR SWAP1 SSTORE JUMP JUMPDEST DUP1 SLOAD PUSH1 0x1 PUSH1 0x40 SHL DUP2 LT ISZERO PUSH2 0x5234 JUMPI PUSH2 0x5729 SWAP2 PUSH1 0x1 DUP3 ADD DUP2 SSTORE PUSH2 0x50C9 JUMP JUMPDEST DUP2 SWAP3 SWAP2 SLOAD SWAP1 PUSH1 0x3 SHL SWAP2 DUP3 SHL SWAP2 PUSH1 0x0 NOT SWAP1 SHL NOT AND OR SWAP1 SSTORE JUMP JUMPDEST PUSH1 0x40 MLOAD PUSH4 0x23B872DD PUSH1 0xE0 SHL PUSH1 0x20 DUP1 DUP4 ADD SWAP2 DUP3 MSTORE PUSH1 0x1 PUSH1 0x1 PUSH1 0xA0 SHL SUB SWAP5 DUP6 AND PUSH1 0x24 DUP5 ADD MSTORE SWAP5 SWAP1 SWAP4 AND PUSH1 0x44 DUP3 ADD MSTORE PUSH1 0x64 DUP1 DUP3 ADD SWAP6 SWAP1 SWAP6 MSTORE SWAP4 DUP5 MSTORE SWAP3 PUSH1 0x0 SWAP2 SWAP1 PUSH2 0x5789 PUSH1 0x84 DUP3 PUSH2 0x5282 JUMP JUMPDEST MLOAD SWAP1 DUP3 DUP6 GAS CALL ISZERO PUSH2 0x57DC JUMPI PUSH1 0x0 MLOAD RETURNDATASIZE PUSH2 0x57D3 JUMPI POP PUSH1 0x1 PUSH1 0x1 PUSH1 0xA0 SHL SUB DUP2 AND EXTCODESIZE ISZERO JUMPDEST PUSH2 0x57B1 JUMPI POP JUMP JUMPDEST PUSH1 0x40 MLOAD PUSH4 0x5274AFE7 PUSH1 0xE0 SHL DUP2 MSTORE PUSH1 0x1 PUSH1 0x1 PUSH1 0xA0 SHL SUB SWAP1 SWAP2 AND PUSH1 0x4 DUP3 ADD MSTORE PUSH1 0x24 SWAP1 REVERT JUMPDEST PUSH1 0x1 EQ ISZERO PUSH2 0x57AA JUMP JUMPDEST PUSH1 0x40 MLOAD RETURNDATASIZE PUSH1 0x0 DUP3 RETURNDATACOPY RETURNDATASIZE SWAP1 REVERT JUMPDEST PUSH1 0xFF PUSH1 0x2 SLOAD AND PUSH2 0x57F4 JUMPI JUMP JUMPDEST PUSH1 0x40 MLOAD PUSH4 0xD93C0665 PUSH1 0xE0 SHL DUP2 MSTORE PUSH1 0x4 SWAP1 REVERT JUMPDEST PUSH1 0x2 PUSH1 0x1 SLOAD EQ PUSH2 0x5817 JUMPI PUSH1 0x2 PUSH1 0x1 SSTORE JUMP JUMPDEST PUSH1 0x40 MLOAD PUSH4 0x3EE5AEB5 PUSH1 0xE0 SHL DUP2 MSTORE PUSH1 0x4 SWAP1 REVERT JUMPDEST ISZERO PUSH2 0x5830 JUMPI JUMP JUMPDEST PUSH1 0x40 MLOAD PUSH3 0x461BCD PUSH1 0xE5 SHL DUP2 MSTORE PUSH1 0x20 PUSH1 0x4 DUP3 ADD MSTORE PUSH1 0x16 PUSH1 0x24 DUP3 ADD MSTORE PUSH22 0x27B83A34B7B739A1B7B9329D103737BA10313ABCB2B9 PUSH1 0x51 SHL PUSH1 0x44 DUP3 ADD MSTORE PUSH1 0x64 SWAP1 REVERT JUMPDEST DUP2 DUP2 MUL SWAP3 SWAP2 DUP2 ISZERO SWAP2 DUP5 DIV EQ OR ISZERO PUSH2 0x563C JUMPI JUMP JUMPDEST DUP2 ISZERO PUSH2 0x588B JUMPI DIV SWAP1 JUMP JUMPDEST PUSH4 0x4E487B71 PUSH1 0xE0 SHL PUSH1 0x0 MSTORE PUSH1 0x12 PUSH1 0x4 MSTORE PUSH1 0x24 PUSH1 0x0 REVERT JUMPDEST SWAP2 SWAP1 DUP3 ADD DUP1 SWAP3 GT PUSH2 0x563C JUMPI JUMP JUMPDEST ISZERO PUSH2 0x58B5 JUMPI JUMP JUMPDEST PUSH1 0x40 MLOAD PUSH3 0x461BCD PUSH1 0xE5 SHL DUP2 MSTORE PUSH1 0x20 PUSH1 0x4 DUP3 ADD MSTORE PUSH1 0x1D PUSH1 0x24 DUP3 ADD MSTORE PUSH32 0x4F7074696F6E73436F72653A20696E76616C6964206F72646572206964000000 PUSH1 0x44 DUP3 ADD MSTORE PUSH1 0x64 SWAP1 REVERT JUMPDEST PUSH1 0xA PUSH2 0x1A0 SWAP2 DUP4 MLOAD DUP2 SSTORE PUSH1 0x20 DUP5 ADD MLOAD PUSH1 0x1 DUP3 ADD SSTORE PUSH1 0x2 DUP2 ADD PUSH1 0x1 DUP1 PUSH1 0xA0 SHL SUB PUSH1 0x40 DUP7 ADD MLOAD AND DUP2 SLOAD SWAP1 PUSH1 0x60 DUP8 ADD MLOAD PUSH2 0x5930 DUP2 PUSH2 0x5132 JUMP JUMPDEST PUSH2 0x5939 DUP2 PUSH2 0x5132 JUMP JUMPDEST PUSH1 0xFF PUSH1 0xA0 SHL SWAP1 PUSH1 0xA0 SHL AND SWAP2 PUSH11 0xFFFFFFFFFFFFFFFFFFFFFF PUSH1 0xA8 SHL AND OR OR SWAP1 SSTORE PUSH1 0x80 DUP5 ADD MLOAD PUSH1 0x3 DUP3 ADD SSTORE PUSH1 0xA0 DUP5 ADD MLOAD PUSH1 0x4 DUP3 ADD SSTORE PUSH1 0xC0 DUP5 ADD MLOAD PUSH1 0x5 DUP3 ADD SSTORE PUSH1 0xE0 DUP5 ADD MLOAD PUSH1 0x6 DUP3 ADD SSTORE PUSH2 0x59D7 PUSH1 0x7 DUP3 ADD PUSH2 0x599F PUSH2 0x100 DUP8 ADD MLOAD PUSH2 0x5999 DUP2 PUSH2 0x5132 JUMP JUMPDEST DUP3 PUSH2 0x56E3 JUMP JUMPDEST PUSH2 0x120 DUP7 ADD MLOAD DUP2 SLOAD PUSH2 0xFF00 NOT AND PUSH1 0x8 SWAP2 SWAP1 SWAP2 SHL PUSH2 0xFF00 AND OR DUP2 SSTORE PUSH2 0x140 DUP7 ADD MLOAD DUP2 SLOAD PUSH3 0xFF0000 NOT AND PUSH1 0x10 SWAP2 SWAP1 SWAP2 SHL PUSH3 0xFF0000 AND OR SWAP1 SSTORE JUMP JUMPDEST PUSH2 0x160 DUP5 ADD MLOAD PUSH1 0x8 DUP3 ADD SSTORE PUSH2 0x180 DUP5 ADD MLOAD PUSH1 0x9 DUP3 ADD SSTORE ADD SWAP2 ADD MLOAD PUSH2 0x59FA DUP2 PUSH2 0x5152 JUMP JUMPDEST PUSH2 0x56B0 DUP2 PUSH2 0x5152 JUMP JUMPDEST ISZERO PUSH2 0x5A0A JUMPI JUMP JUMPDEST PUSH1 0x40 MLOAD PUSH3 0x461BCD PUSH1 0xE5 SHL DUP2 MSTORE PUSH1 0x20 PUSH1 0x4 DUP3 ADD MSTORE PUSH1 0x17 PUSH1 0x24 DUP3 ADD MSTORE PUSH32 0x4F7074696F6E73436F72653A206E6F742073656C6C6572000000000000000000 PUSH1 0x44 DUP3 ADD MSTORE PUSH1 0x64 SWAP1 REVERT JUMPDEST ISZERO PUSH2 0x5A56 JUMPI JUMP JUMPDEST PUSH1 0x40 MLOAD PUSH3 0x461BCD PUSH1 0xE5 SHL DUP2 MSTORE PUSH1 0x20 PUSH1 0x4 DUP3 ADD MSTORE PUSH1 0x1B PUSH1 0x24 DUP3 ADD MSTORE PUSH32 0x4F7074696F6E73436F72653A206F72646572206E6F74206C6976650000000000 PUSH1 0x44 DUP3 ADD MSTORE PUSH1 0x64 SWAP1 REVERT JUMPDEST SWAP2 SWAP1 DUP3 SUB SWAP2 DUP3 GT PUSH2 0x563C JUMPI JUMP JUMPDEST ISZERO PUSH2 0x5AAF JUMPI JUMP JUMPDEST PUSH1 0x40 MLOAD PUSH3 0x461BCD PUSH1 0xE5 SHL DUP2 MSTORE PUSH1 0x20 PUSH1 0x4 DUP3 ADD MSTORE PUSH1 0x1B PUSH1 0x24 DUP3 ADD MSTORE PUSH32 0x4F7074696F6E73436F72653A206E6F7420617574686F72697A65640000000000 PUSH1 0x44 DUP3 ADD MSTORE PUSH1 0x64 SWAP1 REVERT JUMPDEST SWAP1 DUP2 MLOAD DUP2 LT ISZERO PUSH2 0x50E1 JUMPI ADD PUSH1 0x20 ADD SWAP1 JUMP JUMPDEST ISZERO PUSH2 0x5B0C JUMPI JUMP JUMPDEST PUSH1 0x40 MLOAD PUSH3 0x461BCD PUSH1 0xE5 SHL DUP2 MSTORE PUSH1 0x20 PUSH1 0x4 DUP3 ADD MSTORE PUSH1 0x1E PUSH1 0x24 DUP3 ADD MSTORE PUSH32 0x4F7074696F6E73436F72653A206F72646572206E6F74206D6174636865640000 PUSH1 0x44 DUP3 ADD MSTORE PUSH1 0x64 SWAP1 REVERT JUMPDEST ISZERO PUSH2 0x5B58 JUMPI JUMP JUMPDEST PUSH1 0x40 MLOAD PUSH3 0x461BCD PUSH1 0xE5 SHL DUP2 MSTORE PUSH1 0x20 PUSH1 0x4 DUP3 ADD MSTORE PUSH1 0x1A PUSH1 0x24 DUP3 ADD MSTORE PUSH32 0x4F7074696F6E73436F72653A20696E76616C6964207072696365000000000000 PUSH1 0x44 DUP3 ADD MSTORE PUSH1 0x64 SWAP1 REVERT JUMPDEST PUSH1 0x1 PUSH1 0x1 PUSH1 0x40 SHL SUB DUP2 GT PUSH2 0x5234 JUMPI PUSH1 0x1F ADD PUSH1 0x1F NOT AND PUSH1 0x20 ADD SWAP1 JUMP JUMPDEST DUP1 ISZERO PUSH2 0x5C5A JUMPI DUP1 DUP2 PUSH1 0x0 SWAP3 JUMPDEST PUSH2 0x5C44 JUMPI POP PUSH2 0x5BD2 DUP3 PUSH2 0x5B9D JUMP JUMPDEST SWAP2 PUSH2 0x5BE0 PUSH1 0x40 MLOAD SWAP4 DUP5 PUSH2 0x5282 JUMP JUMPDEST DUP1 DUP4 MSTORE DUP2 PUSH1 0x1F NOT PUSH2 0x5BF0 DUP4 PUSH2 0x5B9D JUMP JUMPDEST ADD CALLDATASIZE PUSH1 0x20 DUP7 ADD CALLDATACOPY JUMPDEST PUSH2 0x5C01 JUMPI POP POP SWAP1 JUMP JUMPDEST PUSH1 0x0 NOT DUP2 ADD SWAP1 DUP2 GT PUSH2 0x563C JUMPI DUP1 SWAP2 PUSH1 0xA SWAP2 PUSH1 0x30 DUP4 DUP4 MOD DUP2 ADD DUP1 SWAP2 GT PUSH2 0x563C JUMPI PUSH1 0xF8 SHL PUSH1 0x1 PUSH1 0x1 PUSH1 0xF8 SHL SUB NOT AND PUSH1 0x0 BYTE SWAP1 PUSH2 0x5C3B SWAP1 DUP7 PUSH2 0x5AF4 JUMP JUMPDEST MSTORE8 DIV SWAP1 DUP2 PUSH2 0x5BF8 JUMP JUMPDEST SWAP1 SWAP2 PUSH2 0x5C51 PUSH1 0xA SWAP2 PUSH2 0x562D JUMP JUMPDEST SWAP3 SWAP2 DIV DUP1 PUSH2 0x5BC4 JUMP JUMPDEST POP PUSH1 0x40 MLOAD PUSH1 0x40 DUP2 ADD DUP2 DUP2 LT PUSH1 0x1 PUSH1 0x1 PUSH1 0x40 SHL SUB DUP3 GT OR PUSH2 0x5234 JUMPI PUSH1 0x40 MSTORE PUSH1 0x1 DUP2 MSTORE PUSH1 0x3 PUSH1 0xFC SHL PUSH1 0x20 DUP3 ADD MSTORE SWAP1 JUMP INVALID 0xCE GASPRICE BALANCE 0xBA 0xF9 SWAP6 PUSH15 0x86200EE7044A75C2BEFBD05091279 DUP12 PUSH28 0xCD25D05831AB9592A2646970667358221220616507DDF18EABFE04D1 0xD9 0xA5 0xDE 0xBD BYTE BALANCE PUSH1 0x86 0x29 EXP ORIGIN 0xC 0x2A MSIZE 0xC 0xD0 ADDMOD 0xE2 CALLDATALOAD DUP7 0xBF MSTORE8 PUSH5 0x736F6C6343 STOP ADDMOD EQ STOP CALLER "},"methodIdentifiers":{"DEFAULT_ADMIN_ROLE()":"a217fddf","FEED_PROTOCOL_ROLE()":"cdc65ab6","acceptQuote(uint256)":"5d7ffe7b","acceptSellerOrder(uint256)":"67ac0bf0","addMargin(uint256,uint256)":"d41194b8","buyerOrders(address,uint256)":"4500cb60","cancelRFQ(uint256)":"bc0ef26b","config()":"79502c55","createBuyerRFQ(string,string,string,string,string,uint8,uint256,uint256,uint256,uint256,uint8,address,uint256,uint256,bool,uint8,uint8,uint8,uint8)":"979b4e6d","createSellerOrder(string,string,string,string,string,uint8,uint256,uint256,uint256,uint256,uint8,uint8,uint8,uint256,bool,uint8,uint8)":"01d0d5b8","earlyExercise(uint256)":"46f8226c","forceLiquidate(uint256)":"6ca14389","getBuyerOrders(address)":"a45f2ebc","getOrder(uint256)":"d09ef241","getOrdersByCountry(string)":"cf3fec43","getOrdersByMarket(string)":"7d900421","getQuotes(uint256)":"d049bfef","getRoleAdmin(bytes32)":"248a9ca3","getSellerOrders(address)":"e4cbac40","grantRole(bytes32,address)":"2f2ff15d","hasRole(bytes32,address)":"91d14854","initiateArbitration(uint256)":"6af58cff","nextOrderId()":"2a58b330","nextQuoteId()":"4efef6aa","orderQuotes(uint256,uint256)":"f7ff6426","orders(uint256)":"a85c38ef","pause()":"8456cb59","paused()":"5c975abb","processFeedCallback(uint256,uint8,uint256)":"3087a88c","processFinalFeedResult(uint256,uint256)":"42dd6d3e","processInitialFeedResult(uint256,uint256)":"e02e34f8","quotes(uint256)":"a61cf0d4","recordDividend(uint256,uint256)":"77e9bad9","renounceRole(bytes32,address)":"36568abe","requestFeed(uint256,uint8)":"6dbe7579","resolveArbitration(uint256,uint256,address[])":"3280890b","revokeRole(bytes32,address)":"d547741f","sellerOrders(address,uint256)":"45cb4505","setConfig(address)":"20e3dbd4","setVaultManager(address)":"b543503e","settle(uint256)":"8df82800","submitQuote(uint256,uint256,uint256,uint8,uint8,uint8)":"7203a582","supportsInterface(bytes4)":"01ffc9a7","unpause()":"3f4ba83a","usdt()":"2f48ab7d","vaultManager()":"8a4adf24","withdrawExcessMargin(uint256,uint256)":"d1e745b1"}}}}}