{"contracts/points/PointsManager.sol":{"PointsManager":{"abi":[{"inputs":[{"internalType":"address","name":"_config","type":"address"},{"internalType":"address","name":"_nstToken","type":"address"},{"internalType":"address","name":"_admin","type":"address"}],"stateMutability":"nonpayable","type":"constructor"},{"inputs":[],"name":"AccessControlBadConfirmation","type":"error"},{"inputs":[{"internalType":"address","name":"account","type":"address"},{"internalType":"bytes32","name":"neededRole","type":"bytes32"}],"name":"AccessControlUnauthorizedAccount","type":"error"},{"inputs":[],"name":"EnforcedPause","type":"error"},{"inputs":[],"name":"ExpectedPause","type":"error"},{"inputs":[],"name":"ReentrancyGuardReentrantCall","type":"error"},{"inputs":[{"internalType":"address","name":"token","type":"address"}],"name":"SafeERC20FailedOperation","type":"error"},{"anonymous":false,"inputs":[{"indexed":true,"internalType":"address","name":"user","type":"address"},{"indexed":true,"internalType":"uint256","name":"airdropId","type":"uint256"},{"indexed":false,"internalType":"uint256","name":"pointsUsed","type":"uint256"},{"indexed":false,"internalType":"uint256","name":"tokenAmount","type":"uint256"},{"indexed":false,"internalType":"uint256","name":"timestamp","type":"uint256"}],"name":"AirdropClaimed","type":"event"},{"anonymous":false,"inputs":[{"indexed":true,"internalType":"uint256","name":"airdropId","type":"uint256"},{"indexed":false,"internalType":"uint256","name":"totalPool","type":"uint256"},{"indexed":false,"internalType":"uint256","name":"startTime","type":"uint256"},{"indexed":false,"internalType":"uint256","name":"endTime","type":"uint256"},{"indexed":false,"internalType":"uint256","name":"timestamp","type":"uint256"}],"name":"AirdropCreated","type":"event"},{"anonymous":false,"inputs":[{"indexed":true,"internalType":"uint256","name":"airdropId","type":"uint256"},{"indexed":false,"internalType":"uint256","name":"totalClaimed","type":"uint256"},{"indexed":false,"internalType":"uint256","name":"timestamp","type":"uint256"}],"name":"AirdropEnded","type":"event"},{"anonymous":false,"inputs":[{"indexed":false,"internalType":"address","name":"account","type":"address"}],"name":"Paused","type":"event"},{"anonymous":false,"inputs":[{"indexed":true,"internalType":"address","name":"user","type":"address"},{"indexed":false,"internalType":"uint256","name":"amount","type":"uint256"},{"indexed":false,"internalType":"string","name":"feeType","type":"string"},{"indexed":false,"internalType":"uint256","name":"timestamp","type":"uint256"}],"name":"PointsAccumulated","type":"event"},{"anonymous":false,"inputs":[{"indexed":true,"internalType":"bytes32","name":"role","type":"bytes32"},{"indexed":true,"internalType":"bytes32","name":"previousAdminRole","type":"bytes32"},{"indexed":true,"internalType":"bytes32","name":"newAdminRole","type":"bytes32"}],"name":"RoleAdminChanged","type":"event"},{"anonymous":false,"inputs":[{"indexed":true,"internalType":"bytes32","name":"role","type":"bytes32"},{"indexed":true,"internalType":"address","name":"account","type":"address"},{"indexed":true,"internalType":"address","name":"sender","type":"address"}],"name":"RoleGranted","type":"event"},{"anonymous":false,"inputs":[{"indexed":true,"internalType":"bytes32","name":"role","type":"bytes32"},{"indexed":true,"internalType":"address","name":"account","type":"address"},{"indexed":true,"internalType":"address","name":"sender","type":"address"}],"name":"RoleRevoked","type":"event"},{"anonymous":false,"inputs":[{"indexed":false,"internalType":"address","name":"account","type":"address"}],"name":"Unpaused","type":"event"},{"inputs":[],"name":"AIRDROP_ADMIN_ROLE","outputs":[{"internalType":"bytes32","name":"","type":"bytes32"}],"stateMutability":"view","type":"function"},{"inputs":[],"name":"DEFAULT_ADMIN_ROLE","outputs":[{"internalType":"bytes32","name":"","type":"bytes32"}],"stateMutability":"view","type":"function"},{"inputs":[],"name":"POINTS_OPERATOR_ROLE","outputs":[{"internalType":"bytes32","name":"","type":"bytes32"}],"stateMutability":"view","type":"function"},{"inputs":[],"name":"airdropCounter","outputs":[{"internalType":"uint256","name":"","type":"uint256"}],"stateMutability":"view","type":"function"},{"inputs":[],"name":"claimAirdrop","outputs":[],"stateMutability":"nonpayable","type":"function"},{"inputs":[{"internalType":"uint256","name":"","type":"uint256"},{"internalType":"address","name":"","type":"address"}],"name":"claimedAmount","outputs":[{"internalType":"uint256","name":"","type":"uint256"}],"stateMutability":"view","type":"function"},{"inputs":[],"name":"config","outputs":[{"internalType":"contract Config","name":"","type":"address"}],"stateMutability":"view","type":"function"},{"inputs":[{"internalType":"uint256","name":"totalPool","type":"uint256"},{"internalType":"uint256","name":"startTime","type":"uint256"},{"internalType":"uint256","name":"endTime","type":"uint256"}],"name":"createAirdrop","outputs":[],"stateMutability":"nonpayable","type":"function"},{"inputs":[],"name":"currentAirdrop","outputs":[{"internalType":"uint256","name":"totalPool","type":"uint256"},{"internalType":"uint256","name":"startTime","type":"uint256"},{"internalType":"uint256","name":"endTime","type":"uint256"},{"internalType":"uint256","name":"totalPointsSnapshot","type":"uint256"},{"internalType":"bool","name":"isActive","type":"bool"},{"internalType":"uint256","name":"airdropId","type":"uint256"}],"stateMutability":"view","type":"function"},{"inputs":[],"name":"endAirdrop","outputs":[],"stateMutability":"nonpayable","type":"function"},{"inputs":[{"internalType":"address","name":"user","type":"address"}],"name":"getClaimableAirdrop","outputs":[{"internalType":"uint256","name":"","type":"uint256"}],"stateMutability":"view","type":"function"},{"inputs":[],"name":"getCurrentAirdrop","outputs":[{"components":[{"internalType":"uint256","name":"totalPool","type":"uint256"},{"internalType":"uint256","name":"startTime","type":"uint256"},{"internalType":"uint256","name":"endTime","type":"uint256"},{"internalType":"uint256","name":"totalPointsSnapshot","type":"uint256"},{"internalType":"bool","name":"isActive","type":"bool"},{"internalType":"uint256","name":"airdropId","type":"uint256"}],"internalType":"struct PointsManager.AirdropConfig","name":"","type":"tuple"}],"stateMutability":"view","type":"function"},{"inputs":[{"internalType":"address","name":"user","type":"address"}],"name":"getPoints","outputs":[{"internalType":"uint256","name":"","type":"uint256"}],"stateMutability":"view","type":"function"},{"inputs":[],"name":"getPointsUserCount","outputs":[{"internalType":"uint256","name":"","type":"uint256"}],"stateMutability":"view","type":"function"},{"inputs":[{"internalType":"bytes32","name":"role","type":"bytes32"}],"name":"getRoleAdmin","outputs":[{"internalType":"bytes32","name":"","type":"bytes32"}],"stateMutability":"view","type":"function"},{"inputs":[{"internalType":"address","name":"user","type":"address"}],"name":"getUserPoints","outputs":[{"components":[{"internalType":"uint256","name":"totalPoints","type":"uint256"},{"internalType":"uint256","name":"claimedPoints","type":"uint256"},{"internalType":"uint256","name":"availablePoints","type":"uint256"},{"internalType":"uint256","name":"lastUpdateTime","type":"uint256"}],"internalType":"struct UserPoints","name":"","type":"tuple"}],"stateMutability":"view","type":"function"},{"inputs":[{"internalType":"address","name":"operator","type":"address"}],"name":"grantOperatorRole","outputs":[],"stateMutability":"nonpayable","type":"function"},{"inputs":[{"internalType":"bytes32","name":"role","type":"bytes32"},{"internalType":"address","name":"account","type":"address"}],"name":"grantRole","outputs":[],"stateMutability":"nonpayable","type":"function"},{"inputs":[{"internalType":"uint256","name":"","type":"uint256"},{"internalType":"address","name":"","type":"address"}],"name":"hasClaimed","outputs":[{"internalType":"bool","name":"","type":"bool"}],"stateMutability":"view","type":"function"},{"inputs":[{"internalType":"uint256","name":"airdropId","type":"uint256"},{"internalType":"address","name":"user","type":"address"}],"name":"hasClaimedAirdrop","outputs":[{"internalType":"bool","name":"","type":"bool"}],"stateMutability":"view","type":"function"},{"inputs":[{"internalType":"bytes32","name":"role","type":"bytes32"},{"internalType":"address","name":"account","type":"address"}],"name":"hasRole","outputs":[{"internalType":"bool","name":"","type":"bool"}],"stateMutability":"view","type":"function"},{"inputs":[],"name":"nstToken","outputs":[{"internalType":"contract IERC20","name":"","type":"address"}],"stateMutability":"view","type":"function"},{"inputs":[],"name":"pause","outputs":[],"stateMutability":"nonpayable","type":"function"},{"inputs":[],"name":"paused","outputs":[{"internalType":"bool","name":"","type":"bool"}],"stateMutability":"view","type":"function"},{"inputs":[{"internalType":"uint256","name":"","type":"uint256"}],"name":"pointsUsers","outputs":[{"internalType":"address","name":"","type":"address"}],"stateMutability":"view","type":"function"},{"inputs":[{"internalType":"address","name":"user","type":"address"},{"internalType":"uint256","name":"feeAmount","type":"uint256"},{"internalType":"string","name":"feeType","type":"string"}],"name":"recordPoints","outputs":[],"stateMutability":"nonpayable","type":"function"},{"inputs":[{"internalType":"bytes32","name":"role","type":"bytes32"},{"internalType":"address","name":"callerConfirmation","type":"address"}],"name":"renounceRole","outputs":[],"stateMutability":"nonpayable","type":"function"},{"inputs":[{"internalType":"bytes32","name":"role","type":"bytes32"},{"internalType":"address","name":"account","type":"address"}],"name":"revokeRole","outputs":[],"stateMutability":"nonpayable","type":"function"},{"inputs":[{"internalType":"address","name":"_config","type":"address"}],"name":"setConfig","outputs":[],"stateMutability":"nonpayable","type":"function"},{"inputs":[{"internalType":"address","name":"_nstToken","type":"address"}],"name":"setNSTToken","outputs":[],"stateMutability":"nonpayable","type":"function"},{"inputs":[{"internalType":"bytes4","name":"interfaceId","type":"bytes4"}],"name":"supportsInterface","outputs":[{"internalType":"bool","name":"","type":"bool"}],"stateMutability":"view","type":"function"},{"inputs":[],"name":"totalClaimedPoints","outputs":[{"internalType":"uint256","name":"","type":"uint256"}],"stateMutability":"view","type":"function"},{"inputs":[],"name":"totalPoints","outputs":[{"internalType":"uint256","name":"","type":"uint256"}],"stateMutability":"view","type":"function"},{"inputs":[],"name":"unpause","outputs":[],"stateMutability":"nonpayable","type":"function"},{"inputs":[{"internalType":"address","name":"","type":"address"}],"name":"userPoints","outputs":[{"internalType":"uint256","name":"totalPoints","type":"uint256"},{"internalType":"uint256","name":"claimedPoints","type":"uint256"},{"internalType":"uint256","name":"availablePoints","type":"uint256"},{"internalType":"uint256","name":"lastUpdateTime","type":"uint256"}],"stateMutability":"view","type":"function"},{"inputs":[{"internalType":"address","name":"to","type":"address"}],"name":"withdrawRemainingTokens","outputs":[],"stateMutability":"nonpayable","type":"function"}],"evm":{"bytecode":{"linkReferences":{},"object":"608034620000e857601f62001d1238819003918201601f19168301916001600160401b03831184841017620000ed57808492606094604052833981010312620000e8578062000052620000d79262000103565b906200006f6040620000676020840162000103565b920162000103565b6001805560028054610100600160a81b03191660089490941b610100600160a81b031693909317909255600380546001600160a01b0319166001600160a01b0392909216919091179055620000c48162000118565b50620000d08162000198565b506200023a565b50604051611a1a9081620002d88239f35b600080fd5b634e487b7160e01b600052604160045260246000fd5b51906001600160a01b0382168203620000e857565b6001600160a01b031660008181527fad3228b676f7d3cd4284a5443f17f1962b36e491b30a40b2405849e597ba5fb5602052604081205490919060ff166200019457818052816020526040822081835260205260408220600160ff19825416179055339160008051602062001cf28339815191528180a4600190565b5090565b6001600160a01b031660008181527f61e7fc3d84368231012c67d50e6fa6aa27aa16adea636a17e75ea902e878b6b460205260408120549091907f5a3ad48e161847a6bfadd0936811fc7e13936213266e733d1aa3e5c9572e4d2b9060ff166200023557808352826020526040832082845260205260408320600160ff1982541617905560008051602062001cf2833981519152339380a4600190565b505090565b6001600160a01b031660008181527f242e8ec18f19b1913ca4b7a59189f4edfdb2502c2961231a9893004508e31ba460205260408120549091907f786fcfa0099ab9aba15d4b2ccc7ffa9994e7c522c9b340b95e584749e47fcfb99060ff166200023557808352826020526040832082845260205260408320600160ff1982541617905560008051602062001cf2833981519152339380a460019056fe6080604081815260048036101561001557600080fd5b600092833560e01c90816301ffc9a7146114315750806303f14e96146113e2578063042179b71461108d578063077145c5146110485780630f855fd61461100d57806320e3dbd414610fc3578063248a9ca314610f9a57806327ac0c5814610f4a5780632f2ff15d14610f21578063349cdcc214610ef457806336568abe14610ead578063381e4a0514610e6c5780633ee66bd614610e4d5780633f4ba83a14610de45780634063c3ec14610dc557806343a4f2ac14610d15578063567142be14610cf65780635affbd9714610be75780635b88349d146109325780635c975abb1461090e578063726b5bad146107bf57806379502c55146107925780638456cb5914610737578063873f6f9e146102945780638b63fd4c1461070e57806391d14854146106c9578063a217fddf146106ae578063a82734c51461068f578063aeefe31f146105f6578063bcb87e44146105b3578063c15eb14d14610307578063c1a3e15f146102da578063ced6528014610294578063d547741f14610256578063ee204abb1461021c5763f50ddbc7146101af57600080fd5b3461021857602036600319011261021857909182916001600160a01b036101d4611485565b1682526020522090610214825491600184015493600360028201549101549151948594859094939260609260808301968352602083015260408201520152565b0390f35b8280fd5b5034610218576020366003190112610218576020926002918391906001600160a01b03610247611485565b16825285522001549051908152f35b509034610218578060031936011261021857610290913561028b600161027a6114a0565b93838752866020528620015461155b565b61169a565b5080f35b50346102185781600319360112610218578160209360ff926102b46114a0565b90358252600d86528282206001600160a01b039091168252855220549151911615158152f35b505034610303578160031936011261030357602090516000805160206119c58339815191528152f35b5080fd5b5091903461030357606036600319011261030357610323611485565b906044359167ffffffffffffffff8084116105af57366023850112156105af57838601359081116105af5736602482860101116105af576000805160206119c58339815191528552602092858452808620338752845260ff81872054161561055f5760025481516386cdb33d60e01b81526001600160a01b039691869082908b90829060081c8b165afa90811561055557908791899161051e575b506103d4670de0b6b3a76400009160243561177f565b049416958688528886526003838920015415610497575b50917f44358f70a7cb34bef3df5646d898bebab78a5b8562ce9cf2a521776aaf00ca369493918160246080958b8a8c52808952848c2061042c8882546117c8565b90558a8c528089526002858d20016104458882546117c8565b90558a8c528852426003858d20015561046086600f546117c8565b600f55606084519889978852870152826060870152018585013782820184018890524290830152601f01601f19168101030190a280f35b6005546801000000000000000081101561050b5784939288999a60809796937f44358f70a7cb34bef3df5646d898bebab78a5b8562ce9cf2a521776aaf00ca369a6104ea856001602497016005556114b6565b909283549160031b92831b921b19161790559a9998509293949550506103eb565b634e487b7160e01b895260418a52602489fd5b809250878092503d831161054e575b610537818361175d565b8101031261054a575186906103d46103be565b8780fd5b503d61052d565b83513d8a823e3d90fd5b5162461bcd60e51b8152808701849052602560248201527f506f696e74734d616e616765723a2063616c6c6572206973206e6f74206f70656044820152643930ba37b960d91b6064820152608490fd5b8480fd5b50346102185760203660031901126102185735916005548310156105f357506105dd6020926114b6565b905491519160018060a01b039160031b1c168152f35b80fd5b5034610218576020366003190112610218576080928291610615611485565b826060855161062381611741565b8281528260208201528287820152015260018060a01b03168252602052209080519061064e82611741565b825492838352600181015460208401908152606060036002840154938587019485520154940193845282519485525160208501525190830152516060820152f35b505034610303578160031936011261030357602090600c549051908152f35b50503461030357816003193601126103035751908152602090f35b50346102185781600319360112610218578160209360ff926106e96114a0565b903582528186528282206001600160a01b039091168252855220549151911615158152f35b50503461030357816003193601126103035760035490516001600160a01b039091168152602090f35b50503461030357816003193601126103035760207f62e78cea01bee320cd4e420270b5ea74000d11b0c9f74754ebdbfc544b05a25891610775611503565b61077d611917565b600160ff19600254161760025551338152a180f35b505034610303578160031936011261030357600254905160089190911c6001600160a01b03168152602090f35b5090346102185782600319360112610218577f786fcfa0099ab9aba15d4b2ccc7ffa9994e7c522c9b340b95e584749e47fcfb983526020838152818420338552815261081060ff83862054166117d5565b600a549261082060ff8516611843565b6008544211156108c157508390849360055494600b54955b80821061087957505060ff1916600a55825191825242908201527f20f3a76238ef0dc6abb5ff2008f9a5c36157ebdb5e3f1fab989c19d49a58ead79190a280f35b90936108b56108bb91888a52600e8652878a20610895886114b6565b905460039190911b1c6001600160a01b03168b528652878a2054906117c8565b94611834565b90610838565b915162461bcd60e51b8152918201526024808201527f506f696e74734d616e616765723a2061697264726f70206e6f7420656e646564604482015263081e595d60e21b6064820152608490fd5b50503461030357816003193601126103035760209060ff6002541690519015158152f35b5090346102185782600319360112610218576001916002835414610bd9576002835561095c611917565b61096a60ff600a5416611843565b6007544210610b8c576008544211610b4a57600b548452602091600d8352808520338652835260ff8186205416610b095733855281835280852091600283018054938415610abc576109ca6109c16006548761177f565b600954906117a8565b928315610a79575090868892016109e28682546117c8565b9055556109f1836010546117c8565b601055600b548652600d845281862033875284528186208560ff19825416179055600b548652600e845281862033875284528082872055610a3d813360018060a01b036003541661188e565b600b5493825193845283015242908201527f88d251001abfa13a6ca3997fb2ff1ce97bc559ebe3dfc31d2120c772a538b38060603392a3805580f35b845162461bcd60e51b8152908101879052601f60248201527f506f696e74734d616e616765723a206e6f7468696e6720746f20636c61696d006044820152606490fd5b835162461bcd60e51b8152808401879052602160248201527f506f696e74734d616e616765723a206e6f20706f696e747320746f20636c61696044820152606d60f81b6064820152608490fd5b91606492519162461bcd60e51b8352820152601e60248201527f506f696e74734d616e616765723a20616c726561647920636c61696d656400006044820152fd5b6020606492519162461bcd60e51b8352820152601c60248201527f506f696e74734d616e616765723a2061697264726f7020656e646564000000006044820152fd5b6020608492519162461bcd60e51b8352820152602260248201527f506f696e74734d616e616765723a2061697264726f70206e6f74207374617274604482015261195960f21b6064820152fd5b9051633ee5aeb560e01b8152fd5b5090346102185760209182600319360112610c9357610c04611485565b90610c0d611503565b60ff600a5416610ca75760035483516370a0823160e01b815230928101929092526001600160a01b0316938082602481885afa938415610c9e57508593610c6a575b505081610c5a578380f35b610c639261188e565b3880808380f35b9080929350813d8311610c97575b610c82818361175d565b81010312610c935751903880610c4f565b8380fd5b503d610c78565b513d87823e3d90fd5b825162461bcd60e51b8152908101849052602360248201527f506f696e74734d616e616765723a2061697264726f70207374696c6c2061637460448201526269766560e81b6064820152608490fd5b505034610303578160031936011261030357602090600f549051908152f35b50503461030357816003193601126103035760c09160a08251610d378161170f565b828152826020820152828482015282606082015282608082015201528051610d5e8161170f565b60065491828252600754906020830191825260085490808401918252600954916060850192835260ff600a54169360808601941515855260a0600b5496019586528251968752516020870152519085015251606084015251151560808301525160a0820152f35b5050346103035781600319360112610303576020906010549051908152f35b5034610218578260031936011261021857610dfd611503565b6002549060ff821615610e3f575060ff1916600255513381527f5db9ee0a495bf2e6ff9c91a7834c1ba4fdd244a5e8aa4e537bd38aeae4b073aa90602090a180f35b8251638dfc202b60e01b8152fd5b5050346103035781600319360112610303576020906005549051908152f35b50346102185781600319360112610218576020928291610e8a6114a0565b90358252600e85528282206001600160a01b039091168252845220549051908152f35b50919034610303578060031936011261030357610ec86114a0565b90336001600160a01b03831603610ee5575061029091923561169a565b5163334bd91960e11b81528390fd5b50503461030357602036600319011261030357602090610f1a610f15611485565b611935565b9051908152f35b5090346102185780600319360112610218576102909135610f45600161027a6114a0565b611621565b5050346103035760203660031901126103035761029090610f956001610f6e611485565b92610f77611503565b6000805160206119c58339815191528652856020528520015461155b565b611581565b503461021857602036600319011261021857816020936001923581528085522001549051908152f35b83346105f35760203660031901126105f357610fdd611485565b610fe5611503565b60028054610100600160a81b03191660089290921b610100600160a81b031691909117905580f35b505034610303578160031936011261030357602090517f786fcfa0099ab9aba15d4b2ccc7ffa9994e7c522c9b340b95e584749e47fcfb98152f35b83346105f35760203660031901126105f357611062611485565b61106a611503565b60018060a01b03166bffffffffffffffffffffffff60a01b600354161760035580f35b509190346103035760603660031901126103035782359260249182359060448035937f786fcfa0099ab9aba15d4b2ccc7ffa9994e7c522c9b340b95e584749e47fcfb98752602087815283882033895281526110ee60ff858a2054166117d5565b600a549260ff841661138d5742861061134357858711156112f95789156112ad5760035485516370a0823160e01b8152308582015290839082908b9082906001600160a01b03165afa9081156112a357908b918b9161126e575b501061121c575061115a600c54611834565b9687600c55600f5492601054840393841161120b5750508697989284927f210ff108b953432139817176b3cede4749d344e4d6eeef4e9b0f9f38641e55469860a0600194896112059951916111ae8361170f565b8983528201528a87820152836060820152856080820152015284600655866007558760085560095560ff191617600a5586600b55519384934292859094939260609260808301968352602083015260408201520152565b0390a280f35b634e487b7160e01b8a526011905288fd5b608493506029887f506f696e74734d616e616765723a20696e73756666696369656e7420746f6b659387519562461bcd60e51b8752860152840152820152686e2062616c616e636560b81b6064820152fd5b809250848092503d831161129c575b611287818361175d565b81010312611298578a905138611148565b8980fd5b503d61127d565b86513d8c823e3d90fd5b60849350877f506f696e74734d616e616765723a20706f6f6c206d75737420626520706f73699286519462461bcd60e51b865285015280840152820152637469766560e01b6064820152fd5b608493506021887f506f696e74734d616e616765723a20696e76616c69642074696d652072616e679387519562461bcd60e51b8752860152840152820152606560f81b6064820152fd5b608493506021887f506f696e74734d616e616765723a2073746172742074696d6520696e207061739387519562461bcd60e51b8752860152840152820152601d60fa1b6064820152fd5b60849350602c887f506f696e74734d616e616765723a2070726576696f75732061697264726f70209387519562461bcd60e51b87528601528401528201526b7374696c6c2061637469766560a01b6064820152fd5b50503461030357816003193601126103035760c09060065490600754906008546009549060ff600a541692600b54948151968752602087015285015260608401521515608083015260a0820152f35b92505034610218576020366003190112610218573563ffffffff60e01b81168091036102185760209250637965db0b60e01b8114908115611474575b5015158152f35b6301ffc9a760e01b1490503861146d565b600435906001600160a01b038216820361149b57565b600080fd5b602435906001600160a01b038216820361149b57565b6005548110156114ed5760056000527f036b6384b5eca791c62761152d0c79bb0604c104a5fb6f4eb0703f3154bb3db00190600090565b634e487b7160e01b600052603260045260246000fd5b3360009081527fad3228b676f7d3cd4284a5443f17f1962b36e491b30a40b2405849e597ba5fb5602052604081205460ff161561153d5750565b6044906040519063e2517d3f60e01b82523360048301526024820152fd5b80600052600060205260406000203360005260205260ff604060002054161561153d5750565b6001600160a01b031660008181527f61e7fc3d84368231012c67d50e6fa6aa27aa16adea636a17e75ea902e878b6b460205260408120549091906000805160206119c58339815191529060ff1661161c57808352826020526040832082845260205260408320600160ff198254161790557f2f8788117e7eff1d82e926ec794901d17c78024a50270940304540a733656f0d339380a4600190565b505090565b9060009180835282602052604083209160018060a01b03169182845260205260ff6040842054161560001461161c57808352826020526040832082845260205260408320600160ff198254161790557f2f8788117e7eff1d82e926ec794901d17c78024a50270940304540a733656f0d339380a4600190565b9060009180835282602052604083209160018060a01b03169182845260205260ff60408420541660001461161c5780835282602052604083208284526020526040832060ff1981541690557ff6391f5c32d9c69d2a47ea670b442974b53935d1edc7fd64eb21e047a839171b339380a4600190565b60c0810190811067ffffffffffffffff82111761172b57604052565b634e487b7160e01b600052604160045260246000fd5b6080810190811067ffffffffffffffff82111761172b57604052565b90601f8019910116810190811067ffffffffffffffff82111761172b57604052565b8181029291811591840414171561179257565b634e487b7160e01b600052601160045260246000fd5b81156117b2570490565b634e487b7160e01b600052601260045260246000fd5b9190820180921161179257565b156117dc57565b60405162461bcd60e51b815260206004820152602a60248201527f506f696e74734d616e616765723a2063616c6c6572206973206e6f7420616972604482015269323937b81030b236b4b760b11b6064820152608490fd5b60001981146117925760010190565b1561184a57565b606460405162461bcd60e51b815260206004820152602060248201527f506f696e74734d616e616765723a206e6f206163746976652061697264726f706044820152fd5b9160006020916040518381019163a9059cbb60e01b835260018060a01b0380961660248301526044820152604481526118c681611741565b519082865af11561190b576000513d61190257508082163b155b6118e8575050565b604051635274afe760e01b81529116600482015260249150fd5b600114156118e0565b6040513d6000823e3d90fd5b60ff6002541661192357565b60405163d93c066560e01b8152600490fd5b60ff600a5416156119be5760075442106119be5760085442116119be57600b54906000918252600d602052604082209060018060a01b0316825260205260ff6040822054166119b15760095480156119ba57600460205260026040832001549182156119b457506119ac6119b1926006549061177f565b6117a8565b90565b91505090565b5090565b5060009056fe5a3ad48e161847a6bfadd0936811fc7e13936213266e733d1aa3e5c9572e4d2ba264697066735822122059e11438e867a205cd495c88510745227172bf61fffc841718e1aafa9dcdfaca64736f6c634300081400332f8788117e7eff1d82e926ec794901d17c78024a50270940304540a733656f0d","opcodes":"PUSH1 0x80 CALLVALUE PUSH3 0xE8 JUMPI PUSH1 0x1F PUSH3 0x1D12 CODESIZE DUP2 SWAP1 SUB SWAP2 DUP3 ADD PUSH1 0x1F NOT AND DUP4 ADD SWAP2 PUSH1 0x1 PUSH1 0x1 PUSH1 0x40 SHL SUB DUP4 GT DUP5 DUP5 LT OR PUSH3 0xED JUMPI DUP1 DUP5 SWAP3 PUSH1 0x60 SWAP5 PUSH1 0x40 MSTORE DUP4 CODECOPY DUP2 ADD SUB SLT PUSH3 0xE8 JUMPI DUP1 PUSH3 0x52 PUSH3 0xD7 SWAP3 PUSH3 0x103 JUMP JUMPDEST SWAP1 PUSH3 0x6F PUSH1 0x40 PUSH3 0x67 PUSH1 0x20 DUP5 ADD PUSH3 0x103 JUMP JUMPDEST SWAP3 ADD PUSH3 0x103 JUMP JUMPDEST PUSH1 0x1 DUP1 SSTORE PUSH1 0x2 DUP1 SLOAD PUSH2 0x100 PUSH1 0x1 PUSH1 0xA8 SHL SUB NOT AND PUSH1 0x8 SWAP5 SWAP1 SWAP5 SHL PUSH2 0x100 PUSH1 0x1 PUSH1 0xA8 SHL SUB AND SWAP4 SWAP1 SWAP4 OR SWAP1 SWAP3 SSTORE PUSH1 0x3 DUP1 SLOAD PUSH1 0x1 PUSH1 0x1 PUSH1 0xA0 SHL SUB NOT AND PUSH1 0x1 PUSH1 0x1 PUSH1 0xA0 SHL SUB SWAP3 SWAP1 SWAP3 AND SWAP2 SWAP1 SWAP2 OR SWAP1 SSTORE PUSH3 0xC4 DUP2 PUSH3 0x118 JUMP JUMPDEST POP PUSH3 0xD0 DUP2 PUSH3 0x198 JUMP JUMPDEST POP PUSH3 0x23A JUMP JUMPDEST POP PUSH1 0x40 MLOAD PUSH2 0x1A1A SWAP1 DUP2 PUSH3 0x2D8 DUP3 CODECOPY RETURN JUMPDEST PUSH1 0x0 DUP1 REVERT JUMPDEST PUSH4 0x4E487B71 PUSH1 0xE0 SHL PUSH1 0x0 MSTORE PUSH1 0x41 PUSH1 0x4 MSTORE PUSH1 0x24 PUSH1 0x0 REVERT JUMPDEST MLOAD SWAP1 PUSH1 0x1 PUSH1 0x1 PUSH1 0xA0 SHL SUB DUP3 AND DUP3 SUB PUSH3 0xE8 JUMPI JUMP JUMPDEST PUSH1 0x1 PUSH1 0x1 PUSH1 0xA0 SHL SUB AND PUSH1 0x0 DUP2 DUP2 MSTORE PUSH32 0xAD3228B676F7D3CD4284A5443F17F1962B36E491B30A40B2405849E597BA5FB5 PUSH1 0x20 MSTORE PUSH1 0x40 DUP2 KECCAK256 SLOAD SWAP1 SWAP2 SWAP1 PUSH1 0xFF AND PUSH3 0x194 JUMPI DUP2 DUP1 MSTORE DUP2 PUSH1 0x20 MSTORE PUSH1 0x40 DUP3 KECCAK256 DUP2 DUP4 MSTORE PUSH1 0x20 MSTORE PUSH1 0x40 DUP3 KECCAK256 PUSH1 0x1 PUSH1 0xFF NOT DUP3 SLOAD AND OR SWAP1 SSTORE CALLER SWAP2 PUSH1 0x0 DUP1 MLOAD PUSH1 0x20 PUSH3 0x1CF2 DUP4 CODECOPY DUP2 MLOAD SWAP2 MSTORE DUP2 DUP1 LOG4 PUSH1 0x1 SWAP1 JUMP JUMPDEST POP SWAP1 JUMP JUMPDEST PUSH1 0x1 PUSH1 0x1 PUSH1 0xA0 SHL SUB AND PUSH1 0x0 DUP2 DUP2 MSTORE PUSH32 0x61E7FC3D84368231012C67D50E6FA6AA27AA16ADEA636A17E75EA902E878B6B4 PUSH1 0x20 MSTORE PUSH1 0x40 DUP2 KECCAK256 SLOAD SWAP1 SWAP2 SWAP1 PUSH32 0x5A3AD48E161847A6BFADD0936811FC7E13936213266E733D1AA3E5C9572E4D2B SWAP1 PUSH1 0xFF AND PUSH3 0x235 JUMPI DUP1 DUP4 MSTORE DUP3 PUSH1 0x20 MSTORE PUSH1 0x40 DUP4 KECCAK256 DUP3 DUP5 MSTORE PUSH1 0x20 MSTORE PUSH1 0x40 DUP4 KECCAK256 PUSH1 0x1 PUSH1 0xFF NOT DUP3 SLOAD AND OR SWAP1 SSTORE PUSH1 0x0 DUP1 MLOAD PUSH1 0x20 PUSH3 0x1CF2 DUP4 CODECOPY DUP2 MLOAD SWAP2 MSTORE CALLER SWAP4 DUP1 LOG4 PUSH1 0x1 SWAP1 JUMP JUMPDEST POP POP SWAP1 JUMP JUMPDEST PUSH1 0x1 PUSH1 0x1 PUSH1 0xA0 SHL SUB AND PUSH1 0x0 DUP2 DUP2 MSTORE PUSH32 0x242E8EC18F19B1913CA4B7A59189F4EDFDB2502C2961231A9893004508E31BA4 PUSH1 0x20 MSTORE PUSH1 0x40 DUP2 KECCAK256 SLOAD SWAP1 SWAP2 SWAP1 PUSH32 0x786FCFA0099AB9ABA15D4B2CCC7FFA9994E7C522C9B340B95E584749E47FCFB9 SWAP1 PUSH1 0xFF AND PUSH3 0x235 JUMPI DUP1 DUP4 MSTORE DUP3 PUSH1 0x20 MSTORE PUSH1 0x40 DUP4 KECCAK256 DUP3 DUP5 MSTORE PUSH1 0x20 MSTORE PUSH1 0x40 DUP4 KECCAK256 PUSH1 0x1 PUSH1 0xFF NOT DUP3 SLOAD AND OR SWAP1 SSTORE PUSH1 0x0 DUP1 MLOAD PUSH1 0x20 PUSH3 0x1CF2 DUP4 CODECOPY DUP2 MLOAD SWAP2 MSTORE CALLER SWAP4 DUP1 LOG4 PUSH1 0x1 SWAP1 JUMP INVALID PUSH1 0x80 PUSH1 0x40 DUP2 DUP2 MSTORE PUSH1 0x4 DUP1 CALLDATASIZE LT ISZERO PUSH2 0x15 JUMPI PUSH1 0x0 DUP1 REVERT JUMPDEST PUSH1 0x0 SWAP3 DUP4 CALLDATALOAD PUSH1 0xE0 SHR SWAP1 DUP2 PUSH4 0x1FFC9A7 EQ PUSH2 0x1431 JUMPI POP DUP1 PUSH4 0x3F14E96 EQ PUSH2 0x13E2 JUMPI DUP1 PUSH4 0x42179B7 EQ PUSH2 0x108D JUMPI DUP1 PUSH4 0x77145C5 EQ PUSH2 0x1048 JUMPI DUP1 PUSH4 0xF855FD6 EQ PUSH2 0x100D JUMPI DUP1 PUSH4 0x20E3DBD4 EQ PUSH2 0xFC3 JUMPI DUP1 PUSH4 0x248A9CA3 EQ PUSH2 0xF9A JUMPI DUP1 PUSH4 0x27AC0C58 EQ PUSH2 0xF4A JUMPI DUP1 PUSH4 0x2F2FF15D EQ PUSH2 0xF21 JUMPI DUP1 PUSH4 0x349CDCC2 EQ PUSH2 0xEF4 JUMPI DUP1 PUSH4 0x36568ABE EQ PUSH2 0xEAD JUMPI DUP1 PUSH4 0x381E4A05 EQ PUSH2 0xE6C JUMPI DUP1 PUSH4 0x3EE66BD6 EQ PUSH2 0xE4D JUMPI DUP1 PUSH4 0x3F4BA83A EQ PUSH2 0xDE4 JUMPI DUP1 PUSH4 0x4063C3EC EQ PUSH2 0xDC5 JUMPI DUP1 PUSH4 0x43A4F2AC EQ PUSH2 0xD15 JUMPI DUP1 PUSH4 0x567142BE EQ PUSH2 0xCF6 JUMPI DUP1 PUSH4 0x5AFFBD97 EQ PUSH2 0xBE7 JUMPI DUP1 PUSH4 0x5B88349D EQ PUSH2 0x932 JUMPI DUP1 PUSH4 0x5C975ABB EQ PUSH2 0x90E JUMPI DUP1 PUSH4 0x726B5BAD EQ PUSH2 0x7BF JUMPI DUP1 PUSH4 0x79502C55 EQ PUSH2 0x792 JUMPI DUP1 PUSH4 0x8456CB59 EQ PUSH2 0x737 JUMPI DUP1 PUSH4 0x873F6F9E EQ PUSH2 0x294 JUMPI DUP1 PUSH4 0x8B63FD4C EQ PUSH2 0x70E JUMPI DUP1 PUSH4 0x91D14854 EQ PUSH2 0x6C9 JUMPI DUP1 PUSH4 0xA217FDDF EQ PUSH2 0x6AE JUMPI DUP1 PUSH4 0xA82734C5 EQ PUSH2 0x68F JUMPI DUP1 PUSH4 0xAEEFE31F EQ PUSH2 0x5F6 JUMPI DUP1 PUSH4 0xBCB87E44 EQ PUSH2 0x5B3 JUMPI DUP1 PUSH4 0xC15EB14D EQ PUSH2 0x307 JUMPI DUP1 PUSH4 0xC1A3E15F EQ PUSH2 0x2DA JUMPI DUP1 PUSH4 0xCED65280 EQ PUSH2 0x294 JUMPI DUP1 PUSH4 0xD547741F EQ PUSH2 0x256 JUMPI DUP1 PUSH4 0xEE204ABB EQ PUSH2 0x21C JUMPI PUSH4 0xF50DDBC7 EQ PUSH2 0x1AF JUMPI PUSH1 0x0 DUP1 REVERT JUMPDEST CALLVALUE PUSH2 0x218 JUMPI PUSH1 0x20 CALLDATASIZE PUSH1 0x3 NOT ADD SLT PUSH2 0x218 JUMPI SWAP1 SWAP2 DUP3 SWAP2 PUSH1 0x1 PUSH1 0x1 PUSH1 0xA0 SHL SUB PUSH2 0x1D4 PUSH2 0x1485 JUMP JUMPDEST AND DUP3 MSTORE PUSH1 0x20 MSTORE KECCAK256 SWAP1 PUSH2 0x214 DUP3 SLOAD SWAP2 PUSH1 0x1 DUP5 ADD SLOAD SWAP4 PUSH1 0x3 PUSH1 0x2 DUP3 ADD SLOAD SWAP2 ADD SLOAD SWAP2 MLOAD SWAP5 DUP6 SWAP5 DUP6 SWAP1 SWAP5 SWAP4 SWAP3 PUSH1 0x60 SWAP3 PUSH1 0x80 DUP4 ADD SWAP7 DUP4 MSTORE PUSH1 0x20 DUP4 ADD MSTORE PUSH1 0x40 DUP3 ADD MSTORE ADD MSTORE JUMP JUMPDEST SUB SWAP1 RETURN JUMPDEST DUP3 DUP1 REVERT JUMPDEST POP CALLVALUE PUSH2 0x218 JUMPI PUSH1 0x20 CALLDATASIZE PUSH1 0x3 NOT ADD SLT PUSH2 0x218 JUMPI PUSH1 0x20 SWAP3 PUSH1 0x2 SWAP2 DUP4 SWAP2 SWAP1 PUSH1 0x1 PUSH1 0x1 PUSH1 0xA0 SHL SUB PUSH2 0x247 PUSH2 0x1485 JUMP JUMPDEST AND DUP3 MSTORE DUP6 MSTORE KECCAK256 ADD SLOAD SWAP1 MLOAD SWAP1 DUP2 MSTORE RETURN JUMPDEST POP SWAP1 CALLVALUE PUSH2 0x218 JUMPI DUP1 PUSH1 0x3 NOT CALLDATASIZE ADD SLT PUSH2 0x218 JUMPI PUSH2 0x290 SWAP2 CALLDATALOAD PUSH2 0x28B PUSH1 0x1 PUSH2 0x27A PUSH2 0x14A0 JUMP JUMPDEST SWAP4 DUP4 DUP8 MSTORE DUP7 PUSH1 0x20 MSTORE DUP7 KECCAK256 ADD SLOAD PUSH2 0x155B JUMP JUMPDEST PUSH2 0x169A JUMP JUMPDEST POP DUP1 RETURN JUMPDEST POP CALLVALUE PUSH2 0x218 JUMPI DUP2 PUSH1 0x3 NOT CALLDATASIZE ADD SLT PUSH2 0x218 JUMPI DUP2 PUSH1 0x20 SWAP4 PUSH1 0xFF SWAP3 PUSH2 0x2B4 PUSH2 0x14A0 JUMP JUMPDEST SWAP1 CALLDATALOAD DUP3 MSTORE PUSH1 0xD DUP7 MSTORE DUP3 DUP3 KECCAK256 PUSH1 0x1 PUSH1 0x1 PUSH1 0xA0 SHL SUB SWAP1 SWAP2 AND DUP3 MSTORE DUP6 MSTORE KECCAK256 SLOAD SWAP2 MLOAD SWAP2 AND ISZERO ISZERO DUP2 MSTORE RETURN JUMPDEST POP POP CALLVALUE PUSH2 0x303 JUMPI DUP2 PUSH1 0x3 NOT CALLDATASIZE ADD SLT PUSH2 0x303 JUMPI PUSH1 0x20 SWAP1 MLOAD PUSH1 0x0 DUP1 MLOAD PUSH1 0x20 PUSH2 0x19C5 DUP4 CODECOPY DUP2 MLOAD SWAP2 MSTORE DUP2 MSTORE RETURN JUMPDEST POP DUP1 REVERT JUMPDEST POP SWAP2 SWAP1 CALLVALUE PUSH2 0x303 JUMPI PUSH1 0x60 CALLDATASIZE PUSH1 0x3 NOT ADD SLT PUSH2 0x303 JUMPI PUSH2 0x323 PUSH2 0x1485 JUMP JUMPDEST SWAP1 PUSH1 0x44 CALLDATALOAD SWAP2 PUSH8 0xFFFFFFFFFFFFFFFF DUP1 DUP5 GT PUSH2 0x5AF JUMPI CALLDATASIZE PUSH1 0x23 DUP6 ADD SLT ISZERO PUSH2 0x5AF JUMPI DUP4 DUP7 ADD CALLDATALOAD SWAP1 DUP2 GT PUSH2 0x5AF JUMPI CALLDATASIZE PUSH1 0x24 DUP3 DUP7 ADD ADD GT PUSH2 0x5AF JUMPI PUSH1 0x0 DUP1 MLOAD PUSH1 0x20 PUSH2 0x19C5 DUP4 CODECOPY DUP2 MLOAD SWAP2 MSTORE DUP6 MSTORE PUSH1 0x20 SWAP3 DUP6 DUP5 MSTORE DUP1 DUP7 KECCAK256 CALLER DUP8 MSTORE DUP5 MSTORE PUSH1 0xFF DUP2 DUP8 KECCAK256 SLOAD AND ISZERO PUSH2 0x55F JUMPI PUSH1 0x2 SLOAD DUP2 MLOAD PUSH4 0x86CDB33D PUSH1 0xE0 SHL DUP2 MSTORE PUSH1 0x1 PUSH1 0x1 PUSH1 0xA0 SHL SUB SWAP7 SWAP2 DUP7 SWAP1 DUP3 SWAP1 DUP12 SWAP1 DUP3 SWAP1 PUSH1 0x8 SHR DUP12 AND GAS STATICCALL SWAP1 DUP2 ISZERO PUSH2 0x555 JUMPI SWAP1 DUP8 SWAP2 DUP10 SWAP2 PUSH2 0x51E JUMPI JUMPDEST POP PUSH2 0x3D4 PUSH8 0xDE0B6B3A7640000 SWAP2 PUSH1 0x24 CALLDATALOAD PUSH2 0x177F JUMP JUMPDEST DIV SWAP5 AND SWAP6 DUP7 DUP9 MSTORE DUP9 DUP7 MSTORE PUSH1 0x3 DUP4 DUP10 KECCAK256 ADD SLOAD ISZERO PUSH2 0x497 JUMPI JUMPDEST POP SWAP2 PUSH32 0x44358F70A7CB34BEF3DF5646D898BEBAB78A5B8562CE9CF2A521776AAF00CA36 SWAP5 SWAP4 SWAP2 DUP2 PUSH1 0x24 PUSH1 0x80 SWAP6 DUP12 DUP11 DUP13 MSTORE DUP1 DUP10 MSTORE DUP5 DUP13 KECCAK256 PUSH2 0x42C DUP9 DUP3 SLOAD PUSH2 0x17C8 JUMP JUMPDEST SWAP1 SSTORE DUP11 DUP13 MSTORE DUP1 DUP10 MSTORE PUSH1 0x2 DUP6 DUP14 KECCAK256 ADD PUSH2 0x445 DUP9 DUP3 SLOAD PUSH2 0x17C8 JUMP JUMPDEST SWAP1 SSTORE DUP11 DUP13 MSTORE DUP9 MSTORE TIMESTAMP PUSH1 0x3 DUP6 DUP14 KECCAK256 ADD SSTORE PUSH2 0x460 DUP7 PUSH1 0xF SLOAD PUSH2 0x17C8 JUMP JUMPDEST PUSH1 0xF SSTORE PUSH1 0x60 DUP5 MLOAD SWAP9 DUP10 SWAP8 DUP9 MSTORE DUP8 ADD MSTORE DUP3 PUSH1 0x60 DUP8 ADD MSTORE ADD DUP6 DUP6 ADD CALLDATACOPY DUP3 DUP3 ADD DUP5 ADD DUP9 SWAP1 MSTORE TIMESTAMP SWAP1 DUP4 ADD MSTORE PUSH1 0x1F ADD PUSH1 0x1F NOT AND DUP2 ADD SUB ADD SWAP1 LOG2 DUP1 RETURN JUMPDEST PUSH1 0x5 SLOAD PUSH9 0x10000000000000000 DUP2 LT ISZERO PUSH2 0x50B JUMPI DUP5 SWAP4 SWAP3 DUP9 SWAP10 SWAP11 PUSH1 0x80 SWAP8 SWAP7 SWAP4 PUSH32 0x44358F70A7CB34BEF3DF5646D898BEBAB78A5B8562CE9CF2A521776AAF00CA36 SWAP11 PUSH2 0x4EA DUP6 PUSH1 0x1 PUSH1 0x24 SWAP8 ADD PUSH1 0x5 SSTORE PUSH2 0x14B6 JUMP JUMPDEST SWAP1 SWAP3 DUP4 SLOAD SWAP2 PUSH1 0x3 SHL SWAP3 DUP4 SHL SWAP3 SHL NOT AND OR SWAP1 SSTORE SWAP11 SWAP10 SWAP9 POP SWAP3 SWAP4 SWAP5 SWAP6 POP POP PUSH2 0x3EB JUMP JUMPDEST PUSH4 0x4E487B71 PUSH1 0xE0 SHL DUP10 MSTORE PUSH1 0x41 DUP11 MSTORE PUSH1 0x24 DUP10 REVERT JUMPDEST DUP1 SWAP3 POP DUP8 DUP1 SWAP3 POP RETURNDATASIZE DUP4 GT PUSH2 0x54E JUMPI JUMPDEST PUSH2 0x537 DUP2 DUP4 PUSH2 0x175D JUMP JUMPDEST DUP2 ADD SUB SLT PUSH2 0x54A JUMPI MLOAD DUP7 SWAP1 PUSH2 0x3D4 PUSH2 0x3BE JUMP JUMPDEST DUP8 DUP1 REVERT JUMPDEST POP RETURNDATASIZE PUSH2 0x52D JUMP JUMPDEST DUP4 MLOAD RETURNDATASIZE DUP11 DUP3 RETURNDATACOPY RETURNDATASIZE SWAP1 REVERT JUMPDEST MLOAD PUSH3 0x461BCD PUSH1 0xE5 SHL DUP2 MSTORE DUP1 DUP8 ADD DUP5 SWAP1 MSTORE PUSH1 0x25 PUSH1 0x24 DUP3 ADD MSTORE PUSH32 0x506F696E74734D616E616765723A2063616C6C6572206973206E6F74206F7065 PUSH1 0x44 DUP3 ADD MSTORE PUSH5 0x3930BA37B9 PUSH1 0xD9 SHL PUSH1 0x64 DUP3 ADD MSTORE PUSH1 0x84 SWAP1 REVERT JUMPDEST DUP5 DUP1 REVERT JUMPDEST POP CALLVALUE PUSH2 0x218 JUMPI PUSH1 0x20 CALLDATASIZE PUSH1 0x3 NOT ADD SLT PUSH2 0x218 JUMPI CALLDATALOAD SWAP2 PUSH1 0x5 SLOAD DUP4 LT ISZERO PUSH2 0x5F3 JUMPI POP PUSH2 0x5DD PUSH1 0x20 SWAP3 PUSH2 0x14B6 JUMP JUMPDEST SWAP1 SLOAD SWAP2 MLOAD SWAP2 PUSH1 0x1 DUP1 PUSH1 0xA0 SHL SUB SWAP2 PUSH1 0x3 SHL SHR AND DUP2 MSTORE RETURN JUMPDEST DUP1 REVERT JUMPDEST POP CALLVALUE PUSH2 0x218 JUMPI PUSH1 0x20 CALLDATASIZE PUSH1 0x3 NOT ADD SLT PUSH2 0x218 JUMPI PUSH1 0x80 SWAP3 DUP3 SWAP2 PUSH2 0x615 PUSH2 0x1485 JUMP JUMPDEST DUP3 PUSH1 0x60 DUP6 MLOAD PUSH2 0x623 DUP2 PUSH2 0x1741 JUMP JUMPDEST DUP3 DUP2 MSTORE DUP3 PUSH1 0x20 DUP3 ADD MSTORE DUP3 DUP8 DUP3 ADD MSTORE ADD MSTORE PUSH1 0x1 DUP1 PUSH1 0xA0 SHL SUB AND DUP3 MSTORE PUSH1 0x20 MSTORE KECCAK256 SWAP1 DUP1 MLOAD SWAP1 PUSH2 0x64E DUP3 PUSH2 0x1741 JUMP JUMPDEST DUP3 SLOAD SWAP3 DUP4 DUP4 MSTORE PUSH1 0x1 DUP2 ADD SLOAD PUSH1 0x20 DUP5 ADD SWAP1 DUP2 MSTORE PUSH1 0x60 PUSH1 0x3 PUSH1 0x2 DUP5 ADD SLOAD SWAP4 DUP6 DUP8 ADD SWAP5 DUP6 MSTORE ADD SLOAD SWAP5 ADD SWAP4 DUP5 MSTORE DUP3 MLOAD SWAP5 DUP6 MSTORE MLOAD PUSH1 0x20 DUP6 ADD MSTORE MLOAD SWAP1 DUP4 ADD MSTORE MLOAD PUSH1 0x60 DUP3 ADD MSTORE RETURN JUMPDEST POP POP CALLVALUE PUSH2 0x303 JUMPI DUP2 PUSH1 0x3 NOT CALLDATASIZE ADD SLT PUSH2 0x303 JUMPI PUSH1 0x20 SWAP1 PUSH1 0xC SLOAD SWAP1 MLOAD SWAP1 DUP2 MSTORE RETURN JUMPDEST POP POP CALLVALUE PUSH2 0x303 JUMPI DUP2 PUSH1 0x3 NOT CALLDATASIZE ADD SLT PUSH2 0x303 JUMPI MLOAD SWAP1 DUP2 MSTORE PUSH1 0x20 SWAP1 RETURN JUMPDEST POP CALLVALUE PUSH2 0x218 JUMPI DUP2 PUSH1 0x3 NOT CALLDATASIZE ADD SLT PUSH2 0x218 JUMPI DUP2 PUSH1 0x20 SWAP4 PUSH1 0xFF SWAP3 PUSH2 0x6E9 PUSH2 0x14A0 JUMP JUMPDEST SWAP1 CALLDATALOAD DUP3 MSTORE DUP2 DUP7 MSTORE DUP3 DUP3 KECCAK256 PUSH1 0x1 PUSH1 0x1 PUSH1 0xA0 SHL SUB SWAP1 SWAP2 AND DUP3 MSTORE DUP6 MSTORE KECCAK256 SLOAD SWAP2 MLOAD SWAP2 AND ISZERO ISZERO DUP2 MSTORE RETURN JUMPDEST POP POP CALLVALUE PUSH2 0x303 JUMPI DUP2 PUSH1 0x3 NOT CALLDATASIZE ADD SLT PUSH2 0x303 JUMPI PUSH1 0x3 SLOAD SWAP1 MLOAD PUSH1 0x1 PUSH1 0x1 PUSH1 0xA0 SHL SUB SWAP1 SWAP2 AND DUP2 MSTORE PUSH1 0x20 SWAP1 RETURN JUMPDEST POP POP CALLVALUE PUSH2 0x303 JUMPI DUP2 PUSH1 0x3 NOT CALLDATASIZE ADD SLT PUSH2 0x303 JUMPI PUSH1 0x20 PUSH32 0x62E78CEA01BEE320CD4E420270B5EA74000D11B0C9F74754EBDBFC544B05A258 SWAP2 PUSH2 0x775 PUSH2 0x1503 JUMP JUMPDEST PUSH2 0x77D PUSH2 0x1917 JUMP JUMPDEST PUSH1 0x1 PUSH1 0xFF NOT PUSH1 0x2 SLOAD AND OR PUSH1 0x2 SSTORE MLOAD CALLER DUP2 MSTORE LOG1 DUP1 RETURN JUMPDEST POP POP CALLVALUE PUSH2 0x303 JUMPI DUP2 PUSH1 0x3 NOT CALLDATASIZE ADD SLT PUSH2 0x303 JUMPI PUSH1 0x2 SLOAD SWAP1 MLOAD PUSH1 0x8 SWAP2 SWAP1 SWAP2 SHR PUSH1 0x1 PUSH1 0x1 PUSH1 0xA0 SHL SUB AND DUP2 MSTORE PUSH1 0x20 SWAP1 RETURN JUMPDEST POP SWAP1 CALLVALUE PUSH2 0x218 JUMPI DUP3 PUSH1 0x3 NOT CALLDATASIZE ADD SLT PUSH2 0x218 JUMPI PUSH32 0x786FCFA0099AB9ABA15D4B2CCC7FFA9994E7C522C9B340B95E584749E47FCFB9 DUP4 MSTORE PUSH1 0x20 DUP4 DUP2 MSTORE DUP2 DUP5 KECCAK256 CALLER DUP6 MSTORE DUP2 MSTORE PUSH2 0x810 PUSH1 0xFF DUP4 DUP7 KECCAK256 SLOAD AND PUSH2 0x17D5 JUMP JUMPDEST PUSH1 0xA SLOAD SWAP3 PUSH2 0x820 PUSH1 0xFF DUP6 AND PUSH2 0x1843 JUMP JUMPDEST PUSH1 0x8 SLOAD TIMESTAMP GT ISZERO PUSH2 0x8C1 JUMPI POP DUP4 SWAP1 DUP5 SWAP4 PUSH1 0x5 SLOAD SWAP5 PUSH1 0xB SLOAD SWAP6 JUMPDEST DUP1 DUP3 LT PUSH2 0x879 JUMPI POP POP PUSH1 0xFF NOT AND PUSH1 0xA SSTORE DUP3 MLOAD SWAP2 DUP3 MSTORE TIMESTAMP SWAP1 DUP3 ADD MSTORE PUSH32 0x20F3A76238EF0DC6ABB5FF2008F9A5C36157EBDB5E3F1FAB989C19D49A58EAD7 SWAP2 SWAP1 LOG2 DUP1 RETURN JUMPDEST SWAP1 SWAP4 PUSH2 0x8B5 PUSH2 0x8BB SWAP2 DUP9 DUP11 MSTORE PUSH1 0xE DUP7 MSTORE DUP8 DUP11 KECCAK256 PUSH2 0x895 DUP9 PUSH2 0x14B6 JUMP JUMPDEST SWAP1 SLOAD PUSH1 0x3 SWAP2 SWAP1 SWAP2 SHL SHR PUSH1 0x1 PUSH1 0x1 PUSH1 0xA0 SHL SUB AND DUP12 MSTORE DUP7 MSTORE DUP8 DUP11 KECCAK256 SLOAD SWAP1 PUSH2 0x17C8 JUMP JUMPDEST SWAP5 PUSH2 0x1834 JUMP JUMPDEST SWAP1 PUSH2 0x838 JUMP JUMPDEST SWAP2 MLOAD PUSH3 0x461BCD PUSH1 0xE5 SHL DUP2 MSTORE SWAP2 DUP3 ADD MSTORE PUSH1 0x24 DUP1 DUP3 ADD MSTORE PUSH32 0x506F696E74734D616E616765723A2061697264726F70206E6F7420656E646564 PUSH1 0x44 DUP3 ADD MSTORE PUSH4 0x81E595D PUSH1 0xE2 SHL PUSH1 0x64 DUP3 ADD MSTORE PUSH1 0x84 SWAP1 REVERT JUMPDEST POP POP CALLVALUE PUSH2 0x303 JUMPI DUP2 PUSH1 0x3 NOT CALLDATASIZE ADD SLT PUSH2 0x303 JUMPI PUSH1 0x20 SWAP1 PUSH1 0xFF PUSH1 0x2 SLOAD AND SWAP1 MLOAD SWAP1 ISZERO ISZERO DUP2 MSTORE RETURN JUMPDEST POP SWAP1 CALLVALUE PUSH2 0x218 JUMPI DUP3 PUSH1 0x3 NOT CALLDATASIZE ADD SLT PUSH2 0x218 JUMPI PUSH1 0x1 SWAP2 PUSH1 0x2 DUP4 SLOAD EQ PUSH2 0xBD9 JUMPI PUSH1 0x2 DUP4 SSTORE PUSH2 0x95C PUSH2 0x1917 JUMP JUMPDEST PUSH2 0x96A PUSH1 0xFF PUSH1 0xA SLOAD AND PUSH2 0x1843 JUMP JUMPDEST PUSH1 0x7 SLOAD TIMESTAMP LT PUSH2 0xB8C JUMPI PUSH1 0x8 SLOAD TIMESTAMP GT PUSH2 0xB4A JUMPI PUSH1 0xB SLOAD DUP5 MSTORE PUSH1 0x20 SWAP2 PUSH1 0xD DUP4 MSTORE DUP1 DUP6 KECCAK256 CALLER DUP7 MSTORE DUP4 MSTORE PUSH1 0xFF DUP2 DUP7 KECCAK256 SLOAD AND PUSH2 0xB09 JUMPI CALLER DUP6 MSTORE DUP2 DUP4 MSTORE DUP1 DUP6 KECCAK256 SWAP2 PUSH1 0x2 DUP4 ADD DUP1 SLOAD SWAP4 DUP5 ISZERO PUSH2 0xABC JUMPI PUSH2 0x9CA PUSH2 0x9C1 PUSH1 0x6 SLOAD DUP8 PUSH2 0x177F JUMP JUMPDEST PUSH1 0x9 SLOAD SWAP1 PUSH2 0x17A8 JUMP JUMPDEST SWAP3 DUP4 ISZERO PUSH2 0xA79 JUMPI POP SWAP1 DUP7 DUP9 SWAP3 ADD PUSH2 0x9E2 DUP7 DUP3 SLOAD PUSH2 0x17C8 JUMP JUMPDEST SWAP1 SSTORE SSTORE PUSH2 0x9F1 DUP4 PUSH1 0x10 SLOAD PUSH2 0x17C8 JUMP JUMPDEST PUSH1 0x10 SSTORE PUSH1 0xB SLOAD DUP7 MSTORE PUSH1 0xD DUP5 MSTORE DUP2 DUP7 KECCAK256 CALLER DUP8 MSTORE DUP5 MSTORE DUP2 DUP7 KECCAK256 DUP6 PUSH1 0xFF NOT DUP3 SLOAD AND OR SWAP1 SSTORE PUSH1 0xB SLOAD DUP7 MSTORE PUSH1 0xE DUP5 MSTORE DUP2 DUP7 KECCAK256 CALLER DUP8 MSTORE DUP5 MSTORE DUP1 DUP3 DUP8 KECCAK256 SSTORE PUSH2 0xA3D DUP2 CALLER PUSH1 0x1 DUP1 PUSH1 0xA0 SHL SUB PUSH1 0x3 SLOAD AND PUSH2 0x188E JUMP JUMPDEST PUSH1 0xB SLOAD SWAP4 DUP3 MLOAD SWAP4 DUP5 MSTORE DUP4 ADD MSTORE TIMESTAMP SWAP1 DUP3 ADD MSTORE PUSH32 0x88D251001ABFA13A6CA3997FB2FF1CE97BC559EBE3DFC31D2120C772A538B380 PUSH1 0x60 CALLER SWAP3 LOG3 DUP1 SSTORE DUP1 RETURN JUMPDEST DUP5 MLOAD PUSH3 0x461BCD PUSH1 0xE5 SHL DUP2 MSTORE SWAP1 DUP2 ADD DUP8 SWAP1 MSTORE PUSH1 0x1F PUSH1 0x24 DUP3 ADD MSTORE PUSH32 0x506F696E74734D616E616765723A206E6F7468696E6720746F20636C61696D00 PUSH1 0x44 DUP3 ADD MSTORE PUSH1 0x64 SWAP1 REVERT JUMPDEST DUP4 MLOAD PUSH3 0x461BCD PUSH1 0xE5 SHL DUP2 MSTORE DUP1 DUP5 ADD DUP8 SWAP1 MSTORE PUSH1 0x21 PUSH1 0x24 DUP3 ADD MSTORE PUSH32 0x506F696E74734D616E616765723A206E6F20706F696E747320746F20636C6169 PUSH1 0x44 DUP3 ADD MSTORE PUSH1 0x6D PUSH1 0xF8 SHL PUSH1 0x64 DUP3 ADD MSTORE PUSH1 0x84 SWAP1 REVERT JUMPDEST SWAP2 PUSH1 0x64 SWAP3 MLOAD SWAP2 PUSH3 0x461BCD PUSH1 0xE5 SHL DUP4 MSTORE DUP3 ADD MSTORE PUSH1 0x1E PUSH1 0x24 DUP3 ADD MSTORE PUSH32 0x506F696E74734D616E616765723A20616C726561647920636C61696D65640000 PUSH1 0x44 DUP3 ADD MSTORE REVERT JUMPDEST PUSH1 0x20 PUSH1 0x64 SWAP3 MLOAD SWAP2 PUSH3 0x461BCD PUSH1 0xE5 SHL DUP4 MSTORE DUP3 ADD MSTORE PUSH1 0x1C PUSH1 0x24 DUP3 ADD MSTORE PUSH32 0x506F696E74734D616E616765723A2061697264726F7020656E64656400000000 PUSH1 0x44 DUP3 ADD MSTORE REVERT JUMPDEST PUSH1 0x20 PUSH1 0x84 SWAP3 MLOAD SWAP2 PUSH3 0x461BCD PUSH1 0xE5 SHL DUP4 MSTORE DUP3 ADD MSTORE PUSH1 0x22 PUSH1 0x24 DUP3 ADD MSTORE PUSH32 0x506F696E74734D616E616765723A2061697264726F70206E6F74207374617274 PUSH1 0x44 DUP3 ADD MSTORE PUSH2 0x1959 PUSH1 0xF2 SHL PUSH1 0x64 DUP3 ADD MSTORE REVERT JUMPDEST SWAP1 MLOAD PUSH4 0x3EE5AEB5 PUSH1 0xE0 SHL DUP2 MSTORE REVERT JUMPDEST POP SWAP1 CALLVALUE PUSH2 0x218 JUMPI PUSH1 0x20 SWAP2 DUP3 PUSH1 0x3 NOT CALLDATASIZE ADD SLT PUSH2 0xC93 JUMPI PUSH2 0xC04 PUSH2 0x1485 JUMP JUMPDEST SWAP1 PUSH2 0xC0D PUSH2 0x1503 JUMP JUMPDEST PUSH1 0xFF PUSH1 0xA SLOAD AND PUSH2 0xCA7 JUMPI PUSH1 0x3 SLOAD DUP4 MLOAD PUSH4 0x70A08231 PUSH1 0xE0 SHL DUP2 MSTORE ADDRESS SWAP3 DUP2 ADD SWAP3 SWAP1 SWAP3 MSTORE PUSH1 0x1 PUSH1 0x1 PUSH1 0xA0 SHL SUB AND SWAP4 DUP1 DUP3 PUSH1 0x24 DUP2 DUP9 GAS STATICCALL SWAP4 DUP5 ISZERO PUSH2 0xC9E JUMPI POP DUP6 SWAP4 PUSH2 0xC6A JUMPI JUMPDEST POP POP DUP2 PUSH2 0xC5A JUMPI DUP4 DUP1 RETURN JUMPDEST PUSH2 0xC63 SWAP3 PUSH2 0x188E JUMP JUMPDEST CODESIZE DUP1 DUP1 DUP4 DUP1 RETURN JUMPDEST SWAP1 DUP1 SWAP3 SWAP4 POP DUP2 RETURNDATASIZE DUP4 GT PUSH2 0xC97 JUMPI JUMPDEST PUSH2 0xC82 DUP2 DUP4 PUSH2 0x175D JUMP JUMPDEST DUP2 ADD SUB SLT PUSH2 0xC93 JUMPI MLOAD SWAP1 CODESIZE DUP1 PUSH2 0xC4F JUMP JUMPDEST DUP4 DUP1 REVERT JUMPDEST POP RETURNDATASIZE PUSH2 0xC78 JUMP JUMPDEST MLOAD RETURNDATASIZE DUP8 DUP3 RETURNDATACOPY RETURNDATASIZE SWAP1 REVERT JUMPDEST DUP3 MLOAD PUSH3 0x461BCD PUSH1 0xE5 SHL DUP2 MSTORE SWAP1 DUP2 ADD DUP5 SWAP1 MSTORE PUSH1 0x23 PUSH1 0x24 DUP3 ADD MSTORE PUSH32 0x506F696E74734D616E616765723A2061697264726F70207374696C6C20616374 PUSH1 0x44 DUP3 ADD MSTORE PUSH3 0x697665 PUSH1 0xE8 SHL PUSH1 0x64 DUP3 ADD MSTORE PUSH1 0x84 SWAP1 REVERT JUMPDEST POP POP CALLVALUE PUSH2 0x303 JUMPI DUP2 PUSH1 0x3 NOT CALLDATASIZE ADD SLT PUSH2 0x303 JUMPI PUSH1 0x20 SWAP1 PUSH1 0xF SLOAD SWAP1 MLOAD SWAP1 DUP2 MSTORE RETURN JUMPDEST POP POP CALLVALUE PUSH2 0x303 JUMPI DUP2 PUSH1 0x3 NOT CALLDATASIZE ADD SLT PUSH2 0x303 JUMPI PUSH1 0xC0 SWAP2 PUSH1 0xA0 DUP3 MLOAD PUSH2 0xD37 DUP2 PUSH2 0x170F JUMP JUMPDEST DUP3 DUP2 MSTORE DUP3 PUSH1 0x20 DUP3 ADD MSTORE DUP3 DUP5 DUP3 ADD MSTORE DUP3 PUSH1 0x60 DUP3 ADD MSTORE DUP3 PUSH1 0x80 DUP3 ADD MSTORE ADD MSTORE DUP1 MLOAD PUSH2 0xD5E DUP2 PUSH2 0x170F JUMP JUMPDEST PUSH1 0x6 SLOAD SWAP2 DUP3 DUP3 MSTORE PUSH1 0x7 SLOAD SWAP1 PUSH1 0x20 DUP4 ADD SWAP2 DUP3 MSTORE PUSH1 0x8 SLOAD SWAP1 DUP1 DUP5 ADD SWAP2 DUP3 MSTORE PUSH1 0x9 SLOAD SWAP2 PUSH1 0x60 DUP6 ADD SWAP3 DUP4 MSTORE PUSH1 0xFF PUSH1 0xA SLOAD AND SWAP4 PUSH1 0x80 DUP7 ADD SWAP5 ISZERO ISZERO DUP6 MSTORE PUSH1 0xA0 PUSH1 0xB SLOAD SWAP7 ADD SWAP6 DUP7 MSTORE DUP3 MLOAD SWAP7 DUP8 MSTORE MLOAD PUSH1 0x20 DUP8 ADD MSTORE MLOAD SWAP1 DUP6 ADD MSTORE MLOAD PUSH1 0x60 DUP5 ADD MSTORE MLOAD ISZERO ISZERO PUSH1 0x80 DUP4 ADD MSTORE MLOAD PUSH1 0xA0 DUP3 ADD MSTORE RETURN JUMPDEST POP POP CALLVALUE PUSH2 0x303 JUMPI DUP2 PUSH1 0x3 NOT CALLDATASIZE ADD SLT PUSH2 0x303 JUMPI PUSH1 0x20 SWAP1 PUSH1 0x10 SLOAD SWAP1 MLOAD SWAP1 DUP2 MSTORE RETURN JUMPDEST POP CALLVALUE PUSH2 0x218 JUMPI DUP3 PUSH1 0x3 NOT CALLDATASIZE ADD SLT PUSH2 0x218 JUMPI PUSH2 0xDFD PUSH2 0x1503 JUMP JUMPDEST PUSH1 0x2 SLOAD SWAP1 PUSH1 0xFF DUP3 AND ISZERO PUSH2 0xE3F JUMPI POP PUSH1 0xFF NOT AND PUSH1 0x2 SSTORE MLOAD CALLER DUP2 MSTORE PUSH32 0x5DB9EE0A495BF2E6FF9C91A7834C1BA4FDD244A5E8AA4E537BD38AEAE4B073AA SWAP1 PUSH1 0x20 SWAP1 LOG1 DUP1 RETURN JUMPDEST DUP3 MLOAD PUSH4 0x8DFC202B PUSH1 0xE0 SHL DUP2 MSTORE REVERT JUMPDEST POP POP CALLVALUE PUSH2 0x303 JUMPI DUP2 PUSH1 0x3 NOT CALLDATASIZE ADD SLT PUSH2 0x303 JUMPI PUSH1 0x20 SWAP1 PUSH1 0x5 SLOAD SWAP1 MLOAD SWAP1 DUP2 MSTORE RETURN JUMPDEST POP CALLVALUE PUSH2 0x218 JUMPI DUP2 PUSH1 0x3 NOT CALLDATASIZE ADD SLT PUSH2 0x218 JUMPI PUSH1 0x20 SWAP3 DUP3 SWAP2 PUSH2 0xE8A PUSH2 0x14A0 JUMP JUMPDEST SWAP1 CALLDATALOAD DUP3 MSTORE PUSH1 0xE DUP6 MSTORE DUP3 DUP3 KECCAK256 PUSH1 0x1 PUSH1 0x1 PUSH1 0xA0 SHL SUB SWAP1 SWAP2 AND DUP3 MSTORE DUP5 MSTORE KECCAK256 SLOAD SWAP1 MLOAD SWAP1 DUP2 MSTORE RETURN JUMPDEST POP SWAP2 SWAP1 CALLVALUE PUSH2 0x303 JUMPI DUP1 PUSH1 0x3 NOT CALLDATASIZE ADD SLT PUSH2 0x303 JUMPI PUSH2 0xEC8 PUSH2 0x14A0 JUMP JUMPDEST SWAP1 CALLER PUSH1 0x1 PUSH1 0x1 PUSH1 0xA0 SHL SUB DUP4 AND SUB PUSH2 0xEE5 JUMPI POP PUSH2 0x290 SWAP2 SWAP3 CALLDATALOAD PUSH2 0x169A JUMP JUMPDEST MLOAD PUSH4 0x334BD919 PUSH1 0xE1 SHL DUP2 MSTORE DUP4 SWAP1 REVERT JUMPDEST POP POP CALLVALUE PUSH2 0x303 JUMPI PUSH1 0x20 CALLDATASIZE PUSH1 0x3 NOT ADD SLT PUSH2 0x303 JUMPI PUSH1 0x20 SWAP1 PUSH2 0xF1A PUSH2 0xF15 PUSH2 0x1485 JUMP JUMPDEST PUSH2 0x1935 JUMP JUMPDEST SWAP1 MLOAD SWAP1 DUP2 MSTORE RETURN JUMPDEST POP SWAP1 CALLVALUE PUSH2 0x218 JUMPI DUP1 PUSH1 0x3 NOT CALLDATASIZE ADD SLT PUSH2 0x218 JUMPI PUSH2 0x290 SWAP2 CALLDATALOAD PUSH2 0xF45 PUSH1 0x1 PUSH2 0x27A PUSH2 0x14A0 JUMP JUMPDEST PUSH2 0x1621 JUMP JUMPDEST POP POP CALLVALUE PUSH2 0x303 JUMPI PUSH1 0x20 CALLDATASIZE PUSH1 0x3 NOT ADD SLT PUSH2 0x303 JUMPI PUSH2 0x290 SWAP1 PUSH2 0xF95 PUSH1 0x1 PUSH2 0xF6E PUSH2 0x1485 JUMP JUMPDEST SWAP3 PUSH2 0xF77 PUSH2 0x1503 JUMP JUMPDEST PUSH1 0x0 DUP1 MLOAD PUSH1 0x20 PUSH2 0x19C5 DUP4 CODECOPY DUP2 MLOAD SWAP2 MSTORE DUP7 MSTORE DUP6 PUSH1 0x20 MSTORE DUP6 KECCAK256 ADD SLOAD PUSH2 0x155B JUMP JUMPDEST PUSH2 0x1581 JUMP JUMPDEST POP CALLVALUE PUSH2 0x218 JUMPI PUSH1 0x20 CALLDATASIZE PUSH1 0x3 NOT ADD SLT PUSH2 0x218 JUMPI DUP2 PUSH1 0x20 SWAP4 PUSH1 0x1 SWAP3 CALLDATALOAD DUP2 MSTORE DUP1 DUP6 MSTORE KECCAK256 ADD SLOAD SWAP1 MLOAD SWAP1 DUP2 MSTORE RETURN JUMPDEST DUP4 CALLVALUE PUSH2 0x5F3 JUMPI PUSH1 0x20 CALLDATASIZE PUSH1 0x3 NOT ADD SLT PUSH2 0x5F3 JUMPI PUSH2 0xFDD PUSH2 0x1485 JUMP JUMPDEST PUSH2 0xFE5 PUSH2 0x1503 JUMP JUMPDEST PUSH1 0x2 DUP1 SLOAD PUSH2 0x100 PUSH1 0x1 PUSH1 0xA8 SHL SUB NOT AND PUSH1 0x8 SWAP3 SWAP1 SWAP3 SHL PUSH2 0x100 PUSH1 0x1 PUSH1 0xA8 SHL SUB AND SWAP2 SWAP1 SWAP2 OR SWAP1 SSTORE DUP1 RETURN JUMPDEST POP POP CALLVALUE PUSH2 0x303 JUMPI DUP2 PUSH1 0x3 NOT CALLDATASIZE ADD SLT PUSH2 0x303 JUMPI PUSH1 0x20 SWAP1 MLOAD PUSH32 0x786FCFA0099AB9ABA15D4B2CCC7FFA9994E7C522C9B340B95E584749E47FCFB9 DUP2 MSTORE RETURN JUMPDEST DUP4 CALLVALUE PUSH2 0x5F3 JUMPI PUSH1 0x20 CALLDATASIZE PUSH1 0x3 NOT ADD SLT PUSH2 0x5F3 JUMPI PUSH2 0x1062 PUSH2 0x1485 JUMP JUMPDEST PUSH2 0x106A PUSH2 0x1503 JUMP JUMPDEST PUSH1 0x1 DUP1 PUSH1 0xA0 SHL SUB AND PUSH12 0xFFFFFFFFFFFFFFFFFFFFFFFF PUSH1 0xA0 SHL PUSH1 0x3 SLOAD AND OR PUSH1 0x3 SSTORE DUP1 RETURN JUMPDEST POP SWAP2 SWAP1 CALLVALUE PUSH2 0x303 JUMPI PUSH1 0x60 CALLDATASIZE PUSH1 0x3 NOT ADD SLT PUSH2 0x303 JUMPI DUP3 CALLDATALOAD SWAP3 PUSH1 0x24 SWAP2 DUP3 CALLDATALOAD SWAP1 PUSH1 0x44 DUP1 CALLDATALOAD SWAP4 PUSH32 0x786FCFA0099AB9ABA15D4B2CCC7FFA9994E7C522C9B340B95E584749E47FCFB9 DUP8 MSTORE PUSH1 0x20 DUP8 DUP2 MSTORE DUP4 DUP9 KECCAK256 CALLER DUP10 MSTORE DUP2 MSTORE PUSH2 0x10EE PUSH1 0xFF DUP6 DUP11 KECCAK256 SLOAD AND PUSH2 0x17D5 JUMP JUMPDEST PUSH1 0xA SLOAD SWAP3 PUSH1 0xFF DUP5 AND PUSH2 0x138D JUMPI TIMESTAMP DUP7 LT PUSH2 0x1343 JUMPI DUP6 DUP8 GT ISZERO PUSH2 0x12F9 JUMPI DUP10 ISZERO PUSH2 0x12AD JUMPI PUSH1 0x3 SLOAD DUP6 MLOAD PUSH4 0x70A08231 PUSH1 0xE0 SHL DUP2 MSTORE ADDRESS DUP6 DUP3 ADD MSTORE SWAP1 DUP4 SWAP1 DUP3 SWAP1 DUP12 SWAP1 DUP3 SWAP1 PUSH1 0x1 PUSH1 0x1 PUSH1 0xA0 SHL SUB AND GAS STATICCALL SWAP1 DUP2 ISZERO PUSH2 0x12A3 JUMPI SWAP1 DUP12 SWAP2 DUP12 SWAP2 PUSH2 0x126E JUMPI JUMPDEST POP LT PUSH2 0x121C JUMPI POP PUSH2 0x115A PUSH1 0xC SLOAD PUSH2 0x1834 JUMP JUMPDEST SWAP7 DUP8 PUSH1 0xC SSTORE PUSH1 0xF SLOAD SWAP3 PUSH1 0x10 SLOAD DUP5 SUB SWAP4 DUP5 GT PUSH2 0x120B JUMPI POP POP DUP7 SWAP8 SWAP9 SWAP3 DUP5 SWAP3 PUSH32 0x210FF108B953432139817176B3CEDE4749D344E4D6EEEF4E9B0F9F38641E5546 SWAP9 PUSH1 0xA0 PUSH1 0x1 SWAP5 DUP10 PUSH2 0x1205 SWAP10 MLOAD SWAP2 PUSH2 0x11AE DUP4 PUSH2 0x170F JUMP JUMPDEST DUP10 DUP4 MSTORE DUP3 ADD MSTORE DUP11 DUP8 DUP3 ADD MSTORE DUP4 PUSH1 0x60 DUP3 ADD MSTORE DUP6 PUSH1 0x80 DUP3 ADD MSTORE ADD MSTORE DUP5 PUSH1 0x6 SSTORE DUP7 PUSH1 0x7 SSTORE DUP8 PUSH1 0x8 SSTORE PUSH1 0x9 SSTORE PUSH1 0xFF NOT AND OR PUSH1 0xA SSTORE DUP7 PUSH1 0xB SSTORE MLOAD SWAP4 DUP5 SWAP4 TIMESTAMP SWAP3 DUP6 SWAP1 SWAP5 SWAP4 SWAP3 PUSH1 0x60 SWAP3 PUSH1 0x80 DUP4 ADD SWAP7 DUP4 MSTORE PUSH1 0x20 DUP4 ADD MSTORE PUSH1 0x40 DUP3 ADD MSTORE ADD MSTORE JUMP JUMPDEST SUB SWAP1 LOG2 DUP1 RETURN JUMPDEST PUSH4 0x4E487B71 PUSH1 0xE0 SHL DUP11 MSTORE PUSH1 0x11 SWAP1 MSTORE DUP9 REVERT JUMPDEST PUSH1 0x84 SWAP4 POP PUSH1 0x29 DUP9 PUSH32 0x506F696E74734D616E616765723A20696E73756666696369656E7420746F6B65 SWAP4 DUP8 MLOAD SWAP6 PUSH3 0x461BCD PUSH1 0xE5 SHL DUP8 MSTORE DUP7 ADD MSTORE DUP5 ADD MSTORE DUP3 ADD MSTORE PUSH9 0x6E2062616C616E6365 PUSH1 0xB8 SHL PUSH1 0x64 DUP3 ADD MSTORE REVERT JUMPDEST DUP1 SWAP3 POP DUP5 DUP1 SWAP3 POP RETURNDATASIZE DUP4 GT PUSH2 0x129C JUMPI JUMPDEST PUSH2 0x1287 DUP2 DUP4 PUSH2 0x175D JUMP JUMPDEST DUP2 ADD SUB SLT PUSH2 0x1298 JUMPI DUP11 SWAP1 MLOAD CODESIZE PUSH2 0x1148 JUMP JUMPDEST DUP10 DUP1 REVERT JUMPDEST POP RETURNDATASIZE PUSH2 0x127D JUMP JUMPDEST DUP7 MLOAD RETURNDATASIZE DUP13 DUP3 RETURNDATACOPY RETURNDATASIZE SWAP1 REVERT JUMPDEST PUSH1 0x84 SWAP4 POP DUP8 PUSH32 0x506F696E74734D616E616765723A20706F6F6C206D75737420626520706F7369 SWAP3 DUP7 MLOAD SWAP5 PUSH3 0x461BCD PUSH1 0xE5 SHL DUP7 MSTORE DUP6 ADD MSTORE DUP1 DUP5 ADD MSTORE DUP3 ADD MSTORE PUSH4 0x74697665 PUSH1 0xE0 SHL PUSH1 0x64 DUP3 ADD MSTORE REVERT JUMPDEST PUSH1 0x84 SWAP4 POP PUSH1 0x21 DUP9 PUSH32 0x506F696E74734D616E616765723A20696E76616C69642074696D652072616E67 SWAP4 DUP8 MLOAD SWAP6 PUSH3 0x461BCD PUSH1 0xE5 SHL DUP8 MSTORE DUP7 ADD MSTORE DUP5 ADD MSTORE DUP3 ADD MSTORE PUSH1 0x65 PUSH1 0xF8 SHL PUSH1 0x64 DUP3 ADD MSTORE REVERT JUMPDEST PUSH1 0x84 SWAP4 POP PUSH1 0x21 DUP9 PUSH32 0x506F696E74734D616E616765723A2073746172742074696D6520696E20706173 SWAP4 DUP8 MLOAD SWAP6 PUSH3 0x461BCD PUSH1 0xE5 SHL DUP8 MSTORE DUP7 ADD MSTORE DUP5 ADD MSTORE DUP3 ADD MSTORE PUSH1 0x1D PUSH1 0xFA SHL PUSH1 0x64 DUP3 ADD MSTORE REVERT JUMPDEST PUSH1 0x84 SWAP4 POP PUSH1 0x2C DUP9 PUSH32 0x506F696E74734D616E616765723A2070726576696F75732061697264726F7020 SWAP4 DUP8 MLOAD SWAP6 PUSH3 0x461BCD PUSH1 0xE5 SHL DUP8 MSTORE DUP7 ADD MSTORE DUP5 ADD MSTORE DUP3 ADD MSTORE PUSH12 0x7374696C6C20616374697665 PUSH1 0xA0 SHL PUSH1 0x64 DUP3 ADD MSTORE REVERT JUMPDEST POP POP CALLVALUE PUSH2 0x303 JUMPI DUP2 PUSH1 0x3 NOT CALLDATASIZE ADD SLT PUSH2 0x303 JUMPI PUSH1 0xC0 SWAP1 PUSH1 0x6 SLOAD SWAP1 PUSH1 0x7 SLOAD SWAP1 PUSH1 0x8 SLOAD PUSH1 0x9 SLOAD SWAP1 PUSH1 0xFF PUSH1 0xA SLOAD AND SWAP3 PUSH1 0xB SLOAD SWAP5 DUP2 MLOAD SWAP7 DUP8 MSTORE PUSH1 0x20 DUP8 ADD MSTORE DUP6 ADD MSTORE PUSH1 0x60 DUP5 ADD MSTORE ISZERO ISZERO PUSH1 0x80 DUP4 ADD MSTORE PUSH1 0xA0 DUP3 ADD MSTORE RETURN JUMPDEST SWAP3 POP POP CALLVALUE PUSH2 0x218 JUMPI PUSH1 0x20 CALLDATASIZE PUSH1 0x3 NOT ADD SLT PUSH2 0x218 JUMPI CALLDATALOAD PUSH4 0xFFFFFFFF PUSH1 0xE0 SHL DUP2 AND DUP1 SWAP2 SUB PUSH2 0x218 JUMPI PUSH1 0x20 SWAP3 POP PUSH4 0x7965DB0B PUSH1 0xE0 SHL DUP2 EQ SWAP1 DUP2 ISZERO PUSH2 0x1474 JUMPI JUMPDEST POP ISZERO ISZERO DUP2 MSTORE RETURN JUMPDEST PUSH4 0x1FFC9A7 PUSH1 0xE0 SHL EQ SWAP1 POP CODESIZE PUSH2 0x146D JUMP JUMPDEST PUSH1 0x4 CALLDATALOAD SWAP1 PUSH1 0x1 PUSH1 0x1 PUSH1 0xA0 SHL SUB DUP3 AND DUP3 SUB PUSH2 0x149B JUMPI JUMP JUMPDEST PUSH1 0x0 DUP1 REVERT JUMPDEST PUSH1 0x24 CALLDATALOAD SWAP1 PUSH1 0x1 PUSH1 0x1 PUSH1 0xA0 SHL SUB DUP3 AND DUP3 SUB PUSH2 0x149B JUMPI JUMP JUMPDEST PUSH1 0x5 SLOAD DUP2 LT ISZERO PUSH2 0x14ED JUMPI PUSH1 0x5 PUSH1 0x0 MSTORE PUSH32 0x36B6384B5ECA791C62761152D0C79BB0604C104A5FB6F4EB0703F3154BB3DB0 ADD SWAP1 PUSH1 0x0 SWAP1 JUMP JUMPDEST PUSH4 0x4E487B71 PUSH1 0xE0 SHL PUSH1 0x0 MSTORE PUSH1 0x32 PUSH1 0x4 MSTORE PUSH1 0x24 PUSH1 0x0 REVERT JUMPDEST CALLER PUSH1 0x0 SWAP1 DUP2 MSTORE PUSH32 0xAD3228B676F7D3CD4284A5443F17F1962B36E491B30A40B2405849E597BA5FB5 PUSH1 0x20 MSTORE PUSH1 0x40 DUP2 KECCAK256 SLOAD PUSH1 0xFF AND ISZERO PUSH2 0x153D JUMPI POP JUMP JUMPDEST PUSH1 0x44 SWAP1 PUSH1 0x40 MLOAD SWAP1 PUSH4 0xE2517D3F PUSH1 0xE0 SHL DUP3 MSTORE CALLER PUSH1 0x4 DUP4 ADD MSTORE PUSH1 0x24 DUP3 ADD MSTORE REVERT JUMPDEST DUP1 PUSH1 0x0 MSTORE PUSH1 0x0 PUSH1 0x20 MSTORE PUSH1 0x40 PUSH1 0x0 KECCAK256 CALLER PUSH1 0x0 MSTORE PUSH1 0x20 MSTORE PUSH1 0xFF PUSH1 0x40 PUSH1 0x0 KECCAK256 SLOAD AND ISZERO PUSH2 0x153D JUMPI POP JUMP JUMPDEST PUSH1 0x1 PUSH1 0x1 PUSH1 0xA0 SHL SUB AND PUSH1 0x0 DUP2 DUP2 MSTORE PUSH32 0x61E7FC3D84368231012C67D50E6FA6AA27AA16ADEA636A17E75EA902E878B6B4 PUSH1 0x20 MSTORE PUSH1 0x40 DUP2 KECCAK256 SLOAD SWAP1 SWAP2 SWAP1 PUSH1 0x0 DUP1 MLOAD PUSH1 0x20 PUSH2 0x19C5 DUP4 CODECOPY DUP2 MLOAD SWAP2 MSTORE SWAP1 PUSH1 0xFF AND PUSH2 0x161C JUMPI DUP1 DUP4 MSTORE DUP3 PUSH1 0x20 MSTORE PUSH1 0x40 DUP4 KECCAK256 DUP3 DUP5 MSTORE PUSH1 0x20 MSTORE PUSH1 0x40 DUP4 KECCAK256 PUSH1 0x1 PUSH1 0xFF NOT DUP3 SLOAD AND OR SWAP1 SSTORE PUSH32 0x2F8788117E7EFF1D82E926EC794901D17C78024A50270940304540A733656F0D CALLER SWAP4 DUP1 LOG4 PUSH1 0x1 SWAP1 JUMP JUMPDEST POP POP SWAP1 JUMP JUMPDEST SWAP1 PUSH1 0x0 SWAP2 DUP1 DUP4 MSTORE DUP3 PUSH1 0x20 MSTORE PUSH1 0x40 DUP4 KECCAK256 SWAP2 PUSH1 0x1 DUP1 PUSH1 0xA0 SHL SUB AND SWAP2 DUP3 DUP5 MSTORE PUSH1 0x20 MSTORE PUSH1 0xFF PUSH1 0x40 DUP5 KECCAK256 SLOAD AND ISZERO PUSH1 0x0 EQ PUSH2 0x161C JUMPI DUP1 DUP4 MSTORE DUP3 PUSH1 0x20 MSTORE PUSH1 0x40 DUP4 KECCAK256 DUP3 DUP5 MSTORE PUSH1 0x20 MSTORE PUSH1 0x40 DUP4 KECCAK256 PUSH1 0x1 PUSH1 0xFF NOT DUP3 SLOAD AND OR SWAP1 SSTORE PUSH32 0x2F8788117E7EFF1D82E926EC794901D17C78024A50270940304540A733656F0D CALLER SWAP4 DUP1 LOG4 PUSH1 0x1 SWAP1 JUMP JUMPDEST SWAP1 PUSH1 0x0 SWAP2 DUP1 DUP4 MSTORE DUP3 PUSH1 0x20 MSTORE PUSH1 0x40 DUP4 KECCAK256 SWAP2 PUSH1 0x1 DUP1 PUSH1 0xA0 SHL SUB AND SWAP2 DUP3 DUP5 MSTORE PUSH1 0x20 MSTORE PUSH1 0xFF PUSH1 0x40 DUP5 KECCAK256 SLOAD AND PUSH1 0x0 EQ PUSH2 0x161C JUMPI DUP1 DUP4 MSTORE DUP3 PUSH1 0x20 MSTORE PUSH1 0x40 DUP4 KECCAK256 DUP3 DUP5 MSTORE PUSH1 0x20 MSTORE PUSH1 0x40 DUP4 KECCAK256 PUSH1 0xFF NOT DUP2 SLOAD AND SWAP1 SSTORE PUSH32 0xF6391F5C32D9C69D2A47EA670B442974B53935D1EDC7FD64EB21E047A839171B CALLER SWAP4 DUP1 LOG4 PUSH1 0x1 SWAP1 JUMP JUMPDEST PUSH1 0xC0 DUP2 ADD SWAP1 DUP2 LT PUSH8 0xFFFFFFFFFFFFFFFF DUP3 GT OR PUSH2 0x172B JUMPI PUSH1 0x40 MSTORE JUMP JUMPDEST PUSH4 0x4E487B71 PUSH1 0xE0 SHL PUSH1 0x0 MSTORE PUSH1 0x41 PUSH1 0x4 MSTORE PUSH1 0x24 PUSH1 0x0 REVERT JUMPDEST PUSH1 0x80 DUP2 ADD SWAP1 DUP2 LT PUSH8 0xFFFFFFFFFFFFFFFF DUP3 GT OR PUSH2 0x172B JUMPI PUSH1 0x40 MSTORE JUMP JUMPDEST SWAP1 PUSH1 0x1F DUP1 NOT SWAP2 ADD AND DUP2 ADD SWAP1 DUP2 LT PUSH8 0xFFFFFFFFFFFFFFFF DUP3 GT OR PUSH2 0x172B JUMPI PUSH1 0x40 MSTORE JUMP JUMPDEST DUP2 DUP2 MUL SWAP3 SWAP2 DUP2 ISZERO SWAP2 DUP5 DIV EQ OR ISZERO PUSH2 0x1792 JUMPI JUMP JUMPDEST PUSH4 0x4E487B71 PUSH1 0xE0 SHL PUSH1 0x0 MSTORE PUSH1 0x11 PUSH1 0x4 MSTORE PUSH1 0x24 PUSH1 0x0 REVERT JUMPDEST DUP2 ISZERO PUSH2 0x17B2 JUMPI DIV SWAP1 JUMP JUMPDEST PUSH4 0x4E487B71 PUSH1 0xE0 SHL PUSH1 0x0 MSTORE PUSH1 0x12 PUSH1 0x4 MSTORE PUSH1 0x24 PUSH1 0x0 REVERT JUMPDEST SWAP2 SWAP1 DUP3 ADD DUP1 SWAP3 GT PUSH2 0x1792 JUMPI JUMP JUMPDEST ISZERO PUSH2 0x17DC JUMPI JUMP JUMPDEST PUSH1 0x40 MLOAD PUSH3 0x461BCD PUSH1 0xE5 SHL DUP2 MSTORE PUSH1 0x20 PUSH1 0x4 DUP3 ADD MSTORE PUSH1 0x2A PUSH1 0x24 DUP3 ADD MSTORE PUSH32 0x506F696E74734D616E616765723A2063616C6C6572206973206E6F7420616972 PUSH1 0x44 DUP3 ADD MSTORE PUSH10 0x323937B81030B236B4B7 PUSH1 0xB1 SHL PUSH1 0x64 DUP3 ADD MSTORE PUSH1 0x84 SWAP1 REVERT JUMPDEST PUSH1 0x0 NOT DUP2 EQ PUSH2 0x1792 JUMPI PUSH1 0x1 ADD SWAP1 JUMP JUMPDEST ISZERO PUSH2 0x184A JUMPI JUMP JUMPDEST PUSH1 0x64 PUSH1 0x40 MLOAD PUSH3 0x461BCD PUSH1 0xE5 SHL DUP2 MSTORE PUSH1 0x20 PUSH1 0x4 DUP3 ADD MSTORE PUSH1 0x20 PUSH1 0x24 DUP3 ADD MSTORE PUSH32 0x506F696E74734D616E616765723A206E6F206163746976652061697264726F70 PUSH1 0x44 DUP3 ADD MSTORE REVERT JUMPDEST SWAP2 PUSH1 0x0 PUSH1 0x20 SWAP2 PUSH1 0x40 MLOAD DUP4 DUP2 ADD SWAP2 PUSH4 0xA9059CBB PUSH1 0xE0 SHL DUP4 MSTORE PUSH1 0x1 DUP1 PUSH1 0xA0 SHL SUB DUP1 SWAP7 AND PUSH1 0x24 DUP4 ADD MSTORE PUSH1 0x44 DUP3 ADD MSTORE PUSH1 0x44 DUP2 MSTORE PUSH2 0x18C6 DUP2 PUSH2 0x1741 JUMP JUMPDEST MLOAD SWAP1 DUP3 DUP7 GAS CALL ISZERO PUSH2 0x190B JUMPI PUSH1 0x0 MLOAD RETURNDATASIZE PUSH2 0x1902 JUMPI POP DUP1 DUP3 AND EXTCODESIZE ISZERO JUMPDEST PUSH2 0x18E8 JUMPI POP POP JUMP JUMPDEST PUSH1 0x40 MLOAD PUSH4 0x5274AFE7 PUSH1 0xE0 SHL DUP2 MSTORE SWAP2 AND PUSH1 0x4 DUP3 ADD MSTORE PUSH1 0x24 SWAP2 POP REVERT JUMPDEST PUSH1 0x1 EQ ISZERO PUSH2 0x18E0 JUMP JUMPDEST PUSH1 0x40 MLOAD RETURNDATASIZE PUSH1 0x0 DUP3 RETURNDATACOPY RETURNDATASIZE SWAP1 REVERT JUMPDEST PUSH1 0xFF PUSH1 0x2 SLOAD AND PUSH2 0x1923 JUMPI JUMP JUMPDEST PUSH1 0x40 MLOAD PUSH4 0xD93C0665 PUSH1 0xE0 SHL DUP2 MSTORE PUSH1 0x4 SWAP1 REVERT JUMPDEST PUSH1 0xFF PUSH1 0xA SLOAD AND ISZERO PUSH2 0x19BE JUMPI PUSH1 0x7 SLOAD TIMESTAMP LT PUSH2 0x19BE JUMPI PUSH1 0x8 SLOAD TIMESTAMP GT PUSH2 0x19BE JUMPI PUSH1 0xB SLOAD SWAP1 PUSH1 0x0 SWAP2 DUP3 MSTORE PUSH1 0xD PUSH1 0x20 MSTORE PUSH1 0x40 DUP3 KECCAK256 SWAP1 PUSH1 0x1 DUP1 PUSH1 0xA0 SHL SUB AND DUP3 MSTORE PUSH1 0x20 MSTORE PUSH1 0xFF PUSH1 0x40 DUP3 KECCAK256 SLOAD AND PUSH2 0x19B1 JUMPI PUSH1 0x9 SLOAD DUP1 ISZERO PUSH2 0x19BA JUMPI PUSH1 0x4 PUSH1 0x20 MSTORE PUSH1 0x2 PUSH1 0x40 DUP4 KECCAK256 ADD SLOAD SWAP2 DUP3 ISZERO PUSH2 0x19B4 JUMPI POP PUSH2 0x19AC PUSH2 0x19B1 SWAP3 PUSH1 0x6 SLOAD SWAP1 PUSH2 0x177F JUMP JUMPDEST PUSH2 0x17A8 JUMP JUMPDEST SWAP1 JUMP JUMPDEST SWAP2 POP POP SWAP1 JUMP JUMPDEST POP SWAP1 JUMP JUMPDEST POP PUSH1 0x0 SWAP1 JUMP INVALID GAS GASPRICE 0xD4 DUP15 AND XOR SELFBALANCE 0xA6 0xBF 0xAD 0xD0 SWAP4 PUSH9 0x11FC7E13936213266E PUSH20 0x3D1AA3E5C9572E4D2BA264697066735822122059 0xE1 EQ CODESIZE 0xE8 PUSH8 0xA205CD495C885107 GASLIMIT 0x22 PUSH18 0x72BF61FFFC841718E1AAFA9DCDFACA64736F PUSH13 0x634300081400332F8788117E7E SELFDESTRUCT SAR DUP3 0xE9 0x26 0xEC PUSH26 0x4901D17C78024A50270940304540A733656F0D00000000000000 "},"methodIdentifiers":{"AIRDROP_ADMIN_ROLE()":"0f855fd6","DEFAULT_ADMIN_ROLE()":"a217fddf","POINTS_OPERATOR_ROLE()":"c1a3e15f","airdropCounter()":"a82734c5","claimAirdrop()":"5b88349d","claimedAmount(uint256,address)":"381e4a05","config()":"79502c55","createAirdrop(uint256,uint256,uint256)":"042179b7","currentAirdrop()":"03f14e96","endAirdrop()":"726b5bad","getClaimableAirdrop(address)":"349cdcc2","getCurrentAirdrop()":"43a4f2ac","getPoints(address)":"ee204abb","getPointsUserCount()":"3ee66bd6","getRoleAdmin(bytes32)":"248a9ca3","getUserPoints(address)":"aeefe31f","grantOperatorRole(address)":"27ac0c58","grantRole(bytes32,address)":"2f2ff15d","hasClaimed(uint256,address)":"873f6f9e","hasClaimedAirdrop(uint256,address)":"ced65280","hasRole(bytes32,address)":"91d14854","nstToken()":"8b63fd4c","pause()":"8456cb59","paused()":"5c975abb","pointsUsers(uint256)":"bcb87e44","recordPoints(address,uint256,string)":"c15eb14d","renounceRole(bytes32,address)":"36568abe","revokeRole(bytes32,address)":"d547741f","setConfig(address)":"20e3dbd4","setNSTToken(address)":"077145c5","supportsInterface(bytes4)":"01ffc9a7","totalClaimedPoints()":"4063c3ec","totalPoints()":"567142be","unpause()":"3f4ba83a","userPoints(address)":"f50ddbc7","withdrawRemainingTokens(address)":"5affbd97"}}}}}