{"contracts/feed/VolumeBasedFeed.sol":{"VolumeBasedFeed":{"abi":[{"inputs":[{"internalType":"address","name":"_config","type":"address"},{"internalType":"address","name":"_usdt","type":"address"},{"internalType":"address","name":"_admin","type":"address"}],"stateMutability":"nonpayable","type":"constructor"},{"inputs":[],"name":"AccessControlBadConfirmation","type":"error"},{"inputs":[{"internalType":"address","name":"account","type":"address"},{"internalType":"bytes32","name":"neededRole","type":"bytes32"}],"name":"AccessControlUnauthorizedAccount","type":"error"},{"inputs":[],"name":"EnforcedPause","type":"error"},{"inputs":[],"name":"ExpectedPause","type":"error"},{"inputs":[],"name":"ReentrancyGuardReentrantCall","type":"error"},{"anonymous":false,"inputs":[{"indexed":false,"internalType":"address","name":"account","type":"address"}],"name":"Paused","type":"event"},{"anonymous":false,"inputs":[{"indexed":true,"internalType":"uint256","name":"requestId","type":"uint256"},{"indexed":true,"internalType":"address","name":"feeder","type":"address"},{"indexed":false,"internalType":"uint256","name":"finalPrice","type":"uint256"},{"indexed":false,"internalType":"uint256","name":"timestamp","type":"uint256"}],"name":"PriceApproved","type":"event"},{"anonymous":false,"inputs":[{"indexed":true,"internalType":"uint256","name":"requestId","type":"uint256"},{"indexed":true,"internalType":"address","name":"feeder","type":"address"},{"indexed":false,"internalType":"uint256","name":"originalPrice","type":"uint256"},{"indexed":false,"internalType":"uint256","name":"modifiedPrice","type":"uint256"},{"indexed":false,"internalType":"string","name":"reason","type":"string"},{"indexed":false,"internalType":"uint256","name":"timestamp","type":"uint256"}],"name":"PriceModified","type":"event"},{"anonymous":false,"inputs":[{"indexed":true,"internalType":"uint256","name":"requestId","type":"uint256"},{"indexed":true,"internalType":"address","name":"feeder","type":"address"},{"indexed":false,"internalType":"enum VolumeBasedFeed.RejectReason","name":"reason","type":"uint8"},{"indexed":false,"internalType":"string","name":"description","type":"string"},{"indexed":false,"internalType":"uint256","name":"timestamp","type":"uint256"}],"name":"PriceRejected","type":"event"},{"anonymous":false,"inputs":[{"indexed":true,"internalType":"uint256","name":"requestId","type":"uint256"},{"indexed":true,"internalType":"uint256","name":"orderId","type":"uint256"},{"indexed":false,"internalType":"string","name":"reason","type":"string"},{"indexed":false,"internalType":"uint256","name":"timestamp","type":"uint256"}],"name":"RefeedRequired","type":"event"},{"anonymous":false,"inputs":[{"indexed":true,"internalType":"uint256","name":"requestId","type":"uint256"},{"indexed":false,"internalType":"uint256","name":"timestamp","type":"uint256"}],"name":"RequestExpired","type":"event"},{"anonymous":false,"inputs":[{"indexed":true,"internalType":"bytes32","name":"role","type":"bytes32"},{"indexed":true,"internalType":"bytes32","name":"previousAdminRole","type":"bytes32"},{"indexed":true,"internalType":"bytes32","name":"newAdminRole","type":"bytes32"}],"name":"RoleAdminChanged","type":"event"},{"anonymous":false,"inputs":[{"indexed":true,"internalType":"bytes32","name":"role","type":"bytes32"},{"indexed":true,"internalType":"address","name":"account","type":"address"},{"indexed":true,"internalType":"address","name":"sender","type":"address"}],"name":"RoleGranted","type":"event"},{"anonymous":false,"inputs":[{"indexed":true,"internalType":"bytes32","name":"role","type":"bytes32"},{"indexed":true,"internalType":"address","name":"account","type":"address"},{"indexed":true,"internalType":"address","name":"sender","type":"address"}],"name":"RoleRevoked","type":"event"},{"anonymous":false,"inputs":[{"indexed":true,"internalType":"uint256","name":"requestId","type":"uint256"},{"indexed":true,"internalType":"uint256","name":"orderId","type":"uint256"},{"indexed":true,"internalType":"address","name":"seller","type":"address"},{"indexed":false,"internalType":"uint256","name":"suggestedPrice","type":"uint256"},{"indexed":false,"internalType":"string","name":"priceEvidence","type":"string"},{"indexed":false,"internalType":"enum FeedType","name":"feedType","type":"uint8"},{"indexed":false,"internalType":"uint256","name":"timestamp","type":"uint256"}],"name":"SuggestedPriceSubmitted","type":"event"},{"anonymous":false,"inputs":[{"indexed":false,"internalType":"address","name":"account","type":"address"}],"name":"Unpaused","type":"event"},{"inputs":[],"name":"DEFAULT_ADMIN_ROLE","outputs":[{"internalType":"bytes32","name":"","type":"bytes32"}],"stateMutability":"view","type":"function"},{"inputs":[],"name":"FEEDER_ROLE","outputs":[{"internalType":"bytes32","name":"","type":"bytes32"}],"stateMutability":"view","type":"function"},{"inputs":[],"name":"FEED_OPERATOR_ROLE","outputs":[{"internalType":"bytes32","name":"","type":"bytes32"}],"stateMutability":"view","type":"function"},{"inputs":[],"name":"PROTOCOL_ROLE","outputs":[{"internalType":"bytes32","name":"","type":"bytes32"}],"stateMutability":"view","type":"function"},{"inputs":[{"internalType":"uint256","name":"requestId","type":"uint256"}],"name":"approvePrice","outputs":[],"stateMutability":"nonpayable","type":"function"},{"inputs":[],"name":"config","outputs":[{"internalType":"contract Config","name":"","type":"address"}],"stateMutability":"view","type":"function"},{"inputs":[{"internalType":"uint256","name":"requestId","type":"uint256"}],"name":"getFinalPrice","outputs":[{"internalType":"uint256","name":"","type":"uint256"},{"internalType":"bool","name":"","type":"bool"}],"stateMutability":"view","type":"function"},{"inputs":[{"internalType":"uint256","name":"orderId","type":"uint256"}],"name":"getOrderVolumeRequests","outputs":[{"internalType":"uint256[]","name":"","type":"uint256[]"}],"stateMutability":"view","type":"function"},{"inputs":[{"internalType":"enum VolumeBasedFeed.RejectReason","name":"reason","type":"uint8"}],"name":"getRejectReasonString","outputs":[{"internalType":"string","name":"","type":"string"}],"stateMutability":"pure","type":"function"},{"inputs":[{"internalType":"uint256","name":"requestId","type":"uint256"}],"name":"getRequest","outputs":[{"components":[{"internalType":"uint256","name":"requestId","type":"uint256"},{"internalType":"uint256","name":"orderId","type":"uint256"},{"internalType":"address","name":"seller","type":"address"},{"internalType":"uint256","name":"suggestedPrice","type":"uint256"},{"internalType":"string","name":"priceEvidence","type":"string"},{"internalType":"uint256","name":"submittedAt","type":"uint256"},{"internalType":"uint256","name":"deadline","type":"uint256"},{"internalType":"bool","name":"isVerified","type":"bool"},{"internalType":"address","name":"verifiedBy","type":"address"},{"internalType":"uint256","name":"finalPrice","type":"uint256"},{"internalType":"enum VolumeBasedFeed.VolumeBasedFeedStatus","name":"status","type":"uint8"},{"internalType":"enum VolumeBasedFeed.RejectReason","name":"rejectReason","type":"uint8"},{"internalType":"string","name":"rejectDescription","type":"string"},{"internalType":"enum FeedType","name":"feedType","type":"uint8"},{"internalType":"bool","name":"isInitialFeed","type":"bool"}],"internalType":"struct VolumeBasedFeed.VolumeBasedFeedRequest","name":"","type":"tuple"}],"stateMutability":"view","type":"function"},{"inputs":[{"internalType":"uint256","name":"requestId","type":"uint256"}],"name":"getRequestStatus","outputs":[{"internalType":"enum VolumeBasedFeed.VolumeBasedFeedStatus","name":"","type":"uint8"}],"stateMutability":"view","type":"function"},{"inputs":[{"internalType":"bytes32","name":"role","type":"bytes32"}],"name":"getRoleAdmin","outputs":[{"internalType":"bytes32","name":"","type":"bytes32"}],"stateMutability":"view","type":"function"},{"inputs":[{"internalType":"address","name":"feeder","type":"address"}],"name":"grantFeederRole","outputs":[],"stateMutability":"nonpayable","type":"function"},{"inputs":[{"internalType":"address[]","name":"feeders","type":"address[]"}],"name":"grantFeederRoleBatch","outputs":[],"stateMutability":"nonpayable","type":"function"},{"inputs":[{"internalType":"address","name":"protocol","type":"address"}],"name":"grantProtocolRole","outputs":[],"stateMutability":"nonpayable","type":"function"},{"inputs":[{"internalType":"bytes32","name":"role","type":"bytes32"},{"internalType":"address","name":"account","type":"address"}],"name":"grantRole","outputs":[],"stateMutability":"nonpayable","type":"function"},{"inputs":[{"internalType":"bytes32","name":"role","type":"bytes32"},{"internalType":"address","name":"account","type":"address"}],"name":"hasRole","outputs":[{"internalType":"bool","name":"","type":"bool"}],"stateMutability":"view","type":"function"},{"inputs":[{"internalType":"uint256","name":"requestId","type":"uint256"}],"name":"isExpired","outputs":[{"internalType":"bool","name":"","type":"bool"}],"stateMutability":"view","type":"function"},{"inputs":[{"internalType":"uint256","name":"requestId","type":"uint256"}],"name":"markExpired","outputs":[],"stateMutability":"nonpayable","type":"function"},{"inputs":[{"internalType":"uint256","name":"requestId","type":"uint256"},{"internalType":"uint256","name":"modifiedPrice","type":"uint256"},{"internalType":"string","name":"reason","type":"string"}],"name":"modifyPrice","outputs":[],"stateMutability":"nonpayable","type":"function"},{"inputs":[],"name":"nextRequestId","outputs":[{"internalType":"uint256","name":"","type":"uint256"}],"stateMutability":"view","type":"function"},{"inputs":[{"internalType":"uint256","name":"","type":"uint256"},{"internalType":"uint256","name":"","type":"uint256"}],"name":"orderVolumeRequests","outputs":[{"internalType":"uint256","name":"","type":"uint256"}],"stateMutability":"view","type":"function"},{"inputs":[],"name":"pause","outputs":[],"stateMutability":"nonpayable","type":"function"},{"inputs":[],"name":"paused","outputs":[{"internalType":"bool","name":"","type":"bool"}],"stateMutability":"view","type":"function"},{"inputs":[{"internalType":"uint256","name":"requestId","type":"uint256"},{"internalType":"enum VolumeBasedFeed.RejectReason","name":"reason","type":"uint8"},{"internalType":"string","name":"description","type":"string"}],"name":"rejectPrice","outputs":[],"stateMutability":"nonpayable","type":"function"},{"inputs":[{"internalType":"bytes32","name":"role","type":"bytes32"},{"internalType":"address","name":"callerConfirmation","type":"address"}],"name":"renounceRole","outputs":[],"stateMutability":"nonpayable","type":"function"},{"inputs":[{"internalType":"uint256","name":"","type":"uint256"}],"name":"requests","outputs":[{"internalType":"uint256","name":"requestId","type":"uint256"},{"internalType":"uint256","name":"orderId","type":"uint256"},{"internalType":"address","name":"seller","type":"address"},{"internalType":"uint256","name":"suggestedPrice","type":"uint256"},{"internalType":"string","name":"priceEvidence","type":"string"},{"internalType":"uint256","name":"submittedAt","type":"uint256"},{"internalType":"uint256","name":"deadline","type":"uint256"},{"internalType":"bool","name":"isVerified","type":"bool"},{"internalType":"address","name":"verifiedBy","type":"address"},{"internalType":"uint256","name":"finalPrice","type":"uint256"},{"internalType":"enum VolumeBasedFeed.VolumeBasedFeedStatus","name":"status","type":"uint8"},{"internalType":"enum VolumeBasedFeed.RejectReason","name":"rejectReason","type":"uint8"},{"internalType":"string","name":"rejectDescription","type":"string"},{"internalType":"enum FeedType","name":"feedType","type":"uint8"},{"internalType":"bool","name":"isInitialFeed","type":"bool"}],"stateMutability":"view","type":"function"},{"inputs":[{"internalType":"address","name":"feeder","type":"address"}],"name":"revokeFeederRole","outputs":[],"stateMutability":"nonpayable","type":"function"},{"inputs":[{"internalType":"bytes32","name":"role","type":"bytes32"},{"internalType":"address","name":"account","type":"address"}],"name":"revokeRole","outputs":[],"stateMutability":"nonpayable","type":"function"},{"inputs":[{"internalType":"address","name":"_config","type":"address"}],"name":"setConfig","outputs":[],"stateMutability":"nonpayable","type":"function"},{"inputs":[{"internalType":"uint256","name":"timeout","type":"uint256"}],"name":"setVerificationTimeout","outputs":[],"stateMutability":"nonpayable","type":"function"},{"inputs":[{"internalType":"uint256","name":"orderId","type":"uint256"},{"internalType":"uint256","name":"suggestedPrice","type":"uint256"},{"internalType":"string","name":"priceEvidence","type":"string"},{"internalType":"enum FeedType","name":"feedType","type":"uint8"},{"internalType":"bool","name":"isInitialFeed","type":"bool"}],"name":"submitSuggestedPrice","outputs":[{"internalType":"uint256","name":"requestId","type":"uint256"}],"stateMutability":"nonpayable","type":"function"},{"inputs":[{"internalType":"bytes4","name":"interfaceId","type":"bytes4"}],"name":"supportsInterface","outputs":[{"internalType":"bool","name":"","type":"bool"}],"stateMutability":"view","type":"function"},{"inputs":[],"name":"unpause","outputs":[],"stateMutability":"nonpayable","type":"function"},{"inputs":[],"name":"usdt","outputs":[{"internalType":"contract IERC20","name":"","type":"address"}],"stateMutability":"view","type":"function"},{"inputs":[],"name":"verificationTimeout","outputs":[{"internalType":"uint256","name":"","type":"uint256"}],"stateMutability":"view","type":"function"}],"evm":{"bytecode":{"linkReferences":{},"object":"608034620000e657601f620026a038819003918201601f19168301916001600160401b03831184841017620000eb57808492606094604052833981010312620000e6578062000052620000d59262000101565b906200006f6040620000676020840162000101565b920162000101565b600180805560045561070860075560028054610100600160a81b03191660089490941b610100600160a81b031693909317909255600380546001600160a01b0319166001600160a01b0392909216919091179055620000ce8162000116565b5062000196565b506040516124479081620002398239f35b600080fd5b634e487b7160e01b600052604160045260246000fd5b51906001600160a01b0382168203620000e657565b6001600160a01b031660008181527fad3228b676f7d3cd4284a5443f17f1962b36e491b30a40b2405849e597ba5fb5602052604081205490919060ff166200019257818052816020526040822081835260205260408220600160ff198254161790553391600080516020620026808339815191528180a4600190565b5090565b6001600160a01b031660008181527fa0cfc50be65892217a92eab74d4b8dca267a17d5b74f05a4a7cdee0906a51faf60205260408120549091907f70b284da8bfc3de812daa2261b4c3ffadd90c2c772295293d09c9629a737a0cd9060ff166200023357808352826020526040832082845260205260408320600160ff1982541617905560008051602062002680833981519152339380a4600190565b50509056fe608080604052600436101561001357600080fd5b60003560e01c90816301ffc9a714611a285750806302768de4146119ed57806309e7c6731461193957806318433a7e146118b757806320e3dbd41461186f578063248a9ca3146118405780632f0165ca146118055780632f2ff15d146117c65780632f48ab7d1461179d57806336568abe146117565780633f4ba83a146116ec57806342ae7b631461152c5780634b554954146114bf578063571dd963146111c957806359a1c35d1461115e5780635c975abb1461113b5780636a84a9851461111d57806377fd00c51461103457806379502c55146110075780637bdb81c714610f9c57806381d12c5814610e685780638456cb5914610e0e5780638a83d7b514610d6857806391d1485414610d1b5780639bd2de801461078f578063a217fddf14610773578063a3c4eed41461072c578063afc1d8cc1461070e578063b7bb5589146105e0578063bc42a9991461059f578063c58343ef14610327578063c7c7b02f146102aa578063ceb2097114610281578063d547741f14610240578063d8a4676f146102055763d9548e53146101ab57600080fd5b34610200576020366003190112610200576004356000526005602052602060406000206006810154421190816101e7575b506040519015158152f35b60ff915060090154166101f981611c50565b15386101dc565b600080fd5b34610200576020366003190112610200576004356000526005602052602060ff600960406000200154166040519061023c81611c50565b8152f35b346102005760403660031901126102005761027f60043561025f611a91565b9080600052600060205261027a600160406000200154611ced565b611f72565b005b346102005760003660031901126102005760206040516000805160206123f28339815191528152f35b346102005760203660031901126102005761027f6102c6611a7b565b6102ce611c95565b7fba279271fb7bbf76a6f3df3cc57bf80647fcafdea60ec3383d90f459de74e7c060009081526020527fbb186cc6582165753931a58fdaac99b9482f9d63c76229808bd3afc382e982165461032290611ced565b611db3565b346102005760203660031901126102005760006101c060405161034981611b0f565b828152826020820152826040820152826060820152606060808201528260a08201528260c08201528260e0820152826101008201528261012082015282610140820152826101608201526060610180820152826101a082015201526004356000526005602052604060002060ff600b604051926103c584611b0f565b805484526001810154602085015260028101546001600160a01b03166040850152600381015460608501526103fc60048201611b6a565b6080850152600581015460a0850152600681015460c08501526007810154838116151560e0860152600890811c6001600160a01b031661010086015281015461012085015260098101548390610453818316611c50565b81811661014087015261046a828260081c16611c50565b60081c16610160850152610480600a8201611b6a565b61018085015201546104988282166101a08501612052565b60081c1615156101c0820152604051809160208252805160208301526020810151604083015260018060a01b036040820151166060830152606081015160808301526101c061057e6104fb60808401516101e060a0870152610200860190611c10565b60a084015160c086015260c084015160e086015260e0840151151561010086015260018060a01b036101008501511661012086015261012084015161014086015261014084015161054b81611c50565b61016086015261016084015161056081611c50565b610180860152610180840151601f19868303016101a0870152611c10565b916105916101a082015183860190611c5a565b015115156101e08301520390f35b34610200576020366003190112610200576004356006811015610200576105c86105dc9161227c565b604051918291602083526020830190611c10565b0390f35b34610200576020806003193601126102005760043580151580610703575b61060790612133565b806000526005825261062d60ff6009604060002001541661062781611c50565b1561217e565b6000805160206123f283398151915260005260008252604060002033600052825261065f60ff604060002054166121d6565b610667612110565b61066f6120f2565b806000526005825260406000209161068d6006840154421115612231565b6007830180546001600160a81b0319163360081b610100600160a81b031617600117905560ff1960016009600386015495866008820155019182541617905560405192835242908301527f112b7d9c9adcc16bbe96e91013df246a4478c2111c56048a75f38a03d305fbd860403393a360018055005b5060045481106105fe565b34610200576000366003190112610200576020600754604051908152f35b34610200576040366003190112610200576024356004356000526006602052604060002080548210156102005760209161076591611c67565b90546040519160031b1c8152f35b3461020057600036600319011261020057602060405160008152f35b346102005760a03660031901126102005760443567ffffffffffffffff8111610200576107c0903690600401611aa7565b6004606435101561020057608435908115158203610200576107e0612110565b6107e86120f2565b6107f56024351515611fe7565b8015610ccb576004549161080883612043565b600455600754420190814211610cb5576040519161082583611b0f565b8483526004356020840152336040840152602435606084015267ffffffffffffffff8411610b8e57604051610864601f8601601f191660200182611b48565b8481523685880111610200578487602083013760006020868301015260808401524260a084015260c0830152600060e0830152600061010083015260006101208301526000610140830152600561016083015260405180602081011067ffffffffffffffff602083011117610b8e5760208101604052600081526101808301526108f46064356101a08401612052565b15156101c0820152826000526005602052604060002081518155602082015160018201556002810160018060a01b036040840151166bffffffffffffffffffffffff60a01b82541617905560608201516003820155608082015180519067ffffffffffffffff8211610b8e57819061097c826109736004870154611ad5565b6004870161205e565b602090601f8311600114610c4357600092610c38575b50508160011b916000199060031b1c19161760048201555b60a0820151600582015560c0820151600682015560e08201516007820180546101008501516001600160a81b031990911660ff931515841617600891821b610100600160a81b03161790915561012084015190830155610140830151610a429160098401919060ff19610a1c83611c50565b610a2583611c50565b835416911617815561016084015190610a3d82611c50565b6120b2565b61018082015180519067ffffffffffffffff8211610b8e57610a7482610a6b600a860154611ad5565b600a860161205e565b602090601f8311600114610bc557600b93929160009183610bba575b50508160011b916000199060031b1c191617600a8201555b01906101a0810151906004821015610ba45760ff61ff006101c08554930151151560081b1692169061ffff191617179055600435600052600660205260406000209283549068010000000000000000821015610b8e57610b13826020966001610b4195018155611c67565b81549060031b9086821b91600019901b191617905560405192602435845260808685015260808401916120d1565b610b5060408301606435611c5a565b426060830152827faff7119f7cb06e0e6684a18e0d8a8dcafb8e1e35dfeb2a0eaa4d9e17c7f2d51c339380600435940390a460018055604051908152f35b634e487b7160e01b600052604160045260246000fd5b634e487b7160e01b600052602160045260246000fd5b015190508880610a90565b90600a840160005260206000209160005b601f1985168110610c205750918391600193600b9695601f19811610610c07575b505050811b01600a820155610aa8565b015160001960f88460031b161c19169055888080610bf7565b91926020600181928685015181550194019201610bd6565b015190508780610992565b9250600484016000526020600020906000935b601f1984168510610c9a576001945083601f19811610610c81575b505050811b0160048201556109aa565b015160001960f88460031b161c19169055878080610c71565b81810151835560209485019460019093019290910190610c56565b634e487b7160e01b600052601160045260246000fd5b60405162461bcd60e51b815260206004820152602260248201527f566f6c756d654261736564466565643a2065766964656e636520726571756972604482015261195960f21b6064820152608490fd5b3461020057604036600319011261020057610d34611a91565b600435600052600060205260406000209060018060a01b0316600052602052602060ff604060002054166040519015158152f35b34610200576020806003193601126102005760043560005260068152604060002060405190818382549182815201908192600052846000209060005b86828210610dfa578686610dba82880383611b48565b604051928392818401908285525180915260408401929160005b828110610de357505050500390f35b835185528695509381019392810192600101610dd4565b835485529093019260019283019201610da4565b3461020057600036600319011261020057610e27611c95565b610e2f6120f2565b600160ff1960025416176002557f62e78cea01bee320cd4e420270b5ea74000d11b0c9f74754ebdbfc544b05a2586020604051338152a1005b3461020057602036600319011261020057600435600052600560205260406000208054600182015491600160a01b6001900360028201541690600381015460048201610eb390611b6a565b6005830154916006840154600785015460088601549160098701549460ff861694600a8901610ee190611b6a565b98600b0154996040519c8d9c8d5260208d015260408c015260608b01526101e08060808c01528a01610f1291611c10565b60a08a019690965260c089015260ff8116151560e089015260081c6001600160a01b0316610100880152610120870152610f4b81611c50565b61014086015260081c60ff16610f6081611c50565b610160850152838103610180850152610f7891611c10565b90610f8a6101a0840160ff8316611c5a565b60081c60ff1615156101c08301520390f35b346102005760203660031901126102005761027f610fb8611a7b565b610fc0611c95565b6000805160206123f283398151915260009081526020527ff3df2cad0328610bdabaaa4666352f9e79b67a748d22942cd8aec92e2fbda4b85461100290611ced565b611ed9565b346102005760003660031901126102005760025460405160089190911c6001600160a01b03168152602090f35b3461020057602080600319360112610200576004359081151580611112575b61105c90612133565b816000526005815261107c60ff6009604060002001541661062781611c50565b8160005260058152604060002060068101544211156110cf57600901805460ff191660041790556040514281527f6bdd24364ea257bc2fc44b73a2b568ad948e3a1e4e7a2a26fe3443f117dd7ea69190a2005b6064826040519062461bcd60e51b825280600483015260248201527f566f6c756d654261736564466565643a206e6f742065787069726564207965746044820152fd5b506004548210611053565b34610200576000366003190112610200576020600454604051908152f35b3461020057600036600319011261020057602060ff600254166040519015158152f35b346102005760203660031901126102005761027f61117a611a7b565b611182611c95565b6000805160206123f283398151915260009081526020527ff3df2cad0328610bdabaaa4666352f9e79b67a748d22942cd8aec92e2fbda4b8546111c490611ced565b611d13565b346102005760603660031901126102005760043560243560068110156102005767ffffffffffffffff906044358281116102005761120b903690600401611aa7565b8491941515806114b4575b61121f90612133565b816000526020926005845261124260ff6009604060002001541661062781611c50565b6000805160206123f283398151915260005260008452604060002033600052845261127460ff604060002054166121d6565b61127c612110565b6112846120f2565b82600052600584526040600020916112a26006840154421115612231565b6007830180546001600160a81b0319163360081b610100600160a81b0316176001908117909155956112e38360ff19600260098801918254161781556120b2565b600a8401908211610b8e57611302826112fc8354611ad5565b8361205e565b6000601f8311600114611427578798837f7c3675bbce43bcac670aeb7638c82a769aba3ec3e168677f73537e2b3cef0e839388999a98956113779460009161141c575b50600019600384901b1c1916828a1b1790555b6040519561136581611c50565b865260608a87015260608601916120d1565b924260408201528033940390a360ff600b82015460081c161561139957508055005b7f1b1bad35d7eb8e3b80160d50398a5b0ffe5116e655503008c421609111b39fde9160a0910154936040519060408252603060408301527f566f6c756d652d626173656420666565642072656a65637465642c207265717560608301526f1a5c995cc81b9bdc9b585b081999595960821b60808301524290820152a38180828055005b90508301358d611345565b601f1983169082600052876000209160005b81811061149f5750937f7c3675bbce43bcac670aeb7638c82a769aba3ec3e168677f73537e2b3cef0e8393611377938b9c93838b9c9d9b9810611485575b50508882811b019055611358565b840135600019600385901b60f8161c191690558c80611477565b8b8301358455928a0192918901918901611439565b506004548210611216565b3461020057602036600319011261020057600435600052600560205260408060002060ff600982015416906114f382611c50565b60018214918215611513575b506008015490825191825215156020820152f35b600891925080611524600392611c50565b1491906114ff565b346102005760603660031901126102005760243560043560443567ffffffffffffffff811161020057611563903690600401611aa7565b821515806116e1575b61157590612133565b826000526020936005855261159860ff6009604060002001541661062781611c50565b6000805160206123f28339815191526000526000855260406000203360005285526115ca60ff604060002054166121d6565b6115d2612110565b6115da6120f2565b6115e5811515611fe7565b811561169e579161168b917f8027137d6886c250b29232e541e4fd484e1e1e0864e818dbc77c2cf5c89cda829385600052600587526040600020966116306006890154421115612231565b60038881015460078a0180546001600160a81b0319163360081b610100600160a81b03161760011790559860ff19919060099085600882015501918254161790556040519788528701526080604087015260808601916120d1565b924260608201528033940390a360018055005b6064856040519062461bcd60e51b825280600483015260248201527f566f6c756d654261736564466565643a20726561736f6e2072657175697265646044820152fd5b50600454831061156c565b3461020057600036600319011261020057611705611c95565b60025460ff8116156117445760ff19166002557f5db9ee0a495bf2e6ff9c91a7834c1ba4fdd244a5e8aa4e537bd38aeae4b073aa6020604051338152a1005b604051638dfc202b60e01b8152600490fd5b346102005760403660031901126102005761176f611a91565b336001600160a01b0382160361178b5761027f90600435611f72565b60405163334bd91960e11b8152600490fd5b34610200576000366003190112610200576003546040516001600160a01b039091168152602090f35b346102005760403660031901126102005761027f6004356117e5611a91565b90806000526000602052611800600160406000200154611ced565b611e60565b346102005760003660031901126102005760206040517f70b284da8bfc3de812daa2261b4c3ffadd90c2c772295293d09c9629a737a0cd8152f35b346102005760203660031901126102005760043560005260006020526020600160406000200154604051908152f35b3461020057602036600319011261020057611888611a7b565b611890611c95565b60028054610100600160a81b03191660089290921b610100600160a81b0316919091179055005b34610200576020366003190112610200576004356118d3611c95565b6102588110158061192d575b156118e957600755005b606460405162461bcd60e51b815260206004820152602060248201527f566f6c756d654261736564466565643a20696e76616c69642074696d656f75746044820152fd5b50611c208111156118df565b34610200576020806003193601126102005767ffffffffffffffff6004358181116102005736602382011215610200578060040135918211610200576024906005368385831b840101116102005761198f611c95565b60005b84811061199b57005b80821b8301840135906001600160a01b0382168203610200576119e26119e8926000805160206123f2833981519152600052600089526111c4600160406000200154611ced565b50612043565b611992565b346102005760003660031901126102005760206040517fba279271fb7bbf76a6f3df3cc57bf80647fcafdea60ec3383d90f459de74e7c08152f35b34610200576020366003190112610200576004359063ffffffff60e01b821680920361020057602091637965db0b60e01b8114908115611a6a575b5015158152f35b6301ffc9a760e01b14905083611a63565b600435906001600160a01b038216820361020057565b602435906001600160a01b038216820361020057565b9181601f840112156102005782359167ffffffffffffffff8311610200576020838186019501011161020057565b90600182811c92168015611b05575b6020831014611aef57565b634e487b7160e01b600052602260045260246000fd5b91607f1691611ae4565b6101e0810190811067ffffffffffffffff821117610b8e57604052565b6040810190811067ffffffffffffffff821117610b8e57604052565b90601f8019910116810190811067ffffffffffffffff821117610b8e57604052565b9060405191826000825492611b7e84611ad5565b908184526001948581169081600014611bed5750600114611baa575b5050611ba892500383611b48565b565b9093915060005260209081600020936000915b818310611bd5575050611ba893508201013880611b9a565b85548884018501529485019487945091830191611bbd565b915050611ba894506020925060ff191682840152151560051b8201013880611b9a565b919082519283825260005b848110611c3c575050826000602080949584010152601f8019910116010190565b602081830181015184830182015201611c1b565b60061115610ba457565b906004821015610ba45752565b8054821015611c7f5760005260206000200190600090565b634e487b7160e01b600052603260045260246000fd5b3360009081527fad3228b676f7d3cd4284a5443f17f1962b36e491b30a40b2405849e597ba5fb5602052604081205460ff1615611ccf5750565b6044906040519063e2517d3f60e01b82523360048301526024820152fd5b80600052600060205260406000203360005260205260ff6040600020541615611ccf5750565b6001600160a01b031660008181527ff3df2cad0328610bdabaaa4666352f9e79b67a748d22942cd8aec92e2fbda4b760205260408120549091906000805160206123f28339815191529060ff16611dae57808352826020526040832082845260205260408320600160ff198254161790557f2f8788117e7eff1d82e926ec794901d17c78024a50270940304540a733656f0d339380a4600190565b505090565b6001600160a01b031660008181527fbb186cc6582165753931a58fdaac99b9482f9d63c76229808bd3afc382e9821560205260408120549091907fba279271fb7bbf76a6f3df3cc57bf80647fcafdea60ec3383d90f459de74e7c09060ff16611dae57808352826020526040832082845260205260408320600160ff198254161790557f2f8788117e7eff1d82e926ec794901d17c78024a50270940304540a733656f0d339380a4600190565b9060009180835282602052604083209160018060a01b03169182845260205260ff60408420541615600014611dae57808352826020526040832082845260205260408320600160ff198254161790557f2f8788117e7eff1d82e926ec794901d17c78024a50270940304540a733656f0d339380a4600190565b6001600160a01b031660008181527ff3df2cad0328610bdabaaa4666352f9e79b67a748d22942cd8aec92e2fbda4b760205260408120549091906000805160206123f28339815191529060ff1615611dae5780835282602052604083208284526020526040832060ff1981541690557ff6391f5c32d9c69d2a47ea670b442974b53935d1edc7fd64eb21e047a839171b339380a4600190565b9060009180835282602052604083209160018060a01b03169182845260205260ff604084205416600014611dae5780835282602052604083208284526020526040832060ff1981541690557ff6391f5c32d9c69d2a47ea670b442974b53935d1edc7fd64eb21e047a839171b339380a4600190565b15611fee57565b60405162461bcd60e51b815260206004820152602760248201527f566f6c756d654261736564466565643a207072696365206d75737420626520706044820152666f73697469766560c81b6064820152608490fd5b6000198114610cb55760010190565b6004821015610ba45752565b90601f811161206c57505050565b600091825260208220906020601f850160051c830194106120a8575b601f0160051c01915b82811061209d57505050565b818155600101612091565b9092508290612088565b906120bc81611c50565b61ff0082549160081b169061ff001916179055565b908060209392818452848401376000828201840152601f01601f1916010190565b60ff600254166120fe57565b60405163d93c066560e01b8152600490fd5b600260015414612121576002600155565b604051633ee5aeb560e01b8152600490fd5b1561213a57565b606460405162461bcd60e51b815260206004820152602060248201527f566f6c756d654261736564466565643a20696e76616c696420726571756573746044820152fd5b1561218557565b60405162461bcd60e51b8152602060048201526024808201527f566f6c756d654261736564466565643a2072657175657374206e6f742070656e60448201526364696e6760e01b6064820152608490fd5b156121dd57565b60405162461bcd60e51b815260206004820152602660248201527f566f6c756d654261736564466565643a206e6f7420617574686f72697a6564206044820152653332b2b232b960d11b6064820152608490fd5b1561223857565b606460405162461bcd60e51b815260206004820152602060248201527f566f6c756d654261736564466565643a207265717565737420657870697265646044820152fd5b61228581611c50565b80156123bf5761229481611c50565b60018114612385576122a581611c50565b60028114612358576122b681611c50565b6003811461232857806122ca600492611c50565b146122f7576040516122db81611b2c565b600c81526b27ba3432b9103932b0b9b7b760a11b602082015290565b60405161230381611b2c565b6015815274507269636520697320756e726561736f6e61626c6560581b602082015290565b5060405161233581611b2c565b60138152725072696365206e6f7420617661696c61626c6560681b602082015290565b5060405161236581611b2c565b601081526f13585c9ad95d081a5cc818db1bdcd95960821b602082015290565b5060405161239281611b2c565b601b81527f4e6f2074726164696e6720766f6c756d6520617661696c61626c650000000000602082015290565b506040516123cc81611b2c565b6015815274150ad60818dbdb991a5d1a5bdb881b9bdd081b595d605a1b60208201529056fe80a586cc4ecf40a390b370be075aa38ab3cc512c5c1a7bc1007974dbdf2663c7a2646970667358221220f9549625ada3c17bd9b89c1ec398a916285c16e775fecacfdb2f9d4c99c9e92764736f6c634300081400332f8788117e7eff1d82e926ec794901d17c78024a50270940304540a733656f0d","opcodes":"PUSH1 0x80 CALLVALUE PUSH3 0xE6 JUMPI PUSH1 0x1F PUSH3 0x26A0 CODESIZE DUP2 SWAP1 SUB SWAP2 DUP3 ADD PUSH1 0x1F NOT AND DUP4 ADD SWAP2 PUSH1 0x1 PUSH1 0x1 PUSH1 0x40 SHL SUB DUP4 GT DUP5 DUP5 LT OR PUSH3 0xEB JUMPI DUP1 DUP5 SWAP3 PUSH1 0x60 SWAP5 PUSH1 0x40 MSTORE DUP4 CODECOPY DUP2 ADD SUB SLT PUSH3 0xE6 JUMPI DUP1 PUSH3 0x52 PUSH3 0xD5 SWAP3 PUSH3 0x101 JUMP JUMPDEST SWAP1 PUSH3 0x6F PUSH1 0x40 PUSH3 0x67 PUSH1 0x20 DUP5 ADD PUSH3 0x101 JUMP JUMPDEST SWAP3 ADD PUSH3 0x101 JUMP JUMPDEST PUSH1 0x1 DUP1 DUP1 SSTORE PUSH1 0x4 SSTORE PUSH2 0x708 PUSH1 0x7 SSTORE PUSH1 0x2 DUP1 SLOAD PUSH2 0x100 PUSH1 0x1 PUSH1 0xA8 SHL SUB NOT AND PUSH1 0x8 SWAP5 SWAP1 SWAP5 SHL PUSH2 0x100 PUSH1 0x1 PUSH1 0xA8 SHL SUB AND SWAP4 SWAP1 SWAP4 OR SWAP1 SWAP3 SSTORE PUSH1 0x3 DUP1 SLOAD PUSH1 0x1 PUSH1 0x1 PUSH1 0xA0 SHL SUB NOT AND PUSH1 0x1 PUSH1 0x1 PUSH1 0xA0 SHL SUB SWAP3 SWAP1 SWAP3 AND SWAP2 SWAP1 SWAP2 OR SWAP1 SSTORE PUSH3 0xCE DUP2 PUSH3 0x116 JUMP JUMPDEST POP PUSH3 0x196 JUMP JUMPDEST POP PUSH1 0x40 MLOAD PUSH2 0x2447 SWAP1 DUP2 PUSH3 0x239 DUP3 CODECOPY RETURN JUMPDEST PUSH1 0x0 DUP1 REVERT JUMPDEST PUSH4 0x4E487B71 PUSH1 0xE0 SHL PUSH1 0x0 MSTORE PUSH1 0x41 PUSH1 0x4 MSTORE PUSH1 0x24 PUSH1 0x0 REVERT JUMPDEST MLOAD SWAP1 PUSH1 0x1 PUSH1 0x1 PUSH1 0xA0 SHL SUB DUP3 AND DUP3 SUB PUSH3 0xE6 JUMPI JUMP JUMPDEST PUSH1 0x1 PUSH1 0x1 PUSH1 0xA0 SHL SUB AND PUSH1 0x0 DUP2 DUP2 MSTORE PUSH32 0xAD3228B676F7D3CD4284A5443F17F1962B36E491B30A40B2405849E597BA5FB5 PUSH1 0x20 MSTORE PUSH1 0x40 DUP2 KECCAK256 SLOAD SWAP1 SWAP2 SWAP1 PUSH1 0xFF AND PUSH3 0x192 JUMPI DUP2 DUP1 MSTORE DUP2 PUSH1 0x20 MSTORE PUSH1 0x40 DUP3 KECCAK256 DUP2 DUP4 MSTORE PUSH1 0x20 MSTORE PUSH1 0x40 DUP3 KECCAK256 PUSH1 0x1 PUSH1 0xFF NOT DUP3 SLOAD AND OR SWAP1 SSTORE CALLER SWAP2 PUSH1 0x0 DUP1 MLOAD PUSH1 0x20 PUSH3 0x2680 DUP4 CODECOPY DUP2 MLOAD SWAP2 MSTORE DUP2 DUP1 LOG4 PUSH1 0x1 SWAP1 JUMP JUMPDEST POP SWAP1 JUMP JUMPDEST PUSH1 0x1 PUSH1 0x1 PUSH1 0xA0 SHL SUB AND PUSH1 0x0 DUP2 DUP2 MSTORE PUSH32 0xA0CFC50BE65892217A92EAB74D4B8DCA267A17D5B74F05A4A7CDEE0906A51FAF PUSH1 0x20 MSTORE PUSH1 0x40 DUP2 KECCAK256 SLOAD SWAP1 SWAP2 SWAP1 PUSH32 0x70B284DA8BFC3DE812DAA2261B4C3FFADD90C2C772295293D09C9629A737A0CD SWAP1 PUSH1 0xFF AND PUSH3 0x233 JUMPI DUP1 DUP4 MSTORE DUP3 PUSH1 0x20 MSTORE PUSH1 0x40 DUP4 KECCAK256 DUP3 DUP5 MSTORE PUSH1 0x20 MSTORE PUSH1 0x40 DUP4 KECCAK256 PUSH1 0x1 PUSH1 0xFF NOT DUP3 SLOAD AND OR SWAP1 SSTORE PUSH1 0x0 DUP1 MLOAD PUSH1 0x20 PUSH3 0x2680 DUP4 CODECOPY DUP2 MLOAD SWAP2 MSTORE CALLER SWAP4 DUP1 LOG4 PUSH1 0x1 SWAP1 JUMP JUMPDEST POP POP SWAP1 JUMP INVALID PUSH1 0x80 DUP1 PUSH1 0x40 MSTORE PUSH1 0x4 CALLDATASIZE LT ISZERO PUSH2 0x13 JUMPI PUSH1 0x0 DUP1 REVERT JUMPDEST PUSH1 0x0 CALLDATALOAD PUSH1 0xE0 SHR SWAP1 DUP2 PUSH4 0x1FFC9A7 EQ PUSH2 0x1A28 JUMPI POP DUP1 PUSH4 0x2768DE4 EQ PUSH2 0x19ED JUMPI DUP1 PUSH4 0x9E7C673 EQ PUSH2 0x1939 JUMPI DUP1 PUSH4 0x18433A7E EQ PUSH2 0x18B7 JUMPI DUP1 PUSH4 0x20E3DBD4 EQ PUSH2 0x186F JUMPI DUP1 PUSH4 0x248A9CA3 EQ PUSH2 0x1840 JUMPI DUP1 PUSH4 0x2F0165CA EQ PUSH2 0x1805 JUMPI DUP1 PUSH4 0x2F2FF15D EQ PUSH2 0x17C6 JUMPI DUP1 PUSH4 0x2F48AB7D EQ PUSH2 0x179D JUMPI DUP1 PUSH4 0x36568ABE EQ PUSH2 0x1756 JUMPI DUP1 PUSH4 0x3F4BA83A EQ PUSH2 0x16EC JUMPI DUP1 PUSH4 0x42AE7B63 EQ PUSH2 0x152C JUMPI DUP1 PUSH4 0x4B554954 EQ PUSH2 0x14BF JUMPI DUP1 PUSH4 0x571DD963 EQ PUSH2 0x11C9 JUMPI DUP1 PUSH4 0x59A1C35D EQ PUSH2 0x115E JUMPI DUP1 PUSH4 0x5C975ABB EQ PUSH2 0x113B JUMPI DUP1 PUSH4 0x6A84A985 EQ PUSH2 0x111D JUMPI DUP1 PUSH4 0x77FD00C5 EQ PUSH2 0x1034 JUMPI DUP1 PUSH4 0x79502C55 EQ PUSH2 0x1007 JUMPI DUP1 PUSH4 0x7BDB81C7 EQ PUSH2 0xF9C JUMPI DUP1 PUSH4 0x81D12C58 EQ PUSH2 0xE68 JUMPI DUP1 PUSH4 0x8456CB59 EQ PUSH2 0xE0E JUMPI DUP1 PUSH4 0x8A83D7B5 EQ PUSH2 0xD68 JUMPI DUP1 PUSH4 0x91D14854 EQ PUSH2 0xD1B JUMPI DUP1 PUSH4 0x9BD2DE80 EQ PUSH2 0x78F JUMPI DUP1 PUSH4 0xA217FDDF EQ PUSH2 0x773 JUMPI DUP1 PUSH4 0xA3C4EED4 EQ PUSH2 0x72C JUMPI DUP1 PUSH4 0xAFC1D8CC EQ PUSH2 0x70E JUMPI DUP1 PUSH4 0xB7BB5589 EQ PUSH2 0x5E0 JUMPI DUP1 PUSH4 0xBC42A999 EQ PUSH2 0x59F JUMPI DUP1 PUSH4 0xC58343EF EQ PUSH2 0x327 JUMPI DUP1 PUSH4 0xC7C7B02F EQ PUSH2 0x2AA JUMPI DUP1 PUSH4 0xCEB20971 EQ PUSH2 0x281 JUMPI DUP1 PUSH4 0xD547741F EQ PUSH2 0x240 JUMPI DUP1 PUSH4 0xD8A4676F EQ PUSH2 0x205 JUMPI PUSH4 0xD9548E53 EQ PUSH2 0x1AB JUMPI PUSH1 0x0 DUP1 REVERT JUMPDEST CALLVALUE PUSH2 0x200 JUMPI PUSH1 0x20 CALLDATASIZE PUSH1 0x3 NOT ADD SLT PUSH2 0x200 JUMPI PUSH1 0x4 CALLDATALOAD PUSH1 0x0 MSTORE PUSH1 0x5 PUSH1 0x20 MSTORE PUSH1 0x20 PUSH1 0x40 PUSH1 0x0 KECCAK256 PUSH1 0x6 DUP2 ADD SLOAD TIMESTAMP GT SWAP1 DUP2 PUSH2 0x1E7 JUMPI JUMPDEST POP PUSH1 0x40 MLOAD SWAP1 ISZERO ISZERO DUP2 MSTORE RETURN JUMPDEST PUSH1 0xFF SWAP2 POP PUSH1 0x9 ADD SLOAD AND PUSH2 0x1F9 DUP2 PUSH2 0x1C50 JUMP JUMPDEST ISZERO CODESIZE PUSH2 0x1DC JUMP JUMPDEST PUSH1 0x0 DUP1 REVERT JUMPDEST CALLVALUE PUSH2 0x200 JUMPI PUSH1 0x20 CALLDATASIZE PUSH1 0x3 NOT ADD SLT PUSH2 0x200 JUMPI PUSH1 0x4 CALLDATALOAD PUSH1 0x0 MSTORE PUSH1 0x5 PUSH1 0x20 MSTORE PUSH1 0x20 PUSH1 0xFF PUSH1 0x9 PUSH1 0x40 PUSH1 0x0 KECCAK256 ADD SLOAD AND PUSH1 0x40 MLOAD SWAP1 PUSH2 0x23C DUP2 PUSH2 0x1C50 JUMP JUMPDEST DUP2 MSTORE RETURN JUMPDEST CALLVALUE PUSH2 0x200 JUMPI PUSH1 0x40 CALLDATASIZE PUSH1 0x3 NOT ADD SLT PUSH2 0x200 JUMPI PUSH2 0x27F PUSH1 0x4 CALLDATALOAD PUSH2 0x25F PUSH2 0x1A91 JUMP JUMPDEST SWAP1 DUP1 PUSH1 0x0 MSTORE PUSH1 0x0 PUSH1 0x20 MSTORE PUSH2 0x27A PUSH1 0x1 PUSH1 0x40 PUSH1 0x0 KECCAK256 ADD SLOAD PUSH2 0x1CED JUMP JUMPDEST PUSH2 0x1F72 JUMP JUMPDEST STOP JUMPDEST CALLVALUE PUSH2 0x200 JUMPI PUSH1 0x0 CALLDATASIZE PUSH1 0x3 NOT ADD SLT PUSH2 0x200 JUMPI PUSH1 0x20 PUSH1 0x40 MLOAD PUSH1 0x0 DUP1 MLOAD PUSH1 0x20 PUSH2 0x23F2 DUP4 CODECOPY DUP2 MLOAD SWAP2 MSTORE DUP2 MSTORE RETURN JUMPDEST CALLVALUE PUSH2 0x200 JUMPI PUSH1 0x20 CALLDATASIZE PUSH1 0x3 NOT ADD SLT PUSH2 0x200 JUMPI PUSH2 0x27F PUSH2 0x2C6 PUSH2 0x1A7B JUMP JUMPDEST PUSH2 0x2CE PUSH2 0x1C95 JUMP JUMPDEST PUSH32 0xBA279271FB7BBF76A6F3DF3CC57BF80647FCAFDEA60EC3383D90F459DE74E7C0 PUSH1 0x0 SWAP1 DUP2 MSTORE PUSH1 0x20 MSTORE PUSH32 0xBB186CC6582165753931A58FDAAC99B9482F9D63C76229808BD3AFC382E98216 SLOAD PUSH2 0x322 SWAP1 PUSH2 0x1CED JUMP JUMPDEST PUSH2 0x1DB3 JUMP JUMPDEST CALLVALUE PUSH2 0x200 JUMPI PUSH1 0x20 CALLDATASIZE PUSH1 0x3 NOT ADD SLT PUSH2 0x200 JUMPI PUSH1 0x0 PUSH2 0x1C0 PUSH1 0x40 MLOAD PUSH2 0x349 DUP2 PUSH2 0x1B0F JUMP JUMPDEST DUP3 DUP2 MSTORE DUP3 PUSH1 0x20 DUP3 ADD MSTORE DUP3 PUSH1 0x40 DUP3 ADD MSTORE DUP3 PUSH1 0x60 DUP3 ADD MSTORE PUSH1 0x60 PUSH1 0x80 DUP3 ADD MSTORE DUP3 PUSH1 0xA0 DUP3 ADD MSTORE DUP3 PUSH1 0xC0 DUP3 ADD MSTORE DUP3 PUSH1 0xE0 DUP3 ADD MSTORE DUP3 PUSH2 0x100 DUP3 ADD MSTORE DUP3 PUSH2 0x120 DUP3 ADD MSTORE DUP3 PUSH2 0x140 DUP3 ADD MSTORE DUP3 PUSH2 0x160 DUP3 ADD MSTORE PUSH1 0x60 PUSH2 0x180 DUP3 ADD MSTORE DUP3 PUSH2 0x1A0 DUP3 ADD MSTORE ADD MSTORE PUSH1 0x4 CALLDATALOAD PUSH1 0x0 MSTORE PUSH1 0x5 PUSH1 0x20 MSTORE PUSH1 0x40 PUSH1 0x0 KECCAK256 PUSH1 0xFF PUSH1 0xB PUSH1 0x40 MLOAD SWAP3 PUSH2 0x3C5 DUP5 PUSH2 0x1B0F JUMP JUMPDEST DUP1 SLOAD DUP5 MSTORE PUSH1 0x1 DUP2 ADD SLOAD PUSH1 0x20 DUP6 ADD MSTORE PUSH1 0x2 DUP2 ADD SLOAD PUSH1 0x1 PUSH1 0x1 PUSH1 0xA0 SHL SUB AND PUSH1 0x40 DUP6 ADD MSTORE PUSH1 0x3 DUP2 ADD SLOAD PUSH1 0x60 DUP6 ADD MSTORE PUSH2 0x3FC PUSH1 0x4 DUP3 ADD PUSH2 0x1B6A JUMP JUMPDEST PUSH1 0x80 DUP6 ADD MSTORE PUSH1 0x5 DUP2 ADD SLOAD PUSH1 0xA0 DUP6 ADD MSTORE PUSH1 0x6 DUP2 ADD SLOAD PUSH1 0xC0 DUP6 ADD MSTORE PUSH1 0x7 DUP2 ADD SLOAD DUP4 DUP2 AND ISZERO ISZERO PUSH1 0xE0 DUP7 ADD MSTORE PUSH1 0x8 SWAP1 DUP2 SHR PUSH1 0x1 PUSH1 0x1 PUSH1 0xA0 SHL SUB AND PUSH2 0x100 DUP7 ADD MSTORE DUP2 ADD SLOAD PUSH2 0x120 DUP6 ADD MSTORE PUSH1 0x9 DUP2 ADD SLOAD DUP4 SWAP1 PUSH2 0x453 DUP2 DUP4 AND PUSH2 0x1C50 JUMP JUMPDEST DUP2 DUP2 AND PUSH2 0x140 DUP8 ADD MSTORE PUSH2 0x46A DUP3 DUP3 PUSH1 0x8 SHR AND PUSH2 0x1C50 JUMP JUMPDEST PUSH1 0x8 SHR AND PUSH2 0x160 DUP6 ADD MSTORE PUSH2 0x480 PUSH1 0xA DUP3 ADD PUSH2 0x1B6A JUMP JUMPDEST PUSH2 0x180 DUP6 ADD MSTORE ADD SLOAD PUSH2 0x498 DUP3 DUP3 AND PUSH2 0x1A0 DUP6 ADD PUSH2 0x2052 JUMP JUMPDEST PUSH1 0x8 SHR AND ISZERO ISZERO PUSH2 0x1C0 DUP3 ADD MSTORE PUSH1 0x40 MLOAD DUP1 SWAP2 PUSH1 0x20 DUP3 MSTORE DUP1 MLOAD PUSH1 0x20 DUP4 ADD MSTORE PUSH1 0x20 DUP2 ADD MLOAD PUSH1 0x40 DUP4 ADD MSTORE PUSH1 0x1 DUP1 PUSH1 0xA0 SHL SUB PUSH1 0x40 DUP3 ADD MLOAD AND PUSH1 0x60 DUP4 ADD MSTORE PUSH1 0x60 DUP2 ADD MLOAD PUSH1 0x80 DUP4 ADD MSTORE PUSH2 0x1C0 PUSH2 0x57E PUSH2 0x4FB PUSH1 0x80 DUP5 ADD MLOAD PUSH2 0x1E0 PUSH1 0xA0 DUP8 ADD MSTORE PUSH2 0x200 DUP7 ADD SWAP1 PUSH2 0x1C10 JUMP JUMPDEST PUSH1 0xA0 DUP5 ADD MLOAD PUSH1 0xC0 DUP7 ADD MSTORE PUSH1 0xC0 DUP5 ADD MLOAD PUSH1 0xE0 DUP7 ADD MSTORE PUSH1 0xE0 DUP5 ADD MLOAD ISZERO ISZERO PUSH2 0x100 DUP7 ADD MSTORE PUSH1 0x1 DUP1 PUSH1 0xA0 SHL SUB PUSH2 0x100 DUP6 ADD MLOAD AND PUSH2 0x120 DUP7 ADD MSTORE PUSH2 0x120 DUP5 ADD MLOAD PUSH2 0x140 DUP7 ADD MSTORE PUSH2 0x140 DUP5 ADD MLOAD PUSH2 0x54B DUP2 PUSH2 0x1C50 JUMP JUMPDEST PUSH2 0x160 DUP7 ADD MSTORE PUSH2 0x160 DUP5 ADD MLOAD PUSH2 0x560 DUP2 PUSH2 0x1C50 JUMP JUMPDEST PUSH2 0x180 DUP7 ADD MSTORE PUSH2 0x180 DUP5 ADD MLOAD PUSH1 0x1F NOT DUP7 DUP4 SUB ADD PUSH2 0x1A0 DUP8 ADD MSTORE PUSH2 0x1C10 JUMP JUMPDEST SWAP2 PUSH2 0x591 PUSH2 0x1A0 DUP3 ADD MLOAD DUP4 DUP7 ADD SWAP1 PUSH2 0x1C5A JUMP JUMPDEST ADD MLOAD ISZERO ISZERO PUSH2 0x1E0 DUP4 ADD MSTORE SUB SWAP1 RETURN JUMPDEST CALLVALUE PUSH2 0x200 JUMPI PUSH1 0x20 CALLDATASIZE PUSH1 0x3 NOT ADD SLT PUSH2 0x200 JUMPI PUSH1 0x4 CALLDATALOAD PUSH1 0x6 DUP2 LT ISZERO PUSH2 0x200 JUMPI PUSH2 0x5C8 PUSH2 0x5DC SWAP2 PUSH2 0x227C JUMP JUMPDEST PUSH1 0x40 MLOAD SWAP2 DUP3 SWAP2 PUSH1 0x20 DUP4 MSTORE PUSH1 0x20 DUP4 ADD SWAP1 PUSH2 0x1C10 JUMP JUMPDEST SUB SWAP1 RETURN JUMPDEST CALLVALUE PUSH2 0x200 JUMPI PUSH1 0x20 DUP1 PUSH1 0x3 NOT CALLDATASIZE ADD SLT PUSH2 0x200 JUMPI PUSH1 0x4 CALLDATALOAD DUP1 ISZERO ISZERO DUP1 PUSH2 0x703 JUMPI JUMPDEST PUSH2 0x607 SWAP1 PUSH2 0x2133 JUMP JUMPDEST DUP1 PUSH1 0x0 MSTORE PUSH1 0x5 DUP3 MSTORE PUSH2 0x62D PUSH1 0xFF PUSH1 0x9 PUSH1 0x40 PUSH1 0x0 KECCAK256 ADD SLOAD AND PUSH2 0x627 DUP2 PUSH2 0x1C50 JUMP JUMPDEST ISZERO PUSH2 0x217E JUMP JUMPDEST PUSH1 0x0 DUP1 MLOAD PUSH1 0x20 PUSH2 0x23F2 DUP4 CODECOPY DUP2 MLOAD SWAP2 MSTORE PUSH1 0x0 MSTORE PUSH1 0x0 DUP3 MSTORE PUSH1 0x40 PUSH1 0x0 KECCAK256 CALLER PUSH1 0x0 MSTORE DUP3 MSTORE PUSH2 0x65F PUSH1 0xFF PUSH1 0x40 PUSH1 0x0 KECCAK256 SLOAD AND PUSH2 0x21D6 JUMP JUMPDEST PUSH2 0x667 PUSH2 0x2110 JUMP JUMPDEST PUSH2 0x66F PUSH2 0x20F2 JUMP JUMPDEST DUP1 PUSH1 0x0 MSTORE PUSH1 0x5 DUP3 MSTORE PUSH1 0x40 PUSH1 0x0 KECCAK256 SWAP2 PUSH2 0x68D PUSH1 0x6 DUP5 ADD SLOAD TIMESTAMP GT ISZERO PUSH2 0x2231 JUMP JUMPDEST PUSH1 0x7 DUP4 ADD DUP1 SLOAD PUSH1 0x1 PUSH1 0x1 PUSH1 0xA8 SHL SUB NOT AND CALLER PUSH1 0x8 SHL PUSH2 0x100 PUSH1 0x1 PUSH1 0xA8 SHL SUB AND OR PUSH1 0x1 OR SWAP1 SSTORE PUSH1 0xFF NOT PUSH1 0x1 PUSH1 0x9 PUSH1 0x3 DUP7 ADD SLOAD SWAP6 DUP7 PUSH1 0x8 DUP3 ADD SSTORE ADD SWAP2 DUP3 SLOAD AND OR SWAP1 SSTORE PUSH1 0x40 MLOAD SWAP3 DUP4 MSTORE TIMESTAMP SWAP1 DUP4 ADD MSTORE PUSH32 0x112B7D9C9ADCC16BBE96E91013DF246A4478C2111C56048A75F38A03D305FBD8 PUSH1 0x40 CALLER SWAP4 LOG3 PUSH1 0x1 DUP1 SSTORE STOP JUMPDEST POP PUSH1 0x4 SLOAD DUP2 LT PUSH2 0x5FE JUMP JUMPDEST CALLVALUE PUSH2 0x200 JUMPI PUSH1 0x0 CALLDATASIZE PUSH1 0x3 NOT ADD SLT PUSH2 0x200 JUMPI PUSH1 0x20 PUSH1 0x7 SLOAD PUSH1 0x40 MLOAD SWAP1 DUP2 MSTORE RETURN JUMPDEST CALLVALUE PUSH2 0x200 JUMPI PUSH1 0x40 CALLDATASIZE PUSH1 0x3 NOT ADD SLT PUSH2 0x200 JUMPI PUSH1 0x24 CALLDATALOAD PUSH1 0x4 CALLDATALOAD PUSH1 0x0 MSTORE PUSH1 0x6 PUSH1 0x20 MSTORE PUSH1 0x40 PUSH1 0x0 KECCAK256 DUP1 SLOAD DUP3 LT ISZERO PUSH2 0x200 JUMPI PUSH1 0x20 SWAP2 PUSH2 0x765 SWAP2 PUSH2 0x1C67 JUMP JUMPDEST SWAP1 SLOAD PUSH1 0x40 MLOAD SWAP2 PUSH1 0x3 SHL SHR DUP2 MSTORE RETURN JUMPDEST CALLVALUE PUSH2 0x200 JUMPI PUSH1 0x0 CALLDATASIZE PUSH1 0x3 NOT ADD SLT PUSH2 0x200 JUMPI PUSH1 0x20 PUSH1 0x40 MLOAD PUSH1 0x0 DUP2 MSTORE RETURN JUMPDEST CALLVALUE PUSH2 0x200 JUMPI PUSH1 0xA0 CALLDATASIZE PUSH1 0x3 NOT ADD SLT PUSH2 0x200 JUMPI PUSH1 0x44 CALLDATALOAD PUSH8 0xFFFFFFFFFFFFFFFF DUP2 GT PUSH2 0x200 JUMPI PUSH2 0x7C0 SWAP1 CALLDATASIZE SWAP1 PUSH1 0x4 ADD PUSH2 0x1AA7 JUMP JUMPDEST PUSH1 0x4 PUSH1 0x64 CALLDATALOAD LT ISZERO PUSH2 0x200 JUMPI PUSH1 0x84 CALLDATALOAD SWAP1 DUP2 ISZERO ISZERO DUP3 SUB PUSH2 0x200 JUMPI PUSH2 0x7E0 PUSH2 0x2110 JUMP JUMPDEST PUSH2 0x7E8 PUSH2 0x20F2 JUMP JUMPDEST PUSH2 0x7F5 PUSH1 0x24 CALLDATALOAD ISZERO ISZERO PUSH2 0x1FE7 JUMP JUMPDEST DUP1 ISZERO PUSH2 0xCCB JUMPI PUSH1 0x4 SLOAD SWAP2 PUSH2 0x808 DUP4 PUSH2 0x2043 JUMP JUMPDEST PUSH1 0x4 SSTORE PUSH1 0x7 SLOAD TIMESTAMP ADD SWAP1 DUP2 TIMESTAMP GT PUSH2 0xCB5 JUMPI PUSH1 0x40 MLOAD SWAP2 PUSH2 0x825 DUP4 PUSH2 0x1B0F JUMP JUMPDEST DUP5 DUP4 MSTORE PUSH1 0x4 CALLDATALOAD PUSH1 0x20 DUP5 ADD MSTORE CALLER PUSH1 0x40 DUP5 ADD MSTORE PUSH1 0x24 CALLDATALOAD PUSH1 0x60 DUP5 ADD MSTORE PUSH8 0xFFFFFFFFFFFFFFFF DUP5 GT PUSH2 0xB8E JUMPI PUSH1 0x40 MLOAD PUSH2 0x864 PUSH1 0x1F DUP7 ADD PUSH1 0x1F NOT AND PUSH1 0x20 ADD DUP3 PUSH2 0x1B48 JUMP JUMPDEST DUP5 DUP2 MSTORE CALLDATASIZE DUP6 DUP9 ADD GT PUSH2 0x200 JUMPI DUP5 DUP8 PUSH1 0x20 DUP4 ADD CALLDATACOPY PUSH1 0x0 PUSH1 0x20 DUP7 DUP4 ADD ADD MSTORE PUSH1 0x80 DUP5 ADD MSTORE TIMESTAMP PUSH1 0xA0 DUP5 ADD MSTORE PUSH1 0xC0 DUP4 ADD MSTORE PUSH1 0x0 PUSH1 0xE0 DUP4 ADD MSTORE PUSH1 0x0 PUSH2 0x100 DUP4 ADD MSTORE PUSH1 0x0 PUSH2 0x120 DUP4 ADD MSTORE PUSH1 0x0 PUSH2 0x140 DUP4 ADD MSTORE PUSH1 0x5 PUSH2 0x160 DUP4 ADD MSTORE PUSH1 0x40 MLOAD DUP1 PUSH1 0x20 DUP2 ADD LT PUSH8 0xFFFFFFFFFFFFFFFF PUSH1 0x20 DUP4 ADD GT OR PUSH2 0xB8E JUMPI PUSH1 0x20 DUP2 ADD PUSH1 0x40 MSTORE PUSH1 0x0 DUP2 MSTORE PUSH2 0x180 DUP4 ADD MSTORE PUSH2 0x8F4 PUSH1 0x64 CALLDATALOAD PUSH2 0x1A0 DUP5 ADD PUSH2 0x2052 JUMP JUMPDEST ISZERO ISZERO PUSH2 0x1C0 DUP3 ADD MSTORE DUP3 PUSH1 0x0 MSTORE PUSH1 0x5 PUSH1 0x20 MSTORE PUSH1 0x40 PUSH1 0x0 KECCAK256 DUP2 MLOAD DUP2 SSTORE PUSH1 0x20 DUP3 ADD MLOAD PUSH1 0x1 DUP3 ADD SSTORE PUSH1 0x2 DUP2 ADD PUSH1 0x1 DUP1 PUSH1 0xA0 SHL SUB PUSH1 0x40 DUP5 ADD MLOAD AND PUSH12 0xFFFFFFFFFFFFFFFFFFFFFFFF PUSH1 0xA0 SHL DUP3 SLOAD AND OR SWAP1 SSTORE PUSH1 0x60 DUP3 ADD MLOAD PUSH1 0x3 DUP3 ADD SSTORE PUSH1 0x80 DUP3 ADD MLOAD DUP1 MLOAD SWAP1 PUSH8 0xFFFFFFFFFFFFFFFF DUP3 GT PUSH2 0xB8E JUMPI DUP2 SWAP1 PUSH2 0x97C DUP3 PUSH2 0x973 PUSH1 0x4 DUP8 ADD SLOAD PUSH2 0x1AD5 JUMP JUMPDEST PUSH1 0x4 DUP8 ADD PUSH2 0x205E JUMP JUMPDEST PUSH1 0x20 SWAP1 PUSH1 0x1F DUP4 GT PUSH1 0x1 EQ PUSH2 0xC43 JUMPI PUSH1 0x0 SWAP3 PUSH2 0xC38 JUMPI JUMPDEST POP POP DUP2 PUSH1 0x1 SHL SWAP2 PUSH1 0x0 NOT SWAP1 PUSH1 0x3 SHL SHR NOT AND OR PUSH1 0x4 DUP3 ADD SSTORE JUMPDEST PUSH1 0xA0 DUP3 ADD MLOAD PUSH1 0x5 DUP3 ADD SSTORE PUSH1 0xC0 DUP3 ADD MLOAD PUSH1 0x6 DUP3 ADD SSTORE PUSH1 0xE0 DUP3 ADD MLOAD PUSH1 0x7 DUP3 ADD DUP1 SLOAD PUSH2 0x100 DUP6 ADD MLOAD PUSH1 0x1 PUSH1 0x1 PUSH1 0xA8 SHL SUB NOT SWAP1 SWAP2 AND PUSH1 0xFF SWAP4 ISZERO ISZERO DUP5 AND OR PUSH1 0x8 SWAP2 DUP3 SHL PUSH2 0x100 PUSH1 0x1 PUSH1 0xA8 SHL SUB AND OR SWAP1 SWAP2 SSTORE PUSH2 0x120 DUP5 ADD MLOAD SWAP1 DUP4 ADD SSTORE PUSH2 0x140 DUP4 ADD MLOAD PUSH2 0xA42 SWAP2 PUSH1 0x9 DUP5 ADD SWAP2 SWAP1 PUSH1 0xFF NOT PUSH2 0xA1C DUP4 PUSH2 0x1C50 JUMP JUMPDEST PUSH2 0xA25 DUP4 PUSH2 0x1C50 JUMP JUMPDEST DUP4 SLOAD AND SWAP2 AND OR DUP2 SSTORE PUSH2 0x160 DUP5 ADD MLOAD SWAP1 PUSH2 0xA3D DUP3 PUSH2 0x1C50 JUMP JUMPDEST PUSH2 0x20B2 JUMP JUMPDEST PUSH2 0x180 DUP3 ADD MLOAD DUP1 MLOAD SWAP1 PUSH8 0xFFFFFFFFFFFFFFFF DUP3 GT PUSH2 0xB8E JUMPI PUSH2 0xA74 DUP3 PUSH2 0xA6B PUSH1 0xA DUP7 ADD SLOAD PUSH2 0x1AD5 JUMP JUMPDEST PUSH1 0xA DUP7 ADD PUSH2 0x205E JUMP JUMPDEST PUSH1 0x20 SWAP1 PUSH1 0x1F DUP4 GT PUSH1 0x1 EQ PUSH2 0xBC5 JUMPI PUSH1 0xB SWAP4 SWAP3 SWAP2 PUSH1 0x0 SWAP2 DUP4 PUSH2 0xBBA JUMPI JUMPDEST POP POP DUP2 PUSH1 0x1 SHL SWAP2 PUSH1 0x0 NOT SWAP1 PUSH1 0x3 SHL SHR NOT AND OR PUSH1 0xA DUP3 ADD SSTORE JUMPDEST ADD SWAP1 PUSH2 0x1A0 DUP2 ADD MLOAD SWAP1 PUSH1 0x4 DUP3 LT ISZERO PUSH2 0xBA4 JUMPI PUSH1 0xFF PUSH2 0xFF00 PUSH2 0x1C0 DUP6 SLOAD SWAP4 ADD MLOAD ISZERO ISZERO PUSH1 0x8 SHL AND SWAP3 AND SWAP1 PUSH2 0xFFFF NOT AND OR OR SWAP1 SSTORE PUSH1 0x4 CALLDATALOAD PUSH1 0x0 MSTORE PUSH1 0x6 PUSH1 0x20 MSTORE PUSH1 0x40 PUSH1 0x0 KECCAK256 SWAP3 DUP4 SLOAD SWAP1 PUSH9 0x10000000000000000 DUP3 LT ISZERO PUSH2 0xB8E JUMPI PUSH2 0xB13 DUP3 PUSH1 0x20 SWAP7 PUSH1 0x1 PUSH2 0xB41 SWAP6 ADD DUP2 SSTORE PUSH2 0x1C67 JUMP JUMPDEST DUP2 SLOAD SWAP1 PUSH1 0x3 SHL SWAP1 DUP7 DUP3 SHL SWAP2 PUSH1 0x0 NOT SWAP1 SHL NOT AND OR SWAP1 SSTORE PUSH1 0x40 MLOAD SWAP3 PUSH1 0x24 CALLDATALOAD DUP5 MSTORE PUSH1 0x80 DUP7 DUP6 ADD MSTORE PUSH1 0x80 DUP5 ADD SWAP2 PUSH2 0x20D1 JUMP JUMPDEST PUSH2 0xB50 PUSH1 0x40 DUP4 ADD PUSH1 0x64 CALLDATALOAD PUSH2 0x1C5A JUMP JUMPDEST TIMESTAMP PUSH1 0x60 DUP4 ADD MSTORE DUP3 PUSH32 0xAFF7119F7CB06E0E6684A18E0D8A8DCAFB8E1E35DFEB2A0EAA4D9E17C7F2D51C CALLER SWAP4 DUP1 PUSH1 0x4 CALLDATALOAD SWAP5 SUB SWAP1 LOG4 PUSH1 0x1 DUP1 SSTORE PUSH1 0x40 MLOAD SWAP1 DUP2 MSTORE RETURN JUMPDEST PUSH4 0x4E487B71 PUSH1 0xE0 SHL PUSH1 0x0 MSTORE PUSH1 0x41 PUSH1 0x4 MSTORE PUSH1 0x24 PUSH1 0x0 REVERT JUMPDEST PUSH4 0x4E487B71 PUSH1 0xE0 SHL PUSH1 0x0 MSTORE PUSH1 0x21 PUSH1 0x4 MSTORE PUSH1 0x24 PUSH1 0x0 REVERT JUMPDEST ADD MLOAD SWAP1 POP DUP9 DUP1 PUSH2 0xA90 JUMP JUMPDEST SWAP1 PUSH1 0xA DUP5 ADD PUSH1 0x0 MSTORE PUSH1 0x20 PUSH1 0x0 KECCAK256 SWAP2 PUSH1 0x0 JUMPDEST PUSH1 0x1F NOT DUP6 AND DUP2 LT PUSH2 0xC20 JUMPI POP SWAP2 DUP4 SWAP2 PUSH1 0x1 SWAP4 PUSH1 0xB SWAP7 SWAP6 PUSH1 0x1F NOT DUP2 AND LT PUSH2 0xC07 JUMPI JUMPDEST POP POP POP DUP2 SHL ADD PUSH1 0xA DUP3 ADD SSTORE PUSH2 0xAA8 JUMP JUMPDEST ADD MLOAD PUSH1 0x0 NOT PUSH1 0xF8 DUP5 PUSH1 0x3 SHL AND SHR NOT AND SWAP1 SSTORE DUP9 DUP1 DUP1 PUSH2 0xBF7 JUMP JUMPDEST SWAP2 SWAP3 PUSH1 0x20 PUSH1 0x1 DUP2 SWAP3 DUP7 DUP6 ADD MLOAD DUP2 SSTORE ADD SWAP5 ADD SWAP3 ADD PUSH2 0xBD6 JUMP JUMPDEST ADD MLOAD SWAP1 POP DUP8 DUP1 PUSH2 0x992 JUMP JUMPDEST SWAP3 POP PUSH1 0x4 DUP5 ADD PUSH1 0x0 MSTORE PUSH1 0x20 PUSH1 0x0 KECCAK256 SWAP1 PUSH1 0x0 SWAP4 JUMPDEST PUSH1 0x1F NOT DUP5 AND DUP6 LT PUSH2 0xC9A JUMPI PUSH1 0x1 SWAP5 POP DUP4 PUSH1 0x1F NOT DUP2 AND LT PUSH2 0xC81 JUMPI JUMPDEST POP POP POP DUP2 SHL ADD PUSH1 0x4 DUP3 ADD SSTORE PUSH2 0x9AA JUMP JUMPDEST ADD MLOAD PUSH1 0x0 NOT PUSH1 0xF8 DUP5 PUSH1 0x3 SHL AND SHR NOT AND SWAP1 SSTORE DUP8 DUP1 DUP1 PUSH2 0xC71 JUMP JUMPDEST DUP2 DUP2 ADD MLOAD DUP4 SSTORE PUSH1 0x20 SWAP5 DUP6 ADD SWAP5 PUSH1 0x1 SWAP1 SWAP4 ADD SWAP3 SWAP1 SWAP2 ADD SWAP1 PUSH2 0xC56 JUMP JUMPDEST PUSH4 0x4E487B71 PUSH1 0xE0 SHL PUSH1 0x0 MSTORE PUSH1 0x11 PUSH1 0x4 MSTORE PUSH1 0x24 PUSH1 0x0 REVERT JUMPDEST PUSH1 0x40 MLOAD PUSH3 0x461BCD PUSH1 0xE5 SHL DUP2 MSTORE PUSH1 0x20 PUSH1 0x4 DUP3 ADD MSTORE PUSH1 0x22 PUSH1 0x24 DUP3 ADD MSTORE PUSH32 0x566F6C756D654261736564466565643A2065766964656E636520726571756972 PUSH1 0x44 DUP3 ADD MSTORE PUSH2 0x1959 PUSH1 0xF2 SHL PUSH1 0x64 DUP3 ADD MSTORE PUSH1 0x84 SWAP1 REVERT JUMPDEST CALLVALUE PUSH2 0x200 JUMPI PUSH1 0x40 CALLDATASIZE PUSH1 0x3 NOT ADD SLT PUSH2 0x200 JUMPI PUSH2 0xD34 PUSH2 0x1A91 JUMP JUMPDEST PUSH1 0x4 CALLDATALOAD PUSH1 0x0 MSTORE PUSH1 0x0 PUSH1 0x20 MSTORE PUSH1 0x40 PUSH1 0x0 KECCAK256 SWAP1 PUSH1 0x1 DUP1 PUSH1 0xA0 SHL SUB AND PUSH1 0x0 MSTORE PUSH1 0x20 MSTORE PUSH1 0x20 PUSH1 0xFF PUSH1 0x40 PUSH1 0x0 KECCAK256 SLOAD AND PUSH1 0x40 MLOAD SWAP1 ISZERO ISZERO DUP2 MSTORE RETURN JUMPDEST CALLVALUE PUSH2 0x200 JUMPI PUSH1 0x20 DUP1 PUSH1 0x3 NOT CALLDATASIZE ADD SLT PUSH2 0x200 JUMPI PUSH1 0x4 CALLDATALOAD PUSH1 0x0 MSTORE PUSH1 0x6 DUP2 MSTORE PUSH1 0x40 PUSH1 0x0 KECCAK256 PUSH1 0x40 MLOAD SWAP1 DUP2 DUP4 DUP3 SLOAD SWAP2 DUP3 DUP2 MSTORE ADD SWAP1 DUP2 SWAP3 PUSH1 0x0 MSTORE DUP5 PUSH1 0x0 KECCAK256 SWAP1 PUSH1 0x0 JUMPDEST DUP7 DUP3 DUP3 LT PUSH2 0xDFA JUMPI DUP7 DUP7 PUSH2 0xDBA DUP3 DUP9 SUB DUP4 PUSH2 0x1B48 JUMP JUMPDEST PUSH1 0x40 MLOAD SWAP3 DUP4 SWAP3 DUP2 DUP5 ADD SWAP1 DUP3 DUP6 MSTORE MLOAD DUP1 SWAP2 MSTORE PUSH1 0x40 DUP5 ADD SWAP3 SWAP2 PUSH1 0x0 JUMPDEST DUP3 DUP2 LT PUSH2 0xDE3 JUMPI POP POP POP POP SUB SWAP1 RETURN JUMPDEST DUP4 MLOAD DUP6 MSTORE DUP7 SWAP6 POP SWAP4 DUP2 ADD SWAP4 SWAP3 DUP2 ADD SWAP3 PUSH1 0x1 ADD PUSH2 0xDD4 JUMP JUMPDEST DUP4 SLOAD DUP6 MSTORE SWAP1 SWAP4 ADD SWAP3 PUSH1 0x1 SWAP3 DUP4 ADD SWAP3 ADD PUSH2 0xDA4 JUMP JUMPDEST CALLVALUE PUSH2 0x200 JUMPI PUSH1 0x0 CALLDATASIZE PUSH1 0x3 NOT ADD SLT PUSH2 0x200 JUMPI PUSH2 0xE27 PUSH2 0x1C95 JUMP JUMPDEST PUSH2 0xE2F PUSH2 0x20F2 JUMP JUMPDEST PUSH1 0x1 PUSH1 0xFF NOT PUSH1 0x2 SLOAD AND OR PUSH1 0x2 SSTORE PUSH32 0x62E78CEA01BEE320CD4E420270B5EA74000D11B0C9F74754EBDBFC544B05A258 PUSH1 0x20 PUSH1 0x40 MLOAD CALLER DUP2 MSTORE LOG1 STOP JUMPDEST CALLVALUE PUSH2 0x200 JUMPI PUSH1 0x20 CALLDATASIZE PUSH1 0x3 NOT ADD SLT PUSH2 0x200 JUMPI PUSH1 0x4 CALLDATALOAD PUSH1 0x0 MSTORE PUSH1 0x5 PUSH1 0x20 MSTORE PUSH1 0x40 PUSH1 0x0 KECCAK256 DUP1 SLOAD PUSH1 0x1 DUP3 ADD SLOAD SWAP2 PUSH1 0x1 PUSH1 0xA0 SHL PUSH1 0x1 SWAP1 SUB PUSH1 0x2 DUP3 ADD SLOAD AND SWAP1 PUSH1 0x3 DUP2 ADD SLOAD PUSH1 0x4 DUP3 ADD PUSH2 0xEB3 SWAP1 PUSH2 0x1B6A JUMP JUMPDEST PUSH1 0x5 DUP4 ADD SLOAD SWAP2 PUSH1 0x6 DUP5 ADD SLOAD PUSH1 0x7 DUP6 ADD SLOAD PUSH1 0x8 DUP7 ADD SLOAD SWAP2 PUSH1 0x9 DUP8 ADD SLOAD SWAP5 PUSH1 0xFF DUP7 AND SWAP5 PUSH1 0xA DUP10 ADD PUSH2 0xEE1 SWAP1 PUSH2 0x1B6A JUMP JUMPDEST SWAP9 PUSH1 0xB ADD SLOAD SWAP10 PUSH1 0x40 MLOAD SWAP13 DUP14 SWAP13 DUP14 MSTORE PUSH1 0x20 DUP14 ADD MSTORE PUSH1 0x40 DUP13 ADD MSTORE PUSH1 0x60 DUP12 ADD MSTORE PUSH2 0x1E0 DUP1 PUSH1 0x80 DUP13 ADD MSTORE DUP11 ADD PUSH2 0xF12 SWAP2 PUSH2 0x1C10 JUMP JUMPDEST PUSH1 0xA0 DUP11 ADD SWAP7 SWAP1 SWAP7 MSTORE PUSH1 0xC0 DUP10 ADD MSTORE PUSH1 0xFF DUP2 AND ISZERO ISZERO PUSH1 0xE0 DUP10 ADD MSTORE PUSH1 0x8 SHR PUSH1 0x1 PUSH1 0x1 PUSH1 0xA0 SHL SUB AND PUSH2 0x100 DUP9 ADD MSTORE PUSH2 0x120 DUP8 ADD MSTORE PUSH2 0xF4B DUP2 PUSH2 0x1C50 JUMP JUMPDEST PUSH2 0x140 DUP7 ADD MSTORE PUSH1 0x8 SHR PUSH1 0xFF AND PUSH2 0xF60 DUP2 PUSH2 0x1C50 JUMP JUMPDEST PUSH2 0x160 DUP6 ADD MSTORE DUP4 DUP2 SUB PUSH2 0x180 DUP6 ADD MSTORE PUSH2 0xF78 SWAP2 PUSH2 0x1C10 JUMP JUMPDEST SWAP1 PUSH2 0xF8A PUSH2 0x1A0 DUP5 ADD PUSH1 0xFF DUP4 AND PUSH2 0x1C5A JUMP JUMPDEST PUSH1 0x8 SHR PUSH1 0xFF AND ISZERO ISZERO PUSH2 0x1C0 DUP4 ADD MSTORE SUB SWAP1 RETURN JUMPDEST CALLVALUE PUSH2 0x200 JUMPI PUSH1 0x20 CALLDATASIZE PUSH1 0x3 NOT ADD SLT PUSH2 0x200 JUMPI PUSH2 0x27F PUSH2 0xFB8 PUSH2 0x1A7B JUMP JUMPDEST PUSH2 0xFC0 PUSH2 0x1C95 JUMP JUMPDEST PUSH1 0x0 DUP1 MLOAD PUSH1 0x20 PUSH2 0x23F2 DUP4 CODECOPY DUP2 MLOAD SWAP2 MSTORE PUSH1 0x0 SWAP1 DUP2 MSTORE PUSH1 0x20 MSTORE PUSH32 0xF3DF2CAD0328610BDABAAA4666352F9E79B67A748D22942CD8AEC92E2FBDA4B8 SLOAD PUSH2 0x1002 SWAP1 PUSH2 0x1CED JUMP JUMPDEST PUSH2 0x1ED9 JUMP JUMPDEST CALLVALUE PUSH2 0x200 JUMPI PUSH1 0x0 CALLDATASIZE PUSH1 0x3 NOT ADD SLT PUSH2 0x200 JUMPI PUSH1 0x2 SLOAD PUSH1 0x40 MLOAD PUSH1 0x8 SWAP2 SWAP1 SWAP2 SHR PUSH1 0x1 PUSH1 0x1 PUSH1 0xA0 SHL SUB AND DUP2 MSTORE PUSH1 0x20 SWAP1 RETURN JUMPDEST CALLVALUE PUSH2 0x200 JUMPI PUSH1 0x20 DUP1 PUSH1 0x3 NOT CALLDATASIZE ADD SLT PUSH2 0x200 JUMPI PUSH1 0x4 CALLDATALOAD SWAP1 DUP2 ISZERO ISZERO DUP1 PUSH2 0x1112 JUMPI JUMPDEST PUSH2 0x105C SWAP1 PUSH2 0x2133 JUMP JUMPDEST DUP2 PUSH1 0x0 MSTORE PUSH1 0x5 DUP2 MSTORE PUSH2 0x107C PUSH1 0xFF PUSH1 0x9 PUSH1 0x40 PUSH1 0x0 KECCAK256 ADD SLOAD AND PUSH2 0x627 DUP2 PUSH2 0x1C50 JUMP JUMPDEST DUP2 PUSH1 0x0 MSTORE PUSH1 0x5 DUP2 MSTORE PUSH1 0x40 PUSH1 0x0 KECCAK256 PUSH1 0x6 DUP2 ADD SLOAD TIMESTAMP GT ISZERO PUSH2 0x10CF JUMPI PUSH1 0x9 ADD DUP1 SLOAD PUSH1 0xFF NOT AND PUSH1 0x4 OR SWAP1 SSTORE PUSH1 0x40 MLOAD TIMESTAMP DUP2 MSTORE PUSH32 0x6BDD24364EA257BC2FC44B73A2B568AD948E3A1E4E7A2A26FE3443F117DD7EA6 SWAP2 SWAP1 LOG2 STOP JUMPDEST PUSH1 0x64 DUP3 PUSH1 0x40 MLOAD SWAP1 PUSH3 0x461BCD PUSH1 0xE5 SHL DUP3 MSTORE DUP1 PUSH1 0x4 DUP4 ADD MSTORE PUSH1 0x24 DUP3 ADD MSTORE PUSH32 0x566F6C756D654261736564466565643A206E6F74206578706972656420796574 PUSH1 0x44 DUP3 ADD MSTORE REVERT JUMPDEST POP PUSH1 0x4 SLOAD DUP3 LT PUSH2 0x1053 JUMP JUMPDEST CALLVALUE PUSH2 0x200 JUMPI PUSH1 0x0 CALLDATASIZE PUSH1 0x3 NOT ADD SLT PUSH2 0x200 JUMPI PUSH1 0x20 PUSH1 0x4 SLOAD PUSH1 0x40 MLOAD SWAP1 DUP2 MSTORE RETURN JUMPDEST CALLVALUE PUSH2 0x200 JUMPI PUSH1 0x0 CALLDATASIZE PUSH1 0x3 NOT ADD SLT PUSH2 0x200 JUMPI PUSH1 0x20 PUSH1 0xFF PUSH1 0x2 SLOAD AND PUSH1 0x40 MLOAD SWAP1 ISZERO ISZERO DUP2 MSTORE RETURN JUMPDEST CALLVALUE PUSH2 0x200 JUMPI PUSH1 0x20 CALLDATASIZE PUSH1 0x3 NOT ADD SLT PUSH2 0x200 JUMPI PUSH2 0x27F PUSH2 0x117A PUSH2 0x1A7B JUMP JUMPDEST PUSH2 0x1182 PUSH2 0x1C95 JUMP JUMPDEST PUSH1 0x0 DUP1 MLOAD PUSH1 0x20 PUSH2 0x23F2 DUP4 CODECOPY DUP2 MLOAD SWAP2 MSTORE PUSH1 0x0 SWAP1 DUP2 MSTORE PUSH1 0x20 MSTORE PUSH32 0xF3DF2CAD0328610BDABAAA4666352F9E79B67A748D22942CD8AEC92E2FBDA4B8 SLOAD PUSH2 0x11C4 SWAP1 PUSH2 0x1CED JUMP JUMPDEST PUSH2 0x1D13 JUMP JUMPDEST CALLVALUE PUSH2 0x200 JUMPI PUSH1 0x60 CALLDATASIZE PUSH1 0x3 NOT ADD SLT PUSH2 0x200 JUMPI PUSH1 0x4 CALLDATALOAD PUSH1 0x24 CALLDATALOAD PUSH1 0x6 DUP2 LT ISZERO PUSH2 0x200 JUMPI PUSH8 0xFFFFFFFFFFFFFFFF SWAP1 PUSH1 0x44 CALLDATALOAD DUP3 DUP2 GT PUSH2 0x200 JUMPI PUSH2 0x120B SWAP1 CALLDATASIZE SWAP1 PUSH1 0x4 ADD PUSH2 0x1AA7 JUMP JUMPDEST DUP5 SWAP2 SWAP5 ISZERO ISZERO DUP1 PUSH2 0x14B4 JUMPI JUMPDEST PUSH2 0x121F SWAP1 PUSH2 0x2133 JUMP JUMPDEST DUP2 PUSH1 0x0 MSTORE PUSH1 0x20 SWAP3 PUSH1 0x5 DUP5 MSTORE PUSH2 0x1242 PUSH1 0xFF PUSH1 0x9 PUSH1 0x40 PUSH1 0x0 KECCAK256 ADD SLOAD AND PUSH2 0x627 DUP2 PUSH2 0x1C50 JUMP JUMPDEST PUSH1 0x0 DUP1 MLOAD PUSH1 0x20 PUSH2 0x23F2 DUP4 CODECOPY DUP2 MLOAD SWAP2 MSTORE PUSH1 0x0 MSTORE PUSH1 0x0 DUP5 MSTORE PUSH1 0x40 PUSH1 0x0 KECCAK256 CALLER PUSH1 0x0 MSTORE DUP5 MSTORE PUSH2 0x1274 PUSH1 0xFF PUSH1 0x40 PUSH1 0x0 KECCAK256 SLOAD AND PUSH2 0x21D6 JUMP JUMPDEST PUSH2 0x127C PUSH2 0x2110 JUMP JUMPDEST PUSH2 0x1284 PUSH2 0x20F2 JUMP JUMPDEST DUP3 PUSH1 0x0 MSTORE PUSH1 0x5 DUP5 MSTORE PUSH1 0x40 PUSH1 0x0 KECCAK256 SWAP2 PUSH2 0x12A2 PUSH1 0x6 DUP5 ADD SLOAD TIMESTAMP GT ISZERO PUSH2 0x2231 JUMP JUMPDEST PUSH1 0x7 DUP4 ADD DUP1 SLOAD PUSH1 0x1 PUSH1 0x1 PUSH1 0xA8 SHL SUB NOT AND CALLER PUSH1 0x8 SHL PUSH2 0x100 PUSH1 0x1 PUSH1 0xA8 SHL SUB AND OR PUSH1 0x1 SWAP1 DUP2 OR SWAP1 SWAP2 SSTORE SWAP6 PUSH2 0x12E3 DUP4 PUSH1 0xFF NOT PUSH1 0x2 PUSH1 0x9 DUP9 ADD SWAP2 DUP3 SLOAD AND OR DUP2 SSTORE PUSH2 0x20B2 JUMP JUMPDEST PUSH1 0xA DUP5 ADD SWAP1 DUP3 GT PUSH2 0xB8E JUMPI PUSH2 0x1302 DUP3 PUSH2 0x12FC DUP4 SLOAD PUSH2 0x1AD5 JUMP JUMPDEST DUP4 PUSH2 0x205E JUMP JUMPDEST PUSH1 0x0 PUSH1 0x1F DUP4 GT PUSH1 0x1 EQ PUSH2 0x1427 JUMPI DUP8 SWAP9 DUP4 PUSH32 0x7C3675BBCE43BCAC670AEB7638C82A769ABA3EC3E168677F73537E2B3CEF0E83 SWAP4 DUP9 SWAP10 SWAP11 SWAP9 SWAP6 PUSH2 0x1377 SWAP5 PUSH1 0x0 SWAP2 PUSH2 0x141C JUMPI JUMPDEST POP PUSH1 0x0 NOT PUSH1 0x3 DUP5 SWAP1 SHL SHR NOT AND DUP3 DUP11 SHL OR SWAP1 SSTORE JUMPDEST PUSH1 0x40 MLOAD SWAP6 PUSH2 0x1365 DUP2 PUSH2 0x1C50 JUMP JUMPDEST DUP7 MSTORE PUSH1 0x60 DUP11 DUP8 ADD MSTORE PUSH1 0x60 DUP7 ADD SWAP2 PUSH2 0x20D1 JUMP JUMPDEST SWAP3 TIMESTAMP PUSH1 0x40 DUP3 ADD MSTORE DUP1 CALLER SWAP5 SUB SWAP1 LOG3 PUSH1 0xFF PUSH1 0xB DUP3 ADD SLOAD PUSH1 0x8 SHR AND ISZERO PUSH2 0x1399 JUMPI POP DUP1 SSTORE STOP JUMPDEST PUSH32 0x1B1BAD35D7EB8E3B80160D50398A5B0FFE5116E655503008C421609111B39FDE SWAP2 PUSH1 0xA0 SWAP2 ADD SLOAD SWAP4 PUSH1 0x40 MLOAD SWAP1 PUSH1 0x40 DUP3 MSTORE PUSH1 0x30 PUSH1 0x40 DUP4 ADD MSTORE PUSH32 0x566F6C756D652D626173656420666565642072656A65637465642C2072657175 PUSH1 0x60 DUP4 ADD MSTORE PUSH16 0x1A5C995CC81B9BDC9B585B0819995959 PUSH1 0x82 SHL PUSH1 0x80 DUP4 ADD MSTORE TIMESTAMP SWAP1 DUP3 ADD MSTORE LOG3 DUP2 DUP1 DUP3 DUP1 SSTORE STOP JUMPDEST SWAP1 POP DUP4 ADD CALLDATALOAD DUP14 PUSH2 0x1345 JUMP JUMPDEST PUSH1 0x1F NOT DUP4 AND SWAP1 DUP3 PUSH1 0x0 MSTORE DUP8 PUSH1 0x0 KECCAK256 SWAP2 PUSH1 0x0 JUMPDEST DUP2 DUP2 LT PUSH2 0x149F JUMPI POP SWAP4 PUSH32 0x7C3675BBCE43BCAC670AEB7638C82A769ABA3EC3E168677F73537E2B3CEF0E83 SWAP4 PUSH2 0x1377 SWAP4 DUP12 SWAP13 SWAP4 DUP4 DUP12 SWAP13 SWAP14 SWAP12 SWAP9 LT PUSH2 0x1485 JUMPI JUMPDEST POP POP DUP9 DUP3 DUP2 SHL ADD SWAP1 SSTORE PUSH2 0x1358 JUMP JUMPDEST DUP5 ADD CALLDATALOAD PUSH1 0x0 NOT PUSH1 0x3 DUP6 SWAP1 SHL PUSH1 0xF8 AND SHR NOT AND SWAP1 SSTORE DUP13 DUP1 PUSH2 0x1477 JUMP JUMPDEST DUP12 DUP4 ADD CALLDATALOAD DUP5 SSTORE SWAP3 DUP11 ADD SWAP3 SWAP2 DUP10 ADD SWAP2 DUP10 ADD PUSH2 0x1439 JUMP JUMPDEST POP PUSH1 0x4 SLOAD DUP3 LT PUSH2 0x1216 JUMP JUMPDEST CALLVALUE PUSH2 0x200 JUMPI PUSH1 0x20 CALLDATASIZE PUSH1 0x3 NOT ADD SLT PUSH2 0x200 JUMPI PUSH1 0x4 CALLDATALOAD PUSH1 0x0 MSTORE PUSH1 0x5 PUSH1 0x20 MSTORE PUSH1 0x40 DUP1 PUSH1 0x0 KECCAK256 PUSH1 0xFF PUSH1 0x9 DUP3 ADD SLOAD AND SWAP1 PUSH2 0x14F3 DUP3 PUSH2 0x1C50 JUMP JUMPDEST PUSH1 0x1 DUP3 EQ SWAP2 DUP3 ISZERO PUSH2 0x1513 JUMPI JUMPDEST POP PUSH1 0x8 ADD SLOAD SWAP1 DUP3 MLOAD SWAP2 DUP3 MSTORE ISZERO ISZERO PUSH1 0x20 DUP3 ADD MSTORE RETURN JUMPDEST PUSH1 0x8 SWAP2 SWAP3 POP DUP1 PUSH2 0x1524 PUSH1 0x3 SWAP3 PUSH2 0x1C50 JUMP JUMPDEST EQ SWAP2 SWAP1 PUSH2 0x14FF JUMP JUMPDEST CALLVALUE PUSH2 0x200 JUMPI PUSH1 0x60 CALLDATASIZE PUSH1 0x3 NOT ADD SLT PUSH2 0x200 JUMPI PUSH1 0x24 CALLDATALOAD PUSH1 0x4 CALLDATALOAD PUSH1 0x44 CALLDATALOAD PUSH8 0xFFFFFFFFFFFFFFFF DUP2 GT PUSH2 0x200 JUMPI PUSH2 0x1563 SWAP1 CALLDATASIZE SWAP1 PUSH1 0x4 ADD PUSH2 0x1AA7 JUMP JUMPDEST DUP3 ISZERO ISZERO DUP1 PUSH2 0x16E1 JUMPI JUMPDEST PUSH2 0x1575 SWAP1 PUSH2 0x2133 JUMP JUMPDEST DUP3 PUSH1 0x0 MSTORE PUSH1 0x20 SWAP4 PUSH1 0x5 DUP6 MSTORE PUSH2 0x1598 PUSH1 0xFF PUSH1 0x9 PUSH1 0x40 PUSH1 0x0 KECCAK256 ADD SLOAD AND PUSH2 0x627 DUP2 PUSH2 0x1C50 JUMP JUMPDEST PUSH1 0x0 DUP1 MLOAD PUSH1 0x20 PUSH2 0x23F2 DUP4 CODECOPY DUP2 MLOAD SWAP2 MSTORE PUSH1 0x0 MSTORE PUSH1 0x0 DUP6 MSTORE PUSH1 0x40 PUSH1 0x0 KECCAK256 CALLER PUSH1 0x0 MSTORE DUP6 MSTORE PUSH2 0x15CA PUSH1 0xFF PUSH1 0x40 PUSH1 0x0 KECCAK256 SLOAD AND PUSH2 0x21D6 JUMP JUMPDEST PUSH2 0x15D2 PUSH2 0x2110 JUMP JUMPDEST PUSH2 0x15DA PUSH2 0x20F2 JUMP JUMPDEST PUSH2 0x15E5 DUP2 ISZERO ISZERO PUSH2 0x1FE7 JUMP JUMPDEST DUP2 ISZERO PUSH2 0x169E JUMPI SWAP2 PUSH2 0x168B SWAP2 PUSH32 0x8027137D6886C250B29232E541E4FD484E1E1E0864E818DBC77C2CF5C89CDA82 SWAP4 DUP6 PUSH1 0x0 MSTORE PUSH1 0x5 DUP8 MSTORE PUSH1 0x40 PUSH1 0x0 KECCAK256 SWAP7 PUSH2 0x1630 PUSH1 0x6 DUP10 ADD SLOAD TIMESTAMP GT ISZERO PUSH2 0x2231 JUMP JUMPDEST PUSH1 0x3 DUP9 DUP2 ADD SLOAD PUSH1 0x7 DUP11 ADD DUP1 SLOAD PUSH1 0x1 PUSH1 0x1 PUSH1 0xA8 SHL SUB NOT AND CALLER PUSH1 0x8 SHL PUSH2 0x100 PUSH1 0x1 PUSH1 0xA8 SHL SUB AND OR PUSH1 0x1 OR SWAP1 SSTORE SWAP9 PUSH1 0xFF NOT SWAP2 SWAP1 PUSH1 0x9 SWAP1 DUP6 PUSH1 0x8 DUP3 ADD SSTORE ADD SWAP2 DUP3 SLOAD AND OR SWAP1 SSTORE PUSH1 0x40 MLOAD SWAP8 DUP9 MSTORE DUP8 ADD MSTORE PUSH1 0x80 PUSH1 0x40 DUP8 ADD MSTORE PUSH1 0x80 DUP7 ADD SWAP2 PUSH2 0x20D1 JUMP JUMPDEST SWAP3 TIMESTAMP PUSH1 0x60 DUP3 ADD MSTORE DUP1 CALLER SWAP5 SUB SWAP1 LOG3 PUSH1 0x1 DUP1 SSTORE STOP JUMPDEST PUSH1 0x64 DUP6 PUSH1 0x40 MLOAD SWAP1 PUSH3 0x461BCD PUSH1 0xE5 SHL DUP3 MSTORE DUP1 PUSH1 0x4 DUP4 ADD MSTORE PUSH1 0x24 DUP3 ADD MSTORE PUSH32 0x566F6C756D654261736564466565643A20726561736F6E207265717569726564 PUSH1 0x44 DUP3 ADD MSTORE REVERT JUMPDEST POP PUSH1 0x4 SLOAD DUP4 LT PUSH2 0x156C JUMP JUMPDEST CALLVALUE PUSH2 0x200 JUMPI PUSH1 0x0 CALLDATASIZE PUSH1 0x3 NOT ADD SLT PUSH2 0x200 JUMPI PUSH2 0x1705 PUSH2 0x1C95 JUMP JUMPDEST PUSH1 0x2 SLOAD PUSH1 0xFF DUP2 AND ISZERO PUSH2 0x1744 JUMPI PUSH1 0xFF NOT AND PUSH1 0x2 SSTORE PUSH32 0x5DB9EE0A495BF2E6FF9C91A7834C1BA4FDD244A5E8AA4E537BD38AEAE4B073AA PUSH1 0x20 PUSH1 0x40 MLOAD CALLER DUP2 MSTORE LOG1 STOP JUMPDEST PUSH1 0x40 MLOAD PUSH4 0x8DFC202B PUSH1 0xE0 SHL DUP2 MSTORE PUSH1 0x4 SWAP1 REVERT JUMPDEST CALLVALUE PUSH2 0x200 JUMPI PUSH1 0x40 CALLDATASIZE PUSH1 0x3 NOT ADD SLT PUSH2 0x200 JUMPI PUSH2 0x176F PUSH2 0x1A91 JUMP JUMPDEST CALLER PUSH1 0x1 PUSH1 0x1 PUSH1 0xA0 SHL SUB DUP3 AND SUB PUSH2 0x178B JUMPI PUSH2 0x27F SWAP1 PUSH1 0x4 CALLDATALOAD PUSH2 0x1F72 JUMP JUMPDEST PUSH1 0x40 MLOAD PUSH4 0x334BD919 PUSH1 0xE1 SHL DUP2 MSTORE PUSH1 0x4 SWAP1 REVERT JUMPDEST CALLVALUE PUSH2 0x200 JUMPI PUSH1 0x0 CALLDATASIZE PUSH1 0x3 NOT ADD SLT PUSH2 0x200 JUMPI PUSH1 0x3 SLOAD PUSH1 0x40 MLOAD PUSH1 0x1 PUSH1 0x1 PUSH1 0xA0 SHL SUB SWAP1 SWAP2 AND DUP2 MSTORE PUSH1 0x20 SWAP1 RETURN JUMPDEST CALLVALUE PUSH2 0x200 JUMPI PUSH1 0x40 CALLDATASIZE PUSH1 0x3 NOT ADD SLT PUSH2 0x200 JUMPI PUSH2 0x27F PUSH1 0x4 CALLDATALOAD PUSH2 0x17E5 PUSH2 0x1A91 JUMP JUMPDEST SWAP1 DUP1 PUSH1 0x0 MSTORE PUSH1 0x0 PUSH1 0x20 MSTORE PUSH2 0x1800 PUSH1 0x1 PUSH1 0x40 PUSH1 0x0 KECCAK256 ADD SLOAD PUSH2 0x1CED JUMP JUMPDEST PUSH2 0x1E60 JUMP JUMPDEST CALLVALUE PUSH2 0x200 JUMPI PUSH1 0x0 CALLDATASIZE PUSH1 0x3 NOT ADD SLT PUSH2 0x200 JUMPI PUSH1 0x20 PUSH1 0x40 MLOAD PUSH32 0x70B284DA8BFC3DE812DAA2261B4C3FFADD90C2C772295293D09C9629A737A0CD DUP2 MSTORE RETURN JUMPDEST CALLVALUE PUSH2 0x200 JUMPI PUSH1 0x20 CALLDATASIZE PUSH1 0x3 NOT ADD SLT PUSH2 0x200 JUMPI PUSH1 0x4 CALLDATALOAD PUSH1 0x0 MSTORE PUSH1 0x0 PUSH1 0x20 MSTORE PUSH1 0x20 PUSH1 0x1 PUSH1 0x40 PUSH1 0x0 KECCAK256 ADD SLOAD PUSH1 0x40 MLOAD SWAP1 DUP2 MSTORE RETURN JUMPDEST CALLVALUE PUSH2 0x200 JUMPI PUSH1 0x20 CALLDATASIZE PUSH1 0x3 NOT ADD SLT PUSH2 0x200 JUMPI PUSH2 0x1888 PUSH2 0x1A7B JUMP JUMPDEST PUSH2 0x1890 PUSH2 0x1C95 JUMP JUMPDEST PUSH1 0x2 DUP1 SLOAD PUSH2 0x100 PUSH1 0x1 PUSH1 0xA8 SHL SUB NOT AND PUSH1 0x8 SWAP3 SWAP1 SWAP3 SHL PUSH2 0x100 PUSH1 0x1 PUSH1 0xA8 SHL SUB AND SWAP2 SWAP1 SWAP2 OR SWAP1 SSTORE STOP JUMPDEST CALLVALUE PUSH2 0x200 JUMPI PUSH1 0x20 CALLDATASIZE PUSH1 0x3 NOT ADD SLT PUSH2 0x200 JUMPI PUSH1 0x4 CALLDATALOAD PUSH2 0x18D3 PUSH2 0x1C95 JUMP JUMPDEST PUSH2 0x258 DUP2 LT ISZERO DUP1 PUSH2 0x192D JUMPI JUMPDEST ISZERO PUSH2 0x18E9 JUMPI PUSH1 0x7 SSTORE STOP JUMPDEST PUSH1 0x64 PUSH1 0x40 MLOAD PUSH3 0x461BCD PUSH1 0xE5 SHL DUP2 MSTORE PUSH1 0x20 PUSH1 0x4 DUP3 ADD MSTORE PUSH1 0x20 PUSH1 0x24 DUP3 ADD MSTORE PUSH32 0x566F6C756D654261736564466565643A20696E76616C69642074696D656F7574 PUSH1 0x44 DUP3 ADD MSTORE REVERT JUMPDEST POP PUSH2 0x1C20 DUP2 GT ISZERO PUSH2 0x18DF JUMP JUMPDEST CALLVALUE PUSH2 0x200 JUMPI PUSH1 0x20 DUP1 PUSH1 0x3 NOT CALLDATASIZE ADD SLT PUSH2 0x200 JUMPI PUSH8 0xFFFFFFFFFFFFFFFF PUSH1 0x4 CALLDATALOAD DUP2 DUP2 GT PUSH2 0x200 JUMPI CALLDATASIZE PUSH1 0x23 DUP3 ADD SLT ISZERO PUSH2 0x200 JUMPI DUP1 PUSH1 0x4 ADD CALLDATALOAD SWAP2 DUP3 GT PUSH2 0x200 JUMPI PUSH1 0x24 SWAP1 PUSH1 0x5 CALLDATASIZE DUP4 DUP6 DUP4 SHL DUP5 ADD ADD GT PUSH2 0x200 JUMPI PUSH2 0x198F PUSH2 0x1C95 JUMP JUMPDEST PUSH1 0x0 JUMPDEST DUP5 DUP2 LT PUSH2 0x199B JUMPI STOP JUMPDEST DUP1 DUP3 SHL DUP4 ADD DUP5 ADD CALLDATALOAD SWAP1 PUSH1 0x1 PUSH1 0x1 PUSH1 0xA0 SHL SUB DUP3 AND DUP3 SUB PUSH2 0x200 JUMPI PUSH2 0x19E2 PUSH2 0x19E8 SWAP3 PUSH1 0x0 DUP1 MLOAD PUSH1 0x20 PUSH2 0x23F2 DUP4 CODECOPY DUP2 MLOAD SWAP2 MSTORE PUSH1 0x0 MSTORE PUSH1 0x0 DUP10 MSTORE PUSH2 0x11C4 PUSH1 0x1 PUSH1 0x40 PUSH1 0x0 KECCAK256 ADD SLOAD PUSH2 0x1CED JUMP JUMPDEST POP PUSH2 0x2043 JUMP JUMPDEST PUSH2 0x1992 JUMP JUMPDEST CALLVALUE PUSH2 0x200 JUMPI PUSH1 0x0 CALLDATASIZE PUSH1 0x3 NOT ADD SLT PUSH2 0x200 JUMPI PUSH1 0x20 PUSH1 0x40 MLOAD PUSH32 0xBA279271FB7BBF76A6F3DF3CC57BF80647FCAFDEA60EC3383D90F459DE74E7C0 DUP2 MSTORE RETURN JUMPDEST CALLVALUE PUSH2 0x200 JUMPI PUSH1 0x20 CALLDATASIZE PUSH1 0x3 NOT ADD SLT PUSH2 0x200 JUMPI PUSH1 0x4 CALLDATALOAD SWAP1 PUSH4 0xFFFFFFFF PUSH1 0xE0 SHL DUP3 AND DUP1 SWAP3 SUB PUSH2 0x200 JUMPI PUSH1 0x20 SWAP2 PUSH4 0x7965DB0B PUSH1 0xE0 SHL DUP2 EQ SWAP1 DUP2 ISZERO PUSH2 0x1A6A JUMPI JUMPDEST POP ISZERO ISZERO DUP2 MSTORE RETURN JUMPDEST PUSH4 0x1FFC9A7 PUSH1 0xE0 SHL EQ SWAP1 POP DUP4 PUSH2 0x1A63 JUMP JUMPDEST PUSH1 0x4 CALLDATALOAD SWAP1 PUSH1 0x1 PUSH1 0x1 PUSH1 0xA0 SHL SUB DUP3 AND DUP3 SUB PUSH2 0x200 JUMPI JUMP JUMPDEST PUSH1 0x24 CALLDATALOAD SWAP1 PUSH1 0x1 PUSH1 0x1 PUSH1 0xA0 SHL SUB DUP3 AND DUP3 SUB PUSH2 0x200 JUMPI JUMP JUMPDEST SWAP2 DUP2 PUSH1 0x1F DUP5 ADD SLT ISZERO PUSH2 0x200 JUMPI DUP3 CALLDATALOAD SWAP2 PUSH8 0xFFFFFFFFFFFFFFFF DUP4 GT PUSH2 0x200 JUMPI PUSH1 0x20 DUP4 DUP2 DUP7 ADD SWAP6 ADD ADD GT PUSH2 0x200 JUMPI JUMP JUMPDEST SWAP1 PUSH1 0x1 DUP3 DUP2 SHR SWAP3 AND DUP1 ISZERO PUSH2 0x1B05 JUMPI JUMPDEST PUSH1 0x20 DUP4 LT EQ PUSH2 0x1AEF JUMPI JUMP JUMPDEST PUSH4 0x4E487B71 PUSH1 0xE0 SHL PUSH1 0x0 MSTORE PUSH1 0x22 PUSH1 0x4 MSTORE PUSH1 0x24 PUSH1 0x0 REVERT JUMPDEST SWAP2 PUSH1 0x7F AND SWAP2 PUSH2 0x1AE4 JUMP JUMPDEST PUSH2 0x1E0 DUP2 ADD SWAP1 DUP2 LT PUSH8 0xFFFFFFFFFFFFFFFF DUP3 GT OR PUSH2 0xB8E JUMPI PUSH1 0x40 MSTORE JUMP JUMPDEST PUSH1 0x40 DUP2 ADD SWAP1 DUP2 LT PUSH8 0xFFFFFFFFFFFFFFFF DUP3 GT OR PUSH2 0xB8E JUMPI PUSH1 0x40 MSTORE JUMP JUMPDEST SWAP1 PUSH1 0x1F DUP1 NOT SWAP2 ADD AND DUP2 ADD SWAP1 DUP2 LT PUSH8 0xFFFFFFFFFFFFFFFF DUP3 GT OR PUSH2 0xB8E JUMPI PUSH1 0x40 MSTORE JUMP JUMPDEST SWAP1 PUSH1 0x40 MLOAD SWAP2 DUP3 PUSH1 0x0 DUP3 SLOAD SWAP3 PUSH2 0x1B7E DUP5 PUSH2 0x1AD5 JUMP JUMPDEST SWAP1 DUP2 DUP5 MSTORE PUSH1 0x1 SWAP5 DUP6 DUP2 AND SWAP1 DUP2 PUSH1 0x0 EQ PUSH2 0x1BED JUMPI POP PUSH1 0x1 EQ PUSH2 0x1BAA JUMPI JUMPDEST POP POP PUSH2 0x1BA8 SWAP3 POP SUB DUP4 PUSH2 0x1B48 JUMP JUMPDEST JUMP JUMPDEST SWAP1 SWAP4 SWAP2 POP PUSH1 0x0 MSTORE PUSH1 0x20 SWAP1 DUP2 PUSH1 0x0 KECCAK256 SWAP4 PUSH1 0x0 SWAP2 JUMPDEST DUP2 DUP4 LT PUSH2 0x1BD5 JUMPI POP POP PUSH2 0x1BA8 SWAP4 POP DUP3 ADD ADD CODESIZE DUP1 PUSH2 0x1B9A JUMP JUMPDEST DUP6 SLOAD DUP9 DUP5 ADD DUP6 ADD MSTORE SWAP5 DUP6 ADD SWAP5 DUP8 SWAP5 POP SWAP2 DUP4 ADD SWAP2 PUSH2 0x1BBD JUMP JUMPDEST SWAP2 POP POP PUSH2 0x1BA8 SWAP5 POP PUSH1 0x20 SWAP3 POP PUSH1 0xFF NOT AND DUP3 DUP5 ADD MSTORE ISZERO ISZERO PUSH1 0x5 SHL DUP3 ADD ADD CODESIZE DUP1 PUSH2 0x1B9A JUMP JUMPDEST SWAP2 SWAP1 DUP3 MLOAD SWAP3 DUP4 DUP3 MSTORE PUSH1 0x0 JUMPDEST DUP5 DUP2 LT PUSH2 0x1C3C JUMPI POP POP DUP3 PUSH1 0x0 PUSH1 0x20 DUP1 SWAP5 SWAP6 DUP5 ADD ADD MSTORE PUSH1 0x1F DUP1 NOT SWAP2 ADD AND ADD ADD SWAP1 JUMP JUMPDEST PUSH1 0x20 DUP2 DUP4 ADD DUP2 ADD MLOAD DUP5 DUP4 ADD DUP3 ADD MSTORE ADD PUSH2 0x1C1B JUMP JUMPDEST PUSH1 0x6 GT ISZERO PUSH2 0xBA4 JUMPI JUMP JUMPDEST SWAP1 PUSH1 0x4 DUP3 LT ISZERO PUSH2 0xBA4 JUMPI MSTORE JUMP JUMPDEST DUP1 SLOAD DUP3 LT ISZERO PUSH2 0x1C7F JUMPI PUSH1 0x0 MSTORE PUSH1 0x20 PUSH1 0x0 KECCAK256 ADD SWAP1 PUSH1 0x0 SWAP1 JUMP JUMPDEST PUSH4 0x4E487B71 PUSH1 0xE0 SHL PUSH1 0x0 MSTORE PUSH1 0x32 PUSH1 0x4 MSTORE PUSH1 0x24 PUSH1 0x0 REVERT JUMPDEST CALLER PUSH1 0x0 SWAP1 DUP2 MSTORE PUSH32 0xAD3228B676F7D3CD4284A5443F17F1962B36E491B30A40B2405849E597BA5FB5 PUSH1 0x20 MSTORE PUSH1 0x40 DUP2 KECCAK256 SLOAD PUSH1 0xFF AND ISZERO PUSH2 0x1CCF JUMPI POP JUMP JUMPDEST PUSH1 0x44 SWAP1 PUSH1 0x40 MLOAD SWAP1 PUSH4 0xE2517D3F PUSH1 0xE0 SHL DUP3 MSTORE CALLER PUSH1 0x4 DUP4 ADD MSTORE PUSH1 0x24 DUP3 ADD MSTORE REVERT JUMPDEST DUP1 PUSH1 0x0 MSTORE PUSH1 0x0 PUSH1 0x20 MSTORE PUSH1 0x40 PUSH1 0x0 KECCAK256 CALLER PUSH1 0x0 MSTORE PUSH1 0x20 MSTORE PUSH1 0xFF PUSH1 0x40 PUSH1 0x0 KECCAK256 SLOAD AND ISZERO PUSH2 0x1CCF JUMPI POP JUMP JUMPDEST PUSH1 0x1 PUSH1 0x1 PUSH1 0xA0 SHL SUB AND PUSH1 0x0 DUP2 DUP2 MSTORE PUSH32 0xF3DF2CAD0328610BDABAAA4666352F9E79B67A748D22942CD8AEC92E2FBDA4B7 PUSH1 0x20 MSTORE PUSH1 0x40 DUP2 KECCAK256 SLOAD SWAP1 SWAP2 SWAP1 PUSH1 0x0 DUP1 MLOAD PUSH1 0x20 PUSH2 0x23F2 DUP4 CODECOPY DUP2 MLOAD SWAP2 MSTORE SWAP1 PUSH1 0xFF AND PUSH2 0x1DAE JUMPI DUP1 DUP4 MSTORE DUP3 PUSH1 0x20 MSTORE PUSH1 0x40 DUP4 KECCAK256 DUP3 DUP5 MSTORE PUSH1 0x20 MSTORE PUSH1 0x40 DUP4 KECCAK256 PUSH1 0x1 PUSH1 0xFF NOT DUP3 SLOAD AND OR SWAP1 SSTORE PUSH32 0x2F8788117E7EFF1D82E926EC794901D17C78024A50270940304540A733656F0D CALLER SWAP4 DUP1 LOG4 PUSH1 0x1 SWAP1 JUMP JUMPDEST POP POP SWAP1 JUMP JUMPDEST PUSH1 0x1 PUSH1 0x1 PUSH1 0xA0 SHL SUB AND PUSH1 0x0 DUP2 DUP2 MSTORE PUSH32 0xBB186CC6582165753931A58FDAAC99B9482F9D63C76229808BD3AFC382E98215 PUSH1 0x20 MSTORE PUSH1 0x40 DUP2 KECCAK256 SLOAD SWAP1 SWAP2 SWAP1 PUSH32 0xBA279271FB7BBF76A6F3DF3CC57BF80647FCAFDEA60EC3383D90F459DE74E7C0 SWAP1 PUSH1 0xFF AND PUSH2 0x1DAE JUMPI DUP1 DUP4 MSTORE DUP3 PUSH1 0x20 MSTORE PUSH1 0x40 DUP4 KECCAK256 DUP3 DUP5 MSTORE PUSH1 0x20 MSTORE PUSH1 0x40 DUP4 KECCAK256 PUSH1 0x1 PUSH1 0xFF NOT DUP3 SLOAD AND OR SWAP1 SSTORE PUSH32 0x2F8788117E7EFF1D82E926EC794901D17C78024A50270940304540A733656F0D CALLER SWAP4 DUP1 LOG4 PUSH1 0x1 SWAP1 JUMP JUMPDEST SWAP1 PUSH1 0x0 SWAP2 DUP1 DUP4 MSTORE DUP3 PUSH1 0x20 MSTORE PUSH1 0x40 DUP4 KECCAK256 SWAP2 PUSH1 0x1 DUP1 PUSH1 0xA0 SHL SUB AND SWAP2 DUP3 DUP5 MSTORE PUSH1 0x20 MSTORE PUSH1 0xFF PUSH1 0x40 DUP5 KECCAK256 SLOAD AND ISZERO PUSH1 0x0 EQ PUSH2 0x1DAE JUMPI DUP1 DUP4 MSTORE DUP3 PUSH1 0x20 MSTORE PUSH1 0x40 DUP4 KECCAK256 DUP3 DUP5 MSTORE PUSH1 0x20 MSTORE PUSH1 0x40 DUP4 KECCAK256 PUSH1 0x1 PUSH1 0xFF NOT DUP3 SLOAD AND OR SWAP1 SSTORE PUSH32 0x2F8788117E7EFF1D82E926EC794901D17C78024A50270940304540A733656F0D CALLER SWAP4 DUP1 LOG4 PUSH1 0x1 SWAP1 JUMP JUMPDEST PUSH1 0x1 PUSH1 0x1 PUSH1 0xA0 SHL SUB AND PUSH1 0x0 DUP2 DUP2 MSTORE PUSH32 0xF3DF2CAD0328610BDABAAA4666352F9E79B67A748D22942CD8AEC92E2FBDA4B7 PUSH1 0x20 MSTORE PUSH1 0x40 DUP2 KECCAK256 SLOAD SWAP1 SWAP2 SWAP1 PUSH1 0x0 DUP1 MLOAD PUSH1 0x20 PUSH2 0x23F2 DUP4 CODECOPY DUP2 MLOAD SWAP2 MSTORE SWAP1 PUSH1 0xFF AND ISZERO PUSH2 0x1DAE JUMPI DUP1 DUP4 MSTORE DUP3 PUSH1 0x20 MSTORE PUSH1 0x40 DUP4 KECCAK256 DUP3 DUP5 MSTORE PUSH1 0x20 MSTORE PUSH1 0x40 DUP4 KECCAK256 PUSH1 0xFF NOT DUP2 SLOAD AND SWAP1 SSTORE PUSH32 0xF6391F5C32D9C69D2A47EA670B442974B53935D1EDC7FD64EB21E047A839171B CALLER SWAP4 DUP1 LOG4 PUSH1 0x1 SWAP1 JUMP JUMPDEST SWAP1 PUSH1 0x0 SWAP2 DUP1 DUP4 MSTORE DUP3 PUSH1 0x20 MSTORE PUSH1 0x40 DUP4 KECCAK256 SWAP2 PUSH1 0x1 DUP1 PUSH1 0xA0 SHL SUB AND SWAP2 DUP3 DUP5 MSTORE PUSH1 0x20 MSTORE PUSH1 0xFF PUSH1 0x40 DUP5 KECCAK256 SLOAD AND PUSH1 0x0 EQ PUSH2 0x1DAE JUMPI DUP1 DUP4 MSTORE DUP3 PUSH1 0x20 MSTORE PUSH1 0x40 DUP4 KECCAK256 DUP3 DUP5 MSTORE PUSH1 0x20 MSTORE PUSH1 0x40 DUP4 KECCAK256 PUSH1 0xFF NOT DUP2 SLOAD AND SWAP1 SSTORE PUSH32 0xF6391F5C32D9C69D2A47EA670B442974B53935D1EDC7FD64EB21E047A839171B CALLER SWAP4 DUP1 LOG4 PUSH1 0x1 SWAP1 JUMP JUMPDEST ISZERO PUSH2 0x1FEE JUMPI JUMP JUMPDEST PUSH1 0x40 MLOAD PUSH3 0x461BCD PUSH1 0xE5 SHL DUP2 MSTORE PUSH1 0x20 PUSH1 0x4 DUP3 ADD MSTORE PUSH1 0x27 PUSH1 0x24 DUP3 ADD MSTORE PUSH32 0x566F6C756D654261736564466565643A207072696365206D7573742062652070 PUSH1 0x44 DUP3 ADD MSTORE PUSH7 0x6F736974697665 PUSH1 0xC8 SHL PUSH1 0x64 DUP3 ADD MSTORE PUSH1 0x84 SWAP1 REVERT JUMPDEST PUSH1 0x0 NOT DUP2 EQ PUSH2 0xCB5 JUMPI PUSH1 0x1 ADD SWAP1 JUMP JUMPDEST PUSH1 0x4 DUP3 LT ISZERO PUSH2 0xBA4 JUMPI MSTORE JUMP JUMPDEST SWAP1 PUSH1 0x1F DUP2 GT PUSH2 0x206C JUMPI POP POP POP JUMP JUMPDEST PUSH1 0x0 SWAP2 DUP3 MSTORE PUSH1 0x20 DUP3 KECCAK256 SWAP1 PUSH1 0x20 PUSH1 0x1F DUP6 ADD PUSH1 0x5 SHR DUP4 ADD SWAP5 LT PUSH2 0x20A8 JUMPI JUMPDEST PUSH1 0x1F ADD PUSH1 0x5 SHR ADD SWAP2 JUMPDEST DUP3 DUP2 LT PUSH2 0x209D JUMPI POP POP POP JUMP JUMPDEST DUP2 DUP2 SSTORE PUSH1 0x1 ADD PUSH2 0x2091 JUMP JUMPDEST SWAP1 SWAP3 POP DUP3 SWAP1 PUSH2 0x2088 JUMP JUMPDEST SWAP1 PUSH2 0x20BC DUP2 PUSH2 0x1C50 JUMP JUMPDEST PUSH2 0xFF00 DUP3 SLOAD SWAP2 PUSH1 0x8 SHL AND SWAP1 PUSH2 0xFF00 NOT AND OR SWAP1 SSTORE JUMP JUMPDEST SWAP1 DUP1 PUSH1 0x20 SWAP4 SWAP3 DUP2 DUP5 MSTORE DUP5 DUP5 ADD CALLDATACOPY PUSH1 0x0 DUP3 DUP3 ADD DUP5 ADD MSTORE PUSH1 0x1F ADD PUSH1 0x1F NOT AND ADD ADD SWAP1 JUMP JUMPDEST PUSH1 0xFF PUSH1 0x2 SLOAD AND PUSH2 0x20FE JUMPI JUMP JUMPDEST PUSH1 0x40 MLOAD PUSH4 0xD93C0665 PUSH1 0xE0 SHL DUP2 MSTORE PUSH1 0x4 SWAP1 REVERT JUMPDEST PUSH1 0x2 PUSH1 0x1 SLOAD EQ PUSH2 0x2121 JUMPI PUSH1 0x2 PUSH1 0x1 SSTORE JUMP JUMPDEST PUSH1 0x40 MLOAD PUSH4 0x3EE5AEB5 PUSH1 0xE0 SHL DUP2 MSTORE PUSH1 0x4 SWAP1 REVERT JUMPDEST ISZERO PUSH2 0x213A JUMPI JUMP JUMPDEST PUSH1 0x64 PUSH1 0x40 MLOAD PUSH3 0x461BCD PUSH1 0xE5 SHL DUP2 MSTORE PUSH1 0x20 PUSH1 0x4 DUP3 ADD MSTORE PUSH1 0x20 PUSH1 0x24 DUP3 ADD MSTORE PUSH32 0x566F6C756D654261736564466565643A20696E76616C69642072657175657374 PUSH1 0x44 DUP3 ADD MSTORE REVERT JUMPDEST ISZERO PUSH2 0x2185 JUMPI JUMP JUMPDEST PUSH1 0x40 MLOAD PUSH3 0x461BCD PUSH1 0xE5 SHL DUP2 MSTORE PUSH1 0x20 PUSH1 0x4 DUP3 ADD MSTORE PUSH1 0x24 DUP1 DUP3 ADD MSTORE PUSH32 0x566F6C756D654261736564466565643A2072657175657374206E6F742070656E PUSH1 0x44 DUP3 ADD MSTORE PUSH4 0x64696E67 PUSH1 0xE0 SHL PUSH1 0x64 DUP3 ADD MSTORE PUSH1 0x84 SWAP1 REVERT JUMPDEST ISZERO PUSH2 0x21DD JUMPI JUMP JUMPDEST PUSH1 0x40 MLOAD PUSH3 0x461BCD PUSH1 0xE5 SHL DUP2 MSTORE PUSH1 0x20 PUSH1 0x4 DUP3 ADD MSTORE PUSH1 0x26 PUSH1 0x24 DUP3 ADD MSTORE PUSH32 0x566F6C756D654261736564466565643A206E6F7420617574686F72697A656420 PUSH1 0x44 DUP3 ADD MSTORE PUSH6 0x3332B2B232B9 PUSH1 0xD1 SHL PUSH1 0x64 DUP3 ADD MSTORE PUSH1 0x84 SWAP1 REVERT JUMPDEST ISZERO PUSH2 0x2238 JUMPI JUMP JUMPDEST PUSH1 0x64 PUSH1 0x40 MLOAD PUSH3 0x461BCD PUSH1 0xE5 SHL DUP2 MSTORE PUSH1 0x20 PUSH1 0x4 DUP3 ADD MSTORE PUSH1 0x20 PUSH1 0x24 DUP3 ADD MSTORE PUSH32 0x566F6C756D654261736564466565643A20726571756573742065787069726564 PUSH1 0x44 DUP3 ADD MSTORE REVERT JUMPDEST PUSH2 0x2285 DUP2 PUSH2 0x1C50 JUMP JUMPDEST DUP1 ISZERO PUSH2 0x23BF JUMPI PUSH2 0x2294 DUP2 PUSH2 0x1C50 JUMP JUMPDEST PUSH1 0x1 DUP2 EQ PUSH2 0x2385 JUMPI PUSH2 0x22A5 DUP2 PUSH2 0x1C50 JUMP JUMPDEST PUSH1 0x2 DUP2 EQ PUSH2 0x2358 JUMPI PUSH2 0x22B6 DUP2 PUSH2 0x1C50 JUMP JUMPDEST PUSH1 0x3 DUP2 EQ PUSH2 0x2328 JUMPI DUP1 PUSH2 0x22CA PUSH1 0x4 SWAP3 PUSH2 0x1C50 JUMP JUMPDEST EQ PUSH2 0x22F7 JUMPI PUSH1 0x40 MLOAD PUSH2 0x22DB DUP2 PUSH2 0x1B2C JUMP JUMPDEST PUSH1 0xC DUP2 MSTORE PUSH12 0x27BA3432B9103932B0B9B7B7 PUSH1 0xA1 SHL PUSH1 0x20 DUP3 ADD MSTORE SWAP1 JUMP JUMPDEST PUSH1 0x40 MLOAD PUSH2 0x2303 DUP2 PUSH2 0x1B2C JUMP JUMPDEST PUSH1 0x15 DUP2 MSTORE PUSH21 0x507269636520697320756E726561736F6E61626C65 PUSH1 0x58 SHL PUSH1 0x20 DUP3 ADD MSTORE SWAP1 JUMP JUMPDEST POP PUSH1 0x40 MLOAD PUSH2 0x2335 DUP2 PUSH2 0x1B2C JUMP JUMPDEST PUSH1 0x13 DUP2 MSTORE PUSH19 0x5072696365206E6F7420617661696C61626C65 PUSH1 0x68 SHL PUSH1 0x20 DUP3 ADD MSTORE SWAP1 JUMP JUMPDEST POP PUSH1 0x40 MLOAD PUSH2 0x2365 DUP2 PUSH2 0x1B2C JUMP JUMPDEST PUSH1 0x10 DUP2 MSTORE PUSH16 0x13585C9AD95D081A5CC818DB1BDCD959 PUSH1 0x82 SHL PUSH1 0x20 DUP3 ADD MSTORE SWAP1 JUMP JUMPDEST POP PUSH1 0x40 MLOAD PUSH2 0x2392 DUP2 PUSH2 0x1B2C JUMP JUMPDEST PUSH1 0x1B DUP2 MSTORE PUSH32 0x4E6F2074726164696E6720766F6C756D6520617661696C61626C650000000000 PUSH1 0x20 DUP3 ADD MSTORE SWAP1 JUMP JUMPDEST POP PUSH1 0x40 MLOAD PUSH2 0x23CC DUP2 PUSH2 0x1B2C JUMP JUMPDEST PUSH1 0x15 DUP2 MSTORE PUSH21 0x150AD60818DBDB991A5D1A5BDB881B9BDD081B595D PUSH1 0x5A SHL PUSH1 0x20 DUP3 ADD MSTORE SWAP1 JUMP INVALID DUP1 0xA5 DUP7 0xCC 0x4E 0xCF BLOCKHASH LOG3 SWAP1 0xB3 PUSH17 0xBE075AA38AB3CC512C5C1A7BC1007974DB 0xDF 0x26 PUSH4 0xC7A26469 PUSH17 0x667358221220F9549625ADA3C17BD9B89C 0x1E 0xC3 SWAP9 0xA9 AND 0x28 0x5C AND 0xE7 PUSH22 0xFECACFDB2F9D4C99C9E92764736F6C63430008140033 0x2F DUP8 DUP9 GT PUSH31 0x7EFF1D82E926EC794901D17C78024A50270940304540A733656F0D00000000 "},"methodIdentifiers":{"DEFAULT_ADMIN_ROLE()":"a217fddf","FEEDER_ROLE()":"ceb20971","FEED_OPERATOR_ROLE()":"2f0165ca","PROTOCOL_ROLE()":"02768de4","approvePrice(uint256)":"b7bb5589","config()":"79502c55","getFinalPrice(uint256)":"4b554954","getOrderVolumeRequests(uint256)":"8a83d7b5","getRejectReasonString(uint8)":"bc42a999","getRequest(uint256)":"c58343ef","getRequestStatus(uint256)":"d8a4676f","getRoleAdmin(bytes32)":"248a9ca3","grantFeederRole(address)":"59a1c35d","grantFeederRoleBatch(address[])":"09e7c673","grantProtocolRole(address)":"c7c7b02f","grantRole(bytes32,address)":"2f2ff15d","hasRole(bytes32,address)":"91d14854","isExpired(uint256)":"d9548e53","markExpired(uint256)":"77fd00c5","modifyPrice(uint256,uint256,string)":"42ae7b63","nextRequestId()":"6a84a985","orderVolumeRequests(uint256,uint256)":"a3c4eed4","pause()":"8456cb59","paused()":"5c975abb","rejectPrice(uint256,uint8,string)":"571dd963","renounceRole(bytes32,address)":"36568abe","requests(uint256)":"81d12c58","revokeFeederRole(address)":"7bdb81c7","revokeRole(bytes32,address)":"d547741f","setConfig(address)":"20e3dbd4","setVerificationTimeout(uint256)":"18433a7e","submitSuggestedPrice(uint256,uint256,string,uint8,bool)":"9bd2de80","supportsInterface(bytes4)":"01ffc9a7","unpause()":"3f4ba83a","usdt()":"2f48ab7d","verificationTimeout()":"afc1d8cc"}}}}}