{"contracts/vault/VaultManager.sol":{"VaultManager":{"abi":[{"inputs":[{"internalType":"address","name":"_config","type":"address"},{"internalType":"address","name":"_admin","type":"address"}],"stateMutability":"nonpayable","type":"constructor"},{"inputs":[],"name":"AccessControlBadConfirmation","type":"error"},{"inputs":[{"internalType":"address","name":"account","type":"address"},{"internalType":"bytes32","name":"neededRole","type":"bytes32"}],"name":"AccessControlUnauthorizedAccount","type":"error"},{"inputs":[],"name":"EnforcedPause","type":"error"},{"inputs":[],"name":"ExpectedPause","type":"error"},{"inputs":[],"name":"ReentrancyGuardReentrantCall","type":"error"},{"inputs":[{"internalType":"address","name":"token","type":"address"}],"name":"SafeERC20FailedOperation","type":"error"},{"anonymous":false,"inputs":[{"indexed":true,"internalType":"address","name":"token","type":"address"},{"indexed":false,"internalType":"uint256","name":"amount","type":"uint256"},{"indexed":false,"internalType":"string","name":"feeType","type":"string"},{"indexed":false,"internalType":"uint256","name":"timestamp","type":"uint256"}],"name":"FeeCollected","type":"event"},{"anonymous":false,"inputs":[{"indexed":true,"internalType":"address","name":"user","type":"address"},{"indexed":true,"internalType":"address","name":"token","type":"address"},{"indexed":false,"internalType":"uint256","name":"amount","type":"uint256"},{"indexed":false,"internalType":"uint256","name":"timestamp","type":"uint256"}],"name":"MarginDeposited","type":"event"},{"anonymous":false,"inputs":[{"indexed":true,"internalType":"address","name":"from","type":"address"},{"indexed":true,"internalType":"address","name":"to","type":"address"},{"indexed":true,"internalType":"address","name":"token","type":"address"},{"indexed":false,"internalType":"uint256","name":"amount","type":"uint256"},{"indexed":false,"internalType":"string","name":"reason","type":"string"},{"indexed":false,"internalType":"uint256","name":"timestamp","type":"uint256"}],"name":"MarginTransferred","type":"event"},{"anonymous":false,"inputs":[{"indexed":true,"internalType":"address","name":"user","type":"address"},{"indexed":true,"internalType":"address","name":"token","type":"address"},{"indexed":false,"internalType":"uint256","name":"amount","type":"uint256"},{"indexed":false,"internalType":"uint256","name":"timestamp","type":"uint256"}],"name":"MarginWithdrawn","type":"event"},{"anonymous":false,"inputs":[{"indexed":false,"internalType":"address","name":"account","type":"address"}],"name":"Paused","type":"event"},{"anonymous":false,"inputs":[{"indexed":true,"internalType":"address","name":"token","type":"address"},{"indexed":false,"internalType":"uint256","name":"amount","type":"uint256"},{"indexed":false,"internalType":"string","name":"poolType","type":"string"},{"indexed":false,"internalType":"uint256","name":"timestamp","type":"uint256"}],"name":"ProfitDistributed","type":"event"},{"anonymous":false,"inputs":[{"indexed":true,"internalType":"bytes32","name":"role","type":"bytes32"},{"indexed":true,"internalType":"bytes32","name":"previousAdminRole","type":"bytes32"},{"indexed":true,"internalType":"bytes32","name":"newAdminRole","type":"bytes32"}],"name":"RoleAdminChanged","type":"event"},{"anonymous":false,"inputs":[{"indexed":true,"internalType":"bytes32","name":"role","type":"bytes32"},{"indexed":true,"internalType":"address","name":"account","type":"address"},{"indexed":true,"internalType":"address","name":"sender","type":"address"}],"name":"RoleGranted","type":"event"},{"anonymous":false,"inputs":[{"indexed":true,"internalType":"bytes32","name":"role","type":"bytes32"},{"indexed":true,"internalType":"address","name":"account","type":"address"},{"indexed":true,"internalType":"address","name":"sender","type":"address"}],"name":"RoleRevoked","type":"event"},{"anonymous":false,"inputs":[{"indexed":false,"internalType":"address","name":"account","type":"address"}],"name":"Unpaused","type":"event"},{"inputs":[],"name":"DEFAULT_ADMIN_ROLE","outputs":[{"internalType":"bytes32","name":"","type":"bytes32"}],"stateMutability":"view","type":"function"},{"inputs":[],"name":"VAULT_OPERATOR_ROLE","outputs":[{"internalType":"bytes32","name":"","type":"bytes32"}],"stateMutability":"view","type":"function"},{"inputs":[{"internalType":"address","name":"_user","type":"address"},{"internalType":"address","name":"_token","type":"address"},{"internalType":"uint256","name":"_amount","type":"uint256"},{"internalType":"string","name":"_feeType","type":"string"}],"name":"collectFee","outputs":[],"stateMutability":"nonpayable","type":"function"},{"inputs":[],"name":"config","outputs":[{"internalType":"contract Config","name":"","type":"address"}],"stateMutability":"view","type":"function"},{"inputs":[{"internalType":"address","name":"_user","type":"address"},{"internalType":"address","name":"_token","type":"address"},{"internalType":"uint256","name":"_amount","type":"uint256"}],"name":"depositMargin","outputs":[],"stateMutability":"nonpayable","type":"function"},{"inputs":[{"internalType":"address","name":"_token","type":"address"},{"internalType":"uint256","name":"_amount","type":"uint256"}],"name":"distributeProfits","outputs":[],"stateMutability":"nonpayable","type":"function"},{"inputs":[{"internalType":"address","name":"","type":"address"}],"name":"donationPoolBalance","outputs":[{"internalType":"uint256","name":"","type":"uint256"}],"stateMutability":"view","type":"function"},{"inputs":[{"internalType":"address","name":"_token","type":"address"}],"name":"getProfitPoolBalance","outputs":[{"internalType":"uint256","name":"","type":"uint256"}],"stateMutability":"view","type":"function"},{"inputs":[{"internalType":"bytes32","name":"role","type":"bytes32"}],"name":"getRoleAdmin","outputs":[{"internalType":"bytes32","name":"","type":"bytes32"}],"stateMutability":"view","type":"function"},{"inputs":[{"internalType":"address","name":"_token","type":"address"}],"name":"getTotalMarginPool","outputs":[{"internalType":"uint256","name":"","type":"uint256"}],"stateMutability":"view","type":"function"},{"inputs":[{"internalType":"address","name":"_user","type":"address"},{"internalType":"address","name":"_token","type":"address"}],"name":"getUserMarginBalance","outputs":[{"internalType":"uint256","name":"","type":"uint256"}],"stateMutability":"view","type":"function"},{"inputs":[{"internalType":"address","name":"_operator","type":"address"}],"name":"grantOperatorRole","outputs":[],"stateMutability":"nonpayable","type":"function"},{"inputs":[{"internalType":"bytes32","name":"role","type":"bytes32"},{"internalType":"address","name":"account","type":"address"}],"name":"grantRole","outputs":[],"stateMutability":"nonpayable","type":"function"},{"inputs":[{"internalType":"bytes32","name":"role","type":"bytes32"},{"internalType":"address","name":"account","type":"address"}],"name":"hasRole","outputs":[{"internalType":"bool","name":"","type":"bool"}],"stateMutability":"view","type":"function"},{"inputs":[{"internalType":"address","name":"","type":"address"}],"name":"interactPoolBalance","outputs":[{"internalType":"uint256","name":"","type":"uint256"}],"stateMutability":"view","type":"function"},{"inputs":[{"internalType":"address","name":"","type":"address"}],"name":"lpPoolBalance","outputs":[{"internalType":"uint256","name":"","type":"uint256"}],"stateMutability":"view","type":"function"},{"inputs":[{"internalType":"address","name":"","type":"address"}],"name":"marginPoolBalance","outputs":[{"internalType":"uint256","name":"","type":"uint256"}],"stateMutability":"view","type":"function"},{"inputs":[],"name":"pause","outputs":[],"stateMutability":"nonpayable","type":"function"},{"inputs":[],"name":"paused","outputs":[{"internalType":"bool","name":"","type":"bool"}],"stateMutability":"view","type":"function"},{"inputs":[{"internalType":"address","name":"","type":"address"}],"name":"profitPoolBalance","outputs":[{"internalType":"uint256","name":"","type":"uint256"}],"stateMutability":"view","type":"function"},{"inputs":[{"internalType":"bytes32","name":"role","type":"bytes32"},{"internalType":"address","name":"callerConfirmation","type":"address"}],"name":"renounceRole","outputs":[],"stateMutability":"nonpayable","type":"function"},{"inputs":[{"internalType":"bytes32","name":"role","type":"bytes32"},{"internalType":"address","name":"account","type":"address"}],"name":"revokeRole","outputs":[],"stateMutability":"nonpayable","type":"function"},{"inputs":[{"internalType":"address","name":"_config","type":"address"}],"name":"setConfig","outputs":[],"stateMutability":"nonpayable","type":"function"},{"inputs":[{"internalType":"bytes4","name":"interfaceId","type":"bytes4"}],"name":"supportsInterface","outputs":[{"internalType":"bool","name":"","type":"bool"}],"stateMutability":"view","type":"function"},{"inputs":[{"internalType":"address","name":"_from","type":"address"},{"internalType":"address","name":"_to","type":"address"},{"internalType":"address","name":"_token","type":"address"},{"internalType":"uint256","name":"_amount","type":"uint256"},{"internalType":"string","name":"_reason","type":"string"}],"name":"transferMargin","outputs":[],"stateMutability":"nonpayable","type":"function"},{"inputs":[{"internalType":"address","name":"_token","type":"address"},{"internalType":"uint256","name":"_amount","type":"uint256"},{"internalType":"address","name":"_feedProtocol","type":"address"}],"name":"transferToFeedProtocol","outputs":[],"stateMutability":"nonpayable","type":"function"},{"inputs":[],"name":"unpause","outputs":[],"stateMutability":"nonpayable","type":"function"},{"inputs":[{"internalType":"address","name":"","type":"address"},{"internalType":"address","name":"","type":"address"}],"name":"userMarginBalance","outputs":[{"internalType":"uint256","name":"","type":"uint256"}],"stateMutability":"view","type":"function"},{"inputs":[{"internalType":"address","name":"_user","type":"address"},{"internalType":"address","name":"_token","type":"address"},{"internalType":"uint256","name":"_amount","type":"uint256"}],"name":"withdrawMargin","outputs":[],"stateMutability":"nonpayable","type":"function"}],"evm":{"bytecode":{"linkReferences":{},"object":"608034620000ac57601f6200161938819003918201601f19168301916001600160401b03831184841017620000b1578084926040948552833981010312620000ac57806200005f6020620000576200009b94620000c7565b9201620000c7565b6001805560028054610100600160a81b03191660089390931b610100600160a81b0316929092179091556200009481620000dc565b506200015c565b506040516113fa9081620001ff8239f35b600080fd5b634e487b7160e01b600052604160045260246000fd5b51906001600160a01b0382168203620000ac57565b6001600160a01b031660008181527fad3228b676f7d3cd4284a5443f17f1962b36e491b30a40b2405849e597ba5fb5602052604081205490919060ff166200015857818052816020526040822081835260205260408220600160ff198254161790553391600080516020620015f98339815191528180a4600190565b5090565b6001600160a01b031660008181527fad6010f11d85e6849ec87f5f41f95a2725aaf728916b399656c75ce30b0d2c5460205260408120549091907f696e87880cf63dca8f080e7a026952044d39afbd9cb8ab3582bd4b29e6071b299060ff16620001f957808352826020526040832082845260205260408320600160ff19825416179055600080516020620015f9833981519152339380a4600190565b50509056fe6080604081815260048036101561001557600080fd5b600092833560e01c90816301ffc9a714610d885750806308b8bb4b14610abb5780631de8ae5314610a8357806320e3dbd414610a36578063248a9ca314610a0d57806327ac0c58146109bd5780632f2ff15d146109945780632ff1d4581461084e57806336568abe146108075780633e0e706e146107e05780633f4ba83a14610777578063564a6c98146106945780635c975abb14610670578063715d58961461046f57806377c5b506146105d857806379502c55146105ab5780637af4c51b146105735780638456cb591461051857806391d14854146104d3578063a217fddf146104b8578063a7a629751461046f578063ad04570d1461040e578063bed6236514610446578063c69c75cd1461040e578063d249f54e14610310578063d44f97b8146102d4578063d547741f14610296578063ec185a071461019a5763f6faa6491461016257600080fd5b346101965760203660031901126101965760209282916001600160a01b03610188610ddc565b168252845220549051908152f35b8280fd5b5034610196576080366003190112610196576101b4610ddc565b91836101be610df7565b60443560643567ffffffffffffffff8111610292577f66aecc579aa1ef463c0ed1547c2cb6163370e6311a60cba815252acbb398f21395610266836102889561023960ff6102108b9736908801610e23565b9b909a6000805160206113a5833981519152815280602052818120338252602052205416611092565b610241611286565b610249611268565b6102548215156110ea565b6001600160a01b03169930908b6111a5565b87895260205280882061027a83825461114a565b90555193849342928561135d565b0390a26001805580f35b8380fd5b5090346101965780600319360112610196576102d091356102cb60016102ba610df7565b938387528660205286200154610ede565b61101d565b5080f35b50503461030c57602036600319011261030c5760209181906001600160a01b036102fc610ddc565b1681526007845220549051908152f35b5080fd5b50503461030c577f63ca1bee673fe6befaa933c20ecf9ca16a04bd4273bffe1a05b0b9cc9b9be0439061034236610e51565b6000805160206113a5833981519152869593949295526020868152828720338852815261037460ff8489205416611092565b61037c611286565b610384611268565b61038f8215156110ea565b6103fc8260018060a01b039687811697888b5260088552868b20991698898b5284526103c082878c205410156112a9565b878a5260088452858a20898b528452858a206103dd838254611300565b9055888a5260038452858a206103f4838254611300565b90558861130d565b82519182524290820152a36001805580f35b50503461030c57602036600319011261030c5760209181906001600160a01b03610436610ddc565b1681526003845220549051908152f35b50503461030c578160031936011261030c57602090516000805160206113a58339815191528152f35b50503461030c578060031936011261030c578060209261048d610ddc565b610495610df7565b6001600160a01b0391821683526008865283832091168252845220549051908152f35b50503461030c578160031936011261030c5751908152602090f35b50346101965781600319360112610196578160209360ff926104f3610df7565b903582528186528282206001600160a01b039091168252855220549151911615158152f35b50503461030c578160031936011261030c5760207f62e78cea01bee320cd4e420270b5ea74000d11b0c9f74754ebdbfc544b05a25891610556610e86565b61055e611268565b600160ff19600254161760025551338152a180f35b50503461030c57602036600319011261030c5760209181906001600160a01b0361059b610ddc565b1681526005845220549051908152f35b50503461030c578160031936011261030c57600254905160089190911c6001600160a01b03168152602090f35b50503461030c57606036600319011261030c57610669906105f7610ddc565b60243591610603610e0d565b916000805160206113a583398151915286528560205281862033875260205261063160ff8388205416611092565b610639611286565b610641611268565b6001600160a01b031680865260066020529085208054610662908590611300565b905561130d565b6001805580f35b50503461030c578160031936011261030c5760209060ff6002541690519015158152f35b50503461030c577f2bde942ed78f9e1081375810d2aa3bfe43ec08b083f750914542c4bf2fe936c7906106c636610e51565b6000805160206113a5833981519152869593959492945260209386855282872033885285526106fa60ff8489205416611092565b610702611286565b61070a611268565b6107158215156110ea565b6001600160a01b039081169561072d8330838a6111a5565b169384875260088152828720868852815282872061074c83825461114a565b90558587526003815282872061076383825461114a565b905582519182524290820152a36001805580f35b5034610196578260031936011261019657610790610e86565b6002549060ff8216156107d2575060ff1916600255513381527f5db9ee0a495bf2e6ff9c91a7834c1ba4fdd244a5e8aa4e537bd38aeae4b073aa90602090a180f35b8251638dfc202b60e01b8152fd5b50346101965760203660031901126101965760209282916001600160a01b03610188610ddc565b5091903461030c578060031936011261030c57610822610df7565b90336001600160a01b0383160361083f57506102d091923561101d565b5163334bd91960e11b81528390fd5b5090346101965760a036600319011261019657610869610ddc565b90610872610df7565b9061087b610e0d565b936064359060843567ffffffffffffffff81116109905761089e91369101610e23565b9190926000805160206113a58339815191528852602095888752818920338a5287528189205460ff166108d090611092565b6108d8611286565b6108e0611268565b6001600160a01b03908116808a5260088852828a20988216808b52988852828a2054909690610911908511156112a9565b868a5260088852828a20898b528852828a208481549061093091611300565b905516958689526008815281892090888a5252808820828154906109539161114a565b9055519283924291610965938561135d565b037f31eb66acea2a2e9363e745354476882560841a43c057f7f2e75e63470ca557af91a46001805580f35b8780fd5b5090346101965780600319360112610196576102d091356109b860016102ba610df7565b610fa4565b50503461030c57602036600319011261030c576102d090610a0860016109e1610ddc565b926109ea610e86565b6000805160206113a583398151915286528560205285200154610ede565b610f04565b503461019657602036600319011261019657816020936001923581528085522001549051908152f35b8334610a80576020366003190112610a8057610a50610ddc565b610a58610e86565b60028054610100600160a81b03191660089290921b610100600160a81b031691909117905580f35b80fd5b50503461030c57602036600319011261030c5760209181906001600160a01b03610aab610ddc565b1681526006845220549051908152f35b5034610196578160031936011261019657610ad4610ddc565b91602435906000805160206113a5833981519152855260208581528186203387528152610b0660ff8388205416611092565b610b0e611286565b610b16611268565b6001600160a01b03948516808752848252828720549095908411610d3657858752848252828720610b48858254611300565b905560025460081c16938251906362f5ad6360e01b825282828281895afa8015610cbd578890610d07575b610b84925061271092839187611391565b04958451633c6ec58560e11b815284818481855afa908115610cfd57908592918b91610cc7575b50610bb69088611391565b5085516301eb418960e71b815292839182905afa908115610cbd578891610c64575b50917f1f5794a97a8fd0f5605d102f892a8a78d86771f26e26716d26e376f3f4a3d61395606092610c0d87969560a098611391565b04888a5260058352610c23858b2091825461114a565b905587895260078252610c3a848a2091825461114a565b905582519384528301526003606083015262185b1b60ea1b60808301524290820152a26001805580f35b9194939280915082813d8311610cb6575b610c7f818361116d565b81010312610990579051929391929091907f1f5794a97a8fd0f5605d102f892a8a78d86771f26e26716d26e376f3f4a3d613610bd8565b503d610c75565b84513d8a823e3d90fd5b83819492503d8311610cf6575b610cde818361116d565b81010312610cf257610bb685925190610bab565b8980fd5b503d610cd4565b86513d8c823e3d90fd5b508282813d8311610d2f575b610d1d818361116d565b8101031261099057610b849151610b73565b503d610d13565b825162461bcd60e51b8152808601839052602660248201527f5661756c744d616e616765723a20696e73756666696369656e742070726f66696044820152651d081c1bdbdb60d21b6064820152608490fd5b92505034610196576020366003190112610196573563ffffffff60e01b81168091036101965760209250637965db0b60e01b8114908115610dcb575b5015158152f35b6301ffc9a760e01b14905038610dc4565b600435906001600160a01b0382168203610df257565b600080fd5b602435906001600160a01b0382168203610df257565b604435906001600160a01b0382168203610df257565b9181601f84011215610df25782359167ffffffffffffffff8311610df25760208381860195010111610df257565b6060906003190112610df2576001600160a01b03906004358281168103610df257916024359081168103610df2579060443590565b3360009081527fad3228b676f7d3cd4284a5443f17f1962b36e491b30a40b2405849e597ba5fb5602052604081205460ff1615610ec05750565b6044906040519063e2517d3f60e01b82523360048301526024820152fd5b80600052600060205260406000203360005260205260ff6040600020541615610ec05750565b6001600160a01b031660008181527fad6010f11d85e6849ec87f5f41f95a2725aaf728916b399656c75ce30b0d2c5460205260408120549091906000805160206113a58339815191529060ff16610f9f57808352826020526040832082845260205260408320600160ff198254161790557f2f8788117e7eff1d82e926ec794901d17c78024a50270940304540a733656f0d339380a4600190565b505090565b9060009180835282602052604083209160018060a01b03169182845260205260ff60408420541615600014610f9f57808352826020526040832082845260205260408320600160ff198254161790557f2f8788117e7eff1d82e926ec794901d17c78024a50270940304540a733656f0d339380a4600190565b9060009180835282602052604083209160018060a01b03169182845260205260ff604084205416600014610f9f5780835282602052604083208284526020526040832060ff1981541690557ff6391f5c32d9c69d2a47ea670b442974b53935d1edc7fd64eb21e047a839171b339380a4600190565b1561109957565b60405162461bcd60e51b8152602060048201526024808201527f5661756c744d616e616765723a2063616c6c6572206973206e6f74206f70657260448201526330ba37b960e11b6064820152608490fd5b156110f157565b60405162461bcd60e51b815260206004820152602b60248201527f5661756c744d616e616765723a20616d6f756e74206d7573742062652067726560448201526a061746572207468616e20360ac1b6064820152608490fd5b9190820180921161115757565b634e487b7160e01b600052601160045260246000fd5b90601f8019910116810190811067ffffffffffffffff82111761118f57604052565b634e487b7160e01b600052604160045260246000fd5b6040516323b872dd60e01b60208201526001600160a01b03928316602482015292909116604483015260648083019390935291815260a081019181831067ffffffffffffffff84111761118f576111fe92604052611200565b565b906000602091828151910182855af11561125c576000513d61125357506001600160a01b0381163b155b6112315750565b604051635274afe760e01b81526001600160a01b039091166004820152602490fd5b6001141561122a565b6040513d6000823e3d90fd5b60ff6002541661127457565b60405163d93c066560e01b8152600490fd5b600260015414611297576002600155565b604051633ee5aeb560e01b8152600490fd5b156112b057565b60405162461bcd60e51b815260206004820152602260248201527f5661756c744d616e616765723a20696e73756666696369656e742062616c616e604482015261636560f01b6064820152608490fd5b9190820391821161115757565b60405163a9059cbb60e01b60208201526001600160a01b039092166024830152604480830193909352918152608081019167ffffffffffffffff83118284101761118f576111fe92604052611200565b94939280604093608093885260606020890152816060890152838801376000828288010152601f8019910116850101930152565b818102929181159184041417156111575756fe696e87880cf63dca8f080e7a026952044d39afbd9cb8ab3582bd4b29e6071b29a264697066735822122057158bfef9c097ab4e0d4eb83d305211436f5b3ab2f4adffc167bd70a79e068964736f6c634300081400332f8788117e7eff1d82e926ec794901d17c78024a50270940304540a733656f0d","opcodes":"PUSH1 0x80 CALLVALUE PUSH3 0xAC JUMPI PUSH1 0x1F PUSH3 0x1619 CODESIZE DUP2 SWAP1 SUB SWAP2 DUP3 ADD PUSH1 0x1F NOT AND DUP4 ADD SWAP2 PUSH1 0x1 PUSH1 0x1 PUSH1 0x40 SHL SUB DUP4 GT DUP5 DUP5 LT OR PUSH3 0xB1 JUMPI DUP1 DUP5 SWAP3 PUSH1 0x40 SWAP5 DUP6 MSTORE DUP4 CODECOPY DUP2 ADD SUB SLT PUSH3 0xAC JUMPI DUP1 PUSH3 0x5F PUSH1 0x20 PUSH3 0x57 PUSH3 0x9B SWAP5 PUSH3 0xC7 JUMP JUMPDEST SWAP3 ADD PUSH3 0xC7 JUMP JUMPDEST PUSH1 0x1 DUP1 SSTORE PUSH1 0x2 DUP1 SLOAD PUSH2 0x100 PUSH1 0x1 PUSH1 0xA8 SHL SUB NOT AND PUSH1 0x8 SWAP4 SWAP1 SWAP4 SHL PUSH2 0x100 PUSH1 0x1 PUSH1 0xA8 SHL SUB AND SWAP3 SWAP1 SWAP3 OR SWAP1 SWAP2 SSTORE PUSH3 0x94 DUP2 PUSH3 0xDC JUMP JUMPDEST POP PUSH3 0x15C JUMP JUMPDEST POP PUSH1 0x40 MLOAD PUSH2 0x13FA SWAP1 DUP2 PUSH3 0x1FF DUP3 CODECOPY RETURN JUMPDEST PUSH1 0x0 DUP1 REVERT JUMPDEST PUSH4 0x4E487B71 PUSH1 0xE0 SHL PUSH1 0x0 MSTORE PUSH1 0x41 PUSH1 0x4 MSTORE PUSH1 0x24 PUSH1 0x0 REVERT JUMPDEST MLOAD SWAP1 PUSH1 0x1 PUSH1 0x1 PUSH1 0xA0 SHL SUB DUP3 AND DUP3 SUB PUSH3 0xAC JUMPI JUMP JUMPDEST PUSH1 0x1 PUSH1 0x1 PUSH1 0xA0 SHL SUB AND PUSH1 0x0 DUP2 DUP2 MSTORE PUSH32 0xAD3228B676F7D3CD4284A5443F17F1962B36E491B30A40B2405849E597BA5FB5 PUSH1 0x20 MSTORE PUSH1 0x40 DUP2 KECCAK256 SLOAD SWAP1 SWAP2 SWAP1 PUSH1 0xFF AND PUSH3 0x158 JUMPI DUP2 DUP1 MSTORE DUP2 PUSH1 0x20 MSTORE PUSH1 0x40 DUP3 KECCAK256 DUP2 DUP4 MSTORE PUSH1 0x20 MSTORE PUSH1 0x40 DUP3 KECCAK256 PUSH1 0x1 PUSH1 0xFF NOT DUP3 SLOAD AND OR SWAP1 SSTORE CALLER SWAP2 PUSH1 0x0 DUP1 MLOAD PUSH1 0x20 PUSH3 0x15F9 DUP4 CODECOPY DUP2 MLOAD SWAP2 MSTORE DUP2 DUP1 LOG4 PUSH1 0x1 SWAP1 JUMP JUMPDEST POP SWAP1 JUMP JUMPDEST PUSH1 0x1 PUSH1 0x1 PUSH1 0xA0 SHL SUB AND PUSH1 0x0 DUP2 DUP2 MSTORE PUSH32 0xAD6010F11D85E6849EC87F5F41F95A2725AAF728916B399656C75CE30B0D2C54 PUSH1 0x20 MSTORE PUSH1 0x40 DUP2 KECCAK256 SLOAD SWAP1 SWAP2 SWAP1 PUSH32 0x696E87880CF63DCA8F080E7A026952044D39AFBD9CB8AB3582BD4B29E6071B29 SWAP1 PUSH1 0xFF AND PUSH3 0x1F9 JUMPI DUP1 DUP4 MSTORE DUP3 PUSH1 0x20 MSTORE PUSH1 0x40 DUP4 KECCAK256 DUP3 DUP5 MSTORE PUSH1 0x20 MSTORE PUSH1 0x40 DUP4 KECCAK256 PUSH1 0x1 PUSH1 0xFF NOT DUP3 SLOAD AND OR SWAP1 SSTORE PUSH1 0x0 DUP1 MLOAD PUSH1 0x20 PUSH3 0x15F9 DUP4 CODECOPY DUP2 MLOAD SWAP2 MSTORE CALLER SWAP4 DUP1 LOG4 PUSH1 0x1 SWAP1 JUMP JUMPDEST POP POP SWAP1 JUMP INVALID PUSH1 0x80 PUSH1 0x40 DUP2 DUP2 MSTORE PUSH1 0x4 DUP1 CALLDATASIZE LT ISZERO PUSH2 0x15 JUMPI PUSH1 0x0 DUP1 REVERT JUMPDEST PUSH1 0x0 SWAP3 DUP4 CALLDATALOAD PUSH1 0xE0 SHR SWAP1 DUP2 PUSH4 0x1FFC9A7 EQ PUSH2 0xD88 JUMPI POP DUP1 PUSH4 0x8B8BB4B EQ PUSH2 0xABB JUMPI DUP1 PUSH4 0x1DE8AE53 EQ PUSH2 0xA83 JUMPI DUP1 PUSH4 0x20E3DBD4 EQ PUSH2 0xA36 JUMPI DUP1 PUSH4 0x248A9CA3 EQ PUSH2 0xA0D JUMPI DUP1 PUSH4 0x27AC0C58 EQ PUSH2 0x9BD JUMPI DUP1 PUSH4 0x2F2FF15D EQ PUSH2 0x994 JUMPI DUP1 PUSH4 0x2FF1D458 EQ PUSH2 0x84E JUMPI DUP1 PUSH4 0x36568ABE EQ PUSH2 0x807 JUMPI DUP1 PUSH4 0x3E0E706E EQ PUSH2 0x7E0 JUMPI DUP1 PUSH4 0x3F4BA83A EQ PUSH2 0x777 JUMPI DUP1 PUSH4 0x564A6C98 EQ PUSH2 0x694 JUMPI DUP1 PUSH4 0x5C975ABB EQ PUSH2 0x670 JUMPI DUP1 PUSH4 0x715D5896 EQ PUSH2 0x46F JUMPI DUP1 PUSH4 0x77C5B506 EQ PUSH2 0x5D8 JUMPI DUP1 PUSH4 0x79502C55 EQ PUSH2 0x5AB JUMPI DUP1 PUSH4 0x7AF4C51B EQ PUSH2 0x573 JUMPI DUP1 PUSH4 0x8456CB59 EQ PUSH2 0x518 JUMPI DUP1 PUSH4 0x91D14854 EQ PUSH2 0x4D3 JUMPI DUP1 PUSH4 0xA217FDDF EQ PUSH2 0x4B8 JUMPI DUP1 PUSH4 0xA7A62975 EQ PUSH2 0x46F JUMPI DUP1 PUSH4 0xAD04570D EQ PUSH2 0x40E JUMPI DUP1 PUSH4 0xBED62365 EQ PUSH2 0x446 JUMPI DUP1 PUSH4 0xC69C75CD EQ PUSH2 0x40E JUMPI DUP1 PUSH4 0xD249F54E EQ PUSH2 0x310 JUMPI DUP1 PUSH4 0xD44F97B8 EQ PUSH2 0x2D4 JUMPI DUP1 PUSH4 0xD547741F EQ PUSH2 0x296 JUMPI DUP1 PUSH4 0xEC185A07 EQ PUSH2 0x19A JUMPI PUSH4 0xF6FAA649 EQ PUSH2 0x162 JUMPI PUSH1 0x0 DUP1 REVERT JUMPDEST CALLVALUE PUSH2 0x196 JUMPI PUSH1 0x20 CALLDATASIZE PUSH1 0x3 NOT ADD SLT PUSH2 0x196 JUMPI PUSH1 0x20 SWAP3 DUP3 SWAP2 PUSH1 0x1 PUSH1 0x1 PUSH1 0xA0 SHL SUB PUSH2 0x188 PUSH2 0xDDC JUMP JUMPDEST AND DUP3 MSTORE DUP5 MSTORE KECCAK256 SLOAD SWAP1 MLOAD SWAP1 DUP2 MSTORE RETURN JUMPDEST DUP3 DUP1 REVERT JUMPDEST POP CALLVALUE PUSH2 0x196 JUMPI PUSH1 0x80 CALLDATASIZE PUSH1 0x3 NOT ADD SLT PUSH2 0x196 JUMPI PUSH2 0x1B4 PUSH2 0xDDC JUMP JUMPDEST SWAP2 DUP4 PUSH2 0x1BE PUSH2 0xDF7 JUMP JUMPDEST PUSH1 0x44 CALLDATALOAD PUSH1 0x64 CALLDATALOAD PUSH8 0xFFFFFFFFFFFFFFFF DUP2 GT PUSH2 0x292 JUMPI PUSH32 0x66AECC579AA1EF463C0ED1547C2CB6163370E6311A60CBA815252ACBB398F213 SWAP6 PUSH2 0x266 DUP4 PUSH2 0x288 SWAP6 PUSH2 0x239 PUSH1 0xFF PUSH2 0x210 DUP12 SWAP8 CALLDATASIZE SWAP1 DUP9 ADD PUSH2 0xE23 JUMP JUMPDEST SWAP12 SWAP1 SWAP11 PUSH1 0x0 DUP1 MLOAD PUSH1 0x20 PUSH2 0x13A5 DUP4 CODECOPY DUP2 MLOAD SWAP2 MSTORE DUP2 MSTORE DUP1 PUSH1 0x20 MSTORE DUP2 DUP2 KECCAK256 CALLER DUP3 MSTORE PUSH1 0x20 MSTORE KECCAK256 SLOAD AND PUSH2 0x1092 JUMP JUMPDEST PUSH2 0x241 PUSH2 0x1286 JUMP JUMPDEST PUSH2 0x249 PUSH2 0x1268 JUMP JUMPDEST PUSH2 0x254 DUP3 ISZERO ISZERO PUSH2 0x10EA JUMP JUMPDEST PUSH1 0x1 PUSH1 0x1 PUSH1 0xA0 SHL SUB AND SWAP10 ADDRESS SWAP1 DUP12 PUSH2 0x11A5 JUMP JUMPDEST DUP8 DUP10 MSTORE PUSH1 0x20 MSTORE DUP1 DUP9 KECCAK256 PUSH2 0x27A DUP4 DUP3 SLOAD PUSH2 0x114A JUMP JUMPDEST SWAP1 SSTORE MLOAD SWAP4 DUP5 SWAP4 TIMESTAMP SWAP3 DUP6 PUSH2 0x135D JUMP JUMPDEST SUB SWAP1 LOG2 PUSH1 0x1 DUP1 SSTORE DUP1 RETURN JUMPDEST DUP4 DUP1 REVERT JUMPDEST POP SWAP1 CALLVALUE PUSH2 0x196 JUMPI DUP1 PUSH1 0x3 NOT CALLDATASIZE ADD SLT PUSH2 0x196 JUMPI PUSH2 0x2D0 SWAP2 CALLDATALOAD PUSH2 0x2CB PUSH1 0x1 PUSH2 0x2BA PUSH2 0xDF7 JUMP JUMPDEST SWAP4 DUP4 DUP8 MSTORE DUP7 PUSH1 0x20 MSTORE DUP7 KECCAK256 ADD SLOAD PUSH2 0xEDE JUMP JUMPDEST PUSH2 0x101D JUMP JUMPDEST POP DUP1 RETURN JUMPDEST POP POP CALLVALUE PUSH2 0x30C JUMPI PUSH1 0x20 CALLDATASIZE PUSH1 0x3 NOT ADD SLT PUSH2 0x30C JUMPI PUSH1 0x20 SWAP2 DUP2 SWAP1 PUSH1 0x1 PUSH1 0x1 PUSH1 0xA0 SHL SUB PUSH2 0x2FC PUSH2 0xDDC JUMP JUMPDEST AND DUP2 MSTORE PUSH1 0x7 DUP5 MSTORE KECCAK256 SLOAD SWAP1 MLOAD SWAP1 DUP2 MSTORE RETURN JUMPDEST POP DUP1 REVERT JUMPDEST POP POP CALLVALUE PUSH2 0x30C JUMPI PUSH32 0x63CA1BEE673FE6BEFAA933C20ECF9CA16A04BD4273BFFE1A05B0B9CC9B9BE043 SWAP1 PUSH2 0x342 CALLDATASIZE PUSH2 0xE51 JUMP JUMPDEST PUSH1 0x0 DUP1 MLOAD PUSH1 0x20 PUSH2 0x13A5 DUP4 CODECOPY DUP2 MLOAD SWAP2 MSTORE DUP7 SWAP6 SWAP4 SWAP5 SWAP3 SWAP6 MSTORE PUSH1 0x20 DUP7 DUP2 MSTORE DUP3 DUP8 KECCAK256 CALLER DUP9 MSTORE DUP2 MSTORE PUSH2 0x374 PUSH1 0xFF DUP5 DUP10 KECCAK256 SLOAD AND PUSH2 0x1092 JUMP JUMPDEST PUSH2 0x37C PUSH2 0x1286 JUMP JUMPDEST PUSH2 0x384 PUSH2 0x1268 JUMP JUMPDEST PUSH2 0x38F DUP3 ISZERO ISZERO PUSH2 0x10EA JUMP JUMPDEST PUSH2 0x3FC DUP3 PUSH1 0x1 DUP1 PUSH1 0xA0 SHL SUB SWAP7 DUP8 DUP2 AND SWAP8 DUP9 DUP12 MSTORE PUSH1 0x8 DUP6 MSTORE DUP7 DUP12 KECCAK256 SWAP10 AND SWAP9 DUP10 DUP12 MSTORE DUP5 MSTORE PUSH2 0x3C0 DUP3 DUP8 DUP13 KECCAK256 SLOAD LT ISZERO PUSH2 0x12A9 JUMP JUMPDEST DUP8 DUP11 MSTORE PUSH1 0x8 DUP5 MSTORE DUP6 DUP11 KECCAK256 DUP10 DUP12 MSTORE DUP5 MSTORE DUP6 DUP11 KECCAK256 PUSH2 0x3DD DUP4 DUP3 SLOAD PUSH2 0x1300 JUMP JUMPDEST SWAP1 SSTORE DUP9 DUP11 MSTORE PUSH1 0x3 DUP5 MSTORE DUP6 DUP11 KECCAK256 PUSH2 0x3F4 DUP4 DUP3 SLOAD PUSH2 0x1300 JUMP JUMPDEST SWAP1 SSTORE DUP9 PUSH2 0x130D JUMP JUMPDEST DUP3 MLOAD SWAP2 DUP3 MSTORE TIMESTAMP SWAP1 DUP3 ADD MSTORE LOG3 PUSH1 0x1 DUP1 SSTORE DUP1 RETURN JUMPDEST POP POP CALLVALUE PUSH2 0x30C JUMPI PUSH1 0x20 CALLDATASIZE PUSH1 0x3 NOT ADD SLT PUSH2 0x30C JUMPI PUSH1 0x20 SWAP2 DUP2 SWAP1 PUSH1 0x1 PUSH1 0x1 PUSH1 0xA0 SHL SUB PUSH2 0x436 PUSH2 0xDDC JUMP JUMPDEST AND DUP2 MSTORE PUSH1 0x3 DUP5 MSTORE KECCAK256 SLOAD SWAP1 MLOAD SWAP1 DUP2 MSTORE RETURN JUMPDEST POP POP CALLVALUE PUSH2 0x30C JUMPI DUP2 PUSH1 0x3 NOT CALLDATASIZE ADD SLT PUSH2 0x30C JUMPI PUSH1 0x20 SWAP1 MLOAD PUSH1 0x0 DUP1 MLOAD PUSH1 0x20 PUSH2 0x13A5 DUP4 CODECOPY DUP2 MLOAD SWAP2 MSTORE DUP2 MSTORE RETURN JUMPDEST POP POP CALLVALUE PUSH2 0x30C JUMPI DUP1 PUSH1 0x3 NOT CALLDATASIZE ADD SLT PUSH2 0x30C JUMPI DUP1 PUSH1 0x20 SWAP3 PUSH2 0x48D PUSH2 0xDDC JUMP JUMPDEST PUSH2 0x495 PUSH2 0xDF7 JUMP JUMPDEST PUSH1 0x1 PUSH1 0x1 PUSH1 0xA0 SHL SUB SWAP2 DUP3 AND DUP4 MSTORE PUSH1 0x8 DUP7 MSTORE DUP4 DUP4 KECCAK256 SWAP2 AND DUP3 MSTORE DUP5 MSTORE KECCAK256 SLOAD SWAP1 MLOAD SWAP1 DUP2 MSTORE RETURN JUMPDEST POP POP CALLVALUE PUSH2 0x30C JUMPI DUP2 PUSH1 0x3 NOT CALLDATASIZE ADD SLT PUSH2 0x30C JUMPI MLOAD SWAP1 DUP2 MSTORE PUSH1 0x20 SWAP1 RETURN JUMPDEST POP CALLVALUE PUSH2 0x196 JUMPI DUP2 PUSH1 0x3 NOT CALLDATASIZE ADD SLT PUSH2 0x196 JUMPI DUP2 PUSH1 0x20 SWAP4 PUSH1 0xFF SWAP3 PUSH2 0x4F3 PUSH2 0xDF7 JUMP JUMPDEST SWAP1 CALLDATALOAD DUP3 MSTORE DUP2 DUP7 MSTORE DUP3 DUP3 KECCAK256 PUSH1 0x1 PUSH1 0x1 PUSH1 0xA0 SHL SUB SWAP1 SWAP2 AND DUP3 MSTORE DUP6 MSTORE KECCAK256 SLOAD SWAP2 MLOAD SWAP2 AND ISZERO ISZERO DUP2 MSTORE RETURN JUMPDEST POP POP CALLVALUE PUSH2 0x30C JUMPI DUP2 PUSH1 0x3 NOT CALLDATASIZE ADD SLT PUSH2 0x30C JUMPI PUSH1 0x20 PUSH32 0x62E78CEA01BEE320CD4E420270B5EA74000D11B0C9F74754EBDBFC544B05A258 SWAP2 PUSH2 0x556 PUSH2 0xE86 JUMP JUMPDEST PUSH2 0x55E PUSH2 0x1268 JUMP JUMPDEST PUSH1 0x1 PUSH1 0xFF NOT PUSH1 0x2 SLOAD AND OR PUSH1 0x2 SSTORE MLOAD CALLER DUP2 MSTORE LOG1 DUP1 RETURN JUMPDEST POP POP CALLVALUE PUSH2 0x30C JUMPI PUSH1 0x20 CALLDATASIZE PUSH1 0x3 NOT ADD SLT PUSH2 0x30C JUMPI PUSH1 0x20 SWAP2 DUP2 SWAP1 PUSH1 0x1 PUSH1 0x1 PUSH1 0xA0 SHL SUB PUSH2 0x59B PUSH2 0xDDC JUMP JUMPDEST AND DUP2 MSTORE PUSH1 0x5 DUP5 MSTORE KECCAK256 SLOAD SWAP1 MLOAD SWAP1 DUP2 MSTORE RETURN JUMPDEST POP POP CALLVALUE PUSH2 0x30C JUMPI DUP2 PUSH1 0x3 NOT CALLDATASIZE ADD SLT PUSH2 0x30C JUMPI PUSH1 0x2 SLOAD SWAP1 MLOAD PUSH1 0x8 SWAP2 SWAP1 SWAP2 SHR PUSH1 0x1 PUSH1 0x1 PUSH1 0xA0 SHL SUB AND DUP2 MSTORE PUSH1 0x20 SWAP1 RETURN JUMPDEST POP POP CALLVALUE PUSH2 0x30C JUMPI PUSH1 0x60 CALLDATASIZE PUSH1 0x3 NOT ADD SLT PUSH2 0x30C JUMPI PUSH2 0x669 SWAP1 PUSH2 0x5F7 PUSH2 0xDDC JUMP JUMPDEST PUSH1 0x24 CALLDATALOAD SWAP2 PUSH2 0x603 PUSH2 0xE0D JUMP JUMPDEST SWAP2 PUSH1 0x0 DUP1 MLOAD PUSH1 0x20 PUSH2 0x13A5 DUP4 CODECOPY DUP2 MLOAD SWAP2 MSTORE DUP7 MSTORE DUP6 PUSH1 0x20 MSTORE DUP2 DUP7 KECCAK256 CALLER DUP8 MSTORE PUSH1 0x20 MSTORE PUSH2 0x631 PUSH1 0xFF DUP4 DUP9 KECCAK256 SLOAD AND PUSH2 0x1092 JUMP JUMPDEST PUSH2 0x639 PUSH2 0x1286 JUMP JUMPDEST PUSH2 0x641 PUSH2 0x1268 JUMP JUMPDEST PUSH1 0x1 PUSH1 0x1 PUSH1 0xA0 SHL SUB AND DUP1 DUP7 MSTORE PUSH1 0x6 PUSH1 0x20 MSTORE SWAP1 DUP6 KECCAK256 DUP1 SLOAD PUSH2 0x662 SWAP1 DUP6 SWAP1 PUSH2 0x1300 JUMP JUMPDEST SWAP1 SSTORE PUSH2 0x130D JUMP JUMPDEST PUSH1 0x1 DUP1 SSTORE DUP1 RETURN JUMPDEST POP POP CALLVALUE PUSH2 0x30C JUMPI DUP2 PUSH1 0x3 NOT CALLDATASIZE ADD SLT PUSH2 0x30C JUMPI PUSH1 0x20 SWAP1 PUSH1 0xFF PUSH1 0x2 SLOAD AND SWAP1 MLOAD SWAP1 ISZERO ISZERO DUP2 MSTORE RETURN JUMPDEST POP POP CALLVALUE PUSH2 0x30C JUMPI PUSH32 0x2BDE942ED78F9E1081375810D2AA3BFE43EC08B083F750914542C4BF2FE936C7 SWAP1 PUSH2 0x6C6 CALLDATASIZE PUSH2 0xE51 JUMP JUMPDEST PUSH1 0x0 DUP1 MLOAD PUSH1 0x20 PUSH2 0x13A5 DUP4 CODECOPY DUP2 MLOAD SWAP2 MSTORE DUP7 SWAP6 SWAP4 SWAP6 SWAP5 SWAP3 SWAP5 MSTORE PUSH1 0x20 SWAP4 DUP7 DUP6 MSTORE DUP3 DUP8 KECCAK256 CALLER DUP9 MSTORE DUP6 MSTORE PUSH2 0x6FA PUSH1 0xFF DUP5 DUP10 KECCAK256 SLOAD AND PUSH2 0x1092 JUMP JUMPDEST PUSH2 0x702 PUSH2 0x1286 JUMP JUMPDEST PUSH2 0x70A PUSH2 0x1268 JUMP JUMPDEST PUSH2 0x715 DUP3 ISZERO ISZERO PUSH2 0x10EA JUMP JUMPDEST PUSH1 0x1 PUSH1 0x1 PUSH1 0xA0 SHL SUB SWAP1 DUP2 AND SWAP6 PUSH2 0x72D DUP4 ADDRESS DUP4 DUP11 PUSH2 0x11A5 JUMP JUMPDEST AND SWAP4 DUP5 DUP8 MSTORE PUSH1 0x8 DUP2 MSTORE DUP3 DUP8 KECCAK256 DUP7 DUP9 MSTORE DUP2 MSTORE DUP3 DUP8 KECCAK256 PUSH2 0x74C DUP4 DUP3 SLOAD PUSH2 0x114A JUMP JUMPDEST SWAP1 SSTORE DUP6 DUP8 MSTORE PUSH1 0x3 DUP2 MSTORE DUP3 DUP8 KECCAK256 PUSH2 0x763 DUP4 DUP3 SLOAD PUSH2 0x114A JUMP JUMPDEST SWAP1 SSTORE DUP3 MLOAD SWAP2 DUP3 MSTORE TIMESTAMP SWAP1 DUP3 ADD MSTORE LOG3 PUSH1 0x1 DUP1 SSTORE DUP1 RETURN JUMPDEST POP CALLVALUE PUSH2 0x196 JUMPI DUP3 PUSH1 0x3 NOT CALLDATASIZE ADD SLT PUSH2 0x196 JUMPI PUSH2 0x790 PUSH2 0xE86 JUMP JUMPDEST PUSH1 0x2 SLOAD SWAP1 PUSH1 0xFF DUP3 AND ISZERO PUSH2 0x7D2 JUMPI POP PUSH1 0xFF NOT AND PUSH1 0x2 SSTORE MLOAD CALLER DUP2 MSTORE PUSH32 0x5DB9EE0A495BF2E6FF9C91A7834C1BA4FDD244A5E8AA4E537BD38AEAE4B073AA SWAP1 PUSH1 0x20 SWAP1 LOG1 DUP1 RETURN JUMPDEST DUP3 MLOAD PUSH4 0x8DFC202B PUSH1 0xE0 SHL DUP2 MSTORE REVERT JUMPDEST POP CALLVALUE PUSH2 0x196 JUMPI PUSH1 0x20 CALLDATASIZE PUSH1 0x3 NOT ADD SLT PUSH2 0x196 JUMPI PUSH1 0x20 SWAP3 DUP3 SWAP2 PUSH1 0x1 PUSH1 0x1 PUSH1 0xA0 SHL SUB PUSH2 0x188 PUSH2 0xDDC JUMP JUMPDEST POP SWAP2 SWAP1 CALLVALUE PUSH2 0x30C JUMPI DUP1 PUSH1 0x3 NOT CALLDATASIZE ADD SLT PUSH2 0x30C JUMPI PUSH2 0x822 PUSH2 0xDF7 JUMP JUMPDEST SWAP1 CALLER PUSH1 0x1 PUSH1 0x1 PUSH1 0xA0 SHL SUB DUP4 AND SUB PUSH2 0x83F JUMPI POP PUSH2 0x2D0 SWAP2 SWAP3 CALLDATALOAD PUSH2 0x101D JUMP JUMPDEST MLOAD PUSH4 0x334BD919 PUSH1 0xE1 SHL DUP2 MSTORE DUP4 SWAP1 REVERT JUMPDEST POP SWAP1 CALLVALUE PUSH2 0x196 JUMPI PUSH1 0xA0 CALLDATASIZE PUSH1 0x3 NOT ADD SLT PUSH2 0x196 JUMPI PUSH2 0x869 PUSH2 0xDDC JUMP JUMPDEST SWAP1 PUSH2 0x872 PUSH2 0xDF7 JUMP JUMPDEST SWAP1 PUSH2 0x87B PUSH2 0xE0D JUMP JUMPDEST SWAP4 PUSH1 0x64 CALLDATALOAD SWAP1 PUSH1 0x84 CALLDATALOAD PUSH8 0xFFFFFFFFFFFFFFFF DUP2 GT PUSH2 0x990 JUMPI PUSH2 0x89E SWAP2 CALLDATASIZE SWAP2 ADD PUSH2 0xE23 JUMP JUMPDEST SWAP2 SWAP1 SWAP3 PUSH1 0x0 DUP1 MLOAD PUSH1 0x20 PUSH2 0x13A5 DUP4 CODECOPY DUP2 MLOAD SWAP2 MSTORE DUP9 MSTORE PUSH1 0x20 SWAP6 DUP9 DUP8 MSTORE DUP2 DUP10 KECCAK256 CALLER DUP11 MSTORE DUP8 MSTORE DUP2 DUP10 KECCAK256 SLOAD PUSH1 0xFF AND PUSH2 0x8D0 SWAP1 PUSH2 0x1092 JUMP JUMPDEST PUSH2 0x8D8 PUSH2 0x1286 JUMP JUMPDEST PUSH2 0x8E0 PUSH2 0x1268 JUMP JUMPDEST PUSH1 0x1 PUSH1 0x1 PUSH1 0xA0 SHL SUB SWAP1 DUP2 AND DUP1 DUP11 MSTORE PUSH1 0x8 DUP9 MSTORE DUP3 DUP11 KECCAK256 SWAP9 DUP3 AND DUP1 DUP12 MSTORE SWAP9 DUP9 MSTORE DUP3 DUP11 KECCAK256 SLOAD SWAP1 SWAP7 SWAP1 PUSH2 0x911 SWAP1 DUP6 GT ISZERO PUSH2 0x12A9 JUMP JUMPDEST DUP7 DUP11 MSTORE PUSH1 0x8 DUP9 MSTORE DUP3 DUP11 KECCAK256 DUP10 DUP12 MSTORE DUP9 MSTORE DUP3 DUP11 KECCAK256 DUP5 DUP2 SLOAD SWAP1 PUSH2 0x930 SWAP2 PUSH2 0x1300 JUMP JUMPDEST SWAP1 SSTORE AND SWAP6 DUP7 DUP10 MSTORE PUSH1 0x8 DUP2 MSTORE DUP2 DUP10 KECCAK256 SWAP1 DUP9 DUP11 MSTORE MSTORE DUP1 DUP9 KECCAK256 DUP3 DUP2 SLOAD SWAP1 PUSH2 0x953 SWAP2 PUSH2 0x114A JUMP JUMPDEST SWAP1 SSTORE MLOAD SWAP3 DUP4 SWAP3 TIMESTAMP SWAP2 PUSH2 0x965 SWAP4 DUP6 PUSH2 0x135D JUMP JUMPDEST SUB PUSH32 0x31EB66ACEA2A2E9363E745354476882560841A43C057F7F2E75E63470CA557AF SWAP2 LOG4 PUSH1 0x1 DUP1 SSTORE DUP1 RETURN JUMPDEST DUP8 DUP1 REVERT JUMPDEST POP SWAP1 CALLVALUE PUSH2 0x196 JUMPI DUP1 PUSH1 0x3 NOT CALLDATASIZE ADD SLT PUSH2 0x196 JUMPI PUSH2 0x2D0 SWAP2 CALLDATALOAD PUSH2 0x9B8 PUSH1 0x1 PUSH2 0x2BA PUSH2 0xDF7 JUMP JUMPDEST PUSH2 0xFA4 JUMP JUMPDEST POP POP CALLVALUE PUSH2 0x30C JUMPI PUSH1 0x20 CALLDATASIZE PUSH1 0x3 NOT ADD SLT PUSH2 0x30C JUMPI PUSH2 0x2D0 SWAP1 PUSH2 0xA08 PUSH1 0x1 PUSH2 0x9E1 PUSH2 0xDDC JUMP JUMPDEST SWAP3 PUSH2 0x9EA PUSH2 0xE86 JUMP JUMPDEST PUSH1 0x0 DUP1 MLOAD PUSH1 0x20 PUSH2 0x13A5 DUP4 CODECOPY DUP2 MLOAD SWAP2 MSTORE DUP7 MSTORE DUP6 PUSH1 0x20 MSTORE DUP6 KECCAK256 ADD SLOAD PUSH2 0xEDE JUMP JUMPDEST PUSH2 0xF04 JUMP JUMPDEST POP CALLVALUE PUSH2 0x196 JUMPI PUSH1 0x20 CALLDATASIZE PUSH1 0x3 NOT ADD SLT PUSH2 0x196 JUMPI DUP2 PUSH1 0x20 SWAP4 PUSH1 0x1 SWAP3 CALLDATALOAD DUP2 MSTORE DUP1 DUP6 MSTORE KECCAK256 ADD SLOAD SWAP1 MLOAD SWAP1 DUP2 MSTORE RETURN JUMPDEST DUP4 CALLVALUE PUSH2 0xA80 JUMPI PUSH1 0x20 CALLDATASIZE PUSH1 0x3 NOT ADD SLT PUSH2 0xA80 JUMPI PUSH2 0xA50 PUSH2 0xDDC JUMP JUMPDEST PUSH2 0xA58 PUSH2 0xE86 JUMP JUMPDEST PUSH1 0x2 DUP1 SLOAD PUSH2 0x100 PUSH1 0x1 PUSH1 0xA8 SHL SUB NOT AND PUSH1 0x8 SWAP3 SWAP1 SWAP3 SHL PUSH2 0x100 PUSH1 0x1 PUSH1 0xA8 SHL SUB AND SWAP2 SWAP1 SWAP2 OR SWAP1 SSTORE DUP1 RETURN JUMPDEST DUP1 REVERT JUMPDEST POP POP CALLVALUE PUSH2 0x30C JUMPI PUSH1 0x20 CALLDATASIZE PUSH1 0x3 NOT ADD SLT PUSH2 0x30C JUMPI PUSH1 0x20 SWAP2 DUP2 SWAP1 PUSH1 0x1 PUSH1 0x1 PUSH1 0xA0 SHL SUB PUSH2 0xAAB PUSH2 0xDDC JUMP JUMPDEST AND DUP2 MSTORE PUSH1 0x6 DUP5 MSTORE KECCAK256 SLOAD SWAP1 MLOAD SWAP1 DUP2 MSTORE RETURN JUMPDEST POP CALLVALUE PUSH2 0x196 JUMPI DUP2 PUSH1 0x3 NOT CALLDATASIZE ADD SLT PUSH2 0x196 JUMPI PUSH2 0xAD4 PUSH2 0xDDC JUMP JUMPDEST SWAP2 PUSH1 0x24 CALLDATALOAD SWAP1 PUSH1 0x0 DUP1 MLOAD PUSH1 0x20 PUSH2 0x13A5 DUP4 CODECOPY DUP2 MLOAD SWAP2 MSTORE DUP6 MSTORE PUSH1 0x20 DUP6 DUP2 MSTORE DUP2 DUP7 KECCAK256 CALLER DUP8 MSTORE DUP2 MSTORE PUSH2 0xB06 PUSH1 0xFF DUP4 DUP9 KECCAK256 SLOAD AND PUSH2 0x1092 JUMP JUMPDEST PUSH2 0xB0E PUSH2 0x1286 JUMP JUMPDEST PUSH2 0xB16 PUSH2 0x1268 JUMP JUMPDEST PUSH1 0x1 PUSH1 0x1 PUSH1 0xA0 SHL SUB SWAP5 DUP6 AND DUP1 DUP8 MSTORE DUP5 DUP3 MSTORE DUP3 DUP8 KECCAK256 SLOAD SWAP1 SWAP6 SWAP1 DUP5 GT PUSH2 0xD36 JUMPI DUP6 DUP8 MSTORE DUP5 DUP3 MSTORE DUP3 DUP8 KECCAK256 PUSH2 0xB48 DUP6 DUP3 SLOAD PUSH2 0x1300 JUMP JUMPDEST SWAP1 SSTORE PUSH1 0x2 SLOAD PUSH1 0x8 SHR AND SWAP4 DUP3 MLOAD SWAP1 PUSH4 0x62F5AD63 PUSH1 0xE0 SHL DUP3 MSTORE DUP3 DUP3 DUP3 DUP2 DUP10 GAS STATICCALL DUP1 ISZERO PUSH2 0xCBD JUMPI DUP9 SWAP1 PUSH2 0xD07 JUMPI JUMPDEST PUSH2 0xB84 SWAP3 POP PUSH2 0x2710 SWAP3 DUP4 SWAP2 DUP8 PUSH2 0x1391 JUMP JUMPDEST DIV SWAP6 DUP5 MLOAD PUSH4 0x3C6EC585 PUSH1 0xE1 SHL DUP2 MSTORE DUP5 DUP2 DUP5 DUP2 DUP6 GAS STATICCALL SWAP1 DUP2 ISZERO PUSH2 0xCFD JUMPI SWAP1 DUP6 SWAP3 SWAP2 DUP12 SWAP2 PUSH2 0xCC7 JUMPI JUMPDEST POP PUSH2 0xBB6 SWAP1 DUP9 PUSH2 0x1391 JUMP JUMPDEST POP DUP6 MLOAD PUSH4 0x1EB4189 PUSH1 0xE7 SHL DUP2 MSTORE SWAP3 DUP4 SWAP2 DUP3 SWAP1 GAS STATICCALL SWAP1 DUP2 ISZERO PUSH2 0xCBD JUMPI DUP9 SWAP2 PUSH2 0xC64 JUMPI JUMPDEST POP SWAP2 PUSH32 0x1F5794A97A8FD0F5605D102F892A8A78D86771F26E26716D26E376F3F4A3D613 SWAP6 PUSH1 0x60 SWAP3 PUSH2 0xC0D DUP8 SWAP7 SWAP6 PUSH1 0xA0 SWAP9 PUSH2 0x1391 JUMP JUMPDEST DIV DUP9 DUP11 MSTORE PUSH1 0x5 DUP4 MSTORE PUSH2 0xC23 DUP6 DUP12 KECCAK256 SWAP2 DUP3 SLOAD PUSH2 0x114A JUMP JUMPDEST SWAP1 SSTORE DUP8 DUP10 MSTORE PUSH1 0x7 DUP3 MSTORE PUSH2 0xC3A DUP5 DUP11 KECCAK256 SWAP2 DUP3 SLOAD PUSH2 0x114A JUMP JUMPDEST SWAP1 SSTORE DUP3 MLOAD SWAP4 DUP5 MSTORE DUP4 ADD MSTORE PUSH1 0x3 PUSH1 0x60 DUP4 ADD MSTORE PUSH3 0x185B1B PUSH1 0xEA SHL PUSH1 0x80 DUP4 ADD MSTORE TIMESTAMP SWAP1 DUP3 ADD MSTORE LOG2 PUSH1 0x1 DUP1 SSTORE DUP1 RETURN JUMPDEST SWAP2 SWAP5 SWAP4 SWAP3 DUP1 SWAP2 POP DUP3 DUP2 RETURNDATASIZE DUP4 GT PUSH2 0xCB6 JUMPI JUMPDEST PUSH2 0xC7F DUP2 DUP4 PUSH2 0x116D JUMP JUMPDEST DUP2 ADD SUB SLT PUSH2 0x990 JUMPI SWAP1 MLOAD SWAP3 SWAP4 SWAP2 SWAP3 SWAP1 SWAP2 SWAP1 PUSH32 0x1F5794A97A8FD0F5605D102F892A8A78D86771F26E26716D26E376F3F4A3D613 PUSH2 0xBD8 JUMP JUMPDEST POP RETURNDATASIZE PUSH2 0xC75 JUMP JUMPDEST DUP5 MLOAD RETURNDATASIZE DUP11 DUP3 RETURNDATACOPY RETURNDATASIZE SWAP1 REVERT JUMPDEST DUP4 DUP2 SWAP5 SWAP3 POP RETURNDATASIZE DUP4 GT PUSH2 0xCF6 JUMPI JUMPDEST PUSH2 0xCDE DUP2 DUP4 PUSH2 0x116D JUMP JUMPDEST DUP2 ADD SUB SLT PUSH2 0xCF2 JUMPI PUSH2 0xBB6 DUP6 SWAP3 MLOAD SWAP1 PUSH2 0xBAB JUMP JUMPDEST DUP10 DUP1 REVERT JUMPDEST POP RETURNDATASIZE PUSH2 0xCD4 JUMP JUMPDEST DUP7 MLOAD RETURNDATASIZE DUP13 DUP3 RETURNDATACOPY RETURNDATASIZE SWAP1 REVERT JUMPDEST POP DUP3 DUP3 DUP2 RETURNDATASIZE DUP4 GT PUSH2 0xD2F JUMPI JUMPDEST PUSH2 0xD1D DUP2 DUP4 PUSH2 0x116D JUMP JUMPDEST DUP2 ADD SUB SLT PUSH2 0x990 JUMPI PUSH2 0xB84 SWAP2 MLOAD PUSH2 0xB73 JUMP JUMPDEST POP RETURNDATASIZE PUSH2 0xD13 JUMP JUMPDEST DUP3 MLOAD PUSH3 0x461BCD PUSH1 0xE5 SHL DUP2 MSTORE DUP1 DUP7 ADD DUP4 SWAP1 MSTORE PUSH1 0x26 PUSH1 0x24 DUP3 ADD MSTORE PUSH32 0x5661756C744D616E616765723A20696E73756666696369656E742070726F6669 PUSH1 0x44 DUP3 ADD MSTORE PUSH6 0x1D081C1BDBDB PUSH1 0xD2 SHL PUSH1 0x64 DUP3 ADD MSTORE PUSH1 0x84 SWAP1 REVERT JUMPDEST SWAP3 POP POP CALLVALUE PUSH2 0x196 JUMPI PUSH1 0x20 CALLDATASIZE PUSH1 0x3 NOT ADD SLT PUSH2 0x196 JUMPI CALLDATALOAD PUSH4 0xFFFFFFFF PUSH1 0xE0 SHL DUP2 AND DUP1 SWAP2 SUB PUSH2 0x196 JUMPI PUSH1 0x20 SWAP3 POP PUSH4 0x7965DB0B PUSH1 0xE0 SHL DUP2 EQ SWAP1 DUP2 ISZERO PUSH2 0xDCB JUMPI JUMPDEST POP ISZERO ISZERO DUP2 MSTORE RETURN JUMPDEST PUSH4 0x1FFC9A7 PUSH1 0xE0 SHL EQ SWAP1 POP CODESIZE PUSH2 0xDC4 JUMP JUMPDEST PUSH1 0x4 CALLDATALOAD SWAP1 PUSH1 0x1 PUSH1 0x1 PUSH1 0xA0 SHL SUB DUP3 AND DUP3 SUB PUSH2 0xDF2 JUMPI JUMP JUMPDEST PUSH1 0x0 DUP1 REVERT JUMPDEST PUSH1 0x24 CALLDATALOAD SWAP1 PUSH1 0x1 PUSH1 0x1 PUSH1 0xA0 SHL SUB DUP3 AND DUP3 SUB PUSH2 0xDF2 JUMPI JUMP JUMPDEST PUSH1 0x44 CALLDATALOAD SWAP1 PUSH1 0x1 PUSH1 0x1 PUSH1 0xA0 SHL SUB DUP3 AND DUP3 SUB PUSH2 0xDF2 JUMPI JUMP JUMPDEST SWAP2 DUP2 PUSH1 0x1F DUP5 ADD SLT ISZERO PUSH2 0xDF2 JUMPI DUP3 CALLDATALOAD SWAP2 PUSH8 0xFFFFFFFFFFFFFFFF DUP4 GT PUSH2 0xDF2 JUMPI PUSH1 0x20 DUP4 DUP2 DUP7 ADD SWAP6 ADD ADD GT PUSH2 0xDF2 JUMPI JUMP JUMPDEST PUSH1 0x60 SWAP1 PUSH1 0x3 NOT ADD SLT PUSH2 0xDF2 JUMPI PUSH1 0x1 PUSH1 0x1 PUSH1 0xA0 SHL SUB SWAP1 PUSH1 0x4 CALLDATALOAD DUP3 DUP2 AND DUP2 SUB PUSH2 0xDF2 JUMPI SWAP2 PUSH1 0x24 CALLDATALOAD SWAP1 DUP2 AND DUP2 SUB PUSH2 0xDF2 JUMPI SWAP1 PUSH1 0x44 CALLDATALOAD SWAP1 JUMP JUMPDEST CALLER PUSH1 0x0 SWAP1 DUP2 MSTORE PUSH32 0xAD3228B676F7D3CD4284A5443F17F1962B36E491B30A40B2405849E597BA5FB5 PUSH1 0x20 MSTORE PUSH1 0x40 DUP2 KECCAK256 SLOAD PUSH1 0xFF AND ISZERO PUSH2 0xEC0 JUMPI POP JUMP JUMPDEST PUSH1 0x44 SWAP1 PUSH1 0x40 MLOAD SWAP1 PUSH4 0xE2517D3F PUSH1 0xE0 SHL DUP3 MSTORE CALLER PUSH1 0x4 DUP4 ADD MSTORE PUSH1 0x24 DUP3 ADD MSTORE REVERT JUMPDEST DUP1 PUSH1 0x0 MSTORE PUSH1 0x0 PUSH1 0x20 MSTORE PUSH1 0x40 PUSH1 0x0 KECCAK256 CALLER PUSH1 0x0 MSTORE PUSH1 0x20 MSTORE PUSH1 0xFF PUSH1 0x40 PUSH1 0x0 KECCAK256 SLOAD AND ISZERO PUSH2 0xEC0 JUMPI POP JUMP JUMPDEST PUSH1 0x1 PUSH1 0x1 PUSH1 0xA0 SHL SUB AND PUSH1 0x0 DUP2 DUP2 MSTORE PUSH32 0xAD6010F11D85E6849EC87F5F41F95A2725AAF728916B399656C75CE30B0D2C54 PUSH1 0x20 MSTORE PUSH1 0x40 DUP2 KECCAK256 SLOAD SWAP1 SWAP2 SWAP1 PUSH1 0x0 DUP1 MLOAD PUSH1 0x20 PUSH2 0x13A5 DUP4 CODECOPY DUP2 MLOAD SWAP2 MSTORE SWAP1 PUSH1 0xFF AND PUSH2 0xF9F JUMPI DUP1 DUP4 MSTORE DUP3 PUSH1 0x20 MSTORE PUSH1 0x40 DUP4 KECCAK256 DUP3 DUP5 MSTORE PUSH1 0x20 MSTORE PUSH1 0x40 DUP4 KECCAK256 PUSH1 0x1 PUSH1 0xFF NOT DUP3 SLOAD AND OR SWAP1 SSTORE PUSH32 0x2F8788117E7EFF1D82E926EC794901D17C78024A50270940304540A733656F0D CALLER SWAP4 DUP1 LOG4 PUSH1 0x1 SWAP1 JUMP JUMPDEST POP POP SWAP1 JUMP JUMPDEST SWAP1 PUSH1 0x0 SWAP2 DUP1 DUP4 MSTORE DUP3 PUSH1 0x20 MSTORE PUSH1 0x40 DUP4 KECCAK256 SWAP2 PUSH1 0x1 DUP1 PUSH1 0xA0 SHL SUB AND SWAP2 DUP3 DUP5 MSTORE PUSH1 0x20 MSTORE PUSH1 0xFF PUSH1 0x40 DUP5 KECCAK256 SLOAD AND ISZERO PUSH1 0x0 EQ PUSH2 0xF9F JUMPI DUP1 DUP4 MSTORE DUP3 PUSH1 0x20 MSTORE PUSH1 0x40 DUP4 KECCAK256 DUP3 DUP5 MSTORE PUSH1 0x20 MSTORE PUSH1 0x40 DUP4 KECCAK256 PUSH1 0x1 PUSH1 0xFF NOT DUP3 SLOAD AND OR SWAP1 SSTORE PUSH32 0x2F8788117E7EFF1D82E926EC794901D17C78024A50270940304540A733656F0D CALLER SWAP4 DUP1 LOG4 PUSH1 0x1 SWAP1 JUMP JUMPDEST SWAP1 PUSH1 0x0 SWAP2 DUP1 DUP4 MSTORE DUP3 PUSH1 0x20 MSTORE PUSH1 0x40 DUP4 KECCAK256 SWAP2 PUSH1 0x1 DUP1 PUSH1 0xA0 SHL SUB AND SWAP2 DUP3 DUP5 MSTORE PUSH1 0x20 MSTORE PUSH1 0xFF PUSH1 0x40 DUP5 KECCAK256 SLOAD AND PUSH1 0x0 EQ PUSH2 0xF9F JUMPI DUP1 DUP4 MSTORE DUP3 PUSH1 0x20 MSTORE PUSH1 0x40 DUP4 KECCAK256 DUP3 DUP5 MSTORE PUSH1 0x20 MSTORE PUSH1 0x40 DUP4 KECCAK256 PUSH1 0xFF NOT DUP2 SLOAD AND SWAP1 SSTORE PUSH32 0xF6391F5C32D9C69D2A47EA670B442974B53935D1EDC7FD64EB21E047A839171B CALLER SWAP4 DUP1 LOG4 PUSH1 0x1 SWAP1 JUMP JUMPDEST ISZERO PUSH2 0x1099 JUMPI JUMP JUMPDEST PUSH1 0x40 MLOAD PUSH3 0x461BCD PUSH1 0xE5 SHL DUP2 MSTORE PUSH1 0x20 PUSH1 0x4 DUP3 ADD MSTORE PUSH1 0x24 DUP1 DUP3 ADD MSTORE PUSH32 0x5661756C744D616E616765723A2063616C6C6572206973206E6F74206F706572 PUSH1 0x44 DUP3 ADD MSTORE PUSH4 0x30BA37B9 PUSH1 0xE1 SHL PUSH1 0x64 DUP3 ADD MSTORE PUSH1 0x84 SWAP1 REVERT JUMPDEST ISZERO PUSH2 0x10F1 JUMPI JUMP JUMPDEST PUSH1 0x40 MLOAD PUSH3 0x461BCD PUSH1 0xE5 SHL DUP2 MSTORE PUSH1 0x20 PUSH1 0x4 DUP3 ADD MSTORE PUSH1 0x2B PUSH1 0x24 DUP3 ADD MSTORE PUSH32 0x5661756C744D616E616765723A20616D6F756E74206D75737420626520677265 PUSH1 0x44 DUP3 ADD MSTORE PUSH11 0x61746572207468616E203 PUSH1 0xAC SHL PUSH1 0x64 DUP3 ADD MSTORE PUSH1 0x84 SWAP1 REVERT JUMPDEST SWAP2 SWAP1 DUP3 ADD DUP1 SWAP3 GT PUSH2 0x1157 JUMPI JUMP JUMPDEST PUSH4 0x4E487B71 PUSH1 0xE0 SHL PUSH1 0x0 MSTORE PUSH1 0x11 PUSH1 0x4 MSTORE PUSH1 0x24 PUSH1 0x0 REVERT JUMPDEST SWAP1 PUSH1 0x1F DUP1 NOT SWAP2 ADD AND DUP2 ADD SWAP1 DUP2 LT PUSH8 0xFFFFFFFFFFFFFFFF DUP3 GT OR PUSH2 0x118F JUMPI PUSH1 0x40 MSTORE JUMP JUMPDEST PUSH4 0x4E487B71 PUSH1 0xE0 SHL PUSH1 0x0 MSTORE PUSH1 0x41 PUSH1 0x4 MSTORE PUSH1 0x24 PUSH1 0x0 REVERT JUMPDEST PUSH1 0x40 MLOAD PUSH4 0x23B872DD PUSH1 0xE0 SHL PUSH1 0x20 DUP3 ADD MSTORE PUSH1 0x1 PUSH1 0x1 PUSH1 0xA0 SHL SUB SWAP3 DUP4 AND PUSH1 0x24 DUP3 ADD MSTORE SWAP3 SWAP1 SWAP2 AND PUSH1 0x44 DUP4 ADD MSTORE PUSH1 0x64 DUP1 DUP4 ADD SWAP4 SWAP1 SWAP4 MSTORE SWAP2 DUP2 MSTORE PUSH1 0xA0 DUP2 ADD SWAP2 DUP2 DUP4 LT PUSH8 0xFFFFFFFFFFFFFFFF DUP5 GT OR PUSH2 0x118F JUMPI PUSH2 0x11FE SWAP3 PUSH1 0x40 MSTORE PUSH2 0x1200 JUMP JUMPDEST JUMP JUMPDEST SWAP1 PUSH1 0x0 PUSH1 0x20 SWAP2 DUP3 DUP2 MLOAD SWAP2 ADD DUP3 DUP6 GAS CALL ISZERO PUSH2 0x125C JUMPI PUSH1 0x0 MLOAD RETURNDATASIZE PUSH2 0x1253 JUMPI POP PUSH1 0x1 PUSH1 0x1 PUSH1 0xA0 SHL SUB DUP2 AND EXTCODESIZE ISZERO JUMPDEST PUSH2 0x1231 JUMPI POP JUMP JUMPDEST PUSH1 0x40 MLOAD PUSH4 0x5274AFE7 PUSH1 0xE0 SHL DUP2 MSTORE PUSH1 0x1 PUSH1 0x1 PUSH1 0xA0 SHL SUB SWAP1 SWAP2 AND PUSH1 0x4 DUP3 ADD MSTORE PUSH1 0x24 SWAP1 REVERT JUMPDEST PUSH1 0x1 EQ ISZERO PUSH2 0x122A JUMP JUMPDEST PUSH1 0x40 MLOAD RETURNDATASIZE PUSH1 0x0 DUP3 RETURNDATACOPY RETURNDATASIZE SWAP1 REVERT JUMPDEST PUSH1 0xFF PUSH1 0x2 SLOAD AND PUSH2 0x1274 JUMPI JUMP JUMPDEST PUSH1 0x40 MLOAD PUSH4 0xD93C0665 PUSH1 0xE0 SHL DUP2 MSTORE PUSH1 0x4 SWAP1 REVERT JUMPDEST PUSH1 0x2 PUSH1 0x1 SLOAD EQ PUSH2 0x1297 JUMPI PUSH1 0x2 PUSH1 0x1 SSTORE JUMP JUMPDEST PUSH1 0x40 MLOAD PUSH4 0x3EE5AEB5 PUSH1 0xE0 SHL DUP2 MSTORE PUSH1 0x4 SWAP1 REVERT JUMPDEST ISZERO PUSH2 0x12B0 JUMPI JUMP JUMPDEST PUSH1 0x40 MLOAD PUSH3 0x461BCD PUSH1 0xE5 SHL DUP2 MSTORE PUSH1 0x20 PUSH1 0x4 DUP3 ADD MSTORE PUSH1 0x22 PUSH1 0x24 DUP3 ADD MSTORE PUSH32 0x5661756C744D616E616765723A20696E73756666696369656E742062616C616E PUSH1 0x44 DUP3 ADD MSTORE PUSH2 0x6365 PUSH1 0xF0 SHL PUSH1 0x64 DUP3 ADD MSTORE PUSH1 0x84 SWAP1 REVERT JUMPDEST SWAP2 SWAP1 DUP3 SUB SWAP2 DUP3 GT PUSH2 0x1157 JUMPI JUMP JUMPDEST PUSH1 0x40 MLOAD PUSH4 0xA9059CBB PUSH1 0xE0 SHL PUSH1 0x20 DUP3 ADD MSTORE PUSH1 0x1 PUSH1 0x1 PUSH1 0xA0 SHL SUB SWAP1 SWAP3 AND PUSH1 0x24 DUP4 ADD MSTORE PUSH1 0x44 DUP1 DUP4 ADD SWAP4 SWAP1 SWAP4 MSTORE SWAP2 DUP2 MSTORE PUSH1 0x80 DUP2 ADD SWAP2 PUSH8 0xFFFFFFFFFFFFFFFF DUP4 GT DUP3 DUP5 LT OR PUSH2 0x118F JUMPI PUSH2 0x11FE SWAP3 PUSH1 0x40 MSTORE PUSH2 0x1200 JUMP JUMPDEST SWAP5 SWAP4 SWAP3 DUP1 PUSH1 0x40 SWAP4 PUSH1 0x80 SWAP4 DUP9 MSTORE PUSH1 0x60 PUSH1 0x20 DUP10 ADD MSTORE DUP2 PUSH1 0x60 DUP10 ADD MSTORE DUP4 DUP9 ADD CALLDATACOPY PUSH1 0x0 DUP3 DUP3 DUP9 ADD ADD MSTORE PUSH1 0x1F DUP1 NOT SWAP2 ADD AND DUP6 ADD ADD SWAP4 ADD MSTORE JUMP JUMPDEST DUP2 DUP2 MUL SWAP3 SWAP2 DUP2 ISZERO SWAP2 DUP5 DIV EQ OR ISZERO PUSH2 0x1157 JUMPI JUMP INVALID PUSH10 0x6E87880CF63DCA8F080E PUSH27 0x26952044D39AFBD9CB8AB3582BD4B29E6071B29A2646970667358 0x22 SLT KECCAK256 JUMPI ISZERO DUP12 INVALID 0xF9 0xC0 SWAP8 0xAB 0x4E 0xD 0x4E 0xB8 RETURNDATASIZE ADDRESS MSTORE GT NUMBER PUSH16 0x5B3AB2F4ADFFC167BD70A79E06896473 PUSH16 0x6C634300081400332F8788117E7EFF1D DUP3 0xE9 0x26 0xEC PUSH26 0x4901D17C78024A50270940304540A733656F0D00000000000000 "},"methodIdentifiers":{"DEFAULT_ADMIN_ROLE()":"a217fddf","VAULT_OPERATOR_ROLE()":"bed62365","collectFee(address,address,uint256,string)":"ec185a07","config()":"79502c55","depositMargin(address,address,uint256)":"564a6c98","distributeProfits(address,uint256)":"08b8bb4b","donationPoolBalance(address)":"d44f97b8","getProfitPoolBalance(address)":"f6faa649","getRoleAdmin(bytes32)":"248a9ca3","getTotalMarginPool(address)":"ad04570d","getUserMarginBalance(address,address)":"a7a62975","grantOperatorRole(address)":"27ac0c58","grantRole(bytes32,address)":"2f2ff15d","hasRole(bytes32,address)":"91d14854","interactPoolBalance(address)":"1de8ae53","lpPoolBalance(address)":"7af4c51b","marginPoolBalance(address)":"c69c75cd","pause()":"8456cb59","paused()":"5c975abb","profitPoolBalance(address)":"3e0e706e","renounceRole(bytes32,address)":"36568abe","revokeRole(bytes32,address)":"d547741f","setConfig(address)":"20e3dbd4","supportsInterface(bytes4)":"01ffc9a7","transferMargin(address,address,address,uint256,string)":"2ff1d458","transferToFeedProtocol(address,uint256,address)":"77c5b506","unpause()":"3f4ba83a","userMarginBalance(address,address)":"715d5896","withdrawMargin(address,address,uint256)":"d249f54e"}}}}}