{"contracts/feed/FeedProtocol.sol":{"FeedProtocol":{"abi":[{"inputs":[{"internalType":"address","name":"_config","type":"address"},{"internalType":"address","name":"_usdt","type":"address"},{"internalType":"address","name":"_admin","type":"address"}],"stateMutability":"nonpayable","type":"constructor"},{"inputs":[],"name":"AccessControlBadConfirmation","type":"error"},{"inputs":[{"internalType":"address","name":"account","type":"address"},{"internalType":"bytes32","name":"neededRole","type":"bytes32"}],"name":"AccessControlUnauthorizedAccount","type":"error"},{"inputs":[],"name":"EnforcedPause","type":"error"},{"inputs":[],"name":"ExpectedPause","type":"error"},{"inputs":[],"name":"ReentrancyGuardReentrantCall","type":"error"},{"inputs":[{"internalType":"address","name":"token","type":"address"}],"name":"SafeERC20FailedOperation","type":"error"},{"anonymous":false,"inputs":[{"indexed":true,"internalType":"uint256","name":"requestId","type":"uint256"},{"indexed":false,"internalType":"uint256","name":"finalPrice","type":"uint256"},{"indexed":false,"internalType":"uint256","name":"timestamp","type":"uint256"}],"name":"FeedFinalized","type":"event"},{"anonymous":false,"inputs":[{"indexed":true,"internalType":"uint256","name":"requestId","type":"uint256"},{"indexed":true,"internalType":"address","name":"feeder","type":"address"},{"indexed":false,"internalType":"string","name":"reason","type":"string"},{"indexed":false,"internalType":"uint256","name":"timestamp","type":"uint256"}],"name":"FeedRejected","type":"event"},{"anonymous":false,"inputs":[{"indexed":true,"internalType":"uint256","name":"requestId","type":"uint256"},{"indexed":true,"internalType":"uint256","name":"orderId","type":"uint256"},{"indexed":false,"internalType":"string","name":"underlyingName","type":"string"},{"indexed":false,"internalType":"string","name":"underlyingCode","type":"string"},{"indexed":false,"internalType":"string","name":"market","type":"string"},{"indexed":false,"internalType":"string","name":"country","type":"string"},{"indexed":false,"internalType":"enum FeedType","name":"feedType","type":"uint8"},{"indexed":false,"internalType":"enum LiquidationRule","name":"liquidationRule","type":"uint8"},{"indexed":false,"internalType":"uint8","name":"consecutiveDays","type":"uint8"},{"indexed":false,"internalType":"uint8","name":"exerciseDelay","type":"uint8"},{"indexed":false,"internalType":"uint256","name":"timestamp","type":"uint256"}],"name":"FeedRequested","type":"event"},{"anonymous":false,"inputs":[{"indexed":true,"internalType":"uint256","name":"requestId","type":"uint256"},{"indexed":true,"internalType":"address","name":"feeder","type":"address"},{"indexed":false,"internalType":"uint256","name":"price","type":"uint256"},{"indexed":false,"internalType":"uint256","name":"timestamp","type":"uint256"}],"name":"FeedSubmitted","type":"event"},{"anonymous":false,"inputs":[{"indexed":true,"internalType":"address","name":"feeder","type":"address"},{"indexed":false,"internalType":"string","name":"reason","type":"string"},{"indexed":false,"internalType":"uint256","name":"timestamp","type":"uint256"}],"name":"FeederBlacklisted","type":"event"},{"anonymous":false,"inputs":[{"indexed":true,"internalType":"address","name":"feeder","type":"address"},{"indexed":false,"internalType":"string","name":"reason","type":"string"},{"indexed":false,"internalType":"uint256","name":"timestamp","type":"uint256"}],"name":"FeederDeactivated","type":"event"},{"anonymous":false,"inputs":[{"indexed":true,"internalType":"address","name":"feeder","type":"address"},{"indexed":false,"internalType":"uint256","name":"stakedAmount","type":"uint256"},{"indexed":false,"internalType":"uint256","name":"timestamp","type":"uint256"}],"name":"FeederRegistered","type":"event"},{"anonymous":false,"inputs":[{"indexed":false,"internalType":"address","name":"account","type":"address"}],"name":"Paused","type":"event"},{"anonymous":false,"inputs":[{"indexed":true,"internalType":"uint256","name":"requestId","type":"uint256"},{"indexed":true,"internalType":"address","name":"feeder","type":"address"},{"indexed":false,"internalType":"uint256","name":"amount","type":"uint256"},{"indexed":false,"internalType":"uint256","name":"timestamp","type":"uint256"}],"name":"RewardDistributed","type":"event"},{"anonymous":false,"inputs":[{"indexed":true,"internalType":"bytes32","name":"role","type":"bytes32"},{"indexed":true,"internalType":"bytes32","name":"previousAdminRole","type":"bytes32"},{"indexed":true,"internalType":"bytes32","name":"newAdminRole","type":"bytes32"}],"name":"RoleAdminChanged","type":"event"},{"anonymous":false,"inputs":[{"indexed":true,"internalType":"bytes32","name":"role","type":"bytes32"},{"indexed":true,"internalType":"address","name":"account","type":"address"},{"indexed":true,"internalType":"address","name":"sender","type":"address"}],"name":"RoleGranted","type":"event"},{"anonymous":false,"inputs":[{"indexed":true,"internalType":"bytes32","name":"role","type":"bytes32"},{"indexed":true,"internalType":"address","name":"account","type":"address"},{"indexed":true,"internalType":"address","name":"sender","type":"address"}],"name":"RoleRevoked","type":"event"},{"anonymous":false,"inputs":[{"indexed":false,"internalType":"address","name":"account","type":"address"}],"name":"Unpaused","type":"event"},{"inputs":[],"name":"DEFAULT_ADMIN_ROLE","outputs":[{"internalType":"bytes32","name":"","type":"bytes32"}],"stateMutability":"view","type":"function"},{"inputs":[],"name":"FEED_OPERATOR_ROLE","outputs":[{"internalType":"bytes32","name":"","type":"bytes32"}],"stateMutability":"view","type":"function"},{"inputs":[],"name":"PROTOCOL_ROLE","outputs":[{"internalType":"bytes32","name":"","type":"bytes32"}],"stateMutability":"view","type":"function"},{"inputs":[],"name":"SENIOR_FEEDER_ROLE","outputs":[{"internalType":"bytes32","name":"","type":"bytes32"}],"stateMutability":"view","type":"function"},{"inputs":[{"internalType":"uint256","name":"amount","type":"uint256"}],"name":"addStake","outputs":[],"stateMutability":"nonpayable","type":"function"},{"inputs":[{"internalType":"address","name":"feeder","type":"address"},{"internalType":"string","name":"reason","type":"string"}],"name":"blacklistFeeder","outputs":[],"stateMutability":"nonpayable","type":"function"},{"inputs":[],"name":"config","outputs":[{"internalType":"contract Config","name":"","type":"address"}],"stateMutability":"view","type":"function"},{"inputs":[{"internalType":"uint256","name":"orderId","type":"uint256"},{"internalType":"enum FeedType","name":"feedType","type":"uint8"},{"internalType":"enum FeedTier","name":"tier","type":"uint8"}],"name":"createFeedRequest","outputs":[{"internalType":"uint256","name":"requestId","type":"uint256"}],"stateMutability":"payable","type":"function"},{"inputs":[{"internalType":"uint256","name":"","type":"uint256"}],"name":"feedRequests","outputs":[{"internalType":"uint256","name":"requestId","type":"uint256"},{"internalType":"uint256","name":"orderId","type":"uint256"},{"internalType":"enum FeedType","name":"feedType","type":"uint8"},{"internalType":"enum FeedTier","name":"tier","type":"uint8"},{"internalType":"uint256","name":"deadline","type":"uint256"},{"internalType":"uint256","name":"createdAt","type":"uint256"},{"internalType":"uint256","name":"totalFeeders","type":"uint256"},{"internalType":"uint256","name":"submittedCount","type":"uint256"},{"internalType":"uint256","name":"finalPrice","type":"uint256"},{"internalType":"bool","name":"finalized","type":"bool"}],"stateMutability":"view","type":"function"},{"inputs":[{"internalType":"uint256","name":"","type":"uint256"}],"name":"feederList","outputs":[{"internalType":"address","name":"","type":"address"}],"stateMutability":"view","type":"function"},{"inputs":[{"internalType":"address","name":"","type":"address"}],"name":"feeders","outputs":[{"internalType":"address","name":"feederAddress","type":"address"},{"internalType":"uint256","name":"stakedAmount","type":"uint256"},{"internalType":"uint256","name":"completedFeeds","type":"uint256"},{"internalType":"uint256","name":"rejectedFeeds","type":"uint256"},{"internalType":"uint256","name":"registeredAt","type":"uint256"},{"internalType":"bool","name":"isActive","type":"bool"},{"internalType":"bool","name":"isBlacklisted","type":"bool"}],"stateMutability":"view","type":"function"},{"inputs":[{"internalType":"uint256","name":"requestId","type":"uint256"}],"name":"finalizeFeed","outputs":[{"internalType":"uint256","name":"finalPrice","type":"uint256"}],"stateMutability":"nonpayable","type":"function"},{"inputs":[{"internalType":"enum FeedTier","name":"tier","type":"uint8"}],"name":"getFeedFee","outputs":[{"internalType":"uint256","name":"","type":"uint256"}],"stateMutability":"view","type":"function"},{"inputs":[{"internalType":"uint256","name":"requestId","type":"uint256"}],"name":"getFeedRequest","outputs":[{"components":[{"internalType":"uint256","name":"requestId","type":"uint256"},{"internalType":"uint256","name":"orderId","type":"uint256"},{"internalType":"enum FeedType","name":"feedType","type":"uint8"},{"internalType":"enum FeedTier","name":"tier","type":"uint8"},{"internalType":"uint256","name":"deadline","type":"uint256"},{"internalType":"uint256","name":"createdAt","type":"uint256"},{"internalType":"uint256","name":"totalFeeders","type":"uint256"},{"internalType":"uint256","name":"submittedCount","type":"uint256"},{"internalType":"uint256","name":"finalPrice","type":"uint256"},{"internalType":"bool","name":"finalized","type":"bool"}],"internalType":"struct FeedRequest","name":"","type":"tuple"}],"stateMutability":"view","type":"function"},{"inputs":[{"internalType":"address","name":"feeder","type":"address"}],"name":"getFeeder","outputs":[{"components":[{"internalType":"address","name":"feederAddress","type":"address"},{"internalType":"uint256","name":"stakedAmount","type":"uint256"},{"internalType":"uint256","name":"completedFeeds","type":"uint256"},{"internalType":"uint256","name":"rejectedFeeds","type":"uint256"},{"internalType":"uint256","name":"registeredAt","type":"uint256"},{"internalType":"bool","name":"isActive","type":"bool"},{"internalType":"bool","name":"isBlacklisted","type":"bool"}],"internalType":"struct FeedProtocol.Feeder","name":"","type":"tuple"}],"stateMutability":"view","type":"function"},{"inputs":[],"name":"getFeederCount","outputs":[{"internalType":"uint256","name":"","type":"uint256"}],"stateMutability":"view","type":"function"},{"inputs":[{"internalType":"uint256","name":"orderId","type":"uint256"}],"name":"getOrderFeedRequests","outputs":[{"internalType":"uint256[]","name":"","type":"uint256[]"}],"stateMutability":"view","type":"function"},{"inputs":[{"internalType":"bytes32","name":"role","type":"bytes32"}],"name":"getRoleAdmin","outputs":[{"internalType":"bytes32","name":"","type":"bytes32"}],"stateMutability":"view","type":"function"},{"inputs":[{"internalType":"uint256","name":"requestId","type":"uint256"}],"name":"getSubmissions","outputs":[{"components":[{"internalType":"address","name":"feeder","type":"address"},{"internalType":"uint256","name":"price","type":"uint256"},{"internalType":"uint256","name":"timestamp","type":"uint256"},{"internalType":"bool","name":"isValid","type":"bool"}],"internalType":"struct FeedProtocol.FeedSubmission[]","name":"","type":"tuple[]"}],"stateMutability":"view","type":"function"},{"inputs":[{"internalType":"address","name":"protocol","type":"address"}],"name":"grantProtocolRole","outputs":[],"stateMutability":"nonpayable","type":"function"},{"inputs":[{"internalType":"bytes32","name":"role","type":"bytes32"},{"internalType":"address","name":"account","type":"address"}],"name":"grantRole","outputs":[],"stateMutability":"nonpayable","type":"function"},{"inputs":[{"internalType":"address","name":"feeder","type":"address"}],"name":"grantSeniorFeederRole","outputs":[],"stateMutability":"nonpayable","type":"function"},{"inputs":[{"internalType":"bytes32","name":"role","type":"bytes32"},{"internalType":"address","name":"account","type":"address"}],"name":"hasRole","outputs":[{"internalType":"bool","name":"","type":"bool"}],"stateMutability":"view","type":"function"},{"inputs":[{"internalType":"uint256","name":"","type":"uint256"},{"internalType":"address","name":"","type":"address"}],"name":"hasSubmitted","outputs":[{"internalType":"bool","name":"","type":"bool"}],"stateMutability":"view","type":"function"},{"inputs":[],"name":"nextRequestId","outputs":[{"internalType":"uint256","name":"","type":"uint256"}],"stateMutability":"view","type":"function"},{"inputs":[{"internalType":"uint256","name":"","type":"uint256"},{"internalType":"uint256","name":"","type":"uint256"}],"name":"orderFeedRequests","outputs":[{"internalType":"uint256","name":"","type":"uint256"}],"stateMutability":"view","type":"function"},{"inputs":[],"name":"pause","outputs":[],"stateMutability":"nonpayable","type":"function"},{"inputs":[],"name":"paused","outputs":[{"internalType":"bool","name":"","type":"bool"}],"stateMutability":"view","type":"function"},{"inputs":[{"internalType":"uint256","name":"stakeAmount","type":"uint256"}],"name":"registerFeeder","outputs":[],"stateMutability":"nonpayable","type":"function"},{"inputs":[{"internalType":"uint256","name":"requestId","type":"uint256"},{"internalType":"string","name":"reason","type":"string"}],"name":"rejectFeed","outputs":[],"stateMutability":"nonpayable","type":"function"},{"inputs":[{"internalType":"bytes32","name":"role","type":"bytes32"},{"internalType":"address","name":"callerConfirmation","type":"address"}],"name":"renounceRole","outputs":[],"stateMutability":"nonpayable","type":"function"},{"inputs":[{"internalType":"uint256","name":"","type":"uint256"},{"internalType":"uint256","name":"","type":"uint256"}],"name":"requestSubmissions","outputs":[{"internalType":"address","name":"feeder","type":"address"},{"internalType":"uint256","name":"price","type":"uint256"},{"internalType":"uint256","name":"timestamp","type":"uint256"},{"internalType":"bool","name":"isValid","type":"bool"}],"stateMutability":"view","type":"function"},{"inputs":[{"internalType":"bytes32","name":"role","type":"bytes32"},{"internalType":"address","name":"account","type":"address"}],"name":"revokeRole","outputs":[],"stateMutability":"nonpayable","type":"function"},{"inputs":[{"internalType":"address","name":"_config","type":"address"}],"name":"setConfig","outputs":[],"stateMutability":"nonpayable","type":"function"},{"inputs":[{"internalType":"uint256","name":"requestId","type":"uint256"},{"internalType":"uint256","name":"price","type":"uint256"}],"name":"submitFeed","outputs":[],"stateMutability":"nonpayable","type":"function"},{"inputs":[{"internalType":"bytes4","name":"interfaceId","type":"bytes4"}],"name":"supportsInterface","outputs":[{"internalType":"bool","name":"","type":"bool"}],"stateMutability":"view","type":"function"},{"inputs":[{"internalType":"enum FeedTier","name":"","type":"uint8"}],"name":"tierConfigs","outputs":[{"internalType":"uint8","name":"totalFeeders","type":"uint8"},{"internalType":"uint8","name":"effectiveFeeds","type":"uint8"},{"internalType":"uint256","name":"platformFee","type":"uint256"},{"internalType":"uint256","name":"feederReward","type":"uint256"},{"internalType":"uint256","name":"totalFee","type":"uint256"}],"stateMutability":"view","type":"function"},{"inputs":[],"name":"unpause","outputs":[],"stateMutability":"nonpayable","type":"function"},{"inputs":[],"name":"usdt","outputs":[{"internalType":"contract IERC20","name":"","type":"address"}],"stateMutability":"view","type":"function"},{"inputs":[{"internalType":"address","name":"to","type":"address"}],"name":"withdrawPlatformFees","outputs":[],"stateMutability":"nonpayable","type":"function"},{"inputs":[{"internalType":"uint256","name":"amount","type":"uint256"}],"name":"withdrawStake","outputs":[],"stateMutability":"nonpayable","type":"function"}],"evm":{"bytecode":{"linkReferences":{},"object":"6080346200024557601f62002d5e38819003918201601f191683019291906001600160401b038411838510176200024a5781606092849260409687528339810103126200024557620000518162000280565b9060206200006e846200006683850162000280565b930162000280565b6001808055600481905560028054610100600160a81b03191660089690961b610100600160a81b0316959095178555600380546001600160a01b0319166001600160a01b039095169490941784559390620000d590620000ce8162000295565b5062000315565b50620000e062000260565b93600585528285019084825286860195670429d069189e00008752606081019067257853b1dd8e0000825286608082016729a2241af62c00008152600093848052600a895260ff8c86209451169a84549b61ff0080995160081b169061ffff19809e161717855551868501555187840155519101556200015f62000260565b600781528689878301600581528184016706f05b59d3b2000081526060850191673e73362871420000835260ff6080870194674563918244f400008652898952600a8d5288209651168d8a8854935160081b169216171785555186850155518784015551910155620001d062000260565b968793600a8552868501916007835260ff8b80880195670b1a2bc2ec5000008752600a608060608b019a6763eb89da4ed000008c52019b676f05b59d3b2000008d528b835252209a5116918a54935160081b169216171787555190860155519084015551910155516129869081620003b88239f35b600080fd5b634e487b7160e01b600052604160045260246000fd5b6040519060a082016001600160401b038111838210176200024a57604052565b51906001600160a01b03821682036200024557565b6001600160a01b031660008181527fad3228b676f7d3cd4284a5443f17f1962b36e491b30a40b2405849e597ba5fb5602052604081205490919060ff166200031157818052816020526040822081835260205260408220600160ff19825416179055339160008051602062002d3e8339815191528180a4600190565b5090565b6001600160a01b031660008181527fa0cfc50be65892217a92eab74d4b8dca267a17d5b74f05a4a7cdee0906a51faf60205260408120549091907f70b284da8bfc3de812daa2261b4c3ffadd90c2c772295293d09c9629a737a0cd9060ff16620003b257808352826020526040832082845260205260408320600160ff1982541617905560008051602062002d3e833981519152339380a4600190565b50509056fe608080604052600436101561001357600080fd5b60003560e01c90816301ffc9a714611cd55750806302768de414611c9a57806304b86cb3146119515780630aa31661146118cb578063121c604b1461188957806315450ace1461181f57806316c53ced1461171a57806320e3dbd4146116d2578063248a9ca3146116a357806325d5971f146115345780632f0165ca146114f95780632f0e6ca5146113e15780632f2ff15d146113a25780632f48ab7d1461137957806336568abe146113325780633bf5e3a9146112875780633f4ba83a1461121d5780633fe1ddd214610f0357806346b6270314610d2357806346f53d1e14610ca65780635c975abb14610c835780636a84a98514610c6557806375136ddc14610c2657806379502c5514610bf957806382ae8f0114610bd35780638456cb5914610b795780638ec9f03814610b3e57806391d1485414610af15780639ba7646c146109f65780639da9db2a14610988578063a217fddf1461096c578063a57d38061461091f578063c7c7b02f146108a2578063d547741f14610863578063db18c18914610702578063e5695991146106c1578063eb4f16b514610602578063eb7bb5a7146103d2578063ec3889b5146102ab578063ec5bfc6c1461028d5763f608463a146101e257600080fd5b346102885760208060031936011261028857600435600052600b8152604060002060405190818382549182815201908192600052846000209060005b868282106102745786866102348288038361216c565b604051928392818401908285525180915260408401929160005b82811061025d57505050500390f35b83518552869550938101939281019260010161024e565b83548552909301926001928301920161021e565b600080fd5b34610288576000366003190112610288576020600954604051908152f35b3461028857602080600319360112610288576102c5611d28565b6102cd611e30565b600380546040516370a0823160e01b81523060048201526001600160a01b03918216949092908084602481895afa9384156103c657600094610397575b509190600092600092600954925b83851061035557505050505080821160001461034b57610337916122cc565b905b8161034057005b610349926122d9565b005b5050600090610339565b909192939461038861038e918461036b89611d54565b905490861b1c1660005260088652600160406000200154906122bf565b95612312565b93929190610318565b9080945081813d83116103bf575b6103af818361216c565b810103126102885751928661030a565b503d6103a5565b6040513d6000823e3d90fd5b346102885760208060031936011261028857600435906103f061229c565b6103f861227e565b3360009081526008825260409020546001600160a01b039081166105bf576004828260025460081c16604051928380926363b36cc360e11b82525afa80156103c657600090610590575b61044f915084101561218e565b610461838260035416309033906121d9565b60405161046d81612150565b3381528281018481526104fc60056040840193600085526060810160008152608082019042825260a08301966001885260c0840196600088523360005260088b528960406000209551166bffffffffffffffffffffffff60a01b8654161785555160018501555160028401555160038301555160048201550192511515839060ff801983541691151516179055565b51815461ff00191690151560081b61ff0016179055600954600160401b81101561057a578060016105309201600955611d54565b819291549060031b9133831b921b191617905560405191825242908201527f53226fcf6c46a949f058f2002cb48f6897bf6c0bd2f030158d655ba38d44a16c60403392a260018055005b634e487b7160e01b600052604160045260246000fd5b508281813d83116105b8575b6105a6818361216c565b810103126102885761044f9051610442565b503d61059c565b6064826040519062461bcd60e51b825280600483015260248201527f4665656450726f746f636f6c3a20616c726561647920726567697374657265646044820152fd5b346102885760203660031901126102885760043561061e61229c565b61062661227e565b336000908152600860205260409020546001600160a01b039081161561067c57816106589160035416309033906121d9565b33600052600860205261067460016040600020019182546122bf565b905560018055005b60405162461bcd60e51b815260206004820152601c60248201527f4665656450726f746f636f6c3a206e6f742072656769737465726564000000006044820152606490fd5b34610288576020366003190112610288576004356003811015610288576106e781611e26565b600052600a6020526020600360406000200154604051908152f35b346102885760203660031901126102885761014060405161072281612117565b6000815260006020820152600060408201526000606082015260006080820152600060a0820152600060c0820152600060e082015261010090600082820152600061012080920152600435600052600560205260406000206040519261078784612117565b815484528360018301549260208201938452600281015460ff60408401916107b182821684612321565b60081c1660608401906107c381611e26565b815260038301546080850190815260048401549160a0860192835261082e60058601549460c0880195865260ff600860068901549860e08b01998a528b60078201549b019a8b52015416998b8d019a15158b526040519c518d525160208d01525160408c0190611e19565b5161083881611e26565b60608a01525160808901525160a08801525160c08701525160e0860152519084015251151590820152f35b3461028857604036600319011261028857610349600435610882611d3e565b9080600052600060205261089d600160406000200154611e88565b612086565b34610288576020366003190112610288576103496108be611d28565b6108c6611e30565b7fba279271fb7bbf76a6f3df3cc57bf80647fcafdea60ec3383d90f459de74e7c060009081526020527fbb186cc6582165753931a58fdaac99b9482f9d63c76229808bd3afc382e982165461091a90611e88565b611f60565b3461028857604036600319011261028857610938611d3e565b600435600052600760205260406000209060018060a01b0316600052602052602060ff604060002054166040519015158152f35b3461028857600036600319011261028857602060405160008152f35b34610288576020366003190112610288576004356003811015610288576109ae81611e26565b600052600a60205260a06040600020805490600181015490600360028201549101549160ff60405194818116865260081c166020850152604084015260608301526080820152f35b346102885760203660031901126102885760e0610a11611d28565b600060c0604051610a2181612150565b8281528260208201528260408201528260608201528260808201528260a0820152015260018060a01b038091166000526008602052604060002060405191610a6883612150565b81541691828152600182015491602082019283526002810154604083019081526003820154906060840191825260056004840154936080860194855201549460ff60c060a087019682891615158852019660081c161515865260405196875251602087015251604086015251606085015251608084015251151560a083015251151560c0820152f35b3461028857604036600319011261028857610b0a611d3e565b600435600052600060205260406000209060018060a01b0316600052602052602060ff604060002054166040519015158152f35b346102885760003660031901126102885760206040517f92a9bfc44b11bdcb4ce1c7bb0f30145a060370f7684a9cf6c25518e5775772698152f35b3461028857600036600319011261028857610b92611e30565b610b9a61227e565b600160ff1960025416176002557f62e78cea01bee320cd4e420270b5ea74000d11b0c9f74754ebdbfc544b05a2586020604051338152a1005b34610288576020366003190112610288576020610bf1600435612503565b604051908152f35b346102885760003660031901126102885760025460405160089190911c6001600160a01b03168152602090f35b3461028857610c3436611db9565b90600052600b6020526040600020805482101561028857602091610c5791611da1565b90546040519160031b1c8152f35b34610288576000366003190112610288576020600454604051908152f35b3461028857600036600319011261028857602060ff600254166040519015158152f35b3461028857602036600319011261028857610349610cc2611d28565b610cca611e30565b7f92a9bfc44b11bdcb4ce1c7bb0f30145a060370f7684a9cf6c25518e57757726960009081526020527fb9aa941adaec809e6b0427677375ac0b3d84ba99295ec0ba010b381b51e9479254610d1e90611e88565b611eae565b346102885760403660031901126102885760043560243567ffffffffffffffff811161028857610d57903690600401611deb565b919081151580610ef8575b610d6b9061232d565b336000526008906020828152610d8b60ff60056040600020015416612379565b33600052828152610da960ff600560406000200154851c16156123c5565b3360005282815260046001604060002001548260018060a01b03600254871c16604051938480926363b36cc360e11b82525afa9182156103c657600092610ec1575b5091610e1f7f5d7b755f33872c8c5fe6e178f7b9e167e0aa5f0407495210e7e0c8835a21cadb9592610eb89594101561218e565b610e2761229c565b610e2f61227e565b8560005260058152610e4b60ff83604060002001541615612410565b85600052600781526040600020336000528152610e7060ff604060002054161561245c565b856000526007815260406000203360005281526040600020600160ff19825416179055526003604060002001610ea68154612312565b905560405191829133964291846124a8565b0390a360018055005b94915092918085813d8311610ef1575b610edb818361216c565b8101031261028857935190939192610e1f610deb565b503d610ed1565b506004548210610d62565b3461028857610f1136611db9565b9080151580611212575b610f249061232d565b336000526008602092818452610f4460ff60056040600020015416612379565b33600052818452610f6260ff600560406000200154841c16156123c5565b33600052818452600193846040600020015491600460018060a01b03938385600254881c16604051938480926363b36cc360e11b82525afa9081156103c6576000916111e1575b610fb59250101561218e565b610fbd61229c565b610fc561227e565b8460005260058252610fe260ff6040600020958601541615612410565b6003840154421161119c578460005260078252604060002033600052825261101260ff604060002054161561245c565b801561114b578460005260078252604060002033600052825260406000208660ff1982541617905560068401916110498354612312565b835585600052600681526040600020936040519461106686612134565b33865282860195848752604081019142835260608201908b82528054600160401b81101561057a5761109c918d82018155611dcf565b939093611135576005986110e69560039451166bffffffffffffffffffffffff60a01b865416178555518c85015551600284015551151591019060ff801983541691151516179055565b6040519182524290820152847fdc37948d08732ed33078677fc43276d929de5bc1d96edc08562d508c79adc01c60403393a354910154111561112757508055005b61113090612503565b508055005b634e487b7160e01b600052600060045260246000fd5b60405162461bcd60e51b8152600481018390526024808201527f4665656450726f746f636f6c3a207072696365206d75737420626520706f73696044820152637469766560e01b6064820152608490fd5b60405162461bcd60e51b815260048101839052601d60248201527f4665656450726f746f636f6c3a207265717565737420657870697265640000006044820152606490fd5b90508382813d831161120b575b6111f8818361216c565b8101031261028857610fb5915190610fa9565b503d6111ee565b506004548110610f1b565b3461028857600036600319011261028857611236611e30565b60025460ff8116156112755760ff19166002557f5db9ee0a495bf2e6ff9c91a7834c1ba4fdd244a5e8aa4e537bd38aeae4b073aa6020604051338152a1005b604051638dfc202b60e01b8152600490fd5b346102885760203660031901126102885760043560005260056020526101406040600020805490600181015490600281015460ff8160081c16600383015460048401549060058501549261130060068701549560ff600860078a015499015416986040519a8b5260208b015260ff60408b019116611e19565b61130981611e26565b6060880152608087015260a086015260c085015260e08401526101008301521515610120820152f35b346102885760403660031901126102885761134b611d3e565b336001600160a01b038216036113675761034990600435612086565b60405163334bd91960e11b8152600490fd5b34610288576000366003190112610288576003546040516001600160a01b039091168152602090f35b34610288576040366003190112610288576103496004356113c1611d3e565b908060005260006020526113dc600160406000200154611e88565b61200d565b34610288576040366003190112610288576113fa611d28565b60243567ffffffffffffffff81116102885761141a903690600401611deb565b3360009081527fa0cfc50be65892217a92eab74d4b8dca267a17d5b74f05a4a7cdee0906a51faf60205260409020549092919060ff16156114b4577fa172cc290b2e00bc2a34c06a4d70cd942037859cca624f051cd830b4b268eac59160018060a01b031692836000526008602052600560406000200161010061ffff198254161790556114af6040519283924291846124a8565b0390a2005b60405162461bcd60e51b815260206004820152601a60248201527f4665656450726f746f636f6c3a206e6f74206f70657261746f720000000000006044820152606490fd5b346102885760003660031901126102885760206040517f70b284da8bfc3de812daa2261b4c3ffadd90c2c772295293d09c9629a737a0cd8152f35b34610288576020806003193601126102885760043561155161229c565b61155961227e565b3360005260088252604060002091600183019283549361157b8486101561218e565b61158584866122cc565b6002546040516363b36cc360e11b81526001600160a01b039592909183908390600490829060081c8a165afa9182156103c657600092611674575b501080159061166b575b1561160957506115dd846115f2966122cc565b809155156115f8575b503390600354166122d9565b60018055005b600501805460ff19169055836115e6565b6084906040519062461bcd60e51b82526004820152603560248201527f4665656450726f746f636f6c3a206d757374206d61696e7461696e206d696e206044820152741cdd185ad9481bdc881dda5d1a191c985dc8185b1b605a1b6064820152fd5b508585146115ca565b9091508281813d831161169c575b61168c818361216c565b81010312610288575190886115c0565b503d611682565b346102885760203660031901126102885760043560005260006020526020600160406000200154604051908152f35b34610288576020366003190112610288576116eb611d28565b6116f3611e30565b60028054610100600160a81b03191660089290921b610100600160a81b0316919091179055005b346102885760208060031936011261028857600435600052600681526040600020908154611747816124d7565b90611755604051928361216c565b8082528282018094600052836000206000915b8383106117d35760408051878152865181890181905289928201908960005b8281106117945784840385f35b855180516001600160a01b0316855280830151858401526040808201519086015260609081015115159085015294810194608090930192600101611787565b6004866001926040516117e581612134565b848060a01b03865416815284860154838201526002860154604082015260ff60038701541615156060820152815201920192019190611768565b346102885761182d36611db9565b906000526006602052604060002080548210156102885760809161185091611dcf565b5060018060a01b038154169060018101549060ff6003600283015492015416916040519384526020840152604083015215156060820152f35b3461028857602036600319011261028857600435600954811015610288576118b2602091611d54565b905460405160039290921b1c6001600160a01b03168152f35b346102885760203660031901126102885760e06001600160a01b03806118ef611d28565b16600052600860205260ff60406000209182541691600181015490600281015460038201549060056004840154930154936040519687526020870152604086015260608501526080840152818116151560a084015260081c16151560c0820152f35b60603660031901126102885760043560046024351015610288576044356003811015610288573360009081527fbb186cc6582165753931a58fdaac99b9482f9d63c76229808bd3afc382e98215602052604090205460ff1615611c47576119b661229c565b6119bf81611e26565b80600052600a6020526040600020611a216003604051926119df846120fb565b60ff8154818116865260081c1660208501526001810154604085015260028101546060850152015480608084015260018060a01b0360035416309033906121d9565b60045491611a2e83612312565b600455610708420191824211611c315751604051929060ff16611a5084612117565b84845260208401928684526040850194611a6c60243587612321565b6060810191611a7a81611e26565b82526080810193845260a081019242845260c0820190815260e08201906000825260006101008401526101208301946000865289600052600560205260406000209784518955516001890155600288019851966004881015611c1b57896008986101009760ff61ff00611b409e549251611af381611e26565b611afc81611e26565b8d1b1692169061ffff1916171790555160038901555160048801555160058701555160068601550151600784015551151591019060ff801983541691151516179055565b81600052600b602052604060002091825492600160401b84101561057a5783611b70916001602096018155611da1565b81549060031b9084821b91600019901b1916179055817f615e8f1333715c833aeea3803d6aa6f09d73c6db60f9ed7d1ded1cec09b48d9a6101a0604051610120815260006101208201526000610140808984015282015260006101608060408401528201526000610180806060840152820152611bf260808201602435611e19565b600060a0820152600060c0820152600060e082015242610100820152a360018055604051908152f35b634e487b7160e01b600052602160045260246000fd5b634e487b7160e01b600052601160045260246000fd5b60405162461bcd60e51b815260206004820152602560248201527f4665656450726f746f636f6c3a206e6f7420617574686f72697a65642070726f6044820152641d1bd8dbdb60da1b6064820152608490fd5b346102885760003660031901126102885760206040517fba279271fb7bbf76a6f3df3cc57bf80647fcafdea60ec3383d90f459de74e7c08152f35b34610288576020366003190112610288576004359063ffffffff60e01b821680920361028857602091637965db0b60e01b8114908115611d17575b5015158152f35b6301ffc9a760e01b14905083611d10565b600435906001600160a01b038216820361028857565b602435906001600160a01b038216820361028857565b600954811015611d8b5760096000527f6e1540171b6c0c960b71a7020d9f60077f6af931a8bbf590da0223dacf75c7af0190600090565b634e487b7160e01b600052603260045260246000fd5b8054821015611d8b5760005260206000200190600090565b6040906003190112610288576004359060243590565b8054821015611d8b5760005260206000209060021b0190600090565b9181601f840112156102885782359167ffffffffffffffff8311610288576020838186019501011161028857565b906004821015611c1b5752565b60031115611c1b57565b3360009081527fad3228b676f7d3cd4284a5443f17f1962b36e491b30a40b2405849e597ba5fb5602052604081205460ff1615611e6a5750565b6044906040519063e2517d3f60e01b82523360048301526024820152fd5b80600052600060205260406000203360005260205260ff6040600020541615611e6a5750565b6001600160a01b031660008181527fb9aa941adaec809e6b0427677375ac0b3d84ba99295ec0ba010b381b51e9479160205260408120549091907f92a9bfc44b11bdcb4ce1c7bb0f30145a060370f7684a9cf6c25518e5775772699060ff16611f5b57808352826020526040832082845260205260408320600160ff198254161790557f2f8788117e7eff1d82e926ec794901d17c78024a50270940304540a733656f0d339380a4600190565b505090565b6001600160a01b031660008181527fbb186cc6582165753931a58fdaac99b9482f9d63c76229808bd3afc382e9821560205260408120549091907fba279271fb7bbf76a6f3df3cc57bf80647fcafdea60ec3383d90f459de74e7c09060ff16611f5b57808352826020526040832082845260205260408320600160ff198254161790557f2f8788117e7eff1d82e926ec794901d17c78024a50270940304540a733656f0d339380a4600190565b9060009180835282602052604083209160018060a01b03169182845260205260ff60408420541615600014611f5b57808352826020526040832082845260205260408320600160ff198254161790557f2f8788117e7eff1d82e926ec794901d17c78024a50270940304540a733656f0d339380a4600190565b9060009180835282602052604083209160018060a01b03169182845260205260ff604084205416600014611f5b5780835282602052604083208284526020526040832060ff1981541690557ff6391f5c32d9c69d2a47ea670b442974b53935d1edc7fd64eb21e047a839171b339380a4600190565b60a0810190811067ffffffffffffffff82111761057a57604052565b610140810190811067ffffffffffffffff82111761057a57604052565b6080810190811067ffffffffffffffff82111761057a57604052565b60e0810190811067ffffffffffffffff82111761057a57604052565b90601f8019910116810190811067ffffffffffffffff82111761057a57604052565b1561219557565b606460405162461bcd60e51b815260206004820152602060248201527f4665656450726f746f636f6c3a20696e73756666696369656e74207374616b656044820152fd5b6040516323b872dd60e01b60208201526001600160a01b0392831660248201529290911660448301526064808301939093529181526122209161221b826120fb565b612222565b565b906000602091828151910182855af1156103c6576000513d61227557506001600160a01b0381163b155b6122535750565b604051635274afe760e01b81526001600160a01b039091166004820152602490fd5b6001141561224c565b60ff6002541661228a57565b60405163d93c066560e01b8152600490fd5b6002600154146122ad576002600155565b604051633ee5aeb560e01b8152600490fd5b91908201809211611c3157565b91908203918211611c3157565b60405163a9059cbb60e01b60208201526001600160a01b0390921660248301526044808301939093529181526122209161221b82612134565b6000198114611c315760010190565b6004821015611c1b5752565b1561233457565b60405162461bcd60e51b815260206004820152601d60248201527f4665656450726f746f636f6c3a20696e76616c696420726571756573740000006044820152606490fd5b1561238057565b60405162461bcd60e51b815260206004820152601f60248201527f4665656450726f746f636f6c3a206e6f742061637469766520666565646572006044820152606490fd5b156123cc57565b606460405162461bcd60e51b815260206004820152602060248201527f4665656450726f746f636f6c3a2066656564657220626c61636b6c69737465646044820152fd5b1561241757565b60405162461bcd60e51b815260206004820152601f60248201527f4665656450726f746f636f6c3a20616c72656164792066696e616c697a6564006044820152606490fd5b1561246357565b60405162461bcd60e51b815260206004820152601f60248201527f4665656450726f746f636f6c3a20616c7265616479207375626d6974746564006044820152606490fd5b9392918060609160209360408852816040890152838801376000828288010152601f8019910116850101930152565b67ffffffffffffffff811161057a5760051b60200190565b8051821015611d8b5760209160051b010190565b60009181835260056020526040832060088101549161252560ff841615612410565b83855260066020526040852092835494851561290b57612544866124d7565b94612552604051968761216c565b868652601f19612561886124d7565b013660208801378796885b8181106128a0575050861561285b579290939187945b60001988018881116128475786101561264f57885b6125a1878a6122cc565b600019810190811161262257811015612636576125be81896124ef565b5160018201821161262257906125e6916125db600183018b6124ef565b51106125eb57612312565b612597565b6125f5818a6124ef565b51612603600183018b6124ef565b5161260e838c6124ef565b5261261c600183018b6124ef565b52612312565b634e487b7160e01b8b52601160045260248bfd5b50919390929461264590612312565b9492909391612582565b9590969450969190966001948580821615600014612830571c600019810181811161281c57826126908893612689612697946008976124ef565b51926124ef565b51906122bf565b811c975b88600785015560ff191617910155838152600560205260029160ff8360408420015460081c166126ca81611e26565b8252600a60205260408220926040516126e2816120fb565b60ff8554818116835260081c16602082015285850154604082015281850154908160608201526080600380970154910152825490811561280857049083865b61275f575b505050505050507f4da0f440b42ee815c5b14cbf1a5cb712c4fcf1ee583ca8c97bdbbdf4a1e7ba1f60408051848152426020820152a290565b8354811015612803578060ff876127796127869488611dcf565b5001541661278c57612312565b86612721565b6127968186611dcf565b505487546001600160a01b03918216916127b49187918491166122d9565b80875260086020528360408820016127cc8154612312565b9055897f602ab809fa82d3a742a4f9a33cdd154988d8b0f578ee4dc91de3dc412bf026b960408051888152426020820152a3612312565b612726565b634e487b7160e01b85526012600452602485fd5b634e487b7160e01b85526011600452602485fd5b9060089261284091831c906124ef565b519761269b565b634e487b7160e01b8a52601160045260248afd5b60405162461bcd60e51b815260206004820152601d60248201527f4665656450726f746f636f6c3a206e6f2076616c6964207072696365730000006044820152606490fd5b60ff60036128ae8386611dcf565b50015416806128f4575b6128cb575b6128c690612312565b61256c565b976128ec6128c69160016128df8c87611dcf565b50015461261c828c6124ef565b9890506128bd565b5060016129018285611dcf565b50015415156128b8565b60405162461bcd60e51b815260206004820152601c60248201527f4665656450726f746f636f6c3a206e6f207375626d697373696f6e73000000006044820152606490fdfea264697066735822122057ab3f06a36e7c1d142d92fe81cd16a5a3a2e74f6fc436556d8675c41dadc32c64736f6c634300081400332f8788117e7eff1d82e926ec794901d17c78024a50270940304540a733656f0d","opcodes":"PUSH1 0x80 CALLVALUE PUSH3 0x245 JUMPI PUSH1 0x1F PUSH3 0x2D5E CODESIZE DUP2 SWAP1 SUB SWAP2 DUP3 ADD PUSH1 0x1F NOT AND DUP4 ADD SWAP3 SWAP2 SWAP1 PUSH1 0x1 PUSH1 0x1 PUSH1 0x40 SHL SUB DUP5 GT DUP4 DUP6 LT OR PUSH3 0x24A JUMPI DUP2 PUSH1 0x60 SWAP3 DUP5 SWAP3 PUSH1 0x40 SWAP7 DUP8 MSTORE DUP4 CODECOPY DUP2 ADD SUB SLT PUSH3 0x245 JUMPI PUSH3 0x51 DUP2 PUSH3 0x280 JUMP JUMPDEST SWAP1 PUSH1 0x20 PUSH3 0x6E DUP5 PUSH3 0x66 DUP4 DUP6 ADD PUSH3 0x280 JUMP JUMPDEST SWAP4 ADD PUSH3 0x280 JUMP JUMPDEST PUSH1 0x1 DUP1 DUP1 SSTORE PUSH1 0x4 DUP2 SWAP1 SSTORE PUSH1 0x2 DUP1 SLOAD PUSH2 0x100 PUSH1 0x1 PUSH1 0xA8 SHL SUB NOT AND PUSH1 0x8 SWAP7 SWAP1 SWAP7 SHL PUSH2 0x100 PUSH1 0x1 PUSH1 0xA8 SHL SUB AND SWAP6 SWAP1 SWAP6 OR DUP6 SSTORE PUSH1 0x3 DUP1 SLOAD PUSH1 0x1 PUSH1 0x1 PUSH1 0xA0 SHL SUB NOT AND PUSH1 0x1 PUSH1 0x1 PUSH1 0xA0 SHL SUB SWAP1 SWAP6 AND SWAP5 SWAP1 SWAP5 OR DUP5 SSTORE SWAP4 SWAP1 PUSH3 0xD5 SWAP1 PUSH3 0xCE DUP2 PUSH3 0x295 JUMP JUMPDEST POP PUSH3 0x315 JUMP JUMPDEST POP PUSH3 0xE0 PUSH3 0x260 JUMP JUMPDEST SWAP4 PUSH1 0x5 DUP6 MSTORE DUP3 DUP6 ADD SWAP1 DUP5 DUP3 MSTORE DUP7 DUP7 ADD SWAP6 PUSH8 0x429D069189E0000 DUP8 MSTORE PUSH1 0x60 DUP2 ADD SWAP1 PUSH8 0x257853B1DD8E0000 DUP3 MSTORE DUP7 PUSH1 0x80 DUP3 ADD PUSH8 0x29A2241AF62C0000 DUP2 MSTORE PUSH1 0x0 SWAP4 DUP5 DUP1 MSTORE PUSH1 0xA DUP10 MSTORE PUSH1 0xFF DUP13 DUP7 KECCAK256 SWAP5 MLOAD AND SWAP11 DUP5 SLOAD SWAP12 PUSH2 0xFF00 DUP1 SWAP10 MLOAD PUSH1 0x8 SHL AND SWAP1 PUSH2 0xFFFF NOT DUP1 SWAP15 AND OR OR DUP6 SSTORE MLOAD DUP7 DUP6 ADD SSTORE MLOAD DUP8 DUP5 ADD SSTORE MLOAD SWAP2 ADD SSTORE PUSH3 0x15F PUSH3 0x260 JUMP JUMPDEST PUSH1 0x7 DUP2 MSTORE DUP7 DUP10 DUP8 DUP4 ADD PUSH1 0x5 DUP2 MSTORE DUP2 DUP5 ADD PUSH8 0x6F05B59D3B20000 DUP2 MSTORE PUSH1 0x60 DUP6 ADD SWAP2 PUSH8 0x3E73362871420000 DUP4 MSTORE PUSH1 0xFF PUSH1 0x80 DUP8 ADD SWAP5 PUSH8 0x4563918244F40000 DUP7 MSTORE DUP10 DUP10 MSTORE PUSH1 0xA DUP14 MSTORE DUP9 KECCAK256 SWAP7 MLOAD AND DUP14 DUP11 DUP9 SLOAD SWAP4 MLOAD PUSH1 0x8 SHL AND SWAP3 AND OR OR DUP6 SSTORE MLOAD DUP7 DUP6 ADD SSTORE MLOAD DUP8 DUP5 ADD SSTORE MLOAD SWAP2 ADD SSTORE PUSH3 0x1D0 PUSH3 0x260 JUMP JUMPDEST SWAP7 DUP8 SWAP4 PUSH1 0xA DUP6 MSTORE DUP7 DUP6 ADD SWAP2 PUSH1 0x7 DUP4 MSTORE PUSH1 0xFF DUP12 DUP1 DUP9 ADD SWAP6 PUSH8 0xB1A2BC2EC500000 DUP8 MSTORE PUSH1 0xA PUSH1 0x80 PUSH1 0x60 DUP12 ADD SWAP11 PUSH8 0x63EB89DA4ED00000 DUP13 MSTORE ADD SWAP12 PUSH8 0x6F05B59D3B200000 DUP14 MSTORE DUP12 DUP4 MSTORE MSTORE KECCAK256 SWAP11 MLOAD AND SWAP2 DUP11 SLOAD SWAP4 MLOAD PUSH1 0x8 SHL AND SWAP3 AND OR OR DUP8 SSTORE MLOAD SWAP1 DUP7 ADD SSTORE MLOAD SWAP1 DUP5 ADD SSTORE MLOAD SWAP2 ADD SSTORE MLOAD PUSH2 0x2986 SWAP1 DUP2 PUSH3 0x3B8 DUP3 CODECOPY RETURN JUMPDEST PUSH1 0x0 DUP1 REVERT JUMPDEST PUSH4 0x4E487B71 PUSH1 0xE0 SHL PUSH1 0x0 MSTORE PUSH1 0x41 PUSH1 0x4 MSTORE PUSH1 0x24 PUSH1 0x0 REVERT JUMPDEST PUSH1 0x40 MLOAD SWAP1 PUSH1 0xA0 DUP3 ADD PUSH1 0x1 PUSH1 0x1 PUSH1 0x40 SHL SUB DUP2 GT DUP4 DUP3 LT OR PUSH3 0x24A JUMPI PUSH1 0x40 MSTORE JUMP JUMPDEST MLOAD SWAP1 PUSH1 0x1 PUSH1 0x1 PUSH1 0xA0 SHL SUB DUP3 AND DUP3 SUB PUSH3 0x245 JUMPI JUMP JUMPDEST PUSH1 0x1 PUSH1 0x1 PUSH1 0xA0 SHL SUB AND PUSH1 0x0 DUP2 DUP2 MSTORE PUSH32 0xAD3228B676F7D3CD4284A5443F17F1962B36E491B30A40B2405849E597BA5FB5 PUSH1 0x20 MSTORE PUSH1 0x40 DUP2 KECCAK256 SLOAD SWAP1 SWAP2 SWAP1 PUSH1 0xFF AND PUSH3 0x311 JUMPI DUP2 DUP1 MSTORE DUP2 PUSH1 0x20 MSTORE PUSH1 0x40 DUP3 KECCAK256 DUP2 DUP4 MSTORE PUSH1 0x20 MSTORE PUSH1 0x40 DUP3 KECCAK256 PUSH1 0x1 PUSH1 0xFF NOT DUP3 SLOAD AND OR SWAP1 SSTORE CALLER SWAP2 PUSH1 0x0 DUP1 MLOAD PUSH1 0x20 PUSH3 0x2D3E DUP4 CODECOPY DUP2 MLOAD SWAP2 MSTORE DUP2 DUP1 LOG4 PUSH1 0x1 SWAP1 JUMP JUMPDEST POP SWAP1 JUMP JUMPDEST PUSH1 0x1 PUSH1 0x1 PUSH1 0xA0 SHL SUB AND PUSH1 0x0 DUP2 DUP2 MSTORE PUSH32 0xA0CFC50BE65892217A92EAB74D4B8DCA267A17D5B74F05A4A7CDEE0906A51FAF PUSH1 0x20 MSTORE PUSH1 0x40 DUP2 KECCAK256 SLOAD SWAP1 SWAP2 SWAP1 PUSH32 0x70B284DA8BFC3DE812DAA2261B4C3FFADD90C2C772295293D09C9629A737A0CD SWAP1 PUSH1 0xFF AND PUSH3 0x3B2 JUMPI DUP1 DUP4 MSTORE DUP3 PUSH1 0x20 MSTORE PUSH1 0x40 DUP4 KECCAK256 DUP3 DUP5 MSTORE PUSH1 0x20 MSTORE PUSH1 0x40 DUP4 KECCAK256 PUSH1 0x1 PUSH1 0xFF NOT DUP3 SLOAD AND OR SWAP1 SSTORE PUSH1 0x0 DUP1 MLOAD PUSH1 0x20 PUSH3 0x2D3E DUP4 CODECOPY DUP2 MLOAD SWAP2 MSTORE CALLER SWAP4 DUP1 LOG4 PUSH1 0x1 SWAP1 JUMP JUMPDEST POP POP SWAP1 JUMP INVALID PUSH1 0x80 DUP1 PUSH1 0x40 MSTORE PUSH1 0x4 CALLDATASIZE LT ISZERO PUSH2 0x13 JUMPI PUSH1 0x0 DUP1 REVERT JUMPDEST PUSH1 0x0 CALLDATALOAD PUSH1 0xE0 SHR SWAP1 DUP2 PUSH4 0x1FFC9A7 EQ PUSH2 0x1CD5 JUMPI POP DUP1 PUSH4 0x2768DE4 EQ PUSH2 0x1C9A JUMPI DUP1 PUSH4 0x4B86CB3 EQ PUSH2 0x1951 JUMPI DUP1 PUSH4 0xAA31661 EQ PUSH2 0x18CB JUMPI DUP1 PUSH4 0x121C604B EQ PUSH2 0x1889 JUMPI DUP1 PUSH4 0x15450ACE EQ PUSH2 0x181F JUMPI DUP1 PUSH4 0x16C53CED EQ PUSH2 0x171A JUMPI DUP1 PUSH4 0x20E3DBD4 EQ PUSH2 0x16D2 JUMPI DUP1 PUSH4 0x248A9CA3 EQ PUSH2 0x16A3 JUMPI DUP1 PUSH4 0x25D5971F EQ PUSH2 0x1534 JUMPI DUP1 PUSH4 0x2F0165CA EQ PUSH2 0x14F9 JUMPI DUP1 PUSH4 0x2F0E6CA5 EQ PUSH2 0x13E1 JUMPI DUP1 PUSH4 0x2F2FF15D EQ PUSH2 0x13A2 JUMPI DUP1 PUSH4 0x2F48AB7D EQ PUSH2 0x1379 JUMPI DUP1 PUSH4 0x36568ABE EQ PUSH2 0x1332 JUMPI DUP1 PUSH4 0x3BF5E3A9 EQ PUSH2 0x1287 JUMPI DUP1 PUSH4 0x3F4BA83A EQ PUSH2 0x121D JUMPI DUP1 PUSH4 0x3FE1DDD2 EQ PUSH2 0xF03 JUMPI DUP1 PUSH4 0x46B62703 EQ PUSH2 0xD23 JUMPI DUP1 PUSH4 0x46F53D1E EQ PUSH2 0xCA6 JUMPI DUP1 PUSH4 0x5C975ABB EQ PUSH2 0xC83 JUMPI DUP1 PUSH4 0x6A84A985 EQ PUSH2 0xC65 JUMPI DUP1 PUSH4 0x75136DDC EQ PUSH2 0xC26 JUMPI DUP1 PUSH4 0x79502C55 EQ PUSH2 0xBF9 JUMPI DUP1 PUSH4 0x82AE8F01 EQ PUSH2 0xBD3 JUMPI DUP1 PUSH4 0x8456CB59 EQ PUSH2 0xB79 JUMPI DUP1 PUSH4 0x8EC9F038 EQ PUSH2 0xB3E JUMPI DUP1 PUSH4 0x91D14854 EQ PUSH2 0xAF1 JUMPI DUP1 PUSH4 0x9BA7646C EQ PUSH2 0x9F6 JUMPI DUP1 PUSH4 0x9DA9DB2A EQ PUSH2 0x988 JUMPI DUP1 PUSH4 0xA217FDDF EQ PUSH2 0x96C JUMPI DUP1 PUSH4 0xA57D3806 EQ PUSH2 0x91F JUMPI DUP1 PUSH4 0xC7C7B02F EQ PUSH2 0x8A2 JUMPI DUP1 PUSH4 0xD547741F EQ PUSH2 0x863 JUMPI DUP1 PUSH4 0xDB18C189 EQ PUSH2 0x702 JUMPI DUP1 PUSH4 0xE5695991 EQ PUSH2 0x6C1 JUMPI DUP1 PUSH4 0xEB4F16B5 EQ PUSH2 0x602 JUMPI DUP1 PUSH4 0xEB7BB5A7 EQ PUSH2 0x3D2 JUMPI DUP1 PUSH4 0xEC3889B5 EQ PUSH2 0x2AB JUMPI DUP1 PUSH4 0xEC5BFC6C EQ PUSH2 0x28D JUMPI PUSH4 0xF608463A EQ PUSH2 0x1E2 JUMPI PUSH1 0x0 DUP1 REVERT JUMPDEST CALLVALUE PUSH2 0x288 JUMPI PUSH1 0x20 DUP1 PUSH1 0x3 NOT CALLDATASIZE ADD SLT PUSH2 0x288 JUMPI PUSH1 0x4 CALLDATALOAD PUSH1 0x0 MSTORE PUSH1 0xB DUP2 MSTORE PUSH1 0x40 PUSH1 0x0 KECCAK256 PUSH1 0x40 MLOAD SWAP1 DUP2 DUP4 DUP3 SLOAD SWAP2 DUP3 DUP2 MSTORE ADD SWAP1 DUP2 SWAP3 PUSH1 0x0 MSTORE DUP5 PUSH1 0x0 KECCAK256 SWAP1 PUSH1 0x0 JUMPDEST DUP7 DUP3 DUP3 LT PUSH2 0x274 JUMPI DUP7 DUP7 PUSH2 0x234 DUP3 DUP9 SUB DUP4 PUSH2 0x216C JUMP JUMPDEST PUSH1 0x40 MLOAD SWAP3 DUP4 SWAP3 DUP2 DUP5 ADD SWAP1 DUP3 DUP6 MSTORE MLOAD DUP1 SWAP2 MSTORE PUSH1 0x40 DUP5 ADD SWAP3 SWAP2 PUSH1 0x0 JUMPDEST DUP3 DUP2 LT PUSH2 0x25D JUMPI POP POP POP POP SUB SWAP1 RETURN JUMPDEST DUP4 MLOAD DUP6 MSTORE DUP7 SWAP6 POP SWAP4 DUP2 ADD SWAP4 SWAP3 DUP2 ADD SWAP3 PUSH1 0x1 ADD PUSH2 0x24E JUMP JUMPDEST DUP4 SLOAD DUP6 MSTORE SWAP1 SWAP4 ADD SWAP3 PUSH1 0x1 SWAP3 DUP4 ADD SWAP3 ADD PUSH2 0x21E JUMP JUMPDEST PUSH1 0x0 DUP1 REVERT JUMPDEST CALLVALUE PUSH2 0x288 JUMPI PUSH1 0x0 CALLDATASIZE PUSH1 0x3 NOT ADD SLT PUSH2 0x288 JUMPI PUSH1 0x20 PUSH1 0x9 SLOAD PUSH1 0x40 MLOAD SWAP1 DUP2 MSTORE RETURN JUMPDEST CALLVALUE PUSH2 0x288 JUMPI PUSH1 0x20 DUP1 PUSH1 0x3 NOT CALLDATASIZE ADD SLT PUSH2 0x288 JUMPI PUSH2 0x2C5 PUSH2 0x1D28 JUMP JUMPDEST PUSH2 0x2CD PUSH2 0x1E30 JUMP JUMPDEST PUSH1 0x3 DUP1 SLOAD PUSH1 0x40 MLOAD PUSH4 0x70A08231 PUSH1 0xE0 SHL DUP2 MSTORE ADDRESS PUSH1 0x4 DUP3 ADD MSTORE PUSH1 0x1 PUSH1 0x1 PUSH1 0xA0 SHL SUB SWAP2 DUP3 AND SWAP5 SWAP1 SWAP3 SWAP1 DUP1 DUP5 PUSH1 0x24 DUP2 DUP10 GAS STATICCALL SWAP4 DUP5 ISZERO PUSH2 0x3C6 JUMPI PUSH1 0x0 SWAP5 PUSH2 0x397 JUMPI JUMPDEST POP SWAP2 SWAP1 PUSH1 0x0 SWAP3 PUSH1 0x0 SWAP3 PUSH1 0x9 SLOAD SWAP3 JUMPDEST DUP4 DUP6 LT PUSH2 0x355 JUMPI POP POP POP POP POP DUP1 DUP3 GT PUSH1 0x0 EQ PUSH2 0x34B JUMPI PUSH2 0x337 SWAP2 PUSH2 0x22CC JUMP JUMPDEST SWAP1 JUMPDEST DUP2 PUSH2 0x340 JUMPI STOP JUMPDEST PUSH2 0x349 SWAP3 PUSH2 0x22D9 JUMP JUMPDEST STOP JUMPDEST POP POP PUSH1 0x0 SWAP1 PUSH2 0x339 JUMP JUMPDEST SWAP1 SWAP2 SWAP3 SWAP4 SWAP5 PUSH2 0x388 PUSH2 0x38E SWAP2 DUP5 PUSH2 0x36B DUP10 PUSH2 0x1D54 JUMP JUMPDEST SWAP1 SLOAD SWAP1 DUP7 SHL SHR AND PUSH1 0x0 MSTORE PUSH1 0x8 DUP7 MSTORE PUSH1 0x1 PUSH1 0x40 PUSH1 0x0 KECCAK256 ADD SLOAD SWAP1 PUSH2 0x22BF JUMP JUMPDEST SWAP6 PUSH2 0x2312 JUMP JUMPDEST SWAP4 SWAP3 SWAP2 SWAP1 PUSH2 0x318 JUMP JUMPDEST SWAP1 DUP1 SWAP5 POP DUP2 DUP2 RETURNDATASIZE DUP4 GT PUSH2 0x3BF JUMPI JUMPDEST PUSH2 0x3AF DUP2 DUP4 PUSH2 0x216C JUMP JUMPDEST DUP2 ADD SUB SLT PUSH2 0x288 JUMPI MLOAD SWAP3 DUP7 PUSH2 0x30A JUMP JUMPDEST POP RETURNDATASIZE PUSH2 0x3A5 JUMP JUMPDEST PUSH1 0x40 MLOAD RETURNDATASIZE PUSH1 0x0 DUP3 RETURNDATACOPY RETURNDATASIZE SWAP1 REVERT JUMPDEST CALLVALUE PUSH2 0x288 JUMPI PUSH1 0x20 DUP1 PUSH1 0x3 NOT CALLDATASIZE ADD SLT PUSH2 0x288 JUMPI PUSH1 0x4 CALLDATALOAD SWAP1 PUSH2 0x3F0 PUSH2 0x229C JUMP JUMPDEST PUSH2 0x3F8 PUSH2 0x227E JUMP JUMPDEST CALLER PUSH1 0x0 SWAP1 DUP2 MSTORE PUSH1 0x8 DUP3 MSTORE PUSH1 0x40 SWAP1 KECCAK256 SLOAD PUSH1 0x1 PUSH1 0x1 PUSH1 0xA0 SHL SUB SWAP1 DUP2 AND PUSH2 0x5BF JUMPI PUSH1 0x4 DUP3 DUP3 PUSH1 0x2 SLOAD PUSH1 0x8 SHR AND PUSH1 0x40 MLOAD SWAP3 DUP4 DUP1 SWAP3 PUSH4 0x63B36CC3 PUSH1 0xE1 SHL DUP3 MSTORE GAS STATICCALL DUP1 ISZERO PUSH2 0x3C6 JUMPI PUSH1 0x0 SWAP1 PUSH2 0x590 JUMPI JUMPDEST PUSH2 0x44F SWAP2 POP DUP5 LT ISZERO PUSH2 0x218E JUMP JUMPDEST PUSH2 0x461 DUP4 DUP3 PUSH1 0x3 SLOAD AND ADDRESS SWAP1 CALLER SWAP1 PUSH2 0x21D9 JUMP JUMPDEST PUSH1 0x40 MLOAD PUSH2 0x46D DUP2 PUSH2 0x2150 JUMP JUMPDEST CALLER DUP2 MSTORE DUP3 DUP2 ADD DUP5 DUP2 MSTORE PUSH2 0x4FC PUSH1 0x5 PUSH1 0x40 DUP5 ADD SWAP4 PUSH1 0x0 DUP6 MSTORE PUSH1 0x60 DUP2 ADD PUSH1 0x0 DUP2 MSTORE PUSH1 0x80 DUP3 ADD SWAP1 TIMESTAMP DUP3 MSTORE PUSH1 0xA0 DUP4 ADD SWAP7 PUSH1 0x1 DUP9 MSTORE PUSH1 0xC0 DUP5 ADD SWAP7 PUSH1 0x0 DUP9 MSTORE CALLER PUSH1 0x0 MSTORE PUSH1 0x8 DUP12 MSTORE DUP10 PUSH1 0x40 PUSH1 0x0 KECCAK256 SWAP6 MLOAD AND PUSH12 0xFFFFFFFFFFFFFFFFFFFFFFFF PUSH1 0xA0 SHL DUP7 SLOAD AND OR DUP6 SSTORE MLOAD PUSH1 0x1 DUP6 ADD SSTORE MLOAD PUSH1 0x2 DUP5 ADD SSTORE MLOAD PUSH1 0x3 DUP4 ADD SSTORE MLOAD PUSH1 0x4 DUP3 ADD SSTORE ADD SWAP3 MLOAD ISZERO ISZERO DUP4 SWAP1 PUSH1 0xFF DUP1 NOT DUP4 SLOAD AND SWAP2 ISZERO ISZERO AND OR SWAP1 SSTORE JUMP JUMPDEST MLOAD DUP2 SLOAD PUSH2 0xFF00 NOT AND SWAP1 ISZERO ISZERO PUSH1 0x8 SHL PUSH2 0xFF00 AND OR SWAP1 SSTORE PUSH1 0x9 SLOAD PUSH1 0x1 PUSH1 0x40 SHL DUP2 LT ISZERO PUSH2 0x57A JUMPI DUP1 PUSH1 0x1 PUSH2 0x530 SWAP3 ADD PUSH1 0x9 SSTORE PUSH2 0x1D54 JUMP JUMPDEST DUP2 SWAP3 SWAP2 SLOAD SWAP1 PUSH1 0x3 SHL SWAP2 CALLER DUP4 SHL SWAP3 SHL NOT AND OR SWAP1 SSTORE PUSH1 0x40 MLOAD SWAP2 DUP3 MSTORE TIMESTAMP SWAP1 DUP3 ADD MSTORE PUSH32 0x53226FCF6C46A949F058F2002CB48F6897BF6C0BD2F030158D655BA38D44A16C PUSH1 0x40 CALLER SWAP3 LOG2 PUSH1 0x1 DUP1 SSTORE STOP JUMPDEST PUSH4 0x4E487B71 PUSH1 0xE0 SHL PUSH1 0x0 MSTORE PUSH1 0x41 PUSH1 0x4 MSTORE PUSH1 0x24 PUSH1 0x0 REVERT JUMPDEST POP DUP3 DUP2 DUP2 RETURNDATASIZE DUP4 GT PUSH2 0x5B8 JUMPI JUMPDEST PUSH2 0x5A6 DUP2 DUP4 PUSH2 0x216C JUMP JUMPDEST DUP2 ADD SUB SLT PUSH2 0x288 JUMPI PUSH2 0x44F SWAP1 MLOAD PUSH2 0x442 JUMP JUMPDEST POP RETURNDATASIZE PUSH2 0x59C JUMP JUMPDEST PUSH1 0x64 DUP3 PUSH1 0x40 MLOAD SWAP1 PUSH3 0x461BCD PUSH1 0xE5 SHL DUP3 MSTORE DUP1 PUSH1 0x4 DUP4 ADD MSTORE PUSH1 0x24 DUP3 ADD MSTORE PUSH32 0x4665656450726F746F636F6C3A20616C72656164792072656769737465726564 PUSH1 0x44 DUP3 ADD MSTORE REVERT JUMPDEST CALLVALUE PUSH2 0x288 JUMPI PUSH1 0x20 CALLDATASIZE PUSH1 0x3 NOT ADD SLT PUSH2 0x288 JUMPI PUSH1 0x4 CALLDATALOAD PUSH2 0x61E PUSH2 0x229C JUMP JUMPDEST PUSH2 0x626 PUSH2 0x227E JUMP JUMPDEST CALLER PUSH1 0x0 SWAP1 DUP2 MSTORE PUSH1 0x8 PUSH1 0x20 MSTORE PUSH1 0x40 SWAP1 KECCAK256 SLOAD PUSH1 0x1 PUSH1 0x1 PUSH1 0xA0 SHL SUB SWAP1 DUP2 AND ISZERO PUSH2 0x67C JUMPI DUP2 PUSH2 0x658 SWAP2 PUSH1 0x3 SLOAD AND ADDRESS SWAP1 CALLER SWAP1 PUSH2 0x21D9 JUMP JUMPDEST CALLER PUSH1 0x0 MSTORE PUSH1 0x8 PUSH1 0x20 MSTORE PUSH2 0x674 PUSH1 0x1 PUSH1 0x40 PUSH1 0x0 KECCAK256 ADD SWAP2 DUP3 SLOAD PUSH2 0x22BF JUMP JUMPDEST SWAP1 SSTORE PUSH1 0x1 DUP1 SSTORE STOP JUMPDEST PUSH1 0x40 MLOAD PUSH3 0x461BCD PUSH1 0xE5 SHL DUP2 MSTORE PUSH1 0x20 PUSH1 0x4 DUP3 ADD MSTORE PUSH1 0x1C PUSH1 0x24 DUP3 ADD MSTORE PUSH32 0x4665656450726F746F636F6C3A206E6F74207265676973746572656400000000 PUSH1 0x44 DUP3 ADD MSTORE PUSH1 0x64 SWAP1 REVERT JUMPDEST CALLVALUE PUSH2 0x288 JUMPI PUSH1 0x20 CALLDATASIZE PUSH1 0x3 NOT ADD SLT PUSH2 0x288 JUMPI PUSH1 0x4 CALLDATALOAD PUSH1 0x3 DUP2 LT ISZERO PUSH2 0x288 JUMPI PUSH2 0x6E7 DUP2 PUSH2 0x1E26 JUMP JUMPDEST PUSH1 0x0 MSTORE PUSH1 0xA PUSH1 0x20 MSTORE PUSH1 0x20 PUSH1 0x3 PUSH1 0x40 PUSH1 0x0 KECCAK256 ADD SLOAD PUSH1 0x40 MLOAD SWAP1 DUP2 MSTORE RETURN JUMPDEST CALLVALUE PUSH2 0x288 JUMPI PUSH1 0x20 CALLDATASIZE PUSH1 0x3 NOT ADD SLT PUSH2 0x288 JUMPI PUSH2 0x140 PUSH1 0x40 MLOAD PUSH2 0x722 DUP2 PUSH2 0x2117 JUMP JUMPDEST PUSH1 0x0 DUP2 MSTORE PUSH1 0x0 PUSH1 0x20 DUP3 ADD MSTORE PUSH1 0x0 PUSH1 0x40 DUP3 ADD MSTORE PUSH1 0x0 PUSH1 0x60 DUP3 ADD MSTORE PUSH1 0x0 PUSH1 0x80 DUP3 ADD MSTORE PUSH1 0x0 PUSH1 0xA0 DUP3 ADD MSTORE PUSH1 0x0 PUSH1 0xC0 DUP3 ADD MSTORE PUSH1 0x0 PUSH1 0xE0 DUP3 ADD MSTORE PUSH2 0x100 SWAP1 PUSH1 0x0 DUP3 DUP3 ADD MSTORE PUSH1 0x0 PUSH2 0x120 DUP1 SWAP3 ADD MSTORE PUSH1 0x4 CALLDATALOAD PUSH1 0x0 MSTORE PUSH1 0x5 PUSH1 0x20 MSTORE PUSH1 0x40 PUSH1 0x0 KECCAK256 PUSH1 0x40 MLOAD SWAP3 PUSH2 0x787 DUP5 PUSH2 0x2117 JUMP JUMPDEST DUP2 SLOAD DUP5 MSTORE DUP4 PUSH1 0x1 DUP4 ADD SLOAD SWAP3 PUSH1 0x20 DUP3 ADD SWAP4 DUP5 MSTORE PUSH1 0x2 DUP2 ADD SLOAD PUSH1 0xFF PUSH1 0x40 DUP5 ADD SWAP2 PUSH2 0x7B1 DUP3 DUP3 AND DUP5 PUSH2 0x2321 JUMP JUMPDEST PUSH1 0x8 SHR AND PUSH1 0x60 DUP5 ADD SWAP1 PUSH2 0x7C3 DUP2 PUSH2 0x1E26 JUMP JUMPDEST DUP2 MSTORE PUSH1 0x3 DUP4 ADD SLOAD PUSH1 0x80 DUP6 ADD SWAP1 DUP2 MSTORE PUSH1 0x4 DUP5 ADD SLOAD SWAP2 PUSH1 0xA0 DUP7 ADD SWAP3 DUP4 MSTORE PUSH2 0x82E PUSH1 0x5 DUP7 ADD SLOAD SWAP5 PUSH1 0xC0 DUP9 ADD SWAP6 DUP7 MSTORE PUSH1 0xFF PUSH1 0x8 PUSH1 0x6 DUP10 ADD SLOAD SWAP9 PUSH1 0xE0 DUP12 ADD SWAP10 DUP11 MSTORE DUP12 PUSH1 0x7 DUP3 ADD SLOAD SWAP12 ADD SWAP11 DUP12 MSTORE ADD SLOAD AND SWAP10 DUP12 DUP14 ADD SWAP11 ISZERO ISZERO DUP12 MSTORE PUSH1 0x40 MLOAD SWAP13 MLOAD DUP14 MSTORE MLOAD PUSH1 0x20 DUP14 ADD MSTORE MLOAD PUSH1 0x40 DUP13 ADD SWAP1 PUSH2 0x1E19 JUMP JUMPDEST MLOAD PUSH2 0x838 DUP2 PUSH2 0x1E26 JUMP JUMPDEST PUSH1 0x60 DUP11 ADD MSTORE MLOAD PUSH1 0x80 DUP10 ADD MSTORE MLOAD PUSH1 0xA0 DUP9 ADD MSTORE MLOAD PUSH1 0xC0 DUP8 ADD MSTORE MLOAD PUSH1 0xE0 DUP7 ADD MSTORE MLOAD SWAP1 DUP5 ADD MSTORE MLOAD ISZERO ISZERO SWAP1 DUP3 ADD MSTORE RETURN JUMPDEST CALLVALUE PUSH2 0x288 JUMPI PUSH1 0x40 CALLDATASIZE PUSH1 0x3 NOT ADD SLT PUSH2 0x288 JUMPI PUSH2 0x349 PUSH1 0x4 CALLDATALOAD PUSH2 0x882 PUSH2 0x1D3E JUMP JUMPDEST SWAP1 DUP1 PUSH1 0x0 MSTORE PUSH1 0x0 PUSH1 0x20 MSTORE PUSH2 0x89D PUSH1 0x1 PUSH1 0x40 PUSH1 0x0 KECCAK256 ADD SLOAD PUSH2 0x1E88 JUMP JUMPDEST PUSH2 0x2086 JUMP JUMPDEST CALLVALUE PUSH2 0x288 JUMPI PUSH1 0x20 CALLDATASIZE PUSH1 0x3 NOT ADD SLT PUSH2 0x288 JUMPI PUSH2 0x349 PUSH2 0x8BE PUSH2 0x1D28 JUMP JUMPDEST PUSH2 0x8C6 PUSH2 0x1E30 JUMP JUMPDEST PUSH32 0xBA279271FB7BBF76A6F3DF3CC57BF80647FCAFDEA60EC3383D90F459DE74E7C0 PUSH1 0x0 SWAP1 DUP2 MSTORE PUSH1 0x20 MSTORE PUSH32 0xBB186CC6582165753931A58FDAAC99B9482F9D63C76229808BD3AFC382E98216 SLOAD PUSH2 0x91A SWAP1 PUSH2 0x1E88 JUMP JUMPDEST PUSH2 0x1F60 JUMP JUMPDEST CALLVALUE PUSH2 0x288 JUMPI PUSH1 0x40 CALLDATASIZE PUSH1 0x3 NOT ADD SLT PUSH2 0x288 JUMPI PUSH2 0x938 PUSH2 0x1D3E JUMP JUMPDEST PUSH1 0x4 CALLDATALOAD PUSH1 0x0 MSTORE PUSH1 0x7 PUSH1 0x20 MSTORE PUSH1 0x40 PUSH1 0x0 KECCAK256 SWAP1 PUSH1 0x1 DUP1 PUSH1 0xA0 SHL SUB AND PUSH1 0x0 MSTORE PUSH1 0x20 MSTORE PUSH1 0x20 PUSH1 0xFF PUSH1 0x40 PUSH1 0x0 KECCAK256 SLOAD AND PUSH1 0x40 MLOAD SWAP1 ISZERO ISZERO DUP2 MSTORE RETURN JUMPDEST CALLVALUE PUSH2 0x288 JUMPI PUSH1 0x0 CALLDATASIZE PUSH1 0x3 NOT ADD SLT PUSH2 0x288 JUMPI PUSH1 0x20 PUSH1 0x40 MLOAD PUSH1 0x0 DUP2 MSTORE RETURN JUMPDEST CALLVALUE PUSH2 0x288 JUMPI PUSH1 0x20 CALLDATASIZE PUSH1 0x3 NOT ADD SLT PUSH2 0x288 JUMPI PUSH1 0x4 CALLDATALOAD PUSH1 0x3 DUP2 LT ISZERO PUSH2 0x288 JUMPI PUSH2 0x9AE DUP2 PUSH2 0x1E26 JUMP JUMPDEST PUSH1 0x0 MSTORE PUSH1 0xA PUSH1 0x20 MSTORE PUSH1 0xA0 PUSH1 0x40 PUSH1 0x0 KECCAK256 DUP1 SLOAD SWAP1 PUSH1 0x1 DUP2 ADD SLOAD SWAP1 PUSH1 0x3 PUSH1 0x2 DUP3 ADD SLOAD SWAP2 ADD SLOAD SWAP2 PUSH1 0xFF PUSH1 0x40 MLOAD SWAP5 DUP2 DUP2 AND DUP7 MSTORE PUSH1 0x8 SHR AND PUSH1 0x20 DUP6 ADD MSTORE PUSH1 0x40 DUP5 ADD MSTORE PUSH1 0x60 DUP4 ADD MSTORE PUSH1 0x80 DUP3 ADD MSTORE RETURN JUMPDEST CALLVALUE PUSH2 0x288 JUMPI PUSH1 0x20 CALLDATASIZE PUSH1 0x3 NOT ADD SLT PUSH2 0x288 JUMPI PUSH1 0xE0 PUSH2 0xA11 PUSH2 0x1D28 JUMP JUMPDEST PUSH1 0x0 PUSH1 0xC0 PUSH1 0x40 MLOAD PUSH2 0xA21 DUP2 PUSH2 0x2150 JUMP JUMPDEST DUP3 DUP2 MSTORE DUP3 PUSH1 0x20 DUP3 ADD MSTORE DUP3 PUSH1 0x40 DUP3 ADD MSTORE DUP3 PUSH1 0x60 DUP3 ADD MSTORE DUP3 PUSH1 0x80 DUP3 ADD MSTORE DUP3 PUSH1 0xA0 DUP3 ADD MSTORE ADD MSTORE PUSH1 0x1 DUP1 PUSH1 0xA0 SHL SUB DUP1 SWAP2 AND PUSH1 0x0 MSTORE PUSH1 0x8 PUSH1 0x20 MSTORE PUSH1 0x40 PUSH1 0x0 KECCAK256 PUSH1 0x40 MLOAD SWAP2 PUSH2 0xA68 DUP4 PUSH2 0x2150 JUMP JUMPDEST DUP2 SLOAD AND SWAP2 DUP3 DUP2 MSTORE PUSH1 0x1 DUP3 ADD SLOAD SWAP2 PUSH1 0x20 DUP3 ADD SWAP3 DUP4 MSTORE PUSH1 0x2 DUP2 ADD SLOAD PUSH1 0x40 DUP4 ADD SWAP1 DUP2 MSTORE PUSH1 0x3 DUP3 ADD SLOAD SWAP1 PUSH1 0x60 DUP5 ADD SWAP2 DUP3 MSTORE PUSH1 0x5 PUSH1 0x4 DUP5 ADD SLOAD SWAP4 PUSH1 0x80 DUP7 ADD SWAP5 DUP6 MSTORE ADD SLOAD SWAP5 PUSH1 0xFF PUSH1 0xC0 PUSH1 0xA0 DUP8 ADD SWAP7 DUP3 DUP10 AND ISZERO ISZERO DUP9 MSTORE ADD SWAP7 PUSH1 0x8 SHR AND ISZERO ISZERO DUP7 MSTORE PUSH1 0x40 MLOAD SWAP7 DUP8 MSTORE MLOAD PUSH1 0x20 DUP8 ADD MSTORE MLOAD PUSH1 0x40 DUP7 ADD MSTORE MLOAD PUSH1 0x60 DUP6 ADD MSTORE MLOAD PUSH1 0x80 DUP5 ADD MSTORE MLOAD ISZERO ISZERO PUSH1 0xA0 DUP4 ADD MSTORE MLOAD ISZERO ISZERO PUSH1 0xC0 DUP3 ADD MSTORE RETURN JUMPDEST CALLVALUE PUSH2 0x288 JUMPI PUSH1 0x40 CALLDATASIZE PUSH1 0x3 NOT ADD SLT PUSH2 0x288 JUMPI PUSH2 0xB0A PUSH2 0x1D3E JUMP JUMPDEST PUSH1 0x4 CALLDATALOAD PUSH1 0x0 MSTORE PUSH1 0x0 PUSH1 0x20 MSTORE PUSH1 0x40 PUSH1 0x0 KECCAK256 SWAP1 PUSH1 0x1 DUP1 PUSH1 0xA0 SHL SUB AND PUSH1 0x0 MSTORE PUSH1 0x20 MSTORE PUSH1 0x20 PUSH1 0xFF PUSH1 0x40 PUSH1 0x0 KECCAK256 SLOAD AND PUSH1 0x40 MLOAD SWAP1 ISZERO ISZERO DUP2 MSTORE RETURN JUMPDEST CALLVALUE PUSH2 0x288 JUMPI PUSH1 0x0 CALLDATASIZE PUSH1 0x3 NOT ADD SLT PUSH2 0x288 JUMPI PUSH1 0x20 PUSH1 0x40 MLOAD PUSH32 0x92A9BFC44B11BDCB4CE1C7BB0F30145A060370F7684A9CF6C25518E577577269 DUP2 MSTORE RETURN JUMPDEST CALLVALUE PUSH2 0x288 JUMPI PUSH1 0x0 CALLDATASIZE PUSH1 0x3 NOT ADD SLT PUSH2 0x288 JUMPI PUSH2 0xB92 PUSH2 0x1E30 JUMP JUMPDEST PUSH2 0xB9A PUSH2 0x227E JUMP JUMPDEST PUSH1 0x1 PUSH1 0xFF NOT PUSH1 0x2 SLOAD AND OR PUSH1 0x2 SSTORE PUSH32 0x62E78CEA01BEE320CD4E420270B5EA74000D11B0C9F74754EBDBFC544B05A258 PUSH1 0x20 PUSH1 0x40 MLOAD CALLER DUP2 MSTORE LOG1 STOP JUMPDEST CALLVALUE PUSH2 0x288 JUMPI PUSH1 0x20 CALLDATASIZE PUSH1 0x3 NOT ADD SLT PUSH2 0x288 JUMPI PUSH1 0x20 PUSH2 0xBF1 PUSH1 0x4 CALLDATALOAD PUSH2 0x2503 JUMP JUMPDEST PUSH1 0x40 MLOAD SWAP1 DUP2 MSTORE RETURN JUMPDEST CALLVALUE PUSH2 0x288 JUMPI PUSH1 0x0 CALLDATASIZE PUSH1 0x3 NOT ADD SLT PUSH2 0x288 JUMPI PUSH1 0x2 SLOAD PUSH1 0x40 MLOAD PUSH1 0x8 SWAP2 SWAP1 SWAP2 SHR PUSH1 0x1 PUSH1 0x1 PUSH1 0xA0 SHL SUB AND DUP2 MSTORE PUSH1 0x20 SWAP1 RETURN JUMPDEST CALLVALUE PUSH2 0x288 JUMPI PUSH2 0xC34 CALLDATASIZE PUSH2 0x1DB9 JUMP JUMPDEST SWAP1 PUSH1 0x0 MSTORE PUSH1 0xB PUSH1 0x20 MSTORE PUSH1 0x40 PUSH1 0x0 KECCAK256 DUP1 SLOAD DUP3 LT ISZERO PUSH2 0x288 JUMPI PUSH1 0x20 SWAP2 PUSH2 0xC57 SWAP2 PUSH2 0x1DA1 JUMP JUMPDEST SWAP1 SLOAD PUSH1 0x40 MLOAD SWAP2 PUSH1 0x3 SHL SHR DUP2 MSTORE RETURN JUMPDEST CALLVALUE PUSH2 0x288 JUMPI PUSH1 0x0 CALLDATASIZE PUSH1 0x3 NOT ADD SLT PUSH2 0x288 JUMPI PUSH1 0x20 PUSH1 0x4 SLOAD PUSH1 0x40 MLOAD SWAP1 DUP2 MSTORE RETURN JUMPDEST CALLVALUE PUSH2 0x288 JUMPI PUSH1 0x0 CALLDATASIZE PUSH1 0x3 NOT ADD SLT PUSH2 0x288 JUMPI PUSH1 0x20 PUSH1 0xFF PUSH1 0x2 SLOAD AND PUSH1 0x40 MLOAD SWAP1 ISZERO ISZERO DUP2 MSTORE RETURN JUMPDEST CALLVALUE PUSH2 0x288 JUMPI PUSH1 0x20 CALLDATASIZE PUSH1 0x3 NOT ADD SLT PUSH2 0x288 JUMPI PUSH2 0x349 PUSH2 0xCC2 PUSH2 0x1D28 JUMP JUMPDEST PUSH2 0xCCA PUSH2 0x1E30 JUMP JUMPDEST PUSH32 0x92A9BFC44B11BDCB4CE1C7BB0F30145A060370F7684A9CF6C25518E577577269 PUSH1 0x0 SWAP1 DUP2 MSTORE PUSH1 0x20 MSTORE PUSH32 0xB9AA941ADAEC809E6B0427677375AC0B3D84BA99295EC0BA010B381B51E94792 SLOAD PUSH2 0xD1E SWAP1 PUSH2 0x1E88 JUMP JUMPDEST PUSH2 0x1EAE JUMP JUMPDEST CALLVALUE PUSH2 0x288 JUMPI PUSH1 0x40 CALLDATASIZE PUSH1 0x3 NOT ADD SLT PUSH2 0x288 JUMPI PUSH1 0x4 CALLDATALOAD PUSH1 0x24 CALLDATALOAD PUSH8 0xFFFFFFFFFFFFFFFF DUP2 GT PUSH2 0x288 JUMPI PUSH2 0xD57 SWAP1 CALLDATASIZE SWAP1 PUSH1 0x4 ADD PUSH2 0x1DEB JUMP JUMPDEST SWAP2 SWAP1 DUP2 ISZERO ISZERO DUP1 PUSH2 0xEF8 JUMPI JUMPDEST PUSH2 0xD6B SWAP1 PUSH2 0x232D JUMP JUMPDEST CALLER PUSH1 0x0 MSTORE PUSH1 0x8 SWAP1 PUSH1 0x20 DUP3 DUP2 MSTORE PUSH2 0xD8B PUSH1 0xFF PUSH1 0x5 PUSH1 0x40 PUSH1 0x0 KECCAK256 ADD SLOAD AND PUSH2 0x2379 JUMP JUMPDEST CALLER PUSH1 0x0 MSTORE DUP3 DUP2 MSTORE PUSH2 0xDA9 PUSH1 0xFF PUSH1 0x5 PUSH1 0x40 PUSH1 0x0 KECCAK256 ADD SLOAD DUP6 SHR AND ISZERO PUSH2 0x23C5 JUMP JUMPDEST CALLER PUSH1 0x0 MSTORE DUP3 DUP2 MSTORE PUSH1 0x4 PUSH1 0x1 PUSH1 0x40 PUSH1 0x0 KECCAK256 ADD SLOAD DUP3 PUSH1 0x1 DUP1 PUSH1 0xA0 SHL SUB PUSH1 0x2 SLOAD DUP8 SHR AND PUSH1 0x40 MLOAD SWAP4 DUP5 DUP1 SWAP3 PUSH4 0x63B36CC3 PUSH1 0xE1 SHL DUP3 MSTORE GAS STATICCALL SWAP2 DUP3 ISZERO PUSH2 0x3C6 JUMPI PUSH1 0x0 SWAP3 PUSH2 0xEC1 JUMPI JUMPDEST POP SWAP2 PUSH2 0xE1F PUSH32 0x5D7B755F33872C8C5FE6E178F7B9E167E0AA5F0407495210E7E0C8835A21CADB SWAP6 SWAP3 PUSH2 0xEB8 SWAP6 SWAP5 LT ISZERO PUSH2 0x218E JUMP JUMPDEST PUSH2 0xE27 PUSH2 0x229C JUMP JUMPDEST PUSH2 0xE2F PUSH2 0x227E JUMP JUMPDEST DUP6 PUSH1 0x0 MSTORE PUSH1 0x5 DUP2 MSTORE PUSH2 0xE4B PUSH1 0xFF DUP4 PUSH1 0x40 PUSH1 0x0 KECCAK256 ADD SLOAD AND ISZERO PUSH2 0x2410 JUMP JUMPDEST DUP6 PUSH1 0x0 MSTORE PUSH1 0x7 DUP2 MSTORE PUSH1 0x40 PUSH1 0x0 KECCAK256 CALLER PUSH1 0x0 MSTORE DUP2 MSTORE PUSH2 0xE70 PUSH1 0xFF PUSH1 0x40 PUSH1 0x0 KECCAK256 SLOAD AND ISZERO PUSH2 0x245C JUMP JUMPDEST DUP6 PUSH1 0x0 MSTORE PUSH1 0x7 DUP2 MSTORE PUSH1 0x40 PUSH1 0x0 KECCAK256 CALLER PUSH1 0x0 MSTORE DUP2 MSTORE PUSH1 0x40 PUSH1 0x0 KECCAK256 PUSH1 0x1 PUSH1 0xFF NOT DUP3 SLOAD AND OR SWAP1 SSTORE MSTORE PUSH1 0x3 PUSH1 0x40 PUSH1 0x0 KECCAK256 ADD PUSH2 0xEA6 DUP2 SLOAD PUSH2 0x2312 JUMP JUMPDEST SWAP1 SSTORE PUSH1 0x40 MLOAD SWAP2 DUP3 SWAP2 CALLER SWAP7 TIMESTAMP SWAP2 DUP5 PUSH2 0x24A8 JUMP JUMPDEST SUB SWAP1 LOG3 PUSH1 0x1 DUP1 SSTORE STOP JUMPDEST SWAP5 SWAP2 POP SWAP3 SWAP2 DUP1 DUP6 DUP2 RETURNDATASIZE DUP4 GT PUSH2 0xEF1 JUMPI JUMPDEST PUSH2 0xEDB DUP2 DUP4 PUSH2 0x216C JUMP JUMPDEST DUP2 ADD SUB SLT PUSH2 0x288 JUMPI SWAP4 MLOAD SWAP1 SWAP4 SWAP2 SWAP3 PUSH2 0xE1F PUSH2 0xDEB JUMP JUMPDEST POP RETURNDATASIZE PUSH2 0xED1 JUMP JUMPDEST POP PUSH1 0x4 SLOAD DUP3 LT PUSH2 0xD62 JUMP JUMPDEST CALLVALUE PUSH2 0x288 JUMPI PUSH2 0xF11 CALLDATASIZE PUSH2 0x1DB9 JUMP JUMPDEST SWAP1 DUP1 ISZERO ISZERO DUP1 PUSH2 0x1212 JUMPI JUMPDEST PUSH2 0xF24 SWAP1 PUSH2 0x232D JUMP JUMPDEST CALLER PUSH1 0x0 MSTORE PUSH1 0x8 PUSH1 0x20 SWAP3 DUP2 DUP5 MSTORE PUSH2 0xF44 PUSH1 0xFF PUSH1 0x5 PUSH1 0x40 PUSH1 0x0 KECCAK256 ADD SLOAD AND PUSH2 0x2379 JUMP JUMPDEST CALLER PUSH1 0x0 MSTORE DUP2 DUP5 MSTORE PUSH2 0xF62 PUSH1 0xFF PUSH1 0x5 PUSH1 0x40 PUSH1 0x0 KECCAK256 ADD SLOAD DUP5 SHR AND ISZERO PUSH2 0x23C5 JUMP JUMPDEST CALLER PUSH1 0x0 MSTORE DUP2 DUP5 MSTORE PUSH1 0x1 SWAP4 DUP5 PUSH1 0x40 PUSH1 0x0 KECCAK256 ADD SLOAD SWAP2 PUSH1 0x4 PUSH1 0x1 DUP1 PUSH1 0xA0 SHL SUB SWAP4 DUP4 DUP6 PUSH1 0x2 SLOAD DUP9 SHR AND PUSH1 0x40 MLOAD SWAP4 DUP5 DUP1 SWAP3 PUSH4 0x63B36CC3 PUSH1 0xE1 SHL DUP3 MSTORE GAS STATICCALL SWAP1 DUP2 ISZERO PUSH2 0x3C6 JUMPI PUSH1 0x0 SWAP2 PUSH2 0x11E1 JUMPI JUMPDEST PUSH2 0xFB5 SWAP3 POP LT ISZERO PUSH2 0x218E JUMP JUMPDEST PUSH2 0xFBD PUSH2 0x229C JUMP JUMPDEST PUSH2 0xFC5 PUSH2 0x227E JUMP JUMPDEST DUP5 PUSH1 0x0 MSTORE PUSH1 0x5 DUP3 MSTORE PUSH2 0xFE2 PUSH1 0xFF PUSH1 0x40 PUSH1 0x0 KECCAK256 SWAP6 DUP7 ADD SLOAD AND ISZERO PUSH2 0x2410 JUMP JUMPDEST PUSH1 0x3 DUP5 ADD SLOAD TIMESTAMP GT PUSH2 0x119C JUMPI DUP5 PUSH1 0x0 MSTORE PUSH1 0x7 DUP3 MSTORE PUSH1 0x40 PUSH1 0x0 KECCAK256 CALLER PUSH1 0x0 MSTORE DUP3 MSTORE PUSH2 0x1012 PUSH1 0xFF PUSH1 0x40 PUSH1 0x0 KECCAK256 SLOAD AND ISZERO PUSH2 0x245C JUMP JUMPDEST DUP1 ISZERO PUSH2 0x114B JUMPI DUP5 PUSH1 0x0 MSTORE PUSH1 0x7 DUP3 MSTORE PUSH1 0x40 PUSH1 0x0 KECCAK256 CALLER PUSH1 0x0 MSTORE DUP3 MSTORE PUSH1 0x40 PUSH1 0x0 KECCAK256 DUP7 PUSH1 0xFF NOT DUP3 SLOAD AND OR SWAP1 SSTORE PUSH1 0x6 DUP5 ADD SWAP2 PUSH2 0x1049 DUP4 SLOAD PUSH2 0x2312 JUMP JUMPDEST DUP4 SSTORE DUP6 PUSH1 0x0 MSTORE PUSH1 0x6 DUP2 MSTORE PUSH1 0x40 PUSH1 0x0 KECCAK256 SWAP4 PUSH1 0x40 MLOAD SWAP5 PUSH2 0x1066 DUP7 PUSH2 0x2134 JUMP JUMPDEST CALLER DUP7 MSTORE DUP3 DUP7 ADD SWAP6 DUP5 DUP8 MSTORE PUSH1 0x40 DUP2 ADD SWAP2 TIMESTAMP DUP4 MSTORE PUSH1 0x60 DUP3 ADD SWAP1 DUP12 DUP3 MSTORE DUP1 SLOAD PUSH1 0x1 PUSH1 0x40 SHL DUP2 LT ISZERO PUSH2 0x57A JUMPI PUSH2 0x109C SWAP2 DUP14 DUP3 ADD DUP2 SSTORE PUSH2 0x1DCF JUMP JUMPDEST SWAP4 SWAP1 SWAP4 PUSH2 0x1135 JUMPI PUSH1 0x5 SWAP9 PUSH2 0x10E6 SWAP6 PUSH1 0x3 SWAP5 MLOAD AND PUSH12 0xFFFFFFFFFFFFFFFFFFFFFFFF PUSH1 0xA0 SHL DUP7 SLOAD AND OR DUP6 SSTORE MLOAD DUP13 DUP6 ADD SSTORE MLOAD PUSH1 0x2 DUP5 ADD SSTORE MLOAD ISZERO ISZERO SWAP2 ADD SWAP1 PUSH1 0xFF DUP1 NOT DUP4 SLOAD AND SWAP2 ISZERO ISZERO AND OR SWAP1 SSTORE JUMP JUMPDEST PUSH1 0x40 MLOAD SWAP2 DUP3 MSTORE TIMESTAMP SWAP1 DUP3 ADD MSTORE DUP5 PUSH32 0xDC37948D08732ED33078677FC43276D929DE5BC1D96EDC08562D508C79ADC01C PUSH1 0x40 CALLER SWAP4 LOG3 SLOAD SWAP2 ADD SLOAD GT ISZERO PUSH2 0x1127 JUMPI POP DUP1 SSTORE STOP JUMPDEST PUSH2 0x1130 SWAP1 PUSH2 0x2503 JUMP JUMPDEST POP DUP1 SSTORE STOP JUMPDEST PUSH4 0x4E487B71 PUSH1 0xE0 SHL PUSH1 0x0 MSTORE PUSH1 0x0 PUSH1 0x4 MSTORE PUSH1 0x24 PUSH1 0x0 REVERT JUMPDEST PUSH1 0x40 MLOAD PUSH3 0x461BCD PUSH1 0xE5 SHL DUP2 MSTORE PUSH1 0x4 DUP2 ADD DUP4 SWAP1 MSTORE PUSH1 0x24 DUP1 DUP3 ADD MSTORE PUSH32 0x4665656450726F746F636F6C3A207072696365206D75737420626520706F7369 PUSH1 0x44 DUP3 ADD MSTORE PUSH4 0x74697665 PUSH1 0xE0 SHL PUSH1 0x64 DUP3 ADD MSTORE PUSH1 0x84 SWAP1 REVERT JUMPDEST PUSH1 0x40 MLOAD PUSH3 0x461BCD PUSH1 0xE5 SHL DUP2 MSTORE PUSH1 0x4 DUP2 ADD DUP4 SWAP1 MSTORE PUSH1 0x1D PUSH1 0x24 DUP3 ADD MSTORE PUSH32 0x4665656450726F746F636F6C3A20726571756573742065787069726564000000 PUSH1 0x44 DUP3 ADD MSTORE PUSH1 0x64 SWAP1 REVERT JUMPDEST SWAP1 POP DUP4 DUP3 DUP2 RETURNDATASIZE DUP4 GT PUSH2 0x120B JUMPI JUMPDEST PUSH2 0x11F8 DUP2 DUP4 PUSH2 0x216C JUMP JUMPDEST DUP2 ADD SUB SLT PUSH2 0x288 JUMPI PUSH2 0xFB5 SWAP2 MLOAD SWAP1 PUSH2 0xFA9 JUMP JUMPDEST POP RETURNDATASIZE PUSH2 0x11EE JUMP JUMPDEST POP PUSH1 0x4 SLOAD DUP2 LT PUSH2 0xF1B JUMP JUMPDEST CALLVALUE PUSH2 0x288 JUMPI PUSH1 0x0 CALLDATASIZE PUSH1 0x3 NOT ADD SLT PUSH2 0x288 JUMPI PUSH2 0x1236 PUSH2 0x1E30 JUMP JUMPDEST PUSH1 0x2 SLOAD PUSH1 0xFF DUP2 AND ISZERO PUSH2 0x1275 JUMPI PUSH1 0xFF NOT AND PUSH1 0x2 SSTORE PUSH32 0x5DB9EE0A495BF2E6FF9C91A7834C1BA4FDD244A5E8AA4E537BD38AEAE4B073AA PUSH1 0x20 PUSH1 0x40 MLOAD CALLER DUP2 MSTORE LOG1 STOP JUMPDEST PUSH1 0x40 MLOAD PUSH4 0x8DFC202B PUSH1 0xE0 SHL DUP2 MSTORE PUSH1 0x4 SWAP1 REVERT JUMPDEST CALLVALUE PUSH2 0x288 JUMPI PUSH1 0x20 CALLDATASIZE PUSH1 0x3 NOT ADD SLT PUSH2 0x288 JUMPI PUSH1 0x4 CALLDATALOAD PUSH1 0x0 MSTORE PUSH1 0x5 PUSH1 0x20 MSTORE PUSH2 0x140 PUSH1 0x40 PUSH1 0x0 KECCAK256 DUP1 SLOAD SWAP1 PUSH1 0x1 DUP2 ADD SLOAD SWAP1 PUSH1 0x2 DUP2 ADD SLOAD PUSH1 0xFF DUP2 PUSH1 0x8 SHR AND PUSH1 0x3 DUP4 ADD SLOAD PUSH1 0x4 DUP5 ADD SLOAD SWAP1 PUSH1 0x5 DUP6 ADD SLOAD SWAP3 PUSH2 0x1300 PUSH1 0x6 DUP8 ADD SLOAD SWAP6 PUSH1 0xFF PUSH1 0x8 PUSH1 0x7 DUP11 ADD SLOAD SWAP10 ADD SLOAD AND SWAP9 PUSH1 0x40 MLOAD SWAP11 DUP12 MSTORE PUSH1 0x20 DUP12 ADD MSTORE PUSH1 0xFF PUSH1 0x40 DUP12 ADD SWAP2 AND PUSH2 0x1E19 JUMP JUMPDEST PUSH2 0x1309 DUP2 PUSH2 0x1E26 JUMP JUMPDEST PUSH1 0x60 DUP9 ADD MSTORE PUSH1 0x80 DUP8 ADD MSTORE PUSH1 0xA0 DUP7 ADD MSTORE PUSH1 0xC0 DUP6 ADD MSTORE PUSH1 0xE0 DUP5 ADD MSTORE PUSH2 0x100 DUP4 ADD MSTORE ISZERO ISZERO PUSH2 0x120 DUP3 ADD MSTORE RETURN JUMPDEST CALLVALUE PUSH2 0x288 JUMPI PUSH1 0x40 CALLDATASIZE PUSH1 0x3 NOT ADD SLT PUSH2 0x288 JUMPI PUSH2 0x134B PUSH2 0x1D3E JUMP JUMPDEST CALLER PUSH1 0x1 PUSH1 0x1 PUSH1 0xA0 SHL SUB DUP3 AND SUB PUSH2 0x1367 JUMPI PUSH2 0x349 SWAP1 PUSH1 0x4 CALLDATALOAD PUSH2 0x2086 JUMP JUMPDEST PUSH1 0x40 MLOAD PUSH4 0x334BD919 PUSH1 0xE1 SHL DUP2 MSTORE PUSH1 0x4 SWAP1 REVERT JUMPDEST CALLVALUE PUSH2 0x288 JUMPI PUSH1 0x0 CALLDATASIZE PUSH1 0x3 NOT ADD SLT PUSH2 0x288 JUMPI PUSH1 0x3 SLOAD PUSH1 0x40 MLOAD PUSH1 0x1 PUSH1 0x1 PUSH1 0xA0 SHL SUB SWAP1 SWAP2 AND DUP2 MSTORE PUSH1 0x20 SWAP1 RETURN JUMPDEST CALLVALUE PUSH2 0x288 JUMPI PUSH1 0x40 CALLDATASIZE PUSH1 0x3 NOT ADD SLT PUSH2 0x288 JUMPI PUSH2 0x349 PUSH1 0x4 CALLDATALOAD PUSH2 0x13C1 PUSH2 0x1D3E JUMP JUMPDEST SWAP1 DUP1 PUSH1 0x0 MSTORE PUSH1 0x0 PUSH1 0x20 MSTORE PUSH2 0x13DC PUSH1 0x1 PUSH1 0x40 PUSH1 0x0 KECCAK256 ADD SLOAD PUSH2 0x1E88 JUMP JUMPDEST PUSH2 0x200D JUMP JUMPDEST CALLVALUE PUSH2 0x288 JUMPI PUSH1 0x40 CALLDATASIZE PUSH1 0x3 NOT ADD SLT PUSH2 0x288 JUMPI PUSH2 0x13FA PUSH2 0x1D28 JUMP JUMPDEST PUSH1 0x24 CALLDATALOAD PUSH8 0xFFFFFFFFFFFFFFFF DUP2 GT PUSH2 0x288 JUMPI PUSH2 0x141A SWAP1 CALLDATASIZE SWAP1 PUSH1 0x4 ADD PUSH2 0x1DEB JUMP JUMPDEST CALLER PUSH1 0x0 SWAP1 DUP2 MSTORE PUSH32 0xA0CFC50BE65892217A92EAB74D4B8DCA267A17D5B74F05A4A7CDEE0906A51FAF PUSH1 0x20 MSTORE PUSH1 0x40 SWAP1 KECCAK256 SLOAD SWAP1 SWAP3 SWAP2 SWAP1 PUSH1 0xFF AND ISZERO PUSH2 0x14B4 JUMPI PUSH32 0xA172CC290B2E00BC2A34C06A4D70CD942037859CCA624F051CD830B4B268EAC5 SWAP2 PUSH1 0x1 DUP1 PUSH1 0xA0 SHL SUB AND SWAP3 DUP4 PUSH1 0x0 MSTORE PUSH1 0x8 PUSH1 0x20 MSTORE PUSH1 0x5 PUSH1 0x40 PUSH1 0x0 KECCAK256 ADD PUSH2 0x100 PUSH2 0xFFFF NOT DUP3 SLOAD AND OR SWAP1 SSTORE PUSH2 0x14AF PUSH1 0x40 MLOAD SWAP3 DUP4 SWAP3 TIMESTAMP SWAP2 DUP5 PUSH2 0x24A8 JUMP JUMPDEST SUB SWAP1 LOG2 STOP JUMPDEST PUSH1 0x40 MLOAD PUSH3 0x461BCD PUSH1 0xE5 SHL DUP2 MSTORE PUSH1 0x20 PUSH1 0x4 DUP3 ADD MSTORE PUSH1 0x1A PUSH1 0x24 DUP3 ADD MSTORE PUSH32 0x4665656450726F746F636F6C3A206E6F74206F70657261746F72000000000000 PUSH1 0x44 DUP3 ADD MSTORE PUSH1 0x64 SWAP1 REVERT JUMPDEST CALLVALUE PUSH2 0x288 JUMPI PUSH1 0x0 CALLDATASIZE PUSH1 0x3 NOT ADD SLT PUSH2 0x288 JUMPI PUSH1 0x20 PUSH1 0x40 MLOAD PUSH32 0x70B284DA8BFC3DE812DAA2261B4C3FFADD90C2C772295293D09C9629A737A0CD DUP2 MSTORE RETURN JUMPDEST CALLVALUE PUSH2 0x288 JUMPI PUSH1 0x20 DUP1 PUSH1 0x3 NOT CALLDATASIZE ADD SLT PUSH2 0x288 JUMPI PUSH1 0x4 CALLDATALOAD PUSH2 0x1551 PUSH2 0x229C JUMP JUMPDEST PUSH2 0x1559 PUSH2 0x227E JUMP JUMPDEST CALLER PUSH1 0x0 MSTORE PUSH1 0x8 DUP3 MSTORE PUSH1 0x40 PUSH1 0x0 KECCAK256 SWAP2 PUSH1 0x1 DUP4 ADD SWAP3 DUP4 SLOAD SWAP4 PUSH2 0x157B DUP5 DUP7 LT ISZERO PUSH2 0x218E JUMP JUMPDEST PUSH2 0x1585 DUP5 DUP7 PUSH2 0x22CC JUMP JUMPDEST PUSH1 0x2 SLOAD PUSH1 0x40 MLOAD PUSH4 0x63B36CC3 PUSH1 0xE1 SHL DUP2 MSTORE PUSH1 0x1 PUSH1 0x1 PUSH1 0xA0 SHL SUB SWAP6 SWAP3 SWAP1 SWAP2 DUP4 SWAP1 DUP4 SWAP1 PUSH1 0x4 SWAP1 DUP3 SWAP1 PUSH1 0x8 SHR DUP11 AND GAS STATICCALL SWAP2 DUP3 ISZERO PUSH2 0x3C6 JUMPI PUSH1 0x0 SWAP3 PUSH2 0x1674 JUMPI JUMPDEST POP LT DUP1 ISZERO SWAP1 PUSH2 0x166B JUMPI JUMPDEST ISZERO PUSH2 0x1609 JUMPI POP PUSH2 0x15DD DUP5 PUSH2 0x15F2 SWAP7 PUSH2 0x22CC JUMP JUMPDEST DUP1 SWAP2 SSTORE ISZERO PUSH2 0x15F8 JUMPI JUMPDEST POP CALLER SWAP1 PUSH1 0x3 SLOAD AND PUSH2 0x22D9 JUMP JUMPDEST PUSH1 0x1 DUP1 SSTORE STOP JUMPDEST PUSH1 0x5 ADD DUP1 SLOAD PUSH1 0xFF NOT AND SWAP1 SSTORE DUP4 PUSH2 0x15E6 JUMP JUMPDEST PUSH1 0x84 SWAP1 PUSH1 0x40 MLOAD SWAP1 PUSH3 0x461BCD PUSH1 0xE5 SHL DUP3 MSTORE PUSH1 0x4 DUP3 ADD MSTORE PUSH1 0x35 PUSH1 0x24 DUP3 ADD MSTORE PUSH32 0x4665656450726F746F636F6C3A206D757374206D61696E7461696E206D696E20 PUSH1 0x44 DUP3 ADD MSTORE PUSH21 0x1CDD185AD9481BDC881DDA5D1A191C985DC8185B1B PUSH1 0x5A SHL PUSH1 0x64 DUP3 ADD MSTORE REVERT JUMPDEST POP DUP6 DUP6 EQ PUSH2 0x15CA JUMP JUMPDEST SWAP1 SWAP2 POP DUP3 DUP2 DUP2 RETURNDATASIZE DUP4 GT PUSH2 0x169C JUMPI JUMPDEST PUSH2 0x168C DUP2 DUP4 PUSH2 0x216C JUMP JUMPDEST DUP2 ADD SUB SLT PUSH2 0x288 JUMPI MLOAD SWAP1 DUP9 PUSH2 0x15C0 JUMP JUMPDEST POP RETURNDATASIZE PUSH2 0x1682 JUMP JUMPDEST CALLVALUE PUSH2 0x288 JUMPI PUSH1 0x20 CALLDATASIZE PUSH1 0x3 NOT ADD SLT PUSH2 0x288 JUMPI PUSH1 0x4 CALLDATALOAD PUSH1 0x0 MSTORE PUSH1 0x0 PUSH1 0x20 MSTORE PUSH1 0x20 PUSH1 0x1 PUSH1 0x40 PUSH1 0x0 KECCAK256 ADD SLOAD PUSH1 0x40 MLOAD SWAP1 DUP2 MSTORE RETURN JUMPDEST CALLVALUE PUSH2 0x288 JUMPI PUSH1 0x20 CALLDATASIZE PUSH1 0x3 NOT ADD SLT PUSH2 0x288 JUMPI PUSH2 0x16EB PUSH2 0x1D28 JUMP JUMPDEST PUSH2 0x16F3 PUSH2 0x1E30 JUMP JUMPDEST PUSH1 0x2 DUP1 SLOAD PUSH2 0x100 PUSH1 0x1 PUSH1 0xA8 SHL SUB NOT AND PUSH1 0x8 SWAP3 SWAP1 SWAP3 SHL PUSH2 0x100 PUSH1 0x1 PUSH1 0xA8 SHL SUB AND SWAP2 SWAP1 SWAP2 OR SWAP1 SSTORE STOP JUMPDEST CALLVALUE PUSH2 0x288 JUMPI PUSH1 0x20 DUP1 PUSH1 0x3 NOT CALLDATASIZE ADD SLT PUSH2 0x288 JUMPI PUSH1 0x4 CALLDATALOAD PUSH1 0x0 MSTORE PUSH1 0x6 DUP2 MSTORE PUSH1 0x40 PUSH1 0x0 KECCAK256 SWAP1 DUP2 SLOAD PUSH2 0x1747 DUP2 PUSH2 0x24D7 JUMP JUMPDEST SWAP1 PUSH2 0x1755 PUSH1 0x40 MLOAD SWAP3 DUP4 PUSH2 0x216C JUMP JUMPDEST DUP1 DUP3 MSTORE DUP3 DUP3 ADD DUP1 SWAP5 PUSH1 0x0 MSTORE DUP4 PUSH1 0x0 KECCAK256 PUSH1 0x0 SWAP2 JUMPDEST DUP4 DUP4 LT PUSH2 0x17D3 JUMPI PUSH1 0x40 DUP1 MLOAD DUP8 DUP2 MSTORE DUP7 MLOAD DUP2 DUP10 ADD DUP2 SWAP1 MSTORE DUP10 SWAP3 DUP3 ADD SWAP1 DUP10 PUSH1 0x0 JUMPDEST DUP3 DUP2 LT PUSH2 0x1794 JUMPI DUP5 DUP5 SUB DUP6 RETURN JUMPDEST DUP6 MLOAD DUP1 MLOAD PUSH1 0x1 PUSH1 0x1 PUSH1 0xA0 SHL SUB AND DUP6 MSTORE DUP1 DUP4 ADD MLOAD DUP6 DUP5 ADD MSTORE PUSH1 0x40 DUP1 DUP3 ADD MLOAD SWAP1 DUP7 ADD MSTORE PUSH1 0x60 SWAP1 DUP2 ADD MLOAD ISZERO ISZERO SWAP1 DUP6 ADD MSTORE SWAP5 DUP2 ADD SWAP5 PUSH1 0x80 SWAP1 SWAP4 ADD SWAP3 PUSH1 0x1 ADD PUSH2 0x1787 JUMP JUMPDEST PUSH1 0x4 DUP7 PUSH1 0x1 SWAP3 PUSH1 0x40 MLOAD PUSH2 0x17E5 DUP2 PUSH2 0x2134 JUMP JUMPDEST DUP5 DUP1 PUSH1 0xA0 SHL SUB DUP7 SLOAD AND DUP2 MSTORE DUP5 DUP7 ADD SLOAD DUP4 DUP3 ADD MSTORE PUSH1 0x2 DUP7 ADD SLOAD PUSH1 0x40 DUP3 ADD MSTORE PUSH1 0xFF PUSH1 0x3 DUP8 ADD SLOAD AND ISZERO ISZERO PUSH1 0x60 DUP3 ADD MSTORE DUP2 MSTORE ADD SWAP3 ADD SWAP3 ADD SWAP2 SWAP1 PUSH2 0x1768 JUMP JUMPDEST CALLVALUE PUSH2 0x288 JUMPI PUSH2 0x182D CALLDATASIZE PUSH2 0x1DB9 JUMP JUMPDEST SWAP1 PUSH1 0x0 MSTORE PUSH1 0x6 PUSH1 0x20 MSTORE PUSH1 0x40 PUSH1 0x0 KECCAK256 DUP1 SLOAD DUP3 LT ISZERO PUSH2 0x288 JUMPI PUSH1 0x80 SWAP2 PUSH2 0x1850 SWAP2 PUSH2 0x1DCF JUMP JUMPDEST POP PUSH1 0x1 DUP1 PUSH1 0xA0 SHL SUB DUP2 SLOAD AND SWAP1 PUSH1 0x1 DUP2 ADD SLOAD SWAP1 PUSH1 0xFF PUSH1 0x3 PUSH1 0x2 DUP4 ADD SLOAD SWAP3 ADD SLOAD AND SWAP2 PUSH1 0x40 MLOAD SWAP4 DUP5 MSTORE PUSH1 0x20 DUP5 ADD MSTORE PUSH1 0x40 DUP4 ADD MSTORE ISZERO ISZERO PUSH1 0x60 DUP3 ADD MSTORE RETURN JUMPDEST CALLVALUE PUSH2 0x288 JUMPI PUSH1 0x20 CALLDATASIZE PUSH1 0x3 NOT ADD SLT PUSH2 0x288 JUMPI PUSH1 0x4 CALLDATALOAD PUSH1 0x9 SLOAD DUP2 LT ISZERO PUSH2 0x288 JUMPI PUSH2 0x18B2 PUSH1 0x20 SWAP2 PUSH2 0x1D54 JUMP JUMPDEST SWAP1 SLOAD PUSH1 0x40 MLOAD PUSH1 0x3 SWAP3 SWAP1 SWAP3 SHL SHR PUSH1 0x1 PUSH1 0x1 PUSH1 0xA0 SHL SUB AND DUP2 MSTORE RETURN JUMPDEST CALLVALUE PUSH2 0x288 JUMPI PUSH1 0x20 CALLDATASIZE PUSH1 0x3 NOT ADD SLT PUSH2 0x288 JUMPI PUSH1 0xE0 PUSH1 0x1 PUSH1 0x1 PUSH1 0xA0 SHL SUB DUP1 PUSH2 0x18EF PUSH2 0x1D28 JUMP JUMPDEST AND PUSH1 0x0 MSTORE PUSH1 0x8 PUSH1 0x20 MSTORE PUSH1 0xFF PUSH1 0x40 PUSH1 0x0 KECCAK256 SWAP2 DUP3 SLOAD AND SWAP2 PUSH1 0x1 DUP2 ADD SLOAD SWAP1 PUSH1 0x2 DUP2 ADD SLOAD PUSH1 0x3 DUP3 ADD SLOAD SWAP1 PUSH1 0x5 PUSH1 0x4 DUP5 ADD SLOAD SWAP4 ADD SLOAD SWAP4 PUSH1 0x40 MLOAD SWAP7 DUP8 MSTORE PUSH1 0x20 DUP8 ADD MSTORE PUSH1 0x40 DUP7 ADD MSTORE PUSH1 0x60 DUP6 ADD MSTORE PUSH1 0x80 DUP5 ADD MSTORE DUP2 DUP2 AND ISZERO ISZERO PUSH1 0xA0 DUP5 ADD MSTORE PUSH1 0x8 SHR AND ISZERO ISZERO PUSH1 0xC0 DUP3 ADD MSTORE RETURN JUMPDEST PUSH1 0x60 CALLDATASIZE PUSH1 0x3 NOT ADD SLT PUSH2 0x288 JUMPI PUSH1 0x4 CALLDATALOAD PUSH1 0x4 PUSH1 0x24 CALLDATALOAD LT ISZERO PUSH2 0x288 JUMPI PUSH1 0x44 CALLDATALOAD PUSH1 0x3 DUP2 LT ISZERO PUSH2 0x288 JUMPI CALLER PUSH1 0x0 SWAP1 DUP2 MSTORE PUSH32 0xBB186CC6582165753931A58FDAAC99B9482F9D63C76229808BD3AFC382E98215 PUSH1 0x20 MSTORE PUSH1 0x40 SWAP1 KECCAK256 SLOAD PUSH1 0xFF AND ISZERO PUSH2 0x1C47 JUMPI PUSH2 0x19B6 PUSH2 0x229C JUMP JUMPDEST PUSH2 0x19BF DUP2 PUSH2 0x1E26 JUMP JUMPDEST DUP1 PUSH1 0x0 MSTORE PUSH1 0xA PUSH1 0x20 MSTORE PUSH1 0x40 PUSH1 0x0 KECCAK256 PUSH2 0x1A21 PUSH1 0x3 PUSH1 0x40 MLOAD SWAP3 PUSH2 0x19DF DUP5 PUSH2 0x20FB JUMP JUMPDEST PUSH1 0xFF DUP2 SLOAD DUP2 DUP2 AND DUP7 MSTORE PUSH1 0x8 SHR AND PUSH1 0x20 DUP6 ADD MSTORE PUSH1 0x1 DUP2 ADD SLOAD PUSH1 0x40 DUP6 ADD MSTORE PUSH1 0x2 DUP2 ADD SLOAD PUSH1 0x60 DUP6 ADD MSTORE ADD SLOAD DUP1 PUSH1 0x80 DUP5 ADD MSTORE PUSH1 0x1 DUP1 PUSH1 0xA0 SHL SUB PUSH1 0x3 SLOAD AND ADDRESS SWAP1 CALLER SWAP1 PUSH2 0x21D9 JUMP JUMPDEST PUSH1 0x4 SLOAD SWAP2 PUSH2 0x1A2E DUP4 PUSH2 0x2312 JUMP JUMPDEST PUSH1 0x4 SSTORE PUSH2 0x708 TIMESTAMP ADD SWAP2 DUP3 TIMESTAMP GT PUSH2 0x1C31 JUMPI MLOAD PUSH1 0x40 MLOAD SWAP3 SWAP1 PUSH1 0xFF AND PUSH2 0x1A50 DUP5 PUSH2 0x2117 JUMP JUMPDEST DUP5 DUP5 MSTORE PUSH1 0x20 DUP5 ADD SWAP3 DUP7 DUP5 MSTORE PUSH1 0x40 DUP6 ADD SWAP5 PUSH2 0x1A6C PUSH1 0x24 CALLDATALOAD DUP8 PUSH2 0x2321 JUMP JUMPDEST PUSH1 0x60 DUP2 ADD SWAP2 PUSH2 0x1A7A DUP2 PUSH2 0x1E26 JUMP JUMPDEST DUP3 MSTORE PUSH1 0x80 DUP2 ADD SWAP4 DUP5 MSTORE PUSH1 0xA0 DUP2 ADD SWAP3 TIMESTAMP DUP5 MSTORE PUSH1 0xC0 DUP3 ADD SWAP1 DUP2 MSTORE PUSH1 0xE0 DUP3 ADD SWAP1 PUSH1 0x0 DUP3 MSTORE PUSH1 0x0 PUSH2 0x100 DUP5 ADD MSTORE PUSH2 0x120 DUP4 ADD SWAP5 PUSH1 0x0 DUP7 MSTORE DUP10 PUSH1 0x0 MSTORE PUSH1 0x5 PUSH1 0x20 MSTORE PUSH1 0x40 PUSH1 0x0 KECCAK256 SWAP8 DUP5 MLOAD DUP10 SSTORE MLOAD PUSH1 0x1 DUP10 ADD SSTORE PUSH1 0x2 DUP9 ADD SWAP9 MLOAD SWAP7 PUSH1 0x4 DUP9 LT ISZERO PUSH2 0x1C1B JUMPI DUP10 PUSH1 0x8 SWAP9 PUSH2 0x100 SWAP8 PUSH1 0xFF PUSH2 0xFF00 PUSH2 0x1B40 SWAP15 SLOAD SWAP3 MLOAD PUSH2 0x1AF3 DUP2 PUSH2 0x1E26 JUMP JUMPDEST PUSH2 0x1AFC DUP2 PUSH2 0x1E26 JUMP JUMPDEST DUP14 SHL AND SWAP3 AND SWAP1 PUSH2 0xFFFF NOT AND OR OR SWAP1 SSTORE MLOAD PUSH1 0x3 DUP10 ADD SSTORE MLOAD PUSH1 0x4 DUP9 ADD SSTORE MLOAD PUSH1 0x5 DUP8 ADD SSTORE MLOAD PUSH1 0x6 DUP7 ADD SSTORE ADD MLOAD PUSH1 0x7 DUP5 ADD SSTORE MLOAD ISZERO ISZERO SWAP2 ADD SWAP1 PUSH1 0xFF DUP1 NOT DUP4 SLOAD AND SWAP2 ISZERO ISZERO AND OR SWAP1 SSTORE JUMP JUMPDEST DUP2 PUSH1 0x0 MSTORE PUSH1 0xB PUSH1 0x20 MSTORE PUSH1 0x40 PUSH1 0x0 KECCAK256 SWAP2 DUP3 SLOAD SWAP3 PUSH1 0x1 PUSH1 0x40 SHL DUP5 LT ISZERO PUSH2 0x57A JUMPI DUP4 PUSH2 0x1B70 SWAP2 PUSH1 0x1 PUSH1 0x20 SWAP7 ADD DUP2 SSTORE PUSH2 0x1DA1 JUMP JUMPDEST DUP2 SLOAD SWAP1 PUSH1 0x3 SHL SWAP1 DUP5 DUP3 SHL SWAP2 PUSH1 0x0 NOT SWAP1 SHL NOT AND OR SWAP1 SSTORE DUP2 PUSH32 0x615E8F1333715C833AEEA3803D6AA6F09D73C6DB60F9ED7D1DED1CEC09B48D9A PUSH2 0x1A0 PUSH1 0x40 MLOAD PUSH2 0x120 DUP2 MSTORE PUSH1 0x0 PUSH2 0x120 DUP3 ADD MSTORE PUSH1 0x0 PUSH2 0x140 DUP1 DUP10 DUP5 ADD MSTORE DUP3 ADD MSTORE PUSH1 0x0 PUSH2 0x160 DUP1 PUSH1 0x40 DUP5 ADD MSTORE DUP3 ADD MSTORE PUSH1 0x0 PUSH2 0x180 DUP1 PUSH1 0x60 DUP5 ADD MSTORE DUP3 ADD MSTORE PUSH2 0x1BF2 PUSH1 0x80 DUP3 ADD PUSH1 0x24 CALLDATALOAD PUSH2 0x1E19 JUMP JUMPDEST PUSH1 0x0 PUSH1 0xA0 DUP3 ADD MSTORE PUSH1 0x0 PUSH1 0xC0 DUP3 ADD MSTORE PUSH1 0x0 PUSH1 0xE0 DUP3 ADD MSTORE TIMESTAMP PUSH2 0x100 DUP3 ADD MSTORE LOG3 PUSH1 0x1 DUP1 SSTORE PUSH1 0x40 MLOAD SWAP1 DUP2 MSTORE RETURN JUMPDEST PUSH4 0x4E487B71 PUSH1 0xE0 SHL PUSH1 0x0 MSTORE PUSH1 0x21 PUSH1 0x4 MSTORE PUSH1 0x24 PUSH1 0x0 REVERT JUMPDEST PUSH4 0x4E487B71 PUSH1 0xE0 SHL PUSH1 0x0 MSTORE PUSH1 0x11 PUSH1 0x4 MSTORE PUSH1 0x24 PUSH1 0x0 REVERT JUMPDEST PUSH1 0x40 MLOAD PUSH3 0x461BCD PUSH1 0xE5 SHL DUP2 MSTORE PUSH1 0x20 PUSH1 0x4 DUP3 ADD MSTORE PUSH1 0x25 PUSH1 0x24 DUP3 ADD MSTORE PUSH32 0x4665656450726F746F636F6C3A206E6F7420617574686F72697A65642070726F PUSH1 0x44 DUP3 ADD MSTORE PUSH5 0x1D1BD8DBDB PUSH1 0xDA SHL PUSH1 0x64 DUP3 ADD MSTORE PUSH1 0x84 SWAP1 REVERT JUMPDEST CALLVALUE PUSH2 0x288 JUMPI PUSH1 0x0 CALLDATASIZE PUSH1 0x3 NOT ADD SLT PUSH2 0x288 JUMPI PUSH1 0x20 PUSH1 0x40 MLOAD PUSH32 0xBA279271FB7BBF76A6F3DF3CC57BF80647FCAFDEA60EC3383D90F459DE74E7C0 DUP2 MSTORE RETURN JUMPDEST CALLVALUE PUSH2 0x288 JUMPI PUSH1 0x20 CALLDATASIZE PUSH1 0x3 NOT ADD SLT PUSH2 0x288 JUMPI PUSH1 0x4 CALLDATALOAD SWAP1 PUSH4 0xFFFFFFFF PUSH1 0xE0 SHL DUP3 AND DUP1 SWAP3 SUB PUSH2 0x288 JUMPI PUSH1 0x20 SWAP2 PUSH4 0x7965DB0B PUSH1 0xE0 SHL DUP2 EQ SWAP1 DUP2 ISZERO PUSH2 0x1D17 JUMPI JUMPDEST POP ISZERO ISZERO DUP2 MSTORE RETURN JUMPDEST PUSH4 0x1FFC9A7 PUSH1 0xE0 SHL EQ SWAP1 POP DUP4 PUSH2 0x1D10 JUMP JUMPDEST PUSH1 0x4 CALLDATALOAD SWAP1 PUSH1 0x1 PUSH1 0x1 PUSH1 0xA0 SHL SUB DUP3 AND DUP3 SUB PUSH2 0x288 JUMPI JUMP JUMPDEST PUSH1 0x24 CALLDATALOAD SWAP1 PUSH1 0x1 PUSH1 0x1 PUSH1 0xA0 SHL SUB DUP3 AND DUP3 SUB PUSH2 0x288 JUMPI JUMP JUMPDEST PUSH1 0x9 SLOAD DUP2 LT ISZERO PUSH2 0x1D8B JUMPI PUSH1 0x9 PUSH1 0x0 MSTORE PUSH32 0x6E1540171B6C0C960B71A7020D9F60077F6AF931A8BBF590DA0223DACF75C7AF ADD SWAP1 PUSH1 0x0 SWAP1 JUMP JUMPDEST PUSH4 0x4E487B71 PUSH1 0xE0 SHL PUSH1 0x0 MSTORE PUSH1 0x32 PUSH1 0x4 MSTORE PUSH1 0x24 PUSH1 0x0 REVERT JUMPDEST DUP1 SLOAD DUP3 LT ISZERO PUSH2 0x1D8B JUMPI PUSH1 0x0 MSTORE PUSH1 0x20 PUSH1 0x0 KECCAK256 ADD SWAP1 PUSH1 0x0 SWAP1 JUMP JUMPDEST PUSH1 0x40 SWAP1 PUSH1 0x3 NOT ADD SLT PUSH2 0x288 JUMPI PUSH1 0x4 CALLDATALOAD SWAP1 PUSH1 0x24 CALLDATALOAD SWAP1 JUMP JUMPDEST DUP1 SLOAD DUP3 LT ISZERO PUSH2 0x1D8B JUMPI PUSH1 0x0 MSTORE PUSH1 0x20 PUSH1 0x0 KECCAK256 SWAP1 PUSH1 0x2 SHL ADD SWAP1 PUSH1 0x0 SWAP1 JUMP JUMPDEST SWAP2 DUP2 PUSH1 0x1F DUP5 ADD SLT ISZERO PUSH2 0x288 JUMPI DUP3 CALLDATALOAD SWAP2 PUSH8 0xFFFFFFFFFFFFFFFF DUP4 GT PUSH2 0x288 JUMPI PUSH1 0x20 DUP4 DUP2 DUP7 ADD SWAP6 ADD ADD GT PUSH2 0x288 JUMPI JUMP JUMPDEST SWAP1 PUSH1 0x4 DUP3 LT ISZERO PUSH2 0x1C1B JUMPI MSTORE JUMP JUMPDEST PUSH1 0x3 GT ISZERO PUSH2 0x1C1B JUMPI JUMP JUMPDEST CALLER PUSH1 0x0 SWAP1 DUP2 MSTORE PUSH32 0xAD3228B676F7D3CD4284A5443F17F1962B36E491B30A40B2405849E597BA5FB5 PUSH1 0x20 MSTORE PUSH1 0x40 DUP2 KECCAK256 SLOAD PUSH1 0xFF AND ISZERO PUSH2 0x1E6A JUMPI POP JUMP JUMPDEST PUSH1 0x44 SWAP1 PUSH1 0x40 MLOAD SWAP1 PUSH4 0xE2517D3F PUSH1 0xE0 SHL DUP3 MSTORE CALLER PUSH1 0x4 DUP4 ADD MSTORE PUSH1 0x24 DUP3 ADD MSTORE REVERT JUMPDEST DUP1 PUSH1 0x0 MSTORE PUSH1 0x0 PUSH1 0x20 MSTORE PUSH1 0x40 PUSH1 0x0 KECCAK256 CALLER PUSH1 0x0 MSTORE PUSH1 0x20 MSTORE PUSH1 0xFF PUSH1 0x40 PUSH1 0x0 KECCAK256 SLOAD AND ISZERO PUSH2 0x1E6A JUMPI POP JUMP JUMPDEST PUSH1 0x1 PUSH1 0x1 PUSH1 0xA0 SHL SUB AND PUSH1 0x0 DUP2 DUP2 MSTORE PUSH32 0xB9AA941ADAEC809E6B0427677375AC0B3D84BA99295EC0BA010B381B51E94791 PUSH1 0x20 MSTORE PUSH1 0x40 DUP2 KECCAK256 SLOAD SWAP1 SWAP2 SWAP1 PUSH32 0x92A9BFC44B11BDCB4CE1C7BB0F30145A060370F7684A9CF6C25518E577577269 SWAP1 PUSH1 0xFF AND PUSH2 0x1F5B JUMPI DUP1 DUP4 MSTORE DUP3 PUSH1 0x20 MSTORE PUSH1 0x40 DUP4 KECCAK256 DUP3 DUP5 MSTORE PUSH1 0x20 MSTORE PUSH1 0x40 DUP4 KECCAK256 PUSH1 0x1 PUSH1 0xFF NOT DUP3 SLOAD AND OR SWAP1 SSTORE PUSH32 0x2F8788117E7EFF1D82E926EC794901D17C78024A50270940304540A733656F0D CALLER SWAP4 DUP1 LOG4 PUSH1 0x1 SWAP1 JUMP JUMPDEST POP POP SWAP1 JUMP JUMPDEST PUSH1 0x1 PUSH1 0x1 PUSH1 0xA0 SHL SUB AND PUSH1 0x0 DUP2 DUP2 MSTORE PUSH32 0xBB186CC6582165753931A58FDAAC99B9482F9D63C76229808BD3AFC382E98215 PUSH1 0x20 MSTORE PUSH1 0x40 DUP2 KECCAK256 SLOAD SWAP1 SWAP2 SWAP1 PUSH32 0xBA279271FB7BBF76A6F3DF3CC57BF80647FCAFDEA60EC3383D90F459DE74E7C0 SWAP1 PUSH1 0xFF AND PUSH2 0x1F5B JUMPI DUP1 DUP4 MSTORE DUP3 PUSH1 0x20 MSTORE PUSH1 0x40 DUP4 KECCAK256 DUP3 DUP5 MSTORE PUSH1 0x20 MSTORE PUSH1 0x40 DUP4 KECCAK256 PUSH1 0x1 PUSH1 0xFF NOT DUP3 SLOAD AND OR SWAP1 SSTORE PUSH32 0x2F8788117E7EFF1D82E926EC794901D17C78024A50270940304540A733656F0D CALLER SWAP4 DUP1 LOG4 PUSH1 0x1 SWAP1 JUMP JUMPDEST SWAP1 PUSH1 0x0 SWAP2 DUP1 DUP4 MSTORE DUP3 PUSH1 0x20 MSTORE PUSH1 0x40 DUP4 KECCAK256 SWAP2 PUSH1 0x1 DUP1 PUSH1 0xA0 SHL SUB AND SWAP2 DUP3 DUP5 MSTORE PUSH1 0x20 MSTORE PUSH1 0xFF PUSH1 0x40 DUP5 KECCAK256 SLOAD AND ISZERO PUSH1 0x0 EQ PUSH2 0x1F5B JUMPI DUP1 DUP4 MSTORE DUP3 PUSH1 0x20 MSTORE PUSH1 0x40 DUP4 KECCAK256 DUP3 DUP5 MSTORE PUSH1 0x20 MSTORE PUSH1 0x40 DUP4 KECCAK256 PUSH1 0x1 PUSH1 0xFF NOT DUP3 SLOAD AND OR SWAP1 SSTORE PUSH32 0x2F8788117E7EFF1D82E926EC794901D17C78024A50270940304540A733656F0D CALLER SWAP4 DUP1 LOG4 PUSH1 0x1 SWAP1 JUMP JUMPDEST SWAP1 PUSH1 0x0 SWAP2 DUP1 DUP4 MSTORE DUP3 PUSH1 0x20 MSTORE PUSH1 0x40 DUP4 KECCAK256 SWAP2 PUSH1 0x1 DUP1 PUSH1 0xA0 SHL SUB AND SWAP2 DUP3 DUP5 MSTORE PUSH1 0x20 MSTORE PUSH1 0xFF PUSH1 0x40 DUP5 KECCAK256 SLOAD AND PUSH1 0x0 EQ PUSH2 0x1F5B JUMPI DUP1 DUP4 MSTORE DUP3 PUSH1 0x20 MSTORE PUSH1 0x40 DUP4 KECCAK256 DUP3 DUP5 MSTORE PUSH1 0x20 MSTORE PUSH1 0x40 DUP4 KECCAK256 PUSH1 0xFF NOT DUP2 SLOAD AND SWAP1 SSTORE PUSH32 0xF6391F5C32D9C69D2A47EA670B442974B53935D1EDC7FD64EB21E047A839171B CALLER SWAP4 DUP1 LOG4 PUSH1 0x1 SWAP1 JUMP JUMPDEST PUSH1 0xA0 DUP2 ADD SWAP1 DUP2 LT PUSH8 0xFFFFFFFFFFFFFFFF DUP3 GT OR PUSH2 0x57A JUMPI PUSH1 0x40 MSTORE JUMP JUMPDEST PUSH2 0x140 DUP2 ADD SWAP1 DUP2 LT PUSH8 0xFFFFFFFFFFFFFFFF DUP3 GT OR PUSH2 0x57A JUMPI PUSH1 0x40 MSTORE JUMP JUMPDEST PUSH1 0x80 DUP2 ADD SWAP1 DUP2 LT PUSH8 0xFFFFFFFFFFFFFFFF DUP3 GT OR PUSH2 0x57A JUMPI PUSH1 0x40 MSTORE JUMP JUMPDEST PUSH1 0xE0 DUP2 ADD SWAP1 DUP2 LT PUSH8 0xFFFFFFFFFFFFFFFF DUP3 GT OR PUSH2 0x57A JUMPI PUSH1 0x40 MSTORE JUMP JUMPDEST SWAP1 PUSH1 0x1F DUP1 NOT SWAP2 ADD AND DUP2 ADD SWAP1 DUP2 LT PUSH8 0xFFFFFFFFFFFFFFFF DUP3 GT OR PUSH2 0x57A JUMPI PUSH1 0x40 MSTORE JUMP JUMPDEST ISZERO PUSH2 0x2195 JUMPI JUMP JUMPDEST PUSH1 0x64 PUSH1 0x40 MLOAD PUSH3 0x461BCD PUSH1 0xE5 SHL DUP2 MSTORE PUSH1 0x20 PUSH1 0x4 DUP3 ADD MSTORE PUSH1 0x20 PUSH1 0x24 DUP3 ADD MSTORE PUSH32 0x4665656450726F746F636F6C3A20696E73756666696369656E74207374616B65 PUSH1 0x44 DUP3 ADD MSTORE REVERT JUMPDEST PUSH1 0x40 MLOAD PUSH4 0x23B872DD PUSH1 0xE0 SHL PUSH1 0x20 DUP3 ADD MSTORE PUSH1 0x1 PUSH1 0x1 PUSH1 0xA0 SHL SUB SWAP3 DUP4 AND PUSH1 0x24 DUP3 ADD MSTORE SWAP3 SWAP1 SWAP2 AND PUSH1 0x44 DUP4 ADD MSTORE PUSH1 0x64 DUP1 DUP4 ADD SWAP4 SWAP1 SWAP4 MSTORE SWAP2 DUP2 MSTORE PUSH2 0x2220 SWAP2 PUSH2 0x221B DUP3 PUSH2 0x20FB JUMP JUMPDEST PUSH2 0x2222 JUMP JUMPDEST JUMP JUMPDEST SWAP1 PUSH1 0x0 PUSH1 0x20 SWAP2 DUP3 DUP2 MLOAD SWAP2 ADD DUP3 DUP6 GAS CALL ISZERO PUSH2 0x3C6 JUMPI PUSH1 0x0 MLOAD RETURNDATASIZE PUSH2 0x2275 JUMPI POP PUSH1 0x1 PUSH1 0x1 PUSH1 0xA0 SHL SUB DUP2 AND EXTCODESIZE ISZERO JUMPDEST PUSH2 0x2253 JUMPI POP JUMP JUMPDEST PUSH1 0x40 MLOAD PUSH4 0x5274AFE7 PUSH1 0xE0 SHL DUP2 MSTORE PUSH1 0x1 PUSH1 0x1 PUSH1 0xA0 SHL SUB SWAP1 SWAP2 AND PUSH1 0x4 DUP3 ADD MSTORE PUSH1 0x24 SWAP1 REVERT JUMPDEST PUSH1 0x1 EQ ISZERO PUSH2 0x224C JUMP JUMPDEST PUSH1 0xFF PUSH1 0x2 SLOAD AND PUSH2 0x228A JUMPI JUMP JUMPDEST PUSH1 0x40 MLOAD PUSH4 0xD93C0665 PUSH1 0xE0 SHL DUP2 MSTORE PUSH1 0x4 SWAP1 REVERT JUMPDEST PUSH1 0x2 PUSH1 0x1 SLOAD EQ PUSH2 0x22AD JUMPI PUSH1 0x2 PUSH1 0x1 SSTORE JUMP JUMPDEST PUSH1 0x40 MLOAD PUSH4 0x3EE5AEB5 PUSH1 0xE0 SHL DUP2 MSTORE PUSH1 0x4 SWAP1 REVERT JUMPDEST SWAP2 SWAP1 DUP3 ADD DUP1 SWAP3 GT PUSH2 0x1C31 JUMPI JUMP JUMPDEST SWAP2 SWAP1 DUP3 SUB SWAP2 DUP3 GT PUSH2 0x1C31 JUMPI JUMP JUMPDEST PUSH1 0x40 MLOAD PUSH4 0xA9059CBB PUSH1 0xE0 SHL PUSH1 0x20 DUP3 ADD MSTORE PUSH1 0x1 PUSH1 0x1 PUSH1 0xA0 SHL SUB SWAP1 SWAP3 AND PUSH1 0x24 DUP4 ADD MSTORE PUSH1 0x44 DUP1 DUP4 ADD SWAP4 SWAP1 SWAP4 MSTORE SWAP2 DUP2 MSTORE PUSH2 0x2220 SWAP2 PUSH2 0x221B DUP3 PUSH2 0x2134 JUMP JUMPDEST PUSH1 0x0 NOT DUP2 EQ PUSH2 0x1C31 JUMPI PUSH1 0x1 ADD SWAP1 JUMP JUMPDEST PUSH1 0x4 DUP3 LT ISZERO PUSH2 0x1C1B JUMPI MSTORE JUMP JUMPDEST ISZERO PUSH2 0x2334 JUMPI JUMP JUMPDEST PUSH1 0x40 MLOAD PUSH3 0x461BCD PUSH1 0xE5 SHL DUP2 MSTORE PUSH1 0x20 PUSH1 0x4 DUP3 ADD MSTORE PUSH1 0x1D PUSH1 0x24 DUP3 ADD MSTORE PUSH32 0x4665656450726F746F636F6C3A20696E76616C69642072657175657374000000 PUSH1 0x44 DUP3 ADD MSTORE PUSH1 0x64 SWAP1 REVERT JUMPDEST ISZERO PUSH2 0x2380 JUMPI JUMP JUMPDEST PUSH1 0x40 MLOAD PUSH3 0x461BCD PUSH1 0xE5 SHL DUP2 MSTORE PUSH1 0x20 PUSH1 0x4 DUP3 ADD MSTORE PUSH1 0x1F PUSH1 0x24 DUP3 ADD MSTORE PUSH32 0x4665656450726F746F636F6C3A206E6F74206163746976652066656564657200 PUSH1 0x44 DUP3 ADD MSTORE PUSH1 0x64 SWAP1 REVERT JUMPDEST ISZERO PUSH2 0x23CC JUMPI JUMP JUMPDEST PUSH1 0x64 PUSH1 0x40 MLOAD PUSH3 0x461BCD PUSH1 0xE5 SHL DUP2 MSTORE PUSH1 0x20 PUSH1 0x4 DUP3 ADD MSTORE PUSH1 0x20 PUSH1 0x24 DUP3 ADD MSTORE PUSH32 0x4665656450726F746F636F6C3A2066656564657220626C61636B6C6973746564 PUSH1 0x44 DUP3 ADD MSTORE REVERT JUMPDEST ISZERO PUSH2 0x2417 JUMPI JUMP JUMPDEST PUSH1 0x40 MLOAD PUSH3 0x461BCD PUSH1 0xE5 SHL DUP2 MSTORE PUSH1 0x20 PUSH1 0x4 DUP3 ADD MSTORE PUSH1 0x1F PUSH1 0x24 DUP3 ADD MSTORE PUSH32 0x4665656450726F746F636F6C3A20616C72656164792066696E616C697A656400 PUSH1 0x44 DUP3 ADD MSTORE PUSH1 0x64 SWAP1 REVERT JUMPDEST ISZERO PUSH2 0x2463 JUMPI JUMP JUMPDEST PUSH1 0x40 MLOAD PUSH3 0x461BCD PUSH1 0xE5 SHL DUP2 MSTORE PUSH1 0x20 PUSH1 0x4 DUP3 ADD MSTORE PUSH1 0x1F PUSH1 0x24 DUP3 ADD MSTORE PUSH32 0x4665656450726F746F636F6C3A20616C7265616479207375626D697474656400 PUSH1 0x44 DUP3 ADD MSTORE PUSH1 0x64 SWAP1 REVERT JUMPDEST SWAP4 SWAP3 SWAP2 DUP1 PUSH1 0x60 SWAP2 PUSH1 0x20 SWAP4 PUSH1 0x40 DUP9 MSTORE DUP2 PUSH1 0x40 DUP10 ADD MSTORE DUP4 DUP9 ADD CALLDATACOPY PUSH1 0x0 DUP3 DUP3 DUP9 ADD ADD MSTORE PUSH1 0x1F DUP1 NOT SWAP2 ADD AND DUP6 ADD ADD SWAP4 ADD MSTORE JUMP JUMPDEST PUSH8 0xFFFFFFFFFFFFFFFF DUP2 GT PUSH2 0x57A JUMPI PUSH1 0x5 SHL PUSH1 0x20 ADD SWAP1 JUMP JUMPDEST DUP1 MLOAD DUP3 LT ISZERO PUSH2 0x1D8B JUMPI PUSH1 0x20 SWAP2 PUSH1 0x5 SHL ADD ADD SWAP1 JUMP JUMPDEST PUSH1 0x0 SWAP2 DUP2 DUP4 MSTORE PUSH1 0x5 PUSH1 0x20 MSTORE PUSH1 0x40 DUP4 KECCAK256 PUSH1 0x8 DUP2 ADD SLOAD SWAP2 PUSH2 0x2525 PUSH1 0xFF DUP5 AND ISZERO PUSH2 0x2410 JUMP JUMPDEST DUP4 DUP6 MSTORE PUSH1 0x6 PUSH1 0x20 MSTORE PUSH1 0x40 DUP6 KECCAK256 SWAP3 DUP4 SLOAD SWAP5 DUP6 ISZERO PUSH2 0x290B JUMPI PUSH2 0x2544 DUP7 PUSH2 0x24D7 JUMP JUMPDEST SWAP5 PUSH2 0x2552 PUSH1 0x40 MLOAD SWAP7 DUP8 PUSH2 0x216C JUMP JUMPDEST DUP7 DUP7 MSTORE PUSH1 0x1F NOT PUSH2 0x2561 DUP9 PUSH2 0x24D7 JUMP JUMPDEST ADD CALLDATASIZE PUSH1 0x20 DUP9 ADD CALLDATACOPY DUP8 SWAP7 DUP9 JUMPDEST DUP2 DUP2 LT PUSH2 0x28A0 JUMPI POP POP DUP7 ISZERO PUSH2 0x285B JUMPI SWAP3 SWAP1 SWAP4 SWAP2 DUP8 SWAP5 JUMPDEST PUSH1 0x0 NOT DUP9 ADD DUP9 DUP2 GT PUSH2 0x2847 JUMPI DUP7 LT ISZERO PUSH2 0x264F JUMPI DUP9 JUMPDEST PUSH2 0x25A1 DUP8 DUP11 PUSH2 0x22CC JUMP JUMPDEST PUSH1 0x0 NOT DUP2 ADD SWAP1 DUP2 GT PUSH2 0x2622 JUMPI DUP2 LT ISZERO PUSH2 0x2636 JUMPI PUSH2 0x25BE DUP2 DUP10 PUSH2 0x24EF JUMP JUMPDEST MLOAD PUSH1 0x1 DUP3 ADD DUP3 GT PUSH2 0x2622 JUMPI SWAP1 PUSH2 0x25E6 SWAP2 PUSH2 0x25DB PUSH1 0x1 DUP4 ADD DUP12 PUSH2 0x24EF JUMP JUMPDEST MLOAD LT PUSH2 0x25EB JUMPI PUSH2 0x2312 JUMP JUMPDEST PUSH2 0x2597 JUMP JUMPDEST PUSH2 0x25F5 DUP2 DUP11 PUSH2 0x24EF JUMP JUMPDEST MLOAD PUSH2 0x2603 PUSH1 0x1 DUP4 ADD DUP12 PUSH2 0x24EF JUMP JUMPDEST MLOAD PUSH2 0x260E DUP4 DUP13 PUSH2 0x24EF JUMP JUMPDEST MSTORE PUSH2 0x261C PUSH1 0x1 DUP4 ADD DUP12 PUSH2 0x24EF JUMP JUMPDEST MSTORE PUSH2 0x2312 JUMP JUMPDEST PUSH4 0x4E487B71 PUSH1 0xE0 SHL DUP12 MSTORE PUSH1 0x11 PUSH1 0x4 MSTORE PUSH1 0x24 DUP12 REVERT JUMPDEST POP SWAP2 SWAP4 SWAP1 SWAP3 SWAP5 PUSH2 0x2645 SWAP1 PUSH2 0x2312 JUMP JUMPDEST SWAP5 SWAP3 SWAP1 SWAP4 SWAP2 PUSH2 0x2582 JUMP JUMPDEST SWAP6 SWAP1 SWAP7 SWAP5 POP SWAP7 SWAP2 SWAP1 SWAP7 PUSH1 0x1 SWAP5 DUP6 DUP1 DUP3 AND ISZERO PUSH1 0x0 EQ PUSH2 0x2830 JUMPI SHR PUSH1 0x0 NOT DUP2 ADD DUP2 DUP2 GT PUSH2 0x281C JUMPI DUP3 PUSH2 0x2690 DUP9 SWAP4 PUSH2 0x2689 PUSH2 0x2697 SWAP5 PUSH1 0x8 SWAP8 PUSH2 0x24EF JUMP JUMPDEST MLOAD SWAP3 PUSH2 0x24EF JUMP JUMPDEST MLOAD SWAP1 PUSH2 0x22BF JUMP JUMPDEST DUP2 SHR SWAP8 JUMPDEST DUP9 PUSH1 0x7 DUP6 ADD SSTORE PUSH1 0xFF NOT AND OR SWAP2 ADD SSTORE DUP4 DUP2 MSTORE PUSH1 0x5 PUSH1 0x20 MSTORE PUSH1 0x2 SWAP2 PUSH1 0xFF DUP4 PUSH1 0x40 DUP5 KECCAK256 ADD SLOAD PUSH1 0x8 SHR AND PUSH2 0x26CA DUP2 PUSH2 0x1E26 JUMP JUMPDEST DUP3 MSTORE PUSH1 0xA PUSH1 0x20 MSTORE PUSH1 0x40 DUP3 KECCAK256 SWAP3 PUSH1 0x40 MLOAD PUSH2 0x26E2 DUP2 PUSH2 0x20FB JUMP JUMPDEST PUSH1 0xFF DUP6 SLOAD DUP2 DUP2 AND DUP4 MSTORE PUSH1 0x8 SHR AND PUSH1 0x20 DUP3 ADD MSTORE DUP6 DUP6 ADD SLOAD PUSH1 0x40 DUP3 ADD MSTORE DUP2 DUP6 ADD SLOAD SWAP1 DUP2 PUSH1 0x60 DUP3 ADD MSTORE PUSH1 0x80 PUSH1 0x3 DUP1 SWAP8 ADD SLOAD SWAP2 ADD MSTORE DUP3 SLOAD SWAP1 DUP2 ISZERO PUSH2 0x2808 JUMPI DIV SWAP1 DUP4 DUP7 JUMPDEST PUSH2 0x275F JUMPI JUMPDEST POP POP POP POP POP POP POP PUSH32 0x4DA0F440B42EE815C5B14CBF1A5CB712C4FCF1EE583CA8C97BDBBDF4A1E7BA1F PUSH1 0x40 DUP1 MLOAD DUP5 DUP2 MSTORE TIMESTAMP PUSH1 0x20 DUP3 ADD MSTORE LOG2 SWAP1 JUMP JUMPDEST DUP4 SLOAD DUP2 LT ISZERO PUSH2 0x2803 JUMPI DUP1 PUSH1 0xFF DUP8 PUSH2 0x2779 PUSH2 0x2786 SWAP5 DUP9 PUSH2 0x1DCF JUMP JUMPDEST POP ADD SLOAD AND PUSH2 0x278C JUMPI PUSH2 0x2312 JUMP JUMPDEST DUP7 PUSH2 0x2721 JUMP JUMPDEST PUSH2 0x2796 DUP2 DUP7 PUSH2 0x1DCF JUMP JUMPDEST POP SLOAD DUP8 SLOAD PUSH1 0x1 PUSH1 0x1 PUSH1 0xA0 SHL SUB SWAP2 DUP3 AND SWAP2 PUSH2 0x27B4 SWAP2 DUP8 SWAP2 DUP5 SWAP2 AND PUSH2 0x22D9 JUMP JUMPDEST DUP1 DUP8 MSTORE PUSH1 0x8 PUSH1 0x20 MSTORE DUP4 PUSH1 0x40 DUP9 KECCAK256 ADD PUSH2 0x27CC DUP2 SLOAD PUSH2 0x2312 JUMP JUMPDEST SWAP1 SSTORE DUP10 PUSH32 0x602AB809FA82D3A742A4F9A33CDD154988D8B0F578EE4DC91DE3DC412BF026B9 PUSH1 0x40 DUP1 MLOAD DUP9 DUP2 MSTORE TIMESTAMP PUSH1 0x20 DUP3 ADD MSTORE LOG3 PUSH2 0x2312 JUMP JUMPDEST PUSH2 0x2726 JUMP JUMPDEST PUSH4 0x4E487B71 PUSH1 0xE0 SHL DUP6 MSTORE PUSH1 0x12 PUSH1 0x4 MSTORE PUSH1 0x24 DUP6 REVERT JUMPDEST PUSH4 0x4E487B71 PUSH1 0xE0 SHL DUP6 MSTORE PUSH1 0x11 PUSH1 0x4 MSTORE PUSH1 0x24 DUP6 REVERT JUMPDEST SWAP1 PUSH1 0x8 SWAP3 PUSH2 0x2840 SWAP2 DUP4 SHR SWAP1 PUSH2 0x24EF JUMP JUMPDEST MLOAD SWAP8 PUSH2 0x269B JUMP JUMPDEST PUSH4 0x4E487B71 PUSH1 0xE0 SHL DUP11 MSTORE PUSH1 0x11 PUSH1 0x4 MSTORE PUSH1 0x24 DUP11 REVERT JUMPDEST PUSH1 0x40 MLOAD PUSH3 0x461BCD PUSH1 0xE5 SHL DUP2 MSTORE PUSH1 0x20 PUSH1 0x4 DUP3 ADD MSTORE PUSH1 0x1D PUSH1 0x24 DUP3 ADD MSTORE PUSH32 0x4665656450726F746F636F6C3A206E6F2076616C696420707269636573000000 PUSH1 0x44 DUP3 ADD MSTORE PUSH1 0x64 SWAP1 REVERT JUMPDEST PUSH1 0xFF PUSH1 0x3 PUSH2 0x28AE DUP4 DUP7 PUSH2 0x1DCF JUMP JUMPDEST POP ADD SLOAD AND DUP1 PUSH2 0x28F4 JUMPI JUMPDEST PUSH2 0x28CB JUMPI JUMPDEST PUSH2 0x28C6 SWAP1 PUSH2 0x2312 JUMP JUMPDEST PUSH2 0x256C JUMP JUMPDEST SWAP8 PUSH2 0x28EC PUSH2 0x28C6 SWAP2 PUSH1 0x1 PUSH2 0x28DF DUP13 DUP8 PUSH2 0x1DCF JUMP JUMPDEST POP ADD SLOAD PUSH2 0x261C DUP3 DUP13 PUSH2 0x24EF JUMP JUMPDEST SWAP9 SWAP1 POP PUSH2 0x28BD JUMP JUMPDEST POP PUSH1 0x1 PUSH2 0x2901 DUP3 DUP6 PUSH2 0x1DCF JUMP JUMPDEST POP ADD SLOAD ISZERO ISZERO PUSH2 0x28B8 JUMP JUMPDEST PUSH1 0x40 MLOAD PUSH3 0x461BCD PUSH1 0xE5 SHL DUP2 MSTORE PUSH1 0x20 PUSH1 0x4 DUP3 ADD MSTORE PUSH1 0x1C PUSH1 0x24 DUP3 ADD MSTORE PUSH32 0x4665656450726F746F636F6C3A206E6F207375626D697373696F6E7300000000 PUSH1 0x44 DUP3 ADD MSTORE PUSH1 0x64 SWAP1 REVERT INVALID LOG2 PUSH5 0x6970667358 0x22 SLT KECCAK256 JUMPI 0xAB EXTCODEHASH MOD LOG3 PUSH15 0x7C1D142D92FE81CD16A5A3A2E74F6F 0xC4 CALLDATASIZE SSTORE PUSH14 0x8675C41DADC32C64736F6C634300 ADDMOD EQ STOP CALLER 0x2F DUP8 DUP9 GT PUSH31 0x7EFF1D82E926EC794901D17C78024A50270940304540A733656F0D00000000 "},"methodIdentifiers":{"DEFAULT_ADMIN_ROLE()":"a217fddf","FEED_OPERATOR_ROLE()":"2f0165ca","PROTOCOL_ROLE()":"02768de4","SENIOR_FEEDER_ROLE()":"8ec9f038","addStake(uint256)":"eb4f16b5","blacklistFeeder(address,string)":"2f0e6ca5","config()":"79502c55","createFeedRequest(uint256,uint8,uint8)":"04b86cb3","feedRequests(uint256)":"3bf5e3a9","feederList(uint256)":"121c604b","feeders(address)":"0aa31661","finalizeFeed(uint256)":"82ae8f01","getFeedFee(uint8)":"e5695991","getFeedRequest(uint256)":"db18c189","getFeeder(address)":"9ba7646c","getFeederCount()":"ec5bfc6c","getOrderFeedRequests(uint256)":"f608463a","getRoleAdmin(bytes32)":"248a9ca3","getSubmissions(uint256)":"16c53ced","grantProtocolRole(address)":"c7c7b02f","grantRole(bytes32,address)":"2f2ff15d","grantSeniorFeederRole(address)":"46f53d1e","hasRole(bytes32,address)":"91d14854","hasSubmitted(uint256,address)":"a57d3806","nextRequestId()":"6a84a985","orderFeedRequests(uint256,uint256)":"75136ddc","pause()":"8456cb59","paused()":"5c975abb","registerFeeder(uint256)":"eb7bb5a7","rejectFeed(uint256,string)":"46b62703","renounceRole(bytes32,address)":"36568abe","requestSubmissions(uint256,uint256)":"15450ace","revokeRole(bytes32,address)":"d547741f","setConfig(address)":"20e3dbd4","submitFeed(uint256,uint256)":"3fe1ddd2","supportsInterface(bytes4)":"01ffc9a7","tierConfigs(uint8)":"9da9db2a","unpause()":"3f4ba83a","usdt()":"2f48ab7d","withdrawPlatformFees(address)":"ec3889b5","withdrawStake(uint256)":"25d5971f"}}}}}