{"contracts/seat/SeatManager.sol":{"SeatManager":{"abi":[{"inputs":[{"internalType":"address","name":"_config","type":"address"},{"internalType":"address","name":"_usdt","type":"address"},{"internalType":"address","name":"_nstToken","type":"address"},{"internalType":"address","name":"_admin","type":"address"}],"stateMutability":"nonpayable","type":"constructor"},{"inputs":[],"name":"AccessControlBadConfirmation","type":"error"},{"inputs":[{"internalType":"address","name":"account","type":"address"},{"internalType":"bytes32","name":"neededRole","type":"bytes32"}],"name":"AccessControlUnauthorizedAccount","type":"error"},{"inputs":[],"name":"EnforcedPause","type":"error"},{"inputs":[],"name":"ExpectedPause","type":"error"},{"inputs":[],"name":"ReentrancyGuardReentrantCall","type":"error"},{"inputs":[{"internalType":"address","name":"token","type":"address"}],"name":"SafeERC20FailedOperation","type":"error"},{"anonymous":false,"inputs":[{"indexed":true,"internalType":"address","name":"owner","type":"address"},{"indexed":false,"internalType":"uint256","name":"oldAmount","type":"uint256"},{"indexed":false,"internalType":"uint256","name":"newAmount","type":"uint256"},{"indexed":false,"internalType":"uint256","name":"timestamp","type":"uint256"}],"name":"DepositUpdated","type":"event"},{"anonymous":false,"inputs":[{"indexed":true,"internalType":"address","name":"owner","type":"address"},{"indexed":false,"internalType":"uint256","name":"oldExposure","type":"uint256"},{"indexed":false,"internalType":"uint256","name":"newExposure","type":"uint256"},{"indexed":false,"internalType":"bool","name":"isIncrease","type":"bool"},{"indexed":false,"internalType":"uint256","name":"timestamp","type":"uint256"}],"name":"ExposureUpdated","type":"event"},{"anonymous":false,"inputs":[{"indexed":true,"internalType":"address","name":"owner","type":"address"},{"indexed":false,"internalType":"uint256","name":"amount","type":"uint256"},{"indexed":false,"internalType":"uint256","name":"timestamp","type":"uint256"}],"name":"NSTStaked","type":"event"},{"anonymous":false,"inputs":[{"indexed":true,"internalType":"address","name":"owner","type":"address"},{"indexed":false,"internalType":"uint256","name":"amount","type":"uint256"},{"indexed":false,"internalType":"uint256","name":"timestamp","type":"uint256"}],"name":"NSTUnstaked","type":"event"},{"anonymous":false,"inputs":[{"indexed":false,"internalType":"address","name":"account","type":"address"}],"name":"Paused","type":"event"},{"anonymous":false,"inputs":[{"indexed":true,"internalType":"bytes32","name":"role","type":"bytes32"},{"indexed":true,"internalType":"bytes32","name":"previousAdminRole","type":"bytes32"},{"indexed":true,"internalType":"bytes32","name":"newAdminRole","type":"bytes32"}],"name":"RoleAdminChanged","type":"event"},{"anonymous":false,"inputs":[{"indexed":true,"internalType":"bytes32","name":"role","type":"bytes32"},{"indexed":true,"internalType":"address","name":"account","type":"address"},{"indexed":true,"internalType":"address","name":"sender","type":"address"}],"name":"RoleGranted","type":"event"},{"anonymous":false,"inputs":[{"indexed":true,"internalType":"bytes32","name":"role","type":"bytes32"},{"indexed":true,"internalType":"address","name":"account","type":"address"},{"indexed":true,"internalType":"address","name":"sender","type":"address"}],"name":"RoleRevoked","type":"event"},{"anonymous":false,"inputs":[{"indexed":true,"internalType":"address","name":"owner","type":"address"},{"indexed":false,"internalType":"string","name":"reason","type":"string"},{"indexed":false,"internalType":"uint256","name":"timestamp","type":"uint256"}],"name":"SeatDeactivated","type":"event"},{"anonymous":false,"inputs":[{"indexed":true,"internalType":"address","name":"owner","type":"address"},{"indexed":false,"internalType":"uint256","name":"depositAmount","type":"uint256"},{"indexed":false,"internalType":"uint256","name":"maxExposure","type":"uint256"},{"indexed":false,"internalType":"uint256","name":"timestamp","type":"uint256"}],"name":"SeatParamsUpdated","type":"event"},{"anonymous":false,"inputs":[{"indexed":true,"internalType":"address","name":"owner","type":"address"},{"indexed":false,"internalType":"uint256","name":"timestamp","type":"uint256"}],"name":"SeatReactivated","type":"event"},{"anonymous":false,"inputs":[{"indexed":true,"internalType":"address","name":"owner","type":"address"},{"indexed":false,"internalType":"uint256","name":"depositAmount","type":"uint256"},{"indexed":false,"internalType":"uint256","name":"maxExposure","type":"uint256"},{"indexed":false,"internalType":"uint256","name":"timestamp","type":"uint256"}],"name":"SeatRegistered","type":"event"},{"anonymous":false,"inputs":[{"indexed":false,"internalType":"address","name":"account","type":"address"}],"name":"Unpaused","type":"event"},{"inputs":[],"name":"DEFAULT_ADMIN_ROLE","outputs":[{"internalType":"bytes32","name":"","type":"bytes32"}],"stateMutability":"view","type":"function"},{"inputs":[],"name":"OPTIONS_CORE_ROLE","outputs":[{"internalType":"bytes32","name":"","type":"bytes32"}],"stateMutability":"view","type":"function"},{"inputs":[],"name":"SEAT_OPERATOR_ROLE","outputs":[{"internalType":"bytes32","name":"","type":"bytes32"}],"stateMutability":"view","type":"function"},{"inputs":[{"internalType":"uint256","name":"amount","type":"uint256"}],"name":"addDeposit","outputs":[],"stateMutability":"nonpayable","type":"function"},{"inputs":[{"internalType":"address","name":"seller","type":"address"},{"internalType":"uint256","name":"notional","type":"uint256"}],"name":"canTakeOrder","outputs":[{"internalType":"bool","name":"","type":"bool"}],"stateMutability":"view","type":"function"},{"inputs":[],"name":"config","outputs":[{"internalType":"contract Config","name":"","type":"address"}],"stateMutability":"view","type":"function"},{"inputs":[{"internalType":"address","name":"owner","type":"address"},{"internalType":"string","name":"reason","type":"string"}],"name":"deactivateSeat","outputs":[],"stateMutability":"nonpayable","type":"function"},{"inputs":[],"name":"getAllSeatOwners","outputs":[{"internalType":"address[]","name":"","type":"address[]"}],"stateMutability":"view","type":"function"},{"inputs":[{"internalType":"bytes32","name":"role","type":"bytes32"}],"name":"getRoleAdmin","outputs":[{"internalType":"bytes32","name":"","type":"bytes32"}],"stateMutability":"view","type":"function"},{"inputs":[{"internalType":"address","name":"owner","type":"address"}],"name":"getSeat","outputs":[{"components":[{"internalType":"address","name":"owner","type":"address"},{"internalType":"uint256","name":"depositAmount","type":"uint256"},{"internalType":"uint256","name":"nstStaked","type":"uint256"},{"internalType":"uint256","name":"stakeStartTime","type":"uint256"},{"internalType":"uint256","name":"currentExposure","type":"uint256"},{"internalType":"uint256","name":"maxExposure","type":"uint256"},{"internalType":"bool","name":"isActive","type":"bool"}],"internalType":"struct Seat","name":"","type":"tuple"}],"stateMutability":"view","type":"function"},{"inputs":[],"name":"getSeatCount","outputs":[{"internalType":"uint256","name":"","type":"uint256"}],"stateMutability":"view","type":"function"},{"inputs":[{"internalType":"address","name":"_optionsCore","type":"address"}],"name":"grantOptionsCoreRole","outputs":[],"stateMutability":"nonpayable","type":"function"},{"inputs":[{"internalType":"bytes32","name":"role","type":"bytes32"},{"internalType":"address","name":"account","type":"address"}],"name":"grantRole","outputs":[],"stateMutability":"nonpayable","type":"function"},{"inputs":[{"internalType":"bytes32","name":"role","type":"bytes32"},{"internalType":"address","name":"account","type":"address"}],"name":"hasRole","outputs":[{"internalType":"bool","name":"","type":"bool"}],"stateMutability":"view","type":"function"},{"inputs":[{"internalType":"address","name":"seller","type":"address"}],"name":"isValidSeat","outputs":[{"internalType":"bool","name":"","type":"bool"}],"stateMutability":"view","type":"function"},{"inputs":[],"name":"nstToken","outputs":[{"internalType":"contract IERC20","name":"","type":"address"}],"stateMutability":"view","type":"function"},{"inputs":[],"name":"pause","outputs":[],"stateMutability":"nonpayable","type":"function"},{"inputs":[],"name":"paused","outputs":[{"internalType":"bool","name":"","type":"bool"}],"stateMutability":"view","type":"function"},{"inputs":[{"internalType":"address","name":"owner","type":"address"}],"name":"reactivateSeat","outputs":[],"stateMutability":"nonpayable","type":"function"},{"inputs":[{"internalType":"uint256","name":"depositAmount","type":"uint256"}],"name":"registerSeat","outputs":[],"stateMutability":"nonpayable","type":"function"},{"inputs":[{"internalType":"bytes32","name":"role","type":"bytes32"},{"internalType":"address","name":"callerConfirmation","type":"address"}],"name":"renounceRole","outputs":[],"stateMutability":"nonpayable","type":"function"},{"inputs":[{"internalType":"bytes32","name":"role","type":"bytes32"},{"internalType":"address","name":"account","type":"address"}],"name":"revokeRole","outputs":[],"stateMutability":"nonpayable","type":"function"},{"inputs":[{"internalType":"uint256","name":"","type":"uint256"}],"name":"seatOwners","outputs":[{"internalType":"address","name":"","type":"address"}],"stateMutability":"view","type":"function"},{"inputs":[{"internalType":"address","name":"","type":"address"}],"name":"seats","outputs":[{"internalType":"address","name":"owner","type":"address"},{"internalType":"uint256","name":"depositAmount","type":"uint256"},{"internalType":"uint256","name":"nstStaked","type":"uint256"},{"internalType":"uint256","name":"stakeStartTime","type":"uint256"},{"internalType":"uint256","name":"currentExposure","type":"uint256"},{"internalType":"uint256","name":"maxExposure","type":"uint256"},{"internalType":"bool","name":"isActive","type":"bool"}],"stateMutability":"view","type":"function"},{"inputs":[{"internalType":"address","name":"_config","type":"address"}],"name":"setConfig","outputs":[],"stateMutability":"nonpayable","type":"function"},{"inputs":[{"internalType":"address","name":"_nstToken","type":"address"}],"name":"setNSTToken","outputs":[],"stateMutability":"nonpayable","type":"function"},{"inputs":[{"internalType":"address","name":"seller","type":"address"},{"internalType":"uint256","name":"depositAmount","type":"uint256"},{"internalType":"uint256","name":"maxExposure","type":"uint256"}],"name":"setSeatParams","outputs":[],"stateMutability":"nonpayable","type":"function"},{"inputs":[{"internalType":"uint256","name":"amount","type":"uint256"}],"name":"stakeNST","outputs":[],"stateMutability":"nonpayable","type":"function"},{"inputs":[{"internalType":"bytes4","name":"interfaceId","type":"bytes4"}],"name":"supportsInterface","outputs":[{"internalType":"bool","name":"","type":"bool"}],"stateMutability":"view","type":"function"},{"inputs":[],"name":"unpause","outputs":[],"stateMutability":"nonpayable","type":"function"},{"inputs":[{"internalType":"uint256","name":"amount","type":"uint256"}],"name":"unstakeNST","outputs":[],"stateMutability":"nonpayable","type":"function"},{"inputs":[{"internalType":"address","name":"seller","type":"address"},{"internalType":"uint256","name":"notional","type":"uint256"},{"internalType":"bool","name":"isAdd","type":"bool"}],"name":"updateExposure","outputs":[],"stateMutability":"nonpayable","type":"function"},{"inputs":[],"name":"usdt","outputs":[{"internalType":"contract IERC20","name":"","type":"address"}],"stateMutability":"view","type":"function"},{"inputs":[{"internalType":"uint256","name":"amount","type":"uint256"}],"name":"withdrawDeposit","outputs":[],"stateMutability":"nonpayable","type":"function"}],"evm":{"bytecode":{"linkReferences":{},"object":"608034620000f857601f62001cc238819003918201601f19168301916001600160401b03831184841017620000fd57808492608094604052833981010312620000f8578062000052620000e79262000113565b90620000616020820162000113565b906200007e6060620000766040840162000113565b920162000113565b6001805560028054610100600160a81b03191660089590951b610100600160a81b031694909417909355600380546001600160a01b03199081166001600160a01b03948516179091556004805490911691909216179055620000e08162000128565b50620001a8565b50604051611a5790816200024b8239f35b600080fd5b634e487b7160e01b600052604160045260246000fd5b51906001600160a01b0382168203620000f857565b6001600160a01b031660008181527fad3228b676f7d3cd4284a5443f17f1962b36e491b30a40b2405849e597ba5fb5602052604081205490919060ff16620001a457818052816020526040822081835260205260408220600160ff19825416179055339160008051602062001ca28339815191528180a4600190565b5090565b6001600160a01b031660008181527f4ebdac00daf295a5d765f69bccf0322893c3dc0294b39c4fadc8afef7a3f208f60205260408120549091907f8eb143d0a8e8306e31d16fd3549de0732d22d2bd95a7f191b45e7c622d95a7779060ff166200024557808352826020526040832082845260205260408320600160ff1982541617905560008051602062001ca2833981519152339380a4600190565b50509056fe608060408181526004918236101561001657600080fd5b600092833560e01c91826301ffc9a71461140857508163077145c5146113c757816317d1e3ea146113a857816320e3dbd41461135e578163248a9ca3146113345781632f0332c01461121c5781632f2ff15d146111f25781632f48ab7d146111c957816333289a46146110ab57816336568abe1461106557816337cbdedf14610f925781633f4ba83a14610f285781635c975abb14610f045781635cf6a72c14610ec357816368977f2114610d99578163727ca62614610ca85781637577e9ff14610c50578163758c3fe914610b3657816376f215f31461091f57816379502c55146108f2578163797560fc146108a25781638456cb59146108475781638b63fd4c1461081f5781638cdbb6181461077157816391d148541461072b57816399b24f5e146106bf578163a217fddf146106a4578163a2558ddd14610624578163a6f1fd5114610553578163b492a97f1461052a578163b4c07100146102fc578163c3fdedc214610209578163d547741f146101c6575063e84afc541461019b57600080fd5b346101c257816003193601126101c257602090516000805160206119e28339815191528152f35b5080fd5b9190503461020557806003193601126102055761020191356101fc60016101eb611476565b938387528660205286200154611531565b611670565b5080f35b8280fd5b8284346102f957806003193601126102f957815180916006549384835260208093018095600684527ff652222313e28459528d920b65115c16c04f3efc82aaedc97be59f3f377c0d3f90845b868282106102dc5750505050849003601f01601f191684019567ffffffffffffffff8711858810176102c9575085815282865292518583018190528594938501939290915b8281106102a957505050500390f35b83516001600160a01b03168552869550938101939281019260010161029a565b634e487b7160e01b835260419052602482fd5b83546001600160a01b031685529093019260019283019201610255565b80fd5b919050346102055760603660031901126102055761031861145b565b91602435916044359283151592838503610526576000805160206119e28339815191528752602091878352838820338952835260ff8489205416156104d5576001600160a01b039687168089526005845284892054909761037b91161515611873565b86885260058352838820828101928354976000146104445783549160056103a28585611916565b910154106103f75750916103dd60809694927f2e981c21d6fcd0f37afc8e5af9d65c58d9f1ff5bf2cf1721d2b0c9ad9f16005d989694611916565b81555b54908251948552840152820152426060820152a280f35b855162461bcd60e51b8152908101859052602160248201527f536561744d616e616765723a2065786365656473206d6178206578706f7375726044820152606560f81b6064820152608490fd5b9050818710610487575091859391610480608096947f2e981c21d6fcd0f37afc8e5af9d65c58d9f1ff5bf2cf1721d2b0c9ad9f16005d98611984565b81556103e0565b845162461bcd60e51b8152908101849052602260248201527f536561744d616e616765723a20696e73756666696369656e74206578706f7375604482015261726560f01b6064820152608490fd5b50915162461bcd60e51b815291820152602660248201527f536561744d616e616765723a2063616c6c6572206973206e6f74204f7074696f6044820152656e73436f726560d01b6064820152608490fd5b8680fd5b5050346101c257816003193601126101c25760209051600080516020611a028339815191528152f35b9050346102055760203660031901126102055761061a7f149164e01ce812a249763ba5286c87a8cd326f17950b6c76a384b369f5fe12b39135926105956117f8565b61059d6117da565b3385526005602052808520546001600160a01b0391906105c09083161515611873565b6105cb8515156118be565b33865260056020526105f8600182882001956105f1818854956003541630903390611717565b8654611916565b8095555191829133954291846040919493926060820195825260208201520152565b0390a26001805580f35b9050346102055760203660031901126102055760e0926001600160a01b039083908261064e61145b565b168152600560205220908154169260018201549260028301546003840154918401549260ff600660058701549601541695815197885260208801528601526060850152608084015260a0830152151560c0820152f35b5050346101c257816003193601126101c25751908152602090f35b9190503461020557806003193601126102055760209281906001600160a01b036106e761145b565b168152600585522060ff6006820154169283610708575b5050519015158152f35b60059192935061071e9060243590840154611916565b91015410159038806106fe565b9050346102055781600319360112610205578160209360ff9261074c611476565b903582528186528282206001600160a01b039091168252855220549151911615158152f35b5050346101c257602080600319360112610205577f96eea82a3c2e6ac7fe46bf626a45570b59c755b9f42589808ece13b0412f03fb906107af61145b565b92600080516020611a02833981519152855284825280852033865282526107db60ff828720541661181b565b6001600160a01b03938416808652600583528186205490946107ff91161515611873565b83855260058252808520600601805460ff1916600117905551428152a280f35b9050346102055782600319360112610205575490516001600160a01b03909116815260209150f35b5050346101c257816003193601126101c25760207f62e78cea01bee320cd4e420270b5ea74000d11b0c9f74754ebdbfc544b05a258916108856114d9565b61088d6117da565b600160ff19600254161760025551338152a180f35b5050346101c25760203660031901126101c257610201906108ed60016108c661145b565b926108cf6114d9565b6000805160206119e283398151915286528560205285200154611531565b611557565b5050346101c257816003193601126101c257600254905160089190911c6001600160a01b03168152602090f35b9190503461020557602080600319360112610b325782359261093f6117f8565b6109476117da565b33855260058252828520546001600160a01b0391908216610ae3578415610a925761097a85836003541630903390611717565b8260068551610988816116e5565b3381528883820189815288830182815260608401908382526080850192848452898c60a0880196808852600560c08a019b60018d5233835252209651166bffffffffffffffffffffffff60a01b8754161786555160018601555160028501555160038401555185830155516005820155019051151560ff801983541691161790556006549068010000000000000000821015610a7f575090610a328260018895940160065561148c565b819291549060031b9133831b921b1916179055825193845283015242908201527f5e9463d69fd55227173c4eba0e99a1cabba435cc6ef81372f4fa4d975679489560603392a26001805580f35b634e487b7160e01b875260419052602486fd5b835162461bcd60e51b8152908101839052602560248201527f536561744d616e616765723a206465706f736974206d75737420626520706f73604482015264697469766560d81b6064820152608490fd5b835162461bcd60e51b81529081018390526024808201527f536561744d616e616765723a207365617420616c726561647920726567697374604482015263195c995960e21b6064820152608490fd5b8380fd5b9190503461020557602036600319011261020557813591610b556117f8565b610b5d6117da565b3384526005602052818420546001600160a01b0390610b7f9082161515611873565b610b8a8415156118be565b815416908115610c0d5750907f107c03b60ffb6c7dbbd3adf2cbb5f248378fa8f0923ac3f7c7a63ac39673d25b913385526005602052610bd1848387209230903390611717565b610bea8460028301928354908115610c01575b50611916565b905580519283524260208401523392a26001805580f35b60034291015538610be4565b606490602084519162461bcd60e51b8352820152601e60248201527f536561744d616e616765723a204e535420746f6b656e206e6f742073657400006044820152fd5b5050346101c25760203660031901126101c2576020916001600160a01b039190819083610c7b61145b565b16815260058552209182541615159182610c99575b50519015158152f35b6006015460ff16915038610c90565b9190503461020557602036600319011261020557918260e093610cc961145b565b928060c08351610cd8816116e5565b82815282602082015282858201528260608201528260808201528260a0820152015260018060a01b03809416815260056020522090805192610d19846116e5565b8254169384845260018301549160208501928352600284015481860190815260038501549260608701938452850154936080870194855260c060ff600660058901549860a08b01998a5201541697019615158752825197885251602088015251908601525160608501525160808401525160a083015251151560c0820152f35b9190503461020557602036600319011261020557813591610db86117f8565b610dc06117da565b3384526005602052818420546001600160a01b0390610de29082161515611873565b3385526005602052828520600281018054868110610e70579287838693610e3c8a610e5098610e377f6871786ff7bab66049a85bf7c7cd7b433e92db6bdc9f357ee5ff18c7fc3aa9279c9b839a015415611939565b611984565b80915515610e65575b505033915416611991565b80519283524260208401523392a26001805580f35b600301558738610e45565b855162461bcd60e51b8152602081870152602760248201527f536561744d616e616765723a20696e73756666696369656e74207374616b656460448201526608185b5bdd5b9d60ca1b6064820152608490fd5b9050346102055760203660031901126102055735916006548310156102f95750610eee60209261148c565b905491519160018060a01b039160031b1c168152f35b5050346101c257816003193601126101c25760209060ff6002541690519015158152f35b905034610205578260031936011261020557610f426114d9565b6002549060ff821615610f84575060ff1916600255513381527f5db9ee0a495bf2e6ff9c91a7834c1ba4fdd244a5e8aa4e537bd38aeae4b073aa90602090a180f35b8251638dfc202b60e01b8152fd5b5050346101c25760603660031901126101c2577f097ac395515b3fb5c2557cdda86b85bfc57d61d7c146df5ddddd12f01e3d894c610fce61145b565b916024359061105f60443591600080516020611a0283398151915287528660205280872033885260205261100760ff828920541661181b565b6001600160a01b03958616808852600560205281882054909661102c91161515611873565b85875260056020528260058289208660018201550155519283924291846040919493926060820195825260208201520152565b0390a280f35b8383346101c257806003193601126101c25761107f611476565b90336001600160a01b0383160361109c5750610201919235611670565b5163334bd91960e11b81528390fd5b9050346102055760203660031901126102055780356110c86117f8565b6110d06117da565b3384526005602052828420546001600160a01b0391906110f39083161515611873565b3385526005602052600184862061110d8582015415611939565b019182549382851061117c57509161115c8261061a9461114f87957f149164e01ce812a249763ba5286c87a8cd326f17950b6c76a384b369f5fe12b398611984565b8455339060035416611991565b549351908152602081019390935242604084015233929081906060820190565b608490602087519162461bcd60e51b8352820152602160248201527f536561744d616e616765723a20696e73756666696369656e74206465706f73696044820152601d60fa1b6064820152fd5b5050346101c257816003193601126101c25760035490516001600160a01b039091168152602090f35b91905034610205578060031936011261020557610201913561121760016101eb611476565b6115f7565b9190503461020557806003193601126102055761123761145b565b9160243567ffffffffffffffff9182821161133057366023830112156113305781013591821161132c57366024838301011161132c577f5480752396ed47efc64c240de7dfc3ab13993487de821f0358efc5763b5ea2419282806024606094600080516020611a028339815191528a5289602052848a20338b526020526112c360ff868c20541661181b565b6001600160a01b03988916808b526005602052858b205490996112e891161515611873565b888a5260056020526006858b200160ff198154169055845196858896875286015201848401378181018301879052426020830152601f01601f19168101030190a280f35b8480fd5b8580fd5b90503461020557602036600319011261020557816020936001923581528085522001549051908152f35b83346102f95760203660031901126102f95761137861145b565b6113806114d9565b60028054610100600160a81b03191660089290921b610100600160a81b031691909117905580f35b5050346101c257816003193601126101c2576020906006549051908152f35b8390346101c25760203660031901126101c2576113e261145b565b6113ea6114d9565b81546001600160a01b0319166001600160a01b039190911617905580f35b849134610205576020366003190112610205573563ffffffff60e01b81168091036102055760209250637965db0b60e01b811490811561144a575b5015158152f35b6301ffc9a760e01b14905083611443565b600435906001600160a01b038216820361147157565b600080fd5b602435906001600160a01b038216820361147157565b6006548110156114c35760066000527ff652222313e28459528d920b65115c16c04f3efc82aaedc97be59f3f377c0d3f0190600090565b634e487b7160e01b600052603260045260246000fd5b3360009081527fad3228b676f7d3cd4284a5443f17f1962b36e491b30a40b2405849e597ba5fb5602052604081205460ff16156115135750565b6044906040519063e2517d3f60e01b82523360048301526024820152fd5b80600052600060205260406000203360005260205260ff60406000205416156115135750565b6001600160a01b031660008181527f26b007cf884d53a6459f24f6c265bac21cbc05e4ed38a5c97118f37730d9b34460205260408120549091906000805160206119e28339815191529060ff166115f257808352826020526040832082845260205260408320600160ff198254161790557f2f8788117e7eff1d82e926ec794901d17c78024a50270940304540a733656f0d339380a4600190565b505090565b9060009180835282602052604083209160018060a01b03169182845260205260ff604084205416156000146115f257808352826020526040832082845260205260408320600160ff198254161790557f2f8788117e7eff1d82e926ec794901d17c78024a50270940304540a733656f0d339380a4600190565b9060009180835282602052604083209160018060a01b03169182845260205260ff6040842054166000146115f25780835282602052604083208284526020526040832060ff1981541690557ff6391f5c32d9c69d2a47ea670b442974b53935d1edc7fd64eb21e047a839171b339380a4600190565b60e0810190811067ffffffffffffffff82111761170157604052565b634e487b7160e01b600052604160045260246000fd5b6040516323b872dd60e01b60208201526001600160a01b03928316602482015292909116604483015260648083019390935291815260a081019181831067ffffffffffffffff8411176117015761177092604052611772565b565b906000602091828151910182855af1156117ce576000513d6117c557506001600160a01b0381163b155b6117a35750565b604051635274afe760e01b81526001600160a01b039091166004820152602490fd5b6001141561179c565b6040513d6000823e3d90fd5b60ff600254166117e657565b60405163d93c066560e01b8152600490fd5b600260015414611809576002600155565b604051633ee5aeb560e01b8152600490fd5b1561182257565b60405162461bcd60e51b815260206004820152602360248201527f536561744d616e616765723a2063616c6c6572206973206e6f74206f706572616044820152623a37b960e91b6064820152608490fd5b1561187a57565b606460405162461bcd60e51b815260206004820152602060248201527f536561744d616e616765723a2073656174206e6f7420726567697374657265646044820152fd5b156118c557565b60405162461bcd60e51b8152602060048201526024808201527f536561744d616e616765723a20616d6f756e74206d75737420626520706f73696044820152637469766560e01b6064820152608490fd5b9190820180921161192357565b634e487b7160e01b600052601160045260246000fd5b1561194057565b606460405162461bcd60e51b815260206004820152602060248201527f536561744d616e616765723a2068617320616374697665206578706f737572656044820152fd5b9190820391821161192357565b60405163a9059cbb60e01b60208201526001600160a01b039092166024830152604480830193909352918152608081019167ffffffffffffffff831182841017611701576117709260405261177256fe05357ba9bfda25659080d4d90d2dbcf64c0526a676a9e00c9404e6e1c8690b448eb143d0a8e8306e31d16fd3549de0732d22d2bd95a7f191b45e7c622d95a777a2646970667358221220ecdb5bba4e99fb9b681dd7206da6bf53f22a3ed06a34898172e99b3e91e19cd464736f6c634300081400332f8788117e7eff1d82e926ec794901d17c78024a50270940304540a733656f0d","opcodes":"PUSH1 0x80 CALLVALUE PUSH3 0xF8 JUMPI PUSH1 0x1F PUSH3 0x1CC2 CODESIZE DUP2 SWAP1 SUB SWAP2 DUP3 ADD PUSH1 0x1F NOT AND DUP4 ADD SWAP2 PUSH1 0x1 PUSH1 0x1 PUSH1 0x40 SHL SUB DUP4 GT DUP5 DUP5 LT OR PUSH3 0xFD JUMPI DUP1 DUP5 SWAP3 PUSH1 0x80 SWAP5 PUSH1 0x40 MSTORE DUP4 CODECOPY DUP2 ADD SUB SLT PUSH3 0xF8 JUMPI DUP1 PUSH3 0x52 PUSH3 0xE7 SWAP3 PUSH3 0x113 JUMP JUMPDEST SWAP1 PUSH3 0x61 PUSH1 0x20 DUP3 ADD PUSH3 0x113 JUMP JUMPDEST SWAP1 PUSH3 0x7E PUSH1 0x60 PUSH3 0x76 PUSH1 0x40 DUP5 ADD PUSH3 0x113 JUMP JUMPDEST SWAP3 ADD PUSH3 0x113 JUMP JUMPDEST PUSH1 0x1 DUP1 SSTORE PUSH1 0x2 DUP1 SLOAD PUSH2 0x100 PUSH1 0x1 PUSH1 0xA8 SHL SUB NOT AND PUSH1 0x8 SWAP6 SWAP1 SWAP6 SHL PUSH2 0x100 PUSH1 0x1 PUSH1 0xA8 SHL SUB AND SWAP5 SWAP1 SWAP5 OR SWAP1 SWAP4 SSTORE PUSH1 0x3 DUP1 SLOAD PUSH1 0x1 PUSH1 0x1 PUSH1 0xA0 SHL SUB NOT SWAP1 DUP2 AND PUSH1 0x1 PUSH1 0x1 PUSH1 0xA0 SHL SUB SWAP5 DUP6 AND OR SWAP1 SWAP2 SSTORE PUSH1 0x4 DUP1 SLOAD SWAP1 SWAP2 AND SWAP2 SWAP1 SWAP3 AND OR SWAP1 SSTORE PUSH3 0xE0 DUP2 PUSH3 0x128 JUMP JUMPDEST POP PUSH3 0x1A8 JUMP JUMPDEST POP PUSH1 0x40 MLOAD PUSH2 0x1A57 SWAP1 DUP2 PUSH3 0x24B DUP3 CODECOPY RETURN JUMPDEST PUSH1 0x0 DUP1 REVERT JUMPDEST PUSH4 0x4E487B71 PUSH1 0xE0 SHL PUSH1 0x0 MSTORE PUSH1 0x41 PUSH1 0x4 MSTORE PUSH1 0x24 PUSH1 0x0 REVERT JUMPDEST MLOAD SWAP1 PUSH1 0x1 PUSH1 0x1 PUSH1 0xA0 SHL SUB DUP3 AND DUP3 SUB PUSH3 0xF8 JUMPI JUMP JUMPDEST PUSH1 0x1 PUSH1 0x1 PUSH1 0xA0 SHL SUB AND PUSH1 0x0 DUP2 DUP2 MSTORE PUSH32 0xAD3228B676F7D3CD4284A5443F17F1962B36E491B30A40B2405849E597BA5FB5 PUSH1 0x20 MSTORE PUSH1 0x40 DUP2 KECCAK256 SLOAD SWAP1 SWAP2 SWAP1 PUSH1 0xFF AND PUSH3 0x1A4 JUMPI DUP2 DUP1 MSTORE DUP2 PUSH1 0x20 MSTORE PUSH1 0x40 DUP3 KECCAK256 DUP2 DUP4 MSTORE PUSH1 0x20 MSTORE PUSH1 0x40 DUP3 KECCAK256 PUSH1 0x1 PUSH1 0xFF NOT DUP3 SLOAD AND OR SWAP1 SSTORE CALLER SWAP2 PUSH1 0x0 DUP1 MLOAD PUSH1 0x20 PUSH3 0x1CA2 DUP4 CODECOPY DUP2 MLOAD SWAP2 MSTORE DUP2 DUP1 LOG4 PUSH1 0x1 SWAP1 JUMP JUMPDEST POP SWAP1 JUMP JUMPDEST PUSH1 0x1 PUSH1 0x1 PUSH1 0xA0 SHL SUB AND PUSH1 0x0 DUP2 DUP2 MSTORE PUSH32 0x4EBDAC00DAF295A5D765F69BCCF0322893C3DC0294B39C4FADC8AFEF7A3F208F PUSH1 0x20 MSTORE PUSH1 0x40 DUP2 KECCAK256 SLOAD SWAP1 SWAP2 SWAP1 PUSH32 0x8EB143D0A8E8306E31D16FD3549DE0732D22D2BD95A7F191B45E7C622D95A777 SWAP1 PUSH1 0xFF AND PUSH3 0x245 JUMPI DUP1 DUP4 MSTORE DUP3 PUSH1 0x20 MSTORE PUSH1 0x40 DUP4 KECCAK256 DUP3 DUP5 MSTORE PUSH1 0x20 MSTORE PUSH1 0x40 DUP4 KECCAK256 PUSH1 0x1 PUSH1 0xFF NOT DUP3 SLOAD AND OR SWAP1 SSTORE PUSH1 0x0 DUP1 MLOAD PUSH1 0x20 PUSH3 0x1CA2 DUP4 CODECOPY DUP2 MLOAD SWAP2 MSTORE CALLER SWAP4 DUP1 LOG4 PUSH1 0x1 SWAP1 JUMP JUMPDEST POP POP SWAP1 JUMP INVALID PUSH1 0x80 PUSH1 0x40 DUP2 DUP2 MSTORE PUSH1 0x4 SWAP2 DUP3 CALLDATASIZE LT ISZERO PUSH2 0x16 JUMPI PUSH1 0x0 DUP1 REVERT JUMPDEST PUSH1 0x0 SWAP3 DUP4 CALLDATALOAD PUSH1 0xE0 SHR SWAP2 DUP3 PUSH4 0x1FFC9A7 EQ PUSH2 0x1408 JUMPI POP DUP2 PUSH4 0x77145C5 EQ PUSH2 0x13C7 JUMPI DUP2 PUSH4 0x17D1E3EA EQ PUSH2 0x13A8 JUMPI DUP2 PUSH4 0x20E3DBD4 EQ PUSH2 0x135E JUMPI DUP2 PUSH4 0x248A9CA3 EQ PUSH2 0x1334 JUMPI DUP2 PUSH4 0x2F0332C0 EQ PUSH2 0x121C JUMPI DUP2 PUSH4 0x2F2FF15D EQ PUSH2 0x11F2 JUMPI DUP2 PUSH4 0x2F48AB7D EQ PUSH2 0x11C9 JUMPI DUP2 PUSH4 0x33289A46 EQ PUSH2 0x10AB JUMPI DUP2 PUSH4 0x36568ABE EQ PUSH2 0x1065 JUMPI DUP2 PUSH4 0x37CBDEDF EQ PUSH2 0xF92 JUMPI DUP2 PUSH4 0x3F4BA83A EQ PUSH2 0xF28 JUMPI DUP2 PUSH4 0x5C975ABB EQ PUSH2 0xF04 JUMPI DUP2 PUSH4 0x5CF6A72C EQ PUSH2 0xEC3 JUMPI DUP2 PUSH4 0x68977F21 EQ PUSH2 0xD99 JUMPI DUP2 PUSH4 0x727CA626 EQ PUSH2 0xCA8 JUMPI DUP2 PUSH4 0x7577E9FF EQ PUSH2 0xC50 JUMPI DUP2 PUSH4 0x758C3FE9 EQ PUSH2 0xB36 JUMPI DUP2 PUSH4 0x76F215F3 EQ PUSH2 0x91F JUMPI DUP2 PUSH4 0x79502C55 EQ PUSH2 0x8F2 JUMPI DUP2 PUSH4 0x797560FC EQ PUSH2 0x8A2 JUMPI DUP2 PUSH4 0x8456CB59 EQ PUSH2 0x847 JUMPI DUP2 PUSH4 0x8B63FD4C EQ PUSH2 0x81F JUMPI DUP2 PUSH4 0x8CDBB618 EQ PUSH2 0x771 JUMPI DUP2 PUSH4 0x91D14854 EQ PUSH2 0x72B JUMPI DUP2 PUSH4 0x99B24F5E EQ PUSH2 0x6BF JUMPI DUP2 PUSH4 0xA217FDDF EQ PUSH2 0x6A4 JUMPI DUP2 PUSH4 0xA2558DDD EQ PUSH2 0x624 JUMPI DUP2 PUSH4 0xA6F1FD51 EQ PUSH2 0x553 JUMPI DUP2 PUSH4 0xB492A97F EQ PUSH2 0x52A JUMPI DUP2 PUSH4 0xB4C07100 EQ PUSH2 0x2FC JUMPI DUP2 PUSH4 0xC3FDEDC2 EQ PUSH2 0x209 JUMPI DUP2 PUSH4 0xD547741F EQ PUSH2 0x1C6 JUMPI POP PUSH4 0xE84AFC54 EQ PUSH2 0x19B JUMPI PUSH1 0x0 DUP1 REVERT JUMPDEST CALLVALUE PUSH2 0x1C2 JUMPI DUP2 PUSH1 0x3 NOT CALLDATASIZE ADD SLT PUSH2 0x1C2 JUMPI PUSH1 0x20 SWAP1 MLOAD PUSH1 0x0 DUP1 MLOAD PUSH1 0x20 PUSH2 0x19E2 DUP4 CODECOPY DUP2 MLOAD SWAP2 MSTORE DUP2 MSTORE RETURN JUMPDEST POP DUP1 REVERT JUMPDEST SWAP2 SWAP1 POP CALLVALUE PUSH2 0x205 JUMPI DUP1 PUSH1 0x3 NOT CALLDATASIZE ADD SLT PUSH2 0x205 JUMPI PUSH2 0x201 SWAP2 CALLDATALOAD PUSH2 0x1FC PUSH1 0x1 PUSH2 0x1EB PUSH2 0x1476 JUMP JUMPDEST SWAP4 DUP4 DUP8 MSTORE DUP7 PUSH1 0x20 MSTORE DUP7 KECCAK256 ADD SLOAD PUSH2 0x1531 JUMP JUMPDEST PUSH2 0x1670 JUMP JUMPDEST POP DUP1 RETURN JUMPDEST DUP3 DUP1 REVERT JUMPDEST DUP3 DUP5 CALLVALUE PUSH2 0x2F9 JUMPI DUP1 PUSH1 0x3 NOT CALLDATASIZE ADD SLT PUSH2 0x2F9 JUMPI DUP2 MLOAD DUP1 SWAP2 PUSH1 0x6 SLOAD SWAP4 DUP5 DUP4 MSTORE PUSH1 0x20 DUP1 SWAP4 ADD DUP1 SWAP6 PUSH1 0x6 DUP5 MSTORE PUSH32 0xF652222313E28459528D920B65115C16C04F3EFC82AAEDC97BE59F3F377C0D3F SWAP1 DUP5 JUMPDEST DUP7 DUP3 DUP3 LT PUSH2 0x2DC JUMPI POP POP POP POP DUP5 SWAP1 SUB PUSH1 0x1F ADD PUSH1 0x1F NOT AND DUP5 ADD SWAP6 PUSH8 0xFFFFFFFFFFFFFFFF DUP8 GT DUP6 DUP9 LT OR PUSH2 0x2C9 JUMPI POP DUP6 DUP2 MSTORE DUP3 DUP7 MSTORE SWAP3 MLOAD DUP6 DUP4 ADD DUP2 SWAP1 MSTORE DUP6 SWAP5 SWAP4 DUP6 ADD SWAP4 SWAP3 SWAP1 SWAP2 JUMPDEST DUP3 DUP2 LT PUSH2 0x2A9 JUMPI POP POP POP POP SUB SWAP1 RETURN JUMPDEST DUP4 MLOAD PUSH1 0x1 PUSH1 0x1 PUSH1 0xA0 SHL SUB AND DUP6 MSTORE DUP7 SWAP6 POP SWAP4 DUP2 ADD SWAP4 SWAP3 DUP2 ADD SWAP3 PUSH1 0x1 ADD PUSH2 0x29A JUMP JUMPDEST PUSH4 0x4E487B71 PUSH1 0xE0 SHL DUP4 MSTORE PUSH1 0x41 SWAP1 MSTORE PUSH1 0x24 DUP3 REVERT JUMPDEST DUP4 SLOAD PUSH1 0x1 PUSH1 0x1 PUSH1 0xA0 SHL SUB AND DUP6 MSTORE SWAP1 SWAP4 ADD SWAP3 PUSH1 0x1 SWAP3 DUP4 ADD SWAP3 ADD PUSH2 0x255 JUMP JUMPDEST DUP1 REVERT JUMPDEST SWAP2 SWAP1 POP CALLVALUE PUSH2 0x205 JUMPI PUSH1 0x60 CALLDATASIZE PUSH1 0x3 NOT ADD SLT PUSH2 0x205 JUMPI PUSH2 0x318 PUSH2 0x145B JUMP JUMPDEST SWAP2 PUSH1 0x24 CALLDATALOAD SWAP2 PUSH1 0x44 CALLDATALOAD SWAP3 DUP4 ISZERO ISZERO SWAP3 DUP4 DUP6 SUB PUSH2 0x526 JUMPI PUSH1 0x0 DUP1 MLOAD PUSH1 0x20 PUSH2 0x19E2 DUP4 CODECOPY DUP2 MLOAD SWAP2 MSTORE DUP8 MSTORE PUSH1 0x20 SWAP2 DUP8 DUP4 MSTORE DUP4 DUP9 KECCAK256 CALLER DUP10 MSTORE DUP4 MSTORE PUSH1 0xFF DUP5 DUP10 KECCAK256 SLOAD AND ISZERO PUSH2 0x4D5 JUMPI PUSH1 0x1 PUSH1 0x1 PUSH1 0xA0 SHL SUB SWAP7 DUP8 AND DUP1 DUP10 MSTORE PUSH1 0x5 DUP5 MSTORE DUP5 DUP10 KECCAK256 SLOAD SWAP1 SWAP8 PUSH2 0x37B SWAP2 AND ISZERO ISZERO PUSH2 0x1873 JUMP JUMPDEST DUP7 DUP9 MSTORE PUSH1 0x5 DUP4 MSTORE DUP4 DUP9 KECCAK256 DUP3 DUP2 ADD SWAP3 DUP4 SLOAD SWAP8 PUSH1 0x0 EQ PUSH2 0x444 JUMPI DUP4 SLOAD SWAP2 PUSH1 0x5 PUSH2 0x3A2 DUP6 DUP6 PUSH2 0x1916 JUMP JUMPDEST SWAP2 ADD SLOAD LT PUSH2 0x3F7 JUMPI POP SWAP2 PUSH2 0x3DD PUSH1 0x80 SWAP7 SWAP5 SWAP3 PUSH32 0x2E981C21D6FCD0F37AFC8E5AF9D65C58D9F1FF5BF2CF1721D2B0C9AD9F16005D SWAP9 SWAP7 SWAP5 PUSH2 0x1916 JUMP JUMPDEST DUP2 SSTORE JUMPDEST SLOAD SWAP1 DUP3 MLOAD SWAP5 DUP6 MSTORE DUP5 ADD MSTORE DUP3 ADD MSTORE TIMESTAMP PUSH1 0x60 DUP3 ADD MSTORE LOG2 DUP1 RETURN JUMPDEST DUP6 MLOAD PUSH3 0x461BCD PUSH1 0xE5 SHL DUP2 MSTORE SWAP1 DUP2 ADD DUP6 SWAP1 MSTORE PUSH1 0x21 PUSH1 0x24 DUP3 ADD MSTORE PUSH32 0x536561744D616E616765723A2065786365656473206D6178206578706F737572 PUSH1 0x44 DUP3 ADD MSTORE PUSH1 0x65 PUSH1 0xF8 SHL PUSH1 0x64 DUP3 ADD MSTORE PUSH1 0x84 SWAP1 REVERT JUMPDEST SWAP1 POP DUP2 DUP8 LT PUSH2 0x487 JUMPI POP SWAP2 DUP6 SWAP4 SWAP2 PUSH2 0x480 PUSH1 0x80 SWAP7 SWAP5 PUSH32 0x2E981C21D6FCD0F37AFC8E5AF9D65C58D9F1FF5BF2CF1721D2B0C9AD9F16005D SWAP9 PUSH2 0x1984 JUMP JUMPDEST DUP2 SSTORE PUSH2 0x3E0 JUMP JUMPDEST DUP5 MLOAD PUSH3 0x461BCD PUSH1 0xE5 SHL DUP2 MSTORE SWAP1 DUP2 ADD DUP5 SWAP1 MSTORE PUSH1 0x22 PUSH1 0x24 DUP3 ADD MSTORE PUSH32 0x536561744D616E616765723A20696E73756666696369656E74206578706F7375 PUSH1 0x44 DUP3 ADD MSTORE PUSH2 0x7265 PUSH1 0xF0 SHL PUSH1 0x64 DUP3 ADD MSTORE PUSH1 0x84 SWAP1 REVERT JUMPDEST POP SWAP2 MLOAD PUSH3 0x461BCD PUSH1 0xE5 SHL DUP2 MSTORE SWAP2 DUP3 ADD MSTORE PUSH1 0x26 PUSH1 0x24 DUP3 ADD MSTORE PUSH32 0x536561744D616E616765723A2063616C6C6572206973206E6F74204F7074696F PUSH1 0x44 DUP3 ADD MSTORE PUSH6 0x6E73436F7265 PUSH1 0xD0 SHL PUSH1 0x64 DUP3 ADD MSTORE PUSH1 0x84 SWAP1 REVERT JUMPDEST DUP7 DUP1 REVERT JUMPDEST POP POP CALLVALUE PUSH2 0x1C2 JUMPI DUP2 PUSH1 0x3 NOT CALLDATASIZE ADD SLT PUSH2 0x1C2 JUMPI PUSH1 0x20 SWAP1 MLOAD PUSH1 0x0 DUP1 MLOAD PUSH1 0x20 PUSH2 0x1A02 DUP4 CODECOPY DUP2 MLOAD SWAP2 MSTORE DUP2 MSTORE RETURN JUMPDEST SWAP1 POP CALLVALUE PUSH2 0x205 JUMPI PUSH1 0x20 CALLDATASIZE PUSH1 0x3 NOT ADD SLT PUSH2 0x205 JUMPI PUSH2 0x61A PUSH32 0x149164E01CE812A249763BA5286C87A8CD326F17950B6C76A384B369F5FE12B3 SWAP2 CALLDATALOAD SWAP3 PUSH2 0x595 PUSH2 0x17F8 JUMP JUMPDEST PUSH2 0x59D PUSH2 0x17DA JUMP JUMPDEST CALLER DUP6 MSTORE PUSH1 0x5 PUSH1 0x20 MSTORE DUP1 DUP6 KECCAK256 SLOAD PUSH1 0x1 PUSH1 0x1 PUSH1 0xA0 SHL SUB SWAP2 SWAP1 PUSH2 0x5C0 SWAP1 DUP4 AND ISZERO ISZERO PUSH2 0x1873 JUMP JUMPDEST PUSH2 0x5CB DUP6 ISZERO ISZERO PUSH2 0x18BE JUMP JUMPDEST CALLER DUP7 MSTORE PUSH1 0x5 PUSH1 0x20 MSTORE PUSH2 0x5F8 PUSH1 0x1 DUP3 DUP9 KECCAK256 ADD SWAP6 PUSH2 0x5F1 DUP2 DUP9 SLOAD SWAP6 PUSH1 0x3 SLOAD AND ADDRESS SWAP1 CALLER SWAP1 PUSH2 0x1717 JUMP JUMPDEST DUP7 SLOAD PUSH2 0x1916 JUMP JUMPDEST DUP1 SWAP6 SSTORE MLOAD SWAP2 DUP3 SWAP2 CALLER SWAP6 TIMESTAMP SWAP2 DUP5 PUSH1 0x40 SWAP2 SWAP5 SWAP4 SWAP3 PUSH1 0x60 DUP3 ADD SWAP6 DUP3 MSTORE PUSH1 0x20 DUP3 ADD MSTORE ADD MSTORE JUMP JUMPDEST SUB SWAP1 LOG2 PUSH1 0x1 DUP1 SSTORE DUP1 RETURN JUMPDEST SWAP1 POP CALLVALUE PUSH2 0x205 JUMPI PUSH1 0x20 CALLDATASIZE PUSH1 0x3 NOT ADD SLT PUSH2 0x205 JUMPI PUSH1 0xE0 SWAP3 PUSH1 0x1 PUSH1 0x1 PUSH1 0xA0 SHL SUB SWAP1 DUP4 SWAP1 DUP3 PUSH2 0x64E PUSH2 0x145B JUMP JUMPDEST AND DUP2 MSTORE PUSH1 0x5 PUSH1 0x20 MSTORE KECCAK256 SWAP1 DUP2 SLOAD AND SWAP3 PUSH1 0x1 DUP3 ADD SLOAD SWAP3 PUSH1 0x2 DUP4 ADD SLOAD PUSH1 0x3 DUP5 ADD SLOAD SWAP2 DUP5 ADD SLOAD SWAP3 PUSH1 0xFF PUSH1 0x6 PUSH1 0x5 DUP8 ADD SLOAD SWAP7 ADD SLOAD AND SWAP6 DUP2 MLOAD SWAP8 DUP9 MSTORE PUSH1 0x20 DUP9 ADD MSTORE DUP7 ADD MSTORE PUSH1 0x60 DUP6 ADD MSTORE PUSH1 0x80 DUP5 ADD MSTORE PUSH1 0xA0 DUP4 ADD MSTORE ISZERO ISZERO PUSH1 0xC0 DUP3 ADD MSTORE RETURN JUMPDEST POP POP CALLVALUE PUSH2 0x1C2 JUMPI DUP2 PUSH1 0x3 NOT CALLDATASIZE ADD SLT PUSH2 0x1C2 JUMPI MLOAD SWAP1 DUP2 MSTORE PUSH1 0x20 SWAP1 RETURN JUMPDEST SWAP2 SWAP1 POP CALLVALUE PUSH2 0x205 JUMPI DUP1 PUSH1 0x3 NOT CALLDATASIZE ADD SLT PUSH2 0x205 JUMPI PUSH1 0x20 SWAP3 DUP2 SWAP1 PUSH1 0x1 PUSH1 0x1 PUSH1 0xA0 SHL SUB PUSH2 0x6E7 PUSH2 0x145B JUMP JUMPDEST AND DUP2 MSTORE PUSH1 0x5 DUP6 MSTORE KECCAK256 PUSH1 0xFF PUSH1 0x6 DUP3 ADD SLOAD AND SWAP3 DUP4 PUSH2 0x708 JUMPI JUMPDEST POP POP MLOAD SWAP1 ISZERO ISZERO DUP2 MSTORE RETURN JUMPDEST PUSH1 0x5 SWAP2 SWAP3 SWAP4 POP PUSH2 0x71E SWAP1 PUSH1 0x24 CALLDATALOAD SWAP1 DUP5 ADD SLOAD PUSH2 0x1916 JUMP JUMPDEST SWAP2 ADD SLOAD LT ISZERO SWAP1 CODESIZE DUP1 PUSH2 0x6FE JUMP JUMPDEST SWAP1 POP CALLVALUE PUSH2 0x205 JUMPI DUP2 PUSH1 0x3 NOT CALLDATASIZE ADD SLT PUSH2 0x205 JUMPI DUP2 PUSH1 0x20 SWAP4 PUSH1 0xFF SWAP3 PUSH2 0x74C PUSH2 0x1476 JUMP JUMPDEST SWAP1 CALLDATALOAD DUP3 MSTORE DUP2 DUP7 MSTORE DUP3 DUP3 KECCAK256 PUSH1 0x1 PUSH1 0x1 PUSH1 0xA0 SHL SUB SWAP1 SWAP2 AND DUP3 MSTORE DUP6 MSTORE KECCAK256 SLOAD SWAP2 MLOAD SWAP2 AND ISZERO ISZERO DUP2 MSTORE RETURN JUMPDEST POP POP CALLVALUE PUSH2 0x1C2 JUMPI PUSH1 0x20 DUP1 PUSH1 0x3 NOT CALLDATASIZE ADD SLT PUSH2 0x205 JUMPI PUSH32 0x96EEA82A3C2E6AC7FE46BF626A45570B59C755B9F42589808ECE13B0412F03FB SWAP1 PUSH2 0x7AF PUSH2 0x145B JUMP JUMPDEST SWAP3 PUSH1 0x0 DUP1 MLOAD PUSH1 0x20 PUSH2 0x1A02 DUP4 CODECOPY DUP2 MLOAD SWAP2 MSTORE DUP6 MSTORE DUP5 DUP3 MSTORE DUP1 DUP6 KECCAK256 CALLER DUP7 MSTORE DUP3 MSTORE PUSH2 0x7DB PUSH1 0xFF DUP3 DUP8 KECCAK256 SLOAD AND PUSH2 0x181B JUMP JUMPDEST PUSH1 0x1 PUSH1 0x1 PUSH1 0xA0 SHL SUB SWAP4 DUP5 AND DUP1 DUP7 MSTORE PUSH1 0x5 DUP4 MSTORE DUP2 DUP7 KECCAK256 SLOAD SWAP1 SWAP5 PUSH2 0x7FF SWAP2 AND ISZERO ISZERO PUSH2 0x1873 JUMP JUMPDEST DUP4 DUP6 MSTORE PUSH1 0x5 DUP3 MSTORE DUP1 DUP6 KECCAK256 PUSH1 0x6 ADD DUP1 SLOAD PUSH1 0xFF NOT AND PUSH1 0x1 OR SWAP1 SSTORE MLOAD TIMESTAMP DUP2 MSTORE LOG2 DUP1 RETURN JUMPDEST SWAP1 POP CALLVALUE PUSH2 0x205 JUMPI DUP3 PUSH1 0x3 NOT CALLDATASIZE ADD SLT PUSH2 0x205 JUMPI SLOAD SWAP1 MLOAD PUSH1 0x1 PUSH1 0x1 PUSH1 0xA0 SHL SUB SWAP1 SWAP2 AND DUP2 MSTORE PUSH1 0x20 SWAP2 POP RETURN JUMPDEST POP POP CALLVALUE PUSH2 0x1C2 JUMPI DUP2 PUSH1 0x3 NOT CALLDATASIZE ADD SLT PUSH2 0x1C2 JUMPI PUSH1 0x20 PUSH32 0x62E78CEA01BEE320CD4E420270B5EA74000D11B0C9F74754EBDBFC544B05A258 SWAP2 PUSH2 0x885 PUSH2 0x14D9 JUMP JUMPDEST PUSH2 0x88D PUSH2 0x17DA JUMP JUMPDEST PUSH1 0x1 PUSH1 0xFF NOT PUSH1 0x2 SLOAD AND OR PUSH1 0x2 SSTORE MLOAD CALLER DUP2 MSTORE LOG1 DUP1 RETURN JUMPDEST POP POP CALLVALUE PUSH2 0x1C2 JUMPI PUSH1 0x20 CALLDATASIZE PUSH1 0x3 NOT ADD SLT PUSH2 0x1C2 JUMPI PUSH2 0x201 SWAP1 PUSH2 0x8ED PUSH1 0x1 PUSH2 0x8C6 PUSH2 0x145B JUMP JUMPDEST SWAP3 PUSH2 0x8CF PUSH2 0x14D9 JUMP JUMPDEST PUSH1 0x0 DUP1 MLOAD PUSH1 0x20 PUSH2 0x19E2 DUP4 CODECOPY DUP2 MLOAD SWAP2 MSTORE DUP7 MSTORE DUP6 PUSH1 0x20 MSTORE DUP6 KECCAK256 ADD SLOAD PUSH2 0x1531 JUMP JUMPDEST PUSH2 0x1557 JUMP JUMPDEST POP POP CALLVALUE PUSH2 0x1C2 JUMPI DUP2 PUSH1 0x3 NOT CALLDATASIZE ADD SLT PUSH2 0x1C2 JUMPI PUSH1 0x2 SLOAD SWAP1 MLOAD PUSH1 0x8 SWAP2 SWAP1 SWAP2 SHR PUSH1 0x1 PUSH1 0x1 PUSH1 0xA0 SHL SUB AND DUP2 MSTORE PUSH1 0x20 SWAP1 RETURN JUMPDEST SWAP2 SWAP1 POP CALLVALUE PUSH2 0x205 JUMPI PUSH1 0x20 DUP1 PUSH1 0x3 NOT CALLDATASIZE ADD SLT PUSH2 0xB32 JUMPI DUP3 CALLDATALOAD SWAP3 PUSH2 0x93F PUSH2 0x17F8 JUMP JUMPDEST PUSH2 0x947 PUSH2 0x17DA JUMP JUMPDEST CALLER DUP6 MSTORE PUSH1 0x5 DUP3 MSTORE DUP3 DUP6 KECCAK256 SLOAD PUSH1 0x1 PUSH1 0x1 PUSH1 0xA0 SHL SUB SWAP2 SWAP1 DUP3 AND PUSH2 0xAE3 JUMPI DUP5 ISZERO PUSH2 0xA92 JUMPI PUSH2 0x97A DUP6 DUP4 PUSH1 0x3 SLOAD AND ADDRESS SWAP1 CALLER SWAP1 PUSH2 0x1717 JUMP JUMPDEST DUP3 PUSH1 0x6 DUP6 MLOAD PUSH2 0x988 DUP2 PUSH2 0x16E5 JUMP JUMPDEST CALLER DUP2 MSTORE DUP9 DUP4 DUP3 ADD DUP10 DUP2 MSTORE DUP9 DUP4 ADD DUP3 DUP2 MSTORE PUSH1 0x60 DUP5 ADD SWAP1 DUP4 DUP3 MSTORE PUSH1 0x80 DUP6 ADD SWAP3 DUP5 DUP5 MSTORE DUP10 DUP13 PUSH1 0xA0 DUP9 ADD SWAP7 DUP1 DUP9 MSTORE PUSH1 0x5 PUSH1 0xC0 DUP11 ADD SWAP12 PUSH1 0x1 DUP14 MSTORE CALLER DUP4 MSTORE MSTORE KECCAK256 SWAP7 MLOAD AND PUSH12 0xFFFFFFFFFFFFFFFFFFFFFFFF PUSH1 0xA0 SHL DUP8 SLOAD AND OR DUP7 SSTORE MLOAD PUSH1 0x1 DUP7 ADD SSTORE MLOAD PUSH1 0x2 DUP6 ADD SSTORE MLOAD PUSH1 0x3 DUP5 ADD SSTORE MLOAD DUP6 DUP4 ADD SSTORE MLOAD PUSH1 0x5 DUP3 ADD SSTORE ADD SWAP1 MLOAD ISZERO ISZERO PUSH1 0xFF DUP1 NOT DUP4 SLOAD AND SWAP2 AND OR SWAP1 SSTORE PUSH1 0x6 SLOAD SWAP1 PUSH9 0x10000000000000000 DUP3 LT ISZERO PUSH2 0xA7F JUMPI POP SWAP1 PUSH2 0xA32 DUP3 PUSH1 0x1 DUP9 SWAP6 SWAP5 ADD PUSH1 0x6 SSTORE PUSH2 0x148C JUMP JUMPDEST DUP2 SWAP3 SWAP2 SLOAD SWAP1 PUSH1 0x3 SHL SWAP2 CALLER DUP4 SHL SWAP3 SHL NOT AND OR SWAP1 SSTORE DUP3 MLOAD SWAP4 DUP5 MSTORE DUP4 ADD MSTORE TIMESTAMP SWAP1 DUP3 ADD MSTORE PUSH32 0x5E9463D69FD55227173C4EBA0E99A1CABBA435CC6EF81372F4FA4D9756794895 PUSH1 0x60 CALLER SWAP3 LOG2 PUSH1 0x1 DUP1 SSTORE DUP1 RETURN JUMPDEST PUSH4 0x4E487B71 PUSH1 0xE0 SHL DUP8 MSTORE PUSH1 0x41 SWAP1 MSTORE PUSH1 0x24 DUP7 REVERT JUMPDEST DUP4 MLOAD PUSH3 0x461BCD PUSH1 0xE5 SHL DUP2 MSTORE SWAP1 DUP2 ADD DUP4 SWAP1 MSTORE PUSH1 0x25 PUSH1 0x24 DUP3 ADD MSTORE PUSH32 0x536561744D616E616765723A206465706F736974206D75737420626520706F73 PUSH1 0x44 DUP3 ADD MSTORE PUSH5 0x6974697665 PUSH1 0xD8 SHL PUSH1 0x64 DUP3 ADD MSTORE PUSH1 0x84 SWAP1 REVERT JUMPDEST DUP4 MLOAD PUSH3 0x461BCD PUSH1 0xE5 SHL DUP2 MSTORE SWAP1 DUP2 ADD DUP4 SWAP1 MSTORE PUSH1 0x24 DUP1 DUP3 ADD MSTORE PUSH32 0x536561744D616E616765723A207365617420616C726561647920726567697374 PUSH1 0x44 DUP3 ADD MSTORE PUSH4 0x195C9959 PUSH1 0xE2 SHL PUSH1 0x64 DUP3 ADD MSTORE PUSH1 0x84 SWAP1 REVERT JUMPDEST DUP4 DUP1 REVERT JUMPDEST SWAP2 SWAP1 POP CALLVALUE PUSH2 0x205 JUMPI PUSH1 0x20 CALLDATASIZE PUSH1 0x3 NOT ADD SLT PUSH2 0x205 JUMPI DUP2 CALLDATALOAD SWAP2 PUSH2 0xB55 PUSH2 0x17F8 JUMP JUMPDEST PUSH2 0xB5D PUSH2 0x17DA JUMP JUMPDEST CALLER DUP5 MSTORE PUSH1 0x5 PUSH1 0x20 MSTORE DUP2 DUP5 KECCAK256 SLOAD PUSH1 0x1 PUSH1 0x1 PUSH1 0xA0 SHL SUB SWAP1 PUSH2 0xB7F SWAP1 DUP3 AND ISZERO ISZERO PUSH2 0x1873 JUMP JUMPDEST PUSH2 0xB8A DUP5 ISZERO ISZERO PUSH2 0x18BE JUMP JUMPDEST DUP2 SLOAD AND SWAP1 DUP2 ISZERO PUSH2 0xC0D JUMPI POP SWAP1 PUSH32 0x107C03B60FFB6C7DBBD3ADF2CBB5F248378FA8F0923AC3F7C7A63AC39673D25B SWAP2 CALLER DUP6 MSTORE PUSH1 0x5 PUSH1 0x20 MSTORE PUSH2 0xBD1 DUP5 DUP4 DUP8 KECCAK256 SWAP3 ADDRESS SWAP1 CALLER SWAP1 PUSH2 0x1717 JUMP JUMPDEST PUSH2 0xBEA DUP5 PUSH1 0x2 DUP4 ADD SWAP3 DUP4 SLOAD SWAP1 DUP2 ISZERO PUSH2 0xC01 JUMPI JUMPDEST POP PUSH2 0x1916 JUMP JUMPDEST SWAP1 SSTORE DUP1 MLOAD SWAP3 DUP4 MSTORE TIMESTAMP PUSH1 0x20 DUP5 ADD MSTORE CALLER SWAP3 LOG2 PUSH1 0x1 DUP1 SSTORE DUP1 RETURN JUMPDEST PUSH1 0x3 TIMESTAMP SWAP2 ADD SSTORE CODESIZE PUSH2 0xBE4 JUMP JUMPDEST PUSH1 0x64 SWAP1 PUSH1 0x20 DUP5 MLOAD SWAP2 PUSH3 0x461BCD PUSH1 0xE5 SHL DUP4 MSTORE DUP3 ADD MSTORE PUSH1 0x1E PUSH1 0x24 DUP3 ADD MSTORE PUSH32 0x536561744D616E616765723A204E535420746F6B656E206E6F74207365740000 PUSH1 0x44 DUP3 ADD MSTORE REVERT JUMPDEST POP POP CALLVALUE PUSH2 0x1C2 JUMPI PUSH1 0x20 CALLDATASIZE PUSH1 0x3 NOT ADD SLT PUSH2 0x1C2 JUMPI PUSH1 0x20 SWAP2 PUSH1 0x1 PUSH1 0x1 PUSH1 0xA0 SHL SUB SWAP2 SWAP1 DUP2 SWAP1 DUP4 PUSH2 0xC7B PUSH2 0x145B JUMP JUMPDEST AND DUP2 MSTORE PUSH1 0x5 DUP6 MSTORE KECCAK256 SWAP2 DUP3 SLOAD AND ISZERO ISZERO SWAP2 DUP3 PUSH2 0xC99 JUMPI JUMPDEST POP MLOAD SWAP1 ISZERO ISZERO DUP2 MSTORE RETURN JUMPDEST PUSH1 0x6 ADD SLOAD PUSH1 0xFF AND SWAP2 POP CODESIZE PUSH2 0xC90 JUMP JUMPDEST SWAP2 SWAP1 POP CALLVALUE PUSH2 0x205 JUMPI PUSH1 0x20 CALLDATASIZE PUSH1 0x3 NOT ADD SLT PUSH2 0x205 JUMPI SWAP2 DUP3 PUSH1 0xE0 SWAP4 PUSH2 0xCC9 PUSH2 0x145B JUMP JUMPDEST SWAP3 DUP1 PUSH1 0xC0 DUP4 MLOAD PUSH2 0xCD8 DUP2 PUSH2 0x16E5 JUMP JUMPDEST DUP3 DUP2 MSTORE DUP3 PUSH1 0x20 DUP3 ADD MSTORE DUP3 DUP6 DUP3 ADD MSTORE DUP3 PUSH1 0x60 DUP3 ADD MSTORE DUP3 PUSH1 0x80 DUP3 ADD MSTORE DUP3 PUSH1 0xA0 DUP3 ADD MSTORE ADD MSTORE PUSH1 0x1 DUP1 PUSH1 0xA0 SHL SUB DUP1 SWAP5 AND DUP2 MSTORE PUSH1 0x5 PUSH1 0x20 MSTORE KECCAK256 SWAP1 DUP1 MLOAD SWAP3 PUSH2 0xD19 DUP5 PUSH2 0x16E5 JUMP JUMPDEST DUP3 SLOAD AND SWAP4 DUP5 DUP5 MSTORE PUSH1 0x1 DUP4 ADD SLOAD SWAP2 PUSH1 0x20 DUP6 ADD SWAP3 DUP4 MSTORE PUSH1 0x2 DUP5 ADD SLOAD DUP2 DUP7 ADD SWAP1 DUP2 MSTORE PUSH1 0x3 DUP6 ADD SLOAD SWAP3 PUSH1 0x60 DUP8 ADD SWAP4 DUP5 MSTORE DUP6 ADD SLOAD SWAP4 PUSH1 0x80 DUP8 ADD SWAP5 DUP6 MSTORE PUSH1 0xC0 PUSH1 0xFF PUSH1 0x6 PUSH1 0x5 DUP10 ADD SLOAD SWAP9 PUSH1 0xA0 DUP12 ADD SWAP10 DUP11 MSTORE ADD SLOAD AND SWAP8 ADD SWAP7 ISZERO ISZERO DUP8 MSTORE DUP3 MLOAD SWAP8 DUP9 MSTORE MLOAD PUSH1 0x20 DUP9 ADD MSTORE MLOAD SWAP1 DUP7 ADD MSTORE MLOAD PUSH1 0x60 DUP6 ADD MSTORE MLOAD PUSH1 0x80 DUP5 ADD MSTORE MLOAD PUSH1 0xA0 DUP4 ADD MSTORE MLOAD ISZERO ISZERO PUSH1 0xC0 DUP3 ADD MSTORE RETURN JUMPDEST SWAP2 SWAP1 POP CALLVALUE PUSH2 0x205 JUMPI PUSH1 0x20 CALLDATASIZE PUSH1 0x3 NOT ADD SLT PUSH2 0x205 JUMPI DUP2 CALLDATALOAD SWAP2 PUSH2 0xDB8 PUSH2 0x17F8 JUMP JUMPDEST PUSH2 0xDC0 PUSH2 0x17DA JUMP JUMPDEST CALLER DUP5 MSTORE PUSH1 0x5 PUSH1 0x20 MSTORE DUP2 DUP5 KECCAK256 SLOAD PUSH1 0x1 PUSH1 0x1 PUSH1 0xA0 SHL SUB SWAP1 PUSH2 0xDE2 SWAP1 DUP3 AND ISZERO ISZERO PUSH2 0x1873 JUMP JUMPDEST CALLER DUP6 MSTORE PUSH1 0x5 PUSH1 0x20 MSTORE DUP3 DUP6 KECCAK256 PUSH1 0x2 DUP2 ADD DUP1 SLOAD DUP7 DUP2 LT PUSH2 0xE70 JUMPI SWAP3 DUP8 DUP4 DUP7 SWAP4 PUSH2 0xE3C DUP11 PUSH2 0xE50 SWAP9 PUSH2 0xE37 PUSH32 0x6871786FF7BAB66049A85BF7C7CD7B433E92DB6BDC9F357EE5FF18C7FC3AA927 SWAP13 SWAP12 DUP4 SWAP11 ADD SLOAD ISZERO PUSH2 0x1939 JUMP JUMPDEST PUSH2 0x1984 JUMP JUMPDEST DUP1 SWAP2 SSTORE ISZERO PUSH2 0xE65 JUMPI JUMPDEST POP POP CALLER SWAP2 SLOAD AND PUSH2 0x1991 JUMP JUMPDEST DUP1 MLOAD SWAP3 DUP4 MSTORE TIMESTAMP PUSH1 0x20 DUP5 ADD MSTORE CALLER SWAP3 LOG2 PUSH1 0x1 DUP1 SSTORE DUP1 RETURN JUMPDEST PUSH1 0x3 ADD SSTORE DUP8 CODESIZE PUSH2 0xE45 JUMP JUMPDEST DUP6 MLOAD PUSH3 0x461BCD PUSH1 0xE5 SHL DUP2 MSTORE PUSH1 0x20 DUP2 DUP8 ADD MSTORE PUSH1 0x27 PUSH1 0x24 DUP3 ADD MSTORE PUSH32 0x536561744D616E616765723A20696E73756666696369656E74207374616B6564 PUSH1 0x44 DUP3 ADD MSTORE PUSH7 0x8185B5BDD5B9D PUSH1 0xCA SHL PUSH1 0x64 DUP3 ADD MSTORE PUSH1 0x84 SWAP1 REVERT JUMPDEST SWAP1 POP CALLVALUE PUSH2 0x205 JUMPI PUSH1 0x20 CALLDATASIZE PUSH1 0x3 NOT ADD SLT PUSH2 0x205 JUMPI CALLDATALOAD SWAP2 PUSH1 0x6 SLOAD DUP4 LT ISZERO PUSH2 0x2F9 JUMPI POP PUSH2 0xEEE PUSH1 0x20 SWAP3 PUSH2 0x148C JUMP JUMPDEST SWAP1 SLOAD SWAP2 MLOAD SWAP2 PUSH1 0x1 DUP1 PUSH1 0xA0 SHL SUB SWAP2 PUSH1 0x3 SHL SHR AND DUP2 MSTORE RETURN JUMPDEST POP POP CALLVALUE PUSH2 0x1C2 JUMPI DUP2 PUSH1 0x3 NOT CALLDATASIZE ADD SLT PUSH2 0x1C2 JUMPI PUSH1 0x20 SWAP1 PUSH1 0xFF PUSH1 0x2 SLOAD AND SWAP1 MLOAD SWAP1 ISZERO ISZERO DUP2 MSTORE RETURN JUMPDEST SWAP1 POP CALLVALUE PUSH2 0x205 JUMPI DUP3 PUSH1 0x3 NOT CALLDATASIZE ADD SLT PUSH2 0x205 JUMPI PUSH2 0xF42 PUSH2 0x14D9 JUMP JUMPDEST PUSH1 0x2 SLOAD SWAP1 PUSH1 0xFF DUP3 AND ISZERO PUSH2 0xF84 JUMPI POP PUSH1 0xFF NOT AND PUSH1 0x2 SSTORE MLOAD CALLER DUP2 MSTORE PUSH32 0x5DB9EE0A495BF2E6FF9C91A7834C1BA4FDD244A5E8AA4E537BD38AEAE4B073AA SWAP1 PUSH1 0x20 SWAP1 LOG1 DUP1 RETURN JUMPDEST DUP3 MLOAD PUSH4 0x8DFC202B PUSH1 0xE0 SHL DUP2 MSTORE REVERT JUMPDEST POP POP CALLVALUE PUSH2 0x1C2 JUMPI PUSH1 0x60 CALLDATASIZE PUSH1 0x3 NOT ADD SLT PUSH2 0x1C2 JUMPI PUSH32 0x97AC395515B3FB5C2557CDDA86B85BFC57D61D7C146DF5DDDDD12F01E3D894C PUSH2 0xFCE PUSH2 0x145B JUMP JUMPDEST SWAP2 PUSH1 0x24 CALLDATALOAD SWAP1 PUSH2 0x105F PUSH1 0x44 CALLDATALOAD SWAP2 PUSH1 0x0 DUP1 MLOAD PUSH1 0x20 PUSH2 0x1A02 DUP4 CODECOPY DUP2 MLOAD SWAP2 MSTORE DUP8 MSTORE DUP7 PUSH1 0x20 MSTORE DUP1 DUP8 KECCAK256 CALLER DUP9 MSTORE PUSH1 0x20 MSTORE PUSH2 0x1007 PUSH1 0xFF DUP3 DUP10 KECCAK256 SLOAD AND PUSH2 0x181B JUMP JUMPDEST PUSH1 0x1 PUSH1 0x1 PUSH1 0xA0 SHL SUB SWAP6 DUP7 AND DUP1 DUP9 MSTORE PUSH1 0x5 PUSH1 0x20 MSTORE DUP2 DUP9 KECCAK256 SLOAD SWAP1 SWAP7 PUSH2 0x102C SWAP2 AND ISZERO ISZERO PUSH2 0x1873 JUMP JUMPDEST DUP6 DUP8 MSTORE PUSH1 0x5 PUSH1 0x20 MSTORE DUP3 PUSH1 0x5 DUP3 DUP10 KECCAK256 DUP7 PUSH1 0x1 DUP3 ADD SSTORE ADD SSTORE MLOAD SWAP3 DUP4 SWAP3 TIMESTAMP SWAP2 DUP5 PUSH1 0x40 SWAP2 SWAP5 SWAP4 SWAP3 PUSH1 0x60 DUP3 ADD SWAP6 DUP3 MSTORE PUSH1 0x20 DUP3 ADD MSTORE ADD MSTORE JUMP JUMPDEST SUB SWAP1 LOG2 DUP1 RETURN JUMPDEST DUP4 DUP4 CALLVALUE PUSH2 0x1C2 JUMPI DUP1 PUSH1 0x3 NOT CALLDATASIZE ADD SLT PUSH2 0x1C2 JUMPI PUSH2 0x107F PUSH2 0x1476 JUMP JUMPDEST SWAP1 CALLER PUSH1 0x1 PUSH1 0x1 PUSH1 0xA0 SHL SUB DUP4 AND SUB PUSH2 0x109C JUMPI POP PUSH2 0x201 SWAP2 SWAP3 CALLDATALOAD PUSH2 0x1670 JUMP JUMPDEST MLOAD PUSH4 0x334BD919 PUSH1 0xE1 SHL DUP2 MSTORE DUP4 SWAP1 REVERT JUMPDEST SWAP1 POP CALLVALUE PUSH2 0x205 JUMPI PUSH1 0x20 CALLDATASIZE PUSH1 0x3 NOT ADD SLT PUSH2 0x205 JUMPI DUP1 CALLDATALOAD PUSH2 0x10C8 PUSH2 0x17F8 JUMP JUMPDEST PUSH2 0x10D0 PUSH2 0x17DA JUMP JUMPDEST CALLER DUP5 MSTORE PUSH1 0x5 PUSH1 0x20 MSTORE DUP3 DUP5 KECCAK256 SLOAD PUSH1 0x1 PUSH1 0x1 PUSH1 0xA0 SHL SUB SWAP2 SWAP1 PUSH2 0x10F3 SWAP1 DUP4 AND ISZERO ISZERO PUSH2 0x1873 JUMP JUMPDEST CALLER DUP6 MSTORE PUSH1 0x5 PUSH1 0x20 MSTORE PUSH1 0x1 DUP5 DUP7 KECCAK256 PUSH2 0x110D DUP6 DUP3 ADD SLOAD ISZERO PUSH2 0x1939 JUMP JUMPDEST ADD SWAP2 DUP3 SLOAD SWAP4 DUP3 DUP6 LT PUSH2 0x117C JUMPI POP SWAP2 PUSH2 0x115C DUP3 PUSH2 0x61A SWAP5 PUSH2 0x114F DUP8 SWAP6 PUSH32 0x149164E01CE812A249763BA5286C87A8CD326F17950B6C76A384B369F5FE12B3 SWAP9 PUSH2 0x1984 JUMP JUMPDEST DUP5 SSTORE CALLER SWAP1 PUSH1 0x3 SLOAD AND PUSH2 0x1991 JUMP JUMPDEST SLOAD SWAP4 MLOAD SWAP1 DUP2 MSTORE PUSH1 0x20 DUP2 ADD SWAP4 SWAP1 SWAP4 MSTORE TIMESTAMP PUSH1 0x40 DUP5 ADD MSTORE CALLER SWAP3 SWAP1 DUP2 SWAP1 PUSH1 0x60 DUP3 ADD SWAP1 JUMP JUMPDEST PUSH1 0x84 SWAP1 PUSH1 0x20 DUP8 MLOAD SWAP2 PUSH3 0x461BCD PUSH1 0xE5 SHL DUP4 MSTORE DUP3 ADD MSTORE PUSH1 0x21 PUSH1 0x24 DUP3 ADD MSTORE PUSH32 0x536561744D616E616765723A20696E73756666696369656E74206465706F7369 PUSH1 0x44 DUP3 ADD MSTORE PUSH1 0x1D PUSH1 0xFA SHL PUSH1 0x64 DUP3 ADD MSTORE REVERT JUMPDEST POP POP CALLVALUE PUSH2 0x1C2 JUMPI DUP2 PUSH1 0x3 NOT CALLDATASIZE ADD SLT PUSH2 0x1C2 JUMPI PUSH1 0x3 SLOAD SWAP1 MLOAD PUSH1 0x1 PUSH1 0x1 PUSH1 0xA0 SHL SUB SWAP1 SWAP2 AND DUP2 MSTORE PUSH1 0x20 SWAP1 RETURN JUMPDEST SWAP2 SWAP1 POP CALLVALUE PUSH2 0x205 JUMPI DUP1 PUSH1 0x3 NOT CALLDATASIZE ADD SLT PUSH2 0x205 JUMPI PUSH2 0x201 SWAP2 CALLDATALOAD PUSH2 0x1217 PUSH1 0x1 PUSH2 0x1EB PUSH2 0x1476 JUMP JUMPDEST PUSH2 0x15F7 JUMP JUMPDEST SWAP2 SWAP1 POP CALLVALUE PUSH2 0x205 JUMPI DUP1 PUSH1 0x3 NOT CALLDATASIZE ADD SLT PUSH2 0x205 JUMPI PUSH2 0x1237 PUSH2 0x145B JUMP JUMPDEST SWAP2 PUSH1 0x24 CALLDATALOAD PUSH8 0xFFFFFFFFFFFFFFFF SWAP2 DUP3 DUP3 GT PUSH2 0x1330 JUMPI CALLDATASIZE PUSH1 0x23 DUP4 ADD SLT ISZERO PUSH2 0x1330 JUMPI DUP2 ADD CALLDATALOAD SWAP2 DUP3 GT PUSH2 0x132C JUMPI CALLDATASIZE PUSH1 0x24 DUP4 DUP4 ADD ADD GT PUSH2 0x132C JUMPI PUSH32 0x5480752396ED47EFC64C240DE7DFC3AB13993487DE821F0358EFC5763B5EA241 SWAP3 DUP3 DUP1 PUSH1 0x24 PUSH1 0x60 SWAP5 PUSH1 0x0 DUP1 MLOAD PUSH1 0x20 PUSH2 0x1A02 DUP4 CODECOPY DUP2 MLOAD SWAP2 MSTORE DUP11 MSTORE DUP10 PUSH1 0x20 MSTORE DUP5 DUP11 KECCAK256 CALLER DUP12 MSTORE PUSH1 0x20 MSTORE PUSH2 0x12C3 PUSH1 0xFF DUP7 DUP13 KECCAK256 SLOAD AND PUSH2 0x181B JUMP JUMPDEST PUSH1 0x1 PUSH1 0x1 PUSH1 0xA0 SHL SUB SWAP9 DUP10 AND DUP1 DUP12 MSTORE PUSH1 0x5 PUSH1 0x20 MSTORE DUP6 DUP12 KECCAK256 SLOAD SWAP1 SWAP10 PUSH2 0x12E8 SWAP2 AND ISZERO ISZERO PUSH2 0x1873 JUMP JUMPDEST DUP9 DUP11 MSTORE PUSH1 0x5 PUSH1 0x20 MSTORE PUSH1 0x6 DUP6 DUP12 KECCAK256 ADD PUSH1 0xFF NOT DUP2 SLOAD AND SWAP1 SSTORE DUP5 MLOAD SWAP7 DUP6 DUP9 SWAP7 DUP8 MSTORE DUP7 ADD MSTORE ADD DUP5 DUP5 ADD CALLDATACOPY DUP2 DUP2 ADD DUP4 ADD DUP8 SWAP1 MSTORE TIMESTAMP PUSH1 0x20 DUP4 ADD MSTORE PUSH1 0x1F ADD PUSH1 0x1F NOT AND DUP2 ADD SUB ADD SWAP1 LOG2 DUP1 RETURN JUMPDEST DUP5 DUP1 REVERT JUMPDEST DUP6 DUP1 REVERT JUMPDEST SWAP1 POP CALLVALUE PUSH2 0x205 JUMPI PUSH1 0x20 CALLDATASIZE PUSH1 0x3 NOT ADD SLT PUSH2 0x205 JUMPI DUP2 PUSH1 0x20 SWAP4 PUSH1 0x1 SWAP3 CALLDATALOAD DUP2 MSTORE DUP1 DUP6 MSTORE KECCAK256 ADD SLOAD SWAP1 MLOAD SWAP1 DUP2 MSTORE RETURN JUMPDEST DUP4 CALLVALUE PUSH2 0x2F9 JUMPI PUSH1 0x20 CALLDATASIZE PUSH1 0x3 NOT ADD SLT PUSH2 0x2F9 JUMPI PUSH2 0x1378 PUSH2 0x145B JUMP JUMPDEST PUSH2 0x1380 PUSH2 0x14D9 JUMP JUMPDEST PUSH1 0x2 DUP1 SLOAD PUSH2 0x100 PUSH1 0x1 PUSH1 0xA8 SHL SUB NOT AND PUSH1 0x8 SWAP3 SWAP1 SWAP3 SHL PUSH2 0x100 PUSH1 0x1 PUSH1 0xA8 SHL SUB AND SWAP2 SWAP1 SWAP2 OR SWAP1 SSTORE DUP1 RETURN JUMPDEST POP POP CALLVALUE PUSH2 0x1C2 JUMPI DUP2 PUSH1 0x3 NOT CALLDATASIZE ADD SLT PUSH2 0x1C2 JUMPI PUSH1 0x20 SWAP1 PUSH1 0x6 SLOAD SWAP1 MLOAD SWAP1 DUP2 MSTORE RETURN JUMPDEST DUP4 SWAP1 CALLVALUE PUSH2 0x1C2 JUMPI PUSH1 0x20 CALLDATASIZE PUSH1 0x3 NOT ADD SLT PUSH2 0x1C2 JUMPI PUSH2 0x13E2 PUSH2 0x145B JUMP JUMPDEST PUSH2 0x13EA PUSH2 0x14D9 JUMP JUMPDEST DUP2 SLOAD PUSH1 0x1 PUSH1 0x1 PUSH1 0xA0 SHL SUB NOT AND PUSH1 0x1 PUSH1 0x1 PUSH1 0xA0 SHL SUB SWAP2 SWAP1 SWAP2 AND OR SWAP1 SSTORE DUP1 RETURN JUMPDEST DUP5 SWAP2 CALLVALUE PUSH2 0x205 JUMPI PUSH1 0x20 CALLDATASIZE PUSH1 0x3 NOT ADD SLT PUSH2 0x205 JUMPI CALLDATALOAD PUSH4 0xFFFFFFFF PUSH1 0xE0 SHL DUP2 AND DUP1 SWAP2 SUB PUSH2 0x205 JUMPI PUSH1 0x20 SWAP3 POP PUSH4 0x7965DB0B PUSH1 0xE0 SHL DUP2 EQ SWAP1 DUP2 ISZERO PUSH2 0x144A JUMPI JUMPDEST POP ISZERO ISZERO DUP2 MSTORE RETURN JUMPDEST PUSH4 0x1FFC9A7 PUSH1 0xE0 SHL EQ SWAP1 POP DUP4 PUSH2 0x1443 JUMP JUMPDEST PUSH1 0x4 CALLDATALOAD SWAP1 PUSH1 0x1 PUSH1 0x1 PUSH1 0xA0 SHL SUB DUP3 AND DUP3 SUB PUSH2 0x1471 JUMPI JUMP JUMPDEST PUSH1 0x0 DUP1 REVERT JUMPDEST PUSH1 0x24 CALLDATALOAD SWAP1 PUSH1 0x1 PUSH1 0x1 PUSH1 0xA0 SHL SUB DUP3 AND DUP3 SUB PUSH2 0x1471 JUMPI JUMP JUMPDEST PUSH1 0x6 SLOAD DUP2 LT ISZERO PUSH2 0x14C3 JUMPI PUSH1 0x6 PUSH1 0x0 MSTORE PUSH32 0xF652222313E28459528D920B65115C16C04F3EFC82AAEDC97BE59F3F377C0D3F ADD SWAP1 PUSH1 0x0 SWAP1 JUMP JUMPDEST PUSH4 0x4E487B71 PUSH1 0xE0 SHL PUSH1 0x0 MSTORE PUSH1 0x32 PUSH1 0x4 MSTORE PUSH1 0x24 PUSH1 0x0 REVERT JUMPDEST CALLER PUSH1 0x0 SWAP1 DUP2 MSTORE PUSH32 0xAD3228B676F7D3CD4284A5443F17F1962B36E491B30A40B2405849E597BA5FB5 PUSH1 0x20 MSTORE PUSH1 0x40 DUP2 KECCAK256 SLOAD PUSH1 0xFF AND ISZERO PUSH2 0x1513 JUMPI POP JUMP JUMPDEST PUSH1 0x44 SWAP1 PUSH1 0x40 MLOAD SWAP1 PUSH4 0xE2517D3F PUSH1 0xE0 SHL DUP3 MSTORE CALLER PUSH1 0x4 DUP4 ADD MSTORE PUSH1 0x24 DUP3 ADD MSTORE REVERT JUMPDEST DUP1 PUSH1 0x0 MSTORE PUSH1 0x0 PUSH1 0x20 MSTORE PUSH1 0x40 PUSH1 0x0 KECCAK256 CALLER PUSH1 0x0 MSTORE PUSH1 0x20 MSTORE PUSH1 0xFF PUSH1 0x40 PUSH1 0x0 KECCAK256 SLOAD AND ISZERO PUSH2 0x1513 JUMPI POP JUMP JUMPDEST PUSH1 0x1 PUSH1 0x1 PUSH1 0xA0 SHL SUB AND PUSH1 0x0 DUP2 DUP2 MSTORE PUSH32 0x26B007CF884D53A6459F24F6C265BAC21CBC05E4ED38A5C97118F37730D9B344 PUSH1 0x20 MSTORE PUSH1 0x40 DUP2 KECCAK256 SLOAD SWAP1 SWAP2 SWAP1 PUSH1 0x0 DUP1 MLOAD PUSH1 0x20 PUSH2 0x19E2 DUP4 CODECOPY DUP2 MLOAD SWAP2 MSTORE SWAP1 PUSH1 0xFF AND PUSH2 0x15F2 JUMPI DUP1 DUP4 MSTORE DUP3 PUSH1 0x20 MSTORE PUSH1 0x40 DUP4 KECCAK256 DUP3 DUP5 MSTORE PUSH1 0x20 MSTORE PUSH1 0x40 DUP4 KECCAK256 PUSH1 0x1 PUSH1 0xFF NOT DUP3 SLOAD AND OR SWAP1 SSTORE PUSH32 0x2F8788117E7EFF1D82E926EC794901D17C78024A50270940304540A733656F0D CALLER SWAP4 DUP1 LOG4 PUSH1 0x1 SWAP1 JUMP JUMPDEST POP POP SWAP1 JUMP JUMPDEST SWAP1 PUSH1 0x0 SWAP2 DUP1 DUP4 MSTORE DUP3 PUSH1 0x20 MSTORE PUSH1 0x40 DUP4 KECCAK256 SWAP2 PUSH1 0x1 DUP1 PUSH1 0xA0 SHL SUB AND SWAP2 DUP3 DUP5 MSTORE PUSH1 0x20 MSTORE PUSH1 0xFF PUSH1 0x40 DUP5 KECCAK256 SLOAD AND ISZERO PUSH1 0x0 EQ PUSH2 0x15F2 JUMPI DUP1 DUP4 MSTORE DUP3 PUSH1 0x20 MSTORE PUSH1 0x40 DUP4 KECCAK256 DUP3 DUP5 MSTORE PUSH1 0x20 MSTORE PUSH1 0x40 DUP4 KECCAK256 PUSH1 0x1 PUSH1 0xFF NOT DUP3 SLOAD AND OR SWAP1 SSTORE PUSH32 0x2F8788117E7EFF1D82E926EC794901D17C78024A50270940304540A733656F0D CALLER SWAP4 DUP1 LOG4 PUSH1 0x1 SWAP1 JUMP JUMPDEST SWAP1 PUSH1 0x0 SWAP2 DUP1 DUP4 MSTORE DUP3 PUSH1 0x20 MSTORE PUSH1 0x40 DUP4 KECCAK256 SWAP2 PUSH1 0x1 DUP1 PUSH1 0xA0 SHL SUB AND SWAP2 DUP3 DUP5 MSTORE PUSH1 0x20 MSTORE PUSH1 0xFF PUSH1 0x40 DUP5 KECCAK256 SLOAD AND PUSH1 0x0 EQ PUSH2 0x15F2 JUMPI DUP1 DUP4 MSTORE DUP3 PUSH1 0x20 MSTORE PUSH1 0x40 DUP4 KECCAK256 DUP3 DUP5 MSTORE PUSH1 0x20 MSTORE PUSH1 0x40 DUP4 KECCAK256 PUSH1 0xFF NOT DUP2 SLOAD AND SWAP1 SSTORE PUSH32 0xF6391F5C32D9C69D2A47EA670B442974B53935D1EDC7FD64EB21E047A839171B CALLER SWAP4 DUP1 LOG4 PUSH1 0x1 SWAP1 JUMP JUMPDEST PUSH1 0xE0 DUP2 ADD SWAP1 DUP2 LT PUSH8 0xFFFFFFFFFFFFFFFF DUP3 GT OR PUSH2 0x1701 JUMPI PUSH1 0x40 MSTORE JUMP JUMPDEST PUSH4 0x4E487B71 PUSH1 0xE0 SHL PUSH1 0x0 MSTORE PUSH1 0x41 PUSH1 0x4 MSTORE PUSH1 0x24 PUSH1 0x0 REVERT JUMPDEST PUSH1 0x40 MLOAD PUSH4 0x23B872DD PUSH1 0xE0 SHL PUSH1 0x20 DUP3 ADD MSTORE PUSH1 0x1 PUSH1 0x1 PUSH1 0xA0 SHL SUB SWAP3 DUP4 AND PUSH1 0x24 DUP3 ADD MSTORE SWAP3 SWAP1 SWAP2 AND PUSH1 0x44 DUP4 ADD MSTORE PUSH1 0x64 DUP1 DUP4 ADD SWAP4 SWAP1 SWAP4 MSTORE SWAP2 DUP2 MSTORE PUSH1 0xA0 DUP2 ADD SWAP2 DUP2 DUP4 LT PUSH8 0xFFFFFFFFFFFFFFFF DUP5 GT OR PUSH2 0x1701 JUMPI PUSH2 0x1770 SWAP3 PUSH1 0x40 MSTORE PUSH2 0x1772 JUMP JUMPDEST JUMP JUMPDEST SWAP1 PUSH1 0x0 PUSH1 0x20 SWAP2 DUP3 DUP2 MLOAD SWAP2 ADD DUP3 DUP6 GAS CALL ISZERO PUSH2 0x17CE JUMPI PUSH1 0x0 MLOAD RETURNDATASIZE PUSH2 0x17C5 JUMPI POP PUSH1 0x1 PUSH1 0x1 PUSH1 0xA0 SHL SUB DUP2 AND EXTCODESIZE ISZERO JUMPDEST PUSH2 0x17A3 JUMPI POP JUMP JUMPDEST PUSH1 0x40 MLOAD PUSH4 0x5274AFE7 PUSH1 0xE0 SHL DUP2 MSTORE PUSH1 0x1 PUSH1 0x1 PUSH1 0xA0 SHL SUB SWAP1 SWAP2 AND PUSH1 0x4 DUP3 ADD MSTORE PUSH1 0x24 SWAP1 REVERT JUMPDEST PUSH1 0x1 EQ ISZERO PUSH2 0x179C JUMP JUMPDEST PUSH1 0x40 MLOAD RETURNDATASIZE PUSH1 0x0 DUP3 RETURNDATACOPY RETURNDATASIZE SWAP1 REVERT JUMPDEST PUSH1 0xFF PUSH1 0x2 SLOAD AND PUSH2 0x17E6 JUMPI JUMP JUMPDEST PUSH1 0x40 MLOAD PUSH4 0xD93C0665 PUSH1 0xE0 SHL DUP2 MSTORE PUSH1 0x4 SWAP1 REVERT JUMPDEST PUSH1 0x2 PUSH1 0x1 SLOAD EQ PUSH2 0x1809 JUMPI PUSH1 0x2 PUSH1 0x1 SSTORE JUMP JUMPDEST PUSH1 0x40 MLOAD PUSH4 0x3EE5AEB5 PUSH1 0xE0 SHL DUP2 MSTORE PUSH1 0x4 SWAP1 REVERT JUMPDEST ISZERO PUSH2 0x1822 JUMPI JUMP JUMPDEST PUSH1 0x40 MLOAD PUSH3 0x461BCD PUSH1 0xE5 SHL DUP2 MSTORE PUSH1 0x20 PUSH1 0x4 DUP3 ADD MSTORE PUSH1 0x23 PUSH1 0x24 DUP3 ADD MSTORE PUSH32 0x536561744D616E616765723A2063616C6C6572206973206E6F74206F70657261 PUSH1 0x44 DUP3 ADD MSTORE PUSH3 0x3A37B9 PUSH1 0xE9 SHL PUSH1 0x64 DUP3 ADD MSTORE PUSH1 0x84 SWAP1 REVERT JUMPDEST ISZERO PUSH2 0x187A JUMPI JUMP JUMPDEST PUSH1 0x64 PUSH1 0x40 MLOAD PUSH3 0x461BCD PUSH1 0xE5 SHL DUP2 MSTORE PUSH1 0x20 PUSH1 0x4 DUP3 ADD MSTORE PUSH1 0x20 PUSH1 0x24 DUP3 ADD MSTORE PUSH32 0x536561744D616E616765723A2073656174206E6F742072656769737465726564 PUSH1 0x44 DUP3 ADD MSTORE REVERT JUMPDEST ISZERO PUSH2 0x18C5 JUMPI JUMP JUMPDEST PUSH1 0x40 MLOAD PUSH3 0x461BCD PUSH1 0xE5 SHL DUP2 MSTORE PUSH1 0x20 PUSH1 0x4 DUP3 ADD MSTORE PUSH1 0x24 DUP1 DUP3 ADD MSTORE PUSH32 0x536561744D616E616765723A20616D6F756E74206D75737420626520706F7369 PUSH1 0x44 DUP3 ADD MSTORE PUSH4 0x74697665 PUSH1 0xE0 SHL PUSH1 0x64 DUP3 ADD MSTORE PUSH1 0x84 SWAP1 REVERT JUMPDEST SWAP2 SWAP1 DUP3 ADD DUP1 SWAP3 GT PUSH2 0x1923 JUMPI JUMP JUMPDEST PUSH4 0x4E487B71 PUSH1 0xE0 SHL PUSH1 0x0 MSTORE PUSH1 0x11 PUSH1 0x4 MSTORE PUSH1 0x24 PUSH1 0x0 REVERT JUMPDEST ISZERO PUSH2 0x1940 JUMPI JUMP JUMPDEST PUSH1 0x64 PUSH1 0x40 MLOAD PUSH3 0x461BCD PUSH1 0xE5 SHL DUP2 MSTORE PUSH1 0x20 PUSH1 0x4 DUP3 ADD MSTORE PUSH1 0x20 PUSH1 0x24 DUP3 ADD MSTORE PUSH32 0x536561744D616E616765723A2068617320616374697665206578706F73757265 PUSH1 0x44 DUP3 ADD MSTORE REVERT JUMPDEST SWAP2 SWAP1 DUP3 SUB SWAP2 DUP3 GT PUSH2 0x1923 JUMPI JUMP JUMPDEST PUSH1 0x40 MLOAD PUSH4 0xA9059CBB PUSH1 0xE0 SHL PUSH1 0x20 DUP3 ADD MSTORE PUSH1 0x1 PUSH1 0x1 PUSH1 0xA0 SHL SUB SWAP1 SWAP3 AND PUSH1 0x24 DUP4 ADD MSTORE PUSH1 0x44 DUP1 DUP4 ADD SWAP4 SWAP1 SWAP4 MSTORE SWAP2 DUP2 MSTORE PUSH1 0x80 DUP2 ADD SWAP2 PUSH8 0xFFFFFFFFFFFFFFFF DUP4 GT DUP3 DUP5 LT OR PUSH2 0x1701 JUMPI PUSH2 0x1770 SWAP3 PUSH1 0x40 MSTORE PUSH2 0x1772 JUMP INVALID SDIV CALLDATALOAD PUSH28 0xA9BFDA25659080D4D90D2DBCF64C0526A676A9E00C9404E6E1C8690B PREVRANDAO DUP15 0xB1 NUMBER 0xD0 0xA8 0xE8 ADDRESS PUSH15 0x31D16FD3549DE0732D22D2BD95A7F1 SWAP2 0xB4 0x5E PUSH29 0x622D95A777A2646970667358221220ECDB5BBA4E99FB9B681DD7206DA6 0xBF MSTORE8 CALLCODE 0x2A RETURNDATACOPY 0xD0 PUSH11 0x34898172E99B3E91E19CD4 PUSH5 0x736F6C6343 STOP ADDMOD EQ STOP CALLER 0x2F DUP8 DUP9 GT PUSH31 0x7EFF1D82E926EC794901D17C78024A50270940304540A733656F0D00000000 "},"methodIdentifiers":{"DEFAULT_ADMIN_ROLE()":"a217fddf","OPTIONS_CORE_ROLE()":"e84afc54","SEAT_OPERATOR_ROLE()":"b492a97f","addDeposit(uint256)":"a6f1fd51","canTakeOrder(address,uint256)":"99b24f5e","config()":"79502c55","deactivateSeat(address,string)":"2f0332c0","getAllSeatOwners()":"c3fdedc2","getRoleAdmin(bytes32)":"248a9ca3","getSeat(address)":"727ca626","getSeatCount()":"17d1e3ea","grantOptionsCoreRole(address)":"797560fc","grantRole(bytes32,address)":"2f2ff15d","hasRole(bytes32,address)":"91d14854","isValidSeat(address)":"7577e9ff","nstToken()":"8b63fd4c","pause()":"8456cb59","paused()":"5c975abb","reactivateSeat(address)":"8cdbb618","registerSeat(uint256)":"76f215f3","renounceRole(bytes32,address)":"36568abe","revokeRole(bytes32,address)":"d547741f","seatOwners(uint256)":"5cf6a72c","seats(address)":"a2558ddd","setConfig(address)":"20e3dbd4","setNSTToken(address)":"077145c5","setSeatParams(address,uint256,uint256)":"37cbdedf","stakeNST(uint256)":"758c3fe9","supportsInterface(bytes4)":"01ffc9a7","unpause()":"3f4ba83a","unstakeNST(uint256)":"68977f21","updateExposure(address,uint256,bool)":"b4c07100","usdt()":"2f48ab7d","withdrawDeposit(uint256)":"33289a46"}}}}}