{"contracts/core/OptionsCore.sol":{"OptionsCore":{"abi":[{"inputs":[{"internalType":"address","name":"_config","type":"address"},{"internalType":"address","name":"_vaultManager","type":"address"},{"internalType":"address","name":"_usdt","type":"address"},{"internalType":"address","name":"_admin","type":"address"}],"stateMutability":"nonpayable","type":"constructor"},{"inputs":[],"name":"AccessControlBadConfirmation","type":"error"},{"inputs":[{"internalType":"address","name":"account","type":"address"},{"internalType":"bytes32","name":"neededRole","type":"bytes32"}],"name":"AccessControlUnauthorizedAccount","type":"error"},{"inputs":[],"name":"EnforcedPause","type":"error"},{"inputs":[],"name":"ExpectedPause","type":"error"},{"inputs":[],"name":"ReentrancyGuardReentrantCall","type":"error"},{"anonymous":false,"inputs":[{"indexed":true,"internalType":"uint256","name":"orderId","type":"uint256"},{"indexed":false,"internalType":"string","name":"underlyingCode","type":"string"},{"indexed":false,"internalType":"string","name":"market","type":"string"},{"indexed":false,"internalType":"string","name":"country","type":"string"},{"indexed":false,"internalType":"enum FeedType","name":"feedType","type":"uint8"},{"indexed":false,"internalType":"enum FeedTier","name":"tier","type":"uint8"},{"indexed":true,"internalType":"address","name":"requester","type":"address"},{"indexed":false,"internalType":"uint256","name":"notionalAmount","type":"uint256"},{"indexed":false,"internalType":"uint256","name":"timestamp","type":"uint256"}],"name":"FeedRequestEmitted","type":"event"},{"anonymous":false,"inputs":[{"indexed":true,"internalType":"uint256","name":"orderId","type":"uint256"},{"indexed":false,"internalType":"string","name":"reason","type":"string"},{"indexed":false,"internalType":"uint256","name":"timestamp","type":"uint256"}],"name":"OrderCancelled","type":"event"},{"anonymous":false,"inputs":[{"indexed":true,"internalType":"uint256","name":"orderId","type":"uint256"},{"indexed":true,"internalType":"address","name":"creator","type":"address"},{"indexed":false,"internalType":"bool","name":"isBuyerOrder","type":"bool"},{"indexed":false,"internalType":"uint256","name":"timestamp","type":"uint256"}],"name":"OrderCreated","type":"event"},{"anonymous":false,"inputs":[{"indexed":true,"internalType":"uint256","name":"orderId","type":"uint256"},{"indexed":true,"internalType":"address","name":"buyer","type":"address"},{"indexed":true,"internalType":"address","name":"seller","type":"address"},{"indexed":false,"internalType":"uint256","name":"timestamp","type":"uint256"}],"name":"OrderMatched","type":"event"},{"anonymous":false,"inputs":[{"indexed":true,"internalType":"uint256","name":"orderId","type":"uint256"},{"indexed":false,"internalType":"enum OrderStatus","name":"oldStatus","type":"uint8"},{"indexed":false,"internalType":"enum OrderStatus","name":"newStatus","type":"uint8"},{"indexed":false,"internalType":"string","name":"reason","type":"string"},{"indexed":false,"internalType":"uint256","name":"timestamp","type":"uint256"}],"name":"OrderStatusChanged","type":"event"},{"anonymous":false,"inputs":[{"indexed":false,"internalType":"address","name":"account","type":"address"}],"name":"Paused","type":"event"},{"anonymous":false,"inputs":[{"indexed":true,"internalType":"uint256","name":"orderId","type":"uint256"},{"indexed":true,"internalType":"uint256","name":"quoteId","type":"uint256"},{"indexed":true,"internalType":"address","name":"seller","type":"address"},{"indexed":false,"internalType":"uint256","name":"amount","type":"uint256"},{"indexed":false,"internalType":"uint256","name":"timestamp","type":"uint256"}],"name":"QuoteMarginRefunded","type":"event"},{"anonymous":false,"inputs":[{"indexed":true,"internalType":"uint256","name":"orderId","type":"uint256"},{"indexed":true,"internalType":"uint256","name":"quoteId","type":"uint256"},{"indexed":true,"internalType":"address","name":"seller","type":"address"},{"indexed":false,"internalType":"uint256","name":"premiumRate","type":"uint256"},{"indexed":false,"internalType":"uint256","name":"timestamp","type":"uint256"}],"name":"QuoteSubmitted","type":"event"},{"anonymous":false,"inputs":[{"indexed":true,"internalType":"bytes32","name":"role","type":"bytes32"},{"indexed":true,"internalType":"bytes32","name":"previousAdminRole","type":"bytes32"},{"indexed":true,"internalType":"bytes32","name":"newAdminRole","type":"bytes32"}],"name":"RoleAdminChanged","type":"event"},{"anonymous":false,"inputs":[{"indexed":true,"internalType":"bytes32","name":"role","type":"bytes32"},{"indexed":true,"internalType":"address","name":"account","type":"address"},{"indexed":true,"internalType":"address","name":"sender","type":"address"}],"name":"RoleGranted","type":"event"},{"anonymous":false,"inputs":[{"indexed":true,"internalType":"bytes32","name":"role","type":"bytes32"},{"indexed":true,"internalType":"address","name":"account","type":"address"},{"indexed":true,"internalType":"address","name":"sender","type":"address"}],"name":"RoleRevoked","type":"event"},{"anonymous":false,"inputs":[{"indexed":false,"internalType":"address","name":"account","type":"address"}],"name":"Unpaused","type":"event"},{"inputs":[],"name":"DEFAULT_ADMIN_ROLE","outputs":[{"internalType":"bytes32","name":"","type":"bytes32"}],"stateMutability":"view","type":"function"},{"inputs":[],"name":"FEED_PROTOCOL_ROLE","outputs":[{"internalType":"bytes32","name":"","type":"bytes32"}],"stateMutability":"view","type":"function"},{"inputs":[],"name":"SETTLEMENT_ROLE","outputs":[{"internalType":"bytes32","name":"","type":"bytes32"}],"stateMutability":"view","type":"function"},{"inputs":[{"internalType":"uint256","name":"quoteId","type":"uint256"}],"name":"acceptQuote","outputs":[],"stateMutability":"nonpayable","type":"function"},{"inputs":[{"internalType":"uint256","name":"orderId","type":"uint256"}],"name":"acceptSellerOrder","outputs":[],"stateMutability":"nonpayable","type":"function"},{"inputs":[{"internalType":"address","name":"","type":"address"},{"internalType":"uint256","name":"","type":"uint256"}],"name":"buyerOrders","outputs":[{"internalType":"uint256","name":"","type":"uint256"}],"stateMutability":"view","type":"function"},{"inputs":[{"internalType":"uint256","name":"orderId","type":"uint256"}],"name":"cancelRFQ","outputs":[],"stateMutability":"nonpayable","type":"function"},{"inputs":[{"internalType":"uint256","name":"orderId","type":"uint256"}],"name":"cancelRFQDueToTimeout","outputs":[],"stateMutability":"nonpayable","type":"function"},{"inputs":[],"name":"config","outputs":[{"internalType":"contract Config","name":"","type":"address"}],"stateMutability":"view","type":"function"},{"inputs":[{"internalType":"string","name":"underlyingName","type":"string"},{"internalType":"string","name":"underlyingCode","type":"string"},{"internalType":"string","name":"market","type":"string"},{"internalType":"string","name":"country","type":"string"},{"internalType":"string","name":"refPrice","type":"string"},{"internalType":"enum Direction","name":"direction","type":"uint8"},{"internalType":"uint256","name":"notionalUSDT","type":"uint256"},{"internalType":"uint256","name":"expiryTimestamp","type":"uint256"},{"internalType":"uint256","name":"maxPremiumRate","type":"uint256"},{"internalType":"uint256","name":"minMarginRate","type":"uint256"},{"internalType":"enum SellerType","name":"acceptedSellerType","type":"uint8"},{"internalType":"address","name":"designatedSeller","type":"address"},{"internalType":"uint256","name":"arbitrationWindow","type":"uint256"},{"internalType":"uint256","name":"marginCallDeadline","type":"uint256"},{"internalType":"bool","name":"dividendAdjustment","type":"bool"},{"internalType":"enum LiquidationRule","name":"liquidationRule","type":"uint8"},{"internalType":"uint8","name":"consecutiveDays","type":"uint8"},{"internalType":"uint8","name":"dailyLimitPercent","type":"uint8"},{"internalType":"enum FeedRule","name":"feedRule","type":"uint8"}],"name":"createBuyerRFQ","outputs":[{"internalType":"uint256","name":"orderId","type":"uint256"}],"stateMutability":"nonpayable","type":"function"},{"inputs":[{"internalType":"string","name":"underlyingName","type":"string"},{"internalType":"string","name":"underlyingCode","type":"string"},{"internalType":"string","name":"market","type":"string"},{"internalType":"string","name":"country","type":"string"},{"internalType":"string","name":"refPrice","type":"string"},{"internalType":"enum Direction","name":"direction","type":"uint8"},{"internalType":"uint256","name":"notionalUSDT","type":"uint256"},{"internalType":"uint256","name":"expiryTimestamp","type":"uint256"},{"internalType":"uint256","name":"premiumRate","type":"uint256"},{"internalType":"uint256","name":"marginAmount","type":"uint256"},{"internalType":"enum LiquidationRule","name":"liquidationRule","type":"uint8"},{"internalType":"uint8","name":"consecutiveDays","type":"uint8"},{"internalType":"uint8","name":"dailyLimitPercent","type":"uint8"},{"internalType":"uint256","name":"arbitrationWindow","type":"uint256"},{"internalType":"bool","name":"dividendAdjustment","type":"bool"},{"internalType":"uint8","name":"exerciseDelay","type":"uint8"},{"internalType":"enum FeedRule","name":"feedRule","type":"uint8"}],"name":"createSellerOrder","outputs":[{"internalType":"uint256","name":"orderId","type":"uint256"}],"stateMutability":"nonpayable","type":"function"},{"inputs":[{"internalType":"address","name":"buyer","type":"address"}],"name":"getBuyerOrders","outputs":[{"internalType":"uint256[]","name":"","type":"uint256[]"}],"stateMutability":"view","type":"function"},{"inputs":[{"internalType":"uint256","name":"orderId","type":"uint256"}],"name":"getOrder","outputs":[{"components":[{"internalType":"uint256","name":"orderId","type":"uint256"},{"internalType":"address","name":"buyer","type":"address"},{"internalType":"address","name":"seller","type":"address"},{"internalType":"string","name":"underlyingName","type":"string"},{"internalType":"string","name":"underlyingCode","type":"string"},{"internalType":"string","name":"market","type":"string"},{"internalType":"string","name":"country","type":"string"},{"internalType":"string","name":"refPrice","type":"string"},{"internalType":"enum Direction","name":"direction","type":"uint8"},{"internalType":"uint256","name":"notionalUSDT","type":"uint256"},{"internalType":"uint256","name":"strikePrice","type":"uint256"},{"internalType":"uint256","name":"expiryTimestamp","type":"uint256"},{"internalType":"uint256","name":"premiumRate","type":"uint256"},{"internalType":"uint256","name":"premiumAmount","type":"uint256"},{"internalType":"uint256","name":"initialMargin","type":"uint256"},{"internalType":"uint256","name":"currentMargin","type":"uint256"},{"internalType":"uint256","name":"minMarginRate","type":"uint256"},{"internalType":"uint256","name":"maxPremiumRate","type":"uint256"},{"internalType":"enum LiquidationRule","name":"liquidationRule","type":"uint8"},{"internalType":"uint8","name":"consecutiveDays","type":"uint8"},{"internalType":"uint8","name":"dailyLimitPercent","type":"uint8"},{"internalType":"uint8","name":"exerciseDelay","type":"uint8"},{"internalType":"enum SellerType","name":"sellerType","type":"uint8"},{"internalType":"address","name":"designatedSeller","type":"address"},{"internalType":"uint256","name":"arbitrationWindow","type":"uint256"},{"internalType":"uint256","name":"marginCallDeadline","type":"uint256"},{"internalType":"bool","name":"dividendAdjustment","type":"bool"},{"internalType":"enum FeedRule","name":"feedRule","type":"uint8"},{"internalType":"enum OrderStatus","name":"status","type":"uint8"},{"internalType":"uint256","name":"createdAt","type":"uint256"},{"internalType":"uint256","name":"matchedAt","type":"uint256"},{"internalType":"uint256","name":"settledAt","type":"uint256"},{"internalType":"uint256","name":"lastFeedPrice","type":"uint256"},{"internalType":"uint256","name":"dividendAmount","type":"uint256"}],"internalType":"struct Order","name":"","type":"tuple"}],"stateMutability":"view","type":"function"},{"inputs":[{"internalType":"string","name":"country","type":"string"}],"name":"getOrdersByCountry","outputs":[{"internalType":"uint256[]","name":"","type":"uint256[]"}],"stateMutability":"view","type":"function"},{"inputs":[{"internalType":"string","name":"market","type":"string"}],"name":"getOrdersByMarket","outputs":[{"internalType":"uint256[]","name":"","type":"uint256[]"}],"stateMutability":"view","type":"function"},{"inputs":[{"internalType":"uint256","name":"orderId","type":"uint256"}],"name":"getQuotes","outputs":[{"components":[{"internalType":"uint256","name":"quoteId","type":"uint256"},{"internalType":"uint256","name":"orderId","type":"uint256"},{"internalType":"address","name":"seller","type":"address"},{"internalType":"enum SellerType","name":"sellerType","type":"uint8"},{"internalType":"uint256","name":"premiumRate","type":"uint256"},{"internalType":"uint256","name":"premiumAmount","type":"uint256"},{"internalType":"uint256","name":"marginRate","type":"uint256"},{"internalType":"uint256","name":"marginAmount","type":"uint256"},{"internalType":"enum LiquidationRule","name":"liquidationRule","type":"uint8"},{"internalType":"uint8","name":"consecutiveDays","type":"uint8"},{"internalType":"uint8","name":"dailyLimitPercent","type":"uint8"},{"internalType":"uint256","name":"createdAt","type":"uint256"},{"internalType":"uint256","name":"expiresAt","type":"uint256"},{"internalType":"enum QuoteStatus","name":"status","type":"uint8"}],"internalType":"struct Quote[]","name":"","type":"tuple[]"}],"stateMutability":"view","type":"function"},{"inputs":[{"internalType":"bytes32","name":"role","type":"bytes32"}],"name":"getRoleAdmin","outputs":[{"internalType":"bytes32","name":"","type":"bytes32"}],"stateMutability":"view","type":"function"},{"inputs":[{"internalType":"address","name":"seller","type":"address"}],"name":"getSellerOrders","outputs":[{"internalType":"uint256[]","name":"","type":"uint256[]"}],"stateMutability":"view","type":"function"},{"inputs":[{"internalType":"bytes32","name":"role","type":"bytes32"},{"internalType":"address","name":"account","type":"address"}],"name":"grantRole","outputs":[],"stateMutability":"nonpayable","type":"function"},{"inputs":[{"internalType":"bytes32","name":"role","type":"bytes32"},{"internalType":"address","name":"account","type":"address"}],"name":"hasRole","outputs":[{"internalType":"bool","name":"","type":"bool"}],"stateMutability":"view","type":"function"},{"inputs":[],"name":"nextOrderId","outputs":[{"internalType":"uint256","name":"","type":"uint256"}],"stateMutability":"view","type":"function"},{"inputs":[],"name":"nextQuoteId","outputs":[{"internalType":"uint256","name":"","type":"uint256"}],"stateMutability":"view","type":"function"},{"inputs":[{"internalType":"uint256","name":"orderId","type":"uint256"},{"internalType":"enum FeedType","name":"feedType","type":"uint8"}],"name":"onFeedRequested","outputs":[],"stateMutability":"nonpayable","type":"function"},{"inputs":[{"internalType":"uint256","name":"","type":"uint256"},{"internalType":"uint256","name":"","type":"uint256"}],"name":"orderQuotes","outputs":[{"internalType":"uint256","name":"quoteId","type":"uint256"},{"internalType":"uint256","name":"orderId","type":"uint256"},{"internalType":"address","name":"seller","type":"address"},{"internalType":"enum SellerType","name":"sellerType","type":"uint8"},{"internalType":"uint256","name":"premiumRate","type":"uint256"},{"internalType":"uint256","name":"premiumAmount","type":"uint256"},{"internalType":"uint256","name":"marginRate","type":"uint256"},{"internalType":"uint256","name":"marginAmount","type":"uint256"},{"internalType":"enum LiquidationRule","name":"liquidationRule","type":"uint8"},{"internalType":"uint8","name":"consecutiveDays","type":"uint8"},{"internalType":"uint8","name":"dailyLimitPercent","type":"uint8"},{"internalType":"uint256","name":"createdAt","type":"uint256"},{"internalType":"uint256","name":"expiresAt","type":"uint256"},{"internalType":"enum QuoteStatus","name":"status","type":"uint8"}],"stateMutability":"view","type":"function"},{"inputs":[{"internalType":"uint256","name":"","type":"uint256"}],"name":"orders","outputs":[{"internalType":"uint256","name":"orderId","type":"uint256"},{"internalType":"address","name":"buyer","type":"address"},{"internalType":"address","name":"seller","type":"address"},{"internalType":"string","name":"underlyingName","type":"string"},{"internalType":"string","name":"underlyingCode","type":"string"},{"internalType":"string","name":"market","type":"string"},{"internalType":"string","name":"country","type":"string"},{"internalType":"string","name":"refPrice","type":"string"},{"internalType":"enum Direction","name":"direction","type":"uint8"},{"internalType":"uint256","name":"notionalUSDT","type":"uint256"},{"internalType":"uint256","name":"strikePrice","type":"uint256"},{"internalType":"uint256","name":"expiryTimestamp","type":"uint256"},{"internalType":"uint256","name":"premiumRate","type":"uint256"},{"internalType":"uint256","name":"premiumAmount","type":"uint256"},{"internalType":"uint256","name":"initialMargin","type":"uint256"},{"internalType":"uint256","name":"currentMargin","type":"uint256"},{"internalType":"uint256","name":"minMarginRate","type":"uint256"},{"internalType":"uint256","name":"maxPremiumRate","type":"uint256"},{"internalType":"enum LiquidationRule","name":"liquidationRule","type":"uint8"},{"internalType":"uint8","name":"consecutiveDays","type":"uint8"},{"internalType":"uint8","name":"dailyLimitPercent","type":"uint8"},{"internalType":"uint8","name":"exerciseDelay","type":"uint8"},{"internalType":"enum SellerType","name":"sellerType","type":"uint8"},{"internalType":"address","name":"designatedSeller","type":"address"},{"internalType":"uint256","name":"arbitrationWindow","type":"uint256"},{"internalType":"uint256","name":"marginCallDeadline","type":"uint256"},{"internalType":"bool","name":"dividendAdjustment","type":"bool"},{"internalType":"enum FeedRule","name":"feedRule","type":"uint8"},{"internalType":"enum OrderStatus","name":"status","type":"uint8"},{"internalType":"uint256","name":"createdAt","type":"uint256"},{"internalType":"uint256","name":"matchedAt","type":"uint256"},{"internalType":"uint256","name":"settledAt","type":"uint256"},{"internalType":"uint256","name":"lastFeedPrice","type":"uint256"},{"internalType":"uint256","name":"dividendAmount","type":"uint256"}],"stateMutability":"view","type":"function"},{"inputs":[],"name":"pause","outputs":[],"stateMutability":"nonpayable","type":"function"},{"inputs":[],"name":"paused","outputs":[{"internalType":"bool","name":"","type":"bool"}],"stateMutability":"view","type":"function"},{"inputs":[{"internalType":"uint256","name":"orderId","type":"uint256"},{"internalType":"enum FeedType","name":"feedType","type":"uint8"},{"internalType":"uint256","name":"finalPrice","type":"uint256"}],"name":"processFeedCallback","outputs":[],"stateMutability":"nonpayable","type":"function"},{"inputs":[{"internalType":"uint256","name":"orderId","type":"uint256"},{"internalType":"uint256","name":"finalPrice","type":"uint256"}],"name":"processFinalFeedResult","outputs":[],"stateMutability":"nonpayable","type":"function"},{"inputs":[{"internalType":"uint256","name":"orderId","type":"uint256"},{"internalType":"uint256","name":"initialPrice","type":"uint256"}],"name":"processInitialFeedResult","outputs":[],"stateMutability":"nonpayable","type":"function"},{"inputs":[{"internalType":"uint256","name":"","type":"uint256"}],"name":"quotes","outputs":[{"internalType":"uint256","name":"quoteId","type":"uint256"},{"internalType":"uint256","name":"orderId","type":"uint256"},{"internalType":"address","name":"seller","type":"address"},{"internalType":"enum SellerType","name":"sellerType","type":"uint8"},{"internalType":"uint256","name":"premiumRate","type":"uint256"},{"internalType":"uint256","name":"premiumAmount","type":"uint256"},{"internalType":"uint256","name":"marginRate","type":"uint256"},{"internalType":"uint256","name":"marginAmount","type":"uint256"},{"internalType":"enum LiquidationRule","name":"liquidationRule","type":"uint8"},{"internalType":"uint8","name":"consecutiveDays","type":"uint8"},{"internalType":"uint8","name":"dailyLimitPercent","type":"uint8"},{"internalType":"uint256","name":"createdAt","type":"uint256"},{"internalType":"uint256","name":"expiresAt","type":"uint256"},{"internalType":"enum QuoteStatus","name":"status","type":"uint8"}],"stateMutability":"view","type":"function"},{"inputs":[{"internalType":"bytes32","name":"role","type":"bytes32"},{"internalType":"address","name":"callerConfirmation","type":"address"}],"name":"renounceRole","outputs":[],"stateMutability":"nonpayable","type":"function"},{"inputs":[{"internalType":"uint256","name":"orderId","type":"uint256"},{"internalType":"enum FeedTier","name":"tier","type":"uint8"}],"name":"requestFeed","outputs":[],"stateMutability":"payable","type":"function"},{"inputs":[{"internalType":"bytes32","name":"role","type":"bytes32"},{"internalType":"address","name":"account","type":"address"}],"name":"revokeRole","outputs":[],"stateMutability":"nonpayable","type":"function"},{"inputs":[{"internalType":"address","name":"","type":"address"},{"internalType":"uint256","name":"","type":"uint256"}],"name":"sellerOrders","outputs":[{"internalType":"uint256","name":"","type":"uint256"}],"stateMutability":"view","type":"function"},{"inputs":[{"internalType":"address","name":"_config","type":"address"}],"name":"setConfig","outputs":[],"stateMutability":"nonpayable","type":"function"},{"inputs":[{"internalType":"address","name":"_vaultManager","type":"address"}],"name":"setVaultManager","outputs":[],"stateMutability":"nonpayable","type":"function"},{"inputs":[{"internalType":"uint256","name":"orderId","type":"uint256"},{"internalType":"uint256","name":"premiumRate","type":"uint256"},{"internalType":"uint256","name":"marginRate","type":"uint256"},{"internalType":"enum LiquidationRule","name":"liquidationRule","type":"uint8"},{"internalType":"uint8","name":"consecutiveDays","type":"uint8"},{"internalType":"uint8","name":"dailyLimitPercent","type":"uint8"}],"name":"submitQuote","outputs":[{"internalType":"uint256","name":"quoteId","type":"uint256"}],"stateMutability":"nonpayable","type":"function"},{"inputs":[{"internalType":"bytes4","name":"interfaceId","type":"bytes4"}],"name":"supportsInterface","outputs":[{"internalType":"bool","name":"","type":"bool"}],"stateMutability":"view","type":"function"},{"inputs":[],"name":"unpause","outputs":[],"stateMutability":"nonpayable","type":"function"},{"inputs":[{"internalType":"uint256","name":"orderId","type":"uint256"},{"internalType":"uint256","name":"amount","type":"uint256"}],"name":"updateOrderDividend","outputs":[],"stateMutability":"nonpayable","type":"function"},{"inputs":[{"internalType":"uint256","name":"orderId","type":"uint256"},{"internalType":"uint256","name":"newMargin","type":"uint256"}],"name":"updateOrderMargin","outputs":[],"stateMutability":"nonpayable","type":"function"},{"inputs":[{"internalType":"uint256","name":"orderId","type":"uint256"},{"internalType":"uint256","name":"deadline","type":"uint256"}],"name":"updateOrderMarginCallDeadline","outputs":[],"stateMutability":"nonpayable","type":"function"},{"inputs":[{"internalType":"uint256","name":"orderId","type":"uint256"},{"internalType":"uint256","name":"newPrice","type":"uint256"}],"name":"updateOrderPrice","outputs":[],"stateMutability":"nonpayable","type":"function"},{"inputs":[{"internalType":"uint256","name":"orderId","type":"uint256"},{"internalType":"uint256","name":"timestamp","type":"uint256"}],"name":"updateOrderSettledAt","outputs":[],"stateMutability":"nonpayable","type":"function"},{"inputs":[{"internalType":"uint256","name":"orderId","type":"uint256"},{"internalType":"enum OrderStatus","name":"newStatus","type":"uint8"}],"name":"updateOrderStatus","outputs":[],"stateMutability":"nonpayable","type":"function"},{"inputs":[{"internalType":"uint256","name":"orderId","type":"uint256"},{"internalType":"uint256","name":"price","type":"uint256"}],"name":"updateOrderStrikePrice","outputs":[],"stateMutability":"nonpayable","type":"function"},{"inputs":[],"name":"usdt","outputs":[{"internalType":"contract IERC20","name":"","type":"address"}],"stateMutability":"view","type":"function"},{"inputs":[],"name":"vaultManager","outputs":[{"internalType":"contract VaultManager","name":"","type":"address"}],"stateMutability":"view","type":"function"}],"evm":{"bytecode":{"linkReferences":{},"object":"608034620000f557601f620054de38819003918201601f19168301916001600160401b03831184841017620000fa57808492608094604052833981010312620000f5578062000052620000e49262000110565b90620000616020820162000110565b906200007e6060620000766040840162000110565b920162000110565b6001808055600581905560065560028054610100600160a81b03191660089590951b610100600160a81b031694909417909355600380546001600160a01b03199081166001600160a01b0394851617909155600480549091169190921617905562000125565b506040516153279081620001b78239f35b600080fd5b634e487b7160e01b600052604160045260246000fd5b51906001600160a01b0382168203620000f557565b6001600160a01b031660008181527fad3228b676f7d3cd4284a5443f17f1962b36e491b30a40b2405849e597ba5fb5602052604081205490919060ff16620001b257818052816020526040822081835260205260408220600160ff1982541617905533917f2f8788117e7eff1d82e926ec794901d17c78024a50270940304540a733656f0d8180a4600190565b509056fe610280604052600436101561001357600080fd5b6000803560e01c806301d0d5b814613cf157806301ffc9a714613c9a57806315d92e3314613c535780631c0dd7e814613c0c57806320e3dbd414613bc2578063248a9ca314613b965780632a58b33014613b785780632f2ff15d14613b3b5780632f48ab7d14613b12578063305cddfd146139535780633087a88c146134aa57806336568abe146134625780633ab3784a1461325a5780633f4ba83a146131ef57806342dd6d3e146130c357806344f1eaae1461307c5780634500cb601461303457806345cb450514612fde5780634efef6aa14612fc05780635c975abb14612f9d5780635d7ffe7b14612bad5780635e9e78d014612b6657806367ac0bf0146127ee5780636dbe7579146125ac5780637203a5821461216057806379502c55146121335780637d900421146120a65780638456cb591461204b5780638a4adf241461202257806391d1485414611fd7578063979b4e6d146115e9578063a217fddf146115cd578063a45f2ebc1461155a578063a61cf0d4146114c7578063a85c38ef146110ec578063aab3196d1461107f578063b543503e1461103a578063ba9cf01d14611011578063bc0ef26b14610e4f578063cdc65ab614610e26578063cf3fec4314610d99578063d049bfef14610b4c578063d09ef241146105c2578063d37e527b1461057b578063d426aec114610534578063d547741f146104f3578063e02e34f814610368578063e4cbac40146102e55763f7ff64261461023957600080fd5b346102e2576102473661472f565b90825260086020526040822080548210156102de576102669250614a24565b508054906102da600182015460028301549260038101549460048201549260058301549160068401549060078501549160088601549460ff600a600989015498015416976040519b8c9b8c60ff8860101c169860ff808a60081c1699169760ff8460a01c169360018060a01b0316926147ee565b0390f35b8280fd5b80fd5b50346102e257602080600319360112610364576001600160a01b03610308614745565b168252600b815260408220916040518092808554928381520194835280832092905b82821061034d576102da85610341818903826149aa565b6040519182918261479f565b83548652948501946001938401939091019061032a565b5080fd5b50346102e2576103773661472f565b811515806104e8575b61038990614f09565b610391614aa8565b81600052600760205260406000209080156104a657601582019182549260ff8460101c1691600b83101561049057600283148015610486575b1561044457600080516020615292833981519152948460198360c097600a62040000960155015562ff000019161790556104076040518092614a17565b60046020820152608060408201526015608082015274696e697469616c20666565642063616c6c6261636b60581b60a0820152426060820152a280f35b60405162461bcd60e51b815260206004820152602660248201526000805160206152328339815191526044820152651b081999595960d21b6064820152608490fd5b50600383146103ca565b634e487b7160e01b600052602160045260246000fd5b60405162461bcd60e51b815260206004820152601a6024820152794f7074696f6e73436f72653a20696e76616c696420707269636560301b6044820152606490fd5b506005548210610380565b50346102e25760403660031901126102e25761053060043561051361475b565b908084528360205261052b6001604086200154614b2c565b614bd0565b5080f35b50346102e2576105433661472f565b9080151580610570575b61055690614f09565b61055e614a40565b82526007602052600a60408320015580f35b50600554811061054d565b50346102e25761058a3661472f565b90801515806105b7575b61059d90614f09565b6105a5614a40565b82526007602052601460408320015580f35b506005548110610594565b50346102e25760203660031901126102e257806104206040516105e48161498e565b82815282602082015282604082015260608082015260606080820152606060a0820152606060c0820152606060e08201528261010082015282610120820152826101408201528261016082015282610180820152826101a0820152826101c0820152826101e08201528261020082015282610220820152826102408201528261026082015282610280820152826102a0820152826102c0820152826102e08201528261030082015282610320820152826103408201528261036082015282610380820152826103a0820152826103c0820152826103e08201528261040082015201526004358152600760205260408120604051916106e18361498e565b8154835260018201546001600160a01b039081166020850152600283015416604080850191909152516107228161071b81600387016148b3565b03826149aa565b606084015260405161073b8161071b81600487016148b3565b60808401526040516107548161071b81600587016148b3565b60a084015260405161076d8161071b81600687016148b3565b60c08401526040516107868161071b81600787016148b3565b60e084015260ff60088301541661079c81614a0d565b6101008401526009820154610120840152600a820154610140840152600b820154610160840152600c820154610180840152600d8201546101a0840152600e8201546101c0840152600f8201546101e084015260108201546102008401526011820154610220840152601282015461081660ff82166147da565b60ff811661024085015260ff8160081c1661026085015260ff8160101c1661028085015260ff8160181c166102a085015261085660ff8260201c166147da565b60ff8160201c166102c085015260018060a01b039060281c166102e08401526013820154610300840152601482015461032084015260158201549060ff821615156103408501526108ac60ff8360081c16614a0d565b60ff8260081c16610360850152600b60ff8360101c161015610b3857509060ff601a9260101c1661038084015260168101546103a084015260178101546103c084015260188101546103e0840152601981015461040084015201546104208201526040518091602082528051602083015260018060a01b03602082015116604083015260018060a01b0360408201511660608301526104206109c2610962606084015161044060808701526104608601906149cd565b6109ac610998610984608087015193601f1994858a83030160a08b01526149cd565b60a0870151848983030160c08a01526149cd565b60c0860151838883030160e08901526149cd565b9060e085015190868303016101008701526149cd565b916101008101516109d281614a0d565b6101208501526101208101516101408501526101408101516101608501526101608101516101808501526101808101516101a08501526101a08101516101c08501526101c08101516101e08501526101e0810151610200850152610200810151610220850152610220810151610240850152610240810151610a53816147da565b61026085015260ff6102608201511661028085015260ff610280820151166102a085015260ff6102a0820151166102c08501526102c0810151610a95816147da565b6102e085015260018060a01b036102e0820151166103008501526103008101516103208501526103208101516103408501526103408101511515610360850152610360810151610ae481614a0d565b610380850152610afe6103808201516103a0860190614a17565b6103a08101516103c08501526103c08101516103e08501526103e08101516104008501526104008101518285015201516104408301520390f35b634e487b7160e01b81526021600452602490fd5b50346102e257602090816003193601126102e257600435815260088083526040822080549093906001600160401b038111610d855791849192604051916005610b998684831b01856149aa565b82845285840191829588528688209188935b858510610ca8575050505050506040519280840191818552518092526040840192945b828110610bdb5784840385f35b909192826101c06001928851805182528381015184830152848060a01b03604082015116604083015260608082015190610c14826147da565b8301526080808201519083015260a0808201519083015260c0808201519083015260e081015160e08301526101008082015190610c50826147da565b83015260ff6101208181840151169084015261014090818301511690830152610160808201519083015261018080820151908301526101a08091015190610c96826147e4565b82015201960191019492919094610bce565b600b8960019260409c9b999a9c51610cbf81614972565b8754815284880154838201526002880154858060a01b038116604083015260ff908160a091821c16610cf0816147da565b606084015260038a0154608084015260048a0154908301528689015460c0830152600689015460e08301528060078a0154818116610d2d816147da565b61010085015281818b1c1661012085015260101c16610140830152878901546101608301526009890154610180830152600a89015416610d6c816147e4565b6101a08201528152019401940193929896959798610bab565b634e487b7160e01b84526041600452602484fd5b50346102e257602080600319360112610364576004356001600160401b0381116102de57610dcc829136906004016146f2565b91908260405193849283378101600c815203019020916040518092808554928381520194835280832092905b828210610e0f576102da85610341818903826149aa565b835486529485019460019384019390910190610df8565b50346102e257806003193601126102e25760206040516000805160206152728339815191528152f35b50346102e257602080600319360112610364576004359081151580611006575b610e7890614f09565b81835260078152610e9960018060a01b036001604086200154163314614e4a565b610ea1614e27565b610ea9614e09565b818352600781526015604084200160ff815460101c16600b81101580610ff25781158015610fe5575b15610f9157610f7d5760008051602061529283398151915292610f4860ff936001600a9414610f6f575b805490620a000062ff0000198316179055866000805160206152528339815191526040516040815280610f3160408201614f55565b42888301520390a260405194859160101c16614a17565b8201526080604082015280610f5f60808201614f55565b4260608301520390a26001805580f35b610f7887614fa2565b610efc565b634e487b7160e01b85526021600452602485fd5b60405162461bcd60e51b815260048101859052602660248201527f4f7074696f6e73436f72653a2063616e6e6f742063616e63656c206166746572604482015265040dac2e8c6d60d31b6064820152608490fd5b5050600060018214610ed2565b634e487b7160e01b86526021600452602486fd5b506005548210610e6f565b50346102e257806003193601126102e25760206040516000805160206151f28339815191528152f35b50346102e25760203660031901126102e257611054614745565b61105c614aa8565b600380546001600160a01b0319166001600160a01b039290921691909117905580f35b50346102e25760403660031901126102e257602435600435600b8210156102de57801515806110e1575b6110b290614f09565b6110ba614a40565b82526007602052601560408320019062ff000082549160101b169062ff0000191617905580f35b5060055481106110a9565b50346102e25760203660031901126102e2576004358152600760205260409081902061022081905280546101805260018101546001600160a01b039081166101c0526002820154925160e08190529216919061114c9082906003016148b3565b0360e0519061115a916149aa565b60405180806102205160040190611170916148b3565b0361117b90826149aa565b6040519182806102205160050190611192916148b3565b0361119d90846149aa565b60405191828061022051600601906111b4916148b3565b036111bf90846149aa565b60405193848061022051600701906111d6916148b3565b036111e190866149aa565b6102205193600885015460ff1661016052600985015495600a860154600b87015491600c88015493600d89015495600e8a015497600f8b01549960108c01549b601181015461014052601281015461020052601381015461010052601481015461024052601581015460c05260168101546102605260178101546101e052601881015460a0526019810154608052601a01546101a05260405180610120526101805190526101c05161012051602001526101205160400152610440806101205160600152610120510160e051906112b7916149cd565b6101205180820390608001526112cc916149cd565b610120518082039060a001526112e1916149cd565b610120518082039060c001526112f6916149cd565b610120518082039060e0015261130b916149cd565b976101605161131990614a0d565b61016051610120516101000152610120516101200152610120516101400152610120516101600152610120516101800152610120516101a00152610120516101c00152610120516101e00152610120516102000152610140516101205161022001526102005160ff1661138b906147da565b6102005160ff166101205161024001526102005160081c60ff166101205161026001526102005160101c60ff166101205161028001526102005160181c60ff16610120516102a001526102005160201c60ff166113e7906147da565b6102005160201c60ff16610120516102c00152600160a01b600190036102005160281c16610120516102e00152610100516101205161030001526102405161012051610320015260c05160ff16151561012051610340015260c05160081c60ff1661145190614a0d565b60c05160081c60ff16610120516103600152610120516103800160c05160101c60ff169061147e91614a17565b61026051610120516103a001526101e051610120516103c0015260a051610120516103e001526080516101205161040001526101a0516101205161042001526101205180910390f35b50346102e25760203660031901126102e25760409060043581526009602052208054906102da600182015460028301549260038101549460048201549260058301549160068401549060078501549160088601549460ff600a600989015498015416976040519b8c9b8c60ff8860101c169860ff808a60081c1699169760ff8460a01c169360018060a01b0316926147ee565b50346102e257602080600319360112610364576001600160a01b0361157d614745565b168252600a815260408220916040518092808554928381520194835280832092905b8282106115b6576102da85610341818903826149aa565b83548652948501946001938401939091019061159f565b50346102e257806003193601126102e257602090604051908152f35b50346102e2576102603660031901126102e2576004356001600160401b0381116103645761161b9036906004016146f2565b6024356001600160401b038111611fd35761163a9036906004016146f2565b906044356001600160401b038111611f835761165a9036906004016146f2565b906064356001600160401b038111611fcf5761167a9036906004016146f2565b906084356001600160401b038111611fcb5761169a9036906004016146f2565b999098600260a435101561036457600361014435101561036457610164356001600160a01b0381169003611fb3576116d061471f565b60036101e43510156102de5760ff61020435166102043503611fb35760ff61022435166102243503611fb35760026102443510156102de57611710614e27565b611718614e09565b61172560c4351515614c45565b6117324260e43511614ca0565b600354600480546002546040516337382d3960e21b8152936001600160a01b0390811693928116926020928692839160081c165afa928315611fc0578693611f87575b50813b15611f83579185916117a2938360405180968195829463ec185a0760e01b84523360048501614cfa565b03925af18015611f7857908491611f64575b5050600554996117c38b614d40565b6005558a84526007602052604084208b81556001810180546001600160a01b03191633179055926001600160401b038211611f505781906118076003860154614879565b601f8111611eff575b508590601f8311600114611e93578692611e88575b50508160011b916000199060031b1c19161760038301555b6001600160401b038911611c44576118586004830154614879565b601f8111611e43575b508883601f8211600114611dd7578491611dcc575b508960011b906000198b60031b1c19161760048301555b6001600160401b038711611c44576118a86005830154614879565b601f8111611d87575b508683601f8211600114611d1d578491611d12575b508760011b906000198960031b1c19161760058301555b6001600160401b038511611c44576118f86006830154614879565b601f8111611ccd575b508483601f8211600114611c63578491611c58575b508560011b906000198760031b1c19161760068301555b6001600160401b038c11611c44576119486007830154614879565b9b601f8d11611bfb575b60209c50839b601f8211600114611b68579a611ad4968e829e97611aa4611aec9f859f9e9c978a859f9b9a6040928a8a9f9b611abc9c8a9f978d9892611b5d575b50508160011b916000199060031b1c19161760078301555b6119ba60a43560088401614d65565b60c435600983015560e435600b830155610104356011830155610124356010830155611a7a601283016119ef610144356147da565b8054600160281b600160c81b036101643560281b1660ff6101443581168d1b60018e1b600160c81b0319909316929092171782556101843560138601556101a435601486015560158501805460ff1916941515909116939093178355805463ff00000019168155611a636101e43582614d7d565b611a706102043582614d87565b6102243590614d9d565b611a876102443582614db5565b62ff0000198154169055601642910155338152600a865220614dd4565b8260405193849283378101600c815203019020614dd4565b8260405193849283378101600d815203019020614dd4565b8260405193849283378101600e815203019020614dd4565b604051600181524283820152816000805160206152b283398151915260403393a38060008051602061529283398151915260c06040516000815260008682015260806040820152600760808201526618dc99585d195960ca1b60a0820152426060820152a260018055604051908152f35b013590503880611993565b6007840185528d852090859d8e5b601f19851611611be3578f9a968e9f5097611aa4611aec9f9e9d9b968f9a6040908f9a8d9893611ad49f988b8b968f9a92600193611abc9f601f19811610611bc9575b505050811b0160078301556119ab565b0135600019600384901b60f8161c19169055388080611bb9565b918f600181928585013581550193019e019d8e611b76565b60078301845260208420601f820160051c810160208310611c3d575b601f8f5b0160051c82018110611c2e575050611952565b60008155600101601f8f611c1b565b5080611c17565b634e487b7160e01b83526041600452602483fd5b905084013538611916565b600684018552602085209150845b601f1988168110611cb5575086601f19811610611c9b575b5050600185811b01600683015561192d565b850135600019600388901b60f8161c191690553880611c89565b9091602060018192858a013581550193019101611c71565b60068301845260208420601f870160051c810160208810611d0b575b601f830160051c82018110611cff575050611901565b60008155600101611ce9565b5080611ce9565b9050860135386118c6565b600584018552602085209150845b601f198a168110611d6f575088601f19811610611d55575b5050600187811b0160058301556118dd565b87013560001960038a901b60f8161c191690553880611d43565b9091602060018192858c013581550193019101611d2b565b60058301845260208420601f890160051c810160208a10611dc5575b601f830160051c82018110611db95750506118b1565b60008155600101611da3565b5080611da3565b905088013538611876565b600484018552602085209150845b8a601f198d168210611e2b5750508a601f19811610611e11575b5050600189811b01600483015561188d565b89013560001960038c901b60f8161c191690553880611dff565b60018394602093948493013581550193019101611de5565b60048301845260208420601f8b0160051c810160208c10611e81575b601f830160051c82018110611e75575050611861565b60008155600101611e5f565b5080611e5f565b013590503880611825565b60038601875260208720879450915b601f1984168510611ee7576001945083601f19811610611ecd575b505050811b01600383015561183d565b0135600019600384901b60f8161c19169055388080611ebd565b81810135835560209485019460019093019201611ea2565b90915060038501865260208620601f840160051c810160208510611f49575b90849392915b601f830160051c82018110611f3a575050611810565b60008155859450600101611f24565b5080611f1e565b634e487b7160e01b85526041600452602485fd5b611f6d90614949565b6102de5782386117b4565b6040513d86823e3d90fd5b8580fd5b9092506020813d602011611fb8575b81611fa3602093836149aa565b81010312611fb357519138611775565b600080fd5b3d9150611f96565b6040513d88823e3d90fd5b8980fd5b8780fd5b8380fd5b50346102e25760403660031901126102e2576040611ff361475b565b91600435815280602052209060018060a01b0316600052602052602060ff604060002054166040519015158152f35b50346102e257806003193601126102e2576003546040516001600160a01b039091168152602090f35b50346102e257806003193601126102e257612064614aa8565b61206c614e09565b600160ff1960025416176002557f62e78cea01bee320cd4e420270b5ea74000d11b0c9f74754ebdbfc544b05a2586020604051338152a180f35b50346102e257602080600319360112610364576004356001600160401b0381116102de576120d9829136906004016146f2565b91908260405193849283378101600d815203019020916040518092808554928381520194835280832092905b82821061211c576102da85610341818903826149aa565b835486529485019460019384019390910190612105565b50346102e257806003193601126102e25760025460405160089190911c6001600160a01b03168152602090f35b50346102e25760c03660031901126102e257600360643510156102e25760843560ff81168103611fb35760a4359060ff82168203611fb35760043515158061259f575b6121ac90614f09565b6121b4614e27565b6121bc614e09565b60043583526007602052604083209060ff601583015460101c16600b811015610f7d578015908115612594575b501561253f576009820154906127106122138161220860243586614e8f565b049360443590614e8f565b04906011840154806124e1575b5060108401546044351061249d5760035460045487916001600160a01b039182169116803b156102de5784839161226f9383604051809681958294630ac94d9360e31b84523360048501614ea2565b03925af180156124925761247e575b50506006549461228d86614d40565b6006556002546040516306a15d6d60e11b8152906020908290600490829060081c6001600160a01b03165afa908115612473578891612440575b5060ff926122d6849242614f77565b94604051966122e488614972565b89885260043560208901523360408901528a6060890152602435608089015260a088015260443560c088015260e08701526123206064356147da565b606435610100870152166101208501521661014083015242610160830152610180820152836101a0820152828452600960205261236081604086206150e1565b6004358452600860205260408420805490600160401b82101561242c579061238d91600182018155614a24565b612418579061239b916150e1565b601581015460ff8160101c16600b811015610f7d576020945015612400575b5050604051602435815242838201528133917f878fe3f9bca373e42473c1f3ad3c9c35c4f1ecaf9a5f081a801a3fbd43049f55604060043592a460018055604051908152f35b6201000060159162ff000019161791015538806123ba565b634e487b7160e01b85526004859052602485fd5b634e487b7160e01b86526041600452602486fd5b90506020813d60201161246b575b8161245b602093836149aa565b81010312611fb3575160ff6122c7565b3d915061244e565b6040513d8a823e3d90fd5b61248790614949565b611f8357853861227e565b6040513d84823e3d90fd5b606460405162461bcd60e51b815260206004820152602060248201527f4f7074696f6e73436f72653a206d617267696e207261746520746f6f206c6f776044820152fd5b602435116124ef5738612220565b60405162461bcd60e51b815260206004820152602260248201527f4f7074696f6e73436f72653a207072656d69756d207261746520746f6f2068696044820152610ced60f31b6064820152608490fd5b60405162461bcd60e51b815260206004820152602760248201527f4f7074696f6e73436f72653a206f72646572206e6f7420616363657074696e676044820152662071756f74657360c81b6064820152608490fd5b6001915014386121e9565b50600554600435106121a3565b5060403660031901126102e25760243560043560038210156102de57801515806127e3575b6125da90614f09565b80835260076020526125fc60018060a01b036001604086200154163314614e4a565b612604614e27565b61260c614e09565b808352600760205260408320601581019283549360ff8560101c1690600b8210156127cf57600282036127315760008051602061529283398151915260c06000805160206152128339815191529594938793620300008b9a62ff0000191617905561267a6040518092614a17565b600360208201526080604082015260166080820152751a5b9a5d1a585b0819995959081c995c5d595cdd195960521b60a0820152426060820152a25b6009820154906126fc6040519360e0855260066126ed6126dc60e08801600485016148b3565b8781036020890152600584016148b3565b918683036040880152016148b3565b95612706816147e4565b6060840152612714816147da565b608083015260a08201524260c08201528033940390a36001805580f35b50909350600581036127565750600080516020615212833981519152906002936126b6565b60040361277557600080516020615212833981519152906001936126b6565b60405162461bcd60e51b815260206004820152602c60248201527f4f7074696f6e73436f72653a20696e76616c69642073746174757320666f722060448201526b19995959081c995c5d595cdd60a21b6064820152608490fd5b634e487b7160e01b87526021600452602487fd5b5060055481106125d1565b50346102e257602080600319360112610364576004359081151580612b5b575b61281790614f09565b61281f614e27565b612827614e09565b8183526007815260408320601581019182549360ff8560101c1692600b8410156127cf5783612b18576002810180546001600160a01b03969193919087168015612ad3573314612a82576001830180546001600160a01b0319163317815562ff000019909816620200001790554260178301556009820154600254604051631c03be3560e31b81528a92909187908390600490829060081c8d165afa918215612a3f578392612a4e575b50612710916128df91614e8f565b0487600354168860045416600d860154823b15612a4a5761291a92859283604051809681958294630ac94d9360e31b84523360048501614ea2565b03925af1908115612a3f578391612a2b575b5050876003541690886004541690823b15611fd3576129659284928360405180968195829463ec185a0760e01b84523360048501614ec4565b03925af1801561249257612a0d575b505091856000805160206152928339815191529660c09695936129a3600296338d52600a875260408d20614dd4565b5498541691541690876000805160206152d283398151915284604051428152a46129d06040518094614a17565b8201526080604082015260156080820152741cd95b1b195c881bdc99195c881858d8d95c1d1959605a1b60a0820152426060820152a26001805580f35b612a1c90969593949296614949565b611fcf57919092938738612974565b612a3490614949565b61036457813861292c565b6040513d85823e3d90fd5b8480fd5b925090508582813d8111612a7b575b612a6781836149aa565b81010312611fb357905189916128df6128d1565b503d612a5d565b60405162461bcd60e51b8152600481018690526024808201527f4f7074696f6e73436f72653a2063616e6e6f7420616363657074206f776e206f604482015263393232b960e11b6064820152608490fd5b60405162461bcd60e51b815260048101879052601f60248201527f4f7074696f6e73436f72653a206e6f7420612073656c6c6572206f72646572006044820152606490fd5b6064836040519062461bcd60e51b825280600483015260248201527f4f7074696f6e73436f72653a206f72646572206e6f7420617661696c61626c656044820152fd5b50600554821061280e565b50346102e257612b753661472f565b9080151580612ba2575b612b8890614f09565b612b90614a40565b82526007602052601960408320015580f35b506005548110612b7f565b50346102e2576020806003193601126103645760043590612bcc614e27565b612bd4614e09565b818352600981526040832060ff90600a92828483015416612bf4816147e4565b612f595760098201544211612f18576001948583015487526007825260408720948686019560018060a01b0390612c2f828954163314614e4a565b60158101938454946202000062ff0000198716179055600296878101948c85875416968a86019760018060a01b0319895416178855612cb5600760048601958654600d8a0155600681015480600e8b0155600f8a0155018d8082541691612c9a60128b019384614d7d565b612caa82825460081c1684614d87565b5460101c1690614d9d565b42601787015560048b8b8960098a0154925460081c1660405193848092631c03be3560e31b82525afa918215611f78578492612ee4575b5061271091612cfa91614e8f565b049387600354169088600454169054823b15612a4a57612d3492859283604051809681958294630ac94d9360e31b84523360048501614ea2565b03925af1908115612a3f578391612ed0575b5050866003541693876004541690853b15611fd357612d7f9584928360405180998195829463ec185a0760e01b84523360048501614ec4565b03925af1908115612492578e948892612eb5575b5054168152600b8952604090208454612dab91614dd4565b83548d526008885260408d208d835b612e43575b50505050509260008051602061529283398151915296949282612e0f9360c09896549a541691541690896000805160206152d283398151915286604051428152a460405194859160101c16614a17565b82015260806040820152600e60808201526d1c5d5bdd19481858d8d95c1d195960921b60a0820152426060820152a2805580f35b8154811015612eb0578085612e5b612e6e9385614a24565b5054141580612e90575b612e7457614d40565b83612dba565b83612e7f8285614a24565b5001805460ff19168d179055614d40565b508c84612e9d8386614a24565b50015416612eaa816147e4565b15612e65565b612dbf565b612ec3919550839250614949565b6102e257858d9338612d93565b612ed990614949565b610364578138612d46565b935090508a83813d8111612f11575b612efd81836149aa565b81010312611fb35791518f92612cfa612cec565b503d612ef3565b6064906040519062461bcd60e51b82526004820152601a60248201527913dc1d1a5bdb9cd0dbdc994e881c5d5bdd1948195e1c1a5c995960321b6044820152fd5b6064906040519062461bcd60e51b82526004820152601d60248201527f4f7074696f6e73436f72653a2071756f7465206e6f74206163746976650000006044820152fd5b50346102e257806003193601126102e257602060ff600254166040519015158152f35b50346102e257806003193601126102e2576020600654604051908152f35b50346102e25760403660031901126102e257612ff8614745565b6001600160a01b03168152600b60205260408120805460243592908310156102e25760206130268484614771565b90546040519160031b1c8152f35b50346102e25760403660031901126102e25761304e614745565b6001600160a01b03168152600a60205260408120805460243592908310156102e25760206130268484614771565b50346102e25761308b3661472f565b90801515806130b8575b61309e90614f09565b6130a6614a40565b82526007602052601a60408320015580f35b506005548110613095565b50346102e2576130d23661472f565b811515806131e4575b6130e490614f09565b6130ec614aa8565b816000526007602052604060002081156104a6576015810180549160ff8360101c1691600b831015610490576004831480156131da575b1561319b576206000060c09460008051602061529283398151915296601985015562ff000019161790556018429101556131606040518092614a17565b6006602082015260806040820152601360808201527266696e616c20666565642063616c6c6261636b60681b60a0820152426060820152a280f35b60405162461bcd60e51b8152602060048201526024808201526000805160206151d28339815191526044820152631999595960e21b6064820152608490fd5b5060058314613123565b5060055482106130db565b50346102e257806003193601126102e257613208614aa8565b60025460ff8116156132485760ff19166002557f5db9ee0a495bf2e6ff9c91a7834c1ba4fdd244a5e8aa4e537bd38aeae4b073aa6020604051338152a180f35b604051638dfc202b60e01b8152600490fd5b50346102e257602080600319360112610364576004359081151580613457575b61328390614f09565b61328b614e27565b613293614e09565b8183526007815260408320601581019060ff825460101c1690600b82101590816127cf5782158015613449575b156134045760160154600254604051634f6bfad760e01b8152919086908390600490829060081c6001600160a01b03165afa9081156124735788916133d3575b61330a9250614f77565b42111561339057610f7d576000805160206152928339815191529261336b60ff936001600a9414613382575b805490620a000062ff0000198316179055866000805160206152528339815191526040516040815280610f3160408201614f84565b8201526080604082015280610f5f60808201614f84565b61338b87614fa2565b613336565b6064846040519062461bcd60e51b825280600483015260248201527f4f7074696f6e73436f72653a20524651206e6f742065787069726564207965746044820152fd5b90508582813d83116133fd575b6133ea81836149aa565b81010312611fb35761330a915190613300565b503d6133e0565b60405162461bcd60e51b815260048101869052601d60248201527f4f7074696f6e73436f72653a206e6f7420696e205246512070686173650000006044820152606490fd5b5060009150600183146132c0565b50600554821061327a565b50346102e25760403660031901126102e25761347c61475b565b336001600160a01b038216036134985761053090600435614bd0565b60405163334bd91960e11b8152600490fd5b50346102e25760603660031901126102e257600435602480356004811015611fd35760449081359184151580613948575b6134e490614f09565b6134ec614ae2565b846000526020926007845260406000209281156139085761350c816147e4565b8061360f5750601583019283549260ff8460101c1696600b8810156135fb576002881480156135f1575b156135b2575050600a81018290556019015562ff00001916620400001790556040516000805160206152928339815191529260c092600491613579908490614a17565b820152608060408201526015608082015274696e697469616c20666565642063616c6c6261636b60581b60a0820152426060820152a280f35b600080516020615232833981519152608492602689936040519462461bcd60e51b86526004860152840152820152651b081999595960d21b6064820152fd5b5060038814613536565b634e487b7160e01b60009081526021600452fd5b61361c81969295966147e4565b6001810361370a575060ff601584015460101c16600b8110156136f55760040361369c5750509160c091601960008051602061529283398151915294015560046040519181835282015260806040820152601560808201527464796e616d696320666565642063616c6c6261636b60581b60a0820152426060820152a280f35b7f4f7074696f6e73436f72653a2064796e616d69632066656564206f6e6c792066608492602e87936040519462461bcd60e51b865260048601528401528201526d6f72204c495645206f726465727360901b6064820152fd5b50634e487b7160e01b60009081526021600452fd5b6137188196959392966147e4565b600281036138065750601583019182549160ff8360101c1696600b8810156135fb576004881480156137fc575b156137c0575050601984015562ff0000191662060000179055426018909101556040516000805160206152928339815191529260c092600691613789908490614a17565b82015260806040820152601360808201527266696e616c20666565642063616c6c6261636b60681b60a0820152426060820152a280f35b6000805160206151d283398151915260849288926040519362461bcd60e51b8552600485015280840152820152631999595960e21b6064820152fd5b5060058814613745565b806138126003926147e4565b14613821575b50505050505080f35b601583019182549160ff8360101c1696600b8810156135fb57600788036138c6575050601984015562ff0000191662060000179055426018909101556040516000805160206152928339815191529260c092600691613881908490614a17565b8201526080604082015260196080820152786172626974726174696f6e20666565642063616c6c6261636b60381b60a0820152426060820152a2388080808080613818565b7f4f7074696f6e73436f72653a206e6f7420696e206172626974726174696f6e00606492601f89936040519462461bcd60e51b86526004860152840152820152fd5b60405162461bcd60e51b815260048101869052601a81880152794f7074696f6e73436f72653a20696e76616c696420707269636560301b81850152606490fd5b5060055485106134db565b50346102e25760403660031901126102e25760043560243560048110156102de5781151580613b07575b61398690614f09565b61398e614ae2565b818352600760205260408320906139a4816147e4565b80613a475750601501805460ff8160101c16600b811015610f7d57600281146139cf575b5050505080f35b600080516020615292833981519152926203000060c09362ff000019161790556139fc6040518092614a17565b6003602082015260806040820152601f60808201527f666565642072657175657374656420766961204665656450726f746f636f6c0060a0820152426060820152a2388080806139c8565b80613a536002926147e4565b14613a5d57505080f35b601501805460ff8160101c16600b811015610f7d5760048114613a81575050505080f35b600080516020615292833981519152926205000060e09362ff00001916179055613aae6040518092614a17565b6005602082015260806040820152602560808201527f66696e616c20666565642072657175657374656420766961204665656450726f60a0820152641d1bd8dbdb60da1b60c0820152426060820152a2388080806139c8565b50600554821061397d565b50346102e257806003193601126102e2576004546040516001600160a01b039091168152602090f35b50346102e25760403660031901126102e257610530600435613b5b61475b565b9080845283602052613b736001604086200154614b2c565b614b52565b50346102e257806003193601126102e2576020600554604051908152f35b50346102e25760203660031901126102e257600160406020926004358152808452200154604051908152f35b50346102e25760203660031901126102e257613bdc614745565b613be4614aa8565b60028054610100600160a81b03191660089290921b610100600160a81b031691909117905580f35b50346102e257613c1b3661472f565b9080151580613c48575b613c2e90614f09565b613c36614a40565b82526007602052600f60408320015580f35b506005548110613c25565b50346102e257613c623661472f565b9080151580613c8f575b613c7590614f09565b613c7d614a40565b82526007602052601860408320015580f35b506005548110613c6c565b50346102e25760203660031901126102e25760043563ffffffff60e01b811680910361036457602090637965db0b60e01b8114908115613ce0575b506040519015158152f35b6301ffc9a760e01b14905082613cd5565b50346102e2576102203660031901126102e2576004356001600160401b03811161036457613d239036906004016146f2565b90916024356001600160401b03811161036457613d449036906004016146f2565b93906044356001600160401b038111611fd357613d659036906004016146f2565b906064356001600160401b038111611f8357613d859036906004016146f2565b90946084356001600160401b038111611fcf57613da69036906004016146f2565b600260a43510156146ee5760036101443510156146ee5760ff610164351661016435036146ee5760ff610184351661018435036146ee57613de561471f565b9160ff6101e435166101e43503611fcb576002610204351015611fcb57613e0a614e27565b613e12614e09565b613e1f60c4351515614c45565b613e2c4260e43511614ca0565b600354600480546002546040516337382d3960e21b8152936001600160a01b0390811693928116926020928692839160081c165afa9283156146e3578d936146af575b50813b156146ab57918c91613e9c938360405180968195829463ec185a0760e01b84523360048501614cfa565b03925af1801561468957614698575b506003546004546001600160a01b039182169116813b1561469457613eef8c928392604051948580948193630ac94d9360e31b835261012435903360048501614ea2565b03925af1801561468957908b91614675575b50506005549a613f108c614d40565b6005558b8b52600760205260408b208c81556002810180546001600160a01b03191633179055946001600160401b038211614661578190613f546003880154614879565b601f8111614610575b508c90601f83116001146145a4578d92614599575b50508160011b916000199060031b1c19161760038501555b6001600160401b038c1161434f57613fa56004850154614879565b601f8111614553575b508b8a601f82116001146144e4578b916144d9575b5060001960038e901b1c191660018d901b1760048501555b6001600160401b03871161434f57613ff66005850154614879565b601f8111614494575b50868a601f821160011461442a578b9161441f575b508760011b906000198960031b1c19161760058501555b6001600160401b03851161434f576140466006850154614879565b601f81116143da575b50848a601f821160011461436e578b91614363575b508560011b906000198760031b1c19161760068501555b6001600160401b03821161434f576140966007850154614879565b601f811161430a575b509260209b9694928a928c9997958490601f831160011461425e57958f6141d69d611aa48e60408a859f9e9b9a611ad49e9a8a859f9b869b8a9f9d611abc9e92614253575b50508160011b916000199060031b1c19161760078301555b61410b60a43560088401614d65565b60c435600983015560e435600b83015561271061412d6101043560c435614e8f565b04600d83015561012435600e83015561012435600f830155601282016141566101443582614d7d565b6141636101643582614d87565b6141706101843582614d9d565b6101a43560138401556141936015840192839060ff801983541691151516179055565b805463ff00000019166101e43560181b63ff000000161790556141b96102043582614db5565b62ff0000198154169055601642910155338152600b865220614dd4565b6040519081524283820152816000805160206152b283398151915260403393a38060008051602061529283398151915260c0604051600081526000868201526080604082015260146080820152731cd95b1b195c881bdc99195c8818dc99585d195960621b60a0820152426060820152a260018055604051908152f35b0135905038806140e4565b9b94939291906007840185528f852090855b601f19841681106142d8575060209a9996611aa46141d69f8f9a948e99611ad49d99611abc9960018f9a6040958f9a978d9883601f198116106142be575b505050811b0160078301556140fc565b0135600019600384901b60f8161c191690553880806142ae565b9295509396989a9c929597999b508f600181928686013581550194019101928d94918f9c9a9896939d9b999794614270565b600785018b5260208b20601f840160051c810160208510614348575b601f830160051c8201811061433c57505061409f565b60008155600101614326565b5080614326565b634e487b7160e01b8a52604160045260248afd5b905089013538614064565b600686018c5260208c2091508b5b8b601f19891682106143c257505086601f198116106143a8575b5050600185811b01600685015561407b565b8a0135600019600388901b60f8161c191690553880614396565b6001839460209394849301358155019301910161437c565b600685018b5260208b20601f870160051c810160208810614418575b601f830160051c8201811061440c57505061404f565b600081556001016143f6565b50806143f6565b905086013538614014565b600586018c5260208c2091508b5b601f198a16811061447c575088601f19811610614462575b5050600187811b01600585015561402b565b87013560001960038a901b60f8161c191690553880614450565b9091602060018192858c013581550193019101614438565b600585018b5260208b20601f890160051c810160208a106144d2575b601f830160051c820181106144c6575050613fff565b600081556001016144b0565b50806144b0565b905088013538613fc3565b600486018c5260208c2091508b8e5b8b601f19821683106145395750601f19811610905061451f575b505060018c811b016004850155613fdb565b89013560001960038f901b60f8161c19169055388061450d565b6001849560209394958493013581550194019201906144f3565b600485018b5260208b208d6020601f820160051c83019110614592575b601f830160051c82018110614586575050613fae565b60008155600101614570565b5080614570565b013590503880613f72565b600388018e5260208e208e9450915b601f19841685106145f8576001945083601f198116106145de575b505050811b016003850155613f8a565b0135600019600384901b60f8161c191690553880806145ce565b818101358355602094850194600190930192016145b3565b909150600387018d5260208d20601f840160051c81016020851061465a575b90849392915b601f830160051c8201811061464b575050613f5d565b60008155859450600101614635565b508061462f565b634e487b7160e01b8c52604160045260248cfd5b61467e90614949565b611fcb578938613f01565b6040513d8d823e3d90fd5b8b80fd5b6146a4909a919a614949565b9838613eab565b8c80fd5b9092506020813d6020116146db575b816146cb602093836149aa565b810103126146ab57519138613e6f565b3d91506146be565b6040513d8f823e3d90fd5b8880fd5b9181601f84011215611fb3578235916001600160401b038311611fb35760208381860195010111611fb357565b6101c435908115158203611fb357565b6040906003190112611fb3576004359060243590565b600435906001600160a01b0382168203611fb357565b602435906001600160a01b0382168203611fb357565b80548210156147895760005260206000200190600090565b634e487b7160e01b600052603260045260246000fd5b6020908160408183019282815285518094520193019160005b8281106147c6575050505090565b8351855293810193928101926001016147b8565b6003111561049057565b6004111561049057565b9b99979593919e9d9c9a98969492909e6101c08d019f8d5260208d0152600160a01b600190031660408c0152614823816147da565b60608b015260808a015260a089015260c088015260e0870152614845816147da565b61010086015260ff1661012085015260ff16610140840152610160830152610180820152614872826147e4565b6101a00152565b90600182811c921680156148a9575b602083101461489357565b634e487b7160e01b600052602260045260246000fd5b91607f1691614888565b90600092918054916148c483614879565b91828252600193848116908160001461492657506001146148e6575b50505050565b90919394506000526020928360002092846000945b8386106149125750505050010190388080806148e0565b8054858701830152940193859082016148fb565b9294505050602093945060ff191683830152151560051b010190388080806148e0565b6001600160401b03811161495c57604052565b634e487b7160e01b600052604160045260246000fd5b6101c081019081106001600160401b0382111761495c57604052565b61044081019081106001600160401b0382111761495c57604052565b601f909101601f19168101906001600160401b0382119082101761495c57604052565b919082519283825260005b8481106149f9575050826000602080949584010152601f8019910116010190565b6020818301810151848301820152016149d8565b6002111561049057565b90600b8210156104905752565b805482101561478957600052600b602060002091020190600090565b3360009081527fdd53df7e4642f4e3d9dededdac02355f2e876e2a9b7ef4e260af8d6fd7b3325760205260409020546000805160206151f28339815191529060ff1615614a8a5750565b6044906040519063e2517d3f60e01b82523360048301526024820152fd5b3360009081527fad3228b676f7d3cd4284a5443f17f1962b36e491b30a40b2405849e597ba5fb5602052604081205460ff1615614a8a5750565b3360009081527f3f8d9a030d334798d6aece9c5bcc7646b3f51f8740e76f47846d18cc4a1a8e4e60205260409020546000805160206152728339815191529060ff1615614a8a5750565b80600052600060205260406000203360005260205260ff6040600020541615614a8a5750565b9060009180835282602052604083209160018060a01b03169182845260205260ff60408420541615600014614bcb57808352826020526040832082845260205260408320600160ff198254161790557f2f8788117e7eff1d82e926ec794901d17c78024a50270940304540a733656f0d339380a4600190565b505090565b9060009180835282602052604083209160018060a01b03169182845260205260ff604084205416600014614bcb5780835282602052604083208284526020526040832060ff1981541690557ff6391f5c32d9c69d2a47ea670b442974b53935d1edc7fd64eb21e047a839171b339380a4600190565b15614c4c57565b60405162461bcd60e51b815260206004820152602660248201527f4f7074696f6e73436f72653a206e6f74696f6e616c206d75737420626520706f60448201526573697469766560d01b6064820152608490fd5b15614ca757565b60405162461bcd60e51b815260206004820152602560248201527f4f7074696f6e73436f72653a20657870697279206d75737420626520696e2066604482015264757475726560d81b6064820152608490fd5b6001600160a01b039182168152911660208201526040810191909152608060608201819052600c908201526b6372656174696f6e5f66656560a01b60a082015260c00190565b6000198114614d4f5760010190565b634e487b7160e01b600052601160045260246000fd5b90614d6f81614a0d565b60ff80198354169116179055565b90614d6f816147da565b9061ff0082549160081b169061ff001916179055565b9062ff000082549160101b169062ff00001916179055565b90614dbf81614a0d565b61ff0082549160081b169061ff001916179055565b8054600160401b81101561495c57614df191600182018155614771565b819291549060031b91821b91600019901b1916179055565b60ff60025416614e1557565b60405163d93c066560e01b8152600490fd5b600260015414614e38576002600155565b604051633ee5aeb560e01b8152600490fd5b15614e5157565b60405162461bcd60e51b815260206004820152601660248201527527b83a34b7b739a1b7b9329d103737ba10313abcb2b960511b6044820152606490fd5b81810292918115918404141715614d4f57565b6001600160a01b03918216815291166020820152604081019190915260600190565b6001600160a01b039182168152911660208201526040810191909152608060608201819052600b908201526a74726164696e675f66656560a81b60a082015260c00190565b15614f1057565b60405162461bcd60e51b815260206004820152601d60248201527f4f7074696f6e73436f72653a20696e76616c6964206f726465722069640000006044820152606490fd5b600f81526e189d5e595c8818d85b98d95b1b1959608a1b602082015260400190565b91908201809211614d4f57565b600b81526a1c999c481d1a5b595bdd5d60aa1b602082015260400190565b906000828152602060088152604093848320835b81548110156150d857614fc98183614a24565b50600a81019081549160ff8316614fdf816147e4565b15806150cb575b614ffc575b505050614ff790614d40565b614fb6565b6003809360ff191617905560018060a01b0380925416916002820191818354169360049083825416906006840196875493823b156150c757908f8e94939261505886925197889687958694636924faa760e11b86528501614ea2565b03925af180156150bd57614ff79695949389937f18ae744a3a27b4a583da0d9b90c0bd0162260ed46685502b4c6f305e997167b5938f936150ae575b505494541694548151908152428b820152a4903880614feb565b6150b790614949565b38615094565b8c513d8c823e3d90fd5b8d80fd5b5060068201541515614fe6565b50505050509050565b600a6101a09183518155602084015160018201556002810160018060a01b036040860151168154906060870151615117816147da565b615120816147da565b6001600160a81b03199092161760a091821b60ff60a01b161790915560808501516003830155840151600482015560c0840151600582015560e084015160068201556101008401516151a59060078301906151849061517e816147da565b82614d7d565b61519660ff6101208801511682614d87565b60ff6101408701511690614d9d565b61016084015160088201556101808401516009820155019101516151c8816147e4565b614d6f816147e456fe4f7074696f6e73436f72653a206e6f74206177616974696e672066696e616c20300f9ae985dc711960f7a4d1dd013f9c19ecf40bff149522ab7523b2187a3846ce74058472262d5db42b1ca04d78e999d2dd523bdf8b33202e06cca947b31bbe4f7074696f6e73436f72653a206e6f74206177616974696e6720696e69746961b848a62ef7171019d243ed8f5b8e1e6c32cafed0b7fc99da26cb2fc2e7d533ec04967fd25e7aa667b18955d808f19fd0c86238999ff8be2ebc72cd2cd3a83db0ce3a31baf9956e086200ee7044a75c2befbd050912798b7bcd25d05831ab9592c0c6ed2669febbe340d8737e8ec17254ffd9e038b54a4585ff70ac3ca18956aa3d7463b72b52fafc8e3f27dc0dbb9d1a94c0a4024834252b5cce68509acb49bca264697066735822122092a11e5fc8931fa383220e59eb45f90488de434ff6e142d2c6f441071be4d4d764736f6c63430008140033","opcodes":"PUSH1 0x80 CALLVALUE PUSH3 0xF5 JUMPI PUSH1 0x1F PUSH3 0x54DE CODESIZE DUP2 SWAP1 SUB SWAP2 DUP3 ADD PUSH1 0x1F NOT AND DUP4 ADD SWAP2 PUSH1 0x1 PUSH1 0x1 PUSH1 0x40 SHL SUB DUP4 GT DUP5 DUP5 LT OR PUSH3 0xFA JUMPI DUP1 DUP5 SWAP3 PUSH1 0x80 SWAP5 PUSH1 0x40 MSTORE DUP4 CODECOPY DUP2 ADD SUB SLT PUSH3 0xF5 JUMPI DUP1 PUSH3 0x52 PUSH3 0xE4 SWAP3 PUSH3 0x110 JUMP JUMPDEST SWAP1 PUSH3 0x61 PUSH1 0x20 DUP3 ADD PUSH3 0x110 JUMP JUMPDEST SWAP1 PUSH3 0x7E PUSH1 0x60 PUSH3 0x76 PUSH1 0x40 DUP5 ADD PUSH3 0x110 JUMP JUMPDEST SWAP3 ADD PUSH3 0x110 JUMP JUMPDEST PUSH1 0x1 DUP1 DUP1 SSTORE PUSH1 0x5 DUP2 SWAP1 SSTORE PUSH1 0x6 SSTORE PUSH1 0x2 DUP1 SLOAD PUSH2 0x100 PUSH1 0x1 PUSH1 0xA8 SHL SUB NOT AND PUSH1 0x8 SWAP6 SWAP1 SWAP6 SHL PUSH2 0x100 PUSH1 0x1 PUSH1 0xA8 SHL SUB AND SWAP5 SWAP1 SWAP5 OR SWAP1 SWAP4 SSTORE PUSH1 0x3 DUP1 SLOAD PUSH1 0x1 PUSH1 0x1 PUSH1 0xA0 SHL SUB NOT SWAP1 DUP2 AND PUSH1 0x1 PUSH1 0x1 PUSH1 0xA0 SHL SUB SWAP5 DUP6 AND OR SWAP1 SWAP2 SSTORE PUSH1 0x4 DUP1 SLOAD SWAP1 SWAP2 AND SWAP2 SWAP1 SWAP3 AND OR SWAP1 SSTORE PUSH3 0x125 JUMP JUMPDEST POP PUSH1 0x40 MLOAD PUSH2 0x5327 SWAP1 DUP2 PUSH3 0x1B7 DUP3 CODECOPY RETURN JUMPDEST PUSH1 0x0 DUP1 REVERT JUMPDEST PUSH4 0x4E487B71 PUSH1 0xE0 SHL PUSH1 0x0 MSTORE PUSH1 0x41 PUSH1 0x4 MSTORE PUSH1 0x24 PUSH1 0x0 REVERT JUMPDEST MLOAD SWAP1 PUSH1 0x1 PUSH1 0x1 PUSH1 0xA0 SHL SUB DUP3 AND DUP3 SUB PUSH3 0xF5 JUMPI JUMP JUMPDEST PUSH1 0x1 PUSH1 0x1 PUSH1 0xA0 SHL SUB AND PUSH1 0x0 DUP2 DUP2 MSTORE PUSH32 0xAD3228B676F7D3CD4284A5443F17F1962B36E491B30A40B2405849E597BA5FB5 PUSH1 0x20 MSTORE PUSH1 0x40 DUP2 KECCAK256 SLOAD SWAP1 SWAP2 SWAP1 PUSH1 0xFF AND PUSH3 0x1B2 JUMPI DUP2 DUP1 MSTORE DUP2 PUSH1 0x20 MSTORE PUSH1 0x40 DUP3 KECCAK256 DUP2 DUP4 MSTORE PUSH1 0x20 MSTORE PUSH1 0x40 DUP3 KECCAK256 PUSH1 0x1 PUSH1 0xFF NOT DUP3 SLOAD AND OR SWAP1 SSTORE CALLER SWAP2 PUSH32 0x2F8788117E7EFF1D82E926EC794901D17C78024A50270940304540A733656F0D DUP2 DUP1 LOG4 PUSH1 0x1 SWAP1 JUMP JUMPDEST POP SWAP1 JUMP INVALID PUSH2 0x280 PUSH1 0x40 MSTORE PUSH1 0x4 CALLDATASIZE LT ISZERO PUSH2 0x13 JUMPI PUSH1 0x0 DUP1 REVERT JUMPDEST PUSH1 0x0 DUP1 CALLDATALOAD PUSH1 0xE0 SHR DUP1 PUSH4 0x1D0D5B8 EQ PUSH2 0x3CF1 JUMPI DUP1 PUSH4 0x1FFC9A7 EQ PUSH2 0x3C9A JUMPI DUP1 PUSH4 0x15D92E33 EQ PUSH2 0x3C53 JUMPI DUP1 PUSH4 0x1C0DD7E8 EQ PUSH2 0x3C0C JUMPI DUP1 PUSH4 0x20E3DBD4 EQ PUSH2 0x3BC2 JUMPI DUP1 PUSH4 0x248A9CA3 EQ PUSH2 0x3B96 JUMPI DUP1 PUSH4 0x2A58B330 EQ PUSH2 0x3B78 JUMPI DUP1 PUSH4 0x2F2FF15D EQ PUSH2 0x3B3B JUMPI DUP1 PUSH4 0x2F48AB7D EQ PUSH2 0x3B12 JUMPI DUP1 PUSH4 0x305CDDFD EQ PUSH2 0x3953 JUMPI DUP1 PUSH4 0x3087A88C EQ PUSH2 0x34AA JUMPI DUP1 PUSH4 0x36568ABE EQ PUSH2 0x3462 JUMPI DUP1 PUSH4 0x3AB3784A EQ PUSH2 0x325A JUMPI DUP1 PUSH4 0x3F4BA83A EQ PUSH2 0x31EF JUMPI DUP1 PUSH4 0x42DD6D3E EQ PUSH2 0x30C3 JUMPI DUP1 PUSH4 0x44F1EAAE EQ PUSH2 0x307C JUMPI DUP1 PUSH4 0x4500CB60 EQ PUSH2 0x3034 JUMPI DUP1 PUSH4 0x45CB4505 EQ PUSH2 0x2FDE JUMPI DUP1 PUSH4 0x4EFEF6AA EQ PUSH2 0x2FC0 JUMPI DUP1 PUSH4 0x5C975ABB EQ PUSH2 0x2F9D JUMPI DUP1 PUSH4 0x5D7FFE7B EQ PUSH2 0x2BAD JUMPI DUP1 PUSH4 0x5E9E78D0 EQ PUSH2 0x2B66 JUMPI DUP1 PUSH4 0x67AC0BF0 EQ PUSH2 0x27EE JUMPI DUP1 PUSH4 0x6DBE7579 EQ PUSH2 0x25AC JUMPI DUP1 PUSH4 0x7203A582 EQ PUSH2 0x2160 JUMPI DUP1 PUSH4 0x79502C55 EQ PUSH2 0x2133 JUMPI DUP1 PUSH4 0x7D900421 EQ PUSH2 0x20A6 JUMPI DUP1 PUSH4 0x8456CB59 EQ PUSH2 0x204B JUMPI DUP1 PUSH4 0x8A4ADF24 EQ PUSH2 0x2022 JUMPI DUP1 PUSH4 0x91D14854 EQ PUSH2 0x1FD7 JUMPI DUP1 PUSH4 0x979B4E6D EQ PUSH2 0x15E9 JUMPI DUP1 PUSH4 0xA217FDDF EQ PUSH2 0x15CD JUMPI DUP1 PUSH4 0xA45F2EBC EQ PUSH2 0x155A JUMPI DUP1 PUSH4 0xA61CF0D4 EQ PUSH2 0x14C7 JUMPI DUP1 PUSH4 0xA85C38EF EQ PUSH2 0x10EC JUMPI DUP1 PUSH4 0xAAB3196D EQ PUSH2 0x107F JUMPI DUP1 PUSH4 0xB543503E EQ PUSH2 0x103A JUMPI DUP1 PUSH4 0xBA9CF01D EQ PUSH2 0x1011 JUMPI DUP1 PUSH4 0xBC0EF26B EQ PUSH2 0xE4F JUMPI DUP1 PUSH4 0xCDC65AB6 EQ PUSH2 0xE26 JUMPI DUP1 PUSH4 0xCF3FEC43 EQ PUSH2 0xD99 JUMPI DUP1 PUSH4 0xD049BFEF EQ PUSH2 0xB4C JUMPI DUP1 PUSH4 0xD09EF241 EQ PUSH2 0x5C2 JUMPI DUP1 PUSH4 0xD37E527B EQ PUSH2 0x57B JUMPI DUP1 PUSH4 0xD426AEC1 EQ PUSH2 0x534 JUMPI DUP1 PUSH4 0xD547741F EQ PUSH2 0x4F3 JUMPI DUP1 PUSH4 0xE02E34F8 EQ PUSH2 0x368 JUMPI DUP1 PUSH4 0xE4CBAC40 EQ PUSH2 0x2E5 JUMPI PUSH4 0xF7FF6426 EQ PUSH2 0x239 JUMPI PUSH1 0x0 DUP1 REVERT JUMPDEST CALLVALUE PUSH2 0x2E2 JUMPI PUSH2 0x247 CALLDATASIZE PUSH2 0x472F JUMP JUMPDEST SWAP1 DUP3 MSTORE PUSH1 0x8 PUSH1 0x20 MSTORE PUSH1 0x40 DUP3 KECCAK256 DUP1 SLOAD DUP3 LT ISZERO PUSH2 0x2DE JUMPI PUSH2 0x266 SWAP3 POP PUSH2 0x4A24 JUMP JUMPDEST POP DUP1 SLOAD SWAP1 PUSH2 0x2DA PUSH1 0x1 DUP3 ADD SLOAD PUSH1 0x2 DUP4 ADD SLOAD SWAP3 PUSH1 0x3 DUP2 ADD SLOAD SWAP5 PUSH1 0x4 DUP3 ADD SLOAD SWAP3 PUSH1 0x5 DUP4 ADD SLOAD SWAP2 PUSH1 0x6 DUP5 ADD SLOAD SWAP1 PUSH1 0x7 DUP6 ADD SLOAD SWAP2 PUSH1 0x8 DUP7 ADD SLOAD SWAP5 PUSH1 0xFF PUSH1 0xA PUSH1 0x9 DUP10 ADD SLOAD SWAP9 ADD SLOAD AND SWAP8 PUSH1 0x40 MLOAD SWAP12 DUP13 SWAP12 DUP13 PUSH1 0xFF DUP9 PUSH1 0x10 SHR AND SWAP9 PUSH1 0xFF DUP1 DUP11 PUSH1 0x8 SHR AND SWAP10 AND SWAP8 PUSH1 0xFF DUP5 PUSH1 0xA0 SHR AND SWAP4 PUSH1 0x1 DUP1 PUSH1 0xA0 SHL SUB AND SWAP3 PUSH2 0x47EE JUMP JUMPDEST SUB SWAP1 RETURN JUMPDEST DUP3 DUP1 REVERT JUMPDEST DUP1 REVERT JUMPDEST POP CALLVALUE PUSH2 0x2E2 JUMPI PUSH1 0x20 DUP1 PUSH1 0x3 NOT CALLDATASIZE ADD SLT PUSH2 0x364 JUMPI PUSH1 0x1 PUSH1 0x1 PUSH1 0xA0 SHL SUB PUSH2 0x308 PUSH2 0x4745 JUMP JUMPDEST AND DUP3 MSTORE PUSH1 0xB DUP2 MSTORE PUSH1 0x40 DUP3 KECCAK256 SWAP2 PUSH1 0x40 MLOAD DUP1 SWAP3 DUP1 DUP6 SLOAD SWAP3 DUP4 DUP2 MSTORE ADD SWAP5 DUP4 MSTORE DUP1 DUP4 KECCAK256 SWAP3 SWAP1 JUMPDEST DUP3 DUP3 LT PUSH2 0x34D JUMPI PUSH2 0x2DA DUP6 PUSH2 0x341 DUP2 DUP10 SUB DUP3 PUSH2 0x49AA JUMP JUMPDEST PUSH1 0x40 MLOAD SWAP2 DUP3 SWAP2 DUP3 PUSH2 0x479F JUMP JUMPDEST DUP4 SLOAD DUP7 MSTORE SWAP5 DUP6 ADD SWAP5 PUSH1 0x1 SWAP4 DUP5 ADD SWAP4 SWAP1 SWAP2 ADD SWAP1 PUSH2 0x32A JUMP JUMPDEST POP DUP1 REVERT JUMPDEST POP CALLVALUE PUSH2 0x2E2 JUMPI PUSH2 0x377 CALLDATASIZE PUSH2 0x472F JUMP JUMPDEST DUP2 ISZERO ISZERO DUP1 PUSH2 0x4E8 JUMPI JUMPDEST PUSH2 0x389 SWAP1 PUSH2 0x4F09 JUMP JUMPDEST PUSH2 0x391 PUSH2 0x4AA8 JUMP JUMPDEST DUP2 PUSH1 0x0 MSTORE PUSH1 0x7 PUSH1 0x20 MSTORE PUSH1 0x40 PUSH1 0x0 KECCAK256 SWAP1 DUP1 ISZERO PUSH2 0x4A6 JUMPI PUSH1 0x15 DUP3 ADD SWAP2 DUP3 SLOAD SWAP3 PUSH1 0xFF DUP5 PUSH1 0x10 SHR AND SWAP2 PUSH1 0xB DUP4 LT ISZERO PUSH2 0x490 JUMPI PUSH1 0x2 DUP4 EQ DUP1 ISZERO PUSH2 0x486 JUMPI JUMPDEST ISZERO PUSH2 0x444 JUMPI PUSH1 0x0 DUP1 MLOAD PUSH1 0x20 PUSH2 0x5292 DUP4 CODECOPY DUP2 MLOAD SWAP2 MSTORE SWAP5 DUP5 PUSH1 0x19 DUP4 PUSH1 0xC0 SWAP8 PUSH1 0xA PUSH3 0x40000 SWAP7 ADD SSTORE ADD SSTORE PUSH3 0xFF0000 NOT AND OR SWAP1 SSTORE PUSH2 0x407 PUSH1 0x40 MLOAD DUP1 SWAP3 PUSH2 0x4A17 JUMP JUMPDEST PUSH1 0x4 PUSH1 0x20 DUP3 ADD MSTORE PUSH1 0x80 PUSH1 0x40 DUP3 ADD MSTORE PUSH1 0x15 PUSH1 0x80 DUP3 ADD MSTORE PUSH21 0x696E697469616C20666565642063616C6C6261636B PUSH1 0x58 SHL PUSH1 0xA0 DUP3 ADD MSTORE TIMESTAMP PUSH1 0x60 DUP3 ADD MSTORE LOG2 DUP1 RETURN JUMPDEST PUSH1 0x40 MLOAD PUSH3 0x461BCD PUSH1 0xE5 SHL DUP2 MSTORE PUSH1 0x20 PUSH1 0x4 DUP3 ADD MSTORE PUSH1 0x26 PUSH1 0x24 DUP3 ADD MSTORE PUSH1 0x0 DUP1 MLOAD PUSH1 0x20 PUSH2 0x5232 DUP4 CODECOPY DUP2 MLOAD SWAP2 MSTORE PUSH1 0x44 DUP3 ADD MSTORE PUSH6 0x1B0819995959 PUSH1 0xD2 SHL PUSH1 0x64 DUP3 ADD MSTORE PUSH1 0x84 SWAP1 REVERT JUMPDEST POP PUSH1 0x3 DUP4 EQ PUSH2 0x3CA JUMP JUMPDEST PUSH4 0x4E487B71 PUSH1 0xE0 SHL PUSH1 0x0 MSTORE PUSH1 0x21 PUSH1 0x4 MSTORE PUSH1 0x24 PUSH1 0x0 REVERT JUMPDEST PUSH1 0x40 MLOAD PUSH3 0x461BCD PUSH1 0xE5 SHL DUP2 MSTORE PUSH1 0x20 PUSH1 0x4 DUP3 ADD MSTORE PUSH1 0x1A PUSH1 0x24 DUP3 ADD MSTORE PUSH26 0x4F7074696F6E73436F72653A20696E76616C6964207072696365 PUSH1 0x30 SHL PUSH1 0x44 DUP3 ADD MSTORE PUSH1 0x64 SWAP1 REVERT JUMPDEST POP PUSH1 0x5 SLOAD DUP3 LT PUSH2 0x380 JUMP JUMPDEST POP CALLVALUE PUSH2 0x2E2 JUMPI PUSH1 0x40 CALLDATASIZE PUSH1 0x3 NOT ADD SLT PUSH2 0x2E2 JUMPI PUSH2 0x530 PUSH1 0x4 CALLDATALOAD PUSH2 0x513 PUSH2 0x475B JUMP JUMPDEST SWAP1 DUP1 DUP5 MSTORE DUP4 PUSH1 0x20 MSTORE PUSH2 0x52B PUSH1 0x1 PUSH1 0x40 DUP7 KECCAK256 ADD SLOAD PUSH2 0x4B2C JUMP JUMPDEST PUSH2 0x4BD0 JUMP JUMPDEST POP DUP1 RETURN JUMPDEST POP CALLVALUE PUSH2 0x2E2 JUMPI PUSH2 0x543 CALLDATASIZE PUSH2 0x472F JUMP JUMPDEST SWAP1 DUP1 ISZERO ISZERO DUP1 PUSH2 0x570 JUMPI JUMPDEST PUSH2 0x556 SWAP1 PUSH2 0x4F09 JUMP JUMPDEST PUSH2 0x55E PUSH2 0x4A40 JUMP JUMPDEST DUP3 MSTORE PUSH1 0x7 PUSH1 0x20 MSTORE PUSH1 0xA PUSH1 0x40 DUP4 KECCAK256 ADD SSTORE DUP1 RETURN JUMPDEST POP PUSH1 0x5 SLOAD DUP2 LT PUSH2 0x54D JUMP JUMPDEST POP CALLVALUE PUSH2 0x2E2 JUMPI PUSH2 0x58A CALLDATASIZE PUSH2 0x472F JUMP JUMPDEST SWAP1 DUP1 ISZERO ISZERO DUP1 PUSH2 0x5B7 JUMPI JUMPDEST PUSH2 0x59D SWAP1 PUSH2 0x4F09 JUMP JUMPDEST PUSH2 0x5A5 PUSH2 0x4A40 JUMP JUMPDEST DUP3 MSTORE PUSH1 0x7 PUSH1 0x20 MSTORE PUSH1 0x14 PUSH1 0x40 DUP4 KECCAK256 ADD SSTORE DUP1 RETURN JUMPDEST POP PUSH1 0x5 SLOAD DUP2 LT PUSH2 0x594 JUMP JUMPDEST POP CALLVALUE PUSH2 0x2E2 JUMPI PUSH1 0x20 CALLDATASIZE PUSH1 0x3 NOT ADD SLT PUSH2 0x2E2 JUMPI DUP1 PUSH2 0x420 PUSH1 0x40 MLOAD PUSH2 0x5E4 DUP2 PUSH2 0x498E JUMP JUMPDEST DUP3 DUP2 MSTORE DUP3 PUSH1 0x20 DUP3 ADD MSTORE DUP3 PUSH1 0x40 DUP3 ADD MSTORE PUSH1 0x60 DUP1 DUP3 ADD MSTORE PUSH1 0x60 PUSH1 0x80 DUP3 ADD MSTORE PUSH1 0x60 PUSH1 0xA0 DUP3 ADD MSTORE PUSH1 0x60 PUSH1 0xC0 DUP3 ADD MSTORE PUSH1 0x60 PUSH1 0xE0 DUP3 ADD MSTORE DUP3 PUSH2 0x100 DUP3 ADD MSTORE DUP3 PUSH2 0x120 DUP3 ADD MSTORE DUP3 PUSH2 0x140 DUP3 ADD MSTORE DUP3 PUSH2 0x160 DUP3 ADD MSTORE DUP3 PUSH2 0x180 DUP3 ADD MSTORE DUP3 PUSH2 0x1A0 DUP3 ADD MSTORE DUP3 PUSH2 0x1C0 DUP3 ADD MSTORE DUP3 PUSH2 0x1E0 DUP3 ADD MSTORE DUP3 PUSH2 0x200 DUP3 ADD MSTORE DUP3 PUSH2 0x220 DUP3 ADD MSTORE DUP3 PUSH2 0x240 DUP3 ADD MSTORE DUP3 PUSH2 0x260 DUP3 ADD MSTORE DUP3 PUSH2 0x280 DUP3 ADD MSTORE DUP3 PUSH2 0x2A0 DUP3 ADD MSTORE DUP3 PUSH2 0x2C0 DUP3 ADD MSTORE DUP3 PUSH2 0x2E0 DUP3 ADD MSTORE DUP3 PUSH2 0x300 DUP3 ADD MSTORE DUP3 PUSH2 0x320 DUP3 ADD MSTORE DUP3 PUSH2 0x340 DUP3 ADD MSTORE DUP3 PUSH2 0x360 DUP3 ADD MSTORE DUP3 PUSH2 0x380 DUP3 ADD MSTORE DUP3 PUSH2 0x3A0 DUP3 ADD MSTORE DUP3 PUSH2 0x3C0 DUP3 ADD MSTORE DUP3 PUSH2 0x3E0 DUP3 ADD MSTORE DUP3 PUSH2 0x400 DUP3 ADD MSTORE ADD MSTORE PUSH1 0x4 CALLDATALOAD DUP2 MSTORE PUSH1 0x7 PUSH1 0x20 MSTORE PUSH1 0x40 DUP2 KECCAK256 PUSH1 0x40 MLOAD SWAP2 PUSH2 0x6E1 DUP4 PUSH2 0x498E JUMP JUMPDEST DUP2 SLOAD DUP4 MSTORE PUSH1 0x1 DUP3 ADD SLOAD PUSH1 0x1 PUSH1 0x1 PUSH1 0xA0 SHL SUB SWAP1 DUP2 AND PUSH1 0x20 DUP6 ADD MSTORE PUSH1 0x2 DUP4 ADD SLOAD AND PUSH1 0x40 DUP1 DUP6 ADD SWAP2 SWAP1 SWAP2 MSTORE MLOAD PUSH2 0x722 DUP2 PUSH2 0x71B DUP2 PUSH1 0x3 DUP8 ADD PUSH2 0x48B3 JUMP JUMPDEST SUB DUP3 PUSH2 0x49AA JUMP JUMPDEST PUSH1 0x60 DUP5 ADD MSTORE PUSH1 0x40 MLOAD PUSH2 0x73B DUP2 PUSH2 0x71B DUP2 PUSH1 0x4 DUP8 ADD PUSH2 0x48B3 JUMP JUMPDEST PUSH1 0x80 DUP5 ADD MSTORE PUSH1 0x40 MLOAD PUSH2 0x754 DUP2 PUSH2 0x71B DUP2 PUSH1 0x5 DUP8 ADD PUSH2 0x48B3 JUMP JUMPDEST PUSH1 0xA0 DUP5 ADD MSTORE PUSH1 0x40 MLOAD PUSH2 0x76D DUP2 PUSH2 0x71B DUP2 PUSH1 0x6 DUP8 ADD PUSH2 0x48B3 JUMP JUMPDEST PUSH1 0xC0 DUP5 ADD MSTORE PUSH1 0x40 MLOAD PUSH2 0x786 DUP2 PUSH2 0x71B DUP2 PUSH1 0x7 DUP8 ADD PUSH2 0x48B3 JUMP JUMPDEST PUSH1 0xE0 DUP5 ADD MSTORE PUSH1 0xFF PUSH1 0x8 DUP4 ADD SLOAD AND PUSH2 0x79C DUP2 PUSH2 0x4A0D JUMP JUMPDEST PUSH2 0x100 DUP5 ADD MSTORE PUSH1 0x9 DUP3 ADD SLOAD PUSH2 0x120 DUP5 ADD MSTORE PUSH1 0xA DUP3 ADD SLOAD PUSH2 0x140 DUP5 ADD MSTORE PUSH1 0xB DUP3 ADD SLOAD PUSH2 0x160 DUP5 ADD MSTORE PUSH1 0xC DUP3 ADD SLOAD PUSH2 0x180 DUP5 ADD MSTORE PUSH1 0xD DUP3 ADD SLOAD PUSH2 0x1A0 DUP5 ADD MSTORE PUSH1 0xE DUP3 ADD SLOAD PUSH2 0x1C0 DUP5 ADD MSTORE PUSH1 0xF DUP3 ADD SLOAD PUSH2 0x1E0 DUP5 ADD MSTORE PUSH1 0x10 DUP3 ADD SLOAD PUSH2 0x200 DUP5 ADD MSTORE PUSH1 0x11 DUP3 ADD SLOAD PUSH2 0x220 DUP5 ADD MSTORE PUSH1 0x12 DUP3 ADD SLOAD PUSH2 0x816 PUSH1 0xFF DUP3 AND PUSH2 0x47DA JUMP JUMPDEST PUSH1 0xFF DUP2 AND PUSH2 0x240 DUP6 ADD MSTORE PUSH1 0xFF DUP2 PUSH1 0x8 SHR AND PUSH2 0x260 DUP6 ADD MSTORE PUSH1 0xFF DUP2 PUSH1 0x10 SHR AND PUSH2 0x280 DUP6 ADD MSTORE PUSH1 0xFF DUP2 PUSH1 0x18 SHR AND PUSH2 0x2A0 DUP6 ADD MSTORE PUSH2 0x856 PUSH1 0xFF DUP3 PUSH1 0x20 SHR AND PUSH2 0x47DA JUMP JUMPDEST PUSH1 0xFF DUP2 PUSH1 0x20 SHR AND PUSH2 0x2C0 DUP6 ADD MSTORE PUSH1 0x1 DUP1 PUSH1 0xA0 SHL SUB SWAP1 PUSH1 0x28 SHR AND PUSH2 0x2E0 DUP5 ADD MSTORE PUSH1 0x13 DUP3 ADD SLOAD PUSH2 0x300 DUP5 ADD MSTORE PUSH1 0x14 DUP3 ADD SLOAD PUSH2 0x320 DUP5 ADD MSTORE PUSH1 0x15 DUP3 ADD SLOAD SWAP1 PUSH1 0xFF DUP3 AND ISZERO ISZERO PUSH2 0x340 DUP6 ADD MSTORE PUSH2 0x8AC PUSH1 0xFF DUP4 PUSH1 0x8 SHR AND PUSH2 0x4A0D JUMP JUMPDEST PUSH1 0xFF DUP3 PUSH1 0x8 SHR AND PUSH2 0x360 DUP6 ADD MSTORE PUSH1 0xB PUSH1 0xFF DUP4 PUSH1 0x10 SHR AND LT ISZERO PUSH2 0xB38 JUMPI POP SWAP1 PUSH1 0xFF PUSH1 0x1A SWAP3 PUSH1 0x10 SHR AND PUSH2 0x380 DUP5 ADD MSTORE PUSH1 0x16 DUP2 ADD SLOAD PUSH2 0x3A0 DUP5 ADD MSTORE PUSH1 0x17 DUP2 ADD SLOAD PUSH2 0x3C0 DUP5 ADD MSTORE PUSH1 0x18 DUP2 ADD SLOAD PUSH2 0x3E0 DUP5 ADD MSTORE PUSH1 0x19 DUP2 ADD SLOAD PUSH2 0x400 DUP5 ADD MSTORE ADD SLOAD PUSH2 0x420 DUP3 ADD MSTORE PUSH1 0x40 MLOAD DUP1 SWAP2 PUSH1 0x20 DUP3 MSTORE DUP1 MLOAD PUSH1 0x20 DUP4 ADD MSTORE PUSH1 0x1 DUP1 PUSH1 0xA0 SHL SUB PUSH1 0x20 DUP3 ADD MLOAD AND PUSH1 0x40 DUP4 ADD MSTORE PUSH1 0x1 DUP1 PUSH1 0xA0 SHL SUB PUSH1 0x40 DUP3 ADD MLOAD AND PUSH1 0x60 DUP4 ADD MSTORE PUSH2 0x420 PUSH2 0x9C2 PUSH2 0x962 PUSH1 0x60 DUP5 ADD MLOAD PUSH2 0x440 PUSH1 0x80 DUP8 ADD MSTORE PUSH2 0x460 DUP7 ADD SWAP1 PUSH2 0x49CD JUMP JUMPDEST PUSH2 0x9AC PUSH2 0x998 PUSH2 0x984 PUSH1 0x80 DUP8 ADD MLOAD SWAP4 PUSH1 0x1F NOT SWAP5 DUP6 DUP11 DUP4 SUB ADD PUSH1 0xA0 DUP12 ADD MSTORE PUSH2 0x49CD JUMP JUMPDEST PUSH1 0xA0 DUP8 ADD MLOAD DUP5 DUP10 DUP4 SUB ADD PUSH1 0xC0 DUP11 ADD MSTORE PUSH2 0x49CD JUMP JUMPDEST PUSH1 0xC0 DUP7 ADD MLOAD DUP4 DUP9 DUP4 SUB ADD PUSH1 0xE0 DUP10 ADD MSTORE PUSH2 0x49CD JUMP JUMPDEST SWAP1 PUSH1 0xE0 DUP6 ADD MLOAD SWAP1 DUP7 DUP4 SUB ADD PUSH2 0x100 DUP8 ADD MSTORE PUSH2 0x49CD JUMP JUMPDEST SWAP2 PUSH2 0x100 DUP2 ADD MLOAD PUSH2 0x9D2 DUP2 PUSH2 0x4A0D JUMP JUMPDEST PUSH2 0x120 DUP6 ADD MSTORE PUSH2 0x120 DUP2 ADD MLOAD PUSH2 0x140 DUP6 ADD MSTORE PUSH2 0x140 DUP2 ADD MLOAD PUSH2 0x160 DUP6 ADD MSTORE PUSH2 0x160 DUP2 ADD MLOAD PUSH2 0x180 DUP6 ADD MSTORE PUSH2 0x180 DUP2 ADD MLOAD PUSH2 0x1A0 DUP6 ADD MSTORE PUSH2 0x1A0 DUP2 ADD MLOAD PUSH2 0x1C0 DUP6 ADD MSTORE PUSH2 0x1C0 DUP2 ADD MLOAD PUSH2 0x1E0 DUP6 ADD MSTORE PUSH2 0x1E0 DUP2 ADD MLOAD PUSH2 0x200 DUP6 ADD MSTORE PUSH2 0x200 DUP2 ADD MLOAD PUSH2 0x220 DUP6 ADD MSTORE PUSH2 0x220 DUP2 ADD MLOAD PUSH2 0x240 DUP6 ADD MSTORE PUSH2 0x240 DUP2 ADD MLOAD PUSH2 0xA53 DUP2 PUSH2 0x47DA JUMP JUMPDEST PUSH2 0x260 DUP6 ADD MSTORE PUSH1 0xFF PUSH2 0x260 DUP3 ADD MLOAD AND PUSH2 0x280 DUP6 ADD MSTORE PUSH1 0xFF PUSH2 0x280 DUP3 ADD MLOAD AND PUSH2 0x2A0 DUP6 ADD MSTORE PUSH1 0xFF PUSH2 0x2A0 DUP3 ADD MLOAD AND PUSH2 0x2C0 DUP6 ADD MSTORE PUSH2 0x2C0 DUP2 ADD MLOAD PUSH2 0xA95 DUP2 PUSH2 0x47DA JUMP JUMPDEST PUSH2 0x2E0 DUP6 ADD MSTORE PUSH1 0x1 DUP1 PUSH1 0xA0 SHL SUB PUSH2 0x2E0 DUP3 ADD MLOAD AND PUSH2 0x300 DUP6 ADD MSTORE PUSH2 0x300 DUP2 ADD MLOAD PUSH2 0x320 DUP6 ADD MSTORE PUSH2 0x320 DUP2 ADD MLOAD PUSH2 0x340 DUP6 ADD MSTORE PUSH2 0x340 DUP2 ADD MLOAD ISZERO ISZERO PUSH2 0x360 DUP6 ADD MSTORE PUSH2 0x360 DUP2 ADD MLOAD PUSH2 0xAE4 DUP2 PUSH2 0x4A0D JUMP JUMPDEST PUSH2 0x380 DUP6 ADD MSTORE PUSH2 0xAFE PUSH2 0x380 DUP3 ADD MLOAD PUSH2 0x3A0 DUP7 ADD SWAP1 PUSH2 0x4A17 JUMP JUMPDEST PUSH2 0x3A0 DUP2 ADD MLOAD PUSH2 0x3C0 DUP6 ADD MSTORE PUSH2 0x3C0 DUP2 ADD MLOAD PUSH2 0x3E0 DUP6 ADD MSTORE PUSH2 0x3E0 DUP2 ADD MLOAD PUSH2 0x400 DUP6 ADD MSTORE PUSH2 0x400 DUP2 ADD MLOAD DUP3 DUP6 ADD MSTORE ADD MLOAD PUSH2 0x440 DUP4 ADD MSTORE SUB SWAP1 RETURN JUMPDEST PUSH4 0x4E487B71 PUSH1 0xE0 SHL DUP2 MSTORE PUSH1 0x21 PUSH1 0x4 MSTORE PUSH1 0x24 SWAP1 REVERT JUMPDEST POP CALLVALUE PUSH2 0x2E2 JUMPI PUSH1 0x20 SWAP1 DUP2 PUSH1 0x3 NOT CALLDATASIZE ADD SLT PUSH2 0x2E2 JUMPI PUSH1 0x4 CALLDATALOAD DUP2 MSTORE PUSH1 0x8 DUP1 DUP4 MSTORE PUSH1 0x40 DUP3 KECCAK256 DUP1 SLOAD SWAP1 SWAP4 SWAP1 PUSH1 0x1 PUSH1 0x1 PUSH1 0x40 SHL SUB DUP2 GT PUSH2 0xD85 JUMPI SWAP2 DUP5 SWAP2 SWAP3 PUSH1 0x40 MLOAD SWAP2 PUSH1 0x5 PUSH2 0xB99 DUP7 DUP5 DUP4 SHL ADD DUP6 PUSH2 0x49AA JUMP JUMPDEST DUP3 DUP5 MSTORE DUP6 DUP5 ADD SWAP2 DUP3 SWAP6 DUP9 MSTORE DUP7 DUP9 KECCAK256 SWAP2 DUP9 SWAP4 JUMPDEST DUP6 DUP6 LT PUSH2 0xCA8 JUMPI POP POP POP POP POP POP PUSH1 0x40 MLOAD SWAP3 DUP1 DUP5 ADD SWAP2 DUP2 DUP6 MSTORE MLOAD DUP1 SWAP3 MSTORE PUSH1 0x40 DUP5 ADD SWAP3 SWAP5 JUMPDEST DUP3 DUP2 LT PUSH2 0xBDB JUMPI DUP5 DUP5 SUB DUP6 RETURN JUMPDEST SWAP1 SWAP2 SWAP3 DUP3 PUSH2 0x1C0 PUSH1 0x1 SWAP3 DUP9 MLOAD DUP1 MLOAD DUP3 MSTORE DUP4 DUP2 ADD MLOAD DUP5 DUP4 ADD MSTORE DUP5 DUP1 PUSH1 0xA0 SHL SUB PUSH1 0x40 DUP3 ADD MLOAD AND PUSH1 0x40 DUP4 ADD MSTORE PUSH1 0x60 DUP1 DUP3 ADD MLOAD SWAP1 PUSH2 0xC14 DUP3 PUSH2 0x47DA JUMP JUMPDEST DUP4 ADD MSTORE PUSH1 0x80 DUP1 DUP3 ADD MLOAD SWAP1 DUP4 ADD MSTORE PUSH1 0xA0 DUP1 DUP3 ADD MLOAD SWAP1 DUP4 ADD MSTORE PUSH1 0xC0 DUP1 DUP3 ADD MLOAD SWAP1 DUP4 ADD MSTORE PUSH1 0xE0 DUP2 ADD MLOAD PUSH1 0xE0 DUP4 ADD MSTORE PUSH2 0x100 DUP1 DUP3 ADD MLOAD SWAP1 PUSH2 0xC50 DUP3 PUSH2 0x47DA JUMP JUMPDEST DUP4 ADD MSTORE PUSH1 0xFF PUSH2 0x120 DUP2 DUP2 DUP5 ADD MLOAD AND SWAP1 DUP5 ADD MSTORE PUSH2 0x140 SWAP1 DUP2 DUP4 ADD MLOAD AND SWAP1 DUP4 ADD MSTORE PUSH2 0x160 DUP1 DUP3 ADD MLOAD SWAP1 DUP4 ADD MSTORE PUSH2 0x180 DUP1 DUP3 ADD MLOAD SWAP1 DUP4 ADD MSTORE PUSH2 0x1A0 DUP1 SWAP2 ADD MLOAD SWAP1 PUSH2 0xC96 DUP3 PUSH2 0x47E4 JUMP JUMPDEST DUP3 ADD MSTORE ADD SWAP7 ADD SWAP2 ADD SWAP5 SWAP3 SWAP2 SWAP1 SWAP5 PUSH2 0xBCE JUMP JUMPDEST PUSH1 0xB DUP10 PUSH1 0x1 SWAP3 PUSH1 0x40 SWAP13 SWAP12 SWAP10 SWAP11 SWAP13 MLOAD PUSH2 0xCBF DUP2 PUSH2 0x4972 JUMP JUMPDEST DUP8 SLOAD DUP2 MSTORE DUP5 DUP9 ADD SLOAD DUP4 DUP3 ADD MSTORE PUSH1 0x2 DUP9 ADD SLOAD DUP6 DUP1 PUSH1 0xA0 SHL SUB DUP2 AND PUSH1 0x40 DUP4 ADD MSTORE PUSH1 0xFF SWAP1 DUP2 PUSH1 0xA0 SWAP2 DUP3 SHR AND PUSH2 0xCF0 DUP2 PUSH2 0x47DA JUMP JUMPDEST PUSH1 0x60 DUP5 ADD MSTORE PUSH1 0x3 DUP11 ADD SLOAD PUSH1 0x80 DUP5 ADD MSTORE PUSH1 0x4 DUP11 ADD SLOAD SWAP1 DUP4 ADD MSTORE DUP7 DUP10 ADD SLOAD PUSH1 0xC0 DUP4 ADD MSTORE PUSH1 0x6 DUP10 ADD SLOAD PUSH1 0xE0 DUP4 ADD MSTORE DUP1 PUSH1 0x7 DUP11 ADD SLOAD DUP2 DUP2 AND PUSH2 0xD2D DUP2 PUSH2 0x47DA JUMP JUMPDEST PUSH2 0x100 DUP6 ADD MSTORE DUP2 DUP2 DUP12 SHR AND PUSH2 0x120 DUP6 ADD MSTORE PUSH1 0x10 SHR AND PUSH2 0x140 DUP4 ADD MSTORE DUP8 DUP10 ADD SLOAD PUSH2 0x160 DUP4 ADD MSTORE PUSH1 0x9 DUP10 ADD SLOAD PUSH2 0x180 DUP4 ADD MSTORE PUSH1 0xA DUP10 ADD SLOAD AND PUSH2 0xD6C DUP2 PUSH2 0x47E4 JUMP JUMPDEST PUSH2 0x1A0 DUP3 ADD MSTORE DUP2 MSTORE ADD SWAP5 ADD SWAP5 ADD SWAP4 SWAP3 SWAP9 SWAP7 SWAP6 SWAP8 SWAP9 PUSH2 0xBAB JUMP JUMPDEST PUSH4 0x4E487B71 PUSH1 0xE0 SHL DUP5 MSTORE PUSH1 0x41 PUSH1 0x4 MSTORE PUSH1 0x24 DUP5 REVERT JUMPDEST POP CALLVALUE PUSH2 0x2E2 JUMPI PUSH1 0x20 DUP1 PUSH1 0x3 NOT CALLDATASIZE ADD SLT PUSH2 0x364 JUMPI PUSH1 0x4 CALLDATALOAD PUSH1 0x1 PUSH1 0x1 PUSH1 0x40 SHL SUB DUP2 GT PUSH2 0x2DE JUMPI PUSH2 0xDCC DUP3 SWAP2 CALLDATASIZE SWAP1 PUSH1 0x4 ADD PUSH2 0x46F2 JUMP JUMPDEST SWAP2 SWAP1 DUP3 PUSH1 0x40 MLOAD SWAP4 DUP5 SWAP3 DUP4 CALLDATACOPY DUP2 ADD PUSH1 0xC DUP2 MSTORE SUB ADD SWAP1 KECCAK256 SWAP2 PUSH1 0x40 MLOAD DUP1 SWAP3 DUP1 DUP6 SLOAD SWAP3 DUP4 DUP2 MSTORE ADD SWAP5 DUP4 MSTORE DUP1 DUP4 KECCAK256 SWAP3 SWAP1 JUMPDEST DUP3 DUP3 LT PUSH2 0xE0F JUMPI PUSH2 0x2DA DUP6 PUSH2 0x341 DUP2 DUP10 SUB DUP3 PUSH2 0x49AA JUMP JUMPDEST DUP4 SLOAD DUP7 MSTORE SWAP5 DUP6 ADD SWAP5 PUSH1 0x1 SWAP4 DUP5 ADD SWAP4 SWAP1 SWAP2 ADD SWAP1 PUSH2 0xDF8 JUMP JUMPDEST POP CALLVALUE PUSH2 0x2E2 JUMPI DUP1 PUSH1 0x3 NOT CALLDATASIZE ADD SLT PUSH2 0x2E2 JUMPI PUSH1 0x20 PUSH1 0x40 MLOAD PUSH1 0x0 DUP1 MLOAD PUSH1 0x20 PUSH2 0x5272 DUP4 CODECOPY DUP2 MLOAD SWAP2 MSTORE DUP2 MSTORE RETURN JUMPDEST POP CALLVALUE PUSH2 0x2E2 JUMPI PUSH1 0x20 DUP1 PUSH1 0x3 NOT CALLDATASIZE ADD SLT PUSH2 0x364 JUMPI PUSH1 0x4 CALLDATALOAD SWAP1 DUP2 ISZERO ISZERO DUP1 PUSH2 0x1006 JUMPI JUMPDEST PUSH2 0xE78 SWAP1 PUSH2 0x4F09 JUMP JUMPDEST DUP2 DUP4 MSTORE PUSH1 0x7 DUP2 MSTORE PUSH2 0xE99 PUSH1 0x1 DUP1 PUSH1 0xA0 SHL SUB PUSH1 0x1 PUSH1 0x40 DUP7 KECCAK256 ADD SLOAD AND CALLER EQ PUSH2 0x4E4A JUMP JUMPDEST PUSH2 0xEA1 PUSH2 0x4E27 JUMP JUMPDEST PUSH2 0xEA9 PUSH2 0x4E09 JUMP JUMPDEST DUP2 DUP4 MSTORE PUSH1 0x7 DUP2 MSTORE PUSH1 0x15 PUSH1 0x40 DUP5 KECCAK256 ADD PUSH1 0xFF DUP2 SLOAD PUSH1 0x10 SHR AND PUSH1 0xB DUP2 LT ISZERO DUP1 PUSH2 0xFF2 JUMPI DUP2 ISZERO DUP1 ISZERO PUSH2 0xFE5 JUMPI JUMPDEST ISZERO PUSH2 0xF91 JUMPI PUSH2 0xF7D JUMPI PUSH1 0x0 DUP1 MLOAD PUSH1 0x20 PUSH2 0x5292 DUP4 CODECOPY DUP2 MLOAD SWAP2 MSTORE SWAP3 PUSH2 0xF48 PUSH1 0xFF SWAP4 PUSH1 0x1 PUSH1 0xA SWAP5 EQ PUSH2 0xF6F JUMPI JUMPDEST DUP1 SLOAD SWAP1 PUSH3 0xA0000 PUSH3 0xFF0000 NOT DUP4 AND OR SWAP1 SSTORE DUP7 PUSH1 0x0 DUP1 MLOAD PUSH1 0x20 PUSH2 0x5252 DUP4 CODECOPY DUP2 MLOAD SWAP2 MSTORE PUSH1 0x40 MLOAD PUSH1 0x40 DUP2 MSTORE DUP1 PUSH2 0xF31 PUSH1 0x40 DUP3 ADD PUSH2 0x4F55 JUMP JUMPDEST TIMESTAMP DUP9 DUP4 ADD MSTORE SUB SWAP1 LOG2 PUSH1 0x40 MLOAD SWAP5 DUP6 SWAP2 PUSH1 0x10 SHR AND PUSH2 0x4A17 JUMP JUMPDEST DUP3 ADD MSTORE PUSH1 0x80 PUSH1 0x40 DUP3 ADD MSTORE DUP1 PUSH2 0xF5F PUSH1 0x80 DUP3 ADD PUSH2 0x4F55 JUMP JUMPDEST TIMESTAMP PUSH1 0x60 DUP4 ADD MSTORE SUB SWAP1 LOG2 PUSH1 0x1 DUP1 SSTORE DUP1 RETURN JUMPDEST PUSH2 0xF78 DUP8 PUSH2 0x4FA2 JUMP JUMPDEST PUSH2 0xEFC JUMP JUMPDEST PUSH4 0x4E487B71 PUSH1 0xE0 SHL DUP6 MSTORE PUSH1 0x21 PUSH1 0x4 MSTORE PUSH1 0x24 DUP6 REVERT JUMPDEST PUSH1 0x40 MLOAD PUSH3 0x461BCD PUSH1 0xE5 SHL DUP2 MSTORE PUSH1 0x4 DUP2 ADD DUP6 SWAP1 MSTORE PUSH1 0x26 PUSH1 0x24 DUP3 ADD MSTORE PUSH32 0x4F7074696F6E73436F72653A2063616E6E6F742063616E63656C206166746572 PUSH1 0x44 DUP3 ADD MSTORE PUSH6 0x40DAC2E8C6D PUSH1 0xD3 SHL PUSH1 0x64 DUP3 ADD MSTORE PUSH1 0x84 SWAP1 REVERT JUMPDEST POP POP PUSH1 0x0 PUSH1 0x1 DUP3 EQ PUSH2 0xED2 JUMP JUMPDEST PUSH4 0x4E487B71 PUSH1 0xE0 SHL DUP7 MSTORE PUSH1 0x21 PUSH1 0x4 MSTORE PUSH1 0x24 DUP7 REVERT JUMPDEST POP PUSH1 0x5 SLOAD DUP3 LT PUSH2 0xE6F JUMP JUMPDEST POP CALLVALUE PUSH2 0x2E2 JUMPI DUP1 PUSH1 0x3 NOT CALLDATASIZE ADD SLT PUSH2 0x2E2 JUMPI PUSH1 0x20 PUSH1 0x40 MLOAD PUSH1 0x0 DUP1 MLOAD PUSH1 0x20 PUSH2 0x51F2 DUP4 CODECOPY DUP2 MLOAD SWAP2 MSTORE DUP2 MSTORE RETURN JUMPDEST POP CALLVALUE PUSH2 0x2E2 JUMPI PUSH1 0x20 CALLDATASIZE PUSH1 0x3 NOT ADD SLT PUSH2 0x2E2 JUMPI PUSH2 0x1054 PUSH2 0x4745 JUMP JUMPDEST PUSH2 0x105C PUSH2 0x4AA8 JUMP JUMPDEST PUSH1 0x3 DUP1 SLOAD PUSH1 0x1 PUSH1 0x1 PUSH1 0xA0 SHL SUB NOT AND PUSH1 0x1 PUSH1 0x1 PUSH1 0xA0 SHL SUB SWAP3 SWAP1 SWAP3 AND SWAP2 SWAP1 SWAP2 OR SWAP1 SSTORE DUP1 RETURN JUMPDEST POP CALLVALUE PUSH2 0x2E2 JUMPI PUSH1 0x40 CALLDATASIZE PUSH1 0x3 NOT ADD SLT PUSH2 0x2E2 JUMPI PUSH1 0x24 CALLDATALOAD PUSH1 0x4 CALLDATALOAD PUSH1 0xB DUP3 LT ISZERO PUSH2 0x2DE JUMPI DUP1 ISZERO ISZERO DUP1 PUSH2 0x10E1 JUMPI JUMPDEST PUSH2 0x10B2 SWAP1 PUSH2 0x4F09 JUMP JUMPDEST PUSH2 0x10BA PUSH2 0x4A40 JUMP JUMPDEST DUP3 MSTORE PUSH1 0x7 PUSH1 0x20 MSTORE PUSH1 0x15 PUSH1 0x40 DUP4 KECCAK256 ADD SWAP1 PUSH3 0xFF0000 DUP3 SLOAD SWAP2 PUSH1 0x10 SHL AND SWAP1 PUSH3 0xFF0000 NOT AND OR SWAP1 SSTORE DUP1 RETURN JUMPDEST POP PUSH1 0x5 SLOAD DUP2 LT PUSH2 0x10A9 JUMP JUMPDEST POP CALLVALUE PUSH2 0x2E2 JUMPI PUSH1 0x20 CALLDATASIZE PUSH1 0x3 NOT ADD SLT PUSH2 0x2E2 JUMPI PUSH1 0x4 CALLDATALOAD DUP2 MSTORE PUSH1 0x7 PUSH1 0x20 MSTORE PUSH1 0x40 SWAP1 DUP2 SWAP1 KECCAK256 PUSH2 0x220 DUP2 SWAP1 MSTORE DUP1 SLOAD PUSH2 0x180 MSTORE PUSH1 0x1 DUP2 ADD SLOAD PUSH1 0x1 PUSH1 0x1 PUSH1 0xA0 SHL SUB SWAP1 DUP2 AND PUSH2 0x1C0 MSTORE PUSH1 0x2 DUP3 ADD SLOAD SWAP3 MLOAD PUSH1 0xE0 DUP2 SWAP1 MSTORE SWAP3 AND SWAP2 SWAP1 PUSH2 0x114C SWAP1 DUP3 SWAP1 PUSH1 0x3 ADD PUSH2 0x48B3 JUMP JUMPDEST SUB PUSH1 0xE0 MLOAD SWAP1 PUSH2 0x115A SWAP2 PUSH2 0x49AA JUMP JUMPDEST PUSH1 0x40 MLOAD DUP1 DUP1 PUSH2 0x220 MLOAD PUSH1 0x4 ADD SWAP1 PUSH2 0x1170 SWAP2 PUSH2 0x48B3 JUMP JUMPDEST SUB PUSH2 0x117B SWAP1 DUP3 PUSH2 0x49AA JUMP JUMPDEST PUSH1 0x40 MLOAD SWAP2 DUP3 DUP1 PUSH2 0x220 MLOAD PUSH1 0x5 ADD SWAP1 PUSH2 0x1192 SWAP2 PUSH2 0x48B3 JUMP JUMPDEST SUB PUSH2 0x119D SWAP1 DUP5 PUSH2 0x49AA JUMP JUMPDEST PUSH1 0x40 MLOAD SWAP2 DUP3 DUP1 PUSH2 0x220 MLOAD PUSH1 0x6 ADD SWAP1 PUSH2 0x11B4 SWAP2 PUSH2 0x48B3 JUMP JUMPDEST SUB PUSH2 0x11BF SWAP1 DUP5 PUSH2 0x49AA JUMP JUMPDEST PUSH1 0x40 MLOAD SWAP4 DUP5 DUP1 PUSH2 0x220 MLOAD PUSH1 0x7 ADD SWAP1 PUSH2 0x11D6 SWAP2 PUSH2 0x48B3 JUMP JUMPDEST SUB PUSH2 0x11E1 SWAP1 DUP7 PUSH2 0x49AA JUMP JUMPDEST PUSH2 0x220 MLOAD SWAP4 PUSH1 0x8 DUP6 ADD SLOAD PUSH1 0xFF AND PUSH2 0x160 MSTORE PUSH1 0x9 DUP6 ADD SLOAD SWAP6 PUSH1 0xA DUP7 ADD SLOAD PUSH1 0xB DUP8 ADD SLOAD SWAP2 PUSH1 0xC DUP9 ADD SLOAD SWAP4 PUSH1 0xD DUP10 ADD SLOAD SWAP6 PUSH1 0xE DUP11 ADD SLOAD SWAP8 PUSH1 0xF DUP12 ADD SLOAD SWAP10 PUSH1 0x10 DUP13 ADD SLOAD SWAP12 PUSH1 0x11 DUP2 ADD SLOAD PUSH2 0x140 MSTORE PUSH1 0x12 DUP2 ADD SLOAD PUSH2 0x200 MSTORE PUSH1 0x13 DUP2 ADD SLOAD PUSH2 0x100 MSTORE PUSH1 0x14 DUP2 ADD SLOAD PUSH2 0x240 MSTORE PUSH1 0x15 DUP2 ADD SLOAD PUSH1 0xC0 MSTORE PUSH1 0x16 DUP2 ADD SLOAD PUSH2 0x260 MSTORE PUSH1 0x17 DUP2 ADD SLOAD PUSH2 0x1E0 MSTORE PUSH1 0x18 DUP2 ADD SLOAD PUSH1 0xA0 MSTORE PUSH1 0x19 DUP2 ADD SLOAD PUSH1 0x80 MSTORE PUSH1 0x1A ADD SLOAD PUSH2 0x1A0 MSTORE PUSH1 0x40 MLOAD DUP1 PUSH2 0x120 MSTORE PUSH2 0x180 MLOAD SWAP1 MSTORE PUSH2 0x1C0 MLOAD PUSH2 0x120 MLOAD PUSH1 0x20 ADD MSTORE PUSH2 0x120 MLOAD PUSH1 0x40 ADD MSTORE PUSH2 0x440 DUP1 PUSH2 0x120 MLOAD PUSH1 0x60 ADD MSTORE PUSH2 0x120 MLOAD ADD PUSH1 0xE0 MLOAD SWAP1 PUSH2 0x12B7 SWAP2 PUSH2 0x49CD JUMP JUMPDEST PUSH2 0x120 MLOAD DUP1 DUP3 SUB SWAP1 PUSH1 0x80 ADD MSTORE PUSH2 0x12CC SWAP2 PUSH2 0x49CD JUMP JUMPDEST PUSH2 0x120 MLOAD DUP1 DUP3 SUB SWAP1 PUSH1 0xA0 ADD MSTORE PUSH2 0x12E1 SWAP2 PUSH2 0x49CD JUMP JUMPDEST PUSH2 0x120 MLOAD DUP1 DUP3 SUB SWAP1 PUSH1 0xC0 ADD MSTORE PUSH2 0x12F6 SWAP2 PUSH2 0x49CD JUMP JUMPDEST PUSH2 0x120 MLOAD DUP1 DUP3 SUB SWAP1 PUSH1 0xE0 ADD MSTORE PUSH2 0x130B SWAP2 PUSH2 0x49CD JUMP JUMPDEST SWAP8 PUSH2 0x160 MLOAD PUSH2 0x1319 SWAP1 PUSH2 0x4A0D JUMP JUMPDEST PUSH2 0x160 MLOAD PUSH2 0x120 MLOAD PUSH2 0x100 ADD MSTORE PUSH2 0x120 MLOAD PUSH2 0x120 ADD MSTORE PUSH2 0x120 MLOAD PUSH2 0x140 ADD MSTORE PUSH2 0x120 MLOAD PUSH2 0x160 ADD MSTORE PUSH2 0x120 MLOAD PUSH2 0x180 ADD MSTORE PUSH2 0x120 MLOAD PUSH2 0x1A0 ADD MSTORE PUSH2 0x120 MLOAD PUSH2 0x1C0 ADD MSTORE PUSH2 0x120 MLOAD PUSH2 0x1E0 ADD MSTORE PUSH2 0x120 MLOAD PUSH2 0x200 ADD MSTORE PUSH2 0x140 MLOAD PUSH2 0x120 MLOAD PUSH2 0x220 ADD MSTORE PUSH2 0x200 MLOAD PUSH1 0xFF AND PUSH2 0x138B SWAP1 PUSH2 0x47DA JUMP JUMPDEST PUSH2 0x200 MLOAD PUSH1 0xFF AND PUSH2 0x120 MLOAD PUSH2 0x240 ADD MSTORE PUSH2 0x200 MLOAD PUSH1 0x8 SHR PUSH1 0xFF AND PUSH2 0x120 MLOAD PUSH2 0x260 ADD MSTORE PUSH2 0x200 MLOAD PUSH1 0x10 SHR PUSH1 0xFF AND PUSH2 0x120 MLOAD PUSH2 0x280 ADD MSTORE PUSH2 0x200 MLOAD PUSH1 0x18 SHR PUSH1 0xFF AND PUSH2 0x120 MLOAD PUSH2 0x2A0 ADD MSTORE PUSH2 0x200 MLOAD PUSH1 0x20 SHR PUSH1 0xFF AND PUSH2 0x13E7 SWAP1 PUSH2 0x47DA JUMP JUMPDEST PUSH2 0x200 MLOAD PUSH1 0x20 SHR PUSH1 0xFF AND PUSH2 0x120 MLOAD PUSH2 0x2C0 ADD MSTORE PUSH1 0x1 PUSH1 0xA0 SHL PUSH1 0x1 SWAP1 SUB PUSH2 0x200 MLOAD PUSH1 0x28 SHR AND PUSH2 0x120 MLOAD PUSH2 0x2E0 ADD MSTORE PUSH2 0x100 MLOAD PUSH2 0x120 MLOAD PUSH2 0x300 ADD MSTORE PUSH2 0x240 MLOAD PUSH2 0x120 MLOAD PUSH2 0x320 ADD MSTORE PUSH1 0xC0 MLOAD PUSH1 0xFF AND ISZERO ISZERO PUSH2 0x120 MLOAD PUSH2 0x340 ADD MSTORE PUSH1 0xC0 MLOAD PUSH1 0x8 SHR PUSH1 0xFF AND PUSH2 0x1451 SWAP1 PUSH2 0x4A0D JUMP JUMPDEST PUSH1 0xC0 MLOAD PUSH1 0x8 SHR PUSH1 0xFF AND PUSH2 0x120 MLOAD PUSH2 0x360 ADD MSTORE PUSH2 0x120 MLOAD PUSH2 0x380 ADD PUSH1 0xC0 MLOAD PUSH1 0x10 SHR PUSH1 0xFF AND SWAP1 PUSH2 0x147E SWAP2 PUSH2 0x4A17 JUMP JUMPDEST PUSH2 0x260 MLOAD PUSH2 0x120 MLOAD PUSH2 0x3A0 ADD MSTORE PUSH2 0x1E0 MLOAD PUSH2 0x120 MLOAD PUSH2 0x3C0 ADD MSTORE PUSH1 0xA0 MLOAD PUSH2 0x120 MLOAD PUSH2 0x3E0 ADD MSTORE PUSH1 0x80 MLOAD PUSH2 0x120 MLOAD PUSH2 0x400 ADD MSTORE PUSH2 0x1A0 MLOAD PUSH2 0x120 MLOAD PUSH2 0x420 ADD MSTORE PUSH2 0x120 MLOAD DUP1 SWAP2 SUB SWAP1 RETURN JUMPDEST POP CALLVALUE PUSH2 0x2E2 JUMPI PUSH1 0x20 CALLDATASIZE PUSH1 0x3 NOT ADD SLT PUSH2 0x2E2 JUMPI PUSH1 0x40 SWAP1 PUSH1 0x4 CALLDATALOAD DUP2 MSTORE PUSH1 0x9 PUSH1 0x20 MSTORE KECCAK256 DUP1 SLOAD SWAP1 PUSH2 0x2DA PUSH1 0x1 DUP3 ADD SLOAD PUSH1 0x2 DUP4 ADD SLOAD SWAP3 PUSH1 0x3 DUP2 ADD SLOAD SWAP5 PUSH1 0x4 DUP3 ADD SLOAD SWAP3 PUSH1 0x5 DUP4 ADD SLOAD SWAP2 PUSH1 0x6 DUP5 ADD SLOAD SWAP1 PUSH1 0x7 DUP6 ADD SLOAD SWAP2 PUSH1 0x8 DUP7 ADD SLOAD SWAP5 PUSH1 0xFF PUSH1 0xA PUSH1 0x9 DUP10 ADD SLOAD SWAP9 ADD SLOAD AND SWAP8 PUSH1 0x40 MLOAD SWAP12 DUP13 SWAP12 DUP13 PUSH1 0xFF DUP9 PUSH1 0x10 SHR AND SWAP9 PUSH1 0xFF DUP1 DUP11 PUSH1 0x8 SHR AND SWAP10 AND SWAP8 PUSH1 0xFF DUP5 PUSH1 0xA0 SHR AND SWAP4 PUSH1 0x1 DUP1 PUSH1 0xA0 SHL SUB AND SWAP3 PUSH2 0x47EE JUMP JUMPDEST POP CALLVALUE PUSH2 0x2E2 JUMPI PUSH1 0x20 DUP1 PUSH1 0x3 NOT CALLDATASIZE ADD SLT PUSH2 0x364 JUMPI PUSH1 0x1 PUSH1 0x1 PUSH1 0xA0 SHL SUB PUSH2 0x157D PUSH2 0x4745 JUMP JUMPDEST AND DUP3 MSTORE PUSH1 0xA DUP2 MSTORE PUSH1 0x40 DUP3 KECCAK256 SWAP2 PUSH1 0x40 MLOAD DUP1 SWAP3 DUP1 DUP6 SLOAD SWAP3 DUP4 DUP2 MSTORE ADD SWAP5 DUP4 MSTORE DUP1 DUP4 KECCAK256 SWAP3 SWAP1 JUMPDEST DUP3 DUP3 LT PUSH2 0x15B6 JUMPI PUSH2 0x2DA DUP6 PUSH2 0x341 DUP2 DUP10 SUB DUP3 PUSH2 0x49AA JUMP JUMPDEST DUP4 SLOAD DUP7 MSTORE SWAP5 DUP6 ADD SWAP5 PUSH1 0x1 SWAP4 DUP5 ADD SWAP4 SWAP1 SWAP2 ADD SWAP1 PUSH2 0x159F JUMP JUMPDEST POP CALLVALUE PUSH2 0x2E2 JUMPI DUP1 PUSH1 0x3 NOT CALLDATASIZE ADD SLT PUSH2 0x2E2 JUMPI PUSH1 0x20 SWAP1 PUSH1 0x40 MLOAD SWAP1 DUP2 MSTORE RETURN JUMPDEST POP CALLVALUE PUSH2 0x2E2 JUMPI PUSH2 0x260 CALLDATASIZE PUSH1 0x3 NOT ADD SLT PUSH2 0x2E2 JUMPI PUSH1 0x4 CALLDATALOAD PUSH1 0x1 PUSH1 0x1 PUSH1 0x40 SHL SUB DUP2 GT PUSH2 0x364 JUMPI PUSH2 0x161B SWAP1 CALLDATASIZE SWAP1 PUSH1 0x4 ADD PUSH2 0x46F2 JUMP JUMPDEST PUSH1 0x24 CALLDATALOAD PUSH1 0x1 PUSH1 0x1 PUSH1 0x40 SHL SUB DUP2 GT PUSH2 0x1FD3 JUMPI PUSH2 0x163A SWAP1 CALLDATASIZE SWAP1 PUSH1 0x4 ADD PUSH2 0x46F2 JUMP JUMPDEST SWAP1 PUSH1 0x44 CALLDATALOAD PUSH1 0x1 PUSH1 0x1 PUSH1 0x40 SHL SUB DUP2 GT PUSH2 0x1F83 JUMPI PUSH2 0x165A SWAP1 CALLDATASIZE SWAP1 PUSH1 0x4 ADD PUSH2 0x46F2 JUMP JUMPDEST SWAP1 PUSH1 0x64 CALLDATALOAD PUSH1 0x1 PUSH1 0x1 PUSH1 0x40 SHL SUB DUP2 GT PUSH2 0x1FCF JUMPI PUSH2 0x167A SWAP1 CALLDATASIZE SWAP1 PUSH1 0x4 ADD PUSH2 0x46F2 JUMP JUMPDEST SWAP1 PUSH1 0x84 CALLDATALOAD PUSH1 0x1 PUSH1 0x1 PUSH1 0x40 SHL SUB DUP2 GT PUSH2 0x1FCB JUMPI PUSH2 0x169A SWAP1 CALLDATASIZE SWAP1 PUSH1 0x4 ADD PUSH2 0x46F2 JUMP JUMPDEST SWAP10 SWAP1 SWAP9 PUSH1 0x2 PUSH1 0xA4 CALLDATALOAD LT ISZERO PUSH2 0x364 JUMPI PUSH1 0x3 PUSH2 0x144 CALLDATALOAD LT ISZERO PUSH2 0x364 JUMPI PUSH2 0x164 CALLDATALOAD PUSH1 0x1 PUSH1 0x1 PUSH1 0xA0 SHL SUB DUP2 AND SWAP1 SUB PUSH2 0x1FB3 JUMPI PUSH2 0x16D0 PUSH2 0x471F JUMP JUMPDEST PUSH1 0x3 PUSH2 0x1E4 CALLDATALOAD LT ISZERO PUSH2 0x2DE JUMPI PUSH1 0xFF PUSH2 0x204 CALLDATALOAD AND PUSH2 0x204 CALLDATALOAD SUB PUSH2 0x1FB3 JUMPI PUSH1 0xFF PUSH2 0x224 CALLDATALOAD AND PUSH2 0x224 CALLDATALOAD SUB PUSH2 0x1FB3 JUMPI PUSH1 0x2 PUSH2 0x244 CALLDATALOAD LT ISZERO PUSH2 0x2DE JUMPI PUSH2 0x1710 PUSH2 0x4E27 JUMP JUMPDEST PUSH2 0x1718 PUSH2 0x4E09 JUMP JUMPDEST PUSH2 0x1725 PUSH1 0xC4 CALLDATALOAD ISZERO ISZERO PUSH2 0x4C45 JUMP JUMPDEST PUSH2 0x1732 TIMESTAMP PUSH1 0xE4 CALLDATALOAD GT PUSH2 0x4CA0 JUMP JUMPDEST PUSH1 0x3 SLOAD PUSH1 0x4 DUP1 SLOAD PUSH1 0x2 SLOAD PUSH1 0x40 MLOAD PUSH4 0x37382D39 PUSH1 0xE2 SHL DUP2 MSTORE SWAP4 PUSH1 0x1 PUSH1 0x1 PUSH1 0xA0 SHL SUB SWAP1 DUP2 AND SWAP4 SWAP3 DUP2 AND SWAP3 PUSH1 0x20 SWAP3 DUP7 SWAP3 DUP4 SWAP2 PUSH1 0x8 SHR AND GAS STATICCALL SWAP3 DUP4 ISZERO PUSH2 0x1FC0 JUMPI DUP7 SWAP4 PUSH2 0x1F87 JUMPI JUMPDEST POP DUP2 EXTCODESIZE ISZERO PUSH2 0x1F83 JUMPI SWAP2 DUP6 SWAP2 PUSH2 0x17A2 SWAP4 DUP4 PUSH1 0x40 MLOAD DUP1 SWAP7 DUP2 SWAP6 DUP3 SWAP5 PUSH4 0xEC185A07 PUSH1 0xE0 SHL DUP5 MSTORE CALLER PUSH1 0x4 DUP6 ADD PUSH2 0x4CFA JUMP JUMPDEST SUB SWAP3 GAS CALL DUP1 ISZERO PUSH2 0x1F78 JUMPI SWAP1 DUP5 SWAP2 PUSH2 0x1F64 JUMPI JUMPDEST POP POP PUSH1 0x5 SLOAD SWAP10 PUSH2 0x17C3 DUP12 PUSH2 0x4D40 JUMP JUMPDEST PUSH1 0x5 SSTORE DUP11 DUP5 MSTORE PUSH1 0x7 PUSH1 0x20 MSTORE PUSH1 0x40 DUP5 KECCAK256 DUP12 DUP2 SSTORE PUSH1 0x1 DUP2 ADD DUP1 SLOAD PUSH1 0x1 PUSH1 0x1 PUSH1 0xA0 SHL SUB NOT AND CALLER OR SWAP1 SSTORE SWAP3 PUSH1 0x1 PUSH1 0x1 PUSH1 0x40 SHL SUB DUP3 GT PUSH2 0x1F50 JUMPI DUP2 SWAP1 PUSH2 0x1807 PUSH1 0x3 DUP7 ADD SLOAD PUSH2 0x4879 JUMP JUMPDEST PUSH1 0x1F DUP2 GT PUSH2 0x1EFF JUMPI JUMPDEST POP DUP6 SWAP1 PUSH1 0x1F DUP4 GT PUSH1 0x1 EQ PUSH2 0x1E93 JUMPI DUP7 SWAP3 PUSH2 0x1E88 JUMPI JUMPDEST POP POP DUP2 PUSH1 0x1 SHL SWAP2 PUSH1 0x0 NOT SWAP1 PUSH1 0x3 SHL SHR NOT AND OR PUSH1 0x3 DUP4 ADD SSTORE JUMPDEST PUSH1 0x1 PUSH1 0x1 PUSH1 0x40 SHL SUB DUP10 GT PUSH2 0x1C44 JUMPI PUSH2 0x1858 PUSH1 0x4 DUP4 ADD SLOAD PUSH2 0x4879 JUMP JUMPDEST PUSH1 0x1F DUP2 GT PUSH2 0x1E43 JUMPI JUMPDEST POP DUP9 DUP4 PUSH1 0x1F DUP3 GT PUSH1 0x1 EQ PUSH2 0x1DD7 JUMPI DUP5 SWAP2 PUSH2 0x1DCC JUMPI JUMPDEST POP DUP10 PUSH1 0x1 SHL SWAP1 PUSH1 0x0 NOT DUP12 PUSH1 0x3 SHL SHR NOT AND OR PUSH1 0x4 DUP4 ADD SSTORE JUMPDEST PUSH1 0x1 PUSH1 0x1 PUSH1 0x40 SHL SUB DUP8 GT PUSH2 0x1C44 JUMPI PUSH2 0x18A8 PUSH1 0x5 DUP4 ADD SLOAD PUSH2 0x4879 JUMP JUMPDEST PUSH1 0x1F DUP2 GT PUSH2 0x1D87 JUMPI JUMPDEST POP DUP7 DUP4 PUSH1 0x1F DUP3 GT PUSH1 0x1 EQ PUSH2 0x1D1D JUMPI DUP5 SWAP2 PUSH2 0x1D12 JUMPI JUMPDEST POP DUP8 PUSH1 0x1 SHL SWAP1 PUSH1 0x0 NOT DUP10 PUSH1 0x3 SHL SHR NOT AND OR PUSH1 0x5 DUP4 ADD SSTORE JUMPDEST PUSH1 0x1 PUSH1 0x1 PUSH1 0x40 SHL SUB DUP6 GT PUSH2 0x1C44 JUMPI PUSH2 0x18F8 PUSH1 0x6 DUP4 ADD SLOAD PUSH2 0x4879 JUMP JUMPDEST PUSH1 0x1F DUP2 GT PUSH2 0x1CCD JUMPI JUMPDEST POP DUP5 DUP4 PUSH1 0x1F DUP3 GT PUSH1 0x1 EQ PUSH2 0x1C63 JUMPI DUP5 SWAP2 PUSH2 0x1C58 JUMPI JUMPDEST POP DUP6 PUSH1 0x1 SHL SWAP1 PUSH1 0x0 NOT DUP8 PUSH1 0x3 SHL SHR NOT AND OR PUSH1 0x6 DUP4 ADD SSTORE JUMPDEST PUSH1 0x1 PUSH1 0x1 PUSH1 0x40 SHL SUB DUP13 GT PUSH2 0x1C44 JUMPI PUSH2 0x1948 PUSH1 0x7 DUP4 ADD SLOAD PUSH2 0x4879 JUMP JUMPDEST SWAP12 PUSH1 0x1F DUP14 GT PUSH2 0x1BFB JUMPI JUMPDEST PUSH1 0x20 SWAP13 POP DUP4 SWAP12 PUSH1 0x1F DUP3 GT PUSH1 0x1 EQ PUSH2 0x1B68 JUMPI SWAP11 PUSH2 0x1AD4 SWAP7 DUP15 DUP3 SWAP15 SWAP8 PUSH2 0x1AA4 PUSH2 0x1AEC SWAP16 DUP6 SWAP16 SWAP15 SWAP13 SWAP8 DUP11 DUP6 SWAP16 SWAP12 SWAP11 PUSH1 0x40 SWAP3 DUP11 DUP11 SWAP16 SWAP12 PUSH2 0x1ABC SWAP13 DUP11 SWAP16 SWAP8 DUP14 SWAP9 SWAP3 PUSH2 0x1B5D JUMPI JUMPDEST POP POP DUP2 PUSH1 0x1 SHL SWAP2 PUSH1 0x0 NOT SWAP1 PUSH1 0x3 SHL SHR NOT AND OR PUSH1 0x7 DUP4 ADD SSTORE JUMPDEST PUSH2 0x19BA PUSH1 0xA4 CALLDATALOAD PUSH1 0x8 DUP5 ADD PUSH2 0x4D65 JUMP JUMPDEST PUSH1 0xC4 CALLDATALOAD PUSH1 0x9 DUP4 ADD SSTORE PUSH1 0xE4 CALLDATALOAD PUSH1 0xB DUP4 ADD SSTORE PUSH2 0x104 CALLDATALOAD PUSH1 0x11 DUP4 ADD SSTORE PUSH2 0x124 CALLDATALOAD PUSH1 0x10 DUP4 ADD SSTORE PUSH2 0x1A7A PUSH1 0x12 DUP4 ADD PUSH2 0x19EF PUSH2 0x144 CALLDATALOAD PUSH2 0x47DA JUMP JUMPDEST DUP1 SLOAD PUSH1 0x1 PUSH1 0x28 SHL PUSH1 0x1 PUSH1 0xC8 SHL SUB PUSH2 0x164 CALLDATALOAD PUSH1 0x28 SHL AND PUSH1 0xFF PUSH2 0x144 CALLDATALOAD DUP2 AND DUP14 SHL PUSH1 0x1 DUP15 SHL PUSH1 0x1 PUSH1 0xC8 SHL SUB NOT SWAP1 SWAP4 AND SWAP3 SWAP1 SWAP3 OR OR DUP3 SSTORE PUSH2 0x184 CALLDATALOAD PUSH1 0x13 DUP7 ADD SSTORE PUSH2 0x1A4 CALLDATALOAD PUSH1 0x14 DUP7 ADD SSTORE PUSH1 0x15 DUP6 ADD DUP1 SLOAD PUSH1 0xFF NOT AND SWAP5 ISZERO ISZERO SWAP1 SWAP2 AND SWAP4 SWAP1 SWAP4 OR DUP4 SSTORE DUP1 SLOAD PUSH4 0xFF000000 NOT AND DUP2 SSTORE PUSH2 0x1A63 PUSH2 0x1E4 CALLDATALOAD DUP3 PUSH2 0x4D7D JUMP JUMPDEST PUSH2 0x1A70 PUSH2 0x204 CALLDATALOAD DUP3 PUSH2 0x4D87 JUMP JUMPDEST PUSH2 0x224 CALLDATALOAD SWAP1 PUSH2 0x4D9D JUMP JUMPDEST PUSH2 0x1A87 PUSH2 0x244 CALLDATALOAD DUP3 PUSH2 0x4DB5 JUMP JUMPDEST PUSH3 0xFF0000 NOT DUP2 SLOAD AND SWAP1 SSTORE PUSH1 0x16 TIMESTAMP SWAP2 ADD SSTORE CALLER DUP2 MSTORE PUSH1 0xA DUP7 MSTORE KECCAK256 PUSH2 0x4DD4 JUMP JUMPDEST DUP3 PUSH1 0x40 MLOAD SWAP4 DUP5 SWAP3 DUP4 CALLDATACOPY DUP2 ADD PUSH1 0xC DUP2 MSTORE SUB ADD SWAP1 KECCAK256 PUSH2 0x4DD4 JUMP JUMPDEST DUP3 PUSH1 0x40 MLOAD SWAP4 DUP5 SWAP3 DUP4 CALLDATACOPY DUP2 ADD PUSH1 0xD DUP2 MSTORE SUB ADD SWAP1 KECCAK256 PUSH2 0x4DD4 JUMP JUMPDEST DUP3 PUSH1 0x40 MLOAD SWAP4 DUP5 SWAP3 DUP4 CALLDATACOPY DUP2 ADD PUSH1 0xE DUP2 MSTORE SUB ADD SWAP1 KECCAK256 PUSH2 0x4DD4 JUMP JUMPDEST PUSH1 0x40 MLOAD PUSH1 0x1 DUP2 MSTORE TIMESTAMP DUP4 DUP3 ADD MSTORE DUP2 PUSH1 0x0 DUP1 MLOAD PUSH1 0x20 PUSH2 0x52B2 DUP4 CODECOPY DUP2 MLOAD SWAP2 MSTORE PUSH1 0x40 CALLER SWAP4 LOG3 DUP1 PUSH1 0x0 DUP1 MLOAD PUSH1 0x20 PUSH2 0x5292 DUP4 CODECOPY DUP2 MLOAD SWAP2 MSTORE PUSH1 0xC0 PUSH1 0x40 MLOAD PUSH1 0x0 DUP2 MSTORE PUSH1 0x0 DUP7 DUP3 ADD MSTORE PUSH1 0x80 PUSH1 0x40 DUP3 ADD MSTORE PUSH1 0x7 PUSH1 0x80 DUP3 ADD MSTORE PUSH7 0x18DC99585D1959 PUSH1 0xCA SHL PUSH1 0xA0 DUP3 ADD MSTORE TIMESTAMP PUSH1 0x60 DUP3 ADD MSTORE LOG2 PUSH1 0x1 DUP1 SSTORE PUSH1 0x40 MLOAD SWAP1 DUP2 MSTORE RETURN JUMPDEST ADD CALLDATALOAD SWAP1 POP CODESIZE DUP1 PUSH2 0x1993 JUMP JUMPDEST PUSH1 0x7 DUP5 ADD DUP6 MSTORE DUP14 DUP6 KECCAK256 SWAP1 DUP6 SWAP14 DUP15 JUMPDEST PUSH1 0x1F NOT DUP6 AND GT PUSH2 0x1BE3 JUMPI DUP16 SWAP11 SWAP7 DUP15 SWAP16 POP SWAP8 PUSH2 0x1AA4 PUSH2 0x1AEC SWAP16 SWAP15 SWAP14 SWAP12 SWAP7 DUP16 SWAP11 PUSH1 0x40 SWAP1 DUP16 SWAP11 DUP14 SWAP9 SWAP4 PUSH2 0x1AD4 SWAP16 SWAP9 DUP12 DUP12 SWAP7 DUP16 SWAP11 SWAP3 PUSH1 0x1 SWAP4 PUSH2 0x1ABC SWAP16 PUSH1 0x1F NOT DUP2 AND LT PUSH2 0x1BC9 JUMPI JUMPDEST POP POP POP DUP2 SHL ADD PUSH1 0x7 DUP4 ADD SSTORE PUSH2 0x19AB JUMP JUMPDEST ADD CALLDATALOAD PUSH1 0x0 NOT PUSH1 0x3 DUP5 SWAP1 SHL PUSH1 0xF8 AND SHR NOT AND SWAP1 SSTORE CODESIZE DUP1 DUP1 PUSH2 0x1BB9 JUMP JUMPDEST SWAP2 DUP16 PUSH1 0x1 DUP2 SWAP3 DUP6 DUP6 ADD CALLDATALOAD DUP2 SSTORE ADD SWAP4 ADD SWAP15 ADD SWAP14 DUP15 PUSH2 0x1B76 JUMP JUMPDEST PUSH1 0x7 DUP4 ADD DUP5 MSTORE PUSH1 0x20 DUP5 KECCAK256 PUSH1 0x1F DUP3 ADD PUSH1 0x5 SHR DUP2 ADD PUSH1 0x20 DUP4 LT PUSH2 0x1C3D JUMPI JUMPDEST PUSH1 0x1F DUP16 JUMPDEST ADD PUSH1 0x5 SHR DUP3 ADD DUP2 LT PUSH2 0x1C2E JUMPI POP POP PUSH2 0x1952 JUMP JUMPDEST PUSH1 0x0 DUP2 SSTORE PUSH1 0x1 ADD PUSH1 0x1F DUP16 PUSH2 0x1C1B JUMP JUMPDEST POP DUP1 PUSH2 0x1C17 JUMP JUMPDEST PUSH4 0x4E487B71 PUSH1 0xE0 SHL DUP4 MSTORE PUSH1 0x41 PUSH1 0x4 MSTORE PUSH1 0x24 DUP4 REVERT JUMPDEST SWAP1 POP DUP5 ADD CALLDATALOAD CODESIZE PUSH2 0x1916 JUMP JUMPDEST PUSH1 0x6 DUP5 ADD DUP6 MSTORE PUSH1 0x20 DUP6 KECCAK256 SWAP2 POP DUP5 JUMPDEST PUSH1 0x1F NOT DUP9 AND DUP2 LT PUSH2 0x1CB5 JUMPI POP DUP7 PUSH1 0x1F NOT DUP2 AND LT PUSH2 0x1C9B JUMPI JUMPDEST POP POP PUSH1 0x1 DUP6 DUP2 SHL ADD PUSH1 0x6 DUP4 ADD SSTORE PUSH2 0x192D JUMP JUMPDEST DUP6 ADD CALLDATALOAD PUSH1 0x0 NOT PUSH1 0x3 DUP9 SWAP1 SHL PUSH1 0xF8 AND SHR NOT AND SWAP1 SSTORE CODESIZE DUP1 PUSH2 0x1C89 JUMP JUMPDEST SWAP1 SWAP2 PUSH1 0x20 PUSH1 0x1 DUP2 SWAP3 DUP6 DUP11 ADD CALLDATALOAD DUP2 SSTORE ADD SWAP4 ADD SWAP2 ADD PUSH2 0x1C71 JUMP JUMPDEST PUSH1 0x6 DUP4 ADD DUP5 MSTORE PUSH1 0x20 DUP5 KECCAK256 PUSH1 0x1F DUP8 ADD PUSH1 0x5 SHR DUP2 ADD PUSH1 0x20 DUP9 LT PUSH2 0x1D0B JUMPI JUMPDEST PUSH1 0x1F DUP4 ADD PUSH1 0x5 SHR DUP3 ADD DUP2 LT PUSH2 0x1CFF JUMPI POP POP PUSH2 0x1901 JUMP JUMPDEST PUSH1 0x0 DUP2 SSTORE PUSH1 0x1 ADD PUSH2 0x1CE9 JUMP JUMPDEST POP DUP1 PUSH2 0x1CE9 JUMP JUMPDEST SWAP1 POP DUP7 ADD CALLDATALOAD CODESIZE PUSH2 0x18C6 JUMP JUMPDEST PUSH1 0x5 DUP5 ADD DUP6 MSTORE PUSH1 0x20 DUP6 KECCAK256 SWAP2 POP DUP5 JUMPDEST PUSH1 0x1F NOT DUP11 AND DUP2 LT PUSH2 0x1D6F JUMPI POP DUP9 PUSH1 0x1F NOT DUP2 AND LT PUSH2 0x1D55 JUMPI JUMPDEST POP POP PUSH1 0x1 DUP8 DUP2 SHL ADD PUSH1 0x5 DUP4 ADD SSTORE PUSH2 0x18DD JUMP JUMPDEST DUP8 ADD CALLDATALOAD PUSH1 0x0 NOT PUSH1 0x3 DUP11 SWAP1 SHL PUSH1 0xF8 AND SHR NOT AND SWAP1 SSTORE CODESIZE DUP1 PUSH2 0x1D43 JUMP JUMPDEST SWAP1 SWAP2 PUSH1 0x20 PUSH1 0x1 DUP2 SWAP3 DUP6 DUP13 ADD CALLDATALOAD DUP2 SSTORE ADD SWAP4 ADD SWAP2 ADD PUSH2 0x1D2B JUMP JUMPDEST PUSH1 0x5 DUP4 ADD DUP5 MSTORE PUSH1 0x20 DUP5 KECCAK256 PUSH1 0x1F DUP10 ADD PUSH1 0x5 SHR DUP2 ADD PUSH1 0x20 DUP11 LT PUSH2 0x1DC5 JUMPI JUMPDEST PUSH1 0x1F DUP4 ADD PUSH1 0x5 SHR DUP3 ADD DUP2 LT PUSH2 0x1DB9 JUMPI POP POP PUSH2 0x18B1 JUMP JUMPDEST PUSH1 0x0 DUP2 SSTORE PUSH1 0x1 ADD PUSH2 0x1DA3 JUMP JUMPDEST POP DUP1 PUSH2 0x1DA3 JUMP JUMPDEST SWAP1 POP DUP9 ADD CALLDATALOAD CODESIZE PUSH2 0x1876 JUMP JUMPDEST PUSH1 0x4 DUP5 ADD DUP6 MSTORE PUSH1 0x20 DUP6 KECCAK256 SWAP2 POP DUP5 JUMPDEST DUP11 PUSH1 0x1F NOT DUP14 AND DUP3 LT PUSH2 0x1E2B JUMPI POP POP DUP11 PUSH1 0x1F NOT DUP2 AND LT PUSH2 0x1E11 JUMPI JUMPDEST POP POP PUSH1 0x1 DUP10 DUP2 SHL ADD PUSH1 0x4 DUP4 ADD SSTORE PUSH2 0x188D JUMP JUMPDEST DUP10 ADD CALLDATALOAD PUSH1 0x0 NOT PUSH1 0x3 DUP13 SWAP1 SHL PUSH1 0xF8 AND SHR NOT AND SWAP1 SSTORE CODESIZE DUP1 PUSH2 0x1DFF JUMP JUMPDEST PUSH1 0x1 DUP4 SWAP5 PUSH1 0x20 SWAP4 SWAP5 DUP5 SWAP4 ADD CALLDATALOAD DUP2 SSTORE ADD SWAP4 ADD SWAP2 ADD PUSH2 0x1DE5 JUMP JUMPDEST PUSH1 0x4 DUP4 ADD DUP5 MSTORE PUSH1 0x20 DUP5 KECCAK256 PUSH1 0x1F DUP12 ADD PUSH1 0x5 SHR DUP2 ADD PUSH1 0x20 DUP13 LT PUSH2 0x1E81 JUMPI JUMPDEST PUSH1 0x1F DUP4 ADD PUSH1 0x5 SHR DUP3 ADD DUP2 LT PUSH2 0x1E75 JUMPI POP POP PUSH2 0x1861 JUMP JUMPDEST PUSH1 0x0 DUP2 SSTORE PUSH1 0x1 ADD PUSH2 0x1E5F JUMP JUMPDEST POP DUP1 PUSH2 0x1E5F JUMP JUMPDEST ADD CALLDATALOAD SWAP1 POP CODESIZE DUP1 PUSH2 0x1825 JUMP JUMPDEST PUSH1 0x3 DUP7 ADD DUP8 MSTORE PUSH1 0x20 DUP8 KECCAK256 DUP8 SWAP5 POP SWAP2 JUMPDEST PUSH1 0x1F NOT DUP5 AND DUP6 LT PUSH2 0x1EE7 JUMPI PUSH1 0x1 SWAP5 POP DUP4 PUSH1 0x1F NOT DUP2 AND LT PUSH2 0x1ECD JUMPI JUMPDEST POP POP POP DUP2 SHL ADD PUSH1 0x3 DUP4 ADD SSTORE PUSH2 0x183D JUMP JUMPDEST ADD CALLDATALOAD PUSH1 0x0 NOT PUSH1 0x3 DUP5 SWAP1 SHL PUSH1 0xF8 AND SHR NOT AND SWAP1 SSTORE CODESIZE DUP1 DUP1 PUSH2 0x1EBD JUMP JUMPDEST DUP2 DUP2 ADD CALLDATALOAD DUP4 SSTORE PUSH1 0x20 SWAP5 DUP6 ADD SWAP5 PUSH1 0x1 SWAP1 SWAP4 ADD SWAP3 ADD PUSH2 0x1EA2 JUMP JUMPDEST SWAP1 SWAP2 POP PUSH1 0x3 DUP6 ADD DUP7 MSTORE PUSH1 0x20 DUP7 KECCAK256 PUSH1 0x1F DUP5 ADD PUSH1 0x5 SHR DUP2 ADD PUSH1 0x20 DUP6 LT PUSH2 0x1F49 JUMPI JUMPDEST SWAP1 DUP5 SWAP4 SWAP3 SWAP2 JUMPDEST PUSH1 0x1F DUP4 ADD PUSH1 0x5 SHR DUP3 ADD DUP2 LT PUSH2 0x1F3A JUMPI POP POP PUSH2 0x1810 JUMP JUMPDEST PUSH1 0x0 DUP2 SSTORE DUP6 SWAP5 POP PUSH1 0x1 ADD PUSH2 0x1F24 JUMP JUMPDEST POP DUP1 PUSH2 0x1F1E JUMP JUMPDEST PUSH4 0x4E487B71 PUSH1 0xE0 SHL DUP6 MSTORE PUSH1 0x41 PUSH1 0x4 MSTORE PUSH1 0x24 DUP6 REVERT JUMPDEST PUSH2 0x1F6D SWAP1 PUSH2 0x4949 JUMP JUMPDEST PUSH2 0x2DE JUMPI DUP3 CODESIZE PUSH2 0x17B4 JUMP JUMPDEST PUSH1 0x40 MLOAD RETURNDATASIZE DUP7 DUP3 RETURNDATACOPY RETURNDATASIZE SWAP1 REVERT JUMPDEST DUP6 DUP1 REVERT JUMPDEST SWAP1 SWAP3 POP PUSH1 0x20 DUP2 RETURNDATASIZE PUSH1 0x20 GT PUSH2 0x1FB8 JUMPI JUMPDEST DUP2 PUSH2 0x1FA3 PUSH1 0x20 SWAP4 DUP4 PUSH2 0x49AA JUMP JUMPDEST DUP2 ADD SUB SLT PUSH2 0x1FB3 JUMPI MLOAD SWAP2 CODESIZE PUSH2 0x1775 JUMP JUMPDEST PUSH1 0x0 DUP1 REVERT JUMPDEST RETURNDATASIZE SWAP2 POP PUSH2 0x1F96 JUMP JUMPDEST PUSH1 0x40 MLOAD RETURNDATASIZE DUP9 DUP3 RETURNDATACOPY RETURNDATASIZE SWAP1 REVERT JUMPDEST DUP10 DUP1 REVERT JUMPDEST DUP8 DUP1 REVERT JUMPDEST DUP4 DUP1 REVERT JUMPDEST POP CALLVALUE PUSH2 0x2E2 JUMPI PUSH1 0x40 CALLDATASIZE PUSH1 0x3 NOT ADD SLT PUSH2 0x2E2 JUMPI PUSH1 0x40 PUSH2 0x1FF3 PUSH2 0x475B JUMP JUMPDEST SWAP2 PUSH1 0x4 CALLDATALOAD DUP2 MSTORE DUP1 PUSH1 0x20 MSTORE KECCAK256 SWAP1 PUSH1 0x1 DUP1 PUSH1 0xA0 SHL SUB AND PUSH1 0x0 MSTORE PUSH1 0x20 MSTORE PUSH1 0x20 PUSH1 0xFF PUSH1 0x40 PUSH1 0x0 KECCAK256 SLOAD AND PUSH1 0x40 MLOAD SWAP1 ISZERO ISZERO DUP2 MSTORE RETURN JUMPDEST POP CALLVALUE PUSH2 0x2E2 JUMPI DUP1 PUSH1 0x3 NOT CALLDATASIZE ADD SLT PUSH2 0x2E2 JUMPI PUSH1 0x3 SLOAD PUSH1 0x40 MLOAD PUSH1 0x1 PUSH1 0x1 PUSH1 0xA0 SHL SUB SWAP1 SWAP2 AND DUP2 MSTORE PUSH1 0x20 SWAP1 RETURN JUMPDEST POP CALLVALUE PUSH2 0x2E2 JUMPI DUP1 PUSH1 0x3 NOT CALLDATASIZE ADD SLT PUSH2 0x2E2 JUMPI PUSH2 0x2064 PUSH2 0x4AA8 JUMP JUMPDEST PUSH2 0x206C PUSH2 0x4E09 JUMP JUMPDEST PUSH1 0x1 PUSH1 0xFF NOT PUSH1 0x2 SLOAD AND OR PUSH1 0x2 SSTORE PUSH32 0x62E78CEA01BEE320CD4E420270B5EA74000D11B0C9F74754EBDBFC544B05A258 PUSH1 0x20 PUSH1 0x40 MLOAD CALLER DUP2 MSTORE LOG1 DUP1 RETURN JUMPDEST POP CALLVALUE PUSH2 0x2E2 JUMPI PUSH1 0x20 DUP1 PUSH1 0x3 NOT CALLDATASIZE ADD SLT PUSH2 0x364 JUMPI PUSH1 0x4 CALLDATALOAD PUSH1 0x1 PUSH1 0x1 PUSH1 0x40 SHL SUB DUP2 GT PUSH2 0x2DE JUMPI PUSH2 0x20D9 DUP3 SWAP2 CALLDATASIZE SWAP1 PUSH1 0x4 ADD PUSH2 0x46F2 JUMP JUMPDEST SWAP2 SWAP1 DUP3 PUSH1 0x40 MLOAD SWAP4 DUP5 SWAP3 DUP4 CALLDATACOPY DUP2 ADD PUSH1 0xD DUP2 MSTORE SUB ADD SWAP1 KECCAK256 SWAP2 PUSH1 0x40 MLOAD DUP1 SWAP3 DUP1 DUP6 SLOAD SWAP3 DUP4 DUP2 MSTORE ADD SWAP5 DUP4 MSTORE DUP1 DUP4 KECCAK256 SWAP3 SWAP1 JUMPDEST DUP3 DUP3 LT PUSH2 0x211C JUMPI PUSH2 0x2DA DUP6 PUSH2 0x341 DUP2 DUP10 SUB DUP3 PUSH2 0x49AA JUMP JUMPDEST DUP4 SLOAD DUP7 MSTORE SWAP5 DUP6 ADD SWAP5 PUSH1 0x1 SWAP4 DUP5 ADD SWAP4 SWAP1 SWAP2 ADD SWAP1 PUSH2 0x2105 JUMP JUMPDEST POP CALLVALUE PUSH2 0x2E2 JUMPI DUP1 PUSH1 0x3 NOT CALLDATASIZE ADD SLT PUSH2 0x2E2 JUMPI PUSH1 0x2 SLOAD PUSH1 0x40 MLOAD PUSH1 0x8 SWAP2 SWAP1 SWAP2 SHR PUSH1 0x1 PUSH1 0x1 PUSH1 0xA0 SHL SUB AND DUP2 MSTORE PUSH1 0x20 SWAP1 RETURN JUMPDEST POP CALLVALUE PUSH2 0x2E2 JUMPI PUSH1 0xC0 CALLDATASIZE PUSH1 0x3 NOT ADD SLT PUSH2 0x2E2 JUMPI PUSH1 0x3 PUSH1 0x64 CALLDATALOAD LT ISZERO PUSH2 0x2E2 JUMPI PUSH1 0x84 CALLDATALOAD PUSH1 0xFF DUP2 AND DUP2 SUB PUSH2 0x1FB3 JUMPI PUSH1 0xA4 CALLDATALOAD SWAP1 PUSH1 0xFF DUP3 AND DUP3 SUB PUSH2 0x1FB3 JUMPI PUSH1 0x4 CALLDATALOAD ISZERO ISZERO DUP1 PUSH2 0x259F JUMPI JUMPDEST PUSH2 0x21AC SWAP1 PUSH2 0x4F09 JUMP JUMPDEST PUSH2 0x21B4 PUSH2 0x4E27 JUMP JUMPDEST PUSH2 0x21BC PUSH2 0x4E09 JUMP JUMPDEST PUSH1 0x4 CALLDATALOAD DUP4 MSTORE PUSH1 0x7 PUSH1 0x20 MSTORE PUSH1 0x40 DUP4 KECCAK256 SWAP1 PUSH1 0xFF PUSH1 0x15 DUP4 ADD SLOAD PUSH1 0x10 SHR AND PUSH1 0xB DUP2 LT ISZERO PUSH2 0xF7D JUMPI DUP1 ISZERO SWAP1 DUP2 ISZERO PUSH2 0x2594 JUMPI JUMPDEST POP ISZERO PUSH2 0x253F JUMPI PUSH1 0x9 DUP3 ADD SLOAD SWAP1 PUSH2 0x2710 PUSH2 0x2213 DUP2 PUSH2 0x2208 PUSH1 0x24 CALLDATALOAD DUP7 PUSH2 0x4E8F JUMP JUMPDEST DIV SWAP4 PUSH1 0x44 CALLDATALOAD SWAP1 PUSH2 0x4E8F JUMP JUMPDEST DIV SWAP1 PUSH1 0x11 DUP5 ADD SLOAD DUP1 PUSH2 0x24E1 JUMPI JUMPDEST POP PUSH1 0x10 DUP5 ADD SLOAD PUSH1 0x44 CALLDATALOAD LT PUSH2 0x249D JUMPI PUSH1 0x3 SLOAD PUSH1 0x4 SLOAD DUP8 SWAP2 PUSH1 0x1 PUSH1 0x1 PUSH1 0xA0 SHL SUB SWAP2 DUP3 AND SWAP2 AND DUP1 EXTCODESIZE ISZERO PUSH2 0x2DE JUMPI DUP5 DUP4 SWAP2 PUSH2 0x226F SWAP4 DUP4 PUSH1 0x40 MLOAD DUP1 SWAP7 DUP2 SWAP6 DUP3 SWAP5 PUSH4 0xAC94D93 PUSH1 0xE3 SHL DUP5 MSTORE CALLER PUSH1 0x4 DUP6 ADD PUSH2 0x4EA2 JUMP JUMPDEST SUB SWAP3 GAS CALL DUP1 ISZERO PUSH2 0x2492 JUMPI PUSH2 0x247E JUMPI JUMPDEST POP POP PUSH1 0x6 SLOAD SWAP5 PUSH2 0x228D DUP7 PUSH2 0x4D40 JUMP JUMPDEST PUSH1 0x6 SSTORE PUSH1 0x2 SLOAD PUSH1 0x40 MLOAD PUSH4 0x6A15D6D PUSH1 0xE1 SHL DUP2 MSTORE SWAP1 PUSH1 0x20 SWAP1 DUP3 SWAP1 PUSH1 0x4 SWAP1 DUP3 SWAP1 PUSH1 0x8 SHR PUSH1 0x1 PUSH1 0x1 PUSH1 0xA0 SHL SUB AND GAS STATICCALL SWAP1 DUP2 ISZERO PUSH2 0x2473 JUMPI DUP9 SWAP2 PUSH2 0x2440 JUMPI JUMPDEST POP PUSH1 0xFF SWAP3 PUSH2 0x22D6 DUP5 SWAP3 TIMESTAMP PUSH2 0x4F77 JUMP JUMPDEST SWAP5 PUSH1 0x40 MLOAD SWAP7 PUSH2 0x22E4 DUP9 PUSH2 0x4972 JUMP JUMPDEST DUP10 DUP9 MSTORE PUSH1 0x4 CALLDATALOAD PUSH1 0x20 DUP10 ADD MSTORE CALLER PUSH1 0x40 DUP10 ADD MSTORE DUP11 PUSH1 0x60 DUP10 ADD MSTORE PUSH1 0x24 CALLDATALOAD PUSH1 0x80 DUP10 ADD MSTORE PUSH1 0xA0 DUP9 ADD MSTORE PUSH1 0x44 CALLDATALOAD PUSH1 0xC0 DUP9 ADD MSTORE PUSH1 0xE0 DUP8 ADD MSTORE PUSH2 0x2320 PUSH1 0x64 CALLDATALOAD PUSH2 0x47DA JUMP JUMPDEST PUSH1 0x64 CALLDATALOAD PUSH2 0x100 DUP8 ADD MSTORE AND PUSH2 0x120 DUP6 ADD MSTORE AND PUSH2 0x140 DUP4 ADD MSTORE TIMESTAMP PUSH2 0x160 DUP4 ADD MSTORE PUSH2 0x180 DUP3 ADD MSTORE DUP4 PUSH2 0x1A0 DUP3 ADD MSTORE DUP3 DUP5 MSTORE PUSH1 0x9 PUSH1 0x20 MSTORE PUSH2 0x2360 DUP2 PUSH1 0x40 DUP7 KECCAK256 PUSH2 0x50E1 JUMP JUMPDEST PUSH1 0x4 CALLDATALOAD DUP5 MSTORE PUSH1 0x8 PUSH1 0x20 MSTORE PUSH1 0x40 DUP5 KECCAK256 DUP1 SLOAD SWAP1 PUSH1 0x1 PUSH1 0x40 SHL DUP3 LT ISZERO PUSH2 0x242C JUMPI SWAP1 PUSH2 0x238D SWAP2 PUSH1 0x1 DUP3 ADD DUP2 SSTORE PUSH2 0x4A24 JUMP JUMPDEST PUSH2 0x2418 JUMPI SWAP1 PUSH2 0x239B SWAP2 PUSH2 0x50E1 JUMP JUMPDEST PUSH1 0x15 DUP2 ADD SLOAD PUSH1 0xFF DUP2 PUSH1 0x10 SHR AND PUSH1 0xB DUP2 LT ISZERO PUSH2 0xF7D JUMPI PUSH1 0x20 SWAP5 POP ISZERO PUSH2 0x2400 JUMPI JUMPDEST POP POP PUSH1 0x40 MLOAD PUSH1 0x24 CALLDATALOAD DUP2 MSTORE TIMESTAMP DUP4 DUP3 ADD MSTORE DUP2 CALLER SWAP2 PUSH32 0x878FE3F9BCA373E42473C1F3AD3C9C35C4F1ECAF9A5F081A801A3FBD43049F55 PUSH1 0x40 PUSH1 0x4 CALLDATALOAD SWAP3 LOG4 PUSH1 0x1 DUP1 SSTORE PUSH1 0x40 MLOAD SWAP1 DUP2 MSTORE RETURN JUMPDEST PUSH3 0x10000 PUSH1 0x15 SWAP2 PUSH3 0xFF0000 NOT AND OR SWAP2 ADD SSTORE CODESIZE DUP1 PUSH2 0x23BA JUMP JUMPDEST PUSH4 0x4E487B71 PUSH1 0xE0 SHL DUP6 MSTORE PUSH1 0x4 DUP6 SWAP1 MSTORE PUSH1 0x24 DUP6 REVERT JUMPDEST PUSH4 0x4E487B71 PUSH1 0xE0 SHL DUP7 MSTORE PUSH1 0x41 PUSH1 0x4 MSTORE PUSH1 0x24 DUP7 REVERT JUMPDEST SWAP1 POP PUSH1 0x20 DUP2 RETURNDATASIZE PUSH1 0x20 GT PUSH2 0x246B JUMPI JUMPDEST DUP2 PUSH2 0x245B PUSH1 0x20 SWAP4 DUP4 PUSH2 0x49AA JUMP JUMPDEST DUP2 ADD SUB SLT PUSH2 0x1FB3 JUMPI MLOAD PUSH1 0xFF PUSH2 0x22C7 JUMP JUMPDEST RETURNDATASIZE SWAP2 POP PUSH2 0x244E JUMP JUMPDEST PUSH1 0x40 MLOAD RETURNDATASIZE DUP11 DUP3 RETURNDATACOPY RETURNDATASIZE SWAP1 REVERT JUMPDEST PUSH2 0x2487 SWAP1 PUSH2 0x4949 JUMP JUMPDEST PUSH2 0x1F83 JUMPI DUP6 CODESIZE PUSH2 0x227E JUMP JUMPDEST PUSH1 0x40 MLOAD RETURNDATASIZE DUP5 DUP3 RETURNDATACOPY RETURNDATASIZE SWAP1 REVERT JUMPDEST PUSH1 0x64 PUSH1 0x40 MLOAD PUSH3 0x461BCD PUSH1 0xE5 SHL DUP2 MSTORE PUSH1 0x20 PUSH1 0x4 DUP3 ADD MSTORE PUSH1 0x20 PUSH1 0x24 DUP3 ADD MSTORE PUSH32 0x4F7074696F6E73436F72653A206D617267696E207261746520746F6F206C6F77 PUSH1 0x44 DUP3 ADD MSTORE REVERT JUMPDEST PUSH1 0x24 CALLDATALOAD GT PUSH2 0x24EF JUMPI CODESIZE PUSH2 0x2220 JUMP JUMPDEST PUSH1 0x40 MLOAD PUSH3 0x461BCD PUSH1 0xE5 SHL DUP2 MSTORE PUSH1 0x20 PUSH1 0x4 DUP3 ADD MSTORE PUSH1 0x22 PUSH1 0x24 DUP3 ADD MSTORE PUSH32 0x4F7074696F6E73436F72653A207072656D69756D207261746520746F6F206869 PUSH1 0x44 DUP3 ADD MSTORE PUSH2 0xCED PUSH1 0xF3 SHL PUSH1 0x64 DUP3 ADD MSTORE PUSH1 0x84 SWAP1 REVERT JUMPDEST PUSH1 0x40 MLOAD PUSH3 0x461BCD PUSH1 0xE5 SHL DUP2 MSTORE PUSH1 0x20 PUSH1 0x4 DUP3 ADD MSTORE PUSH1 0x27 PUSH1 0x24 DUP3 ADD MSTORE PUSH32 0x4F7074696F6E73436F72653A206F72646572206E6F7420616363657074696E67 PUSH1 0x44 DUP3 ADD MSTORE PUSH7 0x2071756F746573 PUSH1 0xC8 SHL PUSH1 0x64 DUP3 ADD MSTORE PUSH1 0x84 SWAP1 REVERT JUMPDEST PUSH1 0x1 SWAP2 POP EQ CODESIZE PUSH2 0x21E9 JUMP JUMPDEST POP PUSH1 0x5 SLOAD PUSH1 0x4 CALLDATALOAD LT PUSH2 0x21A3 JUMP JUMPDEST POP PUSH1 0x40 CALLDATASIZE PUSH1 0x3 NOT ADD SLT PUSH2 0x2E2 JUMPI PUSH1 0x24 CALLDATALOAD PUSH1 0x4 CALLDATALOAD PUSH1 0x3 DUP3 LT ISZERO PUSH2 0x2DE JUMPI DUP1 ISZERO ISZERO DUP1 PUSH2 0x27E3 JUMPI JUMPDEST PUSH2 0x25DA SWAP1 PUSH2 0x4F09 JUMP JUMPDEST DUP1 DUP4 MSTORE PUSH1 0x7 PUSH1 0x20 MSTORE PUSH2 0x25FC PUSH1 0x1 DUP1 PUSH1 0xA0 SHL SUB PUSH1 0x1 PUSH1 0x40 DUP7 KECCAK256 ADD SLOAD AND CALLER EQ PUSH2 0x4E4A JUMP JUMPDEST PUSH2 0x2604 PUSH2 0x4E27 JUMP JUMPDEST PUSH2 0x260C PUSH2 0x4E09 JUMP JUMPDEST DUP1 DUP4 MSTORE PUSH1 0x7 PUSH1 0x20 MSTORE PUSH1 0x40 DUP4 KECCAK256 PUSH1 0x15 DUP2 ADD SWAP3 DUP4 SLOAD SWAP4 PUSH1 0xFF DUP6 PUSH1 0x10 SHR AND SWAP1 PUSH1 0xB DUP3 LT ISZERO PUSH2 0x27CF JUMPI PUSH1 0x2 DUP3 SUB PUSH2 0x2731 JUMPI PUSH1 0x0 DUP1 MLOAD PUSH1 0x20 PUSH2 0x5292 DUP4 CODECOPY DUP2 MLOAD SWAP2 MSTORE PUSH1 0xC0 PUSH1 0x0 DUP1 MLOAD PUSH1 0x20 PUSH2 0x5212 DUP4 CODECOPY DUP2 MLOAD SWAP2 MSTORE SWAP6 SWAP5 SWAP4 DUP8 SWAP4 PUSH3 0x30000 DUP12 SWAP11 PUSH3 0xFF0000 NOT AND OR SWAP1 SSTORE PUSH2 0x267A PUSH1 0x40 MLOAD DUP1 SWAP3 PUSH2 0x4A17 JUMP JUMPDEST PUSH1 0x3 PUSH1 0x20 DUP3 ADD MSTORE PUSH1 0x80 PUSH1 0x40 DUP3 ADD MSTORE PUSH1 0x16 PUSH1 0x80 DUP3 ADD MSTORE PUSH22 0x1A5B9A5D1A585B0819995959081C995C5D595CDD1959 PUSH1 0x52 SHL PUSH1 0xA0 DUP3 ADD MSTORE TIMESTAMP PUSH1 0x60 DUP3 ADD MSTORE LOG2 JUMPDEST PUSH1 0x9 DUP3 ADD SLOAD SWAP1 PUSH2 0x26FC PUSH1 0x40 MLOAD SWAP4 PUSH1 0xE0 DUP6 MSTORE PUSH1 0x6 PUSH2 0x26ED PUSH2 0x26DC PUSH1 0xE0 DUP9 ADD PUSH1 0x4 DUP6 ADD PUSH2 0x48B3 JUMP JUMPDEST DUP8 DUP2 SUB PUSH1 0x20 DUP10 ADD MSTORE PUSH1 0x5 DUP5 ADD PUSH2 0x48B3 JUMP JUMPDEST SWAP2 DUP7 DUP4 SUB PUSH1 0x40 DUP9 ADD MSTORE ADD PUSH2 0x48B3 JUMP JUMPDEST SWAP6 PUSH2 0x2706 DUP2 PUSH2 0x47E4 JUMP JUMPDEST PUSH1 0x60 DUP5 ADD MSTORE PUSH2 0x2714 DUP2 PUSH2 0x47DA JUMP JUMPDEST PUSH1 0x80 DUP4 ADD MSTORE PUSH1 0xA0 DUP3 ADD MSTORE TIMESTAMP PUSH1 0xC0 DUP3 ADD MSTORE DUP1 CALLER SWAP5 SUB SWAP1 LOG3 PUSH1 0x1 DUP1 SSTORE DUP1 RETURN JUMPDEST POP SWAP1 SWAP4 POP PUSH1 0x5 DUP2 SUB PUSH2 0x2756 JUMPI POP PUSH1 0x0 DUP1 MLOAD PUSH1 0x20 PUSH2 0x5212 DUP4 CODECOPY DUP2 MLOAD SWAP2 MSTORE SWAP1 PUSH1 0x2 SWAP4 PUSH2 0x26B6 JUMP JUMPDEST PUSH1 0x4 SUB PUSH2 0x2775 JUMPI PUSH1 0x0 DUP1 MLOAD PUSH1 0x20 PUSH2 0x5212 DUP4 CODECOPY DUP2 MLOAD SWAP2 MSTORE SWAP1 PUSH1 0x1 SWAP4 PUSH2 0x26B6 JUMP JUMPDEST PUSH1 0x40 MLOAD PUSH3 0x461BCD PUSH1 0xE5 SHL DUP2 MSTORE PUSH1 0x20 PUSH1 0x4 DUP3 ADD MSTORE PUSH1 0x2C PUSH1 0x24 DUP3 ADD MSTORE PUSH32 0x4F7074696F6E73436F72653A20696E76616C69642073746174757320666F7220 PUSH1 0x44 DUP3 ADD MSTORE PUSH12 0x19995959081C995C5D595CDD PUSH1 0xA2 SHL PUSH1 0x64 DUP3 ADD MSTORE PUSH1 0x84 SWAP1 REVERT JUMPDEST PUSH4 0x4E487B71 PUSH1 0xE0 SHL DUP8 MSTORE PUSH1 0x21 PUSH1 0x4 MSTORE PUSH1 0x24 DUP8 REVERT JUMPDEST POP PUSH1 0x5 SLOAD DUP2 LT PUSH2 0x25D1 JUMP JUMPDEST POP CALLVALUE PUSH2 0x2E2 JUMPI PUSH1 0x20 DUP1 PUSH1 0x3 NOT CALLDATASIZE ADD SLT PUSH2 0x364 JUMPI PUSH1 0x4 CALLDATALOAD SWAP1 DUP2 ISZERO ISZERO DUP1 PUSH2 0x2B5B JUMPI JUMPDEST PUSH2 0x2817 SWAP1 PUSH2 0x4F09 JUMP JUMPDEST PUSH2 0x281F PUSH2 0x4E27 JUMP JUMPDEST PUSH2 0x2827 PUSH2 0x4E09 JUMP JUMPDEST DUP2 DUP4 MSTORE PUSH1 0x7 DUP2 MSTORE PUSH1 0x40 DUP4 KECCAK256 PUSH1 0x15 DUP2 ADD SWAP2 DUP3 SLOAD SWAP4 PUSH1 0xFF DUP6 PUSH1 0x10 SHR AND SWAP3 PUSH1 0xB DUP5 LT ISZERO PUSH2 0x27CF JUMPI DUP4 PUSH2 0x2B18 JUMPI PUSH1 0x2 DUP2 ADD DUP1 SLOAD PUSH1 0x1 PUSH1 0x1 PUSH1 0xA0 SHL SUB SWAP7 SWAP2 SWAP4 SWAP2 SWAP1 DUP8 AND DUP1 ISZERO PUSH2 0x2AD3 JUMPI CALLER EQ PUSH2 0x2A82 JUMPI PUSH1 0x1 DUP4 ADD DUP1 SLOAD PUSH1 0x1 PUSH1 0x1 PUSH1 0xA0 SHL SUB NOT AND CALLER OR DUP2 SSTORE PUSH3 0xFF0000 NOT SWAP1 SWAP9 AND PUSH3 0x20000 OR SWAP1 SSTORE TIMESTAMP PUSH1 0x17 DUP4 ADD SSTORE PUSH1 0x9 DUP3 ADD SLOAD PUSH1 0x2 SLOAD PUSH1 0x40 MLOAD PUSH4 0x1C03BE35 PUSH1 0xE3 SHL DUP2 MSTORE DUP11 SWAP3 SWAP1 SWAP2 DUP8 SWAP1 DUP4 SWAP1 PUSH1 0x4 SWAP1 DUP3 SWAP1 PUSH1 0x8 SHR DUP14 AND GAS STATICCALL SWAP2 DUP3 ISZERO PUSH2 0x2A3F JUMPI DUP4 SWAP3 PUSH2 0x2A4E JUMPI JUMPDEST POP PUSH2 0x2710 SWAP2 PUSH2 0x28DF SWAP2 PUSH2 0x4E8F JUMP JUMPDEST DIV DUP8 PUSH1 0x3 SLOAD AND DUP9 PUSH1 0x4 SLOAD AND PUSH1 0xD DUP7 ADD SLOAD DUP3 EXTCODESIZE ISZERO PUSH2 0x2A4A JUMPI PUSH2 0x291A SWAP3 DUP6 SWAP3 DUP4 PUSH1 0x40 MLOAD DUP1 SWAP7 DUP2 SWAP6 DUP3 SWAP5 PUSH4 0xAC94D93 PUSH1 0xE3 SHL DUP5 MSTORE CALLER PUSH1 0x4 DUP6 ADD PUSH2 0x4EA2 JUMP JUMPDEST SUB SWAP3 GAS CALL SWAP1 DUP2 ISZERO PUSH2 0x2A3F JUMPI DUP4 SWAP2 PUSH2 0x2A2B JUMPI JUMPDEST POP POP DUP8 PUSH1 0x3 SLOAD AND SWAP1 DUP9 PUSH1 0x4 SLOAD AND SWAP1 DUP3 EXTCODESIZE ISZERO PUSH2 0x1FD3 JUMPI PUSH2 0x2965 SWAP3 DUP5 SWAP3 DUP4 PUSH1 0x40 MLOAD DUP1 SWAP7 DUP2 SWAP6 DUP3 SWAP5 PUSH4 0xEC185A07 PUSH1 0xE0 SHL DUP5 MSTORE CALLER PUSH1 0x4 DUP6 ADD PUSH2 0x4EC4 JUMP JUMPDEST SUB SWAP3 GAS CALL DUP1 ISZERO PUSH2 0x2492 JUMPI PUSH2 0x2A0D JUMPI JUMPDEST POP POP SWAP2 DUP6 PUSH1 0x0 DUP1 MLOAD PUSH1 0x20 PUSH2 0x5292 DUP4 CODECOPY DUP2 MLOAD SWAP2 MSTORE SWAP7 PUSH1 0xC0 SWAP7 SWAP6 SWAP4 PUSH2 0x29A3 PUSH1 0x2 SWAP7 CALLER DUP14 MSTORE PUSH1 0xA DUP8 MSTORE PUSH1 0x40 DUP14 KECCAK256 PUSH2 0x4DD4 JUMP JUMPDEST SLOAD SWAP9 SLOAD AND SWAP2 SLOAD AND SWAP1 DUP8 PUSH1 0x0 DUP1 MLOAD PUSH1 0x20 PUSH2 0x52D2 DUP4 CODECOPY DUP2 MLOAD SWAP2 MSTORE DUP5 PUSH1 0x40 MLOAD TIMESTAMP DUP2 MSTORE LOG4 PUSH2 0x29D0 PUSH1 0x40 MLOAD DUP1 SWAP5 PUSH2 0x4A17 JUMP JUMPDEST DUP3 ADD MSTORE PUSH1 0x80 PUSH1 0x40 DUP3 ADD MSTORE PUSH1 0x15 PUSH1 0x80 DUP3 ADD MSTORE PUSH21 0x1CD95B1B195C881BDC99195C881858D8D95C1D1959 PUSH1 0x5A SHL PUSH1 0xA0 DUP3 ADD MSTORE TIMESTAMP PUSH1 0x60 DUP3 ADD MSTORE LOG2 PUSH1 0x1 DUP1 SSTORE DUP1 RETURN JUMPDEST PUSH2 0x2A1C SWAP1 SWAP7 SWAP6 SWAP4 SWAP5 SWAP3 SWAP7 PUSH2 0x4949 JUMP JUMPDEST PUSH2 0x1FCF JUMPI SWAP2 SWAP1 SWAP3 SWAP4 DUP8 CODESIZE PUSH2 0x2974 JUMP JUMPDEST PUSH2 0x2A34 SWAP1 PUSH2 0x4949 JUMP JUMPDEST PUSH2 0x364 JUMPI DUP2 CODESIZE PUSH2 0x292C JUMP JUMPDEST PUSH1 0x40 MLOAD RETURNDATASIZE DUP6 DUP3 RETURNDATACOPY RETURNDATASIZE SWAP1 REVERT JUMPDEST DUP5 DUP1 REVERT JUMPDEST SWAP3 POP SWAP1 POP DUP6 DUP3 DUP2 RETURNDATASIZE DUP2 GT PUSH2 0x2A7B JUMPI JUMPDEST PUSH2 0x2A67 DUP2 DUP4 PUSH2 0x49AA JUMP JUMPDEST DUP2 ADD SUB SLT PUSH2 0x1FB3 JUMPI SWAP1 MLOAD DUP10 SWAP2 PUSH2 0x28DF PUSH2 0x28D1 JUMP JUMPDEST POP RETURNDATASIZE PUSH2 0x2A5D JUMP JUMPDEST PUSH1 0x40 MLOAD PUSH3 0x461BCD PUSH1 0xE5 SHL DUP2 MSTORE PUSH1 0x4 DUP2 ADD DUP7 SWAP1 MSTORE PUSH1 0x24 DUP1 DUP3 ADD MSTORE PUSH32 0x4F7074696F6E73436F72653A2063616E6E6F7420616363657074206F776E206F PUSH1 0x44 DUP3 ADD MSTORE PUSH4 0x393232B9 PUSH1 0xE1 SHL PUSH1 0x64 DUP3 ADD MSTORE PUSH1 0x84 SWAP1 REVERT JUMPDEST PUSH1 0x40 MLOAD PUSH3 0x461BCD PUSH1 0xE5 SHL DUP2 MSTORE PUSH1 0x4 DUP2 ADD DUP8 SWAP1 MSTORE PUSH1 0x1F PUSH1 0x24 DUP3 ADD MSTORE PUSH32 0x4F7074696F6E73436F72653A206E6F7420612073656C6C6572206F7264657200 PUSH1 0x44 DUP3 ADD MSTORE PUSH1 0x64 SWAP1 REVERT JUMPDEST PUSH1 0x64 DUP4 PUSH1 0x40 MLOAD SWAP1 PUSH3 0x461BCD PUSH1 0xE5 SHL DUP3 MSTORE DUP1 PUSH1 0x4 DUP4 ADD MSTORE PUSH1 0x24 DUP3 ADD MSTORE PUSH32 0x4F7074696F6E73436F72653A206F72646572206E6F7420617661696C61626C65 PUSH1 0x44 DUP3 ADD MSTORE REVERT JUMPDEST POP PUSH1 0x5 SLOAD DUP3 LT PUSH2 0x280E JUMP JUMPDEST POP CALLVALUE PUSH2 0x2E2 JUMPI PUSH2 0x2B75 CALLDATASIZE PUSH2 0x472F JUMP JUMPDEST SWAP1 DUP1 ISZERO ISZERO DUP1 PUSH2 0x2BA2 JUMPI JUMPDEST PUSH2 0x2B88 SWAP1 PUSH2 0x4F09 JUMP JUMPDEST PUSH2 0x2B90 PUSH2 0x4A40 JUMP JUMPDEST DUP3 MSTORE PUSH1 0x7 PUSH1 0x20 MSTORE PUSH1 0x19 PUSH1 0x40 DUP4 KECCAK256 ADD SSTORE DUP1 RETURN JUMPDEST POP PUSH1 0x5 SLOAD DUP2 LT PUSH2 0x2B7F JUMP JUMPDEST POP CALLVALUE PUSH2 0x2E2 JUMPI PUSH1 0x20 DUP1 PUSH1 0x3 NOT CALLDATASIZE ADD SLT PUSH2 0x364 JUMPI PUSH1 0x4 CALLDATALOAD SWAP1 PUSH2 0x2BCC PUSH2 0x4E27 JUMP JUMPDEST PUSH2 0x2BD4 PUSH2 0x4E09 JUMP JUMPDEST DUP2 DUP4 MSTORE PUSH1 0x9 DUP2 MSTORE PUSH1 0x40 DUP4 KECCAK256 PUSH1 0xFF SWAP1 PUSH1 0xA SWAP3 DUP3 DUP5 DUP4 ADD SLOAD AND PUSH2 0x2BF4 DUP2 PUSH2 0x47E4 JUMP JUMPDEST PUSH2 0x2F59 JUMPI PUSH1 0x9 DUP3 ADD SLOAD TIMESTAMP GT PUSH2 0x2F18 JUMPI PUSH1 0x1 SWAP5 DUP6 DUP4 ADD SLOAD DUP8 MSTORE PUSH1 0x7 DUP3 MSTORE PUSH1 0x40 DUP8 KECCAK256 SWAP5 DUP7 DUP7 ADD SWAP6 PUSH1 0x1 DUP1 PUSH1 0xA0 SHL SUB SWAP1 PUSH2 0x2C2F DUP3 DUP10 SLOAD AND CALLER EQ PUSH2 0x4E4A JUMP JUMPDEST PUSH1 0x15 DUP2 ADD SWAP4 DUP5 SLOAD SWAP5 PUSH3 0x20000 PUSH3 0xFF0000 NOT DUP8 AND OR SWAP1 SSTORE PUSH1 0x2 SWAP7 DUP8 DUP2 ADD SWAP5 DUP13 DUP6 DUP8 SLOAD AND SWAP7 DUP11 DUP7 ADD SWAP8 PUSH1 0x1 DUP1 PUSH1 0xA0 SHL SUB NOT DUP10 SLOAD AND OR DUP9 SSTORE PUSH2 0x2CB5 PUSH1 0x7 PUSH1 0x4 DUP7 ADD SWAP6 DUP7 SLOAD PUSH1 0xD DUP11 ADD SSTORE PUSH1 0x6 DUP2 ADD SLOAD DUP1 PUSH1 0xE DUP12 ADD SSTORE PUSH1 0xF DUP11 ADD SSTORE ADD DUP14 DUP1 DUP3 SLOAD AND SWAP2 PUSH2 0x2C9A PUSH1 0x12 DUP12 ADD SWAP4 DUP5 PUSH2 0x4D7D JUMP JUMPDEST PUSH2 0x2CAA DUP3 DUP3 SLOAD PUSH1 0x8 SHR AND DUP5 PUSH2 0x4D87 JUMP JUMPDEST SLOAD PUSH1 0x10 SHR AND SWAP1 PUSH2 0x4D9D JUMP JUMPDEST TIMESTAMP PUSH1 0x17 DUP8 ADD SSTORE PUSH1 0x4 DUP12 DUP12 DUP10 PUSH1 0x9 DUP11 ADD SLOAD SWAP3 SLOAD PUSH1 0x8 SHR AND PUSH1 0x40 MLOAD SWAP4 DUP5 DUP1 SWAP3 PUSH4 0x1C03BE35 PUSH1 0xE3 SHL DUP3 MSTORE GAS STATICCALL SWAP2 DUP3 ISZERO PUSH2 0x1F78 JUMPI DUP5 SWAP3 PUSH2 0x2EE4 JUMPI JUMPDEST POP PUSH2 0x2710 SWAP2 PUSH2 0x2CFA SWAP2 PUSH2 0x4E8F JUMP JUMPDEST DIV SWAP4 DUP8 PUSH1 0x3 SLOAD AND SWAP1 DUP9 PUSH1 0x4 SLOAD AND SWAP1 SLOAD DUP3 EXTCODESIZE ISZERO PUSH2 0x2A4A JUMPI PUSH2 0x2D34 SWAP3 DUP6 SWAP3 DUP4 PUSH1 0x40 MLOAD DUP1 SWAP7 DUP2 SWAP6 DUP3 SWAP5 PUSH4 0xAC94D93 PUSH1 0xE3 SHL DUP5 MSTORE CALLER PUSH1 0x4 DUP6 ADD PUSH2 0x4EA2 JUMP JUMPDEST SUB SWAP3 GAS CALL SWAP1 DUP2 ISZERO PUSH2 0x2A3F JUMPI DUP4 SWAP2 PUSH2 0x2ED0 JUMPI JUMPDEST POP POP DUP7 PUSH1 0x3 SLOAD AND SWAP4 DUP8 PUSH1 0x4 SLOAD AND SWAP1 DUP6 EXTCODESIZE ISZERO PUSH2 0x1FD3 JUMPI PUSH2 0x2D7F SWAP6 DUP5 SWAP3 DUP4 PUSH1 0x40 MLOAD DUP1 SWAP10 DUP2 SWAP6 DUP3 SWAP5 PUSH4 0xEC185A07 PUSH1 0xE0 SHL DUP5 MSTORE CALLER PUSH1 0x4 DUP6 ADD PUSH2 0x4EC4 JUMP JUMPDEST SUB SWAP3 GAS CALL SWAP1 DUP2 ISZERO PUSH2 0x2492 JUMPI DUP15 SWAP5 DUP9 SWAP3 PUSH2 0x2EB5 JUMPI JUMPDEST POP SLOAD AND DUP2 MSTORE PUSH1 0xB DUP10 MSTORE PUSH1 0x40 SWAP1 KECCAK256 DUP5 SLOAD PUSH2 0x2DAB SWAP2 PUSH2 0x4DD4 JUMP JUMPDEST DUP4 SLOAD DUP14 MSTORE PUSH1 0x8 DUP9 MSTORE PUSH1 0x40 DUP14 KECCAK256 DUP14 DUP4 JUMPDEST PUSH2 0x2E43 JUMPI JUMPDEST POP POP POP POP POP SWAP3 PUSH1 0x0 DUP1 MLOAD PUSH1 0x20 PUSH2 0x5292 DUP4 CODECOPY DUP2 MLOAD SWAP2 MSTORE SWAP7 SWAP5 SWAP3 DUP3 PUSH2 0x2E0F SWAP4 PUSH1 0xC0 SWAP9 SWAP7 SLOAD SWAP11 SLOAD AND SWAP2 SLOAD AND SWAP1 DUP10 PUSH1 0x0 DUP1 MLOAD PUSH1 0x20 PUSH2 0x52D2 DUP4 CODECOPY DUP2 MLOAD SWAP2 MSTORE DUP7 PUSH1 0x40 MLOAD TIMESTAMP DUP2 MSTORE LOG4 PUSH1 0x40 MLOAD SWAP5 DUP6 SWAP2 PUSH1 0x10 SHR AND PUSH2 0x4A17 JUMP JUMPDEST DUP3 ADD MSTORE PUSH1 0x80 PUSH1 0x40 DUP3 ADD MSTORE PUSH1 0xE PUSH1 0x80 DUP3 ADD MSTORE PUSH14 0x1C5D5BDD19481858D8D95C1D1959 PUSH1 0x92 SHL PUSH1 0xA0 DUP3 ADD MSTORE TIMESTAMP PUSH1 0x60 DUP3 ADD MSTORE LOG2 DUP1 SSTORE DUP1 RETURN JUMPDEST DUP2 SLOAD DUP2 LT ISZERO PUSH2 0x2EB0 JUMPI DUP1 DUP6 PUSH2 0x2E5B PUSH2 0x2E6E SWAP4 DUP6 PUSH2 0x4A24 JUMP JUMPDEST POP SLOAD EQ ISZERO DUP1 PUSH2 0x2E90 JUMPI JUMPDEST PUSH2 0x2E74 JUMPI PUSH2 0x4D40 JUMP JUMPDEST DUP4 PUSH2 0x2DBA JUMP JUMPDEST DUP4 PUSH2 0x2E7F DUP3 DUP6 PUSH2 0x4A24 JUMP JUMPDEST POP ADD DUP1 SLOAD PUSH1 0xFF NOT AND DUP14 OR SWAP1 SSTORE PUSH2 0x4D40 JUMP JUMPDEST POP DUP13 DUP5 PUSH2 0x2E9D DUP4 DUP7 PUSH2 0x4A24 JUMP JUMPDEST POP ADD SLOAD AND PUSH2 0x2EAA DUP2 PUSH2 0x47E4 JUMP JUMPDEST ISZERO PUSH2 0x2E65 JUMP JUMPDEST PUSH2 0x2DBF JUMP JUMPDEST PUSH2 0x2EC3 SWAP2 SWAP6 POP DUP4 SWAP3 POP PUSH2 0x4949 JUMP JUMPDEST PUSH2 0x2E2 JUMPI DUP6 DUP14 SWAP4 CODESIZE PUSH2 0x2D93 JUMP JUMPDEST PUSH2 0x2ED9 SWAP1 PUSH2 0x4949 JUMP JUMPDEST PUSH2 0x364 JUMPI DUP2 CODESIZE PUSH2 0x2D46 JUMP JUMPDEST SWAP4 POP SWAP1 POP DUP11 DUP4 DUP2 RETURNDATASIZE DUP2 GT PUSH2 0x2F11 JUMPI JUMPDEST PUSH2 0x2EFD DUP2 DUP4 PUSH2 0x49AA JUMP JUMPDEST DUP2 ADD SUB SLT PUSH2 0x1FB3 JUMPI SWAP2 MLOAD DUP16 SWAP3 PUSH2 0x2CFA PUSH2 0x2CEC JUMP JUMPDEST POP RETURNDATASIZE PUSH2 0x2EF3 JUMP JUMPDEST PUSH1 0x64 SWAP1 PUSH1 0x40 MLOAD SWAP1 PUSH3 0x461BCD PUSH1 0xE5 SHL DUP3 MSTORE PUSH1 0x4 DUP3 ADD MSTORE PUSH1 0x1A PUSH1 0x24 DUP3 ADD MSTORE PUSH26 0x13DC1D1A5BDB9CD0DBDC994E881C5D5BDD1948195E1C1A5C9959 PUSH1 0x32 SHL PUSH1 0x44 DUP3 ADD MSTORE REVERT JUMPDEST PUSH1 0x64 SWAP1 PUSH1 0x40 MLOAD SWAP1 PUSH3 0x461BCD PUSH1 0xE5 SHL DUP3 MSTORE PUSH1 0x4 DUP3 ADD MSTORE PUSH1 0x1D PUSH1 0x24 DUP3 ADD MSTORE PUSH32 0x4F7074696F6E73436F72653A2071756F7465206E6F7420616374697665000000 PUSH1 0x44 DUP3 ADD MSTORE REVERT JUMPDEST POP CALLVALUE PUSH2 0x2E2 JUMPI DUP1 PUSH1 0x3 NOT CALLDATASIZE ADD SLT PUSH2 0x2E2 JUMPI PUSH1 0x20 PUSH1 0xFF PUSH1 0x2 SLOAD AND PUSH1 0x40 MLOAD SWAP1 ISZERO ISZERO DUP2 MSTORE RETURN JUMPDEST POP CALLVALUE PUSH2 0x2E2 JUMPI DUP1 PUSH1 0x3 NOT CALLDATASIZE ADD SLT PUSH2 0x2E2 JUMPI PUSH1 0x20 PUSH1 0x6 SLOAD PUSH1 0x40 MLOAD SWAP1 DUP2 MSTORE RETURN JUMPDEST POP CALLVALUE PUSH2 0x2E2 JUMPI PUSH1 0x40 CALLDATASIZE PUSH1 0x3 NOT ADD SLT PUSH2 0x2E2 JUMPI PUSH2 0x2FF8 PUSH2 0x4745 JUMP JUMPDEST PUSH1 0x1 PUSH1 0x1 PUSH1 0xA0 SHL SUB AND DUP2 MSTORE PUSH1 0xB PUSH1 0x20 MSTORE PUSH1 0x40 DUP2 KECCAK256 DUP1 SLOAD PUSH1 0x24 CALLDATALOAD SWAP3 SWAP1 DUP4 LT ISZERO PUSH2 0x2E2 JUMPI PUSH1 0x20 PUSH2 0x3026 DUP5 DUP5 PUSH2 0x4771 JUMP JUMPDEST SWAP1 SLOAD PUSH1 0x40 MLOAD SWAP2 PUSH1 0x3 SHL SHR DUP2 MSTORE RETURN JUMPDEST POP CALLVALUE PUSH2 0x2E2 JUMPI PUSH1 0x40 CALLDATASIZE PUSH1 0x3 NOT ADD SLT PUSH2 0x2E2 JUMPI PUSH2 0x304E PUSH2 0x4745 JUMP JUMPDEST PUSH1 0x1 PUSH1 0x1 PUSH1 0xA0 SHL SUB AND DUP2 MSTORE PUSH1 0xA PUSH1 0x20 MSTORE PUSH1 0x40 DUP2 KECCAK256 DUP1 SLOAD PUSH1 0x24 CALLDATALOAD SWAP3 SWAP1 DUP4 LT ISZERO PUSH2 0x2E2 JUMPI PUSH1 0x20 PUSH2 0x3026 DUP5 DUP5 PUSH2 0x4771 JUMP JUMPDEST POP CALLVALUE PUSH2 0x2E2 JUMPI PUSH2 0x308B CALLDATASIZE PUSH2 0x472F JUMP JUMPDEST SWAP1 DUP1 ISZERO ISZERO DUP1 PUSH2 0x30B8 JUMPI JUMPDEST PUSH2 0x309E SWAP1 PUSH2 0x4F09 JUMP JUMPDEST PUSH2 0x30A6 PUSH2 0x4A40 JUMP JUMPDEST DUP3 MSTORE PUSH1 0x7 PUSH1 0x20 MSTORE PUSH1 0x1A PUSH1 0x40 DUP4 KECCAK256 ADD SSTORE DUP1 RETURN JUMPDEST POP PUSH1 0x5 SLOAD DUP2 LT PUSH2 0x3095 JUMP JUMPDEST POP CALLVALUE PUSH2 0x2E2 JUMPI PUSH2 0x30D2 CALLDATASIZE PUSH2 0x472F JUMP JUMPDEST DUP2 ISZERO ISZERO DUP1 PUSH2 0x31E4 JUMPI JUMPDEST PUSH2 0x30E4 SWAP1 PUSH2 0x4F09 JUMP JUMPDEST PUSH2 0x30EC PUSH2 0x4AA8 JUMP JUMPDEST DUP2 PUSH1 0x0 MSTORE PUSH1 0x7 PUSH1 0x20 MSTORE PUSH1 0x40 PUSH1 0x0 KECCAK256 DUP2 ISZERO PUSH2 0x4A6 JUMPI PUSH1 0x15 DUP2 ADD DUP1 SLOAD SWAP2 PUSH1 0xFF DUP4 PUSH1 0x10 SHR AND SWAP2 PUSH1 0xB DUP4 LT ISZERO PUSH2 0x490 JUMPI PUSH1 0x4 DUP4 EQ DUP1 ISZERO PUSH2 0x31DA JUMPI JUMPDEST ISZERO PUSH2 0x319B JUMPI PUSH3 0x60000 PUSH1 0xC0 SWAP5 PUSH1 0x0 DUP1 MLOAD PUSH1 0x20 PUSH2 0x5292 DUP4 CODECOPY DUP2 MLOAD SWAP2 MSTORE SWAP7 PUSH1 0x19 DUP6 ADD SSTORE PUSH3 0xFF0000 NOT AND OR SWAP1 SSTORE PUSH1 0x18 TIMESTAMP SWAP2 ADD SSTORE PUSH2 0x3160 PUSH1 0x40 MLOAD DUP1 SWAP3 PUSH2 0x4A17 JUMP JUMPDEST PUSH1 0x6 PUSH1 0x20 DUP3 ADD MSTORE PUSH1 0x80 PUSH1 0x40 DUP3 ADD MSTORE PUSH1 0x13 PUSH1 0x80 DUP3 ADD MSTORE PUSH19 0x66696E616C20666565642063616C6C6261636B PUSH1 0x68 SHL PUSH1 0xA0 DUP3 ADD MSTORE TIMESTAMP PUSH1 0x60 DUP3 ADD MSTORE LOG2 DUP1 RETURN JUMPDEST PUSH1 0x40 MLOAD PUSH3 0x461BCD PUSH1 0xE5 SHL DUP2 MSTORE PUSH1 0x20 PUSH1 0x4 DUP3 ADD MSTORE PUSH1 0x24 DUP1 DUP3 ADD MSTORE PUSH1 0x0 DUP1 MLOAD PUSH1 0x20 PUSH2 0x51D2 DUP4 CODECOPY DUP2 MLOAD SWAP2 MSTORE PUSH1 0x44 DUP3 ADD MSTORE PUSH4 0x19995959 PUSH1 0xE2 SHL PUSH1 0x64 DUP3 ADD MSTORE PUSH1 0x84 SWAP1 REVERT JUMPDEST POP PUSH1 0x5 DUP4 EQ PUSH2 0x3123 JUMP JUMPDEST POP PUSH1 0x5 SLOAD DUP3 LT PUSH2 0x30DB JUMP JUMPDEST POP CALLVALUE PUSH2 0x2E2 JUMPI DUP1 PUSH1 0x3 NOT CALLDATASIZE ADD SLT PUSH2 0x2E2 JUMPI PUSH2 0x3208 PUSH2 0x4AA8 JUMP JUMPDEST PUSH1 0x2 SLOAD PUSH1 0xFF DUP2 AND ISZERO PUSH2 0x3248 JUMPI PUSH1 0xFF NOT AND PUSH1 0x2 SSTORE PUSH32 0x5DB9EE0A495BF2E6FF9C91A7834C1BA4FDD244A5E8AA4E537BD38AEAE4B073AA PUSH1 0x20 PUSH1 0x40 MLOAD CALLER DUP2 MSTORE LOG1 DUP1 RETURN JUMPDEST PUSH1 0x40 MLOAD PUSH4 0x8DFC202B PUSH1 0xE0 SHL DUP2 MSTORE PUSH1 0x4 SWAP1 REVERT JUMPDEST POP CALLVALUE PUSH2 0x2E2 JUMPI PUSH1 0x20 DUP1 PUSH1 0x3 NOT CALLDATASIZE ADD SLT PUSH2 0x364 JUMPI PUSH1 0x4 CALLDATALOAD SWAP1 DUP2 ISZERO ISZERO DUP1 PUSH2 0x3457 JUMPI JUMPDEST PUSH2 0x3283 SWAP1 PUSH2 0x4F09 JUMP JUMPDEST PUSH2 0x328B PUSH2 0x4E27 JUMP JUMPDEST PUSH2 0x3293 PUSH2 0x4E09 JUMP JUMPDEST DUP2 DUP4 MSTORE PUSH1 0x7 DUP2 MSTORE PUSH1 0x40 DUP4 KECCAK256 PUSH1 0x15 DUP2 ADD SWAP1 PUSH1 0xFF DUP3 SLOAD PUSH1 0x10 SHR AND SWAP1 PUSH1 0xB DUP3 LT ISZERO SWAP1 DUP2 PUSH2 0x27CF JUMPI DUP3 ISZERO DUP1 ISZERO PUSH2 0x3449 JUMPI JUMPDEST ISZERO PUSH2 0x3404 JUMPI PUSH1 0x16 ADD SLOAD PUSH1 0x2 SLOAD PUSH1 0x40 MLOAD PUSH4 0x4F6BFAD7 PUSH1 0xE0 SHL DUP2 MSTORE SWAP2 SWAP1 DUP7 SWAP1 DUP4 SWAP1 PUSH1 0x4 SWAP1 DUP3 SWAP1 PUSH1 0x8 SHR PUSH1 0x1 PUSH1 0x1 PUSH1 0xA0 SHL SUB AND GAS STATICCALL SWAP1 DUP2 ISZERO PUSH2 0x2473 JUMPI DUP9 SWAP2 PUSH2 0x33D3 JUMPI JUMPDEST PUSH2 0x330A SWAP3 POP PUSH2 0x4F77 JUMP JUMPDEST TIMESTAMP GT ISZERO PUSH2 0x3390 JUMPI PUSH2 0xF7D JUMPI PUSH1 0x0 DUP1 MLOAD PUSH1 0x20 PUSH2 0x5292 DUP4 CODECOPY DUP2 MLOAD SWAP2 MSTORE SWAP3 PUSH2 0x336B PUSH1 0xFF SWAP4 PUSH1 0x1 PUSH1 0xA SWAP5 EQ PUSH2 0x3382 JUMPI JUMPDEST DUP1 SLOAD SWAP1 PUSH3 0xA0000 PUSH3 0xFF0000 NOT DUP4 AND OR SWAP1 SSTORE DUP7 PUSH1 0x0 DUP1 MLOAD PUSH1 0x20 PUSH2 0x5252 DUP4 CODECOPY DUP2 MLOAD SWAP2 MSTORE PUSH1 0x40 MLOAD PUSH1 0x40 DUP2 MSTORE DUP1 PUSH2 0xF31 PUSH1 0x40 DUP3 ADD PUSH2 0x4F84 JUMP JUMPDEST DUP3 ADD MSTORE PUSH1 0x80 PUSH1 0x40 DUP3 ADD MSTORE DUP1 PUSH2 0xF5F PUSH1 0x80 DUP3 ADD PUSH2 0x4F84 JUMP JUMPDEST PUSH2 0x338B DUP8 PUSH2 0x4FA2 JUMP JUMPDEST PUSH2 0x3336 JUMP JUMPDEST PUSH1 0x64 DUP5 PUSH1 0x40 MLOAD SWAP1 PUSH3 0x461BCD PUSH1 0xE5 SHL DUP3 MSTORE DUP1 PUSH1 0x4 DUP4 ADD MSTORE PUSH1 0x24 DUP3 ADD MSTORE PUSH32 0x4F7074696F6E73436F72653A20524651206E6F74206578706972656420796574 PUSH1 0x44 DUP3 ADD MSTORE REVERT JUMPDEST SWAP1 POP DUP6 DUP3 DUP2 RETURNDATASIZE DUP4 GT PUSH2 0x33FD JUMPI JUMPDEST PUSH2 0x33EA DUP2 DUP4 PUSH2 0x49AA JUMP JUMPDEST DUP2 ADD SUB SLT PUSH2 0x1FB3 JUMPI PUSH2 0x330A SWAP2 MLOAD SWAP1 PUSH2 0x3300 JUMP JUMPDEST POP RETURNDATASIZE PUSH2 0x33E0 JUMP JUMPDEST PUSH1 0x40 MLOAD PUSH3 0x461BCD PUSH1 0xE5 SHL DUP2 MSTORE PUSH1 0x4 DUP2 ADD DUP7 SWAP1 MSTORE PUSH1 0x1D PUSH1 0x24 DUP3 ADD MSTORE PUSH32 0x4F7074696F6E73436F72653A206E6F7420696E20524651207068617365000000 PUSH1 0x44 DUP3 ADD MSTORE PUSH1 0x64 SWAP1 REVERT JUMPDEST POP PUSH1 0x0 SWAP2 POP PUSH1 0x1 DUP4 EQ PUSH2 0x32C0 JUMP JUMPDEST POP PUSH1 0x5 SLOAD DUP3 LT PUSH2 0x327A JUMP JUMPDEST POP CALLVALUE PUSH2 0x2E2 JUMPI PUSH1 0x40 CALLDATASIZE PUSH1 0x3 NOT ADD SLT PUSH2 0x2E2 JUMPI PUSH2 0x347C PUSH2 0x475B JUMP JUMPDEST CALLER PUSH1 0x1 PUSH1 0x1 PUSH1 0xA0 SHL SUB DUP3 AND SUB PUSH2 0x3498 JUMPI PUSH2 0x530 SWAP1 PUSH1 0x4 CALLDATALOAD PUSH2 0x4BD0 JUMP JUMPDEST PUSH1 0x40 MLOAD PUSH4 0x334BD919 PUSH1 0xE1 SHL DUP2 MSTORE PUSH1 0x4 SWAP1 REVERT JUMPDEST POP CALLVALUE PUSH2 0x2E2 JUMPI PUSH1 0x60 CALLDATASIZE PUSH1 0x3 NOT ADD SLT PUSH2 0x2E2 JUMPI PUSH1 0x4 CALLDATALOAD PUSH1 0x24 DUP1 CALLDATALOAD PUSH1 0x4 DUP2 LT ISZERO PUSH2 0x1FD3 JUMPI PUSH1 0x44 SWAP1 DUP2 CALLDATALOAD SWAP2 DUP5 ISZERO ISZERO DUP1 PUSH2 0x3948 JUMPI JUMPDEST PUSH2 0x34E4 SWAP1 PUSH2 0x4F09 JUMP JUMPDEST PUSH2 0x34EC PUSH2 0x4AE2 JUMP JUMPDEST DUP5 PUSH1 0x0 MSTORE PUSH1 0x20 SWAP3 PUSH1 0x7 DUP5 MSTORE PUSH1 0x40 PUSH1 0x0 KECCAK256 SWAP3 DUP2 ISZERO PUSH2 0x3908 JUMPI PUSH2 0x350C DUP2 PUSH2 0x47E4 JUMP JUMPDEST DUP1 PUSH2 0x360F JUMPI POP PUSH1 0x15 DUP4 ADD SWAP3 DUP4 SLOAD SWAP3 PUSH1 0xFF DUP5 PUSH1 0x10 SHR AND SWAP7 PUSH1 0xB DUP9 LT ISZERO PUSH2 0x35FB JUMPI PUSH1 0x2 DUP9 EQ DUP1 ISZERO PUSH2 0x35F1 JUMPI JUMPDEST ISZERO PUSH2 0x35B2 JUMPI POP POP PUSH1 0xA DUP2 ADD DUP3 SWAP1 SSTORE PUSH1 0x19 ADD SSTORE PUSH3 0xFF0000 NOT AND PUSH3 0x40000 OR SWAP1 SSTORE PUSH1 0x40 MLOAD PUSH1 0x0 DUP1 MLOAD PUSH1 0x20 PUSH2 0x5292 DUP4 CODECOPY DUP2 MLOAD SWAP2 MSTORE SWAP3 PUSH1 0xC0 SWAP3 PUSH1 0x4 SWAP2 PUSH2 0x3579 SWAP1 DUP5 SWAP1 PUSH2 0x4A17 JUMP JUMPDEST DUP3 ADD MSTORE PUSH1 0x80 PUSH1 0x40 DUP3 ADD MSTORE PUSH1 0x15 PUSH1 0x80 DUP3 ADD MSTORE PUSH21 0x696E697469616C20666565642063616C6C6261636B PUSH1 0x58 SHL PUSH1 0xA0 DUP3 ADD MSTORE TIMESTAMP PUSH1 0x60 DUP3 ADD MSTORE LOG2 DUP1 RETURN JUMPDEST PUSH1 0x0 DUP1 MLOAD PUSH1 0x20 PUSH2 0x5232 DUP4 CODECOPY DUP2 MLOAD SWAP2 MSTORE PUSH1 0x84 SWAP3 PUSH1 0x26 DUP10 SWAP4 PUSH1 0x40 MLOAD SWAP5 PUSH3 0x461BCD PUSH1 0xE5 SHL DUP7 MSTORE PUSH1 0x4 DUP7 ADD MSTORE DUP5 ADD MSTORE DUP3 ADD MSTORE PUSH6 0x1B0819995959 PUSH1 0xD2 SHL PUSH1 0x64 DUP3 ADD MSTORE REVERT JUMPDEST POP PUSH1 0x3 DUP9 EQ PUSH2 0x3536 JUMP JUMPDEST PUSH4 0x4E487B71 PUSH1 0xE0 SHL PUSH1 0x0 SWAP1 DUP2 MSTORE PUSH1 0x21 PUSH1 0x4 MSTORE REVERT JUMPDEST PUSH2 0x361C DUP2 SWAP7 SWAP3 SWAP6 SWAP7 PUSH2 0x47E4 JUMP JUMPDEST PUSH1 0x1 DUP2 SUB PUSH2 0x370A JUMPI POP PUSH1 0xFF PUSH1 0x15 DUP5 ADD SLOAD PUSH1 0x10 SHR AND PUSH1 0xB DUP2 LT ISZERO PUSH2 0x36F5 JUMPI PUSH1 0x4 SUB PUSH2 0x369C JUMPI POP POP SWAP2 PUSH1 0xC0 SWAP2 PUSH1 0x19 PUSH1 0x0 DUP1 MLOAD PUSH1 0x20 PUSH2 0x5292 DUP4 CODECOPY DUP2 MLOAD SWAP2 MSTORE SWAP5 ADD SSTORE PUSH1 0x4 PUSH1 0x40 MLOAD SWAP2 DUP2 DUP4 MSTORE DUP3 ADD MSTORE PUSH1 0x80 PUSH1 0x40 DUP3 ADD MSTORE PUSH1 0x15 PUSH1 0x80 DUP3 ADD MSTORE PUSH21 0x64796E616D696320666565642063616C6C6261636B PUSH1 0x58 SHL PUSH1 0xA0 DUP3 ADD MSTORE TIMESTAMP PUSH1 0x60 DUP3 ADD MSTORE LOG2 DUP1 RETURN JUMPDEST PUSH32 0x4F7074696F6E73436F72653A2064796E616D69632066656564206F6E6C792066 PUSH1 0x84 SWAP3 PUSH1 0x2E DUP8 SWAP4 PUSH1 0x40 MLOAD SWAP5 PUSH3 0x461BCD PUSH1 0xE5 SHL DUP7 MSTORE PUSH1 0x4 DUP7 ADD MSTORE DUP5 ADD MSTORE DUP3 ADD MSTORE PUSH14 0x6F72204C495645206F7264657273 PUSH1 0x90 SHL PUSH1 0x64 DUP3 ADD MSTORE REVERT JUMPDEST POP PUSH4 0x4E487B71 PUSH1 0xE0 SHL PUSH1 0x0 SWAP1 DUP2 MSTORE PUSH1 0x21 PUSH1 0x4 MSTORE REVERT JUMPDEST PUSH2 0x3718 DUP2 SWAP7 SWAP6 SWAP4 SWAP3 SWAP7 PUSH2 0x47E4 JUMP JUMPDEST PUSH1 0x2 DUP2 SUB PUSH2 0x3806 JUMPI POP PUSH1 0x15 DUP4 ADD SWAP2 DUP3 SLOAD SWAP2 PUSH1 0xFF DUP4 PUSH1 0x10 SHR AND SWAP7 PUSH1 0xB DUP9 LT ISZERO PUSH2 0x35FB JUMPI PUSH1 0x4 DUP9 EQ DUP1 ISZERO PUSH2 0x37FC JUMPI JUMPDEST ISZERO PUSH2 0x37C0 JUMPI POP POP PUSH1 0x19 DUP5 ADD SSTORE PUSH3 0xFF0000 NOT AND PUSH3 0x60000 OR SWAP1 SSTORE TIMESTAMP PUSH1 0x18 SWAP1 SWAP2 ADD SSTORE PUSH1 0x40 MLOAD PUSH1 0x0 DUP1 MLOAD PUSH1 0x20 PUSH2 0x5292 DUP4 CODECOPY DUP2 MLOAD SWAP2 MSTORE SWAP3 PUSH1 0xC0 SWAP3 PUSH1 0x6 SWAP2 PUSH2 0x3789 SWAP1 DUP5 SWAP1 PUSH2 0x4A17 JUMP JUMPDEST DUP3 ADD MSTORE PUSH1 0x80 PUSH1 0x40 DUP3 ADD MSTORE PUSH1 0x13 PUSH1 0x80 DUP3 ADD MSTORE PUSH19 0x66696E616C20666565642063616C6C6261636B PUSH1 0x68 SHL PUSH1 0xA0 DUP3 ADD MSTORE TIMESTAMP PUSH1 0x60 DUP3 ADD MSTORE LOG2 DUP1 RETURN JUMPDEST PUSH1 0x0 DUP1 MLOAD PUSH1 0x20 PUSH2 0x51D2 DUP4 CODECOPY DUP2 MLOAD SWAP2 MSTORE PUSH1 0x84 SWAP3 DUP9 SWAP3 PUSH1 0x40 MLOAD SWAP4 PUSH3 0x461BCD PUSH1 0xE5 SHL DUP6 MSTORE PUSH1 0x4 DUP6 ADD MSTORE DUP1 DUP5 ADD MSTORE DUP3 ADD MSTORE PUSH4 0x19995959 PUSH1 0xE2 SHL PUSH1 0x64 DUP3 ADD MSTORE REVERT JUMPDEST POP PUSH1 0x5 DUP9 EQ PUSH2 0x3745 JUMP JUMPDEST DUP1 PUSH2 0x3812 PUSH1 0x3 SWAP3 PUSH2 0x47E4 JUMP JUMPDEST EQ PUSH2 0x3821 JUMPI JUMPDEST POP POP POP POP POP POP DUP1 RETURN JUMPDEST PUSH1 0x15 DUP4 ADD SWAP2 DUP3 SLOAD SWAP2 PUSH1 0xFF DUP4 PUSH1 0x10 SHR AND SWAP7 PUSH1 0xB DUP9 LT ISZERO PUSH2 0x35FB JUMPI PUSH1 0x7 DUP9 SUB PUSH2 0x38C6 JUMPI POP POP PUSH1 0x19 DUP5 ADD SSTORE PUSH3 0xFF0000 NOT AND PUSH3 0x60000 OR SWAP1 SSTORE TIMESTAMP PUSH1 0x18 SWAP1 SWAP2 ADD SSTORE PUSH1 0x40 MLOAD PUSH1 0x0 DUP1 MLOAD PUSH1 0x20 PUSH2 0x5292 DUP4 CODECOPY DUP2 MLOAD SWAP2 MSTORE SWAP3 PUSH1 0xC0 SWAP3 PUSH1 0x6 SWAP2 PUSH2 0x3881 SWAP1 DUP5 SWAP1 PUSH2 0x4A17 JUMP JUMPDEST DUP3 ADD MSTORE PUSH1 0x80 PUSH1 0x40 DUP3 ADD MSTORE PUSH1 0x19 PUSH1 0x80 DUP3 ADD MSTORE PUSH25 0x6172626974726174696F6E20666565642063616C6C6261636B PUSH1 0x38 SHL PUSH1 0xA0 DUP3 ADD MSTORE TIMESTAMP PUSH1 0x60 DUP3 ADD MSTORE LOG2 CODESIZE DUP1 DUP1 DUP1 DUP1 DUP1 PUSH2 0x3818 JUMP JUMPDEST PUSH32 0x4F7074696F6E73436F72653A206E6F7420696E206172626974726174696F6E00 PUSH1 0x64 SWAP3 PUSH1 0x1F DUP10 SWAP4 PUSH1 0x40 MLOAD SWAP5 PUSH3 0x461BCD PUSH1 0xE5 SHL DUP7 MSTORE PUSH1 0x4 DUP7 ADD MSTORE DUP5 ADD MSTORE DUP3 ADD MSTORE REVERT JUMPDEST PUSH1 0x40 MLOAD PUSH3 0x461BCD PUSH1 0xE5 SHL DUP2 MSTORE PUSH1 0x4 DUP2 ADD DUP7 SWAP1 MSTORE PUSH1 0x1A DUP2 DUP9 ADD MSTORE PUSH26 0x4F7074696F6E73436F72653A20696E76616C6964207072696365 PUSH1 0x30 SHL DUP2 DUP6 ADD MSTORE PUSH1 0x64 SWAP1 REVERT JUMPDEST POP PUSH1 0x5 SLOAD DUP6 LT PUSH2 0x34DB JUMP JUMPDEST POP CALLVALUE PUSH2 0x2E2 JUMPI PUSH1 0x40 CALLDATASIZE PUSH1 0x3 NOT ADD SLT PUSH2 0x2E2 JUMPI PUSH1 0x4 CALLDATALOAD PUSH1 0x24 CALLDATALOAD PUSH1 0x4 DUP2 LT ISZERO PUSH2 0x2DE JUMPI DUP2 ISZERO ISZERO DUP1 PUSH2 0x3B07 JUMPI JUMPDEST PUSH2 0x3986 SWAP1 PUSH2 0x4F09 JUMP JUMPDEST PUSH2 0x398E PUSH2 0x4AE2 JUMP JUMPDEST DUP2 DUP4 MSTORE PUSH1 0x7 PUSH1 0x20 MSTORE PUSH1 0x40 DUP4 KECCAK256 SWAP1 PUSH2 0x39A4 DUP2 PUSH2 0x47E4 JUMP JUMPDEST DUP1 PUSH2 0x3A47 JUMPI POP PUSH1 0x15 ADD DUP1 SLOAD PUSH1 0xFF DUP2 PUSH1 0x10 SHR AND PUSH1 0xB DUP2 LT ISZERO PUSH2 0xF7D JUMPI PUSH1 0x2 DUP2 EQ PUSH2 0x39CF JUMPI JUMPDEST POP POP POP POP DUP1 RETURN JUMPDEST PUSH1 0x0 DUP1 MLOAD PUSH1 0x20 PUSH2 0x5292 DUP4 CODECOPY DUP2 MLOAD SWAP2 MSTORE SWAP3 PUSH3 0x30000 PUSH1 0xC0 SWAP4 PUSH3 0xFF0000 NOT AND OR SWAP1 SSTORE PUSH2 0x39FC PUSH1 0x40 MLOAD DUP1 SWAP3 PUSH2 0x4A17 JUMP JUMPDEST PUSH1 0x3 PUSH1 0x20 DUP3 ADD MSTORE PUSH1 0x80 PUSH1 0x40 DUP3 ADD MSTORE PUSH1 0x1F PUSH1 0x80 DUP3 ADD MSTORE PUSH32 0x666565642072657175657374656420766961204665656450726F746F636F6C00 PUSH1 0xA0 DUP3 ADD MSTORE TIMESTAMP PUSH1 0x60 DUP3 ADD MSTORE LOG2 CODESIZE DUP1 DUP1 DUP1 PUSH2 0x39C8 JUMP JUMPDEST DUP1 PUSH2 0x3A53 PUSH1 0x2 SWAP3 PUSH2 0x47E4 JUMP JUMPDEST EQ PUSH2 0x3A5D JUMPI POP POP DUP1 RETURN JUMPDEST PUSH1 0x15 ADD DUP1 SLOAD PUSH1 0xFF DUP2 PUSH1 0x10 SHR AND PUSH1 0xB DUP2 LT ISZERO PUSH2 0xF7D JUMPI PUSH1 0x4 DUP2 EQ PUSH2 0x3A81 JUMPI POP POP POP POP DUP1 RETURN JUMPDEST PUSH1 0x0 DUP1 MLOAD PUSH1 0x20 PUSH2 0x5292 DUP4 CODECOPY DUP2 MLOAD SWAP2 MSTORE SWAP3 PUSH3 0x50000 PUSH1 0xE0 SWAP4 PUSH3 0xFF0000 NOT AND OR SWAP1 SSTORE PUSH2 0x3AAE PUSH1 0x40 MLOAD DUP1 SWAP3 PUSH2 0x4A17 JUMP JUMPDEST PUSH1 0x5 PUSH1 0x20 DUP3 ADD MSTORE PUSH1 0x80 PUSH1 0x40 DUP3 ADD MSTORE PUSH1 0x25 PUSH1 0x80 DUP3 ADD MSTORE PUSH32 0x66696E616C20666565642072657175657374656420766961204665656450726F PUSH1 0xA0 DUP3 ADD MSTORE PUSH5 0x1D1BD8DBDB PUSH1 0xDA SHL PUSH1 0xC0 DUP3 ADD MSTORE TIMESTAMP PUSH1 0x60 DUP3 ADD MSTORE LOG2 CODESIZE DUP1 DUP1 DUP1 PUSH2 0x39C8 JUMP JUMPDEST POP PUSH1 0x5 SLOAD DUP3 LT PUSH2 0x397D JUMP JUMPDEST POP CALLVALUE PUSH2 0x2E2 JUMPI DUP1 PUSH1 0x3 NOT CALLDATASIZE ADD SLT PUSH2 0x2E2 JUMPI PUSH1 0x4 SLOAD PUSH1 0x40 MLOAD PUSH1 0x1 PUSH1 0x1 PUSH1 0xA0 SHL SUB SWAP1 SWAP2 AND DUP2 MSTORE PUSH1 0x20 SWAP1 RETURN JUMPDEST POP CALLVALUE PUSH2 0x2E2 JUMPI PUSH1 0x40 CALLDATASIZE PUSH1 0x3 NOT ADD SLT PUSH2 0x2E2 JUMPI PUSH2 0x530 PUSH1 0x4 CALLDATALOAD PUSH2 0x3B5B PUSH2 0x475B JUMP JUMPDEST SWAP1 DUP1 DUP5 MSTORE DUP4 PUSH1 0x20 MSTORE PUSH2 0x3B73 PUSH1 0x1 PUSH1 0x40 DUP7 KECCAK256 ADD SLOAD PUSH2 0x4B2C JUMP JUMPDEST PUSH2 0x4B52 JUMP JUMPDEST POP CALLVALUE PUSH2 0x2E2 JUMPI DUP1 PUSH1 0x3 NOT CALLDATASIZE ADD SLT PUSH2 0x2E2 JUMPI PUSH1 0x20 PUSH1 0x5 SLOAD PUSH1 0x40 MLOAD SWAP1 DUP2 MSTORE RETURN JUMPDEST POP CALLVALUE PUSH2 0x2E2 JUMPI PUSH1 0x20 CALLDATASIZE PUSH1 0x3 NOT ADD SLT PUSH2 0x2E2 JUMPI PUSH1 0x1 PUSH1 0x40 PUSH1 0x20 SWAP3 PUSH1 0x4 CALLDATALOAD DUP2 MSTORE DUP1 DUP5 MSTORE KECCAK256 ADD SLOAD PUSH1 0x40 MLOAD SWAP1 DUP2 MSTORE RETURN JUMPDEST POP CALLVALUE PUSH2 0x2E2 JUMPI PUSH1 0x20 CALLDATASIZE PUSH1 0x3 NOT ADD SLT PUSH2 0x2E2 JUMPI PUSH2 0x3BDC PUSH2 0x4745 JUMP JUMPDEST PUSH2 0x3BE4 PUSH2 0x4AA8 JUMP JUMPDEST PUSH1 0x2 DUP1 SLOAD PUSH2 0x100 PUSH1 0x1 PUSH1 0xA8 SHL SUB NOT AND PUSH1 0x8 SWAP3 SWAP1 SWAP3 SHL PUSH2 0x100 PUSH1 0x1 PUSH1 0xA8 SHL SUB AND SWAP2 SWAP1 SWAP2 OR SWAP1 SSTORE DUP1 RETURN JUMPDEST POP CALLVALUE PUSH2 0x2E2 JUMPI PUSH2 0x3C1B CALLDATASIZE PUSH2 0x472F JUMP JUMPDEST SWAP1 DUP1 ISZERO ISZERO DUP1 PUSH2 0x3C48 JUMPI JUMPDEST PUSH2 0x3C2E SWAP1 PUSH2 0x4F09 JUMP JUMPDEST PUSH2 0x3C36 PUSH2 0x4A40 JUMP JUMPDEST DUP3 MSTORE PUSH1 0x7 PUSH1 0x20 MSTORE PUSH1 0xF PUSH1 0x40 DUP4 KECCAK256 ADD SSTORE DUP1 RETURN JUMPDEST POP PUSH1 0x5 SLOAD DUP2 LT PUSH2 0x3C25 JUMP JUMPDEST POP CALLVALUE PUSH2 0x2E2 JUMPI PUSH2 0x3C62 CALLDATASIZE PUSH2 0x472F JUMP JUMPDEST SWAP1 DUP1 ISZERO ISZERO DUP1 PUSH2 0x3C8F JUMPI JUMPDEST PUSH2 0x3C75 SWAP1 PUSH2 0x4F09 JUMP JUMPDEST PUSH2 0x3C7D PUSH2 0x4A40 JUMP JUMPDEST DUP3 MSTORE PUSH1 0x7 PUSH1 0x20 MSTORE PUSH1 0x18 PUSH1 0x40 DUP4 KECCAK256 ADD SSTORE DUP1 RETURN JUMPDEST POP PUSH1 0x5 SLOAD DUP2 LT PUSH2 0x3C6C JUMP JUMPDEST POP CALLVALUE PUSH2 0x2E2 JUMPI PUSH1 0x20 CALLDATASIZE PUSH1 0x3 NOT ADD SLT PUSH2 0x2E2 JUMPI PUSH1 0x4 CALLDATALOAD PUSH4 0xFFFFFFFF PUSH1 0xE0 SHL DUP2 AND DUP1 SWAP2 SUB PUSH2 0x364 JUMPI PUSH1 0x20 SWAP1 PUSH4 0x7965DB0B PUSH1 0xE0 SHL DUP2 EQ SWAP1 DUP2 ISZERO PUSH2 0x3CE0 JUMPI JUMPDEST POP PUSH1 0x40 MLOAD SWAP1 ISZERO ISZERO DUP2 MSTORE RETURN JUMPDEST PUSH4 0x1FFC9A7 PUSH1 0xE0 SHL EQ SWAP1 POP DUP3 PUSH2 0x3CD5 JUMP JUMPDEST POP CALLVALUE PUSH2 0x2E2 JUMPI PUSH2 0x220 CALLDATASIZE PUSH1 0x3 NOT ADD SLT PUSH2 0x2E2 JUMPI PUSH1 0x4 CALLDATALOAD PUSH1 0x1 PUSH1 0x1 PUSH1 0x40 SHL SUB DUP2 GT PUSH2 0x364 JUMPI PUSH2 0x3D23 SWAP1 CALLDATASIZE SWAP1 PUSH1 0x4 ADD PUSH2 0x46F2 JUMP JUMPDEST SWAP1 SWAP2 PUSH1 0x24 CALLDATALOAD PUSH1 0x1 PUSH1 0x1 PUSH1 0x40 SHL SUB DUP2 GT PUSH2 0x364 JUMPI PUSH2 0x3D44 SWAP1 CALLDATASIZE SWAP1 PUSH1 0x4 ADD PUSH2 0x46F2 JUMP JUMPDEST SWAP4 SWAP1 PUSH1 0x44 CALLDATALOAD PUSH1 0x1 PUSH1 0x1 PUSH1 0x40 SHL SUB DUP2 GT PUSH2 0x1FD3 JUMPI PUSH2 0x3D65 SWAP1 CALLDATASIZE SWAP1 PUSH1 0x4 ADD PUSH2 0x46F2 JUMP JUMPDEST SWAP1 PUSH1 0x64 CALLDATALOAD PUSH1 0x1 PUSH1 0x1 PUSH1 0x40 SHL SUB DUP2 GT PUSH2 0x1F83 JUMPI PUSH2 0x3D85 SWAP1 CALLDATASIZE SWAP1 PUSH1 0x4 ADD PUSH2 0x46F2 JUMP JUMPDEST SWAP1 SWAP5 PUSH1 0x84 CALLDATALOAD PUSH1 0x1 PUSH1 0x1 PUSH1 0x40 SHL SUB DUP2 GT PUSH2 0x1FCF JUMPI PUSH2 0x3DA6 SWAP1 CALLDATASIZE SWAP1 PUSH1 0x4 ADD PUSH2 0x46F2 JUMP JUMPDEST PUSH1 0x2 PUSH1 0xA4 CALLDATALOAD LT ISZERO PUSH2 0x46EE JUMPI PUSH1 0x3 PUSH2 0x144 CALLDATALOAD LT ISZERO PUSH2 0x46EE JUMPI PUSH1 0xFF PUSH2 0x164 CALLDATALOAD AND PUSH2 0x164 CALLDATALOAD SUB PUSH2 0x46EE JUMPI PUSH1 0xFF PUSH2 0x184 CALLDATALOAD AND PUSH2 0x184 CALLDATALOAD SUB PUSH2 0x46EE JUMPI PUSH2 0x3DE5 PUSH2 0x471F JUMP JUMPDEST SWAP2 PUSH1 0xFF PUSH2 0x1E4 CALLDATALOAD AND PUSH2 0x1E4 CALLDATALOAD SUB PUSH2 0x1FCB JUMPI PUSH1 0x2 PUSH2 0x204 CALLDATALOAD LT ISZERO PUSH2 0x1FCB JUMPI PUSH2 0x3E0A PUSH2 0x4E27 JUMP JUMPDEST PUSH2 0x3E12 PUSH2 0x4E09 JUMP JUMPDEST PUSH2 0x3E1F PUSH1 0xC4 CALLDATALOAD ISZERO ISZERO PUSH2 0x4C45 JUMP JUMPDEST PUSH2 0x3E2C TIMESTAMP PUSH1 0xE4 CALLDATALOAD GT PUSH2 0x4CA0 JUMP JUMPDEST PUSH1 0x3 SLOAD PUSH1 0x4 DUP1 SLOAD PUSH1 0x2 SLOAD PUSH1 0x40 MLOAD PUSH4 0x37382D39 PUSH1 0xE2 SHL DUP2 MSTORE SWAP4 PUSH1 0x1 PUSH1 0x1 PUSH1 0xA0 SHL SUB SWAP1 DUP2 AND SWAP4 SWAP3 DUP2 AND SWAP3 PUSH1 0x20 SWAP3 DUP7 SWAP3 DUP4 SWAP2 PUSH1 0x8 SHR AND GAS STATICCALL SWAP3 DUP4 ISZERO PUSH2 0x46E3 JUMPI DUP14 SWAP4 PUSH2 0x46AF JUMPI JUMPDEST POP DUP2 EXTCODESIZE ISZERO PUSH2 0x46AB JUMPI SWAP2 DUP13 SWAP2 PUSH2 0x3E9C SWAP4 DUP4 PUSH1 0x40 MLOAD DUP1 SWAP7 DUP2 SWAP6 DUP3 SWAP5 PUSH4 0xEC185A07 PUSH1 0xE0 SHL DUP5 MSTORE CALLER PUSH1 0x4 DUP6 ADD PUSH2 0x4CFA JUMP JUMPDEST SUB SWAP3 GAS CALL DUP1 ISZERO PUSH2 0x4689 JUMPI PUSH2 0x4698 JUMPI JUMPDEST POP PUSH1 0x3 SLOAD PUSH1 0x4 SLOAD PUSH1 0x1 PUSH1 0x1 PUSH1 0xA0 SHL SUB SWAP2 DUP3 AND SWAP2 AND DUP2 EXTCODESIZE ISZERO PUSH2 0x4694 JUMPI PUSH2 0x3EEF DUP13 SWAP3 DUP4 SWAP3 PUSH1 0x40 MLOAD SWAP5 DUP6 DUP1 SWAP5 DUP2 SWAP4 PUSH4 0xAC94D93 PUSH1 0xE3 SHL DUP4 MSTORE PUSH2 0x124 CALLDATALOAD SWAP1 CALLER PUSH1 0x4 DUP6 ADD PUSH2 0x4EA2 JUMP JUMPDEST SUB SWAP3 GAS CALL DUP1 ISZERO PUSH2 0x4689 JUMPI SWAP1 DUP12 SWAP2 PUSH2 0x4675 JUMPI JUMPDEST POP POP PUSH1 0x5 SLOAD SWAP11 PUSH2 0x3F10 DUP13 PUSH2 0x4D40 JUMP JUMPDEST PUSH1 0x5 SSTORE DUP12 DUP12 MSTORE PUSH1 0x7 PUSH1 0x20 MSTORE PUSH1 0x40 DUP12 KECCAK256 DUP13 DUP2 SSTORE PUSH1 0x2 DUP2 ADD DUP1 SLOAD PUSH1 0x1 PUSH1 0x1 PUSH1 0xA0 SHL SUB NOT AND CALLER OR SWAP1 SSTORE SWAP5 PUSH1 0x1 PUSH1 0x1 PUSH1 0x40 SHL SUB DUP3 GT PUSH2 0x4661 JUMPI DUP2 SWAP1 PUSH2 0x3F54 PUSH1 0x3 DUP9 ADD SLOAD PUSH2 0x4879 JUMP JUMPDEST PUSH1 0x1F DUP2 GT PUSH2 0x4610 JUMPI JUMPDEST POP DUP13 SWAP1 PUSH1 0x1F DUP4 GT PUSH1 0x1 EQ PUSH2 0x45A4 JUMPI DUP14 SWAP3 PUSH2 0x4599 JUMPI JUMPDEST POP POP DUP2 PUSH1 0x1 SHL SWAP2 PUSH1 0x0 NOT SWAP1 PUSH1 0x3 SHL SHR NOT AND OR PUSH1 0x3 DUP6 ADD SSTORE JUMPDEST PUSH1 0x1 PUSH1 0x1 PUSH1 0x40 SHL SUB DUP13 GT PUSH2 0x434F JUMPI PUSH2 0x3FA5 PUSH1 0x4 DUP6 ADD SLOAD PUSH2 0x4879 JUMP JUMPDEST PUSH1 0x1F DUP2 GT PUSH2 0x4553 JUMPI JUMPDEST POP DUP12 DUP11 PUSH1 0x1F DUP3 GT PUSH1 0x1 EQ PUSH2 0x44E4 JUMPI DUP12 SWAP2 PUSH2 0x44D9 JUMPI JUMPDEST POP PUSH1 0x0 NOT PUSH1 0x3 DUP15 SWAP1 SHL SHR NOT AND PUSH1 0x1 DUP14 SWAP1 SHL OR PUSH1 0x4 DUP6 ADD SSTORE JUMPDEST PUSH1 0x1 PUSH1 0x1 PUSH1 0x40 SHL SUB DUP8 GT PUSH2 0x434F JUMPI PUSH2 0x3FF6 PUSH1 0x5 DUP6 ADD SLOAD PUSH2 0x4879 JUMP JUMPDEST PUSH1 0x1F DUP2 GT PUSH2 0x4494 JUMPI JUMPDEST POP DUP7 DUP11 PUSH1 0x1F DUP3 GT PUSH1 0x1 EQ PUSH2 0x442A JUMPI DUP12 SWAP2 PUSH2 0x441F JUMPI JUMPDEST POP DUP8 PUSH1 0x1 SHL SWAP1 PUSH1 0x0 NOT DUP10 PUSH1 0x3 SHL SHR NOT AND OR PUSH1 0x5 DUP6 ADD SSTORE JUMPDEST PUSH1 0x1 PUSH1 0x1 PUSH1 0x40 SHL SUB DUP6 GT PUSH2 0x434F JUMPI PUSH2 0x4046 PUSH1 0x6 DUP6 ADD SLOAD PUSH2 0x4879 JUMP JUMPDEST PUSH1 0x1F DUP2 GT PUSH2 0x43DA JUMPI JUMPDEST POP DUP5 DUP11 PUSH1 0x1F DUP3 GT PUSH1 0x1 EQ PUSH2 0x436E JUMPI DUP12 SWAP2 PUSH2 0x4363 JUMPI JUMPDEST POP DUP6 PUSH1 0x1 SHL SWAP1 PUSH1 0x0 NOT DUP8 PUSH1 0x3 SHL SHR NOT AND OR PUSH1 0x6 DUP6 ADD SSTORE JUMPDEST PUSH1 0x1 PUSH1 0x1 PUSH1 0x40 SHL SUB DUP3 GT PUSH2 0x434F JUMPI PUSH2 0x4096 PUSH1 0x7 DUP6 ADD SLOAD PUSH2 0x4879 JUMP JUMPDEST PUSH1 0x1F DUP2 GT PUSH2 0x430A JUMPI JUMPDEST POP SWAP3 PUSH1 0x20 SWAP12 SWAP7 SWAP5 SWAP3 DUP11 SWAP3 DUP13 SWAP10 SWAP8 SWAP6 DUP5 SWAP1 PUSH1 0x1F DUP4 GT PUSH1 0x1 EQ PUSH2 0x425E JUMPI SWAP6 DUP16 PUSH2 0x41D6 SWAP14 PUSH2 0x1AA4 DUP15 PUSH1 0x40 DUP11 DUP6 SWAP16 SWAP15 SWAP12 SWAP11 PUSH2 0x1AD4 SWAP15 SWAP11 DUP11 DUP6 SWAP16 SWAP12 DUP7 SWAP12 DUP11 SWAP16 SWAP14 PUSH2 0x1ABC SWAP15 SWAP3 PUSH2 0x4253 JUMPI JUMPDEST POP POP DUP2 PUSH1 0x1 SHL SWAP2 PUSH1 0x0 NOT SWAP1 PUSH1 0x3 SHL SHR NOT AND OR PUSH1 0x7 DUP4 ADD SSTORE JUMPDEST PUSH2 0x410B PUSH1 0xA4 CALLDATALOAD PUSH1 0x8 DUP5 ADD PUSH2 0x4D65 JUMP JUMPDEST PUSH1 0xC4 CALLDATALOAD PUSH1 0x9 DUP4 ADD SSTORE PUSH1 0xE4 CALLDATALOAD PUSH1 0xB DUP4 ADD SSTORE PUSH2 0x2710 PUSH2 0x412D PUSH2 0x104 CALLDATALOAD PUSH1 0xC4 CALLDATALOAD PUSH2 0x4E8F JUMP JUMPDEST DIV PUSH1 0xD DUP4 ADD SSTORE PUSH2 0x124 CALLDATALOAD PUSH1 0xE DUP4 ADD SSTORE PUSH2 0x124 CALLDATALOAD PUSH1 0xF DUP4 ADD SSTORE PUSH1 0x12 DUP3 ADD PUSH2 0x4156 PUSH2 0x144 CALLDATALOAD DUP3 PUSH2 0x4D7D JUMP JUMPDEST PUSH2 0x4163 PUSH2 0x164 CALLDATALOAD DUP3 PUSH2 0x4D87 JUMP JUMPDEST PUSH2 0x4170 PUSH2 0x184 CALLDATALOAD DUP3 PUSH2 0x4D9D JUMP JUMPDEST PUSH2 0x1A4 CALLDATALOAD PUSH1 0x13 DUP5 ADD SSTORE PUSH2 0x4193 PUSH1 0x15 DUP5 ADD SWAP3 DUP4 SWAP1 PUSH1 0xFF DUP1 NOT DUP4 SLOAD AND SWAP2 ISZERO ISZERO AND OR SWAP1 SSTORE JUMP JUMPDEST DUP1 SLOAD PUSH4 0xFF000000 NOT AND PUSH2 0x1E4 CALLDATALOAD PUSH1 0x18 SHL PUSH4 0xFF000000 AND OR SWAP1 SSTORE PUSH2 0x41B9 PUSH2 0x204 CALLDATALOAD DUP3 PUSH2 0x4DB5 JUMP JUMPDEST PUSH3 0xFF0000 NOT DUP2 SLOAD AND SWAP1 SSTORE PUSH1 0x16 TIMESTAMP SWAP2 ADD SSTORE CALLER DUP2 MSTORE PUSH1 0xB DUP7 MSTORE KECCAK256 PUSH2 0x4DD4 JUMP JUMPDEST PUSH1 0x40 MLOAD SWAP1 DUP2 MSTORE TIMESTAMP DUP4 DUP3 ADD MSTORE DUP2 PUSH1 0x0 DUP1 MLOAD PUSH1 0x20 PUSH2 0x52B2 DUP4 CODECOPY DUP2 MLOAD SWAP2 MSTORE PUSH1 0x40 CALLER SWAP4 LOG3 DUP1 PUSH1 0x0 DUP1 MLOAD PUSH1 0x20 PUSH2 0x5292 DUP4 CODECOPY DUP2 MLOAD SWAP2 MSTORE PUSH1 0xC0 PUSH1 0x40 MLOAD PUSH1 0x0 DUP2 MSTORE PUSH1 0x0 DUP7 DUP3 ADD MSTORE PUSH1 0x80 PUSH1 0x40 DUP3 ADD MSTORE PUSH1 0x14 PUSH1 0x80 DUP3 ADD MSTORE PUSH20 0x1CD95B1B195C881BDC99195C8818DC99585D1959 PUSH1 0x62 SHL PUSH1 0xA0 DUP3 ADD MSTORE TIMESTAMP PUSH1 0x60 DUP3 ADD MSTORE LOG2 PUSH1 0x1 DUP1 SSTORE PUSH1 0x40 MLOAD SWAP1 DUP2 MSTORE RETURN JUMPDEST ADD CALLDATALOAD SWAP1 POP CODESIZE DUP1 PUSH2 0x40E4 JUMP JUMPDEST SWAP12 SWAP5 SWAP4 SWAP3 SWAP2 SWAP1 PUSH1 0x7 DUP5 ADD DUP6 MSTORE DUP16 DUP6 KECCAK256 SWAP1 DUP6 JUMPDEST PUSH1 0x1F NOT DUP5 AND DUP2 LT PUSH2 0x42D8 JUMPI POP PUSH1 0x20 SWAP11 SWAP10 SWAP7 PUSH2 0x1AA4 PUSH2 0x41D6 SWAP16 DUP16 SWAP11 SWAP5 DUP15 SWAP10 PUSH2 0x1AD4 SWAP14 SWAP10 PUSH2 0x1ABC SWAP10 PUSH1 0x1 DUP16 SWAP11 PUSH1 0x40 SWAP6 DUP16 SWAP11 SWAP8 DUP14 SWAP9 DUP4 PUSH1 0x1F NOT DUP2 AND LT PUSH2 0x42BE JUMPI JUMPDEST POP POP POP DUP2 SHL ADD PUSH1 0x7 DUP4 ADD SSTORE PUSH2 0x40FC JUMP JUMPDEST ADD CALLDATALOAD PUSH1 0x0 NOT PUSH1 0x3 DUP5 SWAP1 SHL PUSH1 0xF8 AND SHR NOT AND SWAP1 SSTORE CODESIZE DUP1 DUP1 PUSH2 0x42AE JUMP JUMPDEST SWAP3 SWAP6 POP SWAP4 SWAP7 SWAP9 SWAP11 SWAP13 SWAP3 SWAP6 SWAP8 SWAP10 SWAP12 POP DUP16 PUSH1 0x1 DUP2 SWAP3 DUP7 DUP7 ADD CALLDATALOAD DUP2 SSTORE ADD SWAP5 ADD SWAP2 ADD SWAP3 DUP14 SWAP5 SWAP2 DUP16 SWAP13 SWAP11 SWAP9 SWAP7 SWAP4 SWAP14 SWAP12 SWAP10 SWAP8 SWAP5 PUSH2 0x4270 JUMP JUMPDEST PUSH1 0x7 DUP6 ADD DUP12 MSTORE PUSH1 0x20 DUP12 KECCAK256 PUSH1 0x1F DUP5 ADD PUSH1 0x5 SHR DUP2 ADD PUSH1 0x20 DUP6 LT PUSH2 0x4348 JUMPI JUMPDEST PUSH1 0x1F DUP4 ADD PUSH1 0x5 SHR DUP3 ADD DUP2 LT PUSH2 0x433C JUMPI POP POP PUSH2 0x409F JUMP JUMPDEST PUSH1 0x0 DUP2 SSTORE PUSH1 0x1 ADD PUSH2 0x4326 JUMP JUMPDEST POP DUP1 PUSH2 0x4326 JUMP JUMPDEST PUSH4 0x4E487B71 PUSH1 0xE0 SHL DUP11 MSTORE PUSH1 0x41 PUSH1 0x4 MSTORE PUSH1 0x24 DUP11 REVERT JUMPDEST SWAP1 POP DUP10 ADD CALLDATALOAD CODESIZE PUSH2 0x4064 JUMP JUMPDEST PUSH1 0x6 DUP7 ADD DUP13 MSTORE PUSH1 0x20 DUP13 KECCAK256 SWAP2 POP DUP12 JUMPDEST DUP12 PUSH1 0x1F NOT DUP10 AND DUP3 LT PUSH2 0x43C2 JUMPI POP POP DUP7 PUSH1 0x1F NOT DUP2 AND LT PUSH2 0x43A8 JUMPI JUMPDEST POP POP PUSH1 0x1 DUP6 DUP2 SHL ADD PUSH1 0x6 DUP6 ADD SSTORE PUSH2 0x407B JUMP JUMPDEST DUP11 ADD CALLDATALOAD PUSH1 0x0 NOT PUSH1 0x3 DUP9 SWAP1 SHL PUSH1 0xF8 AND SHR NOT AND SWAP1 SSTORE CODESIZE DUP1 PUSH2 0x4396 JUMP JUMPDEST PUSH1 0x1 DUP4 SWAP5 PUSH1 0x20 SWAP4 SWAP5 DUP5 SWAP4 ADD CALLDATALOAD DUP2 SSTORE ADD SWAP4 ADD SWAP2 ADD PUSH2 0x437C JUMP JUMPDEST PUSH1 0x6 DUP6 ADD DUP12 MSTORE PUSH1 0x20 DUP12 KECCAK256 PUSH1 0x1F DUP8 ADD PUSH1 0x5 SHR DUP2 ADD PUSH1 0x20 DUP9 LT PUSH2 0x4418 JUMPI JUMPDEST PUSH1 0x1F DUP4 ADD PUSH1 0x5 SHR DUP3 ADD DUP2 LT PUSH2 0x440C JUMPI POP POP PUSH2 0x404F JUMP JUMPDEST PUSH1 0x0 DUP2 SSTORE PUSH1 0x1 ADD PUSH2 0x43F6 JUMP JUMPDEST POP DUP1 PUSH2 0x43F6 JUMP JUMPDEST SWAP1 POP DUP7 ADD CALLDATALOAD CODESIZE PUSH2 0x4014 JUMP JUMPDEST PUSH1 0x5 DUP7 ADD DUP13 MSTORE PUSH1 0x20 DUP13 KECCAK256 SWAP2 POP DUP12 JUMPDEST PUSH1 0x1F NOT DUP11 AND DUP2 LT PUSH2 0x447C JUMPI POP DUP9 PUSH1 0x1F NOT DUP2 AND LT PUSH2 0x4462 JUMPI JUMPDEST POP POP PUSH1 0x1 DUP8 DUP2 SHL ADD PUSH1 0x5 DUP6 ADD SSTORE PUSH2 0x402B JUMP JUMPDEST DUP8 ADD CALLDATALOAD PUSH1 0x0 NOT PUSH1 0x3 DUP11 SWAP1 SHL PUSH1 0xF8 AND SHR NOT AND SWAP1 SSTORE CODESIZE DUP1 PUSH2 0x4450 JUMP JUMPDEST SWAP1 SWAP2 PUSH1 0x20 PUSH1 0x1 DUP2 SWAP3 DUP6 DUP13 ADD CALLDATALOAD DUP2 SSTORE ADD SWAP4 ADD SWAP2 ADD PUSH2 0x4438 JUMP JUMPDEST PUSH1 0x5 DUP6 ADD DUP12 MSTORE PUSH1 0x20 DUP12 KECCAK256 PUSH1 0x1F DUP10 ADD PUSH1 0x5 SHR DUP2 ADD PUSH1 0x20 DUP11 LT PUSH2 0x44D2 JUMPI JUMPDEST PUSH1 0x1F DUP4 ADD PUSH1 0x5 SHR DUP3 ADD DUP2 LT PUSH2 0x44C6 JUMPI POP POP PUSH2 0x3FFF JUMP JUMPDEST PUSH1 0x0 DUP2 SSTORE PUSH1 0x1 ADD PUSH2 0x44B0 JUMP JUMPDEST POP DUP1 PUSH2 0x44B0 JUMP JUMPDEST SWAP1 POP DUP9 ADD CALLDATALOAD CODESIZE PUSH2 0x3FC3 JUMP JUMPDEST PUSH1 0x4 DUP7 ADD DUP13 MSTORE PUSH1 0x20 DUP13 KECCAK256 SWAP2 POP DUP12 DUP15 JUMPDEST DUP12 PUSH1 0x1F NOT DUP3 AND DUP4 LT PUSH2 0x4539 JUMPI POP PUSH1 0x1F NOT DUP2 AND LT SWAP1 POP PUSH2 0x451F JUMPI JUMPDEST POP POP PUSH1 0x1 DUP13 DUP2 SHL ADD PUSH1 0x4 DUP6 ADD SSTORE PUSH2 0x3FDB JUMP JUMPDEST DUP10 ADD CALLDATALOAD PUSH1 0x0 NOT PUSH1 0x3 DUP16 SWAP1 SHL PUSH1 0xF8 AND SHR NOT AND SWAP1 SSTORE CODESIZE DUP1 PUSH2 0x450D JUMP JUMPDEST PUSH1 0x1 DUP5 SWAP6 PUSH1 0x20 SWAP4 SWAP5 SWAP6 DUP5 SWAP4 ADD CALLDATALOAD DUP2 SSTORE ADD SWAP5 ADD SWAP3 ADD SWAP1 PUSH2 0x44F3 JUMP JUMPDEST PUSH1 0x4 DUP6 ADD DUP12 MSTORE PUSH1 0x20 DUP12 KECCAK256 DUP14 PUSH1 0x20 PUSH1 0x1F DUP3 ADD PUSH1 0x5 SHR DUP4 ADD SWAP2 LT PUSH2 0x4592 JUMPI JUMPDEST PUSH1 0x1F DUP4 ADD PUSH1 0x5 SHR DUP3 ADD DUP2 LT PUSH2 0x4586 JUMPI POP POP PUSH2 0x3FAE JUMP JUMPDEST PUSH1 0x0 DUP2 SSTORE PUSH1 0x1 ADD PUSH2 0x4570 JUMP JUMPDEST POP DUP1 PUSH2 0x4570 JUMP JUMPDEST ADD CALLDATALOAD SWAP1 POP CODESIZE DUP1 PUSH2 0x3F72 JUMP JUMPDEST PUSH1 0x3 DUP9 ADD DUP15 MSTORE PUSH1 0x20 DUP15 KECCAK256 DUP15 SWAP5 POP SWAP2 JUMPDEST PUSH1 0x1F NOT DUP5 AND DUP6 LT PUSH2 0x45F8 JUMPI PUSH1 0x1 SWAP5 POP DUP4 PUSH1 0x1F NOT DUP2 AND LT PUSH2 0x45DE JUMPI JUMPDEST POP POP POP DUP2 SHL ADD PUSH1 0x3 DUP6 ADD SSTORE PUSH2 0x3F8A JUMP JUMPDEST ADD CALLDATALOAD PUSH1 0x0 NOT PUSH1 0x3 DUP5 SWAP1 SHL PUSH1 0xF8 AND SHR NOT AND SWAP1 SSTORE CODESIZE DUP1 DUP1 PUSH2 0x45CE JUMP JUMPDEST DUP2 DUP2 ADD CALLDATALOAD DUP4 SSTORE PUSH1 0x20 SWAP5 DUP6 ADD SWAP5 PUSH1 0x1 SWAP1 SWAP4 ADD SWAP3 ADD PUSH2 0x45B3 JUMP JUMPDEST SWAP1 SWAP2 POP PUSH1 0x3 DUP8 ADD DUP14 MSTORE PUSH1 0x20 DUP14 KECCAK256 PUSH1 0x1F DUP5 ADD PUSH1 0x5 SHR DUP2 ADD PUSH1 0x20 DUP6 LT PUSH2 0x465A JUMPI JUMPDEST SWAP1 DUP5 SWAP4 SWAP3 SWAP2 JUMPDEST PUSH1 0x1F DUP4 ADD PUSH1 0x5 SHR DUP3 ADD DUP2 LT PUSH2 0x464B JUMPI POP POP PUSH2 0x3F5D JUMP JUMPDEST PUSH1 0x0 DUP2 SSTORE DUP6 SWAP5 POP PUSH1 0x1 ADD PUSH2 0x4635 JUMP JUMPDEST POP DUP1 PUSH2 0x462F JUMP JUMPDEST PUSH4 0x4E487B71 PUSH1 0xE0 SHL DUP13 MSTORE PUSH1 0x41 PUSH1 0x4 MSTORE PUSH1 0x24 DUP13 REVERT JUMPDEST PUSH2 0x467E SWAP1 PUSH2 0x4949 JUMP JUMPDEST PUSH2 0x1FCB JUMPI DUP10 CODESIZE PUSH2 0x3F01 JUMP JUMPDEST PUSH1 0x40 MLOAD RETURNDATASIZE DUP14 DUP3 RETURNDATACOPY RETURNDATASIZE SWAP1 REVERT JUMPDEST DUP12 DUP1 REVERT JUMPDEST PUSH2 0x46A4 SWAP1 SWAP11 SWAP2 SWAP11 PUSH2 0x4949 JUMP JUMPDEST SWAP9 CODESIZE PUSH2 0x3EAB JUMP JUMPDEST DUP13 DUP1 REVERT JUMPDEST SWAP1 SWAP3 POP PUSH1 0x20 DUP2 RETURNDATASIZE PUSH1 0x20 GT PUSH2 0x46DB JUMPI JUMPDEST DUP2 PUSH2 0x46CB PUSH1 0x20 SWAP4 DUP4 PUSH2 0x49AA JUMP JUMPDEST DUP2 ADD SUB SLT PUSH2 0x46AB JUMPI MLOAD SWAP2 CODESIZE PUSH2 0x3E6F JUMP JUMPDEST RETURNDATASIZE SWAP2 POP PUSH2 0x46BE JUMP JUMPDEST PUSH1 0x40 MLOAD RETURNDATASIZE DUP16 DUP3 RETURNDATACOPY RETURNDATASIZE SWAP1 REVERT JUMPDEST DUP9 DUP1 REVERT JUMPDEST SWAP2 DUP2 PUSH1 0x1F DUP5 ADD SLT ISZERO PUSH2 0x1FB3 JUMPI DUP3 CALLDATALOAD SWAP2 PUSH1 0x1 PUSH1 0x1 PUSH1 0x40 SHL SUB DUP4 GT PUSH2 0x1FB3 JUMPI PUSH1 0x20 DUP4 DUP2 DUP7 ADD SWAP6 ADD ADD GT PUSH2 0x1FB3 JUMPI JUMP JUMPDEST PUSH2 0x1C4 CALLDATALOAD SWAP1 DUP2 ISZERO ISZERO DUP3 SUB PUSH2 0x1FB3 JUMPI JUMP JUMPDEST PUSH1 0x40 SWAP1 PUSH1 0x3 NOT ADD SLT PUSH2 0x1FB3 JUMPI PUSH1 0x4 CALLDATALOAD SWAP1 PUSH1 0x24 CALLDATALOAD SWAP1 JUMP JUMPDEST PUSH1 0x4 CALLDATALOAD SWAP1 PUSH1 0x1 PUSH1 0x1 PUSH1 0xA0 SHL SUB DUP3 AND DUP3 SUB PUSH2 0x1FB3 JUMPI JUMP JUMPDEST PUSH1 0x24 CALLDATALOAD SWAP1 PUSH1 0x1 PUSH1 0x1 PUSH1 0xA0 SHL SUB DUP3 AND DUP3 SUB PUSH2 0x1FB3 JUMPI JUMP JUMPDEST DUP1 SLOAD DUP3 LT ISZERO PUSH2 0x4789 JUMPI PUSH1 0x0 MSTORE PUSH1 0x20 PUSH1 0x0 KECCAK256 ADD SWAP1 PUSH1 0x0 SWAP1 JUMP JUMPDEST PUSH4 0x4E487B71 PUSH1 0xE0 SHL PUSH1 0x0 MSTORE PUSH1 0x32 PUSH1 0x4 MSTORE PUSH1 0x24 PUSH1 0x0 REVERT JUMPDEST PUSH1 0x20 SWAP1 DUP2 PUSH1 0x40 DUP2 DUP4 ADD SWAP3 DUP3 DUP2 MSTORE DUP6 MLOAD DUP1 SWAP5 MSTORE ADD SWAP4 ADD SWAP2 PUSH1 0x0 JUMPDEST DUP3 DUP2 LT PUSH2 0x47C6 JUMPI POP POP POP POP SWAP1 JUMP JUMPDEST DUP4 MLOAD DUP6 MSTORE SWAP4 DUP2 ADD SWAP4 SWAP3 DUP2 ADD SWAP3 PUSH1 0x1 ADD PUSH2 0x47B8 JUMP JUMPDEST PUSH1 0x3 GT ISZERO PUSH2 0x490 JUMPI JUMP JUMPDEST PUSH1 0x4 GT ISZERO PUSH2 0x490 JUMPI JUMP JUMPDEST SWAP12 SWAP10 SWAP8 SWAP6 SWAP4 SWAP2 SWAP15 SWAP14 SWAP13 SWAP11 SWAP9 SWAP7 SWAP5 SWAP3 SWAP1 SWAP15 PUSH2 0x1C0 DUP14 ADD SWAP16 DUP14 MSTORE PUSH1 0x20 DUP14 ADD MSTORE PUSH1 0x1 PUSH1 0xA0 SHL PUSH1 0x1 SWAP1 SUB AND PUSH1 0x40 DUP13 ADD MSTORE PUSH2 0x4823 DUP2 PUSH2 0x47DA JUMP JUMPDEST PUSH1 0x60 DUP12 ADD MSTORE PUSH1 0x80 DUP11 ADD MSTORE PUSH1 0xA0 DUP10 ADD MSTORE PUSH1 0xC0 DUP9 ADD MSTORE PUSH1 0xE0 DUP8 ADD MSTORE PUSH2 0x4845 DUP2 PUSH2 0x47DA JUMP JUMPDEST PUSH2 0x100 DUP7 ADD MSTORE PUSH1 0xFF AND PUSH2 0x120 DUP6 ADD MSTORE PUSH1 0xFF AND PUSH2 0x140 DUP5 ADD MSTORE PUSH2 0x160 DUP4 ADD MSTORE PUSH2 0x180 DUP3 ADD MSTORE PUSH2 0x4872 DUP3 PUSH2 0x47E4 JUMP JUMPDEST PUSH2 0x1A0 ADD MSTORE JUMP JUMPDEST SWAP1 PUSH1 0x1 DUP3 DUP2 SHR SWAP3 AND DUP1 ISZERO PUSH2 0x48A9 JUMPI JUMPDEST PUSH1 0x20 DUP4 LT EQ PUSH2 0x4893 JUMPI JUMP JUMPDEST PUSH4 0x4E487B71 PUSH1 0xE0 SHL PUSH1 0x0 MSTORE PUSH1 0x22 PUSH1 0x4 MSTORE PUSH1 0x24 PUSH1 0x0 REVERT JUMPDEST SWAP2 PUSH1 0x7F AND SWAP2 PUSH2 0x4888 JUMP JUMPDEST SWAP1 PUSH1 0x0 SWAP3 SWAP2 DUP1 SLOAD SWAP2 PUSH2 0x48C4 DUP4 PUSH2 0x4879 JUMP JUMPDEST SWAP2 DUP3 DUP3 MSTORE PUSH1 0x1 SWAP4 DUP5 DUP2 AND SWAP1 DUP2 PUSH1 0x0 EQ PUSH2 0x4926 JUMPI POP PUSH1 0x1 EQ PUSH2 0x48E6 JUMPI JUMPDEST POP POP POP POP JUMP JUMPDEST SWAP1 SWAP2 SWAP4 SWAP5 POP PUSH1 0x0 MSTORE PUSH1 0x20 SWAP3 DUP4 PUSH1 0x0 KECCAK256 SWAP3 DUP5 PUSH1 0x0 SWAP5 JUMPDEST DUP4 DUP7 LT PUSH2 0x4912 JUMPI POP POP POP POP ADD ADD SWAP1 CODESIZE DUP1 DUP1 DUP1 PUSH2 0x48E0 JUMP JUMPDEST DUP1 SLOAD DUP6 DUP8 ADD DUP4 ADD MSTORE SWAP5 ADD SWAP4 DUP6 SWAP1 DUP3 ADD PUSH2 0x48FB JUMP JUMPDEST SWAP3 SWAP5 POP POP POP PUSH1 0x20 SWAP4 SWAP5 POP PUSH1 0xFF NOT AND DUP4 DUP4 ADD MSTORE ISZERO ISZERO PUSH1 0x5 SHL ADD ADD SWAP1 CODESIZE DUP1 DUP1 DUP1 PUSH2 0x48E0 JUMP JUMPDEST PUSH1 0x1 PUSH1 0x1 PUSH1 0x40 SHL SUB DUP2 GT PUSH2 0x495C JUMPI PUSH1 0x40 MSTORE JUMP JUMPDEST PUSH4 0x4E487B71 PUSH1 0xE0 SHL PUSH1 0x0 MSTORE PUSH1 0x41 PUSH1 0x4 MSTORE PUSH1 0x24 PUSH1 0x0 REVERT JUMPDEST PUSH2 0x1C0 DUP2 ADD SWAP1 DUP2 LT PUSH1 0x1 PUSH1 0x1 PUSH1 0x40 SHL SUB DUP3 GT OR PUSH2 0x495C JUMPI PUSH1 0x40 MSTORE JUMP JUMPDEST PUSH2 0x440 DUP2 ADD SWAP1 DUP2 LT PUSH1 0x1 PUSH1 0x1 PUSH1 0x40 SHL SUB DUP3 GT OR PUSH2 0x495C JUMPI PUSH1 0x40 MSTORE JUMP JUMPDEST PUSH1 0x1F SWAP1 SWAP2 ADD PUSH1 0x1F NOT AND DUP2 ADD SWAP1 PUSH1 0x1 PUSH1 0x1 PUSH1 0x40 SHL SUB DUP3 GT SWAP1 DUP3 LT OR PUSH2 0x495C JUMPI PUSH1 0x40 MSTORE JUMP JUMPDEST SWAP2 SWAP1 DUP3 MLOAD SWAP3 DUP4 DUP3 MSTORE PUSH1 0x0 JUMPDEST DUP5 DUP2 LT PUSH2 0x49F9 JUMPI POP POP DUP3 PUSH1 0x0 PUSH1 0x20 DUP1 SWAP5 SWAP6 DUP5 ADD ADD MSTORE PUSH1 0x1F DUP1 NOT SWAP2 ADD AND ADD ADD SWAP1 JUMP JUMPDEST PUSH1 0x20 DUP2 DUP4 ADD DUP2 ADD MLOAD DUP5 DUP4 ADD DUP3 ADD MSTORE ADD PUSH2 0x49D8 JUMP JUMPDEST PUSH1 0x2 GT ISZERO PUSH2 0x490 JUMPI JUMP JUMPDEST SWAP1 PUSH1 0xB DUP3 LT ISZERO PUSH2 0x490 JUMPI MSTORE JUMP JUMPDEST DUP1 SLOAD DUP3 LT ISZERO PUSH2 0x4789 JUMPI PUSH1 0x0 MSTORE PUSH1 0xB PUSH1 0x20 PUSH1 0x0 KECCAK256 SWAP2 MUL ADD SWAP1 PUSH1 0x0 SWAP1 JUMP JUMPDEST CALLER PUSH1 0x0 SWAP1 DUP2 MSTORE PUSH32 0xDD53DF7E4642F4E3D9DEDEDDAC02355F2E876E2A9B7EF4E260AF8D6FD7B33257 PUSH1 0x20 MSTORE PUSH1 0x40 SWAP1 KECCAK256 SLOAD PUSH1 0x0 DUP1 MLOAD PUSH1 0x20 PUSH2 0x51F2 DUP4 CODECOPY DUP2 MLOAD SWAP2 MSTORE SWAP1 PUSH1 0xFF AND ISZERO PUSH2 0x4A8A JUMPI POP JUMP JUMPDEST PUSH1 0x44 SWAP1 PUSH1 0x40 MLOAD SWAP1 PUSH4 0xE2517D3F PUSH1 0xE0 SHL DUP3 MSTORE CALLER PUSH1 0x4 DUP4 ADD MSTORE PUSH1 0x24 DUP3 ADD MSTORE REVERT JUMPDEST CALLER PUSH1 0x0 SWAP1 DUP2 MSTORE PUSH32 0xAD3228B676F7D3CD4284A5443F17F1962B36E491B30A40B2405849E597BA5FB5 PUSH1 0x20 MSTORE PUSH1 0x40 DUP2 KECCAK256 SLOAD PUSH1 0xFF AND ISZERO PUSH2 0x4A8A JUMPI POP JUMP JUMPDEST CALLER PUSH1 0x0 SWAP1 DUP2 MSTORE PUSH32 0x3F8D9A030D334798D6AECE9C5BCC7646B3F51F8740E76F47846D18CC4A1A8E4E PUSH1 0x20 MSTORE PUSH1 0x40 SWAP1 KECCAK256 SLOAD PUSH1 0x0 DUP1 MLOAD PUSH1 0x20 PUSH2 0x5272 DUP4 CODECOPY DUP2 MLOAD SWAP2 MSTORE SWAP1 PUSH1 0xFF AND ISZERO PUSH2 0x4A8A JUMPI POP JUMP JUMPDEST DUP1 PUSH1 0x0 MSTORE PUSH1 0x0 PUSH1 0x20 MSTORE PUSH1 0x40 PUSH1 0x0 KECCAK256 CALLER PUSH1 0x0 MSTORE PUSH1 0x20 MSTORE PUSH1 0xFF PUSH1 0x40 PUSH1 0x0 KECCAK256 SLOAD AND ISZERO PUSH2 0x4A8A JUMPI POP JUMP JUMPDEST SWAP1 PUSH1 0x0 SWAP2 DUP1 DUP4 MSTORE DUP3 PUSH1 0x20 MSTORE PUSH1 0x40 DUP4 KECCAK256 SWAP2 PUSH1 0x1 DUP1 PUSH1 0xA0 SHL SUB AND SWAP2 DUP3 DUP5 MSTORE PUSH1 0x20 MSTORE PUSH1 0xFF PUSH1 0x40 DUP5 KECCAK256 SLOAD AND ISZERO PUSH1 0x0 EQ PUSH2 0x4BCB JUMPI DUP1 DUP4 MSTORE DUP3 PUSH1 0x20 MSTORE PUSH1 0x40 DUP4 KECCAK256 DUP3 DUP5 MSTORE PUSH1 0x20 MSTORE PUSH1 0x40 DUP4 KECCAK256 PUSH1 0x1 PUSH1 0xFF NOT DUP3 SLOAD AND OR SWAP1 SSTORE PUSH32 0x2F8788117E7EFF1D82E926EC794901D17C78024A50270940304540A733656F0D CALLER SWAP4 DUP1 LOG4 PUSH1 0x1 SWAP1 JUMP JUMPDEST POP POP SWAP1 JUMP JUMPDEST SWAP1 PUSH1 0x0 SWAP2 DUP1 DUP4 MSTORE DUP3 PUSH1 0x20 MSTORE PUSH1 0x40 DUP4 KECCAK256 SWAP2 PUSH1 0x1 DUP1 PUSH1 0xA0 SHL SUB AND SWAP2 DUP3 DUP5 MSTORE PUSH1 0x20 MSTORE PUSH1 0xFF PUSH1 0x40 DUP5 KECCAK256 SLOAD AND PUSH1 0x0 EQ PUSH2 0x4BCB JUMPI DUP1 DUP4 MSTORE DUP3 PUSH1 0x20 MSTORE PUSH1 0x40 DUP4 KECCAK256 DUP3 DUP5 MSTORE PUSH1 0x20 MSTORE PUSH1 0x40 DUP4 KECCAK256 PUSH1 0xFF NOT DUP2 SLOAD AND SWAP1 SSTORE PUSH32 0xF6391F5C32D9C69D2A47EA670B442974B53935D1EDC7FD64EB21E047A839171B CALLER SWAP4 DUP1 LOG4 PUSH1 0x1 SWAP1 JUMP JUMPDEST ISZERO PUSH2 0x4C4C JUMPI JUMP JUMPDEST PUSH1 0x40 MLOAD PUSH3 0x461BCD PUSH1 0xE5 SHL DUP2 MSTORE PUSH1 0x20 PUSH1 0x4 DUP3 ADD MSTORE PUSH1 0x26 PUSH1 0x24 DUP3 ADD MSTORE PUSH32 0x4F7074696F6E73436F72653A206E6F74696F6E616C206D75737420626520706F PUSH1 0x44 DUP3 ADD MSTORE PUSH6 0x736974697665 PUSH1 0xD0 SHL PUSH1 0x64 DUP3 ADD MSTORE PUSH1 0x84 SWAP1 REVERT JUMPDEST ISZERO PUSH2 0x4CA7 JUMPI JUMP JUMPDEST PUSH1 0x40 MLOAD PUSH3 0x461BCD PUSH1 0xE5 SHL DUP2 MSTORE PUSH1 0x20 PUSH1 0x4 DUP3 ADD MSTORE PUSH1 0x25 PUSH1 0x24 DUP3 ADD MSTORE PUSH32 0x4F7074696F6E73436F72653A20657870697279206D75737420626520696E2066 PUSH1 0x44 DUP3 ADD MSTORE PUSH5 0x7574757265 PUSH1 0xD8 SHL PUSH1 0x64 DUP3 ADD MSTORE PUSH1 0x84 SWAP1 REVERT JUMPDEST PUSH1 0x1 PUSH1 0x1 PUSH1 0xA0 SHL SUB SWAP2 DUP3 AND DUP2 MSTORE SWAP2 AND PUSH1 0x20 DUP3 ADD MSTORE PUSH1 0x40 DUP2 ADD SWAP2 SWAP1 SWAP2 MSTORE PUSH1 0x80 PUSH1 0x60 DUP3 ADD DUP2 SWAP1 MSTORE PUSH1 0xC SWAP1 DUP3 ADD MSTORE PUSH12 0x6372656174696F6E5F666565 PUSH1 0xA0 SHL PUSH1 0xA0 DUP3 ADD MSTORE PUSH1 0xC0 ADD SWAP1 JUMP JUMPDEST PUSH1 0x0 NOT DUP2 EQ PUSH2 0x4D4F JUMPI PUSH1 0x1 ADD SWAP1 JUMP JUMPDEST PUSH4 0x4E487B71 PUSH1 0xE0 SHL PUSH1 0x0 MSTORE PUSH1 0x11 PUSH1 0x4 MSTORE PUSH1 0x24 PUSH1 0x0 REVERT JUMPDEST SWAP1 PUSH2 0x4D6F DUP2 PUSH2 0x4A0D JUMP JUMPDEST PUSH1 0xFF DUP1 NOT DUP4 SLOAD AND SWAP2 AND OR SWAP1 SSTORE JUMP JUMPDEST SWAP1 PUSH2 0x4D6F DUP2 PUSH2 0x47DA JUMP JUMPDEST SWAP1 PUSH2 0xFF00 DUP3 SLOAD SWAP2 PUSH1 0x8 SHL AND SWAP1 PUSH2 0xFF00 NOT AND OR SWAP1 SSTORE JUMP JUMPDEST SWAP1 PUSH3 0xFF0000 DUP3 SLOAD SWAP2 PUSH1 0x10 SHL AND SWAP1 PUSH3 0xFF0000 NOT AND OR SWAP1 SSTORE JUMP JUMPDEST SWAP1 PUSH2 0x4DBF DUP2 PUSH2 0x4A0D JUMP JUMPDEST PUSH2 0xFF00 DUP3 SLOAD SWAP2 PUSH1 0x8 SHL AND SWAP1 PUSH2 0xFF00 NOT AND OR SWAP1 SSTORE JUMP JUMPDEST DUP1 SLOAD PUSH1 0x1 PUSH1 0x40 SHL DUP2 LT ISZERO PUSH2 0x495C JUMPI PUSH2 0x4DF1 SWAP2 PUSH1 0x1 DUP3 ADD DUP2 SSTORE PUSH2 0x4771 JUMP JUMPDEST DUP2 SWAP3 SWAP2 SLOAD SWAP1 PUSH1 0x3 SHL SWAP2 DUP3 SHL SWAP2 PUSH1 0x0 NOT SWAP1 SHL NOT AND OR SWAP1 SSTORE JUMP JUMPDEST PUSH1 0xFF PUSH1 0x2 SLOAD AND PUSH2 0x4E15 JUMPI JUMP JUMPDEST PUSH1 0x40 MLOAD PUSH4 0xD93C0665 PUSH1 0xE0 SHL DUP2 MSTORE PUSH1 0x4 SWAP1 REVERT JUMPDEST PUSH1 0x2 PUSH1 0x1 SLOAD EQ PUSH2 0x4E38 JUMPI PUSH1 0x2 PUSH1 0x1 SSTORE JUMP JUMPDEST PUSH1 0x40 MLOAD PUSH4 0x3EE5AEB5 PUSH1 0xE0 SHL DUP2 MSTORE PUSH1 0x4 SWAP1 REVERT JUMPDEST ISZERO PUSH2 0x4E51 JUMPI JUMP JUMPDEST PUSH1 0x40 MLOAD PUSH3 0x461BCD PUSH1 0xE5 SHL DUP2 MSTORE PUSH1 0x20 PUSH1 0x4 DUP3 ADD MSTORE PUSH1 0x16 PUSH1 0x24 DUP3 ADD MSTORE PUSH22 0x27B83A34B7B739A1B7B9329D103737BA10313ABCB2B9 PUSH1 0x51 SHL PUSH1 0x44 DUP3 ADD MSTORE PUSH1 0x64 SWAP1 REVERT JUMPDEST DUP2 DUP2 MUL SWAP3 SWAP2 DUP2 ISZERO SWAP2 DUP5 DIV EQ OR ISZERO PUSH2 0x4D4F JUMPI JUMP JUMPDEST PUSH1 0x1 PUSH1 0x1 PUSH1 0xA0 SHL SUB SWAP2 DUP3 AND DUP2 MSTORE SWAP2 AND PUSH1 0x20 DUP3 ADD MSTORE PUSH1 0x40 DUP2 ADD SWAP2 SWAP1 SWAP2 MSTORE PUSH1 0x60 ADD SWAP1 JUMP JUMPDEST PUSH1 0x1 PUSH1 0x1 PUSH1 0xA0 SHL SUB SWAP2 DUP3 AND DUP2 MSTORE SWAP2 AND PUSH1 0x20 DUP3 ADD MSTORE PUSH1 0x40 DUP2 ADD SWAP2 SWAP1 SWAP2 MSTORE PUSH1 0x80 PUSH1 0x60 DUP3 ADD DUP2 SWAP1 MSTORE PUSH1 0xB SWAP1 DUP3 ADD MSTORE PUSH11 0x74726164696E675F666565 PUSH1 0xA8 SHL PUSH1 0xA0 DUP3 ADD MSTORE PUSH1 0xC0 ADD SWAP1 JUMP JUMPDEST ISZERO PUSH2 0x4F10 JUMPI JUMP JUMPDEST PUSH1 0x40 MLOAD PUSH3 0x461BCD PUSH1 0xE5 SHL DUP2 MSTORE PUSH1 0x20 PUSH1 0x4 DUP3 ADD MSTORE PUSH1 0x1D PUSH1 0x24 DUP3 ADD MSTORE PUSH32 0x4F7074696F6E73436F72653A20696E76616C6964206F72646572206964000000 PUSH1 0x44 DUP3 ADD MSTORE PUSH1 0x64 SWAP1 REVERT JUMPDEST PUSH1 0xF DUP2 MSTORE PUSH15 0x189D5E595C8818D85B98D95B1B1959 PUSH1 0x8A SHL PUSH1 0x20 DUP3 ADD MSTORE PUSH1 0x40 ADD SWAP1 JUMP JUMPDEST SWAP2 SWAP1 DUP3 ADD DUP1 SWAP3 GT PUSH2 0x4D4F JUMPI JUMP JUMPDEST PUSH1 0xB DUP2 MSTORE PUSH11 0x1C999C481D1A5B595BDD5D PUSH1 0xAA SHL PUSH1 0x20 DUP3 ADD MSTORE PUSH1 0x40 ADD SWAP1 JUMP JUMPDEST SWAP1 PUSH1 0x0 DUP3 DUP2 MSTORE PUSH1 0x20 PUSH1 0x8 DUP2 MSTORE PUSH1 0x40 SWAP4 DUP5 DUP4 KECCAK256 DUP4 JUMPDEST DUP2 SLOAD DUP2 LT ISZERO PUSH2 0x50D8 JUMPI PUSH2 0x4FC9 DUP2 DUP4 PUSH2 0x4A24 JUMP JUMPDEST POP PUSH1 0xA DUP2 ADD SWAP1 DUP2 SLOAD SWAP2 PUSH1 0xFF DUP4 AND PUSH2 0x4FDF DUP2 PUSH2 0x47E4 JUMP JUMPDEST ISZERO DUP1 PUSH2 0x50CB JUMPI JUMPDEST PUSH2 0x4FFC JUMPI JUMPDEST POP POP POP PUSH2 0x4FF7 SWAP1 PUSH2 0x4D40 JUMP JUMPDEST PUSH2 0x4FB6 JUMP JUMPDEST PUSH1 0x3 DUP1 SWAP4 PUSH1 0xFF NOT AND OR SWAP1 SSTORE PUSH1 0x1 DUP1 PUSH1 0xA0 SHL SUB DUP1 SWAP3 SLOAD AND SWAP2 PUSH1 0x2 DUP3 ADD SWAP2 DUP2 DUP4 SLOAD AND SWAP4 PUSH1 0x4 SWAP1 DUP4 DUP3 SLOAD AND SWAP1 PUSH1 0x6 DUP5 ADD SWAP7 DUP8 SLOAD SWAP4 DUP3 EXTCODESIZE ISZERO PUSH2 0x50C7 JUMPI SWAP1 DUP16 DUP15 SWAP5 SWAP4 SWAP3 PUSH2 0x5058 DUP7 SWAP3 MLOAD SWAP8 DUP9 SWAP7 DUP8 SWAP6 DUP7 SWAP5 PUSH4 0x6924FAA7 PUSH1 0xE1 SHL DUP7 MSTORE DUP6 ADD PUSH2 0x4EA2 JUMP JUMPDEST SUB SWAP3 GAS CALL DUP1 ISZERO PUSH2 0x50BD JUMPI PUSH2 0x4FF7 SWAP7 SWAP6 SWAP5 SWAP4 DUP10 SWAP4 PUSH32 0x18AE744A3A27B4A583DA0D9B90C0BD0162260ED46685502B4C6F305E997167B5 SWAP4 DUP16 SWAP4 PUSH2 0x50AE JUMPI JUMPDEST POP SLOAD SWAP5 SLOAD AND SWAP5 SLOAD DUP2 MLOAD SWAP1 DUP2 MSTORE TIMESTAMP DUP12 DUP3 ADD MSTORE LOG4 SWAP1 CODESIZE DUP1 PUSH2 0x4FEB JUMP JUMPDEST PUSH2 0x50B7 SWAP1 PUSH2 0x4949 JUMP JUMPDEST CODESIZE PUSH2 0x5094 JUMP JUMPDEST DUP13 MLOAD RETURNDATASIZE DUP13 DUP3 RETURNDATACOPY RETURNDATASIZE SWAP1 REVERT JUMPDEST DUP14 DUP1 REVERT JUMPDEST POP PUSH1 0x6 DUP3 ADD SLOAD ISZERO ISZERO PUSH2 0x4FE6 JUMP JUMPDEST POP POP POP POP POP SWAP1 POP JUMP JUMPDEST PUSH1 0xA PUSH2 0x1A0 SWAP2 DUP4 MLOAD DUP2 SSTORE PUSH1 0x20 DUP5 ADD MLOAD PUSH1 0x1 DUP3 ADD SSTORE PUSH1 0x2 DUP2 ADD PUSH1 0x1 DUP1 PUSH1 0xA0 SHL SUB PUSH1 0x40 DUP7 ADD MLOAD AND DUP2 SLOAD SWAP1 PUSH1 0x60 DUP8 ADD MLOAD PUSH2 0x5117 DUP2 PUSH2 0x47DA JUMP JUMPDEST PUSH2 0x5120 DUP2 PUSH2 0x47DA JUMP JUMPDEST PUSH1 0x1 PUSH1 0x1 PUSH1 0xA8 SHL SUB NOT SWAP1 SWAP3 AND OR PUSH1 0xA0 SWAP2 DUP3 SHL PUSH1 0xFF PUSH1 0xA0 SHL AND OR SWAP1 SWAP2 SSTORE PUSH1 0x80 DUP6 ADD MLOAD PUSH1 0x3 DUP4 ADD SSTORE DUP5 ADD MLOAD PUSH1 0x4 DUP3 ADD SSTORE PUSH1 0xC0 DUP5 ADD MLOAD PUSH1 0x5 DUP3 ADD SSTORE PUSH1 0xE0 DUP5 ADD MLOAD PUSH1 0x6 DUP3 ADD SSTORE PUSH2 0x100 DUP5 ADD MLOAD PUSH2 0x51A5 SWAP1 PUSH1 0x7 DUP4 ADD SWAP1 PUSH2 0x5184 SWAP1 PUSH2 0x517E DUP2 PUSH2 0x47DA JUMP JUMPDEST DUP3 PUSH2 0x4D7D JUMP JUMPDEST PUSH2 0x5196 PUSH1 0xFF PUSH2 0x120 DUP9 ADD MLOAD AND DUP3 PUSH2 0x4D87 JUMP JUMPDEST PUSH1 0xFF PUSH2 0x140 DUP8 ADD MLOAD AND SWAP1 PUSH2 0x4D9D JUMP JUMPDEST PUSH2 0x160 DUP5 ADD MLOAD PUSH1 0x8 DUP3 ADD SSTORE PUSH2 0x180 DUP5 ADD MLOAD PUSH1 0x9 DUP3 ADD SSTORE ADD SWAP2 ADD MLOAD PUSH2 0x51C8 DUP2 PUSH2 0x47E4 JUMP JUMPDEST PUSH2 0x4D6F DUP2 PUSH2 0x47E4 JUMP INVALID 0x4F PUSH17 0x74696F6E73436F72653A206E6F74206177 PUSH2 0x6974 PUSH10 0x6E672066696E616C2030 0xF SWAP11 0xE9 DUP6 0xDC PUSH18 0x1960F7A4D1DD013F9C19ECF40BFF149522AB PUSH22 0x23B2187A3846CE74058472262D5DB42B1CA04D78E999 0xD2 0xDD MSTORE EXTCODESIZE 0xDF DUP12 CALLER KECCAK256 0x2E MOD 0xCC 0xA9 SELFBALANCE 0xB3 SHL 0xBE 0x4F PUSH17 0x74696F6E73436F72653A206E6F74206177 PUSH2 0x6974 PUSH10 0x6E6720696E69746961B8 BASEFEE 0xA6 0x2E 0xF7 OR LT NOT 0xD2 NUMBER 0xED DUP16 JUMPDEST DUP15 0x1E PUSH13 0x32CAFED0B7FC99DA26CB2FC2E7 0xD5 CALLER 0xEC DIV SWAP7 PUSH32 0xD25E7AA667B18955D808F19FD0C86238999FF8BE2EBC72CD2CD3A83DB0CE3A31 0xBA 0xF9 SWAP6 PUSH15 0x86200EE7044A75C2BEFBD05091279 DUP12 PUSH28 0xCD25D05831AB9592C0C6ED2669FEBBE340D8737E8EC17254FFD9E038 0xB5 0x4A GASLIMIT DUP6 SELFDESTRUCT PUSH17 0xAC3CA18956AA3D7463B72B52FAFC8E3F27 0xDC 0xD 0xBB SWAP14 BYTE SWAP5 0xC0 LOG4 MUL BASEFEE CALLVALUE 0x25 0x2B 0x5C 0xCE PUSH9 0x509ACB49BCA2646970 PUSH7 0x735822122092A1 0x1E PUSH0 0xC8 SWAP4 0x1F LOG3 DUP4 0x22 0xE MSIZE 0xEB GASLIMIT 0xF9 DIV DUP9 0xDE NUMBER 0x4F 0xF6 0xE1 TIMESTAMP 0xD2 0xC6 DELEGATECALL COINBASE SMOD SHL 0xE4 0xD4 0xD7 PUSH5 0x736F6C6343 STOP ADDMOD EQ STOP CALLER "},"methodIdentifiers":{"DEFAULT_ADMIN_ROLE()":"a217fddf","FEED_PROTOCOL_ROLE()":"cdc65ab6","SETTLEMENT_ROLE()":"ba9cf01d","acceptQuote(uint256)":"5d7ffe7b","acceptSellerOrder(uint256)":"67ac0bf0","buyerOrders(address,uint256)":"4500cb60","cancelRFQ(uint256)":"bc0ef26b","cancelRFQDueToTimeout(uint256)":"3ab3784a","config()":"79502c55","createBuyerRFQ(string,string,string,string,string,uint8,uint256,uint256,uint256,uint256,uint8,address,uint256,uint256,bool,uint8,uint8,uint8,uint8)":"979b4e6d","createSellerOrder(string,string,string,string,string,uint8,uint256,uint256,uint256,uint256,uint8,uint8,uint8,uint256,bool,uint8,uint8)":"01d0d5b8","getBuyerOrders(address)":"a45f2ebc","getOrder(uint256)":"d09ef241","getOrdersByCountry(string)":"cf3fec43","getOrdersByMarket(string)":"7d900421","getQuotes(uint256)":"d049bfef","getRoleAdmin(bytes32)":"248a9ca3","getSellerOrders(address)":"e4cbac40","grantRole(bytes32,address)":"2f2ff15d","hasRole(bytes32,address)":"91d14854","nextOrderId()":"2a58b330","nextQuoteId()":"4efef6aa","onFeedRequested(uint256,uint8)":"305cddfd","orderQuotes(uint256,uint256)":"f7ff6426","orders(uint256)":"a85c38ef","pause()":"8456cb59","paused()":"5c975abb","processFeedCallback(uint256,uint8,uint256)":"3087a88c","processFinalFeedResult(uint256,uint256)":"42dd6d3e","processInitialFeedResult(uint256,uint256)":"e02e34f8","quotes(uint256)":"a61cf0d4","renounceRole(bytes32,address)":"36568abe","requestFeed(uint256,uint8)":"6dbe7579","revokeRole(bytes32,address)":"d547741f","sellerOrders(address,uint256)":"45cb4505","setConfig(address)":"20e3dbd4","setVaultManager(address)":"b543503e","submitQuote(uint256,uint256,uint256,uint8,uint8,uint8)":"7203a582","supportsInterface(bytes4)":"01ffc9a7","unpause()":"3f4ba83a","updateOrderDividend(uint256,uint256)":"44f1eaae","updateOrderMargin(uint256,uint256)":"1c0dd7e8","updateOrderMarginCallDeadline(uint256,uint256)":"d37e527b","updateOrderPrice(uint256,uint256)":"5e9e78d0","updateOrderSettledAt(uint256,uint256)":"15d92e33","updateOrderStatus(uint256,uint8)":"aab3196d","updateOrderStrikePrice(uint256,uint256)":"d426aec1","usdt()":"2f48ab7d","vaultManager()":"8a4adf24"}}}}}