{"contracts/core/OptionsCore.sol":{"OptionsCore":{"abi":[{"inputs":[{"internalType":"address","name":"_config","type":"address"},{"internalType":"address","name":"_vaultManager","type":"address"},{"internalType":"address","name":"_usdt","type":"address"},{"internalType":"address","name":"_admin","type":"address"}],"stateMutability":"nonpayable","type":"constructor"},{"inputs":[],"name":"AccessControlBadConfirmation","type":"error"},{"inputs":[{"internalType":"address","name":"account","type":"address"},{"internalType":"bytes32","name":"neededRole","type":"bytes32"}],"name":"AccessControlUnauthorizedAccount","type":"error"},{"inputs":[],"name":"EnforcedPause","type":"error"},{"inputs":[],"name":"ExpectedPause","type":"error"},{"inputs":[],"name":"ReentrancyGuardReentrantCall","type":"error"},{"inputs":[{"internalType":"address","name":"token","type":"address"}],"name":"SafeERC20FailedOperation","type":"error"},{"anonymous":false,"inputs":[{"indexed":true,"internalType":"uint256","name":"orderId","type":"uint256"},{"indexed":true,"internalType":"address","name":"seller","type":"address"},{"indexed":false,"internalType":"uint256","name":"oldAmount","type":"uint256"},{"indexed":false,"internalType":"uint256","name":"newAmount","type":"uint256"},{"indexed":false,"internalType":"string","name":"changeType","type":"string"},{"indexed":false,"internalType":"uint256","name":"timestamp","type":"uint256"}],"name":"MarginChanged","type":"event"},{"anonymous":false,"inputs":[{"indexed":true,"internalType":"uint256","name":"orderId","type":"uint256"},{"indexed":false,"internalType":"string","name":"reason","type":"string"},{"indexed":false,"internalType":"uint256","name":"timestamp","type":"uint256"}],"name":"OrderCancelled","type":"event"},{"anonymous":false,"inputs":[{"indexed":true,"internalType":"uint256","name":"orderId","type":"uint256"},{"indexed":true,"internalType":"address","name":"creator","type":"address"},{"indexed":false,"internalType":"bool","name":"isBuyerOrder","type":"bool"},{"indexed":false,"internalType":"uint256","name":"timestamp","type":"uint256"}],"name":"OrderCreated","type":"event"},{"anonymous":false,"inputs":[{"indexed":true,"internalType":"uint256","name":"orderId","type":"uint256"},{"indexed":false,"internalType":"address","name":"beneficiary","type":"address"},{"indexed":false,"internalType":"uint256","name":"amount","type":"uint256"},{"indexed":false,"internalType":"uint256","name":"timestamp","type":"uint256"}],"name":"OrderLiquidated","type":"event"},{"anonymous":false,"inputs":[{"indexed":true,"internalType":"uint256","name":"orderId","type":"uint256"},{"indexed":true,"internalType":"address","name":"buyer","type":"address"},{"indexed":true,"internalType":"address","name":"seller","type":"address"},{"indexed":false,"internalType":"uint256","name":"timestamp","type":"uint256"}],"name":"OrderMatched","type":"event"},{"anonymous":false,"inputs":[{"indexed":true,"internalType":"uint256","name":"orderId","type":"uint256"},{"indexed":false,"internalType":"uint256","name":"buyerPayout","type":"uint256"},{"indexed":false,"internalType":"uint256","name":"sellerPayout","type":"uint256"},{"indexed":false,"internalType":"uint256","name":"timestamp","type":"uint256"}],"name":"OrderSettled","type":"event"},{"anonymous":false,"inputs":[{"indexed":true,"internalType":"uint256","name":"orderId","type":"uint256"},{"indexed":false,"internalType":"enum OrderStatus","name":"oldStatus","type":"uint8"},{"indexed":false,"internalType":"enum OrderStatus","name":"newStatus","type":"uint8"},{"indexed":false,"internalType":"string","name":"reason","type":"string"},{"indexed":false,"internalType":"uint256","name":"timestamp","type":"uint256"}],"name":"OrderStatusChanged","type":"event"},{"anonymous":false,"inputs":[{"indexed":false,"internalType":"address","name":"account","type":"address"}],"name":"Paused","type":"event"},{"anonymous":false,"inputs":[{"indexed":true,"internalType":"uint256","name":"orderId","type":"uint256"},{"indexed":true,"internalType":"uint256","name":"quoteId","type":"uint256"},{"indexed":true,"internalType":"address","name":"seller","type":"address"},{"indexed":false,"internalType":"uint256","name":"premiumRate","type":"uint256"},{"indexed":false,"internalType":"uint256","name":"timestamp","type":"uint256"}],"name":"QuoteSubmitted","type":"event"},{"anonymous":false,"inputs":[{"indexed":true,"internalType":"bytes32","name":"role","type":"bytes32"},{"indexed":true,"internalType":"bytes32","name":"previousAdminRole","type":"bytes32"},{"indexed":true,"internalType":"bytes32","name":"newAdminRole","type":"bytes32"}],"name":"RoleAdminChanged","type":"event"},{"anonymous":false,"inputs":[{"indexed":true,"internalType":"bytes32","name":"role","type":"bytes32"},{"indexed":true,"internalType":"address","name":"account","type":"address"},{"indexed":true,"internalType":"address","name":"sender","type":"address"}],"name":"RoleGranted","type":"event"},{"anonymous":false,"inputs":[{"indexed":true,"internalType":"bytes32","name":"role","type":"bytes32"},{"indexed":true,"internalType":"address","name":"account","type":"address"},{"indexed":true,"internalType":"address","name":"sender","type":"address"}],"name":"RoleRevoked","type":"event"},{"anonymous":false,"inputs":[{"indexed":false,"internalType":"address","name":"account","type":"address"}],"name":"Unpaused","type":"event"},{"inputs":[],"name":"DEFAULT_ADMIN_ROLE","outputs":[{"internalType":"bytes32","name":"","type":"bytes32"}],"stateMutability":"view","type":"function"},{"inputs":[{"internalType":"uint256","name":"quoteId","type":"uint256"}],"name":"acceptQuote","outputs":[],"stateMutability":"nonpayable","type":"function"},{"inputs":[{"internalType":"uint256","name":"orderId","type":"uint256"},{"internalType":"uint256","name":"amount","type":"uint256"}],"name":"addMargin","outputs":[],"stateMutability":"nonpayable","type":"function"},{"inputs":[{"internalType":"address","name":"","type":"address"},{"internalType":"uint256","name":"","type":"uint256"}],"name":"buyerOrders","outputs":[{"internalType":"uint256","name":"","type":"uint256"}],"stateMutability":"view","type":"function"},{"inputs":[{"internalType":"uint256","name":"orderId","type":"uint256"}],"name":"cancelRFQ","outputs":[],"stateMutability":"nonpayable","type":"function"},{"inputs":[],"name":"config","outputs":[{"internalType":"contract Config","name":"","type":"address"}],"stateMutability":"view","type":"function"},{"inputs":[{"internalType":"string","name":"underlyingName","type":"string"},{"internalType":"string","name":"underlyingCode","type":"string"},{"internalType":"string","name":"market","type":"string"},{"internalType":"string","name":"country","type":"string"},{"internalType":"string","name":"refPrice","type":"string"},{"internalType":"enum Direction","name":"direction","type":"uint8"},{"internalType":"uint256","name":"notionalUSDT","type":"uint256"},{"internalType":"uint256","name":"expiryTimestamp","type":"uint256"},{"internalType":"uint256","name":"maxPremiumRate","type":"uint256"},{"internalType":"uint256","name":"minMarginRate","type":"uint256"},{"internalType":"enum SellerType","name":"acceptedSellerType","type":"uint8"},{"internalType":"address","name":"designatedSeller","type":"address"},{"internalType":"uint256","name":"arbitrationWindow","type":"uint256"},{"internalType":"uint256","name":"marginCallDeadline","type":"uint256"},{"internalType":"bool","name":"dividendAdjustment","type":"bool"},{"internalType":"enum LiquidationRule","name":"liquidationRule","type":"uint8"},{"internalType":"uint8","name":"consecutiveDays","type":"uint8"},{"internalType":"uint8","name":"dailyLimitPercent","type":"uint8"},{"internalType":"enum FeedRule","name":"feedRule","type":"uint8"}],"name":"createBuyerRFQ","outputs":[{"internalType":"uint256","name":"orderId","type":"uint256"}],"stateMutability":"nonpayable","type":"function"},{"inputs":[{"internalType":"string","name":"underlyingName","type":"string"},{"internalType":"string","name":"underlyingCode","type":"string"},{"internalType":"string","name":"market","type":"string"},{"internalType":"string","name":"country","type":"string"},{"internalType":"string","name":"refPrice","type":"string"},{"internalType":"enum Direction","name":"direction","type":"uint8"},{"internalType":"uint256","name":"notionalUSDT","type":"uint256"},{"internalType":"uint256","name":"expiryTimestamp","type":"uint256"},{"internalType":"uint256","name":"premiumRate","type":"uint256"},{"internalType":"uint256","name":"marginAmount","type":"uint256"},{"internalType":"enum LiquidationRule","name":"liquidationRule","type":"uint8"},{"internalType":"uint8","name":"consecutiveDays","type":"uint8"},{"internalType":"uint8","name":"dailyLimitPercent","type":"uint8"},{"internalType":"uint256","name":"arbitrationWindow","type":"uint256"},{"internalType":"bool","name":"dividendAdjustment","type":"bool"},{"internalType":"uint8","name":"exerciseDelay","type":"uint8"},{"internalType":"enum FeedRule","name":"feedRule","type":"uint8"}],"name":"createSellerOrder","outputs":[{"internalType":"uint256","name":"orderId","type":"uint256"}],"stateMutability":"nonpayable","type":"function"},{"inputs":[{"internalType":"uint256","name":"orderId","type":"uint256"}],"name":"earlyExercise","outputs":[],"stateMutability":"nonpayable","type":"function"},{"inputs":[{"internalType":"uint256","name":"orderId","type":"uint256"}],"name":"forceLiquidate","outputs":[],"stateMutability":"nonpayable","type":"function"},{"inputs":[{"internalType":"address","name":"buyer","type":"address"}],"name":"getBuyerOrders","outputs":[{"internalType":"uint256[]","name":"","type":"uint256[]"}],"stateMutability":"view","type":"function"},{"inputs":[{"internalType":"uint256","name":"orderId","type":"uint256"}],"name":"getOrder","outputs":[{"components":[{"internalType":"uint256","name":"orderId","type":"uint256"},{"internalType":"address","name":"buyer","type":"address"},{"internalType":"address","name":"seller","type":"address"},{"internalType":"string","name":"underlyingName","type":"string"},{"internalType":"string","name":"underlyingCode","type":"string"},{"internalType":"string","name":"market","type":"string"},{"internalType":"string","name":"country","type":"string"},{"internalType":"string","name":"refPrice","type":"string"},{"internalType":"enum Direction","name":"direction","type":"uint8"},{"internalType":"uint256","name":"notionalUSDT","type":"uint256"},{"internalType":"uint256","name":"strikePrice","type":"uint256"},{"internalType":"uint256","name":"expiryTimestamp","type":"uint256"},{"internalType":"uint256","name":"premiumRate","type":"uint256"},{"internalType":"uint256","name":"premiumAmount","type":"uint256"},{"internalType":"uint256","name":"initialMargin","type":"uint256"},{"internalType":"uint256","name":"currentMargin","type":"uint256"},{"internalType":"uint256","name":"minMarginRate","type":"uint256"},{"internalType":"enum LiquidationRule","name":"liquidationRule","type":"uint8"},{"internalType":"uint8","name":"consecutiveDays","type":"uint8"},{"internalType":"uint8","name":"dailyLimitPercent","type":"uint8"},{"internalType":"uint8","name":"exerciseDelay","type":"uint8"},{"internalType":"enum SellerType","name":"sellerType","type":"uint8"},{"internalType":"address","name":"designatedSeller","type":"address"},{"internalType":"uint256","name":"arbitrationWindow","type":"uint256"},{"internalType":"uint256","name":"marginCallDeadline","type":"uint256"},{"internalType":"bool","name":"dividendAdjustment","type":"bool"},{"internalType":"enum FeedRule","name":"feedRule","type":"uint8"},{"internalType":"enum OrderStatus","name":"status","type":"uint8"},{"internalType":"uint256","name":"createdAt","type":"uint256"},{"internalType":"uint256","name":"matchedAt","type":"uint256"},{"internalType":"uint256","name":"settledAt","type":"uint256"},{"internalType":"uint256","name":"lastFeedPrice","type":"uint256"}],"internalType":"struct Order","name":"","type":"tuple"}],"stateMutability":"view","type":"function"},{"inputs":[{"internalType":"string","name":"country","type":"string"}],"name":"getOrdersByCountry","outputs":[{"internalType":"uint256[]","name":"","type":"uint256[]"}],"stateMutability":"view","type":"function"},{"inputs":[{"internalType":"string","name":"market","type":"string"}],"name":"getOrdersByMarket","outputs":[{"internalType":"uint256[]","name":"","type":"uint256[]"}],"stateMutability":"view","type":"function"},{"inputs":[{"internalType":"uint256","name":"orderId","type":"uint256"}],"name":"getQuotes","outputs":[{"components":[{"internalType":"uint256","name":"quoteId","type":"uint256"},{"internalType":"uint256","name":"orderId","type":"uint256"},{"internalType":"address","name":"seller","type":"address"},{"internalType":"enum SellerType","name":"sellerType","type":"uint8"},{"internalType":"uint256","name":"premiumRate","type":"uint256"},{"internalType":"uint256","name":"premiumAmount","type":"uint256"},{"internalType":"uint256","name":"marginRate","type":"uint256"},{"internalType":"uint256","name":"marginAmount","type":"uint256"},{"internalType":"enum LiquidationRule","name":"liquidationRule","type":"uint8"},{"internalType":"uint8","name":"consecutiveDays","type":"uint8"},{"internalType":"uint8","name":"dailyLimitPercent","type":"uint8"},{"internalType":"uint256","name":"createdAt","type":"uint256"},{"internalType":"uint256","name":"expiresAt","type":"uint256"},{"internalType":"enum QuoteStatus","name":"status","type":"uint8"}],"internalType":"struct Quote[]","name":"","type":"tuple[]"}],"stateMutability":"view","type":"function"},{"inputs":[{"internalType":"bytes32","name":"role","type":"bytes32"}],"name":"getRoleAdmin","outputs":[{"internalType":"bytes32","name":"","type":"bytes32"}],"stateMutability":"view","type":"function"},{"inputs":[{"internalType":"address","name":"seller","type":"address"}],"name":"getSellerOrders","outputs":[{"internalType":"uint256[]","name":"","type":"uint256[]"}],"stateMutability":"view","type":"function"},{"inputs":[{"internalType":"bytes32","name":"role","type":"bytes32"},{"internalType":"address","name":"account","type":"address"}],"name":"grantRole","outputs":[],"stateMutability":"nonpayable","type":"function"},{"inputs":[{"internalType":"bytes32","name":"role","type":"bytes32"},{"internalType":"address","name":"account","type":"address"}],"name":"hasRole","outputs":[{"internalType":"bool","name":"","type":"bool"}],"stateMutability":"view","type":"function"},{"inputs":[{"internalType":"uint256","name":"orderId","type":"uint256"}],"name":"initiateArbitration","outputs":[],"stateMutability":"payable","type":"function"},{"inputs":[],"name":"nextOrderId","outputs":[{"internalType":"uint256","name":"","type":"uint256"}],"stateMutability":"view","type":"function"},{"inputs":[],"name":"nextQuoteId","outputs":[{"internalType":"uint256","name":"","type":"uint256"}],"stateMutability":"view","type":"function"},{"inputs":[{"internalType":"uint256","name":"","type":"uint256"},{"internalType":"uint256","name":"","type":"uint256"}],"name":"orderQuotes","outputs":[{"internalType":"uint256","name":"quoteId","type":"uint256"},{"internalType":"uint256","name":"orderId","type":"uint256"},{"internalType":"address","name":"seller","type":"address"},{"internalType":"enum SellerType","name":"sellerType","type":"uint8"},{"internalType":"uint256","name":"premiumRate","type":"uint256"},{"internalType":"uint256","name":"premiumAmount","type":"uint256"},{"internalType":"uint256","name":"marginRate","type":"uint256"},{"internalType":"uint256","name":"marginAmount","type":"uint256"},{"internalType":"enum LiquidationRule","name":"liquidationRule","type":"uint8"},{"internalType":"uint8","name":"consecutiveDays","type":"uint8"},{"internalType":"uint8","name":"dailyLimitPercent","type":"uint8"},{"internalType":"uint256","name":"createdAt","type":"uint256"},{"internalType":"uint256","name":"expiresAt","type":"uint256"},{"internalType":"enum QuoteStatus","name":"status","type":"uint8"}],"stateMutability":"view","type":"function"},{"inputs":[{"internalType":"uint256","name":"","type":"uint256"}],"name":"orders","outputs":[{"internalType":"uint256","name":"orderId","type":"uint256"},{"internalType":"address","name":"buyer","type":"address"},{"internalType":"address","name":"seller","type":"address"},{"internalType":"string","name":"underlyingName","type":"string"},{"internalType":"string","name":"underlyingCode","type":"string"},{"internalType":"string","name":"market","type":"string"},{"internalType":"string","name":"country","type":"string"},{"internalType":"string","name":"refPrice","type":"string"},{"internalType":"enum Direction","name":"direction","type":"uint8"},{"internalType":"uint256","name":"notionalUSDT","type":"uint256"},{"internalType":"uint256","name":"strikePrice","type":"uint256"},{"internalType":"uint256","name":"expiryTimestamp","type":"uint256"},{"internalType":"uint256","name":"premiumRate","type":"uint256"},{"internalType":"uint256","name":"premiumAmount","type":"uint256"},{"internalType":"uint256","name":"initialMargin","type":"uint256"},{"internalType":"uint256","name":"currentMargin","type":"uint256"},{"internalType":"uint256","name":"minMarginRate","type":"uint256"},{"internalType":"enum LiquidationRule","name":"liquidationRule","type":"uint8"},{"internalType":"uint8","name":"consecutiveDays","type":"uint8"},{"internalType":"uint8","name":"dailyLimitPercent","type":"uint8"},{"internalType":"uint8","name":"exerciseDelay","type":"uint8"},{"internalType":"enum SellerType","name":"sellerType","type":"uint8"},{"internalType":"address","name":"designatedSeller","type":"address"},{"internalType":"uint256","name":"arbitrationWindow","type":"uint256"},{"internalType":"uint256","name":"marginCallDeadline","type":"uint256"},{"internalType":"bool","name":"dividendAdjustment","type":"bool"},{"internalType":"enum FeedRule","name":"feedRule","type":"uint8"},{"internalType":"enum OrderStatus","name":"status","type":"uint8"},{"internalType":"uint256","name":"createdAt","type":"uint256"},{"internalType":"uint256","name":"matchedAt","type":"uint256"},{"internalType":"uint256","name":"settledAt","type":"uint256"},{"internalType":"uint256","name":"lastFeedPrice","type":"uint256"}],"stateMutability":"view","type":"function"},{"inputs":[],"name":"pause","outputs":[],"stateMutability":"nonpayable","type":"function"},{"inputs":[],"name":"paused","outputs":[{"internalType":"bool","name":"","type":"bool"}],"stateMutability":"view","type":"function"},{"inputs":[{"internalType":"uint256","name":"","type":"uint256"}],"name":"quotes","outputs":[{"internalType":"uint256","name":"quoteId","type":"uint256"},{"internalType":"uint256","name":"orderId","type":"uint256"},{"internalType":"address","name":"seller","type":"address"},{"internalType":"enum SellerType","name":"sellerType","type":"uint8"},{"internalType":"uint256","name":"premiumRate","type":"uint256"},{"internalType":"uint256","name":"premiumAmount","type":"uint256"},{"internalType":"uint256","name":"marginRate","type":"uint256"},{"internalType":"uint256","name":"marginAmount","type":"uint256"},{"internalType":"enum LiquidationRule","name":"liquidationRule","type":"uint8"},{"internalType":"uint8","name":"consecutiveDays","type":"uint8"},{"internalType":"uint8","name":"dailyLimitPercent","type":"uint8"},{"internalType":"uint256","name":"createdAt","type":"uint256"},{"internalType":"uint256","name":"expiresAt","type":"uint256"},{"internalType":"enum QuoteStatus","name":"status","type":"uint8"}],"stateMutability":"view","type":"function"},{"inputs":[{"internalType":"bytes32","name":"role","type":"bytes32"},{"internalType":"address","name":"callerConfirmation","type":"address"}],"name":"renounceRole","outputs":[],"stateMutability":"nonpayable","type":"function"},{"inputs":[{"internalType":"uint256","name":"orderId","type":"uint256"},{"internalType":"enum FeedTier","name":"tier","type":"uint8"}],"name":"requestFeed","outputs":[],"stateMutability":"payable","type":"function"},{"inputs":[{"internalType":"bytes32","name":"role","type":"bytes32"},{"internalType":"address","name":"account","type":"address"}],"name":"revokeRole","outputs":[],"stateMutability":"nonpayable","type":"function"},{"inputs":[{"internalType":"address","name":"","type":"address"},{"internalType":"uint256","name":"","type":"uint256"}],"name":"sellerOrders","outputs":[{"internalType":"uint256","name":"","type":"uint256"}],"stateMutability":"view","type":"function"},{"inputs":[{"internalType":"address","name":"_config","type":"address"}],"name":"setConfig","outputs":[],"stateMutability":"nonpayable","type":"function"},{"inputs":[{"internalType":"address","name":"_vaultManager","type":"address"}],"name":"setVaultManager","outputs":[],"stateMutability":"nonpayable","type":"function"},{"inputs":[{"internalType":"uint256","name":"orderId","type":"uint256"}],"name":"settle","outputs":[],"stateMutability":"nonpayable","type":"function"},{"inputs":[{"internalType":"uint256","name":"orderId","type":"uint256"},{"internalType":"uint256","name":"premiumRate","type":"uint256"},{"internalType":"uint256","name":"marginRate","type":"uint256"},{"internalType":"enum LiquidationRule","name":"liquidationRule","type":"uint8"},{"internalType":"uint8","name":"consecutiveDays","type":"uint8"},{"internalType":"uint8","name":"dailyLimitPercent","type":"uint8"}],"name":"submitQuote","outputs":[{"internalType":"uint256","name":"quoteId","type":"uint256"}],"stateMutability":"nonpayable","type":"function"},{"inputs":[{"internalType":"bytes4","name":"interfaceId","type":"bytes4"}],"name":"supportsInterface","outputs":[{"internalType":"bool","name":"","type":"bool"}],"stateMutability":"view","type":"function"},{"inputs":[],"name":"unpause","outputs":[],"stateMutability":"nonpayable","type":"function"},{"inputs":[],"name":"usdt","outputs":[{"internalType":"contract IERC20","name":"","type":"address"}],"stateMutability":"view","type":"function"},{"inputs":[],"name":"vaultManager","outputs":[{"internalType":"contract VaultManager","name":"","type":"address"}],"stateMutability":"view","type":"function"},{"inputs":[{"internalType":"uint256","name":"orderId","type":"uint256"},{"internalType":"uint256","name":"amount","type":"uint256"}],"name":"withdrawExcessMargin","outputs":[],"stateMutability":"nonpayable","type":"function"}],"evm":{"bytecode":{"linkReferences":{},"object":"608034620000f557601f62004f5538819003918201601f19168301916001600160401b03831184841017620000fa57808492608094604052833981010312620000f5578062000052620000e49262000110565b90620000616020820162000110565b906200007e6060620000766040840162000110565b920162000110565b6001808055600581905560065560028054610100600160a81b03191660089590951b610100600160a81b031694909417909355600380546001600160a01b03199081166001600160a01b0394851617909155600480549091169190921617905562000125565b50604051614d9e9081620001b78239f35b600080fd5b634e487b7160e01b600052604160045260246000fd5b51906001600160a01b0382168203620000f557565b6001600160a01b031660008181527fad3228b676f7d3cd4284a5443f17f1962b36e491b30a40b2405849e597ba5fb5602052604081205490919060ff16620001b257818052816020526040822081835260205260408220600160ff1982541617905533917f2f8788117e7eff1d82e926ec794901d17c78024a50270940304540a733656f0d8180a4600190565b509056fe610240604052600436101561001357600080fd5b6000803560e01c806301d0d5b8146139f557806301ffc9a71461399e57806320e3dbd414613954578063248a9ca3146139285780632a58b3301461390a5780632f2ff15d146138cd5780632f48ab7d146138a457806336568abe1461385c5780633f4ba83a146137f15780634500cb60146137a957806345cb45051461375357806346f8226c146135785780634efef6aa1461355a5780635c975abb146135375780635d7ffe7b146130565780636af58cff14612dc85780636ca1438914612c9c5780636dbe757914612bd45780637203a5821461260657806379502c55146125d95780637d9004211461254c5780638456cb59146124f15780638a4adf24146124c85780638df8280014611fb457806391d1485414611f69578063979b4e6d14611542578063a217fddf14611526578063a45f2ebc146114b3578063a61cf0d414611420578063a85c38ef146110cb578063b543503e14611086578063bc0ef26b14610ec2578063cf3fec4314610e35578063d049bfef14610bd0578063d09ef241146106b3578063d1e745b1146104c4578063d41194b814610346578063d547741f14610305578063e4cbac40146102825763f7ff6426146101d657600080fd5b3461027f576101e436614668565b908252600860205260408220805482101561027b57610203925061467e565b50805490610277600182015460028301549260038101549460048201549260058301549160068401549060078501549160088601549460ff600a600989015498015416976040519b8c9b8c60ff8860101c169860ff808a60081c1699169760ff8460a01c169360018060a01b031692614427565b0390f35b8280fd5b80fd5b503461027f57602080600319360112610301576001600160a01b036102a561437b565b168252600b815260408220916040518092808554928381520194835280832092905b8282106102ea57610277856102de8189038261454c565b604051918291826143d5565b8354865294850194600193840193909101906102c7565b5080fd5b503461027f57604036600319011261027f57610342600435610325614391565b908084528360205261033d60016040862001546146f2565b614796565b5080f35b503461027f5761035536614668565b90801515806104b9575b61036890614b38565b808352600760205260408320600201546001600160a01b03929061038f9084163314614c92565b610397614a90565b61039f614a72565b80156104685781845260076020526040842060ff601482015460101c16600b811015610454576103f9916103d76004600f9314614cde565b01916103f281845496806004541690600354169033906149cb565b8254614b2b565b809155604051928352602083015260806040830152600360808301526218591960ea1b60a08301524260608301527f2cf5022bdd8fefe86d09412967e028fa9a8cf1e1a3989d47dfd9fc64a22afa8660c03393a36001805580f35b634e487b7160e01b86526021600452602486fd5b60405162461bcd60e51b8152602060048201526024808201527f4f7074696f6e73436f72653a20616d6f756e74206d75737420626520706f73696044820152637469766560e01b6064820152608490fd5b50600554811061035f565b503461027f576104d336614668565b90801515806106a8575b6104e690614b38565b808352600760205260408320600201546001600160a01b039061050c9082163314614c92565b610514614a90565b61051c614a72565b8184526007602052604084209260ff601485015460101c16600b8110156104545760046105499114614cde565b600f84019161055e600e845496015486614d2a565b82116106495781610570879387614d2a565b84558160035416916004541690823b1561063a57604051636924faa760e11b81523360048201526001600160a01b0392909216602483015260448201529082908290606490829084905af1801561063e57610626575b5050546040519283526020830152608060408301526008608083015267776974686472617760c01b60a08301524260608301527f2cf5022bdd8fefe86d09412967e028fa9a8cf1e1a3989d47dfd9fc64a22afa8660c03393a36001805580f35b61062f9061451d565b61063a5783386105c6565b8380fd5b6040513d84823e3d90fd5b60405162461bcd60e51b815260206004820152603160248201527f4f7074696f6e73436f72653a2063616e6e6f742077697468647261772062656c60448201527037bb9034b734ba34b0b61036b0b933b4b760791b6064820152608490fd5b5060055481106104dd565b503461027f57602036600319011261027f57806103e06040516106d581614530565b82815282602082015282604082015260608082015260606080820152606060a0820152606060c0820152606060e08201528261010082015282610120820152826101408201528261016082015282610180820152826101a0820152826101c0820152826101e08201528261020082015282610220820152826102408201528261026082015282610280820152826102a0820152826102c0820152826102e08201528261030082015282610320820152826103408201528261036082015282610380820152826103a0820152826103c082015201526004358152600760205260408120604051916107c483614530565b8154835260018201546001600160a01b03908116602085015260028301541660408401526107f46003830161456d565b60608401526108056004830161456d565b60808401526108166005830161456d565b60a08401526108276006830161456d565b60c08401526108386007830161456d565b60e084015260ff60088301541661084e81614651565b6101008401526009820154610120840152600a820154610140840152600b820154610160840152600c820154610180840152600d8201546101a0840152600e8201546101c0840152600f8201546101e0840152601082015461020084015260118201546108bd60ff8216614410565b60ff811661022085015260ff8160081c1661024085015260ff8160101c1661026085015260ff8160181c166102808501526108fd60ff8260201c16614410565b60ff8160201c166102a085015260018060a01b039060281c166102c084015260128201546102e0840152601382015461030084015260148201549060ff8216151561032085015261095360ff8360081c16614651565b60ff8260081c16610340850152600b60ff8360101c161015610bbc57509060ff60189260101c16610360840152601581015461038084015260168101546103a084015260178101546103c084015201546103e08201526040518091602082528051602083015260018060a01b03602082015116604083015260018060a01b0360408201511660608301526103e0610a5e6109fe60608401516104006080870152610420860190614611565b610a48610a34610a20608087015193601f1994858a83030160a08b0152614611565b60a0870151848983030160c08a0152614611565b60c0860151838883030160e0890152614611565b9060e08501519086830301610100870152614611565b91610100810151610a6e81614651565b6101208501526101208101516101408501526101408101516101608501526101608101516101808501526101808101516101a08501526101a08101516101c08501526101c08101516101e08501526101e0810151610200850152610200810151610220850152610220810151610ae381614410565b61024085015260ff6102408201511661026085015260ff6102608201511661028085015260ff610280820151166102a08501526102a0810151610b2581614410565b6102c085015260018060a01b036102c0820151166102e08501526102e08101516103008501526103008101516103208501526103208101511515610340850152610340810151610b7481614651565b610360850152610b8e61036082015161038086019061465b565b6103808101516103a08501526103a08101516103c08501526103c08101518285015201516104008301520390f35b634e487b7160e01b81526021600452602490fd5b503461027f576020908160031936011261027f576004358152600880835260408220928354916001600160401b038311610e215791849192604051916005610c1c8683831b018561454c565b818452858401809588528688209188915b848310610d29575050505050506040519280840191818552518092526040840192945b828110610c5d5784840385f35b909192826101c0600192610d1a8951805183528481015185840152858060a01b03604082015116604084015260608082015190610c9982614410565b8401526080808201519084015260a0808201519084015260c0808201519084015260e081015160e08401526101008082015190610cd582614410565b84015260ff6101208181840151169085015261014090818301511690840152610160808201519084015261018080820151908401526101a0809101519083019061441a565b01960191019492919094610c50565b6040999896979951610d3a816144eb565b8454815260018501548882015260028501546001600160a01b038116604083015260ff9060a090811c8216610d6e81614410565b6060840152600387015460808401526004870154908301528386015460c0830152600686015460e0830152806007870154818116610dab81614410565b61010085015281818b1c1661012085015260101c16610140830152878601546101608301526009860154610180830152600a860154166004811015610e0b57600192828a926101a0600b9501528152019401920191929896959798610c2d565b634e487b7160e01b600052602160045260246000fd5b634e487b7160e01b84526041600452602484fd5b503461027f57602080600319360112610301576004356001600160401b03811161027b57610e688291369060040161433e565b91908260405193849283378101600c815203019020916040518092808554928381520194835280832092905b828210610eab57610277856102de8189038261454c565b835486529485019460019384019390910190610e94565b503461027f5760208060031936011261030157600435908115158061107b575b610eeb90614b38565b81835260078152610f0c60018060a01b036001604086200154163314614ab3565b610f14614a90565b610f1c614a72565b81835260078152601460408420019081549160ff8360101c1692600b8410156104545783158015611071575b1561101d5791600a91620a0000600080516020614d49833981519152959462ff00001916179055847fb848a62ef7171019d243ed8f5b8e1e6c32cafed0b7fc99da26cb2fc2e7d533ec6040516040815280610fc360408201604090600f81526e189d5e595c8818d85b98d95b1b1959608a1b60208201520190565b42868301520390a2610fd8604051809461465b565b820152608060408201528061100d60808201604090600f81526e189d5e595c8818d85b98d95b1b1959608a1b60208201520190565b4260608301520390a26001805580f35b60405162461bcd60e51b815260048101849052602660248201527f4f7074696f6e73436f72653a2063616e6e6f742063616e63656c206166746572604482015265040dac2e8c6d60d31b6064820152608490fd5b5060018414610f48565b506005548210610ee2565b503461027f57602036600319011261027f576110a061437b565b6110a861469a565b60018060a01b03166bffffffffffffffffffffffff60a01b600354161760035580f35b503461027f57602036600319011261027f576004358152600760205260409020610160819052805461022052600181015460028201546001600160a01b0390811661014052169061111e9060030161456d565b61012052610160516004016111329061456d565b610160516005016111429061456d565b91610160516006016111539061456d565b91610160516007016111649061456d565b936101605193600885015460ff1660c052600985015495600a860154600b87015491600c88015493600d89015495600e8a015497600f8b01549960108c01549b601181015461010052601281015460a05260138101546101805260148101546102005260158101546101c0526016810154608052601781015460e052601801546101a052604051806101e0526102205190526101e05160200152610140516101e05160400152610400806101e051606001526101e05101610120519061122991614611565b6101e051808203906080015261123e91614611565b6101e0518082039060a0015261125391614611565b6101e0518082039060c0015261126891614611565b6101e0518082039060e0015261127d91614611565b9760c05161128a90614651565b60c0516101e05161010001526101e05161012001526101e05161014001526101e05161016001526101e05161018001526101e0516101a001526101e0516101c001526101e0516101e001526101e05161020001526101005160ff166112ee90614410565b6101005160ff166101e05161022001526101005160081c60ff166101e05161024001526101005160101c60ff166101e05161026001526101005160181c60ff166101e05161028001526101005160201c60ff1661134a90614410565b6101005160201c60ff166101e0516102a00152600160a01b600190036101005160281c166101e0516102c0015260a0516101e0516102e00152610180516101e05161030001526102005160ff1615156101e05161032001526102005160081c60ff166113b590614651565b6102005160081c60ff166101e05161034001526101e051610360016102005160101c60ff16906113e49161465b565b6101c0516101e05161038001526080516101e0516103a0015260e0516101e0516103c001526101a0516101e0516103e001526101e05180910390f35b503461027f57602036600319011261027f576040906004358152600960205220805490610277600182015460028301549260038101549460048201549260058301549160068401549060078501549160088601549460ff600a600989015498015416976040519b8c9b8c60ff8860101c169860ff808a60081c1699169760ff8460a01c169360018060a01b031692614427565b503461027f57602080600319360112610301576001600160a01b036114d661437b565b168252600a815260408220916040518092808554928381520194835280832092905b82821061150f57610277856102de8189038261454c565b8354865294850194600193840193909101906114f8565b503461027f578060031936011261027f57602090604051908152f35b503461027f5761026036600319011261027f576004356001600160401b0381116103015761157490369060040161433e565b6024356001600160401b03811161063a5761159390369060040161433e565b906044356001600160401b038111611f65576115b390369060040161433e565b906064356001600160401b038111611f61576115d390369060040161433e565b906084356001600160401b038111611f5d576115f390369060040161433e565b999098600260a435101561030157600361014435101561030157610164356001600160a01b0381169003611f045761162961436b565b60036101e435101561027b5760ff61020435166102043503611f045760ff61022435166102243503611f0457600261024435101561027b57611669614a90565b611671614a72565b61167e60c435151561480b565b61168b4260e43511614866565b600254604051635d8eb68760e01b81529060081c6001600160a01b0316602082600481845afa918215611f52578592611f1c575b506116d16004926101243510156148c0565b81546003546040516337382d3960e21b8152936001600160a01b03928316939290911691602091859182905afa918215611f11578692611ed6575b611718935033906149cb565b600554996117258b61490b565b6005558a84526007602052604084208b81556001810180546001600160a01b03191633179055926001600160401b038211611ec257819061176960038601546144b1565b601f8111611e71575b508590601f8311600114611e05578692611dfa575b50508160011b916000199060031b1c19161760038301555b6001600160401b038911611bb6576117ba60048301546144b1565b601f8111611db5575b508883601f8211600114611d49578491611d3e575b508960011b906000198b60031b1c19161760048301555b6001600160401b038711611bb65761180a60058301546144b1565b601f8111611cf9575b508683601f8211600114611c8f578491611c84575b508760011b906000198960031b1c19161760058301555b6001600160401b038511611bb65761185a60068301546144b1565b601f8111611c3f575b508483601f8211600114611bd5578491611bca575b508560011b906000198760031b1c19161760068301555b6001600160401b038c11611bb6576118aa60078301546144b1565b9b601f8d11611b6d575b60209c50839b601f8211600114611ada579a611a34968e829e97611a04611a4c9f859f9e9c978a859f9b9a6040928a8a9f9b611a1c9c8a9f978d9892611acf575b50508160011b916000199060031b1c19161760078301555b61191c60a43560088401614930565b60c435600983015560e435600b83015561010435600c8301556101243560108301556119da601183016119526101443582614948565b805465010000000000600160c81b0319166101643560281b65010000000000600160c81b03161781556101843560128501556101a435601385015560148401805493151560ff1660ff19949094169390931783556119b36101e4358261496d565b805462ff00006102243560101b1662ffff001990911661ff006102043560081b1617179055565b6119e76102443582614977565b62ff0000198154169055601542910155338152600a865220614996565b8260405193849283378101600c815203019020614996565b8260405193849283378101600d815203019020614996565b8260405193849283378101600e815203019020614996565b604051600181524283820152817fc0c6ed2669febbe340d8737e8ec17254ffd9e038b54a4585ff70ac3ca18956aa60403393a380600080516020614d4983398151915260c06040516000815260008682015260806040820152600760808201526618dc99585d195960ca1b60a0820152426060820152a260018055604051908152f35b0135905038806118f5565b6007840185528d852090859d8e5b601f19851611611b55578f9a968e9f5097611a04611a4c9f9e9d9b968f9a6040908f9a8d9893611a349f988b8b968f9a92600193611a1c9f601f19811610611b3b575b505050811b01600783015561190d565b0135600019600384901b60f8161c19169055388080611b2b565b918f600181928585013581550193019e019d8e611ae8565b60078301845260208420601f820160051c810160208310611baf575b601f8f5b0160051c82018110611ba05750506118b4565b60008155600101601f8f611b8d565b5080611b89565b634e487b7160e01b83526041600452602483fd5b905084013538611878565b600684018552602085209150845b601f1988168110611c27575086601f19811610611c0d575b5050600185811b01600683015561188f565b850135600019600388901b60f8161c191690553880611bfb565b9091602060018192858a013581550193019101611be3565b60068301845260208420601f870160051c810160208810611c7d575b601f830160051c82018110611c71575050611863565b60008155600101611c5b565b5080611c5b565b905086013538611828565b600584018552602085209150845b601f198a168110611ce1575088601f19811610611cc7575b5050600187811b01600583015561183f565b87013560001960038a901b60f8161c191690553880611cb5565b9091602060018192858c013581550193019101611c9d565b60058301845260208420601f890160051c810160208a10611d37575b601f830160051c82018110611d2b575050611813565b60008155600101611d15565b5080611d15565b9050880135386117d8565b600484018552602085209150845b8a601f198d168210611d9d5750508a601f19811610611d83575b5050600189811b0160048301556117ef565b89013560001960038c901b60f8161c191690553880611d71565b60018394602093948493013581550193019101611d57565b60048301845260208420601f8b0160051c810160208c10611df3575b601f830160051c82018110611de75750506117c3565b60008155600101611dd1565b5080611dd1565b013590503880611787565b60038601875260208720879450915b601f1984168510611e59576001945083601f19811610611e3f575b505050811b01600383015561179f565b0135600019600384901b60f8161c19169055388080611e2f565b81810135835560209485019460019093019201611e14565b90915060038501865260208620601f840160051c810160208510611ebb575b90849392915b601f830160051c82018110611eac575050611772565b60008155859450600101611e96565b5080611e90565b634e487b7160e01b85526041600452602485fd5b91506020833d602011611f09575b81611ef16020938361454c565b81010312611f045761171892519161170c565b600080fd5b3d9150611ee4565b6040513d88823e3d90fd5b91506020823d602011611f4a575b81611f376020938361454c565b81010312611f04579051906116d16116bf565b3d9150611f2a565b6040513d87823e3d90fd5b8980fd5b8780fd5b8580fd5b503461027f57604036600319011261027f576040611f85614391565b91600435815280602052209060018060a01b0316600052602052602060ff604060002054166040519015158152f35b503461027f57602036600319011261027f576004351515806124bb575b611fda90614b38565b611fe2614a90565b611fea614a72565b6004358152600760205260408120601481019060ff825460101c16600b8110156124a7576006036124565760188101549182156124115761202d6007830161456d565b93809481938293835b835181101561213f576001600160f81b0319601760f91b816120588488614d37565b51161461213157600360fc1b8161206f8488614d37565b511610159081612116575b5061208e575b6120899061490b565b612036565b88600a81999897990204600a148915171561210257602f196120b08286614d37565b5160f81c0160ff81116120ee578899600a60ff6120d3939b999a9b169102614b2b565b981561208057956120e66120899161490b565b969050612080565b634e487b7160e01b86526011600452602486fd5b634e487b7160e01b85526011600452602485fd5b603960f81b91506121278387614d37565b511611153861207a565b50945061208960019561490b565b8483838a8c8b601281106123ea575b50849160ff60088601541661216281614651565b6123c257818111612399575b50505b83811561238c5750600f83015490818111612385575b806121929192614d2a565b925b816122de575b83612250575b9060ff9383926122089454936208000062ff000019861617905560174291015560405191825260208201524260408201527f6da40291eeb646b436d05c420b5b9f010d81df95bce846d2c3b3d45f56df19ec606060043592a260405192839160101c1661465b565b600860208201526080604082015260076080820152661cd95d1d1b195960ca1b60a0820152426060820152600080516020614d4983398151915260c060043592a26001805580f35b600354600282015460045487926001600160a01b03908116929181169116823b1561063a57604051636924faa760e11b81526001600160a01b03918216600482015291166024820152604481018790529082908290606490829084905af1801561063e576122c0575b50506121a0565b6122cd909493929461451d565b6122da57909184866122b9565b8480fd5b600354600282015460018301546004546001600160a01b03908116938993928216929082169116813b1561063a578360e49260405196879586946305fe3a8b60e31b865260048601526024850152604484015288606484015260a06084840152601160a4840152701cd95d1d1b195b595b9d081c185e5bdd5d607a1b60c48401525af18015611f1157612372575b5061219a565b61237e9095919561451d565b938561236c565b5080612187565b9050600f83015492612194565b6123bb92506123ab826123b692614d2a565b600986015490614af8565b614b0b565b848061216e565b8082116123d1575b5050612171565b6123e392506123ab6123b69183614d2a565b84806123ca565b601203601281116120ee57604d81116120ee579061240b91600a0a90614af8565b8561214e565b60405162461bcd60e51b815260206004820152601a60248201527f4f7074696f6e73436f72653a206e6f20666565642070726963650000000000006044820152606490fd5b60405162461bcd60e51b815260206004820152602360248201527f4f7074696f6e73436f72653a206e6f742070656e64696e6720736574746c656d604482015262195b9d60ea1b6064820152608490fd5b634e487b7160e01b84526021600452602484fd5b5060055460043510611fd1565b503461027f578060031936011261027f576003546040516001600160a01b039091168152602090f35b503461027f578060031936011261027f5761250a61469a565b612512614a72565b600160ff1960025416176002557f62e78cea01bee320cd4e420270b5ea74000d11b0c9f74754ebdbfc544b05a2586020604051338152a180f35b503461027f57602080600319360112610301576004356001600160401b03811161027b5761257f8291369060040161433e565b91908260405193849283378101600d815203019020916040518092808554928381520194835280832092905b8282106125c257610277856102de8189038261454c565b8354865294850194600193840193909101906125ab565b503461027f578060031936011261027f5760025460405160089190911c6001600160a01b03168152602090f35b503461027f5760c036600319011261027f576003606435101561027f5760843560ff811681036103015760a43560ff8116810361027b57600435151580612bc7575b61265190614b38565b612659614a90565b612661614a72565b60043583526007602052604083209060ff601483015460101c16600b81101561293d578015908115612bbc575b5015612b675760018201546001600160a01b031615612b22576015820154600254604051634f6bfad760e01b815260089190911c6001600160a01b031691602082600481865afa908115612b17578791612add575b6126ed9250614b2b565b421015612a9857600490813586526008602052602060408720549160405193848092630be0cbcd60e21b82525afa918215611f11578692612a64575b501015612a1f576011820154600260ff8260201c1661274781614410565b146129b7575b506127106127616044356009850154614af8565b04612774601084015460443510156148c0565b6004546003546127949183916001600160a01b03908116913391166149cb565b600654936127a18561490b565b6006556127106127b76024356009870154614af8565b04926004602060018060a01b0360025460081c16604051928380926306a15d6d60e11b82525afa9081156129ac578891612979575b5060ff926127fb849242614b2b565b9460405196612809886144eb565b89885260043560208901523360408901528a6060890152602435608089015260a088015260443560c088015260e0870152612845606435614410565b606435610100870152166101208501521661014083015242610160830152610180820152836101a082015282845260096020526128858160408620614b84565b6004358452600860205260408420805490600160401b82101561296557906128b29160018201815561467e565b61295157906128c091614b84565b601481015460ff8160101c16600b81101561293d576020945015612925575b5050604051602435815242838201528133917f878fe3f9bca373e42473c1f3ad3c9c35c4f1ecaf9a5f081a801a3fbd43049f55604060043592a460018055604051908152f35b6201000060149162ff000019161791015538806128df565b634e487b7160e01b85526021600452602485fd5b634e487b7160e01b85526004859052602485fd5b634e487b7160e01b86526041600452602486fd5b90506020813d6020116129a4575b816129946020938361454c565b81010312611f61575160ff6127ec565b3d9150612987565b6040513d8a823e3d90fd5b60281c6001600160a01b031633036129cf573861274d565b60405162461bcd60e51b815260206004820152602260248201527f4f7074696f6e73436f72653a206e6f742064657369676e617465642073656c6c60448201526132b960f11b6064820152608490fd5b60405162461bcd60e51b815260206004820152601f60248201527f4f7074696f6e73436f72653a206d61782071756f7465732072656163686564006044820152606490fd5b9091506020813d602011612a90575b81612a806020938361454c565b81010312611f6557519038612729565b3d9150612a73565b60405162461bcd60e51b815260206004820152601860248201527f4f7074696f6e73436f72653a20524651206578706972656400000000000000006044820152606490fd5b90506020823d602011612b0f575b81612af86020938361454c565b81010312612b0b576126ed9151906126e3565b8680fd5b3d9150612aeb565b6040513d89823e3d90fd5b60405162461bcd60e51b815260206004820152601e60248201527f4f7074696f6e73436f72653a206e6f742061206275796572206f7264657200006044820152606490fd5b60405162461bcd60e51b815260206004820152602760248201527f4f7074696f6e73436f72653a206f72646572206e6f7420616363657074696e676044820152662071756f74657360c81b6064820152608490fd5b60019150143861268e565b5060055460043510612648565b50604036600319011261027f5760043560036024351015610301579081612c2592151580612c91575b612c0690614b38565b8152600760205260409020600101546001600160a01b03163314614ab3565b612c2d614a90565b612c35614a72565b60405162461bcd60e51b815260206004820152602e60248201527f4f7074696f6e73436f72653a20666565642070726f746f636f6c206e6f74206960448201526d1b5c1b195b595b9d1959081e595d60921b6064820152608490fd5b506005548110612bfd565b503461027f57602036600319011261027f5760043580151580612dbd575b612cc390614b38565b612ccb614a90565b612cd3614a72565b808252600760205260408220601481019081549160ff8360101c1692600b841015610454577fb009a900f426c0c9177acb33a8a806b35c53ac253d1ddf22d687986fc6b72ce4606060c0948694620900008995612d416004600080516020614d498339815191529b14614cde565b62ff00001916179055426017820155600f60018060a01b036001830154169101546040519182526020820152426040820152a2612d81604051809261465b565b6009602082015260806040820152601060808201526f199bdc98d9481b1a5c5d5a59185d195960821b60a0820152426060820152a26001805580f35b506005548110612cba565b5060208060031936011261030157600435908115158061304b575b612dec90614b38565b612df4614a90565b612dfc614a72565b8183526007815260408320601481019060ff825460101c16600b81101561045457600603612ff55760018101546001600160a01b039190821633148015612fe6575b15612fa1578060126017612e5793015491015490614b2b565b4211612f4d57806004918254168482600354169260025460081c166040519485809263039f4f7560e31b82525afa928315612b17578793612f18575b5093612edb60c094612ebb60ff95600795600080516020614d498339815191529933906149cb565b805462ff0000198116620700001790915560405194859160101c1661465b565b820152608060408201526015608082015274185c989a5d1c985d1a5bdb881a5b9a5d1a585d1959605a1b60a0820152426060820152a26001805580f35b925090938083813d8311612f46575b612f31818361454c565b81010312612b0b579151919390612edb612e93565b503d612f27565b60405162461bcd60e51b815260048101849052602660248201527f4f7074696f6e73436f72653a206172626974726174696f6e2077696e646f772060448201526518db1bdcd95960d21b6064820152608490fd5b60405162461bcd60e51b815260048101859052601f60248201527f4f7074696f6e73436f72653a206e6f7420706172747920746f206f72646572006044820152606490fd5b50816002820154163314612e3e565b60405162461bcd60e51b815260048101849052602860248201527f4f7074696f6e73436f72653a2063616e6e6f7420696e6974696174652061726260448201526734ba3930ba34b7b760c11b6064820152608490fd5b506005548210612de3565b503461027f57602036600319011261027f57613070614a90565b613078614a72565b6004358152600960205260408120600a8101549160ff83166004811015613523576134de57600982015442116134995760018201548152600760205260408120926130d060018060a01b036001860154163314614ab3565b60ff601485015460101c16600b81101561348557801590811561347a575b5015613435576003830154600c850154106133e25760ff1916600117600a8301556002808301805491850180546001600160a01b0319166001600160a01b039390931692909217909155546131bf9060118501906131529060a01c60ff1682614948565b6003840154600c8601556004840154600d860155600684015480600e870155600f86015560ff60078501613189828254168461496d565b8054835461ff001916600891821c841690911b61ff00161783555460101c1662ff000082549160101b169062ff00001916179055565b60148301805462ff000019811662020000179091554260168501556009840154600254604051631c03be3560e31b8152929492906020908290600490829060081c6001600160a01b03165afa9081156133d75784916133a3575b5061271061322d6132389261325294614af8565b046004840154614b2b565b6004546003546001600160a01b03908116913391166149cb565b600201546001600160a01b03168152600b60205260408120835461327591614996565b8254815260086020526040812092815b84548110156132f857613298818661467e565b50546004351415806132d6575b906132b3916132b85761490b565b613285565b600a6132c4828861467e565b5001805460ff1916600217905561490b565b5060ff600a6132e5838861467e565b5001541660048110156124a757156132a5565b50600080516020614d4983398151915260c060ff6133698685549560018060a01b0360018201541690600260018060a01b039101541690877f3d7463b72b52fafc8e3f27dc0dbb9d1a94c0a4024834252b5cce68509acb49bc6020604051428152a460405192839160101c1661465b565b6002602082015260806040820152600e60808201526d1c5d5bdd19481858d8d95c1d195960921b60a0820152426060820152a26001805580f35b90506020813d6020116133cf575b816133be6020938361454c565b8101031261063a5751612710613219565b3d91506133b1565b6040513d86823e3d90fd5b60405162461bcd60e51b815260206004820152602560248201527f4f7074696f6e73436f72653a207072656d69756d2072617465206578636565646044820152640e640dac2f60db1b6064820152608490fd5b60405162461bcd60e51b815260206004820152601b60248201527f4f7074696f6e73436f72653a20696e76616c69642073746174757300000000006044820152606490fd5b6001915014386130ee565b634e487b7160e01b83526021600452602483fd5b60405162461bcd60e51b815260206004820152601a60248201527f4f7074696f6e73436f72653a2071756f746520657870697265640000000000006044820152606490fd5b60405162461bcd60e51b815260206004820152601d60248201527f4f7074696f6e73436f72653a2071756f7465206e6f74206163746976650000006044820152606490fd5b634e487b7160e01b82526021600452602482fd5b503461027f578060031936011261027f57602060ff600254166040519015158152f35b503461027f578060031936011261027f576020600654604051908152f35b503461027f57602080600319360112610301576004359081151580613748575b6135a190614b38565b818352600781526135c260018060a01b036001604086200154163314614ab3565b8183526007815260ff601460408520015460101c16600b8110156124a7576004036136fa576135ef614a90565b6135f7614a72565b818352600781526040832060ff601182015460181c16620151809081810291818304149015171561210257613630906016830154614b2b565b42106136a95760ff6005600080516020614d4983398151915293613673601460c095018054906205000062ff000019831617905560405194859160101c1661465b565b82015260806040820152600e60808201526d6561726c7920657865726369736560901b60a0820152426060820152a26001805580f35b60405162461bcd60e51b815260048101839052602360248201527f4f7074696f6e73436f72653a2065786572636973652064656c6179206e6f74206044820152621b595d60ea1b6064820152608490fd5b6084906040519062461bcd60e51b82526004820152602160248201527f4f7074696f6e73436f72653a20696e76616c6964206f726465722073746174756044820152607360f81b6064820152fd5b506005548210613598565b503461027f57604036600319011261027f5761376d61437b565b6001600160a01b03168152600b602052604081208054602435929083101561027f57602061379b84846143a7565b90546040519160031b1c8152f35b503461027f57604036600319011261027f576137c361437b565b6001600160a01b03168152600a602052604081208054602435929083101561027f57602061379b84846143a7565b503461027f578060031936011261027f5761380a61469a565b60025460ff81161561384a5760ff19166002557f5db9ee0a495bf2e6ff9c91a7834c1ba4fdd244a5e8aa4e537bd38aeae4b073aa6020604051338152a180f35b604051638dfc202b60e01b8152600490fd5b503461027f57604036600319011261027f57613876614391565b336001600160a01b038216036138925761034290600435614796565b60405163334bd91960e11b8152600490fd5b503461027f578060031936011261027f576004546040516001600160a01b039091168152602090f35b503461027f57604036600319011261027f576103426004356138ed614391565b908084528360205261390560016040862001546146f2565b614718565b503461027f578060031936011261027f576020600554604051908152f35b503461027f57602036600319011261027f57600160406020926004358152808452200154604051908152f35b503461027f57602036600319011261027f5761396e61437b565b61397661469a565b60028054610100600160a81b03191660089290921b610100600160a81b031691909117905580f35b503461027f57602036600319011261027f5760043563ffffffff60e01b811680910361030157602090637965db0b60e01b81149081156139e4575b506040519015158152f35b6301ffc9a760e01b149050826139d9565b503461027f5761022036600319011261027f576004356001600160401b03811161030157613a2790369060040161433e565b90916024356001600160401b03811161030157613a4890369060040161433e565b93906044356001600160401b03811161063a57613a6990369060040161433e565b906064356001600160401b038111611f6557613a8990369060040161433e565b90946084356001600160401b038111611f6157613aaa90369060040161433e565b600260a435101561433a57600361014435101561433a5760ff6101643516610164350361433a5760ff6101843516610184350361433a57613ae961436b565b9160ff6101e435166101e43503611f5d576002610204351015611f5d57613b0e614a90565b613b16614a72565b613b2360c435151561480b565b613b304260e43511614866565b600480546003546002546040516337382d3960e21b81526001600160a01b0393841694909392831692602092859291839160081c165afa91821561432f578d926142f5575b50613b819233906149cb565b610124356142cd575b6005549a613b978c61490b565b6005558b8b52600760205260408b208c81556002810180546001600160a01b03191633179055946001600160401b0382116142b9578190613bdb60038801546144b1565b601f8111614267575b508c90601f83116001146141fb578d926141f0575b50508160011b916000199060031b1c19161760038501555b6001600160401b038c11613fa657613c2c60048501546144b1565b601f81116141aa575b508b8a601f821160011461413b578b91614130575b5060001960038e901b1c191660018d901b1760048501555b6001600160401b038711613fa657613c7d60058501546144b1565b601f81116140eb575b50868a601f8211600114614081578b91614076575b508760011b906000198960031b1c19161760058501555b6001600160401b038511613fa657613ccd60068501546144b1565b601f8111614031575b50848a601f8211600114613fc5578b91613fba575b508560011b906000198760031b1c19161760068501555b6001600160401b038211613fa657613d1d60078501546144b1565b601f8111613f62575b509260209b9694928a928c9997958490601f8311600114613eb657958f613e6d9d611a048e60408a859f9e9b9a611a349e9a8a859f9b869b8a9f9d611a1c9e92613eab575b50508160011b916000199060031b1c19161760078301555b613d9260a43560088401614930565b60c435600983015560e435600b830155612710613dba6101043580600c86015560c435614af8565b04600d83015561012435600e83015561012435600f83015560118201613de3610144358261496d565b805462ff00006101843560101b1662ffff001990911661ff006101643560081b16171781556101a435601284015560148301805492151560ff1660ff1993909316929092178255805463ff00000019166101e43560181b63ff00000016179055613e506102043582614977565b62ff0000198154169055601542910155338152600b865220614996565b6040519081524283820152817fc0c6ed2669febbe340d8737e8ec17254ffd9e038b54a4585ff70ac3ca18956aa60403393a360018055604051908152f35b013590503880613d6b565b9b94939291906007840185528f852090855b601f1984168110613f30575060209a9996611a04613e6d9f8f9a948e99611a349d99611a1c9960018f9a6040958f9a978d9883601f19811610613f16575b505050811b016007830155613d83565b0135600019600384901b60f8161c19169055388080613f06565b9295509396989a9c929597999b508f600181928686013581550194019101928d94918f9c9a9896939d9b999794613ec8565b600785018b5260208b20601f840160051c810160208510613f9f575b601f830160051c82018110613f94575050613d26565b8c8155600101613f7e565b5080613f7e565b634e487b7160e01b8a52604160045260248afd5b905089013538613ceb565b600686018c5260208c2091508b5b8b601f198916821061401957505086601f19811610613fff575b5050600185811b016006850155613d02565b8a0135600019600388901b60f8161c191690553880613fed565b60018394602093948493013581550193019101613fd3565b600685018b5260208b20601f870160051c81016020881061406f575b8c601f840160051c8301821061406557505050613cd6565b815560010161404d565b508061404d565b905086013538613c9b565b600586018c5260208c2091508b5b601f198a1681106140d3575088601f198116106140b9575b5050600187811b016005850155613cb2565b87013560001960038a901b60f8161c1916905538806140a7565b9091602060018192858c01358155019301910161408f565b600585018b5260208b20601f890160051c810160208a10614129575b8c601f840160051c8301821061411f57505050613c86565b8155600101614107565b5080614107565b905088013538613c4a565b600486018c5260208c2091508b8e5b8b601f19821683106141905750601f198116109050614176575b505060018c811b016004850155613c62565b89013560001960038f901b60f8161c191690553880614164565b60018495602093949584930135815501940192019061414a565b600485018b5260208b208d6020601f820160051c830191106141e9575b8c601f840160051c830182106141df57505050613c35565b81556001016141c7565b50806141c7565b013590503880613bf9565b600388018e5260208e208e9450915b601f198416851061424f576001945083601f19811610614235575b505050811b016003850155613c11565b0135600019600384901b60f8161c19169055388080614225565b8181013583556020948501946001909301920161420a565b909150600387018d5260208d20601f840160051c8101602085106142b2575b84939291908f5b601f840160051c830182106142a457505050613be4565b81558594506001018f61428d565b5080614286565b634e487b7160e01b8c52604160045260248cfd5b6004546003546142f09161012435916001600160a01b03908116913391166149cb565b613b8a565b9091506020813d602011614327575b816143116020938361454c565b81010312614323575190613b81613b75565b8c80fd5b3d9150614304565b6040513d8f823e3d90fd5b8880fd5b9181601f84011215611f04578235916001600160401b038311611f045760208381860195010111611f0457565b6101c435908115158203611f0457565b600435906001600160a01b0382168203611f0457565b602435906001600160a01b0382168203611f0457565b80548210156143bf5760005260206000200190600090565b634e487b7160e01b600052603260045260246000fd5b6020908160408183019282815285518094520193019160005b8281106143fc575050505090565b8351855293810193928101926001016143ee565b60031115610e0b57565b906004821015610e0b5752565b9b99979593919e9d9c9a98969492909e6101c08d019f8d5260208d0152600160a01b600190031660408c015261445c81614410565b60608b015260808a015260a089015260c088015260e087015261447e81614410565b61010086015260ff1661012085015260ff166101408401526101608301526101808201526101a0016144af9161441a565b565b90600182811c921680156144e1575b60208310146144cb57565b634e487b7160e01b600052602260045260246000fd5b91607f16916144c0565b6101c081019081106001600160401b0382111761450757604052565b634e487b7160e01b600052604160045260246000fd5b6001600160401b03811161450757604052565b61040081019081106001600160401b0382111761450757604052565b90601f801991011681019081106001600160401b0382111761450757604052565b9060405191826000825492614581846144b1565b9081845260019485811690816000146145ee57506001146145ab575b50506144af9250038361454c565b9093915060005260209081600020936000915b8183106145d65750506144af9350820101388061459d565b855488840185015294850194879450918301916145be565b9150506144af94506020925060ff191682840152151560051b820101388061459d565b919082519283825260005b84811061463d575050826000602080949584010152601f8019910116010190565b60208183018101518483018201520161461c565b60021115610e0b57565b90600b821015610e0b5752565b6040906003190112611f04576004359060243590565b80548210156143bf57600052600b602060002091020190600090565b3360009081527fad3228b676f7d3cd4284a5443f17f1962b36e491b30a40b2405849e597ba5fb5602052604081205460ff16156146d45750565b6044906040519063e2517d3f60e01b82523360048301526024820152fd5b80600052600060205260406000203360005260205260ff60406000205416156146d45750565b9060009180835282602052604083209160018060a01b03169182845260205260ff6040842054161560001461479157808352826020526040832082845260205260408320600160ff198254161790557f2f8788117e7eff1d82e926ec794901d17c78024a50270940304540a733656f0d339380a4600190565b505090565b9060009180835282602052604083209160018060a01b03169182845260205260ff6040842054166000146147915780835282602052604083208284526020526040832060ff1981541690557ff6391f5c32d9c69d2a47ea670b442974b53935d1edc7fd64eb21e047a839171b339380a4600190565b1561481257565b60405162461bcd60e51b815260206004820152602660248201527f4f7074696f6e73436f72653a206e6f74696f6e616c206d75737420626520706f60448201526573697469766560d01b6064820152608490fd5b1561486d57565b60405162461bcd60e51b815260206004820152602560248201527f4f7074696f6e73436f72653a20657870697279206d75737420626520696e2066604482015264757475726560d81b6064820152608490fd5b156148c757565b606460405162461bcd60e51b815260206004820152602060248201527f4f7074696f6e73436f72653a206d617267696e207261746520746f6f206c6f776044820152fd5b600019811461491a5760010190565b634e487b7160e01b600052601160045260246000fd5b9061493a81614651565b60ff80198354169116179055565b9061495281614410565b64ff0000000082549160201b169064ff000000001916179055565b9061493a81614410565b9061498181614651565b61ff0082549160081b169061ff001916179055565b8054600160401b811015614507576149b3916001820181556143a7565b819291549060031b91821b91600019901b1916179055565b6040516323b872dd60e01b60208083019182526001600160a01b0394851660248401529490931660448201526064808201959095529384529260009190614a1360848261454c565b519082855af115614a66576000513d614a5d57506001600160a01b0381163b155b614a3b5750565b604051635274afe760e01b81526001600160a01b039091166004820152602490fd5b60011415614a34565b6040513d6000823e3d90fd5b60ff60025416614a7e57565b60405163d93c066560e01b8152600490fd5b600260015414614aa1576002600155565b604051633ee5aeb560e01b8152600490fd5b15614aba57565b60405162461bcd60e51b815260206004820152601660248201527527b83a34b7b739a1b7b9329d103737ba10313abcb2b960511b6044820152606490fd5b8181029291811591840414171561491a57565b8115614b15570490565b634e487b7160e01b600052601260045260246000fd5b9190820180921161491a57565b15614b3f57565b60405162461bcd60e51b815260206004820152601d60248201527f4f7074696f6e73436f72653a20696e76616c6964206f726465722069640000006044820152606490fd5b600a6101a09183518155602084015160018201556002810160018060a01b036040860151168154906060870151614bba81614410565b614bc381614410565b60ff60a01b9060a01b16916affffffffffffffffffffff60a81b16171790556080840151600382015560a0840151600482015560c0840151600582015560e08401516006820155614c6160078201614c29610100870151614c2381614410565b8261496d565b610120860151815461ff00191660089190911b61ff0016178155610140860151815462ff0000191660109190911b62ff000016179055565b61016084015160088201556101808401516009820155019101516004811015610e0b5760ff80198354169116179055565b15614c9957565b60405162461bcd60e51b815260206004820152601760248201527f4f7074696f6e73436f72653a206e6f742073656c6c65720000000000000000006044820152606490fd5b15614ce557565b60405162461bcd60e51b815260206004820152601b60248201527f4f7074696f6e73436f72653a206f72646572206e6f74206c69766500000000006044820152606490fd5b9190820391821161491a57565b9081518110156143bf57016020019056fece3a31baf9956e086200ee7044a75c2befbd050912798b7bcd25d05831ab9592a26469706673582212205e2b6d1b30c4980276427820ef8e6ba5b1a53a15269d1b342da16fe3a577ef8a64736f6c63430008140033","opcodes":"PUSH1 0x80 CALLVALUE PUSH3 0xF5 JUMPI PUSH1 0x1F PUSH3 0x4F55 CODESIZE DUP2 SWAP1 SUB SWAP2 DUP3 ADD PUSH1 0x1F NOT AND DUP4 ADD SWAP2 PUSH1 0x1 PUSH1 0x1 PUSH1 0x40 SHL SUB DUP4 GT DUP5 DUP5 LT OR PUSH3 0xFA JUMPI DUP1 DUP5 SWAP3 PUSH1 0x80 SWAP5 PUSH1 0x40 MSTORE DUP4 CODECOPY DUP2 ADD SUB SLT PUSH3 0xF5 JUMPI DUP1 PUSH3 0x52 PUSH3 0xE4 SWAP3 PUSH3 0x110 JUMP JUMPDEST SWAP1 PUSH3 0x61 PUSH1 0x20 DUP3 ADD PUSH3 0x110 JUMP JUMPDEST SWAP1 PUSH3 0x7E PUSH1 0x60 PUSH3 0x76 PUSH1 0x40 DUP5 ADD PUSH3 0x110 JUMP JUMPDEST SWAP3 ADD PUSH3 0x110 JUMP JUMPDEST PUSH1 0x1 DUP1 DUP1 SSTORE PUSH1 0x5 DUP2 SWAP1 SSTORE PUSH1 0x6 SSTORE PUSH1 0x2 DUP1 SLOAD PUSH2 0x100 PUSH1 0x1 PUSH1 0xA8 SHL SUB NOT AND PUSH1 0x8 SWAP6 SWAP1 SWAP6 SHL PUSH2 0x100 PUSH1 0x1 PUSH1 0xA8 SHL SUB AND SWAP5 SWAP1 SWAP5 OR SWAP1 SWAP4 SSTORE PUSH1 0x3 DUP1 SLOAD PUSH1 0x1 PUSH1 0x1 PUSH1 0xA0 SHL SUB NOT SWAP1 DUP2 AND PUSH1 0x1 PUSH1 0x1 PUSH1 0xA0 SHL SUB SWAP5 DUP6 AND OR SWAP1 SWAP2 SSTORE PUSH1 0x4 DUP1 SLOAD SWAP1 SWAP2 AND SWAP2 SWAP1 SWAP3 AND OR SWAP1 SSTORE PUSH3 0x125 JUMP JUMPDEST POP PUSH1 0x40 MLOAD PUSH2 0x4D9E SWAP1 DUP2 PUSH3 0x1B7 DUP3 CODECOPY RETURN JUMPDEST PUSH1 0x0 DUP1 REVERT JUMPDEST PUSH4 0x4E487B71 PUSH1 0xE0 SHL PUSH1 0x0 MSTORE PUSH1 0x41 PUSH1 0x4 MSTORE PUSH1 0x24 PUSH1 0x0 REVERT JUMPDEST MLOAD SWAP1 PUSH1 0x1 PUSH1 0x1 PUSH1 0xA0 SHL SUB DUP3 AND DUP3 SUB PUSH3 0xF5 JUMPI JUMP JUMPDEST PUSH1 0x1 PUSH1 0x1 PUSH1 0xA0 SHL SUB AND PUSH1 0x0 DUP2 DUP2 MSTORE PUSH32 0xAD3228B676F7D3CD4284A5443F17F1962B36E491B30A40B2405849E597BA5FB5 PUSH1 0x20 MSTORE PUSH1 0x40 DUP2 KECCAK256 SLOAD SWAP1 SWAP2 SWAP1 PUSH1 0xFF AND PUSH3 0x1B2 JUMPI DUP2 DUP1 MSTORE DUP2 PUSH1 0x20 MSTORE PUSH1 0x40 DUP3 KECCAK256 DUP2 DUP4 MSTORE PUSH1 0x20 MSTORE PUSH1 0x40 DUP3 KECCAK256 PUSH1 0x1 PUSH1 0xFF NOT DUP3 SLOAD AND OR SWAP1 SSTORE CALLER SWAP2 PUSH32 0x2F8788117E7EFF1D82E926EC794901D17C78024A50270940304540A733656F0D DUP2 DUP1 LOG4 PUSH1 0x1 SWAP1 JUMP JUMPDEST POP SWAP1 JUMP INVALID PUSH2 0x240 PUSH1 0x40 MSTORE PUSH1 0x4 CALLDATASIZE LT ISZERO PUSH2 0x13 JUMPI PUSH1 0x0 DUP1 REVERT JUMPDEST PUSH1 0x0 DUP1 CALLDATALOAD PUSH1 0xE0 SHR DUP1 PUSH4 0x1D0D5B8 EQ PUSH2 0x39F5 JUMPI DUP1 PUSH4 0x1FFC9A7 EQ PUSH2 0x399E JUMPI DUP1 PUSH4 0x20E3DBD4 EQ PUSH2 0x3954 JUMPI DUP1 PUSH4 0x248A9CA3 EQ PUSH2 0x3928 JUMPI DUP1 PUSH4 0x2A58B330 EQ PUSH2 0x390A JUMPI DUP1 PUSH4 0x2F2FF15D EQ PUSH2 0x38CD JUMPI DUP1 PUSH4 0x2F48AB7D EQ PUSH2 0x38A4 JUMPI DUP1 PUSH4 0x36568ABE EQ PUSH2 0x385C JUMPI DUP1 PUSH4 0x3F4BA83A EQ PUSH2 0x37F1 JUMPI DUP1 PUSH4 0x4500CB60 EQ PUSH2 0x37A9 JUMPI DUP1 PUSH4 0x45CB4505 EQ PUSH2 0x3753 JUMPI DUP1 PUSH4 0x46F8226C EQ PUSH2 0x3578 JUMPI DUP1 PUSH4 0x4EFEF6AA EQ PUSH2 0x355A JUMPI DUP1 PUSH4 0x5C975ABB EQ PUSH2 0x3537 JUMPI DUP1 PUSH4 0x5D7FFE7B EQ PUSH2 0x3056 JUMPI DUP1 PUSH4 0x6AF58CFF EQ PUSH2 0x2DC8 JUMPI DUP1 PUSH4 0x6CA14389 EQ PUSH2 0x2C9C JUMPI DUP1 PUSH4 0x6DBE7579 EQ PUSH2 0x2BD4 JUMPI DUP1 PUSH4 0x7203A582 EQ PUSH2 0x2606 JUMPI DUP1 PUSH4 0x79502C55 EQ PUSH2 0x25D9 JUMPI DUP1 PUSH4 0x7D900421 EQ PUSH2 0x254C JUMPI DUP1 PUSH4 0x8456CB59 EQ PUSH2 0x24F1 JUMPI DUP1 PUSH4 0x8A4ADF24 EQ PUSH2 0x24C8 JUMPI DUP1 PUSH4 0x8DF82800 EQ PUSH2 0x1FB4 JUMPI DUP1 PUSH4 0x91D14854 EQ PUSH2 0x1F69 JUMPI DUP1 PUSH4 0x979B4E6D EQ PUSH2 0x1542 JUMPI DUP1 PUSH4 0xA217FDDF EQ PUSH2 0x1526 JUMPI DUP1 PUSH4 0xA45F2EBC EQ PUSH2 0x14B3 JUMPI DUP1 PUSH4 0xA61CF0D4 EQ PUSH2 0x1420 JUMPI DUP1 PUSH4 0xA85C38EF EQ PUSH2 0x10CB JUMPI DUP1 PUSH4 0xB543503E EQ PUSH2 0x1086 JUMPI DUP1 PUSH4 0xBC0EF26B EQ PUSH2 0xEC2 JUMPI DUP1 PUSH4 0xCF3FEC43 EQ PUSH2 0xE35 JUMPI DUP1 PUSH4 0xD049BFEF EQ PUSH2 0xBD0 JUMPI DUP1 PUSH4 0xD09EF241 EQ PUSH2 0x6B3 JUMPI DUP1 PUSH4 0xD1E745B1 EQ PUSH2 0x4C4 JUMPI DUP1 PUSH4 0xD41194B8 EQ PUSH2 0x346 JUMPI DUP1 PUSH4 0xD547741F EQ PUSH2 0x305 JUMPI DUP1 PUSH4 0xE4CBAC40 EQ PUSH2 0x282 JUMPI PUSH4 0xF7FF6426 EQ PUSH2 0x1D6 JUMPI PUSH1 0x0 DUP1 REVERT JUMPDEST CALLVALUE PUSH2 0x27F JUMPI PUSH2 0x1E4 CALLDATASIZE PUSH2 0x4668 JUMP JUMPDEST SWAP1 DUP3 MSTORE PUSH1 0x8 PUSH1 0x20 MSTORE PUSH1 0x40 DUP3 KECCAK256 DUP1 SLOAD DUP3 LT ISZERO PUSH2 0x27B JUMPI PUSH2 0x203 SWAP3 POP PUSH2 0x467E JUMP JUMPDEST POP DUP1 SLOAD SWAP1 PUSH2 0x277 PUSH1 0x1 DUP3 ADD SLOAD PUSH1 0x2 DUP4 ADD SLOAD SWAP3 PUSH1 0x3 DUP2 ADD SLOAD SWAP5 PUSH1 0x4 DUP3 ADD SLOAD SWAP3 PUSH1 0x5 DUP4 ADD SLOAD SWAP2 PUSH1 0x6 DUP5 ADD SLOAD SWAP1 PUSH1 0x7 DUP6 ADD SLOAD SWAP2 PUSH1 0x8 DUP7 ADD SLOAD SWAP5 PUSH1 0xFF PUSH1 0xA PUSH1 0x9 DUP10 ADD SLOAD SWAP9 ADD SLOAD AND SWAP8 PUSH1 0x40 MLOAD SWAP12 DUP13 SWAP12 DUP13 PUSH1 0xFF DUP9 PUSH1 0x10 SHR AND SWAP9 PUSH1 0xFF DUP1 DUP11 PUSH1 0x8 SHR AND SWAP10 AND SWAP8 PUSH1 0xFF DUP5 PUSH1 0xA0 SHR AND SWAP4 PUSH1 0x1 DUP1 PUSH1 0xA0 SHL SUB AND SWAP3 PUSH2 0x4427 JUMP JUMPDEST SUB SWAP1 RETURN JUMPDEST DUP3 DUP1 REVERT JUMPDEST DUP1 REVERT JUMPDEST POP CALLVALUE PUSH2 0x27F JUMPI PUSH1 0x20 DUP1 PUSH1 0x3 NOT CALLDATASIZE ADD SLT PUSH2 0x301 JUMPI PUSH1 0x1 PUSH1 0x1 PUSH1 0xA0 SHL SUB PUSH2 0x2A5 PUSH2 0x437B JUMP JUMPDEST AND DUP3 MSTORE PUSH1 0xB DUP2 MSTORE PUSH1 0x40 DUP3 KECCAK256 SWAP2 PUSH1 0x40 MLOAD DUP1 SWAP3 DUP1 DUP6 SLOAD SWAP3 DUP4 DUP2 MSTORE ADD SWAP5 DUP4 MSTORE DUP1 DUP4 KECCAK256 SWAP3 SWAP1 JUMPDEST DUP3 DUP3 LT PUSH2 0x2EA JUMPI PUSH2 0x277 DUP6 PUSH2 0x2DE DUP2 DUP10 SUB DUP3 PUSH2 0x454C JUMP JUMPDEST PUSH1 0x40 MLOAD SWAP2 DUP3 SWAP2 DUP3 PUSH2 0x43D5 JUMP JUMPDEST DUP4 SLOAD DUP7 MSTORE SWAP5 DUP6 ADD SWAP5 PUSH1 0x1 SWAP4 DUP5 ADD SWAP4 SWAP1 SWAP2 ADD SWAP1 PUSH2 0x2C7 JUMP JUMPDEST POP DUP1 REVERT JUMPDEST POP CALLVALUE PUSH2 0x27F JUMPI PUSH1 0x40 CALLDATASIZE PUSH1 0x3 NOT ADD SLT PUSH2 0x27F JUMPI PUSH2 0x342 PUSH1 0x4 CALLDATALOAD PUSH2 0x325 PUSH2 0x4391 JUMP JUMPDEST SWAP1 DUP1 DUP5 MSTORE DUP4 PUSH1 0x20 MSTORE PUSH2 0x33D PUSH1 0x1 PUSH1 0x40 DUP7 KECCAK256 ADD SLOAD PUSH2 0x46F2 JUMP JUMPDEST PUSH2 0x4796 JUMP JUMPDEST POP DUP1 RETURN JUMPDEST POP CALLVALUE PUSH2 0x27F JUMPI PUSH2 0x355 CALLDATASIZE PUSH2 0x4668 JUMP JUMPDEST SWAP1 DUP1 ISZERO ISZERO DUP1 PUSH2 0x4B9 JUMPI JUMPDEST PUSH2 0x368 SWAP1 PUSH2 0x4B38 JUMP JUMPDEST DUP1 DUP4 MSTORE PUSH1 0x7 PUSH1 0x20 MSTORE PUSH1 0x40 DUP4 KECCAK256 PUSH1 0x2 ADD SLOAD PUSH1 0x1 PUSH1 0x1 PUSH1 0xA0 SHL SUB SWAP3 SWAP1 PUSH2 0x38F SWAP1 DUP5 AND CALLER EQ PUSH2 0x4C92 JUMP JUMPDEST PUSH2 0x397 PUSH2 0x4A90 JUMP JUMPDEST PUSH2 0x39F PUSH2 0x4A72 JUMP JUMPDEST DUP1 ISZERO PUSH2 0x468 JUMPI DUP2 DUP5 MSTORE PUSH1 0x7 PUSH1 0x20 MSTORE PUSH1 0x40 DUP5 KECCAK256 PUSH1 0xFF PUSH1 0x14 DUP3 ADD SLOAD PUSH1 0x10 SHR AND PUSH1 0xB DUP2 LT ISZERO PUSH2 0x454 JUMPI PUSH2 0x3F9 SWAP2 PUSH2 0x3D7 PUSH1 0x4 PUSH1 0xF SWAP4 EQ PUSH2 0x4CDE JUMP JUMPDEST ADD SWAP2 PUSH2 0x3F2 DUP2 DUP5 SLOAD SWAP7 DUP1 PUSH1 0x4 SLOAD AND SWAP1 PUSH1 0x3 SLOAD AND SWAP1 CALLER SWAP1 PUSH2 0x49CB JUMP JUMPDEST DUP3 SLOAD PUSH2 0x4B2B JUMP JUMPDEST DUP1 SWAP2 SSTORE PUSH1 0x40 MLOAD SWAP3 DUP4 MSTORE PUSH1 0x20 DUP4 ADD MSTORE PUSH1 0x80 PUSH1 0x40 DUP4 ADD MSTORE PUSH1 0x3 PUSH1 0x80 DUP4 ADD MSTORE PUSH3 0x185919 PUSH1 0xEA SHL PUSH1 0xA0 DUP4 ADD MSTORE TIMESTAMP PUSH1 0x60 DUP4 ADD MSTORE PUSH32 0x2CF5022BDD8FEFE86D09412967E028FA9A8CF1E1A3989D47DFD9FC64A22AFA86 PUSH1 0xC0 CALLER SWAP4 LOG3 PUSH1 0x1 DUP1 SSTORE DUP1 RETURN JUMPDEST PUSH4 0x4E487B71 PUSH1 0xE0 SHL DUP7 MSTORE PUSH1 0x21 PUSH1 0x4 MSTORE PUSH1 0x24 DUP7 REVERT JUMPDEST PUSH1 0x40 MLOAD PUSH3 0x461BCD PUSH1 0xE5 SHL DUP2 MSTORE PUSH1 0x20 PUSH1 0x4 DUP3 ADD MSTORE PUSH1 0x24 DUP1 DUP3 ADD MSTORE PUSH32 0x4F7074696F6E73436F72653A20616D6F756E74206D75737420626520706F7369 PUSH1 0x44 DUP3 ADD MSTORE PUSH4 0x74697665 PUSH1 0xE0 SHL PUSH1 0x64 DUP3 ADD MSTORE PUSH1 0x84 SWAP1 REVERT JUMPDEST POP PUSH1 0x5 SLOAD DUP2 LT PUSH2 0x35F JUMP JUMPDEST POP CALLVALUE PUSH2 0x27F JUMPI PUSH2 0x4D3 CALLDATASIZE PUSH2 0x4668 JUMP JUMPDEST SWAP1 DUP1 ISZERO ISZERO DUP1 PUSH2 0x6A8 JUMPI JUMPDEST PUSH2 0x4E6 SWAP1 PUSH2 0x4B38 JUMP JUMPDEST DUP1 DUP4 MSTORE PUSH1 0x7 PUSH1 0x20 MSTORE PUSH1 0x40 DUP4 KECCAK256 PUSH1 0x2 ADD SLOAD PUSH1 0x1 PUSH1 0x1 PUSH1 0xA0 SHL SUB SWAP1 PUSH2 0x50C SWAP1 DUP3 AND CALLER EQ PUSH2 0x4C92 JUMP JUMPDEST PUSH2 0x514 PUSH2 0x4A90 JUMP JUMPDEST PUSH2 0x51C PUSH2 0x4A72 JUMP JUMPDEST DUP2 DUP5 MSTORE PUSH1 0x7 PUSH1 0x20 MSTORE PUSH1 0x40 DUP5 KECCAK256 SWAP3 PUSH1 0xFF PUSH1 0x14 DUP6 ADD SLOAD PUSH1 0x10 SHR AND PUSH1 0xB DUP2 LT ISZERO PUSH2 0x454 JUMPI PUSH1 0x4 PUSH2 0x549 SWAP2 EQ PUSH2 0x4CDE JUMP JUMPDEST PUSH1 0xF DUP5 ADD SWAP2 PUSH2 0x55E PUSH1 0xE DUP5 SLOAD SWAP7 ADD SLOAD DUP7 PUSH2 0x4D2A JUMP JUMPDEST DUP3 GT PUSH2 0x649 JUMPI DUP2 PUSH2 0x570 DUP8 SWAP4 DUP8 PUSH2 0x4D2A JUMP JUMPDEST DUP5 SSTORE DUP2 PUSH1 0x3 SLOAD AND SWAP2 PUSH1 0x4 SLOAD AND SWAP1 DUP3 EXTCODESIZE ISZERO PUSH2 0x63A JUMPI PUSH1 0x40 MLOAD PUSH4 0x6924FAA7 PUSH1 0xE1 SHL DUP2 MSTORE CALLER PUSH1 0x4 DUP3 ADD MSTORE PUSH1 0x1 PUSH1 0x1 PUSH1 0xA0 SHL SUB SWAP3 SWAP1 SWAP3 AND PUSH1 0x24 DUP4 ADD MSTORE PUSH1 0x44 DUP3 ADD MSTORE SWAP1 DUP3 SWAP1 DUP3 SWAP1 PUSH1 0x64 SWAP1 DUP3 SWAP1 DUP5 SWAP1 GAS CALL DUP1 ISZERO PUSH2 0x63E JUMPI PUSH2 0x626 JUMPI JUMPDEST POP POP SLOAD PUSH1 0x40 MLOAD SWAP3 DUP4 MSTORE PUSH1 0x20 DUP4 ADD MSTORE PUSH1 0x80 PUSH1 0x40 DUP4 ADD MSTORE PUSH1 0x8 PUSH1 0x80 DUP4 ADD MSTORE PUSH8 0x7769746864726177 PUSH1 0xC0 SHL PUSH1 0xA0 DUP4 ADD MSTORE TIMESTAMP PUSH1 0x60 DUP4 ADD MSTORE PUSH32 0x2CF5022BDD8FEFE86D09412967E028FA9A8CF1E1A3989D47DFD9FC64A22AFA86 PUSH1 0xC0 CALLER SWAP4 LOG3 PUSH1 0x1 DUP1 SSTORE DUP1 RETURN JUMPDEST PUSH2 0x62F SWAP1 PUSH2 0x451D JUMP JUMPDEST PUSH2 0x63A JUMPI DUP4 CODESIZE PUSH2 0x5C6 JUMP JUMPDEST DUP4 DUP1 REVERT JUMPDEST PUSH1 0x40 MLOAD RETURNDATASIZE DUP5 DUP3 RETURNDATACOPY RETURNDATASIZE SWAP1 REVERT JUMPDEST PUSH1 0x40 MLOAD PUSH3 0x461BCD PUSH1 0xE5 SHL DUP2 MSTORE PUSH1 0x20 PUSH1 0x4 DUP3 ADD MSTORE PUSH1 0x31 PUSH1 0x24 DUP3 ADD MSTORE PUSH32 0x4F7074696F6E73436F72653A2063616E6E6F742077697468647261772062656C PUSH1 0x44 DUP3 ADD MSTORE PUSH17 0x37BB9034B734BA34B0B61036B0B933B4B7 PUSH1 0x79 SHL PUSH1 0x64 DUP3 ADD MSTORE PUSH1 0x84 SWAP1 REVERT JUMPDEST POP PUSH1 0x5 SLOAD DUP2 LT PUSH2 0x4DD JUMP JUMPDEST POP CALLVALUE PUSH2 0x27F JUMPI PUSH1 0x20 CALLDATASIZE PUSH1 0x3 NOT ADD SLT PUSH2 0x27F JUMPI DUP1 PUSH2 0x3E0 PUSH1 0x40 MLOAD PUSH2 0x6D5 DUP2 PUSH2 0x4530 JUMP JUMPDEST DUP3 DUP2 MSTORE DUP3 PUSH1 0x20 DUP3 ADD MSTORE DUP3 PUSH1 0x40 DUP3 ADD MSTORE PUSH1 0x60 DUP1 DUP3 ADD MSTORE PUSH1 0x60 PUSH1 0x80 DUP3 ADD MSTORE PUSH1 0x60 PUSH1 0xA0 DUP3 ADD MSTORE PUSH1 0x60 PUSH1 0xC0 DUP3 ADD MSTORE PUSH1 0x60 PUSH1 0xE0 DUP3 ADD MSTORE DUP3 PUSH2 0x100 DUP3 ADD MSTORE DUP3 PUSH2 0x120 DUP3 ADD MSTORE DUP3 PUSH2 0x140 DUP3 ADD MSTORE DUP3 PUSH2 0x160 DUP3 ADD MSTORE DUP3 PUSH2 0x180 DUP3 ADD MSTORE DUP3 PUSH2 0x1A0 DUP3 ADD MSTORE DUP3 PUSH2 0x1C0 DUP3 ADD MSTORE DUP3 PUSH2 0x1E0 DUP3 ADD MSTORE DUP3 PUSH2 0x200 DUP3 ADD MSTORE DUP3 PUSH2 0x220 DUP3 ADD MSTORE DUP3 PUSH2 0x240 DUP3 ADD MSTORE DUP3 PUSH2 0x260 DUP3 ADD MSTORE DUP3 PUSH2 0x280 DUP3 ADD MSTORE DUP3 PUSH2 0x2A0 DUP3 ADD MSTORE DUP3 PUSH2 0x2C0 DUP3 ADD MSTORE DUP3 PUSH2 0x2E0 DUP3 ADD MSTORE DUP3 PUSH2 0x300 DUP3 ADD MSTORE DUP3 PUSH2 0x320 DUP3 ADD MSTORE DUP3 PUSH2 0x340 DUP3 ADD MSTORE DUP3 PUSH2 0x360 DUP3 ADD MSTORE DUP3 PUSH2 0x380 DUP3 ADD MSTORE DUP3 PUSH2 0x3A0 DUP3 ADD MSTORE DUP3 PUSH2 0x3C0 DUP3 ADD MSTORE ADD MSTORE PUSH1 0x4 CALLDATALOAD DUP2 MSTORE PUSH1 0x7 PUSH1 0x20 MSTORE PUSH1 0x40 DUP2 KECCAK256 PUSH1 0x40 MLOAD SWAP2 PUSH2 0x7C4 DUP4 PUSH2 0x4530 JUMP JUMPDEST DUP2 SLOAD DUP4 MSTORE PUSH1 0x1 DUP3 ADD SLOAD PUSH1 0x1 PUSH1 0x1 PUSH1 0xA0 SHL SUB SWAP1 DUP2 AND PUSH1 0x20 DUP6 ADD MSTORE PUSH1 0x2 DUP4 ADD SLOAD AND PUSH1 0x40 DUP5 ADD MSTORE PUSH2 0x7F4 PUSH1 0x3 DUP4 ADD PUSH2 0x456D JUMP JUMPDEST PUSH1 0x60 DUP5 ADD MSTORE PUSH2 0x805 PUSH1 0x4 DUP4 ADD PUSH2 0x456D JUMP JUMPDEST PUSH1 0x80 DUP5 ADD MSTORE PUSH2 0x816 PUSH1 0x5 DUP4 ADD PUSH2 0x456D JUMP JUMPDEST PUSH1 0xA0 DUP5 ADD MSTORE PUSH2 0x827 PUSH1 0x6 DUP4 ADD PUSH2 0x456D JUMP JUMPDEST PUSH1 0xC0 DUP5 ADD MSTORE PUSH2 0x838 PUSH1 0x7 DUP4 ADD PUSH2 0x456D JUMP JUMPDEST PUSH1 0xE0 DUP5 ADD MSTORE PUSH1 0xFF PUSH1 0x8 DUP4 ADD SLOAD AND PUSH2 0x84E DUP2 PUSH2 0x4651 JUMP JUMPDEST PUSH2 0x100 DUP5 ADD MSTORE PUSH1 0x9 DUP3 ADD SLOAD PUSH2 0x120 DUP5 ADD MSTORE PUSH1 0xA DUP3 ADD SLOAD PUSH2 0x140 DUP5 ADD MSTORE PUSH1 0xB DUP3 ADD SLOAD PUSH2 0x160 DUP5 ADD MSTORE PUSH1 0xC DUP3 ADD SLOAD PUSH2 0x180 DUP5 ADD MSTORE PUSH1 0xD DUP3 ADD SLOAD PUSH2 0x1A0 DUP5 ADD MSTORE PUSH1 0xE DUP3 ADD SLOAD PUSH2 0x1C0 DUP5 ADD MSTORE PUSH1 0xF DUP3 ADD SLOAD PUSH2 0x1E0 DUP5 ADD MSTORE PUSH1 0x10 DUP3 ADD SLOAD PUSH2 0x200 DUP5 ADD MSTORE PUSH1 0x11 DUP3 ADD SLOAD PUSH2 0x8BD PUSH1 0xFF DUP3 AND PUSH2 0x4410 JUMP JUMPDEST PUSH1 0xFF DUP2 AND PUSH2 0x220 DUP6 ADD MSTORE PUSH1 0xFF DUP2 PUSH1 0x8 SHR AND PUSH2 0x240 DUP6 ADD MSTORE PUSH1 0xFF DUP2 PUSH1 0x10 SHR AND PUSH2 0x260 DUP6 ADD MSTORE PUSH1 0xFF DUP2 PUSH1 0x18 SHR AND PUSH2 0x280 DUP6 ADD MSTORE PUSH2 0x8FD PUSH1 0xFF DUP3 PUSH1 0x20 SHR AND PUSH2 0x4410 JUMP JUMPDEST PUSH1 0xFF DUP2 PUSH1 0x20 SHR AND PUSH2 0x2A0 DUP6 ADD MSTORE PUSH1 0x1 DUP1 PUSH1 0xA0 SHL SUB SWAP1 PUSH1 0x28 SHR AND PUSH2 0x2C0 DUP5 ADD MSTORE PUSH1 0x12 DUP3 ADD SLOAD PUSH2 0x2E0 DUP5 ADD MSTORE PUSH1 0x13 DUP3 ADD SLOAD PUSH2 0x300 DUP5 ADD MSTORE PUSH1 0x14 DUP3 ADD SLOAD SWAP1 PUSH1 0xFF DUP3 AND ISZERO ISZERO PUSH2 0x320 DUP6 ADD MSTORE PUSH2 0x953 PUSH1 0xFF DUP4 PUSH1 0x8 SHR AND PUSH2 0x4651 JUMP JUMPDEST PUSH1 0xFF DUP3 PUSH1 0x8 SHR AND PUSH2 0x340 DUP6 ADD MSTORE PUSH1 0xB PUSH1 0xFF DUP4 PUSH1 0x10 SHR AND LT ISZERO PUSH2 0xBBC JUMPI POP SWAP1 PUSH1 0xFF PUSH1 0x18 SWAP3 PUSH1 0x10 SHR AND PUSH2 0x360 DUP5 ADD MSTORE PUSH1 0x15 DUP2 ADD SLOAD PUSH2 0x380 DUP5 ADD MSTORE PUSH1 0x16 DUP2 ADD SLOAD PUSH2 0x3A0 DUP5 ADD MSTORE PUSH1 0x17 DUP2 ADD SLOAD PUSH2 0x3C0 DUP5 ADD MSTORE ADD SLOAD PUSH2 0x3E0 DUP3 ADD MSTORE PUSH1 0x40 MLOAD DUP1 SWAP2 PUSH1 0x20 DUP3 MSTORE DUP1 MLOAD PUSH1 0x20 DUP4 ADD MSTORE PUSH1 0x1 DUP1 PUSH1 0xA0 SHL SUB PUSH1 0x20 DUP3 ADD MLOAD AND PUSH1 0x40 DUP4 ADD MSTORE PUSH1 0x1 DUP1 PUSH1 0xA0 SHL SUB PUSH1 0x40 DUP3 ADD MLOAD AND PUSH1 0x60 DUP4 ADD MSTORE PUSH2 0x3E0 PUSH2 0xA5E PUSH2 0x9FE PUSH1 0x60 DUP5 ADD MLOAD PUSH2 0x400 PUSH1 0x80 DUP8 ADD MSTORE PUSH2 0x420 DUP7 ADD SWAP1 PUSH2 0x4611 JUMP JUMPDEST PUSH2 0xA48 PUSH2 0xA34 PUSH2 0xA20 PUSH1 0x80 DUP8 ADD MLOAD SWAP4 PUSH1 0x1F NOT SWAP5 DUP6 DUP11 DUP4 SUB ADD PUSH1 0xA0 DUP12 ADD MSTORE PUSH2 0x4611 JUMP JUMPDEST PUSH1 0xA0 DUP8 ADD MLOAD DUP5 DUP10 DUP4 SUB ADD PUSH1 0xC0 DUP11 ADD MSTORE PUSH2 0x4611 JUMP JUMPDEST PUSH1 0xC0 DUP7 ADD MLOAD DUP4 DUP9 DUP4 SUB ADD PUSH1 0xE0 DUP10 ADD MSTORE PUSH2 0x4611 JUMP JUMPDEST SWAP1 PUSH1 0xE0 DUP6 ADD MLOAD SWAP1 DUP7 DUP4 SUB ADD PUSH2 0x100 DUP8 ADD MSTORE PUSH2 0x4611 JUMP JUMPDEST SWAP2 PUSH2 0x100 DUP2 ADD MLOAD PUSH2 0xA6E DUP2 PUSH2 0x4651 JUMP JUMPDEST PUSH2 0x120 DUP6 ADD MSTORE PUSH2 0x120 DUP2 ADD MLOAD PUSH2 0x140 DUP6 ADD MSTORE PUSH2 0x140 DUP2 ADD MLOAD PUSH2 0x160 DUP6 ADD MSTORE PUSH2 0x160 DUP2 ADD MLOAD PUSH2 0x180 DUP6 ADD MSTORE PUSH2 0x180 DUP2 ADD MLOAD PUSH2 0x1A0 DUP6 ADD MSTORE PUSH2 0x1A0 DUP2 ADD MLOAD PUSH2 0x1C0 DUP6 ADD MSTORE PUSH2 0x1C0 DUP2 ADD MLOAD PUSH2 0x1E0 DUP6 ADD MSTORE PUSH2 0x1E0 DUP2 ADD MLOAD PUSH2 0x200 DUP6 ADD MSTORE PUSH2 0x200 DUP2 ADD MLOAD PUSH2 0x220 DUP6 ADD MSTORE PUSH2 0x220 DUP2 ADD MLOAD PUSH2 0xAE3 DUP2 PUSH2 0x4410 JUMP JUMPDEST PUSH2 0x240 DUP6 ADD MSTORE PUSH1 0xFF PUSH2 0x240 DUP3 ADD MLOAD AND PUSH2 0x260 DUP6 ADD MSTORE PUSH1 0xFF PUSH2 0x260 DUP3 ADD MLOAD AND PUSH2 0x280 DUP6 ADD MSTORE PUSH1 0xFF PUSH2 0x280 DUP3 ADD MLOAD AND PUSH2 0x2A0 DUP6 ADD MSTORE PUSH2 0x2A0 DUP2 ADD MLOAD PUSH2 0xB25 DUP2 PUSH2 0x4410 JUMP JUMPDEST PUSH2 0x2C0 DUP6 ADD MSTORE PUSH1 0x1 DUP1 PUSH1 0xA0 SHL SUB PUSH2 0x2C0 DUP3 ADD MLOAD AND PUSH2 0x2E0 DUP6 ADD MSTORE PUSH2 0x2E0 DUP2 ADD MLOAD PUSH2 0x300 DUP6 ADD MSTORE PUSH2 0x300 DUP2 ADD MLOAD PUSH2 0x320 DUP6 ADD MSTORE PUSH2 0x320 DUP2 ADD MLOAD ISZERO ISZERO PUSH2 0x340 DUP6 ADD MSTORE PUSH2 0x340 DUP2 ADD MLOAD PUSH2 0xB74 DUP2 PUSH2 0x4651 JUMP JUMPDEST PUSH2 0x360 DUP6 ADD MSTORE PUSH2 0xB8E PUSH2 0x360 DUP3 ADD MLOAD PUSH2 0x380 DUP7 ADD SWAP1 PUSH2 0x465B JUMP JUMPDEST PUSH2 0x380 DUP2 ADD MLOAD PUSH2 0x3A0 DUP6 ADD MSTORE PUSH2 0x3A0 DUP2 ADD MLOAD PUSH2 0x3C0 DUP6 ADD MSTORE PUSH2 0x3C0 DUP2 ADD MLOAD DUP3 DUP6 ADD MSTORE ADD MLOAD PUSH2 0x400 DUP4 ADD MSTORE SUB SWAP1 RETURN JUMPDEST PUSH4 0x4E487B71 PUSH1 0xE0 SHL DUP2 MSTORE PUSH1 0x21 PUSH1 0x4 MSTORE PUSH1 0x24 SWAP1 REVERT JUMPDEST POP CALLVALUE PUSH2 0x27F JUMPI PUSH1 0x20 SWAP1 DUP2 PUSH1 0x3 NOT CALLDATASIZE ADD SLT PUSH2 0x27F JUMPI PUSH1 0x4 CALLDATALOAD DUP2 MSTORE PUSH1 0x8 DUP1 DUP4 MSTORE PUSH1 0x40 DUP3 KECCAK256 SWAP3 DUP4 SLOAD SWAP2 PUSH1 0x1 PUSH1 0x1 PUSH1 0x40 SHL SUB DUP4 GT PUSH2 0xE21 JUMPI SWAP2 DUP5 SWAP2 SWAP3 PUSH1 0x40 MLOAD SWAP2 PUSH1 0x5 PUSH2 0xC1C DUP7 DUP4 DUP4 SHL ADD DUP6 PUSH2 0x454C JUMP JUMPDEST DUP2 DUP5 MSTORE DUP6 DUP5 ADD DUP1 SWAP6 DUP9 MSTORE DUP7 DUP9 KECCAK256 SWAP2 DUP9 SWAP2 JUMPDEST DUP5 DUP4 LT PUSH2 0xD29 JUMPI POP POP POP POP POP POP PUSH1 0x40 MLOAD SWAP3 DUP1 DUP5 ADD SWAP2 DUP2 DUP6 MSTORE MLOAD DUP1 SWAP3 MSTORE PUSH1 0x40 DUP5 ADD SWAP3 SWAP5 JUMPDEST DUP3 DUP2 LT PUSH2 0xC5D JUMPI DUP5 DUP5 SUB DUP6 RETURN JUMPDEST SWAP1 SWAP2 SWAP3 DUP3 PUSH2 0x1C0 PUSH1 0x1 SWAP3 PUSH2 0xD1A DUP10 MLOAD DUP1 MLOAD DUP4 MSTORE DUP5 DUP2 ADD MLOAD DUP6 DUP5 ADD MSTORE DUP6 DUP1 PUSH1 0xA0 SHL SUB PUSH1 0x40 DUP3 ADD MLOAD AND PUSH1 0x40 DUP5 ADD MSTORE PUSH1 0x60 DUP1 DUP3 ADD MLOAD SWAP1 PUSH2 0xC99 DUP3 PUSH2 0x4410 JUMP JUMPDEST DUP5 ADD MSTORE PUSH1 0x80 DUP1 DUP3 ADD MLOAD SWAP1 DUP5 ADD MSTORE PUSH1 0xA0 DUP1 DUP3 ADD MLOAD SWAP1 DUP5 ADD MSTORE PUSH1 0xC0 DUP1 DUP3 ADD MLOAD SWAP1 DUP5 ADD MSTORE PUSH1 0xE0 DUP2 ADD MLOAD PUSH1 0xE0 DUP5 ADD MSTORE PUSH2 0x100 DUP1 DUP3 ADD MLOAD SWAP1 PUSH2 0xCD5 DUP3 PUSH2 0x4410 JUMP JUMPDEST DUP5 ADD MSTORE PUSH1 0xFF PUSH2 0x120 DUP2 DUP2 DUP5 ADD MLOAD AND SWAP1 DUP6 ADD MSTORE PUSH2 0x140 SWAP1 DUP2 DUP4 ADD MLOAD AND SWAP1 DUP5 ADD MSTORE PUSH2 0x160 DUP1 DUP3 ADD MLOAD SWAP1 DUP5 ADD MSTORE PUSH2 0x180 DUP1 DUP3 ADD MLOAD SWAP1 DUP5 ADD MSTORE PUSH2 0x1A0 DUP1 SWAP2 ADD MLOAD SWAP1 DUP4 ADD SWAP1 PUSH2 0x441A JUMP JUMPDEST ADD SWAP7 ADD SWAP2 ADD SWAP5 SWAP3 SWAP2 SWAP1 SWAP5 PUSH2 0xC50 JUMP JUMPDEST PUSH1 0x40 SWAP10 SWAP9 SWAP7 SWAP8 SWAP10 MLOAD PUSH2 0xD3A DUP2 PUSH2 0x44EB JUMP JUMPDEST DUP5 SLOAD DUP2 MSTORE PUSH1 0x1 DUP6 ADD SLOAD DUP9 DUP3 ADD MSTORE PUSH1 0x2 DUP6 ADD SLOAD PUSH1 0x1 PUSH1 0x1 PUSH1 0xA0 SHL SUB DUP2 AND PUSH1 0x40 DUP4 ADD MSTORE PUSH1 0xFF SWAP1 PUSH1 0xA0 SWAP1 DUP2 SHR DUP3 AND PUSH2 0xD6E DUP2 PUSH2 0x4410 JUMP JUMPDEST PUSH1 0x60 DUP5 ADD MSTORE PUSH1 0x3 DUP8 ADD SLOAD PUSH1 0x80 DUP5 ADD MSTORE PUSH1 0x4 DUP8 ADD SLOAD SWAP1 DUP4 ADD MSTORE DUP4 DUP7 ADD SLOAD PUSH1 0xC0 DUP4 ADD MSTORE PUSH1 0x6 DUP7 ADD SLOAD PUSH1 0xE0 DUP4 ADD MSTORE DUP1 PUSH1 0x7 DUP8 ADD SLOAD DUP2 DUP2 AND PUSH2 0xDAB DUP2 PUSH2 0x4410 JUMP JUMPDEST PUSH2 0x100 DUP6 ADD MSTORE DUP2 DUP2 DUP12 SHR AND PUSH2 0x120 DUP6 ADD MSTORE PUSH1 0x10 SHR AND PUSH2 0x140 DUP4 ADD MSTORE DUP8 DUP7 ADD SLOAD PUSH2 0x160 DUP4 ADD MSTORE PUSH1 0x9 DUP7 ADD SLOAD PUSH2 0x180 DUP4 ADD MSTORE PUSH1 0xA DUP7 ADD SLOAD AND PUSH1 0x4 DUP2 LT ISZERO PUSH2 0xE0B JUMPI PUSH1 0x1 SWAP3 DUP3 DUP11 SWAP3 PUSH2 0x1A0 PUSH1 0xB SWAP6 ADD MSTORE DUP2 MSTORE ADD SWAP5 ADD SWAP3 ADD SWAP2 SWAP3 SWAP9 SWAP7 SWAP6 SWAP8 SWAP9 PUSH2 0xC2D JUMP JUMPDEST PUSH4 0x4E487B71 PUSH1 0xE0 SHL PUSH1 0x0 MSTORE PUSH1 0x21 PUSH1 0x4 MSTORE PUSH1 0x24 PUSH1 0x0 REVERT JUMPDEST PUSH4 0x4E487B71 PUSH1 0xE0 SHL DUP5 MSTORE PUSH1 0x41 PUSH1 0x4 MSTORE PUSH1 0x24 DUP5 REVERT JUMPDEST POP CALLVALUE PUSH2 0x27F JUMPI PUSH1 0x20 DUP1 PUSH1 0x3 NOT CALLDATASIZE ADD SLT PUSH2 0x301 JUMPI PUSH1 0x4 CALLDATALOAD PUSH1 0x1 PUSH1 0x1 PUSH1 0x40 SHL SUB DUP2 GT PUSH2 0x27B JUMPI PUSH2 0xE68 DUP3 SWAP2 CALLDATASIZE SWAP1 PUSH1 0x4 ADD PUSH2 0x433E JUMP JUMPDEST SWAP2 SWAP1 DUP3 PUSH1 0x40 MLOAD SWAP4 DUP5 SWAP3 DUP4 CALLDATACOPY DUP2 ADD PUSH1 0xC DUP2 MSTORE SUB ADD SWAP1 KECCAK256 SWAP2 PUSH1 0x40 MLOAD DUP1 SWAP3 DUP1 DUP6 SLOAD SWAP3 DUP4 DUP2 MSTORE ADD SWAP5 DUP4 MSTORE DUP1 DUP4 KECCAK256 SWAP3 SWAP1 JUMPDEST DUP3 DUP3 LT PUSH2 0xEAB JUMPI PUSH2 0x277 DUP6 PUSH2 0x2DE DUP2 DUP10 SUB DUP3 PUSH2 0x454C JUMP JUMPDEST DUP4 SLOAD DUP7 MSTORE SWAP5 DUP6 ADD SWAP5 PUSH1 0x1 SWAP4 DUP5 ADD SWAP4 SWAP1 SWAP2 ADD SWAP1 PUSH2 0xE94 JUMP JUMPDEST POP CALLVALUE PUSH2 0x27F JUMPI PUSH1 0x20 DUP1 PUSH1 0x3 NOT CALLDATASIZE ADD SLT PUSH2 0x301 JUMPI PUSH1 0x4 CALLDATALOAD SWAP1 DUP2 ISZERO ISZERO DUP1 PUSH2 0x107B JUMPI JUMPDEST PUSH2 0xEEB SWAP1 PUSH2 0x4B38 JUMP JUMPDEST DUP2 DUP4 MSTORE PUSH1 0x7 DUP2 MSTORE PUSH2 0xF0C PUSH1 0x1 DUP1 PUSH1 0xA0 SHL SUB PUSH1 0x1 PUSH1 0x40 DUP7 KECCAK256 ADD SLOAD AND CALLER EQ PUSH2 0x4AB3 JUMP JUMPDEST PUSH2 0xF14 PUSH2 0x4A90 JUMP JUMPDEST PUSH2 0xF1C PUSH2 0x4A72 JUMP JUMPDEST DUP2 DUP4 MSTORE PUSH1 0x7 DUP2 MSTORE PUSH1 0x14 PUSH1 0x40 DUP5 KECCAK256 ADD SWAP1 DUP2 SLOAD SWAP2 PUSH1 0xFF DUP4 PUSH1 0x10 SHR AND SWAP3 PUSH1 0xB DUP5 LT ISZERO PUSH2 0x454 JUMPI DUP4 ISZERO DUP1 ISZERO PUSH2 0x1071 JUMPI JUMPDEST ISZERO PUSH2 0x101D JUMPI SWAP2 PUSH1 0xA SWAP2 PUSH3 0xA0000 PUSH1 0x0 DUP1 MLOAD PUSH1 0x20 PUSH2 0x4D49 DUP4 CODECOPY DUP2 MLOAD SWAP2 MSTORE SWAP6 SWAP5 PUSH3 0xFF0000 NOT AND OR SWAP1 SSTORE DUP5 PUSH32 0xB848A62EF7171019D243ED8F5B8E1E6C32CAFED0B7FC99DA26CB2FC2E7D533EC PUSH1 0x40 MLOAD PUSH1 0x40 DUP2 MSTORE DUP1 PUSH2 0xFC3 PUSH1 0x40 DUP3 ADD PUSH1 0x40 SWAP1 PUSH1 0xF DUP2 MSTORE PUSH15 0x189D5E595C8818D85B98D95B1B1959 PUSH1 0x8A SHL PUSH1 0x20 DUP3 ADD MSTORE ADD SWAP1 JUMP JUMPDEST TIMESTAMP DUP7 DUP4 ADD MSTORE SUB SWAP1 LOG2 PUSH2 0xFD8 PUSH1 0x40 MLOAD DUP1 SWAP5 PUSH2 0x465B JUMP JUMPDEST DUP3 ADD MSTORE PUSH1 0x80 PUSH1 0x40 DUP3 ADD MSTORE DUP1 PUSH2 0x100D PUSH1 0x80 DUP3 ADD PUSH1 0x40 SWAP1 PUSH1 0xF DUP2 MSTORE PUSH15 0x189D5E595C8818D85B98D95B1B1959 PUSH1 0x8A SHL PUSH1 0x20 DUP3 ADD MSTORE ADD SWAP1 JUMP JUMPDEST TIMESTAMP PUSH1 0x60 DUP4 ADD MSTORE SUB SWAP1 LOG2 PUSH1 0x1 DUP1 SSTORE DUP1 RETURN JUMPDEST PUSH1 0x40 MLOAD PUSH3 0x461BCD PUSH1 0xE5 SHL DUP2 MSTORE PUSH1 0x4 DUP2 ADD DUP5 SWAP1 MSTORE PUSH1 0x26 PUSH1 0x24 DUP3 ADD MSTORE PUSH32 0x4F7074696F6E73436F72653A2063616E6E6F742063616E63656C206166746572 PUSH1 0x44 DUP3 ADD MSTORE PUSH6 0x40DAC2E8C6D PUSH1 0xD3 SHL PUSH1 0x64 DUP3 ADD MSTORE PUSH1 0x84 SWAP1 REVERT JUMPDEST POP PUSH1 0x1 DUP5 EQ PUSH2 0xF48 JUMP JUMPDEST POP PUSH1 0x5 SLOAD DUP3 LT PUSH2 0xEE2 JUMP JUMPDEST POP CALLVALUE PUSH2 0x27F JUMPI PUSH1 0x20 CALLDATASIZE PUSH1 0x3 NOT ADD SLT PUSH2 0x27F JUMPI PUSH2 0x10A0 PUSH2 0x437B JUMP JUMPDEST PUSH2 0x10A8 PUSH2 0x469A JUMP JUMPDEST PUSH1 0x1 DUP1 PUSH1 0xA0 SHL SUB AND PUSH12 0xFFFFFFFFFFFFFFFFFFFFFFFF PUSH1 0xA0 SHL PUSH1 0x3 SLOAD AND OR PUSH1 0x3 SSTORE DUP1 RETURN JUMPDEST POP CALLVALUE PUSH2 0x27F JUMPI PUSH1 0x20 CALLDATASIZE PUSH1 0x3 NOT ADD SLT PUSH2 0x27F JUMPI PUSH1 0x4 CALLDATALOAD DUP2 MSTORE PUSH1 0x7 PUSH1 0x20 MSTORE PUSH1 0x40 SWAP1 KECCAK256 PUSH2 0x160 DUP2 SWAP1 MSTORE DUP1 SLOAD PUSH2 0x220 MSTORE PUSH1 0x1 DUP2 ADD SLOAD PUSH1 0x2 DUP3 ADD SLOAD PUSH1 0x1 PUSH1 0x1 PUSH1 0xA0 SHL SUB SWAP1 DUP2 AND PUSH2 0x140 MSTORE AND SWAP1 PUSH2 0x111E SWAP1 PUSH1 0x3 ADD PUSH2 0x456D JUMP JUMPDEST PUSH2 0x120 MSTORE PUSH2 0x160 MLOAD PUSH1 0x4 ADD PUSH2 0x1132 SWAP1 PUSH2 0x456D JUMP JUMPDEST PUSH2 0x160 MLOAD PUSH1 0x5 ADD PUSH2 0x1142 SWAP1 PUSH2 0x456D JUMP JUMPDEST SWAP2 PUSH2 0x160 MLOAD PUSH1 0x6 ADD PUSH2 0x1153 SWAP1 PUSH2 0x456D JUMP JUMPDEST SWAP2 PUSH2 0x160 MLOAD PUSH1 0x7 ADD PUSH2 0x1164 SWAP1 PUSH2 0x456D JUMP JUMPDEST SWAP4 PUSH2 0x160 MLOAD SWAP4 PUSH1 0x8 DUP6 ADD SLOAD PUSH1 0xFF AND PUSH1 0xC0 MSTORE PUSH1 0x9 DUP6 ADD SLOAD SWAP6 PUSH1 0xA DUP7 ADD SLOAD PUSH1 0xB DUP8 ADD SLOAD SWAP2 PUSH1 0xC DUP9 ADD SLOAD SWAP4 PUSH1 0xD DUP10 ADD SLOAD SWAP6 PUSH1 0xE DUP11 ADD SLOAD SWAP8 PUSH1 0xF DUP12 ADD SLOAD SWAP10 PUSH1 0x10 DUP13 ADD SLOAD SWAP12 PUSH1 0x11 DUP2 ADD SLOAD PUSH2 0x100 MSTORE PUSH1 0x12 DUP2 ADD SLOAD PUSH1 0xA0 MSTORE PUSH1 0x13 DUP2 ADD SLOAD PUSH2 0x180 MSTORE PUSH1 0x14 DUP2 ADD SLOAD PUSH2 0x200 MSTORE PUSH1 0x15 DUP2 ADD SLOAD PUSH2 0x1C0 MSTORE PUSH1 0x16 DUP2 ADD SLOAD PUSH1 0x80 MSTORE PUSH1 0x17 DUP2 ADD SLOAD PUSH1 0xE0 MSTORE PUSH1 0x18 ADD SLOAD PUSH2 0x1A0 MSTORE PUSH1 0x40 MLOAD DUP1 PUSH2 0x1E0 MSTORE PUSH2 0x220 MLOAD SWAP1 MSTORE PUSH2 0x1E0 MLOAD PUSH1 0x20 ADD MSTORE PUSH2 0x140 MLOAD PUSH2 0x1E0 MLOAD PUSH1 0x40 ADD MSTORE PUSH2 0x400 DUP1 PUSH2 0x1E0 MLOAD PUSH1 0x60 ADD MSTORE PUSH2 0x1E0 MLOAD ADD PUSH2 0x120 MLOAD SWAP1 PUSH2 0x1229 SWAP2 PUSH2 0x4611 JUMP JUMPDEST PUSH2 0x1E0 MLOAD DUP1 DUP3 SUB SWAP1 PUSH1 0x80 ADD MSTORE PUSH2 0x123E SWAP2 PUSH2 0x4611 JUMP JUMPDEST PUSH2 0x1E0 MLOAD DUP1 DUP3 SUB SWAP1 PUSH1 0xA0 ADD MSTORE PUSH2 0x1253 SWAP2 PUSH2 0x4611 JUMP JUMPDEST PUSH2 0x1E0 MLOAD DUP1 DUP3 SUB SWAP1 PUSH1 0xC0 ADD MSTORE PUSH2 0x1268 SWAP2 PUSH2 0x4611 JUMP JUMPDEST PUSH2 0x1E0 MLOAD DUP1 DUP3 SUB SWAP1 PUSH1 0xE0 ADD MSTORE PUSH2 0x127D SWAP2 PUSH2 0x4611 JUMP JUMPDEST SWAP8 PUSH1 0xC0 MLOAD PUSH2 0x128A SWAP1 PUSH2 0x4651 JUMP JUMPDEST PUSH1 0xC0 MLOAD PUSH2 0x1E0 MLOAD PUSH2 0x100 ADD MSTORE PUSH2 0x1E0 MLOAD PUSH2 0x120 ADD MSTORE PUSH2 0x1E0 MLOAD PUSH2 0x140 ADD MSTORE PUSH2 0x1E0 MLOAD PUSH2 0x160 ADD MSTORE PUSH2 0x1E0 MLOAD PUSH2 0x180 ADD MSTORE PUSH2 0x1E0 MLOAD PUSH2 0x1A0 ADD MSTORE PUSH2 0x1E0 MLOAD PUSH2 0x1C0 ADD MSTORE PUSH2 0x1E0 MLOAD PUSH2 0x1E0 ADD MSTORE PUSH2 0x1E0 MLOAD PUSH2 0x200 ADD MSTORE PUSH2 0x100 MLOAD PUSH1 0xFF AND PUSH2 0x12EE SWAP1 PUSH2 0x4410 JUMP JUMPDEST PUSH2 0x100 MLOAD PUSH1 0xFF AND PUSH2 0x1E0 MLOAD PUSH2 0x220 ADD MSTORE PUSH2 0x100 MLOAD PUSH1 0x8 SHR PUSH1 0xFF AND PUSH2 0x1E0 MLOAD PUSH2 0x240 ADD MSTORE PUSH2 0x100 MLOAD PUSH1 0x10 SHR PUSH1 0xFF AND PUSH2 0x1E0 MLOAD PUSH2 0x260 ADD MSTORE PUSH2 0x100 MLOAD PUSH1 0x18 SHR PUSH1 0xFF AND PUSH2 0x1E0 MLOAD PUSH2 0x280 ADD MSTORE PUSH2 0x100 MLOAD PUSH1 0x20 SHR PUSH1 0xFF AND PUSH2 0x134A SWAP1 PUSH2 0x4410 JUMP JUMPDEST PUSH2 0x100 MLOAD PUSH1 0x20 SHR PUSH1 0xFF AND PUSH2 0x1E0 MLOAD PUSH2 0x2A0 ADD MSTORE PUSH1 0x1 PUSH1 0xA0 SHL PUSH1 0x1 SWAP1 SUB PUSH2 0x100 MLOAD PUSH1 0x28 SHR AND PUSH2 0x1E0 MLOAD PUSH2 0x2C0 ADD MSTORE PUSH1 0xA0 MLOAD PUSH2 0x1E0 MLOAD PUSH2 0x2E0 ADD MSTORE PUSH2 0x180 MLOAD PUSH2 0x1E0 MLOAD PUSH2 0x300 ADD MSTORE PUSH2 0x200 MLOAD PUSH1 0xFF AND ISZERO ISZERO PUSH2 0x1E0 MLOAD PUSH2 0x320 ADD MSTORE PUSH2 0x200 MLOAD PUSH1 0x8 SHR PUSH1 0xFF AND PUSH2 0x13B5 SWAP1 PUSH2 0x4651 JUMP JUMPDEST PUSH2 0x200 MLOAD PUSH1 0x8 SHR PUSH1 0xFF AND PUSH2 0x1E0 MLOAD PUSH2 0x340 ADD MSTORE PUSH2 0x1E0 MLOAD PUSH2 0x360 ADD PUSH2 0x200 MLOAD PUSH1 0x10 SHR PUSH1 0xFF AND SWAP1 PUSH2 0x13E4 SWAP2 PUSH2 0x465B JUMP JUMPDEST PUSH2 0x1C0 MLOAD PUSH2 0x1E0 MLOAD PUSH2 0x380 ADD MSTORE PUSH1 0x80 MLOAD PUSH2 0x1E0 MLOAD PUSH2 0x3A0 ADD MSTORE PUSH1 0xE0 MLOAD PUSH2 0x1E0 MLOAD PUSH2 0x3C0 ADD MSTORE PUSH2 0x1A0 MLOAD PUSH2 0x1E0 MLOAD PUSH2 0x3E0 ADD MSTORE PUSH2 0x1E0 MLOAD DUP1 SWAP2 SUB SWAP1 RETURN JUMPDEST POP CALLVALUE PUSH2 0x27F JUMPI PUSH1 0x20 CALLDATASIZE PUSH1 0x3 NOT ADD SLT PUSH2 0x27F JUMPI PUSH1 0x40 SWAP1 PUSH1 0x4 CALLDATALOAD DUP2 MSTORE PUSH1 0x9 PUSH1 0x20 MSTORE KECCAK256 DUP1 SLOAD SWAP1 PUSH2 0x277 PUSH1 0x1 DUP3 ADD SLOAD PUSH1 0x2 DUP4 ADD SLOAD SWAP3 PUSH1 0x3 DUP2 ADD SLOAD SWAP5 PUSH1 0x4 DUP3 ADD SLOAD SWAP3 PUSH1 0x5 DUP4 ADD SLOAD SWAP2 PUSH1 0x6 DUP5 ADD SLOAD SWAP1 PUSH1 0x7 DUP6 ADD SLOAD SWAP2 PUSH1 0x8 DUP7 ADD SLOAD SWAP5 PUSH1 0xFF PUSH1 0xA PUSH1 0x9 DUP10 ADD SLOAD SWAP9 ADD SLOAD AND SWAP8 PUSH1 0x40 MLOAD SWAP12 DUP13 SWAP12 DUP13 PUSH1 0xFF DUP9 PUSH1 0x10 SHR AND SWAP9 PUSH1 0xFF DUP1 DUP11 PUSH1 0x8 SHR AND SWAP10 AND SWAP8 PUSH1 0xFF DUP5 PUSH1 0xA0 SHR AND SWAP4 PUSH1 0x1 DUP1 PUSH1 0xA0 SHL SUB AND SWAP3 PUSH2 0x4427 JUMP JUMPDEST POP CALLVALUE PUSH2 0x27F JUMPI PUSH1 0x20 DUP1 PUSH1 0x3 NOT CALLDATASIZE ADD SLT PUSH2 0x301 JUMPI PUSH1 0x1 PUSH1 0x1 PUSH1 0xA0 SHL SUB PUSH2 0x14D6 PUSH2 0x437B JUMP JUMPDEST AND DUP3 MSTORE PUSH1 0xA DUP2 MSTORE PUSH1 0x40 DUP3 KECCAK256 SWAP2 PUSH1 0x40 MLOAD DUP1 SWAP3 DUP1 DUP6 SLOAD SWAP3 DUP4 DUP2 MSTORE ADD SWAP5 DUP4 MSTORE DUP1 DUP4 KECCAK256 SWAP3 SWAP1 JUMPDEST DUP3 DUP3 LT PUSH2 0x150F JUMPI PUSH2 0x277 DUP6 PUSH2 0x2DE DUP2 DUP10 SUB DUP3 PUSH2 0x454C JUMP JUMPDEST DUP4 SLOAD DUP7 MSTORE SWAP5 DUP6 ADD SWAP5 PUSH1 0x1 SWAP4 DUP5 ADD SWAP4 SWAP1 SWAP2 ADD SWAP1 PUSH2 0x14F8 JUMP JUMPDEST POP CALLVALUE PUSH2 0x27F JUMPI DUP1 PUSH1 0x3 NOT CALLDATASIZE ADD SLT PUSH2 0x27F JUMPI PUSH1 0x20 SWAP1 PUSH1 0x40 MLOAD SWAP1 DUP2 MSTORE RETURN JUMPDEST POP CALLVALUE PUSH2 0x27F JUMPI PUSH2 0x260 CALLDATASIZE PUSH1 0x3 NOT ADD SLT PUSH2 0x27F JUMPI PUSH1 0x4 CALLDATALOAD PUSH1 0x1 PUSH1 0x1 PUSH1 0x40 SHL SUB DUP2 GT PUSH2 0x301 JUMPI PUSH2 0x1574 SWAP1 CALLDATASIZE SWAP1 PUSH1 0x4 ADD PUSH2 0x433E JUMP JUMPDEST PUSH1 0x24 CALLDATALOAD PUSH1 0x1 PUSH1 0x1 PUSH1 0x40 SHL SUB DUP2 GT PUSH2 0x63A JUMPI PUSH2 0x1593 SWAP1 CALLDATASIZE SWAP1 PUSH1 0x4 ADD PUSH2 0x433E JUMP JUMPDEST SWAP1 PUSH1 0x44 CALLDATALOAD PUSH1 0x1 PUSH1 0x1 PUSH1 0x40 SHL SUB DUP2 GT PUSH2 0x1F65 JUMPI PUSH2 0x15B3 SWAP1 CALLDATASIZE SWAP1 PUSH1 0x4 ADD PUSH2 0x433E JUMP JUMPDEST SWAP1 PUSH1 0x64 CALLDATALOAD PUSH1 0x1 PUSH1 0x1 PUSH1 0x40 SHL SUB DUP2 GT PUSH2 0x1F61 JUMPI PUSH2 0x15D3 SWAP1 CALLDATASIZE SWAP1 PUSH1 0x4 ADD PUSH2 0x433E JUMP JUMPDEST SWAP1 PUSH1 0x84 CALLDATALOAD PUSH1 0x1 PUSH1 0x1 PUSH1 0x40 SHL SUB DUP2 GT PUSH2 0x1F5D JUMPI PUSH2 0x15F3 SWAP1 CALLDATASIZE SWAP1 PUSH1 0x4 ADD PUSH2 0x433E JUMP JUMPDEST SWAP10 SWAP1 SWAP9 PUSH1 0x2 PUSH1 0xA4 CALLDATALOAD LT ISZERO PUSH2 0x301 JUMPI PUSH1 0x3 PUSH2 0x144 CALLDATALOAD LT ISZERO PUSH2 0x301 JUMPI PUSH2 0x164 CALLDATALOAD PUSH1 0x1 PUSH1 0x1 PUSH1 0xA0 SHL SUB DUP2 AND SWAP1 SUB PUSH2 0x1F04 JUMPI PUSH2 0x1629 PUSH2 0x436B JUMP JUMPDEST PUSH1 0x3 PUSH2 0x1E4 CALLDATALOAD LT ISZERO PUSH2 0x27B JUMPI PUSH1 0xFF PUSH2 0x204 CALLDATALOAD AND PUSH2 0x204 CALLDATALOAD SUB PUSH2 0x1F04 JUMPI PUSH1 0xFF PUSH2 0x224 CALLDATALOAD AND PUSH2 0x224 CALLDATALOAD SUB PUSH2 0x1F04 JUMPI PUSH1 0x2 PUSH2 0x244 CALLDATALOAD LT ISZERO PUSH2 0x27B JUMPI PUSH2 0x1669 PUSH2 0x4A90 JUMP JUMPDEST PUSH2 0x1671 PUSH2 0x4A72 JUMP JUMPDEST PUSH2 0x167E PUSH1 0xC4 CALLDATALOAD ISZERO ISZERO PUSH2 0x480B JUMP JUMPDEST PUSH2 0x168B TIMESTAMP PUSH1 0xE4 CALLDATALOAD GT PUSH2 0x4866 JUMP JUMPDEST PUSH1 0x2 SLOAD PUSH1 0x40 MLOAD PUSH4 0x5D8EB687 PUSH1 0xE0 SHL DUP2 MSTORE SWAP1 PUSH1 0x8 SHR PUSH1 0x1 PUSH1 0x1 PUSH1 0xA0 SHL SUB AND PUSH1 0x20 DUP3 PUSH1 0x4 DUP2 DUP5 GAS STATICCALL SWAP2 DUP3 ISZERO PUSH2 0x1F52 JUMPI DUP6 SWAP3 PUSH2 0x1F1C JUMPI JUMPDEST POP PUSH2 0x16D1 PUSH1 0x4 SWAP3 PUSH2 0x124 CALLDATALOAD LT ISZERO PUSH2 0x48C0 JUMP JUMPDEST DUP2 SLOAD PUSH1 0x3 SLOAD PUSH1 0x40 MLOAD PUSH4 0x37382D39 PUSH1 0xE2 SHL DUP2 MSTORE SWAP4 PUSH1 0x1 PUSH1 0x1 PUSH1 0xA0 SHL SUB SWAP3 DUP4 AND SWAP4 SWAP3 SWAP1 SWAP2 AND SWAP2 PUSH1 0x20 SWAP2 DUP6 SWAP2 DUP3 SWAP1 GAS STATICCALL SWAP2 DUP3 ISZERO PUSH2 0x1F11 JUMPI DUP7 SWAP3 PUSH2 0x1ED6 JUMPI JUMPDEST PUSH2 0x1718 SWAP4 POP CALLER SWAP1 PUSH2 0x49CB JUMP JUMPDEST PUSH1 0x5 SLOAD SWAP10 PUSH2 0x1725 DUP12 PUSH2 0x490B JUMP JUMPDEST PUSH1 0x5 SSTORE DUP11 DUP5 MSTORE PUSH1 0x7 PUSH1 0x20 MSTORE PUSH1 0x40 DUP5 KECCAK256 DUP12 DUP2 SSTORE PUSH1 0x1 DUP2 ADD DUP1 SLOAD PUSH1 0x1 PUSH1 0x1 PUSH1 0xA0 SHL SUB NOT AND CALLER OR SWAP1 SSTORE SWAP3 PUSH1 0x1 PUSH1 0x1 PUSH1 0x40 SHL SUB DUP3 GT PUSH2 0x1EC2 JUMPI DUP2 SWAP1 PUSH2 0x1769 PUSH1 0x3 DUP7 ADD SLOAD PUSH2 0x44B1 JUMP JUMPDEST PUSH1 0x1F DUP2 GT PUSH2 0x1E71 JUMPI JUMPDEST POP DUP6 SWAP1 PUSH1 0x1F DUP4 GT PUSH1 0x1 EQ PUSH2 0x1E05 JUMPI DUP7 SWAP3 PUSH2 0x1DFA JUMPI JUMPDEST POP POP DUP2 PUSH1 0x1 SHL SWAP2 PUSH1 0x0 NOT SWAP1 PUSH1 0x3 SHL SHR NOT AND OR PUSH1 0x3 DUP4 ADD SSTORE JUMPDEST PUSH1 0x1 PUSH1 0x1 PUSH1 0x40 SHL SUB DUP10 GT PUSH2 0x1BB6 JUMPI PUSH2 0x17BA PUSH1 0x4 DUP4 ADD SLOAD PUSH2 0x44B1 JUMP JUMPDEST PUSH1 0x1F DUP2 GT PUSH2 0x1DB5 JUMPI JUMPDEST POP DUP9 DUP4 PUSH1 0x1F DUP3 GT PUSH1 0x1 EQ PUSH2 0x1D49 JUMPI DUP5 SWAP2 PUSH2 0x1D3E JUMPI JUMPDEST POP DUP10 PUSH1 0x1 SHL SWAP1 PUSH1 0x0 NOT DUP12 PUSH1 0x3 SHL SHR NOT AND OR PUSH1 0x4 DUP4 ADD SSTORE JUMPDEST PUSH1 0x1 PUSH1 0x1 PUSH1 0x40 SHL SUB DUP8 GT PUSH2 0x1BB6 JUMPI PUSH2 0x180A PUSH1 0x5 DUP4 ADD SLOAD PUSH2 0x44B1 JUMP JUMPDEST PUSH1 0x1F DUP2 GT PUSH2 0x1CF9 JUMPI JUMPDEST POP DUP7 DUP4 PUSH1 0x1F DUP3 GT PUSH1 0x1 EQ PUSH2 0x1C8F JUMPI DUP5 SWAP2 PUSH2 0x1C84 JUMPI JUMPDEST POP DUP8 PUSH1 0x1 SHL SWAP1 PUSH1 0x0 NOT DUP10 PUSH1 0x3 SHL SHR NOT AND OR PUSH1 0x5 DUP4 ADD SSTORE JUMPDEST PUSH1 0x1 PUSH1 0x1 PUSH1 0x40 SHL SUB DUP6 GT PUSH2 0x1BB6 JUMPI PUSH2 0x185A PUSH1 0x6 DUP4 ADD SLOAD PUSH2 0x44B1 JUMP JUMPDEST PUSH1 0x1F DUP2 GT PUSH2 0x1C3F JUMPI JUMPDEST POP DUP5 DUP4 PUSH1 0x1F DUP3 GT PUSH1 0x1 EQ PUSH2 0x1BD5 JUMPI DUP5 SWAP2 PUSH2 0x1BCA JUMPI JUMPDEST POP DUP6 PUSH1 0x1 SHL SWAP1 PUSH1 0x0 NOT DUP8 PUSH1 0x3 SHL SHR NOT AND OR PUSH1 0x6 DUP4 ADD SSTORE JUMPDEST PUSH1 0x1 PUSH1 0x1 PUSH1 0x40 SHL SUB DUP13 GT PUSH2 0x1BB6 JUMPI PUSH2 0x18AA PUSH1 0x7 DUP4 ADD SLOAD PUSH2 0x44B1 JUMP JUMPDEST SWAP12 PUSH1 0x1F DUP14 GT PUSH2 0x1B6D JUMPI JUMPDEST PUSH1 0x20 SWAP13 POP DUP4 SWAP12 PUSH1 0x1F DUP3 GT PUSH1 0x1 EQ PUSH2 0x1ADA JUMPI SWAP11 PUSH2 0x1A34 SWAP7 DUP15 DUP3 SWAP15 SWAP8 PUSH2 0x1A04 PUSH2 0x1A4C SWAP16 DUP6 SWAP16 SWAP15 SWAP13 SWAP8 DUP11 DUP6 SWAP16 SWAP12 SWAP11 PUSH1 0x40 SWAP3 DUP11 DUP11 SWAP16 SWAP12 PUSH2 0x1A1C SWAP13 DUP11 SWAP16 SWAP8 DUP14 SWAP9 SWAP3 PUSH2 0x1ACF JUMPI JUMPDEST POP POP DUP2 PUSH1 0x1 SHL SWAP2 PUSH1 0x0 NOT SWAP1 PUSH1 0x3 SHL SHR NOT AND OR PUSH1 0x7 DUP4 ADD SSTORE JUMPDEST PUSH2 0x191C PUSH1 0xA4 CALLDATALOAD PUSH1 0x8 DUP5 ADD PUSH2 0x4930 JUMP JUMPDEST PUSH1 0xC4 CALLDATALOAD PUSH1 0x9 DUP4 ADD SSTORE PUSH1 0xE4 CALLDATALOAD PUSH1 0xB DUP4 ADD SSTORE PUSH2 0x104 CALLDATALOAD PUSH1 0xC DUP4 ADD SSTORE PUSH2 0x124 CALLDATALOAD PUSH1 0x10 DUP4 ADD SSTORE PUSH2 0x19DA PUSH1 0x11 DUP4 ADD PUSH2 0x1952 PUSH2 0x144 CALLDATALOAD DUP3 PUSH2 0x4948 JUMP JUMPDEST DUP1 SLOAD PUSH6 0x10000000000 PUSH1 0x1 PUSH1 0xC8 SHL SUB NOT AND PUSH2 0x164 CALLDATALOAD PUSH1 0x28 SHL PUSH6 0x10000000000 PUSH1 0x1 PUSH1 0xC8 SHL SUB AND OR DUP2 SSTORE PUSH2 0x184 CALLDATALOAD PUSH1 0x12 DUP6 ADD SSTORE PUSH2 0x1A4 CALLDATALOAD PUSH1 0x13 DUP6 ADD SSTORE PUSH1 0x14 DUP5 ADD DUP1 SLOAD SWAP4 ISZERO ISZERO PUSH1 0xFF AND PUSH1 0xFF NOT SWAP5 SWAP1 SWAP5 AND SWAP4 SWAP1 SWAP4 OR DUP4 SSTORE PUSH2 0x19B3 PUSH2 0x1E4 CALLDATALOAD DUP3 PUSH2 0x496D JUMP JUMPDEST DUP1 SLOAD PUSH3 0xFF0000 PUSH2 0x224 CALLDATALOAD PUSH1 0x10 SHL AND PUSH3 0xFFFF00 NOT SWAP1 SWAP2 AND PUSH2 0xFF00 PUSH2 0x204 CALLDATALOAD PUSH1 0x8 SHL AND OR OR SWAP1 SSTORE JUMP JUMPDEST PUSH2 0x19E7 PUSH2 0x244 CALLDATALOAD DUP3 PUSH2 0x4977 JUMP JUMPDEST PUSH3 0xFF0000 NOT DUP2 SLOAD AND SWAP1 SSTORE PUSH1 0x15 TIMESTAMP SWAP2 ADD SSTORE CALLER DUP2 MSTORE PUSH1 0xA DUP7 MSTORE KECCAK256 PUSH2 0x4996 JUMP JUMPDEST DUP3 PUSH1 0x40 MLOAD SWAP4 DUP5 SWAP3 DUP4 CALLDATACOPY DUP2 ADD PUSH1 0xC DUP2 MSTORE SUB ADD SWAP1 KECCAK256 PUSH2 0x4996 JUMP JUMPDEST DUP3 PUSH1 0x40 MLOAD SWAP4 DUP5 SWAP3 DUP4 CALLDATACOPY DUP2 ADD PUSH1 0xD DUP2 MSTORE SUB ADD SWAP1 KECCAK256 PUSH2 0x4996 JUMP JUMPDEST DUP3 PUSH1 0x40 MLOAD SWAP4 DUP5 SWAP3 DUP4 CALLDATACOPY DUP2 ADD PUSH1 0xE DUP2 MSTORE SUB ADD SWAP1 KECCAK256 PUSH2 0x4996 JUMP JUMPDEST PUSH1 0x40 MLOAD PUSH1 0x1 DUP2 MSTORE TIMESTAMP DUP4 DUP3 ADD MSTORE DUP2 PUSH32 0xC0C6ED2669FEBBE340D8737E8EC17254FFD9E038B54A4585FF70AC3CA18956AA PUSH1 0x40 CALLER SWAP4 LOG3 DUP1 PUSH1 0x0 DUP1 MLOAD PUSH1 0x20 PUSH2 0x4D49 DUP4 CODECOPY DUP2 MLOAD SWAP2 MSTORE PUSH1 0xC0 PUSH1 0x40 MLOAD PUSH1 0x0 DUP2 MSTORE PUSH1 0x0 DUP7 DUP3 ADD MSTORE PUSH1 0x80 PUSH1 0x40 DUP3 ADD MSTORE PUSH1 0x7 PUSH1 0x80 DUP3 ADD MSTORE PUSH7 0x18DC99585D1959 PUSH1 0xCA SHL PUSH1 0xA0 DUP3 ADD MSTORE TIMESTAMP PUSH1 0x60 DUP3 ADD MSTORE LOG2 PUSH1 0x1 DUP1 SSTORE PUSH1 0x40 MLOAD SWAP1 DUP2 MSTORE RETURN JUMPDEST ADD CALLDATALOAD SWAP1 POP CODESIZE DUP1 PUSH2 0x18F5 JUMP JUMPDEST PUSH1 0x7 DUP5 ADD DUP6 MSTORE DUP14 DUP6 KECCAK256 SWAP1 DUP6 SWAP14 DUP15 JUMPDEST PUSH1 0x1F NOT DUP6 AND GT PUSH2 0x1B55 JUMPI DUP16 SWAP11 SWAP7 DUP15 SWAP16 POP SWAP8 PUSH2 0x1A04 PUSH2 0x1A4C SWAP16 SWAP15 SWAP14 SWAP12 SWAP7 DUP16 SWAP11 PUSH1 0x40 SWAP1 DUP16 SWAP11 DUP14 SWAP9 SWAP4 PUSH2 0x1A34 SWAP16 SWAP9 DUP12 DUP12 SWAP7 DUP16 SWAP11 SWAP3 PUSH1 0x1 SWAP4 PUSH2 0x1A1C SWAP16 PUSH1 0x1F NOT DUP2 AND LT PUSH2 0x1B3B JUMPI JUMPDEST POP POP POP DUP2 SHL ADD PUSH1 0x7 DUP4 ADD SSTORE PUSH2 0x190D JUMP JUMPDEST ADD CALLDATALOAD PUSH1 0x0 NOT PUSH1 0x3 DUP5 SWAP1 SHL PUSH1 0xF8 AND SHR NOT AND SWAP1 SSTORE CODESIZE DUP1 DUP1 PUSH2 0x1B2B JUMP JUMPDEST SWAP2 DUP16 PUSH1 0x1 DUP2 SWAP3 DUP6 DUP6 ADD CALLDATALOAD DUP2 SSTORE ADD SWAP4 ADD SWAP15 ADD SWAP14 DUP15 PUSH2 0x1AE8 JUMP JUMPDEST PUSH1 0x7 DUP4 ADD DUP5 MSTORE PUSH1 0x20 DUP5 KECCAK256 PUSH1 0x1F DUP3 ADD PUSH1 0x5 SHR DUP2 ADD PUSH1 0x20 DUP4 LT PUSH2 0x1BAF JUMPI JUMPDEST PUSH1 0x1F DUP16 JUMPDEST ADD PUSH1 0x5 SHR DUP3 ADD DUP2 LT PUSH2 0x1BA0 JUMPI POP POP PUSH2 0x18B4 JUMP JUMPDEST PUSH1 0x0 DUP2 SSTORE PUSH1 0x1 ADD PUSH1 0x1F DUP16 PUSH2 0x1B8D JUMP JUMPDEST POP DUP1 PUSH2 0x1B89 JUMP JUMPDEST PUSH4 0x4E487B71 PUSH1 0xE0 SHL DUP4 MSTORE PUSH1 0x41 PUSH1 0x4 MSTORE PUSH1 0x24 DUP4 REVERT JUMPDEST SWAP1 POP DUP5 ADD CALLDATALOAD CODESIZE PUSH2 0x1878 JUMP JUMPDEST PUSH1 0x6 DUP5 ADD DUP6 MSTORE PUSH1 0x20 DUP6 KECCAK256 SWAP2 POP DUP5 JUMPDEST PUSH1 0x1F NOT DUP9 AND DUP2 LT PUSH2 0x1C27 JUMPI POP DUP7 PUSH1 0x1F NOT DUP2 AND LT PUSH2 0x1C0D JUMPI JUMPDEST POP POP PUSH1 0x1 DUP6 DUP2 SHL ADD PUSH1 0x6 DUP4 ADD SSTORE PUSH2 0x188F JUMP JUMPDEST DUP6 ADD CALLDATALOAD PUSH1 0x0 NOT PUSH1 0x3 DUP9 SWAP1 SHL PUSH1 0xF8 AND SHR NOT AND SWAP1 SSTORE CODESIZE DUP1 PUSH2 0x1BFB JUMP JUMPDEST SWAP1 SWAP2 PUSH1 0x20 PUSH1 0x1 DUP2 SWAP3 DUP6 DUP11 ADD CALLDATALOAD DUP2 SSTORE ADD SWAP4 ADD SWAP2 ADD PUSH2 0x1BE3 JUMP JUMPDEST PUSH1 0x6 DUP4 ADD DUP5 MSTORE PUSH1 0x20 DUP5 KECCAK256 PUSH1 0x1F DUP8 ADD PUSH1 0x5 SHR DUP2 ADD PUSH1 0x20 DUP9 LT PUSH2 0x1C7D JUMPI JUMPDEST PUSH1 0x1F DUP4 ADD PUSH1 0x5 SHR DUP3 ADD DUP2 LT PUSH2 0x1C71 JUMPI POP POP PUSH2 0x1863 JUMP JUMPDEST PUSH1 0x0 DUP2 SSTORE PUSH1 0x1 ADD PUSH2 0x1C5B JUMP JUMPDEST POP DUP1 PUSH2 0x1C5B JUMP JUMPDEST SWAP1 POP DUP7 ADD CALLDATALOAD CODESIZE PUSH2 0x1828 JUMP JUMPDEST PUSH1 0x5 DUP5 ADD DUP6 MSTORE PUSH1 0x20 DUP6 KECCAK256 SWAP2 POP DUP5 JUMPDEST PUSH1 0x1F NOT DUP11 AND DUP2 LT PUSH2 0x1CE1 JUMPI POP DUP9 PUSH1 0x1F NOT DUP2 AND LT PUSH2 0x1CC7 JUMPI JUMPDEST POP POP PUSH1 0x1 DUP8 DUP2 SHL ADD PUSH1 0x5 DUP4 ADD SSTORE PUSH2 0x183F JUMP JUMPDEST DUP8 ADD CALLDATALOAD PUSH1 0x0 NOT PUSH1 0x3 DUP11 SWAP1 SHL PUSH1 0xF8 AND SHR NOT AND SWAP1 SSTORE CODESIZE DUP1 PUSH2 0x1CB5 JUMP JUMPDEST SWAP1 SWAP2 PUSH1 0x20 PUSH1 0x1 DUP2 SWAP3 DUP6 DUP13 ADD CALLDATALOAD DUP2 SSTORE ADD SWAP4 ADD SWAP2 ADD PUSH2 0x1C9D JUMP JUMPDEST PUSH1 0x5 DUP4 ADD DUP5 MSTORE PUSH1 0x20 DUP5 KECCAK256 PUSH1 0x1F DUP10 ADD PUSH1 0x5 SHR DUP2 ADD PUSH1 0x20 DUP11 LT PUSH2 0x1D37 JUMPI JUMPDEST PUSH1 0x1F DUP4 ADD PUSH1 0x5 SHR DUP3 ADD DUP2 LT PUSH2 0x1D2B JUMPI POP POP PUSH2 0x1813 JUMP JUMPDEST PUSH1 0x0 DUP2 SSTORE PUSH1 0x1 ADD PUSH2 0x1D15 JUMP JUMPDEST POP DUP1 PUSH2 0x1D15 JUMP JUMPDEST SWAP1 POP DUP9 ADD CALLDATALOAD CODESIZE PUSH2 0x17D8 JUMP JUMPDEST PUSH1 0x4 DUP5 ADD DUP6 MSTORE PUSH1 0x20 DUP6 KECCAK256 SWAP2 POP DUP5 JUMPDEST DUP11 PUSH1 0x1F NOT DUP14 AND DUP3 LT PUSH2 0x1D9D JUMPI POP POP DUP11 PUSH1 0x1F NOT DUP2 AND LT PUSH2 0x1D83 JUMPI JUMPDEST POP POP PUSH1 0x1 DUP10 DUP2 SHL ADD PUSH1 0x4 DUP4 ADD SSTORE PUSH2 0x17EF JUMP JUMPDEST DUP10 ADD CALLDATALOAD PUSH1 0x0 NOT PUSH1 0x3 DUP13 SWAP1 SHL PUSH1 0xF8 AND SHR NOT AND SWAP1 SSTORE CODESIZE DUP1 PUSH2 0x1D71 JUMP JUMPDEST PUSH1 0x1 DUP4 SWAP5 PUSH1 0x20 SWAP4 SWAP5 DUP5 SWAP4 ADD CALLDATALOAD DUP2 SSTORE ADD SWAP4 ADD SWAP2 ADD PUSH2 0x1D57 JUMP JUMPDEST PUSH1 0x4 DUP4 ADD DUP5 MSTORE PUSH1 0x20 DUP5 KECCAK256 PUSH1 0x1F DUP12 ADD PUSH1 0x5 SHR DUP2 ADD PUSH1 0x20 DUP13 LT PUSH2 0x1DF3 JUMPI JUMPDEST PUSH1 0x1F DUP4 ADD PUSH1 0x5 SHR DUP3 ADD DUP2 LT PUSH2 0x1DE7 JUMPI POP POP PUSH2 0x17C3 JUMP JUMPDEST PUSH1 0x0 DUP2 SSTORE PUSH1 0x1 ADD PUSH2 0x1DD1 JUMP JUMPDEST POP DUP1 PUSH2 0x1DD1 JUMP JUMPDEST ADD CALLDATALOAD SWAP1 POP CODESIZE DUP1 PUSH2 0x1787 JUMP JUMPDEST PUSH1 0x3 DUP7 ADD DUP8 MSTORE PUSH1 0x20 DUP8 KECCAK256 DUP8 SWAP5 POP SWAP2 JUMPDEST PUSH1 0x1F NOT DUP5 AND DUP6 LT PUSH2 0x1E59 JUMPI PUSH1 0x1 SWAP5 POP DUP4 PUSH1 0x1F NOT DUP2 AND LT PUSH2 0x1E3F JUMPI JUMPDEST POP POP POP DUP2 SHL ADD PUSH1 0x3 DUP4 ADD SSTORE PUSH2 0x179F JUMP JUMPDEST ADD CALLDATALOAD PUSH1 0x0 NOT PUSH1 0x3 DUP5 SWAP1 SHL PUSH1 0xF8 AND SHR NOT AND SWAP1 SSTORE CODESIZE DUP1 DUP1 PUSH2 0x1E2F JUMP JUMPDEST DUP2 DUP2 ADD CALLDATALOAD DUP4 SSTORE PUSH1 0x20 SWAP5 DUP6 ADD SWAP5 PUSH1 0x1 SWAP1 SWAP4 ADD SWAP3 ADD PUSH2 0x1E14 JUMP JUMPDEST SWAP1 SWAP2 POP PUSH1 0x3 DUP6 ADD DUP7 MSTORE PUSH1 0x20 DUP7 KECCAK256 PUSH1 0x1F DUP5 ADD PUSH1 0x5 SHR DUP2 ADD PUSH1 0x20 DUP6 LT PUSH2 0x1EBB JUMPI JUMPDEST SWAP1 DUP5 SWAP4 SWAP3 SWAP2 JUMPDEST PUSH1 0x1F DUP4 ADD PUSH1 0x5 SHR DUP3 ADD DUP2 LT PUSH2 0x1EAC JUMPI POP POP PUSH2 0x1772 JUMP JUMPDEST PUSH1 0x0 DUP2 SSTORE DUP6 SWAP5 POP PUSH1 0x1 ADD PUSH2 0x1E96 JUMP JUMPDEST POP DUP1 PUSH2 0x1E90 JUMP JUMPDEST PUSH4 0x4E487B71 PUSH1 0xE0 SHL DUP6 MSTORE PUSH1 0x41 PUSH1 0x4 MSTORE PUSH1 0x24 DUP6 REVERT JUMPDEST SWAP2 POP PUSH1 0x20 DUP4 RETURNDATASIZE PUSH1 0x20 GT PUSH2 0x1F09 JUMPI JUMPDEST DUP2 PUSH2 0x1EF1 PUSH1 0x20 SWAP4 DUP4 PUSH2 0x454C JUMP JUMPDEST DUP2 ADD SUB SLT PUSH2 0x1F04 JUMPI PUSH2 0x1718 SWAP3 MLOAD SWAP2 PUSH2 0x170C JUMP JUMPDEST PUSH1 0x0 DUP1 REVERT JUMPDEST RETURNDATASIZE SWAP2 POP PUSH2 0x1EE4 JUMP JUMPDEST PUSH1 0x40 MLOAD RETURNDATASIZE DUP9 DUP3 RETURNDATACOPY RETURNDATASIZE SWAP1 REVERT JUMPDEST SWAP2 POP PUSH1 0x20 DUP3 RETURNDATASIZE PUSH1 0x20 GT PUSH2 0x1F4A JUMPI JUMPDEST DUP2 PUSH2 0x1F37 PUSH1 0x20 SWAP4 DUP4 PUSH2 0x454C JUMP JUMPDEST DUP2 ADD SUB SLT PUSH2 0x1F04 JUMPI SWAP1 MLOAD SWAP1 PUSH2 0x16D1 PUSH2 0x16BF JUMP JUMPDEST RETURNDATASIZE SWAP2 POP PUSH2 0x1F2A JUMP JUMPDEST PUSH1 0x40 MLOAD RETURNDATASIZE DUP8 DUP3 RETURNDATACOPY RETURNDATASIZE SWAP1 REVERT JUMPDEST DUP10 DUP1 REVERT JUMPDEST DUP8 DUP1 REVERT JUMPDEST DUP6 DUP1 REVERT JUMPDEST POP CALLVALUE PUSH2 0x27F JUMPI PUSH1 0x40 CALLDATASIZE PUSH1 0x3 NOT ADD SLT PUSH2 0x27F JUMPI PUSH1 0x40 PUSH2 0x1F85 PUSH2 0x4391 JUMP JUMPDEST SWAP2 PUSH1 0x4 CALLDATALOAD DUP2 MSTORE DUP1 PUSH1 0x20 MSTORE KECCAK256 SWAP1 PUSH1 0x1 DUP1 PUSH1 0xA0 SHL SUB AND PUSH1 0x0 MSTORE PUSH1 0x20 MSTORE PUSH1 0x20 PUSH1 0xFF PUSH1 0x40 PUSH1 0x0 KECCAK256 SLOAD AND PUSH1 0x40 MLOAD SWAP1 ISZERO ISZERO DUP2 MSTORE RETURN JUMPDEST POP CALLVALUE PUSH2 0x27F JUMPI PUSH1 0x20 CALLDATASIZE PUSH1 0x3 NOT ADD SLT PUSH2 0x27F JUMPI PUSH1 0x4 CALLDATALOAD ISZERO ISZERO DUP1 PUSH2 0x24BB JUMPI JUMPDEST PUSH2 0x1FDA SWAP1 PUSH2 0x4B38 JUMP JUMPDEST PUSH2 0x1FE2 PUSH2 0x4A90 JUMP JUMPDEST PUSH2 0x1FEA PUSH2 0x4A72 JUMP JUMPDEST PUSH1 0x4 CALLDATALOAD DUP2 MSTORE PUSH1 0x7 PUSH1 0x20 MSTORE PUSH1 0x40 DUP2 KECCAK256 PUSH1 0x14 DUP2 ADD SWAP1 PUSH1 0xFF DUP3 SLOAD PUSH1 0x10 SHR AND PUSH1 0xB DUP2 LT ISZERO PUSH2 0x24A7 JUMPI PUSH1 0x6 SUB PUSH2 0x2456 JUMPI PUSH1 0x18 DUP2 ADD SLOAD SWAP2 DUP3 ISZERO PUSH2 0x2411 JUMPI PUSH2 0x202D PUSH1 0x7 DUP4 ADD PUSH2 0x456D JUMP JUMPDEST SWAP4 DUP1 SWAP5 DUP2 SWAP4 DUP3 SWAP4 DUP4 JUMPDEST DUP4 MLOAD DUP2 LT ISZERO PUSH2 0x213F JUMPI PUSH1 0x1 PUSH1 0x1 PUSH1 0xF8 SHL SUB NOT PUSH1 0x17 PUSH1 0xF9 SHL DUP2 PUSH2 0x2058 DUP5 DUP9 PUSH2 0x4D37 JUMP JUMPDEST MLOAD AND EQ PUSH2 0x2131 JUMPI PUSH1 0x3 PUSH1 0xFC SHL DUP2 PUSH2 0x206F DUP5 DUP9 PUSH2 0x4D37 JUMP JUMPDEST MLOAD AND LT ISZERO SWAP1 DUP2 PUSH2 0x2116 JUMPI JUMPDEST POP PUSH2 0x208E JUMPI JUMPDEST PUSH2 0x2089 SWAP1 PUSH2 0x490B JUMP JUMPDEST PUSH2 0x2036 JUMP JUMPDEST DUP9 PUSH1 0xA DUP2 SWAP10 SWAP9 SWAP8 SWAP10 MUL DIV PUSH1 0xA EQ DUP10 ISZERO OR ISZERO PUSH2 0x2102 JUMPI PUSH1 0x2F NOT PUSH2 0x20B0 DUP3 DUP7 PUSH2 0x4D37 JUMP JUMPDEST MLOAD PUSH1 0xF8 SHR ADD PUSH1 0xFF DUP2 GT PUSH2 0x20EE JUMPI DUP9 SWAP10 PUSH1 0xA PUSH1 0xFF PUSH2 0x20D3 SWAP4 SWAP12 SWAP10 SWAP11 SWAP12 AND SWAP2 MUL PUSH2 0x4B2B JUMP JUMPDEST SWAP9 ISZERO PUSH2 0x2080 JUMPI SWAP6 PUSH2 0x20E6 PUSH2 0x2089 SWAP2 PUSH2 0x490B JUMP JUMPDEST SWAP7 SWAP1 POP PUSH2 0x2080 JUMP JUMPDEST PUSH4 0x4E487B71 PUSH1 0xE0 SHL DUP7 MSTORE PUSH1 0x11 PUSH1 0x4 MSTORE PUSH1 0x24 DUP7 REVERT JUMPDEST PUSH4 0x4E487B71 PUSH1 0xE0 SHL DUP6 MSTORE PUSH1 0x11 PUSH1 0x4 MSTORE PUSH1 0x24 DUP6 REVERT JUMPDEST PUSH1 0x39 PUSH1 0xF8 SHL SWAP2 POP PUSH2 0x2127 DUP4 DUP8 PUSH2 0x4D37 JUMP JUMPDEST MLOAD AND GT ISZERO CODESIZE PUSH2 0x207A JUMP JUMPDEST POP SWAP5 POP PUSH2 0x2089 PUSH1 0x1 SWAP6 PUSH2 0x490B JUMP JUMPDEST DUP5 DUP4 DUP4 DUP11 DUP13 DUP12 PUSH1 0x12 DUP2 LT PUSH2 0x23EA JUMPI JUMPDEST POP DUP5 SWAP2 PUSH1 0xFF PUSH1 0x8 DUP7 ADD SLOAD AND PUSH2 0x2162 DUP2 PUSH2 0x4651 JUMP JUMPDEST PUSH2 0x23C2 JUMPI DUP2 DUP2 GT PUSH2 0x2399 JUMPI JUMPDEST POP POP JUMPDEST DUP4 DUP2 ISZERO PUSH2 0x238C JUMPI POP PUSH1 0xF DUP4 ADD SLOAD SWAP1 DUP2 DUP2 GT PUSH2 0x2385 JUMPI JUMPDEST DUP1 PUSH2 0x2192 SWAP2 SWAP3 PUSH2 0x4D2A JUMP JUMPDEST SWAP3 JUMPDEST DUP2 PUSH2 0x22DE JUMPI JUMPDEST DUP4 PUSH2 0x2250 JUMPI JUMPDEST SWAP1 PUSH1 0xFF SWAP4 DUP4 SWAP3 PUSH2 0x2208 SWAP5 SLOAD SWAP4 PUSH3 0x80000 PUSH3 0xFF0000 NOT DUP7 AND OR SWAP1 SSTORE PUSH1 0x17 TIMESTAMP SWAP2 ADD SSTORE PUSH1 0x40 MLOAD SWAP2 DUP3 MSTORE PUSH1 0x20 DUP3 ADD MSTORE TIMESTAMP PUSH1 0x40 DUP3 ADD MSTORE PUSH32 0x6DA40291EEB646B436D05C420B5B9F010D81DF95BCE846D2C3B3D45F56DF19EC PUSH1 0x60 PUSH1 0x4 CALLDATALOAD SWAP3 LOG2 PUSH1 0x40 MLOAD SWAP3 DUP4 SWAP2 PUSH1 0x10 SHR AND PUSH2 0x465B JUMP JUMPDEST PUSH1 0x8 PUSH1 0x20 DUP3 ADD MSTORE PUSH1 0x80 PUSH1 0x40 DUP3 ADD MSTORE PUSH1 0x7 PUSH1 0x80 DUP3 ADD MSTORE PUSH7 0x1CD95D1D1B1959 PUSH1 0xCA SHL PUSH1 0xA0 DUP3 ADD MSTORE TIMESTAMP PUSH1 0x60 DUP3 ADD MSTORE PUSH1 0x0 DUP1 MLOAD PUSH1 0x20 PUSH2 0x4D49 DUP4 CODECOPY DUP2 MLOAD SWAP2 MSTORE PUSH1 0xC0 PUSH1 0x4 CALLDATALOAD SWAP3 LOG2 PUSH1 0x1 DUP1 SSTORE DUP1 RETURN JUMPDEST PUSH1 0x3 SLOAD PUSH1 0x2 DUP3 ADD SLOAD PUSH1 0x4 SLOAD DUP8 SWAP3 PUSH1 0x1 PUSH1 0x1 PUSH1 0xA0 SHL SUB SWAP1 DUP2 AND SWAP3 SWAP2 DUP2 AND SWAP2 AND DUP3 EXTCODESIZE ISZERO PUSH2 0x63A JUMPI PUSH1 0x40 MLOAD PUSH4 0x6924FAA7 PUSH1 0xE1 SHL DUP2 MSTORE PUSH1 0x1 PUSH1 0x1 PUSH1 0xA0 SHL SUB SWAP2 DUP3 AND PUSH1 0x4 DUP3 ADD MSTORE SWAP2 AND PUSH1 0x24 DUP3 ADD MSTORE PUSH1 0x44 DUP2 ADD DUP8 SWAP1 MSTORE SWAP1 DUP3 SWAP1 DUP3 SWAP1 PUSH1 0x64 SWAP1 DUP3 SWAP1 DUP5 SWAP1 GAS CALL DUP1 ISZERO PUSH2 0x63E JUMPI PUSH2 0x22C0 JUMPI JUMPDEST POP POP PUSH2 0x21A0 JUMP JUMPDEST PUSH2 0x22CD SWAP1 SWAP5 SWAP4 SWAP3 SWAP5 PUSH2 0x451D JUMP JUMPDEST PUSH2 0x22DA JUMPI SWAP1 SWAP2 DUP5 DUP7 PUSH2 0x22B9 JUMP JUMPDEST DUP5 DUP1 REVERT JUMPDEST PUSH1 0x3 SLOAD PUSH1 0x2 DUP3 ADD SLOAD PUSH1 0x1 DUP4 ADD SLOAD PUSH1 0x4 SLOAD PUSH1 0x1 PUSH1 0x1 PUSH1 0xA0 SHL SUB SWAP1 DUP2 AND SWAP4 DUP10 SWAP4 SWAP3 DUP3 AND SWAP3 SWAP1 DUP3 AND SWAP2 AND DUP2 EXTCODESIZE ISZERO PUSH2 0x63A JUMPI DUP4 PUSH1 0xE4 SWAP3 PUSH1 0x40 MLOAD SWAP7 DUP8 SWAP6 DUP7 SWAP5 PUSH4 0x5FE3A8B PUSH1 0xE3 SHL DUP7 MSTORE PUSH1 0x4 DUP7 ADD MSTORE PUSH1 0x24 DUP6 ADD MSTORE PUSH1 0x44 DUP5 ADD MSTORE DUP9 PUSH1 0x64 DUP5 ADD MSTORE PUSH1 0xA0 PUSH1 0x84 DUP5 ADD MSTORE PUSH1 0x11 PUSH1 0xA4 DUP5 ADD MSTORE PUSH17 0x1CD95D1D1B195B595B9D081C185E5BDD5D PUSH1 0x7A SHL PUSH1 0xC4 DUP5 ADD MSTORE GAS CALL DUP1 ISZERO PUSH2 0x1F11 JUMPI PUSH2 0x2372 JUMPI JUMPDEST POP PUSH2 0x219A JUMP JUMPDEST PUSH2 0x237E SWAP1 SWAP6 SWAP2 SWAP6 PUSH2 0x451D JUMP JUMPDEST SWAP4 DUP6 PUSH2 0x236C JUMP JUMPDEST POP DUP1 PUSH2 0x2187 JUMP JUMPDEST SWAP1 POP PUSH1 0xF DUP4 ADD SLOAD SWAP3 PUSH2 0x2194 JUMP JUMPDEST PUSH2 0x23BB SWAP3 POP PUSH2 0x23AB DUP3 PUSH2 0x23B6 SWAP3 PUSH2 0x4D2A JUMP JUMPDEST PUSH1 0x9 DUP7 ADD SLOAD SWAP1 PUSH2 0x4AF8 JUMP JUMPDEST PUSH2 0x4B0B JUMP JUMPDEST DUP5 DUP1 PUSH2 0x216E JUMP JUMPDEST DUP1 DUP3 GT PUSH2 0x23D1 JUMPI JUMPDEST POP POP PUSH2 0x2171 JUMP JUMPDEST PUSH2 0x23E3 SWAP3 POP PUSH2 0x23AB PUSH2 0x23B6 SWAP2 DUP4 PUSH2 0x4D2A JUMP JUMPDEST DUP5 DUP1 PUSH2 0x23CA JUMP JUMPDEST PUSH1 0x12 SUB PUSH1 0x12 DUP2 GT PUSH2 0x20EE JUMPI PUSH1 0x4D DUP2 GT PUSH2 0x20EE JUMPI SWAP1 PUSH2 0x240B SWAP2 PUSH1 0xA EXP SWAP1 PUSH2 0x4AF8 JUMP JUMPDEST DUP6 PUSH2 0x214E JUMP JUMPDEST PUSH1 0x40 MLOAD PUSH3 0x461BCD PUSH1 0xE5 SHL DUP2 MSTORE PUSH1 0x20 PUSH1 0x4 DUP3 ADD MSTORE PUSH1 0x1A PUSH1 0x24 DUP3 ADD MSTORE PUSH32 0x4F7074696F6E73436F72653A206E6F2066656564207072696365000000000000 PUSH1 0x44 DUP3 ADD MSTORE PUSH1 0x64 SWAP1 REVERT JUMPDEST PUSH1 0x40 MLOAD PUSH3 0x461BCD PUSH1 0xE5 SHL DUP2 MSTORE PUSH1 0x20 PUSH1 0x4 DUP3 ADD MSTORE PUSH1 0x23 PUSH1 0x24 DUP3 ADD MSTORE PUSH32 0x4F7074696F6E73436F72653A206E6F742070656E64696E6720736574746C656D PUSH1 0x44 DUP3 ADD MSTORE PUSH3 0x195B9D PUSH1 0xEA SHL PUSH1 0x64 DUP3 ADD MSTORE PUSH1 0x84 SWAP1 REVERT JUMPDEST PUSH4 0x4E487B71 PUSH1 0xE0 SHL DUP5 MSTORE PUSH1 0x21 PUSH1 0x4 MSTORE PUSH1 0x24 DUP5 REVERT JUMPDEST POP PUSH1 0x5 SLOAD PUSH1 0x4 CALLDATALOAD LT PUSH2 0x1FD1 JUMP JUMPDEST POP CALLVALUE PUSH2 0x27F JUMPI DUP1 PUSH1 0x3 NOT CALLDATASIZE ADD SLT PUSH2 0x27F JUMPI PUSH1 0x3 SLOAD PUSH1 0x40 MLOAD PUSH1 0x1 PUSH1 0x1 PUSH1 0xA0 SHL SUB SWAP1 SWAP2 AND DUP2 MSTORE PUSH1 0x20 SWAP1 RETURN JUMPDEST POP CALLVALUE PUSH2 0x27F JUMPI DUP1 PUSH1 0x3 NOT CALLDATASIZE ADD SLT PUSH2 0x27F JUMPI PUSH2 0x250A PUSH2 0x469A JUMP JUMPDEST PUSH2 0x2512 PUSH2 0x4A72 JUMP JUMPDEST PUSH1 0x1 PUSH1 0xFF NOT PUSH1 0x2 SLOAD AND OR PUSH1 0x2 SSTORE PUSH32 0x62E78CEA01BEE320CD4E420270B5EA74000D11B0C9F74754EBDBFC544B05A258 PUSH1 0x20 PUSH1 0x40 MLOAD CALLER DUP2 MSTORE LOG1 DUP1 RETURN JUMPDEST POP CALLVALUE PUSH2 0x27F JUMPI PUSH1 0x20 DUP1 PUSH1 0x3 NOT CALLDATASIZE ADD SLT PUSH2 0x301 JUMPI PUSH1 0x4 CALLDATALOAD PUSH1 0x1 PUSH1 0x1 PUSH1 0x40 SHL SUB DUP2 GT PUSH2 0x27B JUMPI PUSH2 0x257F DUP3 SWAP2 CALLDATASIZE SWAP1 PUSH1 0x4 ADD PUSH2 0x433E JUMP JUMPDEST SWAP2 SWAP1 DUP3 PUSH1 0x40 MLOAD SWAP4 DUP5 SWAP3 DUP4 CALLDATACOPY DUP2 ADD PUSH1 0xD DUP2 MSTORE SUB ADD SWAP1 KECCAK256 SWAP2 PUSH1 0x40 MLOAD DUP1 SWAP3 DUP1 DUP6 SLOAD SWAP3 DUP4 DUP2 MSTORE ADD SWAP5 DUP4 MSTORE DUP1 DUP4 KECCAK256 SWAP3 SWAP1 JUMPDEST DUP3 DUP3 LT PUSH2 0x25C2 JUMPI PUSH2 0x277 DUP6 PUSH2 0x2DE DUP2 DUP10 SUB DUP3 PUSH2 0x454C JUMP JUMPDEST DUP4 SLOAD DUP7 MSTORE SWAP5 DUP6 ADD SWAP5 PUSH1 0x1 SWAP4 DUP5 ADD SWAP4 SWAP1 SWAP2 ADD SWAP1 PUSH2 0x25AB JUMP JUMPDEST POP CALLVALUE PUSH2 0x27F JUMPI DUP1 PUSH1 0x3 NOT CALLDATASIZE ADD SLT PUSH2 0x27F JUMPI PUSH1 0x2 SLOAD PUSH1 0x40 MLOAD PUSH1 0x8 SWAP2 SWAP1 SWAP2 SHR PUSH1 0x1 PUSH1 0x1 PUSH1 0xA0 SHL SUB AND DUP2 MSTORE PUSH1 0x20 SWAP1 RETURN JUMPDEST POP CALLVALUE PUSH2 0x27F JUMPI PUSH1 0xC0 CALLDATASIZE PUSH1 0x3 NOT ADD SLT PUSH2 0x27F JUMPI PUSH1 0x3 PUSH1 0x64 CALLDATALOAD LT ISZERO PUSH2 0x27F JUMPI PUSH1 0x84 CALLDATALOAD PUSH1 0xFF DUP2 AND DUP2 SUB PUSH2 0x301 JUMPI PUSH1 0xA4 CALLDATALOAD PUSH1 0xFF DUP2 AND DUP2 SUB PUSH2 0x27B JUMPI PUSH1 0x4 CALLDATALOAD ISZERO ISZERO DUP1 PUSH2 0x2BC7 JUMPI JUMPDEST PUSH2 0x2651 SWAP1 PUSH2 0x4B38 JUMP JUMPDEST PUSH2 0x2659 PUSH2 0x4A90 JUMP JUMPDEST PUSH2 0x2661 PUSH2 0x4A72 JUMP JUMPDEST PUSH1 0x4 CALLDATALOAD DUP4 MSTORE PUSH1 0x7 PUSH1 0x20 MSTORE PUSH1 0x40 DUP4 KECCAK256 SWAP1 PUSH1 0xFF PUSH1 0x14 DUP4 ADD SLOAD PUSH1 0x10 SHR AND PUSH1 0xB DUP2 LT ISZERO PUSH2 0x293D JUMPI DUP1 ISZERO SWAP1 DUP2 ISZERO PUSH2 0x2BBC JUMPI JUMPDEST POP ISZERO PUSH2 0x2B67 JUMPI PUSH1 0x1 DUP3 ADD SLOAD PUSH1 0x1 PUSH1 0x1 PUSH1 0xA0 SHL SUB AND ISZERO PUSH2 0x2B22 JUMPI PUSH1 0x15 DUP3 ADD SLOAD PUSH1 0x2 SLOAD PUSH1 0x40 MLOAD PUSH4 0x4F6BFAD7 PUSH1 0xE0 SHL DUP2 MSTORE PUSH1 0x8 SWAP2 SWAP1 SWAP2 SHR PUSH1 0x1 PUSH1 0x1 PUSH1 0xA0 SHL SUB AND SWAP2 PUSH1 0x20 DUP3 PUSH1 0x4 DUP2 DUP7 GAS STATICCALL SWAP1 DUP2 ISZERO PUSH2 0x2B17 JUMPI DUP8 SWAP2 PUSH2 0x2ADD JUMPI JUMPDEST PUSH2 0x26ED SWAP3 POP PUSH2 0x4B2B JUMP JUMPDEST TIMESTAMP LT ISZERO PUSH2 0x2A98 JUMPI PUSH1 0x4 SWAP1 DUP2 CALLDATALOAD DUP7 MSTORE PUSH1 0x8 PUSH1 0x20 MSTORE PUSH1 0x20 PUSH1 0x40 DUP8 KECCAK256 SLOAD SWAP2 PUSH1 0x40 MLOAD SWAP4 DUP5 DUP1 SWAP3 PUSH4 0xBE0CBCD PUSH1 0xE2 SHL DUP3 MSTORE GAS STATICCALL SWAP2 DUP3 ISZERO PUSH2 0x1F11 JUMPI DUP7 SWAP3 PUSH2 0x2A64 JUMPI JUMPDEST POP LT ISZERO PUSH2 0x2A1F JUMPI PUSH1 0x11 DUP3 ADD SLOAD PUSH1 0x2 PUSH1 0xFF DUP3 PUSH1 0x20 SHR AND PUSH2 0x2747 DUP2 PUSH2 0x4410 JUMP JUMPDEST EQ PUSH2 0x29B7 JUMPI JUMPDEST POP PUSH2 0x2710 PUSH2 0x2761 PUSH1 0x44 CALLDATALOAD PUSH1 0x9 DUP6 ADD SLOAD PUSH2 0x4AF8 JUMP JUMPDEST DIV PUSH2 0x2774 PUSH1 0x10 DUP5 ADD SLOAD PUSH1 0x44 CALLDATALOAD LT ISZERO PUSH2 0x48C0 JUMP JUMPDEST PUSH1 0x4 SLOAD PUSH1 0x3 SLOAD PUSH2 0x2794 SWAP2 DUP4 SWAP2 PUSH1 0x1 PUSH1 0x1 PUSH1 0xA0 SHL SUB SWAP1 DUP2 AND SWAP2 CALLER SWAP2 AND PUSH2 0x49CB JUMP JUMPDEST PUSH1 0x6 SLOAD SWAP4 PUSH2 0x27A1 DUP6 PUSH2 0x490B JUMP JUMPDEST PUSH1 0x6 SSTORE PUSH2 0x2710 PUSH2 0x27B7 PUSH1 0x24 CALLDATALOAD PUSH1 0x9 DUP8 ADD SLOAD PUSH2 0x4AF8 JUMP JUMPDEST DIV SWAP3 PUSH1 0x4 PUSH1 0x20 PUSH1 0x1 DUP1 PUSH1 0xA0 SHL SUB PUSH1 0x2 SLOAD PUSH1 0x8 SHR AND PUSH1 0x40 MLOAD SWAP3 DUP4 DUP1 SWAP3 PUSH4 0x6A15D6D PUSH1 0xE1 SHL DUP3 MSTORE GAS STATICCALL SWAP1 DUP2 ISZERO PUSH2 0x29AC JUMPI DUP9 SWAP2 PUSH2 0x2979 JUMPI JUMPDEST POP PUSH1 0xFF SWAP3 PUSH2 0x27FB DUP5 SWAP3 TIMESTAMP PUSH2 0x4B2B JUMP JUMPDEST SWAP5 PUSH1 0x40 MLOAD SWAP7 PUSH2 0x2809 DUP9 PUSH2 0x44EB JUMP JUMPDEST DUP10 DUP9 MSTORE PUSH1 0x4 CALLDATALOAD PUSH1 0x20 DUP10 ADD MSTORE CALLER PUSH1 0x40 DUP10 ADD MSTORE DUP11 PUSH1 0x60 DUP10 ADD MSTORE PUSH1 0x24 CALLDATALOAD PUSH1 0x80 DUP10 ADD MSTORE PUSH1 0xA0 DUP9 ADD MSTORE PUSH1 0x44 CALLDATALOAD PUSH1 0xC0 DUP9 ADD MSTORE PUSH1 0xE0 DUP8 ADD MSTORE PUSH2 0x2845 PUSH1 0x64 CALLDATALOAD PUSH2 0x4410 JUMP JUMPDEST PUSH1 0x64 CALLDATALOAD PUSH2 0x100 DUP8 ADD MSTORE AND PUSH2 0x120 DUP6 ADD MSTORE AND PUSH2 0x140 DUP4 ADD MSTORE TIMESTAMP PUSH2 0x160 DUP4 ADD MSTORE PUSH2 0x180 DUP3 ADD MSTORE DUP4 PUSH2 0x1A0 DUP3 ADD MSTORE DUP3 DUP5 MSTORE PUSH1 0x9 PUSH1 0x20 MSTORE PUSH2 0x2885 DUP2 PUSH1 0x40 DUP7 KECCAK256 PUSH2 0x4B84 JUMP JUMPDEST PUSH1 0x4 CALLDATALOAD DUP5 MSTORE PUSH1 0x8 PUSH1 0x20 MSTORE PUSH1 0x40 DUP5 KECCAK256 DUP1 SLOAD SWAP1 PUSH1 0x1 PUSH1 0x40 SHL DUP3 LT ISZERO PUSH2 0x2965 JUMPI SWAP1 PUSH2 0x28B2 SWAP2 PUSH1 0x1 DUP3 ADD DUP2 SSTORE PUSH2 0x467E JUMP JUMPDEST PUSH2 0x2951 JUMPI SWAP1 PUSH2 0x28C0 SWAP2 PUSH2 0x4B84 JUMP JUMPDEST PUSH1 0x14 DUP2 ADD SLOAD PUSH1 0xFF DUP2 PUSH1 0x10 SHR AND PUSH1 0xB DUP2 LT ISZERO PUSH2 0x293D JUMPI PUSH1 0x20 SWAP5 POP ISZERO PUSH2 0x2925 JUMPI JUMPDEST POP POP PUSH1 0x40 MLOAD PUSH1 0x24 CALLDATALOAD DUP2 MSTORE TIMESTAMP DUP4 DUP3 ADD MSTORE DUP2 CALLER SWAP2 PUSH32 0x878FE3F9BCA373E42473C1F3AD3C9C35C4F1ECAF9A5F081A801A3FBD43049F55 PUSH1 0x40 PUSH1 0x4 CALLDATALOAD SWAP3 LOG4 PUSH1 0x1 DUP1 SSTORE PUSH1 0x40 MLOAD SWAP1 DUP2 MSTORE RETURN JUMPDEST PUSH3 0x10000 PUSH1 0x14 SWAP2 PUSH3 0xFF0000 NOT AND OR SWAP2 ADD SSTORE CODESIZE DUP1 PUSH2 0x28DF JUMP JUMPDEST PUSH4 0x4E487B71 PUSH1 0xE0 SHL DUP6 MSTORE PUSH1 0x21 PUSH1 0x4 MSTORE PUSH1 0x24 DUP6 REVERT JUMPDEST PUSH4 0x4E487B71 PUSH1 0xE0 SHL DUP6 MSTORE PUSH1 0x4 DUP6 SWAP1 MSTORE PUSH1 0x24 DUP6 REVERT JUMPDEST PUSH4 0x4E487B71 PUSH1 0xE0 SHL DUP7 MSTORE PUSH1 0x41 PUSH1 0x4 MSTORE PUSH1 0x24 DUP7 REVERT JUMPDEST SWAP1 POP PUSH1 0x20 DUP2 RETURNDATASIZE PUSH1 0x20 GT PUSH2 0x29A4 JUMPI JUMPDEST DUP2 PUSH2 0x2994 PUSH1 0x20 SWAP4 DUP4 PUSH2 0x454C JUMP JUMPDEST DUP2 ADD SUB SLT PUSH2 0x1F61 JUMPI MLOAD PUSH1 0xFF PUSH2 0x27EC JUMP JUMPDEST RETURNDATASIZE SWAP2 POP PUSH2 0x2987 JUMP JUMPDEST PUSH1 0x40 MLOAD RETURNDATASIZE DUP11 DUP3 RETURNDATACOPY RETURNDATASIZE SWAP1 REVERT JUMPDEST PUSH1 0x28 SHR PUSH1 0x1 PUSH1 0x1 PUSH1 0xA0 SHL SUB AND CALLER SUB PUSH2 0x29CF JUMPI CODESIZE PUSH2 0x274D JUMP JUMPDEST PUSH1 0x40 MLOAD PUSH3 0x461BCD PUSH1 0xE5 SHL DUP2 MSTORE PUSH1 0x20 PUSH1 0x4 DUP3 ADD MSTORE PUSH1 0x22 PUSH1 0x24 DUP3 ADD MSTORE PUSH32 0x4F7074696F6E73436F72653A206E6F742064657369676E617465642073656C6C PUSH1 0x44 DUP3 ADD MSTORE PUSH2 0x32B9 PUSH1 0xF1 SHL PUSH1 0x64 DUP3 ADD MSTORE PUSH1 0x84 SWAP1 REVERT JUMPDEST PUSH1 0x40 MLOAD PUSH3 0x461BCD PUSH1 0xE5 SHL DUP2 MSTORE PUSH1 0x20 PUSH1 0x4 DUP3 ADD MSTORE PUSH1 0x1F PUSH1 0x24 DUP3 ADD MSTORE PUSH32 0x4F7074696F6E73436F72653A206D61782071756F746573207265616368656400 PUSH1 0x44 DUP3 ADD MSTORE PUSH1 0x64 SWAP1 REVERT JUMPDEST SWAP1 SWAP2 POP PUSH1 0x20 DUP2 RETURNDATASIZE PUSH1 0x20 GT PUSH2 0x2A90 JUMPI JUMPDEST DUP2 PUSH2 0x2A80 PUSH1 0x20 SWAP4 DUP4 PUSH2 0x454C JUMP JUMPDEST DUP2 ADD SUB SLT PUSH2 0x1F65 JUMPI MLOAD SWAP1 CODESIZE PUSH2 0x2729 JUMP JUMPDEST RETURNDATASIZE SWAP2 POP PUSH2 0x2A73 JUMP JUMPDEST PUSH1 0x40 MLOAD PUSH3 0x461BCD PUSH1 0xE5 SHL DUP2 MSTORE PUSH1 0x20 PUSH1 0x4 DUP3 ADD MSTORE PUSH1 0x18 PUSH1 0x24 DUP3 ADD MSTORE PUSH32 0x4F7074696F6E73436F72653A2052465120657870697265640000000000000000 PUSH1 0x44 DUP3 ADD MSTORE PUSH1 0x64 SWAP1 REVERT JUMPDEST SWAP1 POP PUSH1 0x20 DUP3 RETURNDATASIZE PUSH1 0x20 GT PUSH2 0x2B0F JUMPI JUMPDEST DUP2 PUSH2 0x2AF8 PUSH1 0x20 SWAP4 DUP4 PUSH2 0x454C JUMP JUMPDEST DUP2 ADD SUB SLT PUSH2 0x2B0B JUMPI PUSH2 0x26ED SWAP2 MLOAD SWAP1 PUSH2 0x26E3 JUMP JUMPDEST DUP7 DUP1 REVERT JUMPDEST RETURNDATASIZE SWAP2 POP PUSH2 0x2AEB JUMP JUMPDEST PUSH1 0x40 MLOAD RETURNDATASIZE DUP10 DUP3 RETURNDATACOPY RETURNDATASIZE SWAP1 REVERT JUMPDEST PUSH1 0x40 MLOAD PUSH3 0x461BCD PUSH1 0xE5 SHL DUP2 MSTORE PUSH1 0x20 PUSH1 0x4 DUP3 ADD MSTORE PUSH1 0x1E PUSH1 0x24 DUP3 ADD MSTORE PUSH32 0x4F7074696F6E73436F72653A206E6F742061206275796572206F726465720000 PUSH1 0x44 DUP3 ADD MSTORE PUSH1 0x64 SWAP1 REVERT JUMPDEST PUSH1 0x40 MLOAD PUSH3 0x461BCD PUSH1 0xE5 SHL DUP2 MSTORE PUSH1 0x20 PUSH1 0x4 DUP3 ADD MSTORE PUSH1 0x27 PUSH1 0x24 DUP3 ADD MSTORE PUSH32 0x4F7074696F6E73436F72653A206F72646572206E6F7420616363657074696E67 PUSH1 0x44 DUP3 ADD MSTORE PUSH7 0x2071756F746573 PUSH1 0xC8 SHL PUSH1 0x64 DUP3 ADD MSTORE PUSH1 0x84 SWAP1 REVERT JUMPDEST PUSH1 0x1 SWAP2 POP EQ CODESIZE PUSH2 0x268E JUMP JUMPDEST POP PUSH1 0x5 SLOAD PUSH1 0x4 CALLDATALOAD LT PUSH2 0x2648 JUMP JUMPDEST POP PUSH1 0x40 CALLDATASIZE PUSH1 0x3 NOT ADD SLT PUSH2 0x27F JUMPI PUSH1 0x4 CALLDATALOAD PUSH1 0x3 PUSH1 0x24 CALLDATALOAD LT ISZERO PUSH2 0x301 JUMPI SWAP1 DUP2 PUSH2 0x2C25 SWAP3 ISZERO ISZERO DUP1 PUSH2 0x2C91 JUMPI JUMPDEST PUSH2 0x2C06 SWAP1 PUSH2 0x4B38 JUMP JUMPDEST DUP2 MSTORE PUSH1 0x7 PUSH1 0x20 MSTORE PUSH1 0x40 SWAP1 KECCAK256 PUSH1 0x1 ADD SLOAD PUSH1 0x1 PUSH1 0x1 PUSH1 0xA0 SHL SUB AND CALLER EQ PUSH2 0x4AB3 JUMP JUMPDEST PUSH2 0x2C2D PUSH2 0x4A90 JUMP JUMPDEST PUSH2 0x2C35 PUSH2 0x4A72 JUMP JUMPDEST PUSH1 0x40 MLOAD PUSH3 0x461BCD PUSH1 0xE5 SHL DUP2 MSTORE PUSH1 0x20 PUSH1 0x4 DUP3 ADD MSTORE PUSH1 0x2E PUSH1 0x24 DUP3 ADD MSTORE PUSH32 0x4F7074696F6E73436F72653A20666565642070726F746F636F6C206E6F742069 PUSH1 0x44 DUP3 ADD MSTORE PUSH14 0x1B5C1B195B595B9D1959081E595D PUSH1 0x92 SHL PUSH1 0x64 DUP3 ADD MSTORE PUSH1 0x84 SWAP1 REVERT JUMPDEST POP PUSH1 0x5 SLOAD DUP2 LT PUSH2 0x2BFD JUMP JUMPDEST POP CALLVALUE PUSH2 0x27F JUMPI PUSH1 0x20 CALLDATASIZE PUSH1 0x3 NOT ADD SLT PUSH2 0x27F JUMPI PUSH1 0x4 CALLDATALOAD DUP1 ISZERO ISZERO DUP1 PUSH2 0x2DBD JUMPI JUMPDEST PUSH2 0x2CC3 SWAP1 PUSH2 0x4B38 JUMP JUMPDEST PUSH2 0x2CCB PUSH2 0x4A90 JUMP JUMPDEST PUSH2 0x2CD3 PUSH2 0x4A72 JUMP JUMPDEST DUP1 DUP3 MSTORE PUSH1 0x7 PUSH1 0x20 MSTORE PUSH1 0x40 DUP3 KECCAK256 PUSH1 0x14 DUP2 ADD SWAP1 DUP2 SLOAD SWAP2 PUSH1 0xFF DUP4 PUSH1 0x10 SHR AND SWAP3 PUSH1 0xB DUP5 LT ISZERO PUSH2 0x454 JUMPI PUSH32 0xB009A900F426C0C9177ACB33A8A806B35C53AC253D1DDF22D687986FC6B72CE4 PUSH1 0x60 PUSH1 0xC0 SWAP5 DUP7 SWAP5 PUSH3 0x90000 DUP10 SWAP6 PUSH2 0x2D41 PUSH1 0x4 PUSH1 0x0 DUP1 MLOAD PUSH1 0x20 PUSH2 0x4D49 DUP4 CODECOPY DUP2 MLOAD SWAP2 MSTORE SWAP12 EQ PUSH2 0x4CDE JUMP JUMPDEST PUSH3 0xFF0000 NOT AND OR SWAP1 SSTORE TIMESTAMP PUSH1 0x17 DUP3 ADD SSTORE PUSH1 0xF PUSH1 0x1 DUP1 PUSH1 0xA0 SHL SUB PUSH1 0x1 DUP4 ADD SLOAD AND SWAP2 ADD SLOAD PUSH1 0x40 MLOAD SWAP2 DUP3 MSTORE PUSH1 0x20 DUP3 ADD MSTORE TIMESTAMP PUSH1 0x40 DUP3 ADD MSTORE LOG2 PUSH2 0x2D81 PUSH1 0x40 MLOAD DUP1 SWAP3 PUSH2 0x465B JUMP JUMPDEST PUSH1 0x9 PUSH1 0x20 DUP3 ADD MSTORE PUSH1 0x80 PUSH1 0x40 DUP3 ADD MSTORE PUSH1 0x10 PUSH1 0x80 DUP3 ADD MSTORE PUSH16 0x199BDC98D9481B1A5C5D5A59185D1959 PUSH1 0x82 SHL PUSH1 0xA0 DUP3 ADD MSTORE TIMESTAMP PUSH1 0x60 DUP3 ADD MSTORE LOG2 PUSH1 0x1 DUP1 SSTORE DUP1 RETURN JUMPDEST POP PUSH1 0x5 SLOAD DUP2 LT PUSH2 0x2CBA JUMP JUMPDEST POP PUSH1 0x20 DUP1 PUSH1 0x3 NOT CALLDATASIZE ADD SLT PUSH2 0x301 JUMPI PUSH1 0x4 CALLDATALOAD SWAP1 DUP2 ISZERO ISZERO DUP1 PUSH2 0x304B JUMPI JUMPDEST PUSH2 0x2DEC SWAP1 PUSH2 0x4B38 JUMP JUMPDEST PUSH2 0x2DF4 PUSH2 0x4A90 JUMP JUMPDEST PUSH2 0x2DFC PUSH2 0x4A72 JUMP JUMPDEST DUP2 DUP4 MSTORE PUSH1 0x7 DUP2 MSTORE PUSH1 0x40 DUP4 KECCAK256 PUSH1 0x14 DUP2 ADD SWAP1 PUSH1 0xFF DUP3 SLOAD PUSH1 0x10 SHR AND PUSH1 0xB DUP2 LT ISZERO PUSH2 0x454 JUMPI PUSH1 0x6 SUB PUSH2 0x2FF5 JUMPI PUSH1 0x1 DUP2 ADD SLOAD PUSH1 0x1 PUSH1 0x1 PUSH1 0xA0 SHL SUB SWAP2 SWAP1 DUP3 AND CALLER EQ DUP1 ISZERO PUSH2 0x2FE6 JUMPI JUMPDEST ISZERO PUSH2 0x2FA1 JUMPI DUP1 PUSH1 0x12 PUSH1 0x17 PUSH2 0x2E57 SWAP4 ADD SLOAD SWAP2 ADD SLOAD SWAP1 PUSH2 0x4B2B JUMP JUMPDEST TIMESTAMP GT PUSH2 0x2F4D JUMPI DUP1 PUSH1 0x4 SWAP2 DUP3 SLOAD AND DUP5 DUP3 PUSH1 0x3 SLOAD AND SWAP3 PUSH1 0x2 SLOAD PUSH1 0x8 SHR AND PUSH1 0x40 MLOAD SWAP5 DUP6 DUP1 SWAP3 PUSH4 0x39F4F75 PUSH1 0xE3 SHL DUP3 MSTORE GAS STATICCALL SWAP3 DUP4 ISZERO PUSH2 0x2B17 JUMPI DUP8 SWAP4 PUSH2 0x2F18 JUMPI JUMPDEST POP SWAP4 PUSH2 0x2EDB PUSH1 0xC0 SWAP5 PUSH2 0x2EBB PUSH1 0xFF SWAP6 PUSH1 0x7 SWAP6 PUSH1 0x0 DUP1 MLOAD PUSH1 0x20 PUSH2 0x4D49 DUP4 CODECOPY DUP2 MLOAD SWAP2 MSTORE SWAP10 CALLER SWAP1 PUSH2 0x49CB JUMP JUMPDEST DUP1 SLOAD PUSH3 0xFF0000 NOT DUP2 AND PUSH3 0x70000 OR SWAP1 SWAP2 SSTORE PUSH1 0x40 MLOAD SWAP5 DUP6 SWAP2 PUSH1 0x10 SHR AND PUSH2 0x465B JUMP JUMPDEST DUP3 ADD MSTORE PUSH1 0x80 PUSH1 0x40 DUP3 ADD MSTORE PUSH1 0x15 PUSH1 0x80 DUP3 ADD MSTORE PUSH21 0x185C989A5D1C985D1A5BDB881A5B9A5D1A585D1959 PUSH1 0x5A SHL PUSH1 0xA0 DUP3 ADD MSTORE TIMESTAMP PUSH1 0x60 DUP3 ADD MSTORE LOG2 PUSH1 0x1 DUP1 SSTORE DUP1 RETURN JUMPDEST SWAP3 POP SWAP1 SWAP4 DUP1 DUP4 DUP2 RETURNDATASIZE DUP4 GT PUSH2 0x2F46 JUMPI JUMPDEST PUSH2 0x2F31 DUP2 DUP4 PUSH2 0x454C JUMP JUMPDEST DUP2 ADD SUB SLT PUSH2 0x2B0B JUMPI SWAP2 MLOAD SWAP2 SWAP4 SWAP1 PUSH2 0x2EDB PUSH2 0x2E93 JUMP JUMPDEST POP RETURNDATASIZE PUSH2 0x2F27 JUMP JUMPDEST PUSH1 0x40 MLOAD PUSH3 0x461BCD PUSH1 0xE5 SHL DUP2 MSTORE PUSH1 0x4 DUP2 ADD DUP5 SWAP1 MSTORE PUSH1 0x26 PUSH1 0x24 DUP3 ADD MSTORE PUSH32 0x4F7074696F6E73436F72653A206172626974726174696F6E2077696E646F7720 PUSH1 0x44 DUP3 ADD MSTORE PUSH6 0x18DB1BDCD959 PUSH1 0xD2 SHL PUSH1 0x64 DUP3 ADD MSTORE PUSH1 0x84 SWAP1 REVERT JUMPDEST PUSH1 0x40 MLOAD PUSH3 0x461BCD PUSH1 0xE5 SHL DUP2 MSTORE PUSH1 0x4 DUP2 ADD DUP6 SWAP1 MSTORE PUSH1 0x1F PUSH1 0x24 DUP3 ADD MSTORE PUSH32 0x4F7074696F6E73436F72653A206E6F7420706172747920746F206F7264657200 PUSH1 0x44 DUP3 ADD MSTORE PUSH1 0x64 SWAP1 REVERT JUMPDEST POP DUP2 PUSH1 0x2 DUP3 ADD SLOAD AND CALLER EQ PUSH2 0x2E3E JUMP JUMPDEST PUSH1 0x40 MLOAD PUSH3 0x461BCD PUSH1 0xE5 SHL DUP2 MSTORE PUSH1 0x4 DUP2 ADD DUP5 SWAP1 MSTORE PUSH1 0x28 PUSH1 0x24 DUP3 ADD MSTORE PUSH32 0x4F7074696F6E73436F72653A2063616E6E6F7420696E69746961746520617262 PUSH1 0x44 DUP3 ADD MSTORE PUSH8 0x34BA3930BA34B7B7 PUSH1 0xC1 SHL PUSH1 0x64 DUP3 ADD MSTORE PUSH1 0x84 SWAP1 REVERT JUMPDEST POP PUSH1 0x5 SLOAD DUP3 LT PUSH2 0x2DE3 JUMP JUMPDEST POP CALLVALUE PUSH2 0x27F JUMPI PUSH1 0x20 CALLDATASIZE PUSH1 0x3 NOT ADD SLT PUSH2 0x27F JUMPI PUSH2 0x3070 PUSH2 0x4A90 JUMP JUMPDEST PUSH2 0x3078 PUSH2 0x4A72 JUMP JUMPDEST PUSH1 0x4 CALLDATALOAD DUP2 MSTORE PUSH1 0x9 PUSH1 0x20 MSTORE PUSH1 0x40 DUP2 KECCAK256 PUSH1 0xA DUP2 ADD SLOAD SWAP2 PUSH1 0xFF DUP4 AND PUSH1 0x4 DUP2 LT ISZERO PUSH2 0x3523 JUMPI PUSH2 0x34DE JUMPI PUSH1 0x9 DUP3 ADD SLOAD TIMESTAMP GT PUSH2 0x3499 JUMPI PUSH1 0x1 DUP3 ADD SLOAD DUP2 MSTORE PUSH1 0x7 PUSH1 0x20 MSTORE PUSH1 0x40 DUP2 KECCAK256 SWAP3 PUSH2 0x30D0 PUSH1 0x1 DUP1 PUSH1 0xA0 SHL SUB PUSH1 0x1 DUP7 ADD SLOAD AND CALLER EQ PUSH2 0x4AB3 JUMP JUMPDEST PUSH1 0xFF PUSH1 0x14 DUP6 ADD SLOAD PUSH1 0x10 SHR AND PUSH1 0xB DUP2 LT ISZERO PUSH2 0x3485 JUMPI DUP1 ISZERO SWAP1 DUP2 ISZERO PUSH2 0x347A JUMPI JUMPDEST POP ISZERO PUSH2 0x3435 JUMPI PUSH1 0x3 DUP4 ADD SLOAD PUSH1 0xC DUP6 ADD SLOAD LT PUSH2 0x33E2 JUMPI PUSH1 0xFF NOT AND PUSH1 0x1 OR PUSH1 0xA DUP4 ADD SSTORE PUSH1 0x2 DUP1 DUP4 ADD DUP1 SLOAD SWAP2 DUP6 ADD DUP1 SLOAD PUSH1 0x1 PUSH1 0x1 PUSH1 0xA0 SHL SUB NOT AND PUSH1 0x1 PUSH1 0x1 PUSH1 0xA0 SHL SUB SWAP4 SWAP1 SWAP4 AND SWAP3 SWAP1 SWAP3 OR SWAP1 SWAP2 SSTORE SLOAD PUSH2 0x31BF SWAP1 PUSH1 0x11 DUP6 ADD SWAP1 PUSH2 0x3152 SWAP1 PUSH1 0xA0 SHR PUSH1 0xFF AND DUP3 PUSH2 0x4948 JUMP JUMPDEST PUSH1 0x3 DUP5 ADD SLOAD PUSH1 0xC DUP7 ADD SSTORE PUSH1 0x4 DUP5 ADD SLOAD PUSH1 0xD DUP7 ADD SSTORE PUSH1 0x6 DUP5 ADD SLOAD DUP1 PUSH1 0xE DUP8 ADD SSTORE PUSH1 0xF DUP7 ADD SSTORE PUSH1 0xFF PUSH1 0x7 DUP6 ADD PUSH2 0x3189 DUP3 DUP3 SLOAD AND DUP5 PUSH2 0x496D JUMP JUMPDEST DUP1 SLOAD DUP4 SLOAD PUSH2 0xFF00 NOT AND PUSH1 0x8 SWAP2 DUP3 SHR DUP5 AND SWAP1 SWAP2 SHL PUSH2 0xFF00 AND OR DUP4 SSTORE SLOAD PUSH1 0x10 SHR AND PUSH3 0xFF0000 DUP3 SLOAD SWAP2 PUSH1 0x10 SHL AND SWAP1 PUSH3 0xFF0000 NOT AND OR SWAP1 SSTORE JUMP JUMPDEST PUSH1 0x14 DUP4 ADD DUP1 SLOAD PUSH3 0xFF0000 NOT DUP2 AND PUSH3 0x20000 OR SWAP1 SWAP2 SSTORE TIMESTAMP PUSH1 0x16 DUP6 ADD SSTORE PUSH1 0x9 DUP5 ADD SLOAD PUSH1 0x2 SLOAD PUSH1 0x40 MLOAD PUSH4 0x1C03BE35 PUSH1 0xE3 SHL DUP2 MSTORE SWAP3 SWAP5 SWAP3 SWAP1 PUSH1 0x20 SWAP1 DUP3 SWAP1 PUSH1 0x4 SWAP1 DUP3 SWAP1 PUSH1 0x8 SHR PUSH1 0x1 PUSH1 0x1 PUSH1 0xA0 SHL SUB AND GAS STATICCALL SWAP1 DUP2 ISZERO PUSH2 0x33D7 JUMPI DUP5 SWAP2 PUSH2 0x33A3 JUMPI JUMPDEST POP PUSH2 0x2710 PUSH2 0x322D PUSH2 0x3238 SWAP3 PUSH2 0x3252 SWAP5 PUSH2 0x4AF8 JUMP JUMPDEST DIV PUSH1 0x4 DUP5 ADD SLOAD PUSH2 0x4B2B JUMP JUMPDEST PUSH1 0x4 SLOAD PUSH1 0x3 SLOAD PUSH1 0x1 PUSH1 0x1 PUSH1 0xA0 SHL SUB SWAP1 DUP2 AND SWAP2 CALLER SWAP2 AND PUSH2 0x49CB JUMP JUMPDEST PUSH1 0x2 ADD SLOAD PUSH1 0x1 PUSH1 0x1 PUSH1 0xA0 SHL SUB AND DUP2 MSTORE PUSH1 0xB PUSH1 0x20 MSTORE PUSH1 0x40 DUP2 KECCAK256 DUP4 SLOAD PUSH2 0x3275 SWAP2 PUSH2 0x4996 JUMP JUMPDEST DUP3 SLOAD DUP2 MSTORE PUSH1 0x8 PUSH1 0x20 MSTORE PUSH1 0x40 DUP2 KECCAK256 SWAP3 DUP2 JUMPDEST DUP5 SLOAD DUP2 LT ISZERO PUSH2 0x32F8 JUMPI PUSH2 0x3298 DUP2 DUP7 PUSH2 0x467E JUMP JUMPDEST POP SLOAD PUSH1 0x4 CALLDATALOAD EQ ISZERO DUP1 PUSH2 0x32D6 JUMPI JUMPDEST SWAP1 PUSH2 0x32B3 SWAP2 PUSH2 0x32B8 JUMPI PUSH2 0x490B JUMP JUMPDEST PUSH2 0x3285 JUMP JUMPDEST PUSH1 0xA PUSH2 0x32C4 DUP3 DUP9 PUSH2 0x467E JUMP JUMPDEST POP ADD DUP1 SLOAD PUSH1 0xFF NOT AND PUSH1 0x2 OR SWAP1 SSTORE PUSH2 0x490B JUMP JUMPDEST POP PUSH1 0xFF PUSH1 0xA PUSH2 0x32E5 DUP4 DUP9 PUSH2 0x467E JUMP JUMPDEST POP ADD SLOAD AND PUSH1 0x4 DUP2 LT ISZERO PUSH2 0x24A7 JUMPI ISZERO PUSH2 0x32A5 JUMP JUMPDEST POP PUSH1 0x0 DUP1 MLOAD PUSH1 0x20 PUSH2 0x4D49 DUP4 CODECOPY DUP2 MLOAD SWAP2 MSTORE PUSH1 0xC0 PUSH1 0xFF PUSH2 0x3369 DUP7 DUP6 SLOAD SWAP6 PUSH1 0x1 DUP1 PUSH1 0xA0 SHL SUB PUSH1 0x1 DUP3 ADD SLOAD AND SWAP1 PUSH1 0x2 PUSH1 0x1 DUP1 PUSH1 0xA0 SHL SUB SWAP2 ADD SLOAD AND SWAP1 DUP8 PUSH32 0x3D7463B72B52FAFC8E3F27DC0DBB9D1A94C0A4024834252B5CCE68509ACB49BC PUSH1 0x20 PUSH1 0x40 MLOAD TIMESTAMP DUP2 MSTORE LOG4 PUSH1 0x40 MLOAD SWAP3 DUP4 SWAP2 PUSH1 0x10 SHR AND PUSH2 0x465B JUMP JUMPDEST PUSH1 0x2 PUSH1 0x20 DUP3 ADD MSTORE PUSH1 0x80 PUSH1 0x40 DUP3 ADD MSTORE PUSH1 0xE PUSH1 0x80 DUP3 ADD MSTORE PUSH14 0x1C5D5BDD19481858D8D95C1D1959 PUSH1 0x92 SHL PUSH1 0xA0 DUP3 ADD MSTORE TIMESTAMP PUSH1 0x60 DUP3 ADD MSTORE LOG2 PUSH1 0x1 DUP1 SSTORE DUP1 RETURN JUMPDEST SWAP1 POP PUSH1 0x20 DUP2 RETURNDATASIZE PUSH1 0x20 GT PUSH2 0x33CF JUMPI JUMPDEST DUP2 PUSH2 0x33BE PUSH1 0x20 SWAP4 DUP4 PUSH2 0x454C JUMP JUMPDEST DUP2 ADD SUB SLT PUSH2 0x63A JUMPI MLOAD PUSH2 0x2710 PUSH2 0x3219 JUMP JUMPDEST RETURNDATASIZE SWAP2 POP PUSH2 0x33B1 JUMP JUMPDEST PUSH1 0x40 MLOAD RETURNDATASIZE DUP7 DUP3 RETURNDATACOPY RETURNDATASIZE SWAP1 REVERT JUMPDEST PUSH1 0x40 MLOAD PUSH3 0x461BCD PUSH1 0xE5 SHL DUP2 MSTORE PUSH1 0x20 PUSH1 0x4 DUP3 ADD MSTORE PUSH1 0x25 PUSH1 0x24 DUP3 ADD MSTORE PUSH32 0x4F7074696F6E73436F72653A207072656D69756D207261746520657863656564 PUSH1 0x44 DUP3 ADD MSTORE PUSH5 0xE640DAC2F PUSH1 0xDB SHL PUSH1 0x64 DUP3 ADD MSTORE PUSH1 0x84 SWAP1 REVERT JUMPDEST PUSH1 0x40 MLOAD PUSH3 0x461BCD PUSH1 0xE5 SHL DUP2 MSTORE PUSH1 0x20 PUSH1 0x4 DUP3 ADD MSTORE PUSH1 0x1B PUSH1 0x24 DUP3 ADD MSTORE PUSH32 0x4F7074696F6E73436F72653A20696E76616C6964207374617475730000000000 PUSH1 0x44 DUP3 ADD MSTORE PUSH1 0x64 SWAP1 REVERT JUMPDEST PUSH1 0x1 SWAP2 POP EQ CODESIZE PUSH2 0x30EE JUMP JUMPDEST PUSH4 0x4E487B71 PUSH1 0xE0 SHL DUP4 MSTORE PUSH1 0x21 PUSH1 0x4 MSTORE PUSH1 0x24 DUP4 REVERT JUMPDEST PUSH1 0x40 MLOAD PUSH3 0x461BCD PUSH1 0xE5 SHL DUP2 MSTORE PUSH1 0x20 PUSH1 0x4 DUP3 ADD MSTORE PUSH1 0x1A PUSH1 0x24 DUP3 ADD MSTORE PUSH32 0x4F7074696F6E73436F72653A2071756F74652065787069726564000000000000 PUSH1 0x44 DUP3 ADD MSTORE PUSH1 0x64 SWAP1 REVERT JUMPDEST PUSH1 0x40 MLOAD PUSH3 0x461BCD PUSH1 0xE5 SHL DUP2 MSTORE PUSH1 0x20 PUSH1 0x4 DUP3 ADD MSTORE PUSH1 0x1D PUSH1 0x24 DUP3 ADD MSTORE PUSH32 0x4F7074696F6E73436F72653A2071756F7465206E6F7420616374697665000000 PUSH1 0x44 DUP3 ADD MSTORE PUSH1 0x64 SWAP1 REVERT JUMPDEST PUSH4 0x4E487B71 PUSH1 0xE0 SHL DUP3 MSTORE PUSH1 0x21 PUSH1 0x4 MSTORE PUSH1 0x24 DUP3 REVERT JUMPDEST POP CALLVALUE PUSH2 0x27F JUMPI DUP1 PUSH1 0x3 NOT CALLDATASIZE ADD SLT PUSH2 0x27F JUMPI PUSH1 0x20 PUSH1 0xFF PUSH1 0x2 SLOAD AND PUSH1 0x40 MLOAD SWAP1 ISZERO ISZERO DUP2 MSTORE RETURN JUMPDEST POP CALLVALUE PUSH2 0x27F JUMPI DUP1 PUSH1 0x3 NOT CALLDATASIZE ADD SLT PUSH2 0x27F JUMPI PUSH1 0x20 PUSH1 0x6 SLOAD PUSH1 0x40 MLOAD SWAP1 DUP2 MSTORE RETURN JUMPDEST POP CALLVALUE PUSH2 0x27F JUMPI PUSH1 0x20 DUP1 PUSH1 0x3 NOT CALLDATASIZE ADD SLT PUSH2 0x301 JUMPI PUSH1 0x4 CALLDATALOAD SWAP1 DUP2 ISZERO ISZERO DUP1 PUSH2 0x3748 JUMPI JUMPDEST PUSH2 0x35A1 SWAP1 PUSH2 0x4B38 JUMP JUMPDEST DUP2 DUP4 MSTORE PUSH1 0x7 DUP2 MSTORE PUSH2 0x35C2 PUSH1 0x1 DUP1 PUSH1 0xA0 SHL SUB PUSH1 0x1 PUSH1 0x40 DUP7 KECCAK256 ADD SLOAD AND CALLER EQ PUSH2 0x4AB3 JUMP JUMPDEST DUP2 DUP4 MSTORE PUSH1 0x7 DUP2 MSTORE PUSH1 0xFF PUSH1 0x14 PUSH1 0x40 DUP6 KECCAK256 ADD SLOAD PUSH1 0x10 SHR AND PUSH1 0xB DUP2 LT ISZERO PUSH2 0x24A7 JUMPI PUSH1 0x4 SUB PUSH2 0x36FA JUMPI PUSH2 0x35EF PUSH2 0x4A90 JUMP JUMPDEST PUSH2 0x35F7 PUSH2 0x4A72 JUMP JUMPDEST DUP2 DUP4 MSTORE PUSH1 0x7 DUP2 MSTORE PUSH1 0x40 DUP4 KECCAK256 PUSH1 0xFF PUSH1 0x11 DUP3 ADD SLOAD PUSH1 0x18 SHR AND PUSH3 0x15180 SWAP1 DUP2 DUP2 MUL SWAP2 DUP2 DUP4 DIV EQ SWAP1 ISZERO OR ISZERO PUSH2 0x2102 JUMPI PUSH2 0x3630 SWAP1 PUSH1 0x16 DUP4 ADD SLOAD PUSH2 0x4B2B JUMP JUMPDEST TIMESTAMP LT PUSH2 0x36A9 JUMPI PUSH1 0xFF PUSH1 0x5 PUSH1 0x0 DUP1 MLOAD PUSH1 0x20 PUSH2 0x4D49 DUP4 CODECOPY DUP2 MLOAD SWAP2 MSTORE SWAP4 PUSH2 0x3673 PUSH1 0x14 PUSH1 0xC0 SWAP6 ADD DUP1 SLOAD SWAP1 PUSH3 0x50000 PUSH3 0xFF0000 NOT DUP4 AND OR SWAP1 SSTORE PUSH1 0x40 MLOAD SWAP5 DUP6 SWAP2 PUSH1 0x10 SHR AND PUSH2 0x465B JUMP JUMPDEST DUP3 ADD MSTORE PUSH1 0x80 PUSH1 0x40 DUP3 ADD MSTORE PUSH1 0xE PUSH1 0x80 DUP3 ADD MSTORE PUSH14 0x6561726C79206578657263697365 PUSH1 0x90 SHL PUSH1 0xA0 DUP3 ADD MSTORE TIMESTAMP PUSH1 0x60 DUP3 ADD MSTORE LOG2 PUSH1 0x1 DUP1 SSTORE DUP1 RETURN JUMPDEST PUSH1 0x40 MLOAD PUSH3 0x461BCD PUSH1 0xE5 SHL DUP2 MSTORE PUSH1 0x4 DUP2 ADD DUP4 SWAP1 MSTORE PUSH1 0x23 PUSH1 0x24 DUP3 ADD MSTORE PUSH32 0x4F7074696F6E73436F72653A2065786572636973652064656C6179206E6F7420 PUSH1 0x44 DUP3 ADD MSTORE PUSH3 0x1B595D PUSH1 0xEA SHL PUSH1 0x64 DUP3 ADD MSTORE PUSH1 0x84 SWAP1 REVERT JUMPDEST PUSH1 0x84 SWAP1 PUSH1 0x40 MLOAD SWAP1 PUSH3 0x461BCD PUSH1 0xE5 SHL DUP3 MSTORE PUSH1 0x4 DUP3 ADD MSTORE PUSH1 0x21 PUSH1 0x24 DUP3 ADD MSTORE PUSH32 0x4F7074696F6E73436F72653A20696E76616C6964206F72646572207374617475 PUSH1 0x44 DUP3 ADD MSTORE PUSH1 0x73 PUSH1 0xF8 SHL PUSH1 0x64 DUP3 ADD MSTORE REVERT JUMPDEST POP PUSH1 0x5 SLOAD DUP3 LT PUSH2 0x3598 JUMP JUMPDEST POP CALLVALUE PUSH2 0x27F JUMPI PUSH1 0x40 CALLDATASIZE PUSH1 0x3 NOT ADD SLT PUSH2 0x27F JUMPI PUSH2 0x376D PUSH2 0x437B JUMP JUMPDEST PUSH1 0x1 PUSH1 0x1 PUSH1 0xA0 SHL SUB AND DUP2 MSTORE PUSH1 0xB PUSH1 0x20 MSTORE PUSH1 0x40 DUP2 KECCAK256 DUP1 SLOAD PUSH1 0x24 CALLDATALOAD SWAP3 SWAP1 DUP4 LT ISZERO PUSH2 0x27F JUMPI PUSH1 0x20 PUSH2 0x379B DUP5 DUP5 PUSH2 0x43A7 JUMP JUMPDEST SWAP1 SLOAD PUSH1 0x40 MLOAD SWAP2 PUSH1 0x3 SHL SHR DUP2 MSTORE RETURN JUMPDEST POP CALLVALUE PUSH2 0x27F JUMPI PUSH1 0x40 CALLDATASIZE PUSH1 0x3 NOT ADD SLT PUSH2 0x27F JUMPI PUSH2 0x37C3 PUSH2 0x437B JUMP JUMPDEST PUSH1 0x1 PUSH1 0x1 PUSH1 0xA0 SHL SUB AND DUP2 MSTORE PUSH1 0xA PUSH1 0x20 MSTORE PUSH1 0x40 DUP2 KECCAK256 DUP1 SLOAD PUSH1 0x24 CALLDATALOAD SWAP3 SWAP1 DUP4 LT ISZERO PUSH2 0x27F JUMPI PUSH1 0x20 PUSH2 0x379B DUP5 DUP5 PUSH2 0x43A7 JUMP JUMPDEST POP CALLVALUE PUSH2 0x27F JUMPI DUP1 PUSH1 0x3 NOT CALLDATASIZE ADD SLT PUSH2 0x27F JUMPI PUSH2 0x380A PUSH2 0x469A JUMP JUMPDEST PUSH1 0x2 SLOAD PUSH1 0xFF DUP2 AND ISZERO PUSH2 0x384A JUMPI PUSH1 0xFF NOT AND PUSH1 0x2 SSTORE PUSH32 0x5DB9EE0A495BF2E6FF9C91A7834C1BA4FDD244A5E8AA4E537BD38AEAE4B073AA PUSH1 0x20 PUSH1 0x40 MLOAD CALLER DUP2 MSTORE LOG1 DUP1 RETURN JUMPDEST PUSH1 0x40 MLOAD PUSH4 0x8DFC202B PUSH1 0xE0 SHL DUP2 MSTORE PUSH1 0x4 SWAP1 REVERT JUMPDEST POP CALLVALUE PUSH2 0x27F JUMPI PUSH1 0x40 CALLDATASIZE PUSH1 0x3 NOT ADD SLT PUSH2 0x27F JUMPI PUSH2 0x3876 PUSH2 0x4391 JUMP JUMPDEST CALLER PUSH1 0x1 PUSH1 0x1 PUSH1 0xA0 SHL SUB DUP3 AND SUB PUSH2 0x3892 JUMPI PUSH2 0x342 SWAP1 PUSH1 0x4 CALLDATALOAD PUSH2 0x4796 JUMP JUMPDEST PUSH1 0x40 MLOAD PUSH4 0x334BD919 PUSH1 0xE1 SHL DUP2 MSTORE PUSH1 0x4 SWAP1 REVERT JUMPDEST POP CALLVALUE PUSH2 0x27F JUMPI DUP1 PUSH1 0x3 NOT CALLDATASIZE ADD SLT PUSH2 0x27F JUMPI PUSH1 0x4 SLOAD PUSH1 0x40 MLOAD PUSH1 0x1 PUSH1 0x1 PUSH1 0xA0 SHL SUB SWAP1 SWAP2 AND DUP2 MSTORE PUSH1 0x20 SWAP1 RETURN JUMPDEST POP CALLVALUE PUSH2 0x27F JUMPI PUSH1 0x40 CALLDATASIZE PUSH1 0x3 NOT ADD SLT PUSH2 0x27F JUMPI PUSH2 0x342 PUSH1 0x4 CALLDATALOAD PUSH2 0x38ED PUSH2 0x4391 JUMP JUMPDEST SWAP1 DUP1 DUP5 MSTORE DUP4 PUSH1 0x20 MSTORE PUSH2 0x3905 PUSH1 0x1 PUSH1 0x40 DUP7 KECCAK256 ADD SLOAD PUSH2 0x46F2 JUMP JUMPDEST PUSH2 0x4718 JUMP JUMPDEST POP CALLVALUE PUSH2 0x27F JUMPI DUP1 PUSH1 0x3 NOT CALLDATASIZE ADD SLT PUSH2 0x27F JUMPI PUSH1 0x20 PUSH1 0x5 SLOAD PUSH1 0x40 MLOAD SWAP1 DUP2 MSTORE RETURN JUMPDEST POP CALLVALUE PUSH2 0x27F JUMPI PUSH1 0x20 CALLDATASIZE PUSH1 0x3 NOT ADD SLT PUSH2 0x27F JUMPI PUSH1 0x1 PUSH1 0x40 PUSH1 0x20 SWAP3 PUSH1 0x4 CALLDATALOAD DUP2 MSTORE DUP1 DUP5 MSTORE KECCAK256 ADD SLOAD PUSH1 0x40 MLOAD SWAP1 DUP2 MSTORE RETURN JUMPDEST POP CALLVALUE PUSH2 0x27F JUMPI PUSH1 0x20 CALLDATASIZE PUSH1 0x3 NOT ADD SLT PUSH2 0x27F JUMPI PUSH2 0x396E PUSH2 0x437B JUMP JUMPDEST PUSH2 0x3976 PUSH2 0x469A JUMP JUMPDEST PUSH1 0x2 DUP1 SLOAD PUSH2 0x100 PUSH1 0x1 PUSH1 0xA8 SHL SUB NOT AND PUSH1 0x8 SWAP3 SWAP1 SWAP3 SHL PUSH2 0x100 PUSH1 0x1 PUSH1 0xA8 SHL SUB AND SWAP2 SWAP1 SWAP2 OR SWAP1 SSTORE DUP1 RETURN JUMPDEST POP CALLVALUE PUSH2 0x27F JUMPI PUSH1 0x20 CALLDATASIZE PUSH1 0x3 NOT ADD SLT PUSH2 0x27F JUMPI PUSH1 0x4 CALLDATALOAD PUSH4 0xFFFFFFFF PUSH1 0xE0 SHL DUP2 AND DUP1 SWAP2 SUB PUSH2 0x301 JUMPI PUSH1 0x20 SWAP1 PUSH4 0x7965DB0B PUSH1 0xE0 SHL DUP2 EQ SWAP1 DUP2 ISZERO PUSH2 0x39E4 JUMPI JUMPDEST POP PUSH1 0x40 MLOAD SWAP1 ISZERO ISZERO DUP2 MSTORE RETURN JUMPDEST PUSH4 0x1FFC9A7 PUSH1 0xE0 SHL EQ SWAP1 POP DUP3 PUSH2 0x39D9 JUMP JUMPDEST POP CALLVALUE PUSH2 0x27F JUMPI PUSH2 0x220 CALLDATASIZE PUSH1 0x3 NOT ADD SLT PUSH2 0x27F JUMPI PUSH1 0x4 CALLDATALOAD PUSH1 0x1 PUSH1 0x1 PUSH1 0x40 SHL SUB DUP2 GT PUSH2 0x301 JUMPI PUSH2 0x3A27 SWAP1 CALLDATASIZE SWAP1 PUSH1 0x4 ADD PUSH2 0x433E JUMP JUMPDEST SWAP1 SWAP2 PUSH1 0x24 CALLDATALOAD PUSH1 0x1 PUSH1 0x1 PUSH1 0x40 SHL SUB DUP2 GT PUSH2 0x301 JUMPI PUSH2 0x3A48 SWAP1 CALLDATASIZE SWAP1 PUSH1 0x4 ADD PUSH2 0x433E JUMP JUMPDEST SWAP4 SWAP1 PUSH1 0x44 CALLDATALOAD PUSH1 0x1 PUSH1 0x1 PUSH1 0x40 SHL SUB DUP2 GT PUSH2 0x63A JUMPI PUSH2 0x3A69 SWAP1 CALLDATASIZE SWAP1 PUSH1 0x4 ADD PUSH2 0x433E JUMP JUMPDEST SWAP1 PUSH1 0x64 CALLDATALOAD PUSH1 0x1 PUSH1 0x1 PUSH1 0x40 SHL SUB DUP2 GT PUSH2 0x1F65 JUMPI PUSH2 0x3A89 SWAP1 CALLDATASIZE SWAP1 PUSH1 0x4 ADD PUSH2 0x433E JUMP JUMPDEST SWAP1 SWAP5 PUSH1 0x84 CALLDATALOAD PUSH1 0x1 PUSH1 0x1 PUSH1 0x40 SHL SUB DUP2 GT PUSH2 0x1F61 JUMPI PUSH2 0x3AAA SWAP1 CALLDATASIZE SWAP1 PUSH1 0x4 ADD PUSH2 0x433E JUMP JUMPDEST PUSH1 0x2 PUSH1 0xA4 CALLDATALOAD LT ISZERO PUSH2 0x433A JUMPI PUSH1 0x3 PUSH2 0x144 CALLDATALOAD LT ISZERO PUSH2 0x433A JUMPI PUSH1 0xFF PUSH2 0x164 CALLDATALOAD AND PUSH2 0x164 CALLDATALOAD SUB PUSH2 0x433A JUMPI PUSH1 0xFF PUSH2 0x184 CALLDATALOAD AND PUSH2 0x184 CALLDATALOAD SUB PUSH2 0x433A JUMPI PUSH2 0x3AE9 PUSH2 0x436B JUMP JUMPDEST SWAP2 PUSH1 0xFF PUSH2 0x1E4 CALLDATALOAD AND PUSH2 0x1E4 CALLDATALOAD SUB PUSH2 0x1F5D JUMPI PUSH1 0x2 PUSH2 0x204 CALLDATALOAD LT ISZERO PUSH2 0x1F5D JUMPI PUSH2 0x3B0E PUSH2 0x4A90 JUMP JUMPDEST PUSH2 0x3B16 PUSH2 0x4A72 JUMP JUMPDEST PUSH2 0x3B23 PUSH1 0xC4 CALLDATALOAD ISZERO ISZERO PUSH2 0x480B JUMP JUMPDEST PUSH2 0x3B30 TIMESTAMP PUSH1 0xE4 CALLDATALOAD GT PUSH2 0x4866 JUMP JUMPDEST PUSH1 0x4 DUP1 SLOAD PUSH1 0x3 SLOAD PUSH1 0x2 SLOAD PUSH1 0x40 MLOAD PUSH4 0x37382D39 PUSH1 0xE2 SHL DUP2 MSTORE PUSH1 0x1 PUSH1 0x1 PUSH1 0xA0 SHL SUB SWAP4 DUP5 AND SWAP5 SWAP1 SWAP4 SWAP3 DUP4 AND SWAP3 PUSH1 0x20 SWAP3 DUP6 SWAP3 SWAP2 DUP4 SWAP2 PUSH1 0x8 SHR AND GAS STATICCALL SWAP2 DUP3 ISZERO PUSH2 0x432F JUMPI DUP14 SWAP3 PUSH2 0x42F5 JUMPI JUMPDEST POP PUSH2 0x3B81 SWAP3 CALLER SWAP1 PUSH2 0x49CB JUMP JUMPDEST PUSH2 0x124 CALLDATALOAD PUSH2 0x42CD JUMPI JUMPDEST PUSH1 0x5 SLOAD SWAP11 PUSH2 0x3B97 DUP13 PUSH2 0x490B JUMP JUMPDEST PUSH1 0x5 SSTORE DUP12 DUP12 MSTORE PUSH1 0x7 PUSH1 0x20 MSTORE PUSH1 0x40 DUP12 KECCAK256 DUP13 DUP2 SSTORE PUSH1 0x2 DUP2 ADD DUP1 SLOAD PUSH1 0x1 PUSH1 0x1 PUSH1 0xA0 SHL SUB NOT AND CALLER OR SWAP1 SSTORE SWAP5 PUSH1 0x1 PUSH1 0x1 PUSH1 0x40 SHL SUB DUP3 GT PUSH2 0x42B9 JUMPI DUP2 SWAP1 PUSH2 0x3BDB PUSH1 0x3 DUP9 ADD SLOAD PUSH2 0x44B1 JUMP JUMPDEST PUSH1 0x1F DUP2 GT PUSH2 0x4267 JUMPI JUMPDEST POP DUP13 SWAP1 PUSH1 0x1F DUP4 GT PUSH1 0x1 EQ PUSH2 0x41FB JUMPI DUP14 SWAP3 PUSH2 0x41F0 JUMPI JUMPDEST POP POP DUP2 PUSH1 0x1 SHL SWAP2 PUSH1 0x0 NOT SWAP1 PUSH1 0x3 SHL SHR NOT AND OR PUSH1 0x3 DUP6 ADD SSTORE JUMPDEST PUSH1 0x1 PUSH1 0x1 PUSH1 0x40 SHL SUB DUP13 GT PUSH2 0x3FA6 JUMPI PUSH2 0x3C2C PUSH1 0x4 DUP6 ADD SLOAD PUSH2 0x44B1 JUMP JUMPDEST PUSH1 0x1F DUP2 GT PUSH2 0x41AA JUMPI JUMPDEST POP DUP12 DUP11 PUSH1 0x1F DUP3 GT PUSH1 0x1 EQ PUSH2 0x413B JUMPI DUP12 SWAP2 PUSH2 0x4130 JUMPI JUMPDEST POP PUSH1 0x0 NOT PUSH1 0x3 DUP15 SWAP1 SHL SHR NOT AND PUSH1 0x1 DUP14 SWAP1 SHL OR PUSH1 0x4 DUP6 ADD SSTORE JUMPDEST PUSH1 0x1 PUSH1 0x1 PUSH1 0x40 SHL SUB DUP8 GT PUSH2 0x3FA6 JUMPI PUSH2 0x3C7D PUSH1 0x5 DUP6 ADD SLOAD PUSH2 0x44B1 JUMP JUMPDEST PUSH1 0x1F DUP2 GT PUSH2 0x40EB JUMPI JUMPDEST POP DUP7 DUP11 PUSH1 0x1F DUP3 GT PUSH1 0x1 EQ PUSH2 0x4081 JUMPI DUP12 SWAP2 PUSH2 0x4076 JUMPI JUMPDEST POP DUP8 PUSH1 0x1 SHL SWAP1 PUSH1 0x0 NOT DUP10 PUSH1 0x3 SHL SHR NOT AND OR PUSH1 0x5 DUP6 ADD SSTORE JUMPDEST PUSH1 0x1 PUSH1 0x1 PUSH1 0x40 SHL SUB DUP6 GT PUSH2 0x3FA6 JUMPI PUSH2 0x3CCD PUSH1 0x6 DUP6 ADD SLOAD PUSH2 0x44B1 JUMP JUMPDEST PUSH1 0x1F DUP2 GT PUSH2 0x4031 JUMPI JUMPDEST POP DUP5 DUP11 PUSH1 0x1F DUP3 GT PUSH1 0x1 EQ PUSH2 0x3FC5 JUMPI DUP12 SWAP2 PUSH2 0x3FBA JUMPI JUMPDEST POP DUP6 PUSH1 0x1 SHL SWAP1 PUSH1 0x0 NOT DUP8 PUSH1 0x3 SHL SHR NOT AND OR PUSH1 0x6 DUP6 ADD SSTORE JUMPDEST PUSH1 0x1 PUSH1 0x1 PUSH1 0x40 SHL SUB DUP3 GT PUSH2 0x3FA6 JUMPI PUSH2 0x3D1D PUSH1 0x7 DUP6 ADD SLOAD PUSH2 0x44B1 JUMP JUMPDEST PUSH1 0x1F DUP2 GT PUSH2 0x3F62 JUMPI JUMPDEST POP SWAP3 PUSH1 0x20 SWAP12 SWAP7 SWAP5 SWAP3 DUP11 SWAP3 DUP13 SWAP10 SWAP8 SWAP6 DUP5 SWAP1 PUSH1 0x1F DUP4 GT PUSH1 0x1 EQ PUSH2 0x3EB6 JUMPI SWAP6 DUP16 PUSH2 0x3E6D SWAP14 PUSH2 0x1A04 DUP15 PUSH1 0x40 DUP11 DUP6 SWAP16 SWAP15 SWAP12 SWAP11 PUSH2 0x1A34 SWAP15 SWAP11 DUP11 DUP6 SWAP16 SWAP12 DUP7 SWAP12 DUP11 SWAP16 SWAP14 PUSH2 0x1A1C SWAP15 SWAP3 PUSH2 0x3EAB JUMPI JUMPDEST POP POP DUP2 PUSH1 0x1 SHL SWAP2 PUSH1 0x0 NOT SWAP1 PUSH1 0x3 SHL SHR NOT AND OR PUSH1 0x7 DUP4 ADD SSTORE JUMPDEST PUSH2 0x3D92 PUSH1 0xA4 CALLDATALOAD PUSH1 0x8 DUP5 ADD PUSH2 0x4930 JUMP JUMPDEST PUSH1 0xC4 CALLDATALOAD PUSH1 0x9 DUP4 ADD SSTORE PUSH1 0xE4 CALLDATALOAD PUSH1 0xB DUP4 ADD SSTORE PUSH2 0x2710 PUSH2 0x3DBA PUSH2 0x104 CALLDATALOAD DUP1 PUSH1 0xC DUP7 ADD SSTORE PUSH1 0xC4 CALLDATALOAD PUSH2 0x4AF8 JUMP JUMPDEST DIV PUSH1 0xD DUP4 ADD SSTORE PUSH2 0x124 CALLDATALOAD PUSH1 0xE DUP4 ADD SSTORE PUSH2 0x124 CALLDATALOAD PUSH1 0xF DUP4 ADD SSTORE PUSH1 0x11 DUP3 ADD PUSH2 0x3DE3 PUSH2 0x144 CALLDATALOAD DUP3 PUSH2 0x496D JUMP JUMPDEST DUP1 SLOAD PUSH3 0xFF0000 PUSH2 0x184 CALLDATALOAD PUSH1 0x10 SHL AND PUSH3 0xFFFF00 NOT SWAP1 SWAP2 AND PUSH2 0xFF00 PUSH2 0x164 CALLDATALOAD PUSH1 0x8 SHL AND OR OR DUP2 SSTORE PUSH2 0x1A4 CALLDATALOAD PUSH1 0x12 DUP5 ADD SSTORE PUSH1 0x14 DUP4 ADD DUP1 SLOAD SWAP3 ISZERO ISZERO PUSH1 0xFF AND PUSH1 0xFF NOT SWAP4 SWAP1 SWAP4 AND SWAP3 SWAP1 SWAP3 OR DUP3 SSTORE DUP1 SLOAD PUSH4 0xFF000000 NOT AND PUSH2 0x1E4 CALLDATALOAD PUSH1 0x18 SHL PUSH4 0xFF000000 AND OR SWAP1 SSTORE PUSH2 0x3E50 PUSH2 0x204 CALLDATALOAD DUP3 PUSH2 0x4977 JUMP JUMPDEST PUSH3 0xFF0000 NOT DUP2 SLOAD AND SWAP1 SSTORE PUSH1 0x15 TIMESTAMP SWAP2 ADD SSTORE CALLER DUP2 MSTORE PUSH1 0xB DUP7 MSTORE KECCAK256 PUSH2 0x4996 JUMP JUMPDEST PUSH1 0x40 MLOAD SWAP1 DUP2 MSTORE TIMESTAMP DUP4 DUP3 ADD MSTORE DUP2 PUSH32 0xC0C6ED2669FEBBE340D8737E8EC17254FFD9E038B54A4585FF70AC3CA18956AA PUSH1 0x40 CALLER SWAP4 LOG3 PUSH1 0x1 DUP1 SSTORE PUSH1 0x40 MLOAD SWAP1 DUP2 MSTORE RETURN JUMPDEST ADD CALLDATALOAD SWAP1 POP CODESIZE DUP1 PUSH2 0x3D6B JUMP JUMPDEST SWAP12 SWAP5 SWAP4 SWAP3 SWAP2 SWAP1 PUSH1 0x7 DUP5 ADD DUP6 MSTORE DUP16 DUP6 KECCAK256 SWAP1 DUP6 JUMPDEST PUSH1 0x1F NOT DUP5 AND DUP2 LT PUSH2 0x3F30 JUMPI POP PUSH1 0x20 SWAP11 SWAP10 SWAP7 PUSH2 0x1A04 PUSH2 0x3E6D SWAP16 DUP16 SWAP11 SWAP5 DUP15 SWAP10 PUSH2 0x1A34 SWAP14 SWAP10 PUSH2 0x1A1C SWAP10 PUSH1 0x1 DUP16 SWAP11 PUSH1 0x40 SWAP6 DUP16 SWAP11 SWAP8 DUP14 SWAP9 DUP4 PUSH1 0x1F NOT DUP2 AND LT PUSH2 0x3F16 JUMPI JUMPDEST POP POP POP DUP2 SHL ADD PUSH1 0x7 DUP4 ADD SSTORE PUSH2 0x3D83 JUMP JUMPDEST ADD CALLDATALOAD PUSH1 0x0 NOT PUSH1 0x3 DUP5 SWAP1 SHL PUSH1 0xF8 AND SHR NOT AND SWAP1 SSTORE CODESIZE DUP1 DUP1 PUSH2 0x3F06 JUMP JUMPDEST SWAP3 SWAP6 POP SWAP4 SWAP7 SWAP9 SWAP11 SWAP13 SWAP3 SWAP6 SWAP8 SWAP10 SWAP12 POP DUP16 PUSH1 0x1 DUP2 SWAP3 DUP7 DUP7 ADD CALLDATALOAD DUP2 SSTORE ADD SWAP5 ADD SWAP2 ADD SWAP3 DUP14 SWAP5 SWAP2 DUP16 SWAP13 SWAP11 SWAP9 SWAP7 SWAP4 SWAP14 SWAP12 SWAP10 SWAP8 SWAP5 PUSH2 0x3EC8 JUMP JUMPDEST PUSH1 0x7 DUP6 ADD DUP12 MSTORE PUSH1 0x20 DUP12 KECCAK256 PUSH1 0x1F DUP5 ADD PUSH1 0x5 SHR DUP2 ADD PUSH1 0x20 DUP6 LT PUSH2 0x3F9F JUMPI JUMPDEST PUSH1 0x1F DUP4 ADD PUSH1 0x5 SHR DUP3 ADD DUP2 LT PUSH2 0x3F94 JUMPI POP POP PUSH2 0x3D26 JUMP JUMPDEST DUP13 DUP2 SSTORE PUSH1 0x1 ADD PUSH2 0x3F7E JUMP JUMPDEST POP DUP1 PUSH2 0x3F7E JUMP JUMPDEST PUSH4 0x4E487B71 PUSH1 0xE0 SHL DUP11 MSTORE PUSH1 0x41 PUSH1 0x4 MSTORE PUSH1 0x24 DUP11 REVERT JUMPDEST SWAP1 POP DUP10 ADD CALLDATALOAD CODESIZE PUSH2 0x3CEB JUMP JUMPDEST PUSH1 0x6 DUP7 ADD DUP13 MSTORE PUSH1 0x20 DUP13 KECCAK256 SWAP2 POP DUP12 JUMPDEST DUP12 PUSH1 0x1F NOT DUP10 AND DUP3 LT PUSH2 0x4019 JUMPI POP POP DUP7 PUSH1 0x1F NOT DUP2 AND LT PUSH2 0x3FFF JUMPI JUMPDEST POP POP PUSH1 0x1 DUP6 DUP2 SHL ADD PUSH1 0x6 DUP6 ADD SSTORE PUSH2 0x3D02 JUMP JUMPDEST DUP11 ADD CALLDATALOAD PUSH1 0x0 NOT PUSH1 0x3 DUP9 SWAP1 SHL PUSH1 0xF8 AND SHR NOT AND SWAP1 SSTORE CODESIZE DUP1 PUSH2 0x3FED JUMP JUMPDEST PUSH1 0x1 DUP4 SWAP5 PUSH1 0x20 SWAP4 SWAP5 DUP5 SWAP4 ADD CALLDATALOAD DUP2 SSTORE ADD SWAP4 ADD SWAP2 ADD PUSH2 0x3FD3 JUMP JUMPDEST PUSH1 0x6 DUP6 ADD DUP12 MSTORE PUSH1 0x20 DUP12 KECCAK256 PUSH1 0x1F DUP8 ADD PUSH1 0x5 SHR DUP2 ADD PUSH1 0x20 DUP9 LT PUSH2 0x406F JUMPI JUMPDEST DUP13 PUSH1 0x1F DUP5 ADD PUSH1 0x5 SHR DUP4 ADD DUP3 LT PUSH2 0x4065 JUMPI POP POP POP PUSH2 0x3CD6 JUMP JUMPDEST DUP2 SSTORE PUSH1 0x1 ADD PUSH2 0x404D JUMP JUMPDEST POP DUP1 PUSH2 0x404D JUMP JUMPDEST SWAP1 POP DUP7 ADD CALLDATALOAD CODESIZE PUSH2 0x3C9B JUMP JUMPDEST PUSH1 0x5 DUP7 ADD DUP13 MSTORE PUSH1 0x20 DUP13 KECCAK256 SWAP2 POP DUP12 JUMPDEST PUSH1 0x1F NOT DUP11 AND DUP2 LT PUSH2 0x40D3 JUMPI POP DUP9 PUSH1 0x1F NOT DUP2 AND LT PUSH2 0x40B9 JUMPI JUMPDEST POP POP PUSH1 0x1 DUP8 DUP2 SHL ADD PUSH1 0x5 DUP6 ADD SSTORE PUSH2 0x3CB2 JUMP JUMPDEST DUP8 ADD CALLDATALOAD PUSH1 0x0 NOT PUSH1 0x3 DUP11 SWAP1 SHL PUSH1 0xF8 AND SHR NOT AND SWAP1 SSTORE CODESIZE DUP1 PUSH2 0x40A7 JUMP JUMPDEST SWAP1 SWAP2 PUSH1 0x20 PUSH1 0x1 DUP2 SWAP3 DUP6 DUP13 ADD CALLDATALOAD DUP2 SSTORE ADD SWAP4 ADD SWAP2 ADD PUSH2 0x408F JUMP JUMPDEST PUSH1 0x5 DUP6 ADD DUP12 MSTORE PUSH1 0x20 DUP12 KECCAK256 PUSH1 0x1F DUP10 ADD PUSH1 0x5 SHR DUP2 ADD PUSH1 0x20 DUP11 LT PUSH2 0x4129 JUMPI JUMPDEST DUP13 PUSH1 0x1F DUP5 ADD PUSH1 0x5 SHR DUP4 ADD DUP3 LT PUSH2 0x411F JUMPI POP POP POP PUSH2 0x3C86 JUMP JUMPDEST DUP2 SSTORE PUSH1 0x1 ADD PUSH2 0x4107 JUMP JUMPDEST POP DUP1 PUSH2 0x4107 JUMP JUMPDEST SWAP1 POP DUP9 ADD CALLDATALOAD CODESIZE PUSH2 0x3C4A JUMP JUMPDEST PUSH1 0x4 DUP7 ADD DUP13 MSTORE PUSH1 0x20 DUP13 KECCAK256 SWAP2 POP DUP12 DUP15 JUMPDEST DUP12 PUSH1 0x1F NOT DUP3 AND DUP4 LT PUSH2 0x4190 JUMPI POP PUSH1 0x1F NOT DUP2 AND LT SWAP1 POP PUSH2 0x4176 JUMPI JUMPDEST POP POP PUSH1 0x1 DUP13 DUP2 SHL ADD PUSH1 0x4 DUP6 ADD SSTORE PUSH2 0x3C62 JUMP JUMPDEST DUP10 ADD CALLDATALOAD PUSH1 0x0 NOT PUSH1 0x3 DUP16 SWAP1 SHL PUSH1 0xF8 AND SHR NOT AND SWAP1 SSTORE CODESIZE DUP1 PUSH2 0x4164 JUMP JUMPDEST PUSH1 0x1 DUP5 SWAP6 PUSH1 0x20 SWAP4 SWAP5 SWAP6 DUP5 SWAP4 ADD CALLDATALOAD DUP2 SSTORE ADD SWAP5 ADD SWAP3 ADD SWAP1 PUSH2 0x414A JUMP JUMPDEST PUSH1 0x4 DUP6 ADD DUP12 MSTORE PUSH1 0x20 DUP12 KECCAK256 DUP14 PUSH1 0x20 PUSH1 0x1F DUP3 ADD PUSH1 0x5 SHR DUP4 ADD SWAP2 LT PUSH2 0x41E9 JUMPI JUMPDEST DUP13 PUSH1 0x1F DUP5 ADD PUSH1 0x5 SHR DUP4 ADD DUP3 LT PUSH2 0x41DF JUMPI POP POP POP PUSH2 0x3C35 JUMP JUMPDEST DUP2 SSTORE PUSH1 0x1 ADD PUSH2 0x41C7 JUMP JUMPDEST POP DUP1 PUSH2 0x41C7 JUMP JUMPDEST ADD CALLDATALOAD SWAP1 POP CODESIZE DUP1 PUSH2 0x3BF9 JUMP JUMPDEST PUSH1 0x3 DUP9 ADD DUP15 MSTORE PUSH1 0x20 DUP15 KECCAK256 DUP15 SWAP5 POP SWAP2 JUMPDEST PUSH1 0x1F NOT DUP5 AND DUP6 LT PUSH2 0x424F JUMPI PUSH1 0x1 SWAP5 POP DUP4 PUSH1 0x1F NOT DUP2 AND LT PUSH2 0x4235 JUMPI JUMPDEST POP POP POP DUP2 SHL ADD PUSH1 0x3 DUP6 ADD SSTORE PUSH2 0x3C11 JUMP JUMPDEST ADD CALLDATALOAD PUSH1 0x0 NOT PUSH1 0x3 DUP5 SWAP1 SHL PUSH1 0xF8 AND SHR NOT AND SWAP1 SSTORE CODESIZE DUP1 DUP1 PUSH2 0x4225 JUMP JUMPDEST DUP2 DUP2 ADD CALLDATALOAD DUP4 SSTORE PUSH1 0x20 SWAP5 DUP6 ADD SWAP5 PUSH1 0x1 SWAP1 SWAP4 ADD SWAP3 ADD PUSH2 0x420A JUMP JUMPDEST SWAP1 SWAP2 POP PUSH1 0x3 DUP8 ADD DUP14 MSTORE PUSH1 0x20 DUP14 KECCAK256 PUSH1 0x1F DUP5 ADD PUSH1 0x5 SHR DUP2 ADD PUSH1 0x20 DUP6 LT PUSH2 0x42B2 JUMPI JUMPDEST DUP5 SWAP4 SWAP3 SWAP2 SWAP1 DUP16 JUMPDEST PUSH1 0x1F DUP5 ADD PUSH1 0x5 SHR DUP4 ADD DUP3 LT PUSH2 0x42A4 JUMPI POP POP POP PUSH2 0x3BE4 JUMP JUMPDEST DUP2 SSTORE DUP6 SWAP5 POP PUSH1 0x1 ADD DUP16 PUSH2 0x428D JUMP JUMPDEST POP DUP1 PUSH2 0x4286 JUMP JUMPDEST PUSH4 0x4E487B71 PUSH1 0xE0 SHL DUP13 MSTORE PUSH1 0x41 PUSH1 0x4 MSTORE PUSH1 0x24 DUP13 REVERT JUMPDEST PUSH1 0x4 SLOAD PUSH1 0x3 SLOAD PUSH2 0x42F0 SWAP2 PUSH2 0x124 CALLDATALOAD SWAP2 PUSH1 0x1 PUSH1 0x1 PUSH1 0xA0 SHL SUB SWAP1 DUP2 AND SWAP2 CALLER SWAP2 AND PUSH2 0x49CB JUMP JUMPDEST PUSH2 0x3B8A JUMP JUMPDEST SWAP1 SWAP2 POP PUSH1 0x20 DUP2 RETURNDATASIZE PUSH1 0x20 GT PUSH2 0x4327 JUMPI JUMPDEST DUP2 PUSH2 0x4311 PUSH1 0x20 SWAP4 DUP4 PUSH2 0x454C JUMP JUMPDEST DUP2 ADD SUB SLT PUSH2 0x4323 JUMPI MLOAD SWAP1 PUSH2 0x3B81 PUSH2 0x3B75 JUMP JUMPDEST DUP13 DUP1 REVERT JUMPDEST RETURNDATASIZE SWAP2 POP PUSH2 0x4304 JUMP JUMPDEST PUSH1 0x40 MLOAD RETURNDATASIZE DUP16 DUP3 RETURNDATACOPY RETURNDATASIZE SWAP1 REVERT JUMPDEST DUP9 DUP1 REVERT JUMPDEST SWAP2 DUP2 PUSH1 0x1F DUP5 ADD SLT ISZERO PUSH2 0x1F04 JUMPI DUP3 CALLDATALOAD SWAP2 PUSH1 0x1 PUSH1 0x1 PUSH1 0x40 SHL SUB DUP4 GT PUSH2 0x1F04 JUMPI PUSH1 0x20 DUP4 DUP2 DUP7 ADD SWAP6 ADD ADD GT PUSH2 0x1F04 JUMPI JUMP JUMPDEST PUSH2 0x1C4 CALLDATALOAD SWAP1 DUP2 ISZERO ISZERO DUP3 SUB PUSH2 0x1F04 JUMPI JUMP JUMPDEST PUSH1 0x4 CALLDATALOAD SWAP1 PUSH1 0x1 PUSH1 0x1 PUSH1 0xA0 SHL SUB DUP3 AND DUP3 SUB PUSH2 0x1F04 JUMPI JUMP JUMPDEST PUSH1 0x24 CALLDATALOAD SWAP1 PUSH1 0x1 PUSH1 0x1 PUSH1 0xA0 SHL SUB DUP3 AND DUP3 SUB PUSH2 0x1F04 JUMPI JUMP JUMPDEST DUP1 SLOAD DUP3 LT ISZERO PUSH2 0x43BF JUMPI PUSH1 0x0 MSTORE PUSH1 0x20 PUSH1 0x0 KECCAK256 ADD SWAP1 PUSH1 0x0 SWAP1 JUMP JUMPDEST PUSH4 0x4E487B71 PUSH1 0xE0 SHL PUSH1 0x0 MSTORE PUSH1 0x32 PUSH1 0x4 MSTORE PUSH1 0x24 PUSH1 0x0 REVERT JUMPDEST PUSH1 0x20 SWAP1 DUP2 PUSH1 0x40 DUP2 DUP4 ADD SWAP3 DUP3 DUP2 MSTORE DUP6 MLOAD DUP1 SWAP5 MSTORE ADD SWAP4 ADD SWAP2 PUSH1 0x0 JUMPDEST DUP3 DUP2 LT PUSH2 0x43FC JUMPI POP POP POP POP SWAP1 JUMP JUMPDEST DUP4 MLOAD DUP6 MSTORE SWAP4 DUP2 ADD SWAP4 SWAP3 DUP2 ADD SWAP3 PUSH1 0x1 ADD PUSH2 0x43EE JUMP JUMPDEST PUSH1 0x3 GT ISZERO PUSH2 0xE0B JUMPI JUMP JUMPDEST SWAP1 PUSH1 0x4 DUP3 LT ISZERO PUSH2 0xE0B JUMPI MSTORE JUMP JUMPDEST SWAP12 SWAP10 SWAP8 SWAP6 SWAP4 SWAP2 SWAP15 SWAP14 SWAP13 SWAP11 SWAP9 SWAP7 SWAP5 SWAP3 SWAP1 SWAP15 PUSH2 0x1C0 DUP14 ADD SWAP16 DUP14 MSTORE PUSH1 0x20 DUP14 ADD MSTORE PUSH1 0x1 PUSH1 0xA0 SHL PUSH1 0x1 SWAP1 SUB AND PUSH1 0x40 DUP13 ADD MSTORE PUSH2 0x445C DUP2 PUSH2 0x4410 JUMP JUMPDEST PUSH1 0x60 DUP12 ADD MSTORE PUSH1 0x80 DUP11 ADD MSTORE PUSH1 0xA0 DUP10 ADD MSTORE PUSH1 0xC0 DUP9 ADD MSTORE PUSH1 0xE0 DUP8 ADD MSTORE PUSH2 0x447E DUP2 PUSH2 0x4410 JUMP JUMPDEST PUSH2 0x100 DUP7 ADD MSTORE PUSH1 0xFF AND PUSH2 0x120 DUP6 ADD MSTORE PUSH1 0xFF AND PUSH2 0x140 DUP5 ADD MSTORE PUSH2 0x160 DUP4 ADD MSTORE PUSH2 0x180 DUP3 ADD MSTORE PUSH2 0x1A0 ADD PUSH2 0x44AF SWAP2 PUSH2 0x441A JUMP JUMPDEST JUMP JUMPDEST SWAP1 PUSH1 0x1 DUP3 DUP2 SHR SWAP3 AND DUP1 ISZERO PUSH2 0x44E1 JUMPI JUMPDEST PUSH1 0x20 DUP4 LT EQ PUSH2 0x44CB JUMPI JUMP JUMPDEST PUSH4 0x4E487B71 PUSH1 0xE0 SHL PUSH1 0x0 MSTORE PUSH1 0x22 PUSH1 0x4 MSTORE PUSH1 0x24 PUSH1 0x0 REVERT JUMPDEST SWAP2 PUSH1 0x7F AND SWAP2 PUSH2 0x44C0 JUMP JUMPDEST PUSH2 0x1C0 DUP2 ADD SWAP1 DUP2 LT PUSH1 0x1 PUSH1 0x1 PUSH1 0x40 SHL SUB DUP3 GT OR PUSH2 0x4507 JUMPI PUSH1 0x40 MSTORE JUMP JUMPDEST PUSH4 0x4E487B71 PUSH1 0xE0 SHL PUSH1 0x0 MSTORE PUSH1 0x41 PUSH1 0x4 MSTORE PUSH1 0x24 PUSH1 0x0 REVERT JUMPDEST PUSH1 0x1 PUSH1 0x1 PUSH1 0x40 SHL SUB DUP2 GT PUSH2 0x4507 JUMPI PUSH1 0x40 MSTORE JUMP JUMPDEST PUSH2 0x400 DUP2 ADD SWAP1 DUP2 LT PUSH1 0x1 PUSH1 0x1 PUSH1 0x40 SHL SUB DUP3 GT OR PUSH2 0x4507 JUMPI PUSH1 0x40 MSTORE JUMP JUMPDEST SWAP1 PUSH1 0x1F DUP1 NOT SWAP2 ADD AND DUP2 ADD SWAP1 DUP2 LT PUSH1 0x1 PUSH1 0x1 PUSH1 0x40 SHL SUB DUP3 GT OR PUSH2 0x4507 JUMPI PUSH1 0x40 MSTORE JUMP JUMPDEST SWAP1 PUSH1 0x40 MLOAD SWAP2 DUP3 PUSH1 0x0 DUP3 SLOAD SWAP3 PUSH2 0x4581 DUP5 PUSH2 0x44B1 JUMP JUMPDEST SWAP1 DUP2 DUP5 MSTORE PUSH1 0x1 SWAP5 DUP6 DUP2 AND SWAP1 DUP2 PUSH1 0x0 EQ PUSH2 0x45EE JUMPI POP PUSH1 0x1 EQ PUSH2 0x45AB JUMPI JUMPDEST POP POP PUSH2 0x44AF SWAP3 POP SUB DUP4 PUSH2 0x454C JUMP JUMPDEST SWAP1 SWAP4 SWAP2 POP PUSH1 0x0 MSTORE PUSH1 0x20 SWAP1 DUP2 PUSH1 0x0 KECCAK256 SWAP4 PUSH1 0x0 SWAP2 JUMPDEST DUP2 DUP4 LT PUSH2 0x45D6 JUMPI POP POP PUSH2 0x44AF SWAP4 POP DUP3 ADD ADD CODESIZE DUP1 PUSH2 0x459D JUMP JUMPDEST DUP6 SLOAD DUP9 DUP5 ADD DUP6 ADD MSTORE SWAP5 DUP6 ADD SWAP5 DUP8 SWAP5 POP SWAP2 DUP4 ADD SWAP2 PUSH2 0x45BE JUMP JUMPDEST SWAP2 POP POP PUSH2 0x44AF SWAP5 POP PUSH1 0x20 SWAP3 POP PUSH1 0xFF NOT AND DUP3 DUP5 ADD MSTORE ISZERO ISZERO PUSH1 0x5 SHL DUP3 ADD ADD CODESIZE DUP1 PUSH2 0x459D JUMP JUMPDEST SWAP2 SWAP1 DUP3 MLOAD SWAP3 DUP4 DUP3 MSTORE PUSH1 0x0 JUMPDEST DUP5 DUP2 LT PUSH2 0x463D JUMPI POP POP DUP3 PUSH1 0x0 PUSH1 0x20 DUP1 SWAP5 SWAP6 DUP5 ADD ADD MSTORE PUSH1 0x1F DUP1 NOT SWAP2 ADD AND ADD ADD SWAP1 JUMP JUMPDEST PUSH1 0x20 DUP2 DUP4 ADD DUP2 ADD MLOAD DUP5 DUP4 ADD DUP3 ADD MSTORE ADD PUSH2 0x461C JUMP JUMPDEST PUSH1 0x2 GT ISZERO PUSH2 0xE0B JUMPI JUMP JUMPDEST SWAP1 PUSH1 0xB DUP3 LT ISZERO PUSH2 0xE0B JUMPI MSTORE JUMP JUMPDEST PUSH1 0x40 SWAP1 PUSH1 0x3 NOT ADD SLT PUSH2 0x1F04 JUMPI PUSH1 0x4 CALLDATALOAD SWAP1 PUSH1 0x24 CALLDATALOAD SWAP1 JUMP JUMPDEST DUP1 SLOAD DUP3 LT ISZERO PUSH2 0x43BF JUMPI PUSH1 0x0 MSTORE PUSH1 0xB PUSH1 0x20 PUSH1 0x0 KECCAK256 SWAP2 MUL ADD SWAP1 PUSH1 0x0 SWAP1 JUMP JUMPDEST CALLER PUSH1 0x0 SWAP1 DUP2 MSTORE PUSH32 0xAD3228B676F7D3CD4284A5443F17F1962B36E491B30A40B2405849E597BA5FB5 PUSH1 0x20 MSTORE PUSH1 0x40 DUP2 KECCAK256 SLOAD PUSH1 0xFF AND ISZERO PUSH2 0x46D4 JUMPI POP JUMP JUMPDEST PUSH1 0x44 SWAP1 PUSH1 0x40 MLOAD SWAP1 PUSH4 0xE2517D3F PUSH1 0xE0 SHL DUP3 MSTORE CALLER PUSH1 0x4 DUP4 ADD MSTORE PUSH1 0x24 DUP3 ADD MSTORE REVERT JUMPDEST DUP1 PUSH1 0x0 MSTORE PUSH1 0x0 PUSH1 0x20 MSTORE PUSH1 0x40 PUSH1 0x0 KECCAK256 CALLER PUSH1 0x0 MSTORE PUSH1 0x20 MSTORE PUSH1 0xFF PUSH1 0x40 PUSH1 0x0 KECCAK256 SLOAD AND ISZERO PUSH2 0x46D4 JUMPI POP JUMP JUMPDEST SWAP1 PUSH1 0x0 SWAP2 DUP1 DUP4 MSTORE DUP3 PUSH1 0x20 MSTORE PUSH1 0x40 DUP4 KECCAK256 SWAP2 PUSH1 0x1 DUP1 PUSH1 0xA0 SHL SUB AND SWAP2 DUP3 DUP5 MSTORE PUSH1 0x20 MSTORE PUSH1 0xFF PUSH1 0x40 DUP5 KECCAK256 SLOAD AND ISZERO PUSH1 0x0 EQ PUSH2 0x4791 JUMPI DUP1 DUP4 MSTORE DUP3 PUSH1 0x20 MSTORE PUSH1 0x40 DUP4 KECCAK256 DUP3 DUP5 MSTORE PUSH1 0x20 MSTORE PUSH1 0x40 DUP4 KECCAK256 PUSH1 0x1 PUSH1 0xFF NOT DUP3 SLOAD AND OR SWAP1 SSTORE PUSH32 0x2F8788117E7EFF1D82E926EC794901D17C78024A50270940304540A733656F0D CALLER SWAP4 DUP1 LOG4 PUSH1 0x1 SWAP1 JUMP JUMPDEST POP POP SWAP1 JUMP JUMPDEST SWAP1 PUSH1 0x0 SWAP2 DUP1 DUP4 MSTORE DUP3 PUSH1 0x20 MSTORE PUSH1 0x40 DUP4 KECCAK256 SWAP2 PUSH1 0x1 DUP1 PUSH1 0xA0 SHL SUB AND SWAP2 DUP3 DUP5 MSTORE PUSH1 0x20 MSTORE PUSH1 0xFF PUSH1 0x40 DUP5 KECCAK256 SLOAD AND PUSH1 0x0 EQ PUSH2 0x4791 JUMPI DUP1 DUP4 MSTORE DUP3 PUSH1 0x20 MSTORE PUSH1 0x40 DUP4 KECCAK256 DUP3 DUP5 MSTORE PUSH1 0x20 MSTORE PUSH1 0x40 DUP4 KECCAK256 PUSH1 0xFF NOT DUP2 SLOAD AND SWAP1 SSTORE PUSH32 0xF6391F5C32D9C69D2A47EA670B442974B53935D1EDC7FD64EB21E047A839171B CALLER SWAP4 DUP1 LOG4 PUSH1 0x1 SWAP1 JUMP JUMPDEST ISZERO PUSH2 0x4812 JUMPI JUMP JUMPDEST PUSH1 0x40 MLOAD PUSH3 0x461BCD PUSH1 0xE5 SHL DUP2 MSTORE PUSH1 0x20 PUSH1 0x4 DUP3 ADD MSTORE PUSH1 0x26 PUSH1 0x24 DUP3 ADD MSTORE PUSH32 0x4F7074696F6E73436F72653A206E6F74696F6E616C206D75737420626520706F PUSH1 0x44 DUP3 ADD MSTORE PUSH6 0x736974697665 PUSH1 0xD0 SHL PUSH1 0x64 DUP3 ADD MSTORE PUSH1 0x84 SWAP1 REVERT JUMPDEST ISZERO PUSH2 0x486D JUMPI JUMP JUMPDEST PUSH1 0x40 MLOAD PUSH3 0x461BCD PUSH1 0xE5 SHL DUP2 MSTORE PUSH1 0x20 PUSH1 0x4 DUP3 ADD MSTORE PUSH1 0x25 PUSH1 0x24 DUP3 ADD MSTORE PUSH32 0x4F7074696F6E73436F72653A20657870697279206D75737420626520696E2066 PUSH1 0x44 DUP3 ADD MSTORE PUSH5 0x7574757265 PUSH1 0xD8 SHL PUSH1 0x64 DUP3 ADD MSTORE PUSH1 0x84 SWAP1 REVERT JUMPDEST ISZERO PUSH2 0x48C7 JUMPI JUMP JUMPDEST PUSH1 0x64 PUSH1 0x40 MLOAD PUSH3 0x461BCD PUSH1 0xE5 SHL DUP2 MSTORE PUSH1 0x20 PUSH1 0x4 DUP3 ADD MSTORE PUSH1 0x20 PUSH1 0x24 DUP3 ADD MSTORE PUSH32 0x4F7074696F6E73436F72653A206D617267696E207261746520746F6F206C6F77 PUSH1 0x44 DUP3 ADD MSTORE REVERT JUMPDEST PUSH1 0x0 NOT DUP2 EQ PUSH2 0x491A JUMPI PUSH1 0x1 ADD SWAP1 JUMP JUMPDEST PUSH4 0x4E487B71 PUSH1 0xE0 SHL PUSH1 0x0 MSTORE PUSH1 0x11 PUSH1 0x4 MSTORE PUSH1 0x24 PUSH1 0x0 REVERT JUMPDEST SWAP1 PUSH2 0x493A DUP2 PUSH2 0x4651 JUMP JUMPDEST PUSH1 0xFF DUP1 NOT DUP4 SLOAD AND SWAP2 AND OR SWAP1 SSTORE JUMP JUMPDEST SWAP1 PUSH2 0x4952 DUP2 PUSH2 0x4410 JUMP JUMPDEST PUSH5 0xFF00000000 DUP3 SLOAD SWAP2 PUSH1 0x20 SHL AND SWAP1 PUSH5 0xFF00000000 NOT AND OR SWAP1 SSTORE JUMP JUMPDEST SWAP1 PUSH2 0x493A DUP2 PUSH2 0x4410 JUMP JUMPDEST SWAP1 PUSH2 0x4981 DUP2 PUSH2 0x4651 JUMP JUMPDEST PUSH2 0xFF00 DUP3 SLOAD SWAP2 PUSH1 0x8 SHL AND SWAP1 PUSH2 0xFF00 NOT AND OR SWAP1 SSTORE JUMP JUMPDEST DUP1 SLOAD PUSH1 0x1 PUSH1 0x40 SHL DUP2 LT ISZERO PUSH2 0x4507 JUMPI PUSH2 0x49B3 SWAP2 PUSH1 0x1 DUP3 ADD DUP2 SSTORE PUSH2 0x43A7 JUMP JUMPDEST DUP2 SWAP3 SWAP2 SLOAD SWAP1 PUSH1 0x3 SHL SWAP2 DUP3 SHL SWAP2 PUSH1 0x0 NOT SWAP1 SHL NOT AND OR SWAP1 SSTORE JUMP JUMPDEST PUSH1 0x40 MLOAD PUSH4 0x23B872DD PUSH1 0xE0 SHL PUSH1 0x20 DUP1 DUP4 ADD SWAP2 DUP3 MSTORE PUSH1 0x1 PUSH1 0x1 PUSH1 0xA0 SHL SUB SWAP5 DUP6 AND PUSH1 0x24 DUP5 ADD MSTORE SWAP5 SWAP1 SWAP4 AND PUSH1 0x44 DUP3 ADD MSTORE PUSH1 0x64 DUP1 DUP3 ADD SWAP6 SWAP1 SWAP6 MSTORE SWAP4 DUP5 MSTORE SWAP3 PUSH1 0x0 SWAP2 SWAP1 PUSH2 0x4A13 PUSH1 0x84 DUP3 PUSH2 0x454C JUMP JUMPDEST MLOAD SWAP1 DUP3 DUP6 GAS CALL ISZERO PUSH2 0x4A66 JUMPI PUSH1 0x0 MLOAD RETURNDATASIZE PUSH2 0x4A5D JUMPI POP PUSH1 0x1 PUSH1 0x1 PUSH1 0xA0 SHL SUB DUP2 AND EXTCODESIZE ISZERO JUMPDEST PUSH2 0x4A3B JUMPI POP JUMP JUMPDEST PUSH1 0x40 MLOAD PUSH4 0x5274AFE7 PUSH1 0xE0 SHL DUP2 MSTORE PUSH1 0x1 PUSH1 0x1 PUSH1 0xA0 SHL SUB SWAP1 SWAP2 AND PUSH1 0x4 DUP3 ADD MSTORE PUSH1 0x24 SWAP1 REVERT JUMPDEST PUSH1 0x1 EQ ISZERO PUSH2 0x4A34 JUMP JUMPDEST PUSH1 0x40 MLOAD RETURNDATASIZE PUSH1 0x0 DUP3 RETURNDATACOPY RETURNDATASIZE SWAP1 REVERT JUMPDEST PUSH1 0xFF PUSH1 0x2 SLOAD AND PUSH2 0x4A7E JUMPI JUMP JUMPDEST PUSH1 0x40 MLOAD PUSH4 0xD93C0665 PUSH1 0xE0 SHL DUP2 MSTORE PUSH1 0x4 SWAP1 REVERT JUMPDEST PUSH1 0x2 PUSH1 0x1 SLOAD EQ PUSH2 0x4AA1 JUMPI PUSH1 0x2 PUSH1 0x1 SSTORE JUMP JUMPDEST PUSH1 0x40 MLOAD PUSH4 0x3EE5AEB5 PUSH1 0xE0 SHL DUP2 MSTORE PUSH1 0x4 SWAP1 REVERT JUMPDEST ISZERO PUSH2 0x4ABA JUMPI JUMP JUMPDEST PUSH1 0x40 MLOAD PUSH3 0x461BCD PUSH1 0xE5 SHL DUP2 MSTORE PUSH1 0x20 PUSH1 0x4 DUP3 ADD MSTORE PUSH1 0x16 PUSH1 0x24 DUP3 ADD MSTORE PUSH22 0x27B83A34B7B739A1B7B9329D103737BA10313ABCB2B9 PUSH1 0x51 SHL PUSH1 0x44 DUP3 ADD MSTORE PUSH1 0x64 SWAP1 REVERT JUMPDEST DUP2 DUP2 MUL SWAP3 SWAP2 DUP2 ISZERO SWAP2 DUP5 DIV EQ OR ISZERO PUSH2 0x491A JUMPI JUMP JUMPDEST DUP2 ISZERO PUSH2 0x4B15 JUMPI DIV SWAP1 JUMP JUMPDEST PUSH4 0x4E487B71 PUSH1 0xE0 SHL PUSH1 0x0 MSTORE PUSH1 0x12 PUSH1 0x4 MSTORE PUSH1 0x24 PUSH1 0x0 REVERT JUMPDEST SWAP2 SWAP1 DUP3 ADD DUP1 SWAP3 GT PUSH2 0x491A JUMPI JUMP JUMPDEST ISZERO PUSH2 0x4B3F JUMPI JUMP JUMPDEST PUSH1 0x40 MLOAD PUSH3 0x461BCD PUSH1 0xE5 SHL DUP2 MSTORE PUSH1 0x20 PUSH1 0x4 DUP3 ADD MSTORE PUSH1 0x1D PUSH1 0x24 DUP3 ADD MSTORE PUSH32 0x4F7074696F6E73436F72653A20696E76616C6964206F72646572206964000000 PUSH1 0x44 DUP3 ADD MSTORE PUSH1 0x64 SWAP1 REVERT JUMPDEST PUSH1 0xA PUSH2 0x1A0 SWAP2 DUP4 MLOAD DUP2 SSTORE PUSH1 0x20 DUP5 ADD MLOAD PUSH1 0x1 DUP3 ADD SSTORE PUSH1 0x2 DUP2 ADD PUSH1 0x1 DUP1 PUSH1 0xA0 SHL SUB PUSH1 0x40 DUP7 ADD MLOAD AND DUP2 SLOAD SWAP1 PUSH1 0x60 DUP8 ADD MLOAD PUSH2 0x4BBA DUP2 PUSH2 0x4410 JUMP JUMPDEST PUSH2 0x4BC3 DUP2 PUSH2 0x4410 JUMP JUMPDEST PUSH1 0xFF PUSH1 0xA0 SHL SWAP1 PUSH1 0xA0 SHL AND SWAP2 PUSH11 0xFFFFFFFFFFFFFFFFFFFFFF PUSH1 0xA8 SHL AND OR OR SWAP1 SSTORE PUSH1 0x80 DUP5 ADD MLOAD PUSH1 0x3 DUP3 ADD SSTORE PUSH1 0xA0 DUP5 ADD MLOAD PUSH1 0x4 DUP3 ADD SSTORE PUSH1 0xC0 DUP5 ADD MLOAD PUSH1 0x5 DUP3 ADD SSTORE PUSH1 0xE0 DUP5 ADD MLOAD PUSH1 0x6 DUP3 ADD SSTORE PUSH2 0x4C61 PUSH1 0x7 DUP3 ADD PUSH2 0x4C29 PUSH2 0x100 DUP8 ADD MLOAD PUSH2 0x4C23 DUP2 PUSH2 0x4410 JUMP JUMPDEST DUP3 PUSH2 0x496D JUMP JUMPDEST PUSH2 0x120 DUP7 ADD MLOAD DUP2 SLOAD PUSH2 0xFF00 NOT AND PUSH1 0x8 SWAP2 SWAP1 SWAP2 SHL PUSH2 0xFF00 AND OR DUP2 SSTORE PUSH2 0x140 DUP7 ADD MLOAD DUP2 SLOAD PUSH3 0xFF0000 NOT AND PUSH1 0x10 SWAP2 SWAP1 SWAP2 SHL PUSH3 0xFF0000 AND OR SWAP1 SSTORE JUMP JUMPDEST PUSH2 0x160 DUP5 ADD MLOAD PUSH1 0x8 DUP3 ADD SSTORE PUSH2 0x180 DUP5 ADD MLOAD PUSH1 0x9 DUP3 ADD SSTORE ADD SWAP2 ADD MLOAD PUSH1 0x4 DUP2 LT ISZERO PUSH2 0xE0B JUMPI PUSH1 0xFF DUP1 NOT DUP4 SLOAD AND SWAP2 AND OR SWAP1 SSTORE JUMP JUMPDEST ISZERO PUSH2 0x4C99 JUMPI JUMP JUMPDEST PUSH1 0x40 MLOAD PUSH3 0x461BCD PUSH1 0xE5 SHL DUP2 MSTORE PUSH1 0x20 PUSH1 0x4 DUP3 ADD MSTORE PUSH1 0x17 PUSH1 0x24 DUP3 ADD MSTORE PUSH32 0x4F7074696F6E73436F72653A206E6F742073656C6C6572000000000000000000 PUSH1 0x44 DUP3 ADD MSTORE PUSH1 0x64 SWAP1 REVERT JUMPDEST ISZERO PUSH2 0x4CE5 JUMPI JUMP JUMPDEST PUSH1 0x40 MLOAD PUSH3 0x461BCD PUSH1 0xE5 SHL DUP2 MSTORE PUSH1 0x20 PUSH1 0x4 DUP3 ADD MSTORE PUSH1 0x1B PUSH1 0x24 DUP3 ADD MSTORE PUSH32 0x4F7074696F6E73436F72653A206F72646572206E6F74206C6976650000000000 PUSH1 0x44 DUP3 ADD MSTORE PUSH1 0x64 SWAP1 REVERT JUMPDEST SWAP2 SWAP1 DUP3 SUB SWAP2 DUP3 GT PUSH2 0x491A JUMPI JUMP JUMPDEST SWAP1 DUP2 MLOAD DUP2 LT ISZERO PUSH2 0x43BF JUMPI ADD PUSH1 0x20 ADD SWAP1 JUMP INVALID 0xCE GASPRICE BALANCE 0xBA 0xF9 SWAP6 PUSH15 0x86200EE7044A75C2BEFBD05091279 DUP12 PUSH28 0xCD25D05831AB9592A26469706673582212205E2B6D1B30C498027642 PUSH25 0x20EF8E6BA5B1A53A15269D1B342DA16FE3A577EF8A64736F6C PUSH4 0x43000814 STOP CALLER "},"methodIdentifiers":{"DEFAULT_ADMIN_ROLE()":"a217fddf","acceptQuote(uint256)":"5d7ffe7b","addMargin(uint256,uint256)":"d41194b8","buyerOrders(address,uint256)":"4500cb60","cancelRFQ(uint256)":"bc0ef26b","config()":"79502c55","createBuyerRFQ(string,string,string,string,string,uint8,uint256,uint256,uint256,uint256,uint8,address,uint256,uint256,bool,uint8,uint8,uint8,uint8)":"979b4e6d","createSellerOrder(string,string,string,string,string,uint8,uint256,uint256,uint256,uint256,uint8,uint8,uint8,uint256,bool,uint8,uint8)":"01d0d5b8","earlyExercise(uint256)":"46f8226c","forceLiquidate(uint256)":"6ca14389","getBuyerOrders(address)":"a45f2ebc","getOrder(uint256)":"d09ef241","getOrdersByCountry(string)":"cf3fec43","getOrdersByMarket(string)":"7d900421","getQuotes(uint256)":"d049bfef","getRoleAdmin(bytes32)":"248a9ca3","getSellerOrders(address)":"e4cbac40","grantRole(bytes32,address)":"2f2ff15d","hasRole(bytes32,address)":"91d14854","initiateArbitration(uint256)":"6af58cff","nextOrderId()":"2a58b330","nextQuoteId()":"4efef6aa","orderQuotes(uint256,uint256)":"f7ff6426","orders(uint256)":"a85c38ef","pause()":"8456cb59","paused()":"5c975abb","quotes(uint256)":"a61cf0d4","renounceRole(bytes32,address)":"36568abe","requestFeed(uint256,uint8)":"6dbe7579","revokeRole(bytes32,address)":"d547741f","sellerOrders(address,uint256)":"45cb4505","setConfig(address)":"20e3dbd4","setVaultManager(address)":"b543503e","settle(uint256)":"8df82800","submitQuote(uint256,uint256,uint256,uint8,uint8,uint8)":"7203a582","supportsInterface(bytes4)":"01ffc9a7","unpause()":"3f4ba83a","usdt()":"2f48ab7d","vaultManager()":"8a4adf24","withdrawExcessMargin(uint256,uint256)":"d1e745b1"}}}}}