{"contracts/vault/VaultManager.sol":{"VaultManager":{"abi":[{"inputs":[{"internalType":"address","name":"_config","type":"address"},{"internalType":"address","name":"_admin","type":"address"}],"stateMutability":"nonpayable","type":"constructor"},{"inputs":[],"name":"AccessControlBadConfirmation","type":"error"},{"inputs":[{"internalType":"address","name":"account","type":"address"},{"internalType":"bytes32","name":"neededRole","type":"bytes32"}],"name":"AccessControlUnauthorizedAccount","type":"error"},{"inputs":[],"name":"EnforcedPause","type":"error"},{"inputs":[],"name":"ExpectedPause","type":"error"},{"inputs":[],"name":"ReentrancyGuardReentrantCall","type":"error"},{"inputs":[{"internalType":"address","name":"token","type":"address"}],"name":"SafeERC20FailedOperation","type":"error"},{"anonymous":false,"inputs":[{"indexed":true,"internalType":"address","name":"token","type":"address"},{"indexed":false,"internalType":"uint256","name":"amount","type":"uint256"},{"indexed":false,"internalType":"string","name":"feeType","type":"string"},{"indexed":false,"internalType":"uint256","name":"timestamp","type":"uint256"}],"name":"FeeCollected","type":"event"},{"anonymous":false,"inputs":[{"indexed":true,"internalType":"address","name":"user","type":"address"},{"indexed":true,"internalType":"address","name":"token","type":"address"},{"indexed":false,"internalType":"uint256","name":"amount","type":"uint256"},{"indexed":false,"internalType":"uint256","name":"timestamp","type":"uint256"}],"name":"MarginDeposited","type":"event"},{"anonymous":false,"inputs":[{"indexed":true,"internalType":"address","name":"from","type":"address"},{"indexed":true,"internalType":"address","name":"to","type":"address"},{"indexed":true,"internalType":"address","name":"token","type":"address"},{"indexed":false,"internalType":"uint256","name":"amount","type":"uint256"},{"indexed":false,"internalType":"string","name":"reason","type":"string"},{"indexed":false,"internalType":"uint256","name":"timestamp","type":"uint256"}],"name":"MarginTransferred","type":"event"},{"anonymous":false,"inputs":[{"indexed":true,"internalType":"address","name":"user","type":"address"},{"indexed":true,"internalType":"address","name":"token","type":"address"},{"indexed":false,"internalType":"uint256","name":"amount","type":"uint256"},{"indexed":false,"internalType":"uint256","name":"timestamp","type":"uint256"}],"name":"MarginWithdrawn","type":"event"},{"anonymous":false,"inputs":[{"indexed":false,"internalType":"address","name":"account","type":"address"}],"name":"Paused","type":"event"},{"anonymous":false,"inputs":[{"indexed":true,"internalType":"address","name":"token","type":"address"},{"indexed":false,"internalType":"uint256","name":"amount","type":"uint256"},{"indexed":false,"internalType":"string","name":"poolType","type":"string"},{"indexed":false,"internalType":"uint256","name":"timestamp","type":"uint256"}],"name":"ProfitDistributed","type":"event"},{"anonymous":false,"inputs":[{"indexed":true,"internalType":"bytes32","name":"role","type":"bytes32"},{"indexed":true,"internalType":"bytes32","name":"previousAdminRole","type":"bytes32"},{"indexed":true,"internalType":"bytes32","name":"newAdminRole","type":"bytes32"}],"name":"RoleAdminChanged","type":"event"},{"anonymous":false,"inputs":[{"indexed":true,"internalType":"bytes32","name":"role","type":"bytes32"},{"indexed":true,"internalType":"address","name":"account","type":"address"},{"indexed":true,"internalType":"address","name":"sender","type":"address"}],"name":"RoleGranted","type":"event"},{"anonymous":false,"inputs":[{"indexed":true,"internalType":"bytes32","name":"role","type":"bytes32"},{"indexed":true,"internalType":"address","name":"account","type":"address"},{"indexed":true,"internalType":"address","name":"sender","type":"address"}],"name":"RoleRevoked","type":"event"},{"anonymous":false,"inputs":[{"indexed":false,"internalType":"address","name":"account","type":"address"}],"name":"Unpaused","type":"event"},{"inputs":[],"name":"DEFAULT_ADMIN_ROLE","outputs":[{"internalType":"bytes32","name":"","type":"bytes32"}],"stateMutability":"view","type":"function"},{"inputs":[],"name":"VAULT_OPERATOR_ROLE","outputs":[{"internalType":"bytes32","name":"","type":"bytes32"}],"stateMutability":"view","type":"function"},{"inputs":[{"internalType":"address","name":"_token","type":"address"},{"internalType":"uint256","name":"_lpAmount","type":"uint256"},{"internalType":"uint256","name":"_interactAmount","type":"uint256"},{"internalType":"uint256","name":"_donationAmount","type":"uint256"}],"name":"allocateProfitToSubPools","outputs":[],"stateMutability":"nonpayable","type":"function"},{"inputs":[{"internalType":"address","name":"_token","type":"address"},{"internalType":"address[]","name":"_recipients","type":"address[]"},{"internalType":"uint256[]","name":"_amounts","type":"uint256[]"}],"name":"batchDistributeNodeRewards","outputs":[],"stateMutability":"nonpayable","type":"function"},{"inputs":[{"internalType":"address","name":"_user","type":"address"},{"internalType":"address","name":"_token","type":"address"},{"internalType":"uint256","name":"_amount","type":"uint256"},{"internalType":"string","name":"_feeType","type":"string"}],"name":"collectFee","outputs":[],"stateMutability":"nonpayable","type":"function"},{"inputs":[],"name":"config","outputs":[{"internalType":"contract Config","name":"","type":"address"}],"stateMutability":"view","type":"function"},{"inputs":[{"internalType":"address","name":"_user","type":"address"},{"internalType":"address","name":"_token","type":"address"},{"internalType":"uint256","name":"_amount","type":"uint256"}],"name":"depositMargin","outputs":[],"stateMutability":"nonpayable","type":"function"},{"inputs":[{"internalType":"address","name":"_token","type":"address"},{"internalType":"uint256","name":"_amount","type":"uint256"}],"name":"depositToDonationPool","outputs":[],"stateMutability":"nonpayable","type":"function"},{"inputs":[{"internalType":"address","name":"_token","type":"address"},{"internalType":"uint256","name":"_amount","type":"uint256"}],"name":"depositToInteractPool","outputs":[],"stateMutability":"nonpayable","type":"function"},{"inputs":[{"internalType":"address","name":"_token","type":"address"},{"internalType":"uint256","name":"_amount","type":"uint256"}],"name":"depositToLPPool","outputs":[],"stateMutability":"nonpayable","type":"function"},{"inputs":[{"internalType":"address","name":"_token","type":"address"},{"internalType":"uint256","name":"_amount","type":"uint256"}],"name":"distributeProfits","outputs":[],"stateMutability":"nonpayable","type":"function"},{"inputs":[{"internalType":"address","name":"","type":"address"}],"name":"donationPoolBalance","outputs":[{"internalType":"uint256","name":"","type":"uint256"}],"stateMutability":"view","type":"function"},{"inputs":[{"internalType":"address","name":"_token","type":"address"}],"name":"getProfitPoolBalance","outputs":[{"internalType":"uint256","name":"","type":"uint256"}],"stateMutability":"view","type":"function"},{"inputs":[{"internalType":"bytes32","name":"role","type":"bytes32"}],"name":"getRoleAdmin","outputs":[{"internalType":"bytes32","name":"","type":"bytes32"}],"stateMutability":"view","type":"function"},{"inputs":[{"internalType":"address","name":"_token","type":"address"}],"name":"getTotalMarginPool","outputs":[{"internalType":"uint256","name":"","type":"uint256"}],"stateMutability":"view","type":"function"},{"inputs":[{"internalType":"address","name":"_user","type":"address"},{"internalType":"address","name":"_token","type":"address"}],"name":"getUserMarginBalance","outputs":[{"internalType":"uint256","name":"","type":"uint256"}],"stateMutability":"view","type":"function"},{"inputs":[{"internalType":"address","name":"_operator","type":"address"}],"name":"grantOperatorRole","outputs":[],"stateMutability":"nonpayable","type":"function"},{"inputs":[{"internalType":"bytes32","name":"role","type":"bytes32"},{"internalType":"address","name":"account","type":"address"}],"name":"grantRole","outputs":[],"stateMutability":"nonpayable","type":"function"},{"inputs":[{"internalType":"bytes32","name":"role","type":"bytes32"},{"internalType":"address","name":"account","type":"address"}],"name":"hasRole","outputs":[{"internalType":"bool","name":"","type":"bool"}],"stateMutability":"view","type":"function"},{"inputs":[{"internalType":"address","name":"","type":"address"}],"name":"interactPoolBalance","outputs":[{"internalType":"uint256","name":"","type":"uint256"}],"stateMutability":"view","type":"function"},{"inputs":[{"internalType":"address","name":"","type":"address"}],"name":"lpPoolBalance","outputs":[{"internalType":"uint256","name":"","type":"uint256"}],"stateMutability":"view","type":"function"},{"inputs":[{"internalType":"address","name":"","type":"address"}],"name":"marginPoolBalance","outputs":[{"internalType":"uint256","name":"","type":"uint256"}],"stateMutability":"view","type":"function"},{"inputs":[],"name":"pause","outputs":[],"stateMutability":"nonpayable","type":"function"},{"inputs":[],"name":"paused","outputs":[{"internalType":"bool","name":"","type":"bool"}],"stateMutability":"view","type":"function"},{"inputs":[{"internalType":"address","name":"","type":"address"}],"name":"profitPoolBalance","outputs":[{"internalType":"uint256","name":"","type":"uint256"}],"stateMutability":"view","type":"function"},{"inputs":[{"internalType":"bytes32","name":"role","type":"bytes32"},{"internalType":"address","name":"callerConfirmation","type":"address"}],"name":"renounceRole","outputs":[],"stateMutability":"nonpayable","type":"function"},{"inputs":[{"internalType":"bytes32","name":"role","type":"bytes32"},{"internalType":"address","name":"account","type":"address"}],"name":"revokeRole","outputs":[],"stateMutability":"nonpayable","type":"function"},{"inputs":[{"internalType":"address","name":"_config","type":"address"}],"name":"setConfig","outputs":[],"stateMutability":"nonpayable","type":"function"},{"inputs":[{"internalType":"bytes4","name":"interfaceId","type":"bytes4"}],"name":"supportsInterface","outputs":[{"internalType":"bool","name":"","type":"bool"}],"stateMutability":"view","type":"function"},{"inputs":[{"internalType":"address","name":"_from","type":"address"},{"internalType":"address","name":"_to","type":"address"},{"internalType":"address","name":"_token","type":"address"},{"internalType":"uint256","name":"_amount","type":"uint256"},{"internalType":"string","name":"_reason","type":"string"}],"name":"transferMargin","outputs":[],"stateMutability":"nonpayable","type":"function"},{"inputs":[{"internalType":"address","name":"_token","type":"address"},{"internalType":"uint256","name":"_amount","type":"uint256"},{"internalType":"address","name":"_feedProtocol","type":"address"}],"name":"transferToFeedProtocol","outputs":[],"stateMutability":"nonpayable","type":"function"},{"inputs":[],"name":"unpause","outputs":[],"stateMutability":"nonpayable","type":"function"},{"inputs":[{"internalType":"address","name":"","type":"address"},{"internalType":"address","name":"","type":"address"}],"name":"userMarginBalance","outputs":[{"internalType":"uint256","name":"","type":"uint256"}],"stateMutability":"view","type":"function"},{"inputs":[{"internalType":"address","name":"_token","type":"address"},{"internalType":"uint256","name":"_amount","type":"uint256"},{"internalType":"address","name":"_recipient","type":"address"}],"name":"withdrawFromDonationPool","outputs":[],"stateMutability":"nonpayable","type":"function"},{"inputs":[{"internalType":"address","name":"_token","type":"address"},{"internalType":"uint256","name":"_amount","type":"uint256"},{"internalType":"address","name":"_recipient","type":"address"}],"name":"withdrawFromInteractPool","outputs":[],"stateMutability":"nonpayable","type":"function"},{"inputs":[{"internalType":"address","name":"_token","type":"address"},{"internalType":"uint256","name":"_amount","type":"uint256"},{"internalType":"address","name":"_recipient","type":"address"}],"name":"withdrawFromLPPool","outputs":[],"stateMutability":"nonpayable","type":"function"},{"inputs":[{"internalType":"address","name":"_user","type":"address"},{"internalType":"address","name":"_token","type":"address"},{"internalType":"uint256","name":"_amount","type":"uint256"}],"name":"withdrawMargin","outputs":[],"stateMutability":"nonpayable","type":"function"}],"evm":{"bytecode":{"linkReferences":{},"object":"608034620000ac57601f6200203938819003918201601f19168301916001600160401b03831184841017620000b1578084926040948552833981010312620000ac57806200005f6020620000576200009b94620000c7565b9201620000c7565b6001805560028054610100600160a81b03191660089390931b610100600160a81b0316929092179091556200009481620000dc565b506200015c565b50604051611e1a9081620001ff8239f35b600080fd5b634e487b7160e01b600052604160045260246000fd5b51906001600160a01b0382168203620000ac57565b6001600160a01b031660008181527fad3228b676f7d3cd4284a5443f17f1962b36e491b30a40b2405849e597ba5fb5602052604081205490919060ff166200015857818052816020526040822081835260205260408220600160ff198254161790553391600080516020620020198339815191528180a4600190565b5090565b6001600160a01b031660008181527fad6010f11d85e6849ec87f5f41f95a2725aaf728916b399656c75ce30b0d2c5460205260408120549091907f696e87880cf63dca8f080e7a026952044d39afbd9cb8ab3582bd4b29e6071b299060ff16620001f957808352826020526040832082845260205260408320600160ff1982541617905560008051602062002019833981519152339380a4600190565b50509056fe6080604081815260048036101561001557600080fd5b600092833560e01c90816301ffc9a7146115ef5750806308b8bb4b146113925780631de8ae531461135a57806320e3dbd41461130d578063234c30d714611124578063248a9ca3146110fb57806327ac0c58146110ab5780632f2ff15d146110825780632ff1d45814610f5057806331aa128d14610e2a57806336568abe14610de35780633e0e706e14610dbc5780633f4ba83a14610d535780634a650a2c14610c7d578063564a6c9814610b9a5780635c975abb14610b765780636208edc914610a9a578063715d5896146107c357806375818bd7146109c457806377c5b5061461092c57806379502c55146108ff5780637af4c51b146108c75780638456cb591461086c57806391d1485414610827578063a217fddf1461080c578063a7a62975146107c3578063ad04570d14610544578063bdf3e780146106e5578063bed62365146106bc57838163c3c8f58c1461057c57508063c69c75cd14610544578063d249f54e14610446578063d44f97b81461040e578063d547741f146103d0578063e1ede08f146102f0578063ec185a07146101f45763f6faa649146101bc57600080fd5b346101f05760203660031901126101f05760209282916001600160a01b036101e2611643565b168252845220549051908152f35b8280fd5b50346101f05760803660031901126101f05761020e611643565b918361021861165e565b60443560643567ffffffffffffffff81116102ec577f66aecc579aa1ef463c0ed1547c2cb6163370e6311a60cba815252acbb398f213956102c0836102e29561029360ff61026a8b97369088016116a5565b9b909a600080516020611dc5833981519152815280602052818120338252602052205416611948565b61029b611b3c565b6102a3611b1e565b6102ae8215156119a0565b6001600160a01b03169930908b611a5b565b8789526020528088206102d4838254611a00565b905551938493429285611c13565b0390a26001805580f35b8380fd5b5050346103cc57806003193601126103cc57600080516020611da583398151915260a061031b611643565b60243590600080516020611dc583398151915286528560205284862033875260205261034c60ff8688205416611948565b610354611b3c565b61035c611b1e565b6103678215156119a0565b600180841b03169361037b82303388611a5b565b8486526007602052808620610391838254611a00565b9055805191825260606020830152601060608301526f191bdb985d1a5bdb97d9195c1bdcda5d60821b60808301524290820152a26001805580f35b5080fd5b5090346101f057806003193601126101f05761040a913561040560016103f461165e565b938387528660205286200154611794565b6118d3565b5080f35b5050346103cc5760203660031901126103cc5760209181906001600160a01b03610436611643565b1681526007845220549051908152f35b5050346103cc577f63ca1bee673fe6befaa933c20ecf9ca16a04bd4273bffe1a05b0b9cc9b9be0439061047836611707565b600080516020611dc583398151915286959394929552602086815282872033885281526104aa60ff8489205416611948565b6104b2611b3c565b6104ba611b1e565b6104c58215156119a0565b6105328260018060a01b039687811697888b5260088552868b20991698898b5284526104f682878c20541015611b5f565b878a5260088452858a20898b528452858a20610513838254611bb6565b9055888a5260038452858a2061052a838254611bb6565b905588611bc3565b82519182524290820152a36001805580f35b5050346103cc5760203660031901126103cc5760209181906001600160a01b0361056c611643565b1681526003845220549051908152f35b808484346106b85760803660031901126106b85781600080516020611da58339815191529260608560a0946105af611643565b906024356044359161062860643594600080516020611dc583398151915287526105eb60ff8a602099808b528181203382528b52205416611948565b6105f3611b3c565b6105fb611b1e565b61060e866106098787611a00565b611a00565b998a916001808e1b03169d8e815284895220541015611c47565b8a8c528452858b2061063b888254611bb6565b9055898b5260058452610652868c20918254611a00565b9055888a5260068352610669858b20918254611a00565b905587895260078252610680848a20918254611a00565b905582519384528301526011606083015270383937b334ba2fb0b63637b1b0ba34b7b760791b60808301524290820152a26001805580f35b5050fd5b5050346103cc57816003193601126103cc5760209051600080516020611dc58339815191528152f35b5050346103cc57600080516020611da583398151915260a0610789610709366116d3565b959190809391600080516020611dc5833981519152895288602052838920338a5260205261073c60ff858b205416611948565b610744611b3c565b61074c611b1e565b600180871b031696878952600660205261076b82858b20541015611cb5565b8789526006602052838920610781838254611bb6565b905587611bc3565b8051918252606060208301526011606083015270696e7465726163745f776974686472617760781b60808301524290820152a26001805580f35b5050346103cc57806003193601126103cc57806020926107e1611643565b6107e961165e565b6001600160a01b0391821683526008865283832091168252845220549051908152f35b5050346103cc57816003193601126103cc5751908152602090f35b50346101f057816003193601126101f0578160209360ff9261084761165e565b903582528186528282206001600160a01b039091168252855220549151911615158152f35b5050346103cc57816003193601126103cc5760207f62e78cea01bee320cd4e420270b5ea74000d11b0c9f74754ebdbfc544b05a258916108aa61173c565b6108b2611b1e565b600160ff19600254161760025551338152a180f35b5050346103cc5760203660031901126103cc5760209181906001600160a01b036108ef611643565b1681526005845220549051908152f35b5050346103cc57816003193601126103cc57600254905160089190911c6001600160a01b03168152602090f35b5050346103cc576109bd90610940366116d3565b91600080516020611dc583398151915286949294528560205281862033875260205261097160ff8388205416611948565b610979611b3c565b610981611b1e565b60018060a01b03169081865260066020526109a184828820541015611cb5565b818652600660205285206109b6848254611bb6565b9055611bc3565b6001805580f35b5050346103cc57600080516020611da583398151915260a0610a606109e8366116d3565b959190809391600080516020611dc5833981519152895288602052838920338a52602052610a1b60ff858b205416611948565b610a23611b3c565b610a2b611b1e565b600180871b0316968789526007602052610a4a82858b20541015611d12565b8789526007602052838920610781838254611bb6565b8051918252606060208301526011606083015270646f6e6174696f6e5f776974686472617760781b60808301524290820152a26001805580f35b5050346103cc57806003193601126103cc57600080516020611da583398151915260a0610ac5611643565b60243590600080516020611dc5833981519152865285602052848620338752602052610af660ff8688205416611948565b610afe611b3c565b610b06611b1e565b610b118215156119a0565b600180841b031693610b2582303388611a5b565b8486526006602052808620610b3b838254611a00565b9055805191825260606020830152601060608301526f1a5b9d195c9858dd17d9195c1bdcda5d60821b60808301524290820152a26001805580f35b5050346103cc57816003193601126103cc5760209060ff6002541690519015158152f35b5050346103cc577f2bde942ed78f9e1081375810d2aa3bfe43ec08b083f750914542c4bf2fe936c790610bcc36611707565b600080516020611dc583398151915286959395949294526020938685528287203388528552610c0060ff8489205416611948565b610c08611b3c565b610c10611b1e565b610c1b8215156119a0565b6001600160a01b0390811695610c338330838a611a5b565b1693848752600881528287208688528152828720610c52838254611a00565b905585875260038152828720610c69838254611a00565b905582519182524290820152a36001805580f35b5050346103cc57806003193601126103cc57600080516020611da583398151915260a0610ca8611643565b60243590600080516020611dc5833981519152865285602052848620338752602052610cd960ff8688205416611948565b610ce1611b3c565b610ce9611b1e565b610cf48215156119a0565b600180841b031693610d0882303388611a5b565b8486526005602052808620610d1e838254611a00565b9055805191825260606020830152600a6060830152691b1c17d9195c1bdcda5d60b21b60808301524290820152a26001805580f35b50346101f057826003193601126101f057610d6c61173c565b6002549060ff821615610dae575060ff1916600255513381527f5db9ee0a495bf2e6ff9c91a7834c1ba4fdd244a5e8aa4e537bd38aeae4b073aa90602090a180f35b8251638dfc202b60e01b8152fd5b50346101f05760203660031901126101f05760209282916001600160a01b036101e2611643565b509190346103cc57806003193601126103cc57610dfe61165e565b90336001600160a01b03831603610e1b575061040a9192356118d3565b5163334bd91960e11b81528390fd5b5090346101f057610e3a366116d3565b600080516020611dc58339815191528694939294526020918683528387203388528352610e6c60ff8589205416611948565b610e74611b3c565b610e7c611b1e565b6001600160a01b031680875260058352838720549095908511610f0257509160608492610ed2600080516020611da58339815191529660a096898b5260058452858b20610eca838254611bb6565b905589611bc3565b8251938452830152600b60608301526a6c705f776974686472617760a81b60808301524290820152a26001805580f35b835162461bcd60e51b8152908101839052602260248201527f5661756c744d616e616765723a20696e73756666696369656e74204c5020706f6044820152611bdb60f21b6064820152608490fd5b50346101f05760a03660031901126101f057610f6a611643565b610f7261165e565b92846044359460018060a01b03948587168097036101f0576064356084359467ffffffffffffffff861161107e578789946110368484610fd9611074987f31eb66acea2a2e9363e745354476882560841a43c057f7f2e75e63470ca557af9c3691016116a5565b9a9099600080516020611dc5833981519152825260209e8f9e8f848152858520903386525261100d60ff8686205416611948565b611015611b3c565b61101d611b1e565b169d8e8352600881528383209183525220541015611b5f565b888c5260088a52828c208b8d528a52828c20611053858254611bb6565b90551697888b5260088152818b20908a8c5252808a206102d4838254611a00565b0390a46001805580f35b8480fd5b5090346101f057806003193601126101f05761040a91356110a660016103f461165e565b61185a565b5050346103cc5760203660031901126103cc5761040a906110f660016110cf611643565b926110d861173c565b600080516020611dc583398151915286528560205285200154611794565b6117ba565b50346101f05760203660031901126101f057816020936001923581528085522001549051908152f35b5090346101f05760603660031901126101f05761113f611643565b906024359267ffffffffffffffff93848111611309576111629036908301611674565b946044359081116113055761117a9036908401611674565b600080516020611dc58339815191528896929652602093888552858920338a5285526111ab60ff878b205416611948565b6111b3611b3c565b6111bb611b1e565b8188036112c257508795885b82811061129d575060018060a01b0380931697888a52600786526111f088888c20541015611d12565b888a5260078652868a20611205898254611bb6565b9055895b81811061125f578a8a600080516020611da583398151915260a08c8c60608d825193845283015260126060830152710dcdec8cabee4caeec2e4c8e6bec4c2e8c6d60731b60808301524290820152a26001805580f35b61126a818388611d7e565b359085821682036112995761128f61129492611287838888611d7e565b35908d611bc3565b611d6f565b611209565b8b80fd5b966112b76112bd916112b08a8686611d7e565b3590611a00565b97611d6f565b6111c7565b855162461bcd60e51b8152908101859052601d60248201527f5661756c744d616e616765723a206c656e677468206d69736d617463680000006044820152606490fd5b8680fd5b8580fd5b833461135757602036600319011261135757611327611643565b61132f61173c565b60028054610100600160a81b03191660089290921b610100600160a81b031691909117905580f35b80fd5b5050346103cc5760203660031901126103cc5760209181906001600160a01b03611382611643565b1681526006845220549051908152f35b50346101f057816003193601126101f0576113ab611643565b9160243590600080516020611dc58339815191528552602085815281862033875281526113dd60ff8388205416611948565b6113e5611b3c565b6113ed611b1e565b60018060a01b038095169485875284825261140d84848920541015611c47565b858752848252828720611421858254611bb6565b905560025460081c16938251906362f5ad6360e01b825282828281895afa80156115765788906115c0575b61145d925061271092839187611ca2565b04958451633c6ec58560e11b815284818481855afa9081156115b657908592918b91611580575b5061148f9088611ca2565b5085516301eb418960e71b815292839182905afa90811561157657889161152b575b5091600080516020611da5833981519152956060926114d487969560a098611ca2565b04888a52600583526114ea858b20918254611a00565b905587895260078252611501848a20918254611a00565b905582519384528301526003606083015262185b1b60ea1b60808301524290820152a26001805580f35b9194939280915082813d831161156f575b6115468183611a23565b8101031261156b57905192939192909190600080516020611da58339815191526114b1565b8780fd5b503d61153c565b84513d8a823e3d90fd5b83819492503d83116115af575b6115978183611a23565b810103126115ab5761148f85925190611484565b8980fd5b503d61158d565b86513d8c823e3d90fd5b508282813d83116115e8575b6115d68183611a23565b8101031261156b5761145d915161144c565b503d6115cc565b925050346101f05760203660031901126101f0573563ffffffff60e01b81168091036101f05760209250637965db0b60e01b8114908115611632575b5015158152f35b6301ffc9a760e01b1490503861162b565b600435906001600160a01b038216820361165957565b600080fd5b602435906001600160a01b038216820361165957565b9181601f840112156116595782359167ffffffffffffffff8311611659576020808501948460051b01011161165957565b9181601f840112156116595782359167ffffffffffffffff8311611659576020838186019501011161165957565b6060906003190112611659576001600160a01b03600435818116810361165957916024359160443590811681036116595790565b6060906003190112611659576001600160a01b0390600435828116810361165957916024359081168103611659579060443590565b3360009081527fad3228b676f7d3cd4284a5443f17f1962b36e491b30a40b2405849e597ba5fb5602052604081205460ff16156117765750565b6044906040519063e2517d3f60e01b82523360048301526024820152fd5b80600052600060205260406000203360005260205260ff60406000205416156117765750565b6001600160a01b031660008181527fad6010f11d85e6849ec87f5f41f95a2725aaf728916b399656c75ce30b0d2c546020526040812054909190600080516020611dc58339815191529060ff1661185557808352826020526040832082845260205260408320600160ff198254161790557f2f8788117e7eff1d82e926ec794901d17c78024a50270940304540a733656f0d339380a4600190565b505090565b9060009180835282602052604083209160018060a01b03169182845260205260ff6040842054161560001461185557808352826020526040832082845260205260408320600160ff198254161790557f2f8788117e7eff1d82e926ec794901d17c78024a50270940304540a733656f0d339380a4600190565b9060009180835282602052604083209160018060a01b03169182845260205260ff6040842054166000146118555780835282602052604083208284526020526040832060ff1981541690557ff6391f5c32d9c69d2a47ea670b442974b53935d1edc7fd64eb21e047a839171b339380a4600190565b1561194f57565b60405162461bcd60e51b8152602060048201526024808201527f5661756c744d616e616765723a2063616c6c6572206973206e6f74206f70657260448201526330ba37b960e11b6064820152608490fd5b156119a757565b60405162461bcd60e51b815260206004820152602b60248201527f5661756c744d616e616765723a20616d6f756e74206d7573742062652067726560448201526a061746572207468616e20360ac1b6064820152608490fd5b91908201809211611a0d57565b634e487b7160e01b600052601160045260246000fd5b90601f8019910116810190811067ffffffffffffffff821117611a4557604052565b634e487b7160e01b600052604160045260246000fd5b6040516323b872dd60e01b60208201526001600160a01b03928316602482015292909116604483015260648083019390935291815260a081019181831067ffffffffffffffff841117611a4557611ab492604052611ab6565b565b906000602091828151910182855af115611b12576000513d611b0957506001600160a01b0381163b155b611ae75750565b604051635274afe760e01b81526001600160a01b039091166004820152602490fd5b60011415611ae0565b6040513d6000823e3d90fd5b60ff60025416611b2a57565b60405163d93c066560e01b8152600490fd5b600260015414611b4d576002600155565b604051633ee5aeb560e01b8152600490fd5b15611b6657565b60405162461bcd60e51b815260206004820152602260248201527f5661756c744d616e616765723a20696e73756666696369656e742062616c616e604482015261636560f01b6064820152608490fd5b91908203918211611a0d57565b60405163a9059cbb60e01b60208201526001600160a01b039092166024830152604480830193909352918152608081019167ffffffffffffffff831182841017611a4557611ab492604052611ab6565b94939280604093608093885260606020890152816060890152838801376000828288010152601f8019910116850101930152565b15611c4e57565b60405162461bcd60e51b815260206004820152602660248201527f5661756c744d616e616765723a20696e73756666696369656e742070726f66696044820152651d081c1bdbdb60d21b6064820152608490fd5b81810292918115918404141715611a0d57565b15611cbc57565b60405162461bcd60e51b815260206004820152602860248201527f5661756c744d616e616765723a20696e73756666696369656e7420696e7465726044820152671858dd081c1bdbdb60c21b6064820152608490fd5b15611d1957565b60405162461bcd60e51b815260206004820152602860248201527f5661756c744d616e616765723a20696e73756666696369656e7420646f6e61746044820152671a5bdb881c1bdbdb60c21b6064820152608490fd5b6000198114611a0d5760010190565b9190811015611d8e5760051b0190565b634e487b7160e01b600052603260045260246000fdfe1f5794a97a8fd0f5605d102f892a8a78d86771f26e26716d26e376f3f4a3d613696e87880cf63dca8f080e7a026952044d39afbd9cb8ab3582bd4b29e6071b29a26469706673582212201dad8f3c9533520092e06e729af347cd313ebf94faa9ecc53d4ca081fd7a9cf564736f6c634300081400332f8788117e7eff1d82e926ec794901d17c78024a50270940304540a733656f0d","opcodes":"PUSH1 0x80 CALLVALUE PUSH3 0xAC JUMPI PUSH1 0x1F PUSH3 0x2039 CODESIZE DUP2 SWAP1 SUB SWAP2 DUP3 ADD PUSH1 0x1F NOT AND DUP4 ADD SWAP2 PUSH1 0x1 PUSH1 0x1 PUSH1 0x40 SHL SUB DUP4 GT DUP5 DUP5 LT OR PUSH3 0xB1 JUMPI DUP1 DUP5 SWAP3 PUSH1 0x40 SWAP5 DUP6 MSTORE DUP4 CODECOPY DUP2 ADD SUB SLT PUSH3 0xAC JUMPI DUP1 PUSH3 0x5F PUSH1 0x20 PUSH3 0x57 PUSH3 0x9B SWAP5 PUSH3 0xC7 JUMP JUMPDEST SWAP3 ADD PUSH3 0xC7 JUMP JUMPDEST PUSH1 0x1 DUP1 SSTORE PUSH1 0x2 DUP1 SLOAD PUSH2 0x100 PUSH1 0x1 PUSH1 0xA8 SHL SUB NOT AND PUSH1 0x8 SWAP4 SWAP1 SWAP4 SHL PUSH2 0x100 PUSH1 0x1 PUSH1 0xA8 SHL SUB AND SWAP3 SWAP1 SWAP3 OR SWAP1 SWAP2 SSTORE PUSH3 0x94 DUP2 PUSH3 0xDC JUMP JUMPDEST POP PUSH3 0x15C JUMP JUMPDEST POP PUSH1 0x40 MLOAD PUSH2 0x1E1A SWAP1 DUP2 PUSH3 0x1FF DUP3 CODECOPY RETURN JUMPDEST PUSH1 0x0 DUP1 REVERT JUMPDEST PUSH4 0x4E487B71 PUSH1 0xE0 SHL PUSH1 0x0 MSTORE PUSH1 0x41 PUSH1 0x4 MSTORE PUSH1 0x24 PUSH1 0x0 REVERT JUMPDEST MLOAD SWAP1 PUSH1 0x1 PUSH1 0x1 PUSH1 0xA0 SHL SUB DUP3 AND DUP3 SUB PUSH3 0xAC JUMPI JUMP JUMPDEST PUSH1 0x1 PUSH1 0x1 PUSH1 0xA0 SHL SUB AND PUSH1 0x0 DUP2 DUP2 MSTORE PUSH32 0xAD3228B676F7D3CD4284A5443F17F1962B36E491B30A40B2405849E597BA5FB5 PUSH1 0x20 MSTORE PUSH1 0x40 DUP2 KECCAK256 SLOAD SWAP1 SWAP2 SWAP1 PUSH1 0xFF AND PUSH3 0x158 JUMPI DUP2 DUP1 MSTORE DUP2 PUSH1 0x20 MSTORE PUSH1 0x40 DUP3 KECCAK256 DUP2 DUP4 MSTORE PUSH1 0x20 MSTORE PUSH1 0x40 DUP3 KECCAK256 PUSH1 0x1 PUSH1 0xFF NOT DUP3 SLOAD AND OR SWAP1 SSTORE CALLER SWAP2 PUSH1 0x0 DUP1 MLOAD PUSH1 0x20 PUSH3 0x2019 DUP4 CODECOPY DUP2 MLOAD SWAP2 MSTORE DUP2 DUP1 LOG4 PUSH1 0x1 SWAP1 JUMP JUMPDEST POP SWAP1 JUMP JUMPDEST PUSH1 0x1 PUSH1 0x1 PUSH1 0xA0 SHL SUB AND PUSH1 0x0 DUP2 DUP2 MSTORE PUSH32 0xAD6010F11D85E6849EC87F5F41F95A2725AAF728916B399656C75CE30B0D2C54 PUSH1 0x20 MSTORE PUSH1 0x40 DUP2 KECCAK256 SLOAD SWAP1 SWAP2 SWAP1 PUSH32 0x696E87880CF63DCA8F080E7A026952044D39AFBD9CB8AB3582BD4B29E6071B29 SWAP1 PUSH1 0xFF AND PUSH3 0x1F9 JUMPI DUP1 DUP4 MSTORE DUP3 PUSH1 0x20 MSTORE PUSH1 0x40 DUP4 KECCAK256 DUP3 DUP5 MSTORE PUSH1 0x20 MSTORE PUSH1 0x40 DUP4 KECCAK256 PUSH1 0x1 PUSH1 0xFF NOT DUP3 SLOAD AND OR SWAP1 SSTORE PUSH1 0x0 DUP1 MLOAD PUSH1 0x20 PUSH3 0x2019 DUP4 CODECOPY DUP2 MLOAD SWAP2 MSTORE CALLER SWAP4 DUP1 LOG4 PUSH1 0x1 SWAP1 JUMP JUMPDEST POP POP SWAP1 JUMP INVALID PUSH1 0x80 PUSH1 0x40 DUP2 DUP2 MSTORE PUSH1 0x4 DUP1 CALLDATASIZE LT ISZERO PUSH2 0x15 JUMPI PUSH1 0x0 DUP1 REVERT JUMPDEST PUSH1 0x0 SWAP3 DUP4 CALLDATALOAD PUSH1 0xE0 SHR SWAP1 DUP2 PUSH4 0x1FFC9A7 EQ PUSH2 0x15EF JUMPI POP DUP1 PUSH4 0x8B8BB4B EQ PUSH2 0x1392 JUMPI DUP1 PUSH4 0x1DE8AE53 EQ PUSH2 0x135A JUMPI DUP1 PUSH4 0x20E3DBD4 EQ PUSH2 0x130D JUMPI DUP1 PUSH4 0x234C30D7 EQ PUSH2 0x1124 JUMPI DUP1 PUSH4 0x248A9CA3 EQ PUSH2 0x10FB JUMPI DUP1 PUSH4 0x27AC0C58 EQ PUSH2 0x10AB JUMPI DUP1 PUSH4 0x2F2FF15D EQ PUSH2 0x1082 JUMPI DUP1 PUSH4 0x2FF1D458 EQ PUSH2 0xF50 JUMPI DUP1 PUSH4 0x31AA128D EQ PUSH2 0xE2A JUMPI DUP1 PUSH4 0x36568ABE EQ PUSH2 0xDE3 JUMPI DUP1 PUSH4 0x3E0E706E EQ PUSH2 0xDBC JUMPI DUP1 PUSH4 0x3F4BA83A EQ PUSH2 0xD53 JUMPI DUP1 PUSH4 0x4A650A2C EQ PUSH2 0xC7D JUMPI DUP1 PUSH4 0x564A6C98 EQ PUSH2 0xB9A JUMPI DUP1 PUSH4 0x5C975ABB EQ PUSH2 0xB76 JUMPI DUP1 PUSH4 0x6208EDC9 EQ PUSH2 0xA9A JUMPI DUP1 PUSH4 0x715D5896 EQ PUSH2 0x7C3 JUMPI DUP1 PUSH4 0x75818BD7 EQ PUSH2 0x9C4 JUMPI DUP1 PUSH4 0x77C5B506 EQ PUSH2 0x92C JUMPI DUP1 PUSH4 0x79502C55 EQ PUSH2 0x8FF JUMPI DUP1 PUSH4 0x7AF4C51B EQ PUSH2 0x8C7 JUMPI DUP1 PUSH4 0x8456CB59 EQ PUSH2 0x86C JUMPI DUP1 PUSH4 0x91D14854 EQ PUSH2 0x827 JUMPI DUP1 PUSH4 0xA217FDDF EQ PUSH2 0x80C JUMPI DUP1 PUSH4 0xA7A62975 EQ PUSH2 0x7C3 JUMPI DUP1 PUSH4 0xAD04570D EQ PUSH2 0x544 JUMPI DUP1 PUSH4 0xBDF3E780 EQ PUSH2 0x6E5 JUMPI DUP1 PUSH4 0xBED62365 EQ PUSH2 0x6BC JUMPI DUP4 DUP2 PUSH4 0xC3C8F58C EQ PUSH2 0x57C JUMPI POP DUP1 PUSH4 0xC69C75CD EQ PUSH2 0x544 JUMPI DUP1 PUSH4 0xD249F54E EQ PUSH2 0x446 JUMPI DUP1 PUSH4 0xD44F97B8 EQ PUSH2 0x40E JUMPI DUP1 PUSH4 0xD547741F EQ PUSH2 0x3D0 JUMPI DUP1 PUSH4 0xE1EDE08F EQ PUSH2 0x2F0 JUMPI DUP1 PUSH4 0xEC185A07 EQ PUSH2 0x1F4 JUMPI PUSH4 0xF6FAA649 EQ PUSH2 0x1BC JUMPI PUSH1 0x0 DUP1 REVERT JUMPDEST CALLVALUE PUSH2 0x1F0 JUMPI PUSH1 0x20 CALLDATASIZE PUSH1 0x3 NOT ADD SLT PUSH2 0x1F0 JUMPI PUSH1 0x20 SWAP3 DUP3 SWAP2 PUSH1 0x1 PUSH1 0x1 PUSH1 0xA0 SHL SUB PUSH2 0x1E2 PUSH2 0x1643 JUMP JUMPDEST AND DUP3 MSTORE DUP5 MSTORE KECCAK256 SLOAD SWAP1 MLOAD SWAP1 DUP2 MSTORE RETURN JUMPDEST DUP3 DUP1 REVERT JUMPDEST POP CALLVALUE PUSH2 0x1F0 JUMPI PUSH1 0x80 CALLDATASIZE PUSH1 0x3 NOT ADD SLT PUSH2 0x1F0 JUMPI PUSH2 0x20E PUSH2 0x1643 JUMP JUMPDEST SWAP2 DUP4 PUSH2 0x218 PUSH2 0x165E JUMP JUMPDEST PUSH1 0x44 CALLDATALOAD PUSH1 0x64 CALLDATALOAD PUSH8 0xFFFFFFFFFFFFFFFF DUP2 GT PUSH2 0x2EC JUMPI PUSH32 0x66AECC579AA1EF463C0ED1547C2CB6163370E6311A60CBA815252ACBB398F213 SWAP6 PUSH2 0x2C0 DUP4 PUSH2 0x2E2 SWAP6 PUSH2 0x293 PUSH1 0xFF PUSH2 0x26A DUP12 SWAP8 CALLDATASIZE SWAP1 DUP9 ADD PUSH2 0x16A5 JUMP JUMPDEST SWAP12 SWAP1 SWAP11 PUSH1 0x0 DUP1 MLOAD PUSH1 0x20 PUSH2 0x1DC5 DUP4 CODECOPY DUP2 MLOAD SWAP2 MSTORE DUP2 MSTORE DUP1 PUSH1 0x20 MSTORE DUP2 DUP2 KECCAK256 CALLER DUP3 MSTORE PUSH1 0x20 MSTORE KECCAK256 SLOAD AND PUSH2 0x1948 JUMP JUMPDEST PUSH2 0x29B PUSH2 0x1B3C JUMP JUMPDEST PUSH2 0x2A3 PUSH2 0x1B1E JUMP JUMPDEST PUSH2 0x2AE DUP3 ISZERO ISZERO PUSH2 0x19A0 JUMP JUMPDEST PUSH1 0x1 PUSH1 0x1 PUSH1 0xA0 SHL SUB AND SWAP10 ADDRESS SWAP1 DUP12 PUSH2 0x1A5B JUMP JUMPDEST DUP8 DUP10 MSTORE PUSH1 0x20 MSTORE DUP1 DUP9 KECCAK256 PUSH2 0x2D4 DUP4 DUP3 SLOAD PUSH2 0x1A00 JUMP JUMPDEST SWAP1 SSTORE MLOAD SWAP4 DUP5 SWAP4 TIMESTAMP SWAP3 DUP6 PUSH2 0x1C13 JUMP JUMPDEST SUB SWAP1 LOG2 PUSH1 0x1 DUP1 SSTORE DUP1 RETURN JUMPDEST DUP4 DUP1 REVERT JUMPDEST POP POP CALLVALUE PUSH2 0x3CC JUMPI DUP1 PUSH1 0x3 NOT CALLDATASIZE ADD SLT PUSH2 0x3CC JUMPI PUSH1 0x0 DUP1 MLOAD PUSH1 0x20 PUSH2 0x1DA5 DUP4 CODECOPY DUP2 MLOAD SWAP2 MSTORE PUSH1 0xA0 PUSH2 0x31B PUSH2 0x1643 JUMP JUMPDEST PUSH1 0x24 CALLDATALOAD SWAP1 PUSH1 0x0 DUP1 MLOAD PUSH1 0x20 PUSH2 0x1DC5 DUP4 CODECOPY DUP2 MLOAD SWAP2 MSTORE DUP7 MSTORE DUP6 PUSH1 0x20 MSTORE DUP5 DUP7 KECCAK256 CALLER DUP8 MSTORE PUSH1 0x20 MSTORE PUSH2 0x34C PUSH1 0xFF DUP7 DUP9 KECCAK256 SLOAD AND PUSH2 0x1948 JUMP JUMPDEST PUSH2 0x354 PUSH2 0x1B3C JUMP JUMPDEST PUSH2 0x35C PUSH2 0x1B1E JUMP JUMPDEST PUSH2 0x367 DUP3 ISZERO ISZERO PUSH2 0x19A0 JUMP JUMPDEST PUSH1 0x1 DUP1 DUP5 SHL SUB AND SWAP4 PUSH2 0x37B DUP3 ADDRESS CALLER DUP9 PUSH2 0x1A5B JUMP JUMPDEST DUP5 DUP7 MSTORE PUSH1 0x7 PUSH1 0x20 MSTORE DUP1 DUP7 KECCAK256 PUSH2 0x391 DUP4 DUP3 SLOAD PUSH2 0x1A00 JUMP JUMPDEST SWAP1 SSTORE DUP1 MLOAD SWAP2 DUP3 MSTORE PUSH1 0x60 PUSH1 0x20 DUP4 ADD MSTORE PUSH1 0x10 PUSH1 0x60 DUP4 ADD MSTORE PUSH16 0x191BDB985D1A5BDB97D9195C1BDCDA5D PUSH1 0x82 SHL PUSH1 0x80 DUP4 ADD MSTORE TIMESTAMP SWAP1 DUP3 ADD MSTORE LOG2 PUSH1 0x1 DUP1 SSTORE DUP1 RETURN JUMPDEST POP DUP1 REVERT JUMPDEST POP SWAP1 CALLVALUE PUSH2 0x1F0 JUMPI DUP1 PUSH1 0x3 NOT CALLDATASIZE ADD SLT PUSH2 0x1F0 JUMPI PUSH2 0x40A SWAP2 CALLDATALOAD PUSH2 0x405 PUSH1 0x1 PUSH2 0x3F4 PUSH2 0x165E JUMP JUMPDEST SWAP4 DUP4 DUP8 MSTORE DUP7 PUSH1 0x20 MSTORE DUP7 KECCAK256 ADD SLOAD PUSH2 0x1794 JUMP JUMPDEST PUSH2 0x18D3 JUMP JUMPDEST POP DUP1 RETURN JUMPDEST POP POP CALLVALUE PUSH2 0x3CC JUMPI PUSH1 0x20 CALLDATASIZE PUSH1 0x3 NOT ADD SLT PUSH2 0x3CC JUMPI PUSH1 0x20 SWAP2 DUP2 SWAP1 PUSH1 0x1 PUSH1 0x1 PUSH1 0xA0 SHL SUB PUSH2 0x436 PUSH2 0x1643 JUMP JUMPDEST AND DUP2 MSTORE PUSH1 0x7 DUP5 MSTORE KECCAK256 SLOAD SWAP1 MLOAD SWAP1 DUP2 MSTORE RETURN JUMPDEST POP POP CALLVALUE PUSH2 0x3CC JUMPI PUSH32 0x63CA1BEE673FE6BEFAA933C20ECF9CA16A04BD4273BFFE1A05B0B9CC9B9BE043 SWAP1 PUSH2 0x478 CALLDATASIZE PUSH2 0x1707 JUMP JUMPDEST PUSH1 0x0 DUP1 MLOAD PUSH1 0x20 PUSH2 0x1DC5 DUP4 CODECOPY DUP2 MLOAD SWAP2 MSTORE DUP7 SWAP6 SWAP4 SWAP5 SWAP3 SWAP6 MSTORE PUSH1 0x20 DUP7 DUP2 MSTORE DUP3 DUP8 KECCAK256 CALLER DUP9 MSTORE DUP2 MSTORE PUSH2 0x4AA PUSH1 0xFF DUP5 DUP10 KECCAK256 SLOAD AND PUSH2 0x1948 JUMP JUMPDEST PUSH2 0x4B2 PUSH2 0x1B3C JUMP JUMPDEST PUSH2 0x4BA PUSH2 0x1B1E JUMP JUMPDEST PUSH2 0x4C5 DUP3 ISZERO ISZERO PUSH2 0x19A0 JUMP JUMPDEST PUSH2 0x532 DUP3 PUSH1 0x1 DUP1 PUSH1 0xA0 SHL SUB SWAP7 DUP8 DUP2 AND SWAP8 DUP9 DUP12 MSTORE PUSH1 0x8 DUP6 MSTORE DUP7 DUP12 KECCAK256 SWAP10 AND SWAP9 DUP10 DUP12 MSTORE DUP5 MSTORE PUSH2 0x4F6 DUP3 DUP8 DUP13 KECCAK256 SLOAD LT ISZERO PUSH2 0x1B5F JUMP JUMPDEST DUP8 DUP11 MSTORE PUSH1 0x8 DUP5 MSTORE DUP6 DUP11 KECCAK256 DUP10 DUP12 MSTORE DUP5 MSTORE DUP6 DUP11 KECCAK256 PUSH2 0x513 DUP4 DUP3 SLOAD PUSH2 0x1BB6 JUMP JUMPDEST SWAP1 SSTORE DUP9 DUP11 MSTORE PUSH1 0x3 DUP5 MSTORE DUP6 DUP11 KECCAK256 PUSH2 0x52A DUP4 DUP3 SLOAD PUSH2 0x1BB6 JUMP JUMPDEST SWAP1 SSTORE DUP9 PUSH2 0x1BC3 JUMP JUMPDEST DUP3 MLOAD SWAP2 DUP3 MSTORE TIMESTAMP SWAP1 DUP3 ADD MSTORE LOG3 PUSH1 0x1 DUP1 SSTORE DUP1 RETURN JUMPDEST POP POP CALLVALUE PUSH2 0x3CC JUMPI PUSH1 0x20 CALLDATASIZE PUSH1 0x3 NOT ADD SLT PUSH2 0x3CC JUMPI PUSH1 0x20 SWAP2 DUP2 SWAP1 PUSH1 0x1 PUSH1 0x1 PUSH1 0xA0 SHL SUB PUSH2 0x56C PUSH2 0x1643 JUMP JUMPDEST AND DUP2 MSTORE PUSH1 0x3 DUP5 MSTORE KECCAK256 SLOAD SWAP1 MLOAD SWAP1 DUP2 MSTORE RETURN JUMPDEST DUP1 DUP5 DUP5 CALLVALUE PUSH2 0x6B8 JUMPI PUSH1 0x80 CALLDATASIZE PUSH1 0x3 NOT ADD SLT PUSH2 0x6B8 JUMPI DUP2 PUSH1 0x0 DUP1 MLOAD PUSH1 0x20 PUSH2 0x1DA5 DUP4 CODECOPY DUP2 MLOAD SWAP2 MSTORE SWAP3 PUSH1 0x60 DUP6 PUSH1 0xA0 SWAP5 PUSH2 0x5AF PUSH2 0x1643 JUMP JUMPDEST SWAP1 PUSH1 0x24 CALLDATALOAD PUSH1 0x44 CALLDATALOAD SWAP2 PUSH2 0x628 PUSH1 0x64 CALLDATALOAD SWAP5 PUSH1 0x0 DUP1 MLOAD PUSH1 0x20 PUSH2 0x1DC5 DUP4 CODECOPY DUP2 MLOAD SWAP2 MSTORE DUP8 MSTORE PUSH2 0x5EB PUSH1 0xFF DUP11 PUSH1 0x20 SWAP10 DUP1 DUP12 MSTORE DUP2 DUP2 KECCAK256 CALLER DUP3 MSTORE DUP12 MSTORE KECCAK256 SLOAD AND PUSH2 0x1948 JUMP JUMPDEST PUSH2 0x5F3 PUSH2 0x1B3C JUMP JUMPDEST PUSH2 0x5FB PUSH2 0x1B1E JUMP JUMPDEST PUSH2 0x60E DUP7 PUSH2 0x609 DUP8 DUP8 PUSH2 0x1A00 JUMP JUMPDEST PUSH2 0x1A00 JUMP JUMPDEST SWAP10 DUP11 SWAP2 PUSH1 0x1 DUP1 DUP15 SHL SUB AND SWAP14 DUP15 DUP2 MSTORE DUP5 DUP10 MSTORE KECCAK256 SLOAD LT ISZERO PUSH2 0x1C47 JUMP JUMPDEST DUP11 DUP13 MSTORE DUP5 MSTORE DUP6 DUP12 KECCAK256 PUSH2 0x63B DUP9 DUP3 SLOAD PUSH2 0x1BB6 JUMP JUMPDEST SWAP1 SSTORE DUP10 DUP12 MSTORE PUSH1 0x5 DUP5 MSTORE PUSH2 0x652 DUP7 DUP13 KECCAK256 SWAP2 DUP3 SLOAD PUSH2 0x1A00 JUMP JUMPDEST SWAP1 SSTORE DUP9 DUP11 MSTORE PUSH1 0x6 DUP4 MSTORE PUSH2 0x669 DUP6 DUP12 KECCAK256 SWAP2 DUP3 SLOAD PUSH2 0x1A00 JUMP JUMPDEST SWAP1 SSTORE DUP8 DUP10 MSTORE PUSH1 0x7 DUP3 MSTORE PUSH2 0x680 DUP5 DUP11 KECCAK256 SWAP2 DUP3 SLOAD PUSH2 0x1A00 JUMP JUMPDEST SWAP1 SSTORE DUP3 MLOAD SWAP4 DUP5 MSTORE DUP4 ADD MSTORE PUSH1 0x11 PUSH1 0x60 DUP4 ADD MSTORE PUSH17 0x383937B334BA2FB0B63637B1B0BA34B7B7 PUSH1 0x79 SHL PUSH1 0x80 DUP4 ADD MSTORE TIMESTAMP SWAP1 DUP3 ADD MSTORE LOG2 PUSH1 0x1 DUP1 SSTORE DUP1 RETURN JUMPDEST POP POP REVERT JUMPDEST POP POP CALLVALUE PUSH2 0x3CC JUMPI DUP2 PUSH1 0x3 NOT CALLDATASIZE ADD SLT PUSH2 0x3CC JUMPI PUSH1 0x20 SWAP1 MLOAD PUSH1 0x0 DUP1 MLOAD PUSH1 0x20 PUSH2 0x1DC5 DUP4 CODECOPY DUP2 MLOAD SWAP2 MSTORE DUP2 MSTORE RETURN JUMPDEST POP POP CALLVALUE PUSH2 0x3CC JUMPI PUSH1 0x0 DUP1 MLOAD PUSH1 0x20 PUSH2 0x1DA5 DUP4 CODECOPY DUP2 MLOAD SWAP2 MSTORE PUSH1 0xA0 PUSH2 0x789 PUSH2 0x709 CALLDATASIZE PUSH2 0x16D3 JUMP JUMPDEST SWAP6 SWAP2 SWAP1 DUP1 SWAP4 SWAP2 PUSH1 0x0 DUP1 MLOAD PUSH1 0x20 PUSH2 0x1DC5 DUP4 CODECOPY DUP2 MLOAD SWAP2 MSTORE DUP10 MSTORE DUP9 PUSH1 0x20 MSTORE DUP4 DUP10 KECCAK256 CALLER DUP11 MSTORE PUSH1 0x20 MSTORE PUSH2 0x73C PUSH1 0xFF DUP6 DUP12 KECCAK256 SLOAD AND PUSH2 0x1948 JUMP JUMPDEST PUSH2 0x744 PUSH2 0x1B3C JUMP JUMPDEST PUSH2 0x74C PUSH2 0x1B1E JUMP JUMPDEST PUSH1 0x1 DUP1 DUP8 SHL SUB AND SWAP7 DUP8 DUP10 MSTORE PUSH1 0x6 PUSH1 0x20 MSTORE PUSH2 0x76B DUP3 DUP6 DUP12 KECCAK256 SLOAD LT ISZERO PUSH2 0x1CB5 JUMP JUMPDEST DUP8 DUP10 MSTORE PUSH1 0x6 PUSH1 0x20 MSTORE DUP4 DUP10 KECCAK256 PUSH2 0x781 DUP4 DUP3 SLOAD PUSH2 0x1BB6 JUMP JUMPDEST SWAP1 SSTORE DUP8 PUSH2 0x1BC3 JUMP JUMPDEST DUP1 MLOAD SWAP2 DUP3 MSTORE PUSH1 0x60 PUSH1 0x20 DUP4 ADD MSTORE PUSH1 0x11 PUSH1 0x60 DUP4 ADD MSTORE PUSH17 0x696E7465726163745F7769746864726177 PUSH1 0x78 SHL PUSH1 0x80 DUP4 ADD MSTORE TIMESTAMP SWAP1 DUP3 ADD MSTORE LOG2 PUSH1 0x1 DUP1 SSTORE DUP1 RETURN JUMPDEST POP POP CALLVALUE PUSH2 0x3CC JUMPI DUP1 PUSH1 0x3 NOT CALLDATASIZE ADD SLT PUSH2 0x3CC JUMPI DUP1 PUSH1 0x20 SWAP3 PUSH2 0x7E1 PUSH2 0x1643 JUMP JUMPDEST PUSH2 0x7E9 PUSH2 0x165E JUMP JUMPDEST PUSH1 0x1 PUSH1 0x1 PUSH1 0xA0 SHL SUB SWAP2 DUP3 AND DUP4 MSTORE PUSH1 0x8 DUP7 MSTORE DUP4 DUP4 KECCAK256 SWAP2 AND DUP3 MSTORE DUP5 MSTORE KECCAK256 SLOAD SWAP1 MLOAD SWAP1 DUP2 MSTORE RETURN JUMPDEST POP POP CALLVALUE PUSH2 0x3CC JUMPI DUP2 PUSH1 0x3 NOT CALLDATASIZE ADD SLT PUSH2 0x3CC JUMPI MLOAD SWAP1 DUP2 MSTORE PUSH1 0x20 SWAP1 RETURN JUMPDEST POP CALLVALUE PUSH2 0x1F0 JUMPI DUP2 PUSH1 0x3 NOT CALLDATASIZE ADD SLT PUSH2 0x1F0 JUMPI DUP2 PUSH1 0x20 SWAP4 PUSH1 0xFF SWAP3 PUSH2 0x847 PUSH2 0x165E JUMP JUMPDEST SWAP1 CALLDATALOAD DUP3 MSTORE DUP2 DUP7 MSTORE DUP3 DUP3 KECCAK256 PUSH1 0x1 PUSH1 0x1 PUSH1 0xA0 SHL SUB SWAP1 SWAP2 AND DUP3 MSTORE DUP6 MSTORE KECCAK256 SLOAD SWAP2 MLOAD SWAP2 AND ISZERO ISZERO DUP2 MSTORE RETURN JUMPDEST POP POP CALLVALUE PUSH2 0x3CC JUMPI DUP2 PUSH1 0x3 NOT CALLDATASIZE ADD SLT PUSH2 0x3CC JUMPI PUSH1 0x20 PUSH32 0x62E78CEA01BEE320CD4E420270B5EA74000D11B0C9F74754EBDBFC544B05A258 SWAP2 PUSH2 0x8AA PUSH2 0x173C JUMP JUMPDEST PUSH2 0x8B2 PUSH2 0x1B1E JUMP JUMPDEST PUSH1 0x1 PUSH1 0xFF NOT PUSH1 0x2 SLOAD AND OR PUSH1 0x2 SSTORE MLOAD CALLER DUP2 MSTORE LOG1 DUP1 RETURN JUMPDEST POP POP CALLVALUE PUSH2 0x3CC JUMPI PUSH1 0x20 CALLDATASIZE PUSH1 0x3 NOT ADD SLT PUSH2 0x3CC JUMPI PUSH1 0x20 SWAP2 DUP2 SWAP1 PUSH1 0x1 PUSH1 0x1 PUSH1 0xA0 SHL SUB PUSH2 0x8EF PUSH2 0x1643 JUMP JUMPDEST AND DUP2 MSTORE PUSH1 0x5 DUP5 MSTORE KECCAK256 SLOAD SWAP1 MLOAD SWAP1 DUP2 MSTORE RETURN JUMPDEST POP POP CALLVALUE PUSH2 0x3CC JUMPI DUP2 PUSH1 0x3 NOT CALLDATASIZE ADD SLT PUSH2 0x3CC JUMPI PUSH1 0x2 SLOAD SWAP1 MLOAD PUSH1 0x8 SWAP2 SWAP1 SWAP2 SHR PUSH1 0x1 PUSH1 0x1 PUSH1 0xA0 SHL SUB AND DUP2 MSTORE PUSH1 0x20 SWAP1 RETURN JUMPDEST POP POP CALLVALUE PUSH2 0x3CC JUMPI PUSH2 0x9BD SWAP1 PUSH2 0x940 CALLDATASIZE PUSH2 0x16D3 JUMP JUMPDEST SWAP2 PUSH1 0x0 DUP1 MLOAD PUSH1 0x20 PUSH2 0x1DC5 DUP4 CODECOPY DUP2 MLOAD SWAP2 MSTORE DUP7 SWAP5 SWAP3 SWAP5 MSTORE DUP6 PUSH1 0x20 MSTORE DUP2 DUP7 KECCAK256 CALLER DUP8 MSTORE PUSH1 0x20 MSTORE PUSH2 0x971 PUSH1 0xFF DUP4 DUP9 KECCAK256 SLOAD AND PUSH2 0x1948 JUMP JUMPDEST PUSH2 0x979 PUSH2 0x1B3C JUMP JUMPDEST PUSH2 0x981 PUSH2 0x1B1E JUMP JUMPDEST PUSH1 0x1 DUP1 PUSH1 0xA0 SHL SUB AND SWAP1 DUP2 DUP7 MSTORE PUSH1 0x6 PUSH1 0x20 MSTORE PUSH2 0x9A1 DUP5 DUP3 DUP9 KECCAK256 SLOAD LT ISZERO PUSH2 0x1CB5 JUMP JUMPDEST DUP2 DUP7 MSTORE PUSH1 0x6 PUSH1 0x20 MSTORE DUP6 KECCAK256 PUSH2 0x9B6 DUP5 DUP3 SLOAD PUSH2 0x1BB6 JUMP JUMPDEST SWAP1 SSTORE PUSH2 0x1BC3 JUMP JUMPDEST PUSH1 0x1 DUP1 SSTORE DUP1 RETURN JUMPDEST POP POP CALLVALUE PUSH2 0x3CC JUMPI PUSH1 0x0 DUP1 MLOAD PUSH1 0x20 PUSH2 0x1DA5 DUP4 CODECOPY DUP2 MLOAD SWAP2 MSTORE PUSH1 0xA0 PUSH2 0xA60 PUSH2 0x9E8 CALLDATASIZE PUSH2 0x16D3 JUMP JUMPDEST SWAP6 SWAP2 SWAP1 DUP1 SWAP4 SWAP2 PUSH1 0x0 DUP1 MLOAD PUSH1 0x20 PUSH2 0x1DC5 DUP4 CODECOPY DUP2 MLOAD SWAP2 MSTORE DUP10 MSTORE DUP9 PUSH1 0x20 MSTORE DUP4 DUP10 KECCAK256 CALLER DUP11 MSTORE PUSH1 0x20 MSTORE PUSH2 0xA1B PUSH1 0xFF DUP6 DUP12 KECCAK256 SLOAD AND PUSH2 0x1948 JUMP JUMPDEST PUSH2 0xA23 PUSH2 0x1B3C JUMP JUMPDEST PUSH2 0xA2B PUSH2 0x1B1E JUMP JUMPDEST PUSH1 0x1 DUP1 DUP8 SHL SUB AND SWAP7 DUP8 DUP10 MSTORE PUSH1 0x7 PUSH1 0x20 MSTORE PUSH2 0xA4A DUP3 DUP6 DUP12 KECCAK256 SLOAD LT ISZERO PUSH2 0x1D12 JUMP JUMPDEST DUP8 DUP10 MSTORE PUSH1 0x7 PUSH1 0x20 MSTORE DUP4 DUP10 KECCAK256 PUSH2 0x781 DUP4 DUP3 SLOAD PUSH2 0x1BB6 JUMP JUMPDEST DUP1 MLOAD SWAP2 DUP3 MSTORE PUSH1 0x60 PUSH1 0x20 DUP4 ADD MSTORE PUSH1 0x11 PUSH1 0x60 DUP4 ADD MSTORE PUSH17 0x646F6E6174696F6E5F7769746864726177 PUSH1 0x78 SHL PUSH1 0x80 DUP4 ADD MSTORE TIMESTAMP SWAP1 DUP3 ADD MSTORE LOG2 PUSH1 0x1 DUP1 SSTORE DUP1 RETURN JUMPDEST POP POP CALLVALUE PUSH2 0x3CC JUMPI DUP1 PUSH1 0x3 NOT CALLDATASIZE ADD SLT PUSH2 0x3CC JUMPI PUSH1 0x0 DUP1 MLOAD PUSH1 0x20 PUSH2 0x1DA5 DUP4 CODECOPY DUP2 MLOAD SWAP2 MSTORE PUSH1 0xA0 PUSH2 0xAC5 PUSH2 0x1643 JUMP JUMPDEST PUSH1 0x24 CALLDATALOAD SWAP1 PUSH1 0x0 DUP1 MLOAD PUSH1 0x20 PUSH2 0x1DC5 DUP4 CODECOPY DUP2 MLOAD SWAP2 MSTORE DUP7 MSTORE DUP6 PUSH1 0x20 MSTORE DUP5 DUP7 KECCAK256 CALLER DUP8 MSTORE PUSH1 0x20 MSTORE PUSH2 0xAF6 PUSH1 0xFF DUP7 DUP9 KECCAK256 SLOAD AND PUSH2 0x1948 JUMP JUMPDEST PUSH2 0xAFE PUSH2 0x1B3C JUMP JUMPDEST PUSH2 0xB06 PUSH2 0x1B1E JUMP JUMPDEST PUSH2 0xB11 DUP3 ISZERO ISZERO PUSH2 0x19A0 JUMP JUMPDEST PUSH1 0x1 DUP1 DUP5 SHL SUB AND SWAP4 PUSH2 0xB25 DUP3 ADDRESS CALLER DUP9 PUSH2 0x1A5B JUMP JUMPDEST DUP5 DUP7 MSTORE PUSH1 0x6 PUSH1 0x20 MSTORE DUP1 DUP7 KECCAK256 PUSH2 0xB3B DUP4 DUP3 SLOAD PUSH2 0x1A00 JUMP JUMPDEST SWAP1 SSTORE DUP1 MLOAD SWAP2 DUP3 MSTORE PUSH1 0x60 PUSH1 0x20 DUP4 ADD MSTORE PUSH1 0x10 PUSH1 0x60 DUP4 ADD MSTORE PUSH16 0x1A5B9D195C9858DD17D9195C1BDCDA5D PUSH1 0x82 SHL PUSH1 0x80 DUP4 ADD MSTORE TIMESTAMP SWAP1 DUP3 ADD MSTORE LOG2 PUSH1 0x1 DUP1 SSTORE DUP1 RETURN JUMPDEST POP POP CALLVALUE PUSH2 0x3CC JUMPI DUP2 PUSH1 0x3 NOT CALLDATASIZE ADD SLT PUSH2 0x3CC JUMPI PUSH1 0x20 SWAP1 PUSH1 0xFF PUSH1 0x2 SLOAD AND SWAP1 MLOAD SWAP1 ISZERO ISZERO DUP2 MSTORE RETURN JUMPDEST POP POP CALLVALUE PUSH2 0x3CC JUMPI PUSH32 0x2BDE942ED78F9E1081375810D2AA3BFE43EC08B083F750914542C4BF2FE936C7 SWAP1 PUSH2 0xBCC CALLDATASIZE PUSH2 0x1707 JUMP JUMPDEST PUSH1 0x0 DUP1 MLOAD PUSH1 0x20 PUSH2 0x1DC5 DUP4 CODECOPY DUP2 MLOAD SWAP2 MSTORE DUP7 SWAP6 SWAP4 SWAP6 SWAP5 SWAP3 SWAP5 MSTORE PUSH1 0x20 SWAP4 DUP7 DUP6 MSTORE DUP3 DUP8 KECCAK256 CALLER DUP9 MSTORE DUP6 MSTORE PUSH2 0xC00 PUSH1 0xFF DUP5 DUP10 KECCAK256 SLOAD AND PUSH2 0x1948 JUMP JUMPDEST PUSH2 0xC08 PUSH2 0x1B3C JUMP JUMPDEST PUSH2 0xC10 PUSH2 0x1B1E JUMP JUMPDEST PUSH2 0xC1B DUP3 ISZERO ISZERO PUSH2 0x19A0 JUMP JUMPDEST PUSH1 0x1 PUSH1 0x1 PUSH1 0xA0 SHL SUB SWAP1 DUP2 AND SWAP6 PUSH2 0xC33 DUP4 ADDRESS DUP4 DUP11 PUSH2 0x1A5B JUMP JUMPDEST AND SWAP4 DUP5 DUP8 MSTORE PUSH1 0x8 DUP2 MSTORE DUP3 DUP8 KECCAK256 DUP7 DUP9 MSTORE DUP2 MSTORE DUP3 DUP8 KECCAK256 PUSH2 0xC52 DUP4 DUP3 SLOAD PUSH2 0x1A00 JUMP JUMPDEST SWAP1 SSTORE DUP6 DUP8 MSTORE PUSH1 0x3 DUP2 MSTORE DUP3 DUP8 KECCAK256 PUSH2 0xC69 DUP4 DUP3 SLOAD PUSH2 0x1A00 JUMP JUMPDEST SWAP1 SSTORE DUP3 MLOAD SWAP2 DUP3 MSTORE TIMESTAMP SWAP1 DUP3 ADD MSTORE LOG3 PUSH1 0x1 DUP1 SSTORE DUP1 RETURN JUMPDEST POP POP CALLVALUE PUSH2 0x3CC JUMPI DUP1 PUSH1 0x3 NOT CALLDATASIZE ADD SLT PUSH2 0x3CC JUMPI PUSH1 0x0 DUP1 MLOAD PUSH1 0x20 PUSH2 0x1DA5 DUP4 CODECOPY DUP2 MLOAD SWAP2 MSTORE PUSH1 0xA0 PUSH2 0xCA8 PUSH2 0x1643 JUMP JUMPDEST PUSH1 0x24 CALLDATALOAD SWAP1 PUSH1 0x0 DUP1 MLOAD PUSH1 0x20 PUSH2 0x1DC5 DUP4 CODECOPY DUP2 MLOAD SWAP2 MSTORE DUP7 MSTORE DUP6 PUSH1 0x20 MSTORE DUP5 DUP7 KECCAK256 CALLER DUP8 MSTORE PUSH1 0x20 MSTORE PUSH2 0xCD9 PUSH1 0xFF DUP7 DUP9 KECCAK256 SLOAD AND PUSH2 0x1948 JUMP JUMPDEST PUSH2 0xCE1 PUSH2 0x1B3C JUMP JUMPDEST PUSH2 0xCE9 PUSH2 0x1B1E JUMP JUMPDEST PUSH2 0xCF4 DUP3 ISZERO ISZERO PUSH2 0x19A0 JUMP JUMPDEST PUSH1 0x1 DUP1 DUP5 SHL SUB AND SWAP4 PUSH2 0xD08 DUP3 ADDRESS CALLER DUP9 PUSH2 0x1A5B JUMP JUMPDEST DUP5 DUP7 MSTORE PUSH1 0x5 PUSH1 0x20 MSTORE DUP1 DUP7 KECCAK256 PUSH2 0xD1E DUP4 DUP3 SLOAD PUSH2 0x1A00 JUMP JUMPDEST SWAP1 SSTORE DUP1 MLOAD SWAP2 DUP3 MSTORE PUSH1 0x60 PUSH1 0x20 DUP4 ADD MSTORE PUSH1 0xA PUSH1 0x60 DUP4 ADD MSTORE PUSH10 0x1B1C17D9195C1BDCDA5D PUSH1 0xB2 SHL PUSH1 0x80 DUP4 ADD MSTORE TIMESTAMP SWAP1 DUP3 ADD MSTORE LOG2 PUSH1 0x1 DUP1 SSTORE DUP1 RETURN JUMPDEST POP CALLVALUE PUSH2 0x1F0 JUMPI DUP3 PUSH1 0x3 NOT CALLDATASIZE ADD SLT PUSH2 0x1F0 JUMPI PUSH2 0xD6C PUSH2 0x173C JUMP JUMPDEST PUSH1 0x2 SLOAD SWAP1 PUSH1 0xFF DUP3 AND ISZERO PUSH2 0xDAE JUMPI POP PUSH1 0xFF NOT AND PUSH1 0x2 SSTORE MLOAD CALLER DUP2 MSTORE PUSH32 0x5DB9EE0A495BF2E6FF9C91A7834C1BA4FDD244A5E8AA4E537BD38AEAE4B073AA SWAP1 PUSH1 0x20 SWAP1 LOG1 DUP1 RETURN JUMPDEST DUP3 MLOAD PUSH4 0x8DFC202B PUSH1 0xE0 SHL DUP2 MSTORE REVERT JUMPDEST POP CALLVALUE PUSH2 0x1F0 JUMPI PUSH1 0x20 CALLDATASIZE PUSH1 0x3 NOT ADD SLT PUSH2 0x1F0 JUMPI PUSH1 0x20 SWAP3 DUP3 SWAP2 PUSH1 0x1 PUSH1 0x1 PUSH1 0xA0 SHL SUB PUSH2 0x1E2 PUSH2 0x1643 JUMP JUMPDEST POP SWAP2 SWAP1 CALLVALUE PUSH2 0x3CC JUMPI DUP1 PUSH1 0x3 NOT CALLDATASIZE ADD SLT PUSH2 0x3CC JUMPI PUSH2 0xDFE PUSH2 0x165E JUMP JUMPDEST SWAP1 CALLER PUSH1 0x1 PUSH1 0x1 PUSH1 0xA0 SHL SUB DUP4 AND SUB PUSH2 0xE1B JUMPI POP PUSH2 0x40A SWAP2 SWAP3 CALLDATALOAD PUSH2 0x18D3 JUMP JUMPDEST MLOAD PUSH4 0x334BD919 PUSH1 0xE1 SHL DUP2 MSTORE DUP4 SWAP1 REVERT JUMPDEST POP SWAP1 CALLVALUE PUSH2 0x1F0 JUMPI PUSH2 0xE3A CALLDATASIZE PUSH2 0x16D3 JUMP JUMPDEST PUSH1 0x0 DUP1 MLOAD PUSH1 0x20 PUSH2 0x1DC5 DUP4 CODECOPY DUP2 MLOAD SWAP2 MSTORE DUP7 SWAP5 SWAP4 SWAP3 SWAP5 MSTORE PUSH1 0x20 SWAP2 DUP7 DUP4 MSTORE DUP4 DUP8 KECCAK256 CALLER DUP9 MSTORE DUP4 MSTORE PUSH2 0xE6C PUSH1 0xFF DUP6 DUP10 KECCAK256 SLOAD AND PUSH2 0x1948 JUMP JUMPDEST PUSH2 0xE74 PUSH2 0x1B3C JUMP JUMPDEST PUSH2 0xE7C PUSH2 0x1B1E JUMP JUMPDEST PUSH1 0x1 PUSH1 0x1 PUSH1 0xA0 SHL SUB AND DUP1 DUP8 MSTORE PUSH1 0x5 DUP4 MSTORE DUP4 DUP8 KECCAK256 SLOAD SWAP1 SWAP6 SWAP1 DUP6 GT PUSH2 0xF02 JUMPI POP SWAP2 PUSH1 0x60 DUP5 SWAP3 PUSH2 0xED2 PUSH1 0x0 DUP1 MLOAD PUSH1 0x20 PUSH2 0x1DA5 DUP4 CODECOPY DUP2 MLOAD SWAP2 MSTORE SWAP7 PUSH1 0xA0 SWAP7 DUP10 DUP12 MSTORE PUSH1 0x5 DUP5 MSTORE DUP6 DUP12 KECCAK256 PUSH2 0xECA DUP4 DUP3 SLOAD PUSH2 0x1BB6 JUMP JUMPDEST SWAP1 SSTORE DUP10 PUSH2 0x1BC3 JUMP JUMPDEST DUP3 MLOAD SWAP4 DUP5 MSTORE DUP4 ADD MSTORE PUSH1 0xB PUSH1 0x60 DUP4 ADD MSTORE PUSH11 0x6C705F7769746864726177 PUSH1 0xA8 SHL PUSH1 0x80 DUP4 ADD MSTORE TIMESTAMP SWAP1 DUP3 ADD MSTORE LOG2 PUSH1 0x1 DUP1 SSTORE DUP1 RETURN JUMPDEST DUP4 MLOAD PUSH3 0x461BCD PUSH1 0xE5 SHL DUP2 MSTORE SWAP1 DUP2 ADD DUP4 SWAP1 MSTORE PUSH1 0x22 PUSH1 0x24 DUP3 ADD MSTORE PUSH32 0x5661756C744D616E616765723A20696E73756666696369656E74204C5020706F PUSH1 0x44 DUP3 ADD MSTORE PUSH2 0x1BDB PUSH1 0xF2 SHL PUSH1 0x64 DUP3 ADD MSTORE PUSH1 0x84 SWAP1 REVERT JUMPDEST POP CALLVALUE PUSH2 0x1F0 JUMPI PUSH1 0xA0 CALLDATASIZE PUSH1 0x3 NOT ADD SLT PUSH2 0x1F0 JUMPI PUSH2 0xF6A PUSH2 0x1643 JUMP JUMPDEST PUSH2 0xF72 PUSH2 0x165E JUMP JUMPDEST SWAP3 DUP5 PUSH1 0x44 CALLDATALOAD SWAP5 PUSH1 0x1 DUP1 PUSH1 0xA0 SHL SUB SWAP5 DUP6 DUP8 AND DUP1 SWAP8 SUB PUSH2 0x1F0 JUMPI PUSH1 0x64 CALLDATALOAD PUSH1 0x84 CALLDATALOAD SWAP5 PUSH8 0xFFFFFFFFFFFFFFFF DUP7 GT PUSH2 0x107E JUMPI DUP8 DUP10 SWAP5 PUSH2 0x1036 DUP5 DUP5 PUSH2 0xFD9 PUSH2 0x1074 SWAP9 PUSH32 0x31EB66ACEA2A2E9363E745354476882560841A43C057F7F2E75E63470CA557AF SWAP13 CALLDATASIZE SWAP2 ADD PUSH2 0x16A5 JUMP JUMPDEST SWAP11 SWAP1 SWAP10 PUSH1 0x0 DUP1 MLOAD PUSH1 0x20 PUSH2 0x1DC5 DUP4 CODECOPY DUP2 MLOAD SWAP2 MSTORE DUP3 MSTORE PUSH1 0x20 SWAP15 DUP16 SWAP15 DUP16 DUP5 DUP2 MSTORE DUP6 DUP6 KECCAK256 SWAP1 CALLER DUP7 MSTORE MSTORE PUSH2 0x100D PUSH1 0xFF DUP7 DUP7 KECCAK256 SLOAD AND PUSH2 0x1948 JUMP JUMPDEST PUSH2 0x1015 PUSH2 0x1B3C JUMP JUMPDEST PUSH2 0x101D PUSH2 0x1B1E JUMP JUMPDEST AND SWAP14 DUP15 DUP4 MSTORE PUSH1 0x8 DUP2 MSTORE DUP4 DUP4 KECCAK256 SWAP2 DUP4 MSTORE MSTORE KECCAK256 SLOAD LT ISZERO PUSH2 0x1B5F JUMP JUMPDEST DUP9 DUP13 MSTORE PUSH1 0x8 DUP11 MSTORE DUP3 DUP13 KECCAK256 DUP12 DUP14 MSTORE DUP11 MSTORE DUP3 DUP13 KECCAK256 PUSH2 0x1053 DUP6 DUP3 SLOAD PUSH2 0x1BB6 JUMP JUMPDEST SWAP1 SSTORE AND SWAP8 DUP9 DUP12 MSTORE PUSH1 0x8 DUP2 MSTORE DUP2 DUP12 KECCAK256 SWAP1 DUP11 DUP13 MSTORE MSTORE DUP1 DUP11 KECCAK256 PUSH2 0x2D4 DUP4 DUP3 SLOAD PUSH2 0x1A00 JUMP JUMPDEST SUB SWAP1 LOG4 PUSH1 0x1 DUP1 SSTORE DUP1 RETURN JUMPDEST DUP5 DUP1 REVERT JUMPDEST POP SWAP1 CALLVALUE PUSH2 0x1F0 JUMPI DUP1 PUSH1 0x3 NOT CALLDATASIZE ADD SLT PUSH2 0x1F0 JUMPI PUSH2 0x40A SWAP2 CALLDATALOAD PUSH2 0x10A6 PUSH1 0x1 PUSH2 0x3F4 PUSH2 0x165E JUMP JUMPDEST PUSH2 0x185A JUMP JUMPDEST POP POP CALLVALUE PUSH2 0x3CC JUMPI PUSH1 0x20 CALLDATASIZE PUSH1 0x3 NOT ADD SLT PUSH2 0x3CC JUMPI PUSH2 0x40A SWAP1 PUSH2 0x10F6 PUSH1 0x1 PUSH2 0x10CF PUSH2 0x1643 JUMP JUMPDEST SWAP3 PUSH2 0x10D8 PUSH2 0x173C JUMP JUMPDEST PUSH1 0x0 DUP1 MLOAD PUSH1 0x20 PUSH2 0x1DC5 DUP4 CODECOPY DUP2 MLOAD SWAP2 MSTORE DUP7 MSTORE DUP6 PUSH1 0x20 MSTORE DUP6 KECCAK256 ADD SLOAD PUSH2 0x1794 JUMP JUMPDEST PUSH2 0x17BA JUMP JUMPDEST POP CALLVALUE PUSH2 0x1F0 JUMPI PUSH1 0x20 CALLDATASIZE PUSH1 0x3 NOT ADD SLT PUSH2 0x1F0 JUMPI DUP2 PUSH1 0x20 SWAP4 PUSH1 0x1 SWAP3 CALLDATALOAD DUP2 MSTORE DUP1 DUP6 MSTORE KECCAK256 ADD SLOAD SWAP1 MLOAD SWAP1 DUP2 MSTORE RETURN JUMPDEST POP SWAP1 CALLVALUE PUSH2 0x1F0 JUMPI PUSH1 0x60 CALLDATASIZE PUSH1 0x3 NOT ADD SLT PUSH2 0x1F0 JUMPI PUSH2 0x113F PUSH2 0x1643 JUMP JUMPDEST SWAP1 PUSH1 0x24 CALLDATALOAD SWAP3 PUSH8 0xFFFFFFFFFFFFFFFF SWAP4 DUP5 DUP2 GT PUSH2 0x1309 JUMPI PUSH2 0x1162 SWAP1 CALLDATASIZE SWAP1 DUP4 ADD PUSH2 0x1674 JUMP JUMPDEST SWAP5 PUSH1 0x44 CALLDATALOAD SWAP1 DUP2 GT PUSH2 0x1305 JUMPI PUSH2 0x117A SWAP1 CALLDATASIZE SWAP1 DUP5 ADD PUSH2 0x1674 JUMP JUMPDEST PUSH1 0x0 DUP1 MLOAD PUSH1 0x20 PUSH2 0x1DC5 DUP4 CODECOPY DUP2 MLOAD SWAP2 MSTORE DUP9 SWAP7 SWAP3 SWAP7 MSTORE PUSH1 0x20 SWAP4 DUP9 DUP6 MSTORE DUP6 DUP10 KECCAK256 CALLER DUP11 MSTORE DUP6 MSTORE PUSH2 0x11AB PUSH1 0xFF DUP8 DUP12 KECCAK256 SLOAD AND PUSH2 0x1948 JUMP JUMPDEST PUSH2 0x11B3 PUSH2 0x1B3C JUMP JUMPDEST PUSH2 0x11BB PUSH2 0x1B1E JUMP JUMPDEST DUP2 DUP9 SUB PUSH2 0x12C2 JUMPI POP DUP8 SWAP6 DUP9 JUMPDEST DUP3 DUP2 LT PUSH2 0x129D JUMPI POP PUSH1 0x1 DUP1 PUSH1 0xA0 SHL SUB DUP1 SWAP4 AND SWAP8 DUP9 DUP11 MSTORE PUSH1 0x7 DUP7 MSTORE PUSH2 0x11F0 DUP9 DUP9 DUP13 KECCAK256 SLOAD LT ISZERO PUSH2 0x1D12 JUMP JUMPDEST DUP9 DUP11 MSTORE PUSH1 0x7 DUP7 MSTORE DUP7 DUP11 KECCAK256 PUSH2 0x1205 DUP10 DUP3 SLOAD PUSH2 0x1BB6 JUMP JUMPDEST SWAP1 SSTORE DUP10 JUMPDEST DUP2 DUP2 LT PUSH2 0x125F JUMPI DUP11 DUP11 PUSH1 0x0 DUP1 MLOAD PUSH1 0x20 PUSH2 0x1DA5 DUP4 CODECOPY DUP2 MLOAD SWAP2 MSTORE PUSH1 0xA0 DUP13 DUP13 PUSH1 0x60 DUP14 DUP3 MLOAD SWAP4 DUP5 MSTORE DUP4 ADD MSTORE PUSH1 0x12 PUSH1 0x60 DUP4 ADD MSTORE PUSH18 0xDCDEC8CABEE4CAEEC2E4C8E6BEC4C2E8C6D PUSH1 0x73 SHL PUSH1 0x80 DUP4 ADD MSTORE TIMESTAMP SWAP1 DUP3 ADD MSTORE LOG2 PUSH1 0x1 DUP1 SSTORE DUP1 RETURN JUMPDEST PUSH2 0x126A DUP2 DUP4 DUP9 PUSH2 0x1D7E JUMP JUMPDEST CALLDATALOAD SWAP1 DUP6 DUP3 AND DUP3 SUB PUSH2 0x1299 JUMPI PUSH2 0x128F PUSH2 0x1294 SWAP3 PUSH2 0x1287 DUP4 DUP9 DUP9 PUSH2 0x1D7E JUMP JUMPDEST CALLDATALOAD SWAP1 DUP14 PUSH2 0x1BC3 JUMP JUMPDEST PUSH2 0x1D6F JUMP JUMPDEST PUSH2 0x1209 JUMP JUMPDEST DUP12 DUP1 REVERT JUMPDEST SWAP7 PUSH2 0x12B7 PUSH2 0x12BD SWAP2 PUSH2 0x12B0 DUP11 DUP7 DUP7 PUSH2 0x1D7E JUMP JUMPDEST CALLDATALOAD SWAP1 PUSH2 0x1A00 JUMP JUMPDEST SWAP8 PUSH2 0x1D6F JUMP JUMPDEST PUSH2 0x11C7 JUMP JUMPDEST DUP6 MLOAD PUSH3 0x461BCD PUSH1 0xE5 SHL DUP2 MSTORE SWAP1 DUP2 ADD DUP6 SWAP1 MSTORE PUSH1 0x1D PUSH1 0x24 DUP3 ADD MSTORE PUSH32 0x5661756C744D616E616765723A206C656E677468206D69736D61746368000000 PUSH1 0x44 DUP3 ADD MSTORE PUSH1 0x64 SWAP1 REVERT JUMPDEST DUP7 DUP1 REVERT JUMPDEST DUP6 DUP1 REVERT JUMPDEST DUP4 CALLVALUE PUSH2 0x1357 JUMPI PUSH1 0x20 CALLDATASIZE PUSH1 0x3 NOT ADD SLT PUSH2 0x1357 JUMPI PUSH2 0x1327 PUSH2 0x1643 JUMP JUMPDEST PUSH2 0x132F PUSH2 0x173C JUMP JUMPDEST PUSH1 0x2 DUP1 SLOAD PUSH2 0x100 PUSH1 0x1 PUSH1 0xA8 SHL SUB NOT AND PUSH1 0x8 SWAP3 SWAP1 SWAP3 SHL PUSH2 0x100 PUSH1 0x1 PUSH1 0xA8 SHL SUB AND SWAP2 SWAP1 SWAP2 OR SWAP1 SSTORE DUP1 RETURN JUMPDEST DUP1 REVERT JUMPDEST POP POP CALLVALUE PUSH2 0x3CC JUMPI PUSH1 0x20 CALLDATASIZE PUSH1 0x3 NOT ADD SLT PUSH2 0x3CC JUMPI PUSH1 0x20 SWAP2 DUP2 SWAP1 PUSH1 0x1 PUSH1 0x1 PUSH1 0xA0 SHL SUB PUSH2 0x1382 PUSH2 0x1643 JUMP JUMPDEST AND DUP2 MSTORE PUSH1 0x6 DUP5 MSTORE KECCAK256 SLOAD SWAP1 MLOAD SWAP1 DUP2 MSTORE RETURN JUMPDEST POP CALLVALUE PUSH2 0x1F0 JUMPI DUP2 PUSH1 0x3 NOT CALLDATASIZE ADD SLT PUSH2 0x1F0 JUMPI PUSH2 0x13AB PUSH2 0x1643 JUMP JUMPDEST SWAP2 PUSH1 0x24 CALLDATALOAD SWAP1 PUSH1 0x0 DUP1 MLOAD PUSH1 0x20 PUSH2 0x1DC5 DUP4 CODECOPY DUP2 MLOAD SWAP2 MSTORE DUP6 MSTORE PUSH1 0x20 DUP6 DUP2 MSTORE DUP2 DUP7 KECCAK256 CALLER DUP8 MSTORE DUP2 MSTORE PUSH2 0x13DD PUSH1 0xFF DUP4 DUP9 KECCAK256 SLOAD AND PUSH2 0x1948 JUMP JUMPDEST PUSH2 0x13E5 PUSH2 0x1B3C JUMP JUMPDEST PUSH2 0x13ED PUSH2 0x1B1E JUMP JUMPDEST PUSH1 0x1 DUP1 PUSH1 0xA0 SHL SUB DUP1 SWAP6 AND SWAP5 DUP6 DUP8 MSTORE DUP5 DUP3 MSTORE PUSH2 0x140D DUP5 DUP5 DUP10 KECCAK256 SLOAD LT ISZERO PUSH2 0x1C47 JUMP JUMPDEST DUP6 DUP8 MSTORE DUP5 DUP3 MSTORE DUP3 DUP8 KECCAK256 PUSH2 0x1421 DUP6 DUP3 SLOAD PUSH2 0x1BB6 JUMP JUMPDEST SWAP1 SSTORE PUSH1 0x2 SLOAD PUSH1 0x8 SHR AND SWAP4 DUP3 MLOAD SWAP1 PUSH4 0x62F5AD63 PUSH1 0xE0 SHL DUP3 MSTORE DUP3 DUP3 DUP3 DUP2 DUP10 GAS STATICCALL DUP1 ISZERO PUSH2 0x1576 JUMPI DUP9 SWAP1 PUSH2 0x15C0 JUMPI JUMPDEST PUSH2 0x145D SWAP3 POP PUSH2 0x2710 SWAP3 DUP4 SWAP2 DUP8 PUSH2 0x1CA2 JUMP JUMPDEST DIV SWAP6 DUP5 MLOAD PUSH4 0x3C6EC585 PUSH1 0xE1 SHL DUP2 MSTORE DUP5 DUP2 DUP5 DUP2 DUP6 GAS STATICCALL SWAP1 DUP2 ISZERO PUSH2 0x15B6 JUMPI SWAP1 DUP6 SWAP3 SWAP2 DUP12 SWAP2 PUSH2 0x1580 JUMPI JUMPDEST POP PUSH2 0x148F SWAP1 DUP9 PUSH2 0x1CA2 JUMP JUMPDEST POP DUP6 MLOAD PUSH4 0x1EB4189 PUSH1 0xE7 SHL DUP2 MSTORE SWAP3 DUP4 SWAP2 DUP3 SWAP1 GAS STATICCALL SWAP1 DUP2 ISZERO PUSH2 0x1576 JUMPI DUP9 SWAP2 PUSH2 0x152B JUMPI JUMPDEST POP SWAP2 PUSH1 0x0 DUP1 MLOAD PUSH1 0x20 PUSH2 0x1DA5 DUP4 CODECOPY DUP2 MLOAD SWAP2 MSTORE SWAP6 PUSH1 0x60 SWAP3 PUSH2 0x14D4 DUP8 SWAP7 SWAP6 PUSH1 0xA0 SWAP9 PUSH2 0x1CA2 JUMP JUMPDEST DIV DUP9 DUP11 MSTORE PUSH1 0x5 DUP4 MSTORE PUSH2 0x14EA DUP6 DUP12 KECCAK256 SWAP2 DUP3 SLOAD PUSH2 0x1A00 JUMP JUMPDEST SWAP1 SSTORE DUP8 DUP10 MSTORE PUSH1 0x7 DUP3 MSTORE PUSH2 0x1501 DUP5 DUP11 KECCAK256 SWAP2 DUP3 SLOAD PUSH2 0x1A00 JUMP JUMPDEST SWAP1 SSTORE DUP3 MLOAD SWAP4 DUP5 MSTORE DUP4 ADD MSTORE PUSH1 0x3 PUSH1 0x60 DUP4 ADD MSTORE PUSH3 0x185B1B PUSH1 0xEA SHL PUSH1 0x80 DUP4 ADD MSTORE TIMESTAMP SWAP1 DUP3 ADD MSTORE LOG2 PUSH1 0x1 DUP1 SSTORE DUP1 RETURN JUMPDEST SWAP2 SWAP5 SWAP4 SWAP3 DUP1 SWAP2 POP DUP3 DUP2 RETURNDATASIZE DUP4 GT PUSH2 0x156F JUMPI JUMPDEST PUSH2 0x1546 DUP2 DUP4 PUSH2 0x1A23 JUMP JUMPDEST DUP2 ADD SUB SLT PUSH2 0x156B JUMPI SWAP1 MLOAD SWAP3 SWAP4 SWAP2 SWAP3 SWAP1 SWAP2 SWAP1 PUSH1 0x0 DUP1 MLOAD PUSH1 0x20 PUSH2 0x1DA5 DUP4 CODECOPY DUP2 MLOAD SWAP2 MSTORE PUSH2 0x14B1 JUMP JUMPDEST DUP8 DUP1 REVERT JUMPDEST POP RETURNDATASIZE PUSH2 0x153C JUMP JUMPDEST DUP5 MLOAD RETURNDATASIZE DUP11 DUP3 RETURNDATACOPY RETURNDATASIZE SWAP1 REVERT JUMPDEST DUP4 DUP2 SWAP5 SWAP3 POP RETURNDATASIZE DUP4 GT PUSH2 0x15AF JUMPI JUMPDEST PUSH2 0x1597 DUP2 DUP4 PUSH2 0x1A23 JUMP JUMPDEST DUP2 ADD SUB SLT PUSH2 0x15AB JUMPI PUSH2 0x148F DUP6 SWAP3 MLOAD SWAP1 PUSH2 0x1484 JUMP JUMPDEST DUP10 DUP1 REVERT JUMPDEST POP RETURNDATASIZE PUSH2 0x158D JUMP JUMPDEST DUP7 MLOAD RETURNDATASIZE DUP13 DUP3 RETURNDATACOPY RETURNDATASIZE SWAP1 REVERT JUMPDEST POP DUP3 DUP3 DUP2 RETURNDATASIZE DUP4 GT PUSH2 0x15E8 JUMPI JUMPDEST PUSH2 0x15D6 DUP2 DUP4 PUSH2 0x1A23 JUMP JUMPDEST DUP2 ADD SUB SLT PUSH2 0x156B JUMPI PUSH2 0x145D SWAP2 MLOAD PUSH2 0x144C JUMP JUMPDEST POP RETURNDATASIZE PUSH2 0x15CC JUMP JUMPDEST SWAP3 POP POP CALLVALUE PUSH2 0x1F0 JUMPI PUSH1 0x20 CALLDATASIZE PUSH1 0x3 NOT ADD SLT PUSH2 0x1F0 JUMPI CALLDATALOAD PUSH4 0xFFFFFFFF PUSH1 0xE0 SHL DUP2 AND DUP1 SWAP2 SUB PUSH2 0x1F0 JUMPI PUSH1 0x20 SWAP3 POP PUSH4 0x7965DB0B PUSH1 0xE0 SHL DUP2 EQ SWAP1 DUP2 ISZERO PUSH2 0x1632 JUMPI JUMPDEST POP ISZERO ISZERO DUP2 MSTORE RETURN JUMPDEST PUSH4 0x1FFC9A7 PUSH1 0xE0 SHL EQ SWAP1 POP CODESIZE PUSH2 0x162B JUMP JUMPDEST PUSH1 0x4 CALLDATALOAD SWAP1 PUSH1 0x1 PUSH1 0x1 PUSH1 0xA0 SHL SUB DUP3 AND DUP3 SUB PUSH2 0x1659 JUMPI JUMP JUMPDEST PUSH1 0x0 DUP1 REVERT JUMPDEST PUSH1 0x24 CALLDATALOAD SWAP1 PUSH1 0x1 PUSH1 0x1 PUSH1 0xA0 SHL SUB DUP3 AND DUP3 SUB PUSH2 0x1659 JUMPI JUMP JUMPDEST SWAP2 DUP2 PUSH1 0x1F DUP5 ADD SLT ISZERO PUSH2 0x1659 JUMPI DUP3 CALLDATALOAD SWAP2 PUSH8 0xFFFFFFFFFFFFFFFF DUP4 GT PUSH2 0x1659 JUMPI PUSH1 0x20 DUP1 DUP6 ADD SWAP5 DUP5 PUSH1 0x5 SHL ADD ADD GT PUSH2 0x1659 JUMPI JUMP JUMPDEST SWAP2 DUP2 PUSH1 0x1F DUP5 ADD SLT ISZERO PUSH2 0x1659 JUMPI DUP3 CALLDATALOAD SWAP2 PUSH8 0xFFFFFFFFFFFFFFFF DUP4 GT PUSH2 0x1659 JUMPI PUSH1 0x20 DUP4 DUP2 DUP7 ADD SWAP6 ADD ADD GT PUSH2 0x1659 JUMPI JUMP JUMPDEST PUSH1 0x60 SWAP1 PUSH1 0x3 NOT ADD SLT PUSH2 0x1659 JUMPI PUSH1 0x1 PUSH1 0x1 PUSH1 0xA0 SHL SUB PUSH1 0x4 CALLDATALOAD DUP2 DUP2 AND DUP2 SUB PUSH2 0x1659 JUMPI SWAP2 PUSH1 0x24 CALLDATALOAD SWAP2 PUSH1 0x44 CALLDATALOAD SWAP1 DUP2 AND DUP2 SUB PUSH2 0x1659 JUMPI SWAP1 JUMP JUMPDEST PUSH1 0x60 SWAP1 PUSH1 0x3 NOT ADD SLT PUSH2 0x1659 JUMPI PUSH1 0x1 PUSH1 0x1 PUSH1 0xA0 SHL SUB SWAP1 PUSH1 0x4 CALLDATALOAD DUP3 DUP2 AND DUP2 SUB PUSH2 0x1659 JUMPI SWAP2 PUSH1 0x24 CALLDATALOAD SWAP1 DUP2 AND DUP2 SUB PUSH2 0x1659 JUMPI SWAP1 PUSH1 0x44 CALLDATALOAD SWAP1 JUMP JUMPDEST CALLER PUSH1 0x0 SWAP1 DUP2 MSTORE PUSH32 0xAD3228B676F7D3CD4284A5443F17F1962B36E491B30A40B2405849E597BA5FB5 PUSH1 0x20 MSTORE PUSH1 0x40 DUP2 KECCAK256 SLOAD PUSH1 0xFF AND ISZERO PUSH2 0x1776 JUMPI POP JUMP JUMPDEST PUSH1 0x44 SWAP1 PUSH1 0x40 MLOAD SWAP1 PUSH4 0xE2517D3F PUSH1 0xE0 SHL DUP3 MSTORE CALLER PUSH1 0x4 DUP4 ADD MSTORE PUSH1 0x24 DUP3 ADD MSTORE REVERT JUMPDEST DUP1 PUSH1 0x0 MSTORE PUSH1 0x0 PUSH1 0x20 MSTORE PUSH1 0x40 PUSH1 0x0 KECCAK256 CALLER PUSH1 0x0 MSTORE PUSH1 0x20 MSTORE PUSH1 0xFF PUSH1 0x40 PUSH1 0x0 KECCAK256 SLOAD AND ISZERO PUSH2 0x1776 JUMPI POP JUMP JUMPDEST PUSH1 0x1 PUSH1 0x1 PUSH1 0xA0 SHL SUB AND PUSH1 0x0 DUP2 DUP2 MSTORE PUSH32 0xAD6010F11D85E6849EC87F5F41F95A2725AAF728916B399656C75CE30B0D2C54 PUSH1 0x20 MSTORE PUSH1 0x40 DUP2 KECCAK256 SLOAD SWAP1 SWAP2 SWAP1 PUSH1 0x0 DUP1 MLOAD PUSH1 0x20 PUSH2 0x1DC5 DUP4 CODECOPY DUP2 MLOAD SWAP2 MSTORE SWAP1 PUSH1 0xFF AND PUSH2 0x1855 JUMPI DUP1 DUP4 MSTORE DUP3 PUSH1 0x20 MSTORE PUSH1 0x40 DUP4 KECCAK256 DUP3 DUP5 MSTORE PUSH1 0x20 MSTORE PUSH1 0x40 DUP4 KECCAK256 PUSH1 0x1 PUSH1 0xFF NOT DUP3 SLOAD AND OR SWAP1 SSTORE PUSH32 0x2F8788117E7EFF1D82E926EC794901D17C78024A50270940304540A733656F0D CALLER SWAP4 DUP1 LOG4 PUSH1 0x1 SWAP1 JUMP JUMPDEST POP POP SWAP1 JUMP JUMPDEST SWAP1 PUSH1 0x0 SWAP2 DUP1 DUP4 MSTORE DUP3 PUSH1 0x20 MSTORE PUSH1 0x40 DUP4 KECCAK256 SWAP2 PUSH1 0x1 DUP1 PUSH1 0xA0 SHL SUB AND SWAP2 DUP3 DUP5 MSTORE PUSH1 0x20 MSTORE PUSH1 0xFF PUSH1 0x40 DUP5 KECCAK256 SLOAD AND ISZERO PUSH1 0x0 EQ PUSH2 0x1855 JUMPI DUP1 DUP4 MSTORE DUP3 PUSH1 0x20 MSTORE PUSH1 0x40 DUP4 KECCAK256 DUP3 DUP5 MSTORE PUSH1 0x20 MSTORE PUSH1 0x40 DUP4 KECCAK256 PUSH1 0x1 PUSH1 0xFF NOT DUP3 SLOAD AND OR SWAP1 SSTORE PUSH32 0x2F8788117E7EFF1D82E926EC794901D17C78024A50270940304540A733656F0D CALLER SWAP4 DUP1 LOG4 PUSH1 0x1 SWAP1 JUMP JUMPDEST SWAP1 PUSH1 0x0 SWAP2 DUP1 DUP4 MSTORE DUP3 PUSH1 0x20 MSTORE PUSH1 0x40 DUP4 KECCAK256 SWAP2 PUSH1 0x1 DUP1 PUSH1 0xA0 SHL SUB AND SWAP2 DUP3 DUP5 MSTORE PUSH1 0x20 MSTORE PUSH1 0xFF PUSH1 0x40 DUP5 KECCAK256 SLOAD AND PUSH1 0x0 EQ PUSH2 0x1855 JUMPI DUP1 DUP4 MSTORE DUP3 PUSH1 0x20 MSTORE PUSH1 0x40 DUP4 KECCAK256 DUP3 DUP5 MSTORE PUSH1 0x20 MSTORE PUSH1 0x40 DUP4 KECCAK256 PUSH1 0xFF NOT DUP2 SLOAD AND SWAP1 SSTORE PUSH32 0xF6391F5C32D9C69D2A47EA670B442974B53935D1EDC7FD64EB21E047A839171B CALLER SWAP4 DUP1 LOG4 PUSH1 0x1 SWAP1 JUMP JUMPDEST ISZERO PUSH2 0x194F JUMPI JUMP JUMPDEST PUSH1 0x40 MLOAD PUSH3 0x461BCD PUSH1 0xE5 SHL DUP2 MSTORE PUSH1 0x20 PUSH1 0x4 DUP3 ADD MSTORE PUSH1 0x24 DUP1 DUP3 ADD MSTORE PUSH32 0x5661756C744D616E616765723A2063616C6C6572206973206E6F74206F706572 PUSH1 0x44 DUP3 ADD MSTORE PUSH4 0x30BA37B9 PUSH1 0xE1 SHL PUSH1 0x64 DUP3 ADD MSTORE PUSH1 0x84 SWAP1 REVERT JUMPDEST ISZERO PUSH2 0x19A7 JUMPI JUMP JUMPDEST PUSH1 0x40 MLOAD PUSH3 0x461BCD PUSH1 0xE5 SHL DUP2 MSTORE PUSH1 0x20 PUSH1 0x4 DUP3 ADD MSTORE PUSH1 0x2B PUSH1 0x24 DUP3 ADD MSTORE PUSH32 0x5661756C744D616E616765723A20616D6F756E74206D75737420626520677265 PUSH1 0x44 DUP3 ADD MSTORE PUSH11 0x61746572207468616E203 PUSH1 0xAC SHL PUSH1 0x64 DUP3 ADD MSTORE PUSH1 0x84 SWAP1 REVERT JUMPDEST SWAP2 SWAP1 DUP3 ADD DUP1 SWAP3 GT PUSH2 0x1A0D JUMPI JUMP JUMPDEST PUSH4 0x4E487B71 PUSH1 0xE0 SHL PUSH1 0x0 MSTORE PUSH1 0x11 PUSH1 0x4 MSTORE PUSH1 0x24 PUSH1 0x0 REVERT JUMPDEST SWAP1 PUSH1 0x1F DUP1 NOT SWAP2 ADD AND DUP2 ADD SWAP1 DUP2 LT PUSH8 0xFFFFFFFFFFFFFFFF DUP3 GT OR PUSH2 0x1A45 JUMPI PUSH1 0x40 MSTORE JUMP JUMPDEST PUSH4 0x4E487B71 PUSH1 0xE0 SHL PUSH1 0x0 MSTORE PUSH1 0x41 PUSH1 0x4 MSTORE PUSH1 0x24 PUSH1 0x0 REVERT JUMPDEST PUSH1 0x40 MLOAD PUSH4 0x23B872DD PUSH1 0xE0 SHL PUSH1 0x20 DUP3 ADD MSTORE PUSH1 0x1 PUSH1 0x1 PUSH1 0xA0 SHL SUB SWAP3 DUP4 AND PUSH1 0x24 DUP3 ADD MSTORE SWAP3 SWAP1 SWAP2 AND PUSH1 0x44 DUP4 ADD MSTORE PUSH1 0x64 DUP1 DUP4 ADD SWAP4 SWAP1 SWAP4 MSTORE SWAP2 DUP2 MSTORE PUSH1 0xA0 DUP2 ADD SWAP2 DUP2 DUP4 LT PUSH8 0xFFFFFFFFFFFFFFFF DUP5 GT OR PUSH2 0x1A45 JUMPI PUSH2 0x1AB4 SWAP3 PUSH1 0x40 MSTORE PUSH2 0x1AB6 JUMP JUMPDEST JUMP JUMPDEST SWAP1 PUSH1 0x0 PUSH1 0x20 SWAP2 DUP3 DUP2 MLOAD SWAP2 ADD DUP3 DUP6 GAS CALL ISZERO PUSH2 0x1B12 JUMPI PUSH1 0x0 MLOAD RETURNDATASIZE PUSH2 0x1B09 JUMPI POP PUSH1 0x1 PUSH1 0x1 PUSH1 0xA0 SHL SUB DUP2 AND EXTCODESIZE ISZERO JUMPDEST PUSH2 0x1AE7 JUMPI POP JUMP JUMPDEST PUSH1 0x40 MLOAD PUSH4 0x5274AFE7 PUSH1 0xE0 SHL DUP2 MSTORE PUSH1 0x1 PUSH1 0x1 PUSH1 0xA0 SHL SUB SWAP1 SWAP2 AND PUSH1 0x4 DUP3 ADD MSTORE PUSH1 0x24 SWAP1 REVERT JUMPDEST PUSH1 0x1 EQ ISZERO PUSH2 0x1AE0 JUMP JUMPDEST PUSH1 0x40 MLOAD RETURNDATASIZE PUSH1 0x0 DUP3 RETURNDATACOPY RETURNDATASIZE SWAP1 REVERT JUMPDEST PUSH1 0xFF PUSH1 0x2 SLOAD AND PUSH2 0x1B2A JUMPI JUMP JUMPDEST PUSH1 0x40 MLOAD PUSH4 0xD93C0665 PUSH1 0xE0 SHL DUP2 MSTORE PUSH1 0x4 SWAP1 REVERT JUMPDEST PUSH1 0x2 PUSH1 0x1 SLOAD EQ PUSH2 0x1B4D JUMPI PUSH1 0x2 PUSH1 0x1 SSTORE JUMP JUMPDEST PUSH1 0x40 MLOAD PUSH4 0x3EE5AEB5 PUSH1 0xE0 SHL DUP2 MSTORE PUSH1 0x4 SWAP1 REVERT JUMPDEST ISZERO PUSH2 0x1B66 JUMPI JUMP JUMPDEST PUSH1 0x40 MLOAD PUSH3 0x461BCD PUSH1 0xE5 SHL DUP2 MSTORE PUSH1 0x20 PUSH1 0x4 DUP3 ADD MSTORE PUSH1 0x22 PUSH1 0x24 DUP3 ADD MSTORE PUSH32 0x5661756C744D616E616765723A20696E73756666696369656E742062616C616E PUSH1 0x44 DUP3 ADD MSTORE PUSH2 0x6365 PUSH1 0xF0 SHL PUSH1 0x64 DUP3 ADD MSTORE PUSH1 0x84 SWAP1 REVERT JUMPDEST SWAP2 SWAP1 DUP3 SUB SWAP2 DUP3 GT PUSH2 0x1A0D JUMPI JUMP JUMPDEST PUSH1 0x40 MLOAD PUSH4 0xA9059CBB PUSH1 0xE0 SHL PUSH1 0x20 DUP3 ADD MSTORE PUSH1 0x1 PUSH1 0x1 PUSH1 0xA0 SHL SUB SWAP1 SWAP3 AND PUSH1 0x24 DUP4 ADD MSTORE PUSH1 0x44 DUP1 DUP4 ADD SWAP4 SWAP1 SWAP4 MSTORE SWAP2 DUP2 MSTORE PUSH1 0x80 DUP2 ADD SWAP2 PUSH8 0xFFFFFFFFFFFFFFFF DUP4 GT DUP3 DUP5 LT OR PUSH2 0x1A45 JUMPI PUSH2 0x1AB4 SWAP3 PUSH1 0x40 MSTORE PUSH2 0x1AB6 JUMP JUMPDEST SWAP5 SWAP4 SWAP3 DUP1 PUSH1 0x40 SWAP4 PUSH1 0x80 SWAP4 DUP9 MSTORE PUSH1 0x60 PUSH1 0x20 DUP10 ADD MSTORE DUP2 PUSH1 0x60 DUP10 ADD MSTORE DUP4 DUP9 ADD CALLDATACOPY PUSH1 0x0 DUP3 DUP3 DUP9 ADD ADD MSTORE PUSH1 0x1F DUP1 NOT SWAP2 ADD AND DUP6 ADD ADD SWAP4 ADD MSTORE JUMP JUMPDEST ISZERO PUSH2 0x1C4E JUMPI JUMP JUMPDEST PUSH1 0x40 MLOAD PUSH3 0x461BCD PUSH1 0xE5 SHL DUP2 MSTORE PUSH1 0x20 PUSH1 0x4 DUP3 ADD MSTORE PUSH1 0x26 PUSH1 0x24 DUP3 ADD MSTORE PUSH32 0x5661756C744D616E616765723A20696E73756666696369656E742070726F6669 PUSH1 0x44 DUP3 ADD MSTORE PUSH6 0x1D081C1BDBDB PUSH1 0xD2 SHL PUSH1 0x64 DUP3 ADD MSTORE PUSH1 0x84 SWAP1 REVERT JUMPDEST DUP2 DUP2 MUL SWAP3 SWAP2 DUP2 ISZERO SWAP2 DUP5 DIV EQ OR ISZERO PUSH2 0x1A0D JUMPI JUMP JUMPDEST ISZERO PUSH2 0x1CBC JUMPI JUMP JUMPDEST PUSH1 0x40 MLOAD PUSH3 0x461BCD PUSH1 0xE5 SHL DUP2 MSTORE PUSH1 0x20 PUSH1 0x4 DUP3 ADD MSTORE PUSH1 0x28 PUSH1 0x24 DUP3 ADD MSTORE PUSH32 0x5661756C744D616E616765723A20696E73756666696369656E7420696E746572 PUSH1 0x44 DUP3 ADD MSTORE PUSH8 0x1858DD081C1BDBDB PUSH1 0xC2 SHL PUSH1 0x64 DUP3 ADD MSTORE PUSH1 0x84 SWAP1 REVERT JUMPDEST ISZERO PUSH2 0x1D19 JUMPI JUMP JUMPDEST PUSH1 0x40 MLOAD PUSH3 0x461BCD PUSH1 0xE5 SHL DUP2 MSTORE PUSH1 0x20 PUSH1 0x4 DUP3 ADD MSTORE PUSH1 0x28 PUSH1 0x24 DUP3 ADD MSTORE PUSH32 0x5661756C744D616E616765723A20696E73756666696369656E7420646F6E6174 PUSH1 0x44 DUP3 ADD MSTORE PUSH8 0x1A5BDB881C1BDBDB PUSH1 0xC2 SHL PUSH1 0x64 DUP3 ADD MSTORE PUSH1 0x84 SWAP1 REVERT JUMPDEST PUSH1 0x0 NOT DUP2 EQ PUSH2 0x1A0D JUMPI PUSH1 0x1 ADD SWAP1 JUMP JUMPDEST SWAP2 SWAP1 DUP2 LT ISZERO PUSH2 0x1D8E JUMPI PUSH1 0x5 SHL ADD SWAP1 JUMP JUMPDEST PUSH4 0x4E487B71 PUSH1 0xE0 SHL PUSH1 0x0 MSTORE PUSH1 0x32 PUSH1 0x4 MSTORE PUSH1 0x24 PUSH1 0x0 REVERT INVALID 0x1F JUMPI SWAP5 0xA9 PUSH27 0x8FD0F5605D102F892A8A78D86771F26E26716D26E376F3F4A3D613 PUSH10 0x6E87880CF63DCA8F080E PUSH27 0x26952044D39AFBD9CB8AB3582BD4B29E6071B29A2646970667358 0x22 SLT KECCAK256 SAR 0xAD DUP16 EXTCODECOPY SWAP6 CALLER MSTORE STOP SWAP3 0xE0 PUSH15 0x729AF347CD313EBF94FAA9ECC53D4C LOG0 DUP2 REVERT PUSH27 0x9CF564736F6C634300081400332F8788117E7EFF1D82E926EC7949 ADD 0xD1 PUSH29 0x78024A50270940304540A733656F0D0000000000000000000000000000 "},"methodIdentifiers":{"DEFAULT_ADMIN_ROLE()":"a217fddf","VAULT_OPERATOR_ROLE()":"bed62365","allocateProfitToSubPools(address,uint256,uint256,uint256)":"c3c8f58c","batchDistributeNodeRewards(address,address[],uint256[])":"234c30d7","collectFee(address,address,uint256,string)":"ec185a07","config()":"79502c55","depositMargin(address,address,uint256)":"564a6c98","depositToDonationPool(address,uint256)":"e1ede08f","depositToInteractPool(address,uint256)":"6208edc9","depositToLPPool(address,uint256)":"4a650a2c","distributeProfits(address,uint256)":"08b8bb4b","donationPoolBalance(address)":"d44f97b8","getProfitPoolBalance(address)":"f6faa649","getRoleAdmin(bytes32)":"248a9ca3","getTotalMarginPool(address)":"ad04570d","getUserMarginBalance(address,address)":"a7a62975","grantOperatorRole(address)":"27ac0c58","grantRole(bytes32,address)":"2f2ff15d","hasRole(bytes32,address)":"91d14854","interactPoolBalance(address)":"1de8ae53","lpPoolBalance(address)":"7af4c51b","marginPoolBalance(address)":"c69c75cd","pause()":"8456cb59","paused()":"5c975abb","profitPoolBalance(address)":"3e0e706e","renounceRole(bytes32,address)":"36568abe","revokeRole(bytes32,address)":"d547741f","setConfig(address)":"20e3dbd4","supportsInterface(bytes4)":"01ffc9a7","transferMargin(address,address,address,uint256,string)":"2ff1d458","transferToFeedProtocol(address,uint256,address)":"77c5b506","unpause()":"3f4ba83a","userMarginBalance(address,address)":"715d5896","withdrawFromDonationPool(address,uint256,address)":"75818bd7","withdrawFromInteractPool(address,uint256,address)":"bdf3e780","withdrawFromLPPool(address,uint256,address)":"31aa128d","withdrawMargin(address,address,uint256)":"d249f54e"}}}}}