{"contracts/core/Config.sol":{"Config":{"abi":[{"inputs":[{"internalType":"address","name":"_admin","type":"address"}],"stateMutability":"nonpayable","type":"constructor"},{"inputs":[],"name":"AccessControlBadConfirmation","type":"error"},{"inputs":[{"internalType":"address","name":"account","type":"address"},{"internalType":"bytes32","name":"neededRole","type":"bytes32"}],"name":"AccessControlUnauthorizedAccount","type":"error"},{"inputs":[],"name":"EnforcedPause","type":"error"},{"inputs":[],"name":"ExpectedPause","type":"error"},{"anonymous":false,"inputs":[{"indexed":true,"internalType":"string","name":"paramName","type":"string"},{"indexed":false,"internalType":"address","name":"oldAddress","type":"address"},{"indexed":false,"internalType":"address","name":"newAddress","type":"address"},{"indexed":false,"internalType":"uint256","name":"timestamp","type":"uint256"}],"name":"AddressUpdated","type":"event"},{"anonymous":false,"inputs":[{"indexed":true,"internalType":"string","name":"paramName","type":"string"},{"indexed":false,"internalType":"uint256","name":"oldValue","type":"uint256"},{"indexed":false,"internalType":"uint256","name":"newValue","type":"uint256"},{"indexed":false,"internalType":"uint256","name":"timestamp","type":"uint256"}],"name":"ParameterUpdated","type":"event"},{"anonymous":false,"inputs":[{"indexed":false,"internalType":"address","name":"account","type":"address"}],"name":"Paused","type":"event"},{"anonymous":false,"inputs":[{"indexed":true,"internalType":"bytes32","name":"role","type":"bytes32"},{"indexed":true,"internalType":"bytes32","name":"previousAdminRole","type":"bytes32"},{"indexed":true,"internalType":"bytes32","name":"newAdminRole","type":"bytes32"}],"name":"RoleAdminChanged","type":"event"},{"anonymous":false,"inputs":[{"indexed":true,"internalType":"bytes32","name":"role","type":"bytes32"},{"indexed":true,"internalType":"address","name":"account","type":"address"},{"indexed":true,"internalType":"address","name":"sender","type":"address"}],"name":"RoleGranted","type":"event"},{"anonymous":false,"inputs":[{"indexed":true,"internalType":"bytes32","name":"role","type":"bytes32"},{"indexed":true,"internalType":"address","name":"account","type":"address"},{"indexed":true,"internalType":"address","name":"sender","type":"address"}],"name":"RoleRevoked","type":"event"},{"anonymous":false,"inputs":[{"indexed":false,"internalType":"address","name":"account","type":"address"}],"name":"Unpaused","type":"event"},{"inputs":[],"name":"DAO_ROLE","outputs":[{"internalType":"bytes32","name":"","type":"bytes32"}],"stateMutability":"view","type":"function"},{"inputs":[],"name":"DEFAULT_ADMIN_ROLE","outputs":[{"internalType":"bytes32","name":"","type":"bytes32"}],"stateMutability":"view","type":"function"},{"inputs":[],"name":"GUARDIAN_ROLE","outputs":[{"internalType":"bytes32","name":"","type":"bytes32"}],"stateMutability":"view","type":"function"},{"inputs":[],"name":"OPERATOR_ROLE","outputs":[{"internalType":"bytes32","name":"","type":"bytes32"}],"stateMutability":"view","type":"function"},{"inputs":[],"name":"arbitrationFee","outputs":[{"internalType":"uint256","name":"","type":"uint256"}],"stateMutability":"view","type":"function"},{"inputs":[],"name":"closingFeedDeadline","outputs":[{"internalType":"uint256","name":"","type":"uint256"}],"stateMutability":"view","type":"function"},{"inputs":[],"name":"closingFeedPenaltyRate","outputs":[{"internalType":"uint256","name":"","type":"uint256"}],"stateMutability":"view","type":"function"},{"inputs":[],"name":"creationFee","outputs":[{"internalType":"uint256","name":"","type":"uint256"}],"stateMutability":"view","type":"function"},{"inputs":[],"name":"cryptoMarginCallDeadline","outputs":[{"internalType":"uint256","name":"","type":"uint256"}],"stateMutability":"view","type":"function"},{"inputs":[],"name":"daoShare","outputs":[{"internalType":"uint256","name":"","type":"uint256"}],"stateMutability":"view","type":"function"},{"inputs":[],"name":"defaultArbitrationWindow","outputs":[{"internalType":"uint256","name":"","type":"uint256"}],"stateMutability":"view","type":"function"},{"inputs":[],"name":"defaultDailyLimitPercent","outputs":[{"internalType":"uint256","name":"","type":"uint256"}],"stateMutability":"view","type":"function"},{"inputs":[],"name":"defaultMarginCallDeadline","outputs":[{"internalType":"uint256","name":"","type":"uint256"}],"stateMutability":"view","type":"function"},{"inputs":[],"name":"feedFee_10_7","outputs":[{"internalType":"uint256","name":"","type":"uint256"}],"stateMutability":"view","type":"function"},{"inputs":[],"name":"feedFee_5_3","outputs":[{"internalType":"uint256","name":"","type":"uint256"}],"stateMutability":"view","type":"function"},{"inputs":[],"name":"feedFee_7_5","outputs":[{"internalType":"uint256","name":"","type":"uint256"}],"stateMutability":"view","type":"function"},{"inputs":[],"name":"feedFeederShare","outputs":[{"internalType":"uint256","name":"","type":"uint256"}],"stateMutability":"view","type":"function"},{"inputs":[],"name":"feedPlatformShare","outputs":[{"internalType":"uint256","name":"","type":"uint256"}],"stateMutability":"view","type":"function"},{"inputs":[],"name":"feedProtocolAddress","outputs":[{"internalType":"address","name":"","type":"address"}],"stateMutability":"view","type":"function"},{"inputs":[],"name":"foundationShare","outputs":[{"internalType":"uint256","name":"","type":"uint256"}],"stateMutability":"view","type":"function"},{"inputs":[{"internalType":"bool","name":"isSettlement","type":"bool"}],"name":"getArbitrationWindow","outputs":[{"internalType":"uint256","name":"","type":"uint256"}],"stateMutability":"view","type":"function"},{"inputs":[{"internalType":"uint256","name":"originalFee","type":"uint256"}],"name":"getDiscountedFee","outputs":[{"internalType":"uint256","name":"","type":"uint256"}],"stateMutability":"view","type":"function"},{"inputs":[{"internalType":"uint8","name":"tier","type":"uint8"}],"name":"getFeedFee","outputs":[{"internalType":"uint256","name":"","type":"uint256"}],"stateMutability":"view","type":"function"},{"inputs":[{"internalType":"bool","name":"isCrypto","type":"bool"}],"name":"getMarginCallDeadline","outputs":[{"internalType":"uint256","name":"","type":"uint256"}],"stateMutability":"view","type":"function"},{"inputs":[{"internalType":"bytes32","name":"role","type":"bytes32"}],"name":"getRoleAdmin","outputs":[{"internalType":"bytes32","name":"","type":"bytes32"}],"stateMutability":"view","type":"function"},{"inputs":[{"internalType":"bytes32","name":"role","type":"bytes32"},{"internalType":"address","name":"account","type":"address"}],"name":"grantRole","outputs":[],"stateMutability":"nonpayable","type":"function"},{"inputs":[],"name":"growthNodeShare","outputs":[{"internalType":"uint256","name":"","type":"uint256"}],"stateMutability":"view","type":"function"},{"inputs":[{"internalType":"bytes32","name":"role","type":"bytes32"},{"internalType":"address","name":"account","type":"address"}],"name":"hasRole","outputs":[{"internalType":"bool","name":"","type":"bool"}],"stateMutability":"view","type":"function"},{"inputs":[],"name":"initialFeedDeadline","outputs":[{"internalType":"uint256","name":"","type":"uint256"}],"stateMutability":"view","type":"function"},{"inputs":[],"name":"initialFeedPenaltyRate","outputs":[{"internalType":"uint256","name":"","type":"uint256"}],"stateMutability":"view","type":"function"},{"inputs":[],"name":"lpPoolShare","outputs":[{"internalType":"uint256","name":"","type":"uint256"}],"stateMutability":"view","type":"function"},{"inputs":[],"name":"maxConsecutiveDays","outputs":[{"internalType":"uint256","name":"","type":"uint256"}],"stateMutability":"view","type":"function"},{"inputs":[],"name":"maxExerciseDelay","outputs":[{"internalType":"uint256","name":"","type":"uint256"}],"stateMutability":"view","type":"function"},{"inputs":[],"name":"maxQuotesPerBuyerOrder","outputs":[{"internalType":"uint256","name":"","type":"uint256"}],"stateMutability":"view","type":"function"},{"inputs":[],"name":"maxQuotesPerSellerOrder","outputs":[{"internalType":"uint256","name":"","type":"uint256"}],"stateMutability":"view","type":"function"},{"inputs":[],"name":"minExerciseDelay","outputs":[{"internalType":"uint256","name":"","type":"uint256"}],"stateMutability":"view","type":"function"},{"inputs":[],"name":"minFeederStake","outputs":[{"internalType":"uint256","name":"","type":"uint256"}],"stateMutability":"view","type":"function"},{"inputs":[],"name":"minMarginRate","outputs":[{"internalType":"uint256","name":"","type":"uint256"}],"stateMutability":"view","type":"function"},{"inputs":[],"name":"nodeRewardShare","outputs":[{"internalType":"uint256","name":"","type":"uint256"}],"stateMutability":"view","type":"function"},{"inputs":[],"name":"nstDiscount","outputs":[{"internalType":"uint256","name":"","type":"uint256"}],"stateMutability":"view","type":"function"},{"inputs":[],"name":"nstDiscountEnabled","outputs":[{"internalType":"bool","name":"","type":"bool"}],"stateMutability":"view","type":"function"},{"inputs":[],"name":"nstDiscountRate","outputs":[{"internalType":"uint256","name":"","type":"uint256"}],"stateMutability":"view","type":"function"},{"inputs":[],"name":"nstTokenAddress","outputs":[{"internalType":"address","name":"","type":"address"}],"stateMutability":"view","type":"function"},{"inputs":[],"name":"optionsCoreAddress","outputs":[{"internalType":"address","name":"","type":"address"}],"stateMutability":"view","type":"function"},{"inputs":[],"name":"pause","outputs":[],"stateMutability":"nonpayable","type":"function"},{"inputs":[],"name":"paused","outputs":[{"internalType":"bool","name":"","type":"bool"}],"stateMutability":"view","type":"function"},{"inputs":[],"name":"pointsManagerAddress","outputs":[{"internalType":"address","name":"","type":"address"}],"stateMutability":"view","type":"function"},{"inputs":[],"name":"pointsMultiplier","outputs":[{"internalType":"uint256","name":"","type":"uint256"}],"stateMutability":"view","type":"function"},{"inputs":[],"name":"quoteValidityPeriod","outputs":[{"internalType":"uint256","name":"","type":"uint256"}],"stateMutability":"view","type":"function"},{"inputs":[{"internalType":"bytes32","name":"role","type":"bytes32"},{"internalType":"address","name":"callerConfirmation","type":"address"}],"name":"renounceRole","outputs":[],"stateMutability":"nonpayable","type":"function"},{"inputs":[{"internalType":"bytes32","name":"role","type":"bytes32"},{"internalType":"address","name":"account","type":"address"}],"name":"revokeRole","outputs":[],"stateMutability":"nonpayable","type":"function"},{"inputs":[],"name":"rfqValidityPeriod","outputs":[{"internalType":"uint256","name":"","type":"uint256"}],"stateMutability":"view","type":"function"},{"inputs":[],"name":"seatManagerAddress","outputs":[{"internalType":"address","name":"","type":"address"}],"stateMutability":"view","type":"function"},{"inputs":[],"name":"seatSellerInitialMargin","outputs":[{"internalType":"uint256","name":"","type":"uint256"}],"stateMutability":"view","type":"function"},{"inputs":[{"internalType":"uint256","name":"_value","type":"uint256"}],"name":"setArbitrationFee","outputs":[],"stateMutability":"nonpayable","type":"function"},{"inputs":[{"internalType":"uint256","name":"_value","type":"uint256"}],"name":"setCreationFee","outputs":[],"stateMutability":"nonpayable","type":"function"},{"inputs":[{"internalType":"address","name":"_address","type":"address"}],"name":"setFeedProtocolAddress","outputs":[],"stateMutability":"nonpayable","type":"function"},{"inputs":[{"internalType":"uint256","name":"_value","type":"uint256"}],"name":"setMinFeederStake","outputs":[],"stateMutability":"nonpayable","type":"function"},{"inputs":[{"internalType":"uint256","name":"_value","type":"uint256"}],"name":"setMinMarginRate","outputs":[],"stateMutability":"nonpayable","type":"function"},{"inputs":[{"internalType":"bool","name":"_enabled","type":"bool"}],"name":"setNstDiscountEnabled","outputs":[],"stateMutability":"nonpayable","type":"function"},{"inputs":[{"internalType":"uint256","name":"_rate","type":"uint256"}],"name":"setNstDiscountRate","outputs":[],"stateMutability":"nonpayable","type":"function"},{"inputs":[{"internalType":"address","name":"_address","type":"address"}],"name":"setOptionsCoreAddress","outputs":[],"stateMutability":"nonpayable","type":"function"},{"inputs":[{"internalType":"address","name":"_address","type":"address"}],"name":"setPointsManagerAddress","outputs":[],"stateMutability":"nonpayable","type":"function"},{"inputs":[{"internalType":"uint256","name":"_value","type":"uint256"}],"name":"setQuoteValidityPeriod","outputs":[],"stateMutability":"nonpayable","type":"function"},{"inputs":[{"internalType":"uint256","name":"_value","type":"uint256"}],"name":"setRfqValidityPeriod","outputs":[],"stateMutability":"nonpayable","type":"function"},{"inputs":[{"internalType":"address","name":"_address","type":"address"}],"name":"setSeatManagerAddress","outputs":[],"stateMutability":"nonpayable","type":"function"},{"inputs":[{"internalType":"uint256","name":"_value","type":"uint256"}],"name":"setTradingFeeRate","outputs":[],"stateMutability":"nonpayable","type":"function"},{"inputs":[{"internalType":"address","name":"_address","type":"address"}],"name":"setUsdtAddress","outputs":[],"stateMutability":"nonpayable","type":"function"},{"inputs":[{"internalType":"address","name":"_address","type":"address"}],"name":"setVaultManagerAddress","outputs":[],"stateMutability":"nonpayable","type":"function"},{"inputs":[],"name":"settlementArbitrationWindow","outputs":[{"internalType":"uint256","name":"","type":"uint256"}],"stateMutability":"view","type":"function"},{"inputs":[{"internalType":"bytes4","name":"interfaceId","type":"bytes4"}],"name":"supportsInterface","outputs":[{"internalType":"bool","name":"","type":"bool"}],"stateMutability":"view","type":"function"},{"inputs":[],"name":"teamFundShare","outputs":[{"internalType":"uint256","name":"","type":"uint256"}],"stateMutability":"view","type":"function"},{"inputs":[],"name":"tokenBuybackShare","outputs":[{"internalType":"uint256","name":"","type":"uint256"}],"stateMutability":"view","type":"function"},{"inputs":[],"name":"tradingFeeRate","outputs":[{"internalType":"uint256","name":"","type":"uint256"}],"stateMutability":"view","type":"function"},{"inputs":[],"name":"unpause","outputs":[],"stateMutability":"nonpayable","type":"function"},{"inputs":[],"name":"usdcAddress","outputs":[{"internalType":"address","name":"","type":"address"}],"stateMutability":"view","type":"function"},{"inputs":[],"name":"usdtAddress","outputs":[{"internalType":"address","name":"","type":"address"}],"stateMutability":"view","type":"function"},{"inputs":[],"name":"vaultManagerAddress","outputs":[{"internalType":"address","name":"","type":"address"}],"stateMutability":"view","type":"function"}],"evm":{"bytecode":{"linkReferences":{},"object":"6080346200018957601f6200201438819003918201601f19168301916001600160401b038311848410176200018e578084926020946040528339810103126200018957516001600160a01b038116810362000189576200017890611c20806002556107086003556102588060045560055561a8c0908160065560075562015180600855600955670de0b6b3a7640000600a55600a600b556801a055690d9db80000600c556050600d556729a2241af62c0000600e55674563918244f40000600f55676f05b59d3b200000601055600a601155605a6012556103e880601355600060145568056bc75e2d6310000060155560056016556001601755600a601855601e6019556001601a556005601b556064601c556101f480601d5580601e55601f558060205580602155610bb86022556109c460235580602455602555611f40602655600160ff1960275416176027556200015981620001a4565b50620001658162000224565b506200017181620002c6565b5062000363565b50604051611bf39081620004018239f35b600080fd5b634e487b7160e01b600052604160045260246000fd5b6001600160a01b031660008181527fad3228b676f7d3cd4284a5443f17f1962b36e491b30a40b2405849e597ba5fb5602052604081205490919060ff166200022057818052816020526040822081835260205260408220600160ff19825416179055339160008051602062001ff48339815191528180a4600190565b5090565b6001600160a01b031660008181527fc39f11a9300b508470eaed31f5842ba08c93181bcbe6a7fe34039aa7f2b8074260205260408120549091907f3b5d4cc60d3ec3516ee8ae083bd60934f6eb2a6c54b1229985c41bfb092b26039060ff16620002c157808352826020526040832082845260205260408320600160ff1982541617905560008051602062001ff4833981519152339380a4600190565b505090565b6001600160a01b031660008181527fee57cd81e84075558e8fcc182a1f4393f91fc97f963a136e66b7f949a62f319f60205260408120549091907f97667070c54ef182b0f5858b034beac1b6f3089aa2d3188bb1e8929f4fa9b9299060ff16620002c157808352826020526040832082845260205260408320600160ff1982541617905560008051602062001ff4833981519152339380a4600190565b6001600160a01b031660008181527f8a40f0b47fdc2a0ce293b772acfc7508c8315a4d462786c1adc3a56f92ca2d0560205260408120549091907f55435dd261a4b9b3364963f7738a7a662ad9c84396d64be3365284bb7f0a50419060ff16620002c157808352826020526040832082845260205260408320600160ff1982541617905560008051602062001ff4833981519152339380a460019056fe608060408181526004918236101561001657600080fd5b600092833560e01c91826301ffc9a7146118a55750816302d454571461187c5781630cb46b75146117a25781630d42bada146117835781630d8bb8ac1461175a5781631091f67c146116af578163134f664614611605578163141b950b146115e657816316b263c5146115c75781631a5632b9146115a85781631b30900b146115895781631bdd9bc6146115505781631cfa7ba814611531578163222b9c431461151257816323068ac614611441578163248a9ca31461141757816324ea54f4146113dc5781632bec66e5146113bd5781632f2ff15d146113935781632f832f341461137457816336568abe1461132e57816339c02ea41461125c5781633d8b8cb2146112335781633f4ba83a146111a457816341e5ce8e1461117b57816342df038c1461115257816343b827ed146110a457816348e23ea8146110855781634e57e10214610fb45781634f6bfad714610f95578163520d682114610f6c578163570c2a1e14610e9c57816359c9c8c914610e7d5781635c975abb14610e595781635d8eb68714610e3a5781635ea7b4fc14610d8f5781635f9aeb0614610d7057816362f5ad6314610d515781636e56a57c14610cf457816370504cf414610be857816378dd8b0a14610bca5781637d790ae114610ba65781638456cb5914610ac457816386cdb33d14610aa557816388d19f1b14610a865781638f973f8514610a6757816390ee6d0a1461099757816391d14854146109515781639ab4a44514610924578163a217fddf14610909578163a414e044146108ea578163a6bfbe23146108cb578163a98a92fa146108ac578163ab1df29c14610872578163b028fb7614610853578163b661f73314610833578163b7d862251461078b578163c766d9861461076c578163c7d7c5fd1461074e578163cb10ed011461072f578163cb3c7b2d14610710578163cd96255e146106f1578163d547741f146106b2578163dce0b4e414610693578163dfb0253614610674578163e01df1a814610655578163e569599114610620578163e6481bd814610575578163e855dd39146104c057508063e883082f146104a2578063e9c265181461047a578063eda999941461045c578063f1c511c414610434578063f1d814b914610416578063f2588aa9146103f8578063f5a0c480146103da578063f5b541a6146103a05763f72084b21461037f57600080fd5b3461039c578160031936011261039c576020906023549051908152f35b5080fd5b503461039c578160031936011261039c57602090517f97667070c54ef182b0f5858b034beac1b6f3089aa2d3188bb1e8929f4fa9b9298152f35b503461039c578160031936011261039c576020906021549051908152f35b503461039c578160031936011261039c576020906025549051908152f35b503461039c578160031936011261039c57602090601b549051908152f35b503461039c578160031936011261039c57602d5490516001600160a01b039091168152602090f35b503461039c578160031936011261039c576020906019549051908152f35b503461039c578160031936011261039c5760209051600080516020611b5e8339815191528152f35b503461039c578160031936011261039c57602090600e549051908152f35b905034610571576020366003190112610571577e325ebf42911c71e499fcfc973b9d3364c11163a47f1d7973e6a9c7ceee803391600080516020611b7e8339815191529135600080516020611b5e83398151915285528460205281852033865260205261053260ff8387205416611a60565b60038054908290558251721c5d5bdd1955985b1a591a5d1e54195c9a5bd9606a1b90529151918252602082015242604082015280606081015b0390a280f35b8280fd5b905034610571576020366003190112610571577fd1bcd18407225dd52030929dc97a636d415fcebbeeec3c99d3282e35e1586ce091600080516020611b7e8339815191529135600080516020611b5e8339815191528552846020528185203386526020526105e860ff8387205416611a60565b601580549082905582516d6d696e4665656465725374616b6560901b905291519182526020820152426040820152806060810161056b565b90503461057157602036600319011261057157359160ff83168303610652575061064b602092611aac565b9051908152f35b80fd5b50503461039c578160031936011261039c57602090600b549051908152f35b50503461039c578160031936011261039c576020906005549051908152f35b50503461039c578160031936011261039c57602090600a549051908152f35b919050346105715780600319360112610571576106ed91356106e860016106d7611913565b938387528660205286200154611929565b6119eb565b5080f35b50503461039c578160031936011261039c576020906012549051908152f35b50503461039c578160031936011261039c576020906014549051908152f35b50503461039c578160031936011261039c576020906026549051908152f35b90503461057157826003193601126105715760209250549051908152f35b50503461039c578160031936011261039c576020906015549051908152f35b905034610571576020366003190112610571577f0c335b9e9554f592d8b6d57af0b04b86771fb9e44d65f35c141f01a6de646a1791600080516020611b7e8339815191529135600080516020611b5e8339815191528552846020528185203386526020526107fe60ff8387205416611a60565b600a80549082905582516a6372656174696f6e46656560a81b905291519182526020820152426040820152806060810161056b565b828434610652576020366003190112610652575061064b60209235611b1d565b50503461039c578160031936011261039c576020906006549051908152f35b905034610571576020366003190112610571573580151581036105715760209250156108a357600854905b51908152f35b6009549061089d565b50503461039c578160031936011261039c576020906009549051908152f35b50503461039c578160031936011261039c57602090601a549051908152f35b50503461039c578160031936011261039c576020906018549051908152f35b50503461039c578160031936011261039c5751908152602090f35b50503461039c578160031936011261039c57602754905160089190911c6001600160a01b03168152602090f35b9050346105715781600319360112610571578160209360ff92610972611913565b903582528186528282206001600160a01b039091168252855220549151911615158152f35b50503461039c57602036600319011261039c57600080516020611b9e8339815191527f4a4e69de8ded7dceaef818da27e4654e0073cb97b5e6455c1813e441d801a401916109e36118f8565b90600080516020611b5e833981519152855284602052808520338652602052610a1160ff8287205416611a60565b602b80546001600160a01b039384166001600160a01b0319821681179092558251716f7074696f6e73436f72654164647265737360701b905291519290911682526020820152426040820152806060810161056b565b50503461039c578160031936011261039c576020906022549051908152f35b50503461039c578160031936011261039c576020906024549051908152f35b50503461039c578160031936011261039c57602090601c549051908152f35b9050346105715782600319360112610571577f55435dd261a4b9b3364963f7738a7a662ad9c84396d64be3365284bb7f0a504183528260205281832033845260205260ff828420541615610b64576001549060ff8216610b5657507f62e78cea01bee320cd4e420270b5ea74000d11b0c9f74754ebdbfc544b05a25891600160209260ff19161760015551338152a180f35b825163d93c066560e01b8152fd5b6020606492519162461bcd60e51b8352820152601e60248201527f436f6e6669673a2063616c6c6572206973206e6f7420477561726469616e00006044820152fd5b50503461039c578160031936011261039c5760209060ff6027541690519015158152f35b50503461039c578160031936011261039c5760209081549051908152f35b90503461057157602036600319011261057157803590600080516020611b5e833981519152845283602052828420338552602052610c2b60ff8486205416611a60565b81151580610ce8575b15610ca55750602680549082905582516e6e7374446973636f756e745261746560881b9052915191825260208201524260408201527fd72563e6a766528d1e46cb027cd6cd130ab52088bb3a1d0bb23d8612d8ccc43790600080516020611b7e83398151915290806060810161056b565b606490602084519162461bcd60e51b8352820152601d60248201527f436f6e6669673a20696e76616c696420646973636f756e7420726174650000006044820152fd5b50612710821115610c34565b9050346105715760203660031901126105715735908115158092036105715760ff610d4091600080516020611b5e83398151915285528460205280852033865260205284205416611a60565b60ff80196027541691161760275580f35b50503461039c578160031936011261039c57602090601f549051908152f35b50503461039c578160031936011261039c57602090600f549051908152f35b905034610571576020366003190112610571577f6cee20960e3ed91ce76465a2d59c093a6d1e12009c4f67d22f9f8a6e5c31f58991600080516020611b7e8339815191529135600080516020611b5e833981519152855284602052818520338652602052610e0260ff8387205416611a60565b600c80549082905582516d6172626974726174696f6e46656560901b905291519182526020820152426040820152806060810161056b565b50503461039c578160031936011261039c576020906013549051908152f35b50503461039c578160031936011261039c5760209060ff6001541690519015158152f35b50503461039c578160031936011261039c576020906007549051908152f35b50503461039c57602036600319011261039c57600080516020611b9e8339815191527f5e28eb369d7fdbb5dfbb05d4358500df3bf5f778c9f2c859b1d7277f5ae4ce3f91610ee86118f8565b90600080516020611b5e833981519152855284602052808520338652602052610f1660ff8287205416611a60565b602d80546001600160a01b039384166001600160a01b031982168117909255825171736561744d616e616765724164647265737360701b905291519290911682526020820152426040820152806060810161056b565b50503461039c578160031936011261039c57602c5490516001600160a01b039091168152602090f35b50503461039c578160031936011261039c576020906002549051908152f35b50503461039c57602036600319011261039c57600080516020611b9e8339815191527f2f73b590faaddb044f9851ed70b38c69e7cc0d4659bf1fe1082b600d997c18de916110006118f8565b90600080516020611b5e83398151915285528460205280852033865260205261102e60ff8287205416611a60565b602c80546001600160a01b039384166001600160a01b0319821681179092558251726665656450726f746f636f6c4164647265737360681b905291519290911682526020820152426040820152806060810161056b565b50503461039c578160031936011261039c576020906008549051908152f35b905034610571576020366003190112610571577f0b1f207596326c2fb1fab96833daf041824dc88fa6fbdb5c843b022ef967bdb491600080516020611b7e8339815191529135600080516020611b5e83398151915285528460205281852033865260205261111760ff8387205416611a60565b60028054908290558251701c999c55985b1a591a5d1e54195c9a5bd9607a1b905291519182526020820152426040820152806060810161056b565b50503461039c578160031936011261039c5760295490516001600160a01b039091168152602090f35b50503461039c578160031936011261039c57602b5490516001600160a01b039091168152602090f35b905034610571578260031936011261057157600080516020611b5e8339815191528352826020528183203384526020526111e360ff8385205416611a60565b6001549060ff821615611225575060ff1916600155513381527f5db9ee0a495bf2e6ff9c91a7834c1ba4fdd244a5e8aa4e537bd38aeae4b073aa90602090a180f35b8251638dfc202b60e01b8152fd5b50503461039c578160031936011261039c57602a5490516001600160a01b039091168152602090f35b50503461039c57602036600319011261039c57600080516020611b9e8339815191527f2e9d3aa19d9dbd777c6be6342075ac61ef674d8b86d37b75ea0cb8d1a845c51b916112a86118f8565b90600080516020611b5e8339815191528552846020528085203386526020526112d660ff8287205416611a60565b602e80546001600160a01b039384166001600160a01b031982168117909255825173706f696e74734d616e616765724164647265737360601b905291519290911682526020820152426040820152806060810161056b565b83833461039c578060031936011261039c57611348611913565b90336001600160a01b0383160361136557506106ed9192356119eb565b5163334bd91960e11b81528390fd5b50503461039c578160031936011261039c576020906016549051908152f35b919050346105715780600319360112610571576106ed91356113b860016106d7611913565b61196d565b50503461039c578160031936011261039c57602090601d549051908152f35b50503461039c578160031936011261039c57602090517f55435dd261a4b9b3364963f7738a7a662ad9c84396d64be3365284bb7f0a50418152f35b90503461057157602036600319011261057157816020936001923581528085522001549051908152f35b50503461039c57602036600319011261039c57600080516020611b9e8339815191527f2fe00a4b9b1823087c1aaa9e681d82d7f691aa0160a8bec45c8e55052e1435349161148d6118f8565b90600080516020611b5e8339815191528552846020528085203386526020526114bb60ff8287205416611a60565b602a80546001600160a01b039384166001600160a01b0319821681179092558251727661756c744d616e616765724164647265737360681b905291519290911682526020820152426040820152806060810161056b565b50503461039c578160031936011261039c576020906017549051908152f35b50503461039c578160031936011261039c57602090600c549051908152f35b90503461057157602036600319011261057157358015158103610571576020925015611580576007549051908152f35b6006549061089d565b50503461039c578160031936011261039c576020906010549051908152f35b50503461039c578160031936011261039c576020906011549051908152f35b50503461039c578160031936011261039c57602090600d549051908152f35b50503461039c578160031936011261039c57602090601e549051908152f35b905034610571576020366003190112610571577f51dc7ee582b9d271f3fa6b99b06c522078b096083834a63261b707b00a031a5991600080516020611b7e8339815191529135600080516020611b5e83398151915285528460205281852033865260205261167860ff8387205416611a60565b601380549082905582516c6d696e4d617267696e5261746560981b905291519182526020820152426040820152806060810161056b565b905034610571576020366003190112610571577f9e93ad54b8ace41ad65a3af48be0b970e216ad15d3a3f4c4132aa4bebd04ff0a91600080516020611b7e8339815191529135600080516020611b5e83398151915285528460205281852033865260205261172260ff8387205416611a60565b600b80549082905582516d74726164696e674665655261746560901b905291519182526020820152426040820152806060810161056b565b50503461039c578160031936011261039c57602e5490516001600160a01b039091168152602090f35b50503461039c578160031936011261039c576020906003549051908152f35b50503461039c57602036600319011261039c57600080516020611b9e8339815191527fa63d2db62c0400ac404bb484526070e593b5b38753f8211077a0b30be6604b39916117ee6118f8565b600080516020611b5e83398151915285528460205281852033865260205261181b60ff8387205416611a60565b60278054610100600160a81b03198116600884811b610100600160a81b03169190911790925583516a757364744164647265737360a81b9052925192901c6001600160a01b039081168352166020820152426040820152806060810161056b565b50503461039c578160031936011261039c5760285490516001600160a01b039091168152602090f35b849134610571576020366003190112610571573563ffffffff60e01b81168091036105715760209250637965db0b60e01b81149081156118e7575b5015158152f35b6301ffc9a760e01b149050836118e0565b600435906001600160a01b038216820361190e57565b600080fd5b602435906001600160a01b038216820361190e57565b80600052600060205260406000203360005260205260ff604060002054161561194f5750565b6044906040519063e2517d3f60e01b82523360048301526024820152fd5b9060009180835282602052604083209160018060a01b03169182845260205260ff604084205416156000146119e657808352826020526040832082845260205260408320600160ff198254161790557f2f8788117e7eff1d82e926ec794901d17c78024a50270940304540a733656f0d339380a4600190565b505090565b9060009180835282602052604083209160018060a01b03169182845260205260ff6040842054166000146119e65780835282602052604083208284526020526040832060ff1981541690557ff6391f5c32d9c69d2a47ea670b442974b53935d1edc7fd64eb21e047a839171b339380a4600190565b15611a6757565b60405162461bcd60e51b815260206004820152601960248201527f436f6e6669673a2063616c6c6572206973206e6f742044414f000000000000006044820152606490fd5b60ff168015611b165760018114611b0f57600214611b095760405162461bcd60e51b815260206004820152601960248201527f436f6e6669673a20696e76616c696420666565642074696572000000000000006044820152606490fd5b60105490565b50600f5490565b50600e5490565b60ff6027541615611b5a5760265490818102918183041490151715611b4457612710900490565b634e487b7160e01b600052601160045260246000fd5b9056fe3b5d4cc60d3ec3516ee8ae083bd60934f6eb2a6c54b1229985c41bfb092b260383ba59f61577249be5e1d5d48f41b4be728e3ddb0c1b04c988d7ce5205ebb8ec0b61bf3cf34b0f6c79c91c69ed943edc5b0ddf8bbeb6b3c98ceb3ece18a6e189a26469706673582212200929f11f179f14afb0f650604615dad80a951d44b750658e20b6992cd66d70ae64736f6c634300081400332f8788117e7eff1d82e926ec794901d17c78024a50270940304540a733656f0d","opcodes":"PUSH1 0x80 CALLVALUE PUSH3 0x189 JUMPI PUSH1 0x1F PUSH3 0x2014 CODESIZE DUP2 SWAP1 SUB SWAP2 DUP3 ADD PUSH1 0x1F NOT AND DUP4 ADD SWAP2 PUSH1 0x1 PUSH1 0x1 PUSH1 0x40 SHL SUB DUP4 GT DUP5 DUP5 LT OR PUSH3 0x18E JUMPI DUP1 DUP5 SWAP3 PUSH1 0x20 SWAP5 PUSH1 0x40 MSTORE DUP4 CODECOPY DUP2 ADD SUB SLT PUSH3 0x189 JUMPI MLOAD PUSH1 0x1 PUSH1 0x1 PUSH1 0xA0 SHL SUB DUP2 AND DUP2 SUB PUSH3 0x189 JUMPI PUSH3 0x178 SWAP1 PUSH2 0x1C20 DUP1 PUSH1 0x2 SSTORE PUSH2 0x708 PUSH1 0x3 SSTORE PUSH2 0x258 DUP1 PUSH1 0x4 SSTORE PUSH1 0x5 SSTORE PUSH2 0xA8C0 SWAP1 DUP2 PUSH1 0x6 SSTORE PUSH1 0x7 SSTORE PUSH3 0x15180 PUSH1 0x8 SSTORE PUSH1 0x9 SSTORE PUSH8 0xDE0B6B3A7640000 PUSH1 0xA SSTORE PUSH1 0xA PUSH1 0xB SSTORE PUSH9 0x1A055690D9DB80000 PUSH1 0xC SSTORE PUSH1 0x50 PUSH1 0xD SSTORE PUSH8 0x29A2241AF62C0000 PUSH1 0xE SSTORE PUSH8 0x4563918244F40000 PUSH1 0xF SSTORE PUSH8 0x6F05B59D3B200000 PUSH1 0x10 SSTORE PUSH1 0xA PUSH1 0x11 SSTORE PUSH1 0x5A PUSH1 0x12 SSTORE PUSH2 0x3E8 DUP1 PUSH1 0x13 SSTORE PUSH1 0x0 PUSH1 0x14 SSTORE PUSH9 0x56BC75E2D63100000 PUSH1 0x15 SSTORE PUSH1 0x5 PUSH1 0x16 SSTORE PUSH1 0x1 PUSH1 0x17 SSTORE PUSH1 0xA PUSH1 0x18 SSTORE PUSH1 0x1E PUSH1 0x19 SSTORE PUSH1 0x1 PUSH1 0x1A SSTORE PUSH1 0x5 PUSH1 0x1B SSTORE PUSH1 0x64 PUSH1 0x1C SSTORE PUSH2 0x1F4 DUP1 PUSH1 0x1D SSTORE DUP1 PUSH1 0x1E SSTORE PUSH1 0x1F SSTORE DUP1 PUSH1 0x20 SSTORE DUP1 PUSH1 0x21 SSTORE PUSH2 0xBB8 PUSH1 0x22 SSTORE PUSH2 0x9C4 PUSH1 0x23 SSTORE DUP1 PUSH1 0x24 SSTORE PUSH1 0x25 SSTORE PUSH2 0x1F40 PUSH1 0x26 SSTORE PUSH1 0x1 PUSH1 0xFF NOT PUSH1 0x27 SLOAD AND OR PUSH1 0x27 SSTORE PUSH3 0x159 DUP2 PUSH3 0x1A4 JUMP JUMPDEST POP PUSH3 0x165 DUP2 PUSH3 0x224 JUMP JUMPDEST POP PUSH3 0x171 DUP2 PUSH3 0x2C6 JUMP JUMPDEST POP PUSH3 0x363 JUMP JUMPDEST POP PUSH1 0x40 MLOAD PUSH2 0x1BF3 SWAP1 DUP2 PUSH3 0x401 DUP3 CODECOPY RETURN JUMPDEST PUSH1 0x0 DUP1 REVERT JUMPDEST PUSH4 0x4E487B71 PUSH1 0xE0 SHL PUSH1 0x0 MSTORE PUSH1 0x41 PUSH1 0x4 MSTORE PUSH1 0x24 PUSH1 0x0 REVERT JUMPDEST PUSH1 0x1 PUSH1 0x1 PUSH1 0xA0 SHL SUB AND PUSH1 0x0 DUP2 DUP2 MSTORE PUSH32 0xAD3228B676F7D3CD4284A5443F17F1962B36E491B30A40B2405849E597BA5FB5 PUSH1 0x20 MSTORE PUSH1 0x40 DUP2 KECCAK256 SLOAD SWAP1 SWAP2 SWAP1 PUSH1 0xFF AND PUSH3 0x220 JUMPI DUP2 DUP1 MSTORE DUP2 PUSH1 0x20 MSTORE PUSH1 0x40 DUP3 KECCAK256 DUP2 DUP4 MSTORE PUSH1 0x20 MSTORE PUSH1 0x40 DUP3 KECCAK256 PUSH1 0x1 PUSH1 0xFF NOT DUP3 SLOAD AND OR SWAP1 SSTORE CALLER SWAP2 PUSH1 0x0 DUP1 MLOAD PUSH1 0x20 PUSH3 0x1FF4 DUP4 CODECOPY DUP2 MLOAD SWAP2 MSTORE DUP2 DUP1 LOG4 PUSH1 0x1 SWAP1 JUMP JUMPDEST POP SWAP1 JUMP JUMPDEST PUSH1 0x1 PUSH1 0x1 PUSH1 0xA0 SHL SUB AND PUSH1 0x0 DUP2 DUP2 MSTORE PUSH32 0xC39F11A9300B508470EAED31F5842BA08C93181BCBE6A7FE34039AA7F2B80742 PUSH1 0x20 MSTORE PUSH1 0x40 DUP2 KECCAK256 SLOAD SWAP1 SWAP2 SWAP1 PUSH32 0x3B5D4CC60D3EC3516EE8AE083BD60934F6EB2A6C54B1229985C41BFB092B2603 SWAP1 PUSH1 0xFF AND PUSH3 0x2C1 JUMPI DUP1 DUP4 MSTORE DUP3 PUSH1 0x20 MSTORE PUSH1 0x40 DUP4 KECCAK256 DUP3 DUP5 MSTORE PUSH1 0x20 MSTORE PUSH1 0x40 DUP4 KECCAK256 PUSH1 0x1 PUSH1 0xFF NOT DUP3 SLOAD AND OR SWAP1 SSTORE PUSH1 0x0 DUP1 MLOAD PUSH1 0x20 PUSH3 0x1FF4 DUP4 CODECOPY DUP2 MLOAD SWAP2 MSTORE CALLER SWAP4 DUP1 LOG4 PUSH1 0x1 SWAP1 JUMP JUMPDEST POP POP SWAP1 JUMP JUMPDEST PUSH1 0x1 PUSH1 0x1 PUSH1 0xA0 SHL SUB AND PUSH1 0x0 DUP2 DUP2 MSTORE PUSH32 0xEE57CD81E84075558E8FCC182A1F4393F91FC97F963A136E66B7F949A62F319F PUSH1 0x20 MSTORE PUSH1 0x40 DUP2 KECCAK256 SLOAD SWAP1 SWAP2 SWAP1 PUSH32 0x97667070C54EF182B0F5858B034BEAC1B6F3089AA2D3188BB1E8929F4FA9B929 SWAP1 PUSH1 0xFF AND PUSH3 0x2C1 JUMPI DUP1 DUP4 MSTORE DUP3 PUSH1 0x20 MSTORE PUSH1 0x40 DUP4 KECCAK256 DUP3 DUP5 MSTORE PUSH1 0x20 MSTORE PUSH1 0x40 DUP4 KECCAK256 PUSH1 0x1 PUSH1 0xFF NOT DUP3 SLOAD AND OR SWAP1 SSTORE PUSH1 0x0 DUP1 MLOAD PUSH1 0x20 PUSH3 0x1FF4 DUP4 CODECOPY DUP2 MLOAD SWAP2 MSTORE CALLER SWAP4 DUP1 LOG4 PUSH1 0x1 SWAP1 JUMP JUMPDEST PUSH1 0x1 PUSH1 0x1 PUSH1 0xA0 SHL SUB AND PUSH1 0x0 DUP2 DUP2 MSTORE PUSH32 0x8A40F0B47FDC2A0CE293B772ACFC7508C8315A4D462786C1ADC3A56F92CA2D05 PUSH1 0x20 MSTORE PUSH1 0x40 DUP2 KECCAK256 SLOAD SWAP1 SWAP2 SWAP1 PUSH32 0x55435DD261A4B9B3364963F7738A7A662AD9C84396D64BE3365284BB7F0A5041 SWAP1 PUSH1 0xFF AND PUSH3 0x2C1 JUMPI DUP1 DUP4 MSTORE DUP3 PUSH1 0x20 MSTORE PUSH1 0x40 DUP4 KECCAK256 DUP3 DUP5 MSTORE PUSH1 0x20 MSTORE PUSH1 0x40 DUP4 KECCAK256 PUSH1 0x1 PUSH1 0xFF NOT DUP3 SLOAD AND OR SWAP1 SSTORE PUSH1 0x0 DUP1 MLOAD PUSH1 0x20 PUSH3 0x1FF4 DUP4 CODECOPY DUP2 MLOAD SWAP2 MSTORE CALLER SWAP4 DUP1 LOG4 PUSH1 0x1 SWAP1 JUMP INVALID PUSH1 0x80 PUSH1 0x40 DUP2 DUP2 MSTORE PUSH1 0x4 SWAP2 DUP3 CALLDATASIZE LT ISZERO PUSH2 0x16 JUMPI PUSH1 0x0 DUP1 REVERT JUMPDEST PUSH1 0x0 SWAP3 DUP4 CALLDATALOAD PUSH1 0xE0 SHR SWAP2 DUP3 PUSH4 0x1FFC9A7 EQ PUSH2 0x18A5 JUMPI POP DUP2 PUSH4 0x2D45457 EQ PUSH2 0x187C JUMPI DUP2 PUSH4 0xCB46B75 EQ PUSH2 0x17A2 JUMPI DUP2 PUSH4 0xD42BADA EQ PUSH2 0x1783 JUMPI DUP2 PUSH4 0xD8BB8AC EQ PUSH2 0x175A JUMPI DUP2 PUSH4 0x1091F67C EQ PUSH2 0x16AF JUMPI DUP2 PUSH4 0x134F6646 EQ PUSH2 0x1605 JUMPI DUP2 PUSH4 0x141B950B EQ PUSH2 0x15E6 JUMPI DUP2 PUSH4 0x16B263C5 EQ PUSH2 0x15C7 JUMPI DUP2 PUSH4 0x1A5632B9 EQ PUSH2 0x15A8 JUMPI DUP2 PUSH4 0x1B30900B EQ PUSH2 0x1589 JUMPI DUP2 PUSH4 0x1BDD9BC6 EQ PUSH2 0x1550 JUMPI DUP2 PUSH4 0x1CFA7BA8 EQ PUSH2 0x1531 JUMPI DUP2 PUSH4 0x222B9C43 EQ PUSH2 0x1512 JUMPI DUP2 PUSH4 0x23068AC6 EQ PUSH2 0x1441 JUMPI DUP2 PUSH4 0x248A9CA3 EQ PUSH2 0x1417 JUMPI DUP2 PUSH4 0x24EA54F4 EQ PUSH2 0x13DC JUMPI DUP2 PUSH4 0x2BEC66E5 EQ PUSH2 0x13BD JUMPI DUP2 PUSH4 0x2F2FF15D EQ PUSH2 0x1393 JUMPI DUP2 PUSH4 0x2F832F34 EQ PUSH2 0x1374 JUMPI DUP2 PUSH4 0x36568ABE EQ PUSH2 0x132E JUMPI DUP2 PUSH4 0x39C02EA4 EQ PUSH2 0x125C JUMPI DUP2 PUSH4 0x3D8B8CB2 EQ PUSH2 0x1233 JUMPI DUP2 PUSH4 0x3F4BA83A EQ PUSH2 0x11A4 JUMPI DUP2 PUSH4 0x41E5CE8E EQ PUSH2 0x117B JUMPI DUP2 PUSH4 0x42DF038C EQ PUSH2 0x1152 JUMPI DUP2 PUSH4 0x43B827ED EQ PUSH2 0x10A4 JUMPI DUP2 PUSH4 0x48E23EA8 EQ PUSH2 0x1085 JUMPI DUP2 PUSH4 0x4E57E102 EQ PUSH2 0xFB4 JUMPI DUP2 PUSH4 0x4F6BFAD7 EQ PUSH2 0xF95 JUMPI DUP2 PUSH4 0x520D6821 EQ PUSH2 0xF6C JUMPI DUP2 PUSH4 0x570C2A1E EQ PUSH2 0xE9C JUMPI DUP2 PUSH4 0x59C9C8C9 EQ PUSH2 0xE7D JUMPI DUP2 PUSH4 0x5C975ABB EQ PUSH2 0xE59 JUMPI DUP2 PUSH4 0x5D8EB687 EQ PUSH2 0xE3A JUMPI DUP2 PUSH4 0x5EA7B4FC EQ PUSH2 0xD8F JUMPI DUP2 PUSH4 0x5F9AEB06 EQ PUSH2 0xD70 JUMPI DUP2 PUSH4 0x62F5AD63 EQ PUSH2 0xD51 JUMPI DUP2 PUSH4 0x6E56A57C EQ PUSH2 0xCF4 JUMPI DUP2 PUSH4 0x70504CF4 EQ PUSH2 0xBE8 JUMPI DUP2 PUSH4 0x78DD8B0A EQ PUSH2 0xBCA JUMPI DUP2 PUSH4 0x7D790AE1 EQ PUSH2 0xBA6 JUMPI DUP2 PUSH4 0x8456CB59 EQ PUSH2 0xAC4 JUMPI DUP2 PUSH4 0x86CDB33D EQ PUSH2 0xAA5 JUMPI DUP2 PUSH4 0x88D19F1B EQ PUSH2 0xA86 JUMPI DUP2 PUSH4 0x8F973F85 EQ PUSH2 0xA67 JUMPI DUP2 PUSH4 0x90EE6D0A EQ PUSH2 0x997 JUMPI DUP2 PUSH4 0x91D14854 EQ PUSH2 0x951 JUMPI DUP2 PUSH4 0x9AB4A445 EQ PUSH2 0x924 JUMPI DUP2 PUSH4 0xA217FDDF EQ PUSH2 0x909 JUMPI DUP2 PUSH4 0xA414E044 EQ PUSH2 0x8EA JUMPI DUP2 PUSH4 0xA6BFBE23 EQ PUSH2 0x8CB JUMPI DUP2 PUSH4 0xA98A92FA EQ PUSH2 0x8AC JUMPI DUP2 PUSH4 0xAB1DF29C EQ PUSH2 0x872 JUMPI DUP2 PUSH4 0xB028FB76 EQ PUSH2 0x853 JUMPI DUP2 PUSH4 0xB661F733 EQ PUSH2 0x833 JUMPI DUP2 PUSH4 0xB7D86225 EQ PUSH2 0x78B JUMPI DUP2 PUSH4 0xC766D986 EQ PUSH2 0x76C JUMPI DUP2 PUSH4 0xC7D7C5FD EQ PUSH2 0x74E JUMPI DUP2 PUSH4 0xCB10ED01 EQ PUSH2 0x72F JUMPI DUP2 PUSH4 0xCB3C7B2D EQ PUSH2 0x710 JUMPI DUP2 PUSH4 0xCD96255E EQ PUSH2 0x6F1 JUMPI DUP2 PUSH4 0xD547741F EQ PUSH2 0x6B2 JUMPI DUP2 PUSH4 0xDCE0B4E4 EQ PUSH2 0x693 JUMPI DUP2 PUSH4 0xDFB02536 EQ PUSH2 0x674 JUMPI DUP2 PUSH4 0xE01DF1A8 EQ PUSH2 0x655 JUMPI DUP2 PUSH4 0xE5695991 EQ PUSH2 0x620 JUMPI DUP2 PUSH4 0xE6481BD8 EQ PUSH2 0x575 JUMPI DUP2 PUSH4 0xE855DD39 EQ PUSH2 0x4C0 JUMPI POP DUP1 PUSH4 0xE883082F EQ PUSH2 0x4A2 JUMPI DUP1 PUSH4 0xE9C26518 EQ PUSH2 0x47A JUMPI DUP1 PUSH4 0xEDA99994 EQ PUSH2 0x45C JUMPI DUP1 PUSH4 0xF1C511C4 EQ PUSH2 0x434 JUMPI DUP1 PUSH4 0xF1D814B9 EQ PUSH2 0x416 JUMPI DUP1 PUSH4 0xF2588AA9 EQ PUSH2 0x3F8 JUMPI DUP1 PUSH4 0xF5A0C480 EQ PUSH2 0x3DA JUMPI DUP1 PUSH4 0xF5B541A6 EQ PUSH2 0x3A0 JUMPI PUSH4 0xF72084B2 EQ PUSH2 0x37F JUMPI PUSH1 0x0 DUP1 REVERT JUMPDEST CALLVALUE PUSH2 0x39C JUMPI DUP2 PUSH1 0x3 NOT CALLDATASIZE ADD SLT PUSH2 0x39C JUMPI PUSH1 0x20 SWAP1 PUSH1 0x23 SLOAD SWAP1 MLOAD SWAP1 DUP2 MSTORE RETURN JUMPDEST POP DUP1 REVERT JUMPDEST POP CALLVALUE PUSH2 0x39C JUMPI DUP2 PUSH1 0x3 NOT CALLDATASIZE ADD SLT PUSH2 0x39C JUMPI PUSH1 0x20 SWAP1 MLOAD PUSH32 0x97667070C54EF182B0F5858B034BEAC1B6F3089AA2D3188BB1E8929F4FA9B929 DUP2 MSTORE RETURN JUMPDEST POP CALLVALUE PUSH2 0x39C JUMPI DUP2 PUSH1 0x3 NOT CALLDATASIZE ADD SLT PUSH2 0x39C JUMPI PUSH1 0x20 SWAP1 PUSH1 0x21 SLOAD SWAP1 MLOAD SWAP1 DUP2 MSTORE RETURN JUMPDEST POP CALLVALUE PUSH2 0x39C JUMPI DUP2 PUSH1 0x3 NOT CALLDATASIZE ADD SLT PUSH2 0x39C JUMPI PUSH1 0x20 SWAP1 PUSH1 0x25 SLOAD SWAP1 MLOAD SWAP1 DUP2 MSTORE RETURN JUMPDEST POP CALLVALUE PUSH2 0x39C JUMPI DUP2 PUSH1 0x3 NOT CALLDATASIZE ADD SLT PUSH2 0x39C JUMPI PUSH1 0x20 SWAP1 PUSH1 0x1B SLOAD SWAP1 MLOAD SWAP1 DUP2 MSTORE RETURN JUMPDEST POP CALLVALUE PUSH2 0x39C JUMPI DUP2 PUSH1 0x3 NOT CALLDATASIZE ADD SLT PUSH2 0x39C JUMPI PUSH1 0x2D SLOAD SWAP1 MLOAD PUSH1 0x1 PUSH1 0x1 PUSH1 0xA0 SHL SUB SWAP1 SWAP2 AND DUP2 MSTORE PUSH1 0x20 SWAP1 RETURN JUMPDEST POP CALLVALUE PUSH2 0x39C JUMPI DUP2 PUSH1 0x3 NOT CALLDATASIZE ADD SLT PUSH2 0x39C JUMPI PUSH1 0x20 SWAP1 PUSH1 0x19 SLOAD SWAP1 MLOAD SWAP1 DUP2 MSTORE RETURN JUMPDEST POP CALLVALUE PUSH2 0x39C JUMPI DUP2 PUSH1 0x3 NOT CALLDATASIZE ADD SLT PUSH2 0x39C JUMPI PUSH1 0x20 SWAP1 MLOAD PUSH1 0x0 DUP1 MLOAD PUSH1 0x20 PUSH2 0x1B5E DUP4 CODECOPY DUP2 MLOAD SWAP2 MSTORE DUP2 MSTORE RETURN JUMPDEST POP CALLVALUE PUSH2 0x39C JUMPI DUP2 PUSH1 0x3 NOT CALLDATASIZE ADD SLT PUSH2 0x39C JUMPI PUSH1 0x20 SWAP1 PUSH1 0xE SLOAD SWAP1 MLOAD SWAP1 DUP2 MSTORE RETURN JUMPDEST SWAP1 POP CALLVALUE PUSH2 0x571 JUMPI PUSH1 0x20 CALLDATASIZE PUSH1 0x3 NOT ADD SLT PUSH2 0x571 JUMPI PUSH31 0x325EBF42911C71E499FCFC973B9D3364C11163A47F1D7973E6A9C7CEEE8033 SWAP2 PUSH1 0x0 DUP1 MLOAD PUSH1 0x20 PUSH2 0x1B7E DUP4 CODECOPY DUP2 MLOAD SWAP2 MSTORE SWAP2 CALLDATALOAD PUSH1 0x0 DUP1 MLOAD PUSH1 0x20 PUSH2 0x1B5E DUP4 CODECOPY DUP2 MLOAD SWAP2 MSTORE DUP6 MSTORE DUP5 PUSH1 0x20 MSTORE DUP2 DUP6 KECCAK256 CALLER DUP7 MSTORE PUSH1 0x20 MSTORE PUSH2 0x532 PUSH1 0xFF DUP4 DUP8 KECCAK256 SLOAD AND PUSH2 0x1A60 JUMP JUMPDEST PUSH1 0x3 DUP1 SLOAD SWAP1 DUP3 SWAP1 SSTORE DUP3 MLOAD PUSH19 0x1C5D5BDD1955985B1A591A5D1E54195C9A5BD9 PUSH1 0x6A SHL SWAP1 MSTORE SWAP2 MLOAD SWAP2 DUP3 MSTORE PUSH1 0x20 DUP3 ADD MSTORE TIMESTAMP PUSH1 0x40 DUP3 ADD MSTORE DUP1 PUSH1 0x60 DUP2 ADD JUMPDEST SUB SWAP1 LOG2 DUP1 RETURN JUMPDEST DUP3 DUP1 REVERT JUMPDEST SWAP1 POP CALLVALUE PUSH2 0x571 JUMPI PUSH1 0x20 CALLDATASIZE PUSH1 0x3 NOT ADD SLT PUSH2 0x571 JUMPI PUSH32 0xD1BCD18407225DD52030929DC97A636D415FCEBBEEEC3C99D3282E35E1586CE0 SWAP2 PUSH1 0x0 DUP1 MLOAD PUSH1 0x20 PUSH2 0x1B7E DUP4 CODECOPY DUP2 MLOAD SWAP2 MSTORE SWAP2 CALLDATALOAD PUSH1 0x0 DUP1 MLOAD PUSH1 0x20 PUSH2 0x1B5E DUP4 CODECOPY DUP2 MLOAD SWAP2 MSTORE DUP6 MSTORE DUP5 PUSH1 0x20 MSTORE DUP2 DUP6 KECCAK256 CALLER DUP7 MSTORE PUSH1 0x20 MSTORE PUSH2 0x5E8 PUSH1 0xFF DUP4 DUP8 KECCAK256 SLOAD AND PUSH2 0x1A60 JUMP JUMPDEST PUSH1 0x15 DUP1 SLOAD SWAP1 DUP3 SWAP1 SSTORE DUP3 MLOAD PUSH14 0x6D696E4665656465725374616B65 PUSH1 0x90 SHL SWAP1 MSTORE SWAP2 MLOAD SWAP2 DUP3 MSTORE PUSH1 0x20 DUP3 ADD MSTORE TIMESTAMP PUSH1 0x40 DUP3 ADD MSTORE DUP1 PUSH1 0x60 DUP2 ADD PUSH2 0x56B JUMP JUMPDEST SWAP1 POP CALLVALUE PUSH2 0x571 JUMPI PUSH1 0x20 CALLDATASIZE PUSH1 0x3 NOT ADD SLT PUSH2 0x571 JUMPI CALLDATALOAD SWAP2 PUSH1 0xFF DUP4 AND DUP4 SUB PUSH2 0x652 JUMPI POP PUSH2 0x64B PUSH1 0x20 SWAP3 PUSH2 0x1AAC JUMP JUMPDEST SWAP1 MLOAD SWAP1 DUP2 MSTORE RETURN JUMPDEST DUP1 REVERT JUMPDEST POP POP CALLVALUE PUSH2 0x39C JUMPI DUP2 PUSH1 0x3 NOT CALLDATASIZE ADD SLT PUSH2 0x39C JUMPI PUSH1 0x20 SWAP1 PUSH1 0xB SLOAD SWAP1 MLOAD SWAP1 DUP2 MSTORE RETURN JUMPDEST POP POP CALLVALUE PUSH2 0x39C JUMPI DUP2 PUSH1 0x3 NOT CALLDATASIZE ADD SLT PUSH2 0x39C JUMPI PUSH1 0x20 SWAP1 PUSH1 0x5 SLOAD SWAP1 MLOAD SWAP1 DUP2 MSTORE RETURN JUMPDEST POP POP CALLVALUE PUSH2 0x39C JUMPI DUP2 PUSH1 0x3 NOT CALLDATASIZE ADD SLT PUSH2 0x39C JUMPI PUSH1 0x20 SWAP1 PUSH1 0xA SLOAD SWAP1 MLOAD SWAP1 DUP2 MSTORE RETURN JUMPDEST SWAP2 SWAP1 POP CALLVALUE PUSH2 0x571 JUMPI DUP1 PUSH1 0x3 NOT CALLDATASIZE ADD SLT PUSH2 0x571 JUMPI PUSH2 0x6ED SWAP2 CALLDATALOAD PUSH2 0x6E8 PUSH1 0x1 PUSH2 0x6D7 PUSH2 0x1913 JUMP JUMPDEST SWAP4 DUP4 DUP8 MSTORE DUP7 PUSH1 0x20 MSTORE DUP7 KECCAK256 ADD SLOAD PUSH2 0x1929 JUMP JUMPDEST PUSH2 0x19EB JUMP JUMPDEST POP DUP1 RETURN JUMPDEST POP POP CALLVALUE PUSH2 0x39C JUMPI DUP2 PUSH1 0x3 NOT CALLDATASIZE ADD SLT PUSH2 0x39C JUMPI PUSH1 0x20 SWAP1 PUSH1 0x12 SLOAD SWAP1 MLOAD SWAP1 DUP2 MSTORE RETURN JUMPDEST POP POP CALLVALUE PUSH2 0x39C JUMPI DUP2 PUSH1 0x3 NOT CALLDATASIZE ADD SLT PUSH2 0x39C JUMPI PUSH1 0x20 SWAP1 PUSH1 0x14 SLOAD SWAP1 MLOAD SWAP1 DUP2 MSTORE RETURN JUMPDEST POP POP CALLVALUE PUSH2 0x39C JUMPI DUP2 PUSH1 0x3 NOT CALLDATASIZE ADD SLT PUSH2 0x39C JUMPI PUSH1 0x20 SWAP1 PUSH1 0x26 SLOAD SWAP1 MLOAD SWAP1 DUP2 MSTORE RETURN JUMPDEST SWAP1 POP CALLVALUE PUSH2 0x571 JUMPI DUP3 PUSH1 0x3 NOT CALLDATASIZE ADD SLT PUSH2 0x571 JUMPI PUSH1 0x20 SWAP3 POP SLOAD SWAP1 MLOAD SWAP1 DUP2 MSTORE RETURN JUMPDEST POP POP CALLVALUE PUSH2 0x39C JUMPI DUP2 PUSH1 0x3 NOT CALLDATASIZE ADD SLT PUSH2 0x39C JUMPI PUSH1 0x20 SWAP1 PUSH1 0x15 SLOAD SWAP1 MLOAD SWAP1 DUP2 MSTORE RETURN JUMPDEST SWAP1 POP CALLVALUE PUSH2 0x571 JUMPI PUSH1 0x20 CALLDATASIZE PUSH1 0x3 NOT ADD SLT PUSH2 0x571 JUMPI PUSH32 0xC335B9E9554F592D8B6D57AF0B04B86771FB9E44D65F35C141F01A6DE646A17 SWAP2 PUSH1 0x0 DUP1 MLOAD PUSH1 0x20 PUSH2 0x1B7E DUP4 CODECOPY DUP2 MLOAD SWAP2 MSTORE SWAP2 CALLDATALOAD PUSH1 0x0 DUP1 MLOAD PUSH1 0x20 PUSH2 0x1B5E DUP4 CODECOPY DUP2 MLOAD SWAP2 MSTORE DUP6 MSTORE DUP5 PUSH1 0x20 MSTORE DUP2 DUP6 KECCAK256 CALLER DUP7 MSTORE PUSH1 0x20 MSTORE PUSH2 0x7FE PUSH1 0xFF DUP4 DUP8 KECCAK256 SLOAD AND PUSH2 0x1A60 JUMP JUMPDEST PUSH1 0xA DUP1 SLOAD SWAP1 DUP3 SWAP1 SSTORE DUP3 MLOAD PUSH11 0x6372656174696F6E466565 PUSH1 0xA8 SHL SWAP1 MSTORE SWAP2 MLOAD SWAP2 DUP3 MSTORE PUSH1 0x20 DUP3 ADD MSTORE TIMESTAMP PUSH1 0x40 DUP3 ADD MSTORE DUP1 PUSH1 0x60 DUP2 ADD PUSH2 0x56B JUMP JUMPDEST DUP3 DUP5 CALLVALUE PUSH2 0x652 JUMPI PUSH1 0x20 CALLDATASIZE PUSH1 0x3 NOT ADD SLT PUSH2 0x652 JUMPI POP PUSH2 0x64B PUSH1 0x20 SWAP3 CALLDATALOAD PUSH2 0x1B1D JUMP JUMPDEST POP POP CALLVALUE PUSH2 0x39C JUMPI DUP2 PUSH1 0x3 NOT CALLDATASIZE ADD SLT PUSH2 0x39C JUMPI PUSH1 0x20 SWAP1 PUSH1 0x6 SLOAD SWAP1 MLOAD SWAP1 DUP2 MSTORE RETURN JUMPDEST SWAP1 POP CALLVALUE PUSH2 0x571 JUMPI PUSH1 0x20 CALLDATASIZE PUSH1 0x3 NOT ADD SLT PUSH2 0x571 JUMPI CALLDATALOAD DUP1 ISZERO ISZERO DUP2 SUB PUSH2 0x571 JUMPI PUSH1 0x20 SWAP3 POP ISZERO PUSH2 0x8A3 JUMPI PUSH1 0x8 SLOAD SWAP1 JUMPDEST MLOAD SWAP1 DUP2 MSTORE RETURN JUMPDEST PUSH1 0x9 SLOAD SWAP1 PUSH2 0x89D JUMP JUMPDEST POP POP CALLVALUE PUSH2 0x39C JUMPI DUP2 PUSH1 0x3 NOT CALLDATASIZE ADD SLT PUSH2 0x39C JUMPI PUSH1 0x20 SWAP1 PUSH1 0x9 SLOAD SWAP1 MLOAD SWAP1 DUP2 MSTORE RETURN JUMPDEST POP POP CALLVALUE PUSH2 0x39C JUMPI DUP2 PUSH1 0x3 NOT CALLDATASIZE ADD SLT PUSH2 0x39C JUMPI PUSH1 0x20 SWAP1 PUSH1 0x1A SLOAD SWAP1 MLOAD SWAP1 DUP2 MSTORE RETURN JUMPDEST POP POP CALLVALUE PUSH2 0x39C JUMPI DUP2 PUSH1 0x3 NOT CALLDATASIZE ADD SLT PUSH2 0x39C JUMPI PUSH1 0x20 SWAP1 PUSH1 0x18 SLOAD SWAP1 MLOAD SWAP1 DUP2 MSTORE RETURN JUMPDEST POP POP CALLVALUE PUSH2 0x39C JUMPI DUP2 PUSH1 0x3 NOT CALLDATASIZE ADD SLT PUSH2 0x39C JUMPI MLOAD SWAP1 DUP2 MSTORE PUSH1 0x20 SWAP1 RETURN JUMPDEST POP POP CALLVALUE PUSH2 0x39C JUMPI DUP2 PUSH1 0x3 NOT CALLDATASIZE ADD SLT PUSH2 0x39C JUMPI PUSH1 0x27 SLOAD SWAP1 MLOAD PUSH1 0x8 SWAP2 SWAP1 SWAP2 SHR PUSH1 0x1 PUSH1 0x1 PUSH1 0xA0 SHL SUB AND DUP2 MSTORE PUSH1 0x20 SWAP1 RETURN JUMPDEST SWAP1 POP CALLVALUE PUSH2 0x571 JUMPI DUP2 PUSH1 0x3 NOT CALLDATASIZE ADD SLT PUSH2 0x571 JUMPI DUP2 PUSH1 0x20 SWAP4 PUSH1 0xFF SWAP3 PUSH2 0x972 PUSH2 0x1913 JUMP JUMPDEST SWAP1 CALLDATALOAD DUP3 MSTORE DUP2 DUP7 MSTORE DUP3 DUP3 KECCAK256 PUSH1 0x1 PUSH1 0x1 PUSH1 0xA0 SHL SUB SWAP1 SWAP2 AND DUP3 MSTORE DUP6 MSTORE KECCAK256 SLOAD SWAP2 MLOAD SWAP2 AND ISZERO ISZERO DUP2 MSTORE RETURN JUMPDEST POP POP CALLVALUE PUSH2 0x39C JUMPI PUSH1 0x20 CALLDATASIZE PUSH1 0x3 NOT ADD SLT PUSH2 0x39C JUMPI PUSH1 0x0 DUP1 MLOAD PUSH1 0x20 PUSH2 0x1B9E DUP4 CODECOPY DUP2 MLOAD SWAP2 MSTORE PUSH32 0x4A4E69DE8DED7DCEAEF818DA27E4654E0073CB97B5E6455C1813E441D801A401 SWAP2 PUSH2 0x9E3 PUSH2 0x18F8 JUMP JUMPDEST SWAP1 PUSH1 0x0 DUP1 MLOAD PUSH1 0x20 PUSH2 0x1B5E DUP4 CODECOPY DUP2 MLOAD SWAP2 MSTORE DUP6 MSTORE DUP5 PUSH1 0x20 MSTORE DUP1 DUP6 KECCAK256 CALLER DUP7 MSTORE PUSH1 0x20 MSTORE PUSH2 0xA11 PUSH1 0xFF DUP3 DUP8 KECCAK256 SLOAD AND PUSH2 0x1A60 JUMP JUMPDEST PUSH1 0x2B DUP1 SLOAD PUSH1 0x1 PUSH1 0x1 PUSH1 0xA0 SHL SUB SWAP4 DUP5 AND PUSH1 0x1 PUSH1 0x1 PUSH1 0xA0 SHL SUB NOT DUP3 AND DUP2 OR SWAP1 SWAP3 SSTORE DUP3 MLOAD PUSH18 0x6F7074696F6E73436F726541646472657373 PUSH1 0x70 SHL SWAP1 MSTORE SWAP2 MLOAD SWAP3 SWAP1 SWAP2 AND DUP3 MSTORE PUSH1 0x20 DUP3 ADD MSTORE TIMESTAMP PUSH1 0x40 DUP3 ADD MSTORE DUP1 PUSH1 0x60 DUP2 ADD PUSH2 0x56B JUMP JUMPDEST POP POP CALLVALUE PUSH2 0x39C JUMPI DUP2 PUSH1 0x3 NOT CALLDATASIZE ADD SLT PUSH2 0x39C JUMPI PUSH1 0x20 SWAP1 PUSH1 0x22 SLOAD SWAP1 MLOAD SWAP1 DUP2 MSTORE RETURN JUMPDEST POP POP CALLVALUE PUSH2 0x39C JUMPI DUP2 PUSH1 0x3 NOT CALLDATASIZE ADD SLT PUSH2 0x39C JUMPI PUSH1 0x20 SWAP1 PUSH1 0x24 SLOAD SWAP1 MLOAD SWAP1 DUP2 MSTORE RETURN JUMPDEST POP POP CALLVALUE PUSH2 0x39C JUMPI DUP2 PUSH1 0x3 NOT CALLDATASIZE ADD SLT PUSH2 0x39C JUMPI PUSH1 0x20 SWAP1 PUSH1 0x1C SLOAD SWAP1 MLOAD SWAP1 DUP2 MSTORE RETURN JUMPDEST SWAP1 POP CALLVALUE PUSH2 0x571 JUMPI DUP3 PUSH1 0x3 NOT CALLDATASIZE ADD SLT PUSH2 0x571 JUMPI PUSH32 0x55435DD261A4B9B3364963F7738A7A662AD9C84396D64BE3365284BB7F0A5041 DUP4 MSTORE DUP3 PUSH1 0x20 MSTORE DUP2 DUP4 KECCAK256 CALLER DUP5 MSTORE PUSH1 0x20 MSTORE PUSH1 0xFF DUP3 DUP5 KECCAK256 SLOAD AND ISZERO PUSH2 0xB64 JUMPI PUSH1 0x1 SLOAD SWAP1 PUSH1 0xFF DUP3 AND PUSH2 0xB56 JUMPI POP PUSH32 0x62E78CEA01BEE320CD4E420270B5EA74000D11B0C9F74754EBDBFC544B05A258 SWAP2 PUSH1 0x1 PUSH1 0x20 SWAP3 PUSH1 0xFF NOT AND OR PUSH1 0x1 SSTORE MLOAD CALLER DUP2 MSTORE LOG1 DUP1 RETURN JUMPDEST DUP3 MLOAD PUSH4 0xD93C0665 PUSH1 0xE0 SHL DUP2 MSTORE REVERT JUMPDEST PUSH1 0x20 PUSH1 0x64 SWAP3 MLOAD SWAP2 PUSH3 0x461BCD PUSH1 0xE5 SHL DUP4 MSTORE DUP3 ADD MSTORE PUSH1 0x1E PUSH1 0x24 DUP3 ADD MSTORE PUSH32 0x436F6E6669673A2063616C6C6572206973206E6F7420477561726469616E0000 PUSH1 0x44 DUP3 ADD MSTORE REVERT JUMPDEST POP POP CALLVALUE PUSH2 0x39C JUMPI DUP2 PUSH1 0x3 NOT CALLDATASIZE ADD SLT PUSH2 0x39C JUMPI PUSH1 0x20 SWAP1 PUSH1 0xFF PUSH1 0x27 SLOAD AND SWAP1 MLOAD SWAP1 ISZERO ISZERO DUP2 MSTORE RETURN JUMPDEST POP POP CALLVALUE PUSH2 0x39C JUMPI DUP2 PUSH1 0x3 NOT CALLDATASIZE ADD SLT PUSH2 0x39C JUMPI PUSH1 0x20 SWAP1 DUP2 SLOAD SWAP1 MLOAD SWAP1 DUP2 MSTORE RETURN JUMPDEST SWAP1 POP CALLVALUE PUSH2 0x571 JUMPI PUSH1 0x20 CALLDATASIZE PUSH1 0x3 NOT ADD SLT PUSH2 0x571 JUMPI DUP1 CALLDATALOAD SWAP1 PUSH1 0x0 DUP1 MLOAD PUSH1 0x20 PUSH2 0x1B5E DUP4 CODECOPY DUP2 MLOAD SWAP2 MSTORE DUP5 MSTORE DUP4 PUSH1 0x20 MSTORE DUP3 DUP5 KECCAK256 CALLER DUP6 MSTORE PUSH1 0x20 MSTORE PUSH2 0xC2B PUSH1 0xFF DUP5 DUP7 KECCAK256 SLOAD AND PUSH2 0x1A60 JUMP JUMPDEST DUP2 ISZERO ISZERO DUP1 PUSH2 0xCE8 JUMPI JUMPDEST ISZERO PUSH2 0xCA5 JUMPI POP PUSH1 0x26 DUP1 SLOAD SWAP1 DUP3 SWAP1 SSTORE DUP3 MLOAD PUSH15 0x6E7374446973636F756E7452617465 PUSH1 0x88 SHL SWAP1 MSTORE SWAP2 MLOAD SWAP2 DUP3 MSTORE PUSH1 0x20 DUP3 ADD MSTORE TIMESTAMP PUSH1 0x40 DUP3 ADD MSTORE PUSH32 0xD72563E6A766528D1E46CB027CD6CD130AB52088BB3A1D0BB23D8612D8CCC437 SWAP1 PUSH1 0x0 DUP1 MLOAD PUSH1 0x20 PUSH2 0x1B7E DUP4 CODECOPY DUP2 MLOAD SWAP2 MSTORE SWAP1 DUP1 PUSH1 0x60 DUP2 ADD PUSH2 0x56B JUMP JUMPDEST PUSH1 0x64 SWAP1 PUSH1 0x20 DUP5 MLOAD SWAP2 PUSH3 0x461BCD PUSH1 0xE5 SHL DUP4 MSTORE DUP3 ADD MSTORE PUSH1 0x1D PUSH1 0x24 DUP3 ADD MSTORE PUSH32 0x436F6E6669673A20696E76616C696420646973636F756E742072617465000000 PUSH1 0x44 DUP3 ADD MSTORE REVERT JUMPDEST POP PUSH2 0x2710 DUP3 GT ISZERO PUSH2 0xC34 JUMP JUMPDEST SWAP1 POP CALLVALUE PUSH2 0x571 JUMPI PUSH1 0x20 CALLDATASIZE PUSH1 0x3 NOT ADD SLT PUSH2 0x571 JUMPI CALLDATALOAD SWAP1 DUP2 ISZERO ISZERO DUP1 SWAP3 SUB PUSH2 0x571 JUMPI PUSH1 0xFF PUSH2 0xD40 SWAP2 PUSH1 0x0 DUP1 MLOAD PUSH1 0x20 PUSH2 0x1B5E DUP4 CODECOPY DUP2 MLOAD SWAP2 MSTORE DUP6 MSTORE DUP5 PUSH1 0x20 MSTORE DUP1 DUP6 KECCAK256 CALLER DUP7 MSTORE PUSH1 0x20 MSTORE DUP5 KECCAK256 SLOAD AND PUSH2 0x1A60 JUMP JUMPDEST PUSH1 0xFF DUP1 NOT PUSH1 0x27 SLOAD AND SWAP2 AND OR PUSH1 0x27 SSTORE DUP1 RETURN JUMPDEST POP POP CALLVALUE PUSH2 0x39C JUMPI DUP2 PUSH1 0x3 NOT CALLDATASIZE ADD SLT PUSH2 0x39C JUMPI PUSH1 0x20 SWAP1 PUSH1 0x1F SLOAD SWAP1 MLOAD SWAP1 DUP2 MSTORE RETURN JUMPDEST POP POP CALLVALUE PUSH2 0x39C JUMPI DUP2 PUSH1 0x3 NOT CALLDATASIZE ADD SLT PUSH2 0x39C JUMPI PUSH1 0x20 SWAP1 PUSH1 0xF SLOAD SWAP1 MLOAD SWAP1 DUP2 MSTORE RETURN JUMPDEST SWAP1 POP CALLVALUE PUSH2 0x571 JUMPI PUSH1 0x20 CALLDATASIZE PUSH1 0x3 NOT ADD SLT PUSH2 0x571 JUMPI PUSH32 0x6CEE20960E3ED91CE76465A2D59C093A6D1E12009C4F67D22F9F8A6E5C31F589 SWAP2 PUSH1 0x0 DUP1 MLOAD PUSH1 0x20 PUSH2 0x1B7E DUP4 CODECOPY DUP2 MLOAD SWAP2 MSTORE SWAP2 CALLDATALOAD PUSH1 0x0 DUP1 MLOAD PUSH1 0x20 PUSH2 0x1B5E DUP4 CODECOPY DUP2 MLOAD SWAP2 MSTORE DUP6 MSTORE DUP5 PUSH1 0x20 MSTORE DUP2 DUP6 KECCAK256 CALLER DUP7 MSTORE PUSH1 0x20 MSTORE PUSH2 0xE02 PUSH1 0xFF DUP4 DUP8 KECCAK256 SLOAD AND PUSH2 0x1A60 JUMP JUMPDEST PUSH1 0xC DUP1 SLOAD SWAP1 DUP3 SWAP1 SSTORE DUP3 MLOAD PUSH14 0x6172626974726174696F6E466565 PUSH1 0x90 SHL SWAP1 MSTORE SWAP2 MLOAD SWAP2 DUP3 MSTORE PUSH1 0x20 DUP3 ADD MSTORE TIMESTAMP PUSH1 0x40 DUP3 ADD MSTORE DUP1 PUSH1 0x60 DUP2 ADD PUSH2 0x56B JUMP JUMPDEST POP POP CALLVALUE PUSH2 0x39C JUMPI DUP2 PUSH1 0x3 NOT CALLDATASIZE ADD SLT PUSH2 0x39C JUMPI PUSH1 0x20 SWAP1 PUSH1 0x13 SLOAD SWAP1 MLOAD SWAP1 DUP2 MSTORE RETURN JUMPDEST POP POP CALLVALUE PUSH2 0x39C JUMPI DUP2 PUSH1 0x3 NOT CALLDATASIZE ADD SLT PUSH2 0x39C JUMPI PUSH1 0x20 SWAP1 PUSH1 0xFF PUSH1 0x1 SLOAD AND SWAP1 MLOAD SWAP1 ISZERO ISZERO DUP2 MSTORE RETURN JUMPDEST POP POP CALLVALUE PUSH2 0x39C JUMPI DUP2 PUSH1 0x3 NOT CALLDATASIZE ADD SLT PUSH2 0x39C JUMPI PUSH1 0x20 SWAP1 PUSH1 0x7 SLOAD SWAP1 MLOAD SWAP1 DUP2 MSTORE RETURN JUMPDEST POP POP CALLVALUE PUSH2 0x39C JUMPI PUSH1 0x20 CALLDATASIZE PUSH1 0x3 NOT ADD SLT PUSH2 0x39C JUMPI PUSH1 0x0 DUP1 MLOAD PUSH1 0x20 PUSH2 0x1B9E DUP4 CODECOPY DUP2 MLOAD SWAP2 MSTORE PUSH32 0x5E28EB369D7FDBB5DFBB05D4358500DF3BF5F778C9F2C859B1D7277F5AE4CE3F SWAP2 PUSH2 0xEE8 PUSH2 0x18F8 JUMP JUMPDEST SWAP1 PUSH1 0x0 DUP1 MLOAD PUSH1 0x20 PUSH2 0x1B5E DUP4 CODECOPY DUP2 MLOAD SWAP2 MSTORE DUP6 MSTORE DUP5 PUSH1 0x20 MSTORE DUP1 DUP6 KECCAK256 CALLER DUP7 MSTORE PUSH1 0x20 MSTORE PUSH2 0xF16 PUSH1 0xFF DUP3 DUP8 KECCAK256 SLOAD AND PUSH2 0x1A60 JUMP JUMPDEST PUSH1 0x2D DUP1 SLOAD PUSH1 0x1 PUSH1 0x1 PUSH1 0xA0 SHL SUB SWAP4 DUP5 AND PUSH1 0x1 PUSH1 0x1 PUSH1 0xA0 SHL SUB NOT DUP3 AND DUP2 OR SWAP1 SWAP3 SSTORE DUP3 MLOAD PUSH18 0x736561744D616E6167657241646472657373 PUSH1 0x70 SHL SWAP1 MSTORE SWAP2 MLOAD SWAP3 SWAP1 SWAP2 AND DUP3 MSTORE PUSH1 0x20 DUP3 ADD MSTORE TIMESTAMP PUSH1 0x40 DUP3 ADD MSTORE DUP1 PUSH1 0x60 DUP2 ADD PUSH2 0x56B JUMP JUMPDEST POP POP CALLVALUE PUSH2 0x39C JUMPI DUP2 PUSH1 0x3 NOT CALLDATASIZE ADD SLT PUSH2 0x39C JUMPI PUSH1 0x2C SLOAD SWAP1 MLOAD PUSH1 0x1 PUSH1 0x1 PUSH1 0xA0 SHL SUB SWAP1 SWAP2 AND DUP2 MSTORE PUSH1 0x20 SWAP1 RETURN JUMPDEST POP POP CALLVALUE PUSH2 0x39C JUMPI DUP2 PUSH1 0x3 NOT CALLDATASIZE ADD SLT PUSH2 0x39C JUMPI PUSH1 0x20 SWAP1 PUSH1 0x2 SLOAD SWAP1 MLOAD SWAP1 DUP2 MSTORE RETURN JUMPDEST POP POP CALLVALUE PUSH2 0x39C JUMPI PUSH1 0x20 CALLDATASIZE PUSH1 0x3 NOT ADD SLT PUSH2 0x39C JUMPI PUSH1 0x0 DUP1 MLOAD PUSH1 0x20 PUSH2 0x1B9E DUP4 CODECOPY DUP2 MLOAD SWAP2 MSTORE PUSH32 0x2F73B590FAADDB044F9851ED70B38C69E7CC0D4659BF1FE1082B600D997C18DE SWAP2 PUSH2 0x1000 PUSH2 0x18F8 JUMP JUMPDEST SWAP1 PUSH1 0x0 DUP1 MLOAD PUSH1 0x20 PUSH2 0x1B5E DUP4 CODECOPY DUP2 MLOAD SWAP2 MSTORE DUP6 MSTORE DUP5 PUSH1 0x20 MSTORE DUP1 DUP6 KECCAK256 CALLER DUP7 MSTORE PUSH1 0x20 MSTORE PUSH2 0x102E PUSH1 0xFF DUP3 DUP8 KECCAK256 SLOAD AND PUSH2 0x1A60 JUMP JUMPDEST PUSH1 0x2C DUP1 SLOAD PUSH1 0x1 PUSH1 0x1 PUSH1 0xA0 SHL SUB SWAP4 DUP5 AND PUSH1 0x1 PUSH1 0x1 PUSH1 0xA0 SHL SUB NOT DUP3 AND DUP2 OR SWAP1 SWAP3 SSTORE DUP3 MLOAD PUSH19 0x6665656450726F746F636F6C41646472657373 PUSH1 0x68 SHL SWAP1 MSTORE SWAP2 MLOAD SWAP3 SWAP1 SWAP2 AND DUP3 MSTORE PUSH1 0x20 DUP3 ADD MSTORE TIMESTAMP PUSH1 0x40 DUP3 ADD MSTORE DUP1 PUSH1 0x60 DUP2 ADD PUSH2 0x56B JUMP JUMPDEST POP POP CALLVALUE PUSH2 0x39C JUMPI DUP2 PUSH1 0x3 NOT CALLDATASIZE ADD SLT PUSH2 0x39C JUMPI PUSH1 0x20 SWAP1 PUSH1 0x8 SLOAD SWAP1 MLOAD SWAP1 DUP2 MSTORE RETURN JUMPDEST SWAP1 POP CALLVALUE PUSH2 0x571 JUMPI PUSH1 0x20 CALLDATASIZE PUSH1 0x3 NOT ADD SLT PUSH2 0x571 JUMPI PUSH32 0xB1F207596326C2FB1FAB96833DAF041824DC88FA6FBDB5C843B022EF967BDB4 SWAP2 PUSH1 0x0 DUP1 MLOAD PUSH1 0x20 PUSH2 0x1B7E DUP4 CODECOPY DUP2 MLOAD SWAP2 MSTORE SWAP2 CALLDATALOAD PUSH1 0x0 DUP1 MLOAD PUSH1 0x20 PUSH2 0x1B5E DUP4 CODECOPY DUP2 MLOAD SWAP2 MSTORE DUP6 MSTORE DUP5 PUSH1 0x20 MSTORE DUP2 DUP6 KECCAK256 CALLER DUP7 MSTORE PUSH1 0x20 MSTORE PUSH2 0x1117 PUSH1 0xFF DUP4 DUP8 KECCAK256 SLOAD AND PUSH2 0x1A60 JUMP JUMPDEST PUSH1 0x2 DUP1 SLOAD SWAP1 DUP3 SWAP1 SSTORE DUP3 MLOAD PUSH17 0x1C999C55985B1A591A5D1E54195C9A5BD9 PUSH1 0x7A SHL SWAP1 MSTORE SWAP2 MLOAD SWAP2 DUP3 MSTORE PUSH1 0x20 DUP3 ADD MSTORE TIMESTAMP PUSH1 0x40 DUP3 ADD MSTORE DUP1 PUSH1 0x60 DUP2 ADD PUSH2 0x56B JUMP JUMPDEST POP POP CALLVALUE PUSH2 0x39C JUMPI DUP2 PUSH1 0x3 NOT CALLDATASIZE ADD SLT PUSH2 0x39C JUMPI PUSH1 0x29 SLOAD SWAP1 MLOAD PUSH1 0x1 PUSH1 0x1 PUSH1 0xA0 SHL SUB SWAP1 SWAP2 AND DUP2 MSTORE PUSH1 0x20 SWAP1 RETURN JUMPDEST POP POP CALLVALUE PUSH2 0x39C JUMPI DUP2 PUSH1 0x3 NOT CALLDATASIZE ADD SLT PUSH2 0x39C JUMPI PUSH1 0x2B SLOAD SWAP1 MLOAD PUSH1 0x1 PUSH1 0x1 PUSH1 0xA0 SHL SUB SWAP1 SWAP2 AND DUP2 MSTORE PUSH1 0x20 SWAP1 RETURN JUMPDEST SWAP1 POP CALLVALUE PUSH2 0x571 JUMPI DUP3 PUSH1 0x3 NOT CALLDATASIZE ADD SLT PUSH2 0x571 JUMPI PUSH1 0x0 DUP1 MLOAD PUSH1 0x20 PUSH2 0x1B5E DUP4 CODECOPY DUP2 MLOAD SWAP2 MSTORE DUP4 MSTORE DUP3 PUSH1 0x20 MSTORE DUP2 DUP4 KECCAK256 CALLER DUP5 MSTORE PUSH1 0x20 MSTORE PUSH2 0x11E3 PUSH1 0xFF DUP4 DUP6 KECCAK256 SLOAD AND PUSH2 0x1A60 JUMP JUMPDEST PUSH1 0x1 SLOAD SWAP1 PUSH1 0xFF DUP3 AND ISZERO PUSH2 0x1225 JUMPI POP PUSH1 0xFF NOT AND PUSH1 0x1 SSTORE MLOAD CALLER DUP2 MSTORE PUSH32 0x5DB9EE0A495BF2E6FF9C91A7834C1BA4FDD244A5E8AA4E537BD38AEAE4B073AA SWAP1 PUSH1 0x20 SWAP1 LOG1 DUP1 RETURN JUMPDEST DUP3 MLOAD PUSH4 0x8DFC202B PUSH1 0xE0 SHL DUP2 MSTORE REVERT JUMPDEST POP POP CALLVALUE PUSH2 0x39C JUMPI DUP2 PUSH1 0x3 NOT CALLDATASIZE ADD SLT PUSH2 0x39C JUMPI PUSH1 0x2A SLOAD SWAP1 MLOAD PUSH1 0x1 PUSH1 0x1 PUSH1 0xA0 SHL SUB SWAP1 SWAP2 AND DUP2 MSTORE PUSH1 0x20 SWAP1 RETURN JUMPDEST POP POP CALLVALUE PUSH2 0x39C JUMPI PUSH1 0x20 CALLDATASIZE PUSH1 0x3 NOT ADD SLT PUSH2 0x39C JUMPI PUSH1 0x0 DUP1 MLOAD PUSH1 0x20 PUSH2 0x1B9E DUP4 CODECOPY DUP2 MLOAD SWAP2 MSTORE PUSH32 0x2E9D3AA19D9DBD777C6BE6342075AC61EF674D8B86D37B75EA0CB8D1A845C51B SWAP2 PUSH2 0x12A8 PUSH2 0x18F8 JUMP JUMPDEST SWAP1 PUSH1 0x0 DUP1 MLOAD PUSH1 0x20 PUSH2 0x1B5E DUP4 CODECOPY DUP2 MLOAD SWAP2 MSTORE DUP6 MSTORE DUP5 PUSH1 0x20 MSTORE DUP1 DUP6 KECCAK256 CALLER DUP7 MSTORE PUSH1 0x20 MSTORE PUSH2 0x12D6 PUSH1 0xFF DUP3 DUP8 KECCAK256 SLOAD AND PUSH2 0x1A60 JUMP JUMPDEST PUSH1 0x2E DUP1 SLOAD PUSH1 0x1 PUSH1 0x1 PUSH1 0xA0 SHL SUB SWAP4 DUP5 AND PUSH1 0x1 PUSH1 0x1 PUSH1 0xA0 SHL SUB NOT DUP3 AND DUP2 OR SWAP1 SWAP3 SSTORE DUP3 MLOAD PUSH20 0x706F696E74734D616E6167657241646472657373 PUSH1 0x60 SHL SWAP1 MSTORE SWAP2 MLOAD SWAP3 SWAP1 SWAP2 AND DUP3 MSTORE PUSH1 0x20 DUP3 ADD MSTORE TIMESTAMP PUSH1 0x40 DUP3 ADD MSTORE DUP1 PUSH1 0x60 DUP2 ADD PUSH2 0x56B JUMP JUMPDEST DUP4 DUP4 CALLVALUE PUSH2 0x39C JUMPI DUP1 PUSH1 0x3 NOT CALLDATASIZE ADD SLT PUSH2 0x39C JUMPI PUSH2 0x1348 PUSH2 0x1913 JUMP JUMPDEST SWAP1 CALLER PUSH1 0x1 PUSH1 0x1 PUSH1 0xA0 SHL SUB DUP4 AND SUB PUSH2 0x1365 JUMPI POP PUSH2 0x6ED SWAP2 SWAP3 CALLDATALOAD PUSH2 0x19EB JUMP JUMPDEST MLOAD PUSH4 0x334BD919 PUSH1 0xE1 SHL DUP2 MSTORE DUP4 SWAP1 REVERT JUMPDEST POP POP CALLVALUE PUSH2 0x39C JUMPI DUP2 PUSH1 0x3 NOT CALLDATASIZE ADD SLT PUSH2 0x39C JUMPI PUSH1 0x20 SWAP1 PUSH1 0x16 SLOAD SWAP1 MLOAD SWAP1 DUP2 MSTORE RETURN JUMPDEST SWAP2 SWAP1 POP CALLVALUE PUSH2 0x571 JUMPI DUP1 PUSH1 0x3 NOT CALLDATASIZE ADD SLT PUSH2 0x571 JUMPI PUSH2 0x6ED SWAP2 CALLDATALOAD PUSH2 0x13B8 PUSH1 0x1 PUSH2 0x6D7 PUSH2 0x1913 JUMP JUMPDEST PUSH2 0x196D JUMP JUMPDEST POP POP CALLVALUE PUSH2 0x39C JUMPI DUP2 PUSH1 0x3 NOT CALLDATASIZE ADD SLT PUSH2 0x39C JUMPI PUSH1 0x20 SWAP1 PUSH1 0x1D SLOAD SWAP1 MLOAD SWAP1 DUP2 MSTORE RETURN JUMPDEST POP POP CALLVALUE PUSH2 0x39C JUMPI DUP2 PUSH1 0x3 NOT CALLDATASIZE ADD SLT PUSH2 0x39C JUMPI PUSH1 0x20 SWAP1 MLOAD PUSH32 0x55435DD261A4B9B3364963F7738A7A662AD9C84396D64BE3365284BB7F0A5041 DUP2 MSTORE RETURN JUMPDEST SWAP1 POP CALLVALUE PUSH2 0x571 JUMPI PUSH1 0x20 CALLDATASIZE PUSH1 0x3 NOT ADD SLT PUSH2 0x571 JUMPI DUP2 PUSH1 0x20 SWAP4 PUSH1 0x1 SWAP3 CALLDATALOAD DUP2 MSTORE DUP1 DUP6 MSTORE KECCAK256 ADD SLOAD SWAP1 MLOAD SWAP1 DUP2 MSTORE RETURN JUMPDEST POP POP CALLVALUE PUSH2 0x39C JUMPI PUSH1 0x20 CALLDATASIZE PUSH1 0x3 NOT ADD SLT PUSH2 0x39C JUMPI PUSH1 0x0 DUP1 MLOAD PUSH1 0x20 PUSH2 0x1B9E DUP4 CODECOPY DUP2 MLOAD SWAP2 MSTORE PUSH32 0x2FE00A4B9B1823087C1AAA9E681D82D7F691AA0160A8BEC45C8E55052E143534 SWAP2 PUSH2 0x148D PUSH2 0x18F8 JUMP JUMPDEST SWAP1 PUSH1 0x0 DUP1 MLOAD PUSH1 0x20 PUSH2 0x1B5E DUP4 CODECOPY DUP2 MLOAD SWAP2 MSTORE DUP6 MSTORE DUP5 PUSH1 0x20 MSTORE DUP1 DUP6 KECCAK256 CALLER DUP7 MSTORE PUSH1 0x20 MSTORE PUSH2 0x14BB PUSH1 0xFF DUP3 DUP8 KECCAK256 SLOAD AND PUSH2 0x1A60 JUMP JUMPDEST PUSH1 0x2A DUP1 SLOAD PUSH1 0x1 PUSH1 0x1 PUSH1 0xA0 SHL SUB SWAP4 DUP5 AND PUSH1 0x1 PUSH1 0x1 PUSH1 0xA0 SHL SUB NOT DUP3 AND DUP2 OR SWAP1 SWAP3 SSTORE DUP3 MLOAD PUSH19 0x7661756C744D616E6167657241646472657373 PUSH1 0x68 SHL SWAP1 MSTORE SWAP2 MLOAD SWAP3 SWAP1 SWAP2 AND DUP3 MSTORE PUSH1 0x20 DUP3 ADD MSTORE TIMESTAMP PUSH1 0x40 DUP3 ADD MSTORE DUP1 PUSH1 0x60 DUP2 ADD PUSH2 0x56B JUMP JUMPDEST POP POP CALLVALUE PUSH2 0x39C JUMPI DUP2 PUSH1 0x3 NOT CALLDATASIZE ADD SLT PUSH2 0x39C JUMPI PUSH1 0x20 SWAP1 PUSH1 0x17 SLOAD SWAP1 MLOAD SWAP1 DUP2 MSTORE RETURN JUMPDEST POP POP CALLVALUE PUSH2 0x39C JUMPI DUP2 PUSH1 0x3 NOT CALLDATASIZE ADD SLT PUSH2 0x39C JUMPI PUSH1 0x20 SWAP1 PUSH1 0xC SLOAD SWAP1 MLOAD SWAP1 DUP2 MSTORE RETURN JUMPDEST SWAP1 POP CALLVALUE PUSH2 0x571 JUMPI PUSH1 0x20 CALLDATASIZE PUSH1 0x3 NOT ADD SLT PUSH2 0x571 JUMPI CALLDATALOAD DUP1 ISZERO ISZERO DUP2 SUB PUSH2 0x571 JUMPI PUSH1 0x20 SWAP3 POP ISZERO PUSH2 0x1580 JUMPI PUSH1 0x7 SLOAD SWAP1 MLOAD SWAP1 DUP2 MSTORE RETURN JUMPDEST PUSH1 0x6 SLOAD SWAP1 PUSH2 0x89D JUMP JUMPDEST POP POP CALLVALUE PUSH2 0x39C JUMPI DUP2 PUSH1 0x3 NOT CALLDATASIZE ADD SLT PUSH2 0x39C JUMPI PUSH1 0x20 SWAP1 PUSH1 0x10 SLOAD SWAP1 MLOAD SWAP1 DUP2 MSTORE RETURN JUMPDEST POP POP CALLVALUE PUSH2 0x39C JUMPI DUP2 PUSH1 0x3 NOT CALLDATASIZE ADD SLT PUSH2 0x39C JUMPI PUSH1 0x20 SWAP1 PUSH1 0x11 SLOAD SWAP1 MLOAD SWAP1 DUP2 MSTORE RETURN JUMPDEST POP POP CALLVALUE PUSH2 0x39C JUMPI DUP2 PUSH1 0x3 NOT CALLDATASIZE ADD SLT PUSH2 0x39C JUMPI PUSH1 0x20 SWAP1 PUSH1 0xD SLOAD SWAP1 MLOAD SWAP1 DUP2 MSTORE RETURN JUMPDEST POP POP CALLVALUE PUSH2 0x39C JUMPI DUP2 PUSH1 0x3 NOT CALLDATASIZE ADD SLT PUSH2 0x39C JUMPI PUSH1 0x20 SWAP1 PUSH1 0x1E SLOAD SWAP1 MLOAD SWAP1 DUP2 MSTORE RETURN JUMPDEST SWAP1 POP CALLVALUE PUSH2 0x571 JUMPI PUSH1 0x20 CALLDATASIZE PUSH1 0x3 NOT ADD SLT PUSH2 0x571 JUMPI PUSH32 0x51DC7EE582B9D271F3FA6B99B06C522078B096083834A63261B707B00A031A59 SWAP2 PUSH1 0x0 DUP1 MLOAD PUSH1 0x20 PUSH2 0x1B7E DUP4 CODECOPY DUP2 MLOAD SWAP2 MSTORE SWAP2 CALLDATALOAD PUSH1 0x0 DUP1 MLOAD PUSH1 0x20 PUSH2 0x1B5E DUP4 CODECOPY DUP2 MLOAD SWAP2 MSTORE DUP6 MSTORE DUP5 PUSH1 0x20 MSTORE DUP2 DUP6 KECCAK256 CALLER DUP7 MSTORE PUSH1 0x20 MSTORE PUSH2 0x1678 PUSH1 0xFF DUP4 DUP8 KECCAK256 SLOAD AND PUSH2 0x1A60 JUMP JUMPDEST PUSH1 0x13 DUP1 SLOAD SWAP1 DUP3 SWAP1 SSTORE DUP3 MLOAD PUSH13 0x6D696E4D617267696E52617465 PUSH1 0x98 SHL SWAP1 MSTORE SWAP2 MLOAD SWAP2 DUP3 MSTORE PUSH1 0x20 DUP3 ADD MSTORE TIMESTAMP PUSH1 0x40 DUP3 ADD MSTORE DUP1 PUSH1 0x60 DUP2 ADD PUSH2 0x56B JUMP JUMPDEST SWAP1 POP CALLVALUE PUSH2 0x571 JUMPI PUSH1 0x20 CALLDATASIZE PUSH1 0x3 NOT ADD SLT PUSH2 0x571 JUMPI PUSH32 0x9E93AD54B8ACE41AD65A3AF48BE0B970E216AD15D3A3F4C4132AA4BEBD04FF0A SWAP2 PUSH1 0x0 DUP1 MLOAD PUSH1 0x20 PUSH2 0x1B7E DUP4 CODECOPY DUP2 MLOAD SWAP2 MSTORE SWAP2 CALLDATALOAD PUSH1 0x0 DUP1 MLOAD PUSH1 0x20 PUSH2 0x1B5E DUP4 CODECOPY DUP2 MLOAD SWAP2 MSTORE DUP6 MSTORE DUP5 PUSH1 0x20 MSTORE DUP2 DUP6 KECCAK256 CALLER DUP7 MSTORE PUSH1 0x20 MSTORE PUSH2 0x1722 PUSH1 0xFF DUP4 DUP8 KECCAK256 SLOAD AND PUSH2 0x1A60 JUMP JUMPDEST PUSH1 0xB DUP1 SLOAD SWAP1 DUP3 SWAP1 SSTORE DUP3 MLOAD PUSH14 0x74726164696E6746656552617465 PUSH1 0x90 SHL SWAP1 MSTORE SWAP2 MLOAD SWAP2 DUP3 MSTORE PUSH1 0x20 DUP3 ADD MSTORE TIMESTAMP PUSH1 0x40 DUP3 ADD MSTORE DUP1 PUSH1 0x60 DUP2 ADD PUSH2 0x56B JUMP JUMPDEST POP POP CALLVALUE PUSH2 0x39C JUMPI DUP2 PUSH1 0x3 NOT CALLDATASIZE ADD SLT PUSH2 0x39C JUMPI PUSH1 0x2E SLOAD SWAP1 MLOAD PUSH1 0x1 PUSH1 0x1 PUSH1 0xA0 SHL SUB SWAP1 SWAP2 AND DUP2 MSTORE PUSH1 0x20 SWAP1 RETURN JUMPDEST POP POP CALLVALUE PUSH2 0x39C JUMPI DUP2 PUSH1 0x3 NOT CALLDATASIZE ADD SLT PUSH2 0x39C JUMPI PUSH1 0x20 SWAP1 PUSH1 0x3 SLOAD SWAP1 MLOAD SWAP1 DUP2 MSTORE RETURN JUMPDEST POP POP CALLVALUE PUSH2 0x39C JUMPI PUSH1 0x20 CALLDATASIZE PUSH1 0x3 NOT ADD SLT PUSH2 0x39C JUMPI PUSH1 0x0 DUP1 MLOAD PUSH1 0x20 PUSH2 0x1B9E DUP4 CODECOPY DUP2 MLOAD SWAP2 MSTORE PUSH32 0xA63D2DB62C0400AC404BB484526070E593B5B38753F8211077A0B30BE6604B39 SWAP2 PUSH2 0x17EE PUSH2 0x18F8 JUMP JUMPDEST PUSH1 0x0 DUP1 MLOAD PUSH1 0x20 PUSH2 0x1B5E DUP4 CODECOPY DUP2 MLOAD SWAP2 MSTORE DUP6 MSTORE DUP5 PUSH1 0x20 MSTORE DUP2 DUP6 KECCAK256 CALLER DUP7 MSTORE PUSH1 0x20 MSTORE PUSH2 0x181B PUSH1 0xFF DUP4 DUP8 KECCAK256 SLOAD AND PUSH2 0x1A60 JUMP JUMPDEST PUSH1 0x27 DUP1 SLOAD PUSH2 0x100 PUSH1 0x1 PUSH1 0xA8 SHL SUB NOT DUP2 AND PUSH1 0x8 DUP5 DUP2 SHL PUSH2 0x100 PUSH1 0x1 PUSH1 0xA8 SHL SUB AND SWAP2 SWAP1 SWAP2 OR SWAP1 SWAP3 SSTORE DUP4 MLOAD PUSH11 0x7573647441646472657373 PUSH1 0xA8 SHL SWAP1 MSTORE SWAP3 MLOAD SWAP3 SWAP1 SHR PUSH1 0x1 PUSH1 0x1 PUSH1 0xA0 SHL SUB SWAP1 DUP2 AND DUP4 MSTORE AND PUSH1 0x20 DUP3 ADD MSTORE TIMESTAMP PUSH1 0x40 DUP3 ADD MSTORE DUP1 PUSH1 0x60 DUP2 ADD PUSH2 0x56B JUMP JUMPDEST POP POP CALLVALUE PUSH2 0x39C JUMPI DUP2 PUSH1 0x3 NOT CALLDATASIZE ADD SLT PUSH2 0x39C JUMPI PUSH1 0x28 SLOAD SWAP1 MLOAD PUSH1 0x1 PUSH1 0x1 PUSH1 0xA0 SHL SUB SWAP1 SWAP2 AND DUP2 MSTORE PUSH1 0x20 SWAP1 RETURN JUMPDEST DUP5 SWAP2 CALLVALUE PUSH2 0x571 JUMPI PUSH1 0x20 CALLDATASIZE PUSH1 0x3 NOT ADD SLT PUSH2 0x571 JUMPI CALLDATALOAD PUSH4 0xFFFFFFFF PUSH1 0xE0 SHL DUP2 AND DUP1 SWAP2 SUB PUSH2 0x571 JUMPI PUSH1 0x20 SWAP3 POP PUSH4 0x7965DB0B PUSH1 0xE0 SHL DUP2 EQ SWAP1 DUP2 ISZERO PUSH2 0x18E7 JUMPI JUMPDEST POP ISZERO ISZERO DUP2 MSTORE RETURN JUMPDEST PUSH4 0x1FFC9A7 PUSH1 0xE0 SHL EQ SWAP1 POP DUP4 PUSH2 0x18E0 JUMP JUMPDEST PUSH1 0x4 CALLDATALOAD SWAP1 PUSH1 0x1 PUSH1 0x1 PUSH1 0xA0 SHL SUB DUP3 AND DUP3 SUB PUSH2 0x190E JUMPI JUMP JUMPDEST PUSH1 0x0 DUP1 REVERT JUMPDEST PUSH1 0x24 CALLDATALOAD SWAP1 PUSH1 0x1 PUSH1 0x1 PUSH1 0xA0 SHL SUB DUP3 AND DUP3 SUB PUSH2 0x190E JUMPI JUMP JUMPDEST DUP1 PUSH1 0x0 MSTORE PUSH1 0x0 PUSH1 0x20 MSTORE PUSH1 0x40 PUSH1 0x0 KECCAK256 CALLER PUSH1 0x0 MSTORE PUSH1 0x20 MSTORE PUSH1 0xFF PUSH1 0x40 PUSH1 0x0 KECCAK256 SLOAD AND ISZERO PUSH2 0x194F JUMPI POP JUMP JUMPDEST PUSH1 0x44 SWAP1 PUSH1 0x40 MLOAD SWAP1 PUSH4 0xE2517D3F PUSH1 0xE0 SHL DUP3 MSTORE CALLER PUSH1 0x4 DUP4 ADD MSTORE PUSH1 0x24 DUP3 ADD MSTORE REVERT JUMPDEST SWAP1 PUSH1 0x0 SWAP2 DUP1 DUP4 MSTORE DUP3 PUSH1 0x20 MSTORE PUSH1 0x40 DUP4 KECCAK256 SWAP2 PUSH1 0x1 DUP1 PUSH1 0xA0 SHL SUB AND SWAP2 DUP3 DUP5 MSTORE PUSH1 0x20 MSTORE PUSH1 0xFF PUSH1 0x40 DUP5 KECCAK256 SLOAD AND ISZERO PUSH1 0x0 EQ PUSH2 0x19E6 JUMPI DUP1 DUP4 MSTORE DUP3 PUSH1 0x20 MSTORE PUSH1 0x40 DUP4 KECCAK256 DUP3 DUP5 MSTORE PUSH1 0x20 MSTORE PUSH1 0x40 DUP4 KECCAK256 PUSH1 0x1 PUSH1 0xFF NOT DUP3 SLOAD AND OR SWAP1 SSTORE PUSH32 0x2F8788117E7EFF1D82E926EC794901D17C78024A50270940304540A733656F0D CALLER SWAP4 DUP1 LOG4 PUSH1 0x1 SWAP1 JUMP JUMPDEST POP POP SWAP1 JUMP JUMPDEST SWAP1 PUSH1 0x0 SWAP2 DUP1 DUP4 MSTORE DUP3 PUSH1 0x20 MSTORE PUSH1 0x40 DUP4 KECCAK256 SWAP2 PUSH1 0x1 DUP1 PUSH1 0xA0 SHL SUB AND SWAP2 DUP3 DUP5 MSTORE PUSH1 0x20 MSTORE PUSH1 0xFF PUSH1 0x40 DUP5 KECCAK256 SLOAD AND PUSH1 0x0 EQ PUSH2 0x19E6 JUMPI DUP1 DUP4 MSTORE DUP3 PUSH1 0x20 MSTORE PUSH1 0x40 DUP4 KECCAK256 DUP3 DUP5 MSTORE PUSH1 0x20 MSTORE PUSH1 0x40 DUP4 KECCAK256 PUSH1 0xFF NOT DUP2 SLOAD AND SWAP1 SSTORE PUSH32 0xF6391F5C32D9C69D2A47EA670B442974B53935D1EDC7FD64EB21E047A839171B CALLER SWAP4 DUP1 LOG4 PUSH1 0x1 SWAP1 JUMP JUMPDEST ISZERO PUSH2 0x1A67 JUMPI JUMP JUMPDEST PUSH1 0x40 MLOAD PUSH3 0x461BCD PUSH1 0xE5 SHL DUP2 MSTORE PUSH1 0x20 PUSH1 0x4 DUP3 ADD MSTORE PUSH1 0x19 PUSH1 0x24 DUP3 ADD MSTORE PUSH32 0x436F6E6669673A2063616C6C6572206973206E6F742044414F00000000000000 PUSH1 0x44 DUP3 ADD MSTORE PUSH1 0x64 SWAP1 REVERT JUMPDEST PUSH1 0xFF AND DUP1 ISZERO PUSH2 0x1B16 JUMPI PUSH1 0x1 DUP2 EQ PUSH2 0x1B0F JUMPI PUSH1 0x2 EQ PUSH2 0x1B09 JUMPI PUSH1 0x40 MLOAD PUSH3 0x461BCD PUSH1 0xE5 SHL DUP2 MSTORE PUSH1 0x20 PUSH1 0x4 DUP3 ADD MSTORE PUSH1 0x19 PUSH1 0x24 DUP3 ADD MSTORE PUSH32 0x436F6E6669673A20696E76616C69642066656564207469657200000000000000 PUSH1 0x44 DUP3 ADD MSTORE PUSH1 0x64 SWAP1 REVERT JUMPDEST PUSH1 0x10 SLOAD SWAP1 JUMP JUMPDEST POP PUSH1 0xF SLOAD SWAP1 JUMP JUMPDEST POP PUSH1 0xE SLOAD SWAP1 JUMP JUMPDEST PUSH1 0xFF PUSH1 0x27 SLOAD AND ISZERO PUSH2 0x1B5A JUMPI PUSH1 0x26 SLOAD SWAP1 DUP2 DUP2 MUL SWAP2 DUP2 DUP4 DIV EQ SWAP1 ISZERO OR ISZERO PUSH2 0x1B44 JUMPI PUSH2 0x2710 SWAP1 DIV SWAP1 JUMP JUMPDEST PUSH4 0x4E487B71 PUSH1 0xE0 SHL PUSH1 0x0 MSTORE PUSH1 0x11 PUSH1 0x4 MSTORE PUSH1 0x24 PUSH1 0x0 REVERT JUMPDEST SWAP1 JUMP INVALID EXTCODESIZE 0x5D 0x4C 0xC6 0xD RETURNDATACOPY 0xC3 MLOAD PUSH15 0xE8AE083BD60934F6EB2A6C54B12299 DUP6 0xC4 SHL 0xFB MULMOD 0x2B 0x26 SUB DUP4 0xBA MSIZE 0xF6 ISZERO PUSH24 0x249BE5E1D5D48F41B4BE728E3DDB0C1B04C988D7CE5205EB 0xB8 0xEC SIGNEXTEND PUSH2 0xBF3C RETURN 0x4B 0xF PUSH13 0x79C91C69ED943EDC5B0DDF8BBE 0xB6 0xB3 0xC9 DUP13 0xEB RETURNDATACOPY 0xCE XOR 0xA6 0xE1 DUP10 LOG2 PUSH5 0x6970667358 0x22 SLT KECCAK256 MULMOD 0x29 CALL 0x1F OR SWAP16 EQ 0xAF 0xB0 0xF6 POP PUSH1 0x46 ISZERO 0xDA 0xD8 EXP SWAP6 SAR PREVRANDAO 0xB7 POP PUSH6 0x8E20B6992CD6 PUSH14 0x70AE64736F6C634300081400332F DUP8 DUP9 GT PUSH31 0x7EFF1D82E926EC794901D17C78024A50270940304540A733656F0D00000000 "},"methodIdentifiers":{"DAO_ROLE()":"e9c26518","DEFAULT_ADMIN_ROLE()":"a217fddf","GUARDIAN_ROLE()":"24ea54f4","OPERATOR_ROLE()":"f5b541a6","arbitrationFee()":"1cfa7ba8","closingFeedDeadline()":"dfb02536","closingFeedPenaltyRate()":"141b950b","creationFee()":"dce0b4e4","cryptoMarginCallDeadline()":"59c9c8c9","daoShare()":"88d19f1b","defaultArbitrationWindow()":"a98a92fa","defaultDailyLimitPercent()":"eda99994","defaultMarginCallDeadline()":"b028fb76","feedFee_10_7()":"1b30900b","feedFee_5_3()":"e883082f","feedFee_7_5()":"5f9aeb06","feedFeederShare()":"cd96255e","feedPlatformShare()":"1a5632b9","feedProtocolAddress()":"520d6821","foundationShare()":"f72084b2","getArbitrationWindow(bool)":"ab1df29c","getDiscountedFee(uint256)":"b661f733","getFeedFee(uint8)":"e5695991","getMarginCallDeadline(bool)":"1bdd9bc6","getRoleAdmin(bytes32)":"248a9ca3","grantRole(bytes32,address)":"2f2ff15d","growthNodeShare()":"f2588aa9","hasRole(bytes32,address)":"91d14854","initialFeedDeadline()":"c7d7c5fd","initialFeedPenaltyRate()":"2bec66e5","lpPoolShare()":"f5a0c480","maxConsecutiveDays()":"a414e044","maxExerciseDelay()":"f1d814b9","maxQuotesPerBuyerOrder()":"2f832f34","maxQuotesPerSellerOrder()":"222b9c43","minExerciseDelay()":"a6bfbe23","minFeederStake()":"c766d986","minMarginRate()":"5d8eb687","nodeRewardShare()":"62f5ad63","nstDiscount()":"16b263c5","nstDiscountEnabled()":"7d790ae1","nstDiscountRate()":"cb10ed01","nstTokenAddress()":"42df038c","optionsCoreAddress()":"41e5ce8e","pause()":"8456cb59","paused()":"5c975abb","pointsManagerAddress()":"0d8bb8ac","pointsMultiplier()":"86cdb33d","quoteValidityPeriod()":"0d42bada","renounceRole(bytes32,address)":"36568abe","revokeRole(bytes32,address)":"d547741f","rfqValidityPeriod()":"4f6bfad7","seatManagerAddress()":"f1c511c4","seatSellerInitialMargin()":"cb3c7b2d","setArbitrationFee(uint256)":"5ea7b4fc","setCreationFee(uint256)":"b7d86225","setFeedProtocolAddress(address)":"4e57e102","setMinFeederStake(uint256)":"e6481bd8","setMinMarginRate(uint256)":"134f6646","setNstDiscountEnabled(bool)":"6e56a57c","setNstDiscountRate(uint256)":"70504cf4","setOptionsCoreAddress(address)":"90ee6d0a","setPointsManagerAddress(address)":"39c02ea4","setQuoteValidityPeriod(uint256)":"e855dd39","setRfqValidityPeriod(uint256)":"43b827ed","setSeatManagerAddress(address)":"570c2a1e","setTradingFeeRate(uint256)":"1091f67c","setUsdtAddress(address)":"0cb46b75","setVaultManagerAddress(address)":"23068ac6","settlementArbitrationWindow()":"48e23ea8","supportsInterface(bytes4)":"01ffc9a7","teamFundShare()":"8f973f85","tokenBuybackShare()":"78dd8b0a","tradingFeeRate()":"e01df1a8","unpause()":"3f4ba83a","usdcAddress()":"02d45457","usdtAddress()":"9ab4a445","vaultManagerAddress()":"3d8b8cb2"}}}}}