{
  "_format": "hh-sol-artifact-1",
  "contractName": "FeedProtocol",
  "sourceName": "contracts/feed/FeedProtocol.sol",
  "abi": [
    {
      "inputs": [
        {
          "internalType": "address",
          "name": "_config",
          "type": "address"
        },
        {
          "internalType": "address",
          "name": "_usdt",
          "type": "address"
        },
        {
          "internalType": "address",
          "name": "_admin",
          "type": "address"
        }
      ],
      "stateMutability": "nonpayable",
      "type": "constructor"
    },
    {
      "inputs": [],
      "name": "AccessControlBadConfirmation",
      "type": "error"
    },
    {
      "inputs": [
        {
          "internalType": "address",
          "name": "account",
          "type": "address"
        },
        {
          "internalType": "bytes32",
          "name": "neededRole",
          "type": "bytes32"
        }
      ],
      "name": "AccessControlUnauthorizedAccount",
      "type": "error"
    },
    {
      "inputs": [],
      "name": "EnforcedPause",
      "type": "error"
    },
    {
      "inputs": [],
      "name": "ExpectedPause",
      "type": "error"
    },
    {
      "inputs": [],
      "name": "ReentrancyGuardReentrantCall",
      "type": "error"
    },
    {
      "inputs": [
        {
          "internalType": "address",
          "name": "token",
          "type": "address"
        }
      ],
      "name": "SafeERC20FailedOperation",
      "type": "error"
    },
    {
      "anonymous": false,
      "inputs": [
        {
          "indexed": true,
          "internalType": "uint256",
          "name": "requestId",
          "type": "uint256"
        },
        {
          "indexed": false,
          "internalType": "uint256",
          "name": "finalPrice",
          "type": "uint256"
        },
        {
          "indexed": false,
          "internalType": "uint256",
          "name": "timestamp",
          "type": "uint256"
        }
      ],
      "name": "FeedFinalized",
      "type": "event"
    },
    {
      "anonymous": false,
      "inputs": [
        {
          "indexed": true,
          "internalType": "uint256",
          "name": "requestId",
          "type": "uint256"
        },
        {
          "indexed": true,
          "internalType": "address",
          "name": "feeder",
          "type": "address"
        },
        {
          "indexed": false,
          "internalType": "string",
          "name": "reason",
          "type": "string"
        },
        {
          "indexed": false,
          "internalType": "uint256",
          "name": "timestamp",
          "type": "uint256"
        }
      ],
      "name": "FeedRejected",
      "type": "event"
    },
    {
      "anonymous": false,
      "inputs": [
        {
          "indexed": true,
          "internalType": "uint256",
          "name": "requestId",
          "type": "uint256"
        },
        {
          "indexed": true,
          "internalType": "uint256",
          "name": "orderId",
          "type": "uint256"
        },
        {
          "indexed": false,
          "internalType": "string",
          "name": "underlyingName",
          "type": "string"
        },
        {
          "indexed": false,
          "internalType": "string",
          "name": "underlyingCode",
          "type": "string"
        },
        {
          "indexed": false,
          "internalType": "string",
          "name": "market",
          "type": "string"
        },
        {
          "indexed": false,
          "internalType": "string",
          "name": "country",
          "type": "string"
        },
        {
          "indexed": false,
          "internalType": "enum FeedType",
          "name": "feedType",
          "type": "uint8"
        },
        {
          "indexed": false,
          "internalType": "enum LiquidationRule",
          "name": "liquidationRule",
          "type": "uint8"
        },
        {
          "indexed": false,
          "internalType": "uint8",
          "name": "consecutiveDays",
          "type": "uint8"
        },
        {
          "indexed": false,
          "internalType": "uint8",
          "name": "exerciseDelay",
          "type": "uint8"
        },
        {
          "indexed": false,
          "internalType": "uint256",
          "name": "timestamp",
          "type": "uint256"
        }
      ],
      "name": "FeedRequested",
      "type": "event"
    },
    {
      "anonymous": false,
      "inputs": [
        {
          "indexed": true,
          "internalType": "uint256",
          "name": "requestId",
          "type": "uint256"
        },
        {
          "indexed": true,
          "internalType": "address",
          "name": "feeder",
          "type": "address"
        },
        {
          "indexed": false,
          "internalType": "uint256",
          "name": "price",
          "type": "uint256"
        },
        {
          "indexed": false,
          "internalType": "uint256",
          "name": "timestamp",
          "type": "uint256"
        }
      ],
      "name": "FeedSubmitted",
      "type": "event"
    },
    {
      "anonymous": false,
      "inputs": [
        {
          "indexed": true,
          "internalType": "address",
          "name": "feeder",
          "type": "address"
        },
        {
          "indexed": false,
          "internalType": "string",
          "name": "reason",
          "type": "string"
        },
        {
          "indexed": false,
          "internalType": "uint256",
          "name": "timestamp",
          "type": "uint256"
        }
      ],
      "name": "FeederBlacklisted",
      "type": "event"
    },
    {
      "anonymous": false,
      "inputs": [
        {
          "indexed": true,
          "internalType": "address",
          "name": "feeder",
          "type": "address"
        },
        {
          "indexed": false,
          "internalType": "string",
          "name": "reason",
          "type": "string"
        },
        {
          "indexed": false,
          "internalType": "uint256",
          "name": "timestamp",
          "type": "uint256"
        }
      ],
      "name": "FeederDeactivated",
      "type": "event"
    },
    {
      "anonymous": false,
      "inputs": [
        {
          "indexed": true,
          "internalType": "address",
          "name": "feeder",
          "type": "address"
        },
        {
          "indexed": false,
          "internalType": "uint256",
          "name": "stakedAmount",
          "type": "uint256"
        },
        {
          "indexed": false,
          "internalType": "uint256",
          "name": "timestamp",
          "type": "uint256"
        }
      ],
      "name": "FeederRegistered",
      "type": "event"
    },
    {
      "anonymous": false,
      "inputs": [
        {
          "indexed": false,
          "internalType": "address",
          "name": "account",
          "type": "address"
        }
      ],
      "name": "Paused",
      "type": "event"
    },
    {
      "anonymous": false,
      "inputs": [
        {
          "indexed": true,
          "internalType": "uint256",
          "name": "requestId",
          "type": "uint256"
        },
        {
          "indexed": true,
          "internalType": "address",
          "name": "feeder",
          "type": "address"
        },
        {
          "indexed": false,
          "internalType": "uint256",
          "name": "amount",
          "type": "uint256"
        },
        {
          "indexed": false,
          "internalType": "uint256",
          "name": "timestamp",
          "type": "uint256"
        }
      ],
      "name": "RewardDistributed",
      "type": "event"
    },
    {
      "anonymous": false,
      "inputs": [
        {
          "indexed": true,
          "internalType": "bytes32",
          "name": "role",
          "type": "bytes32"
        },
        {
          "indexed": true,
          "internalType": "bytes32",
          "name": "previousAdminRole",
          "type": "bytes32"
        },
        {
          "indexed": true,
          "internalType": "bytes32",
          "name": "newAdminRole",
          "type": "bytes32"
        }
      ],
      "name": "RoleAdminChanged",
      "type": "event"
    },
    {
      "anonymous": false,
      "inputs": [
        {
          "indexed": true,
          "internalType": "bytes32",
          "name": "role",
          "type": "bytes32"
        },
        {
          "indexed": true,
          "internalType": "address",
          "name": "account",
          "type": "address"
        },
        {
          "indexed": true,
          "internalType": "address",
          "name": "sender",
          "type": "address"
        }
      ],
      "name": "RoleGranted",
      "type": "event"
    },
    {
      "anonymous": false,
      "inputs": [
        {
          "indexed": true,
          "internalType": "bytes32",
          "name": "role",
          "type": "bytes32"
        },
        {
          "indexed": true,
          "internalType": "address",
          "name": "account",
          "type": "address"
        },
        {
          "indexed": true,
          "internalType": "address",
          "name": "sender",
          "type": "address"
        }
      ],
      "name": "RoleRevoked",
      "type": "event"
    },
    {
      "anonymous": false,
      "inputs": [
        {
          "indexed": false,
          "internalType": "address",
          "name": "account",
          "type": "address"
        }
      ],
      "name": "Unpaused",
      "type": "event"
    },
    {
      "inputs": [],
      "name": "DEFAULT_ADMIN_ROLE",
      "outputs": [
        {
          "internalType": "bytes32",
          "name": "",
          "type": "bytes32"
        }
      ],
      "stateMutability": "view",
      "type": "function"
    },
    {
      "inputs": [],
      "name": "FEED_OPERATOR_ROLE",
      "outputs": [
        {
          "internalType": "bytes32",
          "name": "",
          "type": "bytes32"
        }
      ],
      "stateMutability": "view",
      "type": "function"
    },
    {
      "inputs": [],
      "name": "PROTOCOL_ROLE",
      "outputs": [
        {
          "internalType": "bytes32",
          "name": "",
          "type": "bytes32"
        }
      ],
      "stateMutability": "view",
      "type": "function"
    },
    {
      "inputs": [],
      "name": "SENIOR_FEEDER_ROLE",
      "outputs": [
        {
          "internalType": "bytes32",
          "name": "",
          "type": "bytes32"
        }
      ],
      "stateMutability": "view",
      "type": "function"
    },
    {
      "inputs": [
        {
          "internalType": "uint256",
          "name": "amount",
          "type": "uint256"
        }
      ],
      "name": "addStake",
      "outputs": [],
      "stateMutability": "nonpayable",
      "type": "function"
    },
    {
      "inputs": [
        {
          "internalType": "address",
          "name": "feeder",
          "type": "address"
        },
        {
          "internalType": "string",
          "name": "reason",
          "type": "string"
        }
      ],
      "name": "blacklistFeeder",
      "outputs": [],
      "stateMutability": "nonpayable",
      "type": "function"
    },
    {
      "inputs": [],
      "name": "config",
      "outputs": [
        {
          "internalType": "contract Config",
          "name": "",
          "type": "address"
        }
      ],
      "stateMutability": "view",
      "type": "function"
    },
    {
      "inputs": [
        {
          "internalType": "uint256",
          "name": "orderId",
          "type": "uint256"
        },
        {
          "internalType": "enum FeedType",
          "name": "feedType",
          "type": "uint8"
        },
        {
          "internalType": "enum FeedTier",
          "name": "tier",
          "type": "uint8"
        }
      ],
      "name": "createFeedRequest",
      "outputs": [
        {
          "internalType": "uint256",
          "name": "requestId",
          "type": "uint256"
        }
      ],
      "stateMutability": "payable",
      "type": "function"
    },
    {
      "inputs": [
        {
          "internalType": "uint256",
          "name": "",
          "type": "uint256"
        }
      ],
      "name": "feedRequests",
      "outputs": [
        {
          "internalType": "uint256",
          "name": "requestId",
          "type": "uint256"
        },
        {
          "internalType": "uint256",
          "name": "orderId",
          "type": "uint256"
        },
        {
          "internalType": "enum FeedType",
          "name": "feedType",
          "type": "uint8"
        },
        {
          "internalType": "enum FeedTier",
          "name": "tier",
          "type": "uint8"
        },
        {
          "internalType": "uint256",
          "name": "deadline",
          "type": "uint256"
        },
        {
          "internalType": "uint256",
          "name": "createdAt",
          "type": "uint256"
        },
        {
          "internalType": "uint256",
          "name": "totalFeeders",
          "type": "uint256"
        },
        {
          "internalType": "uint256",
          "name": "submittedCount",
          "type": "uint256"
        },
        {
          "internalType": "uint256",
          "name": "finalPrice",
          "type": "uint256"
        },
        {
          "internalType": "bool",
          "name": "finalized",
          "type": "bool"
        }
      ],
      "stateMutability": "view",
      "type": "function"
    },
    {
      "inputs": [
        {
          "internalType": "uint256",
          "name": "",
          "type": "uint256"
        }
      ],
      "name": "feederList",
      "outputs": [
        {
          "internalType": "address",
          "name": "",
          "type": "address"
        }
      ],
      "stateMutability": "view",
      "type": "function"
    },
    {
      "inputs": [],
      "name": "feederSelector",
      "outputs": [
        {
          "internalType": "address",
          "name": "",
          "type": "address"
        }
      ],
      "stateMutability": "view",
      "type": "function"
    },
    {
      "inputs": [
        {
          "internalType": "address",
          "name": "",
          "type": "address"
        }
      ],
      "name": "feeders",
      "outputs": [
        {
          "internalType": "address",
          "name": "feederAddress",
          "type": "address"
        },
        {
          "internalType": "uint256",
          "name": "stakedAmount",
          "type": "uint256"
        },
        {
          "internalType": "uint256",
          "name": "completedFeeds",
          "type": "uint256"
        },
        {
          "internalType": "uint256",
          "name": "rejectedFeeds",
          "type": "uint256"
        },
        {
          "internalType": "uint256",
          "name": "registeredAt",
          "type": "uint256"
        },
        {
          "internalType": "bool",
          "name": "isActive",
          "type": "bool"
        },
        {
          "internalType": "bool",
          "name": "isBlacklisted",
          "type": "bool"
        }
      ],
      "stateMutability": "view",
      "type": "function"
    },
    {
      "inputs": [
        {
          "internalType": "uint256",
          "name": "requestId",
          "type": "uint256"
        }
      ],
      "name": "finalizeFeed",
      "outputs": [
        {
          "internalType": "uint256",
          "name": "finalPrice",
          "type": "uint256"
        }
      ],
      "stateMutability": "nonpayable",
      "type": "function"
    },
    {
      "inputs": [],
      "name": "getActiveFeeders",
      "outputs": [
        {
          "internalType": "address[]",
          "name": "",
          "type": "address[]"
        }
      ],
      "stateMutability": "view",
      "type": "function"
    },
    {
      "inputs": [
        {
          "internalType": "enum FeedTier",
          "name": "tier",
          "type": "uint8"
        }
      ],
      "name": "getFeedFee",
      "outputs": [
        {
          "internalType": "uint256",
          "name": "",
          "type": "uint256"
        }
      ],
      "stateMutability": "view",
      "type": "function"
    },
    {
      "inputs": [
        {
          "internalType": "uint256",
          "name": "requestId",
          "type": "uint256"
        }
      ],
      "name": "getFeedRequest",
      "outputs": [
        {
          "components": [
            {
              "internalType": "uint256",
              "name": "requestId",
              "type": "uint256"
            },
            {
              "internalType": "uint256",
              "name": "orderId",
              "type": "uint256"
            },
            {
              "internalType": "enum FeedType",
              "name": "feedType",
              "type": "uint8"
            },
            {
              "internalType": "enum FeedTier",
              "name": "tier",
              "type": "uint8"
            },
            {
              "internalType": "uint256",
              "name": "deadline",
              "type": "uint256"
            },
            {
              "internalType": "uint256",
              "name": "createdAt",
              "type": "uint256"
            },
            {
              "internalType": "uint256",
              "name": "totalFeeders",
              "type": "uint256"
            },
            {
              "internalType": "uint256",
              "name": "submittedCount",
              "type": "uint256"
            },
            {
              "internalType": "uint256",
              "name": "finalPrice",
              "type": "uint256"
            },
            {
              "internalType": "bool",
              "name": "finalized",
              "type": "bool"
            }
          ],
          "internalType": "struct FeedRequest",
          "name": "",
          "type": "tuple"
        }
      ],
      "stateMutability": "view",
      "type": "function"
    },
    {
      "inputs": [
        {
          "internalType": "address",
          "name": "feeder",
          "type": "address"
        }
      ],
      "name": "getFeeder",
      "outputs": [
        {
          "components": [
            {
              "internalType": "address",
              "name": "feederAddress",
              "type": "address"
            },
            {
              "internalType": "uint256",
              "name": "stakedAmount",
              "type": "uint256"
            },
            {
              "internalType": "uint256",
              "name": "completedFeeds",
              "type": "uint256"
            },
            {
              "internalType": "uint256",
              "name": "rejectedFeeds",
              "type": "uint256"
            },
            {
              "internalType": "uint256",
              "name": "registeredAt",
              "type": "uint256"
            },
            {
              "internalType": "bool",
              "name": "isActive",
              "type": "bool"
            },
            {
              "internalType": "bool",
              "name": "isBlacklisted",
              "type": "bool"
            }
          ],
          "internalType": "struct FeedProtocol.Feeder",
          "name": "",
          "type": "tuple"
        }
      ],
      "stateMutability": "view",
      "type": "function"
    },
    {
      "inputs": [],
      "name": "getFeederCount",
      "outputs": [
        {
          "internalType": "uint256",
          "name": "",
          "type": "uint256"
        }
      ],
      "stateMutability": "view",
      "type": "function"
    },
    {
      "inputs": [
        {
          "internalType": "uint256",
          "name": "orderId",
          "type": "uint256"
        }
      ],
      "name": "getOrderFeedRequests",
      "outputs": [
        {
          "internalType": "uint256[]",
          "name": "",
          "type": "uint256[]"
        }
      ],
      "stateMutability": "view",
      "type": "function"
    },
    {
      "inputs": [
        {
          "internalType": "bytes32",
          "name": "role",
          "type": "bytes32"
        }
      ],
      "name": "getRoleAdmin",
      "outputs": [
        {
          "internalType": "bytes32",
          "name": "",
          "type": "bytes32"
        }
      ],
      "stateMutability": "view",
      "type": "function"
    },
    {
      "inputs": [
        {
          "internalType": "uint256",
          "name": "requestId",
          "type": "uint256"
        }
      ],
      "name": "getSubmissions",
      "outputs": [
        {
          "components": [
            {
              "internalType": "address",
              "name": "feeder",
              "type": "address"
            },
            {
              "internalType": "uint256",
              "name": "price",
              "type": "uint256"
            },
            {
              "internalType": "uint256",
              "name": "timestamp",
              "type": "uint256"
            },
            {
              "internalType": "bool",
              "name": "isValid",
              "type": "bool"
            }
          ],
          "internalType": "struct FeedProtocol.FeedSubmission[]",
          "name": "",
          "type": "tuple[]"
        }
      ],
      "stateMutability": "view",
      "type": "function"
    },
    {
      "inputs": [
        {
          "internalType": "address",
          "name": "protocol",
          "type": "address"
        }
      ],
      "name": "grantProtocolRole",
      "outputs": [],
      "stateMutability": "nonpayable",
      "type": "function"
    },
    {
      "inputs": [
        {
          "internalType": "bytes32",
          "name": "role",
          "type": "bytes32"
        },
        {
          "internalType": "address",
          "name": "account",
          "type": "address"
        }
      ],
      "name": "grantRole",
      "outputs": [],
      "stateMutability": "nonpayable",
      "type": "function"
    },
    {
      "inputs": [
        {
          "internalType": "address",
          "name": "feeder",
          "type": "address"
        }
      ],
      "name": "grantSeniorFeederRole",
      "outputs": [],
      "stateMutability": "nonpayable",
      "type": "function"
    },
    {
      "inputs": [
        {
          "internalType": "bytes32",
          "name": "role",
          "type": "bytes32"
        },
        {
          "internalType": "address",
          "name": "account",
          "type": "address"
        }
      ],
      "name": "hasRole",
      "outputs": [
        {
          "internalType": "bool",
          "name": "",
          "type": "bool"
        }
      ],
      "stateMutability": "view",
      "type": "function"
    },
    {
      "inputs": [
        {
          "internalType": "uint256",
          "name": "",
          "type": "uint256"
        },
        {
          "internalType": "address",
          "name": "",
          "type": "address"
        }
      ],
      "name": "hasSubmitted",
      "outputs": [
        {
          "internalType": "bool",
          "name": "",
          "type": "bool"
        }
      ],
      "stateMutability": "view",
      "type": "function"
    },
    {
      "inputs": [],
      "name": "nextRequestId",
      "outputs": [
        {
          "internalType": "uint256",
          "name": "",
          "type": "uint256"
        }
      ],
      "stateMutability": "view",
      "type": "function"
    },
    {
      "inputs": [
        {
          "internalType": "uint256",
          "name": "",
          "type": "uint256"
        },
        {
          "internalType": "uint256",
          "name": "",
          "type": "uint256"
        }
      ],
      "name": "orderFeedRequests",
      "outputs": [
        {
          "internalType": "uint256",
          "name": "",
          "type": "uint256"
        }
      ],
      "stateMutability": "view",
      "type": "function"
    },
    {
      "inputs": [],
      "name": "pause",
      "outputs": [],
      "stateMutability": "nonpayable",
      "type": "function"
    },
    {
      "inputs": [],
      "name": "paused",
      "outputs": [
        {
          "internalType": "bool",
          "name": "",
          "type": "bool"
        }
      ],
      "stateMutability": "view",
      "type": "function"
    },
    {
      "inputs": [
        {
          "internalType": "uint256",
          "name": "stakeAmount",
          "type": "uint256"
        }
      ],
      "name": "registerFeeder",
      "outputs": [],
      "stateMutability": "nonpayable",
      "type": "function"
    },
    {
      "inputs": [
        {
          "internalType": "uint256",
          "name": "requestId",
          "type": "uint256"
        },
        {
          "internalType": "string",
          "name": "reason",
          "type": "string"
        }
      ],
      "name": "rejectFeed",
      "outputs": [],
      "stateMutability": "nonpayable",
      "type": "function"
    },
    {
      "inputs": [
        {
          "internalType": "bytes32",
          "name": "role",
          "type": "bytes32"
        },
        {
          "internalType": "address",
          "name": "callerConfirmation",
          "type": "address"
        }
      ],
      "name": "renounceRole",
      "outputs": [],
      "stateMutability": "nonpayable",
      "type": "function"
    },
    {
      "inputs": [
        {
          "internalType": "uint256",
          "name": "",
          "type": "uint256"
        },
        {
          "internalType": "uint256",
          "name": "",
          "type": "uint256"
        }
      ],
      "name": "requestSubmissions",
      "outputs": [
        {
          "internalType": "address",
          "name": "feeder",
          "type": "address"
        },
        {
          "internalType": "uint256",
          "name": "price",
          "type": "uint256"
        },
        {
          "internalType": "uint256",
          "name": "timestamp",
          "type": "uint256"
        },
        {
          "internalType": "bool",
          "name": "isValid",
          "type": "bool"
        }
      ],
      "stateMutability": "view",
      "type": "function"
    },
    {
      "inputs": [
        {
          "internalType": "bytes32",
          "name": "role",
          "type": "bytes32"
        },
        {
          "internalType": "address",
          "name": "account",
          "type": "address"
        }
      ],
      "name": "revokeRole",
      "outputs": [],
      "stateMutability": "nonpayable",
      "type": "function"
    },
    {
      "inputs": [
        {
          "internalType": "address",
          "name": "_config",
          "type": "address"
        }
      ],
      "name": "setConfig",
      "outputs": [],
      "stateMutability": "nonpayable",
      "type": "function"
    },
    {
      "inputs": [
        {
          "internalType": "address",
          "name": "_feederSelector",
          "type": "address"
        }
      ],
      "name": "setFeederSelector",
      "outputs": [],
      "stateMutability": "nonpayable",
      "type": "function"
    },
    {
      "inputs": [
        {
          "internalType": "uint256",
          "name": "requestId",
          "type": "uint256"
        },
        {
          "internalType": "uint256",
          "name": "price",
          "type": "uint256"
        }
      ],
      "name": "submitFeed",
      "outputs": [],
      "stateMutability": "nonpayable",
      "type": "function"
    },
    {
      "inputs": [
        {
          "internalType": "bytes4",
          "name": "interfaceId",
          "type": "bytes4"
        }
      ],
      "name": "supportsInterface",
      "outputs": [
        {
          "internalType": "bool",
          "name": "",
          "type": "bool"
        }
      ],
      "stateMutability": "view",
      "type": "function"
    },
    {
      "inputs": [
        {
          "internalType": "enum FeedTier",
          "name": "",
          "type": "uint8"
        }
      ],
      "name": "tierConfigs",
      "outputs": [
        {
          "internalType": "uint8",
          "name": "totalFeeders",
          "type": "uint8"
        },
        {
          "internalType": "uint8",
          "name": "effectiveFeeds",
          "type": "uint8"
        },
        {
          "internalType": "uint256",
          "name": "platformFee",
          "type": "uint256"
        },
        {
          "internalType": "uint256",
          "name": "feederReward",
          "type": "uint256"
        },
        {
          "internalType": "uint256",
          "name": "totalFee",
          "type": "uint256"
        }
      ],
      "stateMutability": "view",
      "type": "function"
    },
    {
      "inputs": [],
      "name": "unpause",
      "outputs": [],
      "stateMutability": "nonpayable",
      "type": "function"
    },
    {
      "inputs": [],
      "name": "usdt",
      "outputs": [
        {
          "internalType": "contract IERC20",
          "name": "",
          "type": "address"
        }
      ],
      "stateMutability": "view",
      "type": "function"
    },
    {
      "inputs": [
        {
          "internalType": "address",
          "name": "to",
          "type": "address"
        }
      ],
      "name": "withdrawPlatformFees",
      "outputs": [],
      "stateMutability": "nonpayable",
      "type": "function"
    },
    {
      "inputs": [
        {
          "internalType": "uint256",
          "name": "amount",
          "type": "uint256"
        }
      ],
      "name": "withdrawStake",
      "outputs": [],
      "stateMutability": "nonpayable",
      "type": "function"
    }
  ],
  "bytecode": "0x6080346200024557601f6200313738819003918201601f191683019291906001600160401b038411838510176200024a5781606092849260409687528339810103126200024557620000518162000280565b9060206200006e846200006683850162000280565b930162000280565b6001808055600581905560028054610100600160a81b03191660089690961b610100600160a81b0316959095178555600380546001600160a01b0319166001600160a01b039095169490941784559390620000d590620000ce8162000295565b5062000315565b50620000e062000260565b93600585528285019084825286860195670429d069189e00008752606081019067257853b1dd8e0000825286608082016729a2241af62c00008152600093848052600b895260ff8c86209451169a84549b61ff0080995160081b169061ffff19809e161717855551868501555187840155519101556200015f62000260565b600781528689878301600581528184016706f05b59d3b2000081526060850191673e73362871420000835260ff6080870194674563918244f400008652898952600b8d5288209651168d8a8854935160081b169216171785555186850155518784015551910155620001d062000260565b968793600a8552868501916007835260ff8b80880195670b1a2bc2ec5000008752600b608060608b019a6763eb89da4ed000008c52019b676f05b59d3b2000008d528b835252209a5116918a54935160081b16921617178755519086015551908401555191015551612d5f9081620003b88239f35b600080fd5b634e487b7160e01b600052604160045260246000fd5b6040519060a082016001600160401b038111838210176200024a57604052565b51906001600160a01b03821682036200024557565b6001600160a01b031660008181527fad3228b676f7d3cd4284a5443f17f1962b36e491b30a40b2405849e597ba5fb5602052604081205490919060ff166200031157818052816020526040822081835260205260408220600160ff198254161790553391600080516020620031178339815191528180a4600190565b5090565b6001600160a01b031660008181527fa0cfc50be65892217a92eab74d4b8dca267a17d5b74f05a4a7cdee0906a51faf60205260408120549091907f70b284da8bfc3de812daa2261b4c3ffadd90c2c772295293d09c9629a737a0cd9060ff16620003b257808352826020526040832082845260205260408320600160ff1982541617905560008051602062003117833981519152339380a4600190565b50509056fe608080604052600436101561001357600080fd5b60003560e01c90816301ffc9a71461209d5750806302768de41461206257806304b86cb314611d195780630aa3166114611c93578063121c604b14611c5157806315450ace14611be757806316c53ced14611ae257806320e3dbd414611a9a578063248a9ca314611a6b57806325d5971f146118fc5780632f0165ca146118c15780632f0e6ca5146117a95780632f2ff15d1461176a5780632f48ab7d1461174157806336568abe146116fa5780633929fcd3146113e35780633bf5e3a9146113385780633f4ba83a146112ce5780633fe1ddd214610faf57806346b6270314610db057806346f53d1e14610d335780635c975abb14610d105780635cf72f5414610ce75780635efd950814610ca45780636a84a98514610c8657806375136ddc14610c4757806379502c5514610c1a57806382ae8f0114610bf45780638456cb5914610b9a5780638ec9f03814610b5f57806391d1485414610b125780639ba7646c14610a175780639da9db2a146109a9578063a217fddf1461098d578063a57d380614610940578063c7c7b02f146108c3578063d547741f14610884578063db18c18914610723578063e5695991146106e2578063eb4f16b514610623578063eb7bb5a7146103f3578063ec3889b5146102cc578063ec5bfc6c146102ae5763f608463a1461020357600080fd5b346102a9576020806003193601126102a957600435600052600c8152604060002060405190818382549182815201908192600052846000209060005b8682821061029557868661025582880383612534565b604051928392818401908285525180915260408401929160005b82811061027e57505050500390f35b83518552869550938101939281019260010161026f565b83548552909301926001928301920161023f565b600080fd5b346102a95760003660031901126102a9576020600a54604051908152f35b346102a9576020806003193601126102a9576102e66120f0565b6102ee6121f8565b600380546040516370a0823160e01b81523060048201526001600160a01b03918216949092908084602481895afa9384156103e7576000946103b8575b509190600092600092600a54925b83851061037657505050505080821160001461036c5761035891612694565b905b8161036157005b61036a926126a1565b005b505060009061035a565b90919293946103a96103af918461038c8961211c565b905490861b1c166000526009865260016040600020015490612687565b956126da565b93929190610339565b9080945081813d83116103e0575b6103d08183612534565b810103126102a95751928661032b565b503d6103c6565b6040513d6000823e3d90fd5b346102a9576020806003193601126102a95760043590610411612664565b610419612646565b3360009081526009825260409020546001600160a01b039081166105e05780826002546004604051809481936363b36cc360e11b835260081c165afa80156103e7576000906105b1575b6104709150841015612556565b610482838260035416309033906125a1565b60405161048e81612518565b33815282810184815261051d60056040840193600085526060810160008152608082019042825260a08301966001885260c0840196600088523360005260098b528960406000209551166bffffffffffffffffffffffff60a01b8654161785555160018501555160028401555160038301555160048201550192511515839060ff801983541691151516179055565b51815461ff00191690151560081b61ff0016179055600a54600160401b81101561059b578060016105519201600a5561211c565b819291549060031b9133831b921b191617905560405191825242908201527f53226fcf6c46a949f058f2002cb48f6897bf6c0bd2f030158d655ba38d44a16c60403392a260018055005b634e487b7160e01b600052604160045260246000fd5b508281813d83116105d9575b6105c78183612534565b810103126102a9576104709051610463565b503d6105bd565b6064826040519062461bcd60e51b825280600483015260248201527f4665656450726f746f636f6c3a20616c726561647920726567697374657265646044820152fd5b346102a95760203660031901126102a95760043561063f612664565b610647612646565b336000908152600960205260409020546001600160a01b039081161561069d57816106799160035416309033906125a1565b3360005260096020526106956001604060002001918254612687565b905560018055005b60405162461bcd60e51b815260206004820152601c60248201527f4665656450726f746f636f6c3a206e6f742072656769737465726564000000006044820152606490fd5b346102a95760203660031901126102a95760043560038110156102a957610708816121ee565b600052600b6020526020600360406000200154604051908152f35b346102a95760203660031901126102a957610140604051610743816124df565b6000815260006020820152600060408201526000606082015260006080820152600060a0820152600060c0820152600060e08201526101009060008282015260006101208092015260043560005260066020526040600020604051926107a8846124df565b815484528360018301549260208201938452600281015460ff60408401916107d2828216846126e9565b60081c1660608401906107e4816121ee565b815260038301546080850190815260048401549160a0860192835261084f60058601549460c0880195865260ff600860068901549860e08b01998a528b60078201549b019a8b52015416998b8d019a15158b526040519c518d525160208d01525160408c01906121e1565b51610859816121ee565b60608a01525160808901525160a08801525160c08701525160e0860152519084015251151590820152f35b346102a95760403660031901126102a95761036a6004356108a3612106565b908060005260006020526108be600160406000200154612250565b61244e565b346102a95760203660031901126102a95761036a6108df6120f0565b6108e76121f8565b7fba279271fb7bbf76a6f3df3cc57bf80647fcafdea60ec3383d90f459de74e7c060009081526020527fbb186cc6582165753931a58fdaac99b9482f9d63c76229808bd3afc382e982165461093b90612250565b612328565b346102a95760403660031901126102a957610959612106565b600435600052600860205260406000209060018060a01b0316600052602052602060ff604060002054166040519015158152f35b346102a95760003660031901126102a957602060405160008152f35b346102a95760203660031901126102a95760043560038110156102a9576109cf816121ee565b600052600b60205260a06040600020805490600181015490600360028201549101549160ff60405194818116865260081c166020850152604084015260608301526080820152f35b346102a95760203660031901126102a95760e0610a326120f0565b600060c0604051610a4281612518565b8281528260208201528260408201528260608201528260808201528260a0820152015260018060a01b038091166000526009602052604060002060405191610a8983612518565b81541691828152600182015491602082019283526002810154604083019081526003820154906060840191825260056004840154936080860194855201549460ff60c060a087019682891615158852019660081c161515865260405196875251602087015251604086015251606085015251608084015251151560a083015251151560c0820152f35b346102a95760403660031901126102a957610b2b612106565b600435600052600060205260406000209060018060a01b0316600052602052602060ff604060002054166040519015158152f35b346102a95760003660031901126102a95760206040517f92a9bfc44b11bdcb4ce1c7bb0f30145a060370f7684a9cf6c25518e5775772698152f35b346102a95760003660031901126102a957610bb36121f8565b610bbb612646565b600160ff1960025416176002557f62e78cea01bee320cd4e420270b5ea74000d11b0c9f74754ebdbfc544b05a2586020604051338152a1005b346102a95760203660031901126102a9576020610c126004356128cb565b604051908152f35b346102a95760003660031901126102a95760025460405160089190911c6001600160a01b03168152602090f35b346102a957610c5536612181565b90600052600c602052604060002080548210156102a957602091610c7891612169565b90546040519160031b1c8152f35b346102a95760003660031901126102a9576020600554604051908152f35b346102a95760203660031901126102a957610cbd6120f0565b610cc56121f8565b600480546001600160a01b0319166001600160a01b0392909216919091179055005b346102a95760003660031901126102a9576004546040516001600160a01b039091168152602090f35b346102a95760003660031901126102a957602060ff600254166040519015158152f35b346102a95760203660031901126102a95761036a610d4f6120f0565b610d576121f8565b7f92a9bfc44b11bdcb4ce1c7bb0f30145a060370f7684a9cf6c25518e57757726960009081526020527fb9aa941adaec809e6b0427677375ac0b3d84ba99295ec0ba010b381b51e9479254610dab90612250565b612276565b346102a95760403660031901126102a95760043560243567ffffffffffffffff81116102a957610de49036906004016121b3565b919081151580610fa4575b610df8906126f5565b3360005260209060098252610e1760ff60056040600020015416612741565b3360005260098252610e3760ff60056040600020015460081c161561278d565b336000526009825260046001604060002001548360018060a01b0360025460081c16604051938480926363b36cc360e11b82525afa9182156103e757600092610f53575b507f5d7b755f33872c8c5fe6e178f7b9e167e0aa5f0407495210e7e0c8835a21cadb93610eb0610f4a94936009931015612556565b610eb8612664565b610ec0612646565b8560005260068152610edd60ff60086040600020015416156127d8565b85600052600881526040600020336000528152610f0260ff6040600020541615612824565b856000526008815260406000203360005281526040600020600160ff19825416179055526003604060002001610f3881546126da565b90556040519182913396429184612870565b0390a360018055005b9291508383813d8311610f9d575b610f6b8183612534565b810103126102a957915190917f5d7b755f33872c8c5fe6e178f7b9e167e0aa5f0407495210e7e0c8835a21cadb610e7b565b503d610f61565b506005548210610def565b346102a957610fbd36612181565b90801515806112c3575b610fd0906126f5565b3360005260209160098352610fef60ff60056040600020015416612741565b336000526009835261100f60ff60056040600020015460081c161561278d565b3360005260098352600192836040600020015490600460018060a01b0392828460025460081c16604051938480926363b36cc360e11b82525afa9081156103e757600091611292575b61106492501015612556565b61106c612664565b611074612646565b836000526006815260406000209261109360ff600886015416156127d8565b6003840154421161124d57846000526008825260406000203360005282526110c360ff6040600020541615612824565b80156111fc578460005260088252604060002033600052825260406000208660ff1982541617905560068401916110fa83546126da565b8355856000526007815260406000209360405194611117866124fc565b33865282860195848752604081019142835260608201908b82528054600160401b81101561059b5761114d918d82018155612197565b9390936111e6576005986111979560039451166bffffffffffffffffffffffff60a01b865416178555518c85015551600284015551151591019060ff801983541691151516179055565b6040519182524290820152847fdc37948d08732ed33078677fc43276d929de5bc1d96edc08562d508c79adc01c60403393a35491015411156111d857508055005b6111e1906128cb565b508055005b634e487b7160e01b600052600060045260246000fd5b60405162461bcd60e51b8152600481018390526024808201527f4665656450726f746f636f6c3a207072696365206d75737420626520706f73696044820152637469766560e01b6064820152608490fd5b60405162461bcd60e51b815260048101839052601d60248201527f4665656450726f746f636f6c3a207265717565737420657870697265640000006044820152606490fd5b90508282813d83116112bc575b6112a98183612534565b810103126102a957611064915190611058565b503d61129f565b506005548110610fc7565b346102a95760003660031901126102a9576112e76121f8565b60025460ff8116156113265760ff19166002557f5db9ee0a495bf2e6ff9c91a7834c1ba4fdd244a5e8aa4e537bd38aeae4b073aa6020604051338152a1005b604051638dfc202b60e01b8152600490fd5b346102a95760203660031901126102a95760043560005260066020526101406040600020805490600181015490600281015460ff8160081c1660038301546004840154906005850154926113b160068701549560ff600860078a015499015416986040519a8b5260208b015260ff60408b0191166121e1565b6113ba816121ee565b6060880152608087015260a086015260c085015260e08401526101008301521515610120820152f35b346102a95760003660031901126102a957600a546000805b8281106115c9575061142561140f8261289f565b9161141d6040519384612534565b80835261289f565b6020928383019291601f19013684376000805b82811061148c5750505090604051928392818401908285525180915260408401929160005b82811061146c57505050500390f35b83516001600160a01b03168552869550938101939281019260010161145d565b6114958161211c565b60018060a01b03809254600392831b1c16600052600980895260ff9060059180836040600020015416928361159a575b505081611514575b506114e3575b50506114de906126da565b611438565b9261150c9183946114f66114de9561211c565b9054911b1c1661150682886128b7565b526126da565b9190876114d3565b9050826115208561211c565b905490841b1c1660005288526004600160406000200154898460025460081c16604051938480926363b36cc360e11b82525afa9182156103e75760009261156b575b501015896114cd565b9091508981813d8311611593575b6115838183612534565b810103126102a95751908a611562565b503d611579565b90919250846115a88761211c565b905490861b1c16600052828b526040600020015460081c1615908a806114c5565b6115d28161211c565b9054600391821b1c6001600160a01b03908116600090815260096020818152604090922060059081015460ff908116949291856116cb575b50508361163f575b505050905061162a575b611625906126da565b6113fb565b90611637611625916126da565b91905061161c565b919381935061164d8661211c565b9054911b1c1660005282526004826001604060002001549260025460081c16604051928380926363b36cc360e11b82525afa9283156103e75760009361169b575b5050101580858080611612565b9080929350813d83116116c4575b6116b38183612534565b810103126102a9575190858061168e565b503d6116a9565b90919450826116d98861211c565b905490881b1c166000528484526040600020015460081c161592888061160a565b346102a95760403660031901126102a957611713612106565b336001600160a01b0382160361172f5761036a9060043561244e565b60405163334bd91960e11b8152600490fd5b346102a95760003660031901126102a9576003546040516001600160a01b039091168152602090f35b346102a95760403660031901126102a95761036a600435611789612106565b908060005260006020526117a4600160406000200154612250565b6123d5565b346102a95760403660031901126102a9576117c26120f0565b60243567ffffffffffffffff81116102a9576117e29036906004016121b3565b3360009081527fa0cfc50be65892217a92eab74d4b8dca267a17d5b74f05a4a7cdee0906a51faf60205260409020549092919060ff161561187c577fa172cc290b2e00bc2a34c06a4d70cd942037859cca624f051cd830b4b268eac59160018060a01b031692836000526009602052600560406000200161010061ffff19825416179055611877604051928392429184612870565b0390a2005b60405162461bcd60e51b815260206004820152601a60248201527f4665656450726f746f636f6c3a206e6f74206f70657261746f720000000000006044820152606490fd5b346102a95760003660031901126102a95760206040517f70b284da8bfc3de812daa2261b4c3ffadd90c2c772295293d09c9629a737a0cd8152f35b346102a9576020806003193601126102a957600435611919612664565b611921612646565b3360005260098252604060002091600183019283549361194384861015612556565b61194d8486612694565b6002546040516363b36cc360e11b81526001600160a01b039592909183908390600490829060081c8a165afa9182156103e757600092611a3c575b5010801590611a33575b156119d157506119a5846119ba96612694565b809155156119c0575b503390600354166126a1565b60018055005b600501805460ff19169055836119ae565b6084906040519062461bcd60e51b82526004820152603560248201527f4665656450726f746f636f6c3a206d757374206d61696e7461696e206d696e206044820152741cdd185ad9481bdc881dda5d1a191c985dc8185b1b605a1b6064820152fd5b50858514611992565b9091508281813d8311611a64575b611a548183612534565b810103126102a957519088611988565b503d611a4a565b346102a95760203660031901126102a95760043560005260006020526020600160406000200154604051908152f35b346102a95760203660031901126102a957611ab36120f0565b611abb6121f8565b60028054610100600160a81b03191660089290921b610100600160a81b0316919091179055005b346102a9576020806003193601126102a957600435600052600781526040600020908154611b0f8161289f565b90611b1d6040519283612534565b8082528282018094600052836000206000915b838310611b9b5760408051878152865181890181905289928201908960005b828110611b5c5784840385f35b855180516001600160a01b0316855280830151858401526040808201519086015260609081015115159085015294810194608090930192600101611b4f565b600486600192604051611bad816124fc565b848060a01b03865416815284860154838201526002860154604082015260ff60038701541615156060820152815201920192019190611b30565b346102a957611bf536612181565b906000526007602052604060002080548210156102a957608091611c1891612197565b5060018060a01b038154169060018101549060ff6003600283015492015416916040519384526020840152604083015215156060820152f35b346102a95760203660031901126102a957600435600a548110156102a957611c7a60209161211c565b905460405160039290921b1c6001600160a01b03168152f35b346102a95760203660031901126102a95760e06001600160a01b0380611cb76120f0565b16600052600960205260ff60406000209182541691600181015490600281015460038201549060056004840154930154936040519687526020870152604086015260608501526080840152818116151560a084015260081c16151560c0820152f35b60603660031901126102a957600435600460243510156102a95760443560038110156102a9573360009081527fbb186cc6582165753931a58fdaac99b9482f9d63c76229808bd3afc382e98215602052604090205460ff161561200f57611d7e612664565b611d87816121ee565b80600052600b6020526040600020611de9600360405192611da7846124c3565b60ff8154818116865260081c1660208501526001810154604085015260028101546060850152015480608084015260018060a01b0360035416309033906125a1565b60055491611df6836126da565b600555610708420191824211611ff95751604051929060ff16611e18846124df565b84845260208401928684526040850194611e34602435876126e9565b6060810191611e42816121ee565b82526080810193845260a081019242845260c0820190815260e08201906000825260006101008401526101208301946000865289600052600660205260406000209784518955516001890155600288019851966004881015611fe357896008986101009760ff61ff00611f089e549251611ebb816121ee565b611ec4816121ee565b8d1b1692169061ffff1916171790555160038901555160048801555160058701555160068601550151600784015551151591019060ff801983541691151516179055565b81600052600c602052604060002091825492600160401b84101561059b5783611f38916001602096018155612169565b81549060031b9084821b91600019901b1916179055817f615e8f1333715c833aeea3803d6aa6f09d73c6db60f9ed7d1ded1cec09b48d9a6101a0604051610120815260006101208201526000610140808984015282015260006101608060408401528201526000610180806060840152820152611fba608082016024356121e1565b600060a0820152600060c0820152600060e082015242610100820152a360018055604051908152f35b634e487b7160e01b600052602160045260246000fd5b634e487b7160e01b600052601160045260246000fd5b60405162461bcd60e51b815260206004820152602560248201527f4665656450726f746f636f6c3a206e6f7420617574686f72697a65642070726f6044820152641d1bd8dbdb60da1b6064820152608490fd5b346102a95760003660031901126102a95760206040517fba279271fb7bbf76a6f3df3cc57bf80647fcafdea60ec3383d90f459de74e7c08152f35b346102a95760203660031901126102a9576004359063ffffffff60e01b82168092036102a957602091637965db0b60e01b81149081156120df575b5015158152f35b6301ffc9a760e01b149050836120d8565b600435906001600160a01b03821682036102a957565b602435906001600160a01b03821682036102a957565b600a5481101561215357600a6000527fc65a7bb8d6351c1cf70c95a316cc6a92839c986682d98bc35f958f4883f9d2a80190600090565b634e487b7160e01b600052603260045260246000fd5b80548210156121535760005260206000200190600090565b60409060031901126102a9576004359060243590565b80548210156121535760005260206000209060021b0190600090565b9181601f840112156102a95782359167ffffffffffffffff83116102a957602083818601950101116102a957565b906004821015611fe35752565b60031115611fe357565b3360009081527fad3228b676f7d3cd4284a5443f17f1962b36e491b30a40b2405849e597ba5fb5602052604081205460ff16156122325750565b6044906040519063e2517d3f60e01b82523360048301526024820152fd5b80600052600060205260406000203360005260205260ff60406000205416156122325750565b6001600160a01b031660008181527fb9aa941adaec809e6b0427677375ac0b3d84ba99295ec0ba010b381b51e9479160205260408120549091907f92a9bfc44b11bdcb4ce1c7bb0f30145a060370f7684a9cf6c25518e5775772699060ff1661232357808352826020526040832082845260205260408320600160ff198254161790557f2f8788117e7eff1d82e926ec794901d17c78024a50270940304540a733656f0d339380a4600190565b505090565b6001600160a01b031660008181527fbb186cc6582165753931a58fdaac99b9482f9d63c76229808bd3afc382e9821560205260408120549091907fba279271fb7bbf76a6f3df3cc57bf80647fcafdea60ec3383d90f459de74e7c09060ff1661232357808352826020526040832082845260205260408320600160ff198254161790557f2f8788117e7eff1d82e926ec794901d17c78024a50270940304540a733656f0d339380a4600190565b9060009180835282602052604083209160018060a01b03169182845260205260ff6040842054161560001461232357808352826020526040832082845260205260408320600160ff198254161790557f2f8788117e7eff1d82e926ec794901d17c78024a50270940304540a733656f0d339380a4600190565b9060009180835282602052604083209160018060a01b03169182845260205260ff6040842054166000146123235780835282602052604083208284526020526040832060ff1981541690557ff6391f5c32d9c69d2a47ea670b442974b53935d1edc7fd64eb21e047a839171b339380a4600190565b60a0810190811067ffffffffffffffff82111761059b57604052565b610140810190811067ffffffffffffffff82111761059b57604052565b6080810190811067ffffffffffffffff82111761059b57604052565b60e0810190811067ffffffffffffffff82111761059b57604052565b90601f8019910116810190811067ffffffffffffffff82111761059b57604052565b1561255d57565b606460405162461bcd60e51b815260206004820152602060248201527f4665656450726f746f636f6c3a20696e73756666696369656e74207374616b656044820152fd5b6040516323b872dd60e01b60208201526001600160a01b0392831660248201529290911660448301526064808301939093529181526125e8916125e3826124c3565b6125ea565b565b906000602091828151910182855af1156103e7576000513d61263d57506001600160a01b0381163b155b61261b5750565b604051635274afe760e01b81526001600160a01b039091166004820152602490fd5b60011415612614565b60ff6002541661265257565b60405163d93c066560e01b8152600490fd5b600260015414612675576002600155565b604051633ee5aeb560e01b8152600490fd5b91908201809211611ff957565b91908203918211611ff957565b60405163a9059cbb60e01b60208201526001600160a01b0390921660248301526044808301939093529181526125e8916125e3826124fc565b6000198114611ff95760010190565b6004821015611fe35752565b156126fc57565b60405162461bcd60e51b815260206004820152601d60248201527f4665656450726f746f636f6c3a20696e76616c696420726571756573740000006044820152606490fd5b1561274857565b60405162461bcd60e51b815260206004820152601f60248201527f4665656450726f746f636f6c3a206e6f742061637469766520666565646572006044820152606490fd5b1561279457565b606460405162461bcd60e51b815260206004820152602060248201527f4665656450726f746f636f6c3a2066656564657220626c61636b6c69737465646044820152fd5b156127df57565b60405162461bcd60e51b815260206004820152601f60248201527f4665656450726f746f636f6c3a20616c72656164792066696e616c697a6564006044820152606490fd5b1561282b57565b60405162461bcd60e51b815260206004820152601f60248201527f4665656450726f746f636f6c3a20616c7265616479207375626d6974746564006044820152606490fd5b9392918060609160209360408852816040890152838801376000828288010152601f8019910116850101930152565b67ffffffffffffffff811161059b5760051b60200190565b80518210156121535760209160051b010190565b9060009180835260066020526040832060088101549260ff936128f0858216156127d8565b838652600760205260408620938454958615612ce45761290f8761289f565b9561291d6040519788612534565b878752601f1961292c8961289f565b013660208901378897895b818110612c7a5750508715612c35579391889593915b6000198901898111612c2157871015612a3057895b61296c888b612694565b6000198101908111612a1c578110156129ff57612989818a6128b7565b5160018201908183116129eb57906129b392916129a6828d6128b7565b51106129b8575b506126da565b612962565b6129e46129c5838d6128b7565b51918c6129dd856129d684846128b7565b51926128b7565b528c6128b7565b52386129ad565b634e487b7160e01b8d52601160045260248dfd5b50919395612a1090959193956126da565b9593919492909461294d565b634e487b7160e01b8c52601160045260248cfd5b95509597919796939290966001948580821615600014612c0a571c6000198101818111612bf65782612a6c88936129d6612a73946008976128b7565b5190612687565b811c985b89600785015560ff1916179101558481526006602052600291848360408420015460081c16612aa5816121ee565b8252600b6020526040822092604051612abd816124c3565b868554818116835260081c166020820152858501546040820152818501549081606082015260806003809701549101528254908115612be257049083865b612b3a575b50505050505050507f4da0f440b42ee815c5b14cbf1a5cb712c4fcf1ee583ca8c97bdbbdf4a1e7ba1f60408051848152426020820152a290565b8354811015612bdd57808887612b53612b609488612197565b50015416612b66576126da565b86612afb565b612b708186612197565b505487546001600160a01b0391821691612b8e9187918491166126a1565b8087526009602052836040882001612ba681546126da565b90558a7f602ab809fa82d3a742a4f9a33cdd154988d8b0f578ee4dc91de3dc412bf026b960408051888152426020820152a36126da565b612b00565b634e487b7160e01b85526012600452602485fd5b634e487b7160e01b85526011600452602485fd5b90600892612c1a91831c906128b7565b5198612a77565b634e487b7160e01b8b52601160045260248bfd5b60405162461bcd60e51b815260206004820152601d60248201527f4665656450726f746f636f6c3a206e6f2076616c6964207072696365730000006044820152606490fd5b836003612c878386612197565b5001541680612ccd575b612ca4575b612c9f906126da565b612937565b98612cc5612c9f916001612cb88d87612197565b500154611506828d6128b7565b999050612c96565b506001612cda8285612197565b5001541515612c91565b60405162461bcd60e51b815260206004820152601c60248201527f4665656450726f746f636f6c3a206e6f207375626d697373696f6e73000000006044820152606490fdfea2646970667358221220128debbf5f47d1582878b99249cf640ca851933ebe33a122e7bfd32da050f3a364736f6c634300081400332f8788117e7eff1d82e926ec794901d17c78024a50270940304540a733656f0d",
  "linkReferences": {},
  "deployedLinkReferences": {}
}