{
  "_format": "hh-sol-artifact-1",
  "contractName": "FeedProtocol",
  "sourceName": "contracts/feed/FeedProtocol.sol",
  "abi": [
    {
      "inputs": [
        {
          "internalType": "address",
          "name": "_config",
          "type": "address"
        },
        {
          "internalType": "address",
          "name": "_usdt",
          "type": "address"
        },
        {
          "internalType": "address",
          "name": "_admin",
          "type": "address"
        }
      ],
      "stateMutability": "nonpayable",
      "type": "constructor"
    },
    {
      "inputs": [],
      "name": "AccessControlBadConfirmation",
      "type": "error"
    },
    {
      "inputs": [
        {
          "internalType": "address",
          "name": "account",
          "type": "address"
        },
        {
          "internalType": "bytes32",
          "name": "neededRole",
          "type": "bytes32"
        }
      ],
      "name": "AccessControlUnauthorizedAccount",
      "type": "error"
    },
    {
      "inputs": [],
      "name": "EnforcedPause",
      "type": "error"
    },
    {
      "inputs": [],
      "name": "ExpectedPause",
      "type": "error"
    },
    {
      "inputs": [],
      "name": "ReentrancyGuardReentrantCall",
      "type": "error"
    },
    {
      "inputs": [
        {
          "internalType": "address",
          "name": "token",
          "type": "address"
        }
      ],
      "name": "SafeERC20FailedOperation",
      "type": "error"
    },
    {
      "anonymous": false,
      "inputs": [
        {
          "indexed": true,
          "internalType": "uint256",
          "name": "requestId",
          "type": "uint256"
        },
        {
          "indexed": true,
          "internalType": "uint256",
          "name": "orderId",
          "type": "uint256"
        },
        {
          "indexed": false,
          "internalType": "string",
          "name": "reason",
          "type": "string"
        }
      ],
      "name": "CallbackFailed",
      "type": "event"
    },
    {
      "anonymous": false,
      "inputs": [
        {
          "indexed": true,
          "internalType": "uint256",
          "name": "requestId",
          "type": "uint256"
        },
        {
          "indexed": false,
          "internalType": "uint256",
          "name": "finalPrice",
          "type": "uint256"
        },
        {
          "indexed": false,
          "internalType": "uint256",
          "name": "timestamp",
          "type": "uint256"
        }
      ],
      "name": "FeedFinalized",
      "type": "event"
    },
    {
      "anonymous": false,
      "inputs": [
        {
          "indexed": true,
          "internalType": "uint256",
          "name": "requestId",
          "type": "uint256"
        },
        {
          "indexed": true,
          "internalType": "address",
          "name": "feeder",
          "type": "address"
        },
        {
          "indexed": false,
          "internalType": "string",
          "name": "reason",
          "type": "string"
        },
        {
          "indexed": false,
          "internalType": "uint256",
          "name": "timestamp",
          "type": "uint256"
        }
      ],
      "name": "FeedRejected",
      "type": "event"
    },
    {
      "anonymous": false,
      "inputs": [
        {
          "indexed": true,
          "internalType": "uint256",
          "name": "requestId",
          "type": "uint256"
        },
        {
          "indexed": true,
          "internalType": "uint256",
          "name": "orderId",
          "type": "uint256"
        },
        {
          "indexed": false,
          "internalType": "string",
          "name": "underlyingName",
          "type": "string"
        },
        {
          "indexed": false,
          "internalType": "string",
          "name": "underlyingCode",
          "type": "string"
        },
        {
          "indexed": false,
          "internalType": "string",
          "name": "market",
          "type": "string"
        },
        {
          "indexed": false,
          "internalType": "string",
          "name": "country",
          "type": "string"
        },
        {
          "indexed": false,
          "internalType": "enum FeedType",
          "name": "feedType",
          "type": "uint8"
        },
        {
          "indexed": false,
          "internalType": "enum LiquidationRule",
          "name": "liquidationRule",
          "type": "uint8"
        },
        {
          "indexed": false,
          "internalType": "uint8",
          "name": "consecutiveDays",
          "type": "uint8"
        },
        {
          "indexed": false,
          "internalType": "uint8",
          "name": "exerciseDelay",
          "type": "uint8"
        },
        {
          "indexed": false,
          "internalType": "uint256",
          "name": "timestamp",
          "type": "uint256"
        }
      ],
      "name": "FeedRequested",
      "type": "event"
    },
    {
      "anonymous": false,
      "inputs": [
        {
          "indexed": true,
          "internalType": "uint256",
          "name": "requestId",
          "type": "uint256"
        },
        {
          "indexed": true,
          "internalType": "address",
          "name": "feeder",
          "type": "address"
        },
        {
          "indexed": false,
          "internalType": "uint256",
          "name": "price",
          "type": "uint256"
        },
        {
          "indexed": false,
          "internalType": "uint256",
          "name": "timestamp",
          "type": "uint256"
        }
      ],
      "name": "FeedSubmitted",
      "type": "event"
    },
    {
      "anonymous": false,
      "inputs": [
        {
          "indexed": true,
          "internalType": "address",
          "name": "feeder",
          "type": "address"
        },
        {
          "indexed": false,
          "internalType": "string",
          "name": "reason",
          "type": "string"
        },
        {
          "indexed": false,
          "internalType": "uint256",
          "name": "timestamp",
          "type": "uint256"
        }
      ],
      "name": "FeederBlacklisted",
      "type": "event"
    },
    {
      "anonymous": false,
      "inputs": [
        {
          "indexed": true,
          "internalType": "address",
          "name": "feeder",
          "type": "address"
        },
        {
          "indexed": false,
          "internalType": "string",
          "name": "reason",
          "type": "string"
        },
        {
          "indexed": false,
          "internalType": "uint256",
          "name": "timestamp",
          "type": "uint256"
        }
      ],
      "name": "FeederDeactivated",
      "type": "event"
    },
    {
      "anonymous": false,
      "inputs": [
        {
          "indexed": true,
          "internalType": "address",
          "name": "feeder",
          "type": "address"
        },
        {
          "indexed": false,
          "internalType": "uint256",
          "name": "stakedAmount",
          "type": "uint256"
        },
        {
          "indexed": false,
          "internalType": "uint256",
          "name": "timestamp",
          "type": "uint256"
        }
      ],
      "name": "FeederRegistered",
      "type": "event"
    },
    {
      "anonymous": false,
      "inputs": [
        {
          "indexed": true,
          "internalType": "uint256",
          "name": "reportId",
          "type": "uint256"
        },
        {
          "indexed": true,
          "internalType": "address",
          "name": "reporter",
          "type": "address"
        },
        {
          "indexed": true,
          "internalType": "address",
          "name": "feeder",
          "type": "address"
        },
        {
          "indexed": false,
          "internalType": "uint256",
          "name": "requestId",
          "type": "uint256"
        },
        {
          "indexed": false,
          "internalType": "uint256",
          "name": "timestamp",
          "type": "uint256"
        }
      ],
      "name": "MaliciousFeedReported",
      "type": "event"
    },
    {
      "anonymous": false,
      "inputs": [
        {
          "indexed": true,
          "internalType": "uint256",
          "name": "reportId",
          "type": "uint256"
        },
        {
          "indexed": false,
          "internalType": "bool",
          "name": "confirmed",
          "type": "bool"
        },
        {
          "indexed": false,
          "internalType": "uint256",
          "name": "slashedAmount",
          "type": "uint256"
        },
        {
          "indexed": false,
          "internalType": "uint256",
          "name": "timestamp",
          "type": "uint256"
        }
      ],
      "name": "MaliciousReportProcessed",
      "type": "event"
    },
    {
      "anonymous": false,
      "inputs": [
        {
          "indexed": true,
          "internalType": "address",
          "name": "oldAddress",
          "type": "address"
        },
        {
          "indexed": true,
          "internalType": "address",
          "name": "newAddress",
          "type": "address"
        },
        {
          "indexed": false,
          "internalType": "uint256",
          "name": "timestamp",
          "type": "uint256"
        }
      ],
      "name": "OptionsCoreUpdated",
      "type": "event"
    },
    {
      "anonymous": false,
      "inputs": [
        {
          "indexed": false,
          "internalType": "address",
          "name": "account",
          "type": "address"
        }
      ],
      "name": "Paused",
      "type": "event"
    },
    {
      "anonymous": false,
      "inputs": [
        {
          "indexed": true,
          "internalType": "uint256",
          "name": "requestId",
          "type": "uint256"
        },
        {
          "indexed": true,
          "internalType": "address",
          "name": "feeder",
          "type": "address"
        },
        {
          "indexed": false,
          "internalType": "uint256",
          "name": "amount",
          "type": "uint256"
        },
        {
          "indexed": false,
          "internalType": "uint256",
          "name": "timestamp",
          "type": "uint256"
        }
      ],
      "name": "RewardDistributed",
      "type": "event"
    },
    {
      "anonymous": false,
      "inputs": [
        {
          "indexed": true,
          "internalType": "bytes32",
          "name": "role",
          "type": "bytes32"
        },
        {
          "indexed": true,
          "internalType": "bytes32",
          "name": "previousAdminRole",
          "type": "bytes32"
        },
        {
          "indexed": true,
          "internalType": "bytes32",
          "name": "newAdminRole",
          "type": "bytes32"
        }
      ],
      "name": "RoleAdminChanged",
      "type": "event"
    },
    {
      "anonymous": false,
      "inputs": [
        {
          "indexed": true,
          "internalType": "bytes32",
          "name": "role",
          "type": "bytes32"
        },
        {
          "indexed": true,
          "internalType": "address",
          "name": "account",
          "type": "address"
        },
        {
          "indexed": true,
          "internalType": "address",
          "name": "sender",
          "type": "address"
        }
      ],
      "name": "RoleGranted",
      "type": "event"
    },
    {
      "anonymous": false,
      "inputs": [
        {
          "indexed": true,
          "internalType": "bytes32",
          "name": "role",
          "type": "bytes32"
        },
        {
          "indexed": true,
          "internalType": "address",
          "name": "account",
          "type": "address"
        },
        {
          "indexed": true,
          "internalType": "address",
          "name": "sender",
          "type": "address"
        }
      ],
      "name": "RoleRevoked",
      "type": "event"
    },
    {
      "anonymous": false,
      "inputs": [
        {
          "indexed": false,
          "internalType": "address",
          "name": "account",
          "type": "address"
        }
      ],
      "name": "Unpaused",
      "type": "event"
    },
    {
      "inputs": [],
      "name": "DEFAULT_ADMIN_ROLE",
      "outputs": [
        {
          "internalType": "bytes32",
          "name": "",
          "type": "bytes32"
        }
      ],
      "stateMutability": "view",
      "type": "function"
    },
    {
      "inputs": [],
      "name": "FEED_OPERATOR_ROLE",
      "outputs": [
        {
          "internalType": "bytes32",
          "name": "",
          "type": "bytes32"
        }
      ],
      "stateMutability": "view",
      "type": "function"
    },
    {
      "inputs": [],
      "name": "PROTOCOL_ROLE",
      "outputs": [
        {
          "internalType": "bytes32",
          "name": "",
          "type": "bytes32"
        }
      ],
      "stateMutability": "view",
      "type": "function"
    },
    {
      "inputs": [],
      "name": "SENIOR_FEEDER_ROLE",
      "outputs": [
        {
          "internalType": "bytes32",
          "name": "",
          "type": "bytes32"
        }
      ],
      "stateMutability": "view",
      "type": "function"
    },
    {
      "inputs": [
        {
          "internalType": "uint256",
          "name": "amount",
          "type": "uint256"
        }
      ],
      "name": "addStake",
      "outputs": [],
      "stateMutability": "nonpayable",
      "type": "function"
    },
    {
      "inputs": [
        {
          "internalType": "address",
          "name": "feeder",
          "type": "address"
        },
        {
          "internalType": "string",
          "name": "reason",
          "type": "string"
        }
      ],
      "name": "blacklistFeeder",
      "outputs": [],
      "stateMutability": "nonpayable",
      "type": "function"
    },
    {
      "inputs": [],
      "name": "config",
      "outputs": [
        {
          "internalType": "contract Config",
          "name": "",
          "type": "address"
        }
      ],
      "stateMutability": "view",
      "type": "function"
    },
    {
      "inputs": [
        {
          "internalType": "uint256",
          "name": "orderId",
          "type": "uint256"
        },
        {
          "internalType": "enum FeedType",
          "name": "feedType",
          "type": "uint8"
        },
        {
          "internalType": "enum FeedTier",
          "name": "tier",
          "type": "uint8"
        }
      ],
      "name": "createFeedRequest",
      "outputs": [
        {
          "internalType": "uint256",
          "name": "requestId",
          "type": "uint256"
        }
      ],
      "stateMutability": "payable",
      "type": "function"
    },
    {
      "inputs": [
        {
          "internalType": "uint256",
          "name": "",
          "type": "uint256"
        }
      ],
      "name": "feedRequests",
      "outputs": [
        {
          "internalType": "uint256",
          "name": "requestId",
          "type": "uint256"
        },
        {
          "internalType": "uint256",
          "name": "orderId",
          "type": "uint256"
        },
        {
          "internalType": "enum FeedType",
          "name": "feedType",
          "type": "uint8"
        },
        {
          "internalType": "enum FeedTier",
          "name": "tier",
          "type": "uint8"
        },
        {
          "internalType": "uint256",
          "name": "deadline",
          "type": "uint256"
        },
        {
          "internalType": "uint256",
          "name": "createdAt",
          "type": "uint256"
        },
        {
          "internalType": "uint256",
          "name": "totalFeeders",
          "type": "uint256"
        },
        {
          "internalType": "uint256",
          "name": "submittedCount",
          "type": "uint256"
        },
        {
          "internalType": "uint256",
          "name": "finalPrice",
          "type": "uint256"
        },
        {
          "internalType": "bool",
          "name": "finalized",
          "type": "bool"
        }
      ],
      "stateMutability": "view",
      "type": "function"
    },
    {
      "inputs": [
        {
          "internalType": "uint256",
          "name": "",
          "type": "uint256"
        }
      ],
      "name": "feederList",
      "outputs": [
        {
          "internalType": "address",
          "name": "",
          "type": "address"
        }
      ],
      "stateMutability": "view",
      "type": "function"
    },
    {
      "inputs": [],
      "name": "feederSelector",
      "outputs": [
        {
          "internalType": "address",
          "name": "",
          "type": "address"
        }
      ],
      "stateMutability": "view",
      "type": "function"
    },
    {
      "inputs": [
        {
          "internalType": "address",
          "name": "",
          "type": "address"
        }
      ],
      "name": "feeders",
      "outputs": [
        {
          "internalType": "address",
          "name": "feederAddress",
          "type": "address"
        },
        {
          "internalType": "uint256",
          "name": "stakedAmount",
          "type": "uint256"
        },
        {
          "internalType": "uint256",
          "name": "completedFeeds",
          "type": "uint256"
        },
        {
          "internalType": "uint256",
          "name": "rejectedFeeds",
          "type": "uint256"
        },
        {
          "internalType": "uint256",
          "name": "registeredAt",
          "type": "uint256"
        },
        {
          "internalType": "bool",
          "name": "isActive",
          "type": "bool"
        },
        {
          "internalType": "bool",
          "name": "isBlacklisted",
          "type": "bool"
        }
      ],
      "stateMutability": "view",
      "type": "function"
    },
    {
      "inputs": [
        {
          "internalType": "uint256",
          "name": "requestId",
          "type": "uint256"
        }
      ],
      "name": "finalizeFeed",
      "outputs": [
        {
          "internalType": "uint256",
          "name": "finalPrice",
          "type": "uint256"
        }
      ],
      "stateMutability": "nonpayable",
      "type": "function"
    },
    {
      "inputs": [],
      "name": "getActiveFeeders",
      "outputs": [
        {
          "internalType": "address[]",
          "name": "",
          "type": "address[]"
        }
      ],
      "stateMutability": "view",
      "type": "function"
    },
    {
      "inputs": [
        {
          "internalType": "uint256",
          "name": "offset",
          "type": "uint256"
        },
        {
          "internalType": "uint256",
          "name": "limit",
          "type": "uint256"
        }
      ],
      "name": "getAllFeedRequests",
      "outputs": [
        {
          "components": [
            {
              "internalType": "uint256",
              "name": "requestId",
              "type": "uint256"
            },
            {
              "internalType": "uint256",
              "name": "orderId",
              "type": "uint256"
            },
            {
              "internalType": "enum FeedType",
              "name": "feedType",
              "type": "uint8"
            },
            {
              "internalType": "enum FeedTier",
              "name": "tier",
              "type": "uint8"
            },
            {
              "internalType": "uint256",
              "name": "deadline",
              "type": "uint256"
            },
            {
              "internalType": "uint256",
              "name": "createdAt",
              "type": "uint256"
            },
            {
              "internalType": "uint256",
              "name": "totalFeeders",
              "type": "uint256"
            },
            {
              "internalType": "uint256",
              "name": "submittedCount",
              "type": "uint256"
            },
            {
              "internalType": "uint256",
              "name": "finalPrice",
              "type": "uint256"
            },
            {
              "internalType": "bool",
              "name": "finalized",
              "type": "bool"
            }
          ],
          "internalType": "struct FeedRequest[]",
          "name": "",
          "type": "tuple[]"
        }
      ],
      "stateMutability": "view",
      "type": "function"
    },
    {
      "inputs": [
        {
          "internalType": "enum FeedTier",
          "name": "tier",
          "type": "uint8"
        }
      ],
      "name": "getFeedFee",
      "outputs": [
        {
          "internalType": "uint256",
          "name": "",
          "type": "uint256"
        }
      ],
      "stateMutability": "view",
      "type": "function"
    },
    {
      "inputs": [
        {
          "internalType": "uint256",
          "name": "requestId",
          "type": "uint256"
        }
      ],
      "name": "getFeedRequest",
      "outputs": [
        {
          "components": [
            {
              "internalType": "uint256",
              "name": "requestId",
              "type": "uint256"
            },
            {
              "internalType": "uint256",
              "name": "orderId",
              "type": "uint256"
            },
            {
              "internalType": "enum FeedType",
              "name": "feedType",
              "type": "uint8"
            },
            {
              "internalType": "enum FeedTier",
              "name": "tier",
              "type": "uint8"
            },
            {
              "internalType": "uint256",
              "name": "deadline",
              "type": "uint256"
            },
            {
              "internalType": "uint256",
              "name": "createdAt",
              "type": "uint256"
            },
            {
              "internalType": "uint256",
              "name": "totalFeeders",
              "type": "uint256"
            },
            {
              "internalType": "uint256",
              "name": "submittedCount",
              "type": "uint256"
            },
            {
              "internalType": "uint256",
              "name": "finalPrice",
              "type": "uint256"
            },
            {
              "internalType": "bool",
              "name": "finalized",
              "type": "bool"
            }
          ],
          "internalType": "struct FeedRequest",
          "name": "",
          "type": "tuple"
        }
      ],
      "stateMutability": "view",
      "type": "function"
    },
    {
      "inputs": [
        {
          "internalType": "address",
          "name": "feeder",
          "type": "address"
        }
      ],
      "name": "getFeeder",
      "outputs": [
        {
          "components": [
            {
              "internalType": "address",
              "name": "feederAddress",
              "type": "address"
            },
            {
              "internalType": "uint256",
              "name": "stakedAmount",
              "type": "uint256"
            },
            {
              "internalType": "uint256",
              "name": "completedFeeds",
              "type": "uint256"
            },
            {
              "internalType": "uint256",
              "name": "rejectedFeeds",
              "type": "uint256"
            },
            {
              "internalType": "uint256",
              "name": "registeredAt",
              "type": "uint256"
            },
            {
              "internalType": "bool",
              "name": "isActive",
              "type": "bool"
            },
            {
              "internalType": "bool",
              "name": "isBlacklisted",
              "type": "bool"
            }
          ],
          "internalType": "struct FeedProtocol.Feeder",
          "name": "",
          "type": "tuple"
        }
      ],
      "stateMutability": "view",
      "type": "function"
    },
    {
      "inputs": [],
      "name": "getFeederCount",
      "outputs": [
        {
          "internalType": "uint256",
          "name": "",
          "type": "uint256"
        }
      ],
      "stateMutability": "view",
      "type": "function"
    },
    {
      "inputs": [
        {
          "internalType": "uint256",
          "name": "reportId",
          "type": "uint256"
        }
      ],
      "name": "getMaliciousReport",
      "outputs": [
        {
          "components": [
            {
              "internalType": "uint256",
              "name": "reportId",
              "type": "uint256"
            },
            {
              "internalType": "address",
              "name": "reporter",
              "type": "address"
            },
            {
              "internalType": "address",
              "name": "reportedFeeder",
              "type": "address"
            },
            {
              "internalType": "uint256",
              "name": "requestId",
              "type": "uint256"
            },
            {
              "internalType": "string",
              "name": "evidence",
              "type": "string"
            },
            {
              "internalType": "uint256",
              "name": "reportedAt",
              "type": "uint256"
            },
            {
              "internalType": "bool",
              "name": "processed",
              "type": "bool"
            },
            {
              "internalType": "bool",
              "name": "confirmed",
              "type": "bool"
            }
          ],
          "internalType": "struct FeedProtocol.MaliciousReport",
          "name": "",
          "type": "tuple"
        }
      ],
      "stateMutability": "view",
      "type": "function"
    },
    {
      "inputs": [
        {
          "internalType": "uint256",
          "name": "orderId",
          "type": "uint256"
        }
      ],
      "name": "getOrderFeedRequests",
      "outputs": [
        {
          "internalType": "uint256[]",
          "name": "",
          "type": "uint256[]"
        }
      ],
      "stateMutability": "view",
      "type": "function"
    },
    {
      "inputs": [],
      "name": "getPendingRequests",
      "outputs": [
        {
          "components": [
            {
              "internalType": "uint256",
              "name": "requestId",
              "type": "uint256"
            },
            {
              "internalType": "uint256",
              "name": "orderId",
              "type": "uint256"
            },
            {
              "internalType": "enum FeedType",
              "name": "feedType",
              "type": "uint8"
            },
            {
              "internalType": "enum FeedTier",
              "name": "tier",
              "type": "uint8"
            },
            {
              "internalType": "uint256",
              "name": "deadline",
              "type": "uint256"
            },
            {
              "internalType": "uint256",
              "name": "createdAt",
              "type": "uint256"
            },
            {
              "internalType": "uint256",
              "name": "totalFeeders",
              "type": "uint256"
            },
            {
              "internalType": "uint256",
              "name": "submittedCount",
              "type": "uint256"
            },
            {
              "internalType": "uint256",
              "name": "finalPrice",
              "type": "uint256"
            },
            {
              "internalType": "bool",
              "name": "finalized",
              "type": "bool"
            }
          ],
          "internalType": "struct FeedRequest[]",
          "name": "",
          "type": "tuple[]"
        }
      ],
      "stateMutability": "view",
      "type": "function"
    },
    {
      "inputs": [
        {
          "internalType": "bytes32",
          "name": "role",
          "type": "bytes32"
        }
      ],
      "name": "getRoleAdmin",
      "outputs": [
        {
          "internalType": "bytes32",
          "name": "",
          "type": "bytes32"
        }
      ],
      "stateMutability": "view",
      "type": "function"
    },
    {
      "inputs": [
        {
          "internalType": "uint256",
          "name": "requestId",
          "type": "uint256"
        }
      ],
      "name": "getSubmissions",
      "outputs": [
        {
          "components": [
            {
              "internalType": "address",
              "name": "feeder",
              "type": "address"
            },
            {
              "internalType": "uint256",
              "name": "price",
              "type": "uint256"
            },
            {
              "internalType": "uint256",
              "name": "timestamp",
              "type": "uint256"
            },
            {
              "internalType": "bool",
              "name": "isValid",
              "type": "bool"
            }
          ],
          "internalType": "struct FeedProtocol.FeedSubmission[]",
          "name": "",
          "type": "tuple[]"
        }
      ],
      "stateMutability": "view",
      "type": "function"
    },
    {
      "inputs": [],
      "name": "getTotalRequestCount",
      "outputs": [
        {
          "internalType": "uint256",
          "name": "",
          "type": "uint256"
        }
      ],
      "stateMutability": "view",
      "type": "function"
    },
    {
      "inputs": [
        {
          "internalType": "address",
          "name": "protocol",
          "type": "address"
        }
      ],
      "name": "grantProtocolRole",
      "outputs": [],
      "stateMutability": "nonpayable",
      "type": "function"
    },
    {
      "inputs": [
        {
          "internalType": "bytes32",
          "name": "role",
          "type": "bytes32"
        },
        {
          "internalType": "address",
          "name": "account",
          "type": "address"
        }
      ],
      "name": "grantRole",
      "outputs": [],
      "stateMutability": "nonpayable",
      "type": "function"
    },
    {
      "inputs": [
        {
          "internalType": "address",
          "name": "feeder",
          "type": "address"
        }
      ],
      "name": "grantSeniorFeederRole",
      "outputs": [],
      "stateMutability": "nonpayable",
      "type": "function"
    },
    {
      "inputs": [
        {
          "internalType": "bytes32",
          "name": "role",
          "type": "bytes32"
        },
        {
          "internalType": "address",
          "name": "account",
          "type": "address"
        }
      ],
      "name": "hasRole",
      "outputs": [
        {
          "internalType": "bool",
          "name": "",
          "type": "bool"
        }
      ],
      "stateMutability": "view",
      "type": "function"
    },
    {
      "inputs": [
        {
          "internalType": "uint256",
          "name": "",
          "type": "uint256"
        },
        {
          "internalType": "address",
          "name": "",
          "type": "address"
        }
      ],
      "name": "hasSubmitted",
      "outputs": [
        {
          "internalType": "bool",
          "name": "",
          "type": "bool"
        }
      ],
      "stateMutability": "view",
      "type": "function"
    },
    {
      "inputs": [
        {
          "internalType": "uint256",
          "name": "",
          "type": "uint256"
        }
      ],
      "name": "maliciousReports",
      "outputs": [
        {
          "internalType": "uint256",
          "name": "reportId",
          "type": "uint256"
        },
        {
          "internalType": "address",
          "name": "reporter",
          "type": "address"
        },
        {
          "internalType": "address",
          "name": "reportedFeeder",
          "type": "address"
        },
        {
          "internalType": "uint256",
          "name": "requestId",
          "type": "uint256"
        },
        {
          "internalType": "string",
          "name": "evidence",
          "type": "string"
        },
        {
          "internalType": "uint256",
          "name": "reportedAt",
          "type": "uint256"
        },
        {
          "internalType": "bool",
          "name": "processed",
          "type": "bool"
        },
        {
          "internalType": "bool",
          "name": "confirmed",
          "type": "bool"
        }
      ],
      "stateMutability": "view",
      "type": "function"
    },
    {
      "inputs": [],
      "name": "nextReportId",
      "outputs": [
        {
          "internalType": "uint256",
          "name": "",
          "type": "uint256"
        }
      ],
      "stateMutability": "view",
      "type": "function"
    },
    {
      "inputs": [],
      "name": "nextRequestId",
      "outputs": [
        {
          "internalType": "uint256",
          "name": "",
          "type": "uint256"
        }
      ],
      "stateMutability": "view",
      "type": "function"
    },
    {
      "inputs": [],
      "name": "optionsCore",
      "outputs": [
        {
          "internalType": "contract IOptionsCore",
          "name": "",
          "type": "address"
        }
      ],
      "stateMutability": "view",
      "type": "function"
    },
    {
      "inputs": [
        {
          "internalType": "uint256",
          "name": "",
          "type": "uint256"
        },
        {
          "internalType": "uint256",
          "name": "",
          "type": "uint256"
        }
      ],
      "name": "orderFeedRequests",
      "outputs": [
        {
          "internalType": "uint256",
          "name": "",
          "type": "uint256"
        }
      ],
      "stateMutability": "view",
      "type": "function"
    },
    {
      "inputs": [],
      "name": "pause",
      "outputs": [],
      "stateMutability": "nonpayable",
      "type": "function"
    },
    {
      "inputs": [],
      "name": "paused",
      "outputs": [
        {
          "internalType": "bool",
          "name": "",
          "type": "bool"
        }
      ],
      "stateMutability": "view",
      "type": "function"
    },
    {
      "inputs": [
        {
          "internalType": "uint256",
          "name": "reportId",
          "type": "uint256"
        },
        {
          "internalType": "bool",
          "name": "confirmed",
          "type": "bool"
        },
        {
          "internalType": "uint256",
          "name": "slashPercent",
          "type": "uint256"
        }
      ],
      "name": "processMaliciousReport",
      "outputs": [],
      "stateMutability": "nonpayable",
      "type": "function"
    },
    {
      "inputs": [
        {
          "internalType": "uint256",
          "name": "stakeAmount",
          "type": "uint256"
        }
      ],
      "name": "registerFeeder",
      "outputs": [],
      "stateMutability": "nonpayable",
      "type": "function"
    },
    {
      "inputs": [
        {
          "internalType": "uint256",
          "name": "requestId",
          "type": "uint256"
        },
        {
          "internalType": "string",
          "name": "reason",
          "type": "string"
        }
      ],
      "name": "rejectFeed",
      "outputs": [],
      "stateMutability": "nonpayable",
      "type": "function"
    },
    {
      "inputs": [
        {
          "internalType": "bytes32",
          "name": "role",
          "type": "bytes32"
        },
        {
          "internalType": "address",
          "name": "callerConfirmation",
          "type": "address"
        }
      ],
      "name": "renounceRole",
      "outputs": [],
      "stateMutability": "nonpayable",
      "type": "function"
    },
    {
      "inputs": [
        {
          "internalType": "address",
          "name": "feeder",
          "type": "address"
        },
        {
          "internalType": "uint256",
          "name": "requestId",
          "type": "uint256"
        },
        {
          "internalType": "string",
          "name": "evidence",
          "type": "string"
        }
      ],
      "name": "reportMaliciousFeed",
      "outputs": [
        {
          "internalType": "uint256",
          "name": "reportId",
          "type": "uint256"
        }
      ],
      "stateMutability": "nonpayable",
      "type": "function"
    },
    {
      "inputs": [
        {
          "internalType": "uint256",
          "name": "orderId",
          "type": "uint256"
        },
        {
          "internalType": "enum FeedType",
          "name": "feedType",
          "type": "uint8"
        },
        {
          "internalType": "enum FeedTier",
          "name": "tier",
          "type": "uint8"
        }
      ],
      "name": "requestFeedPublic",
      "outputs": [
        {
          "internalType": "uint256",
          "name": "requestId",
          "type": "uint256"
        }
      ],
      "stateMutability": "nonpayable",
      "type": "function"
    },
    {
      "inputs": [
        {
          "internalType": "uint256",
          "name": "",
          "type": "uint256"
        },
        {
          "internalType": "uint256",
          "name": "",
          "type": "uint256"
        }
      ],
      "name": "requestSubmissions",
      "outputs": [
        {
          "internalType": "address",
          "name": "feeder",
          "type": "address"
        },
        {
          "internalType": "uint256",
          "name": "price",
          "type": "uint256"
        },
        {
          "internalType": "uint256",
          "name": "timestamp",
          "type": "uint256"
        },
        {
          "internalType": "bool",
          "name": "isValid",
          "type": "bool"
        }
      ],
      "stateMutability": "view",
      "type": "function"
    },
    {
      "inputs": [
        {
          "internalType": "bytes32",
          "name": "role",
          "type": "bytes32"
        },
        {
          "internalType": "address",
          "name": "account",
          "type": "address"
        }
      ],
      "name": "revokeRole",
      "outputs": [],
      "stateMutability": "nonpayable",
      "type": "function"
    },
    {
      "inputs": [
        {
          "internalType": "address",
          "name": "_config",
          "type": "address"
        }
      ],
      "name": "setConfig",
      "outputs": [],
      "stateMutability": "nonpayable",
      "type": "function"
    },
    {
      "inputs": [
        {
          "internalType": "address",
          "name": "_feederSelector",
          "type": "address"
        }
      ],
      "name": "setFeederSelector",
      "outputs": [],
      "stateMutability": "nonpayable",
      "type": "function"
    },
    {
      "inputs": [
        {
          "internalType": "address",
          "name": "_optionsCore",
          "type": "address"
        }
      ],
      "name": "setOptionsCore",
      "outputs": [],
      "stateMutability": "nonpayable",
      "type": "function"
    },
    {
      "inputs": [
        {
          "internalType": "enum FeedTier",
          "name": "tier",
          "type": "uint8"
        },
        {
          "internalType": "uint8",
          "name": "totalFeeders",
          "type": "uint8"
        },
        {
          "internalType": "uint8",
          "name": "effectiveFeeds",
          "type": "uint8"
        },
        {
          "internalType": "uint256",
          "name": "platformFee",
          "type": "uint256"
        },
        {
          "internalType": "uint256",
          "name": "feederReward",
          "type": "uint256"
        },
        {
          "internalType": "uint256",
          "name": "totalFee",
          "type": "uint256"
        }
      ],
      "name": "setTierConfig",
      "outputs": [],
      "stateMutability": "nonpayable",
      "type": "function"
    },
    {
      "inputs": [
        {
          "internalType": "uint256",
          "name": "requestId",
          "type": "uint256"
        },
        {
          "internalType": "uint256",
          "name": "price",
          "type": "uint256"
        }
      ],
      "name": "submitFeed",
      "outputs": [],
      "stateMutability": "nonpayable",
      "type": "function"
    },
    {
      "inputs": [
        {
          "internalType": "bytes4",
          "name": "interfaceId",
          "type": "bytes4"
        }
      ],
      "name": "supportsInterface",
      "outputs": [
        {
          "internalType": "bool",
          "name": "",
          "type": "bool"
        }
      ],
      "stateMutability": "view",
      "type": "function"
    },
    {
      "inputs": [
        {
          "internalType": "enum FeedTier",
          "name": "",
          "type": "uint8"
        }
      ],
      "name": "tierConfigs",
      "outputs": [
        {
          "internalType": "uint8",
          "name": "totalFeeders",
          "type": "uint8"
        },
        {
          "internalType": "uint8",
          "name": "effectiveFeeds",
          "type": "uint8"
        },
        {
          "internalType": "uint256",
          "name": "platformFee",
          "type": "uint256"
        },
        {
          "internalType": "uint256",
          "name": "feederReward",
          "type": "uint256"
        },
        {
          "internalType": "uint256",
          "name": "totalFee",
          "type": "uint256"
        }
      ],
      "stateMutability": "view",
      "type": "function"
    },
    {
      "inputs": [],
      "name": "unpause",
      "outputs": [],
      "stateMutability": "nonpayable",
      "type": "function"
    },
    {
      "inputs": [],
      "name": "usdt",
      "outputs": [
        {
          "internalType": "contract IERC20",
          "name": "",
          "type": "address"
        }
      ],
      "stateMutability": "view",
      "type": "function"
    },
    {
      "inputs": [
        {
          "internalType": "address",
          "name": "to",
          "type": "address"
        }
      ],
      "name": "withdrawPlatformFees",
      "outputs": [],
      "stateMutability": "nonpayable",
      "type": "function"
    },
    {
      "inputs": [
        {
          "internalType": "uint256",
          "name": "amount",
          "type": "uint256"
        }
      ],
      "name": "withdrawStake",
      "outputs": [],
      "stateMutability": "nonpayable",
      "type": "function"
    }
  ],
  "bytecode": "0x6080346200021957601f6200411638819003918201601f191683019291906001600160401b038411838510176200021e57816060928492604096875283398101031262000219576003620000538262000254565b602090620000d762000074866200006c85880162000254565b960162000254565b60018080556006819055600f81905560028054610100600160a81b03191660089590951b610100600160a81b031694909417845585546001600160a01b0319166001600160a01b03909716969096178555620000d08162000269565b50620002e9565b50620000e262000234565b938085528285019080825286860195620493e087526060810190622932e082528660808201622dc6c08152600093848052600c895260ff8c86209451169a84549b61ff0080995160081b169061ffff19809e161717855551868501555187840155519101556200015162000234565b600781528689878301600581528184016207a120815260608501916244aa20835260ff6080870194624c4b408652898952600c8d5288209651168d8a8854935160081b169216171785555186850155518784015551910155620001b362000234565b968793600a8552868501916007835260ff8b80880195620c35008752600c608060608b019a626ddd008c52019b627a12008d528b835252209a5116918a54935160081b16921617178755519086015551908401555191015551613d6a90816200038c8239f35b600080fd5b634e487b7160e01b600052604160045260246000fd5b6040519060a082016001600160401b038111838210176200021e57604052565b51906001600160a01b03821682036200021957565b6001600160a01b031660008181527fad3228b676f7d3cd4284a5443f17f1962b36e491b30a40b2405849e597ba5fb5602052604081205490919060ff16620002e557818052816020526040822081835260205260408220600160ff198254161790553391600080516020620040f68339815191528180a4600190565b5090565b6001600160a01b031660008181527fa0cfc50be65892217a92eab74d4b8dca267a17d5b74f05a4a7cdee0906a51faf60205260408120549091907f70b284da8bfc3de812daa2261b4c3ffadd90c2c772295293d09c9629a737a0cd9060ff166200038657808352826020526040832082845260205260408320600160ff19825416179055600080516020620040f6833981519152339380a4600190565b50509056fe608080604052600436101561001357600080fd5b60003560e01c90816301ffc9a7146127fe5750806302768de4146127d557806304b86cb3146127425780630aa31661146126bc578063121c604b1461267a57806315450ace1461261057806315f8b1e01461255257806316c53ced1461244d57806320e3dbd414612405578063248a9ca3146123d657806325d5971f146122675780632ce5ed8c146121f55780632f0165ca146121ba5780632f0e6ca51461210a5780632f2ff15d146120cb5780632f48ab7d146120a257806336568abe1461205b5780633929fcd314611d44578063398ec73214611ca25780633bf5e3a914611bf75780633f4ba83a14611b8d5780633fe1ddd21461188257806346b62703146116a857806346f53d1e1461163d5780635c975abb1461161a5780635cf72f54146115f15780635efd9508146115ae57806360421a301461157957806366d63633146115505780636814c7c0146114185780636a84a985146113fa5780636e79bbf6146113dc57806375136ddc1461139d57806379502c55146113705780637ced45d11461134557806380a1f712146111b057806382ae8f011461118a5780638456cb59146111305780638ec9f0381461110757806391d14854146110ba5780639ba7646c14610fbf5780639da9db2a14610f51578063a217fddf14610f35578063a57d380614610ee8578063aabe4ac414610ebe578063c7c7b02f14610e53578063cb67ef4014610c12578063d547741f14610bd3578063db18c18914610b14578063e569599114610ad3578063eab575b914610748578063eb4f16b51461068a578063eb7bb5a714610477578063ec3889b514610350578063ec5bfc6c146103325763f608463a1461028757600080fd5b3461032d5760208060031936011261032d57600435600052600d8152604060002060405190818382549182815201908192600052846000209060005b868282106103195786866102d982880383612a14565b604051928392818401908285525180915260408401929160005b82811061030257505050500390f35b8351855286955093810193928101926001016102f3565b8354855290930192600192830192016102c3565b600080fd5b3461032d57600036600319011261032d576020600b54604051908152f35b3461032d5760208060031936011261032d5761036a61287d565b610372612c07565b600380546040516370a0823160e01b81523060048201526001600160a01b03918216949092908084602481895afa93841561046b5760009461043c575b509190600092600092600b54925b8385106103fa5750505050508082116000146103f0576103dc91612fc6565b905b816103e557005b6103ee92612fd3565b005b50506000906103de565b909192939461042d6104339184610410896128a9565b905490861b1c16600052600a865260016040600020015490612fb9565b9561300c565b939291906103bd565b9080945081813d8311610464575b6104548183612a14565b8101031261032d575192866103af565b503d61044a565b6040513d6000823e3d90fd5b3461032d5760208060031936011261032d5760043590610495612f96565b61049d612f78565b336000908152600a825260409020546001600160a01b03908116610647576004828260025460081c16604051928380926363b36cc360e11b82525afa801561046b57600090610618575b6104f49150841015612e77565b61050683826003541630903390612eda565b610599604051610515816129f9565b33815283810185815261059060056040840193600085526060810160008152608082019042825260a08301966001885260c08401966000885233600052600a8c528a604060002095511660018060a01b0319865416178555516001850155516002840155516003830155516004820155019251151583612c85565b51151590612ec2565b600b54600160401b811015610602578060016105b89201600b556128a9565b819291549060031b9133831b921b191617905560405191825242908201527f53226fcf6c46a949f058f2002cb48f6897bf6c0bd2f030158d655ba38d44a16c60403392a260018055005b634e487b7160e01b600052604160045260246000fd5b508281813d8311610640575b61062e8183612a14565b8101031261032d576104f490516104e7565b503d610624565b6064826040519062461bcd60e51b825280600483015260248201527f4665656450726f746f636f6c3a20616c726561647920726567697374657265646044820152fd5b3461032d57602036600319011261032d576004356106a6612f96565b6106ae612f78565b336000908152600a60205260409020546001600160a01b039081161561070457816106e0916003541630903390612eda565b33600052600a6020526106fc6001604060002001918254612fb9565b905560018055005b60405162461bcd60e51b815260206004820152601c60248201527b11995959141c9bdd1bd8dbdb0e881b9bdd081c9959da5cdd195c995960221b6044820152606490fd5b3461032d57606036600319011261032d5761076161287d565b6044356001600160401b03811161032d57610780903690600401612924565b91610789612f96565b610791612f78565b6001600160a01b038181166000908152600a60205260409020541615610a8f578215610a4a57600f54916107c48361300c565b600f55604051936107d4856129c1565b8385523360208601526001600160a01b038316604086015260243560608601526001600160401b038111610602576040519161081a601f8301601f191660200184612a14565b818352368282011161032d57816000926020928386013783010152608084019081524260a0850152600060c0850181905260e08501819052838152600e602090815260409182902086518155908601516001820180546001600160a01b03199081166001600160a01b0393841617909155928701516002830180549094169116179091556060850151600382015590518051909491906001600160401b038111610602576108cb6004830154612951565b95601f8711610a03575b602096508690601f831160011461098e57928260e0936006936109399796600092610983575b50508160011b916000199060031b1c19161760048201555b60a08401516005820155019161092f60c0820151151584612c85565b0151151590612ec2565b604051906024358252428483015260018060a01b031690827fa181ef323175753ee6985cd825f93bd6fb350de220919b47f2793654bc60d70f60403393a460018055604051908152f35b015190508a806108fb565b90601f1983169160048501600052886000209260005b8181106109ec5750936006936109399796936001938360e098106109d3575b505050811b016004820155610913565b015160001960f88460031b161c191690558a80806109c3565b92938a6001819287860151815501950193016109a4565b600483016000526020600020601f830160051c810160208410610a43575b601f890160051c82018110610a375750506108d5565b60008155600101610a21565b5080610a21565b60405162461bcd60e51b815260206004820152601f60248201527f4665656450726f746f636f6c3a2065766964656e6365207265717569726564006044820152606490fd5b60405162461bcd60e51b815260206004820152601c60248201527b2332b2b2283937ba37b1b7b61d1034b73b30b634b2103332b2b232b960211b6044820152606490fd5b3461032d57602036600319011261032d57600435600381101561032d57610af981612b40565b600052600c6020526020600360406000200154604051908152f35b3461032d57602036600319011261032d57610b2d613a04565b506004356000526007602052610140604060002060ff600860405192610b52846129dd565b8054845260018101546020850152826002820154610b758282166040880161301b565b831c16610b8181612b40565b606085015260038101546080850152600481015460a0850152600581015460c0850152600681015460e085015260078101546101008501520154161515610120820152610bd16040518092612b4a565bf35b3461032d57604036600319011261032d576103ee600435610bf2612893565b90806000526000602052610c0d600160406000200154612c5f565b612e02565b3461032d57606036600319011261032d5760043560243580151580820361032d57336000908152600080516020613c558339815191526020908152604090912054604435939190610c659060ff16613beb565b610c6d612f96565b84600052600e81526040600020600681019081549160ff8316610e0e5761271092838811610dbd5760ff19166001178155610ca9908590612ec2565b600093610cdc575b86600080516020613d158339815191526060878787604051928352820152426040820152a260018055005b600291949350019060018060a01b0380835416600052600a82526040600020926001840196875494818602918683041486151715610da757600080516020613d158339815191529860609860059304968780610d94575b5050500161010061ffff198254161790555416600080516020613cf583398151915260806040516040815260186040820152771b585b1a58da5bdd5cc8199959590818dbdb999a5c9b595960421b888201524285820152a290919286610cb1565b610d9d91612fc6565b90558a8087610d33565b634e487b7160e01b600052601160045260246000fd5b60405162461bcd60e51b815260048101869052602360248201527f4665656450726f746f636f6c3a20696e76616c696420736c6173682070657263604482015262195b9d60ea1b6064820152608490fd5b60405162461bcd60e51b815260048101859052601f60248201527f4665656450726f746f636f6c3a20616c72656164792070726f636573736564006044820152606490fd5b3461032d57602036600319011261032d576103ee610e6f61287d565b610e77612c07565b600080516020613cb583398151915260009081526020527fbb186cc6582165753931a58fdaac99b9482f9d63c76229808bd3afc382e9821654610eb990612c5f565b612d24565b3461032d57610ee4610ed8610ed2366128f2565b90613aa0565b60405191829182612bbe565b0390f35b3461032d57604036600319011261032d57610f01612893565b600435600052600960205260406000209060018060a01b0316600052602052602060ff604060002054166040519015158152f35b3461032d57600036600319011261032d57602060405160008152f35b3461032d57602036600319011261032d57600435600381101561032d57610f7781612b40565b600052600c60205260a06040600020805490600181015490600360028201549101549160ff60405194818116865260081c166020850152604084015260608301526080820152f35b3461032d57602036600319011261032d5760e0610fda61287d565b600060c0604051610fea816129f9565b8281528260208201528260408201528260608201528260808201528260a0820152015260018060a01b03809116600052600a602052604060002060405191611031836129f9565b81541691828152600182015491602082019283526002810154604083019081526003820154906060840191825260056004840154936080860194855201549460ff60c060a087019682891615158852019660081c161515865260405196875251602087015251604086015251606085015251608084015251151560a083015251151560c0820152f35b3461032d57604036600319011261032d576110d3612893565b600435600052600060205260406000209060018060a01b0316600052602052602060ff604060002054166040519015158152f35b3461032d57600036600319011261032d576020604051600080516020613c758339815191528152f35b3461032d57600036600319011261032d57611149612c07565b611151612f78565b600160ff1960025416176002557f62e78cea01bee320cd4e420270b5ea74000d11b0c9f74754ebdbfc544b05a2586020604051338152a1005b3461032d57602036600319011261032d5760206111a8600435613451565b604051908152f35b3461032d57600036600319011261032d576006805460016000815b8381106112ef57506111dc90613a50565b92600091805b8481106111f75760405180610ee48882612bbe565b80600052600760209080825260406000209060ff9160089280848301541615938480956112e1575b611238575b5050505050506112339061300c565b6111e2565b916112d5959391611233979a959360405195611253876129dd565b835487528a840154908701526002830154906112748383166040890161301b565b1c1661127f81612b40565b606085015260038101546080850152600481015460a0850152600581015460c08501528881015460e08501520154610100830152156101208201526112c4828a61343d565b526112cf818961343d565b5061300c565b93908780808080611224565b50600383015442111561121f565b806000526007602052604060002060ff600882015416159081611336575b50611321575b61131c9061300c565b6111cb565b9061132e61131c9161300c565b919050611313565b6003915001544211158661130d565b3461032d57600036600319011261032d576006546000198101908111610da757602090604051908152f35b3461032d57600036600319011261032d5760025460405160089190911c6001600160a01b03168152602090f35b3461032d576113ab366128f2565b90600052600d6020526040600020805482101561032d576020916113ce916128da565b90546040519160031b1c8152f35b3461032d57600036600319011261032d576020600f54604051908152f35b3461032d57600036600319011261032d576020600654604051908152f35b3461032d5760208060031936011261032d57600060e060405161143a816129c1565b8281528284820152826040820152826060820152606060808201528260a08201528260c08201520152600435600052600e815260406000206040519061147f826129c1565b8054825260018101546001600160a01b039081168484019081526002830154821660408501908152600384015460608601908152919290916114c360048601612a37565b9160808701928352600660058701549660a089019788520154938160c089019660ff87161515885260ff60e08b019760081c16151587526040519a8b9a818c5251908b015251166040890152511660608701525160808601525191611536610100938460a0880152610120870190612add565b935160c086015251151560e0850152511515908301520390f35b3461032d57600036600319011261032d576004546040516001600160a01b039091168152602090f35b3461032d5760206115a261158c36612851565b91611595612f96565b61159d612f78565b613027565b60018055604051908152f35b3461032d57602036600319011261032d576115c761287d565b6115cf612c07565b600580546001600160a01b0319166001600160a01b0392909216919091179055005b3461032d57600036600319011261032d576005546040516001600160a01b039091168152602090f35b3461032d57600036600319011261032d57602060ff600254166040519015158152f35b3461032d57602036600319011261032d576103ee61165961287d565b611661612c07565b600080516020613c7583398151915260009081526020527fb9aa941adaec809e6b0427677375ac0b3d84ba99295ec0ba010b381b51e94792546116a390612c5f565b612c96565b3461032d57604036600319011261032d576004356024356001600160401b03811161032d576116db903690600401612924565b919081151580611877575b6116ef9061327c565b33600052602090600a825261170e60ff600560406000200154166132c8565b33600052600a825261172e60ff60056040600020015460081c1615613314565b33600052600a825260046001604060002001548360018060a01b0360025460081c16604051938480926363b36cc360e11b82525afa91821561046b57600092611838575b50600080516020613c958339815191529361179561182f9493600a931015612e77565b61179d612f96565b6117a5612f78565b85600052600781526117c260ff600860406000200154161561335f565b856000526009815260406000203360005281526117e760ff60406000205416156133ab565b856000526009815260406000203360005281526040600020600160ff1982541617905552600360406000200161181d815461300c565b905560405191829133964291846133f7565b0390a360018055005b9291508383813d8311611870575b6118508183612a14565b8101031261032d5791519091600080516020613c95833981519152611772565b503d611846565b5060065482106116e6565b3461032d57611890366128f2565b9080151580611b82575b6118a39061327c565b33600052602091600a83526118c260ff600560406000200154166132c8565b33600052600a83526118e260ff60056040600020015460081c1615613314565b33600052600a8352600192836040600020015490600460018060a01b0392828460025460081c16604051938480926363b36cc360e11b82525afa90811561046b57600091611b51575b61193792501015612e77565b61193f612f96565b611947612f78565b836000526007815260406000209261196660ff6008860154161561335f565b60038401544211611b0c578460005260098252604060002033600052825261199660ff60406000205416156133ab565b8015611abb578460005260098252604060002033600052825260406000208660ff1982541617905560068401916119cd835461300c565b83558560005260088152604060002093604051946119ea866129a6565b33865282860195848752604081019142835260608201908b82528054600160401b81101561060257611a20918d82018155612908565b939093611aa557600598611a5695600394511660018060a01b0319865416178555518c8501555160028401555115159101612c85565b6040519182524290820152847fdc37948d08732ed33078677fc43276d929de5bc1d96edc08562d508c79adc01c60403393a3549101541115611a9757508055005b611aa090613451565b508055005b634e487b7160e01b600052600060045260246000fd5b60405162461bcd60e51b8152600481018390526024808201527f4665656450726f746f636f6c3a207072696365206d75737420626520706f73696044820152637469766560e01b6064820152608490fd5b60405162461bcd60e51b815260048101839052601d60248201527f4665656450726f746f636f6c3a207265717565737420657870697265640000006044820152606490fd5b90508282813d8311611b7b575b611b688183612a14565b8101031261032d5761193791519061192b565b503d611b5e565b50600654811061189a565b3461032d57600036600319011261032d57611ba6612c07565b60025460ff811615611be55760ff19166002557f5db9ee0a495bf2e6ff9c91a7834c1ba4fdd244a5e8aa4e537bd38aeae4b073aa6020604051338152a1005b604051638dfc202b60e01b8152600490fd5b3461032d57602036600319011261032d5760043560005260076020526101406040600020805490600181015490600281015460ff8160081c166003830154600484015490600585015492611c7060068701549560ff600860078a015499015416986040519a8b5260208b015260ff60408b019116612b1d565b611c7981612b40565b6060880152608087015260a086015260c085015260e08401526101008301521515610120820152f35b3461032d57602036600319011261032d57600435600052600e6020526040600020805460018060a01b039160ff8360018301541693600283015416611d256003840154611cf160048601612a37565b9060066005870154960154936040519889988952602089015260408801526060870152610100806080880152860190612add565b9260a0850152818116151560c085015260081c16151560e08301520390f35b3461032d57600036600319011261032d57600b546000805b828110611f2a5750611d86611d7082613426565b91611d7e6040519384612a14565b808352613426565b6020928383019291601f19013684376000805b828110611ded5750505090604051928392818401908285525180915260408401929160005b828110611dcd57505050500390f35b83516001600160a01b031685528695509381019392810192600101611dbe565b611df6816128a9565b60018060a01b03809254600392831b1c16600052600a80895260ff90600591808360406000200154169283611efb575b505081611e75575b50611e44575b5050611e3f9061300c565b611d99565b92611e6d918394611e57611e3f956128a9565b9054911b1c16611e67828861343d565b5261300c565b919087611e34565b905082611e81856128a9565b905490841b1c1660005288526004600160406000200154898460025460081c16604051938480926363b36cc360e11b82525afa91821561046b57600092611ecc575b50101589611e2e565b9091508981813d8311611ef4575b611ee48183612a14565b8101031261032d5751908a611ec3565b503d611eda565b9091925084611f09876128a9565b905490861b1c16600052828b526040600020015460081c1615908a80611e26565b611f33816128a9565b9054600391821b1c6001600160a01b039081166000908152600a6020818152604090922060059081015460ff9081169492918561202c575b505083611fa0575b5050509050611f8b575b611f869061300c565b611d5c565b90611f98611f869161300c565b919050611f7d565b9193819350611fae866128a9565b9054911b1c1660005282526004826001604060002001549260025460081c16604051928380926363b36cc360e11b82525afa92831561046b57600093611ffc575b5050101580858080611f73565b9080929350813d8311612025575b6120148183612a14565b8101031261032d5751908580611fef565b503d61200a565b909194508261203a886128a9565b905490881b1c166000528484526040600020015460081c1615928880611f6b565b3461032d57604036600319011261032d57612074612893565b336001600160a01b03821603612090576103ee90600435612e02565b60405163334bd91960e11b8152600490fd5b3461032d57600036600319011261032d576003546040516001600160a01b039091168152602090f35b3461032d57604036600319011261032d576103ee6004356120ea612893565b90806000526000602052612105600160406000200154612c5f565b612d9b565b3461032d57604036600319011261032d5761212361287d565b6024356001600160401b03811161032d57612151600080516020613cf5833981519152913690600401612924565b336000908152600080516020613c55833981519152602052604090205490939061217d9060ff16613beb565b60018060a01b03169283600052600a602052600560406000200161010061ffff198254161790556121b56040519283924291846133f7565b0390a2005b3461032d57600036600319011261032d5760206040517f70b284da8bfc3de812daa2261b4c3ffadd90c2c772295293d09c9629a737a0cd8152f35b3461032d57602036600319011261032d5761220e61287d565b612216612c07565b600480546001600160a01b039283166001600160a01b031982168117909255604051428152919216907f6c269bbf433730565c77826a0adda6e00ea0ea749f0ce752d9157d653ed03dc690602090a3005b3461032d5760208060031936011261032d57600435612284612f96565b61228c612f78565b33600052600a825260406000209160018301928354936122ae84861015612e77565b6122b88486612fc6565b6002546040516363b36cc360e11b81526001600160a01b039592909183908390600490829060081c8a165afa91821561046b576000926123a7575b501080159061239e575b1561233c57506123108461232596612fc6565b8091551561232b575b50339060035416612fd3565b60018055005b600501805460ff1916905583612319565b6084906040519062461bcd60e51b82526004820152603560248201527f4665656450726f746f636f6c3a206d757374206d61696e7461696e206d696e206044820152741cdd185ad9481bdc881dda5d1a191c985dc8185b1b605a1b6064820152fd5b508585146122fd565b9091508281813d83116123cf575b6123bf8183612a14565b8101031261032d575190886122f3565b503d6123b5565b3461032d57602036600319011261032d5760043560005260006020526020600160406000200154604051908152f35b3461032d57602036600319011261032d5761241e61287d565b612426612c07565b60028054610100600160a81b03191660089290921b610100600160a81b0316919091179055005b3461032d5760208060031936011261032d5760043560005260088152604060002090815461247a81613426565b906124886040519283612a14565b8082528282018094600052836000206000915b8383106125065760408051878152865181890181905289928201908960005b8281106124c75784840385f35b855180516001600160a01b03168552808301518584015260408082015190860152606090810151151590850152948101946080909301926001016124ba565b600486600192604051612518816129a6565b848060a01b03865416815284860154838201526002860154604082015260ff6003870154161515606082015281520192019201919061249b565b3461032d5760c036600319011261032d57600435600381101561032d576024359060ff821680920361032d576044359060ff821680920361032d57600391612598612c07565b604051936125a58561298b565b84526020840190815260408401606435815260608501916084358352608086019360a43585526125d481612b40565b600052600c60205260ff604060002096511661ff008754925160081b169161ffff19161717855551600185015551600284015551910155600080f35b3461032d5761261e366128f2565b9060005260086020526040600020805482101561032d5760809161264191612908565b5060018060a01b038154169060018101549060ff6003600283015492015416916040519384526020840152604083015215156060820152f35b3461032d57602036600319011261032d57600435600b5481101561032d576126a36020916128a9565b905460405160039290921b1c6001600160a01b03168152f35b3461032d57602036600319011261032d5760e06001600160a01b03806126e061287d565b16600052600a60205260ff60406000209182541691600181015490600281015460038201549060056004840154930154936040519687526020870152604086015260608501526080840152818116151560a084015260081c16151560c0820152f35b61274b36612851565b336000908152600080516020613cd5833981519152602052604090205491929160ff1615612782576020926115a29261159d612f96565b60405162461bcd60e51b815260206004820152602560248201527f4665656450726f746f636f6c3a206e6f7420617574686f72697a65642070726f6044820152641d1bd8dbdb60da1b6064820152608490fd5b3461032d57600036600319011261032d576020604051600080516020613cb58339815191528152f35b3461032d57602036600319011261032d576004359063ffffffff60e01b821680920361032d57602091637965db0b60e01b8114908115612840575b5015158152f35b6301ffc9a760e01b14905083612839565b606090600319011261032d5760043590602435600481101561032d5790604435600381101561032d5790565b600435906001600160a01b038216820361032d57565b602435906001600160a01b038216820361032d57565b600b548110156128c457600b60005260206000200190600090565b634e487b7160e01b600052603260045260246000fd5b80548210156128c45760005260206000200190600090565b604090600319011261032d576004359060243590565b80548210156128c45760005260206000209060021b0190600090565b9181601f8401121561032d578235916001600160401b03831161032d576020838186019501011161032d57565b90600182811c92168015612981575b602083101461296b57565b634e487b7160e01b600052602260045260246000fd5b91607f1691612960565b60a081019081106001600160401b0382111761060257604052565b608081019081106001600160401b0382111761060257604052565b61010081019081106001600160401b0382111761060257604052565b61014081019081106001600160401b0382111761060257604052565b60e081019081106001600160401b0382111761060257604052565b601f909101601f19168101906001600160401b0382119082101761060257604052565b9060405191826000825492612a4b84612951565b908184526001948581169081600014612aba5750600114612a77575b5050612a7592500383612a14565b565b9093915060005260209081600020936000915b818310612aa2575050612a7593508201013880612a67565b85548884018501529485019487945091830191612a8a565b915050612a7594506020925060ff191682840152151560051b8201013880612a67565b919082519283825260005b848110612b09575050826000602080949584010152601f8019910116010190565b602081830181015184830182015201612ae8565b906004821015612b2a5752565b634e487b7160e01b600052602160045260246000fd5b60031115612b2a57565b8051825260208101516020830152612b6a60408201516040840190612b1d565b6060810151612b7881612b40565b60608301526080810151608083015260a081015160a083015260c081015160c083015260e081015160e08301526101008082015190830152610120809101511515910152565b6020908160408183019282815285518094520193019160005b828110612be5575050505090565b909192938261014082612bfb6001948951612b4a565b01950193929101612bd7565b3360009081527fad3228b676f7d3cd4284a5443f17f1962b36e491b30a40b2405849e597ba5fb5602052604081205460ff1615612c415750565b6044906040519063e2517d3f60e01b82523360048301526024820152fd5b80600052600060205260406000203360005260205260ff6040600020541615612c415750565b9060ff801983541691151516179055565b6001600160a01b031660008181527fb9aa941adaec809e6b0427677375ac0b3d84ba99295ec0ba010b381b51e947916020526040812054909190600080516020613c758339815191529060ff16612d1f57808352826020526040832082845260205260408320600160ff19825416179055600080516020613c35833981519152339380a4600190565b505090565b6001600160a01b03166000818152600080516020613cd58339815191526020526040812054909190600080516020613cb58339815191529060ff16612d1f57808352826020526040832082845260205260408320600160ff19825416179055600080516020613c35833981519152339380a4600190565b9060009180835282602052604083209160018060a01b03169182845260205260ff60408420541615600014612d1f57808352826020526040832082845260205260408320600160ff19825416179055600080516020613c35833981519152339380a4600190565b9060009180835282602052604083209160018060a01b03169182845260205260ff604084205416600014612d1f5780835282602052604083208284526020526040832060ff1981541690557ff6391f5c32d9c69d2a47ea670b442974b53935d1edc7fd64eb21e047a839171b339380a4600190565b15612e7e57565b606460405162461bcd60e51b815260206004820152602060248201527f4665656450726f746f636f6c3a20696e73756666696369656e74207374616b656044820152fd5b9061ff00825491151560081b169061ff001916179055565b6040516323b872dd60e01b60208201526001600160a01b039283166024820152929091166044830152606480830193909352918152612a7591612f1c8261298b565b906000602091828151910182855af11561046b576000513d612f6f57506001600160a01b0381163b155b612f4d5750565b604051635274afe760e01b81526001600160a01b039091166004820152602490fd5b60011415612f46565b60ff60025416612f8457565b60405163d93c066560e01b8152600490fd5b600260015414612fa7576002600155565b604051633ee5aeb560e01b8152600490fd5b91908201809211610da757565b91908203918211610da757565b60405163a9059cbb60e01b60208201526001600160a01b039092166024830152604480830193909352918152612a7591612f1c826129a6565b6000198114610da75760010190565b6004821015612b2a5752565b9061303183612b40565b82600052602090600c82526040600020936130956003604051966130548861298b565b60ff81548181168a5260081c16868901526001810154604089015260028101546060890152015480608088015260018060a01b036003541630903390612eda565b600654946130a28661300c565b600655610708420190814211610da75760ff90511690604051926130c5846129dd565b87845286868501526130da856040860161301b565b6130e381612b40565b606084015260808301524260a083015260c0820152600060e08201526000610100820152610120810160008152856000526007845260406000209082518255848301516001830155600282019060408401516004811015612b2a576131af9483610100926008955460ff61ff00606086015161315e81612b40565b61316781612b40565b891b1692169061ffff1916171790556080810151600386015560a0810151600486015560c0810151600586015560e08101516006860155015160078401555115159101612c85565b6000838152600d835260409020805492600160401b8410156106025761325c7f615e8f1333715c833aeea3803d6aa6f09d73c6db60f9ed7d1ded1cec09b48d9a93613204866101a09560018b990181556128da565b81549060031b9088821b91600019901b19161790556000604051936101208552816101208601526101408091860152840152600061016080604086015284015260006101808060608601528401526080830190612b1d565b600060a0820152600060c0820152600060e082015242610100820152a390565b1561328357565b60405162461bcd60e51b815260206004820152601d60248201527f4665656450726f746f636f6c3a20696e76616c696420726571756573740000006044820152606490fd5b156132cf57565b60405162461bcd60e51b815260206004820152601f60248201527f4665656450726f746f636f6c3a206e6f742061637469766520666565646572006044820152606490fd5b1561331b57565b606460405162461bcd60e51b815260206004820152602060248201527f4665656450726f746f636f6c3a2066656564657220626c61636b6c69737465646044820152fd5b1561336657565b60405162461bcd60e51b815260206004820152601f60248201527f4665656450726f746f636f6c3a20616c72656164792066696e616c697a6564006044820152606490fd5b156133b257565b60405162461bcd60e51b815260206004820152601f60248201527f4665656450726f746f636f6c3a20616c7265616479207375626d6974746564006044820152606490fd5b9392918060609160209360408852816040890152838801376000828288010152601f8019910116850101930152565b6001600160401b0381116106025760051b60200190565b80518210156128c45760209160051b010190565b6000918183526020906007825260409081852093600885019283549160ff9561347c8785161561335f565b8189526008815282892080549889156139c1576134988a613426565b986134a586519a8b612a14565b8a8a52601f196134b48c613426565b0136858c01378b9a8c5b8181106139555750508a15613911579a9998979593918a979593915b6000198b018b81116138fd578910156135df578b9c5b6134fa8a8d612fc6565b60001981019081116135cb578e10156135a3576135178e8c61343d565b519d6001810180821161358f579a8d9e9f6134fa928e9f9d9e839f61354e93613540828461343d565b511061355c575b505061300c565b9f9e5050509a99989a6134f0565b6135879061356a848461343d565b5192613576828261343d565b51613581868361343d565b5261343d565b528f38613547565b634e487b7160e01b8f52601160045260248ffd5b91939597999a9b9c50919395976135b99061300c565b979593919b9a9998969492909b6134da565b634e487b7160e01b8e52601160045260248efd5b9399949a959b9298909691975060019485808216156000146138e9571c60001981018181116138d557916136226136299261361b89958461343d565b519261343d565b5190612fb9565b811c9a5b8b600786015560ff19161790558684526007865260029481868a8720015460081c1661365881612b40565b8552600c875288852090895161366d8161298b565b838354818116835260081c1689820152858301548b8201528783015490816060820152608060038095015491015281549081156138c1578887868d8f8c908f9697859a9998049682955b613800575b509650509650505050507f4da0f440b42ee815c5b14cbf1a5cb712c4fcf1ee583ca8c97bdbbdf4a1e7ba1f915080518c8152428a820152a26004546001600160a01b03169283613713575b50505050505050505090565b82019485549201541691803b156137fc5791606484928361374e958b519687958694630c21ea2360e21b865260048601526024850190612b1d565b8c60448401525af191826137d0575b50506137c7577f1f54ad489b02300a3aef537f4dd4783a133c3fdb048bdd7cd10e96842a4d8b4f917a13dc1d1a5bdb9cd0dbdc994818d85b1b189858dac819985a5b1959602a1b6060925495601b815193808552840152820152a35b388080808080808080613707565b505050506137b9565b6001600160401b0382116137e857508552388061375d565b634e487b7160e01b81526041600452602490fd5b8380fd5b88548610156138bc5761383596898994888d988961381e8386612908565b50015416613843575b50505050505050505061300c565b8990868d8f8c908f8a6136b7565b7f602ab809fa82d3a742a4f9a33cdd154988d8b0f578ee4dc91de3dc412bf026b99661387361388b928895612908565b505499546001600160a01b039a8b169a8b9116612fd3565b878152600a8452200161389e815461300c565b90558151908882524290820152a3848d8f85908f8f8f8a9088613827565b6136bc565b634e487b7160e01b88526012600452602488fd5b634e487b7160e01b88526011600452602488fd5b916138f691831c9061343d565b519a61362d565b634e487b7160e01b8d52601160045260248dfd5b855162461bcd60e51b815260048101859052601d60248201527f4665656450726f746f636f6c3a206e6f2076616c6964207072696365730000006044820152606490fd5b8260036139628388612908565b50015416806139aa575b61397f575b61397a9061300c565b6134be565b9b6139a2818d8f61397a946001613999611e67938c612908565b5001549261343d565b9c9050613971565b5060016139b78287612908565b500154151561396c565b845162461bcd60e51b815260048101849052601c60248201527b4665656450726f746f636f6c3a206e6f207375626d697373696f6e7360201b6044820152606490fd5b60405190613a11826129dd565b816101206000918281528260208201528260408201528260608201528260808201528260a08201528260c08201528260e0820152826101008201520152565b90613a5a82613426565b613a676040519182612a14565b8281528092613a78601f1991613426565b019060005b828110613a8957505050565b602090613a94613a04565b82828501015201613a7d565b906006908154906000198201918211610da75781841015613bc357613ad991613aca859283612fb9565b90808211613bbb575b50612fc6565b90613ae382613a50565b9260005b838110613af5575050505090565b613aff8183612fb9565b906001808301809311610da757613bb69260005260076020908082526040918260002090835194613b2f866129dd565b8254865282015490850152600281015491613b5160ff9485851690870161301b565b83600893841c16613b6181612b40565b606086015260038201546080860152600482015460a0860152600582015460c08601528882015460e08601528101546101008501520154161515610120820152613bab828861343d565b526112cf818761343d565b613ae7565b905038613ad3565b5050604051915050602081016001600160401b03811182821017610602576040526000815290565b15613bf257565b60405162461bcd60e51b815260206004820152601a6024820152792332b2b2283937ba37b1b7b61d103737ba1037b832b930ba37b960311b6044820152606490fdfe2f8788117e7eff1d82e926ec794901d17c78024a50270940304540a733656f0da0cfc50be65892217a92eab74d4b8dca267a17d5b74f05a4a7cdee0906a51faf92a9bfc44b11bdcb4ce1c7bb0f30145a060370f7684a9cf6c25518e5775772695d7b755f33872c8c5fe6e178f7b9e167e0aa5f0407495210e7e0c8835a21cadbba279271fb7bbf76a6f3df3cc57bf80647fcafdea60ec3383d90f459de74e7c0bb186cc6582165753931a58fdaac99b9482f9d63c76229808bd3afc382e98215a172cc290b2e00bc2a34c06a4d70cd942037859cca624f051cd830b4b268eac51dc2444dead8ae7cdcfa34cbc2b38dca2eba0da3267d2c885fc9faa0eff3bdb7a26469706673582212209fda5b3adbf251c1cb93c3b5fe472d1e8fa652ad947e37cc51910ffd0f4b101f64736f6c634300081400332f8788117e7eff1d82e926ec794901d17c78024a50270940304540a733656f0d",
  "linkReferences": {},
  "deployedLinkReferences": {}
}