{
  "_format": "hh-sol-artifact-1",
  "contractName": "FeedProtocol",
  "sourceName": "contracts/feed/FeedProtocol.sol",
  "abi": [
    {
      "inputs": [
        {
          "internalType": "address",
          "name": "_config",
          "type": "address"
        },
        {
          "internalType": "address",
          "name": "_usdt",
          "type": "address"
        },
        {
          "internalType": "address",
          "name": "_admin",
          "type": "address"
        }
      ],
      "stateMutability": "nonpayable",
      "type": "constructor"
    },
    {
      "inputs": [],
      "name": "AccessControlBadConfirmation",
      "type": "error"
    },
    {
      "inputs": [
        {
          "internalType": "address",
          "name": "account",
          "type": "address"
        },
        {
          "internalType": "bytes32",
          "name": "neededRole",
          "type": "bytes32"
        }
      ],
      "name": "AccessControlUnauthorizedAccount",
      "type": "error"
    },
    {
      "inputs": [],
      "name": "EnforcedPause",
      "type": "error"
    },
    {
      "inputs": [],
      "name": "ExpectedPause",
      "type": "error"
    },
    {
      "inputs": [],
      "name": "ReentrancyGuardReentrantCall",
      "type": "error"
    },
    {
      "inputs": [
        {
          "internalType": "address",
          "name": "token",
          "type": "address"
        }
      ],
      "name": "SafeERC20FailedOperation",
      "type": "error"
    },
    {
      "anonymous": false,
      "inputs": [
        {
          "indexed": true,
          "internalType": "uint256",
          "name": "requestId",
          "type": "uint256"
        },
        {
          "indexed": true,
          "internalType": "uint256",
          "name": "orderId",
          "type": "uint256"
        },
        {
          "indexed": false,
          "internalType": "string",
          "name": "reason",
          "type": "string"
        }
      ],
      "name": "CallbackFailed",
      "type": "event"
    },
    {
      "anonymous": false,
      "inputs": [
        {
          "indexed": true,
          "internalType": "uint256",
          "name": "requestId",
          "type": "uint256"
        },
        {
          "indexed": false,
          "internalType": "string",
          "name": "reason",
          "type": "string"
        }
      ],
      "name": "FeedFinalizeSkipped",
      "type": "event"
    },
    {
      "anonymous": false,
      "inputs": [
        {
          "indexed": true,
          "internalType": "uint256",
          "name": "requestId",
          "type": "uint256"
        },
        {
          "indexed": false,
          "internalType": "uint256",
          "name": "finalPrice",
          "type": "uint256"
        },
        {
          "indexed": false,
          "internalType": "uint256",
          "name": "timestamp",
          "type": "uint256"
        }
      ],
      "name": "FeedFinalized",
      "type": "event"
    },
    {
      "anonymous": false,
      "inputs": [
        {
          "indexed": true,
          "internalType": "uint256",
          "name": "requestId",
          "type": "uint256"
        },
        {
          "indexed": true,
          "internalType": "address",
          "name": "feeder",
          "type": "address"
        },
        {
          "indexed": false,
          "internalType": "string",
          "name": "reason",
          "type": "string"
        },
        {
          "indexed": false,
          "internalType": "uint256",
          "name": "timestamp",
          "type": "uint256"
        }
      ],
      "name": "FeedRejected",
      "type": "event"
    },
    {
      "anonymous": false,
      "inputs": [
        {
          "indexed": true,
          "internalType": "uint256",
          "name": "requestId",
          "type": "uint256"
        },
        {
          "indexed": true,
          "internalType": "uint256",
          "name": "orderId",
          "type": "uint256"
        },
        {
          "indexed": false,
          "internalType": "string",
          "name": "reason",
          "type": "string"
        }
      ],
      "name": "FeedRequestStatusSyncFailed",
      "type": "event"
    },
    {
      "anonymous": false,
      "inputs": [
        {
          "indexed": true,
          "internalType": "uint256",
          "name": "requestId",
          "type": "uint256"
        },
        {
          "indexed": true,
          "internalType": "uint256",
          "name": "orderId",
          "type": "uint256"
        },
        {
          "indexed": false,
          "internalType": "string",
          "name": "underlyingName",
          "type": "string"
        },
        {
          "indexed": false,
          "internalType": "string",
          "name": "underlyingCode",
          "type": "string"
        },
        {
          "indexed": false,
          "internalType": "string",
          "name": "market",
          "type": "string"
        },
        {
          "indexed": false,
          "internalType": "string",
          "name": "country",
          "type": "string"
        },
        {
          "indexed": false,
          "internalType": "enum FeedType",
          "name": "feedType",
          "type": "uint8"
        },
        {
          "indexed": false,
          "internalType": "enum LiquidationRule",
          "name": "liquidationRule",
          "type": "uint8"
        },
        {
          "indexed": false,
          "internalType": "uint8",
          "name": "consecutiveDays",
          "type": "uint8"
        },
        {
          "indexed": false,
          "internalType": "uint8",
          "name": "exerciseDelay",
          "type": "uint8"
        },
        {
          "indexed": false,
          "internalType": "uint256",
          "name": "timestamp",
          "type": "uint256"
        }
      ],
      "name": "FeedRequested",
      "type": "event"
    },
    {
      "anonymous": false,
      "inputs": [
        {
          "indexed": true,
          "internalType": "uint256",
          "name": "requestId",
          "type": "uint256"
        },
        {
          "indexed": true,
          "internalType": "address",
          "name": "feeder",
          "type": "address"
        },
        {
          "indexed": false,
          "internalType": "uint256",
          "name": "price",
          "type": "uint256"
        },
        {
          "indexed": false,
          "internalType": "uint256",
          "name": "timestamp",
          "type": "uint256"
        }
      ],
      "name": "FeedSubmitted",
      "type": "event"
    },
    {
      "anonymous": false,
      "inputs": [
        {
          "indexed": true,
          "internalType": "address",
          "name": "feeder",
          "type": "address"
        },
        {
          "indexed": false,
          "internalType": "string",
          "name": "reason",
          "type": "string"
        },
        {
          "indexed": false,
          "internalType": "uint256",
          "name": "timestamp",
          "type": "uint256"
        }
      ],
      "name": "FeederBlacklisted",
      "type": "event"
    },
    {
      "anonymous": false,
      "inputs": [
        {
          "indexed": true,
          "internalType": "address",
          "name": "feeder",
          "type": "address"
        },
        {
          "indexed": false,
          "internalType": "string",
          "name": "reason",
          "type": "string"
        },
        {
          "indexed": false,
          "internalType": "uint256",
          "name": "timestamp",
          "type": "uint256"
        }
      ],
      "name": "FeederDeactivated",
      "type": "event"
    },
    {
      "anonymous": false,
      "inputs": [
        {
          "indexed": true,
          "internalType": "address",
          "name": "feeder",
          "type": "address"
        },
        {
          "indexed": false,
          "internalType": "uint256",
          "name": "stakedAmount",
          "type": "uint256"
        },
        {
          "indexed": false,
          "internalType": "uint256",
          "name": "timestamp",
          "type": "uint256"
        }
      ],
      "name": "FeederRegistered",
      "type": "event"
    },
    {
      "anonymous": false,
      "inputs": [
        {
          "indexed": true,
          "internalType": "uint256",
          "name": "reportId",
          "type": "uint256"
        },
        {
          "indexed": true,
          "internalType": "address",
          "name": "reporter",
          "type": "address"
        },
        {
          "indexed": true,
          "internalType": "address",
          "name": "feeder",
          "type": "address"
        },
        {
          "indexed": false,
          "internalType": "uint256",
          "name": "requestId",
          "type": "uint256"
        },
        {
          "indexed": false,
          "internalType": "uint256",
          "name": "timestamp",
          "type": "uint256"
        }
      ],
      "name": "MaliciousFeedReported",
      "type": "event"
    },
    {
      "anonymous": false,
      "inputs": [
        {
          "indexed": true,
          "internalType": "uint256",
          "name": "reportId",
          "type": "uint256"
        },
        {
          "indexed": false,
          "internalType": "bool",
          "name": "confirmed",
          "type": "bool"
        },
        {
          "indexed": false,
          "internalType": "uint256",
          "name": "slashedAmount",
          "type": "uint256"
        },
        {
          "indexed": false,
          "internalType": "uint256",
          "name": "timestamp",
          "type": "uint256"
        }
      ],
      "name": "MaliciousReportProcessed",
      "type": "event"
    },
    {
      "anonymous": false,
      "inputs": [
        {
          "indexed": true,
          "internalType": "address",
          "name": "oldAddress",
          "type": "address"
        },
        {
          "indexed": true,
          "internalType": "address",
          "name": "newAddress",
          "type": "address"
        },
        {
          "indexed": false,
          "internalType": "uint256",
          "name": "timestamp",
          "type": "uint256"
        }
      ],
      "name": "OptionsCoreUpdated",
      "type": "event"
    },
    {
      "anonymous": false,
      "inputs": [
        {
          "indexed": false,
          "internalType": "address",
          "name": "account",
          "type": "address"
        }
      ],
      "name": "Paused",
      "type": "event"
    },
    {
      "anonymous": false,
      "inputs": [
        {
          "indexed": true,
          "internalType": "uint256",
          "name": "requestId",
          "type": "uint256"
        },
        {
          "indexed": true,
          "internalType": "address",
          "name": "feeder",
          "type": "address"
        },
        {
          "indexed": false,
          "internalType": "uint256",
          "name": "amount",
          "type": "uint256"
        },
        {
          "indexed": false,
          "internalType": "uint256",
          "name": "timestamp",
          "type": "uint256"
        }
      ],
      "name": "RewardDistributed",
      "type": "event"
    },
    {
      "anonymous": false,
      "inputs": [
        {
          "indexed": true,
          "internalType": "bytes32",
          "name": "role",
          "type": "bytes32"
        },
        {
          "indexed": true,
          "internalType": "bytes32",
          "name": "previousAdminRole",
          "type": "bytes32"
        },
        {
          "indexed": true,
          "internalType": "bytes32",
          "name": "newAdminRole",
          "type": "bytes32"
        }
      ],
      "name": "RoleAdminChanged",
      "type": "event"
    },
    {
      "anonymous": false,
      "inputs": [
        {
          "indexed": true,
          "internalType": "bytes32",
          "name": "role",
          "type": "bytes32"
        },
        {
          "indexed": true,
          "internalType": "address",
          "name": "account",
          "type": "address"
        },
        {
          "indexed": true,
          "internalType": "address",
          "name": "sender",
          "type": "address"
        }
      ],
      "name": "RoleGranted",
      "type": "event"
    },
    {
      "anonymous": false,
      "inputs": [
        {
          "indexed": true,
          "internalType": "bytes32",
          "name": "role",
          "type": "bytes32"
        },
        {
          "indexed": true,
          "internalType": "address",
          "name": "account",
          "type": "address"
        },
        {
          "indexed": true,
          "internalType": "address",
          "name": "sender",
          "type": "address"
        }
      ],
      "name": "RoleRevoked",
      "type": "event"
    },
    {
      "anonymous": false,
      "inputs": [
        {
          "indexed": false,
          "internalType": "address",
          "name": "account",
          "type": "address"
        }
      ],
      "name": "Unpaused",
      "type": "event"
    },
    {
      "inputs": [],
      "name": "DEFAULT_ADMIN_ROLE",
      "outputs": [
        {
          "internalType": "bytes32",
          "name": "",
          "type": "bytes32"
        }
      ],
      "stateMutability": "view",
      "type": "function"
    },
    {
      "inputs": [],
      "name": "FEED_OPERATOR_ROLE",
      "outputs": [
        {
          "internalType": "bytes32",
          "name": "",
          "type": "bytes32"
        }
      ],
      "stateMutability": "view",
      "type": "function"
    },
    {
      "inputs": [],
      "name": "PROTOCOL_ROLE",
      "outputs": [
        {
          "internalType": "bytes32",
          "name": "",
          "type": "bytes32"
        }
      ],
      "stateMutability": "view",
      "type": "function"
    },
    {
      "inputs": [],
      "name": "SENIOR_FEEDER_ROLE",
      "outputs": [
        {
          "internalType": "bytes32",
          "name": "",
          "type": "bytes32"
        }
      ],
      "stateMutability": "view",
      "type": "function"
    },
    {
      "inputs": [
        {
          "internalType": "uint256",
          "name": "amount",
          "type": "uint256"
        }
      ],
      "name": "addStake",
      "outputs": [],
      "stateMutability": "nonpayable",
      "type": "function"
    },
    {
      "inputs": [
        {
          "internalType": "address",
          "name": "feeder",
          "type": "address"
        },
        {
          "internalType": "string",
          "name": "reason",
          "type": "string"
        }
      ],
      "name": "blacklistFeeder",
      "outputs": [],
      "stateMutability": "nonpayable",
      "type": "function"
    },
    {
      "inputs": [],
      "name": "config",
      "outputs": [
        {
          "internalType": "contract Config",
          "name": "",
          "type": "address"
        }
      ],
      "stateMutability": "view",
      "type": "function"
    },
    {
      "inputs": [
        {
          "internalType": "uint256",
          "name": "orderId",
          "type": "uint256"
        },
        {
          "internalType": "enum FeedType",
          "name": "feedType",
          "type": "uint8"
        },
        {
          "internalType": "enum FeedTier",
          "name": "tier",
          "type": "uint8"
        }
      ],
      "name": "createFeedRequest",
      "outputs": [
        {
          "internalType": "uint256",
          "name": "requestId",
          "type": "uint256"
        }
      ],
      "stateMutability": "payable",
      "type": "function"
    },
    {
      "inputs": [
        {
          "internalType": "uint256",
          "name": "",
          "type": "uint256"
        }
      ],
      "name": "feedRequests",
      "outputs": [
        {
          "internalType": "uint256",
          "name": "requestId",
          "type": "uint256"
        },
        {
          "internalType": "uint256",
          "name": "orderId",
          "type": "uint256"
        },
        {
          "internalType": "enum FeedType",
          "name": "feedType",
          "type": "uint8"
        },
        {
          "internalType": "enum FeedTier",
          "name": "tier",
          "type": "uint8"
        },
        {
          "internalType": "uint256",
          "name": "deadline",
          "type": "uint256"
        },
        {
          "internalType": "uint256",
          "name": "createdAt",
          "type": "uint256"
        },
        {
          "internalType": "uint256",
          "name": "totalFeeders",
          "type": "uint256"
        },
        {
          "internalType": "uint256",
          "name": "submittedCount",
          "type": "uint256"
        },
        {
          "internalType": "uint256",
          "name": "finalPrice",
          "type": "uint256"
        },
        {
          "internalType": "bool",
          "name": "finalized",
          "type": "bool"
        }
      ],
      "stateMutability": "view",
      "type": "function"
    },
    {
      "inputs": [
        {
          "internalType": "uint256",
          "name": "",
          "type": "uint256"
        }
      ],
      "name": "feederList",
      "outputs": [
        {
          "internalType": "address",
          "name": "",
          "type": "address"
        }
      ],
      "stateMutability": "view",
      "type": "function"
    },
    {
      "inputs": [],
      "name": "feederSelector",
      "outputs": [
        {
          "internalType": "address",
          "name": "",
          "type": "address"
        }
      ],
      "stateMutability": "view",
      "type": "function"
    },
    {
      "inputs": [
        {
          "internalType": "address",
          "name": "",
          "type": "address"
        }
      ],
      "name": "feeders",
      "outputs": [
        {
          "internalType": "address",
          "name": "feederAddress",
          "type": "address"
        },
        {
          "internalType": "uint256",
          "name": "stakedAmount",
          "type": "uint256"
        },
        {
          "internalType": "uint256",
          "name": "completedFeeds",
          "type": "uint256"
        },
        {
          "internalType": "uint256",
          "name": "rejectedFeeds",
          "type": "uint256"
        },
        {
          "internalType": "uint256",
          "name": "registeredAt",
          "type": "uint256"
        },
        {
          "internalType": "bool",
          "name": "isActive",
          "type": "bool"
        },
        {
          "internalType": "bool",
          "name": "isBlacklisted",
          "type": "bool"
        }
      ],
      "stateMutability": "view",
      "type": "function"
    },
    {
      "inputs": [
        {
          "internalType": "uint256",
          "name": "requestId",
          "type": "uint256"
        }
      ],
      "name": "finalizeFeed",
      "outputs": [
        {
          "internalType": "uint256",
          "name": "finalPrice",
          "type": "uint256"
        }
      ],
      "stateMutability": "nonpayable",
      "type": "function"
    },
    {
      "inputs": [],
      "name": "getActiveFeeders",
      "outputs": [
        {
          "internalType": "address[]",
          "name": "",
          "type": "address[]"
        }
      ],
      "stateMutability": "view",
      "type": "function"
    },
    {
      "inputs": [
        {
          "internalType": "uint256",
          "name": "offset",
          "type": "uint256"
        },
        {
          "internalType": "uint256",
          "name": "limit",
          "type": "uint256"
        }
      ],
      "name": "getAllFeedRequests",
      "outputs": [
        {
          "components": [
            {
              "internalType": "uint256",
              "name": "requestId",
              "type": "uint256"
            },
            {
              "internalType": "uint256",
              "name": "orderId",
              "type": "uint256"
            },
            {
              "internalType": "enum FeedType",
              "name": "feedType",
              "type": "uint8"
            },
            {
              "internalType": "enum FeedTier",
              "name": "tier",
              "type": "uint8"
            },
            {
              "internalType": "uint256",
              "name": "deadline",
              "type": "uint256"
            },
            {
              "internalType": "uint256",
              "name": "createdAt",
              "type": "uint256"
            },
            {
              "internalType": "uint256",
              "name": "totalFeeders",
              "type": "uint256"
            },
            {
              "internalType": "uint256",
              "name": "submittedCount",
              "type": "uint256"
            },
            {
              "internalType": "uint256",
              "name": "finalPrice",
              "type": "uint256"
            },
            {
              "internalType": "bool",
              "name": "finalized",
              "type": "bool"
            }
          ],
          "internalType": "struct FeedRequest[]",
          "name": "",
          "type": "tuple[]"
        }
      ],
      "stateMutability": "view",
      "type": "function"
    },
    {
      "inputs": [
        {
          "internalType": "enum FeedTier",
          "name": "tier",
          "type": "uint8"
        }
      ],
      "name": "getFeedFee",
      "outputs": [
        {
          "internalType": "uint256",
          "name": "",
          "type": "uint256"
        }
      ],
      "stateMutability": "view",
      "type": "function"
    },
    {
      "inputs": [
        {
          "internalType": "uint256",
          "name": "requestId",
          "type": "uint256"
        }
      ],
      "name": "getFeedRequest",
      "outputs": [
        {
          "components": [
            {
              "internalType": "uint256",
              "name": "requestId",
              "type": "uint256"
            },
            {
              "internalType": "uint256",
              "name": "orderId",
              "type": "uint256"
            },
            {
              "internalType": "enum FeedType",
              "name": "feedType",
              "type": "uint8"
            },
            {
              "internalType": "enum FeedTier",
              "name": "tier",
              "type": "uint8"
            },
            {
              "internalType": "uint256",
              "name": "deadline",
              "type": "uint256"
            },
            {
              "internalType": "uint256",
              "name": "createdAt",
              "type": "uint256"
            },
            {
              "internalType": "uint256",
              "name": "totalFeeders",
              "type": "uint256"
            },
            {
              "internalType": "uint256",
              "name": "submittedCount",
              "type": "uint256"
            },
            {
              "internalType": "uint256",
              "name": "finalPrice",
              "type": "uint256"
            },
            {
              "internalType": "bool",
              "name": "finalized",
              "type": "bool"
            }
          ],
          "internalType": "struct FeedRequest",
          "name": "",
          "type": "tuple"
        }
      ],
      "stateMutability": "view",
      "type": "function"
    },
    {
      "inputs": [
        {
          "internalType": "address",
          "name": "feeder",
          "type": "address"
        }
      ],
      "name": "getFeeder",
      "outputs": [
        {
          "components": [
            {
              "internalType": "address",
              "name": "feederAddress",
              "type": "address"
            },
            {
              "internalType": "uint256",
              "name": "stakedAmount",
              "type": "uint256"
            },
            {
              "internalType": "uint256",
              "name": "completedFeeds",
              "type": "uint256"
            },
            {
              "internalType": "uint256",
              "name": "rejectedFeeds",
              "type": "uint256"
            },
            {
              "internalType": "uint256",
              "name": "registeredAt",
              "type": "uint256"
            },
            {
              "internalType": "bool",
              "name": "isActive",
              "type": "bool"
            },
            {
              "internalType": "bool",
              "name": "isBlacklisted",
              "type": "bool"
            }
          ],
          "internalType": "struct FeedProtocol.Feeder",
          "name": "",
          "type": "tuple"
        }
      ],
      "stateMutability": "view",
      "type": "function"
    },
    {
      "inputs": [],
      "name": "getFeederCount",
      "outputs": [
        {
          "internalType": "uint256",
          "name": "",
          "type": "uint256"
        }
      ],
      "stateMutability": "view",
      "type": "function"
    },
    {
      "inputs": [
        {
          "internalType": "uint256",
          "name": "reportId",
          "type": "uint256"
        }
      ],
      "name": "getMaliciousReport",
      "outputs": [
        {
          "components": [
            {
              "internalType": "uint256",
              "name": "reportId",
              "type": "uint256"
            },
            {
              "internalType": "address",
              "name": "reporter",
              "type": "address"
            },
            {
              "internalType": "address",
              "name": "reportedFeeder",
              "type": "address"
            },
            {
              "internalType": "uint256",
              "name": "requestId",
              "type": "uint256"
            },
            {
              "internalType": "string",
              "name": "evidence",
              "type": "string"
            },
            {
              "internalType": "uint256",
              "name": "reportedAt",
              "type": "uint256"
            },
            {
              "internalType": "bool",
              "name": "processed",
              "type": "bool"
            },
            {
              "internalType": "bool",
              "name": "confirmed",
              "type": "bool"
            }
          ],
          "internalType": "struct FeedProtocol.MaliciousReport",
          "name": "",
          "type": "tuple"
        }
      ],
      "stateMutability": "view",
      "type": "function"
    },
    {
      "inputs": [
        {
          "internalType": "uint256",
          "name": "orderId",
          "type": "uint256"
        }
      ],
      "name": "getOrderFeedRequests",
      "outputs": [
        {
          "internalType": "uint256[]",
          "name": "",
          "type": "uint256[]"
        }
      ],
      "stateMutability": "view",
      "type": "function"
    },
    {
      "inputs": [],
      "name": "getPendingRequests",
      "outputs": [
        {
          "components": [
            {
              "internalType": "uint256",
              "name": "requestId",
              "type": "uint256"
            },
            {
              "internalType": "uint256",
              "name": "orderId",
              "type": "uint256"
            },
            {
              "internalType": "enum FeedType",
              "name": "feedType",
              "type": "uint8"
            },
            {
              "internalType": "enum FeedTier",
              "name": "tier",
              "type": "uint8"
            },
            {
              "internalType": "uint256",
              "name": "deadline",
              "type": "uint256"
            },
            {
              "internalType": "uint256",
              "name": "createdAt",
              "type": "uint256"
            },
            {
              "internalType": "uint256",
              "name": "totalFeeders",
              "type": "uint256"
            },
            {
              "internalType": "uint256",
              "name": "submittedCount",
              "type": "uint256"
            },
            {
              "internalType": "uint256",
              "name": "finalPrice",
              "type": "uint256"
            },
            {
              "internalType": "bool",
              "name": "finalized",
              "type": "bool"
            }
          ],
          "internalType": "struct FeedRequest[]",
          "name": "",
          "type": "tuple[]"
        }
      ],
      "stateMutability": "view",
      "type": "function"
    },
    {
      "inputs": [
        {
          "internalType": "bytes32",
          "name": "role",
          "type": "bytes32"
        }
      ],
      "name": "getRoleAdmin",
      "outputs": [
        {
          "internalType": "bytes32",
          "name": "",
          "type": "bytes32"
        }
      ],
      "stateMutability": "view",
      "type": "function"
    },
    {
      "inputs": [
        {
          "internalType": "uint256",
          "name": "requestId",
          "type": "uint256"
        }
      ],
      "name": "getSubmissions",
      "outputs": [
        {
          "components": [
            {
              "internalType": "address",
              "name": "feeder",
              "type": "address"
            },
            {
              "internalType": "uint256",
              "name": "price",
              "type": "uint256"
            },
            {
              "internalType": "uint256",
              "name": "timestamp",
              "type": "uint256"
            },
            {
              "internalType": "bool",
              "name": "isValid",
              "type": "bool"
            }
          ],
          "internalType": "struct FeedProtocol.FeedSubmission[]",
          "name": "",
          "type": "tuple[]"
        }
      ],
      "stateMutability": "view",
      "type": "function"
    },
    {
      "inputs": [],
      "name": "getTotalRequestCount",
      "outputs": [
        {
          "internalType": "uint256",
          "name": "",
          "type": "uint256"
        }
      ],
      "stateMutability": "view",
      "type": "function"
    },
    {
      "inputs": [
        {
          "internalType": "address",
          "name": "protocol",
          "type": "address"
        }
      ],
      "name": "grantProtocolRole",
      "outputs": [],
      "stateMutability": "nonpayable",
      "type": "function"
    },
    {
      "inputs": [
        {
          "internalType": "bytes32",
          "name": "role",
          "type": "bytes32"
        },
        {
          "internalType": "address",
          "name": "account",
          "type": "address"
        }
      ],
      "name": "grantRole",
      "outputs": [],
      "stateMutability": "nonpayable",
      "type": "function"
    },
    {
      "inputs": [
        {
          "internalType": "address",
          "name": "feeder",
          "type": "address"
        }
      ],
      "name": "grantSeniorFeederRole",
      "outputs": [],
      "stateMutability": "nonpayable",
      "type": "function"
    },
    {
      "inputs": [
        {
          "internalType": "bytes32",
          "name": "role",
          "type": "bytes32"
        },
        {
          "internalType": "address",
          "name": "account",
          "type": "address"
        }
      ],
      "name": "hasRole",
      "outputs": [
        {
          "internalType": "bool",
          "name": "",
          "type": "bool"
        }
      ],
      "stateMutability": "view",
      "type": "function"
    },
    {
      "inputs": [
        {
          "internalType": "uint256",
          "name": "",
          "type": "uint256"
        },
        {
          "internalType": "address",
          "name": "",
          "type": "address"
        }
      ],
      "name": "hasSubmitted",
      "outputs": [
        {
          "internalType": "bool",
          "name": "",
          "type": "bool"
        }
      ],
      "stateMutability": "view",
      "type": "function"
    },
    {
      "inputs": [
        {
          "internalType": "uint256",
          "name": "",
          "type": "uint256"
        }
      ],
      "name": "maliciousReports",
      "outputs": [
        {
          "internalType": "uint256",
          "name": "reportId",
          "type": "uint256"
        },
        {
          "internalType": "address",
          "name": "reporter",
          "type": "address"
        },
        {
          "internalType": "address",
          "name": "reportedFeeder",
          "type": "address"
        },
        {
          "internalType": "uint256",
          "name": "requestId",
          "type": "uint256"
        },
        {
          "internalType": "string",
          "name": "evidence",
          "type": "string"
        },
        {
          "internalType": "uint256",
          "name": "reportedAt",
          "type": "uint256"
        },
        {
          "internalType": "bool",
          "name": "processed",
          "type": "bool"
        },
        {
          "internalType": "bool",
          "name": "confirmed",
          "type": "bool"
        }
      ],
      "stateMutability": "view",
      "type": "function"
    },
    {
      "inputs": [],
      "name": "nextReportId",
      "outputs": [
        {
          "internalType": "uint256",
          "name": "",
          "type": "uint256"
        }
      ],
      "stateMutability": "view",
      "type": "function"
    },
    {
      "inputs": [],
      "name": "nextRequestId",
      "outputs": [
        {
          "internalType": "uint256",
          "name": "",
          "type": "uint256"
        }
      ],
      "stateMutability": "view",
      "type": "function"
    },
    {
      "inputs": [],
      "name": "optionsCore",
      "outputs": [
        {
          "internalType": "contract IOptionsCore",
          "name": "",
          "type": "address"
        }
      ],
      "stateMutability": "view",
      "type": "function"
    },
    {
      "inputs": [
        {
          "internalType": "uint256",
          "name": "",
          "type": "uint256"
        },
        {
          "internalType": "uint256",
          "name": "",
          "type": "uint256"
        }
      ],
      "name": "orderFeedRequests",
      "outputs": [
        {
          "internalType": "uint256",
          "name": "",
          "type": "uint256"
        }
      ],
      "stateMutability": "view",
      "type": "function"
    },
    {
      "inputs": [],
      "name": "pause",
      "outputs": [],
      "stateMutability": "nonpayable",
      "type": "function"
    },
    {
      "inputs": [],
      "name": "paused",
      "outputs": [
        {
          "internalType": "bool",
          "name": "",
          "type": "bool"
        }
      ],
      "stateMutability": "view",
      "type": "function"
    },
    {
      "inputs": [
        {
          "internalType": "uint256",
          "name": "reportId",
          "type": "uint256"
        },
        {
          "internalType": "bool",
          "name": "confirmed",
          "type": "bool"
        },
        {
          "internalType": "uint256",
          "name": "slashPercent",
          "type": "uint256"
        }
      ],
      "name": "processMaliciousReport",
      "outputs": [],
      "stateMutability": "nonpayable",
      "type": "function"
    },
    {
      "inputs": [
        {
          "internalType": "uint256",
          "name": "stakeAmount",
          "type": "uint256"
        }
      ],
      "name": "registerFeeder",
      "outputs": [],
      "stateMutability": "nonpayable",
      "type": "function"
    },
    {
      "inputs": [
        {
          "internalType": "uint256",
          "name": "requestId",
          "type": "uint256"
        },
        {
          "internalType": "string",
          "name": "reason",
          "type": "string"
        }
      ],
      "name": "rejectFeed",
      "outputs": [],
      "stateMutability": "nonpayable",
      "type": "function"
    },
    {
      "inputs": [
        {
          "internalType": "bytes32",
          "name": "role",
          "type": "bytes32"
        },
        {
          "internalType": "address",
          "name": "callerConfirmation",
          "type": "address"
        }
      ],
      "name": "renounceRole",
      "outputs": [],
      "stateMutability": "nonpayable",
      "type": "function"
    },
    {
      "inputs": [
        {
          "internalType": "address",
          "name": "feeder",
          "type": "address"
        },
        {
          "internalType": "uint256",
          "name": "requestId",
          "type": "uint256"
        },
        {
          "internalType": "string",
          "name": "evidence",
          "type": "string"
        }
      ],
      "name": "reportMaliciousFeed",
      "outputs": [
        {
          "internalType": "uint256",
          "name": "reportId",
          "type": "uint256"
        }
      ],
      "stateMutability": "nonpayable",
      "type": "function"
    },
    {
      "inputs": [
        {
          "internalType": "uint256",
          "name": "orderId",
          "type": "uint256"
        },
        {
          "internalType": "enum FeedType",
          "name": "feedType",
          "type": "uint8"
        },
        {
          "internalType": "enum FeedTier",
          "name": "tier",
          "type": "uint8"
        }
      ],
      "name": "requestFeedPublic",
      "outputs": [
        {
          "internalType": "uint256",
          "name": "requestId",
          "type": "uint256"
        }
      ],
      "stateMutability": "nonpayable",
      "type": "function"
    },
    {
      "inputs": [
        {
          "internalType": "uint256",
          "name": "",
          "type": "uint256"
        },
        {
          "internalType": "uint256",
          "name": "",
          "type": "uint256"
        }
      ],
      "name": "requestSubmissions",
      "outputs": [
        {
          "internalType": "address",
          "name": "feeder",
          "type": "address"
        },
        {
          "internalType": "uint256",
          "name": "price",
          "type": "uint256"
        },
        {
          "internalType": "uint256",
          "name": "timestamp",
          "type": "uint256"
        },
        {
          "internalType": "bool",
          "name": "isValid",
          "type": "bool"
        }
      ],
      "stateMutability": "view",
      "type": "function"
    },
    {
      "inputs": [
        {
          "internalType": "bytes32",
          "name": "role",
          "type": "bytes32"
        },
        {
          "internalType": "address",
          "name": "account",
          "type": "address"
        }
      ],
      "name": "revokeRole",
      "outputs": [],
      "stateMutability": "nonpayable",
      "type": "function"
    },
    {
      "inputs": [
        {
          "internalType": "address",
          "name": "_config",
          "type": "address"
        }
      ],
      "name": "setConfig",
      "outputs": [],
      "stateMutability": "nonpayable",
      "type": "function"
    },
    {
      "inputs": [
        {
          "internalType": "address",
          "name": "_feederSelector",
          "type": "address"
        }
      ],
      "name": "setFeederSelector",
      "outputs": [],
      "stateMutability": "nonpayable",
      "type": "function"
    },
    {
      "inputs": [
        {
          "internalType": "address",
          "name": "_optionsCore",
          "type": "address"
        }
      ],
      "name": "setOptionsCore",
      "outputs": [],
      "stateMutability": "nonpayable",
      "type": "function"
    },
    {
      "inputs": [
        {
          "internalType": "enum FeedTier",
          "name": "tier",
          "type": "uint8"
        },
        {
          "internalType": "uint8",
          "name": "totalFeeders",
          "type": "uint8"
        },
        {
          "internalType": "uint8",
          "name": "effectiveFeeds",
          "type": "uint8"
        },
        {
          "internalType": "uint256",
          "name": "platformFee",
          "type": "uint256"
        },
        {
          "internalType": "uint256",
          "name": "feederReward",
          "type": "uint256"
        },
        {
          "internalType": "uint256",
          "name": "totalFee",
          "type": "uint256"
        }
      ],
      "name": "setTierConfig",
      "outputs": [],
      "stateMutability": "nonpayable",
      "type": "function"
    },
    {
      "inputs": [
        {
          "internalType": "uint256",
          "name": "requestId",
          "type": "uint256"
        },
        {
          "internalType": "uint256",
          "name": "price",
          "type": "uint256"
        }
      ],
      "name": "submitFeed",
      "outputs": [],
      "stateMutability": "nonpayable",
      "type": "function"
    },
    {
      "inputs": [
        {
          "internalType": "bytes4",
          "name": "interfaceId",
          "type": "bytes4"
        }
      ],
      "name": "supportsInterface",
      "outputs": [
        {
          "internalType": "bool",
          "name": "",
          "type": "bool"
        }
      ],
      "stateMutability": "view",
      "type": "function"
    },
    {
      "inputs": [
        {
          "internalType": "enum FeedTier",
          "name": "",
          "type": "uint8"
        }
      ],
      "name": "tierConfigs",
      "outputs": [
        {
          "internalType": "uint8",
          "name": "totalFeeders",
          "type": "uint8"
        },
        {
          "internalType": "uint8",
          "name": "effectiveFeeds",
          "type": "uint8"
        },
        {
          "internalType": "uint256",
          "name": "platformFee",
          "type": "uint256"
        },
        {
          "internalType": "uint256",
          "name": "feederReward",
          "type": "uint256"
        },
        {
          "internalType": "uint256",
          "name": "totalFee",
          "type": "uint256"
        }
      ],
      "stateMutability": "view",
      "type": "function"
    },
    {
      "inputs": [],
      "name": "unpause",
      "outputs": [],
      "stateMutability": "nonpayable",
      "type": "function"
    },
    {
      "inputs": [],
      "name": "usdt",
      "outputs": [
        {
          "internalType": "contract IERC20",
          "name": "",
          "type": "address"
        }
      ],
      "stateMutability": "view",
      "type": "function"
    },
    {
      "inputs": [
        {
          "internalType": "address",
          "name": "to",
          "type": "address"
        }
      ],
      "name": "withdrawPlatformFees",
      "outputs": [],
      "stateMutability": "nonpayable",
      "type": "function"
    },
    {
      "inputs": [
        {
          "internalType": "uint256",
          "name": "amount",
          "type": "uint256"
        }
      ],
      "name": "withdrawStake",
      "outputs": [],
      "stateMutability": "nonpayable",
      "type": "function"
    }
  ],
  "bytecode": "0x6080346200024a57601f62004fe938819003918201601f191683019291906001600160401b038411838510176200024f5781606092849260409687528339810103126200024a57620000518162000285565b9060206200006e846200006683850162000285565b930162000285565b60018080556006819055600f81905560028054610100600160a81b03191660089690961b610100600160a81b0316959095178555600380546001600160a01b0319166001600160a01b039095169490941784559390620000da90620000d3816200029a565b506200031a565b50620000e562000265565b93600585528285019084825286860195670429d069189e00008752606081019067257853b1dd8e0000825286608082016729a2241af62c00008152600093848052600c895260ff8c86209451169a84549b61ff0080995160081b169061ffff19809e161717855551868501555187840155519101556200016462000265565b600781528689878301600581528184016706f05b59d3b2000081526060850191673e73362871420000835260ff6080870194674563918244f400008652898952600c8d5288209651168d8a8854935160081b169216171785555186850155518784015551910155620001d562000265565b968793600a8552868501916007835260ff8b80880195670b1a2bc2ec5000008752600c608060608b019a6763eb89da4ed000008c52019b676f05b59d3b2000008d528b835252209a5116918a54935160081b16921617178755519086015551908401555191015551614c0c9081620003bd8239f35b600080fd5b634e487b7160e01b600052604160045260246000fd5b6040519060a082016001600160401b038111838210176200024f57604052565b51906001600160a01b03821682036200024a57565b6001600160a01b031660008181527fad3228b676f7d3cd4284a5443f17f1962b36e491b30a40b2405849e597ba5fb5602052604081205490919060ff166200031657818052816020526040822081835260205260408220600160ff19825416179055339160008051602062004fc98339815191528180a4600190565b5090565b6001600160a01b031660008181527fa0cfc50be65892217a92eab74d4b8dca267a17d5b74f05a4a7cdee0906a51faf60205260408120549091907f70b284da8bfc3de812daa2261b4c3ffadd90c2c772295293d09c9629a737a0cd9060ff16620003b757808352826020526040832082845260205260408320600160ff1982541617905560008051602062004fc9833981519152339380a4600190565b50509056fe608080604052600436101561001357600080fd5b60003560e01c90816301ffc9a7146137d25750806302768de4146137a957806304b86cb31461354a5780630aa31661146134c4578063121c604b1461348257806315450ace1461341857806315f8b1e01461335a57806316c53ced1461325557806320e3dbd41461320d578063248a9ca3146131de57806325d5971f1461306f5780632ce5ed8c14612ffd5780632f0165ca14612fc25780632f0e6ca514612f125780632f2ff15d14612ed35780632f48ab7d14612eaa57806336568abe14612e635780633929fcd314612b4c578063398ec73214612aaa5780633bf5e3a9146129ff5780633f4ba83a146129955780633fe1ddd21461268a57806346b627031461232657806346f53d1e146122bb5780635c975abb146122985780635cf72f541461226f5780635efd95081461222c57806360421a30146115e957806366d63633146115c05780636814c7c0146114885780636a84a9851461146a5780636e79bbf61461144c57806375136ddc1461140d57806379502c55146113e05780637ced45d1146113b557806380a1f7121461122057806382ae8f011461117f5780638456cb59146111255780638ec9f038146110fc57806391d14854146110af5780639ba7646c14610fb45780639da9db2a14610f46578063a217fddf14610f2a578063a57d380614610edd578063aabe4ac414610eb3578063c7c7b02f14610e48578063cb67ef4014610c07578063d547741f14610bc8578063db18c18914610b09578063e569599114610ac8578063eab575b914610748578063eb4f16b51461068a578063eb7bb5a714610477578063ec3889b514610350578063ec5bfc6c146103325763f608463a1461028757600080fd5b3461032d5760208060031936011261032d57600435600052600d8152604060002060405190818382549182815201908192600052846000209060005b868282106103195786866102d9828803836139fb565b604051928392818401908285525180915260408401929160005b82811061030257505050500390f35b8351855286955093810193928101926001016102f3565b8354855290930192600192830192016102c3565b600080fd5b3461032d57600036600319011261032d576020600b54604051908152f35b3461032d5760208060031936011261032d5761036a613851565b610372613be0565b600380546040516370a0823160e01b81523060048201526001600160a01b03918216949092908084602481895afa93841561046b5760009461043c575b509190600092600092600b54925b8385106103fa5750505050508082116000146103f0576103dc91613f9f565b905b816103e557005b6103ee92613fac565b005b50506000906103de565b909192939461042d61043391846104108961387d565b905490861b1c16600052600a865260016040600020015490613f92565b95613fe5565b939291906103bd565b9080945081813d8311610464575b61045481836139fb565b8101031261032d575192866103af565b503d61044a565b6040513d6000823e3d90fd5b3461032d5760208060031936011261032d5760043590610495613f6f565b61049d613f51565b336000908152600a825260409020546001600160a01b03908116610647576004828260025460081c16604051928380926363b36cc360e11b82525afa801561046b57600090610618575b6104f49150841015613e50565b61050683826003541630903390613eb3565b610599604051610515816139e0565b33815283810185815261059060056040840193600085526060810160008152608082019042825260a08301966001885260c08401966000885233600052600a8c528a604060002095511660018060a01b0319865416178555516001850155516002840155516003830155516004820155019251151583613c5e565b51151590613e9b565b600b54600160401b811015610602578060016105b89201600b5561387d565b819291549060031b9133831b921b191617905560405191825242908201527f53226fcf6c46a949f058f2002cb48f6897bf6c0bd2f030158d655ba38d44a16c60403392a260018055005b634e487b7160e01b600052604160045260246000fd5b508281813d8311610640575b61062e81836139fb565b8101031261032d576104f490516104e7565b503d610624565b6064826040519062461bcd60e51b825280600483015260248201527f4665656450726f746f636f6c3a20616c726561647920726567697374657265646044820152fd5b3461032d57602036600319011261032d576004356106a6613f6f565b6106ae613f51565b336000908152600a60205260409020546001600160a01b039081161561070457816106e0916003541630903390613eb3565b33600052600a6020526106fc6001604060002001918254613f92565b905560018055005b60405162461bcd60e51b815260206004820152601c60248201527b11995959141c9bdd1bd8dbdb0e881b9bdd081c9959da5cdd195c995960221b6044820152606490fd5b3461032d57606036600319011261032d57610761613851565b6044356001600160401b03811161032d576107809036906004016138f8565b909161078a613f6f565b610792613f51565b6001600160a01b038181166000908152600a60205260409020541615610a84578115610a3f57600f54916107c583613fe5565b600f55604051906107d5826139c4565b8382523360208301526001600160a01b038316604083015260243560608301526107fe81614049565b9461080c60405196876139fb565b818652368282011161032d57816000926020928389013786010152608081019384524260a0820152600060c0820181905260e08201819052838152600e602090815260409182902083518155908301516001820180546001600160a01b03199081166001600160a01b03938416179091559284015160028301805490941691161790915560608201516003820155935180519094906001600160401b038111610602576108bc6004830154613925565b95601f87116109f4575b602096508690601f831160011461097f57928260e09360069361092a9796600092610974575b50508160011b916000199060031b1c19161760048201555b60a08401516005820155019161092060c0820151151584613c5e565b0151151590613e9b565b604051906024358252428483015260018060a01b031690827fa181ef323175753ee6985cd825f93bd6fb350de220919b47f2793654bc60d70f60403393a460018055604051908152f35b015190508a806108ec565b90601f1983169160048501600052886000209260005b8181106109dd57509360069361092a9796936001938360e098106109c4575b505050811b016004820155610904565b015160001960f88460031b161c191690558a80806109b4565b92938a600181928786015181550195019301610995565b600483016000526020600020601f830160051c81019760208410610a35575b601f0160051c01965b878110610a2957506108c6565b60008155600101610a1c565b9097508790610a13565b60405162461bcd60e51b815260206004820152601f60248201527f4665656450726f746f636f6c3a2065766964656e6365207265717569726564006044820152606490fd5b60405162461bcd60e51b815260206004820152601c60248201527b2332b2b2283937ba37b1b7b61d1034b73b30b634b2103332b2b232b960211b6044820152606490fd5b3461032d57602036600319011261032d57600435600381101561032d57610aee81613b19565b600052600c6020526020600360406000200154604051908152f35b3461032d57602036600319011261032d57610b226147f1565b506004356000526007602052610140604060002060ff600860405192610b478461397a565b8054845260018101546020850152826002820154610b6a82821660408801613ff4565b831c16610b7681613b19565b606085015260038101546080850152600481015460a0850152600581015460c0850152600681015460e085015260078101546101008501520154161515610120820152610bc66040518092613b23565bf35b3461032d57604036600319011261032d576103ee600435610be7613867565b90806000526000602052610c02600160406000200154613c38565b613ddb565b3461032d57606036600319011261032d5760043560243580151580820361032d57336000908152600080516020614af78339815191526020908152604090912054604435939190610c5a9060ff166149d8565b610c62613f6f565b84600052600e81526040600020600681019081549160ff8316610e035761271092838811610db25760ff19166001178155610c9e908590613e9b565b600093610cd1575b86600080516020614bb78339815191526060878787604051928352820152426040820152a260018055005b600291949350019060018060a01b0380835416600052600a82526040600020926001840196875494818602918683041486151715610d9c57600080516020614bb78339815191529860609860059304968780610d89575b5050500161010061ffff198254161790555416600080516020614b9783398151915260806040516040815260186040820152771b585b1a58da5bdd5cc8199959590818dbdb999a5c9b595960421b888201524285820152a290919286610ca6565b610d9291613f9f565b90558a8087610d28565b634e487b7160e01b600052601160045260246000fd5b60405162461bcd60e51b815260048101869052602360248201527f4665656450726f746f636f6c3a20696e76616c696420736c6173682070657263604482015262195b9d60ea1b6064820152608490fd5b60405162461bcd60e51b815260048101859052601f60248201527f4665656450726f746f636f6c3a20616c72656164792070726f636573736564006044820152606490fd5b3461032d57602036600319011261032d576103ee610e64613851565b610e6c613be0565b600080516020614b5783398151915260009081526020527fbb186cc6582165753931a58fdaac99b9482f9d63c76229808bd3afc382e9821654610eae90613c38565b613cfd565b3461032d57610ed9610ecd610ec7366138c6565b9061488d565b60405191829182613b97565b0390f35b3461032d57604036600319011261032d57610ef6613867565b600435600052600960205260406000209060018060a01b0316600052602052602060ff604060002054166040519015158152f35b3461032d57600036600319011261032d57602060405160008152f35b3461032d57602036600319011261032d57600435600381101561032d57610f6c81613b19565b600052600c60205260a06040600020805490600181015490600360028201549101549160ff60405194818116865260081c166020850152604084015260608301526080820152f35b3461032d57602036600319011261032d5760e0610fcf613851565b600060c0604051610fdf816139e0565b8281528260208201528260408201528260608201528260808201528260a0820152015260018060a01b03809116600052600a602052604060002060405191611026836139e0565b81541691828152600182015491602082019283526002810154604083019081526003820154906060840191825260056004840154936080860194855201549460ff60c060a087019682891615158852019660081c161515865260405196875251602087015251604086015251606085015251608084015251151560a083015251151560c0820152f35b3461032d57604036600319011261032d576110c8613867565b600435600052600060205260406000209060018060a01b0316600052602052602060ff604060002054166040519015158152f35b3461032d57600036600319011261032d576020604051600080516020614b378339815191528152f35b3461032d57600036600319011261032d5761113e613be0565b611146613f51565b600160ff1960025416176002557f62e78cea01bee320cd4e420270b5ea74000d11b0c9f74754ebdbfc544b05a2586020604051338152a1005b3461032d57602036600319011261032d57600435806000526007602052600360406000206111b460ff6008830154161561419a565b01544211156111d0576111c860209161428c565b604051908152f35b60405162461bcd60e51b815260206004820152602260248201527f4665656450726f746f636f6c3a20646561646c696e65206e6f74207265616368604482015261195960f21b6064820152608490fd5b3461032d57600036600319011261032d576006805460016000815b83811061135f575061124c9061483d565b92600091805b8481106112675760405180610ed98882613b97565b80600052600760209080825260406000209060ff916008928084830154161593848095611351575b6112a8575b5050505050506112a390613fe5565b611252565b916113459593916112a3979a9593604051956112c38761397a565b835487528a840154908701526002830154906112e483831660408901613ff4565b1c166112ef81613b19565b606085015260038101546080850152600481015460a0850152600581015460c08501528881015460e0850152015461010083015215610120820152611334828a614278565b5261133f8189614278565b50613fe5565b93908780808080611294565b50600383015442111561128f565b806000526007602052604060002060ff6008820154161590816113a6575b50611391575b61138c90613fe5565b61123b565b9061139e61138c91613fe5565b919050611383565b6003915001544211158661137d565b3461032d57600036600319011261032d576006546000198101908111610d9c57602090604051908152f35b3461032d57600036600319011261032d5760025460405160089190911c6001600160a01b03168152602090f35b3461032d5761141b366138c6565b90600052600d6020526040600020805482101561032d5760209161143e916138ae565b90546040519160031b1c8152f35b3461032d57600036600319011261032d576020600f54604051908152f35b3461032d57600036600319011261032d576020600654604051908152f35b3461032d5760208060031936011261032d57600060e06040516114aa816139c4565b8281528284820152826040820152826060820152606060808201528260a08201528260c08201520152600435600052600e81526040600020604051906114ef826139c4565b8054825260018101546001600160a01b0390811684840190815260028301548216604085019081526003840154606086019081529192909161153360048601613a1e565b9160808701928352600660058701549660a089019788520154938160c089019660ff87161515885260ff60e08b019760081c16151587526040519a8b9a818c5251908b0152511660408901525116606087015251608086015251916115a6610100938460a0880152610120870190613ae7565b935160c086015251151560e0850152511515908301520390f35b3461032d57600036600319011261032d576004546040516001600160a01b039091168152602090f35b3461032d576115f736613825565b9091611601613f6f565b611609613f51565b61161282613b19565b81600052600c60205260246040600020926003604051946116328661395f565b60ff8154818116885260081c166020870152600181015460408701526002810154606087015201546080850152600060018060a01b03600454166040519384809263d09ef24160e01b82528760048301525afa91821561046b57600092611f2d575b5060208201516001600160a01b031615611edd57610380820151600b8110156119b357600486101590816119b35786611d495760028114908115611d3e575b5015611cc2575b61036083015160028110156119b357611c40576000848152600d60205260408120805492915b838110611b635750505050600080600b54905b818110611a3057505060ff855116116119c957600354608085015161174491309033906001600160a01b0316613eb3565b6006549361175185613fe5565b60065560ff61176861176288614a21565b42613f92565b91511690604051926117798461397a565b86845285602085015261178f8860408601613ff4565b61179881613b19565b606084015260808301524260a083015260c0820152600060e0820152600061010082015260006101208201528360005260076020526040600020815181556020820151600182015560408201519160048310156119b357849361187f8360086101206118ed958b986002600080516020614b17833981519152990190815460ff61ff00606086015161182981613b19565b61183281613b19565b881b1692169061ffff1916171790556080810151600385015560a0810151600485015560c0810151600585015560e081015160068501556101008101516007850155015115159101613c5e565b84600052600d602052611896846040600020614000565b606081015190608081015160a08201519161191760c0820151611909610240840151956118c287613b19565b6118fb60ff6102a0816102608901511697015116966040519a8b9a6101208c526101208c0190613ae7565b908a820360208c0152613ae7565b9088820360408a0152613ae7565b908682036060880152613ae7565b92611925608086018d613b0c565b61192e81613b19565b60a085015260c084015260e0830152426101008301520390a36004546001600160a01b031692833b1561032d5760446000928361198696604051978895869463305cddfd60e01b865260048601526024850190613b0c565b5af191821561046b576020926119a4575b5060018055604051908152f35b6119ad906139b1565b82611997565b634e487b7160e01b600052602160045260246000fd5b60405162461bcd60e51b815260206004820152603960248201527f4665656450726f746f636f6c3a206e6f7420656e6f75676820616374697665206044820152783332b2b232b939903337b91039b2b632b1ba32b2103a34b2b960391b6064820152608490fd5b611a398161387d565b60018060a01b0391549060031b1c16600052600a602052600560ff8160406000200154169081611b2d575b5080611a93575b611a7e575b611a7990613fe5565b611713565b91611a8b611a7991613fe5565b929050611a70565b50611a9d8161387d565b60018060a01b0391549060031b1c16600052600a6020526004600160406000200154602060018060a01b0360025460081c16604051938480926363b36cc360e11b82525afa91821561046b57600092611af9575b501015611a6b565b9091506020813d602011611b25575b81611b15602093836139fb565b8101031261032d5751908a611af1565b3d9150611b08565b60ff9150611b3a8361387d565b60018060a01b0391549060031b1c16600052600a6020526040600020015460081c161589611a64565b611b6d81836138ae565b90549060031b1c600052600760205260406000208360ff600283015416906119b35760048110156119b3578a149081611c30575b50611bb457611baf90613fe5565b611700565b60405162461bcd60e51b815260206004820152604860248201527f4665656450726f746f636f6c3a2061637469766520666565642072657175657360448201527f7420616c72656164792065786973747320666f722074686973206f7264657220606482015267616e64207479706560c01b608482015260a490fd5b60ff91506008015416158a611ba1565b60405162461bcd60e51b815260206004820152604e60248201527f4665656450726f746f636f6c3a206f72646572207573657320566f6c756d654260448201527f61736564466565642c2075736520566f6c756d6542617365644665656420636f60648201526d1b9d1c9858dd081a5b9cdd19585960921b608482015260a490fd5b60405162461bcd60e51b815260206004820152604860248201527f4665656450726f746f636f6c3a206f72646572206e6f7420696e204d4154434860448201527f45442f57414954494e475f494e495449414c5f4645454420666f7220496e69746064820152671a585b081999595960c21b608482015260a490fd5b6003915014876116d3565b6000915060018703611db7576004146116da5760405162461bcd60e51b815260206004820152602d60248201527f4665656450726f746f636f6c3a206f72646572206e6f74204c49564520666f7260448201526c08111e5b985b5a58c819995959609a1b6064820152608490fd5b6000915060028703611e545760048114908115611e49575b506116da5760405162461bcd60e51b815260206004820152604160248201527f4665656450726f746f636f6c3a206f72646572206e6f7420696e204c4956452f60448201527f57414954494e475f46494e414c5f4645454420666f722046696e616c206665656064820152601960fa1b608482015260a490fd5b600591501487611dcf565b6000915060038714611e67575b506116da565b600703611e745786611e61565b60405162461bcd60e51b815260206004820152603b60248201527f4665656450726f746f636f6c3a206f72646572206e6f7420696e20415242495460448201527a1490551253d388199bdc88105c989a5d1c985d1a5bdb8819995959602a1b6064820152608490fd5b60405162461bcd60e51b815260206004820152602260248201527f4665656450726f746f636f6c3a206f7264657220646f6573206e6f74206578696044820152611cdd60f21b6064820152608490fd5b9091503d90816000823e611f4182826139fb565b602081838101031261032d578051906001600160401b03821161032d57610460828201848301031261032d57604051926001600160401b0361046085019081119085111761060257610460840160405281830180518552611fa490602001614035565b6020850152611fb7604084840101614035565b6040850152818301606001516001600160401b03811161032d57611fe2908284019085850101614064565b6060850152818301608001516001600160401b03811161032d5761200d908284019085850101614064565b608085015281830160a001516001600160401b03811161032d57612038908284019085850101614064565b60a085015281830160c001516001600160401b03811161032d57612063908284019085850101614064565b60c085015281830160e001516001600160401b03811161032d5761208d9183019084840101614064565b60e084015261010080838301015190600282101561032d5784015280820161012081810151908501526101408082015190850152610160808201519085015261018080820151908501526101a080820151908501526101c080820151908501526101e08082015190850152610200808201519085015261022080820151908501526102409081015190600382101561032d5784015261026061213281848401016140a9565b9084015261028061214681848401016140a9565b908401526102a061215a81848401016140a9565b908401526102c080838301015190600382101561032d578401526102e06121848184840101614035565b90840152808201610300818101519085015261032080820151908501526103409081015190811515820361032d5784015261036080838301015190600282101561032d578401526103808282010151600b81101561032d57610380840152016103a081810151908301526103c080820151908301526103e080820151908301526104008082015190830152610420808201519083015261044090810151908201529085611694565b3461032d57602036600319011261032d57612245613851565b61224d613be0565b600580546001600160a01b0319166001600160a01b0392909216919091179055005b3461032d57600036600319011261032d576005546040516001600160a01b039091168152602090f35b3461032d57600036600319011261032d57602060ff600254166040519015158152f35b3461032d57602036600319011261032d576103ee6122d7613851565b6122df613be0565b600080516020614b3783398151915260009081526020527fb9aa941adaec809e6b0427677375ac0b3d84ba99295ec0ba010b381b51e947925461232190613c38565b613c6f565b3461032d57604036600319011261032d576004356024356001600160401b03811161032d576123599036906004016138f8565b82919215158061267f575b61236d906140b7565b33600052602090600a825260ff9061238e8260056040600020015416614103565b33600052600a83526005604060002001546123af83600892831c161561414f565b33600052600a8452600195600487604060002001548660018060a01b03600254861c16604051938480926363b36cc360e11b82525afa90811561046b5760009161264e575b61240092501015613e50565b612408613f6f565b612410613f51565b856000526007855260406000209261242d8584860154161561419a565b866000526009865260406000203360005286526124518560406000205416156141e6565b8660005260098652604060002033600052865260406000208860ff1982541617905560068401906124828254613fe5565b825533600052600a8752877f5d7b755f33872c8c5fe6e178f7b9e167e0aa5f0407495210e7e0c8835a21cadb6124d7600395866040600020016124c58154613fe5565b90556040519182913396429184614232565b0390a354600584015411156124eb57868055005b85600052818552836040600020936000946000908054915b8281106125f257505050906002608093920154841c1661252281613b19565b600052600c86526040600020946040519361253c8561395f565b86548281168652901c16868401819052888601546040850152600286015460608501529401549101521061258157506125749061428c565b505b818080808080868055005b60807fe56cd0b2e6ad5297413c63daf2ddddaa2b37d6117c5449028996b9e957a820f991602c604051918083528201527f696e73756666696369656e742076616c6964206665656473206166746572206160408201526b6c6c20726573706f6e73657360a01b6060820152a2612576565b909192938561260183856138dc565b5001541680612638575b612623575b61261990613fe5565b9087939291612503565b9561263061261991613fe5565b969050612610565b508a61264482846138dc565b500154151561260b565b90508682813d8311612678575b61266581836139fb565b8101031261032d576124009151906123f4565b503d61265b565b506006548210612364565b3461032d57612698366138c6565b908015158061298a575b6126ab906140b7565b33600052602091600a83526126ca60ff60056040600020015416614103565b33600052600a83526126ea60ff60056040600020015460081c161561414f565b33600052600a8352600192836040600020015490600460018060a01b0392828460025460081c16604051938480926363b36cc360e11b82525afa90811561046b57600091612959575b61273f92501015613e50565b612747613f6f565b61274f613f51565b836000526007815260406000209261276e60ff6008860154161561419a565b60038401544211612914578460005260098252604060002033600052825261279e60ff60406000205416156141e6565b80156128c3578460005260098252604060002033600052825260406000208660ff1982541617905560068401916127d58354613fe5565b83558560005260088152604060002093604051946127f286613996565b33865282860195848752604081019142835260608201908b82528054600160401b81101561060257612828918d820181556138dc565b9390936128ad5760059861285e95600394511660018060a01b0319865416178555518c8501555160028401555115159101613c5e565b6040519182524290820152847fdc37948d08732ed33078677fc43276d929de5bc1d96edc08562d508c79adc01c60403393a354910154111561289f57508055005b6128a89061428c565b508055005b634e487b7160e01b600052600060045260246000fd5b60405162461bcd60e51b8152600481018390526024808201527f4665656450726f746f636f6c3a207072696365206d75737420626520706f73696044820152637469766560e01b6064820152608490fd5b60405162461bcd60e51b815260048101839052601d60248201527f4665656450726f746f636f6c3a207265717565737420657870697265640000006044820152606490fd5b90508282813d8311612983575b61297081836139fb565b8101031261032d5761273f915190612733565b503d612966565b5060065481106126a2565b3461032d57600036600319011261032d576129ae613be0565b60025460ff8116156129ed5760ff19166002557f5db9ee0a495bf2e6ff9c91a7834c1ba4fdd244a5e8aa4e537bd38aeae4b073aa6020604051338152a1005b604051638dfc202b60e01b8152600490fd5b3461032d57602036600319011261032d5760043560005260076020526101406040600020805490600181015490600281015460ff8160081c166003830154600484015490600585015492612a7860068701549560ff600860078a015499015416986040519a8b5260208b015260ff60408b019116613b0c565b612a8181613b19565b6060880152608087015260a086015260c085015260e08401526101008301521515610120820152f35b3461032d57602036600319011261032d57600435600052600e6020526040600020805460018060a01b039160ff8360018301541693600283015416612b2d6003840154612af960048601613a1e565b9060066005870154960154936040519889988952602089015260408801526060870152610100806080880152860190613ae7565b9260a0850152818116151560c085015260081c16151560e08301520390f35b3461032d57600036600319011261032d57600b546000805b828110612d325750612b8e612b7882614261565b91612b8660405193846139fb565b808352614261565b6020928383019291601f19013684376000805b828110612bf55750505090604051928392818401908285525180915260408401929160005b828110612bd557505050500390f35b83516001600160a01b031685528695509381019392810192600101612bc6565b612bfe8161387d565b60018060a01b03809254600392831b1c16600052600a80895260ff90600591808360406000200154169283612d03575b505081612c7d575b50612c4c575b5050612c4790613fe5565b612ba1565b92612c75918394612c5f612c479561387d565b9054911b1c16612c6f8288614278565b52613fe5565b919087612c3c565b905082612c898561387d565b905490841b1c1660005288526004600160406000200154898460025460081c16604051938480926363b36cc360e11b82525afa91821561046b57600092612cd4575b50101589612c36565b9091508981813d8311612cfc575b612cec81836139fb565b8101031261032d5751908a612ccb565b503d612ce2565b9091925084612d118761387d565b905490861b1c16600052828b526040600020015460081c1615908a80612c2e565b612d3b8161387d565b9054600391821b1c6001600160a01b039081166000908152600a6020818152604090922060059081015460ff90811694929185612e34575b505083612da8575b5050509050612d93575b612d8e90613fe5565b612b64565b90612da0612d8e91613fe5565b919050612d85565b9193819350612db68661387d565b9054911b1c1660005282526004826001604060002001549260025460081c16604051928380926363b36cc360e11b82525afa92831561046b57600093612e04575b5050101580858080612d7b565b9080929350813d8311612e2d575b612e1c81836139fb565b8101031261032d5751908580612df7565b503d612e12565b9091945082612e428861387d565b905490881b1c166000528484526040600020015460081c1615928880612d73565b3461032d57604036600319011261032d57612e7c613867565b336001600160a01b03821603612e98576103ee90600435613ddb565b60405163334bd91960e11b8152600490fd5b3461032d57600036600319011261032d576003546040516001600160a01b039091168152602090f35b3461032d57604036600319011261032d576103ee600435612ef2613867565b90806000526000602052612f0d600160406000200154613c38565b613d74565b3461032d57604036600319011261032d57612f2b613851565b6024356001600160401b03811161032d57612f59600080516020614b978339815191529136906004016138f8565b336000908152600080516020614af78339815191526020526040902054909390612f859060ff166149d8565b60018060a01b03169283600052600a602052600560406000200161010061ffff19825416179055612fbd604051928392429184614232565b0390a2005b3461032d57600036600319011261032d5760206040517f70b284da8bfc3de812daa2261b4c3ffadd90c2c772295293d09c9629a737a0cd8152f35b3461032d57602036600319011261032d57613016613851565b61301e613be0565b600480546001600160a01b039283166001600160a01b031982168117909255604051428152919216907f6c269bbf433730565c77826a0adda6e00ea0ea749f0ce752d9157d653ed03dc690602090a3005b3461032d5760208060031936011261032d5760043561308c613f6f565b613094613f51565b33600052600a825260406000209160018301928354936130b684861015613e50565b6130c08486613f9f565b6002546040516363b36cc360e11b81526001600160a01b039592909183908390600490829060081c8a165afa91821561046b576000926131af575b50108015906131a6575b1561314457506131188461312d96613f9f565b80915515613133575b50339060035416613fac565b60018055005b600501805460ff1916905583613121565b6084906040519062461bcd60e51b82526004820152603560248201527f4665656450726f746f636f6c3a206d757374206d61696e7461696e206d696e206044820152741cdd185ad9481bdc881dda5d1a191c985dc8185b1b605a1b6064820152fd5b50858514613105565b9091508281813d83116131d7575b6131c781836139fb565b8101031261032d575190886130fb565b503d6131bd565b3461032d57602036600319011261032d5760043560005260006020526020600160406000200154604051908152f35b3461032d57602036600319011261032d57613226613851565b61322e613be0565b60028054610100600160a81b03191660089290921b610100600160a81b0316919091179055005b3461032d5760208060031936011261032d5760043560005260088152604060002090815461328281614261565b9061329060405192836139fb565b8082528282018094600052836000206000915b83831061330e5760408051878152865181890181905289928201908960005b8281106132cf5784840385f35b855180516001600160a01b03168552808301518584015260408082015190860152606090810151151590850152948101946080909301926001016132c2565b60048660019260405161332081613996565b848060a01b03865416815284860154838201526002860154604082015260ff600387015416151560608201528152019201920191906132a3565b3461032d5760c036600319011261032d57600435600381101561032d576024359060ff821680920361032d576044359060ff821680920361032d576003916133a0613be0565b604051936133ad8561395f565b84526020840190815260408401606435815260608501916084358352608086019360a43585526133dc81613b19565b600052600c60205260ff604060002096511661ff008754925160081b169161ffff19161717855551600185015551600284015551910155600080f35b3461032d57613426366138c6565b9060005260086020526040600020805482101561032d57608091613449916138dc565b5060018060a01b038154169060018101549060ff6003600283015492015416916040519384526020840152604083015215156060820152f35b3461032d57602036600319011261032d57600435600b5481101561032d576134ab60209161387d565b905460405160039290921b1c6001600160a01b03168152f35b3461032d57602036600319011261032d5760e06001600160a01b03806134e8613851565b16600052600a60205260ff60406000209182541691600181015490600281015460038201549060056004840154930154936040519687526020870152604086015260608501526080840152818116151560a084015260081c16151560c0820152f35b61355336613825565b336000908152600080516020614b7783398151915260205260409020549192909160ff161561375657613584613f6f565b61358d82613b19565b81600052600c6020526040600020916135f06003604051946135ae8661395f565b60ff8154818116885260081c1660208701526001810154604087015260028101546060870152015480608086015260018060a01b036003541630903390613eb3565b600654926135fd84613fe5565b60065560ff61360e61176287614a21565b915116906040519261361f8461397a565b8584528460208501526136358760408601613ff4565b61363e81613b19565b606084015260808301524260a083015260c0820152600060e0820152600061010082015260006101208201528260005260076020526040600020815181556020820151600182015560408201519160048310156119b3576020956136d08360086101206101a0958a986002600080516020614b17833981519152990190815460ff61ff00606086015161182981613b19565b84600052600d87526136e6846040600020614000565b61372d60405191610120835260006101208401526000610140808b860152840152600061016080604086015284015260006101808060608601528401526080830190613b0c565b600060a0820152600060c0820152600060e082015242610100820152a360018055604051908152f35b60405162461bcd60e51b815260206004820152602560248201527f4665656450726f746f636f6c3a206e6f7420617574686f72697a65642070726f6044820152641d1bd8dbdb60da1b6064820152608490fd5b3461032d57600036600319011261032d576020604051600080516020614b578339815191528152f35b3461032d57602036600319011261032d576004359063ffffffff60e01b821680920361032d57602091637965db0b60e01b8114908115613814575b5015158152f35b6301ffc9a760e01b1490508361380d565b606090600319011261032d5760043590602435600481101561032d5790604435600381101561032d5790565b600435906001600160a01b038216820361032d57565b602435906001600160a01b038216820361032d57565b600b5481101561389857600b60005260206000200190600090565b634e487b7160e01b600052603260045260246000fd5b80548210156138985760005260206000200190600090565b604090600319011261032d576004359060243590565b80548210156138985760005260206000209060021b0190600090565b9181601f8401121561032d578235916001600160401b03831161032d576020838186019501011161032d57565b90600182811c92168015613955575b602083101461393f57565b634e487b7160e01b600052602260045260246000fd5b91607f1691613934565b60a081019081106001600160401b0382111761060257604052565b61014081019081106001600160401b0382111761060257604052565b608081019081106001600160401b0382111761060257604052565b6001600160401b03811161060257604052565b61010081019081106001600160401b0382111761060257604052565b60e081019081106001600160401b0382111761060257604052565b601f909101601f19168101906001600160401b0382119082101761060257604052565b9060405191826000825492613a3284613925565b908184526001948581169081600014613aa15750600114613a5e575b5050613a5c925003836139fb565b565b9093915060005260209081600020936000915b818310613a89575050613a5c93508201013880613a4e565b85548884018501529485019487945091830191613a71565b915050613a5c94506020925060ff191682840152151560051b8201013880613a4e565b60005b838110613ad75750506000910152565b8181015183820152602001613ac7565b90602091613b0081518092818552858086019101613ac4565b601f01601f1916010190565b9060048210156119b35752565b600311156119b357565b8051825260208101516020830152613b4360408201516040840190613b0c565b6060810151613b5181613b19565b60608301526080810151608083015260a081015160a083015260c081015160c083015260e081015160e08301526101008082015190830152610120809101511515910152565b6020908160408183019282815285518094520193019160005b828110613bbe575050505090565b909192938261014082613bd46001948951613b23565b01950193929101613bb0565b3360009081527fad3228b676f7d3cd4284a5443f17f1962b36e491b30a40b2405849e597ba5fb5602052604081205460ff1615613c1a5750565b6044906040519063e2517d3f60e01b82523360048301526024820152fd5b80600052600060205260406000203360005260205260ff6040600020541615613c1a5750565b9060ff801983541691151516179055565b6001600160a01b031660008181527fb9aa941adaec809e6b0427677375ac0b3d84ba99295ec0ba010b381b51e947916020526040812054909190600080516020614b378339815191529060ff16613cf857808352826020526040832082845260205260408320600160ff19825416179055600080516020614ad7833981519152339380a4600190565b505090565b6001600160a01b03166000818152600080516020614b778339815191526020526040812054909190600080516020614b578339815191529060ff16613cf857808352826020526040832082845260205260408320600160ff19825416179055600080516020614ad7833981519152339380a4600190565b9060009180835282602052604083209160018060a01b03169182845260205260ff60408420541615600014613cf857808352826020526040832082845260205260408320600160ff19825416179055600080516020614ad7833981519152339380a4600190565b9060009180835282602052604083209160018060a01b03169182845260205260ff604084205416600014613cf85780835282602052604083208284526020526040832060ff1981541690557ff6391f5c32d9c69d2a47ea670b442974b53935d1edc7fd64eb21e047a839171b339380a4600190565b15613e5757565b606460405162461bcd60e51b815260206004820152602060248201527f4665656450726f746f636f6c3a20696e73756666696369656e74207374616b656044820152fd5b9061ff00825491151560081b169061ff001916179055565b6040516323b872dd60e01b60208201526001600160a01b039283166024820152929091166044830152606480830193909352918152613a5c91613ef58261395f565b906000602091828151910182855af11561046b576000513d613f4857506001600160a01b0381163b155b613f265750565b604051635274afe760e01b81526001600160a01b039091166004820152602490fd5b60011415613f1f565b60ff60025416613f5d57565b60405163d93c066560e01b8152600490fd5b600260015414613f80576002600155565b604051633ee5aeb560e01b8152600490fd5b91908201809211610d9c57565b91908203918211610d9c57565b60405163a9059cbb60e01b60208201526001600160a01b039092166024830152604480830193909352918152613a5c91613ef582613996565b6000198114610d9c5760010190565b60048210156119b35752565b8054600160401b8110156106025761401d916001820181556138ae565b819291549060031b91821b91600019901b1916179055565b51906001600160a01b038216820361032d57565b6001600160401b03811161060257601f01601f191660200190565b81601f8201121561032d57805161407a81614049565b9261408860405194856139fb565b8184526020828401011161032d576140a69160208085019101613ac4565b90565b519060ff8216820361032d57565b156140be57565b60405162461bcd60e51b815260206004820152601d60248201527f4665656450726f746f636f6c3a20696e76616c696420726571756573740000006044820152606490fd5b1561410a57565b60405162461bcd60e51b815260206004820152601f60248201527f4665656450726f746f636f6c3a206e6f742061637469766520666565646572006044820152606490fd5b1561415657565b606460405162461bcd60e51b815260206004820152602060248201527f4665656450726f746f636f6c3a2066656564657220626c61636b6c69737465646044820152fd5b156141a157565b60405162461bcd60e51b815260206004820152601f60248201527f4665656450726f746f636f6c3a20616c72656164792066696e616c697a6564006044820152606490fd5b156141ed57565b60405162461bcd60e51b815260206004820152601f60248201527f4665656450726f746f636f6c3a20616c7265616479207375626d6974746564006044820152606490fd5b9392918060609160209360408852816040890152838801376000828288010152601f8019910116850101930152565b6001600160401b0381116106025760051b60200190565b80518210156138985760209160051b010190565b8060005260076020526040600020906008820154926142ae60ff85161561419a565b81600052600860205260406000209081549384156147ad576142cf85614261565b956142dd60405197886139fb565b858752601f196142ec87614261565b0136602089013760009560005b81811061474257505060ff600283015460081c1661431681613b19565b600052600c602052604060002060405161432f8161395f565b6080600360ff8454818116855260081c16938460208501526001810154604085015260028101546060850152015491015286106146e557919390926000945b60001994878601888111610d9c5787101561442b5760005b614390888a613f9f565b878101908111610d9c57811015614411576143ab818b614278565b519060018101808211610d9c57818c6143d7946143c88483614278565b51106143dc575b505050613fe5565b614386565b614408916143e991614278565b51918d614401856143fa8484614278565b5192614278565b528d614278565b5238818c6143cf565b5092956144219194929550613fe5565b949193909261436e565b96919395509691935060018116156000146146cf5760011c600019810191818311610d9c5761446361446a926143fa60019584614278565b5190613f92565b811c935b84600787015560ff191617600885015581600052600760205260ff60026040600020015460081c1661449f81613b19565b600052600c60205260406000206040516144b88161395f565b60ff8254818116835260081c1660208201526001820154604082015260806003600284015493846060850152015491015281549081156146b957049260005b825481101561459f578060ff600361451261451f94876138dc565b5001541661452457613fe5565b6144f7565b61452e81856138dc565b50546003546001600160a01b039182169161454d918991849116613fac565b80600052600a60205260026040600020016145688154613fe5565b9055857f602ab809fa82d3a742a4f9a33cdd154988d8b0f578ee4dc91de3dc412bf026b9604080518a8152426020820152a3613fe5565b509391925050817f4da0f440b42ee815c5b14cbf1a5cb712c4fcf1ee583ca8c97bdbbdf4a1e7ba1f60408051868152426020820152a26004546001600160a01b0316806145ed575b50505090565b600182019160ff6002845492015416823b1561032d5760646000928361462e956040519687958694630c21ea2360e21b865260048601526024850190613b0c565b8960448401525af190816146aa575b506146a35754907f1f54ad489b02300a3aef537f4dd4783a133c3fdb048bdd7cd10e96842a4d8b4f606060405160208152601b60208201527a13dc1d1a5bdb9cd0dbdc994818d85b1b189858dac819985a5b1959602a1b6040820152a35b3880806145e7565b505061469b565b6146b3906139b1565b3861463d565b634e487b7160e01b600052601260045260246000fd5b6001916146de91831c90614278565b519361446e565b60405162461bcd60e51b815260206004820152602f60248201527f4665656450726f746f636f6c3a20696e73756666696369656e742076616c696460448201526e103332b2b239903337b9103a34b2b960891b6064820152608490fd5b60ff600361475083896138dc565b5001541680614796575b61476d575b61476890613fe5565b6142f9565b9661478e6147689160016147818b8a6138dc565b500154612c6f828d614278565b97905061475f565b5060016147a382886138dc565b500154151561475a565b60405162461bcd60e51b815260206004820152601c60248201527b4665656450726f746f636f6c3a206e6f207375626d697373696f6e7360201b6044820152606490fd5b604051906147fe8261397a565b816101206000918281528260208201528260408201528260608201528260808201528260a08201528260c08201528260e0820152826101008201520152565b9061484782614261565b61485460405191826139fb565b8281528092614865601f1991614261565b019060005b82811061487657505050565b6020906148816147f1565b8282850101520161486a565b906006908154906000198201918211610d9c57818410156149b0576148c6916148b7859283613f92565b908082116149a8575b50613f9f565b906148d08261483d565b9260005b8381106148e2575050505090565b6148ec8183613f92565b906001808301809311610d9c576149a3926000526007602090808252604091826000209083519461491c8661397a565b825486528201549085015260028101549161493e60ff94858516908701613ff4565b83600893841c1661494e81613b19565b606086015260038201546080860152600482015460a0860152600582015460c08601528882015460e086015281015461010085015201541615156101208201526149988288614278565b5261133f8187614278565b6148d4565b9050386148c0565b5050604051915050602081016001600160401b03811182821017610602576040526000815290565b156149df57565b60405162461bcd60e51b815260206004820152601a6024820152792332b2b2283937ba37b1b7b61d103737ba1037b832b930ba37b960311b6044820152606490fd5b60048110156119b35715614a9b57600254604051636fd8129b60e11b8152906020908290600490829060081c6001600160a01b03165afa90811561046b57600091614a6a575090565b906020823d8211614a93575b81614a83602093836139fb565b81010312614a9057505190565b80fd5b3d9150614a76565b60025460405163c7d7c5fd60e01b8152906020908290600490829060081c6001600160a01b03165afa90811561046b57600091614a6a57509056fe2f8788117e7eff1d82e926ec794901d17c78024a50270940304540a733656f0da0cfc50be65892217a92eab74d4b8dca267a17d5b74f05a4a7cdee0906a51faf615e8f1333715c833aeea3803d6aa6f09d73c6db60f9ed7d1ded1cec09b48d9a92a9bfc44b11bdcb4ce1c7bb0f30145a060370f7684a9cf6c25518e577577269ba279271fb7bbf76a6f3df3cc57bf80647fcafdea60ec3383d90f459de74e7c0bb186cc6582165753931a58fdaac99b9482f9d63c76229808bd3afc382e98215a172cc290b2e00bc2a34c06a4d70cd942037859cca624f051cd830b4b268eac51dc2444dead8ae7cdcfa34cbc2b38dca2eba0da3267d2c885fc9faa0eff3bdb7a26469706673582212208c247bc35b5b4ea79afc87f89ea3b99216373186a925884ca7a89e998caf095964736f6c634300081400332f8788117e7eff1d82e926ec794901d17c78024a50270940304540a733656f0d",
  "linkReferences": {},
  "deployedLinkReferences": {}
}