{
  "_format": "hh-sol-artifact-1",
  "contractName": "FeederSelector",
  "sourceName": "contracts/feed/FeederSelector.sol",
  "abi": [
    {
      "inputs": [
        {
          "internalType": "address",
          "name": "_vrfCoordinator",
          "type": "address"
        },
        {
          "internalType": "uint256",
          "name": "_subscriptionId",
          "type": "uint256"
        },
        {
          "internalType": "bytes32",
          "name": "_keyHash",
          "type": "bytes32"
        },
        {
          "internalType": "address",
          "name": "_config",
          "type": "address"
        },
        {
          "internalType": "address",
          "name": "_admin",
          "type": "address"
        }
      ],
      "stateMutability": "nonpayable",
      "type": "constructor"
    },
    {
      "inputs": [],
      "name": "AccessControlBadConfirmation",
      "type": "error"
    },
    {
      "inputs": [
        {
          "internalType": "address",
          "name": "account",
          "type": "address"
        },
        {
          "internalType": "bytes32",
          "name": "neededRole",
          "type": "bytes32"
        }
      ],
      "name": "AccessControlUnauthorizedAccount",
      "type": "error"
    },
    {
      "inputs": [
        {
          "internalType": "address",
          "name": "have",
          "type": "address"
        },
        {
          "internalType": "address",
          "name": "want",
          "type": "address"
        }
      ],
      "name": "OnlyCoordinatorCanFulfill",
      "type": "error"
    },
    {
      "inputs": [
        {
          "internalType": "address",
          "name": "have",
          "type": "address"
        },
        {
          "internalType": "address",
          "name": "owner",
          "type": "address"
        },
        {
          "internalType": "address",
          "name": "coordinator",
          "type": "address"
        }
      ],
      "name": "OnlyOwnerOrCoordinator",
      "type": "error"
    },
    {
      "inputs": [],
      "name": "ZeroAddress",
      "type": "error"
    },
    {
      "anonymous": false,
      "inputs": [
        {
          "indexed": false,
          "internalType": "address",
          "name": "vrfCoordinator",
          "type": "address"
        }
      ],
      "name": "CoordinatorSet",
      "type": "event"
    },
    {
      "anonymous": false,
      "inputs": [
        {
          "indexed": true,
          "internalType": "address",
          "name": "from",
          "type": "address"
        },
        {
          "indexed": true,
          "internalType": "address",
          "name": "to",
          "type": "address"
        }
      ],
      "name": "OwnershipTransferRequested",
      "type": "event"
    },
    {
      "anonymous": false,
      "inputs": [
        {
          "indexed": true,
          "internalType": "address",
          "name": "from",
          "type": "address"
        },
        {
          "indexed": true,
          "internalType": "address",
          "name": "to",
          "type": "address"
        }
      ],
      "name": "OwnershipTransferred",
      "type": "event"
    },
    {
      "anonymous": false,
      "inputs": [
        {
          "indexed": true,
          "internalType": "bytes32",
          "name": "role",
          "type": "bytes32"
        },
        {
          "indexed": true,
          "internalType": "bytes32",
          "name": "previousAdminRole",
          "type": "bytes32"
        },
        {
          "indexed": true,
          "internalType": "bytes32",
          "name": "newAdminRole",
          "type": "bytes32"
        }
      ],
      "name": "RoleAdminChanged",
      "type": "event"
    },
    {
      "anonymous": false,
      "inputs": [
        {
          "indexed": true,
          "internalType": "bytes32",
          "name": "role",
          "type": "bytes32"
        },
        {
          "indexed": true,
          "internalType": "address",
          "name": "account",
          "type": "address"
        },
        {
          "indexed": true,
          "internalType": "address",
          "name": "sender",
          "type": "address"
        }
      ],
      "name": "RoleGranted",
      "type": "event"
    },
    {
      "anonymous": false,
      "inputs": [
        {
          "indexed": true,
          "internalType": "bytes32",
          "name": "role",
          "type": "bytes32"
        },
        {
          "indexed": true,
          "internalType": "address",
          "name": "account",
          "type": "address"
        },
        {
          "indexed": true,
          "internalType": "address",
          "name": "sender",
          "type": "address"
        }
      ],
      "name": "RoleRevoked",
      "type": "event"
    },
    {
      "anonymous": false,
      "inputs": [
        {
          "indexed": true,
          "internalType": "uint256",
          "name": "selectionId",
          "type": "uint256"
        },
        {
          "indexed": true,
          "internalType": "uint256",
          "name": "feedRequestId",
          "type": "uint256"
        },
        {
          "indexed": false,
          "internalType": "address[]",
          "name": "selectedFeeders",
          "type": "address[]"
        },
        {
          "indexed": false,
          "internalType": "uint256",
          "name": "timestamp",
          "type": "uint256"
        }
      ],
      "name": "SelectionFulfilled",
      "type": "event"
    },
    {
      "anonymous": false,
      "inputs": [
        {
          "indexed": true,
          "internalType": "uint256",
          "name": "selectionId",
          "type": "uint256"
        },
        {
          "indexed": true,
          "internalType": "uint256",
          "name": "feedRequestId",
          "type": "uint256"
        },
        {
          "indexed": false,
          "internalType": "uint256",
          "name": "vrfRequestId",
          "type": "uint256"
        },
        {
          "indexed": false,
          "internalType": "uint8",
          "name": "numToSelect",
          "type": "uint8"
        },
        {
          "indexed": false,
          "internalType": "uint256",
          "name": "candidateCount",
          "type": "uint256"
        },
        {
          "indexed": false,
          "internalType": "uint256",
          "name": "timestamp",
          "type": "uint256"
        }
      ],
      "name": "SelectionRequested",
      "type": "event"
    },
    {
      "anonymous": false,
      "inputs": [
        {
          "indexed": false,
          "internalType": "uint256",
          "name": "subscriptionId",
          "type": "uint256"
        },
        {
          "indexed": false,
          "internalType": "bytes32",
          "name": "keyHash",
          "type": "bytes32"
        },
        {
          "indexed": false,
          "internalType": "uint32",
          "name": "callbackGasLimit",
          "type": "uint32"
        },
        {
          "indexed": false,
          "internalType": "uint256",
          "name": "timestamp",
          "type": "uint256"
        }
      ],
      "name": "VRFConfigUpdated",
      "type": "event"
    },
    {
      "inputs": [],
      "name": "DEFAULT_ADMIN_ROLE",
      "outputs": [
        {
          "internalType": "bytes32",
          "name": "",
          "type": "bytes32"
        }
      ],
      "stateMutability": "view",
      "type": "function"
    },
    {
      "inputs": [],
      "name": "FEED_PROTOCOL_ROLE",
      "outputs": [
        {
          "internalType": "bytes32",
          "name": "",
          "type": "bytes32"
        }
      ],
      "stateMutability": "view",
      "type": "function"
    },
    {
      "inputs": [],
      "name": "SELECTOR_OPERATOR_ROLE",
      "outputs": [
        {
          "internalType": "bytes32",
          "name": "",
          "type": "bytes32"
        }
      ],
      "stateMutability": "view",
      "type": "function"
    },
    {
      "inputs": [],
      "name": "acceptOwnership",
      "outputs": [],
      "stateMutability": "nonpayable",
      "type": "function"
    },
    {
      "inputs": [],
      "name": "config",
      "outputs": [
        {
          "internalType": "contract Config",
          "name": "",
          "type": "address"
        }
      ],
      "stateMutability": "view",
      "type": "function"
    },
    {
      "inputs": [
        {
          "internalType": "uint256",
          "name": "",
          "type": "uint256"
        },
        {
          "internalType": "uint256",
          "name": "",
          "type": "uint256"
        }
      ],
      "name": "feedRequestSelectedFeeders",
      "outputs": [
        {
          "internalType": "address",
          "name": "",
          "type": "address"
        }
      ],
      "stateMutability": "view",
      "type": "function"
    },
    {
      "inputs": [
        {
          "internalType": "bytes32",
          "name": "role",
          "type": "bytes32"
        }
      ],
      "name": "getRoleAdmin",
      "outputs": [
        {
          "internalType": "bytes32",
          "name": "",
          "type": "bytes32"
        }
      ],
      "stateMutability": "view",
      "type": "function"
    },
    {
      "inputs": [
        {
          "internalType": "uint256",
          "name": "feedRequestId",
          "type": "uint256"
        }
      ],
      "name": "getSelectedFeeders",
      "outputs": [
        {
          "internalType": "address[]",
          "name": "",
          "type": "address[]"
        }
      ],
      "stateMutability": "view",
      "type": "function"
    },
    {
      "inputs": [
        {
          "internalType": "uint256",
          "name": "selectionId",
          "type": "uint256"
        }
      ],
      "name": "getSelectionRequest",
      "outputs": [
        {
          "internalType": "uint256",
          "name": "requestId",
          "type": "uint256"
        },
        {
          "internalType": "uint256",
          "name": "feedRequestId",
          "type": "uint256"
        },
        {
          "internalType": "uint8",
          "name": "numToSelect",
          "type": "uint8"
        },
        {
          "internalType": "address[]",
          "name": "selectedFeeders",
          "type": "address[]"
        },
        {
          "internalType": "bool",
          "name": "fulfilled",
          "type": "bool"
        },
        {
          "internalType": "uint256",
          "name": "createdAt",
          "type": "uint256"
        }
      ],
      "stateMutability": "view",
      "type": "function"
    },
    {
      "inputs": [
        {
          "internalType": "address",
          "name": "feedProtocol",
          "type": "address"
        }
      ],
      "name": "grantFeedProtocolRole",
      "outputs": [],
      "stateMutability": "nonpayable",
      "type": "function"
    },
    {
      "inputs": [
        {
          "internalType": "bytes32",
          "name": "role",
          "type": "bytes32"
        },
        {
          "internalType": "address",
          "name": "account",
          "type": "address"
        }
      ],
      "name": "grantRole",
      "outputs": [],
      "stateMutability": "nonpayable",
      "type": "function"
    },
    {
      "inputs": [
        {
          "internalType": "bytes32",
          "name": "role",
          "type": "bytes32"
        },
        {
          "internalType": "address",
          "name": "account",
          "type": "address"
        }
      ],
      "name": "hasRole",
      "outputs": [
        {
          "internalType": "bool",
          "name": "",
          "type": "bool"
        }
      ],
      "stateMutability": "view",
      "type": "function"
    },
    {
      "inputs": [
        {
          "internalType": "uint256",
          "name": "selectionId",
          "type": "uint256"
        }
      ],
      "name": "isSelectionFulfilled",
      "outputs": [
        {
          "internalType": "bool",
          "name": "",
          "type": "bool"
        }
      ],
      "stateMutability": "view",
      "type": "function"
    },
    {
      "inputs": [],
      "name": "nextSelectionId",
      "outputs": [
        {
          "internalType": "uint256",
          "name": "",
          "type": "uint256"
        }
      ],
      "stateMutability": "view",
      "type": "function"
    },
    {
      "inputs": [],
      "name": "owner",
      "outputs": [
        {
          "internalType": "address",
          "name": "",
          "type": "address"
        }
      ],
      "stateMutability": "view",
      "type": "function"
    },
    {
      "inputs": [
        {
          "internalType": "uint256",
          "name": "requestId",
          "type": "uint256"
        },
        {
          "internalType": "uint256[]",
          "name": "randomWords",
          "type": "uint256[]"
        }
      ],
      "name": "rawFulfillRandomWords",
      "outputs": [],
      "stateMutability": "nonpayable",
      "type": "function"
    },
    {
      "inputs": [
        {
          "internalType": "bytes32",
          "name": "role",
          "type": "bytes32"
        },
        {
          "internalType": "address",
          "name": "callerConfirmation",
          "type": "address"
        }
      ],
      "name": "renounceRole",
      "outputs": [],
      "stateMutability": "nonpayable",
      "type": "function"
    },
    {
      "inputs": [
        {
          "internalType": "uint256",
          "name": "feedRequestId",
          "type": "uint256"
        },
        {
          "internalType": "address[]",
          "name": "candidates",
          "type": "address[]"
        },
        {
          "internalType": "uint8",
          "name": "numToSelect",
          "type": "uint8"
        }
      ],
      "name": "requestRandomSelection",
      "outputs": [
        {
          "internalType": "uint256",
          "name": "selectionId",
          "type": "uint256"
        }
      ],
      "stateMutability": "nonpayable",
      "type": "function"
    },
    {
      "inputs": [
        {
          "internalType": "bytes32",
          "name": "role",
          "type": "bytes32"
        },
        {
          "internalType": "address",
          "name": "account",
          "type": "address"
        }
      ],
      "name": "revokeRole",
      "outputs": [],
      "stateMutability": "nonpayable",
      "type": "function"
    },
    {
      "inputs": [],
      "name": "s_callbackGasLimit",
      "outputs": [
        {
          "internalType": "uint32",
          "name": "",
          "type": "uint32"
        }
      ],
      "stateMutability": "view",
      "type": "function"
    },
    {
      "inputs": [],
      "name": "s_keyHash",
      "outputs": [
        {
          "internalType": "bytes32",
          "name": "",
          "type": "bytes32"
        }
      ],
      "stateMutability": "view",
      "type": "function"
    },
    {
      "inputs": [],
      "name": "s_requestConfirmations",
      "outputs": [
        {
          "internalType": "uint16",
          "name": "",
          "type": "uint16"
        }
      ],
      "stateMutability": "view",
      "type": "function"
    },
    {
      "inputs": [],
      "name": "s_subscriptionId",
      "outputs": [
        {
          "internalType": "uint256",
          "name": "",
          "type": "uint256"
        }
      ],
      "stateMutability": "view",
      "type": "function"
    },
    {
      "inputs": [],
      "name": "s_vrfCoordinator",
      "outputs": [
        {
          "internalType": "contract IVRFCoordinatorV2Plus",
          "name": "",
          "type": "address"
        }
      ],
      "stateMutability": "view",
      "type": "function"
    },
    {
      "inputs": [
        {
          "internalType": "uint256",
          "name": "",
          "type": "uint256"
        }
      ],
      "name": "selectionRequests",
      "outputs": [
        {
          "internalType": "uint256",
          "name": "requestId",
          "type": "uint256"
        },
        {
          "internalType": "uint256",
          "name": "feedRequestId",
          "type": "uint256"
        },
        {
          "internalType": "uint8",
          "name": "numToSelect",
          "type": "uint8"
        },
        {
          "internalType": "bool",
          "name": "fulfilled",
          "type": "bool"
        },
        {
          "internalType": "uint256",
          "name": "createdAt",
          "type": "uint256"
        }
      ],
      "stateMutability": "view",
      "type": "function"
    },
    {
      "inputs": [
        {
          "internalType": "uint32",
          "name": "gasLimit",
          "type": "uint32"
        }
      ],
      "name": "setCallbackGasLimit",
      "outputs": [],
      "stateMutability": "nonpayable",
      "type": "function"
    },
    {
      "inputs": [
        {
          "internalType": "address",
          "name": "_config",
          "type": "address"
        }
      ],
      "name": "setConfig",
      "outputs": [],
      "stateMutability": "nonpayable",
      "type": "function"
    },
    {
      "inputs": [
        {
          "internalType": "address",
          "name": "_vrfCoordinator",
          "type": "address"
        }
      ],
      "name": "setCoordinator",
      "outputs": [],
      "stateMutability": "nonpayable",
      "type": "function"
    },
    {
      "inputs": [
        {
          "internalType": "bytes32",
          "name": "keyHash",
          "type": "bytes32"
        }
      ],
      "name": "setKeyHash",
      "outputs": [],
      "stateMutability": "nonpayable",
      "type": "function"
    },
    {
      "inputs": [
        {
          "internalType": "uint16",
          "name": "confirmations",
          "type": "uint16"
        }
      ],
      "name": "setRequestConfirmations",
      "outputs": [],
      "stateMutability": "nonpayable",
      "type": "function"
    },
    {
      "inputs": [
        {
          "internalType": "uint256",
          "name": "subscriptionId",
          "type": "uint256"
        }
      ],
      "name": "setSubscriptionId",
      "outputs": [],
      "stateMutability": "nonpayable",
      "type": "function"
    },
    {
      "inputs": [
        {
          "internalType": "bytes4",
          "name": "interfaceId",
          "type": "bytes4"
        }
      ],
      "name": "supportsInterface",
      "outputs": [
        {
          "internalType": "bool",
          "name": "",
          "type": "bool"
        }
      ],
      "stateMutability": "view",
      "type": "function"
    },
    {
      "inputs": [
        {
          "internalType": "address",
          "name": "to",
          "type": "address"
        }
      ],
      "name": "transferOwnership",
      "outputs": [],
      "stateMutability": "nonpayable",
      "type": "function"
    },
    {
      "inputs": [
        {
          "internalType": "uint256",
          "name": "",
          "type": "uint256"
        }
      ],
      "name": "vrfRequestToSelection",
      "outputs": [
        {
          "internalType": "uint256",
          "name": "",
          "type": "uint256"
        }
      ],
      "stateMutability": "view",
      "type": "function"
    }
  ],
  "bytecode": "0x6080346200016657601f62001fec38819003918201601f19168301916001600160401b038311848410176200016b5780849260a09460405283398101031262000166576200004d8162000181565b906020810151916040820151926200007660806200006e6060860162000181565b940162000181565b9233156200012157600080546001600160a01b031990811633179091556001600160a01b03939093169485156200010f57620000fe9564030007a1209460025416176002556006549260016009556004556005556601000000000000600160d01b039060301b169060018060d01b0319161717600655620000f78162000196565b5062000217565b50604051611d119081620002bb8239f35b60405163d92e233d60e01b8152600490fd5b60405162461bcd60e51b815260206004820152601860248201527f43616e6e6f7420736574206f776e657220746f207a65726f00000000000000006044820152606490fd5b600080fd5b634e487b7160e01b600052604160045260246000fd5b51906001600160a01b03821682036200016657565b6001600160a01b031660008181527f3617319a054d772f909f7c479a2cebe5066e836a939412e32403c99029b92eff602052604081205490919060ff16620002135781805260036020526040822081835260205260408220600160ff19825416179055339160008051602062001fcc8339815191528180a4600190565b5090565b6001600160a01b031660008181527fd9c4f60e436ec4c09f29b38c4be2eeedf2e7ee0586644753178a54cf9969c4bd60205260408120549091907f3075bddb9682497d047160e502d3b6d1b6b9bb9956c58894f7340019daec2bfa9060ff16620002b55780835260036020526040832082845260205260408320600160ff1982541617905560008051602062001fcc833981519152339380a4600190565b50509056fe608080604052600436101561001357600080fd5b60003560e01c90816301ffc9a71461105a575080630398a79914610fdd5780630d1cabb314610fa95780631fe543e314610b8d57806320e3dbd414610b3b578063248a9ca314610b0c5780632f2ff15d14610acd57806336568abe14610a8657806345bb327b14610a6857806348ff933c14610a085780634cfa4820146109c45780635adda6011461099857806372f61e9b146108bd57806379502c551461089057806379acc2a01461087257806379ba5097146107c4578063853ee7a4146107405780638824f5a7146106f75780638ac00021146106d95780638da5cb5b146106b05780638ea98117146105e457806391d148541461059757806398544710146105235780639de4fd8a146104e85780639eccacf6146104bf578063a217fddf146104a3578063a4eb718c14610412578063c1e0d236146103a0578063c5b4e9371461037c578063cdc65ab614610341578063d1ee947e146102f4578063d547741f146102b3578063f2fde38b146101be5763f88ea2c91461019557600080fd5b346101b95760003660031901126101b957602060065461ffff60405191831c168152f35b600080fd5b346101b95760203660031901126101b9576101d76110ad565b6000546001600160a01b03908116913383900361027557169033821461023057600180546001600160a01b031916831790557fed8889f560326eb138920d842192f0eb3dd22b4f139c87a2c57538e05bae1278600080a3005b60405162461bcd60e51b815260206004820152601760248201527f43616e6e6f74207472616e7366657220746f2073656c660000000000000000006044820152606490fd5b60405162461bcd60e51b815260206004820152601660248201527527b7363c9031b0b63630b1363290313c9037bbb732b960511b6044820152606490fd5b346101b95760403660031901126101b9576102f26004356102d26110c3565b908060005260036020526102ed60016040600020015461119e565b6112f2565b005b346101b95760403660031901126101b957602435600435600052600a60205260406000209081548110156101b957600091825260209182902001546040516001600160a01b039091168152f35b346101b95760003660031901126101b95760206040517f04967fd25e7aa667b18955d808f19fd0c86238999ff8be2ebc72cd2cd3a83db08152f35b346101b95760003660031901126101b957602063ffffffff60065416604051908152f35b346101b95760203660031901126101b9577f07eff6d85425a11446beaaccfb703887be121e97c9c758fa7b752d0dab73a8436004356103dd611146565b600481905560055460065460408051938452602084019290925263ffffffff169082015242606082015280608081015b0390a1005b346101b95760203660031901126101b95760043563ffffffff8116908181036101b9577f07eff6d85425a11446beaaccfb703887be121e97c9c758fa7b752d0dab73a8439161045f611146565b63ffffffff19600654161760065560045461040d600554916040519384934292859094939263ffffffff906060936080840197845260208401521660408201520152565b346101b95760003660031901126101b957602060405160008152f35b346101b95760003660031901126101b9576002546040516001600160a01b039091168152602090f35b346101b95760003660031901126101b95760206040517f3075bddb9682497d047160e502d3b6d1b6b9bb9956c58894f7340019daec2bfa8152f35b346101b95760203660031901126101b9577f07eff6d85425a11446beaaccfb703887be121e97c9c758fa7b752d0dab73a843600435610560611146565b600581905560045460065460408051928352602083019390935263ffffffff1691810191909152426060820152806080810161040d565b346101b95760403660031901126101b9576105b06110c3565b600435600052600360205260406000209060018060a01b0316600052602052602060ff604060002054166040519015158152f35b346101b95760203660031901126101b9576105fd6110ad565b6000546001600160a01b039190821633811415806106a2575b61067a5750168015610668576020817fd1a6a14209a385a964d036e404cb5cfb71f4000cdb03c9366292430787261be6926bffffffffffffffffffffffff60a01b6002541617600255604051908152a1005b60405163d92e233d60e01b8152600490fd5b60649083600254166040519163061db9c160e01b835233600484015260248301526044820152fd5b508260025416331415610616565b346101b95760003660031901126101b9576000546040516001600160a01b039091168152602090f35b346101b95760003660031901126101b9576020600454604051908152f35b346101b95760203660031901126101b95760043561ffff811681036101b95761071e611146565b65ffff000000006006549160201b169065ffff00000000191617600655600080f35b346101b95760203660031901126101b95760043560005260076020526040600020805460018201549160ff600382015416906107b360ff6005830154169261078f600460068501549401611c81565b9060405196879687526020870152604086015260c0606086015260c0850190611109565b911515608084015260a08301520390f35b346101b95760003660031901126101b9576001546001600160a01b03808216330361083457600054916bffffffffffffffffffffffff60a01b903382851617600055166001553391167f8be0079c531659141344cd1fd0a4f28419497f9722a3daafe3b4186f6b6457e0600080a3005b60405162461bcd60e51b815260206004820152601660248201527526bab9ba10313290383937b837b9b2b21037bbb732b960511b6044820152606490fd5b346101b95760003660031901126101b9576020600954604051908152f35b346101b95760003660031901126101b95760065460405160309190911c6001600160a01b03168152602090f35b346101b95760603660031901126101b9576024356001600160401b0381116101b9576108ed9036906004016110d9565b9060443560ff811681036101b9573360009081527f0af4d9b85a2f48d6df802c0972a0ae944825f2b0f368cc8557a41a758ac8321f602052604090205460ff16156109495760209261094192600435611450565b604051908152f35b60405162461bcd60e51b815260206004820152602160248201527f46656564657253656c6563746f723a206e6f7420666565642070726f746f636f6044820152601b60fa1b6064820152608490fd5b346101b95760203660031901126101b95760043560005260086020526020604060002054604051908152f35b346101b95760203660031901126101b957600435600052600a602052610a046109f06040600020611c81565b604051918291602083526020830190611109565b0390f35b346101b95760203660031901126101b957600435600052600760205260a0604060002080549060018101549060ff600382015416600660ff6005840154169201549260405194855260208501526040840152151560608301526080820152f35b346101b95760003660031901126101b9576020600554604051908152f35b346101b95760403660031901126101b957610a9f6110c3565b336001600160a01b03821603610abb576102f2906004356112f2565b60405163334bd91960e11b8152600490fd5b346101b95760403660031901126101b9576102f2600435610aec6110c3565b90806000526003602052610b0760016040600020015461119e565b611277565b346101b95760203660031901126101b95760043560005260036020526020600160406000200154604051908152f35b346101b95760203660031901126101b957610b546110ad565b610b5c611146565b600680546601000000000000600160d01b03191660309290921b6601000000000000600160d01b0316919091179055005b346101b95760403660031901126101b9576024356001600160401b0381116101b957610bbd9036906004016110d9565b6002546001600160a01b031633819003610f8b57506004356000526008602052604060002054908115610f465781600052600760205260406000209060ff600583015416610ef75715610ee15760ff600382015416610c1e60028301611c81565b90610c28816113e6565b94825190610c35826113e6565b9360005b838110610eba57505060005b838110610de457878787600481019083516001600160401b038111610d8857600160401b90818111610d88578354818555808210610dbb575b50602086018094600052602060002060005b838110610d9e5750505050600180928160ff1960058301541617600582015501928354600052600a6020526040600020908651926001600160401b038411610d88578311610d88578154838355808410610d5d575b5090600052602060002060005b838110610d415787877f226e40a00b208dfd029269ddc608f61c655164f99bd9dcc736dc6618af029ee2610d36895493604051918291604083526040830190611109565b4260208301520390a3005b82516001600160a01b0316818301556020909201918401610cf2565b826000528484602060002092830192015b828110610d7c575050610ce5565b60008155018590610d6e565b634e487b7160e01b600052604160045260246000fd5b82516001600160a01b031681830155602090920191600101610c90565b8460005281602060002091820191015b818110610dd85750610c7e565b60008155600101610dcb565b60405160208101908335825282604082015260408152610e0381611393565b51902081840390848211610e8e57828514610ea45706810190818111610e8e57610e8991610e646001600160a01b03610e3c848a61143c565b5116916001600160a01b03610e51828b61143c565b5116610e5d858b61143c565b528861143c565b526001600160a01b03610e77828861143c565b5116610e83828b61143c565b52611369565b610c45565b634e487b7160e01b600052601160045260246000fd5b634e487b7160e01b600052601260045260246000fd5b610edc906001600160a01b03610ed0828561143c565b5116610e83828961143c565b610c39565b634e487b7160e01b600052603260045260246000fd5b60405162461bcd60e51b815260206004820152602160248201527f46656564657253656c6563746f723a20616c72656164792066756c66696c6c656044820152601960fa1b6064820152608490fd5b60405162461bcd60e51b815260206004820152601f60248201527f46656564657253656c6563746f723a20756e6b6e6f776e2072657175657374006044820152606490fd5b6044906040519063073e64fd60e21b82523360048301526024820152fd5b346101b95760203660031901126101b9576004356000526007602052602060ff600560406000200154166040519015158152f35b346101b95760203660031901126101b9576102f2610ff96110ad565b611001611146565b7f04967fd25e7aa667b18955d808f19fd0c86238999ff8be2ebc72cd2cd3a83db060005260036020527f0af4d9b85a2f48d6df802c0972a0ae944825f2b0f368cc8557a41a758ac83220546110559061119e565b6111c4565b346101b95760203660031901126101b9576004359063ffffffff60e01b82168092036101b957602091637965db0b60e01b811490811561109c575b5015158152f35b6301ffc9a760e01b14905083611095565b600435906001600160a01b03821682036101b957565b602435906001600160a01b03821682036101b957565b9181601f840112156101b9578235916001600160401b0383116101b9576020808501948460051b0101116101b957565b90815180825260208080930193019160005b828110611129575050505090565b83516001600160a01b03168552938101939281019260010161111b565b3360009081527f3617319a054d772f909f7c479a2cebe5066e836a939412e32403c99029b92eff602052604081205460ff16156111805750565b6044906040519063e2517d3f60e01b82523360048301526024820152fd5b80600052600360205260406000203360005260205260ff60406000205416156111805750565b6001600160a01b031660008181527f0af4d9b85a2f48d6df802c0972a0ae944825f2b0f368cc8557a41a758ac8321f60205260408120549091907f04967fd25e7aa667b18955d808f19fd0c86238999ff8be2ebc72cd2cd3a83db09060ff166112725780835260036020526040832082845260205260408320600160ff198254161790557f2f8788117e7eff1d82e926ec794901d17c78024a50270940304540a733656f0d339380a4600190565b505090565b906000918083526003602052604083209160018060a01b03169182845260205260ff604084205416156000146112725780835260036020526040832082845260205260408320600160ff198254161790557f2f8788117e7eff1d82e926ec794901d17c78024a50270940304540a733656f0d339380a4600190565b906000918083526003602052604083209160018060a01b03169182845260205260ff604084205416600014611272578083526003602052604083208284526020526040832060ff1981541690557ff6391f5c32d9c69d2a47ea670b442974b53935d1edc7fd64eb21e047a839171b339380a4600190565b6000198114610e8e5760010190565b60e081019081106001600160401b03821117610d8857604052565b606081019081106001600160401b03821117610d8857604052565b90601f801991011681019081106001600160401b03821117610d8857604052565b6001600160401b038111610d885760051b60200190565b906113f0826113cf565b6113fd60405191826113ae565b828152809261140e601f19916113cf565b0190602036910137565b9190811015610ee15760051b0190565b356001600160a01b03811681036101b95790565b8051821015610ee15760209160051b010190565b9160ff84168110611c2e5760ff841615611bd8576009549361147185611369565b6009558460ff821683146118c057506002546005546004546006546040519196936001600160a01b03169290602083016001600160401b03811184821017610d8857604052600083526040519263125fa26760e31b60208501525115156024840152602483526114e083611393565b6040519760c08901928984106001600160401b03851117610d88579063ffffffff929160a09a95946040528552602085015261ffff8160201c1660408501521660608301526001608083015286820152604051958691634d8e1c2f60e11b835260206004840152805160248401526020810151604484015261ffff604082015116606484015263ffffffff606082015116608484015263ffffffff60808201511660a4840152015160c060c48301528051908160e484015260005b8281106118a757505091816000602094826101049183838284010152601f801991011681010301925af193841561189b57600094611867575b506115de836113e6565b9060005b84811061182f57505060405190602082018281106001600160401b03821117610d8857604052600082526040519061161982611378565b85825260208201928784526040830191825260ff851660608401526080830152600060a08301524260c083015287600052600760205260406000209282518455516001840155518051906001600160401b038211610d8857600160401b8211610d88576002840154826002860155808310611802575b5060200160028401600052602060002060005b8381106117e557505050506003820160ff60608301511660ff1982541617905560808101518051906001600160401b038211610d8857600160401b8211610d885760048401548260048601558083106117b9575b50906020899796959493920160048401600052602060002060005b83811061179957505050507ff23b01468ddeeea013f475f6bdd1bae66fd850ff4c858bda26a04f96f2ce9cd1949260809492600660c08461176960a060ff9701511515600586019060ff801983541691151516179055565b0151910155836000526008602052866040600020556040519384521660208301526040820152426060820152a390565b82516001600160a01b0316818301558b9950602090920191600101611711565b6004850160005282602060002091820191015b8181106117d957506116f6565b600081556001016117cc565b82516001600160a01b0316818301556020909201916001016116a2565b600285016000526020600020908382015b818301811061182357505061168f565b60008155600101611813565b80611846611841611862938886611418565b611428565b611850828661143c565b6001600160a01b039091169052611369565b6115e2565b9093506020813d602011611893575b81611883602093836113ae565b810103126101b9575192386115d4565b3d9150611876565b6040513d6000823e3d90fd5b60208282018101516101048b840101528994500161159b565b94506118ce60ff82166113e6565b9260005b60ff83168110611bb757506040928351926118ec84611378565b6000845260209384810193888552611903846113cf565b93611910885195866113ae565b8085528685019060051b8201913683116101b957905b828210611b985750505085810192835260ff6060820192168252608081019387855260a0820160019586825260c08401924284528c60005260078952896000209451855551878501556002840195519485516001600160401b0397888211610d8857600160401b97888311610d88578b908254848455808510611b6b575b5001906000528a6000208a60005b848110611b5057505050505060ff6003860191511660ff1982541617905560048401905190815191878311610d8857868311610d885789908254848455808510611b23575b500190600052886000208860005b848110611b0857505050505090611a30600692511515600585019060ff801983541691151516179055565b5191015586600052600a845284600020908651928311610d88578211610d88578054828255808310611ade575b5090839186948996949701906000528260002060005b838110611ac157505050507f226e40a00b208dfd029269ddc608f61c655164f99bd9dcc736dc6618af029ee2939450611ab58251938385948552840190611109565b9042908301520390a390565b82516001600160a01b0316818301558a9750918401918801611a73565b8160005283838660002092830192015b828110611afc575050611a5d565b60008155018490611aee565b83516001600160a01b031683820155928b01928a9101611a05565b836000528a858460002092830192015b828110611b415750506119f7565b600081558d94508c9101611b33565b83516001600160a01b031683820155928d01928c91016119b2565b836000528c858460002092830192015b828110611b895750506119a4565b600081558f94508e9101611b7b565b81356001600160a01b03811681036101b9578152908701908701611926565b80611bc9611841611bd3938786611418565b611850828861143c565b6118d2565b60405162461bcd60e51b815260206004820152602860248201527f46656564657253656c6563746f723a206d7573742073656c656374206174206c60448201526765617374206f6e6560c01b6064820152608490fd5b60405162461bcd60e51b815260206004820152602560248201527f46656564657253656c6563746f723a206e6f7420656e6f7567682063616e6469604482015264646174657360d81b6064820152608490fd5b9060405191828154918282526020928383019160005283600020936000905b828210611cb857505050611cb6925003836113ae565b565b85546001600160a01b031684526001958601958895509381019390910190611ca056fea264697066735822122048895a63dd52e654ef7c30732472d905d92b78ed7ac95799d1babd0ae8060cdb64736f6c634300081400332f8788117e7eff1d82e926ec794901d17c78024a50270940304540a733656f0d",
  "linkReferences": {},
  "deployedLinkReferences": {}
}