{
  "_format": "hh-sol-artifact-1",
  "contractName": "Config",
  "sourceName": "contracts/core/Config.sol",
  "abi": [
    {
      "inputs": [
        {
          "internalType": "address",
          "name": "_admin",
          "type": "address"
        }
      ],
      "stateMutability": "nonpayable",
      "type": "constructor"
    },
    {
      "inputs": [],
      "name": "AccessControlBadConfirmation",
      "type": "error"
    },
    {
      "inputs": [
        {
          "internalType": "address",
          "name": "account",
          "type": "address"
        },
        {
          "internalType": "bytes32",
          "name": "neededRole",
          "type": "bytes32"
        }
      ],
      "name": "AccessControlUnauthorizedAccount",
      "type": "error"
    },
    {
      "inputs": [],
      "name": "EnforcedPause",
      "type": "error"
    },
    {
      "inputs": [],
      "name": "ExpectedPause",
      "type": "error"
    },
    {
      "anonymous": false,
      "inputs": [
        {
          "indexed": true,
          "internalType": "string",
          "name": "paramName",
          "type": "string"
        },
        {
          "indexed": false,
          "internalType": "address",
          "name": "oldAddress",
          "type": "address"
        },
        {
          "indexed": false,
          "internalType": "address",
          "name": "newAddress",
          "type": "address"
        },
        {
          "indexed": false,
          "internalType": "uint256",
          "name": "timestamp",
          "type": "uint256"
        }
      ],
      "name": "AddressUpdated",
      "type": "event"
    },
    {
      "anonymous": false,
      "inputs": [
        {
          "indexed": true,
          "internalType": "string",
          "name": "paramName",
          "type": "string"
        },
        {
          "indexed": false,
          "internalType": "uint256",
          "name": "oldValue",
          "type": "uint256"
        },
        {
          "indexed": false,
          "internalType": "uint256",
          "name": "newValue",
          "type": "uint256"
        },
        {
          "indexed": false,
          "internalType": "uint256",
          "name": "timestamp",
          "type": "uint256"
        }
      ],
      "name": "ParameterUpdated",
      "type": "event"
    },
    {
      "anonymous": false,
      "inputs": [
        {
          "indexed": false,
          "internalType": "address",
          "name": "account",
          "type": "address"
        }
      ],
      "name": "Paused",
      "type": "event"
    },
    {
      "anonymous": false,
      "inputs": [
        {
          "indexed": true,
          "internalType": "bytes32",
          "name": "role",
          "type": "bytes32"
        },
        {
          "indexed": true,
          "internalType": "bytes32",
          "name": "previousAdminRole",
          "type": "bytes32"
        },
        {
          "indexed": true,
          "internalType": "bytes32",
          "name": "newAdminRole",
          "type": "bytes32"
        }
      ],
      "name": "RoleAdminChanged",
      "type": "event"
    },
    {
      "anonymous": false,
      "inputs": [
        {
          "indexed": true,
          "internalType": "bytes32",
          "name": "role",
          "type": "bytes32"
        },
        {
          "indexed": true,
          "internalType": "address",
          "name": "account",
          "type": "address"
        },
        {
          "indexed": true,
          "internalType": "address",
          "name": "sender",
          "type": "address"
        }
      ],
      "name": "RoleGranted",
      "type": "event"
    },
    {
      "anonymous": false,
      "inputs": [
        {
          "indexed": true,
          "internalType": "bytes32",
          "name": "role",
          "type": "bytes32"
        },
        {
          "indexed": true,
          "internalType": "address",
          "name": "account",
          "type": "address"
        },
        {
          "indexed": true,
          "internalType": "address",
          "name": "sender",
          "type": "address"
        }
      ],
      "name": "RoleRevoked",
      "type": "event"
    },
    {
      "anonymous": false,
      "inputs": [
        {
          "indexed": false,
          "internalType": "address",
          "name": "account",
          "type": "address"
        }
      ],
      "name": "Unpaused",
      "type": "event"
    },
    {
      "inputs": [],
      "name": "DAO_ROLE",
      "outputs": [
        {
          "internalType": "bytes32",
          "name": "",
          "type": "bytes32"
        }
      ],
      "stateMutability": "view",
      "type": "function"
    },
    {
      "inputs": [],
      "name": "DEFAULT_ADMIN_ROLE",
      "outputs": [
        {
          "internalType": "bytes32",
          "name": "",
          "type": "bytes32"
        }
      ],
      "stateMutability": "view",
      "type": "function"
    },
    {
      "inputs": [],
      "name": "GUARDIAN_ROLE",
      "outputs": [
        {
          "internalType": "bytes32",
          "name": "",
          "type": "bytes32"
        }
      ],
      "stateMutability": "view",
      "type": "function"
    },
    {
      "inputs": [],
      "name": "OPERATOR_ROLE",
      "outputs": [
        {
          "internalType": "bytes32",
          "name": "",
          "type": "bytes32"
        }
      ],
      "stateMutability": "view",
      "type": "function"
    },
    {
      "inputs": [],
      "name": "arbitrationFee",
      "outputs": [
        {
          "internalType": "uint256",
          "name": "",
          "type": "uint256"
        }
      ],
      "stateMutability": "view",
      "type": "function"
    },
    {
      "inputs": [],
      "name": "closingFeedDeadline",
      "outputs": [
        {
          "internalType": "uint256",
          "name": "",
          "type": "uint256"
        }
      ],
      "stateMutability": "view",
      "type": "function"
    },
    {
      "inputs": [],
      "name": "creationFee",
      "outputs": [
        {
          "internalType": "uint256",
          "name": "",
          "type": "uint256"
        }
      ],
      "stateMutability": "view",
      "type": "function"
    },
    {
      "inputs": [],
      "name": "cryptoMarginCallDeadline",
      "outputs": [
        {
          "internalType": "uint256",
          "name": "",
          "type": "uint256"
        }
      ],
      "stateMutability": "view",
      "type": "function"
    },
    {
      "inputs": [],
      "name": "daoShare",
      "outputs": [
        {
          "internalType": "uint256",
          "name": "",
          "type": "uint256"
        }
      ],
      "stateMutability": "view",
      "type": "function"
    },
    {
      "inputs": [],
      "name": "defaultArbitrationWindow",
      "outputs": [
        {
          "internalType": "uint256",
          "name": "",
          "type": "uint256"
        }
      ],
      "stateMutability": "view",
      "type": "function"
    },
    {
      "inputs": [],
      "name": "defaultDailyLimitPercent",
      "outputs": [
        {
          "internalType": "uint256",
          "name": "",
          "type": "uint256"
        }
      ],
      "stateMutability": "view",
      "type": "function"
    },
    {
      "inputs": [],
      "name": "defaultMarginCallDeadline",
      "outputs": [
        {
          "internalType": "uint256",
          "name": "",
          "type": "uint256"
        }
      ],
      "stateMutability": "view",
      "type": "function"
    },
    {
      "inputs": [],
      "name": "feedFee_10_7",
      "outputs": [
        {
          "internalType": "uint256",
          "name": "",
          "type": "uint256"
        }
      ],
      "stateMutability": "view",
      "type": "function"
    },
    {
      "inputs": [],
      "name": "feedFee_5_3",
      "outputs": [
        {
          "internalType": "uint256",
          "name": "",
          "type": "uint256"
        }
      ],
      "stateMutability": "view",
      "type": "function"
    },
    {
      "inputs": [],
      "name": "feedFee_7_5",
      "outputs": [
        {
          "internalType": "uint256",
          "name": "",
          "type": "uint256"
        }
      ],
      "stateMutability": "view",
      "type": "function"
    },
    {
      "inputs": [],
      "name": "feedFeederShare",
      "outputs": [
        {
          "internalType": "uint256",
          "name": "",
          "type": "uint256"
        }
      ],
      "stateMutability": "view",
      "type": "function"
    },
    {
      "inputs": [],
      "name": "feedPlatformShare",
      "outputs": [
        {
          "internalType": "uint256",
          "name": "",
          "type": "uint256"
        }
      ],
      "stateMutability": "view",
      "type": "function"
    },
    {
      "inputs": [],
      "name": "feedProtocolAddress",
      "outputs": [
        {
          "internalType": "address",
          "name": "",
          "type": "address"
        }
      ],
      "stateMutability": "view",
      "type": "function"
    },
    {
      "inputs": [],
      "name": "foundationShare",
      "outputs": [
        {
          "internalType": "uint256",
          "name": "",
          "type": "uint256"
        }
      ],
      "stateMutability": "view",
      "type": "function"
    },
    {
      "inputs": [
        {
          "internalType": "bool",
          "name": "isSettlement",
          "type": "bool"
        }
      ],
      "name": "getArbitrationWindow",
      "outputs": [
        {
          "internalType": "uint256",
          "name": "",
          "type": "uint256"
        }
      ],
      "stateMutability": "view",
      "type": "function"
    },
    {
      "inputs": [
        {
          "internalType": "uint8",
          "name": "tier",
          "type": "uint8"
        }
      ],
      "name": "getFeedFee",
      "outputs": [
        {
          "internalType": "uint256",
          "name": "",
          "type": "uint256"
        }
      ],
      "stateMutability": "view",
      "type": "function"
    },
    {
      "inputs": [
        {
          "internalType": "bool",
          "name": "isCrypto",
          "type": "bool"
        }
      ],
      "name": "getMarginCallDeadline",
      "outputs": [
        {
          "internalType": "uint256",
          "name": "",
          "type": "uint256"
        }
      ],
      "stateMutability": "view",
      "type": "function"
    },
    {
      "inputs": [
        {
          "internalType": "bytes32",
          "name": "role",
          "type": "bytes32"
        }
      ],
      "name": "getRoleAdmin",
      "outputs": [
        {
          "internalType": "bytes32",
          "name": "",
          "type": "bytes32"
        }
      ],
      "stateMutability": "view",
      "type": "function"
    },
    {
      "inputs": [
        {
          "internalType": "bytes32",
          "name": "role",
          "type": "bytes32"
        },
        {
          "internalType": "address",
          "name": "account",
          "type": "address"
        }
      ],
      "name": "grantRole",
      "outputs": [],
      "stateMutability": "nonpayable",
      "type": "function"
    },
    {
      "inputs": [],
      "name": "growthNodeShare",
      "outputs": [
        {
          "internalType": "uint256",
          "name": "",
          "type": "uint256"
        }
      ],
      "stateMutability": "view",
      "type": "function"
    },
    {
      "inputs": [
        {
          "internalType": "bytes32",
          "name": "role",
          "type": "bytes32"
        },
        {
          "internalType": "address",
          "name": "account",
          "type": "address"
        }
      ],
      "name": "hasRole",
      "outputs": [
        {
          "internalType": "bool",
          "name": "",
          "type": "bool"
        }
      ],
      "stateMutability": "view",
      "type": "function"
    },
    {
      "inputs": [],
      "name": "initialFeedDeadline",
      "outputs": [
        {
          "internalType": "uint256",
          "name": "",
          "type": "uint256"
        }
      ],
      "stateMutability": "view",
      "type": "function"
    },
    {
      "inputs": [],
      "name": "lpPoolShare",
      "outputs": [
        {
          "internalType": "uint256",
          "name": "",
          "type": "uint256"
        }
      ],
      "stateMutability": "view",
      "type": "function"
    },
    {
      "inputs": [],
      "name": "maxConsecutiveDays",
      "outputs": [
        {
          "internalType": "uint256",
          "name": "",
          "type": "uint256"
        }
      ],
      "stateMutability": "view",
      "type": "function"
    },
    {
      "inputs": [],
      "name": "maxExerciseDelay",
      "outputs": [
        {
          "internalType": "uint256",
          "name": "",
          "type": "uint256"
        }
      ],
      "stateMutability": "view",
      "type": "function"
    },
    {
      "inputs": [],
      "name": "maxQuotesPerBuyerOrder",
      "outputs": [
        {
          "internalType": "uint256",
          "name": "",
          "type": "uint256"
        }
      ],
      "stateMutability": "view",
      "type": "function"
    },
    {
      "inputs": [],
      "name": "maxQuotesPerSellerOrder",
      "outputs": [
        {
          "internalType": "uint256",
          "name": "",
          "type": "uint256"
        }
      ],
      "stateMutability": "view",
      "type": "function"
    },
    {
      "inputs": [],
      "name": "minExerciseDelay",
      "outputs": [
        {
          "internalType": "uint256",
          "name": "",
          "type": "uint256"
        }
      ],
      "stateMutability": "view",
      "type": "function"
    },
    {
      "inputs": [],
      "name": "minFeederStake",
      "outputs": [
        {
          "internalType": "uint256",
          "name": "",
          "type": "uint256"
        }
      ],
      "stateMutability": "view",
      "type": "function"
    },
    {
      "inputs": [],
      "name": "minMarginRate",
      "outputs": [
        {
          "internalType": "uint256",
          "name": "",
          "type": "uint256"
        }
      ],
      "stateMutability": "view",
      "type": "function"
    },
    {
      "inputs": [],
      "name": "nodeRewardShare",
      "outputs": [
        {
          "internalType": "uint256",
          "name": "",
          "type": "uint256"
        }
      ],
      "stateMutability": "view",
      "type": "function"
    },
    {
      "inputs": [],
      "name": "nstDiscount",
      "outputs": [
        {
          "internalType": "uint256",
          "name": "",
          "type": "uint256"
        }
      ],
      "stateMutability": "view",
      "type": "function"
    },
    {
      "inputs": [],
      "name": "nstTokenAddress",
      "outputs": [
        {
          "internalType": "address",
          "name": "",
          "type": "address"
        }
      ],
      "stateMutability": "view",
      "type": "function"
    },
    {
      "inputs": [],
      "name": "optionsCoreAddress",
      "outputs": [
        {
          "internalType": "address",
          "name": "",
          "type": "address"
        }
      ],
      "stateMutability": "view",
      "type": "function"
    },
    {
      "inputs": [],
      "name": "pause",
      "outputs": [],
      "stateMutability": "nonpayable",
      "type": "function"
    },
    {
      "inputs": [],
      "name": "paused",
      "outputs": [
        {
          "internalType": "bool",
          "name": "",
          "type": "bool"
        }
      ],
      "stateMutability": "view",
      "type": "function"
    },
    {
      "inputs": [],
      "name": "pointsManagerAddress",
      "outputs": [
        {
          "internalType": "address",
          "name": "",
          "type": "address"
        }
      ],
      "stateMutability": "view",
      "type": "function"
    },
    {
      "inputs": [],
      "name": "pointsMultiplier",
      "outputs": [
        {
          "internalType": "uint256",
          "name": "",
          "type": "uint256"
        }
      ],
      "stateMutability": "view",
      "type": "function"
    },
    {
      "inputs": [],
      "name": "quoteValidityPeriod",
      "outputs": [
        {
          "internalType": "uint256",
          "name": "",
          "type": "uint256"
        }
      ],
      "stateMutability": "view",
      "type": "function"
    },
    {
      "inputs": [
        {
          "internalType": "bytes32",
          "name": "role",
          "type": "bytes32"
        },
        {
          "internalType": "address",
          "name": "callerConfirmation",
          "type": "address"
        }
      ],
      "name": "renounceRole",
      "outputs": [],
      "stateMutability": "nonpayable",
      "type": "function"
    },
    {
      "inputs": [
        {
          "internalType": "bytes32",
          "name": "role",
          "type": "bytes32"
        },
        {
          "internalType": "address",
          "name": "account",
          "type": "address"
        }
      ],
      "name": "revokeRole",
      "outputs": [],
      "stateMutability": "nonpayable",
      "type": "function"
    },
    {
      "inputs": [],
      "name": "rfqValidityPeriod",
      "outputs": [
        {
          "internalType": "uint256",
          "name": "",
          "type": "uint256"
        }
      ],
      "stateMutability": "view",
      "type": "function"
    },
    {
      "inputs": [],
      "name": "seatManagerAddress",
      "outputs": [
        {
          "internalType": "address",
          "name": "",
          "type": "address"
        }
      ],
      "stateMutability": "view",
      "type": "function"
    },
    {
      "inputs": [],
      "name": "seatSellerInitialMargin",
      "outputs": [
        {
          "internalType": "uint256",
          "name": "",
          "type": "uint256"
        }
      ],
      "stateMutability": "view",
      "type": "function"
    },
    {
      "inputs": [
        {
          "internalType": "uint256",
          "name": "_value",
          "type": "uint256"
        }
      ],
      "name": "setArbitrationFee",
      "outputs": [],
      "stateMutability": "nonpayable",
      "type": "function"
    },
    {
      "inputs": [
        {
          "internalType": "uint256",
          "name": "_value",
          "type": "uint256"
        }
      ],
      "name": "setCreationFee",
      "outputs": [],
      "stateMutability": "nonpayable",
      "type": "function"
    },
    {
      "inputs": [
        {
          "internalType": "address",
          "name": "_address",
          "type": "address"
        }
      ],
      "name": "setFeedProtocolAddress",
      "outputs": [],
      "stateMutability": "nonpayable",
      "type": "function"
    },
    {
      "inputs": [
        {
          "internalType": "uint256",
          "name": "_value",
          "type": "uint256"
        }
      ],
      "name": "setMinFeederStake",
      "outputs": [],
      "stateMutability": "nonpayable",
      "type": "function"
    },
    {
      "inputs": [
        {
          "internalType": "uint256",
          "name": "_value",
          "type": "uint256"
        }
      ],
      "name": "setMinMarginRate",
      "outputs": [],
      "stateMutability": "nonpayable",
      "type": "function"
    },
    {
      "inputs": [
        {
          "internalType": "address",
          "name": "_address",
          "type": "address"
        }
      ],
      "name": "setOptionsCoreAddress",
      "outputs": [],
      "stateMutability": "nonpayable",
      "type": "function"
    },
    {
      "inputs": [
        {
          "internalType": "address",
          "name": "_address",
          "type": "address"
        }
      ],
      "name": "setPointsManagerAddress",
      "outputs": [],
      "stateMutability": "nonpayable",
      "type": "function"
    },
    {
      "inputs": [
        {
          "internalType": "uint256",
          "name": "_value",
          "type": "uint256"
        }
      ],
      "name": "setQuoteValidityPeriod",
      "outputs": [],
      "stateMutability": "nonpayable",
      "type": "function"
    },
    {
      "inputs": [
        {
          "internalType": "uint256",
          "name": "_value",
          "type": "uint256"
        }
      ],
      "name": "setRfqValidityPeriod",
      "outputs": [],
      "stateMutability": "nonpayable",
      "type": "function"
    },
    {
      "inputs": [
        {
          "internalType": "address",
          "name": "_address",
          "type": "address"
        }
      ],
      "name": "setSeatManagerAddress",
      "outputs": [],
      "stateMutability": "nonpayable",
      "type": "function"
    },
    {
      "inputs": [
        {
          "internalType": "uint256",
          "name": "_value",
          "type": "uint256"
        }
      ],
      "name": "setTradingFeeRate",
      "outputs": [],
      "stateMutability": "nonpayable",
      "type": "function"
    },
    {
      "inputs": [
        {
          "internalType": "address",
          "name": "_address",
          "type": "address"
        }
      ],
      "name": "setUsdtAddress",
      "outputs": [],
      "stateMutability": "nonpayable",
      "type": "function"
    },
    {
      "inputs": [
        {
          "internalType": "address",
          "name": "_address",
          "type": "address"
        }
      ],
      "name": "setVaultManagerAddress",
      "outputs": [],
      "stateMutability": "nonpayable",
      "type": "function"
    },
    {
      "inputs": [],
      "name": "settlementArbitrationWindow",
      "outputs": [
        {
          "internalType": "uint256",
          "name": "",
          "type": "uint256"
        }
      ],
      "stateMutability": "view",
      "type": "function"
    },
    {
      "inputs": [
        {
          "internalType": "bytes4",
          "name": "interfaceId",
          "type": "bytes4"
        }
      ],
      "name": "supportsInterface",
      "outputs": [
        {
          "internalType": "bool",
          "name": "",
          "type": "bool"
        }
      ],
      "stateMutability": "view",
      "type": "function"
    },
    {
      "inputs": [],
      "name": "teamFundShare",
      "outputs": [
        {
          "internalType": "uint256",
          "name": "",
          "type": "uint256"
        }
      ],
      "stateMutability": "view",
      "type": "function"
    },
    {
      "inputs": [],
      "name": "tokenBuybackShare",
      "outputs": [
        {
          "internalType": "uint256",
          "name": "",
          "type": "uint256"
        }
      ],
      "stateMutability": "view",
      "type": "function"
    },
    {
      "inputs": [],
      "name": "tradingFeeRate",
      "outputs": [
        {
          "internalType": "uint256",
          "name": "",
          "type": "uint256"
        }
      ],
      "stateMutability": "view",
      "type": "function"
    },
    {
      "inputs": [],
      "name": "unpause",
      "outputs": [],
      "stateMutability": "nonpayable",
      "type": "function"
    },
    {
      "inputs": [],
      "name": "usdcAddress",
      "outputs": [
        {
          "internalType": "address",
          "name": "",
          "type": "address"
        }
      ],
      "stateMutability": "view",
      "type": "function"
    },
    {
      "inputs": [],
      "name": "usdtAddress",
      "outputs": [
        {
          "internalType": "address",
          "name": "",
          "type": "address"
        }
      ],
      "stateMutability": "view",
      "type": "function"
    },
    {
      "inputs": [],
      "name": "vaultManagerAddress",
      "outputs": [
        {
          "internalType": "address",
          "name": "",
          "type": "address"
        }
      ],
      "stateMutability": "view",
      "type": "function"
    }
  ],
  "bytecode": "0x6080346200016e57601f62001d4d38819003918201601f19168301916001600160401b0383118484101762000173578084926020946040528339810103126200016e57516001600160a01b03811681036200016e576200015d90611c20806002556107086003556102588060045560055561a8c0908160065560075562015180600855600955670de0b6b3a7640000600a55600a600b556801a055690d9db80000600c556050600d556729a2241af62c0000600e55674563918244f40000600f55676f05b59d3b200000601055600a601155605a6012556103e880601355600060145568056bc75e2d6310000060155560056016556001601755600a601855601e6019556001601a556005601b556064601c556101f4601d5580601e5580601f55610bb86020556109c4602155806022556023556200013e8162000189565b506200014a8162000209565b506200015681620002ab565b5062000348565b506040516119479081620003e68239f35b600080fd5b634e487b7160e01b600052604160045260246000fd5b6001600160a01b031660008181527fad3228b676f7d3cd4284a5443f17f1962b36e491b30a40b2405849e597ba5fb5602052604081205490919060ff166200020557818052816020526040822081835260205260408220600160ff19825416179055339160008051602062001d2d8339815191528180a4600190565b5090565b6001600160a01b031660008181527fc39f11a9300b508470eaed31f5842ba08c93181bcbe6a7fe34039aa7f2b8074260205260408120549091907f3b5d4cc60d3ec3516ee8ae083bd60934f6eb2a6c54b1229985c41bfb092b26039060ff16620002a657808352826020526040832082845260205260408320600160ff1982541617905560008051602062001d2d833981519152339380a4600190565b505090565b6001600160a01b031660008181527fee57cd81e84075558e8fcc182a1f4393f91fc97f963a136e66b7f949a62f319f60205260408120549091907f97667070c54ef182b0f5858b034beac1b6f3089aa2d3188bb1e8929f4fa9b9299060ff16620002a657808352826020526040832082845260205260408320600160ff1982541617905560008051602062001d2d833981519152339380a4600190565b6001600160a01b031660008181527f8a40f0b47fdc2a0ce293b772acfc7508c8315a4d462786c1adc3a56f92ca2d0560205260408120549091907f55435dd261a4b9b3364963f7738a7a662ad9c84396d64be3365284bb7f0a50419060ff16620002a657808352826020526040832082845260205260408320600160ff1982541617905560008051602062001d2d833981519152339380a460019056fe608060408181526004918236101561001657600080fd5b600092833560e01c91826301ffc9a7146116395750816302d45457146116105781630cb46b75146115475781630d42bada146115285781630d8bb8ac146114ff5781631091f67c14611454578163134f6646146113aa57816316b263c51461138b5781631a5632b91461136c5781631b30900b1461134d5781631bdd9bc6146113145781631cfa7ba8146112f5578163222b9c43146112d657816323068ac614611205578163248a9ca3146111db57816324ea54f4146111a05781632f2ff15d146111765781632f832f341461115757816336568abe1461111157816339c02ea41461103f5781633d8b8cb2146110165781633f4ba83a14610f8757816341e5ce8e14610f5e57816342df038c14610f3557816343b827ed14610e8757816348e23ea814610e685781634e57e10214610d975781634f6bfad714610d78578163520d682114610d4f578163570c2a1e14610c7f57816359c9c8c914610c605781635c975abb14610c3c5781635d8eb68714610c1d5781635ea7b4fc14610b725781635f9aeb0614610b5357816362f5ad6314610b3457816378dd8b0a14610b155781638456cb5914610a3357816386cdb33d14610a1457816388d19f1b146109f55781638f973f85146109d757816390ee6d0a1461090757816391d14854146108c15781639ab4a44514610898578163a217fddf1461087d578163a414e0441461085e578163a6bfbe231461083f578163a98a92fa14610820578163ab1df29c146107e6578163b028fb76146107c7578163b7d862251461071f578163c766d98614610700578163c7d7c5fd146106e2578163cb3c7b2d146106c3578163cd96255e146106a4578163d547741f14610665578163dce0b4e414610646578163dfb0253614610627578163e01df1a814610608578163e5695991146105d3578163e6481bd814610528578163e855dd391461047357508063e883082f14610455578063e9c265181461042d578063eda999941461040f578063f1c511c4146103e7578063f1d814b9146103c9578063f2588aa9146103ab578063f5a0c4801461038d578063f5b541a6146103535763f72084b21461033257600080fd5b3461034f578160031936011261034f576020906021549051908152f35b5080fd5b503461034f578160031936011261034f57602090517f97667070c54ef182b0f5858b034beac1b6f3089aa2d3188bb1e8929f4fa9b9298152f35b503461034f578160031936011261034f57602090601f549051908152f35b503461034f578160031936011261034f576020906023549051908152f35b503461034f578160031936011261034f57602090601b549051908152f35b503461034f578160031936011261034f57602a5490516001600160a01b039091168152602090f35b503461034f578160031936011261034f576020906019549051908152f35b503461034f578160031936011261034f57602090516000805160206118b28339815191528152f35b503461034f578160031936011261034f57602090600e549051908152f35b905034610524576020366003190112610524577e325ebf42911c71e499fcfc973b9d3364c11163a47f1d7973e6a9c7ceee8033916000805160206118d283398151915291356000805160206118b28339815191528552846020528185203386526020526104e560ff83872054166117f4565b60038054908290558251721c5d5bdd1955985b1a591a5d1e54195c9a5bd9606a1b90529151918252602082015242604082015280606081015b0390a280f35b8280fd5b905034610524576020366003190112610524577fd1bcd18407225dd52030929dc97a636d415fcebbeeec3c99d3282e35e1586ce0916000805160206118d283398151915291356000805160206118b283398151915285528460205281852033865260205261059b60ff83872054166117f4565b601580549082905582516d6d696e4665656465725374616b6560901b905291519182526020820152426040820152806060810161051e565b90503461052457602036600319011261052457359160ff8316830361060557506105fe602092611840565b9051908152f35b80fd5b50503461034f578160031936011261034f57602090600b549051908152f35b50503461034f578160031936011261034f576020906005549051908152f35b50503461034f578160031936011261034f57602090600a549051908152f35b919050346105245780600319360112610524576106a0913561069b600161068a6116a7565b9383875286602052862001546116bd565b61177f565b5080f35b50503461034f578160031936011261034f576020906012549051908152f35b50503461034f578160031936011261034f576020906014549051908152f35b90503461052457826003193601126105245760209250549051908152f35b50503461034f578160031936011261034f576020906015549051908152f35b905034610524576020366003190112610524577f0c335b9e9554f592d8b6d57af0b04b86771fb9e44d65f35c141f01a6de646a17916000805160206118d283398151915291356000805160206118b283398151915285528460205281852033865260205261079260ff83872054166117f4565b600a80549082905582516a6372656174696f6e46656560a81b905291519182526020820152426040820152806060810161051e565b50503461034f578160031936011261034f576020906006549051908152f35b9050346105245760203660031901126105245735801515810361052457602092501561081757600854905b51908152f35b60095490610811565b50503461034f578160031936011261034f576020906009549051908152f35b50503461034f578160031936011261034f57602090601a549051908152f35b50503461034f578160031936011261034f576020906018549051908152f35b50503461034f578160031936011261034f5751908152602090f35b50503461034f578160031936011261034f5760245490516001600160a01b039091168152602090f35b9050346105245781600319360112610524578160209360ff926108e26116a7565b903582528186528282206001600160a01b039091168252855220549151911615158152f35b50503461034f57602036600319011261034f576000805160206118f28339815191527f4a4e69de8ded7dceaef818da27e4654e0073cb97b5e6455c1813e441d801a4019161095361168c565b906000805160206118b283398151915285528460205280852033865260205261098160ff82872054166117f4565b602880546001600160a01b039384166001600160a01b0319821681179092558251716f7074696f6e73436f72654164647265737360701b905291519290911682526020820152426040820152806060810161051e565b50503461034f578160031936011261034f5760209081549051908152f35b50503461034f578160031936011261034f576020906022549051908152f35b50503461034f578160031936011261034f57602090601c549051908152f35b9050346105245782600319360112610524577f55435dd261a4b9b3364963f7738a7a662ad9c84396d64be3365284bb7f0a504183528260205281832033845260205260ff828420541615610ad3576001549060ff8216610ac557507f62e78cea01bee320cd4e420270b5ea74000d11b0c9f74754ebdbfc544b05a25891600160209260ff19161760015551338152a180f35b825163d93c066560e01b8152fd5b6020606492519162461bcd60e51b8352820152601e60248201527f436f6e6669673a2063616c6c6572206973206e6f7420477561726469616e00006044820152fd5b50503461034f578160031936011261034f57602090601e549051908152f35b50503461034f578160031936011261034f57602090601d549051908152f35b50503461034f578160031936011261034f57602090600f549051908152f35b905034610524576020366003190112610524577f6cee20960e3ed91ce76465a2d59c093a6d1e12009c4f67d22f9f8a6e5c31f589916000805160206118d283398151915291356000805160206118b2833981519152855284602052818520338652602052610be560ff83872054166117f4565b600c80549082905582516d6172626974726174696f6e46656560901b905291519182526020820152426040820152806060810161051e565b50503461034f578160031936011261034f576020906013549051908152f35b50503461034f578160031936011261034f5760209060ff6001541690519015158152f35b50503461034f578160031936011261034f576020906007549051908152f35b50503461034f57602036600319011261034f576000805160206118f28339815191527f5e28eb369d7fdbb5dfbb05d4358500df3bf5f778c9f2c859b1d7277f5ae4ce3f91610ccb61168c565b906000805160206118b2833981519152855284602052808520338652602052610cf960ff82872054166117f4565b602a80546001600160a01b039384166001600160a01b031982168117909255825171736561744d616e616765724164647265737360701b905291519290911682526020820152426040820152806060810161051e565b50503461034f578160031936011261034f5760295490516001600160a01b039091168152602090f35b50503461034f578160031936011261034f576020906002549051908152f35b50503461034f57602036600319011261034f576000805160206118f28339815191527f2f73b590faaddb044f9851ed70b38c69e7cc0d4659bf1fe1082b600d997c18de91610de361168c565b906000805160206118b2833981519152855284602052808520338652602052610e1160ff82872054166117f4565b602980546001600160a01b039384166001600160a01b0319821681179092558251726665656450726f746f636f6c4164647265737360681b905291519290911682526020820152426040820152806060810161051e565b50503461034f578160031936011261034f576020906008549051908152f35b905034610524576020366003190112610524577f0b1f207596326c2fb1fab96833daf041824dc88fa6fbdb5c843b022ef967bdb4916000805160206118d283398151915291356000805160206118b2833981519152855284602052818520338652602052610efa60ff83872054166117f4565b60028054908290558251701c999c55985b1a591a5d1e54195c9a5bd9607a1b905291519182526020820152426040820152806060810161051e565b50503461034f578160031936011261034f5760265490516001600160a01b039091168152602090f35b50503461034f578160031936011261034f5760285490516001600160a01b039091168152602090f35b9050346105245782600319360112610524576000805160206118b2833981519152835282602052818320338452602052610fc660ff83852054166117f4565b6001549060ff821615611008575060ff1916600155513381527f5db9ee0a495bf2e6ff9c91a7834c1ba4fdd244a5e8aa4e537bd38aeae4b073aa90602090a180f35b8251638dfc202b60e01b8152fd5b50503461034f578160031936011261034f5760275490516001600160a01b039091168152602090f35b50503461034f57602036600319011261034f576000805160206118f28339815191527f2e9d3aa19d9dbd777c6be6342075ac61ef674d8b86d37b75ea0cb8d1a845c51b9161108b61168c565b906000805160206118b28339815191528552846020528085203386526020526110b960ff82872054166117f4565b602b80546001600160a01b039384166001600160a01b031982168117909255825173706f696e74734d616e616765724164647265737360601b905291519290911682526020820152426040820152806060810161051e565b83833461034f578060031936011261034f5761112b6116a7565b90336001600160a01b0383160361114857506106a091923561177f565b5163334bd91960e11b81528390fd5b50503461034f578160031936011261034f576020906016549051908152f35b919050346105245780600319360112610524576106a0913561119b600161068a6116a7565b611701565b50503461034f578160031936011261034f57602090517f55435dd261a4b9b3364963f7738a7a662ad9c84396d64be3365284bb7f0a50418152f35b90503461052457602036600319011261052457816020936001923581528085522001549051908152f35b50503461034f57602036600319011261034f576000805160206118f28339815191527f2fe00a4b9b1823087c1aaa9e681d82d7f691aa0160a8bec45c8e55052e1435349161125161168c565b906000805160206118b283398151915285528460205280852033865260205261127f60ff82872054166117f4565b602780546001600160a01b039384166001600160a01b0319821681179092558251727661756c744d616e616765724164647265737360681b905291519290911682526020820152426040820152806060810161051e565b50503461034f578160031936011261034f576020906017549051908152f35b50503461034f578160031936011261034f57602090600c549051908152f35b90503461052457602036600319011261052457358015158103610524576020925015611344576007549051908152f35b60065490610811565b50503461034f578160031936011261034f576020906010549051908152f35b50503461034f578160031936011261034f576020906011549051908152f35b50503461034f578160031936011261034f57602090600d549051908152f35b905034610524576020366003190112610524577f51dc7ee582b9d271f3fa6b99b06c522078b096083834a63261b707b00a031a59916000805160206118d283398151915291356000805160206118b283398151915285528460205281852033865260205261141d60ff83872054166117f4565b601380549082905582516c6d696e4d617267696e5261746560981b905291519182526020820152426040820152806060810161051e565b905034610524576020366003190112610524577f9e93ad54b8ace41ad65a3af48be0b970e216ad15d3a3f4c4132aa4bebd04ff0a916000805160206118d283398151915291356000805160206118b28339815191528552846020528185203386526020526114c760ff83872054166117f4565b600b80549082905582516d74726164696e674665655261746560901b905291519182526020820152426040820152806060810161051e565b50503461034f578160031936011261034f57602b5490516001600160a01b039091168152602090f35b50503461034f578160031936011261034f576020906003549051908152f35b50503461034f57602036600319011261034f576000805160206118f28339815191527fa63d2db62c0400ac404bb484526070e593b5b38753f8211077a0b30be6604b399161159361168c565b906000805160206118b28339815191528552846020528085203386526020526115c160ff82872054166117f4565b602480546001600160a01b039384166001600160a01b03198216811790925582516a757364744164647265737360a81b905291519290911682526020820152426040820152806060810161051e565b50503461034f578160031936011261034f5760255490516001600160a01b039091168152602090f35b849134610524576020366003190112610524573563ffffffff60e01b81168091036105245760209250637965db0b60e01b811490811561167b575b5015158152f35b6301ffc9a760e01b14905083611674565b600435906001600160a01b03821682036116a257565b600080fd5b602435906001600160a01b03821682036116a257565b80600052600060205260406000203360005260205260ff60406000205416156116e35750565b6044906040519063e2517d3f60e01b82523360048301526024820152fd5b9060009180835282602052604083209160018060a01b03169182845260205260ff6040842054161560001461177a57808352826020526040832082845260205260408320600160ff198254161790557f2f8788117e7eff1d82e926ec794901d17c78024a50270940304540a733656f0d339380a4600190565b505090565b9060009180835282602052604083209160018060a01b03169182845260205260ff60408420541660001461177a5780835282602052604083208284526020526040832060ff1981541690557ff6391f5c32d9c69d2a47ea670b442974b53935d1edc7fd64eb21e047a839171b339380a4600190565b156117fb57565b60405162461bcd60e51b815260206004820152601960248201527f436f6e6669673a2063616c6c6572206973206e6f742044414f000000000000006044820152606490fd5b60ff1680156118aa57600181146118a35760021461189d5760405162461bcd60e51b815260206004820152601960248201527f436f6e6669673a20696e76616c696420666565642074696572000000000000006044820152606490fd5b60105490565b50600f5490565b50600e549056fe3b5d4cc60d3ec3516ee8ae083bd60934f6eb2a6c54b1229985c41bfb092b260383ba59f61577249be5e1d5d48f41b4be728e3ddb0c1b04c988d7ce5205ebb8ec0b61bf3cf34b0f6c79c91c69ed943edc5b0ddf8bbeb6b3c98ceb3ece18a6e189a26469706673582212200f9986dd3b3b55cd3c1d66738a70537a671c36156ceb5c2302f18360a072b6f364736f6c634300081400332f8788117e7eff1d82e926ec794901d17c78024a50270940304540a733656f0d",
  "linkReferences": {},
  "deployedLinkReferences": {}
}