{
  "_format": "hh-sol-artifact-1",
  "contractName": "Config",
  "sourceName": "contracts/core/Config.sol",
  "abi": [
    {
      "inputs": [
        {
          "internalType": "address",
          "name": "_admin",
          "type": "address"
        }
      ],
      "stateMutability": "nonpayable",
      "type": "constructor"
    },
    {
      "inputs": [],
      "name": "AccessControlBadConfirmation",
      "type": "error"
    },
    {
      "inputs": [
        {
          "internalType": "address",
          "name": "account",
          "type": "address"
        },
        {
          "internalType": "bytes32",
          "name": "neededRole",
          "type": "bytes32"
        }
      ],
      "name": "AccessControlUnauthorizedAccount",
      "type": "error"
    },
    {
      "inputs": [],
      "name": "EnforcedPause",
      "type": "error"
    },
    {
      "inputs": [],
      "name": "ExpectedPause",
      "type": "error"
    },
    {
      "anonymous": false,
      "inputs": [
        {
          "indexed": true,
          "internalType": "string",
          "name": "paramName",
          "type": "string"
        },
        {
          "indexed": false,
          "internalType": "address",
          "name": "oldAddress",
          "type": "address"
        },
        {
          "indexed": false,
          "internalType": "address",
          "name": "newAddress",
          "type": "address"
        },
        {
          "indexed": false,
          "internalType": "uint256",
          "name": "timestamp",
          "type": "uint256"
        }
      ],
      "name": "AddressUpdated",
      "type": "event"
    },
    {
      "anonymous": false,
      "inputs": [
        {
          "indexed": true,
          "internalType": "string",
          "name": "paramName",
          "type": "string"
        },
        {
          "indexed": false,
          "internalType": "uint256",
          "name": "oldValue",
          "type": "uint256"
        },
        {
          "indexed": false,
          "internalType": "uint256",
          "name": "newValue",
          "type": "uint256"
        },
        {
          "indexed": false,
          "internalType": "uint256",
          "name": "timestamp",
          "type": "uint256"
        }
      ],
      "name": "ParameterUpdated",
      "type": "event"
    },
    {
      "anonymous": false,
      "inputs": [
        {
          "indexed": false,
          "internalType": "address",
          "name": "account",
          "type": "address"
        }
      ],
      "name": "Paused",
      "type": "event"
    },
    {
      "anonymous": false,
      "inputs": [
        {
          "indexed": true,
          "internalType": "bytes32",
          "name": "role",
          "type": "bytes32"
        },
        {
          "indexed": true,
          "internalType": "bytes32",
          "name": "previousAdminRole",
          "type": "bytes32"
        },
        {
          "indexed": true,
          "internalType": "bytes32",
          "name": "newAdminRole",
          "type": "bytes32"
        }
      ],
      "name": "RoleAdminChanged",
      "type": "event"
    },
    {
      "anonymous": false,
      "inputs": [
        {
          "indexed": true,
          "internalType": "bytes32",
          "name": "role",
          "type": "bytes32"
        },
        {
          "indexed": true,
          "internalType": "address",
          "name": "account",
          "type": "address"
        },
        {
          "indexed": true,
          "internalType": "address",
          "name": "sender",
          "type": "address"
        }
      ],
      "name": "RoleGranted",
      "type": "event"
    },
    {
      "anonymous": false,
      "inputs": [
        {
          "indexed": true,
          "internalType": "bytes32",
          "name": "role",
          "type": "bytes32"
        },
        {
          "indexed": true,
          "internalType": "address",
          "name": "account",
          "type": "address"
        },
        {
          "indexed": true,
          "internalType": "address",
          "name": "sender",
          "type": "address"
        }
      ],
      "name": "RoleRevoked",
      "type": "event"
    },
    {
      "anonymous": false,
      "inputs": [
        {
          "indexed": false,
          "internalType": "address",
          "name": "account",
          "type": "address"
        }
      ],
      "name": "Unpaused",
      "type": "event"
    },
    {
      "inputs": [],
      "name": "DAO_ROLE",
      "outputs": [
        {
          "internalType": "bytes32",
          "name": "",
          "type": "bytes32"
        }
      ],
      "stateMutability": "view",
      "type": "function"
    },
    {
      "inputs": [],
      "name": "DEFAULT_ADMIN_ROLE",
      "outputs": [
        {
          "internalType": "bytes32",
          "name": "",
          "type": "bytes32"
        }
      ],
      "stateMutability": "view",
      "type": "function"
    },
    {
      "inputs": [],
      "name": "GUARDIAN_ROLE",
      "outputs": [
        {
          "internalType": "bytes32",
          "name": "",
          "type": "bytes32"
        }
      ],
      "stateMutability": "view",
      "type": "function"
    },
    {
      "inputs": [],
      "name": "OPERATOR_ROLE",
      "outputs": [
        {
          "internalType": "bytes32",
          "name": "",
          "type": "bytes32"
        }
      ],
      "stateMutability": "view",
      "type": "function"
    },
    {
      "inputs": [],
      "name": "arbitrationFee",
      "outputs": [
        {
          "internalType": "uint256",
          "name": "",
          "type": "uint256"
        }
      ],
      "stateMutability": "view",
      "type": "function"
    },
    {
      "inputs": [],
      "name": "closingFeedDeadline",
      "outputs": [
        {
          "internalType": "uint256",
          "name": "",
          "type": "uint256"
        }
      ],
      "stateMutability": "view",
      "type": "function"
    },
    {
      "inputs": [],
      "name": "closingFeedPenaltyRate",
      "outputs": [
        {
          "internalType": "uint256",
          "name": "",
          "type": "uint256"
        }
      ],
      "stateMutability": "view",
      "type": "function"
    },
    {
      "inputs": [],
      "name": "creationFee",
      "outputs": [
        {
          "internalType": "uint256",
          "name": "",
          "type": "uint256"
        }
      ],
      "stateMutability": "view",
      "type": "function"
    },
    {
      "inputs": [],
      "name": "cryptoMarginCallDeadline",
      "outputs": [
        {
          "internalType": "uint256",
          "name": "",
          "type": "uint256"
        }
      ],
      "stateMutability": "view",
      "type": "function"
    },
    {
      "inputs": [],
      "name": "daoShare",
      "outputs": [
        {
          "internalType": "uint256",
          "name": "",
          "type": "uint256"
        }
      ],
      "stateMutability": "view",
      "type": "function"
    },
    {
      "inputs": [],
      "name": "defaultArbitrationWindow",
      "outputs": [
        {
          "internalType": "uint256",
          "name": "",
          "type": "uint256"
        }
      ],
      "stateMutability": "view",
      "type": "function"
    },
    {
      "inputs": [],
      "name": "defaultDailyLimitPercent",
      "outputs": [
        {
          "internalType": "uint256",
          "name": "",
          "type": "uint256"
        }
      ],
      "stateMutability": "view",
      "type": "function"
    },
    {
      "inputs": [],
      "name": "defaultMarginCallDeadline",
      "outputs": [
        {
          "internalType": "uint256",
          "name": "",
          "type": "uint256"
        }
      ],
      "stateMutability": "view",
      "type": "function"
    },
    {
      "inputs": [],
      "name": "feedFee_10_7",
      "outputs": [
        {
          "internalType": "uint256",
          "name": "",
          "type": "uint256"
        }
      ],
      "stateMutability": "view",
      "type": "function"
    },
    {
      "inputs": [],
      "name": "feedFee_5_3",
      "outputs": [
        {
          "internalType": "uint256",
          "name": "",
          "type": "uint256"
        }
      ],
      "stateMutability": "view",
      "type": "function"
    },
    {
      "inputs": [],
      "name": "feedFee_7_5",
      "outputs": [
        {
          "internalType": "uint256",
          "name": "",
          "type": "uint256"
        }
      ],
      "stateMutability": "view",
      "type": "function"
    },
    {
      "inputs": [],
      "name": "feedFeederShare",
      "outputs": [
        {
          "internalType": "uint256",
          "name": "",
          "type": "uint256"
        }
      ],
      "stateMutability": "view",
      "type": "function"
    },
    {
      "inputs": [],
      "name": "feedPlatformShare",
      "outputs": [
        {
          "internalType": "uint256",
          "name": "",
          "type": "uint256"
        }
      ],
      "stateMutability": "view",
      "type": "function"
    },
    {
      "inputs": [],
      "name": "feedProtocolAddress",
      "outputs": [
        {
          "internalType": "address",
          "name": "",
          "type": "address"
        }
      ],
      "stateMutability": "view",
      "type": "function"
    },
    {
      "inputs": [],
      "name": "foundationShare",
      "outputs": [
        {
          "internalType": "uint256",
          "name": "",
          "type": "uint256"
        }
      ],
      "stateMutability": "view",
      "type": "function"
    },
    {
      "inputs": [
        {
          "internalType": "bool",
          "name": "isSettlement",
          "type": "bool"
        }
      ],
      "name": "getArbitrationWindow",
      "outputs": [
        {
          "internalType": "uint256",
          "name": "",
          "type": "uint256"
        }
      ],
      "stateMutability": "view",
      "type": "function"
    },
    {
      "inputs": [
        {
          "internalType": "uint256",
          "name": "originalFee",
          "type": "uint256"
        }
      ],
      "name": "getDiscountedFee",
      "outputs": [
        {
          "internalType": "uint256",
          "name": "",
          "type": "uint256"
        }
      ],
      "stateMutability": "view",
      "type": "function"
    },
    {
      "inputs": [
        {
          "internalType": "uint8",
          "name": "tier",
          "type": "uint8"
        }
      ],
      "name": "getFeedFee",
      "outputs": [
        {
          "internalType": "uint256",
          "name": "",
          "type": "uint256"
        }
      ],
      "stateMutability": "view",
      "type": "function"
    },
    {
      "inputs": [
        {
          "internalType": "bool",
          "name": "isCrypto",
          "type": "bool"
        }
      ],
      "name": "getMarginCallDeadline",
      "outputs": [
        {
          "internalType": "uint256",
          "name": "",
          "type": "uint256"
        }
      ],
      "stateMutability": "view",
      "type": "function"
    },
    {
      "inputs": [
        {
          "internalType": "bytes32",
          "name": "role",
          "type": "bytes32"
        }
      ],
      "name": "getRoleAdmin",
      "outputs": [
        {
          "internalType": "bytes32",
          "name": "",
          "type": "bytes32"
        }
      ],
      "stateMutability": "view",
      "type": "function"
    },
    {
      "inputs": [
        {
          "internalType": "bytes32",
          "name": "role",
          "type": "bytes32"
        },
        {
          "internalType": "address",
          "name": "account",
          "type": "address"
        }
      ],
      "name": "grantRole",
      "outputs": [],
      "stateMutability": "nonpayable",
      "type": "function"
    },
    {
      "inputs": [],
      "name": "growthNodeShare",
      "outputs": [
        {
          "internalType": "uint256",
          "name": "",
          "type": "uint256"
        }
      ],
      "stateMutability": "view",
      "type": "function"
    },
    {
      "inputs": [
        {
          "internalType": "bytes32",
          "name": "role",
          "type": "bytes32"
        },
        {
          "internalType": "address",
          "name": "account",
          "type": "address"
        }
      ],
      "name": "hasRole",
      "outputs": [
        {
          "internalType": "bool",
          "name": "",
          "type": "bool"
        }
      ],
      "stateMutability": "view",
      "type": "function"
    },
    {
      "inputs": [],
      "name": "initialFeedDeadline",
      "outputs": [
        {
          "internalType": "uint256",
          "name": "",
          "type": "uint256"
        }
      ],
      "stateMutability": "view",
      "type": "function"
    },
    {
      "inputs": [],
      "name": "initialFeedPenaltyRate",
      "outputs": [
        {
          "internalType": "uint256",
          "name": "",
          "type": "uint256"
        }
      ],
      "stateMutability": "view",
      "type": "function"
    },
    {
      "inputs": [],
      "name": "lpPoolShare",
      "outputs": [
        {
          "internalType": "uint256",
          "name": "",
          "type": "uint256"
        }
      ],
      "stateMutability": "view",
      "type": "function"
    },
    {
      "inputs": [],
      "name": "maxConsecutiveDays",
      "outputs": [
        {
          "internalType": "uint256",
          "name": "",
          "type": "uint256"
        }
      ],
      "stateMutability": "view",
      "type": "function"
    },
    {
      "inputs": [],
      "name": "maxExerciseDelay",
      "outputs": [
        {
          "internalType": "uint256",
          "name": "",
          "type": "uint256"
        }
      ],
      "stateMutability": "view",
      "type": "function"
    },
    {
      "inputs": [],
      "name": "maxQuotesPerBuyerOrder",
      "outputs": [
        {
          "internalType": "uint256",
          "name": "",
          "type": "uint256"
        }
      ],
      "stateMutability": "view",
      "type": "function"
    },
    {
      "inputs": [],
      "name": "maxQuotesPerSellerOrder",
      "outputs": [
        {
          "internalType": "uint256",
          "name": "",
          "type": "uint256"
        }
      ],
      "stateMutability": "view",
      "type": "function"
    },
    {
      "inputs": [],
      "name": "minExerciseDelay",
      "outputs": [
        {
          "internalType": "uint256",
          "name": "",
          "type": "uint256"
        }
      ],
      "stateMutability": "view",
      "type": "function"
    },
    {
      "inputs": [],
      "name": "minFeederStake",
      "outputs": [
        {
          "internalType": "uint256",
          "name": "",
          "type": "uint256"
        }
      ],
      "stateMutability": "view",
      "type": "function"
    },
    {
      "inputs": [],
      "name": "minMarginRate",
      "outputs": [
        {
          "internalType": "uint256",
          "name": "",
          "type": "uint256"
        }
      ],
      "stateMutability": "view",
      "type": "function"
    },
    {
      "inputs": [],
      "name": "nodeRewardShare",
      "outputs": [
        {
          "internalType": "uint256",
          "name": "",
          "type": "uint256"
        }
      ],
      "stateMutability": "view",
      "type": "function"
    },
    {
      "inputs": [],
      "name": "nstDiscount",
      "outputs": [
        {
          "internalType": "uint256",
          "name": "",
          "type": "uint256"
        }
      ],
      "stateMutability": "view",
      "type": "function"
    },
    {
      "inputs": [],
      "name": "nstDiscountEnabled",
      "outputs": [
        {
          "internalType": "bool",
          "name": "",
          "type": "bool"
        }
      ],
      "stateMutability": "view",
      "type": "function"
    },
    {
      "inputs": [],
      "name": "nstDiscountRate",
      "outputs": [
        {
          "internalType": "uint256",
          "name": "",
          "type": "uint256"
        }
      ],
      "stateMutability": "view",
      "type": "function"
    },
    {
      "inputs": [],
      "name": "nstTokenAddress",
      "outputs": [
        {
          "internalType": "address",
          "name": "",
          "type": "address"
        }
      ],
      "stateMutability": "view",
      "type": "function"
    },
    {
      "inputs": [],
      "name": "optionsCoreAddress",
      "outputs": [
        {
          "internalType": "address",
          "name": "",
          "type": "address"
        }
      ],
      "stateMutability": "view",
      "type": "function"
    },
    {
      "inputs": [],
      "name": "pause",
      "outputs": [],
      "stateMutability": "nonpayable",
      "type": "function"
    },
    {
      "inputs": [],
      "name": "paused",
      "outputs": [
        {
          "internalType": "bool",
          "name": "",
          "type": "bool"
        }
      ],
      "stateMutability": "view",
      "type": "function"
    },
    {
      "inputs": [],
      "name": "pointsManagerAddress",
      "outputs": [
        {
          "internalType": "address",
          "name": "",
          "type": "address"
        }
      ],
      "stateMutability": "view",
      "type": "function"
    },
    {
      "inputs": [],
      "name": "pointsMultiplier",
      "outputs": [
        {
          "internalType": "uint256",
          "name": "",
          "type": "uint256"
        }
      ],
      "stateMutability": "view",
      "type": "function"
    },
    {
      "inputs": [],
      "name": "quoteValidityPeriod",
      "outputs": [
        {
          "internalType": "uint256",
          "name": "",
          "type": "uint256"
        }
      ],
      "stateMutability": "view",
      "type": "function"
    },
    {
      "inputs": [
        {
          "internalType": "bytes32",
          "name": "role",
          "type": "bytes32"
        },
        {
          "internalType": "address",
          "name": "callerConfirmation",
          "type": "address"
        }
      ],
      "name": "renounceRole",
      "outputs": [],
      "stateMutability": "nonpayable",
      "type": "function"
    },
    {
      "inputs": [
        {
          "internalType": "bytes32",
          "name": "role",
          "type": "bytes32"
        },
        {
          "internalType": "address",
          "name": "account",
          "type": "address"
        }
      ],
      "name": "revokeRole",
      "outputs": [],
      "stateMutability": "nonpayable",
      "type": "function"
    },
    {
      "inputs": [],
      "name": "rfqValidityPeriod",
      "outputs": [
        {
          "internalType": "uint256",
          "name": "",
          "type": "uint256"
        }
      ],
      "stateMutability": "view",
      "type": "function"
    },
    {
      "inputs": [],
      "name": "seatManagerAddress",
      "outputs": [
        {
          "internalType": "address",
          "name": "",
          "type": "address"
        }
      ],
      "stateMutability": "view",
      "type": "function"
    },
    {
      "inputs": [],
      "name": "seatSellerInitialMargin",
      "outputs": [
        {
          "internalType": "uint256",
          "name": "",
          "type": "uint256"
        }
      ],
      "stateMutability": "view",
      "type": "function"
    },
    {
      "inputs": [
        {
          "internalType": "uint256",
          "name": "_value",
          "type": "uint256"
        }
      ],
      "name": "setArbitrationFee",
      "outputs": [],
      "stateMutability": "nonpayable",
      "type": "function"
    },
    {
      "inputs": [
        {
          "internalType": "uint256",
          "name": "_value",
          "type": "uint256"
        }
      ],
      "name": "setCreationFee",
      "outputs": [],
      "stateMutability": "nonpayable",
      "type": "function"
    },
    {
      "inputs": [
        {
          "internalType": "address",
          "name": "_address",
          "type": "address"
        }
      ],
      "name": "setFeedProtocolAddress",
      "outputs": [],
      "stateMutability": "nonpayable",
      "type": "function"
    },
    {
      "inputs": [
        {
          "internalType": "uint256",
          "name": "_value",
          "type": "uint256"
        }
      ],
      "name": "setMinFeederStake",
      "outputs": [],
      "stateMutability": "nonpayable",
      "type": "function"
    },
    {
      "inputs": [
        {
          "internalType": "uint256",
          "name": "_value",
          "type": "uint256"
        }
      ],
      "name": "setMinMarginRate",
      "outputs": [],
      "stateMutability": "nonpayable",
      "type": "function"
    },
    {
      "inputs": [
        {
          "internalType": "bool",
          "name": "_enabled",
          "type": "bool"
        }
      ],
      "name": "setNstDiscountEnabled",
      "outputs": [],
      "stateMutability": "nonpayable",
      "type": "function"
    },
    {
      "inputs": [
        {
          "internalType": "uint256",
          "name": "_rate",
          "type": "uint256"
        }
      ],
      "name": "setNstDiscountRate",
      "outputs": [],
      "stateMutability": "nonpayable",
      "type": "function"
    },
    {
      "inputs": [
        {
          "internalType": "address",
          "name": "_address",
          "type": "address"
        }
      ],
      "name": "setOptionsCoreAddress",
      "outputs": [],
      "stateMutability": "nonpayable",
      "type": "function"
    },
    {
      "inputs": [
        {
          "internalType": "address",
          "name": "_address",
          "type": "address"
        }
      ],
      "name": "setPointsManagerAddress",
      "outputs": [],
      "stateMutability": "nonpayable",
      "type": "function"
    },
    {
      "inputs": [
        {
          "internalType": "uint256",
          "name": "_value",
          "type": "uint256"
        }
      ],
      "name": "setQuoteValidityPeriod",
      "outputs": [],
      "stateMutability": "nonpayable",
      "type": "function"
    },
    {
      "inputs": [
        {
          "internalType": "uint256",
          "name": "_value",
          "type": "uint256"
        }
      ],
      "name": "setRfqValidityPeriod",
      "outputs": [],
      "stateMutability": "nonpayable",
      "type": "function"
    },
    {
      "inputs": [
        {
          "internalType": "address",
          "name": "_address",
          "type": "address"
        }
      ],
      "name": "setSeatManagerAddress",
      "outputs": [],
      "stateMutability": "nonpayable",
      "type": "function"
    },
    {
      "inputs": [
        {
          "internalType": "uint256",
          "name": "_value",
          "type": "uint256"
        }
      ],
      "name": "setTradingFeeRate",
      "outputs": [],
      "stateMutability": "nonpayable",
      "type": "function"
    },
    {
      "inputs": [
        {
          "internalType": "address",
          "name": "_address",
          "type": "address"
        }
      ],
      "name": "setUsdtAddress",
      "outputs": [],
      "stateMutability": "nonpayable",
      "type": "function"
    },
    {
      "inputs": [
        {
          "internalType": "address",
          "name": "_address",
          "type": "address"
        }
      ],
      "name": "setVaultManagerAddress",
      "outputs": [],
      "stateMutability": "nonpayable",
      "type": "function"
    },
    {
      "inputs": [],
      "name": "settlementArbitrationWindow",
      "outputs": [
        {
          "internalType": "uint256",
          "name": "",
          "type": "uint256"
        }
      ],
      "stateMutability": "view",
      "type": "function"
    },
    {
      "inputs": [
        {
          "internalType": "bytes4",
          "name": "interfaceId",
          "type": "bytes4"
        }
      ],
      "name": "supportsInterface",
      "outputs": [
        {
          "internalType": "bool",
          "name": "",
          "type": "bool"
        }
      ],
      "stateMutability": "view",
      "type": "function"
    },
    {
      "inputs": [],
      "name": "teamFundShare",
      "outputs": [
        {
          "internalType": "uint256",
          "name": "",
          "type": "uint256"
        }
      ],
      "stateMutability": "view",
      "type": "function"
    },
    {
      "inputs": [],
      "name": "tokenBuybackShare",
      "outputs": [
        {
          "internalType": "uint256",
          "name": "",
          "type": "uint256"
        }
      ],
      "stateMutability": "view",
      "type": "function"
    },
    {
      "inputs": [],
      "name": "tradingFeeRate",
      "outputs": [
        {
          "internalType": "uint256",
          "name": "",
          "type": "uint256"
        }
      ],
      "stateMutability": "view",
      "type": "function"
    },
    {
      "inputs": [],
      "name": "unpause",
      "outputs": [],
      "stateMutability": "nonpayable",
      "type": "function"
    },
    {
      "inputs": [],
      "name": "usdcAddress",
      "outputs": [
        {
          "internalType": "address",
          "name": "",
          "type": "address"
        }
      ],
      "stateMutability": "view",
      "type": "function"
    },
    {
      "inputs": [],
      "name": "usdtAddress",
      "outputs": [
        {
          "internalType": "address",
          "name": "",
          "type": "address"
        }
      ],
      "stateMutability": "view",
      "type": "function"
    },
    {
      "inputs": [],
      "name": "vaultManagerAddress",
      "outputs": [
        {
          "internalType": "address",
          "name": "",
          "type": "address"
        }
      ],
      "stateMutability": "view",
      "type": "function"
    }
  ],
  "bytecode": "0x6080346200018957601f62001ebb38819003918201601f19168301916001600160401b038311848410176200018e578084926020946040528339810103126200018957516001600160a01b038116810362000189576200017890611c20806002556107086003556102588060045560055561a8c0908160065560075562015180600855600955670de0b6b3a7640000600a55600a600b556801a055690d9db80000600c556050600d556729a2241af62c0000600e55674563918244f40000600f55676f05b59d3b200000601055600a601155605a6012556103e880601355600060145568056bc75e2d6310000060155560056016556001601755600a601855601e6019556001601a556005601b556064601c556101f480601d5580601e55601f558060205580602155610bb86022556109c460235580602455602555611f40602655600160ff1960275416176027556200015981620001a4565b50620001658162000224565b506200017181620002c6565b5062000363565b50604051611a9a9081620004018239f35b600080fd5b634e487b7160e01b600052604160045260246000fd5b6001600160a01b031660008181527fad3228b676f7d3cd4284a5443f17f1962b36e491b30a40b2405849e597ba5fb5602052604081205490919060ff166200022057818052816020526040822081835260205260408220600160ff19825416179055339160008051602062001e9b8339815191528180a4600190565b5090565b6001600160a01b031660008181527fc39f11a9300b508470eaed31f5842ba08c93181bcbe6a7fe34039aa7f2b8074260205260408120549091907f3b5d4cc60d3ec3516ee8ae083bd60934f6eb2a6c54b1229985c41bfb092b26039060ff16620002c157808352826020526040832082845260205260408320600160ff1982541617905560008051602062001e9b833981519152339380a4600190565b505090565b6001600160a01b031660008181527fee57cd81e84075558e8fcc182a1f4393f91fc97f963a136e66b7f949a62f319f60205260408120549091907f97667070c54ef182b0f5858b034beac1b6f3089aa2d3188bb1e8929f4fa9b9299060ff16620002c157808352826020526040832082845260205260408320600160ff1982541617905560008051602062001e9b833981519152339380a4600190565b6001600160a01b031660008181527f8a40f0b47fdc2a0ce293b772acfc7508c8315a4d462786c1adc3a56f92ca2d0560205260408120549091907f55435dd261a4b9b3364963f7738a7a662ad9c84396d64be3365284bb7f0a50419060ff16620002c157808352826020526040832082845260205260408320600160ff1982541617905560008051602062001e9b833981519152339380a460019056fe608060408181526004918236101561001657600080fd5b600092833560e01c91826301ffc9a7146116fc5750816302d45457146116d35781630cb46b75146116045781630d42bada146115e55781630d8bb8ac146115bc5781631091f67c1461153a578163134f6646146114b9578163141b950b1461149a57816316b263c51461147b5781631a5632b91461145c5781631b30900b1461143d5781631bdd9bc6146114045781631cfa7ba8146113e5578163222b9c43146113c657816323068ac614611300578163248a9ca3146112d657816324ea54f4146112ad5781632bec66e51461128e5781632f2ff15d146112645781632f832f341461124557816336568abe146111ff57816339c02ea4146111385781633d8b8cb21461110f5781633f4ba83a1461108057816341e5ce8e1461105757816342df038c1461102e57816343b827ed14610fa957816348e23ea814610f8a5781634e57e10214610ec45781634f6bfad714610ea5578163520d682114610e7c578163570c2a1e14610db757816359c9c8c914610d985781635c975abb14610d745781635d8eb68714610d555781635ea7b4fc14610cd35781635f9aeb0614610cb457816362f5ad6314610c955781636e56a57c14610c3857816370504cf414610b5557816378dd8b0a14610b375781637d790ae114610b135781638456cb5914610a4357816386cdb33d14610a2457816388d19f1b14610a055781638f973f85146109e657816390ee6d0a1461092157816391d14854146108db5781639ab4a445146108ae578163a217fddf14610893578163a414e04414610874578163a6bfbe2314610855578163a98a92fa14610836578163ab1df29c146107fc578163b028fb76146107dd578163b661f733146107bd578163b7d862251461073e578163c766d9861461071f578163c7d7c5fd14610701578163cb10ed01146106e2578163cb3c7b2d146106c3578163cd96255e146106a4578163d547741f14610665578163dce0b4e414610646578163dfb0253614610627578163e01df1a814610608578163e5695991146105d3578163e6481bd814610551578163e855dd39146104c057508063e883082f146104a2578063e9c265181461047a578063eda999941461045c578063f1c511c414610434578063f1d814b914610416578063f2588aa9146103f8578063f5a0c480146103da578063f5b541a6146103a05763f72084b21461037f57600080fd5b3461039c578160031936011261039c576020906023549051908152f35b5080fd5b503461039c578160031936011261039c57602090517f97667070c54ef182b0f5858b034beac1b6f3089aa2d3188bb1e8929f4fa9b9298152f35b503461039c578160031936011261039c576020906021549051908152f35b503461039c578160031936011261039c576020906025549051908152f35b503461039c578160031936011261039c57602090601b549051908152f35b503461039c578160031936011261039c57602d5490516001600160a01b039091168152602090f35b503461039c578160031936011261039c576020906019549051908152f35b503461039c578160031936011261039c57602090516000805160206119e58339815191528152f35b503461039c578160031936011261039c57602090600e549051908152f35b90503461054d57602036600319011261054d57600080516020611a0583398151915290356000805160206119e583398151915284528360205282842033855260205261051160ff84862054166118b7565b600354908060035561054760138551721c5d5bdd1955985b1a591a5d1e54195c9a5bd9606a1b81522094519283924291846118ff565b0390a280f35b8280fd5b90503461054d57602036600319011261054d57600080516020611a0583398151915290356000805160206119e58339815191528452836020528284203385526020526105a260ff84862054166118b7565b6015549080601555610547600e85516d6d696e4665656465725374616b6560901b81522094519283924291846118ff565b90503461054d57602036600319011261054d57359160ff8316830361060557506105fe602092611937565b9051908152f35b80fd5b50503461039c578160031936011261039c57602090600b549051908152f35b50503461039c578160031936011261039c576020906005549051908152f35b50503461039c578160031936011261039c57602090600a549051908152f35b9190503461054d578060031936011261054d576106a0913561069b600161068a61176a565b938387528660205286200154611780565b611842565b5080f35b50503461039c578160031936011261039c576020906012549051908152f35b50503461039c578160031936011261039c576020906014549051908152f35b50503461039c578160031936011261039c576020906026549051908152f35b90503461054d578260031936011261054d5760209250549051908152f35b50503461039c578160031936011261039c576020906015549051908152f35b90503461054d57602036600319011261054d57600080516020611a0583398151915290356000805160206119e583398151915284528360205282842033855260205261078f60ff84862054166118b7565b600a549080600a55610547600b85516a6372656174696f6e46656560a81b81522094519283924291846118ff565b82843461060557602036600319011261060557506105fe602092356119a4565b50503461039c578160031936011261039c576020906006549051908152f35b90503461054d57602036600319011261054d5735801515810361054d57602092501561082d57600854905b51908152f35b60095490610827565b50503461039c578160031936011261039c576020906009549051908152f35b50503461039c578160031936011261039c57602090601a549051908152f35b50503461039c578160031936011261039c576020906018549051908152f35b50503461039c578160031936011261039c5751908152602090f35b50503461039c578160031936011261039c57602754905160089190911c6001600160a01b03168152602090f35b90503461054d578160031936011261054d578160209360ff926108fc61176a565b903582528186528282206001600160a01b039091168252855220549151911615158152f35b50503461039c57602036600319011261039c57600080516020611a4583398151915261094b61174f565b6000805160206119e583398151915284528360205282842033855260205261097860ff84862054166118b7565b602b80546001600160a01b038381166001600160a01b03198316179092558451716f7074696f6e73436f72654164647265737360701b905293517f4a4e69de8ded7dceaef818da27e4654e0073cb97b5e6455c1813e441d801a4019490928392610547924292911684611915565b50503461039c578160031936011261039c576020906022549051908152f35b50503461039c578160031936011261039c576020906024549051908152f35b50503461039c578160031936011261039c57602090601c549051908152f35b90503461054d578260031936011261054d57600080516020611a2583398151915283528260205281832033845260205260ff828420541615610ad1576001549060ff8216610ac357507f62e78cea01bee320cd4e420270b5ea74000d11b0c9f74754ebdbfc544b05a25891600160209260ff19161760015551338152a180f35b825163d93c066560e01b8152fd5b6020606492519162461bcd60e51b8352820152601e60248201527f436f6e6669673a2063616c6c6572206973206e6f7420477561726469616e00006044820152fd5b50503461039c578160031936011261039c5760209060ff6027541690519015158152f35b50503461039c578160031936011261039c5760209081549051908152f35b90503461054d57602036600319011261054d578035906000805160206119e5833981519152845283602052828420338552602052610b9860ff84862054166118b7565b81151580610c2c575b15610be95750600080516020611a05833981519152906026549080602655610547600f85516e6e7374446973636f756e745261746560881b81522094519283924291846118ff565b606490602084519162461bcd60e51b8352820152601d60248201527f436f6e6669673a20696e76616c696420646973636f756e7420726174650000006044820152fd5b50612710821115610ba1565b90503461054d57602036600319011261054d57359081151580920361054d5760ff610c84916000805160206119e5833981519152855284602052808520338652602052842054166118b7565b60ff80196027541691161760275580f35b50503461039c578160031936011261039c57602090601f549051908152f35b50503461039c578160031936011261039c57602090600f549051908152f35b90503461054d57602036600319011261054d57600080516020611a0583398151915290356000805160206119e5833981519152845283602052828420338552602052610d2460ff84862054166118b7565b600c549080600c55610547600e85516d6172626974726174696f6e46656560901b81522094519283924291846118ff565b50503461039c578160031936011261039c576020906013549051908152f35b50503461039c578160031936011261039c5760209060ff6001541690519015158152f35b50503461039c578160031936011261039c576020906007549051908152f35b50503461039c57602036600319011261039c57600080516020611a45833981519152610de161174f565b6000805160206119e5833981519152845283602052828420338552602052610e0e60ff84862054166118b7565b602d80546001600160a01b038381166001600160a01b0319831617909255845171736561744d616e616765724164647265737360701b905293517f5e28eb369d7fdbb5dfbb05d4358500df3bf5f778c9f2c859b1d7277f5ae4ce3f9490928392610547924292911684611915565b50503461039c578160031936011261039c57602c5490516001600160a01b039091168152602090f35b50503461039c578160031936011261039c576020906002549051908152f35b50503461039c57602036600319011261039c57600080516020611a45833981519152610eee61174f565b6000805160206119e5833981519152845283602052828420338552602052610f1b60ff84862054166118b7565b602c80546001600160a01b038381166001600160a01b03198316179092558451726665656450726f746f636f6c4164647265737360681b905293517f2f73b590faaddb044f9851ed70b38c69e7cc0d4659bf1fe1082b600d997c18de9490928392610547924292911684611915565b50503461039c578160031936011261039c576020906008549051908152f35b90503461054d57602036600319011261054d57600080516020611a0583398151915290356000805160206119e5833981519152845283602052828420338552602052610ffa60ff84862054166118b7565b600254908060025561054760118551701c999c55985b1a591a5d1e54195c9a5bd9607a1b81522094519283924291846118ff565b50503461039c578160031936011261039c5760295490516001600160a01b039091168152602090f35b50503461039c578160031936011261039c57602b5490516001600160a01b039091168152602090f35b90503461054d578260031936011261054d576000805160206119e58339815191528352826020528183203384526020526110bf60ff83852054166118b7565b6001549060ff821615611101575060ff1916600155513381527f5db9ee0a495bf2e6ff9c91a7834c1ba4fdd244a5e8aa4e537bd38aeae4b073aa90602090a180f35b8251638dfc202b60e01b8152fd5b50503461039c578160031936011261039c57602a5490516001600160a01b039091168152602090f35b50503461039c57602036600319011261039c57600080516020611a4583398151915261116261174f565b6000805160206119e583398151915284528360205282842033855260205261118f60ff84862054166118b7565b602e80546001600160a01b038381166001600160a01b0319831617909255845173706f696e74734d616e616765724164647265737360601b905293517f2e9d3aa19d9dbd777c6be6342075ac61ef674d8b86d37b75ea0cb8d1a845c51b9490928392610547924292911684611915565b83833461039c578060031936011261039c5761121961176a565b90336001600160a01b0383160361123657506106a0919235611842565b5163334bd91960e11b81528390fd5b50503461039c578160031936011261039c576020906016549051908152f35b9190503461054d578060031936011261054d576106a09135611289600161068a61176a565b6117c4565b50503461039c578160031936011261039c57602090601d549051908152f35b50503461039c578160031936011261039c5760209051600080516020611a258339815191528152f35b90503461054d57602036600319011261054d57816020936001923581528085522001549051908152f35b50503461039c57602036600319011261039c57600080516020611a4583398151915261132a61174f565b6000805160206119e583398151915284528360205282842033855260205261135760ff84862054166118b7565b602a80546001600160a01b038381166001600160a01b03198316179092558451727661756c744d616e616765724164647265737360681b905293517f2fe00a4b9b1823087c1aaa9e681d82d7f691aa0160a8bec45c8e55052e1435349490928392610547924292911684611915565b50503461039c578160031936011261039c576020906017549051908152f35b50503461039c578160031936011261039c57602090600c549051908152f35b90503461054d57602036600319011261054d5735801515810361054d576020925015611434576007549051908152f35b60065490610827565b50503461039c578160031936011261039c576020906010549051908152f35b50503461039c578160031936011261039c576020906011549051908152f35b50503461039c578160031936011261039c57602090600d549051908152f35b50503461039c578160031936011261039c57602090601e549051908152f35b90503461054d57602036600319011261054d57600080516020611a0583398151915290356000805160206119e583398151915284528360205282842033855260205261150a60ff84862054166118b7565b6013549080601355610547600d85516c6d696e4d617267696e5261746560981b81522094519283924291846118ff565b90503461054d57602036600319011261054d57600080516020611a0583398151915290356000805160206119e583398151915284528360205282842033855260205261158b60ff84862054166118b7565b600b549080600b55610547600e85516d74726164696e674665655261746560901b81522094519283924291846118ff565b50503461039c578160031936011261039c57602e5490516001600160a01b039091168152602090f35b50503461039c578160031936011261039c576020906003549051908152f35b50503461039c57602036600319011261039c57600080516020611a4583398151915261162e61174f565b6000805160206119e583398151915284528360205282842033855260205261165b60ff84862054166118b7565b60278054610100600160a81b03198116600884811b610100600160a81b03169190911790925584516a757364744164647265737360a81b905293517fa63d2db62c0400ac404bb484526070e593b5b38753f8211077a0b30be6604b399490928392610547924292911c6001600160a01b031684611915565b50503461039c578160031936011261039c5760285490516001600160a01b039091168152602090f35b84913461054d57602036600319011261054d573563ffffffff60e01b811680910361054d5760209250637965db0b60e01b811490811561173e575b5015158152f35b6301ffc9a760e01b14905083611737565b600435906001600160a01b038216820361176557565b600080fd5b602435906001600160a01b038216820361176557565b80600052600060205260406000203360005260205260ff60406000205416156117a65750565b6044906040519063e2517d3f60e01b82523360048301526024820152fd5b9060009180835282602052604083209160018060a01b03169182845260205260ff6040842054161560001461183d57808352826020526040832082845260205260408320600160ff198254161790557f2f8788117e7eff1d82e926ec794901d17c78024a50270940304540a733656f0d339380a4600190565b505090565b9060009180835282602052604083209160018060a01b03169182845260205260ff60408420541660001461183d5780835282602052604083208284526020526040832060ff1981541690557ff6391f5c32d9c69d2a47ea670b442974b53935d1edc7fd64eb21e047a839171b339380a4600190565b156118be57565b60405162461bcd60e51b8152602060048201526019602482015278436f6e6669673a2063616c6c6572206973206e6f742044414f60381b6044820152606490fd5b6040919493926060820195825260208201520152565b6001600160a01b03918216815291166020820152604081019190915260600190565b60ff16801561199d5760018114611996576002146119905760405162461bcd60e51b815260206004820152601960248201527821b7b73334b39d1034b73b30b634b2103332b2b2103a34b2b960391b6044820152606490fd5b60105490565b50600f5490565b50600e5490565b60ff60275416156119e157602654908181029181830414901517156119cb57612710900490565b634e487b7160e01b600052601160045260246000fd5b9056fe3b5d4cc60d3ec3516ee8ae083bd60934f6eb2a6c54b1229985c41bfb092b260383ba59f61577249be5e1d5d48f41b4be728e3ddb0c1b04c988d7ce5205ebb8ec55435dd261a4b9b3364963f7738a7a662ad9c84396d64be3365284bb7f0a50410b61bf3cf34b0f6c79c91c69ed943edc5b0ddf8bbeb6b3c98ceb3ece18a6e189a264697066735822122005f7ddc4c4823247b41a3800907d4fa3e7746bbbce21bdcfa627c33a86b7d04764736f6c634300081400332f8788117e7eff1d82e926ec794901d17c78024a50270940304540a733656f0d",
  "linkReferences": {},
  "deployedLinkReferences": {}
}