{
  "_format": "hh-sol-artifact-1",
  "contractName": "PointsManager",
  "sourceName": "contracts/points/PointsManager.sol",
  "abi": [
    {
      "inputs": [
        {
          "internalType": "address",
          "name": "_config",
          "type": "address"
        },
        {
          "internalType": "address",
          "name": "_nstToken",
          "type": "address"
        },
        {
          "internalType": "address",
          "name": "_admin",
          "type": "address"
        }
      ],
      "stateMutability": "nonpayable",
      "type": "constructor"
    },
    {
      "inputs": [],
      "name": "AccessControlBadConfirmation",
      "type": "error"
    },
    {
      "inputs": [
        {
          "internalType": "address",
          "name": "account",
          "type": "address"
        },
        {
          "internalType": "bytes32",
          "name": "neededRole",
          "type": "bytes32"
        }
      ],
      "name": "AccessControlUnauthorizedAccount",
      "type": "error"
    },
    {
      "inputs": [],
      "name": "EnforcedPause",
      "type": "error"
    },
    {
      "inputs": [],
      "name": "ExpectedPause",
      "type": "error"
    },
    {
      "inputs": [],
      "name": "ReentrancyGuardReentrantCall",
      "type": "error"
    },
    {
      "inputs": [
        {
          "internalType": "address",
          "name": "token",
          "type": "address"
        }
      ],
      "name": "SafeERC20FailedOperation",
      "type": "error"
    },
    {
      "anonymous": false,
      "inputs": [
        {
          "indexed": true,
          "internalType": "address",
          "name": "user",
          "type": "address"
        },
        {
          "indexed": true,
          "internalType": "uint256",
          "name": "airdropId",
          "type": "uint256"
        },
        {
          "indexed": false,
          "internalType": "uint256",
          "name": "pointsUsed",
          "type": "uint256"
        },
        {
          "indexed": false,
          "internalType": "uint256",
          "name": "tokenAmount",
          "type": "uint256"
        },
        {
          "indexed": false,
          "internalType": "uint256",
          "name": "timestamp",
          "type": "uint256"
        }
      ],
      "name": "AirdropClaimed",
      "type": "event"
    },
    {
      "anonymous": false,
      "inputs": [
        {
          "indexed": true,
          "internalType": "uint256",
          "name": "airdropId",
          "type": "uint256"
        },
        {
          "indexed": false,
          "internalType": "uint256",
          "name": "totalPool",
          "type": "uint256"
        },
        {
          "indexed": false,
          "internalType": "uint256",
          "name": "startTime",
          "type": "uint256"
        },
        {
          "indexed": false,
          "internalType": "uint256",
          "name": "endTime",
          "type": "uint256"
        },
        {
          "indexed": false,
          "internalType": "uint256",
          "name": "timestamp",
          "type": "uint256"
        }
      ],
      "name": "AirdropCreated",
      "type": "event"
    },
    {
      "anonymous": false,
      "inputs": [
        {
          "indexed": true,
          "internalType": "uint256",
          "name": "airdropId",
          "type": "uint256"
        },
        {
          "indexed": false,
          "internalType": "uint256",
          "name": "totalClaimed",
          "type": "uint256"
        },
        {
          "indexed": false,
          "internalType": "uint256",
          "name": "timestamp",
          "type": "uint256"
        }
      ],
      "name": "AirdropEnded",
      "type": "event"
    },
    {
      "anonymous": false,
      "inputs": [
        {
          "indexed": false,
          "internalType": "address",
          "name": "account",
          "type": "address"
        }
      ],
      "name": "Paused",
      "type": "event"
    },
    {
      "anonymous": false,
      "inputs": [
        {
          "indexed": true,
          "internalType": "address",
          "name": "user",
          "type": "address"
        },
        {
          "indexed": false,
          "internalType": "uint256",
          "name": "amount",
          "type": "uint256"
        },
        {
          "indexed": false,
          "internalType": "string",
          "name": "feeType",
          "type": "string"
        },
        {
          "indexed": false,
          "internalType": "uint256",
          "name": "timestamp",
          "type": "uint256"
        }
      ],
      "name": "PointsAccumulated",
      "type": "event"
    },
    {
      "anonymous": false,
      "inputs": [
        {
          "indexed": true,
          "internalType": "bytes32",
          "name": "role",
          "type": "bytes32"
        },
        {
          "indexed": true,
          "internalType": "bytes32",
          "name": "previousAdminRole",
          "type": "bytes32"
        },
        {
          "indexed": true,
          "internalType": "bytes32",
          "name": "newAdminRole",
          "type": "bytes32"
        }
      ],
      "name": "RoleAdminChanged",
      "type": "event"
    },
    {
      "anonymous": false,
      "inputs": [
        {
          "indexed": true,
          "internalType": "bytes32",
          "name": "role",
          "type": "bytes32"
        },
        {
          "indexed": true,
          "internalType": "address",
          "name": "account",
          "type": "address"
        },
        {
          "indexed": true,
          "internalType": "address",
          "name": "sender",
          "type": "address"
        }
      ],
      "name": "RoleGranted",
      "type": "event"
    },
    {
      "anonymous": false,
      "inputs": [
        {
          "indexed": true,
          "internalType": "bytes32",
          "name": "role",
          "type": "bytes32"
        },
        {
          "indexed": true,
          "internalType": "address",
          "name": "account",
          "type": "address"
        },
        {
          "indexed": true,
          "internalType": "address",
          "name": "sender",
          "type": "address"
        }
      ],
      "name": "RoleRevoked",
      "type": "event"
    },
    {
      "anonymous": false,
      "inputs": [
        {
          "indexed": false,
          "internalType": "address",
          "name": "account",
          "type": "address"
        }
      ],
      "name": "Unpaused",
      "type": "event"
    },
    {
      "inputs": [],
      "name": "AIRDROP_ADMIN_ROLE",
      "outputs": [
        {
          "internalType": "bytes32",
          "name": "",
          "type": "bytes32"
        }
      ],
      "stateMutability": "view",
      "type": "function"
    },
    {
      "inputs": [],
      "name": "DEFAULT_ADMIN_ROLE",
      "outputs": [
        {
          "internalType": "bytes32",
          "name": "",
          "type": "bytes32"
        }
      ],
      "stateMutability": "view",
      "type": "function"
    },
    {
      "inputs": [],
      "name": "POINTS_OPERATOR_ROLE",
      "outputs": [
        {
          "internalType": "bytes32",
          "name": "",
          "type": "bytes32"
        }
      ],
      "stateMutability": "view",
      "type": "function"
    },
    {
      "inputs": [],
      "name": "airdropCounter",
      "outputs": [
        {
          "internalType": "uint256",
          "name": "",
          "type": "uint256"
        }
      ],
      "stateMutability": "view",
      "type": "function"
    },
    {
      "inputs": [],
      "name": "claimAirdrop",
      "outputs": [],
      "stateMutability": "nonpayable",
      "type": "function"
    },
    {
      "inputs": [
        {
          "internalType": "uint256",
          "name": "",
          "type": "uint256"
        },
        {
          "internalType": "address",
          "name": "",
          "type": "address"
        }
      ],
      "name": "claimedAmount",
      "outputs": [
        {
          "internalType": "uint256",
          "name": "",
          "type": "uint256"
        }
      ],
      "stateMutability": "view",
      "type": "function"
    },
    {
      "inputs": [],
      "name": "config",
      "outputs": [
        {
          "internalType": "contract Config",
          "name": "",
          "type": "address"
        }
      ],
      "stateMutability": "view",
      "type": "function"
    },
    {
      "inputs": [
        {
          "internalType": "uint256",
          "name": "totalPool",
          "type": "uint256"
        },
        {
          "internalType": "uint256",
          "name": "startTime",
          "type": "uint256"
        },
        {
          "internalType": "uint256",
          "name": "endTime",
          "type": "uint256"
        }
      ],
      "name": "createAirdrop",
      "outputs": [],
      "stateMutability": "nonpayable",
      "type": "function"
    },
    {
      "inputs": [],
      "name": "currentAirdrop",
      "outputs": [
        {
          "internalType": "uint256",
          "name": "totalPool",
          "type": "uint256"
        },
        {
          "internalType": "uint256",
          "name": "startTime",
          "type": "uint256"
        },
        {
          "internalType": "uint256",
          "name": "endTime",
          "type": "uint256"
        },
        {
          "internalType": "uint256",
          "name": "totalPointsSnapshot",
          "type": "uint256"
        },
        {
          "internalType": "bool",
          "name": "isActive",
          "type": "bool"
        },
        {
          "internalType": "uint256",
          "name": "airdropId",
          "type": "uint256"
        }
      ],
      "stateMutability": "view",
      "type": "function"
    },
    {
      "inputs": [],
      "name": "endAirdrop",
      "outputs": [],
      "stateMutability": "nonpayable",
      "type": "function"
    },
    {
      "inputs": [
        {
          "internalType": "address",
          "name": "user",
          "type": "address"
        }
      ],
      "name": "getClaimableAirdrop",
      "outputs": [
        {
          "internalType": "uint256",
          "name": "",
          "type": "uint256"
        }
      ],
      "stateMutability": "view",
      "type": "function"
    },
    {
      "inputs": [],
      "name": "getCurrentAirdrop",
      "outputs": [
        {
          "components": [
            {
              "internalType": "uint256",
              "name": "totalPool",
              "type": "uint256"
            },
            {
              "internalType": "uint256",
              "name": "startTime",
              "type": "uint256"
            },
            {
              "internalType": "uint256",
              "name": "endTime",
              "type": "uint256"
            },
            {
              "internalType": "uint256",
              "name": "totalPointsSnapshot",
              "type": "uint256"
            },
            {
              "internalType": "bool",
              "name": "isActive",
              "type": "bool"
            },
            {
              "internalType": "uint256",
              "name": "airdropId",
              "type": "uint256"
            }
          ],
          "internalType": "struct PointsManager.AirdropConfig",
          "name": "",
          "type": "tuple"
        }
      ],
      "stateMutability": "view",
      "type": "function"
    },
    {
      "inputs": [
        {
          "internalType": "address",
          "name": "user",
          "type": "address"
        }
      ],
      "name": "getPoints",
      "outputs": [
        {
          "internalType": "uint256",
          "name": "",
          "type": "uint256"
        }
      ],
      "stateMutability": "view",
      "type": "function"
    },
    {
      "inputs": [],
      "name": "getPointsUserCount",
      "outputs": [
        {
          "internalType": "uint256",
          "name": "",
          "type": "uint256"
        }
      ],
      "stateMutability": "view",
      "type": "function"
    },
    {
      "inputs": [
        {
          "internalType": "bytes32",
          "name": "role",
          "type": "bytes32"
        }
      ],
      "name": "getRoleAdmin",
      "outputs": [
        {
          "internalType": "bytes32",
          "name": "",
          "type": "bytes32"
        }
      ],
      "stateMutability": "view",
      "type": "function"
    },
    {
      "inputs": [
        {
          "internalType": "address",
          "name": "user",
          "type": "address"
        }
      ],
      "name": "getUserPoints",
      "outputs": [
        {
          "components": [
            {
              "internalType": "uint256",
              "name": "totalPoints",
              "type": "uint256"
            },
            {
              "internalType": "uint256",
              "name": "claimedPoints",
              "type": "uint256"
            },
            {
              "internalType": "uint256",
              "name": "availablePoints",
              "type": "uint256"
            },
            {
              "internalType": "uint256",
              "name": "lastUpdateTime",
              "type": "uint256"
            }
          ],
          "internalType": "struct UserPoints",
          "name": "",
          "type": "tuple"
        }
      ],
      "stateMutability": "view",
      "type": "function"
    },
    {
      "inputs": [
        {
          "internalType": "address",
          "name": "operator",
          "type": "address"
        }
      ],
      "name": "grantOperatorRole",
      "outputs": [],
      "stateMutability": "nonpayable",
      "type": "function"
    },
    {
      "inputs": [
        {
          "internalType": "bytes32",
          "name": "role",
          "type": "bytes32"
        },
        {
          "internalType": "address",
          "name": "account",
          "type": "address"
        }
      ],
      "name": "grantRole",
      "outputs": [],
      "stateMutability": "nonpayable",
      "type": "function"
    },
    {
      "inputs": [
        {
          "internalType": "uint256",
          "name": "",
          "type": "uint256"
        },
        {
          "internalType": "address",
          "name": "",
          "type": "address"
        }
      ],
      "name": "hasClaimed",
      "outputs": [
        {
          "internalType": "bool",
          "name": "",
          "type": "bool"
        }
      ],
      "stateMutability": "view",
      "type": "function"
    },
    {
      "inputs": [
        {
          "internalType": "uint256",
          "name": "airdropId",
          "type": "uint256"
        },
        {
          "internalType": "address",
          "name": "user",
          "type": "address"
        }
      ],
      "name": "hasClaimedAirdrop",
      "outputs": [
        {
          "internalType": "bool",
          "name": "",
          "type": "bool"
        }
      ],
      "stateMutability": "view",
      "type": "function"
    },
    {
      "inputs": [
        {
          "internalType": "bytes32",
          "name": "role",
          "type": "bytes32"
        },
        {
          "internalType": "address",
          "name": "account",
          "type": "address"
        }
      ],
      "name": "hasRole",
      "outputs": [
        {
          "internalType": "bool",
          "name": "",
          "type": "bool"
        }
      ],
      "stateMutability": "view",
      "type": "function"
    },
    {
      "inputs": [],
      "name": "nstToken",
      "outputs": [
        {
          "internalType": "contract IERC20",
          "name": "",
          "type": "address"
        }
      ],
      "stateMutability": "view",
      "type": "function"
    },
    {
      "inputs": [],
      "name": "pause",
      "outputs": [],
      "stateMutability": "nonpayable",
      "type": "function"
    },
    {
      "inputs": [],
      "name": "paused",
      "outputs": [
        {
          "internalType": "bool",
          "name": "",
          "type": "bool"
        }
      ],
      "stateMutability": "view",
      "type": "function"
    },
    {
      "inputs": [
        {
          "internalType": "uint256",
          "name": "",
          "type": "uint256"
        }
      ],
      "name": "pointsUsers",
      "outputs": [
        {
          "internalType": "address",
          "name": "",
          "type": "address"
        }
      ],
      "stateMutability": "view",
      "type": "function"
    },
    {
      "inputs": [
        {
          "internalType": "address",
          "name": "user",
          "type": "address"
        },
        {
          "internalType": "uint256",
          "name": "feeAmount",
          "type": "uint256"
        },
        {
          "internalType": "string",
          "name": "feeType",
          "type": "string"
        }
      ],
      "name": "recordPoints",
      "outputs": [],
      "stateMutability": "nonpayable",
      "type": "function"
    },
    {
      "inputs": [
        {
          "internalType": "bytes32",
          "name": "role",
          "type": "bytes32"
        },
        {
          "internalType": "address",
          "name": "callerConfirmation",
          "type": "address"
        }
      ],
      "name": "renounceRole",
      "outputs": [],
      "stateMutability": "nonpayable",
      "type": "function"
    },
    {
      "inputs": [
        {
          "internalType": "bytes32",
          "name": "role",
          "type": "bytes32"
        },
        {
          "internalType": "address",
          "name": "account",
          "type": "address"
        }
      ],
      "name": "revokeRole",
      "outputs": [],
      "stateMutability": "nonpayable",
      "type": "function"
    },
    {
      "inputs": [
        {
          "internalType": "address",
          "name": "_config",
          "type": "address"
        }
      ],
      "name": "setConfig",
      "outputs": [],
      "stateMutability": "nonpayable",
      "type": "function"
    },
    {
      "inputs": [
        {
          "internalType": "address",
          "name": "_nstToken",
          "type": "address"
        }
      ],
      "name": "setNSTToken",
      "outputs": [],
      "stateMutability": "nonpayable",
      "type": "function"
    },
    {
      "inputs": [
        {
          "internalType": "bytes4",
          "name": "interfaceId",
          "type": "bytes4"
        }
      ],
      "name": "supportsInterface",
      "outputs": [
        {
          "internalType": "bool",
          "name": "",
          "type": "bool"
        }
      ],
      "stateMutability": "view",
      "type": "function"
    },
    {
      "inputs": [],
      "name": "totalClaimedPoints",
      "outputs": [
        {
          "internalType": "uint256",
          "name": "",
          "type": "uint256"
        }
      ],
      "stateMutability": "view",
      "type": "function"
    },
    {
      "inputs": [],
      "name": "totalPoints",
      "outputs": [
        {
          "internalType": "uint256",
          "name": "",
          "type": "uint256"
        }
      ],
      "stateMutability": "view",
      "type": "function"
    },
    {
      "inputs": [],
      "name": "unpause",
      "outputs": [],
      "stateMutability": "nonpayable",
      "type": "function"
    },
    {
      "inputs": [
        {
          "internalType": "address",
          "name": "",
          "type": "address"
        }
      ],
      "name": "userPoints",
      "outputs": [
        {
          "internalType": "uint256",
          "name": "totalPoints",
          "type": "uint256"
        },
        {
          "internalType": "uint256",
          "name": "claimedPoints",
          "type": "uint256"
        },
        {
          "internalType": "uint256",
          "name": "availablePoints",
          "type": "uint256"
        },
        {
          "internalType": "uint256",
          "name": "lastUpdateTime",
          "type": "uint256"
        }
      ],
      "stateMutability": "view",
      "type": "function"
    },
    {
      "inputs": [
        {
          "internalType": "address",
          "name": "to",
          "type": "address"
        }
      ],
      "name": "withdrawRemainingTokens",
      "outputs": [],
      "stateMutability": "nonpayable",
      "type": "function"
    }
  ],
  "bytecode": "0x608034620000e857601f62001d1238819003918201601f19168301916001600160401b03831184841017620000ed57808492606094604052833981010312620000e8578062000052620000d79262000103565b906200006f6040620000676020840162000103565b920162000103565b6001805560028054610100600160a81b03191660089490941b610100600160a81b031693909317909255600380546001600160a01b0319166001600160a01b0392909216919091179055620000c48162000118565b50620000d08162000198565b506200023a565b50604051611a1a9081620002d88239f35b600080fd5b634e487b7160e01b600052604160045260246000fd5b51906001600160a01b0382168203620000e857565b6001600160a01b031660008181527fad3228b676f7d3cd4284a5443f17f1962b36e491b30a40b2405849e597ba5fb5602052604081205490919060ff166200019457818052816020526040822081835260205260408220600160ff19825416179055339160008051602062001cf28339815191528180a4600190565b5090565b6001600160a01b031660008181527f61e7fc3d84368231012c67d50e6fa6aa27aa16adea636a17e75ea902e878b6b460205260408120549091907f5a3ad48e161847a6bfadd0936811fc7e13936213266e733d1aa3e5c9572e4d2b9060ff166200023557808352826020526040832082845260205260408320600160ff1982541617905560008051602062001cf2833981519152339380a4600190565b505090565b6001600160a01b031660008181527f242e8ec18f19b1913ca4b7a59189f4edfdb2502c2961231a9893004508e31ba460205260408120549091907f786fcfa0099ab9aba15d4b2ccc7ffa9994e7c522c9b340b95e584749e47fcfb99060ff166200023557808352826020526040832082845260205260408320600160ff1982541617905560008051602062001cf2833981519152339380a460019056fe6080604081815260048036101561001557600080fd5b600092833560e01c90816301ffc9a7146114315750806303f14e96146113e2578063042179b71461108d578063077145c5146110485780630f855fd61461100d57806320e3dbd414610fc3578063248a9ca314610f9a57806327ac0c5814610f4a5780632f2ff15d14610f21578063349cdcc214610ef457806336568abe14610ead578063381e4a0514610e6c5780633ee66bd614610e4d5780633f4ba83a14610de45780634063c3ec14610dc557806343a4f2ac14610d15578063567142be14610cf65780635affbd9714610be75780635b88349d146109325780635c975abb1461090e578063726b5bad146107bf57806379502c55146107925780638456cb5914610737578063873f6f9e146102945780638b63fd4c1461070e57806391d14854146106c9578063a217fddf146106ae578063a82734c51461068f578063aeefe31f146105f6578063bcb87e44146105b3578063c15eb14d14610307578063c1a3e15f146102da578063ced6528014610294578063d547741f14610256578063ee204abb1461021c5763f50ddbc7146101af57600080fd5b3461021857602036600319011261021857909182916001600160a01b036101d4611485565b1682526020522090610214825491600184015493600360028201549101549151948594859094939260609260808301968352602083015260408201520152565b0390f35b8280fd5b5034610218576020366003190112610218576020926002918391906001600160a01b03610247611485565b16825285522001549051908152f35b509034610218578060031936011261021857610290913561028b600161027a6114a0565b93838752866020528620015461155b565b61169a565b5080f35b50346102185781600319360112610218578160209360ff926102b46114a0565b90358252600d86528282206001600160a01b039091168252855220549151911615158152f35b505034610303578160031936011261030357602090516000805160206119c58339815191528152f35b5080fd5b5091903461030357606036600319011261030357610323611485565b906044359167ffffffffffffffff8084116105af57366023850112156105af57838601359081116105af5736602482860101116105af576000805160206119c58339815191528552602092858452808620338752845260ff81872054161561055f5760025481516386cdb33d60e01b81526001600160a01b039691869082908b90829060081c8b165afa90811561055557908791899161051e575b506103d4670de0b6b3a76400009160243561177f565b049416958688528886526003838920015415610497575b50917f44358f70a7cb34bef3df5646d898bebab78a5b8562ce9cf2a521776aaf00ca369493918160246080958b8a8c52808952848c2061042c8882546117c8565b90558a8c528089526002858d20016104458882546117c8565b90558a8c528852426003858d20015561046086600f546117c8565b600f55606084519889978852870152826060870152018585013782820184018890524290830152601f01601f19168101030190a280f35b6005546801000000000000000081101561050b5784939288999a60809796937f44358f70a7cb34bef3df5646d898bebab78a5b8562ce9cf2a521776aaf00ca369a6104ea856001602497016005556114b6565b909283549160031b92831b921b19161790559a9998509293949550506103eb565b634e487b7160e01b895260418a52602489fd5b809250878092503d831161054e575b610537818361175d565b8101031261054a575186906103d46103be565b8780fd5b503d61052d565b83513d8a823e3d90fd5b5162461bcd60e51b8152808701849052602560248201527f506f696e74734d616e616765723a2063616c6c6572206973206e6f74206f70656044820152643930ba37b960d91b6064820152608490fd5b8480fd5b50346102185760203660031901126102185735916005548310156105f357506105dd6020926114b6565b905491519160018060a01b039160031b1c168152f35b80fd5b5034610218576020366003190112610218576080928291610615611485565b826060855161062381611741565b8281528260208201528287820152015260018060a01b03168252602052209080519061064e82611741565b825492838352600181015460208401908152606060036002840154938587019485520154940193845282519485525160208501525190830152516060820152f35b505034610303578160031936011261030357602090600c549051908152f35b50503461030357816003193601126103035751908152602090f35b50346102185781600319360112610218578160209360ff926106e96114a0565b903582528186528282206001600160a01b039091168252855220549151911615158152f35b50503461030357816003193601126103035760035490516001600160a01b039091168152602090f35b50503461030357816003193601126103035760207f62e78cea01bee320cd4e420270b5ea74000d11b0c9f74754ebdbfc544b05a25891610775611503565b61077d611917565b600160ff19600254161760025551338152a180f35b505034610303578160031936011261030357600254905160089190911c6001600160a01b03168152602090f35b5090346102185782600319360112610218577f786fcfa0099ab9aba15d4b2ccc7ffa9994e7c522c9b340b95e584749e47fcfb983526020838152818420338552815261081060ff83862054166117d5565b600a549261082060ff8516611843565b6008544211156108c157508390849360055494600b54955b80821061087957505060ff1916600a55825191825242908201527f20f3a76238ef0dc6abb5ff2008f9a5c36157ebdb5e3f1fab989c19d49a58ead79190a280f35b90936108b56108bb91888a52600e8652878a20610895886114b6565b905460039190911b1c6001600160a01b03168b528652878a2054906117c8565b94611834565b90610838565b915162461bcd60e51b8152918201526024808201527f506f696e74734d616e616765723a2061697264726f70206e6f7420656e646564604482015263081e595d60e21b6064820152608490fd5b50503461030357816003193601126103035760209060ff6002541690519015158152f35b5090346102185782600319360112610218576001916002835414610bd9576002835561095c611917565b61096a60ff600a5416611843565b6007544210610b8c576008544211610b4a57600b548452602091600d8352808520338652835260ff8186205416610b095733855281835280852091600283018054938415610abc576109ca6109c16006548761177f565b600954906117a8565b928315610a79575090868892016109e28682546117c8565b9055556109f1836010546117c8565b601055600b548652600d845281862033875284528186208560ff19825416179055600b548652600e845281862033875284528082872055610a3d813360018060a01b036003541661188e565b600b5493825193845283015242908201527f88d251001abfa13a6ca3997fb2ff1ce97bc559ebe3dfc31d2120c772a538b38060603392a3805580f35b845162461bcd60e51b8152908101879052601f60248201527f506f696e74734d616e616765723a206e6f7468696e6720746f20636c61696d006044820152606490fd5b835162461bcd60e51b8152808401879052602160248201527f506f696e74734d616e616765723a206e6f20706f696e747320746f20636c61696044820152606d60f81b6064820152608490fd5b91606492519162461bcd60e51b8352820152601e60248201527f506f696e74734d616e616765723a20616c726561647920636c61696d656400006044820152fd5b6020606492519162461bcd60e51b8352820152601c60248201527f506f696e74734d616e616765723a2061697264726f7020656e646564000000006044820152fd5b6020608492519162461bcd60e51b8352820152602260248201527f506f696e74734d616e616765723a2061697264726f70206e6f74207374617274604482015261195960f21b6064820152fd5b9051633ee5aeb560e01b8152fd5b5090346102185760209182600319360112610c9357610c04611485565b90610c0d611503565b60ff600a5416610ca75760035483516370a0823160e01b815230928101929092526001600160a01b0316938082602481885afa938415610c9e57508593610c6a575b505081610c5a578380f35b610c639261188e565b3880808380f35b9080929350813d8311610c97575b610c82818361175d565b81010312610c935751903880610c4f565b8380fd5b503d610c78565b513d87823e3d90fd5b825162461bcd60e51b8152908101849052602360248201527f506f696e74734d616e616765723a2061697264726f70207374696c6c2061637460448201526269766560e81b6064820152608490fd5b505034610303578160031936011261030357602090600f549051908152f35b50503461030357816003193601126103035760c09160a08251610d378161170f565b828152826020820152828482015282606082015282608082015201528051610d5e8161170f565b60065491828252600754906020830191825260085490808401918252600954916060850192835260ff600a54169360808601941515855260a0600b5496019586528251968752516020870152519085015251606084015251151560808301525160a0820152f35b5050346103035781600319360112610303576020906010549051908152f35b5034610218578260031936011261021857610dfd611503565b6002549060ff821615610e3f575060ff1916600255513381527f5db9ee0a495bf2e6ff9c91a7834c1ba4fdd244a5e8aa4e537bd38aeae4b073aa90602090a180f35b8251638dfc202b60e01b8152fd5b5050346103035781600319360112610303576020906005549051908152f35b50346102185781600319360112610218576020928291610e8a6114a0565b90358252600e85528282206001600160a01b039091168252845220549051908152f35b50919034610303578060031936011261030357610ec86114a0565b90336001600160a01b03831603610ee5575061029091923561169a565b5163334bd91960e11b81528390fd5b50503461030357602036600319011261030357602090610f1a610f15611485565b611935565b9051908152f35b5090346102185780600319360112610218576102909135610f45600161027a6114a0565b611621565b5050346103035760203660031901126103035761029090610f956001610f6e611485565b92610f77611503565b6000805160206119c58339815191528652856020528520015461155b565b611581565b503461021857602036600319011261021857816020936001923581528085522001549051908152f35b83346105f35760203660031901126105f357610fdd611485565b610fe5611503565b60028054610100600160a81b03191660089290921b610100600160a81b031691909117905580f35b505034610303578160031936011261030357602090517f786fcfa0099ab9aba15d4b2ccc7ffa9994e7c522c9b340b95e584749e47fcfb98152f35b83346105f35760203660031901126105f357611062611485565b61106a611503565b60018060a01b03166bffffffffffffffffffffffff60a01b600354161760035580f35b509190346103035760603660031901126103035782359260249182359060448035937f786fcfa0099ab9aba15d4b2ccc7ffa9994e7c522c9b340b95e584749e47fcfb98752602087815283882033895281526110ee60ff858a2054166117d5565b600a549260ff841661138d5742861061134357858711156112f95789156112ad5760035485516370a0823160e01b8152308582015290839082908b9082906001600160a01b03165afa9081156112a357908b918b9161126e575b501061121c575061115a600c54611834565b9687600c55600f5492601054840393841161120b5750508697989284927f210ff108b953432139817176b3cede4749d344e4d6eeef4e9b0f9f38641e55469860a0600194896112059951916111ae8361170f565b8983528201528a87820152836060820152856080820152015284600655866007558760085560095560ff191617600a5586600b55519384934292859094939260609260808301968352602083015260408201520152565b0390a280f35b634e487b7160e01b8a526011905288fd5b608493506029887f506f696e74734d616e616765723a20696e73756666696369656e7420746f6b659387519562461bcd60e51b8752860152840152820152686e2062616c616e636560b81b6064820152fd5b809250848092503d831161129c575b611287818361175d565b81010312611298578a905138611148565b8980fd5b503d61127d565b86513d8c823e3d90fd5b60849350877f506f696e74734d616e616765723a20706f6f6c206d75737420626520706f73699286519462461bcd60e51b865285015280840152820152637469766560e01b6064820152fd5b608493506021887f506f696e74734d616e616765723a20696e76616c69642074696d652072616e679387519562461bcd60e51b8752860152840152820152606560f81b6064820152fd5b608493506021887f506f696e74734d616e616765723a2073746172742074696d6520696e207061739387519562461bcd60e51b8752860152840152820152601d60fa1b6064820152fd5b60849350602c887f506f696e74734d616e616765723a2070726576696f75732061697264726f70209387519562461bcd60e51b87528601528401528201526b7374696c6c2061637469766560a01b6064820152fd5b50503461030357816003193601126103035760c09060065490600754906008546009549060ff600a541692600b54948151968752602087015285015260608401521515608083015260a0820152f35b92505034610218576020366003190112610218573563ffffffff60e01b81168091036102185760209250637965db0b60e01b8114908115611474575b5015158152f35b6301ffc9a760e01b1490503861146d565b600435906001600160a01b038216820361149b57565b600080fd5b602435906001600160a01b038216820361149b57565b6005548110156114ed5760056000527f036b6384b5eca791c62761152d0c79bb0604c104a5fb6f4eb0703f3154bb3db00190600090565b634e487b7160e01b600052603260045260246000fd5b3360009081527fad3228b676f7d3cd4284a5443f17f1962b36e491b30a40b2405849e597ba5fb5602052604081205460ff161561153d5750565b6044906040519063e2517d3f60e01b82523360048301526024820152fd5b80600052600060205260406000203360005260205260ff604060002054161561153d5750565b6001600160a01b031660008181527f61e7fc3d84368231012c67d50e6fa6aa27aa16adea636a17e75ea902e878b6b460205260408120549091906000805160206119c58339815191529060ff1661161c57808352826020526040832082845260205260408320600160ff198254161790557f2f8788117e7eff1d82e926ec794901d17c78024a50270940304540a733656f0d339380a4600190565b505090565b9060009180835282602052604083209160018060a01b03169182845260205260ff6040842054161560001461161c57808352826020526040832082845260205260408320600160ff198254161790557f2f8788117e7eff1d82e926ec794901d17c78024a50270940304540a733656f0d339380a4600190565b9060009180835282602052604083209160018060a01b03169182845260205260ff60408420541660001461161c5780835282602052604083208284526020526040832060ff1981541690557ff6391f5c32d9c69d2a47ea670b442974b53935d1edc7fd64eb21e047a839171b339380a4600190565b60c0810190811067ffffffffffffffff82111761172b57604052565b634e487b7160e01b600052604160045260246000fd5b6080810190811067ffffffffffffffff82111761172b57604052565b90601f8019910116810190811067ffffffffffffffff82111761172b57604052565b8181029291811591840414171561179257565b634e487b7160e01b600052601160045260246000fd5b81156117b2570490565b634e487b7160e01b600052601260045260246000fd5b9190820180921161179257565b156117dc57565b60405162461bcd60e51b815260206004820152602a60248201527f506f696e74734d616e616765723a2063616c6c6572206973206e6f7420616972604482015269323937b81030b236b4b760b11b6064820152608490fd5b60001981146117925760010190565b1561184a57565b606460405162461bcd60e51b815260206004820152602060248201527f506f696e74734d616e616765723a206e6f206163746976652061697264726f706044820152fd5b9160006020916040518381019163a9059cbb60e01b835260018060a01b0380961660248301526044820152604481526118c681611741565b519082865af11561190b576000513d61190257508082163b155b6118e8575050565b604051635274afe760e01b81529116600482015260249150fd5b600114156118e0565b6040513d6000823e3d90fd5b60ff6002541661192357565b60405163d93c066560e01b8152600490fd5b60ff600a5416156119be5760075442106119be5760085442116119be57600b54906000918252600d602052604082209060018060a01b0316825260205260ff6040822054166119b15760095480156119ba57600460205260026040832001549182156119b457506119ac6119b1926006549061177f565b6117a8565b90565b91505090565b5090565b5060009056fe5a3ad48e161847a6bfadd0936811fc7e13936213266e733d1aa3e5c9572e4d2ba2646970667358221220ce7e6d8d05c2845c1d891fc4b3b193e76196838c3ec6a378a0fc538ff807a14464736f6c634300081400332f8788117e7eff1d82e926ec794901d17c78024a50270940304540a733656f0d",
  "linkReferences": {},
  "deployedLinkReferences": {}
}