{
  "_format": "hh-sol-artifact-1",
  "contractName": "OptionsCore",
  "sourceName": "contracts/core/OptionsCore.sol",
  "abi": [
    {
      "inputs": [
        {
          "internalType": "address",
          "name": "_config",
          "type": "address"
        },
        {
          "internalType": "address",
          "name": "_vaultManager",
          "type": "address"
        },
        {
          "internalType": "address",
          "name": "_usdt",
          "type": "address"
        },
        {
          "internalType": "address",
          "name": "_admin",
          "type": "address"
        }
      ],
      "stateMutability": "nonpayable",
      "type": "constructor"
    },
    {
      "inputs": [],
      "name": "AccessControlBadConfirmation",
      "type": "error"
    },
    {
      "inputs": [
        {
          "internalType": "address",
          "name": "account",
          "type": "address"
        },
        {
          "internalType": "bytes32",
          "name": "neededRole",
          "type": "bytes32"
        }
      ],
      "name": "AccessControlUnauthorizedAccount",
      "type": "error"
    },
    {
      "inputs": [],
      "name": "EnforcedPause",
      "type": "error"
    },
    {
      "inputs": [],
      "name": "ExpectedPause",
      "type": "error"
    },
    {
      "inputs": [],
      "name": "ReentrancyGuardReentrantCall",
      "type": "error"
    },
    {
      "anonymous": false,
      "inputs": [
        {
          "indexed": true,
          "internalType": "uint256",
          "name": "orderId",
          "type": "uint256"
        },
        {
          "indexed": false,
          "internalType": "string",
          "name": "underlyingCode",
          "type": "string"
        },
        {
          "indexed": false,
          "internalType": "string",
          "name": "market",
          "type": "string"
        },
        {
          "indexed": false,
          "internalType": "string",
          "name": "country",
          "type": "string"
        },
        {
          "indexed": false,
          "internalType": "enum FeedType",
          "name": "feedType",
          "type": "uint8"
        },
        {
          "indexed": false,
          "internalType": "enum FeedTier",
          "name": "tier",
          "type": "uint8"
        },
        {
          "indexed": true,
          "internalType": "address",
          "name": "requester",
          "type": "address"
        },
        {
          "indexed": false,
          "internalType": "uint256",
          "name": "notionalAmount",
          "type": "uint256"
        },
        {
          "indexed": false,
          "internalType": "uint256",
          "name": "timestamp",
          "type": "uint256"
        }
      ],
      "name": "FeedRequestEmitted",
      "type": "event"
    },
    {
      "anonymous": false,
      "inputs": [
        {
          "indexed": true,
          "internalType": "uint256",
          "name": "orderId",
          "type": "uint256"
        },
        {
          "indexed": false,
          "internalType": "string",
          "name": "reason",
          "type": "string"
        },
        {
          "indexed": false,
          "internalType": "uint256",
          "name": "timestamp",
          "type": "uint256"
        }
      ],
      "name": "OrderCancelled",
      "type": "event"
    },
    {
      "anonymous": false,
      "inputs": [
        {
          "indexed": true,
          "internalType": "uint256",
          "name": "orderId",
          "type": "uint256"
        },
        {
          "indexed": true,
          "internalType": "address",
          "name": "creator",
          "type": "address"
        },
        {
          "indexed": false,
          "internalType": "bool",
          "name": "isBuyerOrder",
          "type": "bool"
        },
        {
          "indexed": false,
          "internalType": "uint256",
          "name": "timestamp",
          "type": "uint256"
        }
      ],
      "name": "OrderCreated",
      "type": "event"
    },
    {
      "anonymous": false,
      "inputs": [
        {
          "indexed": true,
          "internalType": "uint256",
          "name": "orderId",
          "type": "uint256"
        },
        {
          "indexed": true,
          "internalType": "address",
          "name": "buyer",
          "type": "address"
        },
        {
          "indexed": true,
          "internalType": "address",
          "name": "seller",
          "type": "address"
        },
        {
          "indexed": false,
          "internalType": "uint256",
          "name": "timestamp",
          "type": "uint256"
        }
      ],
      "name": "OrderMatched",
      "type": "event"
    },
    {
      "anonymous": false,
      "inputs": [
        {
          "indexed": true,
          "internalType": "uint256",
          "name": "orderId",
          "type": "uint256"
        },
        {
          "indexed": false,
          "internalType": "enum OrderStatus",
          "name": "oldStatus",
          "type": "uint8"
        },
        {
          "indexed": false,
          "internalType": "enum OrderStatus",
          "name": "newStatus",
          "type": "uint8"
        },
        {
          "indexed": false,
          "internalType": "string",
          "name": "reason",
          "type": "string"
        },
        {
          "indexed": false,
          "internalType": "uint256",
          "name": "timestamp",
          "type": "uint256"
        }
      ],
      "name": "OrderStatusChanged",
      "type": "event"
    },
    {
      "anonymous": false,
      "inputs": [
        {
          "indexed": false,
          "internalType": "address",
          "name": "account",
          "type": "address"
        }
      ],
      "name": "Paused",
      "type": "event"
    },
    {
      "anonymous": false,
      "inputs": [
        {
          "indexed": true,
          "internalType": "uint256",
          "name": "orderId",
          "type": "uint256"
        },
        {
          "indexed": true,
          "internalType": "uint256",
          "name": "quoteId",
          "type": "uint256"
        },
        {
          "indexed": true,
          "internalType": "address",
          "name": "seller",
          "type": "address"
        },
        {
          "indexed": false,
          "internalType": "uint256",
          "name": "amount",
          "type": "uint256"
        },
        {
          "indexed": false,
          "internalType": "uint256",
          "name": "timestamp",
          "type": "uint256"
        }
      ],
      "name": "QuoteMarginRefunded",
      "type": "event"
    },
    {
      "anonymous": false,
      "inputs": [
        {
          "indexed": true,
          "internalType": "uint256",
          "name": "orderId",
          "type": "uint256"
        },
        {
          "indexed": true,
          "internalType": "uint256",
          "name": "quoteId",
          "type": "uint256"
        },
        {
          "indexed": true,
          "internalType": "address",
          "name": "seller",
          "type": "address"
        },
        {
          "indexed": false,
          "internalType": "uint256",
          "name": "premiumRate",
          "type": "uint256"
        },
        {
          "indexed": false,
          "internalType": "uint256",
          "name": "timestamp",
          "type": "uint256"
        }
      ],
      "name": "QuoteSubmitted",
      "type": "event"
    },
    {
      "anonymous": false,
      "inputs": [
        {
          "indexed": true,
          "internalType": "bytes32",
          "name": "role",
          "type": "bytes32"
        },
        {
          "indexed": true,
          "internalType": "bytes32",
          "name": "previousAdminRole",
          "type": "bytes32"
        },
        {
          "indexed": true,
          "internalType": "bytes32",
          "name": "newAdminRole",
          "type": "bytes32"
        }
      ],
      "name": "RoleAdminChanged",
      "type": "event"
    },
    {
      "anonymous": false,
      "inputs": [
        {
          "indexed": true,
          "internalType": "bytes32",
          "name": "role",
          "type": "bytes32"
        },
        {
          "indexed": true,
          "internalType": "address",
          "name": "account",
          "type": "address"
        },
        {
          "indexed": true,
          "internalType": "address",
          "name": "sender",
          "type": "address"
        }
      ],
      "name": "RoleGranted",
      "type": "event"
    },
    {
      "anonymous": false,
      "inputs": [
        {
          "indexed": true,
          "internalType": "bytes32",
          "name": "role",
          "type": "bytes32"
        },
        {
          "indexed": true,
          "internalType": "address",
          "name": "account",
          "type": "address"
        },
        {
          "indexed": true,
          "internalType": "address",
          "name": "sender",
          "type": "address"
        }
      ],
      "name": "RoleRevoked",
      "type": "event"
    },
    {
      "anonymous": false,
      "inputs": [
        {
          "indexed": false,
          "internalType": "address",
          "name": "account",
          "type": "address"
        }
      ],
      "name": "Unpaused",
      "type": "event"
    },
    {
      "inputs": [],
      "name": "DEFAULT_ADMIN_ROLE",
      "outputs": [
        {
          "internalType": "bytes32",
          "name": "",
          "type": "bytes32"
        }
      ],
      "stateMutability": "view",
      "type": "function"
    },
    {
      "inputs": [],
      "name": "FEED_PROTOCOL_ROLE",
      "outputs": [
        {
          "internalType": "bytes32",
          "name": "",
          "type": "bytes32"
        }
      ],
      "stateMutability": "view",
      "type": "function"
    },
    {
      "inputs": [],
      "name": "SETTLEMENT_ROLE",
      "outputs": [
        {
          "internalType": "bytes32",
          "name": "",
          "type": "bytes32"
        }
      ],
      "stateMutability": "view",
      "type": "function"
    },
    {
      "inputs": [
        {
          "internalType": "uint256",
          "name": "quoteId",
          "type": "uint256"
        }
      ],
      "name": "acceptQuote",
      "outputs": [],
      "stateMutability": "nonpayable",
      "type": "function"
    },
    {
      "inputs": [
        {
          "internalType": "uint256",
          "name": "orderId",
          "type": "uint256"
        }
      ],
      "name": "acceptSellerOrder",
      "outputs": [],
      "stateMutability": "nonpayable",
      "type": "function"
    },
    {
      "inputs": [
        {
          "internalType": "address",
          "name": "",
          "type": "address"
        },
        {
          "internalType": "uint256",
          "name": "",
          "type": "uint256"
        }
      ],
      "name": "buyerOrders",
      "outputs": [
        {
          "internalType": "uint256",
          "name": "",
          "type": "uint256"
        }
      ],
      "stateMutability": "view",
      "type": "function"
    },
    {
      "inputs": [
        {
          "internalType": "uint256",
          "name": "orderId",
          "type": "uint256"
        }
      ],
      "name": "cancelRFQ",
      "outputs": [],
      "stateMutability": "nonpayable",
      "type": "function"
    },
    {
      "inputs": [
        {
          "internalType": "uint256",
          "name": "orderId",
          "type": "uint256"
        }
      ],
      "name": "cancelRFQDueToTimeout",
      "outputs": [],
      "stateMutability": "nonpayable",
      "type": "function"
    },
    {
      "inputs": [],
      "name": "config",
      "outputs": [
        {
          "internalType": "contract Config",
          "name": "",
          "type": "address"
        }
      ],
      "stateMutability": "view",
      "type": "function"
    },
    {
      "inputs": [
        {
          "internalType": "string",
          "name": "underlyingName",
          "type": "string"
        },
        {
          "internalType": "string",
          "name": "underlyingCode",
          "type": "string"
        },
        {
          "internalType": "string",
          "name": "market",
          "type": "string"
        },
        {
          "internalType": "string",
          "name": "country",
          "type": "string"
        },
        {
          "internalType": "string",
          "name": "refPrice",
          "type": "string"
        },
        {
          "internalType": "enum Direction",
          "name": "direction",
          "type": "uint8"
        },
        {
          "internalType": "uint256",
          "name": "notionalUSDT",
          "type": "uint256"
        },
        {
          "internalType": "uint256",
          "name": "expiryTimestamp",
          "type": "uint256"
        },
        {
          "internalType": "uint256",
          "name": "maxPremiumRate",
          "type": "uint256"
        },
        {
          "internalType": "uint256",
          "name": "minMarginRate",
          "type": "uint256"
        },
        {
          "internalType": "enum SellerType",
          "name": "acceptedSellerType",
          "type": "uint8"
        },
        {
          "internalType": "address",
          "name": "designatedSeller",
          "type": "address"
        },
        {
          "internalType": "uint256",
          "name": "arbitrationWindow",
          "type": "uint256"
        },
        {
          "internalType": "uint256",
          "name": "marginCallDeadline",
          "type": "uint256"
        },
        {
          "internalType": "bool",
          "name": "dividendAdjustment",
          "type": "bool"
        },
        {
          "internalType": "enum LiquidationRule",
          "name": "liquidationRule",
          "type": "uint8"
        },
        {
          "internalType": "uint8",
          "name": "consecutiveDays",
          "type": "uint8"
        },
        {
          "internalType": "uint8",
          "name": "dailyLimitPercent",
          "type": "uint8"
        },
        {
          "internalType": "enum FeedRule",
          "name": "feedRule",
          "type": "uint8"
        }
      ],
      "name": "createBuyerRFQ",
      "outputs": [
        {
          "internalType": "uint256",
          "name": "orderId",
          "type": "uint256"
        }
      ],
      "stateMutability": "nonpayable",
      "type": "function"
    },
    {
      "inputs": [
        {
          "internalType": "string",
          "name": "underlyingName",
          "type": "string"
        },
        {
          "internalType": "string",
          "name": "underlyingCode",
          "type": "string"
        },
        {
          "internalType": "string",
          "name": "market",
          "type": "string"
        },
        {
          "internalType": "string",
          "name": "country",
          "type": "string"
        },
        {
          "internalType": "string",
          "name": "refPrice",
          "type": "string"
        },
        {
          "internalType": "enum Direction",
          "name": "direction",
          "type": "uint8"
        },
        {
          "internalType": "uint256",
          "name": "notionalUSDT",
          "type": "uint256"
        },
        {
          "internalType": "uint256",
          "name": "expiryTimestamp",
          "type": "uint256"
        },
        {
          "internalType": "uint256",
          "name": "premiumRate",
          "type": "uint256"
        },
        {
          "internalType": "uint256",
          "name": "marginAmount",
          "type": "uint256"
        },
        {
          "internalType": "enum LiquidationRule",
          "name": "liquidationRule",
          "type": "uint8"
        },
        {
          "internalType": "uint8",
          "name": "consecutiveDays",
          "type": "uint8"
        },
        {
          "internalType": "uint8",
          "name": "dailyLimitPercent",
          "type": "uint8"
        },
        {
          "internalType": "uint256",
          "name": "arbitrationWindow",
          "type": "uint256"
        },
        {
          "internalType": "bool",
          "name": "dividendAdjustment",
          "type": "bool"
        },
        {
          "internalType": "uint8",
          "name": "exerciseDelay",
          "type": "uint8"
        },
        {
          "internalType": "enum FeedRule",
          "name": "feedRule",
          "type": "uint8"
        }
      ],
      "name": "createSellerOrder",
      "outputs": [
        {
          "internalType": "uint256",
          "name": "orderId",
          "type": "uint256"
        }
      ],
      "stateMutability": "nonpayable",
      "type": "function"
    },
    {
      "inputs": [
        {
          "internalType": "address",
          "name": "buyer",
          "type": "address"
        }
      ],
      "name": "getBuyerOrders",
      "outputs": [
        {
          "internalType": "uint256[]",
          "name": "",
          "type": "uint256[]"
        }
      ],
      "stateMutability": "view",
      "type": "function"
    },
    {
      "inputs": [
        {
          "internalType": "uint256",
          "name": "orderId",
          "type": "uint256"
        }
      ],
      "name": "getOrder",
      "outputs": [
        {
          "components": [
            {
              "internalType": "uint256",
              "name": "orderId",
              "type": "uint256"
            },
            {
              "internalType": "address",
              "name": "buyer",
              "type": "address"
            },
            {
              "internalType": "address",
              "name": "seller",
              "type": "address"
            },
            {
              "internalType": "string",
              "name": "underlyingName",
              "type": "string"
            },
            {
              "internalType": "string",
              "name": "underlyingCode",
              "type": "string"
            },
            {
              "internalType": "string",
              "name": "market",
              "type": "string"
            },
            {
              "internalType": "string",
              "name": "country",
              "type": "string"
            },
            {
              "internalType": "string",
              "name": "refPrice",
              "type": "string"
            },
            {
              "internalType": "enum Direction",
              "name": "direction",
              "type": "uint8"
            },
            {
              "internalType": "uint256",
              "name": "notionalUSDT",
              "type": "uint256"
            },
            {
              "internalType": "uint256",
              "name": "strikePrice",
              "type": "uint256"
            },
            {
              "internalType": "uint256",
              "name": "expiryTimestamp",
              "type": "uint256"
            },
            {
              "internalType": "uint256",
              "name": "premiumRate",
              "type": "uint256"
            },
            {
              "internalType": "uint256",
              "name": "premiumAmount",
              "type": "uint256"
            },
            {
              "internalType": "uint256",
              "name": "initialMargin",
              "type": "uint256"
            },
            {
              "internalType": "uint256",
              "name": "currentMargin",
              "type": "uint256"
            },
            {
              "internalType": "uint256",
              "name": "minMarginRate",
              "type": "uint256"
            },
            {
              "internalType": "uint256",
              "name": "maxPremiumRate",
              "type": "uint256"
            },
            {
              "internalType": "enum LiquidationRule",
              "name": "liquidationRule",
              "type": "uint8"
            },
            {
              "internalType": "uint8",
              "name": "consecutiveDays",
              "type": "uint8"
            },
            {
              "internalType": "uint8",
              "name": "dailyLimitPercent",
              "type": "uint8"
            },
            {
              "internalType": "uint8",
              "name": "exerciseDelay",
              "type": "uint8"
            },
            {
              "internalType": "enum SellerType",
              "name": "sellerType",
              "type": "uint8"
            },
            {
              "internalType": "address",
              "name": "designatedSeller",
              "type": "address"
            },
            {
              "internalType": "uint256",
              "name": "arbitrationWindow",
              "type": "uint256"
            },
            {
              "internalType": "uint256",
              "name": "marginCallDeadline",
              "type": "uint256"
            },
            {
              "internalType": "bool",
              "name": "dividendAdjustment",
              "type": "bool"
            },
            {
              "internalType": "enum FeedRule",
              "name": "feedRule",
              "type": "uint8"
            },
            {
              "internalType": "enum OrderStatus",
              "name": "status",
              "type": "uint8"
            },
            {
              "internalType": "uint256",
              "name": "createdAt",
              "type": "uint256"
            },
            {
              "internalType": "uint256",
              "name": "matchedAt",
              "type": "uint256"
            },
            {
              "internalType": "uint256",
              "name": "settledAt",
              "type": "uint256"
            },
            {
              "internalType": "uint256",
              "name": "lastFeedPrice",
              "type": "uint256"
            },
            {
              "internalType": "uint256",
              "name": "dividendAmount",
              "type": "uint256"
            }
          ],
          "internalType": "struct Order",
          "name": "",
          "type": "tuple"
        }
      ],
      "stateMutability": "view",
      "type": "function"
    },
    {
      "inputs": [
        {
          "internalType": "string",
          "name": "country",
          "type": "string"
        }
      ],
      "name": "getOrdersByCountry",
      "outputs": [
        {
          "internalType": "uint256[]",
          "name": "",
          "type": "uint256[]"
        }
      ],
      "stateMutability": "view",
      "type": "function"
    },
    {
      "inputs": [
        {
          "internalType": "string",
          "name": "market",
          "type": "string"
        }
      ],
      "name": "getOrdersByMarket",
      "outputs": [
        {
          "internalType": "uint256[]",
          "name": "",
          "type": "uint256[]"
        }
      ],
      "stateMutability": "view",
      "type": "function"
    },
    {
      "inputs": [
        {
          "internalType": "uint256",
          "name": "orderId",
          "type": "uint256"
        }
      ],
      "name": "getQuotes",
      "outputs": [
        {
          "components": [
            {
              "internalType": "uint256",
              "name": "quoteId",
              "type": "uint256"
            },
            {
              "internalType": "uint256",
              "name": "orderId",
              "type": "uint256"
            },
            {
              "internalType": "address",
              "name": "seller",
              "type": "address"
            },
            {
              "internalType": "enum SellerType",
              "name": "sellerType",
              "type": "uint8"
            },
            {
              "internalType": "uint256",
              "name": "premiumRate",
              "type": "uint256"
            },
            {
              "internalType": "uint256",
              "name": "premiumAmount",
              "type": "uint256"
            },
            {
              "internalType": "uint256",
              "name": "marginRate",
              "type": "uint256"
            },
            {
              "internalType": "uint256",
              "name": "marginAmount",
              "type": "uint256"
            },
            {
              "internalType": "enum LiquidationRule",
              "name": "liquidationRule",
              "type": "uint8"
            },
            {
              "internalType": "uint8",
              "name": "consecutiveDays",
              "type": "uint8"
            },
            {
              "internalType": "uint8",
              "name": "dailyLimitPercent",
              "type": "uint8"
            },
            {
              "internalType": "uint256",
              "name": "createdAt",
              "type": "uint256"
            },
            {
              "internalType": "uint256",
              "name": "expiresAt",
              "type": "uint256"
            },
            {
              "internalType": "enum QuoteStatus",
              "name": "status",
              "type": "uint8"
            }
          ],
          "internalType": "struct Quote[]",
          "name": "",
          "type": "tuple[]"
        }
      ],
      "stateMutability": "view",
      "type": "function"
    },
    {
      "inputs": [
        {
          "internalType": "bytes32",
          "name": "role",
          "type": "bytes32"
        }
      ],
      "name": "getRoleAdmin",
      "outputs": [
        {
          "internalType": "bytes32",
          "name": "",
          "type": "bytes32"
        }
      ],
      "stateMutability": "view",
      "type": "function"
    },
    {
      "inputs": [
        {
          "internalType": "address",
          "name": "seller",
          "type": "address"
        }
      ],
      "name": "getSellerOrders",
      "outputs": [
        {
          "internalType": "uint256[]",
          "name": "",
          "type": "uint256[]"
        }
      ],
      "stateMutability": "view",
      "type": "function"
    },
    {
      "inputs": [
        {
          "internalType": "bytes32",
          "name": "role",
          "type": "bytes32"
        },
        {
          "internalType": "address",
          "name": "account",
          "type": "address"
        }
      ],
      "name": "grantRole",
      "outputs": [],
      "stateMutability": "nonpayable",
      "type": "function"
    },
    {
      "inputs": [
        {
          "internalType": "bytes32",
          "name": "role",
          "type": "bytes32"
        },
        {
          "internalType": "address",
          "name": "account",
          "type": "address"
        }
      ],
      "name": "hasRole",
      "outputs": [
        {
          "internalType": "bool",
          "name": "",
          "type": "bool"
        }
      ],
      "stateMutability": "view",
      "type": "function"
    },
    {
      "inputs": [],
      "name": "nextOrderId",
      "outputs": [
        {
          "internalType": "uint256",
          "name": "",
          "type": "uint256"
        }
      ],
      "stateMutability": "view",
      "type": "function"
    },
    {
      "inputs": [],
      "name": "nextQuoteId",
      "outputs": [
        {
          "internalType": "uint256",
          "name": "",
          "type": "uint256"
        }
      ],
      "stateMutability": "view",
      "type": "function"
    },
    {
      "inputs": [
        {
          "internalType": "uint256",
          "name": "",
          "type": "uint256"
        },
        {
          "internalType": "uint256",
          "name": "",
          "type": "uint256"
        }
      ],
      "name": "orderQuotes",
      "outputs": [
        {
          "internalType": "uint256",
          "name": "quoteId",
          "type": "uint256"
        },
        {
          "internalType": "uint256",
          "name": "orderId",
          "type": "uint256"
        },
        {
          "internalType": "address",
          "name": "seller",
          "type": "address"
        },
        {
          "internalType": "enum SellerType",
          "name": "sellerType",
          "type": "uint8"
        },
        {
          "internalType": "uint256",
          "name": "premiumRate",
          "type": "uint256"
        },
        {
          "internalType": "uint256",
          "name": "premiumAmount",
          "type": "uint256"
        },
        {
          "internalType": "uint256",
          "name": "marginRate",
          "type": "uint256"
        },
        {
          "internalType": "uint256",
          "name": "marginAmount",
          "type": "uint256"
        },
        {
          "internalType": "enum LiquidationRule",
          "name": "liquidationRule",
          "type": "uint8"
        },
        {
          "internalType": "uint8",
          "name": "consecutiveDays",
          "type": "uint8"
        },
        {
          "internalType": "uint8",
          "name": "dailyLimitPercent",
          "type": "uint8"
        },
        {
          "internalType": "uint256",
          "name": "createdAt",
          "type": "uint256"
        },
        {
          "internalType": "uint256",
          "name": "expiresAt",
          "type": "uint256"
        },
        {
          "internalType": "enum QuoteStatus",
          "name": "status",
          "type": "uint8"
        }
      ],
      "stateMutability": "view",
      "type": "function"
    },
    {
      "inputs": [
        {
          "internalType": "uint256",
          "name": "",
          "type": "uint256"
        }
      ],
      "name": "orders",
      "outputs": [
        {
          "internalType": "uint256",
          "name": "orderId",
          "type": "uint256"
        },
        {
          "internalType": "address",
          "name": "buyer",
          "type": "address"
        },
        {
          "internalType": "address",
          "name": "seller",
          "type": "address"
        },
        {
          "internalType": "string",
          "name": "underlyingName",
          "type": "string"
        },
        {
          "internalType": "string",
          "name": "underlyingCode",
          "type": "string"
        },
        {
          "internalType": "string",
          "name": "market",
          "type": "string"
        },
        {
          "internalType": "string",
          "name": "country",
          "type": "string"
        },
        {
          "internalType": "string",
          "name": "refPrice",
          "type": "string"
        },
        {
          "internalType": "enum Direction",
          "name": "direction",
          "type": "uint8"
        },
        {
          "internalType": "uint256",
          "name": "notionalUSDT",
          "type": "uint256"
        },
        {
          "internalType": "uint256",
          "name": "strikePrice",
          "type": "uint256"
        },
        {
          "internalType": "uint256",
          "name": "expiryTimestamp",
          "type": "uint256"
        },
        {
          "internalType": "uint256",
          "name": "premiumRate",
          "type": "uint256"
        },
        {
          "internalType": "uint256",
          "name": "premiumAmount",
          "type": "uint256"
        },
        {
          "internalType": "uint256",
          "name": "initialMargin",
          "type": "uint256"
        },
        {
          "internalType": "uint256",
          "name": "currentMargin",
          "type": "uint256"
        },
        {
          "internalType": "uint256",
          "name": "minMarginRate",
          "type": "uint256"
        },
        {
          "internalType": "uint256",
          "name": "maxPremiumRate",
          "type": "uint256"
        },
        {
          "internalType": "enum LiquidationRule",
          "name": "liquidationRule",
          "type": "uint8"
        },
        {
          "internalType": "uint8",
          "name": "consecutiveDays",
          "type": "uint8"
        },
        {
          "internalType": "uint8",
          "name": "dailyLimitPercent",
          "type": "uint8"
        },
        {
          "internalType": "uint8",
          "name": "exerciseDelay",
          "type": "uint8"
        },
        {
          "internalType": "enum SellerType",
          "name": "sellerType",
          "type": "uint8"
        },
        {
          "internalType": "address",
          "name": "designatedSeller",
          "type": "address"
        },
        {
          "internalType": "uint256",
          "name": "arbitrationWindow",
          "type": "uint256"
        },
        {
          "internalType": "uint256",
          "name": "marginCallDeadline",
          "type": "uint256"
        },
        {
          "internalType": "bool",
          "name": "dividendAdjustment",
          "type": "bool"
        },
        {
          "internalType": "enum FeedRule",
          "name": "feedRule",
          "type": "uint8"
        },
        {
          "internalType": "enum OrderStatus",
          "name": "status",
          "type": "uint8"
        },
        {
          "internalType": "uint256",
          "name": "createdAt",
          "type": "uint256"
        },
        {
          "internalType": "uint256",
          "name": "matchedAt",
          "type": "uint256"
        },
        {
          "internalType": "uint256",
          "name": "settledAt",
          "type": "uint256"
        },
        {
          "internalType": "uint256",
          "name": "lastFeedPrice",
          "type": "uint256"
        },
        {
          "internalType": "uint256",
          "name": "dividendAmount",
          "type": "uint256"
        }
      ],
      "stateMutability": "view",
      "type": "function"
    },
    {
      "inputs": [],
      "name": "pause",
      "outputs": [],
      "stateMutability": "nonpayable",
      "type": "function"
    },
    {
      "inputs": [],
      "name": "paused",
      "outputs": [
        {
          "internalType": "bool",
          "name": "",
          "type": "bool"
        }
      ],
      "stateMutability": "view",
      "type": "function"
    },
    {
      "inputs": [
        {
          "internalType": "uint256",
          "name": "orderId",
          "type": "uint256"
        },
        {
          "internalType": "enum FeedType",
          "name": "feedType",
          "type": "uint8"
        },
        {
          "internalType": "uint256",
          "name": "finalPrice",
          "type": "uint256"
        }
      ],
      "name": "processFeedCallback",
      "outputs": [],
      "stateMutability": "nonpayable",
      "type": "function"
    },
    {
      "inputs": [
        {
          "internalType": "uint256",
          "name": "orderId",
          "type": "uint256"
        },
        {
          "internalType": "uint256",
          "name": "finalPrice",
          "type": "uint256"
        }
      ],
      "name": "processFinalFeedResult",
      "outputs": [],
      "stateMutability": "nonpayable",
      "type": "function"
    },
    {
      "inputs": [
        {
          "internalType": "uint256",
          "name": "orderId",
          "type": "uint256"
        },
        {
          "internalType": "uint256",
          "name": "initialPrice",
          "type": "uint256"
        }
      ],
      "name": "processInitialFeedResult",
      "outputs": [],
      "stateMutability": "nonpayable",
      "type": "function"
    },
    {
      "inputs": [
        {
          "internalType": "uint256",
          "name": "",
          "type": "uint256"
        }
      ],
      "name": "quotes",
      "outputs": [
        {
          "internalType": "uint256",
          "name": "quoteId",
          "type": "uint256"
        },
        {
          "internalType": "uint256",
          "name": "orderId",
          "type": "uint256"
        },
        {
          "internalType": "address",
          "name": "seller",
          "type": "address"
        },
        {
          "internalType": "enum SellerType",
          "name": "sellerType",
          "type": "uint8"
        },
        {
          "internalType": "uint256",
          "name": "premiumRate",
          "type": "uint256"
        },
        {
          "internalType": "uint256",
          "name": "premiumAmount",
          "type": "uint256"
        },
        {
          "internalType": "uint256",
          "name": "marginRate",
          "type": "uint256"
        },
        {
          "internalType": "uint256",
          "name": "marginAmount",
          "type": "uint256"
        },
        {
          "internalType": "enum LiquidationRule",
          "name": "liquidationRule",
          "type": "uint8"
        },
        {
          "internalType": "uint8",
          "name": "consecutiveDays",
          "type": "uint8"
        },
        {
          "internalType": "uint8",
          "name": "dailyLimitPercent",
          "type": "uint8"
        },
        {
          "internalType": "uint256",
          "name": "createdAt",
          "type": "uint256"
        },
        {
          "internalType": "uint256",
          "name": "expiresAt",
          "type": "uint256"
        },
        {
          "internalType": "enum QuoteStatus",
          "name": "status",
          "type": "uint8"
        }
      ],
      "stateMutability": "view",
      "type": "function"
    },
    {
      "inputs": [
        {
          "internalType": "bytes32",
          "name": "role",
          "type": "bytes32"
        },
        {
          "internalType": "address",
          "name": "callerConfirmation",
          "type": "address"
        }
      ],
      "name": "renounceRole",
      "outputs": [],
      "stateMutability": "nonpayable",
      "type": "function"
    },
    {
      "inputs": [
        {
          "internalType": "uint256",
          "name": "orderId",
          "type": "uint256"
        },
        {
          "internalType": "enum FeedTier",
          "name": "tier",
          "type": "uint8"
        }
      ],
      "name": "requestFeed",
      "outputs": [],
      "stateMutability": "payable",
      "type": "function"
    },
    {
      "inputs": [
        {
          "internalType": "bytes32",
          "name": "role",
          "type": "bytes32"
        },
        {
          "internalType": "address",
          "name": "account",
          "type": "address"
        }
      ],
      "name": "revokeRole",
      "outputs": [],
      "stateMutability": "nonpayable",
      "type": "function"
    },
    {
      "inputs": [
        {
          "internalType": "address",
          "name": "",
          "type": "address"
        },
        {
          "internalType": "uint256",
          "name": "",
          "type": "uint256"
        }
      ],
      "name": "sellerOrders",
      "outputs": [
        {
          "internalType": "uint256",
          "name": "",
          "type": "uint256"
        }
      ],
      "stateMutability": "view",
      "type": "function"
    },
    {
      "inputs": [
        {
          "internalType": "address",
          "name": "_config",
          "type": "address"
        }
      ],
      "name": "setConfig",
      "outputs": [],
      "stateMutability": "nonpayable",
      "type": "function"
    },
    {
      "inputs": [
        {
          "internalType": "address",
          "name": "_vaultManager",
          "type": "address"
        }
      ],
      "name": "setVaultManager",
      "outputs": [],
      "stateMutability": "nonpayable",
      "type": "function"
    },
    {
      "inputs": [
        {
          "internalType": "uint256",
          "name": "orderId",
          "type": "uint256"
        },
        {
          "internalType": "uint256",
          "name": "premiumRate",
          "type": "uint256"
        },
        {
          "internalType": "uint256",
          "name": "marginRate",
          "type": "uint256"
        },
        {
          "internalType": "enum LiquidationRule",
          "name": "liquidationRule",
          "type": "uint8"
        },
        {
          "internalType": "uint8",
          "name": "consecutiveDays",
          "type": "uint8"
        },
        {
          "internalType": "uint8",
          "name": "dailyLimitPercent",
          "type": "uint8"
        }
      ],
      "name": "submitQuote",
      "outputs": [
        {
          "internalType": "uint256",
          "name": "quoteId",
          "type": "uint256"
        }
      ],
      "stateMutability": "nonpayable",
      "type": "function"
    },
    {
      "inputs": [
        {
          "internalType": "bytes4",
          "name": "interfaceId",
          "type": "bytes4"
        }
      ],
      "name": "supportsInterface",
      "outputs": [
        {
          "internalType": "bool",
          "name": "",
          "type": "bool"
        }
      ],
      "stateMutability": "view",
      "type": "function"
    },
    {
      "inputs": [],
      "name": "unpause",
      "outputs": [],
      "stateMutability": "nonpayable",
      "type": "function"
    },
    {
      "inputs": [
        {
          "internalType": "uint256",
          "name": "orderId",
          "type": "uint256"
        },
        {
          "internalType": "uint256",
          "name": "amount",
          "type": "uint256"
        }
      ],
      "name": "updateOrderDividend",
      "outputs": [],
      "stateMutability": "nonpayable",
      "type": "function"
    },
    {
      "inputs": [
        {
          "internalType": "uint256",
          "name": "orderId",
          "type": "uint256"
        },
        {
          "internalType": "uint256",
          "name": "newMargin",
          "type": "uint256"
        }
      ],
      "name": "updateOrderMargin",
      "outputs": [],
      "stateMutability": "nonpayable",
      "type": "function"
    },
    {
      "inputs": [
        {
          "internalType": "uint256",
          "name": "orderId",
          "type": "uint256"
        },
        {
          "internalType": "uint256",
          "name": "deadline",
          "type": "uint256"
        }
      ],
      "name": "updateOrderMarginCallDeadline",
      "outputs": [],
      "stateMutability": "nonpayable",
      "type": "function"
    },
    {
      "inputs": [
        {
          "internalType": "uint256",
          "name": "orderId",
          "type": "uint256"
        },
        {
          "internalType": "uint256",
          "name": "newPrice",
          "type": "uint256"
        }
      ],
      "name": "updateOrderPrice",
      "outputs": [],
      "stateMutability": "nonpayable",
      "type": "function"
    },
    {
      "inputs": [
        {
          "internalType": "uint256",
          "name": "orderId",
          "type": "uint256"
        },
        {
          "internalType": "uint256",
          "name": "timestamp",
          "type": "uint256"
        }
      ],
      "name": "updateOrderSettledAt",
      "outputs": [],
      "stateMutability": "nonpayable",
      "type": "function"
    },
    {
      "inputs": [
        {
          "internalType": "uint256",
          "name": "orderId",
          "type": "uint256"
        },
        {
          "internalType": "enum OrderStatus",
          "name": "newStatus",
          "type": "uint8"
        }
      ],
      "name": "updateOrderStatus",
      "outputs": [],
      "stateMutability": "nonpayable",
      "type": "function"
    },
    {
      "inputs": [
        {
          "internalType": "uint256",
          "name": "orderId",
          "type": "uint256"
        },
        {
          "internalType": "uint256",
          "name": "price",
          "type": "uint256"
        }
      ],
      "name": "updateOrderStrikePrice",
      "outputs": [],
      "stateMutability": "nonpayable",
      "type": "function"
    },
    {
      "inputs": [],
      "name": "usdt",
      "outputs": [
        {
          "internalType": "contract IERC20",
          "name": "",
          "type": "address"
        }
      ],
      "stateMutability": "view",
      "type": "function"
    },
    {
      "inputs": [],
      "name": "vaultManager",
      "outputs": [
        {
          "internalType": "contract VaultManager",
          "name": "",
          "type": "address"
        }
      ],
      "stateMutability": "view",
      "type": "function"
    }
  ],
  "bytecode": "0x608034620000f557601f620050a138819003918201601f19168301916001600160401b03831184841017620000fa57808492608094604052833981010312620000f5578062000052620000e49262000110565b90620000616020820162000110565b906200007e6060620000766040840162000110565b920162000110565b6001808055600581905560065560028054610100600160a81b03191660089590951b610100600160a81b031694909417909355600380546001600160a01b03199081166001600160a01b0394851617909155600480549091169190921617905562000125565b50604051614eea9081620001b78239f35b600080fd5b634e487b7160e01b600052604160045260246000fd5b51906001600160a01b0382168203620000f557565b6001600160a01b031660008181527fad3228b676f7d3cd4284a5443f17f1962b36e491b30a40b2405849e597ba5fb5602052604081205490919060ff16620001b257818052816020526040822081835260205260408220600160ff1982541617905533917f2f8788117e7eff1d82e926ec794901d17c78024a50270940304540a733656f0d8180a4600190565b509056fe610280604052600436101561001357600080fd5b6000803560e01c806301d0d5b81461392857806301ffc9a7146138d157806315d92e331461388a5780631c0dd7e81461384357806320e3dbd4146137f9578063248a9ca3146137cd5780632a58b330146137af5780632f2ff15d146137725780632f48ab7d146137495780633087a88c1461341357806336568abe146133cb5780633ab3784a146131c35780633f4ba83a1461315857806342dd6d3e1461303d57806344f1eaae14612ff65780634500cb6014612fae57806345cb450514612f585780634efef6aa14612f3a5780635c975abb14612f175780635d7ffe7b14612b275780635e9e78d014612ae057806367ac0bf0146127685780636dbe75791461253a5780637203a582146120ee57806379502c55146120c15780637d900421146120345780638456cb5914611fd95780638a4adf2414611fb057806391d1485414611f65578063979b4e6d14611577578063a217fddf1461155b578063a45f2ebc146114e8578063a61cf0d414611455578063a85c38ef1461107d578063aab3196d14611010578063b543503e14610fcb578063ba9cf01d14610fa2578063bc0ef26b14610de0578063cdc65ab614610db7578063cf3fec4314610d2a578063d049bfef14610add578063d09ef24114610553578063d37e527b1461050c578063d426aec1146104c5578063d547741f14610484578063e02e34f81461035d578063e4cbac40146102da5763f7ff64261461022e57600080fd5b346102d75761023c36614366565b90825260086020526040822080548210156102d35761025b9250614671565b508054906102cf600182015460028301549260038101549460048201549260058301549160068401549060078501549160088601549460ff600a600989015498015416976040519b8c9b8c60ff8860101c169860ff808a60081c1699169760ff8460a01c169360018060a01b03169261443b565b0390f35b8280fd5b80fd5b50346102d757602080600319360112610359576001600160a01b036102fd61437c565b168252600b815260408220916040518092808554928381520194835280832092905b828210610342576102cf85610336818903826145f7565b604051918291826143d6565b83548652948501946001938401939091019061031f565b5080fd5b50346102d75761036c36614366565b81151580610479575b61037e90614b0c565b6103866146f5565b81835260076020526040832090601582019182549260ff8460101c1691600b831015610465576002830361042057600080516020614e55833981519152948460198360c097600a62040000960155015562ff000019161790556103ec6040518092614664565b6004602082015260806040820152600c60808201526b1a5b9a5d1a585b081999595960a21b60a0820152426060820152a280f35b60405162461bcd60e51b815260206004820152601e60248201527f4f7074696f6e73436f72653a206f72646572206e6f74206d61746368656400006044820152606490fd5b634e487b7160e01b87526021600452602487fd5b506005548210610375565b50346102d75760403660031901126102d7576104c16004356104a4614392565b90808452836020526104bc600160408620015461472f565b6147d3565b5080f35b50346102d7576104d436614366565b9080151580610501575b6104e790614b0c565b6104ef61468d565b82526007602052600a60408320015580f35b5060055481106104de565b50346102d75761051b36614366565b9080151580610548575b61052e90614b0c565b61053661468d565b82526007602052601460408320015580f35b506005548110610525565b50346102d75760203660031901126102d75780610420604051610575816145db565b82815282602082015282604082015260608082015260606080820152606060a0820152606060c0820152606060e08201528261010082015282610120820152826101408201528261016082015282610180820152826101a0820152826101c0820152826101e08201528261020082015282610220820152826102408201528261026082015282610280820152826102a0820152826102c0820152826102e08201528261030082015282610320820152826103408201528261036082015282610380820152826103a0820152826103c0820152826103e0820152826104008201520152600435815260076020526040812060405191610672836145db565b8154835260018201546001600160a01b039081166020850152600283015416604080850191909152516106b3816106ac8160038701614500565b03826145f7565b60608401526040516106cc816106ac8160048701614500565b60808401526040516106e5816106ac8160058701614500565b60a08401526040516106fe816106ac8160068701614500565b60c0840152604051610717816106ac8160078701614500565b60e084015260ff60088301541661072d8161465a565b6101008401526009820154610120840152600a820154610140840152600b820154610160840152600c820154610180840152600d8201546101a0840152600e8201546101c0840152600f8201546101e08401526010820154610200840152601182015461022084015260128201546107a760ff8216614411565b60ff811661024085015260ff8160081c1661026085015260ff8160101c1661028085015260ff8160181c166102a08501526107e760ff8260201c16614411565b60ff8160201c166102c085015260018060a01b039060281c166102e08401526013820154610300840152601482015461032084015260158201549060ff8216151561034085015261083d60ff8360081c1661465a565b60ff8260081c16610360850152600b60ff8360101c161015610ac957509060ff601a9260101c1661038084015260168101546103a084015260178101546103c084015260188101546103e0840152601981015461040084015201546104208201526040518091602082528051602083015260018060a01b03602082015116604083015260018060a01b0360408201511660608301526104206109536108f36060840151610440608087015261046086019061461a565b61093d610929610915608087015193601f1994858a83030160a08b015261461a565b60a0870151848983030160c08a015261461a565b60c0860151838883030160e089015261461a565b9060e0850151908683030161010087015261461a565b916101008101516109638161465a565b6101208501526101208101516101408501526101408101516101608501526101608101516101808501526101808101516101a08501526101a08101516101c08501526101c08101516101e08501526101e08101516102008501526102008101516102208501526102208101516102408501526102408101516109e481614411565b61026085015260ff6102608201511661028085015260ff610280820151166102a085015260ff6102a0820151166102c08501526102c0810151610a2681614411565b6102e085015260018060a01b036102e0820151166103008501526103008101516103208501526103208101516103408501526103408101511515610360850152610360810151610a758161465a565b610380850152610a8f6103808201516103a0860190614664565b6103a08101516103c08501526103c08101516103e08501526103e08101516104008501526104008101518285015201516104408301520390f35b634e487b7160e01b81526021600452602490fd5b50346102d757602090816003193601126102d757600435815260088083526040822080549093906001600160401b038111610d165791849192604051916005610b2a8684831b01856145f7565b82845285840191829588528688209188935b858510610c39575050505050506040519280840191818552518092526040840192945b828110610b6c5784840385f35b909192826101c06001928851805182528381015184830152848060a01b03604082015116604083015260608082015190610ba582614411565b8301526080808201519083015260a0808201519083015260c0808201519083015260e081015160e08301526101008082015190610be182614411565b83015260ff6101208181840151169084015261014090818301511690830152610160808201519083015261018080820151908301526101a08091015190610c2782614431565b82015201960191019492919094610b5f565b600b8960019260409c9b999a9c51610c50816145bf565b8754815284880154838201526002880154858060a01b038116604083015260ff908160a091821c16610c8181614411565b606084015260038a0154608084015260048a0154908301528689015460c0830152600689015460e08301528060078a0154818116610cbe81614411565b61010085015281818b1c1661012085015260101c16610140830152878901546101608301526009890154610180830152600a89015416610cfd81614431565b6101a08201528152019401940193929896959798610b3c565b634e487b7160e01b84526041600452602484fd5b50346102d757602080600319360112610359576004356001600160401b0381116102d357610d5d82913690600401614329565b91908260405193849283378101600c815203019020916040518092808554928381520194835280832092905b828210610da0576102cf85610336818903826145f7565b835486529485019460019384019390910190610d89565b50346102d757806003193601126102d7576020604051600080516020614e358339815191528152f35b50346102d757602080600319360112610359576004359081151580610f97575b610e0990614b0c565b81835260078152610e2a60018060a01b036001604086200154163314614a4d565b610e32614a2a565b610e3a614a0c565b818352600781526015604084200160ff815460101c16600b81101580610f835781158015610f76575b15610f2257610f0e57600080516020614e5583398151915292610ed960ff936001600a9414610f00575b805490620a000062ff000019831617905586600080516020614e158339815191526040516040815280610ec260408201614b58565b42888301520390a260405194859160101c16614664565b8201526080604082015280610ef060808201614b58565b4260608301520390a26001805580f35b610f0987614ba5565b610e8d565b634e487b7160e01b85526021600452602485fd5b60405162461bcd60e51b815260048101859052602660248201527f4f7074696f6e73436f72653a2063616e6e6f742063616e63656c206166746572604482015265040dac2e8c6d60d31b6064820152608490fd5b5050600060018214610e63565b634e487b7160e01b86526021600452602486fd5b506005548210610e00565b50346102d757806003193601126102d7576020604051600080516020614dd58339815191528152f35b50346102d75760203660031901126102d757610fe561437c565b610fed6146f5565b600380546001600160a01b0319166001600160a01b039290921691909117905580f35b50346102d75760403660031901126102d757602435600435600b8210156102d35780151580611072575b61104390614b0c565b61104b61468d565b82526007602052601560408320019062ff000082549160101b169062ff0000191617905580f35b50600554811061103a565b50346102d75760203660031901126102d757600435815260076020526040908190206101a081905280546102005260018101546001600160a01b039081166101405260028201549251610120819052921691906110de908290600301614500565b0361012051906110ed916145f7565b60405180806101a0516004019061110391614500565b0361110e90826145f7565b6040519182806101a0516005019061112591614500565b0361113090846145f7565b6040519182806101a0516006019061114791614500565b0361115290846145f7565b6040519384806101a0516007019061116991614500565b0361117490866145f7565b6101a05193600885015460ff166101e052600985015495600a860154600b87015491600c88015493600d89015495600e8a015497600f8b01549960108c01549b6011810154608052601281015460a05260138101546101005260148101546101c052601581015461018052601681015460e052601781015460c052601881015461022052601981015461024052601a015461016052604051806102605261020051905261014051610260516020015261026051604001526104408061026051606001526102605101610120519061124a9161461a565b61026051808203906080015261125f9161461a565b610260518082039060a001526112749161461a565b610260518082039060c001526112899161461a565b610260518082039060e0015261129e9161461a565b976101e0516112ac9061465a565b6101e051610260516101000152610260516101200152610260516101400152610260516101600152610260516101800152610260516101a00152610260516101c00152610260516101e0015261026051610200015260805161026051610220015260a05160ff1661131c90614411565b60a05160ff1661026051610240015260a05160081c60ff1661026051610260015260a05160101c60ff1661026051610280015260a05160181c60ff16610260516102a0015260a05160201c60ff1661137390614411565b60a05160201c60ff16610260516102c00152600160a01b6001900360a05160281c16610260516102e00152610100516102605161030001526101c0516102605161032001526101805160ff1615156102605161034001526101805160081c60ff166113dd9061465a565b6101805160081c60ff1661026051610360015261026051610380016101805160101c60ff169061140c91614664565b60e051610260516103a0015260c051610260516103c0015261022051610260516103e0015261024051610260516104000152610160516102605161042001526102605180910390f35b50346102d75760203660031901126102d75760409060043581526009602052208054906102cf600182015460028301549260038101549460048201549260058301549160068401549060078501549160088601549460ff600a600989015498015416976040519b8c9b8c60ff8860101c169860ff808a60081c1699169760ff8460a01c169360018060a01b03169261443b565b50346102d757602080600319360112610359576001600160a01b0361150b61437c565b168252600a815260408220916040518092808554928381520194835280832092905b828210611544576102cf85610336818903826145f7565b83548652948501946001938401939091019061152d565b50346102d757806003193601126102d757602090604051908152f35b50346102d7576102603660031901126102d7576004356001600160401b038111610359576115a9903690600401614329565b6024356001600160401b038111611f61576115c8903690600401614329565b906044356001600160401b038111611f11576115e8903690600401614329565b906064356001600160401b038111611f5d57611608903690600401614329565b906084356001600160401b038111611f5957611628903690600401614329565b999098600260a435101561035957600361014435101561035957610164356001600160a01b0381169003611f415761165e614356565b60036101e43510156102d35760ff61020435166102043503611f415760ff61022435166102243503611f415760026102443510156102d35761169e614a2a565b6116a6614a0c565b6116b360c4351515614848565b6116c04260e435116148a3565b600354600480546002546040516337382d3960e21b8152936001600160a01b0390811693928116926020928692839160081c165afa928315611f4e578693611f15575b50813b15611f1157918591611730938360405180968195829463ec185a0760e01b845233600485016148fd565b03925af18015611f0657908491611ef2575b5050600554996117518b614943565b6005558a84526007602052604084208b81556001810180546001600160a01b03191633179055926001600160401b038211611ede57819061179560038601546144c6565b601f8111611e8d575b508590601f8311600114611e21578692611e16575b50508160011b916000199060031b1c19161760038301555b6001600160401b038911611bd2576117e660048301546144c6565b601f8111611dd1575b508883601f8211600114611d65578491611d5a575b508960011b906000198b60031b1c19161760048301555b6001600160401b038711611bd25761183660058301546144c6565b601f8111611d15575b508683601f8211600114611cab578491611ca0575b508760011b906000198960031b1c19161760058301555b6001600160401b038511611bd25761188660068301546144c6565b601f8111611c5b575b508483601f8211600114611bf1578491611be6575b508560011b906000198760031b1c19161760068301555b6001600160401b038c11611bd2576118d660078301546144c6565b9b601f8d11611b89575b60209c50839b601f8211600114611af6579a611a62968e829e97611a32611a7a9f859f9e9c978a859f9b9a6040928a8a9f9b611a4a9c8a9f978d9892611aeb575b50508160011b916000199060031b1c19161760078301555b61194860a43560088401614968565b60c435600983015560e435600b830155610104356011830155610124356010830155611a086012830161197d61014435614411565b8054600160281b600160c81b036101643560281b1660ff6101443581168d1b60018e1b600160c81b0319909316929092171782556101843560138601556101a435601486015560158501805460ff1916941515909116939093178355805463ff000000191681556119f16101e43582614980565b6119fe610204358261498a565b61022435906149a0565b611a1561024435826149b8565b62ff0000198154169055601642910155338152600a8652206149d7565b8260405193849283378101600c8152030190206149d7565b8260405193849283378101600d8152030190206149d7565b8260405193849283378101600e8152030190206149d7565b60405160018152428382015281600080516020614e7583398151915260403393a380600080516020614e5583398151915260c06040516000815260008682015260806040820152600760808201526618dc99585d195960ca1b60a0820152426060820152a260018055604051908152f35b013590503880611921565b6007840185528d852090859d8e5b601f19851611611b71578f9a968e9f5097611a32611a7a9f9e9d9b968f9a6040908f9a8d9893611a629f988b8b968f9a92600193611a4a9f601f19811610611b57575b505050811b016007830155611939565b0135600019600384901b60f8161c19169055388080611b47565b918f600181928585013581550193019e019d8e611b04565b60078301845260208420601f820160051c810160208310611bcb575b601f8f5b0160051c82018110611bbc5750506118e0565b60008155600101601f8f611ba9565b5080611ba5565b634e487b7160e01b83526041600452602483fd5b9050840135386118a4565b600684018552602085209150845b601f1988168110611c43575086601f19811610611c29575b5050600185811b0160068301556118bb565b850135600019600388901b60f8161c191690553880611c17565b9091602060018192858a013581550193019101611bff565b60068301845260208420601f870160051c810160208810611c99575b601f830160051c82018110611c8d57505061188f565b60008155600101611c77565b5080611c77565b905086013538611854565b600584018552602085209150845b601f198a168110611cfd575088601f19811610611ce3575b5050600187811b01600583015561186b565b87013560001960038a901b60f8161c191690553880611cd1565b9091602060018192858c013581550193019101611cb9565b60058301845260208420601f890160051c810160208a10611d53575b601f830160051c82018110611d4757505061183f565b60008155600101611d31565b5080611d31565b905088013538611804565b600484018552602085209150845b8a601f198d168210611db95750508a601f19811610611d9f575b5050600189811b01600483015561181b565b89013560001960038c901b60f8161c191690553880611d8d565b60018394602093948493013581550193019101611d73565b60048301845260208420601f8b0160051c810160208c10611e0f575b601f830160051c82018110611e035750506117ef565b60008155600101611ded565b5080611ded565b0135905038806117b3565b60038601875260208720879450915b601f1984168510611e75576001945083601f19811610611e5b575b505050811b0160038301556117cb565b0135600019600384901b60f8161c19169055388080611e4b565b81810135835560209485019460019093019201611e30565b90915060038501865260208620601f840160051c810160208510611ed7575b90849392915b601f830160051c82018110611ec857505061179e565b60008155859450600101611eb2565b5080611eac565b634e487b7160e01b85526041600452602485fd5b611efb90614596565b6102d3578238611742565b6040513d86823e3d90fd5b8580fd5b9092506020813d602011611f46575b81611f31602093836145f7565b81010312611f4157519138611703565b600080fd5b3d9150611f24565b6040513d88823e3d90fd5b8980fd5b8780fd5b8380fd5b50346102d75760403660031901126102d7576040611f81614392565b91600435815280602052209060018060a01b0316600052602052602060ff604060002054166040519015158152f35b50346102d757806003193601126102d7576003546040516001600160a01b039091168152602090f35b50346102d757806003193601126102d757611ff26146f5565b611ffa614a0c565b600160ff1960025416176002557f62e78cea01bee320cd4e420270b5ea74000d11b0c9f74754ebdbfc544b05a2586020604051338152a180f35b50346102d757602080600319360112610359576004356001600160401b0381116102d35761206782913690600401614329565b91908260405193849283378101600d815203019020916040518092808554928381520194835280832092905b8282106120aa576102cf85610336818903826145f7565b835486529485019460019384019390910190612093565b50346102d757806003193601126102d75760025460405160089190911c6001600160a01b03168152602090f35b50346102d75760c03660031901126102d757600360643510156102d75760843560ff81168103611f415760a4359060ff82168203611f415760043515158061252d575b61213a90614b0c565b612142614a2a565b61214a614a0c565b60043583526007602052604083209060ff601583015460101c16600b811015610f0e578015908115612522575b50156124cd576009820154906127106121a18161219660243586614a92565b049360443590614a92565b049060118401548061246f575b5060108401546044351061242b5760035460045487916001600160a01b039182169116803b156102d3578483916121fd9383604051809681958294630ac94d9360e31b84523360048501614aa5565b03925af180156124205761240c575b50506006549461221b86614943565b6006556002546040516306a15d6d60e11b8152906020908290600490829060081c6001600160a01b03165afa9081156124015788916123ce575b5060ff92612264849242614b7a565b9460405196612272886145bf565b89885260043560208901523360408901528a6060890152602435608089015260a088015260443560c088015260e08701526122ae606435614411565b606435610100870152166101208501521661014083015242610160830152610180820152836101a082015282845260096020526122ee8160408620614ce4565b6004358452600860205260408420805490600160401b8210156123ba579061231b91600182018155614671565b6123a6579061232991614ce4565b601581015460ff8160101c16600b811015610f0e57602094501561238e575b5050604051602435815242838201528133917f878fe3f9bca373e42473c1f3ad3c9c35c4f1ecaf9a5f081a801a3fbd43049f55604060043592a460018055604051908152f35b6201000060159162ff00001916179101553880612348565b634e487b7160e01b85526004859052602485fd5b634e487b7160e01b86526041600452602486fd5b90506020813d6020116123f9575b816123e9602093836145f7565b81010312611f41575160ff612255565b3d91506123dc565b6040513d8a823e3d90fd5b61241590614596565b611f1157853861220c565b6040513d84823e3d90fd5b606460405162461bcd60e51b815260206004820152602060248201527f4f7074696f6e73436f72653a206d617267696e207261746520746f6f206c6f776044820152fd5b6024351161247d57386121ae565b60405162461bcd60e51b815260206004820152602260248201527f4f7074696f6e73436f72653a207072656d69756d207261746520746f6f2068696044820152610ced60f31b6064820152608490fd5b60405162461bcd60e51b815260206004820152602760248201527f4f7074696f6e73436f72653a206f72646572206e6f7420616363657074696e676044820152662071756f74657360c81b6064820152608490fd5b600191501438612177565b5060055460043510612131565b5060403660031901126102d75760243560043560038210156102d3578015158061275d575b61256890614b0c565b808352600760205261258a60018060a01b036001604086200154163314614a4d565b612592614a2a565b61259a614a0c565b808352600760205260408320601581019283549360ff8560101c1690600b82101561046557600282036126bf57600080516020614e5583398151915260c0600080516020614df58339815191529594938793620300008b9a62ff000019161790556126086040518092614664565b600360208201526080604082015260166080820152751a5b9a5d1a585b0819995959081c995c5d595cdd195960521b60a0820152426060820152a25b60098201549061268a6040519360e08552600661267b61266a60e0880160048501614500565b878103602089015260058401614500565b91868303604088015201614500565b9561269481614431565b60608401526126a281614411565b608083015260a08201524260c08201528033940390a36001805580f35b50909350600581036126e45750600080516020614df583398151915290600293612644565b60040361270357600080516020614df583398151915290600193612644565b60405162461bcd60e51b815260206004820152602c60248201527f4f7074696f6e73436f72653a20696e76616c69642073746174757320666f722060448201526b19995959081c995c5d595cdd60a21b6064820152608490fd5b50600554811061255f565b50346102d757602080600319360112610359576004359081151580612ad5575b61279190614b0c565b612799614a2a565b6127a1614a0c565b8183526007815260408320601581019182549360ff8560101c1692600b8410156104655783612a92576002810180546001600160a01b03969193919087168015612a4d5733146129fc576001830180546001600160a01b0319163317815562ff000019909816620200001790554260178301556009820154600254604051631c03be3560e31b81528a92909187908390600490829060081c8d165afa9182156129b95783926129c8575b506127109161285991614a92565b0487600354168860045416600d860154823b156129c45761289492859283604051809681958294630ac94d9360e31b84523360048501614aa5565b03925af19081156129b95783916129a5575b5050876003541690886004541690823b15611f61576128df9284928360405180968195829463ec185a0760e01b84523360048501614ac7565b03925af1801561242057612987575b50509185600080516020614e558339815191529660c096959361291d600296338d52600a875260408d206149d7565b549854169154169087600080516020614e9583398151915284604051428152a461294a6040518094614664565b8201526080604082015260156080820152741cd95b1b195c881bdc99195c881858d8d95c1d1959605a1b60a0820152426060820152a26001805580f35b61299690969593949296614596565b611f5d579190929387386128ee565b6129ae90614596565b6103595781386128a6565b6040513d85823e3d90fd5b8480fd5b925090508582813d81116129f5575b6129e181836145f7565b81010312611f41579051899161285961284b565b503d6129d7565b60405162461bcd60e51b8152600481018690526024808201527f4f7074696f6e73436f72653a2063616e6e6f7420616363657074206f776e206f604482015263393232b960e11b6064820152608490fd5b60405162461bcd60e51b815260048101879052601f60248201527f4f7074696f6e73436f72653a206e6f7420612073656c6c6572206f72646572006044820152606490fd5b6064836040519062461bcd60e51b825280600483015260248201527f4f7074696f6e73436f72653a206f72646572206e6f7420617661696c61626c656044820152fd5b506005548210612788565b50346102d757612aef36614366565b9080151580612b1c575b612b0290614b0c565b612b0a61468d565b82526007602052601960408320015580f35b506005548110612af9565b50346102d7576020806003193601126103595760043590612b46614a2a565b612b4e614a0c565b818352600981526040832060ff90600a92828483015416612b6e81614431565b612ed35760098201544211612e92576001948583015487526007825260408720948686019560018060a01b0390612ba9828954163314614a4d565b60158101938454946202000062ff0000198716179055600296878101948c85875416968a86019760018060a01b0319895416178855612c2f600760048601958654600d8a0155600681015480600e8b0155600f8a0155018d8082541691612c1460128b019384614980565b612c2482825460081c168461498a565b5460101c16906149a0565b42601787015560048b8b8960098a0154925460081c1660405193848092631c03be3560e31b82525afa918215611f06578492612e5e575b5061271091612c7491614a92565b049387600354169088600454169054823b156129c457612cae92859283604051809681958294630ac94d9360e31b84523360048501614aa5565b03925af19081156129b9578391612e4a575b5050866003541693876004541690853b15611f6157612cf99584928360405180998195829463ec185a0760e01b84523360048501614ac7565b03925af1908115612420578e948892612e2f575b5054168152600b8952604090208454612d25916149d7565b83548d526008885260408d208d835b612dbd575b505050505092600080516020614e5583398151915296949282612d899360c09896549a54169154169089600080516020614e9583398151915286604051428152a460405194859160101c16614664565b82015260806040820152600e60808201526d1c5d5bdd19481858d8d95c1d195960921b60a0820152426060820152a2805580f35b8154811015612e2a578085612dd5612de89385614671565b5054141580612e0a575b612dee57614943565b83612d34565b83612df98285614671565b5001805460ff19168d179055614943565b508c84612e178386614671565b50015416612e2481614431565b15612ddf565b612d39565b612e3d919550839250614596565b6102d757858d9338612d0d565b612e5390614596565b610359578138612cc0565b935090508a83813d8111612e8b575b612e7781836145f7565b81010312611f415791518f92612c74612c66565b503d612e6d565b6064906040519062461bcd60e51b82526004820152601a60248201527913dc1d1a5bdb9cd0dbdc994e881c5d5bdd1948195e1c1a5c995960321b6044820152fd5b6064906040519062461bcd60e51b82526004820152601d60248201527f4f7074696f6e73436f72653a2071756f7465206e6f74206163746976650000006044820152fd5b50346102d757806003193601126102d757602060ff600254166040519015158152f35b50346102d757806003193601126102d7576020600654604051908152f35b50346102d75760403660031901126102d757612f7261437c565b6001600160a01b03168152600b60205260408120805460243592908310156102d7576020612fa084846143a8565b90546040519160031b1c8152f35b50346102d75760403660031901126102d757612fc861437c565b6001600160a01b03168152600a60205260408120805460243592908310156102d7576020612fa084846143a8565b50346102d75761300536614366565b9080151580613032575b61301890614b0c565b61302061468d565b82526007602052601a60408320015580f35b50600554811061300f565b50346102d75761304c36614366565b8115158061314d575b61305e90614b0c565b6130666146f5565b81835260076020526040832090601582019182549260ff8460101c1691600b83101561046557600483148015613143575b1561310057600080516020614e558339815191529460c09460196206000093015562ff000019161790556130ce6040518092614664565b6006602082015260806040820152600a608082015269199a5b985b081999595960b21b60a0820152426060820152a280f35b60405162461bcd60e51b815260206004820152601b60248201527a4f7074696f6e73436f72653a20696e76616c69642073746174757360281b6044820152606490fd5b5060058314613097565b506005548210613055565b50346102d757806003193601126102d7576131716146f5565b60025460ff8116156131b15760ff19166002557f5db9ee0a495bf2e6ff9c91a7834c1ba4fdd244a5e8aa4e537bd38aeae4b073aa6020604051338152a180f35b604051638dfc202b60e01b8152600490fd5b50346102d7576020806003193601126103595760043590811515806133c0575b6131ec90614b0c565b6131f4614a2a565b6131fc614a0c565b8183526007815260408320601581019060ff825460101c1690600b821015908161046557821580156133b2575b1561336d5760160154600254604051634f6bfad760e01b8152919086908390600490829060081c6001600160a01b03165afa90811561240157889161333c575b6132739250614b7a565b4211156132f957610f0e57600080516020614e55833981519152926132d460ff936001600a94146132eb575b805490620a000062ff000019831617905586600080516020614e158339815191526040516040815280610ec260408201614b87565b8201526080604082015280610ef060808201614b87565b6132f487614ba5565b61329f565b6064846040519062461bcd60e51b825280600483015260248201527f4f7074696f6e73436f72653a20524651206e6f742065787069726564207965746044820152fd5b90508582813d8311613366575b61335381836145f7565b81010312611f4157613273915190613269565b503d613349565b60405162461bcd60e51b815260048101869052601d60248201527f4f7074696f6e73436f72653a206e6f7420696e205246512070686173650000006044820152606490fd5b506000915060018314613229565b5060055482106131e3565b50346102d75760403660031901126102d7576133e5614392565b336001600160a01b03821603613401576104c1906004356147d3565b60405163334bd91960e11b8152600490fd5b50346102d75760603660031901126102d757600435602480356004811015611f6157604435908315158061373e575b61344b90614b0c565b3360009081527f3f8d9a030d334798d6aece9c5bcc7646b3f51f8740e76f47846d18cc4a1a8e4e6020908152604090912054909290600080516020614e358339815191529060ff1615613721575084865260078352604086209181156136e0576134b481614431565b806135c8575090601581019182549160ff8360101c1695600b8710156135b6576002871480156135ac575b1561355a5750600a81018290556019015562ff0000191662040000179055604051600080516020614e558339815191529260c092600491613521908490614664565b820152608060408201526015608082015274696e697469616c20666565642063616c6c6261636b60581b60a0820152426060820152a280f35b8560266084926040519262461bcd60e51b845260048401528201527f4f7074696f6e73436f72653a206e6f74206177616974696e6720696e697469616044820152651b081999595960d21b6064820152fd5b50600387146134df565b634e487b7160e01b8952602160045288fd5b806135d4600292614431565b146135e2575b505050505080f35b601582019081549060ff8260101c1695600b8710156135b6576004871480156136d6575b156136875750601984015562ff000019166206000017905542601890910155604051600080516020614e558339815191529260c092600691613649908490614664565b82015260806040820152601360808201527266696e616c20666565642063616c6c6261636b60681b60a0820152426060820152a238808080806135da565b856084916040519162461bcd60e51b83526004830152808201527f4f7074696f6e73436f72653a206e6f74206177616974696e672066696e616c206044820152631999595960e21b6064820152fd5b5060058714613606565b60405162461bcd60e51b815260048101859052601a81870152794f7074696f6e73436f72653a20696e76616c696420707269636560301b6044820152606490fd5b846044916040519163e2517d3f60e01b8352336004840152820152fd5b506005548410613442565b50346102d757806003193601126102d7576004546040516001600160a01b039091168152602090f35b50346102d75760403660031901126102d7576104c1600435613792614392565b90808452836020526137aa600160408620015461472f565b614755565b50346102d757806003193601126102d7576020600554604051908152f35b50346102d75760203660031901126102d757600160406020926004358152808452200154604051908152f35b50346102d75760203660031901126102d75761381361437c565b61381b6146f5565b60028054610100600160a81b03191660089290921b610100600160a81b031691909117905580f35b50346102d75761385236614366565b908015158061387f575b61386590614b0c565b61386d61468d565b82526007602052600f60408320015580f35b50600554811061385c565b50346102d75761389936614366565b90801515806138c6575b6138ac90614b0c565b6138b461468d565b82526007602052601860408320015580f35b5060055481106138a3565b50346102d75760203660031901126102d75760043563ffffffff60e01b811680910361035957602090637965db0b60e01b8114908115613917575b506040519015158152f35b6301ffc9a760e01b1490508261390c565b50346102d7576102203660031901126102d7576004356001600160401b0381116103595761395a903690600401614329565b90916024356001600160401b0381116103595761397b903690600401614329565b93906044356001600160401b038111611f615761399c903690600401614329565b906064356001600160401b038111611f11576139bc903690600401614329565b90946084356001600160401b038111611f5d576139dd903690600401614329565b600260a43510156143255760036101443510156143255760ff610164351661016435036143255760ff6101843516610184350361432557613a1c614356565b9160ff6101e435166101e43503611f59576002610204351015611f5957613a41614a2a565b613a49614a0c565b613a5660c4351515614848565b613a634260e435116148a3565b600354600480546002546040516337382d3960e21b8152936001600160a01b0390811693928116926020928692839160081c165afa92831561431a578d936142e6575b50813b156142e257918c91613ad3938360405180968195829463ec185a0760e01b845233600485016148fd565b03925af180156142c0576142cf575b506003546004546001600160a01b039182169116813b156142cb57613b268c928392604051948580948193630ac94d9360e31b835261012435903360048501614aa5565b03925af180156142c057908b916142ac575b50506005549a613b478c614943565b6005558b8b52600760205260408b208c81556002810180546001600160a01b03191633179055946001600160401b038211614298578190613b8b60038801546144c6565b601f8111614247575b508c90601f83116001146141db578d926141d0575b50508160011b916000199060031b1c19161760038501555b6001600160401b038c11613f8657613bdc60048501546144c6565b601f811161418a575b508b8a601f821160011461411b578b91614110575b5060001960038e901b1c191660018d901b1760048501555b6001600160401b038711613f8657613c2d60058501546144c6565b601f81116140cb575b50868a601f8211600114614061578b91614056575b508760011b906000198960031b1c19161760058501555b6001600160401b038511613f8657613c7d60068501546144c6565b601f8111614011575b50848a601f8211600114613fa5578b91613f9a575b508560011b906000198760031b1c19161760068501555b6001600160401b038211613f8657613ccd60078501546144c6565b601f8111613f41575b509260209b9694928a928c9997958490601f8311600114613e9557958f613e0d9d611a328e60408a859f9e9b9a611a629e9a8a859f9b869b8a9f9d611a4a9e92613e8a575b50508160011b916000199060031b1c19161760078301555b613d4260a43560088401614968565b60c435600983015560e435600b830155612710613d646101043560c435614a92565b04600d83015561012435600e83015561012435600f83015560128201613d8d6101443582614980565b613d9a610164358261498a565b613da761018435826149a0565b6101a4356013840155613dca6015840192839060ff801983541691151516179055565b805463ff00000019166101e43560181b63ff00000016179055613df061020435826149b8565b62ff0000198154169055601642910155338152600b8652206149d7565b604051908152428382015281600080516020614e7583398151915260403393a380600080516020614e5583398151915260c0604051600081526000868201526080604082015260146080820152731cd95b1b195c881bdc99195c8818dc99585d195960621b60a0820152426060820152a260018055604051908152f35b013590503880613d1b565b9b94939291906007840185528f852090855b601f1984168110613f0f575060209a9996611a32613e0d9f8f9a948e99611a629d99611a4a9960018f9a6040958f9a978d9883601f19811610613ef5575b505050811b016007830155613d33565b0135600019600384901b60f8161c19169055388080613ee5565b9295509396989a9c929597999b508f600181928686013581550194019101928d94918f9c9a9896939d9b999794613ea7565b600785018b5260208b20601f840160051c810160208510613f7f575b601f830160051c82018110613f73575050613cd6565b60008155600101613f5d565b5080613f5d565b634e487b7160e01b8a52604160045260248afd5b905089013538613c9b565b600686018c5260208c2091508b5b8b601f1989168210613ff957505086601f19811610613fdf575b5050600185811b016006850155613cb2565b8a0135600019600388901b60f8161c191690553880613fcd565b60018394602093948493013581550193019101613fb3565b600685018b5260208b20601f870160051c81016020881061404f575b601f830160051c82018110614043575050613c86565b6000815560010161402d565b508061402d565b905086013538613c4b565b600586018c5260208c2091508b5b601f198a1681106140b3575088601f19811610614099575b5050600187811b016005850155613c62565b87013560001960038a901b60f8161c191690553880614087565b9091602060018192858c01358155019301910161406f565b600585018b5260208b20601f890160051c810160208a10614109575b601f830160051c820181106140fd575050613c36565b600081556001016140e7565b50806140e7565b905088013538613bfa565b600486018c5260208c2091508b8e5b8b601f19821683106141705750601f198116109050614156575b505060018c811b016004850155613c12565b89013560001960038f901b60f8161c191690553880614144565b60018495602093949584930135815501940192019061412a565b600485018b5260208b208d6020601f820160051c830191106141c9575b601f830160051c820181106141bd575050613be5565b600081556001016141a7565b50806141a7565b013590503880613ba9565b600388018e5260208e208e9450915b601f198416851061422f576001945083601f19811610614215575b505050811b016003850155613bc1565b0135600019600384901b60f8161c19169055388080614205565b818101358355602094850194600190930192016141ea565b909150600387018d5260208d20601f840160051c810160208510614291575b90849392915b601f830160051c82018110614282575050613b94565b6000815585945060010161426c565b5080614266565b634e487b7160e01b8c52604160045260248cfd5b6142b590614596565b611f59578938613b38565b6040513d8d823e3d90fd5b8b80fd5b6142db909a919a614596565b9838613ae2565b8c80fd5b9092506020813d602011614312575b81614302602093836145f7565b810103126142e257519138613aa6565b3d91506142f5565b6040513d8f823e3d90fd5b8880fd5b9181601f84011215611f41578235916001600160401b038311611f415760208381860195010111611f4157565b6101c435908115158203611f4157565b6040906003190112611f41576004359060243590565b600435906001600160a01b0382168203611f4157565b602435906001600160a01b0382168203611f4157565b80548210156143c05760005260206000200190600090565b634e487b7160e01b600052603260045260246000fd5b6020908160408183019282815285518094520193019160005b8281106143fd575050505090565b8351855293810193928101926001016143ef565b6003111561441b57565b634e487b7160e01b600052602160045260246000fd5b6004111561441b57565b9b99979593919e9d9c9a98969492909e6101c08d019f8d5260208d0152600160a01b600190031660408c015261447081614411565b60608b015260808a015260a089015260c088015260e087015261449281614411565b61010086015260ff1661012085015260ff166101408401526101608301526101808201526144bf82614431565b6101a00152565b90600182811c921680156144f6575b60208310146144e057565b634e487b7160e01b600052602260045260246000fd5b91607f16916144d5565b9060009291805491614511836144c6565b9182825260019384811690816000146145735750600114614533575b50505050565b90919394506000526020928360002092846000945b83861061455f57505050500101903880808061452d565b805485870183015294019385908201614548565b9294505050602093945060ff191683830152151560051b0101903880808061452d565b6001600160401b0381116145a957604052565b634e487b7160e01b600052604160045260246000fd5b6101c081019081106001600160401b038211176145a957604052565b61044081019081106001600160401b038211176145a957604052565b601f909101601f19168101906001600160401b038211908210176145a957604052565b919082519283825260005b848110614646575050826000602080949584010152601f8019910116010190565b602081830181015184830182015201614625565b6002111561441b57565b90600b82101561441b5752565b80548210156143c057600052600b602060002091020190600090565b3360009081527fdd53df7e4642f4e3d9dededdac02355f2e876e2a9b7ef4e260af8d6fd7b332576020526040902054600080516020614dd58339815191529060ff16156146d75750565b6044906040519063e2517d3f60e01b82523360048301526024820152fd5b3360009081527fad3228b676f7d3cd4284a5443f17f1962b36e491b30a40b2405849e597ba5fb5602052604081205460ff16156146d75750565b80600052600060205260406000203360005260205260ff60406000205416156146d75750565b9060009180835282602052604083209160018060a01b03169182845260205260ff604084205416156000146147ce57808352826020526040832082845260205260408320600160ff198254161790557f2f8788117e7eff1d82e926ec794901d17c78024a50270940304540a733656f0d339380a4600190565b505090565b9060009180835282602052604083209160018060a01b03169182845260205260ff6040842054166000146147ce5780835282602052604083208284526020526040832060ff1981541690557ff6391f5c32d9c69d2a47ea670b442974b53935d1edc7fd64eb21e047a839171b339380a4600190565b1561484f57565b60405162461bcd60e51b815260206004820152602660248201527f4f7074696f6e73436f72653a206e6f74696f6e616c206d75737420626520706f60448201526573697469766560d01b6064820152608490fd5b156148aa57565b60405162461bcd60e51b815260206004820152602560248201527f4f7074696f6e73436f72653a20657870697279206d75737420626520696e2066604482015264757475726560d81b6064820152608490fd5b6001600160a01b039182168152911660208201526040810191909152608060608201819052600c908201526b6372656174696f6e5f66656560a01b60a082015260c00190565b60001981146149525760010190565b634e487b7160e01b600052601160045260246000fd5b906149728161465a565b60ff80198354169116179055565b9061497281614411565b9061ff0082549160081b169061ff001916179055565b9062ff000082549160101b169062ff00001916179055565b906149c28161465a565b61ff0082549160081b169061ff001916179055565b8054600160401b8110156145a9576149f4916001820181556143a8565b819291549060031b91821b91600019901b1916179055565b60ff60025416614a1857565b60405163d93c066560e01b8152600490fd5b600260015414614a3b576002600155565b604051633ee5aeb560e01b8152600490fd5b15614a5457565b60405162461bcd60e51b815260206004820152601660248201527527b83a34b7b739a1b7b9329d103737ba10313abcb2b960511b6044820152606490fd5b8181029291811591840414171561495257565b6001600160a01b03918216815291166020820152604081019190915260600190565b6001600160a01b039182168152911660208201526040810191909152608060608201819052600b908201526a74726164696e675f66656560a81b60a082015260c00190565b15614b1357565b60405162461bcd60e51b815260206004820152601d60248201527f4f7074696f6e73436f72653a20696e76616c6964206f726465722069640000006044820152606490fd5b600f81526e189d5e595c8818d85b98d95b1b1959608a1b602082015260400190565b9190820180921161495257565b600b81526a1c999c481d1a5b595bdd5d60aa1b602082015260400190565b906000828152602060088152604093848320835b8154811015614cdb57614bcc8183614671565b50600a81019081549160ff8316614be281614431565b1580614cce575b614bff575b505050614bfa90614943565b614bb9565b6003809360ff191617905560018060a01b0380925416916002820191818354169360049083825416906006840196875493823b15614cca57908f8e949392614c5b86925197889687958694636924faa760e11b86528501614aa5565b03925af18015614cc057614bfa9695949389937f18ae744a3a27b4a583da0d9b90c0bd0162260ed46685502b4c6f305e997167b5938f93614cb1575b505494541694548151908152428b820152a4903880614bee565b614cba90614596565b38614c97565b8c513d8c823e3d90fd5b8d80fd5b5060068201541515614be9565b50505050509050565b600a6101a09183518155602084015160018201556002810160018060a01b036040860151168154906060870151614d1a81614411565b614d2381614411565b6001600160a81b03199092161760a091821b60ff60a01b161790915560808501516003830155840151600482015560c0840151600582015560e08401516006820155610100840151614da8906007830190614d8790614d8181614411565b82614980565b614d9960ff610120880151168261498a565b60ff61014087015116906149a0565b6101608401516008820155610180840151600982015501910151614dcb81614431565b6149728161443156fe300f9ae985dc711960f7a4d1dd013f9c19ecf40bff149522ab7523b2187a3846ce74058472262d5db42b1ca04d78e999d2dd523bdf8b33202e06cca947b31bbeb848a62ef7171019d243ed8f5b8e1e6c32cafed0b7fc99da26cb2fc2e7d533ec04967fd25e7aa667b18955d808f19fd0c86238999ff8be2ebc72cd2cd3a83db0ce3a31baf9956e086200ee7044a75c2befbd050912798b7bcd25d05831ab9592c0c6ed2669febbe340d8737e8ec17254ffd9e038b54a4585ff70ac3ca18956aa3d7463b72b52fafc8e3f27dc0dbb9d1a94c0a4024834252b5cce68509acb49bca26469706673582212203d5fe80551ec28613f972da452af14161f718d1e48cf2d36ba6aed0f4c9e353f64736f6c63430008140033",
  "linkReferences": {},
  "deployedLinkReferences": {}
}