{
  "_format": "hh-sol-artifact-1",
  "contractName": "OptionsCore",
  "sourceName": "contracts/core/OptionsCore.sol",
  "abi": [
    {
      "inputs": [
        {
          "internalType": "address",
          "name": "_config",
          "type": "address"
        },
        {
          "internalType": "address",
          "name": "_vaultManager",
          "type": "address"
        },
        {
          "internalType": "address",
          "name": "_usdt",
          "type": "address"
        },
        {
          "internalType": "address",
          "name": "_admin",
          "type": "address"
        }
      ],
      "stateMutability": "nonpayable",
      "type": "constructor"
    },
    {
      "inputs": [],
      "name": "AccessControlBadConfirmation",
      "type": "error"
    },
    {
      "inputs": [
        {
          "internalType": "address",
          "name": "account",
          "type": "address"
        },
        {
          "internalType": "bytes32",
          "name": "neededRole",
          "type": "bytes32"
        }
      ],
      "name": "AccessControlUnauthorizedAccount",
      "type": "error"
    },
    {
      "inputs": [],
      "name": "EnforcedPause",
      "type": "error"
    },
    {
      "inputs": [],
      "name": "ExpectedPause",
      "type": "error"
    },
    {
      "inputs": [],
      "name": "ReentrancyGuardReentrantCall",
      "type": "error"
    },
    {
      "anonymous": false,
      "inputs": [
        {
          "indexed": true,
          "internalType": "uint256",
          "name": "orderId",
          "type": "uint256"
        },
        {
          "indexed": false,
          "internalType": "string",
          "name": "underlyingCode",
          "type": "string"
        },
        {
          "indexed": false,
          "internalType": "string",
          "name": "market",
          "type": "string"
        },
        {
          "indexed": false,
          "internalType": "string",
          "name": "country",
          "type": "string"
        },
        {
          "indexed": false,
          "internalType": "enum FeedType",
          "name": "feedType",
          "type": "uint8"
        },
        {
          "indexed": false,
          "internalType": "enum FeedTier",
          "name": "tier",
          "type": "uint8"
        },
        {
          "indexed": true,
          "internalType": "address",
          "name": "requester",
          "type": "address"
        },
        {
          "indexed": false,
          "internalType": "uint256",
          "name": "notionalAmount",
          "type": "uint256"
        },
        {
          "indexed": false,
          "internalType": "uint256",
          "name": "timestamp",
          "type": "uint256"
        }
      ],
      "name": "FeedRequestEmitted",
      "type": "event"
    },
    {
      "anonymous": false,
      "inputs": [
        {
          "indexed": true,
          "internalType": "uint256",
          "name": "orderId",
          "type": "uint256"
        },
        {
          "indexed": false,
          "internalType": "string",
          "name": "reason",
          "type": "string"
        },
        {
          "indexed": false,
          "internalType": "uint256",
          "name": "timestamp",
          "type": "uint256"
        }
      ],
      "name": "OrderCancelled",
      "type": "event"
    },
    {
      "anonymous": false,
      "inputs": [
        {
          "indexed": true,
          "internalType": "uint256",
          "name": "orderId",
          "type": "uint256"
        },
        {
          "indexed": true,
          "internalType": "address",
          "name": "creator",
          "type": "address"
        },
        {
          "indexed": false,
          "internalType": "bool",
          "name": "isBuyerOrder",
          "type": "bool"
        },
        {
          "indexed": false,
          "internalType": "uint256",
          "name": "timestamp",
          "type": "uint256"
        }
      ],
      "name": "OrderCreated",
      "type": "event"
    },
    {
      "anonymous": false,
      "inputs": [
        {
          "indexed": true,
          "internalType": "uint256",
          "name": "orderId",
          "type": "uint256"
        },
        {
          "indexed": true,
          "internalType": "address",
          "name": "buyer",
          "type": "address"
        },
        {
          "indexed": true,
          "internalType": "address",
          "name": "seller",
          "type": "address"
        },
        {
          "indexed": false,
          "internalType": "uint256",
          "name": "timestamp",
          "type": "uint256"
        }
      ],
      "name": "OrderMatched",
      "type": "event"
    },
    {
      "anonymous": false,
      "inputs": [
        {
          "indexed": true,
          "internalType": "uint256",
          "name": "orderId",
          "type": "uint256"
        },
        {
          "indexed": false,
          "internalType": "enum OrderStatus",
          "name": "oldStatus",
          "type": "uint8"
        },
        {
          "indexed": false,
          "internalType": "enum OrderStatus",
          "name": "newStatus",
          "type": "uint8"
        },
        {
          "indexed": false,
          "internalType": "string",
          "name": "reason",
          "type": "string"
        },
        {
          "indexed": false,
          "internalType": "uint256",
          "name": "timestamp",
          "type": "uint256"
        }
      ],
      "name": "OrderStatusChanged",
      "type": "event"
    },
    {
      "anonymous": false,
      "inputs": [
        {
          "indexed": false,
          "internalType": "address",
          "name": "account",
          "type": "address"
        }
      ],
      "name": "Paused",
      "type": "event"
    },
    {
      "anonymous": false,
      "inputs": [
        {
          "indexed": true,
          "internalType": "uint256",
          "name": "orderId",
          "type": "uint256"
        },
        {
          "indexed": true,
          "internalType": "uint256",
          "name": "quoteId",
          "type": "uint256"
        },
        {
          "indexed": true,
          "internalType": "address",
          "name": "seller",
          "type": "address"
        },
        {
          "indexed": false,
          "internalType": "uint256",
          "name": "amount",
          "type": "uint256"
        },
        {
          "indexed": false,
          "internalType": "uint256",
          "name": "timestamp",
          "type": "uint256"
        }
      ],
      "name": "QuoteMarginRefunded",
      "type": "event"
    },
    {
      "anonymous": false,
      "inputs": [
        {
          "indexed": true,
          "internalType": "uint256",
          "name": "orderId",
          "type": "uint256"
        },
        {
          "indexed": true,
          "internalType": "uint256",
          "name": "quoteId",
          "type": "uint256"
        },
        {
          "indexed": true,
          "internalType": "address",
          "name": "seller",
          "type": "address"
        },
        {
          "indexed": false,
          "internalType": "uint256",
          "name": "premiumRate",
          "type": "uint256"
        },
        {
          "indexed": false,
          "internalType": "uint256",
          "name": "timestamp",
          "type": "uint256"
        }
      ],
      "name": "QuoteSubmitted",
      "type": "event"
    },
    {
      "anonymous": false,
      "inputs": [
        {
          "indexed": true,
          "internalType": "bytes32",
          "name": "role",
          "type": "bytes32"
        },
        {
          "indexed": true,
          "internalType": "bytes32",
          "name": "previousAdminRole",
          "type": "bytes32"
        },
        {
          "indexed": true,
          "internalType": "bytes32",
          "name": "newAdminRole",
          "type": "bytes32"
        }
      ],
      "name": "RoleAdminChanged",
      "type": "event"
    },
    {
      "anonymous": false,
      "inputs": [
        {
          "indexed": true,
          "internalType": "bytes32",
          "name": "role",
          "type": "bytes32"
        },
        {
          "indexed": true,
          "internalType": "address",
          "name": "account",
          "type": "address"
        },
        {
          "indexed": true,
          "internalType": "address",
          "name": "sender",
          "type": "address"
        }
      ],
      "name": "RoleGranted",
      "type": "event"
    },
    {
      "anonymous": false,
      "inputs": [
        {
          "indexed": true,
          "internalType": "bytes32",
          "name": "role",
          "type": "bytes32"
        },
        {
          "indexed": true,
          "internalType": "address",
          "name": "account",
          "type": "address"
        },
        {
          "indexed": true,
          "internalType": "address",
          "name": "sender",
          "type": "address"
        }
      ],
      "name": "RoleRevoked",
      "type": "event"
    },
    {
      "anonymous": false,
      "inputs": [
        {
          "indexed": false,
          "internalType": "address",
          "name": "account",
          "type": "address"
        }
      ],
      "name": "Unpaused",
      "type": "event"
    },
    {
      "inputs": [],
      "name": "DEFAULT_ADMIN_ROLE",
      "outputs": [
        {
          "internalType": "bytes32",
          "name": "",
          "type": "bytes32"
        }
      ],
      "stateMutability": "view",
      "type": "function"
    },
    {
      "inputs": [],
      "name": "FEED_PROTOCOL_ROLE",
      "outputs": [
        {
          "internalType": "bytes32",
          "name": "",
          "type": "bytes32"
        }
      ],
      "stateMutability": "view",
      "type": "function"
    },
    {
      "inputs": [],
      "name": "SETTLEMENT_ROLE",
      "outputs": [
        {
          "internalType": "bytes32",
          "name": "",
          "type": "bytes32"
        }
      ],
      "stateMutability": "view",
      "type": "function"
    },
    {
      "inputs": [
        {
          "internalType": "uint256",
          "name": "quoteId",
          "type": "uint256"
        }
      ],
      "name": "acceptQuote",
      "outputs": [],
      "stateMutability": "nonpayable",
      "type": "function"
    },
    {
      "inputs": [
        {
          "internalType": "uint256",
          "name": "orderId",
          "type": "uint256"
        }
      ],
      "name": "acceptSellerOrder",
      "outputs": [],
      "stateMutability": "nonpayable",
      "type": "function"
    },
    {
      "inputs": [
        {
          "internalType": "address",
          "name": "",
          "type": "address"
        },
        {
          "internalType": "uint256",
          "name": "",
          "type": "uint256"
        }
      ],
      "name": "buyerOrders",
      "outputs": [
        {
          "internalType": "uint256",
          "name": "",
          "type": "uint256"
        }
      ],
      "stateMutability": "view",
      "type": "function"
    },
    {
      "inputs": [
        {
          "internalType": "uint256",
          "name": "orderId",
          "type": "uint256"
        }
      ],
      "name": "cancelRFQ",
      "outputs": [],
      "stateMutability": "nonpayable",
      "type": "function"
    },
    {
      "inputs": [
        {
          "internalType": "uint256",
          "name": "orderId",
          "type": "uint256"
        }
      ],
      "name": "cancelRFQDueToTimeout",
      "outputs": [],
      "stateMutability": "nonpayable",
      "type": "function"
    },
    {
      "inputs": [],
      "name": "config",
      "outputs": [
        {
          "internalType": "contract Config",
          "name": "",
          "type": "address"
        }
      ],
      "stateMutability": "view",
      "type": "function"
    },
    {
      "inputs": [
        {
          "internalType": "string",
          "name": "underlyingName",
          "type": "string"
        },
        {
          "internalType": "string",
          "name": "underlyingCode",
          "type": "string"
        },
        {
          "internalType": "string",
          "name": "market",
          "type": "string"
        },
        {
          "internalType": "string",
          "name": "country",
          "type": "string"
        },
        {
          "internalType": "string",
          "name": "refPrice",
          "type": "string"
        },
        {
          "internalType": "enum Direction",
          "name": "direction",
          "type": "uint8"
        },
        {
          "internalType": "uint256",
          "name": "notionalUSDT",
          "type": "uint256"
        },
        {
          "internalType": "uint256",
          "name": "expiryTimestamp",
          "type": "uint256"
        },
        {
          "internalType": "uint256",
          "name": "maxPremiumRate",
          "type": "uint256"
        },
        {
          "internalType": "uint256",
          "name": "minMarginRate",
          "type": "uint256"
        },
        {
          "internalType": "enum SellerType",
          "name": "acceptedSellerType",
          "type": "uint8"
        },
        {
          "internalType": "address",
          "name": "designatedSeller",
          "type": "address"
        },
        {
          "internalType": "uint256",
          "name": "arbitrationWindow",
          "type": "uint256"
        },
        {
          "internalType": "uint256",
          "name": "marginCallDeadline",
          "type": "uint256"
        },
        {
          "internalType": "bool",
          "name": "dividendAdjustment",
          "type": "bool"
        },
        {
          "internalType": "enum LiquidationRule",
          "name": "liquidationRule",
          "type": "uint8"
        },
        {
          "internalType": "uint8",
          "name": "consecutiveDays",
          "type": "uint8"
        },
        {
          "internalType": "uint8",
          "name": "dailyLimitPercent",
          "type": "uint8"
        },
        {
          "internalType": "enum FeedRule",
          "name": "feedRule",
          "type": "uint8"
        }
      ],
      "name": "createBuyerRFQ",
      "outputs": [
        {
          "internalType": "uint256",
          "name": "orderId",
          "type": "uint256"
        }
      ],
      "stateMutability": "nonpayable",
      "type": "function"
    },
    {
      "inputs": [
        {
          "internalType": "string",
          "name": "underlyingName",
          "type": "string"
        },
        {
          "internalType": "string",
          "name": "underlyingCode",
          "type": "string"
        },
        {
          "internalType": "string",
          "name": "market",
          "type": "string"
        },
        {
          "internalType": "string",
          "name": "country",
          "type": "string"
        },
        {
          "internalType": "string",
          "name": "refPrice",
          "type": "string"
        },
        {
          "internalType": "enum Direction",
          "name": "direction",
          "type": "uint8"
        },
        {
          "internalType": "uint256",
          "name": "notionalUSDT",
          "type": "uint256"
        },
        {
          "internalType": "uint256",
          "name": "expiryTimestamp",
          "type": "uint256"
        },
        {
          "internalType": "uint256",
          "name": "premiumRate",
          "type": "uint256"
        },
        {
          "internalType": "uint256",
          "name": "marginAmount",
          "type": "uint256"
        },
        {
          "internalType": "enum LiquidationRule",
          "name": "liquidationRule",
          "type": "uint8"
        },
        {
          "internalType": "uint8",
          "name": "consecutiveDays",
          "type": "uint8"
        },
        {
          "internalType": "uint8",
          "name": "dailyLimitPercent",
          "type": "uint8"
        },
        {
          "internalType": "uint256",
          "name": "arbitrationWindow",
          "type": "uint256"
        },
        {
          "internalType": "bool",
          "name": "dividendAdjustment",
          "type": "bool"
        },
        {
          "internalType": "uint8",
          "name": "exerciseDelay",
          "type": "uint8"
        },
        {
          "internalType": "enum FeedRule",
          "name": "feedRule",
          "type": "uint8"
        }
      ],
      "name": "createSellerOrder",
      "outputs": [
        {
          "internalType": "uint256",
          "name": "orderId",
          "type": "uint256"
        }
      ],
      "stateMutability": "nonpayable",
      "type": "function"
    },
    {
      "inputs": [
        {
          "internalType": "address",
          "name": "buyer",
          "type": "address"
        }
      ],
      "name": "getBuyerOrders",
      "outputs": [
        {
          "internalType": "uint256[]",
          "name": "",
          "type": "uint256[]"
        }
      ],
      "stateMutability": "view",
      "type": "function"
    },
    {
      "inputs": [
        {
          "internalType": "uint256",
          "name": "orderId",
          "type": "uint256"
        }
      ],
      "name": "getOrder",
      "outputs": [
        {
          "components": [
            {
              "internalType": "uint256",
              "name": "orderId",
              "type": "uint256"
            },
            {
              "internalType": "address",
              "name": "buyer",
              "type": "address"
            },
            {
              "internalType": "address",
              "name": "seller",
              "type": "address"
            },
            {
              "internalType": "string",
              "name": "underlyingName",
              "type": "string"
            },
            {
              "internalType": "string",
              "name": "underlyingCode",
              "type": "string"
            },
            {
              "internalType": "string",
              "name": "market",
              "type": "string"
            },
            {
              "internalType": "string",
              "name": "country",
              "type": "string"
            },
            {
              "internalType": "string",
              "name": "refPrice",
              "type": "string"
            },
            {
              "internalType": "enum Direction",
              "name": "direction",
              "type": "uint8"
            },
            {
              "internalType": "uint256",
              "name": "notionalUSDT",
              "type": "uint256"
            },
            {
              "internalType": "uint256",
              "name": "strikePrice",
              "type": "uint256"
            },
            {
              "internalType": "uint256",
              "name": "expiryTimestamp",
              "type": "uint256"
            },
            {
              "internalType": "uint256",
              "name": "premiumRate",
              "type": "uint256"
            },
            {
              "internalType": "uint256",
              "name": "premiumAmount",
              "type": "uint256"
            },
            {
              "internalType": "uint256",
              "name": "initialMargin",
              "type": "uint256"
            },
            {
              "internalType": "uint256",
              "name": "currentMargin",
              "type": "uint256"
            },
            {
              "internalType": "uint256",
              "name": "minMarginRate",
              "type": "uint256"
            },
            {
              "internalType": "uint256",
              "name": "maxPremiumRate",
              "type": "uint256"
            },
            {
              "internalType": "enum LiquidationRule",
              "name": "liquidationRule",
              "type": "uint8"
            },
            {
              "internalType": "uint8",
              "name": "consecutiveDays",
              "type": "uint8"
            },
            {
              "internalType": "uint8",
              "name": "dailyLimitPercent",
              "type": "uint8"
            },
            {
              "internalType": "uint8",
              "name": "exerciseDelay",
              "type": "uint8"
            },
            {
              "internalType": "enum SellerType",
              "name": "sellerType",
              "type": "uint8"
            },
            {
              "internalType": "address",
              "name": "designatedSeller",
              "type": "address"
            },
            {
              "internalType": "uint256",
              "name": "arbitrationWindow",
              "type": "uint256"
            },
            {
              "internalType": "uint256",
              "name": "marginCallDeadline",
              "type": "uint256"
            },
            {
              "internalType": "bool",
              "name": "dividendAdjustment",
              "type": "bool"
            },
            {
              "internalType": "enum FeedRule",
              "name": "feedRule",
              "type": "uint8"
            },
            {
              "internalType": "enum OrderStatus",
              "name": "status",
              "type": "uint8"
            },
            {
              "internalType": "uint256",
              "name": "createdAt",
              "type": "uint256"
            },
            {
              "internalType": "uint256",
              "name": "matchedAt",
              "type": "uint256"
            },
            {
              "internalType": "uint256",
              "name": "settledAt",
              "type": "uint256"
            },
            {
              "internalType": "uint256",
              "name": "lastFeedPrice",
              "type": "uint256"
            },
            {
              "internalType": "uint256",
              "name": "dividendAmount",
              "type": "uint256"
            }
          ],
          "internalType": "struct Order",
          "name": "",
          "type": "tuple"
        }
      ],
      "stateMutability": "view",
      "type": "function"
    },
    {
      "inputs": [
        {
          "internalType": "string",
          "name": "country",
          "type": "string"
        }
      ],
      "name": "getOrdersByCountry",
      "outputs": [
        {
          "internalType": "uint256[]",
          "name": "",
          "type": "uint256[]"
        }
      ],
      "stateMutability": "view",
      "type": "function"
    },
    {
      "inputs": [
        {
          "internalType": "string",
          "name": "market",
          "type": "string"
        }
      ],
      "name": "getOrdersByMarket",
      "outputs": [
        {
          "internalType": "uint256[]",
          "name": "",
          "type": "uint256[]"
        }
      ],
      "stateMutability": "view",
      "type": "function"
    },
    {
      "inputs": [
        {
          "internalType": "uint256",
          "name": "orderId",
          "type": "uint256"
        }
      ],
      "name": "getQuotes",
      "outputs": [
        {
          "components": [
            {
              "internalType": "uint256",
              "name": "quoteId",
              "type": "uint256"
            },
            {
              "internalType": "uint256",
              "name": "orderId",
              "type": "uint256"
            },
            {
              "internalType": "address",
              "name": "seller",
              "type": "address"
            },
            {
              "internalType": "enum SellerType",
              "name": "sellerType",
              "type": "uint8"
            },
            {
              "internalType": "uint256",
              "name": "premiumRate",
              "type": "uint256"
            },
            {
              "internalType": "uint256",
              "name": "premiumAmount",
              "type": "uint256"
            },
            {
              "internalType": "uint256",
              "name": "marginRate",
              "type": "uint256"
            },
            {
              "internalType": "uint256",
              "name": "marginAmount",
              "type": "uint256"
            },
            {
              "internalType": "enum LiquidationRule",
              "name": "liquidationRule",
              "type": "uint8"
            },
            {
              "internalType": "uint8",
              "name": "consecutiveDays",
              "type": "uint8"
            },
            {
              "internalType": "uint8",
              "name": "dailyLimitPercent",
              "type": "uint8"
            },
            {
              "internalType": "uint256",
              "name": "createdAt",
              "type": "uint256"
            },
            {
              "internalType": "uint256",
              "name": "expiresAt",
              "type": "uint256"
            },
            {
              "internalType": "enum QuoteStatus",
              "name": "status",
              "type": "uint8"
            }
          ],
          "internalType": "struct Quote[]",
          "name": "",
          "type": "tuple[]"
        }
      ],
      "stateMutability": "view",
      "type": "function"
    },
    {
      "inputs": [
        {
          "internalType": "bytes32",
          "name": "role",
          "type": "bytes32"
        }
      ],
      "name": "getRoleAdmin",
      "outputs": [
        {
          "internalType": "bytes32",
          "name": "",
          "type": "bytes32"
        }
      ],
      "stateMutability": "view",
      "type": "function"
    },
    {
      "inputs": [
        {
          "internalType": "address",
          "name": "seller",
          "type": "address"
        }
      ],
      "name": "getSellerOrders",
      "outputs": [
        {
          "internalType": "uint256[]",
          "name": "",
          "type": "uint256[]"
        }
      ],
      "stateMutability": "view",
      "type": "function"
    },
    {
      "inputs": [
        {
          "internalType": "bytes32",
          "name": "role",
          "type": "bytes32"
        },
        {
          "internalType": "address",
          "name": "account",
          "type": "address"
        }
      ],
      "name": "grantRole",
      "outputs": [],
      "stateMutability": "nonpayable",
      "type": "function"
    },
    {
      "inputs": [
        {
          "internalType": "bytes32",
          "name": "role",
          "type": "bytes32"
        },
        {
          "internalType": "address",
          "name": "account",
          "type": "address"
        }
      ],
      "name": "hasRole",
      "outputs": [
        {
          "internalType": "bool",
          "name": "",
          "type": "bool"
        }
      ],
      "stateMutability": "view",
      "type": "function"
    },
    {
      "inputs": [],
      "name": "nextOrderId",
      "outputs": [
        {
          "internalType": "uint256",
          "name": "",
          "type": "uint256"
        }
      ],
      "stateMutability": "view",
      "type": "function"
    },
    {
      "inputs": [],
      "name": "nextQuoteId",
      "outputs": [
        {
          "internalType": "uint256",
          "name": "",
          "type": "uint256"
        }
      ],
      "stateMutability": "view",
      "type": "function"
    },
    {
      "inputs": [
        {
          "internalType": "uint256",
          "name": "orderId",
          "type": "uint256"
        },
        {
          "internalType": "enum FeedType",
          "name": "feedType",
          "type": "uint8"
        }
      ],
      "name": "onFeedRequested",
      "outputs": [],
      "stateMutability": "nonpayable",
      "type": "function"
    },
    {
      "inputs": [
        {
          "internalType": "uint256",
          "name": "",
          "type": "uint256"
        },
        {
          "internalType": "uint256",
          "name": "",
          "type": "uint256"
        }
      ],
      "name": "orderQuotes",
      "outputs": [
        {
          "internalType": "uint256",
          "name": "quoteId",
          "type": "uint256"
        },
        {
          "internalType": "uint256",
          "name": "orderId",
          "type": "uint256"
        },
        {
          "internalType": "address",
          "name": "seller",
          "type": "address"
        },
        {
          "internalType": "enum SellerType",
          "name": "sellerType",
          "type": "uint8"
        },
        {
          "internalType": "uint256",
          "name": "premiumRate",
          "type": "uint256"
        },
        {
          "internalType": "uint256",
          "name": "premiumAmount",
          "type": "uint256"
        },
        {
          "internalType": "uint256",
          "name": "marginRate",
          "type": "uint256"
        },
        {
          "internalType": "uint256",
          "name": "marginAmount",
          "type": "uint256"
        },
        {
          "internalType": "enum LiquidationRule",
          "name": "liquidationRule",
          "type": "uint8"
        },
        {
          "internalType": "uint8",
          "name": "consecutiveDays",
          "type": "uint8"
        },
        {
          "internalType": "uint8",
          "name": "dailyLimitPercent",
          "type": "uint8"
        },
        {
          "internalType": "uint256",
          "name": "createdAt",
          "type": "uint256"
        },
        {
          "internalType": "uint256",
          "name": "expiresAt",
          "type": "uint256"
        },
        {
          "internalType": "enum QuoteStatus",
          "name": "status",
          "type": "uint8"
        }
      ],
      "stateMutability": "view",
      "type": "function"
    },
    {
      "inputs": [
        {
          "internalType": "uint256",
          "name": "",
          "type": "uint256"
        }
      ],
      "name": "orders",
      "outputs": [
        {
          "internalType": "uint256",
          "name": "orderId",
          "type": "uint256"
        },
        {
          "internalType": "address",
          "name": "buyer",
          "type": "address"
        },
        {
          "internalType": "address",
          "name": "seller",
          "type": "address"
        },
        {
          "internalType": "string",
          "name": "underlyingName",
          "type": "string"
        },
        {
          "internalType": "string",
          "name": "underlyingCode",
          "type": "string"
        },
        {
          "internalType": "string",
          "name": "market",
          "type": "string"
        },
        {
          "internalType": "string",
          "name": "country",
          "type": "string"
        },
        {
          "internalType": "string",
          "name": "refPrice",
          "type": "string"
        },
        {
          "internalType": "enum Direction",
          "name": "direction",
          "type": "uint8"
        },
        {
          "internalType": "uint256",
          "name": "notionalUSDT",
          "type": "uint256"
        },
        {
          "internalType": "uint256",
          "name": "strikePrice",
          "type": "uint256"
        },
        {
          "internalType": "uint256",
          "name": "expiryTimestamp",
          "type": "uint256"
        },
        {
          "internalType": "uint256",
          "name": "premiumRate",
          "type": "uint256"
        },
        {
          "internalType": "uint256",
          "name": "premiumAmount",
          "type": "uint256"
        },
        {
          "internalType": "uint256",
          "name": "initialMargin",
          "type": "uint256"
        },
        {
          "internalType": "uint256",
          "name": "currentMargin",
          "type": "uint256"
        },
        {
          "internalType": "uint256",
          "name": "minMarginRate",
          "type": "uint256"
        },
        {
          "internalType": "uint256",
          "name": "maxPremiumRate",
          "type": "uint256"
        },
        {
          "internalType": "enum LiquidationRule",
          "name": "liquidationRule",
          "type": "uint8"
        },
        {
          "internalType": "uint8",
          "name": "consecutiveDays",
          "type": "uint8"
        },
        {
          "internalType": "uint8",
          "name": "dailyLimitPercent",
          "type": "uint8"
        },
        {
          "internalType": "uint8",
          "name": "exerciseDelay",
          "type": "uint8"
        },
        {
          "internalType": "enum SellerType",
          "name": "sellerType",
          "type": "uint8"
        },
        {
          "internalType": "address",
          "name": "designatedSeller",
          "type": "address"
        },
        {
          "internalType": "uint256",
          "name": "arbitrationWindow",
          "type": "uint256"
        },
        {
          "internalType": "uint256",
          "name": "marginCallDeadline",
          "type": "uint256"
        },
        {
          "internalType": "bool",
          "name": "dividendAdjustment",
          "type": "bool"
        },
        {
          "internalType": "enum FeedRule",
          "name": "feedRule",
          "type": "uint8"
        },
        {
          "internalType": "enum OrderStatus",
          "name": "status",
          "type": "uint8"
        },
        {
          "internalType": "uint256",
          "name": "createdAt",
          "type": "uint256"
        },
        {
          "internalType": "uint256",
          "name": "matchedAt",
          "type": "uint256"
        },
        {
          "internalType": "uint256",
          "name": "settledAt",
          "type": "uint256"
        },
        {
          "internalType": "uint256",
          "name": "lastFeedPrice",
          "type": "uint256"
        },
        {
          "internalType": "uint256",
          "name": "dividendAmount",
          "type": "uint256"
        }
      ],
      "stateMutability": "view",
      "type": "function"
    },
    {
      "inputs": [],
      "name": "pause",
      "outputs": [],
      "stateMutability": "nonpayable",
      "type": "function"
    },
    {
      "inputs": [],
      "name": "paused",
      "outputs": [
        {
          "internalType": "bool",
          "name": "",
          "type": "bool"
        }
      ],
      "stateMutability": "view",
      "type": "function"
    },
    {
      "inputs": [
        {
          "internalType": "uint256",
          "name": "orderId",
          "type": "uint256"
        },
        {
          "internalType": "enum FeedType",
          "name": "feedType",
          "type": "uint8"
        },
        {
          "internalType": "uint256",
          "name": "finalPrice",
          "type": "uint256"
        }
      ],
      "name": "processFeedCallback",
      "outputs": [],
      "stateMutability": "nonpayable",
      "type": "function"
    },
    {
      "inputs": [
        {
          "internalType": "uint256",
          "name": "orderId",
          "type": "uint256"
        },
        {
          "internalType": "uint256",
          "name": "finalPrice",
          "type": "uint256"
        }
      ],
      "name": "processFinalFeedResult",
      "outputs": [],
      "stateMutability": "nonpayable",
      "type": "function"
    },
    {
      "inputs": [
        {
          "internalType": "uint256",
          "name": "orderId",
          "type": "uint256"
        },
        {
          "internalType": "uint256",
          "name": "initialPrice",
          "type": "uint256"
        }
      ],
      "name": "processInitialFeedResult",
      "outputs": [],
      "stateMutability": "nonpayable",
      "type": "function"
    },
    {
      "inputs": [
        {
          "internalType": "uint256",
          "name": "",
          "type": "uint256"
        }
      ],
      "name": "quotes",
      "outputs": [
        {
          "internalType": "uint256",
          "name": "quoteId",
          "type": "uint256"
        },
        {
          "internalType": "uint256",
          "name": "orderId",
          "type": "uint256"
        },
        {
          "internalType": "address",
          "name": "seller",
          "type": "address"
        },
        {
          "internalType": "enum SellerType",
          "name": "sellerType",
          "type": "uint8"
        },
        {
          "internalType": "uint256",
          "name": "premiumRate",
          "type": "uint256"
        },
        {
          "internalType": "uint256",
          "name": "premiumAmount",
          "type": "uint256"
        },
        {
          "internalType": "uint256",
          "name": "marginRate",
          "type": "uint256"
        },
        {
          "internalType": "uint256",
          "name": "marginAmount",
          "type": "uint256"
        },
        {
          "internalType": "enum LiquidationRule",
          "name": "liquidationRule",
          "type": "uint8"
        },
        {
          "internalType": "uint8",
          "name": "consecutiveDays",
          "type": "uint8"
        },
        {
          "internalType": "uint8",
          "name": "dailyLimitPercent",
          "type": "uint8"
        },
        {
          "internalType": "uint256",
          "name": "createdAt",
          "type": "uint256"
        },
        {
          "internalType": "uint256",
          "name": "expiresAt",
          "type": "uint256"
        },
        {
          "internalType": "enum QuoteStatus",
          "name": "status",
          "type": "uint8"
        }
      ],
      "stateMutability": "view",
      "type": "function"
    },
    {
      "inputs": [
        {
          "internalType": "bytes32",
          "name": "role",
          "type": "bytes32"
        },
        {
          "internalType": "address",
          "name": "callerConfirmation",
          "type": "address"
        }
      ],
      "name": "renounceRole",
      "outputs": [],
      "stateMutability": "nonpayable",
      "type": "function"
    },
    {
      "inputs": [
        {
          "internalType": "uint256",
          "name": "orderId",
          "type": "uint256"
        },
        {
          "internalType": "enum FeedTier",
          "name": "tier",
          "type": "uint8"
        }
      ],
      "name": "requestFeed",
      "outputs": [],
      "stateMutability": "payable",
      "type": "function"
    },
    {
      "inputs": [
        {
          "internalType": "bytes32",
          "name": "role",
          "type": "bytes32"
        },
        {
          "internalType": "address",
          "name": "account",
          "type": "address"
        }
      ],
      "name": "revokeRole",
      "outputs": [],
      "stateMutability": "nonpayable",
      "type": "function"
    },
    {
      "inputs": [
        {
          "internalType": "address",
          "name": "",
          "type": "address"
        },
        {
          "internalType": "uint256",
          "name": "",
          "type": "uint256"
        }
      ],
      "name": "sellerOrders",
      "outputs": [
        {
          "internalType": "uint256",
          "name": "",
          "type": "uint256"
        }
      ],
      "stateMutability": "view",
      "type": "function"
    },
    {
      "inputs": [
        {
          "internalType": "address",
          "name": "_config",
          "type": "address"
        }
      ],
      "name": "setConfig",
      "outputs": [],
      "stateMutability": "nonpayable",
      "type": "function"
    },
    {
      "inputs": [
        {
          "internalType": "address",
          "name": "_vaultManager",
          "type": "address"
        }
      ],
      "name": "setVaultManager",
      "outputs": [],
      "stateMutability": "nonpayable",
      "type": "function"
    },
    {
      "inputs": [
        {
          "internalType": "uint256",
          "name": "orderId",
          "type": "uint256"
        },
        {
          "internalType": "uint256",
          "name": "premiumRate",
          "type": "uint256"
        },
        {
          "internalType": "uint256",
          "name": "marginRate",
          "type": "uint256"
        },
        {
          "internalType": "enum LiquidationRule",
          "name": "liquidationRule",
          "type": "uint8"
        },
        {
          "internalType": "uint8",
          "name": "consecutiveDays",
          "type": "uint8"
        },
        {
          "internalType": "uint8",
          "name": "dailyLimitPercent",
          "type": "uint8"
        }
      ],
      "name": "submitQuote",
      "outputs": [
        {
          "internalType": "uint256",
          "name": "quoteId",
          "type": "uint256"
        }
      ],
      "stateMutability": "nonpayable",
      "type": "function"
    },
    {
      "inputs": [
        {
          "internalType": "bytes4",
          "name": "interfaceId",
          "type": "bytes4"
        }
      ],
      "name": "supportsInterface",
      "outputs": [
        {
          "internalType": "bool",
          "name": "",
          "type": "bool"
        }
      ],
      "stateMutability": "view",
      "type": "function"
    },
    {
      "inputs": [],
      "name": "unpause",
      "outputs": [],
      "stateMutability": "nonpayable",
      "type": "function"
    },
    {
      "inputs": [
        {
          "internalType": "uint256",
          "name": "orderId",
          "type": "uint256"
        },
        {
          "internalType": "uint256",
          "name": "amount",
          "type": "uint256"
        }
      ],
      "name": "updateOrderDividend",
      "outputs": [],
      "stateMutability": "nonpayable",
      "type": "function"
    },
    {
      "inputs": [
        {
          "internalType": "uint256",
          "name": "orderId",
          "type": "uint256"
        },
        {
          "internalType": "uint256",
          "name": "newMargin",
          "type": "uint256"
        }
      ],
      "name": "updateOrderMargin",
      "outputs": [],
      "stateMutability": "nonpayable",
      "type": "function"
    },
    {
      "inputs": [
        {
          "internalType": "uint256",
          "name": "orderId",
          "type": "uint256"
        },
        {
          "internalType": "uint256",
          "name": "deadline",
          "type": "uint256"
        }
      ],
      "name": "updateOrderMarginCallDeadline",
      "outputs": [],
      "stateMutability": "nonpayable",
      "type": "function"
    },
    {
      "inputs": [
        {
          "internalType": "uint256",
          "name": "orderId",
          "type": "uint256"
        },
        {
          "internalType": "uint256",
          "name": "newPrice",
          "type": "uint256"
        }
      ],
      "name": "updateOrderPrice",
      "outputs": [],
      "stateMutability": "nonpayable",
      "type": "function"
    },
    {
      "inputs": [
        {
          "internalType": "uint256",
          "name": "orderId",
          "type": "uint256"
        },
        {
          "internalType": "uint256",
          "name": "timestamp",
          "type": "uint256"
        }
      ],
      "name": "updateOrderSettledAt",
      "outputs": [],
      "stateMutability": "nonpayable",
      "type": "function"
    },
    {
      "inputs": [
        {
          "internalType": "uint256",
          "name": "orderId",
          "type": "uint256"
        },
        {
          "internalType": "enum OrderStatus",
          "name": "newStatus",
          "type": "uint8"
        }
      ],
      "name": "updateOrderStatus",
      "outputs": [],
      "stateMutability": "nonpayable",
      "type": "function"
    },
    {
      "inputs": [
        {
          "internalType": "uint256",
          "name": "orderId",
          "type": "uint256"
        },
        {
          "internalType": "uint256",
          "name": "price",
          "type": "uint256"
        }
      ],
      "name": "updateOrderStrikePrice",
      "outputs": [],
      "stateMutability": "nonpayable",
      "type": "function"
    },
    {
      "inputs": [],
      "name": "usdt",
      "outputs": [
        {
          "internalType": "contract IERC20",
          "name": "",
          "type": "address"
        }
      ],
      "stateMutability": "view",
      "type": "function"
    },
    {
      "inputs": [],
      "name": "vaultManager",
      "outputs": [
        {
          "internalType": "contract VaultManager",
          "name": "",
          "type": "address"
        }
      ],
      "stateMutability": "view",
      "type": "function"
    }
  ],
  "bytecode": "0x608034620000f557601f62005db738819003918201601f19168301916001600160401b03831184841017620000fa57808492608094604052833981010312620000f5578062000052620000e49262000110565b90620000616020820162000110565b906200007e6060620000766040840162000110565b920162000110565b6001808055600581905560065560028054610100600160a81b03191660089590951b610100600160a81b031694909417909355600380546001600160a01b03199081166001600160a01b0394851617909155600480549091169190921617905562000125565b50604051615c009081620001b78239f35b600080fd5b634e487b7160e01b600052604160045260246000fd5b51906001600160a01b0382168203620000f557565b6001600160a01b031660008181527fad3228b676f7d3cd4284a5443f17f1962b36e491b30a40b2405849e597ba5fb5602052604081205490919060ff16620001b257818052816020526040822081835260205260408220600160ff1982541617905533917f2f8788117e7eff1d82e926ec794901d17c78024a50270940304540a733656f0d8180a4600190565b509056fe610280604052600436101561001357600080fd5b6000803560e01c806301d0d5b81461427a57806301ffc9a71461422357806315d92e33146141dc5780631c0dd7e81461419557806320e3dbd41461414b578063248a9ca31461411f5780632a58b330146141015780632f2ff15d146140c45780632f48ab7d1461409b578063305cddfd14613edc5780633087a88c14613a3357806336568abe146139eb5780633ab3784a146137e35780633f4ba83a1461377857806342dd6d3e1461364c57806344f1eaae146136055780634500cb60146135bd57806345cb4505146135675780634efef6aa146135495780635c975abb146135265780635d7ffe7b146131365780635e9e78d0146130ef57806367ac0bf014612d775780636dbe757914612b355780637203a5821461248257806379502c55146124555780637d900421146123c85780638456cb591461236d5780638a4adf241461234457806391d14854146122f9578063979b4e6d146115cb578063a217fddf146115af578063a45f2ebc1461153c578063a61cf0d4146114a9578063a85c38ef146110ec578063aab3196d1461107f578063b543503e1461103a578063ba9cf01d14611011578063bc0ef26b14610e4f578063cdc65ab614610e26578063cf3fec4314610d99578063d049bfef14610b4c578063d09ef241146105c2578063d37e527b1461057b578063d426aec114610534578063d547741f146104f3578063e02e34f814610368578063e4cbac40146102e55763f7ff64261461023957600080fd5b346102e25761024736614f39565b90825260086020526040822080548210156102de57610266925061522e565b508054906102da600182015460028301549260038101549460048201549260058301549160068401549060078501549160088601549460ff600a600989015498015416976040519b8c9b8c60ff8860101c169860ff808a60081c1699169760ff8460a01c169360018060a01b031692614ff8565b0390f35b8280fd5b80fd5b50346102e257602080600319360112610364576001600160a01b03610308614f4f565b168252600b815260408220916040518092808554928381520194835280832092905b82821061034d576102da85610341818903826151b4565b60405191829182614fa9565b83548652948501946001938401939091019061032a565b5080fd5b50346102e25761037736614f39565b811515806104e8575b610389906157e2565b6103916152b2565b81600052600760205260406000209080156104a657601582019182549260ff8460101c1691600b83101561049057600283148015610486575b1561044457600080516020615b6b833981519152948460198360c097600a62040000960155015562ff000019161790556104076040518092615221565b60046020820152608060408201526015608082015274696e697469616c20666565642063616c6c6261636b60581b60a0820152426060820152a280f35b60405162461bcd60e51b81526020600482015260266024820152600080516020615b0b8339815191526044820152651b081999595960d21b6064820152608490fd5b50600383146103ca565b634e487b7160e01b600052602160045260246000fd5b60405162461bcd60e51b815260206004820152601a6024820152794f7074696f6e73436f72653a20696e76616c696420707269636560301b6044820152606490fd5b506005548210610380565b50346102e25760403660031901126102e257610530600435610513614f65565b908084528360205261052b6001604086200154615336565b6153da565b5080f35b50346102e25761054336614f39565b9080151580610570575b610556906157e2565b61055e61524a565b82526007602052600a60408320015580f35b50600554811061054d565b50346102e25761058a36614f39565b90801515806105b7575b61059d906157e2565b6105a561524a565b82526007602052601460408320015580f35b506005548110610594565b50346102e25760203660031901126102e257806104206040516105e481615198565b82815282602082015282604082015260608082015260606080820152606060a0820152606060c0820152606060e08201528261010082015282610120820152826101408201528261016082015282610180820152826101a0820152826101c0820152826101e08201528261020082015282610220820152826102408201528261026082015282610280820152826102a0820152826102c0820152826102e08201528261030082015282610320820152826103408201528261036082015282610380820152826103a0820152826103c0820152826103e08201528261040082015201526004358152600760205260408120604051916106e183615198565b8154835260018201546001600160a01b039081166020850152600283015416604080850191909152516107228161071b81600387016150bd565b03826151b4565b606084015260405161073b8161071b81600487016150bd565b60808401526040516107548161071b81600587016150bd565b60a084015260405161076d8161071b81600687016150bd565b60c08401526040516107868161071b81600787016150bd565b60e084015260ff60088301541661079c81615217565b6101008401526009820154610120840152600a820154610140840152600b820154610160840152600c820154610180840152600d8201546101a0840152600e8201546101c0840152600f8201546101e084015260108201546102008401526011820154610220840152601282015461081660ff8216614fe4565b60ff811661024085015260ff8160081c1661026085015260ff8160101c1661028085015260ff8160181c166102a085015261085660ff8260201c16614fe4565b60ff8160201c166102c085015260018060a01b039060281c166102e08401526013820154610300840152601482015461032084015260158201549060ff821615156103408501526108ac60ff8360081c16615217565b60ff8260081c16610360850152600b60ff8360101c161015610b3857509060ff601a9260101c1661038084015260168101546103a084015260178101546103c084015260188101546103e0840152601981015461040084015201546104208201526040518091602082528051602083015260018060a01b03602082015116604083015260018060a01b0360408201511660608301526104206109c2610962606084015161044060808701526104608601906151d7565b6109ac610998610984608087015193601f1994858a83030160a08b01526151d7565b60a0870151848983030160c08a01526151d7565b60c0860151838883030160e08901526151d7565b9060e085015190868303016101008701526151d7565b916101008101516109d281615217565b6101208501526101208101516101408501526101408101516101608501526101608101516101808501526101808101516101a08501526101a08101516101c08501526101c08101516101e08501526101e0810151610200850152610200810151610220850152610220810151610240850152610240810151610a5381614fe4565b61026085015260ff6102608201511661028085015260ff610280820151166102a085015260ff6102a0820151166102c08501526102c0810151610a9581614fe4565b6102e085015260018060a01b036102e0820151166103008501526103008101516103208501526103208101516103408501526103408101511515610360850152610360810151610ae481615217565b610380850152610afe6103808201516103a0860190615221565b6103a08101516103c08501526103c08101516103e08501526103e08101516104008501526104008101518285015201516104408301520390f35b634e487b7160e01b81526021600452602490fd5b50346102e257602090816003193601126102e257600435815260088083526040822080549093906001600160401b038111610d855791849192604051916005610b998684831b01856151b4565b82845285840191829588528688209188935b858510610ca8575050505050506040519280840191818552518092526040840192945b828110610bdb5784840385f35b909192826101c06001928851805182528381015184830152848060a01b03604082015116604083015260608082015190610c1482614fe4565b8301526080808201519083015260a0808201519083015260c0808201519083015260e081015160e08301526101008082015190610c5082614fe4565b83015260ff6101208181840151169084015261014090818301511690830152610160808201519083015261018080820151908301526101a08091015190610c9682614fee565b82015201960191019492919094610bce565b600b8960019260409c9b999a9c51610cbf8161517c565b8754815284880154838201526002880154858060a01b038116604083015260ff908160a091821c16610cf081614fe4565b606084015260038a0154608084015260048a0154908301528689015460c0830152600689015460e08301528060078a0154818116610d2d81614fe4565b61010085015281818b1c1661012085015260101c16610140830152878901546101608301526009890154610180830152600a89015416610d6c81614fee565b6101a08201528152019401940193929896959798610bab565b634e487b7160e01b84526041600452602484fd5b50346102e257602080600319360112610364576004356001600160401b0381116102de57610dcc82913690600401614efc565b91908260405193849283378101600c815203019020916040518092808554928381520194835280832092905b828210610e0f576102da85610341818903826151b4565b835486529485019460019384019390910190610df8565b50346102e257806003193601126102e2576020604051600080516020615b4b8339815191528152f35b50346102e257602080600319360112610364576004359081151580611006575b610e78906157e2565b81835260078152610e9960018060a01b036001604086200154163314615723565b610ea1615700565b610ea96156e2565b818352600781526015604084200160ff815460101c16600b81101580610ff25781158015610fe5575b15610f9157610f7d57600080516020615b6b83398151915292610f4860ff936001600a9414610f6f575b805490620a000062ff000019831617905586600080516020615b2b8339815191526040516040815280610f316040820161582e565b42888301520390a260405194859160101c16615221565b8201526080604082015280610f5f6080820161582e565b4260608301520390a26001805580f35b610f788761587b565b610efc565b634e487b7160e01b85526021600452602485fd5b60405162461bcd60e51b815260048101859052602660248201527f4f7074696f6e73436f72653a2063616e6e6f742063616e63656c206166746572604482015265040dac2e8c6d60d31b6064820152608490fd5b5050600060018214610ed2565b634e487b7160e01b86526021600452602486fd5b506005548210610e6f565b50346102e257806003193601126102e2576020604051600080516020615acb8339815191528152f35b50346102e25760203660031901126102e257611054614f4f565b61105c6152b2565b600380546001600160a01b0319166001600160a01b039290921691909117905580f35b50346102e25760403660031901126102e257602435600435600b8210156102de57801515806110e1575b6110b2906157e2565b6110ba61524a565b82526007602052601560408320019062ff000082549160101b169062ff0000191617905580f35b5060055481106110a9565b50346102e25760203660031901126102e2576004358152600760205260409081902061020081905280546101805260018101546001600160a01b0390811660a052600282015492516101608190529216919061114c9082906003016150bd565b03610160519061115b916151b4565b60405180806102005160040190611171916150bd565b0361117c90826151b4565b6040519182806102005160050190611193916150bd565b0361119e90846151b4565b60405191828061020051600601906111b5916150bd565b036111c090846151b4565b60405193848061020051600701906111d7916150bd565b036111e290866151b4565b6102005193600885015460ff166101c052600985015495600a860154600b87015491600c88015493600d89015495600e8a015497600f8b01549960108c01549b60118101546101205260128101546101a05260138101546102205260148101546101005260158101546102605260168101546101e052601781015460e052601881015461014052601981015461024052601a01546080526040518060c05261018051905260a05160c0516020015260c051604001526104408060c0516060015260c0510161016051906112b4916151d7565b60c05180820390608001526112c8916151d7565b60c0518082039060a001526112dc916151d7565b60c0518082039060c001526112f0916151d7565b60c0518082039060e00152611304916151d7565b976101c05161131290615217565b6101c05160c051610100015260c051610120015260c051610140015260c051610160015260c051610180015260c0516101a0015260c0516101c0015260c0516101e0015260c05161020001526101205160c05161022001526101a05160ff1661137a90614fe4565b6101a05160ff1660c05161024001526101a05160081c60ff1660c05161026001526101a05160101c60ff1660c05161028001526101a05160181c60ff1660c0516102a001526101a05160201c60ff166113d290614fe4565b6101a05160201c60ff1660c0516102c00152600160a01b600190036101a05160281c1660c0516102e001526102205160c05161030001526101005160c05161032001526102605160ff16151560c05161034001526102605160081c60ff1661143990615217565b6102605160081c60ff1660c051610360015260c051610380016102605160101c60ff169061146691615221565b6101e05160c0516103a0015260e05160c0516103c001526101405160c0516103e001526102405160c051610400015260805160c051610420015260c05180910390f35b50346102e25760203660031901126102e25760409060043581526009602052208054906102da600182015460028301549260038101549460048201549260058301549160068401549060078501549160088601549460ff600a600989015498015416976040519b8c9b8c60ff8860101c169860ff808a60081c1699169760ff8460a01c169360018060a01b031692614ff8565b50346102e257602080600319360112610364576001600160a01b0361155f614f4f565b168252600a815260408220916040518092808554928381520194835280832092905b828210611598576102da85610341818903826151b4565b835486529485019460019384019390910190611581565b50346102e257806003193601126102e257602090604051908152f35b50346102e2576102603660031901126102e2576004356001600160401b038111610364576115fd903690600401614efc565b6024356001600160401b0381116122f55761161c903690600401614efc565b906044356001600160401b0381116120485761163c903690600401614efc565b906064356001600160401b0381116122f15761165c903690600401614efc565b906084356001600160401b0381116122ed5761167c903690600401614efc565b999098600260a435101561036457600361014435101561036457610164356001600160a01b0381169003612078576116b2614f29565b60036101e43510156102de5760ff610204351661020435036120785760ff610224351661022435036120785760026102443510156102de576116f2615700565b6116fa6156e2565b61170760c435151561544f565b6117144260e435116154aa565b600254604051635d8eb68760e01b815260089190911c6001600160a01b031690602081600481855afa9081156120c65785916122bb575b50610124351061225e576040516321dc66c760e11b8152602081600481855afa9081156120c657859161222c575b50610184351015806121c7575b61178f90615504565b604051636cff1caf60e11b8152602081600481855afa9081156120c6578591612195575b506101a435101580612132575b156120d157604051632905381160e21b815290602082600481845afa9182156120c6578592612090575b506117ff60049260ff6102043516111561556b565b60035482546040516337382d3960e21b8152936001600160a01b03928316939290911691602091859182905afa92831561208557869361204c575b50813b1561204857918591611867938360405180968195829463ec185a0760e01b845233600485016155d3565b03925af1801561203d57908491612029575b5050600554996118888b615619565b6005558a84526007602052604084208b81556001810180546001600160a01b03191633179055926001600160401b0382116120155781906118cc6003860154615083565b601f8111611fc4575b508590601f8311600114611f58578692611f4d575b50508160011b916000199060031b1c19161760038301555b6001600160401b038911611d095761191d6004830154615083565b601f8111611f08575b508883601f8211600114611e9c578491611e91575b508960011b906000198b60031b1c19161760048301555b6001600160401b038711611d095761196d6005830154615083565b601f8111611e4c575b508683601f8211600114611de2578491611dd7575b508760011b906000198960031b1c19161760058301555b6001600160401b038511611d09576119bd6006830154615083565b601f8111611d92575b508483601f8211600114611d28578491611d1d575b508560011b906000198760031b1c19161760068301555b6001600160401b038c11611d0957611a0d6007830154615083565b9b601f8d11611cc0575b60209c50839b601f8211600114611c2d579a611b99968e829e97611b69611bb19f859f9e9c978a859f9b9a6040928a8a9f9b611b819c8a9f978d9892611c22575b50508160011b916000199060031b1c19161760078301555b611a7f60a4356008840161563e565b60c435600983015560e435600b830155610104356011830155610124356010830155611b3f60128301611ab461014435614fe4565b8054600160281b600160c81b036101643560281b1660ff6101443581168d1b60018e1b600160c81b0319909316929092171782556101843560138601556101a435601486015560158501805460ff1916941515909116939093178355805463ff00000019168155611b286101e43582615656565b611b356102043582615660565b6102243590615676565b611b4c610244358261568e565b62ff0000198154169055601642910155338152600a8652206156ad565b8260405193849283378101600c8152030190206156ad565b8260405193849283378101600d8152030190206156ad565b8260405193849283378101600e8152030190206156ad565b60405160018152428382015281600080516020615b8b83398151915260403393a380600080516020615b6b83398151915260c06040516000815260008682015260806040820152600760808201526618dc99585d195960ca1b60a0820152426060820152a260018055604051908152f35b013590503880611a58565b6007840185528d852090859d8e5b601f19851611611ca8578f9a968e9f5097611b69611bb19f9e9d9b968f9a6040908f9a8d9893611b999f988b8b968f9a92600193611b819f601f19811610611c8e575b505050811b016007830155611a70565b0135600019600384901b60f8161c19169055388080611c7e565b918f600181928585013581550193019e019d8e611c3b565b60078301845260208420601f820160051c810160208310611d02575b601f8f5b0160051c82018110611cf3575050611a17565b60008155600101601f8f611ce0565b5080611cdc565b634e487b7160e01b83526041600452602483fd5b9050840135386119db565b600684018552602085209150845b601f1988168110611d7a575086601f19811610611d60575b5050600185811b0160068301556119f2565b850135600019600388901b60f8161c191690553880611d4e565b9091602060018192858a013581550193019101611d36565b60068301845260208420601f870160051c810160208810611dd0575b601f830160051c82018110611dc45750506119c6565b60008155600101611dae565b5080611dae565b90508601353861198b565b600584018552602085209150845b601f198a168110611e34575088601f19811610611e1a575b5050600187811b0160058301556119a2565b87013560001960038a901b60f8161c191690553880611e08565b9091602060018192858c013581550193019101611df0565b60058301845260208420601f890160051c810160208a10611e8a575b601f830160051c82018110611e7e575050611976565b60008155600101611e68565b5080611e68565b90508801353861193b565b600484018552602085209150845b8a601f198d168210611ef05750508a601f19811610611ed6575b5050600189811b016004830155611952565b89013560001960038c901b60f8161c191690553880611ec4565b60018394602093948493013581550193019101611eaa565b60048301845260208420601f8b0160051c810160208c10611f46575b601f830160051c82018110611f3a575050611926565b60008155600101611f24565b5080611f24565b0135905038806118ea565b60038601875260208720879450915b601f1984168510611fac576001945083601f19811610611f92575b505050811b016003830155611902565b0135600019600384901b60f8161c19169055388080611f82565b81810135835560209485019460019093019201611f67565b90915060038501865260208620601f840160051c81016020851061200e575b90849392915b601f830160051c82018110611fff5750506118d5565b60008155859450600101611fe9565b5080611fe3565b634e487b7160e01b85526041600452602485fd5b61203290615153565b6102de578238611879565b6040513d86823e3d90fd5b8580fd5b9092506020813d60201161207d575b81612068602093836151b4565b810103126120785751913861183a565b600080fd5b3d915061205b565b6040513d88823e3d90fd5b91506020823d6020116120be575b816120ab602093836151b4565b81010312612078579051906117ff6117ea565b3d915061209e565b6040513d87823e3d90fd5b60405162461bcd60e51b815260206004820152603360248201527f4f7074696f6e73436f72653a206d617267696e43616c6c446561646c696e65206044820152726f7574206f6620636f6e6669672072616e676560681b6064820152608490fd5b506040516326959f0960e11b8152602081600481855afa9081156120c6578591612163575b506101a43511156117c0565b90506020813d60201161218d575b8161217e602093836151b4565b81010312612078575138612157565b3d9150612171565b90506020813d6020116121bf575b816121b0602093836151b4565b810103126120785751386117b3565b3d91506121a3565b5060405163294772e560e01b8152602081600481855afa80156120c65785906121f8575b6101843511159050611786565b506020813d602011612224575b81612212602093836151b4565b810103126120785761178f90516121eb565b3d9150612205565b90506020813d602011612256575b81612247602093836151b4565b81010312612078575138611779565b3d915061223a565b60405162461bcd60e51b815260206004820152602f60248201527f4f7074696f6e73436f72653a206d696e4d617267696e526174652062656c6f7760448201526e20636f6e666967206d696e696d756d60881b6064820152608490fd5b90506020813d6020116122e5575b816122d6602093836151b4565b8101031261207857513861174b565b3d91506122c9565b8980fd5b8780fd5b8380fd5b50346102e25760403660031901126102e2576040612315614f65565b91600435815280602052209060018060a01b0316600052602052602060ff604060002054166040519015158152f35b50346102e257806003193601126102e2576003546040516001600160a01b039091168152602090f35b50346102e257806003193601126102e2576123866152b2565b61238e6156e2565b600160ff1960025416176002557f62e78cea01bee320cd4e420270b5ea74000d11b0c9f74754ebdbfc544b05a2586020604051338152a180f35b50346102e257602080600319360112610364576004356001600160401b0381116102de576123fb82913690600401614efc565b91908260405193849283378101600d815203019020916040518092808554928381520194835280832092905b82821061243e576102da85610341818903826151b4565b835486529485019460019384019390910190612427565b50346102e257806003193601126102e25760025460405160089190911c6001600160a01b03168152602090f35b50346102e25760c03660031901126102e257600360643510156102e25760843560ff811681036120785760a4359060ff8216820361207857600435151580612b28575b6124ce906157e2565b6124d6615700565b6124de6156e2565b60043583526007602052604083209060ff601583015460101c16600b811015610f7d578015908115612b1d575b5015612ac857600435845260086020526040842080548591825b828110612a84575050600254604051630be0cbcd60e21b815260089190911c6001600160a01b031692909150602082600481865afa918215612a79578792612a45575b5010156129e257604051632905381160e21b8152602081600481855afa9081156120855786916129af575b506004916125a860209260ff8616111561556b565b604051635d8eb68760e01b815292839182905afa9081156120c657859161297d575b5060443510612923576009820154906127106125f7816125ec60243586615768565b049360443590615768565b04906011840154806128c5575b506010840154604435106128815760035460045487916001600160a01b039182169116803b156102de578483916126539383604051809681958294630ac94d9360e31b8452336004850161577b565b03925af1801561287657612862575b50506006549461267186615619565b6006556002546040516306a15d6d60e11b8152906020908290600490829060081c6001600160a01b03165afa908115612857578891612824575b5060ff926126ba849242615850565b94604051966126c88861517c565b89885260043560208901523360408901528a6060890152602435608089015260a088015260443560c088015260e0870152612704606435614fe4565b606435610100870152166101208501521661014083015242610160830152610180820152836101a0820152828452600960205261274481604086206159ba565b6004358452600860205260408420805490600160401b82101561281057906127719160018201815561522e565b6127fc579061277f916159ba565b601581015460ff8160101c16600b811015610f7d5760209450156127e4575b5050604051602435815242838201528133917f878fe3f9bca373e42473c1f3ad3c9c35c4f1ecaf9a5f081a801a3fbd43049f55604060043592a460018055604051908152f35b6201000060159162ff0000191617910155388061279e565b634e487b7160e01b85526004859052602485fd5b634e487b7160e01b86526041600452602486fd5b90506020813d60201161284f575b8161283f602093836151b4565b81010312612078575160ff6126ab565b3d9150612832565b6040513d8a823e3d90fd5b61286b90615153565b612048578538612662565b6040513d84823e3d90fd5b606460405162461bcd60e51b815260206004820152602060248201527f4f7074696f6e73436f72653a206d617267696e207261746520746f6f206c6f776044820152fd5b602435116128d35738612604565b60405162461bcd60e51b815260206004820152602260248201527f4f7074696f6e73436f72653a207072656d69756d207261746520746f6f2068696044820152610ced60f31b6064820152608490fd5b60405162461bcd60e51b815260206004820152602c60248201527f4f7074696f6e73436f72653a206d617267696e526174652062656c6f7720636f60448201526b6e666967206d696e696d756d60a01b6064820152608490fd5b90506020813d6020116129a7575b81612998602093836151b4565b810103126120785751386125ca565b3d915061298b565b90506020813d6020116129da575b816129ca602093836151b4565b8101031261207857516004612593565b3d91506129bd565b60405162461bcd60e51b815260206004820152603560248201527f4f7074696f6e73436f72653a206d6178206163746976652071756f746573207260448201527432b0b1b432b2103337b9103a3434b99037b93232b960591b6064820152608490fd5b9091506020813d602011612a71575b81612a61602093836151b4565b8101031261207857519038612568565b3d9150612a54565b6040513d89823e3d90fd5b60ff600a612a92838561522e565b50015416612a9f81614fee565b15612ab3575b612aae90615619565b612525565b92612ac0612aae91615619565b939050612aa5565b60405162461bcd60e51b815260206004820152602760248201527f4f7074696f6e73436f72653a206f72646572206e6f7420616363657074696e676044820152662071756f74657360c81b6064820152608490fd5b60019150143861250b565b50600554600435106124c5565b5060403660031901126102e25760243560043560038210156102de5780151580612d6c575b612b63906157e2565b8083526007602052612b8560018060a01b036001604086200154163314615723565b612b8d615700565b612b956156e2565b808352600760205260408320601581019283549360ff8560101c1690600b821015612d585760028203612cba57600080516020615b6b83398151915260c0600080516020615aeb8339815191529594938793620300008b9a62ff00001916179055612c036040518092615221565b600360208201526080604082015260166080820152751a5b9a5d1a585b0819995959081c995c5d595cdd195960521b60a0820152426060820152a25b600982015490612c856040519360e085526006612c76612c6560e08801600485016150bd565b8781036020890152600584016150bd565b918683036040880152016150bd565b95612c8f81614fee565b6060840152612c9d81614fe4565b608083015260a08201524260c08201528033940390a36001805580f35b5090935060058103612cdf5750600080516020615aeb83398151915290600293612c3f565b600403612cfe57600080516020615aeb83398151915290600193612c3f565b60405162461bcd60e51b815260206004820152602c60248201527f4f7074696f6e73436f72653a20696e76616c69642073746174757320666f722060448201526b19995959081c995c5d595cdd60a21b6064820152608490fd5b634e487b7160e01b87526021600452602487fd5b506005548110612b5a565b50346102e2576020806003193601126103645760043590811515806130e4575b612da0906157e2565b612da8615700565b612db06156e2565b8183526007815260408320601581019182549360ff8560101c1692600b841015612d5857836130a1576002810180546001600160a01b0396919391908716801561305c57331461300b576001830180546001600160a01b0319163317815562ff000019909816620200001790554260178301556009820154600254604051631c03be3560e31b81528a92909187908390600490829060081c8d165afa918215612fc8578392612fd7575b5061271091612e6891615768565b0487600354168860045416600d860154823b15612fd357612ea392859283604051809681958294630ac94d9360e31b8452336004850161577b565b03925af1908115612fc8578391612fb4575b5050876003541690886004541690823b156122f557612eee9284928360405180968195829463ec185a0760e01b8452336004850161579d565b03925af1801561287657612f96575b50509185600080516020615b6b8339815191529660c0969593612f2c600296338d52600a875260408d206156ad565b549854169154169087600080516020615bab83398151915284604051428152a4612f596040518094615221565b8201526080604082015260156080820152741cd95b1b195c881bdc99195c881858d8d95c1d1959605a1b60a0820152426060820152a26001805580f35b612fa590969593949296615153565b6122f157919092938738612efd565b612fbd90615153565b610364578138612eb5565b6040513d85823e3d90fd5b8480fd5b925090508582813d8111613004575b612ff081836151b4565b810103126120785790518991612e68612e5a565b503d612fe6565b60405162461bcd60e51b8152600481018690526024808201527f4f7074696f6e73436f72653a2063616e6e6f7420616363657074206f776e206f604482015263393232b960e11b6064820152608490fd5b60405162461bcd60e51b815260048101879052601f60248201527f4f7074696f6e73436f72653a206e6f7420612073656c6c6572206f72646572006044820152606490fd5b6064836040519062461bcd60e51b825280600483015260248201527f4f7074696f6e73436f72653a206f72646572206e6f7420617661696c61626c656044820152fd5b506005548210612d97565b50346102e2576130fe36614f39565b908015158061312b575b613111906157e2565b61311961524a565b82526007602052601960408320015580f35b506005548110613108565b50346102e2576020806003193601126103645760043590613155615700565b61315d6156e2565b818352600981526040832060ff90600a9282848301541661317d81614fee565b6134e257600982015442116134a1576001948583015487526007825260408720948686019560018060a01b03906131b8828954163314615723565b60158101938454946202000062ff0000198716179055600296878101948c85875416968a86019760018060a01b031989541617885561323e600760048601958654600d8a0155600681015480600e8b0155600f8a0155018d808254169161322360128b019384615656565b61323382825460081c1684615660565b5460101c1690615676565b42601787015560048b8b8960098a0154925460081c1660405193848092631c03be3560e31b82525afa91821561203d57849261346d575b506127109161328391615768565b049387600354169088600454169054823b15612fd3576132bd92859283604051809681958294630ac94d9360e31b8452336004850161577b565b03925af1908115612fc8578391613459575b5050866003541693876004541690853b156122f5576133089584928360405180998195829463ec185a0760e01b8452336004850161579d565b03925af1908115612876578e94889261343e575b5054168152600b8952604090208454613334916156ad565b83548d526008885260408d208d835b6133cc575b505050505092600080516020615b6b833981519152969492826133989360c09896549a54169154169089600080516020615bab83398151915286604051428152a460405194859160101c16615221565b82015260806040820152600e60808201526d1c5d5bdd19481858d8d95c1d195960921b60a0820152426060820152a2805580f35b81548110156134395780856133e46133f7938561522e565b5054141580613419575b6133fd57615619565b83613343565b83613408828561522e565b5001805460ff19168d179055615619565b508c84613426838661522e565b5001541661343381614fee565b156133ee565b613348565b61344c919550839250615153565b6102e257858d933861331c565b61346290615153565b6103645781386132cf565b935090508a83813d811161349a575b61348681836151b4565b810103126120785791518f92613283613275565b503d61347c565b6064906040519062461bcd60e51b82526004820152601a60248201527913dc1d1a5bdb9cd0dbdc994e881c5d5bdd1948195e1c1a5c995960321b6044820152fd5b6064906040519062461bcd60e51b82526004820152601d60248201527f4f7074696f6e73436f72653a2071756f7465206e6f74206163746976650000006044820152fd5b50346102e257806003193601126102e257602060ff600254166040519015158152f35b50346102e257806003193601126102e2576020600654604051908152f35b50346102e25760403660031901126102e257613581614f4f565b6001600160a01b03168152600b60205260408120805460243592908310156102e25760206135af8484614f7b565b90546040519160031b1c8152f35b50346102e25760403660031901126102e2576135d7614f4f565b6001600160a01b03168152600a60205260408120805460243592908310156102e25760206135af8484614f7b565b50346102e25761361436614f39565b9080151580613641575b613627906157e2565b61362f61524a565b82526007602052601a60408320015580f35b50600554811061361e565b50346102e25761365b36614f39565b8115158061376d575b61366d906157e2565b6136756152b2565b816000526007602052604060002081156104a6576015810180549160ff8360101c1691600b83101561049057600483148015613763575b15613724576206000060c094600080516020615b6b83398151915296601985015562ff000019161790556018429101556136e96040518092615221565b6006602082015260806040820152601360808201527266696e616c20666565642063616c6c6261636b60681b60a0820152426060820152a280f35b60405162461bcd60e51b815260206004820152602480820152600080516020615aab8339815191526044820152631999595960e21b6064820152608490fd5b50600583146136ac565b506005548210613664565b50346102e257806003193601126102e2576137916152b2565b60025460ff8116156137d15760ff19166002557f5db9ee0a495bf2e6ff9c91a7834c1ba4fdd244a5e8aa4e537bd38aeae4b073aa6020604051338152a180f35b604051638dfc202b60e01b8152600490fd5b50346102e2576020806003193601126103645760043590811515806139e0575b61380c906157e2565b613814615700565b61381c6156e2565b8183526007815260408320601581019060ff825460101c1690600b8210159081612d5857821580156139d2575b1561398d5760160154600254604051634f6bfad760e01b8152919086908390600490829060081c6001600160a01b03165afa90811561285757889161395c575b6138939250615850565b42111561391957610f7d57600080516020615b6b833981519152926138f460ff936001600a941461390b575b805490620a000062ff000019831617905586600080516020615b2b8339815191526040516040815280610f316040820161585d565b8201526080604082015280610f5f6080820161585d565b6139148761587b565b6138bf565b6064846040519062461bcd60e51b825280600483015260248201527f4f7074696f6e73436f72653a20524651206e6f742065787069726564207965746044820152fd5b90508582813d8311613986575b61397381836151b4565b8101031261207857613893915190613889565b503d613969565b60405162461bcd60e51b815260048101869052601d60248201527f4f7074696f6e73436f72653a206e6f7420696e205246512070686173650000006044820152606490fd5b506000915060018314613849565b506005548210613803565b50346102e25760403660031901126102e257613a05614f65565b336001600160a01b03821603613a2157610530906004356153da565b60405163334bd91960e11b8152600490fd5b50346102e25760603660031901126102e2576004356024803560048110156122f55760449081359184151580613ed1575b613a6d906157e2565b613a756152ec565b84600052602092600784526040600020928115613e9157613a9581614fee565b80613b985750601583019283549260ff8460101c1696600b881015613b8457600288148015613b7a575b15613b3b575050600a81018290556019015562ff0000191662040000179055604051600080516020615b6b8339815191529260c092600491613b02908490615221565b820152608060408201526015608082015274696e697469616c20666565642063616c6c6261636b60581b60a0820152426060820152a280f35b600080516020615b0b833981519152608492602689936040519462461bcd60e51b86526004860152840152820152651b081999595960d21b6064820152fd5b5060038814613abf565b634e487b7160e01b60009081526021600452fd5b613ba58196929596614fee565b60018103613c93575060ff601584015460101c16600b811015613c7e57600403613c255750509160c0916019600080516020615b6b83398151915294015560046040519181835282015260806040820152601560808201527464796e616d696320666565642063616c6c6261636b60581b60a0820152426060820152a280f35b7f4f7074696f6e73436f72653a2064796e616d69632066656564206f6e6c792066608492602e87936040519462461bcd60e51b865260048601528401528201526d6f72204c495645206f726465727360901b6064820152fd5b50634e487b7160e01b60009081526021600452fd5b613ca1819695939296614fee565b60028103613d8f5750601583019182549160ff8360101c1696600b881015613b8457600488148015613d85575b15613d49575050601984015562ff000019166206000017905542601890910155604051600080516020615b6b8339815191529260c092600691613d12908490615221565b82015260806040820152601360808201527266696e616c20666565642063616c6c6261636b60681b60a0820152426060820152a280f35b600080516020615aab83398151915260849288926040519362461bcd60e51b8552600485015280840152820152631999595960e21b6064820152fd5b5060058814613cce565b80613d9b600392614fee565b14613daa575b50505050505080f35b601583019182549160ff8360101c1696600b881015613b845760078803613e4f575050601984015562ff000019166206000017905542601890910155604051600080516020615b6b8339815191529260c092600691613e0a908490615221565b8201526080604082015260196080820152786172626974726174696f6e20666565642063616c6c6261636b60381b60a0820152426060820152a2388080808080613da1565b7f4f7074696f6e73436f72653a206e6f7420696e206172626974726174696f6e00606492601f89936040519462461bcd60e51b86526004860152840152820152fd5b60405162461bcd60e51b815260048101869052601a81880152794f7074696f6e73436f72653a20696e76616c696420707269636560301b81850152606490fd5b506005548510613a64565b50346102e25760403660031901126102e25760043560243560048110156102de5781151580614090575b613f0f906157e2565b613f176152ec565b81835260076020526040832090613f2d81614fee565b80613fd05750601501805460ff8160101c16600b811015610f7d5760028114613f58575b5050505080f35b600080516020615b6b833981519152926203000060c09362ff00001916179055613f856040518092615221565b6003602082015260806040820152601f60808201527f666565642072657175657374656420766961204665656450726f746f636f6c0060a0820152426060820152a238808080613f51565b80613fdc600292614fee565b14613fe657505080f35b601501805460ff8160101c16600b811015610f7d576004811461400a575050505080f35b600080516020615b6b833981519152926205000060e09362ff000019161790556140376040518092615221565b6005602082015260806040820152602560808201527f66696e616c20666565642072657175657374656420766961204665656450726f60a0820152641d1bd8dbdb60da1b60c0820152426060820152a238808080613f51565b506005548210613f06565b50346102e257806003193601126102e2576004546040516001600160a01b039091168152602090f35b50346102e25760403660031901126102e2576105306004356140e4614f65565b90808452836020526140fc6001604086200154615336565b61535c565b50346102e257806003193601126102e2576020600554604051908152f35b50346102e25760203660031901126102e257600160406020926004358152808452200154604051908152f35b50346102e25760203660031901126102e257614165614f4f565b61416d6152b2565b60028054610100600160a81b03191660089290921b610100600160a81b031691909117905580f35b50346102e2576141a436614f39565b90801515806141d1575b6141b7906157e2565b6141bf61524a565b82526007602052600f60408320015580f35b5060055481106141ae565b50346102e2576141eb36614f39565b9080151580614218575b6141fe906157e2565b61420661524a565b82526007602052601860408320015580f35b5060055481106141f5565b50346102e25760203660031901126102e25760043563ffffffff60e01b811680910361036457602090637965db0b60e01b8114908115614269575b506040519015158152f35b6301ffc9a760e01b1490508261425e565b50346102e2576102203660031901126102e2576004356001600160401b038111610364576142ac903690600401614efc565b90916024356001600160401b038111610364576142cd903690600401614efc565b93906044356001600160401b0381116122f5576142ee903690600401614efc565b906064356001600160401b0381116120485761430e903690600401614efc565b90946084356001600160401b0381116122f15761432f903690600401614efc565b600260a4351015614ef8576003610144351015614ef85760ff61016435166101643503614ef85760ff61018435166101843503614ef85761436e614f29565b9160ff6101e435166101e435036122ed5760026102043510156122ed57614393615700565b61439b6156e2565b6143a860c435151561544f565b6143b54260e435116154aa565b60025460405163a6bfbe2360e01b815260089190911c6001600160a01b031690602081600481855afa908115614d93578c91614ec6575b5060ff6101e43516101580614e60575b15614e0457604051632905381160e21b8152602081600481855afa8015614d93578c90614dd0575b614437915060ff6101643516111561556b565b6040516321dc66c760e11b8152602081600481855afa908115614d93578c91614d9e575b506101a435101580614d2e575b90614474600492615504565b60035482546040516337382d3960e21b8152936001600160a01b03928316939290911691602091859182905afa928315614d23578d93614cef575b50813b15614ceb57918c916144dc938360405180968195829463ec185a0760e01b845233600485016155d3565b03925af18015614cc957614cd8575b506003546004546001600160a01b039182169116813b15614cd45761452f8c928392604051948580948193630ac94d9360e31b83526101243590336004850161577b565b03925af18015614cc957908b91614cb5575b50506005549a6145508c615619565b6005558b8b52600760205260408b208c81556002810180546001600160a01b03191633179055946001600160401b038211614ca15781906145946003880154615083565b601f8111614c50575b508c90601f8311600114614be4578d92614bd9575b50508160011b916000199060031b1c19161760038501555b6001600160401b038c1161498f576145e56004850154615083565b601f8111614b93575b508b8a601f8211600114614b24578b91614b19575b5060001960038e901b1c191660018d901b1760048501555b6001600160401b03871161498f576146366005850154615083565b601f8111614ad4575b50868a601f8211600114614a6a578b91614a5f575b508760011b906000198960031b1c19161760058501555b6001600160401b03851161498f576146866006850154615083565b601f8111614a1a575b50848a601f82116001146149ae578b916149a3575b508560011b906000198760031b1c19161760068501555b6001600160401b03821161498f576146d66007850154615083565b601f811161494a575b509260209b9694928a928c9997958490601f831160011461489e57958f6148169d611b698e60408a859f9e9b9a611b999e9a8a859f9b869b8a9f9d611b819e92614893575b50508160011b916000199060031b1c19161760078301555b61474b60a4356008840161563e565b60c435600983015560e435600b83015561271061476d6101043560c435615768565b04600d83015561012435600e83015561012435600f830155601282016147966101443582615656565b6147a36101643582615660565b6147b06101843582615676565b6101a43560138401556147d36015840192839060ff801983541691151516179055565b805463ff00000019166101e43560181b63ff000000161790556147f9610204358261568e565b62ff0000198154169055601642910155338152600b8652206156ad565b604051908152428382015281600080516020615b8b83398151915260403393a380600080516020615b6b83398151915260c0604051600081526000868201526080604082015260146080820152731cd95b1b195c881bdc99195c8818dc99585d195960621b60a0820152426060820152a260018055604051908152f35b013590503880614724565b9b94939291906007840185528f852090855b601f1984168110614918575060209a9996611b696148169f8f9a948e99611b999d99611b819960018f9a6040958f9a978d9883601f198116106148fe575b505050811b01600783015561473c565b0135600019600384901b60f8161c191690553880806148ee565b9295509396989a9c929597999b508f600181928686013581550194019101928d94918f9c9a9896939d9b9997946148b0565b600785018b5260208b20601f840160051c810160208510614988575b601f830160051c8201811061497c5750506146df565b60008155600101614966565b5080614966565b634e487b7160e01b8a52604160045260248afd5b9050890135386146a4565b600686018c5260208c2091508b5b8b601f1989168210614a0257505086601f198116106149e8575b5050600185811b0160068501556146bb565b8a0135600019600388901b60f8161c1916905538806149d6565b600183946020939484930135815501930191016149bc565b600685018b5260208b20601f870160051c810160208810614a58575b601f830160051c82018110614a4c57505061468f565b60008155600101614a36565b5080614a36565b905086013538614654565b600586018c5260208c2091508b5b601f198a168110614abc575088601f19811610614aa2575b5050600187811b01600585015561466b565b87013560001960038a901b60f8161c191690553880614a90565b9091602060018192858c013581550193019101614a78565b600585018b5260208b20601f890160051c810160208a10614b12575b601f830160051c82018110614b0657505061463f565b60008155600101614af0565b5080614af0565b905088013538614603565b600486018c5260208c2091508b8e5b8b601f1982168310614b795750601f198116109050614b5f575b505060018c811b01600485015561461b565b89013560001960038f901b60f8161c191690553880614b4d565b600184956020939495849301358155019401920190614b33565b600485018b5260208b208d6020601f820160051c83019110614bd2575b601f830160051c82018110614bc65750506145ee565b60008155600101614bb0565b5080614bb0565b0135905038806145b2565b600388018e5260208e208e9450915b601f1984168510614c38576001945083601f19811610614c1e575b505050811b0160038501556145ca565b0135600019600384901b60f8161c19169055388080614c0e565b81810135835560209485019460019093019201614bf3565b909150600387018d5260208d20601f840160051c810160208510614c9a575b90849392915b601f830160051c82018110614c8b57505061459d565b60008155859450600101614c75565b5080614c6f565b634e487b7160e01b8c52604160045260248cfd5b614cbe90615153565b6122ed578938614541565b6040513d8d823e3d90fd5b8b80fd5b614ce4909a919a615153565b98386144eb565b8c80fd5b9092506020813d602011614d1b575b81614d0b602093836151b4565b81010312614ceb575191386144af565b3d9150614cfe565b6040513d8f823e3d90fd5b5060405163294772e560e01b8152602081600481855afa908115614d93578c91614d5f575b506101a4351115614468565b90506020813d602011614d8b575b81614d7a602093836151b4565b81010312614cd45751614474614d53565b3d9150614d6d565b6040513d8e823e3d90fd5b90506020813d602011614dc8575b81614db9602093836151b4565b81010312614cd457513861445b565b3d9150614dac565b506020813d602011614dfc575b81614dea602093836151b4565b81010312614cd4576144379051614424565b3d9150614ddd565b60405162461bcd60e51b815260206004820152602e60248201527f4f7074696f6e73436f72653a20657865726369736544656c6179206f7574206f60448201526d6620636f6e6669672072616e676560901b6064820152608490fd5b5060405163f1d814b960e01b8152602081600481855afa908115614d93578c91614e94575b5060ff6101e4351611156143fc565b90506020813d602011614ebe575b81614eaf602093836151b4565b81010312614cd4575138614e85565b3d9150614ea2565b90506020813d602011614ef0575b81614ee1602093836151b4565b81010312614cd45751386143ec565b3d9150614ed4565b8880fd5b9181601f84011215612078578235916001600160401b038311612078576020838186019501011161207857565b6101c43590811515820361207857565b6040906003190112612078576004359060243590565b600435906001600160a01b038216820361207857565b602435906001600160a01b038216820361207857565b8054821015614f935760005260206000200190600090565b634e487b7160e01b600052603260045260246000fd5b6020908160408183019282815285518094520193019160005b828110614fd0575050505090565b835185529381019392810192600101614fc2565b6003111561049057565b6004111561049057565b9b99979593919e9d9c9a98969492909e6101c08d019f8d5260208d0152600160a01b600190031660408c015261502d81614fe4565b60608b015260808a015260a089015260c088015260e087015261504f81614fe4565b61010086015260ff1661012085015260ff1661014084015261016083015261018082015261507c82614fee565b6101a00152565b90600182811c921680156150b3575b602083101461509d57565b634e487b7160e01b600052602260045260246000fd5b91607f1691615092565b90600092918054916150ce83615083565b91828252600193848116908160001461513057506001146150f0575b50505050565b90919394506000526020928360002092846000945b83861061511c5750505050010190388080806150ea565b805485870183015294019385908201615105565b9294505050602093945060ff191683830152151560051b010190388080806150ea565b6001600160401b03811161516657604052565b634e487b7160e01b600052604160045260246000fd5b6101c081019081106001600160401b0382111761516657604052565b61044081019081106001600160401b0382111761516657604052565b601f909101601f19168101906001600160401b0382119082101761516657604052565b919082519283825260005b848110615203575050826000602080949584010152601f8019910116010190565b6020818301810151848301820152016151e2565b6002111561049057565b90600b8210156104905752565b8054821015614f9357600052600b602060002091020190600090565b3360009081527fdd53df7e4642f4e3d9dededdac02355f2e876e2a9b7ef4e260af8d6fd7b332576020526040902054600080516020615acb8339815191529060ff16156152945750565b6044906040519063e2517d3f60e01b82523360048301526024820152fd5b3360009081527fad3228b676f7d3cd4284a5443f17f1962b36e491b30a40b2405849e597ba5fb5602052604081205460ff16156152945750565b3360009081527f3f8d9a030d334798d6aece9c5bcc7646b3f51f8740e76f47846d18cc4a1a8e4e6020526040902054600080516020615b4b8339815191529060ff16156152945750565b80600052600060205260406000203360005260205260ff60406000205416156152945750565b9060009180835282602052604083209160018060a01b03169182845260205260ff604084205416156000146153d557808352826020526040832082845260205260408320600160ff198254161790557f2f8788117e7eff1d82e926ec794901d17c78024a50270940304540a733656f0d339380a4600190565b505090565b9060009180835282602052604083209160018060a01b03169182845260205260ff6040842054166000146153d55780835282602052604083208284526020526040832060ff1981541690557ff6391f5c32d9c69d2a47ea670b442974b53935d1edc7fd64eb21e047a839171b339380a4600190565b1561545657565b60405162461bcd60e51b815260206004820152602660248201527f4f7074696f6e73436f72653a206e6f74696f6e616c206d75737420626520706f60448201526573697469766560d01b6064820152608490fd5b156154b157565b60405162461bcd60e51b815260206004820152602560248201527f4f7074696f6e73436f72653a20657870697279206d75737420626520696e2066604482015264757475726560d81b6064820152608490fd5b1561550b57565b60405162461bcd60e51b815260206004820152603260248201527f4f7074696f6e73436f72653a206172626974726174696f6e57696e646f77206f6044820152717574206f6620636f6e6669672072616e676560701b6064820152608490fd5b1561557257565b60405162461bcd60e51b815260206004820152603360248201527f4f7074696f6e73436f72653a20636f6e736563757469766544617973206578636044820152726565647320636f6e666967206d6178696d756d60681b6064820152608490fd5b6001600160a01b039182168152911660208201526040810191909152608060608201819052600c908201526b6372656174696f6e5f66656560a01b60a082015260c00190565b60001981146156285760010190565b634e487b7160e01b600052601160045260246000fd5b9061564881615217565b60ff80198354169116179055565b9061564881614fe4565b9061ff0082549160081b169061ff001916179055565b9062ff000082549160101b169062ff00001916179055565b9061569881615217565b61ff0082549160081b169061ff001916179055565b8054600160401b811015615166576156ca91600182018155614f7b565b819291549060031b91821b91600019901b1916179055565b60ff600254166156ee57565b60405163d93c066560e01b8152600490fd5b600260015414615711576002600155565b604051633ee5aeb560e01b8152600490fd5b1561572a57565b60405162461bcd60e51b815260206004820152601660248201527527b83a34b7b739a1b7b9329d103737ba10313abcb2b960511b6044820152606490fd5b8181029291811591840414171561562857565b6001600160a01b03918216815291166020820152604081019190915260600190565b6001600160a01b039182168152911660208201526040810191909152608060608201819052600b908201526a74726164696e675f66656560a81b60a082015260c00190565b156157e957565b60405162461bcd60e51b815260206004820152601d60248201527f4f7074696f6e73436f72653a20696e76616c6964206f726465722069640000006044820152606490fd5b600f81526e189d5e595c8818d85b98d95b1b1959608a1b602082015260400190565b9190820180921161562857565b600b81526a1c999c481d1a5b595bdd5d60aa1b602082015260400190565b906000828152602060088152604093848320835b81548110156159b1576158a2818361522e565b50600a81019081549160ff83166158b881614fee565b15806159a4575b6158d5575b5050506158d090615619565b61588f565b6003809360ff191617905560018060a01b0380925416916002820191818354169360049083825416906006840196875493823b156159a057908f8e94939261593186925197889687958694636924faa760e11b8652850161577b565b03925af18015615996576158d09695949389937f18ae744a3a27b4a583da0d9b90c0bd0162260ed46685502b4c6f305e997167b5938f93615987575b505494541694548151908152428b820152a49038806158c4565b61599090615153565b3861596d565b8c513d8c823e3d90fd5b8d80fd5b50600682015415156158bf565b50505050509050565b600a6101a09183518155602084015160018201556002810160018060a01b0360408601511681549060608701516159f081614fe4565b6159f981614fe4565b6001600160a81b03199092161760a091821b60ff60a01b161790915560808501516003830155840151600482015560c0840151600582015560e08401516006820155610100840151615a7e906007830190615a5d90615a5781614fe4565b82615656565b615a6f60ff6101208801511682615660565b60ff6101408701511690615676565b6101608401516008820155610180840151600982015501910151615aa181614fee565b61564881614fee56fe4f7074696f6e73436f72653a206e6f74206177616974696e672066696e616c20300f9ae985dc711960f7a4d1dd013f9c19ecf40bff149522ab7523b2187a3846ce74058472262d5db42b1ca04d78e999d2dd523bdf8b33202e06cca947b31bbe4f7074696f6e73436f72653a206e6f74206177616974696e6720696e69746961b848a62ef7171019d243ed8f5b8e1e6c32cafed0b7fc99da26cb2fc2e7d533ec04967fd25e7aa667b18955d808f19fd0c86238999ff8be2ebc72cd2cd3a83db0ce3a31baf9956e086200ee7044a75c2befbd050912798b7bcd25d05831ab9592c0c6ed2669febbe340d8737e8ec17254ffd9e038b54a4585ff70ac3ca18956aa3d7463b72b52fafc8e3f27dc0dbb9d1a94c0a4024834252b5cce68509acb49bca2646970667358221220a2a373e592006eb28328bd9effc42a6cbe2a3e96b5e04f675455e247f6e8237c64736f6c63430008140033",
  "linkReferences": {},
  "deployedLinkReferences": {}
}