{
  "_format": "hh-sol-artifact-1",
  "contractName": "OptionsCore",
  "sourceName": "contracts/core/OptionsCore.sol",
  "abi": [
    {
      "inputs": [
        {
          "internalType": "address",
          "name": "_config",
          "type": "address"
        },
        {
          "internalType": "address",
          "name": "_vaultManager",
          "type": "address"
        },
        {
          "internalType": "address",
          "name": "_usdt",
          "type": "address"
        },
        {
          "internalType": "address",
          "name": "_admin",
          "type": "address"
        }
      ],
      "stateMutability": "nonpayable",
      "type": "constructor"
    },
    {
      "inputs": [],
      "name": "AccessControlBadConfirmation",
      "type": "error"
    },
    {
      "inputs": [
        {
          "internalType": "address",
          "name": "account",
          "type": "address"
        },
        {
          "internalType": "bytes32",
          "name": "neededRole",
          "type": "bytes32"
        }
      ],
      "name": "AccessControlUnauthorizedAccount",
      "type": "error"
    },
    {
      "inputs": [],
      "name": "EnforcedPause",
      "type": "error"
    },
    {
      "inputs": [],
      "name": "ExpectedPause",
      "type": "error"
    },
    {
      "inputs": [],
      "name": "ReentrancyGuardReentrantCall",
      "type": "error"
    },
    {
      "inputs": [
        {
          "internalType": "address",
          "name": "token",
          "type": "address"
        }
      ],
      "name": "SafeERC20FailedOperation",
      "type": "error"
    },
    {
      "anonymous": false,
      "inputs": [
        {
          "indexed": true,
          "internalType": "uint256",
          "name": "orderId",
          "type": "uint256"
        },
        {
          "indexed": true,
          "internalType": "uint256",
          "name": "arbitrationId",
          "type": "uint256"
        },
        {
          "indexed": false,
          "internalType": "address",
          "name": "initiator",
          "type": "address"
        },
        {
          "indexed": false,
          "internalType": "uint256",
          "name": "originalPrice",
          "type": "uint256"
        },
        {
          "indexed": false,
          "internalType": "uint256",
          "name": "arbitrationPrice",
          "type": "uint256"
        },
        {
          "indexed": false,
          "internalType": "bool",
          "name": "resultChanged",
          "type": "bool"
        },
        {
          "indexed": false,
          "internalType": "uint256",
          "name": "initiatorReward",
          "type": "uint256"
        },
        {
          "indexed": false,
          "internalType": "uint256",
          "name": "timestamp",
          "type": "uint256"
        }
      ],
      "name": "ArbitrationResolved",
      "type": "event"
    },
    {
      "anonymous": false,
      "inputs": [
        {
          "indexed": true,
          "internalType": "uint256",
          "name": "orderId",
          "type": "uint256"
        },
        {
          "indexed": false,
          "internalType": "uint256",
          "name": "dividendPerShare",
          "type": "uint256"
        },
        {
          "indexed": false,
          "internalType": "uint256",
          "name": "totalDividend",
          "type": "uint256"
        },
        {
          "indexed": false,
          "internalType": "uint256",
          "name": "timestamp",
          "type": "uint256"
        }
      ],
      "name": "DividendRecorded",
      "type": "event"
    },
    {
      "anonymous": false,
      "inputs": [
        {
          "indexed": true,
          "internalType": "uint256",
          "name": "orderId",
          "type": "uint256"
        },
        {
          "indexed": true,
          "internalType": "address",
          "name": "seller",
          "type": "address"
        },
        {
          "indexed": false,
          "internalType": "uint256",
          "name": "currentMargin",
          "type": "uint256"
        },
        {
          "indexed": false,
          "internalType": "uint256",
          "name": "requiredMargin",
          "type": "uint256"
        },
        {
          "indexed": false,
          "internalType": "uint256",
          "name": "deadline",
          "type": "uint256"
        }
      ],
      "name": "MarginCallTriggered",
      "type": "event"
    },
    {
      "anonymous": false,
      "inputs": [
        {
          "indexed": true,
          "internalType": "uint256",
          "name": "orderId",
          "type": "uint256"
        },
        {
          "indexed": true,
          "internalType": "address",
          "name": "seller",
          "type": "address"
        },
        {
          "indexed": false,
          "internalType": "uint256",
          "name": "oldAmount",
          "type": "uint256"
        },
        {
          "indexed": false,
          "internalType": "uint256",
          "name": "newAmount",
          "type": "uint256"
        },
        {
          "indexed": false,
          "internalType": "string",
          "name": "changeType",
          "type": "string"
        },
        {
          "indexed": false,
          "internalType": "uint256",
          "name": "timestamp",
          "type": "uint256"
        }
      ],
      "name": "MarginChanged",
      "type": "event"
    },
    {
      "anonymous": false,
      "inputs": [
        {
          "indexed": true,
          "internalType": "uint256",
          "name": "orderId",
          "type": "uint256"
        },
        {
          "indexed": false,
          "internalType": "string",
          "name": "reason",
          "type": "string"
        },
        {
          "indexed": false,
          "internalType": "uint256",
          "name": "timestamp",
          "type": "uint256"
        }
      ],
      "name": "OrderCancelled",
      "type": "event"
    },
    {
      "anonymous": false,
      "inputs": [
        {
          "indexed": true,
          "internalType": "uint256",
          "name": "orderId",
          "type": "uint256"
        },
        {
          "indexed": true,
          "internalType": "address",
          "name": "creator",
          "type": "address"
        },
        {
          "indexed": false,
          "internalType": "bool",
          "name": "isBuyerOrder",
          "type": "bool"
        },
        {
          "indexed": false,
          "internalType": "uint256",
          "name": "timestamp",
          "type": "uint256"
        }
      ],
      "name": "OrderCreated",
      "type": "event"
    },
    {
      "anonymous": false,
      "inputs": [
        {
          "indexed": true,
          "internalType": "uint256",
          "name": "orderId",
          "type": "uint256"
        },
        {
          "indexed": false,
          "internalType": "address",
          "name": "beneficiary",
          "type": "address"
        },
        {
          "indexed": false,
          "internalType": "uint256",
          "name": "amount",
          "type": "uint256"
        },
        {
          "indexed": false,
          "internalType": "uint256",
          "name": "timestamp",
          "type": "uint256"
        }
      ],
      "name": "OrderLiquidated",
      "type": "event"
    },
    {
      "anonymous": false,
      "inputs": [
        {
          "indexed": true,
          "internalType": "uint256",
          "name": "orderId",
          "type": "uint256"
        },
        {
          "indexed": true,
          "internalType": "address",
          "name": "buyer",
          "type": "address"
        },
        {
          "indexed": true,
          "internalType": "address",
          "name": "seller",
          "type": "address"
        },
        {
          "indexed": false,
          "internalType": "uint256",
          "name": "timestamp",
          "type": "uint256"
        }
      ],
      "name": "OrderMatched",
      "type": "event"
    },
    {
      "anonymous": false,
      "inputs": [
        {
          "indexed": true,
          "internalType": "uint256",
          "name": "orderId",
          "type": "uint256"
        },
        {
          "indexed": false,
          "internalType": "uint256",
          "name": "buyerPayout",
          "type": "uint256"
        },
        {
          "indexed": false,
          "internalType": "uint256",
          "name": "sellerPayout",
          "type": "uint256"
        },
        {
          "indexed": false,
          "internalType": "uint256",
          "name": "timestamp",
          "type": "uint256"
        }
      ],
      "name": "OrderSettled",
      "type": "event"
    },
    {
      "anonymous": false,
      "inputs": [
        {
          "indexed": true,
          "internalType": "uint256",
          "name": "orderId",
          "type": "uint256"
        },
        {
          "indexed": false,
          "internalType": "enum OrderStatus",
          "name": "oldStatus",
          "type": "uint8"
        },
        {
          "indexed": false,
          "internalType": "enum OrderStatus",
          "name": "newStatus",
          "type": "uint8"
        },
        {
          "indexed": false,
          "internalType": "string",
          "name": "reason",
          "type": "string"
        },
        {
          "indexed": false,
          "internalType": "uint256",
          "name": "timestamp",
          "type": "uint256"
        }
      ],
      "name": "OrderStatusChanged",
      "type": "event"
    },
    {
      "anonymous": false,
      "inputs": [
        {
          "indexed": false,
          "internalType": "address",
          "name": "account",
          "type": "address"
        }
      ],
      "name": "Paused",
      "type": "event"
    },
    {
      "anonymous": false,
      "inputs": [
        {
          "indexed": true,
          "internalType": "uint256",
          "name": "orderId",
          "type": "uint256"
        },
        {
          "indexed": true,
          "internalType": "uint256",
          "name": "quoteId",
          "type": "uint256"
        },
        {
          "indexed": true,
          "internalType": "address",
          "name": "seller",
          "type": "address"
        },
        {
          "indexed": false,
          "internalType": "uint256",
          "name": "premiumRate",
          "type": "uint256"
        },
        {
          "indexed": false,
          "internalType": "uint256",
          "name": "timestamp",
          "type": "uint256"
        }
      ],
      "name": "QuoteSubmitted",
      "type": "event"
    },
    {
      "anonymous": false,
      "inputs": [
        {
          "indexed": true,
          "internalType": "bytes32",
          "name": "role",
          "type": "bytes32"
        },
        {
          "indexed": true,
          "internalType": "bytes32",
          "name": "previousAdminRole",
          "type": "bytes32"
        },
        {
          "indexed": true,
          "internalType": "bytes32",
          "name": "newAdminRole",
          "type": "bytes32"
        }
      ],
      "name": "RoleAdminChanged",
      "type": "event"
    },
    {
      "anonymous": false,
      "inputs": [
        {
          "indexed": true,
          "internalType": "bytes32",
          "name": "role",
          "type": "bytes32"
        },
        {
          "indexed": true,
          "internalType": "address",
          "name": "account",
          "type": "address"
        },
        {
          "indexed": true,
          "internalType": "address",
          "name": "sender",
          "type": "address"
        }
      ],
      "name": "RoleGranted",
      "type": "event"
    },
    {
      "anonymous": false,
      "inputs": [
        {
          "indexed": true,
          "internalType": "bytes32",
          "name": "role",
          "type": "bytes32"
        },
        {
          "indexed": true,
          "internalType": "address",
          "name": "account",
          "type": "address"
        },
        {
          "indexed": true,
          "internalType": "address",
          "name": "sender",
          "type": "address"
        }
      ],
      "name": "RoleRevoked",
      "type": "event"
    },
    {
      "anonymous": false,
      "inputs": [
        {
          "indexed": false,
          "internalType": "address",
          "name": "account",
          "type": "address"
        }
      ],
      "name": "Unpaused",
      "type": "event"
    },
    {
      "inputs": [],
      "name": "DEFAULT_ADMIN_ROLE",
      "outputs": [
        {
          "internalType": "bytes32",
          "name": "",
          "type": "bytes32"
        }
      ],
      "stateMutability": "view",
      "type": "function"
    },
    {
      "inputs": [],
      "name": "FEED_PROTOCOL_ROLE",
      "outputs": [
        {
          "internalType": "bytes32",
          "name": "",
          "type": "bytes32"
        }
      ],
      "stateMutability": "view",
      "type": "function"
    },
    {
      "inputs": [
        {
          "internalType": "uint256",
          "name": "quoteId",
          "type": "uint256"
        }
      ],
      "name": "acceptQuote",
      "outputs": [],
      "stateMutability": "nonpayable",
      "type": "function"
    },
    {
      "inputs": [
        {
          "internalType": "uint256",
          "name": "orderId",
          "type": "uint256"
        }
      ],
      "name": "acceptSellerOrder",
      "outputs": [],
      "stateMutability": "nonpayable",
      "type": "function"
    },
    {
      "inputs": [
        {
          "internalType": "uint256",
          "name": "orderId",
          "type": "uint256"
        },
        {
          "internalType": "uint256",
          "name": "amount",
          "type": "uint256"
        }
      ],
      "name": "addMargin",
      "outputs": [],
      "stateMutability": "nonpayable",
      "type": "function"
    },
    {
      "inputs": [
        {
          "internalType": "address",
          "name": "",
          "type": "address"
        },
        {
          "internalType": "uint256",
          "name": "",
          "type": "uint256"
        }
      ],
      "name": "buyerOrders",
      "outputs": [
        {
          "internalType": "uint256",
          "name": "",
          "type": "uint256"
        }
      ],
      "stateMutability": "view",
      "type": "function"
    },
    {
      "inputs": [
        {
          "internalType": "uint256",
          "name": "orderId",
          "type": "uint256"
        }
      ],
      "name": "cancelOrderDueToFeedTimeout",
      "outputs": [],
      "stateMutability": "nonpayable",
      "type": "function"
    },
    {
      "inputs": [
        {
          "internalType": "uint256",
          "name": "orderId",
          "type": "uint256"
        }
      ],
      "name": "cancelRFQ",
      "outputs": [],
      "stateMutability": "nonpayable",
      "type": "function"
    },
    {
      "inputs": [],
      "name": "config",
      "outputs": [
        {
          "internalType": "contract Config",
          "name": "",
          "type": "address"
        }
      ],
      "stateMutability": "view",
      "type": "function"
    },
    {
      "inputs": [
        {
          "internalType": "string",
          "name": "underlyingName",
          "type": "string"
        },
        {
          "internalType": "string",
          "name": "underlyingCode",
          "type": "string"
        },
        {
          "internalType": "string",
          "name": "market",
          "type": "string"
        },
        {
          "internalType": "string",
          "name": "country",
          "type": "string"
        },
        {
          "internalType": "string",
          "name": "refPrice",
          "type": "string"
        },
        {
          "internalType": "enum Direction",
          "name": "direction",
          "type": "uint8"
        },
        {
          "internalType": "uint256",
          "name": "notionalUSDT",
          "type": "uint256"
        },
        {
          "internalType": "uint256",
          "name": "expiryTimestamp",
          "type": "uint256"
        },
        {
          "internalType": "uint256",
          "name": "maxPremiumRate",
          "type": "uint256"
        },
        {
          "internalType": "uint256",
          "name": "minMarginRate",
          "type": "uint256"
        },
        {
          "internalType": "enum SellerType",
          "name": "acceptedSellerType",
          "type": "uint8"
        },
        {
          "internalType": "address",
          "name": "designatedSeller",
          "type": "address"
        },
        {
          "internalType": "uint256",
          "name": "arbitrationWindow",
          "type": "uint256"
        },
        {
          "internalType": "uint256",
          "name": "marginCallDeadline",
          "type": "uint256"
        },
        {
          "internalType": "bool",
          "name": "dividendAdjustment",
          "type": "bool"
        },
        {
          "internalType": "enum LiquidationRule",
          "name": "liquidationRule",
          "type": "uint8"
        },
        {
          "internalType": "uint8",
          "name": "consecutiveDays",
          "type": "uint8"
        },
        {
          "internalType": "uint8",
          "name": "dailyLimitPercent",
          "type": "uint8"
        },
        {
          "internalType": "enum FeedRule",
          "name": "feedRule",
          "type": "uint8"
        }
      ],
      "name": "createBuyerRFQ",
      "outputs": [
        {
          "internalType": "uint256",
          "name": "orderId",
          "type": "uint256"
        }
      ],
      "stateMutability": "nonpayable",
      "type": "function"
    },
    {
      "inputs": [
        {
          "internalType": "string",
          "name": "underlyingName",
          "type": "string"
        },
        {
          "internalType": "string",
          "name": "underlyingCode",
          "type": "string"
        },
        {
          "internalType": "string",
          "name": "market",
          "type": "string"
        },
        {
          "internalType": "string",
          "name": "country",
          "type": "string"
        },
        {
          "internalType": "string",
          "name": "refPrice",
          "type": "string"
        },
        {
          "internalType": "enum Direction",
          "name": "direction",
          "type": "uint8"
        },
        {
          "internalType": "uint256",
          "name": "notionalUSDT",
          "type": "uint256"
        },
        {
          "internalType": "uint256",
          "name": "expiryTimestamp",
          "type": "uint256"
        },
        {
          "internalType": "uint256",
          "name": "premiumRate",
          "type": "uint256"
        },
        {
          "internalType": "uint256",
          "name": "marginAmount",
          "type": "uint256"
        },
        {
          "internalType": "enum LiquidationRule",
          "name": "liquidationRule",
          "type": "uint8"
        },
        {
          "internalType": "uint8",
          "name": "consecutiveDays",
          "type": "uint8"
        },
        {
          "internalType": "uint8",
          "name": "dailyLimitPercent",
          "type": "uint8"
        },
        {
          "internalType": "uint256",
          "name": "arbitrationWindow",
          "type": "uint256"
        },
        {
          "internalType": "bool",
          "name": "dividendAdjustment",
          "type": "bool"
        },
        {
          "internalType": "uint8",
          "name": "exerciseDelay",
          "type": "uint8"
        },
        {
          "internalType": "enum FeedRule",
          "name": "feedRule",
          "type": "uint8"
        }
      ],
      "name": "createSellerOrder",
      "outputs": [
        {
          "internalType": "uint256",
          "name": "orderId",
          "type": "uint256"
        }
      ],
      "stateMutability": "nonpayable",
      "type": "function"
    },
    {
      "inputs": [
        {
          "internalType": "uint256",
          "name": "orderId",
          "type": "uint256"
        }
      ],
      "name": "earlyExercise",
      "outputs": [],
      "stateMutability": "nonpayable",
      "type": "function"
    },
    {
      "inputs": [
        {
          "internalType": "uint256",
          "name": "orderId",
          "type": "uint256"
        }
      ],
      "name": "forceLiquidate",
      "outputs": [],
      "stateMutability": "nonpayable",
      "type": "function"
    },
    {
      "inputs": [
        {
          "internalType": "uint256",
          "name": "orderId",
          "type": "uint256"
        }
      ],
      "name": "forceLiquidateMarginCall",
      "outputs": [],
      "stateMutability": "nonpayable",
      "type": "function"
    },
    {
      "inputs": [
        {
          "internalType": "address",
          "name": "buyer",
          "type": "address"
        }
      ],
      "name": "getBuyerOrders",
      "outputs": [
        {
          "internalType": "uint256[]",
          "name": "",
          "type": "uint256[]"
        }
      ],
      "stateMutability": "view",
      "type": "function"
    },
    {
      "inputs": [
        {
          "internalType": "uint256",
          "name": "orderId",
          "type": "uint256"
        }
      ],
      "name": "getOrder",
      "outputs": [
        {
          "components": [
            {
              "internalType": "uint256",
              "name": "orderId",
              "type": "uint256"
            },
            {
              "internalType": "address",
              "name": "buyer",
              "type": "address"
            },
            {
              "internalType": "address",
              "name": "seller",
              "type": "address"
            },
            {
              "internalType": "string",
              "name": "underlyingName",
              "type": "string"
            },
            {
              "internalType": "string",
              "name": "underlyingCode",
              "type": "string"
            },
            {
              "internalType": "string",
              "name": "market",
              "type": "string"
            },
            {
              "internalType": "string",
              "name": "country",
              "type": "string"
            },
            {
              "internalType": "string",
              "name": "refPrice",
              "type": "string"
            },
            {
              "internalType": "enum Direction",
              "name": "direction",
              "type": "uint8"
            },
            {
              "internalType": "uint256",
              "name": "notionalUSDT",
              "type": "uint256"
            },
            {
              "internalType": "uint256",
              "name": "strikePrice",
              "type": "uint256"
            },
            {
              "internalType": "uint256",
              "name": "expiryTimestamp",
              "type": "uint256"
            },
            {
              "internalType": "uint256",
              "name": "premiumRate",
              "type": "uint256"
            },
            {
              "internalType": "uint256",
              "name": "premiumAmount",
              "type": "uint256"
            },
            {
              "internalType": "uint256",
              "name": "initialMargin",
              "type": "uint256"
            },
            {
              "internalType": "uint256",
              "name": "currentMargin",
              "type": "uint256"
            },
            {
              "internalType": "uint256",
              "name": "minMarginRate",
              "type": "uint256"
            },
            {
              "internalType": "enum LiquidationRule",
              "name": "liquidationRule",
              "type": "uint8"
            },
            {
              "internalType": "uint8",
              "name": "consecutiveDays",
              "type": "uint8"
            },
            {
              "internalType": "uint8",
              "name": "dailyLimitPercent",
              "type": "uint8"
            },
            {
              "internalType": "uint8",
              "name": "exerciseDelay",
              "type": "uint8"
            },
            {
              "internalType": "enum SellerType",
              "name": "sellerType",
              "type": "uint8"
            },
            {
              "internalType": "address",
              "name": "designatedSeller",
              "type": "address"
            },
            {
              "internalType": "uint256",
              "name": "arbitrationWindow",
              "type": "uint256"
            },
            {
              "internalType": "uint256",
              "name": "marginCallDeadline",
              "type": "uint256"
            },
            {
              "internalType": "bool",
              "name": "dividendAdjustment",
              "type": "bool"
            },
            {
              "internalType": "enum FeedRule",
              "name": "feedRule",
              "type": "uint8"
            },
            {
              "internalType": "enum OrderStatus",
              "name": "status",
              "type": "uint8"
            },
            {
              "internalType": "uint256",
              "name": "createdAt",
              "type": "uint256"
            },
            {
              "internalType": "uint256",
              "name": "matchedAt",
              "type": "uint256"
            },
            {
              "internalType": "uint256",
              "name": "settledAt",
              "type": "uint256"
            },
            {
              "internalType": "uint256",
              "name": "lastFeedPrice",
              "type": "uint256"
            },
            {
              "internalType": "uint256",
              "name": "dividendAmount",
              "type": "uint256"
            }
          ],
          "internalType": "struct Order",
          "name": "",
          "type": "tuple"
        }
      ],
      "stateMutability": "view",
      "type": "function"
    },
    {
      "inputs": [
        {
          "internalType": "string",
          "name": "country",
          "type": "string"
        }
      ],
      "name": "getOrdersByCountry",
      "outputs": [
        {
          "internalType": "uint256[]",
          "name": "",
          "type": "uint256[]"
        }
      ],
      "stateMutability": "view",
      "type": "function"
    },
    {
      "inputs": [
        {
          "internalType": "string",
          "name": "market",
          "type": "string"
        }
      ],
      "name": "getOrdersByMarket",
      "outputs": [
        {
          "internalType": "uint256[]",
          "name": "",
          "type": "uint256[]"
        }
      ],
      "stateMutability": "view",
      "type": "function"
    },
    {
      "inputs": [
        {
          "internalType": "uint256",
          "name": "orderId",
          "type": "uint256"
        }
      ],
      "name": "getQuotes",
      "outputs": [
        {
          "components": [
            {
              "internalType": "uint256",
              "name": "quoteId",
              "type": "uint256"
            },
            {
              "internalType": "uint256",
              "name": "orderId",
              "type": "uint256"
            },
            {
              "internalType": "address",
              "name": "seller",
              "type": "address"
            },
            {
              "internalType": "enum SellerType",
              "name": "sellerType",
              "type": "uint8"
            },
            {
              "internalType": "uint256",
              "name": "premiumRate",
              "type": "uint256"
            },
            {
              "internalType": "uint256",
              "name": "premiumAmount",
              "type": "uint256"
            },
            {
              "internalType": "uint256",
              "name": "marginRate",
              "type": "uint256"
            },
            {
              "internalType": "uint256",
              "name": "marginAmount",
              "type": "uint256"
            },
            {
              "internalType": "enum LiquidationRule",
              "name": "liquidationRule",
              "type": "uint8"
            },
            {
              "internalType": "uint8",
              "name": "consecutiveDays",
              "type": "uint8"
            },
            {
              "internalType": "uint8",
              "name": "dailyLimitPercent",
              "type": "uint8"
            },
            {
              "internalType": "uint256",
              "name": "createdAt",
              "type": "uint256"
            },
            {
              "internalType": "uint256",
              "name": "expiresAt",
              "type": "uint256"
            },
            {
              "internalType": "enum QuoteStatus",
              "name": "status",
              "type": "uint8"
            }
          ],
          "internalType": "struct Quote[]",
          "name": "",
          "type": "tuple[]"
        }
      ],
      "stateMutability": "view",
      "type": "function"
    },
    {
      "inputs": [
        {
          "internalType": "bytes32",
          "name": "role",
          "type": "bytes32"
        }
      ],
      "name": "getRoleAdmin",
      "outputs": [
        {
          "internalType": "bytes32",
          "name": "",
          "type": "bytes32"
        }
      ],
      "stateMutability": "view",
      "type": "function"
    },
    {
      "inputs": [
        {
          "internalType": "address",
          "name": "seller",
          "type": "address"
        }
      ],
      "name": "getSellerOrders",
      "outputs": [
        {
          "internalType": "uint256[]",
          "name": "",
          "type": "uint256[]"
        }
      ],
      "stateMutability": "view",
      "type": "function"
    },
    {
      "inputs": [
        {
          "internalType": "bytes32",
          "name": "role",
          "type": "bytes32"
        },
        {
          "internalType": "address",
          "name": "account",
          "type": "address"
        }
      ],
      "name": "grantRole",
      "outputs": [],
      "stateMutability": "nonpayable",
      "type": "function"
    },
    {
      "inputs": [
        {
          "internalType": "bytes32",
          "name": "role",
          "type": "bytes32"
        },
        {
          "internalType": "address",
          "name": "account",
          "type": "address"
        }
      ],
      "name": "hasRole",
      "outputs": [
        {
          "internalType": "bool",
          "name": "",
          "type": "bool"
        }
      ],
      "stateMutability": "view",
      "type": "function"
    },
    {
      "inputs": [
        {
          "internalType": "uint256",
          "name": "orderId",
          "type": "uint256"
        }
      ],
      "name": "initiateArbitration",
      "outputs": [],
      "stateMutability": "payable",
      "type": "function"
    },
    {
      "inputs": [],
      "name": "nextOrderId",
      "outputs": [
        {
          "internalType": "uint256",
          "name": "",
          "type": "uint256"
        }
      ],
      "stateMutability": "view",
      "type": "function"
    },
    {
      "inputs": [],
      "name": "nextQuoteId",
      "outputs": [
        {
          "internalType": "uint256",
          "name": "",
          "type": "uint256"
        }
      ],
      "stateMutability": "view",
      "type": "function"
    },
    {
      "inputs": [
        {
          "internalType": "uint256",
          "name": "",
          "type": "uint256"
        },
        {
          "internalType": "uint256",
          "name": "",
          "type": "uint256"
        }
      ],
      "name": "orderQuotes",
      "outputs": [
        {
          "internalType": "uint256",
          "name": "quoteId",
          "type": "uint256"
        },
        {
          "internalType": "uint256",
          "name": "orderId",
          "type": "uint256"
        },
        {
          "internalType": "address",
          "name": "seller",
          "type": "address"
        },
        {
          "internalType": "enum SellerType",
          "name": "sellerType",
          "type": "uint8"
        },
        {
          "internalType": "uint256",
          "name": "premiumRate",
          "type": "uint256"
        },
        {
          "internalType": "uint256",
          "name": "premiumAmount",
          "type": "uint256"
        },
        {
          "internalType": "uint256",
          "name": "marginRate",
          "type": "uint256"
        },
        {
          "internalType": "uint256",
          "name": "marginAmount",
          "type": "uint256"
        },
        {
          "internalType": "enum LiquidationRule",
          "name": "liquidationRule",
          "type": "uint8"
        },
        {
          "internalType": "uint8",
          "name": "consecutiveDays",
          "type": "uint8"
        },
        {
          "internalType": "uint8",
          "name": "dailyLimitPercent",
          "type": "uint8"
        },
        {
          "internalType": "uint256",
          "name": "createdAt",
          "type": "uint256"
        },
        {
          "internalType": "uint256",
          "name": "expiresAt",
          "type": "uint256"
        },
        {
          "internalType": "enum QuoteStatus",
          "name": "status",
          "type": "uint8"
        }
      ],
      "stateMutability": "view",
      "type": "function"
    },
    {
      "inputs": [
        {
          "internalType": "uint256",
          "name": "",
          "type": "uint256"
        }
      ],
      "name": "orders",
      "outputs": [
        {
          "internalType": "uint256",
          "name": "orderId",
          "type": "uint256"
        },
        {
          "internalType": "address",
          "name": "buyer",
          "type": "address"
        },
        {
          "internalType": "address",
          "name": "seller",
          "type": "address"
        },
        {
          "internalType": "string",
          "name": "underlyingName",
          "type": "string"
        },
        {
          "internalType": "string",
          "name": "underlyingCode",
          "type": "string"
        },
        {
          "internalType": "string",
          "name": "market",
          "type": "string"
        },
        {
          "internalType": "string",
          "name": "country",
          "type": "string"
        },
        {
          "internalType": "string",
          "name": "refPrice",
          "type": "string"
        },
        {
          "internalType": "enum Direction",
          "name": "direction",
          "type": "uint8"
        },
        {
          "internalType": "uint256",
          "name": "notionalUSDT",
          "type": "uint256"
        },
        {
          "internalType": "uint256",
          "name": "strikePrice",
          "type": "uint256"
        },
        {
          "internalType": "uint256",
          "name": "expiryTimestamp",
          "type": "uint256"
        },
        {
          "internalType": "uint256",
          "name": "premiumRate",
          "type": "uint256"
        },
        {
          "internalType": "uint256",
          "name": "premiumAmount",
          "type": "uint256"
        },
        {
          "internalType": "uint256",
          "name": "initialMargin",
          "type": "uint256"
        },
        {
          "internalType": "uint256",
          "name": "currentMargin",
          "type": "uint256"
        },
        {
          "internalType": "uint256",
          "name": "minMarginRate",
          "type": "uint256"
        },
        {
          "internalType": "enum LiquidationRule",
          "name": "liquidationRule",
          "type": "uint8"
        },
        {
          "internalType": "uint8",
          "name": "consecutiveDays",
          "type": "uint8"
        },
        {
          "internalType": "uint8",
          "name": "dailyLimitPercent",
          "type": "uint8"
        },
        {
          "internalType": "uint8",
          "name": "exerciseDelay",
          "type": "uint8"
        },
        {
          "internalType": "enum SellerType",
          "name": "sellerType",
          "type": "uint8"
        },
        {
          "internalType": "address",
          "name": "designatedSeller",
          "type": "address"
        },
        {
          "internalType": "uint256",
          "name": "arbitrationWindow",
          "type": "uint256"
        },
        {
          "internalType": "uint256",
          "name": "marginCallDeadline",
          "type": "uint256"
        },
        {
          "internalType": "bool",
          "name": "dividendAdjustment",
          "type": "bool"
        },
        {
          "internalType": "enum FeedRule",
          "name": "feedRule",
          "type": "uint8"
        },
        {
          "internalType": "enum OrderStatus",
          "name": "status",
          "type": "uint8"
        },
        {
          "internalType": "uint256",
          "name": "createdAt",
          "type": "uint256"
        },
        {
          "internalType": "uint256",
          "name": "matchedAt",
          "type": "uint256"
        },
        {
          "internalType": "uint256",
          "name": "settledAt",
          "type": "uint256"
        },
        {
          "internalType": "uint256",
          "name": "lastFeedPrice",
          "type": "uint256"
        },
        {
          "internalType": "uint256",
          "name": "dividendAmount",
          "type": "uint256"
        }
      ],
      "stateMutability": "view",
      "type": "function"
    },
    {
      "inputs": [],
      "name": "pause",
      "outputs": [],
      "stateMutability": "nonpayable",
      "type": "function"
    },
    {
      "inputs": [],
      "name": "paused",
      "outputs": [
        {
          "internalType": "bool",
          "name": "",
          "type": "bool"
        }
      ],
      "stateMutability": "view",
      "type": "function"
    },
    {
      "inputs": [
        {
          "internalType": "uint256",
          "name": "orderId",
          "type": "uint256"
        },
        {
          "internalType": "enum FeedType",
          "name": "feedType",
          "type": "uint8"
        },
        {
          "internalType": "uint256",
          "name": "finalPrice",
          "type": "uint256"
        }
      ],
      "name": "processFeedCallback",
      "outputs": [],
      "stateMutability": "nonpayable",
      "type": "function"
    },
    {
      "inputs": [
        {
          "internalType": "uint256",
          "name": "orderId",
          "type": "uint256"
        },
        {
          "internalType": "uint256",
          "name": "finalPrice",
          "type": "uint256"
        }
      ],
      "name": "processFinalFeedResult",
      "outputs": [],
      "stateMutability": "nonpayable",
      "type": "function"
    },
    {
      "inputs": [
        {
          "internalType": "uint256",
          "name": "orderId",
          "type": "uint256"
        },
        {
          "internalType": "uint256",
          "name": "initialPrice",
          "type": "uint256"
        }
      ],
      "name": "processInitialFeedResult",
      "outputs": [],
      "stateMutability": "nonpayable",
      "type": "function"
    },
    {
      "inputs": [
        {
          "internalType": "uint256",
          "name": "",
          "type": "uint256"
        }
      ],
      "name": "quotes",
      "outputs": [
        {
          "internalType": "uint256",
          "name": "quoteId",
          "type": "uint256"
        },
        {
          "internalType": "uint256",
          "name": "orderId",
          "type": "uint256"
        },
        {
          "internalType": "address",
          "name": "seller",
          "type": "address"
        },
        {
          "internalType": "enum SellerType",
          "name": "sellerType",
          "type": "uint8"
        },
        {
          "internalType": "uint256",
          "name": "premiumRate",
          "type": "uint256"
        },
        {
          "internalType": "uint256",
          "name": "premiumAmount",
          "type": "uint256"
        },
        {
          "internalType": "uint256",
          "name": "marginRate",
          "type": "uint256"
        },
        {
          "internalType": "uint256",
          "name": "marginAmount",
          "type": "uint256"
        },
        {
          "internalType": "enum LiquidationRule",
          "name": "liquidationRule",
          "type": "uint8"
        },
        {
          "internalType": "uint8",
          "name": "consecutiveDays",
          "type": "uint8"
        },
        {
          "internalType": "uint8",
          "name": "dailyLimitPercent",
          "type": "uint8"
        },
        {
          "internalType": "uint256",
          "name": "createdAt",
          "type": "uint256"
        },
        {
          "internalType": "uint256",
          "name": "expiresAt",
          "type": "uint256"
        },
        {
          "internalType": "enum QuoteStatus",
          "name": "status",
          "type": "uint8"
        }
      ],
      "stateMutability": "view",
      "type": "function"
    },
    {
      "inputs": [
        {
          "internalType": "uint256",
          "name": "orderId",
          "type": "uint256"
        },
        {
          "internalType": "uint256",
          "name": "dividendPerShare",
          "type": "uint256"
        }
      ],
      "name": "recordDividend",
      "outputs": [],
      "stateMutability": "nonpayable",
      "type": "function"
    },
    {
      "inputs": [
        {
          "internalType": "bytes32",
          "name": "role",
          "type": "bytes32"
        },
        {
          "internalType": "address",
          "name": "callerConfirmation",
          "type": "address"
        }
      ],
      "name": "renounceRole",
      "outputs": [],
      "stateMutability": "nonpayable",
      "type": "function"
    },
    {
      "inputs": [
        {
          "internalType": "uint256",
          "name": "orderId",
          "type": "uint256"
        },
        {
          "internalType": "enum FeedTier",
          "name": "tier",
          "type": "uint8"
        }
      ],
      "name": "requestFeed",
      "outputs": [],
      "stateMutability": "payable",
      "type": "function"
    },
    {
      "inputs": [
        {
          "internalType": "uint256",
          "name": "orderId",
          "type": "uint256"
        },
        {
          "internalType": "uint256",
          "name": "arbitrationPrice",
          "type": "uint256"
        },
        {
          "internalType": "address[]",
          "name": "arbitrators",
          "type": "address[]"
        }
      ],
      "name": "resolveArbitration",
      "outputs": [],
      "stateMutability": "nonpayable",
      "type": "function"
    },
    {
      "inputs": [
        {
          "internalType": "bytes32",
          "name": "role",
          "type": "bytes32"
        },
        {
          "internalType": "address",
          "name": "account",
          "type": "address"
        }
      ],
      "name": "revokeRole",
      "outputs": [],
      "stateMutability": "nonpayable",
      "type": "function"
    },
    {
      "inputs": [
        {
          "internalType": "address",
          "name": "",
          "type": "address"
        },
        {
          "internalType": "uint256",
          "name": "",
          "type": "uint256"
        }
      ],
      "name": "sellerOrders",
      "outputs": [
        {
          "internalType": "uint256",
          "name": "",
          "type": "uint256"
        }
      ],
      "stateMutability": "view",
      "type": "function"
    },
    {
      "inputs": [
        {
          "internalType": "address",
          "name": "_config",
          "type": "address"
        }
      ],
      "name": "setConfig",
      "outputs": [],
      "stateMutability": "nonpayable",
      "type": "function"
    },
    {
      "inputs": [
        {
          "internalType": "address",
          "name": "_vaultManager",
          "type": "address"
        }
      ],
      "name": "setVaultManager",
      "outputs": [],
      "stateMutability": "nonpayable",
      "type": "function"
    },
    {
      "inputs": [
        {
          "internalType": "uint256",
          "name": "orderId",
          "type": "uint256"
        }
      ],
      "name": "settle",
      "outputs": [],
      "stateMutability": "nonpayable",
      "type": "function"
    },
    {
      "inputs": [
        {
          "internalType": "uint256",
          "name": "orderId",
          "type": "uint256"
        },
        {
          "internalType": "uint256",
          "name": "premiumRate",
          "type": "uint256"
        },
        {
          "internalType": "uint256",
          "name": "marginRate",
          "type": "uint256"
        },
        {
          "internalType": "enum LiquidationRule",
          "name": "liquidationRule",
          "type": "uint8"
        },
        {
          "internalType": "uint8",
          "name": "consecutiveDays",
          "type": "uint8"
        },
        {
          "internalType": "uint8",
          "name": "dailyLimitPercent",
          "type": "uint8"
        }
      ],
      "name": "submitQuote",
      "outputs": [
        {
          "internalType": "uint256",
          "name": "quoteId",
          "type": "uint256"
        }
      ],
      "stateMutability": "nonpayable",
      "type": "function"
    },
    {
      "inputs": [
        {
          "internalType": "bytes4",
          "name": "interfaceId",
          "type": "bytes4"
        }
      ],
      "name": "supportsInterface",
      "outputs": [
        {
          "internalType": "bool",
          "name": "",
          "type": "bool"
        }
      ],
      "stateMutability": "view",
      "type": "function"
    },
    {
      "inputs": [
        {
          "internalType": "uint256",
          "name": "orderId",
          "type": "uint256"
        },
        {
          "internalType": "bool",
          "name": "isCrypto",
          "type": "bool"
        }
      ],
      "name": "triggerMarginCall",
      "outputs": [],
      "stateMutability": "nonpayable",
      "type": "function"
    },
    {
      "inputs": [],
      "name": "unpause",
      "outputs": [],
      "stateMutability": "nonpayable",
      "type": "function"
    },
    {
      "inputs": [],
      "name": "usdt",
      "outputs": [
        {
          "internalType": "contract IERC20",
          "name": "",
          "type": "address"
        }
      ],
      "stateMutability": "view",
      "type": "function"
    },
    {
      "inputs": [],
      "name": "vaultManager",
      "outputs": [
        {
          "internalType": "contract VaultManager",
          "name": "",
          "type": "address"
        }
      ],
      "stateMutability": "view",
      "type": "function"
    },
    {
      "inputs": [
        {
          "internalType": "uint256",
          "name": "orderId",
          "type": "uint256"
        },
        {
          "internalType": "uint256",
          "name": "amount",
          "type": "uint256"
        }
      ],
      "name": "withdrawExcessMargin",
      "outputs": [],
      "stateMutability": "nonpayable",
      "type": "function"
    }
  ],
  "bytecode": "0x608034620000f557601f6200694538819003918201601f19168301916001600160401b03831184841017620000fa57808492608094604052833981010312620000f5578062000052620000e49262000110565b90620000616020820162000110565b906200007e6060620000766040840162000110565b920162000110565b6001808055600581905560065560028054610100600160a81b03191660089590951b610100600160a81b031694909417909355600380546001600160a01b03199081166001600160a01b0394851617909155600480549091169190921617905562000125565b5060405161678e9081620001b78239f35b600080fd5b634e487b7160e01b600052604160045260246000fd5b51906001600160a01b0382168203620000f557565b6001600160a01b031660008181527fad3228b676f7d3cd4284a5443f17f1962b36e491b30a40b2405849e597ba5fb5602052604081205490919060ff16620001b257818052816020526040822081835260205260408220600160ff1982541617905533917f2f8788117e7eff1d82e926ec794901d17c78024a50270940304540a733656f0d8180a4600190565b509056fe610260604052600436101561001357600080fd5b6000803560e01c806301d0d5b81461530857806301ffc9a7146152b157806320e3dbd414615267578063248a9ca31461523b5780632a58b3301461521d5780632f2ff15d146151e05780632f48ab7d146151b75780633087a88c14614e1b5780633280890b14614b0857806336568abe14614ac05780633f4ba83a14614a5557806342dd6d3e146149015780634500cb60146148b957806345cb45051461486357806346f8226c1461468f5780634efef6aa1461467157806353b461c8146143835780635c975abb146143605780635d7ffe7b14613eb357806367ac0bf014613b6d5780636af58cff146138df5780636ca14389146137ac5780636dbe7579146136e45780637203a5821461311a57806377e9bad914612f7d57806379502c5514612f505780637d90042114612ec35780638456cb5914612e685780638a4adf2414612e3f5780638df82800146128d457806391d1485414612889578063979b4e6d14611fcd578063a217fddf14611fb1578063a45f2ebc14611f3e578063a61cf0d414611eab578063a85c38ef14611b46578063b543503e14611b01578063bc0ef26b1461193d578063cdc65ab614611902578063cf3fec4314611875578063d049bfef1461162a578063d09ef241146110ef578063d1e745b114610f04578063d41194b814610d9a578063d547741f14610d59578063d70daf22146107b3578063e02e34f8146105b6578063e4cbac4014610533578063eefaa833146102f05763f7ff64261461024457600080fd5b346102ed5761025236615b63565b90825260086020526040822080548210156102e9576102719250615e50565b508054906102e5600182015460028301549260038101549460048201549260058301549160068401549060078501549160088601549460ff600a600989015498015416976040519b8c9b8c60ff8860101c169860ff808a60081c1699169760ff8460a01c169360018060a01b031692615c0c565b0390f35b8280fd5b80fd5b50346102ed5760403660031901126102ed57600435602435908115158092036104625780151580610528575b6103259061635e565b61032d6162b6565b610335616298565b808352602091600783526040842060ff601482015460101c16600b81101561051457600461036391146164ff565b601381019384546104bd57612710610384600e84015460108501549061631e565b0491600f810154918383101561047957600254604051630deecde360e11b815260048101969096526001600160a01b03959082908290602490829060081c8a165afa91821561046e578992610436575b505093600261042c926104087f87f6bf1a6c3f04d192803df26e64179e122fd70e7acbc21d5326ecb35a4919489742616351565b80995501541695604051938493846040919493926060820195825260208201520152565b0390a36001805580f35b9080969250813d8311610467575b61044e8183615d32565b81010312610462579351600261042c6103d4565b600080fd5b503d610444565b6040513d8b823e3d90fd5b6064906040519062461bcd60e51b82526004820152601e60248201527f4f7074696f6e73436f72653a206d617267696e2073756666696369656e7400006044820152fd5b6084906040519062461bcd60e51b82526004820152602a60248201527f4f7074696f6e73436f72653a206d617267696e2063616c6c20616c7265616479604482015269081d1c9a59d9d95c995960b21b6064820152fd5b634e487b7160e01b86526021600452602486fd5b50600554811061031c565b50346102ed576020806003193601126105b2576001600160a01b03610556615b37565b168252600b815260408220916040518092808554928381520194835280832092905b82821061059b576102e58561058f81890382615d32565b60405191829182615ba7565b835486529485019460019384019390910190610578565b5080fd5b50346102ed576105c536615b63565b811515806107a8575b6105d79061635e565b6105df615e6c565b8183526020600781526040842091601483019283549360ff8560101c1694600b861015610794576204000090610617600288146165b5565b610622851515616601565b62ff0000191617905561063e670de0b6b3a76400008304616668565b805160078301916001600160401b03821161078057610667826106618554615c97565b85616102565b859089601f84116001146107035793836000805160206167398339815191529997946018946004989460c09b98926106f8575b50508160011b916000199060031b1c19161790555b01556106be6040518094615e43565b8201526080604082015260166080820152751a5b9a5d1a585b08199959590818dbdb5c1b195d195960521b60a0820152426060820152a280f35b01519050388061069a565b50838a52868a209190601f1984168b5b8181106107695750846018946004989460c09b98946000805160206167398339815191529d9b9860019510610750575b505050811b0190556106af565b015160001960f88460031b161c19169055388080610743565b929389600181928786015181550195019301610713565b634e487b7160e01b89526041600452602489fd5b634e487b7160e01b88526021600452602488fd5b5060055482106105ce565b50346102ed5760203660031901126102ed57600435151580610d4c575b6107d99061635e565b6107e16162b6565b6107e9616298565b60043581526007602052604081206014810154600b60ff8260101c161015610d3857600260ff8260101c16148015610d28575b15610cce5760168201548015610c7e5760025460405163c7d7c5fd60e01b815291906020908390600490829060081c6001600160a01b03165afa908115610c73578591610c3d575b61086e9250616351565b421115610be15762ff0000198116620a0000176014830155426017830155600254604051632bec66e560e01b815292906020908490600490829060081c6001600160a01b03165afa928315610bd6578493610ba2575b50600f810190846108e56127106108dd8554978861631e565b04809661654b565b9260018060a01b036003541660018060a01b03600185015416600d850154823b15610b9e576040516302817a6d60e01b81526001600160a01b0392909216600483015260248201529083908290604490829084905af1908115610b04578391610b8a575b505083610b0f575b85610aae575b610a469460ff926109d89255604051604081527fb848a62ef7171019d243ed8f5b8e1e6c32cafed0b7fc99da26cb2fc2e7d533ec6109ba6040830160409060148152731a5b9a5d1a585b0819995959081d1a5b595bdd5d60621b60208201520190565b9142602082015280600435930390a260405192839160101c16615e43565b600a602082015260806040820152600080516020616739833981519152610a246080830160409060148152731a5b9a5d1a585b0819995959081d1a5b595bdd5d60621b60208201520190565b9142606082015280600435930390a2600201546001600160a01b031692616351565b60405190815282602082015260806040820152601060808201526f1c195b985b1d1e57d919591d58dd195960821b60a08201524260608201527f2cf5022bdd8fefe86d09412967e028fa9a8cf1e1a3989d47dfd9fc64a22afa8660c060043592a36001805580f35b6003546001600160a01b0316803b156102e95782809160246040518094819363031e88ef60e11b83528c60048401525af18015610b0457610af0575b50610957565b610afa8391615cd1565b6105b25738610aea565b6040513d85823e3d90fd5b60035460028401546001600160a01b039081169116803b15610b86576040516309143b9f60e01b81526001600160a01b039290921660048301526024820186905283908290604490829084905af1908115610b04578391610b72575b5050610951565b610b7b90615cd1565b6105b2578138610b6b565b8380fd5b610b9390615cd1565b6105b2578138610949565b8480fd5b9092506020813d602011610bce575b81610bbe60209383615d32565b81010312610462575191386108c4565b3d9150610bb1565b6040513d86823e3d90fd5b60405162461bcd60e51b815260206004820152602e60248201527f4f7074696f6e73436f72653a20696e697469616c206665656420646561646c6960448201526d1b99481b9bdd081c995858da195960921b6064820152608490fd5b90506020823d602011610c6b575b81610c5860209383615d32565b810103126104625761086e915190610864565b3d9150610c4b565b6040513d87823e3d90fd5b60405162461bcd60e51b815260206004820152602260248201527f4f7074696f6e73436f72653a206f72646572206e6f74206d6174636865642079604482015261195d60f21b6064820152608490fd5b60405162461bcd60e51b815260206004820152602c60248201527f4f7074696f6e73436f72653a206f72646572206e6f74206177616974696e672060448201526b1a5b9a5d1a585b081999595960a21b6064820152608490fd5b50600360ff8260101c161461081c565b634e487b7160e01b83526021600452602483fd5b50600554600435106107d0565b50346102ed5760403660031901126102ed57610d96600435610d79615b4d565b9080845283602052610d916001604086200154615ec4565b615f68565b5080f35b50346102ed57610da936615b63565b9080151580610ef9575b610dbc9061635e565b808352600760205260408320600201546001600160a01b039290610de390841633146164b3565b610deb6162b6565b610df3616298565b8015610ea85781845260076020526040842060ff601482015460101c16600b81101561051457610e4d91610e2b6004600f93146164ff565b0191610e4681845496806004541690600354169033906161f1565b8254616351565b809155604051928352602083015260806040830152600360808301526218591960ea1b60a08301524260608301527f2cf5022bdd8fefe86d09412967e028fa9a8cf1e1a3989d47dfd9fc64a22afa8660c03393a36001805580f35b60405162461bcd60e51b8152602060048201526024808201527f4f7074696f6e73436f72653a20616d6f756e74206d75737420626520706f73696044820152637469766560e01b6064820152608490fd5b506005548110610db3565b50346102ed57610f1336615b63565b90801515806110e4575b610f269061635e565b808352600760205260408320600201546001600160a01b0390610f4c90821633146164b3565b610f546162b6565b610f5c616298565b8184526007602052604084209260ff601485015460101c16600b811015610514576004610f8991146164ff565b600f840191610f9e600e84549601548661654b565b82116110855781610fb087938761654b565b84558160035416916004541690823b15610b8657604051636924faa760e11b81523360048201526001600160a01b0392909216602483015260448201529082908290606490829084905af1801561107a57611066575b5050546040519283526020830152608060408301526008608083015267776974686472617760c01b60a08301524260608301527f2cf5022bdd8fefe86d09412967e028fa9a8cf1e1a3989d47dfd9fc64a22afa8660c03393a36001805580f35b61106f90615cd1565b610b86578338611006565b6040513d84823e3d90fd5b60405162461bcd60e51b815260206004820152603160248201527f4f7074696f6e73436f72653a2063616e6e6f742077697468647261772062656c60448201527037bb9034b734ba34b0b61036b0b933b4b760791b6064820152608490fd5b506005548110610f1d565b50346102ed5760203660031901126102ed578061040060405161111181615d16565b82815282602082015282604082015260608082015260606080820152606060a0820152606060c0820152606060e08201528261010082015282610120820152826101408201528261016082015282610180820152826101a0820152826101c0820152826101e08201528261020082015282610220820152826102408201528261026082015282610280820152826102a0820152826102c0820152826102e08201528261030082015282610320820152826103408201528261036082015282610380820152826103a0820152826103c0820152826103e0820152015260043581526007602052604081206040519161120783615d16565b8154835260018201546001600160a01b039081166020850152600283015416604084015261123760038301615d53565b606084015261124860048301615d53565b608084015261125960058301615d53565b60a084015261126a60068301615d53565b60c084015261127b60078301615d53565b60e084015260ff60088301541661129181615e39565b6101008401526009820154610120840152600a820154610140840152600b820154610160840152600c820154610180840152600d8201546101a0840152600e8201546101c0840152600f8201546101e08401526010820154610200840152601182015461130060ff8216615be2565b60ff811661022085015260ff8160081c1661024085015260ff8160101c1661026085015260ff8160181c1661028085015261134060ff8260201c16615be2565b60ff8160201c166102a085015260018060a01b039060281c166102c084015260128201546102e0840152601382015461030084015260148201549060ff8216151561032085015261139660ff8360081c16615e39565b60ff8260081c16610340850152600b60ff8360101c16101561161657509060ff60199260101c16610360840152601581015461038084015260168101546103a084015260178101546103c084015260188101546103e084015201546104008201526040518091602082528051602083015260018060a01b03602082015116604083015260018060a01b0360408201511660608301526104006114ac61144c60608401516104206080870152610440860190615df9565b61149661148261146e608087015193601f1994858a83030160a08b0152615df9565b60a0870151848983030160c08a0152615df9565b60c0860151838883030160e0890152615df9565b9060e08501519086830301610100870152615df9565b916101008101516114bc81615e39565b6101208501526101208101516101408501526101408101516101608501526101608101516101808501526101808101516101a08501526101a08101516101c08501526101c08101516101e08501526101e081015161020085015261020081015161022085015261022081015161153181615be2565b61024085015260ff6102408201511661026085015260ff6102608201511661028085015260ff610280820151166102a08501526102a081015161157381615be2565b6102c085015260018060a01b036102c0820151166102e08501526102e081015161030085015261030081015161032085015261032081015115156103408501526103408101516115c281615e39565b6103608501526115dc610360820151610380860190615e43565b6103808101516103a08501526103a08101516103c08501526103c08101516103e08501526103e08101518285015201516104208301520390f35b634e487b7160e01b81526021600452602490fd5b50346102ed57602090816003193601126102ed5760043581526008808352604082209283546001600160401b03811161186157918491926040519160056116758684831b0185615d32565b82845285840191829588528688209188935b858510611784575050505050506040519280840191818552518092526040840192945b8281106116b75784840385f35b909192826101c06001928851805182528381015184830152848060a01b036040820151166040830152606080820151906116f082615be2565b8301526080808201519083015260a0808201519083015260c0808201519083015260e081015160e0830152610100808201519061172c82615be2565b83015260ff6101208181840151169084015261014090818301511690830152610160808201519083015261018080820151908301526101a0809101519061177282615c02565b820152019601910194929190946116aa565b600b8960019260409c9b999a9c5161179b81615cfa565b8754815284880154838201526002880154858060a01b038116604083015260ff908160a091821c166117cc81615be2565b606084015260038a0154608084015260048a0154908301528689015460c0830152600689015460e08301528060078a015481811661180981615be2565b61010085015281818b1c1661012085015260101c16610140830152878901546101608301526009890154610180830152600a8901541661184881615c02565b6101a08201528152019401940193929896959798611687565b634e487b7160e01b84526041600452602484fd5b50346102ed576020806003193601126105b2576004356001600160401b0381116102e9576118a882913690600401615afa565b91908260405193849283378101600c815203019020916040518092808554928381520194835280832092905b8282106118eb576102e58561058f81890382615d32565b8354865294850194600193840193909101906118d4565b50346102ed57806003193601126102ed5760206040517f04967fd25e7aa667b18955d808f19fd0c86238999ff8be2ebc72cd2cd3a83db08152f35b50346102ed576020806003193601126105b2576004359081151580611af6575b6119669061635e565b8183526007815261198760018060a01b0360016040862001541633146162d9565b61198f6162b6565b611997616298565b81835260078152601460408420019081549160ff8360101c1692600b8410156105145783158015611aec575b15611a985791600a91620a0000600080516020616739833981519152959462ff00001916179055847fb848a62ef7171019d243ed8f5b8e1e6c32cafed0b7fc99da26cb2fc2e7d533ec6040516040815280611a3e60408201604090600f81526e189d5e595c8818d85b98d95b1b1959608a1b60208201520190565b42868301520390a2611a536040518094615e43565b8201526080604082015280611a8860808201604090600f81526e189d5e595c8818d85b98d95b1b1959608a1b60208201520190565b4260608301520390a26001805580f35b60405162461bcd60e51b815260048101849052602660248201527f4f7074696f6e73436f72653a2063616e6e6f742063616e63656c206166746572604482015265040dac2e8c6d60d31b6064820152608490fd5b50600184146119c3565b50600554821061195d565b50346102ed5760203660031901126102ed57611b1b615b37565b611b23615e6c565b60018060a01b03166bffffffffffffffffffffffff60a01b600354161760035580f35b50346102ed5760203660031901126102ed57600435815260076020526040902061012081905280546101e052600181015460028201546001600160a01b0390811660a0521690611b9890600301615d53565b6101005261012051600401611bac90615d53565b61012051600501611bbc90615d53565b9161012051600601611bcd90615d53565b9161012051600701611bde90615d53565b936101205193600885015460ff166101c052600985015495600a860154600b87015491600c88015493600d89015495600e8a015497600f8b01549960108c01549b601181015460805260128101546101605260138101546102405260148101546101405260158101546101a052601681015460e052601781015460c052601881015461022052601901546101805260405180610200526101e0519052610200516020015260a051610200516040015261042080610200516060015261020051016101005190611cac91615df9565b610200518082039060800152611cc191615df9565b610200518082039060a00152611cd691615df9565b610200518082039060c00152611ceb91615df9565b610200518082039060e00152611d0091615df9565b976101c051611d0e90615e39565b6101c051610200516101000152610200516101200152610200516101400152610200516101600152610200516101800152610200516101a00152610200516101c00152610200516101e0015261020051610200015260805160ff16611d7290615be2565b60805160ff1661020051610220015260805160081c60ff1661020051610240015260805160101c60ff1661020051610260015260805160181c60ff1661020051610280015260805160201c60ff16611dc990615be2565b60805160201c60ff16610200516102a00152600160a01b6001900360805160281c16610200516102c0015261016051610200516102e00152610240516102005161030001526101405160ff1615156102005161032001526101405160081c60ff16611e3390615e39565b6101405160081c60ff1661020051610340015261020051610360016101405160101c60ff1690611e6291615e43565b6101a05161020051610380015260e051610200516103a0015260c051610200516103c0015261022051610200516103e00152610180516102005161040001526102005180910390f35b50346102ed5760203660031901126102ed5760409060043581526009602052208054906102e5600182015460028301549260038101549460048201549260058301549160068401549060078501549160088601549460ff600a600989015498015416976040519b8c9b8c60ff8860101c169860ff808a60081c1699169760ff8460a01c169360018060a01b031692615c0c565b50346102ed576020806003193601126105b2576001600160a01b03611f61615b37565b168252600a815260408220916040518092808554928381520194835280832092905b828210611f9a576102e58561058f81890382615d32565b835486529485019460019384019390910190611f83565b50346102ed57806003193601126102ed57602090604051908152f35b50346102ed576102603660031901126102ed576004356001600160401b0381116105b257611fff903690600401615afa565b6024356001600160401b038111610b865761201e903690600401615afa565b906044356001600160401b0381116128855761203e903690600401615afa565b906064356001600160401b0381116128815761205e903690600401615afa565b906084356001600160401b03811161287d5761207e903690600401615afa565b999098600260a43510156105b25760036101443510156105b257610164356001600160a01b0381169003610462576120b4615b27565b60036101e43510156102e95760ff610204351661020435036104625760ff610224351661022435036104625760026102443510156102e9576120f46162b6565b6120fc616298565b61210960c4351515615fdd565b6121164260e43511616038565b600254604051635d8eb68760e01b81529060081c6001600160a01b0316602082600481845afa918215610c73578592612847575b5061215c600492610124351015616092565b81546003546040516337382d3960e21b8152936001600160a01b03928316939290911691602091859182905afa91821561283c578692612806575b6121a3935033906161f1565b600554996121b08b6160dd565b6005558a84526007602052604084208b81556001810180546001600160a01b03191633179055926001600160401b0382116127f2578190612201826121f86003880154615c97565b60038801616102565b8590601f831160011461278657869261277b575b50508160011b916000199060031b1c19161760038301555b6001600160401b038911612606576122558961224c6004850154615c97565b60048501616102565b8883601f821160011461270f578491612704575b508960011b906000198b60031b1c19161760048301555b6001600160401b038711612606576122a88761229f6005850154615c97565b60058501616102565b8683601f821160011461269a57849161268f575b508760011b906000198960031b1c19161760058301555b6001600160401b038511612606576122fb856122f26006850154615c97565b60068501616102565b8483601f821160011461262557849161261a575b508560011b906000198760031b1c19161760068301555b6001600160401b038c11612606578b61235160209d6123486007860154615c97565b60078601616102565b839b601f8211600114612573579a6124cd968e829e9761249d6124e59f859f9e9c978a859f9b9a6040928a8a9f9b6124b59c8a9f978d9892612568575b50508160011b916000199060031b1c19161760078301555b6123b560a43560088401616156565b60c435600983015560e435600b83015561010435600c830155610124356010830155612473601183016123eb610144358261616e565b805465010000000000600160c81b0319166101643560281b65010000000000600160c81b03161781556101843560128501556101a435601385015560148401805493151560ff1660ff199490941693909317835561244c6101e43582616193565b805462ff00006102243560101b1662ffff001990911661ff006102043560081b1617179055565b612480610244358261619d565b62ff0000198154169055601542910155338152600a8652206161bc565b8260405193849283378101600c8152030190206161bc565b8260405193849283378101600d8152030190206161bc565b8260405193849283378101600e8152030190206161bc565b604051600181524283820152817fc0c6ed2669febbe340d8737e8ec17254ffd9e038b54a4585ff70ac3ca18956aa60403393a38060008051602061673983398151915260c06040516000815260008682015260806040820152600760808201526618dc99585d195960ca1b60a0820152426060820152a260018055604051908152f35b01359050388061238e565b6007840185528d852090859d8e5b601f198516116125ee578f9a968e9f509761249d6124e59f9e9d9b968f9a6040908f9a8d98936124cd9f988b8b968f9a926001936124b59f601f198116106125d4575b505050811b0160078301556123a6565b0135600019600384901b60f8161c191690553880806125c4565b918f600181928585013581550193019e019d8e612581565b634e487b7160e01b83526041600452602483fd5b90508401353861230f565b600684018552602085209150845b601f1988168110612677575086601f1981161061265d575b5050600185811b016006830155612326565b850135600019600388901b60f8161c19169055388061264b565b9091602060018192858a013581550193019101612633565b9050860135386122bc565b600584018552602085209150845b601f198a1681106126ec575088601f198116106126d2575b5050600187811b0160058301556122d3565b87013560001960038a901b60f8161c1916905538806126c0565b9091602060018192858c0135815501930191016126a8565b905088013538612269565b600484018552602085209150845b8a601f198d1682106127635750508a601f19811610612749575b5050600189811b016004830155612280565b89013560001960038c901b60f8161c191690553880612737565b6001839460209394849301358155019301910161271d565b013590503880612215565b60038601875260208720879450915b601f19841685106127da576001945083601f198116106127c0575b505050811b01600383015561222d565b0135600019600384901b60f8161c191690553880806127b0565b81810135835560209485019460019093019201612795565b634e487b7160e01b85526041600452602485fd5b91506020833d602011612834575b8161282160209383615d32565b81010312610462576121a3925191612197565b3d9150612814565b6040513d88823e3d90fd5b91506020823d602011612875575b8161286260209383615d32565b810103126104625790519061215c61214a565b3d9150612855565b8980fd5b8780fd5b8580fd5b50346102ed5760403660031901126102ed5760406128a5615b4d565b91600435815280602052209060018060a01b0316600052602052602060ff604060002054166040519015158152f35b50346102ed5760203660031901126102ed57600435151580612e32575b6128fa9061635e565b6129026162b6565b61290a616298565b600435815260076020526040812060148101549060ff8260101c16600b811015612e1e57600603612dcd576018810154908115612d885761294d60078201615d53565b93809481938293835b8351811015612a5f576001600160f81b0319601760f91b8161297884886165a4565b511614612a5157600360fc1b8161298f84886165a4565b511610159081612a36575b506129ae575b6129a9906160dd565b612956565b88600a81999897990204600a1489151715612a2257602f196129d082866165a4565b5160f81c0160ff8111612a0e578899600a60ff6129f3939b999a9b169102616351565b98156129a05795612a066129a9916160dd565b9690506129a0565b634e487b7160e01b86526011600452602486fd5b634e487b7160e01b85526011600452602485fd5b603960f81b9150612a4783876165a4565b511611153861299a565b5094506129a96001956160dd565b8483838a8c8b60128110612d61575b5060ff81921680612d54575b612d30575b50839260ff600884015416612a9381615e39565b612d0657818111612cdb575b50505b828215612ccf5750600f81015491828111612cc8575b80612ac3919361654b565b915b80612c1f575b82612b97575b9060ff927f6da40291eeb646b436d05c420b5b9f010d81df95bce846d2c3b3d45f56df19ec612b3d612b4f946014850154946208000062ff0000198716176014820155601742910155604051918291600435954291846040919493926060820195825260208201520152565b0390a260405192839160101c16615e43565b600860208201526080604082015260076080820152661cd95d1d1b195960ca1b60a082015242606082015260008051602061673983398151915260c060043592a26001805580f35b600354600283015460045486926001600160a01b03908116929181169116823b15610b8657604051636924faa760e11b81526001600160a01b03918216600482015291166024820152604481018690529082908290606490829084905af1801561107a57612c07575b5050612ad1565b612c1390939293615cd1565b610b8657908385612c00565b6003546002830154600184015460045487936001600160a01b039182169382169282169116803b15610b9e5784928360e49260405196879586946305fe3a8b60e31b865260048601526024850152604484015288606484015260a06084840152601160a4840152701cd95d1d1b195b595b9d081c185e5bdd5d607a1b60c48401525af1801561107a57612cb4575b5050612acb565b612cbd90615cd1565b610b86578385612cad565b5081612ab8565b600f8201549250612ac5565b612cfe929350612cee82612cf99261654b565b60098501549061631e565b616331565b908380612a9f565b808211612d15575b5050612aa2565b612d28929350612cee612cf9918361654b565b908380612d0e565b601983015490811015612d4c57612d469161654b565b84612a7f565b505082612d46565b5060198301541515612a7a565b60120360128111612a0e57604d8111612a0e5790612d8291600a0a9061631e565b85612a6e565b60405162461bcd60e51b815260206004820152601a60248201527f4f7074696f6e73436f72653a206e6f20666565642070726963650000000000006044820152606490fd5b60405162461bcd60e51b815260206004820152602360248201527f4f7074696f6e73436f72653a206e6f742070656e64696e6720736574746c656d604482015262195b9d60ea1b6064820152608490fd5b634e487b7160e01b84526021600452602484fd5b50600554600435106128f1565b50346102ed57806003193601126102ed576003546040516001600160a01b039091168152602090f35b50346102ed57806003193601126102ed57612e81615e6c565b612e89616298565b600160ff1960025416176002557f62e78cea01bee320cd4e420270b5ea74000d11b0c9f74754ebdbfc544b05a2586020604051338152a180f35b50346102ed576020806003193601126105b2576004356001600160401b0381116102e957612ef682913690600401615afa565b91908260405193849283378101600d815203019020916040518092808554928381520194835280832092905b828210612f39576102e58561058f81890382615d32565b835486529485019460019384019390910190612f22565b50346102ed57806003193601126102ed5760025460405160089190911c6001600160a01b03168152602090f35b50346102ed57612f8c36615b63565b8115158061310f575b612f9e9061635e565b612fa66162b6565b612fae616298565b828052826020526040832033600052602052612fd160ff60406000205416616558565b81835260076020526040832090601482015460ff8160101c16600b8110156105145790613002600460ff93146164ff565b16156130b55780156130615760197fdd46d8cd4968afb89542d91ba59208e869e45ff03dcda531aa39fd6888a174c3920161303e828254616351565b908190556040805192835260208301919091524290820152606090a26001805580f35b60405162461bcd60e51b815260206004820152602660248201527f4f7074696f6e73436f72653a206469766964656e64206d75737420626520706f60448201526573697469766560d01b6064820152608490fd5b60405162461bcd60e51b815260206004820152602c60248201527f4f7074696f6e73436f72653a206469766964656e642061646a7573746d656e7460448201526b081b9bdd08195b98589b195960a21b6064820152608490fd5b506005548210612f95565b50346102ed5760c03660031901126102ed57600360643510156102ed5760843560ff811681036104625760a43560ff81168103610462576004351515806136d7575b6131659061635e565b61316d6162b6565b613175616298565b60043583526007602052604083209060ff601483015460101c16600b8110156134515780159081156136cc575b50156136775760018201546001600160a01b031615613632576015820154600254604051634f6bfad760e01b815260089190911c6001600160a01b031691602082600481865afa9081156136275787916135f1575b6132019250616351565b4210156135ac57600490813586526008602052602060408720549160405193848092630be0cbcd60e21b82525afa91821561283c578692613578575b501015613533576011820154600260ff8260201c1661325b81615be2565b146134cb575b50612710613275604435600985015461631e565b0461328860108401546044351015616092565b6004546003546132a89183916001600160a01b03908116913391166161f1565b600654936132b5856160dd565b6006556127106132cb602435600987015461631e565b04926004602060018060a01b0360025460081c16604051928380926306a15d6d60e11b82525afa9081156134c057889161348d575b5060ff9261330f849242616351565b946040519661331d88615cfa565b89885260043560208901523360408901528a6060890152602435608089015260a088015260443560c088015260e0870152613359606435615be2565b606435610100870152166101208501521661014083015242610160830152610180820152836101a0820152828452600960205261339981604086206163aa565b6004358452600860205260408420805490600160401b82101561347957906133c691600182018155615e50565b61346557906133d4916163aa565b601481015460ff8160101c16600b811015613451576020945015613439575b5050604051602435815242838201528133917f878fe3f9bca373e42473c1f3ad3c9c35c4f1ecaf9a5f081a801a3fbd43049f55604060043592a460018055604051908152f35b6201000060149162ff000019161791015538806133f3565b634e487b7160e01b85526021600452602485fd5b634e487b7160e01b85526004859052602485fd5b634e487b7160e01b86526041600452602486fd5b90506020813d6020116134b8575b816134a860209383615d32565b81010312610462575160ff613300565b3d915061349b565b6040513d8a823e3d90fd5b60281c6001600160a01b031633036134e35738613261565b60405162461bcd60e51b815260206004820152602260248201527f4f7074696f6e73436f72653a206e6f742064657369676e617465642073656c6c60448201526132b960f11b6064820152608490fd5b60405162461bcd60e51b815260206004820152601f60248201527f4f7074696f6e73436f72653a206d61782071756f7465732072656163686564006044820152606490fd5b9091506020813d6020116135a4575b8161359460209383615d32565b810103126104625751903861323d565b3d9150613587565b60405162461bcd60e51b815260206004820152601860248201527f4f7074696f6e73436f72653a20524651206578706972656400000000000000006044820152606490fd5b90506020823d60201161361f575b8161360c60209383615d32565b81010312610462576132019151906131f7565b3d91506135ff565b6040513d89823e3d90fd5b60405162461bcd60e51b815260206004820152601e60248201527f4f7074696f6e73436f72653a206e6f742061206275796572206f7264657200006044820152606490fd5b60405162461bcd60e51b815260206004820152602760248201527f4f7074696f6e73436f72653a206f72646572206e6f7420616363657074696e676044820152662071756f74657360c81b6064820152608490fd5b6001915014386131a2565b506005546004351061315c565b5060403660031901126102ed57600435600360243510156105b2579081613735921515806137a1575b6137169061635e565b8152600760205260409020600101546001600160a01b031633146162d9565b61373d6162b6565b613745616298565b60405162461bcd60e51b815260206004820152602e60248201527f4f7074696f6e73436f72653a20666565642070726f746f636f6c206e6f74206960448201526d1b5c1b195b595b9d1959081e595d60921b6064820152608490fd5b50600554811061370d565b50346102ed5760203660031901126102ed57600435801515806138d4575b6137d39061635e565b6137db6162b6565b6137e3616298565b808252600760205260408220601481019081549160ff8360101c1692600b841015610514577fb009a900f426c0c9177acb33a8a806b35c53ac253d1ddf22d687986fc6b72ce460c093859362090000889461384f60046000805160206167398339815191529a146164ff565b62ff0000191617905542601782018190556001820154600f90920154604080516001600160a01b0390941684526020840191909152820152606090a26138986040518092615e43565b6009602082015260806040820152601060808201526f199bdc98d9481b1a5c5d5a59185d195960821b60a0820152426060820152a26001805580f35b5060055481106137ca565b506020806003193601126105b2576004359081151580613b62575b6139039061635e565b61390b6162b6565b613913616298565b8183526007815260408320601481019060ff825460101c16600b81101561051457600603613b0c5760018101546001600160a01b039190821633148015613afd575b15613ab857806012601761396e93015491015490616351565b4211613a6457806004918254168482600354169260025460081c166040519485809263039f4f7560e31b82525afa928315613627578793613a2f575b50936139f260c0946139d260ff956007956000805160206167398339815191529933906161f1565b805462ff0000198116620700001790915560405194859160101c16615e43565b820152608060408201526015608082015274185c989a5d1c985d1a5bdb881a5b9a5d1a585d1959605a1b60a0820152426060820152a26001805580f35b925090938083813d8311613a5d575b613a488183615d32565b810103126104625791519193906139f26139aa565b503d613a3e565b60405162461bcd60e51b815260048101849052602660248201527f4f7074696f6e73436f72653a206172626974726174696f6e2077696e646f772060448201526518db1bdcd95960d21b6064820152608490fd5b60405162461bcd60e51b815260048101859052601f60248201527f4f7074696f6e73436f72653a206e6f7420706172747920746f206f72646572006044820152606490fd5b50816002820154163314613955565b60405162461bcd60e51b815260048101849052602860248201527f4f7074696f6e73436f72653a2063616e6e6f7420696e6974696174652061726260448201526734ba3930ba34b7b760c11b6064820152608490fd5b5060055482106138fa565b50346102ed576020806003193601126105b2576004359081151580613ea8575b613b969061635e565b613b9e6162b6565b613ba6616298565b818352600781526040832090601482019283549360ff8560101c1693600b851015613e945784613e5157600281019260018060a01b039283855416978815613e0c576001840198895490868216613dc7573314613d76576001600160a01b0319163317895562ff00001916620200001790554260168301556009820154600254604051631c03be3560e31b8152919087908390600490829060081c89165afa918215613d6b578a92613d2d575b509360c09693613cb1600080516020616739833981519152999794613ca1613c8f612710613c84879860029c61631e565b04600d860154616351565b856004541686600354169033906161f1565b338d52600a875260408d206161bc565b5498541691541690877f3d7463b72b52fafc8e3f27dc0dbb9d1a94c0a4024834252b5cce68509acb49bc84604051428152a4613cf06040518094615e43565b8201526080604082015260156080820152741cd95b1b195c881bdc99195c881858d8d95c1d1959605a1b60a0820152426060820152a26001805580f35b96809498969395925087813d8311613d64575b613d4a8183615d32565b8101031261046257955194969295919490939160c0613c53565b503d613d40565b6040513d8c823e3d90fd5b60405162461bcd60e51b8152600481018990526024808201527f4f7074696f6e73436f72653a2063616e6e6f7420616363657074206f776e206f604482015263393232b960e11b6064820152608490fd5b60405162461bcd60e51b8152600481018a9052601e60248201527f4f7074696f6e73436f72653a20616c72656164792068617320627579657200006044820152606490fd5b60405162461bcd60e51b815260048101889052601f60248201527f4f7074696f6e73436f72653a206e6f7420612073656c6c6572206f72646572006044820152606490fd5b6064846040519062461bcd60e51b825280600483015260248201527f4f7074696f6e73436f72653a206f72646572206e6f7420617661696c61626c656044820152fd5b634e487b7160e01b87526021600452602487fd5b506005548210613b8d565b50346102ed5760203660031901126102ed57613ecd6162b6565b613ed5616298565b6004358152600960205260408120600a8101549160ff8316613ef681615c02565b61431b57600982015442116142d6576001820154815260076020526040812092613f2d60018060a01b0360018601541633146162d9565b60ff601485015460101c16600b811015610d385780159081156142cb575b5015614286576003830154600c850154106142335760ff1916600117600a8301556002808301805491850180546001600160a01b0319166001600160a01b0393909316929092179091555461401c906011850190613faf9060a01c60ff168261616e565b6003840154600c8601556004840154600d860155600684015480600e870155600f86015560ff60078501613fe68282541684616193565b8054835461ff001916600891821c841690911b61ff00161783555460101c1662ff000082549160101b169062ff00001916179055565b60148301805462ff000019811662020000179091554260168501556009840154600254604051631c03be3560e31b8152929492906020908290600490829060081c6001600160a01b03165afa908115610bd65784916141ff575b5061271061408a614095926140af9461631e565b046004840154616351565b6004546003546001600160a01b03908116913391166161f1565b600201546001600160a01b03168152600b6020526040812083546140d2916161bc565b8254815260086020526040812092815b845481101561415457806140f961410f9287615e50565b5054600435141580614132575b614114576160dd565b6140e2565b600a6141208288615e50565b5001805460ff191660021790556160dd565b5060ff600a6141418389615e50565b5001541661414e81615c02565b15614106565b5060008051602061673983398151915260c060ff6141c58685549560018060a01b0360018201541690600260018060a01b039101541690877f3d7463b72b52fafc8e3f27dc0dbb9d1a94c0a4024834252b5cce68509acb49bc6020604051428152a460405192839160101c16615e43565b6002602082015260806040820152600e60808201526d1c5d5bdd19481858d8d95c1d195960921b60a0820152426060820152a26001805580f35b90506020813d60201161422b575b8161421a60209383615d32565b810103126104625751612710614076565b3d915061420d565b60405162461bcd60e51b815260206004820152602560248201527f4f7074696f6e73436f72653a207072656d69756d2072617465206578636565646044820152640e640dac2f60db1b6064820152608490fd5b60405162461bcd60e51b815260206004820152601b60248201527f4f7074696f6e73436f72653a20696e76616c69642073746174757300000000006044820152606490fd5b600191501438613f4b565b60405162461bcd60e51b815260206004820152601a60248201527f4f7074696f6e73436f72653a2071756f746520657870697265640000000000006044820152606490fd5b60405162461bcd60e51b815260206004820152601d60248201527f4f7074696f6e73436f72653a2071756f7465206e6f74206163746976650000006044820152606490fd5b50346102ed57806003193601126102ed57602060ff600254166040519015158152f35b50346102ed576020806003193601126105b2576004359081151580614666575b6143ac9061635e565b6143b46162b6565b6143bc616298565b8183526007815260408320601481019182549260ff8460101c1692600b841015613e94576143ec600485146164ff565b601381019485548015614616574211156145c757612710614416600e84015460108501549061631e565b0492600f8301918254948510156145845762ff0000191662090000179055426017830155869291908890836144fa575b819055909555600190940154604080516001600160a01b039092168252602082019590955242948101949094526000805160206167398339815191529360c0939260099290917fb009a900f426c0c9177acb33a8a806b35c53ac253d1ddf22d687986fc6b72ce490606090a26144bf6040518094615e43565b8201526080604082015260136080820152721b585c99da5b8818d85b1b081d1a5b595bdd5d606a1b60a0820152426060820152a26001805580f35b60035460018401546001600160a01b039081169992965016803b156102e9576040516302817a6d60e01b81526001600160a01b039990991660048a01526024890185905282908990604490829084905af194851561107a578995614561575b909750614446565b91945091959492966145738591615cd1565b610b86579286929495918894614559565b6064866040519062461bcd60e51b825280600483015260248201527f4f7074696f6e73436f72653a206d617267696e2077617320726573746f7265646044820152fd5b60405162461bcd60e51b815260048101859052602160248201527f4f7074696f6e73436f72653a20646561646c696e65206e6f74207265616368656044820152601960fa1b6064820152608490fd5b60405162461bcd60e51b815260048101869052602260248201527f4f7074696f6e73436f72653a206e6f206d617267696e2063616c6c2061637469604482015261766560f01b6064820152608490fd5b5060055482106143a3565b50346102ed57806003193601126102ed576020600654604051908152f35b50346102ed576020806003193601126105b2576004359081151580614858575b6146b89061635e565b818352600781526146d960018060a01b0360016040862001541633146162d9565b8183526007815260ff601460408520015460101c16600b811015612e1e5760040361480a576147066162b6565b61470e616298565b818352600781526040832060ff601182015460181c1680800460011481151715612a2257614740906016830154616351565b42106147b95760ff600560008051602061673983398151915293614783601460c095018054906205000062ff000019831617905560405194859160101c16615e43565b82015260806040820152600e60808201526d6561726c7920657865726369736560901b60a0820152426060820152a26001805580f35b60405162461bcd60e51b815260048101839052602360248201527f4f7074696f6e73436f72653a2065786572636973652064656c6179206e6f74206044820152621b595d60ea1b6064820152608490fd5b6084906040519062461bcd60e51b82526004820152602160248201527f4f7074696f6e73436f72653a20696e76616c6964206f726465722073746174756044820152607360f81b6064820152fd5b5060055482106146af565b50346102ed5760403660031901126102ed5761487d615b37565b6001600160a01b03168152600b60205260408120805460243592908310156102ed5760206148ab8484615b79565b90546040519160031b1c8152f35b50346102ed5760403660031901126102ed576148d3615b37565b6001600160a01b03168152600a60205260408120805460243592908310156102ed5760206148ab8484615b79565b50346102ed5761491036615b63565b81151580614a4a575b6149229061635e565b61492a615e6c565b818352600760205260408320601481019182549160ff8360101c1691600b831015613e9457600483148015614a40575b156149de57600080516020616739833981519152946206000060c095614981841515616601565b62ff0000191617905560188201556017429101556149a26040518092615e43565b60066020820152608060408201526014608082015273199a5b985b08199959590818dbdb5c1b195d195960621b60a0820152426060820152a280f35b60405162461bcd60e51b815260206004820152603460248201527f4f7074696f6e73436f72653a206f72646572206e6f7420696e2076616c6964206044820152731cdd185d1948199bdc88199a5b985b081999595960621b6064820152608490fd5b506005831461495a565b506005548210614919565b50346102ed57806003193601126102ed57614a6e615e6c565b60025460ff811615614aae5760ff19166002557f5db9ee0a495bf2e6ff9c91a7834c1ba4fdd244a5e8aa4e537bd38aeae4b073aa6020604051338152a180f35b604051638dfc202b60e01b8152600490fd5b50346102ed5760403660031901126102ed57614ada615b4d565b336001600160a01b03821603614af657610d9690600435615f68565b60405163334bd91960e11b8152600490fd5b50346102ed5760603660031901126102ed57600435602460443581356001600160401b03808311612885573660238401121561288557826004013592818411614e17578436918560051b0101116128855784151580614e0c575b614b6b9061635e565b614b736162b6565b614b7b616298565b858052602093868552604087203388528552614b9d60ff604089205416616558565b858752600785526040872092601484019460ff865460101c16600b811015614df957600703614da75715614d635760188401805460018601546001600160a01b03908116968b94838114159490939285614cfe575b508390558854986208000062ff0000198b1617905560174291015560405194898601908b825242604088015260408752606087019787891090891117614cea575060c0876000805160206167398339815191529b97614cae97839c978f969760ff9d987fb3560d930da64161657f7700f7109520a24b93d7ff2363739ee324a1e0d6bf879760089e60405285519020998652608085015260a08401528483015260e082015261010042910152a360405194859160101c16615e43565b820152608060408201526014608082015273185c989a5d1c985d1a5bdb881c995cdbdb1d995960621b60a0820152426060820152a26001805580f35b634e487b7160e01b60009081526041600452fd5b6003546798a7d9b8314c00009750168d813b156102ed578860448c838b9560405196879586946315490ebb60e01b865260048601528401525af18015614d565715614bf2579c614d4f85929e615cd1565b9c90614bf2565b8e604051903d90823e3d90fd5b60405162461bcd60e51b815260048101879052601b818401527f4f7074696f6e73436f72653a206e6f2061726269747261746f727300000000006044820152606490fd5b60405162461bcd60e51b8152600481018890526025818501527f4f7074696f6e73436f72653a206f72646572206e6f7420696e2061726269747260448201526430ba34b7b760d91b6064820152608490fd5b634e487b7160e01b8a526021600452838afd5b506005548510614b62565b8680fd5b50346102ed5760603660031901126102ed57600435602480356004811015610b865760443590831515806151ac575b614e539061635e565b7f04967fd25e7aa667b18955d808f19fd0c86238999ff8be2ebc72cd2cd3a83db09182865260209286845260408720338852845260ff6040882054161561518f5750848652600783526040862091614eac821515616601565b614eb581615c02565b80615065575090601481019384549460ff8660101c1695600b871015615052576204000090614ee6600289146165b5565b62ff00001916179055614f02670de0b6b3a76400008404616668565b9060078301918051916001600160401b0383116150405750614f28826106618554615c97565b859089601f8411600114614fc35793836000805160206167398339815191529997946018946004989460c09b9892614fb8575b50508160011b916000199060031b1c19161790555b0155614f7f6040518094615e43565b820152608060408201526015608082015274696e697469616c20666565642063616c6c6261636b60581b60a0820152426060820152a280f35b015190503880614f5b565b50838a52868a209190601f1984168b5b8181106150295750846018946004989460c09b98946000805160206167398339815191529d9b9860019510615010575b505050811b019055614f70565b015160001960f88460031b161c19169055388080615003565b929389600181928786015181550195019301614fd3565b634e487b7160e01b8a52604160045289fd5b634e487b7160e01b895260216004528289fd5b80615071600292615c02565b1461507f575b505050505080f35b60148201805460ff8160101c1695600b87101561517d57600487148015615173575b15615122575062ff00001916620600001790556018820155426017909101556040516000805160206167398339815191529260c0926006916150e4908490615e43565b82015260806040820152601360808201527266696e616c20666565642063616c6c6261636b60681b60a0820152426060820152a23880808080615077565b8560256084926040519262461bcd60e51b845260048401528201527f4f7074696f6e73436f72653a206f72646572206e6f7420696e2076616c696420604482015264737461746560d81b6064820152fd5b50600587146150a1565b634e487b7160e01b8952602160045288fd5b846044916040519163e2517d3f60e01b8352336004840152820152fd5b506005548410614e4a565b50346102ed57806003193601126102ed576004546040516001600160a01b039091168152602090f35b50346102ed5760403660031901126102ed57610d96600435615200615b4d565b90808452836020526152186001604086200154615ec4565b615eea565b50346102ed57806003193601126102ed576020600554604051908152f35b50346102ed5760203660031901126102ed57600160406020926004358152808452200154604051908152f35b50346102ed5760203660031901126102ed57615281615b37565b615289615e6c565b60028054610100600160a81b03191660089290921b610100600160a81b031691909117905580f35b50346102ed5760203660031901126102ed5760043563ffffffff60e01b81168091036105b257602090637965db0b60e01b81149081156152f7575b506040519015158152f35b6301ffc9a760e01b149050826152ec565b50346102ed576102203660031901126102ed576004356001600160401b0381116105b25761533a903690600401615afa565b90916024356001600160401b0381116105b25761535b903690600401615afa565b93906044356001600160401b038111610b865761537c903690600401615afa565b906064356001600160401b0381116128855761539c903690600401615afa565b90946084356001600160401b038111612881576153bd903690600401615afa565b600260a4351015615af6576003610144351015615af65760ff61016435166101643503615af65760ff61018435166101843503615af6576153fc615b27565b9160ff6101e435166101e4350361287d57600261020435101561287d576154216162b6565b615429616298565b61543660c4351515615fdd565b6154434260e43511616038565b600480546003546002546040516337382d3960e21b81526001600160a01b0393841694909392831692602092859291839160081c165afa918215615aeb578d92615ab1575b506154949233906161f1565b61012435615a89575b6005549a6154aa8c6160dd565b6005558b8b52600760205260408b208c81556002810180546001600160a01b03191633179055946001600160401b038211615a755781906154fb826154f260038a0154615c97565b60038a01616102565b8c90601f8311600114615a09578d926159fe575b50508160011b916000199060031b1c19161760038501555b6001600160401b038c116158845761554f8c6155466004870154615c97565b60048701616102565b8b8a601f821160011461598f578b91615984575b5060001960038e901b1c191660018d901b1760048501555b6001600160401b038711615884576155a38761559a6005870154615c97565b60058701616102565b868a601f821160011461591a578b9161590f575b508760011b906000198960031b1c19161760058501555b6001600160401b038511615884576155f6856155ed6006870154615c97565b60068701616102565b848a601f82116001146158a3578b91615898575b508560011b906000198760031b1c19161760068501555b6001600160401b038211615884579260209b969492828c9997956156568d9561564d6007870154615c97565b60078701616102565b8490601f83116001146157d857958f61578f9d61249d8e60408a859f9e9b9a6124cd9e9a8a859f9b869b8a9f9d6124b59e926157cd575b50508160011b916000199060031b1c19161760078301555b6156b460a43560088401616156565b60c435600983015560e435600b8301556127106156dc6101043580600c86015560c43561631e565b04600d83015561012435600e83015561012435600f830155601182016157056101443582616193565b805462ff00006101843560101b1662ffff001990911661ff006101643560081b16171781556101a435601284015560148301805492151560ff1660ff1993909316929092178255805463ff00000019166101e43560181b63ff00000016179055615772610204358261619d565b62ff0000198154169055601542910155338152600b8652206161bc565b6040519081524283820152817fc0c6ed2669febbe340d8737e8ec17254ffd9e038b54a4585ff70ac3ca18956aa60403393a360018055604051908152f35b01359050388061568d565b9b94939291906007840185528f852090855b601f1984168110615852575060209a999661249d61578f9f8f9a948e996124cd9d996124b59960018f9a6040958f9a978d9883601f19811610615838575b505050811b0160078301556156a5565b0135600019600384901b60f8161c19169055388080615828565b9295509396989a9c929597999b508f600181928686013581550194019101928d94918f9c9a9896939d9b9997946157ea565b634e487b7160e01b8a52604160045260248afd5b90508901353861560a565b600686018c5260208c2091508b5b8b601f19891682106158f757505086601f198116106158dd575b5050600185811b016006850155615621565b8a0135600019600388901b60f8161c1916905538806158cb565b600183946020939484930135815501930191016158b1565b9050860135386155b7565b600586018c5260208c2091508b5b601f198a16811061596c575088601f19811610615952575b5050600187811b0160058501556155ce565b87013560001960038a901b60f8161c191690553880615940565b9091602060018192858c013581550193019101615928565b905088013538615563565b600486018c5260208c2091508b8e5b8b601f19821683106159e45750601f1981161090506159ca575b505060018c811b01600485015561557b565b89013560001960038f901b60f8161c1916905538806159b8565b60018495602093949584930135815501940192019061599e565b01359050388061550f565b600388018e5260208e208e9450915b601f1984168510615a5d576001945083601f19811610615a43575b505050811b016003850155615527565b0135600019600384901b60f8161c19169055388080615a33565b81810135835560209485019460019093019201615a18565b634e487b7160e01b8c52604160045260248cfd5b600454600354615aac9161012435916001600160a01b03908116913391166161f1565b61549d565b9091506020813d602011615ae3575b81615acd60209383615d32565b81010312615adf575190615494615488565b8c80fd5b3d9150615ac0565b6040513d8f823e3d90fd5b8880fd5b9181601f84011215610462578235916001600160401b038311610462576020838186019501011161046257565b6101c43590811515820361046257565b600435906001600160a01b038216820361046257565b602435906001600160a01b038216820361046257565b6040906003190112610462576004359060243590565b8054821015615b915760005260206000200190600090565b634e487b7160e01b600052603260045260246000fd5b6020908160408183019282815285518094520193019160005b828110615bce575050505090565b835185529381019392810192600101615bc0565b60031115615bec57565b634e487b7160e01b600052602160045260246000fd5b60041115615bec57565b9b99979593919e9d9c9a98969492909e6101c08d019f8d5260208d0152600160a01b600190031660408c0152615c4181615be2565b60608b015260808a015260a089015260c088015260e0870152615c6381615be2565b61010086015260ff1661012085015260ff16610140840152610160830152610180820152615c9082615c02565b6101a00152565b90600182811c92168015615cc7575b6020831014615cb157565b634e487b7160e01b600052602260045260246000fd5b91607f1691615ca6565b6001600160401b038111615ce457604052565b634e487b7160e01b600052604160045260246000fd5b6101c081019081106001600160401b03821117615ce457604052565b61042081019081106001600160401b03821117615ce457604052565b90601f801991011681019081106001600160401b03821117615ce457604052565b9060405191826000825492615d6784615c97565b908184526001948581169081600014615dd65750600114615d93575b5050615d9192500383615d32565b565b9093915060005260209081600020936000915b818310615dbe575050615d9193508201013880615d83565b85548884018501529485019487945091830191615da6565b915050615d9194506020925060ff191682840152151560051b8201013880615d83565b919082519283825260005b848110615e25575050826000602080949584010152601f8019910116010190565b602081830181015184830182015201615e04565b60021115615bec57565b90600b821015615bec5752565b8054821015615b9157600052600b602060002091020190600090565b3360009081527fad3228b676f7d3cd4284a5443f17f1962b36e491b30a40b2405849e597ba5fb5602052604081205460ff1615615ea65750565b6044906040519063e2517d3f60e01b82523360048301526024820152fd5b80600052600060205260406000203360005260205260ff6040600020541615615ea65750565b9060009180835282602052604083209160018060a01b03169182845260205260ff60408420541615600014615f6357808352826020526040832082845260205260408320600160ff198254161790557f2f8788117e7eff1d82e926ec794901d17c78024a50270940304540a733656f0d339380a4600190565b505090565b9060009180835282602052604083209160018060a01b03169182845260205260ff604084205416600014615f635780835282602052604083208284526020526040832060ff1981541690557ff6391f5c32d9c69d2a47ea670b442974b53935d1edc7fd64eb21e047a839171b339380a4600190565b15615fe457565b60405162461bcd60e51b815260206004820152602660248201527f4f7074696f6e73436f72653a206e6f74696f6e616c206d75737420626520706f60448201526573697469766560d01b6064820152608490fd5b1561603f57565b60405162461bcd60e51b815260206004820152602560248201527f4f7074696f6e73436f72653a20657870697279206d75737420626520696e2066604482015264757475726560d81b6064820152608490fd5b1561609957565b606460405162461bcd60e51b815260206004820152602060248201527f4f7074696f6e73436f72653a206d617267696e207261746520746f6f206c6f776044820152fd5b60001981146160ec5760010190565b634e487b7160e01b600052601160045260246000fd5b90601f811161611057505050565b600091825260208220906020601f850160051c8301941061614c575b601f0160051c01915b82811061614157505050565b818155600101616135565b909250829061612c565b9061616081615e39565b60ff80198354169116179055565b9061617881615be2565b64ff0000000082549160201b169064ff000000001916179055565b9061616081615be2565b906161a781615e39565b61ff0082549160081b169061ff001916179055565b8054600160401b811015615ce4576161d991600182018155615b79565b819291549060031b91821b91600019901b1916179055565b6040516323b872dd60e01b60208083019182526001600160a01b0394851660248401529490931660448201526064808201959095529384529260009190616239608482615d32565b519082855af11561628c576000513d61628357506001600160a01b0381163b155b6162615750565b604051635274afe760e01b81526001600160a01b039091166004820152602490fd5b6001141561625a565b6040513d6000823e3d90fd5b60ff600254166162a457565b60405163d93c066560e01b8152600490fd5b6002600154146162c7576002600155565b604051633ee5aeb560e01b8152600490fd5b156162e057565b60405162461bcd60e51b815260206004820152601660248201527527b83a34b7b739a1b7b9329d103737ba10313abcb2b960511b6044820152606490fd5b818102929181159184041417156160ec57565b811561633b570490565b634e487b7160e01b600052601260045260246000fd5b919082018092116160ec57565b1561636557565b60405162461bcd60e51b815260206004820152601d60248201527f4f7074696f6e73436f72653a20696e76616c6964206f726465722069640000006044820152606490fd5b600a6101a09183518155602084015160018201556002810160018060a01b0360408601511681549060608701516163e081615be2565b6163e981615be2565b60ff60a01b9060a01b16916affffffffffffffffffffff60a81b16171790556080840151600382015560a0840151600482015560c0840151600582015560e084015160068201556164876007820161644f61010087015161644981615be2565b82616193565b610120860151815461ff00191660089190911b61ff0016178155610140860151815462ff0000191660109190911b62ff000016179055565b61016084015160088201556101808401516009820155019101516164aa81615c02565b61616081615c02565b156164ba57565b60405162461bcd60e51b815260206004820152601760248201527f4f7074696f6e73436f72653a206e6f742073656c6c65720000000000000000006044820152606490fd5b1561650657565b60405162461bcd60e51b815260206004820152601b60248201527f4f7074696f6e73436f72653a206f72646572206e6f74206c69766500000000006044820152606490fd5b919082039182116160ec57565b1561655f57565b60405162461bcd60e51b815260206004820152601b60248201527f4f7074696f6e73436f72653a206e6f7420617574686f72697a656400000000006044820152606490fd5b908151811015615b91570160200190565b156165bc57565b60405162461bcd60e51b815260206004820152601e60248201527f4f7074696f6e73436f72653a206f72646572206e6f74206d61746368656400006044820152606490fd5b1561660857565b60405162461bcd60e51b815260206004820152601a60248201527f4f7074696f6e73436f72653a20696e76616c69642070726963650000000000006044820152606490fd5b6001600160401b038111615ce457601f01601f191660200190565b801561670a5780816000925b6166f457506166828261664d565b916166906040519384615d32565b80835281601f196166a08361664d565b013660208601375b6166b157505090565b60001981019081116160ec578091600a91603083830681018091116160ec5760f81b6001600160f81b03191660001a906166eb90866165a4565b530490816166a8565b9091616701600a916160dd565b92910480616674565b50604051604081018181106001600160401b03821117615ce45760405260018152600360fc1b60208201529056fece3a31baf9956e086200ee7044a75c2befbd050912798b7bcd25d05831ab9592a26469706673582212209066e6b8b342b8890e644ddd12d25a7429e41de227ff935b208fc2171732ebfa64736f6c63430008140033",
  "linkReferences": {},
  "deployedLinkReferences": {}
}