{
  "_format": "hh-sol-artifact-1",
  "contractName": "OptionsCore",
  "sourceName": "contracts/core/OptionsCore.sol",
  "abi": [
    {
      "inputs": [
        {
          "internalType": "address",
          "name": "_config",
          "type": "address"
        },
        {
          "internalType": "address",
          "name": "_vaultManager",
          "type": "address"
        },
        {
          "internalType": "address",
          "name": "_usdt",
          "type": "address"
        },
        {
          "internalType": "address",
          "name": "_admin",
          "type": "address"
        }
      ],
      "stateMutability": "nonpayable",
      "type": "constructor"
    },
    {
      "inputs": [],
      "name": "AccessControlBadConfirmation",
      "type": "error"
    },
    {
      "inputs": [
        {
          "internalType": "address",
          "name": "account",
          "type": "address"
        },
        {
          "internalType": "bytes32",
          "name": "neededRole",
          "type": "bytes32"
        }
      ],
      "name": "AccessControlUnauthorizedAccount",
      "type": "error"
    },
    {
      "inputs": [],
      "name": "EnforcedPause",
      "type": "error"
    },
    {
      "inputs": [],
      "name": "ExpectedPause",
      "type": "error"
    },
    {
      "inputs": [],
      "name": "ReentrancyGuardReentrantCall",
      "type": "error"
    },
    {
      "inputs": [
        {
          "internalType": "address",
          "name": "token",
          "type": "address"
        }
      ],
      "name": "SafeERC20FailedOperation",
      "type": "error"
    },
    {
      "anonymous": false,
      "inputs": [
        {
          "indexed": true,
          "internalType": "uint256",
          "name": "orderId",
          "type": "uint256"
        },
        {
          "indexed": false,
          "internalType": "string",
          "name": "underlyingCode",
          "type": "string"
        },
        {
          "indexed": false,
          "internalType": "string",
          "name": "market",
          "type": "string"
        },
        {
          "indexed": false,
          "internalType": "string",
          "name": "country",
          "type": "string"
        },
        {
          "indexed": false,
          "internalType": "enum FeedType",
          "name": "feedType",
          "type": "uint8"
        },
        {
          "indexed": false,
          "internalType": "enum FeedTier",
          "name": "tier",
          "type": "uint8"
        },
        {
          "indexed": true,
          "internalType": "address",
          "name": "requester",
          "type": "address"
        },
        {
          "indexed": false,
          "internalType": "uint256",
          "name": "notionalAmount",
          "type": "uint256"
        },
        {
          "indexed": false,
          "internalType": "uint256",
          "name": "timestamp",
          "type": "uint256"
        }
      ],
      "name": "FeedRequestEmitted",
      "type": "event"
    },
    {
      "anonymous": false,
      "inputs": [
        {
          "indexed": true,
          "internalType": "uint256",
          "name": "orderId",
          "type": "uint256"
        },
        {
          "indexed": false,
          "internalType": "string",
          "name": "reason",
          "type": "string"
        },
        {
          "indexed": false,
          "internalType": "uint256",
          "name": "timestamp",
          "type": "uint256"
        }
      ],
      "name": "OrderCancelled",
      "type": "event"
    },
    {
      "anonymous": false,
      "inputs": [
        {
          "indexed": true,
          "internalType": "uint256",
          "name": "orderId",
          "type": "uint256"
        },
        {
          "indexed": true,
          "internalType": "address",
          "name": "creator",
          "type": "address"
        },
        {
          "indexed": false,
          "internalType": "bool",
          "name": "isBuyerOrder",
          "type": "bool"
        },
        {
          "indexed": false,
          "internalType": "uint256",
          "name": "timestamp",
          "type": "uint256"
        }
      ],
      "name": "OrderCreated",
      "type": "event"
    },
    {
      "anonymous": false,
      "inputs": [
        {
          "indexed": true,
          "internalType": "uint256",
          "name": "orderId",
          "type": "uint256"
        },
        {
          "indexed": true,
          "internalType": "address",
          "name": "buyer",
          "type": "address"
        },
        {
          "indexed": true,
          "internalType": "address",
          "name": "seller",
          "type": "address"
        },
        {
          "indexed": false,
          "internalType": "uint256",
          "name": "timestamp",
          "type": "uint256"
        }
      ],
      "name": "OrderMatched",
      "type": "event"
    },
    {
      "anonymous": false,
      "inputs": [
        {
          "indexed": true,
          "internalType": "uint256",
          "name": "orderId",
          "type": "uint256"
        },
        {
          "indexed": false,
          "internalType": "enum OrderStatus",
          "name": "oldStatus",
          "type": "uint8"
        },
        {
          "indexed": false,
          "internalType": "enum OrderStatus",
          "name": "newStatus",
          "type": "uint8"
        },
        {
          "indexed": false,
          "internalType": "string",
          "name": "reason",
          "type": "string"
        },
        {
          "indexed": false,
          "internalType": "uint256",
          "name": "timestamp",
          "type": "uint256"
        }
      ],
      "name": "OrderStatusChanged",
      "type": "event"
    },
    {
      "anonymous": false,
      "inputs": [
        {
          "indexed": false,
          "internalType": "address",
          "name": "account",
          "type": "address"
        }
      ],
      "name": "Paused",
      "type": "event"
    },
    {
      "anonymous": false,
      "inputs": [
        {
          "indexed": true,
          "internalType": "uint256",
          "name": "orderId",
          "type": "uint256"
        },
        {
          "indexed": true,
          "internalType": "uint256",
          "name": "quoteId",
          "type": "uint256"
        },
        {
          "indexed": true,
          "internalType": "address",
          "name": "seller",
          "type": "address"
        },
        {
          "indexed": false,
          "internalType": "uint256",
          "name": "premiumRate",
          "type": "uint256"
        },
        {
          "indexed": false,
          "internalType": "uint256",
          "name": "timestamp",
          "type": "uint256"
        }
      ],
      "name": "QuoteSubmitted",
      "type": "event"
    },
    {
      "anonymous": false,
      "inputs": [
        {
          "indexed": true,
          "internalType": "bytes32",
          "name": "role",
          "type": "bytes32"
        },
        {
          "indexed": true,
          "internalType": "bytes32",
          "name": "previousAdminRole",
          "type": "bytes32"
        },
        {
          "indexed": true,
          "internalType": "bytes32",
          "name": "newAdminRole",
          "type": "bytes32"
        }
      ],
      "name": "RoleAdminChanged",
      "type": "event"
    },
    {
      "anonymous": false,
      "inputs": [
        {
          "indexed": true,
          "internalType": "bytes32",
          "name": "role",
          "type": "bytes32"
        },
        {
          "indexed": true,
          "internalType": "address",
          "name": "account",
          "type": "address"
        },
        {
          "indexed": true,
          "internalType": "address",
          "name": "sender",
          "type": "address"
        }
      ],
      "name": "RoleGranted",
      "type": "event"
    },
    {
      "anonymous": false,
      "inputs": [
        {
          "indexed": true,
          "internalType": "bytes32",
          "name": "role",
          "type": "bytes32"
        },
        {
          "indexed": true,
          "internalType": "address",
          "name": "account",
          "type": "address"
        },
        {
          "indexed": true,
          "internalType": "address",
          "name": "sender",
          "type": "address"
        }
      ],
      "name": "RoleRevoked",
      "type": "event"
    },
    {
      "anonymous": false,
      "inputs": [
        {
          "indexed": false,
          "internalType": "address",
          "name": "account",
          "type": "address"
        }
      ],
      "name": "Unpaused",
      "type": "event"
    },
    {
      "inputs": [],
      "name": "DEFAULT_ADMIN_ROLE",
      "outputs": [
        {
          "internalType": "bytes32",
          "name": "",
          "type": "bytes32"
        }
      ],
      "stateMutability": "view",
      "type": "function"
    },
    {
      "inputs": [],
      "name": "FEED_PROTOCOL_ROLE",
      "outputs": [
        {
          "internalType": "bytes32",
          "name": "",
          "type": "bytes32"
        }
      ],
      "stateMutability": "view",
      "type": "function"
    },
    {
      "inputs": [],
      "name": "SETTLEMENT_ROLE",
      "outputs": [
        {
          "internalType": "bytes32",
          "name": "",
          "type": "bytes32"
        }
      ],
      "stateMutability": "view",
      "type": "function"
    },
    {
      "inputs": [
        {
          "internalType": "uint256",
          "name": "quoteId",
          "type": "uint256"
        }
      ],
      "name": "acceptQuote",
      "outputs": [],
      "stateMutability": "nonpayable",
      "type": "function"
    },
    {
      "inputs": [
        {
          "internalType": "uint256",
          "name": "orderId",
          "type": "uint256"
        }
      ],
      "name": "acceptSellerOrder",
      "outputs": [],
      "stateMutability": "nonpayable",
      "type": "function"
    },
    {
      "inputs": [
        {
          "internalType": "address",
          "name": "",
          "type": "address"
        },
        {
          "internalType": "uint256",
          "name": "",
          "type": "uint256"
        }
      ],
      "name": "buyerOrders",
      "outputs": [
        {
          "internalType": "uint256",
          "name": "",
          "type": "uint256"
        }
      ],
      "stateMutability": "view",
      "type": "function"
    },
    {
      "inputs": [
        {
          "internalType": "uint256",
          "name": "orderId",
          "type": "uint256"
        }
      ],
      "name": "cancelRFQ",
      "outputs": [],
      "stateMutability": "nonpayable",
      "type": "function"
    },
    {
      "inputs": [],
      "name": "config",
      "outputs": [
        {
          "internalType": "contract Config",
          "name": "",
          "type": "address"
        }
      ],
      "stateMutability": "view",
      "type": "function"
    },
    {
      "inputs": [
        {
          "internalType": "string",
          "name": "underlyingName",
          "type": "string"
        },
        {
          "internalType": "string",
          "name": "underlyingCode",
          "type": "string"
        },
        {
          "internalType": "string",
          "name": "market",
          "type": "string"
        },
        {
          "internalType": "string",
          "name": "country",
          "type": "string"
        },
        {
          "internalType": "string",
          "name": "refPrice",
          "type": "string"
        },
        {
          "internalType": "enum Direction",
          "name": "direction",
          "type": "uint8"
        },
        {
          "internalType": "uint256",
          "name": "notionalUSDT",
          "type": "uint256"
        },
        {
          "internalType": "uint256",
          "name": "expiryTimestamp",
          "type": "uint256"
        },
        {
          "internalType": "uint256",
          "name": "maxPremiumRate",
          "type": "uint256"
        },
        {
          "internalType": "uint256",
          "name": "minMarginRate",
          "type": "uint256"
        },
        {
          "internalType": "enum SellerType",
          "name": "acceptedSellerType",
          "type": "uint8"
        },
        {
          "internalType": "address",
          "name": "designatedSeller",
          "type": "address"
        },
        {
          "internalType": "uint256",
          "name": "arbitrationWindow",
          "type": "uint256"
        },
        {
          "internalType": "uint256",
          "name": "marginCallDeadline",
          "type": "uint256"
        },
        {
          "internalType": "bool",
          "name": "dividendAdjustment",
          "type": "bool"
        },
        {
          "internalType": "enum LiquidationRule",
          "name": "liquidationRule",
          "type": "uint8"
        },
        {
          "internalType": "uint8",
          "name": "consecutiveDays",
          "type": "uint8"
        },
        {
          "internalType": "uint8",
          "name": "dailyLimitPercent",
          "type": "uint8"
        },
        {
          "internalType": "enum FeedRule",
          "name": "feedRule",
          "type": "uint8"
        }
      ],
      "name": "createBuyerRFQ",
      "outputs": [
        {
          "internalType": "uint256",
          "name": "orderId",
          "type": "uint256"
        }
      ],
      "stateMutability": "nonpayable",
      "type": "function"
    },
    {
      "inputs": [
        {
          "internalType": "string",
          "name": "underlyingName",
          "type": "string"
        },
        {
          "internalType": "string",
          "name": "underlyingCode",
          "type": "string"
        },
        {
          "internalType": "string",
          "name": "market",
          "type": "string"
        },
        {
          "internalType": "string",
          "name": "country",
          "type": "string"
        },
        {
          "internalType": "string",
          "name": "refPrice",
          "type": "string"
        },
        {
          "internalType": "enum Direction",
          "name": "direction",
          "type": "uint8"
        },
        {
          "internalType": "uint256",
          "name": "notionalUSDT",
          "type": "uint256"
        },
        {
          "internalType": "uint256",
          "name": "expiryTimestamp",
          "type": "uint256"
        },
        {
          "internalType": "uint256",
          "name": "premiumRate",
          "type": "uint256"
        },
        {
          "internalType": "uint256",
          "name": "marginAmount",
          "type": "uint256"
        },
        {
          "internalType": "enum LiquidationRule",
          "name": "liquidationRule",
          "type": "uint8"
        },
        {
          "internalType": "uint8",
          "name": "consecutiveDays",
          "type": "uint8"
        },
        {
          "internalType": "uint8",
          "name": "dailyLimitPercent",
          "type": "uint8"
        },
        {
          "internalType": "uint256",
          "name": "arbitrationWindow",
          "type": "uint256"
        },
        {
          "internalType": "bool",
          "name": "dividendAdjustment",
          "type": "bool"
        },
        {
          "internalType": "uint8",
          "name": "exerciseDelay",
          "type": "uint8"
        },
        {
          "internalType": "enum FeedRule",
          "name": "feedRule",
          "type": "uint8"
        }
      ],
      "name": "createSellerOrder",
      "outputs": [
        {
          "internalType": "uint256",
          "name": "orderId",
          "type": "uint256"
        }
      ],
      "stateMutability": "nonpayable",
      "type": "function"
    },
    {
      "inputs": [
        {
          "internalType": "address",
          "name": "buyer",
          "type": "address"
        }
      ],
      "name": "getBuyerOrders",
      "outputs": [
        {
          "internalType": "uint256[]",
          "name": "",
          "type": "uint256[]"
        }
      ],
      "stateMutability": "view",
      "type": "function"
    },
    {
      "inputs": [
        {
          "internalType": "uint256",
          "name": "orderId",
          "type": "uint256"
        }
      ],
      "name": "getOrder",
      "outputs": [
        {
          "components": [
            {
              "internalType": "uint256",
              "name": "orderId",
              "type": "uint256"
            },
            {
              "internalType": "address",
              "name": "buyer",
              "type": "address"
            },
            {
              "internalType": "address",
              "name": "seller",
              "type": "address"
            },
            {
              "internalType": "string",
              "name": "underlyingName",
              "type": "string"
            },
            {
              "internalType": "string",
              "name": "underlyingCode",
              "type": "string"
            },
            {
              "internalType": "string",
              "name": "market",
              "type": "string"
            },
            {
              "internalType": "string",
              "name": "country",
              "type": "string"
            },
            {
              "internalType": "string",
              "name": "refPrice",
              "type": "string"
            },
            {
              "internalType": "enum Direction",
              "name": "direction",
              "type": "uint8"
            },
            {
              "internalType": "uint256",
              "name": "notionalUSDT",
              "type": "uint256"
            },
            {
              "internalType": "uint256",
              "name": "strikePrice",
              "type": "uint256"
            },
            {
              "internalType": "uint256",
              "name": "expiryTimestamp",
              "type": "uint256"
            },
            {
              "internalType": "uint256",
              "name": "premiumRate",
              "type": "uint256"
            },
            {
              "internalType": "uint256",
              "name": "premiumAmount",
              "type": "uint256"
            },
            {
              "internalType": "uint256",
              "name": "initialMargin",
              "type": "uint256"
            },
            {
              "internalType": "uint256",
              "name": "currentMargin",
              "type": "uint256"
            },
            {
              "internalType": "uint256",
              "name": "minMarginRate",
              "type": "uint256"
            },
            {
              "internalType": "uint256",
              "name": "maxPremiumRate",
              "type": "uint256"
            },
            {
              "internalType": "enum LiquidationRule",
              "name": "liquidationRule",
              "type": "uint8"
            },
            {
              "internalType": "uint8",
              "name": "consecutiveDays",
              "type": "uint8"
            },
            {
              "internalType": "uint8",
              "name": "dailyLimitPercent",
              "type": "uint8"
            },
            {
              "internalType": "uint8",
              "name": "exerciseDelay",
              "type": "uint8"
            },
            {
              "internalType": "enum SellerType",
              "name": "sellerType",
              "type": "uint8"
            },
            {
              "internalType": "address",
              "name": "designatedSeller",
              "type": "address"
            },
            {
              "internalType": "uint256",
              "name": "arbitrationWindow",
              "type": "uint256"
            },
            {
              "internalType": "uint256",
              "name": "marginCallDeadline",
              "type": "uint256"
            },
            {
              "internalType": "bool",
              "name": "dividendAdjustment",
              "type": "bool"
            },
            {
              "internalType": "enum FeedRule",
              "name": "feedRule",
              "type": "uint8"
            },
            {
              "internalType": "enum OrderStatus",
              "name": "status",
              "type": "uint8"
            },
            {
              "internalType": "uint256",
              "name": "createdAt",
              "type": "uint256"
            },
            {
              "internalType": "uint256",
              "name": "matchedAt",
              "type": "uint256"
            },
            {
              "internalType": "uint256",
              "name": "settledAt",
              "type": "uint256"
            },
            {
              "internalType": "uint256",
              "name": "lastFeedPrice",
              "type": "uint256"
            },
            {
              "internalType": "uint256",
              "name": "dividendAmount",
              "type": "uint256"
            }
          ],
          "internalType": "struct Order",
          "name": "",
          "type": "tuple"
        }
      ],
      "stateMutability": "view",
      "type": "function"
    },
    {
      "inputs": [
        {
          "internalType": "string",
          "name": "country",
          "type": "string"
        }
      ],
      "name": "getOrdersByCountry",
      "outputs": [
        {
          "internalType": "uint256[]",
          "name": "",
          "type": "uint256[]"
        }
      ],
      "stateMutability": "view",
      "type": "function"
    },
    {
      "inputs": [
        {
          "internalType": "string",
          "name": "market",
          "type": "string"
        }
      ],
      "name": "getOrdersByMarket",
      "outputs": [
        {
          "internalType": "uint256[]",
          "name": "",
          "type": "uint256[]"
        }
      ],
      "stateMutability": "view",
      "type": "function"
    },
    {
      "inputs": [
        {
          "internalType": "uint256",
          "name": "orderId",
          "type": "uint256"
        }
      ],
      "name": "getQuotes",
      "outputs": [
        {
          "components": [
            {
              "internalType": "uint256",
              "name": "quoteId",
              "type": "uint256"
            },
            {
              "internalType": "uint256",
              "name": "orderId",
              "type": "uint256"
            },
            {
              "internalType": "address",
              "name": "seller",
              "type": "address"
            },
            {
              "internalType": "enum SellerType",
              "name": "sellerType",
              "type": "uint8"
            },
            {
              "internalType": "uint256",
              "name": "premiumRate",
              "type": "uint256"
            },
            {
              "internalType": "uint256",
              "name": "premiumAmount",
              "type": "uint256"
            },
            {
              "internalType": "uint256",
              "name": "marginRate",
              "type": "uint256"
            },
            {
              "internalType": "uint256",
              "name": "marginAmount",
              "type": "uint256"
            },
            {
              "internalType": "enum LiquidationRule",
              "name": "liquidationRule",
              "type": "uint8"
            },
            {
              "internalType": "uint8",
              "name": "consecutiveDays",
              "type": "uint8"
            },
            {
              "internalType": "uint8",
              "name": "dailyLimitPercent",
              "type": "uint8"
            },
            {
              "internalType": "uint256",
              "name": "createdAt",
              "type": "uint256"
            },
            {
              "internalType": "uint256",
              "name": "expiresAt",
              "type": "uint256"
            },
            {
              "internalType": "enum QuoteStatus",
              "name": "status",
              "type": "uint8"
            }
          ],
          "internalType": "struct Quote[]",
          "name": "",
          "type": "tuple[]"
        }
      ],
      "stateMutability": "view",
      "type": "function"
    },
    {
      "inputs": [
        {
          "internalType": "bytes32",
          "name": "role",
          "type": "bytes32"
        }
      ],
      "name": "getRoleAdmin",
      "outputs": [
        {
          "internalType": "bytes32",
          "name": "",
          "type": "bytes32"
        }
      ],
      "stateMutability": "view",
      "type": "function"
    },
    {
      "inputs": [
        {
          "internalType": "address",
          "name": "seller",
          "type": "address"
        }
      ],
      "name": "getSellerOrders",
      "outputs": [
        {
          "internalType": "uint256[]",
          "name": "",
          "type": "uint256[]"
        }
      ],
      "stateMutability": "view",
      "type": "function"
    },
    {
      "inputs": [
        {
          "internalType": "bytes32",
          "name": "role",
          "type": "bytes32"
        },
        {
          "internalType": "address",
          "name": "account",
          "type": "address"
        }
      ],
      "name": "grantRole",
      "outputs": [],
      "stateMutability": "nonpayable",
      "type": "function"
    },
    {
      "inputs": [
        {
          "internalType": "bytes32",
          "name": "role",
          "type": "bytes32"
        },
        {
          "internalType": "address",
          "name": "account",
          "type": "address"
        }
      ],
      "name": "hasRole",
      "outputs": [
        {
          "internalType": "bool",
          "name": "",
          "type": "bool"
        }
      ],
      "stateMutability": "view",
      "type": "function"
    },
    {
      "inputs": [],
      "name": "nextOrderId",
      "outputs": [
        {
          "internalType": "uint256",
          "name": "",
          "type": "uint256"
        }
      ],
      "stateMutability": "view",
      "type": "function"
    },
    {
      "inputs": [],
      "name": "nextQuoteId",
      "outputs": [
        {
          "internalType": "uint256",
          "name": "",
          "type": "uint256"
        }
      ],
      "stateMutability": "view",
      "type": "function"
    },
    {
      "inputs": [
        {
          "internalType": "uint256",
          "name": "",
          "type": "uint256"
        },
        {
          "internalType": "uint256",
          "name": "",
          "type": "uint256"
        }
      ],
      "name": "orderQuotes",
      "outputs": [
        {
          "internalType": "uint256",
          "name": "quoteId",
          "type": "uint256"
        },
        {
          "internalType": "uint256",
          "name": "orderId",
          "type": "uint256"
        },
        {
          "internalType": "address",
          "name": "seller",
          "type": "address"
        },
        {
          "internalType": "enum SellerType",
          "name": "sellerType",
          "type": "uint8"
        },
        {
          "internalType": "uint256",
          "name": "premiumRate",
          "type": "uint256"
        },
        {
          "internalType": "uint256",
          "name": "premiumAmount",
          "type": "uint256"
        },
        {
          "internalType": "uint256",
          "name": "marginRate",
          "type": "uint256"
        },
        {
          "internalType": "uint256",
          "name": "marginAmount",
          "type": "uint256"
        },
        {
          "internalType": "enum LiquidationRule",
          "name": "liquidationRule",
          "type": "uint8"
        },
        {
          "internalType": "uint8",
          "name": "consecutiveDays",
          "type": "uint8"
        },
        {
          "internalType": "uint8",
          "name": "dailyLimitPercent",
          "type": "uint8"
        },
        {
          "internalType": "uint256",
          "name": "createdAt",
          "type": "uint256"
        },
        {
          "internalType": "uint256",
          "name": "expiresAt",
          "type": "uint256"
        },
        {
          "internalType": "enum QuoteStatus",
          "name": "status",
          "type": "uint8"
        }
      ],
      "stateMutability": "view",
      "type": "function"
    },
    {
      "inputs": [
        {
          "internalType": "uint256",
          "name": "",
          "type": "uint256"
        }
      ],
      "name": "orders",
      "outputs": [
        {
          "internalType": "uint256",
          "name": "orderId",
          "type": "uint256"
        },
        {
          "internalType": "address",
          "name": "buyer",
          "type": "address"
        },
        {
          "internalType": "address",
          "name": "seller",
          "type": "address"
        },
        {
          "internalType": "string",
          "name": "underlyingName",
          "type": "string"
        },
        {
          "internalType": "string",
          "name": "underlyingCode",
          "type": "string"
        },
        {
          "internalType": "string",
          "name": "market",
          "type": "string"
        },
        {
          "internalType": "string",
          "name": "country",
          "type": "string"
        },
        {
          "internalType": "string",
          "name": "refPrice",
          "type": "string"
        },
        {
          "internalType": "enum Direction",
          "name": "direction",
          "type": "uint8"
        },
        {
          "internalType": "uint256",
          "name": "notionalUSDT",
          "type": "uint256"
        },
        {
          "internalType": "uint256",
          "name": "strikePrice",
          "type": "uint256"
        },
        {
          "internalType": "uint256",
          "name": "expiryTimestamp",
          "type": "uint256"
        },
        {
          "internalType": "uint256",
          "name": "premiumRate",
          "type": "uint256"
        },
        {
          "internalType": "uint256",
          "name": "premiumAmount",
          "type": "uint256"
        },
        {
          "internalType": "uint256",
          "name": "initialMargin",
          "type": "uint256"
        },
        {
          "internalType": "uint256",
          "name": "currentMargin",
          "type": "uint256"
        },
        {
          "internalType": "uint256",
          "name": "minMarginRate",
          "type": "uint256"
        },
        {
          "internalType": "uint256",
          "name": "maxPremiumRate",
          "type": "uint256"
        },
        {
          "internalType": "enum LiquidationRule",
          "name": "liquidationRule",
          "type": "uint8"
        },
        {
          "internalType": "uint8",
          "name": "consecutiveDays",
          "type": "uint8"
        },
        {
          "internalType": "uint8",
          "name": "dailyLimitPercent",
          "type": "uint8"
        },
        {
          "internalType": "uint8",
          "name": "exerciseDelay",
          "type": "uint8"
        },
        {
          "internalType": "enum SellerType",
          "name": "sellerType",
          "type": "uint8"
        },
        {
          "internalType": "address",
          "name": "designatedSeller",
          "type": "address"
        },
        {
          "internalType": "uint256",
          "name": "arbitrationWindow",
          "type": "uint256"
        },
        {
          "internalType": "uint256",
          "name": "marginCallDeadline",
          "type": "uint256"
        },
        {
          "internalType": "bool",
          "name": "dividendAdjustment",
          "type": "bool"
        },
        {
          "internalType": "enum FeedRule",
          "name": "feedRule",
          "type": "uint8"
        },
        {
          "internalType": "enum OrderStatus",
          "name": "status",
          "type": "uint8"
        },
        {
          "internalType": "uint256",
          "name": "createdAt",
          "type": "uint256"
        },
        {
          "internalType": "uint256",
          "name": "matchedAt",
          "type": "uint256"
        },
        {
          "internalType": "uint256",
          "name": "settledAt",
          "type": "uint256"
        },
        {
          "internalType": "uint256",
          "name": "lastFeedPrice",
          "type": "uint256"
        },
        {
          "internalType": "uint256",
          "name": "dividendAmount",
          "type": "uint256"
        }
      ],
      "stateMutability": "view",
      "type": "function"
    },
    {
      "inputs": [],
      "name": "pause",
      "outputs": [],
      "stateMutability": "nonpayable",
      "type": "function"
    },
    {
      "inputs": [],
      "name": "paused",
      "outputs": [
        {
          "internalType": "bool",
          "name": "",
          "type": "bool"
        }
      ],
      "stateMutability": "view",
      "type": "function"
    },
    {
      "inputs": [
        {
          "internalType": "uint256",
          "name": "orderId",
          "type": "uint256"
        },
        {
          "internalType": "enum FeedType",
          "name": "feedType",
          "type": "uint8"
        },
        {
          "internalType": "uint256",
          "name": "finalPrice",
          "type": "uint256"
        }
      ],
      "name": "processFeedCallback",
      "outputs": [],
      "stateMutability": "nonpayable",
      "type": "function"
    },
    {
      "inputs": [
        {
          "internalType": "uint256",
          "name": "orderId",
          "type": "uint256"
        },
        {
          "internalType": "uint256",
          "name": "finalPrice",
          "type": "uint256"
        }
      ],
      "name": "processFinalFeedResult",
      "outputs": [],
      "stateMutability": "nonpayable",
      "type": "function"
    },
    {
      "inputs": [
        {
          "internalType": "uint256",
          "name": "orderId",
          "type": "uint256"
        },
        {
          "internalType": "uint256",
          "name": "initialPrice",
          "type": "uint256"
        }
      ],
      "name": "processInitialFeedResult",
      "outputs": [],
      "stateMutability": "nonpayable",
      "type": "function"
    },
    {
      "inputs": [
        {
          "internalType": "uint256",
          "name": "",
          "type": "uint256"
        }
      ],
      "name": "quotes",
      "outputs": [
        {
          "internalType": "uint256",
          "name": "quoteId",
          "type": "uint256"
        },
        {
          "internalType": "uint256",
          "name": "orderId",
          "type": "uint256"
        },
        {
          "internalType": "address",
          "name": "seller",
          "type": "address"
        },
        {
          "internalType": "enum SellerType",
          "name": "sellerType",
          "type": "uint8"
        },
        {
          "internalType": "uint256",
          "name": "premiumRate",
          "type": "uint256"
        },
        {
          "internalType": "uint256",
          "name": "premiumAmount",
          "type": "uint256"
        },
        {
          "internalType": "uint256",
          "name": "marginRate",
          "type": "uint256"
        },
        {
          "internalType": "uint256",
          "name": "marginAmount",
          "type": "uint256"
        },
        {
          "internalType": "enum LiquidationRule",
          "name": "liquidationRule",
          "type": "uint8"
        },
        {
          "internalType": "uint8",
          "name": "consecutiveDays",
          "type": "uint8"
        },
        {
          "internalType": "uint8",
          "name": "dailyLimitPercent",
          "type": "uint8"
        },
        {
          "internalType": "uint256",
          "name": "createdAt",
          "type": "uint256"
        },
        {
          "internalType": "uint256",
          "name": "expiresAt",
          "type": "uint256"
        },
        {
          "internalType": "enum QuoteStatus",
          "name": "status",
          "type": "uint8"
        }
      ],
      "stateMutability": "view",
      "type": "function"
    },
    {
      "inputs": [
        {
          "internalType": "bytes32",
          "name": "role",
          "type": "bytes32"
        },
        {
          "internalType": "address",
          "name": "callerConfirmation",
          "type": "address"
        }
      ],
      "name": "renounceRole",
      "outputs": [],
      "stateMutability": "nonpayable",
      "type": "function"
    },
    {
      "inputs": [
        {
          "internalType": "uint256",
          "name": "orderId",
          "type": "uint256"
        },
        {
          "internalType": "enum FeedTier",
          "name": "tier",
          "type": "uint8"
        }
      ],
      "name": "requestFeed",
      "outputs": [],
      "stateMutability": "payable",
      "type": "function"
    },
    {
      "inputs": [
        {
          "internalType": "bytes32",
          "name": "role",
          "type": "bytes32"
        },
        {
          "internalType": "address",
          "name": "account",
          "type": "address"
        }
      ],
      "name": "revokeRole",
      "outputs": [],
      "stateMutability": "nonpayable",
      "type": "function"
    },
    {
      "inputs": [
        {
          "internalType": "address",
          "name": "",
          "type": "address"
        },
        {
          "internalType": "uint256",
          "name": "",
          "type": "uint256"
        }
      ],
      "name": "sellerOrders",
      "outputs": [
        {
          "internalType": "uint256",
          "name": "",
          "type": "uint256"
        }
      ],
      "stateMutability": "view",
      "type": "function"
    },
    {
      "inputs": [
        {
          "internalType": "address",
          "name": "_config",
          "type": "address"
        }
      ],
      "name": "setConfig",
      "outputs": [],
      "stateMutability": "nonpayable",
      "type": "function"
    },
    {
      "inputs": [
        {
          "internalType": "address",
          "name": "_vaultManager",
          "type": "address"
        }
      ],
      "name": "setVaultManager",
      "outputs": [],
      "stateMutability": "nonpayable",
      "type": "function"
    },
    {
      "inputs": [
        {
          "internalType": "uint256",
          "name": "orderId",
          "type": "uint256"
        },
        {
          "internalType": "uint256",
          "name": "premiumRate",
          "type": "uint256"
        },
        {
          "internalType": "uint256",
          "name": "marginRate",
          "type": "uint256"
        },
        {
          "internalType": "enum LiquidationRule",
          "name": "liquidationRule",
          "type": "uint8"
        },
        {
          "internalType": "uint8",
          "name": "consecutiveDays",
          "type": "uint8"
        },
        {
          "internalType": "uint8",
          "name": "dailyLimitPercent",
          "type": "uint8"
        }
      ],
      "name": "submitQuote",
      "outputs": [
        {
          "internalType": "uint256",
          "name": "quoteId",
          "type": "uint256"
        }
      ],
      "stateMutability": "nonpayable",
      "type": "function"
    },
    {
      "inputs": [
        {
          "internalType": "bytes4",
          "name": "interfaceId",
          "type": "bytes4"
        }
      ],
      "name": "supportsInterface",
      "outputs": [
        {
          "internalType": "bool",
          "name": "",
          "type": "bool"
        }
      ],
      "stateMutability": "view",
      "type": "function"
    },
    {
      "inputs": [],
      "name": "unpause",
      "outputs": [],
      "stateMutability": "nonpayable",
      "type": "function"
    },
    {
      "inputs": [
        {
          "internalType": "uint256",
          "name": "orderId",
          "type": "uint256"
        },
        {
          "internalType": "uint256",
          "name": "amount",
          "type": "uint256"
        }
      ],
      "name": "updateOrderDividend",
      "outputs": [],
      "stateMutability": "nonpayable",
      "type": "function"
    },
    {
      "inputs": [
        {
          "internalType": "uint256",
          "name": "orderId",
          "type": "uint256"
        },
        {
          "internalType": "uint256",
          "name": "newMargin",
          "type": "uint256"
        }
      ],
      "name": "updateOrderMargin",
      "outputs": [],
      "stateMutability": "nonpayable",
      "type": "function"
    },
    {
      "inputs": [
        {
          "internalType": "uint256",
          "name": "orderId",
          "type": "uint256"
        },
        {
          "internalType": "uint256",
          "name": "deadline",
          "type": "uint256"
        }
      ],
      "name": "updateOrderMarginCallDeadline",
      "outputs": [],
      "stateMutability": "nonpayable",
      "type": "function"
    },
    {
      "inputs": [
        {
          "internalType": "uint256",
          "name": "orderId",
          "type": "uint256"
        },
        {
          "internalType": "uint256",
          "name": "newPrice",
          "type": "uint256"
        }
      ],
      "name": "updateOrderPrice",
      "outputs": [],
      "stateMutability": "nonpayable",
      "type": "function"
    },
    {
      "inputs": [
        {
          "internalType": "uint256",
          "name": "orderId",
          "type": "uint256"
        },
        {
          "internalType": "uint256",
          "name": "timestamp",
          "type": "uint256"
        }
      ],
      "name": "updateOrderSettledAt",
      "outputs": [],
      "stateMutability": "nonpayable",
      "type": "function"
    },
    {
      "inputs": [
        {
          "internalType": "uint256",
          "name": "orderId",
          "type": "uint256"
        },
        {
          "internalType": "enum OrderStatus",
          "name": "newStatus",
          "type": "uint8"
        }
      ],
      "name": "updateOrderStatus",
      "outputs": [],
      "stateMutability": "nonpayable",
      "type": "function"
    },
    {
      "inputs": [],
      "name": "usdt",
      "outputs": [
        {
          "internalType": "contract IERC20",
          "name": "",
          "type": "address"
        }
      ],
      "stateMutability": "view",
      "type": "function"
    },
    {
      "inputs": [],
      "name": "vaultManager",
      "outputs": [
        {
          "internalType": "contract VaultManager",
          "name": "",
          "type": "address"
        }
      ],
      "stateMutability": "view",
      "type": "function"
    }
  ],
  "bytecode": "0x608034620000f557601f620048b738819003918201601f19168301916001600160401b03831184841017620000fa57808492608094604052833981010312620000f5578062000052620000e49262000110565b90620000616020820162000110565b906200007e6060620000766040840162000110565b920162000110565b6001808055600581905560065560028054610100600160a81b03191660089590951b610100600160a81b031694909417909355600380546001600160a01b03199081166001600160a01b0394851617909155600480549091169190921617905562000125565b506040516147009081620001b78239f35b600080fd5b634e487b7160e01b600052604160045260246000fd5b51906001600160a01b0382168203620000f557565b6001600160a01b031660008181527fad3228b676f7d3cd4284a5443f17f1962b36e491b30a40b2405849e597ba5fb5602052604081205490919060ff16620001b257818052816020526040822081835260205260408220600160ff1982541617905533917f2f8788117e7eff1d82e926ec794901d17c78024a50270940304540a733656f0d8180a4600190565b509056fe610280604052600436101561001357600080fd5b60003560e01c806301d0d5b81461344057806301ffc9a7146133ea57806315d92e33146133a05780631c0dd7e81461335657806320e3dbd41461330e578063248a9ca3146132df5780632a58b330146132c15780632f2ff15d146132825780632f48ab7d146132595780633087a88c14612f3757806336568abe14612ef05780633f4ba83a14612e8657806342dd6d3e14612d6b57806344f1eaae14612d215780634500cb6014612cd757806345cb450514612c7f5780634efef6aa14612c615780635c975abb14612c3e5780635d7ffe7b146128c15780635e9e78d01461287757806367ac0bf0146125a85780636dbe7579146123775780637203a58214611fdf57806379502c5514611fb25780637d90042114611f225780638456cb5914611ec85780638a4adf2414611e9f57806391d1485414611e52578063979b4e6d146114ce578063a217fddf146114b2578063a45f2ebc1461143a578063a61cf0d4146113a6578063a85c38ef14610fc6578063aab3196d14610f56578063b543503e14610f13578063ba9cf01d14610eea578063bc0ef26b14610d62578063cdc65ab614610d39578063cf3fec4314610ca9578063d049bfef14610a6b578063d09ef241146104f5578063d37e527b146104ab578063d547741f1461046a578063e02e34f814610347578063e4cbac40146102c35763f7ff64261461021757600080fd5b346102be5761022536613d5d565b90600052600860205260406000209081548110156102be5761024691614029565b508054906102ba600182015460028301549260038101549460048201549260058301549160068401549060078501549160088601549460ff600a600989015498015416976040519b8c9b8c60ff8860101c169860ff808a60081c1699169760ff8460a01c169360018060a01b031692613e1c565b0390f35b600080fd5b346102be576020806003193601126102be576001600160a01b036102e5613d73565b16600052600b8152604060002090604051908181845491828152019360005281600020916000905b828210610330576102ba8561032481890382613faf565b60405191829182613dcd565b83548652948501946001938401939091019061030d565b346102be5761035536613d5d565b8115158061045f575b610367906144ac565b61036f6140ad565b816000526007602052604060002090601582019182549260ff8460101c1691600b83101561044957600283036104045760008051602061466b8339815191529460c09460196204000093015562ff000019161790556103d1604051809261401c565b6004602082015260806040820152600c60808201526b1a5b9a5d1a585b081999595960a21b60a0820152426060820152a2005b60405162461bcd60e51b815260206004820152601e60248201527f4f7074696f6e73436f72653a206f72646572206e6f74206d61746368656400006044820152606490fd5b634e487b7160e01b600052602160045260246000fd5b50600554821061035e565b346102be5760403660031901126102be576104a9600435610489613d89565b908060005260006020526104a46001604060002001546140e7565b61418b565b005b346102be576104b936613d5d565b90801515806104ea575b6104cc906144ac565b6104d4614045565b6000526007602052601460406000200155600080f35b5060055481106104c3565b346102be5760203660031901126102be57600061042060405161051781613f93565b82815282602082015282604082015260608082015260606080820152606060a0820152606060c0820152606060e08201528261010082015282610120820152826101408201528261016082015282610180820152826101a0820152826101c0820152826101e08201528261020082015282610220820152826102408201528261026082015282610280820152826102a0820152826102c0820152826102e08201528261030082015282610320820152826103408201528261036082015282610380820152826103a0820152826103c0820152826103e0820152826104008201520152600435600052600760205260406000206040519061061682613f93565b8054825260018101546001600160a01b03908116602084015260028201541660408084019190915251610657816106508160038601613ee1565b0382613faf565b6060830152604051610670816106508160048601613ee1565b6080830152604051610689816106508160058601613ee1565b60a08301526040516106a2816106508160068601613ee1565b60c08301526040516106bb816106508160078601613ee1565b60e083015260ff6008820154166106d181614012565b6101008301526009810154610120830152600a810154610140830152600b810154610160830152600c810154610180830152600d8101546101a0830152600e8101546101c0830152600f8101546101e083015260108101546102008301526011810154610220830152601281015461074b60ff8216613e08565b60ff811661024084015260ff8160081c1661026084015260ff8160101c1661028084015260ff8160181c166102a084015261078b60ff8260201c16613e08565b60ff8160201c166102c084015260018060a01b039060281c166102e08301526013810154610300830152601481015461032083015260158101549060ff821615156103408401526107e160ff8360081c16614012565b60ff8260081c16610360840152600b60ff8360101c1610156104495760ff601a9260101c1661038084015260168101546103a084015260178101546103c084015260188101546103e0840152601981015461040084015201546104208201526040518091602082528051602083015260018060a01b03602082015116604083015260018060a01b0360408201511660608301526104206108f561089560608401516104406080870152610460860190613fd2565b6108df6108cb6108b7608087015193601f1994858a83030160a08b0152613fd2565b60a0870151848983030160c08a0152613fd2565b60c0860151838883030160e0890152613fd2565b9060e08501519086830301610100870152613fd2565b9161010081015161090581614012565b6101208501526101208101516101408501526101408101516101608501526101608101516101808501526101808101516101a08501526101a08101516101c08501526101c08101516101e08501526101e081015161020085015261020081015161022085015261022081015161024085015261024081015161098681613e08565b61026085015260ff6102608201511661028085015260ff610280820151166102a085015260ff6102a0820151166102c08501526102c08101516109c881613e08565b6102e085015260018060a01b036102e0820151166103008501526103008101516103208501526103208101516103408501526103408101511515610360850152610360810151610a1781614012565b610380850152610a316103808201516103a086019061401c565b6103a08101516103c08501526103c08101516103e08501526103e08101516104008501526104008101518285015201516104408301520390f35b346102be576020806003193601126102be57600435600052600890818152604060002091825460018060401b038111610c9357604051916005610ab28584831b0185613faf565b82845284840191829660005285600020916000935b858510610bc057604080518981528851818b018190528b928201908b60005b828110610af35784840385f35b909192826101c06001928851805182528381015184830152848060a01b03604082015116604083015260608082015190610b2c82613e08565b8301526080808201519083015260a0808201519083015260c0808201519083015260e081015160e08301526101008082015190610b6882613e08565b83015260ff6101208181840151169084015261014090818301511690830152610160808201519083015261018080820151908301526101a08091015190610bae82613e12565b82015201960191019492919094610ae6565b600b88600192604051610bd281613f77565b8754815284880154838201526002880154858060a01b038116604083015260ff908160a091821c16610c0381613e08565b606084015260038a0154608084015260048a0154908301528689015460c0830152600689015460e08301528060078a0154818116610c4081613e08565b61010085015281818b1c1661012085015260101c16610140830152878901546101608301526009890154610180830152600a89015416610c7f81613e12565b6101a0820152815201940194019392610ac7565b634e487b7160e01b600052604160045260246000fd5b346102be576020806003193601126102be576004356001600160401b0381116102be57610cdb82913690600401613d20565b91908260405193849283378101600c81520301902090604051908181845491828152019360005281600020916000905b828210610d22576102ba8561032481890382613faf565b835486529485019460019384019390910190610d0b565b346102be5760003660031901126102be57602060405160008051602061464b8339815191528152f35b346102be576020806003193601126102be5760043580151580610edf575b610d89906144ac565b8060005260078252610dac60018060a01b03600160406000200154163314614447565b610db4614424565b610dbc614406565b8060005260078252601560406000200180549060ff8260101c1691600b8310156104495782158015610ed5575b15610e815793600a91620a000060008051602061466b833981519152959662ff00001916179055847fb848a62ef7171019d243ed8f5b8e1e6c32cafed0b7fc99da26cb2fc2e7d533ec6040516040815280610e46604082016144f8565b42868301520390a2610e5b604051809461401c565b8201526080604082015280610e72608082016144f8565b4260608301520390a260018055005b60405162461bcd60e51b815260048101869052602660248201527f4f7074696f6e73436f72653a2063616e6e6f742063616e63656c206166746572604482015265040dac2e8c6d60d31b6064820152608490fd5b5060018314610de9565b506005548110610d80565b346102be5760003660031901126102be57602060405160008051602061460b8339815191528152f35b346102be5760203660031901126102be57610f2c613d73565b610f346140ad565b600380546001600160a01b0319166001600160a01b0392909216919091179055005b346102be5760403660031901126102be57602435600435600b8210156102be5780151580610fbb575b610f88906144ac565b610f90614045565b600052600760205260156040600020019062ff000082549160101b169062ff00001916179055600080f35b506005548110610f7f565b346102be5760203660031901126102be57600435600090815260076020526040908190206101e081905280546101a05260018101546001600160a01b0390811660a0526002820154925161022081905292169190611028908290600301613ee1565b03610220519061103791613faf565b60405180806101e0516004019061104d91613ee1565b036110589082613faf565b6040519182806101e0516005019061106f91613ee1565b0361107a9084613faf565b6040519182806101e0516006019061109191613ee1565b0361109c9084613faf565b6040519384806101e051600701906110b391613ee1565b036110be9086613faf565b6101e05193600885015460ff1660e052600985015495600a860154600b87015491600c88015493600d89015495600e8a015497600f8b01549960108c01549b601181015460c05260128101546101c0526013810154610160526014810154610200526015810154610100526016810154610240526017810154608052601881015461026052601981015461012052601a01546101805260405180610140526101a051905260a051610140516020015261014051604001526104408061014051606001526101405101610220519061119491613fd2565b6101405180820390608001526111a991613fd2565b610140518082039060a001526111be91613fd2565b610140518082039060c001526111d391613fd2565b610140518082039060e001526111e891613fd2565b9760e0516111f590614012565b60e051610140516101000152610140516101200152610140516101400152610140516101600152610140516101800152610140516101a00152610140516101c00152610140516101e0015261014051610200015260c0516101405161022001526101c05160ff1661126590613e08565b6101c05160ff166101405161024001526101c05160081c60ff166101405161026001526101c05160101c60ff166101405161028001526101c05160181c60ff16610140516102a001526101c05160201c60ff166112c190613e08565b6101c05160201c60ff16610140516102c00152600160a01b600190036101c05160281c16610140516102e0015261016051610140516103000152610200516101405161032001526101005160ff1615156101405161034001526101005160081c60ff1661132d90614012565b6101005160081c60ff1661014051610360015261014051610380016101005160101c60ff169061135c9161401c565b61024051610140516103a00152608051610140516103c0015261026051610140516103e0015261012051610140516104000152610180516101405161042001526101405180910390f35b346102be5760203660031901126102be57600435600052600960205260406000208054906102ba600182015460028301549260038101549460048201549260058301549160068401549060078501549160088601549460ff600a600989015498015416976040519b8c9b8c60ff8860101c169860ff808a60081c1699169760ff8460a01c169360018060a01b031692613e1c565b346102be576020806003193601126102be576001600160a01b0361145c613d73565b16600052600a8152604060002090604051908181845491828152019360005281600020916000905b82821061149b576102ba8561032481890382613faf565b835486529485019460019384019390910190611484565b346102be5760003660031901126102be57602060405160008152f35b346102be576102603660031901126102be576004356001600160401b0381116102be576114ff903690600401613d20565b6024356001600160401b0381116102be5761151e903690600401613d20565b92906044356001600160401b0381116102be5761153f903690600401613d20565b906064356001600160401b0381116102be5761155f903690600401613d20565b90946084356001600160401b0381116102be57611580903690600401613d20565b600260a43510156102be5760036101443510156102be57610164356001600160a01b03811690036102be576115b3613d4d565b9160036101e43510156102be5760ff610204351661020435036102be5760ff610224351661022435036102be5760026102443510156102be576115f4614424565b6115fc614406565b61160960c4351515614200565b6116164260e4351161425b565b600480546003546002546040516337382d3960e21b8152936001600160a01b039384169392831692602092869291839160081c165afa918215611e4657600092611e10575b61166793503390614368565b600554996116748b6142b5565b60055560008b81526007602052604090208b81556001810180546001600160a01b03191633179055946001600160401b038211610c935781906116ba6003880154613ea7565b601f8111611dbd575b50600090601f8311600114611d4c57600092611d41575b50508160011b916000199060031b1c19161760038501555b6001600160401b038b11610c935761170d6004850154613ea7565b601f8111611cf9575b508a6000601f8211600114611c8957600091611c7e575b508b60011b906000198d60031b1c19161760048501555b6001600160401b038711610c935761175f6005850154613ea7565b601f8111611c37575b50866000601f8211600114611bc957600091611bbe575b508760011b906000198960031b1c19161760058501555b6001600160401b038511610c93576117b16006850154613ea7565b601f8111611b77575b50846000601f8211600114611b0757600091611afc575b508560011b906000198760031b1c19161760068501555b6001600160401b038211610c93576118036007850154613ea7565b601f8111611ab5575b5091899795939160209b979593600090601f8311600114611a26578a958e6119aa9d819b9a978297876119929c9861197a988d98600092611a1b575b50508160011b916000199060031b1c19161760078301555b61186f60a435600884016142c4565b60c435600983015560e435600b83015561010435601183015561012435601083015561192f601283016118a461014435613e08565b8054600160281b600160c81b036101643560281b1660ff610144358116891b60018a1b600160c81b0319909316929092171782556101843560138601556101a435601486015560158501805460ff1916941515909116939093178355805463ff000000191681556119186101e435826142dc565b61192561020435826142e6565b61022435906142fc565b61193c6102443582614314565b62ff000019815416905560164291015533600052600a8252611962846040600020614333565b8260405193849283378101600c815203019020614333565b8260405193849283378101600d815203019020614333565b8260405193849283378101600e815203019020614333565b6040516001815242838201528160008051602061468b83398151915260403393a38060008051602061466b83398151915260c06040516000815260008682015260806040820152600760808201526618dc99585d195960ca1b60a0820152426060820152a260018055604051908152f35b013590503880611848565b6007859c969798999a9c016000528d6000209160005b601f1985168110611a9b5750968e8c97819b976119aa9f9d9b969760018961197a988d986119929f889d601f19811610611a81575b505050811b016007830155611860565b0135600019600384901b60f8161c19169055388080611a71565b8183013584558e9c50600190930192908f01908f01611a3c565b600785016000526020600020601f840160051c810160208510611af5575b601f830160051c82018110611ae957505061180c565b60008155600101611ad3565b5080611ad3565b90508901358c6117d1565b90506006850160005260206000209060005b8b601f1989168210611b5f57505086601f19811610611b45575b5050600185811b0160068501556117e8565b8a0135600019600388901b60f8161c191690558b80611b33565b60018394602093948493013581550193019101611b19565b600685016000526020600020601f870160051c810160208810611bb7575b601f830160051c82018110611bab5750506117ba565b60008155600101611b95565b5080611b95565b90508601358c61177f565b90506005850160005260206000209060005b601f198a168110611c1f575088601f19811610611c05575b5050600187811b016005850155611796565b87013560001960038a901b60f8161c191690558b80611bf3565b9091602060018192858c013581550193019101611bdb565b600585016000526020600020601f890160051c810160208a10611c77575b601f830160051c82018110611c6b575050611768565b60008155600101611c55565b5080611c55565b90508801358c61172d565b6004860160009081526020812092508a8e5b601f19168210611cdf5750508c601f19811610611cc5575b505060018b811b016004850155611744565b89013560001960038e901b60f8161c191690558b80611cb3565b600183946020939484930135815501930191018a8e611c9b565b6004850160005260206000208c6020601f820160051c83019110611d3a575b601f830160051c82018110611d2e575050611716565b60008155600101611d18565b5080611d18565b013590508d806116da565b909250600387016000526020600020906000935b601f1984168510611da5576001945083601f19811610611d8b575b505050811b0160038501556116f2565b0135600019600384901b60f8161c191690558d8080611d7b565b81810135835560209485019460019093019201611d60565b909150600387016000526020600020601f840160051c810160208510611e09575b90849392915b601f830160051c82018110611dfa5750506116c3565b60008155859450600101611de4565b5080611dde565b91506020833d602011611e3e575b81611e2b60209383613faf565b810103126102be5761166792519161165b565b3d9150611e1e565b6040513d6000823e3d90fd5b346102be5760403660031901126102be57611e6b613d89565b600435600052600060205260406000209060018060a01b0316600052602052602060ff604060002054166040519015158152f35b346102be5760003660031901126102be576003546040516001600160a01b039091168152602090f35b346102be5760003660031901126102be57611ee16140ad565b611ee9614406565b600160ff1960025416176002557f62e78cea01bee320cd4e420270b5ea74000d11b0c9f74754ebdbfc544b05a2586020604051338152a1005b346102be576020806003193601126102be576004356001600160401b0381116102be57611f5482913690600401613d20565b91908260405193849283378101600d81520301902090604051908181845491828152019360005281600020916000905b828210611f9b576102ba8561032481890382613faf565b835486529485019460019384019390910190611f84565b346102be5760003660031901126102be5760025460405160089190911c6001600160a01b03168152602090f35b346102be5760c03660031901126102be57600360643510156102be5760843560ff811681036102be5760a43560ff811681036102be5760043515158061236a575b612029906144ac565b612031614424565b612039614406565b600435600052600760205260406000209160ff601584015460101c16600b81101561044957801590811561235f575b501561230a57600983015490612710612092816120876024358661448c565b04936044359061448c565b04926011850154806122ac575b50601085015460443510612268576004546003546120cd9186916001600160a01b0390811691339116614368565b600654936120da856142b5565b60065562015180420142116122525760ff928391604051956120fb87613f77565b878752600435602088015233604088015260006060880152602435608088015260a087015260443560c087015260e0860152612138606435613e08565b60643561010086015216610120840152166101408201524261016082015262015180420161018082015260006101a082015281600052600960205261218181604060002061451a565b600435600052600860205260406000208054600160401b811015610c93576121ae91600182018155614029565b91909161223c576121be9161451a565b60158201549160ff8360101c1692600b8410156104495760209315612224575b5050604051602435815242838201528133917f878fe3f9bca373e42473c1f3ad3c9c35c4f1ecaf9a5f081a801a3fbd43049f55604060043592a460018055604051908152f35b6201000060159162ff000019161791015582806121de565b634e487b7160e01b600052600060045260246000fd5b634e487b7160e01b600052601160045260246000fd5b606460405162461bcd60e51b815260206004820152602060248201527f4f7074696f6e73436f72653a206d617267696e207261746520746f6f206c6f776044820152fd5b602435116122ba578561209f565b60405162461bcd60e51b815260206004820152602260248201527f4f7074696f6e73436f72653a207072656d69756d207261746520746f6f2068696044820152610ced60f31b6064820152608490fd5b60405162461bcd60e51b815260206004820152602760248201527f4f7074696f6e73436f72653a206f72646572206e6f7420616363657074696e676044820152662071756f74657360c81b6064820152608490fd5b600191501484612068565b5060055460043510612020565b60403660031901126102be5760243560043560038210156102be578015158061259d575b6123a4906144ac565b8060005260076020526123c860018060a01b03600160406000200154163314614447565b6123d0614424565b6123d8614406565b8060005260076020526040600020601581019283549360ff8560101c1690600b82101561044957600282036124ff5760008051602061466b83398151915260c060008051602061462b83398151915295949387936203000060009a62ff00001916179055612449604051809261401c565b600360208201526080604082015260166080820152751a5b9a5d1a585b0819995959081c995c5d595cdd195960521b60a0820152426060820152a25b6009820154906124cb6040519360e0855260066124bc6124ab60e0880160048501613ee1565b878103602089015260058401613ee1565b91868303604088015201613ee1565b956124d581613e12565b60608401526124e381613e08565b608083015260a08201524260c08201528033940390a360018055005b5090935060058103612524575060008051602061462b83398151915290600293612485565b6004036125435760008051602061462b83398151915290600193612485565b60405162461bcd60e51b815260206004820152602c60248201527f4f7074696f6e73436f72653a20696e76616c69642073746174757320666f722060448201526b19995959081c995c5d595cdd60a21b6064820152608490fd5b50600554811061239b565b346102be576020806003193601126102be57600435908115158061286c575b6125d0906144ac565b6125d8614424565b6125e0614406565b8160005260078152604060002090601582019283549360ff8560101c1693600b85101561044957846128295760028101805490936001600160a01b03939091841680156127e4573314612793576001830180546001600160a01b0319163317815562ff000019909816620200001790554260178301556009820154600254604051631c03be3560e31b8152919087908390600490829060081c89165afa918215611e4657600092612755575b509360c096936126ec60008051602061466b8339815191529997946126da6126c86127106126bd879860029c61448c565b04600d86015461449f565b85600454168660035416903390614368565b33600052600a87526040600020614333565b5498541691541690876000805160206146ab83398151915284604051428152a4612719604051809461401c565b8201526080604082015260156080820152741cd95b1b195c881bdc99195c881858d8d95c1d1959605a1b60a0820152426060820152a260018055005b96809498969395925087813d831161278c575b6127728183613faf565b810103126102be57955194969295919490939160c061268c565b503d612768565b60405162461bcd60e51b8152600481018790526024808201527f4f7074696f6e73436f72653a2063616e6e6f7420616363657074206f776e206f604482015263393232b960e11b6064820152608490fd5b60405162461bcd60e51b815260048101889052601f60248201527f4f7074696f6e73436f72653a206e6f7420612073656c6c6572206f72646572006044820152606490fd5b6064846040519062461bcd60e51b825280600483015260248201527f4f7074696f6e73436f72653a206f72646572206e6f7420617661696c61626c656044820152fd5b5060055482106125c7565b346102be5761288536613d5d565b90801515806128b6575b612898906144ac565b6128a0614045565b6000526007602052601960406000200155600080f35b50600554811061288f565b346102be5760203660031901126102be576128da614424565b6128e2614406565b6004356000526009602052604060002060ff600a8201541661290381613e12565b612bf95760098101544211612bb7576001810154600052600760205260406000209061293c60018060a01b036001840154163314614447565b60158201908154916202000062ff000019841617905560018060a01b0360028201541660018060a01b03196002850154161760028401556004810154600d840155600681015480600e850155600f8401556129c46007820160ff80825416916129a96012880193846142dc565b6129b982825460081c16846142e6565b5460101c16906142fc565b4260178401556009830154600254604051631c03be3560e31b8152906020908290600490829060081c6001600160a01b03165afa908115611e4657600091612b83575b50612710612a1b612a2692612a409461448c565b04600484015461449f565b6004546003546001600160a01b0390811691339116614368565b600201546001600160a01b03166000908152600b602052604090208254612a6691614333565b8154600052600860205260406000209160005b8354811015612aeb5780612a90612aa69286614029565b5054600435141580612ac9575b612aab576142b5565b612a79565b600a612ab78287614029565b5001805460ff191660021790556142b5565b5060ff600a612ad88388614029565b50015416612ae581613e12565b15612a9d565b5060008051602061466b83398151915260c060ff612b4a8585549560018060a01b0360018201541690600260018060a01b039101541690876000805160206146ab8339815191526020604051428152a460405192839160101c1661401c565b6002602082015260806040820152600e60808201526d1c5d5bdd19481858d8d95c1d195960921b60a0820152426060820152a260018055005b90506020813d602011612baf575b81612b9e60209383613faf565b810103126102be5751612710612a07565b3d9150612b91565b60405162461bcd60e51b815260206004820152601a60248201527913dc1d1a5bdb9cd0dbdc994e881c5d5bdd1948195e1c1a5c995960321b6044820152606490fd5b60405162461bcd60e51b815260206004820152601d60248201527f4f7074696f6e73436f72653a2071756f7465206e6f74206163746976650000006044820152606490fd5b346102be5760003660031901126102be57602060ff600254166040519015158152f35b346102be5760003660031901126102be576020600654604051908152f35b346102be5760403660031901126102be57612c98613d73565b6001600160a01b03166000908152600b60205260409020805460243591908210156102be57602091612cc991613d9f565b90546040519160031b1c8152f35b346102be5760403660031901126102be57612cf0613d73565b6001600160a01b03166000908152600a60205260409020805460243591908210156102be57602091612cc991613d9f565b346102be57612d2f36613d5d565b9080151580612d60575b612d42906144ac565b612d4a614045565b6000526007602052601a60406000200155600080f35b506005548110612d39565b346102be57612d7936613d5d565b81151580612e7b575b612d8b906144ac565b612d936140ad565b816000526007602052604060002090601582019182549260ff8460101c1691600b83101561044957600483148015612e71575b15612e2e5760008051602061466b8339815191529460c09460196206000093015562ff00001916179055612dfd604051809261401c565b6006602082015260806040820152600a608082015269199a5b985b081999595960b21b60a0820152426060820152a2005b60405162461bcd60e51b815260206004820152601b60248201527a4f7074696f6e73436f72653a20696e76616c69642073746174757360281b6044820152606490fd5b5060058314612dc6565b506005548210612d82565b346102be5760003660031901126102be57612e9f6140ad565b60025460ff811615612ede5760ff19166002557f5db9ee0a495bf2e6ff9c91a7834c1ba4fdd244a5e8aa4e537bd38aeae4b073aa6020604051338152a1005b604051638dfc202b60e01b8152600490fd5b346102be5760403660031901126102be57612f09613d89565b336001600160a01b03821603612f25576104a99060043561418b565b60405163334bd91960e11b8152600490fd5b346102be5760603660031901126102be576004356024803560048110156102be57604435908315158061324e575b612f6e906144ac565b3360009081527f3f8d9a030d334798d6aece9c5bcc7646b3f51f8740e76f47846d18cc4a1a8e4e602090815260409091205490929060008051602061464b8339815191529060ff16156132315750846000526007835260406000209181156131f057612fd981613e12565b806130e7575090601581019182549160ff8360101c1695600b8710156130d3576002871480156130c9575b1561307757506019015562ff000019166204000017905560405160008051602061466b8339815191529260c09260049161303f90849061401c565b820152608060408201526015608082015274696e697469616c20666565642063616c6c6261636b60581b60a0820152426060820152a2005b8560266084926040519262461bcd60e51b845260048401528201527f4f7074696f6e73436f72653a206e6f74206177616974696e6720696e697469616044820152651b081999595960d21b6064820152fd5b5060038714613004565b634e487b7160e01b60009081526021600452fd5b806130f3600292613e12565b146130fa57005b601582019081549060ff8260101c1695600b8710156130d3576004871480156131e6575b156131975750601984015562ff00001916620600001790554260189091015560405160008051602061466b8339815191529260c09260069161316190849061401c565b82015260806040820152601360808201527266696e616c20666565642063616c6c6261636b60681b60a0820152426060820152a2005b856084916040519162461bcd60e51b83526004830152808201527f4f7074696f6e73436f72653a206e6f74206177616974696e672066696e616c206044820152631999595960e21b6064820152fd5b506005871461311e565b60405162461bcd60e51b815260048101859052601a81870152794f7074696f6e73436f72653a20696e76616c696420707269636560301b6044820152606490fd5b846044916040519163e2517d3f60e01b8352336004840152820152fd5b506005548410612f65565b346102be5760003660031901126102be576004546040516001600160a01b039091168152602090f35b346102be5760403660031901126102be576104a96004356132a1613d89565b908060005260006020526132bc6001604060002001546140e7565b61410d565b346102be5760003660031901126102be576020600554604051908152f35b346102be5760203660031901126102be5760043560005260006020526020600160406000200154604051908152f35b346102be5760203660031901126102be57613327613d73565b61332f6140ad565b60028054610100600160a81b03191660089290921b610100600160a81b0316919091179055005b346102be5761336436613d5d565b9080151580613395575b613377906144ac565b61337f614045565b6000526007602052600f60406000200155600080f35b50600554811061336e565b346102be576133ae36613d5d565b90801515806133df575b6133c1906144ac565b6133c9614045565b6000526007602052601860406000200155600080f35b5060055481106133b8565b346102be5760203660031901126102be5760043563ffffffff60e01b81168091036102be57602090637965db0b60e01b811490811561342f575b506040519015158152f35b6301ffc9a760e01b14905082613424565b346102be576102203660031901126102be576004356001600160401b0381116102be57613471903690600401613d20565b6024356001600160401b0381116102be57613490903690600401613d20565b92906044356001600160401b0381116102be576134b1903690600401613d20565b906064356001600160401b0381116102be576134d1903690600401613d20565b90946084356001600160401b0381116102be576134f2903690600401613d20565b600260a43510156102be5760036101443510156102be5760ff610164351661016435036102be5760ff610184351661018435036102be57613531613d4d565b9160ff6101e435166101e435036102be5760026102043510156102be57613556614424565b61355e614406565b61356b60c4351515614200565b6135784260e4351161425b565b600480546003546002546040516337382d3960e21b8152936001600160a01b039384169392831692602092869291839160081c165afa918215611e4657600092613cea575b6135c993503390614368565b6004546003546135ec9161012435916001600160a01b0390811691339116614368565b600554996135f98b6142b5565b60055560008b81526007602052604090208b81556002810180546001600160a01b03191633179055946001600160401b038211610c9357819061363f6003880154613ea7565b601f8111613c97575b50600090601f8311600114613c2657600092613c1b575b50508160011b916000199060031b1c19161760038501555b6001600160401b038b11610c93576136926004850154613ea7565b601f8111613bd3575b508a6000601f8211600114613b6357600091613b58575b508b60011b906000198d60031b1c19161760048501555b6001600160401b038711610c93576136e46005850154613ea7565b601f8111613b11575b50866000601f8211600114613aa357600091613a98575b508760011b906000198960031b1c19161760058501555b6001600160401b038511610c93576137366006850154613ea7565b601f8111613a51575b50846000601f82116001146139e1576000916139d6575b508560011b906000198760031b1c19161760068501555b6001600160401b038211610c93576137886007850154613ea7565b601f811161398f575b5091899795939160209b979593600090601f8311600114613900578a958e6138c89d819b9a978297876119929c9861197a988d986000926138f5575b50508160011b916000199060031b1c19161760078301555b6137f460a435600884016142c4565b60c435600983015560e435600b8301556127106138166101043560c43561448c565b04600d83015561012435600e83015561012435600f8301556012820161383f61014435826142dc565b61384c61016435826142e6565b61385961018435826142fc565b6101a435601384015561387c6015840192839060ff801983541691151516179055565b805463ff00000019166101e43560181b63ff000000161790556138a26102043582614314565b62ff000019815416905560164291015533600052600b8252611962846040600020614333565b6040516000815242838201528160008051602061468b83398151915260403393a360018055604051908152f35b0135905038806137cd565b6007859c969798999a9c016000528d6000209160005b601f19851681106139755750968e8c97819b976138c89f9d9b969760018961197a988d986119929f889d601f1981161061395b575b505050811b0160078301556137e5565b0135600019600384901b60f8161c1916905538808061394b565b8183013584558e9c50600190930192908f01908f01613916565b600785016000526020600020601f840160051c8101602085106139cf575b601f830160051c820181106139c3575050613791565b600081556001016139ad565b50806139ad565b90508901358c613756565b90506006850160005260206000209060005b8b601f1989168210613a3957505086601f19811610613a1f575b5050600185811b01600685015561376d565b8a0135600019600388901b60f8161c191690558b80613a0d565b600183946020939484930135815501930191016139f3565b600685016000526020600020601f870160051c810160208810613a91575b601f830160051c82018110613a8557505061373f565b60008155600101613a6f565b5080613a6f565b90508601358c613704565b90506005850160005260206000209060005b601f198a168110613af9575088601f19811610613adf575b5050600187811b01600585015561371b565b87013560001960038a901b60f8161c191690558b80613acd565b9091602060018192858c013581550193019101613ab5565b600585016000526020600020601f890160051c810160208a10613b51575b601f830160051c82018110613b455750506136ed565b60008155600101613b2f565b5080613b2f565b90508801358c6136b2565b6004860160009081526020812092508a8e5b601f19168210613bb95750508c601f19811610613b9f575b505060018b811b0160048501556136c9565b89013560001960038e901b60f8161c191690558b80613b8d565b600183946020939484930135815501930191018a8e613b75565b6004850160005260206000208c6020601f820160051c83019110613c14575b601f830160051c82018110613c0857505061369b565b60008155600101613bf2565b5080613bf2565b013590508d8061365f565b909250600387016000526020600020906000935b601f1984168510613c7f576001945083601f19811610613c65575b505050811b016003850155613677565b0135600019600384901b60f8161c191690558d8080613c55565b81810135835560209485019460019093019201613c3a565b909150600387016000526020600020601f840160051c810160208510613ce3575b90849392915b601f830160051c82018110613cd4575050613648565b60008155859450600101613cbe565b5080613cb8565b91506020833d602011613d18575b81613d0560209383613faf565b810103126102be576135c99251916135bd565b3d9150613cf8565b9181601f840112156102be578235916001600160401b0383116102be57602083818601950101116102be57565b6101c4359081151582036102be57565b60409060031901126102be576004359060243590565b600435906001600160a01b03821682036102be57565b602435906001600160a01b03821682036102be57565b8054821015613db75760005260206000200190600090565b634e487b7160e01b600052603260045260246000fd5b6020908160408183019282815285518094520193019160005b828110613df4575050505090565b835185529381019392810192600101613de6565b6003111561044957565b6004111561044957565b9b99979593919e9d9c9a98969492909e6101c08d019f8d5260208d0152600160a01b600190031660408c0152613e5181613e08565b60608b015260808a015260a089015260c088015260e0870152613e7381613e08565b61010086015260ff1661012085015260ff16610140840152610160830152610180820152613ea082613e12565b6101a00152565b90600182811c92168015613ed7575b6020831014613ec157565b634e487b7160e01b600052602260045260246000fd5b91607f1691613eb6565b9060009291805491613ef283613ea7565b918282526001938481169081600014613f545750600114613f14575b50505050565b90919394506000526020928360002092846000945b838610613f40575050505001019038808080613f0e565b805485870183015294019385908201613f29565b9294505050602093945060ff191683830152151560051b01019038808080613f0e565b6101c081019081106001600160401b03821117610c9357604052565b61044081019081106001600160401b03821117610c9357604052565b601f909101601f19168101906001600160401b03821190821017610c9357604052565b919082519283825260005b848110613ffe575050826000602080949584010152601f8019910116010190565b602081830181015184830182015201613fdd565b6002111561044957565b90600b8210156104495752565b8054821015613db757600052600b602060002091020190600090565b3360009081527fdd53df7e4642f4e3d9dededdac02355f2e876e2a9b7ef4e260af8d6fd7b33257602052604090205460008051602061460b8339815191529060ff161561408f5750565b6044906040519063e2517d3f60e01b82523360048301526024820152fd5b3360009081527fad3228b676f7d3cd4284a5443f17f1962b36e491b30a40b2405849e597ba5fb5602052604081205460ff161561408f5750565b80600052600060205260406000203360005260205260ff604060002054161561408f5750565b9060009180835282602052604083209160018060a01b03169182845260205260ff6040842054161560001461418657808352826020526040832082845260205260408320600160ff198254161790557f2f8788117e7eff1d82e926ec794901d17c78024a50270940304540a733656f0d339380a4600190565b505090565b9060009180835282602052604083209160018060a01b03169182845260205260ff6040842054166000146141865780835282602052604083208284526020526040832060ff1981541690557ff6391f5c32d9c69d2a47ea670b442974b53935d1edc7fd64eb21e047a839171b339380a4600190565b1561420757565b60405162461bcd60e51b815260206004820152602660248201527f4f7074696f6e73436f72653a206e6f74696f6e616c206d75737420626520706f60448201526573697469766560d01b6064820152608490fd5b1561426257565b60405162461bcd60e51b815260206004820152602560248201527f4f7074696f6e73436f72653a20657870697279206d75737420626520696e2066604482015264757475726560d81b6064820152608490fd5b60001981146122525760010190565b906142ce81614012565b60ff80198354169116179055565b906142ce81613e08565b9061ff0082549160081b169061ff001916179055565b9062ff000082549160101b169062ff00001916179055565b9061431e81614012565b61ff0082549160081b169061ff001916179055565b8054600160401b811015610c935761435091600182018155613d9f565b819291549060031b91821b91600019901b1916179055565b6040516323b872dd60e01b602082019081526001600160a01b039384166024830152938316604482015260648082019590955293845292909160a08201906001600160401b03821183831017610c9357602092600092604052519082865af115611e46576000513d6143fd57508082163b155b6143e3575050565b604051635274afe760e01b81529116600482015260249150fd5b600114156143db565b60ff6002541661441257565b60405163d93c066560e01b8152600490fd5b600260015414614435576002600155565b604051633ee5aeb560e01b8152600490fd5b1561444e57565b60405162461bcd60e51b815260206004820152601660248201527527b83a34b7b739a1b7b9329d103737ba10313abcb2b960511b6044820152606490fd5b8181029291811591840414171561225257565b9190820180921161225257565b156144b357565b60405162461bcd60e51b815260206004820152601d60248201527f4f7074696f6e73436f72653a20696e76616c6964206f726465722069640000006044820152606490fd5b600f81526e189d5e595c8818d85b98d95b1b1959608a1b602082015260400190565b600a6101a09183518155602084015160018201556002810160018060a01b03604086015116815490606087015161455081613e08565b61455981613e08565b6001600160a81b03199092161760a091821b60ff60a01b161790915560808501516003830155840151600482015560c0840151600582015560e084015160068201556101008401516145de9060078301906145bd906145b781613e08565b826142dc565b6145cf60ff61012088015116826142e6565b60ff61014087015116906142fc565b610160840151600882015561018084015160098201550191015161460181613e12565b6142ce81613e1256fe300f9ae985dc711960f7a4d1dd013f9c19ecf40bff149522ab7523b2187a3846ce74058472262d5db42b1ca04d78e999d2dd523bdf8b33202e06cca947b31bbe04967fd25e7aa667b18955d808f19fd0c86238999ff8be2ebc72cd2cd3a83db0ce3a31baf9956e086200ee7044a75c2befbd050912798b7bcd25d05831ab9592c0c6ed2669febbe340d8737e8ec17254ffd9e038b54a4585ff70ac3ca18956aa3d7463b72b52fafc8e3f27dc0dbb9d1a94c0a4024834252b5cce68509acb49bca26469706673582212200433a792efa23dabcc60c8cce1adc7527b66ba43f0eb75459fc14c080ba7ff2a64736f6c63430008140033",
  "linkReferences": {},
  "deployedLinkReferences": {}
}