{
  "_format": "hh-sol-artifact-1",
  "contractName": "OptionsCore",
  "sourceName": "contracts/core/OptionsCore.sol",
  "abi": [
    {
      "inputs": [
        {
          "internalType": "address",
          "name": "_config",
          "type": "address"
        },
        {
          "internalType": "address",
          "name": "_vaultManager",
          "type": "address"
        },
        {
          "internalType": "address",
          "name": "_usdt",
          "type": "address"
        },
        {
          "internalType": "address",
          "name": "_admin",
          "type": "address"
        }
      ],
      "stateMutability": "nonpayable",
      "type": "constructor"
    },
    {
      "inputs": [],
      "name": "AccessControlBadConfirmation",
      "type": "error"
    },
    {
      "inputs": [
        {
          "internalType": "address",
          "name": "account",
          "type": "address"
        },
        {
          "internalType": "bytes32",
          "name": "neededRole",
          "type": "bytes32"
        }
      ],
      "name": "AccessControlUnauthorizedAccount",
      "type": "error"
    },
    {
      "inputs": [],
      "name": "EnforcedPause",
      "type": "error"
    },
    {
      "inputs": [],
      "name": "ExpectedPause",
      "type": "error"
    },
    {
      "inputs": [],
      "name": "ReentrancyGuardReentrantCall",
      "type": "error"
    },
    {
      "inputs": [
        {
          "internalType": "address",
          "name": "token",
          "type": "address"
        }
      ],
      "name": "SafeERC20FailedOperation",
      "type": "error"
    },
    {
      "anonymous": false,
      "inputs": [
        {
          "indexed": true,
          "internalType": "uint256",
          "name": "orderId",
          "type": "uint256"
        },
        {
          "indexed": true,
          "internalType": "address",
          "name": "seller",
          "type": "address"
        },
        {
          "indexed": false,
          "internalType": "uint256",
          "name": "oldAmount",
          "type": "uint256"
        },
        {
          "indexed": false,
          "internalType": "uint256",
          "name": "newAmount",
          "type": "uint256"
        },
        {
          "indexed": false,
          "internalType": "string",
          "name": "changeType",
          "type": "string"
        },
        {
          "indexed": false,
          "internalType": "uint256",
          "name": "timestamp",
          "type": "uint256"
        }
      ],
      "name": "MarginChanged",
      "type": "event"
    },
    {
      "anonymous": false,
      "inputs": [
        {
          "indexed": true,
          "internalType": "uint256",
          "name": "orderId",
          "type": "uint256"
        },
        {
          "indexed": false,
          "internalType": "string",
          "name": "reason",
          "type": "string"
        },
        {
          "indexed": false,
          "internalType": "uint256",
          "name": "timestamp",
          "type": "uint256"
        }
      ],
      "name": "OrderCancelled",
      "type": "event"
    },
    {
      "anonymous": false,
      "inputs": [
        {
          "indexed": true,
          "internalType": "uint256",
          "name": "orderId",
          "type": "uint256"
        },
        {
          "indexed": true,
          "internalType": "address",
          "name": "creator",
          "type": "address"
        },
        {
          "indexed": false,
          "internalType": "bool",
          "name": "isBuyerOrder",
          "type": "bool"
        },
        {
          "indexed": false,
          "internalType": "uint256",
          "name": "timestamp",
          "type": "uint256"
        }
      ],
      "name": "OrderCreated",
      "type": "event"
    },
    {
      "anonymous": false,
      "inputs": [
        {
          "indexed": true,
          "internalType": "uint256",
          "name": "orderId",
          "type": "uint256"
        },
        {
          "indexed": false,
          "internalType": "address",
          "name": "beneficiary",
          "type": "address"
        },
        {
          "indexed": false,
          "internalType": "uint256",
          "name": "amount",
          "type": "uint256"
        },
        {
          "indexed": false,
          "internalType": "uint256",
          "name": "timestamp",
          "type": "uint256"
        }
      ],
      "name": "OrderLiquidated",
      "type": "event"
    },
    {
      "anonymous": false,
      "inputs": [
        {
          "indexed": true,
          "internalType": "uint256",
          "name": "orderId",
          "type": "uint256"
        },
        {
          "indexed": true,
          "internalType": "address",
          "name": "buyer",
          "type": "address"
        },
        {
          "indexed": true,
          "internalType": "address",
          "name": "seller",
          "type": "address"
        },
        {
          "indexed": false,
          "internalType": "uint256",
          "name": "timestamp",
          "type": "uint256"
        }
      ],
      "name": "OrderMatched",
      "type": "event"
    },
    {
      "anonymous": false,
      "inputs": [
        {
          "indexed": true,
          "internalType": "uint256",
          "name": "orderId",
          "type": "uint256"
        },
        {
          "indexed": false,
          "internalType": "uint256",
          "name": "buyerPayout",
          "type": "uint256"
        },
        {
          "indexed": false,
          "internalType": "uint256",
          "name": "sellerPayout",
          "type": "uint256"
        },
        {
          "indexed": false,
          "internalType": "uint256",
          "name": "timestamp",
          "type": "uint256"
        }
      ],
      "name": "OrderSettled",
      "type": "event"
    },
    {
      "anonymous": false,
      "inputs": [
        {
          "indexed": true,
          "internalType": "uint256",
          "name": "orderId",
          "type": "uint256"
        },
        {
          "indexed": false,
          "internalType": "enum OrderStatus",
          "name": "oldStatus",
          "type": "uint8"
        },
        {
          "indexed": false,
          "internalType": "enum OrderStatus",
          "name": "newStatus",
          "type": "uint8"
        },
        {
          "indexed": false,
          "internalType": "string",
          "name": "reason",
          "type": "string"
        },
        {
          "indexed": false,
          "internalType": "uint256",
          "name": "timestamp",
          "type": "uint256"
        }
      ],
      "name": "OrderStatusChanged",
      "type": "event"
    },
    {
      "anonymous": false,
      "inputs": [
        {
          "indexed": false,
          "internalType": "address",
          "name": "account",
          "type": "address"
        }
      ],
      "name": "Paused",
      "type": "event"
    },
    {
      "anonymous": false,
      "inputs": [
        {
          "indexed": true,
          "internalType": "uint256",
          "name": "orderId",
          "type": "uint256"
        },
        {
          "indexed": true,
          "internalType": "uint256",
          "name": "quoteId",
          "type": "uint256"
        },
        {
          "indexed": true,
          "internalType": "address",
          "name": "seller",
          "type": "address"
        },
        {
          "indexed": false,
          "internalType": "uint256",
          "name": "premiumRate",
          "type": "uint256"
        },
        {
          "indexed": false,
          "internalType": "uint256",
          "name": "timestamp",
          "type": "uint256"
        }
      ],
      "name": "QuoteSubmitted",
      "type": "event"
    },
    {
      "anonymous": false,
      "inputs": [
        {
          "indexed": true,
          "internalType": "bytes32",
          "name": "role",
          "type": "bytes32"
        },
        {
          "indexed": true,
          "internalType": "bytes32",
          "name": "previousAdminRole",
          "type": "bytes32"
        },
        {
          "indexed": true,
          "internalType": "bytes32",
          "name": "newAdminRole",
          "type": "bytes32"
        }
      ],
      "name": "RoleAdminChanged",
      "type": "event"
    },
    {
      "anonymous": false,
      "inputs": [
        {
          "indexed": true,
          "internalType": "bytes32",
          "name": "role",
          "type": "bytes32"
        },
        {
          "indexed": true,
          "internalType": "address",
          "name": "account",
          "type": "address"
        },
        {
          "indexed": true,
          "internalType": "address",
          "name": "sender",
          "type": "address"
        }
      ],
      "name": "RoleGranted",
      "type": "event"
    },
    {
      "anonymous": false,
      "inputs": [
        {
          "indexed": true,
          "internalType": "bytes32",
          "name": "role",
          "type": "bytes32"
        },
        {
          "indexed": true,
          "internalType": "address",
          "name": "account",
          "type": "address"
        },
        {
          "indexed": true,
          "internalType": "address",
          "name": "sender",
          "type": "address"
        }
      ],
      "name": "RoleRevoked",
      "type": "event"
    },
    {
      "anonymous": false,
      "inputs": [
        {
          "indexed": false,
          "internalType": "address",
          "name": "account",
          "type": "address"
        }
      ],
      "name": "Unpaused",
      "type": "event"
    },
    {
      "inputs": [],
      "name": "DEFAULT_ADMIN_ROLE",
      "outputs": [
        {
          "internalType": "bytes32",
          "name": "",
          "type": "bytes32"
        }
      ],
      "stateMutability": "view",
      "type": "function"
    },
    {
      "inputs": [
        {
          "internalType": "uint256",
          "name": "quoteId",
          "type": "uint256"
        }
      ],
      "name": "acceptQuote",
      "outputs": [],
      "stateMutability": "nonpayable",
      "type": "function"
    },
    {
      "inputs": [
        {
          "internalType": "uint256",
          "name": "orderId",
          "type": "uint256"
        },
        {
          "internalType": "uint256",
          "name": "amount",
          "type": "uint256"
        }
      ],
      "name": "addMargin",
      "outputs": [],
      "stateMutability": "nonpayable",
      "type": "function"
    },
    {
      "inputs": [
        {
          "internalType": "address",
          "name": "",
          "type": "address"
        },
        {
          "internalType": "uint256",
          "name": "",
          "type": "uint256"
        }
      ],
      "name": "buyerOrders",
      "outputs": [
        {
          "internalType": "uint256",
          "name": "",
          "type": "uint256"
        }
      ],
      "stateMutability": "view",
      "type": "function"
    },
    {
      "inputs": [
        {
          "internalType": "uint256",
          "name": "orderId",
          "type": "uint256"
        }
      ],
      "name": "cancelRFQ",
      "outputs": [],
      "stateMutability": "nonpayable",
      "type": "function"
    },
    {
      "inputs": [],
      "name": "config",
      "outputs": [
        {
          "internalType": "contract Config",
          "name": "",
          "type": "address"
        }
      ],
      "stateMutability": "view",
      "type": "function"
    },
    {
      "inputs": [
        {
          "internalType": "string",
          "name": "underlyingName",
          "type": "string"
        },
        {
          "internalType": "string",
          "name": "underlyingCode",
          "type": "string"
        },
        {
          "internalType": "string",
          "name": "market",
          "type": "string"
        },
        {
          "internalType": "string",
          "name": "country",
          "type": "string"
        },
        {
          "internalType": "string",
          "name": "refPrice",
          "type": "string"
        },
        {
          "internalType": "enum Direction",
          "name": "direction",
          "type": "uint8"
        },
        {
          "internalType": "uint256",
          "name": "notionalUSDT",
          "type": "uint256"
        },
        {
          "internalType": "uint256",
          "name": "expiryTimestamp",
          "type": "uint256"
        },
        {
          "internalType": "uint256",
          "name": "maxPremiumRate",
          "type": "uint256"
        },
        {
          "internalType": "uint256",
          "name": "minMarginRate",
          "type": "uint256"
        },
        {
          "internalType": "enum SellerType",
          "name": "acceptedSellerType",
          "type": "uint8"
        },
        {
          "internalType": "address",
          "name": "designatedSeller",
          "type": "address"
        },
        {
          "internalType": "uint256",
          "name": "arbitrationWindow",
          "type": "uint256"
        },
        {
          "internalType": "uint256",
          "name": "marginCallDeadline",
          "type": "uint256"
        },
        {
          "internalType": "bool",
          "name": "dividendAdjustment",
          "type": "bool"
        },
        {
          "internalType": "enum LiquidationRule",
          "name": "liquidationRule",
          "type": "uint8"
        },
        {
          "internalType": "uint8",
          "name": "consecutiveDays",
          "type": "uint8"
        },
        {
          "internalType": "uint8",
          "name": "dailyLimitPercent",
          "type": "uint8"
        },
        {
          "internalType": "enum FeedRule",
          "name": "feedRule",
          "type": "uint8"
        }
      ],
      "name": "createBuyerRFQ",
      "outputs": [
        {
          "internalType": "uint256",
          "name": "orderId",
          "type": "uint256"
        }
      ],
      "stateMutability": "nonpayable",
      "type": "function"
    },
    {
      "inputs": [
        {
          "internalType": "string",
          "name": "underlyingName",
          "type": "string"
        },
        {
          "internalType": "string",
          "name": "underlyingCode",
          "type": "string"
        },
        {
          "internalType": "string",
          "name": "market",
          "type": "string"
        },
        {
          "internalType": "string",
          "name": "country",
          "type": "string"
        },
        {
          "internalType": "string",
          "name": "refPrice",
          "type": "string"
        },
        {
          "internalType": "enum Direction",
          "name": "direction",
          "type": "uint8"
        },
        {
          "internalType": "uint256",
          "name": "notionalUSDT",
          "type": "uint256"
        },
        {
          "internalType": "uint256",
          "name": "expiryTimestamp",
          "type": "uint256"
        },
        {
          "internalType": "uint256",
          "name": "premiumRate",
          "type": "uint256"
        },
        {
          "internalType": "uint256",
          "name": "marginAmount",
          "type": "uint256"
        },
        {
          "internalType": "enum LiquidationRule",
          "name": "liquidationRule",
          "type": "uint8"
        },
        {
          "internalType": "uint8",
          "name": "consecutiveDays",
          "type": "uint8"
        },
        {
          "internalType": "uint8",
          "name": "dailyLimitPercent",
          "type": "uint8"
        },
        {
          "internalType": "uint256",
          "name": "arbitrationWindow",
          "type": "uint256"
        },
        {
          "internalType": "bool",
          "name": "dividendAdjustment",
          "type": "bool"
        }
      ],
      "name": "createSellerOrder",
      "outputs": [
        {
          "internalType": "uint256",
          "name": "orderId",
          "type": "uint256"
        }
      ],
      "stateMutability": "nonpayable",
      "type": "function"
    },
    {
      "inputs": [
        {
          "internalType": "uint256",
          "name": "orderId",
          "type": "uint256"
        }
      ],
      "name": "earlyExercise",
      "outputs": [],
      "stateMutability": "nonpayable",
      "type": "function"
    },
    {
      "inputs": [
        {
          "internalType": "uint256",
          "name": "orderId",
          "type": "uint256"
        }
      ],
      "name": "forceLiquidate",
      "outputs": [],
      "stateMutability": "nonpayable",
      "type": "function"
    },
    {
      "inputs": [
        {
          "internalType": "address",
          "name": "buyer",
          "type": "address"
        }
      ],
      "name": "getBuyerOrders",
      "outputs": [
        {
          "internalType": "uint256[]",
          "name": "",
          "type": "uint256[]"
        }
      ],
      "stateMutability": "view",
      "type": "function"
    },
    {
      "inputs": [
        {
          "internalType": "uint256",
          "name": "orderId",
          "type": "uint256"
        }
      ],
      "name": "getOrder",
      "outputs": [
        {
          "components": [
            {
              "internalType": "uint256",
              "name": "orderId",
              "type": "uint256"
            },
            {
              "internalType": "address",
              "name": "buyer",
              "type": "address"
            },
            {
              "internalType": "address",
              "name": "seller",
              "type": "address"
            },
            {
              "internalType": "string",
              "name": "underlyingName",
              "type": "string"
            },
            {
              "internalType": "string",
              "name": "underlyingCode",
              "type": "string"
            },
            {
              "internalType": "string",
              "name": "market",
              "type": "string"
            },
            {
              "internalType": "string",
              "name": "country",
              "type": "string"
            },
            {
              "internalType": "string",
              "name": "refPrice",
              "type": "string"
            },
            {
              "internalType": "enum Direction",
              "name": "direction",
              "type": "uint8"
            },
            {
              "internalType": "uint256",
              "name": "notionalUSDT",
              "type": "uint256"
            },
            {
              "internalType": "uint256",
              "name": "strikePrice",
              "type": "uint256"
            },
            {
              "internalType": "uint256",
              "name": "expiryTimestamp",
              "type": "uint256"
            },
            {
              "internalType": "uint256",
              "name": "premiumRate",
              "type": "uint256"
            },
            {
              "internalType": "uint256",
              "name": "premiumAmount",
              "type": "uint256"
            },
            {
              "internalType": "uint256",
              "name": "initialMargin",
              "type": "uint256"
            },
            {
              "internalType": "uint256",
              "name": "currentMargin",
              "type": "uint256"
            },
            {
              "internalType": "uint256",
              "name": "minMarginRate",
              "type": "uint256"
            },
            {
              "internalType": "enum LiquidationRule",
              "name": "liquidationRule",
              "type": "uint8"
            },
            {
              "internalType": "uint8",
              "name": "consecutiveDays",
              "type": "uint8"
            },
            {
              "internalType": "uint8",
              "name": "dailyLimitPercent",
              "type": "uint8"
            },
            {
              "internalType": "uint8",
              "name": "exerciseDelay",
              "type": "uint8"
            },
            {
              "internalType": "enum SellerType",
              "name": "sellerType",
              "type": "uint8"
            },
            {
              "internalType": "address",
              "name": "designatedSeller",
              "type": "address"
            },
            {
              "internalType": "uint256",
              "name": "arbitrationWindow",
              "type": "uint256"
            },
            {
              "internalType": "uint256",
              "name": "marginCallDeadline",
              "type": "uint256"
            },
            {
              "internalType": "bool",
              "name": "dividendAdjustment",
              "type": "bool"
            },
            {
              "internalType": "enum FeedRule",
              "name": "feedRule",
              "type": "uint8"
            },
            {
              "internalType": "enum OrderStatus",
              "name": "status",
              "type": "uint8"
            },
            {
              "internalType": "uint256",
              "name": "createdAt",
              "type": "uint256"
            },
            {
              "internalType": "uint256",
              "name": "matchedAt",
              "type": "uint256"
            },
            {
              "internalType": "uint256",
              "name": "settledAt",
              "type": "uint256"
            },
            {
              "internalType": "uint256",
              "name": "lastFeedPrice",
              "type": "uint256"
            }
          ],
          "internalType": "struct Order",
          "name": "",
          "type": "tuple"
        }
      ],
      "stateMutability": "view",
      "type": "function"
    },
    {
      "inputs": [
        {
          "internalType": "string",
          "name": "country",
          "type": "string"
        }
      ],
      "name": "getOrdersByCountry",
      "outputs": [
        {
          "internalType": "uint256[]",
          "name": "",
          "type": "uint256[]"
        }
      ],
      "stateMutability": "view",
      "type": "function"
    },
    {
      "inputs": [
        {
          "internalType": "string",
          "name": "market",
          "type": "string"
        }
      ],
      "name": "getOrdersByMarket",
      "outputs": [
        {
          "internalType": "uint256[]",
          "name": "",
          "type": "uint256[]"
        }
      ],
      "stateMutability": "view",
      "type": "function"
    },
    {
      "inputs": [
        {
          "internalType": "uint256",
          "name": "orderId",
          "type": "uint256"
        }
      ],
      "name": "getQuotes",
      "outputs": [
        {
          "components": [
            {
              "internalType": "uint256",
              "name": "quoteId",
              "type": "uint256"
            },
            {
              "internalType": "uint256",
              "name": "orderId",
              "type": "uint256"
            },
            {
              "internalType": "address",
              "name": "seller",
              "type": "address"
            },
            {
              "internalType": "enum SellerType",
              "name": "sellerType",
              "type": "uint8"
            },
            {
              "internalType": "uint256",
              "name": "premiumRate",
              "type": "uint256"
            },
            {
              "internalType": "uint256",
              "name": "premiumAmount",
              "type": "uint256"
            },
            {
              "internalType": "uint256",
              "name": "marginRate",
              "type": "uint256"
            },
            {
              "internalType": "uint256",
              "name": "marginAmount",
              "type": "uint256"
            },
            {
              "internalType": "enum LiquidationRule",
              "name": "liquidationRule",
              "type": "uint8"
            },
            {
              "internalType": "uint8",
              "name": "consecutiveDays",
              "type": "uint8"
            },
            {
              "internalType": "uint8",
              "name": "dailyLimitPercent",
              "type": "uint8"
            },
            {
              "internalType": "uint256",
              "name": "createdAt",
              "type": "uint256"
            },
            {
              "internalType": "uint256",
              "name": "expiresAt",
              "type": "uint256"
            },
            {
              "internalType": "enum QuoteStatus",
              "name": "status",
              "type": "uint8"
            }
          ],
          "internalType": "struct Quote[]",
          "name": "",
          "type": "tuple[]"
        }
      ],
      "stateMutability": "view",
      "type": "function"
    },
    {
      "inputs": [
        {
          "internalType": "bytes32",
          "name": "role",
          "type": "bytes32"
        }
      ],
      "name": "getRoleAdmin",
      "outputs": [
        {
          "internalType": "bytes32",
          "name": "",
          "type": "bytes32"
        }
      ],
      "stateMutability": "view",
      "type": "function"
    },
    {
      "inputs": [
        {
          "internalType": "address",
          "name": "seller",
          "type": "address"
        }
      ],
      "name": "getSellerOrders",
      "outputs": [
        {
          "internalType": "uint256[]",
          "name": "",
          "type": "uint256[]"
        }
      ],
      "stateMutability": "view",
      "type": "function"
    },
    {
      "inputs": [
        {
          "internalType": "bytes32",
          "name": "role",
          "type": "bytes32"
        },
        {
          "internalType": "address",
          "name": "account",
          "type": "address"
        }
      ],
      "name": "grantRole",
      "outputs": [],
      "stateMutability": "nonpayable",
      "type": "function"
    },
    {
      "inputs": [
        {
          "internalType": "bytes32",
          "name": "role",
          "type": "bytes32"
        },
        {
          "internalType": "address",
          "name": "account",
          "type": "address"
        }
      ],
      "name": "hasRole",
      "outputs": [
        {
          "internalType": "bool",
          "name": "",
          "type": "bool"
        }
      ],
      "stateMutability": "view",
      "type": "function"
    },
    {
      "inputs": [
        {
          "internalType": "uint256",
          "name": "orderId",
          "type": "uint256"
        }
      ],
      "name": "initiateArbitration",
      "outputs": [],
      "stateMutability": "payable",
      "type": "function"
    },
    {
      "inputs": [],
      "name": "nextOrderId",
      "outputs": [
        {
          "internalType": "uint256",
          "name": "",
          "type": "uint256"
        }
      ],
      "stateMutability": "view",
      "type": "function"
    },
    {
      "inputs": [],
      "name": "nextQuoteId",
      "outputs": [
        {
          "internalType": "uint256",
          "name": "",
          "type": "uint256"
        }
      ],
      "stateMutability": "view",
      "type": "function"
    },
    {
      "inputs": [
        {
          "internalType": "uint256",
          "name": "",
          "type": "uint256"
        },
        {
          "internalType": "uint256",
          "name": "",
          "type": "uint256"
        }
      ],
      "name": "orderQuotes",
      "outputs": [
        {
          "internalType": "uint256",
          "name": "quoteId",
          "type": "uint256"
        },
        {
          "internalType": "uint256",
          "name": "orderId",
          "type": "uint256"
        },
        {
          "internalType": "address",
          "name": "seller",
          "type": "address"
        },
        {
          "internalType": "enum SellerType",
          "name": "sellerType",
          "type": "uint8"
        },
        {
          "internalType": "uint256",
          "name": "premiumRate",
          "type": "uint256"
        },
        {
          "internalType": "uint256",
          "name": "premiumAmount",
          "type": "uint256"
        },
        {
          "internalType": "uint256",
          "name": "marginRate",
          "type": "uint256"
        },
        {
          "internalType": "uint256",
          "name": "marginAmount",
          "type": "uint256"
        },
        {
          "internalType": "enum LiquidationRule",
          "name": "liquidationRule",
          "type": "uint8"
        },
        {
          "internalType": "uint8",
          "name": "consecutiveDays",
          "type": "uint8"
        },
        {
          "internalType": "uint8",
          "name": "dailyLimitPercent",
          "type": "uint8"
        },
        {
          "internalType": "uint256",
          "name": "createdAt",
          "type": "uint256"
        },
        {
          "internalType": "uint256",
          "name": "expiresAt",
          "type": "uint256"
        },
        {
          "internalType": "enum QuoteStatus",
          "name": "status",
          "type": "uint8"
        }
      ],
      "stateMutability": "view",
      "type": "function"
    },
    {
      "inputs": [
        {
          "internalType": "uint256",
          "name": "",
          "type": "uint256"
        }
      ],
      "name": "orders",
      "outputs": [
        {
          "internalType": "uint256",
          "name": "orderId",
          "type": "uint256"
        },
        {
          "internalType": "address",
          "name": "buyer",
          "type": "address"
        },
        {
          "internalType": "address",
          "name": "seller",
          "type": "address"
        },
        {
          "internalType": "string",
          "name": "underlyingName",
          "type": "string"
        },
        {
          "internalType": "string",
          "name": "underlyingCode",
          "type": "string"
        },
        {
          "internalType": "string",
          "name": "market",
          "type": "string"
        },
        {
          "internalType": "string",
          "name": "country",
          "type": "string"
        },
        {
          "internalType": "string",
          "name": "refPrice",
          "type": "string"
        },
        {
          "internalType": "enum Direction",
          "name": "direction",
          "type": "uint8"
        },
        {
          "internalType": "uint256",
          "name": "notionalUSDT",
          "type": "uint256"
        },
        {
          "internalType": "uint256",
          "name": "strikePrice",
          "type": "uint256"
        },
        {
          "internalType": "uint256",
          "name": "expiryTimestamp",
          "type": "uint256"
        },
        {
          "internalType": "uint256",
          "name": "premiumRate",
          "type": "uint256"
        },
        {
          "internalType": "uint256",
          "name": "premiumAmount",
          "type": "uint256"
        },
        {
          "internalType": "uint256",
          "name": "initialMargin",
          "type": "uint256"
        },
        {
          "internalType": "uint256",
          "name": "currentMargin",
          "type": "uint256"
        },
        {
          "internalType": "uint256",
          "name": "minMarginRate",
          "type": "uint256"
        },
        {
          "internalType": "enum LiquidationRule",
          "name": "liquidationRule",
          "type": "uint8"
        },
        {
          "internalType": "uint8",
          "name": "consecutiveDays",
          "type": "uint8"
        },
        {
          "internalType": "uint8",
          "name": "dailyLimitPercent",
          "type": "uint8"
        },
        {
          "internalType": "uint8",
          "name": "exerciseDelay",
          "type": "uint8"
        },
        {
          "internalType": "enum SellerType",
          "name": "sellerType",
          "type": "uint8"
        },
        {
          "internalType": "address",
          "name": "designatedSeller",
          "type": "address"
        },
        {
          "internalType": "uint256",
          "name": "arbitrationWindow",
          "type": "uint256"
        },
        {
          "internalType": "uint256",
          "name": "marginCallDeadline",
          "type": "uint256"
        },
        {
          "internalType": "bool",
          "name": "dividendAdjustment",
          "type": "bool"
        },
        {
          "internalType": "enum FeedRule",
          "name": "feedRule",
          "type": "uint8"
        },
        {
          "internalType": "enum OrderStatus",
          "name": "status",
          "type": "uint8"
        },
        {
          "internalType": "uint256",
          "name": "createdAt",
          "type": "uint256"
        },
        {
          "internalType": "uint256",
          "name": "matchedAt",
          "type": "uint256"
        },
        {
          "internalType": "uint256",
          "name": "settledAt",
          "type": "uint256"
        },
        {
          "internalType": "uint256",
          "name": "lastFeedPrice",
          "type": "uint256"
        }
      ],
      "stateMutability": "view",
      "type": "function"
    },
    {
      "inputs": [],
      "name": "pause",
      "outputs": [],
      "stateMutability": "nonpayable",
      "type": "function"
    },
    {
      "inputs": [],
      "name": "paused",
      "outputs": [
        {
          "internalType": "bool",
          "name": "",
          "type": "bool"
        }
      ],
      "stateMutability": "view",
      "type": "function"
    },
    {
      "inputs": [
        {
          "internalType": "uint256",
          "name": "",
          "type": "uint256"
        }
      ],
      "name": "quotes",
      "outputs": [
        {
          "internalType": "uint256",
          "name": "quoteId",
          "type": "uint256"
        },
        {
          "internalType": "uint256",
          "name": "orderId",
          "type": "uint256"
        },
        {
          "internalType": "address",
          "name": "seller",
          "type": "address"
        },
        {
          "internalType": "enum SellerType",
          "name": "sellerType",
          "type": "uint8"
        },
        {
          "internalType": "uint256",
          "name": "premiumRate",
          "type": "uint256"
        },
        {
          "internalType": "uint256",
          "name": "premiumAmount",
          "type": "uint256"
        },
        {
          "internalType": "uint256",
          "name": "marginRate",
          "type": "uint256"
        },
        {
          "internalType": "uint256",
          "name": "marginAmount",
          "type": "uint256"
        },
        {
          "internalType": "enum LiquidationRule",
          "name": "liquidationRule",
          "type": "uint8"
        },
        {
          "internalType": "uint8",
          "name": "consecutiveDays",
          "type": "uint8"
        },
        {
          "internalType": "uint8",
          "name": "dailyLimitPercent",
          "type": "uint8"
        },
        {
          "internalType": "uint256",
          "name": "createdAt",
          "type": "uint256"
        },
        {
          "internalType": "uint256",
          "name": "expiresAt",
          "type": "uint256"
        },
        {
          "internalType": "enum QuoteStatus",
          "name": "status",
          "type": "uint8"
        }
      ],
      "stateMutability": "view",
      "type": "function"
    },
    {
      "inputs": [
        {
          "internalType": "bytes32",
          "name": "role",
          "type": "bytes32"
        },
        {
          "internalType": "address",
          "name": "callerConfirmation",
          "type": "address"
        }
      ],
      "name": "renounceRole",
      "outputs": [],
      "stateMutability": "nonpayable",
      "type": "function"
    },
    {
      "inputs": [
        {
          "internalType": "uint256",
          "name": "orderId",
          "type": "uint256"
        },
        {
          "internalType": "enum FeedTier",
          "name": "tier",
          "type": "uint8"
        }
      ],
      "name": "requestFeed",
      "outputs": [],
      "stateMutability": "payable",
      "type": "function"
    },
    {
      "inputs": [
        {
          "internalType": "bytes32",
          "name": "role",
          "type": "bytes32"
        },
        {
          "internalType": "address",
          "name": "account",
          "type": "address"
        }
      ],
      "name": "revokeRole",
      "outputs": [],
      "stateMutability": "nonpayable",
      "type": "function"
    },
    {
      "inputs": [
        {
          "internalType": "address",
          "name": "",
          "type": "address"
        },
        {
          "internalType": "uint256",
          "name": "",
          "type": "uint256"
        }
      ],
      "name": "sellerOrders",
      "outputs": [
        {
          "internalType": "uint256",
          "name": "",
          "type": "uint256"
        }
      ],
      "stateMutability": "view",
      "type": "function"
    },
    {
      "inputs": [
        {
          "internalType": "address",
          "name": "_config",
          "type": "address"
        }
      ],
      "name": "setConfig",
      "outputs": [],
      "stateMutability": "nonpayable",
      "type": "function"
    },
    {
      "inputs": [
        {
          "internalType": "address",
          "name": "_vaultManager",
          "type": "address"
        }
      ],
      "name": "setVaultManager",
      "outputs": [],
      "stateMutability": "nonpayable",
      "type": "function"
    },
    {
      "inputs": [
        {
          "internalType": "uint256",
          "name": "orderId",
          "type": "uint256"
        }
      ],
      "name": "settle",
      "outputs": [],
      "stateMutability": "nonpayable",
      "type": "function"
    },
    {
      "inputs": [
        {
          "internalType": "uint256",
          "name": "orderId",
          "type": "uint256"
        },
        {
          "internalType": "uint256",
          "name": "premiumRate",
          "type": "uint256"
        },
        {
          "internalType": "uint256",
          "name": "marginRate",
          "type": "uint256"
        },
        {
          "internalType": "enum LiquidationRule",
          "name": "liquidationRule",
          "type": "uint8"
        },
        {
          "internalType": "uint8",
          "name": "consecutiveDays",
          "type": "uint8"
        },
        {
          "internalType": "uint8",
          "name": "dailyLimitPercent",
          "type": "uint8"
        }
      ],
      "name": "submitQuote",
      "outputs": [
        {
          "internalType": "uint256",
          "name": "quoteId",
          "type": "uint256"
        }
      ],
      "stateMutability": "nonpayable",
      "type": "function"
    },
    {
      "inputs": [
        {
          "internalType": "bytes4",
          "name": "interfaceId",
          "type": "bytes4"
        }
      ],
      "name": "supportsInterface",
      "outputs": [
        {
          "internalType": "bool",
          "name": "",
          "type": "bool"
        }
      ],
      "stateMutability": "view",
      "type": "function"
    },
    {
      "inputs": [],
      "name": "unpause",
      "outputs": [],
      "stateMutability": "nonpayable",
      "type": "function"
    },
    {
      "inputs": [],
      "name": "usdt",
      "outputs": [
        {
          "internalType": "contract IERC20",
          "name": "",
          "type": "address"
        }
      ],
      "stateMutability": "view",
      "type": "function"
    },
    {
      "inputs": [],
      "name": "vaultManager",
      "outputs": [
        {
          "internalType": "contract VaultManager",
          "name": "",
          "type": "address"
        }
      ],
      "stateMutability": "view",
      "type": "function"
    },
    {
      "inputs": [
        {
          "internalType": "uint256",
          "name": "orderId",
          "type": "uint256"
        },
        {
          "internalType": "uint256",
          "name": "amount",
          "type": "uint256"
        }
      ],
      "name": "withdrawExcessMargin",
      "outputs": [],
      "stateMutability": "nonpayable",
      "type": "function"
    }
  ],
  "bytecode": "0x608034620000f557601f62004efc38819003918201601f19168301916001600160401b03831184841017620000fa57808492608094604052833981010312620000f5578062000052620000e49262000110565b90620000616020820162000110565b906200007e6060620000766040840162000110565b920162000110565b6001808055600581905560065560028054610100600160a81b03191660089590951b610100600160a81b031694909417909355600380546001600160a01b03199081166001600160a01b0394851617909155600480549091169190921617905562000125565b50604051614d459081620001b78239f35b600080fd5b634e487b7160e01b600052604160045260246000fd5b51906001600160a01b0382168203620000f557565b6001600160a01b031660008181527fad3228b676f7d3cd4284a5443f17f1962b36e491b30a40b2405849e597ba5fb5602052604081205490919060ff16620001b257818052816020526040822081835260205260408220600160ff1982541617905533917f2f8788117e7eff1d82e926ec794901d17c78024a50270940304540a733656f0d8180a4600190565b509056fe61024080604052600436101561001457600080fd5b600090813560e01c90816301ffc9a7146142af5750806320e3dbd414614265578063248a9ca3146142395780632a58b3301461421b5780632f2ff15d146141de5780632f48ab7d146141b557806336568abe1461416d5780633f4ba83a146141025780634500cb60146140ba57806345cb45051461406457806346f8226c14613e895780634efef6aa14613e6b5780635c975abb14613e485780635d7ffe7b146139675780636af58cff146136d95780636ca14389146135ad5780636dbe7579146134e55780637203a58214612f1757806379502c5514612eea5780637d90042114612e5d5780638456cb5914612e025780638a4adf2414612dd95780638df82800146128c557806391d148541461287a578063979b4e6d14611e9c578063a217fddf14611e80578063a45f2ebc14611e0d578063a61cf0d414611d7a578063a85c38ef14611a2c578063b543503e146119e7578063bc0ef26b14611823578063cf3fec4314611796578063d049bfef14611531578063d09ef24114611014578063d1e745b114610e29578063d41194b814610cab578063d547741f14610c6a578063e1fc634114610309578063e4cbac40146102865763f7ff6426146101da57600080fd5b34610283576101e83661462e565b908252600860205260408220805482101561027f576102079250614644565b5080549061027b600182015460028301549260038101549460048201549260058301549160068401549060078501549160088601549460ff600a600989015498015416976040519b8c9b8c60ff8860101c169860ff808a60081c1699169760ff8460a01c169360018060a01b0316926143ed565b0390f35b8280fd5b80fd5b503461028357602080600319360112610305576001600160a01b036102a9614304565b168252600b815260408220916040518092808554928381520194835280832092905b8282106102ee5761027b856102e281890382614512565b6040519182918261438b565b8354865294850194600193840193909101906102cb565b5080fd5b5034610283576101e0366003190112610283576004356001600160401b0381116103055761033b90369060040161435e565b90916024356001600160401b0381116103055761035c90369060040161435e565b93906044356001600160401b038111610c665761037d90369060040161435e565b906064356001600160401b038111610c625761039d90369060040161435e565b90946084356001600160401b038111610c5e576103be90369060040161435e565b600260a4351015610c5a576003610144351015610c5a5760ff61016435166101643503610c425760ff61018435166101843503610c42576103fd6143c6565b91610406614a37565b61040e614a19565b61041b60c43515156147d1565b6104284260e4351161482c565b600480546003546002546040516337382d3960e21b8152936001600160a01b039384169392831692602092869291839160081c165afa918215610c4f578d92610c14575b61047893503390614972565b61012435610bec575b6005549a61048e8c6148d1565b6005558b8b52600760205260408b208c81556002810180546001600160a01b03191633179055946001600160401b038211610bd85781906104d26003880154614477565b601f8111610b87575b508c90601f8311600114610b1b578d92610b10575b50508160011b916000199060031b1c19161760038501555b6001600160401b038c116108c6576105236004850154614477565b601f8111610aca575b508b8a601f8211600114610a5b578b91610a50575b5060001960038e901b1c191660018d901b1760048501555b6001600160401b0387116108c6576105746005850154614477565b601f8111610a0b575b50868a601f82116001146109a1578b91610996575b508760011b906000198960031b1c19161760058501555b6001600160401b0385116108c6576105c46006850154614477565b601f8111610951575b50848a601f82116001146108e5578b916108da575b508560011b906000198760031b1c19161760068501555b6001600160401b0382116108c6576106146007850154614477565b601f8111610881575b509260209b9694928a928c9997958490601f83116001146107d557958f61078c9d6107448e60408a859f9e9b9a6107749e9a8a859f9b869b8a9f9d61075c9e926107ca575b50508160011b916000199060031b1c19161760078301555b61068960a435600884016148f6565b60c435600983015560e435600b8301556127106106b16101043580600c86015560c435614a9f565b04600d83015561012435600e83015561012435600f830155610704601183016106dd6101443582614933565b805462ff00006101843560101b1662ffff001990911661ff006101643560081b1617179055565b6101a43560128301556107276014830191829060ff801983541691151516179055565b62ff0000198154169055601542910155338152600b86522061493d565b8260405193849283378101600c81520301902061493d565b8260405193849283378101600d81520301902061493d565b8260405193849283378101600e81520301902061493d565b6040519081524283820152817fc0c6ed2669febbe340d8737e8ec17254ffd9e038b54a4585ff70ac3ca18956aa60403393a360018055604051908152f35b013590503880610662565b9b94939291906007840185528f852090855b601f198416811061084f575060209a999661074461078c9f8f9a948e996107749d9961075c9960018f9a6040958f9a978d9883601f19811610610835575b505050811b01600783015561067a565b0135600019600384901b60f8161c19169055388080610825565b9295509396989a9c929597999b508f600181928686013581550194019101928d94918f9c9a9896939d9b9997946107e7565b600785018b5260208b20601f840160051c8101602085106108bf575b601f830160051c820181106108b357505061061d565b6000815560010161089d565b508061089d565b634e487b7160e01b8a52604160045260248afd5b9050890135386105e2565b600686018c5260208c2091508b5b8b601f198916821061093957505086601f1981161061091f575b5050600185811b0160068501556105f9565b8a0135600019600388901b60f8161c19169055388061090d565b600183946020939484930135815501930191016108f3565b600685018b5260208b20601f870160051c81016020881061098f575b601f830160051c820181106109835750506105cd565b6000815560010161096d565b508061096d565b905086013538610592565b600586018c5260208c2091508b5b601f198a1681106109f3575088601f198116106109d9575b5050600187811b0160058501556105a9565b87013560001960038a901b60f8161c1916905538806109c7565b9091602060018192858c0135815501930191016109af565b600585018b5260208b20601f890160051c810160208a10610a49575b601f830160051c82018110610a3d57505061057d565b60008155600101610a27565b5080610a27565b905088013538610541565b600486018c5260208c2091508b8e5b8b601f1982168310610ab05750601f198116109050610a96575b505060018c811b016004850155610559565b89013560001960038f901b60f8161c191690553880610a84565b600184956020939495849301358155019401920190610a6a565b600485018b5260208b208d6020601f820160051c83019110610b09575b601f830160051c82018110610afd57505061052c565b60008155600101610ae7565b5080610ae7565b0135905038806104f0565b600388018e5260208e208e9450915b601f1984168510610b6f576001945083601f19811610610b55575b505050811b016003850155610508565b0135600019600384901b60f8161c19169055388080610b45565b81810135835560209485019460019093019201610b2a565b909150600387018d5260208d20601f840160051c810160208510610bd1575b90849392915b601f830160051c82018110610bc25750506104db565b60008155859450600101610bac565b5080610ba6565b634e487b7160e01b8c52604160045260248cfd5b600454600354610c0f9161012435916001600160a01b0390811691339116614972565b610481565b91506020833d602011610c47575b81610c2f60209383614512565b81010312610c425761047892519161046c565b600080fd5b3d9150610c22565b6040513d8f823e3d90fd5b8880fd5b8780fd5b8580fd5b8380fd5b503461028357604036600319011261028357610ca7600435610c8a61431a565b9080845283602052610ca260016040862001546146b8565b61475c565b5080f35b503461028357610cba3661462e565b9080151580610e1e575b610ccd90614adf565b808352600760205260408320600201546001600160a01b039290610cf49084163314614c39565b610cfc614a37565b610d04614a19565b8015610dcd5781845260076020526040842060ff601482015460101c16600b811015610db957610d5e91610d3c6004600f9314614c85565b0191610d578184549680600454169060035416903390614972565b8254614ad2565b809155604051928352602083015260806040830152600360808301526218591960ea1b60a08301524260608301527f2cf5022bdd8fefe86d09412967e028fa9a8cf1e1a3989d47dfd9fc64a22afa8660c03393a36001805580f35b634e487b7160e01b86526021600452602486fd5b60405162461bcd60e51b8152602060048201526024808201527f4f7074696f6e73436f72653a20616d6f756e74206d75737420626520706f73696044820152637469766560e01b6064820152608490fd5b506005548110610cc4565b503461028357610e383661462e565b9080151580611009575b610e4b90614adf565b808352600760205260408320600201546001600160a01b0390610e719082163314614c39565b610e79614a37565b610e81614a19565b8184526007602052604084209260ff601485015460101c16600b811015610db9576004610eae9114614c85565b600f840191610ec3600e845496015486614cd1565b8211610faa5781610ed5879387614cd1565b84558160035416916004541690823b15610c6657604051636924faa760e11b81523360048201526001600160a01b0392909216602483015260448201529082908290606490829084905af18015610f9f57610f8b575b5050546040519283526020830152608060408301526008608083015267776974686472617760c01b60a08301524260608301527f2cf5022bdd8fefe86d09412967e028fa9a8cf1e1a3989d47dfd9fc64a22afa8660c03393a36001805580f35b610f94906144e3565b610c66578338610f2b565b6040513d84823e3d90fd5b60405162461bcd60e51b815260206004820152603160248201527f4f7074696f6e73436f72653a2063616e6e6f742077697468647261772062656c60448201527037bb9034b734ba34b0b61036b0b933b4b760791b6064820152608490fd5b506005548110610e42565b503461028357602036600319011261028357806103e0604051611036816144f6565b82815282602082015282604082015260608082015260606080820152606060a0820152606060c0820152606060e08201528261010082015282610120820152826101408201528261016082015282610180820152826101a0820152826101c0820152826101e08201528261020082015282610220820152826102408201528261026082015282610280820152826102a0820152826102c0820152826102e08201528261030082015282610320820152826103408201528261036082015282610380820152826103a0820152826103c08201520152600435815260076020526040812060405191611125836144f6565b8154835260018201546001600160a01b039081166020850152600283015416604084015261115560038301614533565b606084015261116660048301614533565b608084015261117760058301614533565b60a084015261118860068301614533565b60c084015261119960078301614533565b60e084015260ff6008830154166111af81614617565b6101008401526009820154610120840152600a820154610140840152600b820154610160840152600c820154610180840152600d8201546101a0840152600e8201546101c0840152600f8201546101e08401526010820154610200840152601182015461121e60ff82166143d6565b60ff811661022085015260ff8160081c1661024085015260ff8160101c1661026085015260ff8160181c1661028085015261125e60ff8260201c166143d6565b60ff8160201c166102a085015260018060a01b039060281c166102c084015260128201546102e0840152601382015461030084015260148201549060ff821615156103208501526112b460ff8360081c16614617565b60ff8260081c16610340850152600b60ff8360101c16101561151d57509060ff60189260101c16610360840152601581015461038084015260168101546103a084015260178101546103c084015201546103e08201526040518091602082528051602083015260018060a01b03602082015116604083015260018060a01b0360408201511660608301526103e06113bf61135f606084015161040060808701526104208601906145d7565b6113a9611395611381608087015193601f1994858a83030160a08b01526145d7565b60a0870151848983030160c08a01526145d7565b60c0860151838883030160e08901526145d7565b9060e085015190868303016101008701526145d7565b916101008101516113cf81614617565b6101208501526101208101516101408501526101408101516101608501526101608101516101808501526101808101516101a08501526101a08101516101c08501526101c08101516101e08501526101e0810151610200850152610200810151610220850152610220810151611444816143d6565b61024085015260ff6102408201511661026085015260ff6102608201511661028085015260ff610280820151166102a08501526102a0810151611486816143d6565b6102c085015260018060a01b036102c0820151166102e08501526102e081015161030085015261030081015161032085015261032081015115156103408501526103408101516114d581614617565b6103608501526114ef610360820151610380860190614621565b6103808101516103a08501526103a08101516103c08501526103c08101518285015201516104008301520390f35b634e487b7160e01b81526021600452602490fd5b50346102835760209081600319360112610283576004358152600880835260408220928354916001600160401b038311611782579184919260405191600561157d8683831b0185614512565b818452858401809588528688209188915b84831061168a575050505050506040519280840191818552518092526040840192945b8281106115be5784840385f35b909192826101c060019261167b8951805183528481015185840152858060a01b036040820151166040840152606080820151906115fa826143d6565b8401526080808201519084015260a0808201519084015260c0808201519084015260e081015160e08401526101008082015190611636826143d6565b84015260ff6101208181840151169085015261014090818301511690840152610160808201519084015261018080820151908401526101a080910151908301906143e0565b019601910194929190946115b1565b604099989697995161169b816144b1565b8454815260018501548882015260028501546001600160a01b038116604083015260ff9060a090811c82166116cf816143d6565b6060840152600387015460808401526004870154908301528386015460c0830152600686015460e083015280600787015481811661170c816143d6565b61010085015281818b1c1661012085015260101c16610140830152878601546101608301526009860154610180830152600a86015416600481101561176c57600192828a926101a0600b950152815201940192019192989695979861158e565b634e487b7160e01b600052602160045260246000fd5b634e487b7160e01b84526041600452602484fd5b503461028357602080600319360112610305576004356001600160401b03811161027f576117c98291369060040161435e565b91908260405193849283378101600c815203019020916040518092808554928381520194835280832092905b82821061180c5761027b856102e281890382614512565b8354865294850194600193840193909101906117f5565b5034610283576020806003193601126103055760043590811515806119dc575b61184c90614adf565b8183526007815261186d60018060a01b036001604086200154163314614a5a565b611875614a37565b61187d614a19565b81835260078152601460408420019081549160ff8360101c1692600b841015610db957831580156119d2575b1561197e5791600a91620a0000600080516020614cf0833981519152959462ff00001916179055847fb848a62ef7171019d243ed8f5b8e1e6c32cafed0b7fc99da26cb2fc2e7d533ec604051604081528061192460408201604090600f81526e189d5e595c8818d85b98d95b1b1959608a1b60208201520190565b42868301520390a26119396040518094614621565b820152608060408201528061196e60808201604090600f81526e189d5e595c8818d85b98d95b1b1959608a1b60208201520190565b4260608301520390a26001805580f35b60405162461bcd60e51b815260048101849052602660248201527f4f7074696f6e73436f72653a2063616e6e6f742063616e63656c206166746572604482015265040dac2e8c6d60d31b6064820152608490fd5b50600184146118a9565b506005548210611843565b503461028357602036600319011261028357611a01614304565b611a09614660565b60018060a01b03166bffffffffffffffffffffffff60a01b600354161760035580f35b5034610283576020366003190112610283576004358152600760205260409020610200819052805460e052600181015460028201546001600160a01b03908116610120521690611a7e90600301614533565b6101005261020051600401611a9290614533565b61020051600501611aa290614533565b9161020051600601611ab390614533565b9161020051600701611ac490614533565b936102005193600885015460ff1660a052600985015495600a860154600b87015491600c88015493600d89015495600e8a015497600f8b01549960108c01549b601181015460805260128101546102205260138101546101e05260148101546101a05260158101546101605260168101546101c0526017810154610180526018015460c052604051806101405260e0519052610140516020015261012051610140516040015261040080610140516060015261014051016101005190611b89916145d7565b610140518082039060800152611b9e916145d7565b610140518082039060a00152611bb3916145d7565b610140518082039060c00152611bc8916145d7565b610140518082039060e00152611bdd916145d7565b9760a051611bea90614617565b60a051610140516101000152610140516101200152610140516101400152610140516101600152610140516101800152610140516101a00152610140516101c00152610140516101e0015261014051610200015260805160ff16611c4d906143d6565b60805160ff1661014051610220015260805160081c60ff1661014051610240015260805160101c60ff1661014051610260015260805160181c60ff1661014051610280015260805160201c60ff16611ca4906143d6565b60805160201c60ff16610140516102a00152600160a01b6001900360805160281c16610140516102c0015261022051610140516102e001526101e0516101405161030001526101a05160ff1615156101405161032001526101a05160081c60ff16611d0e90614617565b6101a05160081c60ff1661014051610340015261014051610360016101a05160101c60ff1690611d3d91614621565b610160516101405161038001526101c051610140516103a0015261018051610140516103c0015260c051610140516103e001526101405180910390f35b503461028357602036600319011261028357604090600435815260096020522080549061027b600182015460028301549260038101549460048201549260058301549160068401549060078501549160088601549460ff600a600989015498015416976040519b8c9b8c60ff8860101c169860ff808a60081c1699169760ff8460a01c169360018060a01b0316926143ed565b503461028357602080600319360112610305576001600160a01b03611e30614304565b168252600a815260408220916040518092808554928381520194835280832092905b828210611e695761027b856102e281890382614512565b835486529485019460019384019390910190611e52565b5034610283578060031936011261028357602090604051908152f35b503461028357610260366003190112610283576004356001600160401b03811161030557611ece90369060040161435e565b6024356001600160401b038111610c6657611eed90369060040161435e565b906044356001600160401b038111610c6257611f0d90369060040161435e565b906064356001600160401b038111610c5e57611f2d90369060040161435e565b906084356001600160401b03811161287657611f4d90369060040161435e565b999098600260a435101561030557600361014435101561030557610164356001600160a01b0381169003610c4257611f836143c6565b60036101e435101561027f5760ff61020435166102043503610c425760ff61022435166102243503610c4257600261024435101561027f57611fc3614a37565b611fcb614a19565b611fd860c43515156147d1565b611fe54260e4351161482c565b600254604051635d8eb68760e01b81529060081c6001600160a01b0316602082600481845afa91821561286b578592612835575b5061202b600492610124351015614886565b81546003546040516337382d3960e21b8152936001600160a01b03928316939290911691602091859182905afa91821561282a5786926127f4575b61207293503390614972565b6005549961207f8b6148d1565b6005558a84526007602052604084208b81556001810180546001600160a01b03191633179055926001600160401b0382116127e05781906120c36003860154614477565b601f811161278f575b508590601f8311600114612723578692612718575b50508160011b916000199060031b1c19161760038301555b6001600160401b0389116124d4576121146004830154614477565b601f81116126d3575b508883601f821160011461266757849161265c575b508960011b906000198b60031b1c19161760048301555b6001600160401b0387116124d4576121646005830154614477565b601f8111612617575b508683601f82116001146125ad5784916125a2575b508760011b906000198960031b1c19161760058301555b6001600160401b0385116124d4576121b46006830154614477565b601f811161255d575b508483601f82116001146124f35784916124e8575b508560011b906000198760031b1c19161760068301555b6001600160401b038c116124d4576122046007830154614477565b9b601f8d1161248b575b60209c50839b601f82116001146123f8579a610774968e829e9761074461236a9f859f9e9c978a859f9b9a6040928a8a9f9b61075c9c8a9f978d98926123ed575b50508160011b916000199060031b1c19161760078301555b61227660a435600884016148f6565b60c435600983015560e435600b83015561010435600c830155610124356010830155612334601183016122ac610144358261490e565b805465010000000000600160c81b0319166101643560281b65010000000000600160c81b03161781556101843560128501556101a435601385015560148401805493151560ff1660ff199490941693909317835561230d6101e43582614933565b805462ff00006102243560101b1662ffff001990911661ff006102043560081b1617179055565b61234061024435614617565b805461ff006102443560081b169062ffff001916179055601542910155338152600a86522061493d565b604051600181524283820152817fc0c6ed2669febbe340d8737e8ec17254ffd9e038b54a4585ff70ac3ca18956aa60403393a380600080516020614cf083398151915260c06040516000815260008682015260806040820152600760808201526618dc99585d195960ca1b60a0820152426060820152a260018055604051908152f35b01359050388061224f565b6007840185528d852090859d8e5b601f19851611612473578f9a968e9f509761074461236a9f9e9d9b968f9a6040908f9a8d98936107749f988b8b968f9a9260019361075c9f601f19811610612459575b505050811b016007830155612267565b0135600019600384901b60f8161c19169055388080612449565b918f600181928585013581550193019e019d8e612406565b60078301845260208420601f820160051c8101602083106124cd575b601f8f5b0160051c820181106124be57505061220e565b60008155600101601f8f6124ab565b50806124a7565b634e487b7160e01b83526041600452602483fd5b9050840135386121d2565b600684018552602085209150845b601f1988168110612545575086601f1981161061252b575b5050600185811b0160068301556121e9565b850135600019600388901b60f8161c191690553880612519565b9091602060018192858a013581550193019101612501565b60068301845260208420601f870160051c81016020881061259b575b601f830160051c8201811061258f5750506121bd565b60008155600101612579565b5080612579565b905086013538612182565b600584018552602085209150845b601f198a1681106125ff575088601f198116106125e5575b5050600187811b016005830155612199565b87013560001960038a901b60f8161c1916905538806125d3565b9091602060018192858c0135815501930191016125bb565b60058301845260208420601f890160051c810160208a10612655575b601f830160051c8201811061264957505061216d565b60008155600101612633565b5080612633565b905088013538612132565b600484018552602085209150845b8a601f198d1682106126bb5750508a601f198116106126a1575b5050600189811b016004830155612149565b89013560001960038c901b60f8161c19169055388061268f565b60018394602093948493013581550193019101612675565b60048301845260208420601f8b0160051c810160208c10612711575b601f830160051c8201811061270557505061211d565b600081556001016126ef565b50806126ef565b0135905038806120e1565b60038601875260208720879450915b601f1984168510612777576001945083601f1981161061275d575b505050811b0160038301556120f9565b0135600019600384901b60f8161c1916905538808061274d565b81810135835560209485019460019093019201612732565b90915060038501865260208620601f840160051c8101602085106127d9575b90849392915b601f830160051c820181106127ca5750506120cc565b600081558594506001016127b4565b50806127ae565b634e487b7160e01b85526041600452602485fd5b91506020833d602011612822575b8161280f60209383614512565b81010312610c4257612072925191612066565b3d9150612802565b6040513d88823e3d90fd5b91506020823d602011612863575b8161285060209383614512565b81010312610c425790519061202b612019565b3d9150612843565b6040513d87823e3d90fd5b8980fd5b503461028357604036600319011261028357604061289661431a565b91600435815280602052209060018060a01b0316600052602052602060ff604060002054166040519015158152f35b503461028357602036600319011261028357600435151580612dcc575b6128eb90614adf565b6128f3614a37565b6128fb614a19565b6004358152600760205260408120601481019060ff825460101c16600b811015612db857600603612d67576018810154918215612d225761293e60078301614533565b93809481938293835b8351811015612a50576001600160f81b0319601760f91b816129698488614cde565b511614612a4257600360fc1b816129808488614cde565b511610159081612a27575b5061299f575b61299a906148d1565b612947565b88600a81999897990204600a1489151715612a1357602f196129c18286614cde565b5160f81c0160ff81116129ff578899600a60ff6129e4939b999a9b169102614ad2565b981561299157956129f761299a916148d1565b969050612991565b634e487b7160e01b86526011600452602486fd5b634e487b7160e01b85526011600452602485fd5b603960f81b9150612a388387614cde565b511611153861298b565b50945061299a6001956148d1565b8483838a8c8b60128110612cfb575b50849160ff600886015416612a7381614617565b612cd357818111612caa575b50505b838115612c9d5750600f83015490818111612c96575b80612aa39192614cd1565b925b81612bef575b83612b61575b9060ff938392612b199454936208000062ff000019861617905560174291015560405191825260208201524260408201527f6da40291eeb646b436d05c420b5b9f010d81df95bce846d2c3b3d45f56df19ec606060043592a260405192839160101c16614621565b600860208201526080604082015260076080820152661cd95d1d1b195960ca1b60a0820152426060820152600080516020614cf083398151915260c060043592a26001805580f35b600354600282015460045487926001600160a01b03908116929181169116823b15610c6657604051636924faa760e11b81526001600160a01b03918216600482015291166024820152604481018790529082908290606490829084905af18015610f9f57612bd1575b5050612ab1565b612bde90949392946144e3565b612beb5790918486612bca565b8480fd5b600354600282015460018301546004546001600160a01b03908116938993928216929082169116813b15610c66578360e49260405196879586946305fe3a8b60e31b865260048601526024850152604484015288606484015260a06084840152601160a4840152701cd95d1d1b195b595b9d081c185e5bdd5d607a1b60c48401525af1801561282a57612c83575b50612aab565b612c8f909591956144e3565b9385612c7d565b5080612a98565b9050600f83015492612aa5565b612ccc9250612cbc82612cc792614cd1565b600986015490614a9f565b614ab2565b8480612a7f565b808211612ce2575b5050612a82565b612cf49250612cbc612cc79183614cd1565b8480612cdb565b601203601281116129ff57604d81116129ff5790612d1c91600a0a90614a9f565b85612a5f565b60405162461bcd60e51b815260206004820152601a60248201527f4f7074696f6e73436f72653a206e6f20666565642070726963650000000000006044820152606490fd5b60405162461bcd60e51b815260206004820152602360248201527f4f7074696f6e73436f72653a206e6f742070656e64696e6720736574746c656d604482015262195b9d60ea1b6064820152608490fd5b634e487b7160e01b84526021600452602484fd5b50600554600435106128e2565b50346102835780600319360112610283576003546040516001600160a01b039091168152602090f35b5034610283578060031936011261028357612e1b614660565b612e23614a19565b600160ff1960025416176002557f62e78cea01bee320cd4e420270b5ea74000d11b0c9f74754ebdbfc544b05a2586020604051338152a180f35b503461028357602080600319360112610305576004356001600160401b03811161027f57612e908291369060040161435e565b91908260405193849283378101600d815203019020916040518092808554928381520194835280832092905b828210612ed35761027b856102e281890382614512565b835486529485019460019384019390910190612ebc565b503461028357806003193601126102835760025460405160089190911c6001600160a01b03168152602090f35b50346102835760c036600319011261028357600360643510156102835760843560ff811681036103055760a43560ff8116810361027f576004351515806134d8575b612f6290614adf565b612f6a614a37565b612f72614a19565b60043583526007602052604083209060ff601483015460101c16600b81101561324e5780159081156134cd575b50156134785760018201546001600160a01b031615613433576015820154600254604051634f6bfad760e01b815260089190911c6001600160a01b031691602082600481865afa9081156134285787916133ee575b612ffe9250614ad2565b4210156133a957600490813586526008602052602060408720549160405193848092630be0cbcd60e21b82525afa91821561282a578692613375575b501015613330576011820154600260ff8260201c16613058816143d6565b146132c8575b506127106130726044356009850154614a9f565b0461308560108401546044351015614886565b6004546003546130a59183916001600160a01b0390811691339116614972565b600654936130b2856148d1565b6006556127106130c86024356009870154614a9f565b04926004602060018060a01b0360025460081c16604051928380926306a15d6d60e11b82525afa9081156132bd57889161328a575b5060ff9261310c849242614ad2565b946040519661311a886144b1565b89885260043560208901523360408901528a6060890152602435608089015260a088015260443560c088015260e08701526131566064356143d6565b606435610100870152166101208501521661014083015242610160830152610180820152836101a082015282845260096020526131968160408620614b2b565b6004358452600860205260408420805490600160401b82101561327657906131c391600182018155614644565b61326257906131d191614b2b565b601481015460ff8160101c16600b81101561324e576020945015613236575b5050604051602435815242838201528133917f878fe3f9bca373e42473c1f3ad3c9c35c4f1ecaf9a5f081a801a3fbd43049f55604060043592a460018055604051908152f35b6201000060149162ff000019161791015538806131f0565b634e487b7160e01b85526021600452602485fd5b634e487b7160e01b85526004859052602485fd5b634e487b7160e01b86526041600452602486fd5b90506020813d6020116132b5575b816132a560209383614512565b81010312610c5e575160ff6130fd565b3d9150613298565b6040513d8a823e3d90fd5b60281c6001600160a01b031633036132e0573861305e565b60405162461bcd60e51b815260206004820152602260248201527f4f7074696f6e73436f72653a206e6f742064657369676e617465642073656c6c60448201526132b960f11b6064820152608490fd5b60405162461bcd60e51b815260206004820152601f60248201527f4f7074696f6e73436f72653a206d61782071756f7465732072656163686564006044820152606490fd5b9091506020813d6020116133a1575b8161339160209383614512565b81010312610c625751903861303a565b3d9150613384565b60405162461bcd60e51b815260206004820152601860248201527f4f7074696f6e73436f72653a20524651206578706972656400000000000000006044820152606490fd5b90506020823d602011613420575b8161340960209383614512565b8101031261341c57612ffe915190612ff4565b8680fd5b3d91506133fc565b6040513d89823e3d90fd5b60405162461bcd60e51b815260206004820152601e60248201527f4f7074696f6e73436f72653a206e6f742061206275796572206f7264657200006044820152606490fd5b60405162461bcd60e51b815260206004820152602760248201527f4f7074696f6e73436f72653a206f72646572206e6f7420616363657074696e676044820152662071756f74657360c81b6064820152608490fd5b600191501438612f9f565b5060055460043510612f59565b5060403660031901126102835760043560036024351015610305579081613536921515806135a2575b61351790614adf565b8152600760205260409020600101546001600160a01b03163314614a5a565b61353e614a37565b613546614a19565b60405162461bcd60e51b815260206004820152602e60248201527f4f7074696f6e73436f72653a20666565642070726f746f636f6c206e6f74206960448201526d1b5c1b195b595b9d1959081e595d60921b6064820152608490fd5b50600554811061350e565b503461028357602036600319011261028357600435801515806136ce575b6135d490614adf565b6135dc614a37565b6135e4614a19565b808252600760205260408220601481019081549160ff8360101c1692600b841015610db9577fb009a900f426c0c9177acb33a8a806b35c53ac253d1ddf22d687986fc6b72ce4606060c09486946209000089956136526004600080516020614cf08339815191529b14614c85565b62ff00001916179055426017820155600f60018060a01b036001830154169101546040519182526020820152426040820152a26136926040518092614621565b6009602082015260806040820152601060808201526f199bdc98d9481b1a5c5d5a59185d195960821b60a0820152426060820152a26001805580f35b5060055481106135cb565b5060208060031936011261030557600435908115158061395c575b6136fd90614adf565b613705614a37565b61370d614a19565b8183526007815260408320601481019060ff825460101c16600b811015610db9576006036139065760018101546001600160a01b0391908216331480156138f7575b156138b257806012601761376893015491015490614ad2565b421161385e57806004918254168482600354169260025460081c166040519485809263039f4f7560e31b82525afa928315613428578793613829575b50936137ec60c0946137cc60ff95600795600080516020614cf0833981519152993390614972565b805462ff0000198116620700001790915560405194859160101c16614621565b820152608060408201526015608082015274185c989a5d1c985d1a5bdb881a5b9a5d1a585d1959605a1b60a0820152426060820152a26001805580f35b925090938083813d8311613857575b6138428183614512565b8101031261341c5791519193906137ec6137a4565b503d613838565b60405162461bcd60e51b815260048101849052602660248201527f4f7074696f6e73436f72653a206172626974726174696f6e2077696e646f772060448201526518db1bdcd95960d21b6064820152608490fd5b60405162461bcd60e51b815260048101859052601f60248201527f4f7074696f6e73436f72653a206e6f7420706172747920746f206f72646572006044820152606490fd5b5081600282015416331461374f565b60405162461bcd60e51b815260048101849052602860248201527f4f7074696f6e73436f72653a2063616e6e6f7420696e6974696174652061726260448201526734ba3930ba34b7b760c11b6064820152608490fd5b5060055482106136f4565b503461028357602036600319011261028357613981614a37565b613989614a19565b6004358152600960205260408120600a8101549160ff83166004811015613e3457613def5760098201544211613daa5760018201548152600760205260408120926139e160018060a01b036001860154163314614a5a565b60ff601485015460101c16600b811015613d96578015908115613d8b575b5015613d46576003830154600c85015410613cf35760ff1916600117600a8301556002808301805491850180546001600160a01b0319166001600160a01b03939093169290921790915554613ad0906011850190613a639060a01c60ff168261490e565b6003840154600c8601556004840154600d860155600684015480600e870155600f86015560ff60078501613a9a8282541684614933565b8054835461ff001916600891821c841690911b61ff00161783555460101c1662ff000082549160101b169062ff00001916179055565b60148301805462ff000019811662020000179091554260168501556009840154600254604051631c03be3560e31b8152929492906020908290600490829060081c6001600160a01b03165afa908115613ce8578491613cb4575b50612710613b3e613b4992613b6394614a9f565b046004840154614ad2565b6004546003546001600160a01b0390811691339116614972565b600201546001600160a01b03168152600b602052604081208354613b869161493d565b8254815260086020526040812092815b8454811015613c0957613ba98186614644565b5054600435141580613be7575b90613bc491613bc9576148d1565b613b96565b600a613bd58288614644565b5001805460ff191660021790556148d1565b5060ff600a613bf68388614644565b500154166004811015612db85715613bb6565b50600080516020614cf083398151915260c060ff613c7a8685549560018060a01b0360018201541690600260018060a01b039101541690877f3d7463b72b52fafc8e3f27dc0dbb9d1a94c0a4024834252b5cce68509acb49bc6020604051428152a460405192839160101c16614621565b6002602082015260806040820152600e60808201526d1c5d5bdd19481858d8d95c1d195960921b60a0820152426060820152a26001805580f35b90506020813d602011613ce0575b81613ccf60209383614512565b81010312610c665751612710613b2a565b3d9150613cc2565b6040513d86823e3d90fd5b60405162461bcd60e51b815260206004820152602560248201527f4f7074696f6e73436f72653a207072656d69756d2072617465206578636565646044820152640e640dac2f60db1b6064820152608490fd5b60405162461bcd60e51b815260206004820152601b60248201527f4f7074696f6e73436f72653a20696e76616c69642073746174757300000000006044820152606490fd5b6001915014386139ff565b634e487b7160e01b83526021600452602483fd5b60405162461bcd60e51b815260206004820152601a60248201527f4f7074696f6e73436f72653a2071756f746520657870697265640000000000006044820152606490fd5b60405162461bcd60e51b815260206004820152601d60248201527f4f7074696f6e73436f72653a2071756f7465206e6f74206163746976650000006044820152606490fd5b634e487b7160e01b82526021600452602482fd5b5034610283578060031936011261028357602060ff600254166040519015158152f35b50346102835780600319360112610283576020600654604051908152f35b503461028357602080600319360112610305576004359081151580614059575b613eb290614adf565b81835260078152613ed360018060a01b036001604086200154163314614a5a565b8183526007815260ff601460408520015460101c16600b811015612db85760040361400b57613f00614a37565b613f08614a19565b818352600781526040832060ff601182015460181c166201518090818102918183041490151715612a1357613f41906016830154614ad2565b4210613fba5760ff6005600080516020614cf083398151915293613f84601460c095018054906205000062ff000019831617905560405194859160101c16614621565b82015260806040820152600e60808201526d6561726c7920657865726369736560901b60a0820152426060820152a26001805580f35b60405162461bcd60e51b815260048101839052602360248201527f4f7074696f6e73436f72653a2065786572636973652064656c6179206e6f74206044820152621b595d60ea1b6064820152608490fd5b6084906040519062461bcd60e51b82526004820152602160248201527f4f7074696f6e73436f72653a20696e76616c6964206f726465722073746174756044820152607360f81b6064820152fd5b506005548210613ea9565b50346102835760403660031901126102835761407e614304565b6001600160a01b03168152600b60205260408120805460243592908310156102835760206140ac8484614330565b90546040519160031b1c8152f35b5034610283576040366003190112610283576140d4614304565b6001600160a01b03168152600a60205260408120805460243592908310156102835760206140ac8484614330565b503461028357806003193601126102835761411b614660565b60025460ff81161561415b5760ff19166002557f5db9ee0a495bf2e6ff9c91a7834c1ba4fdd244a5e8aa4e537bd38aeae4b073aa6020604051338152a180f35b604051638dfc202b60e01b8152600490fd5b50346102835760403660031901126102835761418761431a565b336001600160a01b038216036141a357610ca79060043561475c565b60405163334bd91960e11b8152600490fd5b50346102835780600319360112610283576004546040516001600160a01b039091168152602090f35b503461028357604036600319011261028357610ca76004356141fe61431a565b908084528360205261421660016040862001546146b8565b6146de565b50346102835780600319360112610283576020600554604051908152f35b503461028357602036600319011261028357600160406020926004358152808452200154604051908152f35b50346102835760203660031901126102835761427f614304565b614287614660565b60028054610100600160a81b03191660089290921b610100600160a81b031691909117905580f35b9050346103055760203660031901126103055760043563ffffffff60e01b811680910361027f5760209250637965db0b60e01b81149081156142f3575b5015158152f35b6301ffc9a760e01b149050386142ec565b600435906001600160a01b0382168203610c4257565b602435906001600160a01b0382168203610c4257565b80548210156143485760005260206000200190600090565b634e487b7160e01b600052603260045260246000fd5b9181601f84011215610c42578235916001600160401b038311610c425760208381860195010111610c4257565b6020908160408183019282815285518094520193019160005b8281106143b2575050505090565b8351855293810193928101926001016143a4565b6101c435908115158203610c4257565b6003111561176c57565b90600482101561176c5752565b9b99979593919e9d9c9a98969492909e6101c08d019f8d5260208d0152600160a01b600190031660408c0152614422816143d6565b60608b015260808a015260a089015260c088015260e0870152614444816143d6565b61010086015260ff1661012085015260ff166101408401526101608301526101808201526101a001614475916143e0565b565b90600182811c921680156144a7575b602083101461449157565b634e487b7160e01b600052602260045260246000fd5b91607f1691614486565b6101c081019081106001600160401b038211176144cd57604052565b634e487b7160e01b600052604160045260246000fd5b6001600160401b0381116144cd57604052565b61040081019081106001600160401b038211176144cd57604052565b90601f801991011681019081106001600160401b038211176144cd57604052565b906040519182600082549261454784614477565b9081845260019485811690816000146145b45750600114614571575b505061447592500383614512565b9093915060005260209081600020936000915b81831061459c57505061447593508201013880614563565b85548884018501529485019487945091830191614584565b91505061447594506020925060ff191682840152151560051b8201013880614563565b919082519283825260005b848110614603575050826000602080949584010152601f8019910116010190565b6020818301810151848301820152016145e2565b6002111561176c57565b90600b82101561176c5752565b6040906003190112610c42576004359060243590565b805482101561434857600052600b602060002091020190600090565b3360009081527fad3228b676f7d3cd4284a5443f17f1962b36e491b30a40b2405849e597ba5fb5602052604081205460ff161561469a5750565b6044906040519063e2517d3f60e01b82523360048301526024820152fd5b80600052600060205260406000203360005260205260ff604060002054161561469a5750565b9060009180835282602052604083209160018060a01b03169182845260205260ff6040842054161560001461475757808352826020526040832082845260205260408320600160ff198254161790557f2f8788117e7eff1d82e926ec794901d17c78024a50270940304540a733656f0d339380a4600190565b505090565b9060009180835282602052604083209160018060a01b03169182845260205260ff6040842054166000146147575780835282602052604083208284526020526040832060ff1981541690557ff6391f5c32d9c69d2a47ea670b442974b53935d1edc7fd64eb21e047a839171b339380a4600190565b156147d857565b60405162461bcd60e51b815260206004820152602660248201527f4f7074696f6e73436f72653a206e6f74696f6e616c206d75737420626520706f60448201526573697469766560d01b6064820152608490fd5b1561483357565b60405162461bcd60e51b815260206004820152602560248201527f4f7074696f6e73436f72653a20657870697279206d75737420626520696e2066604482015264757475726560d81b6064820152608490fd5b1561488d57565b606460405162461bcd60e51b815260206004820152602060248201527f4f7074696f6e73436f72653a206d617267696e207261746520746f6f206c6f776044820152fd5b60001981146148e05760010190565b634e487b7160e01b600052601160045260246000fd5b9061490081614617565b60ff80198354169116179055565b90614918816143d6565b64ff0000000082549160201b169064ff000000001916179055565b90614900816143d6565b8054600160401b8110156144cd5761495a91600182018155614330565b819291549060031b91821b91600019901b1916179055565b6040516323b872dd60e01b60208083019182526001600160a01b03948516602484015294909316604482015260648082019590955293845292600091906149ba608482614512565b519082855af115614a0d576000513d614a0457506001600160a01b0381163b155b6149e25750565b604051635274afe760e01b81526001600160a01b039091166004820152602490fd5b600114156149db565b6040513d6000823e3d90fd5b60ff60025416614a2557565b60405163d93c066560e01b8152600490fd5b600260015414614a48576002600155565b604051633ee5aeb560e01b8152600490fd5b15614a6157565b60405162461bcd60e51b815260206004820152601660248201527527b83a34b7b739a1b7b9329d103737ba10313abcb2b960511b6044820152606490fd5b818102929181159184041417156148e057565b8115614abc570490565b634e487b7160e01b600052601260045260246000fd5b919082018092116148e057565b15614ae657565b60405162461bcd60e51b815260206004820152601d60248201527f4f7074696f6e73436f72653a20696e76616c6964206f726465722069640000006044820152606490fd5b600a6101a09183518155602084015160018201556002810160018060a01b036040860151168154906060870151614b61816143d6565b614b6a816143d6565b60ff60a01b9060a01b16916affffffffffffffffffffff60a81b16171790556080840151600382015560a0840151600482015560c0840151600582015560e08401516006820155614c0860078201614bd0610100870151614bca816143d6565b82614933565b610120860151815461ff00191660089190911b61ff0016178155610140860151815462ff0000191660109190911b62ff000016179055565b6101608401516008820155610180840151600982015501910151600481101561176c5760ff80198354169116179055565b15614c4057565b60405162461bcd60e51b815260206004820152601760248201527f4f7074696f6e73436f72653a206e6f742073656c6c65720000000000000000006044820152606490fd5b15614c8c57565b60405162461bcd60e51b815260206004820152601b60248201527f4f7074696f6e73436f72653a206f72646572206e6f74206c69766500000000006044820152606490fd5b919082039182116148e057565b90815181101561434857016020019056fece3a31baf9956e086200ee7044a75c2befbd050912798b7bcd25d05831ab9592a26469706673582212204b31b5dc54abe73ae204a081260c857ed0ce03762572b40194e66c8a4d94df0364736f6c63430008140033",
  "linkReferences": {},
  "deployedLinkReferences": {}
}