{
  "_format": "hh-sol-artifact-1",
  "contractName": "OptionsSettlement",
  "sourceName": "contracts/core/OptionsSettlement.sol",
  "abi": [
    {
      "inputs": [
        {
          "internalType": "address",
          "name": "_optionsCore",
          "type": "address"
        },
        {
          "internalType": "address",
          "name": "_config",
          "type": "address"
        },
        {
          "internalType": "address",
          "name": "_vaultManager",
          "type": "address"
        },
        {
          "internalType": "address",
          "name": "_usdt",
          "type": "address"
        },
        {
          "internalType": "address",
          "name": "_admin",
          "type": "address"
        }
      ],
      "stateMutability": "nonpayable",
      "type": "constructor"
    },
    {
      "inputs": [],
      "name": "AccessControlBadConfirmation",
      "type": "error"
    },
    {
      "inputs": [
        {
          "internalType": "address",
          "name": "account",
          "type": "address"
        },
        {
          "internalType": "bytes32",
          "name": "neededRole",
          "type": "bytes32"
        }
      ],
      "name": "AccessControlUnauthorizedAccount",
      "type": "error"
    },
    {
      "inputs": [],
      "name": "EnforcedPause",
      "type": "error"
    },
    {
      "inputs": [],
      "name": "ExpectedPause",
      "type": "error"
    },
    {
      "inputs": [],
      "name": "ReentrancyGuardReentrantCall",
      "type": "error"
    },
    {
      "anonymous": false,
      "inputs": [
        {
          "indexed": true,
          "internalType": "uint256",
          "name": "orderId",
          "type": "uint256"
        },
        {
          "indexed": true,
          "internalType": "uint256",
          "name": "arbitrationId",
          "type": "uint256"
        },
        {
          "indexed": false,
          "internalType": "address",
          "name": "initiator",
          "type": "address"
        },
        {
          "indexed": false,
          "internalType": "uint256",
          "name": "originalPrice",
          "type": "uint256"
        },
        {
          "indexed": false,
          "internalType": "uint256",
          "name": "arbitrationPrice",
          "type": "uint256"
        },
        {
          "indexed": false,
          "internalType": "bool",
          "name": "resultChanged",
          "type": "bool"
        },
        {
          "indexed": false,
          "internalType": "uint256",
          "name": "initiatorReward",
          "type": "uint256"
        },
        {
          "indexed": false,
          "internalType": "uint256",
          "name": "timestamp",
          "type": "uint256"
        }
      ],
      "name": "ArbitrationResolved",
      "type": "event"
    },
    {
      "anonymous": false,
      "inputs": [
        {
          "indexed": true,
          "internalType": "uint256",
          "name": "orderId",
          "type": "uint256"
        },
        {
          "indexed": false,
          "internalType": "uint256",
          "name": "dividendPerShare",
          "type": "uint256"
        },
        {
          "indexed": false,
          "internalType": "uint256",
          "name": "totalDividend",
          "type": "uint256"
        },
        {
          "indexed": false,
          "internalType": "uint256",
          "name": "timestamp",
          "type": "uint256"
        }
      ],
      "name": "DividendRecorded",
      "type": "event"
    },
    {
      "anonymous": false,
      "inputs": [
        {
          "indexed": true,
          "internalType": "uint256",
          "name": "orderId",
          "type": "uint256"
        },
        {
          "indexed": true,
          "internalType": "address",
          "name": "seller",
          "type": "address"
        },
        {
          "indexed": false,
          "internalType": "uint256",
          "name": "currentMargin",
          "type": "uint256"
        },
        {
          "indexed": false,
          "internalType": "uint256",
          "name": "requiredMargin",
          "type": "uint256"
        },
        {
          "indexed": false,
          "internalType": "uint256",
          "name": "deadline",
          "type": "uint256"
        }
      ],
      "name": "MarginCallTriggered",
      "type": "event"
    },
    {
      "anonymous": false,
      "inputs": [
        {
          "indexed": true,
          "internalType": "uint256",
          "name": "orderId",
          "type": "uint256"
        },
        {
          "indexed": true,
          "internalType": "address",
          "name": "seller",
          "type": "address"
        },
        {
          "indexed": false,
          "internalType": "uint256",
          "name": "oldAmount",
          "type": "uint256"
        },
        {
          "indexed": false,
          "internalType": "uint256",
          "name": "newAmount",
          "type": "uint256"
        },
        {
          "indexed": false,
          "internalType": "string",
          "name": "changeType",
          "type": "string"
        },
        {
          "indexed": false,
          "internalType": "uint256",
          "name": "timestamp",
          "type": "uint256"
        }
      ],
      "name": "MarginChanged",
      "type": "event"
    },
    {
      "anonymous": false,
      "inputs": [
        {
          "indexed": true,
          "internalType": "uint256",
          "name": "orderId",
          "type": "uint256"
        },
        {
          "indexed": false,
          "internalType": "string",
          "name": "reason",
          "type": "string"
        },
        {
          "indexed": false,
          "internalType": "uint256",
          "name": "timestamp",
          "type": "uint256"
        }
      ],
      "name": "OrderCancelled",
      "type": "event"
    },
    {
      "anonymous": false,
      "inputs": [
        {
          "indexed": true,
          "internalType": "uint256",
          "name": "orderId",
          "type": "uint256"
        },
        {
          "indexed": false,
          "internalType": "address",
          "name": "beneficiary",
          "type": "address"
        },
        {
          "indexed": false,
          "internalType": "uint256",
          "name": "amount",
          "type": "uint256"
        },
        {
          "indexed": false,
          "internalType": "uint256",
          "name": "timestamp",
          "type": "uint256"
        }
      ],
      "name": "OrderLiquidated",
      "type": "event"
    },
    {
      "anonymous": false,
      "inputs": [
        {
          "indexed": true,
          "internalType": "uint256",
          "name": "orderId",
          "type": "uint256"
        },
        {
          "indexed": false,
          "internalType": "uint256",
          "name": "buyerPayout",
          "type": "uint256"
        },
        {
          "indexed": false,
          "internalType": "uint256",
          "name": "sellerPayout",
          "type": "uint256"
        },
        {
          "indexed": false,
          "internalType": "uint256",
          "name": "timestamp",
          "type": "uint256"
        }
      ],
      "name": "OrderSettled",
      "type": "event"
    },
    {
      "anonymous": false,
      "inputs": [
        {
          "indexed": true,
          "internalType": "uint256",
          "name": "orderId",
          "type": "uint256"
        },
        {
          "indexed": false,
          "internalType": "enum OrderStatus",
          "name": "oldStatus",
          "type": "uint8"
        },
        {
          "indexed": false,
          "internalType": "enum OrderStatus",
          "name": "newStatus",
          "type": "uint8"
        },
        {
          "indexed": false,
          "internalType": "string",
          "name": "reason",
          "type": "string"
        },
        {
          "indexed": false,
          "internalType": "uint256",
          "name": "timestamp",
          "type": "uint256"
        }
      ],
      "name": "OrderStatusChanged",
      "type": "event"
    },
    {
      "anonymous": false,
      "inputs": [
        {
          "indexed": false,
          "internalType": "address",
          "name": "account",
          "type": "address"
        }
      ],
      "name": "Paused",
      "type": "event"
    },
    {
      "anonymous": false,
      "inputs": [
        {
          "indexed": true,
          "internalType": "bytes32",
          "name": "role",
          "type": "bytes32"
        },
        {
          "indexed": true,
          "internalType": "bytes32",
          "name": "previousAdminRole",
          "type": "bytes32"
        },
        {
          "indexed": true,
          "internalType": "bytes32",
          "name": "newAdminRole",
          "type": "bytes32"
        }
      ],
      "name": "RoleAdminChanged",
      "type": "event"
    },
    {
      "anonymous": false,
      "inputs": [
        {
          "indexed": true,
          "internalType": "bytes32",
          "name": "role",
          "type": "bytes32"
        },
        {
          "indexed": true,
          "internalType": "address",
          "name": "account",
          "type": "address"
        },
        {
          "indexed": true,
          "internalType": "address",
          "name": "sender",
          "type": "address"
        }
      ],
      "name": "RoleGranted",
      "type": "event"
    },
    {
      "anonymous": false,
      "inputs": [
        {
          "indexed": true,
          "internalType": "bytes32",
          "name": "role",
          "type": "bytes32"
        },
        {
          "indexed": true,
          "internalType": "address",
          "name": "account",
          "type": "address"
        },
        {
          "indexed": true,
          "internalType": "address",
          "name": "sender",
          "type": "address"
        }
      ],
      "name": "RoleRevoked",
      "type": "event"
    },
    {
      "anonymous": false,
      "inputs": [
        {
          "indexed": false,
          "internalType": "address",
          "name": "account",
          "type": "address"
        }
      ],
      "name": "Unpaused",
      "type": "event"
    },
    {
      "inputs": [],
      "name": "DEFAULT_ADMIN_ROLE",
      "outputs": [
        {
          "internalType": "bytes32",
          "name": "",
          "type": "bytes32"
        }
      ],
      "stateMutability": "view",
      "type": "function"
    },
    {
      "inputs": [
        {
          "internalType": "uint256",
          "name": "orderId",
          "type": "uint256"
        },
        {
          "internalType": "uint256",
          "name": "amount",
          "type": "uint256"
        }
      ],
      "name": "addMargin",
      "outputs": [],
      "stateMutability": "nonpayable",
      "type": "function"
    },
    {
      "inputs": [
        {
          "internalType": "uint256",
          "name": "",
          "type": "uint256"
        }
      ],
      "name": "arbitrationInitiator",
      "outputs": [
        {
          "internalType": "address",
          "name": "",
          "type": "address"
        }
      ],
      "stateMutability": "view",
      "type": "function"
    },
    {
      "inputs": [
        {
          "internalType": "uint256",
          "name": "orderId",
          "type": "uint256"
        }
      ],
      "name": "cancelOrderDueFinalFeedTimeout",
      "outputs": [],
      "stateMutability": "nonpayable",
      "type": "function"
    },
    {
      "inputs": [
        {
          "internalType": "uint256",
          "name": "orderId",
          "type": "uint256"
        }
      ],
      "name": "cancelOrderDueToFeedTimeout",
      "outputs": [],
      "stateMutability": "nonpayable",
      "type": "function"
    },
    {
      "inputs": [],
      "name": "config",
      "outputs": [
        {
          "internalType": "contract Config",
          "name": "",
          "type": "address"
        }
      ],
      "stateMutability": "view",
      "type": "function"
    },
    {
      "inputs": [
        {
          "internalType": "uint256",
          "name": "orderId",
          "type": "uint256"
        }
      ],
      "name": "earlyExercise",
      "outputs": [],
      "stateMutability": "nonpayable",
      "type": "function"
    },
    {
      "inputs": [
        {
          "internalType": "uint256",
          "name": "orderId",
          "type": "uint256"
        }
      ],
      "name": "forceLiquidate",
      "outputs": [],
      "stateMutability": "nonpayable",
      "type": "function"
    },
    {
      "inputs": [
        {
          "internalType": "uint256",
          "name": "orderId",
          "type": "uint256"
        }
      ],
      "name": "forceLiquidateMarginCall",
      "outputs": [],
      "stateMutability": "nonpayable",
      "type": "function"
    },
    {
      "inputs": [
        {
          "internalType": "bytes32",
          "name": "role",
          "type": "bytes32"
        }
      ],
      "name": "getRoleAdmin",
      "outputs": [
        {
          "internalType": "bytes32",
          "name": "",
          "type": "bytes32"
        }
      ],
      "stateMutability": "view",
      "type": "function"
    },
    {
      "inputs": [
        {
          "internalType": "bytes32",
          "name": "role",
          "type": "bytes32"
        },
        {
          "internalType": "address",
          "name": "account",
          "type": "address"
        }
      ],
      "name": "grantRole",
      "outputs": [],
      "stateMutability": "nonpayable",
      "type": "function"
    },
    {
      "inputs": [
        {
          "internalType": "bytes32",
          "name": "role",
          "type": "bytes32"
        },
        {
          "internalType": "address",
          "name": "account",
          "type": "address"
        }
      ],
      "name": "hasRole",
      "outputs": [
        {
          "internalType": "bool",
          "name": "",
          "type": "bool"
        }
      ],
      "stateMutability": "view",
      "type": "function"
    },
    {
      "inputs": [
        {
          "internalType": "uint256",
          "name": "orderId",
          "type": "uint256"
        }
      ],
      "name": "initiateArbitration",
      "outputs": [],
      "stateMutability": "payable",
      "type": "function"
    },
    {
      "inputs": [],
      "name": "optionsCore",
      "outputs": [
        {
          "internalType": "contract IOptionsCoreForSettlement",
          "name": "",
          "type": "address"
        }
      ],
      "stateMutability": "view",
      "type": "function"
    },
    {
      "inputs": [],
      "name": "pause",
      "outputs": [],
      "stateMutability": "nonpayable",
      "type": "function"
    },
    {
      "inputs": [],
      "name": "paused",
      "outputs": [
        {
          "internalType": "bool",
          "name": "",
          "type": "bool"
        }
      ],
      "stateMutability": "view",
      "type": "function"
    },
    {
      "inputs": [
        {
          "internalType": "uint256",
          "name": "orderId",
          "type": "uint256"
        },
        {
          "internalType": "uint256",
          "name": "dividendPerShare",
          "type": "uint256"
        }
      ],
      "name": "recordDividend",
      "outputs": [],
      "stateMutability": "nonpayable",
      "type": "function"
    },
    {
      "inputs": [
        {
          "internalType": "bytes32",
          "name": "role",
          "type": "bytes32"
        },
        {
          "internalType": "address",
          "name": "callerConfirmation",
          "type": "address"
        }
      ],
      "name": "renounceRole",
      "outputs": [],
      "stateMutability": "nonpayable",
      "type": "function"
    },
    {
      "inputs": [
        {
          "internalType": "uint256",
          "name": "orderId",
          "type": "uint256"
        },
        {
          "internalType": "uint256",
          "name": "arbitrationPrice",
          "type": "uint256"
        },
        {
          "internalType": "address[]",
          "name": "arbitrators",
          "type": "address[]"
        }
      ],
      "name": "resolveArbitration",
      "outputs": [],
      "stateMutability": "nonpayable",
      "type": "function"
    },
    {
      "inputs": [
        {
          "internalType": "bytes32",
          "name": "role",
          "type": "bytes32"
        },
        {
          "internalType": "address",
          "name": "account",
          "type": "address"
        }
      ],
      "name": "revokeRole",
      "outputs": [],
      "stateMutability": "nonpayable",
      "type": "function"
    },
    {
      "inputs": [
        {
          "internalType": "address",
          "name": "_config",
          "type": "address"
        }
      ],
      "name": "setConfig",
      "outputs": [],
      "stateMutability": "nonpayable",
      "type": "function"
    },
    {
      "inputs": [
        {
          "internalType": "address",
          "name": "_optionsCore",
          "type": "address"
        }
      ],
      "name": "setOptionsCore",
      "outputs": [],
      "stateMutability": "nonpayable",
      "type": "function"
    },
    {
      "inputs": [
        {
          "internalType": "uint256",
          "name": "orderId",
          "type": "uint256"
        }
      ],
      "name": "settle",
      "outputs": [],
      "stateMutability": "nonpayable",
      "type": "function"
    },
    {
      "inputs": [
        {
          "internalType": "bytes4",
          "name": "interfaceId",
          "type": "bytes4"
        }
      ],
      "name": "supportsInterface",
      "outputs": [
        {
          "internalType": "bool",
          "name": "",
          "type": "bool"
        }
      ],
      "stateMutability": "view",
      "type": "function"
    },
    {
      "inputs": [
        {
          "internalType": "uint256",
          "name": "orderId",
          "type": "uint256"
        },
        {
          "internalType": "bool",
          "name": "isCrypto",
          "type": "bool"
        }
      ],
      "name": "triggerMarginCall",
      "outputs": [],
      "stateMutability": "nonpayable",
      "type": "function"
    },
    {
      "inputs": [],
      "name": "unpause",
      "outputs": [],
      "stateMutability": "nonpayable",
      "type": "function"
    },
    {
      "inputs": [],
      "name": "usdt",
      "outputs": [
        {
          "internalType": "contract IERC20",
          "name": "",
          "type": "address"
        }
      ],
      "stateMutability": "view",
      "type": "function"
    },
    {
      "inputs": [],
      "name": "vaultManager",
      "outputs": [
        {
          "internalType": "contract VaultManager",
          "name": "",
          "type": "address"
        }
      ],
      "stateMutability": "view",
      "type": "function"
    },
    {
      "inputs": [
        {
          "internalType": "uint256",
          "name": "orderId",
          "type": "uint256"
        },
        {
          "internalType": "uint256",
          "name": "amount",
          "type": "uint256"
        }
      ],
      "name": "withdrawExcessMargin",
      "outputs": [],
      "stateMutability": "nonpayable",
      "type": "function"
    }
  ],
  "bytecode": "0x608034620000fc57601f6200415238819003918201601f19168301916001600160401b03831184841017620001015780849260a094604052833981010312620000fc578062000052620000eb9262000117565b90620000616020820162000117565b90620000706040820162000117565b906200008d6080620000856060840162000117565b920162000117565b936001805560025490610100600160a81b039060081b1690610100600160a81b0319161760025560018060a01b0380928160018060a01b0319951685600354161760035516836004541617600455169060055416176005556200012c565b50604051613f949081620001be8239f35b600080fd5b634e487b7160e01b600052604160045260246000fd5b51906001600160a01b0382168203620000fc57565b6001600160a01b031660008181527fad3228b676f7d3cd4284a5443f17f1962b36e491b30a40b2405849e597ba5fb5602052604081205490919060ff16620001b957818052816020526040822081835260205260408220600160ff1982541617905533917f2f8788117e7eff1d82e926ec794901d17c78024a50270940304540a733656f0d8180a4600190565b509056fe608080604052600436101561001357600080fd5b600090813560e01c90816301ffc9a7146137265750806320e3dbd4146136e1578063248a9ca3146136b55780632bf40e50146136825780632ce5ed8c146136385780632f2ff15d146135fb5780632f48ab7d146135d25780633280890b14612d5357806336568abe14612d0b5780633f4ba83a14612ca057806346f8226c14612a0457806353b461c81461254857806355d6ca77146120585780635c975abb1461203557806366d63633146120085780636af58cff14611c855780636ca143891461183457806377e9bad91461161b57806379502c55146115f25780638456cb59146115975780638a4adf241461156e5780638df8280014610ff657806391d1485414610fab578063a217fddf14610f8f578063d1e745b114610d3d578063d41194b814610a92578063d547741f14610a51578063d70daf22146104285763eefaa8331461016057600080fd5b34610425576040366003190112610425576004356024908135918215158093036104215761018c613d1e565b610194613d00565b60025460405163d09ef24160e01b8152600481018490526001600160a01b03929160081c83169086818481855afa9081156104165787916103f4575b50610380810151600b8110156103e15760046101ec9114613c5e565b61032081015161038b5761271061020e6101c083015161020084015190613ca7565b04926101e082019684885110156103475790889160208760035416918360405180948193630deecde360e11b835260048301525afa90811561033c578391610300575b5061025c9042613cd0565b93803b156102fc578491604489858094604051968795869463d37e527b60e01b865260048601528401525af180156102f1576102d9575b50507f87f6bf1a6c3f04d192803df26e64179e122fd70e7acbc21d5326ecb35a4919489360406102cf9201511695519160405193849384613d90565b0390a36001805580f35b6102e29061392e565b6102ed578638610293565b8680fd5b6040513d84823e3d90fd5b8280fd5b9250506020823d8211610334575b8161031b60209383613941565b8101031261032f5761025c89925190610251565b600080fd5b3d915061030e565b6040513d85823e3d90fd5b60405162461bcd60e51b815260206004820152601d818401527f536574746c656d656e743a206d617267696e2073756666696369656e740000006044820152606490fd5b60405162461bcd60e51b8152602060048201526029818501527f536574746c656d656e743a206d617267696e2063616c6c20616c7265616479206044820152681d1c9a59d9d95c995960ba1b6064820152608490fd5b634e487b7160e01b885260216004528388fd5b61041091503d8089833e6104088183613941565b8101906139f6565b386101d0565b6040513d89823e3d90fd5b8380fd5b80fd5b50346104255760208060031936011261075757600435610446613d1e565b61044e613d00565b60025460405163d09ef24160e01b81526004810183905260249360089290921c6001600160a01b03908116929186818781875afa908115610416578791610a37575b5061038081018051600b811015610a24576002148015610a10575b156109b8576103c0820180511561096a57600490518585600354166040519384809263c7d7c5fd60e01b82525afa90811561095f578a9161092e575b6104f19250613cd0565b4211156108d4575193600b8510156108c15790818893923b1561042157838860448983600a95604051968795869463aab3196d60e01b865260048601528401525af190811561075b5784916108ad575b50508160025460081c16803b15610421578380916044604051809481936315d92e3360e01b83528c60048401528d42908401525af1801561075b57610899575b50600496848360035416604051998a8092632bec66e560e01b82525afa97881561075b578498610866575b506127106105c06101e08401998a51613ca7565b046105cc818a51613d41565b908460045416908588860151169186600554166101a0870151823b1561084357610611928a9283604051809681958294636924faa760e11b9b8c855260048501613d6e565b03925af190811561085b578891610847575b5050806107d4575b508161076a575b50508260025460081c16803b156107665784916044898480946040519687958694630381bafd60e31b865260048601528401525af190811561075b578791610739575b5060c09493929181600080516020613f3f833981519152600080516020613edf83398151915298604094600080516020613eff8339815191528651878152806106bf898201613e52565b428d8301520390a26106d385518092613cdd565b600a88820152608085820152806106ec60808201613e52565b4260608301520390a201511695519160405192835282015260806040820152601060808201526f1c195b985b1d1e57d919591d58dd195960821b60a0820152426060820152a36001805580f35b849392959491506107499061392e565b610757579091928538610675565b5080fd5b6040513d86823e3d90fd5b8480fd5b84600454168560408601511690866005541691813b156107d05788809461079f60405197889687958694855260048501613d6e565b03925af19081156107c557859115610632576107ba9061392e565b610421578338610632565b6040513d87823e3d90fd5b8880fd5b8560045416908660408701511690876005541692803b1561084357610813938a809460405196879586948593630307138360e61b855260048501613d6e565b03925af190811561041657879161082b575b5061062b565b6108349061392e565b61083f578538610825565b8580fd5b8980fd5b6108509061392e565b6102ed578638610623565b6040513d8a823e3d90fd5b85809299508195503d8311610892575b6108808183613941565b8101031261032f5787925196386105ac565b503d610876565b6108a3849161392e565b6102fc5738610581565b6108b69061392e565b6102fc578238610541565b634e487b7160e01b885260216004528688fd5b60405162461bcd60e51b815260048101859052602d818901527f536574746c656d656e743a20696e697469616c206665656420646561646c696e60448201526c19481b9bdd081c995858da1959609a1b6064820152608490fd5b90508582813d8311610958575b6109458183613941565b8101031261032f576104f19151906104e7565b503d61093b565b6040513d8c823e3d90fd5b60405162461bcd60e51b8152600481018690526021818a01527f536574746c656d656e743a206f72646572206e6f74206d6174636865642079656044820152601d60fa1b6064820152608490fd5b60405162461bcd60e51b815260048101859052602b818901527f536574746c656d656e743a206f72646572206e6f74206177616974696e67206960448201526a1b9a5d1a585b081999595960aa1b6064820152608490fd5b508051600b811015610a24576003146104ab565b634e487b7160e01b895260216004528789fd5b610a4b91503d8089833e6104088183613941565b38610490565b503461042557604036600319011261042557610a8e600435610a71613791565b9080845283602052610a896001604086200154613815565b6138b9565b5080f35b503461042557610aa1366137a7565b90610aaa613d1e565b610ab2613d00565b8115610cec5760025460405163d09ef24160e01b81526004810183905292906001600160a01b039085908590602490829060081c85165afa9384156107c5578594610cd0575b50610b0a816040860151163314613da6565b610380840151600b811015610cbc5790610b276004879314613c5e565b6101e085015194610b388487613cd0565b93826004541690836005541690823b1561083f57610b7092869283604051809681958294630ac94d9360e31b84523360048501613d6e565b03925af190811561075b578491610ca8575b50508160025460081c16803b1561042157838091604460405180948193630381bafd60e31b83528b60048401528a60248401525af190811561075b578491610c94575b5050610320810151610c1b575b505050604051928352602083015260806040830152600360808301526218591960ea1b60a0830152426060830152600080516020613edf83398151915260c03393a36001805580f35b610c34816102006101c061271094015191015190613ca7565b04831015610c43575b80610bd2565b60025460081c16803b156107575781809160446040518094819363d37e527b60e01b83528960048401528160248401525af180156102f15715610c3d57610c899061392e565b610421578338610c3d565b610c9d9061392e565b6102fc578238610bc5565b610cb19061392e565b6102fc578238610b82565b634e487b7160e01b86526021600452602486fd5b610ce59194503d8087833e6104088183613941565b9238610af8565b60405162461bcd60e51b815260206004820152602360248201527f536574746c656d656e743a20616d6f756e74206d75737420626520706f73697460448201526269766560e81b6064820152608490fd5b503461042557610d4c366137a7565b90610d55613d1e565b610d5d613d00565b60025460405163d09ef24160e01b81526004810183905260089190911c6001600160a01b0390811693908583602481885afa928315610f84578693610f68575b50610daf816040850151163314613da6565b610380830151600b811015610f54576004610dca9114613c5e565b610de16101e08401936101c0855191015190613d41565b8211610ef6578590835195610df68488613d41565b813b15610421578391604483926040519485938492630381bafd60e31b84528c600485015260248401525af190811561033c578391610ee2575b505060045460055482169116803b156102fc57838391610e689383604051809681958294636924faa760e11b84523360048501613d6e565b03925af180156102f157610ece575b5050610e839151613d41565b6040519283526020830152608060408301526008608083015267776974686472617760c01b60a0830152426060830152600080516020613edf83398151915260c03393a36001805580f35b610ed79061392e565b610766578438610e77565b610eeb9061392e565b610757578138610e30565b60405162461bcd60e51b815260206004820152603060248201527f536574746c656d656e743a2063616e6e6f742077697468647261772062656c6f60448201526f3b9034b734ba34b0b61036b0b933b4b760811b6064820152608490fd5b634e487b7160e01b87526021600452602487fd5b610f7d9193503d8088833e6104088183613941565b9138610d9d565b6040513d88823e3d90fd5b5034610425578060031936011261042557602090604051908152f35b5034610425576040366003190112610425576040610fc7613791565b91600435815280602052209060018060a01b0316600052602052602060ff604060002054166040519015158152f35b5034610425576020806003193601126107575760043590611015613d1e565b61101d613d00565b60025460405163d09ef24160e01b81528360048201526024908581838160018060a01b03809760081c165afa908115610f84578691611554575b506103808101918251600b81101561123f57600603611506576104008201928351156114c6576101408301805115611473575193610340840151151580611465575b61143c575b519388946101008501516002811015611429576113ff578181116113d3575b50505b8784156113c45750876101e0840151948581116113bd575b806110e39196613d41565b935b856112b8575b84611252575b50505193600b85101561123f5790818894939260025460081c16803b1561083f5785809160448b604051948593849263aab3196d60e01b845260048401526008898401525af1908115610f8457869161122b575b505060025460081c1690813b156107665784916044839260405197889384926315d92e3360e01b84528d600485015242908401525af193841561121e578794611201575b509360088685600080516020613e9f833981519152600080516020613f3f8339815191529660c0966111c2604051928392429184613d90565b0390a26111d26040518094613cdd565b8201526080604082015260076080820152661cd95d1d1b195960ca1b60a0820152426060820152a26001805580f35b61120f91929395945061392e565b61083f57918491928638611189565b50604051903d90823e3d90fd5b6112349061392e565b610766578438611145565b50634e487b7160e01b8752602160045286fd5b866040816004541692015116876005541690823b156104215761129192849283899360405196879586948593636924faa760e11b855260048501613d6e565b03925af180156102f157156110f1576112a99061392e565b6112b45787386110f1565b8780fd5b8660045416876040830151169089830191898351168a6005541692803b156102ed5786928360e49260405196879586946305fe3a8b60e31b865260048601528d85015260448401528d606484015260a06084840152601160a4840152701cd95d1d1b195b595b9d081c185e5bdd5d607a1b60c48401525af190811561075b5784916113a9575b5050878060045416915116886005541690823b156107665761137c928592838b9360405196879586948593636924faa760e11b855260048501613d6e565b03925af190811561033c578391611395575b50506110eb565b61139e9061392e565b61075757813861138e565b6113b29061392e565b6102fc57823861133e565b50846110d8565b9350876101e0840151936110e5565b6113f79295506113e6826113f292613d41565b61012086015190613ca7565b613d4e565b9238806110bd565b80821161140e575b50506110c0565b6114219295506113e66113f29183613d41565b923880611407565b634e487b7160e01b8b526021600452848bfd5b9361042084015181811060001461145c5761145691613d41565b9361109e565b5050879361109e565b506104208401511515611099565b60405162461bcd60e51b815260048101889052603881850152600080516020613f1f8339815191526044820152772028696e697469616c20666565642072657175697265642960401b6064820152608490fd5b60405162461bcd60e51b81526004810187905260198184015278536574746c656d656e743a206e6f206665656420707269636560381b6044820152606490fd5b8460226084926040519262461bcd60e51b845260048401528201527f536574746c656d656e743a206e6f742070656e64696e6720736574746c656d656044820152611b9d60f21b6064820152fd5b61156891503d8088833e6104088183613941565b38611057565b50346104255780600319360112610425576004546040516001600160a01b039091168152602090f35b50346104255780600319360112610425576115b06137bd565b6115b8613d00565b600160ff1960025416176002557f62e78cea01bee320cd4e420270b5ea74000d11b0c9f74754ebdbfc544b05a2586020604051338152a180f35b50346104255780600319360112610425576003546040516001600160a01b039091168152602090f35b50346104255761162a366137a7565b611632613d1e565b61163a613d00565b82805282602052604083203360005260205261165d60ff60406000205416613deb565b60025460405163d09ef24160e01b81526004810184905260089190911c6001600160a01b031691908481602481865afa9081156107c557859161181a575b50610380810151600b811015610cbc5760046116b79114613c5e565b610340810151156117c157811561176e57610420859101926116da838551613cd0565b813b156102fc578291604483926040519485938492632278f55760e11b84528b600485015260248401525af180156102f15761175a575b505061173f817fdd46d8cd4968afb89542d91ba59208e869e45ff03dcda531aa39fd6888a174c39351613cd0565b611750604051928392429184613d90565b0390a26001805580f35b6117639061392e565b610421578338611711565b60405162461bcd60e51b815260206004820152602560248201527f536574746c656d656e743a206469766964656e64206d75737420626520706f73604482015264697469766560d81b6064820152608490fd5b60405162461bcd60e51b815260206004820152602b60248201527f536574746c656d656e743a206469766964656e642061646a7573746d656e742060448201526a1b9bdd08195b98589b195960aa1b6064820152608490fd5b61182e91503d8087833e6104088183613941565b3861169b565b5034610425576020806003193601126107575760043590611853613d1e565b61185b613d00565b8280528281526040832033600052815261187c60ff60406000205416613deb565b60025460405163d09ef24160e01b8152600481018490526001600160a01b0360089290921c8216929160249186818481885afa908115610416578791611c6b575b5061038081018051600b811015611c585760046118da9114613c5e565b6102408201516003811015611c585715611c08575194600b8610156103e1579081889493923b156107665784809160446040518094819363aab3196d60e01b83528d600484015260098a8401525af19081156107c5578591611bf4575b50508160025460081c16803b15610766578480916044604051809481936315d92e3360e01b83528d6004840152428a8401525af19081156107c5578591611be0575b50506101e08101519283611ada575b8260025460081c1690813b1561083f5785809260448b604051998a938492630381bafd60e31b8452600484015281878401525af19586156102f1578996611ac1575b50610320830151611a5e575b505092600080516020613ebf833981519152600993869360c097600080516020613f3f833981519152999701511690611a16604051928392429184613e34565b0390a2611a266040518094613cdd565b82015260806040820152601060808201526f199bdc98d9481b1a5c5d5a59185d195960821b60a0820152426060820152a26001805580f35b9094508260025460081c16803b1561083f57859160448a8480946040519a8b95869463d37e527b60e01b865260048601528401525af194851561121e578895156119d657611ab19192969397955061392e565b6102ed57929385929487386119d6565b82919650611ace9061392e565b610425578794386119ca565b826004541683604084015116908784019185835116866005541692803b156108435789928360e49260405196879586946305fe3a8b60e31b865260048601528a85015260448401528b606484015260a06084840152601260a4840152711b1a5c5d5a59185d1a5bdb881c185e5bdd5d60721b60c48401525af1908115610416578791611bcc575b5050838060045416915116846005541690823b156112b457611b9f92889283899360405196879586948593636924faa760e11b855260048501613d6e565b03925af1908115610f84578691611bb8575b5050611988565b611bc19061392e565b610766578438611bb1565b611bd59061392e565b61083f578538611b61565b611be99061392e565b610421578338611979565b611bfd9061392e565b610421578338611937565b60405162461bcd60e51b8152600481018690526023818601527f536574746c656d656e743a206e6f206c69717569646174696f6e2072756c65206044820152621cd95d60ea1b6064820152608490fd5b634e487b7160e01b895260216004528489fd5b611c7f91503d8089833e6104088183613941565b386118bd565b506020806003193601126107575760043590611c9f613d1e565b611ca7613d00565b6002549060405163d09ef24160e01b81528360048201526024908581838160018060a01b03809860081c165afa908115610f84578691611fee575b506103808101908151600b8110156103e157600603611f9a5784848201511633148015611f8b575b15611f4757806103006103e0611d2593015191015190613cd0565b4211611ef557858460045416856005541660048688600354166040519283809263039f4f7560e31b82525afa90811561075b578491611ec4575b50823b156104215760c4849283604051958694859363ec185a0760e01b85523360048601528b850152604484015260806064840152600f60848401526e6172626974726174696f6e5f66656560881b60a48401525af180156102f157611eb0575b50859052600683526040862080546001600160a01b031916331790555192600b841015611e9d5790859160025460081c1690813b156102fc5760076044849283604051958694859363aab3196d60e01b85528c60048601528401525af180156102f157611e89575b5050600080516020613f3f83398151915291600760c092611e4c6040518094613cdd565b820152608060408201526015608082015274185c989a5d1c985d1a5bdb881a5b9a5d1a585d1959605a1b60a0820152426060820152a26001805580f35b611e929061392e565b610421578338611e28565b50634e487b7160e01b8552602160045284fd5b611eb99061392e565b61083f578538611dc0565b809450878092503d8311611eee575b611edd8183613941565b8101031261032f5788925138611d5f565b503d611ed3565b60405162461bcd60e51b8152600481018490526025818401527f536574746c656d656e743a206172626974726174696f6e2077696e646f7720636044820152641b1bdcd95960da1b6064820152608490fd5b60405162461bcd60e51b815260048101859052601e818501527f536574746c656d656e743a206e6f7420706172747920746f206f7264657200006044820152606490fd5b50846040820151163314611d0a565b60405162461bcd60e51b8152600481018590526027818501527f536574746c656d656e743a2063616e6e6f7420696e69746961746520617262696044820152663a3930ba34b7b760c91b6064820152608490fd5b61200291503d8088833e6104088183613941565b38611ce2565b503461042557806003193601126104255760025460405160089190911c6001600160a01b03168152602090f35b5034610425578060031936011261042557602060ff600254166040519015158152f35b50346104255760208060031936011261075757600435612076613d1e565b61207e613d00565b60025460405163d09ef24160e01b81526004810183905260249360089290921c6001600160a01b03908116929186818781875afa90811561041657879161252e575b5061038081018051600b811015610a2457600414801561251a575b156124c4576101608201805115612484576004905185856003541660405193848092636fd8129b60e11b82525afa90811561095f578a91612453575b6121219250613cd0565b4211156123fb575193600b8510156108c15790818893923b1561042157838860448983600a95604051968795869463aab3196d60e01b865260048601528401525af190811561075b5784916123e7575b50508160025460081c16803b15610421578380916044604051809481936315d92e3360e01b83528c60048401528d42908401525af190811561075b5784916123d3575b50506101a081015180612369575b506101e08101968751806122fe575b508260025460081c16803b156107665784916044898480946040519687958694630381bafd60e31b865260048601528401525af190811561075b5787916122e0575b5060c09493929181600080516020613f3f833981519152600080516020613edf83398151915298604094600080516020613eff83398151915286518781528061225d898201613e79565b428d8301520390a261227185518092613cdd565b600a888201526080858201528061228a60808201613e79565b4260608301520390a2015116955191604051928352820152608060408201526019608082015278199a5b985b17d999595917dd1a5b595bdd5d17dc99599d5b99603a1b60a0820152426060820152a36001805580f35b849392959491506122f09061392e565b610757579091928538612213565b8360045416908460408501511690856005541692803b156112b45761233d9388809460405196879586948593636924faa760e11b855260048501613d6e565b03925af19081156107c5578591612355575b506121d1565b61235e9061392e565b61042157833861234f565b82600454169083868401511690846005541692803b156102ed576123a79387809460405196879586948593636924faa760e11b855260048501613d6e565b03925af190811561075b5784916123bf575b506121c2565b6123c89061392e565b6102fc5782386123b9565b6123dc9061392e565b6102fc5782386121b4565b6123f09061392e565b6102fc578238612171565b60405162461bcd60e51b815260048101859052602b818901527f536574746c656d656e743a2066696e616c206665656420646561646c696e652060448201526a1b9bdd081c995858da195960aa1b6064820152608490fd5b90508582813d831161247d575b61246a8183613941565b8101031261032f57612121915190612117565b503d612460565b60405162461bcd60e51b8152600481018690526019818a01527814d95d1d1b195b595b9d0e881b9bc8195e1c1a5c9e481cd95d603a1b6044820152606490fd5b60405162461bcd60e51b8152600481018590526029818901527f536574746c656d656e743a206f72646572206e6f74206177616974696e6720666044820152681a5b985b081999595960ba1b6064820152608490fd5b508051600b811015610a24576005146120db565b61254291503d8089833e6104088183613941565b386120c0565b5034610425576020806003193601126107575760043590612567613d1e565b61256f613d00565b60025460405163d09ef24160e01b8152600481018490526001600160a01b0360089290921c8216929160249186818481885afa9081156104165787916129ea575b5061038081018051600b811015611c585760046125cd9114613c5e565b610320820180511561299c575142111561295a576127106125f96101c084015161020085015190613ca7565b04906101e083019182511015612916575195600b871015611c5857908189959493923b1561083f5785809160448b604051948593849263aab3196d60e01b8452600484015260098b8401525af1908115610f84578691612902575b50508260025460081c16803b1561083f5785809160448b60405194859384926315d92e3360e01b84526004840152428b8401525af1908115610f845786916128ee575b50505192836127e3575b8260025460081c16803b1561083f5785809160448b6040519485938492630381bafd60e31b8452600484015281888401525af1908115610f845786916127cf575b50508260025460081c16803b1561083f57859160448a8480946040519a8b95869463d37e527b60e01b865260048601528401525af194851561121e5788956127b0575b505092600080516020613ebf833981519152600993869360c097600080516020613f3f833981519152999701511690612765604051928392429184613e34565b0390a26127756040518094613cdd565b8201526080604082015260136080820152721b585c99da5b8818d85b1b081d1a5b595bdd5d606a1b60a0820152426060820152a26001805580f35b6127bf9192969397955061392e565b6102ed5792938592948738612725565b6127d89061392e565b6107665784386126e2565b826004541683604084015116908784019185835116866005541692803b156108435789928360e49260405196879586946305fe3a8b60e31b865260048601528a85015260448401528b606484015260a06084840152601760a48401527636b0b933b4b71031b0b636103634b8bab4b230ba34b7b760491b60c48401525af19081156104165787916128da575b5050838060045416915116846005541690823b156112b4576128ad92889283899360405196879586948593636924faa760e11b855260048501613d6e565b03925af1908115610f845786916128c6575b50506126a1565b6128cf9061392e565b6107665784386128bf565b6128e39061392e565b61083f57853861286f565b6128f79061392e565b610766578438612697565b61290b9061392e565b610766578438612654565b60405162461bcd60e51b815260048101879052601f818701527f536574746c656d656e743a206d617267696e2077617320726573746f726564006044820152606490fd5b606484866040519162461bcd60e51b83528160048401528201527f536574746c656d656e743a20646561646c696e65206e6f7420726561636865646044820152fd5b60405162461bcd60e51b8152600481018790526021818701527f536574746c656d656e743a206e6f206d617267696e2063616c6c2061637469766044820152606560f81b6064820152608490fd5b6129fe91503d8089833e6104088183613941565b386125b0565b5034610425576020806003193601126107575760043590612a23613d1e565b612a2b613d00565b60025460405163d09ef24160e01b8152600481018490526024929160081c6001600160a01b03908116919086828681865afa918215610416578792612c84575b50815115612c445783820151163303612c08576103808101908151600b811015612bf5576004612a9b9114613c5e565b60ff6102a082015116906201518091828102928184041490151715612be257906103c0612ac9920151613cd0565b4210612b93575192600b841015612b8157908591813b156102fc5760056044849283604051958694859363aab3196d60e01b85528c60048601528401525af180156102f157612b6d575b5050600080516020613f3f83398151915291600560c092612b376040518094613cdd565b82015260806040820152600e60808201526d6561726c7920657865726369736560901b60a0820152426060820152a26001805580f35b612b769061392e565b610421578338612b13565b634e487b7160e01b8652602160045285fd5b60405162461bcd60e51b8152600481018490526022818601527f536574746c656d656e743a2065786572636973652064656c6179206e6f74206d604482015261195d60f21b6064820152608490fd5b634e487b7160e01b885260116004528588fd5b634e487b7160e01b885260216004528588fd5b60405162461bcd60e51b8152600481018490526015818601527429b2ba3a3632b6b2b73a1d103737ba10313abcb2b960591b6044820152606490fd5b60405162461bcd60e51b8152600481018590526019818701527829b2ba3a3632b6b2b73a1d1034b73b30b634b21037b93232b960391b6044820152606490fd5b612c999192503d8089833e6104088183613941565b9038612a6b565b5034610425578060031936011261042557612cb96137bd565b60025460ff811615612cf95760ff19166002557f5db9ee0a495bf2e6ff9c91a7834c1ba4fdd244a5e8aa4e537bd38aeae4b073aa6020604051338152a180f35b604051638dfc202b60e01b8152600490fd5b503461042557604036600319011261042557612d25613791565b336001600160a01b03821603612d4157610a8e906004356138b9565b60405163334bd91960e11b8152600490fd5b5034610425576060366003190112610425576044356001600160401b0381116107575736602382011215610757576004810135906001600160401b0382116102fc57602436918360051b01011161075757612dac613d1e565b612db4613d00565b8180528160205260408220338352602052612dd560ff604084205416613deb565b60025460405163d09ef24160e01b81526004803590820152918383602481600886901c6001600160a01b03165afa92831561075b5784936135b6575b50610380830151600b8110156131c3576007036135655715613523576104008201516004358452600660205260408420546001600160a01b031691821561350e575b8490819060243584146134975750506004546798a7d9b8314c000094915085906001600160a01b0316803b15610757576040516315490ebb60e01b81526001600160a01b0386166004820152602481018790529082908290604490829084905af180156102f157613483575b5060025460081c6001600160a01b0316803b15610757578180916044604051809481936305e9e78d60e41b8352600435600484015260243560248401525af180156102f15761346f575b50506101408101511561343d576101408101519061034081015115158061342f575b613406575b859161010082015160028110156133f2576133b7578060243511806133ae575b613386575b505b6101e0810151918281111561337b5750612f718280613d41565b82613260575b806131eb575b600254879060081c6001600160a01b0316803b1561075757818091604460405180948193630381bafd60e31b835260043560048401528160248401525af180156102f1576131d7575b5050600080516020613e9f833981519152612ff06103809460405191829160043595429184613d90565b0390a25b015192600b8410156131c357600254859060081c6001600160a01b0316803b156107575781809160446040518094819363aab3196d60e01b83526004356004840152600860248401525af180156102f1576131af575b5060025460081c6001600160a01b0316803b15610757578180916044604051809481936315d92e3360e01b835260043560048401524260248401525af180156102f15761319b575b50506040805160043560208201908152428284015291815260608101939092916001600160401b038511848610176131855784604052835190209460018060a01b0316845280608084015260243560a0840152602435141560c083015260e0820152610100429101527fb3560d930da64161657f7700f7109520a24b93d7ff2363739ee324a1e0d6bf8760c060043592a36131306040518092613cdd565b60086020820152608060408201526014608082015273185c989a5d1c985d1a5bdb881c995cdbdb1d995960621b60a0820152426060820152600080516020613f3f83398151915260c060043592a26001805580f35b634e487b7160e01b600052604160045260246000fd5b6131a49061392e565b610766578438613092565b6131b89061392e565b61076657843861304a565b634e487b7160e01b85526021600452602485fd5b6131e09061392e565b6102ed578638612fc6565b600454604083015160055489926001600160a01b03908116929181169116823b156104215761323692849283879360405196879586948593636924faa760e11b855260048501613d6e565b03925af180156102f15761324c575b5050612f7d565b6132559061392e565b6102ed578638613245565b600454604083015160208401516005548a936001600160a01b039182169382169282169116803b156107665784928360e49260405196879586946305fe3a8b60e31b86526004860152602485015260448401528a606484015260a06084840152601660a484015275185c989a5d1c985d1a5bdb881cd95d1d1b195b595b9d60521b60c48401525af180156102f157613367575b5060045460208401516005546001600160a01b03928316929081169116823b156104215761333d92849283899360405196879586948593636924faa760e11b855260048501613d6e565b03925af180156102f157613353575b5050612f77565b61335c9061392e565b6102ed57863861334c565b6133709061392e565b6102ed5786386132f3565b612f71908093613d41565b6133a79192506113f261339b82602435613d41565b61012085015190613ca7565b9038612f55565b50801515612f50565b6024358111806133e9575b6133cd575b50612f57565b6133e29192506113f261339b60243583613d41565b90386133c7565b508015156133c2565b634e487b7160e01b88526021600452602488fd5b906104208201518181106000146134265761342091613d41565b90612f30565b50508490612f30565b506104208101511515612f2b565b606460405162461bcd60e51b81526020600482015260206024820152600080516020613f1f8339815191526044820152fd5b6134789061392e565b610766578438612f09565b61348c9061392e565b610766578438612ebf565b919491600881901c6001600160a01b03163b15610757576040516305e9e78d60e41b815260048035908201526024803590820152919082906044908290849060081c6001600160a01b03165af18015610f84576134f9575b5061038090612ff4565b94613507610380929661392e565b94906134ef565b60208401516001600160a01b03169250612e53565b60405162461bcd60e51b815260206004820152601a602482015279536574746c656d656e743a206e6f2061726269747261746f727360301b6044820152606490fd5b60405162461bcd60e51b8152602060048201526024808201527f536574746c656d656e743a206f72646572206e6f7420696e20617262697472616044820152633a34b7b760e11b6064820152608490fd5b6135cb9193503d8086833e6104088183613941565b9138612e11565b50346104255780600319360112610425576005546040516001600160a01b039091168152602090f35b503461042557604036600319011261042557610a8e60043561361b613791565b90808452836020526136336001604086200154613815565b61383b565b50346104255760203660031901126104255761365261377b565b61365a6137bd565b60028054610100600160a81b03191660089290921b610100600160a81b031691909117905580f35b503461042557602036600319011261042557602090600435815260068252604060018060a01b0391205416604051908152f35b503461042557602036600319011261042557600160406020926004358152808452200154604051908152f35b5034610425576020366003190112610425576136fb61377b565b6137036137bd565b600380546001600160a01b0319166001600160a01b039290921691909117905580f35b9050346107575760203660031901126107575760043563ffffffff60e01b81168091036102fc5760209250637965db0b60e01b811490811561376a575b5015158152f35b6301ffc9a760e01b14905038613763565b600435906001600160a01b038216820361032f57565b602435906001600160a01b038216820361032f57565b604090600319011261032f576004359060243590565b3360009081527fad3228b676f7d3cd4284a5443f17f1962b36e491b30a40b2405849e597ba5fb5602052604081205460ff16156137f75750565b6044906040519063e2517d3f60e01b82523360048301526024820152fd5b80600052600060205260406000203360005260205260ff60406000205416156137f75750565b9060009180835282602052604083209160018060a01b03169182845260205260ff604084205416156000146138b457808352826020526040832082845260205260408320600160ff198254161790557f2f8788117e7eff1d82e926ec794901d17c78024a50270940304540a733656f0d339380a4600190565b505090565b9060009180835282602052604083209160018060a01b03169182845260205260ff6040842054166000146138b45780835282602052604083208284526020526040832060ff1981541690557ff6391f5c32d9c69d2a47ea670b442974b53935d1edc7fd64eb21e047a839171b339380a4600190565b6001600160401b03811161318557604052565b601f909101601f19168101906001600160401b0382119082101761318557604052565b51906001600160a01b038216820361032f57565b919080601f8401121561032f578251906001600160401b03821161318557604051916020916139b0601f8301601f1916840185613941565b81845282828701011161032f5760005b8181106139d557508260009394955001015290565b85810183015184820184015282016139c0565b519060ff8216820361032f57565b60208183031261032f5780516001600160401b039182821161032f57019061044092838382031261032f57604051938401848110838211176131855760405282518452613a4560208401613964565b6020850152613a5660408401613964565b6040850152606083015182811161032f5781613a73918501613978565b6060850152608083015182811161032f5781613a90918501613978565b608085015260a083015182811161032f5781613aad918501613978565b60a085015260c083015182811161032f5781613aca918501613978565b60c085015260e083015191821161032f57613ae6918301613978565b60e08301526101008082015190600282101561032f5783015261012080820151908301526101408082015190830152610160808201519083015261018080820151908301526101a080820151908301526101c080820151908301526101e08082015190830152610200808201519083015261022080820151908301526102408082015190600382101561032f57830152610260613b848183016139e8565b90830152610280613b968183016139e8565b908301526102a0613ba88183016139e8565b908301526102c08082015190600382101561032f578301526102e0613bce818301613964565b90830152610300808201519083015261032080820151908301526103408082015190811515820361032f578301526103608082015190600282101561032f578301526103808082015190600b82101561032f578301526103a080820151908301526103c080820151908301526103e080820151908301526104008082015190830152610420809101519082015290565b15613c6557565b60405162461bcd60e51b815260206004820152601a602482015279536574746c656d656e743a206f72646572206e6f74206c69766560301b6044820152606490fd5b81810292918115918404141715613cba57565b634e487b7160e01b600052601160045260246000fd5b91908201809211613cba57565b90600b821015613cea5752565b634e487b7160e01b600052602160045260246000fd5b60ff60025416613d0c57565b60405163d93c066560e01b8152600490fd5b600260015414613d2f576002600155565b604051633ee5aeb560e01b8152600490fd5b91908203918211613cba57565b8115613d58570490565b634e487b7160e01b600052601260045260246000fd5b6001600160a01b03918216815291166020820152604081019190915260600190565b6040919493926060820195825260208201520152565b15613dad57565b60405162461bcd60e51b815260206004820152601660248201527529b2ba3a3632b6b2b73a1d103737ba1039b2b63632b960511b6044820152606490fd5b15613df257565b60405162461bcd60e51b815260206004820152601a60248201527914d95d1d1b195b595b9d0e881b9bdd08185d5d1a1bdc9a5e995960321b6044820152606490fd5b604091949392606082019560018060a01b0316825260208201520152565b60148152731a5b9a5d1a585b0819995959081d1a5b595bdd5d60621b602082015260400190565b6012815271199a5b985b0819995959081d1a5b595bdd5d60721b60208201526040019056fe6da40291eeb646b436d05c420b5b9f010d81df95bce846d2c3b3d45f56df19ecb009a900f426c0c9177acb33a8a806b35c53ac253d1ddf22d687986fc6b72ce42cf5022bdd8fefe86d09412967e028fa9a8cf1e1a3989d47dfd9fc64a22afa86b848a62ef7171019d243ed8f5b8e1e6c32cafed0b7fc99da26cb2fc2e7d533ec536574746c656d656e743a20737472696b65207072696365206e6f7420736574ce3a31baf9956e086200ee7044a75c2befbd050912798b7bcd25d05831ab9592a264697066735822122060446be2315ea494ce8c1bb7040c5aa56346be7714d88465c37904ce067544b064736f6c63430008140033",
  "linkReferences": {},
  "deployedLinkReferences": {}
}