{
  "_format": "hh-sol-artifact-1",
  "contractName": "VaultManager",
  "sourceName": "contracts/vault/VaultManager.sol",
  "abi": [
    {
      "inputs": [
        {
          "internalType": "address",
          "name": "_config",
          "type": "address"
        },
        {
          "internalType": "address",
          "name": "_admin",
          "type": "address"
        }
      ],
      "stateMutability": "nonpayable",
      "type": "constructor"
    },
    {
      "inputs": [],
      "name": "AccessControlBadConfirmation",
      "type": "error"
    },
    {
      "inputs": [
        {
          "internalType": "address",
          "name": "account",
          "type": "address"
        },
        {
          "internalType": "bytes32",
          "name": "neededRole",
          "type": "bytes32"
        }
      ],
      "name": "AccessControlUnauthorizedAccount",
      "type": "error"
    },
    {
      "inputs": [],
      "name": "EnforcedPause",
      "type": "error"
    },
    {
      "inputs": [],
      "name": "ExpectedPause",
      "type": "error"
    },
    {
      "inputs": [],
      "name": "ReentrancyGuardReentrantCall",
      "type": "error"
    },
    {
      "inputs": [
        {
          "internalType": "address",
          "name": "token",
          "type": "address"
        }
      ],
      "name": "SafeERC20FailedOperation",
      "type": "error"
    },
    {
      "anonymous": false,
      "inputs": [
        {
          "indexed": true,
          "internalType": "address",
          "name": "token",
          "type": "address"
        },
        {
          "indexed": false,
          "internalType": "uint256",
          "name": "amount",
          "type": "uint256"
        },
        {
          "indexed": false,
          "internalType": "string",
          "name": "feeType",
          "type": "string"
        },
        {
          "indexed": false,
          "internalType": "uint256",
          "name": "timestamp",
          "type": "uint256"
        }
      ],
      "name": "FeeCollected",
      "type": "event"
    },
    {
      "anonymous": false,
      "inputs": [
        {
          "indexed": true,
          "internalType": "address",
          "name": "user",
          "type": "address"
        },
        {
          "indexed": true,
          "internalType": "address",
          "name": "token",
          "type": "address"
        },
        {
          "indexed": false,
          "internalType": "uint256",
          "name": "amount",
          "type": "uint256"
        },
        {
          "indexed": false,
          "internalType": "uint256",
          "name": "timestamp",
          "type": "uint256"
        }
      ],
      "name": "MarginDeposited",
      "type": "event"
    },
    {
      "anonymous": false,
      "inputs": [
        {
          "indexed": true,
          "internalType": "address",
          "name": "from",
          "type": "address"
        },
        {
          "indexed": true,
          "internalType": "address",
          "name": "to",
          "type": "address"
        },
        {
          "indexed": true,
          "internalType": "address",
          "name": "token",
          "type": "address"
        },
        {
          "indexed": false,
          "internalType": "uint256",
          "name": "amount",
          "type": "uint256"
        },
        {
          "indexed": false,
          "internalType": "string",
          "name": "reason",
          "type": "string"
        },
        {
          "indexed": false,
          "internalType": "uint256",
          "name": "timestamp",
          "type": "uint256"
        }
      ],
      "name": "MarginTransferred",
      "type": "event"
    },
    {
      "anonymous": false,
      "inputs": [
        {
          "indexed": true,
          "internalType": "address",
          "name": "user",
          "type": "address"
        },
        {
          "indexed": true,
          "internalType": "address",
          "name": "token",
          "type": "address"
        },
        {
          "indexed": false,
          "internalType": "uint256",
          "name": "amount",
          "type": "uint256"
        },
        {
          "indexed": false,
          "internalType": "uint256",
          "name": "timestamp",
          "type": "uint256"
        }
      ],
      "name": "MarginWithdrawn",
      "type": "event"
    },
    {
      "anonymous": false,
      "inputs": [
        {
          "indexed": false,
          "internalType": "address",
          "name": "account",
          "type": "address"
        }
      ],
      "name": "Paused",
      "type": "event"
    },
    {
      "anonymous": false,
      "inputs": [
        {
          "indexed": true,
          "internalType": "address",
          "name": "token",
          "type": "address"
        },
        {
          "indexed": false,
          "internalType": "uint256",
          "name": "amount",
          "type": "uint256"
        },
        {
          "indexed": false,
          "internalType": "string",
          "name": "poolType",
          "type": "string"
        },
        {
          "indexed": false,
          "internalType": "uint256",
          "name": "timestamp",
          "type": "uint256"
        }
      ],
      "name": "ProfitDistributed",
      "type": "event"
    },
    {
      "anonymous": false,
      "inputs": [
        {
          "indexed": true,
          "internalType": "bytes32",
          "name": "role",
          "type": "bytes32"
        },
        {
          "indexed": true,
          "internalType": "bytes32",
          "name": "previousAdminRole",
          "type": "bytes32"
        },
        {
          "indexed": true,
          "internalType": "bytes32",
          "name": "newAdminRole",
          "type": "bytes32"
        }
      ],
      "name": "RoleAdminChanged",
      "type": "event"
    },
    {
      "anonymous": false,
      "inputs": [
        {
          "indexed": true,
          "internalType": "bytes32",
          "name": "role",
          "type": "bytes32"
        },
        {
          "indexed": true,
          "internalType": "address",
          "name": "account",
          "type": "address"
        },
        {
          "indexed": true,
          "internalType": "address",
          "name": "sender",
          "type": "address"
        }
      ],
      "name": "RoleGranted",
      "type": "event"
    },
    {
      "anonymous": false,
      "inputs": [
        {
          "indexed": true,
          "internalType": "bytes32",
          "name": "role",
          "type": "bytes32"
        },
        {
          "indexed": true,
          "internalType": "address",
          "name": "account",
          "type": "address"
        },
        {
          "indexed": true,
          "internalType": "address",
          "name": "sender",
          "type": "address"
        }
      ],
      "name": "RoleRevoked",
      "type": "event"
    },
    {
      "anonymous": false,
      "inputs": [
        {
          "indexed": false,
          "internalType": "address",
          "name": "account",
          "type": "address"
        }
      ],
      "name": "Unpaused",
      "type": "event"
    },
    {
      "inputs": [],
      "name": "DEFAULT_ADMIN_ROLE",
      "outputs": [
        {
          "internalType": "bytes32",
          "name": "",
          "type": "bytes32"
        }
      ],
      "stateMutability": "view",
      "type": "function"
    },
    {
      "inputs": [],
      "name": "VAULT_OPERATOR_ROLE",
      "outputs": [
        {
          "internalType": "bytes32",
          "name": "",
          "type": "bytes32"
        }
      ],
      "stateMutability": "view",
      "type": "function"
    },
    {
      "inputs": [
        {
          "internalType": "address",
          "name": "_user",
          "type": "address"
        },
        {
          "internalType": "address",
          "name": "_token",
          "type": "address"
        },
        {
          "internalType": "uint256",
          "name": "_amount",
          "type": "uint256"
        }
      ],
      "name": "adminSetMarginBalance",
      "outputs": [],
      "stateMutability": "nonpayable",
      "type": "function"
    },
    {
      "inputs": [
        {
          "internalType": "address",
          "name": "_token",
          "type": "address"
        },
        {
          "internalType": "uint256",
          "name": "_lpAmount",
          "type": "uint256"
        },
        {
          "internalType": "uint256",
          "name": "_interactAmount",
          "type": "uint256"
        },
        {
          "internalType": "uint256",
          "name": "_donationAmount",
          "type": "uint256"
        }
      ],
      "name": "allocateProfitToSubPools",
      "outputs": [],
      "stateMutability": "nonpayable",
      "type": "function"
    },
    {
      "inputs": [
        {
          "internalType": "address",
          "name": "_token",
          "type": "address"
        },
        {
          "internalType": "address[]",
          "name": "_recipients",
          "type": "address[]"
        },
        {
          "internalType": "uint256[]",
          "name": "_amounts",
          "type": "uint256[]"
        }
      ],
      "name": "batchDistributeNodeRewards",
      "outputs": [],
      "stateMutability": "nonpayable",
      "type": "function"
    },
    {
      "inputs": [
        {
          "internalType": "address",
          "name": "_user",
          "type": "address"
        },
        {
          "internalType": "address",
          "name": "_token",
          "type": "address"
        },
        {
          "internalType": "uint256",
          "name": "_amount",
          "type": "uint256"
        },
        {
          "internalType": "string",
          "name": "_feeType",
          "type": "string"
        }
      ],
      "name": "collectFee",
      "outputs": [],
      "stateMutability": "nonpayable",
      "type": "function"
    },
    {
      "inputs": [],
      "name": "config",
      "outputs": [
        {
          "internalType": "contract Config",
          "name": "",
          "type": "address"
        }
      ],
      "stateMutability": "view",
      "type": "function"
    },
    {
      "inputs": [
        {
          "internalType": "address",
          "name": "_user",
          "type": "address"
        },
        {
          "internalType": "address",
          "name": "_token",
          "type": "address"
        },
        {
          "internalType": "uint256",
          "name": "_amount",
          "type": "uint256"
        }
      ],
      "name": "depositMargin",
      "outputs": [],
      "stateMutability": "nonpayable",
      "type": "function"
    },
    {
      "inputs": [
        {
          "internalType": "address",
          "name": "_token",
          "type": "address"
        },
        {
          "internalType": "uint256",
          "name": "_amount",
          "type": "uint256"
        }
      ],
      "name": "depositToDonationPool",
      "outputs": [],
      "stateMutability": "nonpayable",
      "type": "function"
    },
    {
      "inputs": [
        {
          "internalType": "address",
          "name": "_token",
          "type": "address"
        },
        {
          "internalType": "uint256",
          "name": "_amount",
          "type": "uint256"
        }
      ],
      "name": "depositToInteractPool",
      "outputs": [],
      "stateMutability": "nonpayable",
      "type": "function"
    },
    {
      "inputs": [
        {
          "internalType": "address",
          "name": "_token",
          "type": "address"
        },
        {
          "internalType": "uint256",
          "name": "_amount",
          "type": "uint256"
        }
      ],
      "name": "depositToLPPool",
      "outputs": [],
      "stateMutability": "nonpayable",
      "type": "function"
    },
    {
      "inputs": [
        {
          "internalType": "address",
          "name": "_token",
          "type": "address"
        },
        {
          "internalType": "uint256",
          "name": "_amount",
          "type": "uint256"
        }
      ],
      "name": "distributeProfits",
      "outputs": [],
      "stateMutability": "nonpayable",
      "type": "function"
    },
    {
      "inputs": [
        {
          "internalType": "address",
          "name": "",
          "type": "address"
        }
      ],
      "name": "donationPoolBalance",
      "outputs": [
        {
          "internalType": "uint256",
          "name": "",
          "type": "uint256"
        }
      ],
      "stateMutability": "view",
      "type": "function"
    },
    {
      "inputs": [
        {
          "internalType": "address",
          "name": "_token",
          "type": "address"
        }
      ],
      "name": "getProfitPoolBalance",
      "outputs": [
        {
          "internalType": "uint256",
          "name": "",
          "type": "uint256"
        }
      ],
      "stateMutability": "view",
      "type": "function"
    },
    {
      "inputs": [
        {
          "internalType": "bytes32",
          "name": "role",
          "type": "bytes32"
        }
      ],
      "name": "getRoleAdmin",
      "outputs": [
        {
          "internalType": "bytes32",
          "name": "",
          "type": "bytes32"
        }
      ],
      "stateMutability": "view",
      "type": "function"
    },
    {
      "inputs": [
        {
          "internalType": "address",
          "name": "_token",
          "type": "address"
        }
      ],
      "name": "getTotalMarginPool",
      "outputs": [
        {
          "internalType": "uint256",
          "name": "",
          "type": "uint256"
        }
      ],
      "stateMutability": "view",
      "type": "function"
    },
    {
      "inputs": [
        {
          "internalType": "address",
          "name": "_user",
          "type": "address"
        },
        {
          "internalType": "address",
          "name": "_token",
          "type": "address"
        }
      ],
      "name": "getUserMarginBalance",
      "outputs": [
        {
          "internalType": "uint256",
          "name": "",
          "type": "uint256"
        }
      ],
      "stateMutability": "view",
      "type": "function"
    },
    {
      "inputs": [
        {
          "internalType": "address",
          "name": "_operator",
          "type": "address"
        }
      ],
      "name": "grantOperatorRole",
      "outputs": [],
      "stateMutability": "nonpayable",
      "type": "function"
    },
    {
      "inputs": [
        {
          "internalType": "bytes32",
          "name": "role",
          "type": "bytes32"
        },
        {
          "internalType": "address",
          "name": "account",
          "type": "address"
        }
      ],
      "name": "grantRole",
      "outputs": [],
      "stateMutability": "nonpayable",
      "type": "function"
    },
    {
      "inputs": [
        {
          "internalType": "bytes32",
          "name": "role",
          "type": "bytes32"
        },
        {
          "internalType": "address",
          "name": "account",
          "type": "address"
        }
      ],
      "name": "hasRole",
      "outputs": [
        {
          "internalType": "bool",
          "name": "",
          "type": "bool"
        }
      ],
      "stateMutability": "view",
      "type": "function"
    },
    {
      "inputs": [
        {
          "internalType": "address",
          "name": "",
          "type": "address"
        }
      ],
      "name": "interactPoolBalance",
      "outputs": [
        {
          "internalType": "uint256",
          "name": "",
          "type": "uint256"
        }
      ],
      "stateMutability": "view",
      "type": "function"
    },
    {
      "inputs": [
        {
          "internalType": "address",
          "name": "",
          "type": "address"
        }
      ],
      "name": "lpPoolBalance",
      "outputs": [
        {
          "internalType": "uint256",
          "name": "",
          "type": "uint256"
        }
      ],
      "stateMutability": "view",
      "type": "function"
    },
    {
      "inputs": [
        {
          "internalType": "address",
          "name": "",
          "type": "address"
        }
      ],
      "name": "marginPoolBalance",
      "outputs": [
        {
          "internalType": "uint256",
          "name": "",
          "type": "uint256"
        }
      ],
      "stateMutability": "view",
      "type": "function"
    },
    {
      "inputs": [],
      "name": "pause",
      "outputs": [],
      "stateMutability": "nonpayable",
      "type": "function"
    },
    {
      "inputs": [],
      "name": "paused",
      "outputs": [
        {
          "internalType": "bool",
          "name": "",
          "type": "bool"
        }
      ],
      "stateMutability": "view",
      "type": "function"
    },
    {
      "inputs": [
        {
          "internalType": "address",
          "name": "",
          "type": "address"
        }
      ],
      "name": "profitPoolBalance",
      "outputs": [
        {
          "internalType": "uint256",
          "name": "",
          "type": "uint256"
        }
      ],
      "stateMutability": "view",
      "type": "function"
    },
    {
      "inputs": [
        {
          "internalType": "address",
          "name": "_seller",
          "type": "address"
        },
        {
          "internalType": "uint256",
          "name": "_amount",
          "type": "uint256"
        }
      ],
      "name": "refundMargin",
      "outputs": [],
      "stateMutability": "nonpayable",
      "type": "function"
    },
    {
      "inputs": [
        {
          "internalType": "address",
          "name": "_buyer",
          "type": "address"
        },
        {
          "internalType": "uint256",
          "name": "_amount",
          "type": "uint256"
        }
      ],
      "name": "refundPremium",
      "outputs": [],
      "stateMutability": "nonpayable",
      "type": "function"
    },
    {
      "inputs": [
        {
          "internalType": "bytes32",
          "name": "role",
          "type": "bytes32"
        },
        {
          "internalType": "address",
          "name": "callerConfirmation",
          "type": "address"
        }
      ],
      "name": "renounceRole",
      "outputs": [],
      "stateMutability": "nonpayable",
      "type": "function"
    },
    {
      "inputs": [
        {
          "internalType": "bytes32",
          "name": "role",
          "type": "bytes32"
        },
        {
          "internalType": "address",
          "name": "account",
          "type": "address"
        }
      ],
      "name": "revokeRole",
      "outputs": [],
      "stateMutability": "nonpayable",
      "type": "function"
    },
    {
      "inputs": [
        {
          "internalType": "address",
          "name": "_config",
          "type": "address"
        }
      ],
      "name": "setConfig",
      "outputs": [],
      "stateMutability": "nonpayable",
      "type": "function"
    },
    {
      "inputs": [
        {
          "internalType": "bytes4",
          "name": "interfaceId",
          "type": "bytes4"
        }
      ],
      "name": "supportsInterface",
      "outputs": [
        {
          "internalType": "bool",
          "name": "",
          "type": "bool"
        }
      ],
      "stateMutability": "view",
      "type": "function"
    },
    {
      "inputs": [
        {
          "internalType": "address",
          "name": "_from",
          "type": "address"
        },
        {
          "internalType": "address",
          "name": "_to",
          "type": "address"
        },
        {
          "internalType": "address",
          "name": "_token",
          "type": "address"
        },
        {
          "internalType": "uint256",
          "name": "_amount",
          "type": "uint256"
        },
        {
          "internalType": "string",
          "name": "_reason",
          "type": "string"
        }
      ],
      "name": "transferMargin",
      "outputs": [],
      "stateMutability": "nonpayable",
      "type": "function"
    },
    {
      "inputs": [
        {
          "internalType": "address",
          "name": "_recipient",
          "type": "address"
        },
        {
          "internalType": "uint256",
          "name": "_amount",
          "type": "uint256"
        }
      ],
      "name": "transferReward",
      "outputs": [],
      "stateMutability": "nonpayable",
      "type": "function"
    },
    {
      "inputs": [
        {
          "internalType": "address",
          "name": "_token",
          "type": "address"
        },
        {
          "internalType": "uint256",
          "name": "_amount",
          "type": "uint256"
        },
        {
          "internalType": "address",
          "name": "_feedProtocol",
          "type": "address"
        }
      ],
      "name": "transferToFeedProtocol",
      "outputs": [],
      "stateMutability": "nonpayable",
      "type": "function"
    },
    {
      "inputs": [
        {
          "internalType": "uint256",
          "name": "_amount",
          "type": "uint256"
        }
      ],
      "name": "transferToTreasury",
      "outputs": [],
      "stateMutability": "nonpayable",
      "type": "function"
    },
    {
      "inputs": [],
      "name": "unpause",
      "outputs": [],
      "stateMutability": "nonpayable",
      "type": "function"
    },
    {
      "inputs": [
        {
          "internalType": "address",
          "name": "",
          "type": "address"
        },
        {
          "internalType": "address",
          "name": "",
          "type": "address"
        }
      ],
      "name": "userMarginBalance",
      "outputs": [
        {
          "internalType": "uint256",
          "name": "",
          "type": "uint256"
        }
      ],
      "stateMutability": "view",
      "type": "function"
    },
    {
      "inputs": [
        {
          "internalType": "address",
          "name": "_token",
          "type": "address"
        },
        {
          "internalType": "uint256",
          "name": "_amount",
          "type": "uint256"
        },
        {
          "internalType": "address",
          "name": "_recipient",
          "type": "address"
        }
      ],
      "name": "withdrawFromDonationPool",
      "outputs": [],
      "stateMutability": "nonpayable",
      "type": "function"
    },
    {
      "inputs": [
        {
          "internalType": "address",
          "name": "_token",
          "type": "address"
        },
        {
          "internalType": "uint256",
          "name": "_amount",
          "type": "uint256"
        },
        {
          "internalType": "address",
          "name": "_recipient",
          "type": "address"
        }
      ],
      "name": "withdrawFromInteractPool",
      "outputs": [],
      "stateMutability": "nonpayable",
      "type": "function"
    },
    {
      "inputs": [
        {
          "internalType": "address",
          "name": "_token",
          "type": "address"
        },
        {
          "internalType": "uint256",
          "name": "_amount",
          "type": "uint256"
        },
        {
          "internalType": "address",
          "name": "_recipient",
          "type": "address"
        }
      ],
      "name": "withdrawFromLPPool",
      "outputs": [],
      "stateMutability": "nonpayable",
      "type": "function"
    },
    {
      "inputs": [
        {
          "internalType": "address",
          "name": "_user",
          "type": "address"
        },
        {
          "internalType": "address",
          "name": "_token",
          "type": "address"
        },
        {
          "internalType": "uint256",
          "name": "_amount",
          "type": "uint256"
        }
      ],
      "name": "withdrawMargin",
      "outputs": [],
      "stateMutability": "nonpayable",
      "type": "function"
    }
  ],
  "bytecode": "0x608034620000ac57601f620028b738819003918201601f19168301916001600160401b03831184841017620000b1578084926040948552833981010312620000ac57806200005f6020620000576200009b94620000c7565b9201620000c7565b6001805560028054610100600160a81b03191660089390931b610100600160a81b0316929092179091556200009481620000dc565b506200015c565b506040516126989081620001ff8239f35b600080fd5b634e487b7160e01b600052604160045260246000fd5b51906001600160a01b0382168203620000ac57565b6001600160a01b031660008181527fad3228b676f7d3cd4284a5443f17f1962b36e491b30a40b2405849e597ba5fb5602052604081205490919060ff166200015857818052816020526040822081835260205260408220600160ff198254161790553391600080516020620028978339815191528180a4600190565b5090565b6001600160a01b031660008181527fad6010f11d85e6849ec87f5f41f95a2725aaf728916b399656c75ce30b0d2c5460205260408120549091907f696e87880cf63dca8f080e7a026952044d39afbd9cb8ab3582bd4b29e6071b299060ff16620001f957808352826020526040832082845260205260408320600160ff1982541617905560008051602062002897833981519152339380a4600190565b50509056fe6080604081815260048036101561001557600080fd5b600092833560e01c90816301ffc9a714611dac5750806302817a6d14611bcd578063063d11de14611a7d57806308b8bb4b1461182a57806309143b9f1461169657806315490ebb1461147d5780631de8ae531461144557806320e3dbd4146113f8578063234c30d71461120f578063248a9ca3146111e657806327ac0c58146111965780632f2ff15d1461116d5780632ff1d4581461104d57806331aa128d14610f2757806336568abe14610ee05780633e0e706e14610eb95780633f4ba83a14610e505780634a650a2c14610d7a578063564a6c9814610ca957806358dbf21c14610bd05780635c975abb14610bac5780636208edc914610ad0578063715d5896146107f957806375818bd7146109fa57806377c5b5061461096257806379502c55146109355780637af4c51b146108fd5780638456cb59146108a257806391d148541461085d578063a217fddf14610842578063a7a62975146107f9578063ad04570d1461057a578063bdf3e7801461071b578063bed62365146106f257838163c3c8f58c146105b257508063c69c75cd1461057a578063d249f54e1461047c578063d44f97b814610444578063d547741f14610406578063e1ede08f14610326578063ec185a071461022b5763f6faa649146101f357600080fd5b346102275760203660031901126102275760209282916001600160a01b03610219611e00565b168252845220549051908152f35b8280fd5b503461022757608036600319011261022757610245611e00565b918361024f611e1b565b6044356064356001600160401b038111610322577f66aecc579aa1ef463c0ed1547c2cb6163370e6311a60cba815252acbb398f213956102f683610318956102c960ff6102a08b9736908801611e61565b9b909a6000805160206126438339815191528152806020528181203382526020522054166120df565b6102d16122d3565b6102d96122b5565b6102e4821515612137565b6001600160a01b03169930908b6121f3565b87895260205280882061030a838254612197565b9055519384934292856123a9565b0390a26001805580f35b8380fd5b5050346104025780600319360112610402576000805160206125c383398151915260a0610351611e00565b6024359060008051602061264383398151915286528560205284862033875260205261038260ff86882054166120df565b61038a6122d3565b6103926122b5565b61039d821515612137565b600180841b0316936103b1823033886121f3565b84865260076020528086206103c7838254612197565b9055805191825260606020830152601060608301526f191bdb985d1a5bdb97d9195c1bdcda5d60821b60808301524290820152a26001805580f35b5080fd5b509034610227578060031936011261022757610440913561043b600161042a611e1b565b938387528660205286200154611f4f565b61206a565b5080f35b5050346104025760203660031901126104025760209181906001600160a01b0361046c611e00565b1681526007845220549051908152f35b505034610402577f63ca1bee673fe6befaa933c20ecf9ca16a04bd4273bffe1a05b0b9cc9b9be043906104ae36611ec2565b60008051602061264383398151915286959394929552602086815282872033885281526104e060ff84892054166120df565b6104e86122d3565b6104f06122b5565b6104fb821515612137565b6105688260018060a01b039687811697888b5260088552868b20991698898b52845261052c82878c205410156122f6565b878a5260088452858a20898b528452858a2061054983825461234d565b9055888a5260038452858a2061056083825461234d565b90558861235a565b82519182524290820152a36001805580f35b5050346104025760203660031901126104025760209181906001600160a01b036105a2611e00565b1681526003845220549051908152f35b808484346106ee5760803660031901126106ee57816000805160206125c38339815191529260608560a0946105e5611e00565b906024356044359161065e60643594600080516020612643833981519152875261062160ff8a602099808b528181203382528b522054166120df565b6106296122d3565b6106316122b5565b6106448661063f8787612197565b612197565b998a916001808e1b03169d8e815284895220541015612457565b8a8c528452858b2061067188825461234d565b9055898b5260058452610688868c20918254612197565b9055888a526006835261069f858b20918254612197565b9055878952600782526106b6848a20918254612197565b905582519384528301526011606083015270383937b334ba2fb0b63637b1b0ba34b7b760791b60808301524290820152a26001805580f35b5050fd5b505034610402578160031936011261040257602090516000805160206126438339815191528152f35b505034610402576000805160206125c383398151915260a06107bf61073f36611e8e565b959190809391600080516020612643833981519152895288602052838920338a5260205261077260ff858b2054166120df565b61077a6122d3565b6107826122b5565b600180871b03169687895260066020526107a182858b205410156124b3565b87895260066020528389206107b783825461234d565b90558761235a565b8051918252606060208301526011606083015270696e7465726163745f776974686472617760781b60808301524290820152a26001805580f35b50503461040257806003193601126104025780602092610817611e00565b61081f611e1b565b6001600160a01b0391821683526008865283832091168252845220549051908152f35b50503461040257816003193601126104025751908152602090f35b50346102275781600319360112610227578160209360ff9261087d611e1b565b903582528186528282206001600160a01b039091168252855220549151911615158152f35b50503461040257816003193601126104025760207f62e78cea01bee320cd4e420270b5ea74000d11b0c9f74754ebdbfc544b05a258916108e0611ef7565b6108e86122b5565b600160ff19600254161760025551338152a180f35b5050346104025760203660031901126104025760209181906001600160a01b03610925611e00565b1681526005845220549051908152f35b505034610402578160031936011261040257600254905160089190911c6001600160a01b03168152602090f35b505034610402576109f39061097636611e8e565b916000805160206126438339815191528694929452856020528186203387526020526109a760ff83882054166120df565b6109af6122d3565b6109b76122b5565b60018060a01b03169081865260066020526109d7848288205410156124b3565b818652600660205285206109ec84825461234d565b905561235a565b6001805580f35b505034610402576000805160206125c383398151915260a0610a96610a1e36611e8e565b959190809391600080516020612643833981519152895288602052838920338a52602052610a5160ff858b2054166120df565b610a596122d3565b610a616122b5565b600180871b0316968789526007602052610a8082858b20541015612510565b87895260076020528389206107b783825461234d565b8051918252606060208301526011606083015270646f6e6174696f6e5f776974686472617760781b60808301524290820152a26001805580f35b5050346104025780600319360112610402576000805160206125c383398151915260a0610afb611e00565b60243590600080516020612643833981519152865285602052848620338752602052610b2c60ff86882054166120df565b610b346122d3565b610b3c6122b5565b610b47821515612137565b600180841b031693610b5b823033886121f3565b8486526006602052808620610b71838254612197565b9055805191825260606020830152601060608301526f1a5b9d195c9858dd17d9195c1bdcda5d60821b60808301524290820152a26001805580f35b50503461040257816003193601126104025760209060ff6002541690519015158152f35b5050346104025760008051602061262383398151915290610bf036611ec2565b610bfd9492939194611ef7565b6001600160a01b0393841680875260086020908152838820969095168088529585528287205490949080831115610c7257610c38908361234d565b86885260038252610c4d848920918254612197565b90555b848752600881528287208688528152818388205582519182524290820152a380f35b82818110610c82575b5050610c50565b610c8b9161234d565b86885260038252610ca084892091825461234d565b90553882610c7b565b5050346104025760008051602061262383398151915290610cc936611ec2565b60008051602061264383398151915286959395949294526020938685528287203388528552610cfd60ff84892054166120df565b610d056122d3565b610d0d6122b5565b610d18821515612137565b6001600160a01b0390811695610d308330838a6121f3565b1693848752600881528287208688528152828720610d4f838254612197565b905585875260038152828720610d66838254612197565b905582519182524290820152a36001805580f35b5050346104025780600319360112610402576000805160206125c383398151915260a0610da5611e00565b60243590600080516020612643833981519152865285602052848620338752602052610dd660ff86882054166120df565b610dde6122d3565b610de66122b5565b610df1821515612137565b600180841b031693610e05823033886121f3565b8486526005602052808620610e1b838254612197565b9055805191825260606020830152600a6060830152691b1c17d9195c1bdcda5d60b21b60808301524290820152a26001805580f35b5034610227578260031936011261022757610e69611ef7565b6002549060ff821615610eab575060ff1916600255513381527f5db9ee0a495bf2e6ff9c91a7834c1ba4fdd244a5e8aa4e537bd38aeae4b073aa90602090a180f35b8251638dfc202b60e01b8152fd5b50346102275760203660031901126102275760209282916001600160a01b03610219611e00565b50919034610402578060031936011261040257610efb611e1b565b90336001600160a01b03831603610f18575061044091923561206a565b5163334bd91960e11b81528390fd5b50903461022757610f3736611e8e565b6000805160206126438339815191528694939294526020918683528387203388528352610f6960ff85892054166120df565b610f716122d3565b610f796122b5565b6001600160a01b031680875260058352838720549095908511610fff57509160608492610fcf6000805160206125c38339815191529660a096898b5260058452858b20610fc783825461234d565b90558961235a565b8251938452830152600b60608301526a6c705f776974686472617760a81b60808301524290820152a26001805580f35b835162461bcd60e51b8152908101839052602260248201527f5661756c744d616e616765723a20696e73756666696369656e74204c5020706f6044820152611bdb60f21b6064820152608490fd5b50346102275760a036600319011261022757611067611e00565b61106f611e1b565b92846044359460018060a01b03948587168097036102275760843593606435906001600160401b0386116111695787899461112184846110c461115f986000805160206126038339815191529c369101611e61565b9a9099600080516020612643833981519152825260209e8f9e8f84815285852090338652526110f860ff86862054166120df565b6111006122d3565b6111086122b5565b169d8e83526008815283832091835252205410156122f6565b888c5260088a52828c208b8d528a52828c2061113e85825461234d565b90551697888b5260088152818b20908a8c5252808a2061030a838254612197565b0390a46001805580f35b8480fd5b5090346102275780600319360112610227576104409135611191600161042a611e1b565b612003565b50503461040257602036600319011261040257610440906111e160016111ba611e00565b926111c3611ef7565b60008051602061264383398151915286528560205285200154611f4f565b611f75565b503461022757602036600319011261022757816020936001923581528085522001549051908152f35b5090346102275760603660031901126102275761122a611e00565b6001600160401b03929091906024358481116113f45761124d9036908301611e31565b946044359081116113f0576112659036908401611e31565b6000805160206126438339815191528896929652602093888552858920338a52855261129660ff878b2054166120df565b61129e6122d3565b6112a66122b5565b8188036113ad57508795885b828110611388575060018060a01b0380931697888a52600786526112db88888c20541015612510565b888a5260078652868a206112f089825461234d565b9055895b81811061134a578a8a6000805160206125c383398151915260a08c8c60608d825193845283015260126060830152710dcdec8cabee4caeec2e4c8e6bec4c2e8c6d60731b60808301524290820152a26001805580f35b61135581838861257c565b359085821682036113845761137a61137f9261137283888861257c565b35908d61235a565b61256d565b6112f4565b8b80fd5b966113a26113a89161139b8a868661257c565b3590612197565b9761256d565b6112b2565b855162461bcd60e51b8152908101859052601d60248201527f5661756c744d616e616765723a206c656e677468206d69736d617463680000006044820152606490fd5b8680fd5b8580fd5b833461144257602036600319011261144257611412611e00565b61141a611ef7565b60028054610100600160a81b03191660089290921b610100600160a81b031691909117905580f35b80fd5b5050346104025760203660031901126104025760209181906001600160a01b0361146d611e00565b1681526006845220549051908152f35b509034610227578060031936011261022757611497611e00565b9060243591600080516020612643833981519152855260209085825282862033875282526114ca60ff84882054166120df565b6114d26122d3565b6114da6122b5565b6001600160a01b0381811615611653576114f5851515612137565b85838260025460081c168651928380926320f2e74760e11b82525afa90811561164957908291899161161c575b50161561160257739f2140319726f9b851073a303415f13ec0cda2695b16948587528083528484882054106115b75784926115806000805160206125c38339815191529660a096946060948a8c528452858b20610fc783825461234d565b82519384528301526012606083015271185c989a5d1c985d1a5bdb97dc995dd85c9960721b60808301524290820152a26001805580f35b835162461bcd60e51b8152908101839052603160248201526000805160206125e38339815191526044820152701d081c1bdbdb08199bdc881c995dd85c99607a1b6064820152608490fd5b7355d398326f99059ff775485246999027b319795561153f565b61163c9150853d8711611642575b61163481836121ba565b8101906123dd565b38611522565b503d61162a565b85513d8a823e3d90fd5b835162461bcd60e51b8152808701849052601f60248201527f5661756c744d616e616765723a20696e76616c696420726563697069656e74006044820152606490fd5b50346102275781600319360112610227576116af611e00565b91602435906000805160206126438339815191528552602085815281862033875281526116e160ff83882054166120df565b6116e96122d3565b6116f16122b5565b6001600160a01b038581169485156117db5761170e851515612137565b828260025460081c16855192838092639ab4a44560e01b82525afa9081156117d1576060939261176f9287928b916117b4575b501697888a526003845261175a82878c205410156123fc565b888a5260038452858a2061056083825461234d565b8251938452830152600d60608301526c1b585c99da5b97dc99599d5b99609a1b6080830152429082015260008051602061260383398151915260a03092a46001805580f35b6117cb9150853d87116116425761163481836121ba565b38611741565b84513d8a823e3d90fd5b835162461bcd60e51b81529081018390526024808201527f5661756c744d616e616765723a20696e76616c69642073656c6c6572206164646044820152637265737360e01b6064820152608490fd5b5034610227578160031936011261022757611843611e00565b916024359060008051602061264383398151915285526020858152818620338752815261187560ff83882054166120df565b61187d6122d3565b6118856122b5565b60018060a01b03809516948587528482526118a584848920541015612457565b8587528482528287206118b985825461234d565b905560025460081c16938251906362f5ad6360e01b825282828281895afa80156117d1578890611a4e575b6118f59250612710928391876124a0565b04958451633c6ec58560e11b815284818481855afa908115611a4457908592918b91611a0e575b5061192790886124a0565b5085516301eb418960e71b815292839182905afa9081156117d15788916119c3575b50916000805160206125c38339815191529560609261196c87969560a0986124a0565b04888a5260058352611982858b20918254612197565b905587895260078252611999848a20918254612197565b905582519384528301526003606083015262185b1b60ea1b60808301524290820152a26001805580f35b9194939280915082813d8311611a07575b6119de81836121ba565b81010312611a03579051929391929091906000805160206125c3833981519152611949565b8780fd5b503d6119d4565b83819492503d8311611a3d575b611a2581836121ba565b81010312611a39576119278592519061191c565b8980fd5b503d611a1b565b86513d8c823e3d90fd5b508282813d8311611a76575b611a6481836121ba565b81010312611a03576118f591516118e4565b503d611a5a565b50903461022757602090816003193601126103225782359160008051602061264383398151915285528481528185203386528152611ac060ff83872054166120df565b611ac86122d3565b611ad06122b5565b611adb831515612137565b6002548251639ab4a44560e01b81526001600160a01b0391839082908890829060081c86165afa908115611bc3579260a094926060926000805160206125c383398151915297958a91611ba6575b50169687895260038252611b4285858b205410156123fc565b87895260038252838920611b5786825461234d565b90558789528152828820611b6c858254612197565b90558251938452830152601360608301527270656e616c74795f746f5f747265617375727960681b60808301524290820152a26001805580f35b611bbd9150833d85116116425761163481836121ba565b38611b29565b84513d89823e3d90fd5b509034610227578060031936011261022757611be7611e00565b9060243590600080516020612643833981519152855260208581528186203387528152611c1960ff83882054166120df565b611c216122d3565b611c296122b5565b6001600160a01b0384811694908515611d5d57611c47851515612137565b86838260025460081c16865192838092639ab4a44560e01b82525afa908115611d53578991611d36575b5016958351906370a0823160e01b8252309082015282816024818a5afa9081156117d15790859392918991611d01575b5092611cbb91611cb58260609610156122f6565b8861235a565b8251938452830152600e60608301526d1c1c995b5a5d5b57dc99599d5b9960921b6080830152429082015260008051602061260383398151915260a03092a46001805580f35b809450838092503d8311611d2f575b611d1a81836121ba565b81010312611a03579151849290611cbb611ca1565b503d611d10565b611d4d9150843d86116116425761163481836121ba565b38611c71565b85513d8b823e3d90fd5b835162461bcd60e51b8152808801849052602360248201527f5661756c744d616e616765723a20696e76616c6964206275796572206164647260448201526265737360e81b6064820152608490fd5b92505034610227576020366003190112610227573563ffffffff60e01b81168091036102275760209250637965db0b60e01b8114908115611def575b5015158152f35b6301ffc9a760e01b14905038611de8565b600435906001600160a01b0382168203611e1657565b600080fd5b602435906001600160a01b0382168203611e1657565b9181601f84011215611e16578235916001600160401b038311611e16576020808501948460051b010111611e1657565b9181601f84011215611e16578235916001600160401b038311611e165760208381860195010111611e1657565b6060906003190112611e16576001600160a01b036004358181168103611e165791602435916044359081168103611e165790565b6060906003190112611e16576001600160a01b03906004358281168103611e1657916024359081168103611e16579060443590565b3360009081527fad3228b676f7d3cd4284a5443f17f1962b36e491b30a40b2405849e597ba5fb5602052604081205460ff1615611f315750565b6044906040519063e2517d3f60e01b82523360048301526024820152fd5b80600052600060205260406000203360005260205260ff6040600020541615611f315750565b6001600160a01b031660008181527fad6010f11d85e6849ec87f5f41f95a2725aaf728916b399656c75ce30b0d2c5460205260408120549091906000805160206126438339815191529060ff16611ffe57808352826020526040832082845260205260408320600160ff198254161790556000805160206125a3833981519152339380a4600190565b505090565b9060009180835282602052604083209160018060a01b03169182845260205260ff60408420541615600014611ffe57808352826020526040832082845260205260408320600160ff198254161790556000805160206125a3833981519152339380a4600190565b9060009180835282602052604083209160018060a01b03169182845260205260ff604084205416600014611ffe5780835282602052604083208284526020526040832060ff1981541690557ff6391f5c32d9c69d2a47ea670b442974b53935d1edc7fd64eb21e047a839171b339380a4600190565b156120e657565b60405162461bcd60e51b8152602060048201526024808201527f5661756c744d616e616765723a2063616c6c6572206973206e6f74206f70657260448201526330ba37b960e11b6064820152608490fd5b1561213e57565b60405162461bcd60e51b815260206004820152602b60248201527f5661756c744d616e616765723a20616d6f756e74206d7573742062652067726560448201526a061746572207468616e20360ac1b6064820152608490fd5b919082018092116121a457565b634e487b7160e01b600052601160045260246000fd5b601f909101601f19168101906001600160401b038211908210176121dd57604052565b634e487b7160e01b600052604160045260246000fd5b6040516323b872dd60e01b60208201526001600160a01b03928316602482015292909116604483015260648083019390935291815260a08101918183106001600160401b038411176121dd5761224b9260405261224d565b565b906000602091828151910182855af1156122a9576000513d6122a057506001600160a01b0381163b155b61227e5750565b604051635274afe760e01b81526001600160a01b039091166004820152602490fd5b60011415612277565b6040513d6000823e3d90fd5b60ff600254166122c157565b60405163d93c066560e01b8152600490fd5b6002600154146122e4576002600155565b604051633ee5aeb560e01b8152600490fd5b156122fd57565b60405162461bcd60e51b815260206004820152602260248201527f5661756c744d616e616765723a20696e73756666696369656e742062616c616e604482015261636560f01b6064820152608490fd5b919082039182116121a457565b60405163a9059cbb60e01b60208201526001600160a01b03909216602483015260448083019390935291815260808101916001600160401b038311828410176121dd5761224b9260405261224d565b94939280604093608093885260606020890152816060890152838801376000828288010152601f8019910116850101930152565b90816020910312611e1657516001600160a01b0381168103611e165790565b1561240357565b60405162461bcd60e51b815260206004820152602660248201527f5661756c744d616e616765723a20696e73756666696369656e74206d617267696044820152651b881c1bdbdb60d21b6064820152608490fd5b1561245e57565b60405162461bcd60e51b815260206004820152602660248201526000805160206125e38339815191526044820152651d081c1bdbdb60d21b6064820152608490fd5b818102929181159184041417156121a457565b156124ba57565b60405162461bcd60e51b815260206004820152602860248201527f5661756c744d616e616765723a20696e73756666696369656e7420696e7465726044820152671858dd081c1bdbdb60c21b6064820152608490fd5b1561251757565b60405162461bcd60e51b815260206004820152602860248201527f5661756c744d616e616765723a20696e73756666696369656e7420646f6e61746044820152671a5bdb881c1bdbdb60c21b6064820152608490fd5b60001981146121a45760010190565b919081101561258c5760051b0190565b634e487b7160e01b600052603260045260246000fdfe2f8788117e7eff1d82e926ec794901d17c78024a50270940304540a733656f0d1f5794a97a8fd0f5605d102f892a8a78d86771f26e26716d26e376f3f4a3d6135661756c744d616e616765723a20696e73756666696369656e742070726f666931eb66acea2a2e9363e745354476882560841a43c057f7f2e75e63470ca557af2bde942ed78f9e1081375810d2aa3bfe43ec08b083f750914542c4bf2fe936c7696e87880cf63dca8f080e7a026952044d39afbd9cb8ab3582bd4b29e6071b29a2646970667358221220771c90cdbcd93195792914b87462a3d5ba711b5c1992c6819bfe71862c2d796c64736f6c634300081400332f8788117e7eff1d82e926ec794901d17c78024a50270940304540a733656f0d",
  "linkReferences": {},
  "deployedLinkReferences": {}
}