{
  "_format": "hh-sol-artifact-1",
  "contractName": "VaultManager",
  "sourceName": "contracts/vault/VaultManager.sol",
  "abi": [
    {
      "inputs": [
        {
          "internalType": "address",
          "name": "_config",
          "type": "address"
        },
        {
          "internalType": "address",
          "name": "_admin",
          "type": "address"
        }
      ],
      "stateMutability": "nonpayable",
      "type": "constructor"
    },
    {
      "inputs": [],
      "name": "AccessControlBadConfirmation",
      "type": "error"
    },
    {
      "inputs": [
        {
          "internalType": "address",
          "name": "account",
          "type": "address"
        },
        {
          "internalType": "bytes32",
          "name": "neededRole",
          "type": "bytes32"
        }
      ],
      "name": "AccessControlUnauthorizedAccount",
      "type": "error"
    },
    {
      "inputs": [],
      "name": "EnforcedPause",
      "type": "error"
    },
    {
      "inputs": [],
      "name": "ExpectedPause",
      "type": "error"
    },
    {
      "inputs": [],
      "name": "ReentrancyGuardReentrantCall",
      "type": "error"
    },
    {
      "inputs": [
        {
          "internalType": "address",
          "name": "token",
          "type": "address"
        }
      ],
      "name": "SafeERC20FailedOperation",
      "type": "error"
    },
    {
      "anonymous": false,
      "inputs": [
        {
          "indexed": true,
          "internalType": "address",
          "name": "token",
          "type": "address"
        },
        {
          "indexed": false,
          "internalType": "uint256",
          "name": "amount",
          "type": "uint256"
        },
        {
          "indexed": false,
          "internalType": "string",
          "name": "feeType",
          "type": "string"
        },
        {
          "indexed": false,
          "internalType": "uint256",
          "name": "timestamp",
          "type": "uint256"
        }
      ],
      "name": "FeeCollected",
      "type": "event"
    },
    {
      "anonymous": false,
      "inputs": [
        {
          "indexed": true,
          "internalType": "address",
          "name": "user",
          "type": "address"
        },
        {
          "indexed": true,
          "internalType": "address",
          "name": "token",
          "type": "address"
        },
        {
          "indexed": false,
          "internalType": "uint256",
          "name": "amount",
          "type": "uint256"
        },
        {
          "indexed": false,
          "internalType": "uint256",
          "name": "timestamp",
          "type": "uint256"
        }
      ],
      "name": "MarginDeposited",
      "type": "event"
    },
    {
      "anonymous": false,
      "inputs": [
        {
          "indexed": true,
          "internalType": "address",
          "name": "from",
          "type": "address"
        },
        {
          "indexed": true,
          "internalType": "address",
          "name": "to",
          "type": "address"
        },
        {
          "indexed": true,
          "internalType": "address",
          "name": "token",
          "type": "address"
        },
        {
          "indexed": false,
          "internalType": "uint256",
          "name": "amount",
          "type": "uint256"
        },
        {
          "indexed": false,
          "internalType": "string",
          "name": "reason",
          "type": "string"
        },
        {
          "indexed": false,
          "internalType": "uint256",
          "name": "timestamp",
          "type": "uint256"
        }
      ],
      "name": "MarginTransferred",
      "type": "event"
    },
    {
      "anonymous": false,
      "inputs": [
        {
          "indexed": true,
          "internalType": "address",
          "name": "user",
          "type": "address"
        },
        {
          "indexed": true,
          "internalType": "address",
          "name": "token",
          "type": "address"
        },
        {
          "indexed": false,
          "internalType": "uint256",
          "name": "amount",
          "type": "uint256"
        },
        {
          "indexed": false,
          "internalType": "uint256",
          "name": "timestamp",
          "type": "uint256"
        }
      ],
      "name": "MarginWithdrawn",
      "type": "event"
    },
    {
      "anonymous": false,
      "inputs": [
        {
          "indexed": false,
          "internalType": "address",
          "name": "account",
          "type": "address"
        }
      ],
      "name": "Paused",
      "type": "event"
    },
    {
      "anonymous": false,
      "inputs": [
        {
          "indexed": true,
          "internalType": "address",
          "name": "token",
          "type": "address"
        },
        {
          "indexed": false,
          "internalType": "uint256",
          "name": "amount",
          "type": "uint256"
        },
        {
          "indexed": false,
          "internalType": "string",
          "name": "poolType",
          "type": "string"
        },
        {
          "indexed": false,
          "internalType": "uint256",
          "name": "timestamp",
          "type": "uint256"
        }
      ],
      "name": "ProfitDistributed",
      "type": "event"
    },
    {
      "anonymous": false,
      "inputs": [
        {
          "indexed": true,
          "internalType": "bytes32",
          "name": "role",
          "type": "bytes32"
        },
        {
          "indexed": true,
          "internalType": "bytes32",
          "name": "previousAdminRole",
          "type": "bytes32"
        },
        {
          "indexed": true,
          "internalType": "bytes32",
          "name": "newAdminRole",
          "type": "bytes32"
        }
      ],
      "name": "RoleAdminChanged",
      "type": "event"
    },
    {
      "anonymous": false,
      "inputs": [
        {
          "indexed": true,
          "internalType": "bytes32",
          "name": "role",
          "type": "bytes32"
        },
        {
          "indexed": true,
          "internalType": "address",
          "name": "account",
          "type": "address"
        },
        {
          "indexed": true,
          "internalType": "address",
          "name": "sender",
          "type": "address"
        }
      ],
      "name": "RoleGranted",
      "type": "event"
    },
    {
      "anonymous": false,
      "inputs": [
        {
          "indexed": true,
          "internalType": "bytes32",
          "name": "role",
          "type": "bytes32"
        },
        {
          "indexed": true,
          "internalType": "address",
          "name": "account",
          "type": "address"
        },
        {
          "indexed": true,
          "internalType": "address",
          "name": "sender",
          "type": "address"
        }
      ],
      "name": "RoleRevoked",
      "type": "event"
    },
    {
      "anonymous": false,
      "inputs": [
        {
          "indexed": false,
          "internalType": "address",
          "name": "account",
          "type": "address"
        }
      ],
      "name": "Unpaused",
      "type": "event"
    },
    {
      "inputs": [],
      "name": "DEFAULT_ADMIN_ROLE",
      "outputs": [
        {
          "internalType": "bytes32",
          "name": "",
          "type": "bytes32"
        }
      ],
      "stateMutability": "view",
      "type": "function"
    },
    {
      "inputs": [],
      "name": "VAULT_OPERATOR_ROLE",
      "outputs": [
        {
          "internalType": "bytes32",
          "name": "",
          "type": "bytes32"
        }
      ],
      "stateMutability": "view",
      "type": "function"
    },
    {
      "inputs": [
        {
          "internalType": "address",
          "name": "_user",
          "type": "address"
        },
        {
          "internalType": "address",
          "name": "_token",
          "type": "address"
        },
        {
          "internalType": "uint256",
          "name": "_amount",
          "type": "uint256"
        }
      ],
      "name": "adminSetMarginBalance",
      "outputs": [],
      "stateMutability": "nonpayable",
      "type": "function"
    },
    {
      "inputs": [
        {
          "internalType": "address",
          "name": "_token",
          "type": "address"
        },
        {
          "internalType": "uint256",
          "name": "_lpAmount",
          "type": "uint256"
        },
        {
          "internalType": "uint256",
          "name": "_interactAmount",
          "type": "uint256"
        },
        {
          "internalType": "uint256",
          "name": "_donationAmount",
          "type": "uint256"
        }
      ],
      "name": "allocateProfitToSubPools",
      "outputs": [],
      "stateMutability": "nonpayable",
      "type": "function"
    },
    {
      "inputs": [
        {
          "internalType": "address",
          "name": "_token",
          "type": "address"
        },
        {
          "internalType": "address[]",
          "name": "_recipients",
          "type": "address[]"
        },
        {
          "internalType": "uint256[]",
          "name": "_amounts",
          "type": "uint256[]"
        }
      ],
      "name": "batchDistributeNodeRewards",
      "outputs": [],
      "stateMutability": "nonpayable",
      "type": "function"
    },
    {
      "inputs": [
        {
          "internalType": "address",
          "name": "_user",
          "type": "address"
        },
        {
          "internalType": "address",
          "name": "_token",
          "type": "address"
        },
        {
          "internalType": "uint256",
          "name": "_amount",
          "type": "uint256"
        },
        {
          "internalType": "string",
          "name": "_feeType",
          "type": "string"
        }
      ],
      "name": "collectFee",
      "outputs": [],
      "stateMutability": "nonpayable",
      "type": "function"
    },
    {
      "inputs": [],
      "name": "config",
      "outputs": [
        {
          "internalType": "contract Config",
          "name": "",
          "type": "address"
        }
      ],
      "stateMutability": "view",
      "type": "function"
    },
    {
      "inputs": [
        {
          "internalType": "address",
          "name": "_user",
          "type": "address"
        },
        {
          "internalType": "address",
          "name": "_token",
          "type": "address"
        },
        {
          "internalType": "uint256",
          "name": "_amount",
          "type": "uint256"
        }
      ],
      "name": "depositMargin",
      "outputs": [],
      "stateMutability": "nonpayable",
      "type": "function"
    },
    {
      "inputs": [
        {
          "internalType": "address",
          "name": "_token",
          "type": "address"
        },
        {
          "internalType": "uint256",
          "name": "_amount",
          "type": "uint256"
        }
      ],
      "name": "depositToDonationPool",
      "outputs": [],
      "stateMutability": "nonpayable",
      "type": "function"
    },
    {
      "inputs": [
        {
          "internalType": "address",
          "name": "_token",
          "type": "address"
        },
        {
          "internalType": "uint256",
          "name": "_amount",
          "type": "uint256"
        }
      ],
      "name": "depositToInteractPool",
      "outputs": [],
      "stateMutability": "nonpayable",
      "type": "function"
    },
    {
      "inputs": [
        {
          "internalType": "address",
          "name": "_token",
          "type": "address"
        },
        {
          "internalType": "uint256",
          "name": "_amount",
          "type": "uint256"
        }
      ],
      "name": "depositToLPPool",
      "outputs": [],
      "stateMutability": "nonpayable",
      "type": "function"
    },
    {
      "inputs": [
        {
          "internalType": "address",
          "name": "_token",
          "type": "address"
        },
        {
          "internalType": "uint256",
          "name": "_amount",
          "type": "uint256"
        }
      ],
      "name": "distributeProfits",
      "outputs": [],
      "stateMutability": "nonpayable",
      "type": "function"
    },
    {
      "inputs": [
        {
          "internalType": "address",
          "name": "",
          "type": "address"
        }
      ],
      "name": "donationPoolBalance",
      "outputs": [
        {
          "internalType": "uint256",
          "name": "",
          "type": "uint256"
        }
      ],
      "stateMutability": "view",
      "type": "function"
    },
    {
      "inputs": [
        {
          "internalType": "address",
          "name": "_token",
          "type": "address"
        }
      ],
      "name": "getProfitPoolBalance",
      "outputs": [
        {
          "internalType": "uint256",
          "name": "",
          "type": "uint256"
        }
      ],
      "stateMutability": "view",
      "type": "function"
    },
    {
      "inputs": [
        {
          "internalType": "bytes32",
          "name": "role",
          "type": "bytes32"
        }
      ],
      "name": "getRoleAdmin",
      "outputs": [
        {
          "internalType": "bytes32",
          "name": "",
          "type": "bytes32"
        }
      ],
      "stateMutability": "view",
      "type": "function"
    },
    {
      "inputs": [
        {
          "internalType": "address",
          "name": "_token",
          "type": "address"
        }
      ],
      "name": "getTotalMarginPool",
      "outputs": [
        {
          "internalType": "uint256",
          "name": "",
          "type": "uint256"
        }
      ],
      "stateMutability": "view",
      "type": "function"
    },
    {
      "inputs": [
        {
          "internalType": "address",
          "name": "_user",
          "type": "address"
        },
        {
          "internalType": "address",
          "name": "_token",
          "type": "address"
        }
      ],
      "name": "getUserMarginBalance",
      "outputs": [
        {
          "internalType": "uint256",
          "name": "",
          "type": "uint256"
        }
      ],
      "stateMutability": "view",
      "type": "function"
    },
    {
      "inputs": [
        {
          "internalType": "address",
          "name": "_operator",
          "type": "address"
        }
      ],
      "name": "grantOperatorRole",
      "outputs": [],
      "stateMutability": "nonpayable",
      "type": "function"
    },
    {
      "inputs": [
        {
          "internalType": "bytes32",
          "name": "role",
          "type": "bytes32"
        },
        {
          "internalType": "address",
          "name": "account",
          "type": "address"
        }
      ],
      "name": "grantRole",
      "outputs": [],
      "stateMutability": "nonpayable",
      "type": "function"
    },
    {
      "inputs": [
        {
          "internalType": "bytes32",
          "name": "role",
          "type": "bytes32"
        },
        {
          "internalType": "address",
          "name": "account",
          "type": "address"
        }
      ],
      "name": "hasRole",
      "outputs": [
        {
          "internalType": "bool",
          "name": "",
          "type": "bool"
        }
      ],
      "stateMutability": "view",
      "type": "function"
    },
    {
      "inputs": [
        {
          "internalType": "address",
          "name": "",
          "type": "address"
        }
      ],
      "name": "interactPoolBalance",
      "outputs": [
        {
          "internalType": "uint256",
          "name": "",
          "type": "uint256"
        }
      ],
      "stateMutability": "view",
      "type": "function"
    },
    {
      "inputs": [
        {
          "internalType": "address",
          "name": "",
          "type": "address"
        }
      ],
      "name": "lpPoolBalance",
      "outputs": [
        {
          "internalType": "uint256",
          "name": "",
          "type": "uint256"
        }
      ],
      "stateMutability": "view",
      "type": "function"
    },
    {
      "inputs": [
        {
          "internalType": "address",
          "name": "",
          "type": "address"
        }
      ],
      "name": "marginPoolBalance",
      "outputs": [
        {
          "internalType": "uint256",
          "name": "",
          "type": "uint256"
        }
      ],
      "stateMutability": "view",
      "type": "function"
    },
    {
      "inputs": [],
      "name": "pause",
      "outputs": [],
      "stateMutability": "nonpayable",
      "type": "function"
    },
    {
      "inputs": [],
      "name": "paused",
      "outputs": [
        {
          "internalType": "bool",
          "name": "",
          "type": "bool"
        }
      ],
      "stateMutability": "view",
      "type": "function"
    },
    {
      "inputs": [
        {
          "internalType": "address",
          "name": "",
          "type": "address"
        }
      ],
      "name": "profitPoolBalance",
      "outputs": [
        {
          "internalType": "uint256",
          "name": "",
          "type": "uint256"
        }
      ],
      "stateMutability": "view",
      "type": "function"
    },
    {
      "inputs": [
        {
          "internalType": "address",
          "name": "_seller",
          "type": "address"
        },
        {
          "internalType": "uint256",
          "name": "_amount",
          "type": "uint256"
        }
      ],
      "name": "refundMargin",
      "outputs": [],
      "stateMutability": "nonpayable",
      "type": "function"
    },
    {
      "inputs": [
        {
          "internalType": "address",
          "name": "_buyer",
          "type": "address"
        },
        {
          "internalType": "uint256",
          "name": "_amount",
          "type": "uint256"
        }
      ],
      "name": "refundPremium",
      "outputs": [],
      "stateMutability": "nonpayable",
      "type": "function"
    },
    {
      "inputs": [
        {
          "internalType": "bytes32",
          "name": "role",
          "type": "bytes32"
        },
        {
          "internalType": "address",
          "name": "callerConfirmation",
          "type": "address"
        }
      ],
      "name": "renounceRole",
      "outputs": [],
      "stateMutability": "nonpayable",
      "type": "function"
    },
    {
      "inputs": [
        {
          "internalType": "bytes32",
          "name": "role",
          "type": "bytes32"
        },
        {
          "internalType": "address",
          "name": "account",
          "type": "address"
        }
      ],
      "name": "revokeRole",
      "outputs": [],
      "stateMutability": "nonpayable",
      "type": "function"
    },
    {
      "inputs": [
        {
          "internalType": "address",
          "name": "_config",
          "type": "address"
        }
      ],
      "name": "setConfig",
      "outputs": [],
      "stateMutability": "nonpayable",
      "type": "function"
    },
    {
      "inputs": [
        {
          "internalType": "bytes4",
          "name": "interfaceId",
          "type": "bytes4"
        }
      ],
      "name": "supportsInterface",
      "outputs": [
        {
          "internalType": "bool",
          "name": "",
          "type": "bool"
        }
      ],
      "stateMutability": "view",
      "type": "function"
    },
    {
      "inputs": [
        {
          "internalType": "address",
          "name": "_from",
          "type": "address"
        },
        {
          "internalType": "address",
          "name": "_to",
          "type": "address"
        },
        {
          "internalType": "address",
          "name": "_token",
          "type": "address"
        },
        {
          "internalType": "uint256",
          "name": "_amount",
          "type": "uint256"
        },
        {
          "internalType": "string",
          "name": "_reason",
          "type": "string"
        }
      ],
      "name": "transferMargin",
      "outputs": [],
      "stateMutability": "nonpayable",
      "type": "function"
    },
    {
      "inputs": [
        {
          "internalType": "address",
          "name": "_recipient",
          "type": "address"
        },
        {
          "internalType": "uint256",
          "name": "_amount",
          "type": "uint256"
        }
      ],
      "name": "transferReward",
      "outputs": [],
      "stateMutability": "nonpayable",
      "type": "function"
    },
    {
      "inputs": [
        {
          "internalType": "address",
          "name": "_token",
          "type": "address"
        },
        {
          "internalType": "uint256",
          "name": "_amount",
          "type": "uint256"
        },
        {
          "internalType": "address",
          "name": "_feedProtocol",
          "type": "address"
        }
      ],
      "name": "transferToFeedProtocol",
      "outputs": [],
      "stateMutability": "nonpayable",
      "type": "function"
    },
    {
      "inputs": [
        {
          "internalType": "uint256",
          "name": "_amount",
          "type": "uint256"
        }
      ],
      "name": "transferToTreasury",
      "outputs": [],
      "stateMutability": "nonpayable",
      "type": "function"
    },
    {
      "inputs": [],
      "name": "unpause",
      "outputs": [],
      "stateMutability": "nonpayable",
      "type": "function"
    },
    {
      "inputs": [
        {
          "internalType": "address",
          "name": "",
          "type": "address"
        },
        {
          "internalType": "address",
          "name": "",
          "type": "address"
        }
      ],
      "name": "userMarginBalance",
      "outputs": [
        {
          "internalType": "uint256",
          "name": "",
          "type": "uint256"
        }
      ],
      "stateMutability": "view",
      "type": "function"
    },
    {
      "inputs": [
        {
          "internalType": "address",
          "name": "_token",
          "type": "address"
        },
        {
          "internalType": "uint256",
          "name": "_amount",
          "type": "uint256"
        },
        {
          "internalType": "address",
          "name": "_recipient",
          "type": "address"
        }
      ],
      "name": "withdrawFromDonationPool",
      "outputs": [],
      "stateMutability": "nonpayable",
      "type": "function"
    },
    {
      "inputs": [
        {
          "internalType": "address",
          "name": "_token",
          "type": "address"
        },
        {
          "internalType": "uint256",
          "name": "_amount",
          "type": "uint256"
        },
        {
          "internalType": "address",
          "name": "_recipient",
          "type": "address"
        }
      ],
      "name": "withdrawFromInteractPool",
      "outputs": [],
      "stateMutability": "nonpayable",
      "type": "function"
    },
    {
      "inputs": [
        {
          "internalType": "address",
          "name": "_token",
          "type": "address"
        },
        {
          "internalType": "uint256",
          "name": "_amount",
          "type": "uint256"
        },
        {
          "internalType": "address",
          "name": "_recipient",
          "type": "address"
        }
      ],
      "name": "withdrawFromLPPool",
      "outputs": [],
      "stateMutability": "nonpayable",
      "type": "function"
    },
    {
      "inputs": [
        {
          "internalType": "address",
          "name": "_user",
          "type": "address"
        },
        {
          "internalType": "address",
          "name": "_token",
          "type": "address"
        },
        {
          "internalType": "uint256",
          "name": "_amount",
          "type": "uint256"
        }
      ],
      "name": "withdrawMargin",
      "outputs": [],
      "stateMutability": "nonpayable",
      "type": "function"
    }
  ],
  "bytecode": "0x608034620000ac57601f620028dd38819003918201601f19168301916001600160401b03831184841017620000b1578084926040948552833981010312620000ac57806200005f6020620000576200009b94620000c7565b9201620000c7565b6001805560028054610100600160a81b03191660089390931b610100600160a81b0316929092179091556200009481620000dc565b506200015c565b506040516126be9081620001ff8239f35b600080fd5b634e487b7160e01b600052604160045260246000fd5b51906001600160a01b0382168203620000ac57565b6001600160a01b031660008181527fad3228b676f7d3cd4284a5443f17f1962b36e491b30a40b2405849e597ba5fb5602052604081205490919060ff166200015857818052816020526040822081835260205260408220600160ff198254161790553391600080516020620028bd8339815191528180a4600190565b5090565b6001600160a01b031660008181527fad6010f11d85e6849ec87f5f41f95a2725aaf728916b399656c75ce30b0d2c5460205260408120549091907f696e87880cf63dca8f080e7a026952044d39afbd9cb8ab3582bd4b29e6071b299060ff16620001f957808352826020526040832082845260205260408320600160ff19825416179055600080516020620028bd833981519152339380a4600190565b50509056fe6080604081815260048036101561001557600080fd5b600092833560e01c90816301ffc9a714611e195750806302817a6d14611c28578063063d11de14611ad857806308b8bb4b1461188557806309143b9f146116df57806315490ebb146114b45780631de8ae531461147c57806320e3dbd41461142f578063234c30d714611246578063248a9ca31461121d57806327ac0c58146111cd5780632f2ff15d146111a45780632ff1d4581461107257806331aa128d14610f4c57806336568abe14610f055780633e0e706e14610ede5780633f4ba83a14610e755780634a650a2c14610d9f578063564a6c9814610cbc57806358dbf21c14610bd15780635c975abb14610bad5780636208edc914610ad1578063715d5896146107fa57806375818bd7146109fb57806377c5b5061461096357806379502c55146109365780637af4c51b146108fe5780638456cb59146108a357806391d148541461085e578063a217fddf14610843578063a7a62975146107fa578063ad04570d1461057b578063bdf3e7801461071c578063bed62365146106f357838163c3c8f58c146105b357508063c69c75cd1461057b578063d249f54e1461047d578063d44f97b814610445578063d547741f14610407578063e1ede08f14610327578063ec185a071461022b5763f6faa649146101f357600080fd5b346102275760203660031901126102275760209282916001600160a01b03610219611e6d565b168252845220549051908152f35b8280fd5b503461022757608036600319011261022757610245611e6d565b918361024f611e88565b60443560643567ffffffffffffffff8111610323577f66aecc579aa1ef463c0ed1547c2cb6163370e6311a60cba815252acbb398f213956102f783610319956102ca60ff6102a18b9736908801611ecf565b9b909a600080516020612669833981519152815280602052818120338252602052205416612172565b6102d2612366565b6102da612348565b6102e58215156121ca565b6001600160a01b03169930908b612285565b87895260205280882061030b83825461222a565b90555193849342928561243d565b0390a26001805580f35b8380fd5b50503461040357806003193601126104035760008051602061264983398151915260a0610352611e6d565b6024359060008051602061266983398151915286528560205284862033875260205261038360ff8688205416612172565b61038b612366565b610393612348565b61039e8215156121ca565b600180841b0316936103b282303388612285565b84865260076020528086206103c883825461222a565b9055805191825260606020830152601060608301526f191bdb985d1a5bdb97d9195c1bdcda5d60821b60808301524290820152a26001805580f35b5080fd5b509034610227578060031936011261022757610441913561043c600161042b611e88565b938387528660205286200154611fbe565b6120fd565b5080f35b5050346104035760203660031901126104035760209181906001600160a01b0361046d611e6d565b1681526007845220549051908152f35b505034610403577f63ca1bee673fe6befaa933c20ecf9ca16a04bd4273bffe1a05b0b9cc9b9be043906104af36611f31565b60008051602061266983398151915286959394929552602086815282872033885281526104e160ff8489205416612172565b6104e9612366565b6104f1612348565b6104fc8215156121ca565b6105698260018060a01b039687811697888b5260088552868b20991698898b52845261052d82878c20541015612389565b878a5260088452858a20898b528452858a2061054a8382546123e0565b9055888a5260038452858a206105618382546123e0565b9055886123ed565b82519182524290820152a36001805580f35b5050346104035760203660031901126104035760209181906001600160a01b036105a3611e6d565b1681526003845220549051908152f35b808484346106ef5760803660031901126106ef57816000805160206126498339815191529260608560a0946105e6611e6d565b906024356044359161065f60643594600080516020612669833981519152875261062260ff8a602099808b528181203382528b52205416612172565b61062a612366565b610632612348565b61064586610640878761222a565b61222a565b998a916001808e1b03169d8e8152848952205410156124eb565b8a8c528452858b206106728882546123e0565b9055898b5260058452610689868c2091825461222a565b9055888a52600683526106a0858b2091825461222a565b9055878952600782526106b7848a2091825461222a565b905582519384528301526011606083015270383937b334ba2fb0b63637b1b0ba34b7b760791b60808301524290820152a26001805580f35b5050fd5b505034610403578160031936011261040357602090516000805160206126698339815191528152f35b5050346104035760008051602061264983398151915260a06107c061074036611efd565b959190809391600080516020612669833981519152895288602052838920338a5260205261077360ff858b205416612172565b61077b612366565b610783612348565b600180871b03169687895260066020526107a282858b20541015612559565b87895260066020528389206107b88382546123e0565b9055876123ed565b8051918252606060208301526011606083015270696e7465726163745f776974686472617760781b60808301524290820152a26001805580f35b50503461040357806003193601126104035780602092610818611e6d565b610820611e88565b6001600160a01b0391821683526008865283832091168252845220549051908152f35b50503461040357816003193601126104035751908152602090f35b50346102275781600319360112610227578160209360ff9261087e611e88565b903582528186528282206001600160a01b039091168252855220549151911615158152f35b50503461040357816003193601126104035760207f62e78cea01bee320cd4e420270b5ea74000d11b0c9f74754ebdbfc544b05a258916108e1611f66565b6108e9612348565b600160ff19600254161760025551338152a180f35b5050346104035760203660031901126104035760209181906001600160a01b03610926611e6d565b1681526005845220549051908152f35b505034610403578160031936011261040357600254905160089190911c6001600160a01b03168152602090f35b505034610403576109f49061097736611efd565b916000805160206126698339815191528694929452856020528186203387526020526109a860ff8388205416612172565b6109b0612366565b6109b8612348565b60018060a01b03169081865260066020526109d884828820541015612559565b818652600660205285206109ed8482546123e0565b90556123ed565b6001805580f35b5050346104035760008051602061264983398151915260a0610a97610a1f36611efd565b959190809391600080516020612669833981519152895288602052838920338a52602052610a5260ff858b205416612172565b610a5a612366565b610a62612348565b600180871b0316968789526007602052610a8182858b205410156125b6565b87895260076020528389206107b88382546123e0565b8051918252606060208301526011606083015270646f6e6174696f6e5f776974686472617760781b60808301524290820152a26001805580f35b50503461040357806003193601126104035760008051602061264983398151915260a0610afc611e6d565b60243590600080516020612669833981519152865285602052848620338752602052610b2d60ff8688205416612172565b610b35612366565b610b3d612348565b610b488215156121ca565b600180841b031693610b5c82303388612285565b8486526006602052808620610b7283825461222a565b9055805191825260606020830152601060608301526f1a5b9d195c9858dd17d9195c1bdcda5d60821b60808301524290820152a26001805580f35b50503461040357816003193601126104035760209060ff6002541690519015158152f35b505034610403577f2bde942ed78f9e1081375810d2aa3bfe43ec08b083f750914542c4bf2fe936c790610c0336611f31565b610c109492939194611f66565b6001600160a01b0393841680875260086020908152838820969095168088529585528287205490949080831115610c8557610c4b90836123e0565b86885260038252610c6084892091825461222a565b90555b848752600881528287208688528152818388205582519182524290820152a380f35b82818110610c95575b5050610c63565b610c9e916123e0565b86885260038252610cb38489209182546123e0565b90553882610c8e565b505034610403577f2bde942ed78f9e1081375810d2aa3bfe43ec08b083f750914542c4bf2fe936c790610cee36611f31565b60008051602061266983398151915286959395949294526020938685528287203388528552610d2260ff8489205416612172565b610d2a612366565b610d32612348565b610d3d8215156121ca565b6001600160a01b0390811695610d558330838a612285565b1693848752600881528287208688528152828720610d7483825461222a565b905585875260038152828720610d8b83825461222a565b905582519182524290820152a36001805580f35b50503461040357806003193601126104035760008051602061264983398151915260a0610dca611e6d565b60243590600080516020612669833981519152865285602052848620338752602052610dfb60ff8688205416612172565b610e03612366565b610e0b612348565b610e168215156121ca565b600180841b031693610e2a82303388612285565b8486526005602052808620610e4083825461222a565b9055805191825260606020830152600a6060830152691b1c17d9195c1bdcda5d60b21b60808301524290820152a26001805580f35b5034610227578260031936011261022757610e8e611f66565b6002549060ff821615610ed0575060ff1916600255513381527f5db9ee0a495bf2e6ff9c91a7834c1ba4fdd244a5e8aa4e537bd38aeae4b073aa90602090a180f35b8251638dfc202b60e01b8152fd5b50346102275760203660031901126102275760209282916001600160a01b03610219611e6d565b50919034610403578060031936011261040357610f20611e88565b90336001600160a01b03831603610f3d57506104419192356120fd565b5163334bd91960e11b81528390fd5b50903461022757610f5c36611efd565b6000805160206126698339815191528694939294526020918683528387203388528352610f8e60ff8589205416612172565b610f96612366565b610f9e612348565b6001600160a01b03168087526005835283872054909590851161102457509160608492610ff46000805160206126498339815191529660a096898b5260058452858b20610fec8382546123e0565b9055896123ed565b8251938452830152600b60608301526a6c705f776974686472617760a81b60808301524290820152a26001805580f35b835162461bcd60e51b8152908101839052602260248201527f5661756c744d616e616765723a20696e73756666696369656e74204c5020706f6044820152611bdb60f21b6064820152608490fd5b50346102275760a03660031901126102275761108c611e6d565b611094611e88565b92846044359460018060a01b0394858716809703610227576064356084359467ffffffffffffffff86116111a05787899461115884846110fb611196987f31eb66acea2a2e9363e745354476882560841a43c057f7f2e75e63470ca557af9c369101611ecf565b9a9099600080516020612669833981519152825260209e8f9e8f848152858520903386525261112f60ff8686205416612172565b611137612366565b61113f612348565b169d8e8352600881528383209183525220541015612389565b888c5260088a52828c208b8d528a52828c206111758582546123e0565b90551697888b5260088152818b20908a8c5252808a2061030b83825461222a565b0390a46001805580f35b8480fd5b50903461022757806003193601126102275761044191356111c8600161042b611e88565b612084565b505034610403576020366003190112610403576104419061121860016111f1611e6d565b926111fa611f66565b60008051602061266983398151915286528560205285200154611fbe565b611fe4565b503461022757602036600319011261022757816020936001923581528085522001549051908152f35b50903461022757606036600319011261022757611261611e6d565b906024359267ffffffffffffffff9384811161142b576112849036908301611e9e565b946044359081116114275761129c9036908401611e9e565b6000805160206126698339815191528896929652602093888552858920338a5285526112cd60ff878b205416612172565b6112d5612366565b6112dd612348565b8188036113e457508795885b8281106113bf575060018060a01b0380931697888a526007865261131288888c205410156125b6565b888a5260078652868a206113278982546123e0565b9055895b818110611381578a8a60008051602061264983398151915260a08c8c60608d825193845283015260126060830152710dcdec8cabee4caeec2e4c8e6bec4c2e8c6d60731b60808301524290820152a26001805580f35b61138c818388612622565b359085821682036113bb576113b16113b6926113a9838888612622565b35908d6123ed565b612613565b61132b565b8b80fd5b966113d96113df916113d28a8686612622565b359061222a565b97612613565b6112e9565b855162461bcd60e51b8152908101859052601d60248201527f5661756c744d616e616765723a206c656e677468206d69736d617463680000006044820152606490fd5b8680fd5b8580fd5b833461147957602036600319011261147957611449611e6d565b611451611f66565b60028054610100600160a81b03191660089290921b610100600160a81b031691909117905580f35b80fd5b5050346104035760203660031901126104035760209181906001600160a01b036114a4611e6d565b1681526006845220549051908152f35b5090346102275780600319360112610227576114ce611e6d565b90602435916000805160206126698339815191528552602090858252828620338752825261150160ff8488205416612172565b611509612366565b611511612348565b6001600160a01b038181161561169c5761152c8515156121ca565b85838260025460081c168651928380926320f2e74760e11b82525afa908115611692579082918991611665575b50161561164b57739f2140319726f9b851073a303415f13ec0cda2695b16948587528083528484882054106115ee5784926115b76000805160206126498339815191529660a096946060948a8c528452858b20610fec8382546123e0565b82519384528301526012606083015271185c989a5d1c985d1a5bdb97dc995dd85c9960721b60808301524290820152a26001805580f35b835162461bcd60e51b8152908101839052603160248201527f5661756c744d616e616765723a20696e73756666696369656e742070726f66696044820152701d081c1bdbdb08199bdc881c995dd85c99607a1b6064820152608490fd5b7355d398326f99059ff775485246999027b3197955611576565b6116859150853d871161168b575b61167d818361224d565b810190612471565b38611559565b503d611673565b85513d8a823e3d90fd5b835162461bcd60e51b8152808701849052601f60248201527f5661756c744d616e616765723a20696e76616c696420726563697069656e74006044820152606490fd5b50346102275781600319360112610227576116f8611e6d565b916024359060008051602061266983398151915285526020858152818620338752815261172a60ff8388205416612172565b611732612366565b61173a612348565b6001600160a01b03858116948515611836576117578515156121ca565b828260025460081c16855192838092639ab4a44560e01b82525afa90811561182c57606093926117b89287928b9161180f575b501697888a52600384526117a382878c20541015612490565b888a5260038452858a206105618382546123e0565b8251938452830152600d60608301526c1b585c99da5b97dc99599d5b99609a1b608083015242908201527f31eb66acea2a2e9363e745354476882560841a43c057f7f2e75e63470ca557af60a03092a46001805580f35b6118269150853d871161168b5761167d818361224d565b3861178a565b84513d8a823e3d90fd5b835162461bcd60e51b81529081018390526024808201527f5661756c744d616e616765723a20696e76616c69642073656c6c6572206164646044820152637265737360e01b6064820152608490fd5b503461022757816003193601126102275761189e611e6d565b91602435906000805160206126698339815191528552602085815281862033875281526118d060ff8388205416612172565b6118d8612366565b6118e0612348565b60018060a01b0380951694858752848252611900848489205410156124eb565b8587528482528287206119148582546123e0565b905560025460081c16938251906362f5ad6360e01b825282828281895afa801561182c578890611aa9575b611950925061271092839187612546565b04958451633c6ec58560e11b815284818481855afa908115611a9f57908592918b91611a69575b506119829088612546565b5085516301eb418960e71b815292839182905afa90811561182c578891611a1e575b5091600080516020612649833981519152956060926119c787969560a098612546565b04888a52600583526119dd858b2091825461222a565b9055878952600782526119f4848a2091825461222a565b905582519384528301526003606083015262185b1b60ea1b60808301524290820152a26001805580f35b9194939280915082813d8311611a62575b611a39818361224d565b81010312611a5e579051929391929091906000805160206126498339815191526119a4565b8780fd5b503d611a2f565b83819492503d8311611a98575b611a80818361224d565b81010312611a945761198285925190611977565b8980fd5b503d611a76565b86513d8c823e3d90fd5b508282813d8311611ad1575b611abf818361224d565b81010312611a5e57611950915161193f565b503d611ab5565b50903461022757602090816003193601126103235782359160008051602061266983398151915285528481528185203386528152611b1b60ff8387205416612172565b611b23612366565b611b2b612348565b611b368315156121ca565b6002548251639ab4a44560e01b81526001600160a01b0391839082908890829060081c86165afa908115611c1e579260a0949260609260008051602061264983398151915297958a91611c01575b50169687895260038252611b9d85858b20541015612490565b87895260038252838920611bb28682546123e0565b90558789528152828820611bc785825461222a565b90558251938452830152601360608301527270656e616c74795f746f5f747265617375727960681b60808301524290820152a26001805580f35b611c189150833d851161168b5761167d818361224d565b38611b84565b84513d89823e3d90fd5b509034610227578060031936011261022757611c42611e6d565b9060243590600080516020612669833981519152855260208581528186203387528152611c7460ff8388205416612172565b611c7c612366565b611c84612348565b6001600160a01b0384811694908515611dca57611ca28515156121ca565b86838260025460081c16865192838092639ab4a44560e01b82525afa908115611dc0578991611da3575b5016958351906370a0823160e01b8252309082015282816024818a5afa90811561182c5790859392918991611d6e575b5092611d1691611d10826060961015612389565b886123ed565b8251938452830152600e60608301526d1c1c995b5a5d5b57dc99599d5b9960921b608083015242908201527f31eb66acea2a2e9363e745354476882560841a43c057f7f2e75e63470ca557af60a03092a46001805580f35b809450838092503d8311611d9c575b611d87818361224d565b81010312611a5e579151849290611d16611cfc565b503d611d7d565b611dba9150843d861161168b5761167d818361224d565b38611ccc565b85513d8b823e3d90fd5b835162461bcd60e51b8152808801849052602360248201527f5661756c744d616e616765723a20696e76616c6964206275796572206164647260448201526265737360e81b6064820152608490fd5b92505034610227576020366003190112610227573563ffffffff60e01b81168091036102275760209250637965db0b60e01b8114908115611e5c575b5015158152f35b6301ffc9a760e01b14905038611e55565b600435906001600160a01b0382168203611e8357565b600080fd5b602435906001600160a01b0382168203611e8357565b9181601f84011215611e835782359167ffffffffffffffff8311611e83576020808501948460051b010111611e8357565b9181601f84011215611e835782359167ffffffffffffffff8311611e835760208381860195010111611e8357565b6060906003190112611e83576001600160a01b036004358181168103611e835791602435916044359081168103611e835790565b6060906003190112611e83576001600160a01b03906004358281168103611e8357916024359081168103611e83579060443590565b3360009081527fad3228b676f7d3cd4284a5443f17f1962b36e491b30a40b2405849e597ba5fb5602052604081205460ff1615611fa05750565b6044906040519063e2517d3f60e01b82523360048301526024820152fd5b80600052600060205260406000203360005260205260ff6040600020541615611fa05750565b6001600160a01b031660008181527fad6010f11d85e6849ec87f5f41f95a2725aaf728916b399656c75ce30b0d2c5460205260408120549091906000805160206126698339815191529060ff1661207f57808352826020526040832082845260205260408320600160ff198254161790557f2f8788117e7eff1d82e926ec794901d17c78024a50270940304540a733656f0d339380a4600190565b505090565b9060009180835282602052604083209160018060a01b03169182845260205260ff6040842054161560001461207f57808352826020526040832082845260205260408320600160ff198254161790557f2f8788117e7eff1d82e926ec794901d17c78024a50270940304540a733656f0d339380a4600190565b9060009180835282602052604083209160018060a01b03169182845260205260ff60408420541660001461207f5780835282602052604083208284526020526040832060ff1981541690557ff6391f5c32d9c69d2a47ea670b442974b53935d1edc7fd64eb21e047a839171b339380a4600190565b1561217957565b60405162461bcd60e51b8152602060048201526024808201527f5661756c744d616e616765723a2063616c6c6572206973206e6f74206f70657260448201526330ba37b960e11b6064820152608490fd5b156121d157565b60405162461bcd60e51b815260206004820152602b60248201527f5661756c744d616e616765723a20616d6f756e74206d7573742062652067726560448201526a061746572207468616e20360ac1b6064820152608490fd5b9190820180921161223757565b634e487b7160e01b600052601160045260246000fd5b90601f8019910116810190811067ffffffffffffffff82111761226f57604052565b634e487b7160e01b600052604160045260246000fd5b6040516323b872dd60e01b60208201526001600160a01b03928316602482015292909116604483015260648083019390935291815260a081019181831067ffffffffffffffff84111761226f576122de926040526122e0565b565b906000602091828151910182855af11561233c576000513d61233357506001600160a01b0381163b155b6123115750565b604051635274afe760e01b81526001600160a01b039091166004820152602490fd5b6001141561230a565b6040513d6000823e3d90fd5b60ff6002541661235457565b60405163d93c066560e01b8152600490fd5b600260015414612377576002600155565b604051633ee5aeb560e01b8152600490fd5b1561239057565b60405162461bcd60e51b815260206004820152602260248201527f5661756c744d616e616765723a20696e73756666696369656e742062616c616e604482015261636560f01b6064820152608490fd5b9190820391821161223757565b60405163a9059cbb60e01b60208201526001600160a01b039092166024830152604480830193909352918152608081019167ffffffffffffffff83118284101761226f576122de926040526122e0565b94939280604093608093885260606020890152816060890152838801376000828288010152601f8019910116850101930152565b90816020910312611e8357516001600160a01b0381168103611e835790565b1561249757565b60405162461bcd60e51b815260206004820152602660248201527f5661756c744d616e616765723a20696e73756666696369656e74206d617267696044820152651b881c1bdbdb60d21b6064820152608490fd5b156124f257565b60405162461bcd60e51b815260206004820152602660248201527f5661756c744d616e616765723a20696e73756666696369656e742070726f66696044820152651d081c1bdbdb60d21b6064820152608490fd5b8181029291811591840414171561223757565b1561256057565b60405162461bcd60e51b815260206004820152602860248201527f5661756c744d616e616765723a20696e73756666696369656e7420696e7465726044820152671858dd081c1bdbdb60c21b6064820152608490fd5b156125bd57565b60405162461bcd60e51b815260206004820152602860248201527f5661756c744d616e616765723a20696e73756666696369656e7420646f6e61746044820152671a5bdb881c1bdbdb60c21b6064820152608490fd5b60001981146122375760010190565b91908110156126325760051b0190565b634e487b7160e01b600052603260045260246000fdfe1f5794a97a8fd0f5605d102f892a8a78d86771f26e26716d26e376f3f4a3d613696e87880cf63dca8f080e7a026952044d39afbd9cb8ab3582bd4b29e6071b29a26469706673582212203725160a898b33e57a9cf02296b4a8d52585e3a621d2106cee265d72a74310d164736f6c634300081400332f8788117e7eff1d82e926ec794901d17c78024a50270940304540a733656f0d",
  "linkReferences": {},
  "deployedLinkReferences": {}
}