{
  "_format": "hh-sol-artifact-1",
  "contractName": "VolumeBasedFeed",
  "sourceName": "contracts/feed/VolumeBasedFeed.sol",
  "abi": [
    {
      "inputs": [
        {
          "internalType": "address",
          "name": "_config",
          "type": "address"
        },
        {
          "internalType": "address",
          "name": "_usdt",
          "type": "address"
        },
        {
          "internalType": "address",
          "name": "_admin",
          "type": "address"
        }
      ],
      "stateMutability": "nonpayable",
      "type": "constructor"
    },
    {
      "inputs": [],
      "name": "AccessControlBadConfirmation",
      "type": "error"
    },
    {
      "inputs": [
        {
          "internalType": "address",
          "name": "account",
          "type": "address"
        },
        {
          "internalType": "bytes32",
          "name": "neededRole",
          "type": "bytes32"
        }
      ],
      "name": "AccessControlUnauthorizedAccount",
      "type": "error"
    },
    {
      "inputs": [],
      "name": "EnforcedPause",
      "type": "error"
    },
    {
      "inputs": [],
      "name": "ExpectedPause",
      "type": "error"
    },
    {
      "inputs": [],
      "name": "ReentrancyGuardReentrantCall",
      "type": "error"
    },
    {
      "anonymous": false,
      "inputs": [
        {
          "indexed": true,
          "internalType": "uint256",
          "name": "requestId",
          "type": "uint256"
        },
        {
          "indexed": true,
          "internalType": "uint256",
          "name": "orderId",
          "type": "uint256"
        },
        {
          "indexed": false,
          "internalType": "string",
          "name": "reason",
          "type": "string"
        }
      ],
      "name": "CallbackFailed",
      "type": "event"
    },
    {
      "anonymous": false,
      "inputs": [
        {
          "indexed": true,
          "internalType": "address",
          "name": "oldAddress",
          "type": "address"
        },
        {
          "indexed": true,
          "internalType": "address",
          "name": "newAddress",
          "type": "address"
        }
      ],
      "name": "OptionsCoreUpdated",
      "type": "event"
    },
    {
      "anonymous": false,
      "inputs": [
        {
          "indexed": false,
          "internalType": "address",
          "name": "account",
          "type": "address"
        }
      ],
      "name": "Paused",
      "type": "event"
    },
    {
      "anonymous": false,
      "inputs": [
        {
          "indexed": true,
          "internalType": "uint256",
          "name": "requestId",
          "type": "uint256"
        },
        {
          "indexed": true,
          "internalType": "address",
          "name": "feeder",
          "type": "address"
        },
        {
          "indexed": false,
          "internalType": "uint256",
          "name": "finalPrice",
          "type": "uint256"
        },
        {
          "indexed": false,
          "internalType": "uint256",
          "name": "timestamp",
          "type": "uint256"
        }
      ],
      "name": "PriceApproved",
      "type": "event"
    },
    {
      "anonymous": false,
      "inputs": [
        {
          "indexed": true,
          "internalType": "uint256",
          "name": "requestId",
          "type": "uint256"
        },
        {
          "indexed": true,
          "internalType": "address",
          "name": "feeder",
          "type": "address"
        },
        {
          "indexed": false,
          "internalType": "uint256",
          "name": "originalPrice",
          "type": "uint256"
        },
        {
          "indexed": false,
          "internalType": "uint256",
          "name": "modifiedPrice",
          "type": "uint256"
        },
        {
          "indexed": false,
          "internalType": "string",
          "name": "reason",
          "type": "string"
        },
        {
          "indexed": false,
          "internalType": "uint256",
          "name": "timestamp",
          "type": "uint256"
        }
      ],
      "name": "PriceModified",
      "type": "event"
    },
    {
      "anonymous": false,
      "inputs": [
        {
          "indexed": true,
          "internalType": "uint256",
          "name": "requestId",
          "type": "uint256"
        },
        {
          "indexed": true,
          "internalType": "address",
          "name": "feeder",
          "type": "address"
        },
        {
          "indexed": false,
          "internalType": "enum VolumeBasedFeed.RejectReason",
          "name": "reason",
          "type": "uint8"
        },
        {
          "indexed": false,
          "internalType": "string",
          "name": "description",
          "type": "string"
        },
        {
          "indexed": false,
          "internalType": "uint256",
          "name": "timestamp",
          "type": "uint256"
        }
      ],
      "name": "PriceRejected",
      "type": "event"
    },
    {
      "anonymous": false,
      "inputs": [
        {
          "indexed": true,
          "internalType": "uint256",
          "name": "requestId",
          "type": "uint256"
        },
        {
          "indexed": true,
          "internalType": "uint256",
          "name": "orderId",
          "type": "uint256"
        },
        {
          "indexed": false,
          "internalType": "string",
          "name": "reason",
          "type": "string"
        },
        {
          "indexed": false,
          "internalType": "uint256",
          "name": "timestamp",
          "type": "uint256"
        }
      ],
      "name": "RefeedRequired",
      "type": "event"
    },
    {
      "anonymous": false,
      "inputs": [
        {
          "indexed": true,
          "internalType": "uint256",
          "name": "requestId",
          "type": "uint256"
        },
        {
          "indexed": false,
          "internalType": "uint256",
          "name": "timestamp",
          "type": "uint256"
        }
      ],
      "name": "RequestExpired",
      "type": "event"
    },
    {
      "anonymous": false,
      "inputs": [
        {
          "indexed": true,
          "internalType": "bytes32",
          "name": "role",
          "type": "bytes32"
        },
        {
          "indexed": true,
          "internalType": "bytes32",
          "name": "previousAdminRole",
          "type": "bytes32"
        },
        {
          "indexed": true,
          "internalType": "bytes32",
          "name": "newAdminRole",
          "type": "bytes32"
        }
      ],
      "name": "RoleAdminChanged",
      "type": "event"
    },
    {
      "anonymous": false,
      "inputs": [
        {
          "indexed": true,
          "internalType": "bytes32",
          "name": "role",
          "type": "bytes32"
        },
        {
          "indexed": true,
          "internalType": "address",
          "name": "account",
          "type": "address"
        },
        {
          "indexed": true,
          "internalType": "address",
          "name": "sender",
          "type": "address"
        }
      ],
      "name": "RoleGranted",
      "type": "event"
    },
    {
      "anonymous": false,
      "inputs": [
        {
          "indexed": true,
          "internalType": "bytes32",
          "name": "role",
          "type": "bytes32"
        },
        {
          "indexed": true,
          "internalType": "address",
          "name": "account",
          "type": "address"
        },
        {
          "indexed": true,
          "internalType": "address",
          "name": "sender",
          "type": "address"
        }
      ],
      "name": "RoleRevoked",
      "type": "event"
    },
    {
      "anonymous": false,
      "inputs": [
        {
          "indexed": true,
          "internalType": "uint256",
          "name": "requestId",
          "type": "uint256"
        },
        {
          "indexed": true,
          "internalType": "uint256",
          "name": "orderId",
          "type": "uint256"
        },
        {
          "indexed": true,
          "internalType": "address",
          "name": "seller",
          "type": "address"
        },
        {
          "indexed": false,
          "internalType": "uint256",
          "name": "suggestedPrice",
          "type": "uint256"
        },
        {
          "indexed": false,
          "internalType": "string",
          "name": "priceEvidence",
          "type": "string"
        },
        {
          "indexed": false,
          "internalType": "enum FeedType",
          "name": "feedType",
          "type": "uint8"
        },
        {
          "indexed": false,
          "internalType": "uint256",
          "name": "timestamp",
          "type": "uint256"
        }
      ],
      "name": "SuggestedPriceSubmitted",
      "type": "event"
    },
    {
      "anonymous": false,
      "inputs": [
        {
          "indexed": false,
          "internalType": "address",
          "name": "account",
          "type": "address"
        }
      ],
      "name": "Unpaused",
      "type": "event"
    },
    {
      "inputs": [],
      "name": "DEFAULT_ADMIN_ROLE",
      "outputs": [
        {
          "internalType": "bytes32",
          "name": "",
          "type": "bytes32"
        }
      ],
      "stateMutability": "view",
      "type": "function"
    },
    {
      "inputs": [],
      "name": "FEEDER_ROLE",
      "outputs": [
        {
          "internalType": "bytes32",
          "name": "",
          "type": "bytes32"
        }
      ],
      "stateMutability": "view",
      "type": "function"
    },
    {
      "inputs": [],
      "name": "FEED_OPERATOR_ROLE",
      "outputs": [
        {
          "internalType": "bytes32",
          "name": "",
          "type": "bytes32"
        }
      ],
      "stateMutability": "view",
      "type": "function"
    },
    {
      "inputs": [],
      "name": "PROTOCOL_ROLE",
      "outputs": [
        {
          "internalType": "bytes32",
          "name": "",
          "type": "bytes32"
        }
      ],
      "stateMutability": "view",
      "type": "function"
    },
    {
      "inputs": [
        {
          "internalType": "uint256",
          "name": "requestId",
          "type": "uint256"
        }
      ],
      "name": "approvePrice",
      "outputs": [],
      "stateMutability": "nonpayable",
      "type": "function"
    },
    {
      "inputs": [],
      "name": "config",
      "outputs": [
        {
          "internalType": "contract Config",
          "name": "",
          "type": "address"
        }
      ],
      "stateMutability": "view",
      "type": "function"
    },
    {
      "inputs": [
        {
          "internalType": "uint256",
          "name": "requestId",
          "type": "uint256"
        }
      ],
      "name": "getFinalPrice",
      "outputs": [
        {
          "internalType": "uint256",
          "name": "",
          "type": "uint256"
        },
        {
          "internalType": "bool",
          "name": "",
          "type": "bool"
        }
      ],
      "stateMutability": "view",
      "type": "function"
    },
    {
      "inputs": [
        {
          "internalType": "uint256",
          "name": "orderId",
          "type": "uint256"
        }
      ],
      "name": "getOrderVolumeRequests",
      "outputs": [
        {
          "internalType": "uint256[]",
          "name": "",
          "type": "uint256[]"
        }
      ],
      "stateMutability": "view",
      "type": "function"
    },
    {
      "inputs": [
        {
          "internalType": "enum VolumeBasedFeed.RejectReason",
          "name": "reason",
          "type": "uint8"
        }
      ],
      "name": "getRejectReasonString",
      "outputs": [
        {
          "internalType": "string",
          "name": "",
          "type": "string"
        }
      ],
      "stateMutability": "pure",
      "type": "function"
    },
    {
      "inputs": [
        {
          "internalType": "uint256",
          "name": "requestId",
          "type": "uint256"
        }
      ],
      "name": "getRequest",
      "outputs": [
        {
          "components": [
            {
              "internalType": "uint256",
              "name": "requestId",
              "type": "uint256"
            },
            {
              "internalType": "uint256",
              "name": "orderId",
              "type": "uint256"
            },
            {
              "internalType": "address",
              "name": "seller",
              "type": "address"
            },
            {
              "internalType": "uint256",
              "name": "suggestedPrice",
              "type": "uint256"
            },
            {
              "internalType": "string",
              "name": "priceEvidence",
              "type": "string"
            },
            {
              "internalType": "uint256",
              "name": "submittedAt",
              "type": "uint256"
            },
            {
              "internalType": "uint256",
              "name": "deadline",
              "type": "uint256"
            },
            {
              "internalType": "bool",
              "name": "isVerified",
              "type": "bool"
            },
            {
              "internalType": "address",
              "name": "verifiedBy",
              "type": "address"
            },
            {
              "internalType": "uint256",
              "name": "finalPrice",
              "type": "uint256"
            },
            {
              "internalType": "enum VolumeBasedFeed.VolumeBasedFeedStatus",
              "name": "status",
              "type": "uint8"
            },
            {
              "internalType": "enum VolumeBasedFeed.RejectReason",
              "name": "rejectReason",
              "type": "uint8"
            },
            {
              "internalType": "string",
              "name": "rejectDescription",
              "type": "string"
            },
            {
              "internalType": "enum FeedType",
              "name": "feedType",
              "type": "uint8"
            },
            {
              "internalType": "bool",
              "name": "isInitialFeed",
              "type": "bool"
            }
          ],
          "internalType": "struct VolumeBasedFeed.VolumeBasedFeedRequest",
          "name": "",
          "type": "tuple"
        }
      ],
      "stateMutability": "view",
      "type": "function"
    },
    {
      "inputs": [
        {
          "internalType": "uint256",
          "name": "requestId",
          "type": "uint256"
        }
      ],
      "name": "getRequestStatus",
      "outputs": [
        {
          "internalType": "enum VolumeBasedFeed.VolumeBasedFeedStatus",
          "name": "",
          "type": "uint8"
        }
      ],
      "stateMutability": "view",
      "type": "function"
    },
    {
      "inputs": [
        {
          "internalType": "bytes32",
          "name": "role",
          "type": "bytes32"
        }
      ],
      "name": "getRoleAdmin",
      "outputs": [
        {
          "internalType": "bytes32",
          "name": "",
          "type": "bytes32"
        }
      ],
      "stateMutability": "view",
      "type": "function"
    },
    {
      "inputs": [
        {
          "internalType": "address",
          "name": "feeder",
          "type": "address"
        }
      ],
      "name": "grantFeederRole",
      "outputs": [],
      "stateMutability": "nonpayable",
      "type": "function"
    },
    {
      "inputs": [
        {
          "internalType": "address[]",
          "name": "feeders",
          "type": "address[]"
        }
      ],
      "name": "grantFeederRoleBatch",
      "outputs": [],
      "stateMutability": "nonpayable",
      "type": "function"
    },
    {
      "inputs": [
        {
          "internalType": "address",
          "name": "protocol",
          "type": "address"
        }
      ],
      "name": "grantProtocolRole",
      "outputs": [],
      "stateMutability": "nonpayable",
      "type": "function"
    },
    {
      "inputs": [
        {
          "internalType": "bytes32",
          "name": "role",
          "type": "bytes32"
        },
        {
          "internalType": "address",
          "name": "account",
          "type": "address"
        }
      ],
      "name": "grantRole",
      "outputs": [],
      "stateMutability": "nonpayable",
      "type": "function"
    },
    {
      "inputs": [
        {
          "internalType": "bytes32",
          "name": "role",
          "type": "bytes32"
        },
        {
          "internalType": "address",
          "name": "account",
          "type": "address"
        }
      ],
      "name": "hasRole",
      "outputs": [
        {
          "internalType": "bool",
          "name": "",
          "type": "bool"
        }
      ],
      "stateMutability": "view",
      "type": "function"
    },
    {
      "inputs": [
        {
          "internalType": "uint256",
          "name": "requestId",
          "type": "uint256"
        }
      ],
      "name": "isExpired",
      "outputs": [
        {
          "internalType": "bool",
          "name": "",
          "type": "bool"
        }
      ],
      "stateMutability": "view",
      "type": "function"
    },
    {
      "inputs": [
        {
          "internalType": "uint256",
          "name": "requestId",
          "type": "uint256"
        }
      ],
      "name": "markExpired",
      "outputs": [],
      "stateMutability": "nonpayable",
      "type": "function"
    },
    {
      "inputs": [
        {
          "internalType": "uint256",
          "name": "requestId",
          "type": "uint256"
        },
        {
          "internalType": "uint256",
          "name": "modifiedPrice",
          "type": "uint256"
        },
        {
          "internalType": "string",
          "name": "reason",
          "type": "string"
        }
      ],
      "name": "modifyPrice",
      "outputs": [],
      "stateMutability": "nonpayable",
      "type": "function"
    },
    {
      "inputs": [],
      "name": "nextRequestId",
      "outputs": [
        {
          "internalType": "uint256",
          "name": "",
          "type": "uint256"
        }
      ],
      "stateMutability": "view",
      "type": "function"
    },
    {
      "inputs": [],
      "name": "optionsCore",
      "outputs": [
        {
          "internalType": "contract IOptionsCore",
          "name": "",
          "type": "address"
        }
      ],
      "stateMutability": "view",
      "type": "function"
    },
    {
      "inputs": [
        {
          "internalType": "uint256",
          "name": "",
          "type": "uint256"
        },
        {
          "internalType": "uint256",
          "name": "",
          "type": "uint256"
        }
      ],
      "name": "orderVolumeRequests",
      "outputs": [
        {
          "internalType": "uint256",
          "name": "",
          "type": "uint256"
        }
      ],
      "stateMutability": "view",
      "type": "function"
    },
    {
      "inputs": [],
      "name": "pause",
      "outputs": [],
      "stateMutability": "nonpayable",
      "type": "function"
    },
    {
      "inputs": [],
      "name": "paused",
      "outputs": [
        {
          "internalType": "bool",
          "name": "",
          "type": "bool"
        }
      ],
      "stateMutability": "view",
      "type": "function"
    },
    {
      "inputs": [
        {
          "internalType": "uint256",
          "name": "requestId",
          "type": "uint256"
        },
        {
          "internalType": "enum VolumeBasedFeed.RejectReason",
          "name": "reason",
          "type": "uint8"
        },
        {
          "internalType": "string",
          "name": "description",
          "type": "string"
        }
      ],
      "name": "rejectPrice",
      "outputs": [],
      "stateMutability": "nonpayable",
      "type": "function"
    },
    {
      "inputs": [
        {
          "internalType": "bytes32",
          "name": "role",
          "type": "bytes32"
        },
        {
          "internalType": "address",
          "name": "callerConfirmation",
          "type": "address"
        }
      ],
      "name": "renounceRole",
      "outputs": [],
      "stateMutability": "nonpayable",
      "type": "function"
    },
    {
      "inputs": [
        {
          "internalType": "uint256",
          "name": "",
          "type": "uint256"
        }
      ],
      "name": "requests",
      "outputs": [
        {
          "internalType": "uint256",
          "name": "requestId",
          "type": "uint256"
        },
        {
          "internalType": "uint256",
          "name": "orderId",
          "type": "uint256"
        },
        {
          "internalType": "address",
          "name": "seller",
          "type": "address"
        },
        {
          "internalType": "uint256",
          "name": "suggestedPrice",
          "type": "uint256"
        },
        {
          "internalType": "string",
          "name": "priceEvidence",
          "type": "string"
        },
        {
          "internalType": "uint256",
          "name": "submittedAt",
          "type": "uint256"
        },
        {
          "internalType": "uint256",
          "name": "deadline",
          "type": "uint256"
        },
        {
          "internalType": "bool",
          "name": "isVerified",
          "type": "bool"
        },
        {
          "internalType": "address",
          "name": "verifiedBy",
          "type": "address"
        },
        {
          "internalType": "uint256",
          "name": "finalPrice",
          "type": "uint256"
        },
        {
          "internalType": "enum VolumeBasedFeed.VolumeBasedFeedStatus",
          "name": "status",
          "type": "uint8"
        },
        {
          "internalType": "enum VolumeBasedFeed.RejectReason",
          "name": "rejectReason",
          "type": "uint8"
        },
        {
          "internalType": "string",
          "name": "rejectDescription",
          "type": "string"
        },
        {
          "internalType": "enum FeedType",
          "name": "feedType",
          "type": "uint8"
        },
        {
          "internalType": "bool",
          "name": "isInitialFeed",
          "type": "bool"
        }
      ],
      "stateMutability": "view",
      "type": "function"
    },
    {
      "inputs": [
        {
          "internalType": "address",
          "name": "feeder",
          "type": "address"
        }
      ],
      "name": "revokeFeederRole",
      "outputs": [],
      "stateMutability": "nonpayable",
      "type": "function"
    },
    {
      "inputs": [
        {
          "internalType": "bytes32",
          "name": "role",
          "type": "bytes32"
        },
        {
          "internalType": "address",
          "name": "account",
          "type": "address"
        }
      ],
      "name": "revokeRole",
      "outputs": [],
      "stateMutability": "nonpayable",
      "type": "function"
    },
    {
      "inputs": [
        {
          "internalType": "address",
          "name": "_config",
          "type": "address"
        }
      ],
      "name": "setConfig",
      "outputs": [],
      "stateMutability": "nonpayable",
      "type": "function"
    },
    {
      "inputs": [
        {
          "internalType": "address",
          "name": "_optionsCore",
          "type": "address"
        }
      ],
      "name": "setOptionsCore",
      "outputs": [],
      "stateMutability": "nonpayable",
      "type": "function"
    },
    {
      "inputs": [
        {
          "internalType": "uint256",
          "name": "timeout",
          "type": "uint256"
        }
      ],
      "name": "setVerificationTimeout",
      "outputs": [],
      "stateMutability": "nonpayable",
      "type": "function"
    },
    {
      "inputs": [
        {
          "internalType": "uint256",
          "name": "orderId",
          "type": "uint256"
        },
        {
          "internalType": "uint256",
          "name": "suggestedPrice",
          "type": "uint256"
        },
        {
          "internalType": "string",
          "name": "priceEvidence",
          "type": "string"
        },
        {
          "internalType": "enum FeedType",
          "name": "feedType",
          "type": "uint8"
        },
        {
          "internalType": "bool",
          "name": "isInitialFeed",
          "type": "bool"
        }
      ],
      "name": "submitSuggestedPrice",
      "outputs": [
        {
          "internalType": "uint256",
          "name": "requestId",
          "type": "uint256"
        }
      ],
      "stateMutability": "nonpayable",
      "type": "function"
    },
    {
      "inputs": [
        {
          "internalType": "bytes4",
          "name": "interfaceId",
          "type": "bytes4"
        }
      ],
      "name": "supportsInterface",
      "outputs": [
        {
          "internalType": "bool",
          "name": "",
          "type": "bool"
        }
      ],
      "stateMutability": "view",
      "type": "function"
    },
    {
      "inputs": [],
      "name": "unpause",
      "outputs": [],
      "stateMutability": "nonpayable",
      "type": "function"
    },
    {
      "inputs": [],
      "name": "usdt",
      "outputs": [
        {
          "internalType": "contract IERC20",
          "name": "",
          "type": "address"
        }
      ],
      "stateMutability": "view",
      "type": "function"
    },
    {
      "inputs": [],
      "name": "verificationTimeout",
      "outputs": [
        {
          "internalType": "uint256",
          "name": "",
          "type": "uint256"
        }
      ],
      "stateMutability": "view",
      "type": "function"
    }
  ],
  "bytecode": "0x608034620000e657601f6200296d38819003918201601f19168301916001600160401b03831184841017620000eb57808492606094604052833981010312620000e6578062000052620000d59262000101565b906200006f6040620000676020840162000101565b920162000101565b6001808055600555610708600890815560028054610100600160a81b0319169490911b610100600160a81b031693909317909255600380546001600160a01b0319166001600160a01b0392909216919091179055620000ce8162000116565b5062000196565b506040516127149081620002398239f35b600080fd5b634e487b7160e01b600052604160045260246000fd5b51906001600160a01b0382168203620000e657565b6001600160a01b031660008181527fad3228b676f7d3cd4284a5443f17f1962b36e491b30a40b2405849e597ba5fb5602052604081205490919060ff166200019257818052816020526040822081835260205260408220600160ff1982541617905533916000805160206200294d8339815191528180a4600190565b5090565b6001600160a01b031660008181527fa0cfc50be65892217a92eab74d4b8dca267a17d5b74f05a4a7cdee0906a51faf60205260408120549091907f70b284da8bfc3de812daa2261b4c3ffadd90c2c772295293d09c9629a737a0cd9060ff166200023357808352826020526040832082845260205260408320600160ff198254161790556000805160206200294d833981519152339380a4600190565b50509056fe608080604052600436101561001357600080fd5b60003560e01c90816301ffc9a714611a3b5750806302768de414611a1257806309e7c6731461195f57806318433a7e146118dd57806320e3dbd414611895578063248a9ca3146118665780632ce5ed8c146117fc5780632f0165ca146117c15780632f2ff15d146117825780632f48ab7d1461175957806336568abe146117125780633f4ba83a146116a857806342ae7b63146114f35780634b55495414611486578063571dd963146111c257806359a1c35d146111695780635c975abb1461114657806366d636331461111d5780636a84a985146110ff57806377fd00c51461101657806379502c5514610fe95780637bdb81c714610f9057806381d12c5814610e5c5780638456cb5914610e025780638a83d7b514610d5c57806391d1485414610d0f5780639bd2de8014610793578063a217fddf14610777578063a3c4eed414610730578063afc1d8cc14610712578063b7bb5589146105e4578063bc42a999146105a3578063c58343ef1461032b578063c7c7b02f146102c0578063ceb2097114610297578063d547741f14610256578063d8a4676f1461021b5763d9548e53146101c157600080fd5b34610216576020366003190112610216576004356000526006602052602060406000206006810154421190816101fd575b506040519015158152f35b60ff9150600901541661020f81611c74565b15386101f2565b600080fd5b34610216576020366003190112610216576004356000526006602052602060ff600960406000200154166040519061025281611c74565b8152f35b3461021657604036600319011261021657610295600435610275611aa4565b90806000526000602052610290600160406000200154611d11565b611f18565b005b346102165760003660031901126102165760206040516000805160206125ff8339815191528152f35b34610216576020366003190112610216576102956102dc611a8e565b6102e4611cb9565b60008051602061267f83398151915260009081526020527fbb186cc6582165753931a58fdaac99b9482f9d63c76229808bd3afc382e982165461032690611d11565b611db3565b346102165760203660031901126102165760006101c060405161034d81611b21565b828152826020820152826040820152826060820152606060808201528260a08201528260c08201528260e0820152826101008201528261012082015282610140820152826101608201526060610180820152826101a082015201526004356000526006602052604060002060ff600b604051926103c984611b21565b805484526001810154602085015260028101546001600160a01b031660408501526003810154606085015261040060048201611b8e565b6080850152600581015460a0850152600681015460c08501526007810154838116151560e0860152600890811c6001600160a01b031661010086015281015461012085015260098101548390610457818316611c74565b81811661014087015261046e828260081c16611c74565b60081c16610160850152610484600a8201611b8e565b610180850152015461049c8282166101a08501611fe6565b60081c1615156101c0820152604051809160208252805160208301526020810151604083015260018060a01b036040820151166060830152606081015160808301526101c06105826104ff60808401516101e060a0870152610200860190611c34565b60a084015160c086015260c084015160e086015260e0840151151561010086015260018060a01b036101008501511661012086015261012084015161014086015261014084015161054f81611c74565b61016086015261016084015161056481611c74565b610180860152610180840151601f19868303016101a0870152611c34565b916105956101a082015183860190611c7e565b015115156101e08301520390f35b34610216576020366003190112610216576004356006811015610216576105cc6105e091612235565b604051918291602083526020830190611c34565b0390f35b346102165760208060031936011261021657610701906004359081151580610707575b610610906120ec565b816000526006815261063660ff6009604060002001541661063081611c74565b15612137565b6000805160206125ff83398151915260005260008152604060002033600052815261066860ff6040600020541661218f565b6106706120c9565b6106786120ab565b816000526006815260406000209161069660068401544211156121ea565b60078301916106b260ff19936001858254161781553390612046565b6003840154928360088601556001600986019182541617905560405192835242908301527f112b7d9c9adcc16bbe96e91013df246a4478c2111c56048a75f38a03d305fbd860403393a3612419565b60018055005b506005548210610607565b34610216576000366003190112610216576020600854604051908152f35b34610216576040366003190112610216576024356004356000526007602052604060002080548210156102165760209161076991611c8b565b90546040519160031b1c8152f35b3461021657600036600319011261021657602060405160008152f35b346102165760a0366003190112610216576044356001600160401b038111610216576107c3903690600401611aba565b6004606435101561021657608435908115158203610216576107e36120c9565b6107eb6120ab565b6107f86024351515611f7b565b8015610cbf576005549161080b83611fd7565b600555600854420190814211610ca9576040519161082883611b21565b848352600435602084015233604084015260243560608401526001600160401b038411610b8257604051610866601f8601601f191660200182611b6b565b8481523685880111610216578487602083013760006020868301015260808401524260a084015260c0830152600060e0830152600061010083015260006101208301526000610140830152600561016083015260405180602081011060018060401b03602083011117610b825760208101604052600081526101808301526108f46064356101a08401611fe6565b15156101c082015260008381526006602090815260409182902083518155908301516001820155908201516002820180546001600160a01b0319166001600160a01b03929092169190911790556060820151600382015560808201518051906001600160401b038211610b8257819061097d826109746004870154611ae7565b60048701611ff2565b602090601f8311600114610c3757600092610c2c575b50508160011b916000199060031b1c19161760048201555b60a0820151600582015560c08201516006820155610a3c600782016109f460e085015115159160ff199260ff84835416911617815560018060a01b036101008701511690612046565b6101208401516008840155600983019060ff61014086015191610a1683611c74565b610a1f83611c74565b835416911617815561016084015190610a3782611c74565b61206b565b6101808201518051906001600160401b038211610b8257610a6d82610a64600a860154611ae7565b600a8601611ff2565b602090601f8311600114610bb957600b93929160009183610bae575b50508160011b916000199060031b1c191617600a8201555b01906101a0810151906004821015610b985760ff61ff006101c08554930151151560081b1692169061ffff1916171790556004356000526007602052604060002092835490600160401b821015610b8257610b07826020966001610b3595018155611c8b565b81549060031b9086821b91600019901b1916179055604051926024358452608086850152608084019161208a565b610b4460408301606435611c7e565b426060830152827faff7119f7cb06e0e6684a18e0d8a8dcafb8e1e35dfeb2a0eaa4d9e17c7f2d51c339380600435940390a460018055604051908152f35b634e487b7160e01b600052604160045260246000fd5b634e487b7160e01b600052602160045260246000fd5b015190508880610a89565b90600a840160005260206000209160005b601f1985168110610c145750918391600193600b9695601f19811610610bfb575b505050811b01600a820155610aa1565b015160001960f88460031b161c19169055888080610beb565b91926020600181928685015181550194019201610bca565b015190508780610993565b9250600484016000526020600020906000935b601f1984168510610c8e576001945083601f19811610610c75575b505050811b0160048201556109ab565b015160001960f88460031b161c19169055878080610c65565b81810151835560209485019460019093019290910190610c4a565b634e487b7160e01b600052601160045260246000fd5b60405162461bcd60e51b815260206004820152602260248201527f566f6c756d654261736564466565643a2065766964656e636520726571756972604482015261195960f21b6064820152608490fd5b3461021657604036600319011261021657610d28611aa4565b600435600052600060205260406000209060018060a01b0316600052602052602060ff604060002054166040519015158152f35b34610216576020806003193601126102165760043560005260078152604060002060405190818382549182815201908192600052846000209060005b86828210610dee578686610dae82880383611b6b565b604051928392818401908285525180915260408401929160005b828110610dd757505050500390f35b835185528695509381019392810192600101610dc8565b835485529093019260019283019201610d98565b3461021657600036600319011261021657610e1b611cb9565b610e236120ab565b600160ff1960025416176002557f62e78cea01bee320cd4e420270b5ea74000d11b0c9f74754ebdbfc544b05a2586020604051338152a1005b3461021657602036600319011261021657600435600052600660205260406000208054600182015491600160a01b6001900360028201541690600381015460048201610ea790611b8e565b6005830154916006840154600785015460088601549160098701549460ff861694600a8901610ed590611b8e565b98600b0154996040519c8d9c8d5260208d015260408c015260608b01526101e08060808c01528a01610f0691611c34565b60a08a019690965260c089015260ff8116151560e089015260081c6001600160a01b0316610100880152610120870152610f3f81611c74565b61014086015260081c60ff16610f5481611c74565b610160850152838103610180850152610f6c91611c34565b90610f7e6101a0840160ff8316611c7e565b60081c60ff1615156101c08301520390f35b3461021657602036600319011261021657610295610fac611a8e565b610fb4611cb9565b6000805160206125ff833981519152600090815260205260008051602061265f83398151915254610fe490611d11565b611ea3565b346102165760003660031901126102165760025460405160089190911c6001600160a01b03168152602090f35b34610216576020806003193601126102165760043590811515806110f4575b61103e906120ec565b816000526006815261105e60ff6009604060002001541661063081611c74565b8160005260068152604060002060068101544211156110b157600901805460ff191660041790556040514281527f6bdd24364ea257bc2fc44b73a2b568ad948e3a1e4e7a2a26fe3443f117dd7ea69190a2005b6064826040519062461bcd60e51b825280600483015260248201527f566f6c756d654261736564466565643a206e6f742065787069726564207965746044820152fd5b506005548210611035565b34610216576000366003190112610216576020600554604051908152f35b34610216576000366003190112610216576004546040516001600160a01b039091168152602090f35b3461021657600036600319011261021657602060ff600254166040519015158152f35b3461021657602036600319011261021657610295611185611a8e565b61118d611cb9565b6000805160206125ff833981519152600090815260205260008051602061265f833981519152546111bd90611d11565b611d37565b34610216576060366003190112610216576004356024356006811015610216576001600160401b039060443582811161021657611203903690600401611aba565b84919415158061147b575b611217906120ec565b816000526020926006845261123a60ff6009604060002001541661063081611c74565b6000805160206125ff83398151915260005260008452604060002033600052845261126c60ff6040600020541661218f565b6112746120c9565b61127c6120ab565b826000526006845260406000209161129a60068401544211156121ea565b60078301956112ce836001986112bc60ff19918b838254161781553390612046565b6002600988019182541617815561206b565b600a8401908211610b82576112ed826112e78354611ae7565b83611ff2565b6000601f83116001146114005787988360008051602061263f8339815191529388999a9895611350946000916113f5575b50600019600384901b1c1916828a1b1790555b6040519561133e81611c74565b865260608a870152606086019161208a565b924260408201528033940390a360ff600b82015460081c161561137257508055005b7f1b1bad35d7eb8e3b80160d50398a5b0ffe5116e655503008c421609111b39fde9160a0910154936040519060408252603060408301527f566f6c756d652d626173656420666565642072656a65637465642c207265717560608301526f1a5c995cc81b9bdc9b585b081999595960821b60808301524290820152a38180828055005b90508301358d61131e565b601f1983169082600052876000209160005b81811061146657509360008051602061263f83398151915293611350938b9c93838b9c9d9b981061144c575b50508882811b019055611331565b840135600019600385901b60f8161c191690558c8061143e565b8b8301358455928a0192918901918901611412565b50600554821061120e565b3461021657602036600319011261021657600435600052600660205260408060002060ff600982015416906114ba82611c74565b600182149182156114da575b506008015490825191825215156020820152f35b6008919250806114eb600392611c74565b1491906114c6565b34610216576060366003190112610216576004356024356044356001600160401b03811161021657611529903690600401611aba565b90928015158061169d575b61153d906120ec565b806000526020916006835261156060ff6009604060002001541661063081611c74565b6000805160206125ff83398151915260005260008352604060002033600052835261159260ff6040600020541661218f565b61159a6120c9565b6115a26120ab565b6115ad841515611f7b565b801561165a57611648610701957f8027137d6886c250b29232e541e4fd484e1e1e0864e818dbc77c2cf5c89cda829284600052600686526040600020966115fa60068901544211156121ea565b6003880154966007890161161b60ff19916001838254161781553390612046565b8260088b0155600360098b019182541617905560405197885287015260806040870152608086019161208a565b924260608201528033940390a3612419565b6064836040519062461bcd60e51b825280600483015260248201527f566f6c756d654261736564466565643a20726561736f6e2072657175697265646044820152fd5b506005548110611534565b34610216576000366003190112610216576116c1611cb9565b60025460ff8116156117005760ff19166002557f5db9ee0a495bf2e6ff9c91a7834c1ba4fdd244a5e8aa4e537bd38aeae4b073aa6020604051338152a1005b604051638dfc202b60e01b8152600490fd5b346102165760403660031901126102165761172b611aa4565b336001600160a01b038216036117475761029590600435611f18565b60405163334bd91960e11b8152600490fd5b34610216576000366003190112610216576003546040516001600160a01b039091168152602090f35b34610216576040366003190112610216576102956004356117a1611aa4565b908060005260006020526117bc600160406000200154611d11565b611e3c565b346102165760003660031901126102165760206040517f70b284da8bfc3de812daa2261b4c3ffadd90c2c772295293d09c9629a737a0cd8152f35b3461021657602036600319011261021657611815611a8e565b61181d611cb9565b600480546001600160a01b039283166001600160a01b0319821681179092559091167f94af051e96654d5307b8988d92a2df0ad2b965985c760887080b6666da39a590600080a3005b346102165760203660031901126102165760043560005260006020526020600160406000200154604051908152f35b34610216576020366003190112610216576118ae611a8e565b6118b6611cb9565b60028054610100600160a81b03191660089290921b610100600160a81b0316919091179055005b34610216576020366003190112610216576004356118f9611cb9565b61025881101580611953575b1561190f57600855005b606460405162461bcd60e51b815260206004820152602060248201527f566f6c756d654261736564466565643a20696e76616c69642074696d656f75746044820152fd5b50611c20811115611905565b3461021657602080600319360112610216576001600160401b036004358181116102165736602382011215610216578060040135918211610216576024906005368385831b84010111610216576119b4611cb9565b60005b8481106119c057005b80821b8301840135906001600160a01b038216820361021657611a07611a0d926000805160206125ff833981519152600052600089526111bd600160406000200154611d11565b50611fd7565b6119b7565b3461021657600036600319011261021657602060405160008051602061267f8339815191528152f35b34610216576020366003190112610216576004359063ffffffff60e01b821680920361021657602091637965db0b60e01b8114908115611a7d575b5015158152f35b6301ffc9a760e01b14905083611a76565b600435906001600160a01b038216820361021657565b602435906001600160a01b038216820361021657565b9181601f84011215610216578235916001600160401b038311610216576020838186019501011161021657565b90600182811c92168015611b17575b6020831014611b0157565b634e487b7160e01b600052602260045260246000fd5b91607f1691611af6565b6101e081019081106001600160401b03821117610b8257604052565b6001600160401b038111610b8257604052565b604081019081106001600160401b03821117610b8257604052565b601f909101601f19168101906001600160401b03821190821017610b8257604052565b9060405191826000825492611ba284611ae7565b908184526001948581169081600014611c115750600114611bce575b5050611bcc92500383611b6b565b565b9093915060005260209081600020936000915b818310611bf9575050611bcc93508201013880611bbe565b85548884018501529485019487945091830191611be1565b915050611bcc94506020925060ff191682840152151560051b8201013880611bbe565b919082519283825260005b848110611c60575050826000602080949584010152601f8019910116010190565b602081830181015184830182015201611c3f565b60061115610b9857565b906004821015610b985752565b8054821015611ca35760005260206000200190600090565b634e487b7160e01b600052603260045260246000fd5b3360009081527fad3228b676f7d3cd4284a5443f17f1962b36e491b30a40b2405849e597ba5fb5602052604081205460ff1615611cf35750565b6044906040519063e2517d3f60e01b82523360048301526024820152fd5b80600052600060205260406000203360005260205260ff6040600020541615611cf35750565b6001600160a01b0316600081815260008051602061261f83398151915260205260408120549091906000805160206125ff8339815191529060ff16611dae57808352826020526040832082845260205260408320600160ff198254161790556000805160206125df833981519152339380a4600190565b505090565b6001600160a01b031660008181527fbb186cc6582165753931a58fdaac99b9482f9d63c76229808bd3afc382e98215602052604081205490919060008051602061267f8339815191529060ff16611dae57808352826020526040832082845260205260408320600160ff198254161790556000805160206125df833981519152339380a4600190565b9060009180835282602052604083209160018060a01b03169182845260205260ff60408420541615600014611dae57808352826020526040832082845260205260408320600160ff198254161790556000805160206125df833981519152339380a4600190565b6001600160a01b0316600081815260008051602061261f83398151915260205260408120549091906000805160206125ff8339815191529060ff1615611dae5780835282602052604083208284526020526040832060ff19815416905560008051602061269f833981519152339380a4600190565b9060009180835282602052604083209160018060a01b03169182845260205260ff604084205416600014611dae5780835282602052604083208284526020526040832060ff19815416905560008051602061269f833981519152339380a4600190565b15611f8257565b60405162461bcd60e51b815260206004820152602760248201527f566f6c756d654261736564466565643a207072696365206d75737420626520706044820152666f73697469766560c81b6064820152608490fd5b6000198114610ca95760010190565b6004821015610b985752565b90601f811161200057505050565b600091825260208220906020601f850160051c8301941061203c575b601f0160051c01915b82811061203157505050565b818155600101612025565b909250829061201c565b8054610100600160a81b03191660089290921b610100600160a81b0316919091179055565b9061207581611c74565b61ff0082549160081b169061ff001916179055565b908060209392818452848401376000828201840152601f01601f1916010190565b60ff600254166120b757565b60405163d93c066560e01b8152600490fd5b6002600154146120da576002600155565b604051633ee5aeb560e01b8152600490fd5b156120f357565b606460405162461bcd60e51b815260206004820152602060248201527f566f6c756d654261736564466565643a20696e76616c696420726571756573746044820152fd5b1561213e57565b60405162461bcd60e51b8152602060048201526024808201527f566f6c756d654261736564466565643a2072657175657374206e6f742070656e60448201526364696e6760e01b6064820152608490fd5b1561219657565b60405162461bcd60e51b815260206004820152602660248201527f566f6c756d654261736564466565643a206e6f7420617574686f72697a6564206044820152653332b2b232b960d11b6064820152608490fd5b156121f157565b606460405162461bcd60e51b815260206004820152602060248201527f566f6c756d654261736564466565643a207265717565737420657870697265646044820152fd5b61223e81611c74565b80156123765761224d81611c74565b6001811461233e5761225e81611c74565b600281146123115761226f81611c74565b600381146122e15780612283600492611c74565b146122b05760405161229481611b50565b600c81526b27ba3432b9103932b0b9b7b760a11b602082015290565b6040516122bc81611b50565b6015815274507269636520697320756e726561736f6e61626c6560581b602082015290565b506040516122ee81611b50565b60138152725072696365206e6f7420617661696c61626c6560681b602082015290565b5060405161231e81611b50565b601081526f13585c9ad95d081a5cc818db1bdcd95960821b602082015290565b5060405161234b81611b50565b601b81527a4e6f2074726164696e6720766f6c756d6520617661696c61626c6560281b602082015290565b5060405161238381611b50565b6015815274150ad60818dbdb991a5d1a5bdb881b9bdd081b595d605a1b602082015290565b600060443d1061240557604051600319913d83016004833e81516001600160401b03918282113d60248401111761240857818401948551938411612410573d85010160208487010111612408575061240592910160200190611b6b565b90565b949350505050565b50949350505050565b6004546001600160a01b039190600090831680156125d8576001830193845491600b85019260ff84541691803b156125d45791604486928361247695604051968795869463305cddfd60e01b865260048601526024850190611c7e565b5af16125c1575b50600454169060ff8554915416916008850154813b156125bd5792606485938480946124c4976040519889968795630c21ea2360e21b875260048701526024860190611c7e565b60448401525af191826125a5575b5050612593576001908060033d11612583575b6308c379a014612535575b506124f9575050565b549054906000805160206126bf833981519152606060405160208152600d60208201526c3ab735b737bbb71032b93937b960991b6040820152a3565b61253d6123a8565b908161254a575b506124f0565b9091509082546000805160206126bf833981519152612579865493604051918291602083526020830190611c34565b0390a33880612544565b50600481803e805160e01c6124e5565b50600901805460ff1916600517905550565b6125ae90611b3d565b6125b95781386124d2565b5080fd5b8480fd5b6125cd90939193611b3d565b913861247d565b8580fd5b5050505056fe2f8788117e7eff1d82e926ec794901d17c78024a50270940304540a733656f0d80a586cc4ecf40a390b370be075aa38ab3cc512c5c1a7bc1007974dbdf2663c7f3df2cad0328610bdabaaa4666352f9e79b67a748d22942cd8aec92e2fbda4b77c3675bbce43bcac670aeb7638c82a769aba3ec3e168677f73537e2b3cef0e83f3df2cad0328610bdabaaa4666352f9e79b67a748d22942cd8aec92e2fbda4b8ba279271fb7bbf76a6f3df3cc57bf80647fcafdea60ec3383d90f459de74e7c0f6391f5c32d9c69d2a47ea670b442974b53935d1edc7fd64eb21e047a839171b1f54ad489b02300a3aef537f4dd4783a133c3fdb048bdd7cd10e96842a4d8b4fa264697066735822122016c3ff0e278afccb1ea0f7b0ed41ef5a484f67c9c18695bcaaf50d64b2d6c72d64736f6c634300081400332f8788117e7eff1d82e926ec794901d17c78024a50270940304540a733656f0d",
  "linkReferences": {},
  "deployedLinkReferences": {}
}