{
  "_format": "hh-sol-artifact-1",
  "contractName": "VolumeBasedFeed",
  "sourceName": "contracts/feed/VolumeBasedFeed.sol",
  "abi": [
    {
      "inputs": [
        {
          "internalType": "address",
          "name": "_config",
          "type": "address"
        },
        {
          "internalType": "address",
          "name": "_usdt",
          "type": "address"
        },
        {
          "internalType": "address",
          "name": "_admin",
          "type": "address"
        }
      ],
      "stateMutability": "nonpayable",
      "type": "constructor"
    },
    {
      "inputs": [],
      "name": "AccessControlBadConfirmation",
      "type": "error"
    },
    {
      "inputs": [
        {
          "internalType": "address",
          "name": "account",
          "type": "address"
        },
        {
          "internalType": "bytes32",
          "name": "neededRole",
          "type": "bytes32"
        }
      ],
      "name": "AccessControlUnauthorizedAccount",
      "type": "error"
    },
    {
      "inputs": [],
      "name": "EnforcedPause",
      "type": "error"
    },
    {
      "inputs": [],
      "name": "ExpectedPause",
      "type": "error"
    },
    {
      "inputs": [],
      "name": "ReentrancyGuardReentrantCall",
      "type": "error"
    },
    {
      "anonymous": false,
      "inputs": [
        {
          "indexed": false,
          "internalType": "address",
          "name": "account",
          "type": "address"
        }
      ],
      "name": "Paused",
      "type": "event"
    },
    {
      "anonymous": false,
      "inputs": [
        {
          "indexed": true,
          "internalType": "uint256",
          "name": "requestId",
          "type": "uint256"
        },
        {
          "indexed": true,
          "internalType": "address",
          "name": "feeder",
          "type": "address"
        },
        {
          "indexed": false,
          "internalType": "uint256",
          "name": "finalPrice",
          "type": "uint256"
        },
        {
          "indexed": false,
          "internalType": "uint256",
          "name": "timestamp",
          "type": "uint256"
        }
      ],
      "name": "PriceApproved",
      "type": "event"
    },
    {
      "anonymous": false,
      "inputs": [
        {
          "indexed": true,
          "internalType": "uint256",
          "name": "requestId",
          "type": "uint256"
        },
        {
          "indexed": true,
          "internalType": "address",
          "name": "feeder",
          "type": "address"
        },
        {
          "indexed": false,
          "internalType": "uint256",
          "name": "originalPrice",
          "type": "uint256"
        },
        {
          "indexed": false,
          "internalType": "uint256",
          "name": "modifiedPrice",
          "type": "uint256"
        },
        {
          "indexed": false,
          "internalType": "string",
          "name": "reason",
          "type": "string"
        },
        {
          "indexed": false,
          "internalType": "uint256",
          "name": "timestamp",
          "type": "uint256"
        }
      ],
      "name": "PriceModified",
      "type": "event"
    },
    {
      "anonymous": false,
      "inputs": [
        {
          "indexed": true,
          "internalType": "uint256",
          "name": "requestId",
          "type": "uint256"
        },
        {
          "indexed": true,
          "internalType": "address",
          "name": "feeder",
          "type": "address"
        },
        {
          "indexed": false,
          "internalType": "enum VolumeBasedFeed.RejectReason",
          "name": "reason",
          "type": "uint8"
        },
        {
          "indexed": false,
          "internalType": "string",
          "name": "description",
          "type": "string"
        },
        {
          "indexed": false,
          "internalType": "uint256",
          "name": "timestamp",
          "type": "uint256"
        }
      ],
      "name": "PriceRejected",
      "type": "event"
    },
    {
      "anonymous": false,
      "inputs": [
        {
          "indexed": true,
          "internalType": "uint256",
          "name": "requestId",
          "type": "uint256"
        },
        {
          "indexed": true,
          "internalType": "uint256",
          "name": "orderId",
          "type": "uint256"
        },
        {
          "indexed": false,
          "internalType": "string",
          "name": "reason",
          "type": "string"
        },
        {
          "indexed": false,
          "internalType": "uint256",
          "name": "timestamp",
          "type": "uint256"
        }
      ],
      "name": "RefeedRequired",
      "type": "event"
    },
    {
      "anonymous": false,
      "inputs": [
        {
          "indexed": true,
          "internalType": "uint256",
          "name": "requestId",
          "type": "uint256"
        },
        {
          "indexed": false,
          "internalType": "uint256",
          "name": "timestamp",
          "type": "uint256"
        }
      ],
      "name": "RequestExpired",
      "type": "event"
    },
    {
      "anonymous": false,
      "inputs": [
        {
          "indexed": true,
          "internalType": "bytes32",
          "name": "role",
          "type": "bytes32"
        },
        {
          "indexed": true,
          "internalType": "bytes32",
          "name": "previousAdminRole",
          "type": "bytes32"
        },
        {
          "indexed": true,
          "internalType": "bytes32",
          "name": "newAdminRole",
          "type": "bytes32"
        }
      ],
      "name": "RoleAdminChanged",
      "type": "event"
    },
    {
      "anonymous": false,
      "inputs": [
        {
          "indexed": true,
          "internalType": "bytes32",
          "name": "role",
          "type": "bytes32"
        },
        {
          "indexed": true,
          "internalType": "address",
          "name": "account",
          "type": "address"
        },
        {
          "indexed": true,
          "internalType": "address",
          "name": "sender",
          "type": "address"
        }
      ],
      "name": "RoleGranted",
      "type": "event"
    },
    {
      "anonymous": false,
      "inputs": [
        {
          "indexed": true,
          "internalType": "bytes32",
          "name": "role",
          "type": "bytes32"
        },
        {
          "indexed": true,
          "internalType": "address",
          "name": "account",
          "type": "address"
        },
        {
          "indexed": true,
          "internalType": "address",
          "name": "sender",
          "type": "address"
        }
      ],
      "name": "RoleRevoked",
      "type": "event"
    },
    {
      "anonymous": false,
      "inputs": [
        {
          "indexed": true,
          "internalType": "uint256",
          "name": "requestId",
          "type": "uint256"
        },
        {
          "indexed": true,
          "internalType": "uint256",
          "name": "orderId",
          "type": "uint256"
        },
        {
          "indexed": true,
          "internalType": "address",
          "name": "seller",
          "type": "address"
        },
        {
          "indexed": false,
          "internalType": "uint256",
          "name": "suggestedPrice",
          "type": "uint256"
        },
        {
          "indexed": false,
          "internalType": "string",
          "name": "priceEvidence",
          "type": "string"
        },
        {
          "indexed": false,
          "internalType": "enum FeedType",
          "name": "feedType",
          "type": "uint8"
        },
        {
          "indexed": false,
          "internalType": "uint256",
          "name": "timestamp",
          "type": "uint256"
        }
      ],
      "name": "SuggestedPriceSubmitted",
      "type": "event"
    },
    {
      "anonymous": false,
      "inputs": [
        {
          "indexed": false,
          "internalType": "address",
          "name": "account",
          "type": "address"
        }
      ],
      "name": "Unpaused",
      "type": "event"
    },
    {
      "inputs": [],
      "name": "DEFAULT_ADMIN_ROLE",
      "outputs": [
        {
          "internalType": "bytes32",
          "name": "",
          "type": "bytes32"
        }
      ],
      "stateMutability": "view",
      "type": "function"
    },
    {
      "inputs": [],
      "name": "FEEDER_ROLE",
      "outputs": [
        {
          "internalType": "bytes32",
          "name": "",
          "type": "bytes32"
        }
      ],
      "stateMutability": "view",
      "type": "function"
    },
    {
      "inputs": [],
      "name": "FEED_OPERATOR_ROLE",
      "outputs": [
        {
          "internalType": "bytes32",
          "name": "",
          "type": "bytes32"
        }
      ],
      "stateMutability": "view",
      "type": "function"
    },
    {
      "inputs": [],
      "name": "PROTOCOL_ROLE",
      "outputs": [
        {
          "internalType": "bytes32",
          "name": "",
          "type": "bytes32"
        }
      ],
      "stateMutability": "view",
      "type": "function"
    },
    {
      "inputs": [
        {
          "internalType": "uint256",
          "name": "requestId",
          "type": "uint256"
        }
      ],
      "name": "approvePrice",
      "outputs": [],
      "stateMutability": "nonpayable",
      "type": "function"
    },
    {
      "inputs": [],
      "name": "config",
      "outputs": [
        {
          "internalType": "contract Config",
          "name": "",
          "type": "address"
        }
      ],
      "stateMutability": "view",
      "type": "function"
    },
    {
      "inputs": [
        {
          "internalType": "uint256",
          "name": "requestId",
          "type": "uint256"
        }
      ],
      "name": "getFinalPrice",
      "outputs": [
        {
          "internalType": "uint256",
          "name": "",
          "type": "uint256"
        },
        {
          "internalType": "bool",
          "name": "",
          "type": "bool"
        }
      ],
      "stateMutability": "view",
      "type": "function"
    },
    {
      "inputs": [
        {
          "internalType": "uint256",
          "name": "orderId",
          "type": "uint256"
        }
      ],
      "name": "getOrderVolumeRequests",
      "outputs": [
        {
          "internalType": "uint256[]",
          "name": "",
          "type": "uint256[]"
        }
      ],
      "stateMutability": "view",
      "type": "function"
    },
    {
      "inputs": [
        {
          "internalType": "enum VolumeBasedFeed.RejectReason",
          "name": "reason",
          "type": "uint8"
        }
      ],
      "name": "getRejectReasonString",
      "outputs": [
        {
          "internalType": "string",
          "name": "",
          "type": "string"
        }
      ],
      "stateMutability": "pure",
      "type": "function"
    },
    {
      "inputs": [
        {
          "internalType": "uint256",
          "name": "requestId",
          "type": "uint256"
        }
      ],
      "name": "getRequest",
      "outputs": [
        {
          "components": [
            {
              "internalType": "uint256",
              "name": "requestId",
              "type": "uint256"
            },
            {
              "internalType": "uint256",
              "name": "orderId",
              "type": "uint256"
            },
            {
              "internalType": "address",
              "name": "seller",
              "type": "address"
            },
            {
              "internalType": "uint256",
              "name": "suggestedPrice",
              "type": "uint256"
            },
            {
              "internalType": "string",
              "name": "priceEvidence",
              "type": "string"
            },
            {
              "internalType": "uint256",
              "name": "submittedAt",
              "type": "uint256"
            },
            {
              "internalType": "uint256",
              "name": "deadline",
              "type": "uint256"
            },
            {
              "internalType": "bool",
              "name": "isVerified",
              "type": "bool"
            },
            {
              "internalType": "address",
              "name": "verifiedBy",
              "type": "address"
            },
            {
              "internalType": "uint256",
              "name": "finalPrice",
              "type": "uint256"
            },
            {
              "internalType": "enum VolumeBasedFeed.VolumeBasedFeedStatus",
              "name": "status",
              "type": "uint8"
            },
            {
              "internalType": "enum VolumeBasedFeed.RejectReason",
              "name": "rejectReason",
              "type": "uint8"
            },
            {
              "internalType": "string",
              "name": "rejectDescription",
              "type": "string"
            },
            {
              "internalType": "enum FeedType",
              "name": "feedType",
              "type": "uint8"
            },
            {
              "internalType": "bool",
              "name": "isInitialFeed",
              "type": "bool"
            }
          ],
          "internalType": "struct VolumeBasedFeed.VolumeBasedFeedRequest",
          "name": "",
          "type": "tuple"
        }
      ],
      "stateMutability": "view",
      "type": "function"
    },
    {
      "inputs": [
        {
          "internalType": "uint256",
          "name": "requestId",
          "type": "uint256"
        }
      ],
      "name": "getRequestStatus",
      "outputs": [
        {
          "internalType": "enum VolumeBasedFeed.VolumeBasedFeedStatus",
          "name": "",
          "type": "uint8"
        }
      ],
      "stateMutability": "view",
      "type": "function"
    },
    {
      "inputs": [
        {
          "internalType": "bytes32",
          "name": "role",
          "type": "bytes32"
        }
      ],
      "name": "getRoleAdmin",
      "outputs": [
        {
          "internalType": "bytes32",
          "name": "",
          "type": "bytes32"
        }
      ],
      "stateMutability": "view",
      "type": "function"
    },
    {
      "inputs": [
        {
          "internalType": "address",
          "name": "feeder",
          "type": "address"
        }
      ],
      "name": "grantFeederRole",
      "outputs": [],
      "stateMutability": "nonpayable",
      "type": "function"
    },
    {
      "inputs": [
        {
          "internalType": "address[]",
          "name": "feeders",
          "type": "address[]"
        }
      ],
      "name": "grantFeederRoleBatch",
      "outputs": [],
      "stateMutability": "nonpayable",
      "type": "function"
    },
    {
      "inputs": [
        {
          "internalType": "address",
          "name": "protocol",
          "type": "address"
        }
      ],
      "name": "grantProtocolRole",
      "outputs": [],
      "stateMutability": "nonpayable",
      "type": "function"
    },
    {
      "inputs": [
        {
          "internalType": "bytes32",
          "name": "role",
          "type": "bytes32"
        },
        {
          "internalType": "address",
          "name": "account",
          "type": "address"
        }
      ],
      "name": "grantRole",
      "outputs": [],
      "stateMutability": "nonpayable",
      "type": "function"
    },
    {
      "inputs": [
        {
          "internalType": "bytes32",
          "name": "role",
          "type": "bytes32"
        },
        {
          "internalType": "address",
          "name": "account",
          "type": "address"
        }
      ],
      "name": "hasRole",
      "outputs": [
        {
          "internalType": "bool",
          "name": "",
          "type": "bool"
        }
      ],
      "stateMutability": "view",
      "type": "function"
    },
    {
      "inputs": [
        {
          "internalType": "uint256",
          "name": "requestId",
          "type": "uint256"
        }
      ],
      "name": "isExpired",
      "outputs": [
        {
          "internalType": "bool",
          "name": "",
          "type": "bool"
        }
      ],
      "stateMutability": "view",
      "type": "function"
    },
    {
      "inputs": [
        {
          "internalType": "uint256",
          "name": "requestId",
          "type": "uint256"
        }
      ],
      "name": "markExpired",
      "outputs": [],
      "stateMutability": "nonpayable",
      "type": "function"
    },
    {
      "inputs": [
        {
          "internalType": "uint256",
          "name": "requestId",
          "type": "uint256"
        },
        {
          "internalType": "uint256",
          "name": "modifiedPrice",
          "type": "uint256"
        },
        {
          "internalType": "string",
          "name": "reason",
          "type": "string"
        }
      ],
      "name": "modifyPrice",
      "outputs": [],
      "stateMutability": "nonpayable",
      "type": "function"
    },
    {
      "inputs": [],
      "name": "nextRequestId",
      "outputs": [
        {
          "internalType": "uint256",
          "name": "",
          "type": "uint256"
        }
      ],
      "stateMutability": "view",
      "type": "function"
    },
    {
      "inputs": [
        {
          "internalType": "uint256",
          "name": "",
          "type": "uint256"
        },
        {
          "internalType": "uint256",
          "name": "",
          "type": "uint256"
        }
      ],
      "name": "orderVolumeRequests",
      "outputs": [
        {
          "internalType": "uint256",
          "name": "",
          "type": "uint256"
        }
      ],
      "stateMutability": "view",
      "type": "function"
    },
    {
      "inputs": [],
      "name": "pause",
      "outputs": [],
      "stateMutability": "nonpayable",
      "type": "function"
    },
    {
      "inputs": [],
      "name": "paused",
      "outputs": [
        {
          "internalType": "bool",
          "name": "",
          "type": "bool"
        }
      ],
      "stateMutability": "view",
      "type": "function"
    },
    {
      "inputs": [
        {
          "internalType": "uint256",
          "name": "requestId",
          "type": "uint256"
        },
        {
          "internalType": "enum VolumeBasedFeed.RejectReason",
          "name": "reason",
          "type": "uint8"
        },
        {
          "internalType": "string",
          "name": "description",
          "type": "string"
        }
      ],
      "name": "rejectPrice",
      "outputs": [],
      "stateMutability": "nonpayable",
      "type": "function"
    },
    {
      "inputs": [
        {
          "internalType": "bytes32",
          "name": "role",
          "type": "bytes32"
        },
        {
          "internalType": "address",
          "name": "callerConfirmation",
          "type": "address"
        }
      ],
      "name": "renounceRole",
      "outputs": [],
      "stateMutability": "nonpayable",
      "type": "function"
    },
    {
      "inputs": [
        {
          "internalType": "uint256",
          "name": "",
          "type": "uint256"
        }
      ],
      "name": "requests",
      "outputs": [
        {
          "internalType": "uint256",
          "name": "requestId",
          "type": "uint256"
        },
        {
          "internalType": "uint256",
          "name": "orderId",
          "type": "uint256"
        },
        {
          "internalType": "address",
          "name": "seller",
          "type": "address"
        },
        {
          "internalType": "uint256",
          "name": "suggestedPrice",
          "type": "uint256"
        },
        {
          "internalType": "string",
          "name": "priceEvidence",
          "type": "string"
        },
        {
          "internalType": "uint256",
          "name": "submittedAt",
          "type": "uint256"
        },
        {
          "internalType": "uint256",
          "name": "deadline",
          "type": "uint256"
        },
        {
          "internalType": "bool",
          "name": "isVerified",
          "type": "bool"
        },
        {
          "internalType": "address",
          "name": "verifiedBy",
          "type": "address"
        },
        {
          "internalType": "uint256",
          "name": "finalPrice",
          "type": "uint256"
        },
        {
          "internalType": "enum VolumeBasedFeed.VolumeBasedFeedStatus",
          "name": "status",
          "type": "uint8"
        },
        {
          "internalType": "enum VolumeBasedFeed.RejectReason",
          "name": "rejectReason",
          "type": "uint8"
        },
        {
          "internalType": "string",
          "name": "rejectDescription",
          "type": "string"
        },
        {
          "internalType": "enum FeedType",
          "name": "feedType",
          "type": "uint8"
        },
        {
          "internalType": "bool",
          "name": "isInitialFeed",
          "type": "bool"
        }
      ],
      "stateMutability": "view",
      "type": "function"
    },
    {
      "inputs": [
        {
          "internalType": "address",
          "name": "feeder",
          "type": "address"
        }
      ],
      "name": "revokeFeederRole",
      "outputs": [],
      "stateMutability": "nonpayable",
      "type": "function"
    },
    {
      "inputs": [
        {
          "internalType": "bytes32",
          "name": "role",
          "type": "bytes32"
        },
        {
          "internalType": "address",
          "name": "account",
          "type": "address"
        }
      ],
      "name": "revokeRole",
      "outputs": [],
      "stateMutability": "nonpayable",
      "type": "function"
    },
    {
      "inputs": [
        {
          "internalType": "address",
          "name": "_config",
          "type": "address"
        }
      ],
      "name": "setConfig",
      "outputs": [],
      "stateMutability": "nonpayable",
      "type": "function"
    },
    {
      "inputs": [
        {
          "internalType": "uint256",
          "name": "timeout",
          "type": "uint256"
        }
      ],
      "name": "setVerificationTimeout",
      "outputs": [],
      "stateMutability": "nonpayable",
      "type": "function"
    },
    {
      "inputs": [
        {
          "internalType": "uint256",
          "name": "orderId",
          "type": "uint256"
        },
        {
          "internalType": "uint256",
          "name": "suggestedPrice",
          "type": "uint256"
        },
        {
          "internalType": "string",
          "name": "priceEvidence",
          "type": "string"
        },
        {
          "internalType": "enum FeedType",
          "name": "feedType",
          "type": "uint8"
        },
        {
          "internalType": "bool",
          "name": "isInitialFeed",
          "type": "bool"
        }
      ],
      "name": "submitSuggestedPrice",
      "outputs": [
        {
          "internalType": "uint256",
          "name": "requestId",
          "type": "uint256"
        }
      ],
      "stateMutability": "nonpayable",
      "type": "function"
    },
    {
      "inputs": [
        {
          "internalType": "bytes4",
          "name": "interfaceId",
          "type": "bytes4"
        }
      ],
      "name": "supportsInterface",
      "outputs": [
        {
          "internalType": "bool",
          "name": "",
          "type": "bool"
        }
      ],
      "stateMutability": "view",
      "type": "function"
    },
    {
      "inputs": [],
      "name": "unpause",
      "outputs": [],
      "stateMutability": "nonpayable",
      "type": "function"
    },
    {
      "inputs": [],
      "name": "usdt",
      "outputs": [
        {
          "internalType": "contract IERC20",
          "name": "",
          "type": "address"
        }
      ],
      "stateMutability": "view",
      "type": "function"
    },
    {
      "inputs": [],
      "name": "verificationTimeout",
      "outputs": [
        {
          "internalType": "uint256",
          "name": "",
          "type": "uint256"
        }
      ],
      "stateMutability": "view",
      "type": "function"
    }
  ],
  "bytecode": "0x608034620000e657601f6200264c38819003918201601f19168301916001600160401b03831184841017620000eb57808492606094604052833981010312620000e6578062000052620000d59262000101565b906200006f6040620000676020840162000101565b920162000101565b600180805560045561070860075560028054610100600160a81b03191660089490941b610100600160a81b031693909317909255600380546001600160a01b0319166001600160a01b0392909216919091179055620000ce8162000116565b5062000196565b506040516123f39081620002398239f35b600080fd5b634e487b7160e01b600052604160045260246000fd5b51906001600160a01b0382168203620000e657565b6001600160a01b031660008181527fad3228b676f7d3cd4284a5443f17f1962b36e491b30a40b2405849e597ba5fb5602052604081205490919060ff166200019257818052816020526040822081835260205260408220600160ff1982541617905533916000805160206200262c8339815191528180a4600190565b5090565b6001600160a01b031660008181527fa0cfc50be65892217a92eab74d4b8dca267a17d5b74f05a4a7cdee0906a51faf60205260408120549091907f70b284da8bfc3de812daa2261b4c3ffadd90c2c772295293d09c9629a737a0cd9060ff166200023357808352826020526040832082845260205260408320600160ff198254161790556000805160206200262c833981519152339380a4600190565b50509056fe608080604052600436101561001357600080fd5b60003560e01c90816301ffc9a7146119835750806302768de41461195a57806309e7c673146118a757806318433a7e1461182557806320e3dbd4146117dd578063248a9ca3146117ae5780632f0165ca146117735780632f2ff15d146117345780632f48ab7d1461170b57806336568abe146116c45780633f4ba83a1461165a57806342ae7b63146114a85780634b5549541461143b578063571dd9631461117757806359a1c35d1461111e5780635c975abb146110fb5780636a84a985146110dd57806377fd00c514610ff457806379502c5514610fc75780637bdb81c714610f6e57806381d12c5814610e3a5780638456cb5914610de05780638a83d7b514610d3a57806391d1485414610ced5780639bd2de8014610771578063a217fddf14610755578063a3c4eed41461070e578063afc1d8cc146106f0578063b7bb5589146105ce578063bc42a9991461058d578063c58343ef14610315578063c7c7b02f146102aa578063ceb2097114610281578063d547741f14610240578063d8a4676f146102055763d9548e53146101ab57600080fd5b34610200576020366003190112610200576004356000526005602052602060406000206006810154421190816101e7575b506040519015158152f35b60ff915060090154166101f981611ba9565b15386101dc565b600080fd5b34610200576020366003190112610200576004356000526005602052602060ff600960406000200154166040519061023c81611ba9565b8152f35b346102005760403660031901126102005761027f60043561025f6119ec565b9080600052600060205261027a600160406000200154611c46565b611e4d565b005b346102005760003660031901126102005760206040516000805160206122fe8339815191528152f35b346102005760203660031901126102005761027f6102c66119d6565b6102ce611bee565b60008051602061237e83398151915260009081526020527fbb186cc6582165753931a58fdaac99b9482f9d63c76229808bd3afc382e982165461031090611c46565b611ce8565b346102005760203660031901126102005760006101c060405161033781611a69565b828152826020820152826040820152826060820152606060808201528260a08201528260c08201528260e0820152826101008201528261012082015282610140820152826101608201526060610180820152826101a082015201526004356000526005602052604060002060ff600b604051926103b384611a69565b805484526001810154602085015260028101546001600160a01b03166040850152600381015460608501526103ea60048201611ac3565b6080850152600581015460a0850152600681015460c08501526007810154838116151560e0860152600890811c6001600160a01b031661010086015281015461012085015260098101548390610441818316611ba9565b818116610140870152610458828260081c16611ba9565b60081c1661016085015261046e600a8201611ac3565b61018085015201546104868282166101a08501611f1b565b60081c1615156101c0820152604051809160208252805160208301526020810151604083015260018060a01b036040820151166060830152606081015160808301526101c061056c6104e960808401516101e060a0870152610200860190611b69565b60a084015160c086015260c084015160e086015260e0840151151561010086015260018060a01b036101008501511661012086015261012084015161014086015261014084015161053981611ba9565b61016086015261016084015161054e81611ba9565b610180860152610180840151601f19868303016101a0870152611b69565b9161057f6101a082015183860190611bb3565b015115156101e08301520390f35b34610200576020366003190112610200576004356006811015610200576105b66105ca9161216a565b604051918291602083526020830190611b69565b0390f35b346102005760208060031936011261020057600435801515806106e5575b6105f590612021565b806000526005825261061b60ff6009604060002001541661061581611ba9565b1561206c565b6000805160206122fe83398151915260005260008252604060002033600052825261064d60ff604060002054166120c4565b610655611ffe565b61065d611fe0565b806000526005825260406000209161067b600684015442111561211f565b6007830161069660ff19916001838254161781553390611f7b565b60016009600386015495866008820155019182541617905560405192835242908301527f112b7d9c9adcc16bbe96e91013df246a4478c2111c56048a75f38a03d305fbd860403393a360018055005b5060045481106105ec565b34610200576000366003190112610200576020600754604051908152f35b34610200576040366003190112610200576024356004356000526006602052604060002080548210156102005760209161074791611bc0565b90546040519160031b1c8152f35b3461020057600036600319011261020057602060405160008152f35b346102005760a0366003190112610200576044356001600160401b038111610200576107a1903690600401611a02565b6004606435101561020057608435908115158203610200576107c1611ffe565b6107c9611fe0565b6107d66024351515611eb0565b8015610c9d57600454916107e983611f0c565b600455600754420190814211610c87576040519161080683611a69565b848352600435602084015233604084015260243560608401526001600160401b038411610b6057604051610844601f8601601f191660200182611aa0565b8481523685880111610200578487602083013760006020868301015260808401524260a084015260c0830152600060e0830152600061010083015260006101208301526000610140830152600561016083015260405180602081011060018060401b03602083011117610b605760208101604052600081526101808301526108d26064356101a08401611f1b565b15156101c082015260008381526005602090815260409182902083518155908301516001820155908201516002820180546001600160a01b0319166001600160a01b03929092169190911790556060820151600382015560808201518051906001600160401b038211610b6057819061095b826109526004870154611a2f565b60048701611f27565b602090601f8311600114610c1557600092610c0a575b50508160011b916000199060031b1c19161760048201555b60a0820151600582015560c08201516006820155610a1a600782016109d260e085015115159160ff199260ff84835416911617815560018060a01b036101008701511690611f7b565b6101208401516008840155600983019060ff610140860151916109f483611ba9565b6109fd83611ba9565b835416911617815561016084015190610a1582611ba9565b611fa0565b6101808201518051906001600160401b038211610b6057610a4b82610a42600a860154611a2f565b600a8601611f27565b602090601f8311600114610b9757600b93929160009183610b8c575b50508160011b916000199060031b1c191617600a8201555b01906101a0810151906004821015610b765760ff61ff006101c08554930151151560081b1692169061ffff1916171790556004356000526006602052604060002092835490600160401b821015610b6057610ae5826020966001610b1395018155611bc0565b81549060031b9086821b91600019901b19161790556040519260243584526080868501526080840191611fbf565b610b2260408301606435611bb3565b426060830152827faff7119f7cb06e0e6684a18e0d8a8dcafb8e1e35dfeb2a0eaa4d9e17c7f2d51c339380600435940390a460018055604051908152f35b634e487b7160e01b600052604160045260246000fd5b634e487b7160e01b600052602160045260246000fd5b015190508880610a67565b90600a840160005260206000209160005b601f1985168110610bf25750918391600193600b9695601f19811610610bd9575b505050811b01600a820155610a7f565b015160001960f88460031b161c19169055888080610bc9565b91926020600181928685015181550194019201610ba8565b015190508780610971565b9250600484016000526020600020906000935b601f1984168510610c6c576001945083601f19811610610c53575b505050811b016004820155610989565b015160001960f88460031b161c19169055878080610c43565b81810151835560209485019460019093019290910190610c28565b634e487b7160e01b600052601160045260246000fd5b60405162461bcd60e51b815260206004820152602260248201527f566f6c756d654261736564466565643a2065766964656e636520726571756972604482015261195960f21b6064820152608490fd5b3461020057604036600319011261020057610d066119ec565b600435600052600060205260406000209060018060a01b0316600052602052602060ff604060002054166040519015158152f35b34610200576020806003193601126102005760043560005260068152604060002060405190818382549182815201908192600052846000209060005b86828210610dcc578686610d8c82880383611aa0565b604051928392818401908285525180915260408401929160005b828110610db557505050500390f35b835185528695509381019392810192600101610da6565b835485529093019260019283019201610d76565b3461020057600036600319011261020057610df9611bee565b610e01611fe0565b600160ff1960025416176002557f62e78cea01bee320cd4e420270b5ea74000d11b0c9f74754ebdbfc544b05a2586020604051338152a1005b3461020057602036600319011261020057600435600052600560205260406000208054600182015491600160a01b6001900360028201541690600381015460048201610e8590611ac3565b6005830154916006840154600785015460088601549160098701549460ff861694600a8901610eb390611ac3565b98600b0154996040519c8d9c8d5260208d015260408c015260608b01526101e08060808c01528a01610ee491611b69565b60a08a019690965260c089015260ff8116151560e089015260081c6001600160a01b0316610100880152610120870152610f1d81611ba9565b61014086015260081c60ff16610f3281611ba9565b610160850152838103610180850152610f4a91611b69565b90610f5c6101a0840160ff8316611bb3565b60081c60ff1615156101c08301520390f35b346102005760203660031901126102005761027f610f8a6119d6565b610f92611bee565b6000805160206122fe833981519152600090815260205260008051602061235e83398151915254610fc290611c46565b611dd8565b346102005760003660031901126102005760025460405160089190911c6001600160a01b03168152602090f35b34610200576020806003193601126102005760043590811515806110d2575b61101c90612021565b816000526005815261103c60ff6009604060002001541661061581611ba9565b81600052600581526040600020600681015442111561108f57600901805460ff191660041790556040514281527f6bdd24364ea257bc2fc44b73a2b568ad948e3a1e4e7a2a26fe3443f117dd7ea69190a2005b6064826040519062461bcd60e51b825280600483015260248201527f566f6c756d654261736564466565643a206e6f742065787069726564207965746044820152fd5b506004548210611013565b34610200576000366003190112610200576020600454604051908152f35b3461020057600036600319011261020057602060ff600254166040519015158152f35b346102005760203660031901126102005761027f61113a6119d6565b611142611bee565b6000805160206122fe833981519152600090815260205260008051602061235e8339815191525461117290611c46565b611c6c565b34610200576060366003190112610200576004356024356006811015610200576001600160401b0390604435828111610200576111b8903690600401611a02565b849194151580611430575b6111cc90612021565b81600052602092600584526111ef60ff6009604060002001541661061581611ba9565b6000805160206122fe83398151915260005260008452604060002033600052845261122160ff604060002054166120c4565b611229611ffe565b611231611fe0565b826000526005845260406000209161124f600684015442111561211f565b60078301956112838360019861127160ff19918b838254161781553390611f7b565b60026009880191825416178155611fa0565b600a8401908211610b60576112a28261129c8354611a2f565b83611f27565b6000601f83116001146113b55787988360008051602061233e8339815191529388999a9895611305946000916113aa575b50600019600384901b1c1916828a1b1790555b604051956112f381611ba9565b865260608a8701526060860191611fbf565b924260408201528033940390a360ff600b82015460081c161561132757508055005b7f1b1bad35d7eb8e3b80160d50398a5b0ffe5116e655503008c421609111b39fde9160a0910154936040519060408252603060408301527f566f6c756d652d626173656420666565642072656a65637465642c207265717560608301526f1a5c995cc81b9bdc9b585b081999595960821b60808301524290820152a38180828055005b90508301358d6112d3565b601f1983169082600052876000209160005b81811061141b57509360008051602061233e83398151915293611305938b9c93838b9c9d9b9810611401575b50508882811b0190556112e6565b840135600019600385901b60f8161c191690558c806113f3565b8b8301358455928a01929189019189016113c7565b5060045482106111c3565b3461020057602036600319011261020057600435600052600560205260408060002060ff6009820154169061146f82611ba9565b6001821491821561148f575b506008015490825191825215156020820152f35b6008919250806114a0600392611ba9565b14919061147b565b34610200576060366003190112610200576024356004356044356001600160401b038111610200576114de903690600401611a02565b8215158061164f575b6114f090612021565b826000526020936005855261151360ff6009604060002001541661061581611ba9565b6000805160206122fe83398151915260005260008552604060002033600052855261154560ff604060002054166120c4565b61154d611ffe565b611555611fe0565b611560811515611eb0565b811561160c57916115f9917f8027137d6886c250b29232e541e4fd484e1e1e0864e818dbc77c2cf5c89cda829385600052600587526040600020966115ab600689015442111561211f565b6003880154976003600960078301926115d160ff19946001868254161781553390611f7b565b8560088201550191825416179055604051978852870152608060408701526080860191611fbf565b924260608201528033940390a360018055005b6064856040519062461bcd60e51b825280600483015260248201527f566f6c756d654261736564466565643a20726561736f6e2072657175697265646044820152fd5b5060045483106114e7565b3461020057600036600319011261020057611673611bee565b60025460ff8116156116b25760ff19166002557f5db9ee0a495bf2e6ff9c91a7834c1ba4fdd244a5e8aa4e537bd38aeae4b073aa6020604051338152a1005b604051638dfc202b60e01b8152600490fd5b34610200576040366003190112610200576116dd6119ec565b336001600160a01b038216036116f95761027f90600435611e4d565b60405163334bd91960e11b8152600490fd5b34610200576000366003190112610200576003546040516001600160a01b039091168152602090f35b346102005760403660031901126102005761027f6004356117536119ec565b9080600052600060205261176e600160406000200154611c46565b611d71565b346102005760003660031901126102005760206040517f70b284da8bfc3de812daa2261b4c3ffadd90c2c772295293d09c9629a737a0cd8152f35b346102005760203660031901126102005760043560005260006020526020600160406000200154604051908152f35b34610200576020366003190112610200576117f66119d6565b6117fe611bee565b60028054610100600160a81b03191660089290921b610100600160a81b0316919091179055005b3461020057602036600319011261020057600435611841611bee565b6102588110158061189b575b1561185757600755005b606460405162461bcd60e51b815260206004820152602060248201527f566f6c756d654261736564466565643a20696e76616c69642074696d656f75746044820152fd5b50611c2081111561184d565b3461020057602080600319360112610200576001600160401b036004358181116102005736602382011215610200578060040135918211610200576024906005368385831b84010111610200576118fc611bee565b60005b84811061190857005b80821b8301840135906001600160a01b03821682036102005761194f611955926000805160206122fe83398151915260005260008952611172600160406000200154611c46565b50611f0c565b6118ff565b3461020057600036600319011261020057602060405160008051602061237e8339815191528152f35b34610200576020366003190112610200576004359063ffffffff60e01b821680920361020057602091637965db0b60e01b81149081156119c5575b5015158152f35b6301ffc9a760e01b149050836119be565b600435906001600160a01b038216820361020057565b602435906001600160a01b038216820361020057565b9181601f84011215610200578235916001600160401b038311610200576020838186019501011161020057565b90600182811c92168015611a5f575b6020831014611a4957565b634e487b7160e01b600052602260045260246000fd5b91607f1691611a3e565b6101e081019081106001600160401b03821117610b6057604052565b604081019081106001600160401b03821117610b6057604052565b601f909101601f19168101906001600160401b03821190821017610b6057604052565b9060405191826000825492611ad784611a2f565b908184526001948581169081600014611b465750600114611b03575b5050611b0192500383611aa0565b565b9093915060005260209081600020936000915b818310611b2e575050611b0193508201013880611af3565b85548884018501529485019487945091830191611b16565b915050611b0194506020925060ff191682840152151560051b8201013880611af3565b919082519283825260005b848110611b95575050826000602080949584010152601f8019910116010190565b602081830181015184830182015201611b74565b60061115610b7657565b906004821015610b765752565b8054821015611bd85760005260206000200190600090565b634e487b7160e01b600052603260045260246000fd5b3360009081527fad3228b676f7d3cd4284a5443f17f1962b36e491b30a40b2405849e597ba5fb5602052604081205460ff1615611c285750565b6044906040519063e2517d3f60e01b82523360048301526024820152fd5b80600052600060205260406000203360005260205260ff6040600020541615611c285750565b6001600160a01b0316600081815260008051602061231e83398151915260205260408120549091906000805160206122fe8339815191529060ff16611ce357808352826020526040832082845260205260408320600160ff198254161790556000805160206122de833981519152339380a4600190565b505090565b6001600160a01b031660008181527fbb186cc6582165753931a58fdaac99b9482f9d63c76229808bd3afc382e98215602052604081205490919060008051602061237e8339815191529060ff16611ce357808352826020526040832082845260205260408320600160ff198254161790556000805160206122de833981519152339380a4600190565b9060009180835282602052604083209160018060a01b03169182845260205260ff60408420541615600014611ce357808352826020526040832082845260205260408320600160ff198254161790556000805160206122de833981519152339380a4600190565b6001600160a01b0316600081815260008051602061231e83398151915260205260408120549091906000805160206122fe8339815191529060ff1615611ce35780835282602052604083208284526020526040832060ff19815416905560008051602061239e833981519152339380a4600190565b9060009180835282602052604083209160018060a01b03169182845260205260ff604084205416600014611ce35780835282602052604083208284526020526040832060ff19815416905560008051602061239e833981519152339380a4600190565b15611eb757565b60405162461bcd60e51b815260206004820152602760248201527f566f6c756d654261736564466565643a207072696365206d75737420626520706044820152666f73697469766560c81b6064820152608490fd5b6000198114610c875760010190565b6004821015610b765752565b90601f8111611f3557505050565b600091825260208220906020601f850160051c83019410611f71575b601f0160051c01915b828110611f6657505050565b818155600101611f5a565b9092508290611f51565b8054610100600160a81b03191660089290921b610100600160a81b0316919091179055565b90611faa81611ba9565b61ff0082549160081b169061ff001916179055565b908060209392818452848401376000828201840152601f01601f1916010190565b60ff60025416611fec57565b60405163d93c066560e01b8152600490fd5b60026001541461200f576002600155565b604051633ee5aeb560e01b8152600490fd5b1561202857565b606460405162461bcd60e51b815260206004820152602060248201527f566f6c756d654261736564466565643a20696e76616c696420726571756573746044820152fd5b1561207357565b60405162461bcd60e51b8152602060048201526024808201527f566f6c756d654261736564466565643a2072657175657374206e6f742070656e60448201526364696e6760e01b6064820152608490fd5b156120cb57565b60405162461bcd60e51b815260206004820152602660248201527f566f6c756d654261736564466565643a206e6f7420617574686f72697a6564206044820152653332b2b232b960d11b6064820152608490fd5b1561212657565b606460405162461bcd60e51b815260206004820152602060248201527f566f6c756d654261736564466565643a207265717565737420657870697265646044820152fd5b61217381611ba9565b80156122ab5761218281611ba9565b600181146122735761219381611ba9565b60028114612246576121a481611ba9565b6003811461221657806121b8600492611ba9565b146121e5576040516121c981611a85565b600c81526b27ba3432b9103932b0b9b7b760a11b602082015290565b6040516121f181611a85565b6015815274507269636520697320756e726561736f6e61626c6560581b602082015290565b5060405161222381611a85565b60138152725072696365206e6f7420617661696c61626c6560681b602082015290565b5060405161225381611a85565b601081526f13585c9ad95d081a5cc818db1bdcd95960821b602082015290565b5060405161228081611a85565b601b81527a4e6f2074726164696e6720766f6c756d6520617661696c61626c6560281b602082015290565b506040516122b881611a85565b6015815274150ad60818dbdb991a5d1a5bdb881b9bdd081b595d605a1b60208201529056fe2f8788117e7eff1d82e926ec794901d17c78024a50270940304540a733656f0d80a586cc4ecf40a390b370be075aa38ab3cc512c5c1a7bc1007974dbdf2663c7f3df2cad0328610bdabaaa4666352f9e79b67a748d22942cd8aec92e2fbda4b77c3675bbce43bcac670aeb7638c82a769aba3ec3e168677f73537e2b3cef0e83f3df2cad0328610bdabaaa4666352f9e79b67a748d22942cd8aec92e2fbda4b8ba279271fb7bbf76a6f3df3cc57bf80647fcafdea60ec3383d90f459de74e7c0f6391f5c32d9c69d2a47ea670b442974b53935d1edc7fd64eb21e047a839171ba2646970667358221220f3b42a742ea89dc206eb3d95df8f72659fca24307e48b8ea83dd35ddb16a686164736f6c634300081400332f8788117e7eff1d82e926ec794901d17c78024a50270940304540a733656f0d",
  "linkReferences": {},
  "deployedLinkReferences": {}
}